{
	"minerpunk/ERC20/MinePower.sol": {
		"minePower": {
			"abi": [
				{
					"inputs": [],
					"stateMutability": "nonpayable",
					"type": "constructor"
				},
				{
					"anonymous": false,
					"inputs": [
						{
							"indexed": true,
							"internalType": "address",
							"name": "owner",
							"type": "address"
						},
						{
							"indexed": true,
							"internalType": "address",
							"name": "spender",
							"type": "address"
						},
						{
							"indexed": false,
							"internalType": "uint256",
							"name": "value",
							"type": "uint256"
						}
					],
					"name": "Approval",
					"type": "event"
				},
				{
					"anonymous": false,
					"inputs": [
						{
							"indexed": true,
							"internalType": "address",
							"name": "from",
							"type": "address"
						},
						{
							"indexed": true,
							"internalType": "address",
							"name": "to",
							"type": "address"
						},
						{
							"indexed": false,
							"internalType": "uint256",
							"name": "value",
							"type": "uint256"
						}
					],
					"name": "Transfer",
					"type": "event"
				},
				{
					"inputs": [
						{
							"internalType": "address",
							"name": "user",
							"type": "address"
						}
					],
					"name": "MineStatus",
					"outputs": [
						{
							"internalType": "uint256",
							"name": "",
							"type": "uint256"
						}
					],
					"stateMutability": "view",
					"type": "function"
				},
				{
					"inputs": [
						{
							"internalType": "address",
							"name": "owner",
							"type": "address"
						},
						{
							"internalType": "address",
							"name": "spender",
							"type": "address"
						}
					],
					"name": "allowance",
					"outputs": [
						{
							"internalType": "uint256",
							"name": "",
							"type": "uint256"
						}
					],
					"stateMutability": "view",
					"type": "function"
				},
				{
					"inputs": [
						{
							"internalType": "address",
							"name": "spender",
							"type": "address"
						},
						{
							"internalType": "uint256",
							"name": "amount",
							"type": "uint256"
						}
					],
					"name": "approve",
					"outputs": [
						{
							"internalType": "bool",
							"name": "",
							"type": "bool"
						}
					],
					"stateMutability": "nonpayable",
					"type": "function"
				},
				{
					"inputs": [
						{
							"internalType": "address",
							"name": "account",
							"type": "address"
						}
					],
					"name": "balanceOf",
					"outputs": [
						{
							"internalType": "uint256",
							"name": "",
							"type": "uint256"
						}
					],
					"stateMutability": "view",
					"type": "function"
				},
				{
					"inputs": [
						{
							"internalType": "uint256",
							"name": "_BlockNumber",
							"type": "uint256"
						}
					],
					"name": "blockStatus",
					"outputs": [
						{
							"internalType": "uint256",
							"name": "",
							"type": "uint256"
						}
					],
					"stateMutability": "view",
					"type": "function"
				},
				{
					"inputs": [
						{
							"internalType": "uint256",
							"name": "amount",
							"type": "uint256"
						}
					],
					"name": "burn",
					"outputs": [],
					"stateMutability": "nonpayable",
					"type": "function"
				},
				{
					"inputs": [
						{
							"internalType": "address",
							"name": "account",
							"type": "address"
						},
						{
							"internalType": "uint256",
							"name": "amount",
							"type": "uint256"
						}
					],
					"name": "burnFrom",
					"outputs": [],
					"stateMutability": "nonpayable",
					"type": "function"
				},
				{
					"inputs": [],
					"name": "decimals",
					"outputs": [
						{
							"internalType": "uint8",
							"name": "",
							"type": "uint8"
						}
					],
					"stateMutability": "view",
					"type": "function"
				},
				{
					"inputs": [
						{
							"internalType": "address",
							"name": "spender",
							"type": "address"
						},
						{
							"internalType": "uint256",
							"name": "subtractedValue",
							"type": "uint256"
						}
					],
					"name": "decreaseAllowance",
					"outputs": [
						{
							"internalType": "bool",
							"name": "",
							"type": "bool"
						}
					],
					"stateMutability": "nonpayable",
					"type": "function"
				},
				{
					"inputs": [
						{
							"internalType": "uint256",
							"name": "_BlockNumber",
							"type": "uint256"
						}
					],
					"name": "difficult",
					"outputs": [
						{
							"internalType": "uint256",
							"name": "",
							"type": "uint256"
						}
					],
					"stateMutability": "view",
					"type": "function"
				},
				{
					"inputs": [
						{
							"internalType": "address",
							"name": "spender",
							"type": "address"
						},
						{
							"internalType": "uint256",
							"name": "addedValue",
							"type": "uint256"
						}
					],
					"name": "increaseAllowance",
					"outputs": [
						{
							"internalType": "bool",
							"name": "",
							"type": "bool"
						}
					],
					"stateMutability": "nonpayable",
					"type": "function"
				},
				{
					"inputs": [
						{
							"internalType": "address",
							"name": "user",
							"type": "address"
						},
						{
							"internalType": "uint256",
							"name": "number",
							"type": "uint256"
						}
					],
					"name": "mineInfo",
					"outputs": [
						{
							"internalType": "uint256",
							"name": "",
							"type": "uint256"
						}
					],
					"stateMutability": "view",
					"type": "function"
				},
				{
					"inputs": [],
					"name": "name",
					"outputs": [
						{
							"internalType": "string",
							"name": "",
							"type": "string"
						}
					],
					"stateMutability": "view",
					"type": "function"
				},
				{
					"inputs": [],
					"name": "symbol",
					"outputs": [
						{
							"internalType": "string",
							"name": "",
							"type": "string"
						}
					],
					"stateMutability": "view",
					"type": "function"
				},
				{
					"inputs": [],
					"name": "totalSupply",
					"outputs": [
						{
							"internalType": "uint256",
							"name": "",
							"type": "uint256"
						}
					],
					"stateMutability": "view",
					"type": "function"
				},
				{
					"inputs": [
						{
							"internalType": "address",
							"name": "to",
							"type": "address"
						},
						{
							"internalType": "uint256",
							"name": "amount",
							"type": "uint256"
						}
					],
					"name": "transfer",
					"outputs": [
						{
							"internalType": "bool",
							"name": "",
							"type": "bool"
						}
					],
					"stateMutability": "nonpayable",
					"type": "function"
				},
				{
					"inputs": [
						{
							"internalType": "address",
							"name": "from",
							"type": "address"
						},
						{
							"internalType": "address",
							"name": "to",
							"type": "address"
						},
						{
							"internalType": "uint256",
							"name": "amount",
							"type": "uint256"
						}
					],
					"name": "transferFrom",
					"outputs": [
						{
							"internalType": "bool",
							"name": "",
							"type": "bool"
						}
					],
					"stateMutability": "nonpayable",
					"type": "function"
				}
			],
			"devdoc": {
				"kind": "dev",
				"methods": {
					"allowance(address,address)": {
						"details": "See {IERC20-allowance}."
					},
					"approve(address,uint256)": {
						"details": "See {IERC20-approve}. NOTE: If `amount` is the maximum `uint256`, the allowance is not updated on `transferFrom`. This is semantically equivalent to an infinite approval. Requirements: - `spender` cannot be the zero address."
					},
					"balanceOf(address)": {
						"details": "See {IERC20-balanceOf}."
					},
					"burn(uint256)": {
						"details": "Destroys `amount` tokens from the caller. See {ERC20-_burn}."
					},
					"burnFrom(address,uint256)": {
						"details": "Destroys `amount` tokens from `account`, deducting from the caller's allowance. See {ERC20-_burn} and {ERC20-allowance}. Requirements: - the caller must have allowance for ``accounts``'s tokens of at least `amount`."
					},
					"decimals()": {
						"details": "Returns the number of decimals used to get its user representation. For example, if `decimals` equals `2`, a balance of `505` tokens should be displayed to a user as `5.05` (`505 / 10 ** 2`). Tokens usually opt for a value of 18, imitating the relationship between Ether and Wei. This is the value {ERC20} uses, unless this function is overridden; NOTE: This information is only used for _display_ purposes: it in no way affects any of the arithmetic of the contract, including {IERC20-balanceOf} and {IERC20-transfer}."
					},
					"decreaseAllowance(address,uint256)": {
						"details": "Atomically decreases the allowance granted to `spender` by the caller. This is an alternative to {approve} that can be used as a mitigation for problems described in {IERC20-approve}. Emits an {Approval} event indicating the updated allowance. Requirements: - `spender` cannot be the zero address. - `spender` must have allowance for the caller of at least `subtractedValue`."
					},
					"increaseAllowance(address,uint256)": {
						"details": "Atomically increases the allowance granted to `spender` by the caller. This is an alternative to {approve} that can be used as a mitigation for problems described in {IERC20-approve}. Emits an {Approval} event indicating the updated allowance. Requirements: - `spender` cannot be the zero address."
					},
					"name()": {
						"details": "Returns the name of the token."
					},
					"symbol()": {
						"details": "Returns the symbol of the token, usually a shorter version of the name."
					},
					"totalSupply()": {
						"details": "See {IERC20-totalSupply}."
					},
					"transfer(address,uint256)": {
						"details": "See {IERC20-transfer}. Requirements: - `to` cannot be the zero address. - the caller must have a balance of at least `amount`."
					},
					"transferFrom(address,address,uint256)": {
						"details": "See {IERC20-transferFrom}. Emits an {Approval} event indicating the updated allowance. This is not required by the EIP. See the note at the beginning of {ERC20}. NOTE: Does not update the allowance if the current allowance is the maximum `uint256`. Requirements: - `from` and `to` cannot be the zero address. - `from` must have a balance of at least `amount`. - the caller must have allowance for ``from``'s tokens of at least `amount`."
					}
				},
				"version": 1
			},
			"evm": {
				"assembly": "    /* \"minerpunk/ERC20/MinePower.sol\":27282:27463  contract minePower is ERC20,ERC20Burnable{... */\n  mstore(0x40, 0x80)\n    /* \"minerpunk/ERC20/MinePower.sol\":27329:27456  constructor() ERC20(\"minePower\", \"MPower\",block.number) {... */\n  callvalue\n  dup1\n  iszero\n  tag_1\n  jumpi\n  0x00\n  dup1\n  revert\ntag_1:\n  pop\n    /* \"minerpunk/ERC20/MinePower.sol\":13436:13655  constructor(string memory name_, string memory symbol_, uint256  startBlockNumber_) {... */\n  mload(0x40)\n  dup1\n  0x40\n  add\n  0x40\n  mstore\n  dup1\n  0x09\n  dup2\n  mstore\n  0x20\n  add\n  0x6d696e65506f7765720000000000000000000000000000000000000000000000\n  dup2\n  mstore\n  pop\n  mload(0x40)\n  dup1\n  0x40\n  add\n  0x40\n  mstore\n  dup1\n  0x06\n  dup2\n  mstore\n  0x20\n  add\n  0x4d506f7765720000000000000000000000000000000000000000000000000000\n  dup2\n  mstore\n  pop\n    /* \"minerpunk/ERC20/MinePower.sol\":27371:27383  block.number */\n  number\n    /* \"minerpunk/ERC20/MinePower.sol\":13538:13543  name_ */\n  dup3\n    /* \"minerpunk/ERC20/MinePower.sol\":13530:13535  _name */\n  0x05\n    /* \"minerpunk/ERC20/MinePower.sol\":13530:13543  _name = name_ */\n  swap1\n  dup2\n  tag_5\n  swap2\n  swap1\n  tag_6\n  jump\t// in\ntag_5:\n  pop\n    /* \"minerpunk/ERC20/MinePower.sol\":13563:13570  symbol_ */\n  dup2\n    /* \"minerpunk/ERC20/MinePower.sol\":13553:13560  _symbol */\n  0x06\n    /* \"minerpunk/ERC20/MinePower.sol\":13553:13570  _symbol = symbol_ */\n  swap1\n  dup2\n  tag_7\n  swap2\n  swap1\n  tag_6\n  jump\t// in\ntag_7:\n  pop\n    /* \"minerpunk/ERC20/MinePower.sol\":13597:13601  5e18 */\n  0x4563918244f40000\n    /* \"minerpunk/ERC20/MinePower.sol\":13580:13594  _TokenperBlock */\n  0x03\n    /* \"minerpunk/ERC20/MinePower.sol\":13580:13601  _TokenperBlock = 5e18 */\n  dup2\n  swap1\n  sstore\n  pop\n    /* \"minerpunk/ERC20/MinePower.sol\":13631:13648  startBlockNumber_ */\n  dup1\n    /* \"minerpunk/ERC20/MinePower.sol\":13611:13628  _startBlockNumber */\n  0x04\n    /* \"minerpunk/ERC20/MinePower.sol\":13611:13648  _startBlockNumber = startBlockNumber_ */\n  dup2\n  swap1\n  sstore\n  pop\n    /* \"minerpunk/ERC20/MinePower.sol\":13436:13655  constructor(string memory name_, string memory symbol_, uint256  startBlockNumber_) {... */\n  pop\n  pop\n  pop\n    /* \"minerpunk/ERC20/MinePower.sol\":27395:27441  _mint(msg.sender, 60000000 * 10 ** decimals()) */\n  tag_9\n    /* \"minerpunk/ERC20/MinePower.sol\":27401:27411  msg.sender */\n  caller\n    /* \"minerpunk/ERC20/MinePower.sol\":27430:27440  decimals() */\n  tag_10\n    /* \"minerpunk/ERC20/MinePower.sol\":27430:27438  decimals */\n  shl(0x20, tag_11)\n    /* \"minerpunk/ERC20/MinePower.sol\":27430:27440  decimals() */\n  0x20\n  shr\n  jump\t// in\ntag_10:\n    /* \"minerpunk/ERC20/MinePower.sol\":27424:27426  10 */\n  0x0a\n    /* \"minerpunk/ERC20/MinePower.sol\":27424:27440  10 ** decimals() */\n  tag_12\n  swap2\n  swap1\n  tag_13\n  jump\t// in\ntag_12:\n    /* \"minerpunk/ERC20/MinePower.sol\":27413:27421  60000000 */\n  0x03938700\n    /* \"minerpunk/ERC20/MinePower.sol\":27413:27440  60000000 * 10 ** decimals() */\n  tag_14\n  swap2\n  swap1\n  tag_15\n  jump\t// in\ntag_14:\n    /* \"minerpunk/ERC20/MinePower.sol\":27395:27400  _mint */\n  shl(0x20, tag_16)\n    /* \"minerpunk/ERC20/MinePower.sol\":27395:27441  _mint(msg.sender, 60000000 * 10 ** decimals()) */\n  0x20\n  shr\n  jump\t// in\ntag_9:\n    /* \"minerpunk/ERC20/MinePower.sol\":27282:27463  contract minePower is ERC20,ERC20Burnable{... */\n  jump(tag_17)\n    /* \"minerpunk/ERC20/MinePower.sol\":16104:16195  function decimals() public view virtual override returns (uint8) {... */\ntag_11:\n    /* \"minerpunk/ERC20/MinePower.sol\":16162:16167  uint8 */\n  0x00\n    /* \"minerpunk/ERC20/MinePower.sol\":16186:16188  18 */\n  0x12\n    /* \"minerpunk/ERC20/MinePower.sol\":16179:16188  return 18 */\n  swap1\n  pop\n    /* \"minerpunk/ERC20/MinePower.sol\":16104:16195  function decimals() public view virtual override returns (uint8) {... */\n  swap1\n  jump\t// out\n    /* \"minerpunk/ERC20/MinePower.sol\":21590:22109  function _mint(address account, uint256 amount) internal virtual {... */\ntag_16:\n    /* \"minerpunk/ERC20/MinePower.sol\":21692:21693  0 */\n  0x00\n    /* \"minerpunk/ERC20/MinePower.sol\":21673:21694  account != address(0) */\n  0xffffffffffffffffffffffffffffffffffffffff\n  and\n    /* \"minerpunk/ERC20/MinePower.sol\":21673:21680  account */\n  dup3\n    /* \"minerpunk/ERC20/MinePower.sol\":21673:21694  account != address(0) */\n  0xffffffffffffffffffffffffffffffffffffffff\n  and\n  sub\n    /* \"minerpunk/ERC20/MinePower.sol\":21665:21730  require(account != address(0), \"ERC20: mint to the zero address\") */\n  tag_20\n  jumpi\n  mload(0x40)\n  0x08c379a000000000000000000000000000000000000000000000000000000000\n  dup2\n  mstore\n  0x04\n  add\n  tag_21\n  swap1\n  tag_22\n  jump\t// in\ntag_21:\n  mload(0x40)\n  dup1\n  swap2\n  sub\n  swap1\n  revert\ntag_20:\n    /* \"minerpunk/ERC20/MinePower.sol\":21763:21775  block.number */\n  number\n    /* \"minerpunk/ERC20/MinePower.sol\":21740:21749  _mineInfo */\n  0x07\n    /* \"minerpunk/ERC20/MinePower.sol\":21740:21758  _mineInfo[account] */\n  0x00\n    /* \"minerpunk/ERC20/MinePower.sol\":21750:21757  account */\n  dup5\n    /* \"minerpunk/ERC20/MinePower.sol\":21740:21758  _mineInfo[account] */\n  0xffffffffffffffffffffffffffffffffffffffff\n  and\n  0xffffffffffffffffffffffffffffffffffffffff\n  and\n  dup2\n  mstore\n  0x20\n  add\n  swap1\n  dup2\n  mstore\n  0x20\n  add\n  0x00\n  keccak256\n    /* \"minerpunk/ERC20/MinePower.sol\":21740:21761  _mineInfo[account][1] */\n  0x00\n    /* \"minerpunk/ERC20/MinePower.sol\":21759:21760  1 */\n  0x01\n    /* \"minerpunk/ERC20/MinePower.sol\":21740:21761  _mineInfo[account][1] */\n  dup2\n  mstore\n  0x20\n  add\n  swap1\n  dup2\n  mstore\n  0x20\n  add\n  0x00\n  keccak256\n    /* \"minerpunk/ERC20/MinePower.sol\":21740:21775  _mineInfo[account][1]= block.number */\n  dup2\n  swap1\n  sstore\n  pop\n    /* \"minerpunk/ERC20/MinePower.sol\":21794:21843  _beforeTokenTransfer(address(0), account, amount) */\n  tag_23\n    /* \"minerpunk/ERC20/MinePower.sol\":21823:21824  0 */\n  0x00\n    /* \"minerpunk/ERC20/MinePower.sol\":21827:21834  account */\n  dup4\n    /* \"minerpunk/ERC20/MinePower.sol\":21836:21842  amount */\n  dup4\n    /* \"minerpunk/ERC20/MinePower.sol\":21794:21814  _beforeTokenTransfer */\n  shl(0x20, tag_24)\n    /* \"minerpunk/ERC20/MinePower.sol\":21794:21843  _beforeTokenTransfer(address(0), account, amount) */\n  0x20\n  shr\n  jump\t// in\ntag_23:\n    /* \"minerpunk/ERC20/MinePower.sol\":21870:21876  amount */\n  dup1\n    /* \"minerpunk/ERC20/MinePower.sol\":21854:21866  _totalSupply */\n  0x02\n  0x00\n    /* \"minerpunk/ERC20/MinePower.sol\":21854:21876  _totalSupply += amount */\n  dup3\n  dup3\n  sload\n  tag_25\n  swap2\n  swap1\n  tag_26\n  jump\t// in\ntag_25:\n  swap3\n  pop\n  pop\n  dup2\n  swap1\n  sstore\n  pop\n    /* \"minerpunk/ERC20/MinePower.sol\":21908:21914  amount */\n  dup1\n    /* \"minerpunk/ERC20/MinePower.sol\":21886:21895  _balances */\n  0x00\n    /* \"minerpunk/ERC20/MinePower.sol\":21886:21904  _balances[account] */\n  dup1\n    /* \"minerpunk/ERC20/MinePower.sol\":21896:21903  account */\n  dup5\n    /* \"minerpunk/ERC20/MinePower.sol\":21886:21904  _balances[account] */\n  0xffffffffffffffffffffffffffffffffffffffff\n  and\n  0xffffffffffffffffffffffffffffffffffffffff\n  and\n  dup2\n  mstore\n  0x20\n  add\n  swap1\n  dup2\n  mstore\n  0x20\n  add\n  0x00\n  keccak256\n  0x00\n    /* \"minerpunk/ERC20/MinePower.sol\":21886:21914  _balances[account] += amount */\n  dup3\n  dup3\n  sload\n  tag_27\n  swap2\n  swap1\n  tag_26\n  jump\t// in\ntag_27:\n  swap3\n  pop\n  pop\n  dup2\n  swap1\n  sstore\n  pop\n    /* \"minerpunk/ERC20/MinePower.sol\":21950:21957  account */\n  dup2\n    /* \"minerpunk/ERC20/MinePower.sol\":21929:21966  Transfer(address(0), account, amount) */\n  0xffffffffffffffffffffffffffffffffffffffff\n  and\n    /* \"minerpunk/ERC20/MinePower.sol\":21946:21947  0 */\n  0x00\n    /* \"minerpunk/ERC20/MinePower.sol\":21929:21966  Transfer(address(0), account, amount) */\n  0xffffffffffffffffffffffffffffffffffffffff\n  and\n  0xddf252ad1be2c89b69c2b068fc378daa952ba7f163c4a11628f55a4df523b3ef\n    /* \"minerpunk/ERC20/MinePower.sol\":21959:21965  amount */\n  dup4\n    /* \"minerpunk/ERC20/MinePower.sol\":21929:21966  Transfer(address(0), account, amount) */\n  mload(0x40)\n  tag_28\n  swap2\n  swap1\n  tag_29\n  jump\t// in\ntag_28:\n  mload(0x40)\n  dup1\n  swap2\n  sub\n  swap1\n  log3\n    /* \"minerpunk/ERC20/MinePower.sol\":21977:22025  _afterTokenTransfer(address(0), account, amount) */\n  tag_30\n    /* \"minerpunk/ERC20/MinePower.sol\":22005:22006  0 */\n  0x00\n    /* \"minerpunk/ERC20/MinePower.sol\":22009:22016  account */\n  dup4\n    /* \"minerpunk/ERC20/MinePower.sol\":22018:22024  amount */\n  dup4\n    /* \"minerpunk/ERC20/MinePower.sol\":21977:21996  _afterTokenTransfer */\n  shl(0x20, tag_31)\n    /* \"minerpunk/ERC20/MinePower.sol\":21977:22025  _afterTokenTransfer(address(0), account, amount) */\n  0x20\n  shr\n  jump\t// in\ntag_30:\n    /* \"minerpunk/ERC20/MinePower.sol\":22058:22077  MineStatus(account) */\n  tag_32\n    /* \"minerpunk/ERC20/MinePower.sol\":22069:22076  account */\n  dup3\n    /* \"minerpunk/ERC20/MinePower.sol\":22058:22068  MineStatus */\n  shl(0x20, tag_33)\n    /* \"minerpunk/ERC20/MinePower.sol\":22058:22077  MineStatus(account) */\n  0x20\n  shr\n  jump\t// in\ntag_32:\n    /* \"minerpunk/ERC20/MinePower.sol\":22035:22044  _mineInfo */\n  0x07\n    /* \"minerpunk/ERC20/MinePower.sol\":22035:22053  _mineInfo[account] */\n  0x00\n    /* \"minerpunk/ERC20/MinePower.sol\":22045:22052  account */\n  dup5\n    /* \"minerpunk/ERC20/MinePower.sol\":22035:22053  _mineInfo[account] */\n  0xffffffffffffffffffffffffffffffffffffffff\n  and\n  0xffffffffffffffffffffffffffffffffffffffff\n  and\n  dup2\n  mstore\n  0x20\n  add\n  swap1\n  dup2\n  mstore\n  0x20\n  add\n  0x00\n  keccak256\n    /* \"minerpunk/ERC20/MinePower.sol\":22035:22056  _mineInfo[account][3] */\n  0x00\n    /* \"minerpunk/ERC20/MinePower.sol\":22054:22055  3 */\n  0x03\n    /* \"minerpunk/ERC20/MinePower.sol\":22035:22056  _mineInfo[account][3] */\n  dup2\n  mstore\n  0x20\n  add\n  swap1\n  dup2\n  mstore\n  0x20\n  add\n  0x00\n  keccak256\n    /* \"minerpunk/ERC20/MinePower.sol\":22035:22077  _mineInfo[account][3]= MineStatus(account) */\n  dup2\n  swap1\n  sstore\n  pop\n    /* \"minerpunk/ERC20/MinePower.sol\":21590:22109  function _mint(address account, uint256 amount) internal virtual {... */\n  pop\n  pop\n  jump\t// out\n    /* \"minerpunk/ERC20/MinePower.sol\":25241:25362  function _beforeTokenTransfer(... */\ntag_24:\n  pop\n  pop\n  pop\n  jump\t// out\n    /* \"minerpunk/ERC20/MinePower.sol\":25950:26070  function _afterTokenTransfer(... */\ntag_31:\n  pop\n  pop\n  pop\n  jump\t// out\n    /* \"minerpunk/ERC20/MinePower.sol\":13841:14366  function MineStatus(address user)public view  returns(uint256){... */\ntag_33:\n    /* \"minerpunk/ERC20/MinePower.sol\":13895:13902  uint256 */\n  0x00\n    /* \"minerpunk/ERC20/MinePower.sol\":13913:13931  uint256 difference */\n  dup1\n    /* \"minerpunk/ERC20/MinePower.sol\":13934:13970  block.number.sub(_mineInfo[user][1]) */\n  tag_37\n    /* \"minerpunk/ERC20/MinePower.sol\":13951:13960  _mineInfo */\n  0x07\n    /* \"minerpunk/ERC20/MinePower.sol\":13951:13966  _mineInfo[user] */\n  0x00\n    /* \"minerpunk/ERC20/MinePower.sol\":13961:13965  user */\n  dup6\n    /* \"minerpunk/ERC20/MinePower.sol\":13951:13966  _mineInfo[user] */\n  0xffffffffffffffffffffffffffffffffffffffff\n  and\n  0xffffffffffffffffffffffffffffffffffffffff\n  and\n  dup2\n  mstore\n  0x20\n  add\n  swap1\n  dup2\n  mstore\n  0x20\n  add\n  0x00\n  keccak256\n    /* \"minerpunk/ERC20/MinePower.sol\":13951:13969  _mineInfo[user][1] */\n  0x00\n    /* \"minerpunk/ERC20/MinePower.sol\":13967:13968  1 */\n  0x01\n    /* \"minerpunk/ERC20/MinePower.sol\":13951:13969  _mineInfo[user][1] */\n  dup2\n  mstore\n  0x20\n  add\n  swap1\n  dup2\n  mstore\n  0x20\n  add\n  0x00\n  keccak256\n  sload\n    /* \"minerpunk/ERC20/MinePower.sol\":13934:13946  block.number */\n  number\n    /* \"minerpunk/ERC20/MinePower.sol\":13934:13950  block.number.sub */\n  or(tag_0_94, shl(0x20, tag_38))\n  swap1\n    /* \"minerpunk/ERC20/MinePower.sol\":13934:13970  block.number.sub(_mineInfo[user][1]) */\n  swap2\n  swap1\n  0x20\n  shr\n  jump\t// in\ntag_37:\n    /* \"minerpunk/ERC20/MinePower.sol\":13913:13970  uint256 difference = block.number.sub(_mineInfo[user][1]) */\n  swap1\n  pop\n    /* \"minerpunk/ERC20/MinePower.sol\":13980:13993  uint256 start */\n  0x00\n    /* \"minerpunk/ERC20/MinePower.sol\":13996:14027  blockStatus(_mineInfo[user][1]) */\n  tag_39\n    /* \"minerpunk/ERC20/MinePower.sol\":14008:14017  _mineInfo */\n  0x07\n    /* \"minerpunk/ERC20/MinePower.sol\":14008:14023  _mineInfo[user] */\n  0x00\n    /* \"minerpunk/ERC20/MinePower.sol\":14018:14022  user */\n  dup7\n    /* \"minerpunk/ERC20/MinePower.sol\":14008:14023  _mineInfo[user] */\n  0xffffffffffffffffffffffffffffffffffffffff\n  and\n  0xffffffffffffffffffffffffffffffffffffffff\n  and\n  dup2\n  mstore\n  0x20\n  add\n  swap1\n  dup2\n  mstore\n  0x20\n  add\n  0x00\n  keccak256\n    /* \"minerpunk/ERC20/MinePower.sol\":14008:14026  _mineInfo[user][1] */\n  0x00\n    /* \"minerpunk/ERC20/MinePower.sol\":14024:14025  1 */\n  0x01\n    /* \"minerpunk/ERC20/MinePower.sol\":14008:14026  _mineInfo[user][1] */\n  dup2\n  mstore\n  0x20\n  add\n  swap1\n  dup2\n  mstore\n  0x20\n  add\n  0x00\n  keccak256\n  sload\n    /* \"minerpunk/ERC20/MinePower.sol\":13996:14007  blockStatus */\n  shl(0x20, tag_40)\n    /* \"minerpunk/ERC20/MinePower.sol\":13996:14027  blockStatus(_mineInfo[user][1]) */\n  0x20\n  shr\n  jump\t// in\ntag_39:\n    /* \"minerpunk/ERC20/MinePower.sol\":13980:14027  uint256 start = blockStatus(_mineInfo[user][1]) */\n  swap1\n  pop\n    /* \"minerpunk/ERC20/MinePower.sol\":14037:14048  uint256 end */\n  0x00\n    /* \"minerpunk/ERC20/MinePower.sol\":14051:14076  blockStatus(block.number) */\n  tag_41\n    /* \"minerpunk/ERC20/MinePower.sol\":14063:14075  block.number */\n  number\n    /* \"minerpunk/ERC20/MinePower.sol\":14051:14062  blockStatus */\n  shl(0x20, tag_40)\n    /* \"minerpunk/ERC20/MinePower.sol\":14051:14076  blockStatus(block.number) */\n  0x20\n  shr\n  jump\t// in\ntag_41:\n    /* \"minerpunk/ERC20/MinePower.sol\":14037:14076  uint256 end = blockStatus(block.number) */\n  swap1\n  pop\n    /* \"minerpunk/ERC20/MinePower.sol\":14086:14104  uint256 mined_area */\n  0x00\n    /* \"minerpunk/ERC20/MinePower.sol\":14107:14144  start.add(end).mul(difference).div(2) */\n  tag_42\n    /* \"minerpunk/ERC20/MinePower.sol\":14142:14143  2 */\n  0x02\n    /* \"minerpunk/ERC20/MinePower.sol\":14107:14137  start.add(end).mul(difference) */\n  tag_43\n    /* \"minerpunk/ERC20/MinePower.sol\":14126:14136  difference */\n  dup7\n    /* \"minerpunk/ERC20/MinePower.sol\":14107:14121  start.add(end) */\n  tag_44\n    /* \"minerpunk/ERC20/MinePower.sol\":14117:14120  end */\n  dup7\n    /* \"minerpunk/ERC20/MinePower.sol\":14107:14112  start */\n  dup9\n    /* \"minerpunk/ERC20/MinePower.sol\":14107:14116  start.add */\n  or(tag_0_95, shl(0x20, tag_45))\n  swap1\n    /* \"minerpunk/ERC20/MinePower.sol\":14107:14121  start.add(end) */\n  swap2\n  swap1\n  0x20\n  shr\n  jump\t// in\ntag_44:\n    /* \"minerpunk/ERC20/MinePower.sol\":14107:14125  start.add(end).mul */\n  or(tag_0_96, shl(0x20, tag_46))\n  swap1\n    /* \"minerpunk/ERC20/MinePower.sol\":14107:14137  start.add(end).mul(difference) */\n  swap2\n  swap1\n  0x20\n  shr\n  jump\t// in\ntag_43:\n    /* \"minerpunk/ERC20/MinePower.sol\":14107:14141  start.add(end).mul(difference).div */\n  or(tag_0_97, shl(0x20, tag_47))\n  swap1\n    /* \"minerpunk/ERC20/MinePower.sol\":14107:14144  start.add(end).mul(difference).div(2) */\n  swap2\n  swap1\n  0x20\n  shr\n  jump\t// in\ntag_42:\n    /* \"minerpunk/ERC20/MinePower.sol\":14086:14144  uint256 mined_area = start.add(end).mul(difference).div(2) */\n  swap1\n  pop\n    /* \"minerpunk/ERC20/MinePower.sol\":14234:14249  uint dcf_amount */\n  0x00\n    /* \"minerpunk/ERC20/MinePower.sol\":14252:14301  mined_area.mul(balanceOf(user)).div(_totalSupply) */\n  tag_48\n    /* \"minerpunk/ERC20/MinePower.sol\":14288:14300  _totalSupply */\n  sload(0x02)\n    /* \"minerpunk/ERC20/MinePower.sol\":14252:14283  mined_area.mul(balanceOf(user)) */\n  tag_49\n    /* \"minerpunk/ERC20/MinePower.sol\":14267:14282  balanceOf(user) */\n  tag_50\n    /* \"minerpunk/ERC20/MinePower.sol\":14277:14281  user */\n  dup11\n    /* \"minerpunk/ERC20/MinePower.sol\":14267:14276  balanceOf */\n  shl(0x20, tag_51)\n    /* \"minerpunk/ERC20/MinePower.sol\":14267:14282  balanceOf(user) */\n  0x20\n  shr\n  jump\t// in\ntag_50:\n    /* \"minerpunk/ERC20/MinePower.sol\":14252:14262  mined_area */\n  dup6\n    /* \"minerpunk/ERC20/MinePower.sol\":14252:14266  mined_area.mul */\n  or(tag_0_96, shl(0x20, tag_46))\n  swap1\n    /* \"minerpunk/ERC20/MinePower.sol\":14252:14283  mined_area.mul(balanceOf(user)) */\n  swap2\n  swap1\n  0x20\n  shr\n  jump\t// in\ntag_49:\n    /* \"minerpunk/ERC20/MinePower.sol\":14252:14287  mined_area.mul(balanceOf(user)).div */\n  or(tag_0_97, shl(0x20, tag_47))\n  swap1\n    /* \"minerpunk/ERC20/MinePower.sol\":14252:14301  mined_area.mul(balanceOf(user)).div(_totalSupply) */\n  swap2\n  swap1\n  0x20\n  shr\n  jump\t// in\ntag_48:\n    /* \"minerpunk/ERC20/MinePower.sol\":14234:14301  uint dcf_amount = mined_area.mul(balanceOf(user)).div(_totalSupply) */\n  swap1\n  pop\n    /* \"minerpunk/ERC20/MinePower.sol\":14318:14352  _mineInfo[user][3].add(dcf_amount) */\n  tag_52\n    /* \"minerpunk/ERC20/MinePower.sol\":14341:14351  dcf_amount */\n  dup2\n    /* \"minerpunk/ERC20/MinePower.sol\":14318:14327  _mineInfo */\n  0x07\n    /* \"minerpunk/ERC20/MinePower.sol\":14318:14333  _mineInfo[user] */\n  0x00\n    /* \"minerpunk/ERC20/MinePower.sol\":14328:14332  user */\n  dup11\n    /* \"minerpunk/ERC20/MinePower.sol\":14318:14333  _mineInfo[user] */\n  0xffffffffffffffffffffffffffffffffffffffff\n  and\n  0xffffffffffffffffffffffffffffffffffffffff\n  and\n  dup2\n  mstore\n  0x20\n  add\n  swap1\n  dup2\n  mstore\n  0x20\n  add\n  0x00\n  keccak256\n    /* \"minerpunk/ERC20/MinePower.sol\":14318:14336  _mineInfo[user][3] */\n  0x00\n    /* \"minerpunk/ERC20/MinePower.sol\":14334:14335  3 */\n  0x03\n    /* \"minerpunk/ERC20/MinePower.sol\":14318:14336  _mineInfo[user][3] */\n  dup2\n  mstore\n  0x20\n  add\n  swap1\n  dup2\n  mstore\n  0x20\n  add\n  0x00\n  keccak256\n  sload\n    /* \"minerpunk/ERC20/MinePower.sol\":14318:14340  _mineInfo[user][3].add */\n  or(tag_0_95, shl(0x20, tag_45))\n  swap1\n    /* \"minerpunk/ERC20/MinePower.sol\":14318:14352  _mineInfo[user][3].add(dcf_amount) */\n  swap2\n  swap1\n  0x20\n  shr\n  jump\t// in\ntag_52:\n    /* \"minerpunk/ERC20/MinePower.sol\":14311:14352  return _mineInfo[user][3].add(dcf_amount) */\n  swap6\n  pop\n  pop\n  pop\n  pop\n  pop\n  pop\n    /* \"minerpunk/ERC20/MinePower.sol\":13841:14366  function MineStatus(address user)public view  returns(uint256){... */\n  swap2\n  swap1\n  pop\n  jump\t// out\n    /* \"minerpunk/ERC20/MinePower.sol\":3181:3277  function sub(uint256 a, uint256 b) internal pure returns (uint256) {... */\ntag_38:\n    /* \"minerpunk/ERC20/MinePower.sol\":3239:3246  uint256 */\n  0x00\n    /* \"minerpunk/ERC20/MinePower.sol\":3269:3270  b */\n  dup2\n    /* \"minerpunk/ERC20/MinePower.sol\":3265:3266  a */\n  dup4\n    /* \"minerpunk/ERC20/MinePower.sol\":3265:3270  a - b */\n  tag_54\n  swap2\n  swap1\n  tag_55\n  jump\t// in\ntag_54:\n    /* \"minerpunk/ERC20/MinePower.sol\":3258:3270  return a - b */\n  swap1\n  pop\n    /* \"minerpunk/ERC20/MinePower.sol\":3181:3277  function sub(uint256 a, uint256 b) internal pure returns (uint256) {... */\n  swap3\n  swap2\n  pop\n  pop\n  jump\t// out\n    /* \"minerpunk/ERC20/MinePower.sol\":14433:14828  function blockStatus (uint256 _BlockNumber)public view  returns (uint256){... */\ntag_40:\n    /* \"minerpunk/ERC20/MinePower.sol\":14498:14505  uint256 */\n  0x00\n    /* \"minerpunk/ERC20/MinePower.sol\":14534:14551  _startBlockNumber */\n  sload(0x04)\n    /* \"minerpunk/ERC20/MinePower.sol\":14519:14531  _BlockNumber */\n  dup3\n    /* \"minerpunk/ERC20/MinePower.sol\":14519:14551  _BlockNumber < _startBlockNumber */\n  lt\n    /* \"minerpunk/ERC20/MinePower.sol\":14516:14609  if(_BlockNumber < _startBlockNumber){... */\n  iszero\n  tag_57\n  jumpi\n    /* \"minerpunk/ERC20/MinePower.sol\":14581:14598  _startBlockNumber */\n  sload(0x04)\n    /* \"minerpunk/ERC20/MinePower.sol\":14566:14598  _BlockNumber = _startBlockNumber */\n  swap2\n  pop\n    /* \"minerpunk/ERC20/MinePower.sol\":14516:14609  if(_BlockNumber < _startBlockNumber){... */\ntag_57:\n    /* \"minerpunk/ERC20/MinePower.sol\":14618:14637  uint256 DCFperBlock */\n  0x00\n    /* \"minerpunk/ERC20/MinePower.sol\":14640:14664  _TokenperBlock.mul(1e54) */\n  tag_58\n    /* \"minerpunk/ERC20/MinePower.sol\":14659:14663  1e54 */\n  0x0a70c3c40a64e6c51999090b65f67d9240000000000000\n    /* \"minerpunk/ERC20/MinePower.sol\":14640:14654  _TokenperBlock */\n  sload(0x03)\n    /* \"minerpunk/ERC20/MinePower.sol\":14640:14658  _TokenperBlock.mul */\n  or(tag_0_96, shl(0x20, tag_46))\n  swap1\n    /* \"minerpunk/ERC20/MinePower.sol\":14640:14664  _TokenperBlock.mul(1e54) */\n  swap2\n  swap1\n  0x20\n  shr\n  jump\t// in\ntag_58:\n    /* \"minerpunk/ERC20/MinePower.sol\":14618:14664  uint256 DCFperBlock = _TokenperBlock.mul(1e54) */\n  swap1\n  pop\n    /* \"minerpunk/ERC20/MinePower.sol\":14685:14707  uint256 BlockDifficult */\n  0x00\n    /* \"minerpunk/ERC20/MinePower.sol\":14710:14733  difficult(_BlockNumber) */\n  tag_59\n    /* \"minerpunk/ERC20/MinePower.sol\":14720:14732  _BlockNumber */\n  dup5\n    /* \"minerpunk/ERC20/MinePower.sol\":14710:14719  difficult */\n  shl(0x20, tag_60)\n    /* \"minerpunk/ERC20/MinePower.sol\":14710:14733  difficult(_BlockNumber) */\n  0x20\n  shr\n  jump\t// in\ntag_59:\n    /* \"minerpunk/ERC20/MinePower.sol\":14685:14733  uint256 BlockDifficult = difficult(_BlockNumber) */\n  swap1\n  pop\n    /* \"minerpunk/ERC20/MinePower.sol\":14748:14761  uint256 DugUP */\n  0x00\n    /* \"minerpunk/ERC20/MinePower.sol\":14764:14795  DCFperBlock.div(BlockDifficult) */\n  tag_61\n    /* \"minerpunk/ERC20/MinePower.sol\":14780:14794  BlockDifficult */\n  dup3\n    /* \"minerpunk/ERC20/MinePower.sol\":14764:14775  DCFperBlock */\n  dup5\n    /* \"minerpunk/ERC20/MinePower.sol\":14764:14779  DCFperBlock.div */\n  or(tag_0_97, shl(0x20, tag_47))\n  swap1\n    /* \"minerpunk/ERC20/MinePower.sol\":14764:14795  DCFperBlock.div(BlockDifficult) */\n  swap2\n  swap1\n  0x20\n  shr\n  jump\t// in\ntag_61:\n    /* \"minerpunk/ERC20/MinePower.sol\":14748:14795  uint256 DugUP = DCFperBlock.div(BlockDifficult) */\n  swap1\n  pop\n    /* \"minerpunk/ERC20/MinePower.sol\":14812:14817  DugUP */\n  dup1\n    /* \"minerpunk/ERC20/MinePower.sol\":14805:14817  return DugUP */\n  swap4\n  pop\n  pop\n  pop\n  pop\n    /* \"minerpunk/ERC20/MinePower.sol\":14433:14828  function blockStatus (uint256 _BlockNumber)public view  returns (uint256){... */\n  swap2\n  swap1\n  pop\n  jump\t// out\n    /* \"minerpunk/ERC20/MinePower.sol\":2814:2910  function add(uint256 a, uint256 b) internal pure returns (uint256) {... */\ntag_45:\n    /* \"minerpunk/ERC20/MinePower.sol\":2872:2879  uint256 */\n  0x00\n    /* \"minerpunk/ERC20/MinePower.sol\":2902:2903  b */\n  dup2\n    /* \"minerpunk/ERC20/MinePower.sol\":2898:2899  a */\n  dup4\n    /* \"minerpunk/ERC20/MinePower.sol\":2898:2903  a + b */\n  tag_63\n  swap2\n  swap1\n  tag_26\n  jump\t// in\ntag_63:\n    /* \"minerpunk/ERC20/MinePower.sol\":2891:2903  return a + b */\n  swap1\n  pop\n    /* \"minerpunk/ERC20/MinePower.sol\":2814:2910  function add(uint256 a, uint256 b) internal pure returns (uint256) {... */\n  swap3\n  swap2\n  pop\n  pop\n  jump\t// out\n    /* \"minerpunk/ERC20/MinePower.sol\":3524:3620  function mul(uint256 a, uint256 b) internal pure returns (uint256) {... */\ntag_46:\n    /* \"minerpunk/ERC20/MinePower.sol\":3582:3589  uint256 */\n  0x00\n    /* \"minerpunk/ERC20/MinePower.sol\":3612:3613  b */\n  dup2\n    /* \"minerpunk/ERC20/MinePower.sol\":3608:3609  a */\n  dup4\n    /* \"minerpunk/ERC20/MinePower.sol\":3608:3613  a * b */\n  tag_65\n  swap2\n  swap1\n  tag_15\n  jump\t// in\ntag_65:\n    /* \"minerpunk/ERC20/MinePower.sol\":3601:3613  return a * b */\n  swap1\n  pop\n    /* \"minerpunk/ERC20/MinePower.sol\":3524:3620  function mul(uint256 a, uint256 b) internal pure returns (uint256) {... */\n  swap3\n  swap2\n  pop\n  pop\n  jump\t// out\n    /* \"minerpunk/ERC20/MinePower.sol\":3909:4005  function div(uint256 a, uint256 b) internal pure returns (uint256) {... */\ntag_47:\n    /* \"minerpunk/ERC20/MinePower.sol\":3967:3974  uint256 */\n  0x00\n    /* \"minerpunk/ERC20/MinePower.sol\":3997:3998  b */\n  dup2\n    /* \"minerpunk/ERC20/MinePower.sol\":3993:3994  a */\n  dup4\n    /* \"minerpunk/ERC20/MinePower.sol\":3993:3998  a / b */\n  tag_67\n  swap2\n  swap1\n  tag_68\n  jump\t// in\ntag_67:\n    /* \"minerpunk/ERC20/MinePower.sol\":3986:3998  return a / b */\n  swap1\n  pop\n    /* \"minerpunk/ERC20/MinePower.sol\":3909:4005  function div(uint256 a, uint256 b) internal pure returns (uint256) {... */\n  swap3\n  swap2\n  pop\n  pop\n  jump\t// out\n    /* \"minerpunk/ERC20/MinePower.sol\":16419:16544  function balanceOf(address account) public view virtual override returns (uint256) {... */\ntag_51:\n    /* \"minerpunk/ERC20/MinePower.sol\":16493:16500  uint256 */\n  0x00\n    /* \"minerpunk/ERC20/MinePower.sol\":16519:16528  _balances */\n  dup1\n    /* \"minerpunk/ERC20/MinePower.sol\":16519:16537  _balances[account] */\n  0x00\n    /* \"minerpunk/ERC20/MinePower.sol\":16529:16536  account */\n  dup4\n    /* \"minerpunk/ERC20/MinePower.sol\":16519:16537  _balances[account] */\n  0xffffffffffffffffffffffffffffffffffffffff\n  and\n  0xffffffffffffffffffffffffffffffffffffffff\n  and\n  dup2\n  mstore\n  0x20\n  add\n  swap1\n  dup2\n  mstore\n  0x20\n  add\n  0x00\n  keccak256\n  sload\n    /* \"minerpunk/ERC20/MinePower.sol\":16512:16537  return _balances[account] */\n  swap1\n  pop\n    /* \"minerpunk/ERC20/MinePower.sol\":16419:16544  function balanceOf(address account) public view virtual override returns (uint256) {... */\n  swap2\n  swap1\n  pop\n  jump\t// out\n    /* \"minerpunk/ERC20/MinePower.sol\":14835:15094  function difficult(uint _BlockNumber)public view  returns (uint256){... */\ntag_60:\n    /* \"minerpunk/ERC20/MinePower.sol\":14894:14901  uint256 */\n  0x00\n    /* \"minerpunk/ERC20/MinePower.sol\":14912:14931  uint BlockDifficult */\n  dup1\n    /* \"minerpunk/ERC20/MinePower.sol\":14932:14977  _BlockNumber.mul(1e18).div(_startBlockNumber) */\n  tag_71\n    /* \"minerpunk/ERC20/MinePower.sol\":14959:14976  _startBlockNumber */\n  sload(0x04)\n    /* \"minerpunk/ERC20/MinePower.sol\":14932:14954  _BlockNumber.mul(1e18) */\n  tag_72\n    /* \"minerpunk/ERC20/MinePower.sol\":14949:14953  1e18 */\n  0x0de0b6b3a7640000\n    /* \"minerpunk/ERC20/MinePower.sol\":14932:14944  _BlockNumber */\n  dup7\n    /* \"minerpunk/ERC20/MinePower.sol\":14932:14948  _BlockNumber.mul */\n  or(tag_0_96, shl(0x20, tag_46))\n  swap1\n    /* \"minerpunk/ERC20/MinePower.sol\":14932:14954  _BlockNumber.mul(1e18) */\n  swap2\n  swap1\n  0x20\n  shr\n  jump\t// in\ntag_72:\n    /* \"minerpunk/ERC20/MinePower.sol\":14932:14958  _BlockNumber.mul(1e18).div */\n  or(tag_0_97, shl(0x20, tag_47))\n  swap1\n    /* \"minerpunk/ERC20/MinePower.sol\":14932:14977  _BlockNumber.mul(1e18).div(_startBlockNumber) */\n  swap2\n  swap1\n  0x20\n  shr\n  jump\t// in\ntag_71:\n    /* \"minerpunk/ERC20/MinePower.sol\":14912:14977  uint BlockDifficult=_BlockNumber.mul(1e18).div(_startBlockNumber) */\n  swap1\n  pop\n    /* \"minerpunk/ERC20/MinePower.sol\":15002:15056  BlockDifficult.mul(BlockDifficult).mul(BlockDifficult) */\n  tag_73\n    /* \"minerpunk/ERC20/MinePower.sol\":15041:15055  BlockDifficult */\n  dup2\n    /* \"minerpunk/ERC20/MinePower.sol\":15002:15036  BlockDifficult.mul(BlockDifficult) */\n  tag_74\n    /* \"minerpunk/ERC20/MinePower.sol\":15021:15035  BlockDifficult */\n  dup4\n    /* \"minerpunk/ERC20/MinePower.sol\":15002:15016  BlockDifficult */\n  dup5\n    /* \"minerpunk/ERC20/MinePower.sol\":15002:15020  BlockDifficult.mul */\n  or(tag_0_96, shl(0x20, tag_46))\n  swap1\n    /* \"minerpunk/ERC20/MinePower.sol\":15002:15036  BlockDifficult.mul(BlockDifficult) */\n  swap2\n  swap1\n  0x20\n  shr\n  jump\t// in\ntag_74:\n    /* \"minerpunk/ERC20/MinePower.sol\":15002:15040  BlockDifficult.mul(BlockDifficult).mul */\n  or(tag_0_96, shl(0x20, tag_46))\n  swap1\n    /* \"minerpunk/ERC20/MinePower.sol\":15002:15056  BlockDifficult.mul(BlockDifficult).mul(BlockDifficult) */\n  swap2\n  swap1\n  0x20\n  shr\n  jump\t// in\ntag_73:\n    /* \"minerpunk/ERC20/MinePower.sol\":14987:15056  BlockDifficult=BlockDifficult.mul(BlockDifficult).mul(BlockDifficult) */\n  swap1\n  pop\n    /* \"minerpunk/ERC20/MinePower.sol\":15073:15087  BlockDifficult */\n  dup1\n    /* \"minerpunk/ERC20/MinePower.sol\":15066:15087  return BlockDifficult */\n  swap2\n  pop\n  pop\n    /* \"minerpunk/ERC20/MinePower.sol\":14835:15094  function difficult(uint _BlockNumber)public view  returns (uint256){... */\n  swap2\n  swap1\n  pop\n  jump\t// out\n    /* \"#utility.yul\":7:106   */\ntag_75:\n    /* \"#utility.yul\":59:65   */\n  0x00\n    /* \"#utility.yul\":93:98   */\n  dup2\n    /* \"#utility.yul\":87:99   */\n  mload\n    /* \"#utility.yul\":77:99   */\n  swap1\n  pop\n    /* \"#utility.yul\":7:106   */\n  swap2\n  swap1\n  pop\n  jump\t// out\n    /* \"#utility.yul\":112:292   */\ntag_76:\n    /* \"#utility.yul\":160:237   */\n  0x4e487b7100000000000000000000000000000000000000000000000000000000\n    /* \"#utility.yul\":157:158   */\n  0x00\n    /* \"#utility.yul\":150:238   */\n  mstore\n    /* \"#utility.yul\":257:261   */\n  0x41\n    /* \"#utility.yul\":254:255   */\n  0x04\n    /* \"#utility.yul\":247:262   */\n  mstore\n    /* \"#utility.yul\":281:285   */\n  0x24\n    /* \"#utility.yul\":278:279   */\n  0x00\n    /* \"#utility.yul\":271:286   */\n  revert\n    /* \"#utility.yul\":298:478   */\ntag_77:\n    /* \"#utility.yul\":346:423   */\n  0x4e487b7100000000000000000000000000000000000000000000000000000000\n    /* \"#utility.yul\":343:344   */\n  0x00\n    /* \"#utility.yul\":336:424   */\n  mstore\n    /* \"#utility.yul\":443:447   */\n  0x22\n    /* \"#utility.yul\":440:441   */\n  0x04\n    /* \"#utility.yul\":433:448   */\n  mstore\n    /* \"#utility.yul\":467:471   */\n  0x24\n    /* \"#utility.yul\":464:465   */\n  0x00\n    /* \"#utility.yul\":457:472   */\n  revert\n    /* \"#utility.yul\":484:804   */\ntag_78:\n    /* \"#utility.yul\":528:534   */\n  0x00\n    /* \"#utility.yul\":565:566   */\n  0x02\n    /* \"#utility.yul\":559:563   */\n  dup3\n    /* \"#utility.yul\":555:567   */\n  div\n    /* \"#utility.yul\":545:567   */\n  swap1\n  pop\n    /* \"#utility.yul\":612:613   */\n  0x01\n    /* \"#utility.yul\":606:610   */\n  dup3\n    /* \"#utility.yul\":602:614   */\n  and\n    /* \"#utility.yul\":633:651   */\n  dup1\n    /* \"#utility.yul\":623:704   */\n  tag_110\n  jumpi\n    /* \"#utility.yul\":689:693   */\n  0x7f\n    /* \"#utility.yul\":681:687   */\n  dup3\n    /* \"#utility.yul\":677:694   */\n  and\n    /* \"#utility.yul\":667:694   */\n  swap2\n  pop\n    /* \"#utility.yul\":623:704   */\ntag_110:\n    /* \"#utility.yul\":751:753   */\n  0x20\n    /* \"#utility.yul\":743:749   */\n  dup3\n    /* \"#utility.yul\":740:754   */\n  lt\n    /* \"#utility.yul\":720:738   */\n  dup2\n    /* \"#utility.yul\":717:755   */\n  sub\n    /* \"#utility.yul\":714:798   */\n  tag_111\n  jumpi\n    /* \"#utility.yul\":770:788   */\n  tag_112\n  tag_77\n  jump\t// in\ntag_112:\n    /* \"#utility.yul\":714:798   */\ntag_111:\n    /* \"#utility.yul\":535:804   */\n  pop\n    /* \"#utility.yul\":484:804   */\n  swap2\n  swap1\n  pop\n  jump\t// out\n    /* \"#utility.yul\":810:951   */\ntag_79:\n    /* \"#utility.yul\":859:863   */\n  0x00\n    /* \"#utility.yul\":882:885   */\n  dup2\n    /* \"#utility.yul\":874:885   */\n  swap1\n  pop\n    /* \"#utility.yul\":905:908   */\n  dup2\n    /* \"#utility.yul\":902:903   */\n  0x00\n    /* \"#utility.yul\":895:909   */\n  mstore\n    /* \"#utility.yul\":939:943   */\n  0x20\n    /* \"#utility.yul\":936:937   */\n  0x00\n    /* \"#utility.yul\":926:944   */\n  keccak256\n    /* \"#utility.yul\":918:944   */\n  swap1\n  pop\n    /* \"#utility.yul\":810:951   */\n  swap2\n  swap1\n  pop\n  jump\t// out\n    /* \"#utility.yul\":957:1050   */\ntag_80:\n    /* \"#utility.yul\":994:1000   */\n  0x00\n    /* \"#utility.yul\":1041:1043   */\n  0x20\n    /* \"#utility.yul\":1036:1038   */\n  0x1f\n    /* \"#utility.yul\":1029:1034   */\n  dup4\n    /* \"#utility.yul\":1025:1039   */\n  add\n    /* \"#utility.yul\":1021:1044   */\n  div\n    /* \"#utility.yul\":1011:1044   */\n  swap1\n  pop\n    /* \"#utility.yul\":957:1050   */\n  swap2\n  swap1\n  pop\n  jump\t// out\n    /* \"#utility.yul\":1056:1163   */\ntag_81:\n    /* \"#utility.yul\":1100:1108   */\n  0x00\n    /* \"#utility.yul\":1150:1155   */\n  dup3\n    /* \"#utility.yul\":1144:1148   */\n  dup3\n    /* \"#utility.yul\":1140:1156   */\n  shl\n    /* \"#utility.yul\":1119:1156   */\n  swap1\n  pop\n    /* \"#utility.yul\":1056:1163   */\n  swap3\n  swap2\n  pop\n  pop\n  jump\t// out\n    /* \"#utility.yul\":1169:1562   */\ntag_82:\n    /* \"#utility.yul\":1238:1244   */\n  0x00\n    /* \"#utility.yul\":1288:1289   */\n  0x08\n    /* \"#utility.yul\":1276:1286   */\n  dup4\n    /* \"#utility.yul\":1272:1290   */\n  mul\n    /* \"#utility.yul\":1311:1408   */\n  tag_117\n    /* \"#utility.yul\":1341:1407   */\n  0xffffffffffffffffffffffffffffffffffffffffffffffffffffffffffffffff\n    /* \"#utility.yul\":1330:1339   */\n  dup3\n    /* \"#utility.yul\":1311:1408   */\n  tag_81\n  jump\t// in\ntag_117:\n    /* \"#utility.yul\":1429:1468   */\n  tag_118\n    /* \"#utility.yul\":1459:1467   */\n  dup7\n    /* \"#utility.yul\":1448:1457   */\n  dup4\n    /* \"#utility.yul\":1429:1468   */\n  tag_81\n  jump\t// in\ntag_118:\n    /* \"#utility.yul\":1417:1468   */\n  swap6\n  pop\n    /* \"#utility.yul\":1501:1505   */\n  dup1\n    /* \"#utility.yul\":1497:1506   */\n  not\n    /* \"#utility.yul\":1490:1495   */\n  dup5\n    /* \"#utility.yul\":1486:1507   */\n  and\n    /* \"#utility.yul\":1477:1507   */\n  swap4\n  pop\n    /* \"#utility.yul\":1550:1554   */\n  dup1\n    /* \"#utility.yul\":1540:1548   */\n  dup7\n    /* \"#utility.yul\":1536:1555   */\n  and\n    /* \"#utility.yul\":1529:1534   */\n  dup5\n    /* \"#utility.yul\":1526:1556   */\n  or\n    /* \"#utility.yul\":1516:1556   */\n  swap3\n  pop\n    /* \"#utility.yul\":1245:1562   */\n  pop\n  pop\n    /* \"#utility.yul\":1169:1562   */\n  swap4\n  swap3\n  pop\n  pop\n  pop\n  jump\t// out\n    /* \"#utility.yul\":1568:1645   */\ntag_83:\n    /* \"#utility.yul\":1605:1612   */\n  0x00\n    /* \"#utility.yul\":1634:1639   */\n  dup2\n    /* \"#utility.yul\":1623:1639   */\n  swap1\n  pop\n    /* \"#utility.yul\":1568:1645   */\n  swap2\n  swap1\n  pop\n  jump\t// out\n    /* \"#utility.yul\":1651:1711   */\ntag_84:\n    /* \"#utility.yul\":1679:1682   */\n  0x00\n    /* \"#utility.yul\":1700:1705   */\n  dup2\n    /* \"#utility.yul\":1693:1705   */\n  swap1\n  pop\n    /* \"#utility.yul\":1651:1711   */\n  swap2\n  swap1\n  pop\n  jump\t// out\n    /* \"#utility.yul\":1717:1859   */\ntag_85:\n    /* \"#utility.yul\":1767:1776   */\n  0x00\n    /* \"#utility.yul\":1800:1853   */\n  tag_122\n    /* \"#utility.yul\":1818:1852   */\n  tag_123\n    /* \"#utility.yul\":1827:1851   */\n  tag_124\n    /* \"#utility.yul\":1845:1850   */\n  dup5\n    /* \"#utility.yul\":1827:1851   */\n  tag_83\n  jump\t// in\ntag_124:\n    /* \"#utility.yul\":1818:1852   */\n  tag_84\n  jump\t// in\ntag_123:\n    /* \"#utility.yul\":1800:1853   */\n  tag_83\n  jump\t// in\ntag_122:\n    /* \"#utility.yul\":1787:1853   */\n  swap1\n  pop\n    /* \"#utility.yul\":1717:1859   */\n  swap2\n  swap1\n  pop\n  jump\t// out\n    /* \"#utility.yul\":1865:1940   */\ntag_86:\n    /* \"#utility.yul\":1908:1911   */\n  0x00\n    /* \"#utility.yul\":1929:1934   */\n  dup2\n    /* \"#utility.yul\":1922:1934   */\n  swap1\n  pop\n    /* \"#utility.yul\":1865:1940   */\n  swap2\n  swap1\n  pop\n  jump\t// out\n    /* \"#utility.yul\":1946:2215   */\ntag_87:\n    /* \"#utility.yul\":2056:2095   */\n  tag_127\n    /* \"#utility.yul\":2087:2094   */\n  dup4\n    /* \"#utility.yul\":2056:2095   */\n  tag_85\n  jump\t// in\ntag_127:\n    /* \"#utility.yul\":2117:2208   */\n  tag_128\n    /* \"#utility.yul\":2166:2207   */\n  tag_129\n    /* \"#utility.yul\":2190:2206   */\n  dup3\n    /* \"#utility.yul\":2166:2207   */\n  tag_86\n  jump\t// in\ntag_129:\n    /* \"#utility.yul\":2158:2164   */\n  dup5\n    /* \"#utility.yul\":2151:2155   */\n  dup5\n    /* \"#utility.yul\":2145:2156   */\n  sload\n    /* \"#utility.yul\":2117:2208   */\n  tag_82\n  jump\t// in\ntag_128:\n    /* \"#utility.yul\":2111:2115   */\n  dup3\n    /* \"#utility.yul\":2104:2209   */\n  sstore\n    /* \"#utility.yul\":2022:2215   */\n  pop\n    /* \"#utility.yul\":1946:2215   */\n  pop\n  pop\n  pop\n  jump\t// out\n    /* \"#utility.yul\":2221:2294   */\ntag_88:\n    /* \"#utility.yul\":2266:2269   */\n  0x00\n    /* \"#utility.yul\":2221:2294   */\n  swap1\n  jump\t// out\n    /* \"#utility.yul\":2300:2489   */\ntag_89:\n    /* \"#utility.yul\":2377:2409   */\n  tag_132\n  tag_88\n  jump\t// in\ntag_132:\n    /* \"#utility.yul\":2418:2483   */\n  tag_133\n    /* \"#utility.yul\":2476:2482   */\n  dup2\n    /* \"#utility.yul\":2468:2474   */\n  dup5\n    /* \"#utility.yul\":2462:2466   */\n  dup5\n    /* \"#utility.yul\":2418:2483   */\n  tag_87\n  jump\t// in\ntag_133:\n    /* \"#utility.yul\":2353:2489   */\n  pop\n    /* \"#utility.yul\":2300:2489   */\n  pop\n  pop\n  jump\t// out\n    /* \"#utility.yul\":2495:2681   */\ntag_90:\n    /* \"#utility.yul\":2555:2675   */\ntag_135:\n    /* \"#utility.yul\":2572:2575   */\n  dup2\n    /* \"#utility.yul\":2565:2570   */\n  dup2\n    /* \"#utility.yul\":2562:2576   */\n  lt\n    /* \"#utility.yul\":2555:2675   */\n  iszero\n  tag_137\n  jumpi\n    /* \"#utility.yul\":2626:2665   */\n  tag_138\n    /* \"#utility.yul\":2663:2664   */\n  0x00\n    /* \"#utility.yul\":2656:2661   */\n  dup3\n    /* \"#utility.yul\":2626:2665   */\n  tag_89\n  jump\t// in\ntag_138:\n    /* \"#utility.yul\":2599:2600   */\n  0x01\n    /* \"#utility.yul\":2592:2597   */\n  dup2\n    /* \"#utility.yul\":2588:2601   */\n  add\n    /* \"#utility.yul\":2579:2601   */\n  swap1\n  pop\n    /* \"#utility.yul\":2555:2675   */\n  jump(tag_135)\ntag_137:\n    /* \"#utility.yul\":2495:2681   */\n  pop\n  pop\n  jump\t// out\n    /* \"#utility.yul\":2687:3230   */\ntag_91:\n    /* \"#utility.yul\":2788:2790   */\n  0x1f\n    /* \"#utility.yul\":2783:2786   */\n  dup3\n    /* \"#utility.yul\":2780:2791   */\n  gt\n    /* \"#utility.yul\":2777:3223   */\n  iszero\n  tag_140\n  jumpi\n    /* \"#utility.yul\":2822:2860   */\n  tag_141\n    /* \"#utility.yul\":2854:2859   */\n  dup2\n    /* \"#utility.yul\":2822:2860   */\n  tag_79\n  jump\t// in\ntag_141:\n    /* \"#utility.yul\":2906:2935   */\n  tag_142\n    /* \"#utility.yul\":2924:2934   */\n  dup5\n    /* \"#utility.yul\":2906:2935   */\n  tag_80\n  jump\t// in\ntag_142:\n    /* \"#utility.yul\":2896:2904   */\n  dup2\n    /* \"#utility.yul\":2892:2936   */\n  add\n    /* \"#utility.yul\":3089:3091   */\n  0x20\n    /* \"#utility.yul\":3077:3087   */\n  dup6\n    /* \"#utility.yul\":3074:3092   */\n  lt\n    /* \"#utility.yul\":3071:3120   */\n  iszero\n  tag_143\n  jumpi\n    /* \"#utility.yul\":3110:3118   */\n  dup2\n    /* \"#utility.yul\":3095:3118   */\n  swap1\n  pop\n    /* \"#utility.yul\":3071:3120   */\ntag_143:\n    /* \"#utility.yul\":3133:3213   */\n  tag_144\n    /* \"#utility.yul\":3189:3211   */\n  tag_145\n    /* \"#utility.yul\":3207:3210   */\n  dup6\n    /* \"#utility.yul\":3189:3211   */\n  tag_80\n  jump\t// in\ntag_145:\n    /* \"#utility.yul\":3179:3187   */\n  dup4\n    /* \"#utility.yul\":3175:3212   */\n  add\n    /* \"#utility.yul\":3162:3173   */\n  dup3\n    /* \"#utility.yul\":3133:3213   */\n  tag_90\n  jump\t// in\ntag_144:\n    /* \"#utility.yul\":2792:3223   */\n  pop\n  pop\n    /* \"#utility.yul\":2777:3223   */\ntag_140:\n    /* \"#utility.yul\":2687:3230   */\n  pop\n  pop\n  pop\n  jump\t// out\n    /* \"#utility.yul\":3236:3353   */\ntag_92:\n    /* \"#utility.yul\":3290:3298   */\n  0x00\n    /* \"#utility.yul\":3340:3345   */\n  dup3\n    /* \"#utility.yul\":3334:3338   */\n  dup3\n    /* \"#utility.yul\":3330:3346   */\n  shr\n    /* \"#utility.yul\":3309:3346   */\n  swap1\n  pop\n    /* \"#utility.yul\":3236:3353   */\n  swap3\n  swap2\n  pop\n  pop\n  jump\t// out\n    /* \"#utility.yul\":3359:3528   */\ntag_93:\n    /* \"#utility.yul\":3403:3409   */\n  0x00\n    /* \"#utility.yul\":3436:3487   */\n  tag_148\n    /* \"#utility.yul\":3484:3485   */\n  0x00\n    /* \"#utility.yul\":3480:3486   */\n  not\n    /* \"#utility.yul\":3472:3477   */\n  dup5\n    /* \"#utility.yul\":3469:3470   */\n  0x08\n    /* \"#utility.yul\":3465:3478   */\n  mul\n    /* \"#utility.yul\":3436:3487   */\n  tag_92\n  jump\t// in\ntag_148:\n    /* \"#utility.yul\":3432:3488   */\n  not\n    /* \"#utility.yul\":3517:3521   */\n  dup1\n    /* \"#utility.yul\":3511:3515   */\n  dup4\n    /* \"#utility.yul\":3507:3522   */\n  and\n    /* \"#utility.yul\":3497:3522   */\n  swap2\n  pop\n    /* \"#utility.yul\":3410:3528   */\n  pop\n    /* \"#utility.yul\":3359:3528   */\n  swap3\n  swap2\n  pop\n  pop\n  jump\t// out\n    /* \"#utility.yul\":3533:3828   */\ntag_94:\n    /* \"#utility.yul\":3609:3613   */\n  0x00\n    /* \"#utility.yul\":3755:3784   */\n  tag_150\n    /* \"#utility.yul\":3780:3783   */\n  dup4\n    /* \"#utility.yul\":3774:3778   */\n  dup4\n    /* \"#utility.yul\":3755:3784   */\n  tag_93\n  jump\t// in\ntag_150:\n    /* \"#utility.yul\":3747:3784   */\n  swap2\n  pop\n    /* \"#utility.yul\":3817:3820   */\n  dup3\n    /* \"#utility.yul\":3814:3815   */\n  0x02\n    /* \"#utility.yul\":3810:3821   */\n  mul\n    /* \"#utility.yul\":3804:3808   */\n  dup3\n    /* \"#utility.yul\":3801:3822   */\n  or\n    /* \"#utility.yul\":3793:3822   */\n  swap1\n  pop\n    /* \"#utility.yul\":3533:3828   */\n  swap3\n  swap2\n  pop\n  pop\n  jump\t// out\n    /* \"#utility.yul\":3833:5228   */\ntag_6:\n    /* \"#utility.yul\":3950:3987   */\n  tag_152\n    /* \"#utility.yul\":3983:3986   */\n  dup3\n    /* \"#utility.yul\":3950:3987   */\n  tag_75\n  jump\t// in\ntag_152:\n    /* \"#utility.yul\":4052:4070   */\n  0xffffffffffffffff\n    /* \"#utility.yul\":4044:4050   */\n  dup2\n    /* \"#utility.yul\":4041:4071   */\n  gt\n    /* \"#utility.yul\":4038:4094   */\n  iszero\n  tag_153\n  jumpi\n    /* \"#utility.yul\":4074:4092   */\n  tag_154\n  tag_76\n  jump\t// in\ntag_154:\n    /* \"#utility.yul\":4038:4094   */\ntag_153:\n    /* \"#utility.yul\":4118:4156   */\n  tag_155\n    /* \"#utility.yul\":4150:4154   */\n  dup3\n    /* \"#utility.yul\":4144:4155   */\n  sload\n    /* \"#utility.yul\":4118:4156   */\n  tag_78\n  jump\t// in\ntag_155:\n    /* \"#utility.yul\":4203:4270   */\n  tag_156\n    /* \"#utility.yul\":4263:4269   */\n  dup3\n    /* \"#utility.yul\":4255:4261   */\n  dup3\n    /* \"#utility.yul\":4249:4253   */\n  dup6\n    /* \"#utility.yul\":4203:4270   */\n  tag_91\n  jump\t// in\ntag_156:\n    /* \"#utility.yul\":4297:4298   */\n  0x00\n    /* \"#utility.yul\":4321:4325   */\n  0x20\n    /* \"#utility.yul\":4308:4325   */\n  swap1\n  pop\n    /* \"#utility.yul\":4353:4355   */\n  0x1f\n    /* \"#utility.yul\":4345:4351   */\n  dup4\n    /* \"#utility.yul\":4342:4356   */\n  gt\n    /* \"#utility.yul\":4370:4371   */\n  0x01\n    /* \"#utility.yul\":4365:4983   */\n  dup2\n  eq\n  tag_158\n  jumpi\n    /* \"#utility.yul\":5027:5028   */\n  0x00\n    /* \"#utility.yul\":5044:5050   */\n  dup5\n    /* \"#utility.yul\":5041:5118   */\n  iszero\n  tag_159\n  jumpi\n    /* \"#utility.yul\":5093:5102   */\n  dup3\n    /* \"#utility.yul\":5088:5091   */\n  dup8\n    /* \"#utility.yul\":5084:5103   */\n  add\n    /* \"#utility.yul\":5078:5104   */\n  mload\n    /* \"#utility.yul\":5069:5104   */\n  swap1\n  pop\n    /* \"#utility.yul\":5041:5118   */\ntag_159:\n    /* \"#utility.yul\":5144:5211   */\n  tag_160\n    /* \"#utility.yul\":5204:5210   */\n  dup6\n    /* \"#utility.yul\":5197:5202   */\n  dup3\n    /* \"#utility.yul\":5144:5211   */\n  tag_94\n  jump\t// in\ntag_160:\n    /* \"#utility.yul\":5138:5142   */\n  dup7\n    /* \"#utility.yul\":5131:5212   */\n  sstore\n    /* \"#utility.yul\":5000:5222   */\n  pop\n    /* \"#utility.yul\":4335:5222   */\n  jump(tag_157)\n    /* \"#utility.yul\":4365:4983   */\ntag_158:\n    /* \"#utility.yul\":4417:4421   */\n  0x1f\n    /* \"#utility.yul\":4413:4422   */\n  not\n    /* \"#utility.yul\":4405:4411   */\n  dup5\n    /* \"#utility.yul\":4401:4423   */\n  and\n    /* \"#utility.yul\":4451:4488   */\n  tag_161\n    /* \"#utility.yul\":4483:4487   */\n  dup7\n    /* \"#utility.yul\":4451:4488   */\n  tag_79\n  jump\t// in\ntag_161:\n    /* \"#utility.yul\":4510:4511   */\n  0x00\n    /* \"#utility.yul\":4524:4732   */\ntag_162:\n    /* \"#utility.yul\":4538:4545   */\n  dup3\n    /* \"#utility.yul\":4535:4536   */\n  dup2\n    /* \"#utility.yul\":4532:4546   */\n  lt\n    /* \"#utility.yul\":4524:4732   */\n  iszero\n  tag_164\n  jumpi\n    /* \"#utility.yul\":4617:4626   */\n  dup5\n    /* \"#utility.yul\":4612:4615   */\n  dup10\n    /* \"#utility.yul\":4608:4627   */\n  add\n    /* \"#utility.yul\":4602:4628   */\n  mload\n    /* \"#utility.yul\":4594:4600   */\n  dup3\n    /* \"#utility.yul\":4587:4629   */\n  sstore\n    /* \"#utility.yul\":4668:4669   */\n  0x01\n    /* \"#utility.yul\":4660:4666   */\n  dup3\n    /* \"#utility.yul\":4656:4670   */\n  add\n    /* \"#utility.yul\":4646:4670   */\n  swap2\n  pop\n    /* \"#utility.yul\":4715:4717   */\n  0x20\n    /* \"#utility.yul\":4704:4713   */\n  dup6\n    /* \"#utility.yul\":4700:4718   */\n  add\n    /* \"#utility.yul\":4687:4718   */\n  swap5\n  pop\n    /* \"#utility.yul\":4561:4565   */\n  0x20\n    /* \"#utility.yul\":4558:4559   */\n  dup2\n    /* \"#utility.yul\":4554:4566   */\n  add\n    /* \"#utility.yul\":4549:4566   */\n  swap1\n  pop\n    /* \"#utility.yul\":4524:4732   */\n  jump(tag_162)\ntag_164:\n    /* \"#utility.yul\":4760:4766   */\n  dup7\n    /* \"#utility.yul\":4751:4758   */\n  dup4\n    /* \"#utility.yul\":4748:4767   */\n  lt\n    /* \"#utility.yul\":4745:4924   */\n  iszero\n  tag_165\n  jumpi\n    /* \"#utility.yul\":4818:4827   */\n  dup5\n    /* \"#utility.yul\":4813:4816   */\n  dup10\n    /* \"#utility.yul\":4809:4828   */\n  add\n    /* \"#utility.yul\":4803:4829   */\n  mload\n    /* \"#utility.yul\":4861:4909   */\n  tag_166\n    /* \"#utility.yul\":4903:4907   */\n  0x1f\n    /* \"#utility.yul\":4895:4901   */\n  dup10\n    /* \"#utility.yul\":4891:4908   */\n  and\n    /* \"#utility.yul\":4880:4889   */\n  dup3\n    /* \"#utility.yul\":4861:4909   */\n  tag_93\n  jump\t// in\ntag_166:\n    /* \"#utility.yul\":4853:4859   */\n  dup4\n    /* \"#utility.yul\":4846:4910   */\n  sstore\n    /* \"#utility.yul\":4768:4924   */\n  pop\n    /* \"#utility.yul\":4745:4924   */\ntag_165:\n    /* \"#utility.yul\":4970:4971   */\n  0x01\n    /* \"#utility.yul\":4966:4967   */\n  0x02\n    /* \"#utility.yul\":4958:4964   */\n  dup9\n    /* \"#utility.yul\":4954:4968   */\n  mul\n    /* \"#utility.yul\":4950:4972   */\n  add\n    /* \"#utility.yul\":4944:4948   */\n  dup9\n    /* \"#utility.yul\":4937:4973   */\n  sstore\n    /* \"#utility.yul\":4372:4983   */\n  pop\n  pop\n  pop\n    /* \"#utility.yul\":4335:5222   */\ntag_157:\n  pop\n    /* \"#utility.yul\":3925:5228   */\n  pop\n  pop\n  pop\n    /* \"#utility.yul\":3833:5228   */\n  pop\n  pop\n  jump\t// out\n    /* \"#utility.yul\":5234:5414   */\ntag_95:\n    /* \"#utility.yul\":5282:5359   */\n  0x4e487b7100000000000000000000000000000000000000000000000000000000\n    /* \"#utility.yul\":5279:5280   */\n  0x00\n    /* \"#utility.yul\":5272:5360   */\n  mstore\n    /* \"#utility.yul\":5379:5383   */\n  0x11\n    /* \"#utility.yul\":5376:5377   */\n  0x04\n    /* \"#utility.yul\":5369:5384   */\n  mstore\n    /* \"#utility.yul\":5403:5407   */\n  0x24\n    /* \"#utility.yul\":5400:5401   */\n  0x00\n    /* \"#utility.yul\":5393:5408   */\n  revert\n    /* \"#utility.yul\":5420:5522   */\ntag_96:\n    /* \"#utility.yul\":5462:5470   */\n  0x00\n    /* \"#utility.yul\":5509:5514   */\n  dup2\n    /* \"#utility.yul\":5506:5507   */\n  0x01\n    /* \"#utility.yul\":5502:5515   */\n  shr\n    /* \"#utility.yul\":5481:5515   */\n  swap1\n  pop\n    /* \"#utility.yul\":5420:5522   */\n  swap2\n  swap1\n  pop\n  jump\t// out\n    /* \"#utility.yul\":5528:6376   */\ntag_97:\n    /* \"#utility.yul\":5589:5594   */\n  0x00\n    /* \"#utility.yul\":5596:5600   */\n  dup1\n    /* \"#utility.yul\":5620:5626   */\n  dup3\n    /* \"#utility.yul\":5611:5626   */\n  swap2\n  pop\n    /* \"#utility.yul\":5644:5649   */\n  dup4\n    /* \"#utility.yul\":5635:5649   */\n  swap1\n  pop\n    /* \"#utility.yul\":5658:6370   */\ntag_170:\n    /* \"#utility.yul\":5679:5680   */\n  0x01\n    /* \"#utility.yul\":5669:5677   */\n  dup6\n    /* \"#utility.yul\":5666:5681   */\n  gt\n    /* \"#utility.yul\":5658:6370   */\n  iszero\n  tag_172\n  jumpi\n    /* \"#utility.yul\":5774:5778   */\n  dup1\n    /* \"#utility.yul\":5769:5772   */\n  dup7\n    /* \"#utility.yul\":5765:5779   */\n  div\n    /* \"#utility.yul\":5759:5763   */\n  dup2\n    /* \"#utility.yul\":5756:5780   */\n  gt\n    /* \"#utility.yul\":5753:5803   */\n  iszero\n  tag_173\n  jumpi\n    /* \"#utility.yul\":5783:5801   */\n  tag_174\n  tag_95\n  jump\t// in\ntag_174:\n    /* \"#utility.yul\":5753:5803   */\ntag_173:\n    /* \"#utility.yul\":5833:5834   */\n  0x01\n    /* \"#utility.yul\":5823:5831   */\n  dup6\n    /* \"#utility.yul\":5819:5835   */\n  and\n    /* \"#utility.yul\":5816:6267   */\n  iszero\n  tag_175\n  jumpi\n    /* \"#utility.yul\":6248:6252   */\n  dup1\n    /* \"#utility.yul\":6241:6246   */\n  dup3\n    /* \"#utility.yul\":6237:6253   */\n  mul\n    /* \"#utility.yul\":6228:6253   */\n  swap2\n  pop\n    /* \"#utility.yul\":5816:6267   */\ntag_175:\n    /* \"#utility.yul\":6298:6302   */\n  dup1\n    /* \"#utility.yul\":6292:6296   */\n  dup2\n    /* \"#utility.yul\":6288:6303   */\n  mul\n    /* \"#utility.yul\":6280:6303   */\n  swap1\n  pop\n    /* \"#utility.yul\":6328:6360   */\n  tag_176\n    /* \"#utility.yul\":6351:6359   */\n  dup6\n    /* \"#utility.yul\":6328:6360   */\n  tag_96\n  jump\t// in\ntag_176:\n    /* \"#utility.yul\":6316:6360   */\n  swap5\n  pop\n    /* \"#utility.yul\":5658:6370   */\n  jump(tag_170)\ntag_172:\n    /* \"#utility.yul\":5528:6376   */\n  swap5\n  pop\n  swap5\n  swap3\n  pop\n  pop\n  pop\n  jump\t// out\n    /* \"#utility.yul\":6382:7455   */\ntag_98:\n    /* \"#utility.yul\":6436:6441   */\n  0x00\n    /* \"#utility.yul\":6627:6635   */\n  dup3\n    /* \"#utility.yul\":6617:6657   */\n  tag_178\n  jumpi\n    /* \"#utility.yul\":6648:6649   */\n  0x01\n    /* \"#utility.yul\":6639:6649   */\n  swap1\n  pop\n    /* \"#utility.yul\":6650:6655   */\n  jump(tag_177)\n    /* \"#utility.yul\":6617:6657   */\ntag_178:\n    /* \"#utility.yul\":6676:6680   */\n  dup2\n    /* \"#utility.yul\":6666:6702   */\n  tag_179\n  jumpi\n    /* \"#utility.yul\":6693:6694   */\n  0x00\n    /* \"#utility.yul\":6684:6694   */\n  swap1\n  pop\n    /* \"#utility.yul\":6695:6700   */\n  jump(tag_177)\n    /* \"#utility.yul\":6666:6702   */\ntag_179:\n    /* \"#utility.yul\":6762:6766   */\n  dup2\n    /* \"#utility.yul\":6810:6811   */\n  0x01\n    /* \"#utility.yul\":6805:6832   */\n  dup2\n  eq\n  tag_181\n  jumpi\n    /* \"#utility.yul\":6846:6847   */\n  0x02\n    /* \"#utility.yul\":6841:7032   */\n  dup2\n  eq\n  tag_182\n  jumpi\n    /* \"#utility.yul\":6755:7032   */\n  jump(tag_180)\n    /* \"#utility.yul\":6805:6832   */\ntag_181:\n    /* \"#utility.yul\":6823:6824   */\n  0x01\n    /* \"#utility.yul\":6814:6824   */\n  swap2\n  pop\n    /* \"#utility.yul\":6825:6830   */\n  pop\n  jump(tag_177)\n    /* \"#utility.yul\":6841:7032   */\ntag_182:\n    /* \"#utility.yul\":6886:6889   */\n  0xff\n    /* \"#utility.yul\":6876:6884   */\n  dup5\n    /* \"#utility.yul\":6873:6890   */\n  gt\n    /* \"#utility.yul\":6870:6913   */\n  iszero\n  tag_183\n  jumpi\n    /* \"#utility.yul\":6893:6911   */\n  tag_184\n  tag_95\n  jump\t// in\ntag_184:\n    /* \"#utility.yul\":6870:6913   */\ntag_183:\n    /* \"#utility.yul\":6942:6950   */\n  dup4\n    /* \"#utility.yul\":6939:6940   */\n  0x02\n    /* \"#utility.yul\":6935:6951   */\n  exp\n    /* \"#utility.yul\":6926:6951   */\n  swap2\n  pop\n    /* \"#utility.yul\":6977:6980   */\n  dup5\n    /* \"#utility.yul\":6970:6975   */\n  dup3\n    /* \"#utility.yul\":6967:6981   */\n  gt\n    /* \"#utility.yul\":6964:7004   */\n  iszero\n  tag_185\n  jumpi\n    /* \"#utility.yul\":6984:7002   */\n  tag_186\n  tag_95\n  jump\t// in\ntag_186:\n    /* \"#utility.yul\":6964:7004   */\ntag_185:\n    /* \"#utility.yul\":7017:7022   */\n  pop\n  jump(tag_177)\n    /* \"#utility.yul\":6755:7032   */\ntag_180:\n  pop\n    /* \"#utility.yul\":7141:7143   */\n  0x20\n    /* \"#utility.yul\":7131:7139   */\n  dup4\n    /* \"#utility.yul\":7128:7144   */\n  lt\n    /* \"#utility.yul\":7122:7125   */\n  0x0133\n    /* \"#utility.yul\":7116:7120   */\n  dup4\n    /* \"#utility.yul\":7113:7126   */\n  lt\n    /* \"#utility.yul\":7109:7145   */\n  and\n    /* \"#utility.yul\":7091:7093   */\n  0x4e\n    /* \"#utility.yul\":7081:7089   */\n  dup5\n    /* \"#utility.yul\":7078:7094   */\n  lt\n    /* \"#utility.yul\":7073:7075   */\n  0x0b\n    /* \"#utility.yul\":7067:7071   */\n  dup5\n    /* \"#utility.yul\":7064:7076   */\n  lt\n    /* \"#utility.yul\":7060:7095   */\n  and\n    /* \"#utility.yul\":7044:7155   */\n  or\n    /* \"#utility.yul\":7041:7287   */\n  iszero\n  tag_187\n  jumpi\n    /* \"#utility.yul\":7197:7205   */\n  dup3\n    /* \"#utility.yul\":7191:7195   */\n  dup3\n    /* \"#utility.yul\":7187:7206   */\n  exp\n    /* \"#utility.yul\":7178:7206   */\n  swap1\n  pop\n    /* \"#utility.yul\":7232:7235   */\n  dup4\n    /* \"#utility.yul\":7225:7230   */\n  dup2\n    /* \"#utility.yul\":7222:7236   */\n  gt\n    /* \"#utility.yul\":7219:7259   */\n  iszero\n  tag_188\n  jumpi\n    /* \"#utility.yul\":7239:7257   */\n  tag_189\n  tag_95\n  jump\t// in\ntag_189:\n    /* \"#utility.yul\":7219:7259   */\ntag_188:\n    /* \"#utility.yul\":7272:7277   */\n  jump(tag_177)\n    /* \"#utility.yul\":7041:7287   */\ntag_187:\n    /* \"#utility.yul\":7312:7354   */\n  tag_190\n    /* \"#utility.yul\":7350:7353   */\n  dup5\n    /* \"#utility.yul\":7340:7348   */\n  dup5\n    /* \"#utility.yul\":7334:7338   */\n  dup5\n    /* \"#utility.yul\":7331:7332   */\n  0x01\n    /* \"#utility.yul\":7312:7354   */\n  tag_97\n  jump\t// in\ntag_190:\n    /* \"#utility.yul\":7297:7354   */\n  swap3\n  pop\n  swap1\n  pop\n    /* \"#utility.yul\":7386:7390   */\n  dup2\n    /* \"#utility.yul\":7381:7384   */\n  dup5\n    /* \"#utility.yul\":7377:7391   */\n  div\n    /* \"#utility.yul\":7370:7375   */\n  dup2\n    /* \"#utility.yul\":7367:7392   */\n  gt\n    /* \"#utility.yul\":7364:7415   */\n  iszero\n  tag_191\n  jumpi\n    /* \"#utility.yul\":7395:7413   */\n  tag_192\n  tag_95\n  jump\t// in\ntag_192:\n    /* \"#utility.yul\":7364:7415   */\ntag_191:\n    /* \"#utility.yul\":7444:7448   */\n  dup2\n    /* \"#utility.yul\":7437:7442   */\n  dup2\n    /* \"#utility.yul\":7433:7449   */\n  mul\n    /* \"#utility.yul\":7424:7449   */\n  swap1\n  pop\n    /* \"#utility.yul\":6382:7455   */\ntag_177:\n  swap4\n  swap3\n  pop\n  pop\n  pop\n  jump\t// out\n    /* \"#utility.yul\":7461:7547   */\ntag_99:\n    /* \"#utility.yul\":7496:7503   */\n  0x00\n    /* \"#utility.yul\":7536:7540   */\n  0xff\n    /* \"#utility.yul\":7529:7534   */\n  dup3\n    /* \"#utility.yul\":7525:7541   */\n  and\n    /* \"#utility.yul\":7514:7541   */\n  swap1\n  pop\n    /* \"#utility.yul\":7461:7547   */\n  swap2\n  swap1\n  pop\n  jump\t// out\n    /* \"#utility.yul\":7553:7834   */\ntag_13:\n    /* \"#utility.yul\":7611:7616   */\n  0x00\n    /* \"#utility.yul\":7635:7658   */\n  tag_195\n    /* \"#utility.yul\":7653:7657   */\n  dup3\n    /* \"#utility.yul\":7635:7658   */\n  tag_83\n  jump\t// in\ntag_195:\n    /* \"#utility.yul\":7627:7658   */\n  swap2\n  pop\n    /* \"#utility.yul\":7679:7704   */\n  tag_196\n    /* \"#utility.yul\":7695:7703   */\n  dup4\n    /* \"#utility.yul\":7679:7704   */\n  tag_99\n  jump\t// in\ntag_196:\n    /* \"#utility.yul\":7667:7704   */\n  swap3\n  pop\n    /* \"#utility.yul\":7723:7827   */\n  tag_197\n    /* \"#utility.yul\":7760:7826   */\n  0xffffffffffffffffffffffffffffffffffffffffffffffffffffffffffffffff\n    /* \"#utility.yul\":7750:7758   */\n  dup5\n    /* \"#utility.yul\":7744:7748   */\n  dup5\n    /* \"#utility.yul\":7723:7827   */\n  tag_98\n  jump\t// in\ntag_197:\n    /* \"#utility.yul\":7714:7827   */\n  swap1\n  pop\n    /* \"#utility.yul\":7553:7834   */\n  swap3\n  swap2\n  pop\n  pop\n  jump\t// out\n    /* \"#utility.yul\":7840:8250   */\ntag_15:\n    /* \"#utility.yul\":7880:7887   */\n  0x00\n    /* \"#utility.yul\":7903:7923   */\n  tag_199\n    /* \"#utility.yul\":7921:7922   */\n  dup3\n    /* \"#utility.yul\":7903:7923   */\n  tag_83\n  jump\t// in\ntag_199:\n    /* \"#utility.yul\":7898:7923   */\n  swap2\n  pop\n    /* \"#utility.yul\":7937:7957   */\n  tag_200\n    /* \"#utility.yul\":7955:7956   */\n  dup4\n    /* \"#utility.yul\":7937:7957   */\n  tag_83\n  jump\t// in\ntag_200:\n    /* \"#utility.yul\":7932:7957   */\n  swap3\n  pop\n    /* \"#utility.yul\":7992:7993   */\n  dup3\n    /* \"#utility.yul\":7989:7990   */\n  dup3\n    /* \"#utility.yul\":7985:7994   */\n  mul\n    /* \"#utility.yul\":8014:8044   */\n  tag_201\n    /* \"#utility.yul\":8032:8043   */\n  dup2\n    /* \"#utility.yul\":8014:8044   */\n  tag_83\n  jump\t// in\ntag_201:\n    /* \"#utility.yul\":8003:8044   */\n  swap2\n  pop\n    /* \"#utility.yul\":8193:8194   */\n  dup3\n    /* \"#utility.yul\":8184:8191   */\n  dup3\n    /* \"#utility.yul\":8180:8195   */\n  div\n    /* \"#utility.yul\":8177:8178   */\n  dup5\n    /* \"#utility.yul\":8174:8196   */\n  eq\n    /* \"#utility.yul\":8154:8155   */\n  dup4\n    /* \"#utility.yul\":8147:8156   */\n  iszero\n    /* \"#utility.yul\":8127:8210   */\n  or\n    /* \"#utility.yul\":8104:8243   */\n  tag_202\n  jumpi\n    /* \"#utility.yul\":8223:8241   */\n  tag_203\n  tag_95\n  jump\t// in\ntag_203:\n    /* \"#utility.yul\":8104:8243   */\ntag_202:\n    /* \"#utility.yul\":7888:8250   */\n  pop\n    /* \"#utility.yul\":7840:8250   */\n  swap3\n  swap2\n  pop\n  pop\n  jump\t// out\n    /* \"#utility.yul\":8256:8425   */\ntag_100:\n    /* \"#utility.yul\":8340:8351   */\n  0x00\n    /* \"#utility.yul\":8374:8380   */\n  dup3\n    /* \"#utility.yul\":8369:8372   */\n  dup3\n    /* \"#utility.yul\":8362:8381   */\n  mstore\n    /* \"#utility.yul\":8414:8418   */\n  0x20\n    /* \"#utility.yul\":8409:8412   */\n  dup3\n    /* \"#utility.yul\":8405:8419   */\n  add\n    /* \"#utility.yul\":8390:8419   */\n  swap1\n  pop\n    /* \"#utility.yul\":8256:8425   */\n  swap3\n  swap2\n  pop\n  pop\n  jump\t// out\n    /* \"#utility.yul\":8431:8612   */\ntag_101:\n    /* \"#utility.yul\":8571:8604   */\n  0x45524332303a206d696e7420746f20746865207a65726f206164647265737300\n    /* \"#utility.yul\":8567:8568   */\n  0x00\n    /* \"#utility.yul\":8559:8565   */\n  dup3\n    /* \"#utility.yul\":8555:8569   */\n  add\n    /* \"#utility.yul\":8548:8605   */\n  mstore\n    /* \"#utility.yul\":8431:8612   */\n  pop\n  jump\t// out\n    /* \"#utility.yul\":8618:8984   */\ntag_102:\n    /* \"#utility.yul\":8760:8763   */\n  0x00\n    /* \"#utility.yul\":8781:8848   */\n  tag_207\n    /* \"#utility.yul\":8845:8847   */\n  0x1f\n    /* \"#utility.yul\":8840:8843   */\n  dup4\n    /* \"#utility.yul\":8781:8848   */\n  tag_100\n  jump\t// in\ntag_207:\n    /* \"#utility.yul\":8774:8848   */\n  swap2\n  pop\n    /* \"#utility.yul\":8857:8950   */\n  tag_208\n    /* \"#utility.yul\":8946:8949   */\n  dup3\n    /* \"#utility.yul\":8857:8950   */\n  tag_101\n  jump\t// in\ntag_208:\n    /* \"#utility.yul\":8975:8977   */\n  0x20\n    /* \"#utility.yul\":8970:8973   */\n  dup3\n    /* \"#utility.yul\":8966:8978   */\n  add\n    /* \"#utility.yul\":8959:8978   */\n  swap1\n  pop\n    /* \"#utility.yul\":8618:8984   */\n  swap2\n  swap1\n  pop\n  jump\t// out\n    /* \"#utility.yul\":8990:9409   */\ntag_22:\n    /* \"#utility.yul\":9156:9160   */\n  0x00\n    /* \"#utility.yul\":9194:9196   */\n  0x20\n    /* \"#utility.yul\":9183:9192   */\n  dup3\n    /* \"#utility.yul\":9179:9197   */\n  add\n    /* \"#utility.yul\":9171:9197   */\n  swap1\n  pop\n    /* \"#utility.yul\":9243:9252   */\n  dup2\n    /* \"#utility.yul\":9237:9241   */\n  dup2\n    /* \"#utility.yul\":9233:9253   */\n  sub\n    /* \"#utility.yul\":9229:9230   */\n  0x00\n    /* \"#utility.yul\":9218:9227   */\n  dup4\n    /* \"#utility.yul\":9214:9231   */\n  add\n    /* \"#utility.yul\":9207:9254   */\n  mstore\n    /* \"#utility.yul\":9271:9402   */\n  tag_210\n    /* \"#utility.yul\":9397:9401   */\n  dup2\n    /* \"#utility.yul\":9271:9402   */\n  tag_102\n  jump\t// in\ntag_210:\n    /* \"#utility.yul\":9263:9402   */\n  swap1\n  pop\n    /* \"#utility.yul\":8990:9409   */\n  swap2\n  swap1\n  pop\n  jump\t// out\n    /* \"#utility.yul\":9415:9606   */\ntag_26:\n    /* \"#utility.yul\":9455:9458   */\n  0x00\n    /* \"#utility.yul\":9474:9494   */\n  tag_212\n    /* \"#utility.yul\":9492:9493   */\n  dup3\n    /* \"#utility.yul\":9474:9494   */\n  tag_83\n  jump\t// in\ntag_212:\n    /* \"#utility.yul\":9469:9494   */\n  swap2\n  pop\n    /* \"#utility.yul\":9508:9528   */\n  tag_213\n    /* \"#utility.yul\":9526:9527   */\n  dup4\n    /* \"#utility.yul\":9508:9528   */\n  tag_83\n  jump\t// in\ntag_213:\n    /* \"#utility.yul\":9503:9528   */\n  swap3\n  pop\n    /* \"#utility.yul\":9551:9552   */\n  dup3\n    /* \"#utility.yul\":9548:9549   */\n  dup3\n    /* \"#utility.yul\":9544:9553   */\n  add\n    /* \"#utility.yul\":9537:9553   */\n  swap1\n  pop\n    /* \"#utility.yul\":9572:9575   */\n  dup1\n    /* \"#utility.yul\":9569:9570   */\n  dup3\n    /* \"#utility.yul\":9566:9576   */\n  gt\n    /* \"#utility.yul\":9563:9599   */\n  iszero\n  tag_214\n  jumpi\n    /* \"#utility.yul\":9579:9597   */\n  tag_215\n  tag_95\n  jump\t// in\ntag_215:\n    /* \"#utility.yul\":9563:9599   */\ntag_214:\n    /* \"#utility.yul\":9415:9606   */\n  swap3\n  swap2\n  pop\n  pop\n  jump\t// out\n    /* \"#utility.yul\":9612:9730   */\ntag_103:\n    /* \"#utility.yul\":9699:9723   */\n  tag_217\n    /* \"#utility.yul\":9717:9722   */\n  dup2\n    /* \"#utility.yul\":9699:9723   */\n  tag_83\n  jump\t// in\ntag_217:\n    /* \"#utility.yul\":9694:9697   */\n  dup3\n    /* \"#utility.yul\":9687:9724   */\n  mstore\n    /* \"#utility.yul\":9612:9730   */\n  pop\n  pop\n  jump\t// out\n    /* \"#utility.yul\":9736:9958   */\ntag_29:\n    /* \"#utility.yul\":9829:9833   */\n  0x00\n    /* \"#utility.yul\":9867:9869   */\n  0x20\n    /* \"#utility.yul\":9856:9865   */\n  dup3\n    /* \"#utility.yul\":9852:9870   */\n  add\n    /* \"#utility.yul\":9844:9870   */\n  swap1\n  pop\n    /* \"#utility.yul\":9880:9951   */\n  tag_219\n    /* \"#utility.yul\":9948:9949   */\n  0x00\n    /* \"#utility.yul\":9937:9946   */\n  dup4\n    /* \"#utility.yul\":9933:9950   */\n  add\n    /* \"#utility.yul\":9924:9930   */\n  dup5\n    /* \"#utility.yul\":9880:9951   */\n  tag_103\n  jump\t// in\ntag_219:\n    /* \"#utility.yul\":9736:9958   */\n  swap3\n  swap2\n  pop\n  pop\n  jump\t// out\n    /* \"#utility.yul\":9964:10158   */\ntag_55:\n    /* \"#utility.yul\":10004:10008   */\n  0x00\n    /* \"#utility.yul\":10024:10044   */\n  tag_221\n    /* \"#utility.yul\":10042:10043   */\n  dup3\n    /* \"#utility.yul\":10024:10044   */\n  tag_83\n  jump\t// in\ntag_221:\n    /* \"#utility.yul\":10019:10044   */\n  swap2\n  pop\n    /* \"#utility.yul\":10058:10078   */\n  tag_222\n    /* \"#utility.yul\":10076:10077   */\n  dup4\n    /* \"#utility.yul\":10058:10078   */\n  tag_83\n  jump\t// in\ntag_222:\n    /* \"#utility.yul\":10053:10078   */\n  swap3\n  pop\n    /* \"#utility.yul\":10102:10103   */\n  dup3\n    /* \"#utility.yul\":10099:10100   */\n  dup3\n    /* \"#utility.yul\":10095:10104   */\n  sub\n    /* \"#utility.yul\":10087:10104   */\n  swap1\n  pop\n    /* \"#utility.yul\":10126:10127   */\n  dup2\n    /* \"#utility.yul\":10120:10124   */\n  dup2\n    /* \"#utility.yul\":10117:10128   */\n  gt\n    /* \"#utility.yul\":10114:10151   */\n  iszero\n  tag_223\n  jumpi\n    /* \"#utility.yul\":10131:10149   */\n  tag_224\n  tag_95\n  jump\t// in\ntag_224:\n    /* \"#utility.yul\":10114:10151   */\ntag_223:\n    /* \"#utility.yul\":9964:10158   */\n  swap3\n  swap2\n  pop\n  pop\n  jump\t// out\n    /* \"#utility.yul\":10164:10344   */\ntag_104:\n    /* \"#utility.yul\":10212:10289   */\n  0x4e487b7100000000000000000000000000000000000000000000000000000000\n    /* \"#utility.yul\":10209:10210   */\n  0x00\n    /* \"#utility.yul\":10202:10290   */\n  mstore\n    /* \"#utility.yul\":10309:10313   */\n  0x12\n    /* \"#utility.yul\":10306:10307   */\n  0x04\n    /* \"#utility.yul\":10299:10314   */\n  mstore\n    /* \"#utility.yul\":10333:10337   */\n  0x24\n    /* \"#utility.yul\":10330:10331   */\n  0x00\n    /* \"#utility.yul\":10323:10338   */\n  revert\n    /* \"#utility.yul\":10350:10535   */\ntag_68:\n    /* \"#utility.yul\":10390:10391   */\n  0x00\n    /* \"#utility.yul\":10407:10427   */\n  tag_227\n    /* \"#utility.yul\":10425:10426   */\n  dup3\n    /* \"#utility.yul\":10407:10427   */\n  tag_83\n  jump\t// in\ntag_227:\n    /* \"#utility.yul\":10402:10427   */\n  swap2\n  pop\n    /* \"#utility.yul\":10441:10461   */\n  tag_228\n    /* \"#utility.yul\":10459:10460   */\n  dup4\n    /* \"#utility.yul\":10441:10461   */\n  tag_83\n  jump\t// in\ntag_228:\n    /* \"#utility.yul\":10436:10461   */\n  swap3\n  pop\n    /* \"#utility.yul\":10480:10481   */\n  dup3\n    /* \"#utility.yul\":10470:10505   */\n  tag_229\n  jumpi\n    /* \"#utility.yul\":10485:10503   */\n  tag_230\n  tag_104\n  jump\t// in\ntag_230:\n    /* \"#utility.yul\":10470:10505   */\ntag_229:\n    /* \"#utility.yul\":10527:10528   */\n  dup3\n    /* \"#utility.yul\":10524:10525   */\n  dup3\n    /* \"#utility.yul\":10520:10529   */\n  div\n    /* \"#utility.yul\":10515:10529   */\n  swap1\n  pop\n    /* \"#utility.yul\":10350:10535   */\n  swap3\n  swap2\n  pop\n  pop\n  jump\t// out\n    /* \"minerpunk/ERC20/MinePower.sol\":27282:27463  contract minePower is ERC20,ERC20Burnable{... */\ntag_17:\n  dataSize(sub_0)\n  dup1\n  dataOffset(sub_0)\n  0x00\n  codecopy\n  0x00\n  return\nstop\n\nsub_0: assembly {\n        /* \"minerpunk/ERC20/MinePower.sol\":27282:27463  contract minePower is ERC20,ERC20Burnable{... */\n      mstore(0x40, 0x80)\n      callvalue\n      dup1\n      iszero\n      tag_1\n      jumpi\n      0x00\n      dup1\n      revert\n    tag_1:\n      pop\n      jumpi(tag_2, lt(calldatasize, 0x04))\n      shr(0xe0, calldataload(0x00))\n      dup1\n      0x70a08231\n      gt\n      tag_20\n      jumpi\n      dup1\n      0xa9059cbb\n      gt\n      tag_21\n      jumpi\n      dup1\n      0xa9059cbb\n      eq\n      tag_15\n      jumpi\n      dup1\n      0xb8ba6007\n      eq\n      tag_16\n      jumpi\n      dup1\n      0xd993226b\n      eq\n      tag_17\n      jumpi\n      dup1\n      0xdd62ed3e\n      eq\n      tag_18\n      jumpi\n      dup1\n      0xeff0730d\n      eq\n      tag_19\n      jumpi\n      jump(tag_2)\n    tag_21:\n      dup1\n      0x70a08231\n      eq\n      tag_11\n      jumpi\n      dup1\n      0x79cc6790\n      eq\n      tag_12\n      jumpi\n      dup1\n      0x95d89b41\n      eq\n      tag_13\n      jumpi\n      dup1\n      0xa457c2d7\n      eq\n      tag_14\n      jumpi\n      jump(tag_2)\n    tag_20:\n      dup1\n      0x313ce567\n      gt\n      tag_22\n      jumpi\n      dup1\n      0x313ce567\n      eq\n      tag_7\n      jumpi\n      dup1\n      0x39509351\n      eq\n      tag_8\n      jumpi\n      dup1\n      0x42966c68\n      eq\n      tag_9\n      jumpi\n      dup1\n      0x4be3403c\n      eq\n      tag_10\n      jumpi\n      jump(tag_2)\n    tag_22:\n      dup1\n      0x06fdde03\n      eq\n      tag_3\n      jumpi\n      dup1\n      0x095ea7b3\n      eq\n      tag_4\n      jumpi\n      dup1\n      0x18160ddd\n      eq\n      tag_5\n      jumpi\n      dup1\n      0x23b872dd\n      eq\n      tag_6\n      jumpi\n    tag_2:\n      0x00\n      dup1\n      revert\n        /* \"minerpunk/ERC20/MinePower.sol\":15167:15265  function name() public view virtual override returns (string memory) {... */\n    tag_3:\n      tag_23\n      tag_24\n      jump\t// in\n    tag_23:\n      mload(0x40)\n      tag_25\n      swap2\n      swap1\n      tag_26\n      jump\t// in\n    tag_25:\n      mload(0x40)\n      dup1\n      swap2\n      sub\n      swap1\n      return\n        /* \"minerpunk/ERC20/MinePower.sol\":17444:17641  function approve(address spender, uint256 amount) public virtual override returns (bool) {... */\n    tag_4:\n      tag_27\n      0x04\n      dup1\n      calldatasize\n      sub\n      dup2\n      add\n      swap1\n      tag_28\n      swap2\n      swap1\n      tag_29\n      jump\t// in\n    tag_28:\n      tag_30\n      jump\t// in\n    tag_27:\n      mload(0x40)\n      tag_31\n      swap2\n      swap1\n      tag_32\n      jump\t// in\n    tag_31:\n      mload(0x40)\n      dup1\n      swap2\n      sub\n      swap1\n      return\n        /* \"minerpunk/ERC20/MinePower.sol\":16255:16361  function totalSupply() public view virtual override returns (uint256) {... */\n    tag_5:\n      tag_33\n      tag_34\n      jump\t// in\n    tag_33:\n      mload(0x40)\n      tag_35\n      swap2\n      swap1\n      tag_36\n      jump\t// in\n    tag_35:\n      mload(0x40)\n      dup1\n      swap2\n      sub\n      swap1\n      return\n        /* \"minerpunk/ERC20/MinePower.sol\":18203:18489  function transferFrom(... */\n    tag_6:\n      tag_37\n      0x04\n      dup1\n      calldatasize\n      sub\n      dup2\n      add\n      swap1\n      tag_38\n      swap2\n      swap1\n      tag_39\n      jump\t// in\n    tag_38:\n      tag_40\n      jump\t// in\n    tag_37:\n      mload(0x40)\n      tag_41\n      swap2\n      swap1\n      tag_32\n      jump\t// in\n    tag_41:\n      mload(0x40)\n      dup1\n      swap2\n      sub\n      swap1\n      return\n        /* \"minerpunk/ERC20/MinePower.sol\":16104:16195  function decimals() public view virtual override returns (uint8) {... */\n    tag_7:\n      tag_42\n      tag_43\n      jump\t// in\n    tag_42:\n      mload(0x40)\n      tag_44\n      swap2\n      swap1\n      tag_45\n      jump\t// in\n    tag_44:\n      mload(0x40)\n      dup1\n      swap2\n      sub\n      swap1\n      return\n        /* \"minerpunk/ERC20/MinePower.sol\":18884:19118  function increaseAllowance(address spender, uint256 addedValue) public virtual returns (bool) {... */\n    tag_8:\n      tag_46\n      0x04\n      dup1\n      calldatasize\n      sub\n      dup2\n      add\n      swap1\n      tag_47\n      swap2\n      swap1\n      tag_29\n      jump\t// in\n    tag_47:\n      tag_48\n      jump\t// in\n    tag_46:\n      mload(0x40)\n      tag_49\n      swap2\n      swap1\n      tag_32\n      jump\t// in\n    tag_49:\n      mload(0x40)\n      dup1\n      swap2\n      sub\n      swap1\n      return\n        /* \"minerpunk/ERC20/MinePower.sol\":26637:26747  function burn(uint256 amount) public virtual {             ... */\n    tag_9:\n      tag_50\n      0x04\n      dup1\n      calldatasize\n      sub\n      dup2\n      add\n      swap1\n      tag_51\n      swap2\n      swap1\n      tag_52\n      jump\t// in\n    tag_51:\n      tag_53\n      jump\t// in\n    tag_50:\n      stop\n        /* \"minerpunk/ERC20/MinePower.sol\":14433:14828  function blockStatus (uint256 _BlockNumber)public view  returns (uint256){... */\n    tag_10:\n      tag_54\n      0x04\n      dup1\n      calldatasize\n      sub\n      dup2\n      add\n      swap1\n      tag_55\n      swap2\n      swap1\n      tag_52\n      jump\t// in\n    tag_55:\n      tag_56\n      jump\t// in\n    tag_54:\n      mload(0x40)\n      tag_57\n      swap2\n      swap1\n      tag_36\n      jump\t// in\n    tag_57:\n      mload(0x40)\n      dup1\n      swap2\n      sub\n      swap1\n      return\n        /* \"minerpunk/ERC20/MinePower.sol\":16419:16544  function balanceOf(address account) public view virtual override returns (uint256) {... */\n    tag_11:\n      tag_58\n      0x04\n      dup1\n      calldatasize\n      sub\n      dup2\n      add\n      swap1\n      tag_59\n      swap2\n      swap1\n      tag_60\n      jump\t// in\n    tag_59:\n      tag_61\n      jump\t// in\n    tag_58:\n      mload(0x40)\n      tag_62\n      swap2\n      swap1\n      tag_36\n      jump\t// in\n    tag_62:\n      mload(0x40)\n      dup1\n      swap2\n      sub\n      swap1\n      return\n        /* \"minerpunk/ERC20/MinePower.sol\":27053:27214  function burnFrom(address account, uint256 amount) public virtual {... */\n    tag_12:\n      tag_63\n      0x04\n      dup1\n      calldatasize\n      sub\n      dup2\n      add\n      swap1\n      tag_64\n      swap2\n      swap1\n      tag_29\n      jump\t// in\n    tag_64:\n      tag_65\n      jump\t// in\n    tag_63:\n      stop\n        /* \"minerpunk/ERC20/MinePower.sol\":15378:15480  function symbol() public view virtual override returns (string memory) {... */\n    tag_13:\n      tag_66\n      tag_67\n      jump\t// in\n    tag_66:\n      mload(0x40)\n      tag_68\n      swap2\n      swap1\n      tag_26\n      jump\t// in\n    tag_68:\n      mload(0x40)\n      dup1\n      swap2\n      sub\n      swap1\n      return\n        /* \"minerpunk/ERC20/MinePower.sol\":19605:20032  function decreaseAllowance(address spender, uint256 subtractedValue) public virtual returns (bool) {... */\n    tag_14:\n      tag_69\n      0x04\n      dup1\n      calldatasize\n      sub\n      dup2\n      add\n      swap1\n      tag_70\n      swap2\n      swap1\n      tag_29\n      jump\t// in\n    tag_70:\n      tag_71\n      jump\t// in\n    tag_69:\n      mload(0x40)\n      tag_72\n      swap2\n      swap1\n      tag_32\n      jump\t// in\n    tag_72:\n      mload(0x40)\n      dup1\n      swap2\n      sub\n      swap1\n      return\n        /* \"minerpunk/ERC20/MinePower.sol\":16740:16929  function transfer(address to, uint256 amount) public virtual override returns (bool) {... */\n    tag_15:\n      tag_73\n      0x04\n      dup1\n      calldatasize\n      sub\n      dup2\n      add\n      swap1\n      tag_74\n      swap2\n      swap1\n      tag_29\n      jump\t// in\n    tag_74:\n      tag_75\n      jump\t// in\n    tag_73:\n      mload(0x40)\n      tag_76\n      swap2\n      swap1\n      tag_32\n      jump\t// in\n    tag_76:\n      mload(0x40)\n      dup1\n      swap2\n      sub\n      swap1\n      return\n        /* \"minerpunk/ERC20/MinePower.sol\":13841:14366  function MineStatus(address user)public view  returns(uint256){... */\n    tag_16:\n      tag_77\n      0x04\n      dup1\n      calldatasize\n      sub\n      dup2\n      add\n      swap1\n      tag_78\n      swap2\n      swap1\n      tag_60\n      jump\t// in\n    tag_78:\n      tag_79\n      jump\t// in\n    tag_77:\n      mload(0x40)\n      tag_80\n      swap2\n      swap1\n      tag_36\n      jump\t// in\n    tag_80:\n      mload(0x40)\n      dup1\n      swap2\n      sub\n      swap1\n      return\n        /* \"minerpunk/ERC20/MinePower.sol\":14835:15094  function difficult(uint _BlockNumber)public view  returns (uint256){... */\n    tag_17:\n      tag_81\n      0x04\n      dup1\n      calldatasize\n      sub\n      dup2\n      add\n      swap1\n      tag_82\n      swap2\n      swap1\n      tag_52\n      jump\t// in\n    tag_82:\n      tag_83\n      jump\t// in\n    tag_81:\n      mload(0x40)\n      tag_84\n      swap2\n      swap1\n      tag_36\n      jump\t// in\n    tag_84:\n      mload(0x40)\n      dup1\n      swap2\n      sub\n      swap1\n      return\n        /* \"minerpunk/ERC20/MinePower.sol\":16987:17136  function allowance(address owner, address spender) public view virtual override returns (uint256) {... */\n    tag_18:\n      tag_85\n      0x04\n      dup1\n      calldatasize\n      sub\n      dup2\n      add\n      swap1\n      tag_86\n      swap2\n      swap1\n      tag_87\n      jump\t// in\n    tag_86:\n      tag_88\n      jump\t// in\n    tag_85:\n      mload(0x40)\n      tag_89\n      swap2\n      swap1\n      tag_36\n      jump\t// in\n    tag_89:\n      mload(0x40)\n      dup1\n      swap2\n      sub\n      swap1\n      return\n        /* \"minerpunk/ERC20/MinePower.sol\":13662:13829  function mineInfo(address user, uint256 number) public view  returns (uint256) {       ... */\n    tag_19:\n      tag_90\n      0x04\n      dup1\n      calldatasize\n      sub\n      dup2\n      add\n      swap1\n      tag_91\n      swap2\n      swap1\n      tag_29\n      jump\t// in\n    tag_91:\n      tag_92\n      jump\t// in\n    tag_90:\n      mload(0x40)\n      tag_93\n      swap2\n      swap1\n      tag_36\n      jump\t// in\n    tag_93:\n      mload(0x40)\n      dup1\n      swap2\n      sub\n      swap1\n      return\n        /* \"minerpunk/ERC20/MinePower.sol\":15167:15265  function name() public view virtual override returns (string memory) {... */\n    tag_24:\n        /* \"minerpunk/ERC20/MinePower.sol\":15221:15234  string memory */\n      0x60\n        /* \"minerpunk/ERC20/MinePower.sol\":15253:15258  _name */\n      0x05\n        /* \"minerpunk/ERC20/MinePower.sol\":15246:15258  return _name */\n      dup1\n      sload\n      tag_99\n      swap1\n      tag_100\n      jump\t// in\n    tag_99:\n      dup1\n      0x1f\n      add\n      0x20\n      dup1\n      swap2\n      div\n      mul\n      0x20\n      add\n      mload(0x40)\n      swap1\n      dup2\n      add\n      0x40\n      mstore\n      dup1\n      swap3\n      swap2\n      swap1\n      dup2\n      dup2\n      mstore\n      0x20\n      add\n      dup3\n      dup1\n      sload\n      tag_101\n      swap1\n      tag_100\n      jump\t// in\n    tag_101:\n      dup1\n      iszero\n      tag_102\n      jumpi\n      dup1\n      0x1f\n      lt\n      tag_103\n      jumpi\n      0x0100\n      dup1\n      dup4\n      sload\n      div\n      mul\n      dup4\n      mstore\n      swap2\n      0x20\n      add\n      swap2\n      jump(tag_102)\n    tag_103:\n      dup3\n      add\n      swap2\n      swap1\n      0x00\n      mstore\n      keccak256(0x00, 0x20)\n      swap1\n    tag_104:\n      dup2\n      sload\n      dup2\n      mstore\n      swap1\n      0x01\n      add\n      swap1\n      0x20\n      add\n      dup1\n      dup4\n      gt\n      tag_104\n      jumpi\n      dup3\n      swap1\n      sub\n      0x1f\n      and\n      dup3\n      add\n      swap2\n    tag_102:\n      pop\n      pop\n      pop\n      pop\n      pop\n      swap1\n      pop\n        /* \"minerpunk/ERC20/MinePower.sol\":15167:15265  function name() public view virtual override returns (string memory) {... */\n      swap1\n      jump\t// out\n        /* \"minerpunk/ERC20/MinePower.sol\":17444:17641  function approve(address spender, uint256 amount) public virtual override returns (bool) {... */\n    tag_30:\n        /* \"minerpunk/ERC20/MinePower.sol\":17527:17531  bool */\n      0x00\n        /* \"minerpunk/ERC20/MinePower.sol\":17543:17556  address owner */\n      dup1\n        /* \"minerpunk/ERC20/MinePower.sol\":17559:17571  _msgSender() */\n      tag_106\n        /* \"minerpunk/ERC20/MinePower.sol\":17559:17569  _msgSender */\n      tag_107\n        /* \"minerpunk/ERC20/MinePower.sol\":17559:17571  _msgSender() */\n      jump\t// in\n    tag_106:\n        /* \"minerpunk/ERC20/MinePower.sol\":17543:17571  address owner = _msgSender() */\n      swap1\n      pop\n        /* \"minerpunk/ERC20/MinePower.sol\":17581:17613  _approve(owner, spender, amount) */\n      tag_108\n        /* \"minerpunk/ERC20/MinePower.sol\":17590:17595  owner */\n      dup2\n        /* \"minerpunk/ERC20/MinePower.sol\":17597:17604  spender */\n      dup6\n        /* \"minerpunk/ERC20/MinePower.sol\":17606:17612  amount */\n      dup6\n        /* \"minerpunk/ERC20/MinePower.sol\":17581:17589  _approve */\n      tag_109\n        /* \"minerpunk/ERC20/MinePower.sol\":17581:17613  _approve(owner, spender, amount) */\n      jump\t// in\n    tag_108:\n        /* \"minerpunk/ERC20/MinePower.sol\":17630:17634  true */\n      0x01\n        /* \"minerpunk/ERC20/MinePower.sol\":17623:17634  return true */\n      swap2\n      pop\n      pop\n        /* \"minerpunk/ERC20/MinePower.sol\":17444:17641  function approve(address spender, uint256 amount) public virtual override returns (bool) {... */\n      swap3\n      swap2\n      pop\n      pop\n      jump\t// out\n        /* \"minerpunk/ERC20/MinePower.sol\":16255:16361  function totalSupply() public view virtual override returns (uint256) {... */\n    tag_34:\n        /* \"minerpunk/ERC20/MinePower.sol\":16316:16323  uint256 */\n      0x00\n        /* \"minerpunk/ERC20/MinePower.sol\":16342:16354  _totalSupply */\n      sload(0x02)\n        /* \"minerpunk/ERC20/MinePower.sol\":16335:16354  return _totalSupply */\n      swap1\n      pop\n        /* \"minerpunk/ERC20/MinePower.sol\":16255:16361  function totalSupply() public view virtual override returns (uint256) {... */\n      swap1\n      jump\t// out\n        /* \"minerpunk/ERC20/MinePower.sol\":18203:18489  function transferFrom(... */\n    tag_40:\n        /* \"minerpunk/ERC20/MinePower.sol\":18330:18334  bool */\n      0x00\n        /* \"minerpunk/ERC20/MinePower.sol\":18346:18361  address spender */\n      dup1\n        /* \"minerpunk/ERC20/MinePower.sol\":18364:18376  _msgSender() */\n      tag_112\n        /* \"minerpunk/ERC20/MinePower.sol\":18364:18374  _msgSender */\n      tag_107\n        /* \"minerpunk/ERC20/MinePower.sol\":18364:18376  _msgSender() */\n      jump\t// in\n    tag_112:\n        /* \"minerpunk/ERC20/MinePower.sol\":18346:18376  address spender = _msgSender() */\n      swap1\n      pop\n        /* \"minerpunk/ERC20/MinePower.sol\":18386:18424  _spendAllowance(from, spender, amount) */\n      tag_113\n        /* \"minerpunk/ERC20/MinePower.sol\":18402:18406  from */\n      dup6\n        /* \"minerpunk/ERC20/MinePower.sol\":18408:18415  spender */\n      dup3\n        /* \"minerpunk/ERC20/MinePower.sol\":18417:18423  amount */\n      dup6\n        /* \"minerpunk/ERC20/MinePower.sol\":18386:18401  _spendAllowance */\n      tag_114\n        /* \"minerpunk/ERC20/MinePower.sol\":18386:18424  _spendAllowance(from, spender, amount) */\n      jump\t// in\n    tag_113:\n        /* \"minerpunk/ERC20/MinePower.sol\":18434:18461  _transfer(from, to, amount) */\n      tag_115\n        /* \"minerpunk/ERC20/MinePower.sol\":18444:18448  from */\n      dup6\n        /* \"minerpunk/ERC20/MinePower.sol\":18450:18452  to */\n      dup6\n        /* \"minerpunk/ERC20/MinePower.sol\":18454:18460  amount */\n      dup6\n        /* \"minerpunk/ERC20/MinePower.sol\":18434:18443  _transfer */\n      tag_116\n        /* \"minerpunk/ERC20/MinePower.sol\":18434:18461  _transfer(from, to, amount) */\n      jump\t// in\n    tag_115:\n        /* \"minerpunk/ERC20/MinePower.sol\":18478:18482  true */\n      0x01\n        /* \"minerpunk/ERC20/MinePower.sol\":18471:18482  return true */\n      swap2\n      pop\n      pop\n        /* \"minerpunk/ERC20/MinePower.sol\":18203:18489  function transferFrom(... */\n      swap4\n      swap3\n      pop\n      pop\n      pop\n      jump\t// out\n        /* \"minerpunk/ERC20/MinePower.sol\":16104:16195  function decimals() public view virtual override returns (uint8) {... */\n    tag_43:\n        /* \"minerpunk/ERC20/MinePower.sol\":16162:16167  uint8 */\n      0x00\n        /* \"minerpunk/ERC20/MinePower.sol\":16186:16188  18 */\n      0x12\n        /* \"minerpunk/ERC20/MinePower.sol\":16179:16188  return 18 */\n      swap1\n      pop\n        /* \"minerpunk/ERC20/MinePower.sol\":16104:16195  function decimals() public view virtual override returns (uint8) {... */\n      swap1\n      jump\t// out\n        /* \"minerpunk/ERC20/MinePower.sol\":18884:19118  function increaseAllowance(address spender, uint256 addedValue) public virtual returns (bool) {... */\n    tag_48:\n        /* \"minerpunk/ERC20/MinePower.sol\":18972:18976  bool */\n      0x00\n        /* \"minerpunk/ERC20/MinePower.sol\":18988:19001  address owner */\n      dup1\n        /* \"minerpunk/ERC20/MinePower.sol\":19004:19016  _msgSender() */\n      tag_119\n        /* \"minerpunk/ERC20/MinePower.sol\":19004:19014  _msgSender */\n      tag_107\n        /* \"minerpunk/ERC20/MinePower.sol\":19004:19016  _msgSender() */\n      jump\t// in\n    tag_119:\n        /* \"minerpunk/ERC20/MinePower.sol\":18988:19016  address owner = _msgSender() */\n      swap1\n      pop\n        /* \"minerpunk/ERC20/MinePower.sol\":19026:19090  _approve(owner, spender, allowance(owner, spender) + addedValue) */\n      tag_120\n        /* \"minerpunk/ERC20/MinePower.sol\":19035:19040  owner */\n      dup2\n        /* \"minerpunk/ERC20/MinePower.sol\":19042:19049  spender */\n      dup6\n        /* \"minerpunk/ERC20/MinePower.sol\":19079:19089  addedValue */\n      dup6\n        /* \"minerpunk/ERC20/MinePower.sol\":19051:19076  allowance(owner, spender) */\n      tag_121\n        /* \"minerpunk/ERC20/MinePower.sol\":19061:19066  owner */\n      dup6\n        /* \"minerpunk/ERC20/MinePower.sol\":19068:19075  spender */\n      dup10\n        /* \"minerpunk/ERC20/MinePower.sol\":19051:19060  allowance */\n      tag_88\n        /* \"minerpunk/ERC20/MinePower.sol\":19051:19076  allowance(owner, spender) */\n      jump\t// in\n    tag_121:\n        /* \"minerpunk/ERC20/MinePower.sol\":19051:19089  allowance(owner, spender) + addedValue */\n      tag_122\n      swap2\n      swap1\n      tag_123\n      jump\t// in\n    tag_122:\n        /* \"minerpunk/ERC20/MinePower.sol\":19026:19034  _approve */\n      tag_109\n        /* \"minerpunk/ERC20/MinePower.sol\":19026:19090  _approve(owner, spender, allowance(owner, spender) + addedValue) */\n      jump\t// in\n    tag_120:\n        /* \"minerpunk/ERC20/MinePower.sol\":19107:19111  true */\n      0x01\n        /* \"minerpunk/ERC20/MinePower.sol\":19100:19111  return true */\n      swap2\n      pop\n      pop\n        /* \"minerpunk/ERC20/MinePower.sol\":18884:19118  function increaseAllowance(address spender, uint256 addedValue) public virtual returns (bool) {... */\n      swap3\n      swap2\n      pop\n      pop\n      jump\t// out\n        /* \"minerpunk/ERC20/MinePower.sol\":26637:26747  function burn(uint256 amount) public virtual {             ... */\n    tag_53:\n        /* \"minerpunk/ERC20/MinePower.sol\":26705:26732  _burn(_msgSender(), amount) */\n      tag_125\n        /* \"minerpunk/ERC20/MinePower.sol\":26711:26723  _msgSender() */\n      tag_126\n        /* \"minerpunk/ERC20/MinePower.sol\":26711:26721  _msgSender */\n      tag_107\n        /* \"minerpunk/ERC20/MinePower.sol\":26711:26723  _msgSender() */\n      jump\t// in\n    tag_126:\n        /* \"minerpunk/ERC20/MinePower.sol\":26725:26731  amount */\n      dup3\n        /* \"minerpunk/ERC20/MinePower.sol\":26705:26710  _burn */\n      tag_127\n        /* \"minerpunk/ERC20/MinePower.sol\":26705:26732  _burn(_msgSender(), amount) */\n      jump\t// in\n    tag_125:\n        /* \"minerpunk/ERC20/MinePower.sol\":26637:26747  function burn(uint256 amount) public virtual {             ... */\n      pop\n      jump\t// out\n        /* \"minerpunk/ERC20/MinePower.sol\":14433:14828  function blockStatus (uint256 _BlockNumber)public view  returns (uint256){... */\n    tag_56:\n        /* \"minerpunk/ERC20/MinePower.sol\":14498:14505  uint256 */\n      0x00\n        /* \"minerpunk/ERC20/MinePower.sol\":14534:14551  _startBlockNumber */\n      sload(0x04)\n        /* \"minerpunk/ERC20/MinePower.sol\":14519:14531  _BlockNumber */\n      dup3\n        /* \"minerpunk/ERC20/MinePower.sol\":14519:14551  _BlockNumber < _startBlockNumber */\n      lt\n        /* \"minerpunk/ERC20/MinePower.sol\":14516:14609  if(_BlockNumber < _startBlockNumber){... */\n      iszero\n      tag_129\n      jumpi\n        /* \"minerpunk/ERC20/MinePower.sol\":14581:14598  _startBlockNumber */\n      sload(0x04)\n        /* \"minerpunk/ERC20/MinePower.sol\":14566:14598  _BlockNumber = _startBlockNumber */\n      swap2\n      pop\n        /* \"minerpunk/ERC20/MinePower.sol\":14516:14609  if(_BlockNumber < _startBlockNumber){... */\n    tag_129:\n        /* \"minerpunk/ERC20/MinePower.sol\":14618:14637  uint256 DCFperBlock */\n      0x00\n        /* \"minerpunk/ERC20/MinePower.sol\":14640:14664  _TokenperBlock.mul(1e54) */\n      tag_130\n        /* \"minerpunk/ERC20/MinePower.sol\":14659:14663  1e54 */\n      0x0a70c3c40a64e6c51999090b65f67d9240000000000000\n        /* \"minerpunk/ERC20/MinePower.sol\":14640:14654  _TokenperBlock */\n      sload(0x03)\n        /* \"minerpunk/ERC20/MinePower.sol\":14640:14658  _TokenperBlock.mul */\n      tag_96\n      swap1\n        /* \"minerpunk/ERC20/MinePower.sol\":14640:14664  _TokenperBlock.mul(1e54) */\n      swap2\n      swap1\n      0xffffffff\n      and\n      jump\t// in\n    tag_130:\n        /* \"minerpunk/ERC20/MinePower.sol\":14618:14664  uint256 DCFperBlock = _TokenperBlock.mul(1e54) */\n      swap1\n      pop\n        /* \"minerpunk/ERC20/MinePower.sol\":14685:14707  uint256 BlockDifficult */\n      0x00\n        /* \"minerpunk/ERC20/MinePower.sol\":14710:14733  difficult(_BlockNumber) */\n      tag_131\n        /* \"minerpunk/ERC20/MinePower.sol\":14720:14732  _BlockNumber */\n      dup5\n        /* \"minerpunk/ERC20/MinePower.sol\":14710:14719  difficult */\n      tag_83\n        /* \"minerpunk/ERC20/MinePower.sol\":14710:14733  difficult(_BlockNumber) */\n      jump\t// in\n    tag_131:\n        /* \"minerpunk/ERC20/MinePower.sol\":14685:14733  uint256 BlockDifficult = difficult(_BlockNumber) */\n      swap1\n      pop\n        /* \"minerpunk/ERC20/MinePower.sol\":14748:14761  uint256 DugUP */\n      0x00\n        /* \"minerpunk/ERC20/MinePower.sol\":14764:14795  DCFperBlock.div(BlockDifficult) */\n      tag_132\n        /* \"minerpunk/ERC20/MinePower.sol\":14780:14794  BlockDifficult */\n      dup3\n        /* \"minerpunk/ERC20/MinePower.sol\":14764:14775  DCFperBlock */\n      dup5\n        /* \"minerpunk/ERC20/MinePower.sol\":14764:14779  DCFperBlock.div */\n      tag_97\n      swap1\n        /* \"minerpunk/ERC20/MinePower.sol\":14764:14795  DCFperBlock.div(BlockDifficult) */\n      swap2\n      swap1\n      0xffffffff\n      and\n      jump\t// in\n    tag_132:\n        /* \"minerpunk/ERC20/MinePower.sol\":14748:14795  uint256 DugUP = DCFperBlock.div(BlockDifficult) */\n      swap1\n      pop\n        /* \"minerpunk/ERC20/MinePower.sol\":14812:14817  DugUP */\n      dup1\n        /* \"minerpunk/ERC20/MinePower.sol\":14805:14817  return DugUP */\n      swap4\n      pop\n      pop\n      pop\n      pop\n        /* \"minerpunk/ERC20/MinePower.sol\":14433:14828  function blockStatus (uint256 _BlockNumber)public view  returns (uint256){... */\n      swap2\n      swap1\n      pop\n      jump\t// out\n        /* \"minerpunk/ERC20/MinePower.sol\":16419:16544  function balanceOf(address account) public view virtual override returns (uint256) {... */\n    tag_61:\n        /* \"minerpunk/ERC20/MinePower.sol\":16493:16500  uint256 */\n      0x00\n        /* \"minerpunk/ERC20/MinePower.sol\":16519:16528  _balances */\n      dup1\n        /* \"minerpunk/ERC20/MinePower.sol\":16519:16537  _balances[account] */\n      0x00\n        /* \"minerpunk/ERC20/MinePower.sol\":16529:16536  account */\n      dup4\n        /* \"minerpunk/ERC20/MinePower.sol\":16519:16537  _balances[account] */\n      0xffffffffffffffffffffffffffffffffffffffff\n      and\n      0xffffffffffffffffffffffffffffffffffffffff\n      and\n      dup2\n      mstore\n      0x20\n      add\n      swap1\n      dup2\n      mstore\n      0x20\n      add\n      0x00\n      keccak256\n      sload\n        /* \"minerpunk/ERC20/MinePower.sol\":16512:16537  return _balances[account] */\n      swap1\n      pop\n        /* \"minerpunk/ERC20/MinePower.sol\":16419:16544  function balanceOf(address account) public view virtual override returns (uint256) {... */\n      swap2\n      swap1\n      pop\n      jump\t// out\n        /* \"minerpunk/ERC20/MinePower.sol\":27053:27214  function burnFrom(address account, uint256 amount) public virtual {... */\n    tag_65:\n        /* \"minerpunk/ERC20/MinePower.sol\":27129:27175  _spendAllowance(account, _msgSender(), amount) */\n      tag_135\n        /* \"minerpunk/ERC20/MinePower.sol\":27145:27152  account */\n      dup3\n        /* \"minerpunk/ERC20/MinePower.sol\":27154:27166  _msgSender() */\n      tag_136\n        /* \"minerpunk/ERC20/MinePower.sol\":27154:27164  _msgSender */\n      tag_107\n        /* \"minerpunk/ERC20/MinePower.sol\":27154:27166  _msgSender() */\n      jump\t// in\n    tag_136:\n        /* \"minerpunk/ERC20/MinePower.sol\":27168:27174  amount */\n      dup4\n        /* \"minerpunk/ERC20/MinePower.sol\":27129:27144  _spendAllowance */\n      tag_114\n        /* \"minerpunk/ERC20/MinePower.sol\":27129:27175  _spendAllowance(account, _msgSender(), amount) */\n      jump\t// in\n    tag_135:\n        /* \"minerpunk/ERC20/MinePower.sol\":27185:27207  _burn(account, amount) */\n      tag_137\n        /* \"minerpunk/ERC20/MinePower.sol\":27191:27198  account */\n      dup3\n        /* \"minerpunk/ERC20/MinePower.sol\":27200:27206  amount */\n      dup3\n        /* \"minerpunk/ERC20/MinePower.sol\":27185:27190  _burn */\n      tag_127\n        /* \"minerpunk/ERC20/MinePower.sol\":27185:27207  _burn(account, amount) */\n      jump\t// in\n    tag_137:\n        /* \"minerpunk/ERC20/MinePower.sol\":27053:27214  function burnFrom(address account, uint256 amount) public virtual {... */\n      pop\n      pop\n      jump\t// out\n        /* \"minerpunk/ERC20/MinePower.sol\":15378:15480  function symbol() public view virtual override returns (string memory) {... */\n    tag_67:\n        /* \"minerpunk/ERC20/MinePower.sol\":15434:15447  string memory */\n      0x60\n        /* \"minerpunk/ERC20/MinePower.sol\":15466:15473  _symbol */\n      0x06\n        /* \"minerpunk/ERC20/MinePower.sol\":15459:15473  return _symbol */\n      dup1\n      sload\n      tag_139\n      swap1\n      tag_100\n      jump\t// in\n    tag_139:\n      dup1\n      0x1f\n      add\n      0x20\n      dup1\n      swap2\n      div\n      mul\n      0x20\n      add\n      mload(0x40)\n      swap1\n      dup2\n      add\n      0x40\n      mstore\n      dup1\n      swap3\n      swap2\n      swap1\n      dup2\n      dup2\n      mstore\n      0x20\n      add\n      dup3\n      dup1\n      sload\n      tag_140\n      swap1\n      tag_100\n      jump\t// in\n    tag_140:\n      dup1\n      iszero\n      tag_141\n      jumpi\n      dup1\n      0x1f\n      lt\n      tag_142\n      jumpi\n      0x0100\n      dup1\n      dup4\n      sload\n      div\n      mul\n      dup4\n      mstore\n      swap2\n      0x20\n      add\n      swap2\n      jump(tag_141)\n    tag_142:\n      dup3\n      add\n      swap2\n      swap1\n      0x00\n      mstore\n      keccak256(0x00, 0x20)\n      swap1\n    tag_143:\n      dup2\n      sload\n      dup2\n      mstore\n      swap1\n      0x01\n      add\n      swap1\n      0x20\n      add\n      dup1\n      dup4\n      gt\n      tag_143\n      jumpi\n      dup3\n      swap1\n      sub\n      0x1f\n      and\n      dup3\n      add\n      swap2\n    tag_141:\n      pop\n      pop\n      pop\n      pop\n      pop\n      swap1\n      pop\n        /* \"minerpunk/ERC20/MinePower.sol\":15378:15480  function symbol() public view virtual override returns (string memory) {... */\n      swap1\n      jump\t// out\n        /* \"minerpunk/ERC20/MinePower.sol\":19605:20032  function decreaseAllowance(address spender, uint256 subtractedValue) public virtual returns (bool) {... */\n    tag_71:\n        /* \"minerpunk/ERC20/MinePower.sol\":19698:19702  bool */\n      0x00\n        /* \"minerpunk/ERC20/MinePower.sol\":19714:19727  address owner */\n      dup1\n        /* \"minerpunk/ERC20/MinePower.sol\":19730:19742  _msgSender() */\n      tag_145\n        /* \"minerpunk/ERC20/MinePower.sol\":19730:19740  _msgSender */\n      tag_107\n        /* \"minerpunk/ERC20/MinePower.sol\":19730:19742  _msgSender() */\n      jump\t// in\n    tag_145:\n        /* \"minerpunk/ERC20/MinePower.sol\":19714:19742  address owner = _msgSender() */\n      swap1\n      pop\n        /* \"minerpunk/ERC20/MinePower.sol\":19752:19776  uint256 currentAllowance */\n      0x00\n        /* \"minerpunk/ERC20/MinePower.sol\":19779:19804  allowance(owner, spender) */\n      tag_146\n        /* \"minerpunk/ERC20/MinePower.sol\":19789:19794  owner */\n      dup3\n        /* \"minerpunk/ERC20/MinePower.sol\":19796:19803  spender */\n      dup7\n        /* \"minerpunk/ERC20/MinePower.sol\":19779:19788  allowance */\n      tag_88\n        /* \"minerpunk/ERC20/MinePower.sol\":19779:19804  allowance(owner, spender) */\n      jump\t// in\n    tag_146:\n        /* \"minerpunk/ERC20/MinePower.sol\":19752:19804  uint256 currentAllowance = allowance(owner, spender) */\n      swap1\n      pop\n        /* \"minerpunk/ERC20/MinePower.sol\":19842:19857  subtractedValue */\n      dup4\n        /* \"minerpunk/ERC20/MinePower.sol\":19822:19838  currentAllowance */\n      dup2\n        /* \"minerpunk/ERC20/MinePower.sol\":19822:19857  currentAllowance >= subtractedValue */\n      lt\n      iszero\n        /* \"minerpunk/ERC20/MinePower.sol\":19814:19899  require(currentAllowance >= subtractedValue, \"ERC20: decreased allowance below zero\") */\n      tag_147\n      jumpi\n      mload(0x40)\n      0x08c379a000000000000000000000000000000000000000000000000000000000\n      dup2\n      mstore\n      0x04\n      add\n      tag_148\n      swap1\n      tag_149\n      jump\t// in\n    tag_148:\n      mload(0x40)\n      dup1\n      swap2\n      sub\n      swap1\n      revert\n    tag_147:\n        /* \"minerpunk/ERC20/MinePower.sol\":19933:19993  _approve(owner, spender, currentAllowance - subtractedValue) */\n      tag_150\n        /* \"minerpunk/ERC20/MinePower.sol\":19942:19947  owner */\n      dup3\n        /* \"minerpunk/ERC20/MinePower.sol\":19949:19956  spender */\n      dup7\n        /* \"minerpunk/ERC20/MinePower.sol\":19977:19992  subtractedValue */\n      dup7\n        /* \"minerpunk/ERC20/MinePower.sol\":19958:19974  currentAllowance */\n      dup5\n        /* \"minerpunk/ERC20/MinePower.sol\":19958:19992  currentAllowance - subtractedValue */\n      sub\n        /* \"minerpunk/ERC20/MinePower.sol\":19933:19941  _approve */\n      tag_109\n        /* \"minerpunk/ERC20/MinePower.sol\":19933:19993  _approve(owner, spender, currentAllowance - subtractedValue) */\n      jump\t// in\n    tag_150:\n        /* \"minerpunk/ERC20/MinePower.sol\":20021:20025  true */\n      0x01\n        /* \"minerpunk/ERC20/MinePower.sol\":20014:20025  return true */\n      swap3\n      pop\n      pop\n      pop\n        /* \"minerpunk/ERC20/MinePower.sol\":19605:20032  function decreaseAllowance(address spender, uint256 subtractedValue) public virtual returns (bool) {... */\n      swap3\n      swap2\n      pop\n      pop\n      jump\t// out\n        /* \"minerpunk/ERC20/MinePower.sol\":16740:16929  function transfer(address to, uint256 amount) public virtual override returns (bool) {... */\n    tag_75:\n        /* \"minerpunk/ERC20/MinePower.sol\":16819:16823  bool */\n      0x00\n        /* \"minerpunk/ERC20/MinePower.sol\":16835:16848  address owner */\n      dup1\n        /* \"minerpunk/ERC20/MinePower.sol\":16851:16863  _msgSender() */\n      tag_152\n        /* \"minerpunk/ERC20/MinePower.sol\":16851:16861  _msgSender */\n      tag_107\n        /* \"minerpunk/ERC20/MinePower.sol\":16851:16863  _msgSender() */\n      jump\t// in\n    tag_152:\n        /* \"minerpunk/ERC20/MinePower.sol\":16835:16863  address owner = _msgSender() */\n      swap1\n      pop\n        /* \"minerpunk/ERC20/MinePower.sol\":16873:16901  _transfer(owner, to, amount) */\n      tag_153\n        /* \"minerpunk/ERC20/MinePower.sol\":16883:16888  owner */\n      dup2\n        /* \"minerpunk/ERC20/MinePower.sol\":16890:16892  to */\n      dup6\n        /* \"minerpunk/ERC20/MinePower.sol\":16894:16900  amount */\n      dup6\n        /* \"minerpunk/ERC20/MinePower.sol\":16873:16882  _transfer */\n      tag_116\n        /* \"minerpunk/ERC20/MinePower.sol\":16873:16901  _transfer(owner, to, amount) */\n      jump\t// in\n    tag_153:\n        /* \"minerpunk/ERC20/MinePower.sol\":16918:16922  true */\n      0x01\n        /* \"minerpunk/ERC20/MinePower.sol\":16911:16922  return true */\n      swap2\n      pop\n      pop\n        /* \"minerpunk/ERC20/MinePower.sol\":16740:16929  function transfer(address to, uint256 amount) public virtual override returns (bool) {... */\n      swap3\n      swap2\n      pop\n      pop\n      jump\t// out\n        /* \"minerpunk/ERC20/MinePower.sol\":13841:14366  function MineStatus(address user)public view  returns(uint256){... */\n    tag_79:\n        /* \"minerpunk/ERC20/MinePower.sol\":13895:13902  uint256 */\n      0x00\n        /* \"minerpunk/ERC20/MinePower.sol\":13913:13931  uint256 difference */\n      dup1\n        /* \"minerpunk/ERC20/MinePower.sol\":13934:13970  block.number.sub(_mineInfo[user][1]) */\n      tag_155\n        /* \"minerpunk/ERC20/MinePower.sol\":13951:13960  _mineInfo */\n      0x07\n        /* \"minerpunk/ERC20/MinePower.sol\":13951:13966  _mineInfo[user] */\n      0x00\n        /* \"minerpunk/ERC20/MinePower.sol\":13961:13965  user */\n      dup6\n        /* \"minerpunk/ERC20/MinePower.sol\":13951:13966  _mineInfo[user] */\n      0xffffffffffffffffffffffffffffffffffffffff\n      and\n      0xffffffffffffffffffffffffffffffffffffffff\n      and\n      dup2\n      mstore\n      0x20\n      add\n      swap1\n      dup2\n      mstore\n      0x20\n      add\n      0x00\n      keccak256\n        /* \"minerpunk/ERC20/MinePower.sol\":13951:13969  _mineInfo[user][1] */\n      0x00\n        /* \"minerpunk/ERC20/MinePower.sol\":13967:13968  1 */\n      0x01\n        /* \"minerpunk/ERC20/MinePower.sol\":13951:13969  _mineInfo[user][1] */\n      dup2\n      mstore\n      0x20\n      add\n      swap1\n      dup2\n      mstore\n      0x20\n      add\n      0x00\n      keccak256\n      sload\n        /* \"minerpunk/ERC20/MinePower.sol\":13934:13946  block.number */\n      number\n        /* \"minerpunk/ERC20/MinePower.sol\":13934:13950  block.number.sub */\n      tag_94\n      swap1\n        /* \"minerpunk/ERC20/MinePower.sol\":13934:13970  block.number.sub(_mineInfo[user][1]) */\n      swap2\n      swap1\n      0xffffffff\n      and\n      jump\t// in\n    tag_155:\n        /* \"minerpunk/ERC20/MinePower.sol\":13913:13970  uint256 difference = block.number.sub(_mineInfo[user][1]) */\n      swap1\n      pop\n        /* \"minerpunk/ERC20/MinePower.sol\":13980:13993  uint256 start */\n      0x00\n        /* \"minerpunk/ERC20/MinePower.sol\":13996:14027  blockStatus(_mineInfo[user][1]) */\n      tag_156\n        /* \"minerpunk/ERC20/MinePower.sol\":14008:14017  _mineInfo */\n      0x07\n        /* \"minerpunk/ERC20/MinePower.sol\":14008:14023  _mineInfo[user] */\n      0x00\n        /* \"minerpunk/ERC20/MinePower.sol\":14018:14022  user */\n      dup7\n        /* \"minerpunk/ERC20/MinePower.sol\":14008:14023  _mineInfo[user] */\n      0xffffffffffffffffffffffffffffffffffffffff\n      and\n      0xffffffffffffffffffffffffffffffffffffffff\n      and\n      dup2\n      mstore\n      0x20\n      add\n      swap1\n      dup2\n      mstore\n      0x20\n      add\n      0x00\n      keccak256\n        /* \"minerpunk/ERC20/MinePower.sol\":14008:14026  _mineInfo[user][1] */\n      0x00\n        /* \"minerpunk/ERC20/MinePower.sol\":14024:14025  1 */\n      0x01\n        /* \"minerpunk/ERC20/MinePower.sol\":14008:14026  _mineInfo[user][1] */\n      dup2\n      mstore\n      0x20\n      add\n      swap1\n      dup2\n      mstore\n      0x20\n      add\n      0x00\n      keccak256\n      sload\n        /* \"minerpunk/ERC20/MinePower.sol\":13996:14007  blockStatus */\n      tag_56\n        /* \"minerpunk/ERC20/MinePower.sol\":13996:14027  blockStatus(_mineInfo[user][1]) */\n      jump\t// in\n    tag_156:\n        /* \"minerpunk/ERC20/MinePower.sol\":13980:14027  uint256 start = blockStatus(_mineInfo[user][1]) */\n      swap1\n      pop\n        /* \"minerpunk/ERC20/MinePower.sol\":14037:14048  uint256 end */\n      0x00\n        /* \"minerpunk/ERC20/MinePower.sol\":14051:14076  blockStatus(block.number) */\n      tag_157\n        /* \"minerpunk/ERC20/MinePower.sol\":14063:14075  block.number */\n      number\n        /* \"minerpunk/ERC20/MinePower.sol\":14051:14062  blockStatus */\n      tag_56\n        /* \"minerpunk/ERC20/MinePower.sol\":14051:14076  blockStatus(block.number) */\n      jump\t// in\n    tag_157:\n        /* \"minerpunk/ERC20/MinePower.sol\":14037:14076  uint256 end = blockStatus(block.number) */\n      swap1\n      pop\n        /* \"minerpunk/ERC20/MinePower.sol\":14086:14104  uint256 mined_area */\n      0x00\n        /* \"minerpunk/ERC20/MinePower.sol\":14107:14144  start.add(end).mul(difference).div(2) */\n      tag_158\n        /* \"minerpunk/ERC20/MinePower.sol\":14142:14143  2 */\n      0x02\n        /* \"minerpunk/ERC20/MinePower.sol\":14107:14137  start.add(end).mul(difference) */\n      tag_159\n        /* \"minerpunk/ERC20/MinePower.sol\":14126:14136  difference */\n      dup7\n        /* \"minerpunk/ERC20/MinePower.sol\":14107:14121  start.add(end) */\n      tag_160\n        /* \"minerpunk/ERC20/MinePower.sol\":14117:14120  end */\n      dup7\n        /* \"minerpunk/ERC20/MinePower.sol\":14107:14112  start */\n      dup9\n        /* \"minerpunk/ERC20/MinePower.sol\":14107:14116  start.add */\n      tag_95\n      swap1\n        /* \"minerpunk/ERC20/MinePower.sol\":14107:14121  start.add(end) */\n      swap2\n      swap1\n      0xffffffff\n      and\n      jump\t// in\n    tag_160:\n        /* \"minerpunk/ERC20/MinePower.sol\":14107:14125  start.add(end).mul */\n      tag_96\n      swap1\n        /* \"minerpunk/ERC20/MinePower.sol\":14107:14137  start.add(end).mul(difference) */\n      swap2\n      swap1\n      0xffffffff\n      and\n      jump\t// in\n    tag_159:\n        /* \"minerpunk/ERC20/MinePower.sol\":14107:14141  start.add(end).mul(difference).div */\n      tag_97\n      swap1\n        /* \"minerpunk/ERC20/MinePower.sol\":14107:14144  start.add(end).mul(difference).div(2) */\n      swap2\n      swap1\n      0xffffffff\n      and\n      jump\t// in\n    tag_158:\n        /* \"minerpunk/ERC20/MinePower.sol\":14086:14144  uint256 mined_area = start.add(end).mul(difference).div(2) */\n      swap1\n      pop\n        /* \"minerpunk/ERC20/MinePower.sol\":14234:14249  uint dcf_amount */\n      0x00\n        /* \"minerpunk/ERC20/MinePower.sol\":14252:14301  mined_area.mul(balanceOf(user)).div(_totalSupply) */\n      tag_161\n        /* \"minerpunk/ERC20/MinePower.sol\":14288:14300  _totalSupply */\n      sload(0x02)\n        /* \"minerpunk/ERC20/MinePower.sol\":14252:14283  mined_area.mul(balanceOf(user)) */\n      tag_162\n        /* \"minerpunk/ERC20/MinePower.sol\":14267:14282  balanceOf(user) */\n      tag_163\n        /* \"minerpunk/ERC20/MinePower.sol\":14277:14281  user */\n      dup11\n        /* \"minerpunk/ERC20/MinePower.sol\":14267:14276  balanceOf */\n      tag_61\n        /* \"minerpunk/ERC20/MinePower.sol\":14267:14282  balanceOf(user) */\n      jump\t// in\n    tag_163:\n        /* \"minerpunk/ERC20/MinePower.sol\":14252:14262  mined_area */\n      dup6\n        /* \"minerpunk/ERC20/MinePower.sol\":14252:14266  mined_area.mul */\n      tag_96\n      swap1\n        /* \"minerpunk/ERC20/MinePower.sol\":14252:14283  mined_area.mul(balanceOf(user)) */\n      swap2\n      swap1\n      0xffffffff\n      and\n      jump\t// in\n    tag_162:\n        /* \"minerpunk/ERC20/MinePower.sol\":14252:14287  mined_area.mul(balanceOf(user)).div */\n      tag_97\n      swap1\n        /* \"minerpunk/ERC20/MinePower.sol\":14252:14301  mined_area.mul(balanceOf(user)).div(_totalSupply) */\n      swap2\n      swap1\n      0xffffffff\n      and\n      jump\t// in\n    tag_161:\n        /* \"minerpunk/ERC20/MinePower.sol\":14234:14301  uint dcf_amount = mined_area.mul(balanceOf(user)).div(_totalSupply) */\n      swap1\n      pop\n        /* \"minerpunk/ERC20/MinePower.sol\":14318:14352  _mineInfo[user][3].add(dcf_amount) */\n      tag_164\n        /* \"minerpunk/ERC20/MinePower.sol\":14341:14351  dcf_amount */\n      dup2\n        /* \"minerpunk/ERC20/MinePower.sol\":14318:14327  _mineInfo */\n      0x07\n        /* \"minerpunk/ERC20/MinePower.sol\":14318:14333  _mineInfo[user] */\n      0x00\n        /* \"minerpunk/ERC20/MinePower.sol\":14328:14332  user */\n      dup11\n        /* \"minerpunk/ERC20/MinePower.sol\":14318:14333  _mineInfo[user] */\n      0xffffffffffffffffffffffffffffffffffffffff\n      and\n      0xffffffffffffffffffffffffffffffffffffffff\n      and\n      dup2\n      mstore\n      0x20\n      add\n      swap1\n      dup2\n      mstore\n      0x20\n      add\n      0x00\n      keccak256\n        /* \"minerpunk/ERC20/MinePower.sol\":14318:14336  _mineInfo[user][3] */\n      0x00\n        /* \"minerpunk/ERC20/MinePower.sol\":14334:14335  3 */\n      0x03\n        /* \"minerpunk/ERC20/MinePower.sol\":14318:14336  _mineInfo[user][3] */\n      dup2\n      mstore\n      0x20\n      add\n      swap1\n      dup2\n      mstore\n      0x20\n      add\n      0x00\n      keccak256\n      sload\n        /* \"minerpunk/ERC20/MinePower.sol\":14318:14340  _mineInfo[user][3].add */\n      tag_95\n      swap1\n        /* \"minerpunk/ERC20/MinePower.sol\":14318:14352  _mineInfo[user][3].add(dcf_amount) */\n      swap2\n      swap1\n      0xffffffff\n      and\n      jump\t// in\n    tag_164:\n        /* \"minerpunk/ERC20/MinePower.sol\":14311:14352  return _mineInfo[user][3].add(dcf_amount) */\n      swap6\n      pop\n      pop\n      pop\n      pop\n      pop\n      pop\n        /* \"minerpunk/ERC20/MinePower.sol\":13841:14366  function MineStatus(address user)public view  returns(uint256){... */\n      swap2\n      swap1\n      pop\n      jump\t// out\n        /* \"minerpunk/ERC20/MinePower.sol\":14835:15094  function difficult(uint _BlockNumber)public view  returns (uint256){... */\n    tag_83:\n        /* \"minerpunk/ERC20/MinePower.sol\":14894:14901  uint256 */\n      0x00\n        /* \"minerpunk/ERC20/MinePower.sol\":14912:14931  uint BlockDifficult */\n      dup1\n        /* \"minerpunk/ERC20/MinePower.sol\":14932:14977  _BlockNumber.mul(1e18).div(_startBlockNumber) */\n      tag_166\n        /* \"minerpunk/ERC20/MinePower.sol\":14959:14976  _startBlockNumber */\n      sload(0x04)\n        /* \"minerpunk/ERC20/MinePower.sol\":14932:14954  _BlockNumber.mul(1e18) */\n      tag_167\n        /* \"minerpunk/ERC20/MinePower.sol\":14949:14953  1e18 */\n      0x0de0b6b3a7640000\n        /* \"minerpunk/ERC20/MinePower.sol\":14932:14944  _BlockNumber */\n      dup7\n        /* \"minerpunk/ERC20/MinePower.sol\":14932:14948  _BlockNumber.mul */\n      tag_96\n      swap1\n        /* \"minerpunk/ERC20/MinePower.sol\":14932:14954  _BlockNumber.mul(1e18) */\n      swap2\n      swap1\n      0xffffffff\n      and\n      jump\t// in\n    tag_167:\n        /* \"minerpunk/ERC20/MinePower.sol\":14932:14958  _BlockNumber.mul(1e18).div */\n      tag_97\n      swap1\n        /* \"minerpunk/ERC20/MinePower.sol\":14932:14977  _BlockNumber.mul(1e18).div(_startBlockNumber) */\n      swap2\n      swap1\n      0xffffffff\n      and\n      jump\t// in\n    tag_166:\n        /* \"minerpunk/ERC20/MinePower.sol\":14912:14977  uint BlockDifficult=_BlockNumber.mul(1e18).div(_startBlockNumber) */\n      swap1\n      pop\n        /* \"minerpunk/ERC20/MinePower.sol\":15002:15056  BlockDifficult.mul(BlockDifficult).mul(BlockDifficult) */\n      tag_168\n        /* \"minerpunk/ERC20/MinePower.sol\":15041:15055  BlockDifficult */\n      dup2\n        /* \"minerpunk/ERC20/MinePower.sol\":15002:15036  BlockDifficult.mul(BlockDifficult) */\n      tag_169\n        /* \"minerpunk/ERC20/MinePower.sol\":15021:15035  BlockDifficult */\n      dup4\n        /* \"minerpunk/ERC20/MinePower.sol\":15002:15016  BlockDifficult */\n      dup5\n        /* \"minerpunk/ERC20/MinePower.sol\":15002:15020  BlockDifficult.mul */\n      tag_96\n      swap1\n        /* \"minerpunk/ERC20/MinePower.sol\":15002:15036  BlockDifficult.mul(BlockDifficult) */\n      swap2\n      swap1\n      0xffffffff\n      and\n      jump\t// in\n    tag_169:\n        /* \"minerpunk/ERC20/MinePower.sol\":15002:15040  BlockDifficult.mul(BlockDifficult).mul */\n      tag_96\n      swap1\n        /* \"minerpunk/ERC20/MinePower.sol\":15002:15056  BlockDifficult.mul(BlockDifficult).mul(BlockDifficult) */\n      swap2\n      swap1\n      0xffffffff\n      and\n      jump\t// in\n    tag_168:\n        /* \"minerpunk/ERC20/MinePower.sol\":14987:15056  BlockDifficult=BlockDifficult.mul(BlockDifficult).mul(BlockDifficult) */\n      swap1\n      pop\n        /* \"minerpunk/ERC20/MinePower.sol\":15073:15087  BlockDifficult */\n      dup1\n        /* \"minerpunk/ERC20/MinePower.sol\":15066:15087  return BlockDifficult */\n      swap2\n      pop\n      pop\n        /* \"minerpunk/ERC20/MinePower.sol\":14835:15094  function difficult(uint _BlockNumber)public view  returns (uint256){... */\n      swap2\n      swap1\n      pop\n      jump\t// out\n        /* \"minerpunk/ERC20/MinePower.sol\":16987:17136  function allowance(address owner, address spender) public view virtual override returns (uint256) {... */\n    tag_88:\n        /* \"minerpunk/ERC20/MinePower.sol\":17076:17083  uint256 */\n      0x00\n        /* \"minerpunk/ERC20/MinePower.sol\":17102:17113  _allowances */\n      0x01\n        /* \"minerpunk/ERC20/MinePower.sol\":17102:17120  _allowances[owner] */\n      0x00\n        /* \"minerpunk/ERC20/MinePower.sol\":17114:17119  owner */\n      dup5\n        /* \"minerpunk/ERC20/MinePower.sol\":17102:17120  _allowances[owner] */\n      0xffffffffffffffffffffffffffffffffffffffff\n      and\n      0xffffffffffffffffffffffffffffffffffffffff\n      and\n      dup2\n      mstore\n      0x20\n      add\n      swap1\n      dup2\n      mstore\n      0x20\n      add\n      0x00\n      keccak256\n        /* \"minerpunk/ERC20/MinePower.sol\":17102:17129  _allowances[owner][spender] */\n      0x00\n        /* \"minerpunk/ERC20/MinePower.sol\":17121:17128  spender */\n      dup4\n        /* \"minerpunk/ERC20/MinePower.sol\":17102:17129  _allowances[owner][spender] */\n      0xffffffffffffffffffffffffffffffffffffffff\n      and\n      0xffffffffffffffffffffffffffffffffffffffff\n      and\n      dup2\n      mstore\n      0x20\n      add\n      swap1\n      dup2\n      mstore\n      0x20\n      add\n      0x00\n      keccak256\n      sload\n        /* \"minerpunk/ERC20/MinePower.sol\":17095:17129  return _allowances[owner][spender] */\n      swap1\n      pop\n        /* \"minerpunk/ERC20/MinePower.sol\":16987:17136  function allowance(address owner, address spender) public view virtual override returns (uint256) {... */\n      swap3\n      swap2\n      pop\n      pop\n      jump\t// out\n        /* \"minerpunk/ERC20/MinePower.sol\":13662:13829  function mineInfo(address user, uint256 number) public view  returns (uint256) {       ... */\n    tag_92:\n        /* \"minerpunk/ERC20/MinePower.sol\":13732:13739  uint256 */\n      0x00\n        /* \"minerpunk/ERC20/MinePower.sol\":13789:13798  _mineInfo */\n      0x07\n        /* \"minerpunk/ERC20/MinePower.sol\":13789:13804  _mineInfo[user] */\n      0x00\n        /* \"minerpunk/ERC20/MinePower.sol\":13799:13803  user */\n      dup5\n        /* \"minerpunk/ERC20/MinePower.sol\":13789:13804  _mineInfo[user] */\n      0xffffffffffffffffffffffffffffffffffffffff\n      and\n      0xffffffffffffffffffffffffffffffffffffffff\n      and\n      dup2\n      mstore\n      0x20\n      add\n      swap1\n      dup2\n      mstore\n      0x20\n      add\n      0x00\n      keccak256\n        /* \"minerpunk/ERC20/MinePower.sol\":13789:13812  _mineInfo[user][number] */\n      0x00\n        /* \"minerpunk/ERC20/MinePower.sol\":13805:13811  number */\n      dup4\n        /* \"minerpunk/ERC20/MinePower.sol\":13789:13812  _mineInfo[user][number] */\n      dup2\n      mstore\n      0x20\n      add\n      swap1\n      dup2\n      mstore\n      0x20\n      add\n      0x00\n      keccak256\n      sload\n        /* \"minerpunk/ERC20/MinePower.sol\":13782:13812  return _mineInfo[user][number] */\n      swap1\n      pop\n        /* \"minerpunk/ERC20/MinePower.sol\":13662:13829  function mineInfo(address user, uint256 number) public view  returns (uint256) {       ... */\n      swap3\n      swap2\n      pop\n      pop\n      jump\t// out\n        /* \"minerpunk/ERC20/MinePower.sol\":3181:3277  function sub(uint256 a, uint256 b) internal pure returns (uint256) {... */\n    tag_94:\n        /* \"minerpunk/ERC20/MinePower.sol\":3239:3246  uint256 */\n      0x00\n        /* \"minerpunk/ERC20/MinePower.sol\":3269:3270  b */\n      dup2\n        /* \"minerpunk/ERC20/MinePower.sol\":3265:3266  a */\n      dup4\n        /* \"minerpunk/ERC20/MinePower.sol\":3265:3270  a - b */\n      tag_173\n      swap2\n      swap1\n      tag_174\n      jump\t// in\n    tag_173:\n        /* \"minerpunk/ERC20/MinePower.sol\":3258:3270  return a - b */\n      swap1\n      pop\n        /* \"minerpunk/ERC20/MinePower.sol\":3181:3277  function sub(uint256 a, uint256 b) internal pure returns (uint256) {... */\n      swap3\n      swap2\n      pop\n      pop\n      jump\t// out\n        /* \"minerpunk/ERC20/MinePower.sol\":2814:2910  function add(uint256 a, uint256 b) internal pure returns (uint256) {... */\n    tag_95:\n        /* \"minerpunk/ERC20/MinePower.sol\":2872:2879  uint256 */\n      0x00\n        /* \"minerpunk/ERC20/MinePower.sol\":2902:2903  b */\n      dup2\n        /* \"minerpunk/ERC20/MinePower.sol\":2898:2899  a */\n      dup4\n        /* \"minerpunk/ERC20/MinePower.sol\":2898:2903  a + b */\n      tag_176\n      swap2\n      swap1\n      tag_123\n      jump\t// in\n    tag_176:\n        /* \"minerpunk/ERC20/MinePower.sol\":2891:2903  return a + b */\n      swap1\n      pop\n        /* \"minerpunk/ERC20/MinePower.sol\":2814:2910  function add(uint256 a, uint256 b) internal pure returns (uint256) {... */\n      swap3\n      swap2\n      pop\n      pop\n      jump\t// out\n        /* \"minerpunk/ERC20/MinePower.sol\":3524:3620  function mul(uint256 a, uint256 b) internal pure returns (uint256) {... */\n    tag_96:\n        /* \"minerpunk/ERC20/MinePower.sol\":3582:3589  uint256 */\n      0x00\n        /* \"minerpunk/ERC20/MinePower.sol\":3612:3613  b */\n      dup2\n        /* \"minerpunk/ERC20/MinePower.sol\":3608:3609  a */\n      dup4\n        /* \"minerpunk/ERC20/MinePower.sol\":3608:3613  a * b */\n      tag_178\n      swap2\n      swap1\n      tag_179\n      jump\t// in\n    tag_178:\n        /* \"minerpunk/ERC20/MinePower.sol\":3601:3613  return a * b */\n      swap1\n      pop\n        /* \"minerpunk/ERC20/MinePower.sol\":3524:3620  function mul(uint256 a, uint256 b) internal pure returns (uint256) {... */\n      swap3\n      swap2\n      pop\n      pop\n      jump\t// out\n        /* \"minerpunk/ERC20/MinePower.sol\":3909:4005  function div(uint256 a, uint256 b) internal pure returns (uint256) {... */\n    tag_97:\n        /* \"minerpunk/ERC20/MinePower.sol\":3967:3974  uint256 */\n      0x00\n        /* \"minerpunk/ERC20/MinePower.sol\":3997:3998  b */\n      dup2\n        /* \"minerpunk/ERC20/MinePower.sol\":3993:3994  a */\n      dup4\n        /* \"minerpunk/ERC20/MinePower.sol\":3993:3998  a / b */\n      tag_181\n      swap2\n      swap1\n      tag_182\n      jump\t// in\n    tag_181:\n        /* \"minerpunk/ERC20/MinePower.sol\":3986:3998  return a / b */\n      swap1\n      pop\n        /* \"minerpunk/ERC20/MinePower.sol\":3909:4005  function div(uint256 a, uint256 b) internal pure returns (uint256) {... */\n      swap3\n      swap2\n      pop\n      pop\n      jump\t// out\n        /* \"minerpunk/ERC20/MinePower.sol\":7545:7641  function _msgSender() internal view virtual returns (address) {... */\n    tag_107:\n        /* \"minerpunk/ERC20/MinePower.sol\":7598:7605  address */\n      0x00\n        /* \"minerpunk/ERC20/MinePower.sol\":7624:7634  msg.sender */\n      caller\n        /* \"minerpunk/ERC20/MinePower.sol\":7617:7634  return msg.sender */\n      swap1\n      pop\n        /* \"minerpunk/ERC20/MinePower.sol\":7545:7641  function _msgSender() internal view virtual returns (address) {... */\n      swap1\n      jump\t// out\n        /* \"minerpunk/ERC20/MinePower.sol\":23565:23935  function _approve(... */\n    tag_109:\n        /* \"minerpunk/ERC20/MinePower.sol\":23713:23714  0 */\n      0x00\n        /* \"minerpunk/ERC20/MinePower.sol\":23696:23715  owner != address(0) */\n      0xffffffffffffffffffffffffffffffffffffffff\n      and\n        /* \"minerpunk/ERC20/MinePower.sol\":23696:23701  owner */\n      dup4\n        /* \"minerpunk/ERC20/MinePower.sol\":23696:23715  owner != address(0) */\n      0xffffffffffffffffffffffffffffffffffffffff\n      and\n      sub\n        /* \"minerpunk/ERC20/MinePower.sol\":23688:23756  require(owner != address(0), \"ERC20: approve from the zero address\") */\n      tag_185\n      jumpi\n      mload(0x40)\n      0x08c379a000000000000000000000000000000000000000000000000000000000\n      dup2\n      mstore\n      0x04\n      add\n      tag_186\n      swap1\n      tag_187\n      jump\t// in\n    tag_186:\n      mload(0x40)\n      dup1\n      swap2\n      sub\n      swap1\n      revert\n    tag_185:\n        /* \"minerpunk/ERC20/MinePower.sol\":23793:23794  0 */\n      0x00\n        /* \"minerpunk/ERC20/MinePower.sol\":23774:23795  spender != address(0) */\n      0xffffffffffffffffffffffffffffffffffffffff\n      and\n        /* \"minerpunk/ERC20/MinePower.sol\":23774:23781  spender */\n      dup3\n        /* \"minerpunk/ERC20/MinePower.sol\":23774:23795  spender != address(0) */\n      0xffffffffffffffffffffffffffffffffffffffff\n      and\n      sub\n        /* \"minerpunk/ERC20/MinePower.sol\":23766:23834  require(spender != address(0), \"ERC20: approve to the zero address\") */\n      tag_188\n      jumpi\n      mload(0x40)\n      0x08c379a000000000000000000000000000000000000000000000000000000000\n      dup2\n      mstore\n      0x04\n      add\n      tag_189\n      swap1\n      tag_190\n      jump\t// in\n    tag_189:\n      mload(0x40)\n      dup1\n      swap2\n      sub\n      swap1\n      revert\n    tag_188:\n        /* \"minerpunk/ERC20/MinePower.sol\":23875:23881  amount */\n      dup1\n        /* \"minerpunk/ERC20/MinePower.sol\":23845:23856  _allowances */\n      0x01\n        /* \"minerpunk/ERC20/MinePower.sol\":23845:23863  _allowances[owner] */\n      0x00\n        /* \"minerpunk/ERC20/MinePower.sol\":23857:23862  owner */\n      dup6\n        /* \"minerpunk/ERC20/MinePower.sol\":23845:23863  _allowances[owner] */\n      0xffffffffffffffffffffffffffffffffffffffff\n      and\n      0xffffffffffffffffffffffffffffffffffffffff\n      and\n      dup2\n      mstore\n      0x20\n      add\n      swap1\n      dup2\n      mstore\n      0x20\n      add\n      0x00\n      keccak256\n        /* \"minerpunk/ERC20/MinePower.sol\":23845:23872  _allowances[owner][spender] */\n      0x00\n        /* \"minerpunk/ERC20/MinePower.sol\":23864:23871  spender */\n      dup5\n        /* \"minerpunk/ERC20/MinePower.sol\":23845:23872  _allowances[owner][spender] */\n      0xffffffffffffffffffffffffffffffffffffffff\n      and\n      0xffffffffffffffffffffffffffffffffffffffff\n      and\n      dup2\n      mstore\n      0x20\n      add\n      swap1\n      dup2\n      mstore\n      0x20\n      add\n      0x00\n      keccak256\n        /* \"minerpunk/ERC20/MinePower.sol\":23845:23881  _allowances[owner][spender] = amount */\n      dup2\n      swap1\n      sstore\n      pop\n        /* \"minerpunk/ERC20/MinePower.sol\":23912:23919  spender */\n      dup2\n        /* \"minerpunk/ERC20/MinePower.sol\":23896:23928  Approval(owner, spender, amount) */\n      0xffffffffffffffffffffffffffffffffffffffff\n      and\n        /* \"minerpunk/ERC20/MinePower.sol\":23905:23910  owner */\n      dup4\n        /* \"minerpunk/ERC20/MinePower.sol\":23896:23928  Approval(owner, spender, amount) */\n      0xffffffffffffffffffffffffffffffffffffffff\n      and\n      0x8c5be1e5ebec7d5bd14f71427d1e84f3dd0314c0f7b2291e5b200ac8c7c3b925\n        /* \"minerpunk/ERC20/MinePower.sol\":23921:23927  amount */\n      dup4\n        /* \"minerpunk/ERC20/MinePower.sol\":23896:23928  Approval(owner, spender, amount) */\n      mload(0x40)\n      tag_191\n      swap2\n      swap1\n      tag_36\n      jump\t// in\n    tag_191:\n      mload(0x40)\n      dup1\n      swap2\n      sub\n      swap1\n      log3\n        /* \"minerpunk/ERC20/MinePower.sol\":23565:23935  function _approve(... */\n      pop\n      pop\n      pop\n      jump\t// out\n        /* \"minerpunk/ERC20/MinePower.sol\":24216:24657  function _spendAllowance(... */\n    tag_114:\n        /* \"minerpunk/ERC20/MinePower.sol\":24346:24370  uint256 currentAllowance */\n      0x00\n        /* \"minerpunk/ERC20/MinePower.sol\":24373:24398  allowance(owner, spender) */\n      tag_193\n        /* \"minerpunk/ERC20/MinePower.sol\":24383:24388  owner */\n      dup5\n        /* \"minerpunk/ERC20/MinePower.sol\":24390:24397  spender */\n      dup5\n        /* \"minerpunk/ERC20/MinePower.sol\":24373:24382  allowance */\n      tag_88\n        /* \"minerpunk/ERC20/MinePower.sol\":24373:24398  allowance(owner, spender) */\n      jump\t// in\n    tag_193:\n        /* \"minerpunk/ERC20/MinePower.sol\":24346:24398  uint256 currentAllowance = allowance(owner, spender) */\n      swap1\n      pop\n        /* \"minerpunk/ERC20/MinePower.sol\":24432:24449  type(uint256).max */\n      0xffffffffffffffffffffffffffffffffffffffffffffffffffffffffffffffff\n        /* \"minerpunk/ERC20/MinePower.sol\":24412:24428  currentAllowance */\n      dup2\n        /* \"minerpunk/ERC20/MinePower.sol\":24412:24449  currentAllowance != type(uint256).max */\n      eq\n        /* \"minerpunk/ERC20/MinePower.sol\":24408:24651  if (currentAllowance != type(uint256).max) {... */\n      tag_194\n      jumpi\n        /* \"minerpunk/ERC20/MinePower.sol\":24493:24499  amount */\n      dup2\n        /* \"minerpunk/ERC20/MinePower.sol\":24473:24489  currentAllowance */\n      dup2\n        /* \"minerpunk/ERC20/MinePower.sol\":24473:24499  currentAllowance >= amount */\n      lt\n      iszero\n        /* \"minerpunk/ERC20/MinePower.sol\":24465:24533  require(currentAllowance >= amount, \"ERC20: insufficient allowance\") */\n      tag_195\n      jumpi\n      mload(0x40)\n      0x08c379a000000000000000000000000000000000000000000000000000000000\n      dup2\n      mstore\n      0x04\n      add\n      tag_196\n      swap1\n      tag_197\n      jump\t// in\n    tag_196:\n      mload(0x40)\n      dup1\n      swap2\n      sub\n      swap1\n      revert\n    tag_195:\n        /* \"minerpunk/ERC20/MinePower.sol\":24575:24626  _approve(owner, spender, currentAllowance - amount) */\n      tag_198\n        /* \"minerpunk/ERC20/MinePower.sol\":24584:24589  owner */\n      dup5\n        /* \"minerpunk/ERC20/MinePower.sol\":24591:24598  spender */\n      dup5\n        /* \"minerpunk/ERC20/MinePower.sol\":24619:24625  amount */\n      dup5\n        /* \"minerpunk/ERC20/MinePower.sol\":24600:24616  currentAllowance */\n      dup5\n        /* \"minerpunk/ERC20/MinePower.sol\":24600:24625  currentAllowance - amount */\n      sub\n        /* \"minerpunk/ERC20/MinePower.sol\":24575:24583  _approve */\n      tag_109\n        /* \"minerpunk/ERC20/MinePower.sol\":24575:24626  _approve(owner, spender, currentAllowance - amount) */\n      jump\t// in\n    tag_198:\n        /* \"minerpunk/ERC20/MinePower.sol\":24408:24651  if (currentAllowance != type(uint256).max) {... */\n    tag_194:\n        /* \"minerpunk/ERC20/MinePower.sol\":24336:24657  {... */\n      pop\n        /* \"minerpunk/ERC20/MinePower.sol\":24216:24657  function _spendAllowance(... */\n      pop\n      pop\n      pop\n      jump\t// out\n        /* \"minerpunk/ERC20/MinePower.sol\":20486:21314  function _transfer(... */\n    tag_116:\n        /* \"minerpunk/ERC20/MinePower.sol\":20628:20629  0 */\n      0x00\n        /* \"minerpunk/ERC20/MinePower.sol\":20612:20630  from != address(0) */\n      0xffffffffffffffffffffffffffffffffffffffff\n      and\n        /* \"minerpunk/ERC20/MinePower.sol\":20612:20616  from */\n      dup4\n        /* \"minerpunk/ERC20/MinePower.sol\":20612:20630  from != address(0) */\n      0xffffffffffffffffffffffffffffffffffffffff\n      and\n      sub\n        /* \"minerpunk/ERC20/MinePower.sol\":20604:20672  require(from != address(0), \"ERC20: transfer from the zero address\") */\n      tag_200\n      jumpi\n      mload(0x40)\n      0x08c379a000000000000000000000000000000000000000000000000000000000\n      dup2\n      mstore\n      0x04\n      add\n      tag_201\n      swap1\n      tag_202\n      jump\t// in\n    tag_201:\n      mload(0x40)\n      dup1\n      swap2\n      sub\n      swap1\n      revert\n    tag_200:\n        /* \"minerpunk/ERC20/MinePower.sol\":20704:20705  0 */\n      0x00\n        /* \"minerpunk/ERC20/MinePower.sol\":20690:20706  to != address(0) */\n      0xffffffffffffffffffffffffffffffffffffffff\n      and\n        /* \"minerpunk/ERC20/MinePower.sol\":20690:20692  to */\n      dup3\n        /* \"minerpunk/ERC20/MinePower.sol\":20690:20706  to != address(0) */\n      0xffffffffffffffffffffffffffffffffffffffff\n      and\n      sub\n        /* \"minerpunk/ERC20/MinePower.sol\":20682:20746  require(to != address(0), \"ERC20: transfer to the zero address\") */\n      tag_203\n      jumpi\n      mload(0x40)\n      0x08c379a000000000000000000000000000000000000000000000000000000000\n      dup2\n      mstore\n      0x04\n      add\n      tag_204\n      swap1\n      tag_205\n      jump\t// in\n    tag_204:\n      mload(0x40)\n      dup1\n      swap2\n      sub\n      swap1\n      revert\n    tag_203:\n        /* \"minerpunk/ERC20/MinePower.sol\":20776:20792  MineStatus(from) */\n      tag_206\n        /* \"minerpunk/ERC20/MinePower.sol\":20787:20791  from */\n      dup4\n        /* \"minerpunk/ERC20/MinePower.sol\":20776:20786  MineStatus */\n      tag_79\n        /* \"minerpunk/ERC20/MinePower.sol\":20776:20792  MineStatus(from) */\n      jump\t// in\n    tag_206:\n        /* \"minerpunk/ERC20/MinePower.sol\":20757:20766  _mineInfo */\n      0x07\n        /* \"minerpunk/ERC20/MinePower.sol\":20757:20772  _mineInfo[from] */\n      0x00\n        /* \"minerpunk/ERC20/MinePower.sol\":20767:20771  from */\n      dup6\n        /* \"minerpunk/ERC20/MinePower.sol\":20757:20772  _mineInfo[from] */\n      0xffffffffffffffffffffffffffffffffffffffff\n      and\n      0xffffffffffffffffffffffffffffffffffffffff\n      and\n      dup2\n      mstore\n      0x20\n      add\n      swap1\n      dup2\n      mstore\n      0x20\n      add\n      0x00\n      keccak256\n        /* \"minerpunk/ERC20/MinePower.sol\":20757:20775  _mineInfo[from][3] */\n      0x00\n        /* \"minerpunk/ERC20/MinePower.sol\":20773:20774  3 */\n      0x03\n        /* \"minerpunk/ERC20/MinePower.sol\":20757:20775  _mineInfo[from][3] */\n      dup2\n      mstore\n      0x20\n      add\n      swap1\n      dup2\n      mstore\n      0x20\n      add\n      0x00\n      keccak256\n        /* \"minerpunk/ERC20/MinePower.sol\":20757:20792  _mineInfo[from][3]=MineStatus(from) */\n      dup2\n      swap1\n      sstore\n      pop\n        /* \"minerpunk/ERC20/MinePower.sol\":20819:20833  MineStatus(to) */\n      tag_207\n        /* \"minerpunk/ERC20/MinePower.sol\":20830:20832  to */\n      dup3\n        /* \"minerpunk/ERC20/MinePower.sol\":20819:20829  MineStatus */\n      tag_79\n        /* \"minerpunk/ERC20/MinePower.sol\":20819:20833  MineStatus(to) */\n      jump\t// in\n    tag_207:\n        /* \"minerpunk/ERC20/MinePower.sol\":20802:20811  _mineInfo */\n      0x07\n        /* \"minerpunk/ERC20/MinePower.sol\":20802:20815  _mineInfo[to] */\n      0x00\n        /* \"minerpunk/ERC20/MinePower.sol\":20812:20814  to */\n      dup5\n        /* \"minerpunk/ERC20/MinePower.sol\":20802:20815  _mineInfo[to] */\n      0xffffffffffffffffffffffffffffffffffffffff\n      and\n      0xffffffffffffffffffffffffffffffffffffffff\n      and\n      dup2\n      mstore\n      0x20\n      add\n      swap1\n      dup2\n      mstore\n      0x20\n      add\n      0x00\n      keccak256\n        /* \"minerpunk/ERC20/MinePower.sol\":20802:20818  _mineInfo[to][3] */\n      0x00\n        /* \"minerpunk/ERC20/MinePower.sol\":20816:20817  3 */\n      0x03\n        /* \"minerpunk/ERC20/MinePower.sol\":20802:20818  _mineInfo[to][3] */\n      dup2\n      mstore\n      0x20\n      add\n      swap1\n      dup2\n      mstore\n      0x20\n      add\n      0x00\n      keccak256\n        /* \"minerpunk/ERC20/MinePower.sol\":20802:20833  _mineInfo[to][3]=MineStatus(to) */\n      dup2\n      swap1\n      sstore\n      pop\n        /* \"minerpunk/ERC20/MinePower.sol\":20845:20883  _beforeTokenTransfer(from, to, amount) */\n      tag_208\n        /* \"minerpunk/ERC20/MinePower.sol\":20866:20870  from */\n      dup4\n        /* \"minerpunk/ERC20/MinePower.sol\":20872:20874  to */\n      dup4\n        /* \"minerpunk/ERC20/MinePower.sol\":20876:20882  amount */\n      dup4\n        /* \"minerpunk/ERC20/MinePower.sol\":20845:20865  _beforeTokenTransfer */\n      tag_209\n        /* \"minerpunk/ERC20/MinePower.sol\":20845:20883  _beforeTokenTransfer(from, to, amount) */\n      jump\t// in\n    tag_208:\n        /* \"minerpunk/ERC20/MinePower.sol\":20894:20913  uint256 fromBalance */\n      0x00\n        /* \"minerpunk/ERC20/MinePower.sol\":20916:20925  _balances */\n      dup1\n        /* \"minerpunk/ERC20/MinePower.sol\":20916:20931  _balances[from] */\n      0x00\n        /* \"minerpunk/ERC20/MinePower.sol\":20926:20930  from */\n      dup6\n        /* \"minerpunk/ERC20/MinePower.sol\":20916:20931  _balances[from] */\n      0xffffffffffffffffffffffffffffffffffffffff\n      and\n      0xffffffffffffffffffffffffffffffffffffffff\n      and\n      dup2\n      mstore\n      0x20\n      add\n      swap1\n      dup2\n      mstore\n      0x20\n      add\n      0x00\n      keccak256\n      sload\n        /* \"minerpunk/ERC20/MinePower.sol\":20894:20931  uint256 fromBalance = _balances[from] */\n      swap1\n      pop\n        /* \"minerpunk/ERC20/MinePower.sol\":20964:20970  amount */\n      dup2\n        /* \"minerpunk/ERC20/MinePower.sol\":20949:20960  fromBalance */\n      dup2\n        /* \"minerpunk/ERC20/MinePower.sol\":20949:20970  fromBalance >= amount */\n      lt\n      iszero\n        /* \"minerpunk/ERC20/MinePower.sol\":20941:21013  require(fromBalance >= amount, \"ERC20: transfer amount exceeds balance\") */\n      tag_210\n      jumpi\n      mload(0x40)\n      0x08c379a000000000000000000000000000000000000000000000000000000000\n      dup2\n      mstore\n      0x04\n      add\n      tag_211\n      swap1\n      tag_212\n      jump\t// in\n    tag_211:\n      mload(0x40)\n      dup1\n      swap2\n      sub\n      swap1\n      revert\n    tag_210:\n        /* \"minerpunk/ERC20/MinePower.sol\":21079:21085  amount */\n      dup2\n        /* \"minerpunk/ERC20/MinePower.sol\":21065:21076  fromBalance */\n      dup2\n        /* \"minerpunk/ERC20/MinePower.sol\":21065:21085  fromBalance - amount */\n      sub\n        /* \"minerpunk/ERC20/MinePower.sol\":21047:21056  _balances */\n      0x00\n        /* \"minerpunk/ERC20/MinePower.sol\":21047:21062  _balances[from] */\n      dup1\n        /* \"minerpunk/ERC20/MinePower.sol\":21057:21061  from */\n      dup7\n        /* \"minerpunk/ERC20/MinePower.sol\":21047:21062  _balances[from] */\n      0xffffffffffffffffffffffffffffffffffffffff\n      and\n      0xffffffffffffffffffffffffffffffffffffffff\n      and\n      dup2\n      mstore\n      0x20\n      add\n      swap1\n      dup2\n      mstore\n      0x20\n      add\n      0x00\n      keccak256\n        /* \"minerpunk/ERC20/MinePower.sol\":21047:21085  _balances[from] = fromBalance - amount */\n      dup2\n      swap1\n      sstore\n      pop\n        /* \"minerpunk/ERC20/MinePower.sol\":21122:21128  amount */\n      dup2\n        /* \"minerpunk/ERC20/MinePower.sol\":21105:21114  _balances */\n      0x00\n        /* \"minerpunk/ERC20/MinePower.sol\":21105:21118  _balances[to] */\n      dup1\n        /* \"minerpunk/ERC20/MinePower.sol\":21115:21117  to */\n      dup6\n        /* \"minerpunk/ERC20/MinePower.sol\":21105:21118  _balances[to] */\n      0xffffffffffffffffffffffffffffffffffffffff\n      and\n      0xffffffffffffffffffffffffffffffffffffffff\n      and\n      dup2\n      mstore\n      0x20\n      add\n      swap1\n      dup2\n      mstore\n      0x20\n      add\n      0x00\n      keccak256\n      0x00\n        /* \"minerpunk/ERC20/MinePower.sol\":21105:21128  _balances[to] += amount */\n      dup3\n      dup3\n      sload\n      tag_213\n      swap2\n      swap1\n      tag_123\n      jump\t// in\n    tag_213:\n      swap3\n      pop\n      pop\n      dup2\n      swap1\n      sstore\n      pop\n        /* \"minerpunk/ERC20/MinePower.sol\":21159:21161  to */\n      dup3\n        /* \"minerpunk/ERC20/MinePower.sol\":21144:21170  Transfer(from, to, amount) */\n      0xffffffffffffffffffffffffffffffffffffffff\n      and\n        /* \"minerpunk/ERC20/MinePower.sol\":21153:21157  from */\n      dup5\n        /* \"minerpunk/ERC20/MinePower.sol\":21144:21170  Transfer(from, to, amount) */\n      0xffffffffffffffffffffffffffffffffffffffff\n      and\n      0xddf252ad1be2c89b69c2b068fc378daa952ba7f163c4a11628f55a4df523b3ef\n        /* \"minerpunk/ERC20/MinePower.sol\":21163:21169  amount */\n      dup5\n        /* \"minerpunk/ERC20/MinePower.sol\":21144:21170  Transfer(from, to, amount) */\n      mload(0x40)\n      tag_214\n      swap2\n      swap1\n      tag_36\n      jump\t// in\n    tag_214:\n      mload(0x40)\n      dup1\n      swap2\n      sub\n      swap1\n      log3\n        /* \"minerpunk/ERC20/MinePower.sol\":21181:21218  _afterTokenTransfer(from, to, amount) */\n      tag_215\n        /* \"minerpunk/ERC20/MinePower.sol\":21201:21205  from */\n      dup5\n        /* \"minerpunk/ERC20/MinePower.sol\":21207:21209  to */\n      dup5\n        /* \"minerpunk/ERC20/MinePower.sol\":21211:21217  amount */\n      dup5\n        /* \"minerpunk/ERC20/MinePower.sol\":21181:21200  _afterTokenTransfer */\n      tag_216\n        /* \"minerpunk/ERC20/MinePower.sol\":21181:21218  _afterTokenTransfer(from, to, amount) */\n      jump\t// in\n    tag_215:\n        /* \"minerpunk/ERC20/MinePower.sol\":21256:21268  block.number */\n      number\n        /* \"minerpunk/ERC20/MinePower.sol\":21237:21246  _mineInfo */\n      0x07\n        /* \"minerpunk/ERC20/MinePower.sol\":21237:21252  _mineInfo[from] */\n      0x00\n        /* \"minerpunk/ERC20/MinePower.sol\":21247:21251  from */\n      dup7\n        /* \"minerpunk/ERC20/MinePower.sol\":21237:21252  _mineInfo[from] */\n      0xffffffffffffffffffffffffffffffffffffffff\n      and\n      0xffffffffffffffffffffffffffffffffffffffff\n      and\n      dup2\n      mstore\n      0x20\n      add\n      swap1\n      dup2\n      mstore\n      0x20\n      add\n      0x00\n      keccak256\n        /* \"minerpunk/ERC20/MinePower.sol\":21237:21255  _mineInfo[from][1] */\n      0x00\n        /* \"minerpunk/ERC20/MinePower.sol\":21253:21254  1 */\n      0x01\n        /* \"minerpunk/ERC20/MinePower.sol\":21237:21255  _mineInfo[from][1] */\n      dup2\n      mstore\n      0x20\n      add\n      swap1\n      dup2\n      mstore\n      0x20\n      add\n      0x00\n      keccak256\n        /* \"minerpunk/ERC20/MinePower.sol\":21237:21268  _mineInfo[from][1]=block.number */\n      dup2\n      swap1\n      sstore\n      pop\n        /* \"minerpunk/ERC20/MinePower.sol\":21295:21307  block.number */\n      number\n        /* \"minerpunk/ERC20/MinePower.sol\":21278:21287  _mineInfo */\n      0x07\n        /* \"minerpunk/ERC20/MinePower.sol\":21278:21291  _mineInfo[to] */\n      0x00\n        /* \"minerpunk/ERC20/MinePower.sol\":21288:21290  to */\n      dup6\n        /* \"minerpunk/ERC20/MinePower.sol\":21278:21291  _mineInfo[to] */\n      0xffffffffffffffffffffffffffffffffffffffff\n      and\n      0xffffffffffffffffffffffffffffffffffffffff\n      and\n      dup2\n      mstore\n      0x20\n      add\n      swap1\n      dup2\n      mstore\n      0x20\n      add\n      0x00\n      keccak256\n        /* \"minerpunk/ERC20/MinePower.sol\":21278:21294  _mineInfo[to][1] */\n      0x00\n        /* \"minerpunk/ERC20/MinePower.sol\":21292:21293  1 */\n      0x01\n        /* \"minerpunk/ERC20/MinePower.sol\":21278:21294  _mineInfo[to][1] */\n      dup2\n      mstore\n      0x20\n      add\n      swap1\n      dup2\n      mstore\n      0x20\n      add\n      0x00\n      keccak256\n        /* \"minerpunk/ERC20/MinePower.sol\":21278:21307  _mineInfo[to][1]=block.number */\n      dup2\n      swap1\n      sstore\n      pop\n        /* \"minerpunk/ERC20/MinePower.sol\":20594:21314  {... */\n      pop\n        /* \"minerpunk/ERC20/MinePower.sol\":20486:21314  function _transfer(... */\n      pop\n      pop\n      pop\n      jump\t// out\n        /* \"minerpunk/ERC20/MinePower.sol\":22429:23142  function _burn(address account, uint256 amount) internal virtual {... */\n    tag_127:\n        /* \"minerpunk/ERC20/MinePower.sol\":22531:22532  0 */\n      0x00\n        /* \"minerpunk/ERC20/MinePower.sol\":22512:22533  account != address(0) */\n      0xffffffffffffffffffffffffffffffffffffffff\n      and\n        /* \"minerpunk/ERC20/MinePower.sol\":22512:22519  account */\n      dup3\n        /* \"minerpunk/ERC20/MinePower.sol\":22512:22533  account != address(0) */\n      0xffffffffffffffffffffffffffffffffffffffff\n      and\n      sub\n        /* \"minerpunk/ERC20/MinePower.sol\":22504:22571  require(account != address(0), \"ERC20: burn from the zero address\") */\n      tag_218\n      jumpi\n      mload(0x40)\n      0x08c379a000000000000000000000000000000000000000000000000000000000\n      dup2\n      mstore\n      0x04\n      add\n      tag_219\n      swap1\n      tag_220\n      jump\t// in\n    tag_219:\n      mload(0x40)\n      dup1\n      swap2\n      sub\n      swap1\n      revert\n    tag_218:\n        /* \"minerpunk/ERC20/MinePower.sol\":22604:22623  MineStatus(account) */\n      tag_221\n        /* \"minerpunk/ERC20/MinePower.sol\":22615:22622  account */\n      dup3\n        /* \"minerpunk/ERC20/MinePower.sol\":22604:22614  MineStatus */\n      tag_79\n        /* \"minerpunk/ERC20/MinePower.sol\":22604:22623  MineStatus(account) */\n      jump\t// in\n    tag_221:\n        /* \"minerpunk/ERC20/MinePower.sol\":22581:22590  _mineInfo */\n      0x07\n        /* \"minerpunk/ERC20/MinePower.sol\":22581:22599  _mineInfo[account] */\n      0x00\n        /* \"minerpunk/ERC20/MinePower.sol\":22591:22598  account */\n      dup5\n        /* \"minerpunk/ERC20/MinePower.sol\":22581:22599  _mineInfo[account] */\n      0xffffffffffffffffffffffffffffffffffffffff\n      and\n      0xffffffffffffffffffffffffffffffffffffffff\n      and\n      dup2\n      mstore\n      0x20\n      add\n      swap1\n      dup2\n      mstore\n      0x20\n      add\n      0x00\n      keccak256\n        /* \"minerpunk/ERC20/MinePower.sol\":22581:22602  _mineInfo[account][3] */\n      0x00\n        /* \"minerpunk/ERC20/MinePower.sol\":22600:22601  3 */\n      0x03\n        /* \"minerpunk/ERC20/MinePower.sol\":22581:22602  _mineInfo[account][3] */\n      dup2\n      mstore\n      0x20\n      add\n      swap1\n      dup2\n      mstore\n      0x20\n      add\n      0x00\n      keccak256\n        /* \"minerpunk/ERC20/MinePower.sol\":22581:22623  _mineInfo[account][3]= MineStatus(account) */\n      dup2\n      swap1\n      sstore\n      pop\n        /* \"minerpunk/ERC20/MinePower.sol\":22657:22706  _beforeTokenTransfer(account, address(0), amount) */\n      tag_222\n        /* \"minerpunk/ERC20/MinePower.sol\":22678:22685  account */\n      dup3\n        /* \"minerpunk/ERC20/MinePower.sol\":22695:22696  0 */\n      0x00\n        /* \"minerpunk/ERC20/MinePower.sol\":22699:22705  amount */\n      dup4\n        /* \"minerpunk/ERC20/MinePower.sol\":22657:22677  _beforeTokenTransfer */\n      tag_209\n        /* \"minerpunk/ERC20/MinePower.sol\":22657:22706  _beforeTokenTransfer(account, address(0), amount) */\n      jump\t// in\n    tag_222:\n        /* \"minerpunk/ERC20/MinePower.sol\":22717:22739  uint256 accountBalance */\n      0x00\n        /* \"minerpunk/ERC20/MinePower.sol\":22742:22751  _balances */\n      dup1\n        /* \"minerpunk/ERC20/MinePower.sol\":22742:22760  _balances[account] */\n      0x00\n        /* \"minerpunk/ERC20/MinePower.sol\":22752:22759  account */\n      dup5\n        /* \"minerpunk/ERC20/MinePower.sol\":22742:22760  _balances[account] */\n      0xffffffffffffffffffffffffffffffffffffffff\n      and\n      0xffffffffffffffffffffffffffffffffffffffff\n      and\n      dup2\n      mstore\n      0x20\n      add\n      swap1\n      dup2\n      mstore\n      0x20\n      add\n      0x00\n      keccak256\n      sload\n        /* \"minerpunk/ERC20/MinePower.sol\":22717:22760  uint256 accountBalance = _balances[account] */\n      swap1\n      pop\n        /* \"minerpunk/ERC20/MinePower.sol\":22796:22802  amount */\n      dup2\n        /* \"minerpunk/ERC20/MinePower.sol\":22778:22792  accountBalance */\n      dup2\n        /* \"minerpunk/ERC20/MinePower.sol\":22778:22802  accountBalance >= amount */\n      lt\n      iszero\n        /* \"minerpunk/ERC20/MinePower.sol\":22770:22841  require(accountBalance >= amount, \"ERC20: burn amount exceeds balance\") */\n      tag_223\n      jumpi\n      mload(0x40)\n      0x08c379a000000000000000000000000000000000000000000000000000000000\n      dup2\n      mstore\n      0x04\n      add\n      tag_224\n      swap1\n      tag_225\n      jump\t// in\n    tag_224:\n      mload(0x40)\n      dup1\n      swap2\n      sub\n      swap1\n      revert\n    tag_223:\n        /* \"minerpunk/ERC20/MinePower.sol\":22913:22919  amount */\n      dup2\n        /* \"minerpunk/ERC20/MinePower.sol\":22896:22910  accountBalance */\n      dup2\n        /* \"minerpunk/ERC20/MinePower.sol\":22896:22919  accountBalance - amount */\n      sub\n        /* \"minerpunk/ERC20/MinePower.sol\":22875:22884  _balances */\n      0x00\n        /* \"minerpunk/ERC20/MinePower.sol\":22875:22893  _balances[account] */\n      dup1\n        /* \"minerpunk/ERC20/MinePower.sol\":22885:22892  account */\n      dup6\n        /* \"minerpunk/ERC20/MinePower.sol\":22875:22893  _balances[account] */\n      0xffffffffffffffffffffffffffffffffffffffff\n      and\n      0xffffffffffffffffffffffffffffffffffffffff\n      and\n      dup2\n      mstore\n      0x20\n      add\n      swap1\n      dup2\n      mstore\n      0x20\n      add\n      0x00\n      keccak256\n        /* \"minerpunk/ERC20/MinePower.sol\":22875:22919  _balances[account] = accountBalance - amount */\n      dup2\n      swap1\n      sstore\n      pop\n        /* \"minerpunk/ERC20/MinePower.sol\":22955:22961  amount */\n      dup2\n        /* \"minerpunk/ERC20/MinePower.sol\":22939:22951  _totalSupply */\n      0x02\n      0x00\n        /* \"minerpunk/ERC20/MinePower.sol\":22939:22961  _totalSupply -= amount */\n      dup3\n      dup3\n      sload\n      tag_226\n      swap2\n      swap1\n      tag_174\n      jump\t// in\n    tag_226:\n      swap3\n      pop\n      pop\n      dup2\n      swap1\n      sstore\n      pop\n        /* \"minerpunk/ERC20/MinePower.sol\":23003:23004  0 */\n      0x00\n        /* \"minerpunk/ERC20/MinePower.sol\":22977:23014  Transfer(account, address(0), amount) */\n      0xffffffffffffffffffffffffffffffffffffffff\n      and\n        /* \"minerpunk/ERC20/MinePower.sol\":22986:22993  account */\n      dup4\n        /* \"minerpunk/ERC20/MinePower.sol\":22977:23014  Transfer(account, address(0), amount) */\n      0xffffffffffffffffffffffffffffffffffffffff\n      and\n      0xddf252ad1be2c89b69c2b068fc378daa952ba7f163c4a11628f55a4df523b3ef\n        /* \"minerpunk/ERC20/MinePower.sol\":23007:23013  amount */\n      dup5\n        /* \"minerpunk/ERC20/MinePower.sol\":22977:23014  Transfer(account, address(0), amount) */\n      mload(0x40)\n      tag_227\n      swap2\n      swap1\n      tag_36\n      jump\t// in\n    tag_227:\n      mload(0x40)\n      dup1\n      swap2\n      sub\n      swap1\n      log3\n        /* \"minerpunk/ERC20/MinePower.sol\":23025:23073  _afterTokenTransfer(account, address(0), amount) */\n      tag_228\n        /* \"minerpunk/ERC20/MinePower.sol\":23045:23052  account */\n      dup4\n        /* \"minerpunk/ERC20/MinePower.sol\":23062:23063  0 */\n      0x00\n        /* \"minerpunk/ERC20/MinePower.sol\":23066:23072  amount */\n      dup5\n        /* \"minerpunk/ERC20/MinePower.sol\":23025:23044  _afterTokenTransfer */\n      tag_216\n        /* \"minerpunk/ERC20/MinePower.sol\":23025:23073  _afterTokenTransfer(account, address(0), amount) */\n      jump\t// in\n    tag_228:\n        /* \"minerpunk/ERC20/MinePower.sol\":23107:23119  block.number */\n      number\n        /* \"minerpunk/ERC20/MinePower.sol\":23084:23093  _mineInfo */\n      0x07\n        /* \"minerpunk/ERC20/MinePower.sol\":23084:23102  _mineInfo[account] */\n      0x00\n        /* \"minerpunk/ERC20/MinePower.sol\":23094:23101  account */\n      dup6\n        /* \"minerpunk/ERC20/MinePower.sol\":23084:23102  _mineInfo[account] */\n      0xffffffffffffffffffffffffffffffffffffffff\n      and\n      0xffffffffffffffffffffffffffffffffffffffff\n      and\n      dup2\n      mstore\n      0x20\n      add\n      swap1\n      dup2\n      mstore\n      0x20\n      add\n      0x00\n      keccak256\n        /* \"minerpunk/ERC20/MinePower.sol\":23084:23105  _mineInfo[account][1] */\n      0x00\n        /* \"minerpunk/ERC20/MinePower.sol\":23103:23104  1 */\n      0x01\n        /* \"minerpunk/ERC20/MinePower.sol\":23084:23105  _mineInfo[account][1] */\n      dup2\n      mstore\n      0x20\n      add\n      swap1\n      dup2\n      mstore\n      0x20\n      add\n      0x00\n      keccak256\n        /* \"minerpunk/ERC20/MinePower.sol\":23084:23119  _mineInfo[account][1]= block.number */\n      dup2\n      swap1\n      sstore\n      pop\n        /* \"minerpunk/ERC20/MinePower.sol\":22494:23142  {... */\n      pop\n        /* \"minerpunk/ERC20/MinePower.sol\":22429:23142  function _burn(address account, uint256 amount) internal virtual {... */\n      pop\n      pop\n      jump\t// out\n        /* \"minerpunk/ERC20/MinePower.sol\":25241:25362  function _beforeTokenTransfer(... */\n    tag_209:\n      pop\n      pop\n      pop\n      jump\t// out\n        /* \"minerpunk/ERC20/MinePower.sol\":25950:26070  function _afterTokenTransfer(... */\n    tag_216:\n      pop\n      pop\n      pop\n      jump\t// out\n        /* \"#utility.yul\":7:106   */\n    tag_231:\n        /* \"#utility.yul\":59:65   */\n      0x00\n        /* \"#utility.yul\":93:98   */\n      dup2\n        /* \"#utility.yul\":87:99   */\n      mload\n        /* \"#utility.yul\":77:99   */\n      swap1\n      pop\n        /* \"#utility.yul\":7:106   */\n      swap2\n      swap1\n      pop\n      jump\t// out\n        /* \"#utility.yul\":112:281   */\n    tag_232:\n        /* \"#utility.yul\":196:207   */\n      0x00\n        /* \"#utility.yul\":230:236   */\n      dup3\n        /* \"#utility.yul\":225:228   */\n      dup3\n        /* \"#utility.yul\":218:237   */\n      mstore\n        /* \"#utility.yul\":270:274   */\n      0x20\n        /* \"#utility.yul\":265:268   */\n      dup3\n        /* \"#utility.yul\":261:275   */\n      add\n        /* \"#utility.yul\":246:275   */\n      swap1\n      pop\n        /* \"#utility.yul\":112:281   */\n      swap3\n      swap2\n      pop\n      pop\n      jump\t// out\n        /* \"#utility.yul\":287:533   */\n    tag_233:\n        /* \"#utility.yul\":368:369   */\n      0x00\n        /* \"#utility.yul\":378:491   */\n    tag_276:\n        /* \"#utility.yul\":392:398   */\n      dup4\n        /* \"#utility.yul\":389:390   */\n      dup2\n        /* \"#utility.yul\":386:399   */\n      lt\n        /* \"#utility.yul\":378:491   */\n      iszero\n      tag_278\n      jumpi\n        /* \"#utility.yul\":477:478   */\n      dup1\n        /* \"#utility.yul\":472:475   */\n      dup3\n        /* \"#utility.yul\":468:479   */\n      add\n        /* \"#utility.yul\":462:480   */\n      mload\n        /* \"#utility.yul\":458:459   */\n      dup2\n        /* \"#utility.yul\":453:456   */\n      dup5\n        /* \"#utility.yul\":449:460   */\n      add\n        /* \"#utility.yul\":442:481   */\n      mstore\n        /* \"#utility.yul\":414:416   */\n      0x20\n        /* \"#utility.yul\":411:412   */\n      dup2\n        /* \"#utility.yul\":407:417   */\n      add\n        /* \"#utility.yul\":402:417   */\n      swap1\n      pop\n        /* \"#utility.yul\":378:491   */\n      jump(tag_276)\n    tag_278:\n        /* \"#utility.yul\":525:526   */\n      0x00\n        /* \"#utility.yul\":516:522   */\n      dup5\n        /* \"#utility.yul\":511:514   */\n      dup5\n        /* \"#utility.yul\":507:523   */\n      add\n        /* \"#utility.yul\":500:527   */\n      mstore\n        /* \"#utility.yul\":349:533   */\n      pop\n        /* \"#utility.yul\":287:533   */\n      pop\n      pop\n      pop\n      jump\t// out\n        /* \"#utility.yul\":539:641   */\n    tag_234:\n        /* \"#utility.yul\":580:586   */\n      0x00\n        /* \"#utility.yul\":631:633   */\n      0x1f\n        /* \"#utility.yul\":627:634   */\n      not\n        /* \"#utility.yul\":622:624   */\n      0x1f\n        /* \"#utility.yul\":615:620   */\n      dup4\n        /* \"#utility.yul\":611:625   */\n      add\n        /* \"#utility.yul\":607:635   */\n      and\n        /* \"#utility.yul\":597:635   */\n      swap1\n      pop\n        /* \"#utility.yul\":539:641   */\n      swap2\n      swap1\n      pop\n      jump\t// out\n        /* \"#utility.yul\":647:1024   */\n    tag_235:\n        /* \"#utility.yul\":735:738   */\n      0x00\n        /* \"#utility.yul\":763:802   */\n      tag_281\n        /* \"#utility.yul\":796:801   */\n      dup3\n        /* \"#utility.yul\":763:802   */\n      tag_231\n      jump\t// in\n    tag_281:\n        /* \"#utility.yul\":818:889   */\n      tag_282\n        /* \"#utility.yul\":882:888   */\n      dup2\n        /* \"#utility.yul\":877:880   */\n      dup6\n        /* \"#utility.yul\":818:889   */\n      tag_232\n      jump\t// in\n    tag_282:\n        /* \"#utility.yul\":811:889   */\n      swap4\n      pop\n        /* \"#utility.yul\":898:963   */\n      tag_283\n        /* \"#utility.yul\":956:962   */\n      dup2\n        /* \"#utility.yul\":951:954   */\n      dup6\n        /* \"#utility.yul\":944:948   */\n      0x20\n        /* \"#utility.yul\":937:942   */\n      dup7\n        /* \"#utility.yul\":933:949   */\n      add\n        /* \"#utility.yul\":898:963   */\n      tag_233\n      jump\t// in\n    tag_283:\n        /* \"#utility.yul\":988:1017   */\n      tag_284\n        /* \"#utility.yul\":1010:1016   */\n      dup2\n        /* \"#utility.yul\":988:1017   */\n      tag_234\n      jump\t// in\n    tag_284:\n        /* \"#utility.yul\":983:986   */\n      dup5\n        /* \"#utility.yul\":979:1018   */\n      add\n        /* \"#utility.yul\":972:1018   */\n      swap2\n      pop\n        /* \"#utility.yul\":739:1024   */\n      pop\n        /* \"#utility.yul\":647:1024   */\n      swap3\n      swap2\n      pop\n      pop\n      jump\t// out\n        /* \"#utility.yul\":1030:1343   */\n    tag_26:\n        /* \"#utility.yul\":1143:1147   */\n      0x00\n        /* \"#utility.yul\":1181:1183   */\n      0x20\n        /* \"#utility.yul\":1170:1179   */\n      dup3\n        /* \"#utility.yul\":1166:1184   */\n      add\n        /* \"#utility.yul\":1158:1184   */\n      swap1\n      pop\n        /* \"#utility.yul\":1230:1239   */\n      dup2\n        /* \"#utility.yul\":1224:1228   */\n      dup2\n        /* \"#utility.yul\":1220:1240   */\n      sub\n        /* \"#utility.yul\":1216:1217   */\n      0x00\n        /* \"#utility.yul\":1205:1214   */\n      dup4\n        /* \"#utility.yul\":1201:1218   */\n      add\n        /* \"#utility.yul\":1194:1241   */\n      mstore\n        /* \"#utility.yul\":1258:1336   */\n      tag_286\n        /* \"#utility.yul\":1331:1335   */\n      dup2\n        /* \"#utility.yul\":1322:1328   */\n      dup5\n        /* \"#utility.yul\":1258:1336   */\n      tag_235\n      jump\t// in\n    tag_286:\n        /* \"#utility.yul\":1250:1336   */\n      swap1\n      pop\n        /* \"#utility.yul\":1030:1343   */\n      swap3\n      swap2\n      pop\n      pop\n      jump\t// out\n        /* \"#utility.yul\":1430:1547   */\n    tag_237:\n        /* \"#utility.yul\":1539:1540   */\n      0x00\n        /* \"#utility.yul\":1536:1537   */\n      dup1\n        /* \"#utility.yul\":1529:1541   */\n      revert\n        /* \"#utility.yul\":1676:1802   */\n    tag_239:\n        /* \"#utility.yul\":1713:1720   */\n      0x00\n        /* \"#utility.yul\":1753:1795   */\n      0xffffffffffffffffffffffffffffffffffffffff\n        /* \"#utility.yul\":1746:1751   */\n      dup3\n        /* \"#utility.yul\":1742:1796   */\n      and\n        /* \"#utility.yul\":1731:1796   */\n      swap1\n      pop\n        /* \"#utility.yul\":1676:1802   */\n      swap2\n      swap1\n      pop\n      jump\t// out\n        /* \"#utility.yul\":1808:1904   */\n    tag_240:\n        /* \"#utility.yul\":1845:1852   */\n      0x00\n        /* \"#utility.yul\":1874:1898   */\n      tag_292\n        /* \"#utility.yul\":1892:1897   */\n      dup3\n        /* \"#utility.yul\":1874:1898   */\n      tag_239\n      jump\t// in\n    tag_292:\n        /* \"#utility.yul\":1863:1898   */\n      swap1\n      pop\n        /* \"#utility.yul\":1808:1904   */\n      swap2\n      swap1\n      pop\n      jump\t// out\n        /* \"#utility.yul\":1910:2032   */\n    tag_241:\n        /* \"#utility.yul\":1983:2007   */\n      tag_294\n        /* \"#utility.yul\":2001:2006   */\n      dup2\n        /* \"#utility.yul\":1983:2007   */\n      tag_240\n      jump\t// in\n    tag_294:\n        /* \"#utility.yul\":1976:1981   */\n      dup2\n        /* \"#utility.yul\":1973:2008   */\n      eq\n        /* \"#utility.yul\":1963:2026   */\n      tag_295\n      jumpi\n        /* \"#utility.yul\":2022:2023   */\n      0x00\n        /* \"#utility.yul\":2019:2020   */\n      dup1\n        /* \"#utility.yul\":2012:2024   */\n      revert\n        /* \"#utility.yul\":1963:2026   */\n    tag_295:\n        /* \"#utility.yul\":1910:2032   */\n      pop\n      jump\t// out\n        /* \"#utility.yul\":2038:2177   */\n    tag_242:\n        /* \"#utility.yul\":2084:2089   */\n      0x00\n        /* \"#utility.yul\":2122:2128   */\n      dup2\n        /* \"#utility.yul\":2109:2129   */\n      calldataload\n        /* \"#utility.yul\":2100:2129   */\n      swap1\n      pop\n        /* \"#utility.yul\":2138:2171   */\n      tag_297\n        /* \"#utility.yul\":2165:2170   */\n      dup2\n        /* \"#utility.yul\":2138:2171   */\n      tag_241\n      jump\t// in\n    tag_297:\n        /* \"#utility.yul\":2038:2177   */\n      swap3\n      swap2\n      pop\n      pop\n      jump\t// out\n        /* \"#utility.yul\":2183:2260   */\n    tag_243:\n        /* \"#utility.yul\":2220:2227   */\n      0x00\n        /* \"#utility.yul\":2249:2254   */\n      dup2\n        /* \"#utility.yul\":2238:2254   */\n      swap1\n      pop\n        /* \"#utility.yul\":2183:2260   */\n      swap2\n      swap1\n      pop\n      jump\t// out\n        /* \"#utility.yul\":2266:2388   */\n    tag_244:\n        /* \"#utility.yul\":2339:2363   */\n      tag_300\n        /* \"#utility.yul\":2357:2362   */\n      dup2\n        /* \"#utility.yul\":2339:2363   */\n      tag_243\n      jump\t// in\n    tag_300:\n        /* \"#utility.yul\":2332:2337   */\n      dup2\n        /* \"#utility.yul\":2329:2364   */\n      eq\n        /* \"#utility.yul\":2319:2382   */\n      tag_301\n      jumpi\n        /* \"#utility.yul\":2378:2379   */\n      0x00\n        /* \"#utility.yul\":2375:2376   */\n      dup1\n        /* \"#utility.yul\":2368:2380   */\n      revert\n        /* \"#utility.yul\":2319:2382   */\n    tag_301:\n        /* \"#utility.yul\":2266:2388   */\n      pop\n      jump\t// out\n        /* \"#utility.yul\":2394:2533   */\n    tag_245:\n        /* \"#utility.yul\":2440:2445   */\n      0x00\n        /* \"#utility.yul\":2478:2484   */\n      dup2\n        /* \"#utility.yul\":2465:2485   */\n      calldataload\n        /* \"#utility.yul\":2456:2485   */\n      swap1\n      pop\n        /* \"#utility.yul\":2494:2527   */\n      tag_303\n        /* \"#utility.yul\":2521:2526   */\n      dup2\n        /* \"#utility.yul\":2494:2527   */\n      tag_244\n      jump\t// in\n    tag_303:\n        /* \"#utility.yul\":2394:2533   */\n      swap3\n      swap2\n      pop\n      pop\n      jump\t// out\n        /* \"#utility.yul\":2539:3013   */\n    tag_29:\n        /* \"#utility.yul\":2607:2613   */\n      0x00\n        /* \"#utility.yul\":2615:2621   */\n      dup1\n        /* \"#utility.yul\":2664:2666   */\n      0x40\n        /* \"#utility.yul\":2652:2661   */\n      dup4\n        /* \"#utility.yul\":2643:2650   */\n      dup6\n        /* \"#utility.yul\":2639:2662   */\n      sub\n        /* \"#utility.yul\":2635:2667   */\n      slt\n        /* \"#utility.yul\":2632:2751   */\n      iszero\n      tag_305\n      jumpi\n        /* \"#utility.yul\":2670:2749   */\n      tag_306\n      tag_237\n      jump\t// in\n    tag_306:\n        /* \"#utility.yul\":2632:2751   */\n    tag_305:\n        /* \"#utility.yul\":2790:2791   */\n      0x00\n        /* \"#utility.yul\":2815:2868   */\n      tag_307\n        /* \"#utility.yul\":2860:2867   */\n      dup6\n        /* \"#utility.yul\":2851:2857   */\n      dup3\n        /* \"#utility.yul\":2840:2849   */\n      dup7\n        /* \"#utility.yul\":2836:2858   */\n      add\n        /* \"#utility.yul\":2815:2868   */\n      tag_242\n      jump\t// in\n    tag_307:\n        /* \"#utility.yul\":2805:2868   */\n      swap3\n      pop\n        /* \"#utility.yul\":2761:2878   */\n      pop\n        /* \"#utility.yul\":2917:2919   */\n      0x20\n        /* \"#utility.yul\":2943:2996   */\n      tag_308\n        /* \"#utility.yul\":2988:2995   */\n      dup6\n        /* \"#utility.yul\":2979:2985   */\n      dup3\n        /* \"#utility.yul\":2968:2977   */\n      dup7\n        /* \"#utility.yul\":2964:2986   */\n      add\n        /* \"#utility.yul\":2943:2996   */\n      tag_245\n      jump\t// in\n    tag_308:\n        /* \"#utility.yul\":2933:2996   */\n      swap2\n      pop\n        /* \"#utility.yul\":2888:3006   */\n      pop\n        /* \"#utility.yul\":2539:3013   */\n      swap3\n      pop\n      swap3\n      swap1\n      pop\n      jump\t// out\n        /* \"#utility.yul\":3019:3109   */\n    tag_246:\n        /* \"#utility.yul\":3053:3060   */\n      0x00\n        /* \"#utility.yul\":3096:3101   */\n      dup2\n        /* \"#utility.yul\":3089:3102   */\n      iszero\n        /* \"#utility.yul\":3082:3103   */\n      iszero\n        /* \"#utility.yul\":3071:3103   */\n      swap1\n      pop\n        /* \"#utility.yul\":3019:3109   */\n      swap2\n      swap1\n      pop\n      jump\t// out\n        /* \"#utility.yul\":3115:3224   */\n    tag_247:\n        /* \"#utility.yul\":3196:3217   */\n      tag_311\n        /* \"#utility.yul\":3211:3216   */\n      dup2\n        /* \"#utility.yul\":3196:3217   */\n      tag_246\n      jump\t// in\n    tag_311:\n        /* \"#utility.yul\":3191:3194   */\n      dup3\n        /* \"#utility.yul\":3184:3218   */\n      mstore\n        /* \"#utility.yul\":3115:3224   */\n      pop\n      pop\n      jump\t// out\n        /* \"#utility.yul\":3230:3440   */\n    tag_32:\n        /* \"#utility.yul\":3317:3321   */\n      0x00\n        /* \"#utility.yul\":3355:3357   */\n      0x20\n        /* \"#utility.yul\":3344:3353   */\n      dup3\n        /* \"#utility.yul\":3340:3358   */\n      add\n        /* \"#utility.yul\":3332:3358   */\n      swap1\n      pop\n        /* \"#utility.yul\":3368:3433   */\n      tag_313\n        /* \"#utility.yul\":3430:3431   */\n      0x00\n        /* \"#utility.yul\":3419:3428   */\n      dup4\n        /* \"#utility.yul\":3415:3432   */\n      add\n        /* \"#utility.yul\":3406:3412   */\n      dup5\n        /* \"#utility.yul\":3368:3433   */\n      tag_247\n      jump\t// in\n    tag_313:\n        /* \"#utility.yul\":3230:3440   */\n      swap3\n      swap2\n      pop\n      pop\n      jump\t// out\n        /* \"#utility.yul\":3446:3564   */\n    tag_248:\n        /* \"#utility.yul\":3533:3557   */\n      tag_315\n        /* \"#utility.yul\":3551:3556   */\n      dup2\n        /* \"#utility.yul\":3533:3557   */\n      tag_243\n      jump\t// in\n    tag_315:\n        /* \"#utility.yul\":3528:3531   */\n      dup3\n        /* \"#utility.yul\":3521:3558   */\n      mstore\n        /* \"#utility.yul\":3446:3564   */\n      pop\n      pop\n      jump\t// out\n        /* \"#utility.yul\":3570:3792   */\n    tag_36:\n        /* \"#utility.yul\":3663:3667   */\n      0x00\n        /* \"#utility.yul\":3701:3703   */\n      0x20\n        /* \"#utility.yul\":3690:3699   */\n      dup3\n        /* \"#utility.yul\":3686:3704   */\n      add\n        /* \"#utility.yul\":3678:3704   */\n      swap1\n      pop\n        /* \"#utility.yul\":3714:3785   */\n      tag_317\n        /* \"#utility.yul\":3782:3783   */\n      0x00\n        /* \"#utility.yul\":3771:3780   */\n      dup4\n        /* \"#utility.yul\":3767:3784   */\n      add\n        /* \"#utility.yul\":3758:3764   */\n      dup5\n        /* \"#utility.yul\":3714:3785   */\n      tag_248\n      jump\t// in\n    tag_317:\n        /* \"#utility.yul\":3570:3792   */\n      swap3\n      swap2\n      pop\n      pop\n      jump\t// out\n        /* \"#utility.yul\":3798:4417   */\n    tag_39:\n        /* \"#utility.yul\":3875:3881   */\n      0x00\n        /* \"#utility.yul\":3883:3889   */\n      dup1\n        /* \"#utility.yul\":3891:3897   */\n      0x00\n        /* \"#utility.yul\":3940:3942   */\n      0x60\n        /* \"#utility.yul\":3928:3937   */\n      dup5\n        /* \"#utility.yul\":3919:3926   */\n      dup7\n        /* \"#utility.yul\":3915:3938   */\n      sub\n        /* \"#utility.yul\":3911:3943   */\n      slt\n        /* \"#utility.yul\":3908:4027   */\n      iszero\n      tag_319\n      jumpi\n        /* \"#utility.yul\":3946:4025   */\n      tag_320\n      tag_237\n      jump\t// in\n    tag_320:\n        /* \"#utility.yul\":3908:4027   */\n    tag_319:\n        /* \"#utility.yul\":4066:4067   */\n      0x00\n        /* \"#utility.yul\":4091:4144   */\n      tag_321\n        /* \"#utility.yul\":4136:4143   */\n      dup7\n        /* \"#utility.yul\":4127:4133   */\n      dup3\n        /* \"#utility.yul\":4116:4125   */\n      dup8\n        /* \"#utility.yul\":4112:4134   */\n      add\n        /* \"#utility.yul\":4091:4144   */\n      tag_242\n      jump\t// in\n    tag_321:\n        /* \"#utility.yul\":4081:4144   */\n      swap4\n      pop\n        /* \"#utility.yul\":4037:4154   */\n      pop\n        /* \"#utility.yul\":4193:4195   */\n      0x20\n        /* \"#utility.yul\":4219:4272   */\n      tag_322\n        /* \"#utility.yul\":4264:4271   */\n      dup7\n        /* \"#utility.yul\":4255:4261   */\n      dup3\n        /* \"#utility.yul\":4244:4253   */\n      dup8\n        /* \"#utility.yul\":4240:4262   */\n      add\n        /* \"#utility.yul\":4219:4272   */\n      tag_242\n      jump\t// in\n    tag_322:\n        /* \"#utility.yul\":4209:4272   */\n      swap3\n      pop\n        /* \"#utility.yul\":4164:4282   */\n      pop\n        /* \"#utility.yul\":4321:4323   */\n      0x40\n        /* \"#utility.yul\":4347:4400   */\n      tag_323\n        /* \"#utility.yul\":4392:4399   */\n      dup7\n        /* \"#utility.yul\":4383:4389   */\n      dup3\n        /* \"#utility.yul\":4372:4381   */\n      dup8\n        /* \"#utility.yul\":4368:4390   */\n      add\n        /* \"#utility.yul\":4347:4400   */\n      tag_245\n      jump\t// in\n    tag_323:\n        /* \"#utility.yul\":4337:4400   */\n      swap2\n      pop\n        /* \"#utility.yul\":4292:4410   */\n      pop\n        /* \"#utility.yul\":3798:4417   */\n      swap3\n      pop\n      swap3\n      pop\n      swap3\n      jump\t// out\n        /* \"#utility.yul\":4423:4509   */\n    tag_249:\n        /* \"#utility.yul\":4458:4465   */\n      0x00\n        /* \"#utility.yul\":4498:4502   */\n      0xff\n        /* \"#utility.yul\":4491:4496   */\n      dup3\n        /* \"#utility.yul\":4487:4503   */\n      and\n        /* \"#utility.yul\":4476:4503   */\n      swap1\n      pop\n        /* \"#utility.yul\":4423:4509   */\n      swap2\n      swap1\n      pop\n      jump\t// out\n        /* \"#utility.yul\":4515:4627   */\n    tag_250:\n        /* \"#utility.yul\":4598:4620   */\n      tag_326\n        /* \"#utility.yul\":4614:4619   */\n      dup2\n        /* \"#utility.yul\":4598:4620   */\n      tag_249\n      jump\t// in\n    tag_326:\n        /* \"#utility.yul\":4593:4596   */\n      dup3\n        /* \"#utility.yul\":4586:4621   */\n      mstore\n        /* \"#utility.yul\":4515:4627   */\n      pop\n      pop\n      jump\t// out\n        /* \"#utility.yul\":4633:4847   */\n    tag_45:\n        /* \"#utility.yul\":4722:4726   */\n      0x00\n        /* \"#utility.yul\":4760:4762   */\n      0x20\n        /* \"#utility.yul\":4749:4758   */\n      dup3\n        /* \"#utility.yul\":4745:4763   */\n      add\n        /* \"#utility.yul\":4737:4763   */\n      swap1\n      pop\n        /* \"#utility.yul\":4773:4840   */\n      tag_328\n        /* \"#utility.yul\":4837:4838   */\n      0x00\n        /* \"#utility.yul\":4826:4835   */\n      dup4\n        /* \"#utility.yul\":4822:4839   */\n      add\n        /* \"#utility.yul\":4813:4819   */\n      dup5\n        /* \"#utility.yul\":4773:4840   */\n      tag_250\n      jump\t// in\n    tag_328:\n        /* \"#utility.yul\":4633:4847   */\n      swap3\n      swap2\n      pop\n      pop\n      jump\t// out\n        /* \"#utility.yul\":4853:5182   */\n    tag_52:\n        /* \"#utility.yul\":4912:4918   */\n      0x00\n        /* \"#utility.yul\":4961:4963   */\n      0x20\n        /* \"#utility.yul\":4949:4958   */\n      dup3\n        /* \"#utility.yul\":4940:4947   */\n      dup5\n        /* \"#utility.yul\":4936:4959   */\n      sub\n        /* \"#utility.yul\":4932:4964   */\n      slt\n        /* \"#utility.yul\":4929:5048   */\n      iszero\n      tag_330\n      jumpi\n        /* \"#utility.yul\":4967:5046   */\n      tag_331\n      tag_237\n      jump\t// in\n    tag_331:\n        /* \"#utility.yul\":4929:5048   */\n    tag_330:\n        /* \"#utility.yul\":5087:5088   */\n      0x00\n        /* \"#utility.yul\":5112:5165   */\n      tag_332\n        /* \"#utility.yul\":5157:5164   */\n      dup5\n        /* \"#utility.yul\":5148:5154   */\n      dup3\n        /* \"#utility.yul\":5137:5146   */\n      dup6\n        /* \"#utility.yul\":5133:5155   */\n      add\n        /* \"#utility.yul\":5112:5165   */\n      tag_245\n      jump\t// in\n    tag_332:\n        /* \"#utility.yul\":5102:5165   */\n      swap2\n      pop\n        /* \"#utility.yul\":5058:5175   */\n      pop\n        /* \"#utility.yul\":4853:5182   */\n      swap3\n      swap2\n      pop\n      pop\n      jump\t// out\n        /* \"#utility.yul\":5188:5517   */\n    tag_60:\n        /* \"#utility.yul\":5247:5253   */\n      0x00\n        /* \"#utility.yul\":5296:5298   */\n      0x20\n        /* \"#utility.yul\":5284:5293   */\n      dup3\n        /* \"#utility.yul\":5275:5282   */\n      dup5\n        /* \"#utility.yul\":5271:5294   */\n      sub\n        /* \"#utility.yul\":5267:5299   */\n      slt\n        /* \"#utility.yul\":5264:5383   */\n      iszero\n      tag_334\n      jumpi\n        /* \"#utility.yul\":5302:5381   */\n      tag_335\n      tag_237\n      jump\t// in\n    tag_335:\n        /* \"#utility.yul\":5264:5383   */\n    tag_334:\n        /* \"#utility.yul\":5422:5423   */\n      0x00\n        /* \"#utility.yul\":5447:5500   */\n      tag_336\n        /* \"#utility.yul\":5492:5499   */\n      dup5\n        /* \"#utility.yul\":5483:5489   */\n      dup3\n        /* \"#utility.yul\":5472:5481   */\n      dup6\n        /* \"#utility.yul\":5468:5490   */\n      add\n        /* \"#utility.yul\":5447:5500   */\n      tag_242\n      jump\t// in\n    tag_336:\n        /* \"#utility.yul\":5437:5500   */\n      swap2\n      pop\n        /* \"#utility.yul\":5393:5510   */\n      pop\n        /* \"#utility.yul\":5188:5517   */\n      swap3\n      swap2\n      pop\n      pop\n      jump\t// out\n        /* \"#utility.yul\":5523:5997   */\n    tag_87:\n        /* \"#utility.yul\":5591:5597   */\n      0x00\n        /* \"#utility.yul\":5599:5605   */\n      dup1\n        /* \"#utility.yul\":5648:5650   */\n      0x40\n        /* \"#utility.yul\":5636:5645   */\n      dup4\n        /* \"#utility.yul\":5627:5634   */\n      dup6\n        /* \"#utility.yul\":5623:5646   */\n      sub\n        /* \"#utility.yul\":5619:5651   */\n      slt\n        /* \"#utility.yul\":5616:5735   */\n      iszero\n      tag_338\n      jumpi\n        /* \"#utility.yul\":5654:5733   */\n      tag_339\n      tag_237\n      jump\t// in\n    tag_339:\n        /* \"#utility.yul\":5616:5735   */\n    tag_338:\n        /* \"#utility.yul\":5774:5775   */\n      0x00\n        /* \"#utility.yul\":5799:5852   */\n      tag_340\n        /* \"#utility.yul\":5844:5851   */\n      dup6\n        /* \"#utility.yul\":5835:5841   */\n      dup3\n        /* \"#utility.yul\":5824:5833   */\n      dup7\n        /* \"#utility.yul\":5820:5842   */\n      add\n        /* \"#utility.yul\":5799:5852   */\n      tag_242\n      jump\t// in\n    tag_340:\n        /* \"#utility.yul\":5789:5852   */\n      swap3\n      pop\n        /* \"#utility.yul\":5745:5862   */\n      pop\n        /* \"#utility.yul\":5901:5903   */\n      0x20\n        /* \"#utility.yul\":5927:5980   */\n      tag_341\n        /* \"#utility.yul\":5972:5979   */\n      dup6\n        /* \"#utility.yul\":5963:5969   */\n      dup3\n        /* \"#utility.yul\":5952:5961   */\n      dup7\n        /* \"#utility.yul\":5948:5970   */\n      add\n        /* \"#utility.yul\":5927:5980   */\n      tag_242\n      jump\t// in\n    tag_341:\n        /* \"#utility.yul\":5917:5980   */\n      swap2\n      pop\n        /* \"#utility.yul\":5872:5990   */\n      pop\n        /* \"#utility.yul\":5523:5997   */\n      swap3\n      pop\n      swap3\n      swap1\n      pop\n      jump\t// out\n        /* \"#utility.yul\":6003:6183   */\n    tag_251:\n        /* \"#utility.yul\":6051:6128   */\n      0x4e487b7100000000000000000000000000000000000000000000000000000000\n        /* \"#utility.yul\":6048:6049   */\n      0x00\n        /* \"#utility.yul\":6041:6129   */\n      mstore\n        /* \"#utility.yul\":6148:6152   */\n      0x22\n        /* \"#utility.yul\":6145:6146   */\n      0x04\n        /* \"#utility.yul\":6138:6153   */\n      mstore\n        /* \"#utility.yul\":6172:6176   */\n      0x24\n        /* \"#utility.yul\":6169:6170   */\n      0x00\n        /* \"#utility.yul\":6162:6177   */\n      revert\n        /* \"#utility.yul\":6189:6509   */\n    tag_100:\n        /* \"#utility.yul\":6233:6239   */\n      0x00\n        /* \"#utility.yul\":6270:6271   */\n      0x02\n        /* \"#utility.yul\":6264:6268   */\n      dup3\n        /* \"#utility.yul\":6260:6272   */\n      div\n        /* \"#utility.yul\":6250:6272   */\n      swap1\n      pop\n        /* \"#utility.yul\":6317:6318   */\n      0x01\n        /* \"#utility.yul\":6311:6315   */\n      dup3\n        /* \"#utility.yul\":6307:6319   */\n      and\n        /* \"#utility.yul\":6338:6356   */\n      dup1\n        /* \"#utility.yul\":6328:6409   */\n      tag_344\n      jumpi\n        /* \"#utility.yul\":6394:6398   */\n      0x7f\n        /* \"#utility.yul\":6386:6392   */\n      dup3\n        /* \"#utility.yul\":6382:6399   */\n      and\n        /* \"#utility.yul\":6372:6399   */\n      swap2\n      pop\n        /* \"#utility.yul\":6328:6409   */\n    tag_344:\n        /* \"#utility.yul\":6456:6458   */\n      0x20\n        /* \"#utility.yul\":6448:6454   */\n      dup3\n        /* \"#utility.yul\":6445:6459   */\n      lt\n        /* \"#utility.yul\":6425:6443   */\n      dup2\n        /* \"#utility.yul\":6422:6460   */\n      sub\n        /* \"#utility.yul\":6419:6503   */\n      tag_345\n      jumpi\n        /* \"#utility.yul\":6475:6493   */\n      tag_346\n      tag_251\n      jump\t// in\n    tag_346:\n        /* \"#utility.yul\":6419:6503   */\n    tag_345:\n        /* \"#utility.yul\":6240:6509   */\n      pop\n        /* \"#utility.yul\":6189:6509   */\n      swap2\n      swap1\n      pop\n      jump\t// out\n        /* \"#utility.yul\":6515:6695   */\n    tag_252:\n        /* \"#utility.yul\":6563:6640   */\n      0x4e487b7100000000000000000000000000000000000000000000000000000000\n        /* \"#utility.yul\":6560:6561   */\n      0x00\n        /* \"#utility.yul\":6553:6641   */\n      mstore\n        /* \"#utility.yul\":6660:6664   */\n      0x11\n        /* \"#utility.yul\":6657:6658   */\n      0x04\n        /* \"#utility.yul\":6650:6665   */\n      mstore\n        /* \"#utility.yul\":6684:6688   */\n      0x24\n        /* \"#utility.yul\":6681:6682   */\n      0x00\n        /* \"#utility.yul\":6674:6689   */\n      revert\n        /* \"#utility.yul\":6701:6892   */\n    tag_123:\n        /* \"#utility.yul\":6741:6744   */\n      0x00\n        /* \"#utility.yul\":6760:6780   */\n      tag_349\n        /* \"#utility.yul\":6778:6779   */\n      dup3\n        /* \"#utility.yul\":6760:6780   */\n      tag_243\n      jump\t// in\n    tag_349:\n        /* \"#utility.yul\":6755:6780   */\n      swap2\n      pop\n        /* \"#utility.yul\":6794:6814   */\n      tag_350\n        /* \"#utility.yul\":6812:6813   */\n      dup4\n        /* \"#utility.yul\":6794:6814   */\n      tag_243\n      jump\t// in\n    tag_350:\n        /* \"#utility.yul\":6789:6814   */\n      swap3\n      pop\n        /* \"#utility.yul\":6837:6838   */\n      dup3\n        /* \"#utility.yul\":6834:6835   */\n      dup3\n        /* \"#utility.yul\":6830:6839   */\n      add\n        /* \"#utility.yul\":6823:6839   */\n      swap1\n      pop\n        /* \"#utility.yul\":6858:6861   */\n      dup1\n        /* \"#utility.yul\":6855:6856   */\n      dup3\n        /* \"#utility.yul\":6852:6862   */\n      gt\n        /* \"#utility.yul\":6849:6885   */\n      iszero\n      tag_351\n      jumpi\n        /* \"#utility.yul\":6865:6883   */\n      tag_352\n      tag_252\n      jump\t// in\n    tag_352:\n        /* \"#utility.yul\":6849:6885   */\n    tag_351:\n        /* \"#utility.yul\":6701:6892   */\n      swap3\n      swap2\n      pop\n      pop\n      jump\t// out\n        /* \"#utility.yul\":6898:7122   */\n    tag_253:\n        /* \"#utility.yul\":7038:7072   */\n      0x45524332303a2064656372656173656420616c6c6f77616e63652062656c6f77\n        /* \"#utility.yul\":7034:7035   */\n      0x00\n        /* \"#utility.yul\":7026:7032   */\n      dup3\n        /* \"#utility.yul\":7022:7036   */\n      add\n        /* \"#utility.yul\":7015:7073   */\n      mstore\n        /* \"#utility.yul\":7107:7114   */\n      0x207a65726f000000000000000000000000000000000000000000000000000000\n        /* \"#utility.yul\":7102:7104   */\n      0x20\n        /* \"#utility.yul\":7094:7100   */\n      dup3\n        /* \"#utility.yul\":7090:7105   */\n      add\n        /* \"#utility.yul\":7083:7115   */\n      mstore\n        /* \"#utility.yul\":6898:7122   */\n      pop\n      jump\t// out\n        /* \"#utility.yul\":7128:7494   */\n    tag_254:\n        /* \"#utility.yul\":7270:7273   */\n      0x00\n        /* \"#utility.yul\":7291:7358   */\n      tag_355\n        /* \"#utility.yul\":7355:7357   */\n      0x25\n        /* \"#utility.yul\":7350:7353   */\n      dup4\n        /* \"#utility.yul\":7291:7358   */\n      tag_232\n      jump\t// in\n    tag_355:\n        /* \"#utility.yul\":7284:7358   */\n      swap2\n      pop\n        /* \"#utility.yul\":7367:7460   */\n      tag_356\n        /* \"#utility.yul\":7456:7459   */\n      dup3\n        /* \"#utility.yul\":7367:7460   */\n      tag_253\n      jump\t// in\n    tag_356:\n        /* \"#utility.yul\":7485:7487   */\n      0x40\n        /* \"#utility.yul\":7480:7483   */\n      dup3\n        /* \"#utility.yul\":7476:7488   */\n      add\n        /* \"#utility.yul\":7469:7488   */\n      swap1\n      pop\n        /* \"#utility.yul\":7128:7494   */\n      swap2\n      swap1\n      pop\n      jump\t// out\n        /* \"#utility.yul\":7500:7919   */\n    tag_149:\n        /* \"#utility.yul\":7666:7670   */\n      0x00\n        /* \"#utility.yul\":7704:7706   */\n      0x20\n        /* \"#utility.yul\":7693:7702   */\n      dup3\n        /* \"#utility.yul\":7689:7707   */\n      add\n        /* \"#utility.yul\":7681:7707   */\n      swap1\n      pop\n        /* \"#utility.yul\":7753:7762   */\n      dup2\n        /* \"#utility.yul\":7747:7751   */\n      dup2\n        /* \"#utility.yul\":7743:7763   */\n      sub\n        /* \"#utility.yul\":7739:7740   */\n      0x00\n        /* \"#utility.yul\":7728:7737   */\n      dup4\n        /* \"#utility.yul\":7724:7741   */\n      add\n        /* \"#utility.yul\":7717:7764   */\n      mstore\n        /* \"#utility.yul\":7781:7912   */\n      tag_358\n        /* \"#utility.yul\":7907:7911   */\n      dup2\n        /* \"#utility.yul\":7781:7912   */\n      tag_254\n      jump\t// in\n    tag_358:\n        /* \"#utility.yul\":7773:7912   */\n      swap1\n      pop\n        /* \"#utility.yul\":7500:7919   */\n      swap2\n      swap1\n      pop\n      jump\t// out\n        /* \"#utility.yul\":7925:8119   */\n    tag_174:\n        /* \"#utility.yul\":7965:7969   */\n      0x00\n        /* \"#utility.yul\":7985:8005   */\n      tag_360\n        /* \"#utility.yul\":8003:8004   */\n      dup3\n        /* \"#utility.yul\":7985:8005   */\n      tag_243\n      jump\t// in\n    tag_360:\n        /* \"#utility.yul\":7980:8005   */\n      swap2\n      pop\n        /* \"#utility.yul\":8019:8039   */\n      tag_361\n        /* \"#utility.yul\":8037:8038   */\n      dup4\n        /* \"#utility.yul\":8019:8039   */\n      tag_243\n      jump\t// in\n    tag_361:\n        /* \"#utility.yul\":8014:8039   */\n      swap3\n      pop\n        /* \"#utility.yul\":8063:8064   */\n      dup3\n        /* \"#utility.yul\":8060:8061   */\n      dup3\n        /* \"#utility.yul\":8056:8065   */\n      sub\n        /* \"#utility.yul\":8048:8065   */\n      swap1\n      pop\n        /* \"#utility.yul\":8087:8088   */\n      dup2\n        /* \"#utility.yul\":8081:8085   */\n      dup2\n        /* \"#utility.yul\":8078:8089   */\n      gt\n        /* \"#utility.yul\":8075:8112   */\n      iszero\n      tag_362\n      jumpi\n        /* \"#utility.yul\":8092:8110   */\n      tag_363\n      tag_252\n      jump\t// in\n    tag_363:\n        /* \"#utility.yul\":8075:8112   */\n    tag_362:\n        /* \"#utility.yul\":7925:8119   */\n      swap3\n      swap2\n      pop\n      pop\n      jump\t// out\n        /* \"#utility.yul\":8125:8535   */\n    tag_179:\n        /* \"#utility.yul\":8165:8172   */\n      0x00\n        /* \"#utility.yul\":8188:8208   */\n      tag_365\n        /* \"#utility.yul\":8206:8207   */\n      dup3\n        /* \"#utility.yul\":8188:8208   */\n      tag_243\n      jump\t// in\n    tag_365:\n        /* \"#utility.yul\":8183:8208   */\n      swap2\n      pop\n        /* \"#utility.yul\":8222:8242   */\n      tag_366\n        /* \"#utility.yul\":8240:8241   */\n      dup4\n        /* \"#utility.yul\":8222:8242   */\n      tag_243\n      jump\t// in\n    tag_366:\n        /* \"#utility.yul\":8217:8242   */\n      swap3\n      pop\n        /* \"#utility.yul\":8277:8278   */\n      dup3\n        /* \"#utility.yul\":8274:8275   */\n      dup3\n        /* \"#utility.yul\":8270:8279   */\n      mul\n        /* \"#utility.yul\":8299:8329   */\n      tag_367\n        /* \"#utility.yul\":8317:8328   */\n      dup2\n        /* \"#utility.yul\":8299:8329   */\n      tag_243\n      jump\t// in\n    tag_367:\n        /* \"#utility.yul\":8288:8329   */\n      swap2\n      pop\n        /* \"#utility.yul\":8478:8479   */\n      dup3\n        /* \"#utility.yul\":8469:8476   */\n      dup3\n        /* \"#utility.yul\":8465:8480   */\n      div\n        /* \"#utility.yul\":8462:8463   */\n      dup5\n        /* \"#utility.yul\":8459:8481   */\n      eq\n        /* \"#utility.yul\":8439:8440   */\n      dup4\n        /* \"#utility.yul\":8432:8441   */\n      iszero\n        /* \"#utility.yul\":8412:8495   */\n      or\n        /* \"#utility.yul\":8389:8528   */\n      tag_368\n      jumpi\n        /* \"#utility.yul\":8508:8526   */\n      tag_369\n      tag_252\n      jump\t// in\n    tag_369:\n        /* \"#utility.yul\":8389:8528   */\n    tag_368:\n        /* \"#utility.yul\":8173:8535   */\n      pop\n        /* \"#utility.yul\":8125:8535   */\n      swap3\n      swap2\n      pop\n      pop\n      jump\t// out\n        /* \"#utility.yul\":8541:8721   */\n    tag_255:\n        /* \"#utility.yul\":8589:8666   */\n      0x4e487b7100000000000000000000000000000000000000000000000000000000\n        /* \"#utility.yul\":8586:8587   */\n      0x00\n        /* \"#utility.yul\":8579:8667   */\n      mstore\n        /* \"#utility.yul\":8686:8690   */\n      0x12\n        /* \"#utility.yul\":8683:8684   */\n      0x04\n        /* \"#utility.yul\":8676:8691   */\n      mstore\n        /* \"#utility.yul\":8710:8714   */\n      0x24\n        /* \"#utility.yul\":8707:8708   */\n      0x00\n        /* \"#utility.yul\":8700:8715   */\n      revert\n        /* \"#utility.yul\":8727:8912   */\n    tag_182:\n        /* \"#utility.yul\":8767:8768   */\n      0x00\n        /* \"#utility.yul\":8784:8804   */\n      tag_372\n        /* \"#utility.yul\":8802:8803   */\n      dup3\n        /* \"#utility.yul\":8784:8804   */\n      tag_243\n      jump\t// in\n    tag_372:\n        /* \"#utility.yul\":8779:8804   */\n      swap2\n      pop\n        /* \"#utility.yul\":8818:8838   */\n      tag_373\n        /* \"#utility.yul\":8836:8837   */\n      dup4\n        /* \"#utility.yul\":8818:8838   */\n      tag_243\n      jump\t// in\n    tag_373:\n        /* \"#utility.yul\":8813:8838   */\n      swap3\n      pop\n        /* \"#utility.yul\":8857:8858   */\n      dup3\n        /* \"#utility.yul\":8847:8882   */\n      tag_374\n      jumpi\n        /* \"#utility.yul\":8862:8880   */\n      tag_375\n      tag_255\n      jump\t// in\n    tag_375:\n        /* \"#utility.yul\":8847:8882   */\n    tag_374:\n        /* \"#utility.yul\":8904:8905   */\n      dup3\n        /* \"#utility.yul\":8901:8902   */\n      dup3\n        /* \"#utility.yul\":8897:8906   */\n      div\n        /* \"#utility.yul\":8892:8906   */\n      swap1\n      pop\n        /* \"#utility.yul\":8727:8912   */\n      swap3\n      swap2\n      pop\n      pop\n      jump\t// out\n        /* \"#utility.yul\":8918:9141   */\n    tag_256:\n        /* \"#utility.yul\":9058:9092   */\n      0x45524332303a20617070726f76652066726f6d20746865207a65726f20616464\n        /* \"#utility.yul\":9054:9055   */\n      0x00\n        /* \"#utility.yul\":9046:9052   */\n      dup3\n        /* \"#utility.yul\":9042:9056   */\n      add\n        /* \"#utility.yul\":9035:9093   */\n      mstore\n        /* \"#utility.yul\":9127:9133   */\n      0x7265737300000000000000000000000000000000000000000000000000000000\n        /* \"#utility.yul\":9122:9124   */\n      0x20\n        /* \"#utility.yul\":9114:9120   */\n      dup3\n        /* \"#utility.yul\":9110:9125   */\n      add\n        /* \"#utility.yul\":9103:9134   */\n      mstore\n        /* \"#utility.yul\":8918:9141   */\n      pop\n      jump\t// out\n        /* \"#utility.yul\":9147:9513   */\n    tag_257:\n        /* \"#utility.yul\":9289:9292   */\n      0x00\n        /* \"#utility.yul\":9310:9377   */\n      tag_378\n        /* \"#utility.yul\":9374:9376   */\n      0x24\n        /* \"#utility.yul\":9369:9372   */\n      dup4\n        /* \"#utility.yul\":9310:9377   */\n      tag_232\n      jump\t// in\n    tag_378:\n        /* \"#utility.yul\":9303:9377   */\n      swap2\n      pop\n        /* \"#utility.yul\":9386:9479   */\n      tag_379\n        /* \"#utility.yul\":9475:9478   */\n      dup3\n        /* \"#utility.yul\":9386:9479   */\n      tag_256\n      jump\t// in\n    tag_379:\n        /* \"#utility.yul\":9504:9506   */\n      0x40\n        /* \"#utility.yul\":9499:9502   */\n      dup3\n        /* \"#utility.yul\":9495:9507   */\n      add\n        /* \"#utility.yul\":9488:9507   */\n      swap1\n      pop\n        /* \"#utility.yul\":9147:9513   */\n      swap2\n      swap1\n      pop\n      jump\t// out\n        /* \"#utility.yul\":9519:9938   */\n    tag_187:\n        /* \"#utility.yul\":9685:9689   */\n      0x00\n        /* \"#utility.yul\":9723:9725   */\n      0x20\n        /* \"#utility.yul\":9712:9721   */\n      dup3\n        /* \"#utility.yul\":9708:9726   */\n      add\n        /* \"#utility.yul\":9700:9726   */\n      swap1\n      pop\n        /* \"#utility.yul\":9772:9781   */\n      dup2\n        /* \"#utility.yul\":9766:9770   */\n      dup2\n        /* \"#utility.yul\":9762:9782   */\n      sub\n        /* \"#utility.yul\":9758:9759   */\n      0x00\n        /* \"#utility.yul\":9747:9756   */\n      dup4\n        /* \"#utility.yul\":9743:9760   */\n      add\n        /* \"#utility.yul\":9736:9783   */\n      mstore\n        /* \"#utility.yul\":9800:9931   */\n      tag_381\n        /* \"#utility.yul\":9926:9930   */\n      dup2\n        /* \"#utility.yul\":9800:9931   */\n      tag_257\n      jump\t// in\n    tag_381:\n        /* \"#utility.yul\":9792:9931   */\n      swap1\n      pop\n        /* \"#utility.yul\":9519:9938   */\n      swap2\n      swap1\n      pop\n      jump\t// out\n        /* \"#utility.yul\":9944:10165   */\n    tag_258:\n        /* \"#utility.yul\":10084:10118   */\n      0x45524332303a20617070726f766520746f20746865207a65726f206164647265\n        /* \"#utility.yul\":10080:10081   */\n      0x00\n        /* \"#utility.yul\":10072:10078   */\n      dup3\n        /* \"#utility.yul\":10068:10082   */\n      add\n        /* \"#utility.yul\":10061:10119   */\n      mstore\n        /* \"#utility.yul\":10153:10157   */\n      0x7373000000000000000000000000000000000000000000000000000000000000\n        /* \"#utility.yul\":10148:10150   */\n      0x20\n        /* \"#utility.yul\":10140:10146   */\n      dup3\n        /* \"#utility.yul\":10136:10151   */\n      add\n        /* \"#utility.yul\":10129:10158   */\n      mstore\n        /* \"#utility.yul\":9944:10165   */\n      pop\n      jump\t// out\n        /* \"#utility.yul\":10171:10537   */\n    tag_259:\n        /* \"#utility.yul\":10313:10316   */\n      0x00\n        /* \"#utility.yul\":10334:10401   */\n      tag_384\n        /* \"#utility.yul\":10398:10400   */\n      0x22\n        /* \"#utility.yul\":10393:10396   */\n      dup4\n        /* \"#utility.yul\":10334:10401   */\n      tag_232\n      jump\t// in\n    tag_384:\n        /* \"#utility.yul\":10327:10401   */\n      swap2\n      pop\n        /* \"#utility.yul\":10410:10503   */\n      tag_385\n        /* \"#utility.yul\":10499:10502   */\n      dup3\n        /* \"#utility.yul\":10410:10503   */\n      tag_258\n      jump\t// in\n    tag_385:\n        /* \"#utility.yul\":10528:10530   */\n      0x40\n        /* \"#utility.yul\":10523:10526   */\n      dup3\n        /* \"#utility.yul\":10519:10531   */\n      add\n        /* \"#utility.yul\":10512:10531   */\n      swap1\n      pop\n        /* \"#utility.yul\":10171:10537   */\n      swap2\n      swap1\n      pop\n      jump\t// out\n        /* \"#utility.yul\":10543:10962   */\n    tag_190:\n        /* \"#utility.yul\":10709:10713   */\n      0x00\n        /* \"#utility.yul\":10747:10749   */\n      0x20\n        /* \"#utility.yul\":10736:10745   */\n      dup3\n        /* \"#utility.yul\":10732:10750   */\n      add\n        /* \"#utility.yul\":10724:10750   */\n      swap1\n      pop\n        /* \"#utility.yul\":10796:10805   */\n      dup2\n        /* \"#utility.yul\":10790:10794   */\n      dup2\n        /* \"#utility.yul\":10786:10806   */\n      sub\n        /* \"#utility.yul\":10782:10783   */\n      0x00\n        /* \"#utility.yul\":10771:10780   */\n      dup4\n        /* \"#utility.yul\":10767:10784   */\n      add\n        /* \"#utility.yul\":10760:10807   */\n      mstore\n        /* \"#utility.yul\":10824:10955   */\n      tag_387\n        /* \"#utility.yul\":10950:10954   */\n      dup2\n        /* \"#utility.yul\":10824:10955   */\n      tag_259\n      jump\t// in\n    tag_387:\n        /* \"#utility.yul\":10816:10955   */\n      swap1\n      pop\n        /* \"#utility.yul\":10543:10962   */\n      swap2\n      swap1\n      pop\n      jump\t// out\n        /* \"#utility.yul\":10968:11147   */\n    tag_260:\n        /* \"#utility.yul\":11108:11139   */\n      0x45524332303a20696e73756666696369656e7420616c6c6f77616e6365000000\n        /* \"#utility.yul\":11104:11105   */\n      0x00\n        /* \"#utility.yul\":11096:11102   */\n      dup3\n        /* \"#utility.yul\":11092:11106   */\n      add\n        /* \"#utility.yul\":11085:11140   */\n      mstore\n        /* \"#utility.yul\":10968:11147   */\n      pop\n      jump\t// out\n        /* \"#utility.yul\":11153:11519   */\n    tag_261:\n        /* \"#utility.yul\":11295:11298   */\n      0x00\n        /* \"#utility.yul\":11316:11383   */\n      tag_390\n        /* \"#utility.yul\":11380:11382   */\n      0x1d\n        /* \"#utility.yul\":11375:11378   */\n      dup4\n        /* \"#utility.yul\":11316:11383   */\n      tag_232\n      jump\t// in\n    tag_390:\n        /* \"#utility.yul\":11309:11383   */\n      swap2\n      pop\n        /* \"#utility.yul\":11392:11485   */\n      tag_391\n        /* \"#utility.yul\":11481:11484   */\n      dup3\n        /* \"#utility.yul\":11392:11485   */\n      tag_260\n      jump\t// in\n    tag_391:\n        /* \"#utility.yul\":11510:11512   */\n      0x20\n        /* \"#utility.yul\":11505:11508   */\n      dup3\n        /* \"#utility.yul\":11501:11513   */\n      add\n        /* \"#utility.yul\":11494:11513   */\n      swap1\n      pop\n        /* \"#utility.yul\":11153:11519   */\n      swap2\n      swap1\n      pop\n      jump\t// out\n        /* \"#utility.yul\":11525:11944   */\n    tag_197:\n        /* \"#utility.yul\":11691:11695   */\n      0x00\n        /* \"#utility.yul\":11729:11731   */\n      0x20\n        /* \"#utility.yul\":11718:11727   */\n      dup3\n        /* \"#utility.yul\":11714:11732   */\n      add\n        /* \"#utility.yul\":11706:11732   */\n      swap1\n      pop\n        /* \"#utility.yul\":11778:11787   */\n      dup2\n        /* \"#utility.yul\":11772:11776   */\n      dup2\n        /* \"#utility.yul\":11768:11788   */\n      sub\n        /* \"#utility.yul\":11764:11765   */\n      0x00\n        /* \"#utility.yul\":11753:11762   */\n      dup4\n        /* \"#utility.yul\":11749:11766   */\n      add\n        /* \"#utility.yul\":11742:11789   */\n      mstore\n        /* \"#utility.yul\":11806:11937   */\n      tag_393\n        /* \"#utility.yul\":11932:11936   */\n      dup2\n        /* \"#utility.yul\":11806:11937   */\n      tag_261\n      jump\t// in\n    tag_393:\n        /* \"#utility.yul\":11798:11937   */\n      swap1\n      pop\n        /* \"#utility.yul\":11525:11944   */\n      swap2\n      swap1\n      pop\n      jump\t// out\n        /* \"#utility.yul\":11950:12174   */\n    tag_262:\n        /* \"#utility.yul\":12090:12124   */\n      0x45524332303a207472616e736665722066726f6d20746865207a65726f206164\n        /* \"#utility.yul\":12086:12087   */\n      0x00\n        /* \"#utility.yul\":12078:12084   */\n      dup3\n        /* \"#utility.yul\":12074:12088   */\n      add\n        /* \"#utility.yul\":12067:12125   */\n      mstore\n        /* \"#utility.yul\":12159:12166   */\n      0x6472657373000000000000000000000000000000000000000000000000000000\n        /* \"#utility.yul\":12154:12156   */\n      0x20\n        /* \"#utility.yul\":12146:12152   */\n      dup3\n        /* \"#utility.yul\":12142:12157   */\n      add\n        /* \"#utility.yul\":12135:12167   */\n      mstore\n        /* \"#utility.yul\":11950:12174   */\n      pop\n      jump\t// out\n        /* \"#utility.yul\":12180:12546   */\n    tag_263:\n        /* \"#utility.yul\":12322:12325   */\n      0x00\n        /* \"#utility.yul\":12343:12410   */\n      tag_396\n        /* \"#utility.yul\":12407:12409   */\n      0x25\n        /* \"#utility.yul\":12402:12405   */\n      dup4\n        /* \"#utility.yul\":12343:12410   */\n      tag_232\n      jump\t// in\n    tag_396:\n        /* \"#utility.yul\":12336:12410   */\n      swap2\n      pop\n        /* \"#utility.yul\":12419:12512   */\n      tag_397\n        /* \"#utility.yul\":12508:12511   */\n      dup3\n        /* \"#utility.yul\":12419:12512   */\n      tag_262\n      jump\t// in\n    tag_397:\n        /* \"#utility.yul\":12537:12539   */\n      0x40\n        /* \"#utility.yul\":12532:12535   */\n      dup3\n        /* \"#utility.yul\":12528:12540   */\n      add\n        /* \"#utility.yul\":12521:12540   */\n      swap1\n      pop\n        /* \"#utility.yul\":12180:12546   */\n      swap2\n      swap1\n      pop\n      jump\t// out\n        /* \"#utility.yul\":12552:12971   */\n    tag_202:\n        /* \"#utility.yul\":12718:12722   */\n      0x00\n        /* \"#utility.yul\":12756:12758   */\n      0x20\n        /* \"#utility.yul\":12745:12754   */\n      dup3\n        /* \"#utility.yul\":12741:12759   */\n      add\n        /* \"#utility.yul\":12733:12759   */\n      swap1\n      pop\n        /* \"#utility.yul\":12805:12814   */\n      dup2\n        /* \"#utility.yul\":12799:12803   */\n      dup2\n        /* \"#utility.yul\":12795:12815   */\n      sub\n        /* \"#utility.yul\":12791:12792   */\n      0x00\n        /* \"#utility.yul\":12780:12789   */\n      dup4\n        /* \"#utility.yul\":12776:12793   */\n      add\n        /* \"#utility.yul\":12769:12816   */\n      mstore\n        /* \"#utility.yul\":12833:12964   */\n      tag_399\n        /* \"#utility.yul\":12959:12963   */\n      dup2\n        /* \"#utility.yul\":12833:12964   */\n      tag_263\n      jump\t// in\n    tag_399:\n        /* \"#utility.yul\":12825:12964   */\n      swap1\n      pop\n        /* \"#utility.yul\":12552:12971   */\n      swap2\n      swap1\n      pop\n      jump\t// out\n        /* \"#utility.yul\":12977:13199   */\n    tag_264:\n        /* \"#utility.yul\":13117:13151   */\n      0x45524332303a207472616e7366657220746f20746865207a65726f2061646472\n        /* \"#utility.yul\":13113:13114   */\n      0x00\n        /* \"#utility.yul\":13105:13111   */\n      dup3\n        /* \"#utility.yul\":13101:13115   */\n      add\n        /* \"#utility.yul\":13094:13152   */\n      mstore\n        /* \"#utility.yul\":13186:13191   */\n      0x6573730000000000000000000000000000000000000000000000000000000000\n        /* \"#utility.yul\":13181:13183   */\n      0x20\n        /* \"#utility.yul\":13173:13179   */\n      dup3\n        /* \"#utility.yul\":13169:13184   */\n      add\n        /* \"#utility.yul\":13162:13192   */\n      mstore\n        /* \"#utility.yul\":12977:13199   */\n      pop\n      jump\t// out\n        /* \"#utility.yul\":13205:13571   */\n    tag_265:\n        /* \"#utility.yul\":13347:13350   */\n      0x00\n        /* \"#utility.yul\":13368:13435   */\n      tag_402\n        /* \"#utility.yul\":13432:13434   */\n      0x23\n        /* \"#utility.yul\":13427:13430   */\n      dup4\n        /* \"#utility.yul\":13368:13435   */\n      tag_232\n      jump\t// in\n    tag_402:\n        /* \"#utility.yul\":13361:13435   */\n      swap2\n      pop\n        /* \"#utility.yul\":13444:13537   */\n      tag_403\n        /* \"#utility.yul\":13533:13536   */\n      dup3\n        /* \"#utility.yul\":13444:13537   */\n      tag_264\n      jump\t// in\n    tag_403:\n        /* \"#utility.yul\":13562:13564   */\n      0x40\n        /* \"#utility.yul\":13557:13560   */\n      dup3\n        /* \"#utility.yul\":13553:13565   */\n      add\n        /* \"#utility.yul\":13546:13565   */\n      swap1\n      pop\n        /* \"#utility.yul\":13205:13571   */\n      swap2\n      swap1\n      pop\n      jump\t// out\n        /* \"#utility.yul\":13577:13996   */\n    tag_205:\n        /* \"#utility.yul\":13743:13747   */\n      0x00\n        /* \"#utility.yul\":13781:13783   */\n      0x20\n        /* \"#utility.yul\":13770:13779   */\n      dup3\n        /* \"#utility.yul\":13766:13784   */\n      add\n        /* \"#utility.yul\":13758:13784   */\n      swap1\n      pop\n        /* \"#utility.yul\":13830:13839   */\n      dup2\n        /* \"#utility.yul\":13824:13828   */\n      dup2\n        /* \"#utility.yul\":13820:13840   */\n      sub\n        /* \"#utility.yul\":13816:13817   */\n      0x00\n        /* \"#utility.yul\":13805:13814   */\n      dup4\n        /* \"#utility.yul\":13801:13818   */\n      add\n        /* \"#utility.yul\":13794:13841   */\n      mstore\n        /* \"#utility.yul\":13858:13989   */\n      tag_405\n        /* \"#utility.yul\":13984:13988   */\n      dup2\n        /* \"#utility.yul\":13858:13989   */\n      tag_265\n      jump\t// in\n    tag_405:\n        /* \"#utility.yul\":13850:13989   */\n      swap1\n      pop\n        /* \"#utility.yul\":13577:13996   */\n      swap2\n      swap1\n      pop\n      jump\t// out\n        /* \"#utility.yul\":14002:14227   */\n    tag_266:\n        /* \"#utility.yul\":14142:14176   */\n      0x45524332303a207472616e7366657220616d6f756e7420657863656564732062\n        /* \"#utility.yul\":14138:14139   */\n      0x00\n        /* \"#utility.yul\":14130:14136   */\n      dup3\n        /* \"#utility.yul\":14126:14140   */\n      add\n        /* \"#utility.yul\":14119:14177   */\n      mstore\n        /* \"#utility.yul\":14211:14219   */\n      0x616c616e63650000000000000000000000000000000000000000000000000000\n        /* \"#utility.yul\":14206:14208   */\n      0x20\n        /* \"#utility.yul\":14198:14204   */\n      dup3\n        /* \"#utility.yul\":14194:14209   */\n      add\n        /* \"#utility.yul\":14187:14220   */\n      mstore\n        /* \"#utility.yul\":14002:14227   */\n      pop\n      jump\t// out\n        /* \"#utility.yul\":14233:14599   */\n    tag_267:\n        /* \"#utility.yul\":14375:14378   */\n      0x00\n        /* \"#utility.yul\":14396:14463   */\n      tag_408\n        /* \"#utility.yul\":14460:14462   */\n      0x26\n        /* \"#utility.yul\":14455:14458   */\n      dup4\n        /* \"#utility.yul\":14396:14463   */\n      tag_232\n      jump\t// in\n    tag_408:\n        /* \"#utility.yul\":14389:14463   */\n      swap2\n      pop\n        /* \"#utility.yul\":14472:14565   */\n      tag_409\n        /* \"#utility.yul\":14561:14564   */\n      dup3\n        /* \"#utility.yul\":14472:14565   */\n      tag_266\n      jump\t// in\n    tag_409:\n        /* \"#utility.yul\":14590:14592   */\n      0x40\n        /* \"#utility.yul\":14585:14588   */\n      dup3\n        /* \"#utility.yul\":14581:14593   */\n      add\n        /* \"#utility.yul\":14574:14593   */\n      swap1\n      pop\n        /* \"#utility.yul\":14233:14599   */\n      swap2\n      swap1\n      pop\n      jump\t// out\n        /* \"#utility.yul\":14605:15024   */\n    tag_212:\n        /* \"#utility.yul\":14771:14775   */\n      0x00\n        /* \"#utility.yul\":14809:14811   */\n      0x20\n        /* \"#utility.yul\":14798:14807   */\n      dup3\n        /* \"#utility.yul\":14794:14812   */\n      add\n        /* \"#utility.yul\":14786:14812   */\n      swap1\n      pop\n        /* \"#utility.yul\":14858:14867   */\n      dup2\n        /* \"#utility.yul\":14852:14856   */\n      dup2\n        /* \"#utility.yul\":14848:14868   */\n      sub\n        /* \"#utility.yul\":14844:14845   */\n      0x00\n        /* \"#utility.yul\":14833:14842   */\n      dup4\n        /* \"#utility.yul\":14829:14846   */\n      add\n        /* \"#utility.yul\":14822:14869   */\n      mstore\n        /* \"#utility.yul\":14886:15017   */\n      tag_411\n        /* \"#utility.yul\":15012:15016   */\n      dup2\n        /* \"#utility.yul\":14886:15017   */\n      tag_267\n      jump\t// in\n    tag_411:\n        /* \"#utility.yul\":14878:15017   */\n      swap1\n      pop\n        /* \"#utility.yul\":14605:15024   */\n      swap2\n      swap1\n      pop\n      jump\t// out\n        /* \"#utility.yul\":15030:15250   */\n    tag_268:\n        /* \"#utility.yul\":15170:15204   */\n      0x45524332303a206275726e2066726f6d20746865207a65726f20616464726573\n        /* \"#utility.yul\":15166:15167   */\n      0x00\n        /* \"#utility.yul\":15158:15164   */\n      dup3\n        /* \"#utility.yul\":15154:15168   */\n      add\n        /* \"#utility.yul\":15147:15205   */\n      mstore\n        /* \"#utility.yul\":15239:15242   */\n      0x7300000000000000000000000000000000000000000000000000000000000000\n        /* \"#utility.yul\":15234:15236   */\n      0x20\n        /* \"#utility.yul\":15226:15232   */\n      dup3\n        /* \"#utility.yul\":15222:15237   */\n      add\n        /* \"#utility.yul\":15215:15243   */\n      mstore\n        /* \"#utility.yul\":15030:15250   */\n      pop\n      jump\t// out\n        /* \"#utility.yul\":15256:15622   */\n    tag_269:\n        /* \"#utility.yul\":15398:15401   */\n      0x00\n        /* \"#utility.yul\":15419:15486   */\n      tag_414\n        /* \"#utility.yul\":15483:15485   */\n      0x21\n        /* \"#utility.yul\":15478:15481   */\n      dup4\n        /* \"#utility.yul\":15419:15486   */\n      tag_232\n      jump\t// in\n    tag_414:\n        /* \"#utility.yul\":15412:15486   */\n      swap2\n      pop\n        /* \"#utility.yul\":15495:15588   */\n      tag_415\n        /* \"#utility.yul\":15584:15587   */\n      dup3\n        /* \"#utility.yul\":15495:15588   */\n      tag_268\n      jump\t// in\n    tag_415:\n        /* \"#utility.yul\":15613:15615   */\n      0x40\n        /* \"#utility.yul\":15608:15611   */\n      dup3\n        /* \"#utility.yul\":15604:15616   */\n      add\n        /* \"#utility.yul\":15597:15616   */\n      swap1\n      pop\n        /* \"#utility.yul\":15256:15622   */\n      swap2\n      swap1\n      pop\n      jump\t// out\n        /* \"#utility.yul\":15628:16047   */\n    tag_220:\n        /* \"#utility.yul\":15794:15798   */\n      0x00\n        /* \"#utility.yul\":15832:15834   */\n      0x20\n        /* \"#utility.yul\":15821:15830   */\n      dup3\n        /* \"#utility.yul\":15817:15835   */\n      add\n        /* \"#utility.yul\":15809:15835   */\n      swap1\n      pop\n        /* \"#utility.yul\":15881:15890   */\n      dup2\n        /* \"#utility.yul\":15875:15879   */\n      dup2\n        /* \"#utility.yul\":15871:15891   */\n      sub\n        /* \"#utility.yul\":15867:15868   */\n      0x00\n        /* \"#utility.yul\":15856:15865   */\n      dup4\n        /* \"#utility.yul\":15852:15869   */\n      add\n        /* \"#utility.yul\":15845:15892   */\n      mstore\n        /* \"#utility.yul\":15909:16040   */\n      tag_417\n        /* \"#utility.yul\":16035:16039   */\n      dup2\n        /* \"#utility.yul\":15909:16040   */\n      tag_269\n      jump\t// in\n    tag_417:\n        /* \"#utility.yul\":15901:16040   */\n      swap1\n      pop\n        /* \"#utility.yul\":15628:16047   */\n      swap2\n      swap1\n      pop\n      jump\t// out\n        /* \"#utility.yul\":16053:16274   */\n    tag_270:\n        /* \"#utility.yul\":16193:16227   */\n      0x45524332303a206275726e20616d6f756e7420657863656564732062616c616e\n        /* \"#utility.yul\":16189:16190   */\n      0x00\n        /* \"#utility.yul\":16181:16187   */\n      dup3\n        /* \"#utility.yul\":16177:16191   */\n      add\n        /* \"#utility.yul\":16170:16228   */\n      mstore\n        /* \"#utility.yul\":16262:16266   */\n      0x6365000000000000000000000000000000000000000000000000000000000000\n        /* \"#utility.yul\":16257:16259   */\n      0x20\n        /* \"#utility.yul\":16249:16255   */\n      dup3\n        /* \"#utility.yul\":16245:16260   */\n      add\n        /* \"#utility.yul\":16238:16267   */\n      mstore\n        /* \"#utility.yul\":16053:16274   */\n      pop\n      jump\t// out\n        /* \"#utility.yul\":16280:16646   */\n    tag_271:\n        /* \"#utility.yul\":16422:16425   */\n      0x00\n        /* \"#utility.yul\":16443:16510   */\n      tag_420\n        /* \"#utility.yul\":16507:16509   */\n      0x22\n        /* \"#utility.yul\":16502:16505   */\n      dup4\n        /* \"#utility.yul\":16443:16510   */\n      tag_232\n      jump\t// in\n    tag_420:\n        /* \"#utility.yul\":16436:16510   */\n      swap2\n      pop\n        /* \"#utility.yul\":16519:16612   */\n      tag_421\n        /* \"#utility.yul\":16608:16611   */\n      dup3\n        /* \"#utility.yul\":16519:16612   */\n      tag_270\n      jump\t// in\n    tag_421:\n        /* \"#utility.yul\":16637:16639   */\n      0x40\n        /* \"#utility.yul\":16632:16635   */\n      dup3\n        /* \"#utility.yul\":16628:16640   */\n      add\n        /* \"#utility.yul\":16621:16640   */\n      swap1\n      pop\n        /* \"#utility.yul\":16280:16646   */\n      swap2\n      swap1\n      pop\n      jump\t// out\n        /* \"#utility.yul\":16652:17071   */\n    tag_225:\n        /* \"#utility.yul\":16818:16822   */\n      0x00\n        /* \"#utility.yul\":16856:16858   */\n      0x20\n        /* \"#utility.yul\":16845:16854   */\n      dup3\n        /* \"#utility.yul\":16841:16859   */\n      add\n        /* \"#utility.yul\":16833:16859   */\n      swap1\n      pop\n        /* \"#utility.yul\":16905:16914   */\n      dup2\n        /* \"#utility.yul\":16899:16903   */\n      dup2\n        /* \"#utility.yul\":16895:16915   */\n      sub\n        /* \"#utility.yul\":16891:16892   */\n      0x00\n        /* \"#utility.yul\":16880:16889   */\n      dup4\n        /* \"#utility.yul\":16876:16893   */\n      add\n        /* \"#utility.yul\":16869:16916   */\n      mstore\n        /* \"#utility.yul\":16933:17064   */\n      tag_423\n        /* \"#utility.yul\":17059:17063   */\n      dup2\n        /* \"#utility.yul\":16933:17064   */\n      tag_271\n      jump\t// in\n    tag_423:\n        /* \"#utility.yul\":16925:17064   */\n      swap1\n      pop\n        /* \"#utility.yul\":16652:17071   */\n      swap2\n      swap1\n      pop\n      jump\t// out\n\n    auxdata: 0xa2646970667358221220420d9c73ed2e2c4fbd392b6fd3269c35f7f5f65114dd1b9cae84f18066d9840664736f6c63430008110033\n}\n",
				"bytecode": {
					"linkReferences": {},
					"object": "60806040523480156200001157600080fd5b506040518060400160405280600981526020017f6d696e65506f77657200000000000000000000000000000000000000000000008152506040518060400160405280600681526020017f4d506f77657200000000000000000000000000000000000000000000000000008152504382600590816200009091906200096f565b508160069081620000a291906200096f565b50674563918244f4000060038190555080600481905550505050620000fc33620000d16200010260201b60201c565b600a620000df919062000be6565b6303938700620000f0919062000c37565b6200010b60201b60201c565b62000e10565b60006012905090565b600073ffffffffffffffffffffffffffffffffffffffff168273ffffffffffffffffffffffffffffffffffffffff16036200017d576040517f08c379a0000000000000000000000000000000000000000000000000000000008152600401620001749062000ce3565b60405180910390fd5b43600760008473ffffffffffffffffffffffffffffffffffffffff1673ffffffffffffffffffffffffffffffffffffffff16815260200190815260200160002060006001815260200190815260200160002081905550620001e7600083836200033f60201b60201c565b8060026000828254620001fb919062000d05565b92505081905550806000808473ffffffffffffffffffffffffffffffffffffffff1673ffffffffffffffffffffffffffffffffffffffff168152602001908152602001600020600082825462000252919062000d05565b925050819055508173ffffffffffffffffffffffffffffffffffffffff16600073ffffffffffffffffffffffffffffffffffffffff167fddf252ad1be2c89b69c2b068fc378daa952ba7f163c4a11628f55a4df523b3ef83604051620002b9919062000d51565b60405180910390a3620002d5600083836200034460201b60201c565b620002e6826200034960201b60201c565b600760008473ffffffffffffffffffffffffffffffffffffffff1673ffffffffffffffffffffffffffffffffffffffff168152602001908152602001600020600060038152602001908152602001600020819055505050565b505050565b505050565b600080620003b7600760008573ffffffffffffffffffffffffffffffffffffffff1673ffffffffffffffffffffffffffffffffffffffff16815260200190815260200160002060006001815260200190815260200160002054436200054560201b62000a101790919060201c565b905060006200041d600760008673ffffffffffffffffffffffffffffffffffffffff1673ffffffffffffffffffffffffffffffffffffffff168152602001908152602001600020600060018152602001908152602001600020546200055d60201b60201c565b9050600062000432436200055d60201b60201c565b905060006200048360026200046f866200045b8688620005e560201b62000a261790919060201c565b620005fd60201b62000a3c1790919060201c565b6200061560201b62000a521790919060201c565b90506000620004cc600254620004b8620004a38a6200062d60201b60201c565b85620005fd60201b62000a3c1790919060201c565b6200061560201b62000a521790919060201c565b90506200053981600760008a73ffffffffffffffffffffffffffffffffffffffff1673ffffffffffffffffffffffffffffffffffffffff16815260200190815260200160002060006003815260200190815260200160002054620005e560201b62000a261790919060201c565b95505050505050919050565b6000818362000555919062000d6e565b905092915050565b6000600454821015620005705760045491505b6000620005a5760a70c3c40a64e6c51999090b65f67d9240000000000000600354620005fd60201b62000a3c1790919060201c565b90506000620005ba846200067560201b60201c565b90506000620005d882846200061560201b62000a521790919060201c565b9050809350505050919050565b60008183620005f5919062000d05565b905092915050565b600081836200060d919062000c37565b905092915050565b6000818362000625919062000dd8565b905092915050565b60008060008373ffffffffffffffffffffffffffffffffffffffff1673ffffffffffffffffffffffffffffffffffffffff168152602001908152602001600020549050919050565b600080620006b5600454620006a1670de0b6b3a764000086620005fd60201b62000a3c1790919060201c565b6200061560201b62000a521790919060201c565b9050620006ea81620006d68384620005fd60201b62000a3c1790919060201c565b620005fd60201b62000a3c1790919060201c565b905080915050919050565b600081519050919050565b7f4e487b7100000000000000000000000000000000000000000000000000000000600052604160045260246000fd5b7f4e487b7100000000000000000000000000000000000000000000000000000000600052602260045260246000fd5b600060028204905060018216806200077757607f821691505b6020821081036200078d576200078c6200072f565b5b50919050565b60008190508160005260206000209050919050565b60006020601f8301049050919050565b600082821b905092915050565b600060088302620007f77fffffffffffffffffffffffffffffffffffffffffffffffffffffffffffffffff82620007b8565b620008038683620007b8565b95508019841693508086168417925050509392505050565b6000819050919050565b6000819050919050565b6000620008506200084a62000844846200081b565b62000825565b6200081b565b9050919050565b6000819050919050565b6200086c836200082f565b620008846200087b8262000857565b848454620007c5565b825550505050565b600090565b6200089b6200088c565b620008a881848462000861565b505050565b5b81811015620008d057620008c460008262000891565b600181019050620008ae565b5050565b601f8211156200091f57620008e98162000793565b620008f484620007a8565b8101602085101562000904578190505b6200091c6200091385620007a8565b830182620008ad565b50505b505050565b600082821c905092915050565b6000620009446000198460080262000924565b1980831691505092915050565b60006200095f838362000931565b9150826002028217905092915050565b6200097a82620006f5565b67ffffffffffffffff81111562000996576200099562000700565b5b620009a282546200075e565b620009af828285620008d4565b600060209050601f831160018114620009e75760008415620009d2578287015190505b620009de858262000951565b86555062000a4e565b601f198416620009f78662000793565b60005b8281101562000a2157848901518255600182019150602085019450602081019050620009fa565b8683101562000a41578489015162000a3d601f89168262000931565b8355505b6001600288020188555050505b505050505050565b7f4e487b7100000000000000000000000000000000000000000000000000000000600052601160045260246000fd5b60008160011c9050919050565b6000808291508390505b600185111562000ae45780860481111562000abc5762000abb62000a56565b5b600185161562000acc5780820291505b808102905062000adc8562000a85565b945062000a9c565b94509492505050565b60008262000aff576001905062000bd2565b8162000b0f576000905062000bd2565b816001811462000b28576002811462000b335762000b69565b600191505062000bd2565b60ff84111562000b485762000b4762000a56565b5b8360020a91508482111562000b625762000b6162000a56565b5b5062000bd2565b5060208310610133831016604e8410600b841016171562000ba35782820a90508381111562000b9d5762000b9c62000a56565b5b62000bd2565b62000bb2848484600162000a92565b9250905081840481111562000bcc5762000bcb62000a56565b5b81810290505b9392505050565b600060ff82169050919050565b600062000bf3826200081b565b915062000c008362000bd9565b925062000c2f7fffffffffffffffffffffffffffffffffffffffffffffffffffffffffffffffff848462000aed565b905092915050565b600062000c44826200081b565b915062000c51836200081b565b925082820262000c61816200081b565b9150828204841483151762000c7b5762000c7a62000a56565b5b5092915050565b600082825260208201905092915050565b7f45524332303a206d696e7420746f20746865207a65726f206164647265737300600082015250565b600062000ccb601f8362000c82565b915062000cd88262000c93565b602082019050919050565b6000602082019050818103600083015262000cfe8162000cbc565b9050919050565b600062000d12826200081b565b915062000d1f836200081b565b925082820190508082111562000d3a5762000d3962000a56565b5b92915050565b62000d4b816200081b565b82525050565b600060208201905062000d68600083018462000d40565b92915050565b600062000d7b826200081b565b915062000d88836200081b565b925082820390508181111562000da35762000da262000a56565b5b92915050565b7f4e487b7100000000000000000000000000000000000000000000000000000000600052601260045260246000fd5b600062000de5826200081b565b915062000df2836200081b565b92508262000e055762000e0462000da9565b5b828204905092915050565b611d1a8062000e206000396000f3fe608060405234801561001057600080fd5b506004361061010b5760003560e01c806370a08231116100a2578063a9059cbb11610071578063a9059cbb146102e0578063b8ba600714610310578063d993226b14610340578063dd62ed3e14610370578063eff0730d146103a05761010b565b806370a082311461024657806379cc67901461027657806395d89b4114610292578063a457c2d7146102b05761010b565b8063313ce567116100de578063313ce567146101ac57806339509351146101ca57806342966c68146101fa5780634be3403c146102165761010b565b806306fdde0314610110578063095ea7b31461012e57806318160ddd1461015e57806323b872dd1461017c575b600080fd5b6101186103d0565b60405161012591906113d0565b60405180910390f35b6101486004803603810190610143919061148b565b610462565b60405161015591906114e6565b60405180910390f35b610166610485565b6040516101739190611510565b60405180910390f35b6101966004803603810190610191919061152b565b61048f565b6040516101a391906114e6565b60405180910390f35b6101b46104be565b6040516101c1919061159a565b60405180910390f35b6101e460048036038101906101df919061148b565b6104c7565b6040516101f191906114e6565b60405180910390f35b610214600480360381019061020f91906115b5565b6104fe565b005b610230600480360381019061022b91906115b5565b610512565b60405161023d9190611510565b60405180910390f35b610260600480360381019061025b91906115e2565b610583565b60405161026d9190611510565b60405180910390f35b610290600480360381019061028b919061148b565b6105cb565b005b61029a6105eb565b6040516102a791906113d0565b60405180910390f35b6102ca60048036038101906102c5919061148b565b61067d565b6040516102d791906114e6565b60405180910390f35b6102fa60048036038101906102f5919061148b565b6106f4565b60405161030791906114e6565b60405180910390f35b61032a600480360381019061032591906115e2565b610717565b6040516103379190611510565b60405180910390f35b61035a600480360381019061035591906115b5565b6108ca565b6040516103679190611510565b60405180910390f35b61038a6004803603810190610385919061160f565b61092e565b6040516103979190611510565b60405180910390f35b6103ba60048036038101906103b5919061148b565b6109b5565b6040516103c79190611510565b60405180910390f35b6060600580546103df9061167e565b80601f016020809104026020016040519081016040528092919081815260200182805461040b9061167e565b80156104585780601f1061042d57610100808354040283529160200191610458565b820191906000526020600020905b81548152906001019060200180831161043b57829003601f168201915b5050505050905090565b60008061046d610a68565b905061047a818585610a70565b600191505092915050565b6000600254905090565b60008061049a610a68565b90506104a7858285610c39565b6104b2858585610cc5565b60019150509392505050565b60006012905090565b6000806104d2610a68565b90506104f38185856104e4858961092e565b6104ee91906116de565b610a70565b600191505092915050565b61050f610509610a68565b826110ac565b50565b60006004548210156105245760045491505b6000610552760a70c3c40a64e6c51999090b65f67d9240000000000000600354610a3c90919063ffffffff16565b9050600061055f846108ca565b905060006105768284610a5290919063ffffffff16565b9050809350505050919050565b60008060008373ffffffffffffffffffffffffffffffffffffffff1673ffffffffffffffffffffffffffffffffffffffff168152602001908152602001600020549050919050565b6105dd826105d7610a68565b83610c39565b6105e782826110ac565b5050565b6060600680546105fa9061167e565b80601f01602080910402602001604051908101604052809291908181526020018280546106269061167e565b80156106735780601f1061064857610100808354040283529160200191610673565b820191906000526020600020905b81548152906001019060200180831161065657829003601f168201915b5050505050905090565b600080610688610a68565b90506000610696828661092e565b9050838110156106db576040517f08c379a00000000000000000000000000000000000000000000000000000000081526004016106d290611784565b60405180910390fd5b6106e88286868403610a70565b60019250505092915050565b6000806106ff610a68565b905061070c818585610cc5565b600191505092915050565b60008061077e600760008573ffffffffffffffffffffffffffffffffffffffff1673ffffffffffffffffffffffffffffffffffffffff1681526020019081526020016000206000600181526020019081526020016000205443610a1090919063ffffffff16565b905060006107dc600760008673ffffffffffffffffffffffffffffffffffffffff1673ffffffffffffffffffffffffffffffffffffffff16815260200190815260200160002060006001815260200190815260200160002054610512565b905060006107e943610512565b905060006108256002610817866108098688610a2690919063ffffffff16565b610a3c90919063ffffffff16565b610a5290919063ffffffff16565b9050600061085860025461084a61083b8a610583565b85610a3c90919063ffffffff16565b610a5290919063ffffffff16565b90506108be81600760008a73ffffffffffffffffffffffffffffffffffffffff1673ffffffffffffffffffffffffffffffffffffffff16815260200190815260200160002060006003815260200190815260200160002054610a2690919063ffffffff16565b95505050505050919050565b6000806108fc6004546108ee670de0b6b3a764000086610a3c90919063ffffffff16565b610a5290919063ffffffff16565b9050610923816109158384610a3c90919063ffffffff16565b610a3c90919063ffffffff16565b905080915050919050565b6000600160008473ffffffffffffffffffffffffffffffffffffffff1673ffffffffffffffffffffffffffffffffffffffff16815260200190815260200160002060008373ffffffffffffffffffffffffffffffffffffffff1673ffffffffffffffffffffffffffffffffffffffff16815260200190815260200160002054905092915050565b6000600760008473ffffffffffffffffffffffffffffffffffffffff1673ffffffffffffffffffffffffffffffffffffffff168152602001908152602001600020600083815260200190815260200160002054905092915050565b60008183610a1e91906117a4565b905092915050565b60008183610a3491906116de565b905092915050565b60008183610a4a91906117d8565b905092915050565b60008183610a609190611849565b905092915050565b600033905090565b600073ffffffffffffffffffffffffffffffffffffffff168373ffffffffffffffffffffffffffffffffffffffff1603610adf576040517f08c379a0000000000000000000000000000000000000000000000000000000008152600401610ad6906118ec565b60405180910390fd5b600073ffffffffffffffffffffffffffffffffffffffff168273ffffffffffffffffffffffffffffffffffffffff1603610b4e576040517f08c379a0000000000000000000000000000000000000000000000000000000008152600401610b459061197e565b60405180910390fd5b80600160008573ffffffffffffffffffffffffffffffffffffffff1673ffffffffffffffffffffffffffffffffffffffff16815260200190815260200160002060008473ffffffffffffffffffffffffffffffffffffffff1673ffffffffffffffffffffffffffffffffffffffff168152602001908152602001600020819055508173ffffffffffffffffffffffffffffffffffffffff168373ffffffffffffffffffffffffffffffffffffffff167f8c5be1e5ebec7d5bd14f71427d1e84f3dd0314c0f7b2291e5b200ac8c7c3b92583604051610c2c9190611510565b60405180910390a3505050565b6000610c45848461092e565b90507fffffffffffffffffffffffffffffffffffffffffffffffffffffffffffffffff8114610cbf5781811015610cb1576040517f08c379a0000000000000000000000000000000000000000000000000000000008152600401610ca8906119ea565b60405180910390fd5b610cbe8484848403610a70565b5b50505050565b600073ffffffffffffffffffffffffffffffffffffffff168373ffffffffffffffffffffffffffffffffffffffff1603610d34576040517f08c379a0000000000000000000000000000000000000000000000000000000008152600401610d2b90611a7c565b60405180910390fd5b600073ffffffffffffffffffffffffffffffffffffffff168273ffffffffffffffffffffffffffffffffffffffff1603610da3576040517f08c379a0000000000000000000000000000000000000000000000000000000008152600401610d9a90611b0e565b60405180910390fd5b610dac83610717565b600760008573ffffffffffffffffffffffffffffffffffffffff1673ffffffffffffffffffffffffffffffffffffffff16815260200190815260200160002060006003815260200190815260200160002081905550610e0a82610717565b600760008473ffffffffffffffffffffffffffffffffffffffff1673ffffffffffffffffffffffffffffffffffffffff16815260200190815260200160002060006003815260200190815260200160002081905550610e6a838383611336565b60008060008573ffffffffffffffffffffffffffffffffffffffff1673ffffffffffffffffffffffffffffffffffffffff16815260200190815260200160002054905081811015610ef0576040517f08c379a0000000000000000000000000000000000000000000000000000000008152600401610ee790611ba0565b60405180910390fd5b8181036000808673ffffffffffffffffffffffffffffffffffffffff1673ffffffffffffffffffffffffffffffffffffffff16815260200190815260200160002081905550816000808573ffffffffffffffffffffffffffffffffffffffff1673ffffffffffffffffffffffffffffffffffffffff1681526020019081526020016000206000828254610f8391906116de565b925050819055508273ffffffffffffffffffffffffffffffffffffffff168473ffffffffffffffffffffffffffffffffffffffff167fddf252ad1be2c89b69c2b068fc378daa952ba7f163c4a11628f55a4df523b3ef84604051610fe79190611510565b60405180910390a3610ffa84848461133b565b43600760008673ffffffffffffffffffffffffffffffffffffffff1673ffffffffffffffffffffffffffffffffffffffff1681526020019081526020016000206000600181526020019081526020016000208190555043600760008573ffffffffffffffffffffffffffffffffffffffff1673ffffffffffffffffffffffffffffffffffffffff1681526020019081526020016000206000600181526020019081526020016000208190555050505050565b600073ffffffffffffffffffffffffffffffffffffffff168273ffffffffffffffffffffffffffffffffffffffff160361111b576040517f08c379a000000000000000000000000000000000000000000000000000000000815260040161111290611c32565b60405180910390fd5b61112482610717565b600760008473ffffffffffffffffffffffffffffffffffffffff1673ffffffffffffffffffffffffffffffffffffffff1681526020019081526020016000206000600381526020019081526020016000208190555061118582600083611336565b60008060008473ffffffffffffffffffffffffffffffffffffffff1673ffffffffffffffffffffffffffffffffffffffff1681526020019081526020016000205490508181101561120b576040517f08c379a000000000000000000000000000000000000000000000000000000000815260040161120290611cc4565b60405180910390fd5b8181036000808573ffffffffffffffffffffffffffffffffffffffff1673ffffffffffffffffffffffffffffffffffffffff16815260200190815260200160002081905550816002600082825461126291906117a4565b92505081905550600073ffffffffffffffffffffffffffffffffffffffff168373ffffffffffffffffffffffffffffffffffffffff167fddf252ad1be2c89b69c2b068fc378daa952ba7f163c4a11628f55a4df523b3ef846040516112c79190611510565b60405180910390a36112db8360008461133b565b43600760008573ffffffffffffffffffffffffffffffffffffffff1673ffffffffffffffffffffffffffffffffffffffff16815260200190815260200160002060006001815260200190815260200160002081905550505050565b505050565b505050565b600081519050919050565b600082825260208201905092915050565b60005b8381101561137a57808201518184015260208101905061135f565b60008484015250505050565b6000601f19601f8301169050919050565b60006113a282611340565b6113ac818561134b565b93506113bc81856020860161135c565b6113c581611386565b840191505092915050565b600060208201905081810360008301526113ea8184611397565b905092915050565b600080fd5b600073ffffffffffffffffffffffffffffffffffffffff82169050919050565b6000611422826113f7565b9050919050565b61143281611417565b811461143d57600080fd5b50565b60008135905061144f81611429565b92915050565b6000819050919050565b61146881611455565b811461147357600080fd5b50565b6000813590506114858161145f565b92915050565b600080604083850312156114a2576114a16113f2565b5b60006114b085828601611440565b92505060206114c185828601611476565b9150509250929050565b60008115159050919050565b6114e0816114cb565b82525050565b60006020820190506114fb60008301846114d7565b92915050565b61150a81611455565b82525050565b60006020820190506115256000830184611501565b92915050565b600080600060608486031215611544576115436113f2565b5b600061155286828701611440565b935050602061156386828701611440565b925050604061157486828701611476565b9150509250925092565b600060ff82169050919050565b6115948161157e565b82525050565b60006020820190506115af600083018461158b565b92915050565b6000602082840312156115cb576115ca6113f2565b5b60006115d984828501611476565b91505092915050565b6000602082840312156115f8576115f76113f2565b5b600061160684828501611440565b91505092915050565b60008060408385031215611626576116256113f2565b5b600061163485828601611440565b925050602061164585828601611440565b9150509250929050565b7f4e487b7100000000000000000000000000000000000000000000000000000000600052602260045260246000fd5b6000600282049050600182168061169657607f821691505b6020821081036116a9576116a861164f565b5b50919050565b7f4e487b7100000000000000000000000000000000000000000000000000000000600052601160045260246000fd5b60006116e982611455565b91506116f483611455565b925082820190508082111561170c5761170b6116af565b5b92915050565b7f45524332303a2064656372656173656420616c6c6f77616e63652062656c6f7760008201527f207a65726f000000000000000000000000000000000000000000000000000000602082015250565b600061176e60258361134b565b915061177982611712565b604082019050919050565b6000602082019050818103600083015261179d81611761565b9050919050565b60006117af82611455565b91506117ba83611455565b92508282039050818111156117d2576117d16116af565b5b92915050565b60006117e382611455565b91506117ee83611455565b92508282026117fc81611455565b91508282048414831517611813576118126116af565b5b5092915050565b7f4e487b7100000000000000000000000000000000000000000000000000000000600052601260045260246000fd5b600061185482611455565b915061185f83611455565b92508261186f5761186e61181a565b5b828204905092915050565b7f45524332303a20617070726f76652066726f6d20746865207a65726f2061646460008201527f7265737300000000000000000000000000000000000000000000000000000000602082015250565b60006118d660248361134b565b91506118e18261187a565b604082019050919050565b60006020820190508181036000830152611905816118c9565b9050919050565b7f45524332303a20617070726f766520746f20746865207a65726f20616464726560008201527f7373000000000000000000000000000000000000000000000000000000000000602082015250565b600061196860228361134b565b91506119738261190c565b604082019050919050565b600060208201905081810360008301526119978161195b565b9050919050565b7f45524332303a20696e73756666696369656e7420616c6c6f77616e6365000000600082015250565b60006119d4601d8361134b565b91506119df8261199e565b602082019050919050565b60006020820190508181036000830152611a03816119c7565b9050919050565b7f45524332303a207472616e736665722066726f6d20746865207a65726f20616460008201527f6472657373000000000000000000000000000000000000000000000000000000602082015250565b6000611a6660258361134b565b9150611a7182611a0a565b604082019050919050565b60006020820190508181036000830152611a9581611a59565b9050919050565b7f45524332303a207472616e7366657220746f20746865207a65726f206164647260008201527f6573730000000000000000000000000000000000000000000000000000000000602082015250565b6000611af860238361134b565b9150611b0382611a9c565b604082019050919050565b60006020820190508181036000830152611b2781611aeb565b9050919050565b7f45524332303a207472616e7366657220616d6f756e742065786365656473206260008201527f616c616e63650000000000000000000000000000000000000000000000000000602082015250565b6000611b8a60268361134b565b9150611b9582611b2e565b604082019050919050565b60006020820190508181036000830152611bb981611b7d565b9050919050565b7f45524332303a206275726e2066726f6d20746865207a65726f2061646472657360008201527f7300000000000000000000000000000000000000000000000000000000000000602082015250565b6000611c1c60218361134b565b9150611c2782611bc0565b604082019050919050565b60006020820190508181036000830152611c4b81611c0f565b9050919050565b7f45524332303a206275726e20616d6f756e7420657863656564732062616c616e60008201527f6365000000000000000000000000000000000000000000000000000000000000602082015250565b6000611cae60228361134b565b9150611cb982611c52565b604082019050919050565b60006020820190508181036000830152611cdd81611ca1565b905091905056fea2646970667358221220420d9c73ed2e2c4fbd392b6fd3269c35f7f5f65114dd1b9cae84f18066d9840664736f6c63430008110033",
					"opcodes": "PUSH1 0x80 PUSH1 0x40 MSTORE CALLVALUE DUP1 ISZERO PUSH3 0x11 JUMPI PUSH1 0x0 DUP1 REVERT JUMPDEST POP PUSH1 0x40 MLOAD DUP1 PUSH1 0x40 ADD PUSH1 0x40 MSTORE DUP1 PUSH1 0x9 DUP2 MSTORE PUSH1 0x20 ADD PUSH32 0x6D696E65506F7765720000000000000000000000000000000000000000000000 DUP2 MSTORE POP PUSH1 0x40 MLOAD DUP1 PUSH1 0x40 ADD PUSH1 0x40 MSTORE DUP1 PUSH1 0x6 DUP2 MSTORE PUSH1 0x20 ADD PUSH32 0x4D506F7765720000000000000000000000000000000000000000000000000000 DUP2 MSTORE POP NUMBER DUP3 PUSH1 0x5 SWAP1 DUP2 PUSH3 0x90 SWAP2 SWAP1 PUSH3 0x96F JUMP JUMPDEST POP DUP2 PUSH1 0x6 SWAP1 DUP2 PUSH3 0xA2 SWAP2 SWAP1 PUSH3 0x96F JUMP JUMPDEST POP PUSH8 0x4563918244F40000 PUSH1 0x3 DUP2 SWAP1 SSTORE POP DUP1 PUSH1 0x4 DUP2 SWAP1 SSTORE POP POP POP POP PUSH3 0xFC CALLER PUSH3 0xD1 PUSH3 0x102 PUSH1 0x20 SHL PUSH1 0x20 SHR JUMP JUMPDEST PUSH1 0xA PUSH3 0xDF SWAP2 SWAP1 PUSH3 0xBE6 JUMP JUMPDEST PUSH4 0x3938700 PUSH3 0xF0 SWAP2 SWAP1 PUSH3 0xC37 JUMP JUMPDEST PUSH3 0x10B PUSH1 0x20 SHL PUSH1 0x20 SHR JUMP JUMPDEST PUSH3 0xE10 JUMP JUMPDEST PUSH1 0x0 PUSH1 0x12 SWAP1 POP SWAP1 JUMP JUMPDEST PUSH1 0x0 PUSH20 0xFFFFFFFFFFFFFFFFFFFFFFFFFFFFFFFFFFFFFFFF AND DUP3 PUSH20 0xFFFFFFFFFFFFFFFFFFFFFFFFFFFFFFFFFFFFFFFF AND SUB PUSH3 0x17D JUMPI PUSH1 0x40 MLOAD PUSH32 0x8C379A000000000000000000000000000000000000000000000000000000000 DUP2 MSTORE PUSH1 0x4 ADD PUSH3 0x174 SWAP1 PUSH3 0xCE3 JUMP JUMPDEST PUSH1 0x40 MLOAD DUP1 SWAP2 SUB SWAP1 REVERT JUMPDEST NUMBER PUSH1 0x7 PUSH1 0x0 DUP5 PUSH20 0xFFFFFFFFFFFFFFFFFFFFFFFFFFFFFFFFFFFFFFFF AND PUSH20 0xFFFFFFFFFFFFFFFFFFFFFFFFFFFFFFFFFFFFFFFF AND DUP2 MSTORE PUSH1 0x20 ADD SWAP1 DUP2 MSTORE PUSH1 0x20 ADD PUSH1 0x0 KECCAK256 PUSH1 0x0 PUSH1 0x1 DUP2 MSTORE PUSH1 0x20 ADD SWAP1 DUP2 MSTORE PUSH1 0x20 ADD PUSH1 0x0 KECCAK256 DUP2 SWAP1 SSTORE POP PUSH3 0x1E7 PUSH1 0x0 DUP4 DUP4 PUSH3 0x33F PUSH1 0x20 SHL PUSH1 0x20 SHR JUMP JUMPDEST DUP1 PUSH1 0x2 PUSH1 0x0 DUP3 DUP3 SLOAD PUSH3 0x1FB SWAP2 SWAP1 PUSH3 0xD05 JUMP JUMPDEST SWAP3 POP POP DUP2 SWAP1 SSTORE POP DUP1 PUSH1 0x0 DUP1 DUP5 PUSH20 0xFFFFFFFFFFFFFFFFFFFFFFFFFFFFFFFFFFFFFFFF AND PUSH20 0xFFFFFFFFFFFFFFFFFFFFFFFFFFFFFFFFFFFFFFFF AND DUP2 MSTORE PUSH1 0x20 ADD SWAP1 DUP2 MSTORE PUSH1 0x20 ADD PUSH1 0x0 KECCAK256 PUSH1 0x0 DUP3 DUP3 SLOAD PUSH3 0x252 SWAP2 SWAP1 PUSH3 0xD05 JUMP JUMPDEST SWAP3 POP POP DUP2 SWAP1 SSTORE POP DUP2 PUSH20 0xFFFFFFFFFFFFFFFFFFFFFFFFFFFFFFFFFFFFFFFF AND PUSH1 0x0 PUSH20 0xFFFFFFFFFFFFFFFFFFFFFFFFFFFFFFFFFFFFFFFF AND PUSH32 0xDDF252AD1BE2C89B69C2B068FC378DAA952BA7F163C4A11628F55A4DF523B3EF DUP4 PUSH1 0x40 MLOAD PUSH3 0x2B9 SWAP2 SWAP1 PUSH3 0xD51 JUMP JUMPDEST PUSH1 0x40 MLOAD DUP1 SWAP2 SUB SWAP1 LOG3 PUSH3 0x2D5 PUSH1 0x0 DUP4 DUP4 PUSH3 0x344 PUSH1 0x20 SHL PUSH1 0x20 SHR JUMP JUMPDEST PUSH3 0x2E6 DUP3 PUSH3 0x349 PUSH1 0x20 SHL PUSH1 0x20 SHR JUMP JUMPDEST PUSH1 0x7 PUSH1 0x0 DUP5 PUSH20 0xFFFFFFFFFFFFFFFFFFFFFFFFFFFFFFFFFFFFFFFF AND PUSH20 0xFFFFFFFFFFFFFFFFFFFFFFFFFFFFFFFFFFFFFFFF AND DUP2 MSTORE PUSH1 0x20 ADD SWAP1 DUP2 MSTORE PUSH1 0x20 ADD PUSH1 0x0 KECCAK256 PUSH1 0x0 PUSH1 0x3 DUP2 MSTORE PUSH1 0x20 ADD SWAP1 DUP2 MSTORE PUSH1 0x20 ADD PUSH1 0x0 KECCAK256 DUP2 SWAP1 SSTORE POP POP POP JUMP JUMPDEST POP POP POP JUMP JUMPDEST POP POP POP JUMP JUMPDEST PUSH1 0x0 DUP1 PUSH3 0x3B7 PUSH1 0x7 PUSH1 0x0 DUP6 PUSH20 0xFFFFFFFFFFFFFFFFFFFFFFFFFFFFFFFFFFFFFFFF AND PUSH20 0xFFFFFFFFFFFFFFFFFFFFFFFFFFFFFFFFFFFFFFFF AND DUP2 MSTORE PUSH1 0x20 ADD SWAP1 DUP2 MSTORE PUSH1 0x20 ADD PUSH1 0x0 KECCAK256 PUSH1 0x0 PUSH1 0x1 DUP2 MSTORE PUSH1 0x20 ADD SWAP1 DUP2 MSTORE PUSH1 0x20 ADD PUSH1 0x0 KECCAK256 SLOAD NUMBER PUSH3 0x545 PUSH1 0x20 SHL PUSH3 0xA10 OR SWAP1 SWAP2 SWAP1 PUSH1 0x20 SHR JUMP JUMPDEST SWAP1 POP PUSH1 0x0 PUSH3 0x41D PUSH1 0x7 PUSH1 0x0 DUP7 PUSH20 0xFFFFFFFFFFFFFFFFFFFFFFFFFFFFFFFFFFFFFFFF AND PUSH20 0xFFFFFFFFFFFFFFFFFFFFFFFFFFFFFFFFFFFFFFFF AND DUP2 MSTORE PUSH1 0x20 ADD SWAP1 DUP2 MSTORE PUSH1 0x20 ADD PUSH1 0x0 KECCAK256 PUSH1 0x0 PUSH1 0x1 DUP2 MSTORE PUSH1 0x20 ADD SWAP1 DUP2 MSTORE PUSH1 0x20 ADD PUSH1 0x0 KECCAK256 SLOAD PUSH3 0x55D PUSH1 0x20 SHL PUSH1 0x20 SHR JUMP JUMPDEST SWAP1 POP PUSH1 0x0 PUSH3 0x432 NUMBER PUSH3 0x55D PUSH1 0x20 SHL PUSH1 0x20 SHR JUMP JUMPDEST SWAP1 POP PUSH1 0x0 PUSH3 0x483 PUSH1 0x2 PUSH3 0x46F DUP7 PUSH3 0x45B DUP7 DUP9 PUSH3 0x5E5 PUSH1 0x20 SHL PUSH3 0xA26 OR SWAP1 SWAP2 SWAP1 PUSH1 0x20 SHR JUMP JUMPDEST PUSH3 0x5FD PUSH1 0x20 SHL PUSH3 0xA3C OR SWAP1 SWAP2 SWAP1 PUSH1 0x20 SHR JUMP JUMPDEST PUSH3 0x615 PUSH1 0x20 SHL PUSH3 0xA52 OR SWAP1 SWAP2 SWAP1 PUSH1 0x20 SHR JUMP JUMPDEST SWAP1 POP PUSH1 0x0 PUSH3 0x4CC PUSH1 0x2 SLOAD PUSH3 0x4B8 PUSH3 0x4A3 DUP11 PUSH3 0x62D PUSH1 0x20 SHL PUSH1 0x20 SHR JUMP JUMPDEST DUP6 PUSH3 0x5FD PUSH1 0x20 SHL PUSH3 0xA3C OR SWAP1 SWAP2 SWAP1 PUSH1 0x20 SHR JUMP JUMPDEST PUSH3 0x615 PUSH1 0x20 SHL PUSH3 0xA52 OR SWAP1 SWAP2 SWAP1 PUSH1 0x20 SHR JUMP JUMPDEST SWAP1 POP PUSH3 0x539 DUP2 PUSH1 0x7 PUSH1 0x0 DUP11 PUSH20 0xFFFFFFFFFFFFFFFFFFFFFFFFFFFFFFFFFFFFFFFF AND PUSH20 0xFFFFFFFFFFFFFFFFFFFFFFFFFFFFFFFFFFFFFFFF AND DUP2 MSTORE PUSH1 0x20 ADD SWAP1 DUP2 MSTORE PUSH1 0x20 ADD PUSH1 0x0 KECCAK256 PUSH1 0x0 PUSH1 0x3 DUP2 MSTORE PUSH1 0x20 ADD SWAP1 DUP2 MSTORE PUSH1 0x20 ADD PUSH1 0x0 KECCAK256 SLOAD PUSH3 0x5E5 PUSH1 0x20 SHL PUSH3 0xA26 OR SWAP1 SWAP2 SWAP1 PUSH1 0x20 SHR JUMP JUMPDEST SWAP6 POP POP POP POP POP POP SWAP2 SWAP1 POP JUMP JUMPDEST PUSH1 0x0 DUP2 DUP4 PUSH3 0x555 SWAP2 SWAP1 PUSH3 0xD6E JUMP JUMPDEST SWAP1 POP SWAP3 SWAP2 POP POP JUMP JUMPDEST PUSH1 0x0 PUSH1 0x4 SLOAD DUP3 LT ISZERO PUSH3 0x570 JUMPI PUSH1 0x4 SLOAD SWAP2 POP JUMPDEST PUSH1 0x0 PUSH3 0x5A5 PUSH23 0xA70C3C40A64E6C51999090B65F67D9240000000000000 PUSH1 0x3 SLOAD PUSH3 0x5FD PUSH1 0x20 SHL PUSH3 0xA3C OR SWAP1 SWAP2 SWAP1 PUSH1 0x20 SHR JUMP JUMPDEST SWAP1 POP PUSH1 0x0 PUSH3 0x5BA DUP5 PUSH3 0x675 PUSH1 0x20 SHL PUSH1 0x20 SHR JUMP JUMPDEST SWAP1 POP PUSH1 0x0 PUSH3 0x5D8 DUP3 DUP5 PUSH3 0x615 PUSH1 0x20 SHL PUSH3 0xA52 OR SWAP1 SWAP2 SWAP1 PUSH1 0x20 SHR JUMP JUMPDEST SWAP1 POP DUP1 SWAP4 POP POP POP POP SWAP2 SWAP1 POP JUMP JUMPDEST PUSH1 0x0 DUP2 DUP4 PUSH3 0x5F5 SWAP2 SWAP1 PUSH3 0xD05 JUMP JUMPDEST SWAP1 POP SWAP3 SWAP2 POP POP JUMP JUMPDEST PUSH1 0x0 DUP2 DUP4 PUSH3 0x60D SWAP2 SWAP1 PUSH3 0xC37 JUMP JUMPDEST SWAP1 POP SWAP3 SWAP2 POP POP JUMP JUMPDEST PUSH1 0x0 DUP2 DUP4 PUSH3 0x625 SWAP2 SWAP1 PUSH3 0xDD8 JUMP JUMPDEST SWAP1 POP SWAP3 SWAP2 POP POP JUMP JUMPDEST PUSH1 0x0 DUP1 PUSH1 0x0 DUP4 PUSH20 0xFFFFFFFFFFFFFFFFFFFFFFFFFFFFFFFFFFFFFFFF AND PUSH20 0xFFFFFFFFFFFFFFFFFFFFFFFFFFFFFFFFFFFFFFFF AND DUP2 MSTORE PUSH1 0x20 ADD SWAP1 DUP2 MSTORE PUSH1 0x20 ADD PUSH1 0x0 KECCAK256 SLOAD SWAP1 POP SWAP2 SWAP1 POP JUMP JUMPDEST PUSH1 0x0 DUP1 PUSH3 0x6B5 PUSH1 0x4 SLOAD PUSH3 0x6A1 PUSH8 0xDE0B6B3A7640000 DUP7 PUSH3 0x5FD PUSH1 0x20 SHL PUSH3 0xA3C OR SWAP1 SWAP2 SWAP1 PUSH1 0x20 SHR JUMP JUMPDEST PUSH3 0x615 PUSH1 0x20 SHL PUSH3 0xA52 OR SWAP1 SWAP2 SWAP1 PUSH1 0x20 SHR JUMP JUMPDEST SWAP1 POP PUSH3 0x6EA DUP2 PUSH3 0x6D6 DUP4 DUP5 PUSH3 0x5FD PUSH1 0x20 SHL PUSH3 0xA3C OR SWAP1 SWAP2 SWAP1 PUSH1 0x20 SHR JUMP JUMPDEST PUSH3 0x5FD PUSH1 0x20 SHL PUSH3 0xA3C OR SWAP1 SWAP2 SWAP1 PUSH1 0x20 SHR JUMP JUMPDEST SWAP1 POP DUP1 SWAP2 POP POP SWAP2 SWAP1 POP JUMP JUMPDEST PUSH1 0x0 DUP2 MLOAD SWAP1 POP SWAP2 SWAP1 POP JUMP JUMPDEST PUSH32 0x4E487B7100000000000000000000000000000000000000000000000000000000 PUSH1 0x0 MSTORE PUSH1 0x41 PUSH1 0x4 MSTORE PUSH1 0x24 PUSH1 0x0 REVERT JUMPDEST PUSH32 0x4E487B7100000000000000000000000000000000000000000000000000000000 PUSH1 0x0 MSTORE PUSH1 0x22 PUSH1 0x4 MSTORE PUSH1 0x24 PUSH1 0x0 REVERT JUMPDEST PUSH1 0x0 PUSH1 0x2 DUP3 DIV SWAP1 POP PUSH1 0x1 DUP3 AND DUP1 PUSH3 0x777 JUMPI PUSH1 0x7F DUP3 AND SWAP2 POP JUMPDEST PUSH1 0x20 DUP3 LT DUP2 SUB PUSH3 0x78D JUMPI PUSH3 0x78C PUSH3 0x72F JUMP JUMPDEST JUMPDEST POP SWAP2 SWAP1 POP JUMP JUMPDEST PUSH1 0x0 DUP2 SWAP1 POP DUP2 PUSH1 0x0 MSTORE PUSH1 0x20 PUSH1 0x0 KECCAK256 SWAP1 POP SWAP2 SWAP1 POP JUMP JUMPDEST PUSH1 0x0 PUSH1 0x20 PUSH1 0x1F DUP4 ADD DIV SWAP1 POP SWAP2 SWAP1 POP JUMP JUMPDEST PUSH1 0x0 DUP3 DUP3 SHL SWAP1 POP SWAP3 SWAP2 POP POP JUMP JUMPDEST PUSH1 0x0 PUSH1 0x8 DUP4 MUL PUSH3 0x7F7 PUSH32 0xFFFFFFFFFFFFFFFFFFFFFFFFFFFFFFFFFFFFFFFFFFFFFFFFFFFFFFFFFFFFFFFF DUP3 PUSH3 0x7B8 JUMP JUMPDEST PUSH3 0x803 DUP7 DUP4 PUSH3 0x7B8 JUMP JUMPDEST SWAP6 POP DUP1 NOT DUP5 AND SWAP4 POP DUP1 DUP7 AND DUP5 OR SWAP3 POP POP POP SWAP4 SWAP3 POP POP POP JUMP JUMPDEST PUSH1 0x0 DUP2 SWAP1 POP SWAP2 SWAP1 POP JUMP JUMPDEST PUSH1 0x0 DUP2 SWAP1 POP SWAP2 SWAP1 POP JUMP JUMPDEST PUSH1 0x0 PUSH3 0x850 PUSH3 0x84A PUSH3 0x844 DUP5 PUSH3 0x81B JUMP JUMPDEST PUSH3 0x825 JUMP JUMPDEST PUSH3 0x81B JUMP JUMPDEST SWAP1 POP SWAP2 SWAP1 POP JUMP JUMPDEST PUSH1 0x0 DUP2 SWAP1 POP SWAP2 SWAP1 POP JUMP JUMPDEST PUSH3 0x86C DUP4 PUSH3 0x82F JUMP JUMPDEST PUSH3 0x884 PUSH3 0x87B DUP3 PUSH3 0x857 JUMP JUMPDEST DUP5 DUP5 SLOAD PUSH3 0x7C5 JUMP JUMPDEST DUP3 SSTORE POP POP POP POP JUMP JUMPDEST PUSH1 0x0 SWAP1 JUMP JUMPDEST PUSH3 0x89B PUSH3 0x88C JUMP JUMPDEST PUSH3 0x8A8 DUP2 DUP5 DUP5 PUSH3 0x861 JUMP JUMPDEST POP POP POP JUMP JUMPDEST JUMPDEST DUP2 DUP2 LT ISZERO PUSH3 0x8D0 JUMPI PUSH3 0x8C4 PUSH1 0x0 DUP3 PUSH3 0x891 JUMP JUMPDEST PUSH1 0x1 DUP2 ADD SWAP1 POP PUSH3 0x8AE JUMP JUMPDEST POP POP JUMP JUMPDEST PUSH1 0x1F DUP3 GT ISZERO PUSH3 0x91F JUMPI PUSH3 0x8E9 DUP2 PUSH3 0x793 JUMP JUMPDEST PUSH3 0x8F4 DUP5 PUSH3 0x7A8 JUMP JUMPDEST DUP2 ADD PUSH1 0x20 DUP6 LT ISZERO PUSH3 0x904 JUMPI DUP2 SWAP1 POP JUMPDEST PUSH3 0x91C PUSH3 0x913 DUP6 PUSH3 0x7A8 JUMP JUMPDEST DUP4 ADD DUP3 PUSH3 0x8AD JUMP JUMPDEST POP POP JUMPDEST POP POP POP JUMP JUMPDEST PUSH1 0x0 DUP3 DUP3 SHR SWAP1 POP SWAP3 SWAP2 POP POP JUMP JUMPDEST PUSH1 0x0 PUSH3 0x944 PUSH1 0x0 NOT DUP5 PUSH1 0x8 MUL PUSH3 0x924 JUMP JUMPDEST NOT DUP1 DUP4 AND SWAP2 POP POP SWAP3 SWAP2 POP POP JUMP JUMPDEST PUSH1 0x0 PUSH3 0x95F DUP4 DUP4 PUSH3 0x931 JUMP JUMPDEST SWAP2 POP DUP3 PUSH1 0x2 MUL DUP3 OR SWAP1 POP SWAP3 SWAP2 POP POP JUMP JUMPDEST PUSH3 0x97A DUP3 PUSH3 0x6F5 JUMP JUMPDEST PUSH8 0xFFFFFFFFFFFFFFFF DUP2 GT ISZERO PUSH3 0x996 JUMPI PUSH3 0x995 PUSH3 0x700 JUMP JUMPDEST JUMPDEST PUSH3 0x9A2 DUP3 SLOAD PUSH3 0x75E JUMP JUMPDEST PUSH3 0x9AF DUP3 DUP3 DUP6 PUSH3 0x8D4 JUMP JUMPDEST PUSH1 0x0 PUSH1 0x20 SWAP1 POP PUSH1 0x1F DUP4 GT PUSH1 0x1 DUP2 EQ PUSH3 0x9E7 JUMPI PUSH1 0x0 DUP5 ISZERO PUSH3 0x9D2 JUMPI DUP3 DUP8 ADD MLOAD SWAP1 POP JUMPDEST PUSH3 0x9DE DUP6 DUP3 PUSH3 0x951 JUMP JUMPDEST DUP7 SSTORE POP PUSH3 0xA4E JUMP JUMPDEST PUSH1 0x1F NOT DUP5 AND PUSH3 0x9F7 DUP7 PUSH3 0x793 JUMP JUMPDEST PUSH1 0x0 JUMPDEST DUP3 DUP2 LT ISZERO PUSH3 0xA21 JUMPI DUP5 DUP10 ADD MLOAD DUP3 SSTORE PUSH1 0x1 DUP3 ADD SWAP2 POP PUSH1 0x20 DUP6 ADD SWAP5 POP PUSH1 0x20 DUP2 ADD SWAP1 POP PUSH3 0x9FA JUMP JUMPDEST DUP7 DUP4 LT ISZERO PUSH3 0xA41 JUMPI DUP5 DUP10 ADD MLOAD PUSH3 0xA3D PUSH1 0x1F DUP10 AND DUP3 PUSH3 0x931 JUMP JUMPDEST DUP4 SSTORE POP JUMPDEST PUSH1 0x1 PUSH1 0x2 DUP9 MUL ADD DUP9 SSTORE POP POP POP JUMPDEST POP POP POP POP POP POP JUMP JUMPDEST PUSH32 0x4E487B7100000000000000000000000000000000000000000000000000000000 PUSH1 0x0 MSTORE PUSH1 0x11 PUSH1 0x4 MSTORE PUSH1 0x24 PUSH1 0x0 REVERT JUMPDEST PUSH1 0x0 DUP2 PUSH1 0x1 SHR SWAP1 POP SWAP2 SWAP1 POP JUMP JUMPDEST PUSH1 0x0 DUP1 DUP3 SWAP2 POP DUP4 SWAP1 POP JUMPDEST PUSH1 0x1 DUP6 GT ISZERO PUSH3 0xAE4 JUMPI DUP1 DUP7 DIV DUP2 GT ISZERO PUSH3 0xABC JUMPI PUSH3 0xABB PUSH3 0xA56 JUMP JUMPDEST JUMPDEST PUSH1 0x1 DUP6 AND ISZERO PUSH3 0xACC JUMPI DUP1 DUP3 MUL SWAP2 POP JUMPDEST DUP1 DUP2 MUL SWAP1 POP PUSH3 0xADC DUP6 PUSH3 0xA85 JUMP JUMPDEST SWAP5 POP PUSH3 0xA9C JUMP JUMPDEST SWAP5 POP SWAP5 SWAP3 POP POP POP JUMP JUMPDEST PUSH1 0x0 DUP3 PUSH3 0xAFF JUMPI PUSH1 0x1 SWAP1 POP PUSH3 0xBD2 JUMP JUMPDEST DUP2 PUSH3 0xB0F JUMPI PUSH1 0x0 SWAP1 POP PUSH3 0xBD2 JUMP JUMPDEST DUP2 PUSH1 0x1 DUP2 EQ PUSH3 0xB28 JUMPI PUSH1 0x2 DUP2 EQ PUSH3 0xB33 JUMPI PUSH3 0xB69 JUMP JUMPDEST PUSH1 0x1 SWAP2 POP POP PUSH3 0xBD2 JUMP JUMPDEST PUSH1 0xFF DUP5 GT ISZERO PUSH3 0xB48 JUMPI PUSH3 0xB47 PUSH3 0xA56 JUMP JUMPDEST JUMPDEST DUP4 PUSH1 0x2 EXP SWAP2 POP DUP5 DUP3 GT ISZERO PUSH3 0xB62 JUMPI PUSH3 0xB61 PUSH3 0xA56 JUMP JUMPDEST JUMPDEST POP PUSH3 0xBD2 JUMP JUMPDEST POP PUSH1 0x20 DUP4 LT PUSH2 0x133 DUP4 LT AND PUSH1 0x4E DUP5 LT PUSH1 0xB DUP5 LT AND OR ISZERO PUSH3 0xBA3 JUMPI DUP3 DUP3 EXP SWAP1 POP DUP4 DUP2 GT ISZERO PUSH3 0xB9D JUMPI PUSH3 0xB9C PUSH3 0xA56 JUMP JUMPDEST JUMPDEST PUSH3 0xBD2 JUMP JUMPDEST PUSH3 0xBB2 DUP5 DUP5 DUP5 PUSH1 0x1 PUSH3 0xA92 JUMP JUMPDEST SWAP3 POP SWAP1 POP DUP2 DUP5 DIV DUP2 GT ISZERO PUSH3 0xBCC JUMPI PUSH3 0xBCB PUSH3 0xA56 JUMP JUMPDEST JUMPDEST DUP2 DUP2 MUL SWAP1 POP JUMPDEST SWAP4 SWAP3 POP POP POP JUMP JUMPDEST PUSH1 0x0 PUSH1 0xFF DUP3 AND SWAP1 POP SWAP2 SWAP1 POP JUMP JUMPDEST PUSH1 0x0 PUSH3 0xBF3 DUP3 PUSH3 0x81B JUMP JUMPDEST SWAP2 POP PUSH3 0xC00 DUP4 PUSH3 0xBD9 JUMP JUMPDEST SWAP3 POP PUSH3 0xC2F PUSH32 0xFFFFFFFFFFFFFFFFFFFFFFFFFFFFFFFFFFFFFFFFFFFFFFFFFFFFFFFFFFFFFFFF DUP5 DUP5 PUSH3 0xAED JUMP JUMPDEST SWAP1 POP SWAP3 SWAP2 POP POP JUMP JUMPDEST PUSH1 0x0 PUSH3 0xC44 DUP3 PUSH3 0x81B JUMP JUMPDEST SWAP2 POP PUSH3 0xC51 DUP4 PUSH3 0x81B JUMP JUMPDEST SWAP3 POP DUP3 DUP3 MUL PUSH3 0xC61 DUP2 PUSH3 0x81B JUMP JUMPDEST SWAP2 POP DUP3 DUP3 DIV DUP5 EQ DUP4 ISZERO OR PUSH3 0xC7B JUMPI PUSH3 0xC7A PUSH3 0xA56 JUMP JUMPDEST JUMPDEST POP SWAP3 SWAP2 POP POP JUMP JUMPDEST PUSH1 0x0 DUP3 DUP3 MSTORE PUSH1 0x20 DUP3 ADD SWAP1 POP SWAP3 SWAP2 POP POP JUMP JUMPDEST PUSH32 0x45524332303A206D696E7420746F20746865207A65726F206164647265737300 PUSH1 0x0 DUP3 ADD MSTORE POP JUMP JUMPDEST PUSH1 0x0 PUSH3 0xCCB PUSH1 0x1F DUP4 PUSH3 0xC82 JUMP JUMPDEST SWAP2 POP PUSH3 0xCD8 DUP3 PUSH3 0xC93 JUMP JUMPDEST PUSH1 0x20 DUP3 ADD SWAP1 POP SWAP2 SWAP1 POP JUMP JUMPDEST PUSH1 0x0 PUSH1 0x20 DUP3 ADD SWAP1 POP DUP2 DUP2 SUB PUSH1 0x0 DUP4 ADD MSTORE PUSH3 0xCFE DUP2 PUSH3 0xCBC JUMP JUMPDEST SWAP1 POP SWAP2 SWAP1 POP JUMP JUMPDEST PUSH1 0x0 PUSH3 0xD12 DUP3 PUSH3 0x81B JUMP JUMPDEST SWAP2 POP PUSH3 0xD1F DUP4 PUSH3 0x81B JUMP JUMPDEST SWAP3 POP DUP3 DUP3 ADD SWAP1 POP DUP1 DUP3 GT ISZERO PUSH3 0xD3A JUMPI PUSH3 0xD39 PUSH3 0xA56 JUMP JUMPDEST JUMPDEST SWAP3 SWAP2 POP POP JUMP JUMPDEST PUSH3 0xD4B DUP2 PUSH3 0x81B JUMP JUMPDEST DUP3 MSTORE POP POP JUMP JUMPDEST PUSH1 0x0 PUSH1 0x20 DUP3 ADD SWAP1 POP PUSH3 0xD68 PUSH1 0x0 DUP4 ADD DUP5 PUSH3 0xD40 JUMP JUMPDEST SWAP3 SWAP2 POP POP JUMP JUMPDEST PUSH1 0x0 PUSH3 0xD7B DUP3 PUSH3 0x81B JUMP JUMPDEST SWAP2 POP PUSH3 0xD88 DUP4 PUSH3 0x81B JUMP JUMPDEST SWAP3 POP DUP3 DUP3 SUB SWAP1 POP DUP2 DUP2 GT ISZERO PUSH3 0xDA3 JUMPI PUSH3 0xDA2 PUSH3 0xA56 JUMP JUMPDEST JUMPDEST SWAP3 SWAP2 POP POP JUMP JUMPDEST PUSH32 0x4E487B7100000000000000000000000000000000000000000000000000000000 PUSH1 0x0 MSTORE PUSH1 0x12 PUSH1 0x4 MSTORE PUSH1 0x24 PUSH1 0x0 REVERT JUMPDEST PUSH1 0x0 PUSH3 0xDE5 DUP3 PUSH3 0x81B JUMP JUMPDEST SWAP2 POP PUSH3 0xDF2 DUP4 PUSH3 0x81B JUMP JUMPDEST SWAP3 POP DUP3 PUSH3 0xE05 JUMPI PUSH3 0xE04 PUSH3 0xDA9 JUMP JUMPDEST JUMPDEST DUP3 DUP3 DIV SWAP1 POP SWAP3 SWAP2 POP POP JUMP JUMPDEST PUSH2 0x1D1A DUP1 PUSH3 0xE20 PUSH1 0x0 CODECOPY PUSH1 0x0 RETURN INVALID PUSH1 0x80 PUSH1 0x40 MSTORE CALLVALUE DUP1 ISZERO PUSH2 0x10 JUMPI PUSH1 0x0 DUP1 REVERT JUMPDEST POP PUSH1 0x4 CALLDATASIZE LT PUSH2 0x10B JUMPI PUSH1 0x0 CALLDATALOAD PUSH1 0xE0 SHR DUP1 PUSH4 0x70A08231 GT PUSH2 0xA2 JUMPI DUP1 PUSH4 0xA9059CBB GT PUSH2 0x71 JUMPI DUP1 PUSH4 0xA9059CBB EQ PUSH2 0x2E0 JUMPI DUP1 PUSH4 0xB8BA6007 EQ PUSH2 0x310 JUMPI DUP1 PUSH4 0xD993226B EQ PUSH2 0x340 JUMPI DUP1 PUSH4 0xDD62ED3E EQ PUSH2 0x370 JUMPI DUP1 PUSH4 0xEFF0730D EQ PUSH2 0x3A0 JUMPI PUSH2 0x10B JUMP JUMPDEST DUP1 PUSH4 0x70A08231 EQ PUSH2 0x246 JUMPI DUP1 PUSH4 0x79CC6790 EQ PUSH2 0x276 JUMPI DUP1 PUSH4 0x95D89B41 EQ PUSH2 0x292 JUMPI DUP1 PUSH4 0xA457C2D7 EQ PUSH2 0x2B0 JUMPI PUSH2 0x10B JUMP JUMPDEST DUP1 PUSH4 0x313CE567 GT PUSH2 0xDE JUMPI DUP1 PUSH4 0x313CE567 EQ PUSH2 0x1AC JUMPI DUP1 PUSH4 0x39509351 EQ PUSH2 0x1CA JUMPI DUP1 PUSH4 0x42966C68 EQ PUSH2 0x1FA JUMPI DUP1 PUSH4 0x4BE3403C EQ PUSH2 0x216 JUMPI PUSH2 0x10B JUMP JUMPDEST DUP1 PUSH4 0x6FDDE03 EQ PUSH2 0x110 JUMPI DUP1 PUSH4 0x95EA7B3 EQ PUSH2 0x12E JUMPI DUP1 PUSH4 0x18160DDD EQ PUSH2 0x15E JUMPI DUP1 PUSH4 0x23B872DD EQ PUSH2 0x17C JUMPI JUMPDEST PUSH1 0x0 DUP1 REVERT JUMPDEST PUSH2 0x118 PUSH2 0x3D0 JUMP JUMPDEST PUSH1 0x40 MLOAD PUSH2 0x125 SWAP2 SWAP1 PUSH2 0x13D0 JUMP JUMPDEST PUSH1 0x40 MLOAD DUP1 SWAP2 SUB SWAP1 RETURN JUMPDEST PUSH2 0x148 PUSH1 0x4 DUP1 CALLDATASIZE SUB DUP2 ADD SWAP1 PUSH2 0x143 SWAP2 SWAP1 PUSH2 0x148B JUMP JUMPDEST PUSH2 0x462 JUMP JUMPDEST PUSH1 0x40 MLOAD PUSH2 0x155 SWAP2 SWAP1 PUSH2 0x14E6 JUMP JUMPDEST PUSH1 0x40 MLOAD DUP1 SWAP2 SUB SWAP1 RETURN JUMPDEST PUSH2 0x166 PUSH2 0x485 JUMP JUMPDEST PUSH1 0x40 MLOAD PUSH2 0x173 SWAP2 SWAP1 PUSH2 0x1510 JUMP JUMPDEST PUSH1 0x40 MLOAD DUP1 SWAP2 SUB SWAP1 RETURN JUMPDEST PUSH2 0x196 PUSH1 0x4 DUP1 CALLDATASIZE SUB DUP2 ADD SWAP1 PUSH2 0x191 SWAP2 SWAP1 PUSH2 0x152B JUMP JUMPDEST PUSH2 0x48F JUMP JUMPDEST PUSH1 0x40 MLOAD PUSH2 0x1A3 SWAP2 SWAP1 PUSH2 0x14E6 JUMP JUMPDEST PUSH1 0x40 MLOAD DUP1 SWAP2 SUB SWAP1 RETURN JUMPDEST PUSH2 0x1B4 PUSH2 0x4BE JUMP JUMPDEST PUSH1 0x40 MLOAD PUSH2 0x1C1 SWAP2 SWAP1 PUSH2 0x159A JUMP JUMPDEST PUSH1 0x40 MLOAD DUP1 SWAP2 SUB SWAP1 RETURN JUMPDEST PUSH2 0x1E4 PUSH1 0x4 DUP1 CALLDATASIZE SUB DUP2 ADD SWAP1 PUSH2 0x1DF SWAP2 SWAP1 PUSH2 0x148B JUMP JUMPDEST PUSH2 0x4C7 JUMP JUMPDEST PUSH1 0x40 MLOAD PUSH2 0x1F1 SWAP2 SWAP1 PUSH2 0x14E6 JUMP JUMPDEST PUSH1 0x40 MLOAD DUP1 SWAP2 SUB SWAP1 RETURN JUMPDEST PUSH2 0x214 PUSH1 0x4 DUP1 CALLDATASIZE SUB DUP2 ADD SWAP1 PUSH2 0x20F SWAP2 SWAP1 PUSH2 0x15B5 JUMP JUMPDEST PUSH2 0x4FE JUMP JUMPDEST STOP JUMPDEST PUSH2 0x230 PUSH1 0x4 DUP1 CALLDATASIZE SUB DUP2 ADD SWAP1 PUSH2 0x22B SWAP2 SWAP1 PUSH2 0x15B5 JUMP JUMPDEST PUSH2 0x512 JUMP JUMPDEST PUSH1 0x40 MLOAD PUSH2 0x23D SWAP2 SWAP1 PUSH2 0x1510 JUMP JUMPDEST PUSH1 0x40 MLOAD DUP1 SWAP2 SUB SWAP1 RETURN JUMPDEST PUSH2 0x260 PUSH1 0x4 DUP1 CALLDATASIZE SUB DUP2 ADD SWAP1 PUSH2 0x25B SWAP2 SWAP1 PUSH2 0x15E2 JUMP JUMPDEST PUSH2 0x583 JUMP JUMPDEST PUSH1 0x40 MLOAD PUSH2 0x26D SWAP2 SWAP1 PUSH2 0x1510 JUMP JUMPDEST PUSH1 0x40 MLOAD DUP1 SWAP2 SUB SWAP1 RETURN JUMPDEST PUSH2 0x290 PUSH1 0x4 DUP1 CALLDATASIZE SUB DUP2 ADD SWAP1 PUSH2 0x28B SWAP2 SWAP1 PUSH2 0x148B JUMP JUMPDEST PUSH2 0x5CB JUMP JUMPDEST STOP JUMPDEST PUSH2 0x29A PUSH2 0x5EB JUMP JUMPDEST PUSH1 0x40 MLOAD PUSH2 0x2A7 SWAP2 SWAP1 PUSH2 0x13D0 JUMP JUMPDEST PUSH1 0x40 MLOAD DUP1 SWAP2 SUB SWAP1 RETURN JUMPDEST PUSH2 0x2CA PUSH1 0x4 DUP1 CALLDATASIZE SUB DUP2 ADD SWAP1 PUSH2 0x2C5 SWAP2 SWAP1 PUSH2 0x148B JUMP JUMPDEST PUSH2 0x67D JUMP JUMPDEST PUSH1 0x40 MLOAD PUSH2 0x2D7 SWAP2 SWAP1 PUSH2 0x14E6 JUMP JUMPDEST PUSH1 0x40 MLOAD DUP1 SWAP2 SUB SWAP1 RETURN JUMPDEST PUSH2 0x2FA PUSH1 0x4 DUP1 CALLDATASIZE SUB DUP2 ADD SWAP1 PUSH2 0x2F5 SWAP2 SWAP1 PUSH2 0x148B JUMP JUMPDEST PUSH2 0x6F4 JUMP JUMPDEST PUSH1 0x40 MLOAD PUSH2 0x307 SWAP2 SWAP1 PUSH2 0x14E6 JUMP JUMPDEST PUSH1 0x40 MLOAD DUP1 SWAP2 SUB SWAP1 RETURN JUMPDEST PUSH2 0x32A PUSH1 0x4 DUP1 CALLDATASIZE SUB DUP2 ADD SWAP1 PUSH2 0x325 SWAP2 SWAP1 PUSH2 0x15E2 JUMP JUMPDEST PUSH2 0x717 JUMP JUMPDEST PUSH1 0x40 MLOAD PUSH2 0x337 SWAP2 SWAP1 PUSH2 0x1510 JUMP JUMPDEST PUSH1 0x40 MLOAD DUP1 SWAP2 SUB SWAP1 RETURN JUMPDEST PUSH2 0x35A PUSH1 0x4 DUP1 CALLDATASIZE SUB DUP2 ADD SWAP1 PUSH2 0x355 SWAP2 SWAP1 PUSH2 0x15B5 JUMP JUMPDEST PUSH2 0x8CA JUMP JUMPDEST PUSH1 0x40 MLOAD PUSH2 0x367 SWAP2 SWAP1 PUSH2 0x1510 JUMP JUMPDEST PUSH1 0x40 MLOAD DUP1 SWAP2 SUB SWAP1 RETURN JUMPDEST PUSH2 0x38A PUSH1 0x4 DUP1 CALLDATASIZE SUB DUP2 ADD SWAP1 PUSH2 0x385 SWAP2 SWAP1 PUSH2 0x160F JUMP JUMPDEST PUSH2 0x92E JUMP JUMPDEST PUSH1 0x40 MLOAD PUSH2 0x397 SWAP2 SWAP1 PUSH2 0x1510 JUMP JUMPDEST PUSH1 0x40 MLOAD DUP1 SWAP2 SUB SWAP1 RETURN JUMPDEST PUSH2 0x3BA PUSH1 0x4 DUP1 CALLDATASIZE SUB DUP2 ADD SWAP1 PUSH2 0x3B5 SWAP2 SWAP1 PUSH2 0x148B JUMP JUMPDEST PUSH2 0x9B5 JUMP JUMPDEST PUSH1 0x40 MLOAD PUSH2 0x3C7 SWAP2 SWAP1 PUSH2 0x1510 JUMP JUMPDEST PUSH1 0x40 MLOAD DUP1 SWAP2 SUB SWAP1 RETURN JUMPDEST PUSH1 0x60 PUSH1 0x5 DUP1 SLOAD PUSH2 0x3DF SWAP1 PUSH2 0x167E JUMP JUMPDEST DUP1 PUSH1 0x1F ADD PUSH1 0x20 DUP1 SWAP2 DIV MUL PUSH1 0x20 ADD PUSH1 0x40 MLOAD SWAP1 DUP2 ADD PUSH1 0x40 MSTORE DUP1 SWAP3 SWAP2 SWAP1 DUP2 DUP2 MSTORE PUSH1 0x20 ADD DUP3 DUP1 SLOAD PUSH2 0x40B SWAP1 PUSH2 0x167E JUMP JUMPDEST DUP1 ISZERO PUSH2 0x458 JUMPI DUP1 PUSH1 0x1F LT PUSH2 0x42D JUMPI PUSH2 0x100 DUP1 DUP4 SLOAD DIV MUL DUP4 MSTORE SWAP2 PUSH1 0x20 ADD SWAP2 PUSH2 0x458 JUMP JUMPDEST DUP3 ADD SWAP2 SWAP1 PUSH1 0x0 MSTORE PUSH1 0x20 PUSH1 0x0 KECCAK256 SWAP1 JUMPDEST DUP2 SLOAD DUP2 MSTORE SWAP1 PUSH1 0x1 ADD SWAP1 PUSH1 0x20 ADD DUP1 DUP4 GT PUSH2 0x43B JUMPI DUP3 SWAP1 SUB PUSH1 0x1F AND DUP3 ADD SWAP2 JUMPDEST POP POP POP POP POP SWAP1 POP SWAP1 JUMP JUMPDEST PUSH1 0x0 DUP1 PUSH2 0x46D PUSH2 0xA68 JUMP JUMPDEST SWAP1 POP PUSH2 0x47A DUP2 DUP6 DUP6 PUSH2 0xA70 JUMP JUMPDEST PUSH1 0x1 SWAP2 POP POP SWAP3 SWAP2 POP POP JUMP JUMPDEST PUSH1 0x0 PUSH1 0x2 SLOAD SWAP1 POP SWAP1 JUMP JUMPDEST PUSH1 0x0 DUP1 PUSH2 0x49A PUSH2 0xA68 JUMP JUMPDEST SWAP1 POP PUSH2 0x4A7 DUP6 DUP3 DUP6 PUSH2 0xC39 JUMP JUMPDEST PUSH2 0x4B2 DUP6 DUP6 DUP6 PUSH2 0xCC5 JUMP JUMPDEST PUSH1 0x1 SWAP2 POP POP SWAP4 SWAP3 POP POP POP JUMP JUMPDEST PUSH1 0x0 PUSH1 0x12 SWAP1 POP SWAP1 JUMP JUMPDEST PUSH1 0x0 DUP1 PUSH2 0x4D2 PUSH2 0xA68 JUMP JUMPDEST SWAP1 POP PUSH2 0x4F3 DUP2 DUP6 DUP6 PUSH2 0x4E4 DUP6 DUP10 PUSH2 0x92E JUMP JUMPDEST PUSH2 0x4EE SWAP2 SWAP1 PUSH2 0x16DE JUMP JUMPDEST PUSH2 0xA70 JUMP JUMPDEST PUSH1 0x1 SWAP2 POP POP SWAP3 SWAP2 POP POP JUMP JUMPDEST PUSH2 0x50F PUSH2 0x509 PUSH2 0xA68 JUMP JUMPDEST DUP3 PUSH2 0x10AC JUMP JUMPDEST POP JUMP JUMPDEST PUSH1 0x0 PUSH1 0x4 SLOAD DUP3 LT ISZERO PUSH2 0x524 JUMPI PUSH1 0x4 SLOAD SWAP2 POP JUMPDEST PUSH1 0x0 PUSH2 0x552 PUSH23 0xA70C3C40A64E6C51999090B65F67D9240000000000000 PUSH1 0x3 SLOAD PUSH2 0xA3C SWAP1 SWAP2 SWAP1 PUSH4 0xFFFFFFFF AND JUMP JUMPDEST SWAP1 POP PUSH1 0x0 PUSH2 0x55F DUP5 PUSH2 0x8CA JUMP JUMPDEST SWAP1 POP PUSH1 0x0 PUSH2 0x576 DUP3 DUP5 PUSH2 0xA52 SWAP1 SWAP2 SWAP1 PUSH4 0xFFFFFFFF AND JUMP JUMPDEST SWAP1 POP DUP1 SWAP4 POP POP POP POP SWAP2 SWAP1 POP JUMP JUMPDEST PUSH1 0x0 DUP1 PUSH1 0x0 DUP4 PUSH20 0xFFFFFFFFFFFFFFFFFFFFFFFFFFFFFFFFFFFFFFFF AND PUSH20 0xFFFFFFFFFFFFFFFFFFFFFFFFFFFFFFFFFFFFFFFF AND DUP2 MSTORE PUSH1 0x20 ADD SWAP1 DUP2 MSTORE PUSH1 0x20 ADD PUSH1 0x0 KECCAK256 SLOAD SWAP1 POP SWAP2 SWAP1 POP JUMP JUMPDEST PUSH2 0x5DD DUP3 PUSH2 0x5D7 PUSH2 0xA68 JUMP JUMPDEST DUP4 PUSH2 0xC39 JUMP JUMPDEST PUSH2 0x5E7 DUP3 DUP3 PUSH2 0x10AC JUMP JUMPDEST POP POP JUMP JUMPDEST PUSH1 0x60 PUSH1 0x6 DUP1 SLOAD PUSH2 0x5FA SWAP1 PUSH2 0x167E JUMP JUMPDEST DUP1 PUSH1 0x1F ADD PUSH1 0x20 DUP1 SWAP2 DIV MUL PUSH1 0x20 ADD PUSH1 0x40 MLOAD SWAP1 DUP2 ADD PUSH1 0x40 MSTORE DUP1 SWAP3 SWAP2 SWAP1 DUP2 DUP2 MSTORE PUSH1 0x20 ADD DUP3 DUP1 SLOAD PUSH2 0x626 SWAP1 PUSH2 0x167E JUMP JUMPDEST DUP1 ISZERO PUSH2 0x673 JUMPI DUP1 PUSH1 0x1F LT PUSH2 0x648 JUMPI PUSH2 0x100 DUP1 DUP4 SLOAD DIV MUL DUP4 MSTORE SWAP2 PUSH1 0x20 ADD SWAP2 PUSH2 0x673 JUMP JUMPDEST DUP3 ADD SWAP2 SWAP1 PUSH1 0x0 MSTORE PUSH1 0x20 PUSH1 0x0 KECCAK256 SWAP1 JUMPDEST DUP2 SLOAD DUP2 MSTORE SWAP1 PUSH1 0x1 ADD SWAP1 PUSH1 0x20 ADD DUP1 DUP4 GT PUSH2 0x656 JUMPI DUP3 SWAP1 SUB PUSH1 0x1F AND DUP3 ADD SWAP2 JUMPDEST POP POP POP POP POP SWAP1 POP SWAP1 JUMP JUMPDEST PUSH1 0x0 DUP1 PUSH2 0x688 PUSH2 0xA68 JUMP JUMPDEST SWAP1 POP PUSH1 0x0 PUSH2 0x696 DUP3 DUP7 PUSH2 0x92E JUMP JUMPDEST SWAP1 POP DUP4 DUP2 LT ISZERO PUSH2 0x6DB JUMPI PUSH1 0x40 MLOAD PUSH32 0x8C379A000000000000000000000000000000000000000000000000000000000 DUP2 MSTORE PUSH1 0x4 ADD PUSH2 0x6D2 SWAP1 PUSH2 0x1784 JUMP JUMPDEST PUSH1 0x40 MLOAD DUP1 SWAP2 SUB SWAP1 REVERT JUMPDEST PUSH2 0x6E8 DUP3 DUP7 DUP7 DUP5 SUB PUSH2 0xA70 JUMP JUMPDEST PUSH1 0x1 SWAP3 POP POP POP SWAP3 SWAP2 POP POP JUMP JUMPDEST PUSH1 0x0 DUP1 PUSH2 0x6FF PUSH2 0xA68 JUMP JUMPDEST SWAP1 POP PUSH2 0x70C DUP2 DUP6 DUP6 PUSH2 0xCC5 JUMP JUMPDEST PUSH1 0x1 SWAP2 POP POP SWAP3 SWAP2 POP POP JUMP JUMPDEST PUSH1 0x0 DUP1 PUSH2 0x77E PUSH1 0x7 PUSH1 0x0 DUP6 PUSH20 0xFFFFFFFFFFFFFFFFFFFFFFFFFFFFFFFFFFFFFFFF AND PUSH20 0xFFFFFFFFFFFFFFFFFFFFFFFFFFFFFFFFFFFFFFFF AND DUP2 MSTORE PUSH1 0x20 ADD SWAP1 DUP2 MSTORE PUSH1 0x20 ADD PUSH1 0x0 KECCAK256 PUSH1 0x0 PUSH1 0x1 DUP2 MSTORE PUSH1 0x20 ADD SWAP1 DUP2 MSTORE PUSH1 0x20 ADD PUSH1 0x0 KECCAK256 SLOAD NUMBER PUSH2 0xA10 SWAP1 SWAP2 SWAP1 PUSH4 0xFFFFFFFF AND JUMP JUMPDEST SWAP1 POP PUSH1 0x0 PUSH2 0x7DC PUSH1 0x7 PUSH1 0x0 DUP7 PUSH20 0xFFFFFFFFFFFFFFFFFFFFFFFFFFFFFFFFFFFFFFFF AND PUSH20 0xFFFFFFFFFFFFFFFFFFFFFFFFFFFFFFFFFFFFFFFF AND DUP2 MSTORE PUSH1 0x20 ADD SWAP1 DUP2 MSTORE PUSH1 0x20 ADD PUSH1 0x0 KECCAK256 PUSH1 0x0 PUSH1 0x1 DUP2 MSTORE PUSH1 0x20 ADD SWAP1 DUP2 MSTORE PUSH1 0x20 ADD PUSH1 0x0 KECCAK256 SLOAD PUSH2 0x512 JUMP JUMPDEST SWAP1 POP PUSH1 0x0 PUSH2 0x7E9 NUMBER PUSH2 0x512 JUMP JUMPDEST SWAP1 POP PUSH1 0x0 PUSH2 0x825 PUSH1 0x2 PUSH2 0x817 DUP7 PUSH2 0x809 DUP7 DUP9 PUSH2 0xA26 SWAP1 SWAP2 SWAP1 PUSH4 0xFFFFFFFF AND JUMP JUMPDEST PUSH2 0xA3C SWAP1 SWAP2 SWAP1 PUSH4 0xFFFFFFFF AND JUMP JUMPDEST PUSH2 0xA52 SWAP1 SWAP2 SWAP1 PUSH4 0xFFFFFFFF AND JUMP JUMPDEST SWAP1 POP PUSH1 0x0 PUSH2 0x858 PUSH1 0x2 SLOAD PUSH2 0x84A PUSH2 0x83B DUP11 PUSH2 0x583 JUMP JUMPDEST DUP6 PUSH2 0xA3C SWAP1 SWAP2 SWAP1 PUSH4 0xFFFFFFFF AND JUMP JUMPDEST PUSH2 0xA52 SWAP1 SWAP2 SWAP1 PUSH4 0xFFFFFFFF AND JUMP JUMPDEST SWAP1 POP PUSH2 0x8BE DUP2 PUSH1 0x7 PUSH1 0x0 DUP11 PUSH20 0xFFFFFFFFFFFFFFFFFFFFFFFFFFFFFFFFFFFFFFFF AND PUSH20 0xFFFFFFFFFFFFFFFFFFFFFFFFFFFFFFFFFFFFFFFF AND DUP2 MSTORE PUSH1 0x20 ADD SWAP1 DUP2 MSTORE PUSH1 0x20 ADD PUSH1 0x0 KECCAK256 PUSH1 0x0 PUSH1 0x3 DUP2 MSTORE PUSH1 0x20 ADD SWAP1 DUP2 MSTORE PUSH1 0x20 ADD PUSH1 0x0 KECCAK256 SLOAD PUSH2 0xA26 SWAP1 SWAP2 SWAP1 PUSH4 0xFFFFFFFF AND JUMP JUMPDEST SWAP6 POP POP POP POP POP POP SWAP2 SWAP1 POP JUMP JUMPDEST PUSH1 0x0 DUP1 PUSH2 0x8FC PUSH1 0x4 SLOAD PUSH2 0x8EE PUSH8 0xDE0B6B3A7640000 DUP7 PUSH2 0xA3C SWAP1 SWAP2 SWAP1 PUSH4 0xFFFFFFFF AND JUMP JUMPDEST PUSH2 0xA52 SWAP1 SWAP2 SWAP1 PUSH4 0xFFFFFFFF AND JUMP JUMPDEST SWAP1 POP PUSH2 0x923 DUP2 PUSH2 0x915 DUP4 DUP5 PUSH2 0xA3C SWAP1 SWAP2 SWAP1 PUSH4 0xFFFFFFFF AND JUMP JUMPDEST PUSH2 0xA3C SWAP1 SWAP2 SWAP1 PUSH4 0xFFFFFFFF AND JUMP JUMPDEST SWAP1 POP DUP1 SWAP2 POP POP SWAP2 SWAP1 POP JUMP JUMPDEST PUSH1 0x0 PUSH1 0x1 PUSH1 0x0 DUP5 PUSH20 0xFFFFFFFFFFFFFFFFFFFFFFFFFFFFFFFFFFFFFFFF AND PUSH20 0xFFFFFFFFFFFFFFFFFFFFFFFFFFFFFFFFFFFFFFFF AND DUP2 MSTORE PUSH1 0x20 ADD SWAP1 DUP2 MSTORE PUSH1 0x20 ADD PUSH1 0x0 KECCAK256 PUSH1 0x0 DUP4 PUSH20 0xFFFFFFFFFFFFFFFFFFFFFFFFFFFFFFFFFFFFFFFF AND PUSH20 0xFFFFFFFFFFFFFFFFFFFFFFFFFFFFFFFFFFFFFFFF AND DUP2 MSTORE PUSH1 0x20 ADD SWAP1 DUP2 MSTORE PUSH1 0x20 ADD PUSH1 0x0 KECCAK256 SLOAD SWAP1 POP SWAP3 SWAP2 POP POP JUMP JUMPDEST PUSH1 0x0 PUSH1 0x7 PUSH1 0x0 DUP5 PUSH20 0xFFFFFFFFFFFFFFFFFFFFFFFFFFFFFFFFFFFFFFFF AND PUSH20 0xFFFFFFFFFFFFFFFFFFFFFFFFFFFFFFFFFFFFFFFF AND DUP2 MSTORE PUSH1 0x20 ADD SWAP1 DUP2 MSTORE PUSH1 0x20 ADD PUSH1 0x0 KECCAK256 PUSH1 0x0 DUP4 DUP2 MSTORE PUSH1 0x20 ADD SWAP1 DUP2 MSTORE PUSH1 0x20 ADD PUSH1 0x0 KECCAK256 SLOAD SWAP1 POP SWAP3 SWAP2 POP POP JUMP JUMPDEST PUSH1 0x0 DUP2 DUP4 PUSH2 0xA1E SWAP2 SWAP1 PUSH2 0x17A4 JUMP JUMPDEST SWAP1 POP SWAP3 SWAP2 POP POP JUMP JUMPDEST PUSH1 0x0 DUP2 DUP4 PUSH2 0xA34 SWAP2 SWAP1 PUSH2 0x16DE JUMP JUMPDEST SWAP1 POP SWAP3 SWAP2 POP POP JUMP JUMPDEST PUSH1 0x0 DUP2 DUP4 PUSH2 0xA4A SWAP2 SWAP1 PUSH2 0x17D8 JUMP JUMPDEST SWAP1 POP SWAP3 SWAP2 POP POP JUMP JUMPDEST PUSH1 0x0 DUP2 DUP4 PUSH2 0xA60 SWAP2 SWAP1 PUSH2 0x1849 JUMP JUMPDEST SWAP1 POP SWAP3 SWAP2 POP POP JUMP JUMPDEST PUSH1 0x0 CALLER SWAP1 POP SWAP1 JUMP JUMPDEST PUSH1 0x0 PUSH20 0xFFFFFFFFFFFFFFFFFFFFFFFFFFFFFFFFFFFFFFFF AND DUP4 PUSH20 0xFFFFFFFFFFFFFFFFFFFFFFFFFFFFFFFFFFFFFFFF AND SUB PUSH2 0xADF JUMPI PUSH1 0x40 MLOAD PUSH32 0x8C379A000000000000000000000000000000000000000000000000000000000 DUP2 MSTORE PUSH1 0x4 ADD PUSH2 0xAD6 SWAP1 PUSH2 0x18EC JUMP JUMPDEST PUSH1 0x40 MLOAD DUP1 SWAP2 SUB SWAP1 REVERT JUMPDEST PUSH1 0x0 PUSH20 0xFFFFFFFFFFFFFFFFFFFFFFFFFFFFFFFFFFFFFFFF AND DUP3 PUSH20 0xFFFFFFFFFFFFFFFFFFFFFFFFFFFFFFFFFFFFFFFF AND SUB PUSH2 0xB4E JUMPI PUSH1 0x40 MLOAD PUSH32 0x8C379A000000000000000000000000000000000000000000000000000000000 DUP2 MSTORE PUSH1 0x4 ADD PUSH2 0xB45 SWAP1 PUSH2 0x197E JUMP JUMPDEST PUSH1 0x40 MLOAD DUP1 SWAP2 SUB SWAP1 REVERT JUMPDEST DUP1 PUSH1 0x1 PUSH1 0x0 DUP6 PUSH20 0xFFFFFFFFFFFFFFFFFFFFFFFFFFFFFFFFFFFFFFFF AND PUSH20 0xFFFFFFFFFFFFFFFFFFFFFFFFFFFFFFFFFFFFFFFF AND DUP2 MSTORE PUSH1 0x20 ADD SWAP1 DUP2 MSTORE PUSH1 0x20 ADD PUSH1 0x0 KECCAK256 PUSH1 0x0 DUP5 PUSH20 0xFFFFFFFFFFFFFFFFFFFFFFFFFFFFFFFFFFFFFFFF AND PUSH20 0xFFFFFFFFFFFFFFFFFFFFFFFFFFFFFFFFFFFFFFFF AND DUP2 MSTORE PUSH1 0x20 ADD SWAP1 DUP2 MSTORE PUSH1 0x20 ADD PUSH1 0x0 KECCAK256 DUP2 SWAP1 SSTORE POP DUP2 PUSH20 0xFFFFFFFFFFFFFFFFFFFFFFFFFFFFFFFFFFFFFFFF AND DUP4 PUSH20 0xFFFFFFFFFFFFFFFFFFFFFFFFFFFFFFFFFFFFFFFF AND PUSH32 0x8C5BE1E5EBEC7D5BD14F71427D1E84F3DD0314C0F7B2291E5B200AC8C7C3B925 DUP4 PUSH1 0x40 MLOAD PUSH2 0xC2C SWAP2 SWAP1 PUSH2 0x1510 JUMP JUMPDEST PUSH1 0x40 MLOAD DUP1 SWAP2 SUB SWAP1 LOG3 POP POP POP JUMP JUMPDEST PUSH1 0x0 PUSH2 0xC45 DUP5 DUP5 PUSH2 0x92E JUMP JUMPDEST SWAP1 POP PUSH32 0xFFFFFFFFFFFFFFFFFFFFFFFFFFFFFFFFFFFFFFFFFFFFFFFFFFFFFFFFFFFFFFFF DUP2 EQ PUSH2 0xCBF JUMPI DUP2 DUP2 LT ISZERO PUSH2 0xCB1 JUMPI PUSH1 0x40 MLOAD PUSH32 0x8C379A000000000000000000000000000000000000000000000000000000000 DUP2 MSTORE PUSH1 0x4 ADD PUSH2 0xCA8 SWAP1 PUSH2 0x19EA JUMP JUMPDEST PUSH1 0x40 MLOAD DUP1 SWAP2 SUB SWAP1 REVERT JUMPDEST PUSH2 0xCBE DUP5 DUP5 DUP5 DUP5 SUB PUSH2 0xA70 JUMP JUMPDEST JUMPDEST POP POP POP POP JUMP JUMPDEST PUSH1 0x0 PUSH20 0xFFFFFFFFFFFFFFFFFFFFFFFFFFFFFFFFFFFFFFFF AND DUP4 PUSH20 0xFFFFFFFFFFFFFFFFFFFFFFFFFFFFFFFFFFFFFFFF AND SUB PUSH2 0xD34 JUMPI PUSH1 0x40 MLOAD PUSH32 0x8C379A000000000000000000000000000000000000000000000000000000000 DUP2 MSTORE PUSH1 0x4 ADD PUSH2 0xD2B SWAP1 PUSH2 0x1A7C JUMP JUMPDEST PUSH1 0x40 MLOAD DUP1 SWAP2 SUB SWAP1 REVERT JUMPDEST PUSH1 0x0 PUSH20 0xFFFFFFFFFFFFFFFFFFFFFFFFFFFFFFFFFFFFFFFF AND DUP3 PUSH20 0xFFFFFFFFFFFFFFFFFFFFFFFFFFFFFFFFFFFFFFFF AND SUB PUSH2 0xDA3 JUMPI PUSH1 0x40 MLOAD PUSH32 0x8C379A000000000000000000000000000000000000000000000000000000000 DUP2 MSTORE PUSH1 0x4 ADD PUSH2 0xD9A SWAP1 PUSH2 0x1B0E JUMP JUMPDEST PUSH1 0x40 MLOAD DUP1 SWAP2 SUB SWAP1 REVERT JUMPDEST PUSH2 0xDAC DUP4 PUSH2 0x717 JUMP JUMPDEST PUSH1 0x7 PUSH1 0x0 DUP6 PUSH20 0xFFFFFFFFFFFFFFFFFFFFFFFFFFFFFFFFFFFFFFFF AND PUSH20 0xFFFFFFFFFFFFFFFFFFFFFFFFFFFFFFFFFFFFFFFF AND DUP2 MSTORE PUSH1 0x20 ADD SWAP1 DUP2 MSTORE PUSH1 0x20 ADD PUSH1 0x0 KECCAK256 PUSH1 0x0 PUSH1 0x3 DUP2 MSTORE PUSH1 0x20 ADD SWAP1 DUP2 MSTORE PUSH1 0x20 ADD PUSH1 0x0 KECCAK256 DUP2 SWAP1 SSTORE POP PUSH2 0xE0A DUP3 PUSH2 0x717 JUMP JUMPDEST PUSH1 0x7 PUSH1 0x0 DUP5 PUSH20 0xFFFFFFFFFFFFFFFFFFFFFFFFFFFFFFFFFFFFFFFF AND PUSH20 0xFFFFFFFFFFFFFFFFFFFFFFFFFFFFFFFFFFFFFFFF AND DUP2 MSTORE PUSH1 0x20 ADD SWAP1 DUP2 MSTORE PUSH1 0x20 ADD PUSH1 0x0 KECCAK256 PUSH1 0x0 PUSH1 0x3 DUP2 MSTORE PUSH1 0x20 ADD SWAP1 DUP2 MSTORE PUSH1 0x20 ADD PUSH1 0x0 KECCAK256 DUP2 SWAP1 SSTORE POP PUSH2 0xE6A DUP4 DUP4 DUP4 PUSH2 0x1336 JUMP JUMPDEST PUSH1 0x0 DUP1 PUSH1 0x0 DUP6 PUSH20 0xFFFFFFFFFFFFFFFFFFFFFFFFFFFFFFFFFFFFFFFF AND PUSH20 0xFFFFFFFFFFFFFFFFFFFFFFFFFFFFFFFFFFFFFFFF AND DUP2 MSTORE PUSH1 0x20 ADD SWAP1 DUP2 MSTORE PUSH1 0x20 ADD PUSH1 0x0 KECCAK256 SLOAD SWAP1 POP DUP2 DUP2 LT ISZERO PUSH2 0xEF0 JUMPI PUSH1 0x40 MLOAD PUSH32 0x8C379A000000000000000000000000000000000000000000000000000000000 DUP2 MSTORE PUSH1 0x4 ADD PUSH2 0xEE7 SWAP1 PUSH2 0x1BA0 JUMP JUMPDEST PUSH1 0x40 MLOAD DUP1 SWAP2 SUB SWAP1 REVERT JUMPDEST DUP2 DUP2 SUB PUSH1 0x0 DUP1 DUP7 PUSH20 0xFFFFFFFFFFFFFFFFFFFFFFFFFFFFFFFFFFFFFFFF AND PUSH20 0xFFFFFFFFFFFFFFFFFFFFFFFFFFFFFFFFFFFFFFFF AND DUP2 MSTORE PUSH1 0x20 ADD SWAP1 DUP2 MSTORE PUSH1 0x20 ADD PUSH1 0x0 KECCAK256 DUP2 SWAP1 SSTORE POP DUP2 PUSH1 0x0 DUP1 DUP6 PUSH20 0xFFFFFFFFFFFFFFFFFFFFFFFFFFFFFFFFFFFFFFFF AND PUSH20 0xFFFFFFFFFFFFFFFFFFFFFFFFFFFFFFFFFFFFFFFF AND DUP2 MSTORE PUSH1 0x20 ADD SWAP1 DUP2 MSTORE PUSH1 0x20 ADD PUSH1 0x0 KECCAK256 PUSH1 0x0 DUP3 DUP3 SLOAD PUSH2 0xF83 SWAP2 SWAP1 PUSH2 0x16DE JUMP JUMPDEST SWAP3 POP POP DUP2 SWAP1 SSTORE POP DUP3 PUSH20 0xFFFFFFFFFFFFFFFFFFFFFFFFFFFFFFFFFFFFFFFF AND DUP5 PUSH20 0xFFFFFFFFFFFFFFFFFFFFFFFFFFFFFFFFFFFFFFFF AND PUSH32 0xDDF252AD1BE2C89B69C2B068FC378DAA952BA7F163C4A11628F55A4DF523B3EF DUP5 PUSH1 0x40 MLOAD PUSH2 0xFE7 SWAP2 SWAP1 PUSH2 0x1510 JUMP JUMPDEST PUSH1 0x40 MLOAD DUP1 SWAP2 SUB SWAP1 LOG3 PUSH2 0xFFA DUP5 DUP5 DUP5 PUSH2 0x133B JUMP JUMPDEST NUMBER PUSH1 0x7 PUSH1 0x0 DUP7 PUSH20 0xFFFFFFFFFFFFFFFFFFFFFFFFFFFFFFFFFFFFFFFF AND PUSH20 0xFFFFFFFFFFFFFFFFFFFFFFFFFFFFFFFFFFFFFFFF AND DUP2 MSTORE PUSH1 0x20 ADD SWAP1 DUP2 MSTORE PUSH1 0x20 ADD PUSH1 0x0 KECCAK256 PUSH1 0x0 PUSH1 0x1 DUP2 MSTORE PUSH1 0x20 ADD SWAP1 DUP2 MSTORE PUSH1 0x20 ADD PUSH1 0x0 KECCAK256 DUP2 SWAP1 SSTORE POP NUMBER PUSH1 0x7 PUSH1 0x0 DUP6 PUSH20 0xFFFFFFFFFFFFFFFFFFFFFFFFFFFFFFFFFFFFFFFF AND PUSH20 0xFFFFFFFFFFFFFFFFFFFFFFFFFFFFFFFFFFFFFFFF AND DUP2 MSTORE PUSH1 0x20 ADD SWAP1 DUP2 MSTORE PUSH1 0x20 ADD PUSH1 0x0 KECCAK256 PUSH1 0x0 PUSH1 0x1 DUP2 MSTORE PUSH1 0x20 ADD SWAP1 DUP2 MSTORE PUSH1 0x20 ADD PUSH1 0x0 KECCAK256 DUP2 SWAP1 SSTORE POP POP POP POP POP JUMP JUMPDEST PUSH1 0x0 PUSH20 0xFFFFFFFFFFFFFFFFFFFFFFFFFFFFFFFFFFFFFFFF AND DUP3 PUSH20 0xFFFFFFFFFFFFFFFFFFFFFFFFFFFFFFFFFFFFFFFF AND SUB PUSH2 0x111B JUMPI PUSH1 0x40 MLOAD PUSH32 0x8C379A000000000000000000000000000000000000000000000000000000000 DUP2 MSTORE PUSH1 0x4 ADD PUSH2 0x1112 SWAP1 PUSH2 0x1C32 JUMP JUMPDEST PUSH1 0x40 MLOAD DUP1 SWAP2 SUB SWAP1 REVERT JUMPDEST PUSH2 0x1124 DUP3 PUSH2 0x717 JUMP JUMPDEST PUSH1 0x7 PUSH1 0x0 DUP5 PUSH20 0xFFFFFFFFFFFFFFFFFFFFFFFFFFFFFFFFFFFFFFFF AND PUSH20 0xFFFFFFFFFFFFFFFFFFFFFFFFFFFFFFFFFFFFFFFF AND DUP2 MSTORE PUSH1 0x20 ADD SWAP1 DUP2 MSTORE PUSH1 0x20 ADD PUSH1 0x0 KECCAK256 PUSH1 0x0 PUSH1 0x3 DUP2 MSTORE PUSH1 0x20 ADD SWAP1 DUP2 MSTORE PUSH1 0x20 ADD PUSH1 0x0 KECCAK256 DUP2 SWAP1 SSTORE POP PUSH2 0x1185 DUP3 PUSH1 0x0 DUP4 PUSH2 0x1336 JUMP JUMPDEST PUSH1 0x0 DUP1 PUSH1 0x0 DUP5 PUSH20 0xFFFFFFFFFFFFFFFFFFFFFFFFFFFFFFFFFFFFFFFF AND PUSH20 0xFFFFFFFFFFFFFFFFFFFFFFFFFFFFFFFFFFFFFFFF AND DUP2 MSTORE PUSH1 0x20 ADD SWAP1 DUP2 MSTORE PUSH1 0x20 ADD PUSH1 0x0 KECCAK256 SLOAD SWAP1 POP DUP2 DUP2 LT ISZERO PUSH2 0x120B JUMPI PUSH1 0x40 MLOAD PUSH32 0x8C379A000000000000000000000000000000000000000000000000000000000 DUP2 MSTORE PUSH1 0x4 ADD PUSH2 0x1202 SWAP1 PUSH2 0x1CC4 JUMP JUMPDEST PUSH1 0x40 MLOAD DUP1 SWAP2 SUB SWAP1 REVERT JUMPDEST DUP2 DUP2 SUB PUSH1 0x0 DUP1 DUP6 PUSH20 0xFFFFFFFFFFFFFFFFFFFFFFFFFFFFFFFFFFFFFFFF AND PUSH20 0xFFFFFFFFFFFFFFFFFFFFFFFFFFFFFFFFFFFFFFFF AND DUP2 MSTORE PUSH1 0x20 ADD SWAP1 DUP2 MSTORE PUSH1 0x20 ADD PUSH1 0x0 KECCAK256 DUP2 SWAP1 SSTORE POP DUP2 PUSH1 0x2 PUSH1 0x0 DUP3 DUP3 SLOAD PUSH2 0x1262 SWAP2 SWAP1 PUSH2 0x17A4 JUMP JUMPDEST SWAP3 POP POP DUP2 SWAP1 SSTORE POP PUSH1 0x0 PUSH20 0xFFFFFFFFFFFFFFFFFFFFFFFFFFFFFFFFFFFFFFFF AND DUP4 PUSH20 0xFFFFFFFFFFFFFFFFFFFFFFFFFFFFFFFFFFFFFFFF AND PUSH32 0xDDF252AD1BE2C89B69C2B068FC378DAA952BA7F163C4A11628F55A4DF523B3EF DUP5 PUSH1 0x40 MLOAD PUSH2 0x12C7 SWAP2 SWAP1 PUSH2 0x1510 JUMP JUMPDEST PUSH1 0x40 MLOAD DUP1 SWAP2 SUB SWAP1 LOG3 PUSH2 0x12DB DUP4 PUSH1 0x0 DUP5 PUSH2 0x133B JUMP JUMPDEST NUMBER PUSH1 0x7 PUSH1 0x0 DUP6 PUSH20 0xFFFFFFFFFFFFFFFFFFFFFFFFFFFFFFFFFFFFFFFF AND PUSH20 0xFFFFFFFFFFFFFFFFFFFFFFFFFFFFFFFFFFFFFFFF AND DUP2 MSTORE PUSH1 0x20 ADD SWAP1 DUP2 MSTORE PUSH1 0x20 ADD PUSH1 0x0 KECCAK256 PUSH1 0x0 PUSH1 0x1 DUP2 MSTORE PUSH1 0x20 ADD SWAP1 DUP2 MSTORE PUSH1 0x20 ADD PUSH1 0x0 KECCAK256 DUP2 SWAP1 SSTORE POP POP POP POP JUMP JUMPDEST POP POP POP JUMP JUMPDEST POP POP POP JUMP JUMPDEST PUSH1 0x0 DUP2 MLOAD SWAP1 POP SWAP2 SWAP1 POP JUMP JUMPDEST PUSH1 0x0 DUP3 DUP3 MSTORE PUSH1 0x20 DUP3 ADD SWAP1 POP SWAP3 SWAP2 POP POP JUMP JUMPDEST PUSH1 0x0 JUMPDEST DUP4 DUP2 LT ISZERO PUSH2 0x137A JUMPI DUP1 DUP3 ADD MLOAD DUP2 DUP5 ADD MSTORE PUSH1 0x20 DUP2 ADD SWAP1 POP PUSH2 0x135F JUMP JUMPDEST PUSH1 0x0 DUP5 DUP5 ADD MSTORE POP POP POP POP JUMP JUMPDEST PUSH1 0x0 PUSH1 0x1F NOT PUSH1 0x1F DUP4 ADD AND SWAP1 POP SWAP2 SWAP1 POP JUMP JUMPDEST PUSH1 0x0 PUSH2 0x13A2 DUP3 PUSH2 0x1340 JUMP JUMPDEST PUSH2 0x13AC DUP2 DUP6 PUSH2 0x134B JUMP JUMPDEST SWAP4 POP PUSH2 0x13BC DUP2 DUP6 PUSH1 0x20 DUP7 ADD PUSH2 0x135C JUMP JUMPDEST PUSH2 0x13C5 DUP2 PUSH2 0x1386 JUMP JUMPDEST DUP5 ADD SWAP2 POP POP SWAP3 SWAP2 POP POP JUMP JUMPDEST PUSH1 0x0 PUSH1 0x20 DUP3 ADD SWAP1 POP DUP2 DUP2 SUB PUSH1 0x0 DUP4 ADD MSTORE PUSH2 0x13EA DUP2 DUP5 PUSH2 0x1397 JUMP JUMPDEST SWAP1 POP SWAP3 SWAP2 POP POP JUMP JUMPDEST PUSH1 0x0 DUP1 REVERT JUMPDEST PUSH1 0x0 PUSH20 0xFFFFFFFFFFFFFFFFFFFFFFFFFFFFFFFFFFFFFFFF DUP3 AND SWAP1 POP SWAP2 SWAP1 POP JUMP JUMPDEST PUSH1 0x0 PUSH2 0x1422 DUP3 PUSH2 0x13F7 JUMP JUMPDEST SWAP1 POP SWAP2 SWAP1 POP JUMP JUMPDEST PUSH2 0x1432 DUP2 PUSH2 0x1417 JUMP JUMPDEST DUP2 EQ PUSH2 0x143D JUMPI PUSH1 0x0 DUP1 REVERT JUMPDEST POP JUMP JUMPDEST PUSH1 0x0 DUP2 CALLDATALOAD SWAP1 POP PUSH2 0x144F DUP2 PUSH2 0x1429 JUMP JUMPDEST SWAP3 SWAP2 POP POP JUMP JUMPDEST PUSH1 0x0 DUP2 SWAP1 POP SWAP2 SWAP1 POP JUMP JUMPDEST PUSH2 0x1468 DUP2 PUSH2 0x1455 JUMP JUMPDEST DUP2 EQ PUSH2 0x1473 JUMPI PUSH1 0x0 DUP1 REVERT JUMPDEST POP JUMP JUMPDEST PUSH1 0x0 DUP2 CALLDATALOAD SWAP1 POP PUSH2 0x1485 DUP2 PUSH2 0x145F JUMP JUMPDEST SWAP3 SWAP2 POP POP JUMP JUMPDEST PUSH1 0x0 DUP1 PUSH1 0x40 DUP4 DUP6 SUB SLT ISZERO PUSH2 0x14A2 JUMPI PUSH2 0x14A1 PUSH2 0x13F2 JUMP JUMPDEST JUMPDEST PUSH1 0x0 PUSH2 0x14B0 DUP6 DUP3 DUP7 ADD PUSH2 0x1440 JUMP JUMPDEST SWAP3 POP POP PUSH1 0x20 PUSH2 0x14C1 DUP6 DUP3 DUP7 ADD PUSH2 0x1476 JUMP JUMPDEST SWAP2 POP POP SWAP3 POP SWAP3 SWAP1 POP JUMP JUMPDEST PUSH1 0x0 DUP2 ISZERO ISZERO SWAP1 POP SWAP2 SWAP1 POP JUMP JUMPDEST PUSH2 0x14E0 DUP2 PUSH2 0x14CB JUMP JUMPDEST DUP3 MSTORE POP POP JUMP JUMPDEST PUSH1 0x0 PUSH1 0x20 DUP3 ADD SWAP1 POP PUSH2 0x14FB PUSH1 0x0 DUP4 ADD DUP5 PUSH2 0x14D7 JUMP JUMPDEST SWAP3 SWAP2 POP POP JUMP JUMPDEST PUSH2 0x150A DUP2 PUSH2 0x1455 JUMP JUMPDEST DUP3 MSTORE POP POP JUMP JUMPDEST PUSH1 0x0 PUSH1 0x20 DUP3 ADD SWAP1 POP PUSH2 0x1525 PUSH1 0x0 DUP4 ADD DUP5 PUSH2 0x1501 JUMP JUMPDEST SWAP3 SWAP2 POP POP JUMP JUMPDEST PUSH1 0x0 DUP1 PUSH1 0x0 PUSH1 0x60 DUP5 DUP7 SUB SLT ISZERO PUSH2 0x1544 JUMPI PUSH2 0x1543 PUSH2 0x13F2 JUMP JUMPDEST JUMPDEST PUSH1 0x0 PUSH2 0x1552 DUP7 DUP3 DUP8 ADD PUSH2 0x1440 JUMP JUMPDEST SWAP4 POP POP PUSH1 0x20 PUSH2 0x1563 DUP7 DUP3 DUP8 ADD PUSH2 0x1440 JUMP JUMPDEST SWAP3 POP POP PUSH1 0x40 PUSH2 0x1574 DUP7 DUP3 DUP8 ADD PUSH2 0x1476 JUMP JUMPDEST SWAP2 POP POP SWAP3 POP SWAP3 POP SWAP3 JUMP JUMPDEST PUSH1 0x0 PUSH1 0xFF DUP3 AND SWAP1 POP SWAP2 SWAP1 POP JUMP JUMPDEST PUSH2 0x1594 DUP2 PUSH2 0x157E JUMP JUMPDEST DUP3 MSTORE POP POP JUMP JUMPDEST PUSH1 0x0 PUSH1 0x20 DUP3 ADD SWAP1 POP PUSH2 0x15AF PUSH1 0x0 DUP4 ADD DUP5 PUSH2 0x158B JUMP JUMPDEST SWAP3 SWAP2 POP POP JUMP JUMPDEST PUSH1 0x0 PUSH1 0x20 DUP3 DUP5 SUB SLT ISZERO PUSH2 0x15CB JUMPI PUSH2 0x15CA PUSH2 0x13F2 JUMP JUMPDEST JUMPDEST PUSH1 0x0 PUSH2 0x15D9 DUP5 DUP3 DUP6 ADD PUSH2 0x1476 JUMP JUMPDEST SWAP2 POP POP SWAP3 SWAP2 POP POP JUMP JUMPDEST PUSH1 0x0 PUSH1 0x20 DUP3 DUP5 SUB SLT ISZERO PUSH2 0x15F8 JUMPI PUSH2 0x15F7 PUSH2 0x13F2 JUMP JUMPDEST JUMPDEST PUSH1 0x0 PUSH2 0x1606 DUP5 DUP3 DUP6 ADD PUSH2 0x1440 JUMP JUMPDEST SWAP2 POP POP SWAP3 SWAP2 POP POP JUMP JUMPDEST PUSH1 0x0 DUP1 PUSH1 0x40 DUP4 DUP6 SUB SLT ISZERO PUSH2 0x1626 JUMPI PUSH2 0x1625 PUSH2 0x13F2 JUMP JUMPDEST JUMPDEST PUSH1 0x0 PUSH2 0x1634 DUP6 DUP3 DUP7 ADD PUSH2 0x1440 JUMP JUMPDEST SWAP3 POP POP PUSH1 0x20 PUSH2 0x1645 DUP6 DUP3 DUP7 ADD PUSH2 0x1440 JUMP JUMPDEST SWAP2 POP POP SWAP3 POP SWAP3 SWAP1 POP JUMP JUMPDEST PUSH32 0x4E487B7100000000000000000000000000000000000000000000000000000000 PUSH1 0x0 MSTORE PUSH1 0x22 PUSH1 0x4 MSTORE PUSH1 0x24 PUSH1 0x0 REVERT JUMPDEST PUSH1 0x0 PUSH1 0x2 DUP3 DIV SWAP1 POP PUSH1 0x1 DUP3 AND DUP1 PUSH2 0x1696 JUMPI PUSH1 0x7F DUP3 AND SWAP2 POP JUMPDEST PUSH1 0x20 DUP3 LT DUP2 SUB PUSH2 0x16A9 JUMPI PUSH2 0x16A8 PUSH2 0x164F JUMP JUMPDEST JUMPDEST POP SWAP2 SWAP1 POP JUMP JUMPDEST PUSH32 0x4E487B7100000000000000000000000000000000000000000000000000000000 PUSH1 0x0 MSTORE PUSH1 0x11 PUSH1 0x4 MSTORE PUSH1 0x24 PUSH1 0x0 REVERT JUMPDEST PUSH1 0x0 PUSH2 0x16E9 DUP3 PUSH2 0x1455 JUMP JUMPDEST SWAP2 POP PUSH2 0x16F4 DUP4 PUSH2 0x1455 JUMP JUMPDEST SWAP3 POP DUP3 DUP3 ADD SWAP1 POP DUP1 DUP3 GT ISZERO PUSH2 0x170C JUMPI PUSH2 0x170B PUSH2 0x16AF JUMP JUMPDEST JUMPDEST SWAP3 SWAP2 POP POP JUMP JUMPDEST PUSH32 0x45524332303A2064656372656173656420616C6C6F77616E63652062656C6F77 PUSH1 0x0 DUP3 ADD MSTORE PUSH32 0x207A65726F000000000000000000000000000000000000000000000000000000 PUSH1 0x20 DUP3 ADD MSTORE POP JUMP JUMPDEST PUSH1 0x0 PUSH2 0x176E PUSH1 0x25 DUP4 PUSH2 0x134B JUMP JUMPDEST SWAP2 POP PUSH2 0x1779 DUP3 PUSH2 0x1712 JUMP JUMPDEST PUSH1 0x40 DUP3 ADD SWAP1 POP SWAP2 SWAP1 POP JUMP JUMPDEST PUSH1 0x0 PUSH1 0x20 DUP3 ADD SWAP1 POP DUP2 DUP2 SUB PUSH1 0x0 DUP4 ADD MSTORE PUSH2 0x179D DUP2 PUSH2 0x1761 JUMP JUMPDEST SWAP1 POP SWAP2 SWAP1 POP JUMP JUMPDEST PUSH1 0x0 PUSH2 0x17AF DUP3 PUSH2 0x1455 JUMP JUMPDEST SWAP2 POP PUSH2 0x17BA DUP4 PUSH2 0x1455 JUMP JUMPDEST SWAP3 POP DUP3 DUP3 SUB SWAP1 POP DUP2 DUP2 GT ISZERO PUSH2 0x17D2 JUMPI PUSH2 0x17D1 PUSH2 0x16AF JUMP JUMPDEST JUMPDEST SWAP3 SWAP2 POP POP JUMP JUMPDEST PUSH1 0x0 PUSH2 0x17E3 DUP3 PUSH2 0x1455 JUMP JUMPDEST SWAP2 POP PUSH2 0x17EE DUP4 PUSH2 0x1455 JUMP JUMPDEST SWAP3 POP DUP3 DUP3 MUL PUSH2 0x17FC DUP2 PUSH2 0x1455 JUMP JUMPDEST SWAP2 POP DUP3 DUP3 DIV DUP5 EQ DUP4 ISZERO OR PUSH2 0x1813 JUMPI PUSH2 0x1812 PUSH2 0x16AF JUMP JUMPDEST JUMPDEST POP SWAP3 SWAP2 POP POP JUMP JUMPDEST PUSH32 0x4E487B7100000000000000000000000000000000000000000000000000000000 PUSH1 0x0 MSTORE PUSH1 0x12 PUSH1 0x4 MSTORE PUSH1 0x24 PUSH1 0x0 REVERT JUMPDEST PUSH1 0x0 PUSH2 0x1854 DUP3 PUSH2 0x1455 JUMP JUMPDEST SWAP2 POP PUSH2 0x185F DUP4 PUSH2 0x1455 JUMP JUMPDEST SWAP3 POP DUP3 PUSH2 0x186F JUMPI PUSH2 0x186E PUSH2 0x181A JUMP JUMPDEST JUMPDEST DUP3 DUP3 DIV SWAP1 POP SWAP3 SWAP2 POP POP JUMP JUMPDEST PUSH32 0x45524332303A20617070726F76652066726F6D20746865207A65726F20616464 PUSH1 0x0 DUP3 ADD MSTORE PUSH32 0x7265737300000000000000000000000000000000000000000000000000000000 PUSH1 0x20 DUP3 ADD MSTORE POP JUMP JUMPDEST PUSH1 0x0 PUSH2 0x18D6 PUSH1 0x24 DUP4 PUSH2 0x134B JUMP JUMPDEST SWAP2 POP PUSH2 0x18E1 DUP3 PUSH2 0x187A JUMP JUMPDEST PUSH1 0x40 DUP3 ADD SWAP1 POP SWAP2 SWAP1 POP JUMP JUMPDEST PUSH1 0x0 PUSH1 0x20 DUP3 ADD SWAP1 POP DUP2 DUP2 SUB PUSH1 0x0 DUP4 ADD MSTORE PUSH2 0x1905 DUP2 PUSH2 0x18C9 JUMP JUMPDEST SWAP1 POP SWAP2 SWAP1 POP JUMP JUMPDEST PUSH32 0x45524332303A20617070726F766520746F20746865207A65726F206164647265 PUSH1 0x0 DUP3 ADD MSTORE PUSH32 0x7373000000000000000000000000000000000000000000000000000000000000 PUSH1 0x20 DUP3 ADD MSTORE POP JUMP JUMPDEST PUSH1 0x0 PUSH2 0x1968 PUSH1 0x22 DUP4 PUSH2 0x134B JUMP JUMPDEST SWAP2 POP PUSH2 0x1973 DUP3 PUSH2 0x190C JUMP JUMPDEST PUSH1 0x40 DUP3 ADD SWAP1 POP SWAP2 SWAP1 POP JUMP JUMPDEST PUSH1 0x0 PUSH1 0x20 DUP3 ADD SWAP1 POP DUP2 DUP2 SUB PUSH1 0x0 DUP4 ADD MSTORE PUSH2 0x1997 DUP2 PUSH2 0x195B JUMP JUMPDEST SWAP1 POP SWAP2 SWAP1 POP JUMP JUMPDEST PUSH32 0x45524332303A20696E73756666696369656E7420616C6C6F77616E6365000000 PUSH1 0x0 DUP3 ADD MSTORE POP JUMP JUMPDEST PUSH1 0x0 PUSH2 0x19D4 PUSH1 0x1D DUP4 PUSH2 0x134B JUMP JUMPDEST SWAP2 POP PUSH2 0x19DF DUP3 PUSH2 0x199E JUMP JUMPDEST PUSH1 0x20 DUP3 ADD SWAP1 POP SWAP2 SWAP1 POP JUMP JUMPDEST PUSH1 0x0 PUSH1 0x20 DUP3 ADD SWAP1 POP DUP2 DUP2 SUB PUSH1 0x0 DUP4 ADD MSTORE PUSH2 0x1A03 DUP2 PUSH2 0x19C7 JUMP JUMPDEST SWAP1 POP SWAP2 SWAP1 POP JUMP JUMPDEST PUSH32 0x45524332303A207472616E736665722066726F6D20746865207A65726F206164 PUSH1 0x0 DUP3 ADD MSTORE PUSH32 0x6472657373000000000000000000000000000000000000000000000000000000 PUSH1 0x20 DUP3 ADD MSTORE POP JUMP JUMPDEST PUSH1 0x0 PUSH2 0x1A66 PUSH1 0x25 DUP4 PUSH2 0x134B JUMP JUMPDEST SWAP2 POP PUSH2 0x1A71 DUP3 PUSH2 0x1A0A JUMP JUMPDEST PUSH1 0x40 DUP3 ADD SWAP1 POP SWAP2 SWAP1 POP JUMP JUMPDEST PUSH1 0x0 PUSH1 0x20 DUP3 ADD SWAP1 POP DUP2 DUP2 SUB PUSH1 0x0 DUP4 ADD MSTORE PUSH2 0x1A95 DUP2 PUSH2 0x1A59 JUMP JUMPDEST SWAP1 POP SWAP2 SWAP1 POP JUMP JUMPDEST PUSH32 0x45524332303A207472616E7366657220746F20746865207A65726F2061646472 PUSH1 0x0 DUP3 ADD MSTORE PUSH32 0x6573730000000000000000000000000000000000000000000000000000000000 PUSH1 0x20 DUP3 ADD MSTORE POP JUMP JUMPDEST PUSH1 0x0 PUSH2 0x1AF8 PUSH1 0x23 DUP4 PUSH2 0x134B JUMP JUMPDEST SWAP2 POP PUSH2 0x1B03 DUP3 PUSH2 0x1A9C JUMP JUMPDEST PUSH1 0x40 DUP3 ADD SWAP1 POP SWAP2 SWAP1 POP JUMP JUMPDEST PUSH1 0x0 PUSH1 0x20 DUP3 ADD SWAP1 POP DUP2 DUP2 SUB PUSH1 0x0 DUP4 ADD MSTORE PUSH2 0x1B27 DUP2 PUSH2 0x1AEB JUMP JUMPDEST SWAP1 POP SWAP2 SWAP1 POP JUMP JUMPDEST PUSH32 0x45524332303A207472616E7366657220616D6F756E7420657863656564732062 PUSH1 0x0 DUP3 ADD MSTORE PUSH32 0x616C616E63650000000000000000000000000000000000000000000000000000 PUSH1 0x20 DUP3 ADD MSTORE POP JUMP JUMPDEST PUSH1 0x0 PUSH2 0x1B8A PUSH1 0x26 DUP4 PUSH2 0x134B JUMP JUMPDEST SWAP2 POP PUSH2 0x1B95 DUP3 PUSH2 0x1B2E JUMP JUMPDEST PUSH1 0x40 DUP3 ADD SWAP1 POP SWAP2 SWAP1 POP JUMP JUMPDEST PUSH1 0x0 PUSH1 0x20 DUP3 ADD SWAP1 POP DUP2 DUP2 SUB PUSH1 0x0 DUP4 ADD MSTORE PUSH2 0x1BB9 DUP2 PUSH2 0x1B7D JUMP JUMPDEST SWAP1 POP SWAP2 SWAP1 POP JUMP JUMPDEST PUSH32 0x45524332303A206275726E2066726F6D20746865207A65726F20616464726573 PUSH1 0x0 DUP3 ADD MSTORE PUSH32 0x7300000000000000000000000000000000000000000000000000000000000000 PUSH1 0x20 DUP3 ADD MSTORE POP JUMP JUMPDEST PUSH1 0x0 PUSH2 0x1C1C PUSH1 0x21 DUP4 PUSH2 0x134B JUMP JUMPDEST SWAP2 POP PUSH2 0x1C27 DUP3 PUSH2 0x1BC0 JUMP JUMPDEST PUSH1 0x40 DUP3 ADD SWAP1 POP SWAP2 SWAP1 POP JUMP JUMPDEST PUSH1 0x0 PUSH1 0x20 DUP3 ADD SWAP1 POP DUP2 DUP2 SUB PUSH1 0x0 DUP4 ADD MSTORE PUSH2 0x1C4B DUP2 PUSH2 0x1C0F JUMP JUMPDEST SWAP1 POP SWAP2 SWAP1 POP JUMP JUMPDEST PUSH32 0x45524332303A206275726E20616D6F756E7420657863656564732062616C616E PUSH1 0x0 DUP3 ADD MSTORE PUSH32 0x6365000000000000000000000000000000000000000000000000000000000000 PUSH1 0x20 DUP3 ADD MSTORE POP JUMP JUMPDEST PUSH1 0x0 PUSH2 0x1CAE PUSH1 0x22 DUP4 PUSH2 0x134B JUMP JUMPDEST SWAP2 POP PUSH2 0x1CB9 DUP3 PUSH2 0x1C52 JUMP JUMPDEST PUSH1 0x40 DUP3 ADD SWAP1 POP SWAP2 SWAP1 POP JUMP JUMPDEST PUSH1 0x0 PUSH1 0x20 DUP3 ADD SWAP1 POP DUP2 DUP2 SUB PUSH1 0x0 DUP4 ADD MSTORE PUSH2 0x1CDD DUP2 PUSH2 0x1CA1 JUMP JUMPDEST SWAP1 POP SWAP2 SWAP1 POP JUMP INVALID LOG2 PUSH5 0x6970667358 0x22 SLT KECCAK256 TIMESTAMP 0xD SWAP13 PUSH20 0xED2E2C4FBD392B6FD3269C35F7F5F65114DD1B9C 0xAE DUP5 CALL DUP1 PUSH7 0xD9840664736F6C PUSH4 0x43000811 STOP CALLER "
				},
				"gasEstimates": {
					"creation": {
						"codeDepositCost": "1490000",
						"executionCost": "infinite",
						"totalCost": "infinite"
					},
					"external": {
						"MineStatus(address)": "infinite",
						"allowance(address,address)": "infinite",
						"approve(address,uint256)": "infinite",
						"balanceOf(address)": "2864",
						"blockStatus(uint256)": "infinite",
						"burn(uint256)": "infinite",
						"burnFrom(address,uint256)": "infinite",
						"decimals()": "366",
						"decreaseAllowance(address,uint256)": "infinite",
						"difficult(uint256)": "infinite",
						"increaseAllowance(address,uint256)": "infinite",
						"mineInfo(address,uint256)": "infinite",
						"name()": "infinite",
						"symbol()": "infinite",
						"totalSupply()": "2505",
						"transfer(address,uint256)": "infinite",
						"transferFrom(address,address,uint256)": "infinite"
					}
				},
				"methodIdentifiers": {
					"MineStatus(address)": "b8ba6007",
					"allowance(address,address)": "dd62ed3e",
					"approve(address,uint256)": "095ea7b3",
					"balanceOf(address)": "70a08231",
					"blockStatus(uint256)": "4be3403c",
					"burn(uint256)": "42966c68",
					"burnFrom(address,uint256)": "79cc6790",
					"decimals()": "313ce567",
					"decreaseAllowance(address,uint256)": "a457c2d7",
					"difficult(uint256)": "d993226b",
					"increaseAllowance(address,uint256)": "39509351",
					"mineInfo(address,uint256)": "eff0730d",
					"name()": "06fdde03",
					"symbol()": "95d89b41",
					"totalSupply()": "18160ddd",
					"transfer(address,uint256)": "a9059cbb",
					"transferFrom(address,address,uint256)": "23b872dd"
				}
			},
			"storageLayout": {
				"storage": [
					{
						"astId": 447,
						"contract": "minerpunk/ERC20/MinePower.sol:minePower",
						"label": "_balances",
						"offset": 0,
						"slot": "0",
						"type": "t_mapping(t_address,t_uint256)"
					},
					{
						"astId": 453,
						"contract": "minerpunk/ERC20/MinePower.sol:minePower",
						"label": "_allowances",
						"offset": 0,
						"slot": "1",
						"type": "t_mapping(t_address,t_mapping(t_address,t_uint256))"
					},
					{
						"astId": 455,
						"contract": "minerpunk/ERC20/MinePower.sol:minePower",
						"label": "_totalSupply",
						"offset": 0,
						"slot": "2",
						"type": "t_uint256"
					},
					{
						"astId": 457,
						"contract": "minerpunk/ERC20/MinePower.sol:minePower",
						"label": "_TokenperBlock",
						"offset": 0,
						"slot": "3",
						"type": "t_uint256"
					},
					{
						"astId": 459,
						"contract": "minerpunk/ERC20/MinePower.sol:minePower",
						"label": "_startBlockNumber",
						"offset": 0,
						"slot": "4",
						"type": "t_uint256"
					},
					{
						"astId": 461,
						"contract": "minerpunk/ERC20/MinePower.sol:minePower",
						"label": "_name",
						"offset": 0,
						"slot": "5",
						"type": "t_string_storage"
					},
					{
						"astId": 463,
						"contract": "minerpunk/ERC20/MinePower.sol:minePower",
						"label": "_symbol",
						"offset": 0,
						"slot": "6",
						"type": "t_string_storage"
					},
					{
						"astId": 470,
						"contract": "minerpunk/ERC20/MinePower.sol:minePower",
						"label": "_mineInfo",
						"offset": 0,
						"slot": "7",
						"type": "t_mapping(t_address,t_mapping(t_uint256,t_uint256))"
					}
				],
				"types": {
					"t_address": {
						"encoding": "inplace",
						"label": "address",
						"numberOfBytes": "20"
					},
					"t_mapping(t_address,t_mapping(t_address,t_uint256))": {
						"encoding": "mapping",
						"key": "t_address",
						"label": "mapping(address => mapping(address => uint256))",
						"numberOfBytes": "32",
						"value": "t_mapping(t_address,t_uint256)"
					},
					"t_mapping(t_address,t_mapping(t_uint256,t_uint256))": {
						"encoding": "mapping",
						"key": "t_address",
						"label": "mapping(address => mapping(uint256 => uint256))",
						"numberOfBytes": "32",
						"value": "t_mapping(t_uint256,t_uint256)"
					},
					"t_mapping(t_address,t_uint256)": {
						"encoding": "mapping",
						"key": "t_address",
						"label": "mapping(address => uint256)",
						"numberOfBytes": "32",
						"value": "t_uint256"
					},
					"t_mapping(t_uint256,t_uint256)": {
						"encoding": "mapping",
						"key": "t_uint256",
						"label": "mapping(uint256 => uint256)",
						"numberOfBytes": "32",
						"value": "t_uint256"
					},
					"t_string_storage": {
						"encoding": "bytes",
						"label": "string",
						"numberOfBytes": "32"
					},
					"t_uint256": {
						"encoding": "inplace",
						"label": "uint256",
						"numberOfBytes": "32"
					}
				}
			},
			"userdoc": {
				"kind": "user",
				"methods": {},
				"version": 1
			}
		}
	}
}