{
	"minerpunk/ERC20/MinePower.sol": {
		"minePower": {
			"abi": [
				{
					"inputs": [],
					"stateMutability": "nonpayable",
					"type": "constructor"
				},
				{
					"anonymous": false,
					"inputs": [
						{
							"indexed": true,
							"internalType": "address",
							"name": "owner",
							"type": "address"
						},
						{
							"indexed": true,
							"internalType": "address",
							"name": "spender",
							"type": "address"
						},
						{
							"indexed": false,
							"internalType": "uint256",
							"name": "value",
							"type": "uint256"
						}
					],
					"name": "Approval",
					"type": "event"
				},
				{
					"anonymous": false,
					"inputs": [
						{
							"indexed": true,
							"internalType": "address",
							"name": "from",
							"type": "address"
						},
						{
							"indexed": true,
							"internalType": "address",
							"name": "to",
							"type": "address"
						},
						{
							"indexed": false,
							"internalType": "uint256",
							"name": "value",
							"type": "uint256"
						}
					],
					"name": "Transfer",
					"type": "event"
				},
				{
					"inputs": [
						{
							"internalType": "address",
							"name": "user",
							"type": "address"
						}
					],
					"name": "MineStatus",
					"outputs": [
						{
							"internalType": "uint256",
							"name": "",
							"type": "uint256"
						}
					],
					"stateMutability": "view",
					"type": "function"
				},
				{
					"inputs": [
						{
							"internalType": "address",
							"name": "owner",
							"type": "address"
						},
						{
							"internalType": "address",
							"name": "spender",
							"type": "address"
						}
					],
					"name": "allowance",
					"outputs": [
						{
							"internalType": "uint256",
							"name": "",
							"type": "uint256"
						}
					],
					"stateMutability": "view",
					"type": "function"
				},
				{
					"inputs": [
						{
							"internalType": "address",
							"name": "spender",
							"type": "address"
						},
						{
							"internalType": "uint256",
							"name": "amount",
							"type": "uint256"
						}
					],
					"name": "approve",
					"outputs": [
						{
							"internalType": "bool",
							"name": "",
							"type": "bool"
						}
					],
					"stateMutability": "nonpayable",
					"type": "function"
				},
				{
					"inputs": [
						{
							"internalType": "address",
							"name": "account",
							"type": "address"
						}
					],
					"name": "balanceOf",
					"outputs": [
						{
							"internalType": "uint256",
							"name": "",
							"type": "uint256"
						}
					],
					"stateMutability": "view",
					"type": "function"
				},
				{
					"inputs": [
						{
							"internalType": "uint256",
							"name": "_BlockNumber",
							"type": "uint256"
						}
					],
					"name": "blockStatus",
					"outputs": [
						{
							"internalType": "uint256",
							"name": "",
							"type": "uint256"
						}
					],
					"stateMutability": "view",
					"type": "function"
				},
				{
					"inputs": [
						{
							"internalType": "uint256",
							"name": "amount",
							"type": "uint256"
						}
					],
					"name": "burn",
					"outputs": [],
					"stateMutability": "nonpayable",
					"type": "function"
				},
				{
					"inputs": [
						{
							"internalType": "address",
							"name": "account",
							"type": "address"
						},
						{
							"internalType": "uint256",
							"name": "amount",
							"type": "uint256"
						}
					],
					"name": "burnFrom",
					"outputs": [],
					"stateMutability": "nonpayable",
					"type": "function"
				},
				{
					"inputs": [],
					"name": "decimals",
					"outputs": [
						{
							"internalType": "uint8",
							"name": "",
							"type": "uint8"
						}
					],
					"stateMutability": "view",
					"type": "function"
				},
				{
					"inputs": [
						{
							"internalType": "address",
							"name": "spender",
							"type": "address"
						},
						{
							"internalType": "uint256",
							"name": "subtractedValue",
							"type": "uint256"
						}
					],
					"name": "decreaseAllowance",
					"outputs": [
						{
							"internalType": "bool",
							"name": "",
							"type": "bool"
						}
					],
					"stateMutability": "nonpayable",
					"type": "function"
				},
				{
					"inputs": [
						{
							"internalType": "uint256",
							"name": "_BlockNumber",
							"type": "uint256"
						}
					],
					"name": "difficult",
					"outputs": [
						{
							"internalType": "uint256",
							"name": "",
							"type": "uint256"
						}
					],
					"stateMutability": "view",
					"type": "function"
				},
				{
					"inputs": [
						{
							"internalType": "address",
							"name": "spender",
							"type": "address"
						},
						{
							"internalType": "uint256",
							"name": "addedValue",
							"type": "uint256"
						}
					],
					"name": "increaseAllowance",
					"outputs": [
						{
							"internalType": "bool",
							"name": "",
							"type": "bool"
						}
					],
					"stateMutability": "nonpayable",
					"type": "function"
				},
				{
					"inputs": [
						{
							"internalType": "address",
							"name": "user",
							"type": "address"
						},
						{
							"internalType": "uint256",
							"name": "number",
							"type": "uint256"
						}
					],
					"name": "mineInfo",
					"outputs": [
						{
							"internalType": "uint256",
							"name": "",
							"type": "uint256"
						}
					],
					"stateMutability": "view",
					"type": "function"
				},
				{
					"inputs": [],
					"name": "name",
					"outputs": [
						{
							"internalType": "string",
							"name": "",
							"type": "string"
						}
					],
					"stateMutability": "view",
					"type": "function"
				},
				{
					"inputs": [],
					"name": "symbol",
					"outputs": [
						{
							"internalType": "string",
							"name": "",
							"type": "string"
						}
					],
					"stateMutability": "view",
					"type": "function"
				},
				{
					"inputs": [],
					"name": "totalSupply",
					"outputs": [
						{
							"internalType": "uint256",
							"name": "",
							"type": "uint256"
						}
					],
					"stateMutability": "view",
					"type": "function"
				},
				{
					"inputs": [
						{
							"internalType": "address",
							"name": "to",
							"type": "address"
						},
						{
							"internalType": "uint256",
							"name": "amount",
							"type": "uint256"
						}
					],
					"name": "transfer",
					"outputs": [
						{
							"internalType": "bool",
							"name": "",
							"type": "bool"
						}
					],
					"stateMutability": "nonpayable",
					"type": "function"
				},
				{
					"inputs": [
						{
							"internalType": "address",
							"name": "from",
							"type": "address"
						},
						{
							"internalType": "address",
							"name": "to",
							"type": "address"
						},
						{
							"internalType": "uint256",
							"name": "amount",
							"type": "uint256"
						}
					],
					"name": "transferFrom",
					"outputs": [
						{
							"internalType": "bool",
							"name": "",
							"type": "bool"
						}
					],
					"stateMutability": "nonpayable",
					"type": "function"
				}
			],
			"devdoc": {
				"kind": "dev",
				"methods": {
					"allowance(address,address)": {
						"details": "See {IERC20-allowance}."
					},
					"approve(address,uint256)": {
						"details": "See {IERC20-approve}. NOTE: If `amount` is the maximum `uint256`, the allowance is not updated on `transferFrom`. This is semantically equivalent to an infinite approval. Requirements: - `spender` cannot be the zero address."
					},
					"balanceOf(address)": {
						"details": "See {IERC20-balanceOf}."
					},
					"burn(uint256)": {
						"details": "Destroys `amount` tokens from the caller. See {ERC20-_burn}."
					},
					"burnFrom(address,uint256)": {
						"details": "Destroys `amount` tokens from `account`, deducting from the caller's allowance. See {ERC20-_burn} and {ERC20-allowance}. Requirements: - the caller must have allowance for ``accounts``'s tokens of at least `amount`."
					},
					"decimals()": {
						"details": "Returns the number of decimals used to get its user representation. For example, if `decimals` equals `2`, a balance of `505` tokens should be displayed to a user as `5.05` (`505 / 10 ** 2`). Tokens usually opt for a value of 18, imitating the relationship between Ether and Wei. This is the value {ERC20} uses, unless this function is overridden; NOTE: This information is only used for _display_ purposes: it in no way affects any of the arithmetic of the contract, including {IERC20-balanceOf} and {IERC20-transfer}."
					},
					"decreaseAllowance(address,uint256)": {
						"details": "Atomically decreases the allowance granted to `spender` by the caller. This is an alternative to {approve} that can be used as a mitigation for problems described in {IERC20-approve}. Emits an {Approval} event indicating the updated allowance. Requirements: - `spender` cannot be the zero address. - `spender` must have allowance for the caller of at least `subtractedValue`."
					},
					"increaseAllowance(address,uint256)": {
						"details": "Atomically increases the allowance granted to `spender` by the caller. This is an alternative to {approve} that can be used as a mitigation for problems described in {IERC20-approve}. Emits an {Approval} event indicating the updated allowance. Requirements: - `spender` cannot be the zero address."
					},
					"name()": {
						"details": "Returns the name of the token."
					},
					"symbol()": {
						"details": "Returns the symbol of the token, usually a shorter version of the name."
					},
					"totalSupply()": {
						"details": "See {IERC20-totalSupply}."
					},
					"transfer(address,uint256)": {
						"details": "See {IERC20-transfer}. Requirements: - `to` cannot be the zero address. - the caller must have a balance of at least `amount`."
					},
					"transferFrom(address,address,uint256)": {
						"details": "See {IERC20-transferFrom}. Emits an {Approval} event indicating the updated allowance. This is not required by the EIP. See the note at the beginning of {ERC20}. NOTE: Does not update the allowance if the current allowance is the maximum `uint256`. Requirements: - `from` and `to` cannot be the zero address. - `from` must have a balance of at least `amount`. - the caller must have allowance for ``from``'s tokens of at least `amount`."
					}
				},
				"version": 1
			},
			"evm": {
				"assembly": "    /* \"minerpunk/ERC20/MinePower.sol\":27249:27409  contract minePower is ERC20,ERC20Burnable{... */\n  mstore(0x40, 0x80)\n    /* \"minerpunk/ERC20/MinePower.sol\":27296:27402  constructor() ERC20(\"minePower\", \"MPower\") {... */\n  callvalue\n  dup1\n  iszero\n  tag_1\n  jumpi\n  0x00\n  dup1\n  revert\ntag_1:\n  pop\n    /* \"minerpunk/ERC20/MinePower.sol\":13436:13622  constructor(string memory name_, string memory symbol_) {... */\n  mload(0x40)\n  dup1\n  0x40\n  add\n  0x40\n  mstore\n  dup1\n  0x09\n  dup2\n  mstore\n  0x20\n  add\n  0x6d696e65506f7765720000000000000000000000000000000000000000000000\n  dup2\n  mstore\n  pop\n  mload(0x40)\n  dup1\n  0x40\n  add\n  0x40\n  mstore\n  dup1\n  0x06\n  dup2\n  mstore\n  0x20\n  add\n  0x4d506f7765720000000000000000000000000000000000000000000000000000\n  dup2\n  mstore\n  pop\n    /* \"minerpunk/ERC20/MinePower.sol\":13510:13515  name_ */\n  dup2\n    /* \"minerpunk/ERC20/MinePower.sol\":13502:13507  _name */\n  0x05\n    /* \"minerpunk/ERC20/MinePower.sol\":13502:13515  _name = name_ */\n  swap1\n  dup2\n  tag_5\n  swap2\n  swap1\n  tag_6\n  jump\t// in\ntag_5:\n  pop\n    /* \"minerpunk/ERC20/MinePower.sol\":13535:13542  symbol_ */\n  dup1\n    /* \"minerpunk/ERC20/MinePower.sol\":13525:13532  _symbol */\n  0x06\n    /* \"minerpunk/ERC20/MinePower.sol\":13525:13542  _symbol = symbol_ */\n  swap1\n  dup2\n  tag_7\n  swap2\n  swap1\n  tag_6\n  jump\t// in\ntag_7:\n  pop\n    /* \"minerpunk/ERC20/MinePower.sol\":13569:13573  5e18 */\n  0x4563918244f40000\n    /* \"minerpunk/ERC20/MinePower.sol\":13552:13566  _TokenperBlock */\n  0x03\n    /* \"minerpunk/ERC20/MinePower.sol\":13552:13573  _TokenperBlock = 5e18 */\n  dup2\n  swap1\n  sstore\n  pop\n    /* \"minerpunk/ERC20/MinePower.sol\":13603:13615  block.number */\n  number\n    /* \"minerpunk/ERC20/MinePower.sol\":13583:13600  _startBlockNumber */\n  0x04\n    /* \"minerpunk/ERC20/MinePower.sol\":13583:13615  _startBlockNumber = block.number */\n  dup2\n  swap1\n  sstore\n  pop\n    /* \"minerpunk/ERC20/MinePower.sol\":13436:13622  constructor(string memory name_, string memory symbol_) {... */\n  pop\n  pop\n    /* \"minerpunk/ERC20/MinePower.sol\":27349:27395  _mint(msg.sender, 60000000 * 10 ** decimals()) */\n  tag_9\n    /* \"minerpunk/ERC20/MinePower.sol\":27355:27365  msg.sender */\n  caller\n    /* \"minerpunk/ERC20/MinePower.sol\":27384:27394  decimals() */\n  tag_10\n    /* \"minerpunk/ERC20/MinePower.sol\":27384:27392  decimals */\n  shl(0x20, tag_11)\n    /* \"minerpunk/ERC20/MinePower.sol\":27384:27394  decimals() */\n  0x20\n  shr\n  jump\t// in\ntag_10:\n    /* \"minerpunk/ERC20/MinePower.sol\":27378:27380  10 */\n  0x0a\n    /* \"minerpunk/ERC20/MinePower.sol\":27378:27394  10 ** decimals() */\n  tag_12\n  swap2\n  swap1\n  tag_13\n  jump\t// in\ntag_12:\n    /* \"minerpunk/ERC20/MinePower.sol\":27367:27375  60000000 */\n  0x03938700\n    /* \"minerpunk/ERC20/MinePower.sol\":27367:27394  60000000 * 10 ** decimals() */\n  tag_14\n  swap2\n  swap1\n  tag_15\n  jump\t// in\ntag_14:\n    /* \"minerpunk/ERC20/MinePower.sol\":27349:27354  _mint */\n  shl(0x20, tag_16)\n    /* \"minerpunk/ERC20/MinePower.sol\":27349:27395  _mint(msg.sender, 60000000 * 10 ** decimals()) */\n  0x20\n  shr\n  jump\t// in\ntag_9:\n    /* \"minerpunk/ERC20/MinePower.sol\":27249:27409  contract minePower is ERC20,ERC20Burnable{... */\n  jump(tag_17)\n    /* \"minerpunk/ERC20/MinePower.sol\":16071:16162  function decimals() public view virtual override returns (uint8) {... */\ntag_11:\n    /* \"minerpunk/ERC20/MinePower.sol\":16129:16134  uint8 */\n  0x00\n    /* \"minerpunk/ERC20/MinePower.sol\":16153:16155  18 */\n  0x12\n    /* \"minerpunk/ERC20/MinePower.sol\":16146:16155  return 18 */\n  swap1\n  pop\n    /* \"minerpunk/ERC20/MinePower.sol\":16071:16162  function decimals() public view virtual override returns (uint8) {... */\n  swap1\n  jump\t// out\n    /* \"minerpunk/ERC20/MinePower.sol\":21557:22076  function _mint(address account, uint256 amount) internal virtual {... */\ntag_16:\n    /* \"minerpunk/ERC20/MinePower.sol\":21659:21660  0 */\n  0x00\n    /* \"minerpunk/ERC20/MinePower.sol\":21640:21661  account != address(0) */\n  0xffffffffffffffffffffffffffffffffffffffff\n  and\n    /* \"minerpunk/ERC20/MinePower.sol\":21640:21647  account */\n  dup3\n    /* \"minerpunk/ERC20/MinePower.sol\":21640:21661  account != address(0) */\n  0xffffffffffffffffffffffffffffffffffffffff\n  and\n  sub\n    /* \"minerpunk/ERC20/MinePower.sol\":21632:21697  require(account != address(0), \"ERC20: mint to the zero address\") */\n  tag_20\n  jumpi\n  mload(0x40)\n  0x08c379a000000000000000000000000000000000000000000000000000000000\n  dup2\n  mstore\n  0x04\n  add\n  tag_21\n  swap1\n  tag_22\n  jump\t// in\ntag_21:\n  mload(0x40)\n  dup1\n  swap2\n  sub\n  swap1\n  revert\ntag_20:\n    /* \"minerpunk/ERC20/MinePower.sol\":21730:21742  block.number */\n  number\n    /* \"minerpunk/ERC20/MinePower.sol\":21707:21716  _mineInfo */\n  0x07\n    /* \"minerpunk/ERC20/MinePower.sol\":21707:21725  _mineInfo[account] */\n  0x00\n    /* \"minerpunk/ERC20/MinePower.sol\":21717:21724  account */\n  dup5\n    /* \"minerpunk/ERC20/MinePower.sol\":21707:21725  _mineInfo[account] */\n  0xffffffffffffffffffffffffffffffffffffffff\n  and\n  0xffffffffffffffffffffffffffffffffffffffff\n  and\n  dup2\n  mstore\n  0x20\n  add\n  swap1\n  dup2\n  mstore\n  0x20\n  add\n  0x00\n  keccak256\n    /* \"minerpunk/ERC20/MinePower.sol\":21707:21728  _mineInfo[account][1] */\n  0x00\n    /* \"minerpunk/ERC20/MinePower.sol\":21726:21727  1 */\n  0x01\n    /* \"minerpunk/ERC20/MinePower.sol\":21707:21728  _mineInfo[account][1] */\n  dup2\n  mstore\n  0x20\n  add\n  swap1\n  dup2\n  mstore\n  0x20\n  add\n  0x00\n  keccak256\n    /* \"minerpunk/ERC20/MinePower.sol\":21707:21742  _mineInfo[account][1]= block.number */\n  dup2\n  swap1\n  sstore\n  pop\n    /* \"minerpunk/ERC20/MinePower.sol\":21761:21810  _beforeTokenTransfer(address(0), account, amount) */\n  tag_23\n    /* \"minerpunk/ERC20/MinePower.sol\":21790:21791  0 */\n  0x00\n    /* \"minerpunk/ERC20/MinePower.sol\":21794:21801  account */\n  dup4\n    /* \"minerpunk/ERC20/MinePower.sol\":21803:21809  amount */\n  dup4\n    /* \"minerpunk/ERC20/MinePower.sol\":21761:21781  _beforeTokenTransfer */\n  shl(0x20, tag_24)\n    /* \"minerpunk/ERC20/MinePower.sol\":21761:21810  _beforeTokenTransfer(address(0), account, amount) */\n  0x20\n  shr\n  jump\t// in\ntag_23:\n    /* \"minerpunk/ERC20/MinePower.sol\":21837:21843  amount */\n  dup1\n    /* \"minerpunk/ERC20/MinePower.sol\":21821:21833  _totalSupply */\n  0x02\n  0x00\n    /* \"minerpunk/ERC20/MinePower.sol\":21821:21843  _totalSupply += amount */\n  dup3\n  dup3\n  sload\n  tag_25\n  swap2\n  swap1\n  tag_26\n  jump\t// in\ntag_25:\n  swap3\n  pop\n  pop\n  dup2\n  swap1\n  sstore\n  pop\n    /* \"minerpunk/ERC20/MinePower.sol\":21875:21881  amount */\n  dup1\n    /* \"minerpunk/ERC20/MinePower.sol\":21853:21862  _balances */\n  0x00\n    /* \"minerpunk/ERC20/MinePower.sol\":21853:21871  _balances[account] */\n  dup1\n    /* \"minerpunk/ERC20/MinePower.sol\":21863:21870  account */\n  dup5\n    /* \"minerpunk/ERC20/MinePower.sol\":21853:21871  _balances[account] */\n  0xffffffffffffffffffffffffffffffffffffffff\n  and\n  0xffffffffffffffffffffffffffffffffffffffff\n  and\n  dup2\n  mstore\n  0x20\n  add\n  swap1\n  dup2\n  mstore\n  0x20\n  add\n  0x00\n  keccak256\n  0x00\n    /* \"minerpunk/ERC20/MinePower.sol\":21853:21881  _balances[account] += amount */\n  dup3\n  dup3\n  sload\n  tag_27\n  swap2\n  swap1\n  tag_26\n  jump\t// in\ntag_27:\n  swap3\n  pop\n  pop\n  dup2\n  swap1\n  sstore\n  pop\n    /* \"minerpunk/ERC20/MinePower.sol\":21917:21924  account */\n  dup2\n    /* \"minerpunk/ERC20/MinePower.sol\":21896:21933  Transfer(address(0), account, amount) */\n  0xffffffffffffffffffffffffffffffffffffffff\n  and\n    /* \"minerpunk/ERC20/MinePower.sol\":21913:21914  0 */\n  0x00\n    /* \"minerpunk/ERC20/MinePower.sol\":21896:21933  Transfer(address(0), account, amount) */\n  0xffffffffffffffffffffffffffffffffffffffff\n  and\n  0xddf252ad1be2c89b69c2b068fc378daa952ba7f163c4a11628f55a4df523b3ef\n    /* \"minerpunk/ERC20/MinePower.sol\":21926:21932  amount */\n  dup4\n    /* \"minerpunk/ERC20/MinePower.sol\":21896:21933  Transfer(address(0), account, amount) */\n  mload(0x40)\n  tag_28\n  swap2\n  swap1\n  tag_29\n  jump\t// in\ntag_28:\n  mload(0x40)\n  dup1\n  swap2\n  sub\n  swap1\n  log3\n    /* \"minerpunk/ERC20/MinePower.sol\":21944:21992  _afterTokenTransfer(address(0), account, amount) */\n  tag_30\n    /* \"minerpunk/ERC20/MinePower.sol\":21972:21973  0 */\n  0x00\n    /* \"minerpunk/ERC20/MinePower.sol\":21976:21983  account */\n  dup4\n    /* \"minerpunk/ERC20/MinePower.sol\":21985:21991  amount */\n  dup4\n    /* \"minerpunk/ERC20/MinePower.sol\":21944:21963  _afterTokenTransfer */\n  shl(0x20, tag_31)\n    /* \"minerpunk/ERC20/MinePower.sol\":21944:21992  _afterTokenTransfer(address(0), account, amount) */\n  0x20\n  shr\n  jump\t// in\ntag_30:\n    /* \"minerpunk/ERC20/MinePower.sol\":22025:22044  MineStatus(account) */\n  tag_32\n    /* \"minerpunk/ERC20/MinePower.sol\":22036:22043  account */\n  dup3\n    /* \"minerpunk/ERC20/MinePower.sol\":22025:22035  MineStatus */\n  shl(0x20, tag_33)\n    /* \"minerpunk/ERC20/MinePower.sol\":22025:22044  MineStatus(account) */\n  0x20\n  shr\n  jump\t// in\ntag_32:\n    /* \"minerpunk/ERC20/MinePower.sol\":22002:22011  _mineInfo */\n  0x07\n    /* \"minerpunk/ERC20/MinePower.sol\":22002:22020  _mineInfo[account] */\n  0x00\n    /* \"minerpunk/ERC20/MinePower.sol\":22012:22019  account */\n  dup5\n    /* \"minerpunk/ERC20/MinePower.sol\":22002:22020  _mineInfo[account] */\n  0xffffffffffffffffffffffffffffffffffffffff\n  and\n  0xffffffffffffffffffffffffffffffffffffffff\n  and\n  dup2\n  mstore\n  0x20\n  add\n  swap1\n  dup2\n  mstore\n  0x20\n  add\n  0x00\n  keccak256\n    /* \"minerpunk/ERC20/MinePower.sol\":22002:22023  _mineInfo[account][3] */\n  0x00\n    /* \"minerpunk/ERC20/MinePower.sol\":22021:22022  3 */\n  0x03\n    /* \"minerpunk/ERC20/MinePower.sol\":22002:22023  _mineInfo[account][3] */\n  dup2\n  mstore\n  0x20\n  add\n  swap1\n  dup2\n  mstore\n  0x20\n  add\n  0x00\n  keccak256\n    /* \"minerpunk/ERC20/MinePower.sol\":22002:22044  _mineInfo[account][3]= MineStatus(account) */\n  dup2\n  swap1\n  sstore\n  pop\n    /* \"minerpunk/ERC20/MinePower.sol\":21557:22076  function _mint(address account, uint256 amount) internal virtual {... */\n  pop\n  pop\n  jump\t// out\n    /* \"minerpunk/ERC20/MinePower.sol\":25208:25329  function _beforeTokenTransfer(... */\ntag_24:\n  pop\n  pop\n  pop\n  jump\t// out\n    /* \"minerpunk/ERC20/MinePower.sol\":25917:26037  function _afterTokenTransfer(... */\ntag_31:\n  pop\n  pop\n  pop\n  jump\t// out\n    /* \"minerpunk/ERC20/MinePower.sol\":13808:14333  function MineStatus(address user)public view  returns(uint256){... */\ntag_33:\n    /* \"minerpunk/ERC20/MinePower.sol\":13862:13869  uint256 */\n  0x00\n    /* \"minerpunk/ERC20/MinePower.sol\":13880:13898  uint256 difference */\n  dup1\n    /* \"minerpunk/ERC20/MinePower.sol\":13901:13937  block.number.sub(_mineInfo[user][1]) */\n  tag_37\n    /* \"minerpunk/ERC20/MinePower.sol\":13918:13927  _mineInfo */\n  0x07\n    /* \"minerpunk/ERC20/MinePower.sol\":13918:13933  _mineInfo[user] */\n  0x00\n    /* \"minerpunk/ERC20/MinePower.sol\":13928:13932  user */\n  dup6\n    /* \"minerpunk/ERC20/MinePower.sol\":13918:13933  _mineInfo[user] */\n  0xffffffffffffffffffffffffffffffffffffffff\n  and\n  0xffffffffffffffffffffffffffffffffffffffff\n  and\n  dup2\n  mstore\n  0x20\n  add\n  swap1\n  dup2\n  mstore\n  0x20\n  add\n  0x00\n  keccak256\n    /* \"minerpunk/ERC20/MinePower.sol\":13918:13936  _mineInfo[user][1] */\n  0x00\n    /* \"minerpunk/ERC20/MinePower.sol\":13934:13935  1 */\n  0x01\n    /* \"minerpunk/ERC20/MinePower.sol\":13918:13936  _mineInfo[user][1] */\n  dup2\n  mstore\n  0x20\n  add\n  swap1\n  dup2\n  mstore\n  0x20\n  add\n  0x00\n  keccak256\n  sload\n    /* \"minerpunk/ERC20/MinePower.sol\":13901:13913  block.number */\n  number\n    /* \"minerpunk/ERC20/MinePower.sol\":13901:13917  block.number.sub */\n  or(tag_0_94, shl(0x20, tag_38))\n  swap1\n    /* \"minerpunk/ERC20/MinePower.sol\":13901:13937  block.number.sub(_mineInfo[user][1]) */\n  swap2\n  swap1\n  0x20\n  shr\n  jump\t// in\ntag_37:\n    /* \"minerpunk/ERC20/MinePower.sol\":13880:13937  uint256 difference = block.number.sub(_mineInfo[user][1]) */\n  swap1\n  pop\n    /* \"minerpunk/ERC20/MinePower.sol\":13947:13960  uint256 start */\n  0x00\n    /* \"minerpunk/ERC20/MinePower.sol\":13963:13994  blockStatus(_mineInfo[user][1]) */\n  tag_39\n    /* \"minerpunk/ERC20/MinePower.sol\":13975:13984  _mineInfo */\n  0x07\n    /* \"minerpunk/ERC20/MinePower.sol\":13975:13990  _mineInfo[user] */\n  0x00\n    /* \"minerpunk/ERC20/MinePower.sol\":13985:13989  user */\n  dup7\n    /* \"minerpunk/ERC20/MinePower.sol\":13975:13990  _mineInfo[user] */\n  0xffffffffffffffffffffffffffffffffffffffff\n  and\n  0xffffffffffffffffffffffffffffffffffffffff\n  and\n  dup2\n  mstore\n  0x20\n  add\n  swap1\n  dup2\n  mstore\n  0x20\n  add\n  0x00\n  keccak256\n    /* \"minerpunk/ERC20/MinePower.sol\":13975:13993  _mineInfo[user][1] */\n  0x00\n    /* \"minerpunk/ERC20/MinePower.sol\":13991:13992  1 */\n  0x01\n    /* \"minerpunk/ERC20/MinePower.sol\":13975:13993  _mineInfo[user][1] */\n  dup2\n  mstore\n  0x20\n  add\n  swap1\n  dup2\n  mstore\n  0x20\n  add\n  0x00\n  keccak256\n  sload\n    /* \"minerpunk/ERC20/MinePower.sol\":13963:13974  blockStatus */\n  shl(0x20, tag_40)\n    /* \"minerpunk/ERC20/MinePower.sol\":13963:13994  blockStatus(_mineInfo[user][1]) */\n  0x20\n  shr\n  jump\t// in\ntag_39:\n    /* \"minerpunk/ERC20/MinePower.sol\":13947:13994  uint256 start = blockStatus(_mineInfo[user][1]) */\n  swap1\n  pop\n    /* \"minerpunk/ERC20/MinePower.sol\":14004:14015  uint256 end */\n  0x00\n    /* \"minerpunk/ERC20/MinePower.sol\":14018:14043  blockStatus(block.number) */\n  tag_41\n    /* \"minerpunk/ERC20/MinePower.sol\":14030:14042  block.number */\n  number\n    /* \"minerpunk/ERC20/MinePower.sol\":14018:14029  blockStatus */\n  shl(0x20, tag_40)\n    /* \"minerpunk/ERC20/MinePower.sol\":14018:14043  blockStatus(block.number) */\n  0x20\n  shr\n  jump\t// in\ntag_41:\n    /* \"minerpunk/ERC20/MinePower.sol\":14004:14043  uint256 end = blockStatus(block.number) */\n  swap1\n  pop\n    /* \"minerpunk/ERC20/MinePower.sol\":14053:14071  uint256 mined_area */\n  0x00\n    /* \"minerpunk/ERC20/MinePower.sol\":14074:14111  start.add(end).mul(difference).div(2) */\n  tag_42\n    /* \"minerpunk/ERC20/MinePower.sol\":14109:14110  2 */\n  0x02\n    /* \"minerpunk/ERC20/MinePower.sol\":14074:14104  start.add(end).mul(difference) */\n  tag_43\n    /* \"minerpunk/ERC20/MinePower.sol\":14093:14103  difference */\n  dup7\n    /* \"minerpunk/ERC20/MinePower.sol\":14074:14088  start.add(end) */\n  tag_44\n    /* \"minerpunk/ERC20/MinePower.sol\":14084:14087  end */\n  dup7\n    /* \"minerpunk/ERC20/MinePower.sol\":14074:14079  start */\n  dup9\n    /* \"minerpunk/ERC20/MinePower.sol\":14074:14083  start.add */\n  or(tag_0_95, shl(0x20, tag_45))\n  swap1\n    /* \"minerpunk/ERC20/MinePower.sol\":14074:14088  start.add(end) */\n  swap2\n  swap1\n  0x20\n  shr\n  jump\t// in\ntag_44:\n    /* \"minerpunk/ERC20/MinePower.sol\":14074:14092  start.add(end).mul */\n  or(tag_0_96, shl(0x20, tag_46))\n  swap1\n    /* \"minerpunk/ERC20/MinePower.sol\":14074:14104  start.add(end).mul(difference) */\n  swap2\n  swap1\n  0x20\n  shr\n  jump\t// in\ntag_43:\n    /* \"minerpunk/ERC20/MinePower.sol\":14074:14108  start.add(end).mul(difference).div */\n  or(tag_0_97, shl(0x20, tag_47))\n  swap1\n    /* \"minerpunk/ERC20/MinePower.sol\":14074:14111  start.add(end).mul(difference).div(2) */\n  swap2\n  swap1\n  0x20\n  shr\n  jump\t// in\ntag_42:\n    /* \"minerpunk/ERC20/MinePower.sol\":14053:14111  uint256 mined_area = start.add(end).mul(difference).div(2) */\n  swap1\n  pop\n    /* \"minerpunk/ERC20/MinePower.sol\":14201:14216  uint dcf_amount */\n  0x00\n    /* \"minerpunk/ERC20/MinePower.sol\":14219:14268  mined_area.mul(balanceOf(user)).div(_totalSupply) */\n  tag_48\n    /* \"minerpunk/ERC20/MinePower.sol\":14255:14267  _totalSupply */\n  sload(0x02)\n    /* \"minerpunk/ERC20/MinePower.sol\":14219:14250  mined_area.mul(balanceOf(user)) */\n  tag_49\n    /* \"minerpunk/ERC20/MinePower.sol\":14234:14249  balanceOf(user) */\n  tag_50\n    /* \"minerpunk/ERC20/MinePower.sol\":14244:14248  user */\n  dup11\n    /* \"minerpunk/ERC20/MinePower.sol\":14234:14243  balanceOf */\n  shl(0x20, tag_51)\n    /* \"minerpunk/ERC20/MinePower.sol\":14234:14249  balanceOf(user) */\n  0x20\n  shr\n  jump\t// in\ntag_50:\n    /* \"minerpunk/ERC20/MinePower.sol\":14219:14229  mined_area */\n  dup6\n    /* \"minerpunk/ERC20/MinePower.sol\":14219:14233  mined_area.mul */\n  or(tag_0_96, shl(0x20, tag_46))\n  swap1\n    /* \"minerpunk/ERC20/MinePower.sol\":14219:14250  mined_area.mul(balanceOf(user)) */\n  swap2\n  swap1\n  0x20\n  shr\n  jump\t// in\ntag_49:\n    /* \"minerpunk/ERC20/MinePower.sol\":14219:14254  mined_area.mul(balanceOf(user)).div */\n  or(tag_0_97, shl(0x20, tag_47))\n  swap1\n    /* \"minerpunk/ERC20/MinePower.sol\":14219:14268  mined_area.mul(balanceOf(user)).div(_totalSupply) */\n  swap2\n  swap1\n  0x20\n  shr\n  jump\t// in\ntag_48:\n    /* \"minerpunk/ERC20/MinePower.sol\":14201:14268  uint dcf_amount = mined_area.mul(balanceOf(user)).div(_totalSupply) */\n  swap1\n  pop\n    /* \"minerpunk/ERC20/MinePower.sol\":14285:14319  _mineInfo[user][3].add(dcf_amount) */\n  tag_52\n    /* \"minerpunk/ERC20/MinePower.sol\":14308:14318  dcf_amount */\n  dup2\n    /* \"minerpunk/ERC20/MinePower.sol\":14285:14294  _mineInfo */\n  0x07\n    /* \"minerpunk/ERC20/MinePower.sol\":14285:14300  _mineInfo[user] */\n  0x00\n    /* \"minerpunk/ERC20/MinePower.sol\":14295:14299  user */\n  dup11\n    /* \"minerpunk/ERC20/MinePower.sol\":14285:14300  _mineInfo[user] */\n  0xffffffffffffffffffffffffffffffffffffffff\n  and\n  0xffffffffffffffffffffffffffffffffffffffff\n  and\n  dup2\n  mstore\n  0x20\n  add\n  swap1\n  dup2\n  mstore\n  0x20\n  add\n  0x00\n  keccak256\n    /* \"minerpunk/ERC20/MinePower.sol\":14285:14303  _mineInfo[user][3] */\n  0x00\n    /* \"minerpunk/ERC20/MinePower.sol\":14301:14302  3 */\n  0x03\n    /* \"minerpunk/ERC20/MinePower.sol\":14285:14303  _mineInfo[user][3] */\n  dup2\n  mstore\n  0x20\n  add\n  swap1\n  dup2\n  mstore\n  0x20\n  add\n  0x00\n  keccak256\n  sload\n    /* \"minerpunk/ERC20/MinePower.sol\":14285:14307  _mineInfo[user][3].add */\n  or(tag_0_95, shl(0x20, tag_45))\n  swap1\n    /* \"minerpunk/ERC20/MinePower.sol\":14285:14319  _mineInfo[user][3].add(dcf_amount) */\n  swap2\n  swap1\n  0x20\n  shr\n  jump\t// in\ntag_52:\n    /* \"minerpunk/ERC20/MinePower.sol\":14278:14319  return _mineInfo[user][3].add(dcf_amount) */\n  swap6\n  pop\n  pop\n  pop\n  pop\n  pop\n  pop\n    /* \"minerpunk/ERC20/MinePower.sol\":13808:14333  function MineStatus(address user)public view  returns(uint256){... */\n  swap2\n  swap1\n  pop\n  jump\t// out\n    /* \"minerpunk/ERC20/MinePower.sol\":3181:3277  function sub(uint256 a, uint256 b) internal pure returns (uint256) {... */\ntag_38:\n    /* \"minerpunk/ERC20/MinePower.sol\":3239:3246  uint256 */\n  0x00\n    /* \"minerpunk/ERC20/MinePower.sol\":3269:3270  b */\n  dup2\n    /* \"minerpunk/ERC20/MinePower.sol\":3265:3266  a */\n  dup4\n    /* \"minerpunk/ERC20/MinePower.sol\":3265:3270  a - b */\n  tag_54\n  swap2\n  swap1\n  tag_55\n  jump\t// in\ntag_54:\n    /* \"minerpunk/ERC20/MinePower.sol\":3258:3270  return a - b */\n  swap1\n  pop\n    /* \"minerpunk/ERC20/MinePower.sol\":3181:3277  function sub(uint256 a, uint256 b) internal pure returns (uint256) {... */\n  swap3\n  swap2\n  pop\n  pop\n  jump\t// out\n    /* \"minerpunk/ERC20/MinePower.sol\":14400:14795  function blockStatus (uint256 _BlockNumber)public view  returns (uint256){... */\ntag_40:\n    /* \"minerpunk/ERC20/MinePower.sol\":14465:14472  uint256 */\n  0x00\n    /* \"minerpunk/ERC20/MinePower.sol\":14501:14518  _startBlockNumber */\n  sload(0x04)\n    /* \"minerpunk/ERC20/MinePower.sol\":14486:14498  _BlockNumber */\n  dup3\n    /* \"minerpunk/ERC20/MinePower.sol\":14486:14518  _BlockNumber < _startBlockNumber */\n  lt\n    /* \"minerpunk/ERC20/MinePower.sol\":14483:14576  if(_BlockNumber < _startBlockNumber){... */\n  iszero\n  tag_57\n  jumpi\n    /* \"minerpunk/ERC20/MinePower.sol\":14548:14565  _startBlockNumber */\n  sload(0x04)\n    /* \"minerpunk/ERC20/MinePower.sol\":14533:14565  _BlockNumber = _startBlockNumber */\n  swap2\n  pop\n    /* \"minerpunk/ERC20/MinePower.sol\":14483:14576  if(_BlockNumber < _startBlockNumber){... */\ntag_57:\n    /* \"minerpunk/ERC20/MinePower.sol\":14585:14604  uint256 DCFperBlock */\n  0x00\n    /* \"minerpunk/ERC20/MinePower.sol\":14607:14631  _TokenperBlock.mul(1e54) */\n  tag_58\n    /* \"minerpunk/ERC20/MinePower.sol\":14626:14630  1e54 */\n  0x0a70c3c40a64e6c51999090b65f67d9240000000000000\n    /* \"minerpunk/ERC20/MinePower.sol\":14607:14621  _TokenperBlock */\n  sload(0x03)\n    /* \"minerpunk/ERC20/MinePower.sol\":14607:14625  _TokenperBlock.mul */\n  or(tag_0_96, shl(0x20, tag_46))\n  swap1\n    /* \"minerpunk/ERC20/MinePower.sol\":14607:14631  _TokenperBlock.mul(1e54) */\n  swap2\n  swap1\n  0x20\n  shr\n  jump\t// in\ntag_58:\n    /* \"minerpunk/ERC20/MinePower.sol\":14585:14631  uint256 DCFperBlock = _TokenperBlock.mul(1e54) */\n  swap1\n  pop\n    /* \"minerpunk/ERC20/MinePower.sol\":14652:14674  uint256 BlockDifficult */\n  0x00\n    /* \"minerpunk/ERC20/MinePower.sol\":14677:14700  difficult(_BlockNumber) */\n  tag_59\n    /* \"minerpunk/ERC20/MinePower.sol\":14687:14699  _BlockNumber */\n  dup5\n    /* \"minerpunk/ERC20/MinePower.sol\":14677:14686  difficult */\n  shl(0x20, tag_60)\n    /* \"minerpunk/ERC20/MinePower.sol\":14677:14700  difficult(_BlockNumber) */\n  0x20\n  shr\n  jump\t// in\ntag_59:\n    /* \"minerpunk/ERC20/MinePower.sol\":14652:14700  uint256 BlockDifficult = difficult(_BlockNumber) */\n  swap1\n  pop\n    /* \"minerpunk/ERC20/MinePower.sol\":14715:14728  uint256 DugUP */\n  0x00\n    /* \"minerpunk/ERC20/MinePower.sol\":14731:14762  DCFperBlock.div(BlockDifficult) */\n  tag_61\n    /* \"minerpunk/ERC20/MinePower.sol\":14747:14761  BlockDifficult */\n  dup3\n    /* \"minerpunk/ERC20/MinePower.sol\":14731:14742  DCFperBlock */\n  dup5\n    /* \"minerpunk/ERC20/MinePower.sol\":14731:14746  DCFperBlock.div */\n  or(tag_0_97, shl(0x20, tag_47))\n  swap1\n    /* \"minerpunk/ERC20/MinePower.sol\":14731:14762  DCFperBlock.div(BlockDifficult) */\n  swap2\n  swap1\n  0x20\n  shr\n  jump\t// in\ntag_61:\n    /* \"minerpunk/ERC20/MinePower.sol\":14715:14762  uint256 DugUP = DCFperBlock.div(BlockDifficult) */\n  swap1\n  pop\n    /* \"minerpunk/ERC20/MinePower.sol\":14779:14784  DugUP */\n  dup1\n    /* \"minerpunk/ERC20/MinePower.sol\":14772:14784  return DugUP */\n  swap4\n  pop\n  pop\n  pop\n  pop\n    /* \"minerpunk/ERC20/MinePower.sol\":14400:14795  function blockStatus (uint256 _BlockNumber)public view  returns (uint256){... */\n  swap2\n  swap1\n  pop\n  jump\t// out\n    /* \"minerpunk/ERC20/MinePower.sol\":2814:2910  function add(uint256 a, uint256 b) internal pure returns (uint256) {... */\ntag_45:\n    /* \"minerpunk/ERC20/MinePower.sol\":2872:2879  uint256 */\n  0x00\n    /* \"minerpunk/ERC20/MinePower.sol\":2902:2903  b */\n  dup2\n    /* \"minerpunk/ERC20/MinePower.sol\":2898:2899  a */\n  dup4\n    /* \"minerpunk/ERC20/MinePower.sol\":2898:2903  a + b */\n  tag_63\n  swap2\n  swap1\n  tag_26\n  jump\t// in\ntag_63:\n    /* \"minerpunk/ERC20/MinePower.sol\":2891:2903  return a + b */\n  swap1\n  pop\n    /* \"minerpunk/ERC20/MinePower.sol\":2814:2910  function add(uint256 a, uint256 b) internal pure returns (uint256) {... */\n  swap3\n  swap2\n  pop\n  pop\n  jump\t// out\n    /* \"minerpunk/ERC20/MinePower.sol\":3524:3620  function mul(uint256 a, uint256 b) internal pure returns (uint256) {... */\ntag_46:\n    /* \"minerpunk/ERC20/MinePower.sol\":3582:3589  uint256 */\n  0x00\n    /* \"minerpunk/ERC20/MinePower.sol\":3612:3613  b */\n  dup2\n    /* \"minerpunk/ERC20/MinePower.sol\":3608:3609  a */\n  dup4\n    /* \"minerpunk/ERC20/MinePower.sol\":3608:3613  a * b */\n  tag_65\n  swap2\n  swap1\n  tag_15\n  jump\t// in\ntag_65:\n    /* \"minerpunk/ERC20/MinePower.sol\":3601:3613  return a * b */\n  swap1\n  pop\n    /* \"minerpunk/ERC20/MinePower.sol\":3524:3620  function mul(uint256 a, uint256 b) internal pure returns (uint256) {... */\n  swap3\n  swap2\n  pop\n  pop\n  jump\t// out\n    /* \"minerpunk/ERC20/MinePower.sol\":3909:4005  function div(uint256 a, uint256 b) internal pure returns (uint256) {... */\ntag_47:\n    /* \"minerpunk/ERC20/MinePower.sol\":3967:3974  uint256 */\n  0x00\n    /* \"minerpunk/ERC20/MinePower.sol\":3997:3998  b */\n  dup2\n    /* \"minerpunk/ERC20/MinePower.sol\":3993:3994  a */\n  dup4\n    /* \"minerpunk/ERC20/MinePower.sol\":3993:3998  a / b */\n  tag_67\n  swap2\n  swap1\n  tag_68\n  jump\t// in\ntag_67:\n    /* \"minerpunk/ERC20/MinePower.sol\":3986:3998  return a / b */\n  swap1\n  pop\n    /* \"minerpunk/ERC20/MinePower.sol\":3909:4005  function div(uint256 a, uint256 b) internal pure returns (uint256) {... */\n  swap3\n  swap2\n  pop\n  pop\n  jump\t// out\n    /* \"minerpunk/ERC20/MinePower.sol\":16386:16511  function balanceOf(address account) public view virtual override returns (uint256) {... */\ntag_51:\n    /* \"minerpunk/ERC20/MinePower.sol\":16460:16467  uint256 */\n  0x00\n    /* \"minerpunk/ERC20/MinePower.sol\":16486:16495  _balances */\n  dup1\n    /* \"minerpunk/ERC20/MinePower.sol\":16486:16504  _balances[account] */\n  0x00\n    /* \"minerpunk/ERC20/MinePower.sol\":16496:16503  account */\n  dup4\n    /* \"minerpunk/ERC20/MinePower.sol\":16486:16504  _balances[account] */\n  0xffffffffffffffffffffffffffffffffffffffff\n  and\n  0xffffffffffffffffffffffffffffffffffffffff\n  and\n  dup2\n  mstore\n  0x20\n  add\n  swap1\n  dup2\n  mstore\n  0x20\n  add\n  0x00\n  keccak256\n  sload\n    /* \"minerpunk/ERC20/MinePower.sol\":16479:16504  return _balances[account] */\n  swap1\n  pop\n    /* \"minerpunk/ERC20/MinePower.sol\":16386:16511  function balanceOf(address account) public view virtual override returns (uint256) {... */\n  swap2\n  swap1\n  pop\n  jump\t// out\n    /* \"minerpunk/ERC20/MinePower.sol\":14802:15061  function difficult(uint _BlockNumber)public view  returns (uint256){... */\ntag_60:\n    /* \"minerpunk/ERC20/MinePower.sol\":14861:14868  uint256 */\n  0x00\n    /* \"minerpunk/ERC20/MinePower.sol\":14879:14898  uint BlockDifficult */\n  dup1\n    /* \"minerpunk/ERC20/MinePower.sol\":14899:14944  _BlockNumber.mul(1e18).div(_startBlockNumber) */\n  tag_71\n    /* \"minerpunk/ERC20/MinePower.sol\":14926:14943  _startBlockNumber */\n  sload(0x04)\n    /* \"minerpunk/ERC20/MinePower.sol\":14899:14921  _BlockNumber.mul(1e18) */\n  tag_72\n    /* \"minerpunk/ERC20/MinePower.sol\":14916:14920  1e18 */\n  0x0de0b6b3a7640000\n    /* \"minerpunk/ERC20/MinePower.sol\":14899:14911  _BlockNumber */\n  dup7\n    /* \"minerpunk/ERC20/MinePower.sol\":14899:14915  _BlockNumber.mul */\n  or(tag_0_96, shl(0x20, tag_46))\n  swap1\n    /* \"minerpunk/ERC20/MinePower.sol\":14899:14921  _BlockNumber.mul(1e18) */\n  swap2\n  swap1\n  0x20\n  shr\n  jump\t// in\ntag_72:\n    /* \"minerpunk/ERC20/MinePower.sol\":14899:14925  _BlockNumber.mul(1e18).div */\n  or(tag_0_97, shl(0x20, tag_47))\n  swap1\n    /* \"minerpunk/ERC20/MinePower.sol\":14899:14944  _BlockNumber.mul(1e18).div(_startBlockNumber) */\n  swap2\n  swap1\n  0x20\n  shr\n  jump\t// in\ntag_71:\n    /* \"minerpunk/ERC20/MinePower.sol\":14879:14944  uint BlockDifficult=_BlockNumber.mul(1e18).div(_startBlockNumber) */\n  swap1\n  pop\n    /* \"minerpunk/ERC20/MinePower.sol\":14969:15023  BlockDifficult.mul(BlockDifficult).mul(BlockDifficult) */\n  tag_73\n    /* \"minerpunk/ERC20/MinePower.sol\":15008:15022  BlockDifficult */\n  dup2\n    /* \"minerpunk/ERC20/MinePower.sol\":14969:15003  BlockDifficult.mul(BlockDifficult) */\n  tag_74\n    /* \"minerpunk/ERC20/MinePower.sol\":14988:15002  BlockDifficult */\n  dup4\n    /* \"minerpunk/ERC20/MinePower.sol\":14969:14983  BlockDifficult */\n  dup5\n    /* \"minerpunk/ERC20/MinePower.sol\":14969:14987  BlockDifficult.mul */\n  or(tag_0_96, shl(0x20, tag_46))\n  swap1\n    /* \"minerpunk/ERC20/MinePower.sol\":14969:15003  BlockDifficult.mul(BlockDifficult) */\n  swap2\n  swap1\n  0x20\n  shr\n  jump\t// in\ntag_74:\n    /* \"minerpunk/ERC20/MinePower.sol\":14969:15007  BlockDifficult.mul(BlockDifficult).mul */\n  or(tag_0_96, shl(0x20, tag_46))\n  swap1\n    /* \"minerpunk/ERC20/MinePower.sol\":14969:15023  BlockDifficult.mul(BlockDifficult).mul(BlockDifficult) */\n  swap2\n  swap1\n  0x20\n  shr\n  jump\t// in\ntag_73:\n    /* \"minerpunk/ERC20/MinePower.sol\":14954:15023  BlockDifficult=BlockDifficult.mul(BlockDifficult).mul(BlockDifficult) */\n  swap1\n  pop\n    /* \"minerpunk/ERC20/MinePower.sol\":15040:15054  BlockDifficult */\n  dup1\n    /* \"minerpunk/ERC20/MinePower.sol\":15033:15054  return BlockDifficult */\n  swap2\n  pop\n  pop\n    /* \"minerpunk/ERC20/MinePower.sol\":14802:15061  function difficult(uint _BlockNumber)public view  returns (uint256){... */\n  swap2\n  swap1\n  pop\n  jump\t// out\n    /* \"#utility.yul\":7:106   */\ntag_75:\n    /* \"#utility.yul\":59:65   */\n  0x00\n    /* \"#utility.yul\":93:98   */\n  dup2\n    /* \"#utility.yul\":87:99   */\n  mload\n    /* \"#utility.yul\":77:99   */\n  swap1\n  pop\n    /* \"#utility.yul\":7:106   */\n  swap2\n  swap1\n  pop\n  jump\t// out\n    /* \"#utility.yul\":112:292   */\ntag_76:\n    /* \"#utility.yul\":160:237   */\n  0x4e487b7100000000000000000000000000000000000000000000000000000000\n    /* \"#utility.yul\":157:158   */\n  0x00\n    /* \"#utility.yul\":150:238   */\n  mstore\n    /* \"#utility.yul\":257:261   */\n  0x41\n    /* \"#utility.yul\":254:255   */\n  0x04\n    /* \"#utility.yul\":247:262   */\n  mstore\n    /* \"#utility.yul\":281:285   */\n  0x24\n    /* \"#utility.yul\":278:279   */\n  0x00\n    /* \"#utility.yul\":271:286   */\n  revert\n    /* \"#utility.yul\":298:478   */\ntag_77:\n    /* \"#utility.yul\":346:423   */\n  0x4e487b7100000000000000000000000000000000000000000000000000000000\n    /* \"#utility.yul\":343:344   */\n  0x00\n    /* \"#utility.yul\":336:424   */\n  mstore\n    /* \"#utility.yul\":443:447   */\n  0x22\n    /* \"#utility.yul\":440:441   */\n  0x04\n    /* \"#utility.yul\":433:448   */\n  mstore\n    /* \"#utility.yul\":467:471   */\n  0x24\n    /* \"#utility.yul\":464:465   */\n  0x00\n    /* \"#utility.yul\":457:472   */\n  revert\n    /* \"#utility.yul\":484:804   */\ntag_78:\n    /* \"#utility.yul\":528:534   */\n  0x00\n    /* \"#utility.yul\":565:566   */\n  0x02\n    /* \"#utility.yul\":559:563   */\n  dup3\n    /* \"#utility.yul\":555:567   */\n  div\n    /* \"#utility.yul\":545:567   */\n  swap1\n  pop\n    /* \"#utility.yul\":612:613   */\n  0x01\n    /* \"#utility.yul\":606:610   */\n  dup3\n    /* \"#utility.yul\":602:614   */\n  and\n    /* \"#utility.yul\":633:651   */\n  dup1\n    /* \"#utility.yul\":623:704   */\n  tag_110\n  jumpi\n    /* \"#utility.yul\":689:693   */\n  0x7f\n    /* \"#utility.yul\":681:687   */\n  dup3\n    /* \"#utility.yul\":677:694   */\n  and\n    /* \"#utility.yul\":667:694   */\n  swap2\n  pop\n    /* \"#utility.yul\":623:704   */\ntag_110:\n    /* \"#utility.yul\":751:753   */\n  0x20\n    /* \"#utility.yul\":743:749   */\n  dup3\n    /* \"#utility.yul\":740:754   */\n  lt\n    /* \"#utility.yul\":720:738   */\n  dup2\n    /* \"#utility.yul\":717:755   */\n  sub\n    /* \"#utility.yul\":714:798   */\n  tag_111\n  jumpi\n    /* \"#utility.yul\":770:788   */\n  tag_112\n  tag_77\n  jump\t// in\ntag_112:\n    /* \"#utility.yul\":714:798   */\ntag_111:\n    /* \"#utility.yul\":535:804   */\n  pop\n    /* \"#utility.yul\":484:804   */\n  swap2\n  swap1\n  pop\n  jump\t// out\n    /* \"#utility.yul\":810:951   */\ntag_79:\n    /* \"#utility.yul\":859:863   */\n  0x00\n    /* \"#utility.yul\":882:885   */\n  dup2\n    /* \"#utility.yul\":874:885   */\n  swap1\n  pop\n    /* \"#utility.yul\":905:908   */\n  dup2\n    /* \"#utility.yul\":902:903   */\n  0x00\n    /* \"#utility.yul\":895:909   */\n  mstore\n    /* \"#utility.yul\":939:943   */\n  0x20\n    /* \"#utility.yul\":936:937   */\n  0x00\n    /* \"#utility.yul\":926:944   */\n  keccak256\n    /* \"#utility.yul\":918:944   */\n  swap1\n  pop\n    /* \"#utility.yul\":810:951   */\n  swap2\n  swap1\n  pop\n  jump\t// out\n    /* \"#utility.yul\":957:1050   */\ntag_80:\n    /* \"#utility.yul\":994:1000   */\n  0x00\n    /* \"#utility.yul\":1041:1043   */\n  0x20\n    /* \"#utility.yul\":1036:1038   */\n  0x1f\n    /* \"#utility.yul\":1029:1034   */\n  dup4\n    /* \"#utility.yul\":1025:1039   */\n  add\n    /* \"#utility.yul\":1021:1044   */\n  div\n    /* \"#utility.yul\":1011:1044   */\n  swap1\n  pop\n    /* \"#utility.yul\":957:1050   */\n  swap2\n  swap1\n  pop\n  jump\t// out\n    /* \"#utility.yul\":1056:1163   */\ntag_81:\n    /* \"#utility.yul\":1100:1108   */\n  0x00\n    /* \"#utility.yul\":1150:1155   */\n  dup3\n    /* \"#utility.yul\":1144:1148   */\n  dup3\n    /* \"#utility.yul\":1140:1156   */\n  shl\n    /* \"#utility.yul\":1119:1156   */\n  swap1\n  pop\n    /* \"#utility.yul\":1056:1163   */\n  swap3\n  swap2\n  pop\n  pop\n  jump\t// out\n    /* \"#utility.yul\":1169:1562   */\ntag_82:\n    /* \"#utility.yul\":1238:1244   */\n  0x00\n    /* \"#utility.yul\":1288:1289   */\n  0x08\n    /* \"#utility.yul\":1276:1286   */\n  dup4\n    /* \"#utility.yul\":1272:1290   */\n  mul\n    /* \"#utility.yul\":1311:1408   */\n  tag_117\n    /* \"#utility.yul\":1341:1407   */\n  0xffffffffffffffffffffffffffffffffffffffffffffffffffffffffffffffff\n    /* \"#utility.yul\":1330:1339   */\n  dup3\n    /* \"#utility.yul\":1311:1408   */\n  tag_81\n  jump\t// in\ntag_117:\n    /* \"#utility.yul\":1429:1468   */\n  tag_118\n    /* \"#utility.yul\":1459:1467   */\n  dup7\n    /* \"#utility.yul\":1448:1457   */\n  dup4\n    /* \"#utility.yul\":1429:1468   */\n  tag_81\n  jump\t// in\ntag_118:\n    /* \"#utility.yul\":1417:1468   */\n  swap6\n  pop\n    /* \"#utility.yul\":1501:1505   */\n  dup1\n    /* \"#utility.yul\":1497:1506   */\n  not\n    /* \"#utility.yul\":1490:1495   */\n  dup5\n    /* \"#utility.yul\":1486:1507   */\n  and\n    /* \"#utility.yul\":1477:1507   */\n  swap4\n  pop\n    /* \"#utility.yul\":1550:1554   */\n  dup1\n    /* \"#utility.yul\":1540:1548   */\n  dup7\n    /* \"#utility.yul\":1536:1555   */\n  and\n    /* \"#utility.yul\":1529:1534   */\n  dup5\n    /* \"#utility.yul\":1526:1556   */\n  or\n    /* \"#utility.yul\":1516:1556   */\n  swap3\n  pop\n    /* \"#utility.yul\":1245:1562   */\n  pop\n  pop\n    /* \"#utility.yul\":1169:1562   */\n  swap4\n  swap3\n  pop\n  pop\n  pop\n  jump\t// out\n    /* \"#utility.yul\":1568:1645   */\ntag_83:\n    /* \"#utility.yul\":1605:1612   */\n  0x00\n    /* \"#utility.yul\":1634:1639   */\n  dup2\n    /* \"#utility.yul\":1623:1639   */\n  swap1\n  pop\n    /* \"#utility.yul\":1568:1645   */\n  swap2\n  swap1\n  pop\n  jump\t// out\n    /* \"#utility.yul\":1651:1711   */\ntag_84:\n    /* \"#utility.yul\":1679:1682   */\n  0x00\n    /* \"#utility.yul\":1700:1705   */\n  dup2\n    /* \"#utility.yul\":1693:1705   */\n  swap1\n  pop\n    /* \"#utility.yul\":1651:1711   */\n  swap2\n  swap1\n  pop\n  jump\t// out\n    /* \"#utility.yul\":1717:1859   */\ntag_85:\n    /* \"#utility.yul\":1767:1776   */\n  0x00\n    /* \"#utility.yul\":1800:1853   */\n  tag_122\n    /* \"#utility.yul\":1818:1852   */\n  tag_123\n    /* \"#utility.yul\":1827:1851   */\n  tag_124\n    /* \"#utility.yul\":1845:1850   */\n  dup5\n    /* \"#utility.yul\":1827:1851   */\n  tag_83\n  jump\t// in\ntag_124:\n    /* \"#utility.yul\":1818:1852   */\n  tag_84\n  jump\t// in\ntag_123:\n    /* \"#utility.yul\":1800:1853   */\n  tag_83\n  jump\t// in\ntag_122:\n    /* \"#utility.yul\":1787:1853   */\n  swap1\n  pop\n    /* \"#utility.yul\":1717:1859   */\n  swap2\n  swap1\n  pop\n  jump\t// out\n    /* \"#utility.yul\":1865:1940   */\ntag_86:\n    /* \"#utility.yul\":1908:1911   */\n  0x00\n    /* \"#utility.yul\":1929:1934   */\n  dup2\n    /* \"#utility.yul\":1922:1934   */\n  swap1\n  pop\n    /* \"#utility.yul\":1865:1940   */\n  swap2\n  swap1\n  pop\n  jump\t// out\n    /* \"#utility.yul\":1946:2215   */\ntag_87:\n    /* \"#utility.yul\":2056:2095   */\n  tag_127\n    /* \"#utility.yul\":2087:2094   */\n  dup4\n    /* \"#utility.yul\":2056:2095   */\n  tag_85\n  jump\t// in\ntag_127:\n    /* \"#utility.yul\":2117:2208   */\n  tag_128\n    /* \"#utility.yul\":2166:2207   */\n  tag_129\n    /* \"#utility.yul\":2190:2206   */\n  dup3\n    /* \"#utility.yul\":2166:2207   */\n  tag_86\n  jump\t// in\ntag_129:\n    /* \"#utility.yul\":2158:2164   */\n  dup5\n    /* \"#utility.yul\":2151:2155   */\n  dup5\n    /* \"#utility.yul\":2145:2156   */\n  sload\n    /* \"#utility.yul\":2117:2208   */\n  tag_82\n  jump\t// in\ntag_128:\n    /* \"#utility.yul\":2111:2115   */\n  dup3\n    /* \"#utility.yul\":2104:2209   */\n  sstore\n    /* \"#utility.yul\":2022:2215   */\n  pop\n    /* \"#utility.yul\":1946:2215   */\n  pop\n  pop\n  pop\n  jump\t// out\n    /* \"#utility.yul\":2221:2294   */\ntag_88:\n    /* \"#utility.yul\":2266:2269   */\n  0x00\n    /* \"#utility.yul\":2221:2294   */\n  swap1\n  jump\t// out\n    /* \"#utility.yul\":2300:2489   */\ntag_89:\n    /* \"#utility.yul\":2377:2409   */\n  tag_132\n  tag_88\n  jump\t// in\ntag_132:\n    /* \"#utility.yul\":2418:2483   */\n  tag_133\n    /* \"#utility.yul\":2476:2482   */\n  dup2\n    /* \"#utility.yul\":2468:2474   */\n  dup5\n    /* \"#utility.yul\":2462:2466   */\n  dup5\n    /* \"#utility.yul\":2418:2483   */\n  tag_87\n  jump\t// in\ntag_133:\n    /* \"#utility.yul\":2353:2489   */\n  pop\n    /* \"#utility.yul\":2300:2489   */\n  pop\n  pop\n  jump\t// out\n    /* \"#utility.yul\":2495:2681   */\ntag_90:\n    /* \"#utility.yul\":2555:2675   */\ntag_135:\n    /* \"#utility.yul\":2572:2575   */\n  dup2\n    /* \"#utility.yul\":2565:2570   */\n  dup2\n    /* \"#utility.yul\":2562:2576   */\n  lt\n    /* \"#utility.yul\":2555:2675   */\n  iszero\n  tag_137\n  jumpi\n    /* \"#utility.yul\":2626:2665   */\n  tag_138\n    /* \"#utility.yul\":2663:2664   */\n  0x00\n    /* \"#utility.yul\":2656:2661   */\n  dup3\n    /* \"#utility.yul\":2626:2665   */\n  tag_89\n  jump\t// in\ntag_138:\n    /* \"#utility.yul\":2599:2600   */\n  0x01\n    /* \"#utility.yul\":2592:2597   */\n  dup2\n    /* \"#utility.yul\":2588:2601   */\n  add\n    /* \"#utility.yul\":2579:2601   */\n  swap1\n  pop\n    /* \"#utility.yul\":2555:2675   */\n  jump(tag_135)\ntag_137:\n    /* \"#utility.yul\":2495:2681   */\n  pop\n  pop\n  jump\t// out\n    /* \"#utility.yul\":2687:3230   */\ntag_91:\n    /* \"#utility.yul\":2788:2790   */\n  0x1f\n    /* \"#utility.yul\":2783:2786   */\n  dup3\n    /* \"#utility.yul\":2780:2791   */\n  gt\n    /* \"#utility.yul\":2777:3223   */\n  iszero\n  tag_140\n  jumpi\n    /* \"#utility.yul\":2822:2860   */\n  tag_141\n    /* \"#utility.yul\":2854:2859   */\n  dup2\n    /* \"#utility.yul\":2822:2860   */\n  tag_79\n  jump\t// in\ntag_141:\n    /* \"#utility.yul\":2906:2935   */\n  tag_142\n    /* \"#utility.yul\":2924:2934   */\n  dup5\n    /* \"#utility.yul\":2906:2935   */\n  tag_80\n  jump\t// in\ntag_142:\n    /* \"#utility.yul\":2896:2904   */\n  dup2\n    /* \"#utility.yul\":2892:2936   */\n  add\n    /* \"#utility.yul\":3089:3091   */\n  0x20\n    /* \"#utility.yul\":3077:3087   */\n  dup6\n    /* \"#utility.yul\":3074:3092   */\n  lt\n    /* \"#utility.yul\":3071:3120   */\n  iszero\n  tag_143\n  jumpi\n    /* \"#utility.yul\":3110:3118   */\n  dup2\n    /* \"#utility.yul\":3095:3118   */\n  swap1\n  pop\n    /* \"#utility.yul\":3071:3120   */\ntag_143:\n    /* \"#utility.yul\":3133:3213   */\n  tag_144\n    /* \"#utility.yul\":3189:3211   */\n  tag_145\n    /* \"#utility.yul\":3207:3210   */\n  dup6\n    /* \"#utility.yul\":3189:3211   */\n  tag_80\n  jump\t// in\ntag_145:\n    /* \"#utility.yul\":3179:3187   */\n  dup4\n    /* \"#utility.yul\":3175:3212   */\n  add\n    /* \"#utility.yul\":3162:3173   */\n  dup3\n    /* \"#utility.yul\":3133:3213   */\n  tag_90\n  jump\t// in\ntag_144:\n    /* \"#utility.yul\":2792:3223   */\n  pop\n  pop\n    /* \"#utility.yul\":2777:3223   */\ntag_140:\n    /* \"#utility.yul\":2687:3230   */\n  pop\n  pop\n  pop\n  jump\t// out\n    /* \"#utility.yul\":3236:3353   */\ntag_92:\n    /* \"#utility.yul\":3290:3298   */\n  0x00\n    /* \"#utility.yul\":3340:3345   */\n  dup3\n    /* \"#utility.yul\":3334:3338   */\n  dup3\n    /* \"#utility.yul\":3330:3346   */\n  shr\n    /* \"#utility.yul\":3309:3346   */\n  swap1\n  pop\n    /* \"#utility.yul\":3236:3353   */\n  swap3\n  swap2\n  pop\n  pop\n  jump\t// out\n    /* \"#utility.yul\":3359:3528   */\ntag_93:\n    /* \"#utility.yul\":3403:3409   */\n  0x00\n    /* \"#utility.yul\":3436:3487   */\n  tag_148\n    /* \"#utility.yul\":3484:3485   */\n  0x00\n    /* \"#utility.yul\":3480:3486   */\n  not\n    /* \"#utility.yul\":3472:3477   */\n  dup5\n    /* \"#utility.yul\":3469:3470   */\n  0x08\n    /* \"#utility.yul\":3465:3478   */\n  mul\n    /* \"#utility.yul\":3436:3487   */\n  tag_92\n  jump\t// in\ntag_148:\n    /* \"#utility.yul\":3432:3488   */\n  not\n    /* \"#utility.yul\":3517:3521   */\n  dup1\n    /* \"#utility.yul\":3511:3515   */\n  dup4\n    /* \"#utility.yul\":3507:3522   */\n  and\n    /* \"#utility.yul\":3497:3522   */\n  swap2\n  pop\n    /* \"#utility.yul\":3410:3528   */\n  pop\n    /* \"#utility.yul\":3359:3528   */\n  swap3\n  swap2\n  pop\n  pop\n  jump\t// out\n    /* \"#utility.yul\":3533:3828   */\ntag_94:\n    /* \"#utility.yul\":3609:3613   */\n  0x00\n    /* \"#utility.yul\":3755:3784   */\n  tag_150\n    /* \"#utility.yul\":3780:3783   */\n  dup4\n    /* \"#utility.yul\":3774:3778   */\n  dup4\n    /* \"#utility.yul\":3755:3784   */\n  tag_93\n  jump\t// in\ntag_150:\n    /* \"#utility.yul\":3747:3784   */\n  swap2\n  pop\n    /* \"#utility.yul\":3817:3820   */\n  dup3\n    /* \"#utility.yul\":3814:3815   */\n  0x02\n    /* \"#utility.yul\":3810:3821   */\n  mul\n    /* \"#utility.yul\":3804:3808   */\n  dup3\n    /* \"#utility.yul\":3801:3822   */\n  or\n    /* \"#utility.yul\":3793:3822   */\n  swap1\n  pop\n    /* \"#utility.yul\":3533:3828   */\n  swap3\n  swap2\n  pop\n  pop\n  jump\t// out\n    /* \"#utility.yul\":3833:5228   */\ntag_6:\n    /* \"#utility.yul\":3950:3987   */\n  tag_152\n    /* \"#utility.yul\":3983:3986   */\n  dup3\n    /* \"#utility.yul\":3950:3987   */\n  tag_75\n  jump\t// in\ntag_152:\n    /* \"#utility.yul\":4052:4070   */\n  0xffffffffffffffff\n    /* \"#utility.yul\":4044:4050   */\n  dup2\n    /* \"#utility.yul\":4041:4071   */\n  gt\n    /* \"#utility.yul\":4038:4094   */\n  iszero\n  tag_153\n  jumpi\n    /* \"#utility.yul\":4074:4092   */\n  tag_154\n  tag_76\n  jump\t// in\ntag_154:\n    /* \"#utility.yul\":4038:4094   */\ntag_153:\n    /* \"#utility.yul\":4118:4156   */\n  tag_155\n    /* \"#utility.yul\":4150:4154   */\n  dup3\n    /* \"#utility.yul\":4144:4155   */\n  sload\n    /* \"#utility.yul\":4118:4156   */\n  tag_78\n  jump\t// in\ntag_155:\n    /* \"#utility.yul\":4203:4270   */\n  tag_156\n    /* \"#utility.yul\":4263:4269   */\n  dup3\n    /* \"#utility.yul\":4255:4261   */\n  dup3\n    /* \"#utility.yul\":4249:4253   */\n  dup6\n    /* \"#utility.yul\":4203:4270   */\n  tag_91\n  jump\t// in\ntag_156:\n    /* \"#utility.yul\":4297:4298   */\n  0x00\n    /* \"#utility.yul\":4321:4325   */\n  0x20\n    /* \"#utility.yul\":4308:4325   */\n  swap1\n  pop\n    /* \"#utility.yul\":4353:4355   */\n  0x1f\n    /* \"#utility.yul\":4345:4351   */\n  dup4\n    /* \"#utility.yul\":4342:4356   */\n  gt\n    /* \"#utility.yul\":4370:4371   */\n  0x01\n    /* \"#utility.yul\":4365:4983   */\n  dup2\n  eq\n  tag_158\n  jumpi\n    /* \"#utility.yul\":5027:5028   */\n  0x00\n    /* \"#utility.yul\":5044:5050   */\n  dup5\n    /* \"#utility.yul\":5041:5118   */\n  iszero\n  tag_159\n  jumpi\n    /* \"#utility.yul\":5093:5102   */\n  dup3\n    /* \"#utility.yul\":5088:5091   */\n  dup8\n    /* \"#utility.yul\":5084:5103   */\n  add\n    /* \"#utility.yul\":5078:5104   */\n  mload\n    /* \"#utility.yul\":5069:5104   */\n  swap1\n  pop\n    /* \"#utility.yul\":5041:5118   */\ntag_159:\n    /* \"#utility.yul\":5144:5211   */\n  tag_160\n    /* \"#utility.yul\":5204:5210   */\n  dup6\n    /* \"#utility.yul\":5197:5202   */\n  dup3\n    /* \"#utility.yul\":5144:5211   */\n  tag_94\n  jump\t// in\ntag_160:\n    /* \"#utility.yul\":5138:5142   */\n  dup7\n    /* \"#utility.yul\":5131:5212   */\n  sstore\n    /* \"#utility.yul\":5000:5222   */\n  pop\n    /* \"#utility.yul\":4335:5222   */\n  jump(tag_157)\n    /* \"#utility.yul\":4365:4983   */\ntag_158:\n    /* \"#utility.yul\":4417:4421   */\n  0x1f\n    /* \"#utility.yul\":4413:4422   */\n  not\n    /* \"#utility.yul\":4405:4411   */\n  dup5\n    /* \"#utility.yul\":4401:4423   */\n  and\n    /* \"#utility.yul\":4451:4488   */\n  tag_161\n    /* \"#utility.yul\":4483:4487   */\n  dup7\n    /* \"#utility.yul\":4451:4488   */\n  tag_79\n  jump\t// in\ntag_161:\n    /* \"#utility.yul\":4510:4511   */\n  0x00\n    /* \"#utility.yul\":4524:4732   */\ntag_162:\n    /* \"#utility.yul\":4538:4545   */\n  dup3\n    /* \"#utility.yul\":4535:4536   */\n  dup2\n    /* \"#utility.yul\":4532:4546   */\n  lt\n    /* \"#utility.yul\":4524:4732   */\n  iszero\n  tag_164\n  jumpi\n    /* \"#utility.yul\":4617:4626   */\n  dup5\n    /* \"#utility.yul\":4612:4615   */\n  dup10\n    /* \"#utility.yul\":4608:4627   */\n  add\n    /* \"#utility.yul\":4602:4628   */\n  mload\n    /* \"#utility.yul\":4594:4600   */\n  dup3\n    /* \"#utility.yul\":4587:4629   */\n  sstore\n    /* \"#utility.yul\":4668:4669   */\n  0x01\n    /* \"#utility.yul\":4660:4666   */\n  dup3\n    /* \"#utility.yul\":4656:4670   */\n  add\n    /* \"#utility.yul\":4646:4670   */\n  swap2\n  pop\n    /* \"#utility.yul\":4715:4717   */\n  0x20\n    /* \"#utility.yul\":4704:4713   */\n  dup6\n    /* \"#utility.yul\":4700:4718   */\n  add\n    /* \"#utility.yul\":4687:4718   */\n  swap5\n  pop\n    /* \"#utility.yul\":4561:4565   */\n  0x20\n    /* \"#utility.yul\":4558:4559   */\n  dup2\n    /* \"#utility.yul\":4554:4566   */\n  add\n    /* \"#utility.yul\":4549:4566   */\n  swap1\n  pop\n    /* \"#utility.yul\":4524:4732   */\n  jump(tag_162)\ntag_164:\n    /* \"#utility.yul\":4760:4766   */\n  dup7\n    /* \"#utility.yul\":4751:4758   */\n  dup4\n    /* \"#utility.yul\":4748:4767   */\n  lt\n    /* \"#utility.yul\":4745:4924   */\n  iszero\n  tag_165\n  jumpi\n    /* \"#utility.yul\":4818:4827   */\n  dup5\n    /* \"#utility.yul\":4813:4816   */\n  dup10\n    /* \"#utility.yul\":4809:4828   */\n  add\n    /* \"#utility.yul\":4803:4829   */\n  mload\n    /* \"#utility.yul\":4861:4909   */\n  tag_166\n    /* \"#utility.yul\":4903:4907   */\n  0x1f\n    /* \"#utility.yul\":4895:4901   */\n  dup10\n    /* \"#utility.yul\":4891:4908   */\n  and\n    /* \"#utility.yul\":4880:4889   */\n  dup3\n    /* \"#utility.yul\":4861:4909   */\n  tag_93\n  jump\t// in\ntag_166:\n    /* \"#utility.yul\":4853:4859   */\n  dup4\n    /* \"#utility.yul\":4846:4910   */\n  sstore\n    /* \"#utility.yul\":4768:4924   */\n  pop\n    /* \"#utility.yul\":4745:4924   */\ntag_165:\n    /* \"#utility.yul\":4970:4971   */\n  0x01\n    /* \"#utility.yul\":4966:4967   */\n  0x02\n    /* \"#utility.yul\":4958:4964   */\n  dup9\n    /* \"#utility.yul\":4954:4968   */\n  mul\n    /* \"#utility.yul\":4950:4972   */\n  add\n    /* \"#utility.yul\":4944:4948   */\n  dup9\n    /* \"#utility.yul\":4937:4973   */\n  sstore\n    /* \"#utility.yul\":4372:4983   */\n  pop\n  pop\n  pop\n    /* \"#utility.yul\":4335:5222   */\ntag_157:\n  pop\n    /* \"#utility.yul\":3925:5228   */\n  pop\n  pop\n  pop\n    /* \"#utility.yul\":3833:5228   */\n  pop\n  pop\n  jump\t// out\n    /* \"#utility.yul\":5234:5414   */\ntag_95:\n    /* \"#utility.yul\":5282:5359   */\n  0x4e487b7100000000000000000000000000000000000000000000000000000000\n    /* \"#utility.yul\":5279:5280   */\n  0x00\n    /* \"#utility.yul\":5272:5360   */\n  mstore\n    /* \"#utility.yul\":5379:5383   */\n  0x11\n    /* \"#utility.yul\":5376:5377   */\n  0x04\n    /* \"#utility.yul\":5369:5384   */\n  mstore\n    /* \"#utility.yul\":5403:5407   */\n  0x24\n    /* \"#utility.yul\":5400:5401   */\n  0x00\n    /* \"#utility.yul\":5393:5408   */\n  revert\n    /* \"#utility.yul\":5420:5522   */\ntag_96:\n    /* \"#utility.yul\":5462:5470   */\n  0x00\n    /* \"#utility.yul\":5509:5514   */\n  dup2\n    /* \"#utility.yul\":5506:5507   */\n  0x01\n    /* \"#utility.yul\":5502:5515   */\n  shr\n    /* \"#utility.yul\":5481:5515   */\n  swap1\n  pop\n    /* \"#utility.yul\":5420:5522   */\n  swap2\n  swap1\n  pop\n  jump\t// out\n    /* \"#utility.yul\":5528:6376   */\ntag_97:\n    /* \"#utility.yul\":5589:5594   */\n  0x00\n    /* \"#utility.yul\":5596:5600   */\n  dup1\n    /* \"#utility.yul\":5620:5626   */\n  dup3\n    /* \"#utility.yul\":5611:5626   */\n  swap2\n  pop\n    /* \"#utility.yul\":5644:5649   */\n  dup4\n    /* \"#utility.yul\":5635:5649   */\n  swap1\n  pop\n    /* \"#utility.yul\":5658:6370   */\ntag_170:\n    /* \"#utility.yul\":5679:5680   */\n  0x01\n    /* \"#utility.yul\":5669:5677   */\n  dup6\n    /* \"#utility.yul\":5666:5681   */\n  gt\n    /* \"#utility.yul\":5658:6370   */\n  iszero\n  tag_172\n  jumpi\n    /* \"#utility.yul\":5774:5778   */\n  dup1\n    /* \"#utility.yul\":5769:5772   */\n  dup7\n    /* \"#utility.yul\":5765:5779   */\n  div\n    /* \"#utility.yul\":5759:5763   */\n  dup2\n    /* \"#utility.yul\":5756:5780   */\n  gt\n    /* \"#utility.yul\":5753:5803   */\n  iszero\n  tag_173\n  jumpi\n    /* \"#utility.yul\":5783:5801   */\n  tag_174\n  tag_95\n  jump\t// in\ntag_174:\n    /* \"#utility.yul\":5753:5803   */\ntag_173:\n    /* \"#utility.yul\":5833:5834   */\n  0x01\n    /* \"#utility.yul\":5823:5831   */\n  dup6\n    /* \"#utility.yul\":5819:5835   */\n  and\n    /* \"#utility.yul\":5816:6267   */\n  iszero\n  tag_175\n  jumpi\n    /* \"#utility.yul\":6248:6252   */\n  dup1\n    /* \"#utility.yul\":6241:6246   */\n  dup3\n    /* \"#utility.yul\":6237:6253   */\n  mul\n    /* \"#utility.yul\":6228:6253   */\n  swap2\n  pop\n    /* \"#utility.yul\":5816:6267   */\ntag_175:\n    /* \"#utility.yul\":6298:6302   */\n  dup1\n    /* \"#utility.yul\":6292:6296   */\n  dup2\n    /* \"#utility.yul\":6288:6303   */\n  mul\n    /* \"#utility.yul\":6280:6303   */\n  swap1\n  pop\n    /* \"#utility.yul\":6328:6360   */\n  tag_176\n    /* \"#utility.yul\":6351:6359   */\n  dup6\n    /* \"#utility.yul\":6328:6360   */\n  tag_96\n  jump\t// in\ntag_176:\n    /* \"#utility.yul\":6316:6360   */\n  swap5\n  pop\n    /* \"#utility.yul\":5658:6370   */\n  jump(tag_170)\ntag_172:\n    /* \"#utility.yul\":5528:6376   */\n  swap5\n  pop\n  swap5\n  swap3\n  pop\n  pop\n  pop\n  jump\t// out\n    /* \"#utility.yul\":6382:7455   */\ntag_98:\n    /* \"#utility.yul\":6436:6441   */\n  0x00\n    /* \"#utility.yul\":6627:6635   */\n  dup3\n    /* \"#utility.yul\":6617:6657   */\n  tag_178\n  jumpi\n    /* \"#utility.yul\":6648:6649   */\n  0x01\n    /* \"#utility.yul\":6639:6649   */\n  swap1\n  pop\n    /* \"#utility.yul\":6650:6655   */\n  jump(tag_177)\n    /* \"#utility.yul\":6617:6657   */\ntag_178:\n    /* \"#utility.yul\":6676:6680   */\n  dup2\n    /* \"#utility.yul\":6666:6702   */\n  tag_179\n  jumpi\n    /* \"#utility.yul\":6693:6694   */\n  0x00\n    /* \"#utility.yul\":6684:6694   */\n  swap1\n  pop\n    /* \"#utility.yul\":6695:6700   */\n  jump(tag_177)\n    /* \"#utility.yul\":6666:6702   */\ntag_179:\n    /* \"#utility.yul\":6762:6766   */\n  dup2\n    /* \"#utility.yul\":6810:6811   */\n  0x01\n    /* \"#utility.yul\":6805:6832   */\n  dup2\n  eq\n  tag_181\n  jumpi\n    /* \"#utility.yul\":6846:6847   */\n  0x02\n    /* \"#utility.yul\":6841:7032   */\n  dup2\n  eq\n  tag_182\n  jumpi\n    /* \"#utility.yul\":6755:7032   */\n  jump(tag_180)\n    /* \"#utility.yul\":6805:6832   */\ntag_181:\n    /* \"#utility.yul\":6823:6824   */\n  0x01\n    /* \"#utility.yul\":6814:6824   */\n  swap2\n  pop\n    /* \"#utility.yul\":6825:6830   */\n  pop\n  jump(tag_177)\n    /* \"#utility.yul\":6841:7032   */\ntag_182:\n    /* \"#utility.yul\":6886:6889   */\n  0xff\n    /* \"#utility.yul\":6876:6884   */\n  dup5\n    /* \"#utility.yul\":6873:6890   */\n  gt\n    /* \"#utility.yul\":6870:6913   */\n  iszero\n  tag_183\n  jumpi\n    /* \"#utility.yul\":6893:6911   */\n  tag_184\n  tag_95\n  jump\t// in\ntag_184:\n    /* \"#utility.yul\":6870:6913   */\ntag_183:\n    /* \"#utility.yul\":6942:6950   */\n  dup4\n    /* \"#utility.yul\":6939:6940   */\n  0x02\n    /* \"#utility.yul\":6935:6951   */\n  exp\n    /* \"#utility.yul\":6926:6951   */\n  swap2\n  pop\n    /* \"#utility.yul\":6977:6980   */\n  dup5\n    /* \"#utility.yul\":6970:6975   */\n  dup3\n    /* \"#utility.yul\":6967:6981   */\n  gt\n    /* \"#utility.yul\":6964:7004   */\n  iszero\n  tag_185\n  jumpi\n    /* \"#utility.yul\":6984:7002   */\n  tag_186\n  tag_95\n  jump\t// in\ntag_186:\n    /* \"#utility.yul\":6964:7004   */\ntag_185:\n    /* \"#utility.yul\":7017:7022   */\n  pop\n  jump(tag_177)\n    /* \"#utility.yul\":6755:7032   */\ntag_180:\n  pop\n    /* \"#utility.yul\":7141:7143   */\n  0x20\n    /* \"#utility.yul\":7131:7139   */\n  dup4\n    /* \"#utility.yul\":7128:7144   */\n  lt\n    /* \"#utility.yul\":7122:7125   */\n  0x0133\n    /* \"#utility.yul\":7116:7120   */\n  dup4\n    /* \"#utility.yul\":7113:7126   */\n  lt\n    /* \"#utility.yul\":7109:7145   */\n  and\n    /* \"#utility.yul\":7091:7093   */\n  0x4e\n    /* \"#utility.yul\":7081:7089   */\n  dup5\n    /* \"#utility.yul\":7078:7094   */\n  lt\n    /* \"#utility.yul\":7073:7075   */\n  0x0b\n    /* \"#utility.yul\":7067:7071   */\n  dup5\n    /* \"#utility.yul\":7064:7076   */\n  lt\n    /* \"#utility.yul\":7060:7095   */\n  and\n    /* \"#utility.yul\":7044:7155   */\n  or\n    /* \"#utility.yul\":7041:7287   */\n  iszero\n  tag_187\n  jumpi\n    /* \"#utility.yul\":7197:7205   */\n  dup3\n    /* \"#utility.yul\":7191:7195   */\n  dup3\n    /* \"#utility.yul\":7187:7206   */\n  exp\n    /* \"#utility.yul\":7178:7206   */\n  swap1\n  pop\n    /* \"#utility.yul\":7232:7235   */\n  dup4\n    /* \"#utility.yul\":7225:7230   */\n  dup2\n    /* \"#utility.yul\":7222:7236   */\n  gt\n    /* \"#utility.yul\":7219:7259   */\n  iszero\n  tag_188\n  jumpi\n    /* \"#utility.yul\":7239:7257   */\n  tag_189\n  tag_95\n  jump\t// in\ntag_189:\n    /* \"#utility.yul\":7219:7259   */\ntag_188:\n    /* \"#utility.yul\":7272:7277   */\n  jump(tag_177)\n    /* \"#utility.yul\":7041:7287   */\ntag_187:\n    /* \"#utility.yul\":7312:7354   */\n  tag_190\n    /* \"#utility.yul\":7350:7353   */\n  dup5\n    /* \"#utility.yul\":7340:7348   */\n  dup5\n    /* \"#utility.yul\":7334:7338   */\n  dup5\n    /* \"#utility.yul\":7331:7332   */\n  0x01\n    /* \"#utility.yul\":7312:7354   */\n  tag_97\n  jump\t// in\ntag_190:\n    /* \"#utility.yul\":7297:7354   */\n  swap3\n  pop\n  swap1\n  pop\n    /* \"#utility.yul\":7386:7390   */\n  dup2\n    /* \"#utility.yul\":7381:7384   */\n  dup5\n    /* \"#utility.yul\":7377:7391   */\n  div\n    /* \"#utility.yul\":7370:7375   */\n  dup2\n    /* \"#utility.yul\":7367:7392   */\n  gt\n    /* \"#utility.yul\":7364:7415   */\n  iszero\n  tag_191\n  jumpi\n    /* \"#utility.yul\":7395:7413   */\n  tag_192\n  tag_95\n  jump\t// in\ntag_192:\n    /* \"#utility.yul\":7364:7415   */\ntag_191:\n    /* \"#utility.yul\":7444:7448   */\n  dup2\n    /* \"#utility.yul\":7437:7442   */\n  dup2\n    /* \"#utility.yul\":7433:7449   */\n  mul\n    /* \"#utility.yul\":7424:7449   */\n  swap1\n  pop\n    /* \"#utility.yul\":6382:7455   */\ntag_177:\n  swap4\n  swap3\n  pop\n  pop\n  pop\n  jump\t// out\n    /* \"#utility.yul\":7461:7547   */\ntag_99:\n    /* \"#utility.yul\":7496:7503   */\n  0x00\n    /* \"#utility.yul\":7536:7540   */\n  0xff\n    /* \"#utility.yul\":7529:7534   */\n  dup3\n    /* \"#utility.yul\":7525:7541   */\n  and\n    /* \"#utility.yul\":7514:7541   */\n  swap1\n  pop\n    /* \"#utility.yul\":7461:7547   */\n  swap2\n  swap1\n  pop\n  jump\t// out\n    /* \"#utility.yul\":7553:7834   */\ntag_13:\n    /* \"#utility.yul\":7611:7616   */\n  0x00\n    /* \"#utility.yul\":7635:7658   */\n  tag_195\n    /* \"#utility.yul\":7653:7657   */\n  dup3\n    /* \"#utility.yul\":7635:7658   */\n  tag_83\n  jump\t// in\ntag_195:\n    /* \"#utility.yul\":7627:7658   */\n  swap2\n  pop\n    /* \"#utility.yul\":7679:7704   */\n  tag_196\n    /* \"#utility.yul\":7695:7703   */\n  dup4\n    /* \"#utility.yul\":7679:7704   */\n  tag_99\n  jump\t// in\ntag_196:\n    /* \"#utility.yul\":7667:7704   */\n  swap3\n  pop\n    /* \"#utility.yul\":7723:7827   */\n  tag_197\n    /* \"#utility.yul\":7760:7826   */\n  0xffffffffffffffffffffffffffffffffffffffffffffffffffffffffffffffff\n    /* \"#utility.yul\":7750:7758   */\n  dup5\n    /* \"#utility.yul\":7744:7748   */\n  dup5\n    /* \"#utility.yul\":7723:7827   */\n  tag_98\n  jump\t// in\ntag_197:\n    /* \"#utility.yul\":7714:7827   */\n  swap1\n  pop\n    /* \"#utility.yul\":7553:7834   */\n  swap3\n  swap2\n  pop\n  pop\n  jump\t// out\n    /* \"#utility.yul\":7840:8250   */\ntag_15:\n    /* \"#utility.yul\":7880:7887   */\n  0x00\n    /* \"#utility.yul\":7903:7923   */\n  tag_199\n    /* \"#utility.yul\":7921:7922   */\n  dup3\n    /* \"#utility.yul\":7903:7923   */\n  tag_83\n  jump\t// in\ntag_199:\n    /* \"#utility.yul\":7898:7923   */\n  swap2\n  pop\n    /* \"#utility.yul\":7937:7957   */\n  tag_200\n    /* \"#utility.yul\":7955:7956   */\n  dup4\n    /* \"#utility.yul\":7937:7957   */\n  tag_83\n  jump\t// in\ntag_200:\n    /* \"#utility.yul\":7932:7957   */\n  swap3\n  pop\n    /* \"#utility.yul\":7992:7993   */\n  dup3\n    /* \"#utility.yul\":7989:7990   */\n  dup3\n    /* \"#utility.yul\":7985:7994   */\n  mul\n    /* \"#utility.yul\":8014:8044   */\n  tag_201\n    /* \"#utility.yul\":8032:8043   */\n  dup2\n    /* \"#utility.yul\":8014:8044   */\n  tag_83\n  jump\t// in\ntag_201:\n    /* \"#utility.yul\":8003:8044   */\n  swap2\n  pop\n    /* \"#utility.yul\":8193:8194   */\n  dup3\n    /* \"#utility.yul\":8184:8191   */\n  dup3\n    /* \"#utility.yul\":8180:8195   */\n  div\n    /* \"#utility.yul\":8177:8178   */\n  dup5\n    /* \"#utility.yul\":8174:8196   */\n  eq\n    /* \"#utility.yul\":8154:8155   */\n  dup4\n    /* \"#utility.yul\":8147:8156   */\n  iszero\n    /* \"#utility.yul\":8127:8210   */\n  or\n    /* \"#utility.yul\":8104:8243   */\n  tag_202\n  jumpi\n    /* \"#utility.yul\":8223:8241   */\n  tag_203\n  tag_95\n  jump\t// in\ntag_203:\n    /* \"#utility.yul\":8104:8243   */\ntag_202:\n    /* \"#utility.yul\":7888:8250   */\n  pop\n    /* \"#utility.yul\":7840:8250   */\n  swap3\n  swap2\n  pop\n  pop\n  jump\t// out\n    /* \"#utility.yul\":8256:8425   */\ntag_100:\n    /* \"#utility.yul\":8340:8351   */\n  0x00\n    /* \"#utility.yul\":8374:8380   */\n  dup3\n    /* \"#utility.yul\":8369:8372   */\n  dup3\n    /* \"#utility.yul\":8362:8381   */\n  mstore\n    /* \"#utility.yul\":8414:8418   */\n  0x20\n    /* \"#utility.yul\":8409:8412   */\n  dup3\n    /* \"#utility.yul\":8405:8419   */\n  add\n    /* \"#utility.yul\":8390:8419   */\n  swap1\n  pop\n    /* \"#utility.yul\":8256:8425   */\n  swap3\n  swap2\n  pop\n  pop\n  jump\t// out\n    /* \"#utility.yul\":8431:8612   */\ntag_101:\n    /* \"#utility.yul\":8571:8604   */\n  0x45524332303a206d696e7420746f20746865207a65726f206164647265737300\n    /* \"#utility.yul\":8567:8568   */\n  0x00\n    /* \"#utility.yul\":8559:8565   */\n  dup3\n    /* \"#utility.yul\":8555:8569   */\n  add\n    /* \"#utility.yul\":8548:8605   */\n  mstore\n    /* \"#utility.yul\":8431:8612   */\n  pop\n  jump\t// out\n    /* \"#utility.yul\":8618:8984   */\ntag_102:\n    /* \"#utility.yul\":8760:8763   */\n  0x00\n    /* \"#utility.yul\":8781:8848   */\n  tag_207\n    /* \"#utility.yul\":8845:8847   */\n  0x1f\n    /* \"#utility.yul\":8840:8843   */\n  dup4\n    /* \"#utility.yul\":8781:8848   */\n  tag_100\n  jump\t// in\ntag_207:\n    /* \"#utility.yul\":8774:8848   */\n  swap2\n  pop\n    /* \"#utility.yul\":8857:8950   */\n  tag_208\n    /* \"#utility.yul\":8946:8949   */\n  dup3\n    /* \"#utility.yul\":8857:8950   */\n  tag_101\n  jump\t// in\ntag_208:\n    /* \"#utility.yul\":8975:8977   */\n  0x20\n    /* \"#utility.yul\":8970:8973   */\n  dup3\n    /* \"#utility.yul\":8966:8978   */\n  add\n    /* \"#utility.yul\":8959:8978   */\n  swap1\n  pop\n    /* \"#utility.yul\":8618:8984   */\n  swap2\n  swap1\n  pop\n  jump\t// out\n    /* \"#utility.yul\":8990:9409   */\ntag_22:\n    /* \"#utility.yul\":9156:9160   */\n  0x00\n    /* \"#utility.yul\":9194:9196   */\n  0x20\n    /* \"#utility.yul\":9183:9192   */\n  dup3\n    /* \"#utility.yul\":9179:9197   */\n  add\n    /* \"#utility.yul\":9171:9197   */\n  swap1\n  pop\n    /* \"#utility.yul\":9243:9252   */\n  dup2\n    /* \"#utility.yul\":9237:9241   */\n  dup2\n    /* \"#utility.yul\":9233:9253   */\n  sub\n    /* \"#utility.yul\":9229:9230   */\n  0x00\n    /* \"#utility.yul\":9218:9227   */\n  dup4\n    /* \"#utility.yul\":9214:9231   */\n  add\n    /* \"#utility.yul\":9207:9254   */\n  mstore\n    /* \"#utility.yul\":9271:9402   */\n  tag_210\n    /* \"#utility.yul\":9397:9401   */\n  dup2\n    /* \"#utility.yul\":9271:9402   */\n  tag_102\n  jump\t// in\ntag_210:\n    /* \"#utility.yul\":9263:9402   */\n  swap1\n  pop\n    /* \"#utility.yul\":8990:9409   */\n  swap2\n  swap1\n  pop\n  jump\t// out\n    /* \"#utility.yul\":9415:9606   */\ntag_26:\n    /* \"#utility.yul\":9455:9458   */\n  0x00\n    /* \"#utility.yul\":9474:9494   */\n  tag_212\n    /* \"#utility.yul\":9492:9493   */\n  dup3\n    /* \"#utility.yul\":9474:9494   */\n  tag_83\n  jump\t// in\ntag_212:\n    /* \"#utility.yul\":9469:9494   */\n  swap2\n  pop\n    /* \"#utility.yul\":9508:9528   */\n  tag_213\n    /* \"#utility.yul\":9526:9527   */\n  dup4\n    /* \"#utility.yul\":9508:9528   */\n  tag_83\n  jump\t// in\ntag_213:\n    /* \"#utility.yul\":9503:9528   */\n  swap3\n  pop\n    /* \"#utility.yul\":9551:9552   */\n  dup3\n    /* \"#utility.yul\":9548:9549   */\n  dup3\n    /* \"#utility.yul\":9544:9553   */\n  add\n    /* \"#utility.yul\":9537:9553   */\n  swap1\n  pop\n    /* \"#utility.yul\":9572:9575   */\n  dup1\n    /* \"#utility.yul\":9569:9570   */\n  dup3\n    /* \"#utility.yul\":9566:9576   */\n  gt\n    /* \"#utility.yul\":9563:9599   */\n  iszero\n  tag_214\n  jumpi\n    /* \"#utility.yul\":9579:9597   */\n  tag_215\n  tag_95\n  jump\t// in\ntag_215:\n    /* \"#utility.yul\":9563:9599   */\ntag_214:\n    /* \"#utility.yul\":9415:9606   */\n  swap3\n  swap2\n  pop\n  pop\n  jump\t// out\n    /* \"#utility.yul\":9612:9730   */\ntag_103:\n    /* \"#utility.yul\":9699:9723   */\n  tag_217\n    /* \"#utility.yul\":9717:9722   */\n  dup2\n    /* \"#utility.yul\":9699:9723   */\n  tag_83\n  jump\t// in\ntag_217:\n    /* \"#utility.yul\":9694:9697   */\n  dup3\n    /* \"#utility.yul\":9687:9724   */\n  mstore\n    /* \"#utility.yul\":9612:9730   */\n  pop\n  pop\n  jump\t// out\n    /* \"#utility.yul\":9736:9958   */\ntag_29:\n    /* \"#utility.yul\":9829:9833   */\n  0x00\n    /* \"#utility.yul\":9867:9869   */\n  0x20\n    /* \"#utility.yul\":9856:9865   */\n  dup3\n    /* \"#utility.yul\":9852:9870   */\n  add\n    /* \"#utility.yul\":9844:9870   */\n  swap1\n  pop\n    /* \"#utility.yul\":9880:9951   */\n  tag_219\n    /* \"#utility.yul\":9948:9949   */\n  0x00\n    /* \"#utility.yul\":9937:9946   */\n  dup4\n    /* \"#utility.yul\":9933:9950   */\n  add\n    /* \"#utility.yul\":9924:9930   */\n  dup5\n    /* \"#utility.yul\":9880:9951   */\n  tag_103\n  jump\t// in\ntag_219:\n    /* \"#utility.yul\":9736:9958   */\n  swap3\n  swap2\n  pop\n  pop\n  jump\t// out\n    /* \"#utility.yul\":9964:10158   */\ntag_55:\n    /* \"#utility.yul\":10004:10008   */\n  0x00\n    /* \"#utility.yul\":10024:10044   */\n  tag_221\n    /* \"#utility.yul\":10042:10043   */\n  dup3\n    /* \"#utility.yul\":10024:10044   */\n  tag_83\n  jump\t// in\ntag_221:\n    /* \"#utility.yul\":10019:10044   */\n  swap2\n  pop\n    /* \"#utility.yul\":10058:10078   */\n  tag_222\n    /* \"#utility.yul\":10076:10077   */\n  dup4\n    /* \"#utility.yul\":10058:10078   */\n  tag_83\n  jump\t// in\ntag_222:\n    /* \"#utility.yul\":10053:10078   */\n  swap3\n  pop\n    /* \"#utility.yul\":10102:10103   */\n  dup3\n    /* \"#utility.yul\":10099:10100   */\n  dup3\n    /* \"#utility.yul\":10095:10104   */\n  sub\n    /* \"#utility.yul\":10087:10104   */\n  swap1\n  pop\n    /* \"#utility.yul\":10126:10127   */\n  dup2\n    /* \"#utility.yul\":10120:10124   */\n  dup2\n    /* \"#utility.yul\":10117:10128   */\n  gt\n    /* \"#utility.yul\":10114:10151   */\n  iszero\n  tag_223\n  jumpi\n    /* \"#utility.yul\":10131:10149   */\n  tag_224\n  tag_95\n  jump\t// in\ntag_224:\n    /* \"#utility.yul\":10114:10151   */\ntag_223:\n    /* \"#utility.yul\":9964:10158   */\n  swap3\n  swap2\n  pop\n  pop\n  jump\t// out\n    /* \"#utility.yul\":10164:10344   */\ntag_104:\n    /* \"#utility.yul\":10212:10289   */\n  0x4e487b7100000000000000000000000000000000000000000000000000000000\n    /* \"#utility.yul\":10209:10210   */\n  0x00\n    /* \"#utility.yul\":10202:10290   */\n  mstore\n    /* \"#utility.yul\":10309:10313   */\n  0x12\n    /* \"#utility.yul\":10306:10307   */\n  0x04\n    /* \"#utility.yul\":10299:10314   */\n  mstore\n    /* \"#utility.yul\":10333:10337   */\n  0x24\n    /* \"#utility.yul\":10330:10331   */\n  0x00\n    /* \"#utility.yul\":10323:10338   */\n  revert\n    /* \"#utility.yul\":10350:10535   */\ntag_68:\n    /* \"#utility.yul\":10390:10391   */\n  0x00\n    /* \"#utility.yul\":10407:10427   */\n  tag_227\n    /* \"#utility.yul\":10425:10426   */\n  dup3\n    /* \"#utility.yul\":10407:10427   */\n  tag_83\n  jump\t// in\ntag_227:\n    /* \"#utility.yul\":10402:10427   */\n  swap2\n  pop\n    /* \"#utility.yul\":10441:10461   */\n  tag_228\n    /* \"#utility.yul\":10459:10460   */\n  dup4\n    /* \"#utility.yul\":10441:10461   */\n  tag_83\n  jump\t// in\ntag_228:\n    /* \"#utility.yul\":10436:10461   */\n  swap3\n  pop\n    /* \"#utility.yul\":10480:10481   */\n  dup3\n    /* \"#utility.yul\":10470:10505   */\n  tag_229\n  jumpi\n    /* \"#utility.yul\":10485:10503   */\n  tag_230\n  tag_104\n  jump\t// in\ntag_230:\n    /* \"#utility.yul\":10470:10505   */\ntag_229:\n    /* \"#utility.yul\":10527:10528   */\n  dup3\n    /* \"#utility.yul\":10524:10525   */\n  dup3\n    /* \"#utility.yul\":10520:10529   */\n  div\n    /* \"#utility.yul\":10515:10529   */\n  swap1\n  pop\n    /* \"#utility.yul\":10350:10535   */\n  swap3\n  swap2\n  pop\n  pop\n  jump\t// out\n    /* \"minerpunk/ERC20/MinePower.sol\":27249:27409  contract minePower is ERC20,ERC20Burnable{... */\ntag_17:\n  dataSize(sub_0)\n  dup1\n  dataOffset(sub_0)\n  0x00\n  codecopy\n  0x00\n  return\nstop\n\nsub_0: assembly {\n        /* \"minerpunk/ERC20/MinePower.sol\":27249:27409  contract minePower is ERC20,ERC20Burnable{... */\n      mstore(0x40, 0x80)\n      callvalue\n      dup1\n      iszero\n      tag_1\n      jumpi\n      0x00\n      dup1\n      revert\n    tag_1:\n      pop\n      jumpi(tag_2, lt(calldatasize, 0x04))\n      shr(0xe0, calldataload(0x00))\n      dup1\n      0x70a08231\n      gt\n      tag_20\n      jumpi\n      dup1\n      0xa9059cbb\n      gt\n      tag_21\n      jumpi\n      dup1\n      0xa9059cbb\n      eq\n      tag_15\n      jumpi\n      dup1\n      0xb8ba6007\n      eq\n      tag_16\n      jumpi\n      dup1\n      0xd993226b\n      eq\n      tag_17\n      jumpi\n      dup1\n      0xdd62ed3e\n      eq\n      tag_18\n      jumpi\n      dup1\n      0xeff0730d\n      eq\n      tag_19\n      jumpi\n      jump(tag_2)\n    tag_21:\n      dup1\n      0x70a08231\n      eq\n      tag_11\n      jumpi\n      dup1\n      0x79cc6790\n      eq\n      tag_12\n      jumpi\n      dup1\n      0x95d89b41\n      eq\n      tag_13\n      jumpi\n      dup1\n      0xa457c2d7\n      eq\n      tag_14\n      jumpi\n      jump(tag_2)\n    tag_20:\n      dup1\n      0x313ce567\n      gt\n      tag_22\n      jumpi\n      dup1\n      0x313ce567\n      eq\n      tag_7\n      jumpi\n      dup1\n      0x39509351\n      eq\n      tag_8\n      jumpi\n      dup1\n      0x42966c68\n      eq\n      tag_9\n      jumpi\n      dup1\n      0x4be3403c\n      eq\n      tag_10\n      jumpi\n      jump(tag_2)\n    tag_22:\n      dup1\n      0x06fdde03\n      eq\n      tag_3\n      jumpi\n      dup1\n      0x095ea7b3\n      eq\n      tag_4\n      jumpi\n      dup1\n      0x18160ddd\n      eq\n      tag_5\n      jumpi\n      dup1\n      0x23b872dd\n      eq\n      tag_6\n      jumpi\n    tag_2:\n      0x00\n      dup1\n      revert\n        /* \"minerpunk/ERC20/MinePower.sol\":15134:15232  function name() public view virtual override returns (string memory) {... */\n    tag_3:\n      tag_23\n      tag_24\n      jump\t// in\n    tag_23:\n      mload(0x40)\n      tag_25\n      swap2\n      swap1\n      tag_26\n      jump\t// in\n    tag_25:\n      mload(0x40)\n      dup1\n      swap2\n      sub\n      swap1\n      return\n        /* \"minerpunk/ERC20/MinePower.sol\":17411:17608  function approve(address spender, uint256 amount) public virtual override returns (bool) {... */\n    tag_4:\n      tag_27\n      0x04\n      dup1\n      calldatasize\n      sub\n      dup2\n      add\n      swap1\n      tag_28\n      swap2\n      swap1\n      tag_29\n      jump\t// in\n    tag_28:\n      tag_30\n      jump\t// in\n    tag_27:\n      mload(0x40)\n      tag_31\n      swap2\n      swap1\n      tag_32\n      jump\t// in\n    tag_31:\n      mload(0x40)\n      dup1\n      swap2\n      sub\n      swap1\n      return\n        /* \"minerpunk/ERC20/MinePower.sol\":16222:16328  function totalSupply() public view virtual override returns (uint256) {... */\n    tag_5:\n      tag_33\n      tag_34\n      jump\t// in\n    tag_33:\n      mload(0x40)\n      tag_35\n      swap2\n      swap1\n      tag_36\n      jump\t// in\n    tag_35:\n      mload(0x40)\n      dup1\n      swap2\n      sub\n      swap1\n      return\n        /* \"minerpunk/ERC20/MinePower.sol\":18170:18456  function transferFrom(... */\n    tag_6:\n      tag_37\n      0x04\n      dup1\n      calldatasize\n      sub\n      dup2\n      add\n      swap1\n      tag_38\n      swap2\n      swap1\n      tag_39\n      jump\t// in\n    tag_38:\n      tag_40\n      jump\t// in\n    tag_37:\n      mload(0x40)\n      tag_41\n      swap2\n      swap1\n      tag_32\n      jump\t// in\n    tag_41:\n      mload(0x40)\n      dup1\n      swap2\n      sub\n      swap1\n      return\n        /* \"minerpunk/ERC20/MinePower.sol\":16071:16162  function decimals() public view virtual override returns (uint8) {... */\n    tag_7:\n      tag_42\n      tag_43\n      jump\t// in\n    tag_42:\n      mload(0x40)\n      tag_44\n      swap2\n      swap1\n      tag_45\n      jump\t// in\n    tag_44:\n      mload(0x40)\n      dup1\n      swap2\n      sub\n      swap1\n      return\n        /* \"minerpunk/ERC20/MinePower.sol\":18851:19085  function increaseAllowance(address spender, uint256 addedValue) public virtual returns (bool) {... */\n    tag_8:\n      tag_46\n      0x04\n      dup1\n      calldatasize\n      sub\n      dup2\n      add\n      swap1\n      tag_47\n      swap2\n      swap1\n      tag_29\n      jump\t// in\n    tag_47:\n      tag_48\n      jump\t// in\n    tag_46:\n      mload(0x40)\n      tag_49\n      swap2\n      swap1\n      tag_32\n      jump\t// in\n    tag_49:\n      mload(0x40)\n      dup1\n      swap2\n      sub\n      swap1\n      return\n        /* \"minerpunk/ERC20/MinePower.sol\":26604:26714  function burn(uint256 amount) public virtual {             ... */\n    tag_9:\n      tag_50\n      0x04\n      dup1\n      calldatasize\n      sub\n      dup2\n      add\n      swap1\n      tag_51\n      swap2\n      swap1\n      tag_52\n      jump\t// in\n    tag_51:\n      tag_53\n      jump\t// in\n    tag_50:\n      stop\n        /* \"minerpunk/ERC20/MinePower.sol\":14400:14795  function blockStatus (uint256 _BlockNumber)public view  returns (uint256){... */\n    tag_10:\n      tag_54\n      0x04\n      dup1\n      calldatasize\n      sub\n      dup2\n      add\n      swap1\n      tag_55\n      swap2\n      swap1\n      tag_52\n      jump\t// in\n    tag_55:\n      tag_56\n      jump\t// in\n    tag_54:\n      mload(0x40)\n      tag_57\n      swap2\n      swap1\n      tag_36\n      jump\t// in\n    tag_57:\n      mload(0x40)\n      dup1\n      swap2\n      sub\n      swap1\n      return\n        /* \"minerpunk/ERC20/MinePower.sol\":16386:16511  function balanceOf(address account) public view virtual override returns (uint256) {... */\n    tag_11:\n      tag_58\n      0x04\n      dup1\n      calldatasize\n      sub\n      dup2\n      add\n      swap1\n      tag_59\n      swap2\n      swap1\n      tag_60\n      jump\t// in\n    tag_59:\n      tag_61\n      jump\t// in\n    tag_58:\n      mload(0x40)\n      tag_62\n      swap2\n      swap1\n      tag_36\n      jump\t// in\n    tag_62:\n      mload(0x40)\n      dup1\n      swap2\n      sub\n      swap1\n      return\n        /* \"minerpunk/ERC20/MinePower.sol\":27020:27181  function burnFrom(address account, uint256 amount) public virtual {... */\n    tag_12:\n      tag_63\n      0x04\n      dup1\n      calldatasize\n      sub\n      dup2\n      add\n      swap1\n      tag_64\n      swap2\n      swap1\n      tag_29\n      jump\t// in\n    tag_64:\n      tag_65\n      jump\t// in\n    tag_63:\n      stop\n        /* \"minerpunk/ERC20/MinePower.sol\":15345:15447  function symbol() public view virtual override returns (string memory) {... */\n    tag_13:\n      tag_66\n      tag_67\n      jump\t// in\n    tag_66:\n      mload(0x40)\n      tag_68\n      swap2\n      swap1\n      tag_26\n      jump\t// in\n    tag_68:\n      mload(0x40)\n      dup1\n      swap2\n      sub\n      swap1\n      return\n        /* \"minerpunk/ERC20/MinePower.sol\":19572:19999  function decreaseAllowance(address spender, uint256 subtractedValue) public virtual returns (bool) {... */\n    tag_14:\n      tag_69\n      0x04\n      dup1\n      calldatasize\n      sub\n      dup2\n      add\n      swap1\n      tag_70\n      swap2\n      swap1\n      tag_29\n      jump\t// in\n    tag_70:\n      tag_71\n      jump\t// in\n    tag_69:\n      mload(0x40)\n      tag_72\n      swap2\n      swap1\n      tag_32\n      jump\t// in\n    tag_72:\n      mload(0x40)\n      dup1\n      swap2\n      sub\n      swap1\n      return\n        /* \"minerpunk/ERC20/MinePower.sol\":16707:16896  function transfer(address to, uint256 amount) public virtual override returns (bool) {... */\n    tag_15:\n      tag_73\n      0x04\n      dup1\n      calldatasize\n      sub\n      dup2\n      add\n      swap1\n      tag_74\n      swap2\n      swap1\n      tag_29\n      jump\t// in\n    tag_74:\n      tag_75\n      jump\t// in\n    tag_73:\n      mload(0x40)\n      tag_76\n      swap2\n      swap1\n      tag_32\n      jump\t// in\n    tag_76:\n      mload(0x40)\n      dup1\n      swap2\n      sub\n      swap1\n      return\n        /* \"minerpunk/ERC20/MinePower.sol\":13808:14333  function MineStatus(address user)public view  returns(uint256){... */\n    tag_16:\n      tag_77\n      0x04\n      dup1\n      calldatasize\n      sub\n      dup2\n      add\n      swap1\n      tag_78\n      swap2\n      swap1\n      tag_60\n      jump\t// in\n    tag_78:\n      tag_79\n      jump\t// in\n    tag_77:\n      mload(0x40)\n      tag_80\n      swap2\n      swap1\n      tag_36\n      jump\t// in\n    tag_80:\n      mload(0x40)\n      dup1\n      swap2\n      sub\n      swap1\n      return\n        /* \"minerpunk/ERC20/MinePower.sol\":14802:15061  function difficult(uint _BlockNumber)public view  returns (uint256){... */\n    tag_17:\n      tag_81\n      0x04\n      dup1\n      calldatasize\n      sub\n      dup2\n      add\n      swap1\n      tag_82\n      swap2\n      swap1\n      tag_52\n      jump\t// in\n    tag_82:\n      tag_83\n      jump\t// in\n    tag_81:\n      mload(0x40)\n      tag_84\n      swap2\n      swap1\n      tag_36\n      jump\t// in\n    tag_84:\n      mload(0x40)\n      dup1\n      swap2\n      sub\n      swap1\n      return\n        /* \"minerpunk/ERC20/MinePower.sol\":16954:17103  function allowance(address owner, address spender) public view virtual override returns (uint256) {... */\n    tag_18:\n      tag_85\n      0x04\n      dup1\n      calldatasize\n      sub\n      dup2\n      add\n      swap1\n      tag_86\n      swap2\n      swap1\n      tag_87\n      jump\t// in\n    tag_86:\n      tag_88\n      jump\t// in\n    tag_85:\n      mload(0x40)\n      tag_89\n      swap2\n      swap1\n      tag_36\n      jump\t// in\n    tag_89:\n      mload(0x40)\n      dup1\n      swap2\n      sub\n      swap1\n      return\n        /* \"minerpunk/ERC20/MinePower.sol\":13629:13796  function mineInfo(address user, uint256 number) public view  returns (uint256) {       ... */\n    tag_19:\n      tag_90\n      0x04\n      dup1\n      calldatasize\n      sub\n      dup2\n      add\n      swap1\n      tag_91\n      swap2\n      swap1\n      tag_29\n      jump\t// in\n    tag_91:\n      tag_92\n      jump\t// in\n    tag_90:\n      mload(0x40)\n      tag_93\n      swap2\n      swap1\n      tag_36\n      jump\t// in\n    tag_93:\n      mload(0x40)\n      dup1\n      swap2\n      sub\n      swap1\n      return\n        /* \"minerpunk/ERC20/MinePower.sol\":15134:15232  function name() public view virtual override returns (string memory) {... */\n    tag_24:\n        /* \"minerpunk/ERC20/MinePower.sol\":15188:15201  string memory */\n      0x60\n        /* \"minerpunk/ERC20/MinePower.sol\":15220:15225  _name */\n      0x05\n        /* \"minerpunk/ERC20/MinePower.sol\":15213:15225  return _name */\n      dup1\n      sload\n      tag_99\n      swap1\n      tag_100\n      jump\t// in\n    tag_99:\n      dup1\n      0x1f\n      add\n      0x20\n      dup1\n      swap2\n      div\n      mul\n      0x20\n      add\n      mload(0x40)\n      swap1\n      dup2\n      add\n      0x40\n      mstore\n      dup1\n      swap3\n      swap2\n      swap1\n      dup2\n      dup2\n      mstore\n      0x20\n      add\n      dup3\n      dup1\n      sload\n      tag_101\n      swap1\n      tag_100\n      jump\t// in\n    tag_101:\n      dup1\n      iszero\n      tag_102\n      jumpi\n      dup1\n      0x1f\n      lt\n      tag_103\n      jumpi\n      0x0100\n      dup1\n      dup4\n      sload\n      div\n      mul\n      dup4\n      mstore\n      swap2\n      0x20\n      add\n      swap2\n      jump(tag_102)\n    tag_103:\n      dup3\n      add\n      swap2\n      swap1\n      0x00\n      mstore\n      keccak256(0x00, 0x20)\n      swap1\n    tag_104:\n      dup2\n      sload\n      dup2\n      mstore\n      swap1\n      0x01\n      add\n      swap1\n      0x20\n      add\n      dup1\n      dup4\n      gt\n      tag_104\n      jumpi\n      dup3\n      swap1\n      sub\n      0x1f\n      and\n      dup3\n      add\n      swap2\n    tag_102:\n      pop\n      pop\n      pop\n      pop\n      pop\n      swap1\n      pop\n        /* \"minerpunk/ERC20/MinePower.sol\":15134:15232  function name() public view virtual override returns (string memory) {... */\n      swap1\n      jump\t// out\n        /* \"minerpunk/ERC20/MinePower.sol\":17411:17608  function approve(address spender, uint256 amount) public virtual override returns (bool) {... */\n    tag_30:\n        /* \"minerpunk/ERC20/MinePower.sol\":17494:17498  bool */\n      0x00\n        /* \"minerpunk/ERC20/MinePower.sol\":17510:17523  address owner */\n      dup1\n        /* \"minerpunk/ERC20/MinePower.sol\":17526:17538  _msgSender() */\n      tag_106\n        /* \"minerpunk/ERC20/MinePower.sol\":17526:17536  _msgSender */\n      tag_107\n        /* \"minerpunk/ERC20/MinePower.sol\":17526:17538  _msgSender() */\n      jump\t// in\n    tag_106:\n        /* \"minerpunk/ERC20/MinePower.sol\":17510:17538  address owner = _msgSender() */\n      swap1\n      pop\n        /* \"minerpunk/ERC20/MinePower.sol\":17548:17580  _approve(owner, spender, amount) */\n      tag_108\n        /* \"minerpunk/ERC20/MinePower.sol\":17557:17562  owner */\n      dup2\n        /* \"minerpunk/ERC20/MinePower.sol\":17564:17571  spender */\n      dup6\n        /* \"minerpunk/ERC20/MinePower.sol\":17573:17579  amount */\n      dup6\n        /* \"minerpunk/ERC20/MinePower.sol\":17548:17556  _approve */\n      tag_109\n        /* \"minerpunk/ERC20/MinePower.sol\":17548:17580  _approve(owner, spender, amount) */\n      jump\t// in\n    tag_108:\n        /* \"minerpunk/ERC20/MinePower.sol\":17597:17601  true */\n      0x01\n        /* \"minerpunk/ERC20/MinePower.sol\":17590:17601  return true */\n      swap2\n      pop\n      pop\n        /* \"minerpunk/ERC20/MinePower.sol\":17411:17608  function approve(address spender, uint256 amount) public virtual override returns (bool) {... */\n      swap3\n      swap2\n      pop\n      pop\n      jump\t// out\n        /* \"minerpunk/ERC20/MinePower.sol\":16222:16328  function totalSupply() public view virtual override returns (uint256) {... */\n    tag_34:\n        /* \"minerpunk/ERC20/MinePower.sol\":16283:16290  uint256 */\n      0x00\n        /* \"minerpunk/ERC20/MinePower.sol\":16309:16321  _totalSupply */\n      sload(0x02)\n        /* \"minerpunk/ERC20/MinePower.sol\":16302:16321  return _totalSupply */\n      swap1\n      pop\n        /* \"minerpunk/ERC20/MinePower.sol\":16222:16328  function totalSupply() public view virtual override returns (uint256) {... */\n      swap1\n      jump\t// out\n        /* \"minerpunk/ERC20/MinePower.sol\":18170:18456  function transferFrom(... */\n    tag_40:\n        /* \"minerpunk/ERC20/MinePower.sol\":18297:18301  bool */\n      0x00\n        /* \"minerpunk/ERC20/MinePower.sol\":18313:18328  address spender */\n      dup1\n        /* \"minerpunk/ERC20/MinePower.sol\":18331:18343  _msgSender() */\n      tag_112\n        /* \"minerpunk/ERC20/MinePower.sol\":18331:18341  _msgSender */\n      tag_107\n        /* \"minerpunk/ERC20/MinePower.sol\":18331:18343  _msgSender() */\n      jump\t// in\n    tag_112:\n        /* \"minerpunk/ERC20/MinePower.sol\":18313:18343  address spender = _msgSender() */\n      swap1\n      pop\n        /* \"minerpunk/ERC20/MinePower.sol\":18353:18391  _spendAllowance(from, spender, amount) */\n      tag_113\n        /* \"minerpunk/ERC20/MinePower.sol\":18369:18373  from */\n      dup6\n        /* \"minerpunk/ERC20/MinePower.sol\":18375:18382  spender */\n      dup3\n        /* \"minerpunk/ERC20/MinePower.sol\":18384:18390  amount */\n      dup6\n        /* \"minerpunk/ERC20/MinePower.sol\":18353:18368  _spendAllowance */\n      tag_114\n        /* \"minerpunk/ERC20/MinePower.sol\":18353:18391  _spendAllowance(from, spender, amount) */\n      jump\t// in\n    tag_113:\n        /* \"minerpunk/ERC20/MinePower.sol\":18401:18428  _transfer(from, to, amount) */\n      tag_115\n        /* \"minerpunk/ERC20/MinePower.sol\":18411:18415  from */\n      dup6\n        /* \"minerpunk/ERC20/MinePower.sol\":18417:18419  to */\n      dup6\n        /* \"minerpunk/ERC20/MinePower.sol\":18421:18427  amount */\n      dup6\n        /* \"minerpunk/ERC20/MinePower.sol\":18401:18410  _transfer */\n      tag_116\n        /* \"minerpunk/ERC20/MinePower.sol\":18401:18428  _transfer(from, to, amount) */\n      jump\t// in\n    tag_115:\n        /* \"minerpunk/ERC20/MinePower.sol\":18445:18449  true */\n      0x01\n        /* \"minerpunk/ERC20/MinePower.sol\":18438:18449  return true */\n      swap2\n      pop\n      pop\n        /* \"minerpunk/ERC20/MinePower.sol\":18170:18456  function transferFrom(... */\n      swap4\n      swap3\n      pop\n      pop\n      pop\n      jump\t// out\n        /* \"minerpunk/ERC20/MinePower.sol\":16071:16162  function decimals() public view virtual override returns (uint8) {... */\n    tag_43:\n        /* \"minerpunk/ERC20/MinePower.sol\":16129:16134  uint8 */\n      0x00\n        /* \"minerpunk/ERC20/MinePower.sol\":16153:16155  18 */\n      0x12\n        /* \"minerpunk/ERC20/MinePower.sol\":16146:16155  return 18 */\n      swap1\n      pop\n        /* \"minerpunk/ERC20/MinePower.sol\":16071:16162  function decimals() public view virtual override returns (uint8) {... */\n      swap1\n      jump\t// out\n        /* \"minerpunk/ERC20/MinePower.sol\":18851:19085  function increaseAllowance(address spender, uint256 addedValue) public virtual returns (bool) {... */\n    tag_48:\n        /* \"minerpunk/ERC20/MinePower.sol\":18939:18943  bool */\n      0x00\n        /* \"minerpunk/ERC20/MinePower.sol\":18955:18968  address owner */\n      dup1\n        /* \"minerpunk/ERC20/MinePower.sol\":18971:18983  _msgSender() */\n      tag_119\n        /* \"minerpunk/ERC20/MinePower.sol\":18971:18981  _msgSender */\n      tag_107\n        /* \"minerpunk/ERC20/MinePower.sol\":18971:18983  _msgSender() */\n      jump\t// in\n    tag_119:\n        /* \"minerpunk/ERC20/MinePower.sol\":18955:18983  address owner = _msgSender() */\n      swap1\n      pop\n        /* \"minerpunk/ERC20/MinePower.sol\":18993:19057  _approve(owner, spender, allowance(owner, spender) + addedValue) */\n      tag_120\n        /* \"minerpunk/ERC20/MinePower.sol\":19002:19007  owner */\n      dup2\n        /* \"minerpunk/ERC20/MinePower.sol\":19009:19016  spender */\n      dup6\n        /* \"minerpunk/ERC20/MinePower.sol\":19046:19056  addedValue */\n      dup6\n        /* \"minerpunk/ERC20/MinePower.sol\":19018:19043  allowance(owner, spender) */\n      tag_121\n        /* \"minerpunk/ERC20/MinePower.sol\":19028:19033  owner */\n      dup6\n        /* \"minerpunk/ERC20/MinePower.sol\":19035:19042  spender */\n      dup10\n        /* \"minerpunk/ERC20/MinePower.sol\":19018:19027  allowance */\n      tag_88\n        /* \"minerpunk/ERC20/MinePower.sol\":19018:19043  allowance(owner, spender) */\n      jump\t// in\n    tag_121:\n        /* \"minerpunk/ERC20/MinePower.sol\":19018:19056  allowance(owner, spender) + addedValue */\n      tag_122\n      swap2\n      swap1\n      tag_123\n      jump\t// in\n    tag_122:\n        /* \"minerpunk/ERC20/MinePower.sol\":18993:19001  _approve */\n      tag_109\n        /* \"minerpunk/ERC20/MinePower.sol\":18993:19057  _approve(owner, spender, allowance(owner, spender) + addedValue) */\n      jump\t// in\n    tag_120:\n        /* \"minerpunk/ERC20/MinePower.sol\":19074:19078  true */\n      0x01\n        /* \"minerpunk/ERC20/MinePower.sol\":19067:19078  return true */\n      swap2\n      pop\n      pop\n        /* \"minerpunk/ERC20/MinePower.sol\":18851:19085  function increaseAllowance(address spender, uint256 addedValue) public virtual returns (bool) {... */\n      swap3\n      swap2\n      pop\n      pop\n      jump\t// out\n        /* \"minerpunk/ERC20/MinePower.sol\":26604:26714  function burn(uint256 amount) public virtual {             ... */\n    tag_53:\n        /* \"minerpunk/ERC20/MinePower.sol\":26672:26699  _burn(_msgSender(), amount) */\n      tag_125\n        /* \"minerpunk/ERC20/MinePower.sol\":26678:26690  _msgSender() */\n      tag_126\n        /* \"minerpunk/ERC20/MinePower.sol\":26678:26688  _msgSender */\n      tag_107\n        /* \"minerpunk/ERC20/MinePower.sol\":26678:26690  _msgSender() */\n      jump\t// in\n    tag_126:\n        /* \"minerpunk/ERC20/MinePower.sol\":26692:26698  amount */\n      dup3\n        /* \"minerpunk/ERC20/MinePower.sol\":26672:26677  _burn */\n      tag_127\n        /* \"minerpunk/ERC20/MinePower.sol\":26672:26699  _burn(_msgSender(), amount) */\n      jump\t// in\n    tag_125:\n        /* \"minerpunk/ERC20/MinePower.sol\":26604:26714  function burn(uint256 amount) public virtual {             ... */\n      pop\n      jump\t// out\n        /* \"minerpunk/ERC20/MinePower.sol\":14400:14795  function blockStatus (uint256 _BlockNumber)public view  returns (uint256){... */\n    tag_56:\n        /* \"minerpunk/ERC20/MinePower.sol\":14465:14472  uint256 */\n      0x00\n        /* \"minerpunk/ERC20/MinePower.sol\":14501:14518  _startBlockNumber */\n      sload(0x04)\n        /* \"minerpunk/ERC20/MinePower.sol\":14486:14498  _BlockNumber */\n      dup3\n        /* \"minerpunk/ERC20/MinePower.sol\":14486:14518  _BlockNumber < _startBlockNumber */\n      lt\n        /* \"minerpunk/ERC20/MinePower.sol\":14483:14576  if(_BlockNumber < _startBlockNumber){... */\n      iszero\n      tag_129\n      jumpi\n        /* \"minerpunk/ERC20/MinePower.sol\":14548:14565  _startBlockNumber */\n      sload(0x04)\n        /* \"minerpunk/ERC20/MinePower.sol\":14533:14565  _BlockNumber = _startBlockNumber */\n      swap2\n      pop\n        /* \"minerpunk/ERC20/MinePower.sol\":14483:14576  if(_BlockNumber < _startBlockNumber){... */\n    tag_129:\n        /* \"minerpunk/ERC20/MinePower.sol\":14585:14604  uint256 DCFperBlock */\n      0x00\n        /* \"minerpunk/ERC20/MinePower.sol\":14607:14631  _TokenperBlock.mul(1e54) */\n      tag_130\n        /* \"minerpunk/ERC20/MinePower.sol\":14626:14630  1e54 */\n      0x0a70c3c40a64e6c51999090b65f67d9240000000000000\n        /* \"minerpunk/ERC20/MinePower.sol\":14607:14621  _TokenperBlock */\n      sload(0x03)\n        /* \"minerpunk/ERC20/MinePower.sol\":14607:14625  _TokenperBlock.mul */\n      tag_96\n      swap1\n        /* \"minerpunk/ERC20/MinePower.sol\":14607:14631  _TokenperBlock.mul(1e54) */\n      swap2\n      swap1\n      0xffffffff\n      and\n      jump\t// in\n    tag_130:\n        /* \"minerpunk/ERC20/MinePower.sol\":14585:14631  uint256 DCFperBlock = _TokenperBlock.mul(1e54) */\n      swap1\n      pop\n        /* \"minerpunk/ERC20/MinePower.sol\":14652:14674  uint256 BlockDifficult */\n      0x00\n        /* \"minerpunk/ERC20/MinePower.sol\":14677:14700  difficult(_BlockNumber) */\n      tag_131\n        /* \"minerpunk/ERC20/MinePower.sol\":14687:14699  _BlockNumber */\n      dup5\n        /* \"minerpunk/ERC20/MinePower.sol\":14677:14686  difficult */\n      tag_83\n        /* \"minerpunk/ERC20/MinePower.sol\":14677:14700  difficult(_BlockNumber) */\n      jump\t// in\n    tag_131:\n        /* \"minerpunk/ERC20/MinePower.sol\":14652:14700  uint256 BlockDifficult = difficult(_BlockNumber) */\n      swap1\n      pop\n        /* \"minerpunk/ERC20/MinePower.sol\":14715:14728  uint256 DugUP */\n      0x00\n        /* \"minerpunk/ERC20/MinePower.sol\":14731:14762  DCFperBlock.div(BlockDifficult) */\n      tag_132\n        /* \"minerpunk/ERC20/MinePower.sol\":14747:14761  BlockDifficult */\n      dup3\n        /* \"minerpunk/ERC20/MinePower.sol\":14731:14742  DCFperBlock */\n      dup5\n        /* \"minerpunk/ERC20/MinePower.sol\":14731:14746  DCFperBlock.div */\n      tag_97\n      swap1\n        /* \"minerpunk/ERC20/MinePower.sol\":14731:14762  DCFperBlock.div(BlockDifficult) */\n      swap2\n      swap1\n      0xffffffff\n      and\n      jump\t// in\n    tag_132:\n        /* \"minerpunk/ERC20/MinePower.sol\":14715:14762  uint256 DugUP = DCFperBlock.div(BlockDifficult) */\n      swap1\n      pop\n        /* \"minerpunk/ERC20/MinePower.sol\":14779:14784  DugUP */\n      dup1\n        /* \"minerpunk/ERC20/MinePower.sol\":14772:14784  return DugUP */\n      swap4\n      pop\n      pop\n      pop\n      pop\n        /* \"minerpunk/ERC20/MinePower.sol\":14400:14795  function blockStatus (uint256 _BlockNumber)public view  returns (uint256){... */\n      swap2\n      swap1\n      pop\n      jump\t// out\n        /* \"minerpunk/ERC20/MinePower.sol\":16386:16511  function balanceOf(address account) public view virtual override returns (uint256) {... */\n    tag_61:\n        /* \"minerpunk/ERC20/MinePower.sol\":16460:16467  uint256 */\n      0x00\n        /* \"minerpunk/ERC20/MinePower.sol\":16486:16495  _balances */\n      dup1\n        /* \"minerpunk/ERC20/MinePower.sol\":16486:16504  _balances[account] */\n      0x00\n        /* \"minerpunk/ERC20/MinePower.sol\":16496:16503  account */\n      dup4\n        /* \"minerpunk/ERC20/MinePower.sol\":16486:16504  _balances[account] */\n      0xffffffffffffffffffffffffffffffffffffffff\n      and\n      0xffffffffffffffffffffffffffffffffffffffff\n      and\n      dup2\n      mstore\n      0x20\n      add\n      swap1\n      dup2\n      mstore\n      0x20\n      add\n      0x00\n      keccak256\n      sload\n        /* \"minerpunk/ERC20/MinePower.sol\":16479:16504  return _balances[account] */\n      swap1\n      pop\n        /* \"minerpunk/ERC20/MinePower.sol\":16386:16511  function balanceOf(address account) public view virtual override returns (uint256) {... */\n      swap2\n      swap1\n      pop\n      jump\t// out\n        /* \"minerpunk/ERC20/MinePower.sol\":27020:27181  function burnFrom(address account, uint256 amount) public virtual {... */\n    tag_65:\n        /* \"minerpunk/ERC20/MinePower.sol\":27096:27142  _spendAllowance(account, _msgSender(), amount) */\n      tag_135\n        /* \"minerpunk/ERC20/MinePower.sol\":27112:27119  account */\n      dup3\n        /* \"minerpunk/ERC20/MinePower.sol\":27121:27133  _msgSender() */\n      tag_136\n        /* \"minerpunk/ERC20/MinePower.sol\":27121:27131  _msgSender */\n      tag_107\n        /* \"minerpunk/ERC20/MinePower.sol\":27121:27133  _msgSender() */\n      jump\t// in\n    tag_136:\n        /* \"minerpunk/ERC20/MinePower.sol\":27135:27141  amount */\n      dup4\n        /* \"minerpunk/ERC20/MinePower.sol\":27096:27111  _spendAllowance */\n      tag_114\n        /* \"minerpunk/ERC20/MinePower.sol\":27096:27142  _spendAllowance(account, _msgSender(), amount) */\n      jump\t// in\n    tag_135:\n        /* \"minerpunk/ERC20/MinePower.sol\":27152:27174  _burn(account, amount) */\n      tag_137\n        /* \"minerpunk/ERC20/MinePower.sol\":27158:27165  account */\n      dup3\n        /* \"minerpunk/ERC20/MinePower.sol\":27167:27173  amount */\n      dup3\n        /* \"minerpunk/ERC20/MinePower.sol\":27152:27157  _burn */\n      tag_127\n        /* \"minerpunk/ERC20/MinePower.sol\":27152:27174  _burn(account, amount) */\n      jump\t// in\n    tag_137:\n        /* \"minerpunk/ERC20/MinePower.sol\":27020:27181  function burnFrom(address account, uint256 amount) public virtual {... */\n      pop\n      pop\n      jump\t// out\n        /* \"minerpunk/ERC20/MinePower.sol\":15345:15447  function symbol() public view virtual override returns (string memory) {... */\n    tag_67:\n        /* \"minerpunk/ERC20/MinePower.sol\":15401:15414  string memory */\n      0x60\n        /* \"minerpunk/ERC20/MinePower.sol\":15433:15440  _symbol */\n      0x06\n        /* \"minerpunk/ERC20/MinePower.sol\":15426:15440  return _symbol */\n      dup1\n      sload\n      tag_139\n      swap1\n      tag_100\n      jump\t// in\n    tag_139:\n      dup1\n      0x1f\n      add\n      0x20\n      dup1\n      swap2\n      div\n      mul\n      0x20\n      add\n      mload(0x40)\n      swap1\n      dup2\n      add\n      0x40\n      mstore\n      dup1\n      swap3\n      swap2\n      swap1\n      dup2\n      dup2\n      mstore\n      0x20\n      add\n      dup3\n      dup1\n      sload\n      tag_140\n      swap1\n      tag_100\n      jump\t// in\n    tag_140:\n      dup1\n      iszero\n      tag_141\n      jumpi\n      dup1\n      0x1f\n      lt\n      tag_142\n      jumpi\n      0x0100\n      dup1\n      dup4\n      sload\n      div\n      mul\n      dup4\n      mstore\n      swap2\n      0x20\n      add\n      swap2\n      jump(tag_141)\n    tag_142:\n      dup3\n      add\n      swap2\n      swap1\n      0x00\n      mstore\n      keccak256(0x00, 0x20)\n      swap1\n    tag_143:\n      dup2\n      sload\n      dup2\n      mstore\n      swap1\n      0x01\n      add\n      swap1\n      0x20\n      add\n      dup1\n      dup4\n      gt\n      tag_143\n      jumpi\n      dup3\n      swap1\n      sub\n      0x1f\n      and\n      dup3\n      add\n      swap2\n    tag_141:\n      pop\n      pop\n      pop\n      pop\n      pop\n      swap1\n      pop\n        /* \"minerpunk/ERC20/MinePower.sol\":15345:15447  function symbol() public view virtual override returns (string memory) {... */\n      swap1\n      jump\t// out\n        /* \"minerpunk/ERC20/MinePower.sol\":19572:19999  function decreaseAllowance(address spender, uint256 subtractedValue) public virtual returns (bool) {... */\n    tag_71:\n        /* \"minerpunk/ERC20/MinePower.sol\":19665:19669  bool */\n      0x00\n        /* \"minerpunk/ERC20/MinePower.sol\":19681:19694  address owner */\n      dup1\n        /* \"minerpunk/ERC20/MinePower.sol\":19697:19709  _msgSender() */\n      tag_145\n        /* \"minerpunk/ERC20/MinePower.sol\":19697:19707  _msgSender */\n      tag_107\n        /* \"minerpunk/ERC20/MinePower.sol\":19697:19709  _msgSender() */\n      jump\t// in\n    tag_145:\n        /* \"minerpunk/ERC20/MinePower.sol\":19681:19709  address owner = _msgSender() */\n      swap1\n      pop\n        /* \"minerpunk/ERC20/MinePower.sol\":19719:19743  uint256 currentAllowance */\n      0x00\n        /* \"minerpunk/ERC20/MinePower.sol\":19746:19771  allowance(owner, spender) */\n      tag_146\n        /* \"minerpunk/ERC20/MinePower.sol\":19756:19761  owner */\n      dup3\n        /* \"minerpunk/ERC20/MinePower.sol\":19763:19770  spender */\n      dup7\n        /* \"minerpunk/ERC20/MinePower.sol\":19746:19755  allowance */\n      tag_88\n        /* \"minerpunk/ERC20/MinePower.sol\":19746:19771  allowance(owner, spender) */\n      jump\t// in\n    tag_146:\n        /* \"minerpunk/ERC20/MinePower.sol\":19719:19771  uint256 currentAllowance = allowance(owner, spender) */\n      swap1\n      pop\n        /* \"minerpunk/ERC20/MinePower.sol\":19809:19824  subtractedValue */\n      dup4\n        /* \"minerpunk/ERC20/MinePower.sol\":19789:19805  currentAllowance */\n      dup2\n        /* \"minerpunk/ERC20/MinePower.sol\":19789:19824  currentAllowance >= subtractedValue */\n      lt\n      iszero\n        /* \"minerpunk/ERC20/MinePower.sol\":19781:19866  require(currentAllowance >= subtractedValue, \"ERC20: decreased allowance below zero\") */\n      tag_147\n      jumpi\n      mload(0x40)\n      0x08c379a000000000000000000000000000000000000000000000000000000000\n      dup2\n      mstore\n      0x04\n      add\n      tag_148\n      swap1\n      tag_149\n      jump\t// in\n    tag_148:\n      mload(0x40)\n      dup1\n      swap2\n      sub\n      swap1\n      revert\n    tag_147:\n        /* \"minerpunk/ERC20/MinePower.sol\":19900:19960  _approve(owner, spender, currentAllowance - subtractedValue) */\n      tag_150\n        /* \"minerpunk/ERC20/MinePower.sol\":19909:19914  owner */\n      dup3\n        /* \"minerpunk/ERC20/MinePower.sol\":19916:19923  spender */\n      dup7\n        /* \"minerpunk/ERC20/MinePower.sol\":19944:19959  subtractedValue */\n      dup7\n        /* \"minerpunk/ERC20/MinePower.sol\":19925:19941  currentAllowance */\n      dup5\n        /* \"minerpunk/ERC20/MinePower.sol\":19925:19959  currentAllowance - subtractedValue */\n      sub\n        /* \"minerpunk/ERC20/MinePower.sol\":19900:19908  _approve */\n      tag_109\n        /* \"minerpunk/ERC20/MinePower.sol\":19900:19960  _approve(owner, spender, currentAllowance - subtractedValue) */\n      jump\t// in\n    tag_150:\n        /* \"minerpunk/ERC20/MinePower.sol\":19988:19992  true */\n      0x01\n        /* \"minerpunk/ERC20/MinePower.sol\":19981:19992  return true */\n      swap3\n      pop\n      pop\n      pop\n        /* \"minerpunk/ERC20/MinePower.sol\":19572:19999  function decreaseAllowance(address spender, uint256 subtractedValue) public virtual returns (bool) {... */\n      swap3\n      swap2\n      pop\n      pop\n      jump\t// out\n        /* \"minerpunk/ERC20/MinePower.sol\":16707:16896  function transfer(address to, uint256 amount) public virtual override returns (bool) {... */\n    tag_75:\n        /* \"minerpunk/ERC20/MinePower.sol\":16786:16790  bool */\n      0x00\n        /* \"minerpunk/ERC20/MinePower.sol\":16802:16815  address owner */\n      dup1\n        /* \"minerpunk/ERC20/MinePower.sol\":16818:16830  _msgSender() */\n      tag_152\n        /* \"minerpunk/ERC20/MinePower.sol\":16818:16828  _msgSender */\n      tag_107\n        /* \"minerpunk/ERC20/MinePower.sol\":16818:16830  _msgSender() */\n      jump\t// in\n    tag_152:\n        /* \"minerpunk/ERC20/MinePower.sol\":16802:16830  address owner = _msgSender() */\n      swap1\n      pop\n        /* \"minerpunk/ERC20/MinePower.sol\":16840:16868  _transfer(owner, to, amount) */\n      tag_153\n        /* \"minerpunk/ERC20/MinePower.sol\":16850:16855  owner */\n      dup2\n        /* \"minerpunk/ERC20/MinePower.sol\":16857:16859  to */\n      dup6\n        /* \"minerpunk/ERC20/MinePower.sol\":16861:16867  amount */\n      dup6\n        /* \"minerpunk/ERC20/MinePower.sol\":16840:16849  _transfer */\n      tag_116\n        /* \"minerpunk/ERC20/MinePower.sol\":16840:16868  _transfer(owner, to, amount) */\n      jump\t// in\n    tag_153:\n        /* \"minerpunk/ERC20/MinePower.sol\":16885:16889  true */\n      0x01\n        /* \"minerpunk/ERC20/MinePower.sol\":16878:16889  return true */\n      swap2\n      pop\n      pop\n        /* \"minerpunk/ERC20/MinePower.sol\":16707:16896  function transfer(address to, uint256 amount) public virtual override returns (bool) {... */\n      swap3\n      swap2\n      pop\n      pop\n      jump\t// out\n        /* \"minerpunk/ERC20/MinePower.sol\":13808:14333  function MineStatus(address user)public view  returns(uint256){... */\n    tag_79:\n        /* \"minerpunk/ERC20/MinePower.sol\":13862:13869  uint256 */\n      0x00\n        /* \"minerpunk/ERC20/MinePower.sol\":13880:13898  uint256 difference */\n      dup1\n        /* \"minerpunk/ERC20/MinePower.sol\":13901:13937  block.number.sub(_mineInfo[user][1]) */\n      tag_155\n        /* \"minerpunk/ERC20/MinePower.sol\":13918:13927  _mineInfo */\n      0x07\n        /* \"minerpunk/ERC20/MinePower.sol\":13918:13933  _mineInfo[user] */\n      0x00\n        /* \"minerpunk/ERC20/MinePower.sol\":13928:13932  user */\n      dup6\n        /* \"minerpunk/ERC20/MinePower.sol\":13918:13933  _mineInfo[user] */\n      0xffffffffffffffffffffffffffffffffffffffff\n      and\n      0xffffffffffffffffffffffffffffffffffffffff\n      and\n      dup2\n      mstore\n      0x20\n      add\n      swap1\n      dup2\n      mstore\n      0x20\n      add\n      0x00\n      keccak256\n        /* \"minerpunk/ERC20/MinePower.sol\":13918:13936  _mineInfo[user][1] */\n      0x00\n        /* \"minerpunk/ERC20/MinePower.sol\":13934:13935  1 */\n      0x01\n        /* \"minerpunk/ERC20/MinePower.sol\":13918:13936  _mineInfo[user][1] */\n      dup2\n      mstore\n      0x20\n      add\n      swap1\n      dup2\n      mstore\n      0x20\n      add\n      0x00\n      keccak256\n      sload\n        /* \"minerpunk/ERC20/MinePower.sol\":13901:13913  block.number */\n      number\n        /* \"minerpunk/ERC20/MinePower.sol\":13901:13917  block.number.sub */\n      tag_94\n      swap1\n        /* \"minerpunk/ERC20/MinePower.sol\":13901:13937  block.number.sub(_mineInfo[user][1]) */\n      swap2\n      swap1\n      0xffffffff\n      and\n      jump\t// in\n    tag_155:\n        /* \"minerpunk/ERC20/MinePower.sol\":13880:13937  uint256 difference = block.number.sub(_mineInfo[user][1]) */\n      swap1\n      pop\n        /* \"minerpunk/ERC20/MinePower.sol\":13947:13960  uint256 start */\n      0x00\n        /* \"minerpunk/ERC20/MinePower.sol\":13963:13994  blockStatus(_mineInfo[user][1]) */\n      tag_156\n        /* \"minerpunk/ERC20/MinePower.sol\":13975:13984  _mineInfo */\n      0x07\n        /* \"minerpunk/ERC20/MinePower.sol\":13975:13990  _mineInfo[user] */\n      0x00\n        /* \"minerpunk/ERC20/MinePower.sol\":13985:13989  user */\n      dup7\n        /* \"minerpunk/ERC20/MinePower.sol\":13975:13990  _mineInfo[user] */\n      0xffffffffffffffffffffffffffffffffffffffff\n      and\n      0xffffffffffffffffffffffffffffffffffffffff\n      and\n      dup2\n      mstore\n      0x20\n      add\n      swap1\n      dup2\n      mstore\n      0x20\n      add\n      0x00\n      keccak256\n        /* \"minerpunk/ERC20/MinePower.sol\":13975:13993  _mineInfo[user][1] */\n      0x00\n        /* \"minerpunk/ERC20/MinePower.sol\":13991:13992  1 */\n      0x01\n        /* \"minerpunk/ERC20/MinePower.sol\":13975:13993  _mineInfo[user][1] */\n      dup2\n      mstore\n      0x20\n      add\n      swap1\n      dup2\n      mstore\n      0x20\n      add\n      0x00\n      keccak256\n      sload\n        /* \"minerpunk/ERC20/MinePower.sol\":13963:13974  blockStatus */\n      tag_56\n        /* \"minerpunk/ERC20/MinePower.sol\":13963:13994  blockStatus(_mineInfo[user][1]) */\n      jump\t// in\n    tag_156:\n        /* \"minerpunk/ERC20/MinePower.sol\":13947:13994  uint256 start = blockStatus(_mineInfo[user][1]) */\n      swap1\n      pop\n        /* \"minerpunk/ERC20/MinePower.sol\":14004:14015  uint256 end */\n      0x00\n        /* \"minerpunk/ERC20/MinePower.sol\":14018:14043  blockStatus(block.number) */\n      tag_157\n        /* \"minerpunk/ERC20/MinePower.sol\":14030:14042  block.number */\n      number\n        /* \"minerpunk/ERC20/MinePower.sol\":14018:14029  blockStatus */\n      tag_56\n        /* \"minerpunk/ERC20/MinePower.sol\":14018:14043  blockStatus(block.number) */\n      jump\t// in\n    tag_157:\n        /* \"minerpunk/ERC20/MinePower.sol\":14004:14043  uint256 end = blockStatus(block.number) */\n      swap1\n      pop\n        /* \"minerpunk/ERC20/MinePower.sol\":14053:14071  uint256 mined_area */\n      0x00\n        /* \"minerpunk/ERC20/MinePower.sol\":14074:14111  start.add(end).mul(difference).div(2) */\n      tag_158\n        /* \"minerpunk/ERC20/MinePower.sol\":14109:14110  2 */\n      0x02\n        /* \"minerpunk/ERC20/MinePower.sol\":14074:14104  start.add(end).mul(difference) */\n      tag_159\n        /* \"minerpunk/ERC20/MinePower.sol\":14093:14103  difference */\n      dup7\n        /* \"minerpunk/ERC20/MinePower.sol\":14074:14088  start.add(end) */\n      tag_160\n        /* \"minerpunk/ERC20/MinePower.sol\":14084:14087  end */\n      dup7\n        /* \"minerpunk/ERC20/MinePower.sol\":14074:14079  start */\n      dup9\n        /* \"minerpunk/ERC20/MinePower.sol\":14074:14083  start.add */\n      tag_95\n      swap1\n        /* \"minerpunk/ERC20/MinePower.sol\":14074:14088  start.add(end) */\n      swap2\n      swap1\n      0xffffffff\n      and\n      jump\t// in\n    tag_160:\n        /* \"minerpunk/ERC20/MinePower.sol\":14074:14092  start.add(end).mul */\n      tag_96\n      swap1\n        /* \"minerpunk/ERC20/MinePower.sol\":14074:14104  start.add(end).mul(difference) */\n      swap2\n      swap1\n      0xffffffff\n      and\n      jump\t// in\n    tag_159:\n        /* \"minerpunk/ERC20/MinePower.sol\":14074:14108  start.add(end).mul(difference).div */\n      tag_97\n      swap1\n        /* \"minerpunk/ERC20/MinePower.sol\":14074:14111  start.add(end).mul(difference).div(2) */\n      swap2\n      swap1\n      0xffffffff\n      and\n      jump\t// in\n    tag_158:\n        /* \"minerpunk/ERC20/MinePower.sol\":14053:14111  uint256 mined_area = start.add(end).mul(difference).div(2) */\n      swap1\n      pop\n        /* \"minerpunk/ERC20/MinePower.sol\":14201:14216  uint dcf_amount */\n      0x00\n        /* \"minerpunk/ERC20/MinePower.sol\":14219:14268  mined_area.mul(balanceOf(user)).div(_totalSupply) */\n      tag_161\n        /* \"minerpunk/ERC20/MinePower.sol\":14255:14267  _totalSupply */\n      sload(0x02)\n        /* \"minerpunk/ERC20/MinePower.sol\":14219:14250  mined_area.mul(balanceOf(user)) */\n      tag_162\n        /* \"minerpunk/ERC20/MinePower.sol\":14234:14249  balanceOf(user) */\n      tag_163\n        /* \"minerpunk/ERC20/MinePower.sol\":14244:14248  user */\n      dup11\n        /* \"minerpunk/ERC20/MinePower.sol\":14234:14243  balanceOf */\n      tag_61\n        /* \"minerpunk/ERC20/MinePower.sol\":14234:14249  balanceOf(user) */\n      jump\t// in\n    tag_163:\n        /* \"minerpunk/ERC20/MinePower.sol\":14219:14229  mined_area */\n      dup6\n        /* \"minerpunk/ERC20/MinePower.sol\":14219:14233  mined_area.mul */\n      tag_96\n      swap1\n        /* \"minerpunk/ERC20/MinePower.sol\":14219:14250  mined_area.mul(balanceOf(user)) */\n      swap2\n      swap1\n      0xffffffff\n      and\n      jump\t// in\n    tag_162:\n        /* \"minerpunk/ERC20/MinePower.sol\":14219:14254  mined_area.mul(balanceOf(user)).div */\n      tag_97\n      swap1\n        /* \"minerpunk/ERC20/MinePower.sol\":14219:14268  mined_area.mul(balanceOf(user)).div(_totalSupply) */\n      swap2\n      swap1\n      0xffffffff\n      and\n      jump\t// in\n    tag_161:\n        /* \"minerpunk/ERC20/MinePower.sol\":14201:14268  uint dcf_amount = mined_area.mul(balanceOf(user)).div(_totalSupply) */\n      swap1\n      pop\n        /* \"minerpunk/ERC20/MinePower.sol\":14285:14319  _mineInfo[user][3].add(dcf_amount) */\n      tag_164\n        /* \"minerpunk/ERC20/MinePower.sol\":14308:14318  dcf_amount */\n      dup2\n        /* \"minerpunk/ERC20/MinePower.sol\":14285:14294  _mineInfo */\n      0x07\n        /* \"minerpunk/ERC20/MinePower.sol\":14285:14300  _mineInfo[user] */\n      0x00\n        /* \"minerpunk/ERC20/MinePower.sol\":14295:14299  user */\n      dup11\n        /* \"minerpunk/ERC20/MinePower.sol\":14285:14300  _mineInfo[user] */\n      0xffffffffffffffffffffffffffffffffffffffff\n      and\n      0xffffffffffffffffffffffffffffffffffffffff\n      and\n      dup2\n      mstore\n      0x20\n      add\n      swap1\n      dup2\n      mstore\n      0x20\n      add\n      0x00\n      keccak256\n        /* \"minerpunk/ERC20/MinePower.sol\":14285:14303  _mineInfo[user][3] */\n      0x00\n        /* \"minerpunk/ERC20/MinePower.sol\":14301:14302  3 */\n      0x03\n        /* \"minerpunk/ERC20/MinePower.sol\":14285:14303  _mineInfo[user][3] */\n      dup2\n      mstore\n      0x20\n      add\n      swap1\n      dup2\n      mstore\n      0x20\n      add\n      0x00\n      keccak256\n      sload\n        /* \"minerpunk/ERC20/MinePower.sol\":14285:14307  _mineInfo[user][3].add */\n      tag_95\n      swap1\n        /* \"minerpunk/ERC20/MinePower.sol\":14285:14319  _mineInfo[user][3].add(dcf_amount) */\n      swap2\n      swap1\n      0xffffffff\n      and\n      jump\t// in\n    tag_164:\n        /* \"minerpunk/ERC20/MinePower.sol\":14278:14319  return _mineInfo[user][3].add(dcf_amount) */\n      swap6\n      pop\n      pop\n      pop\n      pop\n      pop\n      pop\n        /* \"minerpunk/ERC20/MinePower.sol\":13808:14333  function MineStatus(address user)public view  returns(uint256){... */\n      swap2\n      swap1\n      pop\n      jump\t// out\n        /* \"minerpunk/ERC20/MinePower.sol\":14802:15061  function difficult(uint _BlockNumber)public view  returns (uint256){... */\n    tag_83:\n        /* \"minerpunk/ERC20/MinePower.sol\":14861:14868  uint256 */\n      0x00\n        /* \"minerpunk/ERC20/MinePower.sol\":14879:14898  uint BlockDifficult */\n      dup1\n        /* \"minerpunk/ERC20/MinePower.sol\":14899:14944  _BlockNumber.mul(1e18).div(_startBlockNumber) */\n      tag_166\n        /* \"minerpunk/ERC20/MinePower.sol\":14926:14943  _startBlockNumber */\n      sload(0x04)\n        /* \"minerpunk/ERC20/MinePower.sol\":14899:14921  _BlockNumber.mul(1e18) */\n      tag_167\n        /* \"minerpunk/ERC20/MinePower.sol\":14916:14920  1e18 */\n      0x0de0b6b3a7640000\n        /* \"minerpunk/ERC20/MinePower.sol\":14899:14911  _BlockNumber */\n      dup7\n        /* \"minerpunk/ERC20/MinePower.sol\":14899:14915  _BlockNumber.mul */\n      tag_96\n      swap1\n        /* \"minerpunk/ERC20/MinePower.sol\":14899:14921  _BlockNumber.mul(1e18) */\n      swap2\n      swap1\n      0xffffffff\n      and\n      jump\t// in\n    tag_167:\n        /* \"minerpunk/ERC20/MinePower.sol\":14899:14925  _BlockNumber.mul(1e18).div */\n      tag_97\n      swap1\n        /* \"minerpunk/ERC20/MinePower.sol\":14899:14944  _BlockNumber.mul(1e18).div(_startBlockNumber) */\n      swap2\n      swap1\n      0xffffffff\n      and\n      jump\t// in\n    tag_166:\n        /* \"minerpunk/ERC20/MinePower.sol\":14879:14944  uint BlockDifficult=_BlockNumber.mul(1e18).div(_startBlockNumber) */\n      swap1\n      pop\n        /* \"minerpunk/ERC20/MinePower.sol\":14969:15023  BlockDifficult.mul(BlockDifficult).mul(BlockDifficult) */\n      tag_168\n        /* \"minerpunk/ERC20/MinePower.sol\":15008:15022  BlockDifficult */\n      dup2\n        /* \"minerpunk/ERC20/MinePower.sol\":14969:15003  BlockDifficult.mul(BlockDifficult) */\n      tag_169\n        /* \"minerpunk/ERC20/MinePower.sol\":14988:15002  BlockDifficult */\n      dup4\n        /* \"minerpunk/ERC20/MinePower.sol\":14969:14983  BlockDifficult */\n      dup5\n        /* \"minerpunk/ERC20/MinePower.sol\":14969:14987  BlockDifficult.mul */\n      tag_96\n      swap1\n        /* \"minerpunk/ERC20/MinePower.sol\":14969:15003  BlockDifficult.mul(BlockDifficult) */\n      swap2\n      swap1\n      0xffffffff\n      and\n      jump\t// in\n    tag_169:\n        /* \"minerpunk/ERC20/MinePower.sol\":14969:15007  BlockDifficult.mul(BlockDifficult).mul */\n      tag_96\n      swap1\n        /* \"minerpunk/ERC20/MinePower.sol\":14969:15023  BlockDifficult.mul(BlockDifficult).mul(BlockDifficult) */\n      swap2\n      swap1\n      0xffffffff\n      and\n      jump\t// in\n    tag_168:\n        /* \"minerpunk/ERC20/MinePower.sol\":14954:15023  BlockDifficult=BlockDifficult.mul(BlockDifficult).mul(BlockDifficult) */\n      swap1\n      pop\n        /* \"minerpunk/ERC20/MinePower.sol\":15040:15054  BlockDifficult */\n      dup1\n        /* \"minerpunk/ERC20/MinePower.sol\":15033:15054  return BlockDifficult */\n      swap2\n      pop\n      pop\n        /* \"minerpunk/ERC20/MinePower.sol\":14802:15061  function difficult(uint _BlockNumber)public view  returns (uint256){... */\n      swap2\n      swap1\n      pop\n      jump\t// out\n        /* \"minerpunk/ERC20/MinePower.sol\":16954:17103  function allowance(address owner, address spender) public view virtual override returns (uint256) {... */\n    tag_88:\n        /* \"minerpunk/ERC20/MinePower.sol\":17043:17050  uint256 */\n      0x00\n        /* \"minerpunk/ERC20/MinePower.sol\":17069:17080  _allowances */\n      0x01\n        /* \"minerpunk/ERC20/MinePower.sol\":17069:17087  _allowances[owner] */\n      0x00\n        /* \"minerpunk/ERC20/MinePower.sol\":17081:17086  owner */\n      dup5\n        /* \"minerpunk/ERC20/MinePower.sol\":17069:17087  _allowances[owner] */\n      0xffffffffffffffffffffffffffffffffffffffff\n      and\n      0xffffffffffffffffffffffffffffffffffffffff\n      and\n      dup2\n      mstore\n      0x20\n      add\n      swap1\n      dup2\n      mstore\n      0x20\n      add\n      0x00\n      keccak256\n        /* \"minerpunk/ERC20/MinePower.sol\":17069:17096  _allowances[owner][spender] */\n      0x00\n        /* \"minerpunk/ERC20/MinePower.sol\":17088:17095  spender */\n      dup4\n        /* \"minerpunk/ERC20/MinePower.sol\":17069:17096  _allowances[owner][spender] */\n      0xffffffffffffffffffffffffffffffffffffffff\n      and\n      0xffffffffffffffffffffffffffffffffffffffff\n      and\n      dup2\n      mstore\n      0x20\n      add\n      swap1\n      dup2\n      mstore\n      0x20\n      add\n      0x00\n      keccak256\n      sload\n        /* \"minerpunk/ERC20/MinePower.sol\":17062:17096  return _allowances[owner][spender] */\n      swap1\n      pop\n        /* \"minerpunk/ERC20/MinePower.sol\":16954:17103  function allowance(address owner, address spender) public view virtual override returns (uint256) {... */\n      swap3\n      swap2\n      pop\n      pop\n      jump\t// out\n        /* \"minerpunk/ERC20/MinePower.sol\":13629:13796  function mineInfo(address user, uint256 number) public view  returns (uint256) {       ... */\n    tag_92:\n        /* \"minerpunk/ERC20/MinePower.sol\":13699:13706  uint256 */\n      0x00\n        /* \"minerpunk/ERC20/MinePower.sol\":13756:13765  _mineInfo */\n      0x07\n        /* \"minerpunk/ERC20/MinePower.sol\":13756:13771  _mineInfo[user] */\n      0x00\n        /* \"minerpunk/ERC20/MinePower.sol\":13766:13770  user */\n      dup5\n        /* \"minerpunk/ERC20/MinePower.sol\":13756:13771  _mineInfo[user] */\n      0xffffffffffffffffffffffffffffffffffffffff\n      and\n      0xffffffffffffffffffffffffffffffffffffffff\n      and\n      dup2\n      mstore\n      0x20\n      add\n      swap1\n      dup2\n      mstore\n      0x20\n      add\n      0x00\n      keccak256\n        /* \"minerpunk/ERC20/MinePower.sol\":13756:13779  _mineInfo[user][number] */\n      0x00\n        /* \"minerpunk/ERC20/MinePower.sol\":13772:13778  number */\n      dup4\n        /* \"minerpunk/ERC20/MinePower.sol\":13756:13779  _mineInfo[user][number] */\n      dup2\n      mstore\n      0x20\n      add\n      swap1\n      dup2\n      mstore\n      0x20\n      add\n      0x00\n      keccak256\n      sload\n        /* \"minerpunk/ERC20/MinePower.sol\":13749:13779  return _mineInfo[user][number] */\n      swap1\n      pop\n        /* \"minerpunk/ERC20/MinePower.sol\":13629:13796  function mineInfo(address user, uint256 number) public view  returns (uint256) {       ... */\n      swap3\n      swap2\n      pop\n      pop\n      jump\t// out\n        /* \"minerpunk/ERC20/MinePower.sol\":3181:3277  function sub(uint256 a, uint256 b) internal pure returns (uint256) {... */\n    tag_94:\n        /* \"minerpunk/ERC20/MinePower.sol\":3239:3246  uint256 */\n      0x00\n        /* \"minerpunk/ERC20/MinePower.sol\":3269:3270  b */\n      dup2\n        /* \"minerpunk/ERC20/MinePower.sol\":3265:3266  a */\n      dup4\n        /* \"minerpunk/ERC20/MinePower.sol\":3265:3270  a - b */\n      tag_173\n      swap2\n      swap1\n      tag_174\n      jump\t// in\n    tag_173:\n        /* \"minerpunk/ERC20/MinePower.sol\":3258:3270  return a - b */\n      swap1\n      pop\n        /* \"minerpunk/ERC20/MinePower.sol\":3181:3277  function sub(uint256 a, uint256 b) internal pure returns (uint256) {... */\n      swap3\n      swap2\n      pop\n      pop\n      jump\t// out\n        /* \"minerpunk/ERC20/MinePower.sol\":2814:2910  function add(uint256 a, uint256 b) internal pure returns (uint256) {... */\n    tag_95:\n        /* \"minerpunk/ERC20/MinePower.sol\":2872:2879  uint256 */\n      0x00\n        /* \"minerpunk/ERC20/MinePower.sol\":2902:2903  b */\n      dup2\n        /* \"minerpunk/ERC20/MinePower.sol\":2898:2899  a */\n      dup4\n        /* \"minerpunk/ERC20/MinePower.sol\":2898:2903  a + b */\n      tag_176\n      swap2\n      swap1\n      tag_123\n      jump\t// in\n    tag_176:\n        /* \"minerpunk/ERC20/MinePower.sol\":2891:2903  return a + b */\n      swap1\n      pop\n        /* \"minerpunk/ERC20/MinePower.sol\":2814:2910  function add(uint256 a, uint256 b) internal pure returns (uint256) {... */\n      swap3\n      swap2\n      pop\n      pop\n      jump\t// out\n        /* \"minerpunk/ERC20/MinePower.sol\":3524:3620  function mul(uint256 a, uint256 b) internal pure returns (uint256) {... */\n    tag_96:\n        /* \"minerpunk/ERC20/MinePower.sol\":3582:3589  uint256 */\n      0x00\n        /* \"minerpunk/ERC20/MinePower.sol\":3612:3613  b */\n      dup2\n        /* \"minerpunk/ERC20/MinePower.sol\":3608:3609  a */\n      dup4\n        /* \"minerpunk/ERC20/MinePower.sol\":3608:3613  a * b */\n      tag_178\n      swap2\n      swap1\n      tag_179\n      jump\t// in\n    tag_178:\n        /* \"minerpunk/ERC20/MinePower.sol\":3601:3613  return a * b */\n      swap1\n      pop\n        /* \"minerpunk/ERC20/MinePower.sol\":3524:3620  function mul(uint256 a, uint256 b) internal pure returns (uint256) {... */\n      swap3\n      swap2\n      pop\n      pop\n      jump\t// out\n        /* \"minerpunk/ERC20/MinePower.sol\":3909:4005  function div(uint256 a, uint256 b) internal pure returns (uint256) {... */\n    tag_97:\n        /* \"minerpunk/ERC20/MinePower.sol\":3967:3974  uint256 */\n      0x00\n        /* \"minerpunk/ERC20/MinePower.sol\":3997:3998  b */\n      dup2\n        /* \"minerpunk/ERC20/MinePower.sol\":3993:3994  a */\n      dup4\n        /* \"minerpunk/ERC20/MinePower.sol\":3993:3998  a / b */\n      tag_181\n      swap2\n      swap1\n      tag_182\n      jump\t// in\n    tag_181:\n        /* \"minerpunk/ERC20/MinePower.sol\":3986:3998  return a / b */\n      swap1\n      pop\n        /* \"minerpunk/ERC20/MinePower.sol\":3909:4005  function div(uint256 a, uint256 b) internal pure returns (uint256) {... */\n      swap3\n      swap2\n      pop\n      pop\n      jump\t// out\n        /* \"minerpunk/ERC20/MinePower.sol\":7545:7641  function _msgSender() internal view virtual returns (address) {... */\n    tag_107:\n        /* \"minerpunk/ERC20/MinePower.sol\":7598:7605  address */\n      0x00\n        /* \"minerpunk/ERC20/MinePower.sol\":7624:7634  msg.sender */\n      caller\n        /* \"minerpunk/ERC20/MinePower.sol\":7617:7634  return msg.sender */\n      swap1\n      pop\n        /* \"minerpunk/ERC20/MinePower.sol\":7545:7641  function _msgSender() internal view virtual returns (address) {... */\n      swap1\n      jump\t// out\n        /* \"minerpunk/ERC20/MinePower.sol\":23532:23902  function _approve(... */\n    tag_109:\n        /* \"minerpunk/ERC20/MinePower.sol\":23680:23681  0 */\n      0x00\n        /* \"minerpunk/ERC20/MinePower.sol\":23663:23682  owner != address(0) */\n      0xffffffffffffffffffffffffffffffffffffffff\n      and\n        /* \"minerpunk/ERC20/MinePower.sol\":23663:23668  owner */\n      dup4\n        /* \"minerpunk/ERC20/MinePower.sol\":23663:23682  owner != address(0) */\n      0xffffffffffffffffffffffffffffffffffffffff\n      and\n      sub\n        /* \"minerpunk/ERC20/MinePower.sol\":23655:23723  require(owner != address(0), \"ERC20: approve from the zero address\") */\n      tag_185\n      jumpi\n      mload(0x40)\n      0x08c379a000000000000000000000000000000000000000000000000000000000\n      dup2\n      mstore\n      0x04\n      add\n      tag_186\n      swap1\n      tag_187\n      jump\t// in\n    tag_186:\n      mload(0x40)\n      dup1\n      swap2\n      sub\n      swap1\n      revert\n    tag_185:\n        /* \"minerpunk/ERC20/MinePower.sol\":23760:23761  0 */\n      0x00\n        /* \"minerpunk/ERC20/MinePower.sol\":23741:23762  spender != address(0) */\n      0xffffffffffffffffffffffffffffffffffffffff\n      and\n        /* \"minerpunk/ERC20/MinePower.sol\":23741:23748  spender */\n      dup3\n        /* \"minerpunk/ERC20/MinePower.sol\":23741:23762  spender != address(0) */\n      0xffffffffffffffffffffffffffffffffffffffff\n      and\n      sub\n        /* \"minerpunk/ERC20/MinePower.sol\":23733:23801  require(spender != address(0), \"ERC20: approve to the zero address\") */\n      tag_188\n      jumpi\n      mload(0x40)\n      0x08c379a000000000000000000000000000000000000000000000000000000000\n      dup2\n      mstore\n      0x04\n      add\n      tag_189\n      swap1\n      tag_190\n      jump\t// in\n    tag_189:\n      mload(0x40)\n      dup1\n      swap2\n      sub\n      swap1\n      revert\n    tag_188:\n        /* \"minerpunk/ERC20/MinePower.sol\":23842:23848  amount */\n      dup1\n        /* \"minerpunk/ERC20/MinePower.sol\":23812:23823  _allowances */\n      0x01\n        /* \"minerpunk/ERC20/MinePower.sol\":23812:23830  _allowances[owner] */\n      0x00\n        /* \"minerpunk/ERC20/MinePower.sol\":23824:23829  owner */\n      dup6\n        /* \"minerpunk/ERC20/MinePower.sol\":23812:23830  _allowances[owner] */\n      0xffffffffffffffffffffffffffffffffffffffff\n      and\n      0xffffffffffffffffffffffffffffffffffffffff\n      and\n      dup2\n      mstore\n      0x20\n      add\n      swap1\n      dup2\n      mstore\n      0x20\n      add\n      0x00\n      keccak256\n        /* \"minerpunk/ERC20/MinePower.sol\":23812:23839  _allowances[owner][spender] */\n      0x00\n        /* \"minerpunk/ERC20/MinePower.sol\":23831:23838  spender */\n      dup5\n        /* \"minerpunk/ERC20/MinePower.sol\":23812:23839  _allowances[owner][spender] */\n      0xffffffffffffffffffffffffffffffffffffffff\n      and\n      0xffffffffffffffffffffffffffffffffffffffff\n      and\n      dup2\n      mstore\n      0x20\n      add\n      swap1\n      dup2\n      mstore\n      0x20\n      add\n      0x00\n      keccak256\n        /* \"minerpunk/ERC20/MinePower.sol\":23812:23848  _allowances[owner][spender] = amount */\n      dup2\n      swap1\n      sstore\n      pop\n        /* \"minerpunk/ERC20/MinePower.sol\":23879:23886  spender */\n      dup2\n        /* \"minerpunk/ERC20/MinePower.sol\":23863:23895  Approval(owner, spender, amount) */\n      0xffffffffffffffffffffffffffffffffffffffff\n      and\n        /* \"minerpunk/ERC20/MinePower.sol\":23872:23877  owner */\n      dup4\n        /* \"minerpunk/ERC20/MinePower.sol\":23863:23895  Approval(owner, spender, amount) */\n      0xffffffffffffffffffffffffffffffffffffffff\n      and\n      0x8c5be1e5ebec7d5bd14f71427d1e84f3dd0314c0f7b2291e5b200ac8c7c3b925\n        /* \"minerpunk/ERC20/MinePower.sol\":23888:23894  amount */\n      dup4\n        /* \"minerpunk/ERC20/MinePower.sol\":23863:23895  Approval(owner, spender, amount) */\n      mload(0x40)\n      tag_191\n      swap2\n      swap1\n      tag_36\n      jump\t// in\n    tag_191:\n      mload(0x40)\n      dup1\n      swap2\n      sub\n      swap1\n      log3\n        /* \"minerpunk/ERC20/MinePower.sol\":23532:23902  function _approve(... */\n      pop\n      pop\n      pop\n      jump\t// out\n        /* \"minerpunk/ERC20/MinePower.sol\":24183:24624  function _spendAllowance(... */\n    tag_114:\n        /* \"minerpunk/ERC20/MinePower.sol\":24313:24337  uint256 currentAllowance */\n      0x00\n        /* \"minerpunk/ERC20/MinePower.sol\":24340:24365  allowance(owner, spender) */\n      tag_193\n        /* \"minerpunk/ERC20/MinePower.sol\":24350:24355  owner */\n      dup5\n        /* \"minerpunk/ERC20/MinePower.sol\":24357:24364  spender */\n      dup5\n        /* \"minerpunk/ERC20/MinePower.sol\":24340:24349  allowance */\n      tag_88\n        /* \"minerpunk/ERC20/MinePower.sol\":24340:24365  allowance(owner, spender) */\n      jump\t// in\n    tag_193:\n        /* \"minerpunk/ERC20/MinePower.sol\":24313:24365  uint256 currentAllowance = allowance(owner, spender) */\n      swap1\n      pop\n        /* \"minerpunk/ERC20/MinePower.sol\":24399:24416  type(uint256).max */\n      0xffffffffffffffffffffffffffffffffffffffffffffffffffffffffffffffff\n        /* \"minerpunk/ERC20/MinePower.sol\":24379:24395  currentAllowance */\n      dup2\n        /* \"minerpunk/ERC20/MinePower.sol\":24379:24416  currentAllowance != type(uint256).max */\n      eq\n        /* \"minerpunk/ERC20/MinePower.sol\":24375:24618  if (currentAllowance != type(uint256).max) {... */\n      tag_194\n      jumpi\n        /* \"minerpunk/ERC20/MinePower.sol\":24460:24466  amount */\n      dup2\n        /* \"minerpunk/ERC20/MinePower.sol\":24440:24456  currentAllowance */\n      dup2\n        /* \"minerpunk/ERC20/MinePower.sol\":24440:24466  currentAllowance >= amount */\n      lt\n      iszero\n        /* \"minerpunk/ERC20/MinePower.sol\":24432:24500  require(currentAllowance >= amount, \"ERC20: insufficient allowance\") */\n      tag_195\n      jumpi\n      mload(0x40)\n      0x08c379a000000000000000000000000000000000000000000000000000000000\n      dup2\n      mstore\n      0x04\n      add\n      tag_196\n      swap1\n      tag_197\n      jump\t// in\n    tag_196:\n      mload(0x40)\n      dup1\n      swap2\n      sub\n      swap1\n      revert\n    tag_195:\n        /* \"minerpunk/ERC20/MinePower.sol\":24542:24593  _approve(owner, spender, currentAllowance - amount) */\n      tag_198\n        /* \"minerpunk/ERC20/MinePower.sol\":24551:24556  owner */\n      dup5\n        /* \"minerpunk/ERC20/MinePower.sol\":24558:24565  spender */\n      dup5\n        /* \"minerpunk/ERC20/MinePower.sol\":24586:24592  amount */\n      dup5\n        /* \"minerpunk/ERC20/MinePower.sol\":24567:24583  currentAllowance */\n      dup5\n        /* \"minerpunk/ERC20/MinePower.sol\":24567:24592  currentAllowance - amount */\n      sub\n        /* \"minerpunk/ERC20/MinePower.sol\":24542:24550  _approve */\n      tag_109\n        /* \"minerpunk/ERC20/MinePower.sol\":24542:24593  _approve(owner, spender, currentAllowance - amount) */\n      jump\t// in\n    tag_198:\n        /* \"minerpunk/ERC20/MinePower.sol\":24375:24618  if (currentAllowance != type(uint256).max) {... */\n    tag_194:\n        /* \"minerpunk/ERC20/MinePower.sol\":24303:24624  {... */\n      pop\n        /* \"minerpunk/ERC20/MinePower.sol\":24183:24624  function _spendAllowance(... */\n      pop\n      pop\n      pop\n      jump\t// out\n        /* \"minerpunk/ERC20/MinePower.sol\":20453:21281  function _transfer(... */\n    tag_116:\n        /* \"minerpunk/ERC20/MinePower.sol\":20595:20596  0 */\n      0x00\n        /* \"minerpunk/ERC20/MinePower.sol\":20579:20597  from != address(0) */\n      0xffffffffffffffffffffffffffffffffffffffff\n      and\n        /* \"minerpunk/ERC20/MinePower.sol\":20579:20583  from */\n      dup4\n        /* \"minerpunk/ERC20/MinePower.sol\":20579:20597  from != address(0) */\n      0xffffffffffffffffffffffffffffffffffffffff\n      and\n      sub\n        /* \"minerpunk/ERC20/MinePower.sol\":20571:20639  require(from != address(0), \"ERC20: transfer from the zero address\") */\n      tag_200\n      jumpi\n      mload(0x40)\n      0x08c379a000000000000000000000000000000000000000000000000000000000\n      dup2\n      mstore\n      0x04\n      add\n      tag_201\n      swap1\n      tag_202\n      jump\t// in\n    tag_201:\n      mload(0x40)\n      dup1\n      swap2\n      sub\n      swap1\n      revert\n    tag_200:\n        /* \"minerpunk/ERC20/MinePower.sol\":20671:20672  0 */\n      0x00\n        /* \"minerpunk/ERC20/MinePower.sol\":20657:20673  to != address(0) */\n      0xffffffffffffffffffffffffffffffffffffffff\n      and\n        /* \"minerpunk/ERC20/MinePower.sol\":20657:20659  to */\n      dup3\n        /* \"minerpunk/ERC20/MinePower.sol\":20657:20673  to != address(0) */\n      0xffffffffffffffffffffffffffffffffffffffff\n      and\n      sub\n        /* \"minerpunk/ERC20/MinePower.sol\":20649:20713  require(to != address(0), \"ERC20: transfer to the zero address\") */\n      tag_203\n      jumpi\n      mload(0x40)\n      0x08c379a000000000000000000000000000000000000000000000000000000000\n      dup2\n      mstore\n      0x04\n      add\n      tag_204\n      swap1\n      tag_205\n      jump\t// in\n    tag_204:\n      mload(0x40)\n      dup1\n      swap2\n      sub\n      swap1\n      revert\n    tag_203:\n        /* \"minerpunk/ERC20/MinePower.sol\":20743:20759  MineStatus(from) */\n      tag_206\n        /* \"minerpunk/ERC20/MinePower.sol\":20754:20758  from */\n      dup4\n        /* \"minerpunk/ERC20/MinePower.sol\":20743:20753  MineStatus */\n      tag_79\n        /* \"minerpunk/ERC20/MinePower.sol\":20743:20759  MineStatus(from) */\n      jump\t// in\n    tag_206:\n        /* \"minerpunk/ERC20/MinePower.sol\":20724:20733  _mineInfo */\n      0x07\n        /* \"minerpunk/ERC20/MinePower.sol\":20724:20739  _mineInfo[from] */\n      0x00\n        /* \"minerpunk/ERC20/MinePower.sol\":20734:20738  from */\n      dup6\n        /* \"minerpunk/ERC20/MinePower.sol\":20724:20739  _mineInfo[from] */\n      0xffffffffffffffffffffffffffffffffffffffff\n      and\n      0xffffffffffffffffffffffffffffffffffffffff\n      and\n      dup2\n      mstore\n      0x20\n      add\n      swap1\n      dup2\n      mstore\n      0x20\n      add\n      0x00\n      keccak256\n        /* \"minerpunk/ERC20/MinePower.sol\":20724:20742  _mineInfo[from][3] */\n      0x00\n        /* \"minerpunk/ERC20/MinePower.sol\":20740:20741  3 */\n      0x03\n        /* \"minerpunk/ERC20/MinePower.sol\":20724:20742  _mineInfo[from][3] */\n      dup2\n      mstore\n      0x20\n      add\n      swap1\n      dup2\n      mstore\n      0x20\n      add\n      0x00\n      keccak256\n        /* \"minerpunk/ERC20/MinePower.sol\":20724:20759  _mineInfo[from][3]=MineStatus(from) */\n      dup2\n      swap1\n      sstore\n      pop\n        /* \"minerpunk/ERC20/MinePower.sol\":20786:20800  MineStatus(to) */\n      tag_207\n        /* \"minerpunk/ERC20/MinePower.sol\":20797:20799  to */\n      dup3\n        /* \"minerpunk/ERC20/MinePower.sol\":20786:20796  MineStatus */\n      tag_79\n        /* \"minerpunk/ERC20/MinePower.sol\":20786:20800  MineStatus(to) */\n      jump\t// in\n    tag_207:\n        /* \"minerpunk/ERC20/MinePower.sol\":20769:20778  _mineInfo */\n      0x07\n        /* \"minerpunk/ERC20/MinePower.sol\":20769:20782  _mineInfo[to] */\n      0x00\n        /* \"minerpunk/ERC20/MinePower.sol\":20779:20781  to */\n      dup5\n        /* \"minerpunk/ERC20/MinePower.sol\":20769:20782  _mineInfo[to] */\n      0xffffffffffffffffffffffffffffffffffffffff\n      and\n      0xffffffffffffffffffffffffffffffffffffffff\n      and\n      dup2\n      mstore\n      0x20\n      add\n      swap1\n      dup2\n      mstore\n      0x20\n      add\n      0x00\n      keccak256\n        /* \"minerpunk/ERC20/MinePower.sol\":20769:20785  _mineInfo[to][3] */\n      0x00\n        /* \"minerpunk/ERC20/MinePower.sol\":20783:20784  3 */\n      0x03\n        /* \"minerpunk/ERC20/MinePower.sol\":20769:20785  _mineInfo[to][3] */\n      dup2\n      mstore\n      0x20\n      add\n      swap1\n      dup2\n      mstore\n      0x20\n      add\n      0x00\n      keccak256\n        /* \"minerpunk/ERC20/MinePower.sol\":20769:20800  _mineInfo[to][3]=MineStatus(to) */\n      dup2\n      swap1\n      sstore\n      pop\n        /* \"minerpunk/ERC20/MinePower.sol\":20812:20850  _beforeTokenTransfer(from, to, amount) */\n      tag_208\n        /* \"minerpunk/ERC20/MinePower.sol\":20833:20837  from */\n      dup4\n        /* \"minerpunk/ERC20/MinePower.sol\":20839:20841  to */\n      dup4\n        /* \"minerpunk/ERC20/MinePower.sol\":20843:20849  amount */\n      dup4\n        /* \"minerpunk/ERC20/MinePower.sol\":20812:20832  _beforeTokenTransfer */\n      tag_209\n        /* \"minerpunk/ERC20/MinePower.sol\":20812:20850  _beforeTokenTransfer(from, to, amount) */\n      jump\t// in\n    tag_208:\n        /* \"minerpunk/ERC20/MinePower.sol\":20861:20880  uint256 fromBalance */\n      0x00\n        /* \"minerpunk/ERC20/MinePower.sol\":20883:20892  _balances */\n      dup1\n        /* \"minerpunk/ERC20/MinePower.sol\":20883:20898  _balances[from] */\n      0x00\n        /* \"minerpunk/ERC20/MinePower.sol\":20893:20897  from */\n      dup6\n        /* \"minerpunk/ERC20/MinePower.sol\":20883:20898  _balances[from] */\n      0xffffffffffffffffffffffffffffffffffffffff\n      and\n      0xffffffffffffffffffffffffffffffffffffffff\n      and\n      dup2\n      mstore\n      0x20\n      add\n      swap1\n      dup2\n      mstore\n      0x20\n      add\n      0x00\n      keccak256\n      sload\n        /* \"minerpunk/ERC20/MinePower.sol\":20861:20898  uint256 fromBalance = _balances[from] */\n      swap1\n      pop\n        /* \"minerpunk/ERC20/MinePower.sol\":20931:20937  amount */\n      dup2\n        /* \"minerpunk/ERC20/MinePower.sol\":20916:20927  fromBalance */\n      dup2\n        /* \"minerpunk/ERC20/MinePower.sol\":20916:20937  fromBalance >= amount */\n      lt\n      iszero\n        /* \"minerpunk/ERC20/MinePower.sol\":20908:20980  require(fromBalance >= amount, \"ERC20: transfer amount exceeds balance\") */\n      tag_210\n      jumpi\n      mload(0x40)\n      0x08c379a000000000000000000000000000000000000000000000000000000000\n      dup2\n      mstore\n      0x04\n      add\n      tag_211\n      swap1\n      tag_212\n      jump\t// in\n    tag_211:\n      mload(0x40)\n      dup1\n      swap2\n      sub\n      swap1\n      revert\n    tag_210:\n        /* \"minerpunk/ERC20/MinePower.sol\":21046:21052  amount */\n      dup2\n        /* \"minerpunk/ERC20/MinePower.sol\":21032:21043  fromBalance */\n      dup2\n        /* \"minerpunk/ERC20/MinePower.sol\":21032:21052  fromBalance - amount */\n      sub\n        /* \"minerpunk/ERC20/MinePower.sol\":21014:21023  _balances */\n      0x00\n        /* \"minerpunk/ERC20/MinePower.sol\":21014:21029  _balances[from] */\n      dup1\n        /* \"minerpunk/ERC20/MinePower.sol\":21024:21028  from */\n      dup7\n        /* \"minerpunk/ERC20/MinePower.sol\":21014:21029  _balances[from] */\n      0xffffffffffffffffffffffffffffffffffffffff\n      and\n      0xffffffffffffffffffffffffffffffffffffffff\n      and\n      dup2\n      mstore\n      0x20\n      add\n      swap1\n      dup2\n      mstore\n      0x20\n      add\n      0x00\n      keccak256\n        /* \"minerpunk/ERC20/MinePower.sol\":21014:21052  _balances[from] = fromBalance - amount */\n      dup2\n      swap1\n      sstore\n      pop\n        /* \"minerpunk/ERC20/MinePower.sol\":21089:21095  amount */\n      dup2\n        /* \"minerpunk/ERC20/MinePower.sol\":21072:21081  _balances */\n      0x00\n        /* \"minerpunk/ERC20/MinePower.sol\":21072:21085  _balances[to] */\n      dup1\n        /* \"minerpunk/ERC20/MinePower.sol\":21082:21084  to */\n      dup6\n        /* \"minerpunk/ERC20/MinePower.sol\":21072:21085  _balances[to] */\n      0xffffffffffffffffffffffffffffffffffffffff\n      and\n      0xffffffffffffffffffffffffffffffffffffffff\n      and\n      dup2\n      mstore\n      0x20\n      add\n      swap1\n      dup2\n      mstore\n      0x20\n      add\n      0x00\n      keccak256\n      0x00\n        /* \"minerpunk/ERC20/MinePower.sol\":21072:21095  _balances[to] += amount */\n      dup3\n      dup3\n      sload\n      tag_213\n      swap2\n      swap1\n      tag_123\n      jump\t// in\n    tag_213:\n      swap3\n      pop\n      pop\n      dup2\n      swap1\n      sstore\n      pop\n        /* \"minerpunk/ERC20/MinePower.sol\":21126:21128  to */\n      dup3\n        /* \"minerpunk/ERC20/MinePower.sol\":21111:21137  Transfer(from, to, amount) */\n      0xffffffffffffffffffffffffffffffffffffffff\n      and\n        /* \"minerpunk/ERC20/MinePower.sol\":21120:21124  from */\n      dup5\n        /* \"minerpunk/ERC20/MinePower.sol\":21111:21137  Transfer(from, to, amount) */\n      0xffffffffffffffffffffffffffffffffffffffff\n      and\n      0xddf252ad1be2c89b69c2b068fc378daa952ba7f163c4a11628f55a4df523b3ef\n        /* \"minerpunk/ERC20/MinePower.sol\":21130:21136  amount */\n      dup5\n        /* \"minerpunk/ERC20/MinePower.sol\":21111:21137  Transfer(from, to, amount) */\n      mload(0x40)\n      tag_214\n      swap2\n      swap1\n      tag_36\n      jump\t// in\n    tag_214:\n      mload(0x40)\n      dup1\n      swap2\n      sub\n      swap1\n      log3\n        /* \"minerpunk/ERC20/MinePower.sol\":21148:21185  _afterTokenTransfer(from, to, amount) */\n      tag_215\n        /* \"minerpunk/ERC20/MinePower.sol\":21168:21172  from */\n      dup5\n        /* \"minerpunk/ERC20/MinePower.sol\":21174:21176  to */\n      dup5\n        /* \"minerpunk/ERC20/MinePower.sol\":21178:21184  amount */\n      dup5\n        /* \"minerpunk/ERC20/MinePower.sol\":21148:21167  _afterTokenTransfer */\n      tag_216\n        /* \"minerpunk/ERC20/MinePower.sol\":21148:21185  _afterTokenTransfer(from, to, amount) */\n      jump\t// in\n    tag_215:\n        /* \"minerpunk/ERC20/MinePower.sol\":21223:21235  block.number */\n      number\n        /* \"minerpunk/ERC20/MinePower.sol\":21204:21213  _mineInfo */\n      0x07\n        /* \"minerpunk/ERC20/MinePower.sol\":21204:21219  _mineInfo[from] */\n      0x00\n        /* \"minerpunk/ERC20/MinePower.sol\":21214:21218  from */\n      dup7\n        /* \"minerpunk/ERC20/MinePower.sol\":21204:21219  _mineInfo[from] */\n      0xffffffffffffffffffffffffffffffffffffffff\n      and\n      0xffffffffffffffffffffffffffffffffffffffff\n      and\n      dup2\n      mstore\n      0x20\n      add\n      swap1\n      dup2\n      mstore\n      0x20\n      add\n      0x00\n      keccak256\n        /* \"minerpunk/ERC20/MinePower.sol\":21204:21222  _mineInfo[from][1] */\n      0x00\n        /* \"minerpunk/ERC20/MinePower.sol\":21220:21221  1 */\n      0x01\n        /* \"minerpunk/ERC20/MinePower.sol\":21204:21222  _mineInfo[from][1] */\n      dup2\n      mstore\n      0x20\n      add\n      swap1\n      dup2\n      mstore\n      0x20\n      add\n      0x00\n      keccak256\n        /* \"minerpunk/ERC20/MinePower.sol\":21204:21235  _mineInfo[from][1]=block.number */\n      dup2\n      swap1\n      sstore\n      pop\n        /* \"minerpunk/ERC20/MinePower.sol\":21262:21274  block.number */\n      number\n        /* \"minerpunk/ERC20/MinePower.sol\":21245:21254  _mineInfo */\n      0x07\n        /* \"minerpunk/ERC20/MinePower.sol\":21245:21258  _mineInfo[to] */\n      0x00\n        /* \"minerpunk/ERC20/MinePower.sol\":21255:21257  to */\n      dup6\n        /* \"minerpunk/ERC20/MinePower.sol\":21245:21258  _mineInfo[to] */\n      0xffffffffffffffffffffffffffffffffffffffff\n      and\n      0xffffffffffffffffffffffffffffffffffffffff\n      and\n      dup2\n      mstore\n      0x20\n      add\n      swap1\n      dup2\n      mstore\n      0x20\n      add\n      0x00\n      keccak256\n        /* \"minerpunk/ERC20/MinePower.sol\":21245:21261  _mineInfo[to][1] */\n      0x00\n        /* \"minerpunk/ERC20/MinePower.sol\":21259:21260  1 */\n      0x01\n        /* \"minerpunk/ERC20/MinePower.sol\":21245:21261  _mineInfo[to][1] */\n      dup2\n      mstore\n      0x20\n      add\n      swap1\n      dup2\n      mstore\n      0x20\n      add\n      0x00\n      keccak256\n        /* \"minerpunk/ERC20/MinePower.sol\":21245:21274  _mineInfo[to][1]=block.number */\n      dup2\n      swap1\n      sstore\n      pop\n        /* \"minerpunk/ERC20/MinePower.sol\":20561:21281  {... */\n      pop\n        /* \"minerpunk/ERC20/MinePower.sol\":20453:21281  function _transfer(... */\n      pop\n      pop\n      pop\n      jump\t// out\n        /* \"minerpunk/ERC20/MinePower.sol\":22396:23109  function _burn(address account, uint256 amount) internal virtual {... */\n    tag_127:\n        /* \"minerpunk/ERC20/MinePower.sol\":22498:22499  0 */\n      0x00\n        /* \"minerpunk/ERC20/MinePower.sol\":22479:22500  account != address(0) */\n      0xffffffffffffffffffffffffffffffffffffffff\n      and\n        /* \"minerpunk/ERC20/MinePower.sol\":22479:22486  account */\n      dup3\n        /* \"minerpunk/ERC20/MinePower.sol\":22479:22500  account != address(0) */\n      0xffffffffffffffffffffffffffffffffffffffff\n      and\n      sub\n        /* \"minerpunk/ERC20/MinePower.sol\":22471:22538  require(account != address(0), \"ERC20: burn from the zero address\") */\n      tag_218\n      jumpi\n      mload(0x40)\n      0x08c379a000000000000000000000000000000000000000000000000000000000\n      dup2\n      mstore\n      0x04\n      add\n      tag_219\n      swap1\n      tag_220\n      jump\t// in\n    tag_219:\n      mload(0x40)\n      dup1\n      swap2\n      sub\n      swap1\n      revert\n    tag_218:\n        /* \"minerpunk/ERC20/MinePower.sol\":22571:22590  MineStatus(account) */\n      tag_221\n        /* \"minerpunk/ERC20/MinePower.sol\":22582:22589  account */\n      dup3\n        /* \"minerpunk/ERC20/MinePower.sol\":22571:22581  MineStatus */\n      tag_79\n        /* \"minerpunk/ERC20/MinePower.sol\":22571:22590  MineStatus(account) */\n      jump\t// in\n    tag_221:\n        /* \"minerpunk/ERC20/MinePower.sol\":22548:22557  _mineInfo */\n      0x07\n        /* \"minerpunk/ERC20/MinePower.sol\":22548:22566  _mineInfo[account] */\n      0x00\n        /* \"minerpunk/ERC20/MinePower.sol\":22558:22565  account */\n      dup5\n        /* \"minerpunk/ERC20/MinePower.sol\":22548:22566  _mineInfo[account] */\n      0xffffffffffffffffffffffffffffffffffffffff\n      and\n      0xffffffffffffffffffffffffffffffffffffffff\n      and\n      dup2\n      mstore\n      0x20\n      add\n      swap1\n      dup2\n      mstore\n      0x20\n      add\n      0x00\n      keccak256\n        /* \"minerpunk/ERC20/MinePower.sol\":22548:22569  _mineInfo[account][3] */\n      0x00\n        /* \"minerpunk/ERC20/MinePower.sol\":22567:22568  3 */\n      0x03\n        /* \"minerpunk/ERC20/MinePower.sol\":22548:22569  _mineInfo[account][3] */\n      dup2\n      mstore\n      0x20\n      add\n      swap1\n      dup2\n      mstore\n      0x20\n      add\n      0x00\n      keccak256\n        /* \"minerpunk/ERC20/MinePower.sol\":22548:22590  _mineInfo[account][3]= MineStatus(account) */\n      dup2\n      swap1\n      sstore\n      pop\n        /* \"minerpunk/ERC20/MinePower.sol\":22624:22673  _beforeTokenTransfer(account, address(0), amount) */\n      tag_222\n        /* \"minerpunk/ERC20/MinePower.sol\":22645:22652  account */\n      dup3\n        /* \"minerpunk/ERC20/MinePower.sol\":22662:22663  0 */\n      0x00\n        /* \"minerpunk/ERC20/MinePower.sol\":22666:22672  amount */\n      dup4\n        /* \"minerpunk/ERC20/MinePower.sol\":22624:22644  _beforeTokenTransfer */\n      tag_209\n        /* \"minerpunk/ERC20/MinePower.sol\":22624:22673  _beforeTokenTransfer(account, address(0), amount) */\n      jump\t// in\n    tag_222:\n        /* \"minerpunk/ERC20/MinePower.sol\":22684:22706  uint256 accountBalance */\n      0x00\n        /* \"minerpunk/ERC20/MinePower.sol\":22709:22718  _balances */\n      dup1\n        /* \"minerpunk/ERC20/MinePower.sol\":22709:22727  _balances[account] */\n      0x00\n        /* \"minerpunk/ERC20/MinePower.sol\":22719:22726  account */\n      dup5\n        /* \"minerpunk/ERC20/MinePower.sol\":22709:22727  _balances[account] */\n      0xffffffffffffffffffffffffffffffffffffffff\n      and\n      0xffffffffffffffffffffffffffffffffffffffff\n      and\n      dup2\n      mstore\n      0x20\n      add\n      swap1\n      dup2\n      mstore\n      0x20\n      add\n      0x00\n      keccak256\n      sload\n        /* \"minerpunk/ERC20/MinePower.sol\":22684:22727  uint256 accountBalance = _balances[account] */\n      swap1\n      pop\n        /* \"minerpunk/ERC20/MinePower.sol\":22763:22769  amount */\n      dup2\n        /* \"minerpunk/ERC20/MinePower.sol\":22745:22759  accountBalance */\n      dup2\n        /* \"minerpunk/ERC20/MinePower.sol\":22745:22769  accountBalance >= amount */\n      lt\n      iszero\n        /* \"minerpunk/ERC20/MinePower.sol\":22737:22808  require(accountBalance >= amount, \"ERC20: burn amount exceeds balance\") */\n      tag_223\n      jumpi\n      mload(0x40)\n      0x08c379a000000000000000000000000000000000000000000000000000000000\n      dup2\n      mstore\n      0x04\n      add\n      tag_224\n      swap1\n      tag_225\n      jump\t// in\n    tag_224:\n      mload(0x40)\n      dup1\n      swap2\n      sub\n      swap1\n      revert\n    tag_223:\n        /* \"minerpunk/ERC20/MinePower.sol\":22880:22886  amount */\n      dup2\n        /* \"minerpunk/ERC20/MinePower.sol\":22863:22877  accountBalance */\n      dup2\n        /* \"minerpunk/ERC20/MinePower.sol\":22863:22886  accountBalance - amount */\n      sub\n        /* \"minerpunk/ERC20/MinePower.sol\":22842:22851  _balances */\n      0x00\n        /* \"minerpunk/ERC20/MinePower.sol\":22842:22860  _balances[account] */\n      dup1\n        /* \"minerpunk/ERC20/MinePower.sol\":22852:22859  account */\n      dup6\n        /* \"minerpunk/ERC20/MinePower.sol\":22842:22860  _balances[account] */\n      0xffffffffffffffffffffffffffffffffffffffff\n      and\n      0xffffffffffffffffffffffffffffffffffffffff\n      and\n      dup2\n      mstore\n      0x20\n      add\n      swap1\n      dup2\n      mstore\n      0x20\n      add\n      0x00\n      keccak256\n        /* \"minerpunk/ERC20/MinePower.sol\":22842:22886  _balances[account] = accountBalance - amount */\n      dup2\n      swap1\n      sstore\n      pop\n        /* \"minerpunk/ERC20/MinePower.sol\":22922:22928  amount */\n      dup2\n        /* \"minerpunk/ERC20/MinePower.sol\":22906:22918  _totalSupply */\n      0x02\n      0x00\n        /* \"minerpunk/ERC20/MinePower.sol\":22906:22928  _totalSupply -= amount */\n      dup3\n      dup3\n      sload\n      tag_226\n      swap2\n      swap1\n      tag_174\n      jump\t// in\n    tag_226:\n      swap3\n      pop\n      pop\n      dup2\n      swap1\n      sstore\n      pop\n        /* \"minerpunk/ERC20/MinePower.sol\":22970:22971  0 */\n      0x00\n        /* \"minerpunk/ERC20/MinePower.sol\":22944:22981  Transfer(account, address(0), amount) */\n      0xffffffffffffffffffffffffffffffffffffffff\n      and\n        /* \"minerpunk/ERC20/MinePower.sol\":22953:22960  account */\n      dup4\n        /* \"minerpunk/ERC20/MinePower.sol\":22944:22981  Transfer(account, address(0), amount) */\n      0xffffffffffffffffffffffffffffffffffffffff\n      and\n      0xddf252ad1be2c89b69c2b068fc378daa952ba7f163c4a11628f55a4df523b3ef\n        /* \"minerpunk/ERC20/MinePower.sol\":22974:22980  amount */\n      dup5\n        /* \"minerpunk/ERC20/MinePower.sol\":22944:22981  Transfer(account, address(0), amount) */\n      mload(0x40)\n      tag_227\n      swap2\n      swap1\n      tag_36\n      jump\t// in\n    tag_227:\n      mload(0x40)\n      dup1\n      swap2\n      sub\n      swap1\n      log3\n        /* \"minerpunk/ERC20/MinePower.sol\":22992:23040  _afterTokenTransfer(account, address(0), amount) */\n      tag_228\n        /* \"minerpunk/ERC20/MinePower.sol\":23012:23019  account */\n      dup4\n        /* \"minerpunk/ERC20/MinePower.sol\":23029:23030  0 */\n      0x00\n        /* \"minerpunk/ERC20/MinePower.sol\":23033:23039  amount */\n      dup5\n        /* \"minerpunk/ERC20/MinePower.sol\":22992:23011  _afterTokenTransfer */\n      tag_216\n        /* \"minerpunk/ERC20/MinePower.sol\":22992:23040  _afterTokenTransfer(account, address(0), amount) */\n      jump\t// in\n    tag_228:\n        /* \"minerpunk/ERC20/MinePower.sol\":23074:23086  block.number */\n      number\n        /* \"minerpunk/ERC20/MinePower.sol\":23051:23060  _mineInfo */\n      0x07\n        /* \"minerpunk/ERC20/MinePower.sol\":23051:23069  _mineInfo[account] */\n      0x00\n        /* \"minerpunk/ERC20/MinePower.sol\":23061:23068  account */\n      dup6\n        /* \"minerpunk/ERC20/MinePower.sol\":23051:23069  _mineInfo[account] */\n      0xffffffffffffffffffffffffffffffffffffffff\n      and\n      0xffffffffffffffffffffffffffffffffffffffff\n      and\n      dup2\n      mstore\n      0x20\n      add\n      swap1\n      dup2\n      mstore\n      0x20\n      add\n      0x00\n      keccak256\n        /* \"minerpunk/ERC20/MinePower.sol\":23051:23072  _mineInfo[account][1] */\n      0x00\n        /* \"minerpunk/ERC20/MinePower.sol\":23070:23071  1 */\n      0x01\n        /* \"minerpunk/ERC20/MinePower.sol\":23051:23072  _mineInfo[account][1] */\n      dup2\n      mstore\n      0x20\n      add\n      swap1\n      dup2\n      mstore\n      0x20\n      add\n      0x00\n      keccak256\n        /* \"minerpunk/ERC20/MinePower.sol\":23051:23086  _mineInfo[account][1]= block.number */\n      dup2\n      swap1\n      sstore\n      pop\n        /* \"minerpunk/ERC20/MinePower.sol\":22461:23109  {... */\n      pop\n        /* \"minerpunk/ERC20/MinePower.sol\":22396:23109  function _burn(address account, uint256 amount) internal virtual {... */\n      pop\n      pop\n      jump\t// out\n        /* \"minerpunk/ERC20/MinePower.sol\":25208:25329  function _beforeTokenTransfer(... */\n    tag_209:\n      pop\n      pop\n      pop\n      jump\t// out\n        /* \"minerpunk/ERC20/MinePower.sol\":25917:26037  function _afterTokenTransfer(... */\n    tag_216:\n      pop\n      pop\n      pop\n      jump\t// out\n        /* \"#utility.yul\":7:106   */\n    tag_231:\n        /* \"#utility.yul\":59:65   */\n      0x00\n        /* \"#utility.yul\":93:98   */\n      dup2\n        /* \"#utility.yul\":87:99   */\n      mload\n        /* \"#utility.yul\":77:99   */\n      swap1\n      pop\n        /* \"#utility.yul\":7:106   */\n      swap2\n      swap1\n      pop\n      jump\t// out\n        /* \"#utility.yul\":112:281   */\n    tag_232:\n        /* \"#utility.yul\":196:207   */\n      0x00\n        /* \"#utility.yul\":230:236   */\n      dup3\n        /* \"#utility.yul\":225:228   */\n      dup3\n        /* \"#utility.yul\":218:237   */\n      mstore\n        /* \"#utility.yul\":270:274   */\n      0x20\n        /* \"#utility.yul\":265:268   */\n      dup3\n        /* \"#utility.yul\":261:275   */\n      add\n        /* \"#utility.yul\":246:275   */\n      swap1\n      pop\n        /* \"#utility.yul\":112:281   */\n      swap3\n      swap2\n      pop\n      pop\n      jump\t// out\n        /* \"#utility.yul\":287:533   */\n    tag_233:\n        /* \"#utility.yul\":368:369   */\n      0x00\n        /* \"#utility.yul\":378:491   */\n    tag_276:\n        /* \"#utility.yul\":392:398   */\n      dup4\n        /* \"#utility.yul\":389:390   */\n      dup2\n        /* \"#utility.yul\":386:399   */\n      lt\n        /* \"#utility.yul\":378:491   */\n      iszero\n      tag_278\n      jumpi\n        /* \"#utility.yul\":477:478   */\n      dup1\n        /* \"#utility.yul\":472:475   */\n      dup3\n        /* \"#utility.yul\":468:479   */\n      add\n        /* \"#utility.yul\":462:480   */\n      mload\n        /* \"#utility.yul\":458:459   */\n      dup2\n        /* \"#utility.yul\":453:456   */\n      dup5\n        /* \"#utility.yul\":449:460   */\n      add\n        /* \"#utility.yul\":442:481   */\n      mstore\n        /* \"#utility.yul\":414:416   */\n      0x20\n        /* \"#utility.yul\":411:412   */\n      dup2\n        /* \"#utility.yul\":407:417   */\n      add\n        /* \"#utility.yul\":402:417   */\n      swap1\n      pop\n        /* \"#utility.yul\":378:491   */\n      jump(tag_276)\n    tag_278:\n        /* \"#utility.yul\":525:526   */\n      0x00\n        /* \"#utility.yul\":516:522   */\n      dup5\n        /* \"#utility.yul\":511:514   */\n      dup5\n        /* \"#utility.yul\":507:523   */\n      add\n        /* \"#utility.yul\":500:527   */\n      mstore\n        /* \"#utility.yul\":349:533   */\n      pop\n        /* \"#utility.yul\":287:533   */\n      pop\n      pop\n      pop\n      jump\t// out\n        /* \"#utility.yul\":539:641   */\n    tag_234:\n        /* \"#utility.yul\":580:586   */\n      0x00\n        /* \"#utility.yul\":631:633   */\n      0x1f\n        /* \"#utility.yul\":627:634   */\n      not\n        /* \"#utility.yul\":622:624   */\n      0x1f\n        /* \"#utility.yul\":615:620   */\n      dup4\n        /* \"#utility.yul\":611:625   */\n      add\n        /* \"#utility.yul\":607:635   */\n      and\n        /* \"#utility.yul\":597:635   */\n      swap1\n      pop\n        /* \"#utility.yul\":539:641   */\n      swap2\n      swap1\n      pop\n      jump\t// out\n        /* \"#utility.yul\":647:1024   */\n    tag_235:\n        /* \"#utility.yul\":735:738   */\n      0x00\n        /* \"#utility.yul\":763:802   */\n      tag_281\n        /* \"#utility.yul\":796:801   */\n      dup3\n        /* \"#utility.yul\":763:802   */\n      tag_231\n      jump\t// in\n    tag_281:\n        /* \"#utility.yul\":818:889   */\n      tag_282\n        /* \"#utility.yul\":882:888   */\n      dup2\n        /* \"#utility.yul\":877:880   */\n      dup6\n        /* \"#utility.yul\":818:889   */\n      tag_232\n      jump\t// in\n    tag_282:\n        /* \"#utility.yul\":811:889   */\n      swap4\n      pop\n        /* \"#utility.yul\":898:963   */\n      tag_283\n        /* \"#utility.yul\":956:962   */\n      dup2\n        /* \"#utility.yul\":951:954   */\n      dup6\n        /* \"#utility.yul\":944:948   */\n      0x20\n        /* \"#utility.yul\":937:942   */\n      dup7\n        /* \"#utility.yul\":933:949   */\n      add\n        /* \"#utility.yul\":898:963   */\n      tag_233\n      jump\t// in\n    tag_283:\n        /* \"#utility.yul\":988:1017   */\n      tag_284\n        /* \"#utility.yul\":1010:1016   */\n      dup2\n        /* \"#utility.yul\":988:1017   */\n      tag_234\n      jump\t// in\n    tag_284:\n        /* \"#utility.yul\":983:986   */\n      dup5\n        /* \"#utility.yul\":979:1018   */\n      add\n        /* \"#utility.yul\":972:1018   */\n      swap2\n      pop\n        /* \"#utility.yul\":739:1024   */\n      pop\n        /* \"#utility.yul\":647:1024   */\n      swap3\n      swap2\n      pop\n      pop\n      jump\t// out\n        /* \"#utility.yul\":1030:1343   */\n    tag_26:\n        /* \"#utility.yul\":1143:1147   */\n      0x00\n        /* \"#utility.yul\":1181:1183   */\n      0x20\n        /* \"#utility.yul\":1170:1179   */\n      dup3\n        /* \"#utility.yul\":1166:1184   */\n      add\n        /* \"#utility.yul\":1158:1184   */\n      swap1\n      pop\n        /* \"#utility.yul\":1230:1239   */\n      dup2\n        /* \"#utility.yul\":1224:1228   */\n      dup2\n        /* \"#utility.yul\":1220:1240   */\n      sub\n        /* \"#utility.yul\":1216:1217   */\n      0x00\n        /* \"#utility.yul\":1205:1214   */\n      dup4\n        /* \"#utility.yul\":1201:1218   */\n      add\n        /* \"#utility.yul\":1194:1241   */\n      mstore\n        /* \"#utility.yul\":1258:1336   */\n      tag_286\n        /* \"#utility.yul\":1331:1335   */\n      dup2\n        /* \"#utility.yul\":1322:1328   */\n      dup5\n        /* \"#utility.yul\":1258:1336   */\n      tag_235\n      jump\t// in\n    tag_286:\n        /* \"#utility.yul\":1250:1336   */\n      swap1\n      pop\n        /* \"#utility.yul\":1030:1343   */\n      swap3\n      swap2\n      pop\n      pop\n      jump\t// out\n        /* \"#utility.yul\":1430:1547   */\n    tag_237:\n        /* \"#utility.yul\":1539:1540   */\n      0x00\n        /* \"#utility.yul\":1536:1537   */\n      dup1\n        /* \"#utility.yul\":1529:1541   */\n      revert\n        /* \"#utility.yul\":1676:1802   */\n    tag_239:\n        /* \"#utility.yul\":1713:1720   */\n      0x00\n        /* \"#utility.yul\":1753:1795   */\n      0xffffffffffffffffffffffffffffffffffffffff\n        /* \"#utility.yul\":1746:1751   */\n      dup3\n        /* \"#utility.yul\":1742:1796   */\n      and\n        /* \"#utility.yul\":1731:1796   */\n      swap1\n      pop\n        /* \"#utility.yul\":1676:1802   */\n      swap2\n      swap1\n      pop\n      jump\t// out\n        /* \"#utility.yul\":1808:1904   */\n    tag_240:\n        /* \"#utility.yul\":1845:1852   */\n      0x00\n        /* \"#utility.yul\":1874:1898   */\n      tag_292\n        /* \"#utility.yul\":1892:1897   */\n      dup3\n        /* \"#utility.yul\":1874:1898   */\n      tag_239\n      jump\t// in\n    tag_292:\n        /* \"#utility.yul\":1863:1898   */\n      swap1\n      pop\n        /* \"#utility.yul\":1808:1904   */\n      swap2\n      swap1\n      pop\n      jump\t// out\n        /* \"#utility.yul\":1910:2032   */\n    tag_241:\n        /* \"#utility.yul\":1983:2007   */\n      tag_294\n        /* \"#utility.yul\":2001:2006   */\n      dup2\n        /* \"#utility.yul\":1983:2007   */\n      tag_240\n      jump\t// in\n    tag_294:\n        /* \"#utility.yul\":1976:1981   */\n      dup2\n        /* \"#utility.yul\":1973:2008   */\n      eq\n        /* \"#utility.yul\":1963:2026   */\n      tag_295\n      jumpi\n        /* \"#utility.yul\":2022:2023   */\n      0x00\n        /* \"#utility.yul\":2019:2020   */\n      dup1\n        /* \"#utility.yul\":2012:2024   */\n      revert\n        /* \"#utility.yul\":1963:2026   */\n    tag_295:\n        /* \"#utility.yul\":1910:2032   */\n      pop\n      jump\t// out\n        /* \"#utility.yul\":2038:2177   */\n    tag_242:\n        /* \"#utility.yul\":2084:2089   */\n      0x00\n        /* \"#utility.yul\":2122:2128   */\n      dup2\n        /* \"#utility.yul\":2109:2129   */\n      calldataload\n        /* \"#utility.yul\":2100:2129   */\n      swap1\n      pop\n        /* \"#utility.yul\":2138:2171   */\n      tag_297\n        /* \"#utility.yul\":2165:2170   */\n      dup2\n        /* \"#utility.yul\":2138:2171   */\n      tag_241\n      jump\t// in\n    tag_297:\n        /* \"#utility.yul\":2038:2177   */\n      swap3\n      swap2\n      pop\n      pop\n      jump\t// out\n        /* \"#utility.yul\":2183:2260   */\n    tag_243:\n        /* \"#utility.yul\":2220:2227   */\n      0x00\n        /* \"#utility.yul\":2249:2254   */\n      dup2\n        /* \"#utility.yul\":2238:2254   */\n      swap1\n      pop\n        /* \"#utility.yul\":2183:2260   */\n      swap2\n      swap1\n      pop\n      jump\t// out\n        /* \"#utility.yul\":2266:2388   */\n    tag_244:\n        /* \"#utility.yul\":2339:2363   */\n      tag_300\n        /* \"#utility.yul\":2357:2362   */\n      dup2\n        /* \"#utility.yul\":2339:2363   */\n      tag_243\n      jump\t// in\n    tag_300:\n        /* \"#utility.yul\":2332:2337   */\n      dup2\n        /* \"#utility.yul\":2329:2364   */\n      eq\n        /* \"#utility.yul\":2319:2382   */\n      tag_301\n      jumpi\n        /* \"#utility.yul\":2378:2379   */\n      0x00\n        /* \"#utility.yul\":2375:2376   */\n      dup1\n        /* \"#utility.yul\":2368:2380   */\n      revert\n        /* \"#utility.yul\":2319:2382   */\n    tag_301:\n        /* \"#utility.yul\":2266:2388   */\n      pop\n      jump\t// out\n        /* \"#utility.yul\":2394:2533   */\n    tag_245:\n        /* \"#utility.yul\":2440:2445   */\n      0x00\n        /* \"#utility.yul\":2478:2484   */\n      dup2\n        /* \"#utility.yul\":2465:2485   */\n      calldataload\n        /* \"#utility.yul\":2456:2485   */\n      swap1\n      pop\n        /* \"#utility.yul\":2494:2527   */\n      tag_303\n        /* \"#utility.yul\":2521:2526   */\n      dup2\n        /* \"#utility.yul\":2494:2527   */\n      tag_244\n      jump\t// in\n    tag_303:\n        /* \"#utility.yul\":2394:2533   */\n      swap3\n      swap2\n      pop\n      pop\n      jump\t// out\n        /* \"#utility.yul\":2539:3013   */\n    tag_29:\n        /* \"#utility.yul\":2607:2613   */\n      0x00\n        /* \"#utility.yul\":2615:2621   */\n      dup1\n        /* \"#utility.yul\":2664:2666   */\n      0x40\n        /* \"#utility.yul\":2652:2661   */\n      dup4\n        /* \"#utility.yul\":2643:2650   */\n      dup6\n        /* \"#utility.yul\":2639:2662   */\n      sub\n        /* \"#utility.yul\":2635:2667   */\n      slt\n        /* \"#utility.yul\":2632:2751   */\n      iszero\n      tag_305\n      jumpi\n        /* \"#utility.yul\":2670:2749   */\n      tag_306\n      tag_237\n      jump\t// in\n    tag_306:\n        /* \"#utility.yul\":2632:2751   */\n    tag_305:\n        /* \"#utility.yul\":2790:2791   */\n      0x00\n        /* \"#utility.yul\":2815:2868   */\n      tag_307\n        /* \"#utility.yul\":2860:2867   */\n      dup6\n        /* \"#utility.yul\":2851:2857   */\n      dup3\n        /* \"#utility.yul\":2840:2849   */\n      dup7\n        /* \"#utility.yul\":2836:2858   */\n      add\n        /* \"#utility.yul\":2815:2868   */\n      tag_242\n      jump\t// in\n    tag_307:\n        /* \"#utility.yul\":2805:2868   */\n      swap3\n      pop\n        /* \"#utility.yul\":2761:2878   */\n      pop\n        /* \"#utility.yul\":2917:2919   */\n      0x20\n        /* \"#utility.yul\":2943:2996   */\n      tag_308\n        /* \"#utility.yul\":2988:2995   */\n      dup6\n        /* \"#utility.yul\":2979:2985   */\n      dup3\n        /* \"#utility.yul\":2968:2977   */\n      dup7\n        /* \"#utility.yul\":2964:2986   */\n      add\n        /* \"#utility.yul\":2943:2996   */\n      tag_245\n      jump\t// in\n    tag_308:\n        /* \"#utility.yul\":2933:2996   */\n      swap2\n      pop\n        /* \"#utility.yul\":2888:3006   */\n      pop\n        /* \"#utility.yul\":2539:3013   */\n      swap3\n      pop\n      swap3\n      swap1\n      pop\n      jump\t// out\n        /* \"#utility.yul\":3019:3109   */\n    tag_246:\n        /* \"#utility.yul\":3053:3060   */\n      0x00\n        /* \"#utility.yul\":3096:3101   */\n      dup2\n        /* \"#utility.yul\":3089:3102   */\n      iszero\n        /* \"#utility.yul\":3082:3103   */\n      iszero\n        /* \"#utility.yul\":3071:3103   */\n      swap1\n      pop\n        /* \"#utility.yul\":3019:3109   */\n      swap2\n      swap1\n      pop\n      jump\t// out\n        /* \"#utility.yul\":3115:3224   */\n    tag_247:\n        /* \"#utility.yul\":3196:3217   */\n      tag_311\n        /* \"#utility.yul\":3211:3216   */\n      dup2\n        /* \"#utility.yul\":3196:3217   */\n      tag_246\n      jump\t// in\n    tag_311:\n        /* \"#utility.yul\":3191:3194   */\n      dup3\n        /* \"#utility.yul\":3184:3218   */\n      mstore\n        /* \"#utility.yul\":3115:3224   */\n      pop\n      pop\n      jump\t// out\n        /* \"#utility.yul\":3230:3440   */\n    tag_32:\n        /* \"#utility.yul\":3317:3321   */\n      0x00\n        /* \"#utility.yul\":3355:3357   */\n      0x20\n        /* \"#utility.yul\":3344:3353   */\n      dup3\n        /* \"#utility.yul\":3340:3358   */\n      add\n        /* \"#utility.yul\":3332:3358   */\n      swap1\n      pop\n        /* \"#utility.yul\":3368:3433   */\n      tag_313\n        /* \"#utility.yul\":3430:3431   */\n      0x00\n        /* \"#utility.yul\":3419:3428   */\n      dup4\n        /* \"#utility.yul\":3415:3432   */\n      add\n        /* \"#utility.yul\":3406:3412   */\n      dup5\n        /* \"#utility.yul\":3368:3433   */\n      tag_247\n      jump\t// in\n    tag_313:\n        /* \"#utility.yul\":3230:3440   */\n      swap3\n      swap2\n      pop\n      pop\n      jump\t// out\n        /* \"#utility.yul\":3446:3564   */\n    tag_248:\n        /* \"#utility.yul\":3533:3557   */\n      tag_315\n        /* \"#utility.yul\":3551:3556   */\n      dup2\n        /* \"#utility.yul\":3533:3557   */\n      tag_243\n      jump\t// in\n    tag_315:\n        /* \"#utility.yul\":3528:3531   */\n      dup3\n        /* \"#utility.yul\":3521:3558   */\n      mstore\n        /* \"#utility.yul\":3446:3564   */\n      pop\n      pop\n      jump\t// out\n        /* \"#utility.yul\":3570:3792   */\n    tag_36:\n        /* \"#utility.yul\":3663:3667   */\n      0x00\n        /* \"#utility.yul\":3701:3703   */\n      0x20\n        /* \"#utility.yul\":3690:3699   */\n      dup3\n        /* \"#utility.yul\":3686:3704   */\n      add\n        /* \"#utility.yul\":3678:3704   */\n      swap1\n      pop\n        /* \"#utility.yul\":3714:3785   */\n      tag_317\n        /* \"#utility.yul\":3782:3783   */\n      0x00\n        /* \"#utility.yul\":3771:3780   */\n      dup4\n        /* \"#utility.yul\":3767:3784   */\n      add\n        /* \"#utility.yul\":3758:3764   */\n      dup5\n        /* \"#utility.yul\":3714:3785   */\n      tag_248\n      jump\t// in\n    tag_317:\n        /* \"#utility.yul\":3570:3792   */\n      swap3\n      swap2\n      pop\n      pop\n      jump\t// out\n        /* \"#utility.yul\":3798:4417   */\n    tag_39:\n        /* \"#utility.yul\":3875:3881   */\n      0x00\n        /* \"#utility.yul\":3883:3889   */\n      dup1\n        /* \"#utility.yul\":3891:3897   */\n      0x00\n        /* \"#utility.yul\":3940:3942   */\n      0x60\n        /* \"#utility.yul\":3928:3937   */\n      dup5\n        /* \"#utility.yul\":3919:3926   */\n      dup7\n        /* \"#utility.yul\":3915:3938   */\n      sub\n        /* \"#utility.yul\":3911:3943   */\n      slt\n        /* \"#utility.yul\":3908:4027   */\n      iszero\n      tag_319\n      jumpi\n        /* \"#utility.yul\":3946:4025   */\n      tag_320\n      tag_237\n      jump\t// in\n    tag_320:\n        /* \"#utility.yul\":3908:4027   */\n    tag_319:\n        /* \"#utility.yul\":4066:4067   */\n      0x00\n        /* \"#utility.yul\":4091:4144   */\n      tag_321\n        /* \"#utility.yul\":4136:4143   */\n      dup7\n        /* \"#utility.yul\":4127:4133   */\n      dup3\n        /* \"#utility.yul\":4116:4125   */\n      dup8\n        /* \"#utility.yul\":4112:4134   */\n      add\n        /* \"#utility.yul\":4091:4144   */\n      tag_242\n      jump\t// in\n    tag_321:\n        /* \"#utility.yul\":4081:4144   */\n      swap4\n      pop\n        /* \"#utility.yul\":4037:4154   */\n      pop\n        /* \"#utility.yul\":4193:4195   */\n      0x20\n        /* \"#utility.yul\":4219:4272   */\n      tag_322\n        /* \"#utility.yul\":4264:4271   */\n      dup7\n        /* \"#utility.yul\":4255:4261   */\n      dup3\n        /* \"#utility.yul\":4244:4253   */\n      dup8\n        /* \"#utility.yul\":4240:4262   */\n      add\n        /* \"#utility.yul\":4219:4272   */\n      tag_242\n      jump\t// in\n    tag_322:\n        /* \"#utility.yul\":4209:4272   */\n      swap3\n      pop\n        /* \"#utility.yul\":4164:4282   */\n      pop\n        /* \"#utility.yul\":4321:4323   */\n      0x40\n        /* \"#utility.yul\":4347:4400   */\n      tag_323\n        /* \"#utility.yul\":4392:4399   */\n      dup7\n        /* \"#utility.yul\":4383:4389   */\n      dup3\n        /* \"#utility.yul\":4372:4381   */\n      dup8\n        /* \"#utility.yul\":4368:4390   */\n      add\n        /* \"#utility.yul\":4347:4400   */\n      tag_245\n      jump\t// in\n    tag_323:\n        /* \"#utility.yul\":4337:4400   */\n      swap2\n      pop\n        /* \"#utility.yul\":4292:4410   */\n      pop\n        /* \"#utility.yul\":3798:4417   */\n      swap3\n      pop\n      swap3\n      pop\n      swap3\n      jump\t// out\n        /* \"#utility.yul\":4423:4509   */\n    tag_249:\n        /* \"#utility.yul\":4458:4465   */\n      0x00\n        /* \"#utility.yul\":4498:4502   */\n      0xff\n        /* \"#utility.yul\":4491:4496   */\n      dup3\n        /* \"#utility.yul\":4487:4503   */\n      and\n        /* \"#utility.yul\":4476:4503   */\n      swap1\n      pop\n        /* \"#utility.yul\":4423:4509   */\n      swap2\n      swap1\n      pop\n      jump\t// out\n        /* \"#utility.yul\":4515:4627   */\n    tag_250:\n        /* \"#utility.yul\":4598:4620   */\n      tag_326\n        /* \"#utility.yul\":4614:4619   */\n      dup2\n        /* \"#utility.yul\":4598:4620   */\n      tag_249\n      jump\t// in\n    tag_326:\n        /* \"#utility.yul\":4593:4596   */\n      dup3\n        /* \"#utility.yul\":4586:4621   */\n      mstore\n        /* \"#utility.yul\":4515:4627   */\n      pop\n      pop\n      jump\t// out\n        /* \"#utility.yul\":4633:4847   */\n    tag_45:\n        /* \"#utility.yul\":4722:4726   */\n      0x00\n        /* \"#utility.yul\":4760:4762   */\n      0x20\n        /* \"#utility.yul\":4749:4758   */\n      dup3\n        /* \"#utility.yul\":4745:4763   */\n      add\n        /* \"#utility.yul\":4737:4763   */\n      swap1\n      pop\n        /* \"#utility.yul\":4773:4840   */\n      tag_328\n        /* \"#utility.yul\":4837:4838   */\n      0x00\n        /* \"#utility.yul\":4826:4835   */\n      dup4\n        /* \"#utility.yul\":4822:4839   */\n      add\n        /* \"#utility.yul\":4813:4819   */\n      dup5\n        /* \"#utility.yul\":4773:4840   */\n      tag_250\n      jump\t// in\n    tag_328:\n        /* \"#utility.yul\":4633:4847   */\n      swap3\n      swap2\n      pop\n      pop\n      jump\t// out\n        /* \"#utility.yul\":4853:5182   */\n    tag_52:\n        /* \"#utility.yul\":4912:4918   */\n      0x00\n        /* \"#utility.yul\":4961:4963   */\n      0x20\n        /* \"#utility.yul\":4949:4958   */\n      dup3\n        /* \"#utility.yul\":4940:4947   */\n      dup5\n        /* \"#utility.yul\":4936:4959   */\n      sub\n        /* \"#utility.yul\":4932:4964   */\n      slt\n        /* \"#utility.yul\":4929:5048   */\n      iszero\n      tag_330\n      jumpi\n        /* \"#utility.yul\":4967:5046   */\n      tag_331\n      tag_237\n      jump\t// in\n    tag_331:\n        /* \"#utility.yul\":4929:5048   */\n    tag_330:\n        /* \"#utility.yul\":5087:5088   */\n      0x00\n        /* \"#utility.yul\":5112:5165   */\n      tag_332\n        /* \"#utility.yul\":5157:5164   */\n      dup5\n        /* \"#utility.yul\":5148:5154   */\n      dup3\n        /* \"#utility.yul\":5137:5146   */\n      dup6\n        /* \"#utility.yul\":5133:5155   */\n      add\n        /* \"#utility.yul\":5112:5165   */\n      tag_245\n      jump\t// in\n    tag_332:\n        /* \"#utility.yul\":5102:5165   */\n      swap2\n      pop\n        /* \"#utility.yul\":5058:5175   */\n      pop\n        /* \"#utility.yul\":4853:5182   */\n      swap3\n      swap2\n      pop\n      pop\n      jump\t// out\n        /* \"#utility.yul\":5188:5517   */\n    tag_60:\n        /* \"#utility.yul\":5247:5253   */\n      0x00\n        /* \"#utility.yul\":5296:5298   */\n      0x20\n        /* \"#utility.yul\":5284:5293   */\n      dup3\n        /* \"#utility.yul\":5275:5282   */\n      dup5\n        /* \"#utility.yul\":5271:5294   */\n      sub\n        /* \"#utility.yul\":5267:5299   */\n      slt\n        /* \"#utility.yul\":5264:5383   */\n      iszero\n      tag_334\n      jumpi\n        /* \"#utility.yul\":5302:5381   */\n      tag_335\n      tag_237\n      jump\t// in\n    tag_335:\n        /* \"#utility.yul\":5264:5383   */\n    tag_334:\n        /* \"#utility.yul\":5422:5423   */\n      0x00\n        /* \"#utility.yul\":5447:5500   */\n      tag_336\n        /* \"#utility.yul\":5492:5499   */\n      dup5\n        /* \"#utility.yul\":5483:5489   */\n      dup3\n        /* \"#utility.yul\":5472:5481   */\n      dup6\n        /* \"#utility.yul\":5468:5490   */\n      add\n        /* \"#utility.yul\":5447:5500   */\n      tag_242\n      jump\t// in\n    tag_336:\n        /* \"#utility.yul\":5437:5500   */\n      swap2\n      pop\n        /* \"#utility.yul\":5393:5510   */\n      pop\n        /* \"#utility.yul\":5188:5517   */\n      swap3\n      swap2\n      pop\n      pop\n      jump\t// out\n        /* \"#utility.yul\":5523:5997   */\n    tag_87:\n        /* \"#utility.yul\":5591:5597   */\n      0x00\n        /* \"#utility.yul\":5599:5605   */\n      dup1\n        /* \"#utility.yul\":5648:5650   */\n      0x40\n        /* \"#utility.yul\":5636:5645   */\n      dup4\n        /* \"#utility.yul\":5627:5634   */\n      dup6\n        /* \"#utility.yul\":5623:5646   */\n      sub\n        /* \"#utility.yul\":5619:5651   */\n      slt\n        /* \"#utility.yul\":5616:5735   */\n      iszero\n      tag_338\n      jumpi\n        /* \"#utility.yul\":5654:5733   */\n      tag_339\n      tag_237\n      jump\t// in\n    tag_339:\n        /* \"#utility.yul\":5616:5735   */\n    tag_338:\n        /* \"#utility.yul\":5774:5775   */\n      0x00\n        /* \"#utility.yul\":5799:5852   */\n      tag_340\n        /* \"#utility.yul\":5844:5851   */\n      dup6\n        /* \"#utility.yul\":5835:5841   */\n      dup3\n        /* \"#utility.yul\":5824:5833   */\n      dup7\n        /* \"#utility.yul\":5820:5842   */\n      add\n        /* \"#utility.yul\":5799:5852   */\n      tag_242\n      jump\t// in\n    tag_340:\n        /* \"#utility.yul\":5789:5852   */\n      swap3\n      pop\n        /* \"#utility.yul\":5745:5862   */\n      pop\n        /* \"#utility.yul\":5901:5903   */\n      0x20\n        /* \"#utility.yul\":5927:5980   */\n      tag_341\n        /* \"#utility.yul\":5972:5979   */\n      dup6\n        /* \"#utility.yul\":5963:5969   */\n      dup3\n        /* \"#utility.yul\":5952:5961   */\n      dup7\n        /* \"#utility.yul\":5948:5970   */\n      add\n        /* \"#utility.yul\":5927:5980   */\n      tag_242\n      jump\t// in\n    tag_341:\n        /* \"#utility.yul\":5917:5980   */\n      swap2\n      pop\n        /* \"#utility.yul\":5872:5990   */\n      pop\n        /* \"#utility.yul\":5523:5997   */\n      swap3\n      pop\n      swap3\n      swap1\n      pop\n      jump\t// out\n        /* \"#utility.yul\":6003:6183   */\n    tag_251:\n        /* \"#utility.yul\":6051:6128   */\n      0x4e487b7100000000000000000000000000000000000000000000000000000000\n        /* \"#utility.yul\":6048:6049   */\n      0x00\n        /* \"#utility.yul\":6041:6129   */\n      mstore\n        /* \"#utility.yul\":6148:6152   */\n      0x22\n        /* \"#utility.yul\":6145:6146   */\n      0x04\n        /* \"#utility.yul\":6138:6153   */\n      mstore\n        /* \"#utility.yul\":6172:6176   */\n      0x24\n        /* \"#utility.yul\":6169:6170   */\n      0x00\n        /* \"#utility.yul\":6162:6177   */\n      revert\n        /* \"#utility.yul\":6189:6509   */\n    tag_100:\n        /* \"#utility.yul\":6233:6239   */\n      0x00\n        /* \"#utility.yul\":6270:6271   */\n      0x02\n        /* \"#utility.yul\":6264:6268   */\n      dup3\n        /* \"#utility.yul\":6260:6272   */\n      div\n        /* \"#utility.yul\":6250:6272   */\n      swap1\n      pop\n        /* \"#utility.yul\":6317:6318   */\n      0x01\n        /* \"#utility.yul\":6311:6315   */\n      dup3\n        /* \"#utility.yul\":6307:6319   */\n      and\n        /* \"#utility.yul\":6338:6356   */\n      dup1\n        /* \"#utility.yul\":6328:6409   */\n      tag_344\n      jumpi\n        /* \"#utility.yul\":6394:6398   */\n      0x7f\n        /* \"#utility.yul\":6386:6392   */\n      dup3\n        /* \"#utility.yul\":6382:6399   */\n      and\n        /* \"#utility.yul\":6372:6399   */\n      swap2\n      pop\n        /* \"#utility.yul\":6328:6409   */\n    tag_344:\n        /* \"#utility.yul\":6456:6458   */\n      0x20\n        /* \"#utility.yul\":6448:6454   */\n      dup3\n        /* \"#utility.yul\":6445:6459   */\n      lt\n        /* \"#utility.yul\":6425:6443   */\n      dup2\n        /* \"#utility.yul\":6422:6460   */\n      sub\n        /* \"#utility.yul\":6419:6503   */\n      tag_345\n      jumpi\n        /* \"#utility.yul\":6475:6493   */\n      tag_346\n      tag_251\n      jump\t// in\n    tag_346:\n        /* \"#utility.yul\":6419:6503   */\n    tag_345:\n        /* \"#utility.yul\":6240:6509   */\n      pop\n        /* \"#utility.yul\":6189:6509   */\n      swap2\n      swap1\n      pop\n      jump\t// out\n        /* \"#utility.yul\":6515:6695   */\n    tag_252:\n        /* \"#utility.yul\":6563:6640   */\n      0x4e487b7100000000000000000000000000000000000000000000000000000000\n        /* \"#utility.yul\":6560:6561   */\n      0x00\n        /* \"#utility.yul\":6553:6641   */\n      mstore\n        /* \"#utility.yul\":6660:6664   */\n      0x11\n        /* \"#utility.yul\":6657:6658   */\n      0x04\n        /* \"#utility.yul\":6650:6665   */\n      mstore\n        /* \"#utility.yul\":6684:6688   */\n      0x24\n        /* \"#utility.yul\":6681:6682   */\n      0x00\n        /* \"#utility.yul\":6674:6689   */\n      revert\n        /* \"#utility.yul\":6701:6892   */\n    tag_123:\n        /* \"#utility.yul\":6741:6744   */\n      0x00\n        /* \"#utility.yul\":6760:6780   */\n      tag_349\n        /* \"#utility.yul\":6778:6779   */\n      dup3\n        /* \"#utility.yul\":6760:6780   */\n      tag_243\n      jump\t// in\n    tag_349:\n        /* \"#utility.yul\":6755:6780   */\n      swap2\n      pop\n        /* \"#utility.yul\":6794:6814   */\n      tag_350\n        /* \"#utility.yul\":6812:6813   */\n      dup4\n        /* \"#utility.yul\":6794:6814   */\n      tag_243\n      jump\t// in\n    tag_350:\n        /* \"#utility.yul\":6789:6814   */\n      swap3\n      pop\n        /* \"#utility.yul\":6837:6838   */\n      dup3\n        /* \"#utility.yul\":6834:6835   */\n      dup3\n        /* \"#utility.yul\":6830:6839   */\n      add\n        /* \"#utility.yul\":6823:6839   */\n      swap1\n      pop\n        /* \"#utility.yul\":6858:6861   */\n      dup1\n        /* \"#utility.yul\":6855:6856   */\n      dup3\n        /* \"#utility.yul\":6852:6862   */\n      gt\n        /* \"#utility.yul\":6849:6885   */\n      iszero\n      tag_351\n      jumpi\n        /* \"#utility.yul\":6865:6883   */\n      tag_352\n      tag_252\n      jump\t// in\n    tag_352:\n        /* \"#utility.yul\":6849:6885   */\n    tag_351:\n        /* \"#utility.yul\":6701:6892   */\n      swap3\n      swap2\n      pop\n      pop\n      jump\t// out\n        /* \"#utility.yul\":6898:7122   */\n    tag_253:\n        /* \"#utility.yul\":7038:7072   */\n      0x45524332303a2064656372656173656420616c6c6f77616e63652062656c6f77\n        /* \"#utility.yul\":7034:7035   */\n      0x00\n        /* \"#utility.yul\":7026:7032   */\n      dup3\n        /* \"#utility.yul\":7022:7036   */\n      add\n        /* \"#utility.yul\":7015:7073   */\n      mstore\n        /* \"#utility.yul\":7107:7114   */\n      0x207a65726f000000000000000000000000000000000000000000000000000000\n        /* \"#utility.yul\":7102:7104   */\n      0x20\n        /* \"#utility.yul\":7094:7100   */\n      dup3\n        /* \"#utility.yul\":7090:7105   */\n      add\n        /* \"#utility.yul\":7083:7115   */\n      mstore\n        /* \"#utility.yul\":6898:7122   */\n      pop\n      jump\t// out\n        /* \"#utility.yul\":7128:7494   */\n    tag_254:\n        /* \"#utility.yul\":7270:7273   */\n      0x00\n        /* \"#utility.yul\":7291:7358   */\n      tag_355\n        /* \"#utility.yul\":7355:7357   */\n      0x25\n        /* \"#utility.yul\":7350:7353   */\n      dup4\n        /* \"#utility.yul\":7291:7358   */\n      tag_232\n      jump\t// in\n    tag_355:\n        /* \"#utility.yul\":7284:7358   */\n      swap2\n      pop\n        /* \"#utility.yul\":7367:7460   */\n      tag_356\n        /* \"#utility.yul\":7456:7459   */\n      dup3\n        /* \"#utility.yul\":7367:7460   */\n      tag_253\n      jump\t// in\n    tag_356:\n        /* \"#utility.yul\":7485:7487   */\n      0x40\n        /* \"#utility.yul\":7480:7483   */\n      dup3\n        /* \"#utility.yul\":7476:7488   */\n      add\n        /* \"#utility.yul\":7469:7488   */\n      swap1\n      pop\n        /* \"#utility.yul\":7128:7494   */\n      swap2\n      swap1\n      pop\n      jump\t// out\n        /* \"#utility.yul\":7500:7919   */\n    tag_149:\n        /* \"#utility.yul\":7666:7670   */\n      0x00\n        /* \"#utility.yul\":7704:7706   */\n      0x20\n        /* \"#utility.yul\":7693:7702   */\n      dup3\n        /* \"#utility.yul\":7689:7707   */\n      add\n        /* \"#utility.yul\":7681:7707   */\n      swap1\n      pop\n        /* \"#utility.yul\":7753:7762   */\n      dup2\n        /* \"#utility.yul\":7747:7751   */\n      dup2\n        /* \"#utility.yul\":7743:7763   */\n      sub\n        /* \"#utility.yul\":7739:7740   */\n      0x00\n        /* \"#utility.yul\":7728:7737   */\n      dup4\n        /* \"#utility.yul\":7724:7741   */\n      add\n        /* \"#utility.yul\":7717:7764   */\n      mstore\n        /* \"#utility.yul\":7781:7912   */\n      tag_358\n        /* \"#utility.yul\":7907:7911   */\n      dup2\n        /* \"#utility.yul\":7781:7912   */\n      tag_254\n      jump\t// in\n    tag_358:\n        /* \"#utility.yul\":7773:7912   */\n      swap1\n      pop\n        /* \"#utility.yul\":7500:7919   */\n      swap2\n      swap1\n      pop\n      jump\t// out\n        /* \"#utility.yul\":7925:8119   */\n    tag_174:\n        /* \"#utility.yul\":7965:7969   */\n      0x00\n        /* \"#utility.yul\":7985:8005   */\n      tag_360\n        /* \"#utility.yul\":8003:8004   */\n      dup3\n        /* \"#utility.yul\":7985:8005   */\n      tag_243\n      jump\t// in\n    tag_360:\n        /* \"#utility.yul\":7980:8005   */\n      swap2\n      pop\n        /* \"#utility.yul\":8019:8039   */\n      tag_361\n        /* \"#utility.yul\":8037:8038   */\n      dup4\n        /* \"#utility.yul\":8019:8039   */\n      tag_243\n      jump\t// in\n    tag_361:\n        /* \"#utility.yul\":8014:8039   */\n      swap3\n      pop\n        /* \"#utility.yul\":8063:8064   */\n      dup3\n        /* \"#utility.yul\":8060:8061   */\n      dup3\n        /* \"#utility.yul\":8056:8065   */\n      sub\n        /* \"#utility.yul\":8048:8065   */\n      swap1\n      pop\n        /* \"#utility.yul\":8087:8088   */\n      dup2\n        /* \"#utility.yul\":8081:8085   */\n      dup2\n        /* \"#utility.yul\":8078:8089   */\n      gt\n        /* \"#utility.yul\":8075:8112   */\n      iszero\n      tag_362\n      jumpi\n        /* \"#utility.yul\":8092:8110   */\n      tag_363\n      tag_252\n      jump\t// in\n    tag_363:\n        /* \"#utility.yul\":8075:8112   */\n    tag_362:\n        /* \"#utility.yul\":7925:8119   */\n      swap3\n      swap2\n      pop\n      pop\n      jump\t// out\n        /* \"#utility.yul\":8125:8535   */\n    tag_179:\n        /* \"#utility.yul\":8165:8172   */\n      0x00\n        /* \"#utility.yul\":8188:8208   */\n      tag_365\n        /* \"#utility.yul\":8206:8207   */\n      dup3\n        /* \"#utility.yul\":8188:8208   */\n      tag_243\n      jump\t// in\n    tag_365:\n        /* \"#utility.yul\":8183:8208   */\n      swap2\n      pop\n        /* \"#utility.yul\":8222:8242   */\n      tag_366\n        /* \"#utility.yul\":8240:8241   */\n      dup4\n        /* \"#utility.yul\":8222:8242   */\n      tag_243\n      jump\t// in\n    tag_366:\n        /* \"#utility.yul\":8217:8242   */\n      swap3\n      pop\n        /* \"#utility.yul\":8277:8278   */\n      dup3\n        /* \"#utility.yul\":8274:8275   */\n      dup3\n        /* \"#utility.yul\":8270:8279   */\n      mul\n        /* \"#utility.yul\":8299:8329   */\n      tag_367\n        /* \"#utility.yul\":8317:8328   */\n      dup2\n        /* \"#utility.yul\":8299:8329   */\n      tag_243\n      jump\t// in\n    tag_367:\n        /* \"#utility.yul\":8288:8329   */\n      swap2\n      pop\n        /* \"#utility.yul\":8478:8479   */\n      dup3\n        /* \"#utility.yul\":8469:8476   */\n      dup3\n        /* \"#utility.yul\":8465:8480   */\n      div\n        /* \"#utility.yul\":8462:8463   */\n      dup5\n        /* \"#utility.yul\":8459:8481   */\n      eq\n        /* \"#utility.yul\":8439:8440   */\n      dup4\n        /* \"#utility.yul\":8432:8441   */\n      iszero\n        /* \"#utility.yul\":8412:8495   */\n      or\n        /* \"#utility.yul\":8389:8528   */\n      tag_368\n      jumpi\n        /* \"#utility.yul\":8508:8526   */\n      tag_369\n      tag_252\n      jump\t// in\n    tag_369:\n        /* \"#utility.yul\":8389:8528   */\n    tag_368:\n        /* \"#utility.yul\":8173:8535   */\n      pop\n        /* \"#utility.yul\":8125:8535   */\n      swap3\n      swap2\n      pop\n      pop\n      jump\t// out\n        /* \"#utility.yul\":8541:8721   */\n    tag_255:\n        /* \"#utility.yul\":8589:8666   */\n      0x4e487b7100000000000000000000000000000000000000000000000000000000\n        /* \"#utility.yul\":8586:8587   */\n      0x00\n        /* \"#utility.yul\":8579:8667   */\n      mstore\n        /* \"#utility.yul\":8686:8690   */\n      0x12\n        /* \"#utility.yul\":8683:8684   */\n      0x04\n        /* \"#utility.yul\":8676:8691   */\n      mstore\n        /* \"#utility.yul\":8710:8714   */\n      0x24\n        /* \"#utility.yul\":8707:8708   */\n      0x00\n        /* \"#utility.yul\":8700:8715   */\n      revert\n        /* \"#utility.yul\":8727:8912   */\n    tag_182:\n        /* \"#utility.yul\":8767:8768   */\n      0x00\n        /* \"#utility.yul\":8784:8804   */\n      tag_372\n        /* \"#utility.yul\":8802:8803   */\n      dup3\n        /* \"#utility.yul\":8784:8804   */\n      tag_243\n      jump\t// in\n    tag_372:\n        /* \"#utility.yul\":8779:8804   */\n      swap2\n      pop\n        /* \"#utility.yul\":8818:8838   */\n      tag_373\n        /* \"#utility.yul\":8836:8837   */\n      dup4\n        /* \"#utility.yul\":8818:8838   */\n      tag_243\n      jump\t// in\n    tag_373:\n        /* \"#utility.yul\":8813:8838   */\n      swap3\n      pop\n        /* \"#utility.yul\":8857:8858   */\n      dup3\n        /* \"#utility.yul\":8847:8882   */\n      tag_374\n      jumpi\n        /* \"#utility.yul\":8862:8880   */\n      tag_375\n      tag_255\n      jump\t// in\n    tag_375:\n        /* \"#utility.yul\":8847:8882   */\n    tag_374:\n        /* \"#utility.yul\":8904:8905   */\n      dup3\n        /* \"#utility.yul\":8901:8902   */\n      dup3\n        /* \"#utility.yul\":8897:8906   */\n      div\n        /* \"#utility.yul\":8892:8906   */\n      swap1\n      pop\n        /* \"#utility.yul\":8727:8912   */\n      swap3\n      swap2\n      pop\n      pop\n      jump\t// out\n        /* \"#utility.yul\":8918:9141   */\n    tag_256:\n        /* \"#utility.yul\":9058:9092   */\n      0x45524332303a20617070726f76652066726f6d20746865207a65726f20616464\n        /* \"#utility.yul\":9054:9055   */\n      0x00\n        /* \"#utility.yul\":9046:9052   */\n      dup3\n        /* \"#utility.yul\":9042:9056   */\n      add\n        /* \"#utility.yul\":9035:9093   */\n      mstore\n        /* \"#utility.yul\":9127:9133   */\n      0x7265737300000000000000000000000000000000000000000000000000000000\n        /* \"#utility.yul\":9122:9124   */\n      0x20\n        /* \"#utility.yul\":9114:9120   */\n      dup3\n        /* \"#utility.yul\":9110:9125   */\n      add\n        /* \"#utility.yul\":9103:9134   */\n      mstore\n        /* \"#utility.yul\":8918:9141   */\n      pop\n      jump\t// out\n        /* \"#utility.yul\":9147:9513   */\n    tag_257:\n        /* \"#utility.yul\":9289:9292   */\n      0x00\n        /* \"#utility.yul\":9310:9377   */\n      tag_378\n        /* \"#utility.yul\":9374:9376   */\n      0x24\n        /* \"#utility.yul\":9369:9372   */\n      dup4\n        /* \"#utility.yul\":9310:9377   */\n      tag_232\n      jump\t// in\n    tag_378:\n        /* \"#utility.yul\":9303:9377   */\n      swap2\n      pop\n        /* \"#utility.yul\":9386:9479   */\n      tag_379\n        /* \"#utility.yul\":9475:9478   */\n      dup3\n        /* \"#utility.yul\":9386:9479   */\n      tag_256\n      jump\t// in\n    tag_379:\n        /* \"#utility.yul\":9504:9506   */\n      0x40\n        /* \"#utility.yul\":9499:9502   */\n      dup3\n        /* \"#utility.yul\":9495:9507   */\n      add\n        /* \"#utility.yul\":9488:9507   */\n      swap1\n      pop\n        /* \"#utility.yul\":9147:9513   */\n      swap2\n      swap1\n      pop\n      jump\t// out\n        /* \"#utility.yul\":9519:9938   */\n    tag_187:\n        /* \"#utility.yul\":9685:9689   */\n      0x00\n        /* \"#utility.yul\":9723:9725   */\n      0x20\n        /* \"#utility.yul\":9712:9721   */\n      dup3\n        /* \"#utility.yul\":9708:9726   */\n      add\n        /* \"#utility.yul\":9700:9726   */\n      swap1\n      pop\n        /* \"#utility.yul\":9772:9781   */\n      dup2\n        /* \"#utility.yul\":9766:9770   */\n      dup2\n        /* \"#utility.yul\":9762:9782   */\n      sub\n        /* \"#utility.yul\":9758:9759   */\n      0x00\n        /* \"#utility.yul\":9747:9756   */\n      dup4\n        /* \"#utility.yul\":9743:9760   */\n      add\n        /* \"#utility.yul\":9736:9783   */\n      mstore\n        /* \"#utility.yul\":9800:9931   */\n      tag_381\n        /* \"#utility.yul\":9926:9930   */\n      dup2\n        /* \"#utility.yul\":9800:9931   */\n      tag_257\n      jump\t// in\n    tag_381:\n        /* \"#utility.yul\":9792:9931   */\n      swap1\n      pop\n        /* \"#utility.yul\":9519:9938   */\n      swap2\n      swap1\n      pop\n      jump\t// out\n        /* \"#utility.yul\":9944:10165   */\n    tag_258:\n        /* \"#utility.yul\":10084:10118   */\n      0x45524332303a20617070726f766520746f20746865207a65726f206164647265\n        /* \"#utility.yul\":10080:10081   */\n      0x00\n        /* \"#utility.yul\":10072:10078   */\n      dup3\n        /* \"#utility.yul\":10068:10082   */\n      add\n        /* \"#utility.yul\":10061:10119   */\n      mstore\n        /* \"#utility.yul\":10153:10157   */\n      0x7373000000000000000000000000000000000000000000000000000000000000\n        /* \"#utility.yul\":10148:10150   */\n      0x20\n        /* \"#utility.yul\":10140:10146   */\n      dup3\n        /* \"#utility.yul\":10136:10151   */\n      add\n        /* \"#utility.yul\":10129:10158   */\n      mstore\n        /* \"#utility.yul\":9944:10165   */\n      pop\n      jump\t// out\n        /* \"#utility.yul\":10171:10537   */\n    tag_259:\n        /* \"#utility.yul\":10313:10316   */\n      0x00\n        /* \"#utility.yul\":10334:10401   */\n      tag_384\n        /* \"#utility.yul\":10398:10400   */\n      0x22\n        /* \"#utility.yul\":10393:10396   */\n      dup4\n        /* \"#utility.yul\":10334:10401   */\n      tag_232\n      jump\t// in\n    tag_384:\n        /* \"#utility.yul\":10327:10401   */\n      swap2\n      pop\n        /* \"#utility.yul\":10410:10503   */\n      tag_385\n        /* \"#utility.yul\":10499:10502   */\n      dup3\n        /* \"#utility.yul\":10410:10503   */\n      tag_258\n      jump\t// in\n    tag_385:\n        /* \"#utility.yul\":10528:10530   */\n      0x40\n        /* \"#utility.yul\":10523:10526   */\n      dup3\n        /* \"#utility.yul\":10519:10531   */\n      add\n        /* \"#utility.yul\":10512:10531   */\n      swap1\n      pop\n        /* \"#utility.yul\":10171:10537   */\n      swap2\n      swap1\n      pop\n      jump\t// out\n        /* \"#utility.yul\":10543:10962   */\n    tag_190:\n        /* \"#utility.yul\":10709:10713   */\n      0x00\n        /* \"#utility.yul\":10747:10749   */\n      0x20\n        /* \"#utility.yul\":10736:10745   */\n      dup3\n        /* \"#utility.yul\":10732:10750   */\n      add\n        /* \"#utility.yul\":10724:10750   */\n      swap1\n      pop\n        /* \"#utility.yul\":10796:10805   */\n      dup2\n        /* \"#utility.yul\":10790:10794   */\n      dup2\n        /* \"#utility.yul\":10786:10806   */\n      sub\n        /* \"#utility.yul\":10782:10783   */\n      0x00\n        /* \"#utility.yul\":10771:10780   */\n      dup4\n        /* \"#utility.yul\":10767:10784   */\n      add\n        /* \"#utility.yul\":10760:10807   */\n      mstore\n        /* \"#utility.yul\":10824:10955   */\n      tag_387\n        /* \"#utility.yul\":10950:10954   */\n      dup2\n        /* \"#utility.yul\":10824:10955   */\n      tag_259\n      jump\t// in\n    tag_387:\n        /* \"#utility.yul\":10816:10955   */\n      swap1\n      pop\n        /* \"#utility.yul\":10543:10962   */\n      swap2\n      swap1\n      pop\n      jump\t// out\n        /* \"#utility.yul\":10968:11147   */\n    tag_260:\n        /* \"#utility.yul\":11108:11139   */\n      0x45524332303a20696e73756666696369656e7420616c6c6f77616e6365000000\n        /* \"#utility.yul\":11104:11105   */\n      0x00\n        /* \"#utility.yul\":11096:11102   */\n      dup3\n        /* \"#utility.yul\":11092:11106   */\n      add\n        /* \"#utility.yul\":11085:11140   */\n      mstore\n        /* \"#utility.yul\":10968:11147   */\n      pop\n      jump\t// out\n        /* \"#utility.yul\":11153:11519   */\n    tag_261:\n        /* \"#utility.yul\":11295:11298   */\n      0x00\n        /* \"#utility.yul\":11316:11383   */\n      tag_390\n        /* \"#utility.yul\":11380:11382   */\n      0x1d\n        /* \"#utility.yul\":11375:11378   */\n      dup4\n        /* \"#utility.yul\":11316:11383   */\n      tag_232\n      jump\t// in\n    tag_390:\n        /* \"#utility.yul\":11309:11383   */\n      swap2\n      pop\n        /* \"#utility.yul\":11392:11485   */\n      tag_391\n        /* \"#utility.yul\":11481:11484   */\n      dup3\n        /* \"#utility.yul\":11392:11485   */\n      tag_260\n      jump\t// in\n    tag_391:\n        /* \"#utility.yul\":11510:11512   */\n      0x20\n        /* \"#utility.yul\":11505:11508   */\n      dup3\n        /* \"#utility.yul\":11501:11513   */\n      add\n        /* \"#utility.yul\":11494:11513   */\n      swap1\n      pop\n        /* \"#utility.yul\":11153:11519   */\n      swap2\n      swap1\n      pop\n      jump\t// out\n        /* \"#utility.yul\":11525:11944   */\n    tag_197:\n        /* \"#utility.yul\":11691:11695   */\n      0x00\n        /* \"#utility.yul\":11729:11731   */\n      0x20\n        /* \"#utility.yul\":11718:11727   */\n      dup3\n        /* \"#utility.yul\":11714:11732   */\n      add\n        /* \"#utility.yul\":11706:11732   */\n      swap1\n      pop\n        /* \"#utility.yul\":11778:11787   */\n      dup2\n        /* \"#utility.yul\":11772:11776   */\n      dup2\n        /* \"#utility.yul\":11768:11788   */\n      sub\n        /* \"#utility.yul\":11764:11765   */\n      0x00\n        /* \"#utility.yul\":11753:11762   */\n      dup4\n        /* \"#utility.yul\":11749:11766   */\n      add\n        /* \"#utility.yul\":11742:11789   */\n      mstore\n        /* \"#utility.yul\":11806:11937   */\n      tag_393\n        /* \"#utility.yul\":11932:11936   */\n      dup2\n        /* \"#utility.yul\":11806:11937   */\n      tag_261\n      jump\t// in\n    tag_393:\n        /* \"#utility.yul\":11798:11937   */\n      swap1\n      pop\n        /* \"#utility.yul\":11525:11944   */\n      swap2\n      swap1\n      pop\n      jump\t// out\n        /* \"#utility.yul\":11950:12174   */\n    tag_262:\n        /* \"#utility.yul\":12090:12124   */\n      0x45524332303a207472616e736665722066726f6d20746865207a65726f206164\n        /* \"#utility.yul\":12086:12087   */\n      0x00\n        /* \"#utility.yul\":12078:12084   */\n      dup3\n        /* \"#utility.yul\":12074:12088   */\n      add\n        /* \"#utility.yul\":12067:12125   */\n      mstore\n        /* \"#utility.yul\":12159:12166   */\n      0x6472657373000000000000000000000000000000000000000000000000000000\n        /* \"#utility.yul\":12154:12156   */\n      0x20\n        /* \"#utility.yul\":12146:12152   */\n      dup3\n        /* \"#utility.yul\":12142:12157   */\n      add\n        /* \"#utility.yul\":12135:12167   */\n      mstore\n        /* \"#utility.yul\":11950:12174   */\n      pop\n      jump\t// out\n        /* \"#utility.yul\":12180:12546   */\n    tag_263:\n        /* \"#utility.yul\":12322:12325   */\n      0x00\n        /* \"#utility.yul\":12343:12410   */\n      tag_396\n        /* \"#utility.yul\":12407:12409   */\n      0x25\n        /* \"#utility.yul\":12402:12405   */\n      dup4\n        /* \"#utility.yul\":12343:12410   */\n      tag_232\n      jump\t// in\n    tag_396:\n        /* \"#utility.yul\":12336:12410   */\n      swap2\n      pop\n        /* \"#utility.yul\":12419:12512   */\n      tag_397\n        /* \"#utility.yul\":12508:12511   */\n      dup3\n        /* \"#utility.yul\":12419:12512   */\n      tag_262\n      jump\t// in\n    tag_397:\n        /* \"#utility.yul\":12537:12539   */\n      0x40\n        /* \"#utility.yul\":12532:12535   */\n      dup3\n        /* \"#utility.yul\":12528:12540   */\n      add\n        /* \"#utility.yul\":12521:12540   */\n      swap1\n      pop\n        /* \"#utility.yul\":12180:12546   */\n      swap2\n      swap1\n      pop\n      jump\t// out\n        /* \"#utility.yul\":12552:12971   */\n    tag_202:\n        /* \"#utility.yul\":12718:12722   */\n      0x00\n        /* \"#utility.yul\":12756:12758   */\n      0x20\n        /* \"#utility.yul\":12745:12754   */\n      dup3\n        /* \"#utility.yul\":12741:12759   */\n      add\n        /* \"#utility.yul\":12733:12759   */\n      swap1\n      pop\n        /* \"#utility.yul\":12805:12814   */\n      dup2\n        /* \"#utility.yul\":12799:12803   */\n      dup2\n        /* \"#utility.yul\":12795:12815   */\n      sub\n        /* \"#utility.yul\":12791:12792   */\n      0x00\n        /* \"#utility.yul\":12780:12789   */\n      dup4\n        /* \"#utility.yul\":12776:12793   */\n      add\n        /* \"#utility.yul\":12769:12816   */\n      mstore\n        /* \"#utility.yul\":12833:12964   */\n      tag_399\n        /* \"#utility.yul\":12959:12963   */\n      dup2\n        /* \"#utility.yul\":12833:12964   */\n      tag_263\n      jump\t// in\n    tag_399:\n        /* \"#utility.yul\":12825:12964   */\n      swap1\n      pop\n        /* \"#utility.yul\":12552:12971   */\n      swap2\n      swap1\n      pop\n      jump\t// out\n        /* \"#utility.yul\":12977:13199   */\n    tag_264:\n        /* \"#utility.yul\":13117:13151   */\n      0x45524332303a207472616e7366657220746f20746865207a65726f2061646472\n        /* \"#utility.yul\":13113:13114   */\n      0x00\n        /* \"#utility.yul\":13105:13111   */\n      dup3\n        /* \"#utility.yul\":13101:13115   */\n      add\n        /* \"#utility.yul\":13094:13152   */\n      mstore\n        /* \"#utility.yul\":13186:13191   */\n      0x6573730000000000000000000000000000000000000000000000000000000000\n        /* \"#utility.yul\":13181:13183   */\n      0x20\n        /* \"#utility.yul\":13173:13179   */\n      dup3\n        /* \"#utility.yul\":13169:13184   */\n      add\n        /* \"#utility.yul\":13162:13192   */\n      mstore\n        /* \"#utility.yul\":12977:13199   */\n      pop\n      jump\t// out\n        /* \"#utility.yul\":13205:13571   */\n    tag_265:\n        /* \"#utility.yul\":13347:13350   */\n      0x00\n        /* \"#utility.yul\":13368:13435   */\n      tag_402\n        /* \"#utility.yul\":13432:13434   */\n      0x23\n        /* \"#utility.yul\":13427:13430   */\n      dup4\n        /* \"#utility.yul\":13368:13435   */\n      tag_232\n      jump\t// in\n    tag_402:\n        /* \"#utility.yul\":13361:13435   */\n      swap2\n      pop\n        /* \"#utility.yul\":13444:13537   */\n      tag_403\n        /* \"#utility.yul\":13533:13536   */\n      dup3\n        /* \"#utility.yul\":13444:13537   */\n      tag_264\n      jump\t// in\n    tag_403:\n        /* \"#utility.yul\":13562:13564   */\n      0x40\n        /* \"#utility.yul\":13557:13560   */\n      dup3\n        /* \"#utility.yul\":13553:13565   */\n      add\n        /* \"#utility.yul\":13546:13565   */\n      swap1\n      pop\n        /* \"#utility.yul\":13205:13571   */\n      swap2\n      swap1\n      pop\n      jump\t// out\n        /* \"#utility.yul\":13577:13996   */\n    tag_205:\n        /* \"#utility.yul\":13743:13747   */\n      0x00\n        /* \"#utility.yul\":13781:13783   */\n      0x20\n        /* \"#utility.yul\":13770:13779   */\n      dup3\n        /* \"#utility.yul\":13766:13784   */\n      add\n        /* \"#utility.yul\":13758:13784   */\n      swap1\n      pop\n        /* \"#utility.yul\":13830:13839   */\n      dup2\n        /* \"#utility.yul\":13824:13828   */\n      dup2\n        /* \"#utility.yul\":13820:13840   */\n      sub\n        /* \"#utility.yul\":13816:13817   */\n      0x00\n        /* \"#utility.yul\":13805:13814   */\n      dup4\n        /* \"#utility.yul\":13801:13818   */\n      add\n        /* \"#utility.yul\":13794:13841   */\n      mstore\n        /* \"#utility.yul\":13858:13989   */\n      tag_405\n        /* \"#utility.yul\":13984:13988   */\n      dup2\n        /* \"#utility.yul\":13858:13989   */\n      tag_265\n      jump\t// in\n    tag_405:\n        /* \"#utility.yul\":13850:13989   */\n      swap1\n      pop\n        /* \"#utility.yul\":13577:13996   */\n      swap2\n      swap1\n      pop\n      jump\t// out\n        /* \"#utility.yul\":14002:14227   */\n    tag_266:\n        /* \"#utility.yul\":14142:14176   */\n      0x45524332303a207472616e7366657220616d6f756e7420657863656564732062\n        /* \"#utility.yul\":14138:14139   */\n      0x00\n        /* \"#utility.yul\":14130:14136   */\n      dup3\n        /* \"#utility.yul\":14126:14140   */\n      add\n        /* \"#utility.yul\":14119:14177   */\n      mstore\n        /* \"#utility.yul\":14211:14219   */\n      0x616c616e63650000000000000000000000000000000000000000000000000000\n        /* \"#utility.yul\":14206:14208   */\n      0x20\n        /* \"#utility.yul\":14198:14204   */\n      dup3\n        /* \"#utility.yul\":14194:14209   */\n      add\n        /* \"#utility.yul\":14187:14220   */\n      mstore\n        /* \"#utility.yul\":14002:14227   */\n      pop\n      jump\t// out\n        /* \"#utility.yul\":14233:14599   */\n    tag_267:\n        /* \"#utility.yul\":14375:14378   */\n      0x00\n        /* \"#utility.yul\":14396:14463   */\n      tag_408\n        /* \"#utility.yul\":14460:14462   */\n      0x26\n        /* \"#utility.yul\":14455:14458   */\n      dup4\n        /* \"#utility.yul\":14396:14463   */\n      tag_232\n      jump\t// in\n    tag_408:\n        /* \"#utility.yul\":14389:14463   */\n      swap2\n      pop\n        /* \"#utility.yul\":14472:14565   */\n      tag_409\n        /* \"#utility.yul\":14561:14564   */\n      dup3\n        /* \"#utility.yul\":14472:14565   */\n      tag_266\n      jump\t// in\n    tag_409:\n        /* \"#utility.yul\":14590:14592   */\n      0x40\n        /* \"#utility.yul\":14585:14588   */\n      dup3\n        /* \"#utility.yul\":14581:14593   */\n      add\n        /* \"#utility.yul\":14574:14593   */\n      swap1\n      pop\n        /* \"#utility.yul\":14233:14599   */\n      swap2\n      swap1\n      pop\n      jump\t// out\n        /* \"#utility.yul\":14605:15024   */\n    tag_212:\n        /* \"#utility.yul\":14771:14775   */\n      0x00\n        /* \"#utility.yul\":14809:14811   */\n      0x20\n        /* \"#utility.yul\":14798:14807   */\n      dup3\n        /* \"#utility.yul\":14794:14812   */\n      add\n        /* \"#utility.yul\":14786:14812   */\n      swap1\n      pop\n        /* \"#utility.yul\":14858:14867   */\n      dup2\n        /* \"#utility.yul\":14852:14856   */\n      dup2\n        /* \"#utility.yul\":14848:14868   */\n      sub\n        /* \"#utility.yul\":14844:14845   */\n      0x00\n        /* \"#utility.yul\":14833:14842   */\n      dup4\n        /* \"#utility.yul\":14829:14846   */\n      add\n        /* \"#utility.yul\":14822:14869   */\n      mstore\n        /* \"#utility.yul\":14886:15017   */\n      tag_411\n        /* \"#utility.yul\":15012:15016   */\n      dup2\n        /* \"#utility.yul\":14886:15017   */\n      tag_267\n      jump\t// in\n    tag_411:\n        /* \"#utility.yul\":14878:15017   */\n      swap1\n      pop\n        /* \"#utility.yul\":14605:15024   */\n      swap2\n      swap1\n      pop\n      jump\t// out\n        /* \"#utility.yul\":15030:15250   */\n    tag_268:\n        /* \"#utility.yul\":15170:15204   */\n      0x45524332303a206275726e2066726f6d20746865207a65726f20616464726573\n        /* \"#utility.yul\":15166:15167   */\n      0x00\n        /* \"#utility.yul\":15158:15164   */\n      dup3\n        /* \"#utility.yul\":15154:15168   */\n      add\n        /* \"#utility.yul\":15147:15205   */\n      mstore\n        /* \"#utility.yul\":15239:15242   */\n      0x7300000000000000000000000000000000000000000000000000000000000000\n        /* \"#utility.yul\":15234:15236   */\n      0x20\n        /* \"#utility.yul\":15226:15232   */\n      dup3\n        /* \"#utility.yul\":15222:15237   */\n      add\n        /* \"#utility.yul\":15215:15243   */\n      mstore\n        /* \"#utility.yul\":15030:15250   */\n      pop\n      jump\t// out\n        /* \"#utility.yul\":15256:15622   */\n    tag_269:\n        /* \"#utility.yul\":15398:15401   */\n      0x00\n        /* \"#utility.yul\":15419:15486   */\n      tag_414\n        /* \"#utility.yul\":15483:15485   */\n      0x21\n        /* \"#utility.yul\":15478:15481   */\n      dup4\n        /* \"#utility.yul\":15419:15486   */\n      tag_232\n      jump\t// in\n    tag_414:\n        /* \"#utility.yul\":15412:15486   */\n      swap2\n      pop\n        /* \"#utility.yul\":15495:15588   */\n      tag_415\n        /* \"#utility.yul\":15584:15587   */\n      dup3\n        /* \"#utility.yul\":15495:15588   */\n      tag_268\n      jump\t// in\n    tag_415:\n        /* \"#utility.yul\":15613:15615   */\n      0x40\n        /* \"#utility.yul\":15608:15611   */\n      dup3\n        /* \"#utility.yul\":15604:15616   */\n      add\n        /* \"#utility.yul\":15597:15616   */\n      swap1\n      pop\n        /* \"#utility.yul\":15256:15622   */\n      swap2\n      swap1\n      pop\n      jump\t// out\n        /* \"#utility.yul\":15628:16047   */\n    tag_220:\n        /* \"#utility.yul\":15794:15798   */\n      0x00\n        /* \"#utility.yul\":15832:15834   */\n      0x20\n        /* \"#utility.yul\":15821:15830   */\n      dup3\n        /* \"#utility.yul\":15817:15835   */\n      add\n        /* \"#utility.yul\":15809:15835   */\n      swap1\n      pop\n        /* \"#utility.yul\":15881:15890   */\n      dup2\n        /* \"#utility.yul\":15875:15879   */\n      dup2\n        /* \"#utility.yul\":15871:15891   */\n      sub\n        /* \"#utility.yul\":15867:15868   */\n      0x00\n        /* \"#utility.yul\":15856:15865   */\n      dup4\n        /* \"#utility.yul\":15852:15869   */\n      add\n        /* \"#utility.yul\":15845:15892   */\n      mstore\n        /* \"#utility.yul\":15909:16040   */\n      tag_417\n        /* \"#utility.yul\":16035:16039   */\n      dup2\n        /* \"#utility.yul\":15909:16040   */\n      tag_269\n      jump\t// in\n    tag_417:\n        /* \"#utility.yul\":15901:16040   */\n      swap1\n      pop\n        /* \"#utility.yul\":15628:16047   */\n      swap2\n      swap1\n      pop\n      jump\t// out\n        /* \"#utility.yul\":16053:16274   */\n    tag_270:\n        /* \"#utility.yul\":16193:16227   */\n      0x45524332303a206275726e20616d6f756e7420657863656564732062616c616e\n        /* \"#utility.yul\":16189:16190   */\n      0x00\n        /* \"#utility.yul\":16181:16187   */\n      dup3\n        /* \"#utility.yul\":16177:16191   */\n      add\n        /* \"#utility.yul\":16170:16228   */\n      mstore\n        /* \"#utility.yul\":16262:16266   */\n      0x6365000000000000000000000000000000000000000000000000000000000000\n        /* \"#utility.yul\":16257:16259   */\n      0x20\n        /* \"#utility.yul\":16249:16255   */\n      dup3\n        /* \"#utility.yul\":16245:16260   */\n      add\n        /* \"#utility.yul\":16238:16267   */\n      mstore\n        /* \"#utility.yul\":16053:16274   */\n      pop\n      jump\t// out\n        /* \"#utility.yul\":16280:16646   */\n    tag_271:\n        /* \"#utility.yul\":16422:16425   */\n      0x00\n        /* \"#utility.yul\":16443:16510   */\n      tag_420\n        /* \"#utility.yul\":16507:16509   */\n      0x22\n        /* \"#utility.yul\":16502:16505   */\n      dup4\n        /* \"#utility.yul\":16443:16510   */\n      tag_232\n      jump\t// in\n    tag_420:\n        /* \"#utility.yul\":16436:16510   */\n      swap2\n      pop\n        /* \"#utility.yul\":16519:16612   */\n      tag_421\n        /* \"#utility.yul\":16608:16611   */\n      dup3\n        /* \"#utility.yul\":16519:16612   */\n      tag_270\n      jump\t// in\n    tag_421:\n        /* \"#utility.yul\":16637:16639   */\n      0x40\n        /* \"#utility.yul\":16632:16635   */\n      dup3\n        /* \"#utility.yul\":16628:16640   */\n      add\n        /* \"#utility.yul\":16621:16640   */\n      swap1\n      pop\n        /* \"#utility.yul\":16280:16646   */\n      swap2\n      swap1\n      pop\n      jump\t// out\n        /* \"#utility.yul\":16652:17071   */\n    tag_225:\n        /* \"#utility.yul\":16818:16822   */\n      0x00\n        /* \"#utility.yul\":16856:16858   */\n      0x20\n        /* \"#utility.yul\":16845:16854   */\n      dup3\n        /* \"#utility.yul\":16841:16859   */\n      add\n        /* \"#utility.yul\":16833:16859   */\n      swap1\n      pop\n        /* \"#utility.yul\":16905:16914   */\n      dup2\n        /* \"#utility.yul\":16899:16903   */\n      dup2\n        /* \"#utility.yul\":16895:16915   */\n      sub\n        /* \"#utility.yul\":16891:16892   */\n      0x00\n        /* \"#utility.yul\":16880:16889   */\n      dup4\n        /* \"#utility.yul\":16876:16893   */\n      add\n        /* \"#utility.yul\":16869:16916   */\n      mstore\n        /* \"#utility.yul\":16933:17064   */\n      tag_423\n        /* \"#utility.yul\":17059:17063   */\n      dup2\n        /* \"#utility.yul\":16933:17064   */\n      tag_271\n      jump\t// in\n    tag_423:\n        /* \"#utility.yul\":16925:17064   */\n      swap1\n      pop\n        /* \"#utility.yul\":16652:17071   */\n      swap2\n      swap1\n      pop\n      jump\t// out\n\n    auxdata: 0xa2646970667358221220b662d63281a3b1b2d07e814286a7c1ef073f19bffbb3eb6cb8eadff9d436e57e64736f6c63430008110033\n}\n",
				"bytecode": {
					"linkReferences": {},
					"object": "60806040523480156200001157600080fd5b506040518060400160405280600981526020017f6d696e65506f77657200000000000000000000000000000000000000000000008152506040518060400160405280600681526020017f4d506f776572000000000000000000000000000000000000000000000000000081525081600590816200008f91906200096d565b508060069081620000a191906200096d565b50674563918244f40000600381905550436004819055505050620000fa33620000cf6200010060201b60201c565b600a620000dd919062000be4565b6303938700620000ee919062000c35565b6200010960201b60201c565b62000e0e565b60006012905090565b600073ffffffffffffffffffffffffffffffffffffffff168273ffffffffffffffffffffffffffffffffffffffff16036200017b576040517f08c379a0000000000000000000000000000000000000000000000000000000008152600401620001729062000ce1565b60405180910390fd5b43600760008473ffffffffffffffffffffffffffffffffffffffff1673ffffffffffffffffffffffffffffffffffffffff16815260200190815260200160002060006001815260200190815260200160002081905550620001e5600083836200033d60201b60201c565b8060026000828254620001f9919062000d03565b92505081905550806000808473ffffffffffffffffffffffffffffffffffffffff1673ffffffffffffffffffffffffffffffffffffffff168152602001908152602001600020600082825462000250919062000d03565b925050819055508173ffffffffffffffffffffffffffffffffffffffff16600073ffffffffffffffffffffffffffffffffffffffff167fddf252ad1be2c89b69c2b068fc378daa952ba7f163c4a11628f55a4df523b3ef83604051620002b7919062000d4f565b60405180910390a3620002d3600083836200034260201b60201c565b620002e4826200034760201b60201c565b600760008473ffffffffffffffffffffffffffffffffffffffff1673ffffffffffffffffffffffffffffffffffffffff168152602001908152602001600020600060038152602001908152602001600020819055505050565b505050565b505050565b600080620003b5600760008573ffffffffffffffffffffffffffffffffffffffff1673ffffffffffffffffffffffffffffffffffffffff16815260200190815260200160002060006001815260200190815260200160002054436200054360201b62000a101790919060201c565b905060006200041b600760008673ffffffffffffffffffffffffffffffffffffffff1673ffffffffffffffffffffffffffffffffffffffff168152602001908152602001600020600060018152602001908152602001600020546200055b60201b60201c565b9050600062000430436200055b60201b60201c565b905060006200048160026200046d86620004598688620005e360201b62000a261790919060201c565b620005fb60201b62000a3c1790919060201c565b6200061360201b62000a521790919060201c565b90506000620004ca600254620004b6620004a18a6200062b60201b60201c565b85620005fb60201b62000a3c1790919060201c565b6200061360201b62000a521790919060201c565b90506200053781600760008a73ffffffffffffffffffffffffffffffffffffffff1673ffffffffffffffffffffffffffffffffffffffff16815260200190815260200160002060006003815260200190815260200160002054620005e360201b62000a261790919060201c565b95505050505050919050565b6000818362000553919062000d6c565b905092915050565b60006004548210156200056e5760045491505b6000620005a3760a70c3c40a64e6c51999090b65f67d9240000000000000600354620005fb60201b62000a3c1790919060201c565b90506000620005b8846200067360201b60201c565b90506000620005d682846200061360201b62000a521790919060201c565b9050809350505050919050565b60008183620005f3919062000d03565b905092915050565b600081836200060b919062000c35565b905092915050565b6000818362000623919062000dd6565b905092915050565b60008060008373ffffffffffffffffffffffffffffffffffffffff1673ffffffffffffffffffffffffffffffffffffffff168152602001908152602001600020549050919050565b600080620006b36004546200069f670de0b6b3a764000086620005fb60201b62000a3c1790919060201c565b6200061360201b62000a521790919060201c565b9050620006e881620006d48384620005fb60201b62000a3c1790919060201c565b620005fb60201b62000a3c1790919060201c565b905080915050919050565b600081519050919050565b7f4e487b7100000000000000000000000000000000000000000000000000000000600052604160045260246000fd5b7f4e487b7100000000000000000000000000000000000000000000000000000000600052602260045260246000fd5b600060028204905060018216806200077557607f821691505b6020821081036200078b576200078a6200072d565b5b50919050565b60008190508160005260206000209050919050565b60006020601f8301049050919050565b600082821b905092915050565b600060088302620007f57fffffffffffffffffffffffffffffffffffffffffffffffffffffffffffffffff82620007b6565b620008018683620007b6565b95508019841693508086168417925050509392505050565b6000819050919050565b6000819050919050565b60006200084e62000848620008428462000819565b62000823565b62000819565b9050919050565b6000819050919050565b6200086a836200082d565b62000882620008798262000855565b848454620007c3565b825550505050565b600090565b620008996200088a565b620008a68184846200085f565b505050565b5b81811015620008ce57620008c26000826200088f565b600181019050620008ac565b5050565b601f8211156200091d57620008e78162000791565b620008f284620007a6565b8101602085101562000902578190505b6200091a6200091185620007a6565b830182620008ab565b50505b505050565b600082821c905092915050565b6000620009426000198460080262000922565b1980831691505092915050565b60006200095d83836200092f565b9150826002028217905092915050565b6200097882620006f3565b67ffffffffffffffff811115620009945762000993620006fe565b5b620009a082546200075c565b620009ad828285620008d2565b600060209050601f831160018114620009e55760008415620009d0578287015190505b620009dc85826200094f565b86555062000a4c565b601f198416620009f58662000791565b60005b8281101562000a1f57848901518255600182019150602085019450602081019050620009f8565b8683101562000a3f578489015162000a3b601f8916826200092f565b8355505b6001600288020188555050505b505050505050565b7f4e487b7100000000000000000000000000000000000000000000000000000000600052601160045260246000fd5b60008160011c9050919050565b6000808291508390505b600185111562000ae25780860481111562000aba5762000ab962000a54565b5b600185161562000aca5780820291505b808102905062000ada8562000a83565b945062000a9a565b94509492505050565b60008262000afd576001905062000bd0565b8162000b0d576000905062000bd0565b816001811462000b26576002811462000b315762000b67565b600191505062000bd0565b60ff84111562000b465762000b4562000a54565b5b8360020a91508482111562000b605762000b5f62000a54565b5b5062000bd0565b5060208310610133831016604e8410600b841016171562000ba15782820a90508381111562000b9b5762000b9a62000a54565b5b62000bd0565b62000bb0848484600162000a90565b9250905081840481111562000bca5762000bc962000a54565b5b81810290505b9392505050565b600060ff82169050919050565b600062000bf18262000819565b915062000bfe8362000bd7565b925062000c2d7fffffffffffffffffffffffffffffffffffffffffffffffffffffffffffffffff848462000aeb565b905092915050565b600062000c428262000819565b915062000c4f8362000819565b925082820262000c5f8162000819565b9150828204841483151762000c795762000c7862000a54565b5b5092915050565b600082825260208201905092915050565b7f45524332303a206d696e7420746f20746865207a65726f206164647265737300600082015250565b600062000cc9601f8362000c80565b915062000cd68262000c91565b602082019050919050565b6000602082019050818103600083015262000cfc8162000cba565b9050919050565b600062000d108262000819565b915062000d1d8362000819565b925082820190508082111562000d385762000d3762000a54565b5b92915050565b62000d498162000819565b82525050565b600060208201905062000d66600083018462000d3e565b92915050565b600062000d798262000819565b915062000d868362000819565b925082820390508181111562000da15762000da062000a54565b5b92915050565b7f4e487b7100000000000000000000000000000000000000000000000000000000600052601260045260246000fd5b600062000de38262000819565b915062000df08362000819565b92508262000e035762000e0262000da7565b5b828204905092915050565b611d1a8062000e1e6000396000f3fe608060405234801561001057600080fd5b506004361061010b5760003560e01c806370a08231116100a2578063a9059cbb11610071578063a9059cbb146102e0578063b8ba600714610310578063d993226b14610340578063dd62ed3e14610370578063eff0730d146103a05761010b565b806370a082311461024657806379cc67901461027657806395d89b4114610292578063a457c2d7146102b05761010b565b8063313ce567116100de578063313ce567146101ac57806339509351146101ca57806342966c68146101fa5780634be3403c146102165761010b565b806306fdde0314610110578063095ea7b31461012e57806318160ddd1461015e57806323b872dd1461017c575b600080fd5b6101186103d0565b60405161012591906113d0565b60405180910390f35b6101486004803603810190610143919061148b565b610462565b60405161015591906114e6565b60405180910390f35b610166610485565b6040516101739190611510565b60405180910390f35b6101966004803603810190610191919061152b565b61048f565b6040516101a391906114e6565b60405180910390f35b6101b46104be565b6040516101c1919061159a565b60405180910390f35b6101e460048036038101906101df919061148b565b6104c7565b6040516101f191906114e6565b60405180910390f35b610214600480360381019061020f91906115b5565b6104fe565b005b610230600480360381019061022b91906115b5565b610512565b60405161023d9190611510565b60405180910390f35b610260600480360381019061025b91906115e2565b610583565b60405161026d9190611510565b60405180910390f35b610290600480360381019061028b919061148b565b6105cb565b005b61029a6105eb565b6040516102a791906113d0565b60405180910390f35b6102ca60048036038101906102c5919061148b565b61067d565b6040516102d791906114e6565b60405180910390f35b6102fa60048036038101906102f5919061148b565b6106f4565b60405161030791906114e6565b60405180910390f35b61032a600480360381019061032591906115e2565b610717565b6040516103379190611510565b60405180910390f35b61035a600480360381019061035591906115b5565b6108ca565b6040516103679190611510565b60405180910390f35b61038a6004803603810190610385919061160f565b61092e565b6040516103979190611510565b60405180910390f35b6103ba60048036038101906103b5919061148b565b6109b5565b6040516103c79190611510565b60405180910390f35b6060600580546103df9061167e565b80601f016020809104026020016040519081016040528092919081815260200182805461040b9061167e565b80156104585780601f1061042d57610100808354040283529160200191610458565b820191906000526020600020905b81548152906001019060200180831161043b57829003601f168201915b5050505050905090565b60008061046d610a68565b905061047a818585610a70565b600191505092915050565b6000600254905090565b60008061049a610a68565b90506104a7858285610c39565b6104b2858585610cc5565b60019150509392505050565b60006012905090565b6000806104d2610a68565b90506104f38185856104e4858961092e565b6104ee91906116de565b610a70565b600191505092915050565b61050f610509610a68565b826110ac565b50565b60006004548210156105245760045491505b6000610552760a70c3c40a64e6c51999090b65f67d9240000000000000600354610a3c90919063ffffffff16565b9050600061055f846108ca565b905060006105768284610a5290919063ffffffff16565b9050809350505050919050565b60008060008373ffffffffffffffffffffffffffffffffffffffff1673ffffffffffffffffffffffffffffffffffffffff168152602001908152602001600020549050919050565b6105dd826105d7610a68565b83610c39565b6105e782826110ac565b5050565b6060600680546105fa9061167e565b80601f01602080910402602001604051908101604052809291908181526020018280546106269061167e565b80156106735780601f1061064857610100808354040283529160200191610673565b820191906000526020600020905b81548152906001019060200180831161065657829003601f168201915b5050505050905090565b600080610688610a68565b90506000610696828661092e565b9050838110156106db576040517f08c379a00000000000000000000000000000000000000000000000000000000081526004016106d290611784565b60405180910390fd5b6106e88286868403610a70565b60019250505092915050565b6000806106ff610a68565b905061070c818585610cc5565b600191505092915050565b60008061077e600760008573ffffffffffffffffffffffffffffffffffffffff1673ffffffffffffffffffffffffffffffffffffffff1681526020019081526020016000206000600181526020019081526020016000205443610a1090919063ffffffff16565b905060006107dc600760008673ffffffffffffffffffffffffffffffffffffffff1673ffffffffffffffffffffffffffffffffffffffff16815260200190815260200160002060006001815260200190815260200160002054610512565b905060006107e943610512565b905060006108256002610817866108098688610a2690919063ffffffff16565b610a3c90919063ffffffff16565b610a5290919063ffffffff16565b9050600061085860025461084a61083b8a610583565b85610a3c90919063ffffffff16565b610a5290919063ffffffff16565b90506108be81600760008a73ffffffffffffffffffffffffffffffffffffffff1673ffffffffffffffffffffffffffffffffffffffff16815260200190815260200160002060006003815260200190815260200160002054610a2690919063ffffffff16565b95505050505050919050565b6000806108fc6004546108ee670de0b6b3a764000086610a3c90919063ffffffff16565b610a5290919063ffffffff16565b9050610923816109158384610a3c90919063ffffffff16565b610a3c90919063ffffffff16565b905080915050919050565b6000600160008473ffffffffffffffffffffffffffffffffffffffff1673ffffffffffffffffffffffffffffffffffffffff16815260200190815260200160002060008373ffffffffffffffffffffffffffffffffffffffff1673ffffffffffffffffffffffffffffffffffffffff16815260200190815260200160002054905092915050565b6000600760008473ffffffffffffffffffffffffffffffffffffffff1673ffffffffffffffffffffffffffffffffffffffff168152602001908152602001600020600083815260200190815260200160002054905092915050565b60008183610a1e91906117a4565b905092915050565b60008183610a3491906116de565b905092915050565b60008183610a4a91906117d8565b905092915050565b60008183610a609190611849565b905092915050565b600033905090565b600073ffffffffffffffffffffffffffffffffffffffff168373ffffffffffffffffffffffffffffffffffffffff1603610adf576040517f08c379a0000000000000000000000000000000000000000000000000000000008152600401610ad6906118ec565b60405180910390fd5b600073ffffffffffffffffffffffffffffffffffffffff168273ffffffffffffffffffffffffffffffffffffffff1603610b4e576040517f08c379a0000000000000000000000000000000000000000000000000000000008152600401610b459061197e565b60405180910390fd5b80600160008573ffffffffffffffffffffffffffffffffffffffff1673ffffffffffffffffffffffffffffffffffffffff16815260200190815260200160002060008473ffffffffffffffffffffffffffffffffffffffff1673ffffffffffffffffffffffffffffffffffffffff168152602001908152602001600020819055508173ffffffffffffffffffffffffffffffffffffffff168373ffffffffffffffffffffffffffffffffffffffff167f8c5be1e5ebec7d5bd14f71427d1e84f3dd0314c0f7b2291e5b200ac8c7c3b92583604051610c2c9190611510565b60405180910390a3505050565b6000610c45848461092e565b90507fffffffffffffffffffffffffffffffffffffffffffffffffffffffffffffffff8114610cbf5781811015610cb1576040517f08c379a0000000000000000000000000000000000000000000000000000000008152600401610ca8906119ea565b60405180910390fd5b610cbe8484848403610a70565b5b50505050565b600073ffffffffffffffffffffffffffffffffffffffff168373ffffffffffffffffffffffffffffffffffffffff1603610d34576040517f08c379a0000000000000000000000000000000000000000000000000000000008152600401610d2b90611a7c565b60405180910390fd5b600073ffffffffffffffffffffffffffffffffffffffff168273ffffffffffffffffffffffffffffffffffffffff1603610da3576040517f08c379a0000000000000000000000000000000000000000000000000000000008152600401610d9a90611b0e565b60405180910390fd5b610dac83610717565b600760008573ffffffffffffffffffffffffffffffffffffffff1673ffffffffffffffffffffffffffffffffffffffff16815260200190815260200160002060006003815260200190815260200160002081905550610e0a82610717565b600760008473ffffffffffffffffffffffffffffffffffffffff1673ffffffffffffffffffffffffffffffffffffffff16815260200190815260200160002060006003815260200190815260200160002081905550610e6a838383611336565b60008060008573ffffffffffffffffffffffffffffffffffffffff1673ffffffffffffffffffffffffffffffffffffffff16815260200190815260200160002054905081811015610ef0576040517f08c379a0000000000000000000000000000000000000000000000000000000008152600401610ee790611ba0565b60405180910390fd5b8181036000808673ffffffffffffffffffffffffffffffffffffffff1673ffffffffffffffffffffffffffffffffffffffff16815260200190815260200160002081905550816000808573ffffffffffffffffffffffffffffffffffffffff1673ffffffffffffffffffffffffffffffffffffffff1681526020019081526020016000206000828254610f8391906116de565b925050819055508273ffffffffffffffffffffffffffffffffffffffff168473ffffffffffffffffffffffffffffffffffffffff167fddf252ad1be2c89b69c2b068fc378daa952ba7f163c4a11628f55a4df523b3ef84604051610fe79190611510565b60405180910390a3610ffa84848461133b565b43600760008673ffffffffffffffffffffffffffffffffffffffff1673ffffffffffffffffffffffffffffffffffffffff1681526020019081526020016000206000600181526020019081526020016000208190555043600760008573ffffffffffffffffffffffffffffffffffffffff1673ffffffffffffffffffffffffffffffffffffffff1681526020019081526020016000206000600181526020019081526020016000208190555050505050565b600073ffffffffffffffffffffffffffffffffffffffff168273ffffffffffffffffffffffffffffffffffffffff160361111b576040517f08c379a000000000000000000000000000000000000000000000000000000000815260040161111290611c32565b60405180910390fd5b61112482610717565b600760008473ffffffffffffffffffffffffffffffffffffffff1673ffffffffffffffffffffffffffffffffffffffff1681526020019081526020016000206000600381526020019081526020016000208190555061118582600083611336565b60008060008473ffffffffffffffffffffffffffffffffffffffff1673ffffffffffffffffffffffffffffffffffffffff1681526020019081526020016000205490508181101561120b576040517f08c379a000000000000000000000000000000000000000000000000000000000815260040161120290611cc4565b60405180910390fd5b8181036000808573ffffffffffffffffffffffffffffffffffffffff1673ffffffffffffffffffffffffffffffffffffffff16815260200190815260200160002081905550816002600082825461126291906117a4565b92505081905550600073ffffffffffffffffffffffffffffffffffffffff168373ffffffffffffffffffffffffffffffffffffffff167fddf252ad1be2c89b69c2b068fc378daa952ba7f163c4a11628f55a4df523b3ef846040516112c79190611510565b60405180910390a36112db8360008461133b565b43600760008573ffffffffffffffffffffffffffffffffffffffff1673ffffffffffffffffffffffffffffffffffffffff16815260200190815260200160002060006001815260200190815260200160002081905550505050565b505050565b505050565b600081519050919050565b600082825260208201905092915050565b60005b8381101561137a57808201518184015260208101905061135f565b60008484015250505050565b6000601f19601f8301169050919050565b60006113a282611340565b6113ac818561134b565b93506113bc81856020860161135c565b6113c581611386565b840191505092915050565b600060208201905081810360008301526113ea8184611397565b905092915050565b600080fd5b600073ffffffffffffffffffffffffffffffffffffffff82169050919050565b6000611422826113f7565b9050919050565b61143281611417565b811461143d57600080fd5b50565b60008135905061144f81611429565b92915050565b6000819050919050565b61146881611455565b811461147357600080fd5b50565b6000813590506114858161145f565b92915050565b600080604083850312156114a2576114a16113f2565b5b60006114b085828601611440565b92505060206114c185828601611476565b9150509250929050565b60008115159050919050565b6114e0816114cb565b82525050565b60006020820190506114fb60008301846114d7565b92915050565b61150a81611455565b82525050565b60006020820190506115256000830184611501565b92915050565b600080600060608486031215611544576115436113f2565b5b600061155286828701611440565b935050602061156386828701611440565b925050604061157486828701611476565b9150509250925092565b600060ff82169050919050565b6115948161157e565b82525050565b60006020820190506115af600083018461158b565b92915050565b6000602082840312156115cb576115ca6113f2565b5b60006115d984828501611476565b91505092915050565b6000602082840312156115f8576115f76113f2565b5b600061160684828501611440565b91505092915050565b60008060408385031215611626576116256113f2565b5b600061163485828601611440565b925050602061164585828601611440565b9150509250929050565b7f4e487b7100000000000000000000000000000000000000000000000000000000600052602260045260246000fd5b6000600282049050600182168061169657607f821691505b6020821081036116a9576116a861164f565b5b50919050565b7f4e487b7100000000000000000000000000000000000000000000000000000000600052601160045260246000fd5b60006116e982611455565b91506116f483611455565b925082820190508082111561170c5761170b6116af565b5b92915050565b7f45524332303a2064656372656173656420616c6c6f77616e63652062656c6f7760008201527f207a65726f000000000000000000000000000000000000000000000000000000602082015250565b600061176e60258361134b565b915061177982611712565b604082019050919050565b6000602082019050818103600083015261179d81611761565b9050919050565b60006117af82611455565b91506117ba83611455565b92508282039050818111156117d2576117d16116af565b5b92915050565b60006117e382611455565b91506117ee83611455565b92508282026117fc81611455565b91508282048414831517611813576118126116af565b5b5092915050565b7f4e487b7100000000000000000000000000000000000000000000000000000000600052601260045260246000fd5b600061185482611455565b915061185f83611455565b92508261186f5761186e61181a565b5b828204905092915050565b7f45524332303a20617070726f76652066726f6d20746865207a65726f2061646460008201527f7265737300000000000000000000000000000000000000000000000000000000602082015250565b60006118d660248361134b565b91506118e18261187a565b604082019050919050565b60006020820190508181036000830152611905816118c9565b9050919050565b7f45524332303a20617070726f766520746f20746865207a65726f20616464726560008201527f7373000000000000000000000000000000000000000000000000000000000000602082015250565b600061196860228361134b565b91506119738261190c565b604082019050919050565b600060208201905081810360008301526119978161195b565b9050919050565b7f45524332303a20696e73756666696369656e7420616c6c6f77616e6365000000600082015250565b60006119d4601d8361134b565b91506119df8261199e565b602082019050919050565b60006020820190508181036000830152611a03816119c7565b9050919050565b7f45524332303a207472616e736665722066726f6d20746865207a65726f20616460008201527f6472657373000000000000000000000000000000000000000000000000000000602082015250565b6000611a6660258361134b565b9150611a7182611a0a565b604082019050919050565b60006020820190508181036000830152611a9581611a59565b9050919050565b7f45524332303a207472616e7366657220746f20746865207a65726f206164647260008201527f6573730000000000000000000000000000000000000000000000000000000000602082015250565b6000611af860238361134b565b9150611b0382611a9c565b604082019050919050565b60006020820190508181036000830152611b2781611aeb565b9050919050565b7f45524332303a207472616e7366657220616d6f756e742065786365656473206260008201527f616c616e63650000000000000000000000000000000000000000000000000000602082015250565b6000611b8a60268361134b565b9150611b9582611b2e565b604082019050919050565b60006020820190508181036000830152611bb981611b7d565b9050919050565b7f45524332303a206275726e2066726f6d20746865207a65726f2061646472657360008201527f7300000000000000000000000000000000000000000000000000000000000000602082015250565b6000611c1c60218361134b565b9150611c2782611bc0565b604082019050919050565b60006020820190508181036000830152611c4b81611c0f565b9050919050565b7f45524332303a206275726e20616d6f756e7420657863656564732062616c616e60008201527f6365000000000000000000000000000000000000000000000000000000000000602082015250565b6000611cae60228361134b565b9150611cb982611c52565b604082019050919050565b60006020820190508181036000830152611cdd81611ca1565b905091905056fea2646970667358221220b662d63281a3b1b2d07e814286a7c1ef073f19bffbb3eb6cb8eadff9d436e57e64736f6c63430008110033",
					"opcodes": "PUSH1 0x80 PUSH1 0x40 MSTORE CALLVALUE DUP1 ISZERO PUSH3 0x11 JUMPI PUSH1 0x0 DUP1 REVERT JUMPDEST POP PUSH1 0x40 MLOAD DUP1 PUSH1 0x40 ADD PUSH1 0x40 MSTORE DUP1 PUSH1 0x9 DUP2 MSTORE PUSH1 0x20 ADD PUSH32 0x6D696E65506F7765720000000000000000000000000000000000000000000000 DUP2 MSTORE POP PUSH1 0x40 MLOAD DUP1 PUSH1 0x40 ADD PUSH1 0x40 MSTORE DUP1 PUSH1 0x6 DUP2 MSTORE PUSH1 0x20 ADD PUSH32 0x4D506F7765720000000000000000000000000000000000000000000000000000 DUP2 MSTORE POP DUP2 PUSH1 0x5 SWAP1 DUP2 PUSH3 0x8F SWAP2 SWAP1 PUSH3 0x96D JUMP JUMPDEST POP DUP1 PUSH1 0x6 SWAP1 DUP2 PUSH3 0xA1 SWAP2 SWAP1 PUSH3 0x96D JUMP JUMPDEST POP PUSH8 0x4563918244F40000 PUSH1 0x3 DUP2 SWAP1 SSTORE POP NUMBER PUSH1 0x4 DUP2 SWAP1 SSTORE POP POP POP PUSH3 0xFA CALLER PUSH3 0xCF PUSH3 0x100 PUSH1 0x20 SHL PUSH1 0x20 SHR JUMP JUMPDEST PUSH1 0xA PUSH3 0xDD SWAP2 SWAP1 PUSH3 0xBE4 JUMP JUMPDEST PUSH4 0x3938700 PUSH3 0xEE SWAP2 SWAP1 PUSH3 0xC35 JUMP JUMPDEST PUSH3 0x109 PUSH1 0x20 SHL PUSH1 0x20 SHR JUMP JUMPDEST PUSH3 0xE0E JUMP JUMPDEST PUSH1 0x0 PUSH1 0x12 SWAP1 POP SWAP1 JUMP JUMPDEST PUSH1 0x0 PUSH20 0xFFFFFFFFFFFFFFFFFFFFFFFFFFFFFFFFFFFFFFFF AND DUP3 PUSH20 0xFFFFFFFFFFFFFFFFFFFFFFFFFFFFFFFFFFFFFFFF AND SUB PUSH3 0x17B JUMPI PUSH1 0x40 MLOAD PUSH32 0x8C379A000000000000000000000000000000000000000000000000000000000 DUP2 MSTORE PUSH1 0x4 ADD PUSH3 0x172 SWAP1 PUSH3 0xCE1 JUMP JUMPDEST PUSH1 0x40 MLOAD DUP1 SWAP2 SUB SWAP1 REVERT JUMPDEST NUMBER PUSH1 0x7 PUSH1 0x0 DUP5 PUSH20 0xFFFFFFFFFFFFFFFFFFFFFFFFFFFFFFFFFFFFFFFF AND PUSH20 0xFFFFFFFFFFFFFFFFFFFFFFFFFFFFFFFFFFFFFFFF AND DUP2 MSTORE PUSH1 0x20 ADD SWAP1 DUP2 MSTORE PUSH1 0x20 ADD PUSH1 0x0 KECCAK256 PUSH1 0x0 PUSH1 0x1 DUP2 MSTORE PUSH1 0x20 ADD SWAP1 DUP2 MSTORE PUSH1 0x20 ADD PUSH1 0x0 KECCAK256 DUP2 SWAP1 SSTORE POP PUSH3 0x1E5 PUSH1 0x0 DUP4 DUP4 PUSH3 0x33D PUSH1 0x20 SHL PUSH1 0x20 SHR JUMP JUMPDEST DUP1 PUSH1 0x2 PUSH1 0x0 DUP3 DUP3 SLOAD PUSH3 0x1F9 SWAP2 SWAP1 PUSH3 0xD03 JUMP JUMPDEST SWAP3 POP POP DUP2 SWAP1 SSTORE POP DUP1 PUSH1 0x0 DUP1 DUP5 PUSH20 0xFFFFFFFFFFFFFFFFFFFFFFFFFFFFFFFFFFFFFFFF AND PUSH20 0xFFFFFFFFFFFFFFFFFFFFFFFFFFFFFFFFFFFFFFFF AND DUP2 MSTORE PUSH1 0x20 ADD SWAP1 DUP2 MSTORE PUSH1 0x20 ADD PUSH1 0x0 KECCAK256 PUSH1 0x0 DUP3 DUP3 SLOAD PUSH3 0x250 SWAP2 SWAP1 PUSH3 0xD03 JUMP JUMPDEST SWAP3 POP POP DUP2 SWAP1 SSTORE POP DUP2 PUSH20 0xFFFFFFFFFFFFFFFFFFFFFFFFFFFFFFFFFFFFFFFF AND PUSH1 0x0 PUSH20 0xFFFFFFFFFFFFFFFFFFFFFFFFFFFFFFFFFFFFFFFF AND PUSH32 0xDDF252AD1BE2C89B69C2B068FC378DAA952BA7F163C4A11628F55A4DF523B3EF DUP4 PUSH1 0x40 MLOAD PUSH3 0x2B7 SWAP2 SWAP1 PUSH3 0xD4F JUMP JUMPDEST PUSH1 0x40 MLOAD DUP1 SWAP2 SUB SWAP1 LOG3 PUSH3 0x2D3 PUSH1 0x0 DUP4 DUP4 PUSH3 0x342 PUSH1 0x20 SHL PUSH1 0x20 SHR JUMP JUMPDEST PUSH3 0x2E4 DUP3 PUSH3 0x347 PUSH1 0x20 SHL PUSH1 0x20 SHR JUMP JUMPDEST PUSH1 0x7 PUSH1 0x0 DUP5 PUSH20 0xFFFFFFFFFFFFFFFFFFFFFFFFFFFFFFFFFFFFFFFF AND PUSH20 0xFFFFFFFFFFFFFFFFFFFFFFFFFFFFFFFFFFFFFFFF AND DUP2 MSTORE PUSH1 0x20 ADD SWAP1 DUP2 MSTORE PUSH1 0x20 ADD PUSH1 0x0 KECCAK256 PUSH1 0x0 PUSH1 0x3 DUP2 MSTORE PUSH1 0x20 ADD SWAP1 DUP2 MSTORE PUSH1 0x20 ADD PUSH1 0x0 KECCAK256 DUP2 SWAP1 SSTORE POP POP POP JUMP JUMPDEST POP POP POP JUMP JUMPDEST POP POP POP JUMP JUMPDEST PUSH1 0x0 DUP1 PUSH3 0x3B5 PUSH1 0x7 PUSH1 0x0 DUP6 PUSH20 0xFFFFFFFFFFFFFFFFFFFFFFFFFFFFFFFFFFFFFFFF AND PUSH20 0xFFFFFFFFFFFFFFFFFFFFFFFFFFFFFFFFFFFFFFFF AND DUP2 MSTORE PUSH1 0x20 ADD SWAP1 DUP2 MSTORE PUSH1 0x20 ADD PUSH1 0x0 KECCAK256 PUSH1 0x0 PUSH1 0x1 DUP2 MSTORE PUSH1 0x20 ADD SWAP1 DUP2 MSTORE PUSH1 0x20 ADD PUSH1 0x0 KECCAK256 SLOAD NUMBER PUSH3 0x543 PUSH1 0x20 SHL PUSH3 0xA10 OR SWAP1 SWAP2 SWAP1 PUSH1 0x20 SHR JUMP JUMPDEST SWAP1 POP PUSH1 0x0 PUSH3 0x41B PUSH1 0x7 PUSH1 0x0 DUP7 PUSH20 0xFFFFFFFFFFFFFFFFFFFFFFFFFFFFFFFFFFFFFFFF AND PUSH20 0xFFFFFFFFFFFFFFFFFFFFFFFFFFFFFFFFFFFFFFFF AND DUP2 MSTORE PUSH1 0x20 ADD SWAP1 DUP2 MSTORE PUSH1 0x20 ADD PUSH1 0x0 KECCAK256 PUSH1 0x0 PUSH1 0x1 DUP2 MSTORE PUSH1 0x20 ADD SWAP1 DUP2 MSTORE PUSH1 0x20 ADD PUSH1 0x0 KECCAK256 SLOAD PUSH3 0x55B PUSH1 0x20 SHL PUSH1 0x20 SHR JUMP JUMPDEST SWAP1 POP PUSH1 0x0 PUSH3 0x430 NUMBER PUSH3 0x55B PUSH1 0x20 SHL PUSH1 0x20 SHR JUMP JUMPDEST SWAP1 POP PUSH1 0x0 PUSH3 0x481 PUSH1 0x2 PUSH3 0x46D DUP7 PUSH3 0x459 DUP7 DUP9 PUSH3 0x5E3 PUSH1 0x20 SHL PUSH3 0xA26 OR SWAP1 SWAP2 SWAP1 PUSH1 0x20 SHR JUMP JUMPDEST PUSH3 0x5FB PUSH1 0x20 SHL PUSH3 0xA3C OR SWAP1 SWAP2 SWAP1 PUSH1 0x20 SHR JUMP JUMPDEST PUSH3 0x613 PUSH1 0x20 SHL PUSH3 0xA52 OR SWAP1 SWAP2 SWAP1 PUSH1 0x20 SHR JUMP JUMPDEST SWAP1 POP PUSH1 0x0 PUSH3 0x4CA PUSH1 0x2 SLOAD PUSH3 0x4B6 PUSH3 0x4A1 DUP11 PUSH3 0x62B PUSH1 0x20 SHL PUSH1 0x20 SHR JUMP JUMPDEST DUP6 PUSH3 0x5FB PUSH1 0x20 SHL PUSH3 0xA3C OR SWAP1 SWAP2 SWAP1 PUSH1 0x20 SHR JUMP JUMPDEST PUSH3 0x613 PUSH1 0x20 SHL PUSH3 0xA52 OR SWAP1 SWAP2 SWAP1 PUSH1 0x20 SHR JUMP JUMPDEST SWAP1 POP PUSH3 0x537 DUP2 PUSH1 0x7 PUSH1 0x0 DUP11 PUSH20 0xFFFFFFFFFFFFFFFFFFFFFFFFFFFFFFFFFFFFFFFF AND PUSH20 0xFFFFFFFFFFFFFFFFFFFFFFFFFFFFFFFFFFFFFFFF AND DUP2 MSTORE PUSH1 0x20 ADD SWAP1 DUP2 MSTORE PUSH1 0x20 ADD PUSH1 0x0 KECCAK256 PUSH1 0x0 PUSH1 0x3 DUP2 MSTORE PUSH1 0x20 ADD SWAP1 DUP2 MSTORE PUSH1 0x20 ADD PUSH1 0x0 KECCAK256 SLOAD PUSH3 0x5E3 PUSH1 0x20 SHL PUSH3 0xA26 OR SWAP1 SWAP2 SWAP1 PUSH1 0x20 SHR JUMP JUMPDEST SWAP6 POP POP POP POP POP POP SWAP2 SWAP1 POP JUMP JUMPDEST PUSH1 0x0 DUP2 DUP4 PUSH3 0x553 SWAP2 SWAP1 PUSH3 0xD6C JUMP JUMPDEST SWAP1 POP SWAP3 SWAP2 POP POP JUMP JUMPDEST PUSH1 0x0 PUSH1 0x4 SLOAD DUP3 LT ISZERO PUSH3 0x56E JUMPI PUSH1 0x4 SLOAD SWAP2 POP JUMPDEST PUSH1 0x0 PUSH3 0x5A3 PUSH23 0xA70C3C40A64E6C51999090B65F67D9240000000000000 PUSH1 0x3 SLOAD PUSH3 0x5FB PUSH1 0x20 SHL PUSH3 0xA3C OR SWAP1 SWAP2 SWAP1 PUSH1 0x20 SHR JUMP JUMPDEST SWAP1 POP PUSH1 0x0 PUSH3 0x5B8 DUP5 PUSH3 0x673 PUSH1 0x20 SHL PUSH1 0x20 SHR JUMP JUMPDEST SWAP1 POP PUSH1 0x0 PUSH3 0x5D6 DUP3 DUP5 PUSH3 0x613 PUSH1 0x20 SHL PUSH3 0xA52 OR SWAP1 SWAP2 SWAP1 PUSH1 0x20 SHR JUMP JUMPDEST SWAP1 POP DUP1 SWAP4 POP POP POP POP SWAP2 SWAP1 POP JUMP JUMPDEST PUSH1 0x0 DUP2 DUP4 PUSH3 0x5F3 SWAP2 SWAP1 PUSH3 0xD03 JUMP JUMPDEST SWAP1 POP SWAP3 SWAP2 POP POP JUMP JUMPDEST PUSH1 0x0 DUP2 DUP4 PUSH3 0x60B SWAP2 SWAP1 PUSH3 0xC35 JUMP JUMPDEST SWAP1 POP SWAP3 SWAP2 POP POP JUMP JUMPDEST PUSH1 0x0 DUP2 DUP4 PUSH3 0x623 SWAP2 SWAP1 PUSH3 0xDD6 JUMP JUMPDEST SWAP1 POP SWAP3 SWAP2 POP POP JUMP JUMPDEST PUSH1 0x0 DUP1 PUSH1 0x0 DUP4 PUSH20 0xFFFFFFFFFFFFFFFFFFFFFFFFFFFFFFFFFFFFFFFF AND PUSH20 0xFFFFFFFFFFFFFFFFFFFFFFFFFFFFFFFFFFFFFFFF AND DUP2 MSTORE PUSH1 0x20 ADD SWAP1 DUP2 MSTORE PUSH1 0x20 ADD PUSH1 0x0 KECCAK256 SLOAD SWAP1 POP SWAP2 SWAP1 POP JUMP JUMPDEST PUSH1 0x0 DUP1 PUSH3 0x6B3 PUSH1 0x4 SLOAD PUSH3 0x69F PUSH8 0xDE0B6B3A7640000 DUP7 PUSH3 0x5FB PUSH1 0x20 SHL PUSH3 0xA3C OR SWAP1 SWAP2 SWAP1 PUSH1 0x20 SHR JUMP JUMPDEST PUSH3 0x613 PUSH1 0x20 SHL PUSH3 0xA52 OR SWAP1 SWAP2 SWAP1 PUSH1 0x20 SHR JUMP JUMPDEST SWAP1 POP PUSH3 0x6E8 DUP2 PUSH3 0x6D4 DUP4 DUP5 PUSH3 0x5FB PUSH1 0x20 SHL PUSH3 0xA3C OR SWAP1 SWAP2 SWAP1 PUSH1 0x20 SHR JUMP JUMPDEST PUSH3 0x5FB PUSH1 0x20 SHL PUSH3 0xA3C OR SWAP1 SWAP2 SWAP1 PUSH1 0x20 SHR JUMP JUMPDEST SWAP1 POP DUP1 SWAP2 POP POP SWAP2 SWAP1 POP JUMP JUMPDEST PUSH1 0x0 DUP2 MLOAD SWAP1 POP SWAP2 SWAP1 POP JUMP JUMPDEST PUSH32 0x4E487B7100000000000000000000000000000000000000000000000000000000 PUSH1 0x0 MSTORE PUSH1 0x41 PUSH1 0x4 MSTORE PUSH1 0x24 PUSH1 0x0 REVERT JUMPDEST PUSH32 0x4E487B7100000000000000000000000000000000000000000000000000000000 PUSH1 0x0 MSTORE PUSH1 0x22 PUSH1 0x4 MSTORE PUSH1 0x24 PUSH1 0x0 REVERT JUMPDEST PUSH1 0x0 PUSH1 0x2 DUP3 DIV SWAP1 POP PUSH1 0x1 DUP3 AND DUP1 PUSH3 0x775 JUMPI PUSH1 0x7F DUP3 AND SWAP2 POP JUMPDEST PUSH1 0x20 DUP3 LT DUP2 SUB PUSH3 0x78B JUMPI PUSH3 0x78A PUSH3 0x72D JUMP JUMPDEST JUMPDEST POP SWAP2 SWAP1 POP JUMP JUMPDEST PUSH1 0x0 DUP2 SWAP1 POP DUP2 PUSH1 0x0 MSTORE PUSH1 0x20 PUSH1 0x0 KECCAK256 SWAP1 POP SWAP2 SWAP1 POP JUMP JUMPDEST PUSH1 0x0 PUSH1 0x20 PUSH1 0x1F DUP4 ADD DIV SWAP1 POP SWAP2 SWAP1 POP JUMP JUMPDEST PUSH1 0x0 DUP3 DUP3 SHL SWAP1 POP SWAP3 SWAP2 POP POP JUMP JUMPDEST PUSH1 0x0 PUSH1 0x8 DUP4 MUL PUSH3 0x7F5 PUSH32 0xFFFFFFFFFFFFFFFFFFFFFFFFFFFFFFFFFFFFFFFFFFFFFFFFFFFFFFFFFFFFFFFF DUP3 PUSH3 0x7B6 JUMP JUMPDEST PUSH3 0x801 DUP7 DUP4 PUSH3 0x7B6 JUMP JUMPDEST SWAP6 POP DUP1 NOT DUP5 AND SWAP4 POP DUP1 DUP7 AND DUP5 OR SWAP3 POP POP POP SWAP4 SWAP3 POP POP POP JUMP JUMPDEST PUSH1 0x0 DUP2 SWAP1 POP SWAP2 SWAP1 POP JUMP JUMPDEST PUSH1 0x0 DUP2 SWAP1 POP SWAP2 SWAP1 POP JUMP JUMPDEST PUSH1 0x0 PUSH3 0x84E PUSH3 0x848 PUSH3 0x842 DUP5 PUSH3 0x819 JUMP JUMPDEST PUSH3 0x823 JUMP JUMPDEST PUSH3 0x819 JUMP JUMPDEST SWAP1 POP SWAP2 SWAP1 POP JUMP JUMPDEST PUSH1 0x0 DUP2 SWAP1 POP SWAP2 SWAP1 POP JUMP JUMPDEST PUSH3 0x86A DUP4 PUSH3 0x82D JUMP JUMPDEST PUSH3 0x882 PUSH3 0x879 DUP3 PUSH3 0x855 JUMP JUMPDEST DUP5 DUP5 SLOAD PUSH3 0x7C3 JUMP JUMPDEST DUP3 SSTORE POP POP POP POP JUMP JUMPDEST PUSH1 0x0 SWAP1 JUMP JUMPDEST PUSH3 0x899 PUSH3 0x88A JUMP JUMPDEST PUSH3 0x8A6 DUP2 DUP5 DUP5 PUSH3 0x85F JUMP JUMPDEST POP POP POP JUMP JUMPDEST JUMPDEST DUP2 DUP2 LT ISZERO PUSH3 0x8CE JUMPI PUSH3 0x8C2 PUSH1 0x0 DUP3 PUSH3 0x88F JUMP JUMPDEST PUSH1 0x1 DUP2 ADD SWAP1 POP PUSH3 0x8AC JUMP JUMPDEST POP POP JUMP JUMPDEST PUSH1 0x1F DUP3 GT ISZERO PUSH3 0x91D JUMPI PUSH3 0x8E7 DUP2 PUSH3 0x791 JUMP JUMPDEST PUSH3 0x8F2 DUP5 PUSH3 0x7A6 JUMP JUMPDEST DUP2 ADD PUSH1 0x20 DUP6 LT ISZERO PUSH3 0x902 JUMPI DUP2 SWAP1 POP JUMPDEST PUSH3 0x91A PUSH3 0x911 DUP6 PUSH3 0x7A6 JUMP JUMPDEST DUP4 ADD DUP3 PUSH3 0x8AB JUMP JUMPDEST POP POP JUMPDEST POP POP POP JUMP JUMPDEST PUSH1 0x0 DUP3 DUP3 SHR SWAP1 POP SWAP3 SWAP2 POP POP JUMP JUMPDEST PUSH1 0x0 PUSH3 0x942 PUSH1 0x0 NOT DUP5 PUSH1 0x8 MUL PUSH3 0x922 JUMP JUMPDEST NOT DUP1 DUP4 AND SWAP2 POP POP SWAP3 SWAP2 POP POP JUMP JUMPDEST PUSH1 0x0 PUSH3 0x95D DUP4 DUP4 PUSH3 0x92F JUMP JUMPDEST SWAP2 POP DUP3 PUSH1 0x2 MUL DUP3 OR SWAP1 POP SWAP3 SWAP2 POP POP JUMP JUMPDEST PUSH3 0x978 DUP3 PUSH3 0x6F3 JUMP JUMPDEST PUSH8 0xFFFFFFFFFFFFFFFF DUP2 GT ISZERO PUSH3 0x994 JUMPI PUSH3 0x993 PUSH3 0x6FE JUMP JUMPDEST JUMPDEST PUSH3 0x9A0 DUP3 SLOAD PUSH3 0x75C JUMP JUMPDEST PUSH3 0x9AD DUP3 DUP3 DUP6 PUSH3 0x8D2 JUMP JUMPDEST PUSH1 0x0 PUSH1 0x20 SWAP1 POP PUSH1 0x1F DUP4 GT PUSH1 0x1 DUP2 EQ PUSH3 0x9E5 JUMPI PUSH1 0x0 DUP5 ISZERO PUSH3 0x9D0 JUMPI DUP3 DUP8 ADD MLOAD SWAP1 POP JUMPDEST PUSH3 0x9DC DUP6 DUP3 PUSH3 0x94F JUMP JUMPDEST DUP7 SSTORE POP PUSH3 0xA4C JUMP JUMPDEST PUSH1 0x1F NOT DUP5 AND PUSH3 0x9F5 DUP7 PUSH3 0x791 JUMP JUMPDEST PUSH1 0x0 JUMPDEST DUP3 DUP2 LT ISZERO PUSH3 0xA1F JUMPI DUP5 DUP10 ADD MLOAD DUP3 SSTORE PUSH1 0x1 DUP3 ADD SWAP2 POP PUSH1 0x20 DUP6 ADD SWAP5 POP PUSH1 0x20 DUP2 ADD SWAP1 POP PUSH3 0x9F8 JUMP JUMPDEST DUP7 DUP4 LT ISZERO PUSH3 0xA3F JUMPI DUP5 DUP10 ADD MLOAD PUSH3 0xA3B PUSH1 0x1F DUP10 AND DUP3 PUSH3 0x92F JUMP JUMPDEST DUP4 SSTORE POP JUMPDEST PUSH1 0x1 PUSH1 0x2 DUP9 MUL ADD DUP9 SSTORE POP POP POP JUMPDEST POP POP POP POP POP POP JUMP JUMPDEST PUSH32 0x4E487B7100000000000000000000000000000000000000000000000000000000 PUSH1 0x0 MSTORE PUSH1 0x11 PUSH1 0x4 MSTORE PUSH1 0x24 PUSH1 0x0 REVERT JUMPDEST PUSH1 0x0 DUP2 PUSH1 0x1 SHR SWAP1 POP SWAP2 SWAP1 POP JUMP JUMPDEST PUSH1 0x0 DUP1 DUP3 SWAP2 POP DUP4 SWAP1 POP JUMPDEST PUSH1 0x1 DUP6 GT ISZERO PUSH3 0xAE2 JUMPI DUP1 DUP7 DIV DUP2 GT ISZERO PUSH3 0xABA JUMPI PUSH3 0xAB9 PUSH3 0xA54 JUMP JUMPDEST JUMPDEST PUSH1 0x1 DUP6 AND ISZERO PUSH3 0xACA JUMPI DUP1 DUP3 MUL SWAP2 POP JUMPDEST DUP1 DUP2 MUL SWAP1 POP PUSH3 0xADA DUP6 PUSH3 0xA83 JUMP JUMPDEST SWAP5 POP PUSH3 0xA9A JUMP JUMPDEST SWAP5 POP SWAP5 SWAP3 POP POP POP JUMP JUMPDEST PUSH1 0x0 DUP3 PUSH3 0xAFD JUMPI PUSH1 0x1 SWAP1 POP PUSH3 0xBD0 JUMP JUMPDEST DUP2 PUSH3 0xB0D JUMPI PUSH1 0x0 SWAP1 POP PUSH3 0xBD0 JUMP JUMPDEST DUP2 PUSH1 0x1 DUP2 EQ PUSH3 0xB26 JUMPI PUSH1 0x2 DUP2 EQ PUSH3 0xB31 JUMPI PUSH3 0xB67 JUMP JUMPDEST PUSH1 0x1 SWAP2 POP POP PUSH3 0xBD0 JUMP JUMPDEST PUSH1 0xFF DUP5 GT ISZERO PUSH3 0xB46 JUMPI PUSH3 0xB45 PUSH3 0xA54 JUMP JUMPDEST JUMPDEST DUP4 PUSH1 0x2 EXP SWAP2 POP DUP5 DUP3 GT ISZERO PUSH3 0xB60 JUMPI PUSH3 0xB5F PUSH3 0xA54 JUMP JUMPDEST JUMPDEST POP PUSH3 0xBD0 JUMP JUMPDEST POP PUSH1 0x20 DUP4 LT PUSH2 0x133 DUP4 LT AND PUSH1 0x4E DUP5 LT PUSH1 0xB DUP5 LT AND OR ISZERO PUSH3 0xBA1 JUMPI DUP3 DUP3 EXP SWAP1 POP DUP4 DUP2 GT ISZERO PUSH3 0xB9B JUMPI PUSH3 0xB9A PUSH3 0xA54 JUMP JUMPDEST JUMPDEST PUSH3 0xBD0 JUMP JUMPDEST PUSH3 0xBB0 DUP5 DUP5 DUP5 PUSH1 0x1 PUSH3 0xA90 JUMP JUMPDEST SWAP3 POP SWAP1 POP DUP2 DUP5 DIV DUP2 GT ISZERO PUSH3 0xBCA JUMPI PUSH3 0xBC9 PUSH3 0xA54 JUMP JUMPDEST JUMPDEST DUP2 DUP2 MUL SWAP1 POP JUMPDEST SWAP4 SWAP3 POP POP POP JUMP JUMPDEST PUSH1 0x0 PUSH1 0xFF DUP3 AND SWAP1 POP SWAP2 SWAP1 POP JUMP JUMPDEST PUSH1 0x0 PUSH3 0xBF1 DUP3 PUSH3 0x819 JUMP JUMPDEST SWAP2 POP PUSH3 0xBFE DUP4 PUSH3 0xBD7 JUMP JUMPDEST SWAP3 POP PUSH3 0xC2D PUSH32 0xFFFFFFFFFFFFFFFFFFFFFFFFFFFFFFFFFFFFFFFFFFFFFFFFFFFFFFFFFFFFFFFF DUP5 DUP5 PUSH3 0xAEB JUMP JUMPDEST SWAP1 POP SWAP3 SWAP2 POP POP JUMP JUMPDEST PUSH1 0x0 PUSH3 0xC42 DUP3 PUSH3 0x819 JUMP JUMPDEST SWAP2 POP PUSH3 0xC4F DUP4 PUSH3 0x819 JUMP JUMPDEST SWAP3 POP DUP3 DUP3 MUL PUSH3 0xC5F DUP2 PUSH3 0x819 JUMP JUMPDEST SWAP2 POP DUP3 DUP3 DIV DUP5 EQ DUP4 ISZERO OR PUSH3 0xC79 JUMPI PUSH3 0xC78 PUSH3 0xA54 JUMP JUMPDEST JUMPDEST POP SWAP3 SWAP2 POP POP JUMP JUMPDEST PUSH1 0x0 DUP3 DUP3 MSTORE PUSH1 0x20 DUP3 ADD SWAP1 POP SWAP3 SWAP2 POP POP JUMP JUMPDEST PUSH32 0x45524332303A206D696E7420746F20746865207A65726F206164647265737300 PUSH1 0x0 DUP3 ADD MSTORE POP JUMP JUMPDEST PUSH1 0x0 PUSH3 0xCC9 PUSH1 0x1F DUP4 PUSH3 0xC80 JUMP JUMPDEST SWAP2 POP PUSH3 0xCD6 DUP3 PUSH3 0xC91 JUMP JUMPDEST PUSH1 0x20 DUP3 ADD SWAP1 POP SWAP2 SWAP1 POP JUMP JUMPDEST PUSH1 0x0 PUSH1 0x20 DUP3 ADD SWAP1 POP DUP2 DUP2 SUB PUSH1 0x0 DUP4 ADD MSTORE PUSH3 0xCFC DUP2 PUSH3 0xCBA JUMP JUMPDEST SWAP1 POP SWAP2 SWAP1 POP JUMP JUMPDEST PUSH1 0x0 PUSH3 0xD10 DUP3 PUSH3 0x819 JUMP JUMPDEST SWAP2 POP PUSH3 0xD1D DUP4 PUSH3 0x819 JUMP JUMPDEST SWAP3 POP DUP3 DUP3 ADD SWAP1 POP DUP1 DUP3 GT ISZERO PUSH3 0xD38 JUMPI PUSH3 0xD37 PUSH3 0xA54 JUMP JUMPDEST JUMPDEST SWAP3 SWAP2 POP POP JUMP JUMPDEST PUSH3 0xD49 DUP2 PUSH3 0x819 JUMP JUMPDEST DUP3 MSTORE POP POP JUMP JUMPDEST PUSH1 0x0 PUSH1 0x20 DUP3 ADD SWAP1 POP PUSH3 0xD66 PUSH1 0x0 DUP4 ADD DUP5 PUSH3 0xD3E JUMP JUMPDEST SWAP3 SWAP2 POP POP JUMP JUMPDEST PUSH1 0x0 PUSH3 0xD79 DUP3 PUSH3 0x819 JUMP JUMPDEST SWAP2 POP PUSH3 0xD86 DUP4 PUSH3 0x819 JUMP JUMPDEST SWAP3 POP DUP3 DUP3 SUB SWAP1 POP DUP2 DUP2 GT ISZERO PUSH3 0xDA1 JUMPI PUSH3 0xDA0 PUSH3 0xA54 JUMP JUMPDEST JUMPDEST SWAP3 SWAP2 POP POP JUMP JUMPDEST PUSH32 0x4E487B7100000000000000000000000000000000000000000000000000000000 PUSH1 0x0 MSTORE PUSH1 0x12 PUSH1 0x4 MSTORE PUSH1 0x24 PUSH1 0x0 REVERT JUMPDEST PUSH1 0x0 PUSH3 0xDE3 DUP3 PUSH3 0x819 JUMP JUMPDEST SWAP2 POP PUSH3 0xDF0 DUP4 PUSH3 0x819 JUMP JUMPDEST SWAP3 POP DUP3 PUSH3 0xE03 JUMPI PUSH3 0xE02 PUSH3 0xDA7 JUMP JUMPDEST JUMPDEST DUP3 DUP3 DIV SWAP1 POP SWAP3 SWAP2 POP POP JUMP JUMPDEST PUSH2 0x1D1A DUP1 PUSH3 0xE1E PUSH1 0x0 CODECOPY PUSH1 0x0 RETURN INVALID PUSH1 0x80 PUSH1 0x40 MSTORE CALLVALUE DUP1 ISZERO PUSH2 0x10 JUMPI PUSH1 0x0 DUP1 REVERT JUMPDEST POP PUSH1 0x4 CALLDATASIZE LT PUSH2 0x10B JUMPI PUSH1 0x0 CALLDATALOAD PUSH1 0xE0 SHR DUP1 PUSH4 0x70A08231 GT PUSH2 0xA2 JUMPI DUP1 PUSH4 0xA9059CBB GT PUSH2 0x71 JUMPI DUP1 PUSH4 0xA9059CBB EQ PUSH2 0x2E0 JUMPI DUP1 PUSH4 0xB8BA6007 EQ PUSH2 0x310 JUMPI DUP1 PUSH4 0xD993226B EQ PUSH2 0x340 JUMPI DUP1 PUSH4 0xDD62ED3E EQ PUSH2 0x370 JUMPI DUP1 PUSH4 0xEFF0730D EQ PUSH2 0x3A0 JUMPI PUSH2 0x10B JUMP JUMPDEST DUP1 PUSH4 0x70A08231 EQ PUSH2 0x246 JUMPI DUP1 PUSH4 0x79CC6790 EQ PUSH2 0x276 JUMPI DUP1 PUSH4 0x95D89B41 EQ PUSH2 0x292 JUMPI DUP1 PUSH4 0xA457C2D7 EQ PUSH2 0x2B0 JUMPI PUSH2 0x10B JUMP JUMPDEST DUP1 PUSH4 0x313CE567 GT PUSH2 0xDE JUMPI DUP1 PUSH4 0x313CE567 EQ PUSH2 0x1AC JUMPI DUP1 PUSH4 0x39509351 EQ PUSH2 0x1CA JUMPI DUP1 PUSH4 0x42966C68 EQ PUSH2 0x1FA JUMPI DUP1 PUSH4 0x4BE3403C EQ PUSH2 0x216 JUMPI PUSH2 0x10B JUMP JUMPDEST DUP1 PUSH4 0x6FDDE03 EQ PUSH2 0x110 JUMPI DUP1 PUSH4 0x95EA7B3 EQ PUSH2 0x12E JUMPI DUP1 PUSH4 0x18160DDD EQ PUSH2 0x15E JUMPI DUP1 PUSH4 0x23B872DD EQ PUSH2 0x17C JUMPI JUMPDEST PUSH1 0x0 DUP1 REVERT JUMPDEST PUSH2 0x118 PUSH2 0x3D0 JUMP JUMPDEST PUSH1 0x40 MLOAD PUSH2 0x125 SWAP2 SWAP1 PUSH2 0x13D0 JUMP JUMPDEST PUSH1 0x40 MLOAD DUP1 SWAP2 SUB SWAP1 RETURN JUMPDEST PUSH2 0x148 PUSH1 0x4 DUP1 CALLDATASIZE SUB DUP2 ADD SWAP1 PUSH2 0x143 SWAP2 SWAP1 PUSH2 0x148B JUMP JUMPDEST PUSH2 0x462 JUMP JUMPDEST PUSH1 0x40 MLOAD PUSH2 0x155 SWAP2 SWAP1 PUSH2 0x14E6 JUMP JUMPDEST PUSH1 0x40 MLOAD DUP1 SWAP2 SUB SWAP1 RETURN JUMPDEST PUSH2 0x166 PUSH2 0x485 JUMP JUMPDEST PUSH1 0x40 MLOAD PUSH2 0x173 SWAP2 SWAP1 PUSH2 0x1510 JUMP JUMPDEST PUSH1 0x40 MLOAD DUP1 SWAP2 SUB SWAP1 RETURN JUMPDEST PUSH2 0x196 PUSH1 0x4 DUP1 CALLDATASIZE SUB DUP2 ADD SWAP1 PUSH2 0x191 SWAP2 SWAP1 PUSH2 0x152B JUMP JUMPDEST PUSH2 0x48F JUMP JUMPDEST PUSH1 0x40 MLOAD PUSH2 0x1A3 SWAP2 SWAP1 PUSH2 0x14E6 JUMP JUMPDEST PUSH1 0x40 MLOAD DUP1 SWAP2 SUB SWAP1 RETURN JUMPDEST PUSH2 0x1B4 PUSH2 0x4BE JUMP JUMPDEST PUSH1 0x40 MLOAD PUSH2 0x1C1 SWAP2 SWAP1 PUSH2 0x159A JUMP JUMPDEST PUSH1 0x40 MLOAD DUP1 SWAP2 SUB SWAP1 RETURN JUMPDEST PUSH2 0x1E4 PUSH1 0x4 DUP1 CALLDATASIZE SUB DUP2 ADD SWAP1 PUSH2 0x1DF SWAP2 SWAP1 PUSH2 0x148B JUMP JUMPDEST PUSH2 0x4C7 JUMP JUMPDEST PUSH1 0x40 MLOAD PUSH2 0x1F1 SWAP2 SWAP1 PUSH2 0x14E6 JUMP JUMPDEST PUSH1 0x40 MLOAD DUP1 SWAP2 SUB SWAP1 RETURN JUMPDEST PUSH2 0x214 PUSH1 0x4 DUP1 CALLDATASIZE SUB DUP2 ADD SWAP1 PUSH2 0x20F SWAP2 SWAP1 PUSH2 0x15B5 JUMP JUMPDEST PUSH2 0x4FE JUMP JUMPDEST STOP JUMPDEST PUSH2 0x230 PUSH1 0x4 DUP1 CALLDATASIZE SUB DUP2 ADD SWAP1 PUSH2 0x22B SWAP2 SWAP1 PUSH2 0x15B5 JUMP JUMPDEST PUSH2 0x512 JUMP JUMPDEST PUSH1 0x40 MLOAD PUSH2 0x23D SWAP2 SWAP1 PUSH2 0x1510 JUMP JUMPDEST PUSH1 0x40 MLOAD DUP1 SWAP2 SUB SWAP1 RETURN JUMPDEST PUSH2 0x260 PUSH1 0x4 DUP1 CALLDATASIZE SUB DUP2 ADD SWAP1 PUSH2 0x25B SWAP2 SWAP1 PUSH2 0x15E2 JUMP JUMPDEST PUSH2 0x583 JUMP JUMPDEST PUSH1 0x40 MLOAD PUSH2 0x26D SWAP2 SWAP1 PUSH2 0x1510 JUMP JUMPDEST PUSH1 0x40 MLOAD DUP1 SWAP2 SUB SWAP1 RETURN JUMPDEST PUSH2 0x290 PUSH1 0x4 DUP1 CALLDATASIZE SUB DUP2 ADD SWAP1 PUSH2 0x28B SWAP2 SWAP1 PUSH2 0x148B JUMP JUMPDEST PUSH2 0x5CB JUMP JUMPDEST STOP JUMPDEST PUSH2 0x29A PUSH2 0x5EB JUMP JUMPDEST PUSH1 0x40 MLOAD PUSH2 0x2A7 SWAP2 SWAP1 PUSH2 0x13D0 JUMP JUMPDEST PUSH1 0x40 MLOAD DUP1 SWAP2 SUB SWAP1 RETURN JUMPDEST PUSH2 0x2CA PUSH1 0x4 DUP1 CALLDATASIZE SUB DUP2 ADD SWAP1 PUSH2 0x2C5 SWAP2 SWAP1 PUSH2 0x148B JUMP JUMPDEST PUSH2 0x67D JUMP JUMPDEST PUSH1 0x40 MLOAD PUSH2 0x2D7 SWAP2 SWAP1 PUSH2 0x14E6 JUMP JUMPDEST PUSH1 0x40 MLOAD DUP1 SWAP2 SUB SWAP1 RETURN JUMPDEST PUSH2 0x2FA PUSH1 0x4 DUP1 CALLDATASIZE SUB DUP2 ADD SWAP1 PUSH2 0x2F5 SWAP2 SWAP1 PUSH2 0x148B JUMP JUMPDEST PUSH2 0x6F4 JUMP JUMPDEST PUSH1 0x40 MLOAD PUSH2 0x307 SWAP2 SWAP1 PUSH2 0x14E6 JUMP JUMPDEST PUSH1 0x40 MLOAD DUP1 SWAP2 SUB SWAP1 RETURN JUMPDEST PUSH2 0x32A PUSH1 0x4 DUP1 CALLDATASIZE SUB DUP2 ADD SWAP1 PUSH2 0x325 SWAP2 SWAP1 PUSH2 0x15E2 JUMP JUMPDEST PUSH2 0x717 JUMP JUMPDEST PUSH1 0x40 MLOAD PUSH2 0x337 SWAP2 SWAP1 PUSH2 0x1510 JUMP JUMPDEST PUSH1 0x40 MLOAD DUP1 SWAP2 SUB SWAP1 RETURN JUMPDEST PUSH2 0x35A PUSH1 0x4 DUP1 CALLDATASIZE SUB DUP2 ADD SWAP1 PUSH2 0x355 SWAP2 SWAP1 PUSH2 0x15B5 JUMP JUMPDEST PUSH2 0x8CA JUMP JUMPDEST PUSH1 0x40 MLOAD PUSH2 0x367 SWAP2 SWAP1 PUSH2 0x1510 JUMP JUMPDEST PUSH1 0x40 MLOAD DUP1 SWAP2 SUB SWAP1 RETURN JUMPDEST PUSH2 0x38A PUSH1 0x4 DUP1 CALLDATASIZE SUB DUP2 ADD SWAP1 PUSH2 0x385 SWAP2 SWAP1 PUSH2 0x160F JUMP JUMPDEST PUSH2 0x92E JUMP JUMPDEST PUSH1 0x40 MLOAD PUSH2 0x397 SWAP2 SWAP1 PUSH2 0x1510 JUMP JUMPDEST PUSH1 0x40 MLOAD DUP1 SWAP2 SUB SWAP1 RETURN JUMPDEST PUSH2 0x3BA PUSH1 0x4 DUP1 CALLDATASIZE SUB DUP2 ADD SWAP1 PUSH2 0x3B5 SWAP2 SWAP1 PUSH2 0x148B JUMP JUMPDEST PUSH2 0x9B5 JUMP JUMPDEST PUSH1 0x40 MLOAD PUSH2 0x3C7 SWAP2 SWAP1 PUSH2 0x1510 JUMP JUMPDEST PUSH1 0x40 MLOAD DUP1 SWAP2 SUB SWAP1 RETURN JUMPDEST PUSH1 0x60 PUSH1 0x5 DUP1 SLOAD PUSH2 0x3DF SWAP1 PUSH2 0x167E JUMP JUMPDEST DUP1 PUSH1 0x1F ADD PUSH1 0x20 DUP1 SWAP2 DIV MUL PUSH1 0x20 ADD PUSH1 0x40 MLOAD SWAP1 DUP2 ADD PUSH1 0x40 MSTORE DUP1 SWAP3 SWAP2 SWAP1 DUP2 DUP2 MSTORE PUSH1 0x20 ADD DUP3 DUP1 SLOAD PUSH2 0x40B SWAP1 PUSH2 0x167E JUMP JUMPDEST DUP1 ISZERO PUSH2 0x458 JUMPI DUP1 PUSH1 0x1F LT PUSH2 0x42D JUMPI PUSH2 0x100 DUP1 DUP4 SLOAD DIV MUL DUP4 MSTORE SWAP2 PUSH1 0x20 ADD SWAP2 PUSH2 0x458 JUMP JUMPDEST DUP3 ADD SWAP2 SWAP1 PUSH1 0x0 MSTORE PUSH1 0x20 PUSH1 0x0 KECCAK256 SWAP1 JUMPDEST DUP2 SLOAD DUP2 MSTORE SWAP1 PUSH1 0x1 ADD SWAP1 PUSH1 0x20 ADD DUP1 DUP4 GT PUSH2 0x43B JUMPI DUP3 SWAP1 SUB PUSH1 0x1F AND DUP3 ADD SWAP2 JUMPDEST POP POP POP POP POP SWAP1 POP SWAP1 JUMP JUMPDEST PUSH1 0x0 DUP1 PUSH2 0x46D PUSH2 0xA68 JUMP JUMPDEST SWAP1 POP PUSH2 0x47A DUP2 DUP6 DUP6 PUSH2 0xA70 JUMP JUMPDEST PUSH1 0x1 SWAP2 POP POP SWAP3 SWAP2 POP POP JUMP JUMPDEST PUSH1 0x0 PUSH1 0x2 SLOAD SWAP1 POP SWAP1 JUMP JUMPDEST PUSH1 0x0 DUP1 PUSH2 0x49A PUSH2 0xA68 JUMP JUMPDEST SWAP1 POP PUSH2 0x4A7 DUP6 DUP3 DUP6 PUSH2 0xC39 JUMP JUMPDEST PUSH2 0x4B2 DUP6 DUP6 DUP6 PUSH2 0xCC5 JUMP JUMPDEST PUSH1 0x1 SWAP2 POP POP SWAP4 SWAP3 POP POP POP JUMP JUMPDEST PUSH1 0x0 PUSH1 0x12 SWAP1 POP SWAP1 JUMP JUMPDEST PUSH1 0x0 DUP1 PUSH2 0x4D2 PUSH2 0xA68 JUMP JUMPDEST SWAP1 POP PUSH2 0x4F3 DUP2 DUP6 DUP6 PUSH2 0x4E4 DUP6 DUP10 PUSH2 0x92E JUMP JUMPDEST PUSH2 0x4EE SWAP2 SWAP1 PUSH2 0x16DE JUMP JUMPDEST PUSH2 0xA70 JUMP JUMPDEST PUSH1 0x1 SWAP2 POP POP SWAP3 SWAP2 POP POP JUMP JUMPDEST PUSH2 0x50F PUSH2 0x509 PUSH2 0xA68 JUMP JUMPDEST DUP3 PUSH2 0x10AC JUMP JUMPDEST POP JUMP JUMPDEST PUSH1 0x0 PUSH1 0x4 SLOAD DUP3 LT ISZERO PUSH2 0x524 JUMPI PUSH1 0x4 SLOAD SWAP2 POP JUMPDEST PUSH1 0x0 PUSH2 0x552 PUSH23 0xA70C3C40A64E6C51999090B65F67D9240000000000000 PUSH1 0x3 SLOAD PUSH2 0xA3C SWAP1 SWAP2 SWAP1 PUSH4 0xFFFFFFFF AND JUMP JUMPDEST SWAP1 POP PUSH1 0x0 PUSH2 0x55F DUP5 PUSH2 0x8CA JUMP JUMPDEST SWAP1 POP PUSH1 0x0 PUSH2 0x576 DUP3 DUP5 PUSH2 0xA52 SWAP1 SWAP2 SWAP1 PUSH4 0xFFFFFFFF AND JUMP JUMPDEST SWAP1 POP DUP1 SWAP4 POP POP POP POP SWAP2 SWAP1 POP JUMP JUMPDEST PUSH1 0x0 DUP1 PUSH1 0x0 DUP4 PUSH20 0xFFFFFFFFFFFFFFFFFFFFFFFFFFFFFFFFFFFFFFFF AND PUSH20 0xFFFFFFFFFFFFFFFFFFFFFFFFFFFFFFFFFFFFFFFF AND DUP2 MSTORE PUSH1 0x20 ADD SWAP1 DUP2 MSTORE PUSH1 0x20 ADD PUSH1 0x0 KECCAK256 SLOAD SWAP1 POP SWAP2 SWAP1 POP JUMP JUMPDEST PUSH2 0x5DD DUP3 PUSH2 0x5D7 PUSH2 0xA68 JUMP JUMPDEST DUP4 PUSH2 0xC39 JUMP JUMPDEST PUSH2 0x5E7 DUP3 DUP3 PUSH2 0x10AC JUMP JUMPDEST POP POP JUMP JUMPDEST PUSH1 0x60 PUSH1 0x6 DUP1 SLOAD PUSH2 0x5FA SWAP1 PUSH2 0x167E JUMP JUMPDEST DUP1 PUSH1 0x1F ADD PUSH1 0x20 DUP1 SWAP2 DIV MUL PUSH1 0x20 ADD PUSH1 0x40 MLOAD SWAP1 DUP2 ADD PUSH1 0x40 MSTORE DUP1 SWAP3 SWAP2 SWAP1 DUP2 DUP2 MSTORE PUSH1 0x20 ADD DUP3 DUP1 SLOAD PUSH2 0x626 SWAP1 PUSH2 0x167E JUMP JUMPDEST DUP1 ISZERO PUSH2 0x673 JUMPI DUP1 PUSH1 0x1F LT PUSH2 0x648 JUMPI PUSH2 0x100 DUP1 DUP4 SLOAD DIV MUL DUP4 MSTORE SWAP2 PUSH1 0x20 ADD SWAP2 PUSH2 0x673 JUMP JUMPDEST DUP3 ADD SWAP2 SWAP1 PUSH1 0x0 MSTORE PUSH1 0x20 PUSH1 0x0 KECCAK256 SWAP1 JUMPDEST DUP2 SLOAD DUP2 MSTORE SWAP1 PUSH1 0x1 ADD SWAP1 PUSH1 0x20 ADD DUP1 DUP4 GT PUSH2 0x656 JUMPI DUP3 SWAP1 SUB PUSH1 0x1F AND DUP3 ADD SWAP2 JUMPDEST POP POP POP POP POP SWAP1 POP SWAP1 JUMP JUMPDEST PUSH1 0x0 DUP1 PUSH2 0x688 PUSH2 0xA68 JUMP JUMPDEST SWAP1 POP PUSH1 0x0 PUSH2 0x696 DUP3 DUP7 PUSH2 0x92E JUMP JUMPDEST SWAP1 POP DUP4 DUP2 LT ISZERO PUSH2 0x6DB JUMPI PUSH1 0x40 MLOAD PUSH32 0x8C379A000000000000000000000000000000000000000000000000000000000 DUP2 MSTORE PUSH1 0x4 ADD PUSH2 0x6D2 SWAP1 PUSH2 0x1784 JUMP JUMPDEST PUSH1 0x40 MLOAD DUP1 SWAP2 SUB SWAP1 REVERT JUMPDEST PUSH2 0x6E8 DUP3 DUP7 DUP7 DUP5 SUB PUSH2 0xA70 JUMP JUMPDEST PUSH1 0x1 SWAP3 POP POP POP SWAP3 SWAP2 POP POP JUMP JUMPDEST PUSH1 0x0 DUP1 PUSH2 0x6FF PUSH2 0xA68 JUMP JUMPDEST SWAP1 POP PUSH2 0x70C DUP2 DUP6 DUP6 PUSH2 0xCC5 JUMP JUMPDEST PUSH1 0x1 SWAP2 POP POP SWAP3 SWAP2 POP POP JUMP JUMPDEST PUSH1 0x0 DUP1 PUSH2 0x77E PUSH1 0x7 PUSH1 0x0 DUP6 PUSH20 0xFFFFFFFFFFFFFFFFFFFFFFFFFFFFFFFFFFFFFFFF AND PUSH20 0xFFFFFFFFFFFFFFFFFFFFFFFFFFFFFFFFFFFFFFFF AND DUP2 MSTORE PUSH1 0x20 ADD SWAP1 DUP2 MSTORE PUSH1 0x20 ADD PUSH1 0x0 KECCAK256 PUSH1 0x0 PUSH1 0x1 DUP2 MSTORE PUSH1 0x20 ADD SWAP1 DUP2 MSTORE PUSH1 0x20 ADD PUSH1 0x0 KECCAK256 SLOAD NUMBER PUSH2 0xA10 SWAP1 SWAP2 SWAP1 PUSH4 0xFFFFFFFF AND JUMP JUMPDEST SWAP1 POP PUSH1 0x0 PUSH2 0x7DC PUSH1 0x7 PUSH1 0x0 DUP7 PUSH20 0xFFFFFFFFFFFFFFFFFFFFFFFFFFFFFFFFFFFFFFFF AND PUSH20 0xFFFFFFFFFFFFFFFFFFFFFFFFFFFFFFFFFFFFFFFF AND DUP2 MSTORE PUSH1 0x20 ADD SWAP1 DUP2 MSTORE PUSH1 0x20 ADD PUSH1 0x0 KECCAK256 PUSH1 0x0 PUSH1 0x1 DUP2 MSTORE PUSH1 0x20 ADD SWAP1 DUP2 MSTORE PUSH1 0x20 ADD PUSH1 0x0 KECCAK256 SLOAD PUSH2 0x512 JUMP JUMPDEST SWAP1 POP PUSH1 0x0 PUSH2 0x7E9 NUMBER PUSH2 0x512 JUMP JUMPDEST SWAP1 POP PUSH1 0x0 PUSH2 0x825 PUSH1 0x2 PUSH2 0x817 DUP7 PUSH2 0x809 DUP7 DUP9 PUSH2 0xA26 SWAP1 SWAP2 SWAP1 PUSH4 0xFFFFFFFF AND JUMP JUMPDEST PUSH2 0xA3C SWAP1 SWAP2 SWAP1 PUSH4 0xFFFFFFFF AND JUMP JUMPDEST PUSH2 0xA52 SWAP1 SWAP2 SWAP1 PUSH4 0xFFFFFFFF AND JUMP JUMPDEST SWAP1 POP PUSH1 0x0 PUSH2 0x858 PUSH1 0x2 SLOAD PUSH2 0x84A PUSH2 0x83B DUP11 PUSH2 0x583 JUMP JUMPDEST DUP6 PUSH2 0xA3C SWAP1 SWAP2 SWAP1 PUSH4 0xFFFFFFFF AND JUMP JUMPDEST PUSH2 0xA52 SWAP1 SWAP2 SWAP1 PUSH4 0xFFFFFFFF AND JUMP JUMPDEST SWAP1 POP PUSH2 0x8BE DUP2 PUSH1 0x7 PUSH1 0x0 DUP11 PUSH20 0xFFFFFFFFFFFFFFFFFFFFFFFFFFFFFFFFFFFFFFFF AND PUSH20 0xFFFFFFFFFFFFFFFFFFFFFFFFFFFFFFFFFFFFFFFF AND DUP2 MSTORE PUSH1 0x20 ADD SWAP1 DUP2 MSTORE PUSH1 0x20 ADD PUSH1 0x0 KECCAK256 PUSH1 0x0 PUSH1 0x3 DUP2 MSTORE PUSH1 0x20 ADD SWAP1 DUP2 MSTORE PUSH1 0x20 ADD PUSH1 0x0 KECCAK256 SLOAD PUSH2 0xA26 SWAP1 SWAP2 SWAP1 PUSH4 0xFFFFFFFF AND JUMP JUMPDEST SWAP6 POP POP POP POP POP POP SWAP2 SWAP1 POP JUMP JUMPDEST PUSH1 0x0 DUP1 PUSH2 0x8FC PUSH1 0x4 SLOAD PUSH2 0x8EE PUSH8 0xDE0B6B3A7640000 DUP7 PUSH2 0xA3C SWAP1 SWAP2 SWAP1 PUSH4 0xFFFFFFFF AND JUMP JUMPDEST PUSH2 0xA52 SWAP1 SWAP2 SWAP1 PUSH4 0xFFFFFFFF AND JUMP JUMPDEST SWAP1 POP PUSH2 0x923 DUP2 PUSH2 0x915 DUP4 DUP5 PUSH2 0xA3C SWAP1 SWAP2 SWAP1 PUSH4 0xFFFFFFFF AND JUMP JUMPDEST PUSH2 0xA3C SWAP1 SWAP2 SWAP1 PUSH4 0xFFFFFFFF AND JUMP JUMPDEST SWAP1 POP DUP1 SWAP2 POP POP SWAP2 SWAP1 POP JUMP JUMPDEST PUSH1 0x0 PUSH1 0x1 PUSH1 0x0 DUP5 PUSH20 0xFFFFFFFFFFFFFFFFFFFFFFFFFFFFFFFFFFFFFFFF AND PUSH20 0xFFFFFFFFFFFFFFFFFFFFFFFFFFFFFFFFFFFFFFFF AND DUP2 MSTORE PUSH1 0x20 ADD SWAP1 DUP2 MSTORE PUSH1 0x20 ADD PUSH1 0x0 KECCAK256 PUSH1 0x0 DUP4 PUSH20 0xFFFFFFFFFFFFFFFFFFFFFFFFFFFFFFFFFFFFFFFF AND PUSH20 0xFFFFFFFFFFFFFFFFFFFFFFFFFFFFFFFFFFFFFFFF AND DUP2 MSTORE PUSH1 0x20 ADD SWAP1 DUP2 MSTORE PUSH1 0x20 ADD PUSH1 0x0 KECCAK256 SLOAD SWAP1 POP SWAP3 SWAP2 POP POP JUMP JUMPDEST PUSH1 0x0 PUSH1 0x7 PUSH1 0x0 DUP5 PUSH20 0xFFFFFFFFFFFFFFFFFFFFFFFFFFFFFFFFFFFFFFFF AND PUSH20 0xFFFFFFFFFFFFFFFFFFFFFFFFFFFFFFFFFFFFFFFF AND DUP2 MSTORE PUSH1 0x20 ADD SWAP1 DUP2 MSTORE PUSH1 0x20 ADD PUSH1 0x0 KECCAK256 PUSH1 0x0 DUP4 DUP2 MSTORE PUSH1 0x20 ADD SWAP1 DUP2 MSTORE PUSH1 0x20 ADD PUSH1 0x0 KECCAK256 SLOAD SWAP1 POP SWAP3 SWAP2 POP POP JUMP JUMPDEST PUSH1 0x0 DUP2 DUP4 PUSH2 0xA1E SWAP2 SWAP1 PUSH2 0x17A4 JUMP JUMPDEST SWAP1 POP SWAP3 SWAP2 POP POP JUMP JUMPDEST PUSH1 0x0 DUP2 DUP4 PUSH2 0xA34 SWAP2 SWAP1 PUSH2 0x16DE JUMP JUMPDEST SWAP1 POP SWAP3 SWAP2 POP POP JUMP JUMPDEST PUSH1 0x0 DUP2 DUP4 PUSH2 0xA4A SWAP2 SWAP1 PUSH2 0x17D8 JUMP JUMPDEST SWAP1 POP SWAP3 SWAP2 POP POP JUMP JUMPDEST PUSH1 0x0 DUP2 DUP4 PUSH2 0xA60 SWAP2 SWAP1 PUSH2 0x1849 JUMP JUMPDEST SWAP1 POP SWAP3 SWAP2 POP POP JUMP JUMPDEST PUSH1 0x0 CALLER SWAP1 POP SWAP1 JUMP JUMPDEST PUSH1 0x0 PUSH20 0xFFFFFFFFFFFFFFFFFFFFFFFFFFFFFFFFFFFFFFFF AND DUP4 PUSH20 0xFFFFFFFFFFFFFFFFFFFFFFFFFFFFFFFFFFFFFFFF AND SUB PUSH2 0xADF JUMPI PUSH1 0x40 MLOAD PUSH32 0x8C379A000000000000000000000000000000000000000000000000000000000 DUP2 MSTORE PUSH1 0x4 ADD PUSH2 0xAD6 SWAP1 PUSH2 0x18EC JUMP JUMPDEST PUSH1 0x40 MLOAD DUP1 SWAP2 SUB SWAP1 REVERT JUMPDEST PUSH1 0x0 PUSH20 0xFFFFFFFFFFFFFFFFFFFFFFFFFFFFFFFFFFFFFFFF AND DUP3 PUSH20 0xFFFFFFFFFFFFFFFFFFFFFFFFFFFFFFFFFFFFFFFF AND SUB PUSH2 0xB4E JUMPI PUSH1 0x40 MLOAD PUSH32 0x8C379A000000000000000000000000000000000000000000000000000000000 DUP2 MSTORE PUSH1 0x4 ADD PUSH2 0xB45 SWAP1 PUSH2 0x197E JUMP JUMPDEST PUSH1 0x40 MLOAD DUP1 SWAP2 SUB SWAP1 REVERT JUMPDEST DUP1 PUSH1 0x1 PUSH1 0x0 DUP6 PUSH20 0xFFFFFFFFFFFFFFFFFFFFFFFFFFFFFFFFFFFFFFFF AND PUSH20 0xFFFFFFFFFFFFFFFFFFFFFFFFFFFFFFFFFFFFFFFF AND DUP2 MSTORE PUSH1 0x20 ADD SWAP1 DUP2 MSTORE PUSH1 0x20 ADD PUSH1 0x0 KECCAK256 PUSH1 0x0 DUP5 PUSH20 0xFFFFFFFFFFFFFFFFFFFFFFFFFFFFFFFFFFFFFFFF AND PUSH20 0xFFFFFFFFFFFFFFFFFFFFFFFFFFFFFFFFFFFFFFFF AND DUP2 MSTORE PUSH1 0x20 ADD SWAP1 DUP2 MSTORE PUSH1 0x20 ADD PUSH1 0x0 KECCAK256 DUP2 SWAP1 SSTORE POP DUP2 PUSH20 0xFFFFFFFFFFFFFFFFFFFFFFFFFFFFFFFFFFFFFFFF AND DUP4 PUSH20 0xFFFFFFFFFFFFFFFFFFFFFFFFFFFFFFFFFFFFFFFF AND PUSH32 0x8C5BE1E5EBEC7D5BD14F71427D1E84F3DD0314C0F7B2291E5B200AC8C7C3B925 DUP4 PUSH1 0x40 MLOAD PUSH2 0xC2C SWAP2 SWAP1 PUSH2 0x1510 JUMP JUMPDEST PUSH1 0x40 MLOAD DUP1 SWAP2 SUB SWAP1 LOG3 POP POP POP JUMP JUMPDEST PUSH1 0x0 PUSH2 0xC45 DUP5 DUP5 PUSH2 0x92E JUMP JUMPDEST SWAP1 POP PUSH32 0xFFFFFFFFFFFFFFFFFFFFFFFFFFFFFFFFFFFFFFFFFFFFFFFFFFFFFFFFFFFFFFFF DUP2 EQ PUSH2 0xCBF JUMPI DUP2 DUP2 LT ISZERO PUSH2 0xCB1 JUMPI PUSH1 0x40 MLOAD PUSH32 0x8C379A000000000000000000000000000000000000000000000000000000000 DUP2 MSTORE PUSH1 0x4 ADD PUSH2 0xCA8 SWAP1 PUSH2 0x19EA JUMP JUMPDEST PUSH1 0x40 MLOAD DUP1 SWAP2 SUB SWAP1 REVERT JUMPDEST PUSH2 0xCBE DUP5 DUP5 DUP5 DUP5 SUB PUSH2 0xA70 JUMP JUMPDEST JUMPDEST POP POP POP POP JUMP JUMPDEST PUSH1 0x0 PUSH20 0xFFFFFFFFFFFFFFFFFFFFFFFFFFFFFFFFFFFFFFFF AND DUP4 PUSH20 0xFFFFFFFFFFFFFFFFFFFFFFFFFFFFFFFFFFFFFFFF AND SUB PUSH2 0xD34 JUMPI PUSH1 0x40 MLOAD PUSH32 0x8C379A000000000000000000000000000000000000000000000000000000000 DUP2 MSTORE PUSH1 0x4 ADD PUSH2 0xD2B SWAP1 PUSH2 0x1A7C JUMP JUMPDEST PUSH1 0x40 MLOAD DUP1 SWAP2 SUB SWAP1 REVERT JUMPDEST PUSH1 0x0 PUSH20 0xFFFFFFFFFFFFFFFFFFFFFFFFFFFFFFFFFFFFFFFF AND DUP3 PUSH20 0xFFFFFFFFFFFFFFFFFFFFFFFFFFFFFFFFFFFFFFFF AND SUB PUSH2 0xDA3 JUMPI PUSH1 0x40 MLOAD PUSH32 0x8C379A000000000000000000000000000000000000000000000000000000000 DUP2 MSTORE PUSH1 0x4 ADD PUSH2 0xD9A SWAP1 PUSH2 0x1B0E JUMP JUMPDEST PUSH1 0x40 MLOAD DUP1 SWAP2 SUB SWAP1 REVERT JUMPDEST PUSH2 0xDAC DUP4 PUSH2 0x717 JUMP JUMPDEST PUSH1 0x7 PUSH1 0x0 DUP6 PUSH20 0xFFFFFFFFFFFFFFFFFFFFFFFFFFFFFFFFFFFFFFFF AND PUSH20 0xFFFFFFFFFFFFFFFFFFFFFFFFFFFFFFFFFFFFFFFF AND DUP2 MSTORE PUSH1 0x20 ADD SWAP1 DUP2 MSTORE PUSH1 0x20 ADD PUSH1 0x0 KECCAK256 PUSH1 0x0 PUSH1 0x3 DUP2 MSTORE PUSH1 0x20 ADD SWAP1 DUP2 MSTORE PUSH1 0x20 ADD PUSH1 0x0 KECCAK256 DUP2 SWAP1 SSTORE POP PUSH2 0xE0A DUP3 PUSH2 0x717 JUMP JUMPDEST PUSH1 0x7 PUSH1 0x0 DUP5 PUSH20 0xFFFFFFFFFFFFFFFFFFFFFFFFFFFFFFFFFFFFFFFF AND PUSH20 0xFFFFFFFFFFFFFFFFFFFFFFFFFFFFFFFFFFFFFFFF AND DUP2 MSTORE PUSH1 0x20 ADD SWAP1 DUP2 MSTORE PUSH1 0x20 ADD PUSH1 0x0 KECCAK256 PUSH1 0x0 PUSH1 0x3 DUP2 MSTORE PUSH1 0x20 ADD SWAP1 DUP2 MSTORE PUSH1 0x20 ADD PUSH1 0x0 KECCAK256 DUP2 SWAP1 SSTORE POP PUSH2 0xE6A DUP4 DUP4 DUP4 PUSH2 0x1336 JUMP JUMPDEST PUSH1 0x0 DUP1 PUSH1 0x0 DUP6 PUSH20 0xFFFFFFFFFFFFFFFFFFFFFFFFFFFFFFFFFFFFFFFF AND PUSH20 0xFFFFFFFFFFFFFFFFFFFFFFFFFFFFFFFFFFFFFFFF AND DUP2 MSTORE PUSH1 0x20 ADD SWAP1 DUP2 MSTORE PUSH1 0x20 ADD PUSH1 0x0 KECCAK256 SLOAD SWAP1 POP DUP2 DUP2 LT ISZERO PUSH2 0xEF0 JUMPI PUSH1 0x40 MLOAD PUSH32 0x8C379A000000000000000000000000000000000000000000000000000000000 DUP2 MSTORE PUSH1 0x4 ADD PUSH2 0xEE7 SWAP1 PUSH2 0x1BA0 JUMP JUMPDEST PUSH1 0x40 MLOAD DUP1 SWAP2 SUB SWAP1 REVERT JUMPDEST DUP2 DUP2 SUB PUSH1 0x0 DUP1 DUP7 PUSH20 0xFFFFFFFFFFFFFFFFFFFFFFFFFFFFFFFFFFFFFFFF AND PUSH20 0xFFFFFFFFFFFFFFFFFFFFFFFFFFFFFFFFFFFFFFFF AND DUP2 MSTORE PUSH1 0x20 ADD SWAP1 DUP2 MSTORE PUSH1 0x20 ADD PUSH1 0x0 KECCAK256 DUP2 SWAP1 SSTORE POP DUP2 PUSH1 0x0 DUP1 DUP6 PUSH20 0xFFFFFFFFFFFFFFFFFFFFFFFFFFFFFFFFFFFFFFFF AND PUSH20 0xFFFFFFFFFFFFFFFFFFFFFFFFFFFFFFFFFFFFFFFF AND DUP2 MSTORE PUSH1 0x20 ADD SWAP1 DUP2 MSTORE PUSH1 0x20 ADD PUSH1 0x0 KECCAK256 PUSH1 0x0 DUP3 DUP3 SLOAD PUSH2 0xF83 SWAP2 SWAP1 PUSH2 0x16DE JUMP JUMPDEST SWAP3 POP POP DUP2 SWAP1 SSTORE POP DUP3 PUSH20 0xFFFFFFFFFFFFFFFFFFFFFFFFFFFFFFFFFFFFFFFF AND DUP5 PUSH20 0xFFFFFFFFFFFFFFFFFFFFFFFFFFFFFFFFFFFFFFFF AND PUSH32 0xDDF252AD1BE2C89B69C2B068FC378DAA952BA7F163C4A11628F55A4DF523B3EF DUP5 PUSH1 0x40 MLOAD PUSH2 0xFE7 SWAP2 SWAP1 PUSH2 0x1510 JUMP JUMPDEST PUSH1 0x40 MLOAD DUP1 SWAP2 SUB SWAP1 LOG3 PUSH2 0xFFA DUP5 DUP5 DUP5 PUSH2 0x133B JUMP JUMPDEST NUMBER PUSH1 0x7 PUSH1 0x0 DUP7 PUSH20 0xFFFFFFFFFFFFFFFFFFFFFFFFFFFFFFFFFFFFFFFF AND PUSH20 0xFFFFFFFFFFFFFFFFFFFFFFFFFFFFFFFFFFFFFFFF AND DUP2 MSTORE PUSH1 0x20 ADD SWAP1 DUP2 MSTORE PUSH1 0x20 ADD PUSH1 0x0 KECCAK256 PUSH1 0x0 PUSH1 0x1 DUP2 MSTORE PUSH1 0x20 ADD SWAP1 DUP2 MSTORE PUSH1 0x20 ADD PUSH1 0x0 KECCAK256 DUP2 SWAP1 SSTORE POP NUMBER PUSH1 0x7 PUSH1 0x0 DUP6 PUSH20 0xFFFFFFFFFFFFFFFFFFFFFFFFFFFFFFFFFFFFFFFF AND PUSH20 0xFFFFFFFFFFFFFFFFFFFFFFFFFFFFFFFFFFFFFFFF AND DUP2 MSTORE PUSH1 0x20 ADD SWAP1 DUP2 MSTORE PUSH1 0x20 ADD PUSH1 0x0 KECCAK256 PUSH1 0x0 PUSH1 0x1 DUP2 MSTORE PUSH1 0x20 ADD SWAP1 DUP2 MSTORE PUSH1 0x20 ADD PUSH1 0x0 KECCAK256 DUP2 SWAP1 SSTORE POP POP POP POP POP JUMP JUMPDEST PUSH1 0x0 PUSH20 0xFFFFFFFFFFFFFFFFFFFFFFFFFFFFFFFFFFFFFFFF AND DUP3 PUSH20 0xFFFFFFFFFFFFFFFFFFFFFFFFFFFFFFFFFFFFFFFF AND SUB PUSH2 0x111B JUMPI PUSH1 0x40 MLOAD PUSH32 0x8C379A000000000000000000000000000000000000000000000000000000000 DUP2 MSTORE PUSH1 0x4 ADD PUSH2 0x1112 SWAP1 PUSH2 0x1C32 JUMP JUMPDEST PUSH1 0x40 MLOAD DUP1 SWAP2 SUB SWAP1 REVERT JUMPDEST PUSH2 0x1124 DUP3 PUSH2 0x717 JUMP JUMPDEST PUSH1 0x7 PUSH1 0x0 DUP5 PUSH20 0xFFFFFFFFFFFFFFFFFFFFFFFFFFFFFFFFFFFFFFFF AND PUSH20 0xFFFFFFFFFFFFFFFFFFFFFFFFFFFFFFFFFFFFFFFF AND DUP2 MSTORE PUSH1 0x20 ADD SWAP1 DUP2 MSTORE PUSH1 0x20 ADD PUSH1 0x0 KECCAK256 PUSH1 0x0 PUSH1 0x3 DUP2 MSTORE PUSH1 0x20 ADD SWAP1 DUP2 MSTORE PUSH1 0x20 ADD PUSH1 0x0 KECCAK256 DUP2 SWAP1 SSTORE POP PUSH2 0x1185 DUP3 PUSH1 0x0 DUP4 PUSH2 0x1336 JUMP JUMPDEST PUSH1 0x0 DUP1 PUSH1 0x0 DUP5 PUSH20 0xFFFFFFFFFFFFFFFFFFFFFFFFFFFFFFFFFFFFFFFF AND PUSH20 0xFFFFFFFFFFFFFFFFFFFFFFFFFFFFFFFFFFFFFFFF AND DUP2 MSTORE PUSH1 0x20 ADD SWAP1 DUP2 MSTORE PUSH1 0x20 ADD PUSH1 0x0 KECCAK256 SLOAD SWAP1 POP DUP2 DUP2 LT ISZERO PUSH2 0x120B JUMPI PUSH1 0x40 MLOAD PUSH32 0x8C379A000000000000000000000000000000000000000000000000000000000 DUP2 MSTORE PUSH1 0x4 ADD PUSH2 0x1202 SWAP1 PUSH2 0x1CC4 JUMP JUMPDEST PUSH1 0x40 MLOAD DUP1 SWAP2 SUB SWAP1 REVERT JUMPDEST DUP2 DUP2 SUB PUSH1 0x0 DUP1 DUP6 PUSH20 0xFFFFFFFFFFFFFFFFFFFFFFFFFFFFFFFFFFFFFFFF AND PUSH20 0xFFFFFFFFFFFFFFFFFFFFFFFFFFFFFFFFFFFFFFFF AND DUP2 MSTORE PUSH1 0x20 ADD SWAP1 DUP2 MSTORE PUSH1 0x20 ADD PUSH1 0x0 KECCAK256 DUP2 SWAP1 SSTORE POP DUP2 PUSH1 0x2 PUSH1 0x0 DUP3 DUP3 SLOAD PUSH2 0x1262 SWAP2 SWAP1 PUSH2 0x17A4 JUMP JUMPDEST SWAP3 POP POP DUP2 SWAP1 SSTORE POP PUSH1 0x0 PUSH20 0xFFFFFFFFFFFFFFFFFFFFFFFFFFFFFFFFFFFFFFFF AND DUP4 PUSH20 0xFFFFFFFFFFFFFFFFFFFFFFFFFFFFFFFFFFFFFFFF AND PUSH32 0xDDF252AD1BE2C89B69C2B068FC378DAA952BA7F163C4A11628F55A4DF523B3EF DUP5 PUSH1 0x40 MLOAD PUSH2 0x12C7 SWAP2 SWAP1 PUSH2 0x1510 JUMP JUMPDEST PUSH1 0x40 MLOAD DUP1 SWAP2 SUB SWAP1 LOG3 PUSH2 0x12DB DUP4 PUSH1 0x0 DUP5 PUSH2 0x133B JUMP JUMPDEST NUMBER PUSH1 0x7 PUSH1 0x0 DUP6 PUSH20 0xFFFFFFFFFFFFFFFFFFFFFFFFFFFFFFFFFFFFFFFF AND PUSH20 0xFFFFFFFFFFFFFFFFFFFFFFFFFFFFFFFFFFFFFFFF AND DUP2 MSTORE PUSH1 0x20 ADD SWAP1 DUP2 MSTORE PUSH1 0x20 ADD PUSH1 0x0 KECCAK256 PUSH1 0x0 PUSH1 0x1 DUP2 MSTORE PUSH1 0x20 ADD SWAP1 DUP2 MSTORE PUSH1 0x20 ADD PUSH1 0x0 KECCAK256 DUP2 SWAP1 SSTORE POP POP POP POP JUMP JUMPDEST POP POP POP JUMP JUMPDEST POP POP POP JUMP JUMPDEST PUSH1 0x0 DUP2 MLOAD SWAP1 POP SWAP2 SWAP1 POP JUMP JUMPDEST PUSH1 0x0 DUP3 DUP3 MSTORE PUSH1 0x20 DUP3 ADD SWAP1 POP SWAP3 SWAP2 POP POP JUMP JUMPDEST PUSH1 0x0 JUMPDEST DUP4 DUP2 LT ISZERO PUSH2 0x137A JUMPI DUP1 DUP3 ADD MLOAD DUP2 DUP5 ADD MSTORE PUSH1 0x20 DUP2 ADD SWAP1 POP PUSH2 0x135F JUMP JUMPDEST PUSH1 0x0 DUP5 DUP5 ADD MSTORE POP POP POP POP JUMP JUMPDEST PUSH1 0x0 PUSH1 0x1F NOT PUSH1 0x1F DUP4 ADD AND SWAP1 POP SWAP2 SWAP1 POP JUMP JUMPDEST PUSH1 0x0 PUSH2 0x13A2 DUP3 PUSH2 0x1340 JUMP JUMPDEST PUSH2 0x13AC DUP2 DUP6 PUSH2 0x134B JUMP JUMPDEST SWAP4 POP PUSH2 0x13BC DUP2 DUP6 PUSH1 0x20 DUP7 ADD PUSH2 0x135C JUMP JUMPDEST PUSH2 0x13C5 DUP2 PUSH2 0x1386 JUMP JUMPDEST DUP5 ADD SWAP2 POP POP SWAP3 SWAP2 POP POP JUMP JUMPDEST PUSH1 0x0 PUSH1 0x20 DUP3 ADD SWAP1 POP DUP2 DUP2 SUB PUSH1 0x0 DUP4 ADD MSTORE PUSH2 0x13EA DUP2 DUP5 PUSH2 0x1397 JUMP JUMPDEST SWAP1 POP SWAP3 SWAP2 POP POP JUMP JUMPDEST PUSH1 0x0 DUP1 REVERT JUMPDEST PUSH1 0x0 PUSH20 0xFFFFFFFFFFFFFFFFFFFFFFFFFFFFFFFFFFFFFFFF DUP3 AND SWAP1 POP SWAP2 SWAP1 POP JUMP JUMPDEST PUSH1 0x0 PUSH2 0x1422 DUP3 PUSH2 0x13F7 JUMP JUMPDEST SWAP1 POP SWAP2 SWAP1 POP JUMP JUMPDEST PUSH2 0x1432 DUP2 PUSH2 0x1417 JUMP JUMPDEST DUP2 EQ PUSH2 0x143D JUMPI PUSH1 0x0 DUP1 REVERT JUMPDEST POP JUMP JUMPDEST PUSH1 0x0 DUP2 CALLDATALOAD SWAP1 POP PUSH2 0x144F DUP2 PUSH2 0x1429 JUMP JUMPDEST SWAP3 SWAP2 POP POP JUMP JUMPDEST PUSH1 0x0 DUP2 SWAP1 POP SWAP2 SWAP1 POP JUMP JUMPDEST PUSH2 0x1468 DUP2 PUSH2 0x1455 JUMP JUMPDEST DUP2 EQ PUSH2 0x1473 JUMPI PUSH1 0x0 DUP1 REVERT JUMPDEST POP JUMP JUMPDEST PUSH1 0x0 DUP2 CALLDATALOAD SWAP1 POP PUSH2 0x1485 DUP2 PUSH2 0x145F JUMP JUMPDEST SWAP3 SWAP2 POP POP JUMP JUMPDEST PUSH1 0x0 DUP1 PUSH1 0x40 DUP4 DUP6 SUB SLT ISZERO PUSH2 0x14A2 JUMPI PUSH2 0x14A1 PUSH2 0x13F2 JUMP JUMPDEST JUMPDEST PUSH1 0x0 PUSH2 0x14B0 DUP6 DUP3 DUP7 ADD PUSH2 0x1440 JUMP JUMPDEST SWAP3 POP POP PUSH1 0x20 PUSH2 0x14C1 DUP6 DUP3 DUP7 ADD PUSH2 0x1476 JUMP JUMPDEST SWAP2 POP POP SWAP3 POP SWAP3 SWAP1 POP JUMP JUMPDEST PUSH1 0x0 DUP2 ISZERO ISZERO SWAP1 POP SWAP2 SWAP1 POP JUMP JUMPDEST PUSH2 0x14E0 DUP2 PUSH2 0x14CB JUMP JUMPDEST DUP3 MSTORE POP POP JUMP JUMPDEST PUSH1 0x0 PUSH1 0x20 DUP3 ADD SWAP1 POP PUSH2 0x14FB PUSH1 0x0 DUP4 ADD DUP5 PUSH2 0x14D7 JUMP JUMPDEST SWAP3 SWAP2 POP POP JUMP JUMPDEST PUSH2 0x150A DUP2 PUSH2 0x1455 JUMP JUMPDEST DUP3 MSTORE POP POP JUMP JUMPDEST PUSH1 0x0 PUSH1 0x20 DUP3 ADD SWAP1 POP PUSH2 0x1525 PUSH1 0x0 DUP4 ADD DUP5 PUSH2 0x1501 JUMP JUMPDEST SWAP3 SWAP2 POP POP JUMP JUMPDEST PUSH1 0x0 DUP1 PUSH1 0x0 PUSH1 0x60 DUP5 DUP7 SUB SLT ISZERO PUSH2 0x1544 JUMPI PUSH2 0x1543 PUSH2 0x13F2 JUMP JUMPDEST JUMPDEST PUSH1 0x0 PUSH2 0x1552 DUP7 DUP3 DUP8 ADD PUSH2 0x1440 JUMP JUMPDEST SWAP4 POP POP PUSH1 0x20 PUSH2 0x1563 DUP7 DUP3 DUP8 ADD PUSH2 0x1440 JUMP JUMPDEST SWAP3 POP POP PUSH1 0x40 PUSH2 0x1574 DUP7 DUP3 DUP8 ADD PUSH2 0x1476 JUMP JUMPDEST SWAP2 POP POP SWAP3 POP SWAP3 POP SWAP3 JUMP JUMPDEST PUSH1 0x0 PUSH1 0xFF DUP3 AND SWAP1 POP SWAP2 SWAP1 POP JUMP JUMPDEST PUSH2 0x1594 DUP2 PUSH2 0x157E JUMP JUMPDEST DUP3 MSTORE POP POP JUMP JUMPDEST PUSH1 0x0 PUSH1 0x20 DUP3 ADD SWAP1 POP PUSH2 0x15AF PUSH1 0x0 DUP4 ADD DUP5 PUSH2 0x158B JUMP JUMPDEST SWAP3 SWAP2 POP POP JUMP JUMPDEST PUSH1 0x0 PUSH1 0x20 DUP3 DUP5 SUB SLT ISZERO PUSH2 0x15CB JUMPI PUSH2 0x15CA PUSH2 0x13F2 JUMP JUMPDEST JUMPDEST PUSH1 0x0 PUSH2 0x15D9 DUP5 DUP3 DUP6 ADD PUSH2 0x1476 JUMP JUMPDEST SWAP2 POP POP SWAP3 SWAP2 POP POP JUMP JUMPDEST PUSH1 0x0 PUSH1 0x20 DUP3 DUP5 SUB SLT ISZERO PUSH2 0x15F8 JUMPI PUSH2 0x15F7 PUSH2 0x13F2 JUMP JUMPDEST JUMPDEST PUSH1 0x0 PUSH2 0x1606 DUP5 DUP3 DUP6 ADD PUSH2 0x1440 JUMP JUMPDEST SWAP2 POP POP SWAP3 SWAP2 POP POP JUMP JUMPDEST PUSH1 0x0 DUP1 PUSH1 0x40 DUP4 DUP6 SUB SLT ISZERO PUSH2 0x1626 JUMPI PUSH2 0x1625 PUSH2 0x13F2 JUMP JUMPDEST JUMPDEST PUSH1 0x0 PUSH2 0x1634 DUP6 DUP3 DUP7 ADD PUSH2 0x1440 JUMP JUMPDEST SWAP3 POP POP PUSH1 0x20 PUSH2 0x1645 DUP6 DUP3 DUP7 ADD PUSH2 0x1440 JUMP JUMPDEST SWAP2 POP POP SWAP3 POP SWAP3 SWAP1 POP JUMP JUMPDEST PUSH32 0x4E487B7100000000000000000000000000000000000000000000000000000000 PUSH1 0x0 MSTORE PUSH1 0x22 PUSH1 0x4 MSTORE PUSH1 0x24 PUSH1 0x0 REVERT JUMPDEST PUSH1 0x0 PUSH1 0x2 DUP3 DIV SWAP1 POP PUSH1 0x1 DUP3 AND DUP1 PUSH2 0x1696 JUMPI PUSH1 0x7F DUP3 AND SWAP2 POP JUMPDEST PUSH1 0x20 DUP3 LT DUP2 SUB PUSH2 0x16A9 JUMPI PUSH2 0x16A8 PUSH2 0x164F JUMP JUMPDEST JUMPDEST POP SWAP2 SWAP1 POP JUMP JUMPDEST PUSH32 0x4E487B7100000000000000000000000000000000000000000000000000000000 PUSH1 0x0 MSTORE PUSH1 0x11 PUSH1 0x4 MSTORE PUSH1 0x24 PUSH1 0x0 REVERT JUMPDEST PUSH1 0x0 PUSH2 0x16E9 DUP3 PUSH2 0x1455 JUMP JUMPDEST SWAP2 POP PUSH2 0x16F4 DUP4 PUSH2 0x1455 JUMP JUMPDEST SWAP3 POP DUP3 DUP3 ADD SWAP1 POP DUP1 DUP3 GT ISZERO PUSH2 0x170C JUMPI PUSH2 0x170B PUSH2 0x16AF JUMP JUMPDEST JUMPDEST SWAP3 SWAP2 POP POP JUMP JUMPDEST PUSH32 0x45524332303A2064656372656173656420616C6C6F77616E63652062656C6F77 PUSH1 0x0 DUP3 ADD MSTORE PUSH32 0x207A65726F000000000000000000000000000000000000000000000000000000 PUSH1 0x20 DUP3 ADD MSTORE POP JUMP JUMPDEST PUSH1 0x0 PUSH2 0x176E PUSH1 0x25 DUP4 PUSH2 0x134B JUMP JUMPDEST SWAP2 POP PUSH2 0x1779 DUP3 PUSH2 0x1712 JUMP JUMPDEST PUSH1 0x40 DUP3 ADD SWAP1 POP SWAP2 SWAP1 POP JUMP JUMPDEST PUSH1 0x0 PUSH1 0x20 DUP3 ADD SWAP1 POP DUP2 DUP2 SUB PUSH1 0x0 DUP4 ADD MSTORE PUSH2 0x179D DUP2 PUSH2 0x1761 JUMP JUMPDEST SWAP1 POP SWAP2 SWAP1 POP JUMP JUMPDEST PUSH1 0x0 PUSH2 0x17AF DUP3 PUSH2 0x1455 JUMP JUMPDEST SWAP2 POP PUSH2 0x17BA DUP4 PUSH2 0x1455 JUMP JUMPDEST SWAP3 POP DUP3 DUP3 SUB SWAP1 POP DUP2 DUP2 GT ISZERO PUSH2 0x17D2 JUMPI PUSH2 0x17D1 PUSH2 0x16AF JUMP JUMPDEST JUMPDEST SWAP3 SWAP2 POP POP JUMP JUMPDEST PUSH1 0x0 PUSH2 0x17E3 DUP3 PUSH2 0x1455 JUMP JUMPDEST SWAP2 POP PUSH2 0x17EE DUP4 PUSH2 0x1455 JUMP JUMPDEST SWAP3 POP DUP3 DUP3 MUL PUSH2 0x17FC DUP2 PUSH2 0x1455 JUMP JUMPDEST SWAP2 POP DUP3 DUP3 DIV DUP5 EQ DUP4 ISZERO OR PUSH2 0x1813 JUMPI PUSH2 0x1812 PUSH2 0x16AF JUMP JUMPDEST JUMPDEST POP SWAP3 SWAP2 POP POP JUMP JUMPDEST PUSH32 0x4E487B7100000000000000000000000000000000000000000000000000000000 PUSH1 0x0 MSTORE PUSH1 0x12 PUSH1 0x4 MSTORE PUSH1 0x24 PUSH1 0x0 REVERT JUMPDEST PUSH1 0x0 PUSH2 0x1854 DUP3 PUSH2 0x1455 JUMP JUMPDEST SWAP2 POP PUSH2 0x185F DUP4 PUSH2 0x1455 JUMP JUMPDEST SWAP3 POP DUP3 PUSH2 0x186F JUMPI PUSH2 0x186E PUSH2 0x181A JUMP JUMPDEST JUMPDEST DUP3 DUP3 DIV SWAP1 POP SWAP3 SWAP2 POP POP JUMP JUMPDEST PUSH32 0x45524332303A20617070726F76652066726F6D20746865207A65726F20616464 PUSH1 0x0 DUP3 ADD MSTORE PUSH32 0x7265737300000000000000000000000000000000000000000000000000000000 PUSH1 0x20 DUP3 ADD MSTORE POP JUMP JUMPDEST PUSH1 0x0 PUSH2 0x18D6 PUSH1 0x24 DUP4 PUSH2 0x134B JUMP JUMPDEST SWAP2 POP PUSH2 0x18E1 DUP3 PUSH2 0x187A JUMP JUMPDEST PUSH1 0x40 DUP3 ADD SWAP1 POP SWAP2 SWAP1 POP JUMP JUMPDEST PUSH1 0x0 PUSH1 0x20 DUP3 ADD SWAP1 POP DUP2 DUP2 SUB PUSH1 0x0 DUP4 ADD MSTORE PUSH2 0x1905 DUP2 PUSH2 0x18C9 JUMP JUMPDEST SWAP1 POP SWAP2 SWAP1 POP JUMP JUMPDEST PUSH32 0x45524332303A20617070726F766520746F20746865207A65726F206164647265 PUSH1 0x0 DUP3 ADD MSTORE PUSH32 0x7373000000000000000000000000000000000000000000000000000000000000 PUSH1 0x20 DUP3 ADD MSTORE POP JUMP JUMPDEST PUSH1 0x0 PUSH2 0x1968 PUSH1 0x22 DUP4 PUSH2 0x134B JUMP JUMPDEST SWAP2 POP PUSH2 0x1973 DUP3 PUSH2 0x190C JUMP JUMPDEST PUSH1 0x40 DUP3 ADD SWAP1 POP SWAP2 SWAP1 POP JUMP JUMPDEST PUSH1 0x0 PUSH1 0x20 DUP3 ADD SWAP1 POP DUP2 DUP2 SUB PUSH1 0x0 DUP4 ADD MSTORE PUSH2 0x1997 DUP2 PUSH2 0x195B JUMP JUMPDEST SWAP1 POP SWAP2 SWAP1 POP JUMP JUMPDEST PUSH32 0x45524332303A20696E73756666696369656E7420616C6C6F77616E6365000000 PUSH1 0x0 DUP3 ADD MSTORE POP JUMP JUMPDEST PUSH1 0x0 PUSH2 0x19D4 PUSH1 0x1D DUP4 PUSH2 0x134B JUMP JUMPDEST SWAP2 POP PUSH2 0x19DF DUP3 PUSH2 0x199E JUMP JUMPDEST PUSH1 0x20 DUP3 ADD SWAP1 POP SWAP2 SWAP1 POP JUMP JUMPDEST PUSH1 0x0 PUSH1 0x20 DUP3 ADD SWAP1 POP DUP2 DUP2 SUB PUSH1 0x0 DUP4 ADD MSTORE PUSH2 0x1A03 DUP2 PUSH2 0x19C7 JUMP JUMPDEST SWAP1 POP SWAP2 SWAP1 POP JUMP JUMPDEST PUSH32 0x45524332303A207472616E736665722066726F6D20746865207A65726F206164 PUSH1 0x0 DUP3 ADD MSTORE PUSH32 0x6472657373000000000000000000000000000000000000000000000000000000 PUSH1 0x20 DUP3 ADD MSTORE POP JUMP JUMPDEST PUSH1 0x0 PUSH2 0x1A66 PUSH1 0x25 DUP4 PUSH2 0x134B JUMP JUMPDEST SWAP2 POP PUSH2 0x1A71 DUP3 PUSH2 0x1A0A JUMP JUMPDEST PUSH1 0x40 DUP3 ADD SWAP1 POP SWAP2 SWAP1 POP JUMP JUMPDEST PUSH1 0x0 PUSH1 0x20 DUP3 ADD SWAP1 POP DUP2 DUP2 SUB PUSH1 0x0 DUP4 ADD MSTORE PUSH2 0x1A95 DUP2 PUSH2 0x1A59 JUMP JUMPDEST SWAP1 POP SWAP2 SWAP1 POP JUMP JUMPDEST PUSH32 0x45524332303A207472616E7366657220746F20746865207A65726F2061646472 PUSH1 0x0 DUP3 ADD MSTORE PUSH32 0x6573730000000000000000000000000000000000000000000000000000000000 PUSH1 0x20 DUP3 ADD MSTORE POP JUMP JUMPDEST PUSH1 0x0 PUSH2 0x1AF8 PUSH1 0x23 DUP4 PUSH2 0x134B JUMP JUMPDEST SWAP2 POP PUSH2 0x1B03 DUP3 PUSH2 0x1A9C JUMP JUMPDEST PUSH1 0x40 DUP3 ADD SWAP1 POP SWAP2 SWAP1 POP JUMP JUMPDEST PUSH1 0x0 PUSH1 0x20 DUP3 ADD SWAP1 POP DUP2 DUP2 SUB PUSH1 0x0 DUP4 ADD MSTORE PUSH2 0x1B27 DUP2 PUSH2 0x1AEB JUMP JUMPDEST SWAP1 POP SWAP2 SWAP1 POP JUMP JUMPDEST PUSH32 0x45524332303A207472616E7366657220616D6F756E7420657863656564732062 PUSH1 0x0 DUP3 ADD MSTORE PUSH32 0x616C616E63650000000000000000000000000000000000000000000000000000 PUSH1 0x20 DUP3 ADD MSTORE POP JUMP JUMPDEST PUSH1 0x0 PUSH2 0x1B8A PUSH1 0x26 DUP4 PUSH2 0x134B JUMP JUMPDEST SWAP2 POP PUSH2 0x1B95 DUP3 PUSH2 0x1B2E JUMP JUMPDEST PUSH1 0x40 DUP3 ADD SWAP1 POP SWAP2 SWAP1 POP JUMP JUMPDEST PUSH1 0x0 PUSH1 0x20 DUP3 ADD SWAP1 POP DUP2 DUP2 SUB PUSH1 0x0 DUP4 ADD MSTORE PUSH2 0x1BB9 DUP2 PUSH2 0x1B7D JUMP JUMPDEST SWAP1 POP SWAP2 SWAP1 POP JUMP JUMPDEST PUSH32 0x45524332303A206275726E2066726F6D20746865207A65726F20616464726573 PUSH1 0x0 DUP3 ADD MSTORE PUSH32 0x7300000000000000000000000000000000000000000000000000000000000000 PUSH1 0x20 DUP3 ADD MSTORE POP JUMP JUMPDEST PUSH1 0x0 PUSH2 0x1C1C PUSH1 0x21 DUP4 PUSH2 0x134B JUMP JUMPDEST SWAP2 POP PUSH2 0x1C27 DUP3 PUSH2 0x1BC0 JUMP JUMPDEST PUSH1 0x40 DUP3 ADD SWAP1 POP SWAP2 SWAP1 POP JUMP JUMPDEST PUSH1 0x0 PUSH1 0x20 DUP3 ADD SWAP1 POP DUP2 DUP2 SUB PUSH1 0x0 DUP4 ADD MSTORE PUSH2 0x1C4B DUP2 PUSH2 0x1C0F JUMP JUMPDEST SWAP1 POP SWAP2 SWAP1 POP JUMP JUMPDEST PUSH32 0x45524332303A206275726E20616D6F756E7420657863656564732062616C616E PUSH1 0x0 DUP3 ADD MSTORE PUSH32 0x6365000000000000000000000000000000000000000000000000000000000000 PUSH1 0x20 DUP3 ADD MSTORE POP JUMP JUMPDEST PUSH1 0x0 PUSH2 0x1CAE PUSH1 0x22 DUP4 PUSH2 0x134B JUMP JUMPDEST SWAP2 POP PUSH2 0x1CB9 DUP3 PUSH2 0x1C52 JUMP JUMPDEST PUSH1 0x40 DUP3 ADD SWAP1 POP SWAP2 SWAP1 POP JUMP JUMPDEST PUSH1 0x0 PUSH1 0x20 DUP3 ADD SWAP1 POP DUP2 DUP2 SUB PUSH1 0x0 DUP4 ADD MSTORE PUSH2 0x1CDD DUP2 PUSH2 0x1CA1 JUMP JUMPDEST SWAP1 POP SWAP2 SWAP1 POP JUMP INVALID LOG2 PUSH5 0x6970667358 0x22 SLT KECCAK256 0xB6 PUSH3 0xD63281 LOG3 0xB1 0xB2 0xD0 PUSH31 0x814286A7C1EF073F19BFFBB3EB6CB8EADFF9D436E57E64736F6C6343000811 STOP CALLER "
				},
				"gasEstimates": {
					"creation": {
						"codeDepositCost": "1490000",
						"executionCost": "infinite",
						"totalCost": "infinite"
					},
					"external": {
						"MineStatus(address)": "infinite",
						"allowance(address,address)": "infinite",
						"approve(address,uint256)": "infinite",
						"balanceOf(address)": "2864",
						"blockStatus(uint256)": "infinite",
						"burn(uint256)": "infinite",
						"burnFrom(address,uint256)": "infinite",
						"decimals()": "366",
						"decreaseAllowance(address,uint256)": "infinite",
						"difficult(uint256)": "infinite",
						"increaseAllowance(address,uint256)": "infinite",
						"mineInfo(address,uint256)": "infinite",
						"name()": "infinite",
						"symbol()": "infinite",
						"totalSupply()": "2505",
						"transfer(address,uint256)": "infinite",
						"transferFrom(address,address,uint256)": "infinite"
					}
				},
				"methodIdentifiers": {
					"MineStatus(address)": "b8ba6007",
					"allowance(address,address)": "dd62ed3e",
					"approve(address,uint256)": "095ea7b3",
					"balanceOf(address)": "70a08231",
					"blockStatus(uint256)": "4be3403c",
					"burn(uint256)": "42966c68",
					"burnFrom(address,uint256)": "79cc6790",
					"decimals()": "313ce567",
					"decreaseAllowance(address,uint256)": "a457c2d7",
					"difficult(uint256)": "d993226b",
					"increaseAllowance(address,uint256)": "39509351",
					"mineInfo(address,uint256)": "eff0730d",
					"name()": "06fdde03",
					"symbol()": "95d89b41",
					"totalSupply()": "18160ddd",
					"transfer(address,uint256)": "a9059cbb",
					"transferFrom(address,address,uint256)": "23b872dd"
				}
			},
			"storageLayout": {
				"storage": [
					{
						"astId": 447,
						"contract": "minerpunk/ERC20/MinePower.sol:minePower",
						"label": "_balances",
						"offset": 0,
						"slot": "0",
						"type": "t_mapping(t_address,t_uint256)"
					},
					{
						"astId": 453,
						"contract": "minerpunk/ERC20/MinePower.sol:minePower",
						"label": "_allowances",
						"offset": 0,
						"slot": "1",
						"type": "t_mapping(t_address,t_mapping(t_address,t_uint256))"
					},
					{
						"astId": 455,
						"contract": "minerpunk/ERC20/MinePower.sol:minePower",
						"label": "_totalSupply",
						"offset": 0,
						"slot": "2",
						"type": "t_uint256"
					},
					{
						"astId": 457,
						"contract": "minerpunk/ERC20/MinePower.sol:minePower",
						"label": "_TokenperBlock",
						"offset": 0,
						"slot": "3",
						"type": "t_uint256"
					},
					{
						"astId": 459,
						"contract": "minerpunk/ERC20/MinePower.sol:minePower",
						"label": "_startBlockNumber",
						"offset": 0,
						"slot": "4",
						"type": "t_uint256"
					},
					{
						"astId": 461,
						"contract": "minerpunk/ERC20/MinePower.sol:minePower",
						"label": "_name",
						"offset": 0,
						"slot": "5",
						"type": "t_string_storage"
					},
					{
						"astId": 463,
						"contract": "minerpunk/ERC20/MinePower.sol:minePower",
						"label": "_symbol",
						"offset": 0,
						"slot": "6",
						"type": "t_string_storage"
					},
					{
						"astId": 470,
						"contract": "minerpunk/ERC20/MinePower.sol:minePower",
						"label": "_mineInfo",
						"offset": 0,
						"slot": "7",
						"type": "t_mapping(t_address,t_mapping(t_uint256,t_uint256))"
					}
				],
				"types": {
					"t_address": {
						"encoding": "inplace",
						"label": "address",
						"numberOfBytes": "20"
					},
					"t_mapping(t_address,t_mapping(t_address,t_uint256))": {
						"encoding": "mapping",
						"key": "t_address",
						"label": "mapping(address => mapping(address => uint256))",
						"numberOfBytes": "32",
						"value": "t_mapping(t_address,t_uint256)"
					},
					"t_mapping(t_address,t_mapping(t_uint256,t_uint256))": {
						"encoding": "mapping",
						"key": "t_address",
						"label": "mapping(address => mapping(uint256 => uint256))",
						"numberOfBytes": "32",
						"value": "t_mapping(t_uint256,t_uint256)"
					},
					"t_mapping(t_address,t_uint256)": {
						"encoding": "mapping",
						"key": "t_address",
						"label": "mapping(address => uint256)",
						"numberOfBytes": "32",
						"value": "t_uint256"
					},
					"t_mapping(t_uint256,t_uint256)": {
						"encoding": "mapping",
						"key": "t_uint256",
						"label": "mapping(uint256 => uint256)",
						"numberOfBytes": "32",
						"value": "t_uint256"
					},
					"t_string_storage": {
						"encoding": "bytes",
						"label": "string",
						"numberOfBytes": "32"
					},
					"t_uint256": {
						"encoding": "inplace",
						"label": "uint256",
						"numberOfBytes": "32"
					}
				}
			},
			"userdoc": {
				"kind": "user",
				"methods": {},
				"version": 1
			}
		}
	}
}