{
	"minerpunk/ERC20/MinePower.sol": {
		"ERC20": {
			"abi": [
				{
					"inputs": [
						{
							"internalType": "string",
							"name": "name_",
							"type": "string"
						},
						{
							"internalType": "string",
							"name": "symbol_",
							"type": "string"
						}
					],
					"stateMutability": "nonpayable",
					"type": "constructor"
				},
				{
					"anonymous": false,
					"inputs": [
						{
							"indexed": true,
							"internalType": "address",
							"name": "owner",
							"type": "address"
						},
						{
							"indexed": true,
							"internalType": "address",
							"name": "spender",
							"type": "address"
						},
						{
							"indexed": false,
							"internalType": "uint256",
							"name": "value",
							"type": "uint256"
						}
					],
					"name": "Approval",
					"type": "event"
				},
				{
					"anonymous": false,
					"inputs": [
						{
							"indexed": true,
							"internalType": "address",
							"name": "from",
							"type": "address"
						},
						{
							"indexed": true,
							"internalType": "address",
							"name": "to",
							"type": "address"
						},
						{
							"indexed": false,
							"internalType": "uint256",
							"name": "value",
							"type": "uint256"
						}
					],
					"name": "Transfer",
					"type": "event"
				},
				{
					"inputs": [
						{
							"internalType": "address",
							"name": "user",
							"type": "address"
						}
					],
					"name": "MineStatus",
					"outputs": [
						{
							"internalType": "uint256",
							"name": "",
							"type": "uint256"
						}
					],
					"stateMutability": "view",
					"type": "function"
				},
				{
					"inputs": [
						{
							"internalType": "address",
							"name": "owner",
							"type": "address"
						},
						{
							"internalType": "address",
							"name": "spender",
							"type": "address"
						}
					],
					"name": "allowance",
					"outputs": [
						{
							"internalType": "uint256",
							"name": "",
							"type": "uint256"
						}
					],
					"stateMutability": "view",
					"type": "function"
				},
				{
					"inputs": [
						{
							"internalType": "address",
							"name": "spender",
							"type": "address"
						},
						{
							"internalType": "uint256",
							"name": "amount",
							"type": "uint256"
						}
					],
					"name": "approve",
					"outputs": [
						{
							"internalType": "bool",
							"name": "",
							"type": "bool"
						}
					],
					"stateMutability": "nonpayable",
					"type": "function"
				},
				{
					"inputs": [
						{
							"internalType": "address",
							"name": "account",
							"type": "address"
						}
					],
					"name": "balanceOf",
					"outputs": [
						{
							"internalType": "uint256",
							"name": "",
							"type": "uint256"
						}
					],
					"stateMutability": "view",
					"type": "function"
				},
				{
					"inputs": [
						{
							"internalType": "uint256",
							"name": "_BlockNumber",
							"type": "uint256"
						}
					],
					"name": "blockStatus",
					"outputs": [
						{
							"internalType": "uint256",
							"name": "",
							"type": "uint256"
						}
					],
					"stateMutability": "view",
					"type": "function"
				},
				{
					"inputs": [],
					"name": "decimals",
					"outputs": [
						{
							"internalType": "uint8",
							"name": "",
							"type": "uint8"
						}
					],
					"stateMutability": "view",
					"type": "function"
				},
				{
					"inputs": [
						{
							"internalType": "address",
							"name": "spender",
							"type": "address"
						},
						{
							"internalType": "uint256",
							"name": "subtractedValue",
							"type": "uint256"
						}
					],
					"name": "decreaseAllowance",
					"outputs": [
						{
							"internalType": "bool",
							"name": "",
							"type": "bool"
						}
					],
					"stateMutability": "nonpayable",
					"type": "function"
				},
				{
					"inputs": [
						{
							"internalType": "uint256",
							"name": "_BlockNumber",
							"type": "uint256"
						}
					],
					"name": "difficult",
					"outputs": [
						{
							"internalType": "uint256",
							"name": "",
							"type": "uint256"
						}
					],
					"stateMutability": "view",
					"type": "function"
				},
				{
					"inputs": [
						{
							"internalType": "address",
							"name": "spender",
							"type": "address"
						},
						{
							"internalType": "uint256",
							"name": "addedValue",
							"type": "uint256"
						}
					],
					"name": "increaseAllowance",
					"outputs": [
						{
							"internalType": "bool",
							"name": "",
							"type": "bool"
						}
					],
					"stateMutability": "nonpayable",
					"type": "function"
				},
				{
					"inputs": [],
					"name": "name",
					"outputs": [
						{
							"internalType": "string",
							"name": "",
							"type": "string"
						}
					],
					"stateMutability": "view",
					"type": "function"
				},
				{
					"inputs": [],
					"name": "symbol",
					"outputs": [
						{
							"internalType": "string",
							"name": "",
							"type": "string"
						}
					],
					"stateMutability": "view",
					"type": "function"
				},
				{
					"inputs": [],
					"name": "totalSupply",
					"outputs": [
						{
							"internalType": "uint256",
							"name": "",
							"type": "uint256"
						}
					],
					"stateMutability": "view",
					"type": "function"
				},
				{
					"inputs": [
						{
							"internalType": "address",
							"name": "to",
							"type": "address"
						},
						{
							"internalType": "uint256",
							"name": "amount",
							"type": "uint256"
						}
					],
					"name": "transfer",
					"outputs": [
						{
							"internalType": "bool",
							"name": "",
							"type": "bool"
						}
					],
					"stateMutability": "nonpayable",
					"type": "function"
				},
				{
					"inputs": [
						{
							"internalType": "address",
							"name": "from",
							"type": "address"
						},
						{
							"internalType": "address",
							"name": "to",
							"type": "address"
						},
						{
							"internalType": "uint256",
							"name": "amount",
							"type": "uint256"
						}
					],
					"name": "transferFrom",
					"outputs": [
						{
							"internalType": "bool",
							"name": "",
							"type": "bool"
						}
					],
					"stateMutability": "nonpayable",
					"type": "function"
				}
			],
			"devdoc": {
				"details": "Implementation of the {IERC20} interface. This implementation is agnostic to the way tokens are created. This means that a supply mechanism has to be added in a derived contract using {_mint}. For a generic mechanism see {ERC20PresetMinterPauser}. TIP: For a detailed writeup see our guide https://forum.zeppelin.solutions/t/how-to-implement-erc20-supply-mechanisms/226[How to implement supply mechanisms]. We have followed general OpenZeppelin Contracts guidelines: functions revert instead returning `false` on failure. This behavior is nonetheless conventional and does not conflict with the expectations of ERC20 applications. Additionally, an {Approval} event is emitted on calls to {transferFrom}. This allows applications to reconstruct the allowance for all accounts just by listening to said events. Other implementations of the EIP may not emit these events, as it isn't required by the specification. Finally, the non-standard {decreaseAllowance} and {increaseAllowance} functions have been added to mitigate the well-known issues around setting allowances. See {IERC20-approve}.",
				"kind": "dev",
				"methods": {
					"allowance(address,address)": {
						"details": "See {IERC20-allowance}."
					},
					"approve(address,uint256)": {
						"details": "See {IERC20-approve}. NOTE: If `amount` is the maximum `uint256`, the allowance is not updated on `transferFrom`. This is semantically equivalent to an infinite approval. Requirements: - `spender` cannot be the zero address."
					},
					"balanceOf(address)": {
						"details": "See {IERC20-balanceOf}."
					},
					"decimals()": {
						"details": "Returns the number of decimals used to get its user representation. For example, if `decimals` equals `2`, a balance of `505` tokens should be displayed to a user as `5.05` (`505 / 10 ** 2`). Tokens usually opt for a value of 18, imitating the relationship between Ether and Wei. This is the value {ERC20} uses, unless this function is overridden; NOTE: This information is only used for _display_ purposes: it in no way affects any of the arithmetic of the contract, including {IERC20-balanceOf} and {IERC20-transfer}."
					},
					"decreaseAllowance(address,uint256)": {
						"details": "Atomically decreases the allowance granted to `spender` by the caller. This is an alternative to {approve} that can be used as a mitigation for problems described in {IERC20-approve}. Emits an {Approval} event indicating the updated allowance. Requirements: - `spender` cannot be the zero address. - `spender` must have allowance for the caller of at least `subtractedValue`."
					},
					"increaseAllowance(address,uint256)": {
						"details": "Atomically increases the allowance granted to `spender` by the caller. This is an alternative to {approve} that can be used as a mitigation for problems described in {IERC20-approve}. Emits an {Approval} event indicating the updated allowance. Requirements: - `spender` cannot be the zero address."
					},
					"name()": {
						"details": "Returns the name of the token."
					},
					"symbol()": {
						"details": "Returns the symbol of the token, usually a shorter version of the name."
					},
					"totalSupply()": {
						"details": "See {IERC20-totalSupply}."
					},
					"transfer(address,uint256)": {
						"details": "See {IERC20-transfer}. Requirements: - `to` cannot be the zero address. - the caller must have a balance of at least `amount`."
					},
					"transferFrom(address,address,uint256)": {
						"details": "See {IERC20-transferFrom}. Emits an {Approval} event indicating the updated allowance. This is not required by the EIP. See the note at the beginning of {ERC20}. NOTE: Does not update the allowance if the current allowance is the maximum `uint256`. Requirements: - `from` and `to` cannot be the zero address. - `from` must have a balance of at least `amount`. - the caller must have allowance for ``from``'s tokens of at least `amount`."
					}
				},
				"stateVariables": {
					"_mineInfo": {
						"details": "Sets the values for {name} and {symbol}. The default value of {decimals} is 18. To select a different value for {decimals} you should overload it. All two of these values are immutable: they can only be set once during construction."
					}
				},
				"version": 1
			},
			"evm": {
				"assembly": "    /* \"minerpunk/ERC20/MinePower.sol\":5788:18622  contract ERC20 is Context, IERC20, IERC20Metadata {... */\n  mstore(0x40, 0x80)\n    /* \"minerpunk/ERC20/MinePower.sol\":6641:6827  constructor(string memory name_, string memory symbol_) {... */\n  callvalue\n  dup1\n  iszero\n  tag_1\n  jumpi\n  0x00\n  dup1\n  revert\ntag_1:\n  pop\n  mload(0x40)\n  sub(codesize, bytecodeSize)\n  dup1\n  bytecodeSize\n  dup4\n  codecopy\n  dup2\n  dup2\n  add\n  0x40\n  mstore\n  dup2\n  add\n  swap1\n  tag_2\n  swap2\n  swap1\n  tag_3\n  jump\t// in\ntag_2:\n    /* \"minerpunk/ERC20/MinePower.sol\":6715:6720  name_ */\n  dup2\n    /* \"minerpunk/ERC20/MinePower.sol\":6707:6712  _name */\n  0x05\n    /* \"minerpunk/ERC20/MinePower.sol\":6707:6720  _name = name_ */\n  swap1\n  dup2\n  tag_6\n  swap2\n  swap1\n  tag_7\n  jump\t// in\ntag_6:\n  pop\n    /* \"minerpunk/ERC20/MinePower.sol\":6740:6747  symbol_ */\n  dup1\n    /* \"minerpunk/ERC20/MinePower.sol\":6730:6737  _symbol */\n  0x06\n    /* \"minerpunk/ERC20/MinePower.sol\":6730:6747  _symbol = symbol_ */\n  swap1\n  dup2\n  tag_8\n  swap2\n  swap1\n  tag_7\n  jump\t// in\ntag_8:\n  pop\n    /* \"minerpunk/ERC20/MinePower.sol\":6774:6778  5e18 */\n  0x4563918244f40000\n    /* \"minerpunk/ERC20/MinePower.sol\":6757:6771  _TokenperBlock */\n  0x03\n    /* \"minerpunk/ERC20/MinePower.sol\":6757:6778  _TokenperBlock = 5e18 */\n  dup2\n  swap1\n  sstore\n  pop\n    /* \"minerpunk/ERC20/MinePower.sol\":6808:6820  block.number */\n  number\n    /* \"minerpunk/ERC20/MinePower.sol\":6788:6805  _startBlockNumber */\n  0x04\n    /* \"minerpunk/ERC20/MinePower.sol\":6788:6820  _startBlockNumber = block.number */\n  dup2\n  swap1\n  sstore\n  pop\n    /* \"minerpunk/ERC20/MinePower.sol\":6641:6827  constructor(string memory name_, string memory symbol_) {... */\n  pop\n  pop\n    /* \"minerpunk/ERC20/MinePower.sol\":5788:18622  contract ERC20 is Context, IERC20, IERC20Metadata {... */\n  jump(tag_9)\n    /* \"#utility.yul\":7:82   */\ntag_10:\n    /* \"#utility.yul\":40:46   */\n  0x00\n    /* \"#utility.yul\":73:75   */\n  0x40\n    /* \"#utility.yul\":67:76   */\n  mload\n    /* \"#utility.yul\":57:76   */\n  swap1\n  pop\n    /* \"#utility.yul\":7:82   */\n  swap1\n  jump\t// out\n    /* \"#utility.yul\":88:205   */\ntag_11:\n    /* \"#utility.yul\":197:198   */\n  0x00\n    /* \"#utility.yul\":194:195   */\n  dup1\n    /* \"#utility.yul\":187:199   */\n  revert\n    /* \"#utility.yul\":211:328   */\ntag_12:\n    /* \"#utility.yul\":320:321   */\n  0x00\n    /* \"#utility.yul\":317:318   */\n  dup1\n    /* \"#utility.yul\":310:322   */\n  revert\n    /* \"#utility.yul\":334:451   */\ntag_13:\n    /* \"#utility.yul\":443:444   */\n  0x00\n    /* \"#utility.yul\":440:441   */\n  dup1\n    /* \"#utility.yul\":433:445   */\n  revert\n    /* \"#utility.yul\":457:574   */\ntag_14:\n    /* \"#utility.yul\":566:567   */\n  0x00\n    /* \"#utility.yul\":563:564   */\n  dup1\n    /* \"#utility.yul\":556:568   */\n  revert\n    /* \"#utility.yul\":580:682   */\ntag_15:\n    /* \"#utility.yul\":621:627   */\n  0x00\n    /* \"#utility.yul\":672:674   */\n  0x1f\n    /* \"#utility.yul\":668:675   */\n  not\n    /* \"#utility.yul\":663:665   */\n  0x1f\n    /* \"#utility.yul\":656:661   */\n  dup4\n    /* \"#utility.yul\":652:666   */\n  add\n    /* \"#utility.yul\":648:676   */\n  and\n    /* \"#utility.yul\":638:676   */\n  swap1\n  pop\n    /* \"#utility.yul\":580:682   */\n  swap2\n  swap1\n  pop\n  jump\t// out\n    /* \"#utility.yul\":688:868   */\ntag_16:\n    /* \"#utility.yul\":736:813   */\n  0x4e487b7100000000000000000000000000000000000000000000000000000000\n    /* \"#utility.yul\":733:734   */\n  0x00\n    /* \"#utility.yul\":726:814   */\n  mstore\n    /* \"#utility.yul\":833:837   */\n  0x41\n    /* \"#utility.yul\":830:831   */\n  0x04\n    /* \"#utility.yul\":823:838   */\n  mstore\n    /* \"#utility.yul\":857:861   */\n  0x24\n    /* \"#utility.yul\":854:855   */\n  0x00\n    /* \"#utility.yul\":847:862   */\n  revert\n    /* \"#utility.yul\":874:1155   */\ntag_17:\n    /* \"#utility.yul\":957:984   */\n  tag_51\n    /* \"#utility.yul\":979:983   */\n  dup3\n    /* \"#utility.yul\":957:984   */\n  tag_15\n  jump\t// in\ntag_51:\n    /* \"#utility.yul\":949:955   */\n  dup2\n    /* \"#utility.yul\":945:985   */\n  add\n    /* \"#utility.yul\":1087:1093   */\n  dup2\n    /* \"#utility.yul\":1075:1085   */\n  dup2\n    /* \"#utility.yul\":1072:1094   */\n  lt\n    /* \"#utility.yul\":1051:1069   */\n  0xffffffffffffffff\n    /* \"#utility.yul\":1039:1049   */\n  dup3\n    /* \"#utility.yul\":1036:1070   */\n  gt\n    /* \"#utility.yul\":1033:1095   */\n  or\n    /* \"#utility.yul\":1030:1118   */\n  iszero\n  tag_52\n  jumpi\n    /* \"#utility.yul\":1098:1116   */\n  tag_53\n  tag_16\n  jump\t// in\ntag_53:\n    /* \"#utility.yul\":1030:1118   */\ntag_52:\n    /* \"#utility.yul\":1138:1148   */\n  dup1\n    /* \"#utility.yul\":1134:1136   */\n  0x40\n    /* \"#utility.yul\":1127:1149   */\n  mstore\n    /* \"#utility.yul\":917:1155   */\n  pop\n    /* \"#utility.yul\":874:1155   */\n  pop\n  pop\n  jump\t// out\n    /* \"#utility.yul\":1161:1290   */\ntag_18:\n    /* \"#utility.yul\":1195:1201   */\n  0x00\n    /* \"#utility.yul\":1222:1242   */\n  tag_55\n  tag_10\n  jump\t// in\ntag_55:\n    /* \"#utility.yul\":1212:1242   */\n  swap1\n  pop\n    /* \"#utility.yul\":1251:1284   */\n  tag_56\n    /* \"#utility.yul\":1279:1283   */\n  dup3\n    /* \"#utility.yul\":1271:1277   */\n  dup3\n    /* \"#utility.yul\":1251:1284   */\n  tag_17\n  jump\t// in\ntag_56:\n    /* \"#utility.yul\":1161:1290   */\n  swap2\n  swap1\n  pop\n  jump\t// out\n    /* \"#utility.yul\":1296:1604   */\ntag_19:\n    /* \"#utility.yul\":1358:1362   */\n  0x00\n    /* \"#utility.yul\":1448:1466   */\n  0xffffffffffffffff\n    /* \"#utility.yul\":1440:1446   */\n  dup3\n    /* \"#utility.yul\":1437:1467   */\n  gt\n    /* \"#utility.yul\":1434:1490   */\n  iszero\n  tag_58\n  jumpi\n    /* \"#utility.yul\":1470:1488   */\n  tag_59\n  tag_16\n  jump\t// in\ntag_59:\n    /* \"#utility.yul\":1434:1490   */\ntag_58:\n    /* \"#utility.yul\":1508:1537   */\n  tag_60\n    /* \"#utility.yul\":1530:1536   */\n  dup3\n    /* \"#utility.yul\":1508:1537   */\n  tag_15\n  jump\t// in\ntag_60:\n    /* \"#utility.yul\":1500:1537   */\n  swap1\n  pop\n    /* \"#utility.yul\":1592:1596   */\n  0x20\n    /* \"#utility.yul\":1586:1590   */\n  dup2\n    /* \"#utility.yul\":1582:1597   */\n  add\n    /* \"#utility.yul\":1574:1597   */\n  swap1\n  pop\n    /* \"#utility.yul\":1296:1604   */\n  swap2\n  swap1\n  pop\n  jump\t// out\n    /* \"#utility.yul\":1610:1856   */\ntag_20:\n    /* \"#utility.yul\":1691:1692   */\n  0x00\n    /* \"#utility.yul\":1701:1814   */\ntag_62:\n    /* \"#utility.yul\":1715:1721   */\n  dup4\n    /* \"#utility.yul\":1712:1713   */\n  dup2\n    /* \"#utility.yul\":1709:1722   */\n  lt\n    /* \"#utility.yul\":1701:1814   */\n  iszero\n  tag_64\n  jumpi\n    /* \"#utility.yul\":1800:1801   */\n  dup1\n    /* \"#utility.yul\":1795:1798   */\n  dup3\n    /* \"#utility.yul\":1791:1802   */\n  add\n    /* \"#utility.yul\":1785:1803   */\n  mload\n    /* \"#utility.yul\":1781:1782   */\n  dup2\n    /* \"#utility.yul\":1776:1779   */\n  dup5\n    /* \"#utility.yul\":1772:1783   */\n  add\n    /* \"#utility.yul\":1765:1804   */\n  mstore\n    /* \"#utility.yul\":1737:1739   */\n  0x20\n    /* \"#utility.yul\":1734:1735   */\n  dup2\n    /* \"#utility.yul\":1730:1740   */\n  add\n    /* \"#utility.yul\":1725:1740   */\n  swap1\n  pop\n    /* \"#utility.yul\":1701:1814   */\n  jump(tag_62)\ntag_64:\n    /* \"#utility.yul\":1848:1849   */\n  0x00\n    /* \"#utility.yul\":1839:1845   */\n  dup5\n    /* \"#utility.yul\":1834:1837   */\n  dup5\n    /* \"#utility.yul\":1830:1846   */\n  add\n    /* \"#utility.yul\":1823:1850   */\n  mstore\n    /* \"#utility.yul\":1672:1856   */\n  pop\n    /* \"#utility.yul\":1610:1856   */\n  pop\n  pop\n  pop\n  jump\t// out\n    /* \"#utility.yul\":1862:2296   */\ntag_21:\n    /* \"#utility.yul\":1951:1956   */\n  0x00\n    /* \"#utility.yul\":1976:2042   */\n  tag_66\n    /* \"#utility.yul\":1992:2041   */\n  tag_67\n    /* \"#utility.yul\":2034:2040   */\n  dup5\n    /* \"#utility.yul\":1992:2041   */\n  tag_19\n  jump\t// in\ntag_67:\n    /* \"#utility.yul\":1976:2042   */\n  tag_18\n  jump\t// in\ntag_66:\n    /* \"#utility.yul\":1967:2042   */\n  swap1\n  pop\n    /* \"#utility.yul\":2065:2071   */\n  dup3\n    /* \"#utility.yul\":2058:2063   */\n  dup2\n    /* \"#utility.yul\":2051:2072   */\n  mstore\n    /* \"#utility.yul\":2103:2107   */\n  0x20\n    /* \"#utility.yul\":2096:2101   */\n  dup2\n    /* \"#utility.yul\":2092:2108   */\n  add\n    /* \"#utility.yul\":2141:2144   */\n  dup5\n    /* \"#utility.yul\":2132:2138   */\n  dup5\n    /* \"#utility.yul\":2127:2130   */\n  dup5\n    /* \"#utility.yul\":2123:2139   */\n  add\n    /* \"#utility.yul\":2120:2145   */\n  gt\n    /* \"#utility.yul\":2117:2229   */\n  iszero\n  tag_68\n  jumpi\n    /* \"#utility.yul\":2148:2227   */\n  tag_69\n  tag_14\n  jump\t// in\ntag_69:\n    /* \"#utility.yul\":2117:2229   */\ntag_68:\n    /* \"#utility.yul\":2238:2290   */\n  tag_70\n    /* \"#utility.yul\":2283:2289   */\n  dup5\n    /* \"#utility.yul\":2278:2281   */\n  dup3\n    /* \"#utility.yul\":2273:2276   */\n  dup6\n    /* \"#utility.yul\":2238:2290   */\n  tag_20\n  jump\t// in\ntag_70:\n    /* \"#utility.yul\":1957:2296   */\n  pop\n    /* \"#utility.yul\":1862:2296   */\n  swap4\n  swap3\n  pop\n  pop\n  pop\n  jump\t// out\n    /* \"#utility.yul\":2316:2671   */\ntag_22:\n    /* \"#utility.yul\":2383:2388   */\n  0x00\n    /* \"#utility.yul\":2432:2435   */\n  dup3\n    /* \"#utility.yul\":2425:2429   */\n  0x1f\n    /* \"#utility.yul\":2417:2423   */\n  dup4\n    /* \"#utility.yul\":2413:2430   */\n  add\n    /* \"#utility.yul\":2409:2436   */\n  slt\n    /* \"#utility.yul\":2399:2521   */\n  tag_72\n  jumpi\n    /* \"#utility.yul\":2440:2519   */\n  tag_73\n  tag_13\n  jump\t// in\ntag_73:\n    /* \"#utility.yul\":2399:2521   */\ntag_72:\n    /* \"#utility.yul\":2550:2556   */\n  dup2\n    /* \"#utility.yul\":2544:2557   */\n  mload\n    /* \"#utility.yul\":2575:2665   */\n  tag_74\n    /* \"#utility.yul\":2661:2664   */\n  dup5\n    /* \"#utility.yul\":2653:2659   */\n  dup3\n    /* \"#utility.yul\":2646:2650   */\n  0x20\n    /* \"#utility.yul\":2638:2644   */\n  dup7\n    /* \"#utility.yul\":2634:2651   */\n  add\n    /* \"#utility.yul\":2575:2665   */\n  tag_21\n  jump\t// in\ntag_74:\n    /* \"#utility.yul\":2566:2665   */\n  swap2\n  pop\n    /* \"#utility.yul\":2389:2671   */\n  pop\n    /* \"#utility.yul\":2316:2671   */\n  swap3\n  swap2\n  pop\n  pop\n  jump\t// out\n    /* \"#utility.yul\":2677:3530   */\ntag_3:\n    /* \"#utility.yul\":2776:2782   */\n  0x00\n    /* \"#utility.yul\":2784:2790   */\n  dup1\n    /* \"#utility.yul\":2833:2835   */\n  0x40\n    /* \"#utility.yul\":2821:2830   */\n  dup4\n    /* \"#utility.yul\":2812:2819   */\n  dup6\n    /* \"#utility.yul\":2808:2831   */\n  sub\n    /* \"#utility.yul\":2804:2836   */\n  slt\n    /* \"#utility.yul\":2801:2920   */\n  iszero\n  tag_76\n  jumpi\n    /* \"#utility.yul\":2839:2918   */\n  tag_77\n  tag_11\n  jump\t// in\ntag_77:\n    /* \"#utility.yul\":2801:2920   */\ntag_76:\n    /* \"#utility.yul\":2980:2981   */\n  0x00\n    /* \"#utility.yul\":2969:2978   */\n  dup4\n    /* \"#utility.yul\":2965:2982   */\n  add\n    /* \"#utility.yul\":2959:2983   */\n  mload\n    /* \"#utility.yul\":3010:3028   */\n  0xffffffffffffffff\n    /* \"#utility.yul\":3002:3008   */\n  dup2\n    /* \"#utility.yul\":2999:3029   */\n  gt\n    /* \"#utility.yul\":2996:3113   */\n  iszero\n  tag_78\n  jumpi\n    /* \"#utility.yul\":3032:3111   */\n  tag_79\n  tag_12\n  jump\t// in\ntag_79:\n    /* \"#utility.yul\":2996:3113   */\ntag_78:\n    /* \"#utility.yul\":3137:3211   */\n  tag_80\n    /* \"#utility.yul\":3203:3210   */\n  dup6\n    /* \"#utility.yul\":3194:3200   */\n  dup3\n    /* \"#utility.yul\":3183:3192   */\n  dup7\n    /* \"#utility.yul\":3179:3201   */\n  add\n    /* \"#utility.yul\":3137:3211   */\n  tag_22\n  jump\t// in\ntag_80:\n    /* \"#utility.yul\":3127:3211   */\n  swap3\n  pop\n    /* \"#utility.yul\":2930:3221   */\n  pop\n    /* \"#utility.yul\":3281:3283   */\n  0x20\n    /* \"#utility.yul\":3270:3279   */\n  dup4\n    /* \"#utility.yul\":3266:3284   */\n  add\n    /* \"#utility.yul\":3260:3285   */\n  mload\n    /* \"#utility.yul\":3312:3330   */\n  0xffffffffffffffff\n    /* \"#utility.yul\":3304:3310   */\n  dup2\n    /* \"#utility.yul\":3301:3331   */\n  gt\n    /* \"#utility.yul\":3298:3415   */\n  iszero\n  tag_81\n  jumpi\n    /* \"#utility.yul\":3334:3413   */\n  tag_82\n  tag_12\n  jump\t// in\ntag_82:\n    /* \"#utility.yul\":3298:3415   */\ntag_81:\n    /* \"#utility.yul\":3439:3513   */\n  tag_83\n    /* \"#utility.yul\":3505:3512   */\n  dup6\n    /* \"#utility.yul\":3496:3502   */\n  dup3\n    /* \"#utility.yul\":3485:3494   */\n  dup7\n    /* \"#utility.yul\":3481:3503   */\n  add\n    /* \"#utility.yul\":3439:3513   */\n  tag_22\n  jump\t// in\ntag_83:\n    /* \"#utility.yul\":3429:3513   */\n  swap2\n  pop\n    /* \"#utility.yul\":3231:3523   */\n  pop\n    /* \"#utility.yul\":2677:3530   */\n  swap3\n  pop\n  swap3\n  swap1\n  pop\n  jump\t// out\n    /* \"#utility.yul\":3536:3635   */\ntag_23:\n    /* \"#utility.yul\":3588:3594   */\n  0x00\n    /* \"#utility.yul\":3622:3627   */\n  dup2\n    /* \"#utility.yul\":3616:3628   */\n  mload\n    /* \"#utility.yul\":3606:3628   */\n  swap1\n  pop\n    /* \"#utility.yul\":3536:3635   */\n  swap2\n  swap1\n  pop\n  jump\t// out\n    /* \"#utility.yul\":3641:3821   */\ntag_24:\n    /* \"#utility.yul\":3689:3766   */\n  0x4e487b7100000000000000000000000000000000000000000000000000000000\n    /* \"#utility.yul\":3686:3687   */\n  0x00\n    /* \"#utility.yul\":3679:3767   */\n  mstore\n    /* \"#utility.yul\":3786:3790   */\n  0x22\n    /* \"#utility.yul\":3783:3784   */\n  0x04\n    /* \"#utility.yul\":3776:3791   */\n  mstore\n    /* \"#utility.yul\":3810:3814   */\n  0x24\n    /* \"#utility.yul\":3807:3808   */\n  0x00\n    /* \"#utility.yul\":3800:3815   */\n  revert\n    /* \"#utility.yul\":3827:4147   */\ntag_25:\n    /* \"#utility.yul\":3871:3877   */\n  0x00\n    /* \"#utility.yul\":3908:3909   */\n  0x02\n    /* \"#utility.yul\":3902:3906   */\n  dup3\n    /* \"#utility.yul\":3898:3910   */\n  div\n    /* \"#utility.yul\":3888:3910   */\n  swap1\n  pop\n    /* \"#utility.yul\":3955:3956   */\n  0x01\n    /* \"#utility.yul\":3949:3953   */\n  dup3\n    /* \"#utility.yul\":3945:3957   */\n  and\n    /* \"#utility.yul\":3976:3994   */\n  dup1\n    /* \"#utility.yul\":3966:4047   */\n  tag_87\n  jumpi\n    /* \"#utility.yul\":4032:4036   */\n  0x7f\n    /* \"#utility.yul\":4024:4030   */\n  dup3\n    /* \"#utility.yul\":4020:4037   */\n  and\n    /* \"#utility.yul\":4010:4037   */\n  swap2\n  pop\n    /* \"#utility.yul\":3966:4047   */\ntag_87:\n    /* \"#utility.yul\":4094:4096   */\n  0x20\n    /* \"#utility.yul\":4086:4092   */\n  dup3\n    /* \"#utility.yul\":4083:4097   */\n  lt\n    /* \"#utility.yul\":4063:4081   */\n  dup2\n    /* \"#utility.yul\":4060:4098   */\n  sub\n    /* \"#utility.yul\":4057:4141   */\n  tag_88\n  jumpi\n    /* \"#utility.yul\":4113:4131   */\n  tag_89\n  tag_24\n  jump\t// in\ntag_89:\n    /* \"#utility.yul\":4057:4141   */\ntag_88:\n    /* \"#utility.yul\":3878:4147   */\n  pop\n    /* \"#utility.yul\":3827:4147   */\n  swap2\n  swap1\n  pop\n  jump\t// out\n    /* \"#utility.yul\":4153:4294   */\ntag_26:\n    /* \"#utility.yul\":4202:4206   */\n  0x00\n    /* \"#utility.yul\":4225:4228   */\n  dup2\n    /* \"#utility.yul\":4217:4228   */\n  swap1\n  pop\n    /* \"#utility.yul\":4248:4251   */\n  dup2\n    /* \"#utility.yul\":4245:4246   */\n  0x00\n    /* \"#utility.yul\":4238:4252   */\n  mstore\n    /* \"#utility.yul\":4282:4286   */\n  0x20\n    /* \"#utility.yul\":4279:4280   */\n  0x00\n    /* \"#utility.yul\":4269:4287   */\n  keccak256\n    /* \"#utility.yul\":4261:4287   */\n  swap1\n  pop\n    /* \"#utility.yul\":4153:4294   */\n  swap2\n  swap1\n  pop\n  jump\t// out\n    /* \"#utility.yul\":4300:4393   */\ntag_27:\n    /* \"#utility.yul\":4337:4343   */\n  0x00\n    /* \"#utility.yul\":4384:4386   */\n  0x20\n    /* \"#utility.yul\":4379:4381   */\n  0x1f\n    /* \"#utility.yul\":4372:4377   */\n  dup4\n    /* \"#utility.yul\":4368:4382   */\n  add\n    /* \"#utility.yul\":4364:4387   */\n  div\n    /* \"#utility.yul\":4354:4387   */\n  swap1\n  pop\n    /* \"#utility.yul\":4300:4393   */\n  swap2\n  swap1\n  pop\n  jump\t// out\n    /* \"#utility.yul\":4399:4506   */\ntag_28:\n    /* \"#utility.yul\":4443:4451   */\n  0x00\n    /* \"#utility.yul\":4493:4498   */\n  dup3\n    /* \"#utility.yul\":4487:4491   */\n  dup3\n    /* \"#utility.yul\":4483:4499   */\n  shl\n    /* \"#utility.yul\":4462:4499   */\n  swap1\n  pop\n    /* \"#utility.yul\":4399:4506   */\n  swap3\n  swap2\n  pop\n  pop\n  jump\t// out\n    /* \"#utility.yul\":4512:4905   */\ntag_29:\n    /* \"#utility.yul\":4581:4587   */\n  0x00\n    /* \"#utility.yul\":4631:4632   */\n  0x08\n    /* \"#utility.yul\":4619:4629   */\n  dup4\n    /* \"#utility.yul\":4615:4633   */\n  mul\n    /* \"#utility.yul\":4654:4751   */\n  tag_94\n    /* \"#utility.yul\":4684:4750   */\n  0xffffffffffffffffffffffffffffffffffffffffffffffffffffffffffffffff\n    /* \"#utility.yul\":4673:4682   */\n  dup3\n    /* \"#utility.yul\":4654:4751   */\n  tag_28\n  jump\t// in\ntag_94:\n    /* \"#utility.yul\":4772:4811   */\n  tag_95\n    /* \"#utility.yul\":4802:4810   */\n  dup7\n    /* \"#utility.yul\":4791:4800   */\n  dup4\n    /* \"#utility.yul\":4772:4811   */\n  tag_28\n  jump\t// in\ntag_95:\n    /* \"#utility.yul\":4760:4811   */\n  swap6\n  pop\n    /* \"#utility.yul\":4844:4848   */\n  dup1\n    /* \"#utility.yul\":4840:4849   */\n  not\n    /* \"#utility.yul\":4833:4838   */\n  dup5\n    /* \"#utility.yul\":4829:4850   */\n  and\n    /* \"#utility.yul\":4820:4850   */\n  swap4\n  pop\n    /* \"#utility.yul\":4893:4897   */\n  dup1\n    /* \"#utility.yul\":4883:4891   */\n  dup7\n    /* \"#utility.yul\":4879:4898   */\n  and\n    /* \"#utility.yul\":4872:4877   */\n  dup5\n    /* \"#utility.yul\":4869:4899   */\n  or\n    /* \"#utility.yul\":4859:4899   */\n  swap3\n  pop\n    /* \"#utility.yul\":4588:4905   */\n  pop\n  pop\n    /* \"#utility.yul\":4512:4905   */\n  swap4\n  swap3\n  pop\n  pop\n  pop\n  jump\t// out\n    /* \"#utility.yul\":4911:4988   */\ntag_30:\n    /* \"#utility.yul\":4948:4955   */\n  0x00\n    /* \"#utility.yul\":4977:4982   */\n  dup2\n    /* \"#utility.yul\":4966:4982   */\n  swap1\n  pop\n    /* \"#utility.yul\":4911:4988   */\n  swap2\n  swap1\n  pop\n  jump\t// out\n    /* \"#utility.yul\":4994:5054   */\ntag_31:\n    /* \"#utility.yul\":5022:5025   */\n  0x00\n    /* \"#utility.yul\":5043:5048   */\n  dup2\n    /* \"#utility.yul\":5036:5048   */\n  swap1\n  pop\n    /* \"#utility.yul\":4994:5054   */\n  swap2\n  swap1\n  pop\n  jump\t// out\n    /* \"#utility.yul\":5060:5202   */\ntag_32:\n    /* \"#utility.yul\":5110:5119   */\n  0x00\n    /* \"#utility.yul\":5143:5196   */\n  tag_99\n    /* \"#utility.yul\":5161:5195   */\n  tag_100\n    /* \"#utility.yul\":5170:5194   */\n  tag_101\n    /* \"#utility.yul\":5188:5193   */\n  dup5\n    /* \"#utility.yul\":5170:5194   */\n  tag_30\n  jump\t// in\ntag_101:\n    /* \"#utility.yul\":5161:5195   */\n  tag_31\n  jump\t// in\ntag_100:\n    /* \"#utility.yul\":5143:5196   */\n  tag_30\n  jump\t// in\ntag_99:\n    /* \"#utility.yul\":5130:5196   */\n  swap1\n  pop\n    /* \"#utility.yul\":5060:5202   */\n  swap2\n  swap1\n  pop\n  jump\t// out\n    /* \"#utility.yul\":5208:5283   */\ntag_33:\n    /* \"#utility.yul\":5251:5254   */\n  0x00\n    /* \"#utility.yul\":5272:5277   */\n  dup2\n    /* \"#utility.yul\":5265:5277   */\n  swap1\n  pop\n    /* \"#utility.yul\":5208:5283   */\n  swap2\n  swap1\n  pop\n  jump\t// out\n    /* \"#utility.yul\":5289:5558   */\ntag_34:\n    /* \"#utility.yul\":5399:5438   */\n  tag_104\n    /* \"#utility.yul\":5430:5437   */\n  dup4\n    /* \"#utility.yul\":5399:5438   */\n  tag_32\n  jump\t// in\ntag_104:\n    /* \"#utility.yul\":5460:5551   */\n  tag_105\n    /* \"#utility.yul\":5509:5550   */\n  tag_106\n    /* \"#utility.yul\":5533:5549   */\n  dup3\n    /* \"#utility.yul\":5509:5550   */\n  tag_33\n  jump\t// in\ntag_106:\n    /* \"#utility.yul\":5501:5507   */\n  dup5\n    /* \"#utility.yul\":5494:5498   */\n  dup5\n    /* \"#utility.yul\":5488:5499   */\n  sload\n    /* \"#utility.yul\":5460:5551   */\n  tag_29\n  jump\t// in\ntag_105:\n    /* \"#utility.yul\":5454:5458   */\n  dup3\n    /* \"#utility.yul\":5447:5552   */\n  sstore\n    /* \"#utility.yul\":5365:5558   */\n  pop\n    /* \"#utility.yul\":5289:5558   */\n  pop\n  pop\n  pop\n  jump\t// out\n    /* \"#utility.yul\":5564:5637   */\ntag_35:\n    /* \"#utility.yul\":5609:5612   */\n  0x00\n    /* \"#utility.yul\":5564:5637   */\n  swap1\n  jump\t// out\n    /* \"#utility.yul\":5643:5832   */\ntag_36:\n    /* \"#utility.yul\":5720:5752   */\n  tag_109\n  tag_35\n  jump\t// in\ntag_109:\n    /* \"#utility.yul\":5761:5826   */\n  tag_110\n    /* \"#utility.yul\":5819:5825   */\n  dup2\n    /* \"#utility.yul\":5811:5817   */\n  dup5\n    /* \"#utility.yul\":5805:5809   */\n  dup5\n    /* \"#utility.yul\":5761:5826   */\n  tag_34\n  jump\t// in\ntag_110:\n    /* \"#utility.yul\":5696:5832   */\n  pop\n    /* \"#utility.yul\":5643:5832   */\n  pop\n  pop\n  jump\t// out\n    /* \"#utility.yul\":5838:6024   */\ntag_37:\n    /* \"#utility.yul\":5898:6018   */\ntag_112:\n    /* \"#utility.yul\":5915:5918   */\n  dup2\n    /* \"#utility.yul\":5908:5913   */\n  dup2\n    /* \"#utility.yul\":5905:5919   */\n  lt\n    /* \"#utility.yul\":5898:6018   */\n  iszero\n  tag_114\n  jumpi\n    /* \"#utility.yul\":5969:6008   */\n  tag_115\n    /* \"#utility.yul\":6006:6007   */\n  0x00\n    /* \"#utility.yul\":5999:6004   */\n  dup3\n    /* \"#utility.yul\":5969:6008   */\n  tag_36\n  jump\t// in\ntag_115:\n    /* \"#utility.yul\":5942:5943   */\n  0x01\n    /* \"#utility.yul\":5935:5940   */\n  dup2\n    /* \"#utility.yul\":5931:5944   */\n  add\n    /* \"#utility.yul\":5922:5944   */\n  swap1\n  pop\n    /* \"#utility.yul\":5898:6018   */\n  jump(tag_112)\ntag_114:\n    /* \"#utility.yul\":5838:6024   */\n  pop\n  pop\n  jump\t// out\n    /* \"#utility.yul\":6030:6573   */\ntag_38:\n    /* \"#utility.yul\":6131:6133   */\n  0x1f\n    /* \"#utility.yul\":6126:6129   */\n  dup3\n    /* \"#utility.yul\":6123:6134   */\n  gt\n    /* \"#utility.yul\":6120:6566   */\n  iszero\n  tag_117\n  jumpi\n    /* \"#utility.yul\":6165:6203   */\n  tag_118\n    /* \"#utility.yul\":6197:6202   */\n  dup2\n    /* \"#utility.yul\":6165:6203   */\n  tag_26\n  jump\t// in\ntag_118:\n    /* \"#utility.yul\":6249:6278   */\n  tag_119\n    /* \"#utility.yul\":6267:6277   */\n  dup5\n    /* \"#utility.yul\":6249:6278   */\n  tag_27\n  jump\t// in\ntag_119:\n    /* \"#utility.yul\":6239:6247   */\n  dup2\n    /* \"#utility.yul\":6235:6279   */\n  add\n    /* \"#utility.yul\":6432:6434   */\n  0x20\n    /* \"#utility.yul\":6420:6430   */\n  dup6\n    /* \"#utility.yul\":6417:6435   */\n  lt\n    /* \"#utility.yul\":6414:6463   */\n  iszero\n  tag_120\n  jumpi\n    /* \"#utility.yul\":6453:6461   */\n  dup2\n    /* \"#utility.yul\":6438:6461   */\n  swap1\n  pop\n    /* \"#utility.yul\":6414:6463   */\ntag_120:\n    /* \"#utility.yul\":6476:6556   */\n  tag_121\n    /* \"#utility.yul\":6532:6554   */\n  tag_122\n    /* \"#utility.yul\":6550:6553   */\n  dup6\n    /* \"#utility.yul\":6532:6554   */\n  tag_27\n  jump\t// in\ntag_122:\n    /* \"#utility.yul\":6522:6530   */\n  dup4\n    /* \"#utility.yul\":6518:6555   */\n  add\n    /* \"#utility.yul\":6505:6516   */\n  dup3\n    /* \"#utility.yul\":6476:6556   */\n  tag_37\n  jump\t// in\ntag_121:\n    /* \"#utility.yul\":6135:6566   */\n  pop\n  pop\n    /* \"#utility.yul\":6120:6566   */\ntag_117:\n    /* \"#utility.yul\":6030:6573   */\n  pop\n  pop\n  pop\n  jump\t// out\n    /* \"#utility.yul\":6579:6696   */\ntag_39:\n    /* \"#utility.yul\":6633:6641   */\n  0x00\n    /* \"#utility.yul\":6683:6688   */\n  dup3\n    /* \"#utility.yul\":6677:6681   */\n  dup3\n    /* \"#utility.yul\":6673:6689   */\n  shr\n    /* \"#utility.yul\":6652:6689   */\n  swap1\n  pop\n    /* \"#utility.yul\":6579:6696   */\n  swap3\n  swap2\n  pop\n  pop\n  jump\t// out\n    /* \"#utility.yul\":6702:6871   */\ntag_40:\n    /* \"#utility.yul\":6746:6752   */\n  0x00\n    /* \"#utility.yul\":6779:6830   */\n  tag_125\n    /* \"#utility.yul\":6827:6828   */\n  0x00\n    /* \"#utility.yul\":6823:6829   */\n  not\n    /* \"#utility.yul\":6815:6820   */\n  dup5\n    /* \"#utility.yul\":6812:6813   */\n  0x08\n    /* \"#utility.yul\":6808:6821   */\n  mul\n    /* \"#utility.yul\":6779:6830   */\n  tag_39\n  jump\t// in\ntag_125:\n    /* \"#utility.yul\":6775:6831   */\n  not\n    /* \"#utility.yul\":6860:6864   */\n  dup1\n    /* \"#utility.yul\":6854:6858   */\n  dup4\n    /* \"#utility.yul\":6850:6865   */\n  and\n    /* \"#utility.yul\":6840:6865   */\n  swap2\n  pop\n    /* \"#utility.yul\":6753:6871   */\n  pop\n    /* \"#utility.yul\":6702:6871   */\n  swap3\n  swap2\n  pop\n  pop\n  jump\t// out\n    /* \"#utility.yul\":6876:7171   */\ntag_41:\n    /* \"#utility.yul\":6952:6956   */\n  0x00\n    /* \"#utility.yul\":7098:7127   */\n  tag_127\n    /* \"#utility.yul\":7123:7126   */\n  dup4\n    /* \"#utility.yul\":7117:7121   */\n  dup4\n    /* \"#utility.yul\":7098:7127   */\n  tag_40\n  jump\t// in\ntag_127:\n    /* \"#utility.yul\":7090:7127   */\n  swap2\n  pop\n    /* \"#utility.yul\":7160:7163   */\n  dup3\n    /* \"#utility.yul\":7157:7158   */\n  0x02\n    /* \"#utility.yul\":7153:7164   */\n  mul\n    /* \"#utility.yul\":7147:7151   */\n  dup3\n    /* \"#utility.yul\":7144:7165   */\n  or\n    /* \"#utility.yul\":7136:7165   */\n  swap1\n  pop\n    /* \"#utility.yul\":6876:7171   */\n  swap3\n  swap2\n  pop\n  pop\n  jump\t// out\n    /* \"#utility.yul\":7176:8571   */\ntag_7:\n    /* \"#utility.yul\":7293:7330   */\n  tag_129\n    /* \"#utility.yul\":7326:7329   */\n  dup3\n    /* \"#utility.yul\":7293:7330   */\n  tag_23\n  jump\t// in\ntag_129:\n    /* \"#utility.yul\":7395:7413   */\n  0xffffffffffffffff\n    /* \"#utility.yul\":7387:7393   */\n  dup2\n    /* \"#utility.yul\":7384:7414   */\n  gt\n    /* \"#utility.yul\":7381:7437   */\n  iszero\n  tag_130\n  jumpi\n    /* \"#utility.yul\":7417:7435   */\n  tag_131\n  tag_16\n  jump\t// in\ntag_131:\n    /* \"#utility.yul\":7381:7437   */\ntag_130:\n    /* \"#utility.yul\":7461:7499   */\n  tag_132\n    /* \"#utility.yul\":7493:7497   */\n  dup3\n    /* \"#utility.yul\":7487:7498   */\n  sload\n    /* \"#utility.yul\":7461:7499   */\n  tag_25\n  jump\t// in\ntag_132:\n    /* \"#utility.yul\":7546:7613   */\n  tag_133\n    /* \"#utility.yul\":7606:7612   */\n  dup3\n    /* \"#utility.yul\":7598:7604   */\n  dup3\n    /* \"#utility.yul\":7592:7596   */\n  dup6\n    /* \"#utility.yul\":7546:7613   */\n  tag_38\n  jump\t// in\ntag_133:\n    /* \"#utility.yul\":7640:7641   */\n  0x00\n    /* \"#utility.yul\":7664:7668   */\n  0x20\n    /* \"#utility.yul\":7651:7668   */\n  swap1\n  pop\n    /* \"#utility.yul\":7696:7698   */\n  0x1f\n    /* \"#utility.yul\":7688:7694   */\n  dup4\n    /* \"#utility.yul\":7685:7699   */\n  gt\n    /* \"#utility.yul\":7713:7714   */\n  0x01\n    /* \"#utility.yul\":7708:8326   */\n  dup2\n  eq\n  tag_135\n  jumpi\n    /* \"#utility.yul\":8370:8371   */\n  0x00\n    /* \"#utility.yul\":8387:8393   */\n  dup5\n    /* \"#utility.yul\":8384:8461   */\n  iszero\n  tag_136\n  jumpi\n    /* \"#utility.yul\":8436:8445   */\n  dup3\n    /* \"#utility.yul\":8431:8434   */\n  dup8\n    /* \"#utility.yul\":8427:8446   */\n  add\n    /* \"#utility.yul\":8421:8447   */\n  mload\n    /* \"#utility.yul\":8412:8447   */\n  swap1\n  pop\n    /* \"#utility.yul\":8384:8461   */\ntag_136:\n    /* \"#utility.yul\":8487:8554   */\n  tag_137\n    /* \"#utility.yul\":8547:8553   */\n  dup6\n    /* \"#utility.yul\":8540:8545   */\n  dup3\n    /* \"#utility.yul\":8487:8554   */\n  tag_41\n  jump\t// in\ntag_137:\n    /* \"#utility.yul\":8481:8485   */\n  dup7\n    /* \"#utility.yul\":8474:8555   */\n  sstore\n    /* \"#utility.yul\":8343:8565   */\n  pop\n    /* \"#utility.yul\":7678:8565   */\n  jump(tag_134)\n    /* \"#utility.yul\":7708:8326   */\ntag_135:\n    /* \"#utility.yul\":7760:7764   */\n  0x1f\n    /* \"#utility.yul\":7756:7765   */\n  not\n    /* \"#utility.yul\":7748:7754   */\n  dup5\n    /* \"#utility.yul\":7744:7766   */\n  and\n    /* \"#utility.yul\":7794:7831   */\n  tag_138\n    /* \"#utility.yul\":7826:7830   */\n  dup7\n    /* \"#utility.yul\":7794:7831   */\n  tag_26\n  jump\t// in\ntag_138:\n    /* \"#utility.yul\":7853:7854   */\n  0x00\n    /* \"#utility.yul\":7867:8075   */\ntag_139:\n    /* \"#utility.yul\":7881:7888   */\n  dup3\n    /* \"#utility.yul\":7878:7879   */\n  dup2\n    /* \"#utility.yul\":7875:7889   */\n  lt\n    /* \"#utility.yul\":7867:8075   */\n  iszero\n  tag_141\n  jumpi\n    /* \"#utility.yul\":7960:7969   */\n  dup5\n    /* \"#utility.yul\":7955:7958   */\n  dup10\n    /* \"#utility.yul\":7951:7970   */\n  add\n    /* \"#utility.yul\":7945:7971   */\n  mload\n    /* \"#utility.yul\":7937:7943   */\n  dup3\n    /* \"#utility.yul\":7930:7972   */\n  sstore\n    /* \"#utility.yul\":8011:8012   */\n  0x01\n    /* \"#utility.yul\":8003:8009   */\n  dup3\n    /* \"#utility.yul\":7999:8013   */\n  add\n    /* \"#utility.yul\":7989:8013   */\n  swap2\n  pop\n    /* \"#utility.yul\":8058:8060   */\n  0x20\n    /* \"#utility.yul\":8047:8056   */\n  dup6\n    /* \"#utility.yul\":8043:8061   */\n  add\n    /* \"#utility.yul\":8030:8061   */\n  swap5\n  pop\n    /* \"#utility.yul\":7904:7908   */\n  0x20\n    /* \"#utility.yul\":7901:7902   */\n  dup2\n    /* \"#utility.yul\":7897:7909   */\n  add\n    /* \"#utility.yul\":7892:7909   */\n  swap1\n  pop\n    /* \"#utility.yul\":7867:8075   */\n  jump(tag_139)\ntag_141:\n    /* \"#utility.yul\":8103:8109   */\n  dup7\n    /* \"#utility.yul\":8094:8101   */\n  dup4\n    /* \"#utility.yul\":8091:8110   */\n  lt\n    /* \"#utility.yul\":8088:8267   */\n  iszero\n  tag_142\n  jumpi\n    /* \"#utility.yul\":8161:8170   */\n  dup5\n    /* \"#utility.yul\":8156:8159   */\n  dup10\n    /* \"#utility.yul\":8152:8171   */\n  add\n    /* \"#utility.yul\":8146:8172   */\n  mload\n    /* \"#utility.yul\":8204:8252   */\n  tag_143\n    /* \"#utility.yul\":8246:8250   */\n  0x1f\n    /* \"#utility.yul\":8238:8244   */\n  dup10\n    /* \"#utility.yul\":8234:8251   */\n  and\n    /* \"#utility.yul\":8223:8232   */\n  dup3\n    /* \"#utility.yul\":8204:8252   */\n  tag_40\n  jump\t// in\ntag_143:\n    /* \"#utility.yul\":8196:8202   */\n  dup4\n    /* \"#utility.yul\":8189:8253   */\n  sstore\n    /* \"#utility.yul\":8111:8267   */\n  pop\n    /* \"#utility.yul\":8088:8267   */\ntag_142:\n    /* \"#utility.yul\":8313:8314   */\n  0x01\n    /* \"#utility.yul\":8309:8310   */\n  0x02\n    /* \"#utility.yul\":8301:8307   */\n  dup9\n    /* \"#utility.yul\":8297:8311   */\n  mul\n    /* \"#utility.yul\":8293:8315   */\n  add\n    /* \"#utility.yul\":8287:8291   */\n  dup9\n    /* \"#utility.yul\":8280:8316   */\n  sstore\n    /* \"#utility.yul\":7715:8326   */\n  pop\n  pop\n  pop\n    /* \"#utility.yul\":7678:8565   */\ntag_134:\n  pop\n    /* \"#utility.yul\":7268:8571   */\n  pop\n  pop\n  pop\n    /* \"#utility.yul\":7176:8571   */\n  pop\n  pop\n  jump\t// out\n    /* \"minerpunk/ERC20/MinePower.sol\":5788:18622  contract ERC20 is Context, IERC20, IERC20Metadata {... */\ntag_9:\n  dataSize(sub_0)\n  dup1\n  dataOffset(sub_0)\n  0x00\n  codecopy\n  0x00\n  return\nstop\n\nsub_0: assembly {\n        /* \"minerpunk/ERC20/MinePower.sol\":5788:18622  contract ERC20 is Context, IERC20, IERC20Metadata {... */\n      mstore(0x40, 0x80)\n      callvalue\n      dup1\n      iszero\n      tag_1\n      jumpi\n      0x00\n      dup1\n      revert\n    tag_1:\n      pop\n      jumpi(tag_2, lt(calldatasize, 0x04))\n      shr(0xe0, calldataload(0x00))\n      dup1\n      0x70a08231\n      gt\n      tag_17\n      jumpi\n      dup1\n      0xa9059cbb\n      gt\n      tag_18\n      jumpi\n      dup1\n      0xa9059cbb\n      eq\n      tag_13\n      jumpi\n      dup1\n      0xb8ba6007\n      eq\n      tag_14\n      jumpi\n      dup1\n      0xd993226b\n      eq\n      tag_15\n      jumpi\n      dup1\n      0xdd62ed3e\n      eq\n      tag_16\n      jumpi\n      jump(tag_2)\n    tag_18:\n      dup1\n      0x70a08231\n      eq\n      tag_10\n      jumpi\n      dup1\n      0x95d89b41\n      eq\n      tag_11\n      jumpi\n      dup1\n      0xa457c2d7\n      eq\n      tag_12\n      jumpi\n      jump(tag_2)\n    tag_17:\n      dup1\n      0x23b872dd\n      gt\n      tag_19\n      jumpi\n      dup1\n      0x23b872dd\n      eq\n      tag_6\n      jumpi\n      dup1\n      0x313ce567\n      eq\n      tag_7\n      jumpi\n      dup1\n      0x39509351\n      eq\n      tag_8\n      jumpi\n      dup1\n      0x4be3403c\n      eq\n      tag_9\n      jumpi\n      jump(tag_2)\n    tag_19:\n      dup1\n      0x06fdde03\n      eq\n      tag_3\n      jumpi\n      dup1\n      0x095ea7b3\n      eq\n      tag_4\n      jumpi\n      dup1\n      0x18160ddd\n      eq\n      tag_5\n      jumpi\n    tag_2:\n      0x00\n      dup1\n      revert\n        /* \"minerpunk/ERC20/MinePower.sol\":8161:8259  function name() public view virtual override returns (string memory) {... */\n    tag_3:\n      tag_20\n      tag_21\n      jump\t// in\n    tag_20:\n      mload(0x40)\n      tag_22\n      swap2\n      swap1\n      tag_23\n      jump\t// in\n    tag_22:\n      mload(0x40)\n      dup1\n      swap2\n      sub\n      swap1\n      return\n        /* \"minerpunk/ERC20/MinePower.sol\":10438:10635  function approve(address spender, uint256 amount) public virtual override returns (bool) {... */\n    tag_4:\n      tag_24\n      0x04\n      dup1\n      calldatasize\n      sub\n      dup2\n      add\n      swap1\n      tag_25\n      swap2\n      swap1\n      tag_26\n      jump\t// in\n    tag_25:\n      tag_27\n      jump\t// in\n    tag_24:\n      mload(0x40)\n      tag_28\n      swap2\n      swap1\n      tag_29\n      jump\t// in\n    tag_28:\n      mload(0x40)\n      dup1\n      swap2\n      sub\n      swap1\n      return\n        /* \"minerpunk/ERC20/MinePower.sol\":9249:9355  function totalSupply() public view virtual override returns (uint256) {... */\n    tag_5:\n      tag_30\n      tag_31\n      jump\t// in\n    tag_30:\n      mload(0x40)\n      tag_32\n      swap2\n      swap1\n      tag_33\n      jump\t// in\n    tag_32:\n      mload(0x40)\n      dup1\n      swap2\n      sub\n      swap1\n      return\n        /* \"minerpunk/ERC20/MinePower.sol\":11197:11483  function transferFrom(... */\n    tag_6:\n      tag_34\n      0x04\n      dup1\n      calldatasize\n      sub\n      dup2\n      add\n      swap1\n      tag_35\n      swap2\n      swap1\n      tag_36\n      jump\t// in\n    tag_35:\n      tag_37\n      jump\t// in\n    tag_34:\n      mload(0x40)\n      tag_38\n      swap2\n      swap1\n      tag_29\n      jump\t// in\n    tag_38:\n      mload(0x40)\n      dup1\n      swap2\n      sub\n      swap1\n      return\n        /* \"minerpunk/ERC20/MinePower.sol\":9098:9189  function decimals() public view virtual override returns (uint8) {... */\n    tag_7:\n      tag_39\n      tag_40\n      jump\t// in\n    tag_39:\n      mload(0x40)\n      tag_41\n      swap2\n      swap1\n      tag_42\n      jump\t// in\n    tag_41:\n      mload(0x40)\n      dup1\n      swap2\n      sub\n      swap1\n      return\n        /* \"minerpunk/ERC20/MinePower.sol\":11878:12112  function increaseAllowance(address spender, uint256 addedValue) public virtual returns (bool) {... */\n    tag_8:\n      tag_43\n      0x04\n      dup1\n      calldatasize\n      sub\n      dup2\n      add\n      swap1\n      tag_44\n      swap2\n      swap1\n      tag_26\n      jump\t// in\n    tag_44:\n      tag_45\n      jump\t// in\n    tag_43:\n      mload(0x40)\n      tag_46\n      swap2\n      swap1\n      tag_29\n      jump\t// in\n    tag_46:\n      mload(0x40)\n      dup1\n      swap2\n      sub\n      swap1\n      return\n        /* \"minerpunk/ERC20/MinePower.sol\":7427:7822  function blockStatus (uint256 _BlockNumber)public view  returns (uint256){... */\n    tag_9:\n      tag_47\n      0x04\n      dup1\n      calldatasize\n      sub\n      dup2\n      add\n      swap1\n      tag_48\n      swap2\n      swap1\n      tag_49\n      jump\t// in\n    tag_48:\n      tag_50\n      jump\t// in\n    tag_47:\n      mload(0x40)\n      tag_51\n      swap2\n      swap1\n      tag_33\n      jump\t// in\n    tag_51:\n      mload(0x40)\n      dup1\n      swap2\n      sub\n      swap1\n      return\n        /* \"minerpunk/ERC20/MinePower.sol\":9413:9538  function balanceOf(address account) public view virtual override returns (uint256) {... */\n    tag_10:\n      tag_52\n      0x04\n      dup1\n      calldatasize\n      sub\n      dup2\n      add\n      swap1\n      tag_53\n      swap2\n      swap1\n      tag_54\n      jump\t// in\n    tag_53:\n      tag_55\n      jump\t// in\n    tag_52:\n      mload(0x40)\n      tag_56\n      swap2\n      swap1\n      tag_33\n      jump\t// in\n    tag_56:\n      mload(0x40)\n      dup1\n      swap2\n      sub\n      swap1\n      return\n        /* \"minerpunk/ERC20/MinePower.sol\":8372:8474  function symbol() public view virtual override returns (string memory) {... */\n    tag_11:\n      tag_57\n      tag_58\n      jump\t// in\n    tag_57:\n      mload(0x40)\n      tag_59\n      swap2\n      swap1\n      tag_23\n      jump\t// in\n    tag_59:\n      mload(0x40)\n      dup1\n      swap2\n      sub\n      swap1\n      return\n        /* \"minerpunk/ERC20/MinePower.sol\":12599:13026  function decreaseAllowance(address spender, uint256 subtractedValue) public virtual returns (bool) {... */\n    tag_12:\n      tag_60\n      0x04\n      dup1\n      calldatasize\n      sub\n      dup2\n      add\n      swap1\n      tag_61\n      swap2\n      swap1\n      tag_26\n      jump\t// in\n    tag_61:\n      tag_62\n      jump\t// in\n    tag_60:\n      mload(0x40)\n      tag_63\n      swap2\n      swap1\n      tag_29\n      jump\t// in\n    tag_63:\n      mload(0x40)\n      dup1\n      swap2\n      sub\n      swap1\n      return\n        /* \"minerpunk/ERC20/MinePower.sol\":9734:9923  function transfer(address to, uint256 amount) public virtual override returns (bool) {... */\n    tag_13:\n      tag_64\n      0x04\n      dup1\n      calldatasize\n      sub\n      dup2\n      add\n      swap1\n      tag_65\n      swap2\n      swap1\n      tag_26\n      jump\t// in\n    tag_65:\n      tag_66\n      jump\t// in\n    tag_64:\n      mload(0x40)\n      tag_67\n      swap2\n      swap1\n      tag_29\n      jump\t// in\n    tag_67:\n      mload(0x40)\n      dup1\n      swap2\n      sub\n      swap1\n      return\n        /* \"minerpunk/ERC20/MinePower.sol\":6835:7360  function MineStatus(address user)public view  returns(uint256){... */\n    tag_14:\n      tag_68\n      0x04\n      dup1\n      calldatasize\n      sub\n      dup2\n      add\n      swap1\n      tag_69\n      swap2\n      swap1\n      tag_54\n      jump\t// in\n    tag_69:\n      tag_70\n      jump\t// in\n    tag_68:\n      mload(0x40)\n      tag_71\n      swap2\n      swap1\n      tag_33\n      jump\t// in\n    tag_71:\n      mload(0x40)\n      dup1\n      swap2\n      sub\n      swap1\n      return\n        /* \"minerpunk/ERC20/MinePower.sol\":7829:8088  function difficult(uint _BlockNumber)public view  returns (uint256){... */\n    tag_15:\n      tag_72\n      0x04\n      dup1\n      calldatasize\n      sub\n      dup2\n      add\n      swap1\n      tag_73\n      swap2\n      swap1\n      tag_49\n      jump\t// in\n    tag_73:\n      tag_74\n      jump\t// in\n    tag_72:\n      mload(0x40)\n      tag_75\n      swap2\n      swap1\n      tag_33\n      jump\t// in\n    tag_75:\n      mload(0x40)\n      dup1\n      swap2\n      sub\n      swap1\n      return\n        /* \"minerpunk/ERC20/MinePower.sol\":9981:10130  function allowance(address owner, address spender) public view virtual override returns (uint256) {... */\n    tag_16:\n      tag_76\n      0x04\n      dup1\n      calldatasize\n      sub\n      dup2\n      add\n      swap1\n      tag_77\n      swap2\n      swap1\n      tag_78\n      jump\t// in\n    tag_77:\n      tag_79\n      jump\t// in\n    tag_76:\n      mload(0x40)\n      tag_80\n      swap2\n      swap1\n      tag_33\n      jump\t// in\n    tag_80:\n      mload(0x40)\n      dup1\n      swap2\n      sub\n      swap1\n      return\n        /* \"minerpunk/ERC20/MinePower.sol\":8161:8259  function name() public view virtual override returns (string memory) {... */\n    tag_21:\n        /* \"minerpunk/ERC20/MinePower.sol\":8215:8228  string memory */\n      0x60\n        /* \"minerpunk/ERC20/MinePower.sol\":8247:8252  _name */\n      0x05\n        /* \"minerpunk/ERC20/MinePower.sol\":8240:8252  return _name */\n      dup1\n      sload\n      tag_82\n      swap1\n      tag_83\n      jump\t// in\n    tag_82:\n      dup1\n      0x1f\n      add\n      0x20\n      dup1\n      swap2\n      div\n      mul\n      0x20\n      add\n      mload(0x40)\n      swap1\n      dup2\n      add\n      0x40\n      mstore\n      dup1\n      swap3\n      swap2\n      swap1\n      dup2\n      dup2\n      mstore\n      0x20\n      add\n      dup3\n      dup1\n      sload\n      tag_84\n      swap1\n      tag_83\n      jump\t// in\n    tag_84:\n      dup1\n      iszero\n      tag_85\n      jumpi\n      dup1\n      0x1f\n      lt\n      tag_86\n      jumpi\n      0x0100\n      dup1\n      dup4\n      sload\n      div\n      mul\n      dup4\n      mstore\n      swap2\n      0x20\n      add\n      swap2\n      jump(tag_85)\n    tag_86:\n      dup3\n      add\n      swap2\n      swap1\n      0x00\n      mstore\n      keccak256(0x00, 0x20)\n      swap1\n    tag_87:\n      dup2\n      sload\n      dup2\n      mstore\n      swap1\n      0x01\n      add\n      swap1\n      0x20\n      add\n      dup1\n      dup4\n      gt\n      tag_87\n      jumpi\n      dup3\n      swap1\n      sub\n      0x1f\n      and\n      dup3\n      add\n      swap2\n    tag_85:\n      pop\n      pop\n      pop\n      pop\n      pop\n      swap1\n      pop\n        /* \"minerpunk/ERC20/MinePower.sol\":8161:8259  function name() public view virtual override returns (string memory) {... */\n      swap1\n      jump\t// out\n        /* \"minerpunk/ERC20/MinePower.sol\":10438:10635  function approve(address spender, uint256 amount) public virtual override returns (bool) {... */\n    tag_27:\n        /* \"minerpunk/ERC20/MinePower.sol\":10521:10525  bool */\n      0x00\n        /* \"minerpunk/ERC20/MinePower.sol\":10537:10550  address owner */\n      dup1\n        /* \"minerpunk/ERC20/MinePower.sol\":10553:10565  _msgSender() */\n      tag_89\n        /* \"minerpunk/ERC20/MinePower.sol\":10553:10563  _msgSender */\n      tag_90\n        /* \"minerpunk/ERC20/MinePower.sol\":10553:10565  _msgSender() */\n      jump\t// in\n    tag_89:\n        /* \"minerpunk/ERC20/MinePower.sol\":10537:10565  address owner = _msgSender() */\n      swap1\n      pop\n        /* \"minerpunk/ERC20/MinePower.sol\":10575:10607  _approve(owner, spender, amount) */\n      tag_91\n        /* \"minerpunk/ERC20/MinePower.sol\":10584:10589  owner */\n      dup2\n        /* \"minerpunk/ERC20/MinePower.sol\":10591:10598  spender */\n      dup6\n        /* \"minerpunk/ERC20/MinePower.sol\":10600:10606  amount */\n      dup6\n        /* \"minerpunk/ERC20/MinePower.sol\":10575:10583  _approve */\n      tag_92\n        /* \"minerpunk/ERC20/MinePower.sol\":10575:10607  _approve(owner, spender, amount) */\n      jump\t// in\n    tag_91:\n        /* \"minerpunk/ERC20/MinePower.sol\":10624:10628  true */\n      0x01\n        /* \"minerpunk/ERC20/MinePower.sol\":10617:10628  return true */\n      swap2\n      pop\n      pop\n        /* \"minerpunk/ERC20/MinePower.sol\":10438:10635  function approve(address spender, uint256 amount) public virtual override returns (bool) {... */\n      swap3\n      swap2\n      pop\n      pop\n      jump\t// out\n        /* \"minerpunk/ERC20/MinePower.sol\":9249:9355  function totalSupply() public view virtual override returns (uint256) {... */\n    tag_31:\n        /* \"minerpunk/ERC20/MinePower.sol\":9310:9317  uint256 */\n      0x00\n        /* \"minerpunk/ERC20/MinePower.sol\":9336:9348  _totalSupply */\n      sload(0x02)\n        /* \"minerpunk/ERC20/MinePower.sol\":9329:9348  return _totalSupply */\n      swap1\n      pop\n        /* \"minerpunk/ERC20/MinePower.sol\":9249:9355  function totalSupply() public view virtual override returns (uint256) {... */\n      swap1\n      jump\t// out\n        /* \"minerpunk/ERC20/MinePower.sol\":11197:11483  function transferFrom(... */\n    tag_37:\n        /* \"minerpunk/ERC20/MinePower.sol\":11324:11328  bool */\n      0x00\n        /* \"minerpunk/ERC20/MinePower.sol\":11340:11355  address spender */\n      dup1\n        /* \"minerpunk/ERC20/MinePower.sol\":11358:11370  _msgSender() */\n      tag_95\n        /* \"minerpunk/ERC20/MinePower.sol\":11358:11368  _msgSender */\n      tag_90\n        /* \"minerpunk/ERC20/MinePower.sol\":11358:11370  _msgSender() */\n      jump\t// in\n    tag_95:\n        /* \"minerpunk/ERC20/MinePower.sol\":11340:11370  address spender = _msgSender() */\n      swap1\n      pop\n        /* \"minerpunk/ERC20/MinePower.sol\":11380:11418  _spendAllowance(from, spender, amount) */\n      tag_96\n        /* \"minerpunk/ERC20/MinePower.sol\":11396:11400  from */\n      dup6\n        /* \"minerpunk/ERC20/MinePower.sol\":11402:11409  spender */\n      dup3\n        /* \"minerpunk/ERC20/MinePower.sol\":11411:11417  amount */\n      dup6\n        /* \"minerpunk/ERC20/MinePower.sol\":11380:11395  _spendAllowance */\n      tag_97\n        /* \"minerpunk/ERC20/MinePower.sol\":11380:11418  _spendAllowance(from, spender, amount) */\n      jump\t// in\n    tag_96:\n        /* \"minerpunk/ERC20/MinePower.sol\":11428:11455  _transfer(from, to, amount) */\n      tag_98\n        /* \"minerpunk/ERC20/MinePower.sol\":11438:11442  from */\n      dup6\n        /* \"minerpunk/ERC20/MinePower.sol\":11444:11446  to */\n      dup6\n        /* \"minerpunk/ERC20/MinePower.sol\":11448:11454  amount */\n      dup6\n        /* \"minerpunk/ERC20/MinePower.sol\":11428:11437  _transfer */\n      tag_99\n        /* \"minerpunk/ERC20/MinePower.sol\":11428:11455  _transfer(from, to, amount) */\n      jump\t// in\n    tag_98:\n        /* \"minerpunk/ERC20/MinePower.sol\":11472:11476  true */\n      0x01\n        /* \"minerpunk/ERC20/MinePower.sol\":11465:11476  return true */\n      swap2\n      pop\n      pop\n        /* \"minerpunk/ERC20/MinePower.sol\":11197:11483  function transferFrom(... */\n      swap4\n      swap3\n      pop\n      pop\n      pop\n      jump\t// out\n        /* \"minerpunk/ERC20/MinePower.sol\":9098:9189  function decimals() public view virtual override returns (uint8) {... */\n    tag_40:\n        /* \"minerpunk/ERC20/MinePower.sol\":9156:9161  uint8 */\n      0x00\n        /* \"minerpunk/ERC20/MinePower.sol\":9180:9182  18 */\n      0x12\n        /* \"minerpunk/ERC20/MinePower.sol\":9173:9182  return 18 */\n      swap1\n      pop\n        /* \"minerpunk/ERC20/MinePower.sol\":9098:9189  function decimals() public view virtual override returns (uint8) {... */\n      swap1\n      jump\t// out\n        /* \"minerpunk/ERC20/MinePower.sol\":11878:12112  function increaseAllowance(address spender, uint256 addedValue) public virtual returns (bool) {... */\n    tag_45:\n        /* \"minerpunk/ERC20/MinePower.sol\":11966:11970  bool */\n      0x00\n        /* \"minerpunk/ERC20/MinePower.sol\":11982:11995  address owner */\n      dup1\n        /* \"minerpunk/ERC20/MinePower.sol\":11998:12010  _msgSender() */\n      tag_102\n        /* \"minerpunk/ERC20/MinePower.sol\":11998:12008  _msgSender */\n      tag_90\n        /* \"minerpunk/ERC20/MinePower.sol\":11998:12010  _msgSender() */\n      jump\t// in\n    tag_102:\n        /* \"minerpunk/ERC20/MinePower.sol\":11982:12010  address owner = _msgSender() */\n      swap1\n      pop\n        /* \"minerpunk/ERC20/MinePower.sol\":12020:12084  _approve(owner, spender, allowance(owner, spender) + addedValue) */\n      tag_103\n        /* \"minerpunk/ERC20/MinePower.sol\":12029:12034  owner */\n      dup2\n        /* \"minerpunk/ERC20/MinePower.sol\":12036:12043  spender */\n      dup6\n        /* \"minerpunk/ERC20/MinePower.sol\":12073:12083  addedValue */\n      dup6\n        /* \"minerpunk/ERC20/MinePower.sol\":12045:12070  allowance(owner, spender) */\n      tag_104\n        /* \"minerpunk/ERC20/MinePower.sol\":12055:12060  owner */\n      dup6\n        /* \"minerpunk/ERC20/MinePower.sol\":12062:12069  spender */\n      dup10\n        /* \"minerpunk/ERC20/MinePower.sol\":12045:12054  allowance */\n      tag_79\n        /* \"minerpunk/ERC20/MinePower.sol\":12045:12070  allowance(owner, spender) */\n      jump\t// in\n    tag_104:\n        /* \"minerpunk/ERC20/MinePower.sol\":12045:12083  allowance(owner, spender) + addedValue */\n      tag_105\n      swap2\n      swap1\n      tag_106\n      jump\t// in\n    tag_105:\n        /* \"minerpunk/ERC20/MinePower.sol\":12020:12028  _approve */\n      tag_92\n        /* \"minerpunk/ERC20/MinePower.sol\":12020:12084  _approve(owner, spender, allowance(owner, spender) + addedValue) */\n      jump\t// in\n    tag_103:\n        /* \"minerpunk/ERC20/MinePower.sol\":12101:12105  true */\n      0x01\n        /* \"minerpunk/ERC20/MinePower.sol\":12094:12105  return true */\n      swap2\n      pop\n      pop\n        /* \"minerpunk/ERC20/MinePower.sol\":11878:12112  function increaseAllowance(address spender, uint256 addedValue) public virtual returns (bool) {... */\n      swap3\n      swap2\n      pop\n      pop\n      jump\t// out\n        /* \"minerpunk/ERC20/MinePower.sol\":7427:7822  function blockStatus (uint256 _BlockNumber)public view  returns (uint256){... */\n    tag_50:\n        /* \"minerpunk/ERC20/MinePower.sol\":7492:7499  uint256 */\n      0x00\n        /* \"minerpunk/ERC20/MinePower.sol\":7528:7545  _startBlockNumber */\n      sload(0x04)\n        /* \"minerpunk/ERC20/MinePower.sol\":7513:7525  _BlockNumber */\n      dup3\n        /* \"minerpunk/ERC20/MinePower.sol\":7513:7545  _BlockNumber < _startBlockNumber */\n      lt\n        /* \"minerpunk/ERC20/MinePower.sol\":7510:7603  if(_BlockNumber < _startBlockNumber){... */\n      iszero\n      tag_108\n      jumpi\n        /* \"minerpunk/ERC20/MinePower.sol\":7575:7592  _startBlockNumber */\n      sload(0x04)\n        /* \"minerpunk/ERC20/MinePower.sol\":7560:7592  _BlockNumber = _startBlockNumber */\n      swap2\n      pop\n        /* \"minerpunk/ERC20/MinePower.sol\":7510:7603  if(_BlockNumber < _startBlockNumber){... */\n    tag_108:\n        /* \"minerpunk/ERC20/MinePower.sol\":7612:7631  uint256 DCFperBlock */\n      0x00\n        /* \"minerpunk/ERC20/MinePower.sol\":7634:7658  _TokenperBlock.mul(1e54) */\n      tag_109\n        /* \"minerpunk/ERC20/MinePower.sol\":7653:7657  1e54 */\n      0x0a70c3c40a64e6c51999090b65f67d9240000000000000\n        /* \"minerpunk/ERC20/MinePower.sol\":7634:7648  _TokenperBlock */\n      sload(0x03)\n        /* \"minerpunk/ERC20/MinePower.sol\":7634:7652  _TokenperBlock.mul */\n      tag_110\n      swap1\n        /* \"minerpunk/ERC20/MinePower.sol\":7634:7658  _TokenperBlock.mul(1e54) */\n      swap2\n      swap1\n      0xffffffff\n      and\n      jump\t// in\n    tag_109:\n        /* \"minerpunk/ERC20/MinePower.sol\":7612:7658  uint256 DCFperBlock = _TokenperBlock.mul(1e54) */\n      swap1\n      pop\n        /* \"minerpunk/ERC20/MinePower.sol\":7679:7701  uint256 BlockDifficult */\n      0x00\n        /* \"minerpunk/ERC20/MinePower.sol\":7704:7727  difficult(_BlockNumber) */\n      tag_111\n        /* \"minerpunk/ERC20/MinePower.sol\":7714:7726  _BlockNumber */\n      dup5\n        /* \"minerpunk/ERC20/MinePower.sol\":7704:7713  difficult */\n      tag_74\n        /* \"minerpunk/ERC20/MinePower.sol\":7704:7727  difficult(_BlockNumber) */\n      jump\t// in\n    tag_111:\n        /* \"minerpunk/ERC20/MinePower.sol\":7679:7727  uint256 BlockDifficult = difficult(_BlockNumber) */\n      swap1\n      pop\n        /* \"minerpunk/ERC20/MinePower.sol\":7742:7755  uint256 DugUP */\n      0x00\n        /* \"minerpunk/ERC20/MinePower.sol\":7758:7789  DCFperBlock.div(BlockDifficult) */\n      tag_112\n        /* \"minerpunk/ERC20/MinePower.sol\":7774:7788  BlockDifficult */\n      dup3\n        /* \"minerpunk/ERC20/MinePower.sol\":7758:7769  DCFperBlock */\n      dup5\n        /* \"minerpunk/ERC20/MinePower.sol\":7758:7773  DCFperBlock.div */\n      tag_113\n      swap1\n        /* \"minerpunk/ERC20/MinePower.sol\":7758:7789  DCFperBlock.div(BlockDifficult) */\n      swap2\n      swap1\n      0xffffffff\n      and\n      jump\t// in\n    tag_112:\n        /* \"minerpunk/ERC20/MinePower.sol\":7742:7789  uint256 DugUP = DCFperBlock.div(BlockDifficult) */\n      swap1\n      pop\n        /* \"minerpunk/ERC20/MinePower.sol\":7806:7811  DugUP */\n      dup1\n        /* \"minerpunk/ERC20/MinePower.sol\":7799:7811  return DugUP */\n      swap4\n      pop\n      pop\n      pop\n      pop\n        /* \"minerpunk/ERC20/MinePower.sol\":7427:7822  function blockStatus (uint256 _BlockNumber)public view  returns (uint256){... */\n      swap2\n      swap1\n      pop\n      jump\t// out\n        /* \"minerpunk/ERC20/MinePower.sol\":9413:9538  function balanceOf(address account) public view virtual override returns (uint256) {... */\n    tag_55:\n        /* \"minerpunk/ERC20/MinePower.sol\":9487:9494  uint256 */\n      0x00\n        /* \"minerpunk/ERC20/MinePower.sol\":9513:9522  _balances */\n      dup1\n        /* \"minerpunk/ERC20/MinePower.sol\":9513:9531  _balances[account] */\n      0x00\n        /* \"minerpunk/ERC20/MinePower.sol\":9523:9530  account */\n      dup4\n        /* \"minerpunk/ERC20/MinePower.sol\":9513:9531  _balances[account] */\n      0xffffffffffffffffffffffffffffffffffffffff\n      and\n      0xffffffffffffffffffffffffffffffffffffffff\n      and\n      dup2\n      mstore\n      0x20\n      add\n      swap1\n      dup2\n      mstore\n      0x20\n      add\n      0x00\n      keccak256\n      sload\n        /* \"minerpunk/ERC20/MinePower.sol\":9506:9531  return _balances[account] */\n      swap1\n      pop\n        /* \"minerpunk/ERC20/MinePower.sol\":9413:9538  function balanceOf(address account) public view virtual override returns (uint256) {... */\n      swap2\n      swap1\n      pop\n      jump\t// out\n        /* \"minerpunk/ERC20/MinePower.sol\":8372:8474  function symbol() public view virtual override returns (string memory) {... */\n    tag_58:\n        /* \"minerpunk/ERC20/MinePower.sol\":8428:8441  string memory */\n      0x60\n        /* \"minerpunk/ERC20/MinePower.sol\":8460:8467  _symbol */\n      0x06\n        /* \"minerpunk/ERC20/MinePower.sol\":8453:8467  return _symbol */\n      dup1\n      sload\n      tag_116\n      swap1\n      tag_83\n      jump\t// in\n    tag_116:\n      dup1\n      0x1f\n      add\n      0x20\n      dup1\n      swap2\n      div\n      mul\n      0x20\n      add\n      mload(0x40)\n      swap1\n      dup2\n      add\n      0x40\n      mstore\n      dup1\n      swap3\n      swap2\n      swap1\n      dup2\n      dup2\n      mstore\n      0x20\n      add\n      dup3\n      dup1\n      sload\n      tag_117\n      swap1\n      tag_83\n      jump\t// in\n    tag_117:\n      dup1\n      iszero\n      tag_118\n      jumpi\n      dup1\n      0x1f\n      lt\n      tag_119\n      jumpi\n      0x0100\n      dup1\n      dup4\n      sload\n      div\n      mul\n      dup4\n      mstore\n      swap2\n      0x20\n      add\n      swap2\n      jump(tag_118)\n    tag_119:\n      dup3\n      add\n      swap2\n      swap1\n      0x00\n      mstore\n      keccak256(0x00, 0x20)\n      swap1\n    tag_120:\n      dup2\n      sload\n      dup2\n      mstore\n      swap1\n      0x01\n      add\n      swap1\n      0x20\n      add\n      dup1\n      dup4\n      gt\n      tag_120\n      jumpi\n      dup3\n      swap1\n      sub\n      0x1f\n      and\n      dup3\n      add\n      swap2\n    tag_118:\n      pop\n      pop\n      pop\n      pop\n      pop\n      swap1\n      pop\n        /* \"minerpunk/ERC20/MinePower.sol\":8372:8474  function symbol() public view virtual override returns (string memory) {... */\n      swap1\n      jump\t// out\n        /* \"minerpunk/ERC20/MinePower.sol\":12599:13026  function decreaseAllowance(address spender, uint256 subtractedValue) public virtual returns (bool) {... */\n    tag_62:\n        /* \"minerpunk/ERC20/MinePower.sol\":12692:12696  bool */\n      0x00\n        /* \"minerpunk/ERC20/MinePower.sol\":12708:12721  address owner */\n      dup1\n        /* \"minerpunk/ERC20/MinePower.sol\":12724:12736  _msgSender() */\n      tag_122\n        /* \"minerpunk/ERC20/MinePower.sol\":12724:12734  _msgSender */\n      tag_90\n        /* \"minerpunk/ERC20/MinePower.sol\":12724:12736  _msgSender() */\n      jump\t// in\n    tag_122:\n        /* \"minerpunk/ERC20/MinePower.sol\":12708:12736  address owner = _msgSender() */\n      swap1\n      pop\n        /* \"minerpunk/ERC20/MinePower.sol\":12746:12770  uint256 currentAllowance */\n      0x00\n        /* \"minerpunk/ERC20/MinePower.sol\":12773:12798  allowance(owner, spender) */\n      tag_123\n        /* \"minerpunk/ERC20/MinePower.sol\":12783:12788  owner */\n      dup3\n        /* \"minerpunk/ERC20/MinePower.sol\":12790:12797  spender */\n      dup7\n        /* \"minerpunk/ERC20/MinePower.sol\":12773:12782  allowance */\n      tag_79\n        /* \"minerpunk/ERC20/MinePower.sol\":12773:12798  allowance(owner, spender) */\n      jump\t// in\n    tag_123:\n        /* \"minerpunk/ERC20/MinePower.sol\":12746:12798  uint256 currentAllowance = allowance(owner, spender) */\n      swap1\n      pop\n        /* \"minerpunk/ERC20/MinePower.sol\":12836:12851  subtractedValue */\n      dup4\n        /* \"minerpunk/ERC20/MinePower.sol\":12816:12832  currentAllowance */\n      dup2\n        /* \"minerpunk/ERC20/MinePower.sol\":12816:12851  currentAllowance >= subtractedValue */\n      lt\n      iszero\n        /* \"minerpunk/ERC20/MinePower.sol\":12808:12893  require(currentAllowance >= subtractedValue, \"ERC20: decreased allowance below zero\") */\n      tag_124\n      jumpi\n      mload(0x40)\n      0x08c379a000000000000000000000000000000000000000000000000000000000\n      dup2\n      mstore\n      0x04\n      add\n      tag_125\n      swap1\n      tag_126\n      jump\t// in\n    tag_125:\n      mload(0x40)\n      dup1\n      swap2\n      sub\n      swap1\n      revert\n    tag_124:\n        /* \"minerpunk/ERC20/MinePower.sol\":12927:12987  _approve(owner, spender, currentAllowance - subtractedValue) */\n      tag_127\n        /* \"minerpunk/ERC20/MinePower.sol\":12936:12941  owner */\n      dup3\n        /* \"minerpunk/ERC20/MinePower.sol\":12943:12950  spender */\n      dup7\n        /* \"minerpunk/ERC20/MinePower.sol\":12971:12986  subtractedValue */\n      dup7\n        /* \"minerpunk/ERC20/MinePower.sol\":12952:12968  currentAllowance */\n      dup5\n        /* \"minerpunk/ERC20/MinePower.sol\":12952:12986  currentAllowance - subtractedValue */\n      sub\n        /* \"minerpunk/ERC20/MinePower.sol\":12927:12935  _approve */\n      tag_92\n        /* \"minerpunk/ERC20/MinePower.sol\":12927:12987  _approve(owner, spender, currentAllowance - subtractedValue) */\n      jump\t// in\n    tag_127:\n        /* \"minerpunk/ERC20/MinePower.sol\":13015:13019  true */\n      0x01\n        /* \"minerpunk/ERC20/MinePower.sol\":13008:13019  return true */\n      swap3\n      pop\n      pop\n      pop\n        /* \"minerpunk/ERC20/MinePower.sol\":12599:13026  function decreaseAllowance(address spender, uint256 subtractedValue) public virtual returns (bool) {... */\n      swap3\n      swap2\n      pop\n      pop\n      jump\t// out\n        /* \"minerpunk/ERC20/MinePower.sol\":9734:9923  function transfer(address to, uint256 amount) public virtual override returns (bool) {... */\n    tag_66:\n        /* \"minerpunk/ERC20/MinePower.sol\":9813:9817  bool */\n      0x00\n        /* \"minerpunk/ERC20/MinePower.sol\":9829:9842  address owner */\n      dup1\n        /* \"minerpunk/ERC20/MinePower.sol\":9845:9857  _msgSender() */\n      tag_129\n        /* \"minerpunk/ERC20/MinePower.sol\":9845:9855  _msgSender */\n      tag_90\n        /* \"minerpunk/ERC20/MinePower.sol\":9845:9857  _msgSender() */\n      jump\t// in\n    tag_129:\n        /* \"minerpunk/ERC20/MinePower.sol\":9829:9857  address owner = _msgSender() */\n      swap1\n      pop\n        /* \"minerpunk/ERC20/MinePower.sol\":9867:9895  _transfer(owner, to, amount) */\n      tag_130\n        /* \"minerpunk/ERC20/MinePower.sol\":9877:9882  owner */\n      dup2\n        /* \"minerpunk/ERC20/MinePower.sol\":9884:9886  to */\n      dup6\n        /* \"minerpunk/ERC20/MinePower.sol\":9888:9894  amount */\n      dup6\n        /* \"minerpunk/ERC20/MinePower.sol\":9867:9876  _transfer */\n      tag_99\n        /* \"minerpunk/ERC20/MinePower.sol\":9867:9895  _transfer(owner, to, amount) */\n      jump\t// in\n    tag_130:\n        /* \"minerpunk/ERC20/MinePower.sol\":9912:9916  true */\n      0x01\n        /* \"minerpunk/ERC20/MinePower.sol\":9905:9916  return true */\n      swap2\n      pop\n      pop\n        /* \"minerpunk/ERC20/MinePower.sol\":9734:9923  function transfer(address to, uint256 amount) public virtual override returns (bool) {... */\n      swap3\n      swap2\n      pop\n      pop\n      jump\t// out\n        /* \"minerpunk/ERC20/MinePower.sol\":6835:7360  function MineStatus(address user)public view  returns(uint256){... */\n    tag_70:\n        /* \"minerpunk/ERC20/MinePower.sol\":6889:6896  uint256 */\n      0x00\n        /* \"minerpunk/ERC20/MinePower.sol\":6907:6925  uint256 difference */\n      dup1\n        /* \"minerpunk/ERC20/MinePower.sol\":6928:6964  block.number.sub(_mineInfo[user][1]) */\n      tag_132\n        /* \"minerpunk/ERC20/MinePower.sol\":6945:6954  _mineInfo */\n      0x07\n        /* \"minerpunk/ERC20/MinePower.sol\":6945:6960  _mineInfo[user] */\n      0x00\n        /* \"minerpunk/ERC20/MinePower.sol\":6955:6959  user */\n      dup6\n        /* \"minerpunk/ERC20/MinePower.sol\":6945:6960  _mineInfo[user] */\n      0xffffffffffffffffffffffffffffffffffffffff\n      and\n      0xffffffffffffffffffffffffffffffffffffffff\n      and\n      dup2\n      mstore\n      0x20\n      add\n      swap1\n      dup2\n      mstore\n      0x20\n      add\n      0x00\n      keccak256\n        /* \"minerpunk/ERC20/MinePower.sol\":6945:6963  _mineInfo[user][1] */\n      0x00\n        /* \"minerpunk/ERC20/MinePower.sol\":6961:6962  1 */\n      0x01\n        /* \"minerpunk/ERC20/MinePower.sol\":6945:6963  _mineInfo[user][1] */\n      dup2\n      mstore\n      0x20\n      add\n      swap1\n      dup2\n      mstore\n      0x20\n      add\n      0x00\n      keccak256\n      sload\n        /* \"minerpunk/ERC20/MinePower.sol\":6928:6940  block.number */\n      number\n        /* \"minerpunk/ERC20/MinePower.sol\":6928:6944  block.number.sub */\n      tag_133\n      swap1\n        /* \"minerpunk/ERC20/MinePower.sol\":6928:6964  block.number.sub(_mineInfo[user][1]) */\n      swap2\n      swap1\n      0xffffffff\n      and\n      jump\t// in\n    tag_132:\n        /* \"minerpunk/ERC20/MinePower.sol\":6907:6964  uint256 difference = block.number.sub(_mineInfo[user][1]) */\n      swap1\n      pop\n        /* \"minerpunk/ERC20/MinePower.sol\":6974:6987  uint256 start */\n      0x00\n        /* \"minerpunk/ERC20/MinePower.sol\":6990:7021  blockStatus(_mineInfo[user][1]) */\n      tag_134\n        /* \"minerpunk/ERC20/MinePower.sol\":7002:7011  _mineInfo */\n      0x07\n        /* \"minerpunk/ERC20/MinePower.sol\":7002:7017  _mineInfo[user] */\n      0x00\n        /* \"minerpunk/ERC20/MinePower.sol\":7012:7016  user */\n      dup7\n        /* \"minerpunk/ERC20/MinePower.sol\":7002:7017  _mineInfo[user] */\n      0xffffffffffffffffffffffffffffffffffffffff\n      and\n      0xffffffffffffffffffffffffffffffffffffffff\n      and\n      dup2\n      mstore\n      0x20\n      add\n      swap1\n      dup2\n      mstore\n      0x20\n      add\n      0x00\n      keccak256\n        /* \"minerpunk/ERC20/MinePower.sol\":7002:7020  _mineInfo[user][1] */\n      0x00\n        /* \"minerpunk/ERC20/MinePower.sol\":7018:7019  1 */\n      0x01\n        /* \"minerpunk/ERC20/MinePower.sol\":7002:7020  _mineInfo[user][1] */\n      dup2\n      mstore\n      0x20\n      add\n      swap1\n      dup2\n      mstore\n      0x20\n      add\n      0x00\n      keccak256\n      sload\n        /* \"minerpunk/ERC20/MinePower.sol\":6990:7001  blockStatus */\n      tag_50\n        /* \"minerpunk/ERC20/MinePower.sol\":6990:7021  blockStatus(_mineInfo[user][1]) */\n      jump\t// in\n    tag_134:\n        /* \"minerpunk/ERC20/MinePower.sol\":6974:7021  uint256 start = blockStatus(_mineInfo[user][1]) */\n      swap1\n      pop\n        /* \"minerpunk/ERC20/MinePower.sol\":7031:7042  uint256 end */\n      0x00\n        /* \"minerpunk/ERC20/MinePower.sol\":7045:7070  blockStatus(block.number) */\n      tag_135\n        /* \"minerpunk/ERC20/MinePower.sol\":7057:7069  block.number */\n      number\n        /* \"minerpunk/ERC20/MinePower.sol\":7045:7056  blockStatus */\n      tag_50\n        /* \"minerpunk/ERC20/MinePower.sol\":7045:7070  blockStatus(block.number) */\n      jump\t// in\n    tag_135:\n        /* \"minerpunk/ERC20/MinePower.sol\":7031:7070  uint256 end = blockStatus(block.number) */\n      swap1\n      pop\n        /* \"minerpunk/ERC20/MinePower.sol\":7080:7098  uint256 mined_area */\n      0x00\n        /* \"minerpunk/ERC20/MinePower.sol\":7101:7138  start.add(end).mul(difference).div(2) */\n      tag_136\n        /* \"minerpunk/ERC20/MinePower.sol\":7136:7137  2 */\n      0x02\n        /* \"minerpunk/ERC20/MinePower.sol\":7101:7131  start.add(end).mul(difference) */\n      tag_137\n        /* \"minerpunk/ERC20/MinePower.sol\":7120:7130  difference */\n      dup7\n        /* \"minerpunk/ERC20/MinePower.sol\":7101:7115  start.add(end) */\n      tag_138\n        /* \"minerpunk/ERC20/MinePower.sol\":7111:7114  end */\n      dup7\n        /* \"minerpunk/ERC20/MinePower.sol\":7101:7106  start */\n      dup9\n        /* \"minerpunk/ERC20/MinePower.sol\":7101:7110  start.add */\n      tag_139\n      swap1\n        /* \"minerpunk/ERC20/MinePower.sol\":7101:7115  start.add(end) */\n      swap2\n      swap1\n      0xffffffff\n      and\n      jump\t// in\n    tag_138:\n        /* \"minerpunk/ERC20/MinePower.sol\":7101:7119  start.add(end).mul */\n      tag_110\n      swap1\n        /* \"minerpunk/ERC20/MinePower.sol\":7101:7131  start.add(end).mul(difference) */\n      swap2\n      swap1\n      0xffffffff\n      and\n      jump\t// in\n    tag_137:\n        /* \"minerpunk/ERC20/MinePower.sol\":7101:7135  start.add(end).mul(difference).div */\n      tag_113\n      swap1\n        /* \"minerpunk/ERC20/MinePower.sol\":7101:7138  start.add(end).mul(difference).div(2) */\n      swap2\n      swap1\n      0xffffffff\n      and\n      jump\t// in\n    tag_136:\n        /* \"minerpunk/ERC20/MinePower.sol\":7080:7138  uint256 mined_area = start.add(end).mul(difference).div(2) */\n      swap1\n      pop\n        /* \"minerpunk/ERC20/MinePower.sol\":7228:7243  uint dcf_amount */\n      0x00\n        /* \"minerpunk/ERC20/MinePower.sol\":7246:7295  mined_area.mul(balanceOf(user)).div(_totalSupply) */\n      tag_140\n        /* \"minerpunk/ERC20/MinePower.sol\":7282:7294  _totalSupply */\n      sload(0x02)\n        /* \"minerpunk/ERC20/MinePower.sol\":7246:7277  mined_area.mul(balanceOf(user)) */\n      tag_141\n        /* \"minerpunk/ERC20/MinePower.sol\":7261:7276  balanceOf(user) */\n      tag_142\n        /* \"minerpunk/ERC20/MinePower.sol\":7271:7275  user */\n      dup11\n        /* \"minerpunk/ERC20/MinePower.sol\":7261:7270  balanceOf */\n      tag_55\n        /* \"minerpunk/ERC20/MinePower.sol\":7261:7276  balanceOf(user) */\n      jump\t// in\n    tag_142:\n        /* \"minerpunk/ERC20/MinePower.sol\":7246:7256  mined_area */\n      dup6\n        /* \"minerpunk/ERC20/MinePower.sol\":7246:7260  mined_area.mul */\n      tag_110\n      swap1\n        /* \"minerpunk/ERC20/MinePower.sol\":7246:7277  mined_area.mul(balanceOf(user)) */\n      swap2\n      swap1\n      0xffffffff\n      and\n      jump\t// in\n    tag_141:\n        /* \"minerpunk/ERC20/MinePower.sol\":7246:7281  mined_area.mul(balanceOf(user)).div */\n      tag_113\n      swap1\n        /* \"minerpunk/ERC20/MinePower.sol\":7246:7295  mined_area.mul(balanceOf(user)).div(_totalSupply) */\n      swap2\n      swap1\n      0xffffffff\n      and\n      jump\t// in\n    tag_140:\n        /* \"minerpunk/ERC20/MinePower.sol\":7228:7295  uint dcf_amount = mined_area.mul(balanceOf(user)).div(_totalSupply) */\n      swap1\n      pop\n        /* \"minerpunk/ERC20/MinePower.sol\":7312:7346  _mineInfo[user][3].add(dcf_amount) */\n      tag_143\n        /* \"minerpunk/ERC20/MinePower.sol\":7335:7345  dcf_amount */\n      dup2\n        /* \"minerpunk/ERC20/MinePower.sol\":7312:7321  _mineInfo */\n      0x07\n        /* \"minerpunk/ERC20/MinePower.sol\":7312:7327  _mineInfo[user] */\n      0x00\n        /* \"minerpunk/ERC20/MinePower.sol\":7322:7326  user */\n      dup11\n        /* \"minerpunk/ERC20/MinePower.sol\":7312:7327  _mineInfo[user] */\n      0xffffffffffffffffffffffffffffffffffffffff\n      and\n      0xffffffffffffffffffffffffffffffffffffffff\n      and\n      dup2\n      mstore\n      0x20\n      add\n      swap1\n      dup2\n      mstore\n      0x20\n      add\n      0x00\n      keccak256\n        /* \"minerpunk/ERC20/MinePower.sol\":7312:7330  _mineInfo[user][3] */\n      0x00\n        /* \"minerpunk/ERC20/MinePower.sol\":7328:7329  3 */\n      0x03\n        /* \"minerpunk/ERC20/MinePower.sol\":7312:7330  _mineInfo[user][3] */\n      dup2\n      mstore\n      0x20\n      add\n      swap1\n      dup2\n      mstore\n      0x20\n      add\n      0x00\n      keccak256\n      sload\n        /* \"minerpunk/ERC20/MinePower.sol\":7312:7334  _mineInfo[user][3].add */\n      tag_139\n      swap1\n        /* \"minerpunk/ERC20/MinePower.sol\":7312:7346  _mineInfo[user][3].add(dcf_amount) */\n      swap2\n      swap1\n      0xffffffff\n      and\n      jump\t// in\n    tag_143:\n        /* \"minerpunk/ERC20/MinePower.sol\":7305:7346  return _mineInfo[user][3].add(dcf_amount) */\n      swap6\n      pop\n      pop\n      pop\n      pop\n      pop\n      pop\n        /* \"minerpunk/ERC20/MinePower.sol\":6835:7360  function MineStatus(address user)public view  returns(uint256){... */\n      swap2\n      swap1\n      pop\n      jump\t// out\n        /* \"minerpunk/ERC20/MinePower.sol\":7829:8088  function difficult(uint _BlockNumber)public view  returns (uint256){... */\n    tag_74:\n        /* \"minerpunk/ERC20/MinePower.sol\":7888:7895  uint256 */\n      0x00\n        /* \"minerpunk/ERC20/MinePower.sol\":7906:7925  uint BlockDifficult */\n      dup1\n        /* \"minerpunk/ERC20/MinePower.sol\":7926:7971  _BlockNumber.mul(1e18).div(_startBlockNumber) */\n      tag_145\n        /* \"minerpunk/ERC20/MinePower.sol\":7953:7970  _startBlockNumber */\n      sload(0x04)\n        /* \"minerpunk/ERC20/MinePower.sol\":7926:7948  _BlockNumber.mul(1e18) */\n      tag_146\n        /* \"minerpunk/ERC20/MinePower.sol\":7943:7947  1e18 */\n      0x0de0b6b3a7640000\n        /* \"minerpunk/ERC20/MinePower.sol\":7926:7938  _BlockNumber */\n      dup7\n        /* \"minerpunk/ERC20/MinePower.sol\":7926:7942  _BlockNumber.mul */\n      tag_110\n      swap1\n        /* \"minerpunk/ERC20/MinePower.sol\":7926:7948  _BlockNumber.mul(1e18) */\n      swap2\n      swap1\n      0xffffffff\n      and\n      jump\t// in\n    tag_146:\n        /* \"minerpunk/ERC20/MinePower.sol\":7926:7952  _BlockNumber.mul(1e18).div */\n      tag_113\n      swap1\n        /* \"minerpunk/ERC20/MinePower.sol\":7926:7971  _BlockNumber.mul(1e18).div(_startBlockNumber) */\n      swap2\n      swap1\n      0xffffffff\n      and\n      jump\t// in\n    tag_145:\n        /* \"minerpunk/ERC20/MinePower.sol\":7906:7971  uint BlockDifficult=_BlockNumber.mul(1e18).div(_startBlockNumber) */\n      swap1\n      pop\n        /* \"minerpunk/ERC20/MinePower.sol\":7996:8050  BlockDifficult.mul(BlockDifficult).mul(BlockDifficult) */\n      tag_147\n        /* \"minerpunk/ERC20/MinePower.sol\":8035:8049  BlockDifficult */\n      dup2\n        /* \"minerpunk/ERC20/MinePower.sol\":7996:8030  BlockDifficult.mul(BlockDifficult) */\n      tag_148\n        /* \"minerpunk/ERC20/MinePower.sol\":8015:8029  BlockDifficult */\n      dup4\n        /* \"minerpunk/ERC20/MinePower.sol\":7996:8010  BlockDifficult */\n      dup5\n        /* \"minerpunk/ERC20/MinePower.sol\":7996:8014  BlockDifficult.mul */\n      tag_110\n      swap1\n        /* \"minerpunk/ERC20/MinePower.sol\":7996:8030  BlockDifficult.mul(BlockDifficult) */\n      swap2\n      swap1\n      0xffffffff\n      and\n      jump\t// in\n    tag_148:\n        /* \"minerpunk/ERC20/MinePower.sol\":7996:8034  BlockDifficult.mul(BlockDifficult).mul */\n      tag_110\n      swap1\n        /* \"minerpunk/ERC20/MinePower.sol\":7996:8050  BlockDifficult.mul(BlockDifficult).mul(BlockDifficult) */\n      swap2\n      swap1\n      0xffffffff\n      and\n      jump\t// in\n    tag_147:\n        /* \"minerpunk/ERC20/MinePower.sol\":7981:8050  BlockDifficult=BlockDifficult.mul(BlockDifficult).mul(BlockDifficult) */\n      swap1\n      pop\n        /* \"minerpunk/ERC20/MinePower.sol\":8067:8081  BlockDifficult */\n      dup1\n        /* \"minerpunk/ERC20/MinePower.sol\":8060:8081  return BlockDifficult */\n      swap2\n      pop\n      pop\n        /* \"minerpunk/ERC20/MinePower.sol\":7829:8088  function difficult(uint _BlockNumber)public view  returns (uint256){... */\n      swap2\n      swap1\n      pop\n      jump\t// out\n        /* \"minerpunk/ERC20/MinePower.sol\":9981:10130  function allowance(address owner, address spender) public view virtual override returns (uint256) {... */\n    tag_79:\n        /* \"minerpunk/ERC20/MinePower.sol\":10070:10077  uint256 */\n      0x00\n        /* \"minerpunk/ERC20/MinePower.sol\":10096:10107  _allowances */\n      0x01\n        /* \"minerpunk/ERC20/MinePower.sol\":10096:10114  _allowances[owner] */\n      0x00\n        /* \"minerpunk/ERC20/MinePower.sol\":10108:10113  owner */\n      dup5\n        /* \"minerpunk/ERC20/MinePower.sol\":10096:10114  _allowances[owner] */\n      0xffffffffffffffffffffffffffffffffffffffff\n      and\n      0xffffffffffffffffffffffffffffffffffffffff\n      and\n      dup2\n      mstore\n      0x20\n      add\n      swap1\n      dup2\n      mstore\n      0x20\n      add\n      0x00\n      keccak256\n        /* \"minerpunk/ERC20/MinePower.sol\":10096:10123  _allowances[owner][spender] */\n      0x00\n        /* \"minerpunk/ERC20/MinePower.sol\":10115:10122  spender */\n      dup4\n        /* \"minerpunk/ERC20/MinePower.sol\":10096:10123  _allowances[owner][spender] */\n      0xffffffffffffffffffffffffffffffffffffffff\n      and\n      0xffffffffffffffffffffffffffffffffffffffff\n      and\n      dup2\n      mstore\n      0x20\n      add\n      swap1\n      dup2\n      mstore\n      0x20\n      add\n      0x00\n      keccak256\n      sload\n        /* \"minerpunk/ERC20/MinePower.sol\":10089:10123  return _allowances[owner][spender] */\n      swap1\n      pop\n        /* \"minerpunk/ERC20/MinePower.sol\":9981:10130  function allowance(address owner, address spender) public view virtual override returns (uint256) {... */\n      swap3\n      swap2\n      pop\n      pop\n      jump\t// out\n        /* \"minerpunk/ERC20/MinePower.sol\":693:789  function _msgSender() internal view virtual returns (address) {... */\n    tag_90:\n        /* \"minerpunk/ERC20/MinePower.sol\":746:753  address */\n      0x00\n        /* \"minerpunk/ERC20/MinePower.sol\":772:782  msg.sender */\n      caller\n        /* \"minerpunk/ERC20/MinePower.sol\":765:782  return msg.sender */\n      swap1\n      pop\n        /* \"minerpunk/ERC20/MinePower.sol\":693:789  function _msgSender() internal view virtual returns (address) {... */\n      swap1\n      jump\t// out\n        /* \"minerpunk/ERC20/MinePower.sol\":16115:16485  function _approve(... */\n    tag_92:\n        /* \"minerpunk/ERC20/MinePower.sol\":16263:16264  0 */\n      0x00\n        /* \"minerpunk/ERC20/MinePower.sol\":16246:16265  owner != address(0) */\n      0xffffffffffffffffffffffffffffffffffffffff\n      and\n        /* \"minerpunk/ERC20/MinePower.sol\":16246:16251  owner */\n      dup4\n        /* \"minerpunk/ERC20/MinePower.sol\":16246:16265  owner != address(0) */\n      0xffffffffffffffffffffffffffffffffffffffff\n      and\n      sub\n        /* \"minerpunk/ERC20/MinePower.sol\":16238:16306  require(owner != address(0), \"ERC20: approve from the zero address\") */\n      tag_152\n      jumpi\n      mload(0x40)\n      0x08c379a000000000000000000000000000000000000000000000000000000000\n      dup2\n      mstore\n      0x04\n      add\n      tag_153\n      swap1\n      tag_154\n      jump\t// in\n    tag_153:\n      mload(0x40)\n      dup1\n      swap2\n      sub\n      swap1\n      revert\n    tag_152:\n        /* \"minerpunk/ERC20/MinePower.sol\":16343:16344  0 */\n      0x00\n        /* \"minerpunk/ERC20/MinePower.sol\":16324:16345  spender != address(0) */\n      0xffffffffffffffffffffffffffffffffffffffff\n      and\n        /* \"minerpunk/ERC20/MinePower.sol\":16324:16331  spender */\n      dup3\n        /* \"minerpunk/ERC20/MinePower.sol\":16324:16345  spender != address(0) */\n      0xffffffffffffffffffffffffffffffffffffffff\n      and\n      sub\n        /* \"minerpunk/ERC20/MinePower.sol\":16316:16384  require(spender != address(0), \"ERC20: approve to the zero address\") */\n      tag_155\n      jumpi\n      mload(0x40)\n      0x08c379a000000000000000000000000000000000000000000000000000000000\n      dup2\n      mstore\n      0x04\n      add\n      tag_156\n      swap1\n      tag_157\n      jump\t// in\n    tag_156:\n      mload(0x40)\n      dup1\n      swap2\n      sub\n      swap1\n      revert\n    tag_155:\n        /* \"minerpunk/ERC20/MinePower.sol\":16425:16431  amount */\n      dup1\n        /* \"minerpunk/ERC20/MinePower.sol\":16395:16406  _allowances */\n      0x01\n        /* \"minerpunk/ERC20/MinePower.sol\":16395:16413  _allowances[owner] */\n      0x00\n        /* \"minerpunk/ERC20/MinePower.sol\":16407:16412  owner */\n      dup6\n        /* \"minerpunk/ERC20/MinePower.sol\":16395:16413  _allowances[owner] */\n      0xffffffffffffffffffffffffffffffffffffffff\n      and\n      0xffffffffffffffffffffffffffffffffffffffff\n      and\n      dup2\n      mstore\n      0x20\n      add\n      swap1\n      dup2\n      mstore\n      0x20\n      add\n      0x00\n      keccak256\n        /* \"minerpunk/ERC20/MinePower.sol\":16395:16422  _allowances[owner][spender] */\n      0x00\n        /* \"minerpunk/ERC20/MinePower.sol\":16414:16421  spender */\n      dup5\n        /* \"minerpunk/ERC20/MinePower.sol\":16395:16422  _allowances[owner][spender] */\n      0xffffffffffffffffffffffffffffffffffffffff\n      and\n      0xffffffffffffffffffffffffffffffffffffffff\n      and\n      dup2\n      mstore\n      0x20\n      add\n      swap1\n      dup2\n      mstore\n      0x20\n      add\n      0x00\n      keccak256\n        /* \"minerpunk/ERC20/MinePower.sol\":16395:16431  _allowances[owner][spender] = amount */\n      dup2\n      swap1\n      sstore\n      pop\n        /* \"minerpunk/ERC20/MinePower.sol\":16462:16469  spender */\n      dup2\n        /* \"minerpunk/ERC20/MinePower.sol\":16446:16478  Approval(owner, spender, amount) */\n      0xffffffffffffffffffffffffffffffffffffffff\n      and\n        /* \"minerpunk/ERC20/MinePower.sol\":16455:16460  owner */\n      dup4\n        /* \"minerpunk/ERC20/MinePower.sol\":16446:16478  Approval(owner, spender, amount) */\n      0xffffffffffffffffffffffffffffffffffffffff\n      and\n      0x8c5be1e5ebec7d5bd14f71427d1e84f3dd0314c0f7b2291e5b200ac8c7c3b925\n        /* \"minerpunk/ERC20/MinePower.sol\":16471:16477  amount */\n      dup4\n        /* \"minerpunk/ERC20/MinePower.sol\":16446:16478  Approval(owner, spender, amount) */\n      mload(0x40)\n      tag_158\n      swap2\n      swap1\n      tag_33\n      jump\t// in\n    tag_158:\n      mload(0x40)\n      dup1\n      swap2\n      sub\n      swap1\n      log3\n        /* \"minerpunk/ERC20/MinePower.sol\":16115:16485  function _approve(... */\n      pop\n      pop\n      pop\n      jump\t// out\n        /* \"minerpunk/ERC20/MinePower.sol\":16766:17207  function _spendAllowance(... */\n    tag_97:\n        /* \"minerpunk/ERC20/MinePower.sol\":16896:16920  uint256 currentAllowance */\n      0x00\n        /* \"minerpunk/ERC20/MinePower.sol\":16923:16948  allowance(owner, spender) */\n      tag_160\n        /* \"minerpunk/ERC20/MinePower.sol\":16933:16938  owner */\n      dup5\n        /* \"minerpunk/ERC20/MinePower.sol\":16940:16947  spender */\n      dup5\n        /* \"minerpunk/ERC20/MinePower.sol\":16923:16932  allowance */\n      tag_79\n        /* \"minerpunk/ERC20/MinePower.sol\":16923:16948  allowance(owner, spender) */\n      jump\t// in\n    tag_160:\n        /* \"minerpunk/ERC20/MinePower.sol\":16896:16948  uint256 currentAllowance = allowance(owner, spender) */\n      swap1\n      pop\n        /* \"minerpunk/ERC20/MinePower.sol\":16982:16999  type(uint256).max */\n      0xffffffffffffffffffffffffffffffffffffffffffffffffffffffffffffffff\n        /* \"minerpunk/ERC20/MinePower.sol\":16962:16978  currentAllowance */\n      dup2\n        /* \"minerpunk/ERC20/MinePower.sol\":16962:16999  currentAllowance != type(uint256).max */\n      eq\n        /* \"minerpunk/ERC20/MinePower.sol\":16958:17201  if (currentAllowance != type(uint256).max) {... */\n      tag_161\n      jumpi\n        /* \"minerpunk/ERC20/MinePower.sol\":17043:17049  amount */\n      dup2\n        /* \"minerpunk/ERC20/MinePower.sol\":17023:17039  currentAllowance */\n      dup2\n        /* \"minerpunk/ERC20/MinePower.sol\":17023:17049  currentAllowance >= amount */\n      lt\n      iszero\n        /* \"minerpunk/ERC20/MinePower.sol\":17015:17083  require(currentAllowance >= amount, \"ERC20: insufficient allowance\") */\n      tag_162\n      jumpi\n      mload(0x40)\n      0x08c379a000000000000000000000000000000000000000000000000000000000\n      dup2\n      mstore\n      0x04\n      add\n      tag_163\n      swap1\n      tag_164\n      jump\t// in\n    tag_163:\n      mload(0x40)\n      dup1\n      swap2\n      sub\n      swap1\n      revert\n    tag_162:\n        /* \"minerpunk/ERC20/MinePower.sol\":17125:17176  _approve(owner, spender, currentAllowance - amount) */\n      tag_165\n        /* \"minerpunk/ERC20/MinePower.sol\":17134:17139  owner */\n      dup5\n        /* \"minerpunk/ERC20/MinePower.sol\":17141:17148  spender */\n      dup5\n        /* \"minerpunk/ERC20/MinePower.sol\":17169:17175  amount */\n      dup5\n        /* \"minerpunk/ERC20/MinePower.sol\":17150:17166  currentAllowance */\n      dup5\n        /* \"minerpunk/ERC20/MinePower.sol\":17150:17175  currentAllowance - amount */\n      sub\n        /* \"minerpunk/ERC20/MinePower.sol\":17125:17133  _approve */\n      tag_92\n        /* \"minerpunk/ERC20/MinePower.sol\":17125:17176  _approve(owner, spender, currentAllowance - amount) */\n      jump\t// in\n    tag_165:\n        /* \"minerpunk/ERC20/MinePower.sol\":16958:17201  if (currentAllowance != type(uint256).max) {... */\n    tag_161:\n        /* \"minerpunk/ERC20/MinePower.sol\":16886:17207  {... */\n      pop\n        /* \"minerpunk/ERC20/MinePower.sol\":16766:17207  function _spendAllowance(... */\n      pop\n      pop\n      pop\n      jump\t// out\n        /* \"minerpunk/ERC20/MinePower.sol\":13480:14131  function _transfer(... */\n    tag_99:\n        /* \"minerpunk/ERC20/MinePower.sol\":13622:13623  0 */\n      0x00\n        /* \"minerpunk/ERC20/MinePower.sol\":13606:13624  from != address(0) */\n      0xffffffffffffffffffffffffffffffffffffffff\n      and\n        /* \"minerpunk/ERC20/MinePower.sol\":13606:13610  from */\n      dup4\n        /* \"minerpunk/ERC20/MinePower.sol\":13606:13624  from != address(0) */\n      0xffffffffffffffffffffffffffffffffffffffff\n      and\n      sub\n        /* \"minerpunk/ERC20/MinePower.sol\":13598:13666  require(from != address(0), \"ERC20: transfer from the zero address\") */\n      tag_167\n      jumpi\n      mload(0x40)\n      0x08c379a000000000000000000000000000000000000000000000000000000000\n      dup2\n      mstore\n      0x04\n      add\n      tag_168\n      swap1\n      tag_169\n      jump\t// in\n    tag_168:\n      mload(0x40)\n      dup1\n      swap2\n      sub\n      swap1\n      revert\n    tag_167:\n        /* \"minerpunk/ERC20/MinePower.sol\":13698:13699  0 */\n      0x00\n        /* \"minerpunk/ERC20/MinePower.sol\":13684:13700  to != address(0) */\n      0xffffffffffffffffffffffffffffffffffffffff\n      and\n        /* \"minerpunk/ERC20/MinePower.sol\":13684:13686  to */\n      dup3\n        /* \"minerpunk/ERC20/MinePower.sol\":13684:13700  to != address(0) */\n      0xffffffffffffffffffffffffffffffffffffffff\n      and\n      sub\n        /* \"minerpunk/ERC20/MinePower.sol\":13676:13740  require(to != address(0), \"ERC20: transfer to the zero address\") */\n      tag_170\n      jumpi\n      mload(0x40)\n      0x08c379a000000000000000000000000000000000000000000000000000000000\n      dup2\n      mstore\n      0x04\n      add\n      tag_171\n      swap1\n      tag_172\n      jump\t// in\n    tag_171:\n      mload(0x40)\n      dup1\n      swap2\n      sub\n      swap1\n      revert\n    tag_170:\n        /* \"minerpunk/ERC20/MinePower.sol\":13751:13789  _beforeTokenTransfer(from, to, amount) */\n      tag_173\n        /* \"minerpunk/ERC20/MinePower.sol\":13772:13776  from */\n      dup4\n        /* \"minerpunk/ERC20/MinePower.sol\":13778:13780  to */\n      dup4\n        /* \"minerpunk/ERC20/MinePower.sol\":13782:13788  amount */\n      dup4\n        /* \"minerpunk/ERC20/MinePower.sol\":13751:13771  _beforeTokenTransfer */\n      tag_174\n        /* \"minerpunk/ERC20/MinePower.sol\":13751:13789  _beforeTokenTransfer(from, to, amount) */\n      jump\t// in\n    tag_173:\n        /* \"minerpunk/ERC20/MinePower.sol\":13800:13819  uint256 fromBalance */\n      0x00\n        /* \"minerpunk/ERC20/MinePower.sol\":13822:13831  _balances */\n      dup1\n        /* \"minerpunk/ERC20/MinePower.sol\":13822:13837  _balances[from] */\n      0x00\n        /* \"minerpunk/ERC20/MinePower.sol\":13832:13836  from */\n      dup6\n        /* \"minerpunk/ERC20/MinePower.sol\":13822:13837  _balances[from] */\n      0xffffffffffffffffffffffffffffffffffffffff\n      and\n      0xffffffffffffffffffffffffffffffffffffffff\n      and\n      dup2\n      mstore\n      0x20\n      add\n      swap1\n      dup2\n      mstore\n      0x20\n      add\n      0x00\n      keccak256\n      sload\n        /* \"minerpunk/ERC20/MinePower.sol\":13800:13837  uint256 fromBalance = _balances[from] */\n      swap1\n      pop\n        /* \"minerpunk/ERC20/MinePower.sol\":13870:13876  amount */\n      dup2\n        /* \"minerpunk/ERC20/MinePower.sol\":13855:13866  fromBalance */\n      dup2\n        /* \"minerpunk/ERC20/MinePower.sol\":13855:13876  fromBalance >= amount */\n      lt\n      iszero\n        /* \"minerpunk/ERC20/MinePower.sol\":13847:13919  require(fromBalance >= amount, \"ERC20: transfer amount exceeds balance\") */\n      tag_175\n      jumpi\n      mload(0x40)\n      0x08c379a000000000000000000000000000000000000000000000000000000000\n      dup2\n      mstore\n      0x04\n      add\n      tag_176\n      swap1\n      tag_177\n      jump\t// in\n    tag_176:\n      mload(0x40)\n      dup1\n      swap2\n      sub\n      swap1\n      revert\n    tag_175:\n        /* \"minerpunk/ERC20/MinePower.sol\":13985:13991  amount */\n      dup2\n        /* \"minerpunk/ERC20/MinePower.sol\":13971:13982  fromBalance */\n      dup2\n        /* \"minerpunk/ERC20/MinePower.sol\":13971:13991  fromBalance - amount */\n      sub\n        /* \"minerpunk/ERC20/MinePower.sol\":13953:13962  _balances */\n      0x00\n        /* \"minerpunk/ERC20/MinePower.sol\":13953:13968  _balances[from] */\n      dup1\n        /* \"minerpunk/ERC20/MinePower.sol\":13963:13967  from */\n      dup7\n        /* \"minerpunk/ERC20/MinePower.sol\":13953:13968  _balances[from] */\n      0xffffffffffffffffffffffffffffffffffffffff\n      and\n      0xffffffffffffffffffffffffffffffffffffffff\n      and\n      dup2\n      mstore\n      0x20\n      add\n      swap1\n      dup2\n      mstore\n      0x20\n      add\n      0x00\n      keccak256\n        /* \"minerpunk/ERC20/MinePower.sol\":13953:13991  _balances[from] = fromBalance - amount */\n      dup2\n      swap1\n      sstore\n      pop\n        /* \"minerpunk/ERC20/MinePower.sol\":14028:14034  amount */\n      dup2\n        /* \"minerpunk/ERC20/MinePower.sol\":14011:14020  _balances */\n      0x00\n        /* \"minerpunk/ERC20/MinePower.sol\":14011:14024  _balances[to] */\n      dup1\n        /* \"minerpunk/ERC20/MinePower.sol\":14021:14023  to */\n      dup6\n        /* \"minerpunk/ERC20/MinePower.sol\":14011:14024  _balances[to] */\n      0xffffffffffffffffffffffffffffffffffffffff\n      and\n      0xffffffffffffffffffffffffffffffffffffffff\n      and\n      dup2\n      mstore\n      0x20\n      add\n      swap1\n      dup2\n      mstore\n      0x20\n      add\n      0x00\n      keccak256\n      0x00\n        /* \"minerpunk/ERC20/MinePower.sol\":14011:14034  _balances[to] += amount */\n      dup3\n      dup3\n      sload\n      tag_178\n      swap2\n      swap1\n      tag_106\n      jump\t// in\n    tag_178:\n      swap3\n      pop\n      pop\n      dup2\n      swap1\n      sstore\n      pop\n        /* \"minerpunk/ERC20/MinePower.sol\":14065:14067  to */\n      dup3\n        /* \"minerpunk/ERC20/MinePower.sol\":14050:14076  Transfer(from, to, amount) */\n      0xffffffffffffffffffffffffffffffffffffffff\n      and\n        /* \"minerpunk/ERC20/MinePower.sol\":14059:14063  from */\n      dup5\n        /* \"minerpunk/ERC20/MinePower.sol\":14050:14076  Transfer(from, to, amount) */\n      0xffffffffffffffffffffffffffffffffffffffff\n      and\n      0xddf252ad1be2c89b69c2b068fc378daa952ba7f163c4a11628f55a4df523b3ef\n        /* \"minerpunk/ERC20/MinePower.sol\":14069:14075  amount */\n      dup5\n        /* \"minerpunk/ERC20/MinePower.sol\":14050:14076  Transfer(from, to, amount) */\n      mload(0x40)\n      tag_179\n      swap2\n      swap1\n      tag_33\n      jump\t// in\n    tag_179:\n      mload(0x40)\n      dup1\n      swap2\n      sub\n      swap1\n      log3\n        /* \"minerpunk/ERC20/MinePower.sol\":14087:14124  _afterTokenTransfer(from, to, amount) */\n      tag_180\n        /* \"minerpunk/ERC20/MinePower.sol\":14107:14111  from */\n      dup5\n        /* \"minerpunk/ERC20/MinePower.sol\":14113:14115  to */\n      dup5\n        /* \"minerpunk/ERC20/MinePower.sol\":14117:14123  amount */\n      dup5\n        /* \"minerpunk/ERC20/MinePower.sol\":14087:14106  _afterTokenTransfer */\n      tag_181\n        /* \"minerpunk/ERC20/MinePower.sol\":14087:14124  _afterTokenTransfer(from, to, amount) */\n      jump\t// in\n    tag_180:\n        /* \"minerpunk/ERC20/MinePower.sol\":13588:14131  {... */\n      pop\n        /* \"minerpunk/ERC20/MinePower.sol\":13480:14131  function _transfer(... */\n      pop\n      pop\n      pop\n      jump\t// out\n        /* \"@openzeppelin/contracts/utils/math/SafeMath.sol\":3465:3561  function mul(uint256 a, uint256 b) internal pure returns (uint256) {... */\n    tag_110:\n        /* \"@openzeppelin/contracts/utils/math/SafeMath.sol\":3523:3530  uint256 */\n      0x00\n        /* \"@openzeppelin/contracts/utils/math/SafeMath.sol\":3553:3554  b */\n      dup2\n        /* \"@openzeppelin/contracts/utils/math/SafeMath.sol\":3549:3550  a */\n      dup4\n        /* \"@openzeppelin/contracts/utils/math/SafeMath.sol\":3549:3554  a * b */\n      tag_183\n      swap2\n      swap1\n      tag_184\n      jump\t// in\n    tag_183:\n        /* \"@openzeppelin/contracts/utils/math/SafeMath.sol\":3542:3554  return a * b */\n      swap1\n      pop\n        /* \"@openzeppelin/contracts/utils/math/SafeMath.sol\":3465:3561  function mul(uint256 a, uint256 b) internal pure returns (uint256) {... */\n      swap3\n      swap2\n      pop\n      pop\n      jump\t// out\n        /* \"@openzeppelin/contracts/utils/math/SafeMath.sol\":3850:3946  function div(uint256 a, uint256 b) internal pure returns (uint256) {... */\n    tag_113:\n        /* \"@openzeppelin/contracts/utils/math/SafeMath.sol\":3908:3915  uint256 */\n      0x00\n        /* \"@openzeppelin/contracts/utils/math/SafeMath.sol\":3938:3939  b */\n      dup2\n        /* \"@openzeppelin/contracts/utils/math/SafeMath.sol\":3934:3935  a */\n      dup4\n        /* \"@openzeppelin/contracts/utils/math/SafeMath.sol\":3934:3939  a / b */\n      tag_186\n      swap2\n      swap1\n      tag_187\n      jump\t// in\n    tag_186:\n        /* \"@openzeppelin/contracts/utils/math/SafeMath.sol\":3927:3939  return a / b */\n      swap1\n      pop\n        /* \"@openzeppelin/contracts/utils/math/SafeMath.sol\":3850:3946  function div(uint256 a, uint256 b) internal pure returns (uint256) {... */\n      swap3\n      swap2\n      pop\n      pop\n      jump\t// out\n        /* \"@openzeppelin/contracts/utils/math/SafeMath.sol\":3122:3218  function sub(uint256 a, uint256 b) internal pure returns (uint256) {... */\n    tag_133:\n        /* \"@openzeppelin/contracts/utils/math/SafeMath.sol\":3180:3187  uint256 */\n      0x00\n        /* \"@openzeppelin/contracts/utils/math/SafeMath.sol\":3210:3211  b */\n      dup2\n        /* \"@openzeppelin/contracts/utils/math/SafeMath.sol\":3206:3207  a */\n      dup4\n        /* \"@openzeppelin/contracts/utils/math/SafeMath.sol\":3206:3211  a - b */\n      tag_189\n      swap2\n      swap1\n      tag_190\n      jump\t// in\n    tag_189:\n        /* \"@openzeppelin/contracts/utils/math/SafeMath.sol\":3199:3211  return a - b */\n      swap1\n      pop\n        /* \"@openzeppelin/contracts/utils/math/SafeMath.sol\":3122:3218  function sub(uint256 a, uint256 b) internal pure returns (uint256) {... */\n      swap3\n      swap2\n      pop\n      pop\n      jump\t// out\n        /* \"@openzeppelin/contracts/utils/math/SafeMath.sol\":2755:2851  function add(uint256 a, uint256 b) internal pure returns (uint256) {... */\n    tag_139:\n        /* \"@openzeppelin/contracts/utils/math/SafeMath.sol\":2813:2820  uint256 */\n      0x00\n        /* \"@openzeppelin/contracts/utils/math/SafeMath.sol\":2843:2844  b */\n      dup2\n        /* \"@openzeppelin/contracts/utils/math/SafeMath.sol\":2839:2840  a */\n      dup4\n        /* \"@openzeppelin/contracts/utils/math/SafeMath.sol\":2839:2844  a + b */\n      tag_192\n      swap2\n      swap1\n      tag_106\n      jump\t// in\n    tag_192:\n        /* \"@openzeppelin/contracts/utils/math/SafeMath.sol\":2832:2844  return a + b */\n      swap1\n      pop\n        /* \"@openzeppelin/contracts/utils/math/SafeMath.sol\":2755:2851  function add(uint256 a, uint256 b) internal pure returns (uint256) {... */\n      swap3\n      swap2\n      pop\n      pop\n      jump\t// out\n        /* \"minerpunk/ERC20/MinePower.sol\":17791:17912  function _beforeTokenTransfer(... */\n    tag_174:\n      pop\n      pop\n      pop\n      jump\t// out\n        /* \"minerpunk/ERC20/MinePower.sol\":18500:18620  function _afterTokenTransfer(... */\n    tag_181:\n      pop\n      pop\n      pop\n      jump\t// out\n        /* \"#utility.yul\":7:106   */\n    tag_195:\n        /* \"#utility.yul\":59:65   */\n      0x00\n        /* \"#utility.yul\":93:98   */\n      dup2\n        /* \"#utility.yul\":87:99   */\n      mload\n        /* \"#utility.yul\":77:99   */\n      swap1\n      pop\n        /* \"#utility.yul\":7:106   */\n      swap2\n      swap1\n      pop\n      jump\t// out\n        /* \"#utility.yul\":112:281   */\n    tag_196:\n        /* \"#utility.yul\":196:207   */\n      0x00\n        /* \"#utility.yul\":230:236   */\n      dup3\n        /* \"#utility.yul\":225:228   */\n      dup3\n        /* \"#utility.yul\":218:237   */\n      mstore\n        /* \"#utility.yul\":270:274   */\n      0x20\n        /* \"#utility.yul\":265:268   */\n      dup3\n        /* \"#utility.yul\":261:275   */\n      add\n        /* \"#utility.yul\":246:275   */\n      swap1\n      pop\n        /* \"#utility.yul\":112:281   */\n      swap3\n      swap2\n      pop\n      pop\n      jump\t// out\n        /* \"#utility.yul\":287:533   */\n    tag_197:\n        /* \"#utility.yul\":368:369   */\n      0x00\n        /* \"#utility.yul\":378:491   */\n    tag_236:\n        /* \"#utility.yul\":392:398   */\n      dup4\n        /* \"#utility.yul\":389:390   */\n      dup2\n        /* \"#utility.yul\":386:399   */\n      lt\n        /* \"#utility.yul\":378:491   */\n      iszero\n      tag_238\n      jumpi\n        /* \"#utility.yul\":477:478   */\n      dup1\n        /* \"#utility.yul\":472:475   */\n      dup3\n        /* \"#utility.yul\":468:479   */\n      add\n        /* \"#utility.yul\":462:480   */\n      mload\n        /* \"#utility.yul\":458:459   */\n      dup2\n        /* \"#utility.yul\":453:456   */\n      dup5\n        /* \"#utility.yul\":449:460   */\n      add\n        /* \"#utility.yul\":442:481   */\n      mstore\n        /* \"#utility.yul\":414:416   */\n      0x20\n        /* \"#utility.yul\":411:412   */\n      dup2\n        /* \"#utility.yul\":407:417   */\n      add\n        /* \"#utility.yul\":402:417   */\n      swap1\n      pop\n        /* \"#utility.yul\":378:491   */\n      jump(tag_236)\n    tag_238:\n        /* \"#utility.yul\":525:526   */\n      0x00\n        /* \"#utility.yul\":516:522   */\n      dup5\n        /* \"#utility.yul\":511:514   */\n      dup5\n        /* \"#utility.yul\":507:523   */\n      add\n        /* \"#utility.yul\":500:527   */\n      mstore\n        /* \"#utility.yul\":349:533   */\n      pop\n        /* \"#utility.yul\":287:533   */\n      pop\n      pop\n      pop\n      jump\t// out\n        /* \"#utility.yul\":539:641   */\n    tag_198:\n        /* \"#utility.yul\":580:586   */\n      0x00\n        /* \"#utility.yul\":631:633   */\n      0x1f\n        /* \"#utility.yul\":627:634   */\n      not\n        /* \"#utility.yul\":622:624   */\n      0x1f\n        /* \"#utility.yul\":615:620   */\n      dup4\n        /* \"#utility.yul\":611:625   */\n      add\n        /* \"#utility.yul\":607:635   */\n      and\n        /* \"#utility.yul\":597:635   */\n      swap1\n      pop\n        /* \"#utility.yul\":539:641   */\n      swap2\n      swap1\n      pop\n      jump\t// out\n        /* \"#utility.yul\":647:1024   */\n    tag_199:\n        /* \"#utility.yul\":735:738   */\n      0x00\n        /* \"#utility.yul\":763:802   */\n      tag_241\n        /* \"#utility.yul\":796:801   */\n      dup3\n        /* \"#utility.yul\":763:802   */\n      tag_195\n      jump\t// in\n    tag_241:\n        /* \"#utility.yul\":818:889   */\n      tag_242\n        /* \"#utility.yul\":882:888   */\n      dup2\n        /* \"#utility.yul\":877:880   */\n      dup6\n        /* \"#utility.yul\":818:889   */\n      tag_196\n      jump\t// in\n    tag_242:\n        /* \"#utility.yul\":811:889   */\n      swap4\n      pop\n        /* \"#utility.yul\":898:963   */\n      tag_243\n        /* \"#utility.yul\":956:962   */\n      dup2\n        /* \"#utility.yul\":951:954   */\n      dup6\n        /* \"#utility.yul\":944:948   */\n      0x20\n        /* \"#utility.yul\":937:942   */\n      dup7\n        /* \"#utility.yul\":933:949   */\n      add\n        /* \"#utility.yul\":898:963   */\n      tag_197\n      jump\t// in\n    tag_243:\n        /* \"#utility.yul\":988:1017   */\n      tag_244\n        /* \"#utility.yul\":1010:1016   */\n      dup2\n        /* \"#utility.yul\":988:1017   */\n      tag_198\n      jump\t// in\n    tag_244:\n        /* \"#utility.yul\":983:986   */\n      dup5\n        /* \"#utility.yul\":979:1018   */\n      add\n        /* \"#utility.yul\":972:1018   */\n      swap2\n      pop\n        /* \"#utility.yul\":739:1024   */\n      pop\n        /* \"#utility.yul\":647:1024   */\n      swap3\n      swap2\n      pop\n      pop\n      jump\t// out\n        /* \"#utility.yul\":1030:1343   */\n    tag_23:\n        /* \"#utility.yul\":1143:1147   */\n      0x00\n        /* \"#utility.yul\":1181:1183   */\n      0x20\n        /* \"#utility.yul\":1170:1179   */\n      dup3\n        /* \"#utility.yul\":1166:1184   */\n      add\n        /* \"#utility.yul\":1158:1184   */\n      swap1\n      pop\n        /* \"#utility.yul\":1230:1239   */\n      dup2\n        /* \"#utility.yul\":1224:1228   */\n      dup2\n        /* \"#utility.yul\":1220:1240   */\n      sub\n        /* \"#utility.yul\":1216:1217   */\n      0x00\n        /* \"#utility.yul\":1205:1214   */\n      dup4\n        /* \"#utility.yul\":1201:1218   */\n      add\n        /* \"#utility.yul\":1194:1241   */\n      mstore\n        /* \"#utility.yul\":1258:1336   */\n      tag_246\n        /* \"#utility.yul\":1331:1335   */\n      dup2\n        /* \"#utility.yul\":1322:1328   */\n      dup5\n        /* \"#utility.yul\":1258:1336   */\n      tag_199\n      jump\t// in\n    tag_246:\n        /* \"#utility.yul\":1250:1336   */\n      swap1\n      pop\n        /* \"#utility.yul\":1030:1343   */\n      swap3\n      swap2\n      pop\n      pop\n      jump\t// out\n        /* \"#utility.yul\":1430:1547   */\n    tag_201:\n        /* \"#utility.yul\":1539:1540   */\n      0x00\n        /* \"#utility.yul\":1536:1537   */\n      dup1\n        /* \"#utility.yul\":1529:1541   */\n      revert\n        /* \"#utility.yul\":1676:1802   */\n    tag_203:\n        /* \"#utility.yul\":1713:1720   */\n      0x00\n        /* \"#utility.yul\":1753:1795   */\n      0xffffffffffffffffffffffffffffffffffffffff\n        /* \"#utility.yul\":1746:1751   */\n      dup3\n        /* \"#utility.yul\":1742:1796   */\n      and\n        /* \"#utility.yul\":1731:1796   */\n      swap1\n      pop\n        /* \"#utility.yul\":1676:1802   */\n      swap2\n      swap1\n      pop\n      jump\t// out\n        /* \"#utility.yul\":1808:1904   */\n    tag_204:\n        /* \"#utility.yul\":1845:1852   */\n      0x00\n        /* \"#utility.yul\":1874:1898   */\n      tag_252\n        /* \"#utility.yul\":1892:1897   */\n      dup3\n        /* \"#utility.yul\":1874:1898   */\n      tag_203\n      jump\t// in\n    tag_252:\n        /* \"#utility.yul\":1863:1898   */\n      swap1\n      pop\n        /* \"#utility.yul\":1808:1904   */\n      swap2\n      swap1\n      pop\n      jump\t// out\n        /* \"#utility.yul\":1910:2032   */\n    tag_205:\n        /* \"#utility.yul\":1983:2007   */\n      tag_254\n        /* \"#utility.yul\":2001:2006   */\n      dup2\n        /* \"#utility.yul\":1983:2007   */\n      tag_204\n      jump\t// in\n    tag_254:\n        /* \"#utility.yul\":1976:1981   */\n      dup2\n        /* \"#utility.yul\":1973:2008   */\n      eq\n        /* \"#utility.yul\":1963:2026   */\n      tag_255\n      jumpi\n        /* \"#utility.yul\":2022:2023   */\n      0x00\n        /* \"#utility.yul\":2019:2020   */\n      dup1\n        /* \"#utility.yul\":2012:2024   */\n      revert\n        /* \"#utility.yul\":1963:2026   */\n    tag_255:\n        /* \"#utility.yul\":1910:2032   */\n      pop\n      jump\t// out\n        /* \"#utility.yul\":2038:2177   */\n    tag_206:\n        /* \"#utility.yul\":2084:2089   */\n      0x00\n        /* \"#utility.yul\":2122:2128   */\n      dup2\n        /* \"#utility.yul\":2109:2129   */\n      calldataload\n        /* \"#utility.yul\":2100:2129   */\n      swap1\n      pop\n        /* \"#utility.yul\":2138:2171   */\n      tag_257\n        /* \"#utility.yul\":2165:2170   */\n      dup2\n        /* \"#utility.yul\":2138:2171   */\n      tag_205\n      jump\t// in\n    tag_257:\n        /* \"#utility.yul\":2038:2177   */\n      swap3\n      swap2\n      pop\n      pop\n      jump\t// out\n        /* \"#utility.yul\":2183:2260   */\n    tag_207:\n        /* \"#utility.yul\":2220:2227   */\n      0x00\n        /* \"#utility.yul\":2249:2254   */\n      dup2\n        /* \"#utility.yul\":2238:2254   */\n      swap1\n      pop\n        /* \"#utility.yul\":2183:2260   */\n      swap2\n      swap1\n      pop\n      jump\t// out\n        /* \"#utility.yul\":2266:2388   */\n    tag_208:\n        /* \"#utility.yul\":2339:2363   */\n      tag_260\n        /* \"#utility.yul\":2357:2362   */\n      dup2\n        /* \"#utility.yul\":2339:2363   */\n      tag_207\n      jump\t// in\n    tag_260:\n        /* \"#utility.yul\":2332:2337   */\n      dup2\n        /* \"#utility.yul\":2329:2364   */\n      eq\n        /* \"#utility.yul\":2319:2382   */\n      tag_261\n      jumpi\n        /* \"#utility.yul\":2378:2379   */\n      0x00\n        /* \"#utility.yul\":2375:2376   */\n      dup1\n        /* \"#utility.yul\":2368:2380   */\n      revert\n        /* \"#utility.yul\":2319:2382   */\n    tag_261:\n        /* \"#utility.yul\":2266:2388   */\n      pop\n      jump\t// out\n        /* \"#utility.yul\":2394:2533   */\n    tag_209:\n        /* \"#utility.yul\":2440:2445   */\n      0x00\n        /* \"#utility.yul\":2478:2484   */\n      dup2\n        /* \"#utility.yul\":2465:2485   */\n      calldataload\n        /* \"#utility.yul\":2456:2485   */\n      swap1\n      pop\n        /* \"#utility.yul\":2494:2527   */\n      tag_263\n        /* \"#utility.yul\":2521:2526   */\n      dup2\n        /* \"#utility.yul\":2494:2527   */\n      tag_208\n      jump\t// in\n    tag_263:\n        /* \"#utility.yul\":2394:2533   */\n      swap3\n      swap2\n      pop\n      pop\n      jump\t// out\n        /* \"#utility.yul\":2539:3013   */\n    tag_26:\n        /* \"#utility.yul\":2607:2613   */\n      0x00\n        /* \"#utility.yul\":2615:2621   */\n      dup1\n        /* \"#utility.yul\":2664:2666   */\n      0x40\n        /* \"#utility.yul\":2652:2661   */\n      dup4\n        /* \"#utility.yul\":2643:2650   */\n      dup6\n        /* \"#utility.yul\":2639:2662   */\n      sub\n        /* \"#utility.yul\":2635:2667   */\n      slt\n        /* \"#utility.yul\":2632:2751   */\n      iszero\n      tag_265\n      jumpi\n        /* \"#utility.yul\":2670:2749   */\n      tag_266\n      tag_201\n      jump\t// in\n    tag_266:\n        /* \"#utility.yul\":2632:2751   */\n    tag_265:\n        /* \"#utility.yul\":2790:2791   */\n      0x00\n        /* \"#utility.yul\":2815:2868   */\n      tag_267\n        /* \"#utility.yul\":2860:2867   */\n      dup6\n        /* \"#utility.yul\":2851:2857   */\n      dup3\n        /* \"#utility.yul\":2840:2849   */\n      dup7\n        /* \"#utility.yul\":2836:2858   */\n      add\n        /* \"#utility.yul\":2815:2868   */\n      tag_206\n      jump\t// in\n    tag_267:\n        /* \"#utility.yul\":2805:2868   */\n      swap3\n      pop\n        /* \"#utility.yul\":2761:2878   */\n      pop\n        /* \"#utility.yul\":2917:2919   */\n      0x20\n        /* \"#utility.yul\":2943:2996   */\n      tag_268\n        /* \"#utility.yul\":2988:2995   */\n      dup6\n        /* \"#utility.yul\":2979:2985   */\n      dup3\n        /* \"#utility.yul\":2968:2977   */\n      dup7\n        /* \"#utility.yul\":2964:2986   */\n      add\n        /* \"#utility.yul\":2943:2996   */\n      tag_209\n      jump\t// in\n    tag_268:\n        /* \"#utility.yul\":2933:2996   */\n      swap2\n      pop\n        /* \"#utility.yul\":2888:3006   */\n      pop\n        /* \"#utility.yul\":2539:3013   */\n      swap3\n      pop\n      swap3\n      swap1\n      pop\n      jump\t// out\n        /* \"#utility.yul\":3019:3109   */\n    tag_210:\n        /* \"#utility.yul\":3053:3060   */\n      0x00\n        /* \"#utility.yul\":3096:3101   */\n      dup2\n        /* \"#utility.yul\":3089:3102   */\n      iszero\n        /* \"#utility.yul\":3082:3103   */\n      iszero\n        /* \"#utility.yul\":3071:3103   */\n      swap1\n      pop\n        /* \"#utility.yul\":3019:3109   */\n      swap2\n      swap1\n      pop\n      jump\t// out\n        /* \"#utility.yul\":3115:3224   */\n    tag_211:\n        /* \"#utility.yul\":3196:3217   */\n      tag_271\n        /* \"#utility.yul\":3211:3216   */\n      dup2\n        /* \"#utility.yul\":3196:3217   */\n      tag_210\n      jump\t// in\n    tag_271:\n        /* \"#utility.yul\":3191:3194   */\n      dup3\n        /* \"#utility.yul\":3184:3218   */\n      mstore\n        /* \"#utility.yul\":3115:3224   */\n      pop\n      pop\n      jump\t// out\n        /* \"#utility.yul\":3230:3440   */\n    tag_29:\n        /* \"#utility.yul\":3317:3321   */\n      0x00\n        /* \"#utility.yul\":3355:3357   */\n      0x20\n        /* \"#utility.yul\":3344:3353   */\n      dup3\n        /* \"#utility.yul\":3340:3358   */\n      add\n        /* \"#utility.yul\":3332:3358   */\n      swap1\n      pop\n        /* \"#utility.yul\":3368:3433   */\n      tag_273\n        /* \"#utility.yul\":3430:3431   */\n      0x00\n        /* \"#utility.yul\":3419:3428   */\n      dup4\n        /* \"#utility.yul\":3415:3432   */\n      add\n        /* \"#utility.yul\":3406:3412   */\n      dup5\n        /* \"#utility.yul\":3368:3433   */\n      tag_211\n      jump\t// in\n    tag_273:\n        /* \"#utility.yul\":3230:3440   */\n      swap3\n      swap2\n      pop\n      pop\n      jump\t// out\n        /* \"#utility.yul\":3446:3564   */\n    tag_212:\n        /* \"#utility.yul\":3533:3557   */\n      tag_275\n        /* \"#utility.yul\":3551:3556   */\n      dup2\n        /* \"#utility.yul\":3533:3557   */\n      tag_207\n      jump\t// in\n    tag_275:\n        /* \"#utility.yul\":3528:3531   */\n      dup3\n        /* \"#utility.yul\":3521:3558   */\n      mstore\n        /* \"#utility.yul\":3446:3564   */\n      pop\n      pop\n      jump\t// out\n        /* \"#utility.yul\":3570:3792   */\n    tag_33:\n        /* \"#utility.yul\":3663:3667   */\n      0x00\n        /* \"#utility.yul\":3701:3703   */\n      0x20\n        /* \"#utility.yul\":3690:3699   */\n      dup3\n        /* \"#utility.yul\":3686:3704   */\n      add\n        /* \"#utility.yul\":3678:3704   */\n      swap1\n      pop\n        /* \"#utility.yul\":3714:3785   */\n      tag_277\n        /* \"#utility.yul\":3782:3783   */\n      0x00\n        /* \"#utility.yul\":3771:3780   */\n      dup4\n        /* \"#utility.yul\":3767:3784   */\n      add\n        /* \"#utility.yul\":3758:3764   */\n      dup5\n        /* \"#utility.yul\":3714:3785   */\n      tag_212\n      jump\t// in\n    tag_277:\n        /* \"#utility.yul\":3570:3792   */\n      swap3\n      swap2\n      pop\n      pop\n      jump\t// out\n        /* \"#utility.yul\":3798:4417   */\n    tag_36:\n        /* \"#utility.yul\":3875:3881   */\n      0x00\n        /* \"#utility.yul\":3883:3889   */\n      dup1\n        /* \"#utility.yul\":3891:3897   */\n      0x00\n        /* \"#utility.yul\":3940:3942   */\n      0x60\n        /* \"#utility.yul\":3928:3937   */\n      dup5\n        /* \"#utility.yul\":3919:3926   */\n      dup7\n        /* \"#utility.yul\":3915:3938   */\n      sub\n        /* \"#utility.yul\":3911:3943   */\n      slt\n        /* \"#utility.yul\":3908:4027   */\n      iszero\n      tag_279\n      jumpi\n        /* \"#utility.yul\":3946:4025   */\n      tag_280\n      tag_201\n      jump\t// in\n    tag_280:\n        /* \"#utility.yul\":3908:4027   */\n    tag_279:\n        /* \"#utility.yul\":4066:4067   */\n      0x00\n        /* \"#utility.yul\":4091:4144   */\n      tag_281\n        /* \"#utility.yul\":4136:4143   */\n      dup7\n        /* \"#utility.yul\":4127:4133   */\n      dup3\n        /* \"#utility.yul\":4116:4125   */\n      dup8\n        /* \"#utility.yul\":4112:4134   */\n      add\n        /* \"#utility.yul\":4091:4144   */\n      tag_206\n      jump\t// in\n    tag_281:\n        /* \"#utility.yul\":4081:4144   */\n      swap4\n      pop\n        /* \"#utility.yul\":4037:4154   */\n      pop\n        /* \"#utility.yul\":4193:4195   */\n      0x20\n        /* \"#utility.yul\":4219:4272   */\n      tag_282\n        /* \"#utility.yul\":4264:4271   */\n      dup7\n        /* \"#utility.yul\":4255:4261   */\n      dup3\n        /* \"#utility.yul\":4244:4253   */\n      dup8\n        /* \"#utility.yul\":4240:4262   */\n      add\n        /* \"#utility.yul\":4219:4272   */\n      tag_206\n      jump\t// in\n    tag_282:\n        /* \"#utility.yul\":4209:4272   */\n      swap3\n      pop\n        /* \"#utility.yul\":4164:4282   */\n      pop\n        /* \"#utility.yul\":4321:4323   */\n      0x40\n        /* \"#utility.yul\":4347:4400   */\n      tag_283\n        /* \"#utility.yul\":4392:4399   */\n      dup7\n        /* \"#utility.yul\":4383:4389   */\n      dup3\n        /* \"#utility.yul\":4372:4381   */\n      dup8\n        /* \"#utility.yul\":4368:4390   */\n      add\n        /* \"#utility.yul\":4347:4400   */\n      tag_209\n      jump\t// in\n    tag_283:\n        /* \"#utility.yul\":4337:4400   */\n      swap2\n      pop\n        /* \"#utility.yul\":4292:4410   */\n      pop\n        /* \"#utility.yul\":3798:4417   */\n      swap3\n      pop\n      swap3\n      pop\n      swap3\n      jump\t// out\n        /* \"#utility.yul\":4423:4509   */\n    tag_213:\n        /* \"#utility.yul\":4458:4465   */\n      0x00\n        /* \"#utility.yul\":4498:4502   */\n      0xff\n        /* \"#utility.yul\":4491:4496   */\n      dup3\n        /* \"#utility.yul\":4487:4503   */\n      and\n        /* \"#utility.yul\":4476:4503   */\n      swap1\n      pop\n        /* \"#utility.yul\":4423:4509   */\n      swap2\n      swap1\n      pop\n      jump\t// out\n        /* \"#utility.yul\":4515:4627   */\n    tag_214:\n        /* \"#utility.yul\":4598:4620   */\n      tag_286\n        /* \"#utility.yul\":4614:4619   */\n      dup2\n        /* \"#utility.yul\":4598:4620   */\n      tag_213\n      jump\t// in\n    tag_286:\n        /* \"#utility.yul\":4593:4596   */\n      dup3\n        /* \"#utility.yul\":4586:4621   */\n      mstore\n        /* \"#utility.yul\":4515:4627   */\n      pop\n      pop\n      jump\t// out\n        /* \"#utility.yul\":4633:4847   */\n    tag_42:\n        /* \"#utility.yul\":4722:4726   */\n      0x00\n        /* \"#utility.yul\":4760:4762   */\n      0x20\n        /* \"#utility.yul\":4749:4758   */\n      dup3\n        /* \"#utility.yul\":4745:4763   */\n      add\n        /* \"#utility.yul\":4737:4763   */\n      swap1\n      pop\n        /* \"#utility.yul\":4773:4840   */\n      tag_288\n        /* \"#utility.yul\":4837:4838   */\n      0x00\n        /* \"#utility.yul\":4826:4835   */\n      dup4\n        /* \"#utility.yul\":4822:4839   */\n      add\n        /* \"#utility.yul\":4813:4819   */\n      dup5\n        /* \"#utility.yul\":4773:4840   */\n      tag_214\n      jump\t// in\n    tag_288:\n        /* \"#utility.yul\":4633:4847   */\n      swap3\n      swap2\n      pop\n      pop\n      jump\t// out\n        /* \"#utility.yul\":4853:5182   */\n    tag_49:\n        /* \"#utility.yul\":4912:4918   */\n      0x00\n        /* \"#utility.yul\":4961:4963   */\n      0x20\n        /* \"#utility.yul\":4949:4958   */\n      dup3\n        /* \"#utility.yul\":4940:4947   */\n      dup5\n        /* \"#utility.yul\":4936:4959   */\n      sub\n        /* \"#utility.yul\":4932:4964   */\n      slt\n        /* \"#utility.yul\":4929:5048   */\n      iszero\n      tag_290\n      jumpi\n        /* \"#utility.yul\":4967:5046   */\n      tag_291\n      tag_201\n      jump\t// in\n    tag_291:\n        /* \"#utility.yul\":4929:5048   */\n    tag_290:\n        /* \"#utility.yul\":5087:5088   */\n      0x00\n        /* \"#utility.yul\":5112:5165   */\n      tag_292\n        /* \"#utility.yul\":5157:5164   */\n      dup5\n        /* \"#utility.yul\":5148:5154   */\n      dup3\n        /* \"#utility.yul\":5137:5146   */\n      dup6\n        /* \"#utility.yul\":5133:5155   */\n      add\n        /* \"#utility.yul\":5112:5165   */\n      tag_209\n      jump\t// in\n    tag_292:\n        /* \"#utility.yul\":5102:5165   */\n      swap2\n      pop\n        /* \"#utility.yul\":5058:5175   */\n      pop\n        /* \"#utility.yul\":4853:5182   */\n      swap3\n      swap2\n      pop\n      pop\n      jump\t// out\n        /* \"#utility.yul\":5188:5517   */\n    tag_54:\n        /* \"#utility.yul\":5247:5253   */\n      0x00\n        /* \"#utility.yul\":5296:5298   */\n      0x20\n        /* \"#utility.yul\":5284:5293   */\n      dup3\n        /* \"#utility.yul\":5275:5282   */\n      dup5\n        /* \"#utility.yul\":5271:5294   */\n      sub\n        /* \"#utility.yul\":5267:5299   */\n      slt\n        /* \"#utility.yul\":5264:5383   */\n      iszero\n      tag_294\n      jumpi\n        /* \"#utility.yul\":5302:5381   */\n      tag_295\n      tag_201\n      jump\t// in\n    tag_295:\n        /* \"#utility.yul\":5264:5383   */\n    tag_294:\n        /* \"#utility.yul\":5422:5423   */\n      0x00\n        /* \"#utility.yul\":5447:5500   */\n      tag_296\n        /* \"#utility.yul\":5492:5499   */\n      dup5\n        /* \"#utility.yul\":5483:5489   */\n      dup3\n        /* \"#utility.yul\":5472:5481   */\n      dup6\n        /* \"#utility.yul\":5468:5490   */\n      add\n        /* \"#utility.yul\":5447:5500   */\n      tag_206\n      jump\t// in\n    tag_296:\n        /* \"#utility.yul\":5437:5500   */\n      swap2\n      pop\n        /* \"#utility.yul\":5393:5510   */\n      pop\n        /* \"#utility.yul\":5188:5517   */\n      swap3\n      swap2\n      pop\n      pop\n      jump\t// out\n        /* \"#utility.yul\":5523:5997   */\n    tag_78:\n        /* \"#utility.yul\":5591:5597   */\n      0x00\n        /* \"#utility.yul\":5599:5605   */\n      dup1\n        /* \"#utility.yul\":5648:5650   */\n      0x40\n        /* \"#utility.yul\":5636:5645   */\n      dup4\n        /* \"#utility.yul\":5627:5634   */\n      dup6\n        /* \"#utility.yul\":5623:5646   */\n      sub\n        /* \"#utility.yul\":5619:5651   */\n      slt\n        /* \"#utility.yul\":5616:5735   */\n      iszero\n      tag_298\n      jumpi\n        /* \"#utility.yul\":5654:5733   */\n      tag_299\n      tag_201\n      jump\t// in\n    tag_299:\n        /* \"#utility.yul\":5616:5735   */\n    tag_298:\n        /* \"#utility.yul\":5774:5775   */\n      0x00\n        /* \"#utility.yul\":5799:5852   */\n      tag_300\n        /* \"#utility.yul\":5844:5851   */\n      dup6\n        /* \"#utility.yul\":5835:5841   */\n      dup3\n        /* \"#utility.yul\":5824:5833   */\n      dup7\n        /* \"#utility.yul\":5820:5842   */\n      add\n        /* \"#utility.yul\":5799:5852   */\n      tag_206\n      jump\t// in\n    tag_300:\n        /* \"#utility.yul\":5789:5852   */\n      swap3\n      pop\n        /* \"#utility.yul\":5745:5862   */\n      pop\n        /* \"#utility.yul\":5901:5903   */\n      0x20\n        /* \"#utility.yul\":5927:5980   */\n      tag_301\n        /* \"#utility.yul\":5972:5979   */\n      dup6\n        /* \"#utility.yul\":5963:5969   */\n      dup3\n        /* \"#utility.yul\":5952:5961   */\n      dup7\n        /* \"#utility.yul\":5948:5970   */\n      add\n        /* \"#utility.yul\":5927:5980   */\n      tag_206\n      jump\t// in\n    tag_301:\n        /* \"#utility.yul\":5917:5980   */\n      swap2\n      pop\n        /* \"#utility.yul\":5872:5990   */\n      pop\n        /* \"#utility.yul\":5523:5997   */\n      swap3\n      pop\n      swap3\n      swap1\n      pop\n      jump\t// out\n        /* \"#utility.yul\":6003:6183   */\n    tag_215:\n        /* \"#utility.yul\":6051:6128   */\n      0x4e487b7100000000000000000000000000000000000000000000000000000000\n        /* \"#utility.yul\":6048:6049   */\n      0x00\n        /* \"#utility.yul\":6041:6129   */\n      mstore\n        /* \"#utility.yul\":6148:6152   */\n      0x22\n        /* \"#utility.yul\":6145:6146   */\n      0x04\n        /* \"#utility.yul\":6138:6153   */\n      mstore\n        /* \"#utility.yul\":6172:6176   */\n      0x24\n        /* \"#utility.yul\":6169:6170   */\n      0x00\n        /* \"#utility.yul\":6162:6177   */\n      revert\n        /* \"#utility.yul\":6189:6509   */\n    tag_83:\n        /* \"#utility.yul\":6233:6239   */\n      0x00\n        /* \"#utility.yul\":6270:6271   */\n      0x02\n        /* \"#utility.yul\":6264:6268   */\n      dup3\n        /* \"#utility.yul\":6260:6272   */\n      div\n        /* \"#utility.yul\":6250:6272   */\n      swap1\n      pop\n        /* \"#utility.yul\":6317:6318   */\n      0x01\n        /* \"#utility.yul\":6311:6315   */\n      dup3\n        /* \"#utility.yul\":6307:6319   */\n      and\n        /* \"#utility.yul\":6338:6356   */\n      dup1\n        /* \"#utility.yul\":6328:6409   */\n      tag_304\n      jumpi\n        /* \"#utility.yul\":6394:6398   */\n      0x7f\n        /* \"#utility.yul\":6386:6392   */\n      dup3\n        /* \"#utility.yul\":6382:6399   */\n      and\n        /* \"#utility.yul\":6372:6399   */\n      swap2\n      pop\n        /* \"#utility.yul\":6328:6409   */\n    tag_304:\n        /* \"#utility.yul\":6456:6458   */\n      0x20\n        /* \"#utility.yul\":6448:6454   */\n      dup3\n        /* \"#utility.yul\":6445:6459   */\n      lt\n        /* \"#utility.yul\":6425:6443   */\n      dup2\n        /* \"#utility.yul\":6422:6460   */\n      sub\n        /* \"#utility.yul\":6419:6503   */\n      tag_305\n      jumpi\n        /* \"#utility.yul\":6475:6493   */\n      tag_306\n      tag_215\n      jump\t// in\n    tag_306:\n        /* \"#utility.yul\":6419:6503   */\n    tag_305:\n        /* \"#utility.yul\":6240:6509   */\n      pop\n        /* \"#utility.yul\":6189:6509   */\n      swap2\n      swap1\n      pop\n      jump\t// out\n        /* \"#utility.yul\":6515:6695   */\n    tag_216:\n        /* \"#utility.yul\":6563:6640   */\n      0x4e487b7100000000000000000000000000000000000000000000000000000000\n        /* \"#utility.yul\":6560:6561   */\n      0x00\n        /* \"#utility.yul\":6553:6641   */\n      mstore\n        /* \"#utility.yul\":6660:6664   */\n      0x11\n        /* \"#utility.yul\":6657:6658   */\n      0x04\n        /* \"#utility.yul\":6650:6665   */\n      mstore\n        /* \"#utility.yul\":6684:6688   */\n      0x24\n        /* \"#utility.yul\":6681:6682   */\n      0x00\n        /* \"#utility.yul\":6674:6689   */\n      revert\n        /* \"#utility.yul\":6701:6892   */\n    tag_106:\n        /* \"#utility.yul\":6741:6744   */\n      0x00\n        /* \"#utility.yul\":6760:6780   */\n      tag_309\n        /* \"#utility.yul\":6778:6779   */\n      dup3\n        /* \"#utility.yul\":6760:6780   */\n      tag_207\n      jump\t// in\n    tag_309:\n        /* \"#utility.yul\":6755:6780   */\n      swap2\n      pop\n        /* \"#utility.yul\":6794:6814   */\n      tag_310\n        /* \"#utility.yul\":6812:6813   */\n      dup4\n        /* \"#utility.yul\":6794:6814   */\n      tag_207\n      jump\t// in\n    tag_310:\n        /* \"#utility.yul\":6789:6814   */\n      swap3\n      pop\n        /* \"#utility.yul\":6837:6838   */\n      dup3\n        /* \"#utility.yul\":6834:6835   */\n      dup3\n        /* \"#utility.yul\":6830:6839   */\n      add\n        /* \"#utility.yul\":6823:6839   */\n      swap1\n      pop\n        /* \"#utility.yul\":6858:6861   */\n      dup1\n        /* \"#utility.yul\":6855:6856   */\n      dup3\n        /* \"#utility.yul\":6852:6862   */\n      gt\n        /* \"#utility.yul\":6849:6885   */\n      iszero\n      tag_311\n      jumpi\n        /* \"#utility.yul\":6865:6883   */\n      tag_312\n      tag_216\n      jump\t// in\n    tag_312:\n        /* \"#utility.yul\":6849:6885   */\n    tag_311:\n        /* \"#utility.yul\":6701:6892   */\n      swap3\n      swap2\n      pop\n      pop\n      jump\t// out\n        /* \"#utility.yul\":6898:7122   */\n    tag_217:\n        /* \"#utility.yul\":7038:7072   */\n      0x45524332303a2064656372656173656420616c6c6f77616e63652062656c6f77\n        /* \"#utility.yul\":7034:7035   */\n      0x00\n        /* \"#utility.yul\":7026:7032   */\n      dup3\n        /* \"#utility.yul\":7022:7036   */\n      add\n        /* \"#utility.yul\":7015:7073   */\n      mstore\n        /* \"#utility.yul\":7107:7114   */\n      0x207a65726f000000000000000000000000000000000000000000000000000000\n        /* \"#utility.yul\":7102:7104   */\n      0x20\n        /* \"#utility.yul\":7094:7100   */\n      dup3\n        /* \"#utility.yul\":7090:7105   */\n      add\n        /* \"#utility.yul\":7083:7115   */\n      mstore\n        /* \"#utility.yul\":6898:7122   */\n      pop\n      jump\t// out\n        /* \"#utility.yul\":7128:7494   */\n    tag_218:\n        /* \"#utility.yul\":7270:7273   */\n      0x00\n        /* \"#utility.yul\":7291:7358   */\n      tag_315\n        /* \"#utility.yul\":7355:7357   */\n      0x25\n        /* \"#utility.yul\":7350:7353   */\n      dup4\n        /* \"#utility.yul\":7291:7358   */\n      tag_196\n      jump\t// in\n    tag_315:\n        /* \"#utility.yul\":7284:7358   */\n      swap2\n      pop\n        /* \"#utility.yul\":7367:7460   */\n      tag_316\n        /* \"#utility.yul\":7456:7459   */\n      dup3\n        /* \"#utility.yul\":7367:7460   */\n      tag_217\n      jump\t// in\n    tag_316:\n        /* \"#utility.yul\":7485:7487   */\n      0x40\n        /* \"#utility.yul\":7480:7483   */\n      dup3\n        /* \"#utility.yul\":7476:7488   */\n      add\n        /* \"#utility.yul\":7469:7488   */\n      swap1\n      pop\n        /* \"#utility.yul\":7128:7494   */\n      swap2\n      swap1\n      pop\n      jump\t// out\n        /* \"#utility.yul\":7500:7919   */\n    tag_126:\n        /* \"#utility.yul\":7666:7670   */\n      0x00\n        /* \"#utility.yul\":7704:7706   */\n      0x20\n        /* \"#utility.yul\":7693:7702   */\n      dup3\n        /* \"#utility.yul\":7689:7707   */\n      add\n        /* \"#utility.yul\":7681:7707   */\n      swap1\n      pop\n        /* \"#utility.yul\":7753:7762   */\n      dup2\n        /* \"#utility.yul\":7747:7751   */\n      dup2\n        /* \"#utility.yul\":7743:7763   */\n      sub\n        /* \"#utility.yul\":7739:7740   */\n      0x00\n        /* \"#utility.yul\":7728:7737   */\n      dup4\n        /* \"#utility.yul\":7724:7741   */\n      add\n        /* \"#utility.yul\":7717:7764   */\n      mstore\n        /* \"#utility.yul\":7781:7912   */\n      tag_318\n        /* \"#utility.yul\":7907:7911   */\n      dup2\n        /* \"#utility.yul\":7781:7912   */\n      tag_218\n      jump\t// in\n    tag_318:\n        /* \"#utility.yul\":7773:7912   */\n      swap1\n      pop\n        /* \"#utility.yul\":7500:7919   */\n      swap2\n      swap1\n      pop\n      jump\t// out\n        /* \"#utility.yul\":7925:8148   */\n    tag_219:\n        /* \"#utility.yul\":8065:8099   */\n      0x45524332303a20617070726f76652066726f6d20746865207a65726f20616464\n        /* \"#utility.yul\":8061:8062   */\n      0x00\n        /* \"#utility.yul\":8053:8059   */\n      dup3\n        /* \"#utility.yul\":8049:8063   */\n      add\n        /* \"#utility.yul\":8042:8100   */\n      mstore\n        /* \"#utility.yul\":8134:8140   */\n      0x7265737300000000000000000000000000000000000000000000000000000000\n        /* \"#utility.yul\":8129:8131   */\n      0x20\n        /* \"#utility.yul\":8121:8127   */\n      dup3\n        /* \"#utility.yul\":8117:8132   */\n      add\n        /* \"#utility.yul\":8110:8141   */\n      mstore\n        /* \"#utility.yul\":7925:8148   */\n      pop\n      jump\t// out\n        /* \"#utility.yul\":8154:8520   */\n    tag_220:\n        /* \"#utility.yul\":8296:8299   */\n      0x00\n        /* \"#utility.yul\":8317:8384   */\n      tag_321\n        /* \"#utility.yul\":8381:8383   */\n      0x24\n        /* \"#utility.yul\":8376:8379   */\n      dup4\n        /* \"#utility.yul\":8317:8384   */\n      tag_196\n      jump\t// in\n    tag_321:\n        /* \"#utility.yul\":8310:8384   */\n      swap2\n      pop\n        /* \"#utility.yul\":8393:8486   */\n      tag_322\n        /* \"#utility.yul\":8482:8485   */\n      dup3\n        /* \"#utility.yul\":8393:8486   */\n      tag_219\n      jump\t// in\n    tag_322:\n        /* \"#utility.yul\":8511:8513   */\n      0x40\n        /* \"#utility.yul\":8506:8509   */\n      dup3\n        /* \"#utility.yul\":8502:8514   */\n      add\n        /* \"#utility.yul\":8495:8514   */\n      swap1\n      pop\n        /* \"#utility.yul\":8154:8520   */\n      swap2\n      swap1\n      pop\n      jump\t// out\n        /* \"#utility.yul\":8526:8945   */\n    tag_154:\n        /* \"#utility.yul\":8692:8696   */\n      0x00\n        /* \"#utility.yul\":8730:8732   */\n      0x20\n        /* \"#utility.yul\":8719:8728   */\n      dup3\n        /* \"#utility.yul\":8715:8733   */\n      add\n        /* \"#utility.yul\":8707:8733   */\n      swap1\n      pop\n        /* \"#utility.yul\":8779:8788   */\n      dup2\n        /* \"#utility.yul\":8773:8777   */\n      dup2\n        /* \"#utility.yul\":8769:8789   */\n      sub\n        /* \"#utility.yul\":8765:8766   */\n      0x00\n        /* \"#utility.yul\":8754:8763   */\n      dup4\n        /* \"#utility.yul\":8750:8767   */\n      add\n        /* \"#utility.yul\":8743:8790   */\n      mstore\n        /* \"#utility.yul\":8807:8938   */\n      tag_324\n        /* \"#utility.yul\":8933:8937   */\n      dup2\n        /* \"#utility.yul\":8807:8938   */\n      tag_220\n      jump\t// in\n    tag_324:\n        /* \"#utility.yul\":8799:8938   */\n      swap1\n      pop\n        /* \"#utility.yul\":8526:8945   */\n      swap2\n      swap1\n      pop\n      jump\t// out\n        /* \"#utility.yul\":8951:9172   */\n    tag_221:\n        /* \"#utility.yul\":9091:9125   */\n      0x45524332303a20617070726f766520746f20746865207a65726f206164647265\n        /* \"#utility.yul\":9087:9088   */\n      0x00\n        /* \"#utility.yul\":9079:9085   */\n      dup3\n        /* \"#utility.yul\":9075:9089   */\n      add\n        /* \"#utility.yul\":9068:9126   */\n      mstore\n        /* \"#utility.yul\":9160:9164   */\n      0x7373000000000000000000000000000000000000000000000000000000000000\n        /* \"#utility.yul\":9155:9157   */\n      0x20\n        /* \"#utility.yul\":9147:9153   */\n      dup3\n        /* \"#utility.yul\":9143:9158   */\n      add\n        /* \"#utility.yul\":9136:9165   */\n      mstore\n        /* \"#utility.yul\":8951:9172   */\n      pop\n      jump\t// out\n        /* \"#utility.yul\":9178:9544   */\n    tag_222:\n        /* \"#utility.yul\":9320:9323   */\n      0x00\n        /* \"#utility.yul\":9341:9408   */\n      tag_327\n        /* \"#utility.yul\":9405:9407   */\n      0x22\n        /* \"#utility.yul\":9400:9403   */\n      dup4\n        /* \"#utility.yul\":9341:9408   */\n      tag_196\n      jump\t// in\n    tag_327:\n        /* \"#utility.yul\":9334:9408   */\n      swap2\n      pop\n        /* \"#utility.yul\":9417:9510   */\n      tag_328\n        /* \"#utility.yul\":9506:9509   */\n      dup3\n        /* \"#utility.yul\":9417:9510   */\n      tag_221\n      jump\t// in\n    tag_328:\n        /* \"#utility.yul\":9535:9537   */\n      0x40\n        /* \"#utility.yul\":9530:9533   */\n      dup3\n        /* \"#utility.yul\":9526:9538   */\n      add\n        /* \"#utility.yul\":9519:9538   */\n      swap1\n      pop\n        /* \"#utility.yul\":9178:9544   */\n      swap2\n      swap1\n      pop\n      jump\t// out\n        /* \"#utility.yul\":9550:9969   */\n    tag_157:\n        /* \"#utility.yul\":9716:9720   */\n      0x00\n        /* \"#utility.yul\":9754:9756   */\n      0x20\n        /* \"#utility.yul\":9743:9752   */\n      dup3\n        /* \"#utility.yul\":9739:9757   */\n      add\n        /* \"#utility.yul\":9731:9757   */\n      swap1\n      pop\n        /* \"#utility.yul\":9803:9812   */\n      dup2\n        /* \"#utility.yul\":9797:9801   */\n      dup2\n        /* \"#utility.yul\":9793:9813   */\n      sub\n        /* \"#utility.yul\":9789:9790   */\n      0x00\n        /* \"#utility.yul\":9778:9787   */\n      dup4\n        /* \"#utility.yul\":9774:9791   */\n      add\n        /* \"#utility.yul\":9767:9814   */\n      mstore\n        /* \"#utility.yul\":9831:9962   */\n      tag_330\n        /* \"#utility.yul\":9957:9961   */\n      dup2\n        /* \"#utility.yul\":9831:9962   */\n      tag_222\n      jump\t// in\n    tag_330:\n        /* \"#utility.yul\":9823:9962   */\n      swap1\n      pop\n        /* \"#utility.yul\":9550:9969   */\n      swap2\n      swap1\n      pop\n      jump\t// out\n        /* \"#utility.yul\":9975:10154   */\n    tag_223:\n        /* \"#utility.yul\":10115:10146   */\n      0x45524332303a20696e73756666696369656e7420616c6c6f77616e6365000000\n        /* \"#utility.yul\":10111:10112   */\n      0x00\n        /* \"#utility.yul\":10103:10109   */\n      dup3\n        /* \"#utility.yul\":10099:10113   */\n      add\n        /* \"#utility.yul\":10092:10147   */\n      mstore\n        /* \"#utility.yul\":9975:10154   */\n      pop\n      jump\t// out\n        /* \"#utility.yul\":10160:10526   */\n    tag_224:\n        /* \"#utility.yul\":10302:10305   */\n      0x00\n        /* \"#utility.yul\":10323:10390   */\n      tag_333\n        /* \"#utility.yul\":10387:10389   */\n      0x1d\n        /* \"#utility.yul\":10382:10385   */\n      dup4\n        /* \"#utility.yul\":10323:10390   */\n      tag_196\n      jump\t// in\n    tag_333:\n        /* \"#utility.yul\":10316:10390   */\n      swap2\n      pop\n        /* \"#utility.yul\":10399:10492   */\n      tag_334\n        /* \"#utility.yul\":10488:10491   */\n      dup3\n        /* \"#utility.yul\":10399:10492   */\n      tag_223\n      jump\t// in\n    tag_334:\n        /* \"#utility.yul\":10517:10519   */\n      0x20\n        /* \"#utility.yul\":10512:10515   */\n      dup3\n        /* \"#utility.yul\":10508:10520   */\n      add\n        /* \"#utility.yul\":10501:10520   */\n      swap1\n      pop\n        /* \"#utility.yul\":10160:10526   */\n      swap2\n      swap1\n      pop\n      jump\t// out\n        /* \"#utility.yul\":10532:10951   */\n    tag_164:\n        /* \"#utility.yul\":10698:10702   */\n      0x00\n        /* \"#utility.yul\":10736:10738   */\n      0x20\n        /* \"#utility.yul\":10725:10734   */\n      dup3\n        /* \"#utility.yul\":10721:10739   */\n      add\n        /* \"#utility.yul\":10713:10739   */\n      swap1\n      pop\n        /* \"#utility.yul\":10785:10794   */\n      dup2\n        /* \"#utility.yul\":10779:10783   */\n      dup2\n        /* \"#utility.yul\":10775:10795   */\n      sub\n        /* \"#utility.yul\":10771:10772   */\n      0x00\n        /* \"#utility.yul\":10760:10769   */\n      dup4\n        /* \"#utility.yul\":10756:10773   */\n      add\n        /* \"#utility.yul\":10749:10796   */\n      mstore\n        /* \"#utility.yul\":10813:10944   */\n      tag_336\n        /* \"#utility.yul\":10939:10943   */\n      dup2\n        /* \"#utility.yul\":10813:10944   */\n      tag_224\n      jump\t// in\n    tag_336:\n        /* \"#utility.yul\":10805:10944   */\n      swap1\n      pop\n        /* \"#utility.yul\":10532:10951   */\n      swap2\n      swap1\n      pop\n      jump\t// out\n        /* \"#utility.yul\":10957:11181   */\n    tag_225:\n        /* \"#utility.yul\":11097:11131   */\n      0x45524332303a207472616e736665722066726f6d20746865207a65726f206164\n        /* \"#utility.yul\":11093:11094   */\n      0x00\n        /* \"#utility.yul\":11085:11091   */\n      dup3\n        /* \"#utility.yul\":11081:11095   */\n      add\n        /* \"#utility.yul\":11074:11132   */\n      mstore\n        /* \"#utility.yul\":11166:11173   */\n      0x6472657373000000000000000000000000000000000000000000000000000000\n        /* \"#utility.yul\":11161:11163   */\n      0x20\n        /* \"#utility.yul\":11153:11159   */\n      dup3\n        /* \"#utility.yul\":11149:11164   */\n      add\n        /* \"#utility.yul\":11142:11174   */\n      mstore\n        /* \"#utility.yul\":10957:11181   */\n      pop\n      jump\t// out\n        /* \"#utility.yul\":11187:11553   */\n    tag_226:\n        /* \"#utility.yul\":11329:11332   */\n      0x00\n        /* \"#utility.yul\":11350:11417   */\n      tag_339\n        /* \"#utility.yul\":11414:11416   */\n      0x25\n        /* \"#utility.yul\":11409:11412   */\n      dup4\n        /* \"#utility.yul\":11350:11417   */\n      tag_196\n      jump\t// in\n    tag_339:\n        /* \"#utility.yul\":11343:11417   */\n      swap2\n      pop\n        /* \"#utility.yul\":11426:11519   */\n      tag_340\n        /* \"#utility.yul\":11515:11518   */\n      dup3\n        /* \"#utility.yul\":11426:11519   */\n      tag_225\n      jump\t// in\n    tag_340:\n        /* \"#utility.yul\":11544:11546   */\n      0x40\n        /* \"#utility.yul\":11539:11542   */\n      dup3\n        /* \"#utility.yul\":11535:11547   */\n      add\n        /* \"#utility.yul\":11528:11547   */\n      swap1\n      pop\n        /* \"#utility.yul\":11187:11553   */\n      swap2\n      swap1\n      pop\n      jump\t// out\n        /* \"#utility.yul\":11559:11978   */\n    tag_169:\n        /* \"#utility.yul\":11725:11729   */\n      0x00\n        /* \"#utility.yul\":11763:11765   */\n      0x20\n        /* \"#utility.yul\":11752:11761   */\n      dup3\n        /* \"#utility.yul\":11748:11766   */\n      add\n        /* \"#utility.yul\":11740:11766   */\n      swap1\n      pop\n        /* \"#utility.yul\":11812:11821   */\n      dup2\n        /* \"#utility.yul\":11806:11810   */\n      dup2\n        /* \"#utility.yul\":11802:11822   */\n      sub\n        /* \"#utility.yul\":11798:11799   */\n      0x00\n        /* \"#utility.yul\":11787:11796   */\n      dup4\n        /* \"#utility.yul\":11783:11800   */\n      add\n        /* \"#utility.yul\":11776:11823   */\n      mstore\n        /* \"#utility.yul\":11840:11971   */\n      tag_342\n        /* \"#utility.yul\":11966:11970   */\n      dup2\n        /* \"#utility.yul\":11840:11971   */\n      tag_226\n      jump\t// in\n    tag_342:\n        /* \"#utility.yul\":11832:11971   */\n      swap1\n      pop\n        /* \"#utility.yul\":11559:11978   */\n      swap2\n      swap1\n      pop\n      jump\t// out\n        /* \"#utility.yul\":11984:12206   */\n    tag_227:\n        /* \"#utility.yul\":12124:12158   */\n      0x45524332303a207472616e7366657220746f20746865207a65726f2061646472\n        /* \"#utility.yul\":12120:12121   */\n      0x00\n        /* \"#utility.yul\":12112:12118   */\n      dup3\n        /* \"#utility.yul\":12108:12122   */\n      add\n        /* \"#utility.yul\":12101:12159   */\n      mstore\n        /* \"#utility.yul\":12193:12198   */\n      0x6573730000000000000000000000000000000000000000000000000000000000\n        /* \"#utility.yul\":12188:12190   */\n      0x20\n        /* \"#utility.yul\":12180:12186   */\n      dup3\n        /* \"#utility.yul\":12176:12191   */\n      add\n        /* \"#utility.yul\":12169:12199   */\n      mstore\n        /* \"#utility.yul\":11984:12206   */\n      pop\n      jump\t// out\n        /* \"#utility.yul\":12212:12578   */\n    tag_228:\n        /* \"#utility.yul\":12354:12357   */\n      0x00\n        /* \"#utility.yul\":12375:12442   */\n      tag_345\n        /* \"#utility.yul\":12439:12441   */\n      0x23\n        /* \"#utility.yul\":12434:12437   */\n      dup4\n        /* \"#utility.yul\":12375:12442   */\n      tag_196\n      jump\t// in\n    tag_345:\n        /* \"#utility.yul\":12368:12442   */\n      swap2\n      pop\n        /* \"#utility.yul\":12451:12544   */\n      tag_346\n        /* \"#utility.yul\":12540:12543   */\n      dup3\n        /* \"#utility.yul\":12451:12544   */\n      tag_227\n      jump\t// in\n    tag_346:\n        /* \"#utility.yul\":12569:12571   */\n      0x40\n        /* \"#utility.yul\":12564:12567   */\n      dup3\n        /* \"#utility.yul\":12560:12572   */\n      add\n        /* \"#utility.yul\":12553:12572   */\n      swap1\n      pop\n        /* \"#utility.yul\":12212:12578   */\n      swap2\n      swap1\n      pop\n      jump\t// out\n        /* \"#utility.yul\":12584:13003   */\n    tag_172:\n        /* \"#utility.yul\":12750:12754   */\n      0x00\n        /* \"#utility.yul\":12788:12790   */\n      0x20\n        /* \"#utility.yul\":12777:12786   */\n      dup3\n        /* \"#utility.yul\":12773:12791   */\n      add\n        /* \"#utility.yul\":12765:12791   */\n      swap1\n      pop\n        /* \"#utility.yul\":12837:12846   */\n      dup2\n        /* \"#utility.yul\":12831:12835   */\n      dup2\n        /* \"#utility.yul\":12827:12847   */\n      sub\n        /* \"#utility.yul\":12823:12824   */\n      0x00\n        /* \"#utility.yul\":12812:12821   */\n      dup4\n        /* \"#utility.yul\":12808:12825   */\n      add\n        /* \"#utility.yul\":12801:12848   */\n      mstore\n        /* \"#utility.yul\":12865:12996   */\n      tag_348\n        /* \"#utility.yul\":12991:12995   */\n      dup2\n        /* \"#utility.yul\":12865:12996   */\n      tag_228\n      jump\t// in\n    tag_348:\n        /* \"#utility.yul\":12857:12996   */\n      swap1\n      pop\n        /* \"#utility.yul\":12584:13003   */\n      swap2\n      swap1\n      pop\n      jump\t// out\n        /* \"#utility.yul\":13009:13234   */\n    tag_229:\n        /* \"#utility.yul\":13149:13183   */\n      0x45524332303a207472616e7366657220616d6f756e7420657863656564732062\n        /* \"#utility.yul\":13145:13146   */\n      0x00\n        /* \"#utility.yul\":13137:13143   */\n      dup3\n        /* \"#utility.yul\":13133:13147   */\n      add\n        /* \"#utility.yul\":13126:13184   */\n      mstore\n        /* \"#utility.yul\":13218:13226   */\n      0x616c616e63650000000000000000000000000000000000000000000000000000\n        /* \"#utility.yul\":13213:13215   */\n      0x20\n        /* \"#utility.yul\":13205:13211   */\n      dup3\n        /* \"#utility.yul\":13201:13216   */\n      add\n        /* \"#utility.yul\":13194:13227   */\n      mstore\n        /* \"#utility.yul\":13009:13234   */\n      pop\n      jump\t// out\n        /* \"#utility.yul\":13240:13606   */\n    tag_230:\n        /* \"#utility.yul\":13382:13385   */\n      0x00\n        /* \"#utility.yul\":13403:13470   */\n      tag_351\n        /* \"#utility.yul\":13467:13469   */\n      0x26\n        /* \"#utility.yul\":13462:13465   */\n      dup4\n        /* \"#utility.yul\":13403:13470   */\n      tag_196\n      jump\t// in\n    tag_351:\n        /* \"#utility.yul\":13396:13470   */\n      swap2\n      pop\n        /* \"#utility.yul\":13479:13572   */\n      tag_352\n        /* \"#utility.yul\":13568:13571   */\n      dup3\n        /* \"#utility.yul\":13479:13572   */\n      tag_229\n      jump\t// in\n    tag_352:\n        /* \"#utility.yul\":13597:13599   */\n      0x40\n        /* \"#utility.yul\":13592:13595   */\n      dup3\n        /* \"#utility.yul\":13588:13600   */\n      add\n        /* \"#utility.yul\":13581:13600   */\n      swap1\n      pop\n        /* \"#utility.yul\":13240:13606   */\n      swap2\n      swap1\n      pop\n      jump\t// out\n        /* \"#utility.yul\":13612:14031   */\n    tag_177:\n        /* \"#utility.yul\":13778:13782   */\n      0x00\n        /* \"#utility.yul\":13816:13818   */\n      0x20\n        /* \"#utility.yul\":13805:13814   */\n      dup3\n        /* \"#utility.yul\":13801:13819   */\n      add\n        /* \"#utility.yul\":13793:13819   */\n      swap1\n      pop\n        /* \"#utility.yul\":13865:13874   */\n      dup2\n        /* \"#utility.yul\":13859:13863   */\n      dup2\n        /* \"#utility.yul\":13855:13875   */\n      sub\n        /* \"#utility.yul\":13851:13852   */\n      0x00\n        /* \"#utility.yul\":13840:13849   */\n      dup4\n        /* \"#utility.yul\":13836:13853   */\n      add\n        /* \"#utility.yul\":13829:13876   */\n      mstore\n        /* \"#utility.yul\":13893:14024   */\n      tag_354\n        /* \"#utility.yul\":14019:14023   */\n      dup2\n        /* \"#utility.yul\":13893:14024   */\n      tag_230\n      jump\t// in\n    tag_354:\n        /* \"#utility.yul\":13885:14024   */\n      swap1\n      pop\n        /* \"#utility.yul\":13612:14031   */\n      swap2\n      swap1\n      pop\n      jump\t// out\n        /* \"#utility.yul\":14037:14447   */\n    tag_184:\n        /* \"#utility.yul\":14077:14084   */\n      0x00\n        /* \"#utility.yul\":14100:14120   */\n      tag_356\n        /* \"#utility.yul\":14118:14119   */\n      dup3\n        /* \"#utility.yul\":14100:14120   */\n      tag_207\n      jump\t// in\n    tag_356:\n        /* \"#utility.yul\":14095:14120   */\n      swap2\n      pop\n        /* \"#utility.yul\":14134:14154   */\n      tag_357\n        /* \"#utility.yul\":14152:14153   */\n      dup4\n        /* \"#utility.yul\":14134:14154   */\n      tag_207\n      jump\t// in\n    tag_357:\n        /* \"#utility.yul\":14129:14154   */\n      swap3\n      pop\n        /* \"#utility.yul\":14189:14190   */\n      dup3\n        /* \"#utility.yul\":14186:14187   */\n      dup3\n        /* \"#utility.yul\":14182:14191   */\n      mul\n        /* \"#utility.yul\":14211:14241   */\n      tag_358\n        /* \"#utility.yul\":14229:14240   */\n      dup2\n        /* \"#utility.yul\":14211:14241   */\n      tag_207\n      jump\t// in\n    tag_358:\n        /* \"#utility.yul\":14200:14241   */\n      swap2\n      pop\n        /* \"#utility.yul\":14390:14391   */\n      dup3\n        /* \"#utility.yul\":14381:14388   */\n      dup3\n        /* \"#utility.yul\":14377:14392   */\n      div\n        /* \"#utility.yul\":14374:14375   */\n      dup5\n        /* \"#utility.yul\":14371:14393   */\n      eq\n        /* \"#utility.yul\":14351:14352   */\n      dup4\n        /* \"#utility.yul\":14344:14353   */\n      iszero\n        /* \"#utility.yul\":14324:14407   */\n      or\n        /* \"#utility.yul\":14301:14440   */\n      tag_359\n      jumpi\n        /* \"#utility.yul\":14420:14438   */\n      tag_360\n      tag_216\n      jump\t// in\n    tag_360:\n        /* \"#utility.yul\":14301:14440   */\n    tag_359:\n        /* \"#utility.yul\":14085:14447   */\n      pop\n        /* \"#utility.yul\":14037:14447   */\n      swap3\n      swap2\n      pop\n      pop\n      jump\t// out\n        /* \"#utility.yul\":14453:14633   */\n    tag_231:\n        /* \"#utility.yul\":14501:14578   */\n      0x4e487b7100000000000000000000000000000000000000000000000000000000\n        /* \"#utility.yul\":14498:14499   */\n      0x00\n        /* \"#utility.yul\":14491:14579   */\n      mstore\n        /* \"#utility.yul\":14598:14602   */\n      0x12\n        /* \"#utility.yul\":14595:14596   */\n      0x04\n        /* \"#utility.yul\":14588:14603   */\n      mstore\n        /* \"#utility.yul\":14622:14626   */\n      0x24\n        /* \"#utility.yul\":14619:14620   */\n      0x00\n        /* \"#utility.yul\":14612:14627   */\n      revert\n        /* \"#utility.yul\":14639:14824   */\n    tag_187:\n        /* \"#utility.yul\":14679:14680   */\n      0x00\n        /* \"#utility.yul\":14696:14716   */\n      tag_363\n        /* \"#utility.yul\":14714:14715   */\n      dup3\n        /* \"#utility.yul\":14696:14716   */\n      tag_207\n      jump\t// in\n    tag_363:\n        /* \"#utility.yul\":14691:14716   */\n      swap2\n      pop\n        /* \"#utility.yul\":14730:14750   */\n      tag_364\n        /* \"#utility.yul\":14748:14749   */\n      dup4\n        /* \"#utility.yul\":14730:14750   */\n      tag_207\n      jump\t// in\n    tag_364:\n        /* \"#utility.yul\":14725:14750   */\n      swap3\n      pop\n        /* \"#utility.yul\":14769:14770   */\n      dup3\n        /* \"#utility.yul\":14759:14794   */\n      tag_365\n      jumpi\n        /* \"#utility.yul\":14774:14792   */\n      tag_366\n      tag_231\n      jump\t// in\n    tag_366:\n        /* \"#utility.yul\":14759:14794   */\n    tag_365:\n        /* \"#utility.yul\":14816:14817   */\n      dup3\n        /* \"#utility.yul\":14813:14814   */\n      dup3\n        /* \"#utility.yul\":14809:14818   */\n      div\n        /* \"#utility.yul\":14804:14818   */\n      swap1\n      pop\n        /* \"#utility.yul\":14639:14824   */\n      swap3\n      swap2\n      pop\n      pop\n      jump\t// out\n        /* \"#utility.yul\":14830:15024   */\n    tag_190:\n        /* \"#utility.yul\":14870:14874   */\n      0x00\n        /* \"#utility.yul\":14890:14910   */\n      tag_368\n        /* \"#utility.yul\":14908:14909   */\n      dup3\n        /* \"#utility.yul\":14890:14910   */\n      tag_207\n      jump\t// in\n    tag_368:\n        /* \"#utility.yul\":14885:14910   */\n      swap2\n      pop\n        /* \"#utility.yul\":14924:14944   */\n      tag_369\n        /* \"#utility.yul\":14942:14943   */\n      dup4\n        /* \"#utility.yul\":14924:14944   */\n      tag_207\n      jump\t// in\n    tag_369:\n        /* \"#utility.yul\":14919:14944   */\n      swap3\n      pop\n        /* \"#utility.yul\":14968:14969   */\n      dup3\n        /* \"#utility.yul\":14965:14966   */\n      dup3\n        /* \"#utility.yul\":14961:14970   */\n      sub\n        /* \"#utility.yul\":14953:14970   */\n      swap1\n      pop\n        /* \"#utility.yul\":14992:14993   */\n      dup2\n        /* \"#utility.yul\":14986:14990   */\n      dup2\n        /* \"#utility.yul\":14983:14994   */\n      gt\n        /* \"#utility.yul\":14980:15017   */\n      iszero\n      tag_370\n      jumpi\n        /* \"#utility.yul\":14997:15015   */\n      tag_371\n      tag_216\n      jump\t// in\n    tag_371:\n        /* \"#utility.yul\":14980:15017   */\n    tag_370:\n        /* \"#utility.yul\":14830:15024   */\n      swap3\n      swap2\n      pop\n      pop\n      jump\t// out\n\n    auxdata: 0xa2646970667358221220f6635bccffd541af443eb472371aff355e205f58c6e538b5cf1cc1709a67248f64736f6c63430008110033\n}\n",
				"bytecode": {
					"linkReferences": {},
					"object": "60806040523480156200001157600080fd5b5060405162001cbf38038062001cbf83398181016040528101906200003791906200020c565b8160059081620000489190620004dc565b5080600690816200005a9190620004dc565b50674563918244f40000600381905550436004819055505050620005c3565b6000604051905090565b600080fd5b600080fd5b600080fd5b600080fd5b6000601f19601f8301169050919050565b7f4e487b7100000000000000000000000000000000000000000000000000000000600052604160045260246000fd5b620000e28262000097565b810181811067ffffffffffffffff82111715620001045762000103620000a8565b5b80604052505050565b60006200011962000079565b9050620001278282620000d7565b919050565b600067ffffffffffffffff8211156200014a5762000149620000a8565b5b620001558262000097565b9050602081019050919050565b60005b838110156200018257808201518184015260208101905062000165565b60008484015250505050565b6000620001a56200019f846200012c565b6200010d565b905082815260208101848484011115620001c457620001c362000092565b5b620001d184828562000162565b509392505050565b600082601f830112620001f157620001f06200008d565b5b8151620002038482602086016200018e565b91505092915050565b6000806040838503121562000226576200022562000083565b5b600083015167ffffffffffffffff81111562000247576200024662000088565b5b6200025585828601620001d9565b925050602083015167ffffffffffffffff81111562000279576200027862000088565b5b6200028785828601620001d9565b9150509250929050565b600081519050919050565b7f4e487b7100000000000000000000000000000000000000000000000000000000600052602260045260246000fd5b60006002820490506001821680620002e457607f821691505b602082108103620002fa57620002f96200029c565b5b50919050565b60008190508160005260206000209050919050565b60006020601f8301049050919050565b600082821b905092915050565b600060088302620003647fffffffffffffffffffffffffffffffffffffffffffffffffffffffffffffffff8262000325565b62000370868362000325565b95508019841693508086168417925050509392505050565b6000819050919050565b6000819050919050565b6000620003bd620003b7620003b18462000388565b62000392565b62000388565b9050919050565b6000819050919050565b620003d9836200039c565b620003f1620003e882620003c4565b84845462000332565b825550505050565b600090565b62000408620003f9565b62000415818484620003ce565b505050565b5b818110156200043d5762000431600082620003fe565b6001810190506200041b565b5050565b601f8211156200048c57620004568162000300565b620004618462000315565b8101602085101562000471578190505b62000489620004808562000315565b8301826200041a565b50505b505050565b600082821c905092915050565b6000620004b16000198460080262000491565b1980831691505092915050565b6000620004cc83836200049e565b9150826002028217905092915050565b620004e78262000291565b67ffffffffffffffff811115620005035762000502620000a8565b5b6200050f8254620002cb565b6200051c82828562000441565b600060209050601f8311600181146200055457600084156200053f578287015190505b6200054b8582620004be565b865550620005bb565b601f198416620005648662000300565b60005b828110156200058e5784890151825560018201915060208501945060208101905062000567565b86831015620005ae5784890151620005aa601f8916826200049e565b8355505b6001600288020188555050505b505050505050565b6116ec80620005d36000396000f3fe608060405234801561001057600080fd5b50600436106100ea5760003560e01c806370a082311161008c578063a9059cbb11610066578063a9059cbb14610287578063b8ba6007146102b7578063d993226b146102e7578063dd62ed3e14610317576100ea565b806370a082311461020957806395d89b4114610239578063a457c2d714610257576100ea565b806323b872dd116100c857806323b872dd1461015b578063313ce5671461018b57806339509351146101a95780634be3403c146101d9576100ea565b806306fdde03146100ef578063095ea7b31461010d57806318160ddd1461013d575b600080fd5b6100f7610347565b6040516101049190610ec6565b60405180910390f35b61012760048036038101906101229190610f81565b6103d9565b6040516101349190610fdc565b60405180910390f35b6101456103fc565b6040516101529190611006565b60405180910390f35b61017560048036038101906101709190611021565b610406565b6040516101829190610fdc565b60405180910390f35b610193610435565b6040516101a09190611090565b60405180910390f35b6101c360048036038101906101be9190610f81565b61043e565b6040516101d09190610fdc565b60405180910390f35b6101f360048036038101906101ee91906110ab565b610475565b6040516102009190611006565b60405180910390f35b610223600480360381019061021e91906110d8565b6104e6565b6040516102309190611006565b60405180910390f35b61024161052e565b60405161024e9190610ec6565b60405180910390f35b610271600480360381019061026c9190610f81565b6105c0565b60405161027e9190610fdc565b60405180910390f35b6102a1600480360381019061029c9190610f81565b610637565b6040516102ae9190610fdc565b60405180910390f35b6102d160048036038101906102cc91906110d8565b61065a565b6040516102de9190611006565b60405180910390f35b61030160048036038101906102fc91906110ab565b61080d565b60405161030e9190611006565b60405180910390f35b610331600480360381019061032c9190611105565b610871565b60405161033e9190611006565b60405180910390f35b60606005805461035690611174565b80601f016020809104026020016040519081016040528092919081815260200182805461038290611174565b80156103cf5780601f106103a4576101008083540402835291602001916103cf565b820191906000526020600020905b8154815290600101906020018083116103b257829003601f168201915b5050505050905090565b6000806103e46108f8565b90506103f1818585610900565b600191505092915050565b6000600254905090565b6000806104116108f8565b905061041e858285610ac9565b610429858585610b55565b60019150509392505050565b60006012905090565b6000806104496108f8565b905061046a81858561045b8589610871565b61046591906111d4565b610900565b600191505092915050565b60006004548210156104875760045491505b60006104b5760a70c3c40a64e6c51999090b65f67d9240000000000000600354610dd490919063ffffffff16565b905060006104c28461080d565b905060006104d98284610dea90919063ffffffff16565b9050809350505050919050565b60008060008373ffffffffffffffffffffffffffffffffffffffff1673ffffffffffffffffffffffffffffffffffffffff168152602001908152602001600020549050919050565b60606006805461053d90611174565b80601f016020809104026020016040519081016040528092919081815260200182805461056990611174565b80156105b65780601f1061058b576101008083540402835291602001916105b6565b820191906000526020600020905b81548152906001019060200180831161059957829003601f168201915b5050505050905090565b6000806105cb6108f8565b905060006105d98286610871565b90508381101561061e576040517f08c379a00000000000000000000000000000000000000000000000000000000081526004016106159061127a565b60405180910390fd5b61062b8286868403610900565b60019250505092915050565b6000806106426108f8565b905061064f818585610b55565b600191505092915050565b6000806106c1600760008573ffffffffffffffffffffffffffffffffffffffff1673ffffffffffffffffffffffffffffffffffffffff1681526020019081526020016000206000600181526020019081526020016000205443610e0090919063ffffffff16565b9050600061071f600760008673ffffffffffffffffffffffffffffffffffffffff1673ffffffffffffffffffffffffffffffffffffffff16815260200190815260200160002060006001815260200190815260200160002054610475565b9050600061072c43610475565b90506000610768600261075a8661074c8688610e1690919063ffffffff16565b610dd490919063ffffffff16565b610dea90919063ffffffff16565b9050600061079b60025461078d61077e8a6104e6565b85610dd490919063ffffffff16565b610dea90919063ffffffff16565b905061080181600760008a73ffffffffffffffffffffffffffffffffffffffff1673ffffffffffffffffffffffffffffffffffffffff16815260200190815260200160002060006003815260200190815260200160002054610e1690919063ffffffff16565b95505050505050919050565b60008061083f600454610831670de0b6b3a764000086610dd490919063ffffffff16565b610dea90919063ffffffff16565b9050610866816108588384610dd490919063ffffffff16565b610dd490919063ffffffff16565b905080915050919050565b6000600160008473ffffffffffffffffffffffffffffffffffffffff1673ffffffffffffffffffffffffffffffffffffffff16815260200190815260200160002060008373ffffffffffffffffffffffffffffffffffffffff1673ffffffffffffffffffffffffffffffffffffffff16815260200190815260200160002054905092915050565b600033905090565b600073ffffffffffffffffffffffffffffffffffffffff168373ffffffffffffffffffffffffffffffffffffffff160361096f576040517f08c379a00000000000000000000000000000000000000000000000000000000081526004016109669061130c565b60405180910390fd5b600073ffffffffffffffffffffffffffffffffffffffff168273ffffffffffffffffffffffffffffffffffffffff16036109de576040517f08c379a00000000000000000000000000000000000000000000000000000000081526004016109d59061139e565b60405180910390fd5b80600160008573ffffffffffffffffffffffffffffffffffffffff1673ffffffffffffffffffffffffffffffffffffffff16815260200190815260200160002060008473ffffffffffffffffffffffffffffffffffffffff1673ffffffffffffffffffffffffffffffffffffffff168152602001908152602001600020819055508173ffffffffffffffffffffffffffffffffffffffff168373ffffffffffffffffffffffffffffffffffffffff167f8c5be1e5ebec7d5bd14f71427d1e84f3dd0314c0f7b2291e5b200ac8c7c3b92583604051610abc9190611006565b60405180910390a3505050565b6000610ad58484610871565b90507fffffffffffffffffffffffffffffffffffffffffffffffffffffffffffffffff8114610b4f5781811015610b41576040517f08c379a0000000000000000000000000000000000000000000000000000000008152600401610b389061140a565b60405180910390fd5b610b4e8484848403610900565b5b50505050565b600073ffffffffffffffffffffffffffffffffffffffff168373ffffffffffffffffffffffffffffffffffffffff1603610bc4576040517f08c379a0000000000000000000000000000000000000000000000000000000008152600401610bbb9061149c565b60405180910390fd5b600073ffffffffffffffffffffffffffffffffffffffff168273ffffffffffffffffffffffffffffffffffffffff1603610c33576040517f08c379a0000000000000000000000000000000000000000000000000000000008152600401610c2a9061152e565b60405180910390fd5b610c3e838383610e2c565b60008060008573ffffffffffffffffffffffffffffffffffffffff1673ffffffffffffffffffffffffffffffffffffffff16815260200190815260200160002054905081811015610cc4576040517f08c379a0000000000000000000000000000000000000000000000000000000008152600401610cbb906115c0565b60405180910390fd5b8181036000808673ffffffffffffffffffffffffffffffffffffffff1673ffffffffffffffffffffffffffffffffffffffff16815260200190815260200160002081905550816000808573ffffffffffffffffffffffffffffffffffffffff1673ffffffffffffffffffffffffffffffffffffffff1681526020019081526020016000206000828254610d5791906111d4565b925050819055508273ffffffffffffffffffffffffffffffffffffffff168473ffffffffffffffffffffffffffffffffffffffff167fddf252ad1be2c89b69c2b068fc378daa952ba7f163c4a11628f55a4df523b3ef84604051610dbb9190611006565b60405180910390a3610dce848484610e31565b50505050565b60008183610de291906115e0565b905092915050565b60008183610df89190611651565b905092915050565b60008183610e0e9190611682565b905092915050565b60008183610e2491906111d4565b905092915050565b505050565b505050565b600081519050919050565b600082825260208201905092915050565b60005b83811015610e70578082015181840152602081019050610e55565b60008484015250505050565b6000601f19601f8301169050919050565b6000610e9882610e36565b610ea28185610e41565b9350610eb2818560208601610e52565b610ebb81610e7c565b840191505092915050565b60006020820190508181036000830152610ee08184610e8d565b905092915050565b600080fd5b600073ffffffffffffffffffffffffffffffffffffffff82169050919050565b6000610f1882610eed565b9050919050565b610f2881610f0d565b8114610f3357600080fd5b50565b600081359050610f4581610f1f565b92915050565b6000819050919050565b610f5e81610f4b565b8114610f6957600080fd5b50565b600081359050610f7b81610f55565b92915050565b60008060408385031215610f9857610f97610ee8565b5b6000610fa685828601610f36565b9250506020610fb785828601610f6c565b9150509250929050565b60008115159050919050565b610fd681610fc1565b82525050565b6000602082019050610ff16000830184610fcd565b92915050565b61100081610f4b565b82525050565b600060208201905061101b6000830184610ff7565b92915050565b60008060006060848603121561103a57611039610ee8565b5b600061104886828701610f36565b935050602061105986828701610f36565b925050604061106a86828701610f6c565b9150509250925092565b600060ff82169050919050565b61108a81611074565b82525050565b60006020820190506110a56000830184611081565b92915050565b6000602082840312156110c1576110c0610ee8565b5b60006110cf84828501610f6c565b91505092915050565b6000602082840312156110ee576110ed610ee8565b5b60006110fc84828501610f36565b91505092915050565b6000806040838503121561111c5761111b610ee8565b5b600061112a85828601610f36565b925050602061113b85828601610f36565b9150509250929050565b7f4e487b7100000000000000000000000000000000000000000000000000000000600052602260045260246000fd5b6000600282049050600182168061118c57607f821691505b60208210810361119f5761119e611145565b5b50919050565b7f4e487b7100000000000000000000000000000000000000000000000000000000600052601160045260246000fd5b60006111df82610f4b565b91506111ea83610f4b565b9250828201905080821115611202576112016111a5565b5b92915050565b7f45524332303a2064656372656173656420616c6c6f77616e63652062656c6f7760008201527f207a65726f000000000000000000000000000000000000000000000000000000602082015250565b6000611264602583610e41565b915061126f82611208565b604082019050919050565b6000602082019050818103600083015261129381611257565b9050919050565b7f45524332303a20617070726f76652066726f6d20746865207a65726f2061646460008201527f7265737300000000000000000000000000000000000000000000000000000000602082015250565b60006112f6602483610e41565b91506113018261129a565b604082019050919050565b60006020820190508181036000830152611325816112e9565b9050919050565b7f45524332303a20617070726f766520746f20746865207a65726f20616464726560008201527f7373000000000000000000000000000000000000000000000000000000000000602082015250565b6000611388602283610e41565b91506113938261132c565b604082019050919050565b600060208201905081810360008301526113b78161137b565b9050919050565b7f45524332303a20696e73756666696369656e7420616c6c6f77616e6365000000600082015250565b60006113f4601d83610e41565b91506113ff826113be565b602082019050919050565b60006020820190508181036000830152611423816113e7565b9050919050565b7f45524332303a207472616e736665722066726f6d20746865207a65726f20616460008201527f6472657373000000000000000000000000000000000000000000000000000000602082015250565b6000611486602583610e41565b91506114918261142a565b604082019050919050565b600060208201905081810360008301526114b581611479565b9050919050565b7f45524332303a207472616e7366657220746f20746865207a65726f206164647260008201527f6573730000000000000000000000000000000000000000000000000000000000602082015250565b6000611518602383610e41565b9150611523826114bc565b604082019050919050565b600060208201905081810360008301526115478161150b565b9050919050565b7f45524332303a207472616e7366657220616d6f756e742065786365656473206260008201527f616c616e63650000000000000000000000000000000000000000000000000000602082015250565b60006115aa602683610e41565b91506115b58261154e565b604082019050919050565b600060208201905081810360008301526115d98161159d565b9050919050565b60006115eb82610f4b565b91506115f683610f4b565b925082820261160481610f4b565b9150828204841483151761161b5761161a6111a5565b5b5092915050565b7f4e487b7100000000000000000000000000000000000000000000000000000000600052601260045260246000fd5b600061165c82610f4b565b915061166783610f4b565b92508261167757611676611622565b5b828204905092915050565b600061168d82610f4b565b915061169883610f4b565b92508282039050818111156116b0576116af6111a5565b5b9291505056fea2646970667358221220f6635bccffd541af443eb472371aff355e205f58c6e538b5cf1cc1709a67248f64736f6c63430008110033",
					"opcodes": "PUSH1 0x80 PUSH1 0x40 MSTORE CALLVALUE DUP1 ISZERO PUSH3 0x11 JUMPI PUSH1 0x0 DUP1 REVERT JUMPDEST POP PUSH1 0x40 MLOAD PUSH3 0x1CBF CODESIZE SUB DUP1 PUSH3 0x1CBF DUP4 CODECOPY DUP2 DUP2 ADD PUSH1 0x40 MSTORE DUP2 ADD SWAP1 PUSH3 0x37 SWAP2 SWAP1 PUSH3 0x20C JUMP JUMPDEST DUP2 PUSH1 0x5 SWAP1 DUP2 PUSH3 0x48 SWAP2 SWAP1 PUSH3 0x4DC JUMP JUMPDEST POP DUP1 PUSH1 0x6 SWAP1 DUP2 PUSH3 0x5A SWAP2 SWAP1 PUSH3 0x4DC JUMP JUMPDEST POP PUSH8 0x4563918244F40000 PUSH1 0x3 DUP2 SWAP1 SSTORE POP NUMBER PUSH1 0x4 DUP2 SWAP1 SSTORE POP POP POP PUSH3 0x5C3 JUMP JUMPDEST PUSH1 0x0 PUSH1 0x40 MLOAD SWAP1 POP SWAP1 JUMP JUMPDEST PUSH1 0x0 DUP1 REVERT JUMPDEST PUSH1 0x0 DUP1 REVERT JUMPDEST PUSH1 0x0 DUP1 REVERT JUMPDEST PUSH1 0x0 DUP1 REVERT JUMPDEST PUSH1 0x0 PUSH1 0x1F NOT PUSH1 0x1F DUP4 ADD AND SWAP1 POP SWAP2 SWAP1 POP JUMP JUMPDEST PUSH32 0x4E487B7100000000000000000000000000000000000000000000000000000000 PUSH1 0x0 MSTORE PUSH1 0x41 PUSH1 0x4 MSTORE PUSH1 0x24 PUSH1 0x0 REVERT JUMPDEST PUSH3 0xE2 DUP3 PUSH3 0x97 JUMP JUMPDEST DUP2 ADD DUP2 DUP2 LT PUSH8 0xFFFFFFFFFFFFFFFF DUP3 GT OR ISZERO PUSH3 0x104 JUMPI PUSH3 0x103 PUSH3 0xA8 JUMP JUMPDEST JUMPDEST DUP1 PUSH1 0x40 MSTORE POP POP POP JUMP JUMPDEST PUSH1 0x0 PUSH3 0x119 PUSH3 0x79 JUMP JUMPDEST SWAP1 POP PUSH3 0x127 DUP3 DUP3 PUSH3 0xD7 JUMP JUMPDEST SWAP2 SWAP1 POP JUMP JUMPDEST PUSH1 0x0 PUSH8 0xFFFFFFFFFFFFFFFF DUP3 GT ISZERO PUSH3 0x14A JUMPI PUSH3 0x149 PUSH3 0xA8 JUMP JUMPDEST JUMPDEST PUSH3 0x155 DUP3 PUSH3 0x97 JUMP JUMPDEST SWAP1 POP PUSH1 0x20 DUP2 ADD SWAP1 POP SWAP2 SWAP1 POP JUMP JUMPDEST PUSH1 0x0 JUMPDEST DUP4 DUP2 LT ISZERO PUSH3 0x182 JUMPI DUP1 DUP3 ADD MLOAD DUP2 DUP5 ADD MSTORE PUSH1 0x20 DUP2 ADD SWAP1 POP PUSH3 0x165 JUMP JUMPDEST PUSH1 0x0 DUP5 DUP5 ADD MSTORE POP POP POP POP JUMP JUMPDEST PUSH1 0x0 PUSH3 0x1A5 PUSH3 0x19F DUP5 PUSH3 0x12C JUMP JUMPDEST PUSH3 0x10D JUMP JUMPDEST SWAP1 POP DUP3 DUP2 MSTORE PUSH1 0x20 DUP2 ADD DUP5 DUP5 DUP5 ADD GT ISZERO PUSH3 0x1C4 JUMPI PUSH3 0x1C3 PUSH3 0x92 JUMP JUMPDEST JUMPDEST PUSH3 0x1D1 DUP5 DUP3 DUP6 PUSH3 0x162 JUMP JUMPDEST POP SWAP4 SWAP3 POP POP POP JUMP JUMPDEST PUSH1 0x0 DUP3 PUSH1 0x1F DUP4 ADD SLT PUSH3 0x1F1 JUMPI PUSH3 0x1F0 PUSH3 0x8D JUMP JUMPDEST JUMPDEST DUP2 MLOAD PUSH3 0x203 DUP5 DUP3 PUSH1 0x20 DUP7 ADD PUSH3 0x18E JUMP JUMPDEST SWAP2 POP POP SWAP3 SWAP2 POP POP JUMP JUMPDEST PUSH1 0x0 DUP1 PUSH1 0x40 DUP4 DUP6 SUB SLT ISZERO PUSH3 0x226 JUMPI PUSH3 0x225 PUSH3 0x83 JUMP JUMPDEST JUMPDEST PUSH1 0x0 DUP4 ADD MLOAD PUSH8 0xFFFFFFFFFFFFFFFF DUP2 GT ISZERO PUSH3 0x247 JUMPI PUSH3 0x246 PUSH3 0x88 JUMP JUMPDEST JUMPDEST PUSH3 0x255 DUP6 DUP3 DUP7 ADD PUSH3 0x1D9 JUMP JUMPDEST SWAP3 POP POP PUSH1 0x20 DUP4 ADD MLOAD PUSH8 0xFFFFFFFFFFFFFFFF DUP2 GT ISZERO PUSH3 0x279 JUMPI PUSH3 0x278 PUSH3 0x88 JUMP JUMPDEST JUMPDEST PUSH3 0x287 DUP6 DUP3 DUP7 ADD PUSH3 0x1D9 JUMP JUMPDEST SWAP2 POP POP SWAP3 POP SWAP3 SWAP1 POP JUMP JUMPDEST PUSH1 0x0 DUP2 MLOAD SWAP1 POP SWAP2 SWAP1 POP JUMP JUMPDEST PUSH32 0x4E487B7100000000000000000000000000000000000000000000000000000000 PUSH1 0x0 MSTORE PUSH1 0x22 PUSH1 0x4 MSTORE PUSH1 0x24 PUSH1 0x0 REVERT JUMPDEST PUSH1 0x0 PUSH1 0x2 DUP3 DIV SWAP1 POP PUSH1 0x1 DUP3 AND DUP1 PUSH3 0x2E4 JUMPI PUSH1 0x7F DUP3 AND SWAP2 POP JUMPDEST PUSH1 0x20 DUP3 LT DUP2 SUB PUSH3 0x2FA JUMPI PUSH3 0x2F9 PUSH3 0x29C JUMP JUMPDEST JUMPDEST POP SWAP2 SWAP1 POP JUMP JUMPDEST PUSH1 0x0 DUP2 SWAP1 POP DUP2 PUSH1 0x0 MSTORE PUSH1 0x20 PUSH1 0x0 KECCAK256 SWAP1 POP SWAP2 SWAP1 POP JUMP JUMPDEST PUSH1 0x0 PUSH1 0x20 PUSH1 0x1F DUP4 ADD DIV SWAP1 POP SWAP2 SWAP1 POP JUMP JUMPDEST PUSH1 0x0 DUP3 DUP3 SHL SWAP1 POP SWAP3 SWAP2 POP POP JUMP JUMPDEST PUSH1 0x0 PUSH1 0x8 DUP4 MUL PUSH3 0x364 PUSH32 0xFFFFFFFFFFFFFFFFFFFFFFFFFFFFFFFFFFFFFFFFFFFFFFFFFFFFFFFFFFFFFFFF DUP3 PUSH3 0x325 JUMP JUMPDEST PUSH3 0x370 DUP7 DUP4 PUSH3 0x325 JUMP JUMPDEST SWAP6 POP DUP1 NOT DUP5 AND SWAP4 POP DUP1 DUP7 AND DUP5 OR SWAP3 POP POP POP SWAP4 SWAP3 POP POP POP JUMP JUMPDEST PUSH1 0x0 DUP2 SWAP1 POP SWAP2 SWAP1 POP JUMP JUMPDEST PUSH1 0x0 DUP2 SWAP1 POP SWAP2 SWAP1 POP JUMP JUMPDEST PUSH1 0x0 PUSH3 0x3BD PUSH3 0x3B7 PUSH3 0x3B1 DUP5 PUSH3 0x388 JUMP JUMPDEST PUSH3 0x392 JUMP JUMPDEST PUSH3 0x388 JUMP JUMPDEST SWAP1 POP SWAP2 SWAP1 POP JUMP JUMPDEST PUSH1 0x0 DUP2 SWAP1 POP SWAP2 SWAP1 POP JUMP JUMPDEST PUSH3 0x3D9 DUP4 PUSH3 0x39C JUMP JUMPDEST PUSH3 0x3F1 PUSH3 0x3E8 DUP3 PUSH3 0x3C4 JUMP JUMPDEST DUP5 DUP5 SLOAD PUSH3 0x332 JUMP JUMPDEST DUP3 SSTORE POP POP POP POP JUMP JUMPDEST PUSH1 0x0 SWAP1 JUMP JUMPDEST PUSH3 0x408 PUSH3 0x3F9 JUMP JUMPDEST PUSH3 0x415 DUP2 DUP5 DUP5 PUSH3 0x3CE JUMP JUMPDEST POP POP POP JUMP JUMPDEST JUMPDEST DUP2 DUP2 LT ISZERO PUSH3 0x43D JUMPI PUSH3 0x431 PUSH1 0x0 DUP3 PUSH3 0x3FE JUMP JUMPDEST PUSH1 0x1 DUP2 ADD SWAP1 POP PUSH3 0x41B JUMP JUMPDEST POP POP JUMP JUMPDEST PUSH1 0x1F DUP3 GT ISZERO PUSH3 0x48C JUMPI PUSH3 0x456 DUP2 PUSH3 0x300 JUMP JUMPDEST PUSH3 0x461 DUP5 PUSH3 0x315 JUMP JUMPDEST DUP2 ADD PUSH1 0x20 DUP6 LT ISZERO PUSH3 0x471 JUMPI DUP2 SWAP1 POP JUMPDEST PUSH3 0x489 PUSH3 0x480 DUP6 PUSH3 0x315 JUMP JUMPDEST DUP4 ADD DUP3 PUSH3 0x41A JUMP JUMPDEST POP POP JUMPDEST POP POP POP JUMP JUMPDEST PUSH1 0x0 DUP3 DUP3 SHR SWAP1 POP SWAP3 SWAP2 POP POP JUMP JUMPDEST PUSH1 0x0 PUSH3 0x4B1 PUSH1 0x0 NOT DUP5 PUSH1 0x8 MUL PUSH3 0x491 JUMP JUMPDEST NOT DUP1 DUP4 AND SWAP2 POP POP SWAP3 SWAP2 POP POP JUMP JUMPDEST PUSH1 0x0 PUSH3 0x4CC DUP4 DUP4 PUSH3 0x49E JUMP JUMPDEST SWAP2 POP DUP3 PUSH1 0x2 MUL DUP3 OR SWAP1 POP SWAP3 SWAP2 POP POP JUMP JUMPDEST PUSH3 0x4E7 DUP3 PUSH3 0x291 JUMP JUMPDEST PUSH8 0xFFFFFFFFFFFFFFFF DUP2 GT ISZERO PUSH3 0x503 JUMPI PUSH3 0x502 PUSH3 0xA8 JUMP JUMPDEST JUMPDEST PUSH3 0x50F DUP3 SLOAD PUSH3 0x2CB JUMP JUMPDEST PUSH3 0x51C DUP3 DUP3 DUP6 PUSH3 0x441 JUMP JUMPDEST PUSH1 0x0 PUSH1 0x20 SWAP1 POP PUSH1 0x1F DUP4 GT PUSH1 0x1 DUP2 EQ PUSH3 0x554 JUMPI PUSH1 0x0 DUP5 ISZERO PUSH3 0x53F JUMPI DUP3 DUP8 ADD MLOAD SWAP1 POP JUMPDEST PUSH3 0x54B DUP6 DUP3 PUSH3 0x4BE JUMP JUMPDEST DUP7 SSTORE POP PUSH3 0x5BB JUMP JUMPDEST PUSH1 0x1F NOT DUP5 AND PUSH3 0x564 DUP7 PUSH3 0x300 JUMP JUMPDEST PUSH1 0x0 JUMPDEST DUP3 DUP2 LT ISZERO PUSH3 0x58E JUMPI DUP5 DUP10 ADD MLOAD DUP3 SSTORE PUSH1 0x1 DUP3 ADD SWAP2 POP PUSH1 0x20 DUP6 ADD SWAP5 POP PUSH1 0x20 DUP2 ADD SWAP1 POP PUSH3 0x567 JUMP JUMPDEST DUP7 DUP4 LT ISZERO PUSH3 0x5AE JUMPI DUP5 DUP10 ADD MLOAD PUSH3 0x5AA PUSH1 0x1F DUP10 AND DUP3 PUSH3 0x49E JUMP JUMPDEST DUP4 SSTORE POP JUMPDEST PUSH1 0x1 PUSH1 0x2 DUP9 MUL ADD DUP9 SSTORE POP POP POP JUMPDEST POP POP POP POP POP POP JUMP JUMPDEST PUSH2 0x16EC DUP1 PUSH3 0x5D3 PUSH1 0x0 CODECOPY PUSH1 0x0 RETURN INVALID PUSH1 0x80 PUSH1 0x40 MSTORE CALLVALUE DUP1 ISZERO PUSH2 0x10 JUMPI PUSH1 0x0 DUP1 REVERT JUMPDEST POP PUSH1 0x4 CALLDATASIZE LT PUSH2 0xEA JUMPI PUSH1 0x0 CALLDATALOAD PUSH1 0xE0 SHR DUP1 PUSH4 0x70A08231 GT PUSH2 0x8C JUMPI DUP1 PUSH4 0xA9059CBB GT PUSH2 0x66 JUMPI DUP1 PUSH4 0xA9059CBB EQ PUSH2 0x287 JUMPI DUP1 PUSH4 0xB8BA6007 EQ PUSH2 0x2B7 JUMPI DUP1 PUSH4 0xD993226B EQ PUSH2 0x2E7 JUMPI DUP1 PUSH4 0xDD62ED3E EQ PUSH2 0x317 JUMPI PUSH2 0xEA JUMP JUMPDEST DUP1 PUSH4 0x70A08231 EQ PUSH2 0x209 JUMPI DUP1 PUSH4 0x95D89B41 EQ PUSH2 0x239 JUMPI DUP1 PUSH4 0xA457C2D7 EQ PUSH2 0x257 JUMPI PUSH2 0xEA JUMP JUMPDEST DUP1 PUSH4 0x23B872DD GT PUSH2 0xC8 JUMPI DUP1 PUSH4 0x23B872DD EQ PUSH2 0x15B JUMPI DUP1 PUSH4 0x313CE567 EQ PUSH2 0x18B JUMPI DUP1 PUSH4 0x39509351 EQ PUSH2 0x1A9 JUMPI DUP1 PUSH4 0x4BE3403C EQ PUSH2 0x1D9 JUMPI PUSH2 0xEA JUMP JUMPDEST DUP1 PUSH4 0x6FDDE03 EQ PUSH2 0xEF JUMPI DUP1 PUSH4 0x95EA7B3 EQ PUSH2 0x10D JUMPI DUP1 PUSH4 0x18160DDD EQ PUSH2 0x13D JUMPI JUMPDEST PUSH1 0x0 DUP1 REVERT JUMPDEST PUSH2 0xF7 PUSH2 0x347 JUMP JUMPDEST PUSH1 0x40 MLOAD PUSH2 0x104 SWAP2 SWAP1 PUSH2 0xEC6 JUMP JUMPDEST PUSH1 0x40 MLOAD DUP1 SWAP2 SUB SWAP1 RETURN JUMPDEST PUSH2 0x127 PUSH1 0x4 DUP1 CALLDATASIZE SUB DUP2 ADD SWAP1 PUSH2 0x122 SWAP2 SWAP1 PUSH2 0xF81 JUMP JUMPDEST PUSH2 0x3D9 JUMP JUMPDEST PUSH1 0x40 MLOAD PUSH2 0x134 SWAP2 SWAP1 PUSH2 0xFDC JUMP JUMPDEST PUSH1 0x40 MLOAD DUP1 SWAP2 SUB SWAP1 RETURN JUMPDEST PUSH2 0x145 PUSH2 0x3FC JUMP JUMPDEST PUSH1 0x40 MLOAD PUSH2 0x152 SWAP2 SWAP1 PUSH2 0x1006 JUMP JUMPDEST PUSH1 0x40 MLOAD DUP1 SWAP2 SUB SWAP1 RETURN JUMPDEST PUSH2 0x175 PUSH1 0x4 DUP1 CALLDATASIZE SUB DUP2 ADD SWAP1 PUSH2 0x170 SWAP2 SWAP1 PUSH2 0x1021 JUMP JUMPDEST PUSH2 0x406 JUMP JUMPDEST PUSH1 0x40 MLOAD PUSH2 0x182 SWAP2 SWAP1 PUSH2 0xFDC JUMP JUMPDEST PUSH1 0x40 MLOAD DUP1 SWAP2 SUB SWAP1 RETURN JUMPDEST PUSH2 0x193 PUSH2 0x435 JUMP JUMPDEST PUSH1 0x40 MLOAD PUSH2 0x1A0 SWAP2 SWAP1 PUSH2 0x1090 JUMP JUMPDEST PUSH1 0x40 MLOAD DUP1 SWAP2 SUB SWAP1 RETURN JUMPDEST PUSH2 0x1C3 PUSH1 0x4 DUP1 CALLDATASIZE SUB DUP2 ADD SWAP1 PUSH2 0x1BE SWAP2 SWAP1 PUSH2 0xF81 JUMP JUMPDEST PUSH2 0x43E JUMP JUMPDEST PUSH1 0x40 MLOAD PUSH2 0x1D0 SWAP2 SWAP1 PUSH2 0xFDC JUMP JUMPDEST PUSH1 0x40 MLOAD DUP1 SWAP2 SUB SWAP1 RETURN JUMPDEST PUSH2 0x1F3 PUSH1 0x4 DUP1 CALLDATASIZE SUB DUP2 ADD SWAP1 PUSH2 0x1EE SWAP2 SWAP1 PUSH2 0x10AB JUMP JUMPDEST PUSH2 0x475 JUMP JUMPDEST PUSH1 0x40 MLOAD PUSH2 0x200 SWAP2 SWAP1 PUSH2 0x1006 JUMP JUMPDEST PUSH1 0x40 MLOAD DUP1 SWAP2 SUB SWAP1 RETURN JUMPDEST PUSH2 0x223 PUSH1 0x4 DUP1 CALLDATASIZE SUB DUP2 ADD SWAP1 PUSH2 0x21E SWAP2 SWAP1 PUSH2 0x10D8 JUMP JUMPDEST PUSH2 0x4E6 JUMP JUMPDEST PUSH1 0x40 MLOAD PUSH2 0x230 SWAP2 SWAP1 PUSH2 0x1006 JUMP JUMPDEST PUSH1 0x40 MLOAD DUP1 SWAP2 SUB SWAP1 RETURN JUMPDEST PUSH2 0x241 PUSH2 0x52E JUMP JUMPDEST PUSH1 0x40 MLOAD PUSH2 0x24E SWAP2 SWAP1 PUSH2 0xEC6 JUMP JUMPDEST PUSH1 0x40 MLOAD DUP1 SWAP2 SUB SWAP1 RETURN JUMPDEST PUSH2 0x271 PUSH1 0x4 DUP1 CALLDATASIZE SUB DUP2 ADD SWAP1 PUSH2 0x26C SWAP2 SWAP1 PUSH2 0xF81 JUMP JUMPDEST PUSH2 0x5C0 JUMP JUMPDEST PUSH1 0x40 MLOAD PUSH2 0x27E SWAP2 SWAP1 PUSH2 0xFDC JUMP JUMPDEST PUSH1 0x40 MLOAD DUP1 SWAP2 SUB SWAP1 RETURN JUMPDEST PUSH2 0x2A1 PUSH1 0x4 DUP1 CALLDATASIZE SUB DUP2 ADD SWAP1 PUSH2 0x29C SWAP2 SWAP1 PUSH2 0xF81 JUMP JUMPDEST PUSH2 0x637 JUMP JUMPDEST PUSH1 0x40 MLOAD PUSH2 0x2AE SWAP2 SWAP1 PUSH2 0xFDC JUMP JUMPDEST PUSH1 0x40 MLOAD DUP1 SWAP2 SUB SWAP1 RETURN JUMPDEST PUSH2 0x2D1 PUSH1 0x4 DUP1 CALLDATASIZE SUB DUP2 ADD SWAP1 PUSH2 0x2CC SWAP2 SWAP1 PUSH2 0x10D8 JUMP JUMPDEST PUSH2 0x65A JUMP JUMPDEST PUSH1 0x40 MLOAD PUSH2 0x2DE SWAP2 SWAP1 PUSH2 0x1006 JUMP JUMPDEST PUSH1 0x40 MLOAD DUP1 SWAP2 SUB SWAP1 RETURN JUMPDEST PUSH2 0x301 PUSH1 0x4 DUP1 CALLDATASIZE SUB DUP2 ADD SWAP1 PUSH2 0x2FC SWAP2 SWAP1 PUSH2 0x10AB JUMP JUMPDEST PUSH2 0x80D JUMP JUMPDEST PUSH1 0x40 MLOAD PUSH2 0x30E SWAP2 SWAP1 PUSH2 0x1006 JUMP JUMPDEST PUSH1 0x40 MLOAD DUP1 SWAP2 SUB SWAP1 RETURN JUMPDEST PUSH2 0x331 PUSH1 0x4 DUP1 CALLDATASIZE SUB DUP2 ADD SWAP1 PUSH2 0x32C SWAP2 SWAP1 PUSH2 0x1105 JUMP JUMPDEST PUSH2 0x871 JUMP JUMPDEST PUSH1 0x40 MLOAD PUSH2 0x33E SWAP2 SWAP1 PUSH2 0x1006 JUMP JUMPDEST PUSH1 0x40 MLOAD DUP1 SWAP2 SUB SWAP1 RETURN JUMPDEST PUSH1 0x60 PUSH1 0x5 DUP1 SLOAD PUSH2 0x356 SWAP1 PUSH2 0x1174 JUMP JUMPDEST DUP1 PUSH1 0x1F ADD PUSH1 0x20 DUP1 SWAP2 DIV MUL PUSH1 0x20 ADD PUSH1 0x40 MLOAD SWAP1 DUP2 ADD PUSH1 0x40 MSTORE DUP1 SWAP3 SWAP2 SWAP1 DUP2 DUP2 MSTORE PUSH1 0x20 ADD DUP3 DUP1 SLOAD PUSH2 0x382 SWAP1 PUSH2 0x1174 JUMP JUMPDEST DUP1 ISZERO PUSH2 0x3CF JUMPI DUP1 PUSH1 0x1F LT PUSH2 0x3A4 JUMPI PUSH2 0x100 DUP1 DUP4 SLOAD DIV MUL DUP4 MSTORE SWAP2 PUSH1 0x20 ADD SWAP2 PUSH2 0x3CF JUMP JUMPDEST DUP3 ADD SWAP2 SWAP1 PUSH1 0x0 MSTORE PUSH1 0x20 PUSH1 0x0 KECCAK256 SWAP1 JUMPDEST DUP2 SLOAD DUP2 MSTORE SWAP1 PUSH1 0x1 ADD SWAP1 PUSH1 0x20 ADD DUP1 DUP4 GT PUSH2 0x3B2 JUMPI DUP3 SWAP1 SUB PUSH1 0x1F AND DUP3 ADD SWAP2 JUMPDEST POP POP POP POP POP SWAP1 POP SWAP1 JUMP JUMPDEST PUSH1 0x0 DUP1 PUSH2 0x3E4 PUSH2 0x8F8 JUMP JUMPDEST SWAP1 POP PUSH2 0x3F1 DUP2 DUP6 DUP6 PUSH2 0x900 JUMP JUMPDEST PUSH1 0x1 SWAP2 POP POP SWAP3 SWAP2 POP POP JUMP JUMPDEST PUSH1 0x0 PUSH1 0x2 SLOAD SWAP1 POP SWAP1 JUMP JUMPDEST PUSH1 0x0 DUP1 PUSH2 0x411 PUSH2 0x8F8 JUMP JUMPDEST SWAP1 POP PUSH2 0x41E DUP6 DUP3 DUP6 PUSH2 0xAC9 JUMP JUMPDEST PUSH2 0x429 DUP6 DUP6 DUP6 PUSH2 0xB55 JUMP JUMPDEST PUSH1 0x1 SWAP2 POP POP SWAP4 SWAP3 POP POP POP JUMP JUMPDEST PUSH1 0x0 PUSH1 0x12 SWAP1 POP SWAP1 JUMP JUMPDEST PUSH1 0x0 DUP1 PUSH2 0x449 PUSH2 0x8F8 JUMP JUMPDEST SWAP1 POP PUSH2 0x46A DUP2 DUP6 DUP6 PUSH2 0x45B DUP6 DUP10 PUSH2 0x871 JUMP JUMPDEST PUSH2 0x465 SWAP2 SWAP1 PUSH2 0x11D4 JUMP JUMPDEST PUSH2 0x900 JUMP JUMPDEST PUSH1 0x1 SWAP2 POP POP SWAP3 SWAP2 POP POP JUMP JUMPDEST PUSH1 0x0 PUSH1 0x4 SLOAD DUP3 LT ISZERO PUSH2 0x487 JUMPI PUSH1 0x4 SLOAD SWAP2 POP JUMPDEST PUSH1 0x0 PUSH2 0x4B5 PUSH23 0xA70C3C40A64E6C51999090B65F67D9240000000000000 PUSH1 0x3 SLOAD PUSH2 0xDD4 SWAP1 SWAP2 SWAP1 PUSH4 0xFFFFFFFF AND JUMP JUMPDEST SWAP1 POP PUSH1 0x0 PUSH2 0x4C2 DUP5 PUSH2 0x80D JUMP JUMPDEST SWAP1 POP PUSH1 0x0 PUSH2 0x4D9 DUP3 DUP5 PUSH2 0xDEA SWAP1 SWAP2 SWAP1 PUSH4 0xFFFFFFFF AND JUMP JUMPDEST SWAP1 POP DUP1 SWAP4 POP POP POP POP SWAP2 SWAP1 POP JUMP JUMPDEST PUSH1 0x0 DUP1 PUSH1 0x0 DUP4 PUSH20 0xFFFFFFFFFFFFFFFFFFFFFFFFFFFFFFFFFFFFFFFF AND PUSH20 0xFFFFFFFFFFFFFFFFFFFFFFFFFFFFFFFFFFFFFFFF AND DUP2 MSTORE PUSH1 0x20 ADD SWAP1 DUP2 MSTORE PUSH1 0x20 ADD PUSH1 0x0 KECCAK256 SLOAD SWAP1 POP SWAP2 SWAP1 POP JUMP JUMPDEST PUSH1 0x60 PUSH1 0x6 DUP1 SLOAD PUSH2 0x53D SWAP1 PUSH2 0x1174 JUMP JUMPDEST DUP1 PUSH1 0x1F ADD PUSH1 0x20 DUP1 SWAP2 DIV MUL PUSH1 0x20 ADD PUSH1 0x40 MLOAD SWAP1 DUP2 ADD PUSH1 0x40 MSTORE DUP1 SWAP3 SWAP2 SWAP1 DUP2 DUP2 MSTORE PUSH1 0x20 ADD DUP3 DUP1 SLOAD PUSH2 0x569 SWAP1 PUSH2 0x1174 JUMP JUMPDEST DUP1 ISZERO PUSH2 0x5B6 JUMPI DUP1 PUSH1 0x1F LT PUSH2 0x58B JUMPI PUSH2 0x100 DUP1 DUP4 SLOAD DIV MUL DUP4 MSTORE SWAP2 PUSH1 0x20 ADD SWAP2 PUSH2 0x5B6 JUMP JUMPDEST DUP3 ADD SWAP2 SWAP1 PUSH1 0x0 MSTORE PUSH1 0x20 PUSH1 0x0 KECCAK256 SWAP1 JUMPDEST DUP2 SLOAD DUP2 MSTORE SWAP1 PUSH1 0x1 ADD SWAP1 PUSH1 0x20 ADD DUP1 DUP4 GT PUSH2 0x599 JUMPI DUP3 SWAP1 SUB PUSH1 0x1F AND DUP3 ADD SWAP2 JUMPDEST POP POP POP POP POP SWAP1 POP SWAP1 JUMP JUMPDEST PUSH1 0x0 DUP1 PUSH2 0x5CB PUSH2 0x8F8 JUMP JUMPDEST SWAP1 POP PUSH1 0x0 PUSH2 0x5D9 DUP3 DUP7 PUSH2 0x871 JUMP JUMPDEST SWAP1 POP DUP4 DUP2 LT ISZERO PUSH2 0x61E JUMPI PUSH1 0x40 MLOAD PUSH32 0x8C379A000000000000000000000000000000000000000000000000000000000 DUP2 MSTORE PUSH1 0x4 ADD PUSH2 0x615 SWAP1 PUSH2 0x127A JUMP JUMPDEST PUSH1 0x40 MLOAD DUP1 SWAP2 SUB SWAP1 REVERT JUMPDEST PUSH2 0x62B DUP3 DUP7 DUP7 DUP5 SUB PUSH2 0x900 JUMP JUMPDEST PUSH1 0x1 SWAP3 POP POP POP SWAP3 SWAP2 POP POP JUMP JUMPDEST PUSH1 0x0 DUP1 PUSH2 0x642 PUSH2 0x8F8 JUMP JUMPDEST SWAP1 POP PUSH2 0x64F DUP2 DUP6 DUP6 PUSH2 0xB55 JUMP JUMPDEST PUSH1 0x1 SWAP2 POP POP SWAP3 SWAP2 POP POP JUMP JUMPDEST PUSH1 0x0 DUP1 PUSH2 0x6C1 PUSH1 0x7 PUSH1 0x0 DUP6 PUSH20 0xFFFFFFFFFFFFFFFFFFFFFFFFFFFFFFFFFFFFFFFF AND PUSH20 0xFFFFFFFFFFFFFFFFFFFFFFFFFFFFFFFFFFFFFFFF AND DUP2 MSTORE PUSH1 0x20 ADD SWAP1 DUP2 MSTORE PUSH1 0x20 ADD PUSH1 0x0 KECCAK256 PUSH1 0x0 PUSH1 0x1 DUP2 MSTORE PUSH1 0x20 ADD SWAP1 DUP2 MSTORE PUSH1 0x20 ADD PUSH1 0x0 KECCAK256 SLOAD NUMBER PUSH2 0xE00 SWAP1 SWAP2 SWAP1 PUSH4 0xFFFFFFFF AND JUMP JUMPDEST SWAP1 POP PUSH1 0x0 PUSH2 0x71F PUSH1 0x7 PUSH1 0x0 DUP7 PUSH20 0xFFFFFFFFFFFFFFFFFFFFFFFFFFFFFFFFFFFFFFFF AND PUSH20 0xFFFFFFFFFFFFFFFFFFFFFFFFFFFFFFFFFFFFFFFF AND DUP2 MSTORE PUSH1 0x20 ADD SWAP1 DUP2 MSTORE PUSH1 0x20 ADD PUSH1 0x0 KECCAK256 PUSH1 0x0 PUSH1 0x1 DUP2 MSTORE PUSH1 0x20 ADD SWAP1 DUP2 MSTORE PUSH1 0x20 ADD PUSH1 0x0 KECCAK256 SLOAD PUSH2 0x475 JUMP JUMPDEST SWAP1 POP PUSH1 0x0 PUSH2 0x72C NUMBER PUSH2 0x475 JUMP JUMPDEST SWAP1 POP PUSH1 0x0 PUSH2 0x768 PUSH1 0x2 PUSH2 0x75A DUP7 PUSH2 0x74C DUP7 DUP9 PUSH2 0xE16 SWAP1 SWAP2 SWAP1 PUSH4 0xFFFFFFFF AND JUMP JUMPDEST PUSH2 0xDD4 SWAP1 SWAP2 SWAP1 PUSH4 0xFFFFFFFF AND JUMP JUMPDEST PUSH2 0xDEA SWAP1 SWAP2 SWAP1 PUSH4 0xFFFFFFFF AND JUMP JUMPDEST SWAP1 POP PUSH1 0x0 PUSH2 0x79B PUSH1 0x2 SLOAD PUSH2 0x78D PUSH2 0x77E DUP11 PUSH2 0x4E6 JUMP JUMPDEST DUP6 PUSH2 0xDD4 SWAP1 SWAP2 SWAP1 PUSH4 0xFFFFFFFF AND JUMP JUMPDEST PUSH2 0xDEA SWAP1 SWAP2 SWAP1 PUSH4 0xFFFFFFFF AND JUMP JUMPDEST SWAP1 POP PUSH2 0x801 DUP2 PUSH1 0x7 PUSH1 0x0 DUP11 PUSH20 0xFFFFFFFFFFFFFFFFFFFFFFFFFFFFFFFFFFFFFFFF AND PUSH20 0xFFFFFFFFFFFFFFFFFFFFFFFFFFFFFFFFFFFFFFFF AND DUP2 MSTORE PUSH1 0x20 ADD SWAP1 DUP2 MSTORE PUSH1 0x20 ADD PUSH1 0x0 KECCAK256 PUSH1 0x0 PUSH1 0x3 DUP2 MSTORE PUSH1 0x20 ADD SWAP1 DUP2 MSTORE PUSH1 0x20 ADD PUSH1 0x0 KECCAK256 SLOAD PUSH2 0xE16 SWAP1 SWAP2 SWAP1 PUSH4 0xFFFFFFFF AND JUMP JUMPDEST SWAP6 POP POP POP POP POP POP SWAP2 SWAP1 POP JUMP JUMPDEST PUSH1 0x0 DUP1 PUSH2 0x83F PUSH1 0x4 SLOAD PUSH2 0x831 PUSH8 0xDE0B6B3A7640000 DUP7 PUSH2 0xDD4 SWAP1 SWAP2 SWAP1 PUSH4 0xFFFFFFFF AND JUMP JUMPDEST PUSH2 0xDEA SWAP1 SWAP2 SWAP1 PUSH4 0xFFFFFFFF AND JUMP JUMPDEST SWAP1 POP PUSH2 0x866 DUP2 PUSH2 0x858 DUP4 DUP5 PUSH2 0xDD4 SWAP1 SWAP2 SWAP1 PUSH4 0xFFFFFFFF AND JUMP JUMPDEST PUSH2 0xDD4 SWAP1 SWAP2 SWAP1 PUSH4 0xFFFFFFFF AND JUMP JUMPDEST SWAP1 POP DUP1 SWAP2 POP POP SWAP2 SWAP1 POP JUMP JUMPDEST PUSH1 0x0 PUSH1 0x1 PUSH1 0x0 DUP5 PUSH20 0xFFFFFFFFFFFFFFFFFFFFFFFFFFFFFFFFFFFFFFFF AND PUSH20 0xFFFFFFFFFFFFFFFFFFFFFFFFFFFFFFFFFFFFFFFF AND DUP2 MSTORE PUSH1 0x20 ADD SWAP1 DUP2 MSTORE PUSH1 0x20 ADD PUSH1 0x0 KECCAK256 PUSH1 0x0 DUP4 PUSH20 0xFFFFFFFFFFFFFFFFFFFFFFFFFFFFFFFFFFFFFFFF AND PUSH20 0xFFFFFFFFFFFFFFFFFFFFFFFFFFFFFFFFFFFFFFFF AND DUP2 MSTORE PUSH1 0x20 ADD SWAP1 DUP2 MSTORE PUSH1 0x20 ADD PUSH1 0x0 KECCAK256 SLOAD SWAP1 POP SWAP3 SWAP2 POP POP JUMP JUMPDEST PUSH1 0x0 CALLER SWAP1 POP SWAP1 JUMP JUMPDEST PUSH1 0x0 PUSH20 0xFFFFFFFFFFFFFFFFFFFFFFFFFFFFFFFFFFFFFFFF AND DUP4 PUSH20 0xFFFFFFFFFFFFFFFFFFFFFFFFFFFFFFFFFFFFFFFF AND SUB PUSH2 0x96F JUMPI PUSH1 0x40 MLOAD PUSH32 0x8C379A000000000000000000000000000000000000000000000000000000000 DUP2 MSTORE PUSH1 0x4 ADD PUSH2 0x966 SWAP1 PUSH2 0x130C JUMP JUMPDEST PUSH1 0x40 MLOAD DUP1 SWAP2 SUB SWAP1 REVERT JUMPDEST PUSH1 0x0 PUSH20 0xFFFFFFFFFFFFFFFFFFFFFFFFFFFFFFFFFFFFFFFF AND DUP3 PUSH20 0xFFFFFFFFFFFFFFFFFFFFFFFFFFFFFFFFFFFFFFFF AND SUB PUSH2 0x9DE JUMPI PUSH1 0x40 MLOAD PUSH32 0x8C379A000000000000000000000000000000000000000000000000000000000 DUP2 MSTORE PUSH1 0x4 ADD PUSH2 0x9D5 SWAP1 PUSH2 0x139E JUMP JUMPDEST PUSH1 0x40 MLOAD DUP1 SWAP2 SUB SWAP1 REVERT JUMPDEST DUP1 PUSH1 0x1 PUSH1 0x0 DUP6 PUSH20 0xFFFFFFFFFFFFFFFFFFFFFFFFFFFFFFFFFFFFFFFF AND PUSH20 0xFFFFFFFFFFFFFFFFFFFFFFFFFFFFFFFFFFFFFFFF AND DUP2 MSTORE PUSH1 0x20 ADD SWAP1 DUP2 MSTORE PUSH1 0x20 ADD PUSH1 0x0 KECCAK256 PUSH1 0x0 DUP5 PUSH20 0xFFFFFFFFFFFFFFFFFFFFFFFFFFFFFFFFFFFFFFFF AND PUSH20 0xFFFFFFFFFFFFFFFFFFFFFFFFFFFFFFFFFFFFFFFF AND DUP2 MSTORE PUSH1 0x20 ADD SWAP1 DUP2 MSTORE PUSH1 0x20 ADD PUSH1 0x0 KECCAK256 DUP2 SWAP1 SSTORE POP DUP2 PUSH20 0xFFFFFFFFFFFFFFFFFFFFFFFFFFFFFFFFFFFFFFFF AND DUP4 PUSH20 0xFFFFFFFFFFFFFFFFFFFFFFFFFFFFFFFFFFFFFFFF AND PUSH32 0x8C5BE1E5EBEC7D5BD14F71427D1E84F3DD0314C0F7B2291E5B200AC8C7C3B925 DUP4 PUSH1 0x40 MLOAD PUSH2 0xABC SWAP2 SWAP1 PUSH2 0x1006 JUMP JUMPDEST PUSH1 0x40 MLOAD DUP1 SWAP2 SUB SWAP1 LOG3 POP POP POP JUMP JUMPDEST PUSH1 0x0 PUSH2 0xAD5 DUP5 DUP5 PUSH2 0x871 JUMP JUMPDEST SWAP1 POP PUSH32 0xFFFFFFFFFFFFFFFFFFFFFFFFFFFFFFFFFFFFFFFFFFFFFFFFFFFFFFFFFFFFFFFF DUP2 EQ PUSH2 0xB4F JUMPI DUP2 DUP2 LT ISZERO PUSH2 0xB41 JUMPI PUSH1 0x40 MLOAD PUSH32 0x8C379A000000000000000000000000000000000000000000000000000000000 DUP2 MSTORE PUSH1 0x4 ADD PUSH2 0xB38 SWAP1 PUSH2 0x140A JUMP JUMPDEST PUSH1 0x40 MLOAD DUP1 SWAP2 SUB SWAP1 REVERT JUMPDEST PUSH2 0xB4E DUP5 DUP5 DUP5 DUP5 SUB PUSH2 0x900 JUMP JUMPDEST JUMPDEST POP POP POP POP JUMP JUMPDEST PUSH1 0x0 PUSH20 0xFFFFFFFFFFFFFFFFFFFFFFFFFFFFFFFFFFFFFFFF AND DUP4 PUSH20 0xFFFFFFFFFFFFFFFFFFFFFFFFFFFFFFFFFFFFFFFF AND SUB PUSH2 0xBC4 JUMPI PUSH1 0x40 MLOAD PUSH32 0x8C379A000000000000000000000000000000000000000000000000000000000 DUP2 MSTORE PUSH1 0x4 ADD PUSH2 0xBBB SWAP1 PUSH2 0x149C JUMP JUMPDEST PUSH1 0x40 MLOAD DUP1 SWAP2 SUB SWAP1 REVERT JUMPDEST PUSH1 0x0 PUSH20 0xFFFFFFFFFFFFFFFFFFFFFFFFFFFFFFFFFFFFFFFF AND DUP3 PUSH20 0xFFFFFFFFFFFFFFFFFFFFFFFFFFFFFFFFFFFFFFFF AND SUB PUSH2 0xC33 JUMPI PUSH1 0x40 MLOAD PUSH32 0x8C379A000000000000000000000000000000000000000000000000000000000 DUP2 MSTORE PUSH1 0x4 ADD PUSH2 0xC2A SWAP1 PUSH2 0x152E JUMP JUMPDEST PUSH1 0x40 MLOAD DUP1 SWAP2 SUB SWAP1 REVERT JUMPDEST PUSH2 0xC3E DUP4 DUP4 DUP4 PUSH2 0xE2C JUMP JUMPDEST PUSH1 0x0 DUP1 PUSH1 0x0 DUP6 PUSH20 0xFFFFFFFFFFFFFFFFFFFFFFFFFFFFFFFFFFFFFFFF AND PUSH20 0xFFFFFFFFFFFFFFFFFFFFFFFFFFFFFFFFFFFFFFFF AND DUP2 MSTORE PUSH1 0x20 ADD SWAP1 DUP2 MSTORE PUSH1 0x20 ADD PUSH1 0x0 KECCAK256 SLOAD SWAP1 POP DUP2 DUP2 LT ISZERO PUSH2 0xCC4 JUMPI PUSH1 0x40 MLOAD PUSH32 0x8C379A000000000000000000000000000000000000000000000000000000000 DUP2 MSTORE PUSH1 0x4 ADD PUSH2 0xCBB SWAP1 PUSH2 0x15C0 JUMP JUMPDEST PUSH1 0x40 MLOAD DUP1 SWAP2 SUB SWAP1 REVERT JUMPDEST DUP2 DUP2 SUB PUSH1 0x0 DUP1 DUP7 PUSH20 0xFFFFFFFFFFFFFFFFFFFFFFFFFFFFFFFFFFFFFFFF AND PUSH20 0xFFFFFFFFFFFFFFFFFFFFFFFFFFFFFFFFFFFFFFFF AND DUP2 MSTORE PUSH1 0x20 ADD SWAP1 DUP2 MSTORE PUSH1 0x20 ADD PUSH1 0x0 KECCAK256 DUP2 SWAP1 SSTORE POP DUP2 PUSH1 0x0 DUP1 DUP6 PUSH20 0xFFFFFFFFFFFFFFFFFFFFFFFFFFFFFFFFFFFFFFFF AND PUSH20 0xFFFFFFFFFFFFFFFFFFFFFFFFFFFFFFFFFFFFFFFF AND DUP2 MSTORE PUSH1 0x20 ADD SWAP1 DUP2 MSTORE PUSH1 0x20 ADD PUSH1 0x0 KECCAK256 PUSH1 0x0 DUP3 DUP3 SLOAD PUSH2 0xD57 SWAP2 SWAP1 PUSH2 0x11D4 JUMP JUMPDEST SWAP3 POP POP DUP2 SWAP1 SSTORE POP DUP3 PUSH20 0xFFFFFFFFFFFFFFFFFFFFFFFFFFFFFFFFFFFFFFFF AND DUP5 PUSH20 0xFFFFFFFFFFFFFFFFFFFFFFFFFFFFFFFFFFFFFFFF AND PUSH32 0xDDF252AD1BE2C89B69C2B068FC378DAA952BA7F163C4A11628F55A4DF523B3EF DUP5 PUSH1 0x40 MLOAD PUSH2 0xDBB SWAP2 SWAP1 PUSH2 0x1006 JUMP JUMPDEST PUSH1 0x40 MLOAD DUP1 SWAP2 SUB SWAP1 LOG3 PUSH2 0xDCE DUP5 DUP5 DUP5 PUSH2 0xE31 JUMP JUMPDEST POP POP POP POP JUMP JUMPDEST PUSH1 0x0 DUP2 DUP4 PUSH2 0xDE2 SWAP2 SWAP1 PUSH2 0x15E0 JUMP JUMPDEST SWAP1 POP SWAP3 SWAP2 POP POP JUMP JUMPDEST PUSH1 0x0 DUP2 DUP4 PUSH2 0xDF8 SWAP2 SWAP1 PUSH2 0x1651 JUMP JUMPDEST SWAP1 POP SWAP3 SWAP2 POP POP JUMP JUMPDEST PUSH1 0x0 DUP2 DUP4 PUSH2 0xE0E SWAP2 SWAP1 PUSH2 0x1682 JUMP JUMPDEST SWAP1 POP SWAP3 SWAP2 POP POP JUMP JUMPDEST PUSH1 0x0 DUP2 DUP4 PUSH2 0xE24 SWAP2 SWAP1 PUSH2 0x11D4 JUMP JUMPDEST SWAP1 POP SWAP3 SWAP2 POP POP JUMP JUMPDEST POP POP POP JUMP JUMPDEST POP POP POP JUMP JUMPDEST PUSH1 0x0 DUP2 MLOAD SWAP1 POP SWAP2 SWAP1 POP JUMP JUMPDEST PUSH1 0x0 DUP3 DUP3 MSTORE PUSH1 0x20 DUP3 ADD SWAP1 POP SWAP3 SWAP2 POP POP JUMP JUMPDEST PUSH1 0x0 JUMPDEST DUP4 DUP2 LT ISZERO PUSH2 0xE70 JUMPI DUP1 DUP3 ADD MLOAD DUP2 DUP5 ADD MSTORE PUSH1 0x20 DUP2 ADD SWAP1 POP PUSH2 0xE55 JUMP JUMPDEST PUSH1 0x0 DUP5 DUP5 ADD MSTORE POP POP POP POP JUMP JUMPDEST PUSH1 0x0 PUSH1 0x1F NOT PUSH1 0x1F DUP4 ADD AND SWAP1 POP SWAP2 SWAP1 POP JUMP JUMPDEST PUSH1 0x0 PUSH2 0xE98 DUP3 PUSH2 0xE36 JUMP JUMPDEST PUSH2 0xEA2 DUP2 DUP6 PUSH2 0xE41 JUMP JUMPDEST SWAP4 POP PUSH2 0xEB2 DUP2 DUP6 PUSH1 0x20 DUP7 ADD PUSH2 0xE52 JUMP JUMPDEST PUSH2 0xEBB DUP2 PUSH2 0xE7C JUMP JUMPDEST DUP5 ADD SWAP2 POP POP SWAP3 SWAP2 POP POP JUMP JUMPDEST PUSH1 0x0 PUSH1 0x20 DUP3 ADD SWAP1 POP DUP2 DUP2 SUB PUSH1 0x0 DUP4 ADD MSTORE PUSH2 0xEE0 DUP2 DUP5 PUSH2 0xE8D JUMP JUMPDEST SWAP1 POP SWAP3 SWAP2 POP POP JUMP JUMPDEST PUSH1 0x0 DUP1 REVERT JUMPDEST PUSH1 0x0 PUSH20 0xFFFFFFFFFFFFFFFFFFFFFFFFFFFFFFFFFFFFFFFF DUP3 AND SWAP1 POP SWAP2 SWAP1 POP JUMP JUMPDEST PUSH1 0x0 PUSH2 0xF18 DUP3 PUSH2 0xEED JUMP JUMPDEST SWAP1 POP SWAP2 SWAP1 POP JUMP JUMPDEST PUSH2 0xF28 DUP2 PUSH2 0xF0D JUMP JUMPDEST DUP2 EQ PUSH2 0xF33 JUMPI PUSH1 0x0 DUP1 REVERT JUMPDEST POP JUMP JUMPDEST PUSH1 0x0 DUP2 CALLDATALOAD SWAP1 POP PUSH2 0xF45 DUP2 PUSH2 0xF1F JUMP JUMPDEST SWAP3 SWAP2 POP POP JUMP JUMPDEST PUSH1 0x0 DUP2 SWAP1 POP SWAP2 SWAP1 POP JUMP JUMPDEST PUSH2 0xF5E DUP2 PUSH2 0xF4B JUMP JUMPDEST DUP2 EQ PUSH2 0xF69 JUMPI PUSH1 0x0 DUP1 REVERT JUMPDEST POP JUMP JUMPDEST PUSH1 0x0 DUP2 CALLDATALOAD SWAP1 POP PUSH2 0xF7B DUP2 PUSH2 0xF55 JUMP JUMPDEST SWAP3 SWAP2 POP POP JUMP JUMPDEST PUSH1 0x0 DUP1 PUSH1 0x40 DUP4 DUP6 SUB SLT ISZERO PUSH2 0xF98 JUMPI PUSH2 0xF97 PUSH2 0xEE8 JUMP JUMPDEST JUMPDEST PUSH1 0x0 PUSH2 0xFA6 DUP6 DUP3 DUP7 ADD PUSH2 0xF36 JUMP JUMPDEST SWAP3 POP POP PUSH1 0x20 PUSH2 0xFB7 DUP6 DUP3 DUP7 ADD PUSH2 0xF6C JUMP JUMPDEST SWAP2 POP POP SWAP3 POP SWAP3 SWAP1 POP JUMP JUMPDEST PUSH1 0x0 DUP2 ISZERO ISZERO SWAP1 POP SWAP2 SWAP1 POP JUMP JUMPDEST PUSH2 0xFD6 DUP2 PUSH2 0xFC1 JUMP JUMPDEST DUP3 MSTORE POP POP JUMP JUMPDEST PUSH1 0x0 PUSH1 0x20 DUP3 ADD SWAP1 POP PUSH2 0xFF1 PUSH1 0x0 DUP4 ADD DUP5 PUSH2 0xFCD JUMP JUMPDEST SWAP3 SWAP2 POP POP JUMP JUMPDEST PUSH2 0x1000 DUP2 PUSH2 0xF4B JUMP JUMPDEST DUP3 MSTORE POP POP JUMP JUMPDEST PUSH1 0x0 PUSH1 0x20 DUP3 ADD SWAP1 POP PUSH2 0x101B PUSH1 0x0 DUP4 ADD DUP5 PUSH2 0xFF7 JUMP JUMPDEST SWAP3 SWAP2 POP POP JUMP JUMPDEST PUSH1 0x0 DUP1 PUSH1 0x0 PUSH1 0x60 DUP5 DUP7 SUB SLT ISZERO PUSH2 0x103A JUMPI PUSH2 0x1039 PUSH2 0xEE8 JUMP JUMPDEST JUMPDEST PUSH1 0x0 PUSH2 0x1048 DUP7 DUP3 DUP8 ADD PUSH2 0xF36 JUMP JUMPDEST SWAP4 POP POP PUSH1 0x20 PUSH2 0x1059 DUP7 DUP3 DUP8 ADD PUSH2 0xF36 JUMP JUMPDEST SWAP3 POP POP PUSH1 0x40 PUSH2 0x106A DUP7 DUP3 DUP8 ADD PUSH2 0xF6C JUMP JUMPDEST SWAP2 POP POP SWAP3 POP SWAP3 POP SWAP3 JUMP JUMPDEST PUSH1 0x0 PUSH1 0xFF DUP3 AND SWAP1 POP SWAP2 SWAP1 POP JUMP JUMPDEST PUSH2 0x108A DUP2 PUSH2 0x1074 JUMP JUMPDEST DUP3 MSTORE POP POP JUMP JUMPDEST PUSH1 0x0 PUSH1 0x20 DUP3 ADD SWAP1 POP PUSH2 0x10A5 PUSH1 0x0 DUP4 ADD DUP5 PUSH2 0x1081 JUMP JUMPDEST SWAP3 SWAP2 POP POP JUMP JUMPDEST PUSH1 0x0 PUSH1 0x20 DUP3 DUP5 SUB SLT ISZERO PUSH2 0x10C1 JUMPI PUSH2 0x10C0 PUSH2 0xEE8 JUMP JUMPDEST JUMPDEST PUSH1 0x0 PUSH2 0x10CF DUP5 DUP3 DUP6 ADD PUSH2 0xF6C JUMP JUMPDEST SWAP2 POP POP SWAP3 SWAP2 POP POP JUMP JUMPDEST PUSH1 0x0 PUSH1 0x20 DUP3 DUP5 SUB SLT ISZERO PUSH2 0x10EE JUMPI PUSH2 0x10ED PUSH2 0xEE8 JUMP JUMPDEST JUMPDEST PUSH1 0x0 PUSH2 0x10FC DUP5 DUP3 DUP6 ADD PUSH2 0xF36 JUMP JUMPDEST SWAP2 POP POP SWAP3 SWAP2 POP POP JUMP JUMPDEST PUSH1 0x0 DUP1 PUSH1 0x40 DUP4 DUP6 SUB SLT ISZERO PUSH2 0x111C JUMPI PUSH2 0x111B PUSH2 0xEE8 JUMP JUMPDEST JUMPDEST PUSH1 0x0 PUSH2 0x112A DUP6 DUP3 DUP7 ADD PUSH2 0xF36 JUMP JUMPDEST SWAP3 POP POP PUSH1 0x20 PUSH2 0x113B DUP6 DUP3 DUP7 ADD PUSH2 0xF36 JUMP JUMPDEST SWAP2 POP POP SWAP3 POP SWAP3 SWAP1 POP JUMP JUMPDEST PUSH32 0x4E487B7100000000000000000000000000000000000000000000000000000000 PUSH1 0x0 MSTORE PUSH1 0x22 PUSH1 0x4 MSTORE PUSH1 0x24 PUSH1 0x0 REVERT JUMPDEST PUSH1 0x0 PUSH1 0x2 DUP3 DIV SWAP1 POP PUSH1 0x1 DUP3 AND DUP1 PUSH2 0x118C JUMPI PUSH1 0x7F DUP3 AND SWAP2 POP JUMPDEST PUSH1 0x20 DUP3 LT DUP2 SUB PUSH2 0x119F JUMPI PUSH2 0x119E PUSH2 0x1145 JUMP JUMPDEST JUMPDEST POP SWAP2 SWAP1 POP JUMP JUMPDEST PUSH32 0x4E487B7100000000000000000000000000000000000000000000000000000000 PUSH1 0x0 MSTORE PUSH1 0x11 PUSH1 0x4 MSTORE PUSH1 0x24 PUSH1 0x0 REVERT JUMPDEST PUSH1 0x0 PUSH2 0x11DF DUP3 PUSH2 0xF4B JUMP JUMPDEST SWAP2 POP PUSH2 0x11EA DUP4 PUSH2 0xF4B JUMP JUMPDEST SWAP3 POP DUP3 DUP3 ADD SWAP1 POP DUP1 DUP3 GT ISZERO PUSH2 0x1202 JUMPI PUSH2 0x1201 PUSH2 0x11A5 JUMP JUMPDEST JUMPDEST SWAP3 SWAP2 POP POP JUMP JUMPDEST PUSH32 0x45524332303A2064656372656173656420616C6C6F77616E63652062656C6F77 PUSH1 0x0 DUP3 ADD MSTORE PUSH32 0x207A65726F000000000000000000000000000000000000000000000000000000 PUSH1 0x20 DUP3 ADD MSTORE POP JUMP JUMPDEST PUSH1 0x0 PUSH2 0x1264 PUSH1 0x25 DUP4 PUSH2 0xE41 JUMP JUMPDEST SWAP2 POP PUSH2 0x126F DUP3 PUSH2 0x1208 JUMP JUMPDEST PUSH1 0x40 DUP3 ADD SWAP1 POP SWAP2 SWAP1 POP JUMP JUMPDEST PUSH1 0x0 PUSH1 0x20 DUP3 ADD SWAP1 POP DUP2 DUP2 SUB PUSH1 0x0 DUP4 ADD MSTORE PUSH2 0x1293 DUP2 PUSH2 0x1257 JUMP JUMPDEST SWAP1 POP SWAP2 SWAP1 POP JUMP JUMPDEST PUSH32 0x45524332303A20617070726F76652066726F6D20746865207A65726F20616464 PUSH1 0x0 DUP3 ADD MSTORE PUSH32 0x7265737300000000000000000000000000000000000000000000000000000000 PUSH1 0x20 DUP3 ADD MSTORE POP JUMP JUMPDEST PUSH1 0x0 PUSH2 0x12F6 PUSH1 0x24 DUP4 PUSH2 0xE41 JUMP JUMPDEST SWAP2 POP PUSH2 0x1301 DUP3 PUSH2 0x129A JUMP JUMPDEST PUSH1 0x40 DUP3 ADD SWAP1 POP SWAP2 SWAP1 POP JUMP JUMPDEST PUSH1 0x0 PUSH1 0x20 DUP3 ADD SWAP1 POP DUP2 DUP2 SUB PUSH1 0x0 DUP4 ADD MSTORE PUSH2 0x1325 DUP2 PUSH2 0x12E9 JUMP JUMPDEST SWAP1 POP SWAP2 SWAP1 POP JUMP JUMPDEST PUSH32 0x45524332303A20617070726F766520746F20746865207A65726F206164647265 PUSH1 0x0 DUP3 ADD MSTORE PUSH32 0x7373000000000000000000000000000000000000000000000000000000000000 PUSH1 0x20 DUP3 ADD MSTORE POP JUMP JUMPDEST PUSH1 0x0 PUSH2 0x1388 PUSH1 0x22 DUP4 PUSH2 0xE41 JUMP JUMPDEST SWAP2 POP PUSH2 0x1393 DUP3 PUSH2 0x132C JUMP JUMPDEST PUSH1 0x40 DUP3 ADD SWAP1 POP SWAP2 SWAP1 POP JUMP JUMPDEST PUSH1 0x0 PUSH1 0x20 DUP3 ADD SWAP1 POP DUP2 DUP2 SUB PUSH1 0x0 DUP4 ADD MSTORE PUSH2 0x13B7 DUP2 PUSH2 0x137B JUMP JUMPDEST SWAP1 POP SWAP2 SWAP1 POP JUMP JUMPDEST PUSH32 0x45524332303A20696E73756666696369656E7420616C6C6F77616E6365000000 PUSH1 0x0 DUP3 ADD MSTORE POP JUMP JUMPDEST PUSH1 0x0 PUSH2 0x13F4 PUSH1 0x1D DUP4 PUSH2 0xE41 JUMP JUMPDEST SWAP2 POP PUSH2 0x13FF DUP3 PUSH2 0x13BE JUMP JUMPDEST PUSH1 0x20 DUP3 ADD SWAP1 POP SWAP2 SWAP1 POP JUMP JUMPDEST PUSH1 0x0 PUSH1 0x20 DUP3 ADD SWAP1 POP DUP2 DUP2 SUB PUSH1 0x0 DUP4 ADD MSTORE PUSH2 0x1423 DUP2 PUSH2 0x13E7 JUMP JUMPDEST SWAP1 POP SWAP2 SWAP1 POP JUMP JUMPDEST PUSH32 0x45524332303A207472616E736665722066726F6D20746865207A65726F206164 PUSH1 0x0 DUP3 ADD MSTORE PUSH32 0x6472657373000000000000000000000000000000000000000000000000000000 PUSH1 0x20 DUP3 ADD MSTORE POP JUMP JUMPDEST PUSH1 0x0 PUSH2 0x1486 PUSH1 0x25 DUP4 PUSH2 0xE41 JUMP JUMPDEST SWAP2 POP PUSH2 0x1491 DUP3 PUSH2 0x142A JUMP JUMPDEST PUSH1 0x40 DUP3 ADD SWAP1 POP SWAP2 SWAP1 POP JUMP JUMPDEST PUSH1 0x0 PUSH1 0x20 DUP3 ADD SWAP1 POP DUP2 DUP2 SUB PUSH1 0x0 DUP4 ADD MSTORE PUSH2 0x14B5 DUP2 PUSH2 0x1479 JUMP JUMPDEST SWAP1 POP SWAP2 SWAP1 POP JUMP JUMPDEST PUSH32 0x45524332303A207472616E7366657220746F20746865207A65726F2061646472 PUSH1 0x0 DUP3 ADD MSTORE PUSH32 0x6573730000000000000000000000000000000000000000000000000000000000 PUSH1 0x20 DUP3 ADD MSTORE POP JUMP JUMPDEST PUSH1 0x0 PUSH2 0x1518 PUSH1 0x23 DUP4 PUSH2 0xE41 JUMP JUMPDEST SWAP2 POP PUSH2 0x1523 DUP3 PUSH2 0x14BC JUMP JUMPDEST PUSH1 0x40 DUP3 ADD SWAP1 POP SWAP2 SWAP1 POP JUMP JUMPDEST PUSH1 0x0 PUSH1 0x20 DUP3 ADD SWAP1 POP DUP2 DUP2 SUB PUSH1 0x0 DUP4 ADD MSTORE PUSH2 0x1547 DUP2 PUSH2 0x150B JUMP JUMPDEST SWAP1 POP SWAP2 SWAP1 POP JUMP JUMPDEST PUSH32 0x45524332303A207472616E7366657220616D6F756E7420657863656564732062 PUSH1 0x0 DUP3 ADD MSTORE PUSH32 0x616C616E63650000000000000000000000000000000000000000000000000000 PUSH1 0x20 DUP3 ADD MSTORE POP JUMP JUMPDEST PUSH1 0x0 PUSH2 0x15AA PUSH1 0x26 DUP4 PUSH2 0xE41 JUMP JUMPDEST SWAP2 POP PUSH2 0x15B5 DUP3 PUSH2 0x154E JUMP JUMPDEST PUSH1 0x40 DUP3 ADD SWAP1 POP SWAP2 SWAP1 POP JUMP JUMPDEST PUSH1 0x0 PUSH1 0x20 DUP3 ADD SWAP1 POP DUP2 DUP2 SUB PUSH1 0x0 DUP4 ADD MSTORE PUSH2 0x15D9 DUP2 PUSH2 0x159D JUMP JUMPDEST SWAP1 POP SWAP2 SWAP1 POP JUMP JUMPDEST PUSH1 0x0 PUSH2 0x15EB DUP3 PUSH2 0xF4B JUMP JUMPDEST SWAP2 POP PUSH2 0x15F6 DUP4 PUSH2 0xF4B JUMP JUMPDEST SWAP3 POP DUP3 DUP3 MUL PUSH2 0x1604 DUP2 PUSH2 0xF4B JUMP JUMPDEST SWAP2 POP DUP3 DUP3 DIV DUP5 EQ DUP4 ISZERO OR PUSH2 0x161B JUMPI PUSH2 0x161A PUSH2 0x11A5 JUMP JUMPDEST JUMPDEST POP SWAP3 SWAP2 POP POP JUMP JUMPDEST PUSH32 0x4E487B7100000000000000000000000000000000000000000000000000000000 PUSH1 0x0 MSTORE PUSH1 0x12 PUSH1 0x4 MSTORE PUSH1 0x24 PUSH1 0x0 REVERT JUMPDEST PUSH1 0x0 PUSH2 0x165C DUP3 PUSH2 0xF4B JUMP JUMPDEST SWAP2 POP PUSH2 0x1667 DUP4 PUSH2 0xF4B JUMP JUMPDEST SWAP3 POP DUP3 PUSH2 0x1677 JUMPI PUSH2 0x1676 PUSH2 0x1622 JUMP JUMPDEST JUMPDEST DUP3 DUP3 DIV SWAP1 POP SWAP3 SWAP2 POP POP JUMP JUMPDEST PUSH1 0x0 PUSH2 0x168D DUP3 PUSH2 0xF4B JUMP JUMPDEST SWAP2 POP PUSH2 0x1698 DUP4 PUSH2 0xF4B JUMP JUMPDEST SWAP3 POP DUP3 DUP3 SUB SWAP1 POP DUP2 DUP2 GT ISZERO PUSH2 0x16B0 JUMPI PUSH2 0x16AF PUSH2 0x11A5 JUMP JUMPDEST JUMPDEST SWAP3 SWAP2 POP POP JUMP INVALID LOG2 PUSH5 0x6970667358 0x22 SLT KECCAK256 0xF6 PUSH4 0x5BCCFFD5 COINBASE 0xAF DIFFICULTY RETURNDATACOPY 0xB4 PUSH19 0x371AFF355E205F58C6E538B5CF1CC1709A6724 DUP16 PUSH5 0x736F6C6343 STOP ADDMOD GT STOP CALLER "
				},
				"gasEstimates": {
					"creation": {
						"codeDepositCost": "1173600",
						"executionCost": "infinite",
						"totalCost": "infinite"
					},
					"external": {
						"MineStatus(address)": "infinite",
						"allowance(address,address)": "infinite",
						"approve(address,uint256)": "infinite",
						"balanceOf(address)": "2864",
						"blockStatus(uint256)": "infinite",
						"decimals()": "388",
						"decreaseAllowance(address,uint256)": "infinite",
						"difficult(uint256)": "infinite",
						"increaseAllowance(address,uint256)": "infinite",
						"name()": "infinite",
						"symbol()": "infinite",
						"totalSupply()": "2505",
						"transfer(address,uint256)": "infinite",
						"transferFrom(address,address,uint256)": "infinite"
					},
					"internal": {
						"_afterTokenTransfer(address,address,uint256)": "15",
						"_approve(address,address,uint256)": "infinite",
						"_beforeTokenTransfer(address,address,uint256)": "15",
						"_burn(address,uint256)": "infinite",
						"_mint(address,uint256)": "infinite",
						"_spendAllowance(address,address,uint256)": "infinite",
						"_transfer(address,address,uint256)": "infinite"
					}
				},
				"methodIdentifiers": {
					"MineStatus(address)": "b8ba6007",
					"allowance(address,address)": "dd62ed3e",
					"approve(address,uint256)": "095ea7b3",
					"balanceOf(address)": "70a08231",
					"blockStatus(uint256)": "4be3403c",
					"decimals()": "313ce567",
					"decreaseAllowance(address,uint256)": "a457c2d7",
					"difficult(uint256)": "d993226b",
					"increaseAllowance(address,uint256)": "39509351",
					"name()": "06fdde03",
					"symbol()": "95d89b41",
					"totalSupply()": "18160ddd",
					"transfer(address,uint256)": "a9059cbb",
					"transferFrom(address,address,uint256)": "23b872dd"
				}
			},
			"storageLayout": {
				"storage": [
					{
						"astId": 449,
						"contract": "minerpunk/ERC20/MinePower.sol:ERC20",
						"label": "_balances",
						"offset": 0,
						"slot": "0",
						"type": "t_mapping(t_address,t_uint256)"
					},
					{
						"astId": 455,
						"contract": "minerpunk/ERC20/MinePower.sol:ERC20",
						"label": "_allowances",
						"offset": 0,
						"slot": "1",
						"type": "t_mapping(t_address,t_mapping(t_address,t_uint256))"
					},
					{
						"astId": 457,
						"contract": "minerpunk/ERC20/MinePower.sol:ERC20",
						"label": "_totalSupply",
						"offset": 0,
						"slot": "2",
						"type": "t_uint256"
					},
					{
						"astId": 459,
						"contract": "minerpunk/ERC20/MinePower.sol:ERC20",
						"label": "_TokenperBlock",
						"offset": 0,
						"slot": "3",
						"type": "t_uint256"
					},
					{
						"astId": 461,
						"contract": "minerpunk/ERC20/MinePower.sol:ERC20",
						"label": "_startBlockNumber",
						"offset": 0,
						"slot": "4",
						"type": "t_uint256"
					},
					{
						"astId": 463,
						"contract": "minerpunk/ERC20/MinePower.sol:ERC20",
						"label": "_name",
						"offset": 0,
						"slot": "5",
						"type": "t_string_storage"
					},
					{
						"astId": 465,
						"contract": "minerpunk/ERC20/MinePower.sol:ERC20",
						"label": "_symbol",
						"offset": 0,
						"slot": "6",
						"type": "t_string_storage"
					},
					{
						"astId": 472,
						"contract": "minerpunk/ERC20/MinePower.sol:ERC20",
						"label": "_mineInfo",
						"offset": 0,
						"slot": "7",
						"type": "t_mapping(t_address,t_mapping(t_uint256,t_uint256))"
					}
				],
				"types": {
					"t_address": {
						"encoding": "inplace",
						"label": "address",
						"numberOfBytes": "20"
					},
					"t_mapping(t_address,t_mapping(t_address,t_uint256))": {
						"encoding": "mapping",
						"key": "t_address",
						"label": "mapping(address => mapping(address => uint256))",
						"numberOfBytes": "32",
						"value": "t_mapping(t_address,t_uint256)"
					},
					"t_mapping(t_address,t_mapping(t_uint256,t_uint256))": {
						"encoding": "mapping",
						"key": "t_address",
						"label": "mapping(address => mapping(uint256 => uint256))",
						"numberOfBytes": "32",
						"value": "t_mapping(t_uint256,t_uint256)"
					},
					"t_mapping(t_address,t_uint256)": {
						"encoding": "mapping",
						"key": "t_address",
						"label": "mapping(address => uint256)",
						"numberOfBytes": "32",
						"value": "t_uint256"
					},
					"t_mapping(t_uint256,t_uint256)": {
						"encoding": "mapping",
						"key": "t_uint256",
						"label": "mapping(uint256 => uint256)",
						"numberOfBytes": "32",
						"value": "t_uint256"
					},
					"t_string_storage": {
						"encoding": "bytes",
						"label": "string",
						"numberOfBytes": "32"
					},
					"t_uint256": {
						"encoding": "inplace",
						"label": "uint256",
						"numberOfBytes": "32"
					}
				}
			},
			"userdoc": {
				"kind": "user",
				"methods": {
					"constructor": {
						"notice": "[user][1] = last_block      [user][3] = accumulation_DCF    "
					}
				},
				"version": 1
			}
		}
	}
}