{
	"minerpunk/ERC721A/ERC721A.sol": {
		"ERC721A": {
			"abi": [
				{
					"inputs": [
						{
							"internalType": "string",
							"name": "name_",
							"type": "string"
						},
						{
							"internalType": "string",
							"name": "symbol_",
							"type": "string"
						},
						{
							"internalType": "uint256",
							"name": "salt_",
							"type": "uint256"
						}
					],
					"stateMutability": "nonpayable",
					"type": "constructor"
				},
				{
					"inputs": [],
					"name": "ApprovalCallerNotOwnerNorApproved",
					"type": "error"
				},
				{
					"inputs": [],
					"name": "ApprovalQueryForNonexistentToken",
					"type": "error"
				},
				{
					"inputs": [],
					"name": "ApprovalToCurrentOwner",
					"type": "error"
				},
				{
					"inputs": [],
					"name": "ApproveToCaller",
					"type": "error"
				},
				{
					"inputs": [],
					"name": "BalanceQueryForZeroAddress",
					"type": "error"
				},
				{
					"inputs": [],
					"name": "MintToZeroAddress",
					"type": "error"
				},
				{
					"inputs": [],
					"name": "MintZeroQuantity",
					"type": "error"
				},
				{
					"inputs": [],
					"name": "OwnerQueryForNonexistentToken",
					"type": "error"
				},
				{
					"inputs": [],
					"name": "TransferCallerNotOwnerNorApproved",
					"type": "error"
				},
				{
					"inputs": [],
					"name": "TransferFromIncorrectOwner",
					"type": "error"
				},
				{
					"inputs": [],
					"name": "TransferToNonERC721ReceiverImplementer",
					"type": "error"
				},
				{
					"inputs": [],
					"name": "TransferToZeroAddress",
					"type": "error"
				},
				{
					"inputs": [],
					"name": "URIQueryForNonexistentToken",
					"type": "error"
				},
				{
					"anonymous": false,
					"inputs": [
						{
							"indexed": true,
							"internalType": "address",
							"name": "owner",
							"type": "address"
						},
						{
							"indexed": true,
							"internalType": "address",
							"name": "approved",
							"type": "address"
						},
						{
							"indexed": true,
							"internalType": "uint256",
							"name": "tokenId",
							"type": "uint256"
						}
					],
					"name": "Approval",
					"type": "event"
				},
				{
					"anonymous": false,
					"inputs": [
						{
							"indexed": true,
							"internalType": "address",
							"name": "owner",
							"type": "address"
						},
						{
							"indexed": true,
							"internalType": "address",
							"name": "operator",
							"type": "address"
						},
						{
							"indexed": false,
							"internalType": "bool",
							"name": "approved",
							"type": "bool"
						}
					],
					"name": "ApprovalForAll",
					"type": "event"
				},
				{
					"anonymous": false,
					"inputs": [
						{
							"indexed": true,
							"internalType": "address",
							"name": "from",
							"type": "address"
						},
						{
							"indexed": true,
							"internalType": "address",
							"name": "to",
							"type": "address"
						},
						{
							"indexed": true,
							"internalType": "uint256",
							"name": "tokenId",
							"type": "uint256"
						}
					],
					"name": "Transfer",
					"type": "event"
				},
				{
					"inputs": [
						{
							"internalType": "address",
							"name": "user",
							"type": "address"
						}
					],
					"name": "MineStatus",
					"outputs": [
						{
							"internalType": "uint256",
							"name": "",
							"type": "uint256"
						}
					],
					"stateMutability": "view",
					"type": "function"
				},
				{
					"inputs": [
						{
							"internalType": "address",
							"name": "to",
							"type": "address"
						},
						{
							"internalType": "uint256",
							"name": "tokenId",
							"type": "uint256"
						}
					],
					"name": "approve",
					"outputs": [],
					"stateMutability": "nonpayable",
					"type": "function"
				},
				{
					"inputs": [
						{
							"internalType": "address",
							"name": "owner",
							"type": "address"
						}
					],
					"name": "balanceOf",
					"outputs": [
						{
							"internalType": "uint256",
							"name": "",
							"type": "uint256"
						}
					],
					"stateMutability": "view",
					"type": "function"
				},
				{
					"inputs": [
						{
							"internalType": "uint256",
							"name": "_BlockNumber",
							"type": "uint256"
						}
					],
					"name": "blockStatus",
					"outputs": [
						{
							"internalType": "uint256",
							"name": "",
							"type": "uint256"
						}
					],
					"stateMutability": "view",
					"type": "function"
				},
				{
					"inputs": [
						{
							"internalType": "uint256",
							"name": "_BlockNumber",
							"type": "uint256"
						}
					],
					"name": "difficult",
					"outputs": [
						{
							"internalType": "uint256",
							"name": "",
							"type": "uint256"
						}
					],
					"stateMutability": "view",
					"type": "function"
				},
				{
					"inputs": [
						{
							"internalType": "uint256",
							"name": "tokenId",
							"type": "uint256"
						}
					],
					"name": "getApproved",
					"outputs": [
						{
							"internalType": "address",
							"name": "",
							"type": "address"
						}
					],
					"stateMutability": "view",
					"type": "function"
				},
				{
					"inputs": [
						{
							"internalType": "address",
							"name": "owner",
							"type": "address"
						},
						{
							"internalType": "address",
							"name": "operator",
							"type": "address"
						}
					],
					"name": "isApprovedForAll",
					"outputs": [
						{
							"internalType": "bool",
							"name": "",
							"type": "bool"
						}
					],
					"stateMutability": "view",
					"type": "function"
				},
				{
					"inputs": [],
					"name": "maxSupply",
					"outputs": [
						{
							"internalType": "uint256",
							"name": "",
							"type": "uint256"
						}
					],
					"stateMutability": "view",
					"type": "function"
				},
				{
					"inputs": [
						{
							"internalType": "address",
							"name": "user",
							"type": "address"
						},
						{
							"internalType": "uint256",
							"name": "number",
							"type": "uint256"
						}
					],
					"name": "mineInfo",
					"outputs": [
						{
							"internalType": "uint256",
							"name": "",
							"type": "uint256"
						}
					],
					"stateMutability": "view",
					"type": "function"
				},
				{
					"inputs": [],
					"name": "name",
					"outputs": [
						{
							"internalType": "string",
							"name": "",
							"type": "string"
						}
					],
					"stateMutability": "view",
					"type": "function"
				},
				{
					"inputs": [
						{
							"internalType": "uint256",
							"name": "tokenId",
							"type": "uint256"
						}
					],
					"name": "ownerOf",
					"outputs": [
						{
							"internalType": "address",
							"name": "",
							"type": "address"
						}
					],
					"stateMutability": "view",
					"type": "function"
				},
				{
					"inputs": [
						{
							"internalType": "address",
							"name": "from",
							"type": "address"
						},
						{
							"internalType": "address",
							"name": "to",
							"type": "address"
						},
						{
							"internalType": "uint256",
							"name": "tokenId",
							"type": "uint256"
						}
					],
					"name": "safeTransferFrom",
					"outputs": [],
					"stateMutability": "nonpayable",
					"type": "function"
				},
				{
					"inputs": [
						{
							"internalType": "address",
							"name": "from",
							"type": "address"
						},
						{
							"internalType": "address",
							"name": "to",
							"type": "address"
						},
						{
							"internalType": "uint256",
							"name": "tokenId",
							"type": "uint256"
						},
						{
							"internalType": "bytes",
							"name": "_data",
							"type": "bytes"
						}
					],
					"name": "safeTransferFrom",
					"outputs": [],
					"stateMutability": "nonpayable",
					"type": "function"
				},
				{
					"inputs": [
						{
							"internalType": "address",
							"name": "operator",
							"type": "address"
						},
						{
							"internalType": "bool",
							"name": "approved",
							"type": "bool"
						}
					],
					"name": "setApprovalForAll",
					"outputs": [],
					"stateMutability": "nonpayable",
					"type": "function"
				},
				{
					"inputs": [
						{
							"internalType": "bytes4",
							"name": "interfaceId",
							"type": "bytes4"
						}
					],
					"name": "supportsInterface",
					"outputs": [
						{
							"internalType": "bool",
							"name": "",
							"type": "bool"
						}
					],
					"stateMutability": "view",
					"type": "function"
				},
				{
					"inputs": [],
					"name": "symbol",
					"outputs": [
						{
							"internalType": "string",
							"name": "",
							"type": "string"
						}
					],
					"stateMutability": "view",
					"type": "function"
				},
				{
					"inputs": [
						{
							"internalType": "uint256",
							"name": "tokenId",
							"type": "uint256"
						}
					],
					"name": "tokenIDPower",
					"outputs": [
						{
							"internalType": "uint256",
							"name": "",
							"type": "uint256"
						}
					],
					"stateMutability": "view",
					"type": "function"
				},
				{
					"inputs": [
						{
							"internalType": "uint256",
							"name": "tokenId",
							"type": "uint256"
						}
					],
					"name": "tokenURI",
					"outputs": [
						{
							"internalType": "string",
							"name": "",
							"type": "string"
						}
					],
					"stateMutability": "view",
					"type": "function"
				},
				{
					"inputs": [],
					"name": "totalDugUp",
					"outputs": [
						{
							"internalType": "uint256",
							"name": "",
							"type": "uint256"
						}
					],
					"stateMutability": "view",
					"type": "function"
				},
				{
					"inputs": [],
					"name": "totalPower",
					"outputs": [
						{
							"internalType": "uint256",
							"name": "",
							"type": "uint256"
						}
					],
					"stateMutability": "view",
					"type": "function"
				},
				{
					"inputs": [],
					"name": "totalSupply",
					"outputs": [
						{
							"internalType": "uint256",
							"name": "",
							"type": "uint256"
						}
					],
					"stateMutability": "view",
					"type": "function"
				},
				{
					"inputs": [
						{
							"internalType": "address",
							"name": "from",
							"type": "address"
						},
						{
							"internalType": "address",
							"name": "to",
							"type": "address"
						},
						{
							"internalType": "uint256",
							"name": "tokenId",
							"type": "uint256"
						}
					],
					"name": "transferFrom",
					"outputs": [],
					"stateMutability": "nonpayable",
					"type": "function"
				}
			],
			"devdoc": {
				"details": "Implementation of https://eips.ethereum.org/EIPS/eip-721[ERC721] Non-Fungible Token Standard, including the Metadata extension. Built to optimize for lower gas during batch mints. Assumes serials are sequentially minted starting at _startTokenId() (defaults to 0, e.g. 0, 1, 2, 3..). Assumes that an owner cannot have more than 2**64 - 1 (max value of uint64) of supply. Assumes that the maximum token id cannot exceed 2**256 - 1 (max value of uint256).",
				"kind": "dev",
				"methods": {
					"approve(address,uint256)": {
						"details": "See {IERC721-approve}."
					},
					"balanceOf(address)": {
						"details": "See {IERC721-balanceOf}."
					},
					"getApproved(uint256)": {
						"details": "See {IERC721-getApproved}."
					},
					"isApprovedForAll(address,address)": {
						"details": "See {IERC721-isApprovedForAll}."
					},
					"name()": {
						"details": "See {IERC721Metadata-name}."
					},
					"ownerOf(uint256)": {
						"details": "See {IERC721-ownerOf}."
					},
					"safeTransferFrom(address,address,uint256)": {
						"details": "See {IERC721-safeTransferFrom}."
					},
					"safeTransferFrom(address,address,uint256,bytes)": {
						"details": "See {IERC721-safeTransferFrom}."
					},
					"setApprovalForAll(address,bool)": {
						"details": "See {IERC721-setApprovalForAll}."
					},
					"supportsInterface(bytes4)": {
						"details": "See {IERC165-supportsInterface}."
					},
					"symbol()": {
						"details": "See {IERC721Metadata-symbol}."
					},
					"tokenURI(uint256)": {
						"details": "See {IERC721Metadata-tokenURI}."
					},
					"totalSupply()": {
						"details": "Burned tokens are calculated here, use _totalMinted() if you want to count just minted tokens."
					},
					"transferFrom(address,address,uint256)": {
						"details": "See {IERC721-transferFrom}."
					}
				},
				"version": 1
			},
			"evm": {
				"assembly": "    /* \"minerpunk/ERC721A/ERC721A.sol\":1033:25096  contract ERC721A is Context, ERC165, IERC721A,mine {... */\n  mstore(0x40, 0x80)\n    /* \"minerpunk/ERC721A/ERC721A.sol\":2455:2797  constructor(string memory name_, string memory symbol_, uint256 salt_) {... */\n  callvalue\n  dup1\n  iszero\n  tag_1\n  jumpi\n  0x00\n  dup1\n  revert\ntag_1:\n  pop\n  mload(0x40)\n  sub(codesize, bytecodeSize)\n  dup1\n  bytecodeSize\n  dup4\n  codecopy\n  dup2\n  dup2\n  add\n  0x40\n  mstore\n  dup2\n  add\n  swap1\n  tag_2\n  swap2\n  swap1\n  tag_3\n  jump\t// in\ntag_2:\n    /* \"minerpunk/ERC721A/ERC721A.sol\":2545:2550  name_ */\n  dup3\n    /* \"minerpunk/ERC721A/ERC721A.sol\":2537:2542  _name */\n  0x07\n    /* \"minerpunk/ERC721A/ERC721A.sol\":2537:2550  _name = name_ */\n  swap1\n  dup2\n  tag_6\n  swap2\n  swap1\n  tag_7\n  jump\t// in\ntag_6:\n  pop\n    /* \"minerpunk/ERC721A/ERC721A.sol\":2571:2578  symbol_ */\n  dup2\n    /* \"minerpunk/ERC721A/ERC721A.sol\":2561:2568  _symbol */\n  0x08\n    /* \"minerpunk/ERC721A/ERC721A.sol\":2561:2578  _symbol = symbol_ */\n  swap1\n  dup2\n  tag_8\n  swap2\n  swap1\n  tag_7\n  jump\t// in\ntag_8:\n  pop\n    /* \"minerpunk/ERC721A/ERC721A.sol\":2602:2607  10000 */\n  0x2710\n    /* \"minerpunk/ERC721A/ERC721A.sol\":2589:2599  _maxSupply */\n  0x05\n    /* \"minerpunk/ERC721A/ERC721A.sol\":2589:2607  _maxSupply = 10000 */\n  dup2\n  swap1\n  sstore\n  pop\n    /* \"minerpunk/ERC721A/ERC721A.sol\":2634:2649  _startTokenId() */\n  tag_9\n    /* \"minerpunk/ERC721A/ERC721A.sol\":2634:2647  _startTokenId */\n  shl(0x20, tag_10)\n    /* \"minerpunk/ERC721A/ERC721A.sol\":2634:2649  _startTokenId() */\n  0x20\n  shr\n  jump\t// in\ntag_9:\n    /* \"minerpunk/ERC721A/ERC721A.sol\":2618:2631  _currentIndex */\n  0x04\n    /* \"minerpunk/ERC721A/ERC721A.sol\":2618:2649  _currentIndex = _startTokenId() */\n  dup2\n  swap1\n  sstore\n  pop\n    /* \"minerpunk/ERC721A/ERC721A.sol\":2669:2674  salt_ */\n  dup1\n    /* \"minerpunk/ERC721A/ERC721A.sol\":2661:2666  _salt */\n  0x00\n    /* \"minerpunk/ERC721A/ERC721A.sol\":2661:2674  _salt = salt_ */\n  dup2\n  swap1\n  sstore\n  pop\n    /* \"minerpunk/ERC721A/ERC721A.sol\":2705:2709  5e18 */\n  0x4563918244f40000\n    /* \"minerpunk/ERC721A/ERC721A.sol\":2688:2702  _TokenperBlock */\n  0x01\n    /* \"minerpunk/ERC721A/ERC721A.sol\":2688:2709  _TokenperBlock = 5e18 */\n  dup2\n  swap1\n  sstore\n  pop\n    /* \"minerpunk/ERC721A/ERC721A.sol\":2737:2742  46000 */\n  0xb3b0\n    /* \"minerpunk/ERC721A/ERC721A.sol\":2723:2734  _totalPower */\n  0x03\n    /* \"minerpunk/ERC721A/ERC721A.sol\":2723:2742  _totalPower = 46000 */\n  dup2\n  swap1\n  sstore\n  pop\n    /* \"minerpunk/ERC721A/ERC721A.sol\":2773:2785  block.number */\n  number\n    /* \"minerpunk/ERC721A/ERC721A.sol\":2753:2770  _startBlockNumber */\n  0x02\n    /* \"minerpunk/ERC721A/ERC721A.sol\":2753:2785  _startBlockNumber = block.number */\n  dup2\n  swap1\n  sstore\n  pop\n    /* \"minerpunk/ERC721A/ERC721A.sol\":2455:2797  constructor(string memory name_, string memory symbol_, uint256 salt_) {... */\n  pop\n  pop\n  pop\n    /* \"minerpunk/ERC721A/ERC721A.sol\":1033:25096  contract ERC721A is Context, ERC165, IERC721A,mine {... */\n  jump(tag_11)\n    /* \"minerpunk/ERC721A/ERC721A.sol\":4938:5030  function _startTokenId() internal view virtual returns (uint256) {... */\ntag_10:\n    /* \"minerpunk/ERC721A/ERC721A.sol\":4994:5001  uint256 */\n  0x00\n    /* \"minerpunk/ERC721A/ERC721A.sol\":4938:5030  function _startTokenId() internal view virtual returns (uint256) {... */\n  swap1\n  jump\t// out\n    /* \"#utility.yul\":7:82   */\ntag_13:\n    /* \"#utility.yul\":40:46   */\n  0x00\n    /* \"#utility.yul\":73:75   */\n  0x40\n    /* \"#utility.yul\":67:76   */\n  mload\n    /* \"#utility.yul\":57:76   */\n  swap1\n  pop\n    /* \"#utility.yul\":7:82   */\n  swap1\n  jump\t// out\n    /* \"#utility.yul\":88:205   */\ntag_14:\n    /* \"#utility.yul\":197:198   */\n  0x00\n    /* \"#utility.yul\":194:195   */\n  dup1\n    /* \"#utility.yul\":187:199   */\n  revert\n    /* \"#utility.yul\":211:328   */\ntag_15:\n    /* \"#utility.yul\":320:321   */\n  0x00\n    /* \"#utility.yul\":317:318   */\n  dup1\n    /* \"#utility.yul\":310:322   */\n  revert\n    /* \"#utility.yul\":334:451   */\ntag_16:\n    /* \"#utility.yul\":443:444   */\n  0x00\n    /* \"#utility.yul\":440:441   */\n  dup1\n    /* \"#utility.yul\":433:445   */\n  revert\n    /* \"#utility.yul\":457:574   */\ntag_17:\n    /* \"#utility.yul\":566:567   */\n  0x00\n    /* \"#utility.yul\":563:564   */\n  dup1\n    /* \"#utility.yul\":556:568   */\n  revert\n    /* \"#utility.yul\":580:682   */\ntag_18:\n    /* \"#utility.yul\":621:627   */\n  0x00\n    /* \"#utility.yul\":672:674   */\n  0x1f\n    /* \"#utility.yul\":668:675   */\n  not\n    /* \"#utility.yul\":663:665   */\n  0x1f\n    /* \"#utility.yul\":656:661   */\n  dup4\n    /* \"#utility.yul\":652:666   */\n  add\n    /* \"#utility.yul\":648:676   */\n  and\n    /* \"#utility.yul\":638:676   */\n  swap1\n  pop\n    /* \"#utility.yul\":580:682   */\n  swap2\n  swap1\n  pop\n  jump\t// out\n    /* \"#utility.yul\":688:868   */\ntag_19:\n    /* \"#utility.yul\":736:813   */\n  0x4e487b7100000000000000000000000000000000000000000000000000000000\n    /* \"#utility.yul\":733:734   */\n  0x00\n    /* \"#utility.yul\":726:814   */\n  mstore\n    /* \"#utility.yul\":833:837   */\n  0x41\n    /* \"#utility.yul\":830:831   */\n  0x04\n    /* \"#utility.yul\":823:838   */\n  mstore\n    /* \"#utility.yul\":857:861   */\n  0x24\n    /* \"#utility.yul\":854:855   */\n  0x00\n    /* \"#utility.yul\":847:862   */\n  revert\n    /* \"#utility.yul\":874:1155   */\ntag_20:\n    /* \"#utility.yul\":957:984   */\n  tag_56\n    /* \"#utility.yul\":979:983   */\n  dup3\n    /* \"#utility.yul\":957:984   */\n  tag_18\n  jump\t// in\ntag_56:\n    /* \"#utility.yul\":949:955   */\n  dup2\n    /* \"#utility.yul\":945:985   */\n  add\n    /* \"#utility.yul\":1087:1093   */\n  dup2\n    /* \"#utility.yul\":1075:1085   */\n  dup2\n    /* \"#utility.yul\":1072:1094   */\n  lt\n    /* \"#utility.yul\":1051:1069   */\n  0xffffffffffffffff\n    /* \"#utility.yul\":1039:1049   */\n  dup3\n    /* \"#utility.yul\":1036:1070   */\n  gt\n    /* \"#utility.yul\":1033:1095   */\n  or\n    /* \"#utility.yul\":1030:1118   */\n  iszero\n  tag_57\n  jumpi\n    /* \"#utility.yul\":1098:1116   */\n  tag_58\n  tag_19\n  jump\t// in\ntag_58:\n    /* \"#utility.yul\":1030:1118   */\ntag_57:\n    /* \"#utility.yul\":1138:1148   */\n  dup1\n    /* \"#utility.yul\":1134:1136   */\n  0x40\n    /* \"#utility.yul\":1127:1149   */\n  mstore\n    /* \"#utility.yul\":917:1155   */\n  pop\n    /* \"#utility.yul\":874:1155   */\n  pop\n  pop\n  jump\t// out\n    /* \"#utility.yul\":1161:1290   */\ntag_21:\n    /* \"#utility.yul\":1195:1201   */\n  0x00\n    /* \"#utility.yul\":1222:1242   */\n  tag_60\n  tag_13\n  jump\t// in\ntag_60:\n    /* \"#utility.yul\":1212:1242   */\n  swap1\n  pop\n    /* \"#utility.yul\":1251:1284   */\n  tag_61\n    /* \"#utility.yul\":1279:1283   */\n  dup3\n    /* \"#utility.yul\":1271:1277   */\n  dup3\n    /* \"#utility.yul\":1251:1284   */\n  tag_20\n  jump\t// in\ntag_61:\n    /* \"#utility.yul\":1161:1290   */\n  swap2\n  swap1\n  pop\n  jump\t// out\n    /* \"#utility.yul\":1296:1604   */\ntag_22:\n    /* \"#utility.yul\":1358:1362   */\n  0x00\n    /* \"#utility.yul\":1448:1466   */\n  0xffffffffffffffff\n    /* \"#utility.yul\":1440:1446   */\n  dup3\n    /* \"#utility.yul\":1437:1467   */\n  gt\n    /* \"#utility.yul\":1434:1490   */\n  iszero\n  tag_63\n  jumpi\n    /* \"#utility.yul\":1470:1488   */\n  tag_64\n  tag_19\n  jump\t// in\ntag_64:\n    /* \"#utility.yul\":1434:1490   */\ntag_63:\n    /* \"#utility.yul\":1508:1537   */\n  tag_65\n    /* \"#utility.yul\":1530:1536   */\n  dup3\n    /* \"#utility.yul\":1508:1537   */\n  tag_18\n  jump\t// in\ntag_65:\n    /* \"#utility.yul\":1500:1537   */\n  swap1\n  pop\n    /* \"#utility.yul\":1592:1596   */\n  0x20\n    /* \"#utility.yul\":1586:1590   */\n  dup2\n    /* \"#utility.yul\":1582:1597   */\n  add\n    /* \"#utility.yul\":1574:1597   */\n  swap1\n  pop\n    /* \"#utility.yul\":1296:1604   */\n  swap2\n  swap1\n  pop\n  jump\t// out\n    /* \"#utility.yul\":1610:1856   */\ntag_23:\n    /* \"#utility.yul\":1691:1692   */\n  0x00\n    /* \"#utility.yul\":1701:1814   */\ntag_67:\n    /* \"#utility.yul\":1715:1721   */\n  dup4\n    /* \"#utility.yul\":1712:1713   */\n  dup2\n    /* \"#utility.yul\":1709:1722   */\n  lt\n    /* \"#utility.yul\":1701:1814   */\n  iszero\n  tag_69\n  jumpi\n    /* \"#utility.yul\":1800:1801   */\n  dup1\n    /* \"#utility.yul\":1795:1798   */\n  dup3\n    /* \"#utility.yul\":1791:1802   */\n  add\n    /* \"#utility.yul\":1785:1803   */\n  mload\n    /* \"#utility.yul\":1781:1782   */\n  dup2\n    /* \"#utility.yul\":1776:1779   */\n  dup5\n    /* \"#utility.yul\":1772:1783   */\n  add\n    /* \"#utility.yul\":1765:1804   */\n  mstore\n    /* \"#utility.yul\":1737:1739   */\n  0x20\n    /* \"#utility.yul\":1734:1735   */\n  dup2\n    /* \"#utility.yul\":1730:1740   */\n  add\n    /* \"#utility.yul\":1725:1740   */\n  swap1\n  pop\n    /* \"#utility.yul\":1701:1814   */\n  jump(tag_67)\ntag_69:\n    /* \"#utility.yul\":1848:1849   */\n  0x00\n    /* \"#utility.yul\":1839:1845   */\n  dup5\n    /* \"#utility.yul\":1834:1837   */\n  dup5\n    /* \"#utility.yul\":1830:1846   */\n  add\n    /* \"#utility.yul\":1823:1850   */\n  mstore\n    /* \"#utility.yul\":1672:1856   */\n  pop\n    /* \"#utility.yul\":1610:1856   */\n  pop\n  pop\n  pop\n  jump\t// out\n    /* \"#utility.yul\":1862:2296   */\ntag_24:\n    /* \"#utility.yul\":1951:1956   */\n  0x00\n    /* \"#utility.yul\":1976:2042   */\n  tag_71\n    /* \"#utility.yul\":1992:2041   */\n  tag_72\n    /* \"#utility.yul\":2034:2040   */\n  dup5\n    /* \"#utility.yul\":1992:2041   */\n  tag_22\n  jump\t// in\ntag_72:\n    /* \"#utility.yul\":1976:2042   */\n  tag_21\n  jump\t// in\ntag_71:\n    /* \"#utility.yul\":1967:2042   */\n  swap1\n  pop\n    /* \"#utility.yul\":2065:2071   */\n  dup3\n    /* \"#utility.yul\":2058:2063   */\n  dup2\n    /* \"#utility.yul\":2051:2072   */\n  mstore\n    /* \"#utility.yul\":2103:2107   */\n  0x20\n    /* \"#utility.yul\":2096:2101   */\n  dup2\n    /* \"#utility.yul\":2092:2108   */\n  add\n    /* \"#utility.yul\":2141:2144   */\n  dup5\n    /* \"#utility.yul\":2132:2138   */\n  dup5\n    /* \"#utility.yul\":2127:2130   */\n  dup5\n    /* \"#utility.yul\":2123:2139   */\n  add\n    /* \"#utility.yul\":2120:2145   */\n  gt\n    /* \"#utility.yul\":2117:2229   */\n  iszero\n  tag_73\n  jumpi\n    /* \"#utility.yul\":2148:2227   */\n  tag_74\n  tag_17\n  jump\t// in\ntag_74:\n    /* \"#utility.yul\":2117:2229   */\ntag_73:\n    /* \"#utility.yul\":2238:2290   */\n  tag_75\n    /* \"#utility.yul\":2283:2289   */\n  dup5\n    /* \"#utility.yul\":2278:2281   */\n  dup3\n    /* \"#utility.yul\":2273:2276   */\n  dup6\n    /* \"#utility.yul\":2238:2290   */\n  tag_23\n  jump\t// in\ntag_75:\n    /* \"#utility.yul\":1957:2296   */\n  pop\n    /* \"#utility.yul\":1862:2296   */\n  swap4\n  swap3\n  pop\n  pop\n  pop\n  jump\t// out\n    /* \"#utility.yul\":2316:2671   */\ntag_25:\n    /* \"#utility.yul\":2383:2388   */\n  0x00\n    /* \"#utility.yul\":2432:2435   */\n  dup3\n    /* \"#utility.yul\":2425:2429   */\n  0x1f\n    /* \"#utility.yul\":2417:2423   */\n  dup4\n    /* \"#utility.yul\":2413:2430   */\n  add\n    /* \"#utility.yul\":2409:2436   */\n  slt\n    /* \"#utility.yul\":2399:2521   */\n  tag_77\n  jumpi\n    /* \"#utility.yul\":2440:2519   */\n  tag_78\n  tag_16\n  jump\t// in\ntag_78:\n    /* \"#utility.yul\":2399:2521   */\ntag_77:\n    /* \"#utility.yul\":2550:2556   */\n  dup2\n    /* \"#utility.yul\":2544:2557   */\n  mload\n    /* \"#utility.yul\":2575:2665   */\n  tag_79\n    /* \"#utility.yul\":2661:2664   */\n  dup5\n    /* \"#utility.yul\":2653:2659   */\n  dup3\n    /* \"#utility.yul\":2646:2650   */\n  0x20\n    /* \"#utility.yul\":2638:2644   */\n  dup7\n    /* \"#utility.yul\":2634:2651   */\n  add\n    /* \"#utility.yul\":2575:2665   */\n  tag_24\n  jump\t// in\ntag_79:\n    /* \"#utility.yul\":2566:2665   */\n  swap2\n  pop\n    /* \"#utility.yul\":2389:2671   */\n  pop\n    /* \"#utility.yul\":2316:2671   */\n  swap3\n  swap2\n  pop\n  pop\n  jump\t// out\n    /* \"#utility.yul\":2677:2754   */\ntag_26:\n    /* \"#utility.yul\":2714:2721   */\n  0x00\n    /* \"#utility.yul\":2743:2748   */\n  dup2\n    /* \"#utility.yul\":2732:2748   */\n  swap1\n  pop\n    /* \"#utility.yul\":2677:2754   */\n  swap2\n  swap1\n  pop\n  jump\t// out\n    /* \"#utility.yul\":2760:2882   */\ntag_27:\n    /* \"#utility.yul\":2833:2857   */\n  tag_82\n    /* \"#utility.yul\":2851:2856   */\n  dup2\n    /* \"#utility.yul\":2833:2857   */\n  tag_26\n  jump\t// in\ntag_82:\n    /* \"#utility.yul\":2826:2831   */\n  dup2\n    /* \"#utility.yul\":2823:2858   */\n  eq\n    /* \"#utility.yul\":2813:2876   */\n  tag_83\n  jumpi\n    /* \"#utility.yul\":2872:2873   */\n  0x00\n    /* \"#utility.yul\":2869:2870   */\n  dup1\n    /* \"#utility.yul\":2862:2874   */\n  revert\n    /* \"#utility.yul\":2813:2876   */\ntag_83:\n    /* \"#utility.yul\":2760:2882   */\n  pop\n  jump\t// out\n    /* \"#utility.yul\":2888:3031   */\ntag_28:\n    /* \"#utility.yul\":2945:2950   */\n  0x00\n    /* \"#utility.yul\":2976:2982   */\n  dup2\n    /* \"#utility.yul\":2970:2983   */\n  mload\n    /* \"#utility.yul\":2961:2983   */\n  swap1\n  pop\n    /* \"#utility.yul\":2992:3025   */\n  tag_85\n    /* \"#utility.yul\":3019:3024   */\n  dup2\n    /* \"#utility.yul\":2992:3025   */\n  tag_27\n  jump\t// in\ntag_85:\n    /* \"#utility.yul\":2888:3031   */\n  swap3\n  swap2\n  pop\n  pop\n  jump\t// out\n    /* \"#utility.yul\":3037:4046   */\ntag_3:\n    /* \"#utility.yul\":3145:3151   */\n  0x00\n    /* \"#utility.yul\":3153:3159   */\n  dup1\n    /* \"#utility.yul\":3161:3167   */\n  0x00\n    /* \"#utility.yul\":3210:3212   */\n  0x60\n    /* \"#utility.yul\":3198:3207   */\n  dup5\n    /* \"#utility.yul\":3189:3196   */\n  dup7\n    /* \"#utility.yul\":3185:3208   */\n  sub\n    /* \"#utility.yul\":3181:3213   */\n  slt\n    /* \"#utility.yul\":3178:3297   */\n  iszero\n  tag_87\n  jumpi\n    /* \"#utility.yul\":3216:3295   */\n  tag_88\n  tag_14\n  jump\t// in\ntag_88:\n    /* \"#utility.yul\":3178:3297   */\ntag_87:\n    /* \"#utility.yul\":3357:3358   */\n  0x00\n    /* \"#utility.yul\":3346:3355   */\n  dup5\n    /* \"#utility.yul\":3342:3359   */\n  add\n    /* \"#utility.yul\":3336:3360   */\n  mload\n    /* \"#utility.yul\":3387:3405   */\n  0xffffffffffffffff\n    /* \"#utility.yul\":3379:3385   */\n  dup2\n    /* \"#utility.yul\":3376:3406   */\n  gt\n    /* \"#utility.yul\":3373:3490   */\n  iszero\n  tag_89\n  jumpi\n    /* \"#utility.yul\":3409:3488   */\n  tag_90\n  tag_15\n  jump\t// in\ntag_90:\n    /* \"#utility.yul\":3373:3490   */\ntag_89:\n    /* \"#utility.yul\":3514:3588   */\n  tag_91\n    /* \"#utility.yul\":3580:3587   */\n  dup7\n    /* \"#utility.yul\":3571:3577   */\n  dup3\n    /* \"#utility.yul\":3560:3569   */\n  dup8\n    /* \"#utility.yul\":3556:3578   */\n  add\n    /* \"#utility.yul\":3514:3588   */\n  tag_25\n  jump\t// in\ntag_91:\n    /* \"#utility.yul\":3504:3588   */\n  swap4\n  pop\n    /* \"#utility.yul\":3307:3598   */\n  pop\n    /* \"#utility.yul\":3658:3660   */\n  0x20\n    /* \"#utility.yul\":3647:3656   */\n  dup5\n    /* \"#utility.yul\":3643:3661   */\n  add\n    /* \"#utility.yul\":3637:3662   */\n  mload\n    /* \"#utility.yul\":3689:3707   */\n  0xffffffffffffffff\n    /* \"#utility.yul\":3681:3687   */\n  dup2\n    /* \"#utility.yul\":3678:3708   */\n  gt\n    /* \"#utility.yul\":3675:3792   */\n  iszero\n  tag_92\n  jumpi\n    /* \"#utility.yul\":3711:3790   */\n  tag_93\n  tag_15\n  jump\t// in\ntag_93:\n    /* \"#utility.yul\":3675:3792   */\ntag_92:\n    /* \"#utility.yul\":3816:3890   */\n  tag_94\n    /* \"#utility.yul\":3882:3889   */\n  dup7\n    /* \"#utility.yul\":3873:3879   */\n  dup3\n    /* \"#utility.yul\":3862:3871   */\n  dup8\n    /* \"#utility.yul\":3858:3880   */\n  add\n    /* \"#utility.yul\":3816:3890   */\n  tag_25\n  jump\t// in\ntag_94:\n    /* \"#utility.yul\":3806:3890   */\n  swap3\n  pop\n    /* \"#utility.yul\":3608:3900   */\n  pop\n    /* \"#utility.yul\":3939:3941   */\n  0x40\n    /* \"#utility.yul\":3965:4029   */\n  tag_95\n    /* \"#utility.yul\":4021:4028   */\n  dup7\n    /* \"#utility.yul\":4012:4018   */\n  dup3\n    /* \"#utility.yul\":4001:4010   */\n  dup8\n    /* \"#utility.yul\":3997:4019   */\n  add\n    /* \"#utility.yul\":3965:4029   */\n  tag_28\n  jump\t// in\ntag_95:\n    /* \"#utility.yul\":3955:4029   */\n  swap2\n  pop\n    /* \"#utility.yul\":3910:4039   */\n  pop\n    /* \"#utility.yul\":3037:4046   */\n  swap3\n  pop\n  swap3\n  pop\n  swap3\n  jump\t// out\n    /* \"#utility.yul\":4052:4151   */\ntag_29:\n    /* \"#utility.yul\":4104:4110   */\n  0x00\n    /* \"#utility.yul\":4138:4143   */\n  dup2\n    /* \"#utility.yul\":4132:4144   */\n  mload\n    /* \"#utility.yul\":4122:4144   */\n  swap1\n  pop\n    /* \"#utility.yul\":4052:4151   */\n  swap2\n  swap1\n  pop\n  jump\t// out\n    /* \"#utility.yul\":4157:4337   */\ntag_30:\n    /* \"#utility.yul\":4205:4282   */\n  0x4e487b7100000000000000000000000000000000000000000000000000000000\n    /* \"#utility.yul\":4202:4203   */\n  0x00\n    /* \"#utility.yul\":4195:4283   */\n  mstore\n    /* \"#utility.yul\":4302:4306   */\n  0x22\n    /* \"#utility.yul\":4299:4300   */\n  0x04\n    /* \"#utility.yul\":4292:4307   */\n  mstore\n    /* \"#utility.yul\":4326:4330   */\n  0x24\n    /* \"#utility.yul\":4323:4324   */\n  0x00\n    /* \"#utility.yul\":4316:4331   */\n  revert\n    /* \"#utility.yul\":4343:4663   */\ntag_31:\n    /* \"#utility.yul\":4387:4393   */\n  0x00\n    /* \"#utility.yul\":4424:4425   */\n  0x02\n    /* \"#utility.yul\":4418:4422   */\n  dup3\n    /* \"#utility.yul\":4414:4426   */\n  div\n    /* \"#utility.yul\":4404:4426   */\n  swap1\n  pop\n    /* \"#utility.yul\":4471:4472   */\n  0x01\n    /* \"#utility.yul\":4465:4469   */\n  dup3\n    /* \"#utility.yul\":4461:4473   */\n  and\n    /* \"#utility.yul\":4492:4510   */\n  dup1\n    /* \"#utility.yul\":4482:4563   */\n  tag_99\n  jumpi\n    /* \"#utility.yul\":4548:4552   */\n  0x7f\n    /* \"#utility.yul\":4540:4546   */\n  dup3\n    /* \"#utility.yul\":4536:4553   */\n  and\n    /* \"#utility.yul\":4526:4553   */\n  swap2\n  pop\n    /* \"#utility.yul\":4482:4563   */\ntag_99:\n    /* \"#utility.yul\":4610:4612   */\n  0x20\n    /* \"#utility.yul\":4602:4608   */\n  dup3\n    /* \"#utility.yul\":4599:4613   */\n  lt\n    /* \"#utility.yul\":4579:4597   */\n  dup2\n    /* \"#utility.yul\":4576:4614   */\n  sub\n    /* \"#utility.yul\":4573:4657   */\n  tag_100\n  jumpi\n    /* \"#utility.yul\":4629:4647   */\n  tag_101\n  tag_30\n  jump\t// in\ntag_101:\n    /* \"#utility.yul\":4573:4657   */\ntag_100:\n    /* \"#utility.yul\":4394:4663   */\n  pop\n    /* \"#utility.yul\":4343:4663   */\n  swap2\n  swap1\n  pop\n  jump\t// out\n    /* \"#utility.yul\":4669:4810   */\ntag_32:\n    /* \"#utility.yul\":4718:4722   */\n  0x00\n    /* \"#utility.yul\":4741:4744   */\n  dup2\n    /* \"#utility.yul\":4733:4744   */\n  swap1\n  pop\n    /* \"#utility.yul\":4764:4767   */\n  dup2\n    /* \"#utility.yul\":4761:4762   */\n  0x00\n    /* \"#utility.yul\":4754:4768   */\n  mstore\n    /* \"#utility.yul\":4798:4802   */\n  0x20\n    /* \"#utility.yul\":4795:4796   */\n  0x00\n    /* \"#utility.yul\":4785:4803   */\n  keccak256\n    /* \"#utility.yul\":4777:4803   */\n  swap1\n  pop\n    /* \"#utility.yul\":4669:4810   */\n  swap2\n  swap1\n  pop\n  jump\t// out\n    /* \"#utility.yul\":4816:4909   */\ntag_33:\n    /* \"#utility.yul\":4853:4859   */\n  0x00\n    /* \"#utility.yul\":4900:4902   */\n  0x20\n    /* \"#utility.yul\":4895:4897   */\n  0x1f\n    /* \"#utility.yul\":4888:4893   */\n  dup4\n    /* \"#utility.yul\":4884:4898   */\n  add\n    /* \"#utility.yul\":4880:4903   */\n  div\n    /* \"#utility.yul\":4870:4903   */\n  swap1\n  pop\n    /* \"#utility.yul\":4816:4909   */\n  swap2\n  swap1\n  pop\n  jump\t// out\n    /* \"#utility.yul\":4915:5022   */\ntag_34:\n    /* \"#utility.yul\":4959:4967   */\n  0x00\n    /* \"#utility.yul\":5009:5014   */\n  dup3\n    /* \"#utility.yul\":5003:5007   */\n  dup3\n    /* \"#utility.yul\":4999:5015   */\n  shl\n    /* \"#utility.yul\":4978:5015   */\n  swap1\n  pop\n    /* \"#utility.yul\":4915:5022   */\n  swap3\n  swap2\n  pop\n  pop\n  jump\t// out\n    /* \"#utility.yul\":5028:5421   */\ntag_35:\n    /* \"#utility.yul\":5097:5103   */\n  0x00\n    /* \"#utility.yul\":5147:5148   */\n  0x08\n    /* \"#utility.yul\":5135:5145   */\n  dup4\n    /* \"#utility.yul\":5131:5149   */\n  mul\n    /* \"#utility.yul\":5170:5267   */\n  tag_106\n    /* \"#utility.yul\":5200:5266   */\n  0xffffffffffffffffffffffffffffffffffffffffffffffffffffffffffffffff\n    /* \"#utility.yul\":5189:5198   */\n  dup3\n    /* \"#utility.yul\":5170:5267   */\n  tag_34\n  jump\t// in\ntag_106:\n    /* \"#utility.yul\":5288:5327   */\n  tag_107\n    /* \"#utility.yul\":5318:5326   */\n  dup7\n    /* \"#utility.yul\":5307:5316   */\n  dup4\n    /* \"#utility.yul\":5288:5327   */\n  tag_34\n  jump\t// in\ntag_107:\n    /* \"#utility.yul\":5276:5327   */\n  swap6\n  pop\n    /* \"#utility.yul\":5360:5364   */\n  dup1\n    /* \"#utility.yul\":5356:5365   */\n  not\n    /* \"#utility.yul\":5349:5354   */\n  dup5\n    /* \"#utility.yul\":5345:5366   */\n  and\n    /* \"#utility.yul\":5336:5366   */\n  swap4\n  pop\n    /* \"#utility.yul\":5409:5413   */\n  dup1\n    /* \"#utility.yul\":5399:5407   */\n  dup7\n    /* \"#utility.yul\":5395:5414   */\n  and\n    /* \"#utility.yul\":5388:5393   */\n  dup5\n    /* \"#utility.yul\":5385:5415   */\n  or\n    /* \"#utility.yul\":5375:5415   */\n  swap3\n  pop\n    /* \"#utility.yul\":5104:5421   */\n  pop\n  pop\n    /* \"#utility.yul\":5028:5421   */\n  swap4\n  swap3\n  pop\n  pop\n  pop\n  jump\t// out\n    /* \"#utility.yul\":5427:5487   */\ntag_36:\n    /* \"#utility.yul\":5455:5458   */\n  0x00\n    /* \"#utility.yul\":5476:5481   */\n  dup2\n    /* \"#utility.yul\":5469:5481   */\n  swap1\n  pop\n    /* \"#utility.yul\":5427:5487   */\n  swap2\n  swap1\n  pop\n  jump\t// out\n    /* \"#utility.yul\":5493:5635   */\ntag_37:\n    /* \"#utility.yul\":5543:5552   */\n  0x00\n    /* \"#utility.yul\":5576:5629   */\n  tag_110\n    /* \"#utility.yul\":5594:5628   */\n  tag_111\n    /* \"#utility.yul\":5603:5627   */\n  tag_112\n    /* \"#utility.yul\":5621:5626   */\n  dup5\n    /* \"#utility.yul\":5603:5627   */\n  tag_26\n  jump\t// in\ntag_112:\n    /* \"#utility.yul\":5594:5628   */\n  tag_36\n  jump\t// in\ntag_111:\n    /* \"#utility.yul\":5576:5629   */\n  tag_26\n  jump\t// in\ntag_110:\n    /* \"#utility.yul\":5563:5629   */\n  swap1\n  pop\n    /* \"#utility.yul\":5493:5635   */\n  swap2\n  swap1\n  pop\n  jump\t// out\n    /* \"#utility.yul\":5641:5716   */\ntag_38:\n    /* \"#utility.yul\":5684:5687   */\n  0x00\n    /* \"#utility.yul\":5705:5710   */\n  dup2\n    /* \"#utility.yul\":5698:5710   */\n  swap1\n  pop\n    /* \"#utility.yul\":5641:5716   */\n  swap2\n  swap1\n  pop\n  jump\t// out\n    /* \"#utility.yul\":5722:5991   */\ntag_39:\n    /* \"#utility.yul\":5832:5871   */\n  tag_115\n    /* \"#utility.yul\":5863:5870   */\n  dup4\n    /* \"#utility.yul\":5832:5871   */\n  tag_37\n  jump\t// in\ntag_115:\n    /* \"#utility.yul\":5893:5984   */\n  tag_116\n    /* \"#utility.yul\":5942:5983   */\n  tag_117\n    /* \"#utility.yul\":5966:5982   */\n  dup3\n    /* \"#utility.yul\":5942:5983   */\n  tag_38\n  jump\t// in\ntag_117:\n    /* \"#utility.yul\":5934:5940   */\n  dup5\n    /* \"#utility.yul\":5927:5931   */\n  dup5\n    /* \"#utility.yul\":5921:5932   */\n  sload\n    /* \"#utility.yul\":5893:5984   */\n  tag_35\n  jump\t// in\ntag_116:\n    /* \"#utility.yul\":5887:5891   */\n  dup3\n    /* \"#utility.yul\":5880:5985   */\n  sstore\n    /* \"#utility.yul\":5798:5991   */\n  pop\n    /* \"#utility.yul\":5722:5991   */\n  pop\n  pop\n  pop\n  jump\t// out\n    /* \"#utility.yul\":5997:6070   */\ntag_40:\n    /* \"#utility.yul\":6042:6045   */\n  0x00\n    /* \"#utility.yul\":5997:6070   */\n  swap1\n  jump\t// out\n    /* \"#utility.yul\":6076:6265   */\ntag_41:\n    /* \"#utility.yul\":6153:6185   */\n  tag_120\n  tag_40\n  jump\t// in\ntag_120:\n    /* \"#utility.yul\":6194:6259   */\n  tag_121\n    /* \"#utility.yul\":6252:6258   */\n  dup2\n    /* \"#utility.yul\":6244:6250   */\n  dup5\n    /* \"#utility.yul\":6238:6242   */\n  dup5\n    /* \"#utility.yul\":6194:6259   */\n  tag_39\n  jump\t// in\ntag_121:\n    /* \"#utility.yul\":6129:6265   */\n  pop\n    /* \"#utility.yul\":6076:6265   */\n  pop\n  pop\n  jump\t// out\n    /* \"#utility.yul\":6271:6457   */\ntag_42:\n    /* \"#utility.yul\":6331:6451   */\ntag_123:\n    /* \"#utility.yul\":6348:6351   */\n  dup2\n    /* \"#utility.yul\":6341:6346   */\n  dup2\n    /* \"#utility.yul\":6338:6352   */\n  lt\n    /* \"#utility.yul\":6331:6451   */\n  iszero\n  tag_125\n  jumpi\n    /* \"#utility.yul\":6402:6441   */\n  tag_126\n    /* \"#utility.yul\":6439:6440   */\n  0x00\n    /* \"#utility.yul\":6432:6437   */\n  dup3\n    /* \"#utility.yul\":6402:6441   */\n  tag_41\n  jump\t// in\ntag_126:\n    /* \"#utility.yul\":6375:6376   */\n  0x01\n    /* \"#utility.yul\":6368:6373   */\n  dup2\n    /* \"#utility.yul\":6364:6377   */\n  add\n    /* \"#utility.yul\":6355:6377   */\n  swap1\n  pop\n    /* \"#utility.yul\":6331:6451   */\n  jump(tag_123)\ntag_125:\n    /* \"#utility.yul\":6271:6457   */\n  pop\n  pop\n  jump\t// out\n    /* \"#utility.yul\":6463:7006   */\ntag_43:\n    /* \"#utility.yul\":6564:6566   */\n  0x1f\n    /* \"#utility.yul\":6559:6562   */\n  dup3\n    /* \"#utility.yul\":6556:6567   */\n  gt\n    /* \"#utility.yul\":6553:6999   */\n  iszero\n  tag_128\n  jumpi\n    /* \"#utility.yul\":6598:6636   */\n  tag_129\n    /* \"#utility.yul\":6630:6635   */\n  dup2\n    /* \"#utility.yul\":6598:6636   */\n  tag_32\n  jump\t// in\ntag_129:\n    /* \"#utility.yul\":6682:6711   */\n  tag_130\n    /* \"#utility.yul\":6700:6710   */\n  dup5\n    /* \"#utility.yul\":6682:6711   */\n  tag_33\n  jump\t// in\ntag_130:\n    /* \"#utility.yul\":6672:6680   */\n  dup2\n    /* \"#utility.yul\":6668:6712   */\n  add\n    /* \"#utility.yul\":6865:6867   */\n  0x20\n    /* \"#utility.yul\":6853:6863   */\n  dup6\n    /* \"#utility.yul\":6850:6868   */\n  lt\n    /* \"#utility.yul\":6847:6896   */\n  iszero\n  tag_131\n  jumpi\n    /* \"#utility.yul\":6886:6894   */\n  dup2\n    /* \"#utility.yul\":6871:6894   */\n  swap1\n  pop\n    /* \"#utility.yul\":6847:6896   */\ntag_131:\n    /* \"#utility.yul\":6909:6989   */\n  tag_132\n    /* \"#utility.yul\":6965:6987   */\n  tag_133\n    /* \"#utility.yul\":6983:6986   */\n  dup6\n    /* \"#utility.yul\":6965:6987   */\n  tag_33\n  jump\t// in\ntag_133:\n    /* \"#utility.yul\":6955:6963   */\n  dup4\n    /* \"#utility.yul\":6951:6988   */\n  add\n    /* \"#utility.yul\":6938:6949   */\n  dup3\n    /* \"#utility.yul\":6909:6989   */\n  tag_42\n  jump\t// in\ntag_132:\n    /* \"#utility.yul\":6568:6999   */\n  pop\n  pop\n    /* \"#utility.yul\":6553:6999   */\ntag_128:\n    /* \"#utility.yul\":6463:7006   */\n  pop\n  pop\n  pop\n  jump\t// out\n    /* \"#utility.yul\":7012:7129   */\ntag_44:\n    /* \"#utility.yul\":7066:7074   */\n  0x00\n    /* \"#utility.yul\":7116:7121   */\n  dup3\n    /* \"#utility.yul\":7110:7114   */\n  dup3\n    /* \"#utility.yul\":7106:7122   */\n  shr\n    /* \"#utility.yul\":7085:7122   */\n  swap1\n  pop\n    /* \"#utility.yul\":7012:7129   */\n  swap3\n  swap2\n  pop\n  pop\n  jump\t// out\n    /* \"#utility.yul\":7135:7304   */\ntag_45:\n    /* \"#utility.yul\":7179:7185   */\n  0x00\n    /* \"#utility.yul\":7212:7263   */\n  tag_136\n    /* \"#utility.yul\":7260:7261   */\n  0x00\n    /* \"#utility.yul\":7256:7262   */\n  not\n    /* \"#utility.yul\":7248:7253   */\n  dup5\n    /* \"#utility.yul\":7245:7246   */\n  0x08\n    /* \"#utility.yul\":7241:7254   */\n  mul\n    /* \"#utility.yul\":7212:7263   */\n  tag_44\n  jump\t// in\ntag_136:\n    /* \"#utility.yul\":7208:7264   */\n  not\n    /* \"#utility.yul\":7293:7297   */\n  dup1\n    /* \"#utility.yul\":7287:7291   */\n  dup4\n    /* \"#utility.yul\":7283:7298   */\n  and\n    /* \"#utility.yul\":7273:7298   */\n  swap2\n  pop\n    /* \"#utility.yul\":7186:7304   */\n  pop\n    /* \"#utility.yul\":7135:7304   */\n  swap3\n  swap2\n  pop\n  pop\n  jump\t// out\n    /* \"#utility.yul\":7309:7604   */\ntag_46:\n    /* \"#utility.yul\":7385:7389   */\n  0x00\n    /* \"#utility.yul\":7531:7560   */\n  tag_138\n    /* \"#utility.yul\":7556:7559   */\n  dup4\n    /* \"#utility.yul\":7550:7554   */\n  dup4\n    /* \"#utility.yul\":7531:7560   */\n  tag_45\n  jump\t// in\ntag_138:\n    /* \"#utility.yul\":7523:7560   */\n  swap2\n  pop\n    /* \"#utility.yul\":7593:7596   */\n  dup3\n    /* \"#utility.yul\":7590:7591   */\n  0x02\n    /* \"#utility.yul\":7586:7597   */\n  mul\n    /* \"#utility.yul\":7580:7584   */\n  dup3\n    /* \"#utility.yul\":7577:7598   */\n  or\n    /* \"#utility.yul\":7569:7598   */\n  swap1\n  pop\n    /* \"#utility.yul\":7309:7604   */\n  swap3\n  swap2\n  pop\n  pop\n  jump\t// out\n    /* \"#utility.yul\":7609:9004   */\ntag_7:\n    /* \"#utility.yul\":7726:7763   */\n  tag_140\n    /* \"#utility.yul\":7759:7762   */\n  dup3\n    /* \"#utility.yul\":7726:7763   */\n  tag_29\n  jump\t// in\ntag_140:\n    /* \"#utility.yul\":7828:7846   */\n  0xffffffffffffffff\n    /* \"#utility.yul\":7820:7826   */\n  dup2\n    /* \"#utility.yul\":7817:7847   */\n  gt\n    /* \"#utility.yul\":7814:7870   */\n  iszero\n  tag_141\n  jumpi\n    /* \"#utility.yul\":7850:7868   */\n  tag_142\n  tag_19\n  jump\t// in\ntag_142:\n    /* \"#utility.yul\":7814:7870   */\ntag_141:\n    /* \"#utility.yul\":7894:7932   */\n  tag_143\n    /* \"#utility.yul\":7926:7930   */\n  dup3\n    /* \"#utility.yul\":7920:7931   */\n  sload\n    /* \"#utility.yul\":7894:7932   */\n  tag_31\n  jump\t// in\ntag_143:\n    /* \"#utility.yul\":7979:8046   */\n  tag_144\n    /* \"#utility.yul\":8039:8045   */\n  dup3\n    /* \"#utility.yul\":8031:8037   */\n  dup3\n    /* \"#utility.yul\":8025:8029   */\n  dup6\n    /* \"#utility.yul\":7979:8046   */\n  tag_43\n  jump\t// in\ntag_144:\n    /* \"#utility.yul\":8073:8074   */\n  0x00\n    /* \"#utility.yul\":8097:8101   */\n  0x20\n    /* \"#utility.yul\":8084:8101   */\n  swap1\n  pop\n    /* \"#utility.yul\":8129:8131   */\n  0x1f\n    /* \"#utility.yul\":8121:8127   */\n  dup4\n    /* \"#utility.yul\":8118:8132   */\n  gt\n    /* \"#utility.yul\":8146:8147   */\n  0x01\n    /* \"#utility.yul\":8141:8759   */\n  dup2\n  eq\n  tag_146\n  jumpi\n    /* \"#utility.yul\":8803:8804   */\n  0x00\n    /* \"#utility.yul\":8820:8826   */\n  dup5\n    /* \"#utility.yul\":8817:8894   */\n  iszero\n  tag_147\n  jumpi\n    /* \"#utility.yul\":8869:8878   */\n  dup3\n    /* \"#utility.yul\":8864:8867   */\n  dup8\n    /* \"#utility.yul\":8860:8879   */\n  add\n    /* \"#utility.yul\":8854:8880   */\n  mload\n    /* \"#utility.yul\":8845:8880   */\n  swap1\n  pop\n    /* \"#utility.yul\":8817:8894   */\ntag_147:\n    /* \"#utility.yul\":8920:8987   */\n  tag_148\n    /* \"#utility.yul\":8980:8986   */\n  dup6\n    /* \"#utility.yul\":8973:8978   */\n  dup3\n    /* \"#utility.yul\":8920:8987   */\n  tag_46\n  jump\t// in\ntag_148:\n    /* \"#utility.yul\":8914:8918   */\n  dup7\n    /* \"#utility.yul\":8907:8988   */\n  sstore\n    /* \"#utility.yul\":8776:8998   */\n  pop\n    /* \"#utility.yul\":8111:8998   */\n  jump(tag_145)\n    /* \"#utility.yul\":8141:8759   */\ntag_146:\n    /* \"#utility.yul\":8193:8197   */\n  0x1f\n    /* \"#utility.yul\":8189:8198   */\n  not\n    /* \"#utility.yul\":8181:8187   */\n  dup5\n    /* \"#utility.yul\":8177:8199   */\n  and\n    /* \"#utility.yul\":8227:8264   */\n  tag_149\n    /* \"#utility.yul\":8259:8263   */\n  dup7\n    /* \"#utility.yul\":8227:8264   */\n  tag_32\n  jump\t// in\ntag_149:\n    /* \"#utility.yul\":8286:8287   */\n  0x00\n    /* \"#utility.yul\":8300:8508   */\ntag_150:\n    /* \"#utility.yul\":8314:8321   */\n  dup3\n    /* \"#utility.yul\":8311:8312   */\n  dup2\n    /* \"#utility.yul\":8308:8322   */\n  lt\n    /* \"#utility.yul\":8300:8508   */\n  iszero\n  tag_152\n  jumpi\n    /* \"#utility.yul\":8393:8402   */\n  dup5\n    /* \"#utility.yul\":8388:8391   */\n  dup10\n    /* \"#utility.yul\":8384:8403   */\n  add\n    /* \"#utility.yul\":8378:8404   */\n  mload\n    /* \"#utility.yul\":8370:8376   */\n  dup3\n    /* \"#utility.yul\":8363:8405   */\n  sstore\n    /* \"#utility.yul\":8444:8445   */\n  0x01\n    /* \"#utility.yul\":8436:8442   */\n  dup3\n    /* \"#utility.yul\":8432:8446   */\n  add\n    /* \"#utility.yul\":8422:8446   */\n  swap2\n  pop\n    /* \"#utility.yul\":8491:8493   */\n  0x20\n    /* \"#utility.yul\":8480:8489   */\n  dup6\n    /* \"#utility.yul\":8476:8494   */\n  add\n    /* \"#utility.yul\":8463:8494   */\n  swap5\n  pop\n    /* \"#utility.yul\":8337:8341   */\n  0x20\n    /* \"#utility.yul\":8334:8335   */\n  dup2\n    /* \"#utility.yul\":8330:8342   */\n  add\n    /* \"#utility.yul\":8325:8342   */\n  swap1\n  pop\n    /* \"#utility.yul\":8300:8508   */\n  jump(tag_150)\ntag_152:\n    /* \"#utility.yul\":8536:8542   */\n  dup7\n    /* \"#utility.yul\":8527:8534   */\n  dup4\n    /* \"#utility.yul\":8524:8543   */\n  lt\n    /* \"#utility.yul\":8521:8700   */\n  iszero\n  tag_153\n  jumpi\n    /* \"#utility.yul\":8594:8603   */\n  dup5\n    /* \"#utility.yul\":8589:8592   */\n  dup10\n    /* \"#utility.yul\":8585:8604   */\n  add\n    /* \"#utility.yul\":8579:8605   */\n  mload\n    /* \"#utility.yul\":8637:8685   */\n  tag_154\n    /* \"#utility.yul\":8679:8683   */\n  0x1f\n    /* \"#utility.yul\":8671:8677   */\n  dup10\n    /* \"#utility.yul\":8667:8684   */\n  and\n    /* \"#utility.yul\":8656:8665   */\n  dup3\n    /* \"#utility.yul\":8637:8685   */\n  tag_45\n  jump\t// in\ntag_154:\n    /* \"#utility.yul\":8629:8635   */\n  dup4\n    /* \"#utility.yul\":8622:8686   */\n  sstore\n    /* \"#utility.yul\":8544:8700   */\n  pop\n    /* \"#utility.yul\":8521:8700   */\ntag_153:\n    /* \"#utility.yul\":8746:8747   */\n  0x01\n    /* \"#utility.yul\":8742:8743   */\n  0x02\n    /* \"#utility.yul\":8734:8740   */\n  dup9\n    /* \"#utility.yul\":8730:8744   */\n  mul\n    /* \"#utility.yul\":8726:8748   */\n  add\n    /* \"#utility.yul\":8720:8724   */\n  dup9\n    /* \"#utility.yul\":8713:8749   */\n  sstore\n    /* \"#utility.yul\":8148:8759   */\n  pop\n  pop\n  pop\n    /* \"#utility.yul\":8111:8998   */\ntag_145:\n  pop\n    /* \"#utility.yul\":7701:9004   */\n  pop\n  pop\n  pop\n    /* \"#utility.yul\":7609:9004   */\n  pop\n  pop\n  jump\t// out\n    /* \"minerpunk/ERC721A/ERC721A.sol\":1033:25096  contract ERC721A is Context, ERC165, IERC721A,mine {... */\ntag_11:\n  dataSize(sub_0)\n  dup1\n  dataOffset(sub_0)\n  0x00\n  codecopy\n  0x00\n  return\nstop\n\nsub_0: assembly {\n        /* \"minerpunk/ERC721A/ERC721A.sol\":1033:25096  contract ERC721A is Context, ERC165, IERC721A,mine {... */\n      mstore(0x40, 0x80)\n      callvalue\n      dup1\n      iszero\n      tag_1\n      jumpi\n      0x00\n      dup1\n      revert\n    tag_1:\n      pop\n      jumpi(tag_2, lt(calldatasize, 0x04))\n      shr(0xe0, calldataload(0x00))\n      dup1\n      0xa22cb465\n      gt\n      tag_25\n      jumpi\n      dup1\n      0xd993226b\n      gt\n      tag_26\n      jumpi\n      dup1\n      0xd993226b\n      eq\n      tag_19\n      jumpi\n      dup1\n      0xdb3ad22c\n      eq\n      tag_20\n      jumpi\n      dup1\n      0xe29301f9\n      eq\n      tag_21\n      jumpi\n      dup1\n      0xe8abceee\n      eq\n      tag_22\n      jumpi\n      dup1\n      0xe985e9c5\n      eq\n      tag_23\n      jumpi\n      dup1\n      0xeff0730d\n      eq\n      tag_24\n      jumpi\n      jump(tag_2)\n    tag_26:\n      dup1\n      0xa22cb465\n      eq\n      tag_14\n      jumpi\n      dup1\n      0xb88d4fde\n      eq\n      tag_15\n      jumpi\n      dup1\n      0xb8ba6007\n      eq\n      tag_16\n      jumpi\n      dup1\n      0xc87b56dd\n      eq\n      tag_17\n      jumpi\n      dup1\n      0xd5abeb01\n      eq\n      tag_18\n      jumpi\n      jump(tag_2)\n    tag_25:\n      dup1\n      0x23b872dd\n      gt\n      tag_27\n      jumpi\n      dup1\n      0x23b872dd\n      eq\n      tag_8\n      jumpi\n      dup1\n      0x42842e0e\n      eq\n      tag_9\n      jumpi\n      dup1\n      0x4be3403c\n      eq\n      tag_10\n      jumpi\n      dup1\n      0x6352211e\n      eq\n      tag_11\n      jumpi\n      dup1\n      0x70a08231\n      eq\n      tag_12\n      jumpi\n      dup1\n      0x95d89b41\n      eq\n      tag_13\n      jumpi\n      jump(tag_2)\n    tag_27:\n      dup1\n      0x01ffc9a7\n      eq\n      tag_3\n      jumpi\n      dup1\n      0x06fdde03\n      eq\n      tag_4\n      jumpi\n      dup1\n      0x081812fc\n      eq\n      tag_5\n      jumpi\n      dup1\n      0x095ea7b3\n      eq\n      tag_6\n      jumpi\n      dup1\n      0x18160ddd\n      eq\n      tag_7\n      jumpi\n    tag_2:\n      0x00\n      dup1\n      revert\n        /* \"minerpunk/ERC721A/ERC721A.sol\":6453:6758  function supportsInterface(bytes4 interfaceId) public view virtual override(ERC165, IERC165) returns (bool) {... */\n    tag_3:\n      tag_28\n      0x04\n      dup1\n      calldatasize\n      sub\n      dup2\n      add\n      swap1\n      tag_29\n      swap2\n      swap1\n      tag_30\n      jump\t// in\n    tag_29:\n      tag_31\n      jump\t// in\n    tag_28:\n      mload(0x40)\n      tag_32\n      swap2\n      swap1\n      tag_33\n      jump\t// in\n    tag_32:\n      mload(0x40)\n      dup1\n      swap2\n      sub\n      swap1\n      return\n        /* \"minerpunk/ERC721A/ERC721A.sol\":9569:9669  function name() public view virtual override returns (string memory) {... */\n    tag_4:\n      tag_34\n      tag_35\n      jump\t// in\n    tag_34:\n      mload(0x40)\n      tag_36\n      swap2\n      swap1\n      tag_37\n      jump\t// in\n    tag_36:\n      mload(0x40)\n      dup1\n      swap2\n      sub\n      swap1\n      return\n        /* \"minerpunk/ERC721A/ERC721A.sol\":11164:11368  function getApproved(uint256 tokenId) public view override returns (address) {... */\n    tag_5:\n      tag_38\n      0x04\n      dup1\n      calldatasize\n      sub\n      dup2\n      add\n      swap1\n      tag_39\n      swap2\n      swap1\n      tag_40\n      jump\t// in\n    tag_39:\n      tag_41\n      jump\t// in\n    tag_38:\n      mload(0x40)\n      tag_42\n      swap2\n      swap1\n      tag_43\n      jump\t// in\n    tag_42:\n      mload(0x40)\n      dup1\n      swap2\n      sub\n      swap1\n      return\n        /* \"minerpunk/ERC721A/ERC721A.sol\":10726:11098  function approve(address to, uint256 tokenId) public override {... */\n    tag_6:\n      tag_44\n      0x04\n      dup1\n      calldatasize\n      sub\n      dup2\n      add\n      swap1\n      tag_45\n      swap2\n      swap1\n      tag_46\n      jump\t// in\n    tag_45:\n      tag_47\n      jump\t// in\n    tag_44:\n      stop\n        /* \"minerpunk/ERC721A/ERC721A.sol\":5164:5476  function totalSupply() public view override returns (uint256) {... */\n    tag_7:\n      tag_48\n      tag_49\n      jump\t// in\n    tag_48:\n      mload(0x40)\n      tag_50\n      swap2\n      swap1\n      tag_51\n      jump\t// in\n    tag_50:\n      mload(0x40)\n      dup1\n      swap2\n      sub\n      swap1\n      return\n        /* \"minerpunk/ERC721A/ERC721A.sol\":12029:12199  function transferFrom(... */\n    tag_8:\n      tag_52\n      0x04\n      dup1\n      calldatasize\n      sub\n      dup2\n      add\n      swap1\n      tag_53\n      swap2\n      swap1\n      tag_54\n      jump\t// in\n    tag_53:\n      tag_55\n      jump\t// in\n    tag_52:\n      stop\n        /* \"minerpunk/ERC721A/ERC721A.sol\":12270:12455  function safeTransferFrom(... */\n    tag_9:\n      tag_56\n      0x04\n      dup1\n      calldatasize\n      sub\n      dup2\n      add\n      swap1\n      tag_57\n      swap2\n      swap1\n      tag_54\n      jump\t// in\n    tag_57:\n      tag_58\n      jump\t// in\n    tag_56:\n      stop\n        /* \"minerpunk/ERC721A/ERC721A.sol\":3856:4267  function blockStatus (uint256 _BlockNumber)public view override returns (uint256){... */\n    tag_10:\n      tag_59\n      0x04\n      dup1\n      calldatasize\n      sub\n      dup2\n      add\n      swap1\n      tag_60\n      swap2\n      swap1\n      tag_40\n      jump\t// in\n    tag_60:\n      tag_61\n      jump\t// in\n    tag_59:\n      mload(0x40)\n      tag_62\n      swap2\n      swap1\n      tag_51\n      jump\t// in\n    tag_62:\n      mload(0x40)\n      dup1\n      swap2\n      sub\n      swap1\n      return\n        /* \"minerpunk/ERC721A/ERC721A.sol\":9377:9502  function ownerOf(uint256 tokenId) public view override returns (address) {... */\n    tag_11:\n      tag_63\n      0x04\n      dup1\n      calldatasize\n      sub\n      dup2\n      add\n      swap1\n      tag_64\n      swap2\n      swap1\n      tag_40\n      jump\t// in\n    tag_64:\n      tag_65\n      jump\t// in\n    tag_63:\n      mload(0x40)\n      tag_66\n      swap2\n      swap1\n      tag_43\n      jump\t// in\n    tag_66:\n      mload(0x40)\n      dup1\n      swap2\n      sub\n      swap1\n      return\n        /* \"minerpunk/ERC721A/ERC721A.sol\":6822:7028  function balanceOf(address owner) public view override returns (uint256) {... */\n    tag_12:\n      tag_67\n      0x04\n      dup1\n      calldatasize\n      sub\n      dup2\n      add\n      swap1\n      tag_68\n      swap2\n      swap1\n      tag_69\n      jump\t// in\n    tag_68:\n      tag_70\n      jump\t// in\n    tag_67:\n      mload(0x40)\n      tag_71\n      swap2\n      swap1\n      tag_51\n      jump\t// in\n    tag_71:\n      mload(0x40)\n      dup1\n      swap2\n      sub\n      swap1\n      return\n        /* \"minerpunk/ERC721A/ERC721A.sol\":9738:9842  function symbol() public view virtual override returns (string memory) {... */\n    tag_13:\n      tag_72\n      tag_73\n      jump\t// in\n    tag_72:\n      mload(0x40)\n      tag_74\n      swap2\n      swap1\n      tag_37\n      jump\t// in\n    tag_74:\n      mload(0x40)\n      dup1\n      swap2\n      sub\n      swap1\n      return\n        /* \"minerpunk/ERC721A/ERC721A.sol\":11440:11727  function setApprovalForAll(address operator, bool approved) public virtual override {... */\n    tag_14:\n      tag_75\n      0x04\n      dup1\n      calldatasize\n      sub\n      dup2\n      add\n      swap1\n      tag_76\n      swap2\n      swap1\n      tag_77\n      jump\t// in\n    tag_76:\n      tag_78\n      jump\t// in\n    tag_75:\n      stop\n        /* \"minerpunk/ERC721A/ERC721A.sol\":12526:12896  function safeTransferFrom(... */\n    tag_15:\n      tag_79\n      0x04\n      dup1\n      calldatasize\n      sub\n      dup2\n      add\n      swap1\n      tag_80\n      swap2\n      swap1\n      tag_81\n      jump\t// in\n    tag_80:\n      tag_82\n      jump\t// in\n    tag_79:\n      stop\n        /* \"minerpunk/ERC721A/ERC721A.sol\":3235:3785  function MineStatus(address user)public view override returns(uint256){      ... */\n    tag_16:\n      tag_83\n      0x04\n      dup1\n      calldatasize\n      sub\n      dup2\n      add\n      swap1\n      tag_84\n      swap2\n      swap1\n      tag_69\n      jump\t// in\n    tag_84:\n      tag_85\n      jump\t// in\n    tag_83:\n      mload(0x40)\n      tag_86\n      swap2\n      swap1\n      tag_51\n      jump\t// in\n    tag_86:\n      mload(0x40)\n      dup1\n      swap2\n      sub\n      swap1\n      return\n        /* \"minerpunk/ERC721A/ERC721A.sol\":9913:10231  function tokenURI(uint256 tokenId) public view virtual override returns (string memory) {... */\n    tag_17:\n      tag_87\n      0x04\n      dup1\n      calldatasize\n      sub\n      dup2\n      add\n      swap1\n      tag_88\n      swap2\n      swap1\n      tag_40\n      jump\t// in\n    tag_88:\n      tag_89\n      jump\t// in\n    tag_87:\n      mload(0x40)\n      tag_90\n      swap2\n      swap1\n      tag_37\n      jump\t// in\n    tag_90:\n      mload(0x40)\n      dup1\n      swap2\n      sub\n      swap1\n      return\n        /* \"minerpunk/ERC721A/ERC721A.sol\":5641:5805  function maxSupply() public view  returns (uint256) {       ... */\n    tag_18:\n      tag_91\n      tag_92\n      jump\t// in\n    tag_91:\n      mload(0x40)\n      tag_93\n      swap2\n      swap1\n      tag_51\n      jump\t// in\n    tag_93:\n      mload(0x40)\n      dup1\n      swap2\n      sub\n      swap1\n      return\n        /* \"minerpunk/ERC721A/ERC721A.sol\":4277:4511  function difficult(uint _BlockNumber)public view override returns (uint256){... */\n    tag_19:\n      tag_94\n      0x04\n      dup1\n      calldatasize\n      sub\n      dup2\n      add\n      swap1\n      tag_95\n      swap2\n      swap1\n      tag_40\n      jump\t// in\n    tag_95:\n      tag_96\n      jump\t// in\n    tag_94:\n      mload(0x40)\n      tag_97\n      swap2\n      swap1\n      tag_51\n      jump\t// in\n    tag_97:\n      mload(0x40)\n      dup1\n      swap2\n      sub\n      swap1\n      return\n        /* \"minerpunk/ERC721A/ERC721A.sol\":5486:5631  function totalPower() public view  returns (uint256) {       ... */\n    tag_20:\n      tag_98\n      tag_99\n      jump\t// in\n    tag_98:\n      mload(0x40)\n      tag_100\n      swap2\n      swap1\n      tag_51\n      jump\t// in\n    tag_100:\n      mload(0x40)\n      dup1\n      swap2\n      sub\n      swap1\n      return\n        /* \"minerpunk/ERC721A/ERC721A.sol\":4530:4822  function tokenIDPower (uint256 tokenId)public view override returns(uint256){        ... */\n    tag_21:\n      tag_101\n      0x04\n      dup1\n      calldatasize\n      sub\n      dup2\n      add\n      swap1\n      tag_102\n      swap2\n      swap1\n      tag_40\n      jump\t// in\n    tag_102:\n      tag_103\n      jump\t// in\n    tag_101:\n      mload(0x40)\n      tag_104\n      swap2\n      swap1\n      tag_51\n      jump\t// in\n    tag_104:\n      mload(0x40)\n      dup1\n      swap2\n      sub\n      swap1\n      return\n        /* \"minerpunk/ERC721A/ERC721A.sol\":2811:3219  function totalDugUp()external view override returns (uint256){... */\n    tag_22:\n      tag_105\n      tag_106\n      jump\t// in\n    tag_105:\n      mload(0x40)\n      tag_107\n      swap2\n      swap1\n      tag_51\n      jump\t// in\n    tag_107:\n      mload(0x40)\n      dup1\n      swap2\n      sub\n      swap1\n      return\n        /* \"minerpunk/ERC721A/ERC721A.sol\":11798:11962  function isApprovedForAll(address owner, address operator) public view virtual override returns (bool) {... */\n    tag_23:\n      tag_108\n      0x04\n      dup1\n      calldatasize\n      sub\n      dup2\n      add\n      swap1\n      tag_109\n      swap2\n      swap1\n      tag_110\n      jump\t// in\n    tag_109:\n      tag_111\n      jump\t// in\n    tag_108:\n      mload(0x40)\n      tag_112\n      swap2\n      swap1\n      tag_33\n      jump\t// in\n    tag_112:\n      mload(0x40)\n      dup1\n      swap2\n      sub\n      swap1\n      return\n        /* \"minerpunk/ERC721A/ERC721A.sol\":5822:5993  function mineInfo(address user, uint256 number) public view  returns (uint256) {       ... */\n    tag_24:\n      tag_113\n      0x04\n      dup1\n      calldatasize\n      sub\n      dup2\n      add\n      swap1\n      tag_114\n      swap2\n      swap1\n      tag_46\n      jump\t// in\n    tag_114:\n      tag_115\n      jump\t// in\n    tag_113:\n      mload(0x40)\n      tag_116\n      swap2\n      swap1\n      tag_51\n      jump\t// in\n    tag_116:\n      mload(0x40)\n      dup1\n      swap2\n      sub\n      swap1\n      return\n        /* \"minerpunk/ERC721A/ERC721A.sol\":6453:6758  function supportsInterface(bytes4 interfaceId) public view virtual override(ERC165, IERC165) returns (bool) {... */\n    tag_31:\n        /* \"minerpunk/ERC721A/ERC721A.sol\":6555:6559  bool */\n      0x00\n        /* \"minerpunk/ERC721A/ERC721A.sol\":6607:6632  type(IERC721).interfaceId */\n      0x80ac58cd00000000000000000000000000000000000000000000000000000000\n        /* \"minerpunk/ERC721A/ERC721A.sol\":6592:6632  interfaceId == type(IERC721).interfaceId */\n      not(0xffffffffffffffffffffffffffffffffffffffffffffffffffffffff)\n      and\n        /* \"minerpunk/ERC721A/ERC721A.sol\":6592:6603  interfaceId */\n      dup3\n        /* \"minerpunk/ERC721A/ERC721A.sol\":6592:6632  interfaceId == type(IERC721).interfaceId */\n      not(0xffffffffffffffffffffffffffffffffffffffffffffffffffffffff)\n      and\n      eq\n        /* \"minerpunk/ERC721A/ERC721A.sol\":6592:6697  interfaceId == type(IERC721).interfaceId ||... */\n      dup1\n      tag_118\n      jumpi\n      pop\n        /* \"minerpunk/ERC721A/ERC721A.sol\":6664:6697  type(IERC721Metadata).interfaceId */\n      0x5b5e139f00000000000000000000000000000000000000000000000000000000\n        /* \"minerpunk/ERC721A/ERC721A.sol\":6649:6697  interfaceId == type(IERC721Metadata).interfaceId */\n      not(0xffffffffffffffffffffffffffffffffffffffffffffffffffffffff)\n      and\n        /* \"minerpunk/ERC721A/ERC721A.sol\":6649:6660  interfaceId */\n      dup3\n        /* \"minerpunk/ERC721A/ERC721A.sol\":6649:6697  interfaceId == type(IERC721Metadata).interfaceId */\n      not(0xffffffffffffffffffffffffffffffffffffffffffffffffffffffff)\n      and\n      eq\n        /* \"minerpunk/ERC721A/ERC721A.sol\":6592:6697  interfaceId == type(IERC721).interfaceId ||... */\n    tag_118:\n        /* \"minerpunk/ERC721A/ERC721A.sol\":6592:6750  interfaceId == type(IERC721).interfaceId ||... */\n      dup1\n      tag_119\n      jumpi\n      pop\n        /* \"minerpunk/ERC721A/ERC721A.sol\":6714:6750  super.supportsInterface(interfaceId) */\n      tag_120\n        /* \"minerpunk/ERC721A/ERC721A.sol\":6738:6749  interfaceId */\n      dup3\n        /* \"minerpunk/ERC721A/ERC721A.sol\":6714:6737  super.supportsInterface */\n      tag_121\n        /* \"minerpunk/ERC721A/ERC721A.sol\":6714:6750  super.supportsInterface(interfaceId) */\n      jump\t// in\n    tag_120:\n        /* \"minerpunk/ERC721A/ERC721A.sol\":6592:6750  interfaceId == type(IERC721).interfaceId ||... */\n    tag_119:\n        /* \"minerpunk/ERC721A/ERC721A.sol\":6572:6750  return... */\n      swap1\n      pop\n        /* \"minerpunk/ERC721A/ERC721A.sol\":6453:6758  function supportsInterface(bytes4 interfaceId) public view virtual override(ERC165, IERC165) returns (bool) {... */\n      swap2\n      swap1\n      pop\n      jump\t// out\n        /* \"minerpunk/ERC721A/ERC721A.sol\":9569:9669  function name() public view virtual override returns (string memory) {... */\n    tag_35:\n        /* \"minerpunk/ERC721A/ERC721A.sol\":9623:9636  string memory */\n      0x60\n        /* \"minerpunk/ERC721A/ERC721A.sol\":9656:9661  _name */\n      0x07\n        /* \"minerpunk/ERC721A/ERC721A.sol\":9649:9661  return _name */\n      dup1\n      sload\n      tag_123\n      swap1\n      tag_124\n      jump\t// in\n    tag_123:\n      dup1\n      0x1f\n      add\n      0x20\n      dup1\n      swap2\n      div\n      mul\n      0x20\n      add\n      mload(0x40)\n      swap1\n      dup2\n      add\n      0x40\n      mstore\n      dup1\n      swap3\n      swap2\n      swap1\n      dup2\n      dup2\n      mstore\n      0x20\n      add\n      dup3\n      dup1\n      sload\n      tag_125\n      swap1\n      tag_124\n      jump\t// in\n    tag_125:\n      dup1\n      iszero\n      tag_126\n      jumpi\n      dup1\n      0x1f\n      lt\n      tag_127\n      jumpi\n      0x0100\n      dup1\n      dup4\n      sload\n      div\n      mul\n      dup4\n      mstore\n      swap2\n      0x20\n      add\n      swap2\n      jump(tag_126)\n    tag_127:\n      dup3\n      add\n      swap2\n      swap1\n      0x00\n      mstore\n      keccak256(0x00, 0x20)\n      swap1\n    tag_128:\n      dup2\n      sload\n      dup2\n      mstore\n      swap1\n      0x01\n      add\n      swap1\n      0x20\n      add\n      dup1\n      dup4\n      gt\n      tag_128\n      jumpi\n      dup3\n      swap1\n      sub\n      0x1f\n      and\n      dup3\n      add\n      swap2\n    tag_126:\n      pop\n      pop\n      pop\n      pop\n      pop\n      swap1\n      pop\n        /* \"minerpunk/ERC721A/ERC721A.sol\":9569:9669  function name() public view virtual override returns (string memory) {... */\n      swap1\n      jump\t// out\n        /* \"minerpunk/ERC721A/ERC721A.sol\":11164:11368  function getApproved(uint256 tokenId) public view override returns (address) {... */\n    tag_41:\n        /* \"minerpunk/ERC721A/ERC721A.sol\":11232:11239  address */\n      0x00\n        /* \"minerpunk/ERC721A/ERC721A.sol\":11257:11273  _exists(tokenId) */\n      tag_130\n        /* \"minerpunk/ERC721A/ERC721A.sol\":11265:11272  tokenId */\n      dup3\n        /* \"minerpunk/ERC721A/ERC721A.sol\":11257:11264  _exists */\n      tag_131\n        /* \"minerpunk/ERC721A/ERC721A.sol\":11257:11273  _exists(tokenId) */\n      jump\t// in\n    tag_130:\n        /* \"minerpunk/ERC721A/ERC721A.sol\":11252:11316  if (!_exists(tokenId)) revert ApprovalQueryForNonexistentToken() */\n      tag_132\n      jumpi\n        /* \"minerpunk/ERC721A/ERC721A.sol\":11282:11316  ApprovalQueryForNonexistentToken() */\n      mload(0x40)\n      0xcf4700e400000000000000000000000000000000000000000000000000000000\n      dup2\n      mstore\n      0x04\n      add\n      mload(0x40)\n      dup1\n      swap2\n      sub\n      swap1\n      revert\n        /* \"minerpunk/ERC721A/ERC721A.sol\":11252:11316  if (!_exists(tokenId)) revert ApprovalQueryForNonexistentToken() */\n    tag_132:\n        /* \"minerpunk/ERC721A/ERC721A.sol\":11336:11351  _tokenApprovals */\n      0x0b\n        /* \"minerpunk/ERC721A/ERC721A.sol\":11336:11360  _tokenApprovals[tokenId] */\n      0x00\n        /* \"minerpunk/ERC721A/ERC721A.sol\":11352:11359  tokenId */\n      dup4\n        /* \"minerpunk/ERC721A/ERC721A.sol\":11336:11360  _tokenApprovals[tokenId] */\n      dup2\n      mstore\n      0x20\n      add\n      swap1\n      dup2\n      mstore\n      0x20\n      add\n      0x00\n      keccak256\n      0x00\n      swap1\n      sload\n      swap1\n      0x0100\n      exp\n      swap1\n      div\n      0xffffffffffffffffffffffffffffffffffffffff\n      and\n        /* \"minerpunk/ERC721A/ERC721A.sol\":11329:11360  return _tokenApprovals[tokenId] */\n      swap1\n      pop\n        /* \"minerpunk/ERC721A/ERC721A.sol\":11164:11368  function getApproved(uint256 tokenId) public view override returns (address) {... */\n      swap2\n      swap1\n      pop\n      jump\t// out\n        /* \"minerpunk/ERC721A/ERC721A.sol\":10726:11098  function approve(address to, uint256 tokenId) public override {... */\n    tag_47:\n        /* \"minerpunk/ERC721A/ERC721A.sol\":10799:10812  address owner */\n      0x00\n        /* \"minerpunk/ERC721A/ERC721A.sol\":10815:10839  ERC721A.ownerOf(tokenId) */\n      tag_134\n        /* \"minerpunk/ERC721A/ERC721A.sol\":10831:10838  tokenId */\n      dup3\n        /* \"minerpunk/ERC721A/ERC721A.sol\":10815:10830  ERC721A.ownerOf */\n      tag_65\n        /* \"minerpunk/ERC721A/ERC721A.sol\":10815:10839  ERC721A.ownerOf(tokenId) */\n      jump\t// in\n    tag_134:\n        /* \"minerpunk/ERC721A/ERC721A.sol\":10799:10839  address owner = ERC721A.ownerOf(tokenId) */\n      swap1\n      pop\n        /* \"minerpunk/ERC721A/ERC721A.sol\":10860:10865  owner */\n      dup1\n        /* \"minerpunk/ERC721A/ERC721A.sol\":10854:10865  to == owner */\n      0xffffffffffffffffffffffffffffffffffffffff\n      and\n        /* \"minerpunk/ERC721A/ERC721A.sol\":10854:10856  to */\n      dup4\n        /* \"minerpunk/ERC721A/ERC721A.sol\":10854:10865  to == owner */\n      0xffffffffffffffffffffffffffffffffffffffff\n      and\n      sub\n        /* \"minerpunk/ERC721A/ERC721A.sol\":10850:10898  if (to == owner) revert ApprovalToCurrentOwner() */\n      tag_135\n      jumpi\n        /* \"minerpunk/ERC721A/ERC721A.sol\":10874:10898  ApprovalToCurrentOwner() */\n      mload(0x40)\n      0x943f7b8c00000000000000000000000000000000000000000000000000000000\n      dup2\n      mstore\n      0x04\n      add\n      mload(0x40)\n      dup1\n      swap2\n      sub\n      swap1\n      revert\n        /* \"minerpunk/ERC721A/ERC721A.sol\":10850:10898  if (to == owner) revert ApprovalToCurrentOwner() */\n    tag_135:\n        /* \"minerpunk/ERC721A/ERC721A.sol\":10931:10936  owner */\n      dup1\n        /* \"minerpunk/ERC721A/ERC721A.sol\":10915:10936  _msgSender() != owner */\n      0xffffffffffffffffffffffffffffffffffffffff\n      and\n        /* \"minerpunk/ERC721A/ERC721A.sol\":10915:10927  _msgSender() */\n      tag_136\n        /* \"minerpunk/ERC721A/ERC721A.sol\":10915:10925  _msgSender */\n      tag_137\n        /* \"minerpunk/ERC721A/ERC721A.sol\":10915:10927  _msgSender() */\n      jump\t// in\n    tag_136:\n        /* \"minerpunk/ERC721A/ERC721A.sol\":10915:10936  _msgSender() != owner */\n      0xffffffffffffffffffffffffffffffffffffffff\n      and\n      eq\n        /* \"minerpunk/ERC721A/ERC721A.sol\":10911:11050  if (_msgSender() != owner) if(!isApprovedForAll(owner, _msgSender())) {... */\n      tag_138\n      jumpi\n        /* \"minerpunk/ERC721A/ERC721A.sol\":10942:10979  isApprovedForAll(owner, _msgSender()) */\n      tag_139\n        /* \"minerpunk/ERC721A/ERC721A.sol\":10959:10964  owner */\n      dup2\n        /* \"minerpunk/ERC721A/ERC721A.sol\":10966:10978  _msgSender() */\n      tag_140\n        /* \"minerpunk/ERC721A/ERC721A.sol\":10966:10976  _msgSender */\n      tag_137\n        /* \"minerpunk/ERC721A/ERC721A.sol\":10966:10978  _msgSender() */\n      jump\t// in\n    tag_140:\n        /* \"minerpunk/ERC721A/ERC721A.sol\":10942:10958  isApprovedForAll */\n      tag_111\n        /* \"minerpunk/ERC721A/ERC721A.sol\":10942:10979  isApprovedForAll(owner, _msgSender()) */\n      jump\t// in\n    tag_139:\n        /* \"minerpunk/ERC721A/ERC721A.sol\":10938:11050  if(!isApprovedForAll(owner, _msgSender())) {... */\n      tag_141\n      jumpi\n        /* \"minerpunk/ERC721A/ERC721A.sol\":11003:11038  ApprovalCallerNotOwnerNorApproved() */\n      mload(0x40)\n      0xcfb3b94200000000000000000000000000000000000000000000000000000000\n      dup2\n      mstore\n      0x04\n      add\n      mload(0x40)\n      dup1\n      swap2\n      sub\n      swap1\n      revert\n        /* \"minerpunk/ERC721A/ERC721A.sol\":10938:11050  if(!isApprovedForAll(owner, _msgSender())) {... */\n    tag_141:\n        /* \"minerpunk/ERC721A/ERC721A.sol\":10911:11050  if (_msgSender() != owner) if(!isApprovedForAll(owner, _msgSender())) {... */\n    tag_138:\n        /* \"minerpunk/ERC721A/ERC721A.sol\":11062:11090  _approve(to, tokenId, owner) */\n      tag_142\n        /* \"minerpunk/ERC721A/ERC721A.sol\":11071:11073  to */\n      dup4\n        /* \"minerpunk/ERC721A/ERC721A.sol\":11075:11082  tokenId */\n      dup4\n        /* \"minerpunk/ERC721A/ERC721A.sol\":11084:11089  owner */\n      dup4\n        /* \"minerpunk/ERC721A/ERC721A.sol\":11062:11070  _approve */\n      tag_143\n        /* \"minerpunk/ERC721A/ERC721A.sol\":11062:11090  _approve(to, tokenId, owner) */\n      jump\t// in\n    tag_142:\n        /* \"minerpunk/ERC721A/ERC721A.sol\":10788:11098  {... */\n      pop\n        /* \"minerpunk/ERC721A/ERC721A.sol\":10726:11098  function approve(address to, uint256 tokenId) public override {... */\n      pop\n      pop\n      jump\t// out\n        /* \"minerpunk/ERC721A/ERC721A.sol\":5164:5476  function totalSupply() public view override returns (uint256) {... */\n    tag_49:\n        /* \"minerpunk/ERC721A/ERC721A.sol\":5217:5224  uint256 */\n      0x00\n        /* \"minerpunk/ERC721A/ERC721A.sol\":5442:5457  _startTokenId() */\n      tag_145\n        /* \"minerpunk/ERC721A/ERC721A.sol\":5442:5455  _startTokenId */\n      tag_146\n        /* \"minerpunk/ERC721A/ERC721A.sol\":5442:5457  _startTokenId() */\n      jump\t// in\n    tag_145:\n        /* \"minerpunk/ERC721A/ERC721A.sol\":5427:5439  _burnCounter */\n      sload(0x06)\n        /* \"minerpunk/ERC721A/ERC721A.sol\":5411:5424  _currentIndex */\n      sload(0x04)\n        /* \"minerpunk/ERC721A/ERC721A.sol\":5411:5439  _currentIndex - _burnCounter */\n      sub\n        /* \"minerpunk/ERC721A/ERC721A.sol\":5411:5457  _currentIndex - _burnCounter - _startTokenId() */\n      sub\n        /* \"minerpunk/ERC721A/ERC721A.sol\":5404:5457  return _currentIndex - _burnCounter - _startTokenId() */\n      swap1\n      pop\n        /* \"minerpunk/ERC721A/ERC721A.sol\":5164:5476  function totalSupply() public view override returns (uint256) {... */\n      swap1\n      jump\t// out\n        /* \"minerpunk/ERC721A/ERC721A.sol\":12029:12199  function transferFrom(... */\n    tag_55:\n        /* \"minerpunk/ERC721A/ERC721A.sol\":12163:12191  _transfer(from, to, tokenId) */\n      tag_148\n        /* \"minerpunk/ERC721A/ERC721A.sol\":12173:12177  from */\n      dup4\n        /* \"minerpunk/ERC721A/ERC721A.sol\":12179:12181  to */\n      dup4\n        /* \"minerpunk/ERC721A/ERC721A.sol\":12183:12190  tokenId */\n      dup4\n        /* \"minerpunk/ERC721A/ERC721A.sol\":12163:12172  _transfer */\n      tag_149\n        /* \"minerpunk/ERC721A/ERC721A.sol\":12163:12191  _transfer(from, to, tokenId) */\n      jump\t// in\n    tag_148:\n        /* \"minerpunk/ERC721A/ERC721A.sol\":12029:12199  function transferFrom(... */\n      pop\n      pop\n      pop\n      jump\t// out\n        /* \"minerpunk/ERC721A/ERC721A.sol\":12270:12455  function safeTransferFrom(... */\n    tag_58:\n        /* \"minerpunk/ERC721A/ERC721A.sol\":12408:12447  safeTransferFrom(from, to, tokenId, '') */\n      tag_151\n        /* \"minerpunk/ERC721A/ERC721A.sol\":12425:12429  from */\n      dup4\n        /* \"minerpunk/ERC721A/ERC721A.sol\":12431:12433  to */\n      dup4\n        /* \"minerpunk/ERC721A/ERC721A.sol\":12435:12442  tokenId */\n      dup4\n        /* \"minerpunk/ERC721A/ERC721A.sol\":12408:12447  safeTransferFrom(from, to, tokenId, '') */\n      mload(0x40)\n      dup1\n      0x20\n      add\n      0x40\n      mstore\n      dup1\n      0x00\n      dup2\n      mstore\n      pop\n        /* \"minerpunk/ERC721A/ERC721A.sol\":12408:12424  safeTransferFrom */\n      tag_82\n        /* \"minerpunk/ERC721A/ERC721A.sol\":12408:12447  safeTransferFrom(from, to, tokenId, '') */\n      jump\t// in\n    tag_151:\n        /* \"minerpunk/ERC721A/ERC721A.sol\":12270:12455  function safeTransferFrom(... */\n      pop\n      pop\n      pop\n      jump\t// out\n        /* \"minerpunk/ERC721A/ERC721A.sol\":3856:4267  function blockStatus (uint256 _BlockNumber)public view override returns (uint256){... */\n    tag_61:\n        /* \"minerpunk/ERC721A/ERC721A.sol\":3929:3936  uint256 */\n      0x00\n        /* \"minerpunk/ERC721A/ERC721A.sol\":3966:3983  _startBlockNumber */\n      sload(0x02)\n        /* \"minerpunk/ERC721A/ERC721A.sol\":3951:3963  _BlockNumber */\n      dup3\n        /* \"minerpunk/ERC721A/ERC721A.sol\":3951:3983  _BlockNumber < _startBlockNumber */\n      lt\n        /* \"minerpunk/ERC721A/ERC721A.sol\":3948:4043  if(_BlockNumber < _startBlockNumber){... */\n      iszero\n      tag_153\n      jumpi\n        /* \"minerpunk/ERC721A/ERC721A.sol\":4014:4031  _startBlockNumber */\n      sload(0x02)\n        /* \"minerpunk/ERC721A/ERC721A.sol\":3999:4031  _BlockNumber = _startBlockNumber */\n      swap2\n      pop\n        /* \"minerpunk/ERC721A/ERC721A.sol\":3948:4043  if(_BlockNumber < _startBlockNumber){... */\n    tag_153:\n        /* \"minerpunk/ERC721A/ERC721A.sol\":4053:4072  uint256 DCFperBlock */\n      0x00\n        /* \"minerpunk/ERC721A/ERC721A.sol\":4075:4099  _TokenperBlock.mul(1e54) */\n      tag_154\n        /* \"minerpunk/ERC721A/ERC721A.sol\":4094:4098  1e54 */\n      0x0a70c3c40a64e6c51999090b65f67d9240000000000000\n        /* \"minerpunk/ERC721A/ERC721A.sol\":4075:4089  _TokenperBlock */\n      sload(0x01)\n        /* \"minerpunk/ERC721A/ERC721A.sol\":4075:4093  _TokenperBlock.mul */\n      tag_155\n      swap1\n        /* \"minerpunk/ERC721A/ERC721A.sol\":4075:4099  _TokenperBlock.mul(1e54) */\n      swap2\n      swap1\n      0xffffffff\n      and\n      jump\t// in\n    tag_154:\n        /* \"minerpunk/ERC721A/ERC721A.sol\":4053:4099  uint256 DCFperBlock = _TokenperBlock.mul(1e54) */\n      swap1\n      pop\n        /* \"minerpunk/ERC721A/ERC721A.sol\":4121:4143  uint256 BlockDifficult */\n      0x00\n        /* \"minerpunk/ERC721A/ERC721A.sol\":4146:4169  difficult(_BlockNumber) */\n      tag_156\n        /* \"minerpunk/ERC721A/ERC721A.sol\":4156:4168  _BlockNumber */\n      dup5\n        /* \"minerpunk/ERC721A/ERC721A.sol\":4146:4155  difficult */\n      tag_96\n        /* \"minerpunk/ERC721A/ERC721A.sol\":4146:4169  difficult(_BlockNumber) */\n      jump\t// in\n    tag_156:\n        /* \"minerpunk/ERC721A/ERC721A.sol\":4121:4169  uint256 BlockDifficult = difficult(_BlockNumber) */\n      swap1\n      pop\n        /* \"minerpunk/ERC721A/ERC721A.sol\":4185:4198  uint256 DugUP */\n      0x00\n        /* \"minerpunk/ERC721A/ERC721A.sol\":4201:4232  DCFperBlock.div(BlockDifficult) */\n      tag_157\n        /* \"minerpunk/ERC721A/ERC721A.sol\":4217:4231  BlockDifficult */\n      dup3\n        /* \"minerpunk/ERC721A/ERC721A.sol\":4201:4212  DCFperBlock */\n      dup5\n        /* \"minerpunk/ERC721A/ERC721A.sol\":4201:4216  DCFperBlock.div */\n      tag_158\n      swap1\n        /* \"minerpunk/ERC721A/ERC721A.sol\":4201:4232  DCFperBlock.div(BlockDifficult) */\n      swap2\n      swap1\n      0xffffffff\n      and\n      jump\t// in\n    tag_157:\n        /* \"minerpunk/ERC721A/ERC721A.sol\":4185:4232  uint256 DugUP = DCFperBlock.div(BlockDifficult) */\n      swap1\n      pop\n        /* \"minerpunk/ERC721A/ERC721A.sol\":4250:4255  DugUP */\n      dup1\n        /* \"minerpunk/ERC721A/ERC721A.sol\":4243:4255  return DugUP */\n      swap4\n      pop\n      pop\n      pop\n      pop\n        /* \"minerpunk/ERC721A/ERC721A.sol\":3856:4267  function blockStatus (uint256 _BlockNumber)public view override returns (uint256){... */\n      swap2\n      swap1\n      pop\n      jump\t// out\n        /* \"minerpunk/ERC721A/ERC721A.sol\":9377:9502  function ownerOf(uint256 tokenId) public view override returns (address) {... */\n    tag_65:\n        /* \"minerpunk/ERC721A/ERC721A.sol\":9441:9448  address */\n      0x00\n        /* \"minerpunk/ERC721A/ERC721A.sol\":9468:9489  _ownershipOf(tokenId) */\n      tag_160\n        /* \"minerpunk/ERC721A/ERC721A.sol\":9481:9488  tokenId */\n      dup3\n        /* \"minerpunk/ERC721A/ERC721A.sol\":9468:9480  _ownershipOf */\n      tag_161\n        /* \"minerpunk/ERC721A/ERC721A.sol\":9468:9489  _ownershipOf(tokenId) */\n      jump\t// in\n    tag_160:\n        /* \"minerpunk/ERC721A/ERC721A.sol\":9468:9494  _ownershipOf(tokenId).addr */\n      0x00\n      add\n      mload\n        /* \"minerpunk/ERC721A/ERC721A.sol\":9461:9494  return _ownershipOf(tokenId).addr */\n      swap1\n      pop\n        /* \"minerpunk/ERC721A/ERC721A.sol\":9377:9502  function ownerOf(uint256 tokenId) public view override returns (address) {... */\n      swap2\n      swap1\n      pop\n      jump\t// out\n        /* \"minerpunk/ERC721A/ERC721A.sol\":6822:7028  function balanceOf(address owner) public view override returns (uint256) {... */\n    tag_70:\n        /* \"minerpunk/ERC721A/ERC721A.sol\":6886:6893  uint256 */\n      0x00\n        /* \"minerpunk/ERC721A/ERC721A.sol\":6927:6928  0 */\n      dup1\n        /* \"minerpunk/ERC721A/ERC721A.sol\":6910:6929  owner == address(0) */\n      0xffffffffffffffffffffffffffffffffffffffff\n      and\n        /* \"minerpunk/ERC721A/ERC721A.sol\":6910:6915  owner */\n      dup3\n        /* \"minerpunk/ERC721A/ERC721A.sol\":6910:6929  owner == address(0) */\n      0xffffffffffffffffffffffffffffffffffffffff\n      and\n      sub\n        /* \"minerpunk/ERC721A/ERC721A.sol\":6906:6966  if (owner == address(0)) revert BalanceQueryForZeroAddress() */\n      tag_163\n      jumpi\n        /* \"minerpunk/ERC721A/ERC721A.sol\":6938:6966  BalanceQueryForZeroAddress() */\n      mload(0x40)\n      0x8f4eb60400000000000000000000000000000000000000000000000000000000\n      dup2\n      mstore\n      0x04\n      add\n      mload(0x40)\n      dup1\n      swap2\n      sub\n      swap1\n      revert\n        /* \"minerpunk/ERC721A/ERC721A.sol\":6906:6966  if (owner == address(0)) revert BalanceQueryForZeroAddress() */\n    tag_163:\n        /* \"minerpunk/ERC721A/ERC721A.sol\":6992:7004  _addressData */\n      0x0a\n        /* \"minerpunk/ERC721A/ERC721A.sol\":6992:7011  _addressData[owner] */\n      0x00\n        /* \"minerpunk/ERC721A/ERC721A.sol\":7005:7010  owner */\n      dup4\n        /* \"minerpunk/ERC721A/ERC721A.sol\":6992:7011  _addressData[owner] */\n      0xffffffffffffffffffffffffffffffffffffffff\n      and\n      0xffffffffffffffffffffffffffffffffffffffff\n      and\n      dup2\n      mstore\n      0x20\n      add\n      swap1\n      dup2\n      mstore\n      0x20\n      add\n      0x00\n      keccak256\n        /* \"minerpunk/ERC721A/ERC721A.sol\":6992:7019  _addressData[owner].balance */\n      0x00\n      add\n      0x00\n      swap1\n      sload\n      swap1\n      0x0100\n      exp\n      swap1\n      div\n      0xffffffffffffffff\n      and\n        /* \"minerpunk/ERC721A/ERC721A.sol\":6984:7020  uint256(_addressData[owner].balance) */\n      0xffffffffffffffff\n      and\n        /* \"minerpunk/ERC721A/ERC721A.sol\":6977:7020  return uint256(_addressData[owner].balance) */\n      swap1\n      pop\n        /* \"minerpunk/ERC721A/ERC721A.sol\":6822:7028  function balanceOf(address owner) public view override returns (uint256) {... */\n      swap2\n      swap1\n      pop\n      jump\t// out\n        /* \"minerpunk/ERC721A/ERC721A.sol\":9738:9842  function symbol() public view virtual override returns (string memory) {... */\n    tag_73:\n        /* \"minerpunk/ERC721A/ERC721A.sol\":9794:9807  string memory */\n      0x60\n        /* \"minerpunk/ERC721A/ERC721A.sol\":9827:9834  _symbol */\n      0x08\n        /* \"minerpunk/ERC721A/ERC721A.sol\":9820:9834  return _symbol */\n      dup1\n      sload\n      tag_165\n      swap1\n      tag_124\n      jump\t// in\n    tag_165:\n      dup1\n      0x1f\n      add\n      0x20\n      dup1\n      swap2\n      div\n      mul\n      0x20\n      add\n      mload(0x40)\n      swap1\n      dup2\n      add\n      0x40\n      mstore\n      dup1\n      swap3\n      swap2\n      swap1\n      dup2\n      dup2\n      mstore\n      0x20\n      add\n      dup3\n      dup1\n      sload\n      tag_166\n      swap1\n      tag_124\n      jump\t// in\n    tag_166:\n      dup1\n      iszero\n      tag_167\n      jumpi\n      dup1\n      0x1f\n      lt\n      tag_168\n      jumpi\n      0x0100\n      dup1\n      dup4\n      sload\n      div\n      mul\n      dup4\n      mstore\n      swap2\n      0x20\n      add\n      swap2\n      jump(tag_167)\n    tag_168:\n      dup3\n      add\n      swap2\n      swap1\n      0x00\n      mstore\n      keccak256(0x00, 0x20)\n      swap1\n    tag_169:\n      dup2\n      sload\n      dup2\n      mstore\n      swap1\n      0x01\n      add\n      swap1\n      0x20\n      add\n      dup1\n      dup4\n      gt\n      tag_169\n      jumpi\n      dup3\n      swap1\n      sub\n      0x1f\n      and\n      dup3\n      add\n      swap2\n    tag_167:\n      pop\n      pop\n      pop\n      pop\n      pop\n      swap1\n      pop\n        /* \"minerpunk/ERC721A/ERC721A.sol\":9738:9842  function symbol() public view virtual override returns (string memory) {... */\n      swap1\n      jump\t// out\n        /* \"minerpunk/ERC721A/ERC721A.sol\":11440:11727  function setApprovalForAll(address operator, bool approved) public virtual override {... */\n    tag_78:\n        /* \"minerpunk/ERC721A/ERC721A.sol\":11551:11563  _msgSender() */\n      tag_171\n        /* \"minerpunk/ERC721A/ERC721A.sol\":11551:11561  _msgSender */\n      tag_137\n        /* \"minerpunk/ERC721A/ERC721A.sol\":11551:11563  _msgSender() */\n      jump\t// in\n    tag_171:\n        /* \"minerpunk/ERC721A/ERC721A.sol\":11539:11563  operator == _msgSender() */\n      0xffffffffffffffffffffffffffffffffffffffff\n      and\n        /* \"minerpunk/ERC721A/ERC721A.sol\":11539:11547  operator */\n      dup3\n        /* \"minerpunk/ERC721A/ERC721A.sol\":11539:11563  operator == _msgSender() */\n      0xffffffffffffffffffffffffffffffffffffffff\n      and\n      sub\n        /* \"minerpunk/ERC721A/ERC721A.sol\":11535:11589  if (operator == _msgSender()) revert ApproveToCaller() */\n      tag_172\n      jumpi\n        /* \"minerpunk/ERC721A/ERC721A.sol\":11572:11589  ApproveToCaller() */\n      mload(0x40)\n      0xb06307db00000000000000000000000000000000000000000000000000000000\n      dup2\n      mstore\n      0x04\n      add\n      mload(0x40)\n      dup1\n      swap2\n      sub\n      swap1\n      revert\n        /* \"minerpunk/ERC721A/ERC721A.sol\":11535:11589  if (operator == _msgSender()) revert ApproveToCaller() */\n    tag_172:\n        /* \"minerpunk/ERC721A/ERC721A.sol\":11647:11655  approved */\n      dup1\n        /* \"minerpunk/ERC721A/ERC721A.sol\":11602:11620  _operatorApprovals */\n      0x0c\n        /* \"minerpunk/ERC721A/ERC721A.sol\":11602:11634  _operatorApprovals[_msgSender()] */\n      0x00\n        /* \"minerpunk/ERC721A/ERC721A.sol\":11621:11633  _msgSender() */\n      tag_173\n        /* \"minerpunk/ERC721A/ERC721A.sol\":11621:11631  _msgSender */\n      tag_137\n        /* \"minerpunk/ERC721A/ERC721A.sol\":11621:11633  _msgSender() */\n      jump\t// in\n    tag_173:\n        /* \"minerpunk/ERC721A/ERC721A.sol\":11602:11634  _operatorApprovals[_msgSender()] */\n      0xffffffffffffffffffffffffffffffffffffffff\n      and\n      0xffffffffffffffffffffffffffffffffffffffff\n      and\n      dup2\n      mstore\n      0x20\n      add\n      swap1\n      dup2\n      mstore\n      0x20\n      add\n      0x00\n      keccak256\n        /* \"minerpunk/ERC721A/ERC721A.sol\":11602:11644  _operatorApprovals[_msgSender()][operator] */\n      0x00\n        /* \"minerpunk/ERC721A/ERC721A.sol\":11635:11643  operator */\n      dup5\n        /* \"minerpunk/ERC721A/ERC721A.sol\":11602:11644  _operatorApprovals[_msgSender()][operator] */\n      0xffffffffffffffffffffffffffffffffffffffff\n      and\n      0xffffffffffffffffffffffffffffffffffffffff\n      and\n      dup2\n      mstore\n      0x20\n      add\n      swap1\n      dup2\n      mstore\n      0x20\n      add\n      0x00\n      keccak256\n      0x00\n        /* \"minerpunk/ERC721A/ERC721A.sol\":11602:11655  _operatorApprovals[_msgSender()][operator] = approved */\n      0x0100\n      exp\n      dup2\n      sload\n      dup2\n      0xff\n      mul\n      not\n      and\n      swap1\n      dup4\n      iszero\n      iszero\n      mul\n      or\n      swap1\n      sstore\n      pop\n        /* \"minerpunk/ERC721A/ERC721A.sol\":11700:11708  operator */\n      dup2\n        /* \"minerpunk/ERC721A/ERC721A.sol\":11671:11719  ApprovalForAll(_msgSender(), operator, approved) */\n      0xffffffffffffffffffffffffffffffffffffffff\n      and\n        /* \"minerpunk/ERC721A/ERC721A.sol\":11686:11698  _msgSender() */\n      tag_174\n        /* \"minerpunk/ERC721A/ERC721A.sol\":11686:11696  _msgSender */\n      tag_137\n        /* \"minerpunk/ERC721A/ERC721A.sol\":11686:11698  _msgSender() */\n      jump\t// in\n    tag_174:\n        /* \"minerpunk/ERC721A/ERC721A.sol\":11671:11719  ApprovalForAll(_msgSender(), operator, approved) */\n      0xffffffffffffffffffffffffffffffffffffffff\n      and\n      0x17307eab39ab6107e8899845ad3d59bd9653f200f220920489ca2b5937696c31\n        /* \"minerpunk/ERC721A/ERC721A.sol\":11710:11718  approved */\n      dup4\n        /* \"minerpunk/ERC721A/ERC721A.sol\":11671:11719  ApprovalForAll(_msgSender(), operator, approved) */\n      mload(0x40)\n      tag_175\n      swap2\n      swap1\n      tag_33\n      jump\t// in\n    tag_175:\n      mload(0x40)\n      dup1\n      swap2\n      sub\n      swap1\n      log3\n        /* \"minerpunk/ERC721A/ERC721A.sol\":11440:11727  function setApprovalForAll(address operator, bool approved) public virtual override {... */\n      pop\n      pop\n      jump\t// out\n        /* \"minerpunk/ERC721A/ERC721A.sol\":12526:12896  function safeTransferFrom(... */\n    tag_82:\n        /* \"minerpunk/ERC721A/ERC721A.sol\":12693:12721  _transfer(from, to, tokenId) */\n      tag_177\n        /* \"minerpunk/ERC721A/ERC721A.sol\":12703:12707  from */\n      dup5\n        /* \"minerpunk/ERC721A/ERC721A.sol\":12709:12711  to */\n      dup5\n        /* \"minerpunk/ERC721A/ERC721A.sol\":12713:12720  tokenId */\n      dup5\n        /* \"minerpunk/ERC721A/ERC721A.sol\":12693:12702  _transfer */\n      tag_149\n        /* \"minerpunk/ERC721A/ERC721A.sol\":12693:12721  _transfer(from, to, tokenId) */\n      jump\t// in\n    tag_177:\n        /* \"minerpunk/ERC721A/ERC721A.sol\":12736:12751  to.isContract() */\n      tag_178\n        /* \"minerpunk/ERC721A/ERC721A.sol\":12736:12738  to */\n      dup4\n        /* \"minerpunk/ERC721A/ERC721A.sol\":12736:12749  to.isContract */\n      0xffffffffffffffffffffffffffffffffffffffff\n      and\n      tag_179\n        /* \"minerpunk/ERC721A/ERC721A.sol\":12736:12751  to.isContract() */\n      jump\t// in\n    tag_178:\n        /* \"minerpunk/ERC721A/ERC721A.sol\":12732:12889  if (to.isContract()) if(!_checkContractOnERC721Received(from, to, tokenId, _data)) {... */\n      iszero\n      tag_180\n      jumpi\n        /* \"minerpunk/ERC721A/ERC721A.sol\":12757:12813  _checkContractOnERC721Received(from, to, tokenId, _data) */\n      tag_181\n        /* \"minerpunk/ERC721A/ERC721A.sol\":12788:12792  from */\n      dup5\n        /* \"minerpunk/ERC721A/ERC721A.sol\":12794:12796  to */\n      dup5\n        /* \"minerpunk/ERC721A/ERC721A.sol\":12798:12805  tokenId */\n      dup5\n        /* \"minerpunk/ERC721A/ERC721A.sol\":12807:12812  _data */\n      dup5\n        /* \"minerpunk/ERC721A/ERC721A.sol\":12757:12787  _checkContractOnERC721Received */\n      tag_182\n        /* \"minerpunk/ERC721A/ERC721A.sol\":12757:12813  _checkContractOnERC721Received(from, to, tokenId, _data) */\n      jump\t// in\n    tag_181:\n        /* \"minerpunk/ERC721A/ERC721A.sol\":12753:12889  if(!_checkContractOnERC721Received(from, to, tokenId, _data)) {... */\n      tag_183\n      jumpi\n        /* \"minerpunk/ERC721A/ERC721A.sol\":12837:12877  TransferToNonERC721ReceiverImplementer() */\n      mload(0x40)\n      0xd1a57ed600000000000000000000000000000000000000000000000000000000\n      dup2\n      mstore\n      0x04\n      add\n      mload(0x40)\n      dup1\n      swap2\n      sub\n      swap1\n      revert\n        /* \"minerpunk/ERC721A/ERC721A.sol\":12753:12889  if(!_checkContractOnERC721Received(from, to, tokenId, _data)) {... */\n    tag_183:\n        /* \"minerpunk/ERC721A/ERC721A.sol\":12732:12889  if (to.isContract()) if(!_checkContractOnERC721Received(from, to, tokenId, _data)) {... */\n    tag_180:\n        /* \"minerpunk/ERC721A/ERC721A.sol\":12526:12896  function safeTransferFrom(... */\n      pop\n      pop\n      pop\n      pop\n      jump\t// out\n        /* \"minerpunk/ERC721A/ERC721A.sol\":3235:3785  function MineStatus(address user)public view override returns(uint256){      ... */\n    tag_85:\n        /* \"minerpunk/ERC721A/ERC721A.sol\":3297:3304  uint256 */\n      0x00\n        /* \"minerpunk/ERC721A/ERC721A.sol\":3322:3340  uint256 difference */\n      dup1\n        /* \"minerpunk/ERC721A/ERC721A.sol\":3343:3379  block.number.sub(_mineInfo[user][1]) */\n      tag_185\n        /* \"minerpunk/ERC721A/ERC721A.sol\":3360:3369  _mineInfo */\n      0x0d\n        /* \"minerpunk/ERC721A/ERC721A.sol\":3360:3375  _mineInfo[user] */\n      0x00\n        /* \"minerpunk/ERC721A/ERC721A.sol\":3370:3374  user */\n      dup6\n        /* \"minerpunk/ERC721A/ERC721A.sol\":3360:3375  _mineInfo[user] */\n      0xffffffffffffffffffffffffffffffffffffffff\n      and\n      0xffffffffffffffffffffffffffffffffffffffff\n      and\n      dup2\n      mstore\n      0x20\n      add\n      swap1\n      dup2\n      mstore\n      0x20\n      add\n      0x00\n      keccak256\n        /* \"minerpunk/ERC721A/ERC721A.sol\":3360:3378  _mineInfo[user][1] */\n      0x00\n        /* \"minerpunk/ERC721A/ERC721A.sol\":3376:3377  1 */\n      0x01\n        /* \"minerpunk/ERC721A/ERC721A.sol\":3360:3378  _mineInfo[user][1] */\n      dup2\n      mstore\n      0x20\n      add\n      swap1\n      dup2\n      mstore\n      0x20\n      add\n      0x00\n      keccak256\n      sload\n        /* \"minerpunk/ERC721A/ERC721A.sol\":3343:3355  block.number */\n      number\n        /* \"minerpunk/ERC721A/ERC721A.sol\":3343:3359  block.number.sub */\n      tag_186\n      swap1\n        /* \"minerpunk/ERC721A/ERC721A.sol\":3343:3379  block.number.sub(_mineInfo[user][1]) */\n      swap2\n      swap1\n      0xffffffff\n      and\n      jump\t// in\n    tag_185:\n        /* \"minerpunk/ERC721A/ERC721A.sol\":3322:3379  uint256 difference = block.number.sub(_mineInfo[user][1]) */\n      swap1\n      pop\n        /* \"minerpunk/ERC721A/ERC721A.sol\":3390:3403  uint256 start */\n      0x00\n        /* \"minerpunk/ERC721A/ERC721A.sol\":3406:3437  blockStatus(_mineInfo[user][1]) */\n      tag_187\n        /* \"minerpunk/ERC721A/ERC721A.sol\":3418:3427  _mineInfo */\n      0x0d\n        /* \"minerpunk/ERC721A/ERC721A.sol\":3418:3433  _mineInfo[user] */\n      0x00\n        /* \"minerpunk/ERC721A/ERC721A.sol\":3428:3432  user */\n      dup7\n        /* \"minerpunk/ERC721A/ERC721A.sol\":3418:3433  _mineInfo[user] */\n      0xffffffffffffffffffffffffffffffffffffffff\n      and\n      0xffffffffffffffffffffffffffffffffffffffff\n      and\n      dup2\n      mstore\n      0x20\n      add\n      swap1\n      dup2\n      mstore\n      0x20\n      add\n      0x00\n      keccak256\n        /* \"minerpunk/ERC721A/ERC721A.sol\":3418:3436  _mineInfo[user][1] */\n      0x00\n        /* \"minerpunk/ERC721A/ERC721A.sol\":3434:3435  1 */\n      0x01\n        /* \"minerpunk/ERC721A/ERC721A.sol\":3418:3436  _mineInfo[user][1] */\n      dup2\n      mstore\n      0x20\n      add\n      swap1\n      dup2\n      mstore\n      0x20\n      add\n      0x00\n      keccak256\n      sload\n        /* \"minerpunk/ERC721A/ERC721A.sol\":3406:3417  blockStatus */\n      tag_61\n        /* \"minerpunk/ERC721A/ERC721A.sol\":3406:3437  blockStatus(_mineInfo[user][1]) */\n      jump\t// in\n    tag_187:\n        /* \"minerpunk/ERC721A/ERC721A.sol\":3390:3437  uint256 start = blockStatus(_mineInfo[user][1]) */\n      swap1\n      pop\n        /* \"minerpunk/ERC721A/ERC721A.sol\":3448:3459  uint256 end */\n      0x00\n        /* \"minerpunk/ERC721A/ERC721A.sol\":3462:3487  blockStatus(block.number) */\n      tag_188\n        /* \"minerpunk/ERC721A/ERC721A.sol\":3474:3486  block.number */\n      number\n        /* \"minerpunk/ERC721A/ERC721A.sol\":3462:3473  blockStatus */\n      tag_61\n        /* \"minerpunk/ERC721A/ERC721A.sol\":3462:3487  blockStatus(block.number) */\n      jump\t// in\n    tag_188:\n        /* \"minerpunk/ERC721A/ERC721A.sol\":3448:3487  uint256 end = blockStatus(block.number) */\n      swap1\n      pop\n        /* \"minerpunk/ERC721A/ERC721A.sol\":3498:3516  uint256 mined_area */\n      0x00\n        /* \"minerpunk/ERC721A/ERC721A.sol\":3519:3556  start.add(end).mul(difference).div(2) */\n      tag_189\n        /* \"minerpunk/ERC721A/ERC721A.sol\":3554:3555  2 */\n      0x02\n        /* \"minerpunk/ERC721A/ERC721A.sol\":3519:3549  start.add(end).mul(difference) */\n      tag_190\n        /* \"minerpunk/ERC721A/ERC721A.sol\":3538:3548  difference */\n      dup7\n        /* \"minerpunk/ERC721A/ERC721A.sol\":3519:3533  start.add(end) */\n      tag_191\n        /* \"minerpunk/ERC721A/ERC721A.sol\":3529:3532  end */\n      dup7\n        /* \"minerpunk/ERC721A/ERC721A.sol\":3519:3524  start */\n      dup9\n        /* \"minerpunk/ERC721A/ERC721A.sol\":3519:3528  start.add */\n      tag_192\n      swap1\n        /* \"minerpunk/ERC721A/ERC721A.sol\":3519:3533  start.add(end) */\n      swap2\n      swap1\n      0xffffffff\n      and\n      jump\t// in\n    tag_191:\n        /* \"minerpunk/ERC721A/ERC721A.sol\":3519:3537  start.add(end).mul */\n      tag_155\n      swap1\n        /* \"minerpunk/ERC721A/ERC721A.sol\":3519:3549  start.add(end).mul(difference) */\n      swap2\n      swap1\n      0xffffffff\n      and\n      jump\t// in\n    tag_190:\n        /* \"minerpunk/ERC721A/ERC721A.sol\":3519:3553  start.add(end).mul(difference).div */\n      tag_158\n      swap1\n        /* \"minerpunk/ERC721A/ERC721A.sol\":3519:3556  start.add(end).mul(difference).div(2) */\n      swap2\n      swap1\n      0xffffffff\n      and\n      jump\t// in\n    tag_189:\n        /* \"minerpunk/ERC721A/ERC721A.sol\":3498:3556  uint256 mined_area = start.add(end).mul(difference).div(2) */\n      swap1\n      pop\n        /* \"minerpunk/ERC721A/ERC721A.sol\":3649:3664  uint dcf_amount */\n      0x00\n        /* \"minerpunk/ERC721A/ERC721A.sol\":3667:3718  mined_area.mul(_mineInfo[user][2]).div(_totalPower) */\n      tag_193\n        /* \"minerpunk/ERC721A/ERC721A.sol\":3706:3717  _totalPower */\n      sload(0x03)\n        /* \"minerpunk/ERC721A/ERC721A.sol\":3667:3701  mined_area.mul(_mineInfo[user][2]) */\n      tag_194\n        /* \"minerpunk/ERC721A/ERC721A.sol\":3682:3691  _mineInfo */\n      0x0d\n        /* \"minerpunk/ERC721A/ERC721A.sol\":3682:3697  _mineInfo[user] */\n      0x00\n        /* \"minerpunk/ERC721A/ERC721A.sol\":3692:3696  user */\n      dup12\n        /* \"minerpunk/ERC721A/ERC721A.sol\":3682:3697  _mineInfo[user] */\n      0xffffffffffffffffffffffffffffffffffffffff\n      and\n      0xffffffffffffffffffffffffffffffffffffffff\n      and\n      dup2\n      mstore\n      0x20\n      add\n      swap1\n      dup2\n      mstore\n      0x20\n      add\n      0x00\n      keccak256\n        /* \"minerpunk/ERC721A/ERC721A.sol\":3682:3700  _mineInfo[user][2] */\n      0x00\n        /* \"minerpunk/ERC721A/ERC721A.sol\":3698:3699  2 */\n      0x02\n        /* \"minerpunk/ERC721A/ERC721A.sol\":3682:3700  _mineInfo[user][2] */\n      dup2\n      mstore\n      0x20\n      add\n      swap1\n      dup2\n      mstore\n      0x20\n      add\n      0x00\n      keccak256\n      sload\n        /* \"minerpunk/ERC721A/ERC721A.sol\":3667:3677  mined_area */\n      dup6\n        /* \"minerpunk/ERC721A/ERC721A.sol\":3667:3681  mined_area.mul */\n      tag_155\n      swap1\n        /* \"minerpunk/ERC721A/ERC721A.sol\":3667:3701  mined_area.mul(_mineInfo[user][2]) */\n      swap2\n      swap1\n      0xffffffff\n      and\n      jump\t// in\n    tag_194:\n        /* \"minerpunk/ERC721A/ERC721A.sol\":3667:3705  mined_area.mul(_mineInfo[user][2]).div */\n      tag_158\n      swap1\n        /* \"minerpunk/ERC721A/ERC721A.sol\":3667:3718  mined_area.mul(_mineInfo[user][2]).div(_totalPower) */\n      swap2\n      swap1\n      0xffffffff\n      and\n      jump\t// in\n    tag_193:\n        /* \"minerpunk/ERC721A/ERC721A.sol\":3649:3718  uint dcf_amount = mined_area.mul(_mineInfo[user][2]).div(_totalPower) */\n      swap1\n      pop\n        /* \"minerpunk/ERC721A/ERC721A.sol\":3736:3770  _mineInfo[user][3].add(dcf_amount) */\n      tag_195\n        /* \"minerpunk/ERC721A/ERC721A.sol\":3759:3769  dcf_amount */\n      dup2\n        /* \"minerpunk/ERC721A/ERC721A.sol\":3736:3745  _mineInfo */\n      0x0d\n        /* \"minerpunk/ERC721A/ERC721A.sol\":3736:3751  _mineInfo[user] */\n      0x00\n        /* \"minerpunk/ERC721A/ERC721A.sol\":3746:3750  user */\n      dup11\n        /* \"minerpunk/ERC721A/ERC721A.sol\":3736:3751  _mineInfo[user] */\n      0xffffffffffffffffffffffffffffffffffffffff\n      and\n      0xffffffffffffffffffffffffffffffffffffffff\n      and\n      dup2\n      mstore\n      0x20\n      add\n      swap1\n      dup2\n      mstore\n      0x20\n      add\n      0x00\n      keccak256\n        /* \"minerpunk/ERC721A/ERC721A.sol\":3736:3754  _mineInfo[user][3] */\n      0x00\n        /* \"minerpunk/ERC721A/ERC721A.sol\":3752:3753  3 */\n      0x03\n        /* \"minerpunk/ERC721A/ERC721A.sol\":3736:3754  _mineInfo[user][3] */\n      dup2\n      mstore\n      0x20\n      add\n      swap1\n      dup2\n      mstore\n      0x20\n      add\n      0x00\n      keccak256\n      sload\n        /* \"minerpunk/ERC721A/ERC721A.sol\":3736:3758  _mineInfo[user][3].add */\n      tag_192\n      swap1\n        /* \"minerpunk/ERC721A/ERC721A.sol\":3736:3770  _mineInfo[user][3].add(dcf_amount) */\n      swap2\n      swap1\n      0xffffffff\n      and\n      jump\t// in\n    tag_195:\n        /* \"minerpunk/ERC721A/ERC721A.sol\":3729:3770  return _mineInfo[user][3].add(dcf_amount) */\n      swap6\n      pop\n      pop\n      pop\n      pop\n      pop\n      pop\n        /* \"minerpunk/ERC721A/ERC721A.sol\":3235:3785  function MineStatus(address user)public view override returns(uint256){      ... */\n      swap2\n      swap1\n      pop\n      jump\t// out\n        /* \"minerpunk/ERC721A/ERC721A.sol\":9913:10231  function tokenURI(uint256 tokenId) public view virtual override returns (string memory) {... */\n    tag_89:\n        /* \"minerpunk/ERC721A/ERC721A.sol\":9986:9999  string memory */\n      0x60\n        /* \"minerpunk/ERC721A/ERC721A.sol\":10017:10033  _exists(tokenId) */\n      tag_197\n        /* \"minerpunk/ERC721A/ERC721A.sol\":10025:10032  tokenId */\n      dup3\n        /* \"minerpunk/ERC721A/ERC721A.sol\":10017:10024  _exists */\n      tag_131\n        /* \"minerpunk/ERC721A/ERC721A.sol\":10017:10033  _exists(tokenId) */\n      jump\t// in\n    tag_197:\n        /* \"minerpunk/ERC721A/ERC721A.sol\":10012:10071  if (!_exists(tokenId)) revert URIQueryForNonexistentToken() */\n      tag_198\n      jumpi\n        /* \"minerpunk/ERC721A/ERC721A.sol\":10042:10071  URIQueryForNonexistentToken() */\n      mload(0x40)\n      0xa14c4b5000000000000000000000000000000000000000000000000000000000\n      dup2\n      mstore\n      0x04\n      add\n      mload(0x40)\n      dup1\n      swap2\n      sub\n      swap1\n      revert\n        /* \"minerpunk/ERC721A/ERC721A.sol\":10012:10071  if (!_exists(tokenId)) revert URIQueryForNonexistentToken() */\n    tag_198:\n        /* \"minerpunk/ERC721A/ERC721A.sol\":10084:10105  string memory baseURI */\n      0x00\n        /* \"minerpunk/ERC721A/ERC721A.sol\":10108:10118  _baseURI() */\n      tag_199\n        /* \"minerpunk/ERC721A/ERC721A.sol\":10108:10116  _baseURI */\n      tag_200\n        /* \"minerpunk/ERC721A/ERC721A.sol\":10108:10118  _baseURI() */\n      jump\t// in\n    tag_199:\n        /* \"minerpunk/ERC721A/ERC721A.sol\":10084:10118  string memory baseURI = _baseURI() */\n      swap1\n      pop\n        /* \"minerpunk/ERC721A/ERC721A.sol\":10161:10162  0 */\n      0x00\n        /* \"minerpunk/ERC721A/ERC721A.sol\":10142:10149  baseURI */\n      dup2\n        /* \"minerpunk/ERC721A/ERC721A.sol\":10136:10157  bytes(baseURI).length */\n      mload\n        /* \"minerpunk/ERC721A/ERC721A.sol\":10136:10162  bytes(baseURI).length != 0 */\n      sub\n        /* \"minerpunk/ERC721A/ERC721A.sol\":10136:10223  bytes(baseURI).length != 0 ? string(abi.encodePacked(baseURI, tokenId.toString())) : '' */\n      tag_201\n      jumpi\n      mload(0x40)\n      dup1\n      0x20\n      add\n      0x40\n      mstore\n      dup1\n      0x00\n      dup2\n      mstore\n      pop\n      jump(tag_202)\n    tag_201:\n        /* \"minerpunk/ERC721A/ERC721A.sol\":10189:10196  baseURI */\n      dup1\n        /* \"minerpunk/ERC721A/ERC721A.sol\":10198:10216  tokenId.toString() */\n      tag_203\n        /* \"minerpunk/ERC721A/ERC721A.sol\":10198:10205  tokenId */\n      dup5\n        /* \"minerpunk/ERC721A/ERC721A.sol\":10198:10214  tokenId.toString */\n      tag_204\n        /* \"minerpunk/ERC721A/ERC721A.sol\":10198:10216  tokenId.toString() */\n      jump\t// in\n    tag_203:\n        /* \"minerpunk/ERC721A/ERC721A.sol\":10172:10217  abi.encodePacked(baseURI, tokenId.toString()) */\n      add(0x20, mload(0x40))\n      tag_205\n      swap3\n      swap2\n      swap1\n      tag_206\n      jump\t// in\n    tag_205:\n      mload(0x40)\n      0x20\n      dup2\n      dup4\n      sub\n      sub\n      dup2\n      mstore\n      swap1\n      0x40\n      mstore\n        /* \"minerpunk/ERC721A/ERC721A.sol\":10136:10223  bytes(baseURI).length != 0 ? string(abi.encodePacked(baseURI, tokenId.toString())) : '' */\n    tag_202:\n        /* \"minerpunk/ERC721A/ERC721A.sol\":10129:10223  return bytes(baseURI).length != 0 ? string(abi.encodePacked(baseURI, tokenId.toString())) : '' */\n      swap2\n      pop\n      pop\n        /* \"minerpunk/ERC721A/ERC721A.sol\":9913:10231  function tokenURI(uint256 tokenId) public view virtual override returns (string memory) {... */\n      swap2\n      swap1\n      pop\n      jump\t// out\n        /* \"minerpunk/ERC721A/ERC721A.sol\":5641:5805  function maxSupply() public view  returns (uint256) {       ... */\n    tag_92:\n        /* \"minerpunk/ERC721A/ERC721A.sol\":5684:5691  uint256 */\n      0x00\n        /* \"minerpunk/ERC721A/ERC721A.sol\":5771:5786  _startTokenId() */\n      tag_208\n        /* \"minerpunk/ERC721A/ERC721A.sol\":5771:5784  _startTokenId */\n      tag_146\n        /* \"minerpunk/ERC721A/ERC721A.sol\":5771:5786  _startTokenId() */\n      jump\t// in\n    tag_208:\n        /* \"minerpunk/ERC721A/ERC721A.sol\":5756:5768  _burnCounter */\n      sload(0x06)\n        /* \"minerpunk/ERC721A/ERC721A.sol\":5743:5753  _maxSupply */\n      sload(0x05)\n        /* \"minerpunk/ERC721A/ERC721A.sol\":5743:5768  _maxSupply - _burnCounter */\n      sub\n        /* \"minerpunk/ERC721A/ERC721A.sol\":5743:5786  _maxSupply - _burnCounter - _startTokenId() */\n      sub\n        /* \"minerpunk/ERC721A/ERC721A.sol\":5736:5786  return _maxSupply - _burnCounter - _startTokenId() */\n      swap1\n      pop\n        /* \"minerpunk/ERC721A/ERC721A.sol\":5641:5805  function maxSupply() public view  returns (uint256) {       ... */\n      swap1\n      jump\t// out\n        /* \"minerpunk/ERC721A/ERC721A.sol\":4277:4511  function difficult(uint _BlockNumber)public view override returns (uint256){... */\n    tag_96:\n        /* \"minerpunk/ERC721A/ERC721A.sol\":4344:4351  uint256 */\n      0x00\n        /* \"minerpunk/ERC721A/ERC721A.sol\":4363:4382  uint BlockDifficult */\n      dup1\n        /* \"minerpunk/ERC721A/ERC721A.sol\":4383:4428  _BlockNumber.mul(1e18).div(_startBlockNumber) */\n      tag_210\n        /* \"minerpunk/ERC721A/ERC721A.sol\":4410:4427  _startBlockNumber */\n      sload(0x02)\n        /* \"minerpunk/ERC721A/ERC721A.sol\":4383:4405  _BlockNumber.mul(1e18) */\n      tag_211\n        /* \"minerpunk/ERC721A/ERC721A.sol\":4400:4404  1e18 */\n      0x0de0b6b3a7640000\n        /* \"minerpunk/ERC721A/ERC721A.sol\":4383:4395  _BlockNumber */\n      dup7\n        /* \"minerpunk/ERC721A/ERC721A.sol\":4383:4399  _BlockNumber.mul */\n      tag_155\n      swap1\n        /* \"minerpunk/ERC721A/ERC721A.sol\":4383:4405  _BlockNumber.mul(1e18) */\n      swap2\n      swap1\n      0xffffffff\n      and\n      jump\t// in\n    tag_211:\n        /* \"minerpunk/ERC721A/ERC721A.sol\":4383:4409  _BlockNumber.mul(1e18).div */\n      tag_158\n      swap1\n        /* \"minerpunk/ERC721A/ERC721A.sol\":4383:4428  _BlockNumber.mul(1e18).div(_startBlockNumber) */\n      swap2\n      swap1\n      0xffffffff\n      and\n      jump\t// in\n    tag_210:\n        /* \"minerpunk/ERC721A/ERC721A.sol\":4363:4428  uint BlockDifficult=_BlockNumber.mul(1e18).div(_startBlockNumber) */\n      swap1\n      pop\n        /* \"minerpunk/ERC721A/ERC721A.sol\":4470:4471  4 */\n      0x04\n        /* \"minerpunk/ERC721A/ERC721A.sol\":4454:4468  BlockDifficult */\n      dup2\n        /* \"minerpunk/ERC721A/ERC721A.sol\":4454:4471  BlockDifficult**4 */\n      tag_212\n      swap2\n      swap1\n      tag_213\n      jump\t// in\n    tag_212:\n        /* \"minerpunk/ERC721A/ERC721A.sol\":4439:4471  BlockDifficult=BlockDifficult**4 */\n      swap1\n      pop\n        /* \"minerpunk/ERC721A/ERC721A.sol\":4489:4503  BlockDifficult */\n      dup1\n        /* \"minerpunk/ERC721A/ERC721A.sol\":4482:4503  return BlockDifficult */\n      swap2\n      pop\n      pop\n        /* \"minerpunk/ERC721A/ERC721A.sol\":4277:4511  function difficult(uint _BlockNumber)public view override returns (uint256){... */\n      swap2\n      swap1\n      pop\n      jump\t// out\n        /* \"minerpunk/ERC721A/ERC721A.sol\":5486:5631  function totalPower() public view  returns (uint256) {       ... */\n    tag_99:\n        /* \"minerpunk/ERC721A/ERC721A.sol\":5530:5537  uint256 */\n      0x00\n        /* \"minerpunk/ERC721A/ERC721A.sol\":5601:5612  _totalPower */\n      sload(0x03)\n        /* \"minerpunk/ERC721A/ERC721A.sol\":5594:5612  return _totalPower */\n      swap1\n      pop\n        /* \"minerpunk/ERC721A/ERC721A.sol\":5486:5631  function totalPower() public view  returns (uint256) {       ... */\n      swap1\n      jump\t// out\n        /* \"minerpunk/ERC721A/ERC721A.sol\":4530:4822  function tokenIDPower (uint256 tokenId)public view override returns(uint256){        ... */\n    tag_103:\n        /* \"minerpunk/ERC721A/ERC721A.sol\":4598:4605  uint256 */\n      0x00\n        /* \"minerpunk/ERC721A/ERC721A.sol\":4627:4641  uint256 _power */\n      dup1\n        /* \"minerpunk/ERC721A/ERC721A.sol\":4644:4675  tokenId.mul(_salt).add(tokenId) */\n      tag_216\n        /* \"minerpunk/ERC721A/ERC721A.sol\":4667:4674  tokenId */\n      dup4\n        /* \"minerpunk/ERC721A/ERC721A.sol\":4644:4662  tokenId.mul(_salt) */\n      tag_217\n        /* \"minerpunk/ERC721A/ERC721A.sol\":4656:4661  _salt */\n      sload(0x00)\n        /* \"minerpunk/ERC721A/ERC721A.sol\":4644:4651  tokenId */\n      dup7\n        /* \"minerpunk/ERC721A/ERC721A.sol\":4644:4655  tokenId.mul */\n      tag_155\n      swap1\n        /* \"minerpunk/ERC721A/ERC721A.sol\":4644:4662  tokenId.mul(_salt) */\n      swap2\n      swap1\n      0xffffffff\n      and\n      jump\t// in\n    tag_217:\n        /* \"minerpunk/ERC721A/ERC721A.sol\":4644:4666  tokenId.mul(_salt).add */\n      tag_192\n      swap1\n        /* \"minerpunk/ERC721A/ERC721A.sol\":4644:4675  tokenId.mul(_salt).add(tokenId) */\n      swap2\n      swap1\n      0xffffffff\n      and\n      jump\t// in\n    tag_216:\n        /* \"minerpunk/ERC721A/ERC721A.sol\":4627:4675  uint256 _power = tokenId.mul(_salt).add(tokenId) */\n      swap1\n      pop\n        /* \"minerpunk/ERC721A/ERC721A.sol\":4703:4704  0 */\n      0x00\n        /* \"minerpunk/ERC721A/ERC721A.sol\":4697:4699  10 */\n      0x0a\n        /* \"minerpunk/ERC721A/ERC721A.sol\":4690:4696  _power */\n      dup3\n        /* \"minerpunk/ERC721A/ERC721A.sol\":4690:4699  _power%10 */\n      tag_218\n      swap2\n      swap1\n      tag_219\n      jump\t// in\n    tag_218:\n        /* \"minerpunk/ERC721A/ERC721A.sol\":4690:4704  _power%10 == 0 */\n      sub\n        /* \"minerpunk/ERC721A/ERC721A.sol\":4687:4791  if(_power%10 == 0){... */\n      tag_220\n      jumpi\n        /* \"minerpunk/ERC721A/ERC721A.sol\":4729:4730  1 */\n      0x01\n        /* \"minerpunk/ERC721A/ERC721A.sol\":4720:4730  _power = 1 */\n      swap1\n      pop\n        /* \"minerpunk/ERC721A/ERC721A.sol\":4687:4791  if(_power%10 == 0){... */\n      jump(tag_221)\n    tag_220:\n        /* \"minerpunk/ERC721A/ERC721A.sol\":4777:4779  10 */\n      0x0a\n        /* \"minerpunk/ERC721A/ERC721A.sol\":4770:4776  _power */\n      dup2\n        /* \"minerpunk/ERC721A/ERC721A.sol\":4770:4779  _power%10 */\n      tag_222\n      swap2\n      swap1\n      tag_219\n      jump\t// in\n    tag_222:\n        /* \"minerpunk/ERC721A/ERC721A.sol\":4761:4779  _power = _power%10 */\n      swap1\n      pop\n        /* \"minerpunk/ERC721A/ERC721A.sol\":4687:4791  if(_power%10 == 0){... */\n    tag_221:\n        /* \"minerpunk/ERC721A/ERC721A.sol\":4808:4814  _power */\n      dup1\n        /* \"minerpunk/ERC721A/ERC721A.sol\":4801:4814  return _power */\n      swap2\n      pop\n      pop\n        /* \"minerpunk/ERC721A/ERC721A.sol\":4530:4822  function tokenIDPower (uint256 tokenId)public view override returns(uint256){        ... */\n      swap2\n      swap1\n      pop\n      jump\t// out\n        /* \"minerpunk/ERC721A/ERC721A.sol\":2811:3219  function totalDugUp()external view override returns (uint256){... */\n    tag_106:\n        /* \"minerpunk/ERC721A/ERC721A.sol\":2864:2871  uint256 */\n      0x00\n        /* \"minerpunk/ERC721A/ERC721A.sol\":2883:2901  uint256 difference */\n      dup1\n        /* \"minerpunk/ERC721A/ERC721A.sol\":2904:2939  block.number.sub(_startBlockNumber) */\n      tag_224\n        /* \"minerpunk/ERC721A/ERC721A.sol\":2921:2938  _startBlockNumber */\n      sload(0x02)\n        /* \"minerpunk/ERC721A/ERC721A.sol\":2904:2916  block.number */\n      number\n        /* \"minerpunk/ERC721A/ERC721A.sol\":2904:2920  block.number.sub */\n      tag_186\n      swap1\n        /* \"minerpunk/ERC721A/ERC721A.sol\":2904:2939  block.number.sub(_startBlockNumber) */\n      swap2\n      swap1\n      0xffffffff\n      and\n      jump\t// in\n    tag_224:\n        /* \"minerpunk/ERC721A/ERC721A.sol\":2883:2939  uint256 difference = block.number.sub(_startBlockNumber) */\n      swap1\n      pop\n        /* \"minerpunk/ERC721A/ERC721A.sol\":2950:2963  uint256 start */\n      0x00\n        /* \"minerpunk/ERC721A/ERC721A.sol\":2966:2996  blockStatus(_startBlockNumber) */\n      tag_225\n        /* \"minerpunk/ERC721A/ERC721A.sol\":2978:2995  _startBlockNumber */\n      sload(0x02)\n        /* \"minerpunk/ERC721A/ERC721A.sol\":2966:2977  blockStatus */\n      tag_61\n        /* \"minerpunk/ERC721A/ERC721A.sol\":2966:2996  blockStatus(_startBlockNumber) */\n      jump\t// in\n    tag_225:\n        /* \"minerpunk/ERC721A/ERC721A.sol\":2950:2996  uint256 start = blockStatus(_startBlockNumber) */\n      swap1\n      pop\n        /* \"minerpunk/ERC721A/ERC721A.sol\":3007:3018  uint256 end */\n      0x00\n        /* \"minerpunk/ERC721A/ERC721A.sol\":3021:3046  blockStatus(block.number) */\n      tag_226\n        /* \"minerpunk/ERC721A/ERC721A.sol\":3033:3045  block.number */\n      number\n        /* \"minerpunk/ERC721A/ERC721A.sol\":3021:3032  blockStatus */\n      tag_61\n        /* \"minerpunk/ERC721A/ERC721A.sol\":3021:3046  blockStatus(block.number) */\n      jump\t// in\n    tag_226:\n        /* \"minerpunk/ERC721A/ERC721A.sol\":3007:3046  uint256 end = blockStatus(block.number) */\n      swap1\n      pop\n        /* \"minerpunk/ERC721A/ERC721A.sol\":3057:3075  uint256 mined_area */\n      0x00\n        /* \"minerpunk/ERC721A/ERC721A.sol\":3078:3115  start.add(end).mul(difference).div(2) */\n      tag_227\n        /* \"minerpunk/ERC721A/ERC721A.sol\":3113:3114  2 */\n      0x02\n        /* \"minerpunk/ERC721A/ERC721A.sol\":3078:3108  start.add(end).mul(difference) */\n      tag_228\n        /* \"minerpunk/ERC721A/ERC721A.sol\":3097:3107  difference */\n      dup7\n        /* \"minerpunk/ERC721A/ERC721A.sol\":3078:3092  start.add(end) */\n      tag_229\n        /* \"minerpunk/ERC721A/ERC721A.sol\":3088:3091  end */\n      dup7\n        /* \"minerpunk/ERC721A/ERC721A.sol\":3078:3083  start */\n      dup9\n        /* \"minerpunk/ERC721A/ERC721A.sol\":3078:3087  start.add */\n      tag_192\n      swap1\n        /* \"minerpunk/ERC721A/ERC721A.sol\":3078:3092  start.add(end) */\n      swap2\n      swap1\n      0xffffffff\n      and\n      jump\t// in\n    tag_229:\n        /* \"minerpunk/ERC721A/ERC721A.sol\":3078:3096  start.add(end).mul */\n      tag_155\n      swap1\n        /* \"minerpunk/ERC721A/ERC721A.sol\":3078:3108  start.add(end).mul(difference) */\n      swap2\n      swap1\n      0xffffffff\n      and\n      jump\t// in\n    tag_228:\n        /* \"minerpunk/ERC721A/ERC721A.sol\":3078:3112  start.add(end).mul(difference).div */\n      tag_158\n      swap1\n        /* \"minerpunk/ERC721A/ERC721A.sol\":3078:3115  start.add(end).mul(difference).div(2) */\n      swap2\n      swap1\n      0xffffffff\n      and\n      jump\t// in\n    tag_227:\n        /* \"minerpunk/ERC721A/ERC721A.sol\":3057:3115  uint256 mined_area = start.add(end).mul(difference).div(2) */\n      swap1\n      pop\n        /* \"minerpunk/ERC721A/ERC721A.sol\":2872:3219  {... */\n      pop\n      pop\n      pop\n      pop\n        /* \"minerpunk/ERC721A/ERC721A.sol\":2811:3219  function totalDugUp()external view override returns (uint256){... */\n      swap1\n      jump\t// out\n        /* \"minerpunk/ERC721A/ERC721A.sol\":11798:11962  function isApprovedForAll(address owner, address operator) public view virtual override returns (bool) {... */\n    tag_111:\n        /* \"minerpunk/ERC721A/ERC721A.sol\":11895:11899  bool */\n      0x00\n        /* \"minerpunk/ERC721A/ERC721A.sol\":11919:11937  _operatorApprovals */\n      0x0c\n        /* \"minerpunk/ERC721A/ERC721A.sol\":11919:11944  _operatorApprovals[owner] */\n      0x00\n        /* \"minerpunk/ERC721A/ERC721A.sol\":11938:11943  owner */\n      dup5\n        /* \"minerpunk/ERC721A/ERC721A.sol\":11919:11944  _operatorApprovals[owner] */\n      0xffffffffffffffffffffffffffffffffffffffff\n      and\n      0xffffffffffffffffffffffffffffffffffffffff\n      and\n      dup2\n      mstore\n      0x20\n      add\n      swap1\n      dup2\n      mstore\n      0x20\n      add\n      0x00\n      keccak256\n        /* \"minerpunk/ERC721A/ERC721A.sol\":11919:11954  _operatorApprovals[owner][operator] */\n      0x00\n        /* \"minerpunk/ERC721A/ERC721A.sol\":11945:11953  operator */\n      dup4\n        /* \"minerpunk/ERC721A/ERC721A.sol\":11919:11954  _operatorApprovals[owner][operator] */\n      0xffffffffffffffffffffffffffffffffffffffff\n      and\n      0xffffffffffffffffffffffffffffffffffffffff\n      and\n      dup2\n      mstore\n      0x20\n      add\n      swap1\n      dup2\n      mstore\n      0x20\n      add\n      0x00\n      keccak256\n      0x00\n      swap1\n      sload\n      swap1\n      0x0100\n      exp\n      swap1\n      div\n      0xff\n      and\n        /* \"minerpunk/ERC721A/ERC721A.sol\":11912:11954  return _operatorApprovals[owner][operator] */\n      swap1\n      pop\n        /* \"minerpunk/ERC721A/ERC721A.sol\":11798:11962  function isApprovedForAll(address owner, address operator) public view virtual override returns (bool) {... */\n      swap3\n      swap2\n      pop\n      pop\n      jump\t// out\n        /* \"minerpunk/ERC721A/ERC721A.sol\":5822:5993  function mineInfo(address user, uint256 number) public view  returns (uint256) {       ... */\n    tag_115:\n        /* \"minerpunk/ERC721A/ERC721A.sol\":5892:5899  uint256 */\n      0x00\n        /* \"minerpunk/ERC721A/ERC721A.sol\":5951:5960  _mineInfo */\n      0x0d\n        /* \"minerpunk/ERC721A/ERC721A.sol\":5951:5966  _mineInfo[user] */\n      0x00\n        /* \"minerpunk/ERC721A/ERC721A.sol\":5961:5965  user */\n      dup5\n        /* \"minerpunk/ERC721A/ERC721A.sol\":5951:5966  _mineInfo[user] */\n      0xffffffffffffffffffffffffffffffffffffffff\n      and\n      0xffffffffffffffffffffffffffffffffffffffff\n      and\n      dup2\n      mstore\n      0x20\n      add\n      swap1\n      dup2\n      mstore\n      0x20\n      add\n      0x00\n      keccak256\n        /* \"minerpunk/ERC721A/ERC721A.sol\":5951:5974  _mineInfo[user][number] */\n      0x00\n        /* \"minerpunk/ERC721A/ERC721A.sol\":5967:5973  number */\n      dup4\n        /* \"minerpunk/ERC721A/ERC721A.sol\":5951:5974  _mineInfo[user][number] */\n      dup2\n      mstore\n      0x20\n      add\n      swap1\n      dup2\n      mstore\n      0x20\n      add\n      0x00\n      keccak256\n      sload\n        /* \"minerpunk/ERC721A/ERC721A.sol\":5944:5974  return _mineInfo[user][number] */\n      swap1\n      pop\n        /* \"minerpunk/ERC721A/ERC721A.sol\":5822:5993  function mineInfo(address user, uint256 number) public view  returns (uint256) {       ... */\n      swap3\n      swap2\n      pop\n      pop\n      jump\t// out\n        /* \"@openzeppelin/contracts/utils/introspection/ERC165.sol\":829:984  function supportsInterface(bytes4 interfaceId) public view virtual override returns (bool) {... */\n    tag_121:\n        /* \"@openzeppelin/contracts/utils/introspection/ERC165.sol\":914:918  bool */\n      0x00\n        /* \"@openzeppelin/contracts/utils/introspection/ERC165.sol\":952:977  type(IERC165).interfaceId */\n      0x01ffc9a700000000000000000000000000000000000000000000000000000000\n        /* \"@openzeppelin/contracts/utils/introspection/ERC165.sol\":937:977  interfaceId == type(IERC165).interfaceId */\n      not(0xffffffffffffffffffffffffffffffffffffffffffffffffffffffff)\n      and\n        /* \"@openzeppelin/contracts/utils/introspection/ERC165.sol\":937:948  interfaceId */\n      dup3\n        /* \"@openzeppelin/contracts/utils/introspection/ERC165.sol\":937:977  interfaceId == type(IERC165).interfaceId */\n      not(0xffffffffffffffffffffffffffffffffffffffffffffffffffffffff)\n      and\n      eq\n        /* \"@openzeppelin/contracts/utils/introspection/ERC165.sol\":930:977  return interfaceId == type(IERC165).interfaceId */\n      swap1\n      pop\n        /* \"@openzeppelin/contracts/utils/introspection/ERC165.sol\":829:984  function supportsInterface(bytes4 interfaceId) public view virtual override returns (bool) {... */\n      swap2\n      swap1\n      pop\n      jump\t// out\n        /* \"minerpunk/ERC721A/ERC721A.sol\":13110:13284  function _exists(uint256 tokenId) internal view returns (bool) {... */\n    tag_131:\n        /* \"minerpunk/ERC721A/ERC721A.sol\":13167:13171  bool */\n      0x00\n        /* \"minerpunk/ERC721A/ERC721A.sol\":13210:13217  tokenId */\n      dup2\n        /* \"minerpunk/ERC721A/ERC721A.sol\":13191:13206  _startTokenId() */\n      tag_234\n        /* \"minerpunk/ERC721A/ERC721A.sol\":13191:13204  _startTokenId */\n      tag_146\n        /* \"minerpunk/ERC721A/ERC721A.sol\":13191:13206  _startTokenId() */\n      jump\t// in\n    tag_234:\n        /* \"minerpunk/ERC721A/ERC721A.sol\":13191:13217  _startTokenId() <= tokenId */\n      gt\n      iszero\n        /* \"minerpunk/ERC721A/ERC721A.sol\":13191:13244  _startTokenId() <= tokenId && tokenId < _currentIndex */\n      dup1\n      iszero\n      tag_235\n      jumpi\n      pop\n        /* \"minerpunk/ERC721A/ERC721A.sol\":13231:13244  _currentIndex */\n      sload(0x04)\n        /* \"minerpunk/ERC721A/ERC721A.sol\":13221:13228  tokenId */\n      dup3\n        /* \"minerpunk/ERC721A/ERC721A.sol\":13221:13244  tokenId < _currentIndex */\n      lt\n        /* \"minerpunk/ERC721A/ERC721A.sol\":13191:13244  _startTokenId() <= tokenId && tokenId < _currentIndex */\n    tag_235:\n        /* \"minerpunk/ERC721A/ERC721A.sol\":13191:13276  _startTokenId() <= tokenId && tokenId < _currentIndex && !_ownerships[tokenId].burned */\n      dup1\n      iszero\n      tag_236\n      jumpi\n      pop\n        /* \"minerpunk/ERC721A/ERC721A.sol\":13249:13260  _ownerships */\n      0x09\n        /* \"minerpunk/ERC721A/ERC721A.sol\":13249:13269  _ownerships[tokenId] */\n      0x00\n        /* \"minerpunk/ERC721A/ERC721A.sol\":13261:13268  tokenId */\n      dup4\n        /* \"minerpunk/ERC721A/ERC721A.sol\":13249:13269  _ownerships[tokenId] */\n      dup2\n      mstore\n      0x20\n      add\n      swap1\n      dup2\n      mstore\n      0x20\n      add\n      0x00\n      keccak256\n        /* \"minerpunk/ERC721A/ERC721A.sol\":13249:13276  _ownerships[tokenId].burned */\n      0x00\n      add\n      0x1c\n      swap1\n      sload\n      swap1\n      0x0100\n      exp\n      swap1\n      div\n      0xff\n      and\n        /* \"minerpunk/ERC721A/ERC721A.sol\":13248:13276  !_ownerships[tokenId].burned */\n      iszero\n        /* \"minerpunk/ERC721A/ERC721A.sol\":13191:13276  _startTokenId() <= tokenId && tokenId < _currentIndex && !_ownerships[tokenId].burned */\n    tag_236:\n        /* \"minerpunk/ERC721A/ERC721A.sol\":13184:13276  return _startTokenId() <= tokenId && tokenId < _currentIndex && !_ownerships[tokenId].burned */\n      swap1\n      pop\n        /* \"minerpunk/ERC721A/ERC721A.sol\":13110:13284  function _exists(uint256 tokenId) internal view returns (bool) {... */\n      swap2\n      swap1\n      pop\n      jump\t// out\n        /* \"@openzeppelin/contracts/utils/Context.sol\":640:736  function _msgSender() internal view virtual returns (address) {... */\n    tag_137:\n        /* \"@openzeppelin/contracts/utils/Context.sol\":693:700  address */\n      0x00\n        /* \"@openzeppelin/contracts/utils/Context.sol\":719:729  msg.sender */\n      caller\n        /* \"@openzeppelin/contracts/utils/Context.sol\":712:729  return msg.sender */\n      swap1\n      pop\n        /* \"@openzeppelin/contracts/utils/Context.sol\":640:736  function _msgSender() internal view virtual returns (address) {... */\n      swap1\n      jump\t// out\n        /* \"minerpunk/ERC721A/ERC721A.sol\":22114:22310  function _approve(... */\n    tag_143:\n        /* \"minerpunk/ERC721A/ERC721A.sol\":22256:22258  to */\n      dup3\n        /* \"minerpunk/ERC721A/ERC721A.sol\":22229:22244  _tokenApprovals */\n      0x0b\n        /* \"minerpunk/ERC721A/ERC721A.sol\":22229:22253  _tokenApprovals[tokenId] */\n      0x00\n        /* \"minerpunk/ERC721A/ERC721A.sol\":22245:22252  tokenId */\n      dup5\n        /* \"minerpunk/ERC721A/ERC721A.sol\":22229:22253  _tokenApprovals[tokenId] */\n      dup2\n      mstore\n      0x20\n      add\n      swap1\n      dup2\n      mstore\n      0x20\n      add\n      0x00\n      keccak256\n      0x00\n        /* \"minerpunk/ERC721A/ERC721A.sol\":22229:22258  _tokenApprovals[tokenId] = to */\n      0x0100\n      exp\n      dup2\n      sload\n      dup2\n      0xffffffffffffffffffffffffffffffffffffffff\n      mul\n      not\n      and\n      swap1\n      dup4\n      0xffffffffffffffffffffffffffffffffffffffff\n      and\n      mul\n      or\n      swap1\n      sstore\n      pop\n        /* \"minerpunk/ERC721A/ERC721A.sol\":22294:22301  tokenId */\n      dup2\n        /* \"minerpunk/ERC721A/ERC721A.sol\":22290:22292  to */\n      dup4\n        /* \"minerpunk/ERC721A/ERC721A.sol\":22274:22302  Approval(owner, to, tokenId) */\n      0xffffffffffffffffffffffffffffffffffffffff\n      and\n        /* \"minerpunk/ERC721A/ERC721A.sol\":22283:22288  owner */\n      dup3\n        /* \"minerpunk/ERC721A/ERC721A.sol\":22274:22302  Approval(owner, to, tokenId) */\n      0xffffffffffffffffffffffffffffffffffffffff\n      and\n      0x8c5be1e5ebec7d5bd14f71427d1e84f3dd0314c0f7b2291e5b200ac8c7c3b925\n      mload(0x40)\n      mload(0x40)\n      dup1\n      swap2\n      sub\n      swap1\n      log4\n        /* \"minerpunk/ERC721A/ERC721A.sol\":22114:22310  function _approve(... */\n      pop\n      pop\n      pop\n      jump\t// out\n        /* \"minerpunk/ERC721A/ERC721A.sol\":4938:5030  function _startTokenId() internal view virtual returns (uint256) {... */\n    tag_146:\n        /* \"minerpunk/ERC721A/ERC721A.sol\":4994:5001  uint256 */\n      0x00\n        /* \"minerpunk/ERC721A/ERC721A.sol\":4938:5030  function _startTokenId() internal view virtual returns (uint256) {... */\n      swap1\n      jump\t// out\n        /* \"minerpunk/ERC721A/ERC721A.sol\":16342:18870  function _transfer(... */\n    tag_149:\n        /* \"minerpunk/ERC721A/ERC721A.sol\":16461:16480  uint256 powerNumber */\n      0x00\n        /* \"minerpunk/ERC721A/ERC721A.sol\":16483:16504  tokenIDPower(tokenId) */\n      tag_241\n        /* \"minerpunk/ERC721A/ERC721A.sol\":16496:16503  tokenId */\n      dup3\n        /* \"minerpunk/ERC721A/ERC721A.sol\":16483:16495  tokenIDPower */\n      tag_103\n        /* \"minerpunk/ERC721A/ERC721A.sol\":16483:16504  tokenIDPower(tokenId) */\n      jump\t// in\n    tag_241:\n        /* \"minerpunk/ERC721A/ERC721A.sol\":16461:16504  uint256 powerNumber = tokenIDPower(tokenId) */\n      swap1\n      pop\n        /* \"minerpunk/ERC721A/ERC721A.sol\":16544:16560  MineStatus(from) */\n      tag_242\n        /* \"minerpunk/ERC721A/ERC721A.sol\":16555:16559  from */\n      dup5\n        /* \"minerpunk/ERC721A/ERC721A.sol\":16544:16554  MineStatus */\n      tag_85\n        /* \"minerpunk/ERC721A/ERC721A.sol\":16544:16560  MineStatus(from) */\n      jump\t// in\n    tag_242:\n        /* \"minerpunk/ERC721A/ERC721A.sol\":16523:16532  _mineInfo */\n      0x0d\n        /* \"minerpunk/ERC721A/ERC721A.sol\":16523:16538  _mineInfo[from] */\n      0x00\n        /* \"minerpunk/ERC721A/ERC721A.sol\":16533:16537  from */\n      dup7\n        /* \"minerpunk/ERC721A/ERC721A.sol\":16523:16538  _mineInfo[from] */\n      0xffffffffffffffffffffffffffffffffffffffff\n      and\n      0xffffffffffffffffffffffffffffffffffffffff\n      and\n      dup2\n      mstore\n      0x20\n      add\n      swap1\n      dup2\n      mstore\n      0x20\n      add\n      0x00\n      keccak256\n        /* \"minerpunk/ERC721A/ERC721A.sol\":16523:16541  _mineInfo[from][3] */\n      0x00\n        /* \"minerpunk/ERC721A/ERC721A.sol\":16539:16540  3 */\n      0x03\n        /* \"minerpunk/ERC721A/ERC721A.sol\":16523:16541  _mineInfo[from][3] */\n      dup2\n      mstore\n      0x20\n      add\n      swap1\n      dup2\n      mstore\n      0x20\n      add\n      0x00\n      keccak256\n        /* \"minerpunk/ERC721A/ERC721A.sol\":16523:16560  _mineInfo[from][3] = MineStatus(from) */\n      dup2\n      swap1\n      sstore\n      pop\n        /* \"minerpunk/ERC721A/ERC721A.sol\":16592:16627  _mineInfo[from][2].sub(powerNumber) */\n      tag_243\n        /* \"minerpunk/ERC721A/ERC721A.sol\":16615:16626  powerNumber */\n      dup2\n        /* \"minerpunk/ERC721A/ERC721A.sol\":16592:16601  _mineInfo */\n      0x0d\n        /* \"minerpunk/ERC721A/ERC721A.sol\":16592:16607  _mineInfo[from] */\n      0x00\n        /* \"minerpunk/ERC721A/ERC721A.sol\":16602:16606  from */\n      dup8\n        /* \"minerpunk/ERC721A/ERC721A.sol\":16592:16607  _mineInfo[from] */\n      0xffffffffffffffffffffffffffffffffffffffff\n      and\n      0xffffffffffffffffffffffffffffffffffffffff\n      and\n      dup2\n      mstore\n      0x20\n      add\n      swap1\n      dup2\n      mstore\n      0x20\n      add\n      0x00\n      keccak256\n        /* \"minerpunk/ERC721A/ERC721A.sol\":16592:16610  _mineInfo[from][2] */\n      0x00\n        /* \"minerpunk/ERC721A/ERC721A.sol\":16608:16609  2 */\n      0x02\n        /* \"minerpunk/ERC721A/ERC721A.sol\":16592:16610  _mineInfo[from][2] */\n      dup2\n      mstore\n      0x20\n      add\n      swap1\n      dup2\n      mstore\n      0x20\n      add\n      0x00\n      keccak256\n      sload\n        /* \"minerpunk/ERC721A/ERC721A.sol\":16592:16614  _mineInfo[from][2].sub */\n      tag_186\n      swap1\n        /* \"minerpunk/ERC721A/ERC721A.sol\":16592:16627  _mineInfo[from][2].sub(powerNumber) */\n      swap2\n      swap1\n      0xffffffff\n      and\n      jump\t// in\n    tag_243:\n        /* \"minerpunk/ERC721A/ERC721A.sol\":16571:16580  _mineInfo */\n      0x0d\n        /* \"minerpunk/ERC721A/ERC721A.sol\":16571:16586  _mineInfo[from] */\n      0x00\n        /* \"minerpunk/ERC721A/ERC721A.sol\":16581:16585  from */\n      dup7\n        /* \"minerpunk/ERC721A/ERC721A.sol\":16571:16586  _mineInfo[from] */\n      0xffffffffffffffffffffffffffffffffffffffff\n      and\n      0xffffffffffffffffffffffffffffffffffffffff\n      and\n      dup2\n      mstore\n      0x20\n      add\n      swap1\n      dup2\n      mstore\n      0x20\n      add\n      0x00\n      keccak256\n        /* \"minerpunk/ERC721A/ERC721A.sol\":16571:16589  _mineInfo[from][2] */\n      0x00\n        /* \"minerpunk/ERC721A/ERC721A.sol\":16587:16588  2 */\n      0x02\n        /* \"minerpunk/ERC721A/ERC721A.sol\":16571:16589  _mineInfo[from][2] */\n      dup2\n      mstore\n      0x20\n      add\n      swap1\n      dup2\n      mstore\n      0x20\n      add\n      0x00\n      keccak256\n        /* \"minerpunk/ERC721A/ERC721A.sol\":16571:16627  _mineInfo[from][2] = _mineInfo[from][2].sub(powerNumber) */\n      dup2\n      swap1\n      sstore\n      pop\n        /* \"minerpunk/ERC721A/ERC721A.sol\":16659:16671  block.number */\n      number\n        /* \"minerpunk/ERC721A/ERC721A.sol\":16638:16647  _mineInfo */\n      0x0d\n        /* \"minerpunk/ERC721A/ERC721A.sol\":16638:16653  _mineInfo[from] */\n      0x00\n        /* \"minerpunk/ERC721A/ERC721A.sol\":16648:16652  from */\n      dup7\n        /* \"minerpunk/ERC721A/ERC721A.sol\":16638:16653  _mineInfo[from] */\n      0xffffffffffffffffffffffffffffffffffffffff\n      and\n      0xffffffffffffffffffffffffffffffffffffffff\n      and\n      dup2\n      mstore\n      0x20\n      add\n      swap1\n      dup2\n      mstore\n      0x20\n      add\n      0x00\n      keccak256\n        /* \"minerpunk/ERC721A/ERC721A.sol\":16638:16656  _mineInfo[from][1] */\n      0x00\n        /* \"minerpunk/ERC721A/ERC721A.sol\":16654:16655  1 */\n      0x01\n        /* \"minerpunk/ERC721A/ERC721A.sol\":16638:16656  _mineInfo[from][1] */\n      dup2\n      mstore\n      0x20\n      add\n      swap1\n      dup2\n      mstore\n      0x20\n      add\n      0x00\n      keccak256\n        /* \"minerpunk/ERC721A/ERC721A.sol\":16638:16671  _mineInfo[from][1] = block.number */\n      dup2\n      swap1\n      sstore\n      pop\n        /* \"minerpunk/ERC721A/ERC721A.sol\":16701:16715  MineStatus(to) */\n      tag_244\n        /* \"minerpunk/ERC721A/ERC721A.sol\":16712:16714  to */\n      dup4\n        /* \"minerpunk/ERC721A/ERC721A.sol\":16701:16711  MineStatus */\n      tag_85\n        /* \"minerpunk/ERC721A/ERC721A.sol\":16701:16715  MineStatus(to) */\n      jump\t// in\n    tag_244:\n        /* \"minerpunk/ERC721A/ERC721A.sol\":16682:16691  _mineInfo */\n      0x0d\n        /* \"minerpunk/ERC721A/ERC721A.sol\":16682:16695  _mineInfo[to] */\n      0x00\n        /* \"minerpunk/ERC721A/ERC721A.sol\":16692:16694  to */\n      dup6\n        /* \"minerpunk/ERC721A/ERC721A.sol\":16682:16695  _mineInfo[to] */\n      0xffffffffffffffffffffffffffffffffffffffff\n      and\n      0xffffffffffffffffffffffffffffffffffffffff\n      and\n      dup2\n      mstore\n      0x20\n      add\n      swap1\n      dup2\n      mstore\n      0x20\n      add\n      0x00\n      keccak256\n        /* \"minerpunk/ERC721A/ERC721A.sol\":16682:16698  _mineInfo[to][3] */\n      0x00\n        /* \"minerpunk/ERC721A/ERC721A.sol\":16696:16697  3 */\n      0x03\n        /* \"minerpunk/ERC721A/ERC721A.sol\":16682:16698  _mineInfo[to][3] */\n      dup2\n      mstore\n      0x20\n      add\n      swap1\n      dup2\n      mstore\n      0x20\n      add\n      0x00\n      keccak256\n        /* \"minerpunk/ERC721A/ERC721A.sol\":16682:16715  _mineInfo[to][3] = MineStatus(to) */\n      dup2\n      swap1\n      sstore\n      pop\n        /* \"minerpunk/ERC721A/ERC721A.sol\":16745:16778  _mineInfo[to][2].add(powerNumber) */\n      tag_245\n        /* \"minerpunk/ERC721A/ERC721A.sol\":16766:16777  powerNumber */\n      dup2\n        /* \"minerpunk/ERC721A/ERC721A.sol\":16745:16754  _mineInfo */\n      0x0d\n        /* \"minerpunk/ERC721A/ERC721A.sol\":16745:16758  _mineInfo[to] */\n      0x00\n        /* \"minerpunk/ERC721A/ERC721A.sol\":16755:16757  to */\n      dup7\n        /* \"minerpunk/ERC721A/ERC721A.sol\":16745:16758  _mineInfo[to] */\n      0xffffffffffffffffffffffffffffffffffffffff\n      and\n      0xffffffffffffffffffffffffffffffffffffffff\n      and\n      dup2\n      mstore\n      0x20\n      add\n      swap1\n      dup2\n      mstore\n      0x20\n      add\n      0x00\n      keccak256\n        /* \"minerpunk/ERC721A/ERC721A.sol\":16745:16761  _mineInfo[to][2] */\n      0x00\n        /* \"minerpunk/ERC721A/ERC721A.sol\":16759:16760  2 */\n      0x02\n        /* \"minerpunk/ERC721A/ERC721A.sol\":16745:16761  _mineInfo[to][2] */\n      dup2\n      mstore\n      0x20\n      add\n      swap1\n      dup2\n      mstore\n      0x20\n      add\n      0x00\n      keccak256\n      sload\n        /* \"minerpunk/ERC721A/ERC721A.sol\":16745:16765  _mineInfo[to][2].add */\n      tag_192\n      swap1\n        /* \"minerpunk/ERC721A/ERC721A.sol\":16745:16778  _mineInfo[to][2].add(powerNumber) */\n      swap2\n      swap1\n      0xffffffff\n      and\n      jump\t// in\n    tag_245:\n        /* \"minerpunk/ERC721A/ERC721A.sol\":16726:16735  _mineInfo */\n      0x0d\n        /* \"minerpunk/ERC721A/ERC721A.sol\":16726:16739  _mineInfo[to] */\n      0x00\n        /* \"minerpunk/ERC721A/ERC721A.sol\":16736:16738  to */\n      dup6\n        /* \"minerpunk/ERC721A/ERC721A.sol\":16726:16739  _mineInfo[to] */\n      0xffffffffffffffffffffffffffffffffffffffff\n      and\n      0xffffffffffffffffffffffffffffffffffffffff\n      and\n      dup2\n      mstore\n      0x20\n      add\n      swap1\n      dup2\n      mstore\n      0x20\n      add\n      0x00\n      keccak256\n        /* \"minerpunk/ERC721A/ERC721A.sol\":16726:16742  _mineInfo[to][2] */\n      0x00\n        /* \"minerpunk/ERC721A/ERC721A.sol\":16740:16741  2 */\n      0x02\n        /* \"minerpunk/ERC721A/ERC721A.sol\":16726:16742  _mineInfo[to][2] */\n      dup2\n      mstore\n      0x20\n      add\n      swap1\n      dup2\n      mstore\n      0x20\n      add\n      0x00\n      keccak256\n        /* \"minerpunk/ERC721A/ERC721A.sol\":16726:16778  _mineInfo[to][2] = _mineInfo[to][2].add(powerNumber) */\n      dup2\n      swap1\n      sstore\n      pop\n        /* \"minerpunk/ERC721A/ERC721A.sol\":16808:16820  block.number */\n      number\n        /* \"minerpunk/ERC721A/ERC721A.sol\":16789:16798  _mineInfo */\n      0x0d\n        /* \"minerpunk/ERC721A/ERC721A.sol\":16789:16802  _mineInfo[to] */\n      0x00\n        /* \"minerpunk/ERC721A/ERC721A.sol\":16799:16801  to */\n      dup6\n        /* \"minerpunk/ERC721A/ERC721A.sol\":16789:16802  _mineInfo[to] */\n      0xffffffffffffffffffffffffffffffffffffffff\n      and\n      0xffffffffffffffffffffffffffffffffffffffff\n      and\n      dup2\n      mstore\n      0x20\n      add\n      swap1\n      dup2\n      mstore\n      0x20\n      add\n      0x00\n      keccak256\n        /* \"minerpunk/ERC721A/ERC721A.sol\":16789:16805  _mineInfo[to][1] */\n      0x00\n        /* \"minerpunk/ERC721A/ERC721A.sol\":16803:16804  1 */\n      0x01\n        /* \"minerpunk/ERC721A/ERC721A.sol\":16789:16805  _mineInfo[to][1] */\n      dup2\n      mstore\n      0x20\n      add\n      swap1\n      dup2\n      mstore\n      0x20\n      add\n      0x00\n      keccak256\n        /* \"minerpunk/ERC721A/ERC721A.sol\":16789:16820  _mineInfo[to][1] = block.number */\n      dup2\n      swap1\n      sstore\n      pop\n        /* \"minerpunk/ERC721A/ERC721A.sol\":16855:16890  TokenOwnership memory prevOwnership */\n      0x00\n        /* \"minerpunk/ERC721A/ERC721A.sol\":16893:16914  _ownershipOf(tokenId) */\n      tag_246\n        /* \"minerpunk/ERC721A/ERC721A.sol\":16906:16913  tokenId */\n      dup4\n        /* \"minerpunk/ERC721A/ERC721A.sol\":16893:16905  _ownershipOf */\n      tag_161\n        /* \"minerpunk/ERC721A/ERC721A.sol\":16893:16914  _ownershipOf(tokenId) */\n      jump\t// in\n    tag_246:\n        /* \"minerpunk/ERC721A/ERC721A.sol\":16855:16914  TokenOwnership memory prevOwnership = _ownershipOf(tokenId) */\n      swap1\n      pop\n        /* \"minerpunk/ERC721A/ERC721A.sol\":16953:16957  from */\n      dup5\n        /* \"minerpunk/ERC721A/ERC721A.sol\":16931:16957  prevOwnership.addr != from */\n      0xffffffffffffffffffffffffffffffffffffffff\n      and\n        /* \"minerpunk/ERC721A/ERC721A.sol\":16931:16944  prevOwnership */\n      dup2\n        /* \"minerpunk/ERC721A/ERC721A.sol\":16931:16949  prevOwnership.addr */\n      0x00\n      add\n      mload\n        /* \"minerpunk/ERC721A/ERC721A.sol\":16931:16957  prevOwnership.addr != from */\n      0xffffffffffffffffffffffffffffffffffffffff\n      and\n      eq\n        /* \"minerpunk/ERC721A/ERC721A.sol\":16927:16994  if (prevOwnership.addr != from) revert TransferFromIncorrectOwner() */\n      tag_247\n      jumpi\n        /* \"minerpunk/ERC721A/ERC721A.sol\":16966:16994  TransferFromIncorrectOwner() */\n      mload(0x40)\n      0xa114810000000000000000000000000000000000000000000000000000000000\n      dup2\n      mstore\n      0x04\n      add\n      mload(0x40)\n      dup1\n      swap2\n      sub\n      swap1\n      revert\n        /* \"minerpunk/ERC721A/ERC721A.sol\":16927:16994  if (prevOwnership.addr != from) revert TransferFromIncorrectOwner() */\n    tag_247:\n        /* \"minerpunk/ERC721A/ERC721A.sol\":17007:17029  bool isApprovedOrOwner */\n      0x00\n        /* \"minerpunk/ERC721A/ERC721A.sol\":17049:17053  from */\n      dup6\n        /* \"minerpunk/ERC721A/ERC721A.sol\":17033:17053  _msgSender() == from */\n      0xffffffffffffffffffffffffffffffffffffffff\n      and\n        /* \"minerpunk/ERC721A/ERC721A.sol\":17033:17045  _msgSender() */\n      tag_248\n        /* \"minerpunk/ERC721A/ERC721A.sol\":17033:17043  _msgSender */\n      tag_137\n        /* \"minerpunk/ERC721A/ERC721A.sol\":17033:17045  _msgSender() */\n      jump\t// in\n    tag_248:\n        /* \"minerpunk/ERC721A/ERC721A.sol\":17033:17053  _msgSender() == from */\n      0xffffffffffffffffffffffffffffffffffffffff\n      and\n      eq\n        /* \"minerpunk/ERC721A/ERC721A.sol\":17033:17106  _msgSender() == from ||... */\n      dup1\n      tag_249\n      jumpi\n      pop\n        /* \"minerpunk/ERC721A/ERC721A.sol\":17070:17106  isApprovedForAll(from, _msgSender()) */\n      tag_250\n        /* \"minerpunk/ERC721A/ERC721A.sol\":17087:17091  from */\n      dup7\n        /* \"minerpunk/ERC721A/ERC721A.sol\":17093:17105  _msgSender() */\n      tag_251\n        /* \"minerpunk/ERC721A/ERC721A.sol\":17093:17103  _msgSender */\n      tag_137\n        /* \"minerpunk/ERC721A/ERC721A.sol\":17093:17105  _msgSender() */\n      jump\t// in\n    tag_251:\n        /* \"minerpunk/ERC721A/ERC721A.sol\":17070:17086  isApprovedForAll */\n      tag_111\n        /* \"minerpunk/ERC721A/ERC721A.sol\":17070:17106  isApprovedForAll(from, _msgSender()) */\n      jump\t// in\n    tag_250:\n        /* \"minerpunk/ERC721A/ERC721A.sol\":17033:17106  _msgSender() == from ||... */\n    tag_249:\n        /* \"minerpunk/ERC721A/ERC721A.sol\":17033:17159  _msgSender() == from ||... */\n      dup1\n      tag_252\n      jumpi\n      pop\n        /* \"minerpunk/ERC721A/ERC721A.sol\":17147:17159  _msgSender() */\n      tag_253\n        /* \"minerpunk/ERC721A/ERC721A.sol\":17147:17157  _msgSender */\n      tag_137\n        /* \"minerpunk/ERC721A/ERC721A.sol\":17147:17159  _msgSender() */\n      jump\t// in\n    tag_253:\n        /* \"minerpunk/ERC721A/ERC721A.sol\":17123:17159  getApproved(tokenId) == _msgSender() */\n      0xffffffffffffffffffffffffffffffffffffffff\n      and\n        /* \"minerpunk/ERC721A/ERC721A.sol\":17123:17143  getApproved(tokenId) */\n      tag_254\n        /* \"minerpunk/ERC721A/ERC721A.sol\":17135:17142  tokenId */\n      dup6\n        /* \"minerpunk/ERC721A/ERC721A.sol\":17123:17134  getApproved */\n      tag_41\n        /* \"minerpunk/ERC721A/ERC721A.sol\":17123:17143  getApproved(tokenId) */\n      jump\t// in\n    tag_254:\n        /* \"minerpunk/ERC721A/ERC721A.sol\":17123:17159  getApproved(tokenId) == _msgSender() */\n      0xffffffffffffffffffffffffffffffffffffffff\n      and\n      eq\n        /* \"minerpunk/ERC721A/ERC721A.sol\":17033:17159  _msgSender() == from ||... */\n    tag_252:\n        /* \"minerpunk/ERC721A/ERC721A.sol\":17007:17160  bool isApprovedOrOwner = (_msgSender() == from ||... */\n      swap1\n      pop\n        /* \"minerpunk/ERC721A/ERC721A.sol\":17178:17195  isApprovedOrOwner */\n      dup1\n        /* \"minerpunk/ERC721A/ERC721A.sol\":17173:17239  if (!isApprovedOrOwner) revert TransferCallerNotOwnerNorApproved() */\n      tag_255\n      jumpi\n        /* \"minerpunk/ERC721A/ERC721A.sol\":17204:17239  TransferCallerNotOwnerNorApproved() */\n      mload(0x40)\n      0x59c896be00000000000000000000000000000000000000000000000000000000\n      dup2\n      mstore\n      0x04\n      add\n      mload(0x40)\n      dup1\n      swap2\n      sub\n      swap1\n      revert\n        /* \"minerpunk/ERC721A/ERC721A.sol\":17173:17239  if (!isApprovedOrOwner) revert TransferCallerNotOwnerNorApproved() */\n    tag_255:\n        /* \"minerpunk/ERC721A/ERC721A.sol\":17268:17269  0 */\n      0x00\n        /* \"minerpunk/ERC721A/ERC721A.sol\":17254:17270  to == address(0) */\n      0xffffffffffffffffffffffffffffffffffffffff\n      and\n        /* \"minerpunk/ERC721A/ERC721A.sol\":17254:17256  to */\n      dup6\n        /* \"minerpunk/ERC721A/ERC721A.sol\":17254:17270  to == address(0) */\n      0xffffffffffffffffffffffffffffffffffffffff\n      and\n      sub\n        /* \"minerpunk/ERC721A/ERC721A.sol\":17250:17302  if (to == address(0)) revert TransferToZeroAddress() */\n      tag_256\n      jumpi\n        /* \"minerpunk/ERC721A/ERC721A.sol\":17279:17302  TransferToZeroAddress() */\n      mload(0x40)\n      0xea553b3400000000000000000000000000000000000000000000000000000000\n      dup2\n      mstore\n      0x04\n      add\n      mload(0x40)\n      dup1\n      swap2\n      sub\n      swap1\n      revert\n        /* \"minerpunk/ERC721A/ERC721A.sol\":17250:17302  if (to == address(0)) revert TransferToZeroAddress() */\n    tag_256:\n        /* \"minerpunk/ERC721A/ERC721A.sol\":17315:17358  _beforeTokenTransfers(from, to, tokenId, 1) */\n      tag_257\n        /* \"minerpunk/ERC721A/ERC721A.sol\":17337:17341  from */\n      dup7\n        /* \"minerpunk/ERC721A/ERC721A.sol\":17343:17345  to */\n      dup7\n        /* \"minerpunk/ERC721A/ERC721A.sol\":17347:17354  tokenId */\n      dup7\n        /* \"minerpunk/ERC721A/ERC721A.sol\":17356:17357  1 */\n      0x01\n        /* \"minerpunk/ERC721A/ERC721A.sol\":17315:17336  _beforeTokenTransfers */\n      tag_258\n        /* \"minerpunk/ERC721A/ERC721A.sol\":17315:17358  _beforeTokenTransfers(from, to, tokenId, 1) */\n      jump\t// in\n    tag_257:\n        /* \"minerpunk/ERC721A/ERC721A.sol\":17423:17458  _approve(address(0), tokenId, from) */\n      tag_259\n        /* \"minerpunk/ERC721A/ERC721A.sol\":17440:17441  0 */\n      0x00\n        /* \"minerpunk/ERC721A/ERC721A.sol\":17444:17451  tokenId */\n      dup6\n        /* \"minerpunk/ERC721A/ERC721A.sol\":17453:17457  from */\n      dup9\n        /* \"minerpunk/ERC721A/ERC721A.sol\":17423:17431  _approve */\n      tag_143\n        /* \"minerpunk/ERC721A/ERC721A.sol\":17423:17458  _approve(address(0), tokenId, from) */\n      jump\t// in\n    tag_259:\n        /* \"minerpunk/ERC721A/ERC721A.sol\":17784:17785  1 */\n      0x01\n        /* \"minerpunk/ERC721A/ERC721A.sol\":17754:17766  _addressData */\n      0x0a\n        /* \"minerpunk/ERC721A/ERC721A.sol\":17754:17772  _addressData[from] */\n      0x00\n        /* \"minerpunk/ERC721A/ERC721A.sol\":17767:17771  from */\n      dup9\n        /* \"minerpunk/ERC721A/ERC721A.sol\":17754:17772  _addressData[from] */\n      0xffffffffffffffffffffffffffffffffffffffff\n      and\n      0xffffffffffffffffffffffffffffffffffffffff\n      and\n      dup2\n      mstore\n      0x20\n      add\n      swap1\n      dup2\n      mstore\n      0x20\n      add\n      0x00\n      keccak256\n        /* \"minerpunk/ERC721A/ERC721A.sol\":17754:17780  _addressData[from].balance */\n      0x00\n      add\n      0x00\n        /* \"minerpunk/ERC721A/ERC721A.sol\":17754:17785  _addressData[from].balance -= 1 */\n      dup3\n      dup3\n      dup3\n      swap1\n      sload\n      swap1\n      0x0100\n      exp\n      swap1\n      div\n      0xffffffffffffffff\n      and\n      sub\n      swap3\n      pop\n      0x0100\n      exp\n      dup2\n      sload\n      dup2\n      0xffffffffffffffff\n      mul\n      not\n      and\n      swap1\n      dup4\n      0xffffffffffffffff\n      and\n      mul\n      or\n      swap1\n      sstore\n      pop\n        /* \"minerpunk/ERC721A/ERC721A.sol\":17828:17829  1 */\n      0x01\n        /* \"minerpunk/ERC721A/ERC721A.sol\":17800:17812  _addressData */\n      0x0a\n        /* \"minerpunk/ERC721A/ERC721A.sol\":17800:17816  _addressData[to] */\n      0x00\n        /* \"minerpunk/ERC721A/ERC721A.sol\":17813:17815  to */\n      dup8\n        /* \"minerpunk/ERC721A/ERC721A.sol\":17800:17816  _addressData[to] */\n      0xffffffffffffffffffffffffffffffffffffffff\n      and\n      0xffffffffffffffffffffffffffffffffffffffff\n      and\n      dup2\n      mstore\n      0x20\n      add\n      swap1\n      dup2\n      mstore\n      0x20\n      add\n      0x00\n      keccak256\n        /* \"minerpunk/ERC721A/ERC721A.sol\":17800:17824  _addressData[to].balance */\n      0x00\n      add\n      0x00\n        /* \"minerpunk/ERC721A/ERC721A.sol\":17800:17829  _addressData[to].balance += 1 */\n      dup3\n      dup3\n      dup3\n      swap1\n      sload\n      swap1\n      0x0100\n      exp\n      swap1\n      div\n      0xffffffffffffffff\n      and\n      add\n      swap3\n      pop\n      0x0100\n      exp\n      dup2\n      sload\n      dup2\n      0xffffffffffffffff\n      mul\n      not\n      and\n      swap1\n      dup4\n      0xffffffffffffffff\n      and\n      mul\n      or\n      swap1\n      sstore\n      pop\n        /* \"minerpunk/ERC721A/ERC721A.sol\":17846:17877  TokenOwnership storage currSlot */\n      0x00\n        /* \"minerpunk/ERC721A/ERC721A.sol\":17880:17891  _ownerships */\n      0x09\n        /* \"minerpunk/ERC721A/ERC721A.sol\":17880:17900  _ownerships[tokenId] */\n      0x00\n        /* \"minerpunk/ERC721A/ERC721A.sol\":17892:17899  tokenId */\n      dup7\n        /* \"minerpunk/ERC721A/ERC721A.sol\":17880:17900  _ownerships[tokenId] */\n      dup2\n      mstore\n      0x20\n      add\n      swap1\n      dup2\n      mstore\n      0x20\n      add\n      0x00\n      keccak256\n        /* \"minerpunk/ERC721A/ERC721A.sol\":17846:17900  TokenOwnership storage currSlot = _ownerships[tokenId] */\n      swap1\n      pop\n        /* \"minerpunk/ERC721A/ERC721A.sol\":17931:17933  to */\n      dup6\n        /* \"minerpunk/ERC721A/ERC721A.sol\":17915:17923  currSlot */\n      dup2\n        /* \"minerpunk/ERC721A/ERC721A.sol\":17915:17928  currSlot.addr */\n      0x00\n      add\n      0x00\n        /* \"minerpunk/ERC721A/ERC721A.sol\":17915:17933  currSlot.addr = to */\n      0x0100\n      exp\n      dup2\n      sload\n      dup2\n      0xffffffffffffffffffffffffffffffffffffffff\n      mul\n      not\n      and\n      swap1\n      dup4\n      0xffffffffffffffffffffffffffffffffffffffff\n      and\n      mul\n      or\n      swap1\n      sstore\n      pop\n        /* \"minerpunk/ERC721A/ERC721A.sol\":17981:17996  block.timestamp */\n      timestamp\n        /* \"minerpunk/ERC721A/ERC721A.sol\":17948:17956  currSlot */\n      dup2\n        /* \"minerpunk/ERC721A/ERC721A.sol\":17948:17971  currSlot.startTimestamp */\n      0x00\n      add\n      0x14\n        /* \"minerpunk/ERC721A/ERC721A.sol\":17948:17997  currSlot.startTimestamp = uint64(block.timestamp) */\n      0x0100\n      exp\n      dup2\n      sload\n      dup2\n      0xffffffffffffffff\n      mul\n      not\n      and\n      swap1\n      dup4\n      0xffffffffffffffff\n      and\n      mul\n      or\n      swap1\n      sstore\n      pop\n        /* \"minerpunk/ERC721A/ERC721A.sol\":18249:18268  uint256 nextTokenId */\n      0x00\n        /* \"minerpunk/ERC721A/ERC721A.sol\":18281:18282  1 */\n      0x01\n        /* \"minerpunk/ERC721A/ERC721A.sol\":18271:18278  tokenId */\n      dup7\n        /* \"minerpunk/ERC721A/ERC721A.sol\":18271:18282  tokenId + 1 */\n      add\n        /* \"minerpunk/ERC721A/ERC721A.sol\":18249:18282  uint256 nextTokenId = tokenId + 1 */\n      swap1\n      pop\n        /* \"minerpunk/ERC721A/ERC721A.sol\":18297:18328  TokenOwnership storage nextSlot */\n      0x00\n        /* \"minerpunk/ERC721A/ERC721A.sol\":18331:18342  _ownerships */\n      0x09\n        /* \"minerpunk/ERC721A/ERC721A.sol\":18331:18355  _ownerships[nextTokenId] */\n      0x00\n        /* \"minerpunk/ERC721A/ERC721A.sol\":18343:18354  nextTokenId */\n      dup4\n        /* \"minerpunk/ERC721A/ERC721A.sol\":18331:18355  _ownerships[nextTokenId] */\n      dup2\n      mstore\n      0x20\n      add\n      swap1\n      dup2\n      mstore\n      0x20\n      add\n      0x00\n      keccak256\n        /* \"minerpunk/ERC721A/ERC721A.sol\":18297:18355  TokenOwnership storage nextSlot = _ownerships[nextTokenId] */\n      swap1\n      pop\n        /* \"minerpunk/ERC721A/ERC721A.sol\":18399:18400  0 */\n      0x00\n        /* \"minerpunk/ERC721A/ERC721A.sol\":18374:18401  nextSlot.addr == address(0) */\n      0xffffffffffffffffffffffffffffffffffffffff\n      and\n        /* \"minerpunk/ERC721A/ERC721A.sol\":18374:18382  nextSlot */\n      dup2\n        /* \"minerpunk/ERC721A/ERC721A.sol\":18374:18387  nextSlot.addr */\n      0x00\n      add\n      0x00\n      swap1\n      sload\n      swap1\n      0x0100\n      exp\n      swap1\n      div\n      0xffffffffffffffffffffffffffffffffffffffff\n      and\n        /* \"minerpunk/ERC721A/ERC721A.sol\":18374:18401  nextSlot.addr == address(0) */\n      0xffffffffffffffffffffffffffffffffffffffff\n      and\n      sub\n        /* \"minerpunk/ERC721A/ERC721A.sol\":18370:18754  if (nextSlot.addr == address(0)) {... */\n      tag_260\n      jumpi\n        /* \"minerpunk/ERC721A/ERC721A.sol\":18584:18597  _currentIndex */\n      sload(0x04)\n        /* \"minerpunk/ERC721A/ERC721A.sol\":18569:18580  nextTokenId */\n      dup3\n        /* \"minerpunk/ERC721A/ERC721A.sol\":18569:18597  nextTokenId != _currentIndex */\n      eq\n        /* \"minerpunk/ERC721A/ERC721A.sol\":18565:18739  if (nextTokenId != _currentIndex) {... */\n      tag_261\n      jumpi\n        /* \"minerpunk/ERC721A/ERC721A.sol\":18638:18642  from */\n      dup9\n        /* \"minerpunk/ERC721A/ERC721A.sol\":18622:18630  nextSlot */\n      dup2\n        /* \"minerpunk/ERC721A/ERC721A.sol\":18622:18635  nextSlot.addr */\n      0x00\n      add\n      0x00\n        /* \"minerpunk/ERC721A/ERC721A.sol\":18622:18642  nextSlot.addr = from */\n      0x0100\n      exp\n      dup2\n      sload\n      dup2\n      0xffffffffffffffffffffffffffffffffffffffff\n      mul\n      not\n      and\n      swap1\n      dup4\n      0xffffffffffffffffffffffffffffffffffffffff\n      and\n      mul\n      or\n      swap1\n      sstore\n      pop\n        /* \"minerpunk/ERC721A/ERC721A.sol\":18691:18704  prevOwnership */\n      dup5\n        /* \"minerpunk/ERC721A/ERC721A.sol\":18691:18719  prevOwnership.startTimestamp */\n      0x20\n      add\n      mload\n        /* \"minerpunk/ERC721A/ERC721A.sol\":18665:18673  nextSlot */\n      dup2\n        /* \"minerpunk/ERC721A/ERC721A.sol\":18665:18688  nextSlot.startTimestamp */\n      0x00\n      add\n      0x14\n        /* \"minerpunk/ERC721A/ERC721A.sol\":18665:18719  nextSlot.startTimestamp = prevOwnership.startTimestamp */\n      0x0100\n      exp\n      dup2\n      sload\n      dup2\n      0xffffffffffffffff\n      mul\n      not\n      and\n      swap1\n      dup4\n      0xffffffffffffffff\n      and\n      mul\n      or\n      swap1\n      sstore\n      pop\n        /* \"minerpunk/ERC721A/ERC721A.sol\":18565:18739  if (nextTokenId != _currentIndex) {... */\n    tag_261:\n        /* \"minerpunk/ERC721A/ERC721A.sol\":18370:18754  if (nextSlot.addr == address(0)) {... */\n    tag_260:\n        /* \"minerpunk/ERC721A/ERC721A.sol\":17729:18765  unchecked {... */\n      pop\n      pop\n      pop\n        /* \"minerpunk/ERC721A/ERC721A.sol\":18801:18808  tokenId */\n      dup4\n        /* \"minerpunk/ERC721A/ERC721A.sol\":18797:18799  to */\n      dup6\n        /* \"minerpunk/ERC721A/ERC721A.sol\":18782:18809  Transfer(from, to, tokenId) */\n      0xffffffffffffffffffffffffffffffffffffffff\n      and\n        /* \"minerpunk/ERC721A/ERC721A.sol\":18791:18795  from */\n      dup8\n        /* \"minerpunk/ERC721A/ERC721A.sol\":18782:18809  Transfer(from, to, tokenId) */\n      0xffffffffffffffffffffffffffffffffffffffff\n      and\n      0xddf252ad1be2c89b69c2b068fc378daa952ba7f163c4a11628f55a4df523b3ef\n      mload(0x40)\n      mload(0x40)\n      dup1\n      swap2\n      sub\n      swap1\n      log4\n        /* \"minerpunk/ERC721A/ERC721A.sol\":18820:18862  _afterTokenTransfers(from, to, tokenId, 1) */\n      tag_262\n        /* \"minerpunk/ERC721A/ERC721A.sol\":18841:18845  from */\n      dup7\n        /* \"minerpunk/ERC721A/ERC721A.sol\":18847:18849  to */\n      dup7\n        /* \"minerpunk/ERC721A/ERC721A.sol\":18851:18858  tokenId */\n      dup7\n        /* \"minerpunk/ERC721A/ERC721A.sol\":18860:18861  1 */\n      0x01\n        /* \"minerpunk/ERC721A/ERC721A.sol\":18820:18840  _afterTokenTransfers */\n      tag_263\n        /* \"minerpunk/ERC721A/ERC721A.sol\":18820:18862  _afterTokenTransfers(from, to, tokenId, 1) */\n      jump\t// in\n    tag_262:\n        /* \"minerpunk/ERC721A/ERC721A.sol\":16446:18870  {  ... */\n      pop\n      pop\n      pop\n        /* \"minerpunk/ERC721A/ERC721A.sol\":16342:18870  function _transfer(... */\n      pop\n      pop\n      pop\n      jump\t// out\n        /* \"@openzeppelin/contracts/utils/math/SafeMath.sol\":3465:3561  function mul(uint256 a, uint256 b) internal pure returns (uint256) {... */\n    tag_155:\n        /* \"@openzeppelin/contracts/utils/math/SafeMath.sol\":3523:3530  uint256 */\n      0x00\n        /* \"@openzeppelin/contracts/utils/math/SafeMath.sol\":3553:3554  b */\n      dup2\n        /* \"@openzeppelin/contracts/utils/math/SafeMath.sol\":3549:3550  a */\n      dup4\n        /* \"@openzeppelin/contracts/utils/math/SafeMath.sol\":3549:3554  a * b */\n      tag_265\n      swap2\n      swap1\n      tag_266\n      jump\t// in\n    tag_265:\n        /* \"@openzeppelin/contracts/utils/math/SafeMath.sol\":3542:3554  return a * b */\n      swap1\n      pop\n        /* \"@openzeppelin/contracts/utils/math/SafeMath.sol\":3465:3561  function mul(uint256 a, uint256 b) internal pure returns (uint256) {... */\n      swap3\n      swap2\n      pop\n      pop\n      jump\t// out\n        /* \"@openzeppelin/contracts/utils/math/SafeMath.sol\":3850:3946  function div(uint256 a, uint256 b) internal pure returns (uint256) {... */\n    tag_158:\n        /* \"@openzeppelin/contracts/utils/math/SafeMath.sol\":3908:3915  uint256 */\n      0x00\n        /* \"@openzeppelin/contracts/utils/math/SafeMath.sol\":3938:3939  b */\n      dup2\n        /* \"@openzeppelin/contracts/utils/math/SafeMath.sol\":3934:3935  a */\n      dup4\n        /* \"@openzeppelin/contracts/utils/math/SafeMath.sol\":3934:3939  a / b */\n      tag_268\n      swap2\n      swap1\n      tag_269\n      jump\t// in\n    tag_268:\n        /* \"@openzeppelin/contracts/utils/math/SafeMath.sol\":3927:3939  return a / b */\n      swap1\n      pop\n        /* \"@openzeppelin/contracts/utils/math/SafeMath.sol\":3850:3946  function div(uint256 a, uint256 b) internal pure returns (uint256) {... */\n      swap3\n      swap2\n      pop\n      pop\n      jump\t// out\n        /* \"minerpunk/ERC721A/ERC721A.sol\":8204:9315  function _ownershipOf(uint256 tokenId) internal view returns (TokenOwnership memory) {... */\n    tag_161:\n        /* \"minerpunk/ERC721A/ERC721A.sol\":8266:8287  TokenOwnership memory */\n      tag_270\n      tag_271\n      jump\t// in\n    tag_270:\n        /* \"minerpunk/ERC721A/ERC721A.sol\":8300:8312  uint256 curr */\n      0x00\n        /* \"minerpunk/ERC721A/ERC721A.sol\":8315:8322  tokenId */\n      dup3\n        /* \"minerpunk/ERC721A/ERC721A.sol\":8300:8322  uint256 curr = tokenId */\n      swap1\n      pop\n        /* \"minerpunk/ERC721A/ERC721A.sol\":8383:8387  curr */\n      dup1\n        /* \"minerpunk/ERC721A/ERC721A.sol\":8364:8379  _startTokenId() */\n      tag_273\n        /* \"minerpunk/ERC721A/ERC721A.sol\":8364:8377  _startTokenId */\n      tag_146\n        /* \"minerpunk/ERC721A/ERC721A.sol\":8364:8379  _startTokenId() */\n      jump\t// in\n    tag_273:\n        /* \"minerpunk/ERC721A/ERC721A.sol\":8364:8387  _startTokenId() <= curr */\n      gt\n        /* \"minerpunk/ERC721A/ERC721A.sol\":8360:9248  if (_startTokenId() <= curr) if (curr < _currentIndex) {... */\n      tag_274\n      jumpi\n        /* \"minerpunk/ERC721A/ERC721A.sol\":8400:8413  _currentIndex */\n      sload(0x04)\n        /* \"minerpunk/ERC721A/ERC721A.sol\":8393:8397  curr */\n      dup2\n        /* \"minerpunk/ERC721A/ERC721A.sol\":8393:8413  curr < _currentIndex */\n      lt\n        /* \"minerpunk/ERC721A/ERC721A.sol\":8389:9248  if (curr < _currentIndex) {... */\n      iszero\n      tag_275\n      jumpi\n        /* \"minerpunk/ERC721A/ERC721A.sol\":8434:8465  TokenOwnership memory ownership */\n      0x00\n        /* \"minerpunk/ERC721A/ERC721A.sol\":8468:8479  _ownerships */\n      0x09\n        /* \"minerpunk/ERC721A/ERC721A.sol\":8468:8485  _ownerships[curr] */\n      0x00\n        /* \"minerpunk/ERC721A/ERC721A.sol\":8480:8484  curr */\n      dup4\n        /* \"minerpunk/ERC721A/ERC721A.sol\":8468:8485  _ownerships[curr] */\n      dup2\n      mstore\n      0x20\n      add\n      swap1\n      dup2\n      mstore\n      0x20\n      add\n      0x00\n      keccak256\n        /* \"minerpunk/ERC721A/ERC721A.sol\":8434:8485  TokenOwnership memory ownership = _ownerships[curr] */\n      mload(0x40)\n      dup1\n      0x60\n      add\n      0x40\n      mstore\n      swap1\n      dup2\n      0x00\n      dup3\n      add\n      0x00\n      swap1\n      sload\n      swap1\n      0x0100\n      exp\n      swap1\n      div\n      0xffffffffffffffffffffffffffffffffffffffff\n      and\n      0xffffffffffffffffffffffffffffffffffffffff\n      and\n      0xffffffffffffffffffffffffffffffffffffffff\n      and\n      dup2\n      mstore\n      0x20\n      add\n      0x00\n      dup3\n      add\n      0x14\n      swap1\n      sload\n      swap1\n      0x0100\n      exp\n      swap1\n      div\n      0xffffffffffffffff\n      and\n      0xffffffffffffffff\n      and\n      0xffffffffffffffff\n      and\n      dup2\n      mstore\n      0x20\n      add\n      0x00\n      dup3\n      add\n      0x1c\n      swap1\n      sload\n      swap1\n      0x0100\n      exp\n      swap1\n      div\n      0xff\n      and\n      iszero\n      iszero\n      iszero\n      iszero\n      dup2\n      mstore\n      pop\n      pop\n      swap1\n      pop\n        /* \"minerpunk/ERC721A/ERC721A.sol\":8509:8518  ownership */\n      dup1\n        /* \"minerpunk/ERC721A/ERC721A.sol\":8509:8525  ownership.burned */\n      0x40\n      add\n      mload\n        /* \"minerpunk/ERC721A/ERC721A.sol\":8504:9233  if (!ownership.burned) {... */\n      tag_276\n      jumpi\n        /* \"minerpunk/ERC721A/ERC721A.sol\":8580:8581  0 */\n      0x00\n        /* \"minerpunk/ERC721A/ERC721A.sol\":8554:8582  ownership.addr != address(0) */\n      0xffffffffffffffffffffffffffffffffffffffff\n      and\n        /* \"minerpunk/ERC721A/ERC721A.sol\":8554:8563  ownership */\n      dup2\n        /* \"minerpunk/ERC721A/ERC721A.sol\":8554:8568  ownership.addr */\n      0x00\n      add\n      mload\n        /* \"minerpunk/ERC721A/ERC721A.sol\":8554:8582  ownership.addr != address(0) */\n      0xffffffffffffffffffffffffffffffffffffffff\n      and\n      eq\n        /* \"minerpunk/ERC721A/ERC721A.sol\":8550:8651  if (ownership.addr != address(0)) {... */\n      tag_277\n      jumpi\n        /* \"minerpunk/ERC721A/ERC721A.sol\":8618:8627  ownership */\n      dup1\n        /* \"minerpunk/ERC721A/ERC721A.sol\":8611:8627  return ownership */\n      swap3\n      pop\n      pop\n      pop\n      jump(tag_272)\n        /* \"minerpunk/ERC721A/ERC721A.sol\":8550:8651  if (ownership.addr != address(0)) {... */\n    tag_277:\n        /* \"minerpunk/ERC721A/ERC721A.sol\":8953:9214  while (true) {... */\n    tag_278:\n        /* \"minerpunk/ERC721A/ERC721A.sol\":8960:8964  true */\n      0x01\n        /* \"minerpunk/ERC721A/ERC721A.sol\":8953:9214  while (true) {... */\n      iszero\n      tag_279\n      jumpi\n        /* \"minerpunk/ERC721A/ERC721A.sol\":8993:8999  curr-- */\n      dup2\n      dup1\n      0x01\n      swap1\n      sub\n      swap3\n      pop\n      pop\n        /* \"minerpunk/ERC721A/ERC721A.sol\":9038:9049  _ownerships */\n      0x09\n        /* \"minerpunk/ERC721A/ERC721A.sol\":9038:9055  _ownerships[curr] */\n      0x00\n        /* \"minerpunk/ERC721A/ERC721A.sol\":9050:9054  curr */\n      dup4\n        /* \"minerpunk/ERC721A/ERC721A.sol\":9038:9055  _ownerships[curr] */\n      dup2\n      mstore\n      0x20\n      add\n      swap1\n      dup2\n      mstore\n      0x20\n      add\n      0x00\n      keccak256\n        /* \"minerpunk/ERC721A/ERC721A.sol\":9026:9055  ownership = _ownerships[curr] */\n      mload(0x40)\n      dup1\n      0x60\n      add\n      0x40\n      mstore\n      swap1\n      dup2\n      0x00\n      dup3\n      add\n      0x00\n      swap1\n      sload\n      swap1\n      0x0100\n      exp\n      swap1\n      div\n      0xffffffffffffffffffffffffffffffffffffffff\n      and\n      0xffffffffffffffffffffffffffffffffffffffff\n      and\n      0xffffffffffffffffffffffffffffffffffffffff\n      and\n      dup2\n      mstore\n      0x20\n      add\n      0x00\n      dup3\n      add\n      0x14\n      swap1\n      sload\n      swap1\n      0x0100\n      exp\n      swap1\n      div\n      0xffffffffffffffff\n      and\n      0xffffffffffffffff\n      and\n      0xffffffffffffffff\n      and\n      dup2\n      mstore\n      0x20\n      add\n      0x00\n      dup3\n      add\n      0x1c\n      swap1\n      sload\n      swap1\n      0x0100\n      exp\n      swap1\n      div\n      0xff\n      and\n      iszero\n      iszero\n      iszero\n      iszero\n      dup2\n      mstore\n      pop\n      pop\n      swap1\n      pop\n        /* \"minerpunk/ERC721A/ERC721A.sol\":9112:9113  0 */\n      0x00\n        /* \"minerpunk/ERC721A/ERC721A.sol\":9086:9114  ownership.addr != address(0) */\n      0xffffffffffffffffffffffffffffffffffffffff\n      and\n        /* \"minerpunk/ERC721A/ERC721A.sol\":9086:9095  ownership */\n      dup2\n        /* \"minerpunk/ERC721A/ERC721A.sol\":9086:9100  ownership.addr */\n      0x00\n      add\n      mload\n        /* \"minerpunk/ERC721A/ERC721A.sol\":9086:9114  ownership.addr != address(0) */\n      0xffffffffffffffffffffffffffffffffffffffff\n      and\n      eq\n        /* \"minerpunk/ERC721A/ERC721A.sol\":9082:9191  if (ownership.addr != address(0)) {... */\n      tag_280\n      jumpi\n        /* \"minerpunk/ERC721A/ERC721A.sol\":9154:9163  ownership */\n      dup1\n        /* \"minerpunk/ERC721A/ERC721A.sol\":9147:9163  return ownership */\n      swap3\n      pop\n      pop\n      pop\n      jump(tag_272)\n        /* \"minerpunk/ERC721A/ERC721A.sol\":9082:9191  if (ownership.addr != address(0)) {... */\n    tag_280:\n        /* \"minerpunk/ERC721A/ERC721A.sol\":8953:9214  while (true) {... */\n      jump(tag_278)\n    tag_279:\n        /* \"minerpunk/ERC721A/ERC721A.sol\":8504:9233  if (!ownership.burned) {... */\n    tag_276:\n        /* \"minerpunk/ERC721A/ERC721A.sol\":8415:9248  {... */\n      pop\n        /* \"minerpunk/ERC721A/ERC721A.sol\":8389:9248  if (curr < _currentIndex) {... */\n    tag_275:\n        /* \"minerpunk/ERC721A/ERC721A.sol\":8360:9248  if (_startTokenId() <= curr) if (curr < _currentIndex) {... */\n    tag_274:\n        /* \"minerpunk/ERC721A/ERC721A.sol\":9276:9307  OwnerQueryForNonexistentToken() */\n      mload(0x40)\n      0xdf2d9b4200000000000000000000000000000000000000000000000000000000\n      dup2\n      mstore\n      0x04\n      add\n      mload(0x40)\n      dup1\n      swap2\n      sub\n      swap1\n      revert\n        /* \"minerpunk/ERC721A/ERC721A.sol\":8204:9315  function _ownershipOf(uint256 tokenId) internal view returns (TokenOwnership memory) {... */\n    tag_272:\n      swap2\n      swap1\n      pop\n      jump\t// out\n        /* \"@openzeppelin/contracts/utils/Address.sol\":1175:1495  function isContract(address account) internal view returns (bool) {... */\n    tag_179:\n        /* \"@openzeppelin/contracts/utils/Address.sol\":1235:1239  bool */\n      0x00\n        /* \"@openzeppelin/contracts/utils/Address.sol\":1487:1488  0 */\n      dup1\n        /* \"@openzeppelin/contracts/utils/Address.sol\":1465:1472  account */\n      dup3\n        /* \"@openzeppelin/contracts/utils/Address.sol\":1465:1484  account.code.length */\n      0xffffffffffffffffffffffffffffffffffffffff\n      and\n      extcodesize\n        /* \"@openzeppelin/contracts/utils/Address.sol\":1465:1488  account.code.length > 0 */\n      gt\n        /* \"@openzeppelin/contracts/utils/Address.sol\":1458:1488  return account.code.length > 0 */\n      swap1\n      pop\n        /* \"@openzeppelin/contracts/utils/Address.sol\":1175:1495  function isContract(address account) internal view returns (bool) {... */\n      swap2\n      swap1\n      pop\n      jump\t// out\n        /* \"minerpunk/ERC721A/ERC721A.sol\":22802:23469  function _checkContractOnERC721Received(... */\n    tag_182:\n        /* \"minerpunk/ERC721A/ERC721A.sol\":22965:22969  bool */\n      0x00\n        /* \"minerpunk/ERC721A/ERC721A.sol\":23002:23004  to */\n      dup4\n        /* \"minerpunk/ERC721A/ERC721A.sol\":22986:23022  IERC721Receiver(to).onERC721Received */\n      0xffffffffffffffffffffffffffffffffffffffff\n      and\n      0x150b7a02\n        /* \"minerpunk/ERC721A/ERC721A.sol\":23023:23035  _msgSender() */\n      tag_283\n        /* \"minerpunk/ERC721A/ERC721A.sol\":23023:23033  _msgSender */\n      tag_137\n        /* \"minerpunk/ERC721A/ERC721A.sol\":23023:23035  _msgSender() */\n      jump\t// in\n    tag_283:\n        /* \"minerpunk/ERC721A/ERC721A.sol\":23037:23041  from */\n      dup8\n        /* \"minerpunk/ERC721A/ERC721A.sol\":23043:23050  tokenId */\n      dup7\n        /* \"minerpunk/ERC721A/ERC721A.sol\":23052:23057  _data */\n      dup7\n        /* \"minerpunk/ERC721A/ERC721A.sol\":22986:23058  IERC721Receiver(to).onERC721Received(_msgSender(), from, tokenId, _data) */\n      mload(0x40)\n      dup6\n      0xffffffff\n      and\n      0xe0\n      shl\n      dup2\n      mstore\n      0x04\n      add\n      tag_284\n      swap5\n      swap4\n      swap3\n      swap2\n      swap1\n      tag_285\n      jump\t// in\n    tag_284:\n      0x20\n      mload(0x40)\n      dup1\n      dup4\n      sub\n      dup2\n      0x00\n      dup8\n      gas\n      call\n      swap3\n      pop\n      pop\n      pop\n      dup1\n      iszero\n      tag_286\n      jumpi\n      pop\n      mload(0x40)\n      returndatasize\n      not(0x1f)\n      0x1f\n      dup3\n      add\n      and\n      dup3\n      add\n      dup1\n      0x40\n      mstore\n      pop\n      dup2\n      add\n      swap1\n      tag_287\n      swap2\n      swap1\n      tag_288\n      jump\t// in\n    tag_287:\n      0x01\n    tag_286:\n        /* \"minerpunk/ERC721A/ERC721A.sol\":22982:23462  try IERC721Receiver(to).onERC721Received(_msgSender(), from, tokenId, _data) returns (bytes4 retval) {... */\n      tag_289\n      jumpi\n      returndatasize\n      dup1\n      0x00\n      dup2\n      eq\n      tag_294\n      jumpi\n      mload(0x40)\n      swap2\n      pop\n      and(add(returndatasize, 0x3f), not(0x1f))\n      dup3\n      add\n      0x40\n      mstore\n      returndatasize\n      dup3\n      mstore\n      returndatasize\n      0x00\n      0x20\n      dup5\n      add\n      returndatacopy\n      jump(tag_293)\n    tag_294:\n      0x60\n      swap2\n      pop\n    tag_293:\n      pop\n        /* \"minerpunk/ERC721A/ERC721A.sol\":23237:23238  0 */\n      0x00\n        /* \"minerpunk/ERC721A/ERC721A.sol\":23220:23226  reason */\n      dup2\n        /* \"minerpunk/ERC721A/ERC721A.sol\":23220:23233  reason.length */\n      mload\n        /* \"minerpunk/ERC721A/ERC721A.sol\":23220:23238  reason.length == 0 */\n      sub\n        /* \"minerpunk/ERC721A/ERC721A.sol\":23216:23451  if (reason.length == 0) {... */\n      tag_295\n      jumpi\n        /* \"minerpunk/ERC721A/ERC721A.sol\":23266:23306  TransferToNonERC721ReceiverImplementer() */\n      mload(0x40)\n      0xd1a57ed600000000000000000000000000000000000000000000000000000000\n      dup2\n      mstore\n      0x04\n      add\n      mload(0x40)\n      dup1\n      swap2\n      sub\n      swap1\n      revert\n        /* \"minerpunk/ERC721A/ERC721A.sol\":23216:23451  if (reason.length == 0) {... */\n    tag_295:\n        /* \"minerpunk/ERC721A/ERC721A.sol\":23409:23415  reason */\n      dup1\n        /* \"minerpunk/ERC721A/ERC721A.sol\":23403:23416  mload(reason) */\n      mload\n        /* \"minerpunk/ERC721A/ERC721A.sol\":23394:23400  reason */\n      dup2\n        /* \"minerpunk/ERC721A/ERC721A.sol\":23390:23392  32 */\n      0x20\n        /* \"minerpunk/ERC721A/ERC721A.sol\":23386:23401  add(32, reason) */\n      add\n        /* \"minerpunk/ERC721A/ERC721A.sol\":23379:23417  revert(add(32, reason), mload(reason)) */\n      revert\n        /* \"minerpunk/ERC721A/ERC721A.sol\":22982:23462  try IERC721Receiver(to).onERC721Received(_msgSender(), from, tokenId, _data) returns (bytes4 retval) {... */\n    tag_289:\n        /* \"minerpunk/ERC721A/ERC721A.sol\":23115:23160  IERC721Receiver(to).onERC721Received.selector */\n      shl(0xe0, 0x150b7a02)\n        /* \"minerpunk/ERC721A/ERC721A.sol\":23105:23160  retval == IERC721Receiver(to).onERC721Received.selector */\n      not(0xffffffffffffffffffffffffffffffffffffffffffffffffffffffff)\n      and\n        /* \"minerpunk/ERC721A/ERC721A.sol\":23105:23111  retval */\n      dup2\n        /* \"minerpunk/ERC721A/ERC721A.sol\":23105:23160  retval == IERC721Receiver(to).onERC721Received.selector */\n      not(0xffffffffffffffffffffffffffffffffffffffffffffffffffffffff)\n      and\n      eq\n        /* \"minerpunk/ERC721A/ERC721A.sol\":23098:23160  return retval == IERC721Receiver(to).onERC721Received.selector */\n      swap2\n      pop\n      pop\n        /* \"minerpunk/ERC721A/ERC721A.sol\":22802:23469  function _checkContractOnERC721Received(... */\n      swap5\n      swap4\n      pop\n      pop\n      pop\n      pop\n      jump\t// out\n        /* \"@openzeppelin/contracts/utils/math/SafeMath.sol\":3122:3218  function sub(uint256 a, uint256 b) internal pure returns (uint256) {... */\n    tag_186:\n        /* \"@openzeppelin/contracts/utils/math/SafeMath.sol\":3180:3187  uint256 */\n      0x00\n        /* \"@openzeppelin/contracts/utils/math/SafeMath.sol\":3210:3211  b */\n      dup2\n        /* \"@openzeppelin/contracts/utils/math/SafeMath.sol\":3206:3207  a */\n      dup4\n        /* \"@openzeppelin/contracts/utils/math/SafeMath.sol\":3206:3211  a - b */\n      tag_299\n      swap2\n      swap1\n      tag_300\n      jump\t// in\n    tag_299:\n        /* \"@openzeppelin/contracts/utils/math/SafeMath.sol\":3199:3211  return a - b */\n      swap1\n      pop\n        /* \"@openzeppelin/contracts/utils/math/SafeMath.sol\":3122:3218  function sub(uint256 a, uint256 b) internal pure returns (uint256) {... */\n      swap3\n      swap2\n      pop\n      pop\n      jump\t// out\n        /* \"@openzeppelin/contracts/utils/math/SafeMath.sol\":2755:2851  function add(uint256 a, uint256 b) internal pure returns (uint256) {... */\n    tag_192:\n        /* \"@openzeppelin/contracts/utils/math/SafeMath.sol\":2813:2820  uint256 */\n      0x00\n        /* \"@openzeppelin/contracts/utils/math/SafeMath.sol\":2843:2844  b */\n      dup2\n        /* \"@openzeppelin/contracts/utils/math/SafeMath.sol\":2839:2840  a */\n      dup4\n        /* \"@openzeppelin/contracts/utils/math/SafeMath.sol\":2839:2844  a + b */\n      tag_302\n      swap2\n      swap1\n      tag_303\n      jump\t// in\n    tag_302:\n        /* \"@openzeppelin/contracts/utils/math/SafeMath.sol\":2832:2844  return a + b */\n      swap1\n      pop\n        /* \"@openzeppelin/contracts/utils/math/SafeMath.sol\":2755:2851  function add(uint256 a, uint256 b) internal pure returns (uint256) {... */\n      swap3\n      swap2\n      pop\n      pop\n      jump\t// out\n        /* \"minerpunk/ERC721A/ERC721A.sol\":10479:10664  function _baseURI() internal view virtual returns (string memory) {... */\n    tag_200:\n        /* \"minerpunk/ERC721A/ERC721A.sol\":10530:10543  string memory */\n      0x60\n        /* \"minerpunk/ERC721A/ERC721A.sol\":10556:10646  return 'https://gateway.pinata.cloud/ipfs/QmeN77SqTYErXdMQ4hL41b1faGxAKt4QWA5NGVFuZu9xHn/' */\n      mload(0x40)\n      dup1\n      0x80\n      add\n      0x40\n      mstore\n      dup1\n      0x51\n      dup2\n      mstore\n      0x20\n      add\n      data_d8cc7cbf95b52afa2322fac553d3c4e20f5096fb87da64785a945de91007c7b2\n      0x51\n      swap2\n      codecopy\n      swap1\n      pop\n        /* \"minerpunk/ERC721A/ERC721A.sol\":10479:10664  function _baseURI() internal view virtual returns (string memory) {... */\n      swap1\n      jump\t// out\n        /* \"@openzeppelin/contracts/utils/Strings.sol\":392:1095  function toString(uint256 value) internal pure returns (string memory) {... */\n    tag_204:\n        /* \"@openzeppelin/contracts/utils/Strings.sol\":448:461  string memory */\n      0x60\n        /* \"@openzeppelin/contracts/utils/Strings.sol\":674:675  0 */\n      0x00\n        /* \"@openzeppelin/contracts/utils/Strings.sol\":665:670  value */\n      dup3\n        /* \"@openzeppelin/contracts/utils/Strings.sol\":665:675  value == 0 */\n      sub\n        /* \"@openzeppelin/contracts/utils/Strings.sol\":661:712  if (value == 0) {... */\n      tag_306\n      jumpi\n        /* \"@openzeppelin/contracts/utils/Strings.sol\":691:701  return \"0\" */\n      mload(0x40)\n      dup1\n      0x40\n      add\n      0x40\n      mstore\n      dup1\n      0x01\n      dup2\n      mstore\n      0x20\n      add\n      0x3000000000000000000000000000000000000000000000000000000000000000\n      dup2\n      mstore\n      pop\n      swap1\n      pop\n      jump(tag_305)\n        /* \"@openzeppelin/contracts/utils/Strings.sol\":661:712  if (value == 0) {... */\n    tag_306:\n        /* \"@openzeppelin/contracts/utils/Strings.sol\":721:733  uint256 temp */\n      0x00\n        /* \"@openzeppelin/contracts/utils/Strings.sol\":736:741  value */\n      dup3\n        /* \"@openzeppelin/contracts/utils/Strings.sol\":721:741  uint256 temp = value */\n      swap1\n      pop\n        /* \"@openzeppelin/contracts/utils/Strings.sol\":751:765  uint256 digits */\n      0x00\n        /* \"@openzeppelin/contracts/utils/Strings.sol\":775:850  while (temp != 0) {... */\n    tag_307:\n        /* \"@openzeppelin/contracts/utils/Strings.sol\":790:791  0 */\n      0x00\n        /* \"@openzeppelin/contracts/utils/Strings.sol\":782:786  temp */\n      dup3\n        /* \"@openzeppelin/contracts/utils/Strings.sol\":782:791  temp != 0 */\n      eq\n        /* \"@openzeppelin/contracts/utils/Strings.sol\":775:850  while (temp != 0) {... */\n      tag_308\n      jumpi\n        /* \"@openzeppelin/contracts/utils/Strings.sol\":807:815  digits++ */\n      dup1\n      dup1\n      tag_309\n      swap1\n      tag_310\n      jump\t// in\n    tag_309:\n      swap2\n      pop\n      pop\n        /* \"@openzeppelin/contracts/utils/Strings.sol\":837:839  10 */\n      0x0a\n        /* \"@openzeppelin/contracts/utils/Strings.sol\":829:839  temp /= 10 */\n      dup3\n      tag_311\n      swap2\n      swap1\n      tag_269\n      jump\t// in\n    tag_311:\n      swap2\n      pop\n        /* \"@openzeppelin/contracts/utils/Strings.sol\":775:850  while (temp != 0) {... */\n      jump(tag_307)\n    tag_308:\n        /* \"@openzeppelin/contracts/utils/Strings.sol\":859:878  bytes memory buffer */\n      0x00\n        /* \"@openzeppelin/contracts/utils/Strings.sol\":891:897  digits */\n      dup2\n        /* \"@openzeppelin/contracts/utils/Strings.sol\":881:898  new bytes(digits) */\n      0xffffffffffffffff\n      dup2\n      gt\n      iszero\n      tag_312\n      jumpi\n      tag_313\n      tag_314\n      jump\t// in\n    tag_313:\n    tag_312:\n      mload(0x40)\n      swap1\n      dup1\n      dup3\n      mstore\n      dup1\n      0x1f\n      add\n      not(0x1f)\n      and\n      0x20\n      add\n      dup3\n      add\n      0x40\n      mstore\n      dup1\n      iszero\n      tag_315\n      jumpi\n      dup2\n      0x20\n      add\n      0x01\n      dup3\n      mul\n      dup1\n      calldatasize\n      dup4\n      calldatacopy\n      dup1\n      dup3\n      add\n      swap2\n      pop\n      pop\n      swap1\n      pop\n    tag_315:\n      pop\n        /* \"@openzeppelin/contracts/utils/Strings.sol\":859:898  bytes memory buffer = new bytes(digits) */\n      swap1\n      pop\n        /* \"@openzeppelin/contracts/utils/Strings.sol\":908:1058  while (value != 0) {... */\n    tag_316:\n        /* \"@openzeppelin/contracts/utils/Strings.sol\":924:925  0 */\n      0x00\n        /* \"@openzeppelin/contracts/utils/Strings.sol\":915:920  value */\n      dup6\n        /* \"@openzeppelin/contracts/utils/Strings.sol\":915:925  value != 0 */\n      eq\n        /* \"@openzeppelin/contracts/utils/Strings.sol\":908:1058  while (value != 0) {... */\n      tag_317\n      jumpi\n        /* \"@openzeppelin/contracts/utils/Strings.sol\":951:952  1 */\n      0x01\n        /* \"@openzeppelin/contracts/utils/Strings.sol\":941:952  digits -= 1 */\n      dup3\n      tag_318\n      swap2\n      swap1\n      tag_300\n      jump\t// in\n    tag_318:\n      swap2\n      pop\n        /* \"@openzeppelin/contracts/utils/Strings.sol\":1017:1019  10 */\n      0x0a\n        /* \"@openzeppelin/contracts/utils/Strings.sol\":1009:1014  value */\n      dup6\n        /* \"@openzeppelin/contracts/utils/Strings.sol\":1009:1019  value % 10 */\n      tag_319\n      swap2\n      swap1\n      tag_219\n      jump\t// in\n    tag_319:\n        /* \"@openzeppelin/contracts/utils/Strings.sol\":996:998  48 */\n      0x30\n        /* \"@openzeppelin/contracts/utils/Strings.sol\":996:1020  48 + uint256(value % 10) */\n      tag_320\n      swap2\n      swap1\n      tag_303\n      jump\t// in\n    tag_320:\n        /* \"@openzeppelin/contracts/utils/Strings.sol\":983:1022  bytes1(uint8(48 + uint256(value % 10))) */\n      0xf8\n      shl\n        /* \"@openzeppelin/contracts/utils/Strings.sol\":966:972  buffer */\n      dup2\n        /* \"@openzeppelin/contracts/utils/Strings.sol\":973:979  digits */\n      dup4\n        /* \"@openzeppelin/contracts/utils/Strings.sol\":966:980  buffer[digits] */\n      dup2\n      mload\n      dup2\n      lt\n      tag_321\n      jumpi\n      tag_322\n      tag_323\n      jump\t// in\n    tag_322:\n    tag_321:\n      0x20\n      add\n      add\n        /* \"@openzeppelin/contracts/utils/Strings.sol\":966:1022  buffer[digits] = bytes1(uint8(48 + uint256(value % 10))) */\n      swap1\n      not(0xffffffffffffffffffffffffffffffffffffffffffffffffffffffffffffff)\n      and\n      swap1\n      dup2\n      0x00\n      byte\n      swap1\n      mstore8\n      pop\n        /* \"@openzeppelin/contracts/utils/Strings.sol\":1045:1047  10 */\n      0x0a\n        /* \"@openzeppelin/contracts/utils/Strings.sol\":1036:1047  value /= 10 */\n      dup6\n      tag_324\n      swap2\n      swap1\n      tag_269\n      jump\t// in\n    tag_324:\n      swap5\n      pop\n        /* \"@openzeppelin/contracts/utils/Strings.sol\":908:1058  while (value != 0) {... */\n      jump(tag_316)\n    tag_317:\n        /* \"@openzeppelin/contracts/utils/Strings.sol\":1081:1087  buffer */\n      dup1\n        /* \"@openzeppelin/contracts/utils/Strings.sol\":1067:1088  return string(buffer) */\n      swap4\n      pop\n      pop\n      pop\n      pop\n        /* \"@openzeppelin/contracts/utils/Strings.sol\":392:1095  function toString(uint256 value) internal pure returns (string memory) {... */\n    tag_305:\n      swap2\n      swap1\n      pop\n      jump\t// out\n        /* \"minerpunk/ERC721A/ERC721A.sol\":24117:24276  function _beforeTokenTransfers(... */\n    tag_258:\n      pop\n      pop\n      pop\n      pop\n      jump\t// out\n        /* \"minerpunk/ERC721A/ERC721A.sol\":24935:25093  function _afterTokenTransfers(... */\n    tag_263:\n      pop\n      pop\n      pop\n      pop\n      jump\t// out\n    tag_271:\n      mload(0x40)\n      dup1\n      0x60\n      add\n      0x40\n      mstore\n      dup1\n      and(0xffffffffffffffffffffffffffffffffffffffff, 0x00)\n      dup2\n      mstore\n      0x20\n      add\n      and(0xffffffffffffffff, 0x00)\n      dup2\n      mstore\n      0x20\n      add\n      iszero(iszero(0x00))\n      dup2\n      mstore\n      pop\n      swap1\n      jump\t// out\n        /* \"#utility.yul\":7:82   */\n    tag_327:\n        /* \"#utility.yul\":40:46   */\n      0x00\n        /* \"#utility.yul\":73:75   */\n      0x40\n        /* \"#utility.yul\":67:76   */\n      mload\n        /* \"#utility.yul\":57:76   */\n      swap1\n      pop\n        /* \"#utility.yul\":7:82   */\n      swap1\n      jump\t// out\n        /* \"#utility.yul\":88:205   */\n    tag_328:\n        /* \"#utility.yul\":197:198   */\n      0x00\n        /* \"#utility.yul\":194:195   */\n      dup1\n        /* \"#utility.yul\":187:199   */\n      revert\n        /* \"#utility.yul\":211:328   */\n    tag_329:\n        /* \"#utility.yul\":320:321   */\n      0x00\n        /* \"#utility.yul\":317:318   */\n      dup1\n        /* \"#utility.yul\":310:322   */\n      revert\n        /* \"#utility.yul\":334:483   */\n    tag_330:\n        /* \"#utility.yul\":370:377   */\n      0x00\n        /* \"#utility.yul\":410:476   */\n      0xffffffff00000000000000000000000000000000000000000000000000000000\n        /* \"#utility.yul\":403:408   */\n      dup3\n        /* \"#utility.yul\":399:477   */\n      and\n        /* \"#utility.yul\":388:477   */\n      swap1\n      pop\n        /* \"#utility.yul\":334:483   */\n      swap2\n      swap1\n      pop\n      jump\t// out\n        /* \"#utility.yul\":489:609   */\n    tag_331:\n        /* \"#utility.yul\":561:584   */\n      tag_378\n        /* \"#utility.yul\":578:583   */\n      dup2\n        /* \"#utility.yul\":561:584   */\n      tag_330\n      jump\t// in\n    tag_378:\n        /* \"#utility.yul\":554:559   */\n      dup2\n        /* \"#utility.yul\":551:585   */\n      eq\n        /* \"#utility.yul\":541:603   */\n      tag_379\n      jumpi\n        /* \"#utility.yul\":599:600   */\n      0x00\n        /* \"#utility.yul\":596:597   */\n      dup1\n        /* \"#utility.yul\":589:601   */\n      revert\n        /* \"#utility.yul\":541:603   */\n    tag_379:\n        /* \"#utility.yul\":489:609   */\n      pop\n      jump\t// out\n        /* \"#utility.yul\":615:752   */\n    tag_332:\n        /* \"#utility.yul\":660:665   */\n      0x00\n        /* \"#utility.yul\":698:704   */\n      dup2\n        /* \"#utility.yul\":685:705   */\n      calldataload\n        /* \"#utility.yul\":676:705   */\n      swap1\n      pop\n        /* \"#utility.yul\":714:746   */\n      tag_381\n        /* \"#utility.yul\":740:745   */\n      dup2\n        /* \"#utility.yul\":714:746   */\n      tag_331\n      jump\t// in\n    tag_381:\n        /* \"#utility.yul\":615:752   */\n      swap3\n      swap2\n      pop\n      pop\n      jump\t// out\n        /* \"#utility.yul\":758:1085   */\n    tag_30:\n        /* \"#utility.yul\":816:822   */\n      0x00\n        /* \"#utility.yul\":865:867   */\n      0x20\n        /* \"#utility.yul\":853:862   */\n      dup3\n        /* \"#utility.yul\":844:851   */\n      dup5\n        /* \"#utility.yul\":840:863   */\n      sub\n        /* \"#utility.yul\":836:868   */\n      slt\n        /* \"#utility.yul\":833:952   */\n      iszero\n      tag_383\n      jumpi\n        /* \"#utility.yul\":871:950   */\n      tag_384\n      tag_328\n      jump\t// in\n    tag_384:\n        /* \"#utility.yul\":833:952   */\n    tag_383:\n        /* \"#utility.yul\":991:992   */\n      0x00\n        /* \"#utility.yul\":1016:1068   */\n      tag_385\n        /* \"#utility.yul\":1060:1067   */\n      dup5\n        /* \"#utility.yul\":1051:1057   */\n      dup3\n        /* \"#utility.yul\":1040:1049   */\n      dup6\n        /* \"#utility.yul\":1036:1058   */\n      add\n        /* \"#utility.yul\":1016:1068   */\n      tag_332\n      jump\t// in\n    tag_385:\n        /* \"#utility.yul\":1006:1068   */\n      swap2\n      pop\n        /* \"#utility.yul\":962:1078   */\n      pop\n        /* \"#utility.yul\":758:1085   */\n      swap3\n      swap2\n      pop\n      pop\n      jump\t// out\n        /* \"#utility.yul\":1091:1181   */\n    tag_333:\n        /* \"#utility.yul\":1125:1132   */\n      0x00\n        /* \"#utility.yul\":1168:1173   */\n      dup2\n        /* \"#utility.yul\":1161:1174   */\n      iszero\n        /* \"#utility.yul\":1154:1175   */\n      iszero\n        /* \"#utility.yul\":1143:1175   */\n      swap1\n      pop\n        /* \"#utility.yul\":1091:1181   */\n      swap2\n      swap1\n      pop\n      jump\t// out\n        /* \"#utility.yul\":1187:1296   */\n    tag_334:\n        /* \"#utility.yul\":1268:1289   */\n      tag_388\n        /* \"#utility.yul\":1283:1288   */\n      dup2\n        /* \"#utility.yul\":1268:1289   */\n      tag_333\n      jump\t// in\n    tag_388:\n        /* \"#utility.yul\":1263:1266   */\n      dup3\n        /* \"#utility.yul\":1256:1290   */\n      mstore\n        /* \"#utility.yul\":1187:1296   */\n      pop\n      pop\n      jump\t// out\n        /* \"#utility.yul\":1302:1512   */\n    tag_33:\n        /* \"#utility.yul\":1389:1393   */\n      0x00\n        /* \"#utility.yul\":1427:1429   */\n      0x20\n        /* \"#utility.yul\":1416:1425   */\n      dup3\n        /* \"#utility.yul\":1412:1430   */\n      add\n        /* \"#utility.yul\":1404:1430   */\n      swap1\n      pop\n        /* \"#utility.yul\":1440:1505   */\n      tag_390\n        /* \"#utility.yul\":1502:1503   */\n      0x00\n        /* \"#utility.yul\":1491:1500   */\n      dup4\n        /* \"#utility.yul\":1487:1504   */\n      add\n        /* \"#utility.yul\":1478:1484   */\n      dup5\n        /* \"#utility.yul\":1440:1505   */\n      tag_334\n      jump\t// in\n    tag_390:\n        /* \"#utility.yul\":1302:1512   */\n      swap3\n      swap2\n      pop\n      pop\n      jump\t// out\n        /* \"#utility.yul\":1518:1617   */\n    tag_335:\n        /* \"#utility.yul\":1570:1576   */\n      0x00\n        /* \"#utility.yul\":1604:1609   */\n      dup2\n        /* \"#utility.yul\":1598:1610   */\n      mload\n        /* \"#utility.yul\":1588:1610   */\n      swap1\n      pop\n        /* \"#utility.yul\":1518:1617   */\n      swap2\n      swap1\n      pop\n      jump\t// out\n        /* \"#utility.yul\":1623:1792   */\n    tag_336:\n        /* \"#utility.yul\":1707:1718   */\n      0x00\n        /* \"#utility.yul\":1741:1747   */\n      dup3\n        /* \"#utility.yul\":1736:1739   */\n      dup3\n        /* \"#utility.yul\":1729:1748   */\n      mstore\n        /* \"#utility.yul\":1781:1785   */\n      0x20\n        /* \"#utility.yul\":1776:1779   */\n      dup3\n        /* \"#utility.yul\":1772:1786   */\n      add\n        /* \"#utility.yul\":1757:1786   */\n      swap1\n      pop\n        /* \"#utility.yul\":1623:1792   */\n      swap3\n      swap2\n      pop\n      pop\n      jump\t// out\n        /* \"#utility.yul\":1798:2044   */\n    tag_337:\n        /* \"#utility.yul\":1879:1880   */\n      0x00\n        /* \"#utility.yul\":1889:2002   */\n    tag_394:\n        /* \"#utility.yul\":1903:1909   */\n      dup4\n        /* \"#utility.yul\":1900:1901   */\n      dup2\n        /* \"#utility.yul\":1897:1910   */\n      lt\n        /* \"#utility.yul\":1889:2002   */\n      iszero\n      tag_396\n      jumpi\n        /* \"#utility.yul\":1988:1989   */\n      dup1\n        /* \"#utility.yul\":1983:1986   */\n      dup3\n        /* \"#utility.yul\":1979:1990   */\n      add\n        /* \"#utility.yul\":1973:1991   */\n      mload\n        /* \"#utility.yul\":1969:1970   */\n      dup2\n        /* \"#utility.yul\":1964:1967   */\n      dup5\n        /* \"#utility.yul\":1960:1971   */\n      add\n        /* \"#utility.yul\":1953:1992   */\n      mstore\n        /* \"#utility.yul\":1925:1927   */\n      0x20\n        /* \"#utility.yul\":1922:1923   */\n      dup2\n        /* \"#utility.yul\":1918:1928   */\n      add\n        /* \"#utility.yul\":1913:1928   */\n      swap1\n      pop\n        /* \"#utility.yul\":1889:2002   */\n      jump(tag_394)\n    tag_396:\n        /* \"#utility.yul\":2036:2037   */\n      0x00\n        /* \"#utility.yul\":2027:2033   */\n      dup5\n        /* \"#utility.yul\":2022:2025   */\n      dup5\n        /* \"#utility.yul\":2018:2034   */\n      add\n        /* \"#utility.yul\":2011:2038   */\n      mstore\n        /* \"#utility.yul\":1860:2044   */\n      pop\n        /* \"#utility.yul\":1798:2044   */\n      pop\n      pop\n      pop\n      jump\t// out\n        /* \"#utility.yul\":2050:2152   */\n    tag_338:\n        /* \"#utility.yul\":2091:2097   */\n      0x00\n        /* \"#utility.yul\":2142:2144   */\n      0x1f\n        /* \"#utility.yul\":2138:2145   */\n      not\n        /* \"#utility.yul\":2133:2135   */\n      0x1f\n        /* \"#utility.yul\":2126:2131   */\n      dup4\n        /* \"#utility.yul\":2122:2136   */\n      add\n        /* \"#utility.yul\":2118:2146   */\n      and\n        /* \"#utility.yul\":2108:2146   */\n      swap1\n      pop\n        /* \"#utility.yul\":2050:2152   */\n      swap2\n      swap1\n      pop\n      jump\t// out\n        /* \"#utility.yul\":2158:2535   */\n    tag_339:\n        /* \"#utility.yul\":2246:2249   */\n      0x00\n        /* \"#utility.yul\":2274:2313   */\n      tag_399\n        /* \"#utility.yul\":2307:2312   */\n      dup3\n        /* \"#utility.yul\":2274:2313   */\n      tag_335\n      jump\t// in\n    tag_399:\n        /* \"#utility.yul\":2329:2400   */\n      tag_400\n        /* \"#utility.yul\":2393:2399   */\n      dup2\n        /* \"#utility.yul\":2388:2391   */\n      dup6\n        /* \"#utility.yul\":2329:2400   */\n      tag_336\n      jump\t// in\n    tag_400:\n        /* \"#utility.yul\":2322:2400   */\n      swap4\n      pop\n        /* \"#utility.yul\":2409:2474   */\n      tag_401\n        /* \"#utility.yul\":2467:2473   */\n      dup2\n        /* \"#utility.yul\":2462:2465   */\n      dup6\n        /* \"#utility.yul\":2455:2459   */\n      0x20\n        /* \"#utility.yul\":2448:2453   */\n      dup7\n        /* \"#utility.yul\":2444:2460   */\n      add\n        /* \"#utility.yul\":2409:2474   */\n      tag_337\n      jump\t// in\n    tag_401:\n        /* \"#utility.yul\":2499:2528   */\n      tag_402\n        /* \"#utility.yul\":2521:2527   */\n      dup2\n        /* \"#utility.yul\":2499:2528   */\n      tag_338\n      jump\t// in\n    tag_402:\n        /* \"#utility.yul\":2494:2497   */\n      dup5\n        /* \"#utility.yul\":2490:2529   */\n      add\n        /* \"#utility.yul\":2483:2529   */\n      swap2\n      pop\n        /* \"#utility.yul\":2250:2535   */\n      pop\n        /* \"#utility.yul\":2158:2535   */\n      swap3\n      swap2\n      pop\n      pop\n      jump\t// out\n        /* \"#utility.yul\":2541:2854   */\n    tag_37:\n        /* \"#utility.yul\":2654:2658   */\n      0x00\n        /* \"#utility.yul\":2692:2694   */\n      0x20\n        /* \"#utility.yul\":2681:2690   */\n      dup3\n        /* \"#utility.yul\":2677:2695   */\n      add\n        /* \"#utility.yul\":2669:2695   */\n      swap1\n      pop\n        /* \"#utility.yul\":2741:2750   */\n      dup2\n        /* \"#utility.yul\":2735:2739   */\n      dup2\n        /* \"#utility.yul\":2731:2751   */\n      sub\n        /* \"#utility.yul\":2727:2728   */\n      0x00\n        /* \"#utility.yul\":2716:2725   */\n      dup4\n        /* \"#utility.yul\":2712:2729   */\n      add\n        /* \"#utility.yul\":2705:2752   */\n      mstore\n        /* \"#utility.yul\":2769:2847   */\n      tag_404\n        /* \"#utility.yul\":2842:2846   */\n      dup2\n        /* \"#utility.yul\":2833:2839   */\n      dup5\n        /* \"#utility.yul\":2769:2847   */\n      tag_339\n      jump\t// in\n    tag_404:\n        /* \"#utility.yul\":2761:2847   */\n      swap1\n      pop\n        /* \"#utility.yul\":2541:2854   */\n      swap3\n      swap2\n      pop\n      pop\n      jump\t// out\n        /* \"#utility.yul\":2860:2937   */\n    tag_340:\n        /* \"#utility.yul\":2897:2904   */\n      0x00\n        /* \"#utility.yul\":2926:2931   */\n      dup2\n        /* \"#utility.yul\":2915:2931   */\n      swap1\n      pop\n        /* \"#utility.yul\":2860:2937   */\n      swap2\n      swap1\n      pop\n      jump\t// out\n        /* \"#utility.yul\":2943:3065   */\n    tag_341:\n        /* \"#utility.yul\":3016:3040   */\n      tag_407\n        /* \"#utility.yul\":3034:3039   */\n      dup2\n        /* \"#utility.yul\":3016:3040   */\n      tag_340\n      jump\t// in\n    tag_407:\n        /* \"#utility.yul\":3009:3014   */\n      dup2\n        /* \"#utility.yul\":3006:3041   */\n      eq\n        /* \"#utility.yul\":2996:3059   */\n      tag_408\n      jumpi\n        /* \"#utility.yul\":3055:3056   */\n      0x00\n        /* \"#utility.yul\":3052:3053   */\n      dup1\n        /* \"#utility.yul\":3045:3057   */\n      revert\n        /* \"#utility.yul\":2996:3059   */\n    tag_408:\n        /* \"#utility.yul\":2943:3065   */\n      pop\n      jump\t// out\n        /* \"#utility.yul\":3071:3210   */\n    tag_342:\n        /* \"#utility.yul\":3117:3122   */\n      0x00\n        /* \"#utility.yul\":3155:3161   */\n      dup2\n        /* \"#utility.yul\":3142:3162   */\n      calldataload\n        /* \"#utility.yul\":3133:3162   */\n      swap1\n      pop\n        /* \"#utility.yul\":3171:3204   */\n      tag_410\n        /* \"#utility.yul\":3198:3203   */\n      dup2\n        /* \"#utility.yul\":3171:3204   */\n      tag_341\n      jump\t// in\n    tag_410:\n        /* \"#utility.yul\":3071:3210   */\n      swap3\n      swap2\n      pop\n      pop\n      jump\t// out\n        /* \"#utility.yul\":3216:3545   */\n    tag_40:\n        /* \"#utility.yul\":3275:3281   */\n      0x00\n        /* \"#utility.yul\":3324:3326   */\n      0x20\n        /* \"#utility.yul\":3312:3321   */\n      dup3\n        /* \"#utility.yul\":3303:3310   */\n      dup5\n        /* \"#utility.yul\":3299:3322   */\n      sub\n        /* \"#utility.yul\":3295:3327   */\n      slt\n        /* \"#utility.yul\":3292:3411   */\n      iszero\n      tag_412\n      jumpi\n        /* \"#utility.yul\":3330:3409   */\n      tag_413\n      tag_328\n      jump\t// in\n    tag_413:\n        /* \"#utility.yul\":3292:3411   */\n    tag_412:\n        /* \"#utility.yul\":3450:3451   */\n      0x00\n        /* \"#utility.yul\":3475:3528   */\n      tag_414\n        /* \"#utility.yul\":3520:3527   */\n      dup5\n        /* \"#utility.yul\":3511:3517   */\n      dup3\n        /* \"#utility.yul\":3500:3509   */\n      dup6\n        /* \"#utility.yul\":3496:3518   */\n      add\n        /* \"#utility.yul\":3475:3528   */\n      tag_342\n      jump\t// in\n    tag_414:\n        /* \"#utility.yul\":3465:3528   */\n      swap2\n      pop\n        /* \"#utility.yul\":3421:3538   */\n      pop\n        /* \"#utility.yul\":3216:3545   */\n      swap3\n      swap2\n      pop\n      pop\n      jump\t// out\n        /* \"#utility.yul\":3551:3677   */\n    tag_343:\n        /* \"#utility.yul\":3588:3595   */\n      0x00\n        /* \"#utility.yul\":3628:3670   */\n      0xffffffffffffffffffffffffffffffffffffffff\n        /* \"#utility.yul\":3621:3626   */\n      dup3\n        /* \"#utility.yul\":3617:3671   */\n      and\n        /* \"#utility.yul\":3606:3671   */\n      swap1\n      pop\n        /* \"#utility.yul\":3551:3677   */\n      swap2\n      swap1\n      pop\n      jump\t// out\n        /* \"#utility.yul\":3683:3779   */\n    tag_344:\n        /* \"#utility.yul\":3720:3727   */\n      0x00\n        /* \"#utility.yul\":3749:3773   */\n      tag_417\n        /* \"#utility.yul\":3767:3772   */\n      dup3\n        /* \"#utility.yul\":3749:3773   */\n      tag_343\n      jump\t// in\n    tag_417:\n        /* \"#utility.yul\":3738:3773   */\n      swap1\n      pop\n        /* \"#utility.yul\":3683:3779   */\n      swap2\n      swap1\n      pop\n      jump\t// out\n        /* \"#utility.yul\":3785:3903   */\n    tag_345:\n        /* \"#utility.yul\":3872:3896   */\n      tag_419\n        /* \"#utility.yul\":3890:3895   */\n      dup2\n        /* \"#utility.yul\":3872:3896   */\n      tag_344\n      jump\t// in\n    tag_419:\n        /* \"#utility.yul\":3867:3870   */\n      dup3\n        /* \"#utility.yul\":3860:3897   */\n      mstore\n        /* \"#utility.yul\":3785:3903   */\n      pop\n      pop\n      jump\t// out\n        /* \"#utility.yul\":3909:4131   */\n    tag_43:\n        /* \"#utility.yul\":4002:4006   */\n      0x00\n        /* \"#utility.yul\":4040:4042   */\n      0x20\n        /* \"#utility.yul\":4029:4038   */\n      dup3\n        /* \"#utility.yul\":4025:4043   */\n      add\n        /* \"#utility.yul\":4017:4043   */\n      swap1\n      pop\n        /* \"#utility.yul\":4053:4124   */\n      tag_421\n        /* \"#utility.yul\":4121:4122   */\n      0x00\n        /* \"#utility.yul\":4110:4119   */\n      dup4\n        /* \"#utility.yul\":4106:4123   */\n      add\n        /* \"#utility.yul\":4097:4103   */\n      dup5\n        /* \"#utility.yul\":4053:4124   */\n      tag_345\n      jump\t// in\n    tag_421:\n        /* \"#utility.yul\":3909:4131   */\n      swap3\n      swap2\n      pop\n      pop\n      jump\t// out\n        /* \"#utility.yul\":4137:4259   */\n    tag_346:\n        /* \"#utility.yul\":4210:4234   */\n      tag_423\n        /* \"#utility.yul\":4228:4233   */\n      dup2\n        /* \"#utility.yul\":4210:4234   */\n      tag_344\n      jump\t// in\n    tag_423:\n        /* \"#utility.yul\":4203:4208   */\n      dup2\n        /* \"#utility.yul\":4200:4235   */\n      eq\n        /* \"#utility.yul\":4190:4253   */\n      tag_424\n      jumpi\n        /* \"#utility.yul\":4249:4250   */\n      0x00\n        /* \"#utility.yul\":4246:4247   */\n      dup1\n        /* \"#utility.yul\":4239:4251   */\n      revert\n        /* \"#utility.yul\":4190:4253   */\n    tag_424:\n        /* \"#utility.yul\":4137:4259   */\n      pop\n      jump\t// out\n        /* \"#utility.yul\":4265:4404   */\n    tag_347:\n        /* \"#utility.yul\":4311:4316   */\n      0x00\n        /* \"#utility.yul\":4349:4355   */\n      dup2\n        /* \"#utility.yul\":4336:4356   */\n      calldataload\n        /* \"#utility.yul\":4327:4356   */\n      swap1\n      pop\n        /* \"#utility.yul\":4365:4398   */\n      tag_426\n        /* \"#utility.yul\":4392:4397   */\n      dup2\n        /* \"#utility.yul\":4365:4398   */\n      tag_346\n      jump\t// in\n    tag_426:\n        /* \"#utility.yul\":4265:4404   */\n      swap3\n      swap2\n      pop\n      pop\n      jump\t// out\n        /* \"#utility.yul\":4410:4884   */\n    tag_46:\n        /* \"#utility.yul\":4478:4484   */\n      0x00\n        /* \"#utility.yul\":4486:4492   */\n      dup1\n        /* \"#utility.yul\":4535:4537   */\n      0x40\n        /* \"#utility.yul\":4523:4532   */\n      dup4\n        /* \"#utility.yul\":4514:4521   */\n      dup6\n        /* \"#utility.yul\":4510:4533   */\n      sub\n        /* \"#utility.yul\":4506:4538   */\n      slt\n        /* \"#utility.yul\":4503:4622   */\n      iszero\n      tag_428\n      jumpi\n        /* \"#utility.yul\":4541:4620   */\n      tag_429\n      tag_328\n      jump\t// in\n    tag_429:\n        /* \"#utility.yul\":4503:4622   */\n    tag_428:\n        /* \"#utility.yul\":4661:4662   */\n      0x00\n        /* \"#utility.yul\":4686:4739   */\n      tag_430\n        /* \"#utility.yul\":4731:4738   */\n      dup6\n        /* \"#utility.yul\":4722:4728   */\n      dup3\n        /* \"#utility.yul\":4711:4720   */\n      dup7\n        /* \"#utility.yul\":4707:4729   */\n      add\n        /* \"#utility.yul\":4686:4739   */\n      tag_347\n      jump\t// in\n    tag_430:\n        /* \"#utility.yul\":4676:4739   */\n      swap3\n      pop\n        /* \"#utility.yul\":4632:4749   */\n      pop\n        /* \"#utility.yul\":4788:4790   */\n      0x20\n        /* \"#utility.yul\":4814:4867   */\n      tag_431\n        /* \"#utility.yul\":4859:4866   */\n      dup6\n        /* \"#utility.yul\":4850:4856   */\n      dup3\n        /* \"#utility.yul\":4839:4848   */\n      dup7\n        /* \"#utility.yul\":4835:4857   */\n      add\n        /* \"#utility.yul\":4814:4867   */\n      tag_342\n      jump\t// in\n    tag_431:\n        /* \"#utility.yul\":4804:4867   */\n      swap2\n      pop\n        /* \"#utility.yul\":4759:4877   */\n      pop\n        /* \"#utility.yul\":4410:4884   */\n      swap3\n      pop\n      swap3\n      swap1\n      pop\n      jump\t// out\n        /* \"#utility.yul\":4890:5008   */\n    tag_348:\n        /* \"#utility.yul\":4977:5001   */\n      tag_433\n        /* \"#utility.yul\":4995:5000   */\n      dup2\n        /* \"#utility.yul\":4977:5001   */\n      tag_340\n      jump\t// in\n    tag_433:\n        /* \"#utility.yul\":4972:4975   */\n      dup3\n        /* \"#utility.yul\":4965:5002   */\n      mstore\n        /* \"#utility.yul\":4890:5008   */\n      pop\n      pop\n      jump\t// out\n        /* \"#utility.yul\":5014:5236   */\n    tag_51:\n        /* \"#utility.yul\":5107:5111   */\n      0x00\n        /* \"#utility.yul\":5145:5147   */\n      0x20\n        /* \"#utility.yul\":5134:5143   */\n      dup3\n        /* \"#utility.yul\":5130:5148   */\n      add\n        /* \"#utility.yul\":5122:5148   */\n      swap1\n      pop\n        /* \"#utility.yul\":5158:5229   */\n      tag_435\n        /* \"#utility.yul\":5226:5227   */\n      0x00\n        /* \"#utility.yul\":5215:5224   */\n      dup4\n        /* \"#utility.yul\":5211:5228   */\n      add\n        /* \"#utility.yul\":5202:5208   */\n      dup5\n        /* \"#utility.yul\":5158:5229   */\n      tag_348\n      jump\t// in\n    tag_435:\n        /* \"#utility.yul\":5014:5236   */\n      swap3\n      swap2\n      pop\n      pop\n      jump\t// out\n        /* \"#utility.yul\":5242:5861   */\n    tag_54:\n        /* \"#utility.yul\":5319:5325   */\n      0x00\n        /* \"#utility.yul\":5327:5333   */\n      dup1\n        /* \"#utility.yul\":5335:5341   */\n      0x00\n        /* \"#utility.yul\":5384:5386   */\n      0x60\n        /* \"#utility.yul\":5372:5381   */\n      dup5\n        /* \"#utility.yul\":5363:5370   */\n      dup7\n        /* \"#utility.yul\":5359:5382   */\n      sub\n        /* \"#utility.yul\":5355:5387   */\n      slt\n        /* \"#utility.yul\":5352:5471   */\n      iszero\n      tag_437\n      jumpi\n        /* \"#utility.yul\":5390:5469   */\n      tag_438\n      tag_328\n      jump\t// in\n    tag_438:\n        /* \"#utility.yul\":5352:5471   */\n    tag_437:\n        /* \"#utility.yul\":5510:5511   */\n      0x00\n        /* \"#utility.yul\":5535:5588   */\n      tag_439\n        /* \"#utility.yul\":5580:5587   */\n      dup7\n        /* \"#utility.yul\":5571:5577   */\n      dup3\n        /* \"#utility.yul\":5560:5569   */\n      dup8\n        /* \"#utility.yul\":5556:5578   */\n      add\n        /* \"#utility.yul\":5535:5588   */\n      tag_347\n      jump\t// in\n    tag_439:\n        /* \"#utility.yul\":5525:5588   */\n      swap4\n      pop\n        /* \"#utility.yul\":5481:5598   */\n      pop\n        /* \"#utility.yul\":5637:5639   */\n      0x20\n        /* \"#utility.yul\":5663:5716   */\n      tag_440\n        /* \"#utility.yul\":5708:5715   */\n      dup7\n        /* \"#utility.yul\":5699:5705   */\n      dup3\n        /* \"#utility.yul\":5688:5697   */\n      dup8\n        /* \"#utility.yul\":5684:5706   */\n      add\n        /* \"#utility.yul\":5663:5716   */\n      tag_347\n      jump\t// in\n    tag_440:\n        /* \"#utility.yul\":5653:5716   */\n      swap3\n      pop\n        /* \"#utility.yul\":5608:5726   */\n      pop\n        /* \"#utility.yul\":5765:5767   */\n      0x40\n        /* \"#utility.yul\":5791:5844   */\n      tag_441\n        /* \"#utility.yul\":5836:5843   */\n      dup7\n        /* \"#utility.yul\":5827:5833   */\n      dup3\n        /* \"#utility.yul\":5816:5825   */\n      dup8\n        /* \"#utility.yul\":5812:5834   */\n      add\n        /* \"#utility.yul\":5791:5844   */\n      tag_342\n      jump\t// in\n    tag_441:\n        /* \"#utility.yul\":5781:5844   */\n      swap2\n      pop\n        /* \"#utility.yul\":5736:5854   */\n      pop\n        /* \"#utility.yul\":5242:5861   */\n      swap3\n      pop\n      swap3\n      pop\n      swap3\n      jump\t// out\n        /* \"#utility.yul\":5867:6196   */\n    tag_69:\n        /* \"#utility.yul\":5926:5932   */\n      0x00\n        /* \"#utility.yul\":5975:5977   */\n      0x20\n        /* \"#utility.yul\":5963:5972   */\n      dup3\n        /* \"#utility.yul\":5954:5961   */\n      dup5\n        /* \"#utility.yul\":5950:5973   */\n      sub\n        /* \"#utility.yul\":5946:5978   */\n      slt\n        /* \"#utility.yul\":5943:6062   */\n      iszero\n      tag_443\n      jumpi\n        /* \"#utility.yul\":5981:6060   */\n      tag_444\n      tag_328\n      jump\t// in\n    tag_444:\n        /* \"#utility.yul\":5943:6062   */\n    tag_443:\n        /* \"#utility.yul\":6101:6102   */\n      0x00\n        /* \"#utility.yul\":6126:6179   */\n      tag_445\n        /* \"#utility.yul\":6171:6178   */\n      dup5\n        /* \"#utility.yul\":6162:6168   */\n      dup3\n        /* \"#utility.yul\":6151:6160   */\n      dup6\n        /* \"#utility.yul\":6147:6169   */\n      add\n        /* \"#utility.yul\":6126:6179   */\n      tag_347\n      jump\t// in\n    tag_445:\n        /* \"#utility.yul\":6116:6179   */\n      swap2\n      pop\n        /* \"#utility.yul\":6072:6189   */\n      pop\n        /* \"#utility.yul\":5867:6196   */\n      swap3\n      swap2\n      pop\n      pop\n      jump\t// out\n        /* \"#utility.yul\":6202:6318   */\n    tag_349:\n        /* \"#utility.yul\":6272:6293   */\n      tag_447\n        /* \"#utility.yul\":6287:6292   */\n      dup2\n        /* \"#utility.yul\":6272:6293   */\n      tag_333\n      jump\t// in\n    tag_447:\n        /* \"#utility.yul\":6265:6270   */\n      dup2\n        /* \"#utility.yul\":6262:6294   */\n      eq\n        /* \"#utility.yul\":6252:6312   */\n      tag_448\n      jumpi\n        /* \"#utility.yul\":6308:6309   */\n      0x00\n        /* \"#utility.yul\":6305:6306   */\n      dup1\n        /* \"#utility.yul\":6298:6310   */\n      revert\n        /* \"#utility.yul\":6252:6312   */\n    tag_448:\n        /* \"#utility.yul\":6202:6318   */\n      pop\n      jump\t// out\n        /* \"#utility.yul\":6324:6457   */\n    tag_350:\n        /* \"#utility.yul\":6367:6372   */\n      0x00\n        /* \"#utility.yul\":6405:6411   */\n      dup2\n        /* \"#utility.yul\":6392:6412   */\n      calldataload\n        /* \"#utility.yul\":6383:6412   */\n      swap1\n      pop\n        /* \"#utility.yul\":6421:6451   */\n      tag_450\n        /* \"#utility.yul\":6445:6450   */\n      dup2\n        /* \"#utility.yul\":6421:6451   */\n      tag_349\n      jump\t// in\n    tag_450:\n        /* \"#utility.yul\":6324:6457   */\n      swap3\n      swap2\n      pop\n      pop\n      jump\t// out\n        /* \"#utility.yul\":6463:6931   */\n    tag_77:\n        /* \"#utility.yul\":6528:6534   */\n      0x00\n        /* \"#utility.yul\":6536:6542   */\n      dup1\n        /* \"#utility.yul\":6585:6587   */\n      0x40\n        /* \"#utility.yul\":6573:6582   */\n      dup4\n        /* \"#utility.yul\":6564:6571   */\n      dup6\n        /* \"#utility.yul\":6560:6583   */\n      sub\n        /* \"#utility.yul\":6556:6588   */\n      slt\n        /* \"#utility.yul\":6553:6672   */\n      iszero\n      tag_452\n      jumpi\n        /* \"#utility.yul\":6591:6670   */\n      tag_453\n      tag_328\n      jump\t// in\n    tag_453:\n        /* \"#utility.yul\":6553:6672   */\n    tag_452:\n        /* \"#utility.yul\":6711:6712   */\n      0x00\n        /* \"#utility.yul\":6736:6789   */\n      tag_454\n        /* \"#utility.yul\":6781:6788   */\n      dup6\n        /* \"#utility.yul\":6772:6778   */\n      dup3\n        /* \"#utility.yul\":6761:6770   */\n      dup7\n        /* \"#utility.yul\":6757:6779   */\n      add\n        /* \"#utility.yul\":6736:6789   */\n      tag_347\n      jump\t// in\n    tag_454:\n        /* \"#utility.yul\":6726:6789   */\n      swap3\n      pop\n        /* \"#utility.yul\":6682:6799   */\n      pop\n        /* \"#utility.yul\":6838:6840   */\n      0x20\n        /* \"#utility.yul\":6864:6914   */\n      tag_455\n        /* \"#utility.yul\":6906:6913   */\n      dup6\n        /* \"#utility.yul\":6897:6903   */\n      dup3\n        /* \"#utility.yul\":6886:6895   */\n      dup7\n        /* \"#utility.yul\":6882:6904   */\n      add\n        /* \"#utility.yul\":6864:6914   */\n      tag_350\n      jump\t// in\n    tag_455:\n        /* \"#utility.yul\":6854:6914   */\n      swap2\n      pop\n        /* \"#utility.yul\":6809:6924   */\n      pop\n        /* \"#utility.yul\":6463:6931   */\n      swap3\n      pop\n      swap3\n      swap1\n      pop\n      jump\t// out\n        /* \"#utility.yul\":6937:7054   */\n    tag_351:\n        /* \"#utility.yul\":7046:7047   */\n      0x00\n        /* \"#utility.yul\":7043:7044   */\n      dup1\n        /* \"#utility.yul\":7036:7048   */\n      revert\n        /* \"#utility.yul\":7060:7177   */\n    tag_352:\n        /* \"#utility.yul\":7169:7170   */\n      0x00\n        /* \"#utility.yul\":7166:7167   */\n      dup1\n        /* \"#utility.yul\":7159:7171   */\n      revert\n        /* \"#utility.yul\":7183:7363   */\n    tag_314:\n        /* \"#utility.yul\":7231:7308   */\n      0x4e487b7100000000000000000000000000000000000000000000000000000000\n        /* \"#utility.yul\":7228:7229   */\n      0x00\n        /* \"#utility.yul\":7221:7309   */\n      mstore\n        /* \"#utility.yul\":7328:7332   */\n      0x41\n        /* \"#utility.yul\":7325:7326   */\n      0x04\n        /* \"#utility.yul\":7318:7333   */\n      mstore\n        /* \"#utility.yul\":7352:7356   */\n      0x24\n        /* \"#utility.yul\":7349:7350   */\n      0x00\n        /* \"#utility.yul\":7342:7357   */\n      revert\n        /* \"#utility.yul\":7369:7650   */\n    tag_353:\n        /* \"#utility.yul\":7452:7479   */\n      tag_460\n        /* \"#utility.yul\":7474:7478   */\n      dup3\n        /* \"#utility.yul\":7452:7479   */\n      tag_338\n      jump\t// in\n    tag_460:\n        /* \"#utility.yul\":7444:7450   */\n      dup2\n        /* \"#utility.yul\":7440:7480   */\n      add\n        /* \"#utility.yul\":7582:7588   */\n      dup2\n        /* \"#utility.yul\":7570:7580   */\n      dup2\n        /* \"#utility.yul\":7567:7589   */\n      lt\n        /* \"#utility.yul\":7546:7564   */\n      0xffffffffffffffff\n        /* \"#utility.yul\":7534:7544   */\n      dup3\n        /* \"#utility.yul\":7531:7565   */\n      gt\n        /* \"#utility.yul\":7528:7590   */\n      or\n        /* \"#utility.yul\":7525:7613   */\n      iszero\n      tag_461\n      jumpi\n        /* \"#utility.yul\":7593:7611   */\n      tag_462\n      tag_314\n      jump\t// in\n    tag_462:\n        /* \"#utility.yul\":7525:7613   */\n    tag_461:\n        /* \"#utility.yul\":7633:7643   */\n      dup1\n        /* \"#utility.yul\":7629:7631   */\n      0x40\n        /* \"#utility.yul\":7622:7644   */\n      mstore\n        /* \"#utility.yul\":7412:7650   */\n      pop\n        /* \"#utility.yul\":7369:7650   */\n      pop\n      pop\n      jump\t// out\n        /* \"#utility.yul\":7656:7785   */\n    tag_354:\n        /* \"#utility.yul\":7690:7696   */\n      0x00\n        /* \"#utility.yul\":7717:7737   */\n      tag_464\n      tag_327\n      jump\t// in\n    tag_464:\n        /* \"#utility.yul\":7707:7737   */\n      swap1\n      pop\n        /* \"#utility.yul\":7746:7779   */\n      tag_465\n        /* \"#utility.yul\":7774:7778   */\n      dup3\n        /* \"#utility.yul\":7766:7772   */\n      dup3\n        /* \"#utility.yul\":7746:7779   */\n      tag_353\n      jump\t// in\n    tag_465:\n        /* \"#utility.yul\":7656:7785   */\n      swap2\n      swap1\n      pop\n      jump\t// out\n        /* \"#utility.yul\":7791:8098   */\n    tag_355:\n        /* \"#utility.yul\":7852:7856   */\n      0x00\n        /* \"#utility.yul\":7942:7960   */\n      0xffffffffffffffff\n        /* \"#utility.yul\":7934:7940   */\n      dup3\n        /* \"#utility.yul\":7931:7961   */\n      gt\n        /* \"#utility.yul\":7928:7984   */\n      iszero\n      tag_467\n      jumpi\n        /* \"#utility.yul\":7964:7982   */\n      tag_468\n      tag_314\n      jump\t// in\n    tag_468:\n        /* \"#utility.yul\":7928:7984   */\n    tag_467:\n        /* \"#utility.yul\":8002:8031   */\n      tag_469\n        /* \"#utility.yul\":8024:8030   */\n      dup3\n        /* \"#utility.yul\":8002:8031   */\n      tag_338\n      jump\t// in\n    tag_469:\n        /* \"#utility.yul\":7994:8031   */\n      swap1\n      pop\n        /* \"#utility.yul\":8086:8090   */\n      0x20\n        /* \"#utility.yul\":8080:8084   */\n      dup2\n        /* \"#utility.yul\":8076:8091   */\n      add\n        /* \"#utility.yul\":8068:8091   */\n      swap1\n      pop\n        /* \"#utility.yul\":7791:8098   */\n      swap2\n      swap1\n      pop\n      jump\t// out\n        /* \"#utility.yul\":8104:8250   */\n    tag_356:\n        /* \"#utility.yul\":8201:8207   */\n      dup3\n        /* \"#utility.yul\":8196:8199   */\n      dup2\n        /* \"#utility.yul\":8191:8194   */\n      dup4\n        /* \"#utility.yul\":8178:8208   */\n      calldatacopy\n        /* \"#utility.yul\":8242:8243   */\n      0x00\n        /* \"#utility.yul\":8233:8239   */\n      dup4\n        /* \"#utility.yul\":8228:8231   */\n      dup4\n        /* \"#utility.yul\":8224:8240   */\n      add\n        /* \"#utility.yul\":8217:8244   */\n      mstore\n        /* \"#utility.yul\":8104:8250   */\n      pop\n      pop\n      pop\n      jump\t// out\n        /* \"#utility.yul\":8256:8679   */\n    tag_357:\n        /* \"#utility.yul\":8333:8338   */\n      0x00\n        /* \"#utility.yul\":8358:8423   */\n      tag_472\n        /* \"#utility.yul\":8374:8422   */\n      tag_473\n        /* \"#utility.yul\":8415:8421   */\n      dup5\n        /* \"#utility.yul\":8374:8422   */\n      tag_355\n      jump\t// in\n    tag_473:\n        /* \"#utility.yul\":8358:8423   */\n      tag_354\n      jump\t// in\n    tag_472:\n        /* \"#utility.yul\":8349:8423   */\n      swap1\n      pop\n        /* \"#utility.yul\":8446:8452   */\n      dup3\n        /* \"#utility.yul\":8439:8444   */\n      dup2\n        /* \"#utility.yul\":8432:8453   */\n      mstore\n        /* \"#utility.yul\":8484:8488   */\n      0x20\n        /* \"#utility.yul\":8477:8482   */\n      dup2\n        /* \"#utility.yul\":8473:8489   */\n      add\n        /* \"#utility.yul\":8522:8525   */\n      dup5\n        /* \"#utility.yul\":8513:8519   */\n      dup5\n        /* \"#utility.yul\":8508:8511   */\n      dup5\n        /* \"#utility.yul\":8504:8520   */\n      add\n        /* \"#utility.yul\":8501:8526   */\n      gt\n        /* \"#utility.yul\":8498:8610   */\n      iszero\n      tag_474\n      jumpi\n        /* \"#utility.yul\":8529:8608   */\n      tag_475\n      tag_352\n      jump\t// in\n    tag_475:\n        /* \"#utility.yul\":8498:8610   */\n    tag_474:\n        /* \"#utility.yul\":8619:8673   */\n      tag_476\n        /* \"#utility.yul\":8666:8672   */\n      dup5\n        /* \"#utility.yul\":8661:8664   */\n      dup3\n        /* \"#utility.yul\":8656:8659   */\n      dup6\n        /* \"#utility.yul\":8619:8673   */\n      tag_356\n      jump\t// in\n    tag_476:\n        /* \"#utility.yul\":8339:8679   */\n      pop\n        /* \"#utility.yul\":8256:8679   */\n      swap4\n      swap3\n      pop\n      pop\n      pop\n      jump\t// out\n        /* \"#utility.yul\":8698:9036   */\n    tag_358:\n        /* \"#utility.yul\":8753:8758   */\n      0x00\n        /* \"#utility.yul\":8802:8805   */\n      dup3\n        /* \"#utility.yul\":8795:8799   */\n      0x1f\n        /* \"#utility.yul\":8787:8793   */\n      dup4\n        /* \"#utility.yul\":8783:8800   */\n      add\n        /* \"#utility.yul\":8779:8806   */\n      slt\n        /* \"#utility.yul\":8769:8891   */\n      tag_478\n      jumpi\n        /* \"#utility.yul\":8810:8889   */\n      tag_479\n      tag_351\n      jump\t// in\n    tag_479:\n        /* \"#utility.yul\":8769:8891   */\n    tag_478:\n        /* \"#utility.yul\":8927:8933   */\n      dup2\n        /* \"#utility.yul\":8914:8934   */\n      calldataload\n        /* \"#utility.yul\":8952:9030   */\n      tag_480\n        /* \"#utility.yul\":9026:9029   */\n      dup5\n        /* \"#utility.yul\":9018:9024   */\n      dup3\n        /* \"#utility.yul\":9011:9015   */\n      0x20\n        /* \"#utility.yul\":9003:9009   */\n      dup7\n        /* \"#utility.yul\":8999:9016   */\n      add\n        /* \"#utility.yul\":8952:9030   */\n      tag_357\n      jump\t// in\n    tag_480:\n        /* \"#utility.yul\":8943:9030   */\n      swap2\n      pop\n        /* \"#utility.yul\":8759:9036   */\n      pop\n        /* \"#utility.yul\":8698:9036   */\n      swap3\n      swap2\n      pop\n      pop\n      jump\t// out\n        /* \"#utility.yul\":9042:9985   */\n    tag_81:\n        /* \"#utility.yul\":9137:9143   */\n      0x00\n        /* \"#utility.yul\":9145:9151   */\n      dup1\n        /* \"#utility.yul\":9153:9159   */\n      0x00\n        /* \"#utility.yul\":9161:9167   */\n      dup1\n        /* \"#utility.yul\":9210:9213   */\n      0x80\n        /* \"#utility.yul\":9198:9207   */\n      dup6\n        /* \"#utility.yul\":9189:9196   */\n      dup8\n        /* \"#utility.yul\":9185:9208   */\n      sub\n        /* \"#utility.yul\":9181:9214   */\n      slt\n        /* \"#utility.yul\":9178:9298   */\n      iszero\n      tag_482\n      jumpi\n        /* \"#utility.yul\":9217:9296   */\n      tag_483\n      tag_328\n      jump\t// in\n    tag_483:\n        /* \"#utility.yul\":9178:9298   */\n    tag_482:\n        /* \"#utility.yul\":9337:9338   */\n      0x00\n        /* \"#utility.yul\":9362:9415   */\n      tag_484\n        /* \"#utility.yul\":9407:9414   */\n      dup8\n        /* \"#utility.yul\":9398:9404   */\n      dup3\n        /* \"#utility.yul\":9387:9396   */\n      dup9\n        /* \"#utility.yul\":9383:9405   */\n      add\n        /* \"#utility.yul\":9362:9415   */\n      tag_347\n      jump\t// in\n    tag_484:\n        /* \"#utility.yul\":9352:9415   */\n      swap5\n      pop\n        /* \"#utility.yul\":9308:9425   */\n      pop\n        /* \"#utility.yul\":9464:9466   */\n      0x20\n        /* \"#utility.yul\":9490:9543   */\n      tag_485\n        /* \"#utility.yul\":9535:9542   */\n      dup8\n        /* \"#utility.yul\":9526:9532   */\n      dup3\n        /* \"#utility.yul\":9515:9524   */\n      dup9\n        /* \"#utility.yul\":9511:9533   */\n      add\n        /* \"#utility.yul\":9490:9543   */\n      tag_347\n      jump\t// in\n    tag_485:\n        /* \"#utility.yul\":9480:9543   */\n      swap4\n      pop\n        /* \"#utility.yul\":9435:9553   */\n      pop\n        /* \"#utility.yul\":9592:9594   */\n      0x40\n        /* \"#utility.yul\":9618:9671   */\n      tag_486\n        /* \"#utility.yul\":9663:9670   */\n      dup8\n        /* \"#utility.yul\":9654:9660   */\n      dup3\n        /* \"#utility.yul\":9643:9652   */\n      dup9\n        /* \"#utility.yul\":9639:9661   */\n      add\n        /* \"#utility.yul\":9618:9671   */\n      tag_342\n      jump\t// in\n    tag_486:\n        /* \"#utility.yul\":9608:9671   */\n      swap3\n      pop\n        /* \"#utility.yul\":9563:9681   */\n      pop\n        /* \"#utility.yul\":9748:9750   */\n      0x60\n        /* \"#utility.yul\":9737:9746   */\n      dup6\n        /* \"#utility.yul\":9733:9751   */\n      add\n        /* \"#utility.yul\":9720:9752   */\n      calldataload\n        /* \"#utility.yul\":9779:9797   */\n      0xffffffffffffffff\n        /* \"#utility.yul\":9771:9777   */\n      dup2\n        /* \"#utility.yul\":9768:9798   */\n      gt\n        /* \"#utility.yul\":9765:9882   */\n      iszero\n      tag_487\n      jumpi\n        /* \"#utility.yul\":9801:9880   */\n      tag_488\n      tag_329\n      jump\t// in\n    tag_488:\n        /* \"#utility.yul\":9765:9882   */\n    tag_487:\n        /* \"#utility.yul\":9906:9968   */\n      tag_489\n        /* \"#utility.yul\":9960:9967   */\n      dup8\n        /* \"#utility.yul\":9951:9957   */\n      dup3\n        /* \"#utility.yul\":9940:9949   */\n      dup9\n        /* \"#utility.yul\":9936:9958   */\n      add\n        /* \"#utility.yul\":9906:9968   */\n      tag_358\n      jump\t// in\n    tag_489:\n        /* \"#utility.yul\":9896:9968   */\n      swap2\n      pop\n        /* \"#utility.yul\":9691:9978   */\n      pop\n        /* \"#utility.yul\":9042:9985   */\n      swap3\n      swap6\n      swap2\n      swap5\n      pop\n      swap3\n      pop\n      jump\t// out\n        /* \"#utility.yul\":9991:10465   */\n    tag_110:\n        /* \"#utility.yul\":10059:10065   */\n      0x00\n        /* \"#utility.yul\":10067:10073   */\n      dup1\n        /* \"#utility.yul\":10116:10118   */\n      0x40\n        /* \"#utility.yul\":10104:10113   */\n      dup4\n        /* \"#utility.yul\":10095:10102   */\n      dup6\n        /* \"#utility.yul\":10091:10114   */\n      sub\n        /* \"#utility.yul\":10087:10119   */\n      slt\n        /* \"#utility.yul\":10084:10203   */\n      iszero\n      tag_491\n      jumpi\n        /* \"#utility.yul\":10122:10201   */\n      tag_492\n      tag_328\n      jump\t// in\n    tag_492:\n        /* \"#utility.yul\":10084:10203   */\n    tag_491:\n        /* \"#utility.yul\":10242:10243   */\n      0x00\n        /* \"#utility.yul\":10267:10320   */\n      tag_493\n        /* \"#utility.yul\":10312:10319   */\n      dup6\n        /* \"#utility.yul\":10303:10309   */\n      dup3\n        /* \"#utility.yul\":10292:10301   */\n      dup7\n        /* \"#utility.yul\":10288:10310   */\n      add\n        /* \"#utility.yul\":10267:10320   */\n      tag_347\n      jump\t// in\n    tag_493:\n        /* \"#utility.yul\":10257:10320   */\n      swap3\n      pop\n        /* \"#utility.yul\":10213:10330   */\n      pop\n        /* \"#utility.yul\":10369:10371   */\n      0x20\n        /* \"#utility.yul\":10395:10448   */\n      tag_494\n        /* \"#utility.yul\":10440:10447   */\n      dup6\n        /* \"#utility.yul\":10431:10437   */\n      dup3\n        /* \"#utility.yul\":10420:10429   */\n      dup7\n        /* \"#utility.yul\":10416:10438   */\n      add\n        /* \"#utility.yul\":10395:10448   */\n      tag_347\n      jump\t// in\n    tag_494:\n        /* \"#utility.yul\":10385:10448   */\n      swap2\n      pop\n        /* \"#utility.yul\":10340:10458   */\n      pop\n        /* \"#utility.yul\":9991:10465   */\n      swap3\n      pop\n      swap3\n      swap1\n      pop\n      jump\t// out\n        /* \"#utility.yul\":10471:10651   */\n    tag_359:\n        /* \"#utility.yul\":10519:10596   */\n      0x4e487b7100000000000000000000000000000000000000000000000000000000\n        /* \"#utility.yul\":10516:10517   */\n      0x00\n        /* \"#utility.yul\":10509:10597   */\n      mstore\n        /* \"#utility.yul\":10616:10620   */\n      0x22\n        /* \"#utility.yul\":10613:10614   */\n      0x04\n        /* \"#utility.yul\":10606:10621   */\n      mstore\n        /* \"#utility.yul\":10640:10644   */\n      0x24\n        /* \"#utility.yul\":10637:10638   */\n      0x00\n        /* \"#utility.yul\":10630:10645   */\n      revert\n        /* \"#utility.yul\":10657:10977   */\n    tag_124:\n        /* \"#utility.yul\":10701:10707   */\n      0x00\n        /* \"#utility.yul\":10738:10739   */\n      0x02\n        /* \"#utility.yul\":10732:10736   */\n      dup3\n        /* \"#utility.yul\":10728:10740   */\n      div\n        /* \"#utility.yul\":10718:10740   */\n      swap1\n      pop\n        /* \"#utility.yul\":10785:10786   */\n      0x01\n        /* \"#utility.yul\":10779:10783   */\n      dup3\n        /* \"#utility.yul\":10775:10787   */\n      and\n        /* \"#utility.yul\":10806:10824   */\n      dup1\n        /* \"#utility.yul\":10796:10877   */\n      tag_497\n      jumpi\n        /* \"#utility.yul\":10862:10866   */\n      0x7f\n        /* \"#utility.yul\":10854:10860   */\n      dup3\n        /* \"#utility.yul\":10850:10867   */\n      and\n        /* \"#utility.yul\":10840:10867   */\n      swap2\n      pop\n        /* \"#utility.yul\":10796:10877   */\n    tag_497:\n        /* \"#utility.yul\":10924:10926   */\n      0x20\n        /* \"#utility.yul\":10916:10922   */\n      dup3\n        /* \"#utility.yul\":10913:10927   */\n      lt\n        /* \"#utility.yul\":10893:10911   */\n      dup2\n        /* \"#utility.yul\":10890:10928   */\n      sub\n        /* \"#utility.yul\":10887:10971   */\n      tag_498\n      jumpi\n        /* \"#utility.yul\":10943:10961   */\n      tag_499\n      tag_359\n      jump\t// in\n    tag_499:\n        /* \"#utility.yul\":10887:10971   */\n    tag_498:\n        /* \"#utility.yul\":10708:10977   */\n      pop\n        /* \"#utility.yul\":10657:10977   */\n      swap2\n      swap1\n      pop\n      jump\t// out\n        /* \"#utility.yul\":10983:11131   */\n    tag_360:\n        /* \"#utility.yul\":11085:11096   */\n      0x00\n        /* \"#utility.yul\":11122:11125   */\n      dup2\n        /* \"#utility.yul\":11107:11125   */\n      swap1\n      pop\n        /* \"#utility.yul\":10983:11131   */\n      swap3\n      swap2\n      pop\n      pop\n      jump\t// out\n        /* \"#utility.yul\":11137:11527   */\n    tag_361:\n        /* \"#utility.yul\":11243:11246   */\n      0x00\n        /* \"#utility.yul\":11271:11310   */\n      tag_502\n        /* \"#utility.yul\":11304:11309   */\n      dup3\n        /* \"#utility.yul\":11271:11310   */\n      tag_335\n      jump\t// in\n    tag_502:\n        /* \"#utility.yul\":11326:11415   */\n      tag_503\n        /* \"#utility.yul\":11408:11414   */\n      dup2\n        /* \"#utility.yul\":11403:11406   */\n      dup6\n        /* \"#utility.yul\":11326:11415   */\n      tag_360\n      jump\t// in\n    tag_503:\n        /* \"#utility.yul\":11319:11415   */\n      swap4\n      pop\n        /* \"#utility.yul\":11424:11489   */\n      tag_504\n        /* \"#utility.yul\":11482:11488   */\n      dup2\n        /* \"#utility.yul\":11477:11480   */\n      dup6\n        /* \"#utility.yul\":11470:11474   */\n      0x20\n        /* \"#utility.yul\":11463:11468   */\n      dup7\n        /* \"#utility.yul\":11459:11475   */\n      add\n        /* \"#utility.yul\":11424:11489   */\n      tag_337\n      jump\t// in\n    tag_504:\n        /* \"#utility.yul\":11514:11520   */\n      dup1\n        /* \"#utility.yul\":11509:11512   */\n      dup5\n        /* \"#utility.yul\":11505:11521   */\n      add\n        /* \"#utility.yul\":11498:11521   */\n      swap2\n      pop\n        /* \"#utility.yul\":11247:11527   */\n      pop\n        /* \"#utility.yul\":11137:11527   */\n      swap3\n      swap2\n      pop\n      pop\n      jump\t// out\n        /* \"#utility.yul\":11533:11968   */\n    tag_206:\n        /* \"#utility.yul\":11713:11716   */\n      0x00\n        /* \"#utility.yul\":11735:11830   */\n      tag_506\n        /* \"#utility.yul\":11826:11829   */\n      dup3\n        /* \"#utility.yul\":11817:11823   */\n      dup6\n        /* \"#utility.yul\":11735:11830   */\n      tag_361\n      jump\t// in\n    tag_506:\n        /* \"#utility.yul\":11728:11830   */\n      swap2\n      pop\n        /* \"#utility.yul\":11847:11942   */\n      tag_507\n        /* \"#utility.yul\":11938:11941   */\n      dup3\n        /* \"#utility.yul\":11929:11935   */\n      dup5\n        /* \"#utility.yul\":11847:11942   */\n      tag_361\n      jump\t// in\n    tag_507:\n        /* \"#utility.yul\":11840:11942   */\n      swap2\n      pop\n        /* \"#utility.yul\":11959:11962   */\n      dup2\n        /* \"#utility.yul\":11952:11962   */\n      swap1\n      pop\n        /* \"#utility.yul\":11533:11968   */\n      swap4\n      swap3\n      pop\n      pop\n      pop\n      jump\t// out\n        /* \"#utility.yul\":11974:12154   */\n    tag_362:\n        /* \"#utility.yul\":12022:12099   */\n      0x4e487b7100000000000000000000000000000000000000000000000000000000\n        /* \"#utility.yul\":12019:12020   */\n      0x00\n        /* \"#utility.yul\":12012:12100   */\n      mstore\n        /* \"#utility.yul\":12119:12123   */\n      0x11\n        /* \"#utility.yul\":12116:12117   */\n      0x04\n        /* \"#utility.yul\":12109:12124   */\n      mstore\n        /* \"#utility.yul\":12143:12147   */\n      0x24\n        /* \"#utility.yul\":12140:12141   */\n      0x00\n        /* \"#utility.yul\":12133:12148   */\n      revert\n        /* \"#utility.yul\":12160:12262   */\n    tag_363:\n        /* \"#utility.yul\":12202:12210   */\n      0x00\n        /* \"#utility.yul\":12249:12254   */\n      dup2\n        /* \"#utility.yul\":12246:12247   */\n      0x01\n        /* \"#utility.yul\":12242:12255   */\n      shr\n        /* \"#utility.yul\":12221:12255   */\n      swap1\n      pop\n        /* \"#utility.yul\":12160:12262   */\n      swap2\n      swap1\n      pop\n      jump\t// out\n        /* \"#utility.yul\":12268:13116   */\n    tag_364:\n        /* \"#utility.yul\":12329:12334   */\n      0x00\n        /* \"#utility.yul\":12336:12340   */\n      dup1\n        /* \"#utility.yul\":12360:12366   */\n      dup3\n        /* \"#utility.yul\":12351:12366   */\n      swap2\n      pop\n        /* \"#utility.yul\":12384:12389   */\n      dup4\n        /* \"#utility.yul\":12375:12389   */\n      swap1\n      pop\n        /* \"#utility.yul\":12398:13110   */\n    tag_511:\n        /* \"#utility.yul\":12419:12420   */\n      0x01\n        /* \"#utility.yul\":12409:12417   */\n      dup6\n        /* \"#utility.yul\":12406:12421   */\n      gt\n        /* \"#utility.yul\":12398:13110   */\n      iszero\n      tag_513\n      jumpi\n        /* \"#utility.yul\":12514:12518   */\n      dup1\n        /* \"#utility.yul\":12509:12512   */\n      dup7\n        /* \"#utility.yul\":12505:12519   */\n      div\n        /* \"#utility.yul\":12499:12503   */\n      dup2\n        /* \"#utility.yul\":12496:12520   */\n      gt\n        /* \"#utility.yul\":12493:12543   */\n      iszero\n      tag_514\n      jumpi\n        /* \"#utility.yul\":12523:12541   */\n      tag_515\n      tag_362\n      jump\t// in\n    tag_515:\n        /* \"#utility.yul\":12493:12543   */\n    tag_514:\n        /* \"#utility.yul\":12573:12574   */\n      0x01\n        /* \"#utility.yul\":12563:12571   */\n      dup6\n        /* \"#utility.yul\":12559:12575   */\n      and\n        /* \"#utility.yul\":12556:13007   */\n      iszero\n      tag_516\n      jumpi\n        /* \"#utility.yul\":12988:12992   */\n      dup1\n        /* \"#utility.yul\":12981:12986   */\n      dup3\n        /* \"#utility.yul\":12977:12993   */\n      mul\n        /* \"#utility.yul\":12968:12993   */\n      swap2\n      pop\n        /* \"#utility.yul\":12556:13007   */\n    tag_516:\n        /* \"#utility.yul\":13038:13042   */\n      dup1\n        /* \"#utility.yul\":13032:13036   */\n      dup2\n        /* \"#utility.yul\":13028:13043   */\n      mul\n        /* \"#utility.yul\":13020:13043   */\n      swap1\n      pop\n        /* \"#utility.yul\":13068:13100   */\n      tag_517\n        /* \"#utility.yul\":13091:13099   */\n      dup6\n        /* \"#utility.yul\":13068:13100   */\n      tag_363\n      jump\t// in\n    tag_517:\n        /* \"#utility.yul\":13056:13100   */\n      swap5\n      pop\n        /* \"#utility.yul\":12398:13110   */\n      jump(tag_511)\n    tag_513:\n        /* \"#utility.yul\":12268:13116   */\n      swap5\n      pop\n      swap5\n      swap3\n      pop\n      pop\n      pop\n      jump\t// out\n        /* \"#utility.yul\":13122:14195   */\n    tag_365:\n        /* \"#utility.yul\":13176:13181   */\n      0x00\n        /* \"#utility.yul\":13367:13375   */\n      dup3\n        /* \"#utility.yul\":13357:13397   */\n      tag_519\n      jumpi\n        /* \"#utility.yul\":13388:13389   */\n      0x01\n        /* \"#utility.yul\":13379:13389   */\n      swap1\n      pop\n        /* \"#utility.yul\":13390:13395   */\n      jump(tag_518)\n        /* \"#utility.yul\":13357:13397   */\n    tag_519:\n        /* \"#utility.yul\":13416:13420   */\n      dup2\n        /* \"#utility.yul\":13406:13442   */\n      tag_520\n      jumpi\n        /* \"#utility.yul\":13433:13434   */\n      0x00\n        /* \"#utility.yul\":13424:13434   */\n      swap1\n      pop\n        /* \"#utility.yul\":13435:13440   */\n      jump(tag_518)\n        /* \"#utility.yul\":13406:13442   */\n    tag_520:\n        /* \"#utility.yul\":13502:13506   */\n      dup2\n        /* \"#utility.yul\":13550:13551   */\n      0x01\n        /* \"#utility.yul\":13545:13572   */\n      dup2\n      eq\n      tag_522\n      jumpi\n        /* \"#utility.yul\":13586:13587   */\n      0x02\n        /* \"#utility.yul\":13581:13772   */\n      dup2\n      eq\n      tag_523\n      jumpi\n        /* \"#utility.yul\":13495:13772   */\n      jump(tag_521)\n        /* \"#utility.yul\":13545:13572   */\n    tag_522:\n        /* \"#utility.yul\":13563:13564   */\n      0x01\n        /* \"#utility.yul\":13554:13564   */\n      swap2\n      pop\n        /* \"#utility.yul\":13565:13570   */\n      pop\n      jump(tag_518)\n        /* \"#utility.yul\":13581:13772   */\n    tag_523:\n        /* \"#utility.yul\":13626:13629   */\n      0xff\n        /* \"#utility.yul\":13616:13624   */\n      dup5\n        /* \"#utility.yul\":13613:13630   */\n      gt\n        /* \"#utility.yul\":13610:13653   */\n      iszero\n      tag_524\n      jumpi\n        /* \"#utility.yul\":13633:13651   */\n      tag_525\n      tag_362\n      jump\t// in\n    tag_525:\n        /* \"#utility.yul\":13610:13653   */\n    tag_524:\n        /* \"#utility.yul\":13682:13690   */\n      dup4\n        /* \"#utility.yul\":13679:13680   */\n      0x02\n        /* \"#utility.yul\":13675:13691   */\n      exp\n        /* \"#utility.yul\":13666:13691   */\n      swap2\n      pop\n        /* \"#utility.yul\":13717:13720   */\n      dup5\n        /* \"#utility.yul\":13710:13715   */\n      dup3\n        /* \"#utility.yul\":13707:13721   */\n      gt\n        /* \"#utility.yul\":13704:13744   */\n      iszero\n      tag_526\n      jumpi\n        /* \"#utility.yul\":13724:13742   */\n      tag_527\n      tag_362\n      jump\t// in\n    tag_527:\n        /* \"#utility.yul\":13704:13744   */\n    tag_526:\n        /* \"#utility.yul\":13757:13762   */\n      pop\n      jump(tag_518)\n        /* \"#utility.yul\":13495:13772   */\n    tag_521:\n      pop\n        /* \"#utility.yul\":13881:13883   */\n      0x20\n        /* \"#utility.yul\":13871:13879   */\n      dup4\n        /* \"#utility.yul\":13868:13884   */\n      lt\n        /* \"#utility.yul\":13862:13865   */\n      0x0133\n        /* \"#utility.yul\":13856:13860   */\n      dup4\n        /* \"#utility.yul\":13853:13866   */\n      lt\n        /* \"#utility.yul\":13849:13885   */\n      and\n        /* \"#utility.yul\":13831:13833   */\n      0x4e\n        /* \"#utility.yul\":13821:13829   */\n      dup5\n        /* \"#utility.yul\":13818:13834   */\n      lt\n        /* \"#utility.yul\":13813:13815   */\n      0x0b\n        /* \"#utility.yul\":13807:13811   */\n      dup5\n        /* \"#utility.yul\":13804:13816   */\n      lt\n        /* \"#utility.yul\":13800:13835   */\n      and\n        /* \"#utility.yul\":13784:13895   */\n      or\n        /* \"#utility.yul\":13781:14027   */\n      iszero\n      tag_528\n      jumpi\n        /* \"#utility.yul\":13937:13945   */\n      dup3\n        /* \"#utility.yul\":13931:13935   */\n      dup3\n        /* \"#utility.yul\":13927:13946   */\n      exp\n        /* \"#utility.yul\":13918:13946   */\n      swap1\n      pop\n        /* \"#utility.yul\":13972:13975   */\n      dup4\n        /* \"#utility.yul\":13965:13970   */\n      dup2\n        /* \"#utility.yul\":13962:13976   */\n      gt\n        /* \"#utility.yul\":13959:13999   */\n      iszero\n      tag_529\n      jumpi\n        /* \"#utility.yul\":13979:13997   */\n      tag_530\n      tag_362\n      jump\t// in\n    tag_530:\n        /* \"#utility.yul\":13959:13999   */\n    tag_529:\n        /* \"#utility.yul\":14012:14017   */\n      jump(tag_518)\n        /* \"#utility.yul\":13781:14027   */\n    tag_528:\n        /* \"#utility.yul\":14052:14094   */\n      tag_531\n        /* \"#utility.yul\":14090:14093   */\n      dup5\n        /* \"#utility.yul\":14080:14088   */\n      dup5\n        /* \"#utility.yul\":14074:14078   */\n      dup5\n        /* \"#utility.yul\":14071:14072   */\n      0x01\n        /* \"#utility.yul\":14052:14094   */\n      tag_364\n      jump\t// in\n    tag_531:\n        /* \"#utility.yul\":14037:14094   */\n      swap3\n      pop\n      swap1\n      pop\n        /* \"#utility.yul\":14126:14130   */\n      dup2\n        /* \"#utility.yul\":14121:14124   */\n      dup5\n        /* \"#utility.yul\":14117:14131   */\n      div\n        /* \"#utility.yul\":14110:14115   */\n      dup2\n        /* \"#utility.yul\":14107:14132   */\n      gt\n        /* \"#utility.yul\":14104:14155   */\n      iszero\n      tag_532\n      jumpi\n        /* \"#utility.yul\":14135:14153   */\n      tag_533\n      tag_362\n      jump\t// in\n    tag_533:\n        /* \"#utility.yul\":14104:14155   */\n    tag_532:\n        /* \"#utility.yul\":14184:14188   */\n      dup2\n        /* \"#utility.yul\":14177:14182   */\n      dup2\n        /* \"#utility.yul\":14173:14189   */\n      mul\n        /* \"#utility.yul\":14164:14189   */\n      swap1\n      pop\n        /* \"#utility.yul\":13122:14195   */\n    tag_518:\n      swap4\n      swap3\n      pop\n      pop\n      pop\n      jump\t// out\n        /* \"#utility.yul\":14201:14287   */\n    tag_366:\n        /* \"#utility.yul\":14236:14243   */\n      0x00\n        /* \"#utility.yul\":14276:14280   */\n      0xff\n        /* \"#utility.yul\":14269:14274   */\n      dup3\n        /* \"#utility.yul\":14265:14281   */\n      and\n        /* \"#utility.yul\":14254:14281   */\n      swap1\n      pop\n        /* \"#utility.yul\":14201:14287   */\n      swap2\n      swap1\n      pop\n      jump\t// out\n        /* \"#utility.yul\":14293:14574   */\n    tag_213:\n        /* \"#utility.yul\":14351:14356   */\n      0x00\n        /* \"#utility.yul\":14375:14398   */\n      tag_536\n        /* \"#utility.yul\":14393:14397   */\n      dup3\n        /* \"#utility.yul\":14375:14398   */\n      tag_340\n      jump\t// in\n    tag_536:\n        /* \"#utility.yul\":14367:14398   */\n      swap2\n      pop\n        /* \"#utility.yul\":14419:14444   */\n      tag_537\n        /* \"#utility.yul\":14435:14443   */\n      dup4\n        /* \"#utility.yul\":14419:14444   */\n      tag_366\n      jump\t// in\n    tag_537:\n        /* \"#utility.yul\":14407:14444   */\n      swap3\n      pop\n        /* \"#utility.yul\":14463:14567   */\n      tag_538\n        /* \"#utility.yul\":14500:14566   */\n      0xffffffffffffffffffffffffffffffffffffffffffffffffffffffffffffffff\n        /* \"#utility.yul\":14490:14498   */\n      dup5\n        /* \"#utility.yul\":14484:14488   */\n      dup5\n        /* \"#utility.yul\":14463:14567   */\n      tag_365\n      jump\t// in\n    tag_538:\n        /* \"#utility.yul\":14454:14567   */\n      swap1\n      pop\n        /* \"#utility.yul\":14293:14574   */\n      swap3\n      swap2\n      pop\n      pop\n      jump\t// out\n        /* \"#utility.yul\":14580:14760   */\n    tag_367:\n        /* \"#utility.yul\":14628:14705   */\n      0x4e487b7100000000000000000000000000000000000000000000000000000000\n        /* \"#utility.yul\":14625:14626   */\n      0x00\n        /* \"#utility.yul\":14618:14706   */\n      mstore\n        /* \"#utility.yul\":14725:14729   */\n      0x12\n        /* \"#utility.yul\":14722:14723   */\n      0x04\n        /* \"#utility.yul\":14715:14730   */\n      mstore\n        /* \"#utility.yul\":14749:14753   */\n      0x24\n        /* \"#utility.yul\":14746:14747   */\n      0x00\n        /* \"#utility.yul\":14739:14754   */\n      revert\n        /* \"#utility.yul\":14766:14942   */\n    tag_219:\n        /* \"#utility.yul\":14798:14799   */\n      0x00\n        /* \"#utility.yul\":14815:14835   */\n      tag_541\n        /* \"#utility.yul\":14833:14834   */\n      dup3\n        /* \"#utility.yul\":14815:14835   */\n      tag_340\n      jump\t// in\n    tag_541:\n        /* \"#utility.yul\":14810:14835   */\n      swap2\n      pop\n        /* \"#utility.yul\":14849:14869   */\n      tag_542\n        /* \"#utility.yul\":14867:14868   */\n      dup4\n        /* \"#utility.yul\":14849:14869   */\n      tag_340\n      jump\t// in\n    tag_542:\n        /* \"#utility.yul\":14844:14869   */\n      swap3\n      pop\n        /* \"#utility.yul\":14888:14889   */\n      dup3\n        /* \"#utility.yul\":14878:14913   */\n      tag_543\n      jumpi\n        /* \"#utility.yul\":14893:14911   */\n      tag_544\n      tag_367\n      jump\t// in\n    tag_544:\n        /* \"#utility.yul\":14878:14913   */\n    tag_543:\n        /* \"#utility.yul\":14934:14935   */\n      dup3\n        /* \"#utility.yul\":14931:14932   */\n      dup3\n        /* \"#utility.yul\":14927:14936   */\n      mod\n        /* \"#utility.yul\":14922:14936   */\n      swap1\n      pop\n        /* \"#utility.yul\":14766:14942   */\n      swap3\n      swap2\n      pop\n      pop\n      jump\t// out\n        /* \"#utility.yul\":14948:15358   */\n    tag_266:\n        /* \"#utility.yul\":14988:14995   */\n      0x00\n        /* \"#utility.yul\":15011:15031   */\n      tag_546\n        /* \"#utility.yul\":15029:15030   */\n      dup3\n        /* \"#utility.yul\":15011:15031   */\n      tag_340\n      jump\t// in\n    tag_546:\n        /* \"#utility.yul\":15006:15031   */\n      swap2\n      pop\n        /* \"#utility.yul\":15045:15065   */\n      tag_547\n        /* \"#utility.yul\":15063:15064   */\n      dup4\n        /* \"#utility.yul\":15045:15065   */\n      tag_340\n      jump\t// in\n    tag_547:\n        /* \"#utility.yul\":15040:15065   */\n      swap3\n      pop\n        /* \"#utility.yul\":15100:15101   */\n      dup3\n        /* \"#utility.yul\":15097:15098   */\n      dup3\n        /* \"#utility.yul\":15093:15102   */\n      mul\n        /* \"#utility.yul\":15122:15152   */\n      tag_548\n        /* \"#utility.yul\":15140:15151   */\n      dup2\n        /* \"#utility.yul\":15122:15152   */\n      tag_340\n      jump\t// in\n    tag_548:\n        /* \"#utility.yul\":15111:15152   */\n      swap2\n      pop\n        /* \"#utility.yul\":15301:15302   */\n      dup3\n        /* \"#utility.yul\":15292:15299   */\n      dup3\n        /* \"#utility.yul\":15288:15303   */\n      div\n        /* \"#utility.yul\":15285:15286   */\n      dup5\n        /* \"#utility.yul\":15282:15304   */\n      eq\n        /* \"#utility.yul\":15262:15263   */\n      dup4\n        /* \"#utility.yul\":15255:15264   */\n      iszero\n        /* \"#utility.yul\":15235:15318   */\n      or\n        /* \"#utility.yul\":15212:15351   */\n      tag_549\n      jumpi\n        /* \"#utility.yul\":15331:15349   */\n      tag_550\n      tag_362\n      jump\t// in\n    tag_550:\n        /* \"#utility.yul\":15212:15351   */\n    tag_549:\n        /* \"#utility.yul\":14996:15358   */\n      pop\n        /* \"#utility.yul\":14948:15358   */\n      swap3\n      swap2\n      pop\n      pop\n      jump\t// out\n        /* \"#utility.yul\":15364:15549   */\n    tag_269:\n        /* \"#utility.yul\":15404:15405   */\n      0x00\n        /* \"#utility.yul\":15421:15441   */\n      tag_552\n        /* \"#utility.yul\":15439:15440   */\n      dup3\n        /* \"#utility.yul\":15421:15441   */\n      tag_340\n      jump\t// in\n    tag_552:\n        /* \"#utility.yul\":15416:15441   */\n      swap2\n      pop\n        /* \"#utility.yul\":15455:15475   */\n      tag_553\n        /* \"#utility.yul\":15473:15474   */\n      dup4\n        /* \"#utility.yul\":15455:15475   */\n      tag_340\n      jump\t// in\n    tag_553:\n        /* \"#utility.yul\":15450:15475   */\n      swap3\n      pop\n        /* \"#utility.yul\":15494:15495   */\n      dup3\n        /* \"#utility.yul\":15484:15519   */\n      tag_554\n      jumpi\n        /* \"#utility.yul\":15499:15517   */\n      tag_555\n      tag_367\n      jump\t// in\n    tag_555:\n        /* \"#utility.yul\":15484:15519   */\n    tag_554:\n        /* \"#utility.yul\":15541:15542   */\n      dup3\n        /* \"#utility.yul\":15538:15539   */\n      dup3\n        /* \"#utility.yul\":15534:15543   */\n      div\n        /* \"#utility.yul\":15529:15543   */\n      swap1\n      pop\n        /* \"#utility.yul\":15364:15549   */\n      swap3\n      swap2\n      pop\n      pop\n      jump\t// out\n        /* \"#utility.yul\":15555:15653   */\n    tag_368:\n        /* \"#utility.yul\":15606:15612   */\n      0x00\n        /* \"#utility.yul\":15640:15645   */\n      dup2\n        /* \"#utility.yul\":15634:15646   */\n      mload\n        /* \"#utility.yul\":15624:15646   */\n      swap1\n      pop\n        /* \"#utility.yul\":15555:15653   */\n      swap2\n      swap1\n      pop\n      jump\t// out\n        /* \"#utility.yul\":15659:15827   */\n    tag_369:\n        /* \"#utility.yul\":15742:15753   */\n      0x00\n        /* \"#utility.yul\":15776:15782   */\n      dup3\n        /* \"#utility.yul\":15771:15774   */\n      dup3\n        /* \"#utility.yul\":15764:15783   */\n      mstore\n        /* \"#utility.yul\":15816:15820   */\n      0x20\n        /* \"#utility.yul\":15811:15814   */\n      dup3\n        /* \"#utility.yul\":15807:15821   */\n      add\n        /* \"#utility.yul\":15792:15821   */\n      swap1\n      pop\n        /* \"#utility.yul\":15659:15827   */\n      swap3\n      swap2\n      pop\n      pop\n      jump\t// out\n        /* \"#utility.yul\":15833:16206   */\n    tag_370:\n        /* \"#utility.yul\":15919:15922   */\n      0x00\n        /* \"#utility.yul\":15947:15985   */\n      tag_559\n        /* \"#utility.yul\":15979:15984   */\n      dup3\n        /* \"#utility.yul\":15947:15985   */\n      tag_368\n      jump\t// in\n    tag_559:\n        /* \"#utility.yul\":16001:16071   */\n      tag_560\n        /* \"#utility.yul\":16064:16070   */\n      dup2\n        /* \"#utility.yul\":16059:16062   */\n      dup6\n        /* \"#utility.yul\":16001:16071   */\n      tag_369\n      jump\t// in\n    tag_560:\n        /* \"#utility.yul\":15994:16071   */\n      swap4\n      pop\n        /* \"#utility.yul\":16080:16145   */\n      tag_561\n        /* \"#utility.yul\":16138:16144   */\n      dup2\n        /* \"#utility.yul\":16133:16136   */\n      dup6\n        /* \"#utility.yul\":16126:16130   */\n      0x20\n        /* \"#utility.yul\":16119:16124   */\n      dup7\n        /* \"#utility.yul\":16115:16131   */\n      add\n        /* \"#utility.yul\":16080:16145   */\n      tag_337\n      jump\t// in\n    tag_561:\n        /* \"#utility.yul\":16170:16199   */\n      tag_562\n        /* \"#utility.yul\":16192:16198   */\n      dup2\n        /* \"#utility.yul\":16170:16199   */\n      tag_338\n      jump\t// in\n    tag_562:\n        /* \"#utility.yul\":16165:16168   */\n      dup5\n        /* \"#utility.yul\":16161:16200   */\n      add\n        /* \"#utility.yul\":16154:16200   */\n      swap2\n      pop\n        /* \"#utility.yul\":15923:16206   */\n      pop\n        /* \"#utility.yul\":15833:16206   */\n      swap3\n      swap2\n      pop\n      pop\n      jump\t// out\n        /* \"#utility.yul\":16212:16852   */\n    tag_285:\n        /* \"#utility.yul\":16407:16411   */\n      0x00\n        /* \"#utility.yul\":16445:16448   */\n      0x80\n        /* \"#utility.yul\":16434:16443   */\n      dup3\n        /* \"#utility.yul\":16430:16449   */\n      add\n        /* \"#utility.yul\":16422:16449   */\n      swap1\n      pop\n        /* \"#utility.yul\":16459:16530   */\n      tag_564\n        /* \"#utility.yul\":16527:16528   */\n      0x00\n        /* \"#utility.yul\":16516:16525   */\n      dup4\n        /* \"#utility.yul\":16512:16529   */\n      add\n        /* \"#utility.yul\":16503:16509   */\n      dup8\n        /* \"#utility.yul\":16459:16530   */\n      tag_345\n      jump\t// in\n    tag_564:\n        /* \"#utility.yul\":16540:16612   */\n      tag_565\n        /* \"#utility.yul\":16608:16610   */\n      0x20\n        /* \"#utility.yul\":16597:16606   */\n      dup4\n        /* \"#utility.yul\":16593:16611   */\n      add\n        /* \"#utility.yul\":16584:16590   */\n      dup7\n        /* \"#utility.yul\":16540:16612   */\n      tag_345\n      jump\t// in\n    tag_565:\n        /* \"#utility.yul\":16622:16694   */\n      tag_566\n        /* \"#utility.yul\":16690:16692   */\n      0x40\n        /* \"#utility.yul\":16679:16688   */\n      dup4\n        /* \"#utility.yul\":16675:16693   */\n      add\n        /* \"#utility.yul\":16666:16672   */\n      dup6\n        /* \"#utility.yul\":16622:16694   */\n      tag_348\n      jump\t// in\n    tag_566:\n        /* \"#utility.yul\":16741:16750   */\n      dup2\n        /* \"#utility.yul\":16735:16739   */\n      dup2\n        /* \"#utility.yul\":16731:16751   */\n      sub\n        /* \"#utility.yul\":16726:16728   */\n      0x60\n        /* \"#utility.yul\":16715:16724   */\n      dup4\n        /* \"#utility.yul\":16711:16729   */\n      add\n        /* \"#utility.yul\":16704:16752   */\n      mstore\n        /* \"#utility.yul\":16769:16845   */\n      tag_567\n        /* \"#utility.yul\":16840:16844   */\n      dup2\n        /* \"#utility.yul\":16831:16837   */\n      dup5\n        /* \"#utility.yul\":16769:16845   */\n      tag_370\n      jump\t// in\n    tag_567:\n        /* \"#utility.yul\":16761:16845   */\n      swap1\n      pop\n        /* \"#utility.yul\":16212:16852   */\n      swap6\n      swap5\n      pop\n      pop\n      pop\n      pop\n      pop\n      jump\t// out\n        /* \"#utility.yul\":16858:16999   */\n    tag_371:\n        /* \"#utility.yul\":16914:16919   */\n      0x00\n        /* \"#utility.yul\":16945:16951   */\n      dup2\n        /* \"#utility.yul\":16939:16952   */\n      mload\n        /* \"#utility.yul\":16930:16952   */\n      swap1\n      pop\n        /* \"#utility.yul\":16961:16993   */\n      tag_569\n        /* \"#utility.yul\":16987:16992   */\n      dup2\n        /* \"#utility.yul\":16961:16993   */\n      tag_331\n      jump\t// in\n    tag_569:\n        /* \"#utility.yul\":16858:16999   */\n      swap3\n      swap2\n      pop\n      pop\n      jump\t// out\n        /* \"#utility.yul\":17005:17354   */\n    tag_288:\n        /* \"#utility.yul\":17074:17080   */\n      0x00\n        /* \"#utility.yul\":17123:17125   */\n      0x20\n        /* \"#utility.yul\":17111:17120   */\n      dup3\n        /* \"#utility.yul\":17102:17109   */\n      dup5\n        /* \"#utility.yul\":17098:17121   */\n      sub\n        /* \"#utility.yul\":17094:17126   */\n      slt\n        /* \"#utility.yul\":17091:17210   */\n      iszero\n      tag_571\n      jumpi\n        /* \"#utility.yul\":17129:17208   */\n      tag_572\n      tag_328\n      jump\t// in\n    tag_572:\n        /* \"#utility.yul\":17091:17210   */\n    tag_571:\n        /* \"#utility.yul\":17249:17250   */\n      0x00\n        /* \"#utility.yul\":17274:17337   */\n      tag_573\n        /* \"#utility.yul\":17329:17336   */\n      dup5\n        /* \"#utility.yul\":17320:17326   */\n      dup3\n        /* \"#utility.yul\":17309:17318   */\n      dup6\n        /* \"#utility.yul\":17305:17327   */\n      add\n        /* \"#utility.yul\":17274:17337   */\n      tag_371\n      jump\t// in\n    tag_573:\n        /* \"#utility.yul\":17264:17337   */\n      swap2\n      pop\n        /* \"#utility.yul\":17220:17347   */\n      pop\n        /* \"#utility.yul\":17005:17354   */\n      swap3\n      swap2\n      pop\n      pop\n      jump\t// out\n        /* \"#utility.yul\":17360:17554   */\n    tag_300:\n        /* \"#utility.yul\":17400:17404   */\n      0x00\n        /* \"#utility.yul\":17420:17440   */\n      tag_575\n        /* \"#utility.yul\":17438:17439   */\n      dup3\n        /* \"#utility.yul\":17420:17440   */\n      tag_340\n      jump\t// in\n    tag_575:\n        /* \"#utility.yul\":17415:17440   */\n      swap2\n      pop\n        /* \"#utility.yul\":17454:17474   */\n      tag_576\n        /* \"#utility.yul\":17472:17473   */\n      dup4\n        /* \"#utility.yul\":17454:17474   */\n      tag_340\n      jump\t// in\n    tag_576:\n        /* \"#utility.yul\":17449:17474   */\n      swap3\n      pop\n        /* \"#utility.yul\":17498:17499   */\n      dup3\n        /* \"#utility.yul\":17495:17496   */\n      dup3\n        /* \"#utility.yul\":17491:17500   */\n      sub\n        /* \"#utility.yul\":17483:17500   */\n      swap1\n      pop\n        /* \"#utility.yul\":17522:17523   */\n      dup2\n        /* \"#utility.yul\":17516:17520   */\n      dup2\n        /* \"#utility.yul\":17513:17524   */\n      gt\n        /* \"#utility.yul\":17510:17547   */\n      iszero\n      tag_577\n      jumpi\n        /* \"#utility.yul\":17527:17545   */\n      tag_578\n      tag_362\n      jump\t// in\n    tag_578:\n        /* \"#utility.yul\":17510:17547   */\n    tag_577:\n        /* \"#utility.yul\":17360:17554   */\n      swap3\n      swap2\n      pop\n      pop\n      jump\t// out\n        /* \"#utility.yul\":17560:17751   */\n    tag_303:\n        /* \"#utility.yul\":17600:17603   */\n      0x00\n        /* \"#utility.yul\":17619:17639   */\n      tag_580\n        /* \"#utility.yul\":17637:17638   */\n      dup3\n        /* \"#utility.yul\":17619:17639   */\n      tag_340\n      jump\t// in\n    tag_580:\n        /* \"#utility.yul\":17614:17639   */\n      swap2\n      pop\n        /* \"#utility.yul\":17653:17673   */\n      tag_581\n        /* \"#utility.yul\":17671:17672   */\n      dup4\n        /* \"#utility.yul\":17653:17673   */\n      tag_340\n      jump\t// in\n    tag_581:\n        /* \"#utility.yul\":17648:17673   */\n      swap3\n      pop\n        /* \"#utility.yul\":17696:17697   */\n      dup3\n        /* \"#utility.yul\":17693:17694   */\n      dup3\n        /* \"#utility.yul\":17689:17698   */\n      add\n        /* \"#utility.yul\":17682:17698   */\n      swap1\n      pop\n        /* \"#utility.yul\":17717:17720   */\n      dup1\n        /* \"#utility.yul\":17714:17715   */\n      dup3\n        /* \"#utility.yul\":17711:17721   */\n      gt\n        /* \"#utility.yul\":17708:17744   */\n      iszero\n      tag_582\n      jumpi\n        /* \"#utility.yul\":17724:17742   */\n      tag_583\n      tag_362\n      jump\t// in\n    tag_583:\n        /* \"#utility.yul\":17708:17744   */\n    tag_582:\n        /* \"#utility.yul\":17560:17751   */\n      swap3\n      swap2\n      pop\n      pop\n      jump\t// out\n        /* \"#utility.yul\":17757:17990   */\n    tag_310:\n        /* \"#utility.yul\":17796:17799   */\n      0x00\n        /* \"#utility.yul\":17819:17843   */\n      tag_585\n        /* \"#utility.yul\":17837:17842   */\n      dup3\n        /* \"#utility.yul\":17819:17843   */\n      tag_340\n      jump\t// in\n    tag_585:\n        /* \"#utility.yul\":17810:17843   */\n      swap2\n      pop\n        /* \"#utility.yul\":17865:17931   */\n      0xffffffffffffffffffffffffffffffffffffffffffffffffffffffffffffffff\n        /* \"#utility.yul\":17858:17863   */\n      dup3\n        /* \"#utility.yul\":17855:17932   */\n      sub\n        /* \"#utility.yul\":17852:17955   */\n      tag_586\n      jumpi\n        /* \"#utility.yul\":17935:17953   */\n      tag_587\n      tag_362\n      jump\t// in\n    tag_587:\n        /* \"#utility.yul\":17852:17955   */\n    tag_586:\n        /* \"#utility.yul\":17982:17983   */\n      0x01\n        /* \"#utility.yul\":17975:17980   */\n      dup3\n        /* \"#utility.yul\":17971:17984   */\n      add\n        /* \"#utility.yul\":17964:17984   */\n      swap1\n      pop\n        /* \"#utility.yul\":17757:17990   */\n      swap2\n      swap1\n      pop\n      jump\t// out\n        /* \"#utility.yul\":17996:18176   */\n    tag_323:\n        /* \"#utility.yul\":18044:18121   */\n      0x4e487b7100000000000000000000000000000000000000000000000000000000\n        /* \"#utility.yul\":18041:18042   */\n      0x00\n        /* \"#utility.yul\":18034:18122   */\n      mstore\n        /* \"#utility.yul\":18141:18145   */\n      0x32\n        /* \"#utility.yul\":18138:18139   */\n      0x04\n        /* \"#utility.yul\":18131:18146   */\n      mstore\n        /* \"#utility.yul\":18165:18169   */\n      0x24\n        /* \"#utility.yul\":18162:18163   */\n      0x00\n        /* \"#utility.yul\":18155:18170   */\n      revert\n    stop\n    data_d8cc7cbf95b52afa2322fac553d3c4e20f5096fb87da64785a945de91007c7b2 68747470733a2f2f676174657761792e70696e6174612e636c6f75642f697066732f516d654e373753715459457258644d5134684c3431623166614778414b7434515741354e475646755a753978486e2f\n\n    auxdata: 0xa2646970667358221220c1fc3c077d73396daa9e51d3c7215fdbdda6f39047995cd835fb8291e2fdd18d64736f6c63430008110033\n}\n",
				"bytecode": {
					"linkReferences": {},
					"object": "60806040523480156200001157600080fd5b50604051620031503803806200315083398181016040528101906200003791906200027c565b826007908162000048919062000557565b5081600890816200005a919062000557565b5061271060058190555062000074620000a960201b60201c565b60048190555080600081905550674563918244f4000060018190555061b3b0600381905550436002819055505050506200063e565b600090565b6000604051905090565b600080fd5b600080fd5b600080fd5b600080fd5b6000601f19601f8301169050919050565b7f4e487b7100000000000000000000000000000000000000000000000000000000600052604160045260246000fd5b6200011782620000cc565b810181811067ffffffffffffffff82111715620001395762000138620000dd565b5b80604052505050565b60006200014e620000ae565b90506200015c82826200010c565b919050565b600067ffffffffffffffff8211156200017f576200017e620000dd565b5b6200018a82620000cc565b9050602081019050919050565b60005b83811015620001b75780820151818401526020810190506200019a565b60008484015250505050565b6000620001da620001d48462000161565b62000142565b905082815260208101848484011115620001f957620001f8620000c7565b5b6200020684828562000197565b509392505050565b600082601f830112620002265762000225620000c2565b5b815162000238848260208601620001c3565b91505092915050565b6000819050919050565b620002568162000241565b81146200026257600080fd5b50565b60008151905062000276816200024b565b92915050565b600080600060608486031215620002985762000297620000b8565b5b600084015167ffffffffffffffff811115620002b957620002b8620000bd565b5b620002c7868287016200020e565b935050602084015167ffffffffffffffff811115620002eb57620002ea620000bd565b5b620002f9868287016200020e565b92505060406200030c8682870162000265565b9150509250925092565b600081519050919050565b7f4e487b7100000000000000000000000000000000000000000000000000000000600052602260045260246000fd5b600060028204905060018216806200036957607f821691505b6020821081036200037f576200037e62000321565b5b50919050565b60008190508160005260206000209050919050565b60006020601f8301049050919050565b600082821b905092915050565b600060088302620003e97fffffffffffffffffffffffffffffffffffffffffffffffffffffffffffffffff82620003aa565b620003f58683620003aa565b95508019841693508086168417925050509392505050565b6000819050919050565b600062000438620004326200042c8462000241565b6200040d565b62000241565b9050919050565b6000819050919050565b620004548362000417565b6200046c62000463826200043f565b848454620003b7565b825550505050565b600090565b6200048362000474565b6200049081848462000449565b505050565b5b81811015620004b857620004ac60008262000479565b60018101905062000496565b5050565b601f8211156200050757620004d18162000385565b620004dc846200039a565b81016020851015620004ec578190505b62000504620004fb856200039a565b83018262000495565b50505b505050565b600082821c905092915050565b60006200052c600019846008026200050c565b1980831691505092915050565b600062000547838362000519565b9150826002028217905092915050565b620005628262000316565b67ffffffffffffffff8111156200057e576200057d620000dd565b5b6200058a825462000350565b62000597828285620004bc565b600060209050601f831160018114620005cf5760008415620005ba578287015190505b620005c6858262000539565b86555062000636565b601f198416620005df8662000385565b60005b828110156200060957848901518255600182019150602085019450602081019050620005e2565b8683101562000629578489015162000625601f89168262000519565b8355505b6001600288020188555050505b505050505050565b612b02806200064e6000396000f3fe608060405234801561001057600080fd5b50600436106101425760003560e01c8063a22cb465116100b8578063d993226b1161007c578063d993226b1461039b578063db3ad22c146103cb578063e29301f9146103e9578063e8abceee14610419578063e985e9c514610437578063eff0730d1461046757610142565b8063a22cb465146102e5578063b88d4fde14610301578063b8ba60071461031d578063c87b56dd1461034d578063d5abeb011461037d57610142565b806323b872dd1161010a57806323b872dd146101ff57806342842e0e1461021b5780634be3403c146102375780636352211e1461026757806370a082311461029757806395d89b41146102c757610142565b806301ffc9a71461014757806306fdde0314610177578063081812fc14610195578063095ea7b3146101c557806318160ddd146101e1575b600080fd5b610161600480360381019061015c919061201e565b610497565b60405161016e9190612066565b60405180910390f35b61017f610579565b60405161018c9190612111565b60405180910390f35b6101af60048036038101906101aa9190612169565b61060b565b6040516101bc91906121d7565b60405180910390f35b6101df60048036038101906101da919061221e565b610687565b005b6101e961078b565b6040516101f6919061226d565b60405180910390f35b61021960048036038101906102149190612288565b6107a2565b005b61023560048036038101906102309190612288565b6107b2565b005b610251600480360381019061024c9190612169565b6107d2565b60405161025e919061226d565b60405180910390f35b610281600480360381019061027c9190612169565b610843565b60405161028e91906121d7565b60405180910390f35b6102b160048036038101906102ac91906122db565b610859565b6040516102be919061226d565b60405180910390f35b6102cf610928565b6040516102dc9190612111565b60405180910390f35b6102ff60048036038101906102fa9190612334565b6109ba565b005b61031b600480360381019061031691906124a9565b610b31565b005b610337600480360381019061033291906122db565b610ba9565b604051610344919061226d565b60405180910390f35b61036760048036038101906103629190612169565b610da5565b6040516103749190612111565b60405180910390f35b610385610e43565b604051610392919061226d565b60405180910390f35b6103b560048036038101906103b09190612169565b610e5a565b6040516103c2919061226d565b60405180910390f35b6103d3610ea6565b6040516103e0919061226d565b60405180910390f35b61040360048036038101906103fe9190612169565b610eb0565b604051610410919061226d565b60405180910390f35b610421610f12565b60405161042e919061226d565b60405180910390f35b610451600480360381019061044c919061252c565b610f8b565b60405161045e9190612066565b60405180910390f35b610481600480360381019061047c919061221e565b61101f565b60405161048e919061226d565b60405180910390f35b60007f80ac58cd000000000000000000000000000000000000000000000000000000007bffffffffffffffffffffffffffffffffffffffffffffffffffffffff1916827bffffffffffffffffffffffffffffffffffffffffffffffffffffffff1916148061056257507f5b5e139f000000000000000000000000000000000000000000000000000000007bffffffffffffffffffffffffffffffffffffffffffffffffffffffff1916827bffffffffffffffffffffffffffffffffffffffffffffffffffffffff1916145b8061057257506105718261107a565b5b9050919050565b6060600780546105889061259b565b80601f01602080910402602001604051908101604052809291908181526020018280546105b49061259b565b80156106015780601f106105d657610100808354040283529160200191610601565b820191906000526020600020905b8154815290600101906020018083116105e457829003601f168201915b5050505050905090565b6000610616826110e4565b61064c576040517fcf4700e400000000000000000000000000000000000000000000000000000000815260040160405180910390fd5b600b600083815260200190815260200160002060009054906101000a900473ffffffffffffffffffffffffffffffffffffffff169050919050565b600061069282610843565b90508073ffffffffffffffffffffffffffffffffffffffff168373ffffffffffffffffffffffffffffffffffffffff16036106f9576040517f943f7b8c00000000000000000000000000000000000000000000000000000000815260040160405180910390fd5b8073ffffffffffffffffffffffffffffffffffffffff16610718611132565b73ffffffffffffffffffffffffffffffffffffffff161461077b576107448161073f611132565b610f8b565b61077a576040517fcfb3b94200000000000000000000000000000000000000000000000000000000815260040160405180910390fd5b5b61078683838361113a565b505050565b60006107956111ec565b6006546004540303905090565b6107ad8383836111f1565b505050565b6107cd83838360405180602001604052806000815250610b31565b505050565b60006002548210156107e45760025491505b6000610812760a70c3c40a64e6c51999090b65f67d924000000000000060015461198d90919063ffffffff16565b9050600061081f84610e5a565b9050600061083682846119a390919063ffffffff16565b9050809350505050919050565b600061084e826119b9565b600001519050919050565b60008073ffffffffffffffffffffffffffffffffffffffff168273ffffffffffffffffffffffffffffffffffffffff16036108c0576040517f8f4eb60400000000000000000000000000000000000000000000000000000000815260040160405180910390fd5b600a60008373ffffffffffffffffffffffffffffffffffffffff1673ffffffffffffffffffffffffffffffffffffffff16815260200190815260200160002060000160009054906101000a900467ffffffffffffffff1667ffffffffffffffff169050919050565b6060600880546109379061259b565b80601f01602080910402602001604051908101604052809291908181526020018280546109639061259b565b80156109b05780601f10610985576101008083540402835291602001916109b0565b820191906000526020600020905b81548152906001019060200180831161099357829003601f168201915b5050505050905090565b6109c2611132565b73ffffffffffffffffffffffffffffffffffffffff168273ffffffffffffffffffffffffffffffffffffffff1603610a26576040517fb06307db00000000000000000000000000000000000000000000000000000000815260040160405180910390fd5b80600c6000610a33611132565b73ffffffffffffffffffffffffffffffffffffffff1673ffffffffffffffffffffffffffffffffffffffff16815260200190815260200160002060008473ffffffffffffffffffffffffffffffffffffffff1673ffffffffffffffffffffffffffffffffffffffff16815260200190815260200160002060006101000a81548160ff0219169083151502179055508173ffffffffffffffffffffffffffffffffffffffff16610ae0611132565b73ffffffffffffffffffffffffffffffffffffffff167f17307eab39ab6107e8899845ad3d59bd9653f200f220920489ca2b5937696c3183604051610b259190612066565b60405180910390a35050565b610b3c8484846111f1565b610b5b8373ffffffffffffffffffffffffffffffffffffffff16611c44565b15610ba357610b6c84848484611c67565b610ba2576040517fd1a57ed600000000000000000000000000000000000000000000000000000000815260040160405180910390fd5b5b50505050565b600080610c10600d60008573ffffffffffffffffffffffffffffffffffffffff1673ffffffffffffffffffffffffffffffffffffffff1681526020019081526020016000206000600181526020019081526020016000205443611db790919063ffffffff16565b90506000610c6e600d60008673ffffffffffffffffffffffffffffffffffffffff1673ffffffffffffffffffffffffffffffffffffffff168152602001908152602001600020600060018152602001908152602001600020546107d2565b90506000610c7b436107d2565b90506000610cb76002610ca986610c9b8688611dcd90919063ffffffff16565b61198d90919063ffffffff16565b6119a390919063ffffffff16565b90506000610d33600354610d25600d60008b73ffffffffffffffffffffffffffffffffffffffff1673ffffffffffffffffffffffffffffffffffffffff168152602001908152602001600020600060028152602001908152602001600020548561198d90919063ffffffff16565b6119a390919063ffffffff16565b9050610d9981600d60008a73ffffffffffffffffffffffffffffffffffffffff1673ffffffffffffffffffffffffffffffffffffffff16815260200190815260200160002060006003815260200190815260200160002054611dcd90919063ffffffff16565b95505050505050919050565b6060610db0826110e4565b610de6576040517fa14c4b5000000000000000000000000000000000000000000000000000000000815260040160405180910390fd5b6000610df0611de3565b90506000815103610e105760405180602001604052806000815250610e3b565b80610e1a84611e03565b604051602001610e2b929190612608565b6040516020818303038152906040525b915050919050565b6000610e4d6111ec565b6006546005540303905090565b600080610e8c600254610e7e670de0b6b3a76400008661198d90919063ffffffff16565b6119a390919063ffffffff16565b9050600481610e9b919061279b565b905080915050919050565b6000600354905090565b600080610eda83610ecc6000548661198d90919063ffffffff16565b611dcd90919063ffffffff16565b90506000600a82610eeb9190612815565b03610ef95760019050610f09565b600a81610f069190612815565b90505b80915050919050565b600080610f2a60025443611db790919063ffffffff16565b90506000610f396002546107d2565b90506000610f46436107d2565b90506000610f826002610f7486610f668688611dcd90919063ffffffff16565b61198d90919063ffffffff16565b6119a390919063ffffffff16565b90505050505090565b6000600c60008473ffffffffffffffffffffffffffffffffffffffff1673ffffffffffffffffffffffffffffffffffffffff16815260200190815260200160002060008373ffffffffffffffffffffffffffffffffffffffff1673ffffffffffffffffffffffffffffffffffffffff16815260200190815260200160002060009054906101000a900460ff16905092915050565b6000600d60008473ffffffffffffffffffffffffffffffffffffffff1673ffffffffffffffffffffffffffffffffffffffff168152602001908152602001600020600083815260200190815260200160002054905092915050565b60007f01ffc9a7000000000000000000000000000000000000000000000000000000007bffffffffffffffffffffffffffffffffffffffffffffffffffffffff1916827bffffffffffffffffffffffffffffffffffffffffffffffffffffffff1916149050919050565b6000816110ef6111ec565b111580156110fe575060045482105b801561112b575060096000838152602001908152602001600020600001601c9054906101000a900460ff16155b9050919050565b600033905090565b82600b600084815260200190815260200160002060006101000a81548173ffffffffffffffffffffffffffffffffffffffff021916908373ffffffffffffffffffffffffffffffffffffffff160217905550818373ffffffffffffffffffffffffffffffffffffffff168273ffffffffffffffffffffffffffffffffffffffff167f8c5be1e5ebec7d5bd14f71427d1e84f3dd0314c0f7b2291e5b200ac8c7c3b92560405160405180910390a4505050565b600090565b60006111fc82610eb0565b905061120784610ba9565b600d60008673ffffffffffffffffffffffffffffffffffffffff1673ffffffffffffffffffffffffffffffffffffffff168152602001908152602001600020600060038152602001908152602001600020819055506112c081600d60008773ffffffffffffffffffffffffffffffffffffffff1673ffffffffffffffffffffffffffffffffffffffff16815260200190815260200160002060006002815260200190815260200160002054611db790919063ffffffff16565b600d60008673ffffffffffffffffffffffffffffffffffffffff1673ffffffffffffffffffffffffffffffffffffffff1681526020019081526020016000206000600281526020019081526020016000208190555043600d60008673ffffffffffffffffffffffffffffffffffffffff1673ffffffffffffffffffffffffffffffffffffffff1681526020019081526020016000206000600181526020019081526020016000208190555061137483610ba9565b600d60008573ffffffffffffffffffffffffffffffffffffffff1673ffffffffffffffffffffffffffffffffffffffff1681526020019081526020016000206000600381526020019081526020016000208190555061142d81600d60008673ffffffffffffffffffffffffffffffffffffffff1673ffffffffffffffffffffffffffffffffffffffff16815260200190815260200160002060006002815260200190815260200160002054611dcd90919063ffffffff16565b600d60008573ffffffffffffffffffffffffffffffffffffffff1673ffffffffffffffffffffffffffffffffffffffff1681526020019081526020016000206000600281526020019081526020016000208190555043600d60008573ffffffffffffffffffffffffffffffffffffffff1673ffffffffffffffffffffffffffffffffffffffff1681526020019081526020016000206000600181526020019081526020016000208190555060006114e3836119b9565b90508473ffffffffffffffffffffffffffffffffffffffff16816000015173ffffffffffffffffffffffffffffffffffffffff161461154e576040517fa114810000000000000000000000000000000000000000000000000000000000815260040160405180910390fd5b60008573ffffffffffffffffffffffffffffffffffffffff1661156f611132565b73ffffffffffffffffffffffffffffffffffffffff16148061159e575061159d86611598611132565b610f8b565b5b806115e357506115ac611132565b73ffffffffffffffffffffffffffffffffffffffff166115cb8561060b565b73ffffffffffffffffffffffffffffffffffffffff16145b90508061161c576040517f59c896be00000000000000000000000000000000000000000000000000000000815260040160405180910390fd5b600073ffffffffffffffffffffffffffffffffffffffff168573ffffffffffffffffffffffffffffffffffffffff1603611682576040517fea553b3400000000000000000000000000000000000000000000000000000000815260040160405180910390fd5b61168f8686866001611f63565b61169b6000858861113a565b6001600a60008873ffffffffffffffffffffffffffffffffffffffff1673ffffffffffffffffffffffffffffffffffffffff16815260200190815260200160002060000160008282829054906101000a900467ffffffffffffffff160392506101000a81548167ffffffffffffffff021916908367ffffffffffffffff1602179055506001600a60008773ffffffffffffffffffffffffffffffffffffffff1673ffffffffffffffffffffffffffffffffffffffff16815260200190815260200160002060000160008282829054906101000a900467ffffffffffffffff160192506101000a81548167ffffffffffffffff021916908367ffffffffffffffff1602179055506000600960008681526020019081526020016000209050858160000160006101000a81548173ffffffffffffffffffffffffffffffffffffffff021916908373ffffffffffffffffffffffffffffffffffffffff160217905550428160000160146101000a81548167ffffffffffffffff021916908367ffffffffffffffff16021790555060006001860190506000600960008381526020019081526020016000209050600073ffffffffffffffffffffffffffffffffffffffff168160000160009054906101000a900473ffffffffffffffffffffffffffffffffffffffff1673ffffffffffffffffffffffffffffffffffffffff160361191a57600454821461191957888160000160006101000a81548173ffffffffffffffffffffffffffffffffffffffff021916908373ffffffffffffffffffffffffffffffffffffffff16021790555084602001518160000160146101000a81548167ffffffffffffffff021916908367ffffffffffffffff1602179055505b5b505050838573ffffffffffffffffffffffffffffffffffffffff168773ffffffffffffffffffffffffffffffffffffffff167fddf252ad1be2c89b69c2b068fc378daa952ba7f163c4a11628f55a4df523b3ef60405160405180910390a46119858686866001611f69565b505050505050565b6000818361199b9190612846565b905092915050565b600081836119b19190612888565b905092915050565b6119c1611f6f565b6000829050806119cf6111ec565b11611c0d57600454811015611c0c576000600960008381526020019081526020016000206040518060600160405290816000820160009054906101000a900473ffffffffffffffffffffffffffffffffffffffff1673ffffffffffffffffffffffffffffffffffffffff1673ffffffffffffffffffffffffffffffffffffffff1681526020016000820160149054906101000a900467ffffffffffffffff1667ffffffffffffffff1667ffffffffffffffff16815260200160008201601c9054906101000a900460ff16151515158152505090508060400151611c0a57600073ffffffffffffffffffffffffffffffffffffffff16816000015173ffffffffffffffffffffffffffffffffffffffff1614611aee578092505050611c3f565b5b600115611c0957818060019003925050600960008381526020019081526020016000206040518060600160405290816000820160009054906101000a900473ffffffffffffffffffffffffffffffffffffffff1673ffffffffffffffffffffffffffffffffffffffff1673ffffffffffffffffffffffffffffffffffffffff1681526020016000820160149054906101000a900467ffffffffffffffff1667ffffffffffffffff1667ffffffffffffffff16815260200160008201601c9054906101000a900460ff1615151515815250509050600073ffffffffffffffffffffffffffffffffffffffff16816000015173ffffffffffffffffffffffffffffffffffffffff1614611c04578092505050611c3f565b611aef565b5b505b5b6040517fdf2d9b4200000000000000000000000000000000000000000000000000000000815260040160405180910390fd5b919050565b6000808273ffffffffffffffffffffffffffffffffffffffff163b119050919050565b60008373ffffffffffffffffffffffffffffffffffffffff1663150b7a02611c8d611132565b8786866040518563ffffffff1660e01b8152600401611caf949392919061290e565b6020604051808303816000875af1925050508015611ceb57506040513d601f19601f82011682018060405250810190611ce8919061296f565b60015b611d64573d8060008114611d1b576040519150601f19603f3d011682016040523d82523d6000602084013e611d20565b606091505b506000815103611d5c576040517fd1a57ed600000000000000000000000000000000000000000000000000000000815260040160405180910390fd5b805181602001fd5b63150b7a0260e01b7bffffffffffffffffffffffffffffffffffffffffffffffffffffffff1916817bffffffffffffffffffffffffffffffffffffffffffffffffffffffff191614915050949350505050565b60008183611dc5919061299c565b905092915050565b60008183611ddb91906129d0565b905092915050565b6060604051806080016040528060518152602001612a7c60519139905090565b606060008203611e4a576040518060400160405280600181526020017f30000000000000000000000000000000000000000000000000000000000000008152509050611f5e565b600082905060005b60008214611e7c578080611e6590612a04565b915050600a82611e759190612888565b9150611e52565b60008167ffffffffffffffff811115611e9857611e9761237e565b5b6040519080825280601f01601f191660200182016040528015611eca5781602001600182028036833780820191505090505b5090505b60008514611f5757600182611ee3919061299c565b9150600a85611ef29190612815565b6030611efe91906129d0565b60f81b818381518110611f1457611f13612a4c565b5b60200101907effffffffffffffffffffffffffffffffffffffffffffffffffffffffffffff1916908160001a905350600a85611f509190612888565b9450611ece565b8093505050505b919050565b50505050565b50505050565b6040518060600160405280600073ffffffffffffffffffffffffffffffffffffffff168152602001600067ffffffffffffffff1681526020016000151581525090565b6000604051905090565b600080fd5b600080fd5b60007fffffffff0000000000000000000000000000000000000000000000000000000082169050919050565b611ffb81611fc6565b811461200657600080fd5b50565b60008135905061201881611ff2565b92915050565b60006020828403121561203457612033611fbc565b5b600061204284828501612009565b91505092915050565b60008115159050919050565b6120608161204b565b82525050565b600060208201905061207b6000830184612057565b92915050565b600081519050919050565b600082825260208201905092915050565b60005b838110156120bb5780820151818401526020810190506120a0565b60008484015250505050565b6000601f19601f8301169050919050565b60006120e382612081565b6120ed818561208c565b93506120fd81856020860161209d565b612106816120c7565b840191505092915050565b6000602082019050818103600083015261212b81846120d8565b905092915050565b6000819050919050565b61214681612133565b811461215157600080fd5b50565b6000813590506121638161213d565b92915050565b60006020828403121561217f5761217e611fbc565b5b600061218d84828501612154565b91505092915050565b600073ffffffffffffffffffffffffffffffffffffffff82169050919050565b60006121c182612196565b9050919050565b6121d1816121b6565b82525050565b60006020820190506121ec60008301846121c8565b92915050565b6121fb816121b6565b811461220657600080fd5b50565b600081359050612218816121f2565b92915050565b6000806040838503121561223557612234611fbc565b5b600061224385828601612209565b925050602061225485828601612154565b9150509250929050565b61226781612133565b82525050565b6000602082019050612282600083018461225e565b92915050565b6000806000606084860312156122a1576122a0611fbc565b5b60006122af86828701612209565b93505060206122c086828701612209565b92505060406122d186828701612154565b9150509250925092565b6000602082840312156122f1576122f0611fbc565b5b60006122ff84828501612209565b91505092915050565b6123118161204b565b811461231c57600080fd5b50565b60008135905061232e81612308565b92915050565b6000806040838503121561234b5761234a611fbc565b5b600061235985828601612209565b925050602061236a8582860161231f565b9150509250929050565b600080fd5b600080fd5b7f4e487b7100000000000000000000000000000000000000000000000000000000600052604160045260246000fd5b6123b6826120c7565b810181811067ffffffffffffffff821117156123d5576123d461237e565b5b80604052505050565b60006123e8611fb2565b90506123f482826123ad565b919050565b600067ffffffffffffffff8211156124145761241361237e565b5b61241d826120c7565b9050602081019050919050565b82818337600083830152505050565b600061244c612447846123f9565b6123de565b90508281526020810184848401111561246857612467612379565b5b61247384828561242a565b509392505050565b600082601f8301126124905761248f612374565b5b81356124a0848260208601612439565b91505092915050565b600080600080608085870312156124c3576124c2611fbc565b5b60006124d187828801612209565b94505060206124e287828801612209565b93505060406124f387828801612154565b925050606085013567ffffffffffffffff81111561251457612513611fc1565b5b6125208782880161247b565b91505092959194509250565b6000806040838503121561254357612542611fbc565b5b600061255185828601612209565b925050602061256285828601612209565b9150509250929050565b7f4e487b7100000000000000000000000000000000000000000000000000000000600052602260045260246000fd5b600060028204905060018216806125b357607f821691505b6020821081036125c6576125c561256c565b5b50919050565b600081905092915050565b60006125e282612081565b6125ec81856125cc565b93506125fc81856020860161209d565b80840191505092915050565b600061261482856125d7565b915061262082846125d7565b91508190509392505050565b7f4e487b7100000000000000000000000000000000000000000000000000000000600052601160045260246000fd5b60008160011c9050919050565b6000808291508390505b60018511156126b25780860481111561268e5761268d61262c565b5b600185161561269d5780820291505b80810290506126ab8561265b565b9450612672565b94509492505050565b6000826126cb5760019050612787565b816126d95760009050612787565b81600181146126ef57600281146126f957612728565b6001915050612787565b60ff84111561270b5761270a61262c565b5b8360020a9150848211156127225761272161262c565b5b50612787565b5060208310610133831016604e8410600b841016171561275d5782820a9050838111156127585761275761262c565b5b612787565b61276a8484846001612668565b925090508184048111156127815761278061262c565b5b81810290505b9392505050565b600060ff82169050919050565b60006127a682612133565b91506127b18361278e565b92506127de7fffffffffffffffffffffffffffffffffffffffffffffffffffffffffffffffff84846126bb565b905092915050565b7f4e487b7100000000000000000000000000000000000000000000000000000000600052601260045260246000fd5b600061282082612133565b915061282b83612133565b92508261283b5761283a6127e6565b5b828206905092915050565b600061285182612133565b915061285c83612133565b925082820261286a81612133565b915082820484148315176128815761288061262c565b5b5092915050565b600061289382612133565b915061289e83612133565b9250826128ae576128ad6127e6565b5b828204905092915050565b600081519050919050565b600082825260208201905092915050565b60006128e0826128b9565b6128ea81856128c4565b93506128fa81856020860161209d565b612903816120c7565b840191505092915050565b600060808201905061292360008301876121c8565b61293060208301866121c8565b61293d604083018561225e565b818103606083015261294f81846128d5565b905095945050505050565b60008151905061296981611ff2565b92915050565b60006020828403121561298557612984611fbc565b5b60006129938482850161295a565b91505092915050565b60006129a782612133565b91506129b283612133565b92508282039050818111156129ca576129c961262c565b5b92915050565b60006129db82612133565b91506129e683612133565b92508282019050808211156129fe576129fd61262c565b5b92915050565b6000612a0f82612133565b91507fffffffffffffffffffffffffffffffffffffffffffffffffffffffffffffffff8203612a4157612a4061262c565b5b600182019050919050565b7f4e487b7100000000000000000000000000000000000000000000000000000000600052603260045260246000fdfe68747470733a2f2f676174657761792e70696e6174612e636c6f75642f697066732f516d654e373753715459457258644d5134684c3431623166614778414b7434515741354e475646755a753978486e2fa2646970667358221220c1fc3c077d73396daa9e51d3c7215fdbdda6f39047995cd835fb8291e2fdd18d64736f6c63430008110033",
					"opcodes": "PUSH1 0x80 PUSH1 0x40 MSTORE CALLVALUE DUP1 ISZERO PUSH3 0x11 JUMPI PUSH1 0x0 DUP1 REVERT JUMPDEST POP PUSH1 0x40 MLOAD PUSH3 0x3150 CODESIZE SUB DUP1 PUSH3 0x3150 DUP4 CODECOPY DUP2 DUP2 ADD PUSH1 0x40 MSTORE DUP2 ADD SWAP1 PUSH3 0x37 SWAP2 SWAP1 PUSH3 0x27C JUMP JUMPDEST DUP3 PUSH1 0x7 SWAP1 DUP2 PUSH3 0x48 SWAP2 SWAP1 PUSH3 0x557 JUMP JUMPDEST POP DUP2 PUSH1 0x8 SWAP1 DUP2 PUSH3 0x5A SWAP2 SWAP1 PUSH3 0x557 JUMP JUMPDEST POP PUSH2 0x2710 PUSH1 0x5 DUP2 SWAP1 SSTORE POP PUSH3 0x74 PUSH3 0xA9 PUSH1 0x20 SHL PUSH1 0x20 SHR JUMP JUMPDEST PUSH1 0x4 DUP2 SWAP1 SSTORE POP DUP1 PUSH1 0x0 DUP2 SWAP1 SSTORE POP PUSH8 0x4563918244F40000 PUSH1 0x1 DUP2 SWAP1 SSTORE POP PUSH2 0xB3B0 PUSH1 0x3 DUP2 SWAP1 SSTORE POP NUMBER PUSH1 0x2 DUP2 SWAP1 SSTORE POP POP POP POP PUSH3 0x63E JUMP JUMPDEST PUSH1 0x0 SWAP1 JUMP JUMPDEST PUSH1 0x0 PUSH1 0x40 MLOAD SWAP1 POP SWAP1 JUMP JUMPDEST PUSH1 0x0 DUP1 REVERT JUMPDEST PUSH1 0x0 DUP1 REVERT JUMPDEST PUSH1 0x0 DUP1 REVERT JUMPDEST PUSH1 0x0 DUP1 REVERT JUMPDEST PUSH1 0x0 PUSH1 0x1F NOT PUSH1 0x1F DUP4 ADD AND SWAP1 POP SWAP2 SWAP1 POP JUMP JUMPDEST PUSH32 0x4E487B7100000000000000000000000000000000000000000000000000000000 PUSH1 0x0 MSTORE PUSH1 0x41 PUSH1 0x4 MSTORE PUSH1 0x24 PUSH1 0x0 REVERT JUMPDEST PUSH3 0x117 DUP3 PUSH3 0xCC JUMP JUMPDEST DUP2 ADD DUP2 DUP2 LT PUSH8 0xFFFFFFFFFFFFFFFF DUP3 GT OR ISZERO PUSH3 0x139 JUMPI PUSH3 0x138 PUSH3 0xDD JUMP JUMPDEST JUMPDEST DUP1 PUSH1 0x40 MSTORE POP POP POP JUMP JUMPDEST PUSH1 0x0 PUSH3 0x14E PUSH3 0xAE JUMP JUMPDEST SWAP1 POP PUSH3 0x15C DUP3 DUP3 PUSH3 0x10C JUMP JUMPDEST SWAP2 SWAP1 POP JUMP JUMPDEST PUSH1 0x0 PUSH8 0xFFFFFFFFFFFFFFFF DUP3 GT ISZERO PUSH3 0x17F JUMPI PUSH3 0x17E PUSH3 0xDD JUMP JUMPDEST JUMPDEST PUSH3 0x18A DUP3 PUSH3 0xCC JUMP JUMPDEST SWAP1 POP PUSH1 0x20 DUP2 ADD SWAP1 POP SWAP2 SWAP1 POP JUMP JUMPDEST PUSH1 0x0 JUMPDEST DUP4 DUP2 LT ISZERO PUSH3 0x1B7 JUMPI DUP1 DUP3 ADD MLOAD DUP2 DUP5 ADD MSTORE PUSH1 0x20 DUP2 ADD SWAP1 POP PUSH3 0x19A JUMP JUMPDEST PUSH1 0x0 DUP5 DUP5 ADD MSTORE POP POP POP POP JUMP JUMPDEST PUSH1 0x0 PUSH3 0x1DA PUSH3 0x1D4 DUP5 PUSH3 0x161 JUMP JUMPDEST PUSH3 0x142 JUMP JUMPDEST SWAP1 POP DUP3 DUP2 MSTORE PUSH1 0x20 DUP2 ADD DUP5 DUP5 DUP5 ADD GT ISZERO PUSH3 0x1F9 JUMPI PUSH3 0x1F8 PUSH3 0xC7 JUMP JUMPDEST JUMPDEST PUSH3 0x206 DUP5 DUP3 DUP6 PUSH3 0x197 JUMP JUMPDEST POP SWAP4 SWAP3 POP POP POP JUMP JUMPDEST PUSH1 0x0 DUP3 PUSH1 0x1F DUP4 ADD SLT PUSH3 0x226 JUMPI PUSH3 0x225 PUSH3 0xC2 JUMP JUMPDEST JUMPDEST DUP2 MLOAD PUSH3 0x238 DUP5 DUP3 PUSH1 0x20 DUP7 ADD PUSH3 0x1C3 JUMP JUMPDEST SWAP2 POP POP SWAP3 SWAP2 POP POP JUMP JUMPDEST PUSH1 0x0 DUP2 SWAP1 POP SWAP2 SWAP1 POP JUMP JUMPDEST PUSH3 0x256 DUP2 PUSH3 0x241 JUMP JUMPDEST DUP2 EQ PUSH3 0x262 JUMPI PUSH1 0x0 DUP1 REVERT JUMPDEST POP JUMP JUMPDEST PUSH1 0x0 DUP2 MLOAD SWAP1 POP PUSH3 0x276 DUP2 PUSH3 0x24B JUMP JUMPDEST SWAP3 SWAP2 POP POP JUMP JUMPDEST PUSH1 0x0 DUP1 PUSH1 0x0 PUSH1 0x60 DUP5 DUP7 SUB SLT ISZERO PUSH3 0x298 JUMPI PUSH3 0x297 PUSH3 0xB8 JUMP JUMPDEST JUMPDEST PUSH1 0x0 DUP5 ADD MLOAD PUSH8 0xFFFFFFFFFFFFFFFF DUP2 GT ISZERO PUSH3 0x2B9 JUMPI PUSH3 0x2B8 PUSH3 0xBD JUMP JUMPDEST JUMPDEST PUSH3 0x2C7 DUP7 DUP3 DUP8 ADD PUSH3 0x20E JUMP JUMPDEST SWAP4 POP POP PUSH1 0x20 DUP5 ADD MLOAD PUSH8 0xFFFFFFFFFFFFFFFF DUP2 GT ISZERO PUSH3 0x2EB JUMPI PUSH3 0x2EA PUSH3 0xBD JUMP JUMPDEST JUMPDEST PUSH3 0x2F9 DUP7 DUP3 DUP8 ADD PUSH3 0x20E JUMP JUMPDEST SWAP3 POP POP PUSH1 0x40 PUSH3 0x30C DUP7 DUP3 DUP8 ADD PUSH3 0x265 JUMP JUMPDEST SWAP2 POP POP SWAP3 POP SWAP3 POP SWAP3 JUMP JUMPDEST PUSH1 0x0 DUP2 MLOAD SWAP1 POP SWAP2 SWAP1 POP JUMP JUMPDEST PUSH32 0x4E487B7100000000000000000000000000000000000000000000000000000000 PUSH1 0x0 MSTORE PUSH1 0x22 PUSH1 0x4 MSTORE PUSH1 0x24 PUSH1 0x0 REVERT JUMPDEST PUSH1 0x0 PUSH1 0x2 DUP3 DIV SWAP1 POP PUSH1 0x1 DUP3 AND DUP1 PUSH3 0x369 JUMPI PUSH1 0x7F DUP3 AND SWAP2 POP JUMPDEST PUSH1 0x20 DUP3 LT DUP2 SUB PUSH3 0x37F JUMPI PUSH3 0x37E PUSH3 0x321 JUMP JUMPDEST JUMPDEST POP SWAP2 SWAP1 POP JUMP JUMPDEST PUSH1 0x0 DUP2 SWAP1 POP DUP2 PUSH1 0x0 MSTORE PUSH1 0x20 PUSH1 0x0 KECCAK256 SWAP1 POP SWAP2 SWAP1 POP JUMP JUMPDEST PUSH1 0x0 PUSH1 0x20 PUSH1 0x1F DUP4 ADD DIV SWAP1 POP SWAP2 SWAP1 POP JUMP JUMPDEST PUSH1 0x0 DUP3 DUP3 SHL SWAP1 POP SWAP3 SWAP2 POP POP JUMP JUMPDEST PUSH1 0x0 PUSH1 0x8 DUP4 MUL PUSH3 0x3E9 PUSH32 0xFFFFFFFFFFFFFFFFFFFFFFFFFFFFFFFFFFFFFFFFFFFFFFFFFFFFFFFFFFFFFFFF DUP3 PUSH3 0x3AA JUMP JUMPDEST PUSH3 0x3F5 DUP7 DUP4 PUSH3 0x3AA JUMP JUMPDEST SWAP6 POP DUP1 NOT DUP5 AND SWAP4 POP DUP1 DUP7 AND DUP5 OR SWAP3 POP POP POP SWAP4 SWAP3 POP POP POP JUMP JUMPDEST PUSH1 0x0 DUP2 SWAP1 POP SWAP2 SWAP1 POP JUMP JUMPDEST PUSH1 0x0 PUSH3 0x438 PUSH3 0x432 PUSH3 0x42C DUP5 PUSH3 0x241 JUMP JUMPDEST PUSH3 0x40D JUMP JUMPDEST PUSH3 0x241 JUMP JUMPDEST SWAP1 POP SWAP2 SWAP1 POP JUMP JUMPDEST PUSH1 0x0 DUP2 SWAP1 POP SWAP2 SWAP1 POP JUMP JUMPDEST PUSH3 0x454 DUP4 PUSH3 0x417 JUMP JUMPDEST PUSH3 0x46C PUSH3 0x463 DUP3 PUSH3 0x43F JUMP JUMPDEST DUP5 DUP5 SLOAD PUSH3 0x3B7 JUMP JUMPDEST DUP3 SSTORE POP POP POP POP JUMP JUMPDEST PUSH1 0x0 SWAP1 JUMP JUMPDEST PUSH3 0x483 PUSH3 0x474 JUMP JUMPDEST PUSH3 0x490 DUP2 DUP5 DUP5 PUSH3 0x449 JUMP JUMPDEST POP POP POP JUMP JUMPDEST JUMPDEST DUP2 DUP2 LT ISZERO PUSH3 0x4B8 JUMPI PUSH3 0x4AC PUSH1 0x0 DUP3 PUSH3 0x479 JUMP JUMPDEST PUSH1 0x1 DUP2 ADD SWAP1 POP PUSH3 0x496 JUMP JUMPDEST POP POP JUMP JUMPDEST PUSH1 0x1F DUP3 GT ISZERO PUSH3 0x507 JUMPI PUSH3 0x4D1 DUP2 PUSH3 0x385 JUMP JUMPDEST PUSH3 0x4DC DUP5 PUSH3 0x39A JUMP JUMPDEST DUP2 ADD PUSH1 0x20 DUP6 LT ISZERO PUSH3 0x4EC JUMPI DUP2 SWAP1 POP JUMPDEST PUSH3 0x504 PUSH3 0x4FB DUP6 PUSH3 0x39A JUMP JUMPDEST DUP4 ADD DUP3 PUSH3 0x495 JUMP JUMPDEST POP POP JUMPDEST POP POP POP JUMP JUMPDEST PUSH1 0x0 DUP3 DUP3 SHR SWAP1 POP SWAP3 SWAP2 POP POP JUMP JUMPDEST PUSH1 0x0 PUSH3 0x52C PUSH1 0x0 NOT DUP5 PUSH1 0x8 MUL PUSH3 0x50C JUMP JUMPDEST NOT DUP1 DUP4 AND SWAP2 POP POP SWAP3 SWAP2 POP POP JUMP JUMPDEST PUSH1 0x0 PUSH3 0x547 DUP4 DUP4 PUSH3 0x519 JUMP JUMPDEST SWAP2 POP DUP3 PUSH1 0x2 MUL DUP3 OR SWAP1 POP SWAP3 SWAP2 POP POP JUMP JUMPDEST PUSH3 0x562 DUP3 PUSH3 0x316 JUMP JUMPDEST PUSH8 0xFFFFFFFFFFFFFFFF DUP2 GT ISZERO PUSH3 0x57E JUMPI PUSH3 0x57D PUSH3 0xDD JUMP JUMPDEST JUMPDEST PUSH3 0x58A DUP3 SLOAD PUSH3 0x350 JUMP JUMPDEST PUSH3 0x597 DUP3 DUP3 DUP6 PUSH3 0x4BC JUMP JUMPDEST PUSH1 0x0 PUSH1 0x20 SWAP1 POP PUSH1 0x1F DUP4 GT PUSH1 0x1 DUP2 EQ PUSH3 0x5CF JUMPI PUSH1 0x0 DUP5 ISZERO PUSH3 0x5BA JUMPI DUP3 DUP8 ADD MLOAD SWAP1 POP JUMPDEST PUSH3 0x5C6 DUP6 DUP3 PUSH3 0x539 JUMP JUMPDEST DUP7 SSTORE POP PUSH3 0x636 JUMP JUMPDEST PUSH1 0x1F NOT DUP5 AND PUSH3 0x5DF DUP7 PUSH3 0x385 JUMP JUMPDEST PUSH1 0x0 JUMPDEST DUP3 DUP2 LT ISZERO PUSH3 0x609 JUMPI DUP5 DUP10 ADD MLOAD DUP3 SSTORE PUSH1 0x1 DUP3 ADD SWAP2 POP PUSH1 0x20 DUP6 ADD SWAP5 POP PUSH1 0x20 DUP2 ADD SWAP1 POP PUSH3 0x5E2 JUMP JUMPDEST DUP7 DUP4 LT ISZERO PUSH3 0x629 JUMPI DUP5 DUP10 ADD MLOAD PUSH3 0x625 PUSH1 0x1F DUP10 AND DUP3 PUSH3 0x519 JUMP JUMPDEST DUP4 SSTORE POP JUMPDEST PUSH1 0x1 PUSH1 0x2 DUP9 MUL ADD DUP9 SSTORE POP POP POP JUMPDEST POP POP POP POP POP POP JUMP JUMPDEST PUSH2 0x2B02 DUP1 PUSH3 0x64E PUSH1 0x0 CODECOPY PUSH1 0x0 RETURN INVALID PUSH1 0x80 PUSH1 0x40 MSTORE CALLVALUE DUP1 ISZERO PUSH2 0x10 JUMPI PUSH1 0x0 DUP1 REVERT JUMPDEST POP PUSH1 0x4 CALLDATASIZE LT PUSH2 0x142 JUMPI PUSH1 0x0 CALLDATALOAD PUSH1 0xE0 SHR DUP1 PUSH4 0xA22CB465 GT PUSH2 0xB8 JUMPI DUP1 PUSH4 0xD993226B GT PUSH2 0x7C JUMPI DUP1 PUSH4 0xD993226B EQ PUSH2 0x39B JUMPI DUP1 PUSH4 0xDB3AD22C EQ PUSH2 0x3CB JUMPI DUP1 PUSH4 0xE29301F9 EQ PUSH2 0x3E9 JUMPI DUP1 PUSH4 0xE8ABCEEE EQ PUSH2 0x419 JUMPI DUP1 PUSH4 0xE985E9C5 EQ PUSH2 0x437 JUMPI DUP1 PUSH4 0xEFF0730D EQ PUSH2 0x467 JUMPI PUSH2 0x142 JUMP JUMPDEST DUP1 PUSH4 0xA22CB465 EQ PUSH2 0x2E5 JUMPI DUP1 PUSH4 0xB88D4FDE EQ PUSH2 0x301 JUMPI DUP1 PUSH4 0xB8BA6007 EQ PUSH2 0x31D JUMPI DUP1 PUSH4 0xC87B56DD EQ PUSH2 0x34D JUMPI DUP1 PUSH4 0xD5ABEB01 EQ PUSH2 0x37D JUMPI PUSH2 0x142 JUMP JUMPDEST DUP1 PUSH4 0x23B872DD GT PUSH2 0x10A JUMPI DUP1 PUSH4 0x23B872DD EQ PUSH2 0x1FF JUMPI DUP1 PUSH4 0x42842E0E EQ PUSH2 0x21B JUMPI DUP1 PUSH4 0x4BE3403C EQ PUSH2 0x237 JUMPI DUP1 PUSH4 0x6352211E EQ PUSH2 0x267 JUMPI DUP1 PUSH4 0x70A08231 EQ PUSH2 0x297 JUMPI DUP1 PUSH4 0x95D89B41 EQ PUSH2 0x2C7 JUMPI PUSH2 0x142 JUMP JUMPDEST DUP1 PUSH4 0x1FFC9A7 EQ PUSH2 0x147 JUMPI DUP1 PUSH4 0x6FDDE03 EQ PUSH2 0x177 JUMPI DUP1 PUSH4 0x81812FC EQ PUSH2 0x195 JUMPI DUP1 PUSH4 0x95EA7B3 EQ PUSH2 0x1C5 JUMPI DUP1 PUSH4 0x18160DDD EQ PUSH2 0x1E1 JUMPI JUMPDEST PUSH1 0x0 DUP1 REVERT JUMPDEST PUSH2 0x161 PUSH1 0x4 DUP1 CALLDATASIZE SUB DUP2 ADD SWAP1 PUSH2 0x15C SWAP2 SWAP1 PUSH2 0x201E JUMP JUMPDEST PUSH2 0x497 JUMP JUMPDEST PUSH1 0x40 MLOAD PUSH2 0x16E SWAP2 SWAP1 PUSH2 0x2066 JUMP JUMPDEST PUSH1 0x40 MLOAD DUP1 SWAP2 SUB SWAP1 RETURN JUMPDEST PUSH2 0x17F PUSH2 0x579 JUMP JUMPDEST PUSH1 0x40 MLOAD PUSH2 0x18C SWAP2 SWAP1 PUSH2 0x2111 JUMP JUMPDEST PUSH1 0x40 MLOAD DUP1 SWAP2 SUB SWAP1 RETURN JUMPDEST PUSH2 0x1AF PUSH1 0x4 DUP1 CALLDATASIZE SUB DUP2 ADD SWAP1 PUSH2 0x1AA SWAP2 SWAP1 PUSH2 0x2169 JUMP JUMPDEST PUSH2 0x60B JUMP JUMPDEST PUSH1 0x40 MLOAD PUSH2 0x1BC SWAP2 SWAP1 PUSH2 0x21D7 JUMP JUMPDEST PUSH1 0x40 MLOAD DUP1 SWAP2 SUB SWAP1 RETURN JUMPDEST PUSH2 0x1DF PUSH1 0x4 DUP1 CALLDATASIZE SUB DUP2 ADD SWAP1 PUSH2 0x1DA SWAP2 SWAP1 PUSH2 0x221E JUMP JUMPDEST PUSH2 0x687 JUMP JUMPDEST STOP JUMPDEST PUSH2 0x1E9 PUSH2 0x78B JUMP JUMPDEST PUSH1 0x40 MLOAD PUSH2 0x1F6 SWAP2 SWAP1 PUSH2 0x226D JUMP JUMPDEST PUSH1 0x40 MLOAD DUP1 SWAP2 SUB SWAP1 RETURN JUMPDEST PUSH2 0x219 PUSH1 0x4 DUP1 CALLDATASIZE SUB DUP2 ADD SWAP1 PUSH2 0x214 SWAP2 SWAP1 PUSH2 0x2288 JUMP JUMPDEST PUSH2 0x7A2 JUMP JUMPDEST STOP JUMPDEST PUSH2 0x235 PUSH1 0x4 DUP1 CALLDATASIZE SUB DUP2 ADD SWAP1 PUSH2 0x230 SWAP2 SWAP1 PUSH2 0x2288 JUMP JUMPDEST PUSH2 0x7B2 JUMP JUMPDEST STOP JUMPDEST PUSH2 0x251 PUSH1 0x4 DUP1 CALLDATASIZE SUB DUP2 ADD SWAP1 PUSH2 0x24C SWAP2 SWAP1 PUSH2 0x2169 JUMP JUMPDEST PUSH2 0x7D2 JUMP JUMPDEST PUSH1 0x40 MLOAD PUSH2 0x25E SWAP2 SWAP1 PUSH2 0x226D JUMP JUMPDEST PUSH1 0x40 MLOAD DUP1 SWAP2 SUB SWAP1 RETURN JUMPDEST PUSH2 0x281 PUSH1 0x4 DUP1 CALLDATASIZE SUB DUP2 ADD SWAP1 PUSH2 0x27C SWAP2 SWAP1 PUSH2 0x2169 JUMP JUMPDEST PUSH2 0x843 JUMP JUMPDEST PUSH1 0x40 MLOAD PUSH2 0x28E SWAP2 SWAP1 PUSH2 0x21D7 JUMP JUMPDEST PUSH1 0x40 MLOAD DUP1 SWAP2 SUB SWAP1 RETURN JUMPDEST PUSH2 0x2B1 PUSH1 0x4 DUP1 CALLDATASIZE SUB DUP2 ADD SWAP1 PUSH2 0x2AC SWAP2 SWAP1 PUSH2 0x22DB JUMP JUMPDEST PUSH2 0x859 JUMP JUMPDEST PUSH1 0x40 MLOAD PUSH2 0x2BE SWAP2 SWAP1 PUSH2 0x226D JUMP JUMPDEST PUSH1 0x40 MLOAD DUP1 SWAP2 SUB SWAP1 RETURN JUMPDEST PUSH2 0x2CF PUSH2 0x928 JUMP JUMPDEST PUSH1 0x40 MLOAD PUSH2 0x2DC SWAP2 SWAP1 PUSH2 0x2111 JUMP JUMPDEST PUSH1 0x40 MLOAD DUP1 SWAP2 SUB SWAP1 RETURN JUMPDEST PUSH2 0x2FF PUSH1 0x4 DUP1 CALLDATASIZE SUB DUP2 ADD SWAP1 PUSH2 0x2FA SWAP2 SWAP1 PUSH2 0x2334 JUMP JUMPDEST PUSH2 0x9BA JUMP JUMPDEST STOP JUMPDEST PUSH2 0x31B PUSH1 0x4 DUP1 CALLDATASIZE SUB DUP2 ADD SWAP1 PUSH2 0x316 SWAP2 SWAP1 PUSH2 0x24A9 JUMP JUMPDEST PUSH2 0xB31 JUMP JUMPDEST STOP JUMPDEST PUSH2 0x337 PUSH1 0x4 DUP1 CALLDATASIZE SUB DUP2 ADD SWAP1 PUSH2 0x332 SWAP2 SWAP1 PUSH2 0x22DB JUMP JUMPDEST PUSH2 0xBA9 JUMP JUMPDEST PUSH1 0x40 MLOAD PUSH2 0x344 SWAP2 SWAP1 PUSH2 0x226D JUMP JUMPDEST PUSH1 0x40 MLOAD DUP1 SWAP2 SUB SWAP1 RETURN JUMPDEST PUSH2 0x367 PUSH1 0x4 DUP1 CALLDATASIZE SUB DUP2 ADD SWAP1 PUSH2 0x362 SWAP2 SWAP1 PUSH2 0x2169 JUMP JUMPDEST PUSH2 0xDA5 JUMP JUMPDEST PUSH1 0x40 MLOAD PUSH2 0x374 SWAP2 SWAP1 PUSH2 0x2111 JUMP JUMPDEST PUSH1 0x40 MLOAD DUP1 SWAP2 SUB SWAP1 RETURN JUMPDEST PUSH2 0x385 PUSH2 0xE43 JUMP JUMPDEST PUSH1 0x40 MLOAD PUSH2 0x392 SWAP2 SWAP1 PUSH2 0x226D JUMP JUMPDEST PUSH1 0x40 MLOAD DUP1 SWAP2 SUB SWAP1 RETURN JUMPDEST PUSH2 0x3B5 PUSH1 0x4 DUP1 CALLDATASIZE SUB DUP2 ADD SWAP1 PUSH2 0x3B0 SWAP2 SWAP1 PUSH2 0x2169 JUMP JUMPDEST PUSH2 0xE5A JUMP JUMPDEST PUSH1 0x40 MLOAD PUSH2 0x3C2 SWAP2 SWAP1 PUSH2 0x226D JUMP JUMPDEST PUSH1 0x40 MLOAD DUP1 SWAP2 SUB SWAP1 RETURN JUMPDEST PUSH2 0x3D3 PUSH2 0xEA6 JUMP JUMPDEST PUSH1 0x40 MLOAD PUSH2 0x3E0 SWAP2 SWAP1 PUSH2 0x226D JUMP JUMPDEST PUSH1 0x40 MLOAD DUP1 SWAP2 SUB SWAP1 RETURN JUMPDEST PUSH2 0x403 PUSH1 0x4 DUP1 CALLDATASIZE SUB DUP2 ADD SWAP1 PUSH2 0x3FE SWAP2 SWAP1 PUSH2 0x2169 JUMP JUMPDEST PUSH2 0xEB0 JUMP JUMPDEST PUSH1 0x40 MLOAD PUSH2 0x410 SWAP2 SWAP1 PUSH2 0x226D JUMP JUMPDEST PUSH1 0x40 MLOAD DUP1 SWAP2 SUB SWAP1 RETURN JUMPDEST PUSH2 0x421 PUSH2 0xF12 JUMP JUMPDEST PUSH1 0x40 MLOAD PUSH2 0x42E SWAP2 SWAP1 PUSH2 0x226D JUMP JUMPDEST PUSH1 0x40 MLOAD DUP1 SWAP2 SUB SWAP1 RETURN JUMPDEST PUSH2 0x451 PUSH1 0x4 DUP1 CALLDATASIZE SUB DUP2 ADD SWAP1 PUSH2 0x44C SWAP2 SWAP1 PUSH2 0x252C JUMP JUMPDEST PUSH2 0xF8B JUMP JUMPDEST PUSH1 0x40 MLOAD PUSH2 0x45E SWAP2 SWAP1 PUSH2 0x2066 JUMP JUMPDEST PUSH1 0x40 MLOAD DUP1 SWAP2 SUB SWAP1 RETURN JUMPDEST PUSH2 0x481 PUSH1 0x4 DUP1 CALLDATASIZE SUB DUP2 ADD SWAP1 PUSH2 0x47C SWAP2 SWAP1 PUSH2 0x221E JUMP JUMPDEST PUSH2 0x101F JUMP JUMPDEST PUSH1 0x40 MLOAD PUSH2 0x48E SWAP2 SWAP1 PUSH2 0x226D JUMP JUMPDEST PUSH1 0x40 MLOAD DUP1 SWAP2 SUB SWAP1 RETURN JUMPDEST PUSH1 0x0 PUSH32 0x80AC58CD00000000000000000000000000000000000000000000000000000000 PUSH28 0xFFFFFFFFFFFFFFFFFFFFFFFFFFFFFFFFFFFFFFFFFFFFFFFFFFFFFFFF NOT AND DUP3 PUSH28 0xFFFFFFFFFFFFFFFFFFFFFFFFFFFFFFFFFFFFFFFFFFFFFFFFFFFFFFFF NOT AND EQ DUP1 PUSH2 0x562 JUMPI POP PUSH32 0x5B5E139F00000000000000000000000000000000000000000000000000000000 PUSH28 0xFFFFFFFFFFFFFFFFFFFFFFFFFFFFFFFFFFFFFFFFFFFFFFFFFFFFFFFF NOT AND DUP3 PUSH28 0xFFFFFFFFFFFFFFFFFFFFFFFFFFFFFFFFFFFFFFFFFFFFFFFFFFFFFFFF NOT AND EQ JUMPDEST DUP1 PUSH2 0x572 JUMPI POP PUSH2 0x571 DUP3 PUSH2 0x107A JUMP JUMPDEST JUMPDEST SWAP1 POP SWAP2 SWAP1 POP JUMP JUMPDEST PUSH1 0x60 PUSH1 0x7 DUP1 SLOAD PUSH2 0x588 SWAP1 PUSH2 0x259B JUMP JUMPDEST DUP1 PUSH1 0x1F ADD PUSH1 0x20 DUP1 SWAP2 DIV MUL PUSH1 0x20 ADD PUSH1 0x40 MLOAD SWAP1 DUP2 ADD PUSH1 0x40 MSTORE DUP1 SWAP3 SWAP2 SWAP1 DUP2 DUP2 MSTORE PUSH1 0x20 ADD DUP3 DUP1 SLOAD PUSH2 0x5B4 SWAP1 PUSH2 0x259B JUMP JUMPDEST DUP1 ISZERO PUSH2 0x601 JUMPI DUP1 PUSH1 0x1F LT PUSH2 0x5D6 JUMPI PUSH2 0x100 DUP1 DUP4 SLOAD DIV MUL DUP4 MSTORE SWAP2 PUSH1 0x20 ADD SWAP2 PUSH2 0x601 JUMP JUMPDEST DUP3 ADD SWAP2 SWAP1 PUSH1 0x0 MSTORE PUSH1 0x20 PUSH1 0x0 KECCAK256 SWAP1 JUMPDEST DUP2 SLOAD DUP2 MSTORE SWAP1 PUSH1 0x1 ADD SWAP1 PUSH1 0x20 ADD DUP1 DUP4 GT PUSH2 0x5E4 JUMPI DUP3 SWAP1 SUB PUSH1 0x1F AND DUP3 ADD SWAP2 JUMPDEST POP POP POP POP POP SWAP1 POP SWAP1 JUMP JUMPDEST PUSH1 0x0 PUSH2 0x616 DUP3 PUSH2 0x10E4 JUMP JUMPDEST PUSH2 0x64C JUMPI PUSH1 0x40 MLOAD PUSH32 0xCF4700E400000000000000000000000000000000000000000000000000000000 DUP2 MSTORE PUSH1 0x4 ADD PUSH1 0x40 MLOAD DUP1 SWAP2 SUB SWAP1 REVERT JUMPDEST PUSH1 0xB PUSH1 0x0 DUP4 DUP2 MSTORE PUSH1 0x20 ADD SWAP1 DUP2 MSTORE PUSH1 0x20 ADD PUSH1 0x0 KECCAK256 PUSH1 0x0 SWAP1 SLOAD SWAP1 PUSH2 0x100 EXP SWAP1 DIV PUSH20 0xFFFFFFFFFFFFFFFFFFFFFFFFFFFFFFFFFFFFFFFF AND SWAP1 POP SWAP2 SWAP1 POP JUMP JUMPDEST PUSH1 0x0 PUSH2 0x692 DUP3 PUSH2 0x843 JUMP JUMPDEST SWAP1 POP DUP1 PUSH20 0xFFFFFFFFFFFFFFFFFFFFFFFFFFFFFFFFFFFFFFFF AND DUP4 PUSH20 0xFFFFFFFFFFFFFFFFFFFFFFFFFFFFFFFFFFFFFFFF AND SUB PUSH2 0x6F9 JUMPI PUSH1 0x40 MLOAD PUSH32 0x943F7B8C00000000000000000000000000000000000000000000000000000000 DUP2 MSTORE PUSH1 0x4 ADD PUSH1 0x40 MLOAD DUP1 SWAP2 SUB SWAP1 REVERT JUMPDEST DUP1 PUSH20 0xFFFFFFFFFFFFFFFFFFFFFFFFFFFFFFFFFFFFFFFF AND PUSH2 0x718 PUSH2 0x1132 JUMP JUMPDEST PUSH20 0xFFFFFFFFFFFFFFFFFFFFFFFFFFFFFFFFFFFFFFFF AND EQ PUSH2 0x77B JUMPI PUSH2 0x744 DUP2 PUSH2 0x73F PUSH2 0x1132 JUMP JUMPDEST PUSH2 0xF8B JUMP JUMPDEST PUSH2 0x77A JUMPI PUSH1 0x40 MLOAD PUSH32 0xCFB3B94200000000000000000000000000000000000000000000000000000000 DUP2 MSTORE PUSH1 0x4 ADD PUSH1 0x40 MLOAD DUP1 SWAP2 SUB SWAP1 REVERT JUMPDEST JUMPDEST PUSH2 0x786 DUP4 DUP4 DUP4 PUSH2 0x113A JUMP JUMPDEST POP POP POP JUMP JUMPDEST PUSH1 0x0 PUSH2 0x795 PUSH2 0x11EC JUMP JUMPDEST PUSH1 0x6 SLOAD PUSH1 0x4 SLOAD SUB SUB SWAP1 POP SWAP1 JUMP JUMPDEST PUSH2 0x7AD DUP4 DUP4 DUP4 PUSH2 0x11F1 JUMP JUMPDEST POP POP POP JUMP JUMPDEST PUSH2 0x7CD DUP4 DUP4 DUP4 PUSH1 0x40 MLOAD DUP1 PUSH1 0x20 ADD PUSH1 0x40 MSTORE DUP1 PUSH1 0x0 DUP2 MSTORE POP PUSH2 0xB31 JUMP JUMPDEST POP POP POP JUMP JUMPDEST PUSH1 0x0 PUSH1 0x2 SLOAD DUP3 LT ISZERO PUSH2 0x7E4 JUMPI PUSH1 0x2 SLOAD SWAP2 POP JUMPDEST PUSH1 0x0 PUSH2 0x812 PUSH23 0xA70C3C40A64E6C51999090B65F67D9240000000000000 PUSH1 0x1 SLOAD PUSH2 0x198D SWAP1 SWAP2 SWAP1 PUSH4 0xFFFFFFFF AND JUMP JUMPDEST SWAP1 POP PUSH1 0x0 PUSH2 0x81F DUP5 PUSH2 0xE5A JUMP JUMPDEST SWAP1 POP PUSH1 0x0 PUSH2 0x836 DUP3 DUP5 PUSH2 0x19A3 SWAP1 SWAP2 SWAP1 PUSH4 0xFFFFFFFF AND JUMP JUMPDEST SWAP1 POP DUP1 SWAP4 POP POP POP POP SWAP2 SWAP1 POP JUMP JUMPDEST PUSH1 0x0 PUSH2 0x84E DUP3 PUSH2 0x19B9 JUMP JUMPDEST PUSH1 0x0 ADD MLOAD SWAP1 POP SWAP2 SWAP1 POP JUMP JUMPDEST PUSH1 0x0 DUP1 PUSH20 0xFFFFFFFFFFFFFFFFFFFFFFFFFFFFFFFFFFFFFFFF AND DUP3 PUSH20 0xFFFFFFFFFFFFFFFFFFFFFFFFFFFFFFFFFFFFFFFF AND SUB PUSH2 0x8C0 JUMPI PUSH1 0x40 MLOAD PUSH32 0x8F4EB60400000000000000000000000000000000000000000000000000000000 DUP2 MSTORE PUSH1 0x4 ADD PUSH1 0x40 MLOAD DUP1 SWAP2 SUB SWAP1 REVERT JUMPDEST PUSH1 0xA PUSH1 0x0 DUP4 PUSH20 0xFFFFFFFFFFFFFFFFFFFFFFFFFFFFFFFFFFFFFFFF AND PUSH20 0xFFFFFFFFFFFFFFFFFFFFFFFFFFFFFFFFFFFFFFFF AND DUP2 MSTORE PUSH1 0x20 ADD SWAP1 DUP2 MSTORE PUSH1 0x20 ADD PUSH1 0x0 KECCAK256 PUSH1 0x0 ADD PUSH1 0x0 SWAP1 SLOAD SWAP1 PUSH2 0x100 EXP SWAP1 DIV PUSH8 0xFFFFFFFFFFFFFFFF AND PUSH8 0xFFFFFFFFFFFFFFFF AND SWAP1 POP SWAP2 SWAP1 POP JUMP JUMPDEST PUSH1 0x60 PUSH1 0x8 DUP1 SLOAD PUSH2 0x937 SWAP1 PUSH2 0x259B JUMP JUMPDEST DUP1 PUSH1 0x1F ADD PUSH1 0x20 DUP1 SWAP2 DIV MUL PUSH1 0x20 ADD PUSH1 0x40 MLOAD SWAP1 DUP2 ADD PUSH1 0x40 MSTORE DUP1 SWAP3 SWAP2 SWAP1 DUP2 DUP2 MSTORE PUSH1 0x20 ADD DUP3 DUP1 SLOAD PUSH2 0x963 SWAP1 PUSH2 0x259B JUMP JUMPDEST DUP1 ISZERO PUSH2 0x9B0 JUMPI DUP1 PUSH1 0x1F LT PUSH2 0x985 JUMPI PUSH2 0x100 DUP1 DUP4 SLOAD DIV MUL DUP4 MSTORE SWAP2 PUSH1 0x20 ADD SWAP2 PUSH2 0x9B0 JUMP JUMPDEST DUP3 ADD SWAP2 SWAP1 PUSH1 0x0 MSTORE PUSH1 0x20 PUSH1 0x0 KECCAK256 SWAP1 JUMPDEST DUP2 SLOAD DUP2 MSTORE SWAP1 PUSH1 0x1 ADD SWAP1 PUSH1 0x20 ADD DUP1 DUP4 GT PUSH2 0x993 JUMPI DUP3 SWAP1 SUB PUSH1 0x1F AND DUP3 ADD SWAP2 JUMPDEST POP POP POP POP POP SWAP1 POP SWAP1 JUMP JUMPDEST PUSH2 0x9C2 PUSH2 0x1132 JUMP JUMPDEST PUSH20 0xFFFFFFFFFFFFFFFFFFFFFFFFFFFFFFFFFFFFFFFF AND DUP3 PUSH20 0xFFFFFFFFFFFFFFFFFFFFFFFFFFFFFFFFFFFFFFFF AND SUB PUSH2 0xA26 JUMPI PUSH1 0x40 MLOAD PUSH32 0xB06307DB00000000000000000000000000000000000000000000000000000000 DUP2 MSTORE PUSH1 0x4 ADD PUSH1 0x40 MLOAD DUP1 SWAP2 SUB SWAP1 REVERT JUMPDEST DUP1 PUSH1 0xC PUSH1 0x0 PUSH2 0xA33 PUSH2 0x1132 JUMP JUMPDEST PUSH20 0xFFFFFFFFFFFFFFFFFFFFFFFFFFFFFFFFFFFFFFFF AND PUSH20 0xFFFFFFFFFFFFFFFFFFFFFFFFFFFFFFFFFFFFFFFF AND DUP2 MSTORE PUSH1 0x20 ADD SWAP1 DUP2 MSTORE PUSH1 0x20 ADD PUSH1 0x0 KECCAK256 PUSH1 0x0 DUP5 PUSH20 0xFFFFFFFFFFFFFFFFFFFFFFFFFFFFFFFFFFFFFFFF AND PUSH20 0xFFFFFFFFFFFFFFFFFFFFFFFFFFFFFFFFFFFFFFFF AND DUP2 MSTORE PUSH1 0x20 ADD SWAP1 DUP2 MSTORE PUSH1 0x20 ADD PUSH1 0x0 KECCAK256 PUSH1 0x0 PUSH2 0x100 EXP DUP2 SLOAD DUP2 PUSH1 0xFF MUL NOT AND SWAP1 DUP4 ISZERO ISZERO MUL OR SWAP1 SSTORE POP DUP2 PUSH20 0xFFFFFFFFFFFFFFFFFFFFFFFFFFFFFFFFFFFFFFFF AND PUSH2 0xAE0 PUSH2 0x1132 JUMP JUMPDEST PUSH20 0xFFFFFFFFFFFFFFFFFFFFFFFFFFFFFFFFFFFFFFFF AND PUSH32 0x17307EAB39AB6107E8899845AD3D59BD9653F200F220920489CA2B5937696C31 DUP4 PUSH1 0x40 MLOAD PUSH2 0xB25 SWAP2 SWAP1 PUSH2 0x2066 JUMP JUMPDEST PUSH1 0x40 MLOAD DUP1 SWAP2 SUB SWAP1 LOG3 POP POP JUMP JUMPDEST PUSH2 0xB3C DUP5 DUP5 DUP5 PUSH2 0x11F1 JUMP JUMPDEST PUSH2 0xB5B DUP4 PUSH20 0xFFFFFFFFFFFFFFFFFFFFFFFFFFFFFFFFFFFFFFFF AND PUSH2 0x1C44 JUMP JUMPDEST ISZERO PUSH2 0xBA3 JUMPI PUSH2 0xB6C DUP5 DUP5 DUP5 DUP5 PUSH2 0x1C67 JUMP JUMPDEST PUSH2 0xBA2 JUMPI PUSH1 0x40 MLOAD PUSH32 0xD1A57ED600000000000000000000000000000000000000000000000000000000 DUP2 MSTORE PUSH1 0x4 ADD PUSH1 0x40 MLOAD DUP1 SWAP2 SUB SWAP1 REVERT JUMPDEST JUMPDEST POP POP POP POP JUMP JUMPDEST PUSH1 0x0 DUP1 PUSH2 0xC10 PUSH1 0xD PUSH1 0x0 DUP6 PUSH20 0xFFFFFFFFFFFFFFFFFFFFFFFFFFFFFFFFFFFFFFFF AND PUSH20 0xFFFFFFFFFFFFFFFFFFFFFFFFFFFFFFFFFFFFFFFF AND DUP2 MSTORE PUSH1 0x20 ADD SWAP1 DUP2 MSTORE PUSH1 0x20 ADD PUSH1 0x0 KECCAK256 PUSH1 0x0 PUSH1 0x1 DUP2 MSTORE PUSH1 0x20 ADD SWAP1 DUP2 MSTORE PUSH1 0x20 ADD PUSH1 0x0 KECCAK256 SLOAD NUMBER PUSH2 0x1DB7 SWAP1 SWAP2 SWAP1 PUSH4 0xFFFFFFFF AND JUMP JUMPDEST SWAP1 POP PUSH1 0x0 PUSH2 0xC6E PUSH1 0xD PUSH1 0x0 DUP7 PUSH20 0xFFFFFFFFFFFFFFFFFFFFFFFFFFFFFFFFFFFFFFFF AND PUSH20 0xFFFFFFFFFFFFFFFFFFFFFFFFFFFFFFFFFFFFFFFF AND DUP2 MSTORE PUSH1 0x20 ADD SWAP1 DUP2 MSTORE PUSH1 0x20 ADD PUSH1 0x0 KECCAK256 PUSH1 0x0 PUSH1 0x1 DUP2 MSTORE PUSH1 0x20 ADD SWAP1 DUP2 MSTORE PUSH1 0x20 ADD PUSH1 0x0 KECCAK256 SLOAD PUSH2 0x7D2 JUMP JUMPDEST SWAP1 POP PUSH1 0x0 PUSH2 0xC7B NUMBER PUSH2 0x7D2 JUMP JUMPDEST SWAP1 POP PUSH1 0x0 PUSH2 0xCB7 PUSH1 0x2 PUSH2 0xCA9 DUP7 PUSH2 0xC9B DUP7 DUP9 PUSH2 0x1DCD SWAP1 SWAP2 SWAP1 PUSH4 0xFFFFFFFF AND JUMP JUMPDEST PUSH2 0x198D SWAP1 SWAP2 SWAP1 PUSH4 0xFFFFFFFF AND JUMP JUMPDEST PUSH2 0x19A3 SWAP1 SWAP2 SWAP1 PUSH4 0xFFFFFFFF AND JUMP JUMPDEST SWAP1 POP PUSH1 0x0 PUSH2 0xD33 PUSH1 0x3 SLOAD PUSH2 0xD25 PUSH1 0xD PUSH1 0x0 DUP12 PUSH20 0xFFFFFFFFFFFFFFFFFFFFFFFFFFFFFFFFFFFFFFFF AND PUSH20 0xFFFFFFFFFFFFFFFFFFFFFFFFFFFFFFFFFFFFFFFF AND DUP2 MSTORE PUSH1 0x20 ADD SWAP1 DUP2 MSTORE PUSH1 0x20 ADD PUSH1 0x0 KECCAK256 PUSH1 0x0 PUSH1 0x2 DUP2 MSTORE PUSH1 0x20 ADD SWAP1 DUP2 MSTORE PUSH1 0x20 ADD PUSH1 0x0 KECCAK256 SLOAD DUP6 PUSH2 0x198D SWAP1 SWAP2 SWAP1 PUSH4 0xFFFFFFFF AND JUMP JUMPDEST PUSH2 0x19A3 SWAP1 SWAP2 SWAP1 PUSH4 0xFFFFFFFF AND JUMP JUMPDEST SWAP1 POP PUSH2 0xD99 DUP2 PUSH1 0xD PUSH1 0x0 DUP11 PUSH20 0xFFFFFFFFFFFFFFFFFFFFFFFFFFFFFFFFFFFFFFFF AND PUSH20 0xFFFFFFFFFFFFFFFFFFFFFFFFFFFFFFFFFFFFFFFF AND DUP2 MSTORE PUSH1 0x20 ADD SWAP1 DUP2 MSTORE PUSH1 0x20 ADD PUSH1 0x0 KECCAK256 PUSH1 0x0 PUSH1 0x3 DUP2 MSTORE PUSH1 0x20 ADD SWAP1 DUP2 MSTORE PUSH1 0x20 ADD PUSH1 0x0 KECCAK256 SLOAD PUSH2 0x1DCD SWAP1 SWAP2 SWAP1 PUSH4 0xFFFFFFFF AND JUMP JUMPDEST SWAP6 POP POP POP POP POP POP SWAP2 SWAP1 POP JUMP JUMPDEST PUSH1 0x60 PUSH2 0xDB0 DUP3 PUSH2 0x10E4 JUMP JUMPDEST PUSH2 0xDE6 JUMPI PUSH1 0x40 MLOAD PUSH32 0xA14C4B5000000000000000000000000000000000000000000000000000000000 DUP2 MSTORE PUSH1 0x4 ADD PUSH1 0x40 MLOAD DUP1 SWAP2 SUB SWAP1 REVERT JUMPDEST PUSH1 0x0 PUSH2 0xDF0 PUSH2 0x1DE3 JUMP JUMPDEST SWAP1 POP PUSH1 0x0 DUP2 MLOAD SUB PUSH2 0xE10 JUMPI PUSH1 0x40 MLOAD DUP1 PUSH1 0x20 ADD PUSH1 0x40 MSTORE DUP1 PUSH1 0x0 DUP2 MSTORE POP PUSH2 0xE3B JUMP JUMPDEST DUP1 PUSH2 0xE1A DUP5 PUSH2 0x1E03 JUMP JUMPDEST PUSH1 0x40 MLOAD PUSH1 0x20 ADD PUSH2 0xE2B SWAP3 SWAP2 SWAP1 PUSH2 0x2608 JUMP JUMPDEST PUSH1 0x40 MLOAD PUSH1 0x20 DUP2 DUP4 SUB SUB DUP2 MSTORE SWAP1 PUSH1 0x40 MSTORE JUMPDEST SWAP2 POP POP SWAP2 SWAP1 POP JUMP JUMPDEST PUSH1 0x0 PUSH2 0xE4D PUSH2 0x11EC JUMP JUMPDEST PUSH1 0x6 SLOAD PUSH1 0x5 SLOAD SUB SUB SWAP1 POP SWAP1 JUMP JUMPDEST PUSH1 0x0 DUP1 PUSH2 0xE8C PUSH1 0x2 SLOAD PUSH2 0xE7E PUSH8 0xDE0B6B3A7640000 DUP7 PUSH2 0x198D SWAP1 SWAP2 SWAP1 PUSH4 0xFFFFFFFF AND JUMP JUMPDEST PUSH2 0x19A3 SWAP1 SWAP2 SWAP1 PUSH4 0xFFFFFFFF AND JUMP JUMPDEST SWAP1 POP PUSH1 0x4 DUP2 PUSH2 0xE9B SWAP2 SWAP1 PUSH2 0x279B JUMP JUMPDEST SWAP1 POP DUP1 SWAP2 POP POP SWAP2 SWAP1 POP JUMP JUMPDEST PUSH1 0x0 PUSH1 0x3 SLOAD SWAP1 POP SWAP1 JUMP JUMPDEST PUSH1 0x0 DUP1 PUSH2 0xEDA DUP4 PUSH2 0xECC PUSH1 0x0 SLOAD DUP7 PUSH2 0x198D SWAP1 SWAP2 SWAP1 PUSH4 0xFFFFFFFF AND JUMP JUMPDEST PUSH2 0x1DCD SWAP1 SWAP2 SWAP1 PUSH4 0xFFFFFFFF AND JUMP JUMPDEST SWAP1 POP PUSH1 0x0 PUSH1 0xA DUP3 PUSH2 0xEEB SWAP2 SWAP1 PUSH2 0x2815 JUMP JUMPDEST SUB PUSH2 0xEF9 JUMPI PUSH1 0x1 SWAP1 POP PUSH2 0xF09 JUMP JUMPDEST PUSH1 0xA DUP2 PUSH2 0xF06 SWAP2 SWAP1 PUSH2 0x2815 JUMP JUMPDEST SWAP1 POP JUMPDEST DUP1 SWAP2 POP POP SWAP2 SWAP1 POP JUMP JUMPDEST PUSH1 0x0 DUP1 PUSH2 0xF2A PUSH1 0x2 SLOAD NUMBER PUSH2 0x1DB7 SWAP1 SWAP2 SWAP1 PUSH4 0xFFFFFFFF AND JUMP JUMPDEST SWAP1 POP PUSH1 0x0 PUSH2 0xF39 PUSH1 0x2 SLOAD PUSH2 0x7D2 JUMP JUMPDEST SWAP1 POP PUSH1 0x0 PUSH2 0xF46 NUMBER PUSH2 0x7D2 JUMP JUMPDEST SWAP1 POP PUSH1 0x0 PUSH2 0xF82 PUSH1 0x2 PUSH2 0xF74 DUP7 PUSH2 0xF66 DUP7 DUP9 PUSH2 0x1DCD SWAP1 SWAP2 SWAP1 PUSH4 0xFFFFFFFF AND JUMP JUMPDEST PUSH2 0x198D SWAP1 SWAP2 SWAP1 PUSH4 0xFFFFFFFF AND JUMP JUMPDEST PUSH2 0x19A3 SWAP1 SWAP2 SWAP1 PUSH4 0xFFFFFFFF AND JUMP JUMPDEST SWAP1 POP POP POP POP POP SWAP1 JUMP JUMPDEST PUSH1 0x0 PUSH1 0xC PUSH1 0x0 DUP5 PUSH20 0xFFFFFFFFFFFFFFFFFFFFFFFFFFFFFFFFFFFFFFFF AND PUSH20 0xFFFFFFFFFFFFFFFFFFFFFFFFFFFFFFFFFFFFFFFF AND DUP2 MSTORE PUSH1 0x20 ADD SWAP1 DUP2 MSTORE PUSH1 0x20 ADD PUSH1 0x0 KECCAK256 PUSH1 0x0 DUP4 PUSH20 0xFFFFFFFFFFFFFFFFFFFFFFFFFFFFFFFFFFFFFFFF AND PUSH20 0xFFFFFFFFFFFFFFFFFFFFFFFFFFFFFFFFFFFFFFFF AND DUP2 MSTORE PUSH1 0x20 ADD SWAP1 DUP2 MSTORE PUSH1 0x20 ADD PUSH1 0x0 KECCAK256 PUSH1 0x0 SWAP1 SLOAD SWAP1 PUSH2 0x100 EXP SWAP1 DIV PUSH1 0xFF AND SWAP1 POP SWAP3 SWAP2 POP POP JUMP JUMPDEST PUSH1 0x0 PUSH1 0xD PUSH1 0x0 DUP5 PUSH20 0xFFFFFFFFFFFFFFFFFFFFFFFFFFFFFFFFFFFFFFFF AND PUSH20 0xFFFFFFFFFFFFFFFFFFFFFFFFFFFFFFFFFFFFFFFF AND DUP2 MSTORE PUSH1 0x20 ADD SWAP1 DUP2 MSTORE PUSH1 0x20 ADD PUSH1 0x0 KECCAK256 PUSH1 0x0 DUP4 DUP2 MSTORE PUSH1 0x20 ADD SWAP1 DUP2 MSTORE PUSH1 0x20 ADD PUSH1 0x0 KECCAK256 SLOAD SWAP1 POP SWAP3 SWAP2 POP POP JUMP JUMPDEST PUSH1 0x0 PUSH32 0x1FFC9A700000000000000000000000000000000000000000000000000000000 PUSH28 0xFFFFFFFFFFFFFFFFFFFFFFFFFFFFFFFFFFFFFFFFFFFFFFFFFFFFFFFF NOT AND DUP3 PUSH28 0xFFFFFFFFFFFFFFFFFFFFFFFFFFFFFFFFFFFFFFFFFFFFFFFFFFFFFFFF NOT AND EQ SWAP1 POP SWAP2 SWAP1 POP JUMP JUMPDEST PUSH1 0x0 DUP2 PUSH2 0x10EF PUSH2 0x11EC JUMP JUMPDEST GT ISZERO DUP1 ISZERO PUSH2 0x10FE JUMPI POP PUSH1 0x4 SLOAD DUP3 LT JUMPDEST DUP1 ISZERO PUSH2 0x112B JUMPI POP PUSH1 0x9 PUSH1 0x0 DUP4 DUP2 MSTORE PUSH1 0x20 ADD SWAP1 DUP2 MSTORE PUSH1 0x20 ADD PUSH1 0x0 KECCAK256 PUSH1 0x0 ADD PUSH1 0x1C SWAP1 SLOAD SWAP1 PUSH2 0x100 EXP SWAP1 DIV PUSH1 0xFF AND ISZERO JUMPDEST SWAP1 POP SWAP2 SWAP1 POP JUMP JUMPDEST PUSH1 0x0 CALLER SWAP1 POP SWAP1 JUMP JUMPDEST DUP3 PUSH1 0xB PUSH1 0x0 DUP5 DUP2 MSTORE PUSH1 0x20 ADD SWAP1 DUP2 MSTORE PUSH1 0x20 ADD PUSH1 0x0 KECCAK256 PUSH1 0x0 PUSH2 0x100 EXP DUP2 SLOAD DUP2 PUSH20 0xFFFFFFFFFFFFFFFFFFFFFFFFFFFFFFFFFFFFFFFF MUL NOT AND SWAP1 DUP4 PUSH20 0xFFFFFFFFFFFFFFFFFFFFFFFFFFFFFFFFFFFFFFFF AND MUL OR SWAP1 SSTORE POP DUP2 DUP4 PUSH20 0xFFFFFFFFFFFFFFFFFFFFFFFFFFFFFFFFFFFFFFFF AND DUP3 PUSH20 0xFFFFFFFFFFFFFFFFFFFFFFFFFFFFFFFFFFFFFFFF AND PUSH32 0x8C5BE1E5EBEC7D5BD14F71427D1E84F3DD0314C0F7B2291E5B200AC8C7C3B925 PUSH1 0x40 MLOAD PUSH1 0x40 MLOAD DUP1 SWAP2 SUB SWAP1 LOG4 POP POP POP JUMP JUMPDEST PUSH1 0x0 SWAP1 JUMP JUMPDEST PUSH1 0x0 PUSH2 0x11FC DUP3 PUSH2 0xEB0 JUMP JUMPDEST SWAP1 POP PUSH2 0x1207 DUP5 PUSH2 0xBA9 JUMP JUMPDEST PUSH1 0xD PUSH1 0x0 DUP7 PUSH20 0xFFFFFFFFFFFFFFFFFFFFFFFFFFFFFFFFFFFFFFFF AND PUSH20 0xFFFFFFFFFFFFFFFFFFFFFFFFFFFFFFFFFFFFFFFF AND DUP2 MSTORE PUSH1 0x20 ADD SWAP1 DUP2 MSTORE PUSH1 0x20 ADD PUSH1 0x0 KECCAK256 PUSH1 0x0 PUSH1 0x3 DUP2 MSTORE PUSH1 0x20 ADD SWAP1 DUP2 MSTORE PUSH1 0x20 ADD PUSH1 0x0 KECCAK256 DUP2 SWAP1 SSTORE POP PUSH2 0x12C0 DUP2 PUSH1 0xD PUSH1 0x0 DUP8 PUSH20 0xFFFFFFFFFFFFFFFFFFFFFFFFFFFFFFFFFFFFFFFF AND PUSH20 0xFFFFFFFFFFFFFFFFFFFFFFFFFFFFFFFFFFFFFFFF AND DUP2 MSTORE PUSH1 0x20 ADD SWAP1 DUP2 MSTORE PUSH1 0x20 ADD PUSH1 0x0 KECCAK256 PUSH1 0x0 PUSH1 0x2 DUP2 MSTORE PUSH1 0x20 ADD SWAP1 DUP2 MSTORE PUSH1 0x20 ADD PUSH1 0x0 KECCAK256 SLOAD PUSH2 0x1DB7 SWAP1 SWAP2 SWAP1 PUSH4 0xFFFFFFFF AND JUMP JUMPDEST PUSH1 0xD PUSH1 0x0 DUP7 PUSH20 0xFFFFFFFFFFFFFFFFFFFFFFFFFFFFFFFFFFFFFFFF AND PUSH20 0xFFFFFFFFFFFFFFFFFFFFFFFFFFFFFFFFFFFFFFFF AND DUP2 MSTORE PUSH1 0x20 ADD SWAP1 DUP2 MSTORE PUSH1 0x20 ADD PUSH1 0x0 KECCAK256 PUSH1 0x0 PUSH1 0x2 DUP2 MSTORE PUSH1 0x20 ADD SWAP1 DUP2 MSTORE PUSH1 0x20 ADD PUSH1 0x0 KECCAK256 DUP2 SWAP1 SSTORE POP NUMBER PUSH1 0xD PUSH1 0x0 DUP7 PUSH20 0xFFFFFFFFFFFFFFFFFFFFFFFFFFFFFFFFFFFFFFFF AND PUSH20 0xFFFFFFFFFFFFFFFFFFFFFFFFFFFFFFFFFFFFFFFF AND DUP2 MSTORE PUSH1 0x20 ADD SWAP1 DUP2 MSTORE PUSH1 0x20 ADD PUSH1 0x0 KECCAK256 PUSH1 0x0 PUSH1 0x1 DUP2 MSTORE PUSH1 0x20 ADD SWAP1 DUP2 MSTORE PUSH1 0x20 ADD PUSH1 0x0 KECCAK256 DUP2 SWAP1 SSTORE POP PUSH2 0x1374 DUP4 PUSH2 0xBA9 JUMP JUMPDEST PUSH1 0xD PUSH1 0x0 DUP6 PUSH20 0xFFFFFFFFFFFFFFFFFFFFFFFFFFFFFFFFFFFFFFFF AND PUSH20 0xFFFFFFFFFFFFFFFFFFFFFFFFFFFFFFFFFFFFFFFF AND DUP2 MSTORE PUSH1 0x20 ADD SWAP1 DUP2 MSTORE PUSH1 0x20 ADD PUSH1 0x0 KECCAK256 PUSH1 0x0 PUSH1 0x3 DUP2 MSTORE PUSH1 0x20 ADD SWAP1 DUP2 MSTORE PUSH1 0x20 ADD PUSH1 0x0 KECCAK256 DUP2 SWAP1 SSTORE POP PUSH2 0x142D DUP2 PUSH1 0xD PUSH1 0x0 DUP7 PUSH20 0xFFFFFFFFFFFFFFFFFFFFFFFFFFFFFFFFFFFFFFFF AND PUSH20 0xFFFFFFFFFFFFFFFFFFFFFFFFFFFFFFFFFFFFFFFF AND DUP2 MSTORE PUSH1 0x20 ADD SWAP1 DUP2 MSTORE PUSH1 0x20 ADD PUSH1 0x0 KECCAK256 PUSH1 0x0 PUSH1 0x2 DUP2 MSTORE PUSH1 0x20 ADD SWAP1 DUP2 MSTORE PUSH1 0x20 ADD PUSH1 0x0 KECCAK256 SLOAD PUSH2 0x1DCD SWAP1 SWAP2 SWAP1 PUSH4 0xFFFFFFFF AND JUMP JUMPDEST PUSH1 0xD PUSH1 0x0 DUP6 PUSH20 0xFFFFFFFFFFFFFFFFFFFFFFFFFFFFFFFFFFFFFFFF AND PUSH20 0xFFFFFFFFFFFFFFFFFFFFFFFFFFFFFFFFFFFFFFFF AND DUP2 MSTORE PUSH1 0x20 ADD SWAP1 DUP2 MSTORE PUSH1 0x20 ADD PUSH1 0x0 KECCAK256 PUSH1 0x0 PUSH1 0x2 DUP2 MSTORE PUSH1 0x20 ADD SWAP1 DUP2 MSTORE PUSH1 0x20 ADD PUSH1 0x0 KECCAK256 DUP2 SWAP1 SSTORE POP NUMBER PUSH1 0xD PUSH1 0x0 DUP6 PUSH20 0xFFFFFFFFFFFFFFFFFFFFFFFFFFFFFFFFFFFFFFFF AND PUSH20 0xFFFFFFFFFFFFFFFFFFFFFFFFFFFFFFFFFFFFFFFF AND DUP2 MSTORE PUSH1 0x20 ADD SWAP1 DUP2 MSTORE PUSH1 0x20 ADD PUSH1 0x0 KECCAK256 PUSH1 0x0 PUSH1 0x1 DUP2 MSTORE PUSH1 0x20 ADD SWAP1 DUP2 MSTORE PUSH1 0x20 ADD PUSH1 0x0 KECCAK256 DUP2 SWAP1 SSTORE POP PUSH1 0x0 PUSH2 0x14E3 DUP4 PUSH2 0x19B9 JUMP JUMPDEST SWAP1 POP DUP5 PUSH20 0xFFFFFFFFFFFFFFFFFFFFFFFFFFFFFFFFFFFFFFFF AND DUP2 PUSH1 0x0 ADD MLOAD PUSH20 0xFFFFFFFFFFFFFFFFFFFFFFFFFFFFFFFFFFFFFFFF AND EQ PUSH2 0x154E JUMPI PUSH1 0x40 MLOAD PUSH32 0xA114810000000000000000000000000000000000000000000000000000000000 DUP2 MSTORE PUSH1 0x4 ADD PUSH1 0x40 MLOAD DUP1 SWAP2 SUB SWAP1 REVERT JUMPDEST PUSH1 0x0 DUP6 PUSH20 0xFFFFFFFFFFFFFFFFFFFFFFFFFFFFFFFFFFFFFFFF AND PUSH2 0x156F PUSH2 0x1132 JUMP JUMPDEST PUSH20 0xFFFFFFFFFFFFFFFFFFFFFFFFFFFFFFFFFFFFFFFF AND EQ DUP1 PUSH2 0x159E JUMPI POP PUSH2 0x159D DUP7 PUSH2 0x1598 PUSH2 0x1132 JUMP JUMPDEST PUSH2 0xF8B JUMP JUMPDEST JUMPDEST DUP1 PUSH2 0x15E3 JUMPI POP PUSH2 0x15AC PUSH2 0x1132 JUMP JUMPDEST PUSH20 0xFFFFFFFFFFFFFFFFFFFFFFFFFFFFFFFFFFFFFFFF AND PUSH2 0x15CB DUP6 PUSH2 0x60B JUMP JUMPDEST PUSH20 0xFFFFFFFFFFFFFFFFFFFFFFFFFFFFFFFFFFFFFFFF AND EQ JUMPDEST SWAP1 POP DUP1 PUSH2 0x161C JUMPI PUSH1 0x40 MLOAD PUSH32 0x59C896BE00000000000000000000000000000000000000000000000000000000 DUP2 MSTORE PUSH1 0x4 ADD PUSH1 0x40 MLOAD DUP1 SWAP2 SUB SWAP1 REVERT JUMPDEST PUSH1 0x0 PUSH20 0xFFFFFFFFFFFFFFFFFFFFFFFFFFFFFFFFFFFFFFFF AND DUP6 PUSH20 0xFFFFFFFFFFFFFFFFFFFFFFFFFFFFFFFFFFFFFFFF AND SUB PUSH2 0x1682 JUMPI PUSH1 0x40 MLOAD PUSH32 0xEA553B3400000000000000000000000000000000000000000000000000000000 DUP2 MSTORE PUSH1 0x4 ADD PUSH1 0x40 MLOAD DUP1 SWAP2 SUB SWAP1 REVERT JUMPDEST PUSH2 0x168F DUP7 DUP7 DUP7 PUSH1 0x1 PUSH2 0x1F63 JUMP JUMPDEST PUSH2 0x169B PUSH1 0x0 DUP6 DUP9 PUSH2 0x113A JUMP JUMPDEST PUSH1 0x1 PUSH1 0xA PUSH1 0x0 DUP9 PUSH20 0xFFFFFFFFFFFFFFFFFFFFFFFFFFFFFFFFFFFFFFFF AND PUSH20 0xFFFFFFFFFFFFFFFFFFFFFFFFFFFFFFFFFFFFFFFF AND DUP2 MSTORE PUSH1 0x20 ADD SWAP1 DUP2 MSTORE PUSH1 0x20 ADD PUSH1 0x0 KECCAK256 PUSH1 0x0 ADD PUSH1 0x0 DUP3 DUP3 DUP3 SWAP1 SLOAD SWAP1 PUSH2 0x100 EXP SWAP1 DIV PUSH8 0xFFFFFFFFFFFFFFFF AND SUB SWAP3 POP PUSH2 0x100 EXP DUP2 SLOAD DUP2 PUSH8 0xFFFFFFFFFFFFFFFF MUL NOT AND SWAP1 DUP4 PUSH8 0xFFFFFFFFFFFFFFFF AND MUL OR SWAP1 SSTORE POP PUSH1 0x1 PUSH1 0xA PUSH1 0x0 DUP8 PUSH20 0xFFFFFFFFFFFFFFFFFFFFFFFFFFFFFFFFFFFFFFFF AND PUSH20 0xFFFFFFFFFFFFFFFFFFFFFFFFFFFFFFFFFFFFFFFF AND DUP2 MSTORE PUSH1 0x20 ADD SWAP1 DUP2 MSTORE PUSH1 0x20 ADD PUSH1 0x0 KECCAK256 PUSH1 0x0 ADD PUSH1 0x0 DUP3 DUP3 DUP3 SWAP1 SLOAD SWAP1 PUSH2 0x100 EXP SWAP1 DIV PUSH8 0xFFFFFFFFFFFFFFFF AND ADD SWAP3 POP PUSH2 0x100 EXP DUP2 SLOAD DUP2 PUSH8 0xFFFFFFFFFFFFFFFF MUL NOT AND SWAP1 DUP4 PUSH8 0xFFFFFFFFFFFFFFFF AND MUL OR SWAP1 SSTORE POP PUSH1 0x0 PUSH1 0x9 PUSH1 0x0 DUP7 DUP2 MSTORE PUSH1 0x20 ADD SWAP1 DUP2 MSTORE PUSH1 0x20 ADD PUSH1 0x0 KECCAK256 SWAP1 POP DUP6 DUP2 PUSH1 0x0 ADD PUSH1 0x0 PUSH2 0x100 EXP DUP2 SLOAD DUP2 PUSH20 0xFFFFFFFFFFFFFFFFFFFFFFFFFFFFFFFFFFFFFFFF MUL NOT AND SWAP1 DUP4 PUSH20 0xFFFFFFFFFFFFFFFFFFFFFFFFFFFFFFFFFFFFFFFF AND MUL OR SWAP1 SSTORE POP TIMESTAMP DUP2 PUSH1 0x0 ADD PUSH1 0x14 PUSH2 0x100 EXP DUP2 SLOAD DUP2 PUSH8 0xFFFFFFFFFFFFFFFF MUL NOT AND SWAP1 DUP4 PUSH8 0xFFFFFFFFFFFFFFFF AND MUL OR SWAP1 SSTORE POP PUSH1 0x0 PUSH1 0x1 DUP7 ADD SWAP1 POP PUSH1 0x0 PUSH1 0x9 PUSH1 0x0 DUP4 DUP2 MSTORE PUSH1 0x20 ADD SWAP1 DUP2 MSTORE PUSH1 0x20 ADD PUSH1 0x0 KECCAK256 SWAP1 POP PUSH1 0x0 PUSH20 0xFFFFFFFFFFFFFFFFFFFFFFFFFFFFFFFFFFFFFFFF AND DUP2 PUSH1 0x0 ADD PUSH1 0x0 SWAP1 SLOAD SWAP1 PUSH2 0x100 EXP SWAP1 DIV PUSH20 0xFFFFFFFFFFFFFFFFFFFFFFFFFFFFFFFFFFFFFFFF AND PUSH20 0xFFFFFFFFFFFFFFFFFFFFFFFFFFFFFFFFFFFFFFFF AND SUB PUSH2 0x191A JUMPI PUSH1 0x4 SLOAD DUP3 EQ PUSH2 0x1919 JUMPI DUP9 DUP2 PUSH1 0x0 ADD PUSH1 0x0 PUSH2 0x100 EXP DUP2 SLOAD DUP2 PUSH20 0xFFFFFFFFFFFFFFFFFFFFFFFFFFFFFFFFFFFFFFFF MUL NOT AND SWAP1 DUP4 PUSH20 0xFFFFFFFFFFFFFFFFFFFFFFFFFFFFFFFFFFFFFFFF AND MUL OR SWAP1 SSTORE POP DUP5 PUSH1 0x20 ADD MLOAD DUP2 PUSH1 0x0 ADD PUSH1 0x14 PUSH2 0x100 EXP DUP2 SLOAD DUP2 PUSH8 0xFFFFFFFFFFFFFFFF MUL NOT AND SWAP1 DUP4 PUSH8 0xFFFFFFFFFFFFFFFF AND MUL OR SWAP1 SSTORE POP JUMPDEST JUMPDEST POP POP POP DUP4 DUP6 PUSH20 0xFFFFFFFFFFFFFFFFFFFFFFFFFFFFFFFFFFFFFFFF AND DUP8 PUSH20 0xFFFFFFFFFFFFFFFFFFFFFFFFFFFFFFFFFFFFFFFF AND PUSH32 0xDDF252AD1BE2C89B69C2B068FC378DAA952BA7F163C4A11628F55A4DF523B3EF PUSH1 0x40 MLOAD PUSH1 0x40 MLOAD DUP1 SWAP2 SUB SWAP1 LOG4 PUSH2 0x1985 DUP7 DUP7 DUP7 PUSH1 0x1 PUSH2 0x1F69 JUMP JUMPDEST POP POP POP POP POP POP JUMP JUMPDEST PUSH1 0x0 DUP2 DUP4 PUSH2 0x199B SWAP2 SWAP1 PUSH2 0x2846 JUMP JUMPDEST SWAP1 POP SWAP3 SWAP2 POP POP JUMP JUMPDEST PUSH1 0x0 DUP2 DUP4 PUSH2 0x19B1 SWAP2 SWAP1 PUSH2 0x2888 JUMP JUMPDEST SWAP1 POP SWAP3 SWAP2 POP POP JUMP JUMPDEST PUSH2 0x19C1 PUSH2 0x1F6F JUMP JUMPDEST PUSH1 0x0 DUP3 SWAP1 POP DUP1 PUSH2 0x19CF PUSH2 0x11EC JUMP JUMPDEST GT PUSH2 0x1C0D JUMPI PUSH1 0x4 SLOAD DUP2 LT ISZERO PUSH2 0x1C0C JUMPI PUSH1 0x0 PUSH1 0x9 PUSH1 0x0 DUP4 DUP2 MSTORE PUSH1 0x20 ADD SWAP1 DUP2 MSTORE PUSH1 0x20 ADD PUSH1 0x0 KECCAK256 PUSH1 0x40 MLOAD DUP1 PUSH1 0x60 ADD PUSH1 0x40 MSTORE SWAP1 DUP2 PUSH1 0x0 DUP3 ADD PUSH1 0x0 SWAP1 SLOAD SWAP1 PUSH2 0x100 EXP SWAP1 DIV PUSH20 0xFFFFFFFFFFFFFFFFFFFFFFFFFFFFFFFFFFFFFFFF AND PUSH20 0xFFFFFFFFFFFFFFFFFFFFFFFFFFFFFFFFFFFFFFFF AND PUSH20 0xFFFFFFFFFFFFFFFFFFFFFFFFFFFFFFFFFFFFFFFF AND DUP2 MSTORE PUSH1 0x20 ADD PUSH1 0x0 DUP3 ADD PUSH1 0x14 SWAP1 SLOAD SWAP1 PUSH2 0x100 EXP SWAP1 DIV PUSH8 0xFFFFFFFFFFFFFFFF AND PUSH8 0xFFFFFFFFFFFFFFFF AND PUSH8 0xFFFFFFFFFFFFFFFF AND DUP2 MSTORE PUSH1 0x20 ADD PUSH1 0x0 DUP3 ADD PUSH1 0x1C SWAP1 SLOAD SWAP1 PUSH2 0x100 EXP SWAP1 DIV PUSH1 0xFF AND ISZERO ISZERO ISZERO ISZERO DUP2 MSTORE POP POP SWAP1 POP DUP1 PUSH1 0x40 ADD MLOAD PUSH2 0x1C0A JUMPI PUSH1 0x0 PUSH20 0xFFFFFFFFFFFFFFFFFFFFFFFFFFFFFFFFFFFFFFFF AND DUP2 PUSH1 0x0 ADD MLOAD PUSH20 0xFFFFFFFFFFFFFFFFFFFFFFFFFFFFFFFFFFFFFFFF AND EQ PUSH2 0x1AEE JUMPI DUP1 SWAP3 POP POP POP PUSH2 0x1C3F JUMP JUMPDEST JUMPDEST PUSH1 0x1 ISZERO PUSH2 0x1C09 JUMPI DUP2 DUP1 PUSH1 0x1 SWAP1 SUB SWAP3 POP POP PUSH1 0x9 PUSH1 0x0 DUP4 DUP2 MSTORE PUSH1 0x20 ADD SWAP1 DUP2 MSTORE PUSH1 0x20 ADD PUSH1 0x0 KECCAK256 PUSH1 0x40 MLOAD DUP1 PUSH1 0x60 ADD PUSH1 0x40 MSTORE SWAP1 DUP2 PUSH1 0x0 DUP3 ADD PUSH1 0x0 SWAP1 SLOAD SWAP1 PUSH2 0x100 EXP SWAP1 DIV PUSH20 0xFFFFFFFFFFFFFFFFFFFFFFFFFFFFFFFFFFFFFFFF AND PUSH20 0xFFFFFFFFFFFFFFFFFFFFFFFFFFFFFFFFFFFFFFFF AND PUSH20 0xFFFFFFFFFFFFFFFFFFFFFFFFFFFFFFFFFFFFFFFF AND DUP2 MSTORE PUSH1 0x20 ADD PUSH1 0x0 DUP3 ADD PUSH1 0x14 SWAP1 SLOAD SWAP1 PUSH2 0x100 EXP SWAP1 DIV PUSH8 0xFFFFFFFFFFFFFFFF AND PUSH8 0xFFFFFFFFFFFFFFFF AND PUSH8 0xFFFFFFFFFFFFFFFF AND DUP2 MSTORE PUSH1 0x20 ADD PUSH1 0x0 DUP3 ADD PUSH1 0x1C SWAP1 SLOAD SWAP1 PUSH2 0x100 EXP SWAP1 DIV PUSH1 0xFF AND ISZERO ISZERO ISZERO ISZERO DUP2 MSTORE POP POP SWAP1 POP PUSH1 0x0 PUSH20 0xFFFFFFFFFFFFFFFFFFFFFFFFFFFFFFFFFFFFFFFF AND DUP2 PUSH1 0x0 ADD MLOAD PUSH20 0xFFFFFFFFFFFFFFFFFFFFFFFFFFFFFFFFFFFFFFFF AND EQ PUSH2 0x1C04 JUMPI DUP1 SWAP3 POP POP POP PUSH2 0x1C3F JUMP JUMPDEST PUSH2 0x1AEF JUMP JUMPDEST JUMPDEST POP JUMPDEST JUMPDEST PUSH1 0x40 MLOAD PUSH32 0xDF2D9B4200000000000000000000000000000000000000000000000000000000 DUP2 MSTORE PUSH1 0x4 ADD PUSH1 0x40 MLOAD DUP1 SWAP2 SUB SWAP1 REVERT JUMPDEST SWAP2 SWAP1 POP JUMP JUMPDEST PUSH1 0x0 DUP1 DUP3 PUSH20 0xFFFFFFFFFFFFFFFFFFFFFFFFFFFFFFFFFFFFFFFF AND EXTCODESIZE GT SWAP1 POP SWAP2 SWAP1 POP JUMP JUMPDEST PUSH1 0x0 DUP4 PUSH20 0xFFFFFFFFFFFFFFFFFFFFFFFFFFFFFFFFFFFFFFFF AND PUSH4 0x150B7A02 PUSH2 0x1C8D PUSH2 0x1132 JUMP JUMPDEST DUP8 DUP7 DUP7 PUSH1 0x40 MLOAD DUP6 PUSH4 0xFFFFFFFF AND PUSH1 0xE0 SHL DUP2 MSTORE PUSH1 0x4 ADD PUSH2 0x1CAF SWAP5 SWAP4 SWAP3 SWAP2 SWAP1 PUSH2 0x290E JUMP JUMPDEST PUSH1 0x20 PUSH1 0x40 MLOAD DUP1 DUP4 SUB DUP2 PUSH1 0x0 DUP8 GAS CALL SWAP3 POP POP POP DUP1 ISZERO PUSH2 0x1CEB JUMPI POP PUSH1 0x40 MLOAD RETURNDATASIZE PUSH1 0x1F NOT PUSH1 0x1F DUP3 ADD AND DUP3 ADD DUP1 PUSH1 0x40 MSTORE POP DUP2 ADD SWAP1 PUSH2 0x1CE8 SWAP2 SWAP1 PUSH2 0x296F JUMP JUMPDEST PUSH1 0x1 JUMPDEST PUSH2 0x1D64 JUMPI RETURNDATASIZE DUP1 PUSH1 0x0 DUP2 EQ PUSH2 0x1D1B JUMPI PUSH1 0x40 MLOAD SWAP2 POP PUSH1 0x1F NOT PUSH1 0x3F RETURNDATASIZE ADD AND DUP3 ADD PUSH1 0x40 MSTORE RETURNDATASIZE DUP3 MSTORE RETURNDATASIZE PUSH1 0x0 PUSH1 0x20 DUP5 ADD RETURNDATACOPY PUSH2 0x1D20 JUMP JUMPDEST PUSH1 0x60 SWAP2 POP JUMPDEST POP PUSH1 0x0 DUP2 MLOAD SUB PUSH2 0x1D5C JUMPI PUSH1 0x40 MLOAD PUSH32 0xD1A57ED600000000000000000000000000000000000000000000000000000000 DUP2 MSTORE PUSH1 0x4 ADD PUSH1 0x40 MLOAD DUP1 SWAP2 SUB SWAP1 REVERT JUMPDEST DUP1 MLOAD DUP2 PUSH1 0x20 ADD REVERT JUMPDEST PUSH4 0x150B7A02 PUSH1 0xE0 SHL PUSH28 0xFFFFFFFFFFFFFFFFFFFFFFFFFFFFFFFFFFFFFFFFFFFFFFFFFFFFFFFF NOT AND DUP2 PUSH28 0xFFFFFFFFFFFFFFFFFFFFFFFFFFFFFFFFFFFFFFFFFFFFFFFFFFFFFFFF NOT AND EQ SWAP2 POP POP SWAP5 SWAP4 POP POP POP POP JUMP JUMPDEST PUSH1 0x0 DUP2 DUP4 PUSH2 0x1DC5 SWAP2 SWAP1 PUSH2 0x299C JUMP JUMPDEST SWAP1 POP SWAP3 SWAP2 POP POP JUMP JUMPDEST PUSH1 0x0 DUP2 DUP4 PUSH2 0x1DDB SWAP2 SWAP1 PUSH2 0x29D0 JUMP JUMPDEST SWAP1 POP SWAP3 SWAP2 POP POP JUMP JUMPDEST PUSH1 0x60 PUSH1 0x40 MLOAD DUP1 PUSH1 0x80 ADD PUSH1 0x40 MSTORE DUP1 PUSH1 0x51 DUP2 MSTORE PUSH1 0x20 ADD PUSH2 0x2A7C PUSH1 0x51 SWAP2 CODECOPY SWAP1 POP SWAP1 JUMP JUMPDEST PUSH1 0x60 PUSH1 0x0 DUP3 SUB PUSH2 0x1E4A JUMPI PUSH1 0x40 MLOAD DUP1 PUSH1 0x40 ADD PUSH1 0x40 MSTORE DUP1 PUSH1 0x1 DUP2 MSTORE PUSH1 0x20 ADD PUSH32 0x3000000000000000000000000000000000000000000000000000000000000000 DUP2 MSTORE POP SWAP1 POP PUSH2 0x1F5E JUMP JUMPDEST PUSH1 0x0 DUP3 SWAP1 POP PUSH1 0x0 JUMPDEST PUSH1 0x0 DUP3 EQ PUSH2 0x1E7C JUMPI DUP1 DUP1 PUSH2 0x1E65 SWAP1 PUSH2 0x2A04 JUMP JUMPDEST SWAP2 POP POP PUSH1 0xA DUP3 PUSH2 0x1E75 SWAP2 SWAP1 PUSH2 0x2888 JUMP JUMPDEST SWAP2 POP PUSH2 0x1E52 JUMP JUMPDEST PUSH1 0x0 DUP2 PUSH8 0xFFFFFFFFFFFFFFFF DUP2 GT ISZERO PUSH2 0x1E98 JUMPI PUSH2 0x1E97 PUSH2 0x237E JUMP JUMPDEST JUMPDEST PUSH1 0x40 MLOAD SWAP1 DUP1 DUP3 MSTORE DUP1 PUSH1 0x1F ADD PUSH1 0x1F NOT AND PUSH1 0x20 ADD DUP3 ADD PUSH1 0x40 MSTORE DUP1 ISZERO PUSH2 0x1ECA JUMPI DUP2 PUSH1 0x20 ADD PUSH1 0x1 DUP3 MUL DUP1 CALLDATASIZE DUP4 CALLDATACOPY DUP1 DUP3 ADD SWAP2 POP POP SWAP1 POP JUMPDEST POP SWAP1 POP JUMPDEST PUSH1 0x0 DUP6 EQ PUSH2 0x1F57 JUMPI PUSH1 0x1 DUP3 PUSH2 0x1EE3 SWAP2 SWAP1 PUSH2 0x299C JUMP JUMPDEST SWAP2 POP PUSH1 0xA DUP6 PUSH2 0x1EF2 SWAP2 SWAP1 PUSH2 0x2815 JUMP JUMPDEST PUSH1 0x30 PUSH2 0x1EFE SWAP2 SWAP1 PUSH2 0x29D0 JUMP JUMPDEST PUSH1 0xF8 SHL DUP2 DUP4 DUP2 MLOAD DUP2 LT PUSH2 0x1F14 JUMPI PUSH2 0x1F13 PUSH2 0x2A4C JUMP JUMPDEST JUMPDEST PUSH1 0x20 ADD ADD SWAP1 PUSH31 0xFFFFFFFFFFFFFFFFFFFFFFFFFFFFFFFFFFFFFFFFFFFFFFFFFFFFFFFFFFFFFF NOT AND SWAP1 DUP2 PUSH1 0x0 BYTE SWAP1 MSTORE8 POP PUSH1 0xA DUP6 PUSH2 0x1F50 SWAP2 SWAP1 PUSH2 0x2888 JUMP JUMPDEST SWAP5 POP PUSH2 0x1ECE JUMP JUMPDEST DUP1 SWAP4 POP POP POP POP JUMPDEST SWAP2 SWAP1 POP JUMP JUMPDEST POP POP POP POP JUMP JUMPDEST POP POP POP POP JUMP JUMPDEST PUSH1 0x40 MLOAD DUP1 PUSH1 0x60 ADD PUSH1 0x40 MSTORE DUP1 PUSH1 0x0 PUSH20 0xFFFFFFFFFFFFFFFFFFFFFFFFFFFFFFFFFFFFFFFF AND DUP2 MSTORE PUSH1 0x20 ADD PUSH1 0x0 PUSH8 0xFFFFFFFFFFFFFFFF AND DUP2 MSTORE PUSH1 0x20 ADD PUSH1 0x0 ISZERO ISZERO DUP2 MSTORE POP SWAP1 JUMP JUMPDEST PUSH1 0x0 PUSH1 0x40 MLOAD SWAP1 POP SWAP1 JUMP JUMPDEST PUSH1 0x0 DUP1 REVERT JUMPDEST PUSH1 0x0 DUP1 REVERT JUMPDEST PUSH1 0x0 PUSH32 0xFFFFFFFF00000000000000000000000000000000000000000000000000000000 DUP3 AND SWAP1 POP SWAP2 SWAP1 POP JUMP JUMPDEST PUSH2 0x1FFB DUP2 PUSH2 0x1FC6 JUMP JUMPDEST DUP2 EQ PUSH2 0x2006 JUMPI PUSH1 0x0 DUP1 REVERT JUMPDEST POP JUMP JUMPDEST PUSH1 0x0 DUP2 CALLDATALOAD SWAP1 POP PUSH2 0x2018 DUP2 PUSH2 0x1FF2 JUMP JUMPDEST SWAP3 SWAP2 POP POP JUMP JUMPDEST PUSH1 0x0 PUSH1 0x20 DUP3 DUP5 SUB SLT ISZERO PUSH2 0x2034 JUMPI PUSH2 0x2033 PUSH2 0x1FBC JUMP JUMPDEST JUMPDEST PUSH1 0x0 PUSH2 0x2042 DUP5 DUP3 DUP6 ADD PUSH2 0x2009 JUMP JUMPDEST SWAP2 POP POP SWAP3 SWAP2 POP POP JUMP JUMPDEST PUSH1 0x0 DUP2 ISZERO ISZERO SWAP1 POP SWAP2 SWAP1 POP JUMP JUMPDEST PUSH2 0x2060 DUP2 PUSH2 0x204B JUMP JUMPDEST DUP3 MSTORE POP POP JUMP JUMPDEST PUSH1 0x0 PUSH1 0x20 DUP3 ADD SWAP1 POP PUSH2 0x207B PUSH1 0x0 DUP4 ADD DUP5 PUSH2 0x2057 JUMP JUMPDEST SWAP3 SWAP2 POP POP JUMP JUMPDEST PUSH1 0x0 DUP2 MLOAD SWAP1 POP SWAP2 SWAP1 POP JUMP JUMPDEST PUSH1 0x0 DUP3 DUP3 MSTORE PUSH1 0x20 DUP3 ADD SWAP1 POP SWAP3 SWAP2 POP POP JUMP JUMPDEST PUSH1 0x0 JUMPDEST DUP4 DUP2 LT ISZERO PUSH2 0x20BB JUMPI DUP1 DUP3 ADD MLOAD DUP2 DUP5 ADD MSTORE PUSH1 0x20 DUP2 ADD SWAP1 POP PUSH2 0x20A0 JUMP JUMPDEST PUSH1 0x0 DUP5 DUP5 ADD MSTORE POP POP POP POP JUMP JUMPDEST PUSH1 0x0 PUSH1 0x1F NOT PUSH1 0x1F DUP4 ADD AND SWAP1 POP SWAP2 SWAP1 POP JUMP JUMPDEST PUSH1 0x0 PUSH2 0x20E3 DUP3 PUSH2 0x2081 JUMP JUMPDEST PUSH2 0x20ED DUP2 DUP6 PUSH2 0x208C JUMP JUMPDEST SWAP4 POP PUSH2 0x20FD DUP2 DUP6 PUSH1 0x20 DUP7 ADD PUSH2 0x209D JUMP JUMPDEST PUSH2 0x2106 DUP2 PUSH2 0x20C7 JUMP JUMPDEST DUP5 ADD SWAP2 POP POP SWAP3 SWAP2 POP POP JUMP JUMPDEST PUSH1 0x0 PUSH1 0x20 DUP3 ADD SWAP1 POP DUP2 DUP2 SUB PUSH1 0x0 DUP4 ADD MSTORE PUSH2 0x212B DUP2 DUP5 PUSH2 0x20D8 JUMP JUMPDEST SWAP1 POP SWAP3 SWAP2 POP POP JUMP JUMPDEST PUSH1 0x0 DUP2 SWAP1 POP SWAP2 SWAP1 POP JUMP JUMPDEST PUSH2 0x2146 DUP2 PUSH2 0x2133 JUMP JUMPDEST DUP2 EQ PUSH2 0x2151 JUMPI PUSH1 0x0 DUP1 REVERT JUMPDEST POP JUMP JUMPDEST PUSH1 0x0 DUP2 CALLDATALOAD SWAP1 POP PUSH2 0x2163 DUP2 PUSH2 0x213D JUMP JUMPDEST SWAP3 SWAP2 POP POP JUMP JUMPDEST PUSH1 0x0 PUSH1 0x20 DUP3 DUP5 SUB SLT ISZERO PUSH2 0x217F JUMPI PUSH2 0x217E PUSH2 0x1FBC JUMP JUMPDEST JUMPDEST PUSH1 0x0 PUSH2 0x218D DUP5 DUP3 DUP6 ADD PUSH2 0x2154 JUMP JUMPDEST SWAP2 POP POP SWAP3 SWAP2 POP POP JUMP JUMPDEST PUSH1 0x0 PUSH20 0xFFFFFFFFFFFFFFFFFFFFFFFFFFFFFFFFFFFFFFFF DUP3 AND SWAP1 POP SWAP2 SWAP1 POP JUMP JUMPDEST PUSH1 0x0 PUSH2 0x21C1 DUP3 PUSH2 0x2196 JUMP JUMPDEST SWAP1 POP SWAP2 SWAP1 POP JUMP JUMPDEST PUSH2 0x21D1 DUP2 PUSH2 0x21B6 JUMP JUMPDEST DUP3 MSTORE POP POP JUMP JUMPDEST PUSH1 0x0 PUSH1 0x20 DUP3 ADD SWAP1 POP PUSH2 0x21EC PUSH1 0x0 DUP4 ADD DUP5 PUSH2 0x21C8 JUMP JUMPDEST SWAP3 SWAP2 POP POP JUMP JUMPDEST PUSH2 0x21FB DUP2 PUSH2 0x21B6 JUMP JUMPDEST DUP2 EQ PUSH2 0x2206 JUMPI PUSH1 0x0 DUP1 REVERT JUMPDEST POP JUMP JUMPDEST PUSH1 0x0 DUP2 CALLDATALOAD SWAP1 POP PUSH2 0x2218 DUP2 PUSH2 0x21F2 JUMP JUMPDEST SWAP3 SWAP2 POP POP JUMP JUMPDEST PUSH1 0x0 DUP1 PUSH1 0x40 DUP4 DUP6 SUB SLT ISZERO PUSH2 0x2235 JUMPI PUSH2 0x2234 PUSH2 0x1FBC JUMP JUMPDEST JUMPDEST PUSH1 0x0 PUSH2 0x2243 DUP6 DUP3 DUP7 ADD PUSH2 0x2209 JUMP JUMPDEST SWAP3 POP POP PUSH1 0x20 PUSH2 0x2254 DUP6 DUP3 DUP7 ADD PUSH2 0x2154 JUMP JUMPDEST SWAP2 POP POP SWAP3 POP SWAP3 SWAP1 POP JUMP JUMPDEST PUSH2 0x2267 DUP2 PUSH2 0x2133 JUMP JUMPDEST DUP3 MSTORE POP POP JUMP JUMPDEST PUSH1 0x0 PUSH1 0x20 DUP3 ADD SWAP1 POP PUSH2 0x2282 PUSH1 0x0 DUP4 ADD DUP5 PUSH2 0x225E JUMP JUMPDEST SWAP3 SWAP2 POP POP JUMP JUMPDEST PUSH1 0x0 DUP1 PUSH1 0x0 PUSH1 0x60 DUP5 DUP7 SUB SLT ISZERO PUSH2 0x22A1 JUMPI PUSH2 0x22A0 PUSH2 0x1FBC JUMP JUMPDEST JUMPDEST PUSH1 0x0 PUSH2 0x22AF DUP7 DUP3 DUP8 ADD PUSH2 0x2209 JUMP JUMPDEST SWAP4 POP POP PUSH1 0x20 PUSH2 0x22C0 DUP7 DUP3 DUP8 ADD PUSH2 0x2209 JUMP JUMPDEST SWAP3 POP POP PUSH1 0x40 PUSH2 0x22D1 DUP7 DUP3 DUP8 ADD PUSH2 0x2154 JUMP JUMPDEST SWAP2 POP POP SWAP3 POP SWAP3 POP SWAP3 JUMP JUMPDEST PUSH1 0x0 PUSH1 0x20 DUP3 DUP5 SUB SLT ISZERO PUSH2 0x22F1 JUMPI PUSH2 0x22F0 PUSH2 0x1FBC JUMP JUMPDEST JUMPDEST PUSH1 0x0 PUSH2 0x22FF DUP5 DUP3 DUP6 ADD PUSH2 0x2209 JUMP JUMPDEST SWAP2 POP POP SWAP3 SWAP2 POP POP JUMP JUMPDEST PUSH2 0x2311 DUP2 PUSH2 0x204B JUMP JUMPDEST DUP2 EQ PUSH2 0x231C JUMPI PUSH1 0x0 DUP1 REVERT JUMPDEST POP JUMP JUMPDEST PUSH1 0x0 DUP2 CALLDATALOAD SWAP1 POP PUSH2 0x232E DUP2 PUSH2 0x2308 JUMP JUMPDEST SWAP3 SWAP2 POP POP JUMP JUMPDEST PUSH1 0x0 DUP1 PUSH1 0x40 DUP4 DUP6 SUB SLT ISZERO PUSH2 0x234B JUMPI PUSH2 0x234A PUSH2 0x1FBC JUMP JUMPDEST JUMPDEST PUSH1 0x0 PUSH2 0x2359 DUP6 DUP3 DUP7 ADD PUSH2 0x2209 JUMP JUMPDEST SWAP3 POP POP PUSH1 0x20 PUSH2 0x236A DUP6 DUP3 DUP7 ADD PUSH2 0x231F JUMP JUMPDEST SWAP2 POP POP SWAP3 POP SWAP3 SWAP1 POP JUMP JUMPDEST PUSH1 0x0 DUP1 REVERT JUMPDEST PUSH1 0x0 DUP1 REVERT JUMPDEST PUSH32 0x4E487B7100000000000000000000000000000000000000000000000000000000 PUSH1 0x0 MSTORE PUSH1 0x41 PUSH1 0x4 MSTORE PUSH1 0x24 PUSH1 0x0 REVERT JUMPDEST PUSH2 0x23B6 DUP3 PUSH2 0x20C7 JUMP JUMPDEST DUP2 ADD DUP2 DUP2 LT PUSH8 0xFFFFFFFFFFFFFFFF DUP3 GT OR ISZERO PUSH2 0x23D5 JUMPI PUSH2 0x23D4 PUSH2 0x237E JUMP JUMPDEST JUMPDEST DUP1 PUSH1 0x40 MSTORE POP POP POP JUMP JUMPDEST PUSH1 0x0 PUSH2 0x23E8 PUSH2 0x1FB2 JUMP JUMPDEST SWAP1 POP PUSH2 0x23F4 DUP3 DUP3 PUSH2 0x23AD JUMP JUMPDEST SWAP2 SWAP1 POP JUMP JUMPDEST PUSH1 0x0 PUSH8 0xFFFFFFFFFFFFFFFF DUP3 GT ISZERO PUSH2 0x2414 JUMPI PUSH2 0x2413 PUSH2 0x237E JUMP JUMPDEST JUMPDEST PUSH2 0x241D DUP3 PUSH2 0x20C7 JUMP JUMPDEST SWAP1 POP PUSH1 0x20 DUP2 ADD SWAP1 POP SWAP2 SWAP1 POP JUMP JUMPDEST DUP3 DUP2 DUP4 CALLDATACOPY PUSH1 0x0 DUP4 DUP4 ADD MSTORE POP POP POP JUMP JUMPDEST PUSH1 0x0 PUSH2 0x244C PUSH2 0x2447 DUP5 PUSH2 0x23F9 JUMP JUMPDEST PUSH2 0x23DE JUMP JUMPDEST SWAP1 POP DUP3 DUP2 MSTORE PUSH1 0x20 DUP2 ADD DUP5 DUP5 DUP5 ADD GT ISZERO PUSH2 0x2468 JUMPI PUSH2 0x2467 PUSH2 0x2379 JUMP JUMPDEST JUMPDEST PUSH2 0x2473 DUP5 DUP3 DUP6 PUSH2 0x242A JUMP JUMPDEST POP SWAP4 SWAP3 POP POP POP JUMP JUMPDEST PUSH1 0x0 DUP3 PUSH1 0x1F DUP4 ADD SLT PUSH2 0x2490 JUMPI PUSH2 0x248F PUSH2 0x2374 JUMP JUMPDEST JUMPDEST DUP2 CALLDATALOAD PUSH2 0x24A0 DUP5 DUP3 PUSH1 0x20 DUP7 ADD PUSH2 0x2439 JUMP JUMPDEST SWAP2 POP POP SWAP3 SWAP2 POP POP JUMP JUMPDEST PUSH1 0x0 DUP1 PUSH1 0x0 DUP1 PUSH1 0x80 DUP6 DUP8 SUB SLT ISZERO PUSH2 0x24C3 JUMPI PUSH2 0x24C2 PUSH2 0x1FBC JUMP JUMPDEST JUMPDEST PUSH1 0x0 PUSH2 0x24D1 DUP8 DUP3 DUP9 ADD PUSH2 0x2209 JUMP JUMPDEST SWAP5 POP POP PUSH1 0x20 PUSH2 0x24E2 DUP8 DUP3 DUP9 ADD PUSH2 0x2209 JUMP JUMPDEST SWAP4 POP POP PUSH1 0x40 PUSH2 0x24F3 DUP8 DUP3 DUP9 ADD PUSH2 0x2154 JUMP JUMPDEST SWAP3 POP POP PUSH1 0x60 DUP6 ADD CALLDATALOAD PUSH8 0xFFFFFFFFFFFFFFFF DUP2 GT ISZERO PUSH2 0x2514 JUMPI PUSH2 0x2513 PUSH2 0x1FC1 JUMP JUMPDEST JUMPDEST PUSH2 0x2520 DUP8 DUP3 DUP9 ADD PUSH2 0x247B JUMP JUMPDEST SWAP2 POP POP SWAP3 SWAP6 SWAP2 SWAP5 POP SWAP3 POP JUMP JUMPDEST PUSH1 0x0 DUP1 PUSH1 0x40 DUP4 DUP6 SUB SLT ISZERO PUSH2 0x2543 JUMPI PUSH2 0x2542 PUSH2 0x1FBC JUMP JUMPDEST JUMPDEST PUSH1 0x0 PUSH2 0x2551 DUP6 DUP3 DUP7 ADD PUSH2 0x2209 JUMP JUMPDEST SWAP3 POP POP PUSH1 0x20 PUSH2 0x2562 DUP6 DUP3 DUP7 ADD PUSH2 0x2209 JUMP JUMPDEST SWAP2 POP POP SWAP3 POP SWAP3 SWAP1 POP JUMP JUMPDEST PUSH32 0x4E487B7100000000000000000000000000000000000000000000000000000000 PUSH1 0x0 MSTORE PUSH1 0x22 PUSH1 0x4 MSTORE PUSH1 0x24 PUSH1 0x0 REVERT JUMPDEST PUSH1 0x0 PUSH1 0x2 DUP3 DIV SWAP1 POP PUSH1 0x1 DUP3 AND DUP1 PUSH2 0x25B3 JUMPI PUSH1 0x7F DUP3 AND SWAP2 POP JUMPDEST PUSH1 0x20 DUP3 LT DUP2 SUB PUSH2 0x25C6 JUMPI PUSH2 0x25C5 PUSH2 0x256C JUMP JUMPDEST JUMPDEST POP SWAP2 SWAP1 POP JUMP JUMPDEST PUSH1 0x0 DUP2 SWAP1 POP SWAP3 SWAP2 POP POP JUMP JUMPDEST PUSH1 0x0 PUSH2 0x25E2 DUP3 PUSH2 0x2081 JUMP JUMPDEST PUSH2 0x25EC DUP2 DUP6 PUSH2 0x25CC JUMP JUMPDEST SWAP4 POP PUSH2 0x25FC DUP2 DUP6 PUSH1 0x20 DUP7 ADD PUSH2 0x209D JUMP JUMPDEST DUP1 DUP5 ADD SWAP2 POP POP SWAP3 SWAP2 POP POP JUMP JUMPDEST PUSH1 0x0 PUSH2 0x2614 DUP3 DUP6 PUSH2 0x25D7 JUMP JUMPDEST SWAP2 POP PUSH2 0x2620 DUP3 DUP5 PUSH2 0x25D7 JUMP JUMPDEST SWAP2 POP DUP2 SWAP1 POP SWAP4 SWAP3 POP POP POP JUMP JUMPDEST PUSH32 0x4E487B7100000000000000000000000000000000000000000000000000000000 PUSH1 0x0 MSTORE PUSH1 0x11 PUSH1 0x4 MSTORE PUSH1 0x24 PUSH1 0x0 REVERT JUMPDEST PUSH1 0x0 DUP2 PUSH1 0x1 SHR SWAP1 POP SWAP2 SWAP1 POP JUMP JUMPDEST PUSH1 0x0 DUP1 DUP3 SWAP2 POP DUP4 SWAP1 POP JUMPDEST PUSH1 0x1 DUP6 GT ISZERO PUSH2 0x26B2 JUMPI DUP1 DUP7 DIV DUP2 GT ISZERO PUSH2 0x268E JUMPI PUSH2 0x268D PUSH2 0x262C JUMP JUMPDEST JUMPDEST PUSH1 0x1 DUP6 AND ISZERO PUSH2 0x269D JUMPI DUP1 DUP3 MUL SWAP2 POP JUMPDEST DUP1 DUP2 MUL SWAP1 POP PUSH2 0x26AB DUP6 PUSH2 0x265B JUMP JUMPDEST SWAP5 POP PUSH2 0x2672 JUMP JUMPDEST SWAP5 POP SWAP5 SWAP3 POP POP POP JUMP JUMPDEST PUSH1 0x0 DUP3 PUSH2 0x26CB JUMPI PUSH1 0x1 SWAP1 POP PUSH2 0x2787 JUMP JUMPDEST DUP2 PUSH2 0x26D9 JUMPI PUSH1 0x0 SWAP1 POP PUSH2 0x2787 JUMP JUMPDEST DUP2 PUSH1 0x1 DUP2 EQ PUSH2 0x26EF JUMPI PUSH1 0x2 DUP2 EQ PUSH2 0x26F9 JUMPI PUSH2 0x2728 JUMP JUMPDEST PUSH1 0x1 SWAP2 POP POP PUSH2 0x2787 JUMP JUMPDEST PUSH1 0xFF DUP5 GT ISZERO PUSH2 0x270B JUMPI PUSH2 0x270A PUSH2 0x262C JUMP JUMPDEST JUMPDEST DUP4 PUSH1 0x2 EXP SWAP2 POP DUP5 DUP3 GT ISZERO PUSH2 0x2722 JUMPI PUSH2 0x2721 PUSH2 0x262C JUMP JUMPDEST JUMPDEST POP PUSH2 0x2787 JUMP JUMPDEST POP PUSH1 0x20 DUP4 LT PUSH2 0x133 DUP4 LT AND PUSH1 0x4E DUP5 LT PUSH1 0xB DUP5 LT AND OR ISZERO PUSH2 0x275D JUMPI DUP3 DUP3 EXP SWAP1 POP DUP4 DUP2 GT ISZERO PUSH2 0x2758 JUMPI PUSH2 0x2757 PUSH2 0x262C JUMP JUMPDEST JUMPDEST PUSH2 0x2787 JUMP JUMPDEST PUSH2 0x276A DUP5 DUP5 DUP5 PUSH1 0x1 PUSH2 0x2668 JUMP JUMPDEST SWAP3 POP SWAP1 POP DUP2 DUP5 DIV DUP2 GT ISZERO PUSH2 0x2781 JUMPI PUSH2 0x2780 PUSH2 0x262C JUMP JUMPDEST JUMPDEST DUP2 DUP2 MUL SWAP1 POP JUMPDEST SWAP4 SWAP3 POP POP POP JUMP JUMPDEST PUSH1 0x0 PUSH1 0xFF DUP3 AND SWAP1 POP SWAP2 SWAP1 POP JUMP JUMPDEST PUSH1 0x0 PUSH2 0x27A6 DUP3 PUSH2 0x2133 JUMP JUMPDEST SWAP2 POP PUSH2 0x27B1 DUP4 PUSH2 0x278E JUMP JUMPDEST SWAP3 POP PUSH2 0x27DE PUSH32 0xFFFFFFFFFFFFFFFFFFFFFFFFFFFFFFFFFFFFFFFFFFFFFFFFFFFFFFFFFFFFFFFF DUP5 DUP5 PUSH2 0x26BB JUMP JUMPDEST SWAP1 POP SWAP3 SWAP2 POP POP JUMP JUMPDEST PUSH32 0x4E487B7100000000000000000000000000000000000000000000000000000000 PUSH1 0x0 MSTORE PUSH1 0x12 PUSH1 0x4 MSTORE PUSH1 0x24 PUSH1 0x0 REVERT JUMPDEST PUSH1 0x0 PUSH2 0x2820 DUP3 PUSH2 0x2133 JUMP JUMPDEST SWAP2 POP PUSH2 0x282B DUP4 PUSH2 0x2133 JUMP JUMPDEST SWAP3 POP DUP3 PUSH2 0x283B JUMPI PUSH2 0x283A PUSH2 0x27E6 JUMP JUMPDEST JUMPDEST DUP3 DUP3 MOD SWAP1 POP SWAP3 SWAP2 POP POP JUMP JUMPDEST PUSH1 0x0 PUSH2 0x2851 DUP3 PUSH2 0x2133 JUMP JUMPDEST SWAP2 POP PUSH2 0x285C DUP4 PUSH2 0x2133 JUMP JUMPDEST SWAP3 POP DUP3 DUP3 MUL PUSH2 0x286A DUP2 PUSH2 0x2133 JUMP JUMPDEST SWAP2 POP DUP3 DUP3 DIV DUP5 EQ DUP4 ISZERO OR PUSH2 0x2881 JUMPI PUSH2 0x2880 PUSH2 0x262C JUMP JUMPDEST JUMPDEST POP SWAP3 SWAP2 POP POP JUMP JUMPDEST PUSH1 0x0 PUSH2 0x2893 DUP3 PUSH2 0x2133 JUMP JUMPDEST SWAP2 POP PUSH2 0x289E DUP4 PUSH2 0x2133 JUMP JUMPDEST SWAP3 POP DUP3 PUSH2 0x28AE JUMPI PUSH2 0x28AD PUSH2 0x27E6 JUMP JUMPDEST JUMPDEST DUP3 DUP3 DIV SWAP1 POP SWAP3 SWAP2 POP POP JUMP JUMPDEST PUSH1 0x0 DUP2 MLOAD SWAP1 POP SWAP2 SWAP1 POP JUMP JUMPDEST PUSH1 0x0 DUP3 DUP3 MSTORE PUSH1 0x20 DUP3 ADD SWAP1 POP SWAP3 SWAP2 POP POP JUMP JUMPDEST PUSH1 0x0 PUSH2 0x28E0 DUP3 PUSH2 0x28B9 JUMP JUMPDEST PUSH2 0x28EA DUP2 DUP6 PUSH2 0x28C4 JUMP JUMPDEST SWAP4 POP PUSH2 0x28FA DUP2 DUP6 PUSH1 0x20 DUP7 ADD PUSH2 0x209D JUMP JUMPDEST PUSH2 0x2903 DUP2 PUSH2 0x20C7 JUMP JUMPDEST DUP5 ADD SWAP2 POP POP SWAP3 SWAP2 POP POP JUMP JUMPDEST PUSH1 0x0 PUSH1 0x80 DUP3 ADD SWAP1 POP PUSH2 0x2923 PUSH1 0x0 DUP4 ADD DUP8 PUSH2 0x21C8 JUMP JUMPDEST PUSH2 0x2930 PUSH1 0x20 DUP4 ADD DUP7 PUSH2 0x21C8 JUMP JUMPDEST PUSH2 0x293D PUSH1 0x40 DUP4 ADD DUP6 PUSH2 0x225E JUMP JUMPDEST DUP2 DUP2 SUB PUSH1 0x60 DUP4 ADD MSTORE PUSH2 0x294F DUP2 DUP5 PUSH2 0x28D5 JUMP JUMPDEST SWAP1 POP SWAP6 SWAP5 POP POP POP POP POP JUMP JUMPDEST PUSH1 0x0 DUP2 MLOAD SWAP1 POP PUSH2 0x2969 DUP2 PUSH2 0x1FF2 JUMP JUMPDEST SWAP3 SWAP2 POP POP JUMP JUMPDEST PUSH1 0x0 PUSH1 0x20 DUP3 DUP5 SUB SLT ISZERO PUSH2 0x2985 JUMPI PUSH2 0x2984 PUSH2 0x1FBC JUMP JUMPDEST JUMPDEST PUSH1 0x0 PUSH2 0x2993 DUP5 DUP3 DUP6 ADD PUSH2 0x295A JUMP JUMPDEST SWAP2 POP POP SWAP3 SWAP2 POP POP JUMP JUMPDEST PUSH1 0x0 PUSH2 0x29A7 DUP3 PUSH2 0x2133 JUMP JUMPDEST SWAP2 POP PUSH2 0x29B2 DUP4 PUSH2 0x2133 JUMP JUMPDEST SWAP3 POP DUP3 DUP3 SUB SWAP1 POP DUP2 DUP2 GT ISZERO PUSH2 0x29CA JUMPI PUSH2 0x29C9 PUSH2 0x262C JUMP JUMPDEST JUMPDEST SWAP3 SWAP2 POP POP JUMP JUMPDEST PUSH1 0x0 PUSH2 0x29DB DUP3 PUSH2 0x2133 JUMP JUMPDEST SWAP2 POP PUSH2 0x29E6 DUP4 PUSH2 0x2133 JUMP JUMPDEST SWAP3 POP DUP3 DUP3 ADD SWAP1 POP DUP1 DUP3 GT ISZERO PUSH2 0x29FE JUMPI PUSH2 0x29FD PUSH2 0x262C JUMP JUMPDEST JUMPDEST SWAP3 SWAP2 POP POP JUMP JUMPDEST PUSH1 0x0 PUSH2 0x2A0F DUP3 PUSH2 0x2133 JUMP JUMPDEST SWAP2 POP PUSH32 0xFFFFFFFFFFFFFFFFFFFFFFFFFFFFFFFFFFFFFFFFFFFFFFFFFFFFFFFFFFFFFFFF DUP3 SUB PUSH2 0x2A41 JUMPI PUSH2 0x2A40 PUSH2 0x262C JUMP JUMPDEST JUMPDEST PUSH1 0x1 DUP3 ADD SWAP1 POP SWAP2 SWAP1 POP JUMP JUMPDEST PUSH32 0x4E487B7100000000000000000000000000000000000000000000000000000000 PUSH1 0x0 MSTORE PUSH1 0x32 PUSH1 0x4 MSTORE PUSH1 0x24 PUSH1 0x0 REVERT INVALID PUSH9 0x747470733A2F2F6761 PUSH21 0x657761792E70696E6174612E636C6F75642F697066 PUSH20 0x2F516D654E373753715459457258644D5134684C CALLVALUE BALANCE PUSH3 0x316661 SELFBALANCE PUSH25 0x414B7434515741354E475646755A753978486E2FA264697066 PUSH20 0x58221220C1FC3C077D73396DAA9E51D3C7215FDB 0xDD 0xA6 RETURN SWAP1 SELFBALANCE SWAP10 0x5C 0xD8 CALLDATALOAD 0xFB DUP3 SWAP2 0xE2 REVERT 0xD1 DUP14 PUSH5 0x736F6C6343 STOP ADDMOD GT STOP CALLER "
				},
				"gasEstimates": {
					"creation": {
						"codeDepositCost": "2202000",
						"executionCost": "infinite",
						"totalCost": "infinite"
					},
					"external": {
						"MineStatus(address)": "infinite",
						"approve(address,uint256)": "infinite",
						"balanceOf(address)": "3035",
						"blockStatus(uint256)": "infinite",
						"difficult(uint256)": "infinite",
						"getApproved(uint256)": "7458",
						"isApprovedForAll(address,address)": "infinite",
						"maxSupply()": "4687",
						"mineInfo(address,uint256)": "infinite",
						"name()": "infinite",
						"ownerOf(uint256)": "infinite",
						"safeTransferFrom(address,address,uint256)": "infinite",
						"safeTransferFrom(address,address,uint256,bytes)": "infinite",
						"setApprovalForAll(address,bool)": "infinite",
						"supportsInterface(bytes4)": "797",
						"symbol()": "infinite",
						"tokenIDPower(uint256)": "infinite",
						"tokenURI(uint256)": "infinite",
						"totalDugUp()": "infinite",
						"totalPower()": "2481",
						"totalSupply()": "4688",
						"transferFrom(address,address,uint256)": "infinite"
					},
					"internal": {
						"_afterTokenTransfers(address,address,uint256,uint256)": "17",
						"_approve(address,uint256,address)": "26292",
						"_baseURI()": "infinite",
						"_beforeTokenTransfers(address,address,uint256,uint256)": "17",
						"_burn(uint256)": "infinite",
						"_burn(uint256,bool)": "infinite",
						"_checkContractOnERC721Received(address,address,uint256,bytes memory)": "infinite",
						"_exists(uint256)": "4499",
						"_getAux(address)": "infinite",
						"_numberBurned(address)": "infinite",
						"_numberMinted(address)": "infinite",
						"_ownershipOf(uint256)": "infinite",
						"_safeMint(address,uint256)": "infinite",
						"_safeMint(address,uint256,bytes memory)": "infinite",
						"_setAux(address,uint64)": "infinite",
						"_startTokenId()": "15",
						"_totalMinted()": "infinite",
						"_transfer(address,address,uint256)": "infinite"
					}
				},
				"methodIdentifiers": {
					"MineStatus(address)": "b8ba6007",
					"approve(address,uint256)": "095ea7b3",
					"balanceOf(address)": "70a08231",
					"blockStatus(uint256)": "4be3403c",
					"difficult(uint256)": "d993226b",
					"getApproved(uint256)": "081812fc",
					"isApprovedForAll(address,address)": "e985e9c5",
					"maxSupply()": "d5abeb01",
					"mineInfo(address,uint256)": "eff0730d",
					"name()": "06fdde03",
					"ownerOf(uint256)": "6352211e",
					"safeTransferFrom(address,address,uint256)": "42842e0e",
					"safeTransferFrom(address,address,uint256,bytes)": "b88d4fde",
					"setApprovalForAll(address,bool)": "a22cb465",
					"supportsInterface(bytes4)": "01ffc9a7",
					"symbol()": "95d89b41",
					"tokenIDPower(uint256)": "e29301f9",
					"tokenURI(uint256)": "c87b56dd",
					"totalDugUp()": "e8abceee",
					"totalPower()": "db3ad22c",
					"totalSupply()": "18160ddd",
					"transferFrom(address,address,uint256)": "23b872dd"
				}
			},
			"storageLayout": {
				"storage": [
					{
						"astId": 1081,
						"contract": "minerpunk/ERC721A/ERC721A.sol:ERC721A",
						"label": "_salt",
						"offset": 0,
						"slot": "0",
						"type": "t_uint256"
					},
					{
						"astId": 1083,
						"contract": "minerpunk/ERC721A/ERC721A.sol:ERC721A",
						"label": "_TokenperBlock",
						"offset": 0,
						"slot": "1",
						"type": "t_uint256"
					},
					{
						"astId": 1085,
						"contract": "minerpunk/ERC721A/ERC721A.sol:ERC721A",
						"label": "_startBlockNumber",
						"offset": 0,
						"slot": "2",
						"type": "t_uint256"
					},
					{
						"astId": 1087,
						"contract": "minerpunk/ERC721A/ERC721A.sol:ERC721A",
						"label": "_totalPower",
						"offset": 0,
						"slot": "3",
						"type": "t_uint256"
					},
					{
						"astId": 1089,
						"contract": "minerpunk/ERC721A/ERC721A.sol:ERC721A",
						"label": "_currentIndex",
						"offset": 0,
						"slot": "4",
						"type": "t_uint256"
					},
					{
						"astId": 1091,
						"contract": "minerpunk/ERC721A/ERC721A.sol:ERC721A",
						"label": "_maxSupply",
						"offset": 0,
						"slot": "5",
						"type": "t_uint256"
					},
					{
						"astId": 1093,
						"contract": "minerpunk/ERC721A/ERC721A.sol:ERC721A",
						"label": "_burnCounter",
						"offset": 0,
						"slot": "6",
						"type": "t_uint256"
					},
					{
						"astId": 1095,
						"contract": "minerpunk/ERC721A/ERC721A.sol:ERC721A",
						"label": "_name",
						"offset": 0,
						"slot": "7",
						"type": "t_string_storage"
					},
					{
						"astId": 1097,
						"contract": "minerpunk/ERC721A/ERC721A.sol:ERC721A",
						"label": "_symbol",
						"offset": 0,
						"slot": "8",
						"type": "t_string_storage"
					},
					{
						"astId": 1102,
						"contract": "minerpunk/ERC721A/ERC721A.sol:ERC721A",
						"label": "_ownerships",
						"offset": 0,
						"slot": "9",
						"type": "t_mapping(t_uint256,t_struct(TokenOwnership)2864_storage)"
					},
					{
						"astId": 1107,
						"contract": "minerpunk/ERC721A/ERC721A.sol:ERC721A",
						"label": "_addressData",
						"offset": 0,
						"slot": "10",
						"type": "t_mapping(t_address,t_struct(AddressData)2873_storage)"
					},
					{
						"astId": 1111,
						"contract": "minerpunk/ERC721A/ERC721A.sol:ERC721A",
						"label": "_tokenApprovals",
						"offset": 0,
						"slot": "11",
						"type": "t_mapping(t_uint256,t_address)"
					},
					{
						"astId": 1117,
						"contract": "minerpunk/ERC721A/ERC721A.sol:ERC721A",
						"label": "_operatorApprovals",
						"offset": 0,
						"slot": "12",
						"type": "t_mapping(t_address,t_mapping(t_address,t_bool))"
					},
					{
						"astId": 1124,
						"contract": "minerpunk/ERC721A/ERC721A.sol:ERC721A",
						"label": "_mineInfo",
						"offset": 0,
						"slot": "13",
						"type": "t_mapping(t_address,t_mapping(t_uint256,t_uint256))"
					}
				],
				"types": {
					"t_address": {
						"encoding": "inplace",
						"label": "address",
						"numberOfBytes": "20"
					},
					"t_bool": {
						"encoding": "inplace",
						"label": "bool",
						"numberOfBytes": "1"
					},
					"t_mapping(t_address,t_bool)": {
						"encoding": "mapping",
						"key": "t_address",
						"label": "mapping(address => bool)",
						"numberOfBytes": "32",
						"value": "t_bool"
					},
					"t_mapping(t_address,t_mapping(t_address,t_bool))": {
						"encoding": "mapping",
						"key": "t_address",
						"label": "mapping(address => mapping(address => bool))",
						"numberOfBytes": "32",
						"value": "t_mapping(t_address,t_bool)"
					},
					"t_mapping(t_address,t_mapping(t_uint256,t_uint256))": {
						"encoding": "mapping",
						"key": "t_address",
						"label": "mapping(address => mapping(uint256 => uint256))",
						"numberOfBytes": "32",
						"value": "t_mapping(t_uint256,t_uint256)"
					},
					"t_mapping(t_address,t_struct(AddressData)2873_storage)": {
						"encoding": "mapping",
						"key": "t_address",
						"label": "mapping(address => struct IERC721A.AddressData)",
						"numberOfBytes": "32",
						"value": "t_struct(AddressData)2873_storage"
					},
					"t_mapping(t_uint256,t_address)": {
						"encoding": "mapping",
						"key": "t_uint256",
						"label": "mapping(uint256 => address)",
						"numberOfBytes": "32",
						"value": "t_address"
					},
					"t_mapping(t_uint256,t_struct(TokenOwnership)2864_storage)": {
						"encoding": "mapping",
						"key": "t_uint256",
						"label": "mapping(uint256 => struct IERC721A.TokenOwnership)",
						"numberOfBytes": "32",
						"value": "t_struct(TokenOwnership)2864_storage"
					},
					"t_mapping(t_uint256,t_uint256)": {
						"encoding": "mapping",
						"key": "t_uint256",
						"label": "mapping(uint256 => uint256)",
						"numberOfBytes": "32",
						"value": "t_uint256"
					},
					"t_string_storage": {
						"encoding": "bytes",
						"label": "string",
						"numberOfBytes": "32"
					},
					"t_struct(AddressData)2873_storage": {
						"encoding": "inplace",
						"label": "struct IERC721A.AddressData",
						"members": [
							{
								"astId": 2866,
								"contract": "minerpunk/ERC721A/ERC721A.sol:ERC721A",
								"label": "balance",
								"offset": 0,
								"slot": "0",
								"type": "t_uint64"
							},
							{
								"astId": 2868,
								"contract": "minerpunk/ERC721A/ERC721A.sol:ERC721A",
								"label": "numberMinted",
								"offset": 8,
								"slot": "0",
								"type": "t_uint64"
							},
							{
								"astId": 2870,
								"contract": "minerpunk/ERC721A/ERC721A.sol:ERC721A",
								"label": "numberBurned",
								"offset": 16,
								"slot": "0",
								"type": "t_uint64"
							},
							{
								"astId": 2872,
								"contract": "minerpunk/ERC721A/ERC721A.sol:ERC721A",
								"label": "aux",
								"offset": 24,
								"slot": "0",
								"type": "t_uint64"
							}
						],
						"numberOfBytes": "32"
					},
					"t_struct(TokenOwnership)2864_storage": {
						"encoding": "inplace",
						"label": "struct IERC721A.TokenOwnership",
						"members": [
							{
								"astId": 2859,
								"contract": "minerpunk/ERC721A/ERC721A.sol:ERC721A",
								"label": "addr",
								"offset": 0,
								"slot": "0",
								"type": "t_address"
							},
							{
								"astId": 2861,
								"contract": "minerpunk/ERC721A/ERC721A.sol:ERC721A",
								"label": "startTimestamp",
								"offset": 20,
								"slot": "0",
								"type": "t_uint64"
							},
							{
								"astId": 2863,
								"contract": "minerpunk/ERC721A/ERC721A.sol:ERC721A",
								"label": "burned",
								"offset": 28,
								"slot": "0",
								"type": "t_bool"
							}
						],
						"numberOfBytes": "32"
					},
					"t_uint256": {
						"encoding": "inplace",
						"label": "uint256",
						"numberOfBytes": "32"
					},
					"t_uint64": {
						"encoding": "inplace",
						"label": "uint64",
						"numberOfBytes": "8"
					}
				}
			},
			"userdoc": {
				"errors": {
					"ApprovalCallerNotOwnerNorApproved()": [
						{
							"notice": "The caller must own the token or be an approved operator."
						}
					],
					"ApprovalQueryForNonexistentToken()": [
						{
							"notice": "The token does not exist."
						}
					],
					"ApprovalToCurrentOwner()": [
						{
							"notice": "The caller cannot approve to the current owner."
						}
					],
					"ApproveToCaller()": [
						{
							"notice": "The caller cannot approve to their own address."
						}
					],
					"BalanceQueryForZeroAddress()": [
						{
							"notice": "Cannot query the balance for the zero address."
						}
					],
					"MintToZeroAddress()": [
						{
							"notice": "Cannot mint to the zero address."
						}
					],
					"MintZeroQuantity()": [
						{
							"notice": "The quantity of tokens minted must be more than zero."
						}
					],
					"OwnerQueryForNonexistentToken()": [
						{
							"notice": "The token does not exist."
						}
					],
					"TransferCallerNotOwnerNorApproved()": [
						{
							"notice": "The caller must own the token or be an approved operator."
						}
					],
					"TransferFromIncorrectOwner()": [
						{
							"notice": "The token must be owned by `from`."
						}
					],
					"TransferToNonERC721ReceiverImplementer()": [
						{
							"notice": "Cannot safely transfer to a contract that does not implement the ERC721Receiver interface."
						}
					],
					"TransferToZeroAddress()": [
						{
							"notice": "Cannot transfer to the zero address."
						}
					],
					"URIQueryForNonexistentToken()": [
						{
							"notice": "The token does not exist."
						}
					]
				},
				"kind": "user",
				"methods": {},
				"version": 1
			}
		}
	}
}