{
	"minerpunk/ERC721A/ERC721A.sol": {
		"ERC721A": {
			"abi": [
				{
					"inputs": [
						{
							"internalType": "string",
							"name": "name_",
							"type": "string"
						},
						{
							"internalType": "string",
							"name": "symbol_",
							"type": "string"
						},
						{
							"internalType": "uint256",
							"name": "salt_",
							"type": "uint256"
						}
					],
					"stateMutability": "nonpayable",
					"type": "constructor"
				},
				{
					"inputs": [],
					"name": "ApprovalCallerNotOwnerNorApproved",
					"type": "error"
				},
				{
					"inputs": [],
					"name": "ApprovalQueryForNonexistentToken",
					"type": "error"
				},
				{
					"inputs": [],
					"name": "ApprovalToCurrentOwner",
					"type": "error"
				},
				{
					"inputs": [],
					"name": "ApproveToCaller",
					"type": "error"
				},
				{
					"inputs": [],
					"name": "BalanceQueryForZeroAddress",
					"type": "error"
				},
				{
					"inputs": [],
					"name": "MintToZeroAddress",
					"type": "error"
				},
				{
					"inputs": [],
					"name": "MintZeroQuantity",
					"type": "error"
				},
				{
					"inputs": [],
					"name": "OwnerQueryForNonexistentToken",
					"type": "error"
				},
				{
					"inputs": [],
					"name": "TransferCallerNotOwnerNorApproved",
					"type": "error"
				},
				{
					"inputs": [],
					"name": "TransferFromIncorrectOwner",
					"type": "error"
				},
				{
					"inputs": [],
					"name": "TransferToNonERC721ReceiverImplementer",
					"type": "error"
				},
				{
					"inputs": [],
					"name": "TransferToZeroAddress",
					"type": "error"
				},
				{
					"inputs": [],
					"name": "URIQueryForNonexistentToken",
					"type": "error"
				},
				{
					"anonymous": false,
					"inputs": [
						{
							"indexed": true,
							"internalType": "address",
							"name": "owner",
							"type": "address"
						},
						{
							"indexed": true,
							"internalType": "address",
							"name": "approved",
							"type": "address"
						},
						{
							"indexed": true,
							"internalType": "uint256",
							"name": "tokenId",
							"type": "uint256"
						}
					],
					"name": "Approval",
					"type": "event"
				},
				{
					"anonymous": false,
					"inputs": [
						{
							"indexed": true,
							"internalType": "address",
							"name": "owner",
							"type": "address"
						},
						{
							"indexed": true,
							"internalType": "address",
							"name": "operator",
							"type": "address"
						},
						{
							"indexed": false,
							"internalType": "bool",
							"name": "approved",
							"type": "bool"
						}
					],
					"name": "ApprovalForAll",
					"type": "event"
				},
				{
					"anonymous": false,
					"inputs": [
						{
							"indexed": true,
							"internalType": "address",
							"name": "from",
							"type": "address"
						},
						{
							"indexed": true,
							"internalType": "address",
							"name": "to",
							"type": "address"
						},
						{
							"indexed": true,
							"internalType": "uint256",
							"name": "tokenId",
							"type": "uint256"
						}
					],
					"name": "Transfer",
					"type": "event"
				},
				{
					"inputs": [
						{
							"internalType": "address",
							"name": "user",
							"type": "address"
						}
					],
					"name": "MineStatus",
					"outputs": [
						{
							"internalType": "uint256",
							"name": "",
							"type": "uint256"
						}
					],
					"stateMutability": "view",
					"type": "function"
				},
				{
					"inputs": [
						{
							"internalType": "address",
							"name": "to",
							"type": "address"
						},
						{
							"internalType": "uint256",
							"name": "tokenId",
							"type": "uint256"
						}
					],
					"name": "approve",
					"outputs": [],
					"stateMutability": "nonpayable",
					"type": "function"
				},
				{
					"inputs": [
						{
							"internalType": "address",
							"name": "owner",
							"type": "address"
						}
					],
					"name": "balanceOf",
					"outputs": [
						{
							"internalType": "uint256",
							"name": "",
							"type": "uint256"
						}
					],
					"stateMutability": "view",
					"type": "function"
				},
				{
					"inputs": [
						{
							"internalType": "uint256",
							"name": "_BlockNumber",
							"type": "uint256"
						}
					],
					"name": "blockStatus",
					"outputs": [
						{
							"internalType": "uint256",
							"name": "",
							"type": "uint256"
						}
					],
					"stateMutability": "view",
					"type": "function"
				},
				{
					"inputs": [
						{
							"internalType": "uint256",
							"name": "tokenId",
							"type": "uint256"
						}
					],
					"name": "getApproved",
					"outputs": [
						{
							"internalType": "address",
							"name": "",
							"type": "address"
						}
					],
					"stateMutability": "view",
					"type": "function"
				},
				{
					"inputs": [
						{
							"internalType": "address",
							"name": "owner",
							"type": "address"
						},
						{
							"internalType": "address",
							"name": "operator",
							"type": "address"
						}
					],
					"name": "isApprovedForAll",
					"outputs": [
						{
							"internalType": "bool",
							"name": "",
							"type": "bool"
						}
					],
					"stateMutability": "view",
					"type": "function"
				},
				{
					"inputs": [],
					"name": "maxSupply",
					"outputs": [
						{
							"internalType": "uint256",
							"name": "",
							"type": "uint256"
						}
					],
					"stateMutability": "view",
					"type": "function"
				},
				{
					"inputs": [
						{
							"internalType": "address",
							"name": "user",
							"type": "address"
						},
						{
							"internalType": "uint256",
							"name": "number",
							"type": "uint256"
						}
					],
					"name": "mineInfo",
					"outputs": [
						{
							"internalType": "uint256",
							"name": "",
							"type": "uint256"
						}
					],
					"stateMutability": "view",
					"type": "function"
				},
				{
					"inputs": [],
					"name": "name",
					"outputs": [
						{
							"internalType": "string",
							"name": "",
							"type": "string"
						}
					],
					"stateMutability": "view",
					"type": "function"
				},
				{
					"inputs": [
						{
							"internalType": "uint256",
							"name": "tokenId",
							"type": "uint256"
						}
					],
					"name": "ownerOf",
					"outputs": [
						{
							"internalType": "address",
							"name": "",
							"type": "address"
						}
					],
					"stateMutability": "view",
					"type": "function"
				},
				{
					"inputs": [
						{
							"internalType": "address",
							"name": "from",
							"type": "address"
						},
						{
							"internalType": "address",
							"name": "to",
							"type": "address"
						},
						{
							"internalType": "uint256",
							"name": "tokenId",
							"type": "uint256"
						}
					],
					"name": "safeTransferFrom",
					"outputs": [],
					"stateMutability": "nonpayable",
					"type": "function"
				},
				{
					"inputs": [
						{
							"internalType": "address",
							"name": "from",
							"type": "address"
						},
						{
							"internalType": "address",
							"name": "to",
							"type": "address"
						},
						{
							"internalType": "uint256",
							"name": "tokenId",
							"type": "uint256"
						},
						{
							"internalType": "bytes",
							"name": "_data",
							"type": "bytes"
						}
					],
					"name": "safeTransferFrom",
					"outputs": [],
					"stateMutability": "nonpayable",
					"type": "function"
				},
				{
					"inputs": [
						{
							"internalType": "address",
							"name": "operator",
							"type": "address"
						},
						{
							"internalType": "bool",
							"name": "approved",
							"type": "bool"
						}
					],
					"name": "setApprovalForAll",
					"outputs": [],
					"stateMutability": "nonpayable",
					"type": "function"
				},
				{
					"inputs": [
						{
							"internalType": "bytes4",
							"name": "interfaceId",
							"type": "bytes4"
						}
					],
					"name": "supportsInterface",
					"outputs": [
						{
							"internalType": "bool",
							"name": "",
							"type": "bool"
						}
					],
					"stateMutability": "view",
					"type": "function"
				},
				{
					"inputs": [],
					"name": "symbol",
					"outputs": [
						{
							"internalType": "string",
							"name": "",
							"type": "string"
						}
					],
					"stateMutability": "view",
					"type": "function"
				},
				{
					"inputs": [
						{
							"internalType": "uint256",
							"name": "tokenId",
							"type": "uint256"
						}
					],
					"name": "tokenIDPower",
					"outputs": [
						{
							"internalType": "uint256",
							"name": "",
							"type": "uint256"
						}
					],
					"stateMutability": "view",
					"type": "function"
				},
				{
					"inputs": [
						{
							"internalType": "uint256",
							"name": "tokenId",
							"type": "uint256"
						}
					],
					"name": "tokenURI",
					"outputs": [
						{
							"internalType": "string",
							"name": "",
							"type": "string"
						}
					],
					"stateMutability": "view",
					"type": "function"
				},
				{
					"inputs": [],
					"name": "totalPower",
					"outputs": [
						{
							"internalType": "uint256",
							"name": "",
							"type": "uint256"
						}
					],
					"stateMutability": "view",
					"type": "function"
				},
				{
					"inputs": [],
					"name": "totalSupply",
					"outputs": [
						{
							"internalType": "uint256",
							"name": "",
							"type": "uint256"
						}
					],
					"stateMutability": "view",
					"type": "function"
				},
				{
					"inputs": [
						{
							"internalType": "address",
							"name": "from",
							"type": "address"
						},
						{
							"internalType": "address",
							"name": "to",
							"type": "address"
						},
						{
							"internalType": "uint256",
							"name": "tokenId",
							"type": "uint256"
						}
					],
					"name": "transferFrom",
					"outputs": [],
					"stateMutability": "nonpayable",
					"type": "function"
				}
			],
			"devdoc": {
				"details": "Implementation of https://eips.ethereum.org/EIPS/eip-721[ERC721] Non-Fungible Token Standard, including the Metadata extension. Built to optimize for lower gas during batch mints. Assumes serials are sequentially minted starting at _startTokenId() (defaults to 0, e.g. 0, 1, 2, 3..). Assumes that an owner cannot have more than 2**64 - 1 (max value of uint64) of supply. Assumes that the maximum token id cannot exceed 2**256 - 1 (max value of uint256).",
				"kind": "dev",
				"methods": {
					"approve(address,uint256)": {
						"details": "See {IERC721-approve}."
					},
					"balanceOf(address)": {
						"details": "See {IERC721-balanceOf}."
					},
					"getApproved(uint256)": {
						"details": "See {IERC721-getApproved}."
					},
					"isApprovedForAll(address,address)": {
						"details": "See {IERC721-isApprovedForAll}."
					},
					"name()": {
						"details": "See {IERC721Metadata-name}."
					},
					"ownerOf(uint256)": {
						"details": "See {IERC721-ownerOf}."
					},
					"safeTransferFrom(address,address,uint256)": {
						"details": "See {IERC721-safeTransferFrom}."
					},
					"safeTransferFrom(address,address,uint256,bytes)": {
						"details": "See {IERC721-safeTransferFrom}."
					},
					"setApprovalForAll(address,bool)": {
						"details": "See {IERC721-setApprovalForAll}."
					},
					"supportsInterface(bytes4)": {
						"details": "See {IERC165-supportsInterface}."
					},
					"symbol()": {
						"details": "See {IERC721Metadata-symbol}."
					},
					"tokenURI(uint256)": {
						"details": "See {IERC721Metadata-tokenURI}."
					},
					"totalSupply()": {
						"details": "Burned tokens are calculated here, use _totalMinted() if you want to count just minted tokens."
					},
					"transferFrom(address,address,uint256)": {
						"details": "See {IERC721-transferFrom}."
					}
				},
				"version": 1
			},
			"evm": {
				"assembly": "    /* \"minerpunk/ERC721A/ERC721A.sol\":1033:24141  contract ERC721A is Context, ERC165, IERC721A,mine {... */\n  mstore(0x40, 0x80)\n    /* \"minerpunk/ERC721A/ERC721A.sol\":2444:2807  constructor(string memory name_, string memory symbol_, uint256 salt_) {... */\n  callvalue\n  dup1\n  iszero\n  tag_1\n  jumpi\n  0x00\n  dup1\n  revert\ntag_1:\n  pop\n  mload(0x40)\n  sub(codesize, bytecodeSize)\n  dup1\n  bytecodeSize\n  dup4\n  codecopy\n  dup2\n  dup2\n  add\n  0x40\n  mstore\n  dup2\n  add\n  swap1\n  tag_2\n  swap2\n  swap1\n  tag_3\n  jump\t// in\ntag_2:\n    /* \"minerpunk/ERC721A/ERC721A.sol\":2534:2539  name_ */\n  dup3\n    /* \"minerpunk/ERC721A/ERC721A.sol\":2526:2531  _name */\n  0x07\n    /* \"minerpunk/ERC721A/ERC721A.sol\":2526:2539  _name = name_ */\n  swap1\n  dup2\n  tag_6\n  swap2\n  swap1\n  tag_7\n  jump\t// in\ntag_6:\n  pop\n    /* \"minerpunk/ERC721A/ERC721A.sol\":2560:2567  symbol_ */\n  dup2\n    /* \"minerpunk/ERC721A/ERC721A.sol\":2550:2557  _symbol */\n  0x08\n    /* \"minerpunk/ERC721A/ERC721A.sol\":2550:2567  _symbol = symbol_ */\n  swap1\n  dup2\n  tag_8\n  swap2\n  swap1\n  tag_7\n  jump\t// in\ntag_8:\n  pop\n    /* \"minerpunk/ERC721A/ERC721A.sol\":2591:2596  10000 */\n  0x2710\n    /* \"minerpunk/ERC721A/ERC721A.sol\":2578:2588  _maxSupply */\n  0x05\n    /* \"minerpunk/ERC721A/ERC721A.sol\":2578:2596  _maxSupply = 10000 */\n  dup2\n  swap1\n  sstore\n  pop\n    /* \"minerpunk/ERC721A/ERC721A.sol\":2623:2638  _startTokenId() */\n  tag_9\n    /* \"minerpunk/ERC721A/ERC721A.sol\":2623:2636  _startTokenId */\n  shl(0x20, tag_10)\n    /* \"minerpunk/ERC721A/ERC721A.sol\":2623:2638  _startTokenId() */\n  0x20\n  shr\n  jump\t// in\ntag_9:\n    /* \"minerpunk/ERC721A/ERC721A.sol\":2607:2620  _currentIndex */\n  0x04\n    /* \"minerpunk/ERC721A/ERC721A.sol\":2607:2638  _currentIndex = _startTokenId() */\n  dup2\n  swap1\n  sstore\n  pop\n    /* \"minerpunk/ERC721A/ERC721A.sol\":2658:2663  salt_ */\n  dup1\n    /* \"minerpunk/ERC721A/ERC721A.sol\":2650:2655  _salt */\n  0x00\n    /* \"minerpunk/ERC721A/ERC721A.sol\":2650:2663  _salt = salt_ */\n  dup2\n  swap1\n  sstore\n  pop\n    /* \"minerpunk/ERC721A/ERC721A.sol\":2681:2714  uint256(1500000).mul(80000000e18) */\n  tag_11\n    /* \"minerpunk/ERC721A/ERC721A.sol\":2702:2713  80000000e18 */\n  0x422ca8b0a00a4250000000\n    /* \"minerpunk/ERC721A/ERC721A.sol\":2689:2696  1500000 */\n  0x16e360\n    /* \"minerpunk/ERC721A/ERC721A.sol\":2681:2701  uint256(1500000).mul */\n  or(tag_0_108, shl(0x20, tag_12))\n  swap1\n    /* \"minerpunk/ERC721A/ERC721A.sol\":2681:2714  uint256(1500000).mul(80000000e18) */\n  swap2\n  swap1\n  0x20\n  shr\n  jump\t// in\ntag_11:\n    /* \"minerpunk/ERC721A/ERC721A.sol\":2676:2678  _K */\n  0x01\n    /* \"minerpunk/ERC721A/ERC721A.sol\":2676:2714  _K = uint256(1500000).mul(80000000e18) */\n  dup2\n  swap1\n  sstore\n  pop\n    /* \"minerpunk/ERC721A/ERC721A.sol\":2742:2747  46000 */\n  0xb3b0\n    /* \"minerpunk/ERC721A/ERC721A.sol\":2728:2739  _totalPower */\n  0x03\n    /* \"minerpunk/ERC721A/ERC721A.sol\":2728:2747  _totalPower = 46000 */\n  dup2\n  swap1\n  sstore\n  pop\n    /* \"minerpunk/ERC721A/ERC721A.sol\":2778:2790  block.number */\n  number\n    /* \"minerpunk/ERC721A/ERC721A.sol\":2758:2775  _startBlockNumber */\n  0x02\n    /* \"minerpunk/ERC721A/ERC721A.sol\":2758:2790  _startBlockNumber = block.number */\n  dup2\n  swap1\n  sstore\n  pop\n    /* \"minerpunk/ERC721A/ERC721A.sol\":2444:2807  constructor(string memory name_, string memory symbol_, uint256 salt_) {... */\n  pop\n  pop\n  pop\n    /* \"minerpunk/ERC721A/ERC721A.sol\":1033:24141  contract ERC721A is Context, ERC165, IERC721A,mine {... */\n  jump(tag_13)\n    /* \"minerpunk/ERC721A/ERC721A.sol\":3983:4075  function _startTokenId() internal view virtual returns (uint256) {... */\ntag_10:\n    /* \"minerpunk/ERC721A/ERC721A.sol\":4039:4046  uint256 */\n  0x00\n    /* \"minerpunk/ERC721A/ERC721A.sol\":3983:4075  function _startTokenId() internal view virtual returns (uint256) {... */\n  swap1\n  jump\t// out\n    /* \"@openzeppelin/contracts/utils/math/SafeMath.sol\":3465:3561  function mul(uint256 a, uint256 b) internal pure returns (uint256) {... */\ntag_12:\n    /* \"@openzeppelin/contracts/utils/math/SafeMath.sol\":3523:3530  uint256 */\n  0x00\n    /* \"@openzeppelin/contracts/utils/math/SafeMath.sol\":3553:3554  b */\n  dup2\n    /* \"@openzeppelin/contracts/utils/math/SafeMath.sol\":3549:3550  a */\n  dup4\n    /* \"@openzeppelin/contracts/utils/math/SafeMath.sol\":3549:3554  a * b */\n  tag_16\n  swap2\n  swap1\n  tag_17\n  jump\t// in\ntag_16:\n    /* \"@openzeppelin/contracts/utils/math/SafeMath.sol\":3542:3554  return a * b */\n  swap1\n  pop\n    /* \"@openzeppelin/contracts/utils/math/SafeMath.sol\":3465:3561  function mul(uint256 a, uint256 b) internal pure returns (uint256) {... */\n  swap3\n  swap2\n  pop\n  pop\n  jump\t// out\n    /* \"#utility.yul\":7:82   */\ntag_18:\n    /* \"#utility.yul\":40:46   */\n  0x00\n    /* \"#utility.yul\":73:75   */\n  0x40\n    /* \"#utility.yul\":67:76   */\n  mload\n    /* \"#utility.yul\":57:76   */\n  swap1\n  pop\n    /* \"#utility.yul\":7:82   */\n  swap1\n  jump\t// out\n    /* \"#utility.yul\":88:205   */\ntag_19:\n    /* \"#utility.yul\":197:198   */\n  0x00\n    /* \"#utility.yul\":194:195   */\n  dup1\n    /* \"#utility.yul\":187:199   */\n  revert\n    /* \"#utility.yul\":211:328   */\ntag_20:\n    /* \"#utility.yul\":320:321   */\n  0x00\n    /* \"#utility.yul\":317:318   */\n  dup1\n    /* \"#utility.yul\":310:322   */\n  revert\n    /* \"#utility.yul\":334:451   */\ntag_21:\n    /* \"#utility.yul\":443:444   */\n  0x00\n    /* \"#utility.yul\":440:441   */\n  dup1\n    /* \"#utility.yul\":433:445   */\n  revert\n    /* \"#utility.yul\":457:574   */\ntag_22:\n    /* \"#utility.yul\":566:567   */\n  0x00\n    /* \"#utility.yul\":563:564   */\n  dup1\n    /* \"#utility.yul\":556:568   */\n  revert\n    /* \"#utility.yul\":580:682   */\ntag_23:\n    /* \"#utility.yul\":621:627   */\n  0x00\n    /* \"#utility.yul\":672:674   */\n  0x1f\n    /* \"#utility.yul\":668:675   */\n  not\n    /* \"#utility.yul\":663:665   */\n  0x1f\n    /* \"#utility.yul\":656:661   */\n  dup4\n    /* \"#utility.yul\":652:666   */\n  add\n    /* \"#utility.yul\":648:676   */\n  and\n    /* \"#utility.yul\":638:676   */\n  swap1\n  pop\n    /* \"#utility.yul\":580:682   */\n  swap2\n  swap1\n  pop\n  jump\t// out\n    /* \"#utility.yul\":688:868   */\ntag_24:\n    /* \"#utility.yul\":736:813   */\n  0x4e487b7100000000000000000000000000000000000000000000000000000000\n    /* \"#utility.yul\":733:734   */\n  0x00\n    /* \"#utility.yul\":726:814   */\n  mstore\n    /* \"#utility.yul\":833:837   */\n  0x41\n    /* \"#utility.yul\":830:831   */\n  0x04\n    /* \"#utility.yul\":823:838   */\n  mstore\n    /* \"#utility.yul\":857:861   */\n  0x24\n    /* \"#utility.yul\":854:855   */\n  0x00\n    /* \"#utility.yul\":847:862   */\n  revert\n    /* \"#utility.yul\":874:1155   */\ntag_25:\n    /* \"#utility.yul\":957:984   */\n  tag_62\n    /* \"#utility.yul\":979:983   */\n  dup3\n    /* \"#utility.yul\":957:984   */\n  tag_23\n  jump\t// in\ntag_62:\n    /* \"#utility.yul\":949:955   */\n  dup2\n    /* \"#utility.yul\":945:985   */\n  add\n    /* \"#utility.yul\":1087:1093   */\n  dup2\n    /* \"#utility.yul\":1075:1085   */\n  dup2\n    /* \"#utility.yul\":1072:1094   */\n  lt\n    /* \"#utility.yul\":1051:1069   */\n  0xffffffffffffffff\n    /* \"#utility.yul\":1039:1049   */\n  dup3\n    /* \"#utility.yul\":1036:1070   */\n  gt\n    /* \"#utility.yul\":1033:1095   */\n  or\n    /* \"#utility.yul\":1030:1118   */\n  iszero\n  tag_63\n  jumpi\n    /* \"#utility.yul\":1098:1116   */\n  tag_64\n  tag_24\n  jump\t// in\ntag_64:\n    /* \"#utility.yul\":1030:1118   */\ntag_63:\n    /* \"#utility.yul\":1138:1148   */\n  dup1\n    /* \"#utility.yul\":1134:1136   */\n  0x40\n    /* \"#utility.yul\":1127:1149   */\n  mstore\n    /* \"#utility.yul\":917:1155   */\n  pop\n    /* \"#utility.yul\":874:1155   */\n  pop\n  pop\n  jump\t// out\n    /* \"#utility.yul\":1161:1290   */\ntag_26:\n    /* \"#utility.yul\":1195:1201   */\n  0x00\n    /* \"#utility.yul\":1222:1242   */\n  tag_66\n  tag_18\n  jump\t// in\ntag_66:\n    /* \"#utility.yul\":1212:1242   */\n  swap1\n  pop\n    /* \"#utility.yul\":1251:1284   */\n  tag_67\n    /* \"#utility.yul\":1279:1283   */\n  dup3\n    /* \"#utility.yul\":1271:1277   */\n  dup3\n    /* \"#utility.yul\":1251:1284   */\n  tag_25\n  jump\t// in\ntag_67:\n    /* \"#utility.yul\":1161:1290   */\n  swap2\n  swap1\n  pop\n  jump\t// out\n    /* \"#utility.yul\":1296:1604   */\ntag_27:\n    /* \"#utility.yul\":1358:1362   */\n  0x00\n    /* \"#utility.yul\":1448:1466   */\n  0xffffffffffffffff\n    /* \"#utility.yul\":1440:1446   */\n  dup3\n    /* \"#utility.yul\":1437:1467   */\n  gt\n    /* \"#utility.yul\":1434:1490   */\n  iszero\n  tag_69\n  jumpi\n    /* \"#utility.yul\":1470:1488   */\n  tag_70\n  tag_24\n  jump\t// in\ntag_70:\n    /* \"#utility.yul\":1434:1490   */\ntag_69:\n    /* \"#utility.yul\":1508:1537   */\n  tag_71\n    /* \"#utility.yul\":1530:1536   */\n  dup3\n    /* \"#utility.yul\":1508:1537   */\n  tag_23\n  jump\t// in\ntag_71:\n    /* \"#utility.yul\":1500:1537   */\n  swap1\n  pop\n    /* \"#utility.yul\":1592:1596   */\n  0x20\n    /* \"#utility.yul\":1586:1590   */\n  dup2\n    /* \"#utility.yul\":1582:1597   */\n  add\n    /* \"#utility.yul\":1574:1597   */\n  swap1\n  pop\n    /* \"#utility.yul\":1296:1604   */\n  swap2\n  swap1\n  pop\n  jump\t// out\n    /* \"#utility.yul\":1610:1856   */\ntag_28:\n    /* \"#utility.yul\":1691:1692   */\n  0x00\n    /* \"#utility.yul\":1701:1814   */\ntag_73:\n    /* \"#utility.yul\":1715:1721   */\n  dup4\n    /* \"#utility.yul\":1712:1713   */\n  dup2\n    /* \"#utility.yul\":1709:1722   */\n  lt\n    /* \"#utility.yul\":1701:1814   */\n  iszero\n  tag_75\n  jumpi\n    /* \"#utility.yul\":1800:1801   */\n  dup1\n    /* \"#utility.yul\":1795:1798   */\n  dup3\n    /* \"#utility.yul\":1791:1802   */\n  add\n    /* \"#utility.yul\":1785:1803   */\n  mload\n    /* \"#utility.yul\":1781:1782   */\n  dup2\n    /* \"#utility.yul\":1776:1779   */\n  dup5\n    /* \"#utility.yul\":1772:1783   */\n  add\n    /* \"#utility.yul\":1765:1804   */\n  mstore\n    /* \"#utility.yul\":1737:1739   */\n  0x20\n    /* \"#utility.yul\":1734:1735   */\n  dup2\n    /* \"#utility.yul\":1730:1740   */\n  add\n    /* \"#utility.yul\":1725:1740   */\n  swap1\n  pop\n    /* \"#utility.yul\":1701:1814   */\n  jump(tag_73)\ntag_75:\n    /* \"#utility.yul\":1848:1849   */\n  0x00\n    /* \"#utility.yul\":1839:1845   */\n  dup5\n    /* \"#utility.yul\":1834:1837   */\n  dup5\n    /* \"#utility.yul\":1830:1846   */\n  add\n    /* \"#utility.yul\":1823:1850   */\n  mstore\n    /* \"#utility.yul\":1672:1856   */\n  pop\n    /* \"#utility.yul\":1610:1856   */\n  pop\n  pop\n  pop\n  jump\t// out\n    /* \"#utility.yul\":1862:2296   */\ntag_29:\n    /* \"#utility.yul\":1951:1956   */\n  0x00\n    /* \"#utility.yul\":1976:2042   */\n  tag_77\n    /* \"#utility.yul\":1992:2041   */\n  tag_78\n    /* \"#utility.yul\":2034:2040   */\n  dup5\n    /* \"#utility.yul\":1992:2041   */\n  tag_27\n  jump\t// in\ntag_78:\n    /* \"#utility.yul\":1976:2042   */\n  tag_26\n  jump\t// in\ntag_77:\n    /* \"#utility.yul\":1967:2042   */\n  swap1\n  pop\n    /* \"#utility.yul\":2065:2071   */\n  dup3\n    /* \"#utility.yul\":2058:2063   */\n  dup2\n    /* \"#utility.yul\":2051:2072   */\n  mstore\n    /* \"#utility.yul\":2103:2107   */\n  0x20\n    /* \"#utility.yul\":2096:2101   */\n  dup2\n    /* \"#utility.yul\":2092:2108   */\n  add\n    /* \"#utility.yul\":2141:2144   */\n  dup5\n    /* \"#utility.yul\":2132:2138   */\n  dup5\n    /* \"#utility.yul\":2127:2130   */\n  dup5\n    /* \"#utility.yul\":2123:2139   */\n  add\n    /* \"#utility.yul\":2120:2145   */\n  gt\n    /* \"#utility.yul\":2117:2229   */\n  iszero\n  tag_79\n  jumpi\n    /* \"#utility.yul\":2148:2227   */\n  tag_80\n  tag_22\n  jump\t// in\ntag_80:\n    /* \"#utility.yul\":2117:2229   */\ntag_79:\n    /* \"#utility.yul\":2238:2290   */\n  tag_81\n    /* \"#utility.yul\":2283:2289   */\n  dup5\n    /* \"#utility.yul\":2278:2281   */\n  dup3\n    /* \"#utility.yul\":2273:2276   */\n  dup6\n    /* \"#utility.yul\":2238:2290   */\n  tag_28\n  jump\t// in\ntag_81:\n    /* \"#utility.yul\":1957:2296   */\n  pop\n    /* \"#utility.yul\":1862:2296   */\n  swap4\n  swap3\n  pop\n  pop\n  pop\n  jump\t// out\n    /* \"#utility.yul\":2316:2671   */\ntag_30:\n    /* \"#utility.yul\":2383:2388   */\n  0x00\n    /* \"#utility.yul\":2432:2435   */\n  dup3\n    /* \"#utility.yul\":2425:2429   */\n  0x1f\n    /* \"#utility.yul\":2417:2423   */\n  dup4\n    /* \"#utility.yul\":2413:2430   */\n  add\n    /* \"#utility.yul\":2409:2436   */\n  slt\n    /* \"#utility.yul\":2399:2521   */\n  tag_83\n  jumpi\n    /* \"#utility.yul\":2440:2519   */\n  tag_84\n  tag_21\n  jump\t// in\ntag_84:\n    /* \"#utility.yul\":2399:2521   */\ntag_83:\n    /* \"#utility.yul\":2550:2556   */\n  dup2\n    /* \"#utility.yul\":2544:2557   */\n  mload\n    /* \"#utility.yul\":2575:2665   */\n  tag_85\n    /* \"#utility.yul\":2661:2664   */\n  dup5\n    /* \"#utility.yul\":2653:2659   */\n  dup3\n    /* \"#utility.yul\":2646:2650   */\n  0x20\n    /* \"#utility.yul\":2638:2644   */\n  dup7\n    /* \"#utility.yul\":2634:2651   */\n  add\n    /* \"#utility.yul\":2575:2665   */\n  tag_29\n  jump\t// in\ntag_85:\n    /* \"#utility.yul\":2566:2665   */\n  swap2\n  pop\n    /* \"#utility.yul\":2389:2671   */\n  pop\n    /* \"#utility.yul\":2316:2671   */\n  swap3\n  swap2\n  pop\n  pop\n  jump\t// out\n    /* \"#utility.yul\":2677:2754   */\ntag_31:\n    /* \"#utility.yul\":2714:2721   */\n  0x00\n    /* \"#utility.yul\":2743:2748   */\n  dup2\n    /* \"#utility.yul\":2732:2748   */\n  swap1\n  pop\n    /* \"#utility.yul\":2677:2754   */\n  swap2\n  swap1\n  pop\n  jump\t// out\n    /* \"#utility.yul\":2760:2882   */\ntag_32:\n    /* \"#utility.yul\":2833:2857   */\n  tag_88\n    /* \"#utility.yul\":2851:2856   */\n  dup2\n    /* \"#utility.yul\":2833:2857   */\n  tag_31\n  jump\t// in\ntag_88:\n    /* \"#utility.yul\":2826:2831   */\n  dup2\n    /* \"#utility.yul\":2823:2858   */\n  eq\n    /* \"#utility.yul\":2813:2876   */\n  tag_89\n  jumpi\n    /* \"#utility.yul\":2872:2873   */\n  0x00\n    /* \"#utility.yul\":2869:2870   */\n  dup1\n    /* \"#utility.yul\":2862:2874   */\n  revert\n    /* \"#utility.yul\":2813:2876   */\ntag_89:\n    /* \"#utility.yul\":2760:2882   */\n  pop\n  jump\t// out\n    /* \"#utility.yul\":2888:3031   */\ntag_33:\n    /* \"#utility.yul\":2945:2950   */\n  0x00\n    /* \"#utility.yul\":2976:2982   */\n  dup2\n    /* \"#utility.yul\":2970:2983   */\n  mload\n    /* \"#utility.yul\":2961:2983   */\n  swap1\n  pop\n    /* \"#utility.yul\":2992:3025   */\n  tag_91\n    /* \"#utility.yul\":3019:3024   */\n  dup2\n    /* \"#utility.yul\":2992:3025   */\n  tag_32\n  jump\t// in\ntag_91:\n    /* \"#utility.yul\":2888:3031   */\n  swap3\n  swap2\n  pop\n  pop\n  jump\t// out\n    /* \"#utility.yul\":3037:4046   */\ntag_3:\n    /* \"#utility.yul\":3145:3151   */\n  0x00\n    /* \"#utility.yul\":3153:3159   */\n  dup1\n    /* \"#utility.yul\":3161:3167   */\n  0x00\n    /* \"#utility.yul\":3210:3212   */\n  0x60\n    /* \"#utility.yul\":3198:3207   */\n  dup5\n    /* \"#utility.yul\":3189:3196   */\n  dup7\n    /* \"#utility.yul\":3185:3208   */\n  sub\n    /* \"#utility.yul\":3181:3213   */\n  slt\n    /* \"#utility.yul\":3178:3297   */\n  iszero\n  tag_93\n  jumpi\n    /* \"#utility.yul\":3216:3295   */\n  tag_94\n  tag_19\n  jump\t// in\ntag_94:\n    /* \"#utility.yul\":3178:3297   */\ntag_93:\n    /* \"#utility.yul\":3357:3358   */\n  0x00\n    /* \"#utility.yul\":3346:3355   */\n  dup5\n    /* \"#utility.yul\":3342:3359   */\n  add\n    /* \"#utility.yul\":3336:3360   */\n  mload\n    /* \"#utility.yul\":3387:3405   */\n  0xffffffffffffffff\n    /* \"#utility.yul\":3379:3385   */\n  dup2\n    /* \"#utility.yul\":3376:3406   */\n  gt\n    /* \"#utility.yul\":3373:3490   */\n  iszero\n  tag_95\n  jumpi\n    /* \"#utility.yul\":3409:3488   */\n  tag_96\n  tag_20\n  jump\t// in\ntag_96:\n    /* \"#utility.yul\":3373:3490   */\ntag_95:\n    /* \"#utility.yul\":3514:3588   */\n  tag_97\n    /* \"#utility.yul\":3580:3587   */\n  dup7\n    /* \"#utility.yul\":3571:3577   */\n  dup3\n    /* \"#utility.yul\":3560:3569   */\n  dup8\n    /* \"#utility.yul\":3556:3578   */\n  add\n    /* \"#utility.yul\":3514:3588   */\n  tag_30\n  jump\t// in\ntag_97:\n    /* \"#utility.yul\":3504:3588   */\n  swap4\n  pop\n    /* \"#utility.yul\":3307:3598   */\n  pop\n    /* \"#utility.yul\":3658:3660   */\n  0x20\n    /* \"#utility.yul\":3647:3656   */\n  dup5\n    /* \"#utility.yul\":3643:3661   */\n  add\n    /* \"#utility.yul\":3637:3662   */\n  mload\n    /* \"#utility.yul\":3689:3707   */\n  0xffffffffffffffff\n    /* \"#utility.yul\":3681:3687   */\n  dup2\n    /* \"#utility.yul\":3678:3708   */\n  gt\n    /* \"#utility.yul\":3675:3792   */\n  iszero\n  tag_98\n  jumpi\n    /* \"#utility.yul\":3711:3790   */\n  tag_99\n  tag_20\n  jump\t// in\ntag_99:\n    /* \"#utility.yul\":3675:3792   */\ntag_98:\n    /* \"#utility.yul\":3816:3890   */\n  tag_100\n    /* \"#utility.yul\":3882:3889   */\n  dup7\n    /* \"#utility.yul\":3873:3879   */\n  dup3\n    /* \"#utility.yul\":3862:3871   */\n  dup8\n    /* \"#utility.yul\":3858:3880   */\n  add\n    /* \"#utility.yul\":3816:3890   */\n  tag_30\n  jump\t// in\ntag_100:\n    /* \"#utility.yul\":3806:3890   */\n  swap3\n  pop\n    /* \"#utility.yul\":3608:3900   */\n  pop\n    /* \"#utility.yul\":3939:3941   */\n  0x40\n    /* \"#utility.yul\":3965:4029   */\n  tag_101\n    /* \"#utility.yul\":4021:4028   */\n  dup7\n    /* \"#utility.yul\":4012:4018   */\n  dup3\n    /* \"#utility.yul\":4001:4010   */\n  dup8\n    /* \"#utility.yul\":3997:4019   */\n  add\n    /* \"#utility.yul\":3965:4029   */\n  tag_33\n  jump\t// in\ntag_101:\n    /* \"#utility.yul\":3955:4029   */\n  swap2\n  pop\n    /* \"#utility.yul\":3910:4039   */\n  pop\n    /* \"#utility.yul\":3037:4046   */\n  swap3\n  pop\n  swap3\n  pop\n  swap3\n  jump\t// out\n    /* \"#utility.yul\":4052:4151   */\ntag_34:\n    /* \"#utility.yul\":4104:4110   */\n  0x00\n    /* \"#utility.yul\":4138:4143   */\n  dup2\n    /* \"#utility.yul\":4132:4144   */\n  mload\n    /* \"#utility.yul\":4122:4144   */\n  swap1\n  pop\n    /* \"#utility.yul\":4052:4151   */\n  swap2\n  swap1\n  pop\n  jump\t// out\n    /* \"#utility.yul\":4157:4337   */\ntag_35:\n    /* \"#utility.yul\":4205:4282   */\n  0x4e487b7100000000000000000000000000000000000000000000000000000000\n    /* \"#utility.yul\":4202:4203   */\n  0x00\n    /* \"#utility.yul\":4195:4283   */\n  mstore\n    /* \"#utility.yul\":4302:4306   */\n  0x22\n    /* \"#utility.yul\":4299:4300   */\n  0x04\n    /* \"#utility.yul\":4292:4307   */\n  mstore\n    /* \"#utility.yul\":4326:4330   */\n  0x24\n    /* \"#utility.yul\":4323:4324   */\n  0x00\n    /* \"#utility.yul\":4316:4331   */\n  revert\n    /* \"#utility.yul\":4343:4663   */\ntag_36:\n    /* \"#utility.yul\":4387:4393   */\n  0x00\n    /* \"#utility.yul\":4424:4425   */\n  0x02\n    /* \"#utility.yul\":4418:4422   */\n  dup3\n    /* \"#utility.yul\":4414:4426   */\n  div\n    /* \"#utility.yul\":4404:4426   */\n  swap1\n  pop\n    /* \"#utility.yul\":4471:4472   */\n  0x01\n    /* \"#utility.yul\":4465:4469   */\n  dup3\n    /* \"#utility.yul\":4461:4473   */\n  and\n    /* \"#utility.yul\":4492:4510   */\n  dup1\n    /* \"#utility.yul\":4482:4563   */\n  tag_105\n  jumpi\n    /* \"#utility.yul\":4548:4552   */\n  0x7f\n    /* \"#utility.yul\":4540:4546   */\n  dup3\n    /* \"#utility.yul\":4536:4553   */\n  and\n    /* \"#utility.yul\":4526:4553   */\n  swap2\n  pop\n    /* \"#utility.yul\":4482:4563   */\ntag_105:\n    /* \"#utility.yul\":4610:4612   */\n  0x20\n    /* \"#utility.yul\":4602:4608   */\n  dup3\n    /* \"#utility.yul\":4599:4613   */\n  lt\n    /* \"#utility.yul\":4579:4597   */\n  dup2\n    /* \"#utility.yul\":4576:4614   */\n  sub\n    /* \"#utility.yul\":4573:4657   */\n  tag_106\n  jumpi\n    /* \"#utility.yul\":4629:4647   */\n  tag_107\n  tag_35\n  jump\t// in\ntag_107:\n    /* \"#utility.yul\":4573:4657   */\ntag_106:\n    /* \"#utility.yul\":4394:4663   */\n  pop\n    /* \"#utility.yul\":4343:4663   */\n  swap2\n  swap1\n  pop\n  jump\t// out\n    /* \"#utility.yul\":4669:4810   */\ntag_37:\n    /* \"#utility.yul\":4718:4722   */\n  0x00\n    /* \"#utility.yul\":4741:4744   */\n  dup2\n    /* \"#utility.yul\":4733:4744   */\n  swap1\n  pop\n    /* \"#utility.yul\":4764:4767   */\n  dup2\n    /* \"#utility.yul\":4761:4762   */\n  0x00\n    /* \"#utility.yul\":4754:4768   */\n  mstore\n    /* \"#utility.yul\":4798:4802   */\n  0x20\n    /* \"#utility.yul\":4795:4796   */\n  0x00\n    /* \"#utility.yul\":4785:4803   */\n  keccak256\n    /* \"#utility.yul\":4777:4803   */\n  swap1\n  pop\n    /* \"#utility.yul\":4669:4810   */\n  swap2\n  swap1\n  pop\n  jump\t// out\n    /* \"#utility.yul\":4816:4909   */\ntag_38:\n    /* \"#utility.yul\":4853:4859   */\n  0x00\n    /* \"#utility.yul\":4900:4902   */\n  0x20\n    /* \"#utility.yul\":4895:4897   */\n  0x1f\n    /* \"#utility.yul\":4888:4893   */\n  dup4\n    /* \"#utility.yul\":4884:4898   */\n  add\n    /* \"#utility.yul\":4880:4903   */\n  div\n    /* \"#utility.yul\":4870:4903   */\n  swap1\n  pop\n    /* \"#utility.yul\":4816:4909   */\n  swap2\n  swap1\n  pop\n  jump\t// out\n    /* \"#utility.yul\":4915:5022   */\ntag_39:\n    /* \"#utility.yul\":4959:4967   */\n  0x00\n    /* \"#utility.yul\":5009:5014   */\n  dup3\n    /* \"#utility.yul\":5003:5007   */\n  dup3\n    /* \"#utility.yul\":4999:5015   */\n  shl\n    /* \"#utility.yul\":4978:5015   */\n  swap1\n  pop\n    /* \"#utility.yul\":4915:5022   */\n  swap3\n  swap2\n  pop\n  pop\n  jump\t// out\n    /* \"#utility.yul\":5028:5421   */\ntag_40:\n    /* \"#utility.yul\":5097:5103   */\n  0x00\n    /* \"#utility.yul\":5147:5148   */\n  0x08\n    /* \"#utility.yul\":5135:5145   */\n  dup4\n    /* \"#utility.yul\":5131:5149   */\n  mul\n    /* \"#utility.yul\":5170:5267   */\n  tag_112\n    /* \"#utility.yul\":5200:5266   */\n  0xffffffffffffffffffffffffffffffffffffffffffffffffffffffffffffffff\n    /* \"#utility.yul\":5189:5198   */\n  dup3\n    /* \"#utility.yul\":5170:5267   */\n  tag_39\n  jump\t// in\ntag_112:\n    /* \"#utility.yul\":5288:5327   */\n  tag_113\n    /* \"#utility.yul\":5318:5326   */\n  dup7\n    /* \"#utility.yul\":5307:5316   */\n  dup4\n    /* \"#utility.yul\":5288:5327   */\n  tag_39\n  jump\t// in\ntag_113:\n    /* \"#utility.yul\":5276:5327   */\n  swap6\n  pop\n    /* \"#utility.yul\":5360:5364   */\n  dup1\n    /* \"#utility.yul\":5356:5365   */\n  not\n    /* \"#utility.yul\":5349:5354   */\n  dup5\n    /* \"#utility.yul\":5345:5366   */\n  and\n    /* \"#utility.yul\":5336:5366   */\n  swap4\n  pop\n    /* \"#utility.yul\":5409:5413   */\n  dup1\n    /* \"#utility.yul\":5399:5407   */\n  dup7\n    /* \"#utility.yul\":5395:5414   */\n  and\n    /* \"#utility.yul\":5388:5393   */\n  dup5\n    /* \"#utility.yul\":5385:5415   */\n  or\n    /* \"#utility.yul\":5375:5415   */\n  swap3\n  pop\n    /* \"#utility.yul\":5104:5421   */\n  pop\n  pop\n    /* \"#utility.yul\":5028:5421   */\n  swap4\n  swap3\n  pop\n  pop\n  pop\n  jump\t// out\n    /* \"#utility.yul\":5427:5487   */\ntag_41:\n    /* \"#utility.yul\":5455:5458   */\n  0x00\n    /* \"#utility.yul\":5476:5481   */\n  dup2\n    /* \"#utility.yul\":5469:5481   */\n  swap1\n  pop\n    /* \"#utility.yul\":5427:5487   */\n  swap2\n  swap1\n  pop\n  jump\t// out\n    /* \"#utility.yul\":5493:5635   */\ntag_42:\n    /* \"#utility.yul\":5543:5552   */\n  0x00\n    /* \"#utility.yul\":5576:5629   */\n  tag_116\n    /* \"#utility.yul\":5594:5628   */\n  tag_117\n    /* \"#utility.yul\":5603:5627   */\n  tag_118\n    /* \"#utility.yul\":5621:5626   */\n  dup5\n    /* \"#utility.yul\":5603:5627   */\n  tag_31\n  jump\t// in\ntag_118:\n    /* \"#utility.yul\":5594:5628   */\n  tag_41\n  jump\t// in\ntag_117:\n    /* \"#utility.yul\":5576:5629   */\n  tag_31\n  jump\t// in\ntag_116:\n    /* \"#utility.yul\":5563:5629   */\n  swap1\n  pop\n    /* \"#utility.yul\":5493:5635   */\n  swap2\n  swap1\n  pop\n  jump\t// out\n    /* \"#utility.yul\":5641:5716   */\ntag_43:\n    /* \"#utility.yul\":5684:5687   */\n  0x00\n    /* \"#utility.yul\":5705:5710   */\n  dup2\n    /* \"#utility.yul\":5698:5710   */\n  swap1\n  pop\n    /* \"#utility.yul\":5641:5716   */\n  swap2\n  swap1\n  pop\n  jump\t// out\n    /* \"#utility.yul\":5722:5991   */\ntag_44:\n    /* \"#utility.yul\":5832:5871   */\n  tag_121\n    /* \"#utility.yul\":5863:5870   */\n  dup4\n    /* \"#utility.yul\":5832:5871   */\n  tag_42\n  jump\t// in\ntag_121:\n    /* \"#utility.yul\":5893:5984   */\n  tag_122\n    /* \"#utility.yul\":5942:5983   */\n  tag_123\n    /* \"#utility.yul\":5966:5982   */\n  dup3\n    /* \"#utility.yul\":5942:5983   */\n  tag_43\n  jump\t// in\ntag_123:\n    /* \"#utility.yul\":5934:5940   */\n  dup5\n    /* \"#utility.yul\":5927:5931   */\n  dup5\n    /* \"#utility.yul\":5921:5932   */\n  sload\n    /* \"#utility.yul\":5893:5984   */\n  tag_40\n  jump\t// in\ntag_122:\n    /* \"#utility.yul\":5887:5891   */\n  dup3\n    /* \"#utility.yul\":5880:5985   */\n  sstore\n    /* \"#utility.yul\":5798:5991   */\n  pop\n    /* \"#utility.yul\":5722:5991   */\n  pop\n  pop\n  pop\n  jump\t// out\n    /* \"#utility.yul\":5997:6070   */\ntag_45:\n    /* \"#utility.yul\":6042:6045   */\n  0x00\n    /* \"#utility.yul\":5997:6070   */\n  swap1\n  jump\t// out\n    /* \"#utility.yul\":6076:6265   */\ntag_46:\n    /* \"#utility.yul\":6153:6185   */\n  tag_126\n  tag_45\n  jump\t// in\ntag_126:\n    /* \"#utility.yul\":6194:6259   */\n  tag_127\n    /* \"#utility.yul\":6252:6258   */\n  dup2\n    /* \"#utility.yul\":6244:6250   */\n  dup5\n    /* \"#utility.yul\":6238:6242   */\n  dup5\n    /* \"#utility.yul\":6194:6259   */\n  tag_44\n  jump\t// in\ntag_127:\n    /* \"#utility.yul\":6129:6265   */\n  pop\n    /* \"#utility.yul\":6076:6265   */\n  pop\n  pop\n  jump\t// out\n    /* \"#utility.yul\":6271:6457   */\ntag_47:\n    /* \"#utility.yul\":6331:6451   */\ntag_129:\n    /* \"#utility.yul\":6348:6351   */\n  dup2\n    /* \"#utility.yul\":6341:6346   */\n  dup2\n    /* \"#utility.yul\":6338:6352   */\n  lt\n    /* \"#utility.yul\":6331:6451   */\n  iszero\n  tag_131\n  jumpi\n    /* \"#utility.yul\":6402:6441   */\n  tag_132\n    /* \"#utility.yul\":6439:6440   */\n  0x00\n    /* \"#utility.yul\":6432:6437   */\n  dup3\n    /* \"#utility.yul\":6402:6441   */\n  tag_46\n  jump\t// in\ntag_132:\n    /* \"#utility.yul\":6375:6376   */\n  0x01\n    /* \"#utility.yul\":6368:6373   */\n  dup2\n    /* \"#utility.yul\":6364:6377   */\n  add\n    /* \"#utility.yul\":6355:6377   */\n  swap1\n  pop\n    /* \"#utility.yul\":6331:6451   */\n  jump(tag_129)\ntag_131:\n    /* \"#utility.yul\":6271:6457   */\n  pop\n  pop\n  jump\t// out\n    /* \"#utility.yul\":6463:7006   */\ntag_48:\n    /* \"#utility.yul\":6564:6566   */\n  0x1f\n    /* \"#utility.yul\":6559:6562   */\n  dup3\n    /* \"#utility.yul\":6556:6567   */\n  gt\n    /* \"#utility.yul\":6553:6999   */\n  iszero\n  tag_134\n  jumpi\n    /* \"#utility.yul\":6598:6636   */\n  tag_135\n    /* \"#utility.yul\":6630:6635   */\n  dup2\n    /* \"#utility.yul\":6598:6636   */\n  tag_37\n  jump\t// in\ntag_135:\n    /* \"#utility.yul\":6682:6711   */\n  tag_136\n    /* \"#utility.yul\":6700:6710   */\n  dup5\n    /* \"#utility.yul\":6682:6711   */\n  tag_38\n  jump\t// in\ntag_136:\n    /* \"#utility.yul\":6672:6680   */\n  dup2\n    /* \"#utility.yul\":6668:6712   */\n  add\n    /* \"#utility.yul\":6865:6867   */\n  0x20\n    /* \"#utility.yul\":6853:6863   */\n  dup6\n    /* \"#utility.yul\":6850:6868   */\n  lt\n    /* \"#utility.yul\":6847:6896   */\n  iszero\n  tag_137\n  jumpi\n    /* \"#utility.yul\":6886:6894   */\n  dup2\n    /* \"#utility.yul\":6871:6894   */\n  swap1\n  pop\n    /* \"#utility.yul\":6847:6896   */\ntag_137:\n    /* \"#utility.yul\":6909:6989   */\n  tag_138\n    /* \"#utility.yul\":6965:6987   */\n  tag_139\n    /* \"#utility.yul\":6983:6986   */\n  dup6\n    /* \"#utility.yul\":6965:6987   */\n  tag_38\n  jump\t// in\ntag_139:\n    /* \"#utility.yul\":6955:6963   */\n  dup4\n    /* \"#utility.yul\":6951:6988   */\n  add\n    /* \"#utility.yul\":6938:6949   */\n  dup3\n    /* \"#utility.yul\":6909:6989   */\n  tag_47\n  jump\t// in\ntag_138:\n    /* \"#utility.yul\":6568:6999   */\n  pop\n  pop\n    /* \"#utility.yul\":6553:6999   */\ntag_134:\n    /* \"#utility.yul\":6463:7006   */\n  pop\n  pop\n  pop\n  jump\t// out\n    /* \"#utility.yul\":7012:7129   */\ntag_49:\n    /* \"#utility.yul\":7066:7074   */\n  0x00\n    /* \"#utility.yul\":7116:7121   */\n  dup3\n    /* \"#utility.yul\":7110:7114   */\n  dup3\n    /* \"#utility.yul\":7106:7122   */\n  shr\n    /* \"#utility.yul\":7085:7122   */\n  swap1\n  pop\n    /* \"#utility.yul\":7012:7129   */\n  swap3\n  swap2\n  pop\n  pop\n  jump\t// out\n    /* \"#utility.yul\":7135:7304   */\ntag_50:\n    /* \"#utility.yul\":7179:7185   */\n  0x00\n    /* \"#utility.yul\":7212:7263   */\n  tag_142\n    /* \"#utility.yul\":7260:7261   */\n  0x00\n    /* \"#utility.yul\":7256:7262   */\n  not\n    /* \"#utility.yul\":7248:7253   */\n  dup5\n    /* \"#utility.yul\":7245:7246   */\n  0x08\n    /* \"#utility.yul\":7241:7254   */\n  mul\n    /* \"#utility.yul\":7212:7263   */\n  tag_49\n  jump\t// in\ntag_142:\n    /* \"#utility.yul\":7208:7264   */\n  not\n    /* \"#utility.yul\":7293:7297   */\n  dup1\n    /* \"#utility.yul\":7287:7291   */\n  dup4\n    /* \"#utility.yul\":7283:7298   */\n  and\n    /* \"#utility.yul\":7273:7298   */\n  swap2\n  pop\n    /* \"#utility.yul\":7186:7304   */\n  pop\n    /* \"#utility.yul\":7135:7304   */\n  swap3\n  swap2\n  pop\n  pop\n  jump\t// out\n    /* \"#utility.yul\":7309:7604   */\ntag_51:\n    /* \"#utility.yul\":7385:7389   */\n  0x00\n    /* \"#utility.yul\":7531:7560   */\n  tag_144\n    /* \"#utility.yul\":7556:7559   */\n  dup4\n    /* \"#utility.yul\":7550:7554   */\n  dup4\n    /* \"#utility.yul\":7531:7560   */\n  tag_50\n  jump\t// in\ntag_144:\n    /* \"#utility.yul\":7523:7560   */\n  swap2\n  pop\n    /* \"#utility.yul\":7593:7596   */\n  dup3\n    /* \"#utility.yul\":7590:7591   */\n  0x02\n    /* \"#utility.yul\":7586:7597   */\n  mul\n    /* \"#utility.yul\":7580:7584   */\n  dup3\n    /* \"#utility.yul\":7577:7598   */\n  or\n    /* \"#utility.yul\":7569:7598   */\n  swap1\n  pop\n    /* \"#utility.yul\":7309:7604   */\n  swap3\n  swap2\n  pop\n  pop\n  jump\t// out\n    /* \"#utility.yul\":7609:9004   */\ntag_7:\n    /* \"#utility.yul\":7726:7763   */\n  tag_146\n    /* \"#utility.yul\":7759:7762   */\n  dup3\n    /* \"#utility.yul\":7726:7763   */\n  tag_34\n  jump\t// in\ntag_146:\n    /* \"#utility.yul\":7828:7846   */\n  0xffffffffffffffff\n    /* \"#utility.yul\":7820:7826   */\n  dup2\n    /* \"#utility.yul\":7817:7847   */\n  gt\n    /* \"#utility.yul\":7814:7870   */\n  iszero\n  tag_147\n  jumpi\n    /* \"#utility.yul\":7850:7868   */\n  tag_148\n  tag_24\n  jump\t// in\ntag_148:\n    /* \"#utility.yul\":7814:7870   */\ntag_147:\n    /* \"#utility.yul\":7894:7932   */\n  tag_149\n    /* \"#utility.yul\":7926:7930   */\n  dup3\n    /* \"#utility.yul\":7920:7931   */\n  sload\n    /* \"#utility.yul\":7894:7932   */\n  tag_36\n  jump\t// in\ntag_149:\n    /* \"#utility.yul\":7979:8046   */\n  tag_150\n    /* \"#utility.yul\":8039:8045   */\n  dup3\n    /* \"#utility.yul\":8031:8037   */\n  dup3\n    /* \"#utility.yul\":8025:8029   */\n  dup6\n    /* \"#utility.yul\":7979:8046   */\n  tag_48\n  jump\t// in\ntag_150:\n    /* \"#utility.yul\":8073:8074   */\n  0x00\n    /* \"#utility.yul\":8097:8101   */\n  0x20\n    /* \"#utility.yul\":8084:8101   */\n  swap1\n  pop\n    /* \"#utility.yul\":8129:8131   */\n  0x1f\n    /* \"#utility.yul\":8121:8127   */\n  dup4\n    /* \"#utility.yul\":8118:8132   */\n  gt\n    /* \"#utility.yul\":8146:8147   */\n  0x01\n    /* \"#utility.yul\":8141:8759   */\n  dup2\n  eq\n  tag_152\n  jumpi\n    /* \"#utility.yul\":8803:8804   */\n  0x00\n    /* \"#utility.yul\":8820:8826   */\n  dup5\n    /* \"#utility.yul\":8817:8894   */\n  iszero\n  tag_153\n  jumpi\n    /* \"#utility.yul\":8869:8878   */\n  dup3\n    /* \"#utility.yul\":8864:8867   */\n  dup8\n    /* \"#utility.yul\":8860:8879   */\n  add\n    /* \"#utility.yul\":8854:8880   */\n  mload\n    /* \"#utility.yul\":8845:8880   */\n  swap1\n  pop\n    /* \"#utility.yul\":8817:8894   */\ntag_153:\n    /* \"#utility.yul\":8920:8987   */\n  tag_154\n    /* \"#utility.yul\":8980:8986   */\n  dup6\n    /* \"#utility.yul\":8973:8978   */\n  dup3\n    /* \"#utility.yul\":8920:8987   */\n  tag_51\n  jump\t// in\ntag_154:\n    /* \"#utility.yul\":8914:8918   */\n  dup7\n    /* \"#utility.yul\":8907:8988   */\n  sstore\n    /* \"#utility.yul\":8776:8998   */\n  pop\n    /* \"#utility.yul\":8111:8998   */\n  jump(tag_151)\n    /* \"#utility.yul\":8141:8759   */\ntag_152:\n    /* \"#utility.yul\":8193:8197   */\n  0x1f\n    /* \"#utility.yul\":8189:8198   */\n  not\n    /* \"#utility.yul\":8181:8187   */\n  dup5\n    /* \"#utility.yul\":8177:8199   */\n  and\n    /* \"#utility.yul\":8227:8264   */\n  tag_155\n    /* \"#utility.yul\":8259:8263   */\n  dup7\n    /* \"#utility.yul\":8227:8264   */\n  tag_37\n  jump\t// in\ntag_155:\n    /* \"#utility.yul\":8286:8287   */\n  0x00\n    /* \"#utility.yul\":8300:8508   */\ntag_156:\n    /* \"#utility.yul\":8314:8321   */\n  dup3\n    /* \"#utility.yul\":8311:8312   */\n  dup2\n    /* \"#utility.yul\":8308:8322   */\n  lt\n    /* \"#utility.yul\":8300:8508   */\n  iszero\n  tag_158\n  jumpi\n    /* \"#utility.yul\":8393:8402   */\n  dup5\n    /* \"#utility.yul\":8388:8391   */\n  dup10\n    /* \"#utility.yul\":8384:8403   */\n  add\n    /* \"#utility.yul\":8378:8404   */\n  mload\n    /* \"#utility.yul\":8370:8376   */\n  dup3\n    /* \"#utility.yul\":8363:8405   */\n  sstore\n    /* \"#utility.yul\":8444:8445   */\n  0x01\n    /* \"#utility.yul\":8436:8442   */\n  dup3\n    /* \"#utility.yul\":8432:8446   */\n  add\n    /* \"#utility.yul\":8422:8446   */\n  swap2\n  pop\n    /* \"#utility.yul\":8491:8493   */\n  0x20\n    /* \"#utility.yul\":8480:8489   */\n  dup6\n    /* \"#utility.yul\":8476:8494   */\n  add\n    /* \"#utility.yul\":8463:8494   */\n  swap5\n  pop\n    /* \"#utility.yul\":8337:8341   */\n  0x20\n    /* \"#utility.yul\":8334:8335   */\n  dup2\n    /* \"#utility.yul\":8330:8342   */\n  add\n    /* \"#utility.yul\":8325:8342   */\n  swap1\n  pop\n    /* \"#utility.yul\":8300:8508   */\n  jump(tag_156)\ntag_158:\n    /* \"#utility.yul\":8536:8542   */\n  dup7\n    /* \"#utility.yul\":8527:8534   */\n  dup4\n    /* \"#utility.yul\":8524:8543   */\n  lt\n    /* \"#utility.yul\":8521:8700   */\n  iszero\n  tag_159\n  jumpi\n    /* \"#utility.yul\":8594:8603   */\n  dup5\n    /* \"#utility.yul\":8589:8592   */\n  dup10\n    /* \"#utility.yul\":8585:8604   */\n  add\n    /* \"#utility.yul\":8579:8605   */\n  mload\n    /* \"#utility.yul\":8637:8685   */\n  tag_160\n    /* \"#utility.yul\":8679:8683   */\n  0x1f\n    /* \"#utility.yul\":8671:8677   */\n  dup10\n    /* \"#utility.yul\":8667:8684   */\n  and\n    /* \"#utility.yul\":8656:8665   */\n  dup3\n    /* \"#utility.yul\":8637:8685   */\n  tag_50\n  jump\t// in\ntag_160:\n    /* \"#utility.yul\":8629:8635   */\n  dup4\n    /* \"#utility.yul\":8622:8686   */\n  sstore\n    /* \"#utility.yul\":8544:8700   */\n  pop\n    /* \"#utility.yul\":8521:8700   */\ntag_159:\n    /* \"#utility.yul\":8746:8747   */\n  0x01\n    /* \"#utility.yul\":8742:8743   */\n  0x02\n    /* \"#utility.yul\":8734:8740   */\n  dup9\n    /* \"#utility.yul\":8730:8744   */\n  mul\n    /* \"#utility.yul\":8726:8748   */\n  add\n    /* \"#utility.yul\":8720:8724   */\n  dup9\n    /* \"#utility.yul\":8713:8749   */\n  sstore\n    /* \"#utility.yul\":8148:8759   */\n  pop\n  pop\n  pop\n    /* \"#utility.yul\":8111:8998   */\ntag_151:\n  pop\n    /* \"#utility.yul\":7701:9004   */\n  pop\n  pop\n  pop\n    /* \"#utility.yul\":7609:9004   */\n  pop\n  pop\n  jump\t// out\n    /* \"#utility.yul\":9010:9190   */\ntag_52:\n    /* \"#utility.yul\":9058:9135   */\n  0x4e487b7100000000000000000000000000000000000000000000000000000000\n    /* \"#utility.yul\":9055:9056   */\n  0x00\n    /* \"#utility.yul\":9048:9136   */\n  mstore\n    /* \"#utility.yul\":9155:9159   */\n  0x11\n    /* \"#utility.yul\":9152:9153   */\n  0x04\n    /* \"#utility.yul\":9145:9160   */\n  mstore\n    /* \"#utility.yul\":9179:9183   */\n  0x24\n    /* \"#utility.yul\":9176:9177   */\n  0x00\n    /* \"#utility.yul\":9169:9184   */\n  revert\n    /* \"#utility.yul\":9196:9606   */\ntag_17:\n    /* \"#utility.yul\":9236:9243   */\n  0x00\n    /* \"#utility.yul\":9259:9279   */\n  tag_163\n    /* \"#utility.yul\":9277:9278   */\n  dup3\n    /* \"#utility.yul\":9259:9279   */\n  tag_31\n  jump\t// in\ntag_163:\n    /* \"#utility.yul\":9254:9279   */\n  swap2\n  pop\n    /* \"#utility.yul\":9293:9313   */\n  tag_164\n    /* \"#utility.yul\":9311:9312   */\n  dup4\n    /* \"#utility.yul\":9293:9313   */\n  tag_31\n  jump\t// in\ntag_164:\n    /* \"#utility.yul\":9288:9313   */\n  swap3\n  pop\n    /* \"#utility.yul\":9348:9349   */\n  dup3\n    /* \"#utility.yul\":9345:9346   */\n  dup3\n    /* \"#utility.yul\":9341:9350   */\n  mul\n    /* \"#utility.yul\":9370:9400   */\n  tag_165\n    /* \"#utility.yul\":9388:9399   */\n  dup2\n    /* \"#utility.yul\":9370:9400   */\n  tag_31\n  jump\t// in\ntag_165:\n    /* \"#utility.yul\":9359:9400   */\n  swap2\n  pop\n    /* \"#utility.yul\":9549:9550   */\n  dup3\n    /* \"#utility.yul\":9540:9547   */\n  dup3\n    /* \"#utility.yul\":9536:9551   */\n  div\n    /* \"#utility.yul\":9533:9534   */\n  dup5\n    /* \"#utility.yul\":9530:9552   */\n  eq\n    /* \"#utility.yul\":9510:9511   */\n  dup4\n    /* \"#utility.yul\":9503:9512   */\n  iszero\n    /* \"#utility.yul\":9483:9566   */\n  or\n    /* \"#utility.yul\":9460:9599   */\n  tag_166\n  jumpi\n    /* \"#utility.yul\":9579:9597   */\n  tag_167\n  tag_52\n  jump\t// in\ntag_167:\n    /* \"#utility.yul\":9460:9599   */\ntag_166:\n    /* \"#utility.yul\":9244:9606   */\n  pop\n    /* \"#utility.yul\":9196:9606   */\n  swap3\n  swap2\n  pop\n  pop\n  jump\t// out\n    /* \"minerpunk/ERC721A/ERC721A.sol\":1033:24141  contract ERC721A is Context, ERC165, IERC721A,mine {... */\ntag_13:\n  dataSize(sub_0)\n  dup1\n  dataOffset(sub_0)\n  0x00\n  codecopy\n  0x00\n  return\nstop\n\nsub_0: assembly {\n        /* \"minerpunk/ERC721A/ERC721A.sol\":1033:24141  contract ERC721A is Context, ERC165, IERC721A,mine {... */\n      mstore(0x40, 0x80)\n      callvalue\n      dup1\n      iszero\n      tag_1\n      jumpi\n      0x00\n      dup1\n      revert\n    tag_1:\n      pop\n      jumpi(tag_2, lt(calldatasize, 0x04))\n      shr(0xe0, calldataload(0x00))\n      dup1\n      0x95d89b41\n      gt\n      tag_23\n      jumpi\n      dup1\n      0xd5abeb01\n      gt\n      tag_24\n      jumpi\n      dup1\n      0xd5abeb01\n      eq\n      tag_18\n      jumpi\n      dup1\n      0xdb3ad22c\n      eq\n      tag_19\n      jumpi\n      dup1\n      0xe29301f9\n      eq\n      tag_20\n      jumpi\n      dup1\n      0xe985e9c5\n      eq\n      tag_21\n      jumpi\n      dup1\n      0xeff0730d\n      eq\n      tag_22\n      jumpi\n      jump(tag_2)\n    tag_24:\n      dup1\n      0x95d89b41\n      eq\n      tag_13\n      jumpi\n      dup1\n      0xa22cb465\n      eq\n      tag_14\n      jumpi\n      dup1\n      0xb88d4fde\n      eq\n      tag_15\n      jumpi\n      dup1\n      0xb8ba6007\n      eq\n      tag_16\n      jumpi\n      dup1\n      0xc87b56dd\n      eq\n      tag_17\n      jumpi\n      jump(tag_2)\n    tag_23:\n      dup1\n      0x23b872dd\n      gt\n      tag_25\n      jumpi\n      dup1\n      0x23b872dd\n      eq\n      tag_8\n      jumpi\n      dup1\n      0x42842e0e\n      eq\n      tag_9\n      jumpi\n      dup1\n      0x4be3403c\n      eq\n      tag_10\n      jumpi\n      dup1\n      0x6352211e\n      eq\n      tag_11\n      jumpi\n      dup1\n      0x70a08231\n      eq\n      tag_12\n      jumpi\n      jump(tag_2)\n    tag_25:\n      dup1\n      0x01ffc9a7\n      eq\n      tag_3\n      jumpi\n      dup1\n      0x06fdde03\n      eq\n      tag_4\n      jumpi\n      dup1\n      0x081812fc\n      eq\n      tag_5\n      jumpi\n      dup1\n      0x095ea7b3\n      eq\n      tag_6\n      jumpi\n      dup1\n      0x18160ddd\n      eq\n      tag_7\n      jumpi\n    tag_2:\n      0x00\n      dup1\n      revert\n        /* \"minerpunk/ERC721A/ERC721A.sol\":5498:5803  function supportsInterface(bytes4 interfaceId) public view virtual override(ERC165, IERC165) returns (bool) {... */\n    tag_3:\n      tag_26\n      0x04\n      dup1\n      calldatasize\n      sub\n      dup2\n      add\n      swap1\n      tag_27\n      swap2\n      swap1\n      tag_28\n      jump\t// in\n    tag_27:\n      tag_29\n      jump\t// in\n    tag_26:\n      mload(0x40)\n      tag_30\n      swap2\n      swap1\n      tag_31\n      jump\t// in\n    tag_30:\n      mload(0x40)\n      dup1\n      swap2\n      sub\n      swap1\n      return\n        /* \"minerpunk/ERC721A/ERC721A.sol\":8614:8714  function name() public view virtual override returns (string memory) {... */\n    tag_4:\n      tag_32\n      tag_33\n      jump\t// in\n    tag_32:\n      mload(0x40)\n      tag_34\n      swap2\n      swap1\n      tag_35\n      jump\t// in\n    tag_34:\n      mload(0x40)\n      dup1\n      swap2\n      sub\n      swap1\n      return\n        /* \"minerpunk/ERC721A/ERC721A.sol\":10209:10413  function getApproved(uint256 tokenId) public view override returns (address) {... */\n    tag_5:\n      tag_36\n      0x04\n      dup1\n      calldatasize\n      sub\n      dup2\n      add\n      swap1\n      tag_37\n      swap2\n      swap1\n      tag_38\n      jump\t// in\n    tag_37:\n      tag_39\n      jump\t// in\n    tag_36:\n      mload(0x40)\n      tag_40\n      swap2\n      swap1\n      tag_41\n      jump\t// in\n    tag_40:\n      mload(0x40)\n      dup1\n      swap2\n      sub\n      swap1\n      return\n        /* \"minerpunk/ERC721A/ERC721A.sol\":9771:10143  function approve(address to, uint256 tokenId) public override {... */\n    tag_6:\n      tag_42\n      0x04\n      dup1\n      calldatasize\n      sub\n      dup2\n      add\n      swap1\n      tag_43\n      swap2\n      swap1\n      tag_44\n      jump\t// in\n    tag_43:\n      tag_45\n      jump\t// in\n    tag_42:\n      stop\n        /* \"minerpunk/ERC721A/ERC721A.sol\":4209:4521  function totalSupply() public view override returns (uint256) {... */\n    tag_7:\n      tag_46\n      tag_47\n      jump\t// in\n    tag_46:\n      mload(0x40)\n      tag_48\n      swap2\n      swap1\n      tag_49\n      jump\t// in\n    tag_48:\n      mload(0x40)\n      dup1\n      swap2\n      sub\n      swap1\n      return\n        /* \"minerpunk/ERC721A/ERC721A.sol\":11074:11244  function transferFrom(... */\n    tag_8:\n      tag_50\n      0x04\n      dup1\n      calldatasize\n      sub\n      dup2\n      add\n      swap1\n      tag_51\n      swap2\n      swap1\n      tag_52\n      jump\t// in\n    tag_51:\n      tag_53\n      jump\t// in\n    tag_50:\n      stop\n        /* \"minerpunk/ERC721A/ERC721A.sol\":11315:11500  function safeTransferFrom(... */\n    tag_9:\n      tag_54\n      0x04\n      dup1\n      calldatasize\n      sub\n      dup2\n      add\n      swap1\n      tag_55\n      swap2\n      swap1\n      tag_52\n      jump\t// in\n    tag_55:\n      tag_56\n      jump\t// in\n    tag_54:\n      stop\n        /* \"minerpunk/ERC721A/ERC721A.sol\":3221:3554  function blockStatus (uint256 _BlockNumber)public view  override returns (uint256){... */\n    tag_10:\n      tag_57\n      0x04\n      dup1\n      calldatasize\n      sub\n      dup2\n      add\n      swap1\n      tag_58\n      swap2\n      swap1\n      tag_38\n      jump\t// in\n    tag_58:\n      tag_59\n      jump\t// in\n    tag_57:\n      mload(0x40)\n      tag_60\n      swap2\n      swap1\n      tag_49\n      jump\t// in\n    tag_60:\n      mload(0x40)\n      dup1\n      swap2\n      sub\n      swap1\n      return\n        /* \"minerpunk/ERC721A/ERC721A.sol\":8422:8547  function ownerOf(uint256 tokenId) public view override returns (address) {... */\n    tag_11:\n      tag_61\n      0x04\n      dup1\n      calldatasize\n      sub\n      dup2\n      add\n      swap1\n      tag_62\n      swap2\n      swap1\n      tag_38\n      jump\t// in\n    tag_62:\n      tag_63\n      jump\t// in\n    tag_61:\n      mload(0x40)\n      tag_64\n      swap2\n      swap1\n      tag_41\n      jump\t// in\n    tag_64:\n      mload(0x40)\n      dup1\n      swap2\n      sub\n      swap1\n      return\n        /* \"minerpunk/ERC721A/ERC721A.sol\":5867:6073  function balanceOf(address owner) public view override returns (uint256) {... */\n    tag_12:\n      tag_65\n      0x04\n      dup1\n      calldatasize\n      sub\n      dup2\n      add\n      swap1\n      tag_66\n      swap2\n      swap1\n      tag_67\n      jump\t// in\n    tag_66:\n      tag_68\n      jump\t// in\n    tag_65:\n      mload(0x40)\n      tag_69\n      swap2\n      swap1\n      tag_49\n      jump\t// in\n    tag_69:\n      mload(0x40)\n      dup1\n      swap2\n      sub\n      swap1\n      return\n        /* \"minerpunk/ERC721A/ERC721A.sol\":8783:8887  function symbol() public view virtual override returns (string memory) {... */\n    tag_13:\n      tag_70\n      tag_71\n      jump\t// in\n    tag_70:\n      mload(0x40)\n      tag_72\n      swap2\n      swap1\n      tag_35\n      jump\t// in\n    tag_72:\n      mload(0x40)\n      dup1\n      swap2\n      sub\n      swap1\n      return\n        /* \"minerpunk/ERC721A/ERC721A.sol\":10485:10772  function setApprovalForAll(address operator, bool approved) public virtual override {... */\n    tag_14:\n      tag_73\n      0x04\n      dup1\n      calldatasize\n      sub\n      dup2\n      add\n      swap1\n      tag_74\n      swap2\n      swap1\n      tag_75\n      jump\t// in\n    tag_74:\n      tag_76\n      jump\t// in\n    tag_73:\n      stop\n        /* \"minerpunk/ERC721A/ERC721A.sol\":11571:11941  function safeTransferFrom(... */\n    tag_15:\n      tag_77\n      0x04\n      dup1\n      calldatasize\n      sub\n      dup2\n      add\n      swap1\n      tag_78\n      swap2\n      swap1\n      tag_79\n      jump\t// in\n    tag_78:\n      tag_80\n      jump\t// in\n    tag_77:\n      stop\n        /* \"minerpunk/ERC721A/ERC721A.sol\":2821:3202  function MineStatus(address user)public view override returns(uint256){           ... */\n    tag_16:\n      tag_81\n      0x04\n      dup1\n      calldatasize\n      sub\n      dup2\n      add\n      swap1\n      tag_82\n      swap2\n      swap1\n      tag_67\n      jump\t// in\n    tag_82:\n      tag_83\n      jump\t// in\n    tag_81:\n      mload(0x40)\n      tag_84\n      swap2\n      swap1\n      tag_49\n      jump\t// in\n    tag_84:\n      mload(0x40)\n      dup1\n      swap2\n      sub\n      swap1\n      return\n        /* \"minerpunk/ERC721A/ERC721A.sol\":8958:9276  function tokenURI(uint256 tokenId) public view virtual override returns (string memory) {... */\n    tag_17:\n      tag_85\n      0x04\n      dup1\n      calldatasize\n      sub\n      dup2\n      add\n      swap1\n      tag_86\n      swap2\n      swap1\n      tag_38\n      jump\t// in\n    tag_86:\n      tag_87\n      jump\t// in\n    tag_85:\n      mload(0x40)\n      tag_88\n      swap2\n      swap1\n      tag_35\n      jump\t// in\n    tag_88:\n      mload(0x40)\n      dup1\n      swap2\n      sub\n      swap1\n      return\n        /* \"minerpunk/ERC721A/ERC721A.sol\":4686:4850  function maxSupply() public view  returns (uint256) {       ... */\n    tag_18:\n      tag_89\n      tag_90\n      jump\t// in\n    tag_89:\n      mload(0x40)\n      tag_91\n      swap2\n      swap1\n      tag_49\n      jump\t// in\n    tag_91:\n      mload(0x40)\n      dup1\n      swap2\n      sub\n      swap1\n      return\n        /* \"minerpunk/ERC721A/ERC721A.sol\":4531:4676  function totalPower() public view  returns (uint256) {       ... */\n    tag_19:\n      tag_92\n      tag_93\n      jump\t// in\n    tag_92:\n      mload(0x40)\n      tag_94\n      swap2\n      swap1\n      tag_49\n      jump\t// in\n    tag_94:\n      mload(0x40)\n      dup1\n      swap2\n      sub\n      swap1\n      return\n        /* \"minerpunk/ERC721A/ERC721A.sol\":3575:3867  function tokenIDPower (uint256 tokenId)public view override returns(uint256){        ... */\n    tag_20:\n      tag_95\n      0x04\n      dup1\n      calldatasize\n      sub\n      dup2\n      add\n      swap1\n      tag_96\n      swap2\n      swap1\n      tag_38\n      jump\t// in\n    tag_96:\n      tag_97\n      jump\t// in\n    tag_95:\n      mload(0x40)\n      tag_98\n      swap2\n      swap1\n      tag_49\n      jump\t// in\n    tag_98:\n      mload(0x40)\n      dup1\n      swap2\n      sub\n      swap1\n      return\n        /* \"minerpunk/ERC721A/ERC721A.sol\":10843:11007  function isApprovedForAll(address owner, address operator) public view virtual override returns (bool) {... */\n    tag_21:\n      tag_99\n      0x04\n      dup1\n      calldatasize\n      sub\n      dup2\n      add\n      swap1\n      tag_100\n      swap2\n      swap1\n      tag_101\n      jump\t// in\n    tag_100:\n      tag_102\n      jump\t// in\n    tag_99:\n      mload(0x40)\n      tag_103\n      swap2\n      swap1\n      tag_31\n      jump\t// in\n    tag_103:\n      mload(0x40)\n      dup1\n      swap2\n      sub\n      swap1\n      return\n        /* \"minerpunk/ERC721A/ERC721A.sol\":4867:5038  function mineInfo(address user, uint256 number) public view  returns (uint256) {       ... */\n    tag_22:\n      tag_104\n      0x04\n      dup1\n      calldatasize\n      sub\n      dup2\n      add\n      swap1\n      tag_105\n      swap2\n      swap1\n      tag_44\n      jump\t// in\n    tag_105:\n      tag_106\n      jump\t// in\n    tag_104:\n      mload(0x40)\n      tag_107\n      swap2\n      swap1\n      tag_49\n      jump\t// in\n    tag_107:\n      mload(0x40)\n      dup1\n      swap2\n      sub\n      swap1\n      return\n        /* \"minerpunk/ERC721A/ERC721A.sol\":5498:5803  function supportsInterface(bytes4 interfaceId) public view virtual override(ERC165, IERC165) returns (bool) {... */\n    tag_29:\n        /* \"minerpunk/ERC721A/ERC721A.sol\":5600:5604  bool */\n      0x00\n        /* \"minerpunk/ERC721A/ERC721A.sol\":5652:5677  type(IERC721).interfaceId */\n      0x80ac58cd00000000000000000000000000000000000000000000000000000000\n        /* \"minerpunk/ERC721A/ERC721A.sol\":5637:5677  interfaceId == type(IERC721).interfaceId */\n      not(0xffffffffffffffffffffffffffffffffffffffffffffffffffffffff)\n      and\n        /* \"minerpunk/ERC721A/ERC721A.sol\":5637:5648  interfaceId */\n      dup3\n        /* \"minerpunk/ERC721A/ERC721A.sol\":5637:5677  interfaceId == type(IERC721).interfaceId */\n      not(0xffffffffffffffffffffffffffffffffffffffffffffffffffffffff)\n      and\n      eq\n        /* \"minerpunk/ERC721A/ERC721A.sol\":5637:5742  interfaceId == type(IERC721).interfaceId ||... */\n      dup1\n      tag_110\n      jumpi\n      pop\n        /* \"minerpunk/ERC721A/ERC721A.sol\":5709:5742  type(IERC721Metadata).interfaceId */\n      0x5b5e139f00000000000000000000000000000000000000000000000000000000\n        /* \"minerpunk/ERC721A/ERC721A.sol\":5694:5742  interfaceId == type(IERC721Metadata).interfaceId */\n      not(0xffffffffffffffffffffffffffffffffffffffffffffffffffffffff)\n      and\n        /* \"minerpunk/ERC721A/ERC721A.sol\":5694:5705  interfaceId */\n      dup3\n        /* \"minerpunk/ERC721A/ERC721A.sol\":5694:5742  interfaceId == type(IERC721Metadata).interfaceId */\n      not(0xffffffffffffffffffffffffffffffffffffffffffffffffffffffff)\n      and\n      eq\n        /* \"minerpunk/ERC721A/ERC721A.sol\":5637:5742  interfaceId == type(IERC721).interfaceId ||... */\n    tag_110:\n        /* \"minerpunk/ERC721A/ERC721A.sol\":5637:5795  interfaceId == type(IERC721).interfaceId ||... */\n      dup1\n      tag_111\n      jumpi\n      pop\n        /* \"minerpunk/ERC721A/ERC721A.sol\":5759:5795  super.supportsInterface(interfaceId) */\n      tag_112\n        /* \"minerpunk/ERC721A/ERC721A.sol\":5783:5794  interfaceId */\n      dup3\n        /* \"minerpunk/ERC721A/ERC721A.sol\":5759:5782  super.supportsInterface */\n      tag_113\n        /* \"minerpunk/ERC721A/ERC721A.sol\":5759:5795  super.supportsInterface(interfaceId) */\n      jump\t// in\n    tag_112:\n        /* \"minerpunk/ERC721A/ERC721A.sol\":5637:5795  interfaceId == type(IERC721).interfaceId ||... */\n    tag_111:\n        /* \"minerpunk/ERC721A/ERC721A.sol\":5617:5795  return... */\n      swap1\n      pop\n        /* \"minerpunk/ERC721A/ERC721A.sol\":5498:5803  function supportsInterface(bytes4 interfaceId) public view virtual override(ERC165, IERC165) returns (bool) {... */\n      swap2\n      swap1\n      pop\n      jump\t// out\n        /* \"minerpunk/ERC721A/ERC721A.sol\":8614:8714  function name() public view virtual override returns (string memory) {... */\n    tag_33:\n        /* \"minerpunk/ERC721A/ERC721A.sol\":8668:8681  string memory */\n      0x60\n        /* \"minerpunk/ERC721A/ERC721A.sol\":8701:8706  _name */\n      0x07\n        /* \"minerpunk/ERC721A/ERC721A.sol\":8694:8706  return _name */\n      dup1\n      sload\n      tag_115\n      swap1\n      tag_116\n      jump\t// in\n    tag_115:\n      dup1\n      0x1f\n      add\n      0x20\n      dup1\n      swap2\n      div\n      mul\n      0x20\n      add\n      mload(0x40)\n      swap1\n      dup2\n      add\n      0x40\n      mstore\n      dup1\n      swap3\n      swap2\n      swap1\n      dup2\n      dup2\n      mstore\n      0x20\n      add\n      dup3\n      dup1\n      sload\n      tag_117\n      swap1\n      tag_116\n      jump\t// in\n    tag_117:\n      dup1\n      iszero\n      tag_118\n      jumpi\n      dup1\n      0x1f\n      lt\n      tag_119\n      jumpi\n      0x0100\n      dup1\n      dup4\n      sload\n      div\n      mul\n      dup4\n      mstore\n      swap2\n      0x20\n      add\n      swap2\n      jump(tag_118)\n    tag_119:\n      dup3\n      add\n      swap2\n      swap1\n      0x00\n      mstore\n      keccak256(0x00, 0x20)\n      swap1\n    tag_120:\n      dup2\n      sload\n      dup2\n      mstore\n      swap1\n      0x01\n      add\n      swap1\n      0x20\n      add\n      dup1\n      dup4\n      gt\n      tag_120\n      jumpi\n      dup3\n      swap1\n      sub\n      0x1f\n      and\n      dup3\n      add\n      swap2\n    tag_118:\n      pop\n      pop\n      pop\n      pop\n      pop\n      swap1\n      pop\n        /* \"minerpunk/ERC721A/ERC721A.sol\":8614:8714  function name() public view virtual override returns (string memory) {... */\n      swap1\n      jump\t// out\n        /* \"minerpunk/ERC721A/ERC721A.sol\":10209:10413  function getApproved(uint256 tokenId) public view override returns (address) {... */\n    tag_39:\n        /* \"minerpunk/ERC721A/ERC721A.sol\":10277:10284  address */\n      0x00\n        /* \"minerpunk/ERC721A/ERC721A.sol\":10302:10318  _exists(tokenId) */\n      tag_122\n        /* \"minerpunk/ERC721A/ERC721A.sol\":10310:10317  tokenId */\n      dup3\n        /* \"minerpunk/ERC721A/ERC721A.sol\":10302:10309  _exists */\n      tag_123\n        /* \"minerpunk/ERC721A/ERC721A.sol\":10302:10318  _exists(tokenId) */\n      jump\t// in\n    tag_122:\n        /* \"minerpunk/ERC721A/ERC721A.sol\":10297:10361  if (!_exists(tokenId)) revert ApprovalQueryForNonexistentToken() */\n      tag_124\n      jumpi\n        /* \"minerpunk/ERC721A/ERC721A.sol\":10327:10361  ApprovalQueryForNonexistentToken() */\n      mload(0x40)\n      0xcf4700e400000000000000000000000000000000000000000000000000000000\n      dup2\n      mstore\n      0x04\n      add\n      mload(0x40)\n      dup1\n      swap2\n      sub\n      swap1\n      revert\n        /* \"minerpunk/ERC721A/ERC721A.sol\":10297:10361  if (!_exists(tokenId)) revert ApprovalQueryForNonexistentToken() */\n    tag_124:\n        /* \"minerpunk/ERC721A/ERC721A.sol\":10381:10396  _tokenApprovals */\n      0x0b\n        /* \"minerpunk/ERC721A/ERC721A.sol\":10381:10405  _tokenApprovals[tokenId] */\n      0x00\n        /* \"minerpunk/ERC721A/ERC721A.sol\":10397:10404  tokenId */\n      dup4\n        /* \"minerpunk/ERC721A/ERC721A.sol\":10381:10405  _tokenApprovals[tokenId] */\n      dup2\n      mstore\n      0x20\n      add\n      swap1\n      dup2\n      mstore\n      0x20\n      add\n      0x00\n      keccak256\n      0x00\n      swap1\n      sload\n      swap1\n      0x0100\n      exp\n      swap1\n      div\n      0xffffffffffffffffffffffffffffffffffffffff\n      and\n        /* \"minerpunk/ERC721A/ERC721A.sol\":10374:10405  return _tokenApprovals[tokenId] */\n      swap1\n      pop\n        /* \"minerpunk/ERC721A/ERC721A.sol\":10209:10413  function getApproved(uint256 tokenId) public view override returns (address) {... */\n      swap2\n      swap1\n      pop\n      jump\t// out\n        /* \"minerpunk/ERC721A/ERC721A.sol\":9771:10143  function approve(address to, uint256 tokenId) public override {... */\n    tag_45:\n        /* \"minerpunk/ERC721A/ERC721A.sol\":9844:9857  address owner */\n      0x00\n        /* \"minerpunk/ERC721A/ERC721A.sol\":9860:9884  ERC721A.ownerOf(tokenId) */\n      tag_126\n        /* \"minerpunk/ERC721A/ERC721A.sol\":9876:9883  tokenId */\n      dup3\n        /* \"minerpunk/ERC721A/ERC721A.sol\":9860:9875  ERC721A.ownerOf */\n      tag_63\n        /* \"minerpunk/ERC721A/ERC721A.sol\":9860:9884  ERC721A.ownerOf(tokenId) */\n      jump\t// in\n    tag_126:\n        /* \"minerpunk/ERC721A/ERC721A.sol\":9844:9884  address owner = ERC721A.ownerOf(tokenId) */\n      swap1\n      pop\n        /* \"minerpunk/ERC721A/ERC721A.sol\":9905:9910  owner */\n      dup1\n        /* \"minerpunk/ERC721A/ERC721A.sol\":9899:9910  to == owner */\n      0xffffffffffffffffffffffffffffffffffffffff\n      and\n        /* \"minerpunk/ERC721A/ERC721A.sol\":9899:9901  to */\n      dup4\n        /* \"minerpunk/ERC721A/ERC721A.sol\":9899:9910  to == owner */\n      0xffffffffffffffffffffffffffffffffffffffff\n      and\n      sub\n        /* \"minerpunk/ERC721A/ERC721A.sol\":9895:9943  if (to == owner) revert ApprovalToCurrentOwner() */\n      tag_127\n      jumpi\n        /* \"minerpunk/ERC721A/ERC721A.sol\":9919:9943  ApprovalToCurrentOwner() */\n      mload(0x40)\n      0x943f7b8c00000000000000000000000000000000000000000000000000000000\n      dup2\n      mstore\n      0x04\n      add\n      mload(0x40)\n      dup1\n      swap2\n      sub\n      swap1\n      revert\n        /* \"minerpunk/ERC721A/ERC721A.sol\":9895:9943  if (to == owner) revert ApprovalToCurrentOwner() */\n    tag_127:\n        /* \"minerpunk/ERC721A/ERC721A.sol\":9976:9981  owner */\n      dup1\n        /* \"minerpunk/ERC721A/ERC721A.sol\":9960:9981  _msgSender() != owner */\n      0xffffffffffffffffffffffffffffffffffffffff\n      and\n        /* \"minerpunk/ERC721A/ERC721A.sol\":9960:9972  _msgSender() */\n      tag_128\n        /* \"minerpunk/ERC721A/ERC721A.sol\":9960:9970  _msgSender */\n      tag_129\n        /* \"minerpunk/ERC721A/ERC721A.sol\":9960:9972  _msgSender() */\n      jump\t// in\n    tag_128:\n        /* \"minerpunk/ERC721A/ERC721A.sol\":9960:9981  _msgSender() != owner */\n      0xffffffffffffffffffffffffffffffffffffffff\n      and\n      eq\n        /* \"minerpunk/ERC721A/ERC721A.sol\":9956:10095  if (_msgSender() != owner) if(!isApprovedForAll(owner, _msgSender())) {... */\n      tag_130\n      jumpi\n        /* \"minerpunk/ERC721A/ERC721A.sol\":9987:10024  isApprovedForAll(owner, _msgSender()) */\n      tag_131\n        /* \"minerpunk/ERC721A/ERC721A.sol\":10004:10009  owner */\n      dup2\n        /* \"minerpunk/ERC721A/ERC721A.sol\":10011:10023  _msgSender() */\n      tag_132\n        /* \"minerpunk/ERC721A/ERC721A.sol\":10011:10021  _msgSender */\n      tag_129\n        /* \"minerpunk/ERC721A/ERC721A.sol\":10011:10023  _msgSender() */\n      jump\t// in\n    tag_132:\n        /* \"minerpunk/ERC721A/ERC721A.sol\":9987:10003  isApprovedForAll */\n      tag_102\n        /* \"minerpunk/ERC721A/ERC721A.sol\":9987:10024  isApprovedForAll(owner, _msgSender()) */\n      jump\t// in\n    tag_131:\n        /* \"minerpunk/ERC721A/ERC721A.sol\":9983:10095  if(!isApprovedForAll(owner, _msgSender())) {... */\n      tag_133\n      jumpi\n        /* \"minerpunk/ERC721A/ERC721A.sol\":10048:10083  ApprovalCallerNotOwnerNorApproved() */\n      mload(0x40)\n      0xcfb3b94200000000000000000000000000000000000000000000000000000000\n      dup2\n      mstore\n      0x04\n      add\n      mload(0x40)\n      dup1\n      swap2\n      sub\n      swap1\n      revert\n        /* \"minerpunk/ERC721A/ERC721A.sol\":9983:10095  if(!isApprovedForAll(owner, _msgSender())) {... */\n    tag_133:\n        /* \"minerpunk/ERC721A/ERC721A.sol\":9956:10095  if (_msgSender() != owner) if(!isApprovedForAll(owner, _msgSender())) {... */\n    tag_130:\n        /* \"minerpunk/ERC721A/ERC721A.sol\":10107:10135  _approve(to, tokenId, owner) */\n      tag_134\n        /* \"minerpunk/ERC721A/ERC721A.sol\":10116:10118  to */\n      dup4\n        /* \"minerpunk/ERC721A/ERC721A.sol\":10120:10127  tokenId */\n      dup4\n        /* \"minerpunk/ERC721A/ERC721A.sol\":10129:10134  owner */\n      dup4\n        /* \"minerpunk/ERC721A/ERC721A.sol\":10107:10115  _approve */\n      tag_135\n        /* \"minerpunk/ERC721A/ERC721A.sol\":10107:10135  _approve(to, tokenId, owner) */\n      jump\t// in\n    tag_134:\n        /* \"minerpunk/ERC721A/ERC721A.sol\":9833:10143  {... */\n      pop\n        /* \"minerpunk/ERC721A/ERC721A.sol\":9771:10143  function approve(address to, uint256 tokenId) public override {... */\n      pop\n      pop\n      jump\t// out\n        /* \"minerpunk/ERC721A/ERC721A.sol\":4209:4521  function totalSupply() public view override returns (uint256) {... */\n    tag_47:\n        /* \"minerpunk/ERC721A/ERC721A.sol\":4262:4269  uint256 */\n      0x00\n        /* \"minerpunk/ERC721A/ERC721A.sol\":4487:4502  _startTokenId() */\n      tag_137\n        /* \"minerpunk/ERC721A/ERC721A.sol\":4487:4500  _startTokenId */\n      tag_138\n        /* \"minerpunk/ERC721A/ERC721A.sol\":4487:4502  _startTokenId() */\n      jump\t// in\n    tag_137:\n        /* \"minerpunk/ERC721A/ERC721A.sol\":4472:4484  _burnCounter */\n      sload(0x06)\n        /* \"minerpunk/ERC721A/ERC721A.sol\":4456:4469  _currentIndex */\n      sload(0x04)\n        /* \"minerpunk/ERC721A/ERC721A.sol\":4456:4484  _currentIndex - _burnCounter */\n      sub\n        /* \"minerpunk/ERC721A/ERC721A.sol\":4456:4502  _currentIndex - _burnCounter - _startTokenId() */\n      sub\n        /* \"minerpunk/ERC721A/ERC721A.sol\":4449:4502  return _currentIndex - _burnCounter - _startTokenId() */\n      swap1\n      pop\n        /* \"minerpunk/ERC721A/ERC721A.sol\":4209:4521  function totalSupply() public view override returns (uint256) {... */\n      swap1\n      jump\t// out\n        /* \"minerpunk/ERC721A/ERC721A.sol\":11074:11244  function transferFrom(... */\n    tag_53:\n        /* \"minerpunk/ERC721A/ERC721A.sol\":11208:11236  _transfer(from, to, tokenId) */\n      tag_140\n        /* \"minerpunk/ERC721A/ERC721A.sol\":11218:11222  from */\n      dup4\n        /* \"minerpunk/ERC721A/ERC721A.sol\":11224:11226  to */\n      dup4\n        /* \"minerpunk/ERC721A/ERC721A.sol\":11228:11235  tokenId */\n      dup4\n        /* \"minerpunk/ERC721A/ERC721A.sol\":11208:11217  _transfer */\n      tag_141\n        /* \"minerpunk/ERC721A/ERC721A.sol\":11208:11236  _transfer(from, to, tokenId) */\n      jump\t// in\n    tag_140:\n        /* \"minerpunk/ERC721A/ERC721A.sol\":11074:11244  function transferFrom(... */\n      pop\n      pop\n      pop\n      jump\t// out\n        /* \"minerpunk/ERC721A/ERC721A.sol\":11315:11500  function safeTransferFrom(... */\n    tag_56:\n        /* \"minerpunk/ERC721A/ERC721A.sol\":11453:11492  safeTransferFrom(from, to, tokenId, '') */\n      tag_143\n        /* \"minerpunk/ERC721A/ERC721A.sol\":11470:11474  from */\n      dup4\n        /* \"minerpunk/ERC721A/ERC721A.sol\":11476:11478  to */\n      dup4\n        /* \"minerpunk/ERC721A/ERC721A.sol\":11480:11487  tokenId */\n      dup4\n        /* \"minerpunk/ERC721A/ERC721A.sol\":11453:11492  safeTransferFrom(from, to, tokenId, '') */\n      mload(0x40)\n      dup1\n      0x20\n      add\n      0x40\n      mstore\n      dup1\n      0x00\n      dup2\n      mstore\n      pop\n        /* \"minerpunk/ERC721A/ERC721A.sol\":11453:11469  safeTransferFrom */\n      tag_80\n        /* \"minerpunk/ERC721A/ERC721A.sol\":11453:11492  safeTransferFrom(from, to, tokenId, '') */\n      jump\t// in\n    tag_143:\n        /* \"minerpunk/ERC721A/ERC721A.sol\":11315:11500  function safeTransferFrom(... */\n      pop\n      pop\n      pop\n      jump\t// out\n        /* \"minerpunk/ERC721A/ERC721A.sol\":3221:3554  function blockStatus (uint256 _BlockNumber)public view  override returns (uint256){... */\n    tag_59:\n        /* \"minerpunk/ERC721A/ERC721A.sol\":3295:3302  uint256 */\n      0x00\n        /* \"minerpunk/ERC721A/ERC721A.sol\":3332:3349  _startBlockNumber */\n      sload(0x02)\n        /* \"minerpunk/ERC721A/ERC721A.sol\":3317:3329  _BlockNumber */\n      dup3\n        /* \"minerpunk/ERC721A/ERC721A.sol\":3317:3349  _BlockNumber < _startBlockNumber */\n      lt\n        /* \"minerpunk/ERC721A/ERC721A.sol\":3314:3409  if(_BlockNumber < _startBlockNumber){... */\n      iszero\n      tag_145\n      jumpi\n        /* \"minerpunk/ERC721A/ERC721A.sol\":3380:3397  _startBlockNumber */\n      sload(0x02)\n        /* \"minerpunk/ERC721A/ERC721A.sol\":3365:3397  _BlockNumber = _startBlockNumber */\n      swap2\n      pop\n        /* \"minerpunk/ERC721A/ERC721A.sol\":3314:3409  if(_BlockNumber < _startBlockNumber){... */\n    tag_145:\n        /* \"minerpunk/ERC721A/ERC721A.sol\":3419:3436  uint256 Stepcount */\n      0x00\n        /* \"minerpunk/ERC721A/ERC721A.sol\":3439:3487  _BlockNumber.sub(_startBlockNumber).add(1500000) */\n      tag_146\n        /* \"minerpunk/ERC721A/ERC721A.sol\":3479:3486  1500000 */\n      0x16e360\n        /* \"minerpunk/ERC721A/ERC721A.sol\":3439:3474  _BlockNumber.sub(_startBlockNumber) */\n      tag_147\n        /* \"minerpunk/ERC721A/ERC721A.sol\":3456:3473  _startBlockNumber */\n      sload(0x02)\n        /* \"minerpunk/ERC721A/ERC721A.sol\":3439:3451  _BlockNumber */\n      dup7\n        /* \"minerpunk/ERC721A/ERC721A.sol\":3439:3455  _BlockNumber.sub */\n      tag_148\n      swap1\n        /* \"minerpunk/ERC721A/ERC721A.sol\":3439:3474  _BlockNumber.sub(_startBlockNumber) */\n      swap2\n      swap1\n      0xffffffff\n      and\n      jump\t// in\n    tag_147:\n        /* \"minerpunk/ERC721A/ERC721A.sol\":3439:3478  _BlockNumber.sub(_startBlockNumber).add */\n      tag_149\n      swap1\n        /* \"minerpunk/ERC721A/ERC721A.sol\":3439:3487  _BlockNumber.sub(_startBlockNumber).add(1500000) */\n      swap2\n      swap1\n      0xffffffff\n      and\n      jump\t// in\n    tag_146:\n        /* \"minerpunk/ERC721A/ERC721A.sol\":3419:3487  uint256 Stepcount = _BlockNumber.sub(_startBlockNumber).add(1500000) */\n      swap1\n      pop\n        /* \"minerpunk/ERC721A/ERC721A.sol\":3498:3507  uint256 b */\n      0x00\n        /* \"minerpunk/ERC721A/ERC721A.sol\":3510:3527  _K.div(Stepcount) */\n      tag_150\n        /* \"minerpunk/ERC721A/ERC721A.sol\":3517:3526  Stepcount */\n      dup3\n        /* \"minerpunk/ERC721A/ERC721A.sol\":3510:3512  _K */\n      sload(0x01)\n        /* \"minerpunk/ERC721A/ERC721A.sol\":3510:3516  _K.div */\n      tag_151\n      swap1\n        /* \"minerpunk/ERC721A/ERC721A.sol\":3510:3527  _K.div(Stepcount) */\n      swap2\n      swap1\n      0xffffffff\n      and\n      jump\t// in\n    tag_150:\n        /* \"minerpunk/ERC721A/ERC721A.sol\":3498:3527  uint256 b = _K.div(Stepcount) */\n      swap1\n      pop\n        /* \"minerpunk/ERC721A/ERC721A.sol\":3545:3546  b */\n      dup1\n        /* \"minerpunk/ERC721A/ERC721A.sol\":3538:3546  return b */\n      swap3\n      pop\n      pop\n      pop\n        /* \"minerpunk/ERC721A/ERC721A.sol\":3221:3554  function blockStatus (uint256 _BlockNumber)public view  override returns (uint256){... */\n      swap2\n      swap1\n      pop\n      jump\t// out\n        /* \"minerpunk/ERC721A/ERC721A.sol\":8422:8547  function ownerOf(uint256 tokenId) public view override returns (address) {... */\n    tag_63:\n        /* \"minerpunk/ERC721A/ERC721A.sol\":8486:8493  address */\n      0x00\n        /* \"minerpunk/ERC721A/ERC721A.sol\":8513:8534  _ownershipOf(tokenId) */\n      tag_153\n        /* \"minerpunk/ERC721A/ERC721A.sol\":8526:8533  tokenId */\n      dup3\n        /* \"minerpunk/ERC721A/ERC721A.sol\":8513:8525  _ownershipOf */\n      tag_154\n        /* \"minerpunk/ERC721A/ERC721A.sol\":8513:8534  _ownershipOf(tokenId) */\n      jump\t// in\n    tag_153:\n        /* \"minerpunk/ERC721A/ERC721A.sol\":8513:8539  _ownershipOf(tokenId).addr */\n      0x00\n      add\n      mload\n        /* \"minerpunk/ERC721A/ERC721A.sol\":8506:8539  return _ownershipOf(tokenId).addr */\n      swap1\n      pop\n        /* \"minerpunk/ERC721A/ERC721A.sol\":8422:8547  function ownerOf(uint256 tokenId) public view override returns (address) {... */\n      swap2\n      swap1\n      pop\n      jump\t// out\n        /* \"minerpunk/ERC721A/ERC721A.sol\":5867:6073  function balanceOf(address owner) public view override returns (uint256) {... */\n    tag_68:\n        /* \"minerpunk/ERC721A/ERC721A.sol\":5931:5938  uint256 */\n      0x00\n        /* \"minerpunk/ERC721A/ERC721A.sol\":5972:5973  0 */\n      dup1\n        /* \"minerpunk/ERC721A/ERC721A.sol\":5955:5974  owner == address(0) */\n      0xffffffffffffffffffffffffffffffffffffffff\n      and\n        /* \"minerpunk/ERC721A/ERC721A.sol\":5955:5960  owner */\n      dup3\n        /* \"minerpunk/ERC721A/ERC721A.sol\":5955:5974  owner == address(0) */\n      0xffffffffffffffffffffffffffffffffffffffff\n      and\n      sub\n        /* \"minerpunk/ERC721A/ERC721A.sol\":5951:6011  if (owner == address(0)) revert BalanceQueryForZeroAddress() */\n      tag_156\n      jumpi\n        /* \"minerpunk/ERC721A/ERC721A.sol\":5983:6011  BalanceQueryForZeroAddress() */\n      mload(0x40)\n      0x8f4eb60400000000000000000000000000000000000000000000000000000000\n      dup2\n      mstore\n      0x04\n      add\n      mload(0x40)\n      dup1\n      swap2\n      sub\n      swap1\n      revert\n        /* \"minerpunk/ERC721A/ERC721A.sol\":5951:6011  if (owner == address(0)) revert BalanceQueryForZeroAddress() */\n    tag_156:\n        /* \"minerpunk/ERC721A/ERC721A.sol\":6037:6049  _addressData */\n      0x0a\n        /* \"minerpunk/ERC721A/ERC721A.sol\":6037:6056  _addressData[owner] */\n      0x00\n        /* \"minerpunk/ERC721A/ERC721A.sol\":6050:6055  owner */\n      dup4\n        /* \"minerpunk/ERC721A/ERC721A.sol\":6037:6056  _addressData[owner] */\n      0xffffffffffffffffffffffffffffffffffffffff\n      and\n      0xffffffffffffffffffffffffffffffffffffffff\n      and\n      dup2\n      mstore\n      0x20\n      add\n      swap1\n      dup2\n      mstore\n      0x20\n      add\n      0x00\n      keccak256\n        /* \"minerpunk/ERC721A/ERC721A.sol\":6037:6064  _addressData[owner].balance */\n      0x00\n      add\n      0x00\n      swap1\n      sload\n      swap1\n      0x0100\n      exp\n      swap1\n      div\n      0xffffffffffffffff\n      and\n        /* \"minerpunk/ERC721A/ERC721A.sol\":6029:6065  uint256(_addressData[owner].balance) */\n      0xffffffffffffffff\n      and\n        /* \"minerpunk/ERC721A/ERC721A.sol\":6022:6065  return uint256(_addressData[owner].balance) */\n      swap1\n      pop\n        /* \"minerpunk/ERC721A/ERC721A.sol\":5867:6073  function balanceOf(address owner) public view override returns (uint256) {... */\n      swap2\n      swap1\n      pop\n      jump\t// out\n        /* \"minerpunk/ERC721A/ERC721A.sol\":8783:8887  function symbol() public view virtual override returns (string memory) {... */\n    tag_71:\n        /* \"minerpunk/ERC721A/ERC721A.sol\":8839:8852  string memory */\n      0x60\n        /* \"minerpunk/ERC721A/ERC721A.sol\":8872:8879  _symbol */\n      0x08\n        /* \"minerpunk/ERC721A/ERC721A.sol\":8865:8879  return _symbol */\n      dup1\n      sload\n      tag_158\n      swap1\n      tag_116\n      jump\t// in\n    tag_158:\n      dup1\n      0x1f\n      add\n      0x20\n      dup1\n      swap2\n      div\n      mul\n      0x20\n      add\n      mload(0x40)\n      swap1\n      dup2\n      add\n      0x40\n      mstore\n      dup1\n      swap3\n      swap2\n      swap1\n      dup2\n      dup2\n      mstore\n      0x20\n      add\n      dup3\n      dup1\n      sload\n      tag_159\n      swap1\n      tag_116\n      jump\t// in\n    tag_159:\n      dup1\n      iszero\n      tag_160\n      jumpi\n      dup1\n      0x1f\n      lt\n      tag_161\n      jumpi\n      0x0100\n      dup1\n      dup4\n      sload\n      div\n      mul\n      dup4\n      mstore\n      swap2\n      0x20\n      add\n      swap2\n      jump(tag_160)\n    tag_161:\n      dup3\n      add\n      swap2\n      swap1\n      0x00\n      mstore\n      keccak256(0x00, 0x20)\n      swap1\n    tag_162:\n      dup2\n      sload\n      dup2\n      mstore\n      swap1\n      0x01\n      add\n      swap1\n      0x20\n      add\n      dup1\n      dup4\n      gt\n      tag_162\n      jumpi\n      dup3\n      swap1\n      sub\n      0x1f\n      and\n      dup3\n      add\n      swap2\n    tag_160:\n      pop\n      pop\n      pop\n      pop\n      pop\n      swap1\n      pop\n        /* \"minerpunk/ERC721A/ERC721A.sol\":8783:8887  function symbol() public view virtual override returns (string memory) {... */\n      swap1\n      jump\t// out\n        /* \"minerpunk/ERC721A/ERC721A.sol\":10485:10772  function setApprovalForAll(address operator, bool approved) public virtual override {... */\n    tag_76:\n        /* \"minerpunk/ERC721A/ERC721A.sol\":10596:10608  _msgSender() */\n      tag_164\n        /* \"minerpunk/ERC721A/ERC721A.sol\":10596:10606  _msgSender */\n      tag_129\n        /* \"minerpunk/ERC721A/ERC721A.sol\":10596:10608  _msgSender() */\n      jump\t// in\n    tag_164:\n        /* \"minerpunk/ERC721A/ERC721A.sol\":10584:10608  operator == _msgSender() */\n      0xffffffffffffffffffffffffffffffffffffffff\n      and\n        /* \"minerpunk/ERC721A/ERC721A.sol\":10584:10592  operator */\n      dup3\n        /* \"minerpunk/ERC721A/ERC721A.sol\":10584:10608  operator == _msgSender() */\n      0xffffffffffffffffffffffffffffffffffffffff\n      and\n      sub\n        /* \"minerpunk/ERC721A/ERC721A.sol\":10580:10634  if (operator == _msgSender()) revert ApproveToCaller() */\n      tag_165\n      jumpi\n        /* \"minerpunk/ERC721A/ERC721A.sol\":10617:10634  ApproveToCaller() */\n      mload(0x40)\n      0xb06307db00000000000000000000000000000000000000000000000000000000\n      dup2\n      mstore\n      0x04\n      add\n      mload(0x40)\n      dup1\n      swap2\n      sub\n      swap1\n      revert\n        /* \"minerpunk/ERC721A/ERC721A.sol\":10580:10634  if (operator == _msgSender()) revert ApproveToCaller() */\n    tag_165:\n        /* \"minerpunk/ERC721A/ERC721A.sol\":10692:10700  approved */\n      dup1\n        /* \"minerpunk/ERC721A/ERC721A.sol\":10647:10665  _operatorApprovals */\n      0x0c\n        /* \"minerpunk/ERC721A/ERC721A.sol\":10647:10679  _operatorApprovals[_msgSender()] */\n      0x00\n        /* \"minerpunk/ERC721A/ERC721A.sol\":10666:10678  _msgSender() */\n      tag_166\n        /* \"minerpunk/ERC721A/ERC721A.sol\":10666:10676  _msgSender */\n      tag_129\n        /* \"minerpunk/ERC721A/ERC721A.sol\":10666:10678  _msgSender() */\n      jump\t// in\n    tag_166:\n        /* \"minerpunk/ERC721A/ERC721A.sol\":10647:10679  _operatorApprovals[_msgSender()] */\n      0xffffffffffffffffffffffffffffffffffffffff\n      and\n      0xffffffffffffffffffffffffffffffffffffffff\n      and\n      dup2\n      mstore\n      0x20\n      add\n      swap1\n      dup2\n      mstore\n      0x20\n      add\n      0x00\n      keccak256\n        /* \"minerpunk/ERC721A/ERC721A.sol\":10647:10689  _operatorApprovals[_msgSender()][operator] */\n      0x00\n        /* \"minerpunk/ERC721A/ERC721A.sol\":10680:10688  operator */\n      dup5\n        /* \"minerpunk/ERC721A/ERC721A.sol\":10647:10689  _operatorApprovals[_msgSender()][operator] */\n      0xffffffffffffffffffffffffffffffffffffffff\n      and\n      0xffffffffffffffffffffffffffffffffffffffff\n      and\n      dup2\n      mstore\n      0x20\n      add\n      swap1\n      dup2\n      mstore\n      0x20\n      add\n      0x00\n      keccak256\n      0x00\n        /* \"minerpunk/ERC721A/ERC721A.sol\":10647:10700  _operatorApprovals[_msgSender()][operator] = approved */\n      0x0100\n      exp\n      dup2\n      sload\n      dup2\n      0xff\n      mul\n      not\n      and\n      swap1\n      dup4\n      iszero\n      iszero\n      mul\n      or\n      swap1\n      sstore\n      pop\n        /* \"minerpunk/ERC721A/ERC721A.sol\":10745:10753  operator */\n      dup2\n        /* \"minerpunk/ERC721A/ERC721A.sol\":10716:10764  ApprovalForAll(_msgSender(), operator, approved) */\n      0xffffffffffffffffffffffffffffffffffffffff\n      and\n        /* \"minerpunk/ERC721A/ERC721A.sol\":10731:10743  _msgSender() */\n      tag_167\n        /* \"minerpunk/ERC721A/ERC721A.sol\":10731:10741  _msgSender */\n      tag_129\n        /* \"minerpunk/ERC721A/ERC721A.sol\":10731:10743  _msgSender() */\n      jump\t// in\n    tag_167:\n        /* \"minerpunk/ERC721A/ERC721A.sol\":10716:10764  ApprovalForAll(_msgSender(), operator, approved) */\n      0xffffffffffffffffffffffffffffffffffffffff\n      and\n      0x17307eab39ab6107e8899845ad3d59bd9653f200f220920489ca2b5937696c31\n        /* \"minerpunk/ERC721A/ERC721A.sol\":10755:10763  approved */\n      dup4\n        /* \"minerpunk/ERC721A/ERC721A.sol\":10716:10764  ApprovalForAll(_msgSender(), operator, approved) */\n      mload(0x40)\n      tag_168\n      swap2\n      swap1\n      tag_31\n      jump\t// in\n    tag_168:\n      mload(0x40)\n      dup1\n      swap2\n      sub\n      swap1\n      log3\n        /* \"minerpunk/ERC721A/ERC721A.sol\":10485:10772  function setApprovalForAll(address operator, bool approved) public virtual override {... */\n      pop\n      pop\n      jump\t// out\n        /* \"minerpunk/ERC721A/ERC721A.sol\":11571:11941  function safeTransferFrom(... */\n    tag_80:\n        /* \"minerpunk/ERC721A/ERC721A.sol\":11738:11766  _transfer(from, to, tokenId) */\n      tag_170\n        /* \"minerpunk/ERC721A/ERC721A.sol\":11748:11752  from */\n      dup5\n        /* \"minerpunk/ERC721A/ERC721A.sol\":11754:11756  to */\n      dup5\n        /* \"minerpunk/ERC721A/ERC721A.sol\":11758:11765  tokenId */\n      dup5\n        /* \"minerpunk/ERC721A/ERC721A.sol\":11738:11747  _transfer */\n      tag_141\n        /* \"minerpunk/ERC721A/ERC721A.sol\":11738:11766  _transfer(from, to, tokenId) */\n      jump\t// in\n    tag_170:\n        /* \"minerpunk/ERC721A/ERC721A.sol\":11781:11796  to.isContract() */\n      tag_171\n        /* \"minerpunk/ERC721A/ERC721A.sol\":11781:11783  to */\n      dup4\n        /* \"minerpunk/ERC721A/ERC721A.sol\":11781:11794  to.isContract */\n      0xffffffffffffffffffffffffffffffffffffffff\n      and\n      tag_172\n        /* \"minerpunk/ERC721A/ERC721A.sol\":11781:11796  to.isContract() */\n      jump\t// in\n    tag_171:\n        /* \"minerpunk/ERC721A/ERC721A.sol\":11777:11934  if (to.isContract()) if(!_checkContractOnERC721Received(from, to, tokenId, _data)) {... */\n      iszero\n      tag_173\n      jumpi\n        /* \"minerpunk/ERC721A/ERC721A.sol\":11802:11858  _checkContractOnERC721Received(from, to, tokenId, _data) */\n      tag_174\n        /* \"minerpunk/ERC721A/ERC721A.sol\":11833:11837  from */\n      dup5\n        /* \"minerpunk/ERC721A/ERC721A.sol\":11839:11841  to */\n      dup5\n        /* \"minerpunk/ERC721A/ERC721A.sol\":11843:11850  tokenId */\n      dup5\n        /* \"minerpunk/ERC721A/ERC721A.sol\":11852:11857  _data */\n      dup5\n        /* \"minerpunk/ERC721A/ERC721A.sol\":11802:11832  _checkContractOnERC721Received */\n      tag_175\n        /* \"minerpunk/ERC721A/ERC721A.sol\":11802:11858  _checkContractOnERC721Received(from, to, tokenId, _data) */\n      jump\t// in\n    tag_174:\n        /* \"minerpunk/ERC721A/ERC721A.sol\":11798:11934  if(!_checkContractOnERC721Received(from, to, tokenId, _data)) {... */\n      tag_176\n      jumpi\n        /* \"minerpunk/ERC721A/ERC721A.sol\":11882:11922  TransferToNonERC721ReceiverImplementer() */\n      mload(0x40)\n      0xd1a57ed600000000000000000000000000000000000000000000000000000000\n      dup2\n      mstore\n      0x04\n      add\n      mload(0x40)\n      dup1\n      swap2\n      sub\n      swap1\n      revert\n        /* \"minerpunk/ERC721A/ERC721A.sol\":11798:11934  if(!_checkContractOnERC721Received(from, to, tokenId, _data)) {... */\n    tag_176:\n        /* \"minerpunk/ERC721A/ERC721A.sol\":11777:11934  if (to.isContract()) if(!_checkContractOnERC721Received(from, to, tokenId, _data)) {... */\n    tag_173:\n        /* \"minerpunk/ERC721A/ERC721A.sol\":11571:11941  function safeTransferFrom(... */\n      pop\n      pop\n      pop\n      pop\n      jump\t// out\n        /* \"minerpunk/ERC721A/ERC721A.sol\":2821:3202  function MineStatus(address user)public view override returns(uint256){           ... */\n    tag_83:\n        /* \"minerpunk/ERC721A/ERC721A.sol\":2883:2890  uint256 */\n      0x00\n        /* \"minerpunk/ERC721A/ERC721A.sol\":2913:2926  uint256 start */\n      dup1\n        /* \"minerpunk/ERC721A/ERC721A.sol\":2929:2960  blockStatus(_mineInfo[user][1]) */\n      tag_178\n        /* \"minerpunk/ERC721A/ERC721A.sol\":2941:2950  _mineInfo */\n      0x0d\n        /* \"minerpunk/ERC721A/ERC721A.sol\":2941:2956  _mineInfo[user] */\n      0x00\n        /* \"minerpunk/ERC721A/ERC721A.sol\":2951:2955  user */\n      dup6\n        /* \"minerpunk/ERC721A/ERC721A.sol\":2941:2956  _mineInfo[user] */\n      0xffffffffffffffffffffffffffffffffffffffff\n      and\n      0xffffffffffffffffffffffffffffffffffffffff\n      and\n      dup2\n      mstore\n      0x20\n      add\n      swap1\n      dup2\n      mstore\n      0x20\n      add\n      0x00\n      keccak256\n        /* \"minerpunk/ERC721A/ERC721A.sol\":2941:2959  _mineInfo[user][1] */\n      0x00\n        /* \"minerpunk/ERC721A/ERC721A.sol\":2957:2958  1 */\n      0x01\n        /* \"minerpunk/ERC721A/ERC721A.sol\":2941:2959  _mineInfo[user][1] */\n      dup2\n      mstore\n      0x20\n      add\n      swap1\n      dup2\n      mstore\n      0x20\n      add\n      0x00\n      keccak256\n      sload\n        /* \"minerpunk/ERC721A/ERC721A.sol\":2929:2940  blockStatus */\n      tag_59\n        /* \"minerpunk/ERC721A/ERC721A.sol\":2929:2960  blockStatus(_mineInfo[user][1]) */\n      jump\t// in\n    tag_178:\n        /* \"minerpunk/ERC721A/ERC721A.sol\":2913:2960  uint256 start = blockStatus(_mineInfo[user][1]) */\n      swap1\n      pop\n        /* \"minerpunk/ERC721A/ERC721A.sol\":2971:2982  uint256 end */\n      0x00\n        /* \"minerpunk/ERC721A/ERC721A.sol\":2985:3010  blockStatus(block.number) */\n      tag_179\n        /* \"minerpunk/ERC721A/ERC721A.sol\":2997:3009  block.number */\n      number\n        /* \"minerpunk/ERC721A/ERC721A.sol\":2985:2996  blockStatus */\n      tag_59\n        /* \"minerpunk/ERC721A/ERC721A.sol\":2985:3010  blockStatus(block.number) */\n      jump\t// in\n    tag_179:\n        /* \"minerpunk/ERC721A/ERC721A.sol\":2971:3010  uint256 end = blockStatus(block.number) */\n      swap1\n      pop\n        /* \"minerpunk/ERC721A/ERC721A.sol\":3028:3043  uint dcf_amount */\n      0x00\n        /* \"minerpunk/ERC721A/ERC721A.sol\":3046:3060  start.sub(end) */\n      tag_180\n        /* \"minerpunk/ERC721A/ERC721A.sol\":3056:3059  end */\n      dup3\n        /* \"minerpunk/ERC721A/ERC721A.sol\":3046:3051  start */\n      dup5\n        /* \"minerpunk/ERC721A/ERC721A.sol\":3046:3055  start.sub */\n      tag_148\n      swap1\n        /* \"minerpunk/ERC721A/ERC721A.sol\":3046:3060  start.sub(end) */\n      swap2\n      swap1\n      0xffffffff\n      and\n      jump\t// in\n    tag_180:\n        /* \"minerpunk/ERC721A/ERC721A.sol\":3028:3060  uint dcf_amount = start.sub(end) */\n      swap1\n      pop\n        /* \"minerpunk/ERC721A/ERC721A.sol\":3084:3135  dcf_amount.mul(_mineInfo[user][2]).div(_totalPower) */\n      tag_181\n        /* \"minerpunk/ERC721A/ERC721A.sol\":3123:3134  _totalPower */\n      sload(0x03)\n        /* \"minerpunk/ERC721A/ERC721A.sol\":3084:3118  dcf_amount.mul(_mineInfo[user][2]) */\n      tag_182\n        /* \"minerpunk/ERC721A/ERC721A.sol\":3099:3108  _mineInfo */\n      0x0d\n        /* \"minerpunk/ERC721A/ERC721A.sol\":3099:3114  _mineInfo[user] */\n      0x00\n        /* \"minerpunk/ERC721A/ERC721A.sol\":3109:3113  user */\n      dup10\n        /* \"minerpunk/ERC721A/ERC721A.sol\":3099:3114  _mineInfo[user] */\n      0xffffffffffffffffffffffffffffffffffffffff\n      and\n      0xffffffffffffffffffffffffffffffffffffffff\n      and\n      dup2\n      mstore\n      0x20\n      add\n      swap1\n      dup2\n      mstore\n      0x20\n      add\n      0x00\n      keccak256\n        /* \"minerpunk/ERC721A/ERC721A.sol\":3099:3117  _mineInfo[user][2] */\n      0x00\n        /* \"minerpunk/ERC721A/ERC721A.sol\":3115:3116  2 */\n      0x02\n        /* \"minerpunk/ERC721A/ERC721A.sol\":3099:3117  _mineInfo[user][2] */\n      dup2\n      mstore\n      0x20\n      add\n      swap1\n      dup2\n      mstore\n      0x20\n      add\n      0x00\n      keccak256\n      sload\n        /* \"minerpunk/ERC721A/ERC721A.sol\":3084:3094  dcf_amount */\n      dup5\n        /* \"minerpunk/ERC721A/ERC721A.sol\":3084:3098  dcf_amount.mul */\n      tag_108\n      swap1\n        /* \"minerpunk/ERC721A/ERC721A.sol\":3084:3118  dcf_amount.mul(_mineInfo[user][2]) */\n      swap2\n      swap1\n      0xffffffff\n      and\n      jump\t// in\n    tag_182:\n        /* \"minerpunk/ERC721A/ERC721A.sol\":3084:3122  dcf_amount.mul(_mineInfo[user][2]).div */\n      tag_151\n      swap1\n        /* \"minerpunk/ERC721A/ERC721A.sol\":3084:3135  dcf_amount.mul(_mineInfo[user][2]).div(_totalPower) */\n      swap2\n      swap1\n      0xffffffff\n      and\n      jump\t// in\n    tag_181:\n        /* \"minerpunk/ERC721A/ERC721A.sol\":3071:3135  dcf_amount = dcf_amount.mul(_mineInfo[user][2]).div(_totalPower) */\n      swap1\n      pop\n        /* \"minerpunk/ERC721A/ERC721A.sol\":3153:3187  _mineInfo[user][3].add(dcf_amount) */\n      tag_183\n        /* \"minerpunk/ERC721A/ERC721A.sol\":3176:3186  dcf_amount */\n      dup2\n        /* \"minerpunk/ERC721A/ERC721A.sol\":3153:3162  _mineInfo */\n      0x0d\n        /* \"minerpunk/ERC721A/ERC721A.sol\":3153:3168  _mineInfo[user] */\n      0x00\n        /* \"minerpunk/ERC721A/ERC721A.sol\":3163:3167  user */\n      dup9\n        /* \"minerpunk/ERC721A/ERC721A.sol\":3153:3168  _mineInfo[user] */\n      0xffffffffffffffffffffffffffffffffffffffff\n      and\n      0xffffffffffffffffffffffffffffffffffffffff\n      and\n      dup2\n      mstore\n      0x20\n      add\n      swap1\n      dup2\n      mstore\n      0x20\n      add\n      0x00\n      keccak256\n        /* \"minerpunk/ERC721A/ERC721A.sol\":3153:3171  _mineInfo[user][3] */\n      0x00\n        /* \"minerpunk/ERC721A/ERC721A.sol\":3169:3170  3 */\n      0x03\n        /* \"minerpunk/ERC721A/ERC721A.sol\":3153:3171  _mineInfo[user][3] */\n      dup2\n      mstore\n      0x20\n      add\n      swap1\n      dup2\n      mstore\n      0x20\n      add\n      0x00\n      keccak256\n      sload\n        /* \"minerpunk/ERC721A/ERC721A.sol\":3153:3175  _mineInfo[user][3].add */\n      tag_149\n      swap1\n        /* \"minerpunk/ERC721A/ERC721A.sol\":3153:3187  _mineInfo[user][3].add(dcf_amount) */\n      swap2\n      swap1\n      0xffffffff\n      and\n      jump\t// in\n    tag_183:\n        /* \"minerpunk/ERC721A/ERC721A.sol\":3146:3187  return _mineInfo[user][3].add(dcf_amount) */\n      swap4\n      pop\n      pop\n      pop\n      pop\n        /* \"minerpunk/ERC721A/ERC721A.sol\":2821:3202  function MineStatus(address user)public view override returns(uint256){           ... */\n      swap2\n      swap1\n      pop\n      jump\t// out\n        /* \"minerpunk/ERC721A/ERC721A.sol\":8958:9276  function tokenURI(uint256 tokenId) public view virtual override returns (string memory) {... */\n    tag_87:\n        /* \"minerpunk/ERC721A/ERC721A.sol\":9031:9044  string memory */\n      0x60\n        /* \"minerpunk/ERC721A/ERC721A.sol\":9062:9078  _exists(tokenId) */\n      tag_185\n        /* \"minerpunk/ERC721A/ERC721A.sol\":9070:9077  tokenId */\n      dup3\n        /* \"minerpunk/ERC721A/ERC721A.sol\":9062:9069  _exists */\n      tag_123\n        /* \"minerpunk/ERC721A/ERC721A.sol\":9062:9078  _exists(tokenId) */\n      jump\t// in\n    tag_185:\n        /* \"minerpunk/ERC721A/ERC721A.sol\":9057:9116  if (!_exists(tokenId)) revert URIQueryForNonexistentToken() */\n      tag_186\n      jumpi\n        /* \"minerpunk/ERC721A/ERC721A.sol\":9087:9116  URIQueryForNonexistentToken() */\n      mload(0x40)\n      0xa14c4b5000000000000000000000000000000000000000000000000000000000\n      dup2\n      mstore\n      0x04\n      add\n      mload(0x40)\n      dup1\n      swap2\n      sub\n      swap1\n      revert\n        /* \"minerpunk/ERC721A/ERC721A.sol\":9057:9116  if (!_exists(tokenId)) revert URIQueryForNonexistentToken() */\n    tag_186:\n        /* \"minerpunk/ERC721A/ERC721A.sol\":9129:9150  string memory baseURI */\n      0x00\n        /* \"minerpunk/ERC721A/ERC721A.sol\":9153:9163  _baseURI() */\n      tag_187\n        /* \"minerpunk/ERC721A/ERC721A.sol\":9153:9161  _baseURI */\n      tag_188\n        /* \"minerpunk/ERC721A/ERC721A.sol\":9153:9163  _baseURI() */\n      jump\t// in\n    tag_187:\n        /* \"minerpunk/ERC721A/ERC721A.sol\":9129:9163  string memory baseURI = _baseURI() */\n      swap1\n      pop\n        /* \"minerpunk/ERC721A/ERC721A.sol\":9206:9207  0 */\n      0x00\n        /* \"minerpunk/ERC721A/ERC721A.sol\":9187:9194  baseURI */\n      dup2\n        /* \"minerpunk/ERC721A/ERC721A.sol\":9181:9202  bytes(baseURI).length */\n      mload\n        /* \"minerpunk/ERC721A/ERC721A.sol\":9181:9207  bytes(baseURI).length != 0 */\n      sub\n        /* \"minerpunk/ERC721A/ERC721A.sol\":9181:9268  bytes(baseURI).length != 0 ? string(abi.encodePacked(baseURI, tokenId.toString())) : '' */\n      tag_189\n      jumpi\n      mload(0x40)\n      dup1\n      0x20\n      add\n      0x40\n      mstore\n      dup1\n      0x00\n      dup2\n      mstore\n      pop\n      jump(tag_190)\n    tag_189:\n        /* \"minerpunk/ERC721A/ERC721A.sol\":9234:9241  baseURI */\n      dup1\n        /* \"minerpunk/ERC721A/ERC721A.sol\":9243:9261  tokenId.toString() */\n      tag_191\n        /* \"minerpunk/ERC721A/ERC721A.sol\":9243:9250  tokenId */\n      dup5\n        /* \"minerpunk/ERC721A/ERC721A.sol\":9243:9259  tokenId.toString */\n      tag_192\n        /* \"minerpunk/ERC721A/ERC721A.sol\":9243:9261  tokenId.toString() */\n      jump\t// in\n    tag_191:\n        /* \"minerpunk/ERC721A/ERC721A.sol\":9217:9262  abi.encodePacked(baseURI, tokenId.toString()) */\n      add(0x20, mload(0x40))\n      tag_193\n      swap3\n      swap2\n      swap1\n      tag_194\n      jump\t// in\n    tag_193:\n      mload(0x40)\n      0x20\n      dup2\n      dup4\n      sub\n      sub\n      dup2\n      mstore\n      swap1\n      0x40\n      mstore\n        /* \"minerpunk/ERC721A/ERC721A.sol\":9181:9268  bytes(baseURI).length != 0 ? string(abi.encodePacked(baseURI, tokenId.toString())) : '' */\n    tag_190:\n        /* \"minerpunk/ERC721A/ERC721A.sol\":9174:9268  return bytes(baseURI).length != 0 ? string(abi.encodePacked(baseURI, tokenId.toString())) : '' */\n      swap2\n      pop\n      pop\n        /* \"minerpunk/ERC721A/ERC721A.sol\":8958:9276  function tokenURI(uint256 tokenId) public view virtual override returns (string memory) {... */\n      swap2\n      swap1\n      pop\n      jump\t// out\n        /* \"minerpunk/ERC721A/ERC721A.sol\":4686:4850  function maxSupply() public view  returns (uint256) {       ... */\n    tag_90:\n        /* \"minerpunk/ERC721A/ERC721A.sol\":4729:4736  uint256 */\n      0x00\n        /* \"minerpunk/ERC721A/ERC721A.sol\":4816:4831  _startTokenId() */\n      tag_196\n        /* \"minerpunk/ERC721A/ERC721A.sol\":4816:4829  _startTokenId */\n      tag_138\n        /* \"minerpunk/ERC721A/ERC721A.sol\":4816:4831  _startTokenId() */\n      jump\t// in\n    tag_196:\n        /* \"minerpunk/ERC721A/ERC721A.sol\":4801:4813  _burnCounter */\n      sload(0x06)\n        /* \"minerpunk/ERC721A/ERC721A.sol\":4788:4798  _maxSupply */\n      sload(0x05)\n        /* \"minerpunk/ERC721A/ERC721A.sol\":4788:4813  _maxSupply - _burnCounter */\n      sub\n        /* \"minerpunk/ERC721A/ERC721A.sol\":4788:4831  _maxSupply - _burnCounter - _startTokenId() */\n      sub\n        /* \"minerpunk/ERC721A/ERC721A.sol\":4781:4831  return _maxSupply - _burnCounter - _startTokenId() */\n      swap1\n      pop\n        /* \"minerpunk/ERC721A/ERC721A.sol\":4686:4850  function maxSupply() public view  returns (uint256) {       ... */\n      swap1\n      jump\t// out\n        /* \"minerpunk/ERC721A/ERC721A.sol\":4531:4676  function totalPower() public view  returns (uint256) {       ... */\n    tag_93:\n        /* \"minerpunk/ERC721A/ERC721A.sol\":4575:4582  uint256 */\n      0x00\n        /* \"minerpunk/ERC721A/ERC721A.sol\":4646:4657  _totalPower */\n      sload(0x03)\n        /* \"minerpunk/ERC721A/ERC721A.sol\":4639:4657  return _totalPower */\n      swap1\n      pop\n        /* \"minerpunk/ERC721A/ERC721A.sol\":4531:4676  function totalPower() public view  returns (uint256) {       ... */\n      swap1\n      jump\t// out\n        /* \"minerpunk/ERC721A/ERC721A.sol\":3575:3867  function tokenIDPower (uint256 tokenId)public view override returns(uint256){        ... */\n    tag_97:\n        /* \"minerpunk/ERC721A/ERC721A.sol\":3643:3650  uint256 */\n      0x00\n        /* \"minerpunk/ERC721A/ERC721A.sol\":3672:3686  uint256 _power */\n      dup1\n        /* \"minerpunk/ERC721A/ERC721A.sol\":3689:3720  tokenId.mul(_salt).add(tokenId) */\n      tag_199\n        /* \"minerpunk/ERC721A/ERC721A.sol\":3712:3719  tokenId */\n      dup4\n        /* \"minerpunk/ERC721A/ERC721A.sol\":3689:3707  tokenId.mul(_salt) */\n      tag_200\n        /* \"minerpunk/ERC721A/ERC721A.sol\":3701:3706  _salt */\n      sload(0x00)\n        /* \"minerpunk/ERC721A/ERC721A.sol\":3689:3696  tokenId */\n      dup7\n        /* \"minerpunk/ERC721A/ERC721A.sol\":3689:3700  tokenId.mul */\n      tag_108\n      swap1\n        /* \"minerpunk/ERC721A/ERC721A.sol\":3689:3707  tokenId.mul(_salt) */\n      swap2\n      swap1\n      0xffffffff\n      and\n      jump\t// in\n    tag_200:\n        /* \"minerpunk/ERC721A/ERC721A.sol\":3689:3711  tokenId.mul(_salt).add */\n      tag_149\n      swap1\n        /* \"minerpunk/ERC721A/ERC721A.sol\":3689:3720  tokenId.mul(_salt).add(tokenId) */\n      swap2\n      swap1\n      0xffffffff\n      and\n      jump\t// in\n    tag_199:\n        /* \"minerpunk/ERC721A/ERC721A.sol\":3672:3720  uint256 _power = tokenId.mul(_salt).add(tokenId) */\n      swap1\n      pop\n        /* \"minerpunk/ERC721A/ERC721A.sol\":3748:3749  0 */\n      0x00\n        /* \"minerpunk/ERC721A/ERC721A.sol\":3742:3744  10 */\n      0x0a\n        /* \"minerpunk/ERC721A/ERC721A.sol\":3735:3741  _power */\n      dup3\n        /* \"minerpunk/ERC721A/ERC721A.sol\":3735:3744  _power%10 */\n      tag_201\n      swap2\n      swap1\n      tag_202\n      jump\t// in\n    tag_201:\n        /* \"minerpunk/ERC721A/ERC721A.sol\":3735:3749  _power%10 == 0 */\n      sub\n        /* \"minerpunk/ERC721A/ERC721A.sol\":3732:3836  if(_power%10 == 0){... */\n      tag_203\n      jumpi\n        /* \"minerpunk/ERC721A/ERC721A.sol\":3774:3775  1 */\n      0x01\n        /* \"minerpunk/ERC721A/ERC721A.sol\":3765:3775  _power = 1 */\n      swap1\n      pop\n        /* \"minerpunk/ERC721A/ERC721A.sol\":3732:3836  if(_power%10 == 0){... */\n      jump(tag_204)\n    tag_203:\n        /* \"minerpunk/ERC721A/ERC721A.sol\":3822:3824  10 */\n      0x0a\n        /* \"minerpunk/ERC721A/ERC721A.sol\":3815:3821  _power */\n      dup2\n        /* \"minerpunk/ERC721A/ERC721A.sol\":3815:3824  _power%10 */\n      tag_205\n      swap2\n      swap1\n      tag_202\n      jump\t// in\n    tag_205:\n        /* \"minerpunk/ERC721A/ERC721A.sol\":3806:3824  _power = _power%10 */\n      swap1\n      pop\n        /* \"minerpunk/ERC721A/ERC721A.sol\":3732:3836  if(_power%10 == 0){... */\n    tag_204:\n        /* \"minerpunk/ERC721A/ERC721A.sol\":3853:3859  _power */\n      dup1\n        /* \"minerpunk/ERC721A/ERC721A.sol\":3846:3859  return _power */\n      swap2\n      pop\n      pop\n        /* \"minerpunk/ERC721A/ERC721A.sol\":3575:3867  function tokenIDPower (uint256 tokenId)public view override returns(uint256){        ... */\n      swap2\n      swap1\n      pop\n      jump\t// out\n        /* \"minerpunk/ERC721A/ERC721A.sol\":10843:11007  function isApprovedForAll(address owner, address operator) public view virtual override returns (bool) {... */\n    tag_102:\n        /* \"minerpunk/ERC721A/ERC721A.sol\":10940:10944  bool */\n      0x00\n        /* \"minerpunk/ERC721A/ERC721A.sol\":10964:10982  _operatorApprovals */\n      0x0c\n        /* \"minerpunk/ERC721A/ERC721A.sol\":10964:10989  _operatorApprovals[owner] */\n      0x00\n        /* \"minerpunk/ERC721A/ERC721A.sol\":10983:10988  owner */\n      dup5\n        /* \"minerpunk/ERC721A/ERC721A.sol\":10964:10989  _operatorApprovals[owner] */\n      0xffffffffffffffffffffffffffffffffffffffff\n      and\n      0xffffffffffffffffffffffffffffffffffffffff\n      and\n      dup2\n      mstore\n      0x20\n      add\n      swap1\n      dup2\n      mstore\n      0x20\n      add\n      0x00\n      keccak256\n        /* \"minerpunk/ERC721A/ERC721A.sol\":10964:10999  _operatorApprovals[owner][operator] */\n      0x00\n        /* \"minerpunk/ERC721A/ERC721A.sol\":10990:10998  operator */\n      dup4\n        /* \"minerpunk/ERC721A/ERC721A.sol\":10964:10999  _operatorApprovals[owner][operator] */\n      0xffffffffffffffffffffffffffffffffffffffff\n      and\n      0xffffffffffffffffffffffffffffffffffffffff\n      and\n      dup2\n      mstore\n      0x20\n      add\n      swap1\n      dup2\n      mstore\n      0x20\n      add\n      0x00\n      keccak256\n      0x00\n      swap1\n      sload\n      swap1\n      0x0100\n      exp\n      swap1\n      div\n      0xff\n      and\n        /* \"minerpunk/ERC721A/ERC721A.sol\":10957:10999  return _operatorApprovals[owner][operator] */\n      swap1\n      pop\n        /* \"minerpunk/ERC721A/ERC721A.sol\":10843:11007  function isApprovedForAll(address owner, address operator) public view virtual override returns (bool) {... */\n      swap3\n      swap2\n      pop\n      pop\n      jump\t// out\n        /* \"minerpunk/ERC721A/ERC721A.sol\":4867:5038  function mineInfo(address user, uint256 number) public view  returns (uint256) {       ... */\n    tag_106:\n        /* \"minerpunk/ERC721A/ERC721A.sol\":4937:4944  uint256 */\n      0x00\n        /* \"minerpunk/ERC721A/ERC721A.sol\":4996:5005  _mineInfo */\n      0x0d\n        /* \"minerpunk/ERC721A/ERC721A.sol\":4996:5011  _mineInfo[user] */\n      0x00\n        /* \"minerpunk/ERC721A/ERC721A.sol\":5006:5010  user */\n      dup5\n        /* \"minerpunk/ERC721A/ERC721A.sol\":4996:5011  _mineInfo[user] */\n      0xffffffffffffffffffffffffffffffffffffffff\n      and\n      0xffffffffffffffffffffffffffffffffffffffff\n      and\n      dup2\n      mstore\n      0x20\n      add\n      swap1\n      dup2\n      mstore\n      0x20\n      add\n      0x00\n      keccak256\n        /* \"minerpunk/ERC721A/ERC721A.sol\":4996:5019  _mineInfo[user][number] */\n      0x00\n        /* \"minerpunk/ERC721A/ERC721A.sol\":5012:5018  number */\n      dup4\n        /* \"minerpunk/ERC721A/ERC721A.sol\":4996:5019  _mineInfo[user][number] */\n      dup2\n      mstore\n      0x20\n      add\n      swap1\n      dup2\n      mstore\n      0x20\n      add\n      0x00\n      keccak256\n      sload\n        /* \"minerpunk/ERC721A/ERC721A.sol\":4989:5019  return _mineInfo[user][number] */\n      swap1\n      pop\n        /* \"minerpunk/ERC721A/ERC721A.sol\":4867:5038  function mineInfo(address user, uint256 number) public view  returns (uint256) {       ... */\n      swap3\n      swap2\n      pop\n      pop\n      jump\t// out\n        /* \"@openzeppelin/contracts/utils/math/SafeMath.sol\":3465:3561  function mul(uint256 a, uint256 b) internal pure returns (uint256) {... */\n    tag_108:\n        /* \"@openzeppelin/contracts/utils/math/SafeMath.sol\":3523:3530  uint256 */\n      0x00\n        /* \"@openzeppelin/contracts/utils/math/SafeMath.sol\":3553:3554  b */\n      dup2\n        /* \"@openzeppelin/contracts/utils/math/SafeMath.sol\":3549:3550  a */\n      dup4\n        /* \"@openzeppelin/contracts/utils/math/SafeMath.sol\":3549:3554  a * b */\n      tag_209\n      swap2\n      swap1\n      tag_210\n      jump\t// in\n    tag_209:\n        /* \"@openzeppelin/contracts/utils/math/SafeMath.sol\":3542:3554  return a * b */\n      swap1\n      pop\n        /* \"@openzeppelin/contracts/utils/math/SafeMath.sol\":3465:3561  function mul(uint256 a, uint256 b) internal pure returns (uint256) {... */\n      swap3\n      swap2\n      pop\n      pop\n      jump\t// out\n        /* \"@openzeppelin/contracts/utils/introspection/ERC165.sol\":829:984  function supportsInterface(bytes4 interfaceId) public view virtual override returns (bool) {... */\n    tag_113:\n        /* \"@openzeppelin/contracts/utils/introspection/ERC165.sol\":914:918  bool */\n      0x00\n        /* \"@openzeppelin/contracts/utils/introspection/ERC165.sol\":952:977  type(IERC165).interfaceId */\n      0x01ffc9a700000000000000000000000000000000000000000000000000000000\n        /* \"@openzeppelin/contracts/utils/introspection/ERC165.sol\":937:977  interfaceId == type(IERC165).interfaceId */\n      not(0xffffffffffffffffffffffffffffffffffffffffffffffffffffffff)\n      and\n        /* \"@openzeppelin/contracts/utils/introspection/ERC165.sol\":937:948  interfaceId */\n      dup3\n        /* \"@openzeppelin/contracts/utils/introspection/ERC165.sol\":937:977  interfaceId == type(IERC165).interfaceId */\n      not(0xffffffffffffffffffffffffffffffffffffffffffffffffffffffff)\n      and\n      eq\n        /* \"@openzeppelin/contracts/utils/introspection/ERC165.sol\":930:977  return interfaceId == type(IERC165).interfaceId */\n      swap1\n      pop\n        /* \"@openzeppelin/contracts/utils/introspection/ERC165.sol\":829:984  function supportsInterface(bytes4 interfaceId) public view virtual override returns (bool) {... */\n      swap2\n      swap1\n      pop\n      jump\t// out\n        /* \"minerpunk/ERC721A/ERC721A.sol\":12155:12329  function _exists(uint256 tokenId) internal view returns (bool) {... */\n    tag_123:\n        /* \"minerpunk/ERC721A/ERC721A.sol\":12212:12216  bool */\n      0x00\n        /* \"minerpunk/ERC721A/ERC721A.sol\":12255:12262  tokenId */\n      dup2\n        /* \"minerpunk/ERC721A/ERC721A.sol\":12236:12251  _startTokenId() */\n      tag_213\n        /* \"minerpunk/ERC721A/ERC721A.sol\":12236:12249  _startTokenId */\n      tag_138\n        /* \"minerpunk/ERC721A/ERC721A.sol\":12236:12251  _startTokenId() */\n      jump\t// in\n    tag_213:\n        /* \"minerpunk/ERC721A/ERC721A.sol\":12236:12262  _startTokenId() <= tokenId */\n      gt\n      iszero\n        /* \"minerpunk/ERC721A/ERC721A.sol\":12236:12289  _startTokenId() <= tokenId && tokenId < _currentIndex */\n      dup1\n      iszero\n      tag_214\n      jumpi\n      pop\n        /* \"minerpunk/ERC721A/ERC721A.sol\":12276:12289  _currentIndex */\n      sload(0x04)\n        /* \"minerpunk/ERC721A/ERC721A.sol\":12266:12273  tokenId */\n      dup3\n        /* \"minerpunk/ERC721A/ERC721A.sol\":12266:12289  tokenId < _currentIndex */\n      lt\n        /* \"minerpunk/ERC721A/ERC721A.sol\":12236:12289  _startTokenId() <= tokenId && tokenId < _currentIndex */\n    tag_214:\n        /* \"minerpunk/ERC721A/ERC721A.sol\":12236:12321  _startTokenId() <= tokenId && tokenId < _currentIndex && !_ownerships[tokenId].burned */\n      dup1\n      iszero\n      tag_215\n      jumpi\n      pop\n        /* \"minerpunk/ERC721A/ERC721A.sol\":12294:12305  _ownerships */\n      0x09\n        /* \"minerpunk/ERC721A/ERC721A.sol\":12294:12314  _ownerships[tokenId] */\n      0x00\n        /* \"minerpunk/ERC721A/ERC721A.sol\":12306:12313  tokenId */\n      dup4\n        /* \"minerpunk/ERC721A/ERC721A.sol\":12294:12314  _ownerships[tokenId] */\n      dup2\n      mstore\n      0x20\n      add\n      swap1\n      dup2\n      mstore\n      0x20\n      add\n      0x00\n      keccak256\n        /* \"minerpunk/ERC721A/ERC721A.sol\":12294:12321  _ownerships[tokenId].burned */\n      0x00\n      add\n      0x1c\n      swap1\n      sload\n      swap1\n      0x0100\n      exp\n      swap1\n      div\n      0xff\n      and\n        /* \"minerpunk/ERC721A/ERC721A.sol\":12293:12321  !_ownerships[tokenId].burned */\n      iszero\n        /* \"minerpunk/ERC721A/ERC721A.sol\":12236:12321  _startTokenId() <= tokenId && tokenId < _currentIndex && !_ownerships[tokenId].burned */\n    tag_215:\n        /* \"minerpunk/ERC721A/ERC721A.sol\":12229:12321  return _startTokenId() <= tokenId && tokenId < _currentIndex && !_ownerships[tokenId].burned */\n      swap1\n      pop\n        /* \"minerpunk/ERC721A/ERC721A.sol\":12155:12329  function _exists(uint256 tokenId) internal view returns (bool) {... */\n      swap2\n      swap1\n      pop\n      jump\t// out\n        /* \"@openzeppelin/contracts/utils/Context.sol\":640:736  function _msgSender() internal view virtual returns (address) {... */\n    tag_129:\n        /* \"@openzeppelin/contracts/utils/Context.sol\":693:700  address */\n      0x00\n        /* \"@openzeppelin/contracts/utils/Context.sol\":719:729  msg.sender */\n      caller\n        /* \"@openzeppelin/contracts/utils/Context.sol\":712:729  return msg.sender */\n      swap1\n      pop\n        /* \"@openzeppelin/contracts/utils/Context.sol\":640:736  function _msgSender() internal view virtual returns (address) {... */\n      swap1\n      jump\t// out\n        /* \"minerpunk/ERC721A/ERC721A.sol\":21159:21355  function _approve(... */\n    tag_135:\n        /* \"minerpunk/ERC721A/ERC721A.sol\":21301:21303  to */\n      dup3\n        /* \"minerpunk/ERC721A/ERC721A.sol\":21274:21289  _tokenApprovals */\n      0x0b\n        /* \"minerpunk/ERC721A/ERC721A.sol\":21274:21298  _tokenApprovals[tokenId] */\n      0x00\n        /* \"minerpunk/ERC721A/ERC721A.sol\":21290:21297  tokenId */\n      dup5\n        /* \"minerpunk/ERC721A/ERC721A.sol\":21274:21298  _tokenApprovals[tokenId] */\n      dup2\n      mstore\n      0x20\n      add\n      swap1\n      dup2\n      mstore\n      0x20\n      add\n      0x00\n      keccak256\n      0x00\n        /* \"minerpunk/ERC721A/ERC721A.sol\":21274:21303  _tokenApprovals[tokenId] = to */\n      0x0100\n      exp\n      dup2\n      sload\n      dup2\n      0xffffffffffffffffffffffffffffffffffffffff\n      mul\n      not\n      and\n      swap1\n      dup4\n      0xffffffffffffffffffffffffffffffffffffffff\n      and\n      mul\n      or\n      swap1\n      sstore\n      pop\n        /* \"minerpunk/ERC721A/ERC721A.sol\":21339:21346  tokenId */\n      dup2\n        /* \"minerpunk/ERC721A/ERC721A.sol\":21335:21337  to */\n      dup4\n        /* \"minerpunk/ERC721A/ERC721A.sol\":21319:21347  Approval(owner, to, tokenId) */\n      0xffffffffffffffffffffffffffffffffffffffff\n      and\n        /* \"minerpunk/ERC721A/ERC721A.sol\":21328:21333  owner */\n      dup3\n        /* \"minerpunk/ERC721A/ERC721A.sol\":21319:21347  Approval(owner, to, tokenId) */\n      0xffffffffffffffffffffffffffffffffffffffff\n      and\n      0x8c5be1e5ebec7d5bd14f71427d1e84f3dd0314c0f7b2291e5b200ac8c7c3b925\n      mload(0x40)\n      mload(0x40)\n      dup1\n      swap2\n      sub\n      swap1\n      log4\n        /* \"minerpunk/ERC721A/ERC721A.sol\":21159:21355  function _approve(... */\n      pop\n      pop\n      pop\n      jump\t// out\n        /* \"minerpunk/ERC721A/ERC721A.sol\":3983:4075  function _startTokenId() internal view virtual returns (uint256) {... */\n    tag_138:\n        /* \"minerpunk/ERC721A/ERC721A.sol\":4039:4046  uint256 */\n      0x00\n        /* \"minerpunk/ERC721A/ERC721A.sol\":3983:4075  function _startTokenId() internal view virtual returns (uint256) {... */\n      swap1\n      jump\t// out\n        /* \"minerpunk/ERC721A/ERC721A.sol\":15387:17915  function _transfer(... */\n    tag_141:\n        /* \"minerpunk/ERC721A/ERC721A.sol\":15506:15525  uint256 powerNumber */\n      0x00\n        /* \"minerpunk/ERC721A/ERC721A.sol\":15528:15549  tokenIDPower(tokenId) */\n      tag_220\n        /* \"minerpunk/ERC721A/ERC721A.sol\":15541:15548  tokenId */\n      dup3\n        /* \"minerpunk/ERC721A/ERC721A.sol\":15528:15540  tokenIDPower */\n      tag_97\n        /* \"minerpunk/ERC721A/ERC721A.sol\":15528:15549  tokenIDPower(tokenId) */\n      jump\t// in\n    tag_220:\n        /* \"minerpunk/ERC721A/ERC721A.sol\":15506:15549  uint256 powerNumber = tokenIDPower(tokenId) */\n      swap1\n      pop\n        /* \"minerpunk/ERC721A/ERC721A.sol\":15589:15605  MineStatus(from) */\n      tag_221\n        /* \"minerpunk/ERC721A/ERC721A.sol\":15600:15604  from */\n      dup5\n        /* \"minerpunk/ERC721A/ERC721A.sol\":15589:15599  MineStatus */\n      tag_83\n        /* \"minerpunk/ERC721A/ERC721A.sol\":15589:15605  MineStatus(from) */\n      jump\t// in\n    tag_221:\n        /* \"minerpunk/ERC721A/ERC721A.sol\":15568:15577  _mineInfo */\n      0x0d\n        /* \"minerpunk/ERC721A/ERC721A.sol\":15568:15583  _mineInfo[from] */\n      0x00\n        /* \"minerpunk/ERC721A/ERC721A.sol\":15578:15582  from */\n      dup7\n        /* \"minerpunk/ERC721A/ERC721A.sol\":15568:15583  _mineInfo[from] */\n      0xffffffffffffffffffffffffffffffffffffffff\n      and\n      0xffffffffffffffffffffffffffffffffffffffff\n      and\n      dup2\n      mstore\n      0x20\n      add\n      swap1\n      dup2\n      mstore\n      0x20\n      add\n      0x00\n      keccak256\n        /* \"minerpunk/ERC721A/ERC721A.sol\":15568:15586  _mineInfo[from][3] */\n      0x00\n        /* \"minerpunk/ERC721A/ERC721A.sol\":15584:15585  3 */\n      0x03\n        /* \"minerpunk/ERC721A/ERC721A.sol\":15568:15586  _mineInfo[from][3] */\n      dup2\n      mstore\n      0x20\n      add\n      swap1\n      dup2\n      mstore\n      0x20\n      add\n      0x00\n      keccak256\n        /* \"minerpunk/ERC721A/ERC721A.sol\":15568:15605  _mineInfo[from][3] = MineStatus(from) */\n      dup2\n      swap1\n      sstore\n      pop\n        /* \"minerpunk/ERC721A/ERC721A.sol\":15637:15672  _mineInfo[from][2].sub(powerNumber) */\n      tag_222\n        /* \"minerpunk/ERC721A/ERC721A.sol\":15660:15671  powerNumber */\n      dup2\n        /* \"minerpunk/ERC721A/ERC721A.sol\":15637:15646  _mineInfo */\n      0x0d\n        /* \"minerpunk/ERC721A/ERC721A.sol\":15637:15652  _mineInfo[from] */\n      0x00\n        /* \"minerpunk/ERC721A/ERC721A.sol\":15647:15651  from */\n      dup8\n        /* \"minerpunk/ERC721A/ERC721A.sol\":15637:15652  _mineInfo[from] */\n      0xffffffffffffffffffffffffffffffffffffffff\n      and\n      0xffffffffffffffffffffffffffffffffffffffff\n      and\n      dup2\n      mstore\n      0x20\n      add\n      swap1\n      dup2\n      mstore\n      0x20\n      add\n      0x00\n      keccak256\n        /* \"minerpunk/ERC721A/ERC721A.sol\":15637:15655  _mineInfo[from][2] */\n      0x00\n        /* \"minerpunk/ERC721A/ERC721A.sol\":15653:15654  2 */\n      0x02\n        /* \"minerpunk/ERC721A/ERC721A.sol\":15637:15655  _mineInfo[from][2] */\n      dup2\n      mstore\n      0x20\n      add\n      swap1\n      dup2\n      mstore\n      0x20\n      add\n      0x00\n      keccak256\n      sload\n        /* \"minerpunk/ERC721A/ERC721A.sol\":15637:15659  _mineInfo[from][2].sub */\n      tag_148\n      swap1\n        /* \"minerpunk/ERC721A/ERC721A.sol\":15637:15672  _mineInfo[from][2].sub(powerNumber) */\n      swap2\n      swap1\n      0xffffffff\n      and\n      jump\t// in\n    tag_222:\n        /* \"minerpunk/ERC721A/ERC721A.sol\":15616:15625  _mineInfo */\n      0x0d\n        /* \"minerpunk/ERC721A/ERC721A.sol\":15616:15631  _mineInfo[from] */\n      0x00\n        /* \"minerpunk/ERC721A/ERC721A.sol\":15626:15630  from */\n      dup7\n        /* \"minerpunk/ERC721A/ERC721A.sol\":15616:15631  _mineInfo[from] */\n      0xffffffffffffffffffffffffffffffffffffffff\n      and\n      0xffffffffffffffffffffffffffffffffffffffff\n      and\n      dup2\n      mstore\n      0x20\n      add\n      swap1\n      dup2\n      mstore\n      0x20\n      add\n      0x00\n      keccak256\n        /* \"minerpunk/ERC721A/ERC721A.sol\":15616:15634  _mineInfo[from][2] */\n      0x00\n        /* \"minerpunk/ERC721A/ERC721A.sol\":15632:15633  2 */\n      0x02\n        /* \"minerpunk/ERC721A/ERC721A.sol\":15616:15634  _mineInfo[from][2] */\n      dup2\n      mstore\n      0x20\n      add\n      swap1\n      dup2\n      mstore\n      0x20\n      add\n      0x00\n      keccak256\n        /* \"minerpunk/ERC721A/ERC721A.sol\":15616:15672  _mineInfo[from][2] = _mineInfo[from][2].sub(powerNumber) */\n      dup2\n      swap1\n      sstore\n      pop\n        /* \"minerpunk/ERC721A/ERC721A.sol\":15704:15716  block.number */\n      number\n        /* \"minerpunk/ERC721A/ERC721A.sol\":15683:15692  _mineInfo */\n      0x0d\n        /* \"minerpunk/ERC721A/ERC721A.sol\":15683:15698  _mineInfo[from] */\n      0x00\n        /* \"minerpunk/ERC721A/ERC721A.sol\":15693:15697  from */\n      dup7\n        /* \"minerpunk/ERC721A/ERC721A.sol\":15683:15698  _mineInfo[from] */\n      0xffffffffffffffffffffffffffffffffffffffff\n      and\n      0xffffffffffffffffffffffffffffffffffffffff\n      and\n      dup2\n      mstore\n      0x20\n      add\n      swap1\n      dup2\n      mstore\n      0x20\n      add\n      0x00\n      keccak256\n        /* \"minerpunk/ERC721A/ERC721A.sol\":15683:15701  _mineInfo[from][1] */\n      0x00\n        /* \"minerpunk/ERC721A/ERC721A.sol\":15699:15700  1 */\n      0x01\n        /* \"minerpunk/ERC721A/ERC721A.sol\":15683:15701  _mineInfo[from][1] */\n      dup2\n      mstore\n      0x20\n      add\n      swap1\n      dup2\n      mstore\n      0x20\n      add\n      0x00\n      keccak256\n        /* \"minerpunk/ERC721A/ERC721A.sol\":15683:15716  _mineInfo[from][1] = block.number */\n      dup2\n      swap1\n      sstore\n      pop\n        /* \"minerpunk/ERC721A/ERC721A.sol\":15746:15760  MineStatus(to) */\n      tag_223\n        /* \"minerpunk/ERC721A/ERC721A.sol\":15757:15759  to */\n      dup4\n        /* \"minerpunk/ERC721A/ERC721A.sol\":15746:15756  MineStatus */\n      tag_83\n        /* \"minerpunk/ERC721A/ERC721A.sol\":15746:15760  MineStatus(to) */\n      jump\t// in\n    tag_223:\n        /* \"minerpunk/ERC721A/ERC721A.sol\":15727:15736  _mineInfo */\n      0x0d\n        /* \"minerpunk/ERC721A/ERC721A.sol\":15727:15740  _mineInfo[to] */\n      0x00\n        /* \"minerpunk/ERC721A/ERC721A.sol\":15737:15739  to */\n      dup6\n        /* \"minerpunk/ERC721A/ERC721A.sol\":15727:15740  _mineInfo[to] */\n      0xffffffffffffffffffffffffffffffffffffffff\n      and\n      0xffffffffffffffffffffffffffffffffffffffff\n      and\n      dup2\n      mstore\n      0x20\n      add\n      swap1\n      dup2\n      mstore\n      0x20\n      add\n      0x00\n      keccak256\n        /* \"minerpunk/ERC721A/ERC721A.sol\":15727:15743  _mineInfo[to][3] */\n      0x00\n        /* \"minerpunk/ERC721A/ERC721A.sol\":15741:15742  3 */\n      0x03\n        /* \"minerpunk/ERC721A/ERC721A.sol\":15727:15743  _mineInfo[to][3] */\n      dup2\n      mstore\n      0x20\n      add\n      swap1\n      dup2\n      mstore\n      0x20\n      add\n      0x00\n      keccak256\n        /* \"minerpunk/ERC721A/ERC721A.sol\":15727:15760  _mineInfo[to][3] = MineStatus(to) */\n      dup2\n      swap1\n      sstore\n      pop\n        /* \"minerpunk/ERC721A/ERC721A.sol\":15790:15823  _mineInfo[to][2].add(powerNumber) */\n      tag_224\n        /* \"minerpunk/ERC721A/ERC721A.sol\":15811:15822  powerNumber */\n      dup2\n        /* \"minerpunk/ERC721A/ERC721A.sol\":15790:15799  _mineInfo */\n      0x0d\n        /* \"minerpunk/ERC721A/ERC721A.sol\":15790:15803  _mineInfo[to] */\n      0x00\n        /* \"minerpunk/ERC721A/ERC721A.sol\":15800:15802  to */\n      dup7\n        /* \"minerpunk/ERC721A/ERC721A.sol\":15790:15803  _mineInfo[to] */\n      0xffffffffffffffffffffffffffffffffffffffff\n      and\n      0xffffffffffffffffffffffffffffffffffffffff\n      and\n      dup2\n      mstore\n      0x20\n      add\n      swap1\n      dup2\n      mstore\n      0x20\n      add\n      0x00\n      keccak256\n        /* \"minerpunk/ERC721A/ERC721A.sol\":15790:15806  _mineInfo[to][2] */\n      0x00\n        /* \"minerpunk/ERC721A/ERC721A.sol\":15804:15805  2 */\n      0x02\n        /* \"minerpunk/ERC721A/ERC721A.sol\":15790:15806  _mineInfo[to][2] */\n      dup2\n      mstore\n      0x20\n      add\n      swap1\n      dup2\n      mstore\n      0x20\n      add\n      0x00\n      keccak256\n      sload\n        /* \"minerpunk/ERC721A/ERC721A.sol\":15790:15810  _mineInfo[to][2].add */\n      tag_149\n      swap1\n        /* \"minerpunk/ERC721A/ERC721A.sol\":15790:15823  _mineInfo[to][2].add(powerNumber) */\n      swap2\n      swap1\n      0xffffffff\n      and\n      jump\t// in\n    tag_224:\n        /* \"minerpunk/ERC721A/ERC721A.sol\":15771:15780  _mineInfo */\n      0x0d\n        /* \"minerpunk/ERC721A/ERC721A.sol\":15771:15784  _mineInfo[to] */\n      0x00\n        /* \"minerpunk/ERC721A/ERC721A.sol\":15781:15783  to */\n      dup6\n        /* \"minerpunk/ERC721A/ERC721A.sol\":15771:15784  _mineInfo[to] */\n      0xffffffffffffffffffffffffffffffffffffffff\n      and\n      0xffffffffffffffffffffffffffffffffffffffff\n      and\n      dup2\n      mstore\n      0x20\n      add\n      swap1\n      dup2\n      mstore\n      0x20\n      add\n      0x00\n      keccak256\n        /* \"minerpunk/ERC721A/ERC721A.sol\":15771:15787  _mineInfo[to][2] */\n      0x00\n        /* \"minerpunk/ERC721A/ERC721A.sol\":15785:15786  2 */\n      0x02\n        /* \"minerpunk/ERC721A/ERC721A.sol\":15771:15787  _mineInfo[to][2] */\n      dup2\n      mstore\n      0x20\n      add\n      swap1\n      dup2\n      mstore\n      0x20\n      add\n      0x00\n      keccak256\n        /* \"minerpunk/ERC721A/ERC721A.sol\":15771:15823  _mineInfo[to][2] = _mineInfo[to][2].add(powerNumber) */\n      dup2\n      swap1\n      sstore\n      pop\n        /* \"minerpunk/ERC721A/ERC721A.sol\":15853:15865  block.number */\n      number\n        /* \"minerpunk/ERC721A/ERC721A.sol\":15834:15843  _mineInfo */\n      0x0d\n        /* \"minerpunk/ERC721A/ERC721A.sol\":15834:15847  _mineInfo[to] */\n      0x00\n        /* \"minerpunk/ERC721A/ERC721A.sol\":15844:15846  to */\n      dup6\n        /* \"minerpunk/ERC721A/ERC721A.sol\":15834:15847  _mineInfo[to] */\n      0xffffffffffffffffffffffffffffffffffffffff\n      and\n      0xffffffffffffffffffffffffffffffffffffffff\n      and\n      dup2\n      mstore\n      0x20\n      add\n      swap1\n      dup2\n      mstore\n      0x20\n      add\n      0x00\n      keccak256\n        /* \"minerpunk/ERC721A/ERC721A.sol\":15834:15850  _mineInfo[to][1] */\n      0x00\n        /* \"minerpunk/ERC721A/ERC721A.sol\":15848:15849  1 */\n      0x01\n        /* \"minerpunk/ERC721A/ERC721A.sol\":15834:15850  _mineInfo[to][1] */\n      dup2\n      mstore\n      0x20\n      add\n      swap1\n      dup2\n      mstore\n      0x20\n      add\n      0x00\n      keccak256\n        /* \"minerpunk/ERC721A/ERC721A.sol\":15834:15865  _mineInfo[to][1] = block.number */\n      dup2\n      swap1\n      sstore\n      pop\n        /* \"minerpunk/ERC721A/ERC721A.sol\":15900:15935  TokenOwnership memory prevOwnership */\n      0x00\n        /* \"minerpunk/ERC721A/ERC721A.sol\":15938:15959  _ownershipOf(tokenId) */\n      tag_225\n        /* \"minerpunk/ERC721A/ERC721A.sol\":15951:15958  tokenId */\n      dup4\n        /* \"minerpunk/ERC721A/ERC721A.sol\":15938:15950  _ownershipOf */\n      tag_154\n        /* \"minerpunk/ERC721A/ERC721A.sol\":15938:15959  _ownershipOf(tokenId) */\n      jump\t// in\n    tag_225:\n        /* \"minerpunk/ERC721A/ERC721A.sol\":15900:15959  TokenOwnership memory prevOwnership = _ownershipOf(tokenId) */\n      swap1\n      pop\n        /* \"minerpunk/ERC721A/ERC721A.sol\":15998:16002  from */\n      dup5\n        /* \"minerpunk/ERC721A/ERC721A.sol\":15976:16002  prevOwnership.addr != from */\n      0xffffffffffffffffffffffffffffffffffffffff\n      and\n        /* \"minerpunk/ERC721A/ERC721A.sol\":15976:15989  prevOwnership */\n      dup2\n        /* \"minerpunk/ERC721A/ERC721A.sol\":15976:15994  prevOwnership.addr */\n      0x00\n      add\n      mload\n        /* \"minerpunk/ERC721A/ERC721A.sol\":15976:16002  prevOwnership.addr != from */\n      0xffffffffffffffffffffffffffffffffffffffff\n      and\n      eq\n        /* \"minerpunk/ERC721A/ERC721A.sol\":15972:16039  if (prevOwnership.addr != from) revert TransferFromIncorrectOwner() */\n      tag_226\n      jumpi\n        /* \"minerpunk/ERC721A/ERC721A.sol\":16011:16039  TransferFromIncorrectOwner() */\n      mload(0x40)\n      0xa114810000000000000000000000000000000000000000000000000000000000\n      dup2\n      mstore\n      0x04\n      add\n      mload(0x40)\n      dup1\n      swap2\n      sub\n      swap1\n      revert\n        /* \"minerpunk/ERC721A/ERC721A.sol\":15972:16039  if (prevOwnership.addr != from) revert TransferFromIncorrectOwner() */\n    tag_226:\n        /* \"minerpunk/ERC721A/ERC721A.sol\":16052:16074  bool isApprovedOrOwner */\n      0x00\n        /* \"minerpunk/ERC721A/ERC721A.sol\":16094:16098  from */\n      dup6\n        /* \"minerpunk/ERC721A/ERC721A.sol\":16078:16098  _msgSender() == from */\n      0xffffffffffffffffffffffffffffffffffffffff\n      and\n        /* \"minerpunk/ERC721A/ERC721A.sol\":16078:16090  _msgSender() */\n      tag_227\n        /* \"minerpunk/ERC721A/ERC721A.sol\":16078:16088  _msgSender */\n      tag_129\n        /* \"minerpunk/ERC721A/ERC721A.sol\":16078:16090  _msgSender() */\n      jump\t// in\n    tag_227:\n        /* \"minerpunk/ERC721A/ERC721A.sol\":16078:16098  _msgSender() == from */\n      0xffffffffffffffffffffffffffffffffffffffff\n      and\n      eq\n        /* \"minerpunk/ERC721A/ERC721A.sol\":16078:16151  _msgSender() == from ||... */\n      dup1\n      tag_228\n      jumpi\n      pop\n        /* \"minerpunk/ERC721A/ERC721A.sol\":16115:16151  isApprovedForAll(from, _msgSender()) */\n      tag_229\n        /* \"minerpunk/ERC721A/ERC721A.sol\":16132:16136  from */\n      dup7\n        /* \"minerpunk/ERC721A/ERC721A.sol\":16138:16150  _msgSender() */\n      tag_230\n        /* \"minerpunk/ERC721A/ERC721A.sol\":16138:16148  _msgSender */\n      tag_129\n        /* \"minerpunk/ERC721A/ERC721A.sol\":16138:16150  _msgSender() */\n      jump\t// in\n    tag_230:\n        /* \"minerpunk/ERC721A/ERC721A.sol\":16115:16131  isApprovedForAll */\n      tag_102\n        /* \"minerpunk/ERC721A/ERC721A.sol\":16115:16151  isApprovedForAll(from, _msgSender()) */\n      jump\t// in\n    tag_229:\n        /* \"minerpunk/ERC721A/ERC721A.sol\":16078:16151  _msgSender() == from ||... */\n    tag_228:\n        /* \"minerpunk/ERC721A/ERC721A.sol\":16078:16204  _msgSender() == from ||... */\n      dup1\n      tag_231\n      jumpi\n      pop\n        /* \"minerpunk/ERC721A/ERC721A.sol\":16192:16204  _msgSender() */\n      tag_232\n        /* \"minerpunk/ERC721A/ERC721A.sol\":16192:16202  _msgSender */\n      tag_129\n        /* \"minerpunk/ERC721A/ERC721A.sol\":16192:16204  _msgSender() */\n      jump\t// in\n    tag_232:\n        /* \"minerpunk/ERC721A/ERC721A.sol\":16168:16204  getApproved(tokenId) == _msgSender() */\n      0xffffffffffffffffffffffffffffffffffffffff\n      and\n        /* \"minerpunk/ERC721A/ERC721A.sol\":16168:16188  getApproved(tokenId) */\n      tag_233\n        /* \"minerpunk/ERC721A/ERC721A.sol\":16180:16187  tokenId */\n      dup6\n        /* \"minerpunk/ERC721A/ERC721A.sol\":16168:16179  getApproved */\n      tag_39\n        /* \"minerpunk/ERC721A/ERC721A.sol\":16168:16188  getApproved(tokenId) */\n      jump\t// in\n    tag_233:\n        /* \"minerpunk/ERC721A/ERC721A.sol\":16168:16204  getApproved(tokenId) == _msgSender() */\n      0xffffffffffffffffffffffffffffffffffffffff\n      and\n      eq\n        /* \"minerpunk/ERC721A/ERC721A.sol\":16078:16204  _msgSender() == from ||... */\n    tag_231:\n        /* \"minerpunk/ERC721A/ERC721A.sol\":16052:16205  bool isApprovedOrOwner = (_msgSender() == from ||... */\n      swap1\n      pop\n        /* \"minerpunk/ERC721A/ERC721A.sol\":16223:16240  isApprovedOrOwner */\n      dup1\n        /* \"minerpunk/ERC721A/ERC721A.sol\":16218:16284  if (!isApprovedOrOwner) revert TransferCallerNotOwnerNorApproved() */\n      tag_234\n      jumpi\n        /* \"minerpunk/ERC721A/ERC721A.sol\":16249:16284  TransferCallerNotOwnerNorApproved() */\n      mload(0x40)\n      0x59c896be00000000000000000000000000000000000000000000000000000000\n      dup2\n      mstore\n      0x04\n      add\n      mload(0x40)\n      dup1\n      swap2\n      sub\n      swap1\n      revert\n        /* \"minerpunk/ERC721A/ERC721A.sol\":16218:16284  if (!isApprovedOrOwner) revert TransferCallerNotOwnerNorApproved() */\n    tag_234:\n        /* \"minerpunk/ERC721A/ERC721A.sol\":16313:16314  0 */\n      0x00\n        /* \"minerpunk/ERC721A/ERC721A.sol\":16299:16315  to == address(0) */\n      0xffffffffffffffffffffffffffffffffffffffff\n      and\n        /* \"minerpunk/ERC721A/ERC721A.sol\":16299:16301  to */\n      dup6\n        /* \"minerpunk/ERC721A/ERC721A.sol\":16299:16315  to == address(0) */\n      0xffffffffffffffffffffffffffffffffffffffff\n      and\n      sub\n        /* \"minerpunk/ERC721A/ERC721A.sol\":16295:16347  if (to == address(0)) revert TransferToZeroAddress() */\n      tag_235\n      jumpi\n        /* \"minerpunk/ERC721A/ERC721A.sol\":16324:16347  TransferToZeroAddress() */\n      mload(0x40)\n      0xea553b3400000000000000000000000000000000000000000000000000000000\n      dup2\n      mstore\n      0x04\n      add\n      mload(0x40)\n      dup1\n      swap2\n      sub\n      swap1\n      revert\n        /* \"minerpunk/ERC721A/ERC721A.sol\":16295:16347  if (to == address(0)) revert TransferToZeroAddress() */\n    tag_235:\n        /* \"minerpunk/ERC721A/ERC721A.sol\":16360:16403  _beforeTokenTransfers(from, to, tokenId, 1) */\n      tag_236\n        /* \"minerpunk/ERC721A/ERC721A.sol\":16382:16386  from */\n      dup7\n        /* \"minerpunk/ERC721A/ERC721A.sol\":16388:16390  to */\n      dup7\n        /* \"minerpunk/ERC721A/ERC721A.sol\":16392:16399  tokenId */\n      dup7\n        /* \"minerpunk/ERC721A/ERC721A.sol\":16401:16402  1 */\n      0x01\n        /* \"minerpunk/ERC721A/ERC721A.sol\":16360:16381  _beforeTokenTransfers */\n      tag_237\n        /* \"minerpunk/ERC721A/ERC721A.sol\":16360:16403  _beforeTokenTransfers(from, to, tokenId, 1) */\n      jump\t// in\n    tag_236:\n        /* \"minerpunk/ERC721A/ERC721A.sol\":16468:16503  _approve(address(0), tokenId, from) */\n      tag_238\n        /* \"minerpunk/ERC721A/ERC721A.sol\":16485:16486  0 */\n      0x00\n        /* \"minerpunk/ERC721A/ERC721A.sol\":16489:16496  tokenId */\n      dup6\n        /* \"minerpunk/ERC721A/ERC721A.sol\":16498:16502  from */\n      dup9\n        /* \"minerpunk/ERC721A/ERC721A.sol\":16468:16476  _approve */\n      tag_135\n        /* \"minerpunk/ERC721A/ERC721A.sol\":16468:16503  _approve(address(0), tokenId, from) */\n      jump\t// in\n    tag_238:\n        /* \"minerpunk/ERC721A/ERC721A.sol\":16829:16830  1 */\n      0x01\n        /* \"minerpunk/ERC721A/ERC721A.sol\":16799:16811  _addressData */\n      0x0a\n        /* \"minerpunk/ERC721A/ERC721A.sol\":16799:16817  _addressData[from] */\n      0x00\n        /* \"minerpunk/ERC721A/ERC721A.sol\":16812:16816  from */\n      dup9\n        /* \"minerpunk/ERC721A/ERC721A.sol\":16799:16817  _addressData[from] */\n      0xffffffffffffffffffffffffffffffffffffffff\n      and\n      0xffffffffffffffffffffffffffffffffffffffff\n      and\n      dup2\n      mstore\n      0x20\n      add\n      swap1\n      dup2\n      mstore\n      0x20\n      add\n      0x00\n      keccak256\n        /* \"minerpunk/ERC721A/ERC721A.sol\":16799:16825  _addressData[from].balance */\n      0x00\n      add\n      0x00\n        /* \"minerpunk/ERC721A/ERC721A.sol\":16799:16830  _addressData[from].balance -= 1 */\n      dup3\n      dup3\n      dup3\n      swap1\n      sload\n      swap1\n      0x0100\n      exp\n      swap1\n      div\n      0xffffffffffffffff\n      and\n      sub\n      swap3\n      pop\n      0x0100\n      exp\n      dup2\n      sload\n      dup2\n      0xffffffffffffffff\n      mul\n      not\n      and\n      swap1\n      dup4\n      0xffffffffffffffff\n      and\n      mul\n      or\n      swap1\n      sstore\n      pop\n        /* \"minerpunk/ERC721A/ERC721A.sol\":16873:16874  1 */\n      0x01\n        /* \"minerpunk/ERC721A/ERC721A.sol\":16845:16857  _addressData */\n      0x0a\n        /* \"minerpunk/ERC721A/ERC721A.sol\":16845:16861  _addressData[to] */\n      0x00\n        /* \"minerpunk/ERC721A/ERC721A.sol\":16858:16860  to */\n      dup8\n        /* \"minerpunk/ERC721A/ERC721A.sol\":16845:16861  _addressData[to] */\n      0xffffffffffffffffffffffffffffffffffffffff\n      and\n      0xffffffffffffffffffffffffffffffffffffffff\n      and\n      dup2\n      mstore\n      0x20\n      add\n      swap1\n      dup2\n      mstore\n      0x20\n      add\n      0x00\n      keccak256\n        /* \"minerpunk/ERC721A/ERC721A.sol\":16845:16869  _addressData[to].balance */\n      0x00\n      add\n      0x00\n        /* \"minerpunk/ERC721A/ERC721A.sol\":16845:16874  _addressData[to].balance += 1 */\n      dup3\n      dup3\n      dup3\n      swap1\n      sload\n      swap1\n      0x0100\n      exp\n      swap1\n      div\n      0xffffffffffffffff\n      and\n      add\n      swap3\n      pop\n      0x0100\n      exp\n      dup2\n      sload\n      dup2\n      0xffffffffffffffff\n      mul\n      not\n      and\n      swap1\n      dup4\n      0xffffffffffffffff\n      and\n      mul\n      or\n      swap1\n      sstore\n      pop\n        /* \"minerpunk/ERC721A/ERC721A.sol\":16891:16922  TokenOwnership storage currSlot */\n      0x00\n        /* \"minerpunk/ERC721A/ERC721A.sol\":16925:16936  _ownerships */\n      0x09\n        /* \"minerpunk/ERC721A/ERC721A.sol\":16925:16945  _ownerships[tokenId] */\n      0x00\n        /* \"minerpunk/ERC721A/ERC721A.sol\":16937:16944  tokenId */\n      dup7\n        /* \"minerpunk/ERC721A/ERC721A.sol\":16925:16945  _ownerships[tokenId] */\n      dup2\n      mstore\n      0x20\n      add\n      swap1\n      dup2\n      mstore\n      0x20\n      add\n      0x00\n      keccak256\n        /* \"minerpunk/ERC721A/ERC721A.sol\":16891:16945  TokenOwnership storage currSlot = _ownerships[tokenId] */\n      swap1\n      pop\n        /* \"minerpunk/ERC721A/ERC721A.sol\":16976:16978  to */\n      dup6\n        /* \"minerpunk/ERC721A/ERC721A.sol\":16960:16968  currSlot */\n      dup2\n        /* \"minerpunk/ERC721A/ERC721A.sol\":16960:16973  currSlot.addr */\n      0x00\n      add\n      0x00\n        /* \"minerpunk/ERC721A/ERC721A.sol\":16960:16978  currSlot.addr = to */\n      0x0100\n      exp\n      dup2\n      sload\n      dup2\n      0xffffffffffffffffffffffffffffffffffffffff\n      mul\n      not\n      and\n      swap1\n      dup4\n      0xffffffffffffffffffffffffffffffffffffffff\n      and\n      mul\n      or\n      swap1\n      sstore\n      pop\n        /* \"minerpunk/ERC721A/ERC721A.sol\":17026:17041  block.timestamp */\n      timestamp\n        /* \"minerpunk/ERC721A/ERC721A.sol\":16993:17001  currSlot */\n      dup2\n        /* \"minerpunk/ERC721A/ERC721A.sol\":16993:17016  currSlot.startTimestamp */\n      0x00\n      add\n      0x14\n        /* \"minerpunk/ERC721A/ERC721A.sol\":16993:17042  currSlot.startTimestamp = uint64(block.timestamp) */\n      0x0100\n      exp\n      dup2\n      sload\n      dup2\n      0xffffffffffffffff\n      mul\n      not\n      and\n      swap1\n      dup4\n      0xffffffffffffffff\n      and\n      mul\n      or\n      swap1\n      sstore\n      pop\n        /* \"minerpunk/ERC721A/ERC721A.sol\":17294:17313  uint256 nextTokenId */\n      0x00\n        /* \"minerpunk/ERC721A/ERC721A.sol\":17326:17327  1 */\n      0x01\n        /* \"minerpunk/ERC721A/ERC721A.sol\":17316:17323  tokenId */\n      dup7\n        /* \"minerpunk/ERC721A/ERC721A.sol\":17316:17327  tokenId + 1 */\n      add\n        /* \"minerpunk/ERC721A/ERC721A.sol\":17294:17327  uint256 nextTokenId = tokenId + 1 */\n      swap1\n      pop\n        /* \"minerpunk/ERC721A/ERC721A.sol\":17342:17373  TokenOwnership storage nextSlot */\n      0x00\n        /* \"minerpunk/ERC721A/ERC721A.sol\":17376:17387  _ownerships */\n      0x09\n        /* \"minerpunk/ERC721A/ERC721A.sol\":17376:17400  _ownerships[nextTokenId] */\n      0x00\n        /* \"minerpunk/ERC721A/ERC721A.sol\":17388:17399  nextTokenId */\n      dup4\n        /* \"minerpunk/ERC721A/ERC721A.sol\":17376:17400  _ownerships[nextTokenId] */\n      dup2\n      mstore\n      0x20\n      add\n      swap1\n      dup2\n      mstore\n      0x20\n      add\n      0x00\n      keccak256\n        /* \"minerpunk/ERC721A/ERC721A.sol\":17342:17400  TokenOwnership storage nextSlot = _ownerships[nextTokenId] */\n      swap1\n      pop\n        /* \"minerpunk/ERC721A/ERC721A.sol\":17444:17445  0 */\n      0x00\n        /* \"minerpunk/ERC721A/ERC721A.sol\":17419:17446  nextSlot.addr == address(0) */\n      0xffffffffffffffffffffffffffffffffffffffff\n      and\n        /* \"minerpunk/ERC721A/ERC721A.sol\":17419:17427  nextSlot */\n      dup2\n        /* \"minerpunk/ERC721A/ERC721A.sol\":17419:17432  nextSlot.addr */\n      0x00\n      add\n      0x00\n      swap1\n      sload\n      swap1\n      0x0100\n      exp\n      swap1\n      div\n      0xffffffffffffffffffffffffffffffffffffffff\n      and\n        /* \"minerpunk/ERC721A/ERC721A.sol\":17419:17446  nextSlot.addr == address(0) */\n      0xffffffffffffffffffffffffffffffffffffffff\n      and\n      sub\n        /* \"minerpunk/ERC721A/ERC721A.sol\":17415:17799  if (nextSlot.addr == address(0)) {... */\n      tag_239\n      jumpi\n        /* \"minerpunk/ERC721A/ERC721A.sol\":17629:17642  _currentIndex */\n      sload(0x04)\n        /* \"minerpunk/ERC721A/ERC721A.sol\":17614:17625  nextTokenId */\n      dup3\n        /* \"minerpunk/ERC721A/ERC721A.sol\":17614:17642  nextTokenId != _currentIndex */\n      eq\n        /* \"minerpunk/ERC721A/ERC721A.sol\":17610:17784  if (nextTokenId != _currentIndex) {... */\n      tag_240\n      jumpi\n        /* \"minerpunk/ERC721A/ERC721A.sol\":17683:17687  from */\n      dup9\n        /* \"minerpunk/ERC721A/ERC721A.sol\":17667:17675  nextSlot */\n      dup2\n        /* \"minerpunk/ERC721A/ERC721A.sol\":17667:17680  nextSlot.addr */\n      0x00\n      add\n      0x00\n        /* \"minerpunk/ERC721A/ERC721A.sol\":17667:17687  nextSlot.addr = from */\n      0x0100\n      exp\n      dup2\n      sload\n      dup2\n      0xffffffffffffffffffffffffffffffffffffffff\n      mul\n      not\n      and\n      swap1\n      dup4\n      0xffffffffffffffffffffffffffffffffffffffff\n      and\n      mul\n      or\n      swap1\n      sstore\n      pop\n        /* \"minerpunk/ERC721A/ERC721A.sol\":17736:17749  prevOwnership */\n      dup5\n        /* \"minerpunk/ERC721A/ERC721A.sol\":17736:17764  prevOwnership.startTimestamp */\n      0x20\n      add\n      mload\n        /* \"minerpunk/ERC721A/ERC721A.sol\":17710:17718  nextSlot */\n      dup2\n        /* \"minerpunk/ERC721A/ERC721A.sol\":17710:17733  nextSlot.startTimestamp */\n      0x00\n      add\n      0x14\n        /* \"minerpunk/ERC721A/ERC721A.sol\":17710:17764  nextSlot.startTimestamp = prevOwnership.startTimestamp */\n      0x0100\n      exp\n      dup2\n      sload\n      dup2\n      0xffffffffffffffff\n      mul\n      not\n      and\n      swap1\n      dup4\n      0xffffffffffffffff\n      and\n      mul\n      or\n      swap1\n      sstore\n      pop\n        /* \"minerpunk/ERC721A/ERC721A.sol\":17610:17784  if (nextTokenId != _currentIndex) {... */\n    tag_240:\n        /* \"minerpunk/ERC721A/ERC721A.sol\":17415:17799  if (nextSlot.addr == address(0)) {... */\n    tag_239:\n        /* \"minerpunk/ERC721A/ERC721A.sol\":16774:17810  unchecked {... */\n      pop\n      pop\n      pop\n        /* \"minerpunk/ERC721A/ERC721A.sol\":17846:17853  tokenId */\n      dup4\n        /* \"minerpunk/ERC721A/ERC721A.sol\":17842:17844  to */\n      dup6\n        /* \"minerpunk/ERC721A/ERC721A.sol\":17827:17854  Transfer(from, to, tokenId) */\n      0xffffffffffffffffffffffffffffffffffffffff\n      and\n        /* \"minerpunk/ERC721A/ERC721A.sol\":17836:17840  from */\n      dup8\n        /* \"minerpunk/ERC721A/ERC721A.sol\":17827:17854  Transfer(from, to, tokenId) */\n      0xffffffffffffffffffffffffffffffffffffffff\n      and\n      0xddf252ad1be2c89b69c2b068fc378daa952ba7f163c4a11628f55a4df523b3ef\n      mload(0x40)\n      mload(0x40)\n      dup1\n      swap2\n      sub\n      swap1\n      log4\n        /* \"minerpunk/ERC721A/ERC721A.sol\":17865:17907  _afterTokenTransfers(from, to, tokenId, 1) */\n      tag_241\n        /* \"minerpunk/ERC721A/ERC721A.sol\":17886:17890  from */\n      dup7\n        /* \"minerpunk/ERC721A/ERC721A.sol\":17892:17894  to */\n      dup7\n        /* \"minerpunk/ERC721A/ERC721A.sol\":17896:17903  tokenId */\n      dup7\n        /* \"minerpunk/ERC721A/ERC721A.sol\":17905:17906  1 */\n      0x01\n        /* \"minerpunk/ERC721A/ERC721A.sol\":17865:17885  _afterTokenTransfers */\n      tag_242\n        /* \"minerpunk/ERC721A/ERC721A.sol\":17865:17907  _afterTokenTransfers(from, to, tokenId, 1) */\n      jump\t// in\n    tag_241:\n        /* \"minerpunk/ERC721A/ERC721A.sol\":15491:17915  {  ... */\n      pop\n      pop\n      pop\n        /* \"minerpunk/ERC721A/ERC721A.sol\":15387:17915  function _transfer(... */\n      pop\n      pop\n      pop\n      jump\t// out\n        /* \"@openzeppelin/contracts/utils/math/SafeMath.sol\":3122:3218  function sub(uint256 a, uint256 b) internal pure returns (uint256) {... */\n    tag_148:\n        /* \"@openzeppelin/contracts/utils/math/SafeMath.sol\":3180:3187  uint256 */\n      0x00\n        /* \"@openzeppelin/contracts/utils/math/SafeMath.sol\":3210:3211  b */\n      dup2\n        /* \"@openzeppelin/contracts/utils/math/SafeMath.sol\":3206:3207  a */\n      dup4\n        /* \"@openzeppelin/contracts/utils/math/SafeMath.sol\":3206:3211  a - b */\n      tag_244\n      swap2\n      swap1\n      tag_245\n      jump\t// in\n    tag_244:\n        /* \"@openzeppelin/contracts/utils/math/SafeMath.sol\":3199:3211  return a - b */\n      swap1\n      pop\n        /* \"@openzeppelin/contracts/utils/math/SafeMath.sol\":3122:3218  function sub(uint256 a, uint256 b) internal pure returns (uint256) {... */\n      swap3\n      swap2\n      pop\n      pop\n      jump\t// out\n        /* \"@openzeppelin/contracts/utils/math/SafeMath.sol\":2755:2851  function add(uint256 a, uint256 b) internal pure returns (uint256) {... */\n    tag_149:\n        /* \"@openzeppelin/contracts/utils/math/SafeMath.sol\":2813:2820  uint256 */\n      0x00\n        /* \"@openzeppelin/contracts/utils/math/SafeMath.sol\":2843:2844  b */\n      dup2\n        /* \"@openzeppelin/contracts/utils/math/SafeMath.sol\":2839:2840  a */\n      dup4\n        /* \"@openzeppelin/contracts/utils/math/SafeMath.sol\":2839:2844  a + b */\n      tag_247\n      swap2\n      swap1\n      tag_248\n      jump\t// in\n    tag_247:\n        /* \"@openzeppelin/contracts/utils/math/SafeMath.sol\":2832:2844  return a + b */\n      swap1\n      pop\n        /* \"@openzeppelin/contracts/utils/math/SafeMath.sol\":2755:2851  function add(uint256 a, uint256 b) internal pure returns (uint256) {... */\n      swap3\n      swap2\n      pop\n      pop\n      jump\t// out\n        /* \"@openzeppelin/contracts/utils/math/SafeMath.sol\":3850:3946  function div(uint256 a, uint256 b) internal pure returns (uint256) {... */\n    tag_151:\n        /* \"@openzeppelin/contracts/utils/math/SafeMath.sol\":3908:3915  uint256 */\n      0x00\n        /* \"@openzeppelin/contracts/utils/math/SafeMath.sol\":3938:3939  b */\n      dup2\n        /* \"@openzeppelin/contracts/utils/math/SafeMath.sol\":3934:3935  a */\n      dup4\n        /* \"@openzeppelin/contracts/utils/math/SafeMath.sol\":3934:3939  a / b */\n      tag_250\n      swap2\n      swap1\n      tag_251\n      jump\t// in\n    tag_250:\n        /* \"@openzeppelin/contracts/utils/math/SafeMath.sol\":3927:3939  return a / b */\n      swap1\n      pop\n        /* \"@openzeppelin/contracts/utils/math/SafeMath.sol\":3850:3946  function div(uint256 a, uint256 b) internal pure returns (uint256) {... */\n      swap3\n      swap2\n      pop\n      pop\n      jump\t// out\n        /* \"minerpunk/ERC721A/ERC721A.sol\":7249:8360  function _ownershipOf(uint256 tokenId) internal view returns (TokenOwnership memory) {... */\n    tag_154:\n        /* \"minerpunk/ERC721A/ERC721A.sol\":7311:7332  TokenOwnership memory */\n      tag_252\n      tag_253\n      jump\t// in\n    tag_252:\n        /* \"minerpunk/ERC721A/ERC721A.sol\":7345:7357  uint256 curr */\n      0x00\n        /* \"minerpunk/ERC721A/ERC721A.sol\":7360:7367  tokenId */\n      dup3\n        /* \"minerpunk/ERC721A/ERC721A.sol\":7345:7367  uint256 curr = tokenId */\n      swap1\n      pop\n        /* \"minerpunk/ERC721A/ERC721A.sol\":7428:7432  curr */\n      dup1\n        /* \"minerpunk/ERC721A/ERC721A.sol\":7409:7424  _startTokenId() */\n      tag_255\n        /* \"minerpunk/ERC721A/ERC721A.sol\":7409:7422  _startTokenId */\n      tag_138\n        /* \"minerpunk/ERC721A/ERC721A.sol\":7409:7424  _startTokenId() */\n      jump\t// in\n    tag_255:\n        /* \"minerpunk/ERC721A/ERC721A.sol\":7409:7432  _startTokenId() <= curr */\n      gt\n        /* \"minerpunk/ERC721A/ERC721A.sol\":7405:8293  if (_startTokenId() <= curr) if (curr < _currentIndex) {... */\n      tag_256\n      jumpi\n        /* \"minerpunk/ERC721A/ERC721A.sol\":7445:7458  _currentIndex */\n      sload(0x04)\n        /* \"minerpunk/ERC721A/ERC721A.sol\":7438:7442  curr */\n      dup2\n        /* \"minerpunk/ERC721A/ERC721A.sol\":7438:7458  curr < _currentIndex */\n      lt\n        /* \"minerpunk/ERC721A/ERC721A.sol\":7434:8293  if (curr < _currentIndex) {... */\n      iszero\n      tag_257\n      jumpi\n        /* \"minerpunk/ERC721A/ERC721A.sol\":7479:7510  TokenOwnership memory ownership */\n      0x00\n        /* \"minerpunk/ERC721A/ERC721A.sol\":7513:7524  _ownerships */\n      0x09\n        /* \"minerpunk/ERC721A/ERC721A.sol\":7513:7530  _ownerships[curr] */\n      0x00\n        /* \"minerpunk/ERC721A/ERC721A.sol\":7525:7529  curr */\n      dup4\n        /* \"minerpunk/ERC721A/ERC721A.sol\":7513:7530  _ownerships[curr] */\n      dup2\n      mstore\n      0x20\n      add\n      swap1\n      dup2\n      mstore\n      0x20\n      add\n      0x00\n      keccak256\n        /* \"minerpunk/ERC721A/ERC721A.sol\":7479:7530  TokenOwnership memory ownership = _ownerships[curr] */\n      mload(0x40)\n      dup1\n      0x60\n      add\n      0x40\n      mstore\n      swap1\n      dup2\n      0x00\n      dup3\n      add\n      0x00\n      swap1\n      sload\n      swap1\n      0x0100\n      exp\n      swap1\n      div\n      0xffffffffffffffffffffffffffffffffffffffff\n      and\n      0xffffffffffffffffffffffffffffffffffffffff\n      and\n      0xffffffffffffffffffffffffffffffffffffffff\n      and\n      dup2\n      mstore\n      0x20\n      add\n      0x00\n      dup3\n      add\n      0x14\n      swap1\n      sload\n      swap1\n      0x0100\n      exp\n      swap1\n      div\n      0xffffffffffffffff\n      and\n      0xffffffffffffffff\n      and\n      0xffffffffffffffff\n      and\n      dup2\n      mstore\n      0x20\n      add\n      0x00\n      dup3\n      add\n      0x1c\n      swap1\n      sload\n      swap1\n      0x0100\n      exp\n      swap1\n      div\n      0xff\n      and\n      iszero\n      iszero\n      iszero\n      iszero\n      dup2\n      mstore\n      pop\n      pop\n      swap1\n      pop\n        /* \"minerpunk/ERC721A/ERC721A.sol\":7554:7563  ownership */\n      dup1\n        /* \"minerpunk/ERC721A/ERC721A.sol\":7554:7570  ownership.burned */\n      0x40\n      add\n      mload\n        /* \"minerpunk/ERC721A/ERC721A.sol\":7549:8278  if (!ownership.burned) {... */\n      tag_258\n      jumpi\n        /* \"minerpunk/ERC721A/ERC721A.sol\":7625:7626  0 */\n      0x00\n        /* \"minerpunk/ERC721A/ERC721A.sol\":7599:7627  ownership.addr != address(0) */\n      0xffffffffffffffffffffffffffffffffffffffff\n      and\n        /* \"minerpunk/ERC721A/ERC721A.sol\":7599:7608  ownership */\n      dup2\n        /* \"minerpunk/ERC721A/ERC721A.sol\":7599:7613  ownership.addr */\n      0x00\n      add\n      mload\n        /* \"minerpunk/ERC721A/ERC721A.sol\":7599:7627  ownership.addr != address(0) */\n      0xffffffffffffffffffffffffffffffffffffffff\n      and\n      eq\n        /* \"minerpunk/ERC721A/ERC721A.sol\":7595:7696  if (ownership.addr != address(0)) {... */\n      tag_259\n      jumpi\n        /* \"minerpunk/ERC721A/ERC721A.sol\":7663:7672  ownership */\n      dup1\n        /* \"minerpunk/ERC721A/ERC721A.sol\":7656:7672  return ownership */\n      swap3\n      pop\n      pop\n      pop\n      jump(tag_254)\n        /* \"minerpunk/ERC721A/ERC721A.sol\":7595:7696  if (ownership.addr != address(0)) {... */\n    tag_259:\n        /* \"minerpunk/ERC721A/ERC721A.sol\":7998:8259  while (true) {... */\n    tag_260:\n        /* \"minerpunk/ERC721A/ERC721A.sol\":8005:8009  true */\n      0x01\n        /* \"minerpunk/ERC721A/ERC721A.sol\":7998:8259  while (true) {... */\n      iszero\n      tag_261\n      jumpi\n        /* \"minerpunk/ERC721A/ERC721A.sol\":8038:8044  curr-- */\n      dup2\n      dup1\n      0x01\n      swap1\n      sub\n      swap3\n      pop\n      pop\n        /* \"minerpunk/ERC721A/ERC721A.sol\":8083:8094  _ownerships */\n      0x09\n        /* \"minerpunk/ERC721A/ERC721A.sol\":8083:8100  _ownerships[curr] */\n      0x00\n        /* \"minerpunk/ERC721A/ERC721A.sol\":8095:8099  curr */\n      dup4\n        /* \"minerpunk/ERC721A/ERC721A.sol\":8083:8100  _ownerships[curr] */\n      dup2\n      mstore\n      0x20\n      add\n      swap1\n      dup2\n      mstore\n      0x20\n      add\n      0x00\n      keccak256\n        /* \"minerpunk/ERC721A/ERC721A.sol\":8071:8100  ownership = _ownerships[curr] */\n      mload(0x40)\n      dup1\n      0x60\n      add\n      0x40\n      mstore\n      swap1\n      dup2\n      0x00\n      dup3\n      add\n      0x00\n      swap1\n      sload\n      swap1\n      0x0100\n      exp\n      swap1\n      div\n      0xffffffffffffffffffffffffffffffffffffffff\n      and\n      0xffffffffffffffffffffffffffffffffffffffff\n      and\n      0xffffffffffffffffffffffffffffffffffffffff\n      and\n      dup2\n      mstore\n      0x20\n      add\n      0x00\n      dup3\n      add\n      0x14\n      swap1\n      sload\n      swap1\n      0x0100\n      exp\n      swap1\n      div\n      0xffffffffffffffff\n      and\n      0xffffffffffffffff\n      and\n      0xffffffffffffffff\n      and\n      dup2\n      mstore\n      0x20\n      add\n      0x00\n      dup3\n      add\n      0x1c\n      swap1\n      sload\n      swap1\n      0x0100\n      exp\n      swap1\n      div\n      0xff\n      and\n      iszero\n      iszero\n      iszero\n      iszero\n      dup2\n      mstore\n      pop\n      pop\n      swap1\n      pop\n        /* \"minerpunk/ERC721A/ERC721A.sol\":8157:8158  0 */\n      0x00\n        /* \"minerpunk/ERC721A/ERC721A.sol\":8131:8159  ownership.addr != address(0) */\n      0xffffffffffffffffffffffffffffffffffffffff\n      and\n        /* \"minerpunk/ERC721A/ERC721A.sol\":8131:8140  ownership */\n      dup2\n        /* \"minerpunk/ERC721A/ERC721A.sol\":8131:8145  ownership.addr */\n      0x00\n      add\n      mload\n        /* \"minerpunk/ERC721A/ERC721A.sol\":8131:8159  ownership.addr != address(0) */\n      0xffffffffffffffffffffffffffffffffffffffff\n      and\n      eq\n        /* \"minerpunk/ERC721A/ERC721A.sol\":8127:8236  if (ownership.addr != address(0)) {... */\n      tag_262\n      jumpi\n        /* \"minerpunk/ERC721A/ERC721A.sol\":8199:8208  ownership */\n      dup1\n        /* \"minerpunk/ERC721A/ERC721A.sol\":8192:8208  return ownership */\n      swap3\n      pop\n      pop\n      pop\n      jump(tag_254)\n        /* \"minerpunk/ERC721A/ERC721A.sol\":8127:8236  if (ownership.addr != address(0)) {... */\n    tag_262:\n        /* \"minerpunk/ERC721A/ERC721A.sol\":7998:8259  while (true) {... */\n      jump(tag_260)\n    tag_261:\n        /* \"minerpunk/ERC721A/ERC721A.sol\":7549:8278  if (!ownership.burned) {... */\n    tag_258:\n        /* \"minerpunk/ERC721A/ERC721A.sol\":7460:8293  {... */\n      pop\n        /* \"minerpunk/ERC721A/ERC721A.sol\":7434:8293  if (curr < _currentIndex) {... */\n    tag_257:\n        /* \"minerpunk/ERC721A/ERC721A.sol\":7405:8293  if (_startTokenId() <= curr) if (curr < _currentIndex) {... */\n    tag_256:\n        /* \"minerpunk/ERC721A/ERC721A.sol\":8321:8352  OwnerQueryForNonexistentToken() */\n      mload(0x40)\n      0xdf2d9b4200000000000000000000000000000000000000000000000000000000\n      dup2\n      mstore\n      0x04\n      add\n      mload(0x40)\n      dup1\n      swap2\n      sub\n      swap1\n      revert\n        /* \"minerpunk/ERC721A/ERC721A.sol\":7249:8360  function _ownershipOf(uint256 tokenId) internal view returns (TokenOwnership memory) {... */\n    tag_254:\n      swap2\n      swap1\n      pop\n      jump\t// out\n        /* \"@openzeppelin/contracts/utils/Address.sol\":1175:1495  function isContract(address account) internal view returns (bool) {... */\n    tag_172:\n        /* \"@openzeppelin/contracts/utils/Address.sol\":1235:1239  bool */\n      0x00\n        /* \"@openzeppelin/contracts/utils/Address.sol\":1487:1488  0 */\n      dup1\n        /* \"@openzeppelin/contracts/utils/Address.sol\":1465:1472  account */\n      dup3\n        /* \"@openzeppelin/contracts/utils/Address.sol\":1465:1484  account.code.length */\n      0xffffffffffffffffffffffffffffffffffffffff\n      and\n      extcodesize\n        /* \"@openzeppelin/contracts/utils/Address.sol\":1465:1488  account.code.length > 0 */\n      gt\n        /* \"@openzeppelin/contracts/utils/Address.sol\":1458:1488  return account.code.length > 0 */\n      swap1\n      pop\n        /* \"@openzeppelin/contracts/utils/Address.sol\":1175:1495  function isContract(address account) internal view returns (bool) {... */\n      swap2\n      swap1\n      pop\n      jump\t// out\n        /* \"minerpunk/ERC721A/ERC721A.sol\":21847:22514  function _checkContractOnERC721Received(... */\n    tag_175:\n        /* \"minerpunk/ERC721A/ERC721A.sol\":22010:22014  bool */\n      0x00\n        /* \"minerpunk/ERC721A/ERC721A.sol\":22047:22049  to */\n      dup4\n        /* \"minerpunk/ERC721A/ERC721A.sol\":22031:22067  IERC721Receiver(to).onERC721Received */\n      0xffffffffffffffffffffffffffffffffffffffff\n      and\n      0x150b7a02\n        /* \"minerpunk/ERC721A/ERC721A.sol\":22068:22080  _msgSender() */\n      tag_265\n        /* \"minerpunk/ERC721A/ERC721A.sol\":22068:22078  _msgSender */\n      tag_129\n        /* \"minerpunk/ERC721A/ERC721A.sol\":22068:22080  _msgSender() */\n      jump\t// in\n    tag_265:\n        /* \"minerpunk/ERC721A/ERC721A.sol\":22082:22086  from */\n      dup8\n        /* \"minerpunk/ERC721A/ERC721A.sol\":22088:22095  tokenId */\n      dup7\n        /* \"minerpunk/ERC721A/ERC721A.sol\":22097:22102  _data */\n      dup7\n        /* \"minerpunk/ERC721A/ERC721A.sol\":22031:22103  IERC721Receiver(to).onERC721Received(_msgSender(), from, tokenId, _data) */\n      mload(0x40)\n      dup6\n      0xffffffff\n      and\n      0xe0\n      shl\n      dup2\n      mstore\n      0x04\n      add\n      tag_266\n      swap5\n      swap4\n      swap3\n      swap2\n      swap1\n      tag_267\n      jump\t// in\n    tag_266:\n      0x20\n      mload(0x40)\n      dup1\n      dup4\n      sub\n      dup2\n      0x00\n      dup8\n      gas\n      call\n      swap3\n      pop\n      pop\n      pop\n      dup1\n      iszero\n      tag_268\n      jumpi\n      pop\n      mload(0x40)\n      returndatasize\n      not(0x1f)\n      0x1f\n      dup3\n      add\n      and\n      dup3\n      add\n      dup1\n      0x40\n      mstore\n      pop\n      dup2\n      add\n      swap1\n      tag_269\n      swap2\n      swap1\n      tag_270\n      jump\t// in\n    tag_269:\n      0x01\n    tag_268:\n        /* \"minerpunk/ERC721A/ERC721A.sol\":22027:22507  try IERC721Receiver(to).onERC721Received(_msgSender(), from, tokenId, _data) returns (bytes4 retval) {... */\n      tag_271\n      jumpi\n      returndatasize\n      dup1\n      0x00\n      dup2\n      eq\n      tag_276\n      jumpi\n      mload(0x40)\n      swap2\n      pop\n      and(add(returndatasize, 0x3f), not(0x1f))\n      dup3\n      add\n      0x40\n      mstore\n      returndatasize\n      dup3\n      mstore\n      returndatasize\n      0x00\n      0x20\n      dup5\n      add\n      returndatacopy\n      jump(tag_275)\n    tag_276:\n      0x60\n      swap2\n      pop\n    tag_275:\n      pop\n        /* \"minerpunk/ERC721A/ERC721A.sol\":22282:22283  0 */\n      0x00\n        /* \"minerpunk/ERC721A/ERC721A.sol\":22265:22271  reason */\n      dup2\n        /* \"minerpunk/ERC721A/ERC721A.sol\":22265:22278  reason.length */\n      mload\n        /* \"minerpunk/ERC721A/ERC721A.sol\":22265:22283  reason.length == 0 */\n      sub\n        /* \"minerpunk/ERC721A/ERC721A.sol\":22261:22496  if (reason.length == 0) {... */\n      tag_277\n      jumpi\n        /* \"minerpunk/ERC721A/ERC721A.sol\":22311:22351  TransferToNonERC721ReceiverImplementer() */\n      mload(0x40)\n      0xd1a57ed600000000000000000000000000000000000000000000000000000000\n      dup2\n      mstore\n      0x04\n      add\n      mload(0x40)\n      dup1\n      swap2\n      sub\n      swap1\n      revert\n        /* \"minerpunk/ERC721A/ERC721A.sol\":22261:22496  if (reason.length == 0) {... */\n    tag_277:\n        /* \"minerpunk/ERC721A/ERC721A.sol\":22454:22460  reason */\n      dup1\n        /* \"minerpunk/ERC721A/ERC721A.sol\":22448:22461  mload(reason) */\n      mload\n        /* \"minerpunk/ERC721A/ERC721A.sol\":22439:22445  reason */\n      dup2\n        /* \"minerpunk/ERC721A/ERC721A.sol\":22435:22437  32 */\n      0x20\n        /* \"minerpunk/ERC721A/ERC721A.sol\":22431:22446  add(32, reason) */\n      add\n        /* \"minerpunk/ERC721A/ERC721A.sol\":22424:22462  revert(add(32, reason), mload(reason)) */\n      revert\n        /* \"minerpunk/ERC721A/ERC721A.sol\":22027:22507  try IERC721Receiver(to).onERC721Received(_msgSender(), from, tokenId, _data) returns (bytes4 retval) {... */\n    tag_271:\n        /* \"minerpunk/ERC721A/ERC721A.sol\":22160:22205  IERC721Receiver(to).onERC721Received.selector */\n      shl(0xe0, 0x150b7a02)\n        /* \"minerpunk/ERC721A/ERC721A.sol\":22150:22205  retval == IERC721Receiver(to).onERC721Received.selector */\n      not(0xffffffffffffffffffffffffffffffffffffffffffffffffffffffff)\n      and\n        /* \"minerpunk/ERC721A/ERC721A.sol\":22150:22156  retval */\n      dup2\n        /* \"minerpunk/ERC721A/ERC721A.sol\":22150:22205  retval == IERC721Receiver(to).onERC721Received.selector */\n      not(0xffffffffffffffffffffffffffffffffffffffffffffffffffffffff)\n      and\n      eq\n        /* \"minerpunk/ERC721A/ERC721A.sol\":22143:22205  return retval == IERC721Receiver(to).onERC721Received.selector */\n      swap2\n      pop\n      pop\n        /* \"minerpunk/ERC721A/ERC721A.sol\":21847:22514  function _checkContractOnERC721Received(... */\n      swap5\n      swap4\n      pop\n      pop\n      pop\n      pop\n      jump\t// out\n        /* \"minerpunk/ERC721A/ERC721A.sol\":9524:9709  function _baseURI() internal view virtual returns (string memory) {... */\n    tag_188:\n        /* \"minerpunk/ERC721A/ERC721A.sol\":9575:9588  string memory */\n      0x60\n        /* \"minerpunk/ERC721A/ERC721A.sol\":9601:9691  return 'https://gateway.pinata.cloud/ipfs/QmeN77SqTYErXdMQ4hL41b1faGxAKt4QWA5NGVFuZu9xHn/' */\n      mload(0x40)\n      dup1\n      0x80\n      add\n      0x40\n      mstore\n      dup1\n      0x51\n      dup2\n      mstore\n      0x20\n      add\n      data_d8cc7cbf95b52afa2322fac553d3c4e20f5096fb87da64785a945de91007c7b2\n      0x51\n      swap2\n      codecopy\n      swap1\n      pop\n        /* \"minerpunk/ERC721A/ERC721A.sol\":9524:9709  function _baseURI() internal view virtual returns (string memory) {... */\n      swap1\n      jump\t// out\n        /* \"@openzeppelin/contracts/utils/Strings.sol\":392:1095  function toString(uint256 value) internal pure returns (string memory) {... */\n    tag_192:\n        /* \"@openzeppelin/contracts/utils/Strings.sol\":448:461  string memory */\n      0x60\n        /* \"@openzeppelin/contracts/utils/Strings.sol\":674:675  0 */\n      0x00\n        /* \"@openzeppelin/contracts/utils/Strings.sol\":665:670  value */\n      dup3\n        /* \"@openzeppelin/contracts/utils/Strings.sol\":665:675  value == 0 */\n      sub\n        /* \"@openzeppelin/contracts/utils/Strings.sol\":661:712  if (value == 0) {... */\n      tag_282\n      jumpi\n        /* \"@openzeppelin/contracts/utils/Strings.sol\":691:701  return \"0\" */\n      mload(0x40)\n      dup1\n      0x40\n      add\n      0x40\n      mstore\n      dup1\n      0x01\n      dup2\n      mstore\n      0x20\n      add\n      0x3000000000000000000000000000000000000000000000000000000000000000\n      dup2\n      mstore\n      pop\n      swap1\n      pop\n      jump(tag_281)\n        /* \"@openzeppelin/contracts/utils/Strings.sol\":661:712  if (value == 0) {... */\n    tag_282:\n        /* \"@openzeppelin/contracts/utils/Strings.sol\":721:733  uint256 temp */\n      0x00\n        /* \"@openzeppelin/contracts/utils/Strings.sol\":736:741  value */\n      dup3\n        /* \"@openzeppelin/contracts/utils/Strings.sol\":721:741  uint256 temp = value */\n      swap1\n      pop\n        /* \"@openzeppelin/contracts/utils/Strings.sol\":751:765  uint256 digits */\n      0x00\n        /* \"@openzeppelin/contracts/utils/Strings.sol\":775:850  while (temp != 0) {... */\n    tag_283:\n        /* \"@openzeppelin/contracts/utils/Strings.sol\":790:791  0 */\n      0x00\n        /* \"@openzeppelin/contracts/utils/Strings.sol\":782:786  temp */\n      dup3\n        /* \"@openzeppelin/contracts/utils/Strings.sol\":782:791  temp != 0 */\n      eq\n        /* \"@openzeppelin/contracts/utils/Strings.sol\":775:850  while (temp != 0) {... */\n      tag_284\n      jumpi\n        /* \"@openzeppelin/contracts/utils/Strings.sol\":807:815  digits++ */\n      dup1\n      dup1\n      tag_285\n      swap1\n      tag_286\n      jump\t// in\n    tag_285:\n      swap2\n      pop\n      pop\n        /* \"@openzeppelin/contracts/utils/Strings.sol\":837:839  10 */\n      0x0a\n        /* \"@openzeppelin/contracts/utils/Strings.sol\":829:839  temp /= 10 */\n      dup3\n      tag_287\n      swap2\n      swap1\n      tag_251\n      jump\t// in\n    tag_287:\n      swap2\n      pop\n        /* \"@openzeppelin/contracts/utils/Strings.sol\":775:850  while (temp != 0) {... */\n      jump(tag_283)\n    tag_284:\n        /* \"@openzeppelin/contracts/utils/Strings.sol\":859:878  bytes memory buffer */\n      0x00\n        /* \"@openzeppelin/contracts/utils/Strings.sol\":891:897  digits */\n      dup2\n        /* \"@openzeppelin/contracts/utils/Strings.sol\":881:898  new bytes(digits) */\n      0xffffffffffffffff\n      dup2\n      gt\n      iszero\n      tag_288\n      jumpi\n      tag_289\n      tag_290\n      jump\t// in\n    tag_289:\n    tag_288:\n      mload(0x40)\n      swap1\n      dup1\n      dup3\n      mstore\n      dup1\n      0x1f\n      add\n      not(0x1f)\n      and\n      0x20\n      add\n      dup3\n      add\n      0x40\n      mstore\n      dup1\n      iszero\n      tag_291\n      jumpi\n      dup2\n      0x20\n      add\n      0x01\n      dup3\n      mul\n      dup1\n      calldatasize\n      dup4\n      calldatacopy\n      dup1\n      dup3\n      add\n      swap2\n      pop\n      pop\n      swap1\n      pop\n    tag_291:\n      pop\n        /* \"@openzeppelin/contracts/utils/Strings.sol\":859:898  bytes memory buffer = new bytes(digits) */\n      swap1\n      pop\n        /* \"@openzeppelin/contracts/utils/Strings.sol\":908:1058  while (value != 0) {... */\n    tag_292:\n        /* \"@openzeppelin/contracts/utils/Strings.sol\":924:925  0 */\n      0x00\n        /* \"@openzeppelin/contracts/utils/Strings.sol\":915:920  value */\n      dup6\n        /* \"@openzeppelin/contracts/utils/Strings.sol\":915:925  value != 0 */\n      eq\n        /* \"@openzeppelin/contracts/utils/Strings.sol\":908:1058  while (value != 0) {... */\n      tag_293\n      jumpi\n        /* \"@openzeppelin/contracts/utils/Strings.sol\":951:952  1 */\n      0x01\n        /* \"@openzeppelin/contracts/utils/Strings.sol\":941:952  digits -= 1 */\n      dup3\n      tag_294\n      swap2\n      swap1\n      tag_245\n      jump\t// in\n    tag_294:\n      swap2\n      pop\n        /* \"@openzeppelin/contracts/utils/Strings.sol\":1017:1019  10 */\n      0x0a\n        /* \"@openzeppelin/contracts/utils/Strings.sol\":1009:1014  value */\n      dup6\n        /* \"@openzeppelin/contracts/utils/Strings.sol\":1009:1019  value % 10 */\n      tag_295\n      swap2\n      swap1\n      tag_202\n      jump\t// in\n    tag_295:\n        /* \"@openzeppelin/contracts/utils/Strings.sol\":996:998  48 */\n      0x30\n        /* \"@openzeppelin/contracts/utils/Strings.sol\":996:1020  48 + uint256(value % 10) */\n      tag_296\n      swap2\n      swap1\n      tag_248\n      jump\t// in\n    tag_296:\n        /* \"@openzeppelin/contracts/utils/Strings.sol\":983:1022  bytes1(uint8(48 + uint256(value % 10))) */\n      0xf8\n      shl\n        /* \"@openzeppelin/contracts/utils/Strings.sol\":966:972  buffer */\n      dup2\n        /* \"@openzeppelin/contracts/utils/Strings.sol\":973:979  digits */\n      dup4\n        /* \"@openzeppelin/contracts/utils/Strings.sol\":966:980  buffer[digits] */\n      dup2\n      mload\n      dup2\n      lt\n      tag_297\n      jumpi\n      tag_298\n      tag_299\n      jump\t// in\n    tag_298:\n    tag_297:\n      0x20\n      add\n      add\n        /* \"@openzeppelin/contracts/utils/Strings.sol\":966:1022  buffer[digits] = bytes1(uint8(48 + uint256(value % 10))) */\n      swap1\n      not(0xffffffffffffffffffffffffffffffffffffffffffffffffffffffffffffff)\n      and\n      swap1\n      dup2\n      0x00\n      byte\n      swap1\n      mstore8\n      pop\n        /* \"@openzeppelin/contracts/utils/Strings.sol\":1045:1047  10 */\n      0x0a\n        /* \"@openzeppelin/contracts/utils/Strings.sol\":1036:1047  value /= 10 */\n      dup6\n      tag_300\n      swap2\n      swap1\n      tag_251\n      jump\t// in\n    tag_300:\n      swap5\n      pop\n        /* \"@openzeppelin/contracts/utils/Strings.sol\":908:1058  while (value != 0) {... */\n      jump(tag_292)\n    tag_293:\n        /* \"@openzeppelin/contracts/utils/Strings.sol\":1081:1087  buffer */\n      dup1\n        /* \"@openzeppelin/contracts/utils/Strings.sol\":1067:1088  return string(buffer) */\n      swap4\n      pop\n      pop\n      pop\n      pop\n        /* \"@openzeppelin/contracts/utils/Strings.sol\":392:1095  function toString(uint256 value) internal pure returns (string memory) {... */\n    tag_281:\n      swap2\n      swap1\n      pop\n      jump\t// out\n        /* \"minerpunk/ERC721A/ERC721A.sol\":23162:23321  function _beforeTokenTransfers(... */\n    tag_237:\n      pop\n      pop\n      pop\n      pop\n      jump\t// out\n        /* \"minerpunk/ERC721A/ERC721A.sol\":23980:24138  function _afterTokenTransfers(... */\n    tag_242:\n      pop\n      pop\n      pop\n      pop\n      jump\t// out\n    tag_253:\n      mload(0x40)\n      dup1\n      0x60\n      add\n      0x40\n      mstore\n      dup1\n      and(0xffffffffffffffffffffffffffffffffffffffff, 0x00)\n      dup2\n      mstore\n      0x20\n      add\n      and(0xffffffffffffffff, 0x00)\n      dup2\n      mstore\n      0x20\n      add\n      iszero(iszero(0x00))\n      dup2\n      mstore\n      pop\n      swap1\n      jump\t// out\n        /* \"#utility.yul\":7:82   */\n    tag_303:\n        /* \"#utility.yul\":40:46   */\n      0x00\n        /* \"#utility.yul\":73:75   */\n      0x40\n        /* \"#utility.yul\":67:76   */\n      mload\n        /* \"#utility.yul\":57:76   */\n      swap1\n      pop\n        /* \"#utility.yul\":7:82   */\n      swap1\n      jump\t// out\n        /* \"#utility.yul\":88:205   */\n    tag_304:\n        /* \"#utility.yul\":197:198   */\n      0x00\n        /* \"#utility.yul\":194:195   */\n      dup1\n        /* \"#utility.yul\":187:199   */\n      revert\n        /* \"#utility.yul\":211:328   */\n    tag_305:\n        /* \"#utility.yul\":320:321   */\n      0x00\n        /* \"#utility.yul\":317:318   */\n      dup1\n        /* \"#utility.yul\":310:322   */\n      revert\n        /* \"#utility.yul\":334:483   */\n    tag_306:\n        /* \"#utility.yul\":370:377   */\n      0x00\n        /* \"#utility.yul\":410:476   */\n      0xffffffff00000000000000000000000000000000000000000000000000000000\n        /* \"#utility.yul\":403:408   */\n      dup3\n        /* \"#utility.yul\":399:477   */\n      and\n        /* \"#utility.yul\":388:477   */\n      swap1\n      pop\n        /* \"#utility.yul\":334:483   */\n      swap2\n      swap1\n      pop\n      jump\t// out\n        /* \"#utility.yul\":489:609   */\n    tag_307:\n        /* \"#utility.yul\":561:584   */\n      tag_350\n        /* \"#utility.yul\":578:583   */\n      dup2\n        /* \"#utility.yul\":561:584   */\n      tag_306\n      jump\t// in\n    tag_350:\n        /* \"#utility.yul\":554:559   */\n      dup2\n        /* \"#utility.yul\":551:585   */\n      eq\n        /* \"#utility.yul\":541:603   */\n      tag_351\n      jumpi\n        /* \"#utility.yul\":599:600   */\n      0x00\n        /* \"#utility.yul\":596:597   */\n      dup1\n        /* \"#utility.yul\":589:601   */\n      revert\n        /* \"#utility.yul\":541:603   */\n    tag_351:\n        /* \"#utility.yul\":489:609   */\n      pop\n      jump\t// out\n        /* \"#utility.yul\":615:752   */\n    tag_308:\n        /* \"#utility.yul\":660:665   */\n      0x00\n        /* \"#utility.yul\":698:704   */\n      dup2\n        /* \"#utility.yul\":685:705   */\n      calldataload\n        /* \"#utility.yul\":676:705   */\n      swap1\n      pop\n        /* \"#utility.yul\":714:746   */\n      tag_353\n        /* \"#utility.yul\":740:745   */\n      dup2\n        /* \"#utility.yul\":714:746   */\n      tag_307\n      jump\t// in\n    tag_353:\n        /* \"#utility.yul\":615:752   */\n      swap3\n      swap2\n      pop\n      pop\n      jump\t// out\n        /* \"#utility.yul\":758:1085   */\n    tag_28:\n        /* \"#utility.yul\":816:822   */\n      0x00\n        /* \"#utility.yul\":865:867   */\n      0x20\n        /* \"#utility.yul\":853:862   */\n      dup3\n        /* \"#utility.yul\":844:851   */\n      dup5\n        /* \"#utility.yul\":840:863   */\n      sub\n        /* \"#utility.yul\":836:868   */\n      slt\n        /* \"#utility.yul\":833:952   */\n      iszero\n      tag_355\n      jumpi\n        /* \"#utility.yul\":871:950   */\n      tag_356\n      tag_304\n      jump\t// in\n    tag_356:\n        /* \"#utility.yul\":833:952   */\n    tag_355:\n        /* \"#utility.yul\":991:992   */\n      0x00\n        /* \"#utility.yul\":1016:1068   */\n      tag_357\n        /* \"#utility.yul\":1060:1067   */\n      dup5\n        /* \"#utility.yul\":1051:1057   */\n      dup3\n        /* \"#utility.yul\":1040:1049   */\n      dup6\n        /* \"#utility.yul\":1036:1058   */\n      add\n        /* \"#utility.yul\":1016:1068   */\n      tag_308\n      jump\t// in\n    tag_357:\n        /* \"#utility.yul\":1006:1068   */\n      swap2\n      pop\n        /* \"#utility.yul\":962:1078   */\n      pop\n        /* \"#utility.yul\":758:1085   */\n      swap3\n      swap2\n      pop\n      pop\n      jump\t// out\n        /* \"#utility.yul\":1091:1181   */\n    tag_309:\n        /* \"#utility.yul\":1125:1132   */\n      0x00\n        /* \"#utility.yul\":1168:1173   */\n      dup2\n        /* \"#utility.yul\":1161:1174   */\n      iszero\n        /* \"#utility.yul\":1154:1175   */\n      iszero\n        /* \"#utility.yul\":1143:1175   */\n      swap1\n      pop\n        /* \"#utility.yul\":1091:1181   */\n      swap2\n      swap1\n      pop\n      jump\t// out\n        /* \"#utility.yul\":1187:1296   */\n    tag_310:\n        /* \"#utility.yul\":1268:1289   */\n      tag_360\n        /* \"#utility.yul\":1283:1288   */\n      dup2\n        /* \"#utility.yul\":1268:1289   */\n      tag_309\n      jump\t// in\n    tag_360:\n        /* \"#utility.yul\":1263:1266   */\n      dup3\n        /* \"#utility.yul\":1256:1290   */\n      mstore\n        /* \"#utility.yul\":1187:1296   */\n      pop\n      pop\n      jump\t// out\n        /* \"#utility.yul\":1302:1512   */\n    tag_31:\n        /* \"#utility.yul\":1389:1393   */\n      0x00\n        /* \"#utility.yul\":1427:1429   */\n      0x20\n        /* \"#utility.yul\":1416:1425   */\n      dup3\n        /* \"#utility.yul\":1412:1430   */\n      add\n        /* \"#utility.yul\":1404:1430   */\n      swap1\n      pop\n        /* \"#utility.yul\":1440:1505   */\n      tag_362\n        /* \"#utility.yul\":1502:1503   */\n      0x00\n        /* \"#utility.yul\":1491:1500   */\n      dup4\n        /* \"#utility.yul\":1487:1504   */\n      add\n        /* \"#utility.yul\":1478:1484   */\n      dup5\n        /* \"#utility.yul\":1440:1505   */\n      tag_310\n      jump\t// in\n    tag_362:\n        /* \"#utility.yul\":1302:1512   */\n      swap3\n      swap2\n      pop\n      pop\n      jump\t// out\n        /* \"#utility.yul\":1518:1617   */\n    tag_311:\n        /* \"#utility.yul\":1570:1576   */\n      0x00\n        /* \"#utility.yul\":1604:1609   */\n      dup2\n        /* \"#utility.yul\":1598:1610   */\n      mload\n        /* \"#utility.yul\":1588:1610   */\n      swap1\n      pop\n        /* \"#utility.yul\":1518:1617   */\n      swap2\n      swap1\n      pop\n      jump\t// out\n        /* \"#utility.yul\":1623:1792   */\n    tag_312:\n        /* \"#utility.yul\":1707:1718   */\n      0x00\n        /* \"#utility.yul\":1741:1747   */\n      dup3\n        /* \"#utility.yul\":1736:1739   */\n      dup3\n        /* \"#utility.yul\":1729:1748   */\n      mstore\n        /* \"#utility.yul\":1781:1785   */\n      0x20\n        /* \"#utility.yul\":1776:1779   */\n      dup3\n        /* \"#utility.yul\":1772:1786   */\n      add\n        /* \"#utility.yul\":1757:1786   */\n      swap1\n      pop\n        /* \"#utility.yul\":1623:1792   */\n      swap3\n      swap2\n      pop\n      pop\n      jump\t// out\n        /* \"#utility.yul\":1798:2044   */\n    tag_313:\n        /* \"#utility.yul\":1879:1880   */\n      0x00\n        /* \"#utility.yul\":1889:2002   */\n    tag_366:\n        /* \"#utility.yul\":1903:1909   */\n      dup4\n        /* \"#utility.yul\":1900:1901   */\n      dup2\n        /* \"#utility.yul\":1897:1910   */\n      lt\n        /* \"#utility.yul\":1889:2002   */\n      iszero\n      tag_368\n      jumpi\n        /* \"#utility.yul\":1988:1989   */\n      dup1\n        /* \"#utility.yul\":1983:1986   */\n      dup3\n        /* \"#utility.yul\":1979:1990   */\n      add\n        /* \"#utility.yul\":1973:1991   */\n      mload\n        /* \"#utility.yul\":1969:1970   */\n      dup2\n        /* \"#utility.yul\":1964:1967   */\n      dup5\n        /* \"#utility.yul\":1960:1971   */\n      add\n        /* \"#utility.yul\":1953:1992   */\n      mstore\n        /* \"#utility.yul\":1925:1927   */\n      0x20\n        /* \"#utility.yul\":1922:1923   */\n      dup2\n        /* \"#utility.yul\":1918:1928   */\n      add\n        /* \"#utility.yul\":1913:1928   */\n      swap1\n      pop\n        /* \"#utility.yul\":1889:2002   */\n      jump(tag_366)\n    tag_368:\n        /* \"#utility.yul\":2036:2037   */\n      0x00\n        /* \"#utility.yul\":2027:2033   */\n      dup5\n        /* \"#utility.yul\":2022:2025   */\n      dup5\n        /* \"#utility.yul\":2018:2034   */\n      add\n        /* \"#utility.yul\":2011:2038   */\n      mstore\n        /* \"#utility.yul\":1860:2044   */\n      pop\n        /* \"#utility.yul\":1798:2044   */\n      pop\n      pop\n      pop\n      jump\t// out\n        /* \"#utility.yul\":2050:2152   */\n    tag_314:\n        /* \"#utility.yul\":2091:2097   */\n      0x00\n        /* \"#utility.yul\":2142:2144   */\n      0x1f\n        /* \"#utility.yul\":2138:2145   */\n      not\n        /* \"#utility.yul\":2133:2135   */\n      0x1f\n        /* \"#utility.yul\":2126:2131   */\n      dup4\n        /* \"#utility.yul\":2122:2136   */\n      add\n        /* \"#utility.yul\":2118:2146   */\n      and\n        /* \"#utility.yul\":2108:2146   */\n      swap1\n      pop\n        /* \"#utility.yul\":2050:2152   */\n      swap2\n      swap1\n      pop\n      jump\t// out\n        /* \"#utility.yul\":2158:2535   */\n    tag_315:\n        /* \"#utility.yul\":2246:2249   */\n      0x00\n        /* \"#utility.yul\":2274:2313   */\n      tag_371\n        /* \"#utility.yul\":2307:2312   */\n      dup3\n        /* \"#utility.yul\":2274:2313   */\n      tag_311\n      jump\t// in\n    tag_371:\n        /* \"#utility.yul\":2329:2400   */\n      tag_372\n        /* \"#utility.yul\":2393:2399   */\n      dup2\n        /* \"#utility.yul\":2388:2391   */\n      dup6\n        /* \"#utility.yul\":2329:2400   */\n      tag_312\n      jump\t// in\n    tag_372:\n        /* \"#utility.yul\":2322:2400   */\n      swap4\n      pop\n        /* \"#utility.yul\":2409:2474   */\n      tag_373\n        /* \"#utility.yul\":2467:2473   */\n      dup2\n        /* \"#utility.yul\":2462:2465   */\n      dup6\n        /* \"#utility.yul\":2455:2459   */\n      0x20\n        /* \"#utility.yul\":2448:2453   */\n      dup7\n        /* \"#utility.yul\":2444:2460   */\n      add\n        /* \"#utility.yul\":2409:2474   */\n      tag_313\n      jump\t// in\n    tag_373:\n        /* \"#utility.yul\":2499:2528   */\n      tag_374\n        /* \"#utility.yul\":2521:2527   */\n      dup2\n        /* \"#utility.yul\":2499:2528   */\n      tag_314\n      jump\t// in\n    tag_374:\n        /* \"#utility.yul\":2494:2497   */\n      dup5\n        /* \"#utility.yul\":2490:2529   */\n      add\n        /* \"#utility.yul\":2483:2529   */\n      swap2\n      pop\n        /* \"#utility.yul\":2250:2535   */\n      pop\n        /* \"#utility.yul\":2158:2535   */\n      swap3\n      swap2\n      pop\n      pop\n      jump\t// out\n        /* \"#utility.yul\":2541:2854   */\n    tag_35:\n        /* \"#utility.yul\":2654:2658   */\n      0x00\n        /* \"#utility.yul\":2692:2694   */\n      0x20\n        /* \"#utility.yul\":2681:2690   */\n      dup3\n        /* \"#utility.yul\":2677:2695   */\n      add\n        /* \"#utility.yul\":2669:2695   */\n      swap1\n      pop\n        /* \"#utility.yul\":2741:2750   */\n      dup2\n        /* \"#utility.yul\":2735:2739   */\n      dup2\n        /* \"#utility.yul\":2731:2751   */\n      sub\n        /* \"#utility.yul\":2727:2728   */\n      0x00\n        /* \"#utility.yul\":2716:2725   */\n      dup4\n        /* \"#utility.yul\":2712:2729   */\n      add\n        /* \"#utility.yul\":2705:2752   */\n      mstore\n        /* \"#utility.yul\":2769:2847   */\n      tag_376\n        /* \"#utility.yul\":2842:2846   */\n      dup2\n        /* \"#utility.yul\":2833:2839   */\n      dup5\n        /* \"#utility.yul\":2769:2847   */\n      tag_315\n      jump\t// in\n    tag_376:\n        /* \"#utility.yul\":2761:2847   */\n      swap1\n      pop\n        /* \"#utility.yul\":2541:2854   */\n      swap3\n      swap2\n      pop\n      pop\n      jump\t// out\n        /* \"#utility.yul\":2860:2937   */\n    tag_316:\n        /* \"#utility.yul\":2897:2904   */\n      0x00\n        /* \"#utility.yul\":2926:2931   */\n      dup2\n        /* \"#utility.yul\":2915:2931   */\n      swap1\n      pop\n        /* \"#utility.yul\":2860:2937   */\n      swap2\n      swap1\n      pop\n      jump\t// out\n        /* \"#utility.yul\":2943:3065   */\n    tag_317:\n        /* \"#utility.yul\":3016:3040   */\n      tag_379\n        /* \"#utility.yul\":3034:3039   */\n      dup2\n        /* \"#utility.yul\":3016:3040   */\n      tag_316\n      jump\t// in\n    tag_379:\n        /* \"#utility.yul\":3009:3014   */\n      dup2\n        /* \"#utility.yul\":3006:3041   */\n      eq\n        /* \"#utility.yul\":2996:3059   */\n      tag_380\n      jumpi\n        /* \"#utility.yul\":3055:3056   */\n      0x00\n        /* \"#utility.yul\":3052:3053   */\n      dup1\n        /* \"#utility.yul\":3045:3057   */\n      revert\n        /* \"#utility.yul\":2996:3059   */\n    tag_380:\n        /* \"#utility.yul\":2943:3065   */\n      pop\n      jump\t// out\n        /* \"#utility.yul\":3071:3210   */\n    tag_318:\n        /* \"#utility.yul\":3117:3122   */\n      0x00\n        /* \"#utility.yul\":3155:3161   */\n      dup2\n        /* \"#utility.yul\":3142:3162   */\n      calldataload\n        /* \"#utility.yul\":3133:3162   */\n      swap1\n      pop\n        /* \"#utility.yul\":3171:3204   */\n      tag_382\n        /* \"#utility.yul\":3198:3203   */\n      dup2\n        /* \"#utility.yul\":3171:3204   */\n      tag_317\n      jump\t// in\n    tag_382:\n        /* \"#utility.yul\":3071:3210   */\n      swap3\n      swap2\n      pop\n      pop\n      jump\t// out\n        /* \"#utility.yul\":3216:3545   */\n    tag_38:\n        /* \"#utility.yul\":3275:3281   */\n      0x00\n        /* \"#utility.yul\":3324:3326   */\n      0x20\n        /* \"#utility.yul\":3312:3321   */\n      dup3\n        /* \"#utility.yul\":3303:3310   */\n      dup5\n        /* \"#utility.yul\":3299:3322   */\n      sub\n        /* \"#utility.yul\":3295:3327   */\n      slt\n        /* \"#utility.yul\":3292:3411   */\n      iszero\n      tag_384\n      jumpi\n        /* \"#utility.yul\":3330:3409   */\n      tag_385\n      tag_304\n      jump\t// in\n    tag_385:\n        /* \"#utility.yul\":3292:3411   */\n    tag_384:\n        /* \"#utility.yul\":3450:3451   */\n      0x00\n        /* \"#utility.yul\":3475:3528   */\n      tag_386\n        /* \"#utility.yul\":3520:3527   */\n      dup5\n        /* \"#utility.yul\":3511:3517   */\n      dup3\n        /* \"#utility.yul\":3500:3509   */\n      dup6\n        /* \"#utility.yul\":3496:3518   */\n      add\n        /* \"#utility.yul\":3475:3528   */\n      tag_318\n      jump\t// in\n    tag_386:\n        /* \"#utility.yul\":3465:3528   */\n      swap2\n      pop\n        /* \"#utility.yul\":3421:3538   */\n      pop\n        /* \"#utility.yul\":3216:3545   */\n      swap3\n      swap2\n      pop\n      pop\n      jump\t// out\n        /* \"#utility.yul\":3551:3677   */\n    tag_319:\n        /* \"#utility.yul\":3588:3595   */\n      0x00\n        /* \"#utility.yul\":3628:3670   */\n      0xffffffffffffffffffffffffffffffffffffffff\n        /* \"#utility.yul\":3621:3626   */\n      dup3\n        /* \"#utility.yul\":3617:3671   */\n      and\n        /* \"#utility.yul\":3606:3671   */\n      swap1\n      pop\n        /* \"#utility.yul\":3551:3677   */\n      swap2\n      swap1\n      pop\n      jump\t// out\n        /* \"#utility.yul\":3683:3779   */\n    tag_320:\n        /* \"#utility.yul\":3720:3727   */\n      0x00\n        /* \"#utility.yul\":3749:3773   */\n      tag_389\n        /* \"#utility.yul\":3767:3772   */\n      dup3\n        /* \"#utility.yul\":3749:3773   */\n      tag_319\n      jump\t// in\n    tag_389:\n        /* \"#utility.yul\":3738:3773   */\n      swap1\n      pop\n        /* \"#utility.yul\":3683:3779   */\n      swap2\n      swap1\n      pop\n      jump\t// out\n        /* \"#utility.yul\":3785:3903   */\n    tag_321:\n        /* \"#utility.yul\":3872:3896   */\n      tag_391\n        /* \"#utility.yul\":3890:3895   */\n      dup2\n        /* \"#utility.yul\":3872:3896   */\n      tag_320\n      jump\t// in\n    tag_391:\n        /* \"#utility.yul\":3867:3870   */\n      dup3\n        /* \"#utility.yul\":3860:3897   */\n      mstore\n        /* \"#utility.yul\":3785:3903   */\n      pop\n      pop\n      jump\t// out\n        /* \"#utility.yul\":3909:4131   */\n    tag_41:\n        /* \"#utility.yul\":4002:4006   */\n      0x00\n        /* \"#utility.yul\":4040:4042   */\n      0x20\n        /* \"#utility.yul\":4029:4038   */\n      dup3\n        /* \"#utility.yul\":4025:4043   */\n      add\n        /* \"#utility.yul\":4017:4043   */\n      swap1\n      pop\n        /* \"#utility.yul\":4053:4124   */\n      tag_393\n        /* \"#utility.yul\":4121:4122   */\n      0x00\n        /* \"#utility.yul\":4110:4119   */\n      dup4\n        /* \"#utility.yul\":4106:4123   */\n      add\n        /* \"#utility.yul\":4097:4103   */\n      dup5\n        /* \"#utility.yul\":4053:4124   */\n      tag_321\n      jump\t// in\n    tag_393:\n        /* \"#utility.yul\":3909:4131   */\n      swap3\n      swap2\n      pop\n      pop\n      jump\t// out\n        /* \"#utility.yul\":4137:4259   */\n    tag_322:\n        /* \"#utility.yul\":4210:4234   */\n      tag_395\n        /* \"#utility.yul\":4228:4233   */\n      dup2\n        /* \"#utility.yul\":4210:4234   */\n      tag_320\n      jump\t// in\n    tag_395:\n        /* \"#utility.yul\":4203:4208   */\n      dup2\n        /* \"#utility.yul\":4200:4235   */\n      eq\n        /* \"#utility.yul\":4190:4253   */\n      tag_396\n      jumpi\n        /* \"#utility.yul\":4249:4250   */\n      0x00\n        /* \"#utility.yul\":4246:4247   */\n      dup1\n        /* \"#utility.yul\":4239:4251   */\n      revert\n        /* \"#utility.yul\":4190:4253   */\n    tag_396:\n        /* \"#utility.yul\":4137:4259   */\n      pop\n      jump\t// out\n        /* \"#utility.yul\":4265:4404   */\n    tag_323:\n        /* \"#utility.yul\":4311:4316   */\n      0x00\n        /* \"#utility.yul\":4349:4355   */\n      dup2\n        /* \"#utility.yul\":4336:4356   */\n      calldataload\n        /* \"#utility.yul\":4327:4356   */\n      swap1\n      pop\n        /* \"#utility.yul\":4365:4398   */\n      tag_398\n        /* \"#utility.yul\":4392:4397   */\n      dup2\n        /* \"#utility.yul\":4365:4398   */\n      tag_322\n      jump\t// in\n    tag_398:\n        /* \"#utility.yul\":4265:4404   */\n      swap3\n      swap2\n      pop\n      pop\n      jump\t// out\n        /* \"#utility.yul\":4410:4884   */\n    tag_44:\n        /* \"#utility.yul\":4478:4484   */\n      0x00\n        /* \"#utility.yul\":4486:4492   */\n      dup1\n        /* \"#utility.yul\":4535:4537   */\n      0x40\n        /* \"#utility.yul\":4523:4532   */\n      dup4\n        /* \"#utility.yul\":4514:4521   */\n      dup6\n        /* \"#utility.yul\":4510:4533   */\n      sub\n        /* \"#utility.yul\":4506:4538   */\n      slt\n        /* \"#utility.yul\":4503:4622   */\n      iszero\n      tag_400\n      jumpi\n        /* \"#utility.yul\":4541:4620   */\n      tag_401\n      tag_304\n      jump\t// in\n    tag_401:\n        /* \"#utility.yul\":4503:4622   */\n    tag_400:\n        /* \"#utility.yul\":4661:4662   */\n      0x00\n        /* \"#utility.yul\":4686:4739   */\n      tag_402\n        /* \"#utility.yul\":4731:4738   */\n      dup6\n        /* \"#utility.yul\":4722:4728   */\n      dup3\n        /* \"#utility.yul\":4711:4720   */\n      dup7\n        /* \"#utility.yul\":4707:4729   */\n      add\n        /* \"#utility.yul\":4686:4739   */\n      tag_323\n      jump\t// in\n    tag_402:\n        /* \"#utility.yul\":4676:4739   */\n      swap3\n      pop\n        /* \"#utility.yul\":4632:4749   */\n      pop\n        /* \"#utility.yul\":4788:4790   */\n      0x20\n        /* \"#utility.yul\":4814:4867   */\n      tag_403\n        /* \"#utility.yul\":4859:4866   */\n      dup6\n        /* \"#utility.yul\":4850:4856   */\n      dup3\n        /* \"#utility.yul\":4839:4848   */\n      dup7\n        /* \"#utility.yul\":4835:4857   */\n      add\n        /* \"#utility.yul\":4814:4867   */\n      tag_318\n      jump\t// in\n    tag_403:\n        /* \"#utility.yul\":4804:4867   */\n      swap2\n      pop\n        /* \"#utility.yul\":4759:4877   */\n      pop\n        /* \"#utility.yul\":4410:4884   */\n      swap3\n      pop\n      swap3\n      swap1\n      pop\n      jump\t// out\n        /* \"#utility.yul\":4890:5008   */\n    tag_324:\n        /* \"#utility.yul\":4977:5001   */\n      tag_405\n        /* \"#utility.yul\":4995:5000   */\n      dup2\n        /* \"#utility.yul\":4977:5001   */\n      tag_316\n      jump\t// in\n    tag_405:\n        /* \"#utility.yul\":4972:4975   */\n      dup3\n        /* \"#utility.yul\":4965:5002   */\n      mstore\n        /* \"#utility.yul\":4890:5008   */\n      pop\n      pop\n      jump\t// out\n        /* \"#utility.yul\":5014:5236   */\n    tag_49:\n        /* \"#utility.yul\":5107:5111   */\n      0x00\n        /* \"#utility.yul\":5145:5147   */\n      0x20\n        /* \"#utility.yul\":5134:5143   */\n      dup3\n        /* \"#utility.yul\":5130:5148   */\n      add\n        /* \"#utility.yul\":5122:5148   */\n      swap1\n      pop\n        /* \"#utility.yul\":5158:5229   */\n      tag_407\n        /* \"#utility.yul\":5226:5227   */\n      0x00\n        /* \"#utility.yul\":5215:5224   */\n      dup4\n        /* \"#utility.yul\":5211:5228   */\n      add\n        /* \"#utility.yul\":5202:5208   */\n      dup5\n        /* \"#utility.yul\":5158:5229   */\n      tag_324\n      jump\t// in\n    tag_407:\n        /* \"#utility.yul\":5014:5236   */\n      swap3\n      swap2\n      pop\n      pop\n      jump\t// out\n        /* \"#utility.yul\":5242:5861   */\n    tag_52:\n        /* \"#utility.yul\":5319:5325   */\n      0x00\n        /* \"#utility.yul\":5327:5333   */\n      dup1\n        /* \"#utility.yul\":5335:5341   */\n      0x00\n        /* \"#utility.yul\":5384:5386   */\n      0x60\n        /* \"#utility.yul\":5372:5381   */\n      dup5\n        /* \"#utility.yul\":5363:5370   */\n      dup7\n        /* \"#utility.yul\":5359:5382   */\n      sub\n        /* \"#utility.yul\":5355:5387   */\n      slt\n        /* \"#utility.yul\":5352:5471   */\n      iszero\n      tag_409\n      jumpi\n        /* \"#utility.yul\":5390:5469   */\n      tag_410\n      tag_304\n      jump\t// in\n    tag_410:\n        /* \"#utility.yul\":5352:5471   */\n    tag_409:\n        /* \"#utility.yul\":5510:5511   */\n      0x00\n        /* \"#utility.yul\":5535:5588   */\n      tag_411\n        /* \"#utility.yul\":5580:5587   */\n      dup7\n        /* \"#utility.yul\":5571:5577   */\n      dup3\n        /* \"#utility.yul\":5560:5569   */\n      dup8\n        /* \"#utility.yul\":5556:5578   */\n      add\n        /* \"#utility.yul\":5535:5588   */\n      tag_323\n      jump\t// in\n    tag_411:\n        /* \"#utility.yul\":5525:5588   */\n      swap4\n      pop\n        /* \"#utility.yul\":5481:5598   */\n      pop\n        /* \"#utility.yul\":5637:5639   */\n      0x20\n        /* \"#utility.yul\":5663:5716   */\n      tag_412\n        /* \"#utility.yul\":5708:5715   */\n      dup7\n        /* \"#utility.yul\":5699:5705   */\n      dup3\n        /* \"#utility.yul\":5688:5697   */\n      dup8\n        /* \"#utility.yul\":5684:5706   */\n      add\n        /* \"#utility.yul\":5663:5716   */\n      tag_323\n      jump\t// in\n    tag_412:\n        /* \"#utility.yul\":5653:5716   */\n      swap3\n      pop\n        /* \"#utility.yul\":5608:5726   */\n      pop\n        /* \"#utility.yul\":5765:5767   */\n      0x40\n        /* \"#utility.yul\":5791:5844   */\n      tag_413\n        /* \"#utility.yul\":5836:5843   */\n      dup7\n        /* \"#utility.yul\":5827:5833   */\n      dup3\n        /* \"#utility.yul\":5816:5825   */\n      dup8\n        /* \"#utility.yul\":5812:5834   */\n      add\n        /* \"#utility.yul\":5791:5844   */\n      tag_318\n      jump\t// in\n    tag_413:\n        /* \"#utility.yul\":5781:5844   */\n      swap2\n      pop\n        /* \"#utility.yul\":5736:5854   */\n      pop\n        /* \"#utility.yul\":5242:5861   */\n      swap3\n      pop\n      swap3\n      pop\n      swap3\n      jump\t// out\n        /* \"#utility.yul\":5867:6196   */\n    tag_67:\n        /* \"#utility.yul\":5926:5932   */\n      0x00\n        /* \"#utility.yul\":5975:5977   */\n      0x20\n        /* \"#utility.yul\":5963:5972   */\n      dup3\n        /* \"#utility.yul\":5954:5961   */\n      dup5\n        /* \"#utility.yul\":5950:5973   */\n      sub\n        /* \"#utility.yul\":5946:5978   */\n      slt\n        /* \"#utility.yul\":5943:6062   */\n      iszero\n      tag_415\n      jumpi\n        /* \"#utility.yul\":5981:6060   */\n      tag_416\n      tag_304\n      jump\t// in\n    tag_416:\n        /* \"#utility.yul\":5943:6062   */\n    tag_415:\n        /* \"#utility.yul\":6101:6102   */\n      0x00\n        /* \"#utility.yul\":6126:6179   */\n      tag_417\n        /* \"#utility.yul\":6171:6178   */\n      dup5\n        /* \"#utility.yul\":6162:6168   */\n      dup3\n        /* \"#utility.yul\":6151:6160   */\n      dup6\n        /* \"#utility.yul\":6147:6169   */\n      add\n        /* \"#utility.yul\":6126:6179   */\n      tag_323\n      jump\t// in\n    tag_417:\n        /* \"#utility.yul\":6116:6179   */\n      swap2\n      pop\n        /* \"#utility.yul\":6072:6189   */\n      pop\n        /* \"#utility.yul\":5867:6196   */\n      swap3\n      swap2\n      pop\n      pop\n      jump\t// out\n        /* \"#utility.yul\":6202:6318   */\n    tag_325:\n        /* \"#utility.yul\":6272:6293   */\n      tag_419\n        /* \"#utility.yul\":6287:6292   */\n      dup2\n        /* \"#utility.yul\":6272:6293   */\n      tag_309\n      jump\t// in\n    tag_419:\n        /* \"#utility.yul\":6265:6270   */\n      dup2\n        /* \"#utility.yul\":6262:6294   */\n      eq\n        /* \"#utility.yul\":6252:6312   */\n      tag_420\n      jumpi\n        /* \"#utility.yul\":6308:6309   */\n      0x00\n        /* \"#utility.yul\":6305:6306   */\n      dup1\n        /* \"#utility.yul\":6298:6310   */\n      revert\n        /* \"#utility.yul\":6252:6312   */\n    tag_420:\n        /* \"#utility.yul\":6202:6318   */\n      pop\n      jump\t// out\n        /* \"#utility.yul\":6324:6457   */\n    tag_326:\n        /* \"#utility.yul\":6367:6372   */\n      0x00\n        /* \"#utility.yul\":6405:6411   */\n      dup2\n        /* \"#utility.yul\":6392:6412   */\n      calldataload\n        /* \"#utility.yul\":6383:6412   */\n      swap1\n      pop\n        /* \"#utility.yul\":6421:6451   */\n      tag_422\n        /* \"#utility.yul\":6445:6450   */\n      dup2\n        /* \"#utility.yul\":6421:6451   */\n      tag_325\n      jump\t// in\n    tag_422:\n        /* \"#utility.yul\":6324:6457   */\n      swap3\n      swap2\n      pop\n      pop\n      jump\t// out\n        /* \"#utility.yul\":6463:6931   */\n    tag_75:\n        /* \"#utility.yul\":6528:6534   */\n      0x00\n        /* \"#utility.yul\":6536:6542   */\n      dup1\n        /* \"#utility.yul\":6585:6587   */\n      0x40\n        /* \"#utility.yul\":6573:6582   */\n      dup4\n        /* \"#utility.yul\":6564:6571   */\n      dup6\n        /* \"#utility.yul\":6560:6583   */\n      sub\n        /* \"#utility.yul\":6556:6588   */\n      slt\n        /* \"#utility.yul\":6553:6672   */\n      iszero\n      tag_424\n      jumpi\n        /* \"#utility.yul\":6591:6670   */\n      tag_425\n      tag_304\n      jump\t// in\n    tag_425:\n        /* \"#utility.yul\":6553:6672   */\n    tag_424:\n        /* \"#utility.yul\":6711:6712   */\n      0x00\n        /* \"#utility.yul\":6736:6789   */\n      tag_426\n        /* \"#utility.yul\":6781:6788   */\n      dup6\n        /* \"#utility.yul\":6772:6778   */\n      dup3\n        /* \"#utility.yul\":6761:6770   */\n      dup7\n        /* \"#utility.yul\":6757:6779   */\n      add\n        /* \"#utility.yul\":6736:6789   */\n      tag_323\n      jump\t// in\n    tag_426:\n        /* \"#utility.yul\":6726:6789   */\n      swap3\n      pop\n        /* \"#utility.yul\":6682:6799   */\n      pop\n        /* \"#utility.yul\":6838:6840   */\n      0x20\n        /* \"#utility.yul\":6864:6914   */\n      tag_427\n        /* \"#utility.yul\":6906:6913   */\n      dup6\n        /* \"#utility.yul\":6897:6903   */\n      dup3\n        /* \"#utility.yul\":6886:6895   */\n      dup7\n        /* \"#utility.yul\":6882:6904   */\n      add\n        /* \"#utility.yul\":6864:6914   */\n      tag_326\n      jump\t// in\n    tag_427:\n        /* \"#utility.yul\":6854:6914   */\n      swap2\n      pop\n        /* \"#utility.yul\":6809:6924   */\n      pop\n        /* \"#utility.yul\":6463:6931   */\n      swap3\n      pop\n      swap3\n      swap1\n      pop\n      jump\t// out\n        /* \"#utility.yul\":6937:7054   */\n    tag_327:\n        /* \"#utility.yul\":7046:7047   */\n      0x00\n        /* \"#utility.yul\":7043:7044   */\n      dup1\n        /* \"#utility.yul\":7036:7048   */\n      revert\n        /* \"#utility.yul\":7060:7177   */\n    tag_328:\n        /* \"#utility.yul\":7169:7170   */\n      0x00\n        /* \"#utility.yul\":7166:7167   */\n      dup1\n        /* \"#utility.yul\":7159:7171   */\n      revert\n        /* \"#utility.yul\":7183:7363   */\n    tag_290:\n        /* \"#utility.yul\":7231:7308   */\n      0x4e487b7100000000000000000000000000000000000000000000000000000000\n        /* \"#utility.yul\":7228:7229   */\n      0x00\n        /* \"#utility.yul\":7221:7309   */\n      mstore\n        /* \"#utility.yul\":7328:7332   */\n      0x41\n        /* \"#utility.yul\":7325:7326   */\n      0x04\n        /* \"#utility.yul\":7318:7333   */\n      mstore\n        /* \"#utility.yul\":7352:7356   */\n      0x24\n        /* \"#utility.yul\":7349:7350   */\n      0x00\n        /* \"#utility.yul\":7342:7357   */\n      revert\n        /* \"#utility.yul\":7369:7650   */\n    tag_329:\n        /* \"#utility.yul\":7452:7479   */\n      tag_432\n        /* \"#utility.yul\":7474:7478   */\n      dup3\n        /* \"#utility.yul\":7452:7479   */\n      tag_314\n      jump\t// in\n    tag_432:\n        /* \"#utility.yul\":7444:7450   */\n      dup2\n        /* \"#utility.yul\":7440:7480   */\n      add\n        /* \"#utility.yul\":7582:7588   */\n      dup2\n        /* \"#utility.yul\":7570:7580   */\n      dup2\n        /* \"#utility.yul\":7567:7589   */\n      lt\n        /* \"#utility.yul\":7546:7564   */\n      0xffffffffffffffff\n        /* \"#utility.yul\":7534:7544   */\n      dup3\n        /* \"#utility.yul\":7531:7565   */\n      gt\n        /* \"#utility.yul\":7528:7590   */\n      or\n        /* \"#utility.yul\":7525:7613   */\n      iszero\n      tag_433\n      jumpi\n        /* \"#utility.yul\":7593:7611   */\n      tag_434\n      tag_290\n      jump\t// in\n    tag_434:\n        /* \"#utility.yul\":7525:7613   */\n    tag_433:\n        /* \"#utility.yul\":7633:7643   */\n      dup1\n        /* \"#utility.yul\":7629:7631   */\n      0x40\n        /* \"#utility.yul\":7622:7644   */\n      mstore\n        /* \"#utility.yul\":7412:7650   */\n      pop\n        /* \"#utility.yul\":7369:7650   */\n      pop\n      pop\n      jump\t// out\n        /* \"#utility.yul\":7656:7785   */\n    tag_330:\n        /* \"#utility.yul\":7690:7696   */\n      0x00\n        /* \"#utility.yul\":7717:7737   */\n      tag_436\n      tag_303\n      jump\t// in\n    tag_436:\n        /* \"#utility.yul\":7707:7737   */\n      swap1\n      pop\n        /* \"#utility.yul\":7746:7779   */\n      tag_437\n        /* \"#utility.yul\":7774:7778   */\n      dup3\n        /* \"#utility.yul\":7766:7772   */\n      dup3\n        /* \"#utility.yul\":7746:7779   */\n      tag_329\n      jump\t// in\n    tag_437:\n        /* \"#utility.yul\":7656:7785   */\n      swap2\n      swap1\n      pop\n      jump\t// out\n        /* \"#utility.yul\":7791:8098   */\n    tag_331:\n        /* \"#utility.yul\":7852:7856   */\n      0x00\n        /* \"#utility.yul\":7942:7960   */\n      0xffffffffffffffff\n        /* \"#utility.yul\":7934:7940   */\n      dup3\n        /* \"#utility.yul\":7931:7961   */\n      gt\n        /* \"#utility.yul\":7928:7984   */\n      iszero\n      tag_439\n      jumpi\n        /* \"#utility.yul\":7964:7982   */\n      tag_440\n      tag_290\n      jump\t// in\n    tag_440:\n        /* \"#utility.yul\":7928:7984   */\n    tag_439:\n        /* \"#utility.yul\":8002:8031   */\n      tag_441\n        /* \"#utility.yul\":8024:8030   */\n      dup3\n        /* \"#utility.yul\":8002:8031   */\n      tag_314\n      jump\t// in\n    tag_441:\n        /* \"#utility.yul\":7994:8031   */\n      swap1\n      pop\n        /* \"#utility.yul\":8086:8090   */\n      0x20\n        /* \"#utility.yul\":8080:8084   */\n      dup2\n        /* \"#utility.yul\":8076:8091   */\n      add\n        /* \"#utility.yul\":8068:8091   */\n      swap1\n      pop\n        /* \"#utility.yul\":7791:8098   */\n      swap2\n      swap1\n      pop\n      jump\t// out\n        /* \"#utility.yul\":8104:8250   */\n    tag_332:\n        /* \"#utility.yul\":8201:8207   */\n      dup3\n        /* \"#utility.yul\":8196:8199   */\n      dup2\n        /* \"#utility.yul\":8191:8194   */\n      dup4\n        /* \"#utility.yul\":8178:8208   */\n      calldatacopy\n        /* \"#utility.yul\":8242:8243   */\n      0x00\n        /* \"#utility.yul\":8233:8239   */\n      dup4\n        /* \"#utility.yul\":8228:8231   */\n      dup4\n        /* \"#utility.yul\":8224:8240   */\n      add\n        /* \"#utility.yul\":8217:8244   */\n      mstore\n        /* \"#utility.yul\":8104:8250   */\n      pop\n      pop\n      pop\n      jump\t// out\n        /* \"#utility.yul\":8256:8679   */\n    tag_333:\n        /* \"#utility.yul\":8333:8338   */\n      0x00\n        /* \"#utility.yul\":8358:8423   */\n      tag_444\n        /* \"#utility.yul\":8374:8422   */\n      tag_445\n        /* \"#utility.yul\":8415:8421   */\n      dup5\n        /* \"#utility.yul\":8374:8422   */\n      tag_331\n      jump\t// in\n    tag_445:\n        /* \"#utility.yul\":8358:8423   */\n      tag_330\n      jump\t// in\n    tag_444:\n        /* \"#utility.yul\":8349:8423   */\n      swap1\n      pop\n        /* \"#utility.yul\":8446:8452   */\n      dup3\n        /* \"#utility.yul\":8439:8444   */\n      dup2\n        /* \"#utility.yul\":8432:8453   */\n      mstore\n        /* \"#utility.yul\":8484:8488   */\n      0x20\n        /* \"#utility.yul\":8477:8482   */\n      dup2\n        /* \"#utility.yul\":8473:8489   */\n      add\n        /* \"#utility.yul\":8522:8525   */\n      dup5\n        /* \"#utility.yul\":8513:8519   */\n      dup5\n        /* \"#utility.yul\":8508:8511   */\n      dup5\n        /* \"#utility.yul\":8504:8520   */\n      add\n        /* \"#utility.yul\":8501:8526   */\n      gt\n        /* \"#utility.yul\":8498:8610   */\n      iszero\n      tag_446\n      jumpi\n        /* \"#utility.yul\":8529:8608   */\n      tag_447\n      tag_328\n      jump\t// in\n    tag_447:\n        /* \"#utility.yul\":8498:8610   */\n    tag_446:\n        /* \"#utility.yul\":8619:8673   */\n      tag_448\n        /* \"#utility.yul\":8666:8672   */\n      dup5\n        /* \"#utility.yul\":8661:8664   */\n      dup3\n        /* \"#utility.yul\":8656:8659   */\n      dup6\n        /* \"#utility.yul\":8619:8673   */\n      tag_332\n      jump\t// in\n    tag_448:\n        /* \"#utility.yul\":8339:8679   */\n      pop\n        /* \"#utility.yul\":8256:8679   */\n      swap4\n      swap3\n      pop\n      pop\n      pop\n      jump\t// out\n        /* \"#utility.yul\":8698:9036   */\n    tag_334:\n        /* \"#utility.yul\":8753:8758   */\n      0x00\n        /* \"#utility.yul\":8802:8805   */\n      dup3\n        /* \"#utility.yul\":8795:8799   */\n      0x1f\n        /* \"#utility.yul\":8787:8793   */\n      dup4\n        /* \"#utility.yul\":8783:8800   */\n      add\n        /* \"#utility.yul\":8779:8806   */\n      slt\n        /* \"#utility.yul\":8769:8891   */\n      tag_450\n      jumpi\n        /* \"#utility.yul\":8810:8889   */\n      tag_451\n      tag_327\n      jump\t// in\n    tag_451:\n        /* \"#utility.yul\":8769:8891   */\n    tag_450:\n        /* \"#utility.yul\":8927:8933   */\n      dup2\n        /* \"#utility.yul\":8914:8934   */\n      calldataload\n        /* \"#utility.yul\":8952:9030   */\n      tag_452\n        /* \"#utility.yul\":9026:9029   */\n      dup5\n        /* \"#utility.yul\":9018:9024   */\n      dup3\n        /* \"#utility.yul\":9011:9015   */\n      0x20\n        /* \"#utility.yul\":9003:9009   */\n      dup7\n        /* \"#utility.yul\":8999:9016   */\n      add\n        /* \"#utility.yul\":8952:9030   */\n      tag_333\n      jump\t// in\n    tag_452:\n        /* \"#utility.yul\":8943:9030   */\n      swap2\n      pop\n        /* \"#utility.yul\":8759:9036   */\n      pop\n        /* \"#utility.yul\":8698:9036   */\n      swap3\n      swap2\n      pop\n      pop\n      jump\t// out\n        /* \"#utility.yul\":9042:9985   */\n    tag_79:\n        /* \"#utility.yul\":9137:9143   */\n      0x00\n        /* \"#utility.yul\":9145:9151   */\n      dup1\n        /* \"#utility.yul\":9153:9159   */\n      0x00\n        /* \"#utility.yul\":9161:9167   */\n      dup1\n        /* \"#utility.yul\":9210:9213   */\n      0x80\n        /* \"#utility.yul\":9198:9207   */\n      dup6\n        /* \"#utility.yul\":9189:9196   */\n      dup8\n        /* \"#utility.yul\":9185:9208   */\n      sub\n        /* \"#utility.yul\":9181:9214   */\n      slt\n        /* \"#utility.yul\":9178:9298   */\n      iszero\n      tag_454\n      jumpi\n        /* \"#utility.yul\":9217:9296   */\n      tag_455\n      tag_304\n      jump\t// in\n    tag_455:\n        /* \"#utility.yul\":9178:9298   */\n    tag_454:\n        /* \"#utility.yul\":9337:9338   */\n      0x00\n        /* \"#utility.yul\":9362:9415   */\n      tag_456\n        /* \"#utility.yul\":9407:9414   */\n      dup8\n        /* \"#utility.yul\":9398:9404   */\n      dup3\n        /* \"#utility.yul\":9387:9396   */\n      dup9\n        /* \"#utility.yul\":9383:9405   */\n      add\n        /* \"#utility.yul\":9362:9415   */\n      tag_323\n      jump\t// in\n    tag_456:\n        /* \"#utility.yul\":9352:9415   */\n      swap5\n      pop\n        /* \"#utility.yul\":9308:9425   */\n      pop\n        /* \"#utility.yul\":9464:9466   */\n      0x20\n        /* \"#utility.yul\":9490:9543   */\n      tag_457\n        /* \"#utility.yul\":9535:9542   */\n      dup8\n        /* \"#utility.yul\":9526:9532   */\n      dup3\n        /* \"#utility.yul\":9515:9524   */\n      dup9\n        /* \"#utility.yul\":9511:9533   */\n      add\n        /* \"#utility.yul\":9490:9543   */\n      tag_323\n      jump\t// in\n    tag_457:\n        /* \"#utility.yul\":9480:9543   */\n      swap4\n      pop\n        /* \"#utility.yul\":9435:9553   */\n      pop\n        /* \"#utility.yul\":9592:9594   */\n      0x40\n        /* \"#utility.yul\":9618:9671   */\n      tag_458\n        /* \"#utility.yul\":9663:9670   */\n      dup8\n        /* \"#utility.yul\":9654:9660   */\n      dup3\n        /* \"#utility.yul\":9643:9652   */\n      dup9\n        /* \"#utility.yul\":9639:9661   */\n      add\n        /* \"#utility.yul\":9618:9671   */\n      tag_318\n      jump\t// in\n    tag_458:\n        /* \"#utility.yul\":9608:9671   */\n      swap3\n      pop\n        /* \"#utility.yul\":9563:9681   */\n      pop\n        /* \"#utility.yul\":9748:9750   */\n      0x60\n        /* \"#utility.yul\":9737:9746   */\n      dup6\n        /* \"#utility.yul\":9733:9751   */\n      add\n        /* \"#utility.yul\":9720:9752   */\n      calldataload\n        /* \"#utility.yul\":9779:9797   */\n      0xffffffffffffffff\n        /* \"#utility.yul\":9771:9777   */\n      dup2\n        /* \"#utility.yul\":9768:9798   */\n      gt\n        /* \"#utility.yul\":9765:9882   */\n      iszero\n      tag_459\n      jumpi\n        /* \"#utility.yul\":9801:9880   */\n      tag_460\n      tag_305\n      jump\t// in\n    tag_460:\n        /* \"#utility.yul\":9765:9882   */\n    tag_459:\n        /* \"#utility.yul\":9906:9968   */\n      tag_461\n        /* \"#utility.yul\":9960:9967   */\n      dup8\n        /* \"#utility.yul\":9951:9957   */\n      dup3\n        /* \"#utility.yul\":9940:9949   */\n      dup9\n        /* \"#utility.yul\":9936:9958   */\n      add\n        /* \"#utility.yul\":9906:9968   */\n      tag_334\n      jump\t// in\n    tag_461:\n        /* \"#utility.yul\":9896:9968   */\n      swap2\n      pop\n        /* \"#utility.yul\":9691:9978   */\n      pop\n        /* \"#utility.yul\":9042:9985   */\n      swap3\n      swap6\n      swap2\n      swap5\n      pop\n      swap3\n      pop\n      jump\t// out\n        /* \"#utility.yul\":9991:10465   */\n    tag_101:\n        /* \"#utility.yul\":10059:10065   */\n      0x00\n        /* \"#utility.yul\":10067:10073   */\n      dup1\n        /* \"#utility.yul\":10116:10118   */\n      0x40\n        /* \"#utility.yul\":10104:10113   */\n      dup4\n        /* \"#utility.yul\":10095:10102   */\n      dup6\n        /* \"#utility.yul\":10091:10114   */\n      sub\n        /* \"#utility.yul\":10087:10119   */\n      slt\n        /* \"#utility.yul\":10084:10203   */\n      iszero\n      tag_463\n      jumpi\n        /* \"#utility.yul\":10122:10201   */\n      tag_464\n      tag_304\n      jump\t// in\n    tag_464:\n        /* \"#utility.yul\":10084:10203   */\n    tag_463:\n        /* \"#utility.yul\":10242:10243   */\n      0x00\n        /* \"#utility.yul\":10267:10320   */\n      tag_465\n        /* \"#utility.yul\":10312:10319   */\n      dup6\n        /* \"#utility.yul\":10303:10309   */\n      dup3\n        /* \"#utility.yul\":10292:10301   */\n      dup7\n        /* \"#utility.yul\":10288:10310   */\n      add\n        /* \"#utility.yul\":10267:10320   */\n      tag_323\n      jump\t// in\n    tag_465:\n        /* \"#utility.yul\":10257:10320   */\n      swap3\n      pop\n        /* \"#utility.yul\":10213:10330   */\n      pop\n        /* \"#utility.yul\":10369:10371   */\n      0x20\n        /* \"#utility.yul\":10395:10448   */\n      tag_466\n        /* \"#utility.yul\":10440:10447   */\n      dup6\n        /* \"#utility.yul\":10431:10437   */\n      dup3\n        /* \"#utility.yul\":10420:10429   */\n      dup7\n        /* \"#utility.yul\":10416:10438   */\n      add\n        /* \"#utility.yul\":10395:10448   */\n      tag_323\n      jump\t// in\n    tag_466:\n        /* \"#utility.yul\":10385:10448   */\n      swap2\n      pop\n        /* \"#utility.yul\":10340:10458   */\n      pop\n        /* \"#utility.yul\":9991:10465   */\n      swap3\n      pop\n      swap3\n      swap1\n      pop\n      jump\t// out\n        /* \"#utility.yul\":10471:10651   */\n    tag_335:\n        /* \"#utility.yul\":10519:10596   */\n      0x4e487b7100000000000000000000000000000000000000000000000000000000\n        /* \"#utility.yul\":10516:10517   */\n      0x00\n        /* \"#utility.yul\":10509:10597   */\n      mstore\n        /* \"#utility.yul\":10616:10620   */\n      0x22\n        /* \"#utility.yul\":10613:10614   */\n      0x04\n        /* \"#utility.yul\":10606:10621   */\n      mstore\n        /* \"#utility.yul\":10640:10644   */\n      0x24\n        /* \"#utility.yul\":10637:10638   */\n      0x00\n        /* \"#utility.yul\":10630:10645   */\n      revert\n        /* \"#utility.yul\":10657:10977   */\n    tag_116:\n        /* \"#utility.yul\":10701:10707   */\n      0x00\n        /* \"#utility.yul\":10738:10739   */\n      0x02\n        /* \"#utility.yul\":10732:10736   */\n      dup3\n        /* \"#utility.yul\":10728:10740   */\n      div\n        /* \"#utility.yul\":10718:10740   */\n      swap1\n      pop\n        /* \"#utility.yul\":10785:10786   */\n      0x01\n        /* \"#utility.yul\":10779:10783   */\n      dup3\n        /* \"#utility.yul\":10775:10787   */\n      and\n        /* \"#utility.yul\":10806:10824   */\n      dup1\n        /* \"#utility.yul\":10796:10877   */\n      tag_469\n      jumpi\n        /* \"#utility.yul\":10862:10866   */\n      0x7f\n        /* \"#utility.yul\":10854:10860   */\n      dup3\n        /* \"#utility.yul\":10850:10867   */\n      and\n        /* \"#utility.yul\":10840:10867   */\n      swap2\n      pop\n        /* \"#utility.yul\":10796:10877   */\n    tag_469:\n        /* \"#utility.yul\":10924:10926   */\n      0x20\n        /* \"#utility.yul\":10916:10922   */\n      dup3\n        /* \"#utility.yul\":10913:10927   */\n      lt\n        /* \"#utility.yul\":10893:10911   */\n      dup2\n        /* \"#utility.yul\":10890:10928   */\n      sub\n        /* \"#utility.yul\":10887:10971   */\n      tag_470\n      jumpi\n        /* \"#utility.yul\":10943:10961   */\n      tag_471\n      tag_335\n      jump\t// in\n    tag_471:\n        /* \"#utility.yul\":10887:10971   */\n    tag_470:\n        /* \"#utility.yul\":10708:10977   */\n      pop\n        /* \"#utility.yul\":10657:10977   */\n      swap2\n      swap1\n      pop\n      jump\t// out\n        /* \"#utility.yul\":10983:11131   */\n    tag_336:\n        /* \"#utility.yul\":11085:11096   */\n      0x00\n        /* \"#utility.yul\":11122:11125   */\n      dup2\n        /* \"#utility.yul\":11107:11125   */\n      swap1\n      pop\n        /* \"#utility.yul\":10983:11131   */\n      swap3\n      swap2\n      pop\n      pop\n      jump\t// out\n        /* \"#utility.yul\":11137:11527   */\n    tag_337:\n        /* \"#utility.yul\":11243:11246   */\n      0x00\n        /* \"#utility.yul\":11271:11310   */\n      tag_474\n        /* \"#utility.yul\":11304:11309   */\n      dup3\n        /* \"#utility.yul\":11271:11310   */\n      tag_311\n      jump\t// in\n    tag_474:\n        /* \"#utility.yul\":11326:11415   */\n      tag_475\n        /* \"#utility.yul\":11408:11414   */\n      dup2\n        /* \"#utility.yul\":11403:11406   */\n      dup6\n        /* \"#utility.yul\":11326:11415   */\n      tag_336\n      jump\t// in\n    tag_475:\n        /* \"#utility.yul\":11319:11415   */\n      swap4\n      pop\n        /* \"#utility.yul\":11424:11489   */\n      tag_476\n        /* \"#utility.yul\":11482:11488   */\n      dup2\n        /* \"#utility.yul\":11477:11480   */\n      dup6\n        /* \"#utility.yul\":11470:11474   */\n      0x20\n        /* \"#utility.yul\":11463:11468   */\n      dup7\n        /* \"#utility.yul\":11459:11475   */\n      add\n        /* \"#utility.yul\":11424:11489   */\n      tag_313\n      jump\t// in\n    tag_476:\n        /* \"#utility.yul\":11514:11520   */\n      dup1\n        /* \"#utility.yul\":11509:11512   */\n      dup5\n        /* \"#utility.yul\":11505:11521   */\n      add\n        /* \"#utility.yul\":11498:11521   */\n      swap2\n      pop\n        /* \"#utility.yul\":11247:11527   */\n      pop\n        /* \"#utility.yul\":11137:11527   */\n      swap3\n      swap2\n      pop\n      pop\n      jump\t// out\n        /* \"#utility.yul\":11533:11968   */\n    tag_194:\n        /* \"#utility.yul\":11713:11716   */\n      0x00\n        /* \"#utility.yul\":11735:11830   */\n      tag_478\n        /* \"#utility.yul\":11826:11829   */\n      dup3\n        /* \"#utility.yul\":11817:11823   */\n      dup6\n        /* \"#utility.yul\":11735:11830   */\n      tag_337\n      jump\t// in\n    tag_478:\n        /* \"#utility.yul\":11728:11830   */\n      swap2\n      pop\n        /* \"#utility.yul\":11847:11942   */\n      tag_479\n        /* \"#utility.yul\":11938:11941   */\n      dup3\n        /* \"#utility.yul\":11929:11935   */\n      dup5\n        /* \"#utility.yul\":11847:11942   */\n      tag_337\n      jump\t// in\n    tag_479:\n        /* \"#utility.yul\":11840:11942   */\n      swap2\n      pop\n        /* \"#utility.yul\":11959:11962   */\n      dup2\n        /* \"#utility.yul\":11952:11962   */\n      swap1\n      pop\n        /* \"#utility.yul\":11533:11968   */\n      swap4\n      swap3\n      pop\n      pop\n      pop\n      jump\t// out\n        /* \"#utility.yul\":11974:12154   */\n    tag_338:\n        /* \"#utility.yul\":12022:12099   */\n      0x4e487b7100000000000000000000000000000000000000000000000000000000\n        /* \"#utility.yul\":12019:12020   */\n      0x00\n        /* \"#utility.yul\":12012:12100   */\n      mstore\n        /* \"#utility.yul\":12119:12123   */\n      0x12\n        /* \"#utility.yul\":12116:12117   */\n      0x04\n        /* \"#utility.yul\":12109:12124   */\n      mstore\n        /* \"#utility.yul\":12143:12147   */\n      0x24\n        /* \"#utility.yul\":12140:12141   */\n      0x00\n        /* \"#utility.yul\":12133:12148   */\n      revert\n        /* \"#utility.yul\":12160:12336   */\n    tag_202:\n        /* \"#utility.yul\":12192:12193   */\n      0x00\n        /* \"#utility.yul\":12209:12229   */\n      tag_482\n        /* \"#utility.yul\":12227:12228   */\n      dup3\n        /* \"#utility.yul\":12209:12229   */\n      tag_316\n      jump\t// in\n    tag_482:\n        /* \"#utility.yul\":12204:12229   */\n      swap2\n      pop\n        /* \"#utility.yul\":12243:12263   */\n      tag_483\n        /* \"#utility.yul\":12261:12262   */\n      dup4\n        /* \"#utility.yul\":12243:12263   */\n      tag_316\n      jump\t// in\n    tag_483:\n        /* \"#utility.yul\":12238:12263   */\n      swap3\n      pop\n        /* \"#utility.yul\":12282:12283   */\n      dup3\n        /* \"#utility.yul\":12272:12307   */\n      tag_484\n      jumpi\n        /* \"#utility.yul\":12287:12305   */\n      tag_485\n      tag_338\n      jump\t// in\n    tag_485:\n        /* \"#utility.yul\":12272:12307   */\n    tag_484:\n        /* \"#utility.yul\":12328:12329   */\n      dup3\n        /* \"#utility.yul\":12325:12326   */\n      dup3\n        /* \"#utility.yul\":12321:12330   */\n      mod\n        /* \"#utility.yul\":12316:12330   */\n      swap1\n      pop\n        /* \"#utility.yul\":12160:12336   */\n      swap3\n      swap2\n      pop\n      pop\n      jump\t// out\n        /* \"#utility.yul\":12342:12522   */\n    tag_339:\n        /* \"#utility.yul\":12390:12467   */\n      0x4e487b7100000000000000000000000000000000000000000000000000000000\n        /* \"#utility.yul\":12387:12388   */\n      0x00\n        /* \"#utility.yul\":12380:12468   */\n      mstore\n        /* \"#utility.yul\":12487:12491   */\n      0x11\n        /* \"#utility.yul\":12484:12485   */\n      0x04\n        /* \"#utility.yul\":12477:12492   */\n      mstore\n        /* \"#utility.yul\":12511:12515   */\n      0x24\n        /* \"#utility.yul\":12508:12509   */\n      0x00\n        /* \"#utility.yul\":12501:12516   */\n      revert\n        /* \"#utility.yul\":12528:12938   */\n    tag_210:\n        /* \"#utility.yul\":12568:12575   */\n      0x00\n        /* \"#utility.yul\":12591:12611   */\n      tag_488\n        /* \"#utility.yul\":12609:12610   */\n      dup3\n        /* \"#utility.yul\":12591:12611   */\n      tag_316\n      jump\t// in\n    tag_488:\n        /* \"#utility.yul\":12586:12611   */\n      swap2\n      pop\n        /* \"#utility.yul\":12625:12645   */\n      tag_489\n        /* \"#utility.yul\":12643:12644   */\n      dup4\n        /* \"#utility.yul\":12625:12645   */\n      tag_316\n      jump\t// in\n    tag_489:\n        /* \"#utility.yul\":12620:12645   */\n      swap3\n      pop\n        /* \"#utility.yul\":12680:12681   */\n      dup3\n        /* \"#utility.yul\":12677:12678   */\n      dup3\n        /* \"#utility.yul\":12673:12682   */\n      mul\n        /* \"#utility.yul\":12702:12732   */\n      tag_490\n        /* \"#utility.yul\":12720:12731   */\n      dup2\n        /* \"#utility.yul\":12702:12732   */\n      tag_316\n      jump\t// in\n    tag_490:\n        /* \"#utility.yul\":12691:12732   */\n      swap2\n      pop\n        /* \"#utility.yul\":12881:12882   */\n      dup3\n        /* \"#utility.yul\":12872:12879   */\n      dup3\n        /* \"#utility.yul\":12868:12883   */\n      div\n        /* \"#utility.yul\":12865:12866   */\n      dup5\n        /* \"#utility.yul\":12862:12884   */\n      eq\n        /* \"#utility.yul\":12842:12843   */\n      dup4\n        /* \"#utility.yul\":12835:12844   */\n      iszero\n        /* \"#utility.yul\":12815:12898   */\n      or\n        /* \"#utility.yul\":12792:12931   */\n      tag_491\n      jumpi\n        /* \"#utility.yul\":12911:12929   */\n      tag_492\n      tag_339\n      jump\t// in\n    tag_492:\n        /* \"#utility.yul\":12792:12931   */\n    tag_491:\n        /* \"#utility.yul\":12576:12938   */\n      pop\n        /* \"#utility.yul\":12528:12938   */\n      swap3\n      swap2\n      pop\n      pop\n      jump\t// out\n        /* \"#utility.yul\":12944:13138   */\n    tag_245:\n        /* \"#utility.yul\":12984:12988   */\n      0x00\n        /* \"#utility.yul\":13004:13024   */\n      tag_494\n        /* \"#utility.yul\":13022:13023   */\n      dup3\n        /* \"#utility.yul\":13004:13024   */\n      tag_316\n      jump\t// in\n    tag_494:\n        /* \"#utility.yul\":12999:13024   */\n      swap2\n      pop\n        /* \"#utility.yul\":13038:13058   */\n      tag_495\n        /* \"#utility.yul\":13056:13057   */\n      dup4\n        /* \"#utility.yul\":13038:13058   */\n      tag_316\n      jump\t// in\n    tag_495:\n        /* \"#utility.yul\":13033:13058   */\n      swap3\n      pop\n        /* \"#utility.yul\":13082:13083   */\n      dup3\n        /* \"#utility.yul\":13079:13080   */\n      dup3\n        /* \"#utility.yul\":13075:13084   */\n      sub\n        /* \"#utility.yul\":13067:13084   */\n      swap1\n      pop\n        /* \"#utility.yul\":13106:13107   */\n      dup2\n        /* \"#utility.yul\":13100:13104   */\n      dup2\n        /* \"#utility.yul\":13097:13108   */\n      gt\n        /* \"#utility.yul\":13094:13131   */\n      iszero\n      tag_496\n      jumpi\n        /* \"#utility.yul\":13111:13129   */\n      tag_497\n      tag_339\n      jump\t// in\n    tag_497:\n        /* \"#utility.yul\":13094:13131   */\n    tag_496:\n        /* \"#utility.yul\":12944:13138   */\n      swap3\n      swap2\n      pop\n      pop\n      jump\t// out\n        /* \"#utility.yul\":13144:13335   */\n    tag_248:\n        /* \"#utility.yul\":13184:13187   */\n      0x00\n        /* \"#utility.yul\":13203:13223   */\n      tag_499\n        /* \"#utility.yul\":13221:13222   */\n      dup3\n        /* \"#utility.yul\":13203:13223   */\n      tag_316\n      jump\t// in\n    tag_499:\n        /* \"#utility.yul\":13198:13223   */\n      swap2\n      pop\n        /* \"#utility.yul\":13237:13257   */\n      tag_500\n        /* \"#utility.yul\":13255:13256   */\n      dup4\n        /* \"#utility.yul\":13237:13257   */\n      tag_316\n      jump\t// in\n    tag_500:\n        /* \"#utility.yul\":13232:13257   */\n      swap3\n      pop\n        /* \"#utility.yul\":13280:13281   */\n      dup3\n        /* \"#utility.yul\":13277:13278   */\n      dup3\n        /* \"#utility.yul\":13273:13282   */\n      add\n        /* \"#utility.yul\":13266:13282   */\n      swap1\n      pop\n        /* \"#utility.yul\":13301:13304   */\n      dup1\n        /* \"#utility.yul\":13298:13299   */\n      dup3\n        /* \"#utility.yul\":13295:13305   */\n      gt\n        /* \"#utility.yul\":13292:13328   */\n      iszero\n      tag_501\n      jumpi\n        /* \"#utility.yul\":13308:13326   */\n      tag_502\n      tag_339\n      jump\t// in\n    tag_502:\n        /* \"#utility.yul\":13292:13328   */\n    tag_501:\n        /* \"#utility.yul\":13144:13335   */\n      swap3\n      swap2\n      pop\n      pop\n      jump\t// out\n        /* \"#utility.yul\":13341:13526   */\n    tag_251:\n        /* \"#utility.yul\":13381:13382   */\n      0x00\n        /* \"#utility.yul\":13398:13418   */\n      tag_504\n        /* \"#utility.yul\":13416:13417   */\n      dup3\n        /* \"#utility.yul\":13398:13418   */\n      tag_316\n      jump\t// in\n    tag_504:\n        /* \"#utility.yul\":13393:13418   */\n      swap2\n      pop\n        /* \"#utility.yul\":13432:13452   */\n      tag_505\n        /* \"#utility.yul\":13450:13451   */\n      dup4\n        /* \"#utility.yul\":13432:13452   */\n      tag_316\n      jump\t// in\n    tag_505:\n        /* \"#utility.yul\":13427:13452   */\n      swap3\n      pop\n        /* \"#utility.yul\":13471:13472   */\n      dup3\n        /* \"#utility.yul\":13461:13496   */\n      tag_506\n      jumpi\n        /* \"#utility.yul\":13476:13494   */\n      tag_507\n      tag_338\n      jump\t// in\n    tag_507:\n        /* \"#utility.yul\":13461:13496   */\n    tag_506:\n        /* \"#utility.yul\":13518:13519   */\n      dup3\n        /* \"#utility.yul\":13515:13516   */\n      dup3\n        /* \"#utility.yul\":13511:13520   */\n      div\n        /* \"#utility.yul\":13506:13520   */\n      swap1\n      pop\n        /* \"#utility.yul\":13341:13526   */\n      swap3\n      swap2\n      pop\n      pop\n      jump\t// out\n        /* \"#utility.yul\":13532:13630   */\n    tag_340:\n        /* \"#utility.yul\":13583:13589   */\n      0x00\n        /* \"#utility.yul\":13617:13622   */\n      dup2\n        /* \"#utility.yul\":13611:13623   */\n      mload\n        /* \"#utility.yul\":13601:13623   */\n      swap1\n      pop\n        /* \"#utility.yul\":13532:13630   */\n      swap2\n      swap1\n      pop\n      jump\t// out\n        /* \"#utility.yul\":13636:13804   */\n    tag_341:\n        /* \"#utility.yul\":13719:13730   */\n      0x00\n        /* \"#utility.yul\":13753:13759   */\n      dup3\n        /* \"#utility.yul\":13748:13751   */\n      dup3\n        /* \"#utility.yul\":13741:13760   */\n      mstore\n        /* \"#utility.yul\":13793:13797   */\n      0x20\n        /* \"#utility.yul\":13788:13791   */\n      dup3\n        /* \"#utility.yul\":13784:13798   */\n      add\n        /* \"#utility.yul\":13769:13798   */\n      swap1\n      pop\n        /* \"#utility.yul\":13636:13804   */\n      swap3\n      swap2\n      pop\n      pop\n      jump\t// out\n        /* \"#utility.yul\":13810:14183   */\n    tag_342:\n        /* \"#utility.yul\":13896:13899   */\n      0x00\n        /* \"#utility.yul\":13924:13962   */\n      tag_511\n        /* \"#utility.yul\":13956:13961   */\n      dup3\n        /* \"#utility.yul\":13924:13962   */\n      tag_340\n      jump\t// in\n    tag_511:\n        /* \"#utility.yul\":13978:14048   */\n      tag_512\n        /* \"#utility.yul\":14041:14047   */\n      dup2\n        /* \"#utility.yul\":14036:14039   */\n      dup6\n        /* \"#utility.yul\":13978:14048   */\n      tag_341\n      jump\t// in\n    tag_512:\n        /* \"#utility.yul\":13971:14048   */\n      swap4\n      pop\n        /* \"#utility.yul\":14057:14122   */\n      tag_513\n        /* \"#utility.yul\":14115:14121   */\n      dup2\n        /* \"#utility.yul\":14110:14113   */\n      dup6\n        /* \"#utility.yul\":14103:14107   */\n      0x20\n        /* \"#utility.yul\":14096:14101   */\n      dup7\n        /* \"#utility.yul\":14092:14108   */\n      add\n        /* \"#utility.yul\":14057:14122   */\n      tag_313\n      jump\t// in\n    tag_513:\n        /* \"#utility.yul\":14147:14176   */\n      tag_514\n        /* \"#utility.yul\":14169:14175   */\n      dup2\n        /* \"#utility.yul\":14147:14176   */\n      tag_314\n      jump\t// in\n    tag_514:\n        /* \"#utility.yul\":14142:14145   */\n      dup5\n        /* \"#utility.yul\":14138:14177   */\n      add\n        /* \"#utility.yul\":14131:14177   */\n      swap2\n      pop\n        /* \"#utility.yul\":13900:14183   */\n      pop\n        /* \"#utility.yul\":13810:14183   */\n      swap3\n      swap2\n      pop\n      pop\n      jump\t// out\n        /* \"#utility.yul\":14189:14829   */\n    tag_267:\n        /* \"#utility.yul\":14384:14388   */\n      0x00\n        /* \"#utility.yul\":14422:14425   */\n      0x80\n        /* \"#utility.yul\":14411:14420   */\n      dup3\n        /* \"#utility.yul\":14407:14426   */\n      add\n        /* \"#utility.yul\":14399:14426   */\n      swap1\n      pop\n        /* \"#utility.yul\":14436:14507   */\n      tag_516\n        /* \"#utility.yul\":14504:14505   */\n      0x00\n        /* \"#utility.yul\":14493:14502   */\n      dup4\n        /* \"#utility.yul\":14489:14506   */\n      add\n        /* \"#utility.yul\":14480:14486   */\n      dup8\n        /* \"#utility.yul\":14436:14507   */\n      tag_321\n      jump\t// in\n    tag_516:\n        /* \"#utility.yul\":14517:14589   */\n      tag_517\n        /* \"#utility.yul\":14585:14587   */\n      0x20\n        /* \"#utility.yul\":14574:14583   */\n      dup4\n        /* \"#utility.yul\":14570:14588   */\n      add\n        /* \"#utility.yul\":14561:14567   */\n      dup7\n        /* \"#utility.yul\":14517:14589   */\n      tag_321\n      jump\t// in\n    tag_517:\n        /* \"#utility.yul\":14599:14671   */\n      tag_518\n        /* \"#utility.yul\":14667:14669   */\n      0x40\n        /* \"#utility.yul\":14656:14665   */\n      dup4\n        /* \"#utility.yul\":14652:14670   */\n      add\n        /* \"#utility.yul\":14643:14649   */\n      dup6\n        /* \"#utility.yul\":14599:14671   */\n      tag_324\n      jump\t// in\n    tag_518:\n        /* \"#utility.yul\":14718:14727   */\n      dup2\n        /* \"#utility.yul\":14712:14716   */\n      dup2\n        /* \"#utility.yul\":14708:14728   */\n      sub\n        /* \"#utility.yul\":14703:14705   */\n      0x60\n        /* \"#utility.yul\":14692:14701   */\n      dup4\n        /* \"#utility.yul\":14688:14706   */\n      add\n        /* \"#utility.yul\":14681:14729   */\n      mstore\n        /* \"#utility.yul\":14746:14822   */\n      tag_519\n        /* \"#utility.yul\":14817:14821   */\n      dup2\n        /* \"#utility.yul\":14808:14814   */\n      dup5\n        /* \"#utility.yul\":14746:14822   */\n      tag_342\n      jump\t// in\n    tag_519:\n        /* \"#utility.yul\":14738:14822   */\n      swap1\n      pop\n        /* \"#utility.yul\":14189:14829   */\n      swap6\n      swap5\n      pop\n      pop\n      pop\n      pop\n      pop\n      jump\t// out\n        /* \"#utility.yul\":14835:14976   */\n    tag_343:\n        /* \"#utility.yul\":14891:14896   */\n      0x00\n        /* \"#utility.yul\":14922:14928   */\n      dup2\n        /* \"#utility.yul\":14916:14929   */\n      mload\n        /* \"#utility.yul\":14907:14929   */\n      swap1\n      pop\n        /* \"#utility.yul\":14938:14970   */\n      tag_521\n        /* \"#utility.yul\":14964:14969   */\n      dup2\n        /* \"#utility.yul\":14938:14970   */\n      tag_307\n      jump\t// in\n    tag_521:\n        /* \"#utility.yul\":14835:14976   */\n      swap3\n      swap2\n      pop\n      pop\n      jump\t// out\n        /* \"#utility.yul\":14982:15331   */\n    tag_270:\n        /* \"#utility.yul\":15051:15057   */\n      0x00\n        /* \"#utility.yul\":15100:15102   */\n      0x20\n        /* \"#utility.yul\":15088:15097   */\n      dup3\n        /* \"#utility.yul\":15079:15086   */\n      dup5\n        /* \"#utility.yul\":15075:15098   */\n      sub\n        /* \"#utility.yul\":15071:15103   */\n      slt\n        /* \"#utility.yul\":15068:15187   */\n      iszero\n      tag_523\n      jumpi\n        /* \"#utility.yul\":15106:15185   */\n      tag_524\n      tag_304\n      jump\t// in\n    tag_524:\n        /* \"#utility.yul\":15068:15187   */\n    tag_523:\n        /* \"#utility.yul\":15226:15227   */\n      0x00\n        /* \"#utility.yul\":15251:15314   */\n      tag_525\n        /* \"#utility.yul\":15306:15313   */\n      dup5\n        /* \"#utility.yul\":15297:15303   */\n      dup3\n        /* \"#utility.yul\":15286:15295   */\n      dup6\n        /* \"#utility.yul\":15282:15304   */\n      add\n        /* \"#utility.yul\":15251:15314   */\n      tag_343\n      jump\t// in\n    tag_525:\n        /* \"#utility.yul\":15241:15314   */\n      swap2\n      pop\n        /* \"#utility.yul\":15197:15324   */\n      pop\n        /* \"#utility.yul\":14982:15331   */\n      swap3\n      swap2\n      pop\n      pop\n      jump\t// out\n        /* \"#utility.yul\":15337:15570   */\n    tag_286:\n        /* \"#utility.yul\":15376:15379   */\n      0x00\n        /* \"#utility.yul\":15399:15423   */\n      tag_527\n        /* \"#utility.yul\":15417:15422   */\n      dup3\n        /* \"#utility.yul\":15399:15423   */\n      tag_316\n      jump\t// in\n    tag_527:\n        /* \"#utility.yul\":15390:15423   */\n      swap2\n      pop\n        /* \"#utility.yul\":15445:15511   */\n      0xffffffffffffffffffffffffffffffffffffffffffffffffffffffffffffffff\n        /* \"#utility.yul\":15438:15443   */\n      dup3\n        /* \"#utility.yul\":15435:15512   */\n      sub\n        /* \"#utility.yul\":15432:15535   */\n      tag_528\n      jumpi\n        /* \"#utility.yul\":15515:15533   */\n      tag_529\n      tag_339\n      jump\t// in\n    tag_529:\n        /* \"#utility.yul\":15432:15535   */\n    tag_528:\n        /* \"#utility.yul\":15562:15563   */\n      0x01\n        /* \"#utility.yul\":15555:15560   */\n      dup3\n        /* \"#utility.yul\":15551:15564   */\n      add\n        /* \"#utility.yul\":15544:15564   */\n      swap1\n      pop\n        /* \"#utility.yul\":15337:15570   */\n      swap2\n      swap1\n      pop\n      jump\t// out\n        /* \"#utility.yul\":15576:15756   */\n    tag_299:\n        /* \"#utility.yul\":15624:15701   */\n      0x4e487b7100000000000000000000000000000000000000000000000000000000\n        /* \"#utility.yul\":15621:15622   */\n      0x00\n        /* \"#utility.yul\":15614:15702   */\n      mstore\n        /* \"#utility.yul\":15721:15725   */\n      0x32\n        /* \"#utility.yul\":15718:15719   */\n      0x04\n        /* \"#utility.yul\":15711:15726   */\n      mstore\n        /* \"#utility.yul\":15745:15749   */\n      0x24\n        /* \"#utility.yul\":15742:15743   */\n      0x00\n        /* \"#utility.yul\":15735:15750   */\n      revert\n    stop\n    data_d8cc7cbf95b52afa2322fac553d3c4e20f5096fb87da64785a945de91007c7b2 68747470733a2f2f676174657761792e70696e6174612e636c6f75642f697066732f516d654e373753715459457258644d5134684c3431623166614778414b7434515741354e475646755a753978486e2f\n\n    auxdata: 0xa2646970667358221220e94a010e98caf2dd7206bd3c3602c3f87d3a91eb33a8fd510493a808a422ba9664736f6c63430008110033\n}\n",
				"bytecode": {
					"linkReferences": {},
					"object": "60806040523480156200001157600080fd5b5060405162002eae38038062002eae8339818101604052810190620000379190620002b3565b82600790816200004891906200058e565b5081600890816200005a91906200058e565b5061271060058190555062000074620000c860201b60201c565b60048190555080600081905550620000a96a422ca8b0a00a42500000006216e360620000cd60201b62000eb21790919060201c565b60018190555061b3b060038190555043600281905550505050620006ef565b600090565b60008183620000dd9190620006a4565b905092915050565b6000604051905090565b600080fd5b600080fd5b600080fd5b600080fd5b6000601f19601f8301169050919050565b7f4e487b7100000000000000000000000000000000000000000000000000000000600052604160045260246000fd5b6200014e8262000103565b810181811067ffffffffffffffff8211171562000170576200016f62000114565b5b80604052505050565b600062000185620000e5565b905062000193828262000143565b919050565b600067ffffffffffffffff821115620001b657620001b562000114565b5b620001c18262000103565b9050602081019050919050565b60005b83811015620001ee578082015181840152602081019050620001d1565b60008484015250505050565b6000620002116200020b8462000198565b62000179565b90508281526020810184848401111562000230576200022f620000fe565b5b6200023d848285620001ce565b509392505050565b600082601f8301126200025d576200025c620000f9565b5b81516200026f848260208601620001fa565b91505092915050565b6000819050919050565b6200028d8162000278565b81146200029957600080fd5b50565b600081519050620002ad8162000282565b92915050565b600080600060608486031215620002cf57620002ce620000ef565b5b600084015167ffffffffffffffff811115620002f057620002ef620000f4565b5b620002fe8682870162000245565b935050602084015167ffffffffffffffff811115620003225762000321620000f4565b5b620003308682870162000245565b925050604062000343868287016200029c565b9150509250925092565b600081519050919050565b7f4e487b7100000000000000000000000000000000000000000000000000000000600052602260045260246000fd5b60006002820490506001821680620003a057607f821691505b602082108103620003b657620003b562000358565b5b50919050565b60008190508160005260206000209050919050565b60006020601f8301049050919050565b600082821b905092915050565b600060088302620004207fffffffffffffffffffffffffffffffffffffffffffffffffffffffffffffffff82620003e1565b6200042c8683620003e1565b95508019841693508086168417925050509392505050565b6000819050919050565b60006200046f62000469620004638462000278565b62000444565b62000278565b9050919050565b6000819050919050565b6200048b836200044e565b620004a36200049a8262000476565b848454620003ee565b825550505050565b600090565b620004ba620004ab565b620004c781848462000480565b505050565b5b81811015620004ef57620004e3600082620004b0565b600181019050620004cd565b5050565b601f8211156200053e576200050881620003bc565b6200051384620003d1565b8101602085101562000523578190505b6200053b6200053285620003d1565b830182620004cc565b50505b505050565b600082821c905092915050565b6000620005636000198460080262000543565b1980831691505092915050565b60006200057e838362000550565b9150826002028217905092915050565b62000599826200034d565b67ffffffffffffffff811115620005b557620005b462000114565b5b620005c1825462000387565b620005ce828285620004f3565b600060209050601f831160018114620006065760008415620005f1578287015190505b620005fd858262000570565b8655506200066d565b601f1984166200061686620003bc565b60005b82811015620006405784890151825560018201915060208501945060208101905062000619565b868310156200066057848901516200065c601f89168262000550565b8355505b6001600288020188555050505b505050505050565b7f4e487b7100000000000000000000000000000000000000000000000000000000600052601160045260246000fd5b6000620006b18262000278565b9150620006be8362000278565b9250828202620006ce8162000278565b91508282048414831517620006e857620006e762000675565b5b5092915050565b6127af80620006ff6000396000f3fe608060405234801561001057600080fd5b506004361061012c5760003560e01c806395d89b41116100ad578063d5abeb0111610071578063d5abeb0114610367578063db3ad22c14610385578063e29301f9146103a3578063e985e9c5146103d3578063eff0730d146104035761012c565b806395d89b41146102b1578063a22cb465146102cf578063b88d4fde146102eb578063b8ba600714610307578063c87b56dd146103375761012c565b806323b872dd116100f457806323b872dd146101e957806342842e0e146102055780634be3403c146102215780636352211e1461025157806370a08231146102815761012c565b806301ffc9a71461013157806306fdde0314610161578063081812fc1461017f578063095ea7b3146101af57806318160ddd146101cb575b600080fd5b61014b60048036038101906101469190611e56565b610433565b6040516101589190611e9e565b60405180910390f35b610169610515565b6040516101769190611f49565b60405180910390f35b61019960048036038101906101949190611fa1565b6105a7565b6040516101a6919061200f565b60405180910390f35b6101c960048036038101906101c49190612056565b610623565b005b6101d3610727565b6040516101e091906120a5565b60405180910390f35b61020360048036038101906101fe91906120c0565b61073e565b005b61021f600480360381019061021a91906120c0565b61074e565b005b61023b60048036038101906102369190611fa1565b61076e565b60405161024891906120a5565b60405180910390f35b61026b60048036038101906102669190611fa1565b6107d1565b604051610278919061200f565b60405180910390f35b61029b60048036038101906102969190612113565b6107e7565b6040516102a891906120a5565b60405180910390f35b6102b96108b6565b6040516102c69190611f49565b60405180910390f35b6102e960048036038101906102e4919061216c565b610948565b005b610305600480360381019061030091906122e1565b610abf565b005b610321600480360381019061031c9190612113565b610b37565b60405161032e91906120a5565b60405180910390f35b610351600480360381019061034c9190611fa1565b610ca2565b60405161035e9190611f49565b60405180910390f35b61036f610d40565b60405161037c91906120a5565b60405180910390f35b61038d610d57565b60405161039a91906120a5565b60405180910390f35b6103bd60048036038101906103b89190611fa1565b610d61565b6040516103ca91906120a5565b60405180910390f35b6103ed60048036038101906103e89190612364565b610dc3565b6040516103fa9190611e9e565b60405180910390f35b61041d60048036038101906104189190612056565b610e57565b60405161042a91906120a5565b60405180910390f35b60007f80ac58cd000000000000000000000000000000000000000000000000000000007bffffffffffffffffffffffffffffffffffffffffffffffffffffffff1916827bffffffffffffffffffffffffffffffffffffffffffffffffffffffff191614806104fe57507f5b5e139f000000000000000000000000000000000000000000000000000000007bffffffffffffffffffffffffffffffffffffffffffffffffffffffff1916827bffffffffffffffffffffffffffffffffffffffffffffffffffffffff1916145b8061050e575061050d82610ec8565b5b9050919050565b606060078054610524906123d3565b80601f0160208091040260200160405190810160405280929190818152602001828054610550906123d3565b801561059d5780601f106105725761010080835404028352916020019161059d565b820191906000526020600020905b81548152906001019060200180831161058057829003601f168201915b5050505050905090565b60006105b282610f32565b6105e8576040517fcf4700e400000000000000000000000000000000000000000000000000000000815260040160405180910390fd5b600b600083815260200190815260200160002060009054906101000a900473ffffffffffffffffffffffffffffffffffffffff169050919050565b600061062e826107d1565b90508073ffffffffffffffffffffffffffffffffffffffff168373ffffffffffffffffffffffffffffffffffffffff1603610695576040517f943f7b8c00000000000000000000000000000000000000000000000000000000815260040160405180910390fd5b8073ffffffffffffffffffffffffffffffffffffffff166106b4610f80565b73ffffffffffffffffffffffffffffffffffffffff1614610717576106e0816106db610f80565b610dc3565b610716576040517fcfb3b94200000000000000000000000000000000000000000000000000000000815260040160405180910390fd5b5b610722838383610f88565b505050565b600061073161103a565b6006546004540303905090565b61074983838361103f565b505050565b61076983838360405180602001604052806000815250610abf565b505050565b60006002548210156107805760025491505b60006107ac6216e36061079e600254866117db90919063ffffffff16565b6117f190919063ffffffff16565b905060006107c58260015461180790919063ffffffff16565b90508092505050919050565b60006107dc8261181d565b600001519050919050565b60008073ffffffffffffffffffffffffffffffffffffffff168273ffffffffffffffffffffffffffffffffffffffff160361084e576040517f8f4eb60400000000000000000000000000000000000000000000000000000000815260040160405180910390fd5b600a60008373ffffffffffffffffffffffffffffffffffffffff1673ffffffffffffffffffffffffffffffffffffffff16815260200190815260200160002060000160009054906101000a900467ffffffffffffffff1667ffffffffffffffff169050919050565b6060600880546108c5906123d3565b80601f01602080910402602001604051908101604052809291908181526020018280546108f1906123d3565b801561093e5780601f106109135761010080835404028352916020019161093e565b820191906000526020600020905b81548152906001019060200180831161092157829003601f168201915b5050505050905090565b610950610f80565b73ffffffffffffffffffffffffffffffffffffffff168273ffffffffffffffffffffffffffffffffffffffff16036109b4576040517fb06307db00000000000000000000000000000000000000000000000000000000815260040160405180910390fd5b80600c60006109c1610f80565b73ffffffffffffffffffffffffffffffffffffffff1673ffffffffffffffffffffffffffffffffffffffff16815260200190815260200160002060008473ffffffffffffffffffffffffffffffffffffffff1673ffffffffffffffffffffffffffffffffffffffff16815260200190815260200160002060006101000a81548160ff0219169083151502179055508173ffffffffffffffffffffffffffffffffffffffff16610a6e610f80565b73ffffffffffffffffffffffffffffffffffffffff167f17307eab39ab6107e8899845ad3d59bd9653f200f220920489ca2b5937696c3183604051610ab39190611e9e565b60405180910390a35050565b610aca84848461103f565b610ae98373ffffffffffffffffffffffffffffffffffffffff16611aa8565b15610b3157610afa84848484611acb565b610b30576040517fd1a57ed600000000000000000000000000000000000000000000000000000000815260040160405180910390fd5b5b50505050565b600080610b94600d60008573ffffffffffffffffffffffffffffffffffffffff1673ffffffffffffffffffffffffffffffffffffffff1681526020019081526020016000206000600181526020019081526020016000205461076e565b90506000610ba14361076e565b90506000610bb882846117db90919063ffffffff16565b9050610c32600354610c24600d60008973ffffffffffffffffffffffffffffffffffffffff1673ffffffffffffffffffffffffffffffffffffffff1681526020019081526020016000206000600281526020019081526020016000205484610eb290919063ffffffff16565b61180790919063ffffffff16565b9050610c9881600d60008873ffffffffffffffffffffffffffffffffffffffff1673ffffffffffffffffffffffffffffffffffffffff168152602001908152602001600020600060038152602001908152602001600020546117f190919063ffffffff16565b9350505050919050565b6060610cad82610f32565b610ce3576040517fa14c4b5000000000000000000000000000000000000000000000000000000000815260040160405180910390fd5b6000610ced611c1b565b90506000815103610d0d5760405180602001604052806000815250610d38565b80610d1784611c3b565b604051602001610d28929190612440565b6040516020818303038152906040525b915050919050565b6000610d4a61103a565b6006546005540303905090565b6000600354905090565b600080610d8b83610d7d60005486610eb290919063ffffffff16565b6117f190919063ffffffff16565b90506000600a82610d9c9190612493565b03610daa5760019050610dba565b600a81610db79190612493565b90505b80915050919050565b6000600c60008473ffffffffffffffffffffffffffffffffffffffff1673ffffffffffffffffffffffffffffffffffffffff16815260200190815260200160002060008373ffffffffffffffffffffffffffffffffffffffff1673ffffffffffffffffffffffffffffffffffffffff16815260200190815260200160002060009054906101000a900460ff16905092915050565b6000600d60008473ffffffffffffffffffffffffffffffffffffffff1673ffffffffffffffffffffffffffffffffffffffff168152602001908152602001600020600083815260200190815260200160002054905092915050565b60008183610ec091906124f3565b905092915050565b60007f01ffc9a7000000000000000000000000000000000000000000000000000000007bffffffffffffffffffffffffffffffffffffffffffffffffffffffff1916827bffffffffffffffffffffffffffffffffffffffffffffffffffffffff1916149050919050565b600081610f3d61103a565b11158015610f4c575060045482105b8015610f79575060096000838152602001908152602001600020600001601c9054906101000a900460ff16155b9050919050565b600033905090565b82600b600084815260200190815260200160002060006101000a81548173ffffffffffffffffffffffffffffffffffffffff021916908373ffffffffffffffffffffffffffffffffffffffff160217905550818373ffffffffffffffffffffffffffffffffffffffff168273ffffffffffffffffffffffffffffffffffffffff167f8c5be1e5ebec7d5bd14f71427d1e84f3dd0314c0f7b2291e5b200ac8c7c3b92560405160405180910390a4505050565b600090565b600061104a82610d61565b905061105584610b37565b600d60008673ffffffffffffffffffffffffffffffffffffffff1673ffffffffffffffffffffffffffffffffffffffff1681526020019081526020016000206000600381526020019081526020016000208190555061110e81600d60008773ffffffffffffffffffffffffffffffffffffffff1673ffffffffffffffffffffffffffffffffffffffff168152602001908152602001600020600060028152602001908152602001600020546117db90919063ffffffff16565b600d60008673ffffffffffffffffffffffffffffffffffffffff1673ffffffffffffffffffffffffffffffffffffffff1681526020019081526020016000206000600281526020019081526020016000208190555043600d60008673ffffffffffffffffffffffffffffffffffffffff1673ffffffffffffffffffffffffffffffffffffffff168152602001908152602001600020600060018152602001908152602001600020819055506111c283610b37565b600d60008573ffffffffffffffffffffffffffffffffffffffff1673ffffffffffffffffffffffffffffffffffffffff1681526020019081526020016000206000600381526020019081526020016000208190555061127b81600d60008673ffffffffffffffffffffffffffffffffffffffff1673ffffffffffffffffffffffffffffffffffffffff168152602001908152602001600020600060028152602001908152602001600020546117f190919063ffffffff16565b600d60008573ffffffffffffffffffffffffffffffffffffffff1673ffffffffffffffffffffffffffffffffffffffff1681526020019081526020016000206000600281526020019081526020016000208190555043600d60008573ffffffffffffffffffffffffffffffffffffffff1673ffffffffffffffffffffffffffffffffffffffff1681526020019081526020016000206000600181526020019081526020016000208190555060006113318361181d565b90508473ffffffffffffffffffffffffffffffffffffffff16816000015173ffffffffffffffffffffffffffffffffffffffff161461139c576040517fa114810000000000000000000000000000000000000000000000000000000000815260040160405180910390fd5b60008573ffffffffffffffffffffffffffffffffffffffff166113bd610f80565b73ffffffffffffffffffffffffffffffffffffffff1614806113ec57506113eb866113e6610f80565b610dc3565b5b8061143157506113fa610f80565b73ffffffffffffffffffffffffffffffffffffffff16611419856105a7565b73ffffffffffffffffffffffffffffffffffffffff16145b90508061146a576040517f59c896be00000000000000000000000000000000000000000000000000000000815260040160405180910390fd5b600073ffffffffffffffffffffffffffffffffffffffff168573ffffffffffffffffffffffffffffffffffffffff16036114d0576040517fea553b3400000000000000000000000000000000000000000000000000000000815260040160405180910390fd5b6114dd8686866001611d9b565b6114e960008588610f88565b6001600a60008873ffffffffffffffffffffffffffffffffffffffff1673ffffffffffffffffffffffffffffffffffffffff16815260200190815260200160002060000160008282829054906101000a900467ffffffffffffffff160392506101000a81548167ffffffffffffffff021916908367ffffffffffffffff1602179055506001600a60008773ffffffffffffffffffffffffffffffffffffffff1673ffffffffffffffffffffffffffffffffffffffff16815260200190815260200160002060000160008282829054906101000a900467ffffffffffffffff160192506101000a81548167ffffffffffffffff021916908367ffffffffffffffff1602179055506000600960008681526020019081526020016000209050858160000160006101000a81548173ffffffffffffffffffffffffffffffffffffffff021916908373ffffffffffffffffffffffffffffffffffffffff160217905550428160000160146101000a81548167ffffffffffffffff021916908367ffffffffffffffff16021790555060006001860190506000600960008381526020019081526020016000209050600073ffffffffffffffffffffffffffffffffffffffff168160000160009054906101000a900473ffffffffffffffffffffffffffffffffffffffff1673ffffffffffffffffffffffffffffffffffffffff160361176857600454821461176757888160000160006101000a81548173ffffffffffffffffffffffffffffffffffffffff021916908373ffffffffffffffffffffffffffffffffffffffff16021790555084602001518160000160146101000a81548167ffffffffffffffff021916908367ffffffffffffffff1602179055505b5b505050838573ffffffffffffffffffffffffffffffffffffffff168773ffffffffffffffffffffffffffffffffffffffff167fddf252ad1be2c89b69c2b068fc378daa952ba7f163c4a11628f55a4df523b3ef60405160405180910390a46117d38686866001611da1565b505050505050565b600081836117e99190612535565b905092915050565b600081836117ff9190612569565b905092915050565b60008183611815919061259d565b905092915050565b611825611da7565b60008290508061183361103a565b11611a7157600454811015611a70576000600960008381526020019081526020016000206040518060600160405290816000820160009054906101000a900473ffffffffffffffffffffffffffffffffffffffff1673ffffffffffffffffffffffffffffffffffffffff1673ffffffffffffffffffffffffffffffffffffffff1681526020016000820160149054906101000a900467ffffffffffffffff1667ffffffffffffffff1667ffffffffffffffff16815260200160008201601c9054906101000a900460ff16151515158152505090508060400151611a6e57600073ffffffffffffffffffffffffffffffffffffffff16816000015173ffffffffffffffffffffffffffffffffffffffff1614611952578092505050611aa3565b5b600115611a6d57818060019003925050600960008381526020019081526020016000206040518060600160405290816000820160009054906101000a900473ffffffffffffffffffffffffffffffffffffffff1673ffffffffffffffffffffffffffffffffffffffff1673ffffffffffffffffffffffffffffffffffffffff1681526020016000820160149054906101000a900467ffffffffffffffff1667ffffffffffffffff1667ffffffffffffffff16815260200160008201601c9054906101000a900460ff1615151515815250509050600073ffffffffffffffffffffffffffffffffffffffff16816000015173ffffffffffffffffffffffffffffffffffffffff1614611a68578092505050611aa3565b611953565b5b505b5b6040517fdf2d9b4200000000000000000000000000000000000000000000000000000000815260040160405180910390fd5b919050565b6000808273ffffffffffffffffffffffffffffffffffffffff163b119050919050565b60008373ffffffffffffffffffffffffffffffffffffffff1663150b7a02611af1610f80565b8786866040518563ffffffff1660e01b8152600401611b139493929190612623565b6020604051808303816000875af1925050508015611b4f57506040513d601f19601f82011682018060405250810190611b4c9190612684565b60015b611bc8573d8060008114611b7f576040519150601f19603f3d011682016040523d82523d6000602084013e611b84565b606091505b506000815103611bc0576040517fd1a57ed600000000000000000000000000000000000000000000000000000000815260040160405180910390fd5b805181602001fd5b63150b7a0260e01b7bffffffffffffffffffffffffffffffffffffffffffffffffffffffff1916817bffffffffffffffffffffffffffffffffffffffffffffffffffffffff191614915050949350505050565b606060405180608001604052806051815260200161272960519139905090565b606060008203611c82576040518060400160405280600181526020017f30000000000000000000000000000000000000000000000000000000000000008152509050611d96565b600082905060005b60008214611cb4578080611c9d906126b1565b915050600a82611cad919061259d565b9150611c8a565b60008167ffffffffffffffff811115611cd057611ccf6121b6565b5b6040519080825280601f01601f191660200182016040528015611d025781602001600182028036833780820191505090505b5090505b60008514611d8f57600182611d1b9190612535565b9150600a85611d2a9190612493565b6030611d369190612569565b60f81b818381518110611d4c57611d4b6126f9565b5b60200101907effffffffffffffffffffffffffffffffffffffffffffffffffffffffffffff1916908160001a905350600a85611d88919061259d565b9450611d06565b8093505050505b919050565b50505050565b50505050565b6040518060600160405280600073ffffffffffffffffffffffffffffffffffffffff168152602001600067ffffffffffffffff1681526020016000151581525090565b6000604051905090565b600080fd5b600080fd5b60007fffffffff0000000000000000000000000000000000000000000000000000000082169050919050565b611e3381611dfe565b8114611e3e57600080fd5b50565b600081359050611e5081611e2a565b92915050565b600060208284031215611e6c57611e6b611df4565b5b6000611e7a84828501611e41565b91505092915050565b60008115159050919050565b611e9881611e83565b82525050565b6000602082019050611eb36000830184611e8f565b92915050565b600081519050919050565b600082825260208201905092915050565b60005b83811015611ef3578082015181840152602081019050611ed8565b60008484015250505050565b6000601f19601f8301169050919050565b6000611f1b82611eb9565b611f258185611ec4565b9350611f35818560208601611ed5565b611f3e81611eff565b840191505092915050565b60006020820190508181036000830152611f638184611f10565b905092915050565b6000819050919050565b611f7e81611f6b565b8114611f8957600080fd5b50565b600081359050611f9b81611f75565b92915050565b600060208284031215611fb757611fb6611df4565b5b6000611fc584828501611f8c565b91505092915050565b600073ffffffffffffffffffffffffffffffffffffffff82169050919050565b6000611ff982611fce565b9050919050565b61200981611fee565b82525050565b60006020820190506120246000830184612000565b92915050565b61203381611fee565b811461203e57600080fd5b50565b6000813590506120508161202a565b92915050565b6000806040838503121561206d5761206c611df4565b5b600061207b85828601612041565b925050602061208c85828601611f8c565b9150509250929050565b61209f81611f6b565b82525050565b60006020820190506120ba6000830184612096565b92915050565b6000806000606084860312156120d9576120d8611df4565b5b60006120e786828701612041565b93505060206120f886828701612041565b925050604061210986828701611f8c565b9150509250925092565b60006020828403121561212957612128611df4565b5b600061213784828501612041565b91505092915050565b61214981611e83565b811461215457600080fd5b50565b60008135905061216681612140565b92915050565b6000806040838503121561218357612182611df4565b5b600061219185828601612041565b92505060206121a285828601612157565b9150509250929050565b600080fd5b600080fd5b7f4e487b7100000000000000000000000000000000000000000000000000000000600052604160045260246000fd5b6121ee82611eff565b810181811067ffffffffffffffff8211171561220d5761220c6121b6565b5b80604052505050565b6000612220611dea565b905061222c82826121e5565b919050565b600067ffffffffffffffff82111561224c5761224b6121b6565b5b61225582611eff565b9050602081019050919050565b82818337600083830152505050565b600061228461227f84612231565b612216565b9050828152602081018484840111156122a05761229f6121b1565b5b6122ab848285612262565b509392505050565b600082601f8301126122c8576122c76121ac565b5b81356122d8848260208601612271565b91505092915050565b600080600080608085870312156122fb576122fa611df4565b5b600061230987828801612041565b945050602061231a87828801612041565b935050604061232b87828801611f8c565b925050606085013567ffffffffffffffff81111561234c5761234b611df9565b5b612358878288016122b3565b91505092959194509250565b6000806040838503121561237b5761237a611df4565b5b600061238985828601612041565b925050602061239a85828601612041565b9150509250929050565b7f4e487b7100000000000000000000000000000000000000000000000000000000600052602260045260246000fd5b600060028204905060018216806123eb57607f821691505b6020821081036123fe576123fd6123a4565b5b50919050565b600081905092915050565b600061241a82611eb9565b6124248185612404565b9350612434818560208601611ed5565b80840191505092915050565b600061244c828561240f565b9150612458828461240f565b91508190509392505050565b7f4e487b7100000000000000000000000000000000000000000000000000000000600052601260045260246000fd5b600061249e82611f6b565b91506124a983611f6b565b9250826124b9576124b8612464565b5b828206905092915050565b7f4e487b7100000000000000000000000000000000000000000000000000000000600052601160045260246000fd5b60006124fe82611f6b565b915061250983611f6b565b925082820261251781611f6b565b9150828204841483151761252e5761252d6124c4565b5b5092915050565b600061254082611f6b565b915061254b83611f6b565b9250828203905081811115612563576125626124c4565b5b92915050565b600061257482611f6b565b915061257f83611f6b565b9250828201905080821115612597576125966124c4565b5b92915050565b60006125a882611f6b565b91506125b383611f6b565b9250826125c3576125c2612464565b5b828204905092915050565b600081519050919050565b600082825260208201905092915050565b60006125f5826125ce565b6125ff81856125d9565b935061260f818560208601611ed5565b61261881611eff565b840191505092915050565b60006080820190506126386000830187612000565b6126456020830186612000565b6126526040830185612096565b818103606083015261266481846125ea565b905095945050505050565b60008151905061267e81611e2a565b92915050565b60006020828403121561269a57612699611df4565b5b60006126a88482850161266f565b91505092915050565b60006126bc82611f6b565b91507fffffffffffffffffffffffffffffffffffffffffffffffffffffffffffffffff82036126ee576126ed6124c4565b5b600182019050919050565b7f4e487b7100000000000000000000000000000000000000000000000000000000600052603260045260246000fdfe68747470733a2f2f676174657761792e70696e6174612e636c6f75642f697066732f516d654e373753715459457258644d5134684c3431623166614778414b7434515741354e475646755a753978486e2fa2646970667358221220e94a010e98caf2dd7206bd3c3602c3f87d3a91eb33a8fd510493a808a422ba9664736f6c63430008110033",
					"opcodes": "PUSH1 0x80 PUSH1 0x40 MSTORE CALLVALUE DUP1 ISZERO PUSH3 0x11 JUMPI PUSH1 0x0 DUP1 REVERT JUMPDEST POP PUSH1 0x40 MLOAD PUSH3 0x2EAE CODESIZE SUB DUP1 PUSH3 0x2EAE DUP4 CODECOPY DUP2 DUP2 ADD PUSH1 0x40 MSTORE DUP2 ADD SWAP1 PUSH3 0x37 SWAP2 SWAP1 PUSH3 0x2B3 JUMP JUMPDEST DUP3 PUSH1 0x7 SWAP1 DUP2 PUSH3 0x48 SWAP2 SWAP1 PUSH3 0x58E JUMP JUMPDEST POP DUP2 PUSH1 0x8 SWAP1 DUP2 PUSH3 0x5A SWAP2 SWAP1 PUSH3 0x58E JUMP JUMPDEST POP PUSH2 0x2710 PUSH1 0x5 DUP2 SWAP1 SSTORE POP PUSH3 0x74 PUSH3 0xC8 PUSH1 0x20 SHL PUSH1 0x20 SHR JUMP JUMPDEST PUSH1 0x4 DUP2 SWAP1 SSTORE POP DUP1 PUSH1 0x0 DUP2 SWAP1 SSTORE POP PUSH3 0xA9 PUSH11 0x422CA8B0A00A4250000000 PUSH3 0x16E360 PUSH3 0xCD PUSH1 0x20 SHL PUSH3 0xEB2 OR SWAP1 SWAP2 SWAP1 PUSH1 0x20 SHR JUMP JUMPDEST PUSH1 0x1 DUP2 SWAP1 SSTORE POP PUSH2 0xB3B0 PUSH1 0x3 DUP2 SWAP1 SSTORE POP NUMBER PUSH1 0x2 DUP2 SWAP1 SSTORE POP POP POP POP PUSH3 0x6EF JUMP JUMPDEST PUSH1 0x0 SWAP1 JUMP JUMPDEST PUSH1 0x0 DUP2 DUP4 PUSH3 0xDD SWAP2 SWAP1 PUSH3 0x6A4 JUMP JUMPDEST SWAP1 POP SWAP3 SWAP2 POP POP JUMP JUMPDEST PUSH1 0x0 PUSH1 0x40 MLOAD SWAP1 POP SWAP1 JUMP JUMPDEST PUSH1 0x0 DUP1 REVERT JUMPDEST PUSH1 0x0 DUP1 REVERT JUMPDEST PUSH1 0x0 DUP1 REVERT JUMPDEST PUSH1 0x0 DUP1 REVERT JUMPDEST PUSH1 0x0 PUSH1 0x1F NOT PUSH1 0x1F DUP4 ADD AND SWAP1 POP SWAP2 SWAP1 POP JUMP JUMPDEST PUSH32 0x4E487B7100000000000000000000000000000000000000000000000000000000 PUSH1 0x0 MSTORE PUSH1 0x41 PUSH1 0x4 MSTORE PUSH1 0x24 PUSH1 0x0 REVERT JUMPDEST PUSH3 0x14E DUP3 PUSH3 0x103 JUMP JUMPDEST DUP2 ADD DUP2 DUP2 LT PUSH8 0xFFFFFFFFFFFFFFFF DUP3 GT OR ISZERO PUSH3 0x170 JUMPI PUSH3 0x16F PUSH3 0x114 JUMP JUMPDEST JUMPDEST DUP1 PUSH1 0x40 MSTORE POP POP POP JUMP JUMPDEST PUSH1 0x0 PUSH3 0x185 PUSH3 0xE5 JUMP JUMPDEST SWAP1 POP PUSH3 0x193 DUP3 DUP3 PUSH3 0x143 JUMP JUMPDEST SWAP2 SWAP1 POP JUMP JUMPDEST PUSH1 0x0 PUSH8 0xFFFFFFFFFFFFFFFF DUP3 GT ISZERO PUSH3 0x1B6 JUMPI PUSH3 0x1B5 PUSH3 0x114 JUMP JUMPDEST JUMPDEST PUSH3 0x1C1 DUP3 PUSH3 0x103 JUMP JUMPDEST SWAP1 POP PUSH1 0x20 DUP2 ADD SWAP1 POP SWAP2 SWAP1 POP JUMP JUMPDEST PUSH1 0x0 JUMPDEST DUP4 DUP2 LT ISZERO PUSH3 0x1EE JUMPI DUP1 DUP3 ADD MLOAD DUP2 DUP5 ADD MSTORE PUSH1 0x20 DUP2 ADD SWAP1 POP PUSH3 0x1D1 JUMP JUMPDEST PUSH1 0x0 DUP5 DUP5 ADD MSTORE POP POP POP POP JUMP JUMPDEST PUSH1 0x0 PUSH3 0x211 PUSH3 0x20B DUP5 PUSH3 0x198 JUMP JUMPDEST PUSH3 0x179 JUMP JUMPDEST SWAP1 POP DUP3 DUP2 MSTORE PUSH1 0x20 DUP2 ADD DUP5 DUP5 DUP5 ADD GT ISZERO PUSH3 0x230 JUMPI PUSH3 0x22F PUSH3 0xFE JUMP JUMPDEST JUMPDEST PUSH3 0x23D DUP5 DUP3 DUP6 PUSH3 0x1CE JUMP JUMPDEST POP SWAP4 SWAP3 POP POP POP JUMP JUMPDEST PUSH1 0x0 DUP3 PUSH1 0x1F DUP4 ADD SLT PUSH3 0x25D JUMPI PUSH3 0x25C PUSH3 0xF9 JUMP JUMPDEST JUMPDEST DUP2 MLOAD PUSH3 0x26F DUP5 DUP3 PUSH1 0x20 DUP7 ADD PUSH3 0x1FA JUMP JUMPDEST SWAP2 POP POP SWAP3 SWAP2 POP POP JUMP JUMPDEST PUSH1 0x0 DUP2 SWAP1 POP SWAP2 SWAP1 POP JUMP JUMPDEST PUSH3 0x28D DUP2 PUSH3 0x278 JUMP JUMPDEST DUP2 EQ PUSH3 0x299 JUMPI PUSH1 0x0 DUP1 REVERT JUMPDEST POP JUMP JUMPDEST PUSH1 0x0 DUP2 MLOAD SWAP1 POP PUSH3 0x2AD DUP2 PUSH3 0x282 JUMP JUMPDEST SWAP3 SWAP2 POP POP JUMP JUMPDEST PUSH1 0x0 DUP1 PUSH1 0x0 PUSH1 0x60 DUP5 DUP7 SUB SLT ISZERO PUSH3 0x2CF JUMPI PUSH3 0x2CE PUSH3 0xEF JUMP JUMPDEST JUMPDEST PUSH1 0x0 DUP5 ADD MLOAD PUSH8 0xFFFFFFFFFFFFFFFF DUP2 GT ISZERO PUSH3 0x2F0 JUMPI PUSH3 0x2EF PUSH3 0xF4 JUMP JUMPDEST JUMPDEST PUSH3 0x2FE DUP7 DUP3 DUP8 ADD PUSH3 0x245 JUMP JUMPDEST SWAP4 POP POP PUSH1 0x20 DUP5 ADD MLOAD PUSH8 0xFFFFFFFFFFFFFFFF DUP2 GT ISZERO PUSH3 0x322 JUMPI PUSH3 0x321 PUSH3 0xF4 JUMP JUMPDEST JUMPDEST PUSH3 0x330 DUP7 DUP3 DUP8 ADD PUSH3 0x245 JUMP JUMPDEST SWAP3 POP POP PUSH1 0x40 PUSH3 0x343 DUP7 DUP3 DUP8 ADD PUSH3 0x29C JUMP JUMPDEST SWAP2 POP POP SWAP3 POP SWAP3 POP SWAP3 JUMP JUMPDEST PUSH1 0x0 DUP2 MLOAD SWAP1 POP SWAP2 SWAP1 POP JUMP JUMPDEST PUSH32 0x4E487B7100000000000000000000000000000000000000000000000000000000 PUSH1 0x0 MSTORE PUSH1 0x22 PUSH1 0x4 MSTORE PUSH1 0x24 PUSH1 0x0 REVERT JUMPDEST PUSH1 0x0 PUSH1 0x2 DUP3 DIV SWAP1 POP PUSH1 0x1 DUP3 AND DUP1 PUSH3 0x3A0 JUMPI PUSH1 0x7F DUP3 AND SWAP2 POP JUMPDEST PUSH1 0x20 DUP3 LT DUP2 SUB PUSH3 0x3B6 JUMPI PUSH3 0x3B5 PUSH3 0x358 JUMP JUMPDEST JUMPDEST POP SWAP2 SWAP1 POP JUMP JUMPDEST PUSH1 0x0 DUP2 SWAP1 POP DUP2 PUSH1 0x0 MSTORE PUSH1 0x20 PUSH1 0x0 KECCAK256 SWAP1 POP SWAP2 SWAP1 POP JUMP JUMPDEST PUSH1 0x0 PUSH1 0x20 PUSH1 0x1F DUP4 ADD DIV SWAP1 POP SWAP2 SWAP1 POP JUMP JUMPDEST PUSH1 0x0 DUP3 DUP3 SHL SWAP1 POP SWAP3 SWAP2 POP POP JUMP JUMPDEST PUSH1 0x0 PUSH1 0x8 DUP4 MUL PUSH3 0x420 PUSH32 0xFFFFFFFFFFFFFFFFFFFFFFFFFFFFFFFFFFFFFFFFFFFFFFFFFFFFFFFFFFFFFFFF DUP3 PUSH3 0x3E1 JUMP JUMPDEST PUSH3 0x42C DUP7 DUP4 PUSH3 0x3E1 JUMP JUMPDEST SWAP6 POP DUP1 NOT DUP5 AND SWAP4 POP DUP1 DUP7 AND DUP5 OR SWAP3 POP POP POP SWAP4 SWAP3 POP POP POP JUMP JUMPDEST PUSH1 0x0 DUP2 SWAP1 POP SWAP2 SWAP1 POP JUMP JUMPDEST PUSH1 0x0 PUSH3 0x46F PUSH3 0x469 PUSH3 0x463 DUP5 PUSH3 0x278 JUMP JUMPDEST PUSH3 0x444 JUMP JUMPDEST PUSH3 0x278 JUMP JUMPDEST SWAP1 POP SWAP2 SWAP1 POP JUMP JUMPDEST PUSH1 0x0 DUP2 SWAP1 POP SWAP2 SWAP1 POP JUMP JUMPDEST PUSH3 0x48B DUP4 PUSH3 0x44E JUMP JUMPDEST PUSH3 0x4A3 PUSH3 0x49A DUP3 PUSH3 0x476 JUMP JUMPDEST DUP5 DUP5 SLOAD PUSH3 0x3EE JUMP JUMPDEST DUP3 SSTORE POP POP POP POP JUMP JUMPDEST PUSH1 0x0 SWAP1 JUMP JUMPDEST PUSH3 0x4BA PUSH3 0x4AB JUMP JUMPDEST PUSH3 0x4C7 DUP2 DUP5 DUP5 PUSH3 0x480 JUMP JUMPDEST POP POP POP JUMP JUMPDEST JUMPDEST DUP2 DUP2 LT ISZERO PUSH3 0x4EF JUMPI PUSH3 0x4E3 PUSH1 0x0 DUP3 PUSH3 0x4B0 JUMP JUMPDEST PUSH1 0x1 DUP2 ADD SWAP1 POP PUSH3 0x4CD JUMP JUMPDEST POP POP JUMP JUMPDEST PUSH1 0x1F DUP3 GT ISZERO PUSH3 0x53E JUMPI PUSH3 0x508 DUP2 PUSH3 0x3BC JUMP JUMPDEST PUSH3 0x513 DUP5 PUSH3 0x3D1 JUMP JUMPDEST DUP2 ADD PUSH1 0x20 DUP6 LT ISZERO PUSH3 0x523 JUMPI DUP2 SWAP1 POP JUMPDEST PUSH3 0x53B PUSH3 0x532 DUP6 PUSH3 0x3D1 JUMP JUMPDEST DUP4 ADD DUP3 PUSH3 0x4CC JUMP JUMPDEST POP POP JUMPDEST POP POP POP JUMP JUMPDEST PUSH1 0x0 DUP3 DUP3 SHR SWAP1 POP SWAP3 SWAP2 POP POP JUMP JUMPDEST PUSH1 0x0 PUSH3 0x563 PUSH1 0x0 NOT DUP5 PUSH1 0x8 MUL PUSH3 0x543 JUMP JUMPDEST NOT DUP1 DUP4 AND SWAP2 POP POP SWAP3 SWAP2 POP POP JUMP JUMPDEST PUSH1 0x0 PUSH3 0x57E DUP4 DUP4 PUSH3 0x550 JUMP JUMPDEST SWAP2 POP DUP3 PUSH1 0x2 MUL DUP3 OR SWAP1 POP SWAP3 SWAP2 POP POP JUMP JUMPDEST PUSH3 0x599 DUP3 PUSH3 0x34D JUMP JUMPDEST PUSH8 0xFFFFFFFFFFFFFFFF DUP2 GT ISZERO PUSH3 0x5B5 JUMPI PUSH3 0x5B4 PUSH3 0x114 JUMP JUMPDEST JUMPDEST PUSH3 0x5C1 DUP3 SLOAD PUSH3 0x387 JUMP JUMPDEST PUSH3 0x5CE DUP3 DUP3 DUP6 PUSH3 0x4F3 JUMP JUMPDEST PUSH1 0x0 PUSH1 0x20 SWAP1 POP PUSH1 0x1F DUP4 GT PUSH1 0x1 DUP2 EQ PUSH3 0x606 JUMPI PUSH1 0x0 DUP5 ISZERO PUSH3 0x5F1 JUMPI DUP3 DUP8 ADD MLOAD SWAP1 POP JUMPDEST PUSH3 0x5FD DUP6 DUP3 PUSH3 0x570 JUMP JUMPDEST DUP7 SSTORE POP PUSH3 0x66D JUMP JUMPDEST PUSH1 0x1F NOT DUP5 AND PUSH3 0x616 DUP7 PUSH3 0x3BC JUMP JUMPDEST PUSH1 0x0 JUMPDEST DUP3 DUP2 LT ISZERO PUSH3 0x640 JUMPI DUP5 DUP10 ADD MLOAD DUP3 SSTORE PUSH1 0x1 DUP3 ADD SWAP2 POP PUSH1 0x20 DUP6 ADD SWAP5 POP PUSH1 0x20 DUP2 ADD SWAP1 POP PUSH3 0x619 JUMP JUMPDEST DUP7 DUP4 LT ISZERO PUSH3 0x660 JUMPI DUP5 DUP10 ADD MLOAD PUSH3 0x65C PUSH1 0x1F DUP10 AND DUP3 PUSH3 0x550 JUMP JUMPDEST DUP4 SSTORE POP JUMPDEST PUSH1 0x1 PUSH1 0x2 DUP9 MUL ADD DUP9 SSTORE POP POP POP JUMPDEST POP POP POP POP POP POP JUMP JUMPDEST PUSH32 0x4E487B7100000000000000000000000000000000000000000000000000000000 PUSH1 0x0 MSTORE PUSH1 0x11 PUSH1 0x4 MSTORE PUSH1 0x24 PUSH1 0x0 REVERT JUMPDEST PUSH1 0x0 PUSH3 0x6B1 DUP3 PUSH3 0x278 JUMP JUMPDEST SWAP2 POP PUSH3 0x6BE DUP4 PUSH3 0x278 JUMP JUMPDEST SWAP3 POP DUP3 DUP3 MUL PUSH3 0x6CE DUP2 PUSH3 0x278 JUMP JUMPDEST SWAP2 POP DUP3 DUP3 DIV DUP5 EQ DUP4 ISZERO OR PUSH3 0x6E8 JUMPI PUSH3 0x6E7 PUSH3 0x675 JUMP JUMPDEST JUMPDEST POP SWAP3 SWAP2 POP POP JUMP JUMPDEST PUSH2 0x27AF DUP1 PUSH3 0x6FF PUSH1 0x0 CODECOPY PUSH1 0x0 RETURN INVALID PUSH1 0x80 PUSH1 0x40 MSTORE CALLVALUE DUP1 ISZERO PUSH2 0x10 JUMPI PUSH1 0x0 DUP1 REVERT JUMPDEST POP PUSH1 0x4 CALLDATASIZE LT PUSH2 0x12C JUMPI PUSH1 0x0 CALLDATALOAD PUSH1 0xE0 SHR DUP1 PUSH4 0x95D89B41 GT PUSH2 0xAD JUMPI DUP1 PUSH4 0xD5ABEB01 GT PUSH2 0x71 JUMPI DUP1 PUSH4 0xD5ABEB01 EQ PUSH2 0x367 JUMPI DUP1 PUSH4 0xDB3AD22C EQ PUSH2 0x385 JUMPI DUP1 PUSH4 0xE29301F9 EQ PUSH2 0x3A3 JUMPI DUP1 PUSH4 0xE985E9C5 EQ PUSH2 0x3D3 JUMPI DUP1 PUSH4 0xEFF0730D EQ PUSH2 0x403 JUMPI PUSH2 0x12C JUMP JUMPDEST DUP1 PUSH4 0x95D89B41 EQ PUSH2 0x2B1 JUMPI DUP1 PUSH4 0xA22CB465 EQ PUSH2 0x2CF JUMPI DUP1 PUSH4 0xB88D4FDE EQ PUSH2 0x2EB JUMPI DUP1 PUSH4 0xB8BA6007 EQ PUSH2 0x307 JUMPI DUP1 PUSH4 0xC87B56DD EQ PUSH2 0x337 JUMPI PUSH2 0x12C JUMP JUMPDEST DUP1 PUSH4 0x23B872DD GT PUSH2 0xF4 JUMPI DUP1 PUSH4 0x23B872DD EQ PUSH2 0x1E9 JUMPI DUP1 PUSH4 0x42842E0E EQ PUSH2 0x205 JUMPI DUP1 PUSH4 0x4BE3403C EQ PUSH2 0x221 JUMPI DUP1 PUSH4 0x6352211E EQ PUSH2 0x251 JUMPI DUP1 PUSH4 0x70A08231 EQ PUSH2 0x281 JUMPI PUSH2 0x12C JUMP JUMPDEST DUP1 PUSH4 0x1FFC9A7 EQ PUSH2 0x131 JUMPI DUP1 PUSH4 0x6FDDE03 EQ PUSH2 0x161 JUMPI DUP1 PUSH4 0x81812FC EQ PUSH2 0x17F JUMPI DUP1 PUSH4 0x95EA7B3 EQ PUSH2 0x1AF JUMPI DUP1 PUSH4 0x18160DDD EQ PUSH2 0x1CB JUMPI JUMPDEST PUSH1 0x0 DUP1 REVERT JUMPDEST PUSH2 0x14B PUSH1 0x4 DUP1 CALLDATASIZE SUB DUP2 ADD SWAP1 PUSH2 0x146 SWAP2 SWAP1 PUSH2 0x1E56 JUMP JUMPDEST PUSH2 0x433 JUMP JUMPDEST PUSH1 0x40 MLOAD PUSH2 0x158 SWAP2 SWAP1 PUSH2 0x1E9E JUMP JUMPDEST PUSH1 0x40 MLOAD DUP1 SWAP2 SUB SWAP1 RETURN JUMPDEST PUSH2 0x169 PUSH2 0x515 JUMP JUMPDEST PUSH1 0x40 MLOAD PUSH2 0x176 SWAP2 SWAP1 PUSH2 0x1F49 JUMP JUMPDEST PUSH1 0x40 MLOAD DUP1 SWAP2 SUB SWAP1 RETURN JUMPDEST PUSH2 0x199 PUSH1 0x4 DUP1 CALLDATASIZE SUB DUP2 ADD SWAP1 PUSH2 0x194 SWAP2 SWAP1 PUSH2 0x1FA1 JUMP JUMPDEST PUSH2 0x5A7 JUMP JUMPDEST PUSH1 0x40 MLOAD PUSH2 0x1A6 SWAP2 SWAP1 PUSH2 0x200F JUMP JUMPDEST PUSH1 0x40 MLOAD DUP1 SWAP2 SUB SWAP1 RETURN JUMPDEST PUSH2 0x1C9 PUSH1 0x4 DUP1 CALLDATASIZE SUB DUP2 ADD SWAP1 PUSH2 0x1C4 SWAP2 SWAP1 PUSH2 0x2056 JUMP JUMPDEST PUSH2 0x623 JUMP JUMPDEST STOP JUMPDEST PUSH2 0x1D3 PUSH2 0x727 JUMP JUMPDEST PUSH1 0x40 MLOAD PUSH2 0x1E0 SWAP2 SWAP1 PUSH2 0x20A5 JUMP JUMPDEST PUSH1 0x40 MLOAD DUP1 SWAP2 SUB SWAP1 RETURN JUMPDEST PUSH2 0x203 PUSH1 0x4 DUP1 CALLDATASIZE SUB DUP2 ADD SWAP1 PUSH2 0x1FE SWAP2 SWAP1 PUSH2 0x20C0 JUMP JUMPDEST PUSH2 0x73E JUMP JUMPDEST STOP JUMPDEST PUSH2 0x21F PUSH1 0x4 DUP1 CALLDATASIZE SUB DUP2 ADD SWAP1 PUSH2 0x21A SWAP2 SWAP1 PUSH2 0x20C0 JUMP JUMPDEST PUSH2 0x74E JUMP JUMPDEST STOP JUMPDEST PUSH2 0x23B PUSH1 0x4 DUP1 CALLDATASIZE SUB DUP2 ADD SWAP1 PUSH2 0x236 SWAP2 SWAP1 PUSH2 0x1FA1 JUMP JUMPDEST PUSH2 0x76E JUMP JUMPDEST PUSH1 0x40 MLOAD PUSH2 0x248 SWAP2 SWAP1 PUSH2 0x20A5 JUMP JUMPDEST PUSH1 0x40 MLOAD DUP1 SWAP2 SUB SWAP1 RETURN JUMPDEST PUSH2 0x26B PUSH1 0x4 DUP1 CALLDATASIZE SUB DUP2 ADD SWAP1 PUSH2 0x266 SWAP2 SWAP1 PUSH2 0x1FA1 JUMP JUMPDEST PUSH2 0x7D1 JUMP JUMPDEST PUSH1 0x40 MLOAD PUSH2 0x278 SWAP2 SWAP1 PUSH2 0x200F JUMP JUMPDEST PUSH1 0x40 MLOAD DUP1 SWAP2 SUB SWAP1 RETURN JUMPDEST PUSH2 0x29B PUSH1 0x4 DUP1 CALLDATASIZE SUB DUP2 ADD SWAP1 PUSH2 0x296 SWAP2 SWAP1 PUSH2 0x2113 JUMP JUMPDEST PUSH2 0x7E7 JUMP JUMPDEST PUSH1 0x40 MLOAD PUSH2 0x2A8 SWAP2 SWAP1 PUSH2 0x20A5 JUMP JUMPDEST PUSH1 0x40 MLOAD DUP1 SWAP2 SUB SWAP1 RETURN JUMPDEST PUSH2 0x2B9 PUSH2 0x8B6 JUMP JUMPDEST PUSH1 0x40 MLOAD PUSH2 0x2C6 SWAP2 SWAP1 PUSH2 0x1F49 JUMP JUMPDEST PUSH1 0x40 MLOAD DUP1 SWAP2 SUB SWAP1 RETURN JUMPDEST PUSH2 0x2E9 PUSH1 0x4 DUP1 CALLDATASIZE SUB DUP2 ADD SWAP1 PUSH2 0x2E4 SWAP2 SWAP1 PUSH2 0x216C JUMP JUMPDEST PUSH2 0x948 JUMP JUMPDEST STOP JUMPDEST PUSH2 0x305 PUSH1 0x4 DUP1 CALLDATASIZE SUB DUP2 ADD SWAP1 PUSH2 0x300 SWAP2 SWAP1 PUSH2 0x22E1 JUMP JUMPDEST PUSH2 0xABF JUMP JUMPDEST STOP JUMPDEST PUSH2 0x321 PUSH1 0x4 DUP1 CALLDATASIZE SUB DUP2 ADD SWAP1 PUSH2 0x31C SWAP2 SWAP1 PUSH2 0x2113 JUMP JUMPDEST PUSH2 0xB37 JUMP JUMPDEST PUSH1 0x40 MLOAD PUSH2 0x32E SWAP2 SWAP1 PUSH2 0x20A5 JUMP JUMPDEST PUSH1 0x40 MLOAD DUP1 SWAP2 SUB SWAP1 RETURN JUMPDEST PUSH2 0x351 PUSH1 0x4 DUP1 CALLDATASIZE SUB DUP2 ADD SWAP1 PUSH2 0x34C SWAP2 SWAP1 PUSH2 0x1FA1 JUMP JUMPDEST PUSH2 0xCA2 JUMP JUMPDEST PUSH1 0x40 MLOAD PUSH2 0x35E SWAP2 SWAP1 PUSH2 0x1F49 JUMP JUMPDEST PUSH1 0x40 MLOAD DUP1 SWAP2 SUB SWAP1 RETURN JUMPDEST PUSH2 0x36F PUSH2 0xD40 JUMP JUMPDEST PUSH1 0x40 MLOAD PUSH2 0x37C SWAP2 SWAP1 PUSH2 0x20A5 JUMP JUMPDEST PUSH1 0x40 MLOAD DUP1 SWAP2 SUB SWAP1 RETURN JUMPDEST PUSH2 0x38D PUSH2 0xD57 JUMP JUMPDEST PUSH1 0x40 MLOAD PUSH2 0x39A SWAP2 SWAP1 PUSH2 0x20A5 JUMP JUMPDEST PUSH1 0x40 MLOAD DUP1 SWAP2 SUB SWAP1 RETURN JUMPDEST PUSH2 0x3BD PUSH1 0x4 DUP1 CALLDATASIZE SUB DUP2 ADD SWAP1 PUSH2 0x3B8 SWAP2 SWAP1 PUSH2 0x1FA1 JUMP JUMPDEST PUSH2 0xD61 JUMP JUMPDEST PUSH1 0x40 MLOAD PUSH2 0x3CA SWAP2 SWAP1 PUSH2 0x20A5 JUMP JUMPDEST PUSH1 0x40 MLOAD DUP1 SWAP2 SUB SWAP1 RETURN JUMPDEST PUSH2 0x3ED PUSH1 0x4 DUP1 CALLDATASIZE SUB DUP2 ADD SWAP1 PUSH2 0x3E8 SWAP2 SWAP1 PUSH2 0x2364 JUMP JUMPDEST PUSH2 0xDC3 JUMP JUMPDEST PUSH1 0x40 MLOAD PUSH2 0x3FA SWAP2 SWAP1 PUSH2 0x1E9E JUMP JUMPDEST PUSH1 0x40 MLOAD DUP1 SWAP2 SUB SWAP1 RETURN JUMPDEST PUSH2 0x41D PUSH1 0x4 DUP1 CALLDATASIZE SUB DUP2 ADD SWAP1 PUSH2 0x418 SWAP2 SWAP1 PUSH2 0x2056 JUMP JUMPDEST PUSH2 0xE57 JUMP JUMPDEST PUSH1 0x40 MLOAD PUSH2 0x42A SWAP2 SWAP1 PUSH2 0x20A5 JUMP JUMPDEST PUSH1 0x40 MLOAD DUP1 SWAP2 SUB SWAP1 RETURN JUMPDEST PUSH1 0x0 PUSH32 0x80AC58CD00000000000000000000000000000000000000000000000000000000 PUSH28 0xFFFFFFFFFFFFFFFFFFFFFFFFFFFFFFFFFFFFFFFFFFFFFFFFFFFFFFFF NOT AND DUP3 PUSH28 0xFFFFFFFFFFFFFFFFFFFFFFFFFFFFFFFFFFFFFFFFFFFFFFFFFFFFFFFF NOT AND EQ DUP1 PUSH2 0x4FE JUMPI POP PUSH32 0x5B5E139F00000000000000000000000000000000000000000000000000000000 PUSH28 0xFFFFFFFFFFFFFFFFFFFFFFFFFFFFFFFFFFFFFFFFFFFFFFFFFFFFFFFF NOT AND DUP3 PUSH28 0xFFFFFFFFFFFFFFFFFFFFFFFFFFFFFFFFFFFFFFFFFFFFFFFFFFFFFFFF NOT AND EQ JUMPDEST DUP1 PUSH2 0x50E JUMPI POP PUSH2 0x50D DUP3 PUSH2 0xEC8 JUMP JUMPDEST JUMPDEST SWAP1 POP SWAP2 SWAP1 POP JUMP JUMPDEST PUSH1 0x60 PUSH1 0x7 DUP1 SLOAD PUSH2 0x524 SWAP1 PUSH2 0x23D3 JUMP JUMPDEST DUP1 PUSH1 0x1F ADD PUSH1 0x20 DUP1 SWAP2 DIV MUL PUSH1 0x20 ADD PUSH1 0x40 MLOAD SWAP1 DUP2 ADD PUSH1 0x40 MSTORE DUP1 SWAP3 SWAP2 SWAP1 DUP2 DUP2 MSTORE PUSH1 0x20 ADD DUP3 DUP1 SLOAD PUSH2 0x550 SWAP1 PUSH2 0x23D3 JUMP JUMPDEST DUP1 ISZERO PUSH2 0x59D JUMPI DUP1 PUSH1 0x1F LT PUSH2 0x572 JUMPI PUSH2 0x100 DUP1 DUP4 SLOAD DIV MUL DUP4 MSTORE SWAP2 PUSH1 0x20 ADD SWAP2 PUSH2 0x59D JUMP JUMPDEST DUP3 ADD SWAP2 SWAP1 PUSH1 0x0 MSTORE PUSH1 0x20 PUSH1 0x0 KECCAK256 SWAP1 JUMPDEST DUP2 SLOAD DUP2 MSTORE SWAP1 PUSH1 0x1 ADD SWAP1 PUSH1 0x20 ADD DUP1 DUP4 GT PUSH2 0x580 JUMPI DUP3 SWAP1 SUB PUSH1 0x1F AND DUP3 ADD SWAP2 JUMPDEST POP POP POP POP POP SWAP1 POP SWAP1 JUMP JUMPDEST PUSH1 0x0 PUSH2 0x5B2 DUP3 PUSH2 0xF32 JUMP JUMPDEST PUSH2 0x5E8 JUMPI PUSH1 0x40 MLOAD PUSH32 0xCF4700E400000000000000000000000000000000000000000000000000000000 DUP2 MSTORE PUSH1 0x4 ADD PUSH1 0x40 MLOAD DUP1 SWAP2 SUB SWAP1 REVERT JUMPDEST PUSH1 0xB PUSH1 0x0 DUP4 DUP2 MSTORE PUSH1 0x20 ADD SWAP1 DUP2 MSTORE PUSH1 0x20 ADD PUSH1 0x0 KECCAK256 PUSH1 0x0 SWAP1 SLOAD SWAP1 PUSH2 0x100 EXP SWAP1 DIV PUSH20 0xFFFFFFFFFFFFFFFFFFFFFFFFFFFFFFFFFFFFFFFF AND SWAP1 POP SWAP2 SWAP1 POP JUMP JUMPDEST PUSH1 0x0 PUSH2 0x62E DUP3 PUSH2 0x7D1 JUMP JUMPDEST SWAP1 POP DUP1 PUSH20 0xFFFFFFFFFFFFFFFFFFFFFFFFFFFFFFFFFFFFFFFF AND DUP4 PUSH20 0xFFFFFFFFFFFFFFFFFFFFFFFFFFFFFFFFFFFFFFFF AND SUB PUSH2 0x695 JUMPI PUSH1 0x40 MLOAD PUSH32 0x943F7B8C00000000000000000000000000000000000000000000000000000000 DUP2 MSTORE PUSH1 0x4 ADD PUSH1 0x40 MLOAD DUP1 SWAP2 SUB SWAP1 REVERT JUMPDEST DUP1 PUSH20 0xFFFFFFFFFFFFFFFFFFFFFFFFFFFFFFFFFFFFFFFF AND PUSH2 0x6B4 PUSH2 0xF80 JUMP JUMPDEST PUSH20 0xFFFFFFFFFFFFFFFFFFFFFFFFFFFFFFFFFFFFFFFF AND EQ PUSH2 0x717 JUMPI PUSH2 0x6E0 DUP2 PUSH2 0x6DB PUSH2 0xF80 JUMP JUMPDEST PUSH2 0xDC3 JUMP JUMPDEST PUSH2 0x716 JUMPI PUSH1 0x40 MLOAD PUSH32 0xCFB3B94200000000000000000000000000000000000000000000000000000000 DUP2 MSTORE PUSH1 0x4 ADD PUSH1 0x40 MLOAD DUP1 SWAP2 SUB SWAP1 REVERT JUMPDEST JUMPDEST PUSH2 0x722 DUP4 DUP4 DUP4 PUSH2 0xF88 JUMP JUMPDEST POP POP POP JUMP JUMPDEST PUSH1 0x0 PUSH2 0x731 PUSH2 0x103A JUMP JUMPDEST PUSH1 0x6 SLOAD PUSH1 0x4 SLOAD SUB SUB SWAP1 POP SWAP1 JUMP JUMPDEST PUSH2 0x749 DUP4 DUP4 DUP4 PUSH2 0x103F JUMP JUMPDEST POP POP POP JUMP JUMPDEST PUSH2 0x769 DUP4 DUP4 DUP4 PUSH1 0x40 MLOAD DUP1 PUSH1 0x20 ADD PUSH1 0x40 MSTORE DUP1 PUSH1 0x0 DUP2 MSTORE POP PUSH2 0xABF JUMP JUMPDEST POP POP POP JUMP JUMPDEST PUSH1 0x0 PUSH1 0x2 SLOAD DUP3 LT ISZERO PUSH2 0x780 JUMPI PUSH1 0x2 SLOAD SWAP2 POP JUMPDEST PUSH1 0x0 PUSH2 0x7AC PUSH3 0x16E360 PUSH2 0x79E PUSH1 0x2 SLOAD DUP7 PUSH2 0x17DB SWAP1 SWAP2 SWAP1 PUSH4 0xFFFFFFFF AND JUMP JUMPDEST PUSH2 0x17F1 SWAP1 SWAP2 SWAP1 PUSH4 0xFFFFFFFF AND JUMP JUMPDEST SWAP1 POP PUSH1 0x0 PUSH2 0x7C5 DUP3 PUSH1 0x1 SLOAD PUSH2 0x1807 SWAP1 SWAP2 SWAP1 PUSH4 0xFFFFFFFF AND JUMP JUMPDEST SWAP1 POP DUP1 SWAP3 POP POP POP SWAP2 SWAP1 POP JUMP JUMPDEST PUSH1 0x0 PUSH2 0x7DC DUP3 PUSH2 0x181D JUMP JUMPDEST PUSH1 0x0 ADD MLOAD SWAP1 POP SWAP2 SWAP1 POP JUMP JUMPDEST PUSH1 0x0 DUP1 PUSH20 0xFFFFFFFFFFFFFFFFFFFFFFFFFFFFFFFFFFFFFFFF AND DUP3 PUSH20 0xFFFFFFFFFFFFFFFFFFFFFFFFFFFFFFFFFFFFFFFF AND SUB PUSH2 0x84E JUMPI PUSH1 0x40 MLOAD PUSH32 0x8F4EB60400000000000000000000000000000000000000000000000000000000 DUP2 MSTORE PUSH1 0x4 ADD PUSH1 0x40 MLOAD DUP1 SWAP2 SUB SWAP1 REVERT JUMPDEST PUSH1 0xA PUSH1 0x0 DUP4 PUSH20 0xFFFFFFFFFFFFFFFFFFFFFFFFFFFFFFFFFFFFFFFF AND PUSH20 0xFFFFFFFFFFFFFFFFFFFFFFFFFFFFFFFFFFFFFFFF AND DUP2 MSTORE PUSH1 0x20 ADD SWAP1 DUP2 MSTORE PUSH1 0x20 ADD PUSH1 0x0 KECCAK256 PUSH1 0x0 ADD PUSH1 0x0 SWAP1 SLOAD SWAP1 PUSH2 0x100 EXP SWAP1 DIV PUSH8 0xFFFFFFFFFFFFFFFF AND PUSH8 0xFFFFFFFFFFFFFFFF AND SWAP1 POP SWAP2 SWAP1 POP JUMP JUMPDEST PUSH1 0x60 PUSH1 0x8 DUP1 SLOAD PUSH2 0x8C5 SWAP1 PUSH2 0x23D3 JUMP JUMPDEST DUP1 PUSH1 0x1F ADD PUSH1 0x20 DUP1 SWAP2 DIV MUL PUSH1 0x20 ADD PUSH1 0x40 MLOAD SWAP1 DUP2 ADD PUSH1 0x40 MSTORE DUP1 SWAP3 SWAP2 SWAP1 DUP2 DUP2 MSTORE PUSH1 0x20 ADD DUP3 DUP1 SLOAD PUSH2 0x8F1 SWAP1 PUSH2 0x23D3 JUMP JUMPDEST DUP1 ISZERO PUSH2 0x93E JUMPI DUP1 PUSH1 0x1F LT PUSH2 0x913 JUMPI PUSH2 0x100 DUP1 DUP4 SLOAD DIV MUL DUP4 MSTORE SWAP2 PUSH1 0x20 ADD SWAP2 PUSH2 0x93E JUMP JUMPDEST DUP3 ADD SWAP2 SWAP1 PUSH1 0x0 MSTORE PUSH1 0x20 PUSH1 0x0 KECCAK256 SWAP1 JUMPDEST DUP2 SLOAD DUP2 MSTORE SWAP1 PUSH1 0x1 ADD SWAP1 PUSH1 0x20 ADD DUP1 DUP4 GT PUSH2 0x921 JUMPI DUP3 SWAP1 SUB PUSH1 0x1F AND DUP3 ADD SWAP2 JUMPDEST POP POP POP POP POP SWAP1 POP SWAP1 JUMP JUMPDEST PUSH2 0x950 PUSH2 0xF80 JUMP JUMPDEST PUSH20 0xFFFFFFFFFFFFFFFFFFFFFFFFFFFFFFFFFFFFFFFF AND DUP3 PUSH20 0xFFFFFFFFFFFFFFFFFFFFFFFFFFFFFFFFFFFFFFFF AND SUB PUSH2 0x9B4 JUMPI PUSH1 0x40 MLOAD PUSH32 0xB06307DB00000000000000000000000000000000000000000000000000000000 DUP2 MSTORE PUSH1 0x4 ADD PUSH1 0x40 MLOAD DUP1 SWAP2 SUB SWAP1 REVERT JUMPDEST DUP1 PUSH1 0xC PUSH1 0x0 PUSH2 0x9C1 PUSH2 0xF80 JUMP JUMPDEST PUSH20 0xFFFFFFFFFFFFFFFFFFFFFFFFFFFFFFFFFFFFFFFF AND PUSH20 0xFFFFFFFFFFFFFFFFFFFFFFFFFFFFFFFFFFFFFFFF AND DUP2 MSTORE PUSH1 0x20 ADD SWAP1 DUP2 MSTORE PUSH1 0x20 ADD PUSH1 0x0 KECCAK256 PUSH1 0x0 DUP5 PUSH20 0xFFFFFFFFFFFFFFFFFFFFFFFFFFFFFFFFFFFFFFFF AND PUSH20 0xFFFFFFFFFFFFFFFFFFFFFFFFFFFFFFFFFFFFFFFF AND DUP2 MSTORE PUSH1 0x20 ADD SWAP1 DUP2 MSTORE PUSH1 0x20 ADD PUSH1 0x0 KECCAK256 PUSH1 0x0 PUSH2 0x100 EXP DUP2 SLOAD DUP2 PUSH1 0xFF MUL NOT AND SWAP1 DUP4 ISZERO ISZERO MUL OR SWAP1 SSTORE POP DUP2 PUSH20 0xFFFFFFFFFFFFFFFFFFFFFFFFFFFFFFFFFFFFFFFF AND PUSH2 0xA6E PUSH2 0xF80 JUMP JUMPDEST PUSH20 0xFFFFFFFFFFFFFFFFFFFFFFFFFFFFFFFFFFFFFFFF AND PUSH32 0x17307EAB39AB6107E8899845AD3D59BD9653F200F220920489CA2B5937696C31 DUP4 PUSH1 0x40 MLOAD PUSH2 0xAB3 SWAP2 SWAP1 PUSH2 0x1E9E JUMP JUMPDEST PUSH1 0x40 MLOAD DUP1 SWAP2 SUB SWAP1 LOG3 POP POP JUMP JUMPDEST PUSH2 0xACA DUP5 DUP5 DUP5 PUSH2 0x103F JUMP JUMPDEST PUSH2 0xAE9 DUP4 PUSH20 0xFFFFFFFFFFFFFFFFFFFFFFFFFFFFFFFFFFFFFFFF AND PUSH2 0x1AA8 JUMP JUMPDEST ISZERO PUSH2 0xB31 JUMPI PUSH2 0xAFA DUP5 DUP5 DUP5 DUP5 PUSH2 0x1ACB JUMP JUMPDEST PUSH2 0xB30 JUMPI PUSH1 0x40 MLOAD PUSH32 0xD1A57ED600000000000000000000000000000000000000000000000000000000 DUP2 MSTORE PUSH1 0x4 ADD PUSH1 0x40 MLOAD DUP1 SWAP2 SUB SWAP1 REVERT JUMPDEST JUMPDEST POP POP POP POP JUMP JUMPDEST PUSH1 0x0 DUP1 PUSH2 0xB94 PUSH1 0xD PUSH1 0x0 DUP6 PUSH20 0xFFFFFFFFFFFFFFFFFFFFFFFFFFFFFFFFFFFFFFFF AND PUSH20 0xFFFFFFFFFFFFFFFFFFFFFFFFFFFFFFFFFFFFFFFF AND DUP2 MSTORE PUSH1 0x20 ADD SWAP1 DUP2 MSTORE PUSH1 0x20 ADD PUSH1 0x0 KECCAK256 PUSH1 0x0 PUSH1 0x1 DUP2 MSTORE PUSH1 0x20 ADD SWAP1 DUP2 MSTORE PUSH1 0x20 ADD PUSH1 0x0 KECCAK256 SLOAD PUSH2 0x76E JUMP JUMPDEST SWAP1 POP PUSH1 0x0 PUSH2 0xBA1 NUMBER PUSH2 0x76E JUMP JUMPDEST SWAP1 POP PUSH1 0x0 PUSH2 0xBB8 DUP3 DUP5 PUSH2 0x17DB SWAP1 SWAP2 SWAP1 PUSH4 0xFFFFFFFF AND JUMP JUMPDEST SWAP1 POP PUSH2 0xC32 PUSH1 0x3 SLOAD PUSH2 0xC24 PUSH1 0xD PUSH1 0x0 DUP10 PUSH20 0xFFFFFFFFFFFFFFFFFFFFFFFFFFFFFFFFFFFFFFFF AND PUSH20 0xFFFFFFFFFFFFFFFFFFFFFFFFFFFFFFFFFFFFFFFF AND DUP2 MSTORE PUSH1 0x20 ADD SWAP1 DUP2 MSTORE PUSH1 0x20 ADD PUSH1 0x0 KECCAK256 PUSH1 0x0 PUSH1 0x2 DUP2 MSTORE PUSH1 0x20 ADD SWAP1 DUP2 MSTORE PUSH1 0x20 ADD PUSH1 0x0 KECCAK256 SLOAD DUP5 PUSH2 0xEB2 SWAP1 SWAP2 SWAP1 PUSH4 0xFFFFFFFF AND JUMP JUMPDEST PUSH2 0x1807 SWAP1 SWAP2 SWAP1 PUSH4 0xFFFFFFFF AND JUMP JUMPDEST SWAP1 POP PUSH2 0xC98 DUP2 PUSH1 0xD PUSH1 0x0 DUP9 PUSH20 0xFFFFFFFFFFFFFFFFFFFFFFFFFFFFFFFFFFFFFFFF AND PUSH20 0xFFFFFFFFFFFFFFFFFFFFFFFFFFFFFFFFFFFFFFFF AND DUP2 MSTORE PUSH1 0x20 ADD SWAP1 DUP2 MSTORE PUSH1 0x20 ADD PUSH1 0x0 KECCAK256 PUSH1 0x0 PUSH1 0x3 DUP2 MSTORE PUSH1 0x20 ADD SWAP1 DUP2 MSTORE PUSH1 0x20 ADD PUSH1 0x0 KECCAK256 SLOAD PUSH2 0x17F1 SWAP1 SWAP2 SWAP1 PUSH4 0xFFFFFFFF AND JUMP JUMPDEST SWAP4 POP POP POP POP SWAP2 SWAP1 POP JUMP JUMPDEST PUSH1 0x60 PUSH2 0xCAD DUP3 PUSH2 0xF32 JUMP JUMPDEST PUSH2 0xCE3 JUMPI PUSH1 0x40 MLOAD PUSH32 0xA14C4B5000000000000000000000000000000000000000000000000000000000 DUP2 MSTORE PUSH1 0x4 ADD PUSH1 0x40 MLOAD DUP1 SWAP2 SUB SWAP1 REVERT JUMPDEST PUSH1 0x0 PUSH2 0xCED PUSH2 0x1C1B JUMP JUMPDEST SWAP1 POP PUSH1 0x0 DUP2 MLOAD SUB PUSH2 0xD0D JUMPI PUSH1 0x40 MLOAD DUP1 PUSH1 0x20 ADD PUSH1 0x40 MSTORE DUP1 PUSH1 0x0 DUP2 MSTORE POP PUSH2 0xD38 JUMP JUMPDEST DUP1 PUSH2 0xD17 DUP5 PUSH2 0x1C3B JUMP JUMPDEST PUSH1 0x40 MLOAD PUSH1 0x20 ADD PUSH2 0xD28 SWAP3 SWAP2 SWAP1 PUSH2 0x2440 JUMP JUMPDEST PUSH1 0x40 MLOAD PUSH1 0x20 DUP2 DUP4 SUB SUB DUP2 MSTORE SWAP1 PUSH1 0x40 MSTORE JUMPDEST SWAP2 POP POP SWAP2 SWAP1 POP JUMP JUMPDEST PUSH1 0x0 PUSH2 0xD4A PUSH2 0x103A JUMP JUMPDEST PUSH1 0x6 SLOAD PUSH1 0x5 SLOAD SUB SUB SWAP1 POP SWAP1 JUMP JUMPDEST PUSH1 0x0 PUSH1 0x3 SLOAD SWAP1 POP SWAP1 JUMP JUMPDEST PUSH1 0x0 DUP1 PUSH2 0xD8B DUP4 PUSH2 0xD7D PUSH1 0x0 SLOAD DUP7 PUSH2 0xEB2 SWAP1 SWAP2 SWAP1 PUSH4 0xFFFFFFFF AND JUMP JUMPDEST PUSH2 0x17F1 SWAP1 SWAP2 SWAP1 PUSH4 0xFFFFFFFF AND JUMP JUMPDEST SWAP1 POP PUSH1 0x0 PUSH1 0xA DUP3 PUSH2 0xD9C SWAP2 SWAP1 PUSH2 0x2493 JUMP JUMPDEST SUB PUSH2 0xDAA JUMPI PUSH1 0x1 SWAP1 POP PUSH2 0xDBA JUMP JUMPDEST PUSH1 0xA DUP2 PUSH2 0xDB7 SWAP2 SWAP1 PUSH2 0x2493 JUMP JUMPDEST SWAP1 POP JUMPDEST DUP1 SWAP2 POP POP SWAP2 SWAP1 POP JUMP JUMPDEST PUSH1 0x0 PUSH1 0xC PUSH1 0x0 DUP5 PUSH20 0xFFFFFFFFFFFFFFFFFFFFFFFFFFFFFFFFFFFFFFFF AND PUSH20 0xFFFFFFFFFFFFFFFFFFFFFFFFFFFFFFFFFFFFFFFF AND DUP2 MSTORE PUSH1 0x20 ADD SWAP1 DUP2 MSTORE PUSH1 0x20 ADD PUSH1 0x0 KECCAK256 PUSH1 0x0 DUP4 PUSH20 0xFFFFFFFFFFFFFFFFFFFFFFFFFFFFFFFFFFFFFFFF AND PUSH20 0xFFFFFFFFFFFFFFFFFFFFFFFFFFFFFFFFFFFFFFFF AND DUP2 MSTORE PUSH1 0x20 ADD SWAP1 DUP2 MSTORE PUSH1 0x20 ADD PUSH1 0x0 KECCAK256 PUSH1 0x0 SWAP1 SLOAD SWAP1 PUSH2 0x100 EXP SWAP1 DIV PUSH1 0xFF AND SWAP1 POP SWAP3 SWAP2 POP POP JUMP JUMPDEST PUSH1 0x0 PUSH1 0xD PUSH1 0x0 DUP5 PUSH20 0xFFFFFFFFFFFFFFFFFFFFFFFFFFFFFFFFFFFFFFFF AND PUSH20 0xFFFFFFFFFFFFFFFFFFFFFFFFFFFFFFFFFFFFFFFF AND DUP2 MSTORE PUSH1 0x20 ADD SWAP1 DUP2 MSTORE PUSH1 0x20 ADD PUSH1 0x0 KECCAK256 PUSH1 0x0 DUP4 DUP2 MSTORE PUSH1 0x20 ADD SWAP1 DUP2 MSTORE PUSH1 0x20 ADD PUSH1 0x0 KECCAK256 SLOAD SWAP1 POP SWAP3 SWAP2 POP POP JUMP JUMPDEST PUSH1 0x0 DUP2 DUP4 PUSH2 0xEC0 SWAP2 SWAP1 PUSH2 0x24F3 JUMP JUMPDEST SWAP1 POP SWAP3 SWAP2 POP POP JUMP JUMPDEST PUSH1 0x0 PUSH32 0x1FFC9A700000000000000000000000000000000000000000000000000000000 PUSH28 0xFFFFFFFFFFFFFFFFFFFFFFFFFFFFFFFFFFFFFFFFFFFFFFFFFFFFFFFF NOT AND DUP3 PUSH28 0xFFFFFFFFFFFFFFFFFFFFFFFFFFFFFFFFFFFFFFFFFFFFFFFFFFFFFFFF NOT AND EQ SWAP1 POP SWAP2 SWAP1 POP JUMP JUMPDEST PUSH1 0x0 DUP2 PUSH2 0xF3D PUSH2 0x103A JUMP JUMPDEST GT ISZERO DUP1 ISZERO PUSH2 0xF4C JUMPI POP PUSH1 0x4 SLOAD DUP3 LT JUMPDEST DUP1 ISZERO PUSH2 0xF79 JUMPI POP PUSH1 0x9 PUSH1 0x0 DUP4 DUP2 MSTORE PUSH1 0x20 ADD SWAP1 DUP2 MSTORE PUSH1 0x20 ADD PUSH1 0x0 KECCAK256 PUSH1 0x0 ADD PUSH1 0x1C SWAP1 SLOAD SWAP1 PUSH2 0x100 EXP SWAP1 DIV PUSH1 0xFF AND ISZERO JUMPDEST SWAP1 POP SWAP2 SWAP1 POP JUMP JUMPDEST PUSH1 0x0 CALLER SWAP1 POP SWAP1 JUMP JUMPDEST DUP3 PUSH1 0xB PUSH1 0x0 DUP5 DUP2 MSTORE PUSH1 0x20 ADD SWAP1 DUP2 MSTORE PUSH1 0x20 ADD PUSH1 0x0 KECCAK256 PUSH1 0x0 PUSH2 0x100 EXP DUP2 SLOAD DUP2 PUSH20 0xFFFFFFFFFFFFFFFFFFFFFFFFFFFFFFFFFFFFFFFF MUL NOT AND SWAP1 DUP4 PUSH20 0xFFFFFFFFFFFFFFFFFFFFFFFFFFFFFFFFFFFFFFFF AND MUL OR SWAP1 SSTORE POP DUP2 DUP4 PUSH20 0xFFFFFFFFFFFFFFFFFFFFFFFFFFFFFFFFFFFFFFFF AND DUP3 PUSH20 0xFFFFFFFFFFFFFFFFFFFFFFFFFFFFFFFFFFFFFFFF AND PUSH32 0x8C5BE1E5EBEC7D5BD14F71427D1E84F3DD0314C0F7B2291E5B200AC8C7C3B925 PUSH1 0x40 MLOAD PUSH1 0x40 MLOAD DUP1 SWAP2 SUB SWAP1 LOG4 POP POP POP JUMP JUMPDEST PUSH1 0x0 SWAP1 JUMP JUMPDEST PUSH1 0x0 PUSH2 0x104A DUP3 PUSH2 0xD61 JUMP JUMPDEST SWAP1 POP PUSH2 0x1055 DUP5 PUSH2 0xB37 JUMP JUMPDEST PUSH1 0xD PUSH1 0x0 DUP7 PUSH20 0xFFFFFFFFFFFFFFFFFFFFFFFFFFFFFFFFFFFFFFFF AND PUSH20 0xFFFFFFFFFFFFFFFFFFFFFFFFFFFFFFFFFFFFFFFF AND DUP2 MSTORE PUSH1 0x20 ADD SWAP1 DUP2 MSTORE PUSH1 0x20 ADD PUSH1 0x0 KECCAK256 PUSH1 0x0 PUSH1 0x3 DUP2 MSTORE PUSH1 0x20 ADD SWAP1 DUP2 MSTORE PUSH1 0x20 ADD PUSH1 0x0 KECCAK256 DUP2 SWAP1 SSTORE POP PUSH2 0x110E DUP2 PUSH1 0xD PUSH1 0x0 DUP8 PUSH20 0xFFFFFFFFFFFFFFFFFFFFFFFFFFFFFFFFFFFFFFFF AND PUSH20 0xFFFFFFFFFFFFFFFFFFFFFFFFFFFFFFFFFFFFFFFF AND DUP2 MSTORE PUSH1 0x20 ADD SWAP1 DUP2 MSTORE PUSH1 0x20 ADD PUSH1 0x0 KECCAK256 PUSH1 0x0 PUSH1 0x2 DUP2 MSTORE PUSH1 0x20 ADD SWAP1 DUP2 MSTORE PUSH1 0x20 ADD PUSH1 0x0 KECCAK256 SLOAD PUSH2 0x17DB SWAP1 SWAP2 SWAP1 PUSH4 0xFFFFFFFF AND JUMP JUMPDEST PUSH1 0xD PUSH1 0x0 DUP7 PUSH20 0xFFFFFFFFFFFFFFFFFFFFFFFFFFFFFFFFFFFFFFFF AND PUSH20 0xFFFFFFFFFFFFFFFFFFFFFFFFFFFFFFFFFFFFFFFF AND DUP2 MSTORE PUSH1 0x20 ADD SWAP1 DUP2 MSTORE PUSH1 0x20 ADD PUSH1 0x0 KECCAK256 PUSH1 0x0 PUSH1 0x2 DUP2 MSTORE PUSH1 0x20 ADD SWAP1 DUP2 MSTORE PUSH1 0x20 ADD PUSH1 0x0 KECCAK256 DUP2 SWAP1 SSTORE POP NUMBER PUSH1 0xD PUSH1 0x0 DUP7 PUSH20 0xFFFFFFFFFFFFFFFFFFFFFFFFFFFFFFFFFFFFFFFF AND PUSH20 0xFFFFFFFFFFFFFFFFFFFFFFFFFFFFFFFFFFFFFFFF AND DUP2 MSTORE PUSH1 0x20 ADD SWAP1 DUP2 MSTORE PUSH1 0x20 ADD PUSH1 0x0 KECCAK256 PUSH1 0x0 PUSH1 0x1 DUP2 MSTORE PUSH1 0x20 ADD SWAP1 DUP2 MSTORE PUSH1 0x20 ADD PUSH1 0x0 KECCAK256 DUP2 SWAP1 SSTORE POP PUSH2 0x11C2 DUP4 PUSH2 0xB37 JUMP JUMPDEST PUSH1 0xD PUSH1 0x0 DUP6 PUSH20 0xFFFFFFFFFFFFFFFFFFFFFFFFFFFFFFFFFFFFFFFF AND PUSH20 0xFFFFFFFFFFFFFFFFFFFFFFFFFFFFFFFFFFFFFFFF AND DUP2 MSTORE PUSH1 0x20 ADD SWAP1 DUP2 MSTORE PUSH1 0x20 ADD PUSH1 0x0 KECCAK256 PUSH1 0x0 PUSH1 0x3 DUP2 MSTORE PUSH1 0x20 ADD SWAP1 DUP2 MSTORE PUSH1 0x20 ADD PUSH1 0x0 KECCAK256 DUP2 SWAP1 SSTORE POP PUSH2 0x127B DUP2 PUSH1 0xD PUSH1 0x0 DUP7 PUSH20 0xFFFFFFFFFFFFFFFFFFFFFFFFFFFFFFFFFFFFFFFF AND PUSH20 0xFFFFFFFFFFFFFFFFFFFFFFFFFFFFFFFFFFFFFFFF AND DUP2 MSTORE PUSH1 0x20 ADD SWAP1 DUP2 MSTORE PUSH1 0x20 ADD PUSH1 0x0 KECCAK256 PUSH1 0x0 PUSH1 0x2 DUP2 MSTORE PUSH1 0x20 ADD SWAP1 DUP2 MSTORE PUSH1 0x20 ADD PUSH1 0x0 KECCAK256 SLOAD PUSH2 0x17F1 SWAP1 SWAP2 SWAP1 PUSH4 0xFFFFFFFF AND JUMP JUMPDEST PUSH1 0xD PUSH1 0x0 DUP6 PUSH20 0xFFFFFFFFFFFFFFFFFFFFFFFFFFFFFFFFFFFFFFFF AND PUSH20 0xFFFFFFFFFFFFFFFFFFFFFFFFFFFFFFFFFFFFFFFF AND DUP2 MSTORE PUSH1 0x20 ADD SWAP1 DUP2 MSTORE PUSH1 0x20 ADD PUSH1 0x0 KECCAK256 PUSH1 0x0 PUSH1 0x2 DUP2 MSTORE PUSH1 0x20 ADD SWAP1 DUP2 MSTORE PUSH1 0x20 ADD PUSH1 0x0 KECCAK256 DUP2 SWAP1 SSTORE POP NUMBER PUSH1 0xD PUSH1 0x0 DUP6 PUSH20 0xFFFFFFFFFFFFFFFFFFFFFFFFFFFFFFFFFFFFFFFF AND PUSH20 0xFFFFFFFFFFFFFFFFFFFFFFFFFFFFFFFFFFFFFFFF AND DUP2 MSTORE PUSH1 0x20 ADD SWAP1 DUP2 MSTORE PUSH1 0x20 ADD PUSH1 0x0 KECCAK256 PUSH1 0x0 PUSH1 0x1 DUP2 MSTORE PUSH1 0x20 ADD SWAP1 DUP2 MSTORE PUSH1 0x20 ADD PUSH1 0x0 KECCAK256 DUP2 SWAP1 SSTORE POP PUSH1 0x0 PUSH2 0x1331 DUP4 PUSH2 0x181D JUMP JUMPDEST SWAP1 POP DUP5 PUSH20 0xFFFFFFFFFFFFFFFFFFFFFFFFFFFFFFFFFFFFFFFF AND DUP2 PUSH1 0x0 ADD MLOAD PUSH20 0xFFFFFFFFFFFFFFFFFFFFFFFFFFFFFFFFFFFFFFFF AND EQ PUSH2 0x139C JUMPI PUSH1 0x40 MLOAD PUSH32 0xA114810000000000000000000000000000000000000000000000000000000000 DUP2 MSTORE PUSH1 0x4 ADD PUSH1 0x40 MLOAD DUP1 SWAP2 SUB SWAP1 REVERT JUMPDEST PUSH1 0x0 DUP6 PUSH20 0xFFFFFFFFFFFFFFFFFFFFFFFFFFFFFFFFFFFFFFFF AND PUSH2 0x13BD PUSH2 0xF80 JUMP JUMPDEST PUSH20 0xFFFFFFFFFFFFFFFFFFFFFFFFFFFFFFFFFFFFFFFF AND EQ DUP1 PUSH2 0x13EC JUMPI POP PUSH2 0x13EB DUP7 PUSH2 0x13E6 PUSH2 0xF80 JUMP JUMPDEST PUSH2 0xDC3 JUMP JUMPDEST JUMPDEST DUP1 PUSH2 0x1431 JUMPI POP PUSH2 0x13FA PUSH2 0xF80 JUMP JUMPDEST PUSH20 0xFFFFFFFFFFFFFFFFFFFFFFFFFFFFFFFFFFFFFFFF AND PUSH2 0x1419 DUP6 PUSH2 0x5A7 JUMP JUMPDEST PUSH20 0xFFFFFFFFFFFFFFFFFFFFFFFFFFFFFFFFFFFFFFFF AND EQ JUMPDEST SWAP1 POP DUP1 PUSH2 0x146A JUMPI PUSH1 0x40 MLOAD PUSH32 0x59C896BE00000000000000000000000000000000000000000000000000000000 DUP2 MSTORE PUSH1 0x4 ADD PUSH1 0x40 MLOAD DUP1 SWAP2 SUB SWAP1 REVERT JUMPDEST PUSH1 0x0 PUSH20 0xFFFFFFFFFFFFFFFFFFFFFFFFFFFFFFFFFFFFFFFF AND DUP6 PUSH20 0xFFFFFFFFFFFFFFFFFFFFFFFFFFFFFFFFFFFFFFFF AND SUB PUSH2 0x14D0 JUMPI PUSH1 0x40 MLOAD PUSH32 0xEA553B3400000000000000000000000000000000000000000000000000000000 DUP2 MSTORE PUSH1 0x4 ADD PUSH1 0x40 MLOAD DUP1 SWAP2 SUB SWAP1 REVERT JUMPDEST PUSH2 0x14DD DUP7 DUP7 DUP7 PUSH1 0x1 PUSH2 0x1D9B JUMP JUMPDEST PUSH2 0x14E9 PUSH1 0x0 DUP6 DUP9 PUSH2 0xF88 JUMP JUMPDEST PUSH1 0x1 PUSH1 0xA PUSH1 0x0 DUP9 PUSH20 0xFFFFFFFFFFFFFFFFFFFFFFFFFFFFFFFFFFFFFFFF AND PUSH20 0xFFFFFFFFFFFFFFFFFFFFFFFFFFFFFFFFFFFFFFFF AND DUP2 MSTORE PUSH1 0x20 ADD SWAP1 DUP2 MSTORE PUSH1 0x20 ADD PUSH1 0x0 KECCAK256 PUSH1 0x0 ADD PUSH1 0x0 DUP3 DUP3 DUP3 SWAP1 SLOAD SWAP1 PUSH2 0x100 EXP SWAP1 DIV PUSH8 0xFFFFFFFFFFFFFFFF AND SUB SWAP3 POP PUSH2 0x100 EXP DUP2 SLOAD DUP2 PUSH8 0xFFFFFFFFFFFFFFFF MUL NOT AND SWAP1 DUP4 PUSH8 0xFFFFFFFFFFFFFFFF AND MUL OR SWAP1 SSTORE POP PUSH1 0x1 PUSH1 0xA PUSH1 0x0 DUP8 PUSH20 0xFFFFFFFFFFFFFFFFFFFFFFFFFFFFFFFFFFFFFFFF AND PUSH20 0xFFFFFFFFFFFFFFFFFFFFFFFFFFFFFFFFFFFFFFFF AND DUP2 MSTORE PUSH1 0x20 ADD SWAP1 DUP2 MSTORE PUSH1 0x20 ADD PUSH1 0x0 KECCAK256 PUSH1 0x0 ADD PUSH1 0x0 DUP3 DUP3 DUP3 SWAP1 SLOAD SWAP1 PUSH2 0x100 EXP SWAP1 DIV PUSH8 0xFFFFFFFFFFFFFFFF AND ADD SWAP3 POP PUSH2 0x100 EXP DUP2 SLOAD DUP2 PUSH8 0xFFFFFFFFFFFFFFFF MUL NOT AND SWAP1 DUP4 PUSH8 0xFFFFFFFFFFFFFFFF AND MUL OR SWAP1 SSTORE POP PUSH1 0x0 PUSH1 0x9 PUSH1 0x0 DUP7 DUP2 MSTORE PUSH1 0x20 ADD SWAP1 DUP2 MSTORE PUSH1 0x20 ADD PUSH1 0x0 KECCAK256 SWAP1 POP DUP6 DUP2 PUSH1 0x0 ADD PUSH1 0x0 PUSH2 0x100 EXP DUP2 SLOAD DUP2 PUSH20 0xFFFFFFFFFFFFFFFFFFFFFFFFFFFFFFFFFFFFFFFF MUL NOT AND SWAP1 DUP4 PUSH20 0xFFFFFFFFFFFFFFFFFFFFFFFFFFFFFFFFFFFFFFFF AND MUL OR SWAP1 SSTORE POP TIMESTAMP DUP2 PUSH1 0x0 ADD PUSH1 0x14 PUSH2 0x100 EXP DUP2 SLOAD DUP2 PUSH8 0xFFFFFFFFFFFFFFFF MUL NOT AND SWAP1 DUP4 PUSH8 0xFFFFFFFFFFFFFFFF AND MUL OR SWAP1 SSTORE POP PUSH1 0x0 PUSH1 0x1 DUP7 ADD SWAP1 POP PUSH1 0x0 PUSH1 0x9 PUSH1 0x0 DUP4 DUP2 MSTORE PUSH1 0x20 ADD SWAP1 DUP2 MSTORE PUSH1 0x20 ADD PUSH1 0x0 KECCAK256 SWAP1 POP PUSH1 0x0 PUSH20 0xFFFFFFFFFFFFFFFFFFFFFFFFFFFFFFFFFFFFFFFF AND DUP2 PUSH1 0x0 ADD PUSH1 0x0 SWAP1 SLOAD SWAP1 PUSH2 0x100 EXP SWAP1 DIV PUSH20 0xFFFFFFFFFFFFFFFFFFFFFFFFFFFFFFFFFFFFFFFF AND PUSH20 0xFFFFFFFFFFFFFFFFFFFFFFFFFFFFFFFFFFFFFFFF AND SUB PUSH2 0x1768 JUMPI PUSH1 0x4 SLOAD DUP3 EQ PUSH2 0x1767 JUMPI DUP9 DUP2 PUSH1 0x0 ADD PUSH1 0x0 PUSH2 0x100 EXP DUP2 SLOAD DUP2 PUSH20 0xFFFFFFFFFFFFFFFFFFFFFFFFFFFFFFFFFFFFFFFF MUL NOT AND SWAP1 DUP4 PUSH20 0xFFFFFFFFFFFFFFFFFFFFFFFFFFFFFFFFFFFFFFFF AND MUL OR SWAP1 SSTORE POP DUP5 PUSH1 0x20 ADD MLOAD DUP2 PUSH1 0x0 ADD PUSH1 0x14 PUSH2 0x100 EXP DUP2 SLOAD DUP2 PUSH8 0xFFFFFFFFFFFFFFFF MUL NOT AND SWAP1 DUP4 PUSH8 0xFFFFFFFFFFFFFFFF AND MUL OR SWAP1 SSTORE POP JUMPDEST JUMPDEST POP POP POP DUP4 DUP6 PUSH20 0xFFFFFFFFFFFFFFFFFFFFFFFFFFFFFFFFFFFFFFFF AND DUP8 PUSH20 0xFFFFFFFFFFFFFFFFFFFFFFFFFFFFFFFFFFFFFFFF AND PUSH32 0xDDF252AD1BE2C89B69C2B068FC378DAA952BA7F163C4A11628F55A4DF523B3EF PUSH1 0x40 MLOAD PUSH1 0x40 MLOAD DUP1 SWAP2 SUB SWAP1 LOG4 PUSH2 0x17D3 DUP7 DUP7 DUP7 PUSH1 0x1 PUSH2 0x1DA1 JUMP JUMPDEST POP POP POP POP POP POP JUMP JUMPDEST PUSH1 0x0 DUP2 DUP4 PUSH2 0x17E9 SWAP2 SWAP1 PUSH2 0x2535 JUMP JUMPDEST SWAP1 POP SWAP3 SWAP2 POP POP JUMP JUMPDEST PUSH1 0x0 DUP2 DUP4 PUSH2 0x17FF SWAP2 SWAP1 PUSH2 0x2569 JUMP JUMPDEST SWAP1 POP SWAP3 SWAP2 POP POP JUMP JUMPDEST PUSH1 0x0 DUP2 DUP4 PUSH2 0x1815 SWAP2 SWAP1 PUSH2 0x259D JUMP JUMPDEST SWAP1 POP SWAP3 SWAP2 POP POP JUMP JUMPDEST PUSH2 0x1825 PUSH2 0x1DA7 JUMP JUMPDEST PUSH1 0x0 DUP3 SWAP1 POP DUP1 PUSH2 0x1833 PUSH2 0x103A JUMP JUMPDEST GT PUSH2 0x1A71 JUMPI PUSH1 0x4 SLOAD DUP2 LT ISZERO PUSH2 0x1A70 JUMPI PUSH1 0x0 PUSH1 0x9 PUSH1 0x0 DUP4 DUP2 MSTORE PUSH1 0x20 ADD SWAP1 DUP2 MSTORE PUSH1 0x20 ADD PUSH1 0x0 KECCAK256 PUSH1 0x40 MLOAD DUP1 PUSH1 0x60 ADD PUSH1 0x40 MSTORE SWAP1 DUP2 PUSH1 0x0 DUP3 ADD PUSH1 0x0 SWAP1 SLOAD SWAP1 PUSH2 0x100 EXP SWAP1 DIV PUSH20 0xFFFFFFFFFFFFFFFFFFFFFFFFFFFFFFFFFFFFFFFF AND PUSH20 0xFFFFFFFFFFFFFFFFFFFFFFFFFFFFFFFFFFFFFFFF AND PUSH20 0xFFFFFFFFFFFFFFFFFFFFFFFFFFFFFFFFFFFFFFFF AND DUP2 MSTORE PUSH1 0x20 ADD PUSH1 0x0 DUP3 ADD PUSH1 0x14 SWAP1 SLOAD SWAP1 PUSH2 0x100 EXP SWAP1 DIV PUSH8 0xFFFFFFFFFFFFFFFF AND PUSH8 0xFFFFFFFFFFFFFFFF AND PUSH8 0xFFFFFFFFFFFFFFFF AND DUP2 MSTORE PUSH1 0x20 ADD PUSH1 0x0 DUP3 ADD PUSH1 0x1C SWAP1 SLOAD SWAP1 PUSH2 0x100 EXP SWAP1 DIV PUSH1 0xFF AND ISZERO ISZERO ISZERO ISZERO DUP2 MSTORE POP POP SWAP1 POP DUP1 PUSH1 0x40 ADD MLOAD PUSH2 0x1A6E JUMPI PUSH1 0x0 PUSH20 0xFFFFFFFFFFFFFFFFFFFFFFFFFFFFFFFFFFFFFFFF AND DUP2 PUSH1 0x0 ADD MLOAD PUSH20 0xFFFFFFFFFFFFFFFFFFFFFFFFFFFFFFFFFFFFFFFF AND EQ PUSH2 0x1952 JUMPI DUP1 SWAP3 POP POP POP PUSH2 0x1AA3 JUMP JUMPDEST JUMPDEST PUSH1 0x1 ISZERO PUSH2 0x1A6D JUMPI DUP2 DUP1 PUSH1 0x1 SWAP1 SUB SWAP3 POP POP PUSH1 0x9 PUSH1 0x0 DUP4 DUP2 MSTORE PUSH1 0x20 ADD SWAP1 DUP2 MSTORE PUSH1 0x20 ADD PUSH1 0x0 KECCAK256 PUSH1 0x40 MLOAD DUP1 PUSH1 0x60 ADD PUSH1 0x40 MSTORE SWAP1 DUP2 PUSH1 0x0 DUP3 ADD PUSH1 0x0 SWAP1 SLOAD SWAP1 PUSH2 0x100 EXP SWAP1 DIV PUSH20 0xFFFFFFFFFFFFFFFFFFFFFFFFFFFFFFFFFFFFFFFF AND PUSH20 0xFFFFFFFFFFFFFFFFFFFFFFFFFFFFFFFFFFFFFFFF AND PUSH20 0xFFFFFFFFFFFFFFFFFFFFFFFFFFFFFFFFFFFFFFFF AND DUP2 MSTORE PUSH1 0x20 ADD PUSH1 0x0 DUP3 ADD PUSH1 0x14 SWAP1 SLOAD SWAP1 PUSH2 0x100 EXP SWAP1 DIV PUSH8 0xFFFFFFFFFFFFFFFF AND PUSH8 0xFFFFFFFFFFFFFFFF AND PUSH8 0xFFFFFFFFFFFFFFFF AND DUP2 MSTORE PUSH1 0x20 ADD PUSH1 0x0 DUP3 ADD PUSH1 0x1C SWAP1 SLOAD SWAP1 PUSH2 0x100 EXP SWAP1 DIV PUSH1 0xFF AND ISZERO ISZERO ISZERO ISZERO DUP2 MSTORE POP POP SWAP1 POP PUSH1 0x0 PUSH20 0xFFFFFFFFFFFFFFFFFFFFFFFFFFFFFFFFFFFFFFFF AND DUP2 PUSH1 0x0 ADD MLOAD PUSH20 0xFFFFFFFFFFFFFFFFFFFFFFFFFFFFFFFFFFFFFFFF AND EQ PUSH2 0x1A68 JUMPI DUP1 SWAP3 POP POP POP PUSH2 0x1AA3 JUMP JUMPDEST PUSH2 0x1953 JUMP JUMPDEST JUMPDEST POP JUMPDEST JUMPDEST PUSH1 0x40 MLOAD PUSH32 0xDF2D9B4200000000000000000000000000000000000000000000000000000000 DUP2 MSTORE PUSH1 0x4 ADD PUSH1 0x40 MLOAD DUP1 SWAP2 SUB SWAP1 REVERT JUMPDEST SWAP2 SWAP1 POP JUMP JUMPDEST PUSH1 0x0 DUP1 DUP3 PUSH20 0xFFFFFFFFFFFFFFFFFFFFFFFFFFFFFFFFFFFFFFFF AND EXTCODESIZE GT SWAP1 POP SWAP2 SWAP1 POP JUMP JUMPDEST PUSH1 0x0 DUP4 PUSH20 0xFFFFFFFFFFFFFFFFFFFFFFFFFFFFFFFFFFFFFFFF AND PUSH4 0x150B7A02 PUSH2 0x1AF1 PUSH2 0xF80 JUMP JUMPDEST DUP8 DUP7 DUP7 PUSH1 0x40 MLOAD DUP6 PUSH4 0xFFFFFFFF AND PUSH1 0xE0 SHL DUP2 MSTORE PUSH1 0x4 ADD PUSH2 0x1B13 SWAP5 SWAP4 SWAP3 SWAP2 SWAP1 PUSH2 0x2623 JUMP JUMPDEST PUSH1 0x20 PUSH1 0x40 MLOAD DUP1 DUP4 SUB DUP2 PUSH1 0x0 DUP8 GAS CALL SWAP3 POP POP POP DUP1 ISZERO PUSH2 0x1B4F JUMPI POP PUSH1 0x40 MLOAD RETURNDATASIZE PUSH1 0x1F NOT PUSH1 0x1F DUP3 ADD AND DUP3 ADD DUP1 PUSH1 0x40 MSTORE POP DUP2 ADD SWAP1 PUSH2 0x1B4C SWAP2 SWAP1 PUSH2 0x2684 JUMP JUMPDEST PUSH1 0x1 JUMPDEST PUSH2 0x1BC8 JUMPI RETURNDATASIZE DUP1 PUSH1 0x0 DUP2 EQ PUSH2 0x1B7F JUMPI PUSH1 0x40 MLOAD SWAP2 POP PUSH1 0x1F NOT PUSH1 0x3F RETURNDATASIZE ADD AND DUP3 ADD PUSH1 0x40 MSTORE RETURNDATASIZE DUP3 MSTORE RETURNDATASIZE PUSH1 0x0 PUSH1 0x20 DUP5 ADD RETURNDATACOPY PUSH2 0x1B84 JUMP JUMPDEST PUSH1 0x60 SWAP2 POP JUMPDEST POP PUSH1 0x0 DUP2 MLOAD SUB PUSH2 0x1BC0 JUMPI PUSH1 0x40 MLOAD PUSH32 0xD1A57ED600000000000000000000000000000000000000000000000000000000 DUP2 MSTORE PUSH1 0x4 ADD PUSH1 0x40 MLOAD DUP1 SWAP2 SUB SWAP1 REVERT JUMPDEST DUP1 MLOAD DUP2 PUSH1 0x20 ADD REVERT JUMPDEST PUSH4 0x150B7A02 PUSH1 0xE0 SHL PUSH28 0xFFFFFFFFFFFFFFFFFFFFFFFFFFFFFFFFFFFFFFFFFFFFFFFFFFFFFFFF NOT AND DUP2 PUSH28 0xFFFFFFFFFFFFFFFFFFFFFFFFFFFFFFFFFFFFFFFFFFFFFFFFFFFFFFFF NOT AND EQ SWAP2 POP POP SWAP5 SWAP4 POP POP POP POP JUMP JUMPDEST PUSH1 0x60 PUSH1 0x40 MLOAD DUP1 PUSH1 0x80 ADD PUSH1 0x40 MSTORE DUP1 PUSH1 0x51 DUP2 MSTORE PUSH1 0x20 ADD PUSH2 0x2729 PUSH1 0x51 SWAP2 CODECOPY SWAP1 POP SWAP1 JUMP JUMPDEST PUSH1 0x60 PUSH1 0x0 DUP3 SUB PUSH2 0x1C82 JUMPI PUSH1 0x40 MLOAD DUP1 PUSH1 0x40 ADD PUSH1 0x40 MSTORE DUP1 PUSH1 0x1 DUP2 MSTORE PUSH1 0x20 ADD PUSH32 0x3000000000000000000000000000000000000000000000000000000000000000 DUP2 MSTORE POP SWAP1 POP PUSH2 0x1D96 JUMP JUMPDEST PUSH1 0x0 DUP3 SWAP1 POP PUSH1 0x0 JUMPDEST PUSH1 0x0 DUP3 EQ PUSH2 0x1CB4 JUMPI DUP1 DUP1 PUSH2 0x1C9D SWAP1 PUSH2 0x26B1 JUMP JUMPDEST SWAP2 POP POP PUSH1 0xA DUP3 PUSH2 0x1CAD SWAP2 SWAP1 PUSH2 0x259D JUMP JUMPDEST SWAP2 POP PUSH2 0x1C8A JUMP JUMPDEST PUSH1 0x0 DUP2 PUSH8 0xFFFFFFFFFFFFFFFF DUP2 GT ISZERO PUSH2 0x1CD0 JUMPI PUSH2 0x1CCF PUSH2 0x21B6 JUMP JUMPDEST JUMPDEST PUSH1 0x40 MLOAD SWAP1 DUP1 DUP3 MSTORE DUP1 PUSH1 0x1F ADD PUSH1 0x1F NOT AND PUSH1 0x20 ADD DUP3 ADD PUSH1 0x40 MSTORE DUP1 ISZERO PUSH2 0x1D02 JUMPI DUP2 PUSH1 0x20 ADD PUSH1 0x1 DUP3 MUL DUP1 CALLDATASIZE DUP4 CALLDATACOPY DUP1 DUP3 ADD SWAP2 POP POP SWAP1 POP JUMPDEST POP SWAP1 POP JUMPDEST PUSH1 0x0 DUP6 EQ PUSH2 0x1D8F JUMPI PUSH1 0x1 DUP3 PUSH2 0x1D1B SWAP2 SWAP1 PUSH2 0x2535 JUMP JUMPDEST SWAP2 POP PUSH1 0xA DUP6 PUSH2 0x1D2A SWAP2 SWAP1 PUSH2 0x2493 JUMP JUMPDEST PUSH1 0x30 PUSH2 0x1D36 SWAP2 SWAP1 PUSH2 0x2569 JUMP JUMPDEST PUSH1 0xF8 SHL DUP2 DUP4 DUP2 MLOAD DUP2 LT PUSH2 0x1D4C JUMPI PUSH2 0x1D4B PUSH2 0x26F9 JUMP JUMPDEST JUMPDEST PUSH1 0x20 ADD ADD SWAP1 PUSH31 0xFFFFFFFFFFFFFFFFFFFFFFFFFFFFFFFFFFFFFFFFFFFFFFFFFFFFFFFFFFFFFF NOT AND SWAP1 DUP2 PUSH1 0x0 BYTE SWAP1 MSTORE8 POP PUSH1 0xA DUP6 PUSH2 0x1D88 SWAP2 SWAP1 PUSH2 0x259D JUMP JUMPDEST SWAP5 POP PUSH2 0x1D06 JUMP JUMPDEST DUP1 SWAP4 POP POP POP POP JUMPDEST SWAP2 SWAP1 POP JUMP JUMPDEST POP POP POP POP JUMP JUMPDEST POP POP POP POP JUMP JUMPDEST PUSH1 0x40 MLOAD DUP1 PUSH1 0x60 ADD PUSH1 0x40 MSTORE DUP1 PUSH1 0x0 PUSH20 0xFFFFFFFFFFFFFFFFFFFFFFFFFFFFFFFFFFFFFFFF AND DUP2 MSTORE PUSH1 0x20 ADD PUSH1 0x0 PUSH8 0xFFFFFFFFFFFFFFFF AND DUP2 MSTORE PUSH1 0x20 ADD PUSH1 0x0 ISZERO ISZERO DUP2 MSTORE POP SWAP1 JUMP JUMPDEST PUSH1 0x0 PUSH1 0x40 MLOAD SWAP1 POP SWAP1 JUMP JUMPDEST PUSH1 0x0 DUP1 REVERT JUMPDEST PUSH1 0x0 DUP1 REVERT JUMPDEST PUSH1 0x0 PUSH32 0xFFFFFFFF00000000000000000000000000000000000000000000000000000000 DUP3 AND SWAP1 POP SWAP2 SWAP1 POP JUMP JUMPDEST PUSH2 0x1E33 DUP2 PUSH2 0x1DFE JUMP JUMPDEST DUP2 EQ PUSH2 0x1E3E JUMPI PUSH1 0x0 DUP1 REVERT JUMPDEST POP JUMP JUMPDEST PUSH1 0x0 DUP2 CALLDATALOAD SWAP1 POP PUSH2 0x1E50 DUP2 PUSH2 0x1E2A JUMP JUMPDEST SWAP3 SWAP2 POP POP JUMP JUMPDEST PUSH1 0x0 PUSH1 0x20 DUP3 DUP5 SUB SLT ISZERO PUSH2 0x1E6C JUMPI PUSH2 0x1E6B PUSH2 0x1DF4 JUMP JUMPDEST JUMPDEST PUSH1 0x0 PUSH2 0x1E7A DUP5 DUP3 DUP6 ADD PUSH2 0x1E41 JUMP JUMPDEST SWAP2 POP POP SWAP3 SWAP2 POP POP JUMP JUMPDEST PUSH1 0x0 DUP2 ISZERO ISZERO SWAP1 POP SWAP2 SWAP1 POP JUMP JUMPDEST PUSH2 0x1E98 DUP2 PUSH2 0x1E83 JUMP JUMPDEST DUP3 MSTORE POP POP JUMP JUMPDEST PUSH1 0x0 PUSH1 0x20 DUP3 ADD SWAP1 POP PUSH2 0x1EB3 PUSH1 0x0 DUP4 ADD DUP5 PUSH2 0x1E8F JUMP JUMPDEST SWAP3 SWAP2 POP POP JUMP JUMPDEST PUSH1 0x0 DUP2 MLOAD SWAP1 POP SWAP2 SWAP1 POP JUMP JUMPDEST PUSH1 0x0 DUP3 DUP3 MSTORE PUSH1 0x20 DUP3 ADD SWAP1 POP SWAP3 SWAP2 POP POP JUMP JUMPDEST PUSH1 0x0 JUMPDEST DUP4 DUP2 LT ISZERO PUSH2 0x1EF3 JUMPI DUP1 DUP3 ADD MLOAD DUP2 DUP5 ADD MSTORE PUSH1 0x20 DUP2 ADD SWAP1 POP PUSH2 0x1ED8 JUMP JUMPDEST PUSH1 0x0 DUP5 DUP5 ADD MSTORE POP POP POP POP JUMP JUMPDEST PUSH1 0x0 PUSH1 0x1F NOT PUSH1 0x1F DUP4 ADD AND SWAP1 POP SWAP2 SWAP1 POP JUMP JUMPDEST PUSH1 0x0 PUSH2 0x1F1B DUP3 PUSH2 0x1EB9 JUMP JUMPDEST PUSH2 0x1F25 DUP2 DUP6 PUSH2 0x1EC4 JUMP JUMPDEST SWAP4 POP PUSH2 0x1F35 DUP2 DUP6 PUSH1 0x20 DUP7 ADD PUSH2 0x1ED5 JUMP JUMPDEST PUSH2 0x1F3E DUP2 PUSH2 0x1EFF JUMP JUMPDEST DUP5 ADD SWAP2 POP POP SWAP3 SWAP2 POP POP JUMP JUMPDEST PUSH1 0x0 PUSH1 0x20 DUP3 ADD SWAP1 POP DUP2 DUP2 SUB PUSH1 0x0 DUP4 ADD MSTORE PUSH2 0x1F63 DUP2 DUP5 PUSH2 0x1F10 JUMP JUMPDEST SWAP1 POP SWAP3 SWAP2 POP POP JUMP JUMPDEST PUSH1 0x0 DUP2 SWAP1 POP SWAP2 SWAP1 POP JUMP JUMPDEST PUSH2 0x1F7E DUP2 PUSH2 0x1F6B JUMP JUMPDEST DUP2 EQ PUSH2 0x1F89 JUMPI PUSH1 0x0 DUP1 REVERT JUMPDEST POP JUMP JUMPDEST PUSH1 0x0 DUP2 CALLDATALOAD SWAP1 POP PUSH2 0x1F9B DUP2 PUSH2 0x1F75 JUMP JUMPDEST SWAP3 SWAP2 POP POP JUMP JUMPDEST PUSH1 0x0 PUSH1 0x20 DUP3 DUP5 SUB SLT ISZERO PUSH2 0x1FB7 JUMPI PUSH2 0x1FB6 PUSH2 0x1DF4 JUMP JUMPDEST JUMPDEST PUSH1 0x0 PUSH2 0x1FC5 DUP5 DUP3 DUP6 ADD PUSH2 0x1F8C JUMP JUMPDEST SWAP2 POP POP SWAP3 SWAP2 POP POP JUMP JUMPDEST PUSH1 0x0 PUSH20 0xFFFFFFFFFFFFFFFFFFFFFFFFFFFFFFFFFFFFFFFF DUP3 AND SWAP1 POP SWAP2 SWAP1 POP JUMP JUMPDEST PUSH1 0x0 PUSH2 0x1FF9 DUP3 PUSH2 0x1FCE JUMP JUMPDEST SWAP1 POP SWAP2 SWAP1 POP JUMP JUMPDEST PUSH2 0x2009 DUP2 PUSH2 0x1FEE JUMP JUMPDEST DUP3 MSTORE POP POP JUMP JUMPDEST PUSH1 0x0 PUSH1 0x20 DUP3 ADD SWAP1 POP PUSH2 0x2024 PUSH1 0x0 DUP4 ADD DUP5 PUSH2 0x2000 JUMP JUMPDEST SWAP3 SWAP2 POP POP JUMP JUMPDEST PUSH2 0x2033 DUP2 PUSH2 0x1FEE JUMP JUMPDEST DUP2 EQ PUSH2 0x203E JUMPI PUSH1 0x0 DUP1 REVERT JUMPDEST POP JUMP JUMPDEST PUSH1 0x0 DUP2 CALLDATALOAD SWAP1 POP PUSH2 0x2050 DUP2 PUSH2 0x202A JUMP JUMPDEST SWAP3 SWAP2 POP POP JUMP JUMPDEST PUSH1 0x0 DUP1 PUSH1 0x40 DUP4 DUP6 SUB SLT ISZERO PUSH2 0x206D JUMPI PUSH2 0x206C PUSH2 0x1DF4 JUMP JUMPDEST JUMPDEST PUSH1 0x0 PUSH2 0x207B DUP6 DUP3 DUP7 ADD PUSH2 0x2041 JUMP JUMPDEST SWAP3 POP POP PUSH1 0x20 PUSH2 0x208C DUP6 DUP3 DUP7 ADD PUSH2 0x1F8C JUMP JUMPDEST SWAP2 POP POP SWAP3 POP SWAP3 SWAP1 POP JUMP JUMPDEST PUSH2 0x209F DUP2 PUSH2 0x1F6B JUMP JUMPDEST DUP3 MSTORE POP POP JUMP JUMPDEST PUSH1 0x0 PUSH1 0x20 DUP3 ADD SWAP1 POP PUSH2 0x20BA PUSH1 0x0 DUP4 ADD DUP5 PUSH2 0x2096 JUMP JUMPDEST SWAP3 SWAP2 POP POP JUMP JUMPDEST PUSH1 0x0 DUP1 PUSH1 0x0 PUSH1 0x60 DUP5 DUP7 SUB SLT ISZERO PUSH2 0x20D9 JUMPI PUSH2 0x20D8 PUSH2 0x1DF4 JUMP JUMPDEST JUMPDEST PUSH1 0x0 PUSH2 0x20E7 DUP7 DUP3 DUP8 ADD PUSH2 0x2041 JUMP JUMPDEST SWAP4 POP POP PUSH1 0x20 PUSH2 0x20F8 DUP7 DUP3 DUP8 ADD PUSH2 0x2041 JUMP JUMPDEST SWAP3 POP POP PUSH1 0x40 PUSH2 0x2109 DUP7 DUP3 DUP8 ADD PUSH2 0x1F8C JUMP JUMPDEST SWAP2 POP POP SWAP3 POP SWAP3 POP SWAP3 JUMP JUMPDEST PUSH1 0x0 PUSH1 0x20 DUP3 DUP5 SUB SLT ISZERO PUSH2 0x2129 JUMPI PUSH2 0x2128 PUSH2 0x1DF4 JUMP JUMPDEST JUMPDEST PUSH1 0x0 PUSH2 0x2137 DUP5 DUP3 DUP6 ADD PUSH2 0x2041 JUMP JUMPDEST SWAP2 POP POP SWAP3 SWAP2 POP POP JUMP JUMPDEST PUSH2 0x2149 DUP2 PUSH2 0x1E83 JUMP JUMPDEST DUP2 EQ PUSH2 0x2154 JUMPI PUSH1 0x0 DUP1 REVERT JUMPDEST POP JUMP JUMPDEST PUSH1 0x0 DUP2 CALLDATALOAD SWAP1 POP PUSH2 0x2166 DUP2 PUSH2 0x2140 JUMP JUMPDEST SWAP3 SWAP2 POP POP JUMP JUMPDEST PUSH1 0x0 DUP1 PUSH1 0x40 DUP4 DUP6 SUB SLT ISZERO PUSH2 0x2183 JUMPI PUSH2 0x2182 PUSH2 0x1DF4 JUMP JUMPDEST JUMPDEST PUSH1 0x0 PUSH2 0x2191 DUP6 DUP3 DUP7 ADD PUSH2 0x2041 JUMP JUMPDEST SWAP3 POP POP PUSH1 0x20 PUSH2 0x21A2 DUP6 DUP3 DUP7 ADD PUSH2 0x2157 JUMP JUMPDEST SWAP2 POP POP SWAP3 POP SWAP3 SWAP1 POP JUMP JUMPDEST PUSH1 0x0 DUP1 REVERT JUMPDEST PUSH1 0x0 DUP1 REVERT JUMPDEST PUSH32 0x4E487B7100000000000000000000000000000000000000000000000000000000 PUSH1 0x0 MSTORE PUSH1 0x41 PUSH1 0x4 MSTORE PUSH1 0x24 PUSH1 0x0 REVERT JUMPDEST PUSH2 0x21EE DUP3 PUSH2 0x1EFF JUMP JUMPDEST DUP2 ADD DUP2 DUP2 LT PUSH8 0xFFFFFFFFFFFFFFFF DUP3 GT OR ISZERO PUSH2 0x220D JUMPI PUSH2 0x220C PUSH2 0x21B6 JUMP JUMPDEST JUMPDEST DUP1 PUSH1 0x40 MSTORE POP POP POP JUMP JUMPDEST PUSH1 0x0 PUSH2 0x2220 PUSH2 0x1DEA JUMP JUMPDEST SWAP1 POP PUSH2 0x222C DUP3 DUP3 PUSH2 0x21E5 JUMP JUMPDEST SWAP2 SWAP1 POP JUMP JUMPDEST PUSH1 0x0 PUSH8 0xFFFFFFFFFFFFFFFF DUP3 GT ISZERO PUSH2 0x224C JUMPI PUSH2 0x224B PUSH2 0x21B6 JUMP JUMPDEST JUMPDEST PUSH2 0x2255 DUP3 PUSH2 0x1EFF JUMP JUMPDEST SWAP1 POP PUSH1 0x20 DUP2 ADD SWAP1 POP SWAP2 SWAP1 POP JUMP JUMPDEST DUP3 DUP2 DUP4 CALLDATACOPY PUSH1 0x0 DUP4 DUP4 ADD MSTORE POP POP POP JUMP JUMPDEST PUSH1 0x0 PUSH2 0x2284 PUSH2 0x227F DUP5 PUSH2 0x2231 JUMP JUMPDEST PUSH2 0x2216 JUMP JUMPDEST SWAP1 POP DUP3 DUP2 MSTORE PUSH1 0x20 DUP2 ADD DUP5 DUP5 DUP5 ADD GT ISZERO PUSH2 0x22A0 JUMPI PUSH2 0x229F PUSH2 0x21B1 JUMP JUMPDEST JUMPDEST PUSH2 0x22AB DUP5 DUP3 DUP6 PUSH2 0x2262 JUMP JUMPDEST POP SWAP4 SWAP3 POP POP POP JUMP JUMPDEST PUSH1 0x0 DUP3 PUSH1 0x1F DUP4 ADD SLT PUSH2 0x22C8 JUMPI PUSH2 0x22C7 PUSH2 0x21AC JUMP JUMPDEST JUMPDEST DUP2 CALLDATALOAD PUSH2 0x22D8 DUP5 DUP3 PUSH1 0x20 DUP7 ADD PUSH2 0x2271 JUMP JUMPDEST SWAP2 POP POP SWAP3 SWAP2 POP POP JUMP JUMPDEST PUSH1 0x0 DUP1 PUSH1 0x0 DUP1 PUSH1 0x80 DUP6 DUP8 SUB SLT ISZERO PUSH2 0x22FB JUMPI PUSH2 0x22FA PUSH2 0x1DF4 JUMP JUMPDEST JUMPDEST PUSH1 0x0 PUSH2 0x2309 DUP8 DUP3 DUP9 ADD PUSH2 0x2041 JUMP JUMPDEST SWAP5 POP POP PUSH1 0x20 PUSH2 0x231A DUP8 DUP3 DUP9 ADD PUSH2 0x2041 JUMP JUMPDEST SWAP4 POP POP PUSH1 0x40 PUSH2 0x232B DUP8 DUP3 DUP9 ADD PUSH2 0x1F8C JUMP JUMPDEST SWAP3 POP POP PUSH1 0x60 DUP6 ADD CALLDATALOAD PUSH8 0xFFFFFFFFFFFFFFFF DUP2 GT ISZERO PUSH2 0x234C JUMPI PUSH2 0x234B PUSH2 0x1DF9 JUMP JUMPDEST JUMPDEST PUSH2 0x2358 DUP8 DUP3 DUP9 ADD PUSH2 0x22B3 JUMP JUMPDEST SWAP2 POP POP SWAP3 SWAP6 SWAP2 SWAP5 POP SWAP3 POP JUMP JUMPDEST PUSH1 0x0 DUP1 PUSH1 0x40 DUP4 DUP6 SUB SLT ISZERO PUSH2 0x237B JUMPI PUSH2 0x237A PUSH2 0x1DF4 JUMP JUMPDEST JUMPDEST PUSH1 0x0 PUSH2 0x2389 DUP6 DUP3 DUP7 ADD PUSH2 0x2041 JUMP JUMPDEST SWAP3 POP POP PUSH1 0x20 PUSH2 0x239A DUP6 DUP3 DUP7 ADD PUSH2 0x2041 JUMP JUMPDEST SWAP2 POP POP SWAP3 POP SWAP3 SWAP1 POP JUMP JUMPDEST PUSH32 0x4E487B7100000000000000000000000000000000000000000000000000000000 PUSH1 0x0 MSTORE PUSH1 0x22 PUSH1 0x4 MSTORE PUSH1 0x24 PUSH1 0x0 REVERT JUMPDEST PUSH1 0x0 PUSH1 0x2 DUP3 DIV SWAP1 POP PUSH1 0x1 DUP3 AND DUP1 PUSH2 0x23EB JUMPI PUSH1 0x7F DUP3 AND SWAP2 POP JUMPDEST PUSH1 0x20 DUP3 LT DUP2 SUB PUSH2 0x23FE JUMPI PUSH2 0x23FD PUSH2 0x23A4 JUMP JUMPDEST JUMPDEST POP SWAP2 SWAP1 POP JUMP JUMPDEST PUSH1 0x0 DUP2 SWAP1 POP SWAP3 SWAP2 POP POP JUMP JUMPDEST PUSH1 0x0 PUSH2 0x241A DUP3 PUSH2 0x1EB9 JUMP JUMPDEST PUSH2 0x2424 DUP2 DUP6 PUSH2 0x2404 JUMP JUMPDEST SWAP4 POP PUSH2 0x2434 DUP2 DUP6 PUSH1 0x20 DUP7 ADD PUSH2 0x1ED5 JUMP JUMPDEST DUP1 DUP5 ADD SWAP2 POP POP SWAP3 SWAP2 POP POP JUMP JUMPDEST PUSH1 0x0 PUSH2 0x244C DUP3 DUP6 PUSH2 0x240F JUMP JUMPDEST SWAP2 POP PUSH2 0x2458 DUP3 DUP5 PUSH2 0x240F JUMP JUMPDEST SWAP2 POP DUP2 SWAP1 POP SWAP4 SWAP3 POP POP POP JUMP JUMPDEST PUSH32 0x4E487B7100000000000000000000000000000000000000000000000000000000 PUSH1 0x0 MSTORE PUSH1 0x12 PUSH1 0x4 MSTORE PUSH1 0x24 PUSH1 0x0 REVERT JUMPDEST PUSH1 0x0 PUSH2 0x249E DUP3 PUSH2 0x1F6B JUMP JUMPDEST SWAP2 POP PUSH2 0x24A9 DUP4 PUSH2 0x1F6B JUMP JUMPDEST SWAP3 POP DUP3 PUSH2 0x24B9 JUMPI PUSH2 0x24B8 PUSH2 0x2464 JUMP JUMPDEST JUMPDEST DUP3 DUP3 MOD SWAP1 POP SWAP3 SWAP2 POP POP JUMP JUMPDEST PUSH32 0x4E487B7100000000000000000000000000000000000000000000000000000000 PUSH1 0x0 MSTORE PUSH1 0x11 PUSH1 0x4 MSTORE PUSH1 0x24 PUSH1 0x0 REVERT JUMPDEST PUSH1 0x0 PUSH2 0x24FE DUP3 PUSH2 0x1F6B JUMP JUMPDEST SWAP2 POP PUSH2 0x2509 DUP4 PUSH2 0x1F6B JUMP JUMPDEST SWAP3 POP DUP3 DUP3 MUL PUSH2 0x2517 DUP2 PUSH2 0x1F6B JUMP JUMPDEST SWAP2 POP DUP3 DUP3 DIV DUP5 EQ DUP4 ISZERO OR PUSH2 0x252E JUMPI PUSH2 0x252D PUSH2 0x24C4 JUMP JUMPDEST JUMPDEST POP SWAP3 SWAP2 POP POP JUMP JUMPDEST PUSH1 0x0 PUSH2 0x2540 DUP3 PUSH2 0x1F6B JUMP JUMPDEST SWAP2 POP PUSH2 0x254B DUP4 PUSH2 0x1F6B JUMP JUMPDEST SWAP3 POP DUP3 DUP3 SUB SWAP1 POP DUP2 DUP2 GT ISZERO PUSH2 0x2563 JUMPI PUSH2 0x2562 PUSH2 0x24C4 JUMP JUMPDEST JUMPDEST SWAP3 SWAP2 POP POP JUMP JUMPDEST PUSH1 0x0 PUSH2 0x2574 DUP3 PUSH2 0x1F6B JUMP JUMPDEST SWAP2 POP PUSH2 0x257F DUP4 PUSH2 0x1F6B JUMP JUMPDEST SWAP3 POP DUP3 DUP3 ADD SWAP1 POP DUP1 DUP3 GT ISZERO PUSH2 0x2597 JUMPI PUSH2 0x2596 PUSH2 0x24C4 JUMP JUMPDEST JUMPDEST SWAP3 SWAP2 POP POP JUMP JUMPDEST PUSH1 0x0 PUSH2 0x25A8 DUP3 PUSH2 0x1F6B JUMP JUMPDEST SWAP2 POP PUSH2 0x25B3 DUP4 PUSH2 0x1F6B JUMP JUMPDEST SWAP3 POP DUP3 PUSH2 0x25C3 JUMPI PUSH2 0x25C2 PUSH2 0x2464 JUMP JUMPDEST JUMPDEST DUP3 DUP3 DIV SWAP1 POP SWAP3 SWAP2 POP POP JUMP JUMPDEST PUSH1 0x0 DUP2 MLOAD SWAP1 POP SWAP2 SWAP1 POP JUMP JUMPDEST PUSH1 0x0 DUP3 DUP3 MSTORE PUSH1 0x20 DUP3 ADD SWAP1 POP SWAP3 SWAP2 POP POP JUMP JUMPDEST PUSH1 0x0 PUSH2 0x25F5 DUP3 PUSH2 0x25CE JUMP JUMPDEST PUSH2 0x25FF DUP2 DUP6 PUSH2 0x25D9 JUMP JUMPDEST SWAP4 POP PUSH2 0x260F DUP2 DUP6 PUSH1 0x20 DUP7 ADD PUSH2 0x1ED5 JUMP JUMPDEST PUSH2 0x2618 DUP2 PUSH2 0x1EFF JUMP JUMPDEST DUP5 ADD SWAP2 POP POP SWAP3 SWAP2 POP POP JUMP JUMPDEST PUSH1 0x0 PUSH1 0x80 DUP3 ADD SWAP1 POP PUSH2 0x2638 PUSH1 0x0 DUP4 ADD DUP8 PUSH2 0x2000 JUMP JUMPDEST PUSH2 0x2645 PUSH1 0x20 DUP4 ADD DUP7 PUSH2 0x2000 JUMP JUMPDEST PUSH2 0x2652 PUSH1 0x40 DUP4 ADD DUP6 PUSH2 0x2096 JUMP JUMPDEST DUP2 DUP2 SUB PUSH1 0x60 DUP4 ADD MSTORE PUSH2 0x2664 DUP2 DUP5 PUSH2 0x25EA JUMP JUMPDEST SWAP1 POP SWAP6 SWAP5 POP POP POP POP POP JUMP JUMPDEST PUSH1 0x0 DUP2 MLOAD SWAP1 POP PUSH2 0x267E DUP2 PUSH2 0x1E2A JUMP JUMPDEST SWAP3 SWAP2 POP POP JUMP JUMPDEST PUSH1 0x0 PUSH1 0x20 DUP3 DUP5 SUB SLT ISZERO PUSH2 0x269A JUMPI PUSH2 0x2699 PUSH2 0x1DF4 JUMP JUMPDEST JUMPDEST PUSH1 0x0 PUSH2 0x26A8 DUP5 DUP3 DUP6 ADD PUSH2 0x266F JUMP JUMPDEST SWAP2 POP POP SWAP3 SWAP2 POP POP JUMP JUMPDEST PUSH1 0x0 PUSH2 0x26BC DUP3 PUSH2 0x1F6B JUMP JUMPDEST SWAP2 POP PUSH32 0xFFFFFFFFFFFFFFFFFFFFFFFFFFFFFFFFFFFFFFFFFFFFFFFFFFFFFFFFFFFFFFFF DUP3 SUB PUSH2 0x26EE JUMPI PUSH2 0x26ED PUSH2 0x24C4 JUMP JUMPDEST JUMPDEST PUSH1 0x1 DUP3 ADD SWAP1 POP SWAP2 SWAP1 POP JUMP JUMPDEST PUSH32 0x4E487B7100000000000000000000000000000000000000000000000000000000 PUSH1 0x0 MSTORE PUSH1 0x32 PUSH1 0x4 MSTORE PUSH1 0x24 PUSH1 0x0 REVERT INVALID PUSH9 0x747470733A2F2F6761 PUSH21 0x657761792E70696E6174612E636C6F75642F697066 PUSH20 0x2F516D654E373753715459457258644D5134684C CALLVALUE BALANCE PUSH3 0x316661 SELFBALANCE PUSH25 0x414B7434515741354E475646755A753978486E2FA264697066 PUSH20 0x58221220E94A010E98CAF2DD7206BD3C3602C3F8 PUSH30 0x3A91EB33A8FD510493A808A422BA9664736F6C6343000811003300000000 "
				},
				"gasEstimates": {
					"creation": {
						"codeDepositCost": "2031800",
						"executionCost": "infinite",
						"totalCost": "infinite"
					},
					"external": {
						"MineStatus(address)": "infinite",
						"approve(address,uint256)": "infinite",
						"balanceOf(address)": "3035",
						"blockStatus(uint256)": "infinite",
						"getApproved(uint256)": "7458",
						"isApprovedForAll(address,address)": "infinite",
						"maxSupply()": "4598",
						"mineInfo(address,uint256)": "infinite",
						"name()": "infinite",
						"ownerOf(uint256)": "infinite",
						"safeTransferFrom(address,address,uint256)": "infinite",
						"safeTransferFrom(address,address,uint256,bytes)": "infinite",
						"setApprovalForAll(address,bool)": "infinite",
						"supportsInterface(bytes4)": "797",
						"symbol()": "infinite",
						"tokenIDPower(uint256)": "infinite",
						"tokenURI(uint256)": "infinite",
						"totalPower()": "2481",
						"totalSupply()": "4688",
						"transferFrom(address,address,uint256)": "infinite"
					},
					"internal": {
						"_afterTokenTransfers(address,address,uint256,uint256)": "17",
						"_approve(address,uint256,address)": "26292",
						"_baseURI()": "infinite",
						"_beforeTokenTransfers(address,address,uint256,uint256)": "17",
						"_burn(uint256)": "infinite",
						"_burn(uint256,bool)": "infinite",
						"_checkContractOnERC721Received(address,address,uint256,bytes memory)": "infinite",
						"_exists(uint256)": "4499",
						"_getAux(address)": "infinite",
						"_numberBurned(address)": "infinite",
						"_numberMinted(address)": "infinite",
						"_ownershipOf(uint256)": "infinite",
						"_safeMint(address,uint256)": "infinite",
						"_safeMint(address,uint256,bytes memory)": "infinite",
						"_setAux(address,uint64)": "infinite",
						"_startTokenId()": "15",
						"_totalMinted()": "infinite",
						"_transfer(address,address,uint256)": "infinite"
					}
				},
				"methodIdentifiers": {
					"MineStatus(address)": "b8ba6007",
					"approve(address,uint256)": "095ea7b3",
					"balanceOf(address)": "70a08231",
					"blockStatus(uint256)": "4be3403c",
					"getApproved(uint256)": "081812fc",
					"isApprovedForAll(address,address)": "e985e9c5",
					"maxSupply()": "d5abeb01",
					"mineInfo(address,uint256)": "eff0730d",
					"name()": "06fdde03",
					"ownerOf(uint256)": "6352211e",
					"safeTransferFrom(address,address,uint256)": "42842e0e",
					"safeTransferFrom(address,address,uint256,bytes)": "b88d4fde",
					"setApprovalForAll(address,bool)": "a22cb465",
					"supportsInterface(bytes4)": "01ffc9a7",
					"symbol()": "95d89b41",
					"tokenIDPower(uint256)": "e29301f9",
					"tokenURI(uint256)": "c87b56dd",
					"totalPower()": "db3ad22c",
					"totalSupply()": "18160ddd",
					"transferFrom(address,address,uint256)": "23b872dd"
				}
			},
			"storageLayout": {
				"storage": [
					{
						"astId": 1081,
						"contract": "minerpunk/ERC721A/ERC721A.sol:ERC721A",
						"label": "_salt",
						"offset": 0,
						"slot": "0",
						"type": "t_uint256"
					},
					{
						"astId": 1083,
						"contract": "minerpunk/ERC721A/ERC721A.sol:ERC721A",
						"label": "_K",
						"offset": 0,
						"slot": "1",
						"type": "t_uint256"
					},
					{
						"astId": 1085,
						"contract": "minerpunk/ERC721A/ERC721A.sol:ERC721A",
						"label": "_startBlockNumber",
						"offset": 0,
						"slot": "2",
						"type": "t_uint256"
					},
					{
						"astId": 1087,
						"contract": "minerpunk/ERC721A/ERC721A.sol:ERC721A",
						"label": "_totalPower",
						"offset": 0,
						"slot": "3",
						"type": "t_uint256"
					},
					{
						"astId": 1089,
						"contract": "minerpunk/ERC721A/ERC721A.sol:ERC721A",
						"label": "_currentIndex",
						"offset": 0,
						"slot": "4",
						"type": "t_uint256"
					},
					{
						"astId": 1091,
						"contract": "minerpunk/ERC721A/ERC721A.sol:ERC721A",
						"label": "_maxSupply",
						"offset": 0,
						"slot": "5",
						"type": "t_uint256"
					},
					{
						"astId": 1093,
						"contract": "minerpunk/ERC721A/ERC721A.sol:ERC721A",
						"label": "_burnCounter",
						"offset": 0,
						"slot": "6",
						"type": "t_uint256"
					},
					{
						"astId": 1095,
						"contract": "minerpunk/ERC721A/ERC721A.sol:ERC721A",
						"label": "_name",
						"offset": 0,
						"slot": "7",
						"type": "t_string_storage"
					},
					{
						"astId": 1097,
						"contract": "minerpunk/ERC721A/ERC721A.sol:ERC721A",
						"label": "_symbol",
						"offset": 0,
						"slot": "8",
						"type": "t_string_storage"
					},
					{
						"astId": 1102,
						"contract": "minerpunk/ERC721A/ERC721A.sol:ERC721A",
						"label": "_ownerships",
						"offset": 0,
						"slot": "9",
						"type": "t_mapping(t_uint256,t_struct(TokenOwnership)2781_storage)"
					},
					{
						"astId": 1107,
						"contract": "minerpunk/ERC721A/ERC721A.sol:ERC721A",
						"label": "_addressData",
						"offset": 0,
						"slot": "10",
						"type": "t_mapping(t_address,t_struct(AddressData)2790_storage)"
					},
					{
						"astId": 1111,
						"contract": "minerpunk/ERC721A/ERC721A.sol:ERC721A",
						"label": "_tokenApprovals",
						"offset": 0,
						"slot": "11",
						"type": "t_mapping(t_uint256,t_address)"
					},
					{
						"astId": 1117,
						"contract": "minerpunk/ERC721A/ERC721A.sol:ERC721A",
						"label": "_operatorApprovals",
						"offset": 0,
						"slot": "12",
						"type": "t_mapping(t_address,t_mapping(t_address,t_bool))"
					},
					{
						"astId": 1124,
						"contract": "minerpunk/ERC721A/ERC721A.sol:ERC721A",
						"label": "_mineInfo",
						"offset": 0,
						"slot": "13",
						"type": "t_mapping(t_address,t_mapping(t_uint256,t_uint256))"
					}
				],
				"types": {
					"t_address": {
						"encoding": "inplace",
						"label": "address",
						"numberOfBytes": "20"
					},
					"t_bool": {
						"encoding": "inplace",
						"label": "bool",
						"numberOfBytes": "1"
					},
					"t_mapping(t_address,t_bool)": {
						"encoding": "mapping",
						"key": "t_address",
						"label": "mapping(address => bool)",
						"numberOfBytes": "32",
						"value": "t_bool"
					},
					"t_mapping(t_address,t_mapping(t_address,t_bool))": {
						"encoding": "mapping",
						"key": "t_address",
						"label": "mapping(address => mapping(address => bool))",
						"numberOfBytes": "32",
						"value": "t_mapping(t_address,t_bool)"
					},
					"t_mapping(t_address,t_mapping(t_uint256,t_uint256))": {
						"encoding": "mapping",
						"key": "t_address",
						"label": "mapping(address => mapping(uint256 => uint256))",
						"numberOfBytes": "32",
						"value": "t_mapping(t_uint256,t_uint256)"
					},
					"t_mapping(t_address,t_struct(AddressData)2790_storage)": {
						"encoding": "mapping",
						"key": "t_address",
						"label": "mapping(address => struct IERC721A.AddressData)",
						"numberOfBytes": "32",
						"value": "t_struct(AddressData)2790_storage"
					},
					"t_mapping(t_uint256,t_address)": {
						"encoding": "mapping",
						"key": "t_uint256",
						"label": "mapping(uint256 => address)",
						"numberOfBytes": "32",
						"value": "t_address"
					},
					"t_mapping(t_uint256,t_struct(TokenOwnership)2781_storage)": {
						"encoding": "mapping",
						"key": "t_uint256",
						"label": "mapping(uint256 => struct IERC721A.TokenOwnership)",
						"numberOfBytes": "32",
						"value": "t_struct(TokenOwnership)2781_storage"
					},
					"t_mapping(t_uint256,t_uint256)": {
						"encoding": "mapping",
						"key": "t_uint256",
						"label": "mapping(uint256 => uint256)",
						"numberOfBytes": "32",
						"value": "t_uint256"
					},
					"t_string_storage": {
						"encoding": "bytes",
						"label": "string",
						"numberOfBytes": "32"
					},
					"t_struct(AddressData)2790_storage": {
						"encoding": "inplace",
						"label": "struct IERC721A.AddressData",
						"members": [
							{
								"astId": 2783,
								"contract": "minerpunk/ERC721A/ERC721A.sol:ERC721A",
								"label": "balance",
								"offset": 0,
								"slot": "0",
								"type": "t_uint64"
							},
							{
								"astId": 2785,
								"contract": "minerpunk/ERC721A/ERC721A.sol:ERC721A",
								"label": "numberMinted",
								"offset": 8,
								"slot": "0",
								"type": "t_uint64"
							},
							{
								"astId": 2787,
								"contract": "minerpunk/ERC721A/ERC721A.sol:ERC721A",
								"label": "numberBurned",
								"offset": 16,
								"slot": "0",
								"type": "t_uint64"
							},
							{
								"astId": 2789,
								"contract": "minerpunk/ERC721A/ERC721A.sol:ERC721A",
								"label": "aux",
								"offset": 24,
								"slot": "0",
								"type": "t_uint64"
							}
						],
						"numberOfBytes": "32"
					},
					"t_struct(TokenOwnership)2781_storage": {
						"encoding": "inplace",
						"label": "struct IERC721A.TokenOwnership",
						"members": [
							{
								"astId": 2776,
								"contract": "minerpunk/ERC721A/ERC721A.sol:ERC721A",
								"label": "addr",
								"offset": 0,
								"slot": "0",
								"type": "t_address"
							},
							{
								"astId": 2778,
								"contract": "minerpunk/ERC721A/ERC721A.sol:ERC721A",
								"label": "startTimestamp",
								"offset": 20,
								"slot": "0",
								"type": "t_uint64"
							},
							{
								"astId": 2780,
								"contract": "minerpunk/ERC721A/ERC721A.sol:ERC721A",
								"label": "burned",
								"offset": 28,
								"slot": "0",
								"type": "t_bool"
							}
						],
						"numberOfBytes": "32"
					},
					"t_uint256": {
						"encoding": "inplace",
						"label": "uint256",
						"numberOfBytes": "32"
					},
					"t_uint64": {
						"encoding": "inplace",
						"label": "uint64",
						"numberOfBytes": "8"
					}
				}
			},
			"userdoc": {
				"errors": {
					"ApprovalCallerNotOwnerNorApproved()": [
						{
							"notice": "The caller must own the token or be an approved operator."
						}
					],
					"ApprovalQueryForNonexistentToken()": [
						{
							"notice": "The token does not exist."
						}
					],
					"ApprovalToCurrentOwner()": [
						{
							"notice": "The caller cannot approve to the current owner."
						}
					],
					"ApproveToCaller()": [
						{
							"notice": "The caller cannot approve to their own address."
						}
					],
					"BalanceQueryForZeroAddress()": [
						{
							"notice": "Cannot query the balance for the zero address."
						}
					],
					"MintToZeroAddress()": [
						{
							"notice": "Cannot mint to the zero address."
						}
					],
					"MintZeroQuantity()": [
						{
							"notice": "The quantity of tokens minted must be more than zero."
						}
					],
					"OwnerQueryForNonexistentToken()": [
						{
							"notice": "The token does not exist."
						}
					],
					"TransferCallerNotOwnerNorApproved()": [
						{
							"notice": "The caller must own the token or be an approved operator."
						}
					],
					"TransferFromIncorrectOwner()": [
						{
							"notice": "The token must be owned by `from`."
						}
					],
					"TransferToNonERC721ReceiverImplementer()": [
						{
							"notice": "Cannot safely transfer to a contract that does not implement the ERC721Receiver interface."
						}
					],
					"TransferToZeroAddress()": [
						{
							"notice": "Cannot transfer to the zero address."
						}
					],
					"URIQueryForNonexistentToken()": [
						{
							"notice": "The token does not exist."
						}
					]
				},
				"kind": "user",
				"methods": {},
				"version": 1
			}
		}
	}
}