{
	"Dcoffer/ERC721A/test.sol": {
		"ERC721A": {
			"abi": [
				{
					"inputs": [
						{
							"internalType": "string",
							"name": "name_",
							"type": "string"
						},
						{
							"internalType": "string",
							"name": "symbol_",
							"type": "string"
						},
						{
							"internalType": "uint256",
							"name": "maxSupply_",
							"type": "uint256"
						},
						{
							"internalType": "uint256",
							"name": "salt_",
							"type": "uint256"
						},
						{
							"internalType": "uint256",
							"name": "DCFperBlock_",
							"type": "uint256"
						}
					],
					"stateMutability": "nonpayable",
					"type": "constructor"
				},
				{
					"inputs": [],
					"name": "ApprovalCallerNotOwnerNorApproved",
					"type": "error"
				},
				{
					"inputs": [],
					"name": "ApprovalQueryForNonexistentToken",
					"type": "error"
				},
				{
					"inputs": [],
					"name": "ApprovalToCurrentOwner",
					"type": "error"
				},
				{
					"inputs": [],
					"name": "ApproveToCaller",
					"type": "error"
				},
				{
					"inputs": [],
					"name": "BalanceQueryForZeroAddress",
					"type": "error"
				},
				{
					"inputs": [],
					"name": "MintToZeroAddress",
					"type": "error"
				},
				{
					"inputs": [],
					"name": "MintZeroQuantity",
					"type": "error"
				},
				{
					"inputs": [],
					"name": "OwnerQueryForNonexistentToken",
					"type": "error"
				},
				{
					"inputs": [],
					"name": "TransferCallerNotOwnerNorApproved",
					"type": "error"
				},
				{
					"inputs": [],
					"name": "TransferFromIncorrectOwner",
					"type": "error"
				},
				{
					"inputs": [],
					"name": "TransferToNonERC721ReceiverImplementer",
					"type": "error"
				},
				{
					"inputs": [],
					"name": "TransferToZeroAddress",
					"type": "error"
				},
				{
					"inputs": [],
					"name": "URIQueryForNonexistentToken",
					"type": "error"
				},
				{
					"anonymous": false,
					"inputs": [
						{
							"indexed": true,
							"internalType": "address",
							"name": "owner",
							"type": "address"
						},
						{
							"indexed": true,
							"internalType": "address",
							"name": "approved",
							"type": "address"
						},
						{
							"indexed": true,
							"internalType": "uint256",
							"name": "tokenId",
							"type": "uint256"
						}
					],
					"name": "Approval",
					"type": "event"
				},
				{
					"anonymous": false,
					"inputs": [
						{
							"indexed": true,
							"internalType": "address",
							"name": "owner",
							"type": "address"
						},
						{
							"indexed": true,
							"internalType": "address",
							"name": "operator",
							"type": "address"
						},
						{
							"indexed": false,
							"internalType": "bool",
							"name": "approved",
							"type": "bool"
						}
					],
					"name": "ApprovalForAll",
					"type": "event"
				},
				{
					"anonymous": false,
					"inputs": [
						{
							"indexed": true,
							"internalType": "address",
							"name": "from",
							"type": "address"
						},
						{
							"indexed": true,
							"internalType": "address",
							"name": "to",
							"type": "address"
						},
						{
							"indexed": true,
							"internalType": "uint256",
							"name": "tokenId",
							"type": "uint256"
						}
					],
					"name": "Transfer",
					"type": "event"
				},
				{
					"inputs": [
						{
							"internalType": "address",
							"name": "user",
							"type": "address"
						}
					],
					"name": "BlockScore",
					"outputs": [
						{
							"internalType": "uint256",
							"name": "",
							"type": "uint256"
						}
					],
					"stateMutability": "view",
					"type": "function"
				},
				{
					"inputs": [],
					"name": "_DCFperBlock",
					"outputs": [
						{
							"internalType": "uint256",
							"name": "",
							"type": "uint256"
						}
					],
					"stateMutability": "view",
					"type": "function"
				},
				{
					"inputs": [],
					"name": "_salt",
					"outputs": [
						{
							"internalType": "uint256",
							"name": "",
							"type": "uint256"
						}
					],
					"stateMutability": "view",
					"type": "function"
				},
				{
					"inputs": [
						{
							"internalType": "address",
							"name": "to",
							"type": "address"
						},
						{
							"internalType": "uint256",
							"name": "tokenId",
							"type": "uint256"
						}
					],
					"name": "approve",
					"outputs": [],
					"stateMutability": "nonpayable",
					"type": "function"
				},
				{
					"inputs": [
						{
							"internalType": "address",
							"name": "owner",
							"type": "address"
						}
					],
					"name": "balanceOf",
					"outputs": [
						{
							"internalType": "uint256",
							"name": "",
							"type": "uint256"
						}
					],
					"stateMutability": "view",
					"type": "function"
				},
				{
					"inputs": [
						{
							"internalType": "uint256",
							"name": "tokenId",
							"type": "uint256"
						}
					],
					"name": "getApproved",
					"outputs": [
						{
							"internalType": "address",
							"name": "",
							"type": "address"
						}
					],
					"stateMutability": "view",
					"type": "function"
				},
				{
					"inputs": [
						{
							"internalType": "address",
							"name": "owner",
							"type": "address"
						},
						{
							"internalType": "address",
							"name": "operator",
							"type": "address"
						}
					],
					"name": "isApprovedForAll",
					"outputs": [
						{
							"internalType": "bool",
							"name": "",
							"type": "bool"
						}
					],
					"stateMutability": "view",
					"type": "function"
				},
				{
					"inputs": [],
					"name": "maxSupply",
					"outputs": [
						{
							"internalType": "uint256",
							"name": "",
							"type": "uint256"
						}
					],
					"stateMutability": "view",
					"type": "function"
				},
				{
					"inputs": [],
					"name": "name",
					"outputs": [
						{
							"internalType": "string",
							"name": "",
							"type": "string"
						}
					],
					"stateMutability": "view",
					"type": "function"
				},
				{
					"inputs": [
						{
							"internalType": "uint256",
							"name": "tokenId",
							"type": "uint256"
						}
					],
					"name": "ownerOf",
					"outputs": [
						{
							"internalType": "address",
							"name": "",
							"type": "address"
						}
					],
					"stateMutability": "view",
					"type": "function"
				},
				{
					"inputs": [
						{
							"internalType": "address",
							"name": "from",
							"type": "address"
						},
						{
							"internalType": "address",
							"name": "to",
							"type": "address"
						},
						{
							"internalType": "uint256",
							"name": "tokenId",
							"type": "uint256"
						}
					],
					"name": "safeTransferFrom",
					"outputs": [],
					"stateMutability": "nonpayable",
					"type": "function"
				},
				{
					"inputs": [
						{
							"internalType": "address",
							"name": "from",
							"type": "address"
						},
						{
							"internalType": "address",
							"name": "to",
							"type": "address"
						},
						{
							"internalType": "uint256",
							"name": "tokenId",
							"type": "uint256"
						},
						{
							"internalType": "bytes",
							"name": "_data",
							"type": "bytes"
						}
					],
					"name": "safeTransferFrom",
					"outputs": [],
					"stateMutability": "nonpayable",
					"type": "function"
				},
				{
					"inputs": [
						{
							"internalType": "address",
							"name": "operator",
							"type": "address"
						},
						{
							"internalType": "bool",
							"name": "approved",
							"type": "bool"
						}
					],
					"name": "setApprovalForAll",
					"outputs": [],
					"stateMutability": "nonpayable",
					"type": "function"
				},
				{
					"inputs": [
						{
							"internalType": "bytes4",
							"name": "interfaceId",
							"type": "bytes4"
						}
					],
					"name": "supportsInterface",
					"outputs": [
						{
							"internalType": "bool",
							"name": "",
							"type": "bool"
						}
					],
					"stateMutability": "view",
					"type": "function"
				},
				{
					"inputs": [],
					"name": "symbol",
					"outputs": [
						{
							"internalType": "string",
							"name": "",
							"type": "string"
						}
					],
					"stateMutability": "view",
					"type": "function"
				},
				{
					"inputs": [
						{
							"internalType": "uint256",
							"name": "tokenId",
							"type": "uint256"
						}
					],
					"name": "tokenURI",
					"outputs": [
						{
							"internalType": "string",
							"name": "",
							"type": "string"
						}
					],
					"stateMutability": "view",
					"type": "function"
				},
				{
					"inputs": [],
					"name": "totalSupply",
					"outputs": [
						{
							"internalType": "uint256",
							"name": "",
							"type": "uint256"
						}
					],
					"stateMutability": "view",
					"type": "function"
				},
				{
					"inputs": [
						{
							"internalType": "address",
							"name": "from",
							"type": "address"
						},
						{
							"internalType": "address",
							"name": "to",
							"type": "address"
						},
						{
							"internalType": "uint256",
							"name": "tokenId",
							"type": "uint256"
						}
					],
					"name": "transferFrom",
					"outputs": [],
					"stateMutability": "nonpayable",
					"type": "function"
				}
			],
			"devdoc": {
				"details": "Implementation of https://eips.ethereum.org/EIPS/eip-721[ERC721] Non-Fungible Token Standard, including the Metadata extension. Built to optimize for lower gas during batch mints. Assumes serials are sequentially minted starting at _startTokenId() (defaults to 0, e.g. 0, 1, 2, 3..). Assumes that an owner cannot have more than 2**64 - 1 (max value of uint64) of supply. Assumes that the maximum token id cannot exceed 2**256 - 1 (max value of uint256).",
				"kind": "dev",
				"methods": {
					"approve(address,uint256)": {
						"details": "See {IERC721-approve}."
					},
					"balanceOf(address)": {
						"details": "See {IERC721-balanceOf}."
					},
					"getApproved(uint256)": {
						"details": "See {IERC721-getApproved}."
					},
					"isApprovedForAll(address,address)": {
						"details": "See {IERC721-isApprovedForAll}."
					},
					"name()": {
						"details": "See {IERC721Metadata-name}."
					},
					"ownerOf(uint256)": {
						"details": "See {IERC721-ownerOf}."
					},
					"safeTransferFrom(address,address,uint256)": {
						"details": "See {IERC721-safeTransferFrom}."
					},
					"safeTransferFrom(address,address,uint256,bytes)": {
						"details": "See {IERC721-safeTransferFrom}."
					},
					"setApprovalForAll(address,bool)": {
						"details": "See {IERC721-setApprovalForAll}."
					},
					"supportsInterface(bytes4)": {
						"details": "See {IERC165-supportsInterface}."
					},
					"symbol()": {
						"details": "See {IERC721Metadata-symbol}."
					},
					"tokenURI(uint256)": {
						"details": "See {IERC721Metadata-tokenURI}."
					},
					"totalSupply()": {
						"details": "Burned tokens are calculated here, use _totalMinted() if you want to count just minted tokens."
					},
					"transferFrom(address,address,uint256)": {
						"details": "See {IERC721-transferFrom}."
					}
				},
				"version": 1
			},
			"evm": {
				"assembly": "    /* \"Dcoffer/ERC721A/test.sol\":1024:22020  contract ERC721A is Context, ERC165, IERC721A, IDCF {... */\n  mstore(0x40, 0x80)\n    /* \"Dcoffer/ERC721A/test.sol\":2308:2630  constructor(string memory name_, string memory symbol_, uint256 maxSupply_, uint256 salt_, uint256 DCFperBlock_) {... */\n  callvalue\n  dup1\n  iszero\n  tag_1\n  jumpi\n  0x00\n  dup1\n  revert\ntag_1:\n  pop\n  mload(0x40)\n  sub(codesize, bytecodeSize)\n  dup1\n  bytecodeSize\n  dup4\n  codecopy\n  dup2\n  dup2\n  add\n  0x40\n  mstore\n  dup2\n  add\n  swap1\n  tag_2\n  swap2\n  swap1\n  tag_3\n  jump\t// in\ntag_2:\n    /* \"Dcoffer/ERC721A/test.sol\":2440:2445  name_ */\n  dup5\n    /* \"Dcoffer/ERC721A/test.sol\":2432:2437  _name */\n  0x05\n    /* \"Dcoffer/ERC721A/test.sol\":2432:2445  _name = name_ */\n  swap1\n  dup2\n  tag_6\n  swap2\n  swap1\n  tag_7\n  jump\t// in\ntag_6:\n  pop\n    /* \"Dcoffer/ERC721A/test.sol\":2466:2473  symbol_ */\n  dup4\n    /* \"Dcoffer/ERC721A/test.sol\":2456:2463  _symbol */\n  0x06\n    /* \"Dcoffer/ERC721A/test.sol\":2456:2473  _symbol = symbol_ */\n  swap1\n  dup2\n  tag_8\n  swap2\n  swap1\n  tag_7\n  jump\t// in\ntag_8:\n  pop\n    /* \"Dcoffer/ERC721A/test.sol\":2497:2507  maxSupply_ */\n  dup3\n    /* \"Dcoffer/ERC721A/test.sol\":2484:2494  _maxSupply */\n  0x03\n    /* \"Dcoffer/ERC721A/test.sol\":2484:2507  _maxSupply = maxSupply_ */\n  dup2\n  swap1\n  sstore\n  pop\n    /* \"Dcoffer/ERC721A/test.sol\":2534:2549  _startTokenId() */\n  tag_9\n    /* \"Dcoffer/ERC721A/test.sol\":2534:2547  _startTokenId */\n  shl(0x20, tag_10)\n    /* \"Dcoffer/ERC721A/test.sol\":2534:2549  _startTokenId() */\n  0x20\n  shr\n  jump\t// in\ntag_9:\n    /* \"Dcoffer/ERC721A/test.sol\":2518:2531  _currentIndex */\n  0x02\n    /* \"Dcoffer/ERC721A/test.sol\":2518:2549  _currentIndex = _startTokenId() */\n  dup2\n  swap1\n  sstore\n  pop\n    /* \"Dcoffer/ERC721A/test.sol\":2569:2574  salt_ */\n  dup2\n    /* \"Dcoffer/ERC721A/test.sol\":2561:2566  _salt */\n  0x00\n    /* \"Dcoffer/ERC721A/test.sol\":2561:2574  _salt = salt_ */\n  dup2\n  swap1\n  sstore\n  pop\n    /* \"Dcoffer/ERC721A/test.sol\":2603:2615  DCFperBlock_ */\n  dup1\n    /* \"Dcoffer/ERC721A/test.sol\":2588:2600  _DCFperBlock */\n  0x01\n    /* \"Dcoffer/ERC721A/test.sol\":2588:2615  _DCFperBlock = DCFperBlock_ */\n  dup2\n  swap1\n  sstore\n  pop\n    /* \"Dcoffer/ERC721A/test.sol\":2308:2630  constructor(string memory name_, string memory symbol_, uint256 maxSupply_, uint256 salt_, uint256 DCFperBlock_) {... */\n  pop\n  pop\n  pop\n  pop\n  pop\n    /* \"Dcoffer/ERC721A/test.sol\":1024:22020  contract ERC721A is Context, ERC165, IERC721A, IDCF {... */\n  jump(tag_11)\n    /* \"Dcoffer/ERC721A/test.sol\":3271:3363  function _startTokenId() internal view virtual returns (uint256) {... */\ntag_10:\n    /* \"Dcoffer/ERC721A/test.sol\":3327:3334  uint256 */\n  0x00\n    /* \"Dcoffer/ERC721A/test.sol\":3271:3363  function _startTokenId() internal view virtual returns (uint256) {... */\n  swap1\n  jump\t// out\n    /* \"#utility.yul\":7:82   */\ntag_13:\n    /* \"#utility.yul\":40:46   */\n  0x00\n    /* \"#utility.yul\":73:75   */\n  0x40\n    /* \"#utility.yul\":67:76   */\n  mload\n    /* \"#utility.yul\":57:76   */\n  swap1\n  pop\n    /* \"#utility.yul\":7:82   */\n  swap1\n  jump\t// out\n    /* \"#utility.yul\":88:205   */\ntag_14:\n    /* \"#utility.yul\":197:198   */\n  0x00\n    /* \"#utility.yul\":194:195   */\n  dup1\n    /* \"#utility.yul\":187:199   */\n  revert\n    /* \"#utility.yul\":211:328   */\ntag_15:\n    /* \"#utility.yul\":320:321   */\n  0x00\n    /* \"#utility.yul\":317:318   */\n  dup1\n    /* \"#utility.yul\":310:322   */\n  revert\n    /* \"#utility.yul\":334:451   */\ntag_16:\n    /* \"#utility.yul\":443:444   */\n  0x00\n    /* \"#utility.yul\":440:441   */\n  dup1\n    /* \"#utility.yul\":433:445   */\n  revert\n    /* \"#utility.yul\":457:574   */\ntag_17:\n    /* \"#utility.yul\":566:567   */\n  0x00\n    /* \"#utility.yul\":563:564   */\n  dup1\n    /* \"#utility.yul\":556:568   */\n  revert\n    /* \"#utility.yul\":580:682   */\ntag_18:\n    /* \"#utility.yul\":621:627   */\n  0x00\n    /* \"#utility.yul\":672:674   */\n  0x1f\n    /* \"#utility.yul\":668:675   */\n  not\n    /* \"#utility.yul\":663:665   */\n  0x1f\n    /* \"#utility.yul\":656:661   */\n  dup4\n    /* \"#utility.yul\":652:666   */\n  add\n    /* \"#utility.yul\":648:676   */\n  and\n    /* \"#utility.yul\":638:676   */\n  swap1\n  pop\n    /* \"#utility.yul\":580:682   */\n  swap2\n  swap1\n  pop\n  jump\t// out\n    /* \"#utility.yul\":688:868   */\ntag_19:\n    /* \"#utility.yul\":736:813   */\n  0x4e487b7100000000000000000000000000000000000000000000000000000000\n    /* \"#utility.yul\":733:734   */\n  0x00\n    /* \"#utility.yul\":726:814   */\n  mstore\n    /* \"#utility.yul\":833:837   */\n  0x41\n    /* \"#utility.yul\":830:831   */\n  0x04\n    /* \"#utility.yul\":823:838   */\n  mstore\n    /* \"#utility.yul\":857:861   */\n  0x24\n    /* \"#utility.yul\":854:855   */\n  0x00\n    /* \"#utility.yul\":847:862   */\n  revert\n    /* \"#utility.yul\":874:1155   */\ntag_20:\n    /* \"#utility.yul\":957:984   */\n  tag_56\n    /* \"#utility.yul\":979:983   */\n  dup3\n    /* \"#utility.yul\":957:984   */\n  tag_18\n  jump\t// in\ntag_56:\n    /* \"#utility.yul\":949:955   */\n  dup2\n    /* \"#utility.yul\":945:985   */\n  add\n    /* \"#utility.yul\":1087:1093   */\n  dup2\n    /* \"#utility.yul\":1075:1085   */\n  dup2\n    /* \"#utility.yul\":1072:1094   */\n  lt\n    /* \"#utility.yul\":1051:1069   */\n  0xffffffffffffffff\n    /* \"#utility.yul\":1039:1049   */\n  dup3\n    /* \"#utility.yul\":1036:1070   */\n  gt\n    /* \"#utility.yul\":1033:1095   */\n  or\n    /* \"#utility.yul\":1030:1118   */\n  iszero\n  tag_57\n  jumpi\n    /* \"#utility.yul\":1098:1116   */\n  tag_58\n  tag_19\n  jump\t// in\ntag_58:\n    /* \"#utility.yul\":1030:1118   */\ntag_57:\n    /* \"#utility.yul\":1138:1148   */\n  dup1\n    /* \"#utility.yul\":1134:1136   */\n  0x40\n    /* \"#utility.yul\":1127:1149   */\n  mstore\n    /* \"#utility.yul\":917:1155   */\n  pop\n    /* \"#utility.yul\":874:1155   */\n  pop\n  pop\n  jump\t// out\n    /* \"#utility.yul\":1161:1290   */\ntag_21:\n    /* \"#utility.yul\":1195:1201   */\n  0x00\n    /* \"#utility.yul\":1222:1242   */\n  tag_60\n  tag_13\n  jump\t// in\ntag_60:\n    /* \"#utility.yul\":1212:1242   */\n  swap1\n  pop\n    /* \"#utility.yul\":1251:1284   */\n  tag_61\n    /* \"#utility.yul\":1279:1283   */\n  dup3\n    /* \"#utility.yul\":1271:1277   */\n  dup3\n    /* \"#utility.yul\":1251:1284   */\n  tag_20\n  jump\t// in\ntag_61:\n    /* \"#utility.yul\":1161:1290   */\n  swap2\n  swap1\n  pop\n  jump\t// out\n    /* \"#utility.yul\":1296:1604   */\ntag_22:\n    /* \"#utility.yul\":1358:1362   */\n  0x00\n    /* \"#utility.yul\":1448:1466   */\n  0xffffffffffffffff\n    /* \"#utility.yul\":1440:1446   */\n  dup3\n    /* \"#utility.yul\":1437:1467   */\n  gt\n    /* \"#utility.yul\":1434:1490   */\n  iszero\n  tag_63\n  jumpi\n    /* \"#utility.yul\":1470:1488   */\n  tag_64\n  tag_19\n  jump\t// in\ntag_64:\n    /* \"#utility.yul\":1434:1490   */\ntag_63:\n    /* \"#utility.yul\":1508:1537   */\n  tag_65\n    /* \"#utility.yul\":1530:1536   */\n  dup3\n    /* \"#utility.yul\":1508:1537   */\n  tag_18\n  jump\t// in\ntag_65:\n    /* \"#utility.yul\":1500:1537   */\n  swap1\n  pop\n    /* \"#utility.yul\":1592:1596   */\n  0x20\n    /* \"#utility.yul\":1586:1590   */\n  dup2\n    /* \"#utility.yul\":1582:1597   */\n  add\n    /* \"#utility.yul\":1574:1597   */\n  swap1\n  pop\n    /* \"#utility.yul\":1296:1604   */\n  swap2\n  swap1\n  pop\n  jump\t// out\n    /* \"#utility.yul\":1610:1856   */\ntag_23:\n    /* \"#utility.yul\":1691:1692   */\n  0x00\n    /* \"#utility.yul\":1701:1814   */\ntag_67:\n    /* \"#utility.yul\":1715:1721   */\n  dup4\n    /* \"#utility.yul\":1712:1713   */\n  dup2\n    /* \"#utility.yul\":1709:1722   */\n  lt\n    /* \"#utility.yul\":1701:1814   */\n  iszero\n  tag_69\n  jumpi\n    /* \"#utility.yul\":1800:1801   */\n  dup1\n    /* \"#utility.yul\":1795:1798   */\n  dup3\n    /* \"#utility.yul\":1791:1802   */\n  add\n    /* \"#utility.yul\":1785:1803   */\n  mload\n    /* \"#utility.yul\":1781:1782   */\n  dup2\n    /* \"#utility.yul\":1776:1779   */\n  dup5\n    /* \"#utility.yul\":1772:1783   */\n  add\n    /* \"#utility.yul\":1765:1804   */\n  mstore\n    /* \"#utility.yul\":1737:1739   */\n  0x20\n    /* \"#utility.yul\":1734:1735   */\n  dup2\n    /* \"#utility.yul\":1730:1740   */\n  add\n    /* \"#utility.yul\":1725:1740   */\n  swap1\n  pop\n    /* \"#utility.yul\":1701:1814   */\n  jump(tag_67)\ntag_69:\n    /* \"#utility.yul\":1848:1849   */\n  0x00\n    /* \"#utility.yul\":1839:1845   */\n  dup5\n    /* \"#utility.yul\":1834:1837   */\n  dup5\n    /* \"#utility.yul\":1830:1846   */\n  add\n    /* \"#utility.yul\":1823:1850   */\n  mstore\n    /* \"#utility.yul\":1672:1856   */\n  pop\n    /* \"#utility.yul\":1610:1856   */\n  pop\n  pop\n  pop\n  jump\t// out\n    /* \"#utility.yul\":1862:2296   */\ntag_24:\n    /* \"#utility.yul\":1951:1956   */\n  0x00\n    /* \"#utility.yul\":1976:2042   */\n  tag_71\n    /* \"#utility.yul\":1992:2041   */\n  tag_72\n    /* \"#utility.yul\":2034:2040   */\n  dup5\n    /* \"#utility.yul\":1992:2041   */\n  tag_22\n  jump\t// in\ntag_72:\n    /* \"#utility.yul\":1976:2042   */\n  tag_21\n  jump\t// in\ntag_71:\n    /* \"#utility.yul\":1967:2042   */\n  swap1\n  pop\n    /* \"#utility.yul\":2065:2071   */\n  dup3\n    /* \"#utility.yul\":2058:2063   */\n  dup2\n    /* \"#utility.yul\":2051:2072   */\n  mstore\n    /* \"#utility.yul\":2103:2107   */\n  0x20\n    /* \"#utility.yul\":2096:2101   */\n  dup2\n    /* \"#utility.yul\":2092:2108   */\n  add\n    /* \"#utility.yul\":2141:2144   */\n  dup5\n    /* \"#utility.yul\":2132:2138   */\n  dup5\n    /* \"#utility.yul\":2127:2130   */\n  dup5\n    /* \"#utility.yul\":2123:2139   */\n  add\n    /* \"#utility.yul\":2120:2145   */\n  gt\n    /* \"#utility.yul\":2117:2229   */\n  iszero\n  tag_73\n  jumpi\n    /* \"#utility.yul\":2148:2227   */\n  tag_74\n  tag_17\n  jump\t// in\ntag_74:\n    /* \"#utility.yul\":2117:2229   */\ntag_73:\n    /* \"#utility.yul\":2238:2290   */\n  tag_75\n    /* \"#utility.yul\":2283:2289   */\n  dup5\n    /* \"#utility.yul\":2278:2281   */\n  dup3\n    /* \"#utility.yul\":2273:2276   */\n  dup6\n    /* \"#utility.yul\":2238:2290   */\n  tag_23\n  jump\t// in\ntag_75:\n    /* \"#utility.yul\":1957:2296   */\n  pop\n    /* \"#utility.yul\":1862:2296   */\n  swap4\n  swap3\n  pop\n  pop\n  pop\n  jump\t// out\n    /* \"#utility.yul\":2316:2671   */\ntag_25:\n    /* \"#utility.yul\":2383:2388   */\n  0x00\n    /* \"#utility.yul\":2432:2435   */\n  dup3\n    /* \"#utility.yul\":2425:2429   */\n  0x1f\n    /* \"#utility.yul\":2417:2423   */\n  dup4\n    /* \"#utility.yul\":2413:2430   */\n  add\n    /* \"#utility.yul\":2409:2436   */\n  slt\n    /* \"#utility.yul\":2399:2521   */\n  tag_77\n  jumpi\n    /* \"#utility.yul\":2440:2519   */\n  tag_78\n  tag_16\n  jump\t// in\ntag_78:\n    /* \"#utility.yul\":2399:2521   */\ntag_77:\n    /* \"#utility.yul\":2550:2556   */\n  dup2\n    /* \"#utility.yul\":2544:2557   */\n  mload\n    /* \"#utility.yul\":2575:2665   */\n  tag_79\n    /* \"#utility.yul\":2661:2664   */\n  dup5\n    /* \"#utility.yul\":2653:2659   */\n  dup3\n    /* \"#utility.yul\":2646:2650   */\n  0x20\n    /* \"#utility.yul\":2638:2644   */\n  dup7\n    /* \"#utility.yul\":2634:2651   */\n  add\n    /* \"#utility.yul\":2575:2665   */\n  tag_24\n  jump\t// in\ntag_79:\n    /* \"#utility.yul\":2566:2665   */\n  swap2\n  pop\n    /* \"#utility.yul\":2389:2671   */\n  pop\n    /* \"#utility.yul\":2316:2671   */\n  swap3\n  swap2\n  pop\n  pop\n  jump\t// out\n    /* \"#utility.yul\":2677:2754   */\ntag_26:\n    /* \"#utility.yul\":2714:2721   */\n  0x00\n    /* \"#utility.yul\":2743:2748   */\n  dup2\n    /* \"#utility.yul\":2732:2748   */\n  swap1\n  pop\n    /* \"#utility.yul\":2677:2754   */\n  swap2\n  swap1\n  pop\n  jump\t// out\n    /* \"#utility.yul\":2760:2882   */\ntag_27:\n    /* \"#utility.yul\":2833:2857   */\n  tag_82\n    /* \"#utility.yul\":2851:2856   */\n  dup2\n    /* \"#utility.yul\":2833:2857   */\n  tag_26\n  jump\t// in\ntag_82:\n    /* \"#utility.yul\":2826:2831   */\n  dup2\n    /* \"#utility.yul\":2823:2858   */\n  eq\n    /* \"#utility.yul\":2813:2876   */\n  tag_83\n  jumpi\n    /* \"#utility.yul\":2872:2873   */\n  0x00\n    /* \"#utility.yul\":2869:2870   */\n  dup1\n    /* \"#utility.yul\":2862:2874   */\n  revert\n    /* \"#utility.yul\":2813:2876   */\ntag_83:\n    /* \"#utility.yul\":2760:2882   */\n  pop\n  jump\t// out\n    /* \"#utility.yul\":2888:3031   */\ntag_28:\n    /* \"#utility.yul\":2945:2950   */\n  0x00\n    /* \"#utility.yul\":2976:2982   */\n  dup2\n    /* \"#utility.yul\":2970:2983   */\n  mload\n    /* \"#utility.yul\":2961:2983   */\n  swap1\n  pop\n    /* \"#utility.yul\":2992:3025   */\n  tag_85\n    /* \"#utility.yul\":3019:3024   */\n  dup2\n    /* \"#utility.yul\":2992:3025   */\n  tag_27\n  jump\t// in\ntag_85:\n    /* \"#utility.yul\":2888:3031   */\n  swap3\n  swap2\n  pop\n  pop\n  jump\t// out\n    /* \"#utility.yul\":3037:4360   */\ntag_3:\n    /* \"#utility.yul\":3163:3169   */\n  0x00\n    /* \"#utility.yul\":3171:3177   */\n  dup1\n    /* \"#utility.yul\":3179:3185   */\n  0x00\n    /* \"#utility.yul\":3187:3193   */\n  dup1\n    /* \"#utility.yul\":3195:3201   */\n  0x00\n    /* \"#utility.yul\":3244:3247   */\n  0xa0\n    /* \"#utility.yul\":3232:3241   */\n  dup7\n    /* \"#utility.yul\":3223:3230   */\n  dup9\n    /* \"#utility.yul\":3219:3242   */\n  sub\n    /* \"#utility.yul\":3215:3248   */\n  slt\n    /* \"#utility.yul\":3212:3332   */\n  iszero\n  tag_87\n  jumpi\n    /* \"#utility.yul\":3251:3330   */\n  tag_88\n  tag_14\n  jump\t// in\ntag_88:\n    /* \"#utility.yul\":3212:3332   */\ntag_87:\n    /* \"#utility.yul\":3392:3393   */\n  0x00\n    /* \"#utility.yul\":3381:3390   */\n  dup7\n    /* \"#utility.yul\":3377:3394   */\n  add\n    /* \"#utility.yul\":3371:3395   */\n  mload\n    /* \"#utility.yul\":3422:3440   */\n  0xffffffffffffffff\n    /* \"#utility.yul\":3414:3420   */\n  dup2\n    /* \"#utility.yul\":3411:3441   */\n  gt\n    /* \"#utility.yul\":3408:3525   */\n  iszero\n  tag_89\n  jumpi\n    /* \"#utility.yul\":3444:3523   */\n  tag_90\n  tag_15\n  jump\t// in\ntag_90:\n    /* \"#utility.yul\":3408:3525   */\ntag_89:\n    /* \"#utility.yul\":3549:3623   */\n  tag_91\n    /* \"#utility.yul\":3615:3622   */\n  dup9\n    /* \"#utility.yul\":3606:3612   */\n  dup3\n    /* \"#utility.yul\":3595:3604   */\n  dup10\n    /* \"#utility.yul\":3591:3613   */\n  add\n    /* \"#utility.yul\":3549:3623   */\n  tag_25\n  jump\t// in\ntag_91:\n    /* \"#utility.yul\":3539:3623   */\n  swap6\n  pop\n    /* \"#utility.yul\":3342:3633   */\n  pop\n    /* \"#utility.yul\":3693:3695   */\n  0x20\n    /* \"#utility.yul\":3682:3691   */\n  dup7\n    /* \"#utility.yul\":3678:3696   */\n  add\n    /* \"#utility.yul\":3672:3697   */\n  mload\n    /* \"#utility.yul\":3724:3742   */\n  0xffffffffffffffff\n    /* \"#utility.yul\":3716:3722   */\n  dup2\n    /* \"#utility.yul\":3713:3743   */\n  gt\n    /* \"#utility.yul\":3710:3827   */\n  iszero\n  tag_92\n  jumpi\n    /* \"#utility.yul\":3746:3825   */\n  tag_93\n  tag_15\n  jump\t// in\ntag_93:\n    /* \"#utility.yul\":3710:3827   */\ntag_92:\n    /* \"#utility.yul\":3851:3925   */\n  tag_94\n    /* \"#utility.yul\":3917:3924   */\n  dup9\n    /* \"#utility.yul\":3908:3914   */\n  dup3\n    /* \"#utility.yul\":3897:3906   */\n  dup10\n    /* \"#utility.yul\":3893:3915   */\n  add\n    /* \"#utility.yul\":3851:3925   */\n  tag_25\n  jump\t// in\ntag_94:\n    /* \"#utility.yul\":3841:3925   */\n  swap5\n  pop\n    /* \"#utility.yul\":3643:3935   */\n  pop\n    /* \"#utility.yul\":3974:3976   */\n  0x40\n    /* \"#utility.yul\":4000:4064   */\n  tag_95\n    /* \"#utility.yul\":4056:4063   */\n  dup9\n    /* \"#utility.yul\":4047:4053   */\n  dup3\n    /* \"#utility.yul\":4036:4045   */\n  dup10\n    /* \"#utility.yul\":4032:4054   */\n  add\n    /* \"#utility.yul\":4000:4064   */\n  tag_28\n  jump\t// in\ntag_95:\n    /* \"#utility.yul\":3990:4064   */\n  swap4\n  pop\n    /* \"#utility.yul\":3945:4074   */\n  pop\n    /* \"#utility.yul\":4113:4115   */\n  0x60\n    /* \"#utility.yul\":4139:4203   */\n  tag_96\n    /* \"#utility.yul\":4195:4202   */\n  dup9\n    /* \"#utility.yul\":4186:4192   */\n  dup3\n    /* \"#utility.yul\":4175:4184   */\n  dup10\n    /* \"#utility.yul\":4171:4193   */\n  add\n    /* \"#utility.yul\":4139:4203   */\n  tag_28\n  jump\t// in\ntag_96:\n    /* \"#utility.yul\":4129:4203   */\n  swap3\n  pop\n    /* \"#utility.yul\":4084:4213   */\n  pop\n    /* \"#utility.yul\":4252:4255   */\n  0x80\n    /* \"#utility.yul\":4279:4343   */\n  tag_97\n    /* \"#utility.yul\":4335:4342   */\n  dup9\n    /* \"#utility.yul\":4326:4332   */\n  dup3\n    /* \"#utility.yul\":4315:4324   */\n  dup10\n    /* \"#utility.yul\":4311:4333   */\n  add\n    /* \"#utility.yul\":4279:4343   */\n  tag_28\n  jump\t// in\ntag_97:\n    /* \"#utility.yul\":4269:4343   */\n  swap2\n  pop\n    /* \"#utility.yul\":4223:4353   */\n  pop\n    /* \"#utility.yul\":3037:4360   */\n  swap3\n  swap6\n  pop\n  swap3\n  swap6\n  swap1\n  swap4\n  pop\n  jump\t// out\n    /* \"#utility.yul\":4366:4465   */\ntag_29:\n    /* \"#utility.yul\":4418:4424   */\n  0x00\n    /* \"#utility.yul\":4452:4457   */\n  dup2\n    /* \"#utility.yul\":4446:4458   */\n  mload\n    /* \"#utility.yul\":4436:4458   */\n  swap1\n  pop\n    /* \"#utility.yul\":4366:4465   */\n  swap2\n  swap1\n  pop\n  jump\t// out\n    /* \"#utility.yul\":4471:4651   */\ntag_30:\n    /* \"#utility.yul\":4519:4596   */\n  0x4e487b7100000000000000000000000000000000000000000000000000000000\n    /* \"#utility.yul\":4516:4517   */\n  0x00\n    /* \"#utility.yul\":4509:4597   */\n  mstore\n    /* \"#utility.yul\":4616:4620   */\n  0x22\n    /* \"#utility.yul\":4613:4614   */\n  0x04\n    /* \"#utility.yul\":4606:4621   */\n  mstore\n    /* \"#utility.yul\":4640:4644   */\n  0x24\n    /* \"#utility.yul\":4637:4638   */\n  0x00\n    /* \"#utility.yul\":4630:4645   */\n  revert\n    /* \"#utility.yul\":4657:4977   */\ntag_31:\n    /* \"#utility.yul\":4701:4707   */\n  0x00\n    /* \"#utility.yul\":4738:4739   */\n  0x02\n    /* \"#utility.yul\":4732:4736   */\n  dup3\n    /* \"#utility.yul\":4728:4740   */\n  div\n    /* \"#utility.yul\":4718:4740   */\n  swap1\n  pop\n    /* \"#utility.yul\":4785:4786   */\n  0x01\n    /* \"#utility.yul\":4779:4783   */\n  dup3\n    /* \"#utility.yul\":4775:4787   */\n  and\n    /* \"#utility.yul\":4806:4824   */\n  dup1\n    /* \"#utility.yul\":4796:4877   */\n  tag_101\n  jumpi\n    /* \"#utility.yul\":4862:4866   */\n  0x7f\n    /* \"#utility.yul\":4854:4860   */\n  dup3\n    /* \"#utility.yul\":4850:4867   */\n  and\n    /* \"#utility.yul\":4840:4867   */\n  swap2\n  pop\n    /* \"#utility.yul\":4796:4877   */\ntag_101:\n    /* \"#utility.yul\":4924:4926   */\n  0x20\n    /* \"#utility.yul\":4916:4922   */\n  dup3\n    /* \"#utility.yul\":4913:4927   */\n  lt\n    /* \"#utility.yul\":4893:4911   */\n  dup2\n    /* \"#utility.yul\":4890:4928   */\n  sub\n    /* \"#utility.yul\":4887:4971   */\n  tag_102\n  jumpi\n    /* \"#utility.yul\":4943:4961   */\n  tag_103\n  tag_30\n  jump\t// in\ntag_103:\n    /* \"#utility.yul\":4887:4971   */\ntag_102:\n    /* \"#utility.yul\":4708:4977   */\n  pop\n    /* \"#utility.yul\":4657:4977   */\n  swap2\n  swap1\n  pop\n  jump\t// out\n    /* \"#utility.yul\":4983:5124   */\ntag_32:\n    /* \"#utility.yul\":5032:5036   */\n  0x00\n    /* \"#utility.yul\":5055:5058   */\n  dup2\n    /* \"#utility.yul\":5047:5058   */\n  swap1\n  pop\n    /* \"#utility.yul\":5078:5081   */\n  dup2\n    /* \"#utility.yul\":5075:5076   */\n  0x00\n    /* \"#utility.yul\":5068:5082   */\n  mstore\n    /* \"#utility.yul\":5112:5116   */\n  0x20\n    /* \"#utility.yul\":5109:5110   */\n  0x00\n    /* \"#utility.yul\":5099:5117   */\n  keccak256\n    /* \"#utility.yul\":5091:5117   */\n  swap1\n  pop\n    /* \"#utility.yul\":4983:5124   */\n  swap2\n  swap1\n  pop\n  jump\t// out\n    /* \"#utility.yul\":5130:5223   */\ntag_33:\n    /* \"#utility.yul\":5167:5173   */\n  0x00\n    /* \"#utility.yul\":5214:5216   */\n  0x20\n    /* \"#utility.yul\":5209:5211   */\n  0x1f\n    /* \"#utility.yul\":5202:5207   */\n  dup4\n    /* \"#utility.yul\":5198:5212   */\n  add\n    /* \"#utility.yul\":5194:5217   */\n  div\n    /* \"#utility.yul\":5184:5217   */\n  swap1\n  pop\n    /* \"#utility.yul\":5130:5223   */\n  swap2\n  swap1\n  pop\n  jump\t// out\n    /* \"#utility.yul\":5229:5336   */\ntag_34:\n    /* \"#utility.yul\":5273:5281   */\n  0x00\n    /* \"#utility.yul\":5323:5328   */\n  dup3\n    /* \"#utility.yul\":5317:5321   */\n  dup3\n    /* \"#utility.yul\":5313:5329   */\n  shl\n    /* \"#utility.yul\":5292:5329   */\n  swap1\n  pop\n    /* \"#utility.yul\":5229:5336   */\n  swap3\n  swap2\n  pop\n  pop\n  jump\t// out\n    /* \"#utility.yul\":5342:5735   */\ntag_35:\n    /* \"#utility.yul\":5411:5417   */\n  0x00\n    /* \"#utility.yul\":5461:5462   */\n  0x08\n    /* \"#utility.yul\":5449:5459   */\n  dup4\n    /* \"#utility.yul\":5445:5463   */\n  mul\n    /* \"#utility.yul\":5484:5581   */\n  tag_108\n    /* \"#utility.yul\":5514:5580   */\n  0xffffffffffffffffffffffffffffffffffffffffffffffffffffffffffffffff\n    /* \"#utility.yul\":5503:5512   */\n  dup3\n    /* \"#utility.yul\":5484:5581   */\n  tag_34\n  jump\t// in\ntag_108:\n    /* \"#utility.yul\":5602:5641   */\n  tag_109\n    /* \"#utility.yul\":5632:5640   */\n  dup7\n    /* \"#utility.yul\":5621:5630   */\n  dup4\n    /* \"#utility.yul\":5602:5641   */\n  tag_34\n  jump\t// in\ntag_109:\n    /* \"#utility.yul\":5590:5641   */\n  swap6\n  pop\n    /* \"#utility.yul\":5674:5678   */\n  dup1\n    /* \"#utility.yul\":5670:5679   */\n  not\n    /* \"#utility.yul\":5663:5668   */\n  dup5\n    /* \"#utility.yul\":5659:5680   */\n  and\n    /* \"#utility.yul\":5650:5680   */\n  swap4\n  pop\n    /* \"#utility.yul\":5723:5727   */\n  dup1\n    /* \"#utility.yul\":5713:5721   */\n  dup7\n    /* \"#utility.yul\":5709:5728   */\n  and\n    /* \"#utility.yul\":5702:5707   */\n  dup5\n    /* \"#utility.yul\":5699:5729   */\n  or\n    /* \"#utility.yul\":5689:5729   */\n  swap3\n  pop\n    /* \"#utility.yul\":5418:5735   */\n  pop\n  pop\n    /* \"#utility.yul\":5342:5735   */\n  swap4\n  swap3\n  pop\n  pop\n  pop\n  jump\t// out\n    /* \"#utility.yul\":5741:5801   */\ntag_36:\n    /* \"#utility.yul\":5769:5772   */\n  0x00\n    /* \"#utility.yul\":5790:5795   */\n  dup2\n    /* \"#utility.yul\":5783:5795   */\n  swap1\n  pop\n    /* \"#utility.yul\":5741:5801   */\n  swap2\n  swap1\n  pop\n  jump\t// out\n    /* \"#utility.yul\":5807:5949   */\ntag_37:\n    /* \"#utility.yul\":5857:5866   */\n  0x00\n    /* \"#utility.yul\":5890:5943   */\n  tag_112\n    /* \"#utility.yul\":5908:5942   */\n  tag_113\n    /* \"#utility.yul\":5917:5941   */\n  tag_114\n    /* \"#utility.yul\":5935:5940   */\n  dup5\n    /* \"#utility.yul\":5917:5941   */\n  tag_26\n  jump\t// in\ntag_114:\n    /* \"#utility.yul\":5908:5942   */\n  tag_36\n  jump\t// in\ntag_113:\n    /* \"#utility.yul\":5890:5943   */\n  tag_26\n  jump\t// in\ntag_112:\n    /* \"#utility.yul\":5877:5943   */\n  swap1\n  pop\n    /* \"#utility.yul\":5807:5949   */\n  swap2\n  swap1\n  pop\n  jump\t// out\n    /* \"#utility.yul\":5955:6030   */\ntag_38:\n    /* \"#utility.yul\":5998:6001   */\n  0x00\n    /* \"#utility.yul\":6019:6024   */\n  dup2\n    /* \"#utility.yul\":6012:6024   */\n  swap1\n  pop\n    /* \"#utility.yul\":5955:6030   */\n  swap2\n  swap1\n  pop\n  jump\t// out\n    /* \"#utility.yul\":6036:6305   */\ntag_39:\n    /* \"#utility.yul\":6146:6185   */\n  tag_117\n    /* \"#utility.yul\":6177:6184   */\n  dup4\n    /* \"#utility.yul\":6146:6185   */\n  tag_37\n  jump\t// in\ntag_117:\n    /* \"#utility.yul\":6207:6298   */\n  tag_118\n    /* \"#utility.yul\":6256:6297   */\n  tag_119\n    /* \"#utility.yul\":6280:6296   */\n  dup3\n    /* \"#utility.yul\":6256:6297   */\n  tag_38\n  jump\t// in\ntag_119:\n    /* \"#utility.yul\":6248:6254   */\n  dup5\n    /* \"#utility.yul\":6241:6245   */\n  dup5\n    /* \"#utility.yul\":6235:6246   */\n  sload\n    /* \"#utility.yul\":6207:6298   */\n  tag_35\n  jump\t// in\ntag_118:\n    /* \"#utility.yul\":6201:6205   */\n  dup3\n    /* \"#utility.yul\":6194:6299   */\n  sstore\n    /* \"#utility.yul\":6112:6305   */\n  pop\n    /* \"#utility.yul\":6036:6305   */\n  pop\n  pop\n  pop\n  jump\t// out\n    /* \"#utility.yul\":6311:6384   */\ntag_40:\n    /* \"#utility.yul\":6356:6359   */\n  0x00\n    /* \"#utility.yul\":6311:6384   */\n  swap1\n  jump\t// out\n    /* \"#utility.yul\":6390:6579   */\ntag_41:\n    /* \"#utility.yul\":6467:6499   */\n  tag_122\n  tag_40\n  jump\t// in\ntag_122:\n    /* \"#utility.yul\":6508:6573   */\n  tag_123\n    /* \"#utility.yul\":6566:6572   */\n  dup2\n    /* \"#utility.yul\":6558:6564   */\n  dup5\n    /* \"#utility.yul\":6552:6556   */\n  dup5\n    /* \"#utility.yul\":6508:6573   */\n  tag_39\n  jump\t// in\ntag_123:\n    /* \"#utility.yul\":6443:6579   */\n  pop\n    /* \"#utility.yul\":6390:6579   */\n  pop\n  pop\n  jump\t// out\n    /* \"#utility.yul\":6585:6771   */\ntag_42:\n    /* \"#utility.yul\":6645:6765   */\ntag_125:\n    /* \"#utility.yul\":6662:6665   */\n  dup2\n    /* \"#utility.yul\":6655:6660   */\n  dup2\n    /* \"#utility.yul\":6652:6666   */\n  lt\n    /* \"#utility.yul\":6645:6765   */\n  iszero\n  tag_127\n  jumpi\n    /* \"#utility.yul\":6716:6755   */\n  tag_128\n    /* \"#utility.yul\":6753:6754   */\n  0x00\n    /* \"#utility.yul\":6746:6751   */\n  dup3\n    /* \"#utility.yul\":6716:6755   */\n  tag_41\n  jump\t// in\ntag_128:\n    /* \"#utility.yul\":6689:6690   */\n  0x01\n    /* \"#utility.yul\":6682:6687   */\n  dup2\n    /* \"#utility.yul\":6678:6691   */\n  add\n    /* \"#utility.yul\":6669:6691   */\n  swap1\n  pop\n    /* \"#utility.yul\":6645:6765   */\n  jump(tag_125)\ntag_127:\n    /* \"#utility.yul\":6585:6771   */\n  pop\n  pop\n  jump\t// out\n    /* \"#utility.yul\":6777:7320   */\ntag_43:\n    /* \"#utility.yul\":6878:6880   */\n  0x1f\n    /* \"#utility.yul\":6873:6876   */\n  dup3\n    /* \"#utility.yul\":6870:6881   */\n  gt\n    /* \"#utility.yul\":6867:7313   */\n  iszero\n  tag_130\n  jumpi\n    /* \"#utility.yul\":6912:6950   */\n  tag_131\n    /* \"#utility.yul\":6944:6949   */\n  dup2\n    /* \"#utility.yul\":6912:6950   */\n  tag_32\n  jump\t// in\ntag_131:\n    /* \"#utility.yul\":6996:7025   */\n  tag_132\n    /* \"#utility.yul\":7014:7024   */\n  dup5\n    /* \"#utility.yul\":6996:7025   */\n  tag_33\n  jump\t// in\ntag_132:\n    /* \"#utility.yul\":6986:6994   */\n  dup2\n    /* \"#utility.yul\":6982:7026   */\n  add\n    /* \"#utility.yul\":7179:7181   */\n  0x20\n    /* \"#utility.yul\":7167:7177   */\n  dup6\n    /* \"#utility.yul\":7164:7182   */\n  lt\n    /* \"#utility.yul\":7161:7210   */\n  iszero\n  tag_133\n  jumpi\n    /* \"#utility.yul\":7200:7208   */\n  dup2\n    /* \"#utility.yul\":7185:7208   */\n  swap1\n  pop\n    /* \"#utility.yul\":7161:7210   */\ntag_133:\n    /* \"#utility.yul\":7223:7303   */\n  tag_134\n    /* \"#utility.yul\":7279:7301   */\n  tag_135\n    /* \"#utility.yul\":7297:7300   */\n  dup6\n    /* \"#utility.yul\":7279:7301   */\n  tag_33\n  jump\t// in\ntag_135:\n    /* \"#utility.yul\":7269:7277   */\n  dup4\n    /* \"#utility.yul\":7265:7302   */\n  add\n    /* \"#utility.yul\":7252:7263   */\n  dup3\n    /* \"#utility.yul\":7223:7303   */\n  tag_42\n  jump\t// in\ntag_134:\n    /* \"#utility.yul\":6882:7313   */\n  pop\n  pop\n    /* \"#utility.yul\":6867:7313   */\ntag_130:\n    /* \"#utility.yul\":6777:7320   */\n  pop\n  pop\n  pop\n  jump\t// out\n    /* \"#utility.yul\":7326:7443   */\ntag_44:\n    /* \"#utility.yul\":7380:7388   */\n  0x00\n    /* \"#utility.yul\":7430:7435   */\n  dup3\n    /* \"#utility.yul\":7424:7428   */\n  dup3\n    /* \"#utility.yul\":7420:7436   */\n  shr\n    /* \"#utility.yul\":7399:7436   */\n  swap1\n  pop\n    /* \"#utility.yul\":7326:7443   */\n  swap3\n  swap2\n  pop\n  pop\n  jump\t// out\n    /* \"#utility.yul\":7449:7618   */\ntag_45:\n    /* \"#utility.yul\":7493:7499   */\n  0x00\n    /* \"#utility.yul\":7526:7577   */\n  tag_138\n    /* \"#utility.yul\":7574:7575   */\n  0x00\n    /* \"#utility.yul\":7570:7576   */\n  not\n    /* \"#utility.yul\":7562:7567   */\n  dup5\n    /* \"#utility.yul\":7559:7560   */\n  0x08\n    /* \"#utility.yul\":7555:7568   */\n  mul\n    /* \"#utility.yul\":7526:7577   */\n  tag_44\n  jump\t// in\ntag_138:\n    /* \"#utility.yul\":7522:7578   */\n  not\n    /* \"#utility.yul\":7607:7611   */\n  dup1\n    /* \"#utility.yul\":7601:7605   */\n  dup4\n    /* \"#utility.yul\":7597:7612   */\n  and\n    /* \"#utility.yul\":7587:7612   */\n  swap2\n  pop\n    /* \"#utility.yul\":7500:7618   */\n  pop\n    /* \"#utility.yul\":7449:7618   */\n  swap3\n  swap2\n  pop\n  pop\n  jump\t// out\n    /* \"#utility.yul\":7623:7918   */\ntag_46:\n    /* \"#utility.yul\":7699:7703   */\n  0x00\n    /* \"#utility.yul\":7845:7874   */\n  tag_140\n    /* \"#utility.yul\":7870:7873   */\n  dup4\n    /* \"#utility.yul\":7864:7868   */\n  dup4\n    /* \"#utility.yul\":7845:7874   */\n  tag_45\n  jump\t// in\ntag_140:\n    /* \"#utility.yul\":7837:7874   */\n  swap2\n  pop\n    /* \"#utility.yul\":7907:7910   */\n  dup3\n    /* \"#utility.yul\":7904:7905   */\n  0x02\n    /* \"#utility.yul\":7900:7911   */\n  mul\n    /* \"#utility.yul\":7894:7898   */\n  dup3\n    /* \"#utility.yul\":7891:7912   */\n  or\n    /* \"#utility.yul\":7883:7912   */\n  swap1\n  pop\n    /* \"#utility.yul\":7623:7918   */\n  swap3\n  swap2\n  pop\n  pop\n  jump\t// out\n    /* \"#utility.yul\":7923:9318   */\ntag_7:\n    /* \"#utility.yul\":8040:8077   */\n  tag_142\n    /* \"#utility.yul\":8073:8076   */\n  dup3\n    /* \"#utility.yul\":8040:8077   */\n  tag_29\n  jump\t// in\ntag_142:\n    /* \"#utility.yul\":8142:8160   */\n  0xffffffffffffffff\n    /* \"#utility.yul\":8134:8140   */\n  dup2\n    /* \"#utility.yul\":8131:8161   */\n  gt\n    /* \"#utility.yul\":8128:8184   */\n  iszero\n  tag_143\n  jumpi\n    /* \"#utility.yul\":8164:8182   */\n  tag_144\n  tag_19\n  jump\t// in\ntag_144:\n    /* \"#utility.yul\":8128:8184   */\ntag_143:\n    /* \"#utility.yul\":8208:8246   */\n  tag_145\n    /* \"#utility.yul\":8240:8244   */\n  dup3\n    /* \"#utility.yul\":8234:8245   */\n  sload\n    /* \"#utility.yul\":8208:8246   */\n  tag_31\n  jump\t// in\ntag_145:\n    /* \"#utility.yul\":8293:8360   */\n  tag_146\n    /* \"#utility.yul\":8353:8359   */\n  dup3\n    /* \"#utility.yul\":8345:8351   */\n  dup3\n    /* \"#utility.yul\":8339:8343   */\n  dup6\n    /* \"#utility.yul\":8293:8360   */\n  tag_43\n  jump\t// in\ntag_146:\n    /* \"#utility.yul\":8387:8388   */\n  0x00\n    /* \"#utility.yul\":8411:8415   */\n  0x20\n    /* \"#utility.yul\":8398:8415   */\n  swap1\n  pop\n    /* \"#utility.yul\":8443:8445   */\n  0x1f\n    /* \"#utility.yul\":8435:8441   */\n  dup4\n    /* \"#utility.yul\":8432:8446   */\n  gt\n    /* \"#utility.yul\":8460:8461   */\n  0x01\n    /* \"#utility.yul\":8455:9073   */\n  dup2\n  eq\n  tag_148\n  jumpi\n    /* \"#utility.yul\":9117:9118   */\n  0x00\n    /* \"#utility.yul\":9134:9140   */\n  dup5\n    /* \"#utility.yul\":9131:9208   */\n  iszero\n  tag_149\n  jumpi\n    /* \"#utility.yul\":9183:9192   */\n  dup3\n    /* \"#utility.yul\":9178:9181   */\n  dup8\n    /* \"#utility.yul\":9174:9193   */\n  add\n    /* \"#utility.yul\":9168:9194   */\n  mload\n    /* \"#utility.yul\":9159:9194   */\n  swap1\n  pop\n    /* \"#utility.yul\":9131:9208   */\ntag_149:\n    /* \"#utility.yul\":9234:9301   */\n  tag_150\n    /* \"#utility.yul\":9294:9300   */\n  dup6\n    /* \"#utility.yul\":9287:9292   */\n  dup3\n    /* \"#utility.yul\":9234:9301   */\n  tag_46\n  jump\t// in\ntag_150:\n    /* \"#utility.yul\":9228:9232   */\n  dup7\n    /* \"#utility.yul\":9221:9302   */\n  sstore\n    /* \"#utility.yul\":9090:9312   */\n  pop\n    /* \"#utility.yul\":8425:9312   */\n  jump(tag_147)\n    /* \"#utility.yul\":8455:9073   */\ntag_148:\n    /* \"#utility.yul\":8507:8511   */\n  0x1f\n    /* \"#utility.yul\":8503:8512   */\n  not\n    /* \"#utility.yul\":8495:8501   */\n  dup5\n    /* \"#utility.yul\":8491:8513   */\n  and\n    /* \"#utility.yul\":8541:8578   */\n  tag_151\n    /* \"#utility.yul\":8573:8577   */\n  dup7\n    /* \"#utility.yul\":8541:8578   */\n  tag_32\n  jump\t// in\ntag_151:\n    /* \"#utility.yul\":8600:8601   */\n  0x00\n    /* \"#utility.yul\":8614:8822   */\ntag_152:\n    /* \"#utility.yul\":8628:8635   */\n  dup3\n    /* \"#utility.yul\":8625:8626   */\n  dup2\n    /* \"#utility.yul\":8622:8636   */\n  lt\n    /* \"#utility.yul\":8614:8822   */\n  iszero\n  tag_154\n  jumpi\n    /* \"#utility.yul\":8707:8716   */\n  dup5\n    /* \"#utility.yul\":8702:8705   */\n  dup10\n    /* \"#utility.yul\":8698:8717   */\n  add\n    /* \"#utility.yul\":8692:8718   */\n  mload\n    /* \"#utility.yul\":8684:8690   */\n  dup3\n    /* \"#utility.yul\":8677:8719   */\n  sstore\n    /* \"#utility.yul\":8758:8759   */\n  0x01\n    /* \"#utility.yul\":8750:8756   */\n  dup3\n    /* \"#utility.yul\":8746:8760   */\n  add\n    /* \"#utility.yul\":8736:8760   */\n  swap2\n  pop\n    /* \"#utility.yul\":8805:8807   */\n  0x20\n    /* \"#utility.yul\":8794:8803   */\n  dup6\n    /* \"#utility.yul\":8790:8808   */\n  add\n    /* \"#utility.yul\":8777:8808   */\n  swap5\n  pop\n    /* \"#utility.yul\":8651:8655   */\n  0x20\n    /* \"#utility.yul\":8648:8649   */\n  dup2\n    /* \"#utility.yul\":8644:8656   */\n  add\n    /* \"#utility.yul\":8639:8656   */\n  swap1\n  pop\n    /* \"#utility.yul\":8614:8822   */\n  jump(tag_152)\ntag_154:\n    /* \"#utility.yul\":8850:8856   */\n  dup7\n    /* \"#utility.yul\":8841:8848   */\n  dup4\n    /* \"#utility.yul\":8838:8857   */\n  lt\n    /* \"#utility.yul\":8835:9014   */\n  iszero\n  tag_155\n  jumpi\n    /* \"#utility.yul\":8908:8917   */\n  dup5\n    /* \"#utility.yul\":8903:8906   */\n  dup10\n    /* \"#utility.yul\":8899:8918   */\n  add\n    /* \"#utility.yul\":8893:8919   */\n  mload\n    /* \"#utility.yul\":8951:8999   */\n  tag_156\n    /* \"#utility.yul\":8993:8997   */\n  0x1f\n    /* \"#utility.yul\":8985:8991   */\n  dup10\n    /* \"#utility.yul\":8981:8998   */\n  and\n    /* \"#utility.yul\":8970:8979   */\n  dup3\n    /* \"#utility.yul\":8951:8999   */\n  tag_45\n  jump\t// in\ntag_156:\n    /* \"#utility.yul\":8943:8949   */\n  dup4\n    /* \"#utility.yul\":8936:9000   */\n  sstore\n    /* \"#utility.yul\":8858:9014   */\n  pop\n    /* \"#utility.yul\":8835:9014   */\ntag_155:\n    /* \"#utility.yul\":9060:9061   */\n  0x01\n    /* \"#utility.yul\":9056:9057   */\n  0x02\n    /* \"#utility.yul\":9048:9054   */\n  dup9\n    /* \"#utility.yul\":9044:9058   */\n  mul\n    /* \"#utility.yul\":9040:9062   */\n  add\n    /* \"#utility.yul\":9034:9038   */\n  dup9\n    /* \"#utility.yul\":9027:9063   */\n  sstore\n    /* \"#utility.yul\":8462:9073   */\n  pop\n  pop\n  pop\n    /* \"#utility.yul\":8425:9312   */\ntag_147:\n  pop\n    /* \"#utility.yul\":8015:9318   */\n  pop\n  pop\n  pop\n    /* \"#utility.yul\":7923:9318   */\n  pop\n  pop\n  jump\t// out\n    /* \"Dcoffer/ERC721A/test.sol\":1024:22020  contract ERC721A is Context, ERC165, IERC721A, IDCF {... */\ntag_11:\n  dataSize(sub_0)\n  dup1\n  dataOffset(sub_0)\n  0x00\n  codecopy\n  0x00\n  return\nstop\n\nsub_0: assembly {\n        /* \"Dcoffer/ERC721A/test.sol\":1024:22020  contract ERC721A is Context, ERC165, IERC721A, IDCF {... */\n      mstore(0x40, 0x80)\n      callvalue\n      dup1\n      iszero\n      tag_1\n      jumpi\n      0x00\n      dup1\n      revert\n    tag_1:\n      pop\n      jumpi(tag_2, lt(calldatasize, 0x04))\n      shr(0xe0, calldataload(0x00))\n      dup1\n      0x6352211e\n      gt\n      tag_21\n      jumpi\n      dup1\n      0xa22cb465\n      gt\n      tag_22\n      jumpi\n      dup1\n      0xa22cb465\n      eq\n      tag_16\n      jumpi\n      dup1\n      0xb88d4fde\n      eq\n      tag_17\n      jumpi\n      dup1\n      0xc87b56dd\n      eq\n      tag_18\n      jumpi\n      dup1\n      0xd5abeb01\n      eq\n      tag_19\n      jumpi\n      dup1\n      0xe985e9c5\n      eq\n      tag_20\n      jumpi\n      jump(tag_2)\n    tag_22:\n      dup1\n      0x6352211e\n      eq\n      tag_12\n      jumpi\n      dup1\n      0x70a08231\n      eq\n      tag_13\n      jumpi\n      dup1\n      0x95d89b41\n      eq\n      tag_14\n      jumpi\n      dup1\n      0x9f773399\n      eq\n      tag_15\n      jumpi\n      jump(tag_2)\n    tag_21:\n      dup1\n      0x18160ddd\n      gt\n      tag_23\n      jumpi\n      dup1\n      0x18160ddd\n      eq\n      tag_7\n      jumpi\n      dup1\n      0x23b872dd\n      eq\n      tag_8\n      jumpi\n      dup1\n      0x325b272a\n      eq\n      tag_9\n      jumpi\n      dup1\n      0x38020dcc\n      eq\n      tag_10\n      jumpi\n      dup1\n      0x42842e0e\n      eq\n      tag_11\n      jumpi\n      jump(tag_2)\n    tag_23:\n      dup1\n      0x01ffc9a7\n      eq\n      tag_3\n      jumpi\n      dup1\n      0x06fdde03\n      eq\n      tag_4\n      jumpi\n      dup1\n      0x081812fc\n      eq\n      tag_5\n      jumpi\n      dup1\n      0x095ea7b3\n      eq\n      tag_6\n      jumpi\n    tag_2:\n      0x00\n      dup1\n      revert\n        /* \"Dcoffer/ERC721A/test.sol\":4439:4744  function supportsInterface(bytes4 interfaceId) public view virtual override(ERC165, IERC165) returns (bool) {... */\n    tag_3:\n      tag_24\n      0x04\n      dup1\n      calldatasize\n      sub\n      dup2\n      add\n      swap1\n      tag_25\n      swap2\n      swap1\n      tag_26\n      jump\t// in\n    tag_25:\n      tag_27\n      jump\t// in\n    tag_24:\n      mload(0x40)\n      tag_28\n      swap2\n      swap1\n      tag_29\n      jump\t// in\n    tag_28:\n      mload(0x40)\n      dup1\n      swap2\n      sub\n      swap1\n      return\n        /* \"Dcoffer/ERC721A/test.sol\":7555:7655  function name() public view virtual override returns (string memory) {... */\n    tag_4:\n      tag_30\n      tag_31\n      jump\t// in\n    tag_30:\n      mload(0x40)\n      tag_32\n      swap2\n      swap1\n      tag_33\n      jump\t// in\n    tag_32:\n      mload(0x40)\n      dup1\n      swap2\n      sub\n      swap1\n      return\n        /* \"Dcoffer/ERC721A/test.sol\":9150:9354  function getApproved(uint256 tokenId) public view override returns (address) {... */\n    tag_5:\n      tag_34\n      0x04\n      dup1\n      calldatasize\n      sub\n      dup2\n      add\n      swap1\n      tag_35\n      swap2\n      swap1\n      tag_36\n      jump\t// in\n    tag_35:\n      tag_37\n      jump\t// in\n    tag_34:\n      mload(0x40)\n      tag_38\n      swap2\n      swap1\n      tag_39\n      jump\t// in\n    tag_38:\n      mload(0x40)\n      dup1\n      swap2\n      sub\n      swap1\n      return\n        /* \"Dcoffer/ERC721A/test.sol\":8712:9084  function approve(address to, uint256 tokenId) public override {... */\n    tag_6:\n      tag_40\n      0x04\n      dup1\n      calldatasize\n      sub\n      dup2\n      add\n      swap1\n      tag_41\n      swap2\n      swap1\n      tag_42\n      jump\t// in\n    tag_41:\n      tag_43\n      jump\t// in\n    tag_40:\n      stop\n        /* \"Dcoffer/ERC721A/test.sol\":3497:3809  function totalSupply() public view override returns (uint256) {... */\n    tag_7:\n      tag_44\n      tag_45\n      jump\t// in\n    tag_44:\n      mload(0x40)\n      tag_46\n      swap2\n      swap1\n      tag_47\n      jump\t// in\n    tag_46:\n      mload(0x40)\n      dup1\n      swap2\n      sub\n      swap1\n      return\n        /* \"Dcoffer/ERC721A/test.sol\":10015:10185  function transferFrom(... */\n    tag_8:\n      tag_48\n      0x04\n      dup1\n      calldatasize\n      sub\n      dup2\n      add\n      swap1\n      tag_49\n      swap2\n      swap1\n      tag_50\n      jump\t// in\n    tag_49:\n      tag_51\n      jump\t// in\n    tag_48:\n      stop\n        /* \"Dcoffer/ERC721A/test.sol\":2644:2940  function BlockScore(address user)public view returns(uint256){... */\n    tag_9:\n      tag_52\n      0x04\n      dup1\n      calldatasize\n      sub\n      dup2\n      add\n      swap1\n      tag_53\n      swap2\n      swap1\n      tag_54\n      jump\t// in\n    tag_53:\n      tag_55\n      jump\t// in\n    tag_52:\n      mload(0x40)\n      tag_56\n      swap2\n      swap1\n      tag_47\n      jump\t// in\n    tag_56:\n      mload(0x40)\n      dup1\n      swap2\n      sub\n      swap1\n      return\n        /* \"Dcoffer/ERC721A/test.sol\":1208:1235  uint256 public _DCFperBlock */\n    tag_10:\n      tag_57\n      tag_58\n      jump\t// in\n    tag_57:\n      mload(0x40)\n      tag_59\n      swap2\n      swap1\n      tag_47\n      jump\t// in\n    tag_59:\n      mload(0x40)\n      dup1\n      swap2\n      sub\n      swap1\n      return\n        /* \"Dcoffer/ERC721A/test.sol\":10256:10441  function safeTransferFrom(... */\n    tag_11:\n      tag_60\n      0x04\n      dup1\n      calldatasize\n      sub\n      dup2\n      add\n      swap1\n      tag_61\n      swap2\n      swap1\n      tag_50\n      jump\t// in\n    tag_61:\n      tag_62\n      jump\t// in\n    tag_60:\n      stop\n        /* \"Dcoffer/ERC721A/test.sol\":7363:7488  function ownerOf(uint256 tokenId) public view override returns (address) {... */\n    tag_12:\n      tag_63\n      0x04\n      dup1\n      calldatasize\n      sub\n      dup2\n      add\n      swap1\n      tag_64\n      swap2\n      swap1\n      tag_36\n      jump\t// in\n    tag_64:\n      tag_65\n      jump\t// in\n    tag_63:\n      mload(0x40)\n      tag_66\n      swap2\n      swap1\n      tag_39\n      jump\t// in\n    tag_66:\n      mload(0x40)\n      dup1\n      swap2\n      sub\n      swap1\n      return\n        /* \"Dcoffer/ERC721A/test.sol\":4808:5014  function balanceOf(address owner) public view override returns (uint256) {... */\n    tag_13:\n      tag_67\n      0x04\n      dup1\n      calldatasize\n      sub\n      dup2\n      add\n      swap1\n      tag_68\n      swap2\n      swap1\n      tag_54\n      jump\t// in\n    tag_68:\n      tag_69\n      jump\t// in\n    tag_67:\n      mload(0x40)\n      tag_70\n      swap2\n      swap1\n      tag_47\n      jump\t// in\n    tag_70:\n      mload(0x40)\n      dup1\n      swap2\n      sub\n      swap1\n      return\n        /* \"Dcoffer/ERC721A/test.sol\":7724:7828  function symbol() public view virtual override returns (string memory) {... */\n    tag_14:\n      tag_71\n      tag_72\n      jump\t// in\n    tag_71:\n      mload(0x40)\n      tag_73\n      swap2\n      swap1\n      tag_33\n      jump\t// in\n    tag_73:\n      mload(0x40)\n      dup1\n      swap2\n      sub\n      swap1\n      return\n        /* \"Dcoffer/ERC721A/test.sol\":1179:1199  uint256 public _salt */\n    tag_15:\n      tag_74\n      tag_75\n      jump\t// in\n    tag_74:\n      mload(0x40)\n      tag_76\n      swap2\n      swap1\n      tag_47\n      jump\t// in\n    tag_76:\n      mload(0x40)\n      dup1\n      swap2\n      sub\n      swap1\n      return\n        /* \"Dcoffer/ERC721A/test.sol\":9426:9713  function setApprovalForAll(address operator, bool approved) public virtual override {... */\n    tag_16:\n      tag_77\n      0x04\n      dup1\n      calldatasize\n      sub\n      dup2\n      add\n      swap1\n      tag_78\n      swap2\n      swap1\n      tag_79\n      jump\t// in\n    tag_78:\n      tag_80\n      jump\t// in\n    tag_77:\n      stop\n        /* \"Dcoffer/ERC721A/test.sol\":10512:10882  function safeTransferFrom(... */\n    tag_17:\n      tag_81\n      0x04\n      dup1\n      calldatasize\n      sub\n      dup2\n      add\n      swap1\n      tag_82\n      swap2\n      swap1\n      tag_83\n      jump\t// in\n    tag_82:\n      tag_84\n      jump\t// in\n    tag_81:\n      stop\n        /* \"Dcoffer/ERC721A/test.sol\":7899:8217  function tokenURI(uint256 tokenId) public view virtual override returns (string memory) {... */\n    tag_18:\n      tag_85\n      0x04\n      dup1\n      calldatasize\n      sub\n      dup2\n      add\n      swap1\n      tag_86\n      swap2\n      swap1\n      tag_36\n      jump\t// in\n    tag_86:\n      tag_87\n      jump\t// in\n    tag_85:\n      mload(0x40)\n      tag_88\n      swap2\n      swap1\n      tag_33\n      jump\t// in\n    tag_88:\n      mload(0x40)\n      dup1\n      swap2\n      sub\n      swap1\n      return\n        /* \"Dcoffer/ERC721A/test.sol\":3819:3991  function maxSupply() public view override returns (uint256) {       ... */\n    tag_19:\n      tag_89\n      tag_90\n      jump\t// in\n    tag_89:\n      mload(0x40)\n      tag_91\n      swap2\n      swap1\n      tag_47\n      jump\t// in\n    tag_91:\n      mload(0x40)\n      dup1\n      swap2\n      sub\n      swap1\n      return\n        /* \"Dcoffer/ERC721A/test.sol\":9784:9948  function isApprovedForAll(address owner, address operator) public view virtual override returns (bool) {... */\n    tag_20:\n      tag_92\n      0x04\n      dup1\n      calldatasize\n      sub\n      dup2\n      add\n      swap1\n      tag_93\n      swap2\n      swap1\n      tag_94\n      jump\t// in\n    tag_93:\n      tag_95\n      jump\t// in\n    tag_92:\n      mload(0x40)\n      tag_96\n      swap2\n      swap1\n      tag_29\n      jump\t// in\n    tag_96:\n      mload(0x40)\n      dup1\n      swap2\n      sub\n      swap1\n      return\n        /* \"Dcoffer/ERC721A/test.sol\":4439:4744  function supportsInterface(bytes4 interfaceId) public view virtual override(ERC165, IERC165) returns (bool) {... */\n    tag_27:\n        /* \"Dcoffer/ERC721A/test.sol\":4541:4545  bool */\n      0x00\n        /* \"Dcoffer/ERC721A/test.sol\":4593:4618  type(IERC721).interfaceId */\n      0x80ac58cd00000000000000000000000000000000000000000000000000000000\n        /* \"Dcoffer/ERC721A/test.sol\":4578:4618  interfaceId == type(IERC721).interfaceId */\n      not(0xffffffffffffffffffffffffffffffffffffffffffffffffffffffff)\n      and\n        /* \"Dcoffer/ERC721A/test.sol\":4578:4589  interfaceId */\n      dup3\n        /* \"Dcoffer/ERC721A/test.sol\":4578:4618  interfaceId == type(IERC721).interfaceId */\n      not(0xffffffffffffffffffffffffffffffffffffffffffffffffffffffff)\n      and\n      eq\n        /* \"Dcoffer/ERC721A/test.sol\":4578:4683  interfaceId == type(IERC721).interfaceId ||... */\n      dup1\n      tag_98\n      jumpi\n      pop\n        /* \"Dcoffer/ERC721A/test.sol\":4650:4683  type(IERC721Metadata).interfaceId */\n      0x5b5e139f00000000000000000000000000000000000000000000000000000000\n        /* \"Dcoffer/ERC721A/test.sol\":4635:4683  interfaceId == type(IERC721Metadata).interfaceId */\n      not(0xffffffffffffffffffffffffffffffffffffffffffffffffffffffff)\n      and\n        /* \"Dcoffer/ERC721A/test.sol\":4635:4646  interfaceId */\n      dup3\n        /* \"Dcoffer/ERC721A/test.sol\":4635:4683  interfaceId == type(IERC721Metadata).interfaceId */\n      not(0xffffffffffffffffffffffffffffffffffffffffffffffffffffffff)\n      and\n      eq\n        /* \"Dcoffer/ERC721A/test.sol\":4578:4683  interfaceId == type(IERC721).interfaceId ||... */\n    tag_98:\n        /* \"Dcoffer/ERC721A/test.sol\":4578:4736  interfaceId == type(IERC721).interfaceId ||... */\n      dup1\n      tag_99\n      jumpi\n      pop\n        /* \"Dcoffer/ERC721A/test.sol\":4700:4736  super.supportsInterface(interfaceId) */\n      tag_100\n        /* \"Dcoffer/ERC721A/test.sol\":4724:4735  interfaceId */\n      dup3\n        /* \"Dcoffer/ERC721A/test.sol\":4700:4723  super.supportsInterface */\n      tag_101\n        /* \"Dcoffer/ERC721A/test.sol\":4700:4736  super.supportsInterface(interfaceId) */\n      jump\t// in\n    tag_100:\n        /* \"Dcoffer/ERC721A/test.sol\":4578:4736  interfaceId == type(IERC721).interfaceId ||... */\n    tag_99:\n        /* \"Dcoffer/ERC721A/test.sol\":4558:4736  return... */\n      swap1\n      pop\n        /* \"Dcoffer/ERC721A/test.sol\":4439:4744  function supportsInterface(bytes4 interfaceId) public view virtual override(ERC165, IERC165) returns (bool) {... */\n      swap2\n      swap1\n      pop\n      jump\t// out\n        /* \"Dcoffer/ERC721A/test.sol\":7555:7655  function name() public view virtual override returns (string memory) {... */\n    tag_31:\n        /* \"Dcoffer/ERC721A/test.sol\":7609:7622  string memory */\n      0x60\n        /* \"Dcoffer/ERC721A/test.sol\":7642:7647  _name */\n      0x05\n        /* \"Dcoffer/ERC721A/test.sol\":7635:7647  return _name */\n      dup1\n      sload\n      tag_103\n      swap1\n      tag_104\n      jump\t// in\n    tag_103:\n      dup1\n      0x1f\n      add\n      0x20\n      dup1\n      swap2\n      div\n      mul\n      0x20\n      add\n      mload(0x40)\n      swap1\n      dup2\n      add\n      0x40\n      mstore\n      dup1\n      swap3\n      swap2\n      swap1\n      dup2\n      dup2\n      mstore\n      0x20\n      add\n      dup3\n      dup1\n      sload\n      tag_105\n      swap1\n      tag_104\n      jump\t// in\n    tag_105:\n      dup1\n      iszero\n      tag_106\n      jumpi\n      dup1\n      0x1f\n      lt\n      tag_107\n      jumpi\n      0x0100\n      dup1\n      dup4\n      sload\n      div\n      mul\n      dup4\n      mstore\n      swap2\n      0x20\n      add\n      swap2\n      jump(tag_106)\n    tag_107:\n      dup3\n      add\n      swap2\n      swap1\n      0x00\n      mstore\n      keccak256(0x00, 0x20)\n      swap1\n    tag_108:\n      dup2\n      sload\n      dup2\n      mstore\n      swap1\n      0x01\n      add\n      swap1\n      0x20\n      add\n      dup1\n      dup4\n      gt\n      tag_108\n      jumpi\n      dup3\n      swap1\n      sub\n      0x1f\n      and\n      dup3\n      add\n      swap2\n    tag_106:\n      pop\n      pop\n      pop\n      pop\n      pop\n      swap1\n      pop\n        /* \"Dcoffer/ERC721A/test.sol\":7555:7655  function name() public view virtual override returns (string memory) {... */\n      swap1\n      jump\t// out\n        /* \"Dcoffer/ERC721A/test.sol\":9150:9354  function getApproved(uint256 tokenId) public view override returns (address) {... */\n    tag_37:\n        /* \"Dcoffer/ERC721A/test.sol\":9218:9225  address */\n      0x00\n        /* \"Dcoffer/ERC721A/test.sol\":9243:9259  _exists(tokenId) */\n      tag_110\n        /* \"Dcoffer/ERC721A/test.sol\":9251:9258  tokenId */\n      dup3\n        /* \"Dcoffer/ERC721A/test.sol\":9243:9250  _exists */\n      tag_111\n        /* \"Dcoffer/ERC721A/test.sol\":9243:9259  _exists(tokenId) */\n      jump\t// in\n    tag_110:\n        /* \"Dcoffer/ERC721A/test.sol\":9238:9302  if (!_exists(tokenId)) revert ApprovalQueryForNonexistentToken() */\n      tag_112\n      jumpi\n        /* \"Dcoffer/ERC721A/test.sol\":9268:9302  ApprovalQueryForNonexistentToken() */\n      mload(0x40)\n      0xcf4700e400000000000000000000000000000000000000000000000000000000\n      dup2\n      mstore\n      0x04\n      add\n      mload(0x40)\n      dup1\n      swap2\n      sub\n      swap1\n      revert\n        /* \"Dcoffer/ERC721A/test.sol\":9238:9302  if (!_exists(tokenId)) revert ApprovalQueryForNonexistentToken() */\n    tag_112:\n        /* \"Dcoffer/ERC721A/test.sol\":9322:9337  _tokenApprovals */\n      0x09\n        /* \"Dcoffer/ERC721A/test.sol\":9322:9346  _tokenApprovals[tokenId] */\n      0x00\n        /* \"Dcoffer/ERC721A/test.sol\":9338:9345  tokenId */\n      dup4\n        /* \"Dcoffer/ERC721A/test.sol\":9322:9346  _tokenApprovals[tokenId] */\n      dup2\n      mstore\n      0x20\n      add\n      swap1\n      dup2\n      mstore\n      0x20\n      add\n      0x00\n      keccak256\n      0x00\n      swap1\n      sload\n      swap1\n      0x0100\n      exp\n      swap1\n      div\n      0xffffffffffffffffffffffffffffffffffffffff\n      and\n        /* \"Dcoffer/ERC721A/test.sol\":9315:9346  return _tokenApprovals[tokenId] */\n      swap1\n      pop\n        /* \"Dcoffer/ERC721A/test.sol\":9150:9354  function getApproved(uint256 tokenId) public view override returns (address) {... */\n      swap2\n      swap1\n      pop\n      jump\t// out\n        /* \"Dcoffer/ERC721A/test.sol\":8712:9084  function approve(address to, uint256 tokenId) public override {... */\n    tag_43:\n        /* \"Dcoffer/ERC721A/test.sol\":8785:8798  address owner */\n      0x00\n        /* \"Dcoffer/ERC721A/test.sol\":8801:8825  ERC721A.ownerOf(tokenId) */\n      tag_114\n        /* \"Dcoffer/ERC721A/test.sol\":8817:8824  tokenId */\n      dup3\n        /* \"Dcoffer/ERC721A/test.sol\":8801:8816  ERC721A.ownerOf */\n      tag_65\n        /* \"Dcoffer/ERC721A/test.sol\":8801:8825  ERC721A.ownerOf(tokenId) */\n      jump\t// in\n    tag_114:\n        /* \"Dcoffer/ERC721A/test.sol\":8785:8825  address owner = ERC721A.ownerOf(tokenId) */\n      swap1\n      pop\n        /* \"Dcoffer/ERC721A/test.sol\":8846:8851  owner */\n      dup1\n        /* \"Dcoffer/ERC721A/test.sol\":8840:8851  to == owner */\n      0xffffffffffffffffffffffffffffffffffffffff\n      and\n        /* \"Dcoffer/ERC721A/test.sol\":8840:8842  to */\n      dup4\n        /* \"Dcoffer/ERC721A/test.sol\":8840:8851  to == owner */\n      0xffffffffffffffffffffffffffffffffffffffff\n      and\n      sub\n        /* \"Dcoffer/ERC721A/test.sol\":8836:8884  if (to == owner) revert ApprovalToCurrentOwner() */\n      tag_115\n      jumpi\n        /* \"Dcoffer/ERC721A/test.sol\":8860:8884  ApprovalToCurrentOwner() */\n      mload(0x40)\n      0x943f7b8c00000000000000000000000000000000000000000000000000000000\n      dup2\n      mstore\n      0x04\n      add\n      mload(0x40)\n      dup1\n      swap2\n      sub\n      swap1\n      revert\n        /* \"Dcoffer/ERC721A/test.sol\":8836:8884  if (to == owner) revert ApprovalToCurrentOwner() */\n    tag_115:\n        /* \"Dcoffer/ERC721A/test.sol\":8917:8922  owner */\n      dup1\n        /* \"Dcoffer/ERC721A/test.sol\":8901:8922  _msgSender() != owner */\n      0xffffffffffffffffffffffffffffffffffffffff\n      and\n        /* \"Dcoffer/ERC721A/test.sol\":8901:8913  _msgSender() */\n      tag_116\n        /* \"Dcoffer/ERC721A/test.sol\":8901:8911  _msgSender */\n      tag_117\n        /* \"Dcoffer/ERC721A/test.sol\":8901:8913  _msgSender() */\n      jump\t// in\n    tag_116:\n        /* \"Dcoffer/ERC721A/test.sol\":8901:8922  _msgSender() != owner */\n      0xffffffffffffffffffffffffffffffffffffffff\n      and\n      eq\n        /* \"Dcoffer/ERC721A/test.sol\":8897:9036  if (_msgSender() != owner) if(!isApprovedForAll(owner, _msgSender())) {... */\n      tag_118\n      jumpi\n        /* \"Dcoffer/ERC721A/test.sol\":8928:8965  isApprovedForAll(owner, _msgSender()) */\n      tag_119\n        /* \"Dcoffer/ERC721A/test.sol\":8945:8950  owner */\n      dup2\n        /* \"Dcoffer/ERC721A/test.sol\":8952:8964  _msgSender() */\n      tag_120\n        /* \"Dcoffer/ERC721A/test.sol\":8952:8962  _msgSender */\n      tag_117\n        /* \"Dcoffer/ERC721A/test.sol\":8952:8964  _msgSender() */\n      jump\t// in\n    tag_120:\n        /* \"Dcoffer/ERC721A/test.sol\":8928:8944  isApprovedForAll */\n      tag_95\n        /* \"Dcoffer/ERC721A/test.sol\":8928:8965  isApprovedForAll(owner, _msgSender()) */\n      jump\t// in\n    tag_119:\n        /* \"Dcoffer/ERC721A/test.sol\":8924:9036  if(!isApprovedForAll(owner, _msgSender())) {... */\n      tag_121\n      jumpi\n        /* \"Dcoffer/ERC721A/test.sol\":8989:9024  ApprovalCallerNotOwnerNorApproved() */\n      mload(0x40)\n      0xcfb3b94200000000000000000000000000000000000000000000000000000000\n      dup2\n      mstore\n      0x04\n      add\n      mload(0x40)\n      dup1\n      swap2\n      sub\n      swap1\n      revert\n        /* \"Dcoffer/ERC721A/test.sol\":8924:9036  if(!isApprovedForAll(owner, _msgSender())) {... */\n    tag_121:\n        /* \"Dcoffer/ERC721A/test.sol\":8897:9036  if (_msgSender() != owner) if(!isApprovedForAll(owner, _msgSender())) {... */\n    tag_118:\n        /* \"Dcoffer/ERC721A/test.sol\":9048:9076  _approve(to, tokenId, owner) */\n      tag_122\n        /* \"Dcoffer/ERC721A/test.sol\":9057:9059  to */\n      dup4\n        /* \"Dcoffer/ERC721A/test.sol\":9061:9068  tokenId */\n      dup4\n        /* \"Dcoffer/ERC721A/test.sol\":9070:9075  owner */\n      dup4\n        /* \"Dcoffer/ERC721A/test.sol\":9048:9056  _approve */\n      tag_123\n        /* \"Dcoffer/ERC721A/test.sol\":9048:9076  _approve(to, tokenId, owner) */\n      jump\t// in\n    tag_122:\n        /* \"Dcoffer/ERC721A/test.sol\":8774:9084  {... */\n      pop\n        /* \"Dcoffer/ERC721A/test.sol\":8712:9084  function approve(address to, uint256 tokenId) public override {... */\n      pop\n      pop\n      jump\t// out\n        /* \"Dcoffer/ERC721A/test.sol\":3497:3809  function totalSupply() public view override returns (uint256) {... */\n    tag_45:\n        /* \"Dcoffer/ERC721A/test.sol\":3550:3557  uint256 */\n      0x00\n        /* \"Dcoffer/ERC721A/test.sol\":3775:3790  _startTokenId() */\n      tag_125\n        /* \"Dcoffer/ERC721A/test.sol\":3775:3788  _startTokenId */\n      tag_126\n        /* \"Dcoffer/ERC721A/test.sol\":3775:3790  _startTokenId() */\n      jump\t// in\n    tag_125:\n        /* \"Dcoffer/ERC721A/test.sol\":3760:3772  _burnCounter */\n      sload(0x04)\n        /* \"Dcoffer/ERC721A/test.sol\":3744:3757  _currentIndex */\n      sload(0x02)\n        /* \"Dcoffer/ERC721A/test.sol\":3744:3772  _currentIndex - _burnCounter */\n      sub\n        /* \"Dcoffer/ERC721A/test.sol\":3744:3790  _currentIndex - _burnCounter - _startTokenId() */\n      sub\n        /* \"Dcoffer/ERC721A/test.sol\":3737:3790  return _currentIndex - _burnCounter - _startTokenId() */\n      swap1\n      pop\n        /* \"Dcoffer/ERC721A/test.sol\":3497:3809  function totalSupply() public view override returns (uint256) {... */\n      swap1\n      jump\t// out\n        /* \"Dcoffer/ERC721A/test.sol\":10015:10185  function transferFrom(... */\n    tag_51:\n        /* \"Dcoffer/ERC721A/test.sol\":10149:10177  _transfer(from, to, tokenId) */\n      tag_128\n        /* \"Dcoffer/ERC721A/test.sol\":10159:10163  from */\n      dup4\n        /* \"Dcoffer/ERC721A/test.sol\":10165:10167  to */\n      dup4\n        /* \"Dcoffer/ERC721A/test.sol\":10169:10176  tokenId */\n      dup4\n        /* \"Dcoffer/ERC721A/test.sol\":10149:10158  _transfer */\n      tag_129\n        /* \"Dcoffer/ERC721A/test.sol\":10149:10177  _transfer(from, to, tokenId) */\n      jump\t// in\n    tag_128:\n        /* \"Dcoffer/ERC721A/test.sol\":10015:10185  function transferFrom(... */\n      pop\n      pop\n      pop\n      jump\t// out\n        /* \"Dcoffer/ERC721A/test.sol\":2644:2940  function BlockScore(address user)public view returns(uint256){... */\n    tag_55:\n        /* \"Dcoffer/ERC721A/test.sol\":2697:2704  uint256 */\n      0x00\n        /* \"Dcoffer/ERC721A/test.sol\":2716:2734  uint256 difference */\n      dup1\n        /* \"Dcoffer/ERC721A/test.sol\":2737:2775  block.number.sub(_BlockScore[user][1]) */\n      tag_131\n        /* \"Dcoffer/ERC721A/test.sol\":2754:2765  _BlockScore */\n      0x0b\n        /* \"Dcoffer/ERC721A/test.sol\":2754:2771  _BlockScore[user] */\n      0x00\n        /* \"Dcoffer/ERC721A/test.sol\":2766:2770  user */\n      dup6\n        /* \"Dcoffer/ERC721A/test.sol\":2754:2771  _BlockScore[user] */\n      0xffffffffffffffffffffffffffffffffffffffff\n      and\n      0xffffffffffffffffffffffffffffffffffffffff\n      and\n      dup2\n      mstore\n      0x20\n      add\n      swap1\n      dup2\n      mstore\n      0x20\n      add\n      0x00\n      keccak256\n        /* \"Dcoffer/ERC721A/test.sol\":2754:2774  _BlockScore[user][1] */\n      0x00\n        /* \"Dcoffer/ERC721A/test.sol\":2772:2773  1 */\n      0x01\n        /* \"Dcoffer/ERC721A/test.sol\":2754:2774  _BlockScore[user][1] */\n      dup2\n      mstore\n      0x20\n      add\n      swap1\n      dup2\n      mstore\n      0x20\n      add\n      0x00\n      keccak256\n      sload\n        /* \"Dcoffer/ERC721A/test.sol\":2737:2749  block.number */\n      number\n        /* \"Dcoffer/ERC721A/test.sol\":2737:2753  block.number.sub */\n      tag_132\n      swap1\n        /* \"Dcoffer/ERC721A/test.sol\":2737:2775  block.number.sub(_BlockScore[user][1]) */\n      swap2\n      swap1\n      0xffffffff\n      and\n      jump\t// in\n    tag_131:\n        /* \"Dcoffer/ERC721A/test.sol\":2716:2775  uint256 difference = block.number.sub(_BlockScore[user][1]) */\n      swap1\n      pop\n        /* \"Dcoffer/ERC721A/test.sol\":2786:2801  uint256 Product */\n      0x00\n        /* \"Dcoffer/ERC721A/test.sol\":2804:2835  balanceOf(user).mul(difference) */\n      tag_133\n        /* \"Dcoffer/ERC721A/test.sol\":2824:2834  difference */\n      dup3\n        /* \"Dcoffer/ERC721A/test.sol\":2804:2819  balanceOf(user) */\n      tag_134\n        /* \"Dcoffer/ERC721A/test.sol\":2814:2818  user */\n      dup7\n        /* \"Dcoffer/ERC721A/test.sol\":2804:2813  balanceOf */\n      tag_69\n        /* \"Dcoffer/ERC721A/test.sol\":2804:2819  balanceOf(user) */\n      jump\t// in\n    tag_134:\n        /* \"Dcoffer/ERC721A/test.sol\":2804:2823  balanceOf(user).mul */\n      tag_135\n      swap1\n        /* \"Dcoffer/ERC721A/test.sol\":2804:2835  balanceOf(user).mul(difference) */\n      swap2\n      swap1\n      0xffffffff\n      and\n      jump\t// in\n    tag_133:\n        /* \"Dcoffer/ERC721A/test.sol\":2786:2835  uint256 Product = balanceOf(user).mul(difference) */\n      swap1\n      pop\n        /* \"Dcoffer/ERC721A/test.sol\":2846:2866  uint256 accumulation */\n      0x00\n        /* \"Dcoffer/ERC721A/test.sol\":2869:2902  _BlockScore[user][2].add(Product) */\n      tag_136\n        /* \"Dcoffer/ERC721A/test.sol\":2894:2901  Product */\n      dup3\n        /* \"Dcoffer/ERC721A/test.sol\":2869:2880  _BlockScore */\n      0x0b\n        /* \"Dcoffer/ERC721A/test.sol\":2869:2886  _BlockScore[user] */\n      0x00\n        /* \"Dcoffer/ERC721A/test.sol\":2881:2885  user */\n      dup9\n        /* \"Dcoffer/ERC721A/test.sol\":2869:2886  _BlockScore[user] */\n      0xffffffffffffffffffffffffffffffffffffffff\n      and\n      0xffffffffffffffffffffffffffffffffffffffff\n      and\n      dup2\n      mstore\n      0x20\n      add\n      swap1\n      dup2\n      mstore\n      0x20\n      add\n      0x00\n      keccak256\n        /* \"Dcoffer/ERC721A/test.sol\":2869:2889  _BlockScore[user][2] */\n      0x00\n        /* \"Dcoffer/ERC721A/test.sol\":2887:2888  2 */\n      0x02\n        /* \"Dcoffer/ERC721A/test.sol\":2869:2889  _BlockScore[user][2] */\n      dup2\n      mstore\n      0x20\n      add\n      swap1\n      dup2\n      mstore\n      0x20\n      add\n      0x00\n      keccak256\n      sload\n        /* \"Dcoffer/ERC721A/test.sol\":2869:2893  _BlockScore[user][2].add */\n      tag_137\n      swap1\n        /* \"Dcoffer/ERC721A/test.sol\":2869:2902  _BlockScore[user][2].add(Product) */\n      swap2\n      swap1\n      0xffffffff\n      and\n      jump\t// in\n    tag_136:\n        /* \"Dcoffer/ERC721A/test.sol\":2846:2902  uint256 accumulation = _BlockScore[user][2].add(Product) */\n      swap1\n      pop\n        /* \"Dcoffer/ERC721A/test.sol\":2920:2932  accumulation */\n      dup1\n        /* \"Dcoffer/ERC721A/test.sol\":2913:2932  return accumulation */\n      swap4\n      pop\n      pop\n      pop\n      pop\n        /* \"Dcoffer/ERC721A/test.sol\":2644:2940  function BlockScore(address user)public view returns(uint256){... */\n      swap2\n      swap1\n      pop\n      jump\t// out\n        /* \"Dcoffer/ERC721A/test.sol\":1208:1235  uint256 public _DCFperBlock */\n    tag_58:\n      sload(0x01)\n      dup2\n      jump\t// out\n        /* \"Dcoffer/ERC721A/test.sol\":10256:10441  function safeTransferFrom(... */\n    tag_62:\n        /* \"Dcoffer/ERC721A/test.sol\":10394:10433  safeTransferFrom(from, to, tokenId, '') */\n      tag_139\n        /* \"Dcoffer/ERC721A/test.sol\":10411:10415  from */\n      dup4\n        /* \"Dcoffer/ERC721A/test.sol\":10417:10419  to */\n      dup4\n        /* \"Dcoffer/ERC721A/test.sol\":10421:10428  tokenId */\n      dup4\n        /* \"Dcoffer/ERC721A/test.sol\":10394:10433  safeTransferFrom(from, to, tokenId, '') */\n      mload(0x40)\n      dup1\n      0x20\n      add\n      0x40\n      mstore\n      dup1\n      0x00\n      dup2\n      mstore\n      pop\n        /* \"Dcoffer/ERC721A/test.sol\":10394:10410  safeTransferFrom */\n      tag_84\n        /* \"Dcoffer/ERC721A/test.sol\":10394:10433  safeTransferFrom(from, to, tokenId, '') */\n      jump\t// in\n    tag_139:\n        /* \"Dcoffer/ERC721A/test.sol\":10256:10441  function safeTransferFrom(... */\n      pop\n      pop\n      pop\n      jump\t// out\n        /* \"Dcoffer/ERC721A/test.sol\":7363:7488  function ownerOf(uint256 tokenId) public view override returns (address) {... */\n    tag_65:\n        /* \"Dcoffer/ERC721A/test.sol\":7427:7434  address */\n      0x00\n        /* \"Dcoffer/ERC721A/test.sol\":7454:7475  _ownershipOf(tokenId) */\n      tag_141\n        /* \"Dcoffer/ERC721A/test.sol\":7467:7474  tokenId */\n      dup3\n        /* \"Dcoffer/ERC721A/test.sol\":7454:7466  _ownershipOf */\n      tag_142\n        /* \"Dcoffer/ERC721A/test.sol\":7454:7475  _ownershipOf(tokenId) */\n      jump\t// in\n    tag_141:\n        /* \"Dcoffer/ERC721A/test.sol\":7454:7480  _ownershipOf(tokenId).addr */\n      0x00\n      add\n      mload\n        /* \"Dcoffer/ERC721A/test.sol\":7447:7480  return _ownershipOf(tokenId).addr */\n      swap1\n      pop\n        /* \"Dcoffer/ERC721A/test.sol\":7363:7488  function ownerOf(uint256 tokenId) public view override returns (address) {... */\n      swap2\n      swap1\n      pop\n      jump\t// out\n        /* \"Dcoffer/ERC721A/test.sol\":4808:5014  function balanceOf(address owner) public view override returns (uint256) {... */\n    tag_69:\n        /* \"Dcoffer/ERC721A/test.sol\":4872:4879  uint256 */\n      0x00\n        /* \"Dcoffer/ERC721A/test.sol\":4913:4914  0 */\n      dup1\n        /* \"Dcoffer/ERC721A/test.sol\":4896:4915  owner == address(0) */\n      0xffffffffffffffffffffffffffffffffffffffff\n      and\n        /* \"Dcoffer/ERC721A/test.sol\":4896:4901  owner */\n      dup3\n        /* \"Dcoffer/ERC721A/test.sol\":4896:4915  owner == address(0) */\n      0xffffffffffffffffffffffffffffffffffffffff\n      and\n      sub\n        /* \"Dcoffer/ERC721A/test.sol\":4892:4952  if (owner == address(0)) revert BalanceQueryForZeroAddress() */\n      tag_144\n      jumpi\n        /* \"Dcoffer/ERC721A/test.sol\":4924:4952  BalanceQueryForZeroAddress() */\n      mload(0x40)\n      0x8f4eb60400000000000000000000000000000000000000000000000000000000\n      dup2\n      mstore\n      0x04\n      add\n      mload(0x40)\n      dup1\n      swap2\n      sub\n      swap1\n      revert\n        /* \"Dcoffer/ERC721A/test.sol\":4892:4952  if (owner == address(0)) revert BalanceQueryForZeroAddress() */\n    tag_144:\n        /* \"Dcoffer/ERC721A/test.sol\":4978:4990  _addressData */\n      0x08\n        /* \"Dcoffer/ERC721A/test.sol\":4978:4997  _addressData[owner] */\n      0x00\n        /* \"Dcoffer/ERC721A/test.sol\":4991:4996  owner */\n      dup4\n        /* \"Dcoffer/ERC721A/test.sol\":4978:4997  _addressData[owner] */\n      0xffffffffffffffffffffffffffffffffffffffff\n      and\n      0xffffffffffffffffffffffffffffffffffffffff\n      and\n      dup2\n      mstore\n      0x20\n      add\n      swap1\n      dup2\n      mstore\n      0x20\n      add\n      0x00\n      keccak256\n        /* \"Dcoffer/ERC721A/test.sol\":4978:5005  _addressData[owner].balance */\n      0x00\n      add\n      0x00\n      swap1\n      sload\n      swap1\n      0x0100\n      exp\n      swap1\n      div\n      0xffffffffffffffff\n      and\n        /* \"Dcoffer/ERC721A/test.sol\":4970:5006  uint256(_addressData[owner].balance) */\n      0xffffffffffffffff\n      and\n        /* \"Dcoffer/ERC721A/test.sol\":4963:5006  return uint256(_addressData[owner].balance) */\n      swap1\n      pop\n        /* \"Dcoffer/ERC721A/test.sol\":4808:5014  function balanceOf(address owner) public view override returns (uint256) {... */\n      swap2\n      swap1\n      pop\n      jump\t// out\n        /* \"Dcoffer/ERC721A/test.sol\":7724:7828  function symbol() public view virtual override returns (string memory) {... */\n    tag_72:\n        /* \"Dcoffer/ERC721A/test.sol\":7780:7793  string memory */\n      0x60\n        /* \"Dcoffer/ERC721A/test.sol\":7813:7820  _symbol */\n      0x06\n        /* \"Dcoffer/ERC721A/test.sol\":7806:7820  return _symbol */\n      dup1\n      sload\n      tag_146\n      swap1\n      tag_104\n      jump\t// in\n    tag_146:\n      dup1\n      0x1f\n      add\n      0x20\n      dup1\n      swap2\n      div\n      mul\n      0x20\n      add\n      mload(0x40)\n      swap1\n      dup2\n      add\n      0x40\n      mstore\n      dup1\n      swap3\n      swap2\n      swap1\n      dup2\n      dup2\n      mstore\n      0x20\n      add\n      dup3\n      dup1\n      sload\n      tag_147\n      swap1\n      tag_104\n      jump\t// in\n    tag_147:\n      dup1\n      iszero\n      tag_148\n      jumpi\n      dup1\n      0x1f\n      lt\n      tag_149\n      jumpi\n      0x0100\n      dup1\n      dup4\n      sload\n      div\n      mul\n      dup4\n      mstore\n      swap2\n      0x20\n      add\n      swap2\n      jump(tag_148)\n    tag_149:\n      dup3\n      add\n      swap2\n      swap1\n      0x00\n      mstore\n      keccak256(0x00, 0x20)\n      swap1\n    tag_150:\n      dup2\n      sload\n      dup2\n      mstore\n      swap1\n      0x01\n      add\n      swap1\n      0x20\n      add\n      dup1\n      dup4\n      gt\n      tag_150\n      jumpi\n      dup3\n      swap1\n      sub\n      0x1f\n      and\n      dup3\n      add\n      swap2\n    tag_148:\n      pop\n      pop\n      pop\n      pop\n      pop\n      swap1\n      pop\n        /* \"Dcoffer/ERC721A/test.sol\":7724:7828  function symbol() public view virtual override returns (string memory) {... */\n      swap1\n      jump\t// out\n        /* \"Dcoffer/ERC721A/test.sol\":1179:1199  uint256 public _salt */\n    tag_75:\n      sload(0x00)\n      dup2\n      jump\t// out\n        /* \"Dcoffer/ERC721A/test.sol\":9426:9713  function setApprovalForAll(address operator, bool approved) public virtual override {... */\n    tag_80:\n        /* \"Dcoffer/ERC721A/test.sol\":9537:9549  _msgSender() */\n      tag_152\n        /* \"Dcoffer/ERC721A/test.sol\":9537:9547  _msgSender */\n      tag_117\n        /* \"Dcoffer/ERC721A/test.sol\":9537:9549  _msgSender() */\n      jump\t// in\n    tag_152:\n        /* \"Dcoffer/ERC721A/test.sol\":9525:9549  operator == _msgSender() */\n      0xffffffffffffffffffffffffffffffffffffffff\n      and\n        /* \"Dcoffer/ERC721A/test.sol\":9525:9533  operator */\n      dup3\n        /* \"Dcoffer/ERC721A/test.sol\":9525:9549  operator == _msgSender() */\n      0xffffffffffffffffffffffffffffffffffffffff\n      and\n      sub\n        /* \"Dcoffer/ERC721A/test.sol\":9521:9575  if (operator == _msgSender()) revert ApproveToCaller() */\n      tag_153\n      jumpi\n        /* \"Dcoffer/ERC721A/test.sol\":9558:9575  ApproveToCaller() */\n      mload(0x40)\n      0xb06307db00000000000000000000000000000000000000000000000000000000\n      dup2\n      mstore\n      0x04\n      add\n      mload(0x40)\n      dup1\n      swap2\n      sub\n      swap1\n      revert\n        /* \"Dcoffer/ERC721A/test.sol\":9521:9575  if (operator == _msgSender()) revert ApproveToCaller() */\n    tag_153:\n        /* \"Dcoffer/ERC721A/test.sol\":9633:9641  approved */\n      dup1\n        /* \"Dcoffer/ERC721A/test.sol\":9588:9606  _operatorApprovals */\n      0x0a\n        /* \"Dcoffer/ERC721A/test.sol\":9588:9620  _operatorApprovals[_msgSender()] */\n      0x00\n        /* \"Dcoffer/ERC721A/test.sol\":9607:9619  _msgSender() */\n      tag_154\n        /* \"Dcoffer/ERC721A/test.sol\":9607:9617  _msgSender */\n      tag_117\n        /* \"Dcoffer/ERC721A/test.sol\":9607:9619  _msgSender() */\n      jump\t// in\n    tag_154:\n        /* \"Dcoffer/ERC721A/test.sol\":9588:9620  _operatorApprovals[_msgSender()] */\n      0xffffffffffffffffffffffffffffffffffffffff\n      and\n      0xffffffffffffffffffffffffffffffffffffffff\n      and\n      dup2\n      mstore\n      0x20\n      add\n      swap1\n      dup2\n      mstore\n      0x20\n      add\n      0x00\n      keccak256\n        /* \"Dcoffer/ERC721A/test.sol\":9588:9630  _operatorApprovals[_msgSender()][operator] */\n      0x00\n        /* \"Dcoffer/ERC721A/test.sol\":9621:9629  operator */\n      dup5\n        /* \"Dcoffer/ERC721A/test.sol\":9588:9630  _operatorApprovals[_msgSender()][operator] */\n      0xffffffffffffffffffffffffffffffffffffffff\n      and\n      0xffffffffffffffffffffffffffffffffffffffff\n      and\n      dup2\n      mstore\n      0x20\n      add\n      swap1\n      dup2\n      mstore\n      0x20\n      add\n      0x00\n      keccak256\n      0x00\n        /* \"Dcoffer/ERC721A/test.sol\":9588:9641  _operatorApprovals[_msgSender()][operator] = approved */\n      0x0100\n      exp\n      dup2\n      sload\n      dup2\n      0xff\n      mul\n      not\n      and\n      swap1\n      dup4\n      iszero\n      iszero\n      mul\n      or\n      swap1\n      sstore\n      pop\n        /* \"Dcoffer/ERC721A/test.sol\":9686:9694  operator */\n      dup2\n        /* \"Dcoffer/ERC721A/test.sol\":9657:9705  ApprovalForAll(_msgSender(), operator, approved) */\n      0xffffffffffffffffffffffffffffffffffffffff\n      and\n        /* \"Dcoffer/ERC721A/test.sol\":9672:9684  _msgSender() */\n      tag_155\n        /* \"Dcoffer/ERC721A/test.sol\":9672:9682  _msgSender */\n      tag_117\n        /* \"Dcoffer/ERC721A/test.sol\":9672:9684  _msgSender() */\n      jump\t// in\n    tag_155:\n        /* \"Dcoffer/ERC721A/test.sol\":9657:9705  ApprovalForAll(_msgSender(), operator, approved) */\n      0xffffffffffffffffffffffffffffffffffffffff\n      and\n      0x17307eab39ab6107e8899845ad3d59bd9653f200f220920489ca2b5937696c31\n        /* \"Dcoffer/ERC721A/test.sol\":9696:9704  approved */\n      dup4\n        /* \"Dcoffer/ERC721A/test.sol\":9657:9705  ApprovalForAll(_msgSender(), operator, approved) */\n      mload(0x40)\n      tag_156\n      swap2\n      swap1\n      tag_29\n      jump\t// in\n    tag_156:\n      mload(0x40)\n      dup1\n      swap2\n      sub\n      swap1\n      log3\n        /* \"Dcoffer/ERC721A/test.sol\":9426:9713  function setApprovalForAll(address operator, bool approved) public virtual override {... */\n      pop\n      pop\n      jump\t// out\n        /* \"Dcoffer/ERC721A/test.sol\":10512:10882  function safeTransferFrom(... */\n    tag_84:\n        /* \"Dcoffer/ERC721A/test.sol\":10679:10707  _transfer(from, to, tokenId) */\n      tag_158\n        /* \"Dcoffer/ERC721A/test.sol\":10689:10693  from */\n      dup5\n        /* \"Dcoffer/ERC721A/test.sol\":10695:10697  to */\n      dup5\n        /* \"Dcoffer/ERC721A/test.sol\":10699:10706  tokenId */\n      dup5\n        /* \"Dcoffer/ERC721A/test.sol\":10679:10688  _transfer */\n      tag_129\n        /* \"Dcoffer/ERC721A/test.sol\":10679:10707  _transfer(from, to, tokenId) */\n      jump\t// in\n    tag_158:\n        /* \"Dcoffer/ERC721A/test.sol\":10722:10737  to.isContract() */\n      tag_159\n        /* \"Dcoffer/ERC721A/test.sol\":10722:10724  to */\n      dup4\n        /* \"Dcoffer/ERC721A/test.sol\":10722:10735  to.isContract */\n      0xffffffffffffffffffffffffffffffffffffffff\n      and\n      tag_160\n        /* \"Dcoffer/ERC721A/test.sol\":10722:10737  to.isContract() */\n      jump\t// in\n    tag_159:\n        /* \"Dcoffer/ERC721A/test.sol\":10718:10875  if (to.isContract()) if(!_checkContractOnERC721Received(from, to, tokenId, _data)) {... */\n      iszero\n      tag_161\n      jumpi\n        /* \"Dcoffer/ERC721A/test.sol\":10743:10799  _checkContractOnERC721Received(from, to, tokenId, _data) */\n      tag_162\n        /* \"Dcoffer/ERC721A/test.sol\":10774:10778  from */\n      dup5\n        /* \"Dcoffer/ERC721A/test.sol\":10780:10782  to */\n      dup5\n        /* \"Dcoffer/ERC721A/test.sol\":10784:10791  tokenId */\n      dup5\n        /* \"Dcoffer/ERC721A/test.sol\":10793:10798  _data */\n      dup5\n        /* \"Dcoffer/ERC721A/test.sol\":10743:10773  _checkContractOnERC721Received */\n      tag_163\n        /* \"Dcoffer/ERC721A/test.sol\":10743:10799  _checkContractOnERC721Received(from, to, tokenId, _data) */\n      jump\t// in\n    tag_162:\n        /* \"Dcoffer/ERC721A/test.sol\":10739:10875  if(!_checkContractOnERC721Received(from, to, tokenId, _data)) {... */\n      tag_164\n      jumpi\n        /* \"Dcoffer/ERC721A/test.sol\":10823:10863  TransferToNonERC721ReceiverImplementer() */\n      mload(0x40)\n      0xd1a57ed600000000000000000000000000000000000000000000000000000000\n      dup2\n      mstore\n      0x04\n      add\n      mload(0x40)\n      dup1\n      swap2\n      sub\n      swap1\n      revert\n        /* \"Dcoffer/ERC721A/test.sol\":10739:10875  if(!_checkContractOnERC721Received(from, to, tokenId, _data)) {... */\n    tag_164:\n        /* \"Dcoffer/ERC721A/test.sol\":10718:10875  if (to.isContract()) if(!_checkContractOnERC721Received(from, to, tokenId, _data)) {... */\n    tag_161:\n        /* \"Dcoffer/ERC721A/test.sol\":10512:10882  function safeTransferFrom(... */\n      pop\n      pop\n      pop\n      pop\n      jump\t// out\n        /* \"Dcoffer/ERC721A/test.sol\":7899:8217  function tokenURI(uint256 tokenId) public view virtual override returns (string memory) {... */\n    tag_87:\n        /* \"Dcoffer/ERC721A/test.sol\":7972:7985  string memory */\n      0x60\n        /* \"Dcoffer/ERC721A/test.sol\":8003:8019  _exists(tokenId) */\n      tag_166\n        /* \"Dcoffer/ERC721A/test.sol\":8011:8018  tokenId */\n      dup3\n        /* \"Dcoffer/ERC721A/test.sol\":8003:8010  _exists */\n      tag_111\n        /* \"Dcoffer/ERC721A/test.sol\":8003:8019  _exists(tokenId) */\n      jump\t// in\n    tag_166:\n        /* \"Dcoffer/ERC721A/test.sol\":7998:8057  if (!_exists(tokenId)) revert URIQueryForNonexistentToken() */\n      tag_167\n      jumpi\n        /* \"Dcoffer/ERC721A/test.sol\":8028:8057  URIQueryForNonexistentToken() */\n      mload(0x40)\n      0xa14c4b5000000000000000000000000000000000000000000000000000000000\n      dup2\n      mstore\n      0x04\n      add\n      mload(0x40)\n      dup1\n      swap2\n      sub\n      swap1\n      revert\n        /* \"Dcoffer/ERC721A/test.sol\":7998:8057  if (!_exists(tokenId)) revert URIQueryForNonexistentToken() */\n    tag_167:\n        /* \"Dcoffer/ERC721A/test.sol\":8070:8091  string memory baseURI */\n      0x00\n        /* \"Dcoffer/ERC721A/test.sol\":8094:8104  _baseURI() */\n      tag_168\n        /* \"Dcoffer/ERC721A/test.sol\":8094:8102  _baseURI */\n      tag_169\n        /* \"Dcoffer/ERC721A/test.sol\":8094:8104  _baseURI() */\n      jump\t// in\n    tag_168:\n        /* \"Dcoffer/ERC721A/test.sol\":8070:8104  string memory baseURI = _baseURI() */\n      swap1\n      pop\n        /* \"Dcoffer/ERC721A/test.sol\":8147:8148  0 */\n      0x00\n        /* \"Dcoffer/ERC721A/test.sol\":8128:8135  baseURI */\n      dup2\n        /* \"Dcoffer/ERC721A/test.sol\":8122:8143  bytes(baseURI).length */\n      mload\n        /* \"Dcoffer/ERC721A/test.sol\":8122:8148  bytes(baseURI).length != 0 */\n      sub\n        /* \"Dcoffer/ERC721A/test.sol\":8122:8209  bytes(baseURI).length != 0 ? string(abi.encodePacked(baseURI, tokenId.toString())) : '' */\n      tag_170\n      jumpi\n      mload(0x40)\n      dup1\n      0x20\n      add\n      0x40\n      mstore\n      dup1\n      0x00\n      dup2\n      mstore\n      pop\n      jump(tag_171)\n    tag_170:\n        /* \"Dcoffer/ERC721A/test.sol\":8175:8182  baseURI */\n      dup1\n        /* \"Dcoffer/ERC721A/test.sol\":8184:8202  tokenId.toString() */\n      tag_172\n        /* \"Dcoffer/ERC721A/test.sol\":8184:8191  tokenId */\n      dup5\n        /* \"Dcoffer/ERC721A/test.sol\":8184:8200  tokenId.toString */\n      tag_173\n        /* \"Dcoffer/ERC721A/test.sol\":8184:8202  tokenId.toString() */\n      jump\t// in\n    tag_172:\n        /* \"Dcoffer/ERC721A/test.sol\":8158:8203  abi.encodePacked(baseURI, tokenId.toString()) */\n      add(0x20, mload(0x40))\n      tag_174\n      swap3\n      swap2\n      swap1\n      tag_175\n      jump\t// in\n    tag_174:\n      mload(0x40)\n      0x20\n      dup2\n      dup4\n      sub\n      sub\n      dup2\n      mstore\n      swap1\n      0x40\n      mstore\n        /* \"Dcoffer/ERC721A/test.sol\":8122:8209  bytes(baseURI).length != 0 ? string(abi.encodePacked(baseURI, tokenId.toString())) : '' */\n    tag_171:\n        /* \"Dcoffer/ERC721A/test.sol\":8115:8209  return bytes(baseURI).length != 0 ? string(abi.encodePacked(baseURI, tokenId.toString())) : '' */\n      swap2\n      pop\n      pop\n        /* \"Dcoffer/ERC721A/test.sol\":7899:8217  function tokenURI(uint256 tokenId) public view virtual override returns (string memory) {... */\n      swap2\n      swap1\n      pop\n      jump\t// out\n        /* \"Dcoffer/ERC721A/test.sol\":3819:3991  function maxSupply() public view override returns (uint256) {       ... */\n    tag_90:\n        /* \"Dcoffer/ERC721A/test.sol\":3870:3877  uint256 */\n      0x00\n        /* \"Dcoffer/ERC721A/test.sol\":3957:3972  _startTokenId() */\n      tag_177\n        /* \"Dcoffer/ERC721A/test.sol\":3957:3970  _startTokenId */\n      tag_126\n        /* \"Dcoffer/ERC721A/test.sol\":3957:3972  _startTokenId() */\n      jump\t// in\n    tag_177:\n        /* \"Dcoffer/ERC721A/test.sol\":3942:3954  _burnCounter */\n      sload(0x04)\n        /* \"Dcoffer/ERC721A/test.sol\":3929:3939  _maxSupply */\n      sload(0x03)\n        /* \"Dcoffer/ERC721A/test.sol\":3929:3954  _maxSupply - _burnCounter */\n      sub\n        /* \"Dcoffer/ERC721A/test.sol\":3929:3972  _maxSupply - _burnCounter - _startTokenId() */\n      sub\n        /* \"Dcoffer/ERC721A/test.sol\":3922:3972  return _maxSupply - _burnCounter - _startTokenId() */\n      swap1\n      pop\n        /* \"Dcoffer/ERC721A/test.sol\":3819:3991  function maxSupply() public view override returns (uint256) {       ... */\n      swap1\n      jump\t// out\n        /* \"Dcoffer/ERC721A/test.sol\":9784:9948  function isApprovedForAll(address owner, address operator) public view virtual override returns (bool) {... */\n    tag_95:\n        /* \"Dcoffer/ERC721A/test.sol\":9881:9885  bool */\n      0x00\n        /* \"Dcoffer/ERC721A/test.sol\":9905:9923  _operatorApprovals */\n      0x0a\n        /* \"Dcoffer/ERC721A/test.sol\":9905:9930  _operatorApprovals[owner] */\n      0x00\n        /* \"Dcoffer/ERC721A/test.sol\":9924:9929  owner */\n      dup5\n        /* \"Dcoffer/ERC721A/test.sol\":9905:9930  _operatorApprovals[owner] */\n      0xffffffffffffffffffffffffffffffffffffffff\n      and\n      0xffffffffffffffffffffffffffffffffffffffff\n      and\n      dup2\n      mstore\n      0x20\n      add\n      swap1\n      dup2\n      mstore\n      0x20\n      add\n      0x00\n      keccak256\n        /* \"Dcoffer/ERC721A/test.sol\":9905:9940  _operatorApprovals[owner][operator] */\n      0x00\n        /* \"Dcoffer/ERC721A/test.sol\":9931:9939  operator */\n      dup4\n        /* \"Dcoffer/ERC721A/test.sol\":9905:9940  _operatorApprovals[owner][operator] */\n      0xffffffffffffffffffffffffffffffffffffffff\n      and\n      0xffffffffffffffffffffffffffffffffffffffff\n      and\n      dup2\n      mstore\n      0x20\n      add\n      swap1\n      dup2\n      mstore\n      0x20\n      add\n      0x00\n      keccak256\n      0x00\n      swap1\n      sload\n      swap1\n      0x0100\n      exp\n      swap1\n      div\n      0xff\n      and\n        /* \"Dcoffer/ERC721A/test.sol\":9898:9940  return _operatorApprovals[owner][operator] */\n      swap1\n      pop\n        /* \"Dcoffer/ERC721A/test.sol\":9784:9948  function isApprovedForAll(address owner, address operator) public view virtual override returns (bool) {... */\n      swap3\n      swap2\n      pop\n      pop\n      jump\t// out\n        /* \"@openzeppelin/contracts/utils/introspection/ERC165.sol\":829:984  function supportsInterface(bytes4 interfaceId) public view virtual override returns (bool) {... */\n    tag_101:\n        /* \"@openzeppelin/contracts/utils/introspection/ERC165.sol\":914:918  bool */\n      0x00\n        /* \"@openzeppelin/contracts/utils/introspection/ERC165.sol\":952:977  type(IERC165).interfaceId */\n      0x01ffc9a700000000000000000000000000000000000000000000000000000000\n        /* \"@openzeppelin/contracts/utils/introspection/ERC165.sol\":937:977  interfaceId == type(IERC165).interfaceId */\n      not(0xffffffffffffffffffffffffffffffffffffffffffffffffffffffff)\n      and\n        /* \"@openzeppelin/contracts/utils/introspection/ERC165.sol\":937:948  interfaceId */\n      dup3\n        /* \"@openzeppelin/contracts/utils/introspection/ERC165.sol\":937:977  interfaceId == type(IERC165).interfaceId */\n      not(0xffffffffffffffffffffffffffffffffffffffffffffffffffffffff)\n      and\n      eq\n        /* \"@openzeppelin/contracts/utils/introspection/ERC165.sol\":930:977  return interfaceId == type(IERC165).interfaceId */\n      swap1\n      pop\n        /* \"@openzeppelin/contracts/utils/introspection/ERC165.sol\":829:984  function supportsInterface(bytes4 interfaceId) public view virtual override returns (bool) {... */\n      swap2\n      swap1\n      pop\n      jump\t// out\n        /* \"Dcoffer/ERC721A/test.sol\":11096:11270  function _exists(uint256 tokenId) internal view returns (bool) {... */\n    tag_111:\n        /* \"Dcoffer/ERC721A/test.sol\":11153:11157  bool */\n      0x00\n        /* \"Dcoffer/ERC721A/test.sol\":11196:11203  tokenId */\n      dup2\n        /* \"Dcoffer/ERC721A/test.sol\":11177:11192  _startTokenId() */\n      tag_181\n        /* \"Dcoffer/ERC721A/test.sol\":11177:11190  _startTokenId */\n      tag_126\n        /* \"Dcoffer/ERC721A/test.sol\":11177:11192  _startTokenId() */\n      jump\t// in\n    tag_181:\n        /* \"Dcoffer/ERC721A/test.sol\":11177:11203  _startTokenId() <= tokenId */\n      gt\n      iszero\n        /* \"Dcoffer/ERC721A/test.sol\":11177:11230  _startTokenId() <= tokenId && tokenId < _currentIndex */\n      dup1\n      iszero\n      tag_182\n      jumpi\n      pop\n        /* \"Dcoffer/ERC721A/test.sol\":11217:11230  _currentIndex */\n      sload(0x02)\n        /* \"Dcoffer/ERC721A/test.sol\":11207:11214  tokenId */\n      dup3\n        /* \"Dcoffer/ERC721A/test.sol\":11207:11230  tokenId < _currentIndex */\n      lt\n        /* \"Dcoffer/ERC721A/test.sol\":11177:11230  _startTokenId() <= tokenId && tokenId < _currentIndex */\n    tag_182:\n        /* \"Dcoffer/ERC721A/test.sol\":11177:11262  _startTokenId() <= tokenId && tokenId < _currentIndex && !_ownerships[tokenId].burned */\n      dup1\n      iszero\n      tag_183\n      jumpi\n      pop\n        /* \"Dcoffer/ERC721A/test.sol\":11235:11246  _ownerships */\n      0x07\n        /* \"Dcoffer/ERC721A/test.sol\":11235:11255  _ownerships[tokenId] */\n      0x00\n        /* \"Dcoffer/ERC721A/test.sol\":11247:11254  tokenId */\n      dup4\n        /* \"Dcoffer/ERC721A/test.sol\":11235:11255  _ownerships[tokenId] */\n      dup2\n      mstore\n      0x20\n      add\n      swap1\n      dup2\n      mstore\n      0x20\n      add\n      0x00\n      keccak256\n        /* \"Dcoffer/ERC721A/test.sol\":11235:11262  _ownerships[tokenId].burned */\n      0x00\n      add\n      0x1c\n      swap1\n      sload\n      swap1\n      0x0100\n      exp\n      swap1\n      div\n      0xff\n      and\n        /* \"Dcoffer/ERC721A/test.sol\":11234:11262  !_ownerships[tokenId].burned */\n      iszero\n        /* \"Dcoffer/ERC721A/test.sol\":11177:11262  _startTokenId() <= tokenId && tokenId < _currentIndex && !_ownerships[tokenId].burned */\n    tag_183:\n        /* \"Dcoffer/ERC721A/test.sol\":11170:11262  return _startTokenId() <= tokenId && tokenId < _currentIndex && !_ownerships[tokenId].burned */\n      swap1\n      pop\n        /* \"Dcoffer/ERC721A/test.sol\":11096:11270  function _exists(uint256 tokenId) internal view returns (bool) {... */\n      swap2\n      swap1\n      pop\n      jump\t// out\n        /* \"@openzeppelin/contracts/utils/Context.sol\":640:736  function _msgSender() internal view virtual returns (address) {... */\n    tag_117:\n        /* \"@openzeppelin/contracts/utils/Context.sol\":693:700  address */\n      0x00\n        /* \"@openzeppelin/contracts/utils/Context.sol\":719:729  msg.sender */\n      caller\n        /* \"@openzeppelin/contracts/utils/Context.sol\":712:729  return msg.sender */\n      swap1\n      pop\n        /* \"@openzeppelin/contracts/utils/Context.sol\":640:736  function _msgSender() internal view virtual returns (address) {... */\n      swap1\n      jump\t// out\n        /* \"Dcoffer/ERC721A/test.sol\":19038:19234  function _approve(... */\n    tag_123:\n        /* \"Dcoffer/ERC721A/test.sol\":19180:19182  to */\n      dup3\n        /* \"Dcoffer/ERC721A/test.sol\":19153:19168  _tokenApprovals */\n      0x09\n        /* \"Dcoffer/ERC721A/test.sol\":19153:19177  _tokenApprovals[tokenId] */\n      0x00\n        /* \"Dcoffer/ERC721A/test.sol\":19169:19176  tokenId */\n      dup5\n        /* \"Dcoffer/ERC721A/test.sol\":19153:19177  _tokenApprovals[tokenId] */\n      dup2\n      mstore\n      0x20\n      add\n      swap1\n      dup2\n      mstore\n      0x20\n      add\n      0x00\n      keccak256\n      0x00\n        /* \"Dcoffer/ERC721A/test.sol\":19153:19182  _tokenApprovals[tokenId] = to */\n      0x0100\n      exp\n      dup2\n      sload\n      dup2\n      0xffffffffffffffffffffffffffffffffffffffff\n      mul\n      not\n      and\n      swap1\n      dup4\n      0xffffffffffffffffffffffffffffffffffffffff\n      and\n      mul\n      or\n      swap1\n      sstore\n      pop\n        /* \"Dcoffer/ERC721A/test.sol\":19218:19225  tokenId */\n      dup2\n        /* \"Dcoffer/ERC721A/test.sol\":19214:19216  to */\n      dup4\n        /* \"Dcoffer/ERC721A/test.sol\":19198:19226  Approval(owner, to, tokenId) */\n      0xffffffffffffffffffffffffffffffffffffffff\n      and\n        /* \"Dcoffer/ERC721A/test.sol\":19207:19212  owner */\n      dup3\n        /* \"Dcoffer/ERC721A/test.sol\":19198:19226  Approval(owner, to, tokenId) */\n      0xffffffffffffffffffffffffffffffffffffffff\n      and\n      0x8c5be1e5ebec7d5bd14f71427d1e84f3dd0314c0f7b2291e5b200ac8c7c3b925\n      mload(0x40)\n      mload(0x40)\n      dup1\n      swap2\n      sub\n      swap1\n      log4\n        /* \"Dcoffer/ERC721A/test.sol\":19038:19234  function _approve(... */\n      pop\n      pop\n      pop\n      jump\t// out\n        /* \"Dcoffer/ERC721A/test.sol\":3271:3363  function _startTokenId() internal view virtual returns (uint256) {... */\n    tag_126:\n        /* \"Dcoffer/ERC721A/test.sol\":3327:3334  uint256 */\n      0x00\n        /* \"Dcoffer/ERC721A/test.sol\":3271:3363  function _startTokenId() internal view virtual returns (uint256) {... */\n      swap1\n      jump\t// out\n        /* \"Dcoffer/ERC721A/test.sol\":13883:16077  function _transfer(... */\n    tag_129:\n        /* \"Dcoffer/ERC721A/test.sol\":13998:14020  updateBlockScore(from) */\n      tag_188\n        /* \"Dcoffer/ERC721A/test.sol\":14015:14019  from */\n      dup4\n        /* \"Dcoffer/ERC721A/test.sol\":13998:14014  updateBlockScore */\n      tag_189\n        /* \"Dcoffer/ERC721A/test.sol\":13998:14020  updateBlockScore(from) */\n      jump\t// in\n    tag_188:\n        /* \"Dcoffer/ERC721A/test.sol\":14031:14051  updateBlockScore(to) */\n      tag_190\n        /* \"Dcoffer/ERC721A/test.sol\":14048:14050  to */\n      dup3\n        /* \"Dcoffer/ERC721A/test.sol\":14031:14047  updateBlockScore */\n      tag_189\n        /* \"Dcoffer/ERC721A/test.sol\":14031:14051  updateBlockScore(to) */\n      jump\t// in\n    tag_190:\n        /* \"Dcoffer/ERC721A/test.sol\":14062:14097  TokenOwnership memory prevOwnership */\n      0x00\n        /* \"Dcoffer/ERC721A/test.sol\":14100:14121  _ownershipOf(tokenId) */\n      tag_191\n        /* \"Dcoffer/ERC721A/test.sol\":14113:14120  tokenId */\n      dup3\n        /* \"Dcoffer/ERC721A/test.sol\":14100:14112  _ownershipOf */\n      tag_142\n        /* \"Dcoffer/ERC721A/test.sol\":14100:14121  _ownershipOf(tokenId) */\n      jump\t// in\n    tag_191:\n        /* \"Dcoffer/ERC721A/test.sol\":14062:14121  TokenOwnership memory prevOwnership = _ownershipOf(tokenId) */\n      swap1\n      pop\n        /* \"Dcoffer/ERC721A/test.sol\":14160:14164  from */\n      dup4\n        /* \"Dcoffer/ERC721A/test.sol\":14138:14164  prevOwnership.addr != from */\n      0xffffffffffffffffffffffffffffffffffffffff\n      and\n        /* \"Dcoffer/ERC721A/test.sol\":14138:14151  prevOwnership */\n      dup2\n        /* \"Dcoffer/ERC721A/test.sol\":14138:14156  prevOwnership.addr */\n      0x00\n      add\n      mload\n        /* \"Dcoffer/ERC721A/test.sol\":14138:14164  prevOwnership.addr != from */\n      0xffffffffffffffffffffffffffffffffffffffff\n      and\n      eq\n        /* \"Dcoffer/ERC721A/test.sol\":14134:14201  if (prevOwnership.addr != from) revert TransferFromIncorrectOwner() */\n      tag_192\n      jumpi\n        /* \"Dcoffer/ERC721A/test.sol\":14173:14201  TransferFromIncorrectOwner() */\n      mload(0x40)\n      0xa114810000000000000000000000000000000000000000000000000000000000\n      dup2\n      mstore\n      0x04\n      add\n      mload(0x40)\n      dup1\n      swap2\n      sub\n      swap1\n      revert\n        /* \"Dcoffer/ERC721A/test.sol\":14134:14201  if (prevOwnership.addr != from) revert TransferFromIncorrectOwner() */\n    tag_192:\n        /* \"Dcoffer/ERC721A/test.sol\":14214:14236  bool isApprovedOrOwner */\n      0x00\n        /* \"Dcoffer/ERC721A/test.sol\":14256:14260  from */\n      dup5\n        /* \"Dcoffer/ERC721A/test.sol\":14240:14260  _msgSender() == from */\n      0xffffffffffffffffffffffffffffffffffffffff\n      and\n        /* \"Dcoffer/ERC721A/test.sol\":14240:14252  _msgSender() */\n      tag_193\n        /* \"Dcoffer/ERC721A/test.sol\":14240:14250  _msgSender */\n      tag_117\n        /* \"Dcoffer/ERC721A/test.sol\":14240:14252  _msgSender() */\n      jump\t// in\n    tag_193:\n        /* \"Dcoffer/ERC721A/test.sol\":14240:14260  _msgSender() == from */\n      0xffffffffffffffffffffffffffffffffffffffff\n      and\n      eq\n        /* \"Dcoffer/ERC721A/test.sol\":14240:14313  _msgSender() == from ||... */\n      dup1\n      tag_194\n      jumpi\n      pop\n        /* \"Dcoffer/ERC721A/test.sol\":14277:14313  isApprovedForAll(from, _msgSender()) */\n      tag_195\n        /* \"Dcoffer/ERC721A/test.sol\":14294:14298  from */\n      dup6\n        /* \"Dcoffer/ERC721A/test.sol\":14300:14312  _msgSender() */\n      tag_196\n        /* \"Dcoffer/ERC721A/test.sol\":14300:14310  _msgSender */\n      tag_117\n        /* \"Dcoffer/ERC721A/test.sol\":14300:14312  _msgSender() */\n      jump\t// in\n    tag_196:\n        /* \"Dcoffer/ERC721A/test.sol\":14277:14293  isApprovedForAll */\n      tag_95\n        /* \"Dcoffer/ERC721A/test.sol\":14277:14313  isApprovedForAll(from, _msgSender()) */\n      jump\t// in\n    tag_195:\n        /* \"Dcoffer/ERC721A/test.sol\":14240:14313  _msgSender() == from ||... */\n    tag_194:\n        /* \"Dcoffer/ERC721A/test.sol\":14240:14366  _msgSender() == from ||... */\n      dup1\n      tag_197\n      jumpi\n      pop\n        /* \"Dcoffer/ERC721A/test.sol\":14354:14366  _msgSender() */\n      tag_198\n        /* \"Dcoffer/ERC721A/test.sol\":14354:14364  _msgSender */\n      tag_117\n        /* \"Dcoffer/ERC721A/test.sol\":14354:14366  _msgSender() */\n      jump\t// in\n    tag_198:\n        /* \"Dcoffer/ERC721A/test.sol\":14330:14366  getApproved(tokenId) == _msgSender() */\n      0xffffffffffffffffffffffffffffffffffffffff\n      and\n        /* \"Dcoffer/ERC721A/test.sol\":14330:14350  getApproved(tokenId) */\n      tag_199\n        /* \"Dcoffer/ERC721A/test.sol\":14342:14349  tokenId */\n      dup5\n        /* \"Dcoffer/ERC721A/test.sol\":14330:14341  getApproved */\n      tag_37\n        /* \"Dcoffer/ERC721A/test.sol\":14330:14350  getApproved(tokenId) */\n      jump\t// in\n    tag_199:\n        /* \"Dcoffer/ERC721A/test.sol\":14330:14366  getApproved(tokenId) == _msgSender() */\n      0xffffffffffffffffffffffffffffffffffffffff\n      and\n      eq\n        /* \"Dcoffer/ERC721A/test.sol\":14240:14366  _msgSender() == from ||... */\n    tag_197:\n        /* \"Dcoffer/ERC721A/test.sol\":14214:14367  bool isApprovedOrOwner = (_msgSender() == from ||... */\n      swap1\n      pop\n        /* \"Dcoffer/ERC721A/test.sol\":14385:14402  isApprovedOrOwner */\n      dup1\n        /* \"Dcoffer/ERC721A/test.sol\":14380:14446  if (!isApprovedOrOwner) revert TransferCallerNotOwnerNorApproved() */\n      tag_200\n      jumpi\n        /* \"Dcoffer/ERC721A/test.sol\":14411:14446  TransferCallerNotOwnerNorApproved() */\n      mload(0x40)\n      0x59c896be00000000000000000000000000000000000000000000000000000000\n      dup2\n      mstore\n      0x04\n      add\n      mload(0x40)\n      dup1\n      swap2\n      sub\n      swap1\n      revert\n        /* \"Dcoffer/ERC721A/test.sol\":14380:14446  if (!isApprovedOrOwner) revert TransferCallerNotOwnerNorApproved() */\n    tag_200:\n        /* \"Dcoffer/ERC721A/test.sol\":14475:14476  0 */\n      0x00\n        /* \"Dcoffer/ERC721A/test.sol\":14461:14477  to == address(0) */\n      0xffffffffffffffffffffffffffffffffffffffff\n      and\n        /* \"Dcoffer/ERC721A/test.sol\":14461:14463  to */\n      dup5\n        /* \"Dcoffer/ERC721A/test.sol\":14461:14477  to == address(0) */\n      0xffffffffffffffffffffffffffffffffffffffff\n      and\n      sub\n        /* \"Dcoffer/ERC721A/test.sol\":14457:14509  if (to == address(0)) revert TransferToZeroAddress() */\n      tag_201\n      jumpi\n        /* \"Dcoffer/ERC721A/test.sol\":14486:14509  TransferToZeroAddress() */\n      mload(0x40)\n      0xea553b3400000000000000000000000000000000000000000000000000000000\n      dup2\n      mstore\n      0x04\n      add\n      mload(0x40)\n      dup1\n      swap2\n      sub\n      swap1\n      revert\n        /* \"Dcoffer/ERC721A/test.sol\":14457:14509  if (to == address(0)) revert TransferToZeroAddress() */\n    tag_201:\n        /* \"Dcoffer/ERC721A/test.sol\":14522:14565  _beforeTokenTransfers(from, to, tokenId, 1) */\n      tag_202\n        /* \"Dcoffer/ERC721A/test.sol\":14544:14548  from */\n      dup6\n        /* \"Dcoffer/ERC721A/test.sol\":14550:14552  to */\n      dup6\n        /* \"Dcoffer/ERC721A/test.sol\":14554:14561  tokenId */\n      dup6\n        /* \"Dcoffer/ERC721A/test.sol\":14563:14564  1 */\n      0x01\n        /* \"Dcoffer/ERC721A/test.sol\":14522:14543  _beforeTokenTransfers */\n      tag_203\n        /* \"Dcoffer/ERC721A/test.sol\":14522:14565  _beforeTokenTransfers(from, to, tokenId, 1) */\n      jump\t// in\n    tag_202:\n        /* \"Dcoffer/ERC721A/test.sol\":14630:14665  _approve(address(0), tokenId, from) */\n      tag_204\n        /* \"Dcoffer/ERC721A/test.sol\":14647:14648  0 */\n      0x00\n        /* \"Dcoffer/ERC721A/test.sol\":14651:14658  tokenId */\n      dup5\n        /* \"Dcoffer/ERC721A/test.sol\":14660:14664  from */\n      dup8\n        /* \"Dcoffer/ERC721A/test.sol\":14630:14638  _approve */\n      tag_123\n        /* \"Dcoffer/ERC721A/test.sol\":14630:14665  _approve(address(0), tokenId, from) */\n      jump\t// in\n    tag_204:\n        /* \"Dcoffer/ERC721A/test.sol\":14991:14992  1 */\n      0x01\n        /* \"Dcoffer/ERC721A/test.sol\":14961:14973  _addressData */\n      0x08\n        /* \"Dcoffer/ERC721A/test.sol\":14961:14979  _addressData[from] */\n      0x00\n        /* \"Dcoffer/ERC721A/test.sol\":14974:14978  from */\n      dup8\n        /* \"Dcoffer/ERC721A/test.sol\":14961:14979  _addressData[from] */\n      0xffffffffffffffffffffffffffffffffffffffff\n      and\n      0xffffffffffffffffffffffffffffffffffffffff\n      and\n      dup2\n      mstore\n      0x20\n      add\n      swap1\n      dup2\n      mstore\n      0x20\n      add\n      0x00\n      keccak256\n        /* \"Dcoffer/ERC721A/test.sol\":14961:14987  _addressData[from].balance */\n      0x00\n      add\n      0x00\n        /* \"Dcoffer/ERC721A/test.sol\":14961:14992  _addressData[from].balance -= 1 */\n      dup3\n      dup3\n      dup3\n      swap1\n      sload\n      swap1\n      0x0100\n      exp\n      swap1\n      div\n      0xffffffffffffffff\n      and\n      sub\n      swap3\n      pop\n      0x0100\n      exp\n      dup2\n      sload\n      dup2\n      0xffffffffffffffff\n      mul\n      not\n      and\n      swap1\n      dup4\n      0xffffffffffffffff\n      and\n      mul\n      or\n      swap1\n      sstore\n      pop\n        /* \"Dcoffer/ERC721A/test.sol\":15035:15036  1 */\n      0x01\n        /* \"Dcoffer/ERC721A/test.sol\":15007:15019  _addressData */\n      0x08\n        /* \"Dcoffer/ERC721A/test.sol\":15007:15023  _addressData[to] */\n      0x00\n        /* \"Dcoffer/ERC721A/test.sol\":15020:15022  to */\n      dup7\n        /* \"Dcoffer/ERC721A/test.sol\":15007:15023  _addressData[to] */\n      0xffffffffffffffffffffffffffffffffffffffff\n      and\n      0xffffffffffffffffffffffffffffffffffffffff\n      and\n      dup2\n      mstore\n      0x20\n      add\n      swap1\n      dup2\n      mstore\n      0x20\n      add\n      0x00\n      keccak256\n        /* \"Dcoffer/ERC721A/test.sol\":15007:15031  _addressData[to].balance */\n      0x00\n      add\n      0x00\n        /* \"Dcoffer/ERC721A/test.sol\":15007:15036  _addressData[to].balance += 1 */\n      dup3\n      dup3\n      dup3\n      swap1\n      sload\n      swap1\n      0x0100\n      exp\n      swap1\n      div\n      0xffffffffffffffff\n      and\n      add\n      swap3\n      pop\n      0x0100\n      exp\n      dup2\n      sload\n      dup2\n      0xffffffffffffffff\n      mul\n      not\n      and\n      swap1\n      dup4\n      0xffffffffffffffff\n      and\n      mul\n      or\n      swap1\n      sstore\n      pop\n        /* \"Dcoffer/ERC721A/test.sol\":15053:15084  TokenOwnership storage currSlot */\n      0x00\n        /* \"Dcoffer/ERC721A/test.sol\":15087:15098  _ownerships */\n      0x07\n        /* \"Dcoffer/ERC721A/test.sol\":15087:15107  _ownerships[tokenId] */\n      0x00\n        /* \"Dcoffer/ERC721A/test.sol\":15099:15106  tokenId */\n      dup6\n        /* \"Dcoffer/ERC721A/test.sol\":15087:15107  _ownerships[tokenId] */\n      dup2\n      mstore\n      0x20\n      add\n      swap1\n      dup2\n      mstore\n      0x20\n      add\n      0x00\n      keccak256\n        /* \"Dcoffer/ERC721A/test.sol\":15053:15107  TokenOwnership storage currSlot = _ownerships[tokenId] */\n      swap1\n      pop\n        /* \"Dcoffer/ERC721A/test.sol\":15138:15140  to */\n      dup5\n        /* \"Dcoffer/ERC721A/test.sol\":15122:15130  currSlot */\n      dup2\n        /* \"Dcoffer/ERC721A/test.sol\":15122:15135  currSlot.addr */\n      0x00\n      add\n      0x00\n        /* \"Dcoffer/ERC721A/test.sol\":15122:15140  currSlot.addr = to */\n      0x0100\n      exp\n      dup2\n      sload\n      dup2\n      0xffffffffffffffffffffffffffffffffffffffff\n      mul\n      not\n      and\n      swap1\n      dup4\n      0xffffffffffffffffffffffffffffffffffffffff\n      and\n      mul\n      or\n      swap1\n      sstore\n      pop\n        /* \"Dcoffer/ERC721A/test.sol\":15188:15203  block.timestamp */\n      timestamp\n        /* \"Dcoffer/ERC721A/test.sol\":15155:15163  currSlot */\n      dup2\n        /* \"Dcoffer/ERC721A/test.sol\":15155:15178  currSlot.startTimestamp */\n      0x00\n      add\n      0x14\n        /* \"Dcoffer/ERC721A/test.sol\":15155:15204  currSlot.startTimestamp = uint64(block.timestamp) */\n      0x0100\n      exp\n      dup2\n      sload\n      dup2\n      0xffffffffffffffff\n      mul\n      not\n      and\n      swap1\n      dup4\n      0xffffffffffffffff\n      and\n      mul\n      or\n      swap1\n      sstore\n      pop\n        /* \"Dcoffer/ERC721A/test.sol\":15456:15475  uint256 nextTokenId */\n      0x00\n        /* \"Dcoffer/ERC721A/test.sol\":15488:15489  1 */\n      0x01\n        /* \"Dcoffer/ERC721A/test.sol\":15478:15485  tokenId */\n      dup6\n        /* \"Dcoffer/ERC721A/test.sol\":15478:15489  tokenId + 1 */\n      add\n        /* \"Dcoffer/ERC721A/test.sol\":15456:15489  uint256 nextTokenId = tokenId + 1 */\n      swap1\n      pop\n        /* \"Dcoffer/ERC721A/test.sol\":15504:15535  TokenOwnership storage nextSlot */\n      0x00\n        /* \"Dcoffer/ERC721A/test.sol\":15538:15549  _ownerships */\n      0x07\n        /* \"Dcoffer/ERC721A/test.sol\":15538:15562  _ownerships[nextTokenId] */\n      0x00\n        /* \"Dcoffer/ERC721A/test.sol\":15550:15561  nextTokenId */\n      dup4\n        /* \"Dcoffer/ERC721A/test.sol\":15538:15562  _ownerships[nextTokenId] */\n      dup2\n      mstore\n      0x20\n      add\n      swap1\n      dup2\n      mstore\n      0x20\n      add\n      0x00\n      keccak256\n        /* \"Dcoffer/ERC721A/test.sol\":15504:15562  TokenOwnership storage nextSlot = _ownerships[nextTokenId] */\n      swap1\n      pop\n        /* \"Dcoffer/ERC721A/test.sol\":15606:15607  0 */\n      0x00\n        /* \"Dcoffer/ERC721A/test.sol\":15581:15608  nextSlot.addr == address(0) */\n      0xffffffffffffffffffffffffffffffffffffffff\n      and\n        /* \"Dcoffer/ERC721A/test.sol\":15581:15589  nextSlot */\n      dup2\n        /* \"Dcoffer/ERC721A/test.sol\":15581:15594  nextSlot.addr */\n      0x00\n      add\n      0x00\n      swap1\n      sload\n      swap1\n      0x0100\n      exp\n      swap1\n      div\n      0xffffffffffffffffffffffffffffffffffffffff\n      and\n        /* \"Dcoffer/ERC721A/test.sol\":15581:15608  nextSlot.addr == address(0) */\n      0xffffffffffffffffffffffffffffffffffffffff\n      and\n      sub\n        /* \"Dcoffer/ERC721A/test.sol\":15577:15961  if (nextSlot.addr == address(0)) {... */\n      tag_205\n      jumpi\n        /* \"Dcoffer/ERC721A/test.sol\":15791:15804  _currentIndex */\n      sload(0x02)\n        /* \"Dcoffer/ERC721A/test.sol\":15776:15787  nextTokenId */\n      dup3\n        /* \"Dcoffer/ERC721A/test.sol\":15776:15804  nextTokenId != _currentIndex */\n      eq\n        /* \"Dcoffer/ERC721A/test.sol\":15772:15946  if (nextTokenId != _currentIndex) {... */\n      tag_206\n      jumpi\n        /* \"Dcoffer/ERC721A/test.sol\":15845:15849  from */\n      dup8\n        /* \"Dcoffer/ERC721A/test.sol\":15829:15837  nextSlot */\n      dup2\n        /* \"Dcoffer/ERC721A/test.sol\":15829:15842  nextSlot.addr */\n      0x00\n      add\n      0x00\n        /* \"Dcoffer/ERC721A/test.sol\":15829:15849  nextSlot.addr = from */\n      0x0100\n      exp\n      dup2\n      sload\n      dup2\n      0xffffffffffffffffffffffffffffffffffffffff\n      mul\n      not\n      and\n      swap1\n      dup4\n      0xffffffffffffffffffffffffffffffffffffffff\n      and\n      mul\n      or\n      swap1\n      sstore\n      pop\n        /* \"Dcoffer/ERC721A/test.sol\":15898:15911  prevOwnership */\n      dup5\n        /* \"Dcoffer/ERC721A/test.sol\":15898:15926  prevOwnership.startTimestamp */\n      0x20\n      add\n      mload\n        /* \"Dcoffer/ERC721A/test.sol\":15872:15880  nextSlot */\n      dup2\n        /* \"Dcoffer/ERC721A/test.sol\":15872:15895  nextSlot.startTimestamp */\n      0x00\n      add\n      0x14\n        /* \"Dcoffer/ERC721A/test.sol\":15872:15926  nextSlot.startTimestamp = prevOwnership.startTimestamp */\n      0x0100\n      exp\n      dup2\n      sload\n      dup2\n      0xffffffffffffffff\n      mul\n      not\n      and\n      swap1\n      dup4\n      0xffffffffffffffff\n      and\n      mul\n      or\n      swap1\n      sstore\n      pop\n        /* \"Dcoffer/ERC721A/test.sol\":15772:15946  if (nextTokenId != _currentIndex) {... */\n    tag_206:\n        /* \"Dcoffer/ERC721A/test.sol\":15577:15961  if (nextSlot.addr == address(0)) {... */\n    tag_205:\n        /* \"Dcoffer/ERC721A/test.sol\":14936:15972  unchecked {... */\n      pop\n      pop\n      pop\n        /* \"Dcoffer/ERC721A/test.sol\":16008:16015  tokenId */\n      dup3\n        /* \"Dcoffer/ERC721A/test.sol\":16004:16006  to */\n      dup5\n        /* \"Dcoffer/ERC721A/test.sol\":15989:16016  Transfer(from, to, tokenId) */\n      0xffffffffffffffffffffffffffffffffffffffff\n      and\n        /* \"Dcoffer/ERC721A/test.sol\":15998:16002  from */\n      dup7\n        /* \"Dcoffer/ERC721A/test.sol\":15989:16016  Transfer(from, to, tokenId) */\n      0xffffffffffffffffffffffffffffffffffffffff\n      and\n      0xddf252ad1be2c89b69c2b068fc378daa952ba7f163c4a11628f55a4df523b3ef\n      mload(0x40)\n      mload(0x40)\n      dup1\n      swap2\n      sub\n      swap1\n      log4\n        /* \"Dcoffer/ERC721A/test.sol\":16027:16069  _afterTokenTransfers(from, to, tokenId, 1) */\n      tag_207\n        /* \"Dcoffer/ERC721A/test.sol\":16048:16052  from */\n      dup6\n        /* \"Dcoffer/ERC721A/test.sol\":16054:16056  to */\n      dup6\n        /* \"Dcoffer/ERC721A/test.sol\":16058:16065  tokenId */\n      dup6\n        /* \"Dcoffer/ERC721A/test.sol\":16067:16068  1 */\n      0x01\n        /* \"Dcoffer/ERC721A/test.sol\":16027:16047  _afterTokenTransfers */\n      tag_208\n        /* \"Dcoffer/ERC721A/test.sol\":16027:16069  _afterTokenTransfers(from, to, tokenId, 1) */\n      jump\t// in\n    tag_207:\n        /* \"Dcoffer/ERC721A/test.sol\":13987:16077  {... */\n      pop\n      pop\n        /* \"Dcoffer/ERC721A/test.sol\":13883:16077  function _transfer(... */\n      pop\n      pop\n      pop\n      jump\t// out\n        /* \"@openzeppelin/contracts/utils/math/SafeMath.sol\":3122:3218  function sub(uint256 a, uint256 b) internal pure returns (uint256) {... */\n    tag_132:\n        /* \"@openzeppelin/contracts/utils/math/SafeMath.sol\":3180:3187  uint256 */\n      0x00\n        /* \"@openzeppelin/contracts/utils/math/SafeMath.sol\":3210:3211  b */\n      dup2\n        /* \"@openzeppelin/contracts/utils/math/SafeMath.sol\":3206:3207  a */\n      dup4\n        /* \"@openzeppelin/contracts/utils/math/SafeMath.sol\":3206:3211  a - b */\n      tag_210\n      swap2\n      swap1\n      tag_211\n      jump\t// in\n    tag_210:\n        /* \"@openzeppelin/contracts/utils/math/SafeMath.sol\":3199:3211  return a - b */\n      swap1\n      pop\n        /* \"@openzeppelin/contracts/utils/math/SafeMath.sol\":3122:3218  function sub(uint256 a, uint256 b) internal pure returns (uint256) {... */\n      swap3\n      swap2\n      pop\n      pop\n      jump\t// out\n        /* \"@openzeppelin/contracts/utils/math/SafeMath.sol\":3465:3561  function mul(uint256 a, uint256 b) internal pure returns (uint256) {... */\n    tag_135:\n        /* \"@openzeppelin/contracts/utils/math/SafeMath.sol\":3523:3530  uint256 */\n      0x00\n        /* \"@openzeppelin/contracts/utils/math/SafeMath.sol\":3553:3554  b */\n      dup2\n        /* \"@openzeppelin/contracts/utils/math/SafeMath.sol\":3549:3550  a */\n      dup4\n        /* \"@openzeppelin/contracts/utils/math/SafeMath.sol\":3549:3554  a * b */\n      tag_213\n      swap2\n      swap1\n      tag_214\n      jump\t// in\n    tag_213:\n        /* \"@openzeppelin/contracts/utils/math/SafeMath.sol\":3542:3554  return a * b */\n      swap1\n      pop\n        /* \"@openzeppelin/contracts/utils/math/SafeMath.sol\":3465:3561  function mul(uint256 a, uint256 b) internal pure returns (uint256) {... */\n      swap3\n      swap2\n      pop\n      pop\n      jump\t// out\n        /* \"@openzeppelin/contracts/utils/math/SafeMath.sol\":2755:2851  function add(uint256 a, uint256 b) internal pure returns (uint256) {... */\n    tag_137:\n        /* \"@openzeppelin/contracts/utils/math/SafeMath.sol\":2813:2820  uint256 */\n      0x00\n        /* \"@openzeppelin/contracts/utils/math/SafeMath.sol\":2843:2844  b */\n      dup2\n        /* \"@openzeppelin/contracts/utils/math/SafeMath.sol\":2839:2840  a */\n      dup4\n        /* \"@openzeppelin/contracts/utils/math/SafeMath.sol\":2839:2844  a + b */\n      tag_216\n      swap2\n      swap1\n      tag_217\n      jump\t// in\n    tag_216:\n        /* \"@openzeppelin/contracts/utils/math/SafeMath.sol\":2832:2844  return a + b */\n      swap1\n      pop\n        /* \"@openzeppelin/contracts/utils/math/SafeMath.sol\":2755:2851  function add(uint256 a, uint256 b) internal pure returns (uint256) {... */\n      swap3\n      swap2\n      pop\n      pop\n      jump\t// out\n        /* \"Dcoffer/ERC721A/test.sol\":6190:7301  function _ownershipOf(uint256 tokenId) internal view returns (TokenOwnership memory) {... */\n    tag_142:\n        /* \"Dcoffer/ERC721A/test.sol\":6252:6273  TokenOwnership memory */\n      tag_218\n      tag_219\n      jump\t// in\n    tag_218:\n        /* \"Dcoffer/ERC721A/test.sol\":6286:6298  uint256 curr */\n      0x00\n        /* \"Dcoffer/ERC721A/test.sol\":6301:6308  tokenId */\n      dup3\n        /* \"Dcoffer/ERC721A/test.sol\":6286:6308  uint256 curr = tokenId */\n      swap1\n      pop\n        /* \"Dcoffer/ERC721A/test.sol\":6369:6373  curr */\n      dup1\n        /* \"Dcoffer/ERC721A/test.sol\":6350:6365  _startTokenId() */\n      tag_221\n        /* \"Dcoffer/ERC721A/test.sol\":6350:6363  _startTokenId */\n      tag_126\n        /* \"Dcoffer/ERC721A/test.sol\":6350:6365  _startTokenId() */\n      jump\t// in\n    tag_221:\n        /* \"Dcoffer/ERC721A/test.sol\":6350:6373  _startTokenId() <= curr */\n      gt\n        /* \"Dcoffer/ERC721A/test.sol\":6346:7234  if (_startTokenId() <= curr) if (curr < _currentIndex) {... */\n      tag_222\n      jumpi\n        /* \"Dcoffer/ERC721A/test.sol\":6386:6399  _currentIndex */\n      sload(0x02)\n        /* \"Dcoffer/ERC721A/test.sol\":6379:6383  curr */\n      dup2\n        /* \"Dcoffer/ERC721A/test.sol\":6379:6399  curr < _currentIndex */\n      lt\n        /* \"Dcoffer/ERC721A/test.sol\":6375:7234  if (curr < _currentIndex) {... */\n      iszero\n      tag_223\n      jumpi\n        /* \"Dcoffer/ERC721A/test.sol\":6420:6451  TokenOwnership memory ownership */\n      0x00\n        /* \"Dcoffer/ERC721A/test.sol\":6454:6465  _ownerships */\n      0x07\n        /* \"Dcoffer/ERC721A/test.sol\":6454:6471  _ownerships[curr] */\n      0x00\n        /* \"Dcoffer/ERC721A/test.sol\":6466:6470  curr */\n      dup4\n        /* \"Dcoffer/ERC721A/test.sol\":6454:6471  _ownerships[curr] */\n      dup2\n      mstore\n      0x20\n      add\n      swap1\n      dup2\n      mstore\n      0x20\n      add\n      0x00\n      keccak256\n        /* \"Dcoffer/ERC721A/test.sol\":6420:6471  TokenOwnership memory ownership = _ownerships[curr] */\n      mload(0x40)\n      dup1\n      0x60\n      add\n      0x40\n      mstore\n      swap1\n      dup2\n      0x00\n      dup3\n      add\n      0x00\n      swap1\n      sload\n      swap1\n      0x0100\n      exp\n      swap1\n      div\n      0xffffffffffffffffffffffffffffffffffffffff\n      and\n      0xffffffffffffffffffffffffffffffffffffffff\n      and\n      0xffffffffffffffffffffffffffffffffffffffff\n      and\n      dup2\n      mstore\n      0x20\n      add\n      0x00\n      dup3\n      add\n      0x14\n      swap1\n      sload\n      swap1\n      0x0100\n      exp\n      swap1\n      div\n      0xffffffffffffffff\n      and\n      0xffffffffffffffff\n      and\n      0xffffffffffffffff\n      and\n      dup2\n      mstore\n      0x20\n      add\n      0x00\n      dup3\n      add\n      0x1c\n      swap1\n      sload\n      swap1\n      0x0100\n      exp\n      swap1\n      div\n      0xff\n      and\n      iszero\n      iszero\n      iszero\n      iszero\n      dup2\n      mstore\n      pop\n      pop\n      swap1\n      pop\n        /* \"Dcoffer/ERC721A/test.sol\":6495:6504  ownership */\n      dup1\n        /* \"Dcoffer/ERC721A/test.sol\":6495:6511  ownership.burned */\n      0x40\n      add\n      mload\n        /* \"Dcoffer/ERC721A/test.sol\":6490:7219  if (!ownership.burned) {... */\n      tag_224\n      jumpi\n        /* \"Dcoffer/ERC721A/test.sol\":6566:6567  0 */\n      0x00\n        /* \"Dcoffer/ERC721A/test.sol\":6540:6568  ownership.addr != address(0) */\n      0xffffffffffffffffffffffffffffffffffffffff\n      and\n        /* \"Dcoffer/ERC721A/test.sol\":6540:6549  ownership */\n      dup2\n        /* \"Dcoffer/ERC721A/test.sol\":6540:6554  ownership.addr */\n      0x00\n      add\n      mload\n        /* \"Dcoffer/ERC721A/test.sol\":6540:6568  ownership.addr != address(0) */\n      0xffffffffffffffffffffffffffffffffffffffff\n      and\n      eq\n        /* \"Dcoffer/ERC721A/test.sol\":6536:6637  if (ownership.addr != address(0)) {... */\n      tag_225\n      jumpi\n        /* \"Dcoffer/ERC721A/test.sol\":6604:6613  ownership */\n      dup1\n        /* \"Dcoffer/ERC721A/test.sol\":6597:6613  return ownership */\n      swap3\n      pop\n      pop\n      pop\n      jump(tag_220)\n        /* \"Dcoffer/ERC721A/test.sol\":6536:6637  if (ownership.addr != address(0)) {... */\n    tag_225:\n        /* \"Dcoffer/ERC721A/test.sol\":6939:7200  while (true) {... */\n    tag_226:\n        /* \"Dcoffer/ERC721A/test.sol\":6946:6950  true */\n      0x01\n        /* \"Dcoffer/ERC721A/test.sol\":6939:7200  while (true) {... */\n      iszero\n      tag_227\n      jumpi\n        /* \"Dcoffer/ERC721A/test.sol\":6979:6985  curr-- */\n      dup2\n      dup1\n      0x01\n      swap1\n      sub\n      swap3\n      pop\n      pop\n        /* \"Dcoffer/ERC721A/test.sol\":7024:7035  _ownerships */\n      0x07\n        /* \"Dcoffer/ERC721A/test.sol\":7024:7041  _ownerships[curr] */\n      0x00\n        /* \"Dcoffer/ERC721A/test.sol\":7036:7040  curr */\n      dup4\n        /* \"Dcoffer/ERC721A/test.sol\":7024:7041  _ownerships[curr] */\n      dup2\n      mstore\n      0x20\n      add\n      swap1\n      dup2\n      mstore\n      0x20\n      add\n      0x00\n      keccak256\n        /* \"Dcoffer/ERC721A/test.sol\":7012:7041  ownership = _ownerships[curr] */\n      mload(0x40)\n      dup1\n      0x60\n      add\n      0x40\n      mstore\n      swap1\n      dup2\n      0x00\n      dup3\n      add\n      0x00\n      swap1\n      sload\n      swap1\n      0x0100\n      exp\n      swap1\n      div\n      0xffffffffffffffffffffffffffffffffffffffff\n      and\n      0xffffffffffffffffffffffffffffffffffffffff\n      and\n      0xffffffffffffffffffffffffffffffffffffffff\n      and\n      dup2\n      mstore\n      0x20\n      add\n      0x00\n      dup3\n      add\n      0x14\n      swap1\n      sload\n      swap1\n      0x0100\n      exp\n      swap1\n      div\n      0xffffffffffffffff\n      and\n      0xffffffffffffffff\n      and\n      0xffffffffffffffff\n      and\n      dup2\n      mstore\n      0x20\n      add\n      0x00\n      dup3\n      add\n      0x1c\n      swap1\n      sload\n      swap1\n      0x0100\n      exp\n      swap1\n      div\n      0xff\n      and\n      iszero\n      iszero\n      iszero\n      iszero\n      dup2\n      mstore\n      pop\n      pop\n      swap1\n      pop\n        /* \"Dcoffer/ERC721A/test.sol\":7098:7099  0 */\n      0x00\n        /* \"Dcoffer/ERC721A/test.sol\":7072:7100  ownership.addr != address(0) */\n      0xffffffffffffffffffffffffffffffffffffffff\n      and\n        /* \"Dcoffer/ERC721A/test.sol\":7072:7081  ownership */\n      dup2\n        /* \"Dcoffer/ERC721A/test.sol\":7072:7086  ownership.addr */\n      0x00\n      add\n      mload\n        /* \"Dcoffer/ERC721A/test.sol\":7072:7100  ownership.addr != address(0) */\n      0xffffffffffffffffffffffffffffffffffffffff\n      and\n      eq\n        /* \"Dcoffer/ERC721A/test.sol\":7068:7177  if (ownership.addr != address(0)) {... */\n      tag_228\n      jumpi\n        /* \"Dcoffer/ERC721A/test.sol\":7140:7149  ownership */\n      dup1\n        /* \"Dcoffer/ERC721A/test.sol\":7133:7149  return ownership */\n      swap3\n      pop\n      pop\n      pop\n      jump(tag_220)\n        /* \"Dcoffer/ERC721A/test.sol\":7068:7177  if (ownership.addr != address(0)) {... */\n    tag_228:\n        /* \"Dcoffer/ERC721A/test.sol\":6939:7200  while (true) {... */\n      jump(tag_226)\n    tag_227:\n        /* \"Dcoffer/ERC721A/test.sol\":6490:7219  if (!ownership.burned) {... */\n    tag_224:\n        /* \"Dcoffer/ERC721A/test.sol\":6401:7234  {... */\n      pop\n        /* \"Dcoffer/ERC721A/test.sol\":6375:7234  if (curr < _currentIndex) {... */\n    tag_223:\n        /* \"Dcoffer/ERC721A/test.sol\":6346:7234  if (_startTokenId() <= curr) if (curr < _currentIndex) {... */\n    tag_222:\n        /* \"Dcoffer/ERC721A/test.sol\":7262:7293  OwnerQueryForNonexistentToken() */\n      mload(0x40)\n      0xdf2d9b4200000000000000000000000000000000000000000000000000000000\n      dup2\n      mstore\n      0x04\n      add\n      mload(0x40)\n      dup1\n      swap2\n      sub\n      swap1\n      revert\n        /* \"Dcoffer/ERC721A/test.sol\":6190:7301  function _ownershipOf(uint256 tokenId) internal view returns (TokenOwnership memory) {... */\n    tag_220:\n      swap2\n      swap1\n      pop\n      jump\t// out\n        /* \"@openzeppelin/contracts/utils/Address.sol\":1175:1495  function isContract(address account) internal view returns (bool) {... */\n    tag_160:\n        /* \"@openzeppelin/contracts/utils/Address.sol\":1235:1239  bool */\n      0x00\n        /* \"@openzeppelin/contracts/utils/Address.sol\":1487:1488  0 */\n      dup1\n        /* \"@openzeppelin/contracts/utils/Address.sol\":1465:1472  account */\n      dup3\n        /* \"@openzeppelin/contracts/utils/Address.sol\":1465:1484  account.code.length */\n      0xffffffffffffffffffffffffffffffffffffffff\n      and\n      extcodesize\n        /* \"@openzeppelin/contracts/utils/Address.sol\":1465:1488  account.code.length > 0 */\n      gt\n        /* \"@openzeppelin/contracts/utils/Address.sol\":1458:1488  return account.code.length > 0 */\n      swap1\n      pop\n        /* \"@openzeppelin/contracts/utils/Address.sol\":1175:1495  function isContract(address account) internal view returns (bool) {... */\n      swap2\n      swap1\n      pop\n      jump\t// out\n        /* \"Dcoffer/ERC721A/test.sol\":19726:20393  function _checkContractOnERC721Received(... */\n    tag_163:\n        /* \"Dcoffer/ERC721A/test.sol\":19889:19893  bool */\n      0x00\n        /* \"Dcoffer/ERC721A/test.sol\":19926:19928  to */\n      dup4\n        /* \"Dcoffer/ERC721A/test.sol\":19910:19946  IERC721Receiver(to).onERC721Received */\n      0xffffffffffffffffffffffffffffffffffffffff\n      and\n      0x150b7a02\n        /* \"Dcoffer/ERC721A/test.sol\":19947:19959  _msgSender() */\n      tag_231\n        /* \"Dcoffer/ERC721A/test.sol\":19947:19957  _msgSender */\n      tag_117\n        /* \"Dcoffer/ERC721A/test.sol\":19947:19959  _msgSender() */\n      jump\t// in\n    tag_231:\n        /* \"Dcoffer/ERC721A/test.sol\":19961:19965  from */\n      dup8\n        /* \"Dcoffer/ERC721A/test.sol\":19967:19974  tokenId */\n      dup7\n        /* \"Dcoffer/ERC721A/test.sol\":19976:19981  _data */\n      dup7\n        /* \"Dcoffer/ERC721A/test.sol\":19910:19982  IERC721Receiver(to).onERC721Received(_msgSender(), from, tokenId, _data) */\n      mload(0x40)\n      dup6\n      0xffffffff\n      and\n      0xe0\n      shl\n      dup2\n      mstore\n      0x04\n      add\n      tag_232\n      swap5\n      swap4\n      swap3\n      swap2\n      swap1\n      tag_233\n      jump\t// in\n    tag_232:\n      0x20\n      mload(0x40)\n      dup1\n      dup4\n      sub\n      dup2\n      0x00\n      dup8\n      gas\n      call\n      swap3\n      pop\n      pop\n      pop\n      dup1\n      iszero\n      tag_234\n      jumpi\n      pop\n      mload(0x40)\n      returndatasize\n      not(0x1f)\n      0x1f\n      dup3\n      add\n      and\n      dup3\n      add\n      dup1\n      0x40\n      mstore\n      pop\n      dup2\n      add\n      swap1\n      tag_235\n      swap2\n      swap1\n      tag_236\n      jump\t// in\n    tag_235:\n      0x01\n    tag_234:\n        /* \"Dcoffer/ERC721A/test.sol\":19906:20386  try IERC721Receiver(to).onERC721Received(_msgSender(), from, tokenId, _data) returns (bytes4 retval) {... */\n      tag_237\n      jumpi\n      returndatasize\n      dup1\n      0x00\n      dup2\n      eq\n      tag_242\n      jumpi\n      mload(0x40)\n      swap2\n      pop\n      and(add(returndatasize, 0x3f), not(0x1f))\n      dup3\n      add\n      0x40\n      mstore\n      returndatasize\n      dup3\n      mstore\n      returndatasize\n      0x00\n      0x20\n      dup5\n      add\n      returndatacopy\n      jump(tag_241)\n    tag_242:\n      0x60\n      swap2\n      pop\n    tag_241:\n      pop\n        /* \"Dcoffer/ERC721A/test.sol\":20161:20162  0 */\n      0x00\n        /* \"Dcoffer/ERC721A/test.sol\":20144:20150  reason */\n      dup2\n        /* \"Dcoffer/ERC721A/test.sol\":20144:20157  reason.length */\n      mload\n        /* \"Dcoffer/ERC721A/test.sol\":20144:20162  reason.length == 0 */\n      sub\n        /* \"Dcoffer/ERC721A/test.sol\":20140:20375  if (reason.length == 0) {... */\n      tag_243\n      jumpi\n        /* \"Dcoffer/ERC721A/test.sol\":20190:20230  TransferToNonERC721ReceiverImplementer() */\n      mload(0x40)\n      0xd1a57ed600000000000000000000000000000000000000000000000000000000\n      dup2\n      mstore\n      0x04\n      add\n      mload(0x40)\n      dup1\n      swap2\n      sub\n      swap1\n      revert\n        /* \"Dcoffer/ERC721A/test.sol\":20140:20375  if (reason.length == 0) {... */\n    tag_243:\n        /* \"Dcoffer/ERC721A/test.sol\":20333:20339  reason */\n      dup1\n        /* \"Dcoffer/ERC721A/test.sol\":20327:20340  mload(reason) */\n      mload\n        /* \"Dcoffer/ERC721A/test.sol\":20318:20324  reason */\n      dup2\n        /* \"Dcoffer/ERC721A/test.sol\":20314:20316  32 */\n      0x20\n        /* \"Dcoffer/ERC721A/test.sol\":20310:20325  add(32, reason) */\n      add\n        /* \"Dcoffer/ERC721A/test.sol\":20303:20341  revert(add(32, reason), mload(reason)) */\n      revert\n        /* \"Dcoffer/ERC721A/test.sol\":19906:20386  try IERC721Receiver(to).onERC721Received(_msgSender(), from, tokenId, _data) returns (bytes4 retval) {... */\n    tag_237:\n        /* \"Dcoffer/ERC721A/test.sol\":20039:20084  IERC721Receiver(to).onERC721Received.selector */\n      shl(0xe0, 0x150b7a02)\n        /* \"Dcoffer/ERC721A/test.sol\":20029:20084  retval == IERC721Receiver(to).onERC721Received.selector */\n      not(0xffffffffffffffffffffffffffffffffffffffffffffffffffffffff)\n      and\n        /* \"Dcoffer/ERC721A/test.sol\":20029:20035  retval */\n      dup2\n        /* \"Dcoffer/ERC721A/test.sol\":20029:20084  retval == IERC721Receiver(to).onERC721Received.selector */\n      not(0xffffffffffffffffffffffffffffffffffffffffffffffffffffffff)\n      and\n      eq\n        /* \"Dcoffer/ERC721A/test.sol\":20022:20084  return retval == IERC721Receiver(to).onERC721Received.selector */\n      swap2\n      pop\n      pop\n        /* \"Dcoffer/ERC721A/test.sol\":19726:20393  function _checkContractOnERC721Received(... */\n      swap5\n      swap4\n      pop\n      pop\n      pop\n      pop\n      jump\t// out\n        /* \"Dcoffer/ERC721A/test.sol\":8465:8650  function _baseURI() internal view virtual returns (string memory) {... */\n    tag_169:\n        /* \"Dcoffer/ERC721A/test.sol\":8516:8529  string memory */\n      0x60\n        /* \"Dcoffer/ERC721A/test.sol\":8542:8632  return 'https://gateway.pinata.cloud/ipfs/QmeyKnvXXMxAuWG5pt35Ez8QhJhR63RDVSwUfsjKayR42Z/' */\n      mload(0x40)\n      dup1\n      0x80\n      add\n      0x40\n      mstore\n      dup1\n      0x51\n      dup2\n      mstore\n      0x20\n      add\n      data_626642f6930f156f677ccaa99d1115840f2527d6f062eede1de4dda1bd081a2d\n      0x51\n      swap2\n      codecopy\n      swap1\n      pop\n        /* \"Dcoffer/ERC721A/test.sol\":8465:8650  function _baseURI() internal view virtual returns (string memory) {... */\n      swap1\n      jump\t// out\n        /* \"@openzeppelin/contracts/utils/Strings.sol\":392:1095  function toString(uint256 value) internal pure returns (string memory) {... */\n    tag_173:\n        /* \"@openzeppelin/contracts/utils/Strings.sol\":448:461  string memory */\n      0x60\n        /* \"@openzeppelin/contracts/utils/Strings.sol\":674:675  0 */\n      0x00\n        /* \"@openzeppelin/contracts/utils/Strings.sol\":665:670  value */\n      dup3\n        /* \"@openzeppelin/contracts/utils/Strings.sol\":665:675  value == 0 */\n      sub\n        /* \"@openzeppelin/contracts/utils/Strings.sol\":661:712  if (value == 0) {... */\n      tag_248\n      jumpi\n        /* \"@openzeppelin/contracts/utils/Strings.sol\":691:701  return \"0\" */\n      mload(0x40)\n      dup1\n      0x40\n      add\n      0x40\n      mstore\n      dup1\n      0x01\n      dup2\n      mstore\n      0x20\n      add\n      0x3000000000000000000000000000000000000000000000000000000000000000\n      dup2\n      mstore\n      pop\n      swap1\n      pop\n      jump(tag_247)\n        /* \"@openzeppelin/contracts/utils/Strings.sol\":661:712  if (value == 0) {... */\n    tag_248:\n        /* \"@openzeppelin/contracts/utils/Strings.sol\":721:733  uint256 temp */\n      0x00\n        /* \"@openzeppelin/contracts/utils/Strings.sol\":736:741  value */\n      dup3\n        /* \"@openzeppelin/contracts/utils/Strings.sol\":721:741  uint256 temp = value */\n      swap1\n      pop\n        /* \"@openzeppelin/contracts/utils/Strings.sol\":751:765  uint256 digits */\n      0x00\n        /* \"@openzeppelin/contracts/utils/Strings.sol\":775:850  while (temp != 0) {... */\n    tag_249:\n        /* \"@openzeppelin/contracts/utils/Strings.sol\":790:791  0 */\n      0x00\n        /* \"@openzeppelin/contracts/utils/Strings.sol\":782:786  temp */\n      dup3\n        /* \"@openzeppelin/contracts/utils/Strings.sol\":782:791  temp != 0 */\n      eq\n        /* \"@openzeppelin/contracts/utils/Strings.sol\":775:850  while (temp != 0) {... */\n      tag_250\n      jumpi\n        /* \"@openzeppelin/contracts/utils/Strings.sol\":807:815  digits++ */\n      dup1\n      dup1\n      tag_251\n      swap1\n      tag_252\n      jump\t// in\n    tag_251:\n      swap2\n      pop\n      pop\n        /* \"@openzeppelin/contracts/utils/Strings.sol\":837:839  10 */\n      0x0a\n        /* \"@openzeppelin/contracts/utils/Strings.sol\":829:839  temp /= 10 */\n      dup3\n      tag_253\n      swap2\n      swap1\n      tag_254\n      jump\t// in\n    tag_253:\n      swap2\n      pop\n        /* \"@openzeppelin/contracts/utils/Strings.sol\":775:850  while (temp != 0) {... */\n      jump(tag_249)\n    tag_250:\n        /* \"@openzeppelin/contracts/utils/Strings.sol\":859:878  bytes memory buffer */\n      0x00\n        /* \"@openzeppelin/contracts/utils/Strings.sol\":891:897  digits */\n      dup2\n        /* \"@openzeppelin/contracts/utils/Strings.sol\":881:898  new bytes(digits) */\n      0xffffffffffffffff\n      dup2\n      gt\n      iszero\n      tag_255\n      jumpi\n      tag_256\n      tag_257\n      jump\t// in\n    tag_256:\n    tag_255:\n      mload(0x40)\n      swap1\n      dup1\n      dup3\n      mstore\n      dup1\n      0x1f\n      add\n      not(0x1f)\n      and\n      0x20\n      add\n      dup3\n      add\n      0x40\n      mstore\n      dup1\n      iszero\n      tag_258\n      jumpi\n      dup2\n      0x20\n      add\n      0x01\n      dup3\n      mul\n      dup1\n      calldatasize\n      dup4\n      calldatacopy\n      dup1\n      dup3\n      add\n      swap2\n      pop\n      pop\n      swap1\n      pop\n    tag_258:\n      pop\n        /* \"@openzeppelin/contracts/utils/Strings.sol\":859:898  bytes memory buffer = new bytes(digits) */\n      swap1\n      pop\n        /* \"@openzeppelin/contracts/utils/Strings.sol\":908:1058  while (value != 0) {... */\n    tag_259:\n        /* \"@openzeppelin/contracts/utils/Strings.sol\":924:925  0 */\n      0x00\n        /* \"@openzeppelin/contracts/utils/Strings.sol\":915:920  value */\n      dup6\n        /* \"@openzeppelin/contracts/utils/Strings.sol\":915:925  value != 0 */\n      eq\n        /* \"@openzeppelin/contracts/utils/Strings.sol\":908:1058  while (value != 0) {... */\n      tag_260\n      jumpi\n        /* \"@openzeppelin/contracts/utils/Strings.sol\":951:952  1 */\n      0x01\n        /* \"@openzeppelin/contracts/utils/Strings.sol\":941:952  digits -= 1 */\n      dup3\n      tag_261\n      swap2\n      swap1\n      tag_211\n      jump\t// in\n    tag_261:\n      swap2\n      pop\n        /* \"@openzeppelin/contracts/utils/Strings.sol\":1017:1019  10 */\n      0x0a\n        /* \"@openzeppelin/contracts/utils/Strings.sol\":1009:1014  value */\n      dup6\n        /* \"@openzeppelin/contracts/utils/Strings.sol\":1009:1019  value % 10 */\n      tag_262\n      swap2\n      swap1\n      tag_263\n      jump\t// in\n    tag_262:\n        /* \"@openzeppelin/contracts/utils/Strings.sol\":996:998  48 */\n      0x30\n        /* \"@openzeppelin/contracts/utils/Strings.sol\":996:1020  48 + uint256(value % 10) */\n      tag_264\n      swap2\n      swap1\n      tag_217\n      jump\t// in\n    tag_264:\n        /* \"@openzeppelin/contracts/utils/Strings.sol\":983:1022  bytes1(uint8(48 + uint256(value % 10))) */\n      0xf8\n      shl\n        /* \"@openzeppelin/contracts/utils/Strings.sol\":966:972  buffer */\n      dup2\n        /* \"@openzeppelin/contracts/utils/Strings.sol\":973:979  digits */\n      dup4\n        /* \"@openzeppelin/contracts/utils/Strings.sol\":966:980  buffer[digits] */\n      dup2\n      mload\n      dup2\n      lt\n      tag_265\n      jumpi\n      tag_266\n      tag_267\n      jump\t// in\n    tag_266:\n    tag_265:\n      0x20\n      add\n      add\n        /* \"@openzeppelin/contracts/utils/Strings.sol\":966:1022  buffer[digits] = bytes1(uint8(48 + uint256(value % 10))) */\n      swap1\n      not(0xffffffffffffffffffffffffffffffffffffffffffffffffffffffffffffff)\n      and\n      swap1\n      dup2\n      0x00\n      byte\n      swap1\n      mstore8\n      pop\n        /* \"@openzeppelin/contracts/utils/Strings.sol\":1045:1047  10 */\n      0x0a\n        /* \"@openzeppelin/contracts/utils/Strings.sol\":1036:1047  value /= 10 */\n      dup6\n      tag_268\n      swap2\n      swap1\n      tag_254\n      jump\t// in\n    tag_268:\n      swap5\n      pop\n        /* \"@openzeppelin/contracts/utils/Strings.sol\":908:1058  while (value != 0) {... */\n      jump(tag_259)\n    tag_260:\n        /* \"@openzeppelin/contracts/utils/Strings.sol\":1081:1087  buffer */\n      dup1\n        /* \"@openzeppelin/contracts/utils/Strings.sol\":1067:1088  return string(buffer) */\n      swap4\n      pop\n      pop\n      pop\n      pop\n        /* \"@openzeppelin/contracts/utils/Strings.sol\":392:1095  function toString(uint256 value) internal pure returns (string memory) {... */\n    tag_247:\n      swap2\n      swap1\n      pop\n      jump\t// out\n        /* \"Dcoffer/ERC721A/test.sol\":2948:3157  function updateBlockScore(address user)private{... */\n    tag_189:\n        /* \"Dcoffer/ERC721A/test.sol\":3005:3025  uint256 accumulation */\n      0x00\n        /* \"Dcoffer/ERC721A/test.sol\":3028:3044  BlockScore(user) */\n      tag_270\n        /* \"Dcoffer/ERC721A/test.sol\":3039:3043  user */\n      dup3\n        /* \"Dcoffer/ERC721A/test.sol\":3028:3038  BlockScore */\n      tag_55\n        /* \"Dcoffer/ERC721A/test.sol\":3028:3044  BlockScore(user) */\n      jump\t// in\n    tag_270:\n        /* \"Dcoffer/ERC721A/test.sol\":3005:3044  uint256 accumulation = BlockScore(user) */\n      swap1\n      pop\n        /* \"Dcoffer/ERC721A/test.sol\":3084:3096  accumulation */\n      dup1\n        /* \"Dcoffer/ERC721A/test.sol\":3062:3073  _BlockScore */\n      0x0b\n        /* \"Dcoffer/ERC721A/test.sol\":3062:3079  _BlockScore[user] */\n      0x00\n        /* \"Dcoffer/ERC721A/test.sol\":3074:3078  user */\n      dup5\n        /* \"Dcoffer/ERC721A/test.sol\":3062:3079  _BlockScore[user] */\n      0xffffffffffffffffffffffffffffffffffffffff\n      and\n      0xffffffffffffffffffffffffffffffffffffffff\n      and\n      dup2\n      mstore\n      0x20\n      add\n      swap1\n      dup2\n      mstore\n      0x20\n      add\n      0x00\n      keccak256\n        /* \"Dcoffer/ERC721A/test.sol\":3062:3082  _BlockScore[user][2] */\n      0x00\n        /* \"Dcoffer/ERC721A/test.sol\":3080:3081  2 */\n      0x02\n        /* \"Dcoffer/ERC721A/test.sol\":3062:3082  _BlockScore[user][2] */\n      dup2\n      mstore\n      0x20\n      add\n      swap1\n      dup2\n      mstore\n      0x20\n      add\n      0x00\n      keccak256\n        /* \"Dcoffer/ERC721A/test.sol\":3062:3096  _BlockScore[user][2]= accumulation */\n      dup2\n      swap1\n      sstore\n      pop\n        /* \"Dcoffer/ERC721A/test.sol\":3137:3149  block.number */\n      number\n        /* \"Dcoffer/ERC721A/test.sol\":3114:3125  _BlockScore */\n      0x0b\n        /* \"Dcoffer/ERC721A/test.sol\":3114:3131  _BlockScore[user] */\n      0x00\n        /* \"Dcoffer/ERC721A/test.sol\":3126:3130  user */\n      dup5\n        /* \"Dcoffer/ERC721A/test.sol\":3114:3131  _BlockScore[user] */\n      0xffffffffffffffffffffffffffffffffffffffff\n      and\n      0xffffffffffffffffffffffffffffffffffffffff\n      and\n      dup2\n      mstore\n      0x20\n      add\n      swap1\n      dup2\n      mstore\n      0x20\n      add\n      0x00\n      keccak256\n        /* \"Dcoffer/ERC721A/test.sol\":3114:3134  _BlockScore[user][1] */\n      0x00\n        /* \"Dcoffer/ERC721A/test.sol\":3132:3133  1 */\n      0x01\n        /* \"Dcoffer/ERC721A/test.sol\":3114:3134  _BlockScore[user][1] */\n      dup2\n      mstore\n      0x20\n      add\n      swap1\n      dup2\n      mstore\n      0x20\n      add\n      0x00\n      keccak256\n        /* \"Dcoffer/ERC721A/test.sol\":3114:3149  _BlockScore[user][1] = block.number */\n      dup2\n      swap1\n      sstore\n      pop\n        /* \"Dcoffer/ERC721A/test.sol\":2994:3157  {... */\n      pop\n        /* \"Dcoffer/ERC721A/test.sol\":2948:3157  function updateBlockScore(address user)private{... */\n      pop\n      jump\t// out\n        /* \"Dcoffer/ERC721A/test.sol\":21041:21200  function _beforeTokenTransfers(... */\n    tag_203:\n      pop\n      pop\n      pop\n      pop\n      jump\t// out\n        /* \"Dcoffer/ERC721A/test.sol\":21859:22017  function _afterTokenTransfers(... */\n    tag_208:\n      pop\n      pop\n      pop\n      pop\n      jump\t// out\n    tag_219:\n      mload(0x40)\n      dup1\n      0x60\n      add\n      0x40\n      mstore\n      dup1\n      and(0xffffffffffffffffffffffffffffffffffffffff, 0x00)\n      dup2\n      mstore\n      0x20\n      add\n      and(0xffffffffffffffff, 0x00)\n      dup2\n      mstore\n      0x20\n      add\n      iszero(iszero(0x00))\n      dup2\n      mstore\n      pop\n      swap1\n      jump\t// out\n        /* \"#utility.yul\":7:82   */\n    tag_273:\n        /* \"#utility.yul\":40:46   */\n      0x00\n        /* \"#utility.yul\":73:75   */\n      0x40\n        /* \"#utility.yul\":67:76   */\n      mload\n        /* \"#utility.yul\":57:76   */\n      swap1\n      pop\n        /* \"#utility.yul\":7:82   */\n      swap1\n      jump\t// out\n        /* \"#utility.yul\":88:205   */\n    tag_274:\n        /* \"#utility.yul\":197:198   */\n      0x00\n        /* \"#utility.yul\":194:195   */\n      dup1\n        /* \"#utility.yul\":187:199   */\n      revert\n        /* \"#utility.yul\":211:328   */\n    tag_275:\n        /* \"#utility.yul\":320:321   */\n      0x00\n        /* \"#utility.yul\":317:318   */\n      dup1\n        /* \"#utility.yul\":310:322   */\n      revert\n        /* \"#utility.yul\":334:483   */\n    tag_276:\n        /* \"#utility.yul\":370:377   */\n      0x00\n        /* \"#utility.yul\":410:476   */\n      0xffffffff00000000000000000000000000000000000000000000000000000000\n        /* \"#utility.yul\":403:408   */\n      dup3\n        /* \"#utility.yul\":399:477   */\n      and\n        /* \"#utility.yul\":388:477   */\n      swap1\n      pop\n        /* \"#utility.yul\":334:483   */\n      swap2\n      swap1\n      pop\n      jump\t// out\n        /* \"#utility.yul\":489:609   */\n    tag_277:\n        /* \"#utility.yul\":561:584   */\n      tag_320\n        /* \"#utility.yul\":578:583   */\n      dup2\n        /* \"#utility.yul\":561:584   */\n      tag_276\n      jump\t// in\n    tag_320:\n        /* \"#utility.yul\":554:559   */\n      dup2\n        /* \"#utility.yul\":551:585   */\n      eq\n        /* \"#utility.yul\":541:603   */\n      tag_321\n      jumpi\n        /* \"#utility.yul\":599:600   */\n      0x00\n        /* \"#utility.yul\":596:597   */\n      dup1\n        /* \"#utility.yul\":589:601   */\n      revert\n        /* \"#utility.yul\":541:603   */\n    tag_321:\n        /* \"#utility.yul\":489:609   */\n      pop\n      jump\t// out\n        /* \"#utility.yul\":615:752   */\n    tag_278:\n        /* \"#utility.yul\":660:665   */\n      0x00\n        /* \"#utility.yul\":698:704   */\n      dup2\n        /* \"#utility.yul\":685:705   */\n      calldataload\n        /* \"#utility.yul\":676:705   */\n      swap1\n      pop\n        /* \"#utility.yul\":714:746   */\n      tag_323\n        /* \"#utility.yul\":740:745   */\n      dup2\n        /* \"#utility.yul\":714:746   */\n      tag_277\n      jump\t// in\n    tag_323:\n        /* \"#utility.yul\":615:752   */\n      swap3\n      swap2\n      pop\n      pop\n      jump\t// out\n        /* \"#utility.yul\":758:1085   */\n    tag_26:\n        /* \"#utility.yul\":816:822   */\n      0x00\n        /* \"#utility.yul\":865:867   */\n      0x20\n        /* \"#utility.yul\":853:862   */\n      dup3\n        /* \"#utility.yul\":844:851   */\n      dup5\n        /* \"#utility.yul\":840:863   */\n      sub\n        /* \"#utility.yul\":836:868   */\n      slt\n        /* \"#utility.yul\":833:952   */\n      iszero\n      tag_325\n      jumpi\n        /* \"#utility.yul\":871:950   */\n      tag_326\n      tag_274\n      jump\t// in\n    tag_326:\n        /* \"#utility.yul\":833:952   */\n    tag_325:\n        /* \"#utility.yul\":991:992   */\n      0x00\n        /* \"#utility.yul\":1016:1068   */\n      tag_327\n        /* \"#utility.yul\":1060:1067   */\n      dup5\n        /* \"#utility.yul\":1051:1057   */\n      dup3\n        /* \"#utility.yul\":1040:1049   */\n      dup6\n        /* \"#utility.yul\":1036:1058   */\n      add\n        /* \"#utility.yul\":1016:1068   */\n      tag_278\n      jump\t// in\n    tag_327:\n        /* \"#utility.yul\":1006:1068   */\n      swap2\n      pop\n        /* \"#utility.yul\":962:1078   */\n      pop\n        /* \"#utility.yul\":758:1085   */\n      swap3\n      swap2\n      pop\n      pop\n      jump\t// out\n        /* \"#utility.yul\":1091:1181   */\n    tag_279:\n        /* \"#utility.yul\":1125:1132   */\n      0x00\n        /* \"#utility.yul\":1168:1173   */\n      dup2\n        /* \"#utility.yul\":1161:1174   */\n      iszero\n        /* \"#utility.yul\":1154:1175   */\n      iszero\n        /* \"#utility.yul\":1143:1175   */\n      swap1\n      pop\n        /* \"#utility.yul\":1091:1181   */\n      swap2\n      swap1\n      pop\n      jump\t// out\n        /* \"#utility.yul\":1187:1296   */\n    tag_280:\n        /* \"#utility.yul\":1268:1289   */\n      tag_330\n        /* \"#utility.yul\":1283:1288   */\n      dup2\n        /* \"#utility.yul\":1268:1289   */\n      tag_279\n      jump\t// in\n    tag_330:\n        /* \"#utility.yul\":1263:1266   */\n      dup3\n        /* \"#utility.yul\":1256:1290   */\n      mstore\n        /* \"#utility.yul\":1187:1296   */\n      pop\n      pop\n      jump\t// out\n        /* \"#utility.yul\":1302:1512   */\n    tag_29:\n        /* \"#utility.yul\":1389:1393   */\n      0x00\n        /* \"#utility.yul\":1427:1429   */\n      0x20\n        /* \"#utility.yul\":1416:1425   */\n      dup3\n        /* \"#utility.yul\":1412:1430   */\n      add\n        /* \"#utility.yul\":1404:1430   */\n      swap1\n      pop\n        /* \"#utility.yul\":1440:1505   */\n      tag_332\n        /* \"#utility.yul\":1502:1503   */\n      0x00\n        /* \"#utility.yul\":1491:1500   */\n      dup4\n        /* \"#utility.yul\":1487:1504   */\n      add\n        /* \"#utility.yul\":1478:1484   */\n      dup5\n        /* \"#utility.yul\":1440:1505   */\n      tag_280\n      jump\t// in\n    tag_332:\n        /* \"#utility.yul\":1302:1512   */\n      swap3\n      swap2\n      pop\n      pop\n      jump\t// out\n        /* \"#utility.yul\":1518:1617   */\n    tag_281:\n        /* \"#utility.yul\":1570:1576   */\n      0x00\n        /* \"#utility.yul\":1604:1609   */\n      dup2\n        /* \"#utility.yul\":1598:1610   */\n      mload\n        /* \"#utility.yul\":1588:1610   */\n      swap1\n      pop\n        /* \"#utility.yul\":1518:1617   */\n      swap2\n      swap1\n      pop\n      jump\t// out\n        /* \"#utility.yul\":1623:1792   */\n    tag_282:\n        /* \"#utility.yul\":1707:1718   */\n      0x00\n        /* \"#utility.yul\":1741:1747   */\n      dup3\n        /* \"#utility.yul\":1736:1739   */\n      dup3\n        /* \"#utility.yul\":1729:1748   */\n      mstore\n        /* \"#utility.yul\":1781:1785   */\n      0x20\n        /* \"#utility.yul\":1776:1779   */\n      dup3\n        /* \"#utility.yul\":1772:1786   */\n      add\n        /* \"#utility.yul\":1757:1786   */\n      swap1\n      pop\n        /* \"#utility.yul\":1623:1792   */\n      swap3\n      swap2\n      pop\n      pop\n      jump\t// out\n        /* \"#utility.yul\":1798:2044   */\n    tag_283:\n        /* \"#utility.yul\":1879:1880   */\n      0x00\n        /* \"#utility.yul\":1889:2002   */\n    tag_336:\n        /* \"#utility.yul\":1903:1909   */\n      dup4\n        /* \"#utility.yul\":1900:1901   */\n      dup2\n        /* \"#utility.yul\":1897:1910   */\n      lt\n        /* \"#utility.yul\":1889:2002   */\n      iszero\n      tag_338\n      jumpi\n        /* \"#utility.yul\":1988:1989   */\n      dup1\n        /* \"#utility.yul\":1983:1986   */\n      dup3\n        /* \"#utility.yul\":1979:1990   */\n      add\n        /* \"#utility.yul\":1973:1991   */\n      mload\n        /* \"#utility.yul\":1969:1970   */\n      dup2\n        /* \"#utility.yul\":1964:1967   */\n      dup5\n        /* \"#utility.yul\":1960:1971   */\n      add\n        /* \"#utility.yul\":1953:1992   */\n      mstore\n        /* \"#utility.yul\":1925:1927   */\n      0x20\n        /* \"#utility.yul\":1922:1923   */\n      dup2\n        /* \"#utility.yul\":1918:1928   */\n      add\n        /* \"#utility.yul\":1913:1928   */\n      swap1\n      pop\n        /* \"#utility.yul\":1889:2002   */\n      jump(tag_336)\n    tag_338:\n        /* \"#utility.yul\":2036:2037   */\n      0x00\n        /* \"#utility.yul\":2027:2033   */\n      dup5\n        /* \"#utility.yul\":2022:2025   */\n      dup5\n        /* \"#utility.yul\":2018:2034   */\n      add\n        /* \"#utility.yul\":2011:2038   */\n      mstore\n        /* \"#utility.yul\":1860:2044   */\n      pop\n        /* \"#utility.yul\":1798:2044   */\n      pop\n      pop\n      pop\n      jump\t// out\n        /* \"#utility.yul\":2050:2152   */\n    tag_284:\n        /* \"#utility.yul\":2091:2097   */\n      0x00\n        /* \"#utility.yul\":2142:2144   */\n      0x1f\n        /* \"#utility.yul\":2138:2145   */\n      not\n        /* \"#utility.yul\":2133:2135   */\n      0x1f\n        /* \"#utility.yul\":2126:2131   */\n      dup4\n        /* \"#utility.yul\":2122:2136   */\n      add\n        /* \"#utility.yul\":2118:2146   */\n      and\n        /* \"#utility.yul\":2108:2146   */\n      swap1\n      pop\n        /* \"#utility.yul\":2050:2152   */\n      swap2\n      swap1\n      pop\n      jump\t// out\n        /* \"#utility.yul\":2158:2535   */\n    tag_285:\n        /* \"#utility.yul\":2246:2249   */\n      0x00\n        /* \"#utility.yul\":2274:2313   */\n      tag_341\n        /* \"#utility.yul\":2307:2312   */\n      dup3\n        /* \"#utility.yul\":2274:2313   */\n      tag_281\n      jump\t// in\n    tag_341:\n        /* \"#utility.yul\":2329:2400   */\n      tag_342\n        /* \"#utility.yul\":2393:2399   */\n      dup2\n        /* \"#utility.yul\":2388:2391   */\n      dup6\n        /* \"#utility.yul\":2329:2400   */\n      tag_282\n      jump\t// in\n    tag_342:\n        /* \"#utility.yul\":2322:2400   */\n      swap4\n      pop\n        /* \"#utility.yul\":2409:2474   */\n      tag_343\n        /* \"#utility.yul\":2467:2473   */\n      dup2\n        /* \"#utility.yul\":2462:2465   */\n      dup6\n        /* \"#utility.yul\":2455:2459   */\n      0x20\n        /* \"#utility.yul\":2448:2453   */\n      dup7\n        /* \"#utility.yul\":2444:2460   */\n      add\n        /* \"#utility.yul\":2409:2474   */\n      tag_283\n      jump\t// in\n    tag_343:\n        /* \"#utility.yul\":2499:2528   */\n      tag_344\n        /* \"#utility.yul\":2521:2527   */\n      dup2\n        /* \"#utility.yul\":2499:2528   */\n      tag_284\n      jump\t// in\n    tag_344:\n        /* \"#utility.yul\":2494:2497   */\n      dup5\n        /* \"#utility.yul\":2490:2529   */\n      add\n        /* \"#utility.yul\":2483:2529   */\n      swap2\n      pop\n        /* \"#utility.yul\":2250:2535   */\n      pop\n        /* \"#utility.yul\":2158:2535   */\n      swap3\n      swap2\n      pop\n      pop\n      jump\t// out\n        /* \"#utility.yul\":2541:2854   */\n    tag_33:\n        /* \"#utility.yul\":2654:2658   */\n      0x00\n        /* \"#utility.yul\":2692:2694   */\n      0x20\n        /* \"#utility.yul\":2681:2690   */\n      dup3\n        /* \"#utility.yul\":2677:2695   */\n      add\n        /* \"#utility.yul\":2669:2695   */\n      swap1\n      pop\n        /* \"#utility.yul\":2741:2750   */\n      dup2\n        /* \"#utility.yul\":2735:2739   */\n      dup2\n        /* \"#utility.yul\":2731:2751   */\n      sub\n        /* \"#utility.yul\":2727:2728   */\n      0x00\n        /* \"#utility.yul\":2716:2725   */\n      dup4\n        /* \"#utility.yul\":2712:2729   */\n      add\n        /* \"#utility.yul\":2705:2752   */\n      mstore\n        /* \"#utility.yul\":2769:2847   */\n      tag_346\n        /* \"#utility.yul\":2842:2846   */\n      dup2\n        /* \"#utility.yul\":2833:2839   */\n      dup5\n        /* \"#utility.yul\":2769:2847   */\n      tag_285\n      jump\t// in\n    tag_346:\n        /* \"#utility.yul\":2761:2847   */\n      swap1\n      pop\n        /* \"#utility.yul\":2541:2854   */\n      swap3\n      swap2\n      pop\n      pop\n      jump\t// out\n        /* \"#utility.yul\":2860:2937   */\n    tag_286:\n        /* \"#utility.yul\":2897:2904   */\n      0x00\n        /* \"#utility.yul\":2926:2931   */\n      dup2\n        /* \"#utility.yul\":2915:2931   */\n      swap1\n      pop\n        /* \"#utility.yul\":2860:2937   */\n      swap2\n      swap1\n      pop\n      jump\t// out\n        /* \"#utility.yul\":2943:3065   */\n    tag_287:\n        /* \"#utility.yul\":3016:3040   */\n      tag_349\n        /* \"#utility.yul\":3034:3039   */\n      dup2\n        /* \"#utility.yul\":3016:3040   */\n      tag_286\n      jump\t// in\n    tag_349:\n        /* \"#utility.yul\":3009:3014   */\n      dup2\n        /* \"#utility.yul\":3006:3041   */\n      eq\n        /* \"#utility.yul\":2996:3059   */\n      tag_350\n      jumpi\n        /* \"#utility.yul\":3055:3056   */\n      0x00\n        /* \"#utility.yul\":3052:3053   */\n      dup1\n        /* \"#utility.yul\":3045:3057   */\n      revert\n        /* \"#utility.yul\":2996:3059   */\n    tag_350:\n        /* \"#utility.yul\":2943:3065   */\n      pop\n      jump\t// out\n        /* \"#utility.yul\":3071:3210   */\n    tag_288:\n        /* \"#utility.yul\":3117:3122   */\n      0x00\n        /* \"#utility.yul\":3155:3161   */\n      dup2\n        /* \"#utility.yul\":3142:3162   */\n      calldataload\n        /* \"#utility.yul\":3133:3162   */\n      swap1\n      pop\n        /* \"#utility.yul\":3171:3204   */\n      tag_352\n        /* \"#utility.yul\":3198:3203   */\n      dup2\n        /* \"#utility.yul\":3171:3204   */\n      tag_287\n      jump\t// in\n    tag_352:\n        /* \"#utility.yul\":3071:3210   */\n      swap3\n      swap2\n      pop\n      pop\n      jump\t// out\n        /* \"#utility.yul\":3216:3545   */\n    tag_36:\n        /* \"#utility.yul\":3275:3281   */\n      0x00\n        /* \"#utility.yul\":3324:3326   */\n      0x20\n        /* \"#utility.yul\":3312:3321   */\n      dup3\n        /* \"#utility.yul\":3303:3310   */\n      dup5\n        /* \"#utility.yul\":3299:3322   */\n      sub\n        /* \"#utility.yul\":3295:3327   */\n      slt\n        /* \"#utility.yul\":3292:3411   */\n      iszero\n      tag_354\n      jumpi\n        /* \"#utility.yul\":3330:3409   */\n      tag_355\n      tag_274\n      jump\t// in\n    tag_355:\n        /* \"#utility.yul\":3292:3411   */\n    tag_354:\n        /* \"#utility.yul\":3450:3451   */\n      0x00\n        /* \"#utility.yul\":3475:3528   */\n      tag_356\n        /* \"#utility.yul\":3520:3527   */\n      dup5\n        /* \"#utility.yul\":3511:3517   */\n      dup3\n        /* \"#utility.yul\":3500:3509   */\n      dup6\n        /* \"#utility.yul\":3496:3518   */\n      add\n        /* \"#utility.yul\":3475:3528   */\n      tag_288\n      jump\t// in\n    tag_356:\n        /* \"#utility.yul\":3465:3528   */\n      swap2\n      pop\n        /* \"#utility.yul\":3421:3538   */\n      pop\n        /* \"#utility.yul\":3216:3545   */\n      swap3\n      swap2\n      pop\n      pop\n      jump\t// out\n        /* \"#utility.yul\":3551:3677   */\n    tag_289:\n        /* \"#utility.yul\":3588:3595   */\n      0x00\n        /* \"#utility.yul\":3628:3670   */\n      0xffffffffffffffffffffffffffffffffffffffff\n        /* \"#utility.yul\":3621:3626   */\n      dup3\n        /* \"#utility.yul\":3617:3671   */\n      and\n        /* \"#utility.yul\":3606:3671   */\n      swap1\n      pop\n        /* \"#utility.yul\":3551:3677   */\n      swap2\n      swap1\n      pop\n      jump\t// out\n        /* \"#utility.yul\":3683:3779   */\n    tag_290:\n        /* \"#utility.yul\":3720:3727   */\n      0x00\n        /* \"#utility.yul\":3749:3773   */\n      tag_359\n        /* \"#utility.yul\":3767:3772   */\n      dup3\n        /* \"#utility.yul\":3749:3773   */\n      tag_289\n      jump\t// in\n    tag_359:\n        /* \"#utility.yul\":3738:3773   */\n      swap1\n      pop\n        /* \"#utility.yul\":3683:3779   */\n      swap2\n      swap1\n      pop\n      jump\t// out\n        /* \"#utility.yul\":3785:3903   */\n    tag_291:\n        /* \"#utility.yul\":3872:3896   */\n      tag_361\n        /* \"#utility.yul\":3890:3895   */\n      dup2\n        /* \"#utility.yul\":3872:3896   */\n      tag_290\n      jump\t// in\n    tag_361:\n        /* \"#utility.yul\":3867:3870   */\n      dup3\n        /* \"#utility.yul\":3860:3897   */\n      mstore\n        /* \"#utility.yul\":3785:3903   */\n      pop\n      pop\n      jump\t// out\n        /* \"#utility.yul\":3909:4131   */\n    tag_39:\n        /* \"#utility.yul\":4002:4006   */\n      0x00\n        /* \"#utility.yul\":4040:4042   */\n      0x20\n        /* \"#utility.yul\":4029:4038   */\n      dup3\n        /* \"#utility.yul\":4025:4043   */\n      add\n        /* \"#utility.yul\":4017:4043   */\n      swap1\n      pop\n        /* \"#utility.yul\":4053:4124   */\n      tag_363\n        /* \"#utility.yul\":4121:4122   */\n      0x00\n        /* \"#utility.yul\":4110:4119   */\n      dup4\n        /* \"#utility.yul\":4106:4123   */\n      add\n        /* \"#utility.yul\":4097:4103   */\n      dup5\n        /* \"#utility.yul\":4053:4124   */\n      tag_291\n      jump\t// in\n    tag_363:\n        /* \"#utility.yul\":3909:4131   */\n      swap3\n      swap2\n      pop\n      pop\n      jump\t// out\n        /* \"#utility.yul\":4137:4259   */\n    tag_292:\n        /* \"#utility.yul\":4210:4234   */\n      tag_365\n        /* \"#utility.yul\":4228:4233   */\n      dup2\n        /* \"#utility.yul\":4210:4234   */\n      tag_290\n      jump\t// in\n    tag_365:\n        /* \"#utility.yul\":4203:4208   */\n      dup2\n        /* \"#utility.yul\":4200:4235   */\n      eq\n        /* \"#utility.yul\":4190:4253   */\n      tag_366\n      jumpi\n        /* \"#utility.yul\":4249:4250   */\n      0x00\n        /* \"#utility.yul\":4246:4247   */\n      dup1\n        /* \"#utility.yul\":4239:4251   */\n      revert\n        /* \"#utility.yul\":4190:4253   */\n    tag_366:\n        /* \"#utility.yul\":4137:4259   */\n      pop\n      jump\t// out\n        /* \"#utility.yul\":4265:4404   */\n    tag_293:\n        /* \"#utility.yul\":4311:4316   */\n      0x00\n        /* \"#utility.yul\":4349:4355   */\n      dup2\n        /* \"#utility.yul\":4336:4356   */\n      calldataload\n        /* \"#utility.yul\":4327:4356   */\n      swap1\n      pop\n        /* \"#utility.yul\":4365:4398   */\n      tag_368\n        /* \"#utility.yul\":4392:4397   */\n      dup2\n        /* \"#utility.yul\":4365:4398   */\n      tag_292\n      jump\t// in\n    tag_368:\n        /* \"#utility.yul\":4265:4404   */\n      swap3\n      swap2\n      pop\n      pop\n      jump\t// out\n        /* \"#utility.yul\":4410:4884   */\n    tag_42:\n        /* \"#utility.yul\":4478:4484   */\n      0x00\n        /* \"#utility.yul\":4486:4492   */\n      dup1\n        /* \"#utility.yul\":4535:4537   */\n      0x40\n        /* \"#utility.yul\":4523:4532   */\n      dup4\n        /* \"#utility.yul\":4514:4521   */\n      dup6\n        /* \"#utility.yul\":4510:4533   */\n      sub\n        /* \"#utility.yul\":4506:4538   */\n      slt\n        /* \"#utility.yul\":4503:4622   */\n      iszero\n      tag_370\n      jumpi\n        /* \"#utility.yul\":4541:4620   */\n      tag_371\n      tag_274\n      jump\t// in\n    tag_371:\n        /* \"#utility.yul\":4503:4622   */\n    tag_370:\n        /* \"#utility.yul\":4661:4662   */\n      0x00\n        /* \"#utility.yul\":4686:4739   */\n      tag_372\n        /* \"#utility.yul\":4731:4738   */\n      dup6\n        /* \"#utility.yul\":4722:4728   */\n      dup3\n        /* \"#utility.yul\":4711:4720   */\n      dup7\n        /* \"#utility.yul\":4707:4729   */\n      add\n        /* \"#utility.yul\":4686:4739   */\n      tag_293\n      jump\t// in\n    tag_372:\n        /* \"#utility.yul\":4676:4739   */\n      swap3\n      pop\n        /* \"#utility.yul\":4632:4749   */\n      pop\n        /* \"#utility.yul\":4788:4790   */\n      0x20\n        /* \"#utility.yul\":4814:4867   */\n      tag_373\n        /* \"#utility.yul\":4859:4866   */\n      dup6\n        /* \"#utility.yul\":4850:4856   */\n      dup3\n        /* \"#utility.yul\":4839:4848   */\n      dup7\n        /* \"#utility.yul\":4835:4857   */\n      add\n        /* \"#utility.yul\":4814:4867   */\n      tag_288\n      jump\t// in\n    tag_373:\n        /* \"#utility.yul\":4804:4867   */\n      swap2\n      pop\n        /* \"#utility.yul\":4759:4877   */\n      pop\n        /* \"#utility.yul\":4410:4884   */\n      swap3\n      pop\n      swap3\n      swap1\n      pop\n      jump\t// out\n        /* \"#utility.yul\":4890:5008   */\n    tag_294:\n        /* \"#utility.yul\":4977:5001   */\n      tag_375\n        /* \"#utility.yul\":4995:5000   */\n      dup2\n        /* \"#utility.yul\":4977:5001   */\n      tag_286\n      jump\t// in\n    tag_375:\n        /* \"#utility.yul\":4972:4975   */\n      dup3\n        /* \"#utility.yul\":4965:5002   */\n      mstore\n        /* \"#utility.yul\":4890:5008   */\n      pop\n      pop\n      jump\t// out\n        /* \"#utility.yul\":5014:5236   */\n    tag_47:\n        /* \"#utility.yul\":5107:5111   */\n      0x00\n        /* \"#utility.yul\":5145:5147   */\n      0x20\n        /* \"#utility.yul\":5134:5143   */\n      dup3\n        /* \"#utility.yul\":5130:5148   */\n      add\n        /* \"#utility.yul\":5122:5148   */\n      swap1\n      pop\n        /* \"#utility.yul\":5158:5229   */\n      tag_377\n        /* \"#utility.yul\":5226:5227   */\n      0x00\n        /* \"#utility.yul\":5215:5224   */\n      dup4\n        /* \"#utility.yul\":5211:5228   */\n      add\n        /* \"#utility.yul\":5202:5208   */\n      dup5\n        /* \"#utility.yul\":5158:5229   */\n      tag_294\n      jump\t// in\n    tag_377:\n        /* \"#utility.yul\":5014:5236   */\n      swap3\n      swap2\n      pop\n      pop\n      jump\t// out\n        /* \"#utility.yul\":5242:5861   */\n    tag_50:\n        /* \"#utility.yul\":5319:5325   */\n      0x00\n        /* \"#utility.yul\":5327:5333   */\n      dup1\n        /* \"#utility.yul\":5335:5341   */\n      0x00\n        /* \"#utility.yul\":5384:5386   */\n      0x60\n        /* \"#utility.yul\":5372:5381   */\n      dup5\n        /* \"#utility.yul\":5363:5370   */\n      dup7\n        /* \"#utility.yul\":5359:5382   */\n      sub\n        /* \"#utility.yul\":5355:5387   */\n      slt\n        /* \"#utility.yul\":5352:5471   */\n      iszero\n      tag_379\n      jumpi\n        /* \"#utility.yul\":5390:5469   */\n      tag_380\n      tag_274\n      jump\t// in\n    tag_380:\n        /* \"#utility.yul\":5352:5471   */\n    tag_379:\n        /* \"#utility.yul\":5510:5511   */\n      0x00\n        /* \"#utility.yul\":5535:5588   */\n      tag_381\n        /* \"#utility.yul\":5580:5587   */\n      dup7\n        /* \"#utility.yul\":5571:5577   */\n      dup3\n        /* \"#utility.yul\":5560:5569   */\n      dup8\n        /* \"#utility.yul\":5556:5578   */\n      add\n        /* \"#utility.yul\":5535:5588   */\n      tag_293\n      jump\t// in\n    tag_381:\n        /* \"#utility.yul\":5525:5588   */\n      swap4\n      pop\n        /* \"#utility.yul\":5481:5598   */\n      pop\n        /* \"#utility.yul\":5637:5639   */\n      0x20\n        /* \"#utility.yul\":5663:5716   */\n      tag_382\n        /* \"#utility.yul\":5708:5715   */\n      dup7\n        /* \"#utility.yul\":5699:5705   */\n      dup3\n        /* \"#utility.yul\":5688:5697   */\n      dup8\n        /* \"#utility.yul\":5684:5706   */\n      add\n        /* \"#utility.yul\":5663:5716   */\n      tag_293\n      jump\t// in\n    tag_382:\n        /* \"#utility.yul\":5653:5716   */\n      swap3\n      pop\n        /* \"#utility.yul\":5608:5726   */\n      pop\n        /* \"#utility.yul\":5765:5767   */\n      0x40\n        /* \"#utility.yul\":5791:5844   */\n      tag_383\n        /* \"#utility.yul\":5836:5843   */\n      dup7\n        /* \"#utility.yul\":5827:5833   */\n      dup3\n        /* \"#utility.yul\":5816:5825   */\n      dup8\n        /* \"#utility.yul\":5812:5834   */\n      add\n        /* \"#utility.yul\":5791:5844   */\n      tag_288\n      jump\t// in\n    tag_383:\n        /* \"#utility.yul\":5781:5844   */\n      swap2\n      pop\n        /* \"#utility.yul\":5736:5854   */\n      pop\n        /* \"#utility.yul\":5242:5861   */\n      swap3\n      pop\n      swap3\n      pop\n      swap3\n      jump\t// out\n        /* \"#utility.yul\":5867:6196   */\n    tag_54:\n        /* \"#utility.yul\":5926:5932   */\n      0x00\n        /* \"#utility.yul\":5975:5977   */\n      0x20\n        /* \"#utility.yul\":5963:5972   */\n      dup3\n        /* \"#utility.yul\":5954:5961   */\n      dup5\n        /* \"#utility.yul\":5950:5973   */\n      sub\n        /* \"#utility.yul\":5946:5978   */\n      slt\n        /* \"#utility.yul\":5943:6062   */\n      iszero\n      tag_385\n      jumpi\n        /* \"#utility.yul\":5981:6060   */\n      tag_386\n      tag_274\n      jump\t// in\n    tag_386:\n        /* \"#utility.yul\":5943:6062   */\n    tag_385:\n        /* \"#utility.yul\":6101:6102   */\n      0x00\n        /* \"#utility.yul\":6126:6179   */\n      tag_387\n        /* \"#utility.yul\":6171:6178   */\n      dup5\n        /* \"#utility.yul\":6162:6168   */\n      dup3\n        /* \"#utility.yul\":6151:6160   */\n      dup6\n        /* \"#utility.yul\":6147:6169   */\n      add\n        /* \"#utility.yul\":6126:6179   */\n      tag_293\n      jump\t// in\n    tag_387:\n        /* \"#utility.yul\":6116:6179   */\n      swap2\n      pop\n        /* \"#utility.yul\":6072:6189   */\n      pop\n        /* \"#utility.yul\":5867:6196   */\n      swap3\n      swap2\n      pop\n      pop\n      jump\t// out\n        /* \"#utility.yul\":6202:6318   */\n    tag_295:\n        /* \"#utility.yul\":6272:6293   */\n      tag_389\n        /* \"#utility.yul\":6287:6292   */\n      dup2\n        /* \"#utility.yul\":6272:6293   */\n      tag_279\n      jump\t// in\n    tag_389:\n        /* \"#utility.yul\":6265:6270   */\n      dup2\n        /* \"#utility.yul\":6262:6294   */\n      eq\n        /* \"#utility.yul\":6252:6312   */\n      tag_390\n      jumpi\n        /* \"#utility.yul\":6308:6309   */\n      0x00\n        /* \"#utility.yul\":6305:6306   */\n      dup1\n        /* \"#utility.yul\":6298:6310   */\n      revert\n        /* \"#utility.yul\":6252:6312   */\n    tag_390:\n        /* \"#utility.yul\":6202:6318   */\n      pop\n      jump\t// out\n        /* \"#utility.yul\":6324:6457   */\n    tag_296:\n        /* \"#utility.yul\":6367:6372   */\n      0x00\n        /* \"#utility.yul\":6405:6411   */\n      dup2\n        /* \"#utility.yul\":6392:6412   */\n      calldataload\n        /* \"#utility.yul\":6383:6412   */\n      swap1\n      pop\n        /* \"#utility.yul\":6421:6451   */\n      tag_392\n        /* \"#utility.yul\":6445:6450   */\n      dup2\n        /* \"#utility.yul\":6421:6451   */\n      tag_295\n      jump\t// in\n    tag_392:\n        /* \"#utility.yul\":6324:6457   */\n      swap3\n      swap2\n      pop\n      pop\n      jump\t// out\n        /* \"#utility.yul\":6463:6931   */\n    tag_79:\n        /* \"#utility.yul\":6528:6534   */\n      0x00\n        /* \"#utility.yul\":6536:6542   */\n      dup1\n        /* \"#utility.yul\":6585:6587   */\n      0x40\n        /* \"#utility.yul\":6573:6582   */\n      dup4\n        /* \"#utility.yul\":6564:6571   */\n      dup6\n        /* \"#utility.yul\":6560:6583   */\n      sub\n        /* \"#utility.yul\":6556:6588   */\n      slt\n        /* \"#utility.yul\":6553:6672   */\n      iszero\n      tag_394\n      jumpi\n        /* \"#utility.yul\":6591:6670   */\n      tag_395\n      tag_274\n      jump\t// in\n    tag_395:\n        /* \"#utility.yul\":6553:6672   */\n    tag_394:\n        /* \"#utility.yul\":6711:6712   */\n      0x00\n        /* \"#utility.yul\":6736:6789   */\n      tag_396\n        /* \"#utility.yul\":6781:6788   */\n      dup6\n        /* \"#utility.yul\":6772:6778   */\n      dup3\n        /* \"#utility.yul\":6761:6770   */\n      dup7\n        /* \"#utility.yul\":6757:6779   */\n      add\n        /* \"#utility.yul\":6736:6789   */\n      tag_293\n      jump\t// in\n    tag_396:\n        /* \"#utility.yul\":6726:6789   */\n      swap3\n      pop\n        /* \"#utility.yul\":6682:6799   */\n      pop\n        /* \"#utility.yul\":6838:6840   */\n      0x20\n        /* \"#utility.yul\":6864:6914   */\n      tag_397\n        /* \"#utility.yul\":6906:6913   */\n      dup6\n        /* \"#utility.yul\":6897:6903   */\n      dup3\n        /* \"#utility.yul\":6886:6895   */\n      dup7\n        /* \"#utility.yul\":6882:6904   */\n      add\n        /* \"#utility.yul\":6864:6914   */\n      tag_296\n      jump\t// in\n    tag_397:\n        /* \"#utility.yul\":6854:6914   */\n      swap2\n      pop\n        /* \"#utility.yul\":6809:6924   */\n      pop\n        /* \"#utility.yul\":6463:6931   */\n      swap3\n      pop\n      swap3\n      swap1\n      pop\n      jump\t// out\n        /* \"#utility.yul\":6937:7054   */\n    tag_297:\n        /* \"#utility.yul\":7046:7047   */\n      0x00\n        /* \"#utility.yul\":7043:7044   */\n      dup1\n        /* \"#utility.yul\":7036:7048   */\n      revert\n        /* \"#utility.yul\":7060:7177   */\n    tag_298:\n        /* \"#utility.yul\":7169:7170   */\n      0x00\n        /* \"#utility.yul\":7166:7167   */\n      dup1\n        /* \"#utility.yul\":7159:7171   */\n      revert\n        /* \"#utility.yul\":7183:7363   */\n    tag_257:\n        /* \"#utility.yul\":7231:7308   */\n      0x4e487b7100000000000000000000000000000000000000000000000000000000\n        /* \"#utility.yul\":7228:7229   */\n      0x00\n        /* \"#utility.yul\":7221:7309   */\n      mstore\n        /* \"#utility.yul\":7328:7332   */\n      0x41\n        /* \"#utility.yul\":7325:7326   */\n      0x04\n        /* \"#utility.yul\":7318:7333   */\n      mstore\n        /* \"#utility.yul\":7352:7356   */\n      0x24\n        /* \"#utility.yul\":7349:7350   */\n      0x00\n        /* \"#utility.yul\":7342:7357   */\n      revert\n        /* \"#utility.yul\":7369:7650   */\n    tag_299:\n        /* \"#utility.yul\":7452:7479   */\n      tag_402\n        /* \"#utility.yul\":7474:7478   */\n      dup3\n        /* \"#utility.yul\":7452:7479   */\n      tag_284\n      jump\t// in\n    tag_402:\n        /* \"#utility.yul\":7444:7450   */\n      dup2\n        /* \"#utility.yul\":7440:7480   */\n      add\n        /* \"#utility.yul\":7582:7588   */\n      dup2\n        /* \"#utility.yul\":7570:7580   */\n      dup2\n        /* \"#utility.yul\":7567:7589   */\n      lt\n        /* \"#utility.yul\":7546:7564   */\n      0xffffffffffffffff\n        /* \"#utility.yul\":7534:7544   */\n      dup3\n        /* \"#utility.yul\":7531:7565   */\n      gt\n        /* \"#utility.yul\":7528:7590   */\n      or\n        /* \"#utility.yul\":7525:7613   */\n      iszero\n      tag_403\n      jumpi\n        /* \"#utility.yul\":7593:7611   */\n      tag_404\n      tag_257\n      jump\t// in\n    tag_404:\n        /* \"#utility.yul\":7525:7613   */\n    tag_403:\n        /* \"#utility.yul\":7633:7643   */\n      dup1\n        /* \"#utility.yul\":7629:7631   */\n      0x40\n        /* \"#utility.yul\":7622:7644   */\n      mstore\n        /* \"#utility.yul\":7412:7650   */\n      pop\n        /* \"#utility.yul\":7369:7650   */\n      pop\n      pop\n      jump\t// out\n        /* \"#utility.yul\":7656:7785   */\n    tag_300:\n        /* \"#utility.yul\":7690:7696   */\n      0x00\n        /* \"#utility.yul\":7717:7737   */\n      tag_406\n      tag_273\n      jump\t// in\n    tag_406:\n        /* \"#utility.yul\":7707:7737   */\n      swap1\n      pop\n        /* \"#utility.yul\":7746:7779   */\n      tag_407\n        /* \"#utility.yul\":7774:7778   */\n      dup3\n        /* \"#utility.yul\":7766:7772   */\n      dup3\n        /* \"#utility.yul\":7746:7779   */\n      tag_299\n      jump\t// in\n    tag_407:\n        /* \"#utility.yul\":7656:7785   */\n      swap2\n      swap1\n      pop\n      jump\t// out\n        /* \"#utility.yul\":7791:8098   */\n    tag_301:\n        /* \"#utility.yul\":7852:7856   */\n      0x00\n        /* \"#utility.yul\":7942:7960   */\n      0xffffffffffffffff\n        /* \"#utility.yul\":7934:7940   */\n      dup3\n        /* \"#utility.yul\":7931:7961   */\n      gt\n        /* \"#utility.yul\":7928:7984   */\n      iszero\n      tag_409\n      jumpi\n        /* \"#utility.yul\":7964:7982   */\n      tag_410\n      tag_257\n      jump\t// in\n    tag_410:\n        /* \"#utility.yul\":7928:7984   */\n    tag_409:\n        /* \"#utility.yul\":8002:8031   */\n      tag_411\n        /* \"#utility.yul\":8024:8030   */\n      dup3\n        /* \"#utility.yul\":8002:8031   */\n      tag_284\n      jump\t// in\n    tag_411:\n        /* \"#utility.yul\":7994:8031   */\n      swap1\n      pop\n        /* \"#utility.yul\":8086:8090   */\n      0x20\n        /* \"#utility.yul\":8080:8084   */\n      dup2\n        /* \"#utility.yul\":8076:8091   */\n      add\n        /* \"#utility.yul\":8068:8091   */\n      swap1\n      pop\n        /* \"#utility.yul\":7791:8098   */\n      swap2\n      swap1\n      pop\n      jump\t// out\n        /* \"#utility.yul\":8104:8250   */\n    tag_302:\n        /* \"#utility.yul\":8201:8207   */\n      dup3\n        /* \"#utility.yul\":8196:8199   */\n      dup2\n        /* \"#utility.yul\":8191:8194   */\n      dup4\n        /* \"#utility.yul\":8178:8208   */\n      calldatacopy\n        /* \"#utility.yul\":8242:8243   */\n      0x00\n        /* \"#utility.yul\":8233:8239   */\n      dup4\n        /* \"#utility.yul\":8228:8231   */\n      dup4\n        /* \"#utility.yul\":8224:8240   */\n      add\n        /* \"#utility.yul\":8217:8244   */\n      mstore\n        /* \"#utility.yul\":8104:8250   */\n      pop\n      pop\n      pop\n      jump\t// out\n        /* \"#utility.yul\":8256:8679   */\n    tag_303:\n        /* \"#utility.yul\":8333:8338   */\n      0x00\n        /* \"#utility.yul\":8358:8423   */\n      tag_414\n        /* \"#utility.yul\":8374:8422   */\n      tag_415\n        /* \"#utility.yul\":8415:8421   */\n      dup5\n        /* \"#utility.yul\":8374:8422   */\n      tag_301\n      jump\t// in\n    tag_415:\n        /* \"#utility.yul\":8358:8423   */\n      tag_300\n      jump\t// in\n    tag_414:\n        /* \"#utility.yul\":8349:8423   */\n      swap1\n      pop\n        /* \"#utility.yul\":8446:8452   */\n      dup3\n        /* \"#utility.yul\":8439:8444   */\n      dup2\n        /* \"#utility.yul\":8432:8453   */\n      mstore\n        /* \"#utility.yul\":8484:8488   */\n      0x20\n        /* \"#utility.yul\":8477:8482   */\n      dup2\n        /* \"#utility.yul\":8473:8489   */\n      add\n        /* \"#utility.yul\":8522:8525   */\n      dup5\n        /* \"#utility.yul\":8513:8519   */\n      dup5\n        /* \"#utility.yul\":8508:8511   */\n      dup5\n        /* \"#utility.yul\":8504:8520   */\n      add\n        /* \"#utility.yul\":8501:8526   */\n      gt\n        /* \"#utility.yul\":8498:8610   */\n      iszero\n      tag_416\n      jumpi\n        /* \"#utility.yul\":8529:8608   */\n      tag_417\n      tag_298\n      jump\t// in\n    tag_417:\n        /* \"#utility.yul\":8498:8610   */\n    tag_416:\n        /* \"#utility.yul\":8619:8673   */\n      tag_418\n        /* \"#utility.yul\":8666:8672   */\n      dup5\n        /* \"#utility.yul\":8661:8664   */\n      dup3\n        /* \"#utility.yul\":8656:8659   */\n      dup6\n        /* \"#utility.yul\":8619:8673   */\n      tag_302\n      jump\t// in\n    tag_418:\n        /* \"#utility.yul\":8339:8679   */\n      pop\n        /* \"#utility.yul\":8256:8679   */\n      swap4\n      swap3\n      pop\n      pop\n      pop\n      jump\t// out\n        /* \"#utility.yul\":8698:9036   */\n    tag_304:\n        /* \"#utility.yul\":8753:8758   */\n      0x00\n        /* \"#utility.yul\":8802:8805   */\n      dup3\n        /* \"#utility.yul\":8795:8799   */\n      0x1f\n        /* \"#utility.yul\":8787:8793   */\n      dup4\n        /* \"#utility.yul\":8783:8800   */\n      add\n        /* \"#utility.yul\":8779:8806   */\n      slt\n        /* \"#utility.yul\":8769:8891   */\n      tag_420\n      jumpi\n        /* \"#utility.yul\":8810:8889   */\n      tag_421\n      tag_297\n      jump\t// in\n    tag_421:\n        /* \"#utility.yul\":8769:8891   */\n    tag_420:\n        /* \"#utility.yul\":8927:8933   */\n      dup2\n        /* \"#utility.yul\":8914:8934   */\n      calldataload\n        /* \"#utility.yul\":8952:9030   */\n      tag_422\n        /* \"#utility.yul\":9026:9029   */\n      dup5\n        /* \"#utility.yul\":9018:9024   */\n      dup3\n        /* \"#utility.yul\":9011:9015   */\n      0x20\n        /* \"#utility.yul\":9003:9009   */\n      dup7\n        /* \"#utility.yul\":8999:9016   */\n      add\n        /* \"#utility.yul\":8952:9030   */\n      tag_303\n      jump\t// in\n    tag_422:\n        /* \"#utility.yul\":8943:9030   */\n      swap2\n      pop\n        /* \"#utility.yul\":8759:9036   */\n      pop\n        /* \"#utility.yul\":8698:9036   */\n      swap3\n      swap2\n      pop\n      pop\n      jump\t// out\n        /* \"#utility.yul\":9042:9985   */\n    tag_83:\n        /* \"#utility.yul\":9137:9143   */\n      0x00\n        /* \"#utility.yul\":9145:9151   */\n      dup1\n        /* \"#utility.yul\":9153:9159   */\n      0x00\n        /* \"#utility.yul\":9161:9167   */\n      dup1\n        /* \"#utility.yul\":9210:9213   */\n      0x80\n        /* \"#utility.yul\":9198:9207   */\n      dup6\n        /* \"#utility.yul\":9189:9196   */\n      dup8\n        /* \"#utility.yul\":9185:9208   */\n      sub\n        /* \"#utility.yul\":9181:9214   */\n      slt\n        /* \"#utility.yul\":9178:9298   */\n      iszero\n      tag_424\n      jumpi\n        /* \"#utility.yul\":9217:9296   */\n      tag_425\n      tag_274\n      jump\t// in\n    tag_425:\n        /* \"#utility.yul\":9178:9298   */\n    tag_424:\n        /* \"#utility.yul\":9337:9338   */\n      0x00\n        /* \"#utility.yul\":9362:9415   */\n      tag_426\n        /* \"#utility.yul\":9407:9414   */\n      dup8\n        /* \"#utility.yul\":9398:9404   */\n      dup3\n        /* \"#utility.yul\":9387:9396   */\n      dup9\n        /* \"#utility.yul\":9383:9405   */\n      add\n        /* \"#utility.yul\":9362:9415   */\n      tag_293\n      jump\t// in\n    tag_426:\n        /* \"#utility.yul\":9352:9415   */\n      swap5\n      pop\n        /* \"#utility.yul\":9308:9425   */\n      pop\n        /* \"#utility.yul\":9464:9466   */\n      0x20\n        /* \"#utility.yul\":9490:9543   */\n      tag_427\n        /* \"#utility.yul\":9535:9542   */\n      dup8\n        /* \"#utility.yul\":9526:9532   */\n      dup3\n        /* \"#utility.yul\":9515:9524   */\n      dup9\n        /* \"#utility.yul\":9511:9533   */\n      add\n        /* \"#utility.yul\":9490:9543   */\n      tag_293\n      jump\t// in\n    tag_427:\n        /* \"#utility.yul\":9480:9543   */\n      swap4\n      pop\n        /* \"#utility.yul\":9435:9553   */\n      pop\n        /* \"#utility.yul\":9592:9594   */\n      0x40\n        /* \"#utility.yul\":9618:9671   */\n      tag_428\n        /* \"#utility.yul\":9663:9670   */\n      dup8\n        /* \"#utility.yul\":9654:9660   */\n      dup3\n        /* \"#utility.yul\":9643:9652   */\n      dup9\n        /* \"#utility.yul\":9639:9661   */\n      add\n        /* \"#utility.yul\":9618:9671   */\n      tag_288\n      jump\t// in\n    tag_428:\n        /* \"#utility.yul\":9608:9671   */\n      swap3\n      pop\n        /* \"#utility.yul\":9563:9681   */\n      pop\n        /* \"#utility.yul\":9748:9750   */\n      0x60\n        /* \"#utility.yul\":9737:9746   */\n      dup6\n        /* \"#utility.yul\":9733:9751   */\n      add\n        /* \"#utility.yul\":9720:9752   */\n      calldataload\n        /* \"#utility.yul\":9779:9797   */\n      0xffffffffffffffff\n        /* \"#utility.yul\":9771:9777   */\n      dup2\n        /* \"#utility.yul\":9768:9798   */\n      gt\n        /* \"#utility.yul\":9765:9882   */\n      iszero\n      tag_429\n      jumpi\n        /* \"#utility.yul\":9801:9880   */\n      tag_430\n      tag_275\n      jump\t// in\n    tag_430:\n        /* \"#utility.yul\":9765:9882   */\n    tag_429:\n        /* \"#utility.yul\":9906:9968   */\n      tag_431\n        /* \"#utility.yul\":9960:9967   */\n      dup8\n        /* \"#utility.yul\":9951:9957   */\n      dup3\n        /* \"#utility.yul\":9940:9949   */\n      dup9\n        /* \"#utility.yul\":9936:9958   */\n      add\n        /* \"#utility.yul\":9906:9968   */\n      tag_304\n      jump\t// in\n    tag_431:\n        /* \"#utility.yul\":9896:9968   */\n      swap2\n      pop\n        /* \"#utility.yul\":9691:9978   */\n      pop\n        /* \"#utility.yul\":9042:9985   */\n      swap3\n      swap6\n      swap2\n      swap5\n      pop\n      swap3\n      pop\n      jump\t// out\n        /* \"#utility.yul\":9991:10465   */\n    tag_94:\n        /* \"#utility.yul\":10059:10065   */\n      0x00\n        /* \"#utility.yul\":10067:10073   */\n      dup1\n        /* \"#utility.yul\":10116:10118   */\n      0x40\n        /* \"#utility.yul\":10104:10113   */\n      dup4\n        /* \"#utility.yul\":10095:10102   */\n      dup6\n        /* \"#utility.yul\":10091:10114   */\n      sub\n        /* \"#utility.yul\":10087:10119   */\n      slt\n        /* \"#utility.yul\":10084:10203   */\n      iszero\n      tag_433\n      jumpi\n        /* \"#utility.yul\":10122:10201   */\n      tag_434\n      tag_274\n      jump\t// in\n    tag_434:\n        /* \"#utility.yul\":10084:10203   */\n    tag_433:\n        /* \"#utility.yul\":10242:10243   */\n      0x00\n        /* \"#utility.yul\":10267:10320   */\n      tag_435\n        /* \"#utility.yul\":10312:10319   */\n      dup6\n        /* \"#utility.yul\":10303:10309   */\n      dup3\n        /* \"#utility.yul\":10292:10301   */\n      dup7\n        /* \"#utility.yul\":10288:10310   */\n      add\n        /* \"#utility.yul\":10267:10320   */\n      tag_293\n      jump\t// in\n    tag_435:\n        /* \"#utility.yul\":10257:10320   */\n      swap3\n      pop\n        /* \"#utility.yul\":10213:10330   */\n      pop\n        /* \"#utility.yul\":10369:10371   */\n      0x20\n        /* \"#utility.yul\":10395:10448   */\n      tag_436\n        /* \"#utility.yul\":10440:10447   */\n      dup6\n        /* \"#utility.yul\":10431:10437   */\n      dup3\n        /* \"#utility.yul\":10420:10429   */\n      dup7\n        /* \"#utility.yul\":10416:10438   */\n      add\n        /* \"#utility.yul\":10395:10448   */\n      tag_293\n      jump\t// in\n    tag_436:\n        /* \"#utility.yul\":10385:10448   */\n      swap2\n      pop\n        /* \"#utility.yul\":10340:10458   */\n      pop\n        /* \"#utility.yul\":9991:10465   */\n      swap3\n      pop\n      swap3\n      swap1\n      pop\n      jump\t// out\n        /* \"#utility.yul\":10471:10651   */\n    tag_305:\n        /* \"#utility.yul\":10519:10596   */\n      0x4e487b7100000000000000000000000000000000000000000000000000000000\n        /* \"#utility.yul\":10516:10517   */\n      0x00\n        /* \"#utility.yul\":10509:10597   */\n      mstore\n        /* \"#utility.yul\":10616:10620   */\n      0x22\n        /* \"#utility.yul\":10613:10614   */\n      0x04\n        /* \"#utility.yul\":10606:10621   */\n      mstore\n        /* \"#utility.yul\":10640:10644   */\n      0x24\n        /* \"#utility.yul\":10637:10638   */\n      0x00\n        /* \"#utility.yul\":10630:10645   */\n      revert\n        /* \"#utility.yul\":10657:10977   */\n    tag_104:\n        /* \"#utility.yul\":10701:10707   */\n      0x00\n        /* \"#utility.yul\":10738:10739   */\n      0x02\n        /* \"#utility.yul\":10732:10736   */\n      dup3\n        /* \"#utility.yul\":10728:10740   */\n      div\n        /* \"#utility.yul\":10718:10740   */\n      swap1\n      pop\n        /* \"#utility.yul\":10785:10786   */\n      0x01\n        /* \"#utility.yul\":10779:10783   */\n      dup3\n        /* \"#utility.yul\":10775:10787   */\n      and\n        /* \"#utility.yul\":10806:10824   */\n      dup1\n        /* \"#utility.yul\":10796:10877   */\n      tag_439\n      jumpi\n        /* \"#utility.yul\":10862:10866   */\n      0x7f\n        /* \"#utility.yul\":10854:10860   */\n      dup3\n        /* \"#utility.yul\":10850:10867   */\n      and\n        /* \"#utility.yul\":10840:10867   */\n      swap2\n      pop\n        /* \"#utility.yul\":10796:10877   */\n    tag_439:\n        /* \"#utility.yul\":10924:10926   */\n      0x20\n        /* \"#utility.yul\":10916:10922   */\n      dup3\n        /* \"#utility.yul\":10913:10927   */\n      lt\n        /* \"#utility.yul\":10893:10911   */\n      dup2\n        /* \"#utility.yul\":10890:10928   */\n      sub\n        /* \"#utility.yul\":10887:10971   */\n      tag_440\n      jumpi\n        /* \"#utility.yul\":10943:10961   */\n      tag_441\n      tag_305\n      jump\t// in\n    tag_441:\n        /* \"#utility.yul\":10887:10971   */\n    tag_440:\n        /* \"#utility.yul\":10708:10977   */\n      pop\n        /* \"#utility.yul\":10657:10977   */\n      swap2\n      swap1\n      pop\n      jump\t// out\n        /* \"#utility.yul\":10983:11131   */\n    tag_306:\n        /* \"#utility.yul\":11085:11096   */\n      0x00\n        /* \"#utility.yul\":11122:11125   */\n      dup2\n        /* \"#utility.yul\":11107:11125   */\n      swap1\n      pop\n        /* \"#utility.yul\":10983:11131   */\n      swap3\n      swap2\n      pop\n      pop\n      jump\t// out\n        /* \"#utility.yul\":11137:11527   */\n    tag_307:\n        /* \"#utility.yul\":11243:11246   */\n      0x00\n        /* \"#utility.yul\":11271:11310   */\n      tag_444\n        /* \"#utility.yul\":11304:11309   */\n      dup3\n        /* \"#utility.yul\":11271:11310   */\n      tag_281\n      jump\t// in\n    tag_444:\n        /* \"#utility.yul\":11326:11415   */\n      tag_445\n        /* \"#utility.yul\":11408:11414   */\n      dup2\n        /* \"#utility.yul\":11403:11406   */\n      dup6\n        /* \"#utility.yul\":11326:11415   */\n      tag_306\n      jump\t// in\n    tag_445:\n        /* \"#utility.yul\":11319:11415   */\n      swap4\n      pop\n        /* \"#utility.yul\":11424:11489   */\n      tag_446\n        /* \"#utility.yul\":11482:11488   */\n      dup2\n        /* \"#utility.yul\":11477:11480   */\n      dup6\n        /* \"#utility.yul\":11470:11474   */\n      0x20\n        /* \"#utility.yul\":11463:11468   */\n      dup7\n        /* \"#utility.yul\":11459:11475   */\n      add\n        /* \"#utility.yul\":11424:11489   */\n      tag_283\n      jump\t// in\n    tag_446:\n        /* \"#utility.yul\":11514:11520   */\n      dup1\n        /* \"#utility.yul\":11509:11512   */\n      dup5\n        /* \"#utility.yul\":11505:11521   */\n      add\n        /* \"#utility.yul\":11498:11521   */\n      swap2\n      pop\n        /* \"#utility.yul\":11247:11527   */\n      pop\n        /* \"#utility.yul\":11137:11527   */\n      swap3\n      swap2\n      pop\n      pop\n      jump\t// out\n        /* \"#utility.yul\":11533:11968   */\n    tag_175:\n        /* \"#utility.yul\":11713:11716   */\n      0x00\n        /* \"#utility.yul\":11735:11830   */\n      tag_448\n        /* \"#utility.yul\":11826:11829   */\n      dup3\n        /* \"#utility.yul\":11817:11823   */\n      dup6\n        /* \"#utility.yul\":11735:11830   */\n      tag_307\n      jump\t// in\n    tag_448:\n        /* \"#utility.yul\":11728:11830   */\n      swap2\n      pop\n        /* \"#utility.yul\":11847:11942   */\n      tag_449\n        /* \"#utility.yul\":11938:11941   */\n      dup3\n        /* \"#utility.yul\":11929:11935   */\n      dup5\n        /* \"#utility.yul\":11847:11942   */\n      tag_307\n      jump\t// in\n    tag_449:\n        /* \"#utility.yul\":11840:11942   */\n      swap2\n      pop\n        /* \"#utility.yul\":11959:11962   */\n      dup2\n        /* \"#utility.yul\":11952:11962   */\n      swap1\n      pop\n        /* \"#utility.yul\":11533:11968   */\n      swap4\n      swap3\n      pop\n      pop\n      pop\n      jump\t// out\n        /* \"#utility.yul\":11974:12154   */\n    tag_308:\n        /* \"#utility.yul\":12022:12099   */\n      0x4e487b7100000000000000000000000000000000000000000000000000000000\n        /* \"#utility.yul\":12019:12020   */\n      0x00\n        /* \"#utility.yul\":12012:12100   */\n      mstore\n        /* \"#utility.yul\":12119:12123   */\n      0x11\n        /* \"#utility.yul\":12116:12117   */\n      0x04\n        /* \"#utility.yul\":12109:12124   */\n      mstore\n        /* \"#utility.yul\":12143:12147   */\n      0x24\n        /* \"#utility.yul\":12140:12141   */\n      0x00\n        /* \"#utility.yul\":12133:12148   */\n      revert\n        /* \"#utility.yul\":12160:12354   */\n    tag_211:\n        /* \"#utility.yul\":12200:12204   */\n      0x00\n        /* \"#utility.yul\":12220:12240   */\n      tag_452\n        /* \"#utility.yul\":12238:12239   */\n      dup3\n        /* \"#utility.yul\":12220:12240   */\n      tag_286\n      jump\t// in\n    tag_452:\n        /* \"#utility.yul\":12215:12240   */\n      swap2\n      pop\n        /* \"#utility.yul\":12254:12274   */\n      tag_453\n        /* \"#utility.yul\":12272:12273   */\n      dup4\n        /* \"#utility.yul\":12254:12274   */\n      tag_286\n      jump\t// in\n    tag_453:\n        /* \"#utility.yul\":12249:12274   */\n      swap3\n      pop\n        /* \"#utility.yul\":12298:12299   */\n      dup3\n        /* \"#utility.yul\":12295:12296   */\n      dup3\n        /* \"#utility.yul\":12291:12300   */\n      sub\n        /* \"#utility.yul\":12283:12300   */\n      swap1\n      pop\n        /* \"#utility.yul\":12322:12323   */\n      dup2\n        /* \"#utility.yul\":12316:12320   */\n      dup2\n        /* \"#utility.yul\":12313:12324   */\n      gt\n        /* \"#utility.yul\":12310:12347   */\n      iszero\n      tag_454\n      jumpi\n        /* \"#utility.yul\":12327:12345   */\n      tag_455\n      tag_308\n      jump\t// in\n    tag_455:\n        /* \"#utility.yul\":12310:12347   */\n    tag_454:\n        /* \"#utility.yul\":12160:12354   */\n      swap3\n      swap2\n      pop\n      pop\n      jump\t// out\n        /* \"#utility.yul\":12360:12770   */\n    tag_214:\n        /* \"#utility.yul\":12400:12407   */\n      0x00\n        /* \"#utility.yul\":12423:12443   */\n      tag_457\n        /* \"#utility.yul\":12441:12442   */\n      dup3\n        /* \"#utility.yul\":12423:12443   */\n      tag_286\n      jump\t// in\n    tag_457:\n        /* \"#utility.yul\":12418:12443   */\n      swap2\n      pop\n        /* \"#utility.yul\":12457:12477   */\n      tag_458\n        /* \"#utility.yul\":12475:12476   */\n      dup4\n        /* \"#utility.yul\":12457:12477   */\n      tag_286\n      jump\t// in\n    tag_458:\n        /* \"#utility.yul\":12452:12477   */\n      swap3\n      pop\n        /* \"#utility.yul\":12512:12513   */\n      dup3\n        /* \"#utility.yul\":12509:12510   */\n      dup3\n        /* \"#utility.yul\":12505:12514   */\n      mul\n        /* \"#utility.yul\":12534:12564   */\n      tag_459\n        /* \"#utility.yul\":12552:12563   */\n      dup2\n        /* \"#utility.yul\":12534:12564   */\n      tag_286\n      jump\t// in\n    tag_459:\n        /* \"#utility.yul\":12523:12564   */\n      swap2\n      pop\n        /* \"#utility.yul\":12713:12714   */\n      dup3\n        /* \"#utility.yul\":12704:12711   */\n      dup3\n        /* \"#utility.yul\":12700:12715   */\n      div\n        /* \"#utility.yul\":12697:12698   */\n      dup5\n        /* \"#utility.yul\":12694:12716   */\n      eq\n        /* \"#utility.yul\":12674:12675   */\n      dup4\n        /* \"#utility.yul\":12667:12676   */\n      iszero\n        /* \"#utility.yul\":12647:12730   */\n      or\n        /* \"#utility.yul\":12624:12763   */\n      tag_460\n      jumpi\n        /* \"#utility.yul\":12743:12761   */\n      tag_461\n      tag_308\n      jump\t// in\n    tag_461:\n        /* \"#utility.yul\":12624:12763   */\n    tag_460:\n        /* \"#utility.yul\":12408:12770   */\n      pop\n        /* \"#utility.yul\":12360:12770   */\n      swap3\n      swap2\n      pop\n      pop\n      jump\t// out\n        /* \"#utility.yul\":12776:12967   */\n    tag_217:\n        /* \"#utility.yul\":12816:12819   */\n      0x00\n        /* \"#utility.yul\":12835:12855   */\n      tag_463\n        /* \"#utility.yul\":12853:12854   */\n      dup3\n        /* \"#utility.yul\":12835:12855   */\n      tag_286\n      jump\t// in\n    tag_463:\n        /* \"#utility.yul\":12830:12855   */\n      swap2\n      pop\n        /* \"#utility.yul\":12869:12889   */\n      tag_464\n        /* \"#utility.yul\":12887:12888   */\n      dup4\n        /* \"#utility.yul\":12869:12889   */\n      tag_286\n      jump\t// in\n    tag_464:\n        /* \"#utility.yul\":12864:12889   */\n      swap3\n      pop\n        /* \"#utility.yul\":12912:12913   */\n      dup3\n        /* \"#utility.yul\":12909:12910   */\n      dup3\n        /* \"#utility.yul\":12905:12914   */\n      add\n        /* \"#utility.yul\":12898:12914   */\n      swap1\n      pop\n        /* \"#utility.yul\":12933:12936   */\n      dup1\n        /* \"#utility.yul\":12930:12931   */\n      dup3\n        /* \"#utility.yul\":12927:12937   */\n      gt\n        /* \"#utility.yul\":12924:12960   */\n      iszero\n      tag_465\n      jumpi\n        /* \"#utility.yul\":12940:12958   */\n      tag_466\n      tag_308\n      jump\t// in\n    tag_466:\n        /* \"#utility.yul\":12924:12960   */\n    tag_465:\n        /* \"#utility.yul\":12776:12967   */\n      swap3\n      swap2\n      pop\n      pop\n      jump\t// out\n        /* \"#utility.yul\":12973:13071   */\n    tag_309:\n        /* \"#utility.yul\":13024:13030   */\n      0x00\n        /* \"#utility.yul\":13058:13063   */\n      dup2\n        /* \"#utility.yul\":13052:13064   */\n      mload\n        /* \"#utility.yul\":13042:13064   */\n      swap1\n      pop\n        /* \"#utility.yul\":12973:13071   */\n      swap2\n      swap1\n      pop\n      jump\t// out\n        /* \"#utility.yul\":13077:13245   */\n    tag_310:\n        /* \"#utility.yul\":13160:13171   */\n      0x00\n        /* \"#utility.yul\":13194:13200   */\n      dup3\n        /* \"#utility.yul\":13189:13192   */\n      dup3\n        /* \"#utility.yul\":13182:13201   */\n      mstore\n        /* \"#utility.yul\":13234:13238   */\n      0x20\n        /* \"#utility.yul\":13229:13232   */\n      dup3\n        /* \"#utility.yul\":13225:13239   */\n      add\n        /* \"#utility.yul\":13210:13239   */\n      swap1\n      pop\n        /* \"#utility.yul\":13077:13245   */\n      swap3\n      swap2\n      pop\n      pop\n      jump\t// out\n        /* \"#utility.yul\":13251:13624   */\n    tag_311:\n        /* \"#utility.yul\":13337:13340   */\n      0x00\n        /* \"#utility.yul\":13365:13403   */\n      tag_470\n        /* \"#utility.yul\":13397:13402   */\n      dup3\n        /* \"#utility.yul\":13365:13403   */\n      tag_309\n      jump\t// in\n    tag_470:\n        /* \"#utility.yul\":13419:13489   */\n      tag_471\n        /* \"#utility.yul\":13482:13488   */\n      dup2\n        /* \"#utility.yul\":13477:13480   */\n      dup6\n        /* \"#utility.yul\":13419:13489   */\n      tag_310\n      jump\t// in\n    tag_471:\n        /* \"#utility.yul\":13412:13489   */\n      swap4\n      pop\n        /* \"#utility.yul\":13498:13563   */\n      tag_472\n        /* \"#utility.yul\":13556:13562   */\n      dup2\n        /* \"#utility.yul\":13551:13554   */\n      dup6\n        /* \"#utility.yul\":13544:13548   */\n      0x20\n        /* \"#utility.yul\":13537:13542   */\n      dup7\n        /* \"#utility.yul\":13533:13549   */\n      add\n        /* \"#utility.yul\":13498:13563   */\n      tag_283\n      jump\t// in\n    tag_472:\n        /* \"#utility.yul\":13588:13617   */\n      tag_473\n        /* \"#utility.yul\":13610:13616   */\n      dup2\n        /* \"#utility.yul\":13588:13617   */\n      tag_284\n      jump\t// in\n    tag_473:\n        /* \"#utility.yul\":13583:13586   */\n      dup5\n        /* \"#utility.yul\":13579:13618   */\n      add\n        /* \"#utility.yul\":13572:13618   */\n      swap2\n      pop\n        /* \"#utility.yul\":13341:13624   */\n      pop\n        /* \"#utility.yul\":13251:13624   */\n      swap3\n      swap2\n      pop\n      pop\n      jump\t// out\n        /* \"#utility.yul\":13630:14270   */\n    tag_233:\n        /* \"#utility.yul\":13825:13829   */\n      0x00\n        /* \"#utility.yul\":13863:13866   */\n      0x80\n        /* \"#utility.yul\":13852:13861   */\n      dup3\n        /* \"#utility.yul\":13848:13867   */\n      add\n        /* \"#utility.yul\":13840:13867   */\n      swap1\n      pop\n        /* \"#utility.yul\":13877:13948   */\n      tag_475\n        /* \"#utility.yul\":13945:13946   */\n      0x00\n        /* \"#utility.yul\":13934:13943   */\n      dup4\n        /* \"#utility.yul\":13930:13947   */\n      add\n        /* \"#utility.yul\":13921:13927   */\n      dup8\n        /* \"#utility.yul\":13877:13948   */\n      tag_291\n      jump\t// in\n    tag_475:\n        /* \"#utility.yul\":13958:14030   */\n      tag_476\n        /* \"#utility.yul\":14026:14028   */\n      0x20\n        /* \"#utility.yul\":14015:14024   */\n      dup4\n        /* \"#utility.yul\":14011:14029   */\n      add\n        /* \"#utility.yul\":14002:14008   */\n      dup7\n        /* \"#utility.yul\":13958:14030   */\n      tag_291\n      jump\t// in\n    tag_476:\n        /* \"#utility.yul\":14040:14112   */\n      tag_477\n        /* \"#utility.yul\":14108:14110   */\n      0x40\n        /* \"#utility.yul\":14097:14106   */\n      dup4\n        /* \"#utility.yul\":14093:14111   */\n      add\n        /* \"#utility.yul\":14084:14090   */\n      dup6\n        /* \"#utility.yul\":14040:14112   */\n      tag_294\n      jump\t// in\n    tag_477:\n        /* \"#utility.yul\":14159:14168   */\n      dup2\n        /* \"#utility.yul\":14153:14157   */\n      dup2\n        /* \"#utility.yul\":14149:14169   */\n      sub\n        /* \"#utility.yul\":14144:14146   */\n      0x60\n        /* \"#utility.yul\":14133:14142   */\n      dup4\n        /* \"#utility.yul\":14129:14147   */\n      add\n        /* \"#utility.yul\":14122:14170   */\n      mstore\n        /* \"#utility.yul\":14187:14263   */\n      tag_478\n        /* \"#utility.yul\":14258:14262   */\n      dup2\n        /* \"#utility.yul\":14249:14255   */\n      dup5\n        /* \"#utility.yul\":14187:14263   */\n      tag_311\n      jump\t// in\n    tag_478:\n        /* \"#utility.yul\":14179:14263   */\n      swap1\n      pop\n        /* \"#utility.yul\":13630:14270   */\n      swap6\n      swap5\n      pop\n      pop\n      pop\n      pop\n      pop\n      jump\t// out\n        /* \"#utility.yul\":14276:14417   */\n    tag_312:\n        /* \"#utility.yul\":14332:14337   */\n      0x00\n        /* \"#utility.yul\":14363:14369   */\n      dup2\n        /* \"#utility.yul\":14357:14370   */\n      mload\n        /* \"#utility.yul\":14348:14370   */\n      swap1\n      pop\n        /* \"#utility.yul\":14379:14411   */\n      tag_480\n        /* \"#utility.yul\":14405:14410   */\n      dup2\n        /* \"#utility.yul\":14379:14411   */\n      tag_277\n      jump\t// in\n    tag_480:\n        /* \"#utility.yul\":14276:14417   */\n      swap3\n      swap2\n      pop\n      pop\n      jump\t// out\n        /* \"#utility.yul\":14423:14772   */\n    tag_236:\n        /* \"#utility.yul\":14492:14498   */\n      0x00\n        /* \"#utility.yul\":14541:14543   */\n      0x20\n        /* \"#utility.yul\":14529:14538   */\n      dup3\n        /* \"#utility.yul\":14520:14527   */\n      dup5\n        /* \"#utility.yul\":14516:14539   */\n      sub\n        /* \"#utility.yul\":14512:14544   */\n      slt\n        /* \"#utility.yul\":14509:14628   */\n      iszero\n      tag_482\n      jumpi\n        /* \"#utility.yul\":14547:14626   */\n      tag_483\n      tag_274\n      jump\t// in\n    tag_483:\n        /* \"#utility.yul\":14509:14628   */\n    tag_482:\n        /* \"#utility.yul\":14667:14668   */\n      0x00\n        /* \"#utility.yul\":14692:14755   */\n      tag_484\n        /* \"#utility.yul\":14747:14754   */\n      dup5\n        /* \"#utility.yul\":14738:14744   */\n      dup3\n        /* \"#utility.yul\":14727:14736   */\n      dup6\n        /* \"#utility.yul\":14723:14745   */\n      add\n        /* \"#utility.yul\":14692:14755   */\n      tag_312\n      jump\t// in\n    tag_484:\n        /* \"#utility.yul\":14682:14755   */\n      swap2\n      pop\n        /* \"#utility.yul\":14638:14765   */\n      pop\n        /* \"#utility.yul\":14423:14772   */\n      swap3\n      swap2\n      pop\n      pop\n      jump\t// out\n        /* \"#utility.yul\":14778:15011   */\n    tag_252:\n        /* \"#utility.yul\":14817:14820   */\n      0x00\n        /* \"#utility.yul\":14840:14864   */\n      tag_486\n        /* \"#utility.yul\":14858:14863   */\n      dup3\n        /* \"#utility.yul\":14840:14864   */\n      tag_286\n      jump\t// in\n    tag_486:\n        /* \"#utility.yul\":14831:14864   */\n      swap2\n      pop\n        /* \"#utility.yul\":14886:14952   */\n      0xffffffffffffffffffffffffffffffffffffffffffffffffffffffffffffffff\n        /* \"#utility.yul\":14879:14884   */\n      dup3\n        /* \"#utility.yul\":14876:14953   */\n      sub\n        /* \"#utility.yul\":14873:14976   */\n      tag_487\n      jumpi\n        /* \"#utility.yul\":14956:14974   */\n      tag_488\n      tag_308\n      jump\t// in\n    tag_488:\n        /* \"#utility.yul\":14873:14976   */\n    tag_487:\n        /* \"#utility.yul\":15003:15004   */\n      0x01\n        /* \"#utility.yul\":14996:15001   */\n      dup3\n        /* \"#utility.yul\":14992:15005   */\n      add\n        /* \"#utility.yul\":14985:15005   */\n      swap1\n      pop\n        /* \"#utility.yul\":14778:15011   */\n      swap2\n      swap1\n      pop\n      jump\t// out\n        /* \"#utility.yul\":15017:15197   */\n    tag_313:\n        /* \"#utility.yul\":15065:15142   */\n      0x4e487b7100000000000000000000000000000000000000000000000000000000\n        /* \"#utility.yul\":15062:15063   */\n      0x00\n        /* \"#utility.yul\":15055:15143   */\n      mstore\n        /* \"#utility.yul\":15162:15166   */\n      0x12\n        /* \"#utility.yul\":15159:15160   */\n      0x04\n        /* \"#utility.yul\":15152:15167   */\n      mstore\n        /* \"#utility.yul\":15186:15190   */\n      0x24\n        /* \"#utility.yul\":15183:15184   */\n      0x00\n        /* \"#utility.yul\":15176:15191   */\n      revert\n        /* \"#utility.yul\":15203:15388   */\n    tag_254:\n        /* \"#utility.yul\":15243:15244   */\n      0x00\n        /* \"#utility.yul\":15260:15280   */\n      tag_491\n        /* \"#utility.yul\":15278:15279   */\n      dup3\n        /* \"#utility.yul\":15260:15280   */\n      tag_286\n      jump\t// in\n    tag_491:\n        /* \"#utility.yul\":15255:15280   */\n      swap2\n      pop\n        /* \"#utility.yul\":15294:15314   */\n      tag_492\n        /* \"#utility.yul\":15312:15313   */\n      dup4\n        /* \"#utility.yul\":15294:15314   */\n      tag_286\n      jump\t// in\n    tag_492:\n        /* \"#utility.yul\":15289:15314   */\n      swap3\n      pop\n        /* \"#utility.yul\":15333:15334   */\n      dup3\n        /* \"#utility.yul\":15323:15358   */\n      tag_493\n      jumpi\n        /* \"#utility.yul\":15338:15356   */\n      tag_494\n      tag_313\n      jump\t// in\n    tag_494:\n        /* \"#utility.yul\":15323:15358   */\n    tag_493:\n        /* \"#utility.yul\":15380:15381   */\n      dup3\n        /* \"#utility.yul\":15377:15378   */\n      dup3\n        /* \"#utility.yul\":15373:15382   */\n      div\n        /* \"#utility.yul\":15368:15382   */\n      swap1\n      pop\n        /* \"#utility.yul\":15203:15388   */\n      swap3\n      swap2\n      pop\n      pop\n      jump\t// out\n        /* \"#utility.yul\":15394:15570   */\n    tag_263:\n        /* \"#utility.yul\":15426:15427   */\n      0x00\n        /* \"#utility.yul\":15443:15463   */\n      tag_496\n        /* \"#utility.yul\":15461:15462   */\n      dup3\n        /* \"#utility.yul\":15443:15463   */\n      tag_286\n      jump\t// in\n    tag_496:\n        /* \"#utility.yul\":15438:15463   */\n      swap2\n      pop\n        /* \"#utility.yul\":15477:15497   */\n      tag_497\n        /* \"#utility.yul\":15495:15496   */\n      dup4\n        /* \"#utility.yul\":15477:15497   */\n      tag_286\n      jump\t// in\n    tag_497:\n        /* \"#utility.yul\":15472:15497   */\n      swap3\n      pop\n        /* \"#utility.yul\":15516:15517   */\n      dup3\n        /* \"#utility.yul\":15506:15541   */\n      tag_498\n      jumpi\n        /* \"#utility.yul\":15521:15539   */\n      tag_499\n      tag_313\n      jump\t// in\n    tag_499:\n        /* \"#utility.yul\":15506:15541   */\n    tag_498:\n        /* \"#utility.yul\":15562:15563   */\n      dup3\n        /* \"#utility.yul\":15559:15560   */\n      dup3\n        /* \"#utility.yul\":15555:15564   */\n      mod\n        /* \"#utility.yul\":15550:15564   */\n      swap1\n      pop\n        /* \"#utility.yul\":15394:15570   */\n      swap3\n      swap2\n      pop\n      pop\n      jump\t// out\n        /* \"#utility.yul\":15576:15756   */\n    tag_267:\n        /* \"#utility.yul\":15624:15701   */\n      0x4e487b7100000000000000000000000000000000000000000000000000000000\n        /* \"#utility.yul\":15621:15622   */\n      0x00\n        /* \"#utility.yul\":15614:15702   */\n      mstore\n        /* \"#utility.yul\":15721:15725   */\n      0x32\n        /* \"#utility.yul\":15718:15719   */\n      0x04\n        /* \"#utility.yul\":15711:15726   */\n      mstore\n        /* \"#utility.yul\":15745:15749   */\n      0x24\n        /* \"#utility.yul\":15742:15743   */\n      0x00\n        /* \"#utility.yul\":15735:15750   */\n      revert\n    stop\n    data_626642f6930f156f677ccaa99d1115840f2527d6f062eede1de4dda1bd081a2d 68747470733a2f2f676174657761792e70696e6174612e636c6f75642f697066732f516d65794b6e7658584d78417557473570743335457a3851684a6852363352445653775566736a4b61795234325a2f\n\n    auxdata: 0xa26469706673582212206c1fb9fba4e5d1ae93750b149d04fb1d6b9248c41942ec55f05045a8d48a8f5f64736f6c63430008110033\n}\n",
				"bytecode": {
					"linkReferences": {},
					"object": "60806040523480156200001157600080fd5b50604051620029cc380380620029cc833981810160405281019062000037919062000264565b84600590816200004891906200056b565b5083600690816200005a91906200056b565b5082600381905550620000726200009160201b60201c565b6002819055508160008190555080600181905550505050505062000652565b600090565b6000604051905090565b600080fd5b600080fd5b600080fd5b600080fd5b6000601f19601f8301169050919050565b7f4e487b7100000000000000000000000000000000000000000000000000000000600052604160045260246000fd5b620000ff82620000b4565b810181811067ffffffffffffffff82111715620001215762000120620000c5565b5b80604052505050565b60006200013662000096565b9050620001448282620000f4565b919050565b600067ffffffffffffffff821115620001675762000166620000c5565b5b6200017282620000b4565b9050602081019050919050565b60005b838110156200019f57808201518184015260208101905062000182565b60008484015250505050565b6000620001c2620001bc8462000149565b6200012a565b905082815260208101848484011115620001e157620001e0620000af565b5b620001ee8482856200017f565b509392505050565b600082601f8301126200020e576200020d620000aa565b5b815162000220848260208601620001ab565b91505092915050565b6000819050919050565b6200023e8162000229565b81146200024a57600080fd5b50565b6000815190506200025e8162000233565b92915050565b600080600080600060a08688031215620002835762000282620000a0565b5b600086015167ffffffffffffffff811115620002a457620002a3620000a5565b5b620002b288828901620001f6565b955050602086015167ffffffffffffffff811115620002d657620002d5620000a5565b5b620002e488828901620001f6565b9450506040620002f7888289016200024d565b93505060606200030a888289016200024d565b92505060806200031d888289016200024d565b9150509295509295909350565b600081519050919050565b7f4e487b7100000000000000000000000000000000000000000000000000000000600052602260045260246000fd5b600060028204905060018216806200037d57607f821691505b60208210810362000393576200039262000335565b5b50919050565b60008190508160005260206000209050919050565b60006020601f8301049050919050565b600082821b905092915050565b600060088302620003fd7fffffffffffffffffffffffffffffffffffffffffffffffffffffffffffffffff82620003be565b620004098683620003be565b95508019841693508086168417925050509392505050565b6000819050919050565b60006200044c62000446620004408462000229565b62000421565b62000229565b9050919050565b6000819050919050565b62000468836200042b565b62000480620004778262000453565b848454620003cb565b825550505050565b600090565b6200049762000488565b620004a48184846200045d565b505050565b5b81811015620004cc57620004c06000826200048d565b600181019050620004aa565b5050565b601f8211156200051b57620004e58162000399565b620004f084620003ae565b8101602085101562000500578190505b620005186200050f85620003ae565b830182620004a9565b50505b505050565b600082821c905092915050565b6000620005406000198460080262000520565b1980831691505092915050565b60006200055b83836200052d565b9150826002028217905092915050565b62000576826200032a565b67ffffffffffffffff811115620005925762000591620000c5565b5b6200059e825462000364565b620005ab828285620004d0565b600060209050601f831160018114620005e35760008415620005ce578287015190505b620005da85826200054d565b8655506200064a565b601f198416620005f38662000399565b60005b828110156200061d57848901518255600182019150602085019450602081019050620005f6565b868310156200063d578489015162000639601f8916826200052d565b8355505b6001600288020188555050505b505050505050565b61236a80620006626000396000f3fe608060405234801561001057600080fd5b50600436106101165760003560e01c80636352211e116100a2578063a22cb46511610071578063a22cb465146102f5578063b88d4fde14610311578063c87b56dd1461032d578063d5abeb011461035d578063e985e9c51461037b57610116565b80636352211e1461025957806370a082311461028957806395d89b41146102b95780639f773399146102d757610116565b806318160ddd116100e957806318160ddd146101b557806323b872dd146101d3578063325b272a146101ef57806338020dcc1461021f57806342842e0e1461023d57610116565b806301ffc9a71461011b57806306fdde031461014b578063081812fc14610169578063095ea7b314610199575b600080fd5b61013560048036038101906101309190611a11565b6103ab565b6040516101429190611a59565b60405180910390f35b61015361048d565b6040516101609190611b04565b60405180910390f35b610183600480360381019061017e9190611b5c565b61051f565b6040516101909190611bca565b60405180910390f35b6101b360048036038101906101ae9190611c11565b61059b565b005b6101bd61069f565b6040516101ca9190611c60565b60405180910390f35b6101ed60048036038101906101e89190611c7b565b6106b6565b005b61020960048036038101906102049190611cce565b6106c6565b6040516102169190611c60565b60405180910390f35b6102276107c1565b6040516102349190611c60565b60405180910390f35b61025760048036038101906102529190611c7b565b6107c7565b005b610273600480360381019061026e9190611b5c565b6107e7565b6040516102809190611bca565b60405180910390f35b6102a3600480360381019061029e9190611cce565b6107fd565b6040516102b09190611c60565b60405180910390f35b6102c16108cc565b6040516102ce9190611b04565b60405180910390f35b6102df61095e565b6040516102ec9190611c60565b60405180910390f35b61030f600480360381019061030a9190611d27565b610964565b005b61032b60048036038101906103269190611e9c565b610adb565b005b61034760048036038101906103429190611b5c565b610b53565b6040516103549190611b04565b60405180910390f35b610365610bf1565b6040516103729190611c60565b60405180910390f35b61039560048036038101906103909190611f1f565b610c08565b6040516103a29190611a59565b60405180910390f35b60007f80ac58cd000000000000000000000000000000000000000000000000000000007bffffffffffffffffffffffffffffffffffffffffffffffffffffffff1916827bffffffffffffffffffffffffffffffffffffffffffffffffffffffff1916148061047657507f5b5e139f000000000000000000000000000000000000000000000000000000007bffffffffffffffffffffffffffffffffffffffffffffffffffffffff1916827bffffffffffffffffffffffffffffffffffffffffffffffffffffffff1916145b80610486575061048582610c9c565b5b9050919050565b60606005805461049c90611f8e565b80601f01602080910402602001604051908101604052809291908181526020018280546104c890611f8e565b80156105155780601f106104ea57610100808354040283529160200191610515565b820191906000526020600020905b8154815290600101906020018083116104f857829003601f168201915b5050505050905090565b600061052a82610d06565b610560576040517fcf4700e400000000000000000000000000000000000000000000000000000000815260040160405180910390fd5b6009600083815260200190815260200160002060009054906101000a900473ffffffffffffffffffffffffffffffffffffffff169050919050565b60006105a6826107e7565b90508073ffffffffffffffffffffffffffffffffffffffff168373ffffffffffffffffffffffffffffffffffffffff160361060d576040517f943f7b8c00000000000000000000000000000000000000000000000000000000815260040160405180910390fd5b8073ffffffffffffffffffffffffffffffffffffffff1661062c610d54565b73ffffffffffffffffffffffffffffffffffffffff161461068f5761065881610653610d54565b610c08565b61068e576040517fcfb3b94200000000000000000000000000000000000000000000000000000000815260040160405180910390fd5b5b61069a838383610d5c565b505050565b60006106a9610e0e565b6004546002540303905090565b6106c1838383610e13565b505050565b60008061072d600b60008573ffffffffffffffffffffffffffffffffffffffff1673ffffffffffffffffffffffffffffffffffffffff16815260200190815260200160002060006001815260200190815260200160002054436112d990919063ffffffff16565b9050600061074c8261073e866107fd565b6112ef90919063ffffffff16565b905060006107b482600b60008873ffffffffffffffffffffffffffffffffffffffff1673ffffffffffffffffffffffffffffffffffffffff1681526020019081526020016000206000600281526020019081526020016000205461130590919063ffffffff16565b9050809350505050919050565b60015481565b6107e283838360405180602001604052806000815250610adb565b505050565b60006107f28261131b565b600001519050919050565b60008073ffffffffffffffffffffffffffffffffffffffff168273ffffffffffffffffffffffffffffffffffffffff1603610864576040517f8f4eb60400000000000000000000000000000000000000000000000000000000815260040160405180910390fd5b600860008373ffffffffffffffffffffffffffffffffffffffff1673ffffffffffffffffffffffffffffffffffffffff16815260200190815260200160002060000160009054906101000a900467ffffffffffffffff1667ffffffffffffffff169050919050565b6060600680546108db90611f8e565b80601f016020809104026020016040519081016040528092919081815260200182805461090790611f8e565b80156109545780601f1061092957610100808354040283529160200191610954565b820191906000526020600020905b81548152906001019060200180831161093757829003601f168201915b5050505050905090565b60005481565b61096c610d54565b73ffffffffffffffffffffffffffffffffffffffff168273ffffffffffffffffffffffffffffffffffffffff16036109d0576040517fb06307db00000000000000000000000000000000000000000000000000000000815260040160405180910390fd5b80600a60006109dd610d54565b73ffffffffffffffffffffffffffffffffffffffff1673ffffffffffffffffffffffffffffffffffffffff16815260200190815260200160002060008473ffffffffffffffffffffffffffffffffffffffff1673ffffffffffffffffffffffffffffffffffffffff16815260200190815260200160002060006101000a81548160ff0219169083151502179055508173ffffffffffffffffffffffffffffffffffffffff16610a8a610d54565b73ffffffffffffffffffffffffffffffffffffffff167f17307eab39ab6107e8899845ad3d59bd9653f200f220920489ca2b5937696c3183604051610acf9190611a59565b60405180910390a35050565b610ae6848484610e13565b610b058373ffffffffffffffffffffffffffffffffffffffff166115a6565b15610b4d57610b16848484846115c9565b610b4c576040517fd1a57ed600000000000000000000000000000000000000000000000000000000815260040160405180910390fd5b5b50505050565b6060610b5e82610d06565b610b94576040517fa14c4b5000000000000000000000000000000000000000000000000000000000815260040160405180910390fd5b6000610b9e611719565b90506000815103610bbe5760405180602001604052806000815250610be9565b80610bc884611739565b604051602001610bd9929190611ffb565b6040516020818303038152906040525b915050919050565b6000610bfb610e0e565b6004546003540303905090565b6000600a60008473ffffffffffffffffffffffffffffffffffffffff1673ffffffffffffffffffffffffffffffffffffffff16815260200190815260200160002060008373ffffffffffffffffffffffffffffffffffffffff1673ffffffffffffffffffffffffffffffffffffffff16815260200190815260200160002060009054906101000a900460ff16905092915050565b60007f01ffc9a7000000000000000000000000000000000000000000000000000000007bffffffffffffffffffffffffffffffffffffffffffffffffffffffff1916827bffffffffffffffffffffffffffffffffffffffffffffffffffffffff1916149050919050565b600081610d11610e0e565b11158015610d20575060025482105b8015610d4d575060076000838152602001908152602001600020600001601c9054906101000a900460ff16155b9050919050565b600033905090565b826009600084815260200190815260200160002060006101000a81548173ffffffffffffffffffffffffffffffffffffffff021916908373ffffffffffffffffffffffffffffffffffffffff160217905550818373ffffffffffffffffffffffffffffffffffffffff168273ffffffffffffffffffffffffffffffffffffffff167f8c5be1e5ebec7d5bd14f71427d1e84f3dd0314c0f7b2291e5b200ac8c7c3b92560405160405180910390a4505050565b600090565b610e1c83611899565b610e2582611899565b6000610e308261131b565b90508373ffffffffffffffffffffffffffffffffffffffff16816000015173ffffffffffffffffffffffffffffffffffffffff1614610e9b576040517fa114810000000000000000000000000000000000000000000000000000000000815260040160405180910390fd5b60008473ffffffffffffffffffffffffffffffffffffffff16610ebc610d54565b73ffffffffffffffffffffffffffffffffffffffff161480610eeb5750610eea85610ee5610d54565b610c08565b5b80610f305750610ef9610d54565b73ffffffffffffffffffffffffffffffffffffffff16610f188461051f565b73ffffffffffffffffffffffffffffffffffffffff16145b905080610f69576040517f59c896be00000000000000000000000000000000000000000000000000000000815260040160405180910390fd5b600073ffffffffffffffffffffffffffffffffffffffff168473ffffffffffffffffffffffffffffffffffffffff1603610fcf576040517fea553b3400000000000000000000000000000000000000000000000000000000815260040160405180910390fd5b610fdc8585856001611956565b610fe860008487610d5c565b6001600860008773ffffffffffffffffffffffffffffffffffffffff1673ffffffffffffffffffffffffffffffffffffffff16815260200190815260200160002060000160008282829054906101000a900467ffffffffffffffff160392506101000a81548167ffffffffffffffff021916908367ffffffffffffffff1602179055506001600860008673ffffffffffffffffffffffffffffffffffffffff1673ffffffffffffffffffffffffffffffffffffffff16815260200190815260200160002060000160008282829054906101000a900467ffffffffffffffff160192506101000a81548167ffffffffffffffff021916908367ffffffffffffffff1602179055506000600760008581526020019081526020016000209050848160000160006101000a81548173ffffffffffffffffffffffffffffffffffffffff021916908373ffffffffffffffffffffffffffffffffffffffff160217905550428160000160146101000a81548167ffffffffffffffff021916908367ffffffffffffffff16021790555060006001850190506000600760008381526020019081526020016000209050600073ffffffffffffffffffffffffffffffffffffffff168160000160009054906101000a900473ffffffffffffffffffffffffffffffffffffffff1673ffffffffffffffffffffffffffffffffffffffff160361126757600254821461126657878160000160006101000a81548173ffffffffffffffffffffffffffffffffffffffff021916908373ffffffffffffffffffffffffffffffffffffffff16021790555084602001518160000160146101000a81548167ffffffffffffffff021916908367ffffffffffffffff1602179055505b5b505050828473ffffffffffffffffffffffffffffffffffffffff168673ffffffffffffffffffffffffffffffffffffffff167fddf252ad1be2c89b69c2b068fc378daa952ba7f163c4a11628f55a4df523b3ef60405160405180910390a46112d2858585600161195c565b5050505050565b600081836112e7919061204e565b905092915050565b600081836112fd9190612082565b905092915050565b6000818361131391906120c4565b905092915050565b611323611962565b600082905080611331610e0e565b1161156f5760025481101561156e576000600760008381526020019081526020016000206040518060600160405290816000820160009054906101000a900473ffffffffffffffffffffffffffffffffffffffff1673ffffffffffffffffffffffffffffffffffffffff1673ffffffffffffffffffffffffffffffffffffffff1681526020016000820160149054906101000a900467ffffffffffffffff1667ffffffffffffffff1667ffffffffffffffff16815260200160008201601c9054906101000a900460ff1615151515815250509050806040015161156c57600073ffffffffffffffffffffffffffffffffffffffff16816000015173ffffffffffffffffffffffffffffffffffffffff16146114505780925050506115a1565b5b60011561156b57818060019003925050600760008381526020019081526020016000206040518060600160405290816000820160009054906101000a900473ffffffffffffffffffffffffffffffffffffffff1673ffffffffffffffffffffffffffffffffffffffff1673ffffffffffffffffffffffffffffffffffffffff1681526020016000820160149054906101000a900467ffffffffffffffff1667ffffffffffffffff1667ffffffffffffffff16815260200160008201601c9054906101000a900460ff1615151515815250509050600073ffffffffffffffffffffffffffffffffffffffff16816000015173ffffffffffffffffffffffffffffffffffffffff16146115665780925050506115a1565b611451565b5b505b5b6040517fdf2d9b4200000000000000000000000000000000000000000000000000000000815260040160405180910390fd5b919050565b6000808273ffffffffffffffffffffffffffffffffffffffff163b119050919050565b60008373ffffffffffffffffffffffffffffffffffffffff1663150b7a026115ef610d54565b8786866040518563ffffffff1660e01b8152600401611611949392919061214d565b6020604051808303816000875af192505050801561164d57506040513d601f19601f8201168201806040525081019061164a91906121ae565b60015b6116c6573d806000811461167d576040519150601f19603f3d011682016040523d82523d6000602084013e611682565b606091505b5060008151036116be576040517fd1a57ed600000000000000000000000000000000000000000000000000000000815260040160405180910390fd5b805181602001fd5b63150b7a0260e01b7bffffffffffffffffffffffffffffffffffffffffffffffffffffffff1916817bffffffffffffffffffffffffffffffffffffffffffffffffffffffff191614915050949350505050565b60606040518060800160405280605181526020016122e460519139905090565b606060008203611780576040518060400160405280600181526020017f30000000000000000000000000000000000000000000000000000000000000008152509050611894565b600082905060005b600082146117b257808061179b906121db565b915050600a826117ab9190612252565b9150611788565b60008167ffffffffffffffff8111156117ce576117cd611d71565b5b6040519080825280601f01601f1916602001820160405280156118005781602001600182028036833780820191505090505b5090505b6000851461188d57600182611819919061204e565b9150600a856118289190612283565b603061183491906120c4565b60f81b81838151811061184a576118496122b4565b5b60200101907effffffffffffffffffffffffffffffffffffffffffffffffffffffffffffff1916908160001a905350600a856118869190612252565b9450611804565b8093505050505b919050565b60006118a4826106c6565b905080600b60008473ffffffffffffffffffffffffffffffffffffffff1673ffffffffffffffffffffffffffffffffffffffff1681526020019081526020016000206000600281526020019081526020016000208190555043600b60008473ffffffffffffffffffffffffffffffffffffffff1673ffffffffffffffffffffffffffffffffffffffff168152602001908152602001600020600060018152602001908152602001600020819055505050565b50505050565b50505050565b6040518060600160405280600073ffffffffffffffffffffffffffffffffffffffff168152602001600067ffffffffffffffff1681526020016000151581525090565b6000604051905090565b600080fd5b600080fd5b60007fffffffff0000000000000000000000000000000000000000000000000000000082169050919050565b6119ee816119b9565b81146119f957600080fd5b50565b600081359050611a0b816119e5565b92915050565b600060208284031215611a2757611a266119af565b5b6000611a35848285016119fc565b91505092915050565b60008115159050919050565b611a5381611a3e565b82525050565b6000602082019050611a6e6000830184611a4a565b92915050565b600081519050919050565b600082825260208201905092915050565b60005b83811015611aae578082015181840152602081019050611a93565b60008484015250505050565b6000601f19601f8301169050919050565b6000611ad682611a74565b611ae08185611a7f565b9350611af0818560208601611a90565b611af981611aba565b840191505092915050565b60006020820190508181036000830152611b1e8184611acb565b905092915050565b6000819050919050565b611b3981611b26565b8114611b4457600080fd5b50565b600081359050611b5681611b30565b92915050565b600060208284031215611b7257611b716119af565b5b6000611b8084828501611b47565b91505092915050565b600073ffffffffffffffffffffffffffffffffffffffff82169050919050565b6000611bb482611b89565b9050919050565b611bc481611ba9565b82525050565b6000602082019050611bdf6000830184611bbb565b92915050565b611bee81611ba9565b8114611bf957600080fd5b50565b600081359050611c0b81611be5565b92915050565b60008060408385031215611c2857611c276119af565b5b6000611c3685828601611bfc565b9250506020611c4785828601611b47565b9150509250929050565b611c5a81611b26565b82525050565b6000602082019050611c756000830184611c51565b92915050565b600080600060608486031215611c9457611c936119af565b5b6000611ca286828701611bfc565b9350506020611cb386828701611bfc565b9250506040611cc486828701611b47565b9150509250925092565b600060208284031215611ce457611ce36119af565b5b6000611cf284828501611bfc565b91505092915050565b611d0481611a3e565b8114611d0f57600080fd5b50565b600081359050611d2181611cfb565b92915050565b60008060408385031215611d3e57611d3d6119af565b5b6000611d4c85828601611bfc565b9250506020611d5d85828601611d12565b9150509250929050565b600080fd5b600080fd5b7f4e487b7100000000000000000000000000000000000000000000000000000000600052604160045260246000fd5b611da982611aba565b810181811067ffffffffffffffff82111715611dc857611dc7611d71565b5b80604052505050565b6000611ddb6119a5565b9050611de78282611da0565b919050565b600067ffffffffffffffff821115611e0757611e06611d71565b5b611e1082611aba565b9050602081019050919050565b82818337600083830152505050565b6000611e3f611e3a84611dec565b611dd1565b905082815260208101848484011115611e5b57611e5a611d6c565b5b611e66848285611e1d565b509392505050565b600082601f830112611e8357611e82611d67565b5b8135611e93848260208601611e2c565b91505092915050565b60008060008060808587031215611eb657611eb56119af565b5b6000611ec487828801611bfc565b9450506020611ed587828801611bfc565b9350506040611ee687828801611b47565b925050606085013567ffffffffffffffff811115611f0757611f066119b4565b5b611f1387828801611e6e565b91505092959194509250565b60008060408385031215611f3657611f356119af565b5b6000611f4485828601611bfc565b9250506020611f5585828601611bfc565b9150509250929050565b7f4e487b7100000000000000000000000000000000000000000000000000000000600052602260045260246000fd5b60006002820490506001821680611fa657607f821691505b602082108103611fb957611fb8611f5f565b5b50919050565b600081905092915050565b6000611fd582611a74565b611fdf8185611fbf565b9350611fef818560208601611a90565b80840191505092915050565b60006120078285611fca565b91506120138284611fca565b91508190509392505050565b7f4e487b7100000000000000000000000000000000000000000000000000000000600052601160045260246000fd5b600061205982611b26565b915061206483611b26565b925082820390508181111561207c5761207b61201f565b5b92915050565b600061208d82611b26565b915061209883611b26565b92508282026120a681611b26565b915082820484148315176120bd576120bc61201f565b5b5092915050565b60006120cf82611b26565b91506120da83611b26565b92508282019050808211156120f2576120f161201f565b5b92915050565b600081519050919050565b600082825260208201905092915050565b600061211f826120f8565b6121298185612103565b9350612139818560208601611a90565b61214281611aba565b840191505092915050565b60006080820190506121626000830187611bbb565b61216f6020830186611bbb565b61217c6040830185611c51565b818103606083015261218e8184612114565b905095945050505050565b6000815190506121a8816119e5565b92915050565b6000602082840312156121c4576121c36119af565b5b60006121d284828501612199565b91505092915050565b60006121e682611b26565b91507fffffffffffffffffffffffffffffffffffffffffffffffffffffffffffffffff82036122185761221761201f565b5b600182019050919050565b7f4e487b7100000000000000000000000000000000000000000000000000000000600052601260045260246000fd5b600061225d82611b26565b915061226883611b26565b92508261227857612277612223565b5b828204905092915050565b600061228e82611b26565b915061229983611b26565b9250826122a9576122a8612223565b5b828206905092915050565b7f4e487b7100000000000000000000000000000000000000000000000000000000600052603260045260246000fdfe68747470733a2f2f676174657761792e70696e6174612e636c6f75642f697066732f516d65794b6e7658584d78417557473570743335457a3851684a6852363352445653775566736a4b61795234325a2fa26469706673582212206c1fb9fba4e5d1ae93750b149d04fb1d6b9248c41942ec55f05045a8d48a8f5f64736f6c63430008110033",
					"opcodes": "PUSH1 0x80 PUSH1 0x40 MSTORE CALLVALUE DUP1 ISZERO PUSH3 0x11 JUMPI PUSH1 0x0 DUP1 REVERT JUMPDEST POP PUSH1 0x40 MLOAD PUSH3 0x29CC CODESIZE SUB DUP1 PUSH3 0x29CC DUP4 CODECOPY DUP2 DUP2 ADD PUSH1 0x40 MSTORE DUP2 ADD SWAP1 PUSH3 0x37 SWAP2 SWAP1 PUSH3 0x264 JUMP JUMPDEST DUP5 PUSH1 0x5 SWAP1 DUP2 PUSH3 0x48 SWAP2 SWAP1 PUSH3 0x56B JUMP JUMPDEST POP DUP4 PUSH1 0x6 SWAP1 DUP2 PUSH3 0x5A SWAP2 SWAP1 PUSH3 0x56B JUMP JUMPDEST POP DUP3 PUSH1 0x3 DUP2 SWAP1 SSTORE POP PUSH3 0x72 PUSH3 0x91 PUSH1 0x20 SHL PUSH1 0x20 SHR JUMP JUMPDEST PUSH1 0x2 DUP2 SWAP1 SSTORE POP DUP2 PUSH1 0x0 DUP2 SWAP1 SSTORE POP DUP1 PUSH1 0x1 DUP2 SWAP1 SSTORE POP POP POP POP POP POP PUSH3 0x652 JUMP JUMPDEST PUSH1 0x0 SWAP1 JUMP JUMPDEST PUSH1 0x0 PUSH1 0x40 MLOAD SWAP1 POP SWAP1 JUMP JUMPDEST PUSH1 0x0 DUP1 REVERT JUMPDEST PUSH1 0x0 DUP1 REVERT JUMPDEST PUSH1 0x0 DUP1 REVERT JUMPDEST PUSH1 0x0 DUP1 REVERT JUMPDEST PUSH1 0x0 PUSH1 0x1F NOT PUSH1 0x1F DUP4 ADD AND SWAP1 POP SWAP2 SWAP1 POP JUMP JUMPDEST PUSH32 0x4E487B7100000000000000000000000000000000000000000000000000000000 PUSH1 0x0 MSTORE PUSH1 0x41 PUSH1 0x4 MSTORE PUSH1 0x24 PUSH1 0x0 REVERT JUMPDEST PUSH3 0xFF DUP3 PUSH3 0xB4 JUMP JUMPDEST DUP2 ADD DUP2 DUP2 LT PUSH8 0xFFFFFFFFFFFFFFFF DUP3 GT OR ISZERO PUSH3 0x121 JUMPI PUSH3 0x120 PUSH3 0xC5 JUMP JUMPDEST JUMPDEST DUP1 PUSH1 0x40 MSTORE POP POP POP JUMP JUMPDEST PUSH1 0x0 PUSH3 0x136 PUSH3 0x96 JUMP JUMPDEST SWAP1 POP PUSH3 0x144 DUP3 DUP3 PUSH3 0xF4 JUMP JUMPDEST SWAP2 SWAP1 POP JUMP JUMPDEST PUSH1 0x0 PUSH8 0xFFFFFFFFFFFFFFFF DUP3 GT ISZERO PUSH3 0x167 JUMPI PUSH3 0x166 PUSH3 0xC5 JUMP JUMPDEST JUMPDEST PUSH3 0x172 DUP3 PUSH3 0xB4 JUMP JUMPDEST SWAP1 POP PUSH1 0x20 DUP2 ADD SWAP1 POP SWAP2 SWAP1 POP JUMP JUMPDEST PUSH1 0x0 JUMPDEST DUP4 DUP2 LT ISZERO PUSH3 0x19F JUMPI DUP1 DUP3 ADD MLOAD DUP2 DUP5 ADD MSTORE PUSH1 0x20 DUP2 ADD SWAP1 POP PUSH3 0x182 JUMP JUMPDEST PUSH1 0x0 DUP5 DUP5 ADD MSTORE POP POP POP POP JUMP JUMPDEST PUSH1 0x0 PUSH3 0x1C2 PUSH3 0x1BC DUP5 PUSH3 0x149 JUMP JUMPDEST PUSH3 0x12A JUMP JUMPDEST SWAP1 POP DUP3 DUP2 MSTORE PUSH1 0x20 DUP2 ADD DUP5 DUP5 DUP5 ADD GT ISZERO PUSH3 0x1E1 JUMPI PUSH3 0x1E0 PUSH3 0xAF JUMP JUMPDEST JUMPDEST PUSH3 0x1EE DUP5 DUP3 DUP6 PUSH3 0x17F JUMP JUMPDEST POP SWAP4 SWAP3 POP POP POP JUMP JUMPDEST PUSH1 0x0 DUP3 PUSH1 0x1F DUP4 ADD SLT PUSH3 0x20E JUMPI PUSH3 0x20D PUSH3 0xAA JUMP JUMPDEST JUMPDEST DUP2 MLOAD PUSH3 0x220 DUP5 DUP3 PUSH1 0x20 DUP7 ADD PUSH3 0x1AB JUMP JUMPDEST SWAP2 POP POP SWAP3 SWAP2 POP POP JUMP JUMPDEST PUSH1 0x0 DUP2 SWAP1 POP SWAP2 SWAP1 POP JUMP JUMPDEST PUSH3 0x23E DUP2 PUSH3 0x229 JUMP JUMPDEST DUP2 EQ PUSH3 0x24A JUMPI PUSH1 0x0 DUP1 REVERT JUMPDEST POP JUMP JUMPDEST PUSH1 0x0 DUP2 MLOAD SWAP1 POP PUSH3 0x25E DUP2 PUSH3 0x233 JUMP JUMPDEST SWAP3 SWAP2 POP POP JUMP JUMPDEST PUSH1 0x0 DUP1 PUSH1 0x0 DUP1 PUSH1 0x0 PUSH1 0xA0 DUP7 DUP9 SUB SLT ISZERO PUSH3 0x283 JUMPI PUSH3 0x282 PUSH3 0xA0 JUMP JUMPDEST JUMPDEST PUSH1 0x0 DUP7 ADD MLOAD PUSH8 0xFFFFFFFFFFFFFFFF DUP2 GT ISZERO PUSH3 0x2A4 JUMPI PUSH3 0x2A3 PUSH3 0xA5 JUMP JUMPDEST JUMPDEST PUSH3 0x2B2 DUP9 DUP3 DUP10 ADD PUSH3 0x1F6 JUMP JUMPDEST SWAP6 POP POP PUSH1 0x20 DUP7 ADD MLOAD PUSH8 0xFFFFFFFFFFFFFFFF DUP2 GT ISZERO PUSH3 0x2D6 JUMPI PUSH3 0x2D5 PUSH3 0xA5 JUMP JUMPDEST JUMPDEST PUSH3 0x2E4 DUP9 DUP3 DUP10 ADD PUSH3 0x1F6 JUMP JUMPDEST SWAP5 POP POP PUSH1 0x40 PUSH3 0x2F7 DUP9 DUP3 DUP10 ADD PUSH3 0x24D JUMP JUMPDEST SWAP4 POP POP PUSH1 0x60 PUSH3 0x30A DUP9 DUP3 DUP10 ADD PUSH3 0x24D JUMP JUMPDEST SWAP3 POP POP PUSH1 0x80 PUSH3 0x31D DUP9 DUP3 DUP10 ADD PUSH3 0x24D JUMP JUMPDEST SWAP2 POP POP SWAP3 SWAP6 POP SWAP3 SWAP6 SWAP1 SWAP4 POP JUMP JUMPDEST PUSH1 0x0 DUP2 MLOAD SWAP1 POP SWAP2 SWAP1 POP JUMP JUMPDEST PUSH32 0x4E487B7100000000000000000000000000000000000000000000000000000000 PUSH1 0x0 MSTORE PUSH1 0x22 PUSH1 0x4 MSTORE PUSH1 0x24 PUSH1 0x0 REVERT JUMPDEST PUSH1 0x0 PUSH1 0x2 DUP3 DIV SWAP1 POP PUSH1 0x1 DUP3 AND DUP1 PUSH3 0x37D JUMPI PUSH1 0x7F DUP3 AND SWAP2 POP JUMPDEST PUSH1 0x20 DUP3 LT DUP2 SUB PUSH3 0x393 JUMPI PUSH3 0x392 PUSH3 0x335 JUMP JUMPDEST JUMPDEST POP SWAP2 SWAP1 POP JUMP JUMPDEST PUSH1 0x0 DUP2 SWAP1 POP DUP2 PUSH1 0x0 MSTORE PUSH1 0x20 PUSH1 0x0 KECCAK256 SWAP1 POP SWAP2 SWAP1 POP JUMP JUMPDEST PUSH1 0x0 PUSH1 0x20 PUSH1 0x1F DUP4 ADD DIV SWAP1 POP SWAP2 SWAP1 POP JUMP JUMPDEST PUSH1 0x0 DUP3 DUP3 SHL SWAP1 POP SWAP3 SWAP2 POP POP JUMP JUMPDEST PUSH1 0x0 PUSH1 0x8 DUP4 MUL PUSH3 0x3FD PUSH32 0xFFFFFFFFFFFFFFFFFFFFFFFFFFFFFFFFFFFFFFFFFFFFFFFFFFFFFFFFFFFFFFFF DUP3 PUSH3 0x3BE JUMP JUMPDEST PUSH3 0x409 DUP7 DUP4 PUSH3 0x3BE JUMP JUMPDEST SWAP6 POP DUP1 NOT DUP5 AND SWAP4 POP DUP1 DUP7 AND DUP5 OR SWAP3 POP POP POP SWAP4 SWAP3 POP POP POP JUMP JUMPDEST PUSH1 0x0 DUP2 SWAP1 POP SWAP2 SWAP1 POP JUMP JUMPDEST PUSH1 0x0 PUSH3 0x44C PUSH3 0x446 PUSH3 0x440 DUP5 PUSH3 0x229 JUMP JUMPDEST PUSH3 0x421 JUMP JUMPDEST PUSH3 0x229 JUMP JUMPDEST SWAP1 POP SWAP2 SWAP1 POP JUMP JUMPDEST PUSH1 0x0 DUP2 SWAP1 POP SWAP2 SWAP1 POP JUMP JUMPDEST PUSH3 0x468 DUP4 PUSH3 0x42B JUMP JUMPDEST PUSH3 0x480 PUSH3 0x477 DUP3 PUSH3 0x453 JUMP JUMPDEST DUP5 DUP5 SLOAD PUSH3 0x3CB JUMP JUMPDEST DUP3 SSTORE POP POP POP POP JUMP JUMPDEST PUSH1 0x0 SWAP1 JUMP JUMPDEST PUSH3 0x497 PUSH3 0x488 JUMP JUMPDEST PUSH3 0x4A4 DUP2 DUP5 DUP5 PUSH3 0x45D JUMP JUMPDEST POP POP POP JUMP JUMPDEST JUMPDEST DUP2 DUP2 LT ISZERO PUSH3 0x4CC JUMPI PUSH3 0x4C0 PUSH1 0x0 DUP3 PUSH3 0x48D JUMP JUMPDEST PUSH1 0x1 DUP2 ADD SWAP1 POP PUSH3 0x4AA JUMP JUMPDEST POP POP JUMP JUMPDEST PUSH1 0x1F DUP3 GT ISZERO PUSH3 0x51B JUMPI PUSH3 0x4E5 DUP2 PUSH3 0x399 JUMP JUMPDEST PUSH3 0x4F0 DUP5 PUSH3 0x3AE JUMP JUMPDEST DUP2 ADD PUSH1 0x20 DUP6 LT ISZERO PUSH3 0x500 JUMPI DUP2 SWAP1 POP JUMPDEST PUSH3 0x518 PUSH3 0x50F DUP6 PUSH3 0x3AE JUMP JUMPDEST DUP4 ADD DUP3 PUSH3 0x4A9 JUMP JUMPDEST POP POP JUMPDEST POP POP POP JUMP JUMPDEST PUSH1 0x0 DUP3 DUP3 SHR SWAP1 POP SWAP3 SWAP2 POP POP JUMP JUMPDEST PUSH1 0x0 PUSH3 0x540 PUSH1 0x0 NOT DUP5 PUSH1 0x8 MUL PUSH3 0x520 JUMP JUMPDEST NOT DUP1 DUP4 AND SWAP2 POP POP SWAP3 SWAP2 POP POP JUMP JUMPDEST PUSH1 0x0 PUSH3 0x55B DUP4 DUP4 PUSH3 0x52D JUMP JUMPDEST SWAP2 POP DUP3 PUSH1 0x2 MUL DUP3 OR SWAP1 POP SWAP3 SWAP2 POP POP JUMP JUMPDEST PUSH3 0x576 DUP3 PUSH3 0x32A JUMP JUMPDEST PUSH8 0xFFFFFFFFFFFFFFFF DUP2 GT ISZERO PUSH3 0x592 JUMPI PUSH3 0x591 PUSH3 0xC5 JUMP JUMPDEST JUMPDEST PUSH3 0x59E DUP3 SLOAD PUSH3 0x364 JUMP JUMPDEST PUSH3 0x5AB DUP3 DUP3 DUP6 PUSH3 0x4D0 JUMP JUMPDEST PUSH1 0x0 PUSH1 0x20 SWAP1 POP PUSH1 0x1F DUP4 GT PUSH1 0x1 DUP2 EQ PUSH3 0x5E3 JUMPI PUSH1 0x0 DUP5 ISZERO PUSH3 0x5CE JUMPI DUP3 DUP8 ADD MLOAD SWAP1 POP JUMPDEST PUSH3 0x5DA DUP6 DUP3 PUSH3 0x54D JUMP JUMPDEST DUP7 SSTORE POP PUSH3 0x64A JUMP JUMPDEST PUSH1 0x1F NOT DUP5 AND PUSH3 0x5F3 DUP7 PUSH3 0x399 JUMP JUMPDEST PUSH1 0x0 JUMPDEST DUP3 DUP2 LT ISZERO PUSH3 0x61D JUMPI DUP5 DUP10 ADD MLOAD DUP3 SSTORE PUSH1 0x1 DUP3 ADD SWAP2 POP PUSH1 0x20 DUP6 ADD SWAP5 POP PUSH1 0x20 DUP2 ADD SWAP1 POP PUSH3 0x5F6 JUMP JUMPDEST DUP7 DUP4 LT ISZERO PUSH3 0x63D JUMPI DUP5 DUP10 ADD MLOAD PUSH3 0x639 PUSH1 0x1F DUP10 AND DUP3 PUSH3 0x52D JUMP JUMPDEST DUP4 SSTORE POP JUMPDEST PUSH1 0x1 PUSH1 0x2 DUP9 MUL ADD DUP9 SSTORE POP POP POP JUMPDEST POP POP POP POP POP POP JUMP JUMPDEST PUSH2 0x236A DUP1 PUSH3 0x662 PUSH1 0x0 CODECOPY PUSH1 0x0 RETURN INVALID PUSH1 0x80 PUSH1 0x40 MSTORE CALLVALUE DUP1 ISZERO PUSH2 0x10 JUMPI PUSH1 0x0 DUP1 REVERT JUMPDEST POP PUSH1 0x4 CALLDATASIZE LT PUSH2 0x116 JUMPI PUSH1 0x0 CALLDATALOAD PUSH1 0xE0 SHR DUP1 PUSH4 0x6352211E GT PUSH2 0xA2 JUMPI DUP1 PUSH4 0xA22CB465 GT PUSH2 0x71 JUMPI DUP1 PUSH4 0xA22CB465 EQ PUSH2 0x2F5 JUMPI DUP1 PUSH4 0xB88D4FDE EQ PUSH2 0x311 JUMPI DUP1 PUSH4 0xC87B56DD EQ PUSH2 0x32D JUMPI DUP1 PUSH4 0xD5ABEB01 EQ PUSH2 0x35D JUMPI DUP1 PUSH4 0xE985E9C5 EQ PUSH2 0x37B JUMPI PUSH2 0x116 JUMP JUMPDEST DUP1 PUSH4 0x6352211E EQ PUSH2 0x259 JUMPI DUP1 PUSH4 0x70A08231 EQ PUSH2 0x289 JUMPI DUP1 PUSH4 0x95D89B41 EQ PUSH2 0x2B9 JUMPI DUP1 PUSH4 0x9F773399 EQ PUSH2 0x2D7 JUMPI PUSH2 0x116 JUMP JUMPDEST DUP1 PUSH4 0x18160DDD GT PUSH2 0xE9 JUMPI DUP1 PUSH4 0x18160DDD EQ PUSH2 0x1B5 JUMPI DUP1 PUSH4 0x23B872DD EQ PUSH2 0x1D3 JUMPI DUP1 PUSH4 0x325B272A EQ PUSH2 0x1EF JUMPI DUP1 PUSH4 0x38020DCC EQ PUSH2 0x21F JUMPI DUP1 PUSH4 0x42842E0E EQ PUSH2 0x23D JUMPI PUSH2 0x116 JUMP JUMPDEST DUP1 PUSH4 0x1FFC9A7 EQ PUSH2 0x11B JUMPI DUP1 PUSH4 0x6FDDE03 EQ PUSH2 0x14B JUMPI DUP1 PUSH4 0x81812FC EQ PUSH2 0x169 JUMPI DUP1 PUSH4 0x95EA7B3 EQ PUSH2 0x199 JUMPI JUMPDEST PUSH1 0x0 DUP1 REVERT JUMPDEST PUSH2 0x135 PUSH1 0x4 DUP1 CALLDATASIZE SUB DUP2 ADD SWAP1 PUSH2 0x130 SWAP2 SWAP1 PUSH2 0x1A11 JUMP JUMPDEST PUSH2 0x3AB JUMP JUMPDEST PUSH1 0x40 MLOAD PUSH2 0x142 SWAP2 SWAP1 PUSH2 0x1A59 JUMP JUMPDEST PUSH1 0x40 MLOAD DUP1 SWAP2 SUB SWAP1 RETURN JUMPDEST PUSH2 0x153 PUSH2 0x48D JUMP JUMPDEST PUSH1 0x40 MLOAD PUSH2 0x160 SWAP2 SWAP1 PUSH2 0x1B04 JUMP JUMPDEST PUSH1 0x40 MLOAD DUP1 SWAP2 SUB SWAP1 RETURN JUMPDEST PUSH2 0x183 PUSH1 0x4 DUP1 CALLDATASIZE SUB DUP2 ADD SWAP1 PUSH2 0x17E SWAP2 SWAP1 PUSH2 0x1B5C JUMP JUMPDEST PUSH2 0x51F JUMP JUMPDEST PUSH1 0x40 MLOAD PUSH2 0x190 SWAP2 SWAP1 PUSH2 0x1BCA JUMP JUMPDEST PUSH1 0x40 MLOAD DUP1 SWAP2 SUB SWAP1 RETURN JUMPDEST PUSH2 0x1B3 PUSH1 0x4 DUP1 CALLDATASIZE SUB DUP2 ADD SWAP1 PUSH2 0x1AE SWAP2 SWAP1 PUSH2 0x1C11 JUMP JUMPDEST PUSH2 0x59B JUMP JUMPDEST STOP JUMPDEST PUSH2 0x1BD PUSH2 0x69F JUMP JUMPDEST PUSH1 0x40 MLOAD PUSH2 0x1CA SWAP2 SWAP1 PUSH2 0x1C60 JUMP JUMPDEST PUSH1 0x40 MLOAD DUP1 SWAP2 SUB SWAP1 RETURN JUMPDEST PUSH2 0x1ED PUSH1 0x4 DUP1 CALLDATASIZE SUB DUP2 ADD SWAP1 PUSH2 0x1E8 SWAP2 SWAP1 PUSH2 0x1C7B JUMP JUMPDEST PUSH2 0x6B6 JUMP JUMPDEST STOP JUMPDEST PUSH2 0x209 PUSH1 0x4 DUP1 CALLDATASIZE SUB DUP2 ADD SWAP1 PUSH2 0x204 SWAP2 SWAP1 PUSH2 0x1CCE JUMP JUMPDEST PUSH2 0x6C6 JUMP JUMPDEST PUSH1 0x40 MLOAD PUSH2 0x216 SWAP2 SWAP1 PUSH2 0x1C60 JUMP JUMPDEST PUSH1 0x40 MLOAD DUP1 SWAP2 SUB SWAP1 RETURN JUMPDEST PUSH2 0x227 PUSH2 0x7C1 JUMP JUMPDEST PUSH1 0x40 MLOAD PUSH2 0x234 SWAP2 SWAP1 PUSH2 0x1C60 JUMP JUMPDEST PUSH1 0x40 MLOAD DUP1 SWAP2 SUB SWAP1 RETURN JUMPDEST PUSH2 0x257 PUSH1 0x4 DUP1 CALLDATASIZE SUB DUP2 ADD SWAP1 PUSH2 0x252 SWAP2 SWAP1 PUSH2 0x1C7B JUMP JUMPDEST PUSH2 0x7C7 JUMP JUMPDEST STOP JUMPDEST PUSH2 0x273 PUSH1 0x4 DUP1 CALLDATASIZE SUB DUP2 ADD SWAP1 PUSH2 0x26E SWAP2 SWAP1 PUSH2 0x1B5C JUMP JUMPDEST PUSH2 0x7E7 JUMP JUMPDEST PUSH1 0x40 MLOAD PUSH2 0x280 SWAP2 SWAP1 PUSH2 0x1BCA JUMP JUMPDEST PUSH1 0x40 MLOAD DUP1 SWAP2 SUB SWAP1 RETURN JUMPDEST PUSH2 0x2A3 PUSH1 0x4 DUP1 CALLDATASIZE SUB DUP2 ADD SWAP1 PUSH2 0x29E SWAP2 SWAP1 PUSH2 0x1CCE JUMP JUMPDEST PUSH2 0x7FD JUMP JUMPDEST PUSH1 0x40 MLOAD PUSH2 0x2B0 SWAP2 SWAP1 PUSH2 0x1C60 JUMP JUMPDEST PUSH1 0x40 MLOAD DUP1 SWAP2 SUB SWAP1 RETURN JUMPDEST PUSH2 0x2C1 PUSH2 0x8CC JUMP JUMPDEST PUSH1 0x40 MLOAD PUSH2 0x2CE SWAP2 SWAP1 PUSH2 0x1B04 JUMP JUMPDEST PUSH1 0x40 MLOAD DUP1 SWAP2 SUB SWAP1 RETURN JUMPDEST PUSH2 0x2DF PUSH2 0x95E JUMP JUMPDEST PUSH1 0x40 MLOAD PUSH2 0x2EC SWAP2 SWAP1 PUSH2 0x1C60 JUMP JUMPDEST PUSH1 0x40 MLOAD DUP1 SWAP2 SUB SWAP1 RETURN JUMPDEST PUSH2 0x30F PUSH1 0x4 DUP1 CALLDATASIZE SUB DUP2 ADD SWAP1 PUSH2 0x30A SWAP2 SWAP1 PUSH2 0x1D27 JUMP JUMPDEST PUSH2 0x964 JUMP JUMPDEST STOP JUMPDEST PUSH2 0x32B PUSH1 0x4 DUP1 CALLDATASIZE SUB DUP2 ADD SWAP1 PUSH2 0x326 SWAP2 SWAP1 PUSH2 0x1E9C JUMP JUMPDEST PUSH2 0xADB JUMP JUMPDEST STOP JUMPDEST PUSH2 0x347 PUSH1 0x4 DUP1 CALLDATASIZE SUB DUP2 ADD SWAP1 PUSH2 0x342 SWAP2 SWAP1 PUSH2 0x1B5C JUMP JUMPDEST PUSH2 0xB53 JUMP JUMPDEST PUSH1 0x40 MLOAD PUSH2 0x354 SWAP2 SWAP1 PUSH2 0x1B04 JUMP JUMPDEST PUSH1 0x40 MLOAD DUP1 SWAP2 SUB SWAP1 RETURN JUMPDEST PUSH2 0x365 PUSH2 0xBF1 JUMP JUMPDEST PUSH1 0x40 MLOAD PUSH2 0x372 SWAP2 SWAP1 PUSH2 0x1C60 JUMP JUMPDEST PUSH1 0x40 MLOAD DUP1 SWAP2 SUB SWAP1 RETURN JUMPDEST PUSH2 0x395 PUSH1 0x4 DUP1 CALLDATASIZE SUB DUP2 ADD SWAP1 PUSH2 0x390 SWAP2 SWAP1 PUSH2 0x1F1F JUMP JUMPDEST PUSH2 0xC08 JUMP JUMPDEST PUSH1 0x40 MLOAD PUSH2 0x3A2 SWAP2 SWAP1 PUSH2 0x1A59 JUMP JUMPDEST PUSH1 0x40 MLOAD DUP1 SWAP2 SUB SWAP1 RETURN JUMPDEST PUSH1 0x0 PUSH32 0x80AC58CD00000000000000000000000000000000000000000000000000000000 PUSH28 0xFFFFFFFFFFFFFFFFFFFFFFFFFFFFFFFFFFFFFFFFFFFFFFFFFFFFFFFF NOT AND DUP3 PUSH28 0xFFFFFFFFFFFFFFFFFFFFFFFFFFFFFFFFFFFFFFFFFFFFFFFFFFFFFFFF NOT AND EQ DUP1 PUSH2 0x476 JUMPI POP PUSH32 0x5B5E139F00000000000000000000000000000000000000000000000000000000 PUSH28 0xFFFFFFFFFFFFFFFFFFFFFFFFFFFFFFFFFFFFFFFFFFFFFFFFFFFFFFFF NOT AND DUP3 PUSH28 0xFFFFFFFFFFFFFFFFFFFFFFFFFFFFFFFFFFFFFFFFFFFFFFFFFFFFFFFF NOT AND EQ JUMPDEST DUP1 PUSH2 0x486 JUMPI POP PUSH2 0x485 DUP3 PUSH2 0xC9C JUMP JUMPDEST JUMPDEST SWAP1 POP SWAP2 SWAP1 POP JUMP JUMPDEST PUSH1 0x60 PUSH1 0x5 DUP1 SLOAD PUSH2 0x49C SWAP1 PUSH2 0x1F8E JUMP JUMPDEST DUP1 PUSH1 0x1F ADD PUSH1 0x20 DUP1 SWAP2 DIV MUL PUSH1 0x20 ADD PUSH1 0x40 MLOAD SWAP1 DUP2 ADD PUSH1 0x40 MSTORE DUP1 SWAP3 SWAP2 SWAP1 DUP2 DUP2 MSTORE PUSH1 0x20 ADD DUP3 DUP1 SLOAD PUSH2 0x4C8 SWAP1 PUSH2 0x1F8E JUMP JUMPDEST DUP1 ISZERO PUSH2 0x515 JUMPI DUP1 PUSH1 0x1F LT PUSH2 0x4EA JUMPI PUSH2 0x100 DUP1 DUP4 SLOAD DIV MUL DUP4 MSTORE SWAP2 PUSH1 0x20 ADD SWAP2 PUSH2 0x515 JUMP JUMPDEST DUP3 ADD SWAP2 SWAP1 PUSH1 0x0 MSTORE PUSH1 0x20 PUSH1 0x0 KECCAK256 SWAP1 JUMPDEST DUP2 SLOAD DUP2 MSTORE SWAP1 PUSH1 0x1 ADD SWAP1 PUSH1 0x20 ADD DUP1 DUP4 GT PUSH2 0x4F8 JUMPI DUP3 SWAP1 SUB PUSH1 0x1F AND DUP3 ADD SWAP2 JUMPDEST POP POP POP POP POP SWAP1 POP SWAP1 JUMP JUMPDEST PUSH1 0x0 PUSH2 0x52A DUP3 PUSH2 0xD06 JUMP JUMPDEST PUSH2 0x560 JUMPI PUSH1 0x40 MLOAD PUSH32 0xCF4700E400000000000000000000000000000000000000000000000000000000 DUP2 MSTORE PUSH1 0x4 ADD PUSH1 0x40 MLOAD DUP1 SWAP2 SUB SWAP1 REVERT JUMPDEST PUSH1 0x9 PUSH1 0x0 DUP4 DUP2 MSTORE PUSH1 0x20 ADD SWAP1 DUP2 MSTORE PUSH1 0x20 ADD PUSH1 0x0 KECCAK256 PUSH1 0x0 SWAP1 SLOAD SWAP1 PUSH2 0x100 EXP SWAP1 DIV PUSH20 0xFFFFFFFFFFFFFFFFFFFFFFFFFFFFFFFFFFFFFFFF AND SWAP1 POP SWAP2 SWAP1 POP JUMP JUMPDEST PUSH1 0x0 PUSH2 0x5A6 DUP3 PUSH2 0x7E7 JUMP JUMPDEST SWAP1 POP DUP1 PUSH20 0xFFFFFFFFFFFFFFFFFFFFFFFFFFFFFFFFFFFFFFFF AND DUP4 PUSH20 0xFFFFFFFFFFFFFFFFFFFFFFFFFFFFFFFFFFFFFFFF AND SUB PUSH2 0x60D JUMPI PUSH1 0x40 MLOAD PUSH32 0x943F7B8C00000000000000000000000000000000000000000000000000000000 DUP2 MSTORE PUSH1 0x4 ADD PUSH1 0x40 MLOAD DUP1 SWAP2 SUB SWAP1 REVERT JUMPDEST DUP1 PUSH20 0xFFFFFFFFFFFFFFFFFFFFFFFFFFFFFFFFFFFFFFFF AND PUSH2 0x62C PUSH2 0xD54 JUMP JUMPDEST PUSH20 0xFFFFFFFFFFFFFFFFFFFFFFFFFFFFFFFFFFFFFFFF AND EQ PUSH2 0x68F JUMPI PUSH2 0x658 DUP2 PUSH2 0x653 PUSH2 0xD54 JUMP JUMPDEST PUSH2 0xC08 JUMP JUMPDEST PUSH2 0x68E JUMPI PUSH1 0x40 MLOAD PUSH32 0xCFB3B94200000000000000000000000000000000000000000000000000000000 DUP2 MSTORE PUSH1 0x4 ADD PUSH1 0x40 MLOAD DUP1 SWAP2 SUB SWAP1 REVERT JUMPDEST JUMPDEST PUSH2 0x69A DUP4 DUP4 DUP4 PUSH2 0xD5C JUMP JUMPDEST POP POP POP JUMP JUMPDEST PUSH1 0x0 PUSH2 0x6A9 PUSH2 0xE0E JUMP JUMPDEST PUSH1 0x4 SLOAD PUSH1 0x2 SLOAD SUB SUB SWAP1 POP SWAP1 JUMP JUMPDEST PUSH2 0x6C1 DUP4 DUP4 DUP4 PUSH2 0xE13 JUMP JUMPDEST POP POP POP JUMP JUMPDEST PUSH1 0x0 DUP1 PUSH2 0x72D PUSH1 0xB PUSH1 0x0 DUP6 PUSH20 0xFFFFFFFFFFFFFFFFFFFFFFFFFFFFFFFFFFFFFFFF AND PUSH20 0xFFFFFFFFFFFFFFFFFFFFFFFFFFFFFFFFFFFFFFFF AND DUP2 MSTORE PUSH1 0x20 ADD SWAP1 DUP2 MSTORE PUSH1 0x20 ADD PUSH1 0x0 KECCAK256 PUSH1 0x0 PUSH1 0x1 DUP2 MSTORE PUSH1 0x20 ADD SWAP1 DUP2 MSTORE PUSH1 0x20 ADD PUSH1 0x0 KECCAK256 SLOAD NUMBER PUSH2 0x12D9 SWAP1 SWAP2 SWAP1 PUSH4 0xFFFFFFFF AND JUMP JUMPDEST SWAP1 POP PUSH1 0x0 PUSH2 0x74C DUP3 PUSH2 0x73E DUP7 PUSH2 0x7FD JUMP JUMPDEST PUSH2 0x12EF SWAP1 SWAP2 SWAP1 PUSH4 0xFFFFFFFF AND JUMP JUMPDEST SWAP1 POP PUSH1 0x0 PUSH2 0x7B4 DUP3 PUSH1 0xB PUSH1 0x0 DUP9 PUSH20 0xFFFFFFFFFFFFFFFFFFFFFFFFFFFFFFFFFFFFFFFF AND PUSH20 0xFFFFFFFFFFFFFFFFFFFFFFFFFFFFFFFFFFFFFFFF AND DUP2 MSTORE PUSH1 0x20 ADD SWAP1 DUP2 MSTORE PUSH1 0x20 ADD PUSH1 0x0 KECCAK256 PUSH1 0x0 PUSH1 0x2 DUP2 MSTORE PUSH1 0x20 ADD SWAP1 DUP2 MSTORE PUSH1 0x20 ADD PUSH1 0x0 KECCAK256 SLOAD PUSH2 0x1305 SWAP1 SWAP2 SWAP1 PUSH4 0xFFFFFFFF AND JUMP JUMPDEST SWAP1 POP DUP1 SWAP4 POP POP POP POP SWAP2 SWAP1 POP JUMP JUMPDEST PUSH1 0x1 SLOAD DUP2 JUMP JUMPDEST PUSH2 0x7E2 DUP4 DUP4 DUP4 PUSH1 0x40 MLOAD DUP1 PUSH1 0x20 ADD PUSH1 0x40 MSTORE DUP1 PUSH1 0x0 DUP2 MSTORE POP PUSH2 0xADB JUMP JUMPDEST POP POP POP JUMP JUMPDEST PUSH1 0x0 PUSH2 0x7F2 DUP3 PUSH2 0x131B JUMP JUMPDEST PUSH1 0x0 ADD MLOAD SWAP1 POP SWAP2 SWAP1 POP JUMP JUMPDEST PUSH1 0x0 DUP1 PUSH20 0xFFFFFFFFFFFFFFFFFFFFFFFFFFFFFFFFFFFFFFFF AND DUP3 PUSH20 0xFFFFFFFFFFFFFFFFFFFFFFFFFFFFFFFFFFFFFFFF AND SUB PUSH2 0x864 JUMPI PUSH1 0x40 MLOAD PUSH32 0x8F4EB60400000000000000000000000000000000000000000000000000000000 DUP2 MSTORE PUSH1 0x4 ADD PUSH1 0x40 MLOAD DUP1 SWAP2 SUB SWAP1 REVERT JUMPDEST PUSH1 0x8 PUSH1 0x0 DUP4 PUSH20 0xFFFFFFFFFFFFFFFFFFFFFFFFFFFFFFFFFFFFFFFF AND PUSH20 0xFFFFFFFFFFFFFFFFFFFFFFFFFFFFFFFFFFFFFFFF AND DUP2 MSTORE PUSH1 0x20 ADD SWAP1 DUP2 MSTORE PUSH1 0x20 ADD PUSH1 0x0 KECCAK256 PUSH1 0x0 ADD PUSH1 0x0 SWAP1 SLOAD SWAP1 PUSH2 0x100 EXP SWAP1 DIV PUSH8 0xFFFFFFFFFFFFFFFF AND PUSH8 0xFFFFFFFFFFFFFFFF AND SWAP1 POP SWAP2 SWAP1 POP JUMP JUMPDEST PUSH1 0x60 PUSH1 0x6 DUP1 SLOAD PUSH2 0x8DB SWAP1 PUSH2 0x1F8E JUMP JUMPDEST DUP1 PUSH1 0x1F ADD PUSH1 0x20 DUP1 SWAP2 DIV MUL PUSH1 0x20 ADD PUSH1 0x40 MLOAD SWAP1 DUP2 ADD PUSH1 0x40 MSTORE DUP1 SWAP3 SWAP2 SWAP1 DUP2 DUP2 MSTORE PUSH1 0x20 ADD DUP3 DUP1 SLOAD PUSH2 0x907 SWAP1 PUSH2 0x1F8E JUMP JUMPDEST DUP1 ISZERO PUSH2 0x954 JUMPI DUP1 PUSH1 0x1F LT PUSH2 0x929 JUMPI PUSH2 0x100 DUP1 DUP4 SLOAD DIV MUL DUP4 MSTORE SWAP2 PUSH1 0x20 ADD SWAP2 PUSH2 0x954 JUMP JUMPDEST DUP3 ADD SWAP2 SWAP1 PUSH1 0x0 MSTORE PUSH1 0x20 PUSH1 0x0 KECCAK256 SWAP1 JUMPDEST DUP2 SLOAD DUP2 MSTORE SWAP1 PUSH1 0x1 ADD SWAP1 PUSH1 0x20 ADD DUP1 DUP4 GT PUSH2 0x937 JUMPI DUP3 SWAP1 SUB PUSH1 0x1F AND DUP3 ADD SWAP2 JUMPDEST POP POP POP POP POP SWAP1 POP SWAP1 JUMP JUMPDEST PUSH1 0x0 SLOAD DUP2 JUMP JUMPDEST PUSH2 0x96C PUSH2 0xD54 JUMP JUMPDEST PUSH20 0xFFFFFFFFFFFFFFFFFFFFFFFFFFFFFFFFFFFFFFFF AND DUP3 PUSH20 0xFFFFFFFFFFFFFFFFFFFFFFFFFFFFFFFFFFFFFFFF AND SUB PUSH2 0x9D0 JUMPI PUSH1 0x40 MLOAD PUSH32 0xB06307DB00000000000000000000000000000000000000000000000000000000 DUP2 MSTORE PUSH1 0x4 ADD PUSH1 0x40 MLOAD DUP1 SWAP2 SUB SWAP1 REVERT JUMPDEST DUP1 PUSH1 0xA PUSH1 0x0 PUSH2 0x9DD PUSH2 0xD54 JUMP JUMPDEST PUSH20 0xFFFFFFFFFFFFFFFFFFFFFFFFFFFFFFFFFFFFFFFF AND PUSH20 0xFFFFFFFFFFFFFFFFFFFFFFFFFFFFFFFFFFFFFFFF AND DUP2 MSTORE PUSH1 0x20 ADD SWAP1 DUP2 MSTORE PUSH1 0x20 ADD PUSH1 0x0 KECCAK256 PUSH1 0x0 DUP5 PUSH20 0xFFFFFFFFFFFFFFFFFFFFFFFFFFFFFFFFFFFFFFFF AND PUSH20 0xFFFFFFFFFFFFFFFFFFFFFFFFFFFFFFFFFFFFFFFF AND DUP2 MSTORE PUSH1 0x20 ADD SWAP1 DUP2 MSTORE PUSH1 0x20 ADD PUSH1 0x0 KECCAK256 PUSH1 0x0 PUSH2 0x100 EXP DUP2 SLOAD DUP2 PUSH1 0xFF MUL NOT AND SWAP1 DUP4 ISZERO ISZERO MUL OR SWAP1 SSTORE POP DUP2 PUSH20 0xFFFFFFFFFFFFFFFFFFFFFFFFFFFFFFFFFFFFFFFF AND PUSH2 0xA8A PUSH2 0xD54 JUMP JUMPDEST PUSH20 0xFFFFFFFFFFFFFFFFFFFFFFFFFFFFFFFFFFFFFFFF AND PUSH32 0x17307EAB39AB6107E8899845AD3D59BD9653F200F220920489CA2B5937696C31 DUP4 PUSH1 0x40 MLOAD PUSH2 0xACF SWAP2 SWAP1 PUSH2 0x1A59 JUMP JUMPDEST PUSH1 0x40 MLOAD DUP1 SWAP2 SUB SWAP1 LOG3 POP POP JUMP JUMPDEST PUSH2 0xAE6 DUP5 DUP5 DUP5 PUSH2 0xE13 JUMP JUMPDEST PUSH2 0xB05 DUP4 PUSH20 0xFFFFFFFFFFFFFFFFFFFFFFFFFFFFFFFFFFFFFFFF AND PUSH2 0x15A6 JUMP JUMPDEST ISZERO PUSH2 0xB4D JUMPI PUSH2 0xB16 DUP5 DUP5 DUP5 DUP5 PUSH2 0x15C9 JUMP JUMPDEST PUSH2 0xB4C JUMPI PUSH1 0x40 MLOAD PUSH32 0xD1A57ED600000000000000000000000000000000000000000000000000000000 DUP2 MSTORE PUSH1 0x4 ADD PUSH1 0x40 MLOAD DUP1 SWAP2 SUB SWAP1 REVERT JUMPDEST JUMPDEST POP POP POP POP JUMP JUMPDEST PUSH1 0x60 PUSH2 0xB5E DUP3 PUSH2 0xD06 JUMP JUMPDEST PUSH2 0xB94 JUMPI PUSH1 0x40 MLOAD PUSH32 0xA14C4B5000000000000000000000000000000000000000000000000000000000 DUP2 MSTORE PUSH1 0x4 ADD PUSH1 0x40 MLOAD DUP1 SWAP2 SUB SWAP1 REVERT JUMPDEST PUSH1 0x0 PUSH2 0xB9E PUSH2 0x1719 JUMP JUMPDEST SWAP1 POP PUSH1 0x0 DUP2 MLOAD SUB PUSH2 0xBBE JUMPI PUSH1 0x40 MLOAD DUP1 PUSH1 0x20 ADD PUSH1 0x40 MSTORE DUP1 PUSH1 0x0 DUP2 MSTORE POP PUSH2 0xBE9 JUMP JUMPDEST DUP1 PUSH2 0xBC8 DUP5 PUSH2 0x1739 JUMP JUMPDEST PUSH1 0x40 MLOAD PUSH1 0x20 ADD PUSH2 0xBD9 SWAP3 SWAP2 SWAP1 PUSH2 0x1FFB JUMP JUMPDEST PUSH1 0x40 MLOAD PUSH1 0x20 DUP2 DUP4 SUB SUB DUP2 MSTORE SWAP1 PUSH1 0x40 MSTORE JUMPDEST SWAP2 POP POP SWAP2 SWAP1 POP JUMP JUMPDEST PUSH1 0x0 PUSH2 0xBFB PUSH2 0xE0E JUMP JUMPDEST PUSH1 0x4 SLOAD PUSH1 0x3 SLOAD SUB SUB SWAP1 POP SWAP1 JUMP JUMPDEST PUSH1 0x0 PUSH1 0xA PUSH1 0x0 DUP5 PUSH20 0xFFFFFFFFFFFFFFFFFFFFFFFFFFFFFFFFFFFFFFFF AND PUSH20 0xFFFFFFFFFFFFFFFFFFFFFFFFFFFFFFFFFFFFFFFF AND DUP2 MSTORE PUSH1 0x20 ADD SWAP1 DUP2 MSTORE PUSH1 0x20 ADD PUSH1 0x0 KECCAK256 PUSH1 0x0 DUP4 PUSH20 0xFFFFFFFFFFFFFFFFFFFFFFFFFFFFFFFFFFFFFFFF AND PUSH20 0xFFFFFFFFFFFFFFFFFFFFFFFFFFFFFFFFFFFFFFFF AND DUP2 MSTORE PUSH1 0x20 ADD SWAP1 DUP2 MSTORE PUSH1 0x20 ADD PUSH1 0x0 KECCAK256 PUSH1 0x0 SWAP1 SLOAD SWAP1 PUSH2 0x100 EXP SWAP1 DIV PUSH1 0xFF AND SWAP1 POP SWAP3 SWAP2 POP POP JUMP JUMPDEST PUSH1 0x0 PUSH32 0x1FFC9A700000000000000000000000000000000000000000000000000000000 PUSH28 0xFFFFFFFFFFFFFFFFFFFFFFFFFFFFFFFFFFFFFFFFFFFFFFFFFFFFFFFF NOT AND DUP3 PUSH28 0xFFFFFFFFFFFFFFFFFFFFFFFFFFFFFFFFFFFFFFFFFFFFFFFFFFFFFFFF NOT AND EQ SWAP1 POP SWAP2 SWAP1 POP JUMP JUMPDEST PUSH1 0x0 DUP2 PUSH2 0xD11 PUSH2 0xE0E JUMP JUMPDEST GT ISZERO DUP1 ISZERO PUSH2 0xD20 JUMPI POP PUSH1 0x2 SLOAD DUP3 LT JUMPDEST DUP1 ISZERO PUSH2 0xD4D JUMPI POP PUSH1 0x7 PUSH1 0x0 DUP4 DUP2 MSTORE PUSH1 0x20 ADD SWAP1 DUP2 MSTORE PUSH1 0x20 ADD PUSH1 0x0 KECCAK256 PUSH1 0x0 ADD PUSH1 0x1C SWAP1 SLOAD SWAP1 PUSH2 0x100 EXP SWAP1 DIV PUSH1 0xFF AND ISZERO JUMPDEST SWAP1 POP SWAP2 SWAP1 POP JUMP JUMPDEST PUSH1 0x0 CALLER SWAP1 POP SWAP1 JUMP JUMPDEST DUP3 PUSH1 0x9 PUSH1 0x0 DUP5 DUP2 MSTORE PUSH1 0x20 ADD SWAP1 DUP2 MSTORE PUSH1 0x20 ADD PUSH1 0x0 KECCAK256 PUSH1 0x0 PUSH2 0x100 EXP DUP2 SLOAD DUP2 PUSH20 0xFFFFFFFFFFFFFFFFFFFFFFFFFFFFFFFFFFFFFFFF MUL NOT AND SWAP1 DUP4 PUSH20 0xFFFFFFFFFFFFFFFFFFFFFFFFFFFFFFFFFFFFFFFF AND MUL OR SWAP1 SSTORE POP DUP2 DUP4 PUSH20 0xFFFFFFFFFFFFFFFFFFFFFFFFFFFFFFFFFFFFFFFF AND DUP3 PUSH20 0xFFFFFFFFFFFFFFFFFFFFFFFFFFFFFFFFFFFFFFFF AND PUSH32 0x8C5BE1E5EBEC7D5BD14F71427D1E84F3DD0314C0F7B2291E5B200AC8C7C3B925 PUSH1 0x40 MLOAD PUSH1 0x40 MLOAD DUP1 SWAP2 SUB SWAP1 LOG4 POP POP POP JUMP JUMPDEST PUSH1 0x0 SWAP1 JUMP JUMPDEST PUSH2 0xE1C DUP4 PUSH2 0x1899 JUMP JUMPDEST PUSH2 0xE25 DUP3 PUSH2 0x1899 JUMP JUMPDEST PUSH1 0x0 PUSH2 0xE30 DUP3 PUSH2 0x131B JUMP JUMPDEST SWAP1 POP DUP4 PUSH20 0xFFFFFFFFFFFFFFFFFFFFFFFFFFFFFFFFFFFFFFFF AND DUP2 PUSH1 0x0 ADD MLOAD PUSH20 0xFFFFFFFFFFFFFFFFFFFFFFFFFFFFFFFFFFFFFFFF AND EQ PUSH2 0xE9B JUMPI PUSH1 0x40 MLOAD PUSH32 0xA114810000000000000000000000000000000000000000000000000000000000 DUP2 MSTORE PUSH1 0x4 ADD PUSH1 0x40 MLOAD DUP1 SWAP2 SUB SWAP1 REVERT JUMPDEST PUSH1 0x0 DUP5 PUSH20 0xFFFFFFFFFFFFFFFFFFFFFFFFFFFFFFFFFFFFFFFF AND PUSH2 0xEBC PUSH2 0xD54 JUMP JUMPDEST PUSH20 0xFFFFFFFFFFFFFFFFFFFFFFFFFFFFFFFFFFFFFFFF AND EQ DUP1 PUSH2 0xEEB JUMPI POP PUSH2 0xEEA DUP6 PUSH2 0xEE5 PUSH2 0xD54 JUMP JUMPDEST PUSH2 0xC08 JUMP JUMPDEST JUMPDEST DUP1 PUSH2 0xF30 JUMPI POP PUSH2 0xEF9 PUSH2 0xD54 JUMP JUMPDEST PUSH20 0xFFFFFFFFFFFFFFFFFFFFFFFFFFFFFFFFFFFFFFFF AND PUSH2 0xF18 DUP5 PUSH2 0x51F JUMP JUMPDEST PUSH20 0xFFFFFFFFFFFFFFFFFFFFFFFFFFFFFFFFFFFFFFFF AND EQ JUMPDEST SWAP1 POP DUP1 PUSH2 0xF69 JUMPI PUSH1 0x40 MLOAD PUSH32 0x59C896BE00000000000000000000000000000000000000000000000000000000 DUP2 MSTORE PUSH1 0x4 ADD PUSH1 0x40 MLOAD DUP1 SWAP2 SUB SWAP1 REVERT JUMPDEST PUSH1 0x0 PUSH20 0xFFFFFFFFFFFFFFFFFFFFFFFFFFFFFFFFFFFFFFFF AND DUP5 PUSH20 0xFFFFFFFFFFFFFFFFFFFFFFFFFFFFFFFFFFFFFFFF AND SUB PUSH2 0xFCF JUMPI PUSH1 0x40 MLOAD PUSH32 0xEA553B3400000000000000000000000000000000000000000000000000000000 DUP2 MSTORE PUSH1 0x4 ADD PUSH1 0x40 MLOAD DUP1 SWAP2 SUB SWAP1 REVERT JUMPDEST PUSH2 0xFDC DUP6 DUP6 DUP6 PUSH1 0x1 PUSH2 0x1956 JUMP JUMPDEST PUSH2 0xFE8 PUSH1 0x0 DUP5 DUP8 PUSH2 0xD5C JUMP JUMPDEST PUSH1 0x1 PUSH1 0x8 PUSH1 0x0 DUP8 PUSH20 0xFFFFFFFFFFFFFFFFFFFFFFFFFFFFFFFFFFFFFFFF AND PUSH20 0xFFFFFFFFFFFFFFFFFFFFFFFFFFFFFFFFFFFFFFFF AND DUP2 MSTORE PUSH1 0x20 ADD SWAP1 DUP2 MSTORE PUSH1 0x20 ADD PUSH1 0x0 KECCAK256 PUSH1 0x0 ADD PUSH1 0x0 DUP3 DUP3 DUP3 SWAP1 SLOAD SWAP1 PUSH2 0x100 EXP SWAP1 DIV PUSH8 0xFFFFFFFFFFFFFFFF AND SUB SWAP3 POP PUSH2 0x100 EXP DUP2 SLOAD DUP2 PUSH8 0xFFFFFFFFFFFFFFFF MUL NOT AND SWAP1 DUP4 PUSH8 0xFFFFFFFFFFFFFFFF AND MUL OR SWAP1 SSTORE POP PUSH1 0x1 PUSH1 0x8 PUSH1 0x0 DUP7 PUSH20 0xFFFFFFFFFFFFFFFFFFFFFFFFFFFFFFFFFFFFFFFF AND PUSH20 0xFFFFFFFFFFFFFFFFFFFFFFFFFFFFFFFFFFFFFFFF AND DUP2 MSTORE PUSH1 0x20 ADD SWAP1 DUP2 MSTORE PUSH1 0x20 ADD PUSH1 0x0 KECCAK256 PUSH1 0x0 ADD PUSH1 0x0 DUP3 DUP3 DUP3 SWAP1 SLOAD SWAP1 PUSH2 0x100 EXP SWAP1 DIV PUSH8 0xFFFFFFFFFFFFFFFF AND ADD SWAP3 POP PUSH2 0x100 EXP DUP2 SLOAD DUP2 PUSH8 0xFFFFFFFFFFFFFFFF MUL NOT AND SWAP1 DUP4 PUSH8 0xFFFFFFFFFFFFFFFF AND MUL OR SWAP1 SSTORE POP PUSH1 0x0 PUSH1 0x7 PUSH1 0x0 DUP6 DUP2 MSTORE PUSH1 0x20 ADD SWAP1 DUP2 MSTORE PUSH1 0x20 ADD PUSH1 0x0 KECCAK256 SWAP1 POP DUP5 DUP2 PUSH1 0x0 ADD PUSH1 0x0 PUSH2 0x100 EXP DUP2 SLOAD DUP2 PUSH20 0xFFFFFFFFFFFFFFFFFFFFFFFFFFFFFFFFFFFFFFFF MUL NOT AND SWAP1 DUP4 PUSH20 0xFFFFFFFFFFFFFFFFFFFFFFFFFFFFFFFFFFFFFFFF AND MUL OR SWAP1 SSTORE POP TIMESTAMP DUP2 PUSH1 0x0 ADD PUSH1 0x14 PUSH2 0x100 EXP DUP2 SLOAD DUP2 PUSH8 0xFFFFFFFFFFFFFFFF MUL NOT AND SWAP1 DUP4 PUSH8 0xFFFFFFFFFFFFFFFF AND MUL OR SWAP1 SSTORE POP PUSH1 0x0 PUSH1 0x1 DUP6 ADD SWAP1 POP PUSH1 0x0 PUSH1 0x7 PUSH1 0x0 DUP4 DUP2 MSTORE PUSH1 0x20 ADD SWAP1 DUP2 MSTORE PUSH1 0x20 ADD PUSH1 0x0 KECCAK256 SWAP1 POP PUSH1 0x0 PUSH20 0xFFFFFFFFFFFFFFFFFFFFFFFFFFFFFFFFFFFFFFFF AND DUP2 PUSH1 0x0 ADD PUSH1 0x0 SWAP1 SLOAD SWAP1 PUSH2 0x100 EXP SWAP1 DIV PUSH20 0xFFFFFFFFFFFFFFFFFFFFFFFFFFFFFFFFFFFFFFFF AND PUSH20 0xFFFFFFFFFFFFFFFFFFFFFFFFFFFFFFFFFFFFFFFF AND SUB PUSH2 0x1267 JUMPI PUSH1 0x2 SLOAD DUP3 EQ PUSH2 0x1266 JUMPI DUP8 DUP2 PUSH1 0x0 ADD PUSH1 0x0 PUSH2 0x100 EXP DUP2 SLOAD DUP2 PUSH20 0xFFFFFFFFFFFFFFFFFFFFFFFFFFFFFFFFFFFFFFFF MUL NOT AND SWAP1 DUP4 PUSH20 0xFFFFFFFFFFFFFFFFFFFFFFFFFFFFFFFFFFFFFFFF AND MUL OR SWAP1 SSTORE POP DUP5 PUSH1 0x20 ADD MLOAD DUP2 PUSH1 0x0 ADD PUSH1 0x14 PUSH2 0x100 EXP DUP2 SLOAD DUP2 PUSH8 0xFFFFFFFFFFFFFFFF MUL NOT AND SWAP1 DUP4 PUSH8 0xFFFFFFFFFFFFFFFF AND MUL OR SWAP1 SSTORE POP JUMPDEST JUMPDEST POP POP POP DUP3 DUP5 PUSH20 0xFFFFFFFFFFFFFFFFFFFFFFFFFFFFFFFFFFFFFFFF AND DUP7 PUSH20 0xFFFFFFFFFFFFFFFFFFFFFFFFFFFFFFFFFFFFFFFF AND PUSH32 0xDDF252AD1BE2C89B69C2B068FC378DAA952BA7F163C4A11628F55A4DF523B3EF PUSH1 0x40 MLOAD PUSH1 0x40 MLOAD DUP1 SWAP2 SUB SWAP1 LOG4 PUSH2 0x12D2 DUP6 DUP6 DUP6 PUSH1 0x1 PUSH2 0x195C JUMP JUMPDEST POP POP POP POP POP JUMP JUMPDEST PUSH1 0x0 DUP2 DUP4 PUSH2 0x12E7 SWAP2 SWAP1 PUSH2 0x204E JUMP JUMPDEST SWAP1 POP SWAP3 SWAP2 POP POP JUMP JUMPDEST PUSH1 0x0 DUP2 DUP4 PUSH2 0x12FD SWAP2 SWAP1 PUSH2 0x2082 JUMP JUMPDEST SWAP1 POP SWAP3 SWAP2 POP POP JUMP JUMPDEST PUSH1 0x0 DUP2 DUP4 PUSH2 0x1313 SWAP2 SWAP1 PUSH2 0x20C4 JUMP JUMPDEST SWAP1 POP SWAP3 SWAP2 POP POP JUMP JUMPDEST PUSH2 0x1323 PUSH2 0x1962 JUMP JUMPDEST PUSH1 0x0 DUP3 SWAP1 POP DUP1 PUSH2 0x1331 PUSH2 0xE0E JUMP JUMPDEST GT PUSH2 0x156F JUMPI PUSH1 0x2 SLOAD DUP2 LT ISZERO PUSH2 0x156E JUMPI PUSH1 0x0 PUSH1 0x7 PUSH1 0x0 DUP4 DUP2 MSTORE PUSH1 0x20 ADD SWAP1 DUP2 MSTORE PUSH1 0x20 ADD PUSH1 0x0 KECCAK256 PUSH1 0x40 MLOAD DUP1 PUSH1 0x60 ADD PUSH1 0x40 MSTORE SWAP1 DUP2 PUSH1 0x0 DUP3 ADD PUSH1 0x0 SWAP1 SLOAD SWAP1 PUSH2 0x100 EXP SWAP1 DIV PUSH20 0xFFFFFFFFFFFFFFFFFFFFFFFFFFFFFFFFFFFFFFFF AND PUSH20 0xFFFFFFFFFFFFFFFFFFFFFFFFFFFFFFFFFFFFFFFF AND PUSH20 0xFFFFFFFFFFFFFFFFFFFFFFFFFFFFFFFFFFFFFFFF AND DUP2 MSTORE PUSH1 0x20 ADD PUSH1 0x0 DUP3 ADD PUSH1 0x14 SWAP1 SLOAD SWAP1 PUSH2 0x100 EXP SWAP1 DIV PUSH8 0xFFFFFFFFFFFFFFFF AND PUSH8 0xFFFFFFFFFFFFFFFF AND PUSH8 0xFFFFFFFFFFFFFFFF AND DUP2 MSTORE PUSH1 0x20 ADD PUSH1 0x0 DUP3 ADD PUSH1 0x1C SWAP1 SLOAD SWAP1 PUSH2 0x100 EXP SWAP1 DIV PUSH1 0xFF AND ISZERO ISZERO ISZERO ISZERO DUP2 MSTORE POP POP SWAP1 POP DUP1 PUSH1 0x40 ADD MLOAD PUSH2 0x156C JUMPI PUSH1 0x0 PUSH20 0xFFFFFFFFFFFFFFFFFFFFFFFFFFFFFFFFFFFFFFFF AND DUP2 PUSH1 0x0 ADD MLOAD PUSH20 0xFFFFFFFFFFFFFFFFFFFFFFFFFFFFFFFFFFFFFFFF AND EQ PUSH2 0x1450 JUMPI DUP1 SWAP3 POP POP POP PUSH2 0x15A1 JUMP JUMPDEST JUMPDEST PUSH1 0x1 ISZERO PUSH2 0x156B JUMPI DUP2 DUP1 PUSH1 0x1 SWAP1 SUB SWAP3 POP POP PUSH1 0x7 PUSH1 0x0 DUP4 DUP2 MSTORE PUSH1 0x20 ADD SWAP1 DUP2 MSTORE PUSH1 0x20 ADD PUSH1 0x0 KECCAK256 PUSH1 0x40 MLOAD DUP1 PUSH1 0x60 ADD PUSH1 0x40 MSTORE SWAP1 DUP2 PUSH1 0x0 DUP3 ADD PUSH1 0x0 SWAP1 SLOAD SWAP1 PUSH2 0x100 EXP SWAP1 DIV PUSH20 0xFFFFFFFFFFFFFFFFFFFFFFFFFFFFFFFFFFFFFFFF AND PUSH20 0xFFFFFFFFFFFFFFFFFFFFFFFFFFFFFFFFFFFFFFFF AND PUSH20 0xFFFFFFFFFFFFFFFFFFFFFFFFFFFFFFFFFFFFFFFF AND DUP2 MSTORE PUSH1 0x20 ADD PUSH1 0x0 DUP3 ADD PUSH1 0x14 SWAP1 SLOAD SWAP1 PUSH2 0x100 EXP SWAP1 DIV PUSH8 0xFFFFFFFFFFFFFFFF AND PUSH8 0xFFFFFFFFFFFFFFFF AND PUSH8 0xFFFFFFFFFFFFFFFF AND DUP2 MSTORE PUSH1 0x20 ADD PUSH1 0x0 DUP3 ADD PUSH1 0x1C SWAP1 SLOAD SWAP1 PUSH2 0x100 EXP SWAP1 DIV PUSH1 0xFF AND ISZERO ISZERO ISZERO ISZERO DUP2 MSTORE POP POP SWAP1 POP PUSH1 0x0 PUSH20 0xFFFFFFFFFFFFFFFFFFFFFFFFFFFFFFFFFFFFFFFF AND DUP2 PUSH1 0x0 ADD MLOAD PUSH20 0xFFFFFFFFFFFFFFFFFFFFFFFFFFFFFFFFFFFFFFFF AND EQ PUSH2 0x1566 JUMPI DUP1 SWAP3 POP POP POP PUSH2 0x15A1 JUMP JUMPDEST PUSH2 0x1451 JUMP JUMPDEST JUMPDEST POP JUMPDEST JUMPDEST PUSH1 0x40 MLOAD PUSH32 0xDF2D9B4200000000000000000000000000000000000000000000000000000000 DUP2 MSTORE PUSH1 0x4 ADD PUSH1 0x40 MLOAD DUP1 SWAP2 SUB SWAP1 REVERT JUMPDEST SWAP2 SWAP1 POP JUMP JUMPDEST PUSH1 0x0 DUP1 DUP3 PUSH20 0xFFFFFFFFFFFFFFFFFFFFFFFFFFFFFFFFFFFFFFFF AND EXTCODESIZE GT SWAP1 POP SWAP2 SWAP1 POP JUMP JUMPDEST PUSH1 0x0 DUP4 PUSH20 0xFFFFFFFFFFFFFFFFFFFFFFFFFFFFFFFFFFFFFFFF AND PUSH4 0x150B7A02 PUSH2 0x15EF PUSH2 0xD54 JUMP JUMPDEST DUP8 DUP7 DUP7 PUSH1 0x40 MLOAD DUP6 PUSH4 0xFFFFFFFF AND PUSH1 0xE0 SHL DUP2 MSTORE PUSH1 0x4 ADD PUSH2 0x1611 SWAP5 SWAP4 SWAP3 SWAP2 SWAP1 PUSH2 0x214D JUMP JUMPDEST PUSH1 0x20 PUSH1 0x40 MLOAD DUP1 DUP4 SUB DUP2 PUSH1 0x0 DUP8 GAS CALL SWAP3 POP POP POP DUP1 ISZERO PUSH2 0x164D JUMPI POP PUSH1 0x40 MLOAD RETURNDATASIZE PUSH1 0x1F NOT PUSH1 0x1F DUP3 ADD AND DUP3 ADD DUP1 PUSH1 0x40 MSTORE POP DUP2 ADD SWAP1 PUSH2 0x164A SWAP2 SWAP1 PUSH2 0x21AE JUMP JUMPDEST PUSH1 0x1 JUMPDEST PUSH2 0x16C6 JUMPI RETURNDATASIZE DUP1 PUSH1 0x0 DUP2 EQ PUSH2 0x167D JUMPI PUSH1 0x40 MLOAD SWAP2 POP PUSH1 0x1F NOT PUSH1 0x3F RETURNDATASIZE ADD AND DUP3 ADD PUSH1 0x40 MSTORE RETURNDATASIZE DUP3 MSTORE RETURNDATASIZE PUSH1 0x0 PUSH1 0x20 DUP5 ADD RETURNDATACOPY PUSH2 0x1682 JUMP JUMPDEST PUSH1 0x60 SWAP2 POP JUMPDEST POP PUSH1 0x0 DUP2 MLOAD SUB PUSH2 0x16BE JUMPI PUSH1 0x40 MLOAD PUSH32 0xD1A57ED600000000000000000000000000000000000000000000000000000000 DUP2 MSTORE PUSH1 0x4 ADD PUSH1 0x40 MLOAD DUP1 SWAP2 SUB SWAP1 REVERT JUMPDEST DUP1 MLOAD DUP2 PUSH1 0x20 ADD REVERT JUMPDEST PUSH4 0x150B7A02 PUSH1 0xE0 SHL PUSH28 0xFFFFFFFFFFFFFFFFFFFFFFFFFFFFFFFFFFFFFFFFFFFFFFFFFFFFFFFF NOT AND DUP2 PUSH28 0xFFFFFFFFFFFFFFFFFFFFFFFFFFFFFFFFFFFFFFFFFFFFFFFFFFFFFFFF NOT AND EQ SWAP2 POP POP SWAP5 SWAP4 POP POP POP POP JUMP JUMPDEST PUSH1 0x60 PUSH1 0x40 MLOAD DUP1 PUSH1 0x80 ADD PUSH1 0x40 MSTORE DUP1 PUSH1 0x51 DUP2 MSTORE PUSH1 0x20 ADD PUSH2 0x22E4 PUSH1 0x51 SWAP2 CODECOPY SWAP1 POP SWAP1 JUMP JUMPDEST PUSH1 0x60 PUSH1 0x0 DUP3 SUB PUSH2 0x1780 JUMPI PUSH1 0x40 MLOAD DUP1 PUSH1 0x40 ADD PUSH1 0x40 MSTORE DUP1 PUSH1 0x1 DUP2 MSTORE PUSH1 0x20 ADD PUSH32 0x3000000000000000000000000000000000000000000000000000000000000000 DUP2 MSTORE POP SWAP1 POP PUSH2 0x1894 JUMP JUMPDEST PUSH1 0x0 DUP3 SWAP1 POP PUSH1 0x0 JUMPDEST PUSH1 0x0 DUP3 EQ PUSH2 0x17B2 JUMPI DUP1 DUP1 PUSH2 0x179B SWAP1 PUSH2 0x21DB JUMP JUMPDEST SWAP2 POP POP PUSH1 0xA DUP3 PUSH2 0x17AB SWAP2 SWAP1 PUSH2 0x2252 JUMP JUMPDEST SWAP2 POP PUSH2 0x1788 JUMP JUMPDEST PUSH1 0x0 DUP2 PUSH8 0xFFFFFFFFFFFFFFFF DUP2 GT ISZERO PUSH2 0x17CE JUMPI PUSH2 0x17CD PUSH2 0x1D71 JUMP JUMPDEST JUMPDEST PUSH1 0x40 MLOAD SWAP1 DUP1 DUP3 MSTORE DUP1 PUSH1 0x1F ADD PUSH1 0x1F NOT AND PUSH1 0x20 ADD DUP3 ADD PUSH1 0x40 MSTORE DUP1 ISZERO PUSH2 0x1800 JUMPI DUP2 PUSH1 0x20 ADD PUSH1 0x1 DUP3 MUL DUP1 CALLDATASIZE DUP4 CALLDATACOPY DUP1 DUP3 ADD SWAP2 POP POP SWAP1 POP JUMPDEST POP SWAP1 POP JUMPDEST PUSH1 0x0 DUP6 EQ PUSH2 0x188D JUMPI PUSH1 0x1 DUP3 PUSH2 0x1819 SWAP2 SWAP1 PUSH2 0x204E JUMP JUMPDEST SWAP2 POP PUSH1 0xA DUP6 PUSH2 0x1828 SWAP2 SWAP1 PUSH2 0x2283 JUMP JUMPDEST PUSH1 0x30 PUSH2 0x1834 SWAP2 SWAP1 PUSH2 0x20C4 JUMP JUMPDEST PUSH1 0xF8 SHL DUP2 DUP4 DUP2 MLOAD DUP2 LT PUSH2 0x184A JUMPI PUSH2 0x1849 PUSH2 0x22B4 JUMP JUMPDEST JUMPDEST PUSH1 0x20 ADD ADD SWAP1 PUSH31 0xFFFFFFFFFFFFFFFFFFFFFFFFFFFFFFFFFFFFFFFFFFFFFFFFFFFFFFFFFFFFFF NOT AND SWAP1 DUP2 PUSH1 0x0 BYTE SWAP1 MSTORE8 POP PUSH1 0xA DUP6 PUSH2 0x1886 SWAP2 SWAP1 PUSH2 0x2252 JUMP JUMPDEST SWAP5 POP PUSH2 0x1804 JUMP JUMPDEST DUP1 SWAP4 POP POP POP POP JUMPDEST SWAP2 SWAP1 POP JUMP JUMPDEST PUSH1 0x0 PUSH2 0x18A4 DUP3 PUSH2 0x6C6 JUMP JUMPDEST SWAP1 POP DUP1 PUSH1 0xB PUSH1 0x0 DUP5 PUSH20 0xFFFFFFFFFFFFFFFFFFFFFFFFFFFFFFFFFFFFFFFF AND PUSH20 0xFFFFFFFFFFFFFFFFFFFFFFFFFFFFFFFFFFFFFFFF AND DUP2 MSTORE PUSH1 0x20 ADD SWAP1 DUP2 MSTORE PUSH1 0x20 ADD PUSH1 0x0 KECCAK256 PUSH1 0x0 PUSH1 0x2 DUP2 MSTORE PUSH1 0x20 ADD SWAP1 DUP2 MSTORE PUSH1 0x20 ADD PUSH1 0x0 KECCAK256 DUP2 SWAP1 SSTORE POP NUMBER PUSH1 0xB PUSH1 0x0 DUP5 PUSH20 0xFFFFFFFFFFFFFFFFFFFFFFFFFFFFFFFFFFFFFFFF AND PUSH20 0xFFFFFFFFFFFFFFFFFFFFFFFFFFFFFFFFFFFFFFFF AND DUP2 MSTORE PUSH1 0x20 ADD SWAP1 DUP2 MSTORE PUSH1 0x20 ADD PUSH1 0x0 KECCAK256 PUSH1 0x0 PUSH1 0x1 DUP2 MSTORE PUSH1 0x20 ADD SWAP1 DUP2 MSTORE PUSH1 0x20 ADD PUSH1 0x0 KECCAK256 DUP2 SWAP1 SSTORE POP POP POP JUMP JUMPDEST POP POP POP POP JUMP JUMPDEST POP POP POP POP JUMP JUMPDEST PUSH1 0x40 MLOAD DUP1 PUSH1 0x60 ADD PUSH1 0x40 MSTORE DUP1 PUSH1 0x0 PUSH20 0xFFFFFFFFFFFFFFFFFFFFFFFFFFFFFFFFFFFFFFFF AND DUP2 MSTORE PUSH1 0x20 ADD PUSH1 0x0 PUSH8 0xFFFFFFFFFFFFFFFF AND DUP2 MSTORE PUSH1 0x20 ADD PUSH1 0x0 ISZERO ISZERO DUP2 MSTORE POP SWAP1 JUMP JUMPDEST PUSH1 0x0 PUSH1 0x40 MLOAD SWAP1 POP SWAP1 JUMP JUMPDEST PUSH1 0x0 DUP1 REVERT JUMPDEST PUSH1 0x0 DUP1 REVERT JUMPDEST PUSH1 0x0 PUSH32 0xFFFFFFFF00000000000000000000000000000000000000000000000000000000 DUP3 AND SWAP1 POP SWAP2 SWAP1 POP JUMP JUMPDEST PUSH2 0x19EE DUP2 PUSH2 0x19B9 JUMP JUMPDEST DUP2 EQ PUSH2 0x19F9 JUMPI PUSH1 0x0 DUP1 REVERT JUMPDEST POP JUMP JUMPDEST PUSH1 0x0 DUP2 CALLDATALOAD SWAP1 POP PUSH2 0x1A0B DUP2 PUSH2 0x19E5 JUMP JUMPDEST SWAP3 SWAP2 POP POP JUMP JUMPDEST PUSH1 0x0 PUSH1 0x20 DUP3 DUP5 SUB SLT ISZERO PUSH2 0x1A27 JUMPI PUSH2 0x1A26 PUSH2 0x19AF JUMP JUMPDEST JUMPDEST PUSH1 0x0 PUSH2 0x1A35 DUP5 DUP3 DUP6 ADD PUSH2 0x19FC JUMP JUMPDEST SWAP2 POP POP SWAP3 SWAP2 POP POP JUMP JUMPDEST PUSH1 0x0 DUP2 ISZERO ISZERO SWAP1 POP SWAP2 SWAP1 POP JUMP JUMPDEST PUSH2 0x1A53 DUP2 PUSH2 0x1A3E JUMP JUMPDEST DUP3 MSTORE POP POP JUMP JUMPDEST PUSH1 0x0 PUSH1 0x20 DUP3 ADD SWAP1 POP PUSH2 0x1A6E PUSH1 0x0 DUP4 ADD DUP5 PUSH2 0x1A4A JUMP JUMPDEST SWAP3 SWAP2 POP POP JUMP JUMPDEST PUSH1 0x0 DUP2 MLOAD SWAP1 POP SWAP2 SWAP1 POP JUMP JUMPDEST PUSH1 0x0 DUP3 DUP3 MSTORE PUSH1 0x20 DUP3 ADD SWAP1 POP SWAP3 SWAP2 POP POP JUMP JUMPDEST PUSH1 0x0 JUMPDEST DUP4 DUP2 LT ISZERO PUSH2 0x1AAE JUMPI DUP1 DUP3 ADD MLOAD DUP2 DUP5 ADD MSTORE PUSH1 0x20 DUP2 ADD SWAP1 POP PUSH2 0x1A93 JUMP JUMPDEST PUSH1 0x0 DUP5 DUP5 ADD MSTORE POP POP POP POP JUMP JUMPDEST PUSH1 0x0 PUSH1 0x1F NOT PUSH1 0x1F DUP4 ADD AND SWAP1 POP SWAP2 SWAP1 POP JUMP JUMPDEST PUSH1 0x0 PUSH2 0x1AD6 DUP3 PUSH2 0x1A74 JUMP JUMPDEST PUSH2 0x1AE0 DUP2 DUP6 PUSH2 0x1A7F JUMP JUMPDEST SWAP4 POP PUSH2 0x1AF0 DUP2 DUP6 PUSH1 0x20 DUP7 ADD PUSH2 0x1A90 JUMP JUMPDEST PUSH2 0x1AF9 DUP2 PUSH2 0x1ABA JUMP JUMPDEST DUP5 ADD SWAP2 POP POP SWAP3 SWAP2 POP POP JUMP JUMPDEST PUSH1 0x0 PUSH1 0x20 DUP3 ADD SWAP1 POP DUP2 DUP2 SUB PUSH1 0x0 DUP4 ADD MSTORE PUSH2 0x1B1E DUP2 DUP5 PUSH2 0x1ACB JUMP JUMPDEST SWAP1 POP SWAP3 SWAP2 POP POP JUMP JUMPDEST PUSH1 0x0 DUP2 SWAP1 POP SWAP2 SWAP1 POP JUMP JUMPDEST PUSH2 0x1B39 DUP2 PUSH2 0x1B26 JUMP JUMPDEST DUP2 EQ PUSH2 0x1B44 JUMPI PUSH1 0x0 DUP1 REVERT JUMPDEST POP JUMP JUMPDEST PUSH1 0x0 DUP2 CALLDATALOAD SWAP1 POP PUSH2 0x1B56 DUP2 PUSH2 0x1B30 JUMP JUMPDEST SWAP3 SWAP2 POP POP JUMP JUMPDEST PUSH1 0x0 PUSH1 0x20 DUP3 DUP5 SUB SLT ISZERO PUSH2 0x1B72 JUMPI PUSH2 0x1B71 PUSH2 0x19AF JUMP JUMPDEST JUMPDEST PUSH1 0x0 PUSH2 0x1B80 DUP5 DUP3 DUP6 ADD PUSH2 0x1B47 JUMP JUMPDEST SWAP2 POP POP SWAP3 SWAP2 POP POP JUMP JUMPDEST PUSH1 0x0 PUSH20 0xFFFFFFFFFFFFFFFFFFFFFFFFFFFFFFFFFFFFFFFF DUP3 AND SWAP1 POP SWAP2 SWAP1 POP JUMP JUMPDEST PUSH1 0x0 PUSH2 0x1BB4 DUP3 PUSH2 0x1B89 JUMP JUMPDEST SWAP1 POP SWAP2 SWAP1 POP JUMP JUMPDEST PUSH2 0x1BC4 DUP2 PUSH2 0x1BA9 JUMP JUMPDEST DUP3 MSTORE POP POP JUMP JUMPDEST PUSH1 0x0 PUSH1 0x20 DUP3 ADD SWAP1 POP PUSH2 0x1BDF PUSH1 0x0 DUP4 ADD DUP5 PUSH2 0x1BBB JUMP JUMPDEST SWAP3 SWAP2 POP POP JUMP JUMPDEST PUSH2 0x1BEE DUP2 PUSH2 0x1BA9 JUMP JUMPDEST DUP2 EQ PUSH2 0x1BF9 JUMPI PUSH1 0x0 DUP1 REVERT JUMPDEST POP JUMP JUMPDEST PUSH1 0x0 DUP2 CALLDATALOAD SWAP1 POP PUSH2 0x1C0B DUP2 PUSH2 0x1BE5 JUMP JUMPDEST SWAP3 SWAP2 POP POP JUMP JUMPDEST PUSH1 0x0 DUP1 PUSH1 0x40 DUP4 DUP6 SUB SLT ISZERO PUSH2 0x1C28 JUMPI PUSH2 0x1C27 PUSH2 0x19AF JUMP JUMPDEST JUMPDEST PUSH1 0x0 PUSH2 0x1C36 DUP6 DUP3 DUP7 ADD PUSH2 0x1BFC JUMP JUMPDEST SWAP3 POP POP PUSH1 0x20 PUSH2 0x1C47 DUP6 DUP3 DUP7 ADD PUSH2 0x1B47 JUMP JUMPDEST SWAP2 POP POP SWAP3 POP SWAP3 SWAP1 POP JUMP JUMPDEST PUSH2 0x1C5A DUP2 PUSH2 0x1B26 JUMP JUMPDEST DUP3 MSTORE POP POP JUMP JUMPDEST PUSH1 0x0 PUSH1 0x20 DUP3 ADD SWAP1 POP PUSH2 0x1C75 PUSH1 0x0 DUP4 ADD DUP5 PUSH2 0x1C51 JUMP JUMPDEST SWAP3 SWAP2 POP POP JUMP JUMPDEST PUSH1 0x0 DUP1 PUSH1 0x0 PUSH1 0x60 DUP5 DUP7 SUB SLT ISZERO PUSH2 0x1C94 JUMPI PUSH2 0x1C93 PUSH2 0x19AF JUMP JUMPDEST JUMPDEST PUSH1 0x0 PUSH2 0x1CA2 DUP7 DUP3 DUP8 ADD PUSH2 0x1BFC JUMP JUMPDEST SWAP4 POP POP PUSH1 0x20 PUSH2 0x1CB3 DUP7 DUP3 DUP8 ADD PUSH2 0x1BFC JUMP JUMPDEST SWAP3 POP POP PUSH1 0x40 PUSH2 0x1CC4 DUP7 DUP3 DUP8 ADD PUSH2 0x1B47 JUMP JUMPDEST SWAP2 POP POP SWAP3 POP SWAP3 POP SWAP3 JUMP JUMPDEST PUSH1 0x0 PUSH1 0x20 DUP3 DUP5 SUB SLT ISZERO PUSH2 0x1CE4 JUMPI PUSH2 0x1CE3 PUSH2 0x19AF JUMP JUMPDEST JUMPDEST PUSH1 0x0 PUSH2 0x1CF2 DUP5 DUP3 DUP6 ADD PUSH2 0x1BFC JUMP JUMPDEST SWAP2 POP POP SWAP3 SWAP2 POP POP JUMP JUMPDEST PUSH2 0x1D04 DUP2 PUSH2 0x1A3E JUMP JUMPDEST DUP2 EQ PUSH2 0x1D0F JUMPI PUSH1 0x0 DUP1 REVERT JUMPDEST POP JUMP JUMPDEST PUSH1 0x0 DUP2 CALLDATALOAD SWAP1 POP PUSH2 0x1D21 DUP2 PUSH2 0x1CFB JUMP JUMPDEST SWAP3 SWAP2 POP POP JUMP JUMPDEST PUSH1 0x0 DUP1 PUSH1 0x40 DUP4 DUP6 SUB SLT ISZERO PUSH2 0x1D3E JUMPI PUSH2 0x1D3D PUSH2 0x19AF JUMP JUMPDEST JUMPDEST PUSH1 0x0 PUSH2 0x1D4C DUP6 DUP3 DUP7 ADD PUSH2 0x1BFC JUMP JUMPDEST SWAP3 POP POP PUSH1 0x20 PUSH2 0x1D5D DUP6 DUP3 DUP7 ADD PUSH2 0x1D12 JUMP JUMPDEST SWAP2 POP POP SWAP3 POP SWAP3 SWAP1 POP JUMP JUMPDEST PUSH1 0x0 DUP1 REVERT JUMPDEST PUSH1 0x0 DUP1 REVERT JUMPDEST PUSH32 0x4E487B7100000000000000000000000000000000000000000000000000000000 PUSH1 0x0 MSTORE PUSH1 0x41 PUSH1 0x4 MSTORE PUSH1 0x24 PUSH1 0x0 REVERT JUMPDEST PUSH2 0x1DA9 DUP3 PUSH2 0x1ABA JUMP JUMPDEST DUP2 ADD DUP2 DUP2 LT PUSH8 0xFFFFFFFFFFFFFFFF DUP3 GT OR ISZERO PUSH2 0x1DC8 JUMPI PUSH2 0x1DC7 PUSH2 0x1D71 JUMP JUMPDEST JUMPDEST DUP1 PUSH1 0x40 MSTORE POP POP POP JUMP JUMPDEST PUSH1 0x0 PUSH2 0x1DDB PUSH2 0x19A5 JUMP JUMPDEST SWAP1 POP PUSH2 0x1DE7 DUP3 DUP3 PUSH2 0x1DA0 JUMP JUMPDEST SWAP2 SWAP1 POP JUMP JUMPDEST PUSH1 0x0 PUSH8 0xFFFFFFFFFFFFFFFF DUP3 GT ISZERO PUSH2 0x1E07 JUMPI PUSH2 0x1E06 PUSH2 0x1D71 JUMP JUMPDEST JUMPDEST PUSH2 0x1E10 DUP3 PUSH2 0x1ABA JUMP JUMPDEST SWAP1 POP PUSH1 0x20 DUP2 ADD SWAP1 POP SWAP2 SWAP1 POP JUMP JUMPDEST DUP3 DUP2 DUP4 CALLDATACOPY PUSH1 0x0 DUP4 DUP4 ADD MSTORE POP POP POP JUMP JUMPDEST PUSH1 0x0 PUSH2 0x1E3F PUSH2 0x1E3A DUP5 PUSH2 0x1DEC JUMP JUMPDEST PUSH2 0x1DD1 JUMP JUMPDEST SWAP1 POP DUP3 DUP2 MSTORE PUSH1 0x20 DUP2 ADD DUP5 DUP5 DUP5 ADD GT ISZERO PUSH2 0x1E5B JUMPI PUSH2 0x1E5A PUSH2 0x1D6C JUMP JUMPDEST JUMPDEST PUSH2 0x1E66 DUP5 DUP3 DUP6 PUSH2 0x1E1D JUMP JUMPDEST POP SWAP4 SWAP3 POP POP POP JUMP JUMPDEST PUSH1 0x0 DUP3 PUSH1 0x1F DUP4 ADD SLT PUSH2 0x1E83 JUMPI PUSH2 0x1E82 PUSH2 0x1D67 JUMP JUMPDEST JUMPDEST DUP2 CALLDATALOAD PUSH2 0x1E93 DUP5 DUP3 PUSH1 0x20 DUP7 ADD PUSH2 0x1E2C JUMP JUMPDEST SWAP2 POP POP SWAP3 SWAP2 POP POP JUMP JUMPDEST PUSH1 0x0 DUP1 PUSH1 0x0 DUP1 PUSH1 0x80 DUP6 DUP8 SUB SLT ISZERO PUSH2 0x1EB6 JUMPI PUSH2 0x1EB5 PUSH2 0x19AF JUMP JUMPDEST JUMPDEST PUSH1 0x0 PUSH2 0x1EC4 DUP8 DUP3 DUP9 ADD PUSH2 0x1BFC JUMP JUMPDEST SWAP5 POP POP PUSH1 0x20 PUSH2 0x1ED5 DUP8 DUP3 DUP9 ADD PUSH2 0x1BFC JUMP JUMPDEST SWAP4 POP POP PUSH1 0x40 PUSH2 0x1EE6 DUP8 DUP3 DUP9 ADD PUSH2 0x1B47 JUMP JUMPDEST SWAP3 POP POP PUSH1 0x60 DUP6 ADD CALLDATALOAD PUSH8 0xFFFFFFFFFFFFFFFF DUP2 GT ISZERO PUSH2 0x1F07 JUMPI PUSH2 0x1F06 PUSH2 0x19B4 JUMP JUMPDEST JUMPDEST PUSH2 0x1F13 DUP8 DUP3 DUP9 ADD PUSH2 0x1E6E JUMP JUMPDEST SWAP2 POP POP SWAP3 SWAP6 SWAP2 SWAP5 POP SWAP3 POP JUMP JUMPDEST PUSH1 0x0 DUP1 PUSH1 0x40 DUP4 DUP6 SUB SLT ISZERO PUSH2 0x1F36 JUMPI PUSH2 0x1F35 PUSH2 0x19AF JUMP JUMPDEST JUMPDEST PUSH1 0x0 PUSH2 0x1F44 DUP6 DUP3 DUP7 ADD PUSH2 0x1BFC JUMP JUMPDEST SWAP3 POP POP PUSH1 0x20 PUSH2 0x1F55 DUP6 DUP3 DUP7 ADD PUSH2 0x1BFC JUMP JUMPDEST SWAP2 POP POP SWAP3 POP SWAP3 SWAP1 POP JUMP JUMPDEST PUSH32 0x4E487B7100000000000000000000000000000000000000000000000000000000 PUSH1 0x0 MSTORE PUSH1 0x22 PUSH1 0x4 MSTORE PUSH1 0x24 PUSH1 0x0 REVERT JUMPDEST PUSH1 0x0 PUSH1 0x2 DUP3 DIV SWAP1 POP PUSH1 0x1 DUP3 AND DUP1 PUSH2 0x1FA6 JUMPI PUSH1 0x7F DUP3 AND SWAP2 POP JUMPDEST PUSH1 0x20 DUP3 LT DUP2 SUB PUSH2 0x1FB9 JUMPI PUSH2 0x1FB8 PUSH2 0x1F5F JUMP JUMPDEST JUMPDEST POP SWAP2 SWAP1 POP JUMP JUMPDEST PUSH1 0x0 DUP2 SWAP1 POP SWAP3 SWAP2 POP POP JUMP JUMPDEST PUSH1 0x0 PUSH2 0x1FD5 DUP3 PUSH2 0x1A74 JUMP JUMPDEST PUSH2 0x1FDF DUP2 DUP6 PUSH2 0x1FBF JUMP JUMPDEST SWAP4 POP PUSH2 0x1FEF DUP2 DUP6 PUSH1 0x20 DUP7 ADD PUSH2 0x1A90 JUMP JUMPDEST DUP1 DUP5 ADD SWAP2 POP POP SWAP3 SWAP2 POP POP JUMP JUMPDEST PUSH1 0x0 PUSH2 0x2007 DUP3 DUP6 PUSH2 0x1FCA JUMP JUMPDEST SWAP2 POP PUSH2 0x2013 DUP3 DUP5 PUSH2 0x1FCA JUMP JUMPDEST SWAP2 POP DUP2 SWAP1 POP SWAP4 SWAP3 POP POP POP JUMP JUMPDEST PUSH32 0x4E487B7100000000000000000000000000000000000000000000000000000000 PUSH1 0x0 MSTORE PUSH1 0x11 PUSH1 0x4 MSTORE PUSH1 0x24 PUSH1 0x0 REVERT JUMPDEST PUSH1 0x0 PUSH2 0x2059 DUP3 PUSH2 0x1B26 JUMP JUMPDEST SWAP2 POP PUSH2 0x2064 DUP4 PUSH2 0x1B26 JUMP JUMPDEST SWAP3 POP DUP3 DUP3 SUB SWAP1 POP DUP2 DUP2 GT ISZERO PUSH2 0x207C JUMPI PUSH2 0x207B PUSH2 0x201F JUMP JUMPDEST JUMPDEST SWAP3 SWAP2 POP POP JUMP JUMPDEST PUSH1 0x0 PUSH2 0x208D DUP3 PUSH2 0x1B26 JUMP JUMPDEST SWAP2 POP PUSH2 0x2098 DUP4 PUSH2 0x1B26 JUMP JUMPDEST SWAP3 POP DUP3 DUP3 MUL PUSH2 0x20A6 DUP2 PUSH2 0x1B26 JUMP JUMPDEST SWAP2 POP DUP3 DUP3 DIV DUP5 EQ DUP4 ISZERO OR PUSH2 0x20BD JUMPI PUSH2 0x20BC PUSH2 0x201F JUMP JUMPDEST JUMPDEST POP SWAP3 SWAP2 POP POP JUMP JUMPDEST PUSH1 0x0 PUSH2 0x20CF DUP3 PUSH2 0x1B26 JUMP JUMPDEST SWAP2 POP PUSH2 0x20DA DUP4 PUSH2 0x1B26 JUMP JUMPDEST SWAP3 POP DUP3 DUP3 ADD SWAP1 POP DUP1 DUP3 GT ISZERO PUSH2 0x20F2 JUMPI PUSH2 0x20F1 PUSH2 0x201F JUMP JUMPDEST JUMPDEST SWAP3 SWAP2 POP POP JUMP JUMPDEST PUSH1 0x0 DUP2 MLOAD SWAP1 POP SWAP2 SWAP1 POP JUMP JUMPDEST PUSH1 0x0 DUP3 DUP3 MSTORE PUSH1 0x20 DUP3 ADD SWAP1 POP SWAP3 SWAP2 POP POP JUMP JUMPDEST PUSH1 0x0 PUSH2 0x211F DUP3 PUSH2 0x20F8 JUMP JUMPDEST PUSH2 0x2129 DUP2 DUP6 PUSH2 0x2103 JUMP JUMPDEST SWAP4 POP PUSH2 0x2139 DUP2 DUP6 PUSH1 0x20 DUP7 ADD PUSH2 0x1A90 JUMP JUMPDEST PUSH2 0x2142 DUP2 PUSH2 0x1ABA JUMP JUMPDEST DUP5 ADD SWAP2 POP POP SWAP3 SWAP2 POP POP JUMP JUMPDEST PUSH1 0x0 PUSH1 0x80 DUP3 ADD SWAP1 POP PUSH2 0x2162 PUSH1 0x0 DUP4 ADD DUP8 PUSH2 0x1BBB JUMP JUMPDEST PUSH2 0x216F PUSH1 0x20 DUP4 ADD DUP7 PUSH2 0x1BBB JUMP JUMPDEST PUSH2 0x217C PUSH1 0x40 DUP4 ADD DUP6 PUSH2 0x1C51 JUMP JUMPDEST DUP2 DUP2 SUB PUSH1 0x60 DUP4 ADD MSTORE PUSH2 0x218E DUP2 DUP5 PUSH2 0x2114 JUMP JUMPDEST SWAP1 POP SWAP6 SWAP5 POP POP POP POP POP JUMP JUMPDEST PUSH1 0x0 DUP2 MLOAD SWAP1 POP PUSH2 0x21A8 DUP2 PUSH2 0x19E5 JUMP JUMPDEST SWAP3 SWAP2 POP POP JUMP JUMPDEST PUSH1 0x0 PUSH1 0x20 DUP3 DUP5 SUB SLT ISZERO PUSH2 0x21C4 JUMPI PUSH2 0x21C3 PUSH2 0x19AF JUMP JUMPDEST JUMPDEST PUSH1 0x0 PUSH2 0x21D2 DUP5 DUP3 DUP6 ADD PUSH2 0x2199 JUMP JUMPDEST SWAP2 POP POP SWAP3 SWAP2 POP POP JUMP JUMPDEST PUSH1 0x0 PUSH2 0x21E6 DUP3 PUSH2 0x1B26 JUMP JUMPDEST SWAP2 POP PUSH32 0xFFFFFFFFFFFFFFFFFFFFFFFFFFFFFFFFFFFFFFFFFFFFFFFFFFFFFFFFFFFFFFFF DUP3 SUB PUSH2 0x2218 JUMPI PUSH2 0x2217 PUSH2 0x201F JUMP JUMPDEST JUMPDEST PUSH1 0x1 DUP3 ADD SWAP1 POP SWAP2 SWAP1 POP JUMP JUMPDEST PUSH32 0x4E487B7100000000000000000000000000000000000000000000000000000000 PUSH1 0x0 MSTORE PUSH1 0x12 PUSH1 0x4 MSTORE PUSH1 0x24 PUSH1 0x0 REVERT JUMPDEST PUSH1 0x0 PUSH2 0x225D DUP3 PUSH2 0x1B26 JUMP JUMPDEST SWAP2 POP PUSH2 0x2268 DUP4 PUSH2 0x1B26 JUMP JUMPDEST SWAP3 POP DUP3 PUSH2 0x2278 JUMPI PUSH2 0x2277 PUSH2 0x2223 JUMP JUMPDEST JUMPDEST DUP3 DUP3 DIV SWAP1 POP SWAP3 SWAP2 POP POP JUMP JUMPDEST PUSH1 0x0 PUSH2 0x228E DUP3 PUSH2 0x1B26 JUMP JUMPDEST SWAP2 POP PUSH2 0x2299 DUP4 PUSH2 0x1B26 JUMP JUMPDEST SWAP3 POP DUP3 PUSH2 0x22A9 JUMPI PUSH2 0x22A8 PUSH2 0x2223 JUMP JUMPDEST JUMPDEST DUP3 DUP3 MOD SWAP1 POP SWAP3 SWAP2 POP POP JUMP JUMPDEST PUSH32 0x4E487B7100000000000000000000000000000000000000000000000000000000 PUSH1 0x0 MSTORE PUSH1 0x32 PUSH1 0x4 MSTORE PUSH1 0x24 PUSH1 0x0 REVERT INVALID PUSH9 0x747470733A2F2F6761 PUSH21 0x657761792E70696E6174612E636C6F75642F697066 PUSH20 0x2F516D65794B6E7658584D784175574735707433 CALLDATALOAD GASLIMIT PUSH27 0x3851684A6852363352445653775566736A4B61795234325A2FA264 PUSH10 0x706673582212206C1FB9 0xFB LOG4 0xE5 0xD1 0xAE SWAP4 PUSH22 0xB149D04FB1D6B9248C41942EC55F05045A8D48A8F5F PUSH5 0x736F6C6343 STOP ADDMOD GT STOP CALLER "
				},
				"gasEstimates": {
					"creation": {
						"codeDepositCost": "1813200",
						"executionCost": "infinite",
						"totalCost": "infinite"
					},
					"external": {
						"BlockScore(address)": "infinite",
						"_DCFperBlock()": "2518",
						"_salt()": "2518",
						"approve(address,uint256)": "infinite",
						"balanceOf(address)": "2969",
						"getApproved(uint256)": "7458",
						"isApprovedForAll(address,address)": "infinite",
						"maxSupply()": "4664",
						"name()": "infinite",
						"ownerOf(uint256)": "infinite",
						"safeTransferFrom(address,address,uint256)": "infinite",
						"safeTransferFrom(address,address,uint256,bytes)": "infinite",
						"setApprovalForAll(address,bool)": "infinite",
						"supportsInterface(bytes4)": "797",
						"symbol()": "infinite",
						"tokenURI(uint256)": "infinite",
						"totalSupply()": "4599",
						"transferFrom(address,address,uint256)": "infinite"
					},
					"internal": {
						"_afterTokenTransfers(address,address,uint256,uint256)": "17",
						"_approve(address,uint256,address)": "26292",
						"_baseURI()": "infinite",
						"_beforeTokenTransfers(address,address,uint256,uint256)": "17",
						"_burn(uint256)": "infinite",
						"_burn(uint256,bool)": "infinite",
						"_checkContractOnERC721Received(address,address,uint256,bytes memory)": "infinite",
						"_exists(uint256)": "4499",
						"_getAux(address)": "infinite",
						"_numberBurned(address)": "infinite",
						"_numberMinted(address)": "infinite",
						"_ownershipOf(uint256)": "infinite",
						"_safeMint(address,uint256)": "infinite",
						"_safeMint(address,uint256,bytes memory)": "infinite",
						"_setAux(address,uint64)": "infinite",
						"_startTokenId()": "15",
						"_totalMinted()": "infinite",
						"_transfer(address,address,uint256)": "infinite",
						"updateBlockScore(address)": "infinite"
					}
				},
				"methodIdentifiers": {
					"BlockScore(address)": "325b272a",
					"_DCFperBlock()": "38020dcc",
					"_salt()": "9f773399",
					"approve(address,uint256)": "095ea7b3",
					"balanceOf(address)": "70a08231",
					"getApproved(uint256)": "081812fc",
					"isApprovedForAll(address,address)": "e985e9c5",
					"maxSupply()": "d5abeb01",
					"name()": "06fdde03",
					"ownerOf(uint256)": "6352211e",
					"safeTransferFrom(address,address,uint256)": "42842e0e",
					"safeTransferFrom(address,address,uint256,bytes)": "b88d4fde",
					"setApprovalForAll(address,bool)": "a22cb465",
					"supportsInterface(bytes4)": "01ffc9a7",
					"symbol()": "95d89b41",
					"tokenURI(uint256)": "c87b56dd",
					"totalSupply()": "18160ddd",
					"transferFrom(address,address,uint256)": "23b872dd"
				}
			},
			"storageLayout": {
				"storage": [
					{
						"astId": 1152,
						"contract": "Dcoffer/ERC721A/test.sol:ERC721A",
						"label": "_salt",
						"offset": 0,
						"slot": "0",
						"type": "t_uint256"
					},
					{
						"astId": 1154,
						"contract": "Dcoffer/ERC721A/test.sol:ERC721A",
						"label": "_DCFperBlock",
						"offset": 0,
						"slot": "1",
						"type": "t_uint256"
					},
					{
						"astId": 1156,
						"contract": "Dcoffer/ERC721A/test.sol:ERC721A",
						"label": "_currentIndex",
						"offset": 0,
						"slot": "2",
						"type": "t_uint256"
					},
					{
						"astId": 1158,
						"contract": "Dcoffer/ERC721A/test.sol:ERC721A",
						"label": "_maxSupply",
						"offset": 0,
						"slot": "3",
						"type": "t_uint256"
					},
					{
						"astId": 1160,
						"contract": "Dcoffer/ERC721A/test.sol:ERC721A",
						"label": "_burnCounter",
						"offset": 0,
						"slot": "4",
						"type": "t_uint256"
					},
					{
						"astId": 1162,
						"contract": "Dcoffer/ERC721A/test.sol:ERC721A",
						"label": "_name",
						"offset": 0,
						"slot": "5",
						"type": "t_string_storage"
					},
					{
						"astId": 1164,
						"contract": "Dcoffer/ERC721A/test.sol:ERC721A",
						"label": "_symbol",
						"offset": 0,
						"slot": "6",
						"type": "t_string_storage"
					},
					{
						"astId": 1169,
						"contract": "Dcoffer/ERC721A/test.sol:ERC721A",
						"label": "_ownerships",
						"offset": 0,
						"slot": "7",
						"type": "t_mapping(t_uint256,t_struct(TokenOwnership)1106_storage)"
					},
					{
						"astId": 1174,
						"contract": "Dcoffer/ERC721A/test.sol:ERC721A",
						"label": "_addressData",
						"offset": 0,
						"slot": "8",
						"type": "t_mapping(t_address,t_struct(AddressData)1115_storage)"
					},
					{
						"astId": 1178,
						"contract": "Dcoffer/ERC721A/test.sol:ERC721A",
						"label": "_tokenApprovals",
						"offset": 0,
						"slot": "9",
						"type": "t_mapping(t_uint256,t_address)"
					},
					{
						"astId": 1184,
						"contract": "Dcoffer/ERC721A/test.sol:ERC721A",
						"label": "_operatorApprovals",
						"offset": 0,
						"slot": "10",
						"type": "t_mapping(t_address,t_mapping(t_address,t_bool))"
					},
					{
						"astId": 1191,
						"contract": "Dcoffer/ERC721A/test.sol:ERC721A",
						"label": "_BlockScore",
						"offset": 0,
						"slot": "11",
						"type": "t_mapping(t_address,t_mapping(t_uint256,t_uint256))"
					}
				],
				"types": {
					"t_address": {
						"encoding": "inplace",
						"label": "address",
						"numberOfBytes": "20"
					},
					"t_bool": {
						"encoding": "inplace",
						"label": "bool",
						"numberOfBytes": "1"
					},
					"t_mapping(t_address,t_bool)": {
						"encoding": "mapping",
						"key": "t_address",
						"label": "mapping(address => bool)",
						"numberOfBytes": "32",
						"value": "t_bool"
					},
					"t_mapping(t_address,t_mapping(t_address,t_bool))": {
						"encoding": "mapping",
						"key": "t_address",
						"label": "mapping(address => mapping(address => bool))",
						"numberOfBytes": "32",
						"value": "t_mapping(t_address,t_bool)"
					},
					"t_mapping(t_address,t_mapping(t_uint256,t_uint256))": {
						"encoding": "mapping",
						"key": "t_address",
						"label": "mapping(address => mapping(uint256 => uint256))",
						"numberOfBytes": "32",
						"value": "t_mapping(t_uint256,t_uint256)"
					},
					"t_mapping(t_address,t_struct(AddressData)1115_storage)": {
						"encoding": "mapping",
						"key": "t_address",
						"label": "mapping(address => struct IERC721A.AddressData)",
						"numberOfBytes": "32",
						"value": "t_struct(AddressData)1115_storage"
					},
					"t_mapping(t_uint256,t_address)": {
						"encoding": "mapping",
						"key": "t_uint256",
						"label": "mapping(uint256 => address)",
						"numberOfBytes": "32",
						"value": "t_address"
					},
					"t_mapping(t_uint256,t_struct(TokenOwnership)1106_storage)": {
						"encoding": "mapping",
						"key": "t_uint256",
						"label": "mapping(uint256 => struct IERC721A.TokenOwnership)",
						"numberOfBytes": "32",
						"value": "t_struct(TokenOwnership)1106_storage"
					},
					"t_mapping(t_uint256,t_uint256)": {
						"encoding": "mapping",
						"key": "t_uint256",
						"label": "mapping(uint256 => uint256)",
						"numberOfBytes": "32",
						"value": "t_uint256"
					},
					"t_string_storage": {
						"encoding": "bytes",
						"label": "string",
						"numberOfBytes": "32"
					},
					"t_struct(AddressData)1115_storage": {
						"encoding": "inplace",
						"label": "struct IERC721A.AddressData",
						"members": [
							{
								"astId": 1108,
								"contract": "Dcoffer/ERC721A/test.sol:ERC721A",
								"label": "balance",
								"offset": 0,
								"slot": "0",
								"type": "t_uint64"
							},
							{
								"astId": 1110,
								"contract": "Dcoffer/ERC721A/test.sol:ERC721A",
								"label": "numberMinted",
								"offset": 8,
								"slot": "0",
								"type": "t_uint64"
							},
							{
								"astId": 1112,
								"contract": "Dcoffer/ERC721A/test.sol:ERC721A",
								"label": "numberBurned",
								"offset": 16,
								"slot": "0",
								"type": "t_uint64"
							},
							{
								"astId": 1114,
								"contract": "Dcoffer/ERC721A/test.sol:ERC721A",
								"label": "aux",
								"offset": 24,
								"slot": "0",
								"type": "t_uint64"
							}
						],
						"numberOfBytes": "32"
					},
					"t_struct(TokenOwnership)1106_storage": {
						"encoding": "inplace",
						"label": "struct IERC721A.TokenOwnership",
						"members": [
							{
								"astId": 1101,
								"contract": "Dcoffer/ERC721A/test.sol:ERC721A",
								"label": "addr",
								"offset": 0,
								"slot": "0",
								"type": "t_address"
							},
							{
								"astId": 1103,
								"contract": "Dcoffer/ERC721A/test.sol:ERC721A",
								"label": "startTimestamp",
								"offset": 20,
								"slot": "0",
								"type": "t_uint64"
							},
							{
								"astId": 1105,
								"contract": "Dcoffer/ERC721A/test.sol:ERC721A",
								"label": "burned",
								"offset": 28,
								"slot": "0",
								"type": "t_bool"
							}
						],
						"numberOfBytes": "32"
					},
					"t_uint256": {
						"encoding": "inplace",
						"label": "uint256",
						"numberOfBytes": "32"
					},
					"t_uint64": {
						"encoding": "inplace",
						"label": "uint64",
						"numberOfBytes": "8"
					}
				}
			},
			"userdoc": {
				"errors": {
					"ApprovalCallerNotOwnerNorApproved()": [
						{
							"notice": "The caller must own the token or be an approved operator."
						}
					],
					"ApprovalQueryForNonexistentToken()": [
						{
							"notice": "The token does not exist."
						}
					],
					"ApprovalToCurrentOwner()": [
						{
							"notice": "The caller cannot approve to the current owner."
						}
					],
					"ApproveToCaller()": [
						{
							"notice": "The caller cannot approve to their own address."
						}
					],
					"BalanceQueryForZeroAddress()": [
						{
							"notice": "Cannot query the balance for the zero address."
						}
					],
					"MintToZeroAddress()": [
						{
							"notice": "Cannot mint to the zero address."
						}
					],
					"MintZeroQuantity()": [
						{
							"notice": "The quantity of tokens minted must be more than zero."
						}
					],
					"OwnerQueryForNonexistentToken()": [
						{
							"notice": "The token does not exist."
						}
					],
					"TransferCallerNotOwnerNorApproved()": [
						{
							"notice": "The caller must own the token or be an approved operator."
						}
					],
					"TransferFromIncorrectOwner()": [
						{
							"notice": "The token must be owned by `from`."
						}
					],
					"TransferToNonERC721ReceiverImplementer()": [
						{
							"notice": "Cannot safely transfer to a contract that does not implement the ERC721Receiver interface."
						}
					],
					"TransferToZeroAddress()": [
						{
							"notice": "Cannot transfer to the zero address."
						}
					],
					"URIQueryForNonexistentToken()": [
						{
							"notice": "The token does not exist."
						}
					]
				},
				"kind": "user",
				"methods": {},
				"version": 1
			}
		}
	}
}