{
	"Dcoffer/ERC721A/test.sol": {
		"ERC721A": {
			"abi": [
				{
					"inputs": [
						{
							"internalType": "string",
							"name": "name_",
							"type": "string"
						},
						{
							"internalType": "string",
							"name": "symbol_",
							"type": "string"
						},
						{
							"internalType": "uint256",
							"name": "maxSupply_",
							"type": "uint256"
						},
						{
							"internalType": "uint256",
							"name": "salt_",
							"type": "uint256"
						}
					],
					"stateMutability": "nonpayable",
					"type": "constructor"
				},
				{
					"inputs": [],
					"name": "ApprovalCallerNotOwnerNorApproved",
					"type": "error"
				},
				{
					"inputs": [],
					"name": "ApprovalQueryForNonexistentToken",
					"type": "error"
				},
				{
					"inputs": [],
					"name": "ApprovalToCurrentOwner",
					"type": "error"
				},
				{
					"inputs": [],
					"name": "ApproveToCaller",
					"type": "error"
				},
				{
					"inputs": [],
					"name": "BalanceQueryForZeroAddress",
					"type": "error"
				},
				{
					"inputs": [],
					"name": "MintToZeroAddress",
					"type": "error"
				},
				{
					"inputs": [],
					"name": "MintZeroQuantity",
					"type": "error"
				},
				{
					"inputs": [],
					"name": "OwnerQueryForNonexistentToken",
					"type": "error"
				},
				{
					"inputs": [],
					"name": "TransferCallerNotOwnerNorApproved",
					"type": "error"
				},
				{
					"inputs": [],
					"name": "TransferFromIncorrectOwner",
					"type": "error"
				},
				{
					"inputs": [],
					"name": "TransferToNonERC721ReceiverImplementer",
					"type": "error"
				},
				{
					"inputs": [],
					"name": "TransferToZeroAddress",
					"type": "error"
				},
				{
					"inputs": [],
					"name": "URIQueryForNonexistentToken",
					"type": "error"
				},
				{
					"anonymous": false,
					"inputs": [
						{
							"indexed": true,
							"internalType": "address",
							"name": "owner",
							"type": "address"
						},
						{
							"indexed": true,
							"internalType": "address",
							"name": "approved",
							"type": "address"
						},
						{
							"indexed": true,
							"internalType": "uint256",
							"name": "tokenId",
							"type": "uint256"
						}
					],
					"name": "Approval",
					"type": "event"
				},
				{
					"anonymous": false,
					"inputs": [
						{
							"indexed": true,
							"internalType": "address",
							"name": "owner",
							"type": "address"
						},
						{
							"indexed": true,
							"internalType": "address",
							"name": "operator",
							"type": "address"
						},
						{
							"indexed": false,
							"internalType": "bool",
							"name": "approved",
							"type": "bool"
						}
					],
					"name": "ApprovalForAll",
					"type": "event"
				},
				{
					"anonymous": false,
					"inputs": [
						{
							"indexed": true,
							"internalType": "address",
							"name": "from",
							"type": "address"
						},
						{
							"indexed": true,
							"internalType": "address",
							"name": "to",
							"type": "address"
						},
						{
							"indexed": true,
							"internalType": "uint256",
							"name": "tokenId",
							"type": "uint256"
						}
					],
					"name": "Transfer",
					"type": "event"
				},
				{
					"inputs": [
						{
							"internalType": "address",
							"name": "user",
							"type": "address"
						}
					],
					"name": "BlockScore",
					"outputs": [
						{
							"internalType": "uint256",
							"name": "",
							"type": "uint256"
						}
					],
					"stateMutability": "view",
					"type": "function"
				},
				{
					"inputs": [
						{
							"internalType": "uint256",
							"name": "tokenId",
							"type": "uint256"
						}
					],
					"name": "DcofferPower",
					"outputs": [
						{
							"internalType": "uint256",
							"name": "",
							"type": "uint256"
						}
					],
					"stateMutability": "view",
					"type": "function"
				},
				{
					"inputs": [
						{
							"internalType": "uint256",
							"name": "_BlockNumber",
							"type": "uint256"
						}
					],
					"name": "MineStatus",
					"outputs": [
						{
							"internalType": "uint256",
							"name": "",
							"type": "uint256"
						}
					],
					"stateMutability": "view",
					"type": "function"
				},
				{
					"inputs": [],
					"name": "_DCFperBlock",
					"outputs": [
						{
							"internalType": "uint256",
							"name": "",
							"type": "uint256"
						}
					],
					"stateMutability": "view",
					"type": "function"
				},
				{
					"inputs": [],
					"name": "_salt",
					"outputs": [
						{
							"internalType": "uint256",
							"name": "",
							"type": "uint256"
						}
					],
					"stateMutability": "view",
					"type": "function"
				},
				{
					"inputs": [],
					"name": "_startBlockNumber",
					"outputs": [
						{
							"internalType": "uint256",
							"name": "",
							"type": "uint256"
						}
					],
					"stateMutability": "view",
					"type": "function"
				},
				{
					"inputs": [],
					"name": "_totalPower",
					"outputs": [
						{
							"internalType": "uint256",
							"name": "",
							"type": "uint256"
						}
					],
					"stateMutability": "view",
					"type": "function"
				},
				{
					"inputs": [
						{
							"internalType": "address",
							"name": "to",
							"type": "address"
						},
						{
							"internalType": "uint256",
							"name": "tokenId",
							"type": "uint256"
						}
					],
					"name": "approve",
					"outputs": [],
					"stateMutability": "nonpayable",
					"type": "function"
				},
				{
					"inputs": [
						{
							"internalType": "address",
							"name": "owner",
							"type": "address"
						}
					],
					"name": "balanceOf",
					"outputs": [
						{
							"internalType": "uint256",
							"name": "",
							"type": "uint256"
						}
					],
					"stateMutability": "view",
					"type": "function"
				},
				{
					"inputs": [
						{
							"internalType": "uint256",
							"name": "tokenId",
							"type": "uint256"
						}
					],
					"name": "getApproved",
					"outputs": [
						{
							"internalType": "address",
							"name": "",
							"type": "address"
						}
					],
					"stateMutability": "view",
					"type": "function"
				},
				{
					"inputs": [
						{
							"internalType": "address",
							"name": "owner",
							"type": "address"
						},
						{
							"internalType": "address",
							"name": "operator",
							"type": "address"
						}
					],
					"name": "isApprovedForAll",
					"outputs": [
						{
							"internalType": "bool",
							"name": "",
							"type": "bool"
						}
					],
					"stateMutability": "view",
					"type": "function"
				},
				{
					"inputs": [],
					"name": "maxSupply",
					"outputs": [
						{
							"internalType": "uint256",
							"name": "",
							"type": "uint256"
						}
					],
					"stateMutability": "view",
					"type": "function"
				},
				{
					"inputs": [],
					"name": "name",
					"outputs": [
						{
							"internalType": "string",
							"name": "",
							"type": "string"
						}
					],
					"stateMutability": "view",
					"type": "function"
				},
				{
					"inputs": [
						{
							"internalType": "uint256",
							"name": "tokenId",
							"type": "uint256"
						}
					],
					"name": "ownerOf",
					"outputs": [
						{
							"internalType": "address",
							"name": "",
							"type": "address"
						}
					],
					"stateMutability": "view",
					"type": "function"
				},
				{
					"inputs": [
						{
							"internalType": "address",
							"name": "from",
							"type": "address"
						},
						{
							"internalType": "address",
							"name": "to",
							"type": "address"
						},
						{
							"internalType": "uint256",
							"name": "tokenId",
							"type": "uint256"
						}
					],
					"name": "safeTransferFrom",
					"outputs": [],
					"stateMutability": "nonpayable",
					"type": "function"
				},
				{
					"inputs": [
						{
							"internalType": "address",
							"name": "from",
							"type": "address"
						},
						{
							"internalType": "address",
							"name": "to",
							"type": "address"
						},
						{
							"internalType": "uint256",
							"name": "tokenId",
							"type": "uint256"
						},
						{
							"internalType": "bytes",
							"name": "_data",
							"type": "bytes"
						}
					],
					"name": "safeTransferFrom",
					"outputs": [],
					"stateMutability": "nonpayable",
					"type": "function"
				},
				{
					"inputs": [
						{
							"internalType": "address",
							"name": "operator",
							"type": "address"
						},
						{
							"internalType": "bool",
							"name": "approved",
							"type": "bool"
						}
					],
					"name": "setApprovalForAll",
					"outputs": [],
					"stateMutability": "nonpayable",
					"type": "function"
				},
				{
					"inputs": [
						{
							"internalType": "bytes4",
							"name": "interfaceId",
							"type": "bytes4"
						}
					],
					"name": "supportsInterface",
					"outputs": [
						{
							"internalType": "bool",
							"name": "",
							"type": "bool"
						}
					],
					"stateMutability": "view",
					"type": "function"
				},
				{
					"inputs": [],
					"name": "symbol",
					"outputs": [
						{
							"internalType": "string",
							"name": "",
							"type": "string"
						}
					],
					"stateMutability": "view",
					"type": "function"
				},
				{
					"inputs": [
						{
							"internalType": "uint256",
							"name": "tokenId",
							"type": "uint256"
						}
					],
					"name": "tokenURI",
					"outputs": [
						{
							"internalType": "string",
							"name": "",
							"type": "string"
						}
					],
					"stateMutability": "view",
					"type": "function"
				},
				{
					"inputs": [],
					"name": "totalSupply",
					"outputs": [
						{
							"internalType": "uint256",
							"name": "",
							"type": "uint256"
						}
					],
					"stateMutability": "view",
					"type": "function"
				},
				{
					"inputs": [
						{
							"internalType": "address",
							"name": "from",
							"type": "address"
						},
						{
							"internalType": "address",
							"name": "to",
							"type": "address"
						},
						{
							"internalType": "uint256",
							"name": "tokenId",
							"type": "uint256"
						}
					],
					"name": "transferFrom",
					"outputs": [],
					"stateMutability": "nonpayable",
					"type": "function"
				},
				{
					"inputs": [
						{
							"internalType": "address",
							"name": "user",
							"type": "address"
						}
					],
					"name": "update",
					"outputs": [],
					"stateMutability": "nonpayable",
					"type": "function"
				}
			],
			"devdoc": {
				"details": "Implementation of https://eips.ethereum.org/EIPS/eip-721[ERC721] Non-Fungible Token Standard, including the Metadata extension. Built to optimize for lower gas during batch mints. Assumes serials are sequentially minted starting at _startTokenId() (defaults to 0, e.g. 0, 1, 2, 3..). Assumes that an owner cannot have more than 2**64 - 1 (max value of uint64) of supply. Assumes that the maximum token id cannot exceed 2**256 - 1 (max value of uint256).",
				"kind": "dev",
				"methods": {
					"approve(address,uint256)": {
						"details": "See {IERC721-approve}."
					},
					"balanceOf(address)": {
						"details": "See {IERC721-balanceOf}."
					},
					"getApproved(uint256)": {
						"details": "See {IERC721-getApproved}."
					},
					"isApprovedForAll(address,address)": {
						"details": "See {IERC721-isApprovedForAll}."
					},
					"name()": {
						"details": "See {IERC721Metadata-name}."
					},
					"ownerOf(uint256)": {
						"details": "See {IERC721-ownerOf}."
					},
					"safeTransferFrom(address,address,uint256)": {
						"details": "See {IERC721-safeTransferFrom}."
					},
					"safeTransferFrom(address,address,uint256,bytes)": {
						"details": "See {IERC721-safeTransferFrom}."
					},
					"setApprovalForAll(address,bool)": {
						"details": "See {IERC721-setApprovalForAll}."
					},
					"supportsInterface(bytes4)": {
						"details": "See {IERC165-supportsInterface}."
					},
					"symbol()": {
						"details": "See {IERC721Metadata-symbol}."
					},
					"tokenURI(uint256)": {
						"details": "See {IERC721Metadata-tokenURI}."
					},
					"totalSupply()": {
						"details": "Burned tokens are calculated here, use _totalMinted() if you want to count just minted tokens."
					},
					"transferFrom(address,address,uint256)": {
						"details": "See {IERC721-transferFrom}."
					}
				},
				"version": 1
			},
			"evm": {
				"assembly": "    /* \"Dcoffer/ERC721A/test.sol\":1024:22885  contract ERC721A is Context, ERC165, IERC721A, IDCF {... */\n  mstore(0x40, 0x80)\n    /* \"Dcoffer/ERC721A/test.sol\":2390:2755  constructor(string memory name_, string memory symbol_, uint256 maxSupply_, uint256 salt_) {... */\n  callvalue\n  dup1\n  iszero\n  tag_1\n  jumpi\n  0x00\n  dup1\n  revert\ntag_1:\n  pop\n  mload(0x40)\n  sub(codesize, bytecodeSize)\n  dup1\n  bytecodeSize\n  dup4\n  codecopy\n  dup2\n  dup2\n  add\n  0x40\n  mstore\n  dup2\n  add\n  swap1\n  tag_2\n  swap2\n  swap1\n  tag_3\n  jump\t// in\ntag_2:\n    /* \"Dcoffer/ERC721A/test.sol\":2500:2505  name_ */\n  dup4\n    /* \"Dcoffer/ERC721A/test.sol\":2492:2497  _name */\n  0x07\n    /* \"Dcoffer/ERC721A/test.sol\":2492:2505  _name = name_ */\n  swap1\n  dup2\n  tag_6\n  swap2\n  swap1\n  tag_7\n  jump\t// in\ntag_6:\n  pop\n    /* \"Dcoffer/ERC721A/test.sol\":2526:2533  symbol_ */\n  dup3\n    /* \"Dcoffer/ERC721A/test.sol\":2516:2523  _symbol */\n  0x08\n    /* \"Dcoffer/ERC721A/test.sol\":2516:2533  _symbol = symbol_ */\n  swap1\n  dup2\n  tag_8\n  swap2\n  swap1\n  tag_7\n  jump\t// in\ntag_8:\n  pop\n    /* \"Dcoffer/ERC721A/test.sol\":2557:2567  maxSupply_ */\n  dup2\n    /* \"Dcoffer/ERC721A/test.sol\":2544:2554  _maxSupply */\n  0x05\n    /* \"Dcoffer/ERC721A/test.sol\":2544:2567  _maxSupply = maxSupply_ */\n  dup2\n  swap1\n  sstore\n  pop\n    /* \"Dcoffer/ERC721A/test.sol\":2594:2609  _startTokenId() */\n  tag_9\n    /* \"Dcoffer/ERC721A/test.sol\":2594:2607  _startTokenId */\n  shl(0x20, tag_10)\n    /* \"Dcoffer/ERC721A/test.sol\":2594:2609  _startTokenId() */\n  0x20\n  shr\n  jump\t// in\ntag_9:\n    /* \"Dcoffer/ERC721A/test.sol\":2578:2591  _currentIndex */\n  0x04\n    /* \"Dcoffer/ERC721A/test.sol\":2578:2609  _currentIndex = _startTokenId() */\n  dup2\n  swap1\n  sstore\n  pop\n    /* \"Dcoffer/ERC721A/test.sol\":2629:2634  salt_ */\n  dup1\n    /* \"Dcoffer/ERC721A/test.sol\":2621:2626  _salt */\n  0x00\n    /* \"Dcoffer/ERC721A/test.sol\":2621:2634  _salt = salt_ */\n  dup2\n  swap1\n  sstore\n  pop\n    /* \"Dcoffer/ERC721A/test.sol\":2663:2667  2e18 */\n  0x1bc16d674ec80000\n    /* \"Dcoffer/ERC721A/test.sol\":2648:2660  _DCFperBlock */\n  0x01\n    /* \"Dcoffer/ERC721A/test.sol\":2648:2667  _DCFperBlock = 2e18 */\n  dup2\n  swap1\n  sstore\n  pop\n    /* \"Dcoffer/ERC721A/test.sol\":2695:2700  46000 */\n  0xb3b0\n    /* \"Dcoffer/ERC721A/test.sol\":2681:2692  _totalPower */\n  0x03\n    /* \"Dcoffer/ERC721A/test.sol\":2681:2700  _totalPower = 46000 */\n  dup2\n  swap1\n  sstore\n  pop\n    /* \"Dcoffer/ERC721A/test.sol\":2731:2743  block.number */\n  number\n    /* \"Dcoffer/ERC721A/test.sol\":2711:2728  _startBlockNumber */\n  0x02\n    /* \"Dcoffer/ERC721A/test.sol\":2711:2743  _startBlockNumber = block.number */\n  dup2\n  swap1\n  sstore\n  pop\n    /* \"Dcoffer/ERC721A/test.sol\":2390:2755  constructor(string memory name_, string memory symbol_, uint256 maxSupply_, uint256 salt_) {... */\n  pop\n  pop\n  pop\n  pop\n    /* \"Dcoffer/ERC721A/test.sol\":1024:22885  contract ERC721A is Context, ERC165, IERC721A, IDCF {... */\n  jump(tag_11)\n    /* \"Dcoffer/ERC721A/test.sol\":4162:4254  function _startTokenId() internal view virtual returns (uint256) {... */\ntag_10:\n    /* \"Dcoffer/ERC721A/test.sol\":4218:4225  uint256 */\n  0x00\n    /* \"Dcoffer/ERC721A/test.sol\":4162:4254  function _startTokenId() internal view virtual returns (uint256) {... */\n  swap1\n  jump\t// out\n    /* \"#utility.yul\":7:82   */\ntag_13:\n    /* \"#utility.yul\":40:46   */\n  0x00\n    /* \"#utility.yul\":73:75   */\n  0x40\n    /* \"#utility.yul\":67:76   */\n  mload\n    /* \"#utility.yul\":57:76   */\n  swap1\n  pop\n    /* \"#utility.yul\":7:82   */\n  swap1\n  jump\t// out\n    /* \"#utility.yul\":88:205   */\ntag_14:\n    /* \"#utility.yul\":197:198   */\n  0x00\n    /* \"#utility.yul\":194:195   */\n  dup1\n    /* \"#utility.yul\":187:199   */\n  revert\n    /* \"#utility.yul\":211:328   */\ntag_15:\n    /* \"#utility.yul\":320:321   */\n  0x00\n    /* \"#utility.yul\":317:318   */\n  dup1\n    /* \"#utility.yul\":310:322   */\n  revert\n    /* \"#utility.yul\":334:451   */\ntag_16:\n    /* \"#utility.yul\":443:444   */\n  0x00\n    /* \"#utility.yul\":440:441   */\n  dup1\n    /* \"#utility.yul\":433:445   */\n  revert\n    /* \"#utility.yul\":457:574   */\ntag_17:\n    /* \"#utility.yul\":566:567   */\n  0x00\n    /* \"#utility.yul\":563:564   */\n  dup1\n    /* \"#utility.yul\":556:568   */\n  revert\n    /* \"#utility.yul\":580:682   */\ntag_18:\n    /* \"#utility.yul\":621:627   */\n  0x00\n    /* \"#utility.yul\":672:674   */\n  0x1f\n    /* \"#utility.yul\":668:675   */\n  not\n    /* \"#utility.yul\":663:665   */\n  0x1f\n    /* \"#utility.yul\":656:661   */\n  dup4\n    /* \"#utility.yul\":652:666   */\n  add\n    /* \"#utility.yul\":648:676   */\n  and\n    /* \"#utility.yul\":638:676   */\n  swap1\n  pop\n    /* \"#utility.yul\":580:682   */\n  swap2\n  swap1\n  pop\n  jump\t// out\n    /* \"#utility.yul\":688:868   */\ntag_19:\n    /* \"#utility.yul\":736:813   */\n  0x4e487b7100000000000000000000000000000000000000000000000000000000\n    /* \"#utility.yul\":733:734   */\n  0x00\n    /* \"#utility.yul\":726:814   */\n  mstore\n    /* \"#utility.yul\":833:837   */\n  0x41\n    /* \"#utility.yul\":830:831   */\n  0x04\n    /* \"#utility.yul\":823:838   */\n  mstore\n    /* \"#utility.yul\":857:861   */\n  0x24\n    /* \"#utility.yul\":854:855   */\n  0x00\n    /* \"#utility.yul\":847:862   */\n  revert\n    /* \"#utility.yul\":874:1155   */\ntag_20:\n    /* \"#utility.yul\":957:984   */\n  tag_56\n    /* \"#utility.yul\":979:983   */\n  dup3\n    /* \"#utility.yul\":957:984   */\n  tag_18\n  jump\t// in\ntag_56:\n    /* \"#utility.yul\":949:955   */\n  dup2\n    /* \"#utility.yul\":945:985   */\n  add\n    /* \"#utility.yul\":1087:1093   */\n  dup2\n    /* \"#utility.yul\":1075:1085   */\n  dup2\n    /* \"#utility.yul\":1072:1094   */\n  lt\n    /* \"#utility.yul\":1051:1069   */\n  0xffffffffffffffff\n    /* \"#utility.yul\":1039:1049   */\n  dup3\n    /* \"#utility.yul\":1036:1070   */\n  gt\n    /* \"#utility.yul\":1033:1095   */\n  or\n    /* \"#utility.yul\":1030:1118   */\n  iszero\n  tag_57\n  jumpi\n    /* \"#utility.yul\":1098:1116   */\n  tag_58\n  tag_19\n  jump\t// in\ntag_58:\n    /* \"#utility.yul\":1030:1118   */\ntag_57:\n    /* \"#utility.yul\":1138:1148   */\n  dup1\n    /* \"#utility.yul\":1134:1136   */\n  0x40\n    /* \"#utility.yul\":1127:1149   */\n  mstore\n    /* \"#utility.yul\":917:1155   */\n  pop\n    /* \"#utility.yul\":874:1155   */\n  pop\n  pop\n  jump\t// out\n    /* \"#utility.yul\":1161:1290   */\ntag_21:\n    /* \"#utility.yul\":1195:1201   */\n  0x00\n    /* \"#utility.yul\":1222:1242   */\n  tag_60\n  tag_13\n  jump\t// in\ntag_60:\n    /* \"#utility.yul\":1212:1242   */\n  swap1\n  pop\n    /* \"#utility.yul\":1251:1284   */\n  tag_61\n    /* \"#utility.yul\":1279:1283   */\n  dup3\n    /* \"#utility.yul\":1271:1277   */\n  dup3\n    /* \"#utility.yul\":1251:1284   */\n  tag_20\n  jump\t// in\ntag_61:\n    /* \"#utility.yul\":1161:1290   */\n  swap2\n  swap1\n  pop\n  jump\t// out\n    /* \"#utility.yul\":1296:1604   */\ntag_22:\n    /* \"#utility.yul\":1358:1362   */\n  0x00\n    /* \"#utility.yul\":1448:1466   */\n  0xffffffffffffffff\n    /* \"#utility.yul\":1440:1446   */\n  dup3\n    /* \"#utility.yul\":1437:1467   */\n  gt\n    /* \"#utility.yul\":1434:1490   */\n  iszero\n  tag_63\n  jumpi\n    /* \"#utility.yul\":1470:1488   */\n  tag_64\n  tag_19\n  jump\t// in\ntag_64:\n    /* \"#utility.yul\":1434:1490   */\ntag_63:\n    /* \"#utility.yul\":1508:1537   */\n  tag_65\n    /* \"#utility.yul\":1530:1536   */\n  dup3\n    /* \"#utility.yul\":1508:1537   */\n  tag_18\n  jump\t// in\ntag_65:\n    /* \"#utility.yul\":1500:1537   */\n  swap1\n  pop\n    /* \"#utility.yul\":1592:1596   */\n  0x20\n    /* \"#utility.yul\":1586:1590   */\n  dup2\n    /* \"#utility.yul\":1582:1597   */\n  add\n    /* \"#utility.yul\":1574:1597   */\n  swap1\n  pop\n    /* \"#utility.yul\":1296:1604   */\n  swap2\n  swap1\n  pop\n  jump\t// out\n    /* \"#utility.yul\":1610:1856   */\ntag_23:\n    /* \"#utility.yul\":1691:1692   */\n  0x00\n    /* \"#utility.yul\":1701:1814   */\ntag_67:\n    /* \"#utility.yul\":1715:1721   */\n  dup4\n    /* \"#utility.yul\":1712:1713   */\n  dup2\n    /* \"#utility.yul\":1709:1722   */\n  lt\n    /* \"#utility.yul\":1701:1814   */\n  iszero\n  tag_69\n  jumpi\n    /* \"#utility.yul\":1800:1801   */\n  dup1\n    /* \"#utility.yul\":1795:1798   */\n  dup3\n    /* \"#utility.yul\":1791:1802   */\n  add\n    /* \"#utility.yul\":1785:1803   */\n  mload\n    /* \"#utility.yul\":1781:1782   */\n  dup2\n    /* \"#utility.yul\":1776:1779   */\n  dup5\n    /* \"#utility.yul\":1772:1783   */\n  add\n    /* \"#utility.yul\":1765:1804   */\n  mstore\n    /* \"#utility.yul\":1737:1739   */\n  0x20\n    /* \"#utility.yul\":1734:1735   */\n  dup2\n    /* \"#utility.yul\":1730:1740   */\n  add\n    /* \"#utility.yul\":1725:1740   */\n  swap1\n  pop\n    /* \"#utility.yul\":1701:1814   */\n  jump(tag_67)\ntag_69:\n    /* \"#utility.yul\":1848:1849   */\n  0x00\n    /* \"#utility.yul\":1839:1845   */\n  dup5\n    /* \"#utility.yul\":1834:1837   */\n  dup5\n    /* \"#utility.yul\":1830:1846   */\n  add\n    /* \"#utility.yul\":1823:1850   */\n  mstore\n    /* \"#utility.yul\":1672:1856   */\n  pop\n    /* \"#utility.yul\":1610:1856   */\n  pop\n  pop\n  pop\n  jump\t// out\n    /* \"#utility.yul\":1862:2296   */\ntag_24:\n    /* \"#utility.yul\":1951:1956   */\n  0x00\n    /* \"#utility.yul\":1976:2042   */\n  tag_71\n    /* \"#utility.yul\":1992:2041   */\n  tag_72\n    /* \"#utility.yul\":2034:2040   */\n  dup5\n    /* \"#utility.yul\":1992:2041   */\n  tag_22\n  jump\t// in\ntag_72:\n    /* \"#utility.yul\":1976:2042   */\n  tag_21\n  jump\t// in\ntag_71:\n    /* \"#utility.yul\":1967:2042   */\n  swap1\n  pop\n    /* \"#utility.yul\":2065:2071   */\n  dup3\n    /* \"#utility.yul\":2058:2063   */\n  dup2\n    /* \"#utility.yul\":2051:2072   */\n  mstore\n    /* \"#utility.yul\":2103:2107   */\n  0x20\n    /* \"#utility.yul\":2096:2101   */\n  dup2\n    /* \"#utility.yul\":2092:2108   */\n  add\n    /* \"#utility.yul\":2141:2144   */\n  dup5\n    /* \"#utility.yul\":2132:2138   */\n  dup5\n    /* \"#utility.yul\":2127:2130   */\n  dup5\n    /* \"#utility.yul\":2123:2139   */\n  add\n    /* \"#utility.yul\":2120:2145   */\n  gt\n    /* \"#utility.yul\":2117:2229   */\n  iszero\n  tag_73\n  jumpi\n    /* \"#utility.yul\":2148:2227   */\n  tag_74\n  tag_17\n  jump\t// in\ntag_74:\n    /* \"#utility.yul\":2117:2229   */\ntag_73:\n    /* \"#utility.yul\":2238:2290   */\n  tag_75\n    /* \"#utility.yul\":2283:2289   */\n  dup5\n    /* \"#utility.yul\":2278:2281   */\n  dup3\n    /* \"#utility.yul\":2273:2276   */\n  dup6\n    /* \"#utility.yul\":2238:2290   */\n  tag_23\n  jump\t// in\ntag_75:\n    /* \"#utility.yul\":1957:2296   */\n  pop\n    /* \"#utility.yul\":1862:2296   */\n  swap4\n  swap3\n  pop\n  pop\n  pop\n  jump\t// out\n    /* \"#utility.yul\":2316:2671   */\ntag_25:\n    /* \"#utility.yul\":2383:2388   */\n  0x00\n    /* \"#utility.yul\":2432:2435   */\n  dup3\n    /* \"#utility.yul\":2425:2429   */\n  0x1f\n    /* \"#utility.yul\":2417:2423   */\n  dup4\n    /* \"#utility.yul\":2413:2430   */\n  add\n    /* \"#utility.yul\":2409:2436   */\n  slt\n    /* \"#utility.yul\":2399:2521   */\n  tag_77\n  jumpi\n    /* \"#utility.yul\":2440:2519   */\n  tag_78\n  tag_16\n  jump\t// in\ntag_78:\n    /* \"#utility.yul\":2399:2521   */\ntag_77:\n    /* \"#utility.yul\":2550:2556   */\n  dup2\n    /* \"#utility.yul\":2544:2557   */\n  mload\n    /* \"#utility.yul\":2575:2665   */\n  tag_79\n    /* \"#utility.yul\":2661:2664   */\n  dup5\n    /* \"#utility.yul\":2653:2659   */\n  dup3\n    /* \"#utility.yul\":2646:2650   */\n  0x20\n    /* \"#utility.yul\":2638:2644   */\n  dup7\n    /* \"#utility.yul\":2634:2651   */\n  add\n    /* \"#utility.yul\":2575:2665   */\n  tag_24\n  jump\t// in\ntag_79:\n    /* \"#utility.yul\":2566:2665   */\n  swap2\n  pop\n    /* \"#utility.yul\":2389:2671   */\n  pop\n    /* \"#utility.yul\":2316:2671   */\n  swap3\n  swap2\n  pop\n  pop\n  jump\t// out\n    /* \"#utility.yul\":2677:2754   */\ntag_26:\n    /* \"#utility.yul\":2714:2721   */\n  0x00\n    /* \"#utility.yul\":2743:2748   */\n  dup2\n    /* \"#utility.yul\":2732:2748   */\n  swap1\n  pop\n    /* \"#utility.yul\":2677:2754   */\n  swap2\n  swap1\n  pop\n  jump\t// out\n    /* \"#utility.yul\":2760:2882   */\ntag_27:\n    /* \"#utility.yul\":2833:2857   */\n  tag_82\n    /* \"#utility.yul\":2851:2856   */\n  dup2\n    /* \"#utility.yul\":2833:2857   */\n  tag_26\n  jump\t// in\ntag_82:\n    /* \"#utility.yul\":2826:2831   */\n  dup2\n    /* \"#utility.yul\":2823:2858   */\n  eq\n    /* \"#utility.yul\":2813:2876   */\n  tag_83\n  jumpi\n    /* \"#utility.yul\":2872:2873   */\n  0x00\n    /* \"#utility.yul\":2869:2870   */\n  dup1\n    /* \"#utility.yul\":2862:2874   */\n  revert\n    /* \"#utility.yul\":2813:2876   */\ntag_83:\n    /* \"#utility.yul\":2760:2882   */\n  pop\n  jump\t// out\n    /* \"#utility.yul\":2888:3031   */\ntag_28:\n    /* \"#utility.yul\":2945:2950   */\n  0x00\n    /* \"#utility.yul\":2976:2982   */\n  dup2\n    /* \"#utility.yul\":2970:2983   */\n  mload\n    /* \"#utility.yul\":2961:2983   */\n  swap1\n  pop\n    /* \"#utility.yul\":2992:3025   */\n  tag_85\n    /* \"#utility.yul\":3019:3024   */\n  dup2\n    /* \"#utility.yul\":2992:3025   */\n  tag_27\n  jump\t// in\ntag_85:\n    /* \"#utility.yul\":2888:3031   */\n  swap3\n  swap2\n  pop\n  pop\n  jump\t// out\n    /* \"#utility.yul\":3037:4203   */\ntag_3:\n    /* \"#utility.yul\":3154:3160   */\n  0x00\n    /* \"#utility.yul\":3162:3168   */\n  dup1\n    /* \"#utility.yul\":3170:3176   */\n  0x00\n    /* \"#utility.yul\":3178:3184   */\n  dup1\n    /* \"#utility.yul\":3227:3230   */\n  0x80\n    /* \"#utility.yul\":3215:3224   */\n  dup6\n    /* \"#utility.yul\":3206:3213   */\n  dup8\n    /* \"#utility.yul\":3202:3225   */\n  sub\n    /* \"#utility.yul\":3198:3231   */\n  slt\n    /* \"#utility.yul\":3195:3315   */\n  iszero\n  tag_87\n  jumpi\n    /* \"#utility.yul\":3234:3313   */\n  tag_88\n  tag_14\n  jump\t// in\ntag_88:\n    /* \"#utility.yul\":3195:3315   */\ntag_87:\n    /* \"#utility.yul\":3375:3376   */\n  0x00\n    /* \"#utility.yul\":3364:3373   */\n  dup6\n    /* \"#utility.yul\":3360:3377   */\n  add\n    /* \"#utility.yul\":3354:3378   */\n  mload\n    /* \"#utility.yul\":3405:3423   */\n  0xffffffffffffffff\n    /* \"#utility.yul\":3397:3403   */\n  dup2\n    /* \"#utility.yul\":3394:3424   */\n  gt\n    /* \"#utility.yul\":3391:3508   */\n  iszero\n  tag_89\n  jumpi\n    /* \"#utility.yul\":3427:3506   */\n  tag_90\n  tag_15\n  jump\t// in\ntag_90:\n    /* \"#utility.yul\":3391:3508   */\ntag_89:\n    /* \"#utility.yul\":3532:3606   */\n  tag_91\n    /* \"#utility.yul\":3598:3605   */\n  dup8\n    /* \"#utility.yul\":3589:3595   */\n  dup3\n    /* \"#utility.yul\":3578:3587   */\n  dup9\n    /* \"#utility.yul\":3574:3596   */\n  add\n    /* \"#utility.yul\":3532:3606   */\n  tag_25\n  jump\t// in\ntag_91:\n    /* \"#utility.yul\":3522:3606   */\n  swap5\n  pop\n    /* \"#utility.yul\":3325:3616   */\n  pop\n    /* \"#utility.yul\":3676:3678   */\n  0x20\n    /* \"#utility.yul\":3665:3674   */\n  dup6\n    /* \"#utility.yul\":3661:3679   */\n  add\n    /* \"#utility.yul\":3655:3680   */\n  mload\n    /* \"#utility.yul\":3707:3725   */\n  0xffffffffffffffff\n    /* \"#utility.yul\":3699:3705   */\n  dup2\n    /* \"#utility.yul\":3696:3726   */\n  gt\n    /* \"#utility.yul\":3693:3810   */\n  iszero\n  tag_92\n  jumpi\n    /* \"#utility.yul\":3729:3808   */\n  tag_93\n  tag_15\n  jump\t// in\ntag_93:\n    /* \"#utility.yul\":3693:3810   */\ntag_92:\n    /* \"#utility.yul\":3834:3908   */\n  tag_94\n    /* \"#utility.yul\":3900:3907   */\n  dup8\n    /* \"#utility.yul\":3891:3897   */\n  dup3\n    /* \"#utility.yul\":3880:3889   */\n  dup9\n    /* \"#utility.yul\":3876:3898   */\n  add\n    /* \"#utility.yul\":3834:3908   */\n  tag_25\n  jump\t// in\ntag_94:\n    /* \"#utility.yul\":3824:3908   */\n  swap4\n  pop\n    /* \"#utility.yul\":3626:3918   */\n  pop\n    /* \"#utility.yul\":3957:3959   */\n  0x40\n    /* \"#utility.yul\":3983:4047   */\n  tag_95\n    /* \"#utility.yul\":4039:4046   */\n  dup8\n    /* \"#utility.yul\":4030:4036   */\n  dup3\n    /* \"#utility.yul\":4019:4028   */\n  dup9\n    /* \"#utility.yul\":4015:4037   */\n  add\n    /* \"#utility.yul\":3983:4047   */\n  tag_28\n  jump\t// in\ntag_95:\n    /* \"#utility.yul\":3973:4047   */\n  swap3\n  pop\n    /* \"#utility.yul\":3928:4057   */\n  pop\n    /* \"#utility.yul\":4096:4098   */\n  0x60\n    /* \"#utility.yul\":4122:4186   */\n  tag_96\n    /* \"#utility.yul\":4178:4185   */\n  dup8\n    /* \"#utility.yul\":4169:4175   */\n  dup3\n    /* \"#utility.yul\":4158:4167   */\n  dup9\n    /* \"#utility.yul\":4154:4176   */\n  add\n    /* \"#utility.yul\":4122:4186   */\n  tag_28\n  jump\t// in\ntag_96:\n    /* \"#utility.yul\":4112:4186   */\n  swap2\n  pop\n    /* \"#utility.yul\":4067:4196   */\n  pop\n    /* \"#utility.yul\":3037:4203   */\n  swap3\n  swap6\n  swap2\n  swap5\n  pop\n  swap3\n  pop\n  jump\t// out\n    /* \"#utility.yul\":4209:4308   */\ntag_29:\n    /* \"#utility.yul\":4261:4267   */\n  0x00\n    /* \"#utility.yul\":4295:4300   */\n  dup2\n    /* \"#utility.yul\":4289:4301   */\n  mload\n    /* \"#utility.yul\":4279:4301   */\n  swap1\n  pop\n    /* \"#utility.yul\":4209:4308   */\n  swap2\n  swap1\n  pop\n  jump\t// out\n    /* \"#utility.yul\":4314:4494   */\ntag_30:\n    /* \"#utility.yul\":4362:4439   */\n  0x4e487b7100000000000000000000000000000000000000000000000000000000\n    /* \"#utility.yul\":4359:4360   */\n  0x00\n    /* \"#utility.yul\":4352:4440   */\n  mstore\n    /* \"#utility.yul\":4459:4463   */\n  0x22\n    /* \"#utility.yul\":4456:4457   */\n  0x04\n    /* \"#utility.yul\":4449:4464   */\n  mstore\n    /* \"#utility.yul\":4483:4487   */\n  0x24\n    /* \"#utility.yul\":4480:4481   */\n  0x00\n    /* \"#utility.yul\":4473:4488   */\n  revert\n    /* \"#utility.yul\":4500:4820   */\ntag_31:\n    /* \"#utility.yul\":4544:4550   */\n  0x00\n    /* \"#utility.yul\":4581:4582   */\n  0x02\n    /* \"#utility.yul\":4575:4579   */\n  dup3\n    /* \"#utility.yul\":4571:4583   */\n  div\n    /* \"#utility.yul\":4561:4583   */\n  swap1\n  pop\n    /* \"#utility.yul\":4628:4629   */\n  0x01\n    /* \"#utility.yul\":4622:4626   */\n  dup3\n    /* \"#utility.yul\":4618:4630   */\n  and\n    /* \"#utility.yul\":4649:4667   */\n  dup1\n    /* \"#utility.yul\":4639:4720   */\n  tag_100\n  jumpi\n    /* \"#utility.yul\":4705:4709   */\n  0x7f\n    /* \"#utility.yul\":4697:4703   */\n  dup3\n    /* \"#utility.yul\":4693:4710   */\n  and\n    /* \"#utility.yul\":4683:4710   */\n  swap2\n  pop\n    /* \"#utility.yul\":4639:4720   */\ntag_100:\n    /* \"#utility.yul\":4767:4769   */\n  0x20\n    /* \"#utility.yul\":4759:4765   */\n  dup3\n    /* \"#utility.yul\":4756:4770   */\n  lt\n    /* \"#utility.yul\":4736:4754   */\n  dup2\n    /* \"#utility.yul\":4733:4771   */\n  sub\n    /* \"#utility.yul\":4730:4814   */\n  tag_101\n  jumpi\n    /* \"#utility.yul\":4786:4804   */\n  tag_102\n  tag_30\n  jump\t// in\ntag_102:\n    /* \"#utility.yul\":4730:4814   */\ntag_101:\n    /* \"#utility.yul\":4551:4820   */\n  pop\n    /* \"#utility.yul\":4500:4820   */\n  swap2\n  swap1\n  pop\n  jump\t// out\n    /* \"#utility.yul\":4826:4967   */\ntag_32:\n    /* \"#utility.yul\":4875:4879   */\n  0x00\n    /* \"#utility.yul\":4898:4901   */\n  dup2\n    /* \"#utility.yul\":4890:4901   */\n  swap1\n  pop\n    /* \"#utility.yul\":4921:4924   */\n  dup2\n    /* \"#utility.yul\":4918:4919   */\n  0x00\n    /* \"#utility.yul\":4911:4925   */\n  mstore\n    /* \"#utility.yul\":4955:4959   */\n  0x20\n    /* \"#utility.yul\":4952:4953   */\n  0x00\n    /* \"#utility.yul\":4942:4960   */\n  keccak256\n    /* \"#utility.yul\":4934:4960   */\n  swap1\n  pop\n    /* \"#utility.yul\":4826:4967   */\n  swap2\n  swap1\n  pop\n  jump\t// out\n    /* \"#utility.yul\":4973:5066   */\ntag_33:\n    /* \"#utility.yul\":5010:5016   */\n  0x00\n    /* \"#utility.yul\":5057:5059   */\n  0x20\n    /* \"#utility.yul\":5052:5054   */\n  0x1f\n    /* \"#utility.yul\":5045:5050   */\n  dup4\n    /* \"#utility.yul\":5041:5055   */\n  add\n    /* \"#utility.yul\":5037:5060   */\n  div\n    /* \"#utility.yul\":5027:5060   */\n  swap1\n  pop\n    /* \"#utility.yul\":4973:5066   */\n  swap2\n  swap1\n  pop\n  jump\t// out\n    /* \"#utility.yul\":5072:5179   */\ntag_34:\n    /* \"#utility.yul\":5116:5124   */\n  0x00\n    /* \"#utility.yul\":5166:5171   */\n  dup3\n    /* \"#utility.yul\":5160:5164   */\n  dup3\n    /* \"#utility.yul\":5156:5172   */\n  shl\n    /* \"#utility.yul\":5135:5172   */\n  swap1\n  pop\n    /* \"#utility.yul\":5072:5179   */\n  swap3\n  swap2\n  pop\n  pop\n  jump\t// out\n    /* \"#utility.yul\":5185:5578   */\ntag_35:\n    /* \"#utility.yul\":5254:5260   */\n  0x00\n    /* \"#utility.yul\":5304:5305   */\n  0x08\n    /* \"#utility.yul\":5292:5302   */\n  dup4\n    /* \"#utility.yul\":5288:5306   */\n  mul\n    /* \"#utility.yul\":5327:5424   */\n  tag_107\n    /* \"#utility.yul\":5357:5423   */\n  0xffffffffffffffffffffffffffffffffffffffffffffffffffffffffffffffff\n    /* \"#utility.yul\":5346:5355   */\n  dup3\n    /* \"#utility.yul\":5327:5424   */\n  tag_34\n  jump\t// in\ntag_107:\n    /* \"#utility.yul\":5445:5484   */\n  tag_108\n    /* \"#utility.yul\":5475:5483   */\n  dup7\n    /* \"#utility.yul\":5464:5473   */\n  dup4\n    /* \"#utility.yul\":5445:5484   */\n  tag_34\n  jump\t// in\ntag_108:\n    /* \"#utility.yul\":5433:5484   */\n  swap6\n  pop\n    /* \"#utility.yul\":5517:5521   */\n  dup1\n    /* \"#utility.yul\":5513:5522   */\n  not\n    /* \"#utility.yul\":5506:5511   */\n  dup5\n    /* \"#utility.yul\":5502:5523   */\n  and\n    /* \"#utility.yul\":5493:5523   */\n  swap4\n  pop\n    /* \"#utility.yul\":5566:5570   */\n  dup1\n    /* \"#utility.yul\":5556:5564   */\n  dup7\n    /* \"#utility.yul\":5552:5571   */\n  and\n    /* \"#utility.yul\":5545:5550   */\n  dup5\n    /* \"#utility.yul\":5542:5572   */\n  or\n    /* \"#utility.yul\":5532:5572   */\n  swap3\n  pop\n    /* \"#utility.yul\":5261:5578   */\n  pop\n  pop\n    /* \"#utility.yul\":5185:5578   */\n  swap4\n  swap3\n  pop\n  pop\n  pop\n  jump\t// out\n    /* \"#utility.yul\":5584:5644   */\ntag_36:\n    /* \"#utility.yul\":5612:5615   */\n  0x00\n    /* \"#utility.yul\":5633:5638   */\n  dup2\n    /* \"#utility.yul\":5626:5638   */\n  swap1\n  pop\n    /* \"#utility.yul\":5584:5644   */\n  swap2\n  swap1\n  pop\n  jump\t// out\n    /* \"#utility.yul\":5650:5792   */\ntag_37:\n    /* \"#utility.yul\":5700:5709   */\n  0x00\n    /* \"#utility.yul\":5733:5786   */\n  tag_111\n    /* \"#utility.yul\":5751:5785   */\n  tag_112\n    /* \"#utility.yul\":5760:5784   */\n  tag_113\n    /* \"#utility.yul\":5778:5783   */\n  dup5\n    /* \"#utility.yul\":5760:5784   */\n  tag_26\n  jump\t// in\ntag_113:\n    /* \"#utility.yul\":5751:5785   */\n  tag_36\n  jump\t// in\ntag_112:\n    /* \"#utility.yul\":5733:5786   */\n  tag_26\n  jump\t// in\ntag_111:\n    /* \"#utility.yul\":5720:5786   */\n  swap1\n  pop\n    /* \"#utility.yul\":5650:5792   */\n  swap2\n  swap1\n  pop\n  jump\t// out\n    /* \"#utility.yul\":5798:5873   */\ntag_38:\n    /* \"#utility.yul\":5841:5844   */\n  0x00\n    /* \"#utility.yul\":5862:5867   */\n  dup2\n    /* \"#utility.yul\":5855:5867   */\n  swap1\n  pop\n    /* \"#utility.yul\":5798:5873   */\n  swap2\n  swap1\n  pop\n  jump\t// out\n    /* \"#utility.yul\":5879:6148   */\ntag_39:\n    /* \"#utility.yul\":5989:6028   */\n  tag_116\n    /* \"#utility.yul\":6020:6027   */\n  dup4\n    /* \"#utility.yul\":5989:6028   */\n  tag_37\n  jump\t// in\ntag_116:\n    /* \"#utility.yul\":6050:6141   */\n  tag_117\n    /* \"#utility.yul\":6099:6140   */\n  tag_118\n    /* \"#utility.yul\":6123:6139   */\n  dup3\n    /* \"#utility.yul\":6099:6140   */\n  tag_38\n  jump\t// in\ntag_118:\n    /* \"#utility.yul\":6091:6097   */\n  dup5\n    /* \"#utility.yul\":6084:6088   */\n  dup5\n    /* \"#utility.yul\":6078:6089   */\n  sload\n    /* \"#utility.yul\":6050:6141   */\n  tag_35\n  jump\t// in\ntag_117:\n    /* \"#utility.yul\":6044:6048   */\n  dup3\n    /* \"#utility.yul\":6037:6142   */\n  sstore\n    /* \"#utility.yul\":5955:6148   */\n  pop\n    /* \"#utility.yul\":5879:6148   */\n  pop\n  pop\n  pop\n  jump\t// out\n    /* \"#utility.yul\":6154:6227   */\ntag_40:\n    /* \"#utility.yul\":6199:6202   */\n  0x00\n    /* \"#utility.yul\":6154:6227   */\n  swap1\n  jump\t// out\n    /* \"#utility.yul\":6233:6422   */\ntag_41:\n    /* \"#utility.yul\":6310:6342   */\n  tag_121\n  tag_40\n  jump\t// in\ntag_121:\n    /* \"#utility.yul\":6351:6416   */\n  tag_122\n    /* \"#utility.yul\":6409:6415   */\n  dup2\n    /* \"#utility.yul\":6401:6407   */\n  dup5\n    /* \"#utility.yul\":6395:6399   */\n  dup5\n    /* \"#utility.yul\":6351:6416   */\n  tag_39\n  jump\t// in\ntag_122:\n    /* \"#utility.yul\":6286:6422   */\n  pop\n    /* \"#utility.yul\":6233:6422   */\n  pop\n  pop\n  jump\t// out\n    /* \"#utility.yul\":6428:6614   */\ntag_42:\n    /* \"#utility.yul\":6488:6608   */\ntag_124:\n    /* \"#utility.yul\":6505:6508   */\n  dup2\n    /* \"#utility.yul\":6498:6503   */\n  dup2\n    /* \"#utility.yul\":6495:6509   */\n  lt\n    /* \"#utility.yul\":6488:6608   */\n  iszero\n  tag_126\n  jumpi\n    /* \"#utility.yul\":6559:6598   */\n  tag_127\n    /* \"#utility.yul\":6596:6597   */\n  0x00\n    /* \"#utility.yul\":6589:6594   */\n  dup3\n    /* \"#utility.yul\":6559:6598   */\n  tag_41\n  jump\t// in\ntag_127:\n    /* \"#utility.yul\":6532:6533   */\n  0x01\n    /* \"#utility.yul\":6525:6530   */\n  dup2\n    /* \"#utility.yul\":6521:6534   */\n  add\n    /* \"#utility.yul\":6512:6534   */\n  swap1\n  pop\n    /* \"#utility.yul\":6488:6608   */\n  jump(tag_124)\ntag_126:\n    /* \"#utility.yul\":6428:6614   */\n  pop\n  pop\n  jump\t// out\n    /* \"#utility.yul\":6620:7163   */\ntag_43:\n    /* \"#utility.yul\":6721:6723   */\n  0x1f\n    /* \"#utility.yul\":6716:6719   */\n  dup3\n    /* \"#utility.yul\":6713:6724   */\n  gt\n    /* \"#utility.yul\":6710:7156   */\n  iszero\n  tag_129\n  jumpi\n    /* \"#utility.yul\":6755:6793   */\n  tag_130\n    /* \"#utility.yul\":6787:6792   */\n  dup2\n    /* \"#utility.yul\":6755:6793   */\n  tag_32\n  jump\t// in\ntag_130:\n    /* \"#utility.yul\":6839:6868   */\n  tag_131\n    /* \"#utility.yul\":6857:6867   */\n  dup5\n    /* \"#utility.yul\":6839:6868   */\n  tag_33\n  jump\t// in\ntag_131:\n    /* \"#utility.yul\":6829:6837   */\n  dup2\n    /* \"#utility.yul\":6825:6869   */\n  add\n    /* \"#utility.yul\":7022:7024   */\n  0x20\n    /* \"#utility.yul\":7010:7020   */\n  dup6\n    /* \"#utility.yul\":7007:7025   */\n  lt\n    /* \"#utility.yul\":7004:7053   */\n  iszero\n  tag_132\n  jumpi\n    /* \"#utility.yul\":7043:7051   */\n  dup2\n    /* \"#utility.yul\":7028:7051   */\n  swap1\n  pop\n    /* \"#utility.yul\":7004:7053   */\ntag_132:\n    /* \"#utility.yul\":7066:7146   */\n  tag_133\n    /* \"#utility.yul\":7122:7144   */\n  tag_134\n    /* \"#utility.yul\":7140:7143   */\n  dup6\n    /* \"#utility.yul\":7122:7144   */\n  tag_33\n  jump\t// in\ntag_134:\n    /* \"#utility.yul\":7112:7120   */\n  dup4\n    /* \"#utility.yul\":7108:7145   */\n  add\n    /* \"#utility.yul\":7095:7106   */\n  dup3\n    /* \"#utility.yul\":7066:7146   */\n  tag_42\n  jump\t// in\ntag_133:\n    /* \"#utility.yul\":6725:7156   */\n  pop\n  pop\n    /* \"#utility.yul\":6710:7156   */\ntag_129:\n    /* \"#utility.yul\":6620:7163   */\n  pop\n  pop\n  pop\n  jump\t// out\n    /* \"#utility.yul\":7169:7286   */\ntag_44:\n    /* \"#utility.yul\":7223:7231   */\n  0x00\n    /* \"#utility.yul\":7273:7278   */\n  dup3\n    /* \"#utility.yul\":7267:7271   */\n  dup3\n    /* \"#utility.yul\":7263:7279   */\n  shr\n    /* \"#utility.yul\":7242:7279   */\n  swap1\n  pop\n    /* \"#utility.yul\":7169:7286   */\n  swap3\n  swap2\n  pop\n  pop\n  jump\t// out\n    /* \"#utility.yul\":7292:7461   */\ntag_45:\n    /* \"#utility.yul\":7336:7342   */\n  0x00\n    /* \"#utility.yul\":7369:7420   */\n  tag_137\n    /* \"#utility.yul\":7417:7418   */\n  0x00\n    /* \"#utility.yul\":7413:7419   */\n  not\n    /* \"#utility.yul\":7405:7410   */\n  dup5\n    /* \"#utility.yul\":7402:7403   */\n  0x08\n    /* \"#utility.yul\":7398:7411   */\n  mul\n    /* \"#utility.yul\":7369:7420   */\n  tag_44\n  jump\t// in\ntag_137:\n    /* \"#utility.yul\":7365:7421   */\n  not\n    /* \"#utility.yul\":7450:7454   */\n  dup1\n    /* \"#utility.yul\":7444:7448   */\n  dup4\n    /* \"#utility.yul\":7440:7455   */\n  and\n    /* \"#utility.yul\":7430:7455   */\n  swap2\n  pop\n    /* \"#utility.yul\":7343:7461   */\n  pop\n    /* \"#utility.yul\":7292:7461   */\n  swap3\n  swap2\n  pop\n  pop\n  jump\t// out\n    /* \"#utility.yul\":7466:7761   */\ntag_46:\n    /* \"#utility.yul\":7542:7546   */\n  0x00\n    /* \"#utility.yul\":7688:7717   */\n  tag_139\n    /* \"#utility.yul\":7713:7716   */\n  dup4\n    /* \"#utility.yul\":7707:7711   */\n  dup4\n    /* \"#utility.yul\":7688:7717   */\n  tag_45\n  jump\t// in\ntag_139:\n    /* \"#utility.yul\":7680:7717   */\n  swap2\n  pop\n    /* \"#utility.yul\":7750:7753   */\n  dup3\n    /* \"#utility.yul\":7747:7748   */\n  0x02\n    /* \"#utility.yul\":7743:7754   */\n  mul\n    /* \"#utility.yul\":7737:7741   */\n  dup3\n    /* \"#utility.yul\":7734:7755   */\n  or\n    /* \"#utility.yul\":7726:7755   */\n  swap1\n  pop\n    /* \"#utility.yul\":7466:7761   */\n  swap3\n  swap2\n  pop\n  pop\n  jump\t// out\n    /* \"#utility.yul\":7766:9161   */\ntag_7:\n    /* \"#utility.yul\":7883:7920   */\n  tag_141\n    /* \"#utility.yul\":7916:7919   */\n  dup3\n    /* \"#utility.yul\":7883:7920   */\n  tag_29\n  jump\t// in\ntag_141:\n    /* \"#utility.yul\":7985:8003   */\n  0xffffffffffffffff\n    /* \"#utility.yul\":7977:7983   */\n  dup2\n    /* \"#utility.yul\":7974:8004   */\n  gt\n    /* \"#utility.yul\":7971:8027   */\n  iszero\n  tag_142\n  jumpi\n    /* \"#utility.yul\":8007:8025   */\n  tag_143\n  tag_19\n  jump\t// in\ntag_143:\n    /* \"#utility.yul\":7971:8027   */\ntag_142:\n    /* \"#utility.yul\":8051:8089   */\n  tag_144\n    /* \"#utility.yul\":8083:8087   */\n  dup3\n    /* \"#utility.yul\":8077:8088   */\n  sload\n    /* \"#utility.yul\":8051:8089   */\n  tag_31\n  jump\t// in\ntag_144:\n    /* \"#utility.yul\":8136:8203   */\n  tag_145\n    /* \"#utility.yul\":8196:8202   */\n  dup3\n    /* \"#utility.yul\":8188:8194   */\n  dup3\n    /* \"#utility.yul\":8182:8186   */\n  dup6\n    /* \"#utility.yul\":8136:8203   */\n  tag_43\n  jump\t// in\ntag_145:\n    /* \"#utility.yul\":8230:8231   */\n  0x00\n    /* \"#utility.yul\":8254:8258   */\n  0x20\n    /* \"#utility.yul\":8241:8258   */\n  swap1\n  pop\n    /* \"#utility.yul\":8286:8288   */\n  0x1f\n    /* \"#utility.yul\":8278:8284   */\n  dup4\n    /* \"#utility.yul\":8275:8289   */\n  gt\n    /* \"#utility.yul\":8303:8304   */\n  0x01\n    /* \"#utility.yul\":8298:8916   */\n  dup2\n  eq\n  tag_147\n  jumpi\n    /* \"#utility.yul\":8960:8961   */\n  0x00\n    /* \"#utility.yul\":8977:8983   */\n  dup5\n    /* \"#utility.yul\":8974:9051   */\n  iszero\n  tag_148\n  jumpi\n    /* \"#utility.yul\":9026:9035   */\n  dup3\n    /* \"#utility.yul\":9021:9024   */\n  dup8\n    /* \"#utility.yul\":9017:9036   */\n  add\n    /* \"#utility.yul\":9011:9037   */\n  mload\n    /* \"#utility.yul\":9002:9037   */\n  swap1\n  pop\n    /* \"#utility.yul\":8974:9051   */\ntag_148:\n    /* \"#utility.yul\":9077:9144   */\n  tag_149\n    /* \"#utility.yul\":9137:9143   */\n  dup6\n    /* \"#utility.yul\":9130:9135   */\n  dup3\n    /* \"#utility.yul\":9077:9144   */\n  tag_46\n  jump\t// in\ntag_149:\n    /* \"#utility.yul\":9071:9075   */\n  dup7\n    /* \"#utility.yul\":9064:9145   */\n  sstore\n    /* \"#utility.yul\":8933:9155   */\n  pop\n    /* \"#utility.yul\":8268:9155   */\n  jump(tag_146)\n    /* \"#utility.yul\":8298:8916   */\ntag_147:\n    /* \"#utility.yul\":8350:8354   */\n  0x1f\n    /* \"#utility.yul\":8346:8355   */\n  not\n    /* \"#utility.yul\":8338:8344   */\n  dup5\n    /* \"#utility.yul\":8334:8356   */\n  and\n    /* \"#utility.yul\":8384:8421   */\n  tag_150\n    /* \"#utility.yul\":8416:8420   */\n  dup7\n    /* \"#utility.yul\":8384:8421   */\n  tag_32\n  jump\t// in\ntag_150:\n    /* \"#utility.yul\":8443:8444   */\n  0x00\n    /* \"#utility.yul\":8457:8665   */\ntag_151:\n    /* \"#utility.yul\":8471:8478   */\n  dup3\n    /* \"#utility.yul\":8468:8469   */\n  dup2\n    /* \"#utility.yul\":8465:8479   */\n  lt\n    /* \"#utility.yul\":8457:8665   */\n  iszero\n  tag_153\n  jumpi\n    /* \"#utility.yul\":8550:8559   */\n  dup5\n    /* \"#utility.yul\":8545:8548   */\n  dup10\n    /* \"#utility.yul\":8541:8560   */\n  add\n    /* \"#utility.yul\":8535:8561   */\n  mload\n    /* \"#utility.yul\":8527:8533   */\n  dup3\n    /* \"#utility.yul\":8520:8562   */\n  sstore\n    /* \"#utility.yul\":8601:8602   */\n  0x01\n    /* \"#utility.yul\":8593:8599   */\n  dup3\n    /* \"#utility.yul\":8589:8603   */\n  add\n    /* \"#utility.yul\":8579:8603   */\n  swap2\n  pop\n    /* \"#utility.yul\":8648:8650   */\n  0x20\n    /* \"#utility.yul\":8637:8646   */\n  dup6\n    /* \"#utility.yul\":8633:8651   */\n  add\n    /* \"#utility.yul\":8620:8651   */\n  swap5\n  pop\n    /* \"#utility.yul\":8494:8498   */\n  0x20\n    /* \"#utility.yul\":8491:8492   */\n  dup2\n    /* \"#utility.yul\":8487:8499   */\n  add\n    /* \"#utility.yul\":8482:8499   */\n  swap1\n  pop\n    /* \"#utility.yul\":8457:8665   */\n  jump(tag_151)\ntag_153:\n    /* \"#utility.yul\":8693:8699   */\n  dup7\n    /* \"#utility.yul\":8684:8691   */\n  dup4\n    /* \"#utility.yul\":8681:8700   */\n  lt\n    /* \"#utility.yul\":8678:8857   */\n  iszero\n  tag_154\n  jumpi\n    /* \"#utility.yul\":8751:8760   */\n  dup5\n    /* \"#utility.yul\":8746:8749   */\n  dup10\n    /* \"#utility.yul\":8742:8761   */\n  add\n    /* \"#utility.yul\":8736:8762   */\n  mload\n    /* \"#utility.yul\":8794:8842   */\n  tag_155\n    /* \"#utility.yul\":8836:8840   */\n  0x1f\n    /* \"#utility.yul\":8828:8834   */\n  dup10\n    /* \"#utility.yul\":8824:8841   */\n  and\n    /* \"#utility.yul\":8813:8822   */\n  dup3\n    /* \"#utility.yul\":8794:8842   */\n  tag_45\n  jump\t// in\ntag_155:\n    /* \"#utility.yul\":8786:8792   */\n  dup4\n    /* \"#utility.yul\":8779:8843   */\n  sstore\n    /* \"#utility.yul\":8701:8857   */\n  pop\n    /* \"#utility.yul\":8678:8857   */\ntag_154:\n    /* \"#utility.yul\":8903:8904   */\n  0x01\n    /* \"#utility.yul\":8899:8900   */\n  0x02\n    /* \"#utility.yul\":8891:8897   */\n  dup9\n    /* \"#utility.yul\":8887:8901   */\n  mul\n    /* \"#utility.yul\":8883:8905   */\n  add\n    /* \"#utility.yul\":8877:8881   */\n  dup9\n    /* \"#utility.yul\":8870:8906   */\n  sstore\n    /* \"#utility.yul\":8305:8916   */\n  pop\n  pop\n  pop\n    /* \"#utility.yul\":8268:9155   */\ntag_146:\n  pop\n    /* \"#utility.yul\":7858:9161   */\n  pop\n  pop\n  pop\n    /* \"#utility.yul\":7766:9161   */\n  pop\n  pop\n  jump\t// out\n    /* \"Dcoffer/ERC721A/test.sol\":1024:22885  contract ERC721A is Context, ERC165, IERC721A, IDCF {... */\ntag_11:\n  dataSize(sub_0)\n  dup1\n  dataOffset(sub_0)\n  0x00\n  codecopy\n  0x00\n  return\nstop\n\nsub_0: assembly {\n        /* \"Dcoffer/ERC721A/test.sol\":1024:22885  contract ERC721A is Context, ERC165, IERC721A, IDCF {... */\n      mstore(0x40, 0x80)\n      callvalue\n      dup1\n      iszero\n      tag_1\n      jumpi\n      0x00\n      dup1\n      revert\n    tag_1:\n      pop\n      jumpi(tag_2, lt(calldatasize, 0x04))\n      shr(0xe0, calldataload(0x00))\n      dup1\n      0x6352211e\n      gt\n      tag_26\n      jumpi\n      dup1\n      0xb88d4fde\n      gt\n      tag_27\n      jumpi\n      dup1\n      0xb88d4fde\n      eq\n      tag_20\n      jumpi\n      dup1\n      0xba6687f4\n      eq\n      tag_21\n      jumpi\n      dup1\n      0xc87b56dd\n      eq\n      tag_22\n      jumpi\n      dup1\n      0xd5abeb01\n      eq\n      tag_23\n      jumpi\n      dup1\n      0xe985e9c5\n      eq\n      tag_24\n      jumpi\n      dup1\n      0xf390c328\n      eq\n      tag_25\n      jumpi\n      jump(tag_2)\n    tag_27:\n      dup1\n      0x6352211e\n      eq\n      tag_14\n      jumpi\n      dup1\n      0x70a08231\n      eq\n      tag_15\n      jumpi\n      dup1\n      0x94fc67d1\n      eq\n      tag_16\n      jumpi\n      dup1\n      0x95d89b41\n      eq\n      tag_17\n      jumpi\n      dup1\n      0x9f773399\n      eq\n      tag_18\n      jumpi\n      dup1\n      0xa22cb465\n      eq\n      tag_19\n      jumpi\n      jump(tag_2)\n    tag_26:\n      dup1\n      0x1c1b8772\n      gt\n      tag_28\n      jumpi\n      dup1\n      0x1c1b8772\n      eq\n      tag_8\n      jumpi\n      dup1\n      0x23b872dd\n      eq\n      tag_9\n      jumpi\n      dup1\n      0x325b272a\n      eq\n      tag_10\n      jumpi\n      dup1\n      0x38020dcc\n      eq\n      tag_11\n      jumpi\n      dup1\n      0x42842e0e\n      eq\n      tag_12\n      jumpi\n      dup1\n      0x5e7ec827\n      eq\n      tag_13\n      jumpi\n      jump(tag_2)\n    tag_28:\n      dup1\n      0x01ffc9a7\n      eq\n      tag_3\n      jumpi\n      dup1\n      0x06fdde03\n      eq\n      tag_4\n      jumpi\n      dup1\n      0x081812fc\n      eq\n      tag_5\n      jumpi\n      dup1\n      0x095ea7b3\n      eq\n      tag_6\n      jumpi\n      dup1\n      0x18160ddd\n      eq\n      tag_7\n      jumpi\n    tag_2:\n      0x00\n      dup1\n      revert\n        /* \"Dcoffer/ERC721A/test.sol\":5330:5635  function supportsInterface(bytes4 interfaceId) public view virtual override(ERC165, IERC165) returns (bool) {... */\n    tag_3:\n      tag_29\n      0x04\n      dup1\n      calldatasize\n      sub\n      dup2\n      add\n      swap1\n      tag_30\n      swap2\n      swap1\n      tag_31\n      jump\t// in\n    tag_30:\n      tag_32\n      jump\t// in\n    tag_29:\n      mload(0x40)\n      tag_33\n      swap2\n      swap1\n      tag_34\n      jump\t// in\n    tag_33:\n      mload(0x40)\n      dup1\n      swap2\n      sub\n      swap1\n      return\n        /* \"Dcoffer/ERC721A/test.sol\":8446:8546  function name() public view virtual override returns (string memory) {... */\n    tag_4:\n      tag_35\n      tag_36\n      jump\t// in\n    tag_35:\n      mload(0x40)\n      tag_37\n      swap2\n      swap1\n      tag_38\n      jump\t// in\n    tag_37:\n      mload(0x40)\n      dup1\n      swap2\n      sub\n      swap1\n      return\n        /* \"Dcoffer/ERC721A/test.sol\":10041:10245  function getApproved(uint256 tokenId) public view override returns (address) {... */\n    tag_5:\n      tag_39\n      0x04\n      dup1\n      calldatasize\n      sub\n      dup2\n      add\n      swap1\n      tag_40\n      swap2\n      swap1\n      tag_41\n      jump\t// in\n    tag_40:\n      tag_42\n      jump\t// in\n    tag_39:\n      mload(0x40)\n      tag_43\n      swap2\n      swap1\n      tag_44\n      jump\t// in\n    tag_43:\n      mload(0x40)\n      dup1\n      swap2\n      sub\n      swap1\n      return\n        /* \"Dcoffer/ERC721A/test.sol\":9603:9975  function approve(address to, uint256 tokenId) public override {... */\n    tag_6:\n      tag_45\n      0x04\n      dup1\n      calldatasize\n      sub\n      dup2\n      add\n      swap1\n      tag_46\n      swap2\n      swap1\n      tag_47\n      jump\t// in\n    tag_46:\n      tag_48\n      jump\t// in\n    tag_45:\n      stop\n        /* \"Dcoffer/ERC721A/test.sol\":4388:4700  function totalSupply() public view override returns (uint256) {... */\n    tag_7:\n      tag_49\n      tag_50\n      jump\t// in\n    tag_49:\n      mload(0x40)\n      tag_51\n      swap2\n      swap1\n      tag_52\n      jump\t// in\n    tag_51:\n      mload(0x40)\n      dup1\n      swap2\n      sub\n      swap1\n      return\n        /* \"Dcoffer/ERC721A/test.sol\":3070:3285  function update(address user)public {... */\n    tag_8:\n      tag_53\n      0x04\n      dup1\n      calldatasize\n      sub\n      dup2\n      add\n      swap1\n      tag_54\n      swap2\n      swap1\n      tag_55\n      jump\t// in\n    tag_54:\n      tag_56\n      jump\t// in\n    tag_53:\n      stop\n        /* \"Dcoffer/ERC721A/test.sol\":10906:11076  function transferFrom(... */\n    tag_9:\n      tag_57\n      0x04\n      dup1\n      calldatasize\n      sub\n      dup2\n      add\n      swap1\n      tag_58\n      swap2\n      swap1\n      tag_59\n      jump\t// in\n    tag_58:\n      tag_60\n      jump\t// in\n    tag_57:\n      stop\n        /* \"Dcoffer/ERC721A/test.sol\":2769:3060  function BlockScore(address user)public view returns(uint256){... */\n    tag_10:\n      tag_61\n      0x04\n      dup1\n      calldatasize\n      sub\n      dup2\n      add\n      swap1\n      tag_62\n      swap2\n      swap1\n      tag_55\n      jump\t// in\n    tag_62:\n      tag_63\n      jump\t// in\n    tag_61:\n      mload(0x40)\n      tag_64\n      swap2\n      swap1\n      tag_52\n      jump\t// in\n    tag_64:\n      mload(0x40)\n      dup1\n      swap2\n      sub\n      swap1\n      return\n        /* \"Dcoffer/ERC721A/test.sol\":1208:1235  uint256 public _DCFperBlock */\n    tag_11:\n      tag_65\n      tag_66\n      jump\t// in\n    tag_65:\n      mload(0x40)\n      tag_67\n      swap2\n      swap1\n      tag_52\n      jump\t// in\n    tag_67:\n      mload(0x40)\n      dup1\n      swap2\n      sub\n      swap1\n      return\n        /* \"Dcoffer/ERC721A/test.sol\":11147:11332  function safeTransferFrom(... */\n    tag_12:\n      tag_68\n      0x04\n      dup1\n      calldatasize\n      sub\n      dup2\n      add\n      swap1\n      tag_69\n      swap2\n      swap1\n      tag_59\n      jump\t// in\n    tag_69:\n      tag_70\n      jump\t// in\n    tag_68:\n      stop\n        /* \"Dcoffer/ERC721A/test.sol\":1285:1311  uint256 public _totalPower */\n    tag_13:\n      tag_71\n      tag_72\n      jump\t// in\n    tag_71:\n      mload(0x40)\n      tag_73\n      swap2\n      swap1\n      tag_52\n      jump\t// in\n    tag_73:\n      mload(0x40)\n      dup1\n      swap2\n      sub\n      swap1\n      return\n        /* \"Dcoffer/ERC721A/test.sol\":8254:8379  function ownerOf(uint256 tokenId) public view override returns (address) {... */\n    tag_14:\n      tag_74\n      0x04\n      dup1\n      calldatasize\n      sub\n      dup2\n      add\n      swap1\n      tag_75\n      swap2\n      swap1\n      tag_41\n      jump\t// in\n    tag_75:\n      tag_76\n      jump\t// in\n    tag_74:\n      mload(0x40)\n      tag_77\n      swap2\n      swap1\n      tag_44\n      jump\t// in\n    tag_77:\n      mload(0x40)\n      dup1\n      swap2\n      sub\n      swap1\n      return\n        /* \"Dcoffer/ERC721A/test.sol\":5699:5905  function balanceOf(address owner) public view override returns (uint256) {... */\n    tag_15:\n      tag_78\n      0x04\n      dup1\n      calldatasize\n      sub\n      dup2\n      add\n      swap1\n      tag_79\n      swap2\n      swap1\n      tag_55\n      jump\t// in\n    tag_79:\n      tag_80\n      jump\t// in\n    tag_78:\n      mload(0x40)\n      tag_81\n      swap2\n      swap1\n      tag_52\n      jump\t// in\n    tag_81:\n      mload(0x40)\n      dup1\n      swap2\n      sub\n      swap1\n      return\n        /* \"Dcoffer/ERC721A/test.sol\":1244:1276  uint256 public _startBlockNumber */\n    tag_16:\n      tag_82\n      tag_83\n      jump\t// in\n    tag_82:\n      mload(0x40)\n      tag_84\n      swap2\n      swap1\n      tag_52\n      jump\t// in\n    tag_84:\n      mload(0x40)\n      dup1\n      swap2\n      sub\n      swap1\n      return\n        /* \"Dcoffer/ERC721A/test.sol\":8615:8719  function symbol() public view virtual override returns (string memory) {... */\n    tag_17:\n      tag_85\n      tag_86\n      jump\t// in\n    tag_85:\n      mload(0x40)\n      tag_87\n      swap2\n      swap1\n      tag_38\n      jump\t// in\n    tag_87:\n      mload(0x40)\n      dup1\n      swap2\n      sub\n      swap1\n      return\n        /* \"Dcoffer/ERC721A/test.sol\":1179:1199  uint256 public _salt */\n    tag_18:\n      tag_88\n      tag_89\n      jump\t// in\n    tag_88:\n      mload(0x40)\n      tag_90\n      swap2\n      swap1\n      tag_52\n      jump\t// in\n    tag_90:\n      mload(0x40)\n      dup1\n      swap2\n      sub\n      swap1\n      return\n        /* \"Dcoffer/ERC721A/test.sol\":10317:10604  function setApprovalForAll(address operator, bool approved) public virtual override {... */\n    tag_19:\n      tag_91\n      0x04\n      dup1\n      calldatasize\n      sub\n      dup2\n      add\n      swap1\n      tag_92\n      swap2\n      swap1\n      tag_93\n      jump\t// in\n    tag_92:\n      tag_94\n      jump\t// in\n    tag_91:\n      stop\n        /* \"Dcoffer/ERC721A/test.sol\":11403:11773  function safeTransferFrom(... */\n    tag_20:\n      tag_95\n      0x04\n      dup1\n      calldatasize\n      sub\n      dup2\n      add\n      swap1\n      tag_96\n      swap2\n      swap1\n      tag_97\n      jump\t// in\n    tag_96:\n      tag_98\n      jump\t// in\n    tag_95:\n      stop\n        /* \"Dcoffer/ERC721A/test.sol\":3511:3760  function MineStatus (uint256 _BlockNumber)public view returns (uint256){... */\n    tag_21:\n      tag_99\n      0x04\n      dup1\n      calldatasize\n      sub\n      dup2\n      add\n      swap1\n      tag_100\n      swap2\n      swap1\n      tag_41\n      jump\t// in\n    tag_100:\n      tag_101\n      jump\t// in\n    tag_99:\n      mload(0x40)\n      tag_102\n      swap2\n      swap1\n      tag_52\n      jump\t// in\n    tag_102:\n      mload(0x40)\n      dup1\n      swap2\n      sub\n      swap1\n      return\n        /* \"Dcoffer/ERC721A/test.sol\":8790:9108  function tokenURI(uint256 tokenId) public view virtual override returns (string memory) {... */\n    tag_22:\n      tag_103\n      0x04\n      dup1\n      calldatasize\n      sub\n      dup2\n      add\n      swap1\n      tag_104\n      swap2\n      swap1\n      tag_41\n      jump\t// in\n    tag_104:\n      tag_105\n      jump\t// in\n    tag_103:\n      mload(0x40)\n      tag_106\n      swap2\n      swap1\n      tag_38\n      jump\t// in\n    tag_106:\n      mload(0x40)\n      dup1\n      swap2\n      sub\n      swap1\n      return\n        /* \"Dcoffer/ERC721A/test.sol\":4710:4882  function maxSupply() public view override returns (uint256) {       ... */\n    tag_23:\n      tag_107\n      tag_108\n      jump\t// in\n    tag_107:\n      mload(0x40)\n      tag_109\n      swap2\n      swap1\n      tag_52\n      jump\t// in\n    tag_109:\n      mload(0x40)\n      dup1\n      swap2\n      sub\n      swap1\n      return\n        /* \"Dcoffer/ERC721A/test.sol\":10675:10839  function isApprovedForAll(address owner, address operator) public view virtual override returns (bool) {... */\n    tag_24:\n      tag_110\n      0x04\n      dup1\n      calldatasize\n      sub\n      dup2\n      add\n      swap1\n      tag_111\n      swap2\n      swap1\n      tag_112\n      jump\t// in\n    tag_111:\n      tag_113\n      jump\t// in\n    tag_110:\n      mload(0x40)\n      tag_114\n      swap2\n      swap1\n      tag_34\n      jump\t// in\n    tag_114:\n      mload(0x40)\n      dup1\n      swap2\n      sub\n      swap1\n      return\n        /* \"Dcoffer/ERC721A/test.sol\":3770:4044  function DcofferPower (uint256 tokenId)public view returns(uint256){... */\n    tag_25:\n      tag_115\n      0x04\n      dup1\n      calldatasize\n      sub\n      dup2\n      add\n      swap1\n      tag_116\n      swap2\n      swap1\n      tag_41\n      jump\t// in\n    tag_116:\n      tag_117\n      jump\t// in\n    tag_115:\n      mload(0x40)\n      tag_118\n      swap2\n      swap1\n      tag_52\n      jump\t// in\n    tag_118:\n      mload(0x40)\n      dup1\n      swap2\n      sub\n      swap1\n      return\n        /* \"Dcoffer/ERC721A/test.sol\":5330:5635  function supportsInterface(bytes4 interfaceId) public view virtual override(ERC165, IERC165) returns (bool) {... */\n    tag_32:\n        /* \"Dcoffer/ERC721A/test.sol\":5432:5436  bool */\n      0x00\n        /* \"Dcoffer/ERC721A/test.sol\":5484:5509  type(IERC721).interfaceId */\n      0x80ac58cd00000000000000000000000000000000000000000000000000000000\n        /* \"Dcoffer/ERC721A/test.sol\":5469:5509  interfaceId == type(IERC721).interfaceId */\n      not(0xffffffffffffffffffffffffffffffffffffffffffffffffffffffff)\n      and\n        /* \"Dcoffer/ERC721A/test.sol\":5469:5480  interfaceId */\n      dup3\n        /* \"Dcoffer/ERC721A/test.sol\":5469:5509  interfaceId == type(IERC721).interfaceId */\n      not(0xffffffffffffffffffffffffffffffffffffffffffffffffffffffff)\n      and\n      eq\n        /* \"Dcoffer/ERC721A/test.sol\":5469:5574  interfaceId == type(IERC721).interfaceId ||... */\n      dup1\n      tag_120\n      jumpi\n      pop\n        /* \"Dcoffer/ERC721A/test.sol\":5541:5574  type(IERC721Metadata).interfaceId */\n      0x5b5e139f00000000000000000000000000000000000000000000000000000000\n        /* \"Dcoffer/ERC721A/test.sol\":5526:5574  interfaceId == type(IERC721Metadata).interfaceId */\n      not(0xffffffffffffffffffffffffffffffffffffffffffffffffffffffff)\n      and\n        /* \"Dcoffer/ERC721A/test.sol\":5526:5537  interfaceId */\n      dup3\n        /* \"Dcoffer/ERC721A/test.sol\":5526:5574  interfaceId == type(IERC721Metadata).interfaceId */\n      not(0xffffffffffffffffffffffffffffffffffffffffffffffffffffffff)\n      and\n      eq\n        /* \"Dcoffer/ERC721A/test.sol\":5469:5574  interfaceId == type(IERC721).interfaceId ||... */\n    tag_120:\n        /* \"Dcoffer/ERC721A/test.sol\":5469:5627  interfaceId == type(IERC721).interfaceId ||... */\n      dup1\n      tag_121\n      jumpi\n      pop\n        /* \"Dcoffer/ERC721A/test.sol\":5591:5627  super.supportsInterface(interfaceId) */\n      tag_122\n        /* \"Dcoffer/ERC721A/test.sol\":5615:5626  interfaceId */\n      dup3\n        /* \"Dcoffer/ERC721A/test.sol\":5591:5614  super.supportsInterface */\n      tag_123\n        /* \"Dcoffer/ERC721A/test.sol\":5591:5627  super.supportsInterface(interfaceId) */\n      jump\t// in\n    tag_122:\n        /* \"Dcoffer/ERC721A/test.sol\":5469:5627  interfaceId == type(IERC721).interfaceId ||... */\n    tag_121:\n        /* \"Dcoffer/ERC721A/test.sol\":5449:5627  return... */\n      swap1\n      pop\n        /* \"Dcoffer/ERC721A/test.sol\":5330:5635  function supportsInterface(bytes4 interfaceId) public view virtual override(ERC165, IERC165) returns (bool) {... */\n      swap2\n      swap1\n      pop\n      jump\t// out\n        /* \"Dcoffer/ERC721A/test.sol\":8446:8546  function name() public view virtual override returns (string memory) {... */\n    tag_36:\n        /* \"Dcoffer/ERC721A/test.sol\":8500:8513  string memory */\n      0x60\n        /* \"Dcoffer/ERC721A/test.sol\":8533:8538  _name */\n      0x07\n        /* \"Dcoffer/ERC721A/test.sol\":8526:8538  return _name */\n      dup1\n      sload\n      tag_125\n      swap1\n      tag_126\n      jump\t// in\n    tag_125:\n      dup1\n      0x1f\n      add\n      0x20\n      dup1\n      swap2\n      div\n      mul\n      0x20\n      add\n      mload(0x40)\n      swap1\n      dup2\n      add\n      0x40\n      mstore\n      dup1\n      swap3\n      swap2\n      swap1\n      dup2\n      dup2\n      mstore\n      0x20\n      add\n      dup3\n      dup1\n      sload\n      tag_127\n      swap1\n      tag_126\n      jump\t// in\n    tag_127:\n      dup1\n      iszero\n      tag_128\n      jumpi\n      dup1\n      0x1f\n      lt\n      tag_129\n      jumpi\n      0x0100\n      dup1\n      dup4\n      sload\n      div\n      mul\n      dup4\n      mstore\n      swap2\n      0x20\n      add\n      swap2\n      jump(tag_128)\n    tag_129:\n      dup3\n      add\n      swap2\n      swap1\n      0x00\n      mstore\n      keccak256(0x00, 0x20)\n      swap1\n    tag_130:\n      dup2\n      sload\n      dup2\n      mstore\n      swap1\n      0x01\n      add\n      swap1\n      0x20\n      add\n      dup1\n      dup4\n      gt\n      tag_130\n      jumpi\n      dup3\n      swap1\n      sub\n      0x1f\n      and\n      dup3\n      add\n      swap2\n    tag_128:\n      pop\n      pop\n      pop\n      pop\n      pop\n      swap1\n      pop\n        /* \"Dcoffer/ERC721A/test.sol\":8446:8546  function name() public view virtual override returns (string memory) {... */\n      swap1\n      jump\t// out\n        /* \"Dcoffer/ERC721A/test.sol\":10041:10245  function getApproved(uint256 tokenId) public view override returns (address) {... */\n    tag_42:\n        /* \"Dcoffer/ERC721A/test.sol\":10109:10116  address */\n      0x00\n        /* \"Dcoffer/ERC721A/test.sol\":10134:10150  _exists(tokenId) */\n      tag_132\n        /* \"Dcoffer/ERC721A/test.sol\":10142:10149  tokenId */\n      dup3\n        /* \"Dcoffer/ERC721A/test.sol\":10134:10141  _exists */\n      tag_133\n        /* \"Dcoffer/ERC721A/test.sol\":10134:10150  _exists(tokenId) */\n      jump\t// in\n    tag_132:\n        /* \"Dcoffer/ERC721A/test.sol\":10129:10193  if (!_exists(tokenId)) revert ApprovalQueryForNonexistentToken() */\n      tag_134\n      jumpi\n        /* \"Dcoffer/ERC721A/test.sol\":10159:10193  ApprovalQueryForNonexistentToken() */\n      mload(0x40)\n      0xcf4700e400000000000000000000000000000000000000000000000000000000\n      dup2\n      mstore\n      0x04\n      add\n      mload(0x40)\n      dup1\n      swap2\n      sub\n      swap1\n      revert\n        /* \"Dcoffer/ERC721A/test.sol\":10129:10193  if (!_exists(tokenId)) revert ApprovalQueryForNonexistentToken() */\n    tag_134:\n        /* \"Dcoffer/ERC721A/test.sol\":10213:10228  _tokenApprovals */\n      0x0b\n        /* \"Dcoffer/ERC721A/test.sol\":10213:10237  _tokenApprovals[tokenId] */\n      0x00\n        /* \"Dcoffer/ERC721A/test.sol\":10229:10236  tokenId */\n      dup4\n        /* \"Dcoffer/ERC721A/test.sol\":10213:10237  _tokenApprovals[tokenId] */\n      dup2\n      mstore\n      0x20\n      add\n      swap1\n      dup2\n      mstore\n      0x20\n      add\n      0x00\n      keccak256\n      0x00\n      swap1\n      sload\n      swap1\n      0x0100\n      exp\n      swap1\n      div\n      0xffffffffffffffffffffffffffffffffffffffff\n      and\n        /* \"Dcoffer/ERC721A/test.sol\":10206:10237  return _tokenApprovals[tokenId] */\n      swap1\n      pop\n        /* \"Dcoffer/ERC721A/test.sol\":10041:10245  function getApproved(uint256 tokenId) public view override returns (address) {... */\n      swap2\n      swap1\n      pop\n      jump\t// out\n        /* \"Dcoffer/ERC721A/test.sol\":9603:9975  function approve(address to, uint256 tokenId) public override {... */\n    tag_48:\n        /* \"Dcoffer/ERC721A/test.sol\":9676:9689  address owner */\n      0x00\n        /* \"Dcoffer/ERC721A/test.sol\":9692:9716  ERC721A.ownerOf(tokenId) */\n      tag_136\n        /* \"Dcoffer/ERC721A/test.sol\":9708:9715  tokenId */\n      dup3\n        /* \"Dcoffer/ERC721A/test.sol\":9692:9707  ERC721A.ownerOf */\n      tag_76\n        /* \"Dcoffer/ERC721A/test.sol\":9692:9716  ERC721A.ownerOf(tokenId) */\n      jump\t// in\n    tag_136:\n        /* \"Dcoffer/ERC721A/test.sol\":9676:9716  address owner = ERC721A.ownerOf(tokenId) */\n      swap1\n      pop\n        /* \"Dcoffer/ERC721A/test.sol\":9737:9742  owner */\n      dup1\n        /* \"Dcoffer/ERC721A/test.sol\":9731:9742  to == owner */\n      0xffffffffffffffffffffffffffffffffffffffff\n      and\n        /* \"Dcoffer/ERC721A/test.sol\":9731:9733  to */\n      dup4\n        /* \"Dcoffer/ERC721A/test.sol\":9731:9742  to == owner */\n      0xffffffffffffffffffffffffffffffffffffffff\n      and\n      sub\n        /* \"Dcoffer/ERC721A/test.sol\":9727:9775  if (to == owner) revert ApprovalToCurrentOwner() */\n      tag_137\n      jumpi\n        /* \"Dcoffer/ERC721A/test.sol\":9751:9775  ApprovalToCurrentOwner() */\n      mload(0x40)\n      0x943f7b8c00000000000000000000000000000000000000000000000000000000\n      dup2\n      mstore\n      0x04\n      add\n      mload(0x40)\n      dup1\n      swap2\n      sub\n      swap1\n      revert\n        /* \"Dcoffer/ERC721A/test.sol\":9727:9775  if (to == owner) revert ApprovalToCurrentOwner() */\n    tag_137:\n        /* \"Dcoffer/ERC721A/test.sol\":9808:9813  owner */\n      dup1\n        /* \"Dcoffer/ERC721A/test.sol\":9792:9813  _msgSender() != owner */\n      0xffffffffffffffffffffffffffffffffffffffff\n      and\n        /* \"Dcoffer/ERC721A/test.sol\":9792:9804  _msgSender() */\n      tag_138\n        /* \"Dcoffer/ERC721A/test.sol\":9792:9802  _msgSender */\n      tag_139\n        /* \"Dcoffer/ERC721A/test.sol\":9792:9804  _msgSender() */\n      jump\t// in\n    tag_138:\n        /* \"Dcoffer/ERC721A/test.sol\":9792:9813  _msgSender() != owner */\n      0xffffffffffffffffffffffffffffffffffffffff\n      and\n      eq\n        /* \"Dcoffer/ERC721A/test.sol\":9788:9927  if (_msgSender() != owner) if(!isApprovedForAll(owner, _msgSender())) {... */\n      tag_140\n      jumpi\n        /* \"Dcoffer/ERC721A/test.sol\":9819:9856  isApprovedForAll(owner, _msgSender()) */\n      tag_141\n        /* \"Dcoffer/ERC721A/test.sol\":9836:9841  owner */\n      dup2\n        /* \"Dcoffer/ERC721A/test.sol\":9843:9855  _msgSender() */\n      tag_142\n        /* \"Dcoffer/ERC721A/test.sol\":9843:9853  _msgSender */\n      tag_139\n        /* \"Dcoffer/ERC721A/test.sol\":9843:9855  _msgSender() */\n      jump\t// in\n    tag_142:\n        /* \"Dcoffer/ERC721A/test.sol\":9819:9835  isApprovedForAll */\n      tag_113\n        /* \"Dcoffer/ERC721A/test.sol\":9819:9856  isApprovedForAll(owner, _msgSender()) */\n      jump\t// in\n    tag_141:\n        /* \"Dcoffer/ERC721A/test.sol\":9815:9927  if(!isApprovedForAll(owner, _msgSender())) {... */\n      tag_143\n      jumpi\n        /* \"Dcoffer/ERC721A/test.sol\":9880:9915  ApprovalCallerNotOwnerNorApproved() */\n      mload(0x40)\n      0xcfb3b94200000000000000000000000000000000000000000000000000000000\n      dup2\n      mstore\n      0x04\n      add\n      mload(0x40)\n      dup1\n      swap2\n      sub\n      swap1\n      revert\n        /* \"Dcoffer/ERC721A/test.sol\":9815:9927  if(!isApprovedForAll(owner, _msgSender())) {... */\n    tag_143:\n        /* \"Dcoffer/ERC721A/test.sol\":9788:9927  if (_msgSender() != owner) if(!isApprovedForAll(owner, _msgSender())) {... */\n    tag_140:\n        /* \"Dcoffer/ERC721A/test.sol\":9939:9967  _approve(to, tokenId, owner) */\n      tag_144\n        /* \"Dcoffer/ERC721A/test.sol\":9948:9950  to */\n      dup4\n        /* \"Dcoffer/ERC721A/test.sol\":9952:9959  tokenId */\n      dup4\n        /* \"Dcoffer/ERC721A/test.sol\":9961:9966  owner */\n      dup4\n        /* \"Dcoffer/ERC721A/test.sol\":9939:9947  _approve */\n      tag_145\n        /* \"Dcoffer/ERC721A/test.sol\":9939:9967  _approve(to, tokenId, owner) */\n      jump\t// in\n    tag_144:\n        /* \"Dcoffer/ERC721A/test.sol\":9665:9975  {... */\n      pop\n        /* \"Dcoffer/ERC721A/test.sol\":9603:9975  function approve(address to, uint256 tokenId) public override {... */\n      pop\n      pop\n      jump\t// out\n        /* \"Dcoffer/ERC721A/test.sol\":4388:4700  function totalSupply() public view override returns (uint256) {... */\n    tag_50:\n        /* \"Dcoffer/ERC721A/test.sol\":4441:4448  uint256 */\n      0x00\n        /* \"Dcoffer/ERC721A/test.sol\":4666:4681  _startTokenId() */\n      tag_147\n        /* \"Dcoffer/ERC721A/test.sol\":4666:4679  _startTokenId */\n      tag_148\n        /* \"Dcoffer/ERC721A/test.sol\":4666:4681  _startTokenId() */\n      jump\t// in\n    tag_147:\n        /* \"Dcoffer/ERC721A/test.sol\":4651:4663  _burnCounter */\n      sload(0x06)\n        /* \"Dcoffer/ERC721A/test.sol\":4635:4648  _currentIndex */\n      sload(0x04)\n        /* \"Dcoffer/ERC721A/test.sol\":4635:4663  _currentIndex - _burnCounter */\n      sub\n        /* \"Dcoffer/ERC721A/test.sol\":4635:4681  _currentIndex - _burnCounter - _startTokenId() */\n      sub\n        /* \"Dcoffer/ERC721A/test.sol\":4628:4681  return _currentIndex - _burnCounter - _startTokenId() */\n      swap1\n      pop\n        /* \"Dcoffer/ERC721A/test.sol\":4388:4700  function totalSupply() public view override returns (uint256) {... */\n      swap1\n      jump\t// out\n        /* \"Dcoffer/ERC721A/test.sol\":3070:3285  function update(address user)public {... */\n    tag_56:\n        /* \"Dcoffer/ERC721A/test.sol\":3117:3135  uint256 difference */\n      0x00\n        /* \"Dcoffer/ERC721A/test.sol\":3138:3181  block.number.sub(_mineInfo[user][1]).add(1) */\n      tag_150\n        /* \"Dcoffer/ERC721A/test.sol\":3179:3180  1 */\n      0x01\n        /* \"Dcoffer/ERC721A/test.sol\":3138:3174  block.number.sub(_mineInfo[user][1]) */\n      tag_151\n        /* \"Dcoffer/ERC721A/test.sol\":3155:3164  _mineInfo */\n      0x0d\n        /* \"Dcoffer/ERC721A/test.sol\":3155:3170  _mineInfo[user] */\n      0x00\n        /* \"Dcoffer/ERC721A/test.sol\":3165:3169  user */\n      dup7\n        /* \"Dcoffer/ERC721A/test.sol\":3155:3170  _mineInfo[user] */\n      0xffffffffffffffffffffffffffffffffffffffff\n      and\n      0xffffffffffffffffffffffffffffffffffffffff\n      and\n      dup2\n      mstore\n      0x20\n      add\n      swap1\n      dup2\n      mstore\n      0x20\n      add\n      0x00\n      keccak256\n        /* \"Dcoffer/ERC721A/test.sol\":3155:3173  _mineInfo[user][1] */\n      0x00\n        /* \"Dcoffer/ERC721A/test.sol\":3171:3172  1 */\n      0x01\n        /* \"Dcoffer/ERC721A/test.sol\":3155:3173  _mineInfo[user][1] */\n      dup2\n      mstore\n      0x20\n      add\n      swap1\n      dup2\n      mstore\n      0x20\n      add\n      0x00\n      keccak256\n      sload\n        /* \"Dcoffer/ERC721A/test.sol\":3138:3150  block.number */\n      number\n        /* \"Dcoffer/ERC721A/test.sol\":3138:3154  block.number.sub */\n      tag_152\n      swap1\n        /* \"Dcoffer/ERC721A/test.sol\":3138:3174  block.number.sub(_mineInfo[user][1]) */\n      swap2\n      swap1\n      0xffffffff\n      and\n      jump\t// in\n    tag_151:\n        /* \"Dcoffer/ERC721A/test.sol\":3138:3178  block.number.sub(_mineInfo[user][1]).add */\n      tag_153\n      swap1\n        /* \"Dcoffer/ERC721A/test.sol\":3138:3181  block.number.sub(_mineInfo[user][1]).add(1) */\n      swap2\n      swap1\n      0xffffffff\n      and\n      jump\t// in\n    tag_150:\n        /* \"Dcoffer/ERC721A/test.sol\":3117:3181  uint256 difference = block.number.sub(_mineInfo[user][1]).add(1) */\n      swap1\n      pop\n        /* \"Dcoffer/ERC721A/test.sol\":3192:3205  uint256 start */\n      0x00\n        /* \"Dcoffer/ERC721A/test.sol\":3208:3238  MineStatus(_mineInfo[user][1]) */\n      tag_154\n        /* \"Dcoffer/ERC721A/test.sol\":3219:3228  _mineInfo */\n      0x0d\n        /* \"Dcoffer/ERC721A/test.sol\":3219:3234  _mineInfo[user] */\n      0x00\n        /* \"Dcoffer/ERC721A/test.sol\":3229:3233  user */\n      dup6\n        /* \"Dcoffer/ERC721A/test.sol\":3219:3234  _mineInfo[user] */\n      0xffffffffffffffffffffffffffffffffffffffff\n      and\n      0xffffffffffffffffffffffffffffffffffffffff\n      and\n      dup2\n      mstore\n      0x20\n      add\n      swap1\n      dup2\n      mstore\n      0x20\n      add\n      0x00\n      keccak256\n        /* \"Dcoffer/ERC721A/test.sol\":3219:3237  _mineInfo[user][1] */\n      0x00\n        /* \"Dcoffer/ERC721A/test.sol\":3235:3236  1 */\n      0x01\n        /* \"Dcoffer/ERC721A/test.sol\":3219:3237  _mineInfo[user][1] */\n      dup2\n      mstore\n      0x20\n      add\n      swap1\n      dup2\n      mstore\n      0x20\n      add\n      0x00\n      keccak256\n      sload\n        /* \"Dcoffer/ERC721A/test.sol\":3208:3218  MineStatus */\n      tag_101\n        /* \"Dcoffer/ERC721A/test.sol\":3208:3238  MineStatus(_mineInfo[user][1]) */\n      jump\t// in\n    tag_154:\n        /* \"Dcoffer/ERC721A/test.sol\":3192:3238  uint256 start = MineStatus(_mineInfo[user][1]) */\n      swap1\n      pop\n        /* \"Dcoffer/ERC721A/test.sol\":3249:3260  uint256 end */\n      0x00\n        /* \"Dcoffer/ERC721A/test.sol\":3263:3275  block.number */\n      number\n        /* \"Dcoffer/ERC721A/test.sol\":3249:3275  uint256 end = block.number */\n      swap1\n      pop\n        /* \"Dcoffer/ERC721A/test.sol\":3106:3285  {... */\n      pop\n      pop\n      pop\n        /* \"Dcoffer/ERC721A/test.sol\":3070:3285  function update(address user)public {... */\n      pop\n      jump\t// out\n        /* \"Dcoffer/ERC721A/test.sol\":10906:11076  function transferFrom(... */\n    tag_60:\n        /* \"Dcoffer/ERC721A/test.sol\":11040:11068  _transfer(from, to, tokenId) */\n      tag_156\n        /* \"Dcoffer/ERC721A/test.sol\":11050:11054  from */\n      dup4\n        /* \"Dcoffer/ERC721A/test.sol\":11056:11058  to */\n      dup4\n        /* \"Dcoffer/ERC721A/test.sol\":11060:11067  tokenId */\n      dup4\n        /* \"Dcoffer/ERC721A/test.sol\":11040:11049  _transfer */\n      tag_157\n        /* \"Dcoffer/ERC721A/test.sol\":11040:11068  _transfer(from, to, tokenId) */\n      jump\t// in\n    tag_156:\n        /* \"Dcoffer/ERC721A/test.sol\":10906:11076  function transferFrom(... */\n      pop\n      pop\n      pop\n      jump\t// out\n        /* \"Dcoffer/ERC721A/test.sol\":2769:3060  function BlockScore(address user)public view returns(uint256){... */\n    tag_63:\n        /* \"Dcoffer/ERC721A/test.sol\":2822:2829  uint256 */\n      0x00\n        /* \"Dcoffer/ERC721A/test.sol\":2841:2859  uint256 difference */\n      dup1\n        /* \"Dcoffer/ERC721A/test.sol\":2862:2898  block.number.sub(_mineInfo[user][1]) */\n      tag_159\n        /* \"Dcoffer/ERC721A/test.sol\":2879:2888  _mineInfo */\n      0x0d\n        /* \"Dcoffer/ERC721A/test.sol\":2879:2894  _mineInfo[user] */\n      0x00\n        /* \"Dcoffer/ERC721A/test.sol\":2889:2893  user */\n      dup6\n        /* \"Dcoffer/ERC721A/test.sol\":2879:2894  _mineInfo[user] */\n      0xffffffffffffffffffffffffffffffffffffffff\n      and\n      0xffffffffffffffffffffffffffffffffffffffff\n      and\n      dup2\n      mstore\n      0x20\n      add\n      swap1\n      dup2\n      mstore\n      0x20\n      add\n      0x00\n      keccak256\n        /* \"Dcoffer/ERC721A/test.sol\":2879:2897  _mineInfo[user][1] */\n      0x00\n        /* \"Dcoffer/ERC721A/test.sol\":2895:2896  1 */\n      0x01\n        /* \"Dcoffer/ERC721A/test.sol\":2879:2897  _mineInfo[user][1] */\n      dup2\n      mstore\n      0x20\n      add\n      swap1\n      dup2\n      mstore\n      0x20\n      add\n      0x00\n      keccak256\n      sload\n        /* \"Dcoffer/ERC721A/test.sol\":2862:2874  block.number */\n      number\n        /* \"Dcoffer/ERC721A/test.sol\":2862:2878  block.number.sub */\n      tag_152\n      swap1\n        /* \"Dcoffer/ERC721A/test.sol\":2862:2898  block.number.sub(_mineInfo[user][1]) */\n      swap2\n      swap1\n      0xffffffff\n      and\n      jump\t// in\n    tag_159:\n        /* \"Dcoffer/ERC721A/test.sol\":2841:2898  uint256 difference = block.number.sub(_mineInfo[user][1]) */\n      swap1\n      pop\n        /* \"Dcoffer/ERC721A/test.sol\":2909:2924  uint256 Product */\n      0x00\n        /* \"Dcoffer/ERC721A/test.sol\":2927:2958  balanceOf(user).mul(difference) */\n      tag_160\n        /* \"Dcoffer/ERC721A/test.sol\":2947:2957  difference */\n      dup3\n        /* \"Dcoffer/ERC721A/test.sol\":2927:2942  balanceOf(user) */\n      tag_161\n        /* \"Dcoffer/ERC721A/test.sol\":2937:2941  user */\n      dup7\n        /* \"Dcoffer/ERC721A/test.sol\":2927:2936  balanceOf */\n      tag_80\n        /* \"Dcoffer/ERC721A/test.sol\":2927:2942  balanceOf(user) */\n      jump\t// in\n    tag_161:\n        /* \"Dcoffer/ERC721A/test.sol\":2927:2946  balanceOf(user).mul */\n      tag_162\n      swap1\n        /* \"Dcoffer/ERC721A/test.sol\":2927:2958  balanceOf(user).mul(difference) */\n      swap2\n      swap1\n      0xffffffff\n      and\n      jump\t// in\n    tag_160:\n        /* \"Dcoffer/ERC721A/test.sol\":2909:2958  uint256 Product = balanceOf(user).mul(difference) */\n      swap1\n      pop\n        /* \"Dcoffer/ERC721A/test.sol\":2969:2989  uint256 accumulation */\n      0x00\n        /* \"Dcoffer/ERC721A/test.sol\":2991:3022  _mineInfo[user][2].add(Product) */\n      tag_163\n        /* \"Dcoffer/ERC721A/test.sol\":3014:3021  Product */\n      dup3\n        /* \"Dcoffer/ERC721A/test.sol\":2991:3000  _mineInfo */\n      0x0d\n        /* \"Dcoffer/ERC721A/test.sol\":2991:3006  _mineInfo[user] */\n      0x00\n        /* \"Dcoffer/ERC721A/test.sol\":3001:3005  user */\n      dup9\n        /* \"Dcoffer/ERC721A/test.sol\":2991:3006  _mineInfo[user] */\n      0xffffffffffffffffffffffffffffffffffffffff\n      and\n      0xffffffffffffffffffffffffffffffffffffffff\n      and\n      dup2\n      mstore\n      0x20\n      add\n      swap1\n      dup2\n      mstore\n      0x20\n      add\n      0x00\n      keccak256\n        /* \"Dcoffer/ERC721A/test.sol\":2991:3009  _mineInfo[user][2] */\n      0x00\n        /* \"Dcoffer/ERC721A/test.sol\":3007:3008  2 */\n      0x02\n        /* \"Dcoffer/ERC721A/test.sol\":2991:3009  _mineInfo[user][2] */\n      dup2\n      mstore\n      0x20\n      add\n      swap1\n      dup2\n      mstore\n      0x20\n      add\n      0x00\n      keccak256\n      sload\n        /* \"Dcoffer/ERC721A/test.sol\":2991:3013  _mineInfo[user][2].add */\n      tag_153\n      swap1\n        /* \"Dcoffer/ERC721A/test.sol\":2991:3022  _mineInfo[user][2].add(Product) */\n      swap2\n      swap1\n      0xffffffff\n      and\n      jump\t// in\n    tag_163:\n        /* \"Dcoffer/ERC721A/test.sol\":2969:3022  uint256 accumulation =_mineInfo[user][2].add(Product) */\n      swap1\n      pop\n        /* \"Dcoffer/ERC721A/test.sol\":3040:3052  accumulation */\n      dup1\n        /* \"Dcoffer/ERC721A/test.sol\":3033:3052  return accumulation */\n      swap4\n      pop\n      pop\n      pop\n      pop\n        /* \"Dcoffer/ERC721A/test.sol\":2769:3060  function BlockScore(address user)public view returns(uint256){... */\n      swap2\n      swap1\n      pop\n      jump\t// out\n        /* \"Dcoffer/ERC721A/test.sol\":1208:1235  uint256 public _DCFperBlock */\n    tag_66:\n      sload(0x01)\n      dup2\n      jump\t// out\n        /* \"Dcoffer/ERC721A/test.sol\":11147:11332  function safeTransferFrom(... */\n    tag_70:\n        /* \"Dcoffer/ERC721A/test.sol\":11285:11324  safeTransferFrom(from, to, tokenId, '') */\n      tag_165\n        /* \"Dcoffer/ERC721A/test.sol\":11302:11306  from */\n      dup4\n        /* \"Dcoffer/ERC721A/test.sol\":11308:11310  to */\n      dup4\n        /* \"Dcoffer/ERC721A/test.sol\":11312:11319  tokenId */\n      dup4\n        /* \"Dcoffer/ERC721A/test.sol\":11285:11324  safeTransferFrom(from, to, tokenId, '') */\n      mload(0x40)\n      dup1\n      0x20\n      add\n      0x40\n      mstore\n      dup1\n      0x00\n      dup2\n      mstore\n      pop\n        /* \"Dcoffer/ERC721A/test.sol\":11285:11301  safeTransferFrom */\n      tag_98\n        /* \"Dcoffer/ERC721A/test.sol\":11285:11324  safeTransferFrom(from, to, tokenId, '') */\n      jump\t// in\n    tag_165:\n        /* \"Dcoffer/ERC721A/test.sol\":11147:11332  function safeTransferFrom(... */\n      pop\n      pop\n      pop\n      jump\t// out\n        /* \"Dcoffer/ERC721A/test.sol\":1285:1311  uint256 public _totalPower */\n    tag_72:\n      sload(0x03)\n      dup2\n      jump\t// out\n        /* \"Dcoffer/ERC721A/test.sol\":8254:8379  function ownerOf(uint256 tokenId) public view override returns (address) {... */\n    tag_76:\n        /* \"Dcoffer/ERC721A/test.sol\":8318:8325  address */\n      0x00\n        /* \"Dcoffer/ERC721A/test.sol\":8345:8366  _ownershipOf(tokenId) */\n      tag_167\n        /* \"Dcoffer/ERC721A/test.sol\":8358:8365  tokenId */\n      dup3\n        /* \"Dcoffer/ERC721A/test.sol\":8345:8357  _ownershipOf */\n      tag_168\n        /* \"Dcoffer/ERC721A/test.sol\":8345:8366  _ownershipOf(tokenId) */\n      jump\t// in\n    tag_167:\n        /* \"Dcoffer/ERC721A/test.sol\":8345:8371  _ownershipOf(tokenId).addr */\n      0x00\n      add\n      mload\n        /* \"Dcoffer/ERC721A/test.sol\":8338:8371  return _ownershipOf(tokenId).addr */\n      swap1\n      pop\n        /* \"Dcoffer/ERC721A/test.sol\":8254:8379  function ownerOf(uint256 tokenId) public view override returns (address) {... */\n      swap2\n      swap1\n      pop\n      jump\t// out\n        /* \"Dcoffer/ERC721A/test.sol\":5699:5905  function balanceOf(address owner) public view override returns (uint256) {... */\n    tag_80:\n        /* \"Dcoffer/ERC721A/test.sol\":5763:5770  uint256 */\n      0x00\n        /* \"Dcoffer/ERC721A/test.sol\":5804:5805  0 */\n      dup1\n        /* \"Dcoffer/ERC721A/test.sol\":5787:5806  owner == address(0) */\n      0xffffffffffffffffffffffffffffffffffffffff\n      and\n        /* \"Dcoffer/ERC721A/test.sol\":5787:5792  owner */\n      dup3\n        /* \"Dcoffer/ERC721A/test.sol\":5787:5806  owner == address(0) */\n      0xffffffffffffffffffffffffffffffffffffffff\n      and\n      sub\n        /* \"Dcoffer/ERC721A/test.sol\":5783:5843  if (owner == address(0)) revert BalanceQueryForZeroAddress() */\n      tag_170\n      jumpi\n        /* \"Dcoffer/ERC721A/test.sol\":5815:5843  BalanceQueryForZeroAddress() */\n      mload(0x40)\n      0x8f4eb60400000000000000000000000000000000000000000000000000000000\n      dup2\n      mstore\n      0x04\n      add\n      mload(0x40)\n      dup1\n      swap2\n      sub\n      swap1\n      revert\n        /* \"Dcoffer/ERC721A/test.sol\":5783:5843  if (owner == address(0)) revert BalanceQueryForZeroAddress() */\n    tag_170:\n        /* \"Dcoffer/ERC721A/test.sol\":5869:5881  _addressData */\n      0x0a\n        /* \"Dcoffer/ERC721A/test.sol\":5869:5888  _addressData[owner] */\n      0x00\n        /* \"Dcoffer/ERC721A/test.sol\":5882:5887  owner */\n      dup4\n        /* \"Dcoffer/ERC721A/test.sol\":5869:5888  _addressData[owner] */\n      0xffffffffffffffffffffffffffffffffffffffff\n      and\n      0xffffffffffffffffffffffffffffffffffffffff\n      and\n      dup2\n      mstore\n      0x20\n      add\n      swap1\n      dup2\n      mstore\n      0x20\n      add\n      0x00\n      keccak256\n        /* \"Dcoffer/ERC721A/test.sol\":5869:5896  _addressData[owner].balance */\n      0x00\n      add\n      0x00\n      swap1\n      sload\n      swap1\n      0x0100\n      exp\n      swap1\n      div\n      0xffffffffffffffff\n      and\n        /* \"Dcoffer/ERC721A/test.sol\":5861:5897  uint256(_addressData[owner].balance) */\n      0xffffffffffffffff\n      and\n        /* \"Dcoffer/ERC721A/test.sol\":5854:5897  return uint256(_addressData[owner].balance) */\n      swap1\n      pop\n        /* \"Dcoffer/ERC721A/test.sol\":5699:5905  function balanceOf(address owner) public view override returns (uint256) {... */\n      swap2\n      swap1\n      pop\n      jump\t// out\n        /* \"Dcoffer/ERC721A/test.sol\":1244:1276  uint256 public _startBlockNumber */\n    tag_83:\n      sload(0x02)\n      dup2\n      jump\t// out\n        /* \"Dcoffer/ERC721A/test.sol\":8615:8719  function symbol() public view virtual override returns (string memory) {... */\n    tag_86:\n        /* \"Dcoffer/ERC721A/test.sol\":8671:8684  string memory */\n      0x60\n        /* \"Dcoffer/ERC721A/test.sol\":8704:8711  _symbol */\n      0x08\n        /* \"Dcoffer/ERC721A/test.sol\":8697:8711  return _symbol */\n      dup1\n      sload\n      tag_172\n      swap1\n      tag_126\n      jump\t// in\n    tag_172:\n      dup1\n      0x1f\n      add\n      0x20\n      dup1\n      swap2\n      div\n      mul\n      0x20\n      add\n      mload(0x40)\n      swap1\n      dup2\n      add\n      0x40\n      mstore\n      dup1\n      swap3\n      swap2\n      swap1\n      dup2\n      dup2\n      mstore\n      0x20\n      add\n      dup3\n      dup1\n      sload\n      tag_173\n      swap1\n      tag_126\n      jump\t// in\n    tag_173:\n      dup1\n      iszero\n      tag_174\n      jumpi\n      dup1\n      0x1f\n      lt\n      tag_175\n      jumpi\n      0x0100\n      dup1\n      dup4\n      sload\n      div\n      mul\n      dup4\n      mstore\n      swap2\n      0x20\n      add\n      swap2\n      jump(tag_174)\n    tag_175:\n      dup3\n      add\n      swap2\n      swap1\n      0x00\n      mstore\n      keccak256(0x00, 0x20)\n      swap1\n    tag_176:\n      dup2\n      sload\n      dup2\n      mstore\n      swap1\n      0x01\n      add\n      swap1\n      0x20\n      add\n      dup1\n      dup4\n      gt\n      tag_176\n      jumpi\n      dup3\n      swap1\n      sub\n      0x1f\n      and\n      dup3\n      add\n      swap2\n    tag_174:\n      pop\n      pop\n      pop\n      pop\n      pop\n      swap1\n      pop\n        /* \"Dcoffer/ERC721A/test.sol\":8615:8719  function symbol() public view virtual override returns (string memory) {... */\n      swap1\n      jump\t// out\n        /* \"Dcoffer/ERC721A/test.sol\":1179:1199  uint256 public _salt */\n    tag_89:\n      sload(0x00)\n      dup2\n      jump\t// out\n        /* \"Dcoffer/ERC721A/test.sol\":10317:10604  function setApprovalForAll(address operator, bool approved) public virtual override {... */\n    tag_94:\n        /* \"Dcoffer/ERC721A/test.sol\":10428:10440  _msgSender() */\n      tag_178\n        /* \"Dcoffer/ERC721A/test.sol\":10428:10438  _msgSender */\n      tag_139\n        /* \"Dcoffer/ERC721A/test.sol\":10428:10440  _msgSender() */\n      jump\t// in\n    tag_178:\n        /* \"Dcoffer/ERC721A/test.sol\":10416:10440  operator == _msgSender() */\n      0xffffffffffffffffffffffffffffffffffffffff\n      and\n        /* \"Dcoffer/ERC721A/test.sol\":10416:10424  operator */\n      dup3\n        /* \"Dcoffer/ERC721A/test.sol\":10416:10440  operator == _msgSender() */\n      0xffffffffffffffffffffffffffffffffffffffff\n      and\n      sub\n        /* \"Dcoffer/ERC721A/test.sol\":10412:10466  if (operator == _msgSender()) revert ApproveToCaller() */\n      tag_179\n      jumpi\n        /* \"Dcoffer/ERC721A/test.sol\":10449:10466  ApproveToCaller() */\n      mload(0x40)\n      0xb06307db00000000000000000000000000000000000000000000000000000000\n      dup2\n      mstore\n      0x04\n      add\n      mload(0x40)\n      dup1\n      swap2\n      sub\n      swap1\n      revert\n        /* \"Dcoffer/ERC721A/test.sol\":10412:10466  if (operator == _msgSender()) revert ApproveToCaller() */\n    tag_179:\n        /* \"Dcoffer/ERC721A/test.sol\":10524:10532  approved */\n      dup1\n        /* \"Dcoffer/ERC721A/test.sol\":10479:10497  _operatorApprovals */\n      0x0c\n        /* \"Dcoffer/ERC721A/test.sol\":10479:10511  _operatorApprovals[_msgSender()] */\n      0x00\n        /* \"Dcoffer/ERC721A/test.sol\":10498:10510  _msgSender() */\n      tag_180\n        /* \"Dcoffer/ERC721A/test.sol\":10498:10508  _msgSender */\n      tag_139\n        /* \"Dcoffer/ERC721A/test.sol\":10498:10510  _msgSender() */\n      jump\t// in\n    tag_180:\n        /* \"Dcoffer/ERC721A/test.sol\":10479:10511  _operatorApprovals[_msgSender()] */\n      0xffffffffffffffffffffffffffffffffffffffff\n      and\n      0xffffffffffffffffffffffffffffffffffffffff\n      and\n      dup2\n      mstore\n      0x20\n      add\n      swap1\n      dup2\n      mstore\n      0x20\n      add\n      0x00\n      keccak256\n        /* \"Dcoffer/ERC721A/test.sol\":10479:10521  _operatorApprovals[_msgSender()][operator] */\n      0x00\n        /* \"Dcoffer/ERC721A/test.sol\":10512:10520  operator */\n      dup5\n        /* \"Dcoffer/ERC721A/test.sol\":10479:10521  _operatorApprovals[_msgSender()][operator] */\n      0xffffffffffffffffffffffffffffffffffffffff\n      and\n      0xffffffffffffffffffffffffffffffffffffffff\n      and\n      dup2\n      mstore\n      0x20\n      add\n      swap1\n      dup2\n      mstore\n      0x20\n      add\n      0x00\n      keccak256\n      0x00\n        /* \"Dcoffer/ERC721A/test.sol\":10479:10532  _operatorApprovals[_msgSender()][operator] = approved */\n      0x0100\n      exp\n      dup2\n      sload\n      dup2\n      0xff\n      mul\n      not\n      and\n      swap1\n      dup4\n      iszero\n      iszero\n      mul\n      or\n      swap1\n      sstore\n      pop\n        /* \"Dcoffer/ERC721A/test.sol\":10577:10585  operator */\n      dup2\n        /* \"Dcoffer/ERC721A/test.sol\":10548:10596  ApprovalForAll(_msgSender(), operator, approved) */\n      0xffffffffffffffffffffffffffffffffffffffff\n      and\n        /* \"Dcoffer/ERC721A/test.sol\":10563:10575  _msgSender() */\n      tag_181\n        /* \"Dcoffer/ERC721A/test.sol\":10563:10573  _msgSender */\n      tag_139\n        /* \"Dcoffer/ERC721A/test.sol\":10563:10575  _msgSender() */\n      jump\t// in\n    tag_181:\n        /* \"Dcoffer/ERC721A/test.sol\":10548:10596  ApprovalForAll(_msgSender(), operator, approved) */\n      0xffffffffffffffffffffffffffffffffffffffff\n      and\n      0x17307eab39ab6107e8899845ad3d59bd9653f200f220920489ca2b5937696c31\n        /* \"Dcoffer/ERC721A/test.sol\":10587:10595  approved */\n      dup4\n        /* \"Dcoffer/ERC721A/test.sol\":10548:10596  ApprovalForAll(_msgSender(), operator, approved) */\n      mload(0x40)\n      tag_182\n      swap2\n      swap1\n      tag_34\n      jump\t// in\n    tag_182:\n      mload(0x40)\n      dup1\n      swap2\n      sub\n      swap1\n      log3\n        /* \"Dcoffer/ERC721A/test.sol\":10317:10604  function setApprovalForAll(address operator, bool approved) public virtual override {... */\n      pop\n      pop\n      jump\t// out\n        /* \"Dcoffer/ERC721A/test.sol\":11403:11773  function safeTransferFrom(... */\n    tag_98:\n        /* \"Dcoffer/ERC721A/test.sol\":11570:11598  _transfer(from, to, tokenId) */\n      tag_184\n        /* \"Dcoffer/ERC721A/test.sol\":11580:11584  from */\n      dup5\n        /* \"Dcoffer/ERC721A/test.sol\":11586:11588  to */\n      dup5\n        /* \"Dcoffer/ERC721A/test.sol\":11590:11597  tokenId */\n      dup5\n        /* \"Dcoffer/ERC721A/test.sol\":11570:11579  _transfer */\n      tag_157\n        /* \"Dcoffer/ERC721A/test.sol\":11570:11598  _transfer(from, to, tokenId) */\n      jump\t// in\n    tag_184:\n        /* \"Dcoffer/ERC721A/test.sol\":11613:11628  to.isContract() */\n      tag_185\n        /* \"Dcoffer/ERC721A/test.sol\":11613:11615  to */\n      dup4\n        /* \"Dcoffer/ERC721A/test.sol\":11613:11626  to.isContract */\n      0xffffffffffffffffffffffffffffffffffffffff\n      and\n      tag_186\n        /* \"Dcoffer/ERC721A/test.sol\":11613:11628  to.isContract() */\n      jump\t// in\n    tag_185:\n        /* \"Dcoffer/ERC721A/test.sol\":11609:11766  if (to.isContract()) if(!_checkContractOnERC721Received(from, to, tokenId, _data)) {... */\n      iszero\n      tag_187\n      jumpi\n        /* \"Dcoffer/ERC721A/test.sol\":11634:11690  _checkContractOnERC721Received(from, to, tokenId, _data) */\n      tag_188\n        /* \"Dcoffer/ERC721A/test.sol\":11665:11669  from */\n      dup5\n        /* \"Dcoffer/ERC721A/test.sol\":11671:11673  to */\n      dup5\n        /* \"Dcoffer/ERC721A/test.sol\":11675:11682  tokenId */\n      dup5\n        /* \"Dcoffer/ERC721A/test.sol\":11684:11689  _data */\n      dup5\n        /* \"Dcoffer/ERC721A/test.sol\":11634:11664  _checkContractOnERC721Received */\n      tag_189\n        /* \"Dcoffer/ERC721A/test.sol\":11634:11690  _checkContractOnERC721Received(from, to, tokenId, _data) */\n      jump\t// in\n    tag_188:\n        /* \"Dcoffer/ERC721A/test.sol\":11630:11766  if(!_checkContractOnERC721Received(from, to, tokenId, _data)) {... */\n      tag_190\n      jumpi\n        /* \"Dcoffer/ERC721A/test.sol\":11714:11754  TransferToNonERC721ReceiverImplementer() */\n      mload(0x40)\n      0xd1a57ed600000000000000000000000000000000000000000000000000000000\n      dup2\n      mstore\n      0x04\n      add\n      mload(0x40)\n      dup1\n      swap2\n      sub\n      swap1\n      revert\n        /* \"Dcoffer/ERC721A/test.sol\":11630:11766  if(!_checkContractOnERC721Received(from, to, tokenId, _data)) {... */\n    tag_190:\n        /* \"Dcoffer/ERC721A/test.sol\":11609:11766  if (to.isContract()) if(!_checkContractOnERC721Received(from, to, tokenId, _data)) {... */\n    tag_187:\n        /* \"Dcoffer/ERC721A/test.sol\":11403:11773  function safeTransferFrom(... */\n      pop\n      pop\n      pop\n      pop\n      jump\t// out\n        /* \"Dcoffer/ERC721A/test.sol\":3511:3760  function MineStatus (uint256 _BlockNumber)public view returns (uint256){... */\n    tag_101:\n        /* \"Dcoffer/ERC721A/test.sol\":3574:3581  uint256 */\n      0x00\n        /* \"Dcoffer/ERC721A/test.sol\":3593:3602  uint256 a */\n      dup1\n        /* \"Dcoffer/ERC721A/test.sol\":3605:3627  _DCFperBlock.mul(1e18) */\n      tag_192\n        /* \"Dcoffer/ERC721A/test.sol\":3622:3626  1e18 */\n      0x0de0b6b3a7640000\n        /* \"Dcoffer/ERC721A/test.sol\":3605:3617  _DCFperBlock */\n      sload(0x01)\n        /* \"Dcoffer/ERC721A/test.sol\":3605:3621  _DCFperBlock.mul */\n      tag_162\n      swap1\n        /* \"Dcoffer/ERC721A/test.sol\":3605:3627  _DCFperBlock.mul(1e18) */\n      swap2\n      swap1\n      0xffffffff\n      and\n      jump\t// in\n    tag_192:\n        /* \"Dcoffer/ERC721A/test.sol\":3593:3627  uint256 a = _DCFperBlock.mul(1e18) */\n      swap1\n      pop\n        /* \"Dcoffer/ERC721A/test.sol\":3641:3650  uint256 b */\n      0x00\n        /* \"Dcoffer/ERC721A/test.sol\":3653:3698  _BlockNumber.mul(1e18).div(_startBlockNumber) */\n      tag_193\n        /* \"Dcoffer/ERC721A/test.sol\":3680:3697  _startBlockNumber */\n      sload(0x02)\n        /* \"Dcoffer/ERC721A/test.sol\":3653:3675  _BlockNumber.mul(1e18) */\n      tag_194\n        /* \"Dcoffer/ERC721A/test.sol\":3670:3674  1e18 */\n      0x0de0b6b3a7640000\n        /* \"Dcoffer/ERC721A/test.sol\":3653:3665  _BlockNumber */\n      dup8\n        /* \"Dcoffer/ERC721A/test.sol\":3653:3669  _BlockNumber.mul */\n      tag_162\n      swap1\n        /* \"Dcoffer/ERC721A/test.sol\":3653:3675  _BlockNumber.mul(1e18) */\n      swap2\n      swap1\n      0xffffffff\n      and\n      jump\t// in\n    tag_194:\n        /* \"Dcoffer/ERC721A/test.sol\":3653:3679  _BlockNumber.mul(1e18).div */\n      tag_195\n      swap1\n        /* \"Dcoffer/ERC721A/test.sol\":3653:3698  _BlockNumber.mul(1e18).div(_startBlockNumber) */\n      swap2\n      swap1\n      0xffffffff\n      and\n      jump\t// in\n    tag_193:\n        /* \"Dcoffer/ERC721A/test.sol\":3641:3698  uint256 b = _BlockNumber.mul(1e18).div(_startBlockNumber) */\n      swap1\n      pop\n        /* \"Dcoffer/ERC721A/test.sol\":3709:3718  uint256 c */\n      0x00\n        /* \"Dcoffer/ERC721A/test.sol\":3721:3729  a.div(b) */\n      tag_196\n        /* \"Dcoffer/ERC721A/test.sol\":3727:3728  b */\n      dup3\n        /* \"Dcoffer/ERC721A/test.sol\":3721:3722  a */\n      dup5\n        /* \"Dcoffer/ERC721A/test.sol\":3721:3726  a.div */\n      tag_195\n      swap1\n        /* \"Dcoffer/ERC721A/test.sol\":3721:3729  a.div(b) */\n      swap2\n      swap1\n      0xffffffff\n      and\n      jump\t// in\n    tag_196:\n        /* \"Dcoffer/ERC721A/test.sol\":3709:3729  uint256 c = a.div(b) */\n      swap1\n      pop\n        /* \"Dcoffer/ERC721A/test.sol\":3747:3748  c */\n      dup1\n        /* \"Dcoffer/ERC721A/test.sol\":3740:3748  return c */\n      swap4\n      pop\n      pop\n      pop\n      pop\n        /* \"Dcoffer/ERC721A/test.sol\":3511:3760  function MineStatus (uint256 _BlockNumber)public view returns (uint256){... */\n      swap2\n      swap1\n      pop\n      jump\t// out\n        /* \"Dcoffer/ERC721A/test.sol\":8790:9108  function tokenURI(uint256 tokenId) public view virtual override returns (string memory) {... */\n    tag_105:\n        /* \"Dcoffer/ERC721A/test.sol\":8863:8876  string memory */\n      0x60\n        /* \"Dcoffer/ERC721A/test.sol\":8894:8910  _exists(tokenId) */\n      tag_198\n        /* \"Dcoffer/ERC721A/test.sol\":8902:8909  tokenId */\n      dup3\n        /* \"Dcoffer/ERC721A/test.sol\":8894:8901  _exists */\n      tag_133\n        /* \"Dcoffer/ERC721A/test.sol\":8894:8910  _exists(tokenId) */\n      jump\t// in\n    tag_198:\n        /* \"Dcoffer/ERC721A/test.sol\":8889:8948  if (!_exists(tokenId)) revert URIQueryForNonexistentToken() */\n      tag_199\n      jumpi\n        /* \"Dcoffer/ERC721A/test.sol\":8919:8948  URIQueryForNonexistentToken() */\n      mload(0x40)\n      0xa14c4b5000000000000000000000000000000000000000000000000000000000\n      dup2\n      mstore\n      0x04\n      add\n      mload(0x40)\n      dup1\n      swap2\n      sub\n      swap1\n      revert\n        /* \"Dcoffer/ERC721A/test.sol\":8889:8948  if (!_exists(tokenId)) revert URIQueryForNonexistentToken() */\n    tag_199:\n        /* \"Dcoffer/ERC721A/test.sol\":8961:8982  string memory baseURI */\n      0x00\n        /* \"Dcoffer/ERC721A/test.sol\":8985:8995  _baseURI() */\n      tag_200\n        /* \"Dcoffer/ERC721A/test.sol\":8985:8993  _baseURI */\n      tag_201\n        /* \"Dcoffer/ERC721A/test.sol\":8985:8995  _baseURI() */\n      jump\t// in\n    tag_200:\n        /* \"Dcoffer/ERC721A/test.sol\":8961:8995  string memory baseURI = _baseURI() */\n      swap1\n      pop\n        /* \"Dcoffer/ERC721A/test.sol\":9038:9039  0 */\n      0x00\n        /* \"Dcoffer/ERC721A/test.sol\":9019:9026  baseURI */\n      dup2\n        /* \"Dcoffer/ERC721A/test.sol\":9013:9034  bytes(baseURI).length */\n      mload\n        /* \"Dcoffer/ERC721A/test.sol\":9013:9039  bytes(baseURI).length != 0 */\n      sub\n        /* \"Dcoffer/ERC721A/test.sol\":9013:9100  bytes(baseURI).length != 0 ? string(abi.encodePacked(baseURI, tokenId.toString())) : '' */\n      tag_202\n      jumpi\n      mload(0x40)\n      dup1\n      0x20\n      add\n      0x40\n      mstore\n      dup1\n      0x00\n      dup2\n      mstore\n      pop\n      jump(tag_203)\n    tag_202:\n        /* \"Dcoffer/ERC721A/test.sol\":9066:9073  baseURI */\n      dup1\n        /* \"Dcoffer/ERC721A/test.sol\":9075:9093  tokenId.toString() */\n      tag_204\n        /* \"Dcoffer/ERC721A/test.sol\":9075:9082  tokenId */\n      dup5\n        /* \"Dcoffer/ERC721A/test.sol\":9075:9091  tokenId.toString */\n      tag_205\n        /* \"Dcoffer/ERC721A/test.sol\":9075:9093  tokenId.toString() */\n      jump\t// in\n    tag_204:\n        /* \"Dcoffer/ERC721A/test.sol\":9049:9094  abi.encodePacked(baseURI, tokenId.toString()) */\n      add(0x20, mload(0x40))\n      tag_206\n      swap3\n      swap2\n      swap1\n      tag_207\n      jump\t// in\n    tag_206:\n      mload(0x40)\n      0x20\n      dup2\n      dup4\n      sub\n      sub\n      dup2\n      mstore\n      swap1\n      0x40\n      mstore\n        /* \"Dcoffer/ERC721A/test.sol\":9013:9100  bytes(baseURI).length != 0 ? string(abi.encodePacked(baseURI, tokenId.toString())) : '' */\n    tag_203:\n        /* \"Dcoffer/ERC721A/test.sol\":9006:9100  return bytes(baseURI).length != 0 ? string(abi.encodePacked(baseURI, tokenId.toString())) : '' */\n      swap2\n      pop\n      pop\n        /* \"Dcoffer/ERC721A/test.sol\":8790:9108  function tokenURI(uint256 tokenId) public view virtual override returns (string memory) {... */\n      swap2\n      swap1\n      pop\n      jump\t// out\n        /* \"Dcoffer/ERC721A/test.sol\":4710:4882  function maxSupply() public view override returns (uint256) {       ... */\n    tag_108:\n        /* \"Dcoffer/ERC721A/test.sol\":4761:4768  uint256 */\n      0x00\n        /* \"Dcoffer/ERC721A/test.sol\":4848:4863  _startTokenId() */\n      tag_209\n        /* \"Dcoffer/ERC721A/test.sol\":4848:4861  _startTokenId */\n      tag_148\n        /* \"Dcoffer/ERC721A/test.sol\":4848:4863  _startTokenId() */\n      jump\t// in\n    tag_209:\n        /* \"Dcoffer/ERC721A/test.sol\":4833:4845  _burnCounter */\n      sload(0x06)\n        /* \"Dcoffer/ERC721A/test.sol\":4820:4830  _maxSupply */\n      sload(0x05)\n        /* \"Dcoffer/ERC721A/test.sol\":4820:4845  _maxSupply - _burnCounter */\n      sub\n        /* \"Dcoffer/ERC721A/test.sol\":4820:4863  _maxSupply - _burnCounter - _startTokenId() */\n      sub\n        /* \"Dcoffer/ERC721A/test.sol\":4813:4863  return _maxSupply - _burnCounter - _startTokenId() */\n      swap1\n      pop\n        /* \"Dcoffer/ERC721A/test.sol\":4710:4882  function maxSupply() public view override returns (uint256) {       ... */\n      swap1\n      jump\t// out\n        /* \"Dcoffer/ERC721A/test.sol\":10675:10839  function isApprovedForAll(address owner, address operator) public view virtual override returns (bool) {... */\n    tag_113:\n        /* \"Dcoffer/ERC721A/test.sol\":10772:10776  bool */\n      0x00\n        /* \"Dcoffer/ERC721A/test.sol\":10796:10814  _operatorApprovals */\n      0x0c\n        /* \"Dcoffer/ERC721A/test.sol\":10796:10821  _operatorApprovals[owner] */\n      0x00\n        /* \"Dcoffer/ERC721A/test.sol\":10815:10820  owner */\n      dup5\n        /* \"Dcoffer/ERC721A/test.sol\":10796:10821  _operatorApprovals[owner] */\n      0xffffffffffffffffffffffffffffffffffffffff\n      and\n      0xffffffffffffffffffffffffffffffffffffffff\n      and\n      dup2\n      mstore\n      0x20\n      add\n      swap1\n      dup2\n      mstore\n      0x20\n      add\n      0x00\n      keccak256\n        /* \"Dcoffer/ERC721A/test.sol\":10796:10831  _operatorApprovals[owner][operator] */\n      0x00\n        /* \"Dcoffer/ERC721A/test.sol\":10822:10830  operator */\n      dup4\n        /* \"Dcoffer/ERC721A/test.sol\":10796:10831  _operatorApprovals[owner][operator] */\n      0xffffffffffffffffffffffffffffffffffffffff\n      and\n      0xffffffffffffffffffffffffffffffffffffffff\n      and\n      dup2\n      mstore\n      0x20\n      add\n      swap1\n      dup2\n      mstore\n      0x20\n      add\n      0x00\n      keccak256\n      0x00\n      swap1\n      sload\n      swap1\n      0x0100\n      exp\n      swap1\n      div\n      0xff\n      and\n        /* \"Dcoffer/ERC721A/test.sol\":10789:10831  return _operatorApprovals[owner][operator] */\n      swap1\n      pop\n        /* \"Dcoffer/ERC721A/test.sol\":10675:10839  function isApprovedForAll(address owner, address operator) public view virtual override returns (bool) {... */\n      swap3\n      swap2\n      pop\n      pop\n      jump\t// out\n        /* \"Dcoffer/ERC721A/test.sol\":3770:4044  function DcofferPower (uint256 tokenId)public view returns(uint256){... */\n    tag_117:\n        /* \"Dcoffer/ERC721A/test.sol\":3829:3836  uint256 */\n      0x00\n        /* \"Dcoffer/ERC721A/test.sol\":3848:3859  uint _power */\n      dup1\n        /* \"Dcoffer/ERC721A/test.sol\":3862:3893  tokenId.mul(_salt).add(tokenId) */\n      tag_212\n        /* \"Dcoffer/ERC721A/test.sol\":3885:3892  tokenId */\n      dup4\n        /* \"Dcoffer/ERC721A/test.sol\":3862:3880  tokenId.mul(_salt) */\n      tag_213\n        /* \"Dcoffer/ERC721A/test.sol\":3874:3879  _salt */\n      sload(0x00)\n        /* \"Dcoffer/ERC721A/test.sol\":3862:3869  tokenId */\n      dup7\n        /* \"Dcoffer/ERC721A/test.sol\":3862:3873  tokenId.mul */\n      tag_162\n      swap1\n        /* \"Dcoffer/ERC721A/test.sol\":3862:3880  tokenId.mul(_salt) */\n      swap2\n      swap1\n      0xffffffff\n      and\n      jump\t// in\n    tag_213:\n        /* \"Dcoffer/ERC721A/test.sol\":3862:3884  tokenId.mul(_salt).add */\n      tag_153\n      swap1\n        /* \"Dcoffer/ERC721A/test.sol\":3862:3893  tokenId.mul(_salt).add(tokenId) */\n      swap2\n      swap1\n      0xffffffff\n      and\n      jump\t// in\n    tag_212:\n        /* \"Dcoffer/ERC721A/test.sol\":3848:3893  uint _power = tokenId.mul(_salt).add(tokenId) */\n      swap1\n      pop\n        /* \"Dcoffer/ERC721A/test.sol\":3923:3924  0 */\n      0x00\n        /* \"Dcoffer/ERC721A/test.sol\":3917:3919  10 */\n      0x0a\n        /* \"Dcoffer/ERC721A/test.sol\":3910:3916  _power */\n      dup3\n        /* \"Dcoffer/ERC721A/test.sol\":3910:3919  _power%10 */\n      tag_214\n      swap2\n      swap1\n      tag_215\n      jump\t// in\n    tag_214:\n        /* \"Dcoffer/ERC721A/test.sol\":3910:3924  _power%10 == 0 */\n      sub\n        /* \"Dcoffer/ERC721A/test.sol\":3907:4011  if(_power%10 == 0){... */\n      tag_216\n      jumpi\n        /* \"Dcoffer/ERC721A/test.sol\":3949:3950  1 */\n      0x01\n        /* \"Dcoffer/ERC721A/test.sol\":3940:3950  _power = 1 */\n      swap1\n      pop\n        /* \"Dcoffer/ERC721A/test.sol\":3907:4011  if(_power%10 == 0){... */\n      jump(tag_217)\n    tag_216:\n        /* \"Dcoffer/ERC721A/test.sol\":3997:3999  10 */\n      0x0a\n        /* \"Dcoffer/ERC721A/test.sol\":3990:3996  _power */\n      dup2\n        /* \"Dcoffer/ERC721A/test.sol\":3990:3999  _power%10 */\n      tag_218\n      swap2\n      swap1\n      tag_215\n      jump\t// in\n    tag_218:\n        /* \"Dcoffer/ERC721A/test.sol\":3981:3999  _power = _power%10 */\n      swap1\n      pop\n        /* \"Dcoffer/ERC721A/test.sol\":3907:4011  if(_power%10 == 0){... */\n    tag_217:\n        /* \"Dcoffer/ERC721A/test.sol\":4030:4036  _power */\n      dup1\n        /* \"Dcoffer/ERC721A/test.sol\":4023:4036  return _power */\n      swap2\n      pop\n      pop\n        /* \"Dcoffer/ERC721A/test.sol\":3770:4044  function DcofferPower (uint256 tokenId)public view returns(uint256){... */\n      swap2\n      swap1\n      pop\n      jump\t// out\n        /* \"@openzeppelin/contracts/utils/introspection/ERC165.sol\":829:984  function supportsInterface(bytes4 interfaceId) public view virtual override returns (bool) {... */\n    tag_123:\n        /* \"@openzeppelin/contracts/utils/introspection/ERC165.sol\":914:918  bool */\n      0x00\n        /* \"@openzeppelin/contracts/utils/introspection/ERC165.sol\":952:977  type(IERC165).interfaceId */\n      0x01ffc9a700000000000000000000000000000000000000000000000000000000\n        /* \"@openzeppelin/contracts/utils/introspection/ERC165.sol\":937:977  interfaceId == type(IERC165).interfaceId */\n      not(0xffffffffffffffffffffffffffffffffffffffffffffffffffffffff)\n      and\n        /* \"@openzeppelin/contracts/utils/introspection/ERC165.sol\":937:948  interfaceId */\n      dup3\n        /* \"@openzeppelin/contracts/utils/introspection/ERC165.sol\":937:977  interfaceId == type(IERC165).interfaceId */\n      not(0xffffffffffffffffffffffffffffffffffffffffffffffffffffffff)\n      and\n      eq\n        /* \"@openzeppelin/contracts/utils/introspection/ERC165.sol\":930:977  return interfaceId == type(IERC165).interfaceId */\n      swap1\n      pop\n        /* \"@openzeppelin/contracts/utils/introspection/ERC165.sol\":829:984  function supportsInterface(bytes4 interfaceId) public view virtual override returns (bool) {... */\n      swap2\n      swap1\n      pop\n      jump\t// out\n        /* \"Dcoffer/ERC721A/test.sol\":11987:12161  function _exists(uint256 tokenId) internal view returns (bool) {... */\n    tag_133:\n        /* \"Dcoffer/ERC721A/test.sol\":12044:12048  bool */\n      0x00\n        /* \"Dcoffer/ERC721A/test.sol\":12087:12094  tokenId */\n      dup2\n        /* \"Dcoffer/ERC721A/test.sol\":12068:12083  _startTokenId() */\n      tag_221\n        /* \"Dcoffer/ERC721A/test.sol\":12068:12081  _startTokenId */\n      tag_148\n        /* \"Dcoffer/ERC721A/test.sol\":12068:12083  _startTokenId() */\n      jump\t// in\n    tag_221:\n        /* \"Dcoffer/ERC721A/test.sol\":12068:12094  _startTokenId() <= tokenId */\n      gt\n      iszero\n        /* \"Dcoffer/ERC721A/test.sol\":12068:12121  _startTokenId() <= tokenId && tokenId < _currentIndex */\n      dup1\n      iszero\n      tag_222\n      jumpi\n      pop\n        /* \"Dcoffer/ERC721A/test.sol\":12108:12121  _currentIndex */\n      sload(0x04)\n        /* \"Dcoffer/ERC721A/test.sol\":12098:12105  tokenId */\n      dup3\n        /* \"Dcoffer/ERC721A/test.sol\":12098:12121  tokenId < _currentIndex */\n      lt\n        /* \"Dcoffer/ERC721A/test.sol\":12068:12121  _startTokenId() <= tokenId && tokenId < _currentIndex */\n    tag_222:\n        /* \"Dcoffer/ERC721A/test.sol\":12068:12153  _startTokenId() <= tokenId && tokenId < _currentIndex && !_ownerships[tokenId].burned */\n      dup1\n      iszero\n      tag_223\n      jumpi\n      pop\n        /* \"Dcoffer/ERC721A/test.sol\":12126:12137  _ownerships */\n      0x09\n        /* \"Dcoffer/ERC721A/test.sol\":12126:12146  _ownerships[tokenId] */\n      0x00\n        /* \"Dcoffer/ERC721A/test.sol\":12138:12145  tokenId */\n      dup4\n        /* \"Dcoffer/ERC721A/test.sol\":12126:12146  _ownerships[tokenId] */\n      dup2\n      mstore\n      0x20\n      add\n      swap1\n      dup2\n      mstore\n      0x20\n      add\n      0x00\n      keccak256\n        /* \"Dcoffer/ERC721A/test.sol\":12126:12153  _ownerships[tokenId].burned */\n      0x00\n      add\n      0x1c\n      swap1\n      sload\n      swap1\n      0x0100\n      exp\n      swap1\n      div\n      0xff\n      and\n        /* \"Dcoffer/ERC721A/test.sol\":12125:12153  !_ownerships[tokenId].burned */\n      iszero\n        /* \"Dcoffer/ERC721A/test.sol\":12068:12153  _startTokenId() <= tokenId && tokenId < _currentIndex && !_ownerships[tokenId].burned */\n    tag_223:\n        /* \"Dcoffer/ERC721A/test.sol\":12061:12153  return _startTokenId() <= tokenId && tokenId < _currentIndex && !_ownerships[tokenId].burned */\n      swap1\n      pop\n        /* \"Dcoffer/ERC721A/test.sol\":11987:12161  function _exists(uint256 tokenId) internal view returns (bool) {... */\n      swap2\n      swap1\n      pop\n      jump\t// out\n        /* \"@openzeppelin/contracts/utils/Context.sol\":640:736  function _msgSender() internal view virtual returns (address) {... */\n    tag_139:\n        /* \"@openzeppelin/contracts/utils/Context.sol\":693:700  address */\n      0x00\n        /* \"@openzeppelin/contracts/utils/Context.sol\":719:729  msg.sender */\n      caller\n        /* \"@openzeppelin/contracts/utils/Context.sol\":712:729  return msg.sender */\n      swap1\n      pop\n        /* \"@openzeppelin/contracts/utils/Context.sol\":640:736  function _msgSender() internal view virtual returns (address) {... */\n      swap1\n      jump\t// out\n        /* \"Dcoffer/ERC721A/test.sol\":19903:20099  function _approve(... */\n    tag_145:\n        /* \"Dcoffer/ERC721A/test.sol\":20045:20047  to */\n      dup3\n        /* \"Dcoffer/ERC721A/test.sol\":20018:20033  _tokenApprovals */\n      0x0b\n        /* \"Dcoffer/ERC721A/test.sol\":20018:20042  _tokenApprovals[tokenId] */\n      0x00\n        /* \"Dcoffer/ERC721A/test.sol\":20034:20041  tokenId */\n      dup5\n        /* \"Dcoffer/ERC721A/test.sol\":20018:20042  _tokenApprovals[tokenId] */\n      dup2\n      mstore\n      0x20\n      add\n      swap1\n      dup2\n      mstore\n      0x20\n      add\n      0x00\n      keccak256\n      0x00\n        /* \"Dcoffer/ERC721A/test.sol\":20018:20047  _tokenApprovals[tokenId] = to */\n      0x0100\n      exp\n      dup2\n      sload\n      dup2\n      0xffffffffffffffffffffffffffffffffffffffff\n      mul\n      not\n      and\n      swap1\n      dup4\n      0xffffffffffffffffffffffffffffffffffffffff\n      and\n      mul\n      or\n      swap1\n      sstore\n      pop\n        /* \"Dcoffer/ERC721A/test.sol\":20083:20090  tokenId */\n      dup2\n        /* \"Dcoffer/ERC721A/test.sol\":20079:20081  to */\n      dup4\n        /* \"Dcoffer/ERC721A/test.sol\":20063:20091  Approval(owner, to, tokenId) */\n      0xffffffffffffffffffffffffffffffffffffffff\n      and\n        /* \"Dcoffer/ERC721A/test.sol\":20072:20077  owner */\n      dup3\n        /* \"Dcoffer/ERC721A/test.sol\":20063:20091  Approval(owner, to, tokenId) */\n      0xffffffffffffffffffffffffffffffffffffffff\n      and\n      0x8c5be1e5ebec7d5bd14f71427d1e84f3dd0314c0f7b2291e5b200ac8c7c3b925\n      mload(0x40)\n      mload(0x40)\n      dup1\n      swap2\n      sub\n      swap1\n      log4\n        /* \"Dcoffer/ERC721A/test.sol\":19903:20099  function _approve(... */\n      pop\n      pop\n      pop\n      jump\t// out\n        /* \"Dcoffer/ERC721A/test.sol\":4162:4254  function _startTokenId() internal view virtual returns (uint256) {... */\n    tag_148:\n        /* \"Dcoffer/ERC721A/test.sol\":4218:4225  uint256 */\n      0x00\n        /* \"Dcoffer/ERC721A/test.sol\":4162:4254  function _startTokenId() internal view virtual returns (uint256) {... */\n      swap1\n      jump\t// out\n        /* \"@openzeppelin/contracts/utils/math/SafeMath.sol\":3122:3218  function sub(uint256 a, uint256 b) internal pure returns (uint256) {... */\n    tag_152:\n        /* \"@openzeppelin/contracts/utils/math/SafeMath.sol\":3180:3187  uint256 */\n      0x00\n        /* \"@openzeppelin/contracts/utils/math/SafeMath.sol\":3210:3211  b */\n      dup2\n        /* \"@openzeppelin/contracts/utils/math/SafeMath.sol\":3206:3207  a */\n      dup4\n        /* \"@openzeppelin/contracts/utils/math/SafeMath.sol\":3206:3211  a - b */\n      tag_228\n      swap2\n      swap1\n      tag_229\n      jump\t// in\n    tag_228:\n        /* \"@openzeppelin/contracts/utils/math/SafeMath.sol\":3199:3211  return a - b */\n      swap1\n      pop\n        /* \"@openzeppelin/contracts/utils/math/SafeMath.sol\":3122:3218  function sub(uint256 a, uint256 b) internal pure returns (uint256) {... */\n      swap3\n      swap2\n      pop\n      pop\n      jump\t// out\n        /* \"@openzeppelin/contracts/utils/math/SafeMath.sol\":2755:2851  function add(uint256 a, uint256 b) internal pure returns (uint256) {... */\n    tag_153:\n        /* \"@openzeppelin/contracts/utils/math/SafeMath.sol\":2813:2820  uint256 */\n      0x00\n        /* \"@openzeppelin/contracts/utils/math/SafeMath.sol\":2843:2844  b */\n      dup2\n        /* \"@openzeppelin/contracts/utils/math/SafeMath.sol\":2839:2840  a */\n      dup4\n        /* \"@openzeppelin/contracts/utils/math/SafeMath.sol\":2839:2844  a + b */\n      tag_231\n      swap2\n      swap1\n      tag_232\n      jump\t// in\n    tag_231:\n        /* \"@openzeppelin/contracts/utils/math/SafeMath.sol\":2832:2844  return a + b */\n      swap1\n      pop\n        /* \"@openzeppelin/contracts/utils/math/SafeMath.sol\":2755:2851  function add(uint256 a, uint256 b) internal pure returns (uint256) {... */\n      swap3\n      swap2\n      pop\n      pop\n      jump\t// out\n        /* \"Dcoffer/ERC721A/test.sol\":14743:16937  function _transfer(... */\n    tag_157:\n        /* \"Dcoffer/ERC721A/test.sol\":14858:14880  updateBlockScore(from) */\n      tag_234\n        /* \"Dcoffer/ERC721A/test.sol\":14875:14879  from */\n      dup4\n        /* \"Dcoffer/ERC721A/test.sol\":14858:14874  updateBlockScore */\n      tag_235\n        /* \"Dcoffer/ERC721A/test.sol\":14858:14880  updateBlockScore(from) */\n      jump\t// in\n    tag_234:\n        /* \"Dcoffer/ERC721A/test.sol\":14891:14911  updateBlockScore(to) */\n      tag_236\n        /* \"Dcoffer/ERC721A/test.sol\":14908:14910  to */\n      dup3\n        /* \"Dcoffer/ERC721A/test.sol\":14891:14907  updateBlockScore */\n      tag_235\n        /* \"Dcoffer/ERC721A/test.sol\":14891:14911  updateBlockScore(to) */\n      jump\t// in\n    tag_236:\n        /* \"Dcoffer/ERC721A/test.sol\":14922:14957  TokenOwnership memory prevOwnership */\n      0x00\n        /* \"Dcoffer/ERC721A/test.sol\":14960:14981  _ownershipOf(tokenId) */\n      tag_237\n        /* \"Dcoffer/ERC721A/test.sol\":14973:14980  tokenId */\n      dup3\n        /* \"Dcoffer/ERC721A/test.sol\":14960:14972  _ownershipOf */\n      tag_168\n        /* \"Dcoffer/ERC721A/test.sol\":14960:14981  _ownershipOf(tokenId) */\n      jump\t// in\n    tag_237:\n        /* \"Dcoffer/ERC721A/test.sol\":14922:14981  TokenOwnership memory prevOwnership = _ownershipOf(tokenId) */\n      swap1\n      pop\n        /* \"Dcoffer/ERC721A/test.sol\":15020:15024  from */\n      dup4\n        /* \"Dcoffer/ERC721A/test.sol\":14998:15024  prevOwnership.addr != from */\n      0xffffffffffffffffffffffffffffffffffffffff\n      and\n        /* \"Dcoffer/ERC721A/test.sol\":14998:15011  prevOwnership */\n      dup2\n        /* \"Dcoffer/ERC721A/test.sol\":14998:15016  prevOwnership.addr */\n      0x00\n      add\n      mload\n        /* \"Dcoffer/ERC721A/test.sol\":14998:15024  prevOwnership.addr != from */\n      0xffffffffffffffffffffffffffffffffffffffff\n      and\n      eq\n        /* \"Dcoffer/ERC721A/test.sol\":14994:15061  if (prevOwnership.addr != from) revert TransferFromIncorrectOwner() */\n      tag_238\n      jumpi\n        /* \"Dcoffer/ERC721A/test.sol\":15033:15061  TransferFromIncorrectOwner() */\n      mload(0x40)\n      0xa114810000000000000000000000000000000000000000000000000000000000\n      dup2\n      mstore\n      0x04\n      add\n      mload(0x40)\n      dup1\n      swap2\n      sub\n      swap1\n      revert\n        /* \"Dcoffer/ERC721A/test.sol\":14994:15061  if (prevOwnership.addr != from) revert TransferFromIncorrectOwner() */\n    tag_238:\n        /* \"Dcoffer/ERC721A/test.sol\":15074:15096  bool isApprovedOrOwner */\n      0x00\n        /* \"Dcoffer/ERC721A/test.sol\":15116:15120  from */\n      dup5\n        /* \"Dcoffer/ERC721A/test.sol\":15100:15120  _msgSender() == from */\n      0xffffffffffffffffffffffffffffffffffffffff\n      and\n        /* \"Dcoffer/ERC721A/test.sol\":15100:15112  _msgSender() */\n      tag_239\n        /* \"Dcoffer/ERC721A/test.sol\":15100:15110  _msgSender */\n      tag_139\n        /* \"Dcoffer/ERC721A/test.sol\":15100:15112  _msgSender() */\n      jump\t// in\n    tag_239:\n        /* \"Dcoffer/ERC721A/test.sol\":15100:15120  _msgSender() == from */\n      0xffffffffffffffffffffffffffffffffffffffff\n      and\n      eq\n        /* \"Dcoffer/ERC721A/test.sol\":15100:15173  _msgSender() == from ||... */\n      dup1\n      tag_240\n      jumpi\n      pop\n        /* \"Dcoffer/ERC721A/test.sol\":15137:15173  isApprovedForAll(from, _msgSender()) */\n      tag_241\n        /* \"Dcoffer/ERC721A/test.sol\":15154:15158  from */\n      dup6\n        /* \"Dcoffer/ERC721A/test.sol\":15160:15172  _msgSender() */\n      tag_242\n        /* \"Dcoffer/ERC721A/test.sol\":15160:15170  _msgSender */\n      tag_139\n        /* \"Dcoffer/ERC721A/test.sol\":15160:15172  _msgSender() */\n      jump\t// in\n    tag_242:\n        /* \"Dcoffer/ERC721A/test.sol\":15137:15153  isApprovedForAll */\n      tag_113\n        /* \"Dcoffer/ERC721A/test.sol\":15137:15173  isApprovedForAll(from, _msgSender()) */\n      jump\t// in\n    tag_241:\n        /* \"Dcoffer/ERC721A/test.sol\":15100:15173  _msgSender() == from ||... */\n    tag_240:\n        /* \"Dcoffer/ERC721A/test.sol\":15100:15226  _msgSender() == from ||... */\n      dup1\n      tag_243\n      jumpi\n      pop\n        /* \"Dcoffer/ERC721A/test.sol\":15214:15226  _msgSender() */\n      tag_244\n        /* \"Dcoffer/ERC721A/test.sol\":15214:15224  _msgSender */\n      tag_139\n        /* \"Dcoffer/ERC721A/test.sol\":15214:15226  _msgSender() */\n      jump\t// in\n    tag_244:\n        /* \"Dcoffer/ERC721A/test.sol\":15190:15226  getApproved(tokenId) == _msgSender() */\n      0xffffffffffffffffffffffffffffffffffffffff\n      and\n        /* \"Dcoffer/ERC721A/test.sol\":15190:15210  getApproved(tokenId) */\n      tag_245\n        /* \"Dcoffer/ERC721A/test.sol\":15202:15209  tokenId */\n      dup5\n        /* \"Dcoffer/ERC721A/test.sol\":15190:15201  getApproved */\n      tag_42\n        /* \"Dcoffer/ERC721A/test.sol\":15190:15210  getApproved(tokenId) */\n      jump\t// in\n    tag_245:\n        /* \"Dcoffer/ERC721A/test.sol\":15190:15226  getApproved(tokenId) == _msgSender() */\n      0xffffffffffffffffffffffffffffffffffffffff\n      and\n      eq\n        /* \"Dcoffer/ERC721A/test.sol\":15100:15226  _msgSender() == from ||... */\n    tag_243:\n        /* \"Dcoffer/ERC721A/test.sol\":15074:15227  bool isApprovedOrOwner = (_msgSender() == from ||... */\n      swap1\n      pop\n        /* \"Dcoffer/ERC721A/test.sol\":15245:15262  isApprovedOrOwner */\n      dup1\n        /* \"Dcoffer/ERC721A/test.sol\":15240:15306  if (!isApprovedOrOwner) revert TransferCallerNotOwnerNorApproved() */\n      tag_246\n      jumpi\n        /* \"Dcoffer/ERC721A/test.sol\":15271:15306  TransferCallerNotOwnerNorApproved() */\n      mload(0x40)\n      0x59c896be00000000000000000000000000000000000000000000000000000000\n      dup2\n      mstore\n      0x04\n      add\n      mload(0x40)\n      dup1\n      swap2\n      sub\n      swap1\n      revert\n        /* \"Dcoffer/ERC721A/test.sol\":15240:15306  if (!isApprovedOrOwner) revert TransferCallerNotOwnerNorApproved() */\n    tag_246:\n        /* \"Dcoffer/ERC721A/test.sol\":15335:15336  0 */\n      0x00\n        /* \"Dcoffer/ERC721A/test.sol\":15321:15337  to == address(0) */\n      0xffffffffffffffffffffffffffffffffffffffff\n      and\n        /* \"Dcoffer/ERC721A/test.sol\":15321:15323  to */\n      dup5\n        /* \"Dcoffer/ERC721A/test.sol\":15321:15337  to == address(0) */\n      0xffffffffffffffffffffffffffffffffffffffff\n      and\n      sub\n        /* \"Dcoffer/ERC721A/test.sol\":15317:15369  if (to == address(0)) revert TransferToZeroAddress() */\n      tag_247\n      jumpi\n        /* \"Dcoffer/ERC721A/test.sol\":15346:15369  TransferToZeroAddress() */\n      mload(0x40)\n      0xea553b3400000000000000000000000000000000000000000000000000000000\n      dup2\n      mstore\n      0x04\n      add\n      mload(0x40)\n      dup1\n      swap2\n      sub\n      swap1\n      revert\n        /* \"Dcoffer/ERC721A/test.sol\":15317:15369  if (to == address(0)) revert TransferToZeroAddress() */\n    tag_247:\n        /* \"Dcoffer/ERC721A/test.sol\":15382:15425  _beforeTokenTransfers(from, to, tokenId, 1) */\n      tag_248\n        /* \"Dcoffer/ERC721A/test.sol\":15404:15408  from */\n      dup6\n        /* \"Dcoffer/ERC721A/test.sol\":15410:15412  to */\n      dup6\n        /* \"Dcoffer/ERC721A/test.sol\":15414:15421  tokenId */\n      dup6\n        /* \"Dcoffer/ERC721A/test.sol\":15423:15424  1 */\n      0x01\n        /* \"Dcoffer/ERC721A/test.sol\":15382:15403  _beforeTokenTransfers */\n      tag_249\n        /* \"Dcoffer/ERC721A/test.sol\":15382:15425  _beforeTokenTransfers(from, to, tokenId, 1) */\n      jump\t// in\n    tag_248:\n        /* \"Dcoffer/ERC721A/test.sol\":15490:15525  _approve(address(0), tokenId, from) */\n      tag_250\n        /* \"Dcoffer/ERC721A/test.sol\":15507:15508  0 */\n      0x00\n        /* \"Dcoffer/ERC721A/test.sol\":15511:15518  tokenId */\n      dup5\n        /* \"Dcoffer/ERC721A/test.sol\":15520:15524  from */\n      dup8\n        /* \"Dcoffer/ERC721A/test.sol\":15490:15498  _approve */\n      tag_145\n        /* \"Dcoffer/ERC721A/test.sol\":15490:15525  _approve(address(0), tokenId, from) */\n      jump\t// in\n    tag_250:\n        /* \"Dcoffer/ERC721A/test.sol\":15851:15852  1 */\n      0x01\n        /* \"Dcoffer/ERC721A/test.sol\":15821:15833  _addressData */\n      0x0a\n        /* \"Dcoffer/ERC721A/test.sol\":15821:15839  _addressData[from] */\n      0x00\n        /* \"Dcoffer/ERC721A/test.sol\":15834:15838  from */\n      dup8\n        /* \"Dcoffer/ERC721A/test.sol\":15821:15839  _addressData[from] */\n      0xffffffffffffffffffffffffffffffffffffffff\n      and\n      0xffffffffffffffffffffffffffffffffffffffff\n      and\n      dup2\n      mstore\n      0x20\n      add\n      swap1\n      dup2\n      mstore\n      0x20\n      add\n      0x00\n      keccak256\n        /* \"Dcoffer/ERC721A/test.sol\":15821:15847  _addressData[from].balance */\n      0x00\n      add\n      0x00\n        /* \"Dcoffer/ERC721A/test.sol\":15821:15852  _addressData[from].balance -= 1 */\n      dup3\n      dup3\n      dup3\n      swap1\n      sload\n      swap1\n      0x0100\n      exp\n      swap1\n      div\n      0xffffffffffffffff\n      and\n      sub\n      swap3\n      pop\n      0x0100\n      exp\n      dup2\n      sload\n      dup2\n      0xffffffffffffffff\n      mul\n      not\n      and\n      swap1\n      dup4\n      0xffffffffffffffff\n      and\n      mul\n      or\n      swap1\n      sstore\n      pop\n        /* \"Dcoffer/ERC721A/test.sol\":15895:15896  1 */\n      0x01\n        /* \"Dcoffer/ERC721A/test.sol\":15867:15879  _addressData */\n      0x0a\n        /* \"Dcoffer/ERC721A/test.sol\":15867:15883  _addressData[to] */\n      0x00\n        /* \"Dcoffer/ERC721A/test.sol\":15880:15882  to */\n      dup7\n        /* \"Dcoffer/ERC721A/test.sol\":15867:15883  _addressData[to] */\n      0xffffffffffffffffffffffffffffffffffffffff\n      and\n      0xffffffffffffffffffffffffffffffffffffffff\n      and\n      dup2\n      mstore\n      0x20\n      add\n      swap1\n      dup2\n      mstore\n      0x20\n      add\n      0x00\n      keccak256\n        /* \"Dcoffer/ERC721A/test.sol\":15867:15891  _addressData[to].balance */\n      0x00\n      add\n      0x00\n        /* \"Dcoffer/ERC721A/test.sol\":15867:15896  _addressData[to].balance += 1 */\n      dup3\n      dup3\n      dup3\n      swap1\n      sload\n      swap1\n      0x0100\n      exp\n      swap1\n      div\n      0xffffffffffffffff\n      and\n      add\n      swap3\n      pop\n      0x0100\n      exp\n      dup2\n      sload\n      dup2\n      0xffffffffffffffff\n      mul\n      not\n      and\n      swap1\n      dup4\n      0xffffffffffffffff\n      and\n      mul\n      or\n      swap1\n      sstore\n      pop\n        /* \"Dcoffer/ERC721A/test.sol\":15913:15944  TokenOwnership storage currSlot */\n      0x00\n        /* \"Dcoffer/ERC721A/test.sol\":15947:15958  _ownerships */\n      0x09\n        /* \"Dcoffer/ERC721A/test.sol\":15947:15967  _ownerships[tokenId] */\n      0x00\n        /* \"Dcoffer/ERC721A/test.sol\":15959:15966  tokenId */\n      dup6\n        /* \"Dcoffer/ERC721A/test.sol\":15947:15967  _ownerships[tokenId] */\n      dup2\n      mstore\n      0x20\n      add\n      swap1\n      dup2\n      mstore\n      0x20\n      add\n      0x00\n      keccak256\n        /* \"Dcoffer/ERC721A/test.sol\":15913:15967  TokenOwnership storage currSlot = _ownerships[tokenId] */\n      swap1\n      pop\n        /* \"Dcoffer/ERC721A/test.sol\":15998:16000  to */\n      dup5\n        /* \"Dcoffer/ERC721A/test.sol\":15982:15990  currSlot */\n      dup2\n        /* \"Dcoffer/ERC721A/test.sol\":15982:15995  currSlot.addr */\n      0x00\n      add\n      0x00\n        /* \"Dcoffer/ERC721A/test.sol\":15982:16000  currSlot.addr = to */\n      0x0100\n      exp\n      dup2\n      sload\n      dup2\n      0xffffffffffffffffffffffffffffffffffffffff\n      mul\n      not\n      and\n      swap1\n      dup4\n      0xffffffffffffffffffffffffffffffffffffffff\n      and\n      mul\n      or\n      swap1\n      sstore\n      pop\n        /* \"Dcoffer/ERC721A/test.sol\":16048:16063  block.timestamp */\n      timestamp\n        /* \"Dcoffer/ERC721A/test.sol\":16015:16023  currSlot */\n      dup2\n        /* \"Dcoffer/ERC721A/test.sol\":16015:16038  currSlot.startTimestamp */\n      0x00\n      add\n      0x14\n        /* \"Dcoffer/ERC721A/test.sol\":16015:16064  currSlot.startTimestamp = uint64(block.timestamp) */\n      0x0100\n      exp\n      dup2\n      sload\n      dup2\n      0xffffffffffffffff\n      mul\n      not\n      and\n      swap1\n      dup4\n      0xffffffffffffffff\n      and\n      mul\n      or\n      swap1\n      sstore\n      pop\n        /* \"Dcoffer/ERC721A/test.sol\":16316:16335  uint256 nextTokenId */\n      0x00\n        /* \"Dcoffer/ERC721A/test.sol\":16348:16349  1 */\n      0x01\n        /* \"Dcoffer/ERC721A/test.sol\":16338:16345  tokenId */\n      dup6\n        /* \"Dcoffer/ERC721A/test.sol\":16338:16349  tokenId + 1 */\n      add\n        /* \"Dcoffer/ERC721A/test.sol\":16316:16349  uint256 nextTokenId = tokenId + 1 */\n      swap1\n      pop\n        /* \"Dcoffer/ERC721A/test.sol\":16364:16395  TokenOwnership storage nextSlot */\n      0x00\n        /* \"Dcoffer/ERC721A/test.sol\":16398:16409  _ownerships */\n      0x09\n        /* \"Dcoffer/ERC721A/test.sol\":16398:16422  _ownerships[nextTokenId] */\n      0x00\n        /* \"Dcoffer/ERC721A/test.sol\":16410:16421  nextTokenId */\n      dup4\n        /* \"Dcoffer/ERC721A/test.sol\":16398:16422  _ownerships[nextTokenId] */\n      dup2\n      mstore\n      0x20\n      add\n      swap1\n      dup2\n      mstore\n      0x20\n      add\n      0x00\n      keccak256\n        /* \"Dcoffer/ERC721A/test.sol\":16364:16422  TokenOwnership storage nextSlot = _ownerships[nextTokenId] */\n      swap1\n      pop\n        /* \"Dcoffer/ERC721A/test.sol\":16466:16467  0 */\n      0x00\n        /* \"Dcoffer/ERC721A/test.sol\":16441:16468  nextSlot.addr == address(0) */\n      0xffffffffffffffffffffffffffffffffffffffff\n      and\n        /* \"Dcoffer/ERC721A/test.sol\":16441:16449  nextSlot */\n      dup2\n        /* \"Dcoffer/ERC721A/test.sol\":16441:16454  nextSlot.addr */\n      0x00\n      add\n      0x00\n      swap1\n      sload\n      swap1\n      0x0100\n      exp\n      swap1\n      div\n      0xffffffffffffffffffffffffffffffffffffffff\n      and\n        /* \"Dcoffer/ERC721A/test.sol\":16441:16468  nextSlot.addr == address(0) */\n      0xffffffffffffffffffffffffffffffffffffffff\n      and\n      sub\n        /* \"Dcoffer/ERC721A/test.sol\":16437:16821  if (nextSlot.addr == address(0)) {... */\n      tag_251\n      jumpi\n        /* \"Dcoffer/ERC721A/test.sol\":16651:16664  _currentIndex */\n      sload(0x04)\n        /* \"Dcoffer/ERC721A/test.sol\":16636:16647  nextTokenId */\n      dup3\n        /* \"Dcoffer/ERC721A/test.sol\":16636:16664  nextTokenId != _currentIndex */\n      eq\n        /* \"Dcoffer/ERC721A/test.sol\":16632:16806  if (nextTokenId != _currentIndex) {... */\n      tag_252\n      jumpi\n        /* \"Dcoffer/ERC721A/test.sol\":16705:16709  from */\n      dup8\n        /* \"Dcoffer/ERC721A/test.sol\":16689:16697  nextSlot */\n      dup2\n        /* \"Dcoffer/ERC721A/test.sol\":16689:16702  nextSlot.addr */\n      0x00\n      add\n      0x00\n        /* \"Dcoffer/ERC721A/test.sol\":16689:16709  nextSlot.addr = from */\n      0x0100\n      exp\n      dup2\n      sload\n      dup2\n      0xffffffffffffffffffffffffffffffffffffffff\n      mul\n      not\n      and\n      swap1\n      dup4\n      0xffffffffffffffffffffffffffffffffffffffff\n      and\n      mul\n      or\n      swap1\n      sstore\n      pop\n        /* \"Dcoffer/ERC721A/test.sol\":16758:16771  prevOwnership */\n      dup5\n        /* \"Dcoffer/ERC721A/test.sol\":16758:16786  prevOwnership.startTimestamp */\n      0x20\n      add\n      mload\n        /* \"Dcoffer/ERC721A/test.sol\":16732:16740  nextSlot */\n      dup2\n        /* \"Dcoffer/ERC721A/test.sol\":16732:16755  nextSlot.startTimestamp */\n      0x00\n      add\n      0x14\n        /* \"Dcoffer/ERC721A/test.sol\":16732:16786  nextSlot.startTimestamp = prevOwnership.startTimestamp */\n      0x0100\n      exp\n      dup2\n      sload\n      dup2\n      0xffffffffffffffff\n      mul\n      not\n      and\n      swap1\n      dup4\n      0xffffffffffffffff\n      and\n      mul\n      or\n      swap1\n      sstore\n      pop\n        /* \"Dcoffer/ERC721A/test.sol\":16632:16806  if (nextTokenId != _currentIndex) {... */\n    tag_252:\n        /* \"Dcoffer/ERC721A/test.sol\":16437:16821  if (nextSlot.addr == address(0)) {... */\n    tag_251:\n        /* \"Dcoffer/ERC721A/test.sol\":15796:16832  unchecked {... */\n      pop\n      pop\n      pop\n        /* \"Dcoffer/ERC721A/test.sol\":16868:16875  tokenId */\n      dup3\n        /* \"Dcoffer/ERC721A/test.sol\":16864:16866  to */\n      dup5\n        /* \"Dcoffer/ERC721A/test.sol\":16849:16876  Transfer(from, to, tokenId) */\n      0xffffffffffffffffffffffffffffffffffffffff\n      and\n        /* \"Dcoffer/ERC721A/test.sol\":16858:16862  from */\n      dup7\n        /* \"Dcoffer/ERC721A/test.sol\":16849:16876  Transfer(from, to, tokenId) */\n      0xffffffffffffffffffffffffffffffffffffffff\n      and\n      0xddf252ad1be2c89b69c2b068fc378daa952ba7f163c4a11628f55a4df523b3ef\n      mload(0x40)\n      mload(0x40)\n      dup1\n      swap2\n      sub\n      swap1\n      log4\n        /* \"Dcoffer/ERC721A/test.sol\":16887:16929  _afterTokenTransfers(from, to, tokenId, 1) */\n      tag_253\n        /* \"Dcoffer/ERC721A/test.sol\":16908:16912  from */\n      dup6\n        /* \"Dcoffer/ERC721A/test.sol\":16914:16916  to */\n      dup6\n        /* \"Dcoffer/ERC721A/test.sol\":16918:16925  tokenId */\n      dup6\n        /* \"Dcoffer/ERC721A/test.sol\":16927:16928  1 */\n      0x01\n        /* \"Dcoffer/ERC721A/test.sol\":16887:16907  _afterTokenTransfers */\n      tag_254\n        /* \"Dcoffer/ERC721A/test.sol\":16887:16929  _afterTokenTransfers(from, to, tokenId, 1) */\n      jump\t// in\n    tag_253:\n        /* \"Dcoffer/ERC721A/test.sol\":14847:16937  {... */\n      pop\n      pop\n        /* \"Dcoffer/ERC721A/test.sol\":14743:16937  function _transfer(... */\n      pop\n      pop\n      pop\n      jump\t// out\n        /* \"@openzeppelin/contracts/utils/math/SafeMath.sol\":3465:3561  function mul(uint256 a, uint256 b) internal pure returns (uint256) {... */\n    tag_162:\n        /* \"@openzeppelin/contracts/utils/math/SafeMath.sol\":3523:3530  uint256 */\n      0x00\n        /* \"@openzeppelin/contracts/utils/math/SafeMath.sol\":3553:3554  b */\n      dup2\n        /* \"@openzeppelin/contracts/utils/math/SafeMath.sol\":3549:3550  a */\n      dup4\n        /* \"@openzeppelin/contracts/utils/math/SafeMath.sol\":3549:3554  a * b */\n      tag_256\n      swap2\n      swap1\n      tag_257\n      jump\t// in\n    tag_256:\n        /* \"@openzeppelin/contracts/utils/math/SafeMath.sol\":3542:3554  return a * b */\n      swap1\n      pop\n        /* \"@openzeppelin/contracts/utils/math/SafeMath.sol\":3465:3561  function mul(uint256 a, uint256 b) internal pure returns (uint256) {... */\n      swap3\n      swap2\n      pop\n      pop\n      jump\t// out\n        /* \"Dcoffer/ERC721A/test.sol\":7081:8192  function _ownershipOf(uint256 tokenId) internal view returns (TokenOwnership memory) {... */\n    tag_168:\n        /* \"Dcoffer/ERC721A/test.sol\":7143:7164  TokenOwnership memory */\n      tag_258\n      tag_259\n      jump\t// in\n    tag_258:\n        /* \"Dcoffer/ERC721A/test.sol\":7177:7189  uint256 curr */\n      0x00\n        /* \"Dcoffer/ERC721A/test.sol\":7192:7199  tokenId */\n      dup3\n        /* \"Dcoffer/ERC721A/test.sol\":7177:7199  uint256 curr = tokenId */\n      swap1\n      pop\n        /* \"Dcoffer/ERC721A/test.sol\":7260:7264  curr */\n      dup1\n        /* \"Dcoffer/ERC721A/test.sol\":7241:7256  _startTokenId() */\n      tag_261\n        /* \"Dcoffer/ERC721A/test.sol\":7241:7254  _startTokenId */\n      tag_148\n        /* \"Dcoffer/ERC721A/test.sol\":7241:7256  _startTokenId() */\n      jump\t// in\n    tag_261:\n        /* \"Dcoffer/ERC721A/test.sol\":7241:7264  _startTokenId() <= curr */\n      gt\n        /* \"Dcoffer/ERC721A/test.sol\":7237:8125  if (_startTokenId() <= curr) if (curr < _currentIndex) {... */\n      tag_262\n      jumpi\n        /* \"Dcoffer/ERC721A/test.sol\":7277:7290  _currentIndex */\n      sload(0x04)\n        /* \"Dcoffer/ERC721A/test.sol\":7270:7274  curr */\n      dup2\n        /* \"Dcoffer/ERC721A/test.sol\":7270:7290  curr < _currentIndex */\n      lt\n        /* \"Dcoffer/ERC721A/test.sol\":7266:8125  if (curr < _currentIndex) {... */\n      iszero\n      tag_263\n      jumpi\n        /* \"Dcoffer/ERC721A/test.sol\":7311:7342  TokenOwnership memory ownership */\n      0x00\n        /* \"Dcoffer/ERC721A/test.sol\":7345:7356  _ownerships */\n      0x09\n        /* \"Dcoffer/ERC721A/test.sol\":7345:7362  _ownerships[curr] */\n      0x00\n        /* \"Dcoffer/ERC721A/test.sol\":7357:7361  curr */\n      dup4\n        /* \"Dcoffer/ERC721A/test.sol\":7345:7362  _ownerships[curr] */\n      dup2\n      mstore\n      0x20\n      add\n      swap1\n      dup2\n      mstore\n      0x20\n      add\n      0x00\n      keccak256\n        /* \"Dcoffer/ERC721A/test.sol\":7311:7362  TokenOwnership memory ownership = _ownerships[curr] */\n      mload(0x40)\n      dup1\n      0x60\n      add\n      0x40\n      mstore\n      swap1\n      dup2\n      0x00\n      dup3\n      add\n      0x00\n      swap1\n      sload\n      swap1\n      0x0100\n      exp\n      swap1\n      div\n      0xffffffffffffffffffffffffffffffffffffffff\n      and\n      0xffffffffffffffffffffffffffffffffffffffff\n      and\n      0xffffffffffffffffffffffffffffffffffffffff\n      and\n      dup2\n      mstore\n      0x20\n      add\n      0x00\n      dup3\n      add\n      0x14\n      swap1\n      sload\n      swap1\n      0x0100\n      exp\n      swap1\n      div\n      0xffffffffffffffff\n      and\n      0xffffffffffffffff\n      and\n      0xffffffffffffffff\n      and\n      dup2\n      mstore\n      0x20\n      add\n      0x00\n      dup3\n      add\n      0x1c\n      swap1\n      sload\n      swap1\n      0x0100\n      exp\n      swap1\n      div\n      0xff\n      and\n      iszero\n      iszero\n      iszero\n      iszero\n      dup2\n      mstore\n      pop\n      pop\n      swap1\n      pop\n        /* \"Dcoffer/ERC721A/test.sol\":7386:7395  ownership */\n      dup1\n        /* \"Dcoffer/ERC721A/test.sol\":7386:7402  ownership.burned */\n      0x40\n      add\n      mload\n        /* \"Dcoffer/ERC721A/test.sol\":7381:8110  if (!ownership.burned) {... */\n      tag_264\n      jumpi\n        /* \"Dcoffer/ERC721A/test.sol\":7457:7458  0 */\n      0x00\n        /* \"Dcoffer/ERC721A/test.sol\":7431:7459  ownership.addr != address(0) */\n      0xffffffffffffffffffffffffffffffffffffffff\n      and\n        /* \"Dcoffer/ERC721A/test.sol\":7431:7440  ownership */\n      dup2\n        /* \"Dcoffer/ERC721A/test.sol\":7431:7445  ownership.addr */\n      0x00\n      add\n      mload\n        /* \"Dcoffer/ERC721A/test.sol\":7431:7459  ownership.addr != address(0) */\n      0xffffffffffffffffffffffffffffffffffffffff\n      and\n      eq\n        /* \"Dcoffer/ERC721A/test.sol\":7427:7528  if (ownership.addr != address(0)) {... */\n      tag_265\n      jumpi\n        /* \"Dcoffer/ERC721A/test.sol\":7495:7504  ownership */\n      dup1\n        /* \"Dcoffer/ERC721A/test.sol\":7488:7504  return ownership */\n      swap3\n      pop\n      pop\n      pop\n      jump(tag_260)\n        /* \"Dcoffer/ERC721A/test.sol\":7427:7528  if (ownership.addr != address(0)) {... */\n    tag_265:\n        /* \"Dcoffer/ERC721A/test.sol\":7830:8091  while (true) {... */\n    tag_266:\n        /* \"Dcoffer/ERC721A/test.sol\":7837:7841  true */\n      0x01\n        /* \"Dcoffer/ERC721A/test.sol\":7830:8091  while (true) {... */\n      iszero\n      tag_267\n      jumpi\n        /* \"Dcoffer/ERC721A/test.sol\":7870:7876  curr-- */\n      dup2\n      dup1\n      0x01\n      swap1\n      sub\n      swap3\n      pop\n      pop\n        /* \"Dcoffer/ERC721A/test.sol\":7915:7926  _ownerships */\n      0x09\n        /* \"Dcoffer/ERC721A/test.sol\":7915:7932  _ownerships[curr] */\n      0x00\n        /* \"Dcoffer/ERC721A/test.sol\":7927:7931  curr */\n      dup4\n        /* \"Dcoffer/ERC721A/test.sol\":7915:7932  _ownerships[curr] */\n      dup2\n      mstore\n      0x20\n      add\n      swap1\n      dup2\n      mstore\n      0x20\n      add\n      0x00\n      keccak256\n        /* \"Dcoffer/ERC721A/test.sol\":7903:7932  ownership = _ownerships[curr] */\n      mload(0x40)\n      dup1\n      0x60\n      add\n      0x40\n      mstore\n      swap1\n      dup2\n      0x00\n      dup3\n      add\n      0x00\n      swap1\n      sload\n      swap1\n      0x0100\n      exp\n      swap1\n      div\n      0xffffffffffffffffffffffffffffffffffffffff\n      and\n      0xffffffffffffffffffffffffffffffffffffffff\n      and\n      0xffffffffffffffffffffffffffffffffffffffff\n      and\n      dup2\n      mstore\n      0x20\n      add\n      0x00\n      dup3\n      add\n      0x14\n      swap1\n      sload\n      swap1\n      0x0100\n      exp\n      swap1\n      div\n      0xffffffffffffffff\n      and\n      0xffffffffffffffff\n      and\n      0xffffffffffffffff\n      and\n      dup2\n      mstore\n      0x20\n      add\n      0x00\n      dup3\n      add\n      0x1c\n      swap1\n      sload\n      swap1\n      0x0100\n      exp\n      swap1\n      div\n      0xff\n      and\n      iszero\n      iszero\n      iszero\n      iszero\n      dup2\n      mstore\n      pop\n      pop\n      swap1\n      pop\n        /* \"Dcoffer/ERC721A/test.sol\":7989:7990  0 */\n      0x00\n        /* \"Dcoffer/ERC721A/test.sol\":7963:7991  ownership.addr != address(0) */\n      0xffffffffffffffffffffffffffffffffffffffff\n      and\n        /* \"Dcoffer/ERC721A/test.sol\":7963:7972  ownership */\n      dup2\n        /* \"Dcoffer/ERC721A/test.sol\":7963:7977  ownership.addr */\n      0x00\n      add\n      mload\n        /* \"Dcoffer/ERC721A/test.sol\":7963:7991  ownership.addr != address(0) */\n      0xffffffffffffffffffffffffffffffffffffffff\n      and\n      eq\n        /* \"Dcoffer/ERC721A/test.sol\":7959:8068  if (ownership.addr != address(0)) {... */\n      tag_268\n      jumpi\n        /* \"Dcoffer/ERC721A/test.sol\":8031:8040  ownership */\n      dup1\n        /* \"Dcoffer/ERC721A/test.sol\":8024:8040  return ownership */\n      swap3\n      pop\n      pop\n      pop\n      jump(tag_260)\n        /* \"Dcoffer/ERC721A/test.sol\":7959:8068  if (ownership.addr != address(0)) {... */\n    tag_268:\n        /* \"Dcoffer/ERC721A/test.sol\":7830:8091  while (true) {... */\n      jump(tag_266)\n    tag_267:\n        /* \"Dcoffer/ERC721A/test.sol\":7381:8110  if (!ownership.burned) {... */\n    tag_264:\n        /* \"Dcoffer/ERC721A/test.sol\":7292:8125  {... */\n      pop\n        /* \"Dcoffer/ERC721A/test.sol\":7266:8125  if (curr < _currentIndex) {... */\n    tag_263:\n        /* \"Dcoffer/ERC721A/test.sol\":7237:8125  if (_startTokenId() <= curr) if (curr < _currentIndex) {... */\n    tag_262:\n        /* \"Dcoffer/ERC721A/test.sol\":8153:8184  OwnerQueryForNonexistentToken() */\n      mload(0x40)\n      0xdf2d9b4200000000000000000000000000000000000000000000000000000000\n      dup2\n      mstore\n      0x04\n      add\n      mload(0x40)\n      dup1\n      swap2\n      sub\n      swap1\n      revert\n        /* \"Dcoffer/ERC721A/test.sol\":7081:8192  function _ownershipOf(uint256 tokenId) internal view returns (TokenOwnership memory) {... */\n    tag_260:\n      swap2\n      swap1\n      pop\n      jump\t// out\n        /* \"@openzeppelin/contracts/utils/Address.sol\":1175:1495  function isContract(address account) internal view returns (bool) {... */\n    tag_186:\n        /* \"@openzeppelin/contracts/utils/Address.sol\":1235:1239  bool */\n      0x00\n        /* \"@openzeppelin/contracts/utils/Address.sol\":1487:1488  0 */\n      dup1\n        /* \"@openzeppelin/contracts/utils/Address.sol\":1465:1472  account */\n      dup3\n        /* \"@openzeppelin/contracts/utils/Address.sol\":1465:1484  account.code.length */\n      0xffffffffffffffffffffffffffffffffffffffff\n      and\n      extcodesize\n        /* \"@openzeppelin/contracts/utils/Address.sol\":1465:1488  account.code.length > 0 */\n      gt\n        /* \"@openzeppelin/contracts/utils/Address.sol\":1458:1488  return account.code.length > 0 */\n      swap1\n      pop\n        /* \"@openzeppelin/contracts/utils/Address.sol\":1175:1495  function isContract(address account) internal view returns (bool) {... */\n      swap2\n      swap1\n      pop\n      jump\t// out\n        /* \"Dcoffer/ERC721A/test.sol\":20591:21258  function _checkContractOnERC721Received(... */\n    tag_189:\n        /* \"Dcoffer/ERC721A/test.sol\":20754:20758  bool */\n      0x00\n        /* \"Dcoffer/ERC721A/test.sol\":20791:20793  to */\n      dup4\n        /* \"Dcoffer/ERC721A/test.sol\":20775:20811  IERC721Receiver(to).onERC721Received */\n      0xffffffffffffffffffffffffffffffffffffffff\n      and\n      0x150b7a02\n        /* \"Dcoffer/ERC721A/test.sol\":20812:20824  _msgSender() */\n      tag_271\n        /* \"Dcoffer/ERC721A/test.sol\":20812:20822  _msgSender */\n      tag_139\n        /* \"Dcoffer/ERC721A/test.sol\":20812:20824  _msgSender() */\n      jump\t// in\n    tag_271:\n        /* \"Dcoffer/ERC721A/test.sol\":20826:20830  from */\n      dup8\n        /* \"Dcoffer/ERC721A/test.sol\":20832:20839  tokenId */\n      dup7\n        /* \"Dcoffer/ERC721A/test.sol\":20841:20846  _data */\n      dup7\n        /* \"Dcoffer/ERC721A/test.sol\":20775:20847  IERC721Receiver(to).onERC721Received(_msgSender(), from, tokenId, _data) */\n      mload(0x40)\n      dup6\n      0xffffffff\n      and\n      0xe0\n      shl\n      dup2\n      mstore\n      0x04\n      add\n      tag_272\n      swap5\n      swap4\n      swap3\n      swap2\n      swap1\n      tag_273\n      jump\t// in\n    tag_272:\n      0x20\n      mload(0x40)\n      dup1\n      dup4\n      sub\n      dup2\n      0x00\n      dup8\n      gas\n      call\n      swap3\n      pop\n      pop\n      pop\n      dup1\n      iszero\n      tag_274\n      jumpi\n      pop\n      mload(0x40)\n      returndatasize\n      not(0x1f)\n      0x1f\n      dup3\n      add\n      and\n      dup3\n      add\n      dup1\n      0x40\n      mstore\n      pop\n      dup2\n      add\n      swap1\n      tag_275\n      swap2\n      swap1\n      tag_276\n      jump\t// in\n    tag_275:\n      0x01\n    tag_274:\n        /* \"Dcoffer/ERC721A/test.sol\":20771:21251  try IERC721Receiver(to).onERC721Received(_msgSender(), from, tokenId, _data) returns (bytes4 retval) {... */\n      tag_277\n      jumpi\n      returndatasize\n      dup1\n      0x00\n      dup2\n      eq\n      tag_282\n      jumpi\n      mload(0x40)\n      swap2\n      pop\n      and(add(returndatasize, 0x3f), not(0x1f))\n      dup3\n      add\n      0x40\n      mstore\n      returndatasize\n      dup3\n      mstore\n      returndatasize\n      0x00\n      0x20\n      dup5\n      add\n      returndatacopy\n      jump(tag_281)\n    tag_282:\n      0x60\n      swap2\n      pop\n    tag_281:\n      pop\n        /* \"Dcoffer/ERC721A/test.sol\":21026:21027  0 */\n      0x00\n        /* \"Dcoffer/ERC721A/test.sol\":21009:21015  reason */\n      dup2\n        /* \"Dcoffer/ERC721A/test.sol\":21009:21022  reason.length */\n      mload\n        /* \"Dcoffer/ERC721A/test.sol\":21009:21027  reason.length == 0 */\n      sub\n        /* \"Dcoffer/ERC721A/test.sol\":21005:21240  if (reason.length == 0) {... */\n      tag_283\n      jumpi\n        /* \"Dcoffer/ERC721A/test.sol\":21055:21095  TransferToNonERC721ReceiverImplementer() */\n      mload(0x40)\n      0xd1a57ed600000000000000000000000000000000000000000000000000000000\n      dup2\n      mstore\n      0x04\n      add\n      mload(0x40)\n      dup1\n      swap2\n      sub\n      swap1\n      revert\n        /* \"Dcoffer/ERC721A/test.sol\":21005:21240  if (reason.length == 0) {... */\n    tag_283:\n        /* \"Dcoffer/ERC721A/test.sol\":21198:21204  reason */\n      dup1\n        /* \"Dcoffer/ERC721A/test.sol\":21192:21205  mload(reason) */\n      mload\n        /* \"Dcoffer/ERC721A/test.sol\":21183:21189  reason */\n      dup2\n        /* \"Dcoffer/ERC721A/test.sol\":21179:21181  32 */\n      0x20\n        /* \"Dcoffer/ERC721A/test.sol\":21175:21190  add(32, reason) */\n      add\n        /* \"Dcoffer/ERC721A/test.sol\":21168:21206  revert(add(32, reason), mload(reason)) */\n      revert\n        /* \"Dcoffer/ERC721A/test.sol\":20771:21251  try IERC721Receiver(to).onERC721Received(_msgSender(), from, tokenId, _data) returns (bytes4 retval) {... */\n    tag_277:\n        /* \"Dcoffer/ERC721A/test.sol\":20904:20949  IERC721Receiver(to).onERC721Received.selector */\n      shl(0xe0, 0x150b7a02)\n        /* \"Dcoffer/ERC721A/test.sol\":20894:20949  retval == IERC721Receiver(to).onERC721Received.selector */\n      not(0xffffffffffffffffffffffffffffffffffffffffffffffffffffffff)\n      and\n        /* \"Dcoffer/ERC721A/test.sol\":20894:20900  retval */\n      dup2\n        /* \"Dcoffer/ERC721A/test.sol\":20894:20949  retval == IERC721Receiver(to).onERC721Received.selector */\n      not(0xffffffffffffffffffffffffffffffffffffffffffffffffffffffff)\n      and\n      eq\n        /* \"Dcoffer/ERC721A/test.sol\":20887:20949  return retval == IERC721Receiver(to).onERC721Received.selector */\n      swap2\n      pop\n      pop\n        /* \"Dcoffer/ERC721A/test.sol\":20591:21258  function _checkContractOnERC721Received(... */\n      swap5\n      swap4\n      pop\n      pop\n      pop\n      pop\n      jump\t// out\n        /* \"@openzeppelin/contracts/utils/math/SafeMath.sol\":3850:3946  function div(uint256 a, uint256 b) internal pure returns (uint256) {... */\n    tag_195:\n        /* \"@openzeppelin/contracts/utils/math/SafeMath.sol\":3908:3915  uint256 */\n      0x00\n        /* \"@openzeppelin/contracts/utils/math/SafeMath.sol\":3938:3939  b */\n      dup2\n        /* \"@openzeppelin/contracts/utils/math/SafeMath.sol\":3934:3935  a */\n      dup4\n        /* \"@openzeppelin/contracts/utils/math/SafeMath.sol\":3934:3939  a / b */\n      tag_287\n      swap2\n      swap1\n      tag_288\n      jump\t// in\n    tag_287:\n        /* \"@openzeppelin/contracts/utils/math/SafeMath.sol\":3927:3939  return a / b */\n      swap1\n      pop\n        /* \"@openzeppelin/contracts/utils/math/SafeMath.sol\":3850:3946  function div(uint256 a, uint256 b) internal pure returns (uint256) {... */\n      swap3\n      swap2\n      pop\n      pop\n      jump\t// out\n        /* \"Dcoffer/ERC721A/test.sol\":9356:9541  function _baseURI() internal view virtual returns (string memory) {... */\n    tag_201:\n        /* \"Dcoffer/ERC721A/test.sol\":9407:9420  string memory */\n      0x60\n        /* \"Dcoffer/ERC721A/test.sol\":9433:9523  return 'https://gateway.pinata.cloud/ipfs/QmeyKnvXXMxAuWG5pt35Ez8QhJhR63RDVSwUfsjKayR42Z/' */\n      mload(0x40)\n      dup1\n      0x80\n      add\n      0x40\n      mstore\n      dup1\n      0x51\n      dup2\n      mstore\n      0x20\n      add\n      data_626642f6930f156f677ccaa99d1115840f2527d6f062eede1de4dda1bd081a2d\n      0x51\n      swap2\n      codecopy\n      swap1\n      pop\n        /* \"Dcoffer/ERC721A/test.sol\":9356:9541  function _baseURI() internal view virtual returns (string memory) {... */\n      swap1\n      jump\t// out\n        /* \"@openzeppelin/contracts/utils/Strings.sol\":392:1095  function toString(uint256 value) internal pure returns (string memory) {... */\n    tag_205:\n        /* \"@openzeppelin/contracts/utils/Strings.sol\":448:461  string memory */\n      0x60\n        /* \"@openzeppelin/contracts/utils/Strings.sol\":674:675  0 */\n      0x00\n        /* \"@openzeppelin/contracts/utils/Strings.sol\":665:670  value */\n      dup3\n        /* \"@openzeppelin/contracts/utils/Strings.sol\":665:675  value == 0 */\n      sub\n        /* \"@openzeppelin/contracts/utils/Strings.sol\":661:712  if (value == 0) {... */\n      tag_291\n      jumpi\n        /* \"@openzeppelin/contracts/utils/Strings.sol\":691:701  return \"0\" */\n      mload(0x40)\n      dup1\n      0x40\n      add\n      0x40\n      mstore\n      dup1\n      0x01\n      dup2\n      mstore\n      0x20\n      add\n      0x3000000000000000000000000000000000000000000000000000000000000000\n      dup2\n      mstore\n      pop\n      swap1\n      pop\n      jump(tag_290)\n        /* \"@openzeppelin/contracts/utils/Strings.sol\":661:712  if (value == 0) {... */\n    tag_291:\n        /* \"@openzeppelin/contracts/utils/Strings.sol\":721:733  uint256 temp */\n      0x00\n        /* \"@openzeppelin/contracts/utils/Strings.sol\":736:741  value */\n      dup3\n        /* \"@openzeppelin/contracts/utils/Strings.sol\":721:741  uint256 temp = value */\n      swap1\n      pop\n        /* \"@openzeppelin/contracts/utils/Strings.sol\":751:765  uint256 digits */\n      0x00\n        /* \"@openzeppelin/contracts/utils/Strings.sol\":775:850  while (temp != 0) {... */\n    tag_292:\n        /* \"@openzeppelin/contracts/utils/Strings.sol\":790:791  0 */\n      0x00\n        /* \"@openzeppelin/contracts/utils/Strings.sol\":782:786  temp */\n      dup3\n        /* \"@openzeppelin/contracts/utils/Strings.sol\":782:791  temp != 0 */\n      eq\n        /* \"@openzeppelin/contracts/utils/Strings.sol\":775:850  while (temp != 0) {... */\n      tag_293\n      jumpi\n        /* \"@openzeppelin/contracts/utils/Strings.sol\":807:815  digits++ */\n      dup1\n      dup1\n      tag_294\n      swap1\n      tag_295\n      jump\t// in\n    tag_294:\n      swap2\n      pop\n      pop\n        /* \"@openzeppelin/contracts/utils/Strings.sol\":837:839  10 */\n      0x0a\n        /* \"@openzeppelin/contracts/utils/Strings.sol\":829:839  temp /= 10 */\n      dup3\n      tag_296\n      swap2\n      swap1\n      tag_288\n      jump\t// in\n    tag_296:\n      swap2\n      pop\n        /* \"@openzeppelin/contracts/utils/Strings.sol\":775:850  while (temp != 0) {... */\n      jump(tag_292)\n    tag_293:\n        /* \"@openzeppelin/contracts/utils/Strings.sol\":859:878  bytes memory buffer */\n      0x00\n        /* \"@openzeppelin/contracts/utils/Strings.sol\":891:897  digits */\n      dup2\n        /* \"@openzeppelin/contracts/utils/Strings.sol\":881:898  new bytes(digits) */\n      0xffffffffffffffff\n      dup2\n      gt\n      iszero\n      tag_297\n      jumpi\n      tag_298\n      tag_299\n      jump\t// in\n    tag_298:\n    tag_297:\n      mload(0x40)\n      swap1\n      dup1\n      dup3\n      mstore\n      dup1\n      0x1f\n      add\n      not(0x1f)\n      and\n      0x20\n      add\n      dup3\n      add\n      0x40\n      mstore\n      dup1\n      iszero\n      tag_300\n      jumpi\n      dup2\n      0x20\n      add\n      0x01\n      dup3\n      mul\n      dup1\n      calldatasize\n      dup4\n      calldatacopy\n      dup1\n      dup3\n      add\n      swap2\n      pop\n      pop\n      swap1\n      pop\n    tag_300:\n      pop\n        /* \"@openzeppelin/contracts/utils/Strings.sol\":859:898  bytes memory buffer = new bytes(digits) */\n      swap1\n      pop\n        /* \"@openzeppelin/contracts/utils/Strings.sol\":908:1058  while (value != 0) {... */\n    tag_301:\n        /* \"@openzeppelin/contracts/utils/Strings.sol\":924:925  0 */\n      0x00\n        /* \"@openzeppelin/contracts/utils/Strings.sol\":915:920  value */\n      dup6\n        /* \"@openzeppelin/contracts/utils/Strings.sol\":915:925  value != 0 */\n      eq\n        /* \"@openzeppelin/contracts/utils/Strings.sol\":908:1058  while (value != 0) {... */\n      tag_302\n      jumpi\n        /* \"@openzeppelin/contracts/utils/Strings.sol\":951:952  1 */\n      0x01\n        /* \"@openzeppelin/contracts/utils/Strings.sol\":941:952  digits -= 1 */\n      dup3\n      tag_303\n      swap2\n      swap1\n      tag_229\n      jump\t// in\n    tag_303:\n      swap2\n      pop\n        /* \"@openzeppelin/contracts/utils/Strings.sol\":1017:1019  10 */\n      0x0a\n        /* \"@openzeppelin/contracts/utils/Strings.sol\":1009:1014  value */\n      dup6\n        /* \"@openzeppelin/contracts/utils/Strings.sol\":1009:1019  value % 10 */\n      tag_304\n      swap2\n      swap1\n      tag_215\n      jump\t// in\n    tag_304:\n        /* \"@openzeppelin/contracts/utils/Strings.sol\":996:998  48 */\n      0x30\n        /* \"@openzeppelin/contracts/utils/Strings.sol\":996:1020  48 + uint256(value % 10) */\n      tag_305\n      swap2\n      swap1\n      tag_232\n      jump\t// in\n    tag_305:\n        /* \"@openzeppelin/contracts/utils/Strings.sol\":983:1022  bytes1(uint8(48 + uint256(value % 10))) */\n      0xf8\n      shl\n        /* \"@openzeppelin/contracts/utils/Strings.sol\":966:972  buffer */\n      dup2\n        /* \"@openzeppelin/contracts/utils/Strings.sol\":973:979  digits */\n      dup4\n        /* \"@openzeppelin/contracts/utils/Strings.sol\":966:980  buffer[digits] */\n      dup2\n      mload\n      dup2\n      lt\n      tag_306\n      jumpi\n      tag_307\n      tag_308\n      jump\t// in\n    tag_307:\n    tag_306:\n      0x20\n      add\n      add\n        /* \"@openzeppelin/contracts/utils/Strings.sol\":966:1022  buffer[digits] = bytes1(uint8(48 + uint256(value % 10))) */\n      swap1\n      not(0xffffffffffffffffffffffffffffffffffffffffffffffffffffffffffffff)\n      and\n      swap1\n      dup2\n      0x00\n      byte\n      swap1\n      mstore8\n      pop\n        /* \"@openzeppelin/contracts/utils/Strings.sol\":1045:1047  10 */\n      0x0a\n        /* \"@openzeppelin/contracts/utils/Strings.sol\":1036:1047  value /= 10 */\n      dup6\n      tag_309\n      swap2\n      swap1\n      tag_288\n      jump\t// in\n    tag_309:\n      swap5\n      pop\n        /* \"@openzeppelin/contracts/utils/Strings.sol\":908:1058  while (value != 0) {... */\n      jump(tag_301)\n    tag_302:\n        /* \"@openzeppelin/contracts/utils/Strings.sol\":1081:1087  buffer */\n      dup1\n        /* \"@openzeppelin/contracts/utils/Strings.sol\":1067:1088  return string(buffer) */\n      swap4\n      pop\n      pop\n      pop\n      pop\n        /* \"@openzeppelin/contracts/utils/Strings.sol\":392:1095  function toString(uint256 value) internal pure returns (string memory) {... */\n    tag_290:\n      swap2\n      swap1\n      pop\n      jump\t// out\n        /* \"Dcoffer/ERC721A/test.sol\":3293:3499  function updateBlockScore(address user)private{... */\n    tag_235:\n        /* \"Dcoffer/ERC721A/test.sol\":3350:3370  uint256 accumulation */\n      0x00\n        /* \"Dcoffer/ERC721A/test.sol\":3373:3389  BlockScore(user) */\n      tag_311\n        /* \"Dcoffer/ERC721A/test.sol\":3384:3388  user */\n      dup3\n        /* \"Dcoffer/ERC721A/test.sol\":3373:3383  BlockScore */\n      tag_63\n        /* \"Dcoffer/ERC721A/test.sol\":3373:3389  BlockScore(user) */\n      jump\t// in\n    tag_311:\n        /* \"Dcoffer/ERC721A/test.sol\":3350:3389  uint256 accumulation = BlockScore(user) */\n      swap1\n      pop\n        /* \"Dcoffer/ERC721A/test.sol\":3427:3439  accumulation */\n      dup1\n        /* \"Dcoffer/ERC721A/test.sol\":3407:3416  _mineInfo */\n      0x0d\n        /* \"Dcoffer/ERC721A/test.sol\":3407:3422  _mineInfo[user] */\n      0x00\n        /* \"Dcoffer/ERC721A/test.sol\":3417:3421  user */\n      dup5\n        /* \"Dcoffer/ERC721A/test.sol\":3407:3422  _mineInfo[user] */\n      0xffffffffffffffffffffffffffffffffffffffff\n      and\n      0xffffffffffffffffffffffffffffffffffffffff\n      and\n      dup2\n      mstore\n      0x20\n      add\n      swap1\n      dup2\n      mstore\n      0x20\n      add\n      0x00\n      keccak256\n        /* \"Dcoffer/ERC721A/test.sol\":3407:3425  _mineInfo[user][2] */\n      0x00\n        /* \"Dcoffer/ERC721A/test.sol\":3423:3424  2 */\n      0x02\n        /* \"Dcoffer/ERC721A/test.sol\":3407:3425  _mineInfo[user][2] */\n      dup2\n      mstore\n      0x20\n      add\n      swap1\n      dup2\n      mstore\n      0x20\n      add\n      0x00\n      keccak256\n        /* \"Dcoffer/ERC721A/test.sol\":3407:3439  _mineInfo[user][2]= accumulation */\n      dup2\n      swap1\n      sstore\n      pop\n        /* \"Dcoffer/ERC721A/test.sol\":3478:3490  block.number */\n      number\n        /* \"Dcoffer/ERC721A/test.sol\":3457:3466  _mineInfo */\n      0x0d\n        /* \"Dcoffer/ERC721A/test.sol\":3457:3472  _mineInfo[user] */\n      0x00\n        /* \"Dcoffer/ERC721A/test.sol\":3467:3471  user */\n      dup5\n        /* \"Dcoffer/ERC721A/test.sol\":3457:3472  _mineInfo[user] */\n      0xffffffffffffffffffffffffffffffffffffffff\n      and\n      0xffffffffffffffffffffffffffffffffffffffff\n      and\n      dup2\n      mstore\n      0x20\n      add\n      swap1\n      dup2\n      mstore\n      0x20\n      add\n      0x00\n      keccak256\n        /* \"Dcoffer/ERC721A/test.sol\":3457:3475  _mineInfo[user][1] */\n      0x00\n        /* \"Dcoffer/ERC721A/test.sol\":3473:3474  1 */\n      0x01\n        /* \"Dcoffer/ERC721A/test.sol\":3457:3475  _mineInfo[user][1] */\n      dup2\n      mstore\n      0x20\n      add\n      swap1\n      dup2\n      mstore\n      0x20\n      add\n      0x00\n      keccak256\n        /* \"Dcoffer/ERC721A/test.sol\":3457:3490  _mineInfo[user][1] = block.number */\n      dup2\n      swap1\n      sstore\n      pop\n        /* \"Dcoffer/ERC721A/test.sol\":3339:3499  {... */\n      pop\n        /* \"Dcoffer/ERC721A/test.sol\":3293:3499  function updateBlockScore(address user)private{... */\n      pop\n      jump\t// out\n        /* \"Dcoffer/ERC721A/test.sol\":21906:22065  function _beforeTokenTransfers(... */\n    tag_249:\n      pop\n      pop\n      pop\n      pop\n      jump\t// out\n        /* \"Dcoffer/ERC721A/test.sol\":22724:22882  function _afterTokenTransfers(... */\n    tag_254:\n      pop\n      pop\n      pop\n      pop\n      jump\t// out\n    tag_259:\n      mload(0x40)\n      dup1\n      0x60\n      add\n      0x40\n      mstore\n      dup1\n      and(0xffffffffffffffffffffffffffffffffffffffff, 0x00)\n      dup2\n      mstore\n      0x20\n      add\n      and(0xffffffffffffffff, 0x00)\n      dup2\n      mstore\n      0x20\n      add\n      iszero(iszero(0x00))\n      dup2\n      mstore\n      pop\n      swap1\n      jump\t// out\n        /* \"#utility.yul\":7:82   */\n    tag_314:\n        /* \"#utility.yul\":40:46   */\n      0x00\n        /* \"#utility.yul\":73:75   */\n      0x40\n        /* \"#utility.yul\":67:76   */\n      mload\n        /* \"#utility.yul\":57:76   */\n      swap1\n      pop\n        /* \"#utility.yul\":7:82   */\n      swap1\n      jump\t// out\n        /* \"#utility.yul\":88:205   */\n    tag_315:\n        /* \"#utility.yul\":197:198   */\n      0x00\n        /* \"#utility.yul\":194:195   */\n      dup1\n        /* \"#utility.yul\":187:199   */\n      revert\n        /* \"#utility.yul\":211:328   */\n    tag_316:\n        /* \"#utility.yul\":320:321   */\n      0x00\n        /* \"#utility.yul\":317:318   */\n      dup1\n        /* \"#utility.yul\":310:322   */\n      revert\n        /* \"#utility.yul\":334:483   */\n    tag_317:\n        /* \"#utility.yul\":370:377   */\n      0x00\n        /* \"#utility.yul\":410:476   */\n      0xffffffff00000000000000000000000000000000000000000000000000000000\n        /* \"#utility.yul\":403:408   */\n      dup3\n        /* \"#utility.yul\":399:477   */\n      and\n        /* \"#utility.yul\":388:477   */\n      swap1\n      pop\n        /* \"#utility.yul\":334:483   */\n      swap2\n      swap1\n      pop\n      jump\t// out\n        /* \"#utility.yul\":489:609   */\n    tag_318:\n        /* \"#utility.yul\":561:584   */\n      tag_361\n        /* \"#utility.yul\":578:583   */\n      dup2\n        /* \"#utility.yul\":561:584   */\n      tag_317\n      jump\t// in\n    tag_361:\n        /* \"#utility.yul\":554:559   */\n      dup2\n        /* \"#utility.yul\":551:585   */\n      eq\n        /* \"#utility.yul\":541:603   */\n      tag_362\n      jumpi\n        /* \"#utility.yul\":599:600   */\n      0x00\n        /* \"#utility.yul\":596:597   */\n      dup1\n        /* \"#utility.yul\":589:601   */\n      revert\n        /* \"#utility.yul\":541:603   */\n    tag_362:\n        /* \"#utility.yul\":489:609   */\n      pop\n      jump\t// out\n        /* \"#utility.yul\":615:752   */\n    tag_319:\n        /* \"#utility.yul\":660:665   */\n      0x00\n        /* \"#utility.yul\":698:704   */\n      dup2\n        /* \"#utility.yul\":685:705   */\n      calldataload\n        /* \"#utility.yul\":676:705   */\n      swap1\n      pop\n        /* \"#utility.yul\":714:746   */\n      tag_364\n        /* \"#utility.yul\":740:745   */\n      dup2\n        /* \"#utility.yul\":714:746   */\n      tag_318\n      jump\t// in\n    tag_364:\n        /* \"#utility.yul\":615:752   */\n      swap3\n      swap2\n      pop\n      pop\n      jump\t// out\n        /* \"#utility.yul\":758:1085   */\n    tag_31:\n        /* \"#utility.yul\":816:822   */\n      0x00\n        /* \"#utility.yul\":865:867   */\n      0x20\n        /* \"#utility.yul\":853:862   */\n      dup3\n        /* \"#utility.yul\":844:851   */\n      dup5\n        /* \"#utility.yul\":840:863   */\n      sub\n        /* \"#utility.yul\":836:868   */\n      slt\n        /* \"#utility.yul\":833:952   */\n      iszero\n      tag_366\n      jumpi\n        /* \"#utility.yul\":871:950   */\n      tag_367\n      tag_315\n      jump\t// in\n    tag_367:\n        /* \"#utility.yul\":833:952   */\n    tag_366:\n        /* \"#utility.yul\":991:992   */\n      0x00\n        /* \"#utility.yul\":1016:1068   */\n      tag_368\n        /* \"#utility.yul\":1060:1067   */\n      dup5\n        /* \"#utility.yul\":1051:1057   */\n      dup3\n        /* \"#utility.yul\":1040:1049   */\n      dup6\n        /* \"#utility.yul\":1036:1058   */\n      add\n        /* \"#utility.yul\":1016:1068   */\n      tag_319\n      jump\t// in\n    tag_368:\n        /* \"#utility.yul\":1006:1068   */\n      swap2\n      pop\n        /* \"#utility.yul\":962:1078   */\n      pop\n        /* \"#utility.yul\":758:1085   */\n      swap3\n      swap2\n      pop\n      pop\n      jump\t// out\n        /* \"#utility.yul\":1091:1181   */\n    tag_320:\n        /* \"#utility.yul\":1125:1132   */\n      0x00\n        /* \"#utility.yul\":1168:1173   */\n      dup2\n        /* \"#utility.yul\":1161:1174   */\n      iszero\n        /* \"#utility.yul\":1154:1175   */\n      iszero\n        /* \"#utility.yul\":1143:1175   */\n      swap1\n      pop\n        /* \"#utility.yul\":1091:1181   */\n      swap2\n      swap1\n      pop\n      jump\t// out\n        /* \"#utility.yul\":1187:1296   */\n    tag_321:\n        /* \"#utility.yul\":1268:1289   */\n      tag_371\n        /* \"#utility.yul\":1283:1288   */\n      dup2\n        /* \"#utility.yul\":1268:1289   */\n      tag_320\n      jump\t// in\n    tag_371:\n        /* \"#utility.yul\":1263:1266   */\n      dup3\n        /* \"#utility.yul\":1256:1290   */\n      mstore\n        /* \"#utility.yul\":1187:1296   */\n      pop\n      pop\n      jump\t// out\n        /* \"#utility.yul\":1302:1512   */\n    tag_34:\n        /* \"#utility.yul\":1389:1393   */\n      0x00\n        /* \"#utility.yul\":1427:1429   */\n      0x20\n        /* \"#utility.yul\":1416:1425   */\n      dup3\n        /* \"#utility.yul\":1412:1430   */\n      add\n        /* \"#utility.yul\":1404:1430   */\n      swap1\n      pop\n        /* \"#utility.yul\":1440:1505   */\n      tag_373\n        /* \"#utility.yul\":1502:1503   */\n      0x00\n        /* \"#utility.yul\":1491:1500   */\n      dup4\n        /* \"#utility.yul\":1487:1504   */\n      add\n        /* \"#utility.yul\":1478:1484   */\n      dup5\n        /* \"#utility.yul\":1440:1505   */\n      tag_321\n      jump\t// in\n    tag_373:\n        /* \"#utility.yul\":1302:1512   */\n      swap3\n      swap2\n      pop\n      pop\n      jump\t// out\n        /* \"#utility.yul\":1518:1617   */\n    tag_322:\n        /* \"#utility.yul\":1570:1576   */\n      0x00\n        /* \"#utility.yul\":1604:1609   */\n      dup2\n        /* \"#utility.yul\":1598:1610   */\n      mload\n        /* \"#utility.yul\":1588:1610   */\n      swap1\n      pop\n        /* \"#utility.yul\":1518:1617   */\n      swap2\n      swap1\n      pop\n      jump\t// out\n        /* \"#utility.yul\":1623:1792   */\n    tag_323:\n        /* \"#utility.yul\":1707:1718   */\n      0x00\n        /* \"#utility.yul\":1741:1747   */\n      dup3\n        /* \"#utility.yul\":1736:1739   */\n      dup3\n        /* \"#utility.yul\":1729:1748   */\n      mstore\n        /* \"#utility.yul\":1781:1785   */\n      0x20\n        /* \"#utility.yul\":1776:1779   */\n      dup3\n        /* \"#utility.yul\":1772:1786   */\n      add\n        /* \"#utility.yul\":1757:1786   */\n      swap1\n      pop\n        /* \"#utility.yul\":1623:1792   */\n      swap3\n      swap2\n      pop\n      pop\n      jump\t// out\n        /* \"#utility.yul\":1798:2044   */\n    tag_324:\n        /* \"#utility.yul\":1879:1880   */\n      0x00\n        /* \"#utility.yul\":1889:2002   */\n    tag_377:\n        /* \"#utility.yul\":1903:1909   */\n      dup4\n        /* \"#utility.yul\":1900:1901   */\n      dup2\n        /* \"#utility.yul\":1897:1910   */\n      lt\n        /* \"#utility.yul\":1889:2002   */\n      iszero\n      tag_379\n      jumpi\n        /* \"#utility.yul\":1988:1989   */\n      dup1\n        /* \"#utility.yul\":1983:1986   */\n      dup3\n        /* \"#utility.yul\":1979:1990   */\n      add\n        /* \"#utility.yul\":1973:1991   */\n      mload\n        /* \"#utility.yul\":1969:1970   */\n      dup2\n        /* \"#utility.yul\":1964:1967   */\n      dup5\n        /* \"#utility.yul\":1960:1971   */\n      add\n        /* \"#utility.yul\":1953:1992   */\n      mstore\n        /* \"#utility.yul\":1925:1927   */\n      0x20\n        /* \"#utility.yul\":1922:1923   */\n      dup2\n        /* \"#utility.yul\":1918:1928   */\n      add\n        /* \"#utility.yul\":1913:1928   */\n      swap1\n      pop\n        /* \"#utility.yul\":1889:2002   */\n      jump(tag_377)\n    tag_379:\n        /* \"#utility.yul\":2036:2037   */\n      0x00\n        /* \"#utility.yul\":2027:2033   */\n      dup5\n        /* \"#utility.yul\":2022:2025   */\n      dup5\n        /* \"#utility.yul\":2018:2034   */\n      add\n        /* \"#utility.yul\":2011:2038   */\n      mstore\n        /* \"#utility.yul\":1860:2044   */\n      pop\n        /* \"#utility.yul\":1798:2044   */\n      pop\n      pop\n      pop\n      jump\t// out\n        /* \"#utility.yul\":2050:2152   */\n    tag_325:\n        /* \"#utility.yul\":2091:2097   */\n      0x00\n        /* \"#utility.yul\":2142:2144   */\n      0x1f\n        /* \"#utility.yul\":2138:2145   */\n      not\n        /* \"#utility.yul\":2133:2135   */\n      0x1f\n        /* \"#utility.yul\":2126:2131   */\n      dup4\n        /* \"#utility.yul\":2122:2136   */\n      add\n        /* \"#utility.yul\":2118:2146   */\n      and\n        /* \"#utility.yul\":2108:2146   */\n      swap1\n      pop\n        /* \"#utility.yul\":2050:2152   */\n      swap2\n      swap1\n      pop\n      jump\t// out\n        /* \"#utility.yul\":2158:2535   */\n    tag_326:\n        /* \"#utility.yul\":2246:2249   */\n      0x00\n        /* \"#utility.yul\":2274:2313   */\n      tag_382\n        /* \"#utility.yul\":2307:2312   */\n      dup3\n        /* \"#utility.yul\":2274:2313   */\n      tag_322\n      jump\t// in\n    tag_382:\n        /* \"#utility.yul\":2329:2400   */\n      tag_383\n        /* \"#utility.yul\":2393:2399   */\n      dup2\n        /* \"#utility.yul\":2388:2391   */\n      dup6\n        /* \"#utility.yul\":2329:2400   */\n      tag_323\n      jump\t// in\n    tag_383:\n        /* \"#utility.yul\":2322:2400   */\n      swap4\n      pop\n        /* \"#utility.yul\":2409:2474   */\n      tag_384\n        /* \"#utility.yul\":2467:2473   */\n      dup2\n        /* \"#utility.yul\":2462:2465   */\n      dup6\n        /* \"#utility.yul\":2455:2459   */\n      0x20\n        /* \"#utility.yul\":2448:2453   */\n      dup7\n        /* \"#utility.yul\":2444:2460   */\n      add\n        /* \"#utility.yul\":2409:2474   */\n      tag_324\n      jump\t// in\n    tag_384:\n        /* \"#utility.yul\":2499:2528   */\n      tag_385\n        /* \"#utility.yul\":2521:2527   */\n      dup2\n        /* \"#utility.yul\":2499:2528   */\n      tag_325\n      jump\t// in\n    tag_385:\n        /* \"#utility.yul\":2494:2497   */\n      dup5\n        /* \"#utility.yul\":2490:2529   */\n      add\n        /* \"#utility.yul\":2483:2529   */\n      swap2\n      pop\n        /* \"#utility.yul\":2250:2535   */\n      pop\n        /* \"#utility.yul\":2158:2535   */\n      swap3\n      swap2\n      pop\n      pop\n      jump\t// out\n        /* \"#utility.yul\":2541:2854   */\n    tag_38:\n        /* \"#utility.yul\":2654:2658   */\n      0x00\n        /* \"#utility.yul\":2692:2694   */\n      0x20\n        /* \"#utility.yul\":2681:2690   */\n      dup3\n        /* \"#utility.yul\":2677:2695   */\n      add\n        /* \"#utility.yul\":2669:2695   */\n      swap1\n      pop\n        /* \"#utility.yul\":2741:2750   */\n      dup2\n        /* \"#utility.yul\":2735:2739   */\n      dup2\n        /* \"#utility.yul\":2731:2751   */\n      sub\n        /* \"#utility.yul\":2727:2728   */\n      0x00\n        /* \"#utility.yul\":2716:2725   */\n      dup4\n        /* \"#utility.yul\":2712:2729   */\n      add\n        /* \"#utility.yul\":2705:2752   */\n      mstore\n        /* \"#utility.yul\":2769:2847   */\n      tag_387\n        /* \"#utility.yul\":2842:2846   */\n      dup2\n        /* \"#utility.yul\":2833:2839   */\n      dup5\n        /* \"#utility.yul\":2769:2847   */\n      tag_326\n      jump\t// in\n    tag_387:\n        /* \"#utility.yul\":2761:2847   */\n      swap1\n      pop\n        /* \"#utility.yul\":2541:2854   */\n      swap3\n      swap2\n      pop\n      pop\n      jump\t// out\n        /* \"#utility.yul\":2860:2937   */\n    tag_327:\n        /* \"#utility.yul\":2897:2904   */\n      0x00\n        /* \"#utility.yul\":2926:2931   */\n      dup2\n        /* \"#utility.yul\":2915:2931   */\n      swap1\n      pop\n        /* \"#utility.yul\":2860:2937   */\n      swap2\n      swap1\n      pop\n      jump\t// out\n        /* \"#utility.yul\":2943:3065   */\n    tag_328:\n        /* \"#utility.yul\":3016:3040   */\n      tag_390\n        /* \"#utility.yul\":3034:3039   */\n      dup2\n        /* \"#utility.yul\":3016:3040   */\n      tag_327\n      jump\t// in\n    tag_390:\n        /* \"#utility.yul\":3009:3014   */\n      dup2\n        /* \"#utility.yul\":3006:3041   */\n      eq\n        /* \"#utility.yul\":2996:3059   */\n      tag_391\n      jumpi\n        /* \"#utility.yul\":3055:3056   */\n      0x00\n        /* \"#utility.yul\":3052:3053   */\n      dup1\n        /* \"#utility.yul\":3045:3057   */\n      revert\n        /* \"#utility.yul\":2996:3059   */\n    tag_391:\n        /* \"#utility.yul\":2943:3065   */\n      pop\n      jump\t// out\n        /* \"#utility.yul\":3071:3210   */\n    tag_329:\n        /* \"#utility.yul\":3117:3122   */\n      0x00\n        /* \"#utility.yul\":3155:3161   */\n      dup2\n        /* \"#utility.yul\":3142:3162   */\n      calldataload\n        /* \"#utility.yul\":3133:3162   */\n      swap1\n      pop\n        /* \"#utility.yul\":3171:3204   */\n      tag_393\n        /* \"#utility.yul\":3198:3203   */\n      dup2\n        /* \"#utility.yul\":3171:3204   */\n      tag_328\n      jump\t// in\n    tag_393:\n        /* \"#utility.yul\":3071:3210   */\n      swap3\n      swap2\n      pop\n      pop\n      jump\t// out\n        /* \"#utility.yul\":3216:3545   */\n    tag_41:\n        /* \"#utility.yul\":3275:3281   */\n      0x00\n        /* \"#utility.yul\":3324:3326   */\n      0x20\n        /* \"#utility.yul\":3312:3321   */\n      dup3\n        /* \"#utility.yul\":3303:3310   */\n      dup5\n        /* \"#utility.yul\":3299:3322   */\n      sub\n        /* \"#utility.yul\":3295:3327   */\n      slt\n        /* \"#utility.yul\":3292:3411   */\n      iszero\n      tag_395\n      jumpi\n        /* \"#utility.yul\":3330:3409   */\n      tag_396\n      tag_315\n      jump\t// in\n    tag_396:\n        /* \"#utility.yul\":3292:3411   */\n    tag_395:\n        /* \"#utility.yul\":3450:3451   */\n      0x00\n        /* \"#utility.yul\":3475:3528   */\n      tag_397\n        /* \"#utility.yul\":3520:3527   */\n      dup5\n        /* \"#utility.yul\":3511:3517   */\n      dup3\n        /* \"#utility.yul\":3500:3509   */\n      dup6\n        /* \"#utility.yul\":3496:3518   */\n      add\n        /* \"#utility.yul\":3475:3528   */\n      tag_329\n      jump\t// in\n    tag_397:\n        /* \"#utility.yul\":3465:3528   */\n      swap2\n      pop\n        /* \"#utility.yul\":3421:3538   */\n      pop\n        /* \"#utility.yul\":3216:3545   */\n      swap3\n      swap2\n      pop\n      pop\n      jump\t// out\n        /* \"#utility.yul\":3551:3677   */\n    tag_330:\n        /* \"#utility.yul\":3588:3595   */\n      0x00\n        /* \"#utility.yul\":3628:3670   */\n      0xffffffffffffffffffffffffffffffffffffffff\n        /* \"#utility.yul\":3621:3626   */\n      dup3\n        /* \"#utility.yul\":3617:3671   */\n      and\n        /* \"#utility.yul\":3606:3671   */\n      swap1\n      pop\n        /* \"#utility.yul\":3551:3677   */\n      swap2\n      swap1\n      pop\n      jump\t// out\n        /* \"#utility.yul\":3683:3779   */\n    tag_331:\n        /* \"#utility.yul\":3720:3727   */\n      0x00\n        /* \"#utility.yul\":3749:3773   */\n      tag_400\n        /* \"#utility.yul\":3767:3772   */\n      dup3\n        /* \"#utility.yul\":3749:3773   */\n      tag_330\n      jump\t// in\n    tag_400:\n        /* \"#utility.yul\":3738:3773   */\n      swap1\n      pop\n        /* \"#utility.yul\":3683:3779   */\n      swap2\n      swap1\n      pop\n      jump\t// out\n        /* \"#utility.yul\":3785:3903   */\n    tag_332:\n        /* \"#utility.yul\":3872:3896   */\n      tag_402\n        /* \"#utility.yul\":3890:3895   */\n      dup2\n        /* \"#utility.yul\":3872:3896   */\n      tag_331\n      jump\t// in\n    tag_402:\n        /* \"#utility.yul\":3867:3870   */\n      dup3\n        /* \"#utility.yul\":3860:3897   */\n      mstore\n        /* \"#utility.yul\":3785:3903   */\n      pop\n      pop\n      jump\t// out\n        /* \"#utility.yul\":3909:4131   */\n    tag_44:\n        /* \"#utility.yul\":4002:4006   */\n      0x00\n        /* \"#utility.yul\":4040:4042   */\n      0x20\n        /* \"#utility.yul\":4029:4038   */\n      dup3\n        /* \"#utility.yul\":4025:4043   */\n      add\n        /* \"#utility.yul\":4017:4043   */\n      swap1\n      pop\n        /* \"#utility.yul\":4053:4124   */\n      tag_404\n        /* \"#utility.yul\":4121:4122   */\n      0x00\n        /* \"#utility.yul\":4110:4119   */\n      dup4\n        /* \"#utility.yul\":4106:4123   */\n      add\n        /* \"#utility.yul\":4097:4103   */\n      dup5\n        /* \"#utility.yul\":4053:4124   */\n      tag_332\n      jump\t// in\n    tag_404:\n        /* \"#utility.yul\":3909:4131   */\n      swap3\n      swap2\n      pop\n      pop\n      jump\t// out\n        /* \"#utility.yul\":4137:4259   */\n    tag_333:\n        /* \"#utility.yul\":4210:4234   */\n      tag_406\n        /* \"#utility.yul\":4228:4233   */\n      dup2\n        /* \"#utility.yul\":4210:4234   */\n      tag_331\n      jump\t// in\n    tag_406:\n        /* \"#utility.yul\":4203:4208   */\n      dup2\n        /* \"#utility.yul\":4200:4235   */\n      eq\n        /* \"#utility.yul\":4190:4253   */\n      tag_407\n      jumpi\n        /* \"#utility.yul\":4249:4250   */\n      0x00\n        /* \"#utility.yul\":4246:4247   */\n      dup1\n        /* \"#utility.yul\":4239:4251   */\n      revert\n        /* \"#utility.yul\":4190:4253   */\n    tag_407:\n        /* \"#utility.yul\":4137:4259   */\n      pop\n      jump\t// out\n        /* \"#utility.yul\":4265:4404   */\n    tag_334:\n        /* \"#utility.yul\":4311:4316   */\n      0x00\n        /* \"#utility.yul\":4349:4355   */\n      dup2\n        /* \"#utility.yul\":4336:4356   */\n      calldataload\n        /* \"#utility.yul\":4327:4356   */\n      swap1\n      pop\n        /* \"#utility.yul\":4365:4398   */\n      tag_409\n        /* \"#utility.yul\":4392:4397   */\n      dup2\n        /* \"#utility.yul\":4365:4398   */\n      tag_333\n      jump\t// in\n    tag_409:\n        /* \"#utility.yul\":4265:4404   */\n      swap3\n      swap2\n      pop\n      pop\n      jump\t// out\n        /* \"#utility.yul\":4410:4884   */\n    tag_47:\n        /* \"#utility.yul\":4478:4484   */\n      0x00\n        /* \"#utility.yul\":4486:4492   */\n      dup1\n        /* \"#utility.yul\":4535:4537   */\n      0x40\n        /* \"#utility.yul\":4523:4532   */\n      dup4\n        /* \"#utility.yul\":4514:4521   */\n      dup6\n        /* \"#utility.yul\":4510:4533   */\n      sub\n        /* \"#utility.yul\":4506:4538   */\n      slt\n        /* \"#utility.yul\":4503:4622   */\n      iszero\n      tag_411\n      jumpi\n        /* \"#utility.yul\":4541:4620   */\n      tag_412\n      tag_315\n      jump\t// in\n    tag_412:\n        /* \"#utility.yul\":4503:4622   */\n    tag_411:\n        /* \"#utility.yul\":4661:4662   */\n      0x00\n        /* \"#utility.yul\":4686:4739   */\n      tag_413\n        /* \"#utility.yul\":4731:4738   */\n      dup6\n        /* \"#utility.yul\":4722:4728   */\n      dup3\n        /* \"#utility.yul\":4711:4720   */\n      dup7\n        /* \"#utility.yul\":4707:4729   */\n      add\n        /* \"#utility.yul\":4686:4739   */\n      tag_334\n      jump\t// in\n    tag_413:\n        /* \"#utility.yul\":4676:4739   */\n      swap3\n      pop\n        /* \"#utility.yul\":4632:4749   */\n      pop\n        /* \"#utility.yul\":4788:4790   */\n      0x20\n        /* \"#utility.yul\":4814:4867   */\n      tag_414\n        /* \"#utility.yul\":4859:4866   */\n      dup6\n        /* \"#utility.yul\":4850:4856   */\n      dup3\n        /* \"#utility.yul\":4839:4848   */\n      dup7\n        /* \"#utility.yul\":4835:4857   */\n      add\n        /* \"#utility.yul\":4814:4867   */\n      tag_329\n      jump\t// in\n    tag_414:\n        /* \"#utility.yul\":4804:4867   */\n      swap2\n      pop\n        /* \"#utility.yul\":4759:4877   */\n      pop\n        /* \"#utility.yul\":4410:4884   */\n      swap3\n      pop\n      swap3\n      swap1\n      pop\n      jump\t// out\n        /* \"#utility.yul\":4890:5008   */\n    tag_335:\n        /* \"#utility.yul\":4977:5001   */\n      tag_416\n        /* \"#utility.yul\":4995:5000   */\n      dup2\n        /* \"#utility.yul\":4977:5001   */\n      tag_327\n      jump\t// in\n    tag_416:\n        /* \"#utility.yul\":4972:4975   */\n      dup3\n        /* \"#utility.yul\":4965:5002   */\n      mstore\n        /* \"#utility.yul\":4890:5008   */\n      pop\n      pop\n      jump\t// out\n        /* \"#utility.yul\":5014:5236   */\n    tag_52:\n        /* \"#utility.yul\":5107:5111   */\n      0x00\n        /* \"#utility.yul\":5145:5147   */\n      0x20\n        /* \"#utility.yul\":5134:5143   */\n      dup3\n        /* \"#utility.yul\":5130:5148   */\n      add\n        /* \"#utility.yul\":5122:5148   */\n      swap1\n      pop\n        /* \"#utility.yul\":5158:5229   */\n      tag_418\n        /* \"#utility.yul\":5226:5227   */\n      0x00\n        /* \"#utility.yul\":5215:5224   */\n      dup4\n        /* \"#utility.yul\":5211:5228   */\n      add\n        /* \"#utility.yul\":5202:5208   */\n      dup5\n        /* \"#utility.yul\":5158:5229   */\n      tag_335\n      jump\t// in\n    tag_418:\n        /* \"#utility.yul\":5014:5236   */\n      swap3\n      swap2\n      pop\n      pop\n      jump\t// out\n        /* \"#utility.yul\":5242:5571   */\n    tag_55:\n        /* \"#utility.yul\":5301:5307   */\n      0x00\n        /* \"#utility.yul\":5350:5352   */\n      0x20\n        /* \"#utility.yul\":5338:5347   */\n      dup3\n        /* \"#utility.yul\":5329:5336   */\n      dup5\n        /* \"#utility.yul\":5325:5348   */\n      sub\n        /* \"#utility.yul\":5321:5353   */\n      slt\n        /* \"#utility.yul\":5318:5437   */\n      iszero\n      tag_420\n      jumpi\n        /* \"#utility.yul\":5356:5435   */\n      tag_421\n      tag_315\n      jump\t// in\n    tag_421:\n        /* \"#utility.yul\":5318:5437   */\n    tag_420:\n        /* \"#utility.yul\":5476:5477   */\n      0x00\n        /* \"#utility.yul\":5501:5554   */\n      tag_422\n        /* \"#utility.yul\":5546:5553   */\n      dup5\n        /* \"#utility.yul\":5537:5543   */\n      dup3\n        /* \"#utility.yul\":5526:5535   */\n      dup6\n        /* \"#utility.yul\":5522:5544   */\n      add\n        /* \"#utility.yul\":5501:5554   */\n      tag_334\n      jump\t// in\n    tag_422:\n        /* \"#utility.yul\":5491:5554   */\n      swap2\n      pop\n        /* \"#utility.yul\":5447:5564   */\n      pop\n        /* \"#utility.yul\":5242:5571   */\n      swap3\n      swap2\n      pop\n      pop\n      jump\t// out\n        /* \"#utility.yul\":5577:6196   */\n    tag_59:\n        /* \"#utility.yul\":5654:5660   */\n      0x00\n        /* \"#utility.yul\":5662:5668   */\n      dup1\n        /* \"#utility.yul\":5670:5676   */\n      0x00\n        /* \"#utility.yul\":5719:5721   */\n      0x60\n        /* \"#utility.yul\":5707:5716   */\n      dup5\n        /* \"#utility.yul\":5698:5705   */\n      dup7\n        /* \"#utility.yul\":5694:5717   */\n      sub\n        /* \"#utility.yul\":5690:5722   */\n      slt\n        /* \"#utility.yul\":5687:5806   */\n      iszero\n      tag_424\n      jumpi\n        /* \"#utility.yul\":5725:5804   */\n      tag_425\n      tag_315\n      jump\t// in\n    tag_425:\n        /* \"#utility.yul\":5687:5806   */\n    tag_424:\n        /* \"#utility.yul\":5845:5846   */\n      0x00\n        /* \"#utility.yul\":5870:5923   */\n      tag_426\n        /* \"#utility.yul\":5915:5922   */\n      dup7\n        /* \"#utility.yul\":5906:5912   */\n      dup3\n        /* \"#utility.yul\":5895:5904   */\n      dup8\n        /* \"#utility.yul\":5891:5913   */\n      add\n        /* \"#utility.yul\":5870:5923   */\n      tag_334\n      jump\t// in\n    tag_426:\n        /* \"#utility.yul\":5860:5923   */\n      swap4\n      pop\n        /* \"#utility.yul\":5816:5933   */\n      pop\n        /* \"#utility.yul\":5972:5974   */\n      0x20\n        /* \"#utility.yul\":5998:6051   */\n      tag_427\n        /* \"#utility.yul\":6043:6050   */\n      dup7\n        /* \"#utility.yul\":6034:6040   */\n      dup3\n        /* \"#utility.yul\":6023:6032   */\n      dup8\n        /* \"#utility.yul\":6019:6041   */\n      add\n        /* \"#utility.yul\":5998:6051   */\n      tag_334\n      jump\t// in\n    tag_427:\n        /* \"#utility.yul\":5988:6051   */\n      swap3\n      pop\n        /* \"#utility.yul\":5943:6061   */\n      pop\n        /* \"#utility.yul\":6100:6102   */\n      0x40\n        /* \"#utility.yul\":6126:6179   */\n      tag_428\n        /* \"#utility.yul\":6171:6178   */\n      dup7\n        /* \"#utility.yul\":6162:6168   */\n      dup3\n        /* \"#utility.yul\":6151:6160   */\n      dup8\n        /* \"#utility.yul\":6147:6169   */\n      add\n        /* \"#utility.yul\":6126:6179   */\n      tag_329\n      jump\t// in\n    tag_428:\n        /* \"#utility.yul\":6116:6179   */\n      swap2\n      pop\n        /* \"#utility.yul\":6071:6189   */\n      pop\n        /* \"#utility.yul\":5577:6196   */\n      swap3\n      pop\n      swap3\n      pop\n      swap3\n      jump\t// out\n        /* \"#utility.yul\":6202:6318   */\n    tag_336:\n        /* \"#utility.yul\":6272:6293   */\n      tag_430\n        /* \"#utility.yul\":6287:6292   */\n      dup2\n        /* \"#utility.yul\":6272:6293   */\n      tag_320\n      jump\t// in\n    tag_430:\n        /* \"#utility.yul\":6265:6270   */\n      dup2\n        /* \"#utility.yul\":6262:6294   */\n      eq\n        /* \"#utility.yul\":6252:6312   */\n      tag_431\n      jumpi\n        /* \"#utility.yul\":6308:6309   */\n      0x00\n        /* \"#utility.yul\":6305:6306   */\n      dup1\n        /* \"#utility.yul\":6298:6310   */\n      revert\n        /* \"#utility.yul\":6252:6312   */\n    tag_431:\n        /* \"#utility.yul\":6202:6318   */\n      pop\n      jump\t// out\n        /* \"#utility.yul\":6324:6457   */\n    tag_337:\n        /* \"#utility.yul\":6367:6372   */\n      0x00\n        /* \"#utility.yul\":6405:6411   */\n      dup2\n        /* \"#utility.yul\":6392:6412   */\n      calldataload\n        /* \"#utility.yul\":6383:6412   */\n      swap1\n      pop\n        /* \"#utility.yul\":6421:6451   */\n      tag_433\n        /* \"#utility.yul\":6445:6450   */\n      dup2\n        /* \"#utility.yul\":6421:6451   */\n      tag_336\n      jump\t// in\n    tag_433:\n        /* \"#utility.yul\":6324:6457   */\n      swap3\n      swap2\n      pop\n      pop\n      jump\t// out\n        /* \"#utility.yul\":6463:6931   */\n    tag_93:\n        /* \"#utility.yul\":6528:6534   */\n      0x00\n        /* \"#utility.yul\":6536:6542   */\n      dup1\n        /* \"#utility.yul\":6585:6587   */\n      0x40\n        /* \"#utility.yul\":6573:6582   */\n      dup4\n        /* \"#utility.yul\":6564:6571   */\n      dup6\n        /* \"#utility.yul\":6560:6583   */\n      sub\n        /* \"#utility.yul\":6556:6588   */\n      slt\n        /* \"#utility.yul\":6553:6672   */\n      iszero\n      tag_435\n      jumpi\n        /* \"#utility.yul\":6591:6670   */\n      tag_436\n      tag_315\n      jump\t// in\n    tag_436:\n        /* \"#utility.yul\":6553:6672   */\n    tag_435:\n        /* \"#utility.yul\":6711:6712   */\n      0x00\n        /* \"#utility.yul\":6736:6789   */\n      tag_437\n        /* \"#utility.yul\":6781:6788   */\n      dup6\n        /* \"#utility.yul\":6772:6778   */\n      dup3\n        /* \"#utility.yul\":6761:6770   */\n      dup7\n        /* \"#utility.yul\":6757:6779   */\n      add\n        /* \"#utility.yul\":6736:6789   */\n      tag_334\n      jump\t// in\n    tag_437:\n        /* \"#utility.yul\":6726:6789   */\n      swap3\n      pop\n        /* \"#utility.yul\":6682:6799   */\n      pop\n        /* \"#utility.yul\":6838:6840   */\n      0x20\n        /* \"#utility.yul\":6864:6914   */\n      tag_438\n        /* \"#utility.yul\":6906:6913   */\n      dup6\n        /* \"#utility.yul\":6897:6903   */\n      dup3\n        /* \"#utility.yul\":6886:6895   */\n      dup7\n        /* \"#utility.yul\":6882:6904   */\n      add\n        /* \"#utility.yul\":6864:6914   */\n      tag_337\n      jump\t// in\n    tag_438:\n        /* \"#utility.yul\":6854:6914   */\n      swap2\n      pop\n        /* \"#utility.yul\":6809:6924   */\n      pop\n        /* \"#utility.yul\":6463:6931   */\n      swap3\n      pop\n      swap3\n      swap1\n      pop\n      jump\t// out\n        /* \"#utility.yul\":6937:7054   */\n    tag_338:\n        /* \"#utility.yul\":7046:7047   */\n      0x00\n        /* \"#utility.yul\":7043:7044   */\n      dup1\n        /* \"#utility.yul\":7036:7048   */\n      revert\n        /* \"#utility.yul\":7060:7177   */\n    tag_339:\n        /* \"#utility.yul\":7169:7170   */\n      0x00\n        /* \"#utility.yul\":7166:7167   */\n      dup1\n        /* \"#utility.yul\":7159:7171   */\n      revert\n        /* \"#utility.yul\":7183:7363   */\n    tag_299:\n        /* \"#utility.yul\":7231:7308   */\n      0x4e487b7100000000000000000000000000000000000000000000000000000000\n        /* \"#utility.yul\":7228:7229   */\n      0x00\n        /* \"#utility.yul\":7221:7309   */\n      mstore\n        /* \"#utility.yul\":7328:7332   */\n      0x41\n        /* \"#utility.yul\":7325:7326   */\n      0x04\n        /* \"#utility.yul\":7318:7333   */\n      mstore\n        /* \"#utility.yul\":7352:7356   */\n      0x24\n        /* \"#utility.yul\":7349:7350   */\n      0x00\n        /* \"#utility.yul\":7342:7357   */\n      revert\n        /* \"#utility.yul\":7369:7650   */\n    tag_340:\n        /* \"#utility.yul\":7452:7479   */\n      tag_443\n        /* \"#utility.yul\":7474:7478   */\n      dup3\n        /* \"#utility.yul\":7452:7479   */\n      tag_325\n      jump\t// in\n    tag_443:\n        /* \"#utility.yul\":7444:7450   */\n      dup2\n        /* \"#utility.yul\":7440:7480   */\n      add\n        /* \"#utility.yul\":7582:7588   */\n      dup2\n        /* \"#utility.yul\":7570:7580   */\n      dup2\n        /* \"#utility.yul\":7567:7589   */\n      lt\n        /* \"#utility.yul\":7546:7564   */\n      0xffffffffffffffff\n        /* \"#utility.yul\":7534:7544   */\n      dup3\n        /* \"#utility.yul\":7531:7565   */\n      gt\n        /* \"#utility.yul\":7528:7590   */\n      or\n        /* \"#utility.yul\":7525:7613   */\n      iszero\n      tag_444\n      jumpi\n        /* \"#utility.yul\":7593:7611   */\n      tag_445\n      tag_299\n      jump\t// in\n    tag_445:\n        /* \"#utility.yul\":7525:7613   */\n    tag_444:\n        /* \"#utility.yul\":7633:7643   */\n      dup1\n        /* \"#utility.yul\":7629:7631   */\n      0x40\n        /* \"#utility.yul\":7622:7644   */\n      mstore\n        /* \"#utility.yul\":7412:7650   */\n      pop\n        /* \"#utility.yul\":7369:7650   */\n      pop\n      pop\n      jump\t// out\n        /* \"#utility.yul\":7656:7785   */\n    tag_341:\n        /* \"#utility.yul\":7690:7696   */\n      0x00\n        /* \"#utility.yul\":7717:7737   */\n      tag_447\n      tag_314\n      jump\t// in\n    tag_447:\n        /* \"#utility.yul\":7707:7737   */\n      swap1\n      pop\n        /* \"#utility.yul\":7746:7779   */\n      tag_448\n        /* \"#utility.yul\":7774:7778   */\n      dup3\n        /* \"#utility.yul\":7766:7772   */\n      dup3\n        /* \"#utility.yul\":7746:7779   */\n      tag_340\n      jump\t// in\n    tag_448:\n        /* \"#utility.yul\":7656:7785   */\n      swap2\n      swap1\n      pop\n      jump\t// out\n        /* \"#utility.yul\":7791:8098   */\n    tag_342:\n        /* \"#utility.yul\":7852:7856   */\n      0x00\n        /* \"#utility.yul\":7942:7960   */\n      0xffffffffffffffff\n        /* \"#utility.yul\":7934:7940   */\n      dup3\n        /* \"#utility.yul\":7931:7961   */\n      gt\n        /* \"#utility.yul\":7928:7984   */\n      iszero\n      tag_450\n      jumpi\n        /* \"#utility.yul\":7964:7982   */\n      tag_451\n      tag_299\n      jump\t// in\n    tag_451:\n        /* \"#utility.yul\":7928:7984   */\n    tag_450:\n        /* \"#utility.yul\":8002:8031   */\n      tag_452\n        /* \"#utility.yul\":8024:8030   */\n      dup3\n        /* \"#utility.yul\":8002:8031   */\n      tag_325\n      jump\t// in\n    tag_452:\n        /* \"#utility.yul\":7994:8031   */\n      swap1\n      pop\n        /* \"#utility.yul\":8086:8090   */\n      0x20\n        /* \"#utility.yul\":8080:8084   */\n      dup2\n        /* \"#utility.yul\":8076:8091   */\n      add\n        /* \"#utility.yul\":8068:8091   */\n      swap1\n      pop\n        /* \"#utility.yul\":7791:8098   */\n      swap2\n      swap1\n      pop\n      jump\t// out\n        /* \"#utility.yul\":8104:8250   */\n    tag_343:\n        /* \"#utility.yul\":8201:8207   */\n      dup3\n        /* \"#utility.yul\":8196:8199   */\n      dup2\n        /* \"#utility.yul\":8191:8194   */\n      dup4\n        /* \"#utility.yul\":8178:8208   */\n      calldatacopy\n        /* \"#utility.yul\":8242:8243   */\n      0x00\n        /* \"#utility.yul\":8233:8239   */\n      dup4\n        /* \"#utility.yul\":8228:8231   */\n      dup4\n        /* \"#utility.yul\":8224:8240   */\n      add\n        /* \"#utility.yul\":8217:8244   */\n      mstore\n        /* \"#utility.yul\":8104:8250   */\n      pop\n      pop\n      pop\n      jump\t// out\n        /* \"#utility.yul\":8256:8679   */\n    tag_344:\n        /* \"#utility.yul\":8333:8338   */\n      0x00\n        /* \"#utility.yul\":8358:8423   */\n      tag_455\n        /* \"#utility.yul\":8374:8422   */\n      tag_456\n        /* \"#utility.yul\":8415:8421   */\n      dup5\n        /* \"#utility.yul\":8374:8422   */\n      tag_342\n      jump\t// in\n    tag_456:\n        /* \"#utility.yul\":8358:8423   */\n      tag_341\n      jump\t// in\n    tag_455:\n        /* \"#utility.yul\":8349:8423   */\n      swap1\n      pop\n        /* \"#utility.yul\":8446:8452   */\n      dup3\n        /* \"#utility.yul\":8439:8444   */\n      dup2\n        /* \"#utility.yul\":8432:8453   */\n      mstore\n        /* \"#utility.yul\":8484:8488   */\n      0x20\n        /* \"#utility.yul\":8477:8482   */\n      dup2\n        /* \"#utility.yul\":8473:8489   */\n      add\n        /* \"#utility.yul\":8522:8525   */\n      dup5\n        /* \"#utility.yul\":8513:8519   */\n      dup5\n        /* \"#utility.yul\":8508:8511   */\n      dup5\n        /* \"#utility.yul\":8504:8520   */\n      add\n        /* \"#utility.yul\":8501:8526   */\n      gt\n        /* \"#utility.yul\":8498:8610   */\n      iszero\n      tag_457\n      jumpi\n        /* \"#utility.yul\":8529:8608   */\n      tag_458\n      tag_339\n      jump\t// in\n    tag_458:\n        /* \"#utility.yul\":8498:8610   */\n    tag_457:\n        /* \"#utility.yul\":8619:8673   */\n      tag_459\n        /* \"#utility.yul\":8666:8672   */\n      dup5\n        /* \"#utility.yul\":8661:8664   */\n      dup3\n        /* \"#utility.yul\":8656:8659   */\n      dup6\n        /* \"#utility.yul\":8619:8673   */\n      tag_343\n      jump\t// in\n    tag_459:\n        /* \"#utility.yul\":8339:8679   */\n      pop\n        /* \"#utility.yul\":8256:8679   */\n      swap4\n      swap3\n      pop\n      pop\n      pop\n      jump\t// out\n        /* \"#utility.yul\":8698:9036   */\n    tag_345:\n        /* \"#utility.yul\":8753:8758   */\n      0x00\n        /* \"#utility.yul\":8802:8805   */\n      dup3\n        /* \"#utility.yul\":8795:8799   */\n      0x1f\n        /* \"#utility.yul\":8787:8793   */\n      dup4\n        /* \"#utility.yul\":8783:8800   */\n      add\n        /* \"#utility.yul\":8779:8806   */\n      slt\n        /* \"#utility.yul\":8769:8891   */\n      tag_461\n      jumpi\n        /* \"#utility.yul\":8810:8889   */\n      tag_462\n      tag_338\n      jump\t// in\n    tag_462:\n        /* \"#utility.yul\":8769:8891   */\n    tag_461:\n        /* \"#utility.yul\":8927:8933   */\n      dup2\n        /* \"#utility.yul\":8914:8934   */\n      calldataload\n        /* \"#utility.yul\":8952:9030   */\n      tag_463\n        /* \"#utility.yul\":9026:9029   */\n      dup5\n        /* \"#utility.yul\":9018:9024   */\n      dup3\n        /* \"#utility.yul\":9011:9015   */\n      0x20\n        /* \"#utility.yul\":9003:9009   */\n      dup7\n        /* \"#utility.yul\":8999:9016   */\n      add\n        /* \"#utility.yul\":8952:9030   */\n      tag_344\n      jump\t// in\n    tag_463:\n        /* \"#utility.yul\":8943:9030   */\n      swap2\n      pop\n        /* \"#utility.yul\":8759:9036   */\n      pop\n        /* \"#utility.yul\":8698:9036   */\n      swap3\n      swap2\n      pop\n      pop\n      jump\t// out\n        /* \"#utility.yul\":9042:9985   */\n    tag_97:\n        /* \"#utility.yul\":9137:9143   */\n      0x00\n        /* \"#utility.yul\":9145:9151   */\n      dup1\n        /* \"#utility.yul\":9153:9159   */\n      0x00\n        /* \"#utility.yul\":9161:9167   */\n      dup1\n        /* \"#utility.yul\":9210:9213   */\n      0x80\n        /* \"#utility.yul\":9198:9207   */\n      dup6\n        /* \"#utility.yul\":9189:9196   */\n      dup8\n        /* \"#utility.yul\":9185:9208   */\n      sub\n        /* \"#utility.yul\":9181:9214   */\n      slt\n        /* \"#utility.yul\":9178:9298   */\n      iszero\n      tag_465\n      jumpi\n        /* \"#utility.yul\":9217:9296   */\n      tag_466\n      tag_315\n      jump\t// in\n    tag_466:\n        /* \"#utility.yul\":9178:9298   */\n    tag_465:\n        /* \"#utility.yul\":9337:9338   */\n      0x00\n        /* \"#utility.yul\":9362:9415   */\n      tag_467\n        /* \"#utility.yul\":9407:9414   */\n      dup8\n        /* \"#utility.yul\":9398:9404   */\n      dup3\n        /* \"#utility.yul\":9387:9396   */\n      dup9\n        /* \"#utility.yul\":9383:9405   */\n      add\n        /* \"#utility.yul\":9362:9415   */\n      tag_334\n      jump\t// in\n    tag_467:\n        /* \"#utility.yul\":9352:9415   */\n      swap5\n      pop\n        /* \"#utility.yul\":9308:9425   */\n      pop\n        /* \"#utility.yul\":9464:9466   */\n      0x20\n        /* \"#utility.yul\":9490:9543   */\n      tag_468\n        /* \"#utility.yul\":9535:9542   */\n      dup8\n        /* \"#utility.yul\":9526:9532   */\n      dup3\n        /* \"#utility.yul\":9515:9524   */\n      dup9\n        /* \"#utility.yul\":9511:9533   */\n      add\n        /* \"#utility.yul\":9490:9543   */\n      tag_334\n      jump\t// in\n    tag_468:\n        /* \"#utility.yul\":9480:9543   */\n      swap4\n      pop\n        /* \"#utility.yul\":9435:9553   */\n      pop\n        /* \"#utility.yul\":9592:9594   */\n      0x40\n        /* \"#utility.yul\":9618:9671   */\n      tag_469\n        /* \"#utility.yul\":9663:9670   */\n      dup8\n        /* \"#utility.yul\":9654:9660   */\n      dup3\n        /* \"#utility.yul\":9643:9652   */\n      dup9\n        /* \"#utility.yul\":9639:9661   */\n      add\n        /* \"#utility.yul\":9618:9671   */\n      tag_329\n      jump\t// in\n    tag_469:\n        /* \"#utility.yul\":9608:9671   */\n      swap3\n      pop\n        /* \"#utility.yul\":9563:9681   */\n      pop\n        /* \"#utility.yul\":9748:9750   */\n      0x60\n        /* \"#utility.yul\":9737:9746   */\n      dup6\n        /* \"#utility.yul\":9733:9751   */\n      add\n        /* \"#utility.yul\":9720:9752   */\n      calldataload\n        /* \"#utility.yul\":9779:9797   */\n      0xffffffffffffffff\n        /* \"#utility.yul\":9771:9777   */\n      dup2\n        /* \"#utility.yul\":9768:9798   */\n      gt\n        /* \"#utility.yul\":9765:9882   */\n      iszero\n      tag_470\n      jumpi\n        /* \"#utility.yul\":9801:9880   */\n      tag_471\n      tag_316\n      jump\t// in\n    tag_471:\n        /* \"#utility.yul\":9765:9882   */\n    tag_470:\n        /* \"#utility.yul\":9906:9968   */\n      tag_472\n        /* \"#utility.yul\":9960:9967   */\n      dup8\n        /* \"#utility.yul\":9951:9957   */\n      dup3\n        /* \"#utility.yul\":9940:9949   */\n      dup9\n        /* \"#utility.yul\":9936:9958   */\n      add\n        /* \"#utility.yul\":9906:9968   */\n      tag_345\n      jump\t// in\n    tag_472:\n        /* \"#utility.yul\":9896:9968   */\n      swap2\n      pop\n        /* \"#utility.yul\":9691:9978   */\n      pop\n        /* \"#utility.yul\":9042:9985   */\n      swap3\n      swap6\n      swap2\n      swap5\n      pop\n      swap3\n      pop\n      jump\t// out\n        /* \"#utility.yul\":9991:10465   */\n    tag_112:\n        /* \"#utility.yul\":10059:10065   */\n      0x00\n        /* \"#utility.yul\":10067:10073   */\n      dup1\n        /* \"#utility.yul\":10116:10118   */\n      0x40\n        /* \"#utility.yul\":10104:10113   */\n      dup4\n        /* \"#utility.yul\":10095:10102   */\n      dup6\n        /* \"#utility.yul\":10091:10114   */\n      sub\n        /* \"#utility.yul\":10087:10119   */\n      slt\n        /* \"#utility.yul\":10084:10203   */\n      iszero\n      tag_474\n      jumpi\n        /* \"#utility.yul\":10122:10201   */\n      tag_475\n      tag_315\n      jump\t// in\n    tag_475:\n        /* \"#utility.yul\":10084:10203   */\n    tag_474:\n        /* \"#utility.yul\":10242:10243   */\n      0x00\n        /* \"#utility.yul\":10267:10320   */\n      tag_476\n        /* \"#utility.yul\":10312:10319   */\n      dup6\n        /* \"#utility.yul\":10303:10309   */\n      dup3\n        /* \"#utility.yul\":10292:10301   */\n      dup7\n        /* \"#utility.yul\":10288:10310   */\n      add\n        /* \"#utility.yul\":10267:10320   */\n      tag_334\n      jump\t// in\n    tag_476:\n        /* \"#utility.yul\":10257:10320   */\n      swap3\n      pop\n        /* \"#utility.yul\":10213:10330   */\n      pop\n        /* \"#utility.yul\":10369:10371   */\n      0x20\n        /* \"#utility.yul\":10395:10448   */\n      tag_477\n        /* \"#utility.yul\":10440:10447   */\n      dup6\n        /* \"#utility.yul\":10431:10437   */\n      dup3\n        /* \"#utility.yul\":10420:10429   */\n      dup7\n        /* \"#utility.yul\":10416:10438   */\n      add\n        /* \"#utility.yul\":10395:10448   */\n      tag_334\n      jump\t// in\n    tag_477:\n        /* \"#utility.yul\":10385:10448   */\n      swap2\n      pop\n        /* \"#utility.yul\":10340:10458   */\n      pop\n        /* \"#utility.yul\":9991:10465   */\n      swap3\n      pop\n      swap3\n      swap1\n      pop\n      jump\t// out\n        /* \"#utility.yul\":10471:10651   */\n    tag_346:\n        /* \"#utility.yul\":10519:10596   */\n      0x4e487b7100000000000000000000000000000000000000000000000000000000\n        /* \"#utility.yul\":10516:10517   */\n      0x00\n        /* \"#utility.yul\":10509:10597   */\n      mstore\n        /* \"#utility.yul\":10616:10620   */\n      0x22\n        /* \"#utility.yul\":10613:10614   */\n      0x04\n        /* \"#utility.yul\":10606:10621   */\n      mstore\n        /* \"#utility.yul\":10640:10644   */\n      0x24\n        /* \"#utility.yul\":10637:10638   */\n      0x00\n        /* \"#utility.yul\":10630:10645   */\n      revert\n        /* \"#utility.yul\":10657:10977   */\n    tag_126:\n        /* \"#utility.yul\":10701:10707   */\n      0x00\n        /* \"#utility.yul\":10738:10739   */\n      0x02\n        /* \"#utility.yul\":10732:10736   */\n      dup3\n        /* \"#utility.yul\":10728:10740   */\n      div\n        /* \"#utility.yul\":10718:10740   */\n      swap1\n      pop\n        /* \"#utility.yul\":10785:10786   */\n      0x01\n        /* \"#utility.yul\":10779:10783   */\n      dup3\n        /* \"#utility.yul\":10775:10787   */\n      and\n        /* \"#utility.yul\":10806:10824   */\n      dup1\n        /* \"#utility.yul\":10796:10877   */\n      tag_480\n      jumpi\n        /* \"#utility.yul\":10862:10866   */\n      0x7f\n        /* \"#utility.yul\":10854:10860   */\n      dup3\n        /* \"#utility.yul\":10850:10867   */\n      and\n        /* \"#utility.yul\":10840:10867   */\n      swap2\n      pop\n        /* \"#utility.yul\":10796:10877   */\n    tag_480:\n        /* \"#utility.yul\":10924:10926   */\n      0x20\n        /* \"#utility.yul\":10916:10922   */\n      dup3\n        /* \"#utility.yul\":10913:10927   */\n      lt\n        /* \"#utility.yul\":10893:10911   */\n      dup2\n        /* \"#utility.yul\":10890:10928   */\n      sub\n        /* \"#utility.yul\":10887:10971   */\n      tag_481\n      jumpi\n        /* \"#utility.yul\":10943:10961   */\n      tag_482\n      tag_346\n      jump\t// in\n    tag_482:\n        /* \"#utility.yul\":10887:10971   */\n    tag_481:\n        /* \"#utility.yul\":10708:10977   */\n      pop\n        /* \"#utility.yul\":10657:10977   */\n      swap2\n      swap1\n      pop\n      jump\t// out\n        /* \"#utility.yul\":10983:11131   */\n    tag_347:\n        /* \"#utility.yul\":11085:11096   */\n      0x00\n        /* \"#utility.yul\":11122:11125   */\n      dup2\n        /* \"#utility.yul\":11107:11125   */\n      swap1\n      pop\n        /* \"#utility.yul\":10983:11131   */\n      swap3\n      swap2\n      pop\n      pop\n      jump\t// out\n        /* \"#utility.yul\":11137:11527   */\n    tag_348:\n        /* \"#utility.yul\":11243:11246   */\n      0x00\n        /* \"#utility.yul\":11271:11310   */\n      tag_485\n        /* \"#utility.yul\":11304:11309   */\n      dup3\n        /* \"#utility.yul\":11271:11310   */\n      tag_322\n      jump\t// in\n    tag_485:\n        /* \"#utility.yul\":11326:11415   */\n      tag_486\n        /* \"#utility.yul\":11408:11414   */\n      dup2\n        /* \"#utility.yul\":11403:11406   */\n      dup6\n        /* \"#utility.yul\":11326:11415   */\n      tag_347\n      jump\t// in\n    tag_486:\n        /* \"#utility.yul\":11319:11415   */\n      swap4\n      pop\n        /* \"#utility.yul\":11424:11489   */\n      tag_487\n        /* \"#utility.yul\":11482:11488   */\n      dup2\n        /* \"#utility.yul\":11477:11480   */\n      dup6\n        /* \"#utility.yul\":11470:11474   */\n      0x20\n        /* \"#utility.yul\":11463:11468   */\n      dup7\n        /* \"#utility.yul\":11459:11475   */\n      add\n        /* \"#utility.yul\":11424:11489   */\n      tag_324\n      jump\t// in\n    tag_487:\n        /* \"#utility.yul\":11514:11520   */\n      dup1\n        /* \"#utility.yul\":11509:11512   */\n      dup5\n        /* \"#utility.yul\":11505:11521   */\n      add\n        /* \"#utility.yul\":11498:11521   */\n      swap2\n      pop\n        /* \"#utility.yul\":11247:11527   */\n      pop\n        /* \"#utility.yul\":11137:11527   */\n      swap3\n      swap2\n      pop\n      pop\n      jump\t// out\n        /* \"#utility.yul\":11533:11968   */\n    tag_207:\n        /* \"#utility.yul\":11713:11716   */\n      0x00\n        /* \"#utility.yul\":11735:11830   */\n      tag_489\n        /* \"#utility.yul\":11826:11829   */\n      dup3\n        /* \"#utility.yul\":11817:11823   */\n      dup6\n        /* \"#utility.yul\":11735:11830   */\n      tag_348\n      jump\t// in\n    tag_489:\n        /* \"#utility.yul\":11728:11830   */\n      swap2\n      pop\n        /* \"#utility.yul\":11847:11942   */\n      tag_490\n        /* \"#utility.yul\":11938:11941   */\n      dup3\n        /* \"#utility.yul\":11929:11935   */\n      dup5\n        /* \"#utility.yul\":11847:11942   */\n      tag_348\n      jump\t// in\n    tag_490:\n        /* \"#utility.yul\":11840:11942   */\n      swap2\n      pop\n        /* \"#utility.yul\":11959:11962   */\n      dup2\n        /* \"#utility.yul\":11952:11962   */\n      swap1\n      pop\n        /* \"#utility.yul\":11533:11968   */\n      swap4\n      swap3\n      pop\n      pop\n      pop\n      jump\t// out\n        /* \"#utility.yul\":11974:12154   */\n    tag_349:\n        /* \"#utility.yul\":12022:12099   */\n      0x4e487b7100000000000000000000000000000000000000000000000000000000\n        /* \"#utility.yul\":12019:12020   */\n      0x00\n        /* \"#utility.yul\":12012:12100   */\n      mstore\n        /* \"#utility.yul\":12119:12123   */\n      0x12\n        /* \"#utility.yul\":12116:12117   */\n      0x04\n        /* \"#utility.yul\":12109:12124   */\n      mstore\n        /* \"#utility.yul\":12143:12147   */\n      0x24\n        /* \"#utility.yul\":12140:12141   */\n      0x00\n        /* \"#utility.yul\":12133:12148   */\n      revert\n        /* \"#utility.yul\":12160:12336   */\n    tag_215:\n        /* \"#utility.yul\":12192:12193   */\n      0x00\n        /* \"#utility.yul\":12209:12229   */\n      tag_493\n        /* \"#utility.yul\":12227:12228   */\n      dup3\n        /* \"#utility.yul\":12209:12229   */\n      tag_327\n      jump\t// in\n    tag_493:\n        /* \"#utility.yul\":12204:12229   */\n      swap2\n      pop\n        /* \"#utility.yul\":12243:12263   */\n      tag_494\n        /* \"#utility.yul\":12261:12262   */\n      dup4\n        /* \"#utility.yul\":12243:12263   */\n      tag_327\n      jump\t// in\n    tag_494:\n        /* \"#utility.yul\":12238:12263   */\n      swap3\n      pop\n        /* \"#utility.yul\":12282:12283   */\n      dup3\n        /* \"#utility.yul\":12272:12307   */\n      tag_495\n      jumpi\n        /* \"#utility.yul\":12287:12305   */\n      tag_496\n      tag_349\n      jump\t// in\n    tag_496:\n        /* \"#utility.yul\":12272:12307   */\n    tag_495:\n        /* \"#utility.yul\":12328:12329   */\n      dup3\n        /* \"#utility.yul\":12325:12326   */\n      dup3\n        /* \"#utility.yul\":12321:12330   */\n      mod\n        /* \"#utility.yul\":12316:12330   */\n      swap1\n      pop\n        /* \"#utility.yul\":12160:12336   */\n      swap3\n      swap2\n      pop\n      pop\n      jump\t// out\n        /* \"#utility.yul\":12342:12522   */\n    tag_350:\n        /* \"#utility.yul\":12390:12467   */\n      0x4e487b7100000000000000000000000000000000000000000000000000000000\n        /* \"#utility.yul\":12387:12388   */\n      0x00\n        /* \"#utility.yul\":12380:12468   */\n      mstore\n        /* \"#utility.yul\":12487:12491   */\n      0x11\n        /* \"#utility.yul\":12484:12485   */\n      0x04\n        /* \"#utility.yul\":12477:12492   */\n      mstore\n        /* \"#utility.yul\":12511:12515   */\n      0x24\n        /* \"#utility.yul\":12508:12509   */\n      0x00\n        /* \"#utility.yul\":12501:12516   */\n      revert\n        /* \"#utility.yul\":12528:12722   */\n    tag_229:\n        /* \"#utility.yul\":12568:12572   */\n      0x00\n        /* \"#utility.yul\":12588:12608   */\n      tag_499\n        /* \"#utility.yul\":12606:12607   */\n      dup3\n        /* \"#utility.yul\":12588:12608   */\n      tag_327\n      jump\t// in\n    tag_499:\n        /* \"#utility.yul\":12583:12608   */\n      swap2\n      pop\n        /* \"#utility.yul\":12622:12642   */\n      tag_500\n        /* \"#utility.yul\":12640:12641   */\n      dup4\n        /* \"#utility.yul\":12622:12642   */\n      tag_327\n      jump\t// in\n    tag_500:\n        /* \"#utility.yul\":12617:12642   */\n      swap3\n      pop\n        /* \"#utility.yul\":12666:12667   */\n      dup3\n        /* \"#utility.yul\":12663:12664   */\n      dup3\n        /* \"#utility.yul\":12659:12668   */\n      sub\n        /* \"#utility.yul\":12651:12668   */\n      swap1\n      pop\n        /* \"#utility.yul\":12690:12691   */\n      dup2\n        /* \"#utility.yul\":12684:12688   */\n      dup2\n        /* \"#utility.yul\":12681:12692   */\n      gt\n        /* \"#utility.yul\":12678:12715   */\n      iszero\n      tag_501\n      jumpi\n        /* \"#utility.yul\":12695:12713   */\n      tag_502\n      tag_350\n      jump\t// in\n    tag_502:\n        /* \"#utility.yul\":12678:12715   */\n    tag_501:\n        /* \"#utility.yul\":12528:12722   */\n      swap3\n      swap2\n      pop\n      pop\n      jump\t// out\n        /* \"#utility.yul\":12728:12919   */\n    tag_232:\n        /* \"#utility.yul\":12768:12771   */\n      0x00\n        /* \"#utility.yul\":12787:12807   */\n      tag_504\n        /* \"#utility.yul\":12805:12806   */\n      dup3\n        /* \"#utility.yul\":12787:12807   */\n      tag_327\n      jump\t// in\n    tag_504:\n        /* \"#utility.yul\":12782:12807   */\n      swap2\n      pop\n        /* \"#utility.yul\":12821:12841   */\n      tag_505\n        /* \"#utility.yul\":12839:12840   */\n      dup4\n        /* \"#utility.yul\":12821:12841   */\n      tag_327\n      jump\t// in\n    tag_505:\n        /* \"#utility.yul\":12816:12841   */\n      swap3\n      pop\n        /* \"#utility.yul\":12864:12865   */\n      dup3\n        /* \"#utility.yul\":12861:12862   */\n      dup3\n        /* \"#utility.yul\":12857:12866   */\n      add\n        /* \"#utility.yul\":12850:12866   */\n      swap1\n      pop\n        /* \"#utility.yul\":12885:12888   */\n      dup1\n        /* \"#utility.yul\":12882:12883   */\n      dup3\n        /* \"#utility.yul\":12879:12889   */\n      gt\n        /* \"#utility.yul\":12876:12912   */\n      iszero\n      tag_506\n      jumpi\n        /* \"#utility.yul\":12892:12910   */\n      tag_507\n      tag_350\n      jump\t// in\n    tag_507:\n        /* \"#utility.yul\":12876:12912   */\n    tag_506:\n        /* \"#utility.yul\":12728:12919   */\n      swap3\n      swap2\n      pop\n      pop\n      jump\t// out\n        /* \"#utility.yul\":12925:13335   */\n    tag_257:\n        /* \"#utility.yul\":12965:12972   */\n      0x00\n        /* \"#utility.yul\":12988:13008   */\n      tag_509\n        /* \"#utility.yul\":13006:13007   */\n      dup3\n        /* \"#utility.yul\":12988:13008   */\n      tag_327\n      jump\t// in\n    tag_509:\n        /* \"#utility.yul\":12983:13008   */\n      swap2\n      pop\n        /* \"#utility.yul\":13022:13042   */\n      tag_510\n        /* \"#utility.yul\":13040:13041   */\n      dup4\n        /* \"#utility.yul\":13022:13042   */\n      tag_327\n      jump\t// in\n    tag_510:\n        /* \"#utility.yul\":13017:13042   */\n      swap3\n      pop\n        /* \"#utility.yul\":13077:13078   */\n      dup3\n        /* \"#utility.yul\":13074:13075   */\n      dup3\n        /* \"#utility.yul\":13070:13079   */\n      mul\n        /* \"#utility.yul\":13099:13129   */\n      tag_511\n        /* \"#utility.yul\":13117:13128   */\n      dup2\n        /* \"#utility.yul\":13099:13129   */\n      tag_327\n      jump\t// in\n    tag_511:\n        /* \"#utility.yul\":13088:13129   */\n      swap2\n      pop\n        /* \"#utility.yul\":13278:13279   */\n      dup3\n        /* \"#utility.yul\":13269:13276   */\n      dup3\n        /* \"#utility.yul\":13265:13280   */\n      div\n        /* \"#utility.yul\":13262:13263   */\n      dup5\n        /* \"#utility.yul\":13259:13281   */\n      eq\n        /* \"#utility.yul\":13239:13240   */\n      dup4\n        /* \"#utility.yul\":13232:13241   */\n      iszero\n        /* \"#utility.yul\":13212:13295   */\n      or\n        /* \"#utility.yul\":13189:13328   */\n      tag_512\n      jumpi\n        /* \"#utility.yul\":13308:13326   */\n      tag_513\n      tag_350\n      jump\t// in\n    tag_513:\n        /* \"#utility.yul\":13189:13328   */\n    tag_512:\n        /* \"#utility.yul\":12973:13335   */\n      pop\n        /* \"#utility.yul\":12925:13335   */\n      swap3\n      swap2\n      pop\n      pop\n      jump\t// out\n        /* \"#utility.yul\":13341:13439   */\n    tag_351:\n        /* \"#utility.yul\":13392:13398   */\n      0x00\n        /* \"#utility.yul\":13426:13431   */\n      dup2\n        /* \"#utility.yul\":13420:13432   */\n      mload\n        /* \"#utility.yul\":13410:13432   */\n      swap1\n      pop\n        /* \"#utility.yul\":13341:13439   */\n      swap2\n      swap1\n      pop\n      jump\t// out\n        /* \"#utility.yul\":13445:13613   */\n    tag_352:\n        /* \"#utility.yul\":13528:13539   */\n      0x00\n        /* \"#utility.yul\":13562:13568   */\n      dup3\n        /* \"#utility.yul\":13557:13560   */\n      dup3\n        /* \"#utility.yul\":13550:13569   */\n      mstore\n        /* \"#utility.yul\":13602:13606   */\n      0x20\n        /* \"#utility.yul\":13597:13600   */\n      dup3\n        /* \"#utility.yul\":13593:13607   */\n      add\n        /* \"#utility.yul\":13578:13607   */\n      swap1\n      pop\n        /* \"#utility.yul\":13445:13613   */\n      swap3\n      swap2\n      pop\n      pop\n      jump\t// out\n        /* \"#utility.yul\":13619:13992   */\n    tag_353:\n        /* \"#utility.yul\":13705:13708   */\n      0x00\n        /* \"#utility.yul\":13733:13771   */\n      tag_517\n        /* \"#utility.yul\":13765:13770   */\n      dup3\n        /* \"#utility.yul\":13733:13771   */\n      tag_351\n      jump\t// in\n    tag_517:\n        /* \"#utility.yul\":13787:13857   */\n      tag_518\n        /* \"#utility.yul\":13850:13856   */\n      dup2\n        /* \"#utility.yul\":13845:13848   */\n      dup6\n        /* \"#utility.yul\":13787:13857   */\n      tag_352\n      jump\t// in\n    tag_518:\n        /* \"#utility.yul\":13780:13857   */\n      swap4\n      pop\n        /* \"#utility.yul\":13866:13931   */\n      tag_519\n        /* \"#utility.yul\":13924:13930   */\n      dup2\n        /* \"#utility.yul\":13919:13922   */\n      dup6\n        /* \"#utility.yul\":13912:13916   */\n      0x20\n        /* \"#utility.yul\":13905:13910   */\n      dup7\n        /* \"#utility.yul\":13901:13917   */\n      add\n        /* \"#utility.yul\":13866:13931   */\n      tag_324\n      jump\t// in\n    tag_519:\n        /* \"#utility.yul\":13956:13985   */\n      tag_520\n        /* \"#utility.yul\":13978:13984   */\n      dup2\n        /* \"#utility.yul\":13956:13985   */\n      tag_325\n      jump\t// in\n    tag_520:\n        /* \"#utility.yul\":13951:13954   */\n      dup5\n        /* \"#utility.yul\":13947:13986   */\n      add\n        /* \"#utility.yul\":13940:13986   */\n      swap2\n      pop\n        /* \"#utility.yul\":13709:13992   */\n      pop\n        /* \"#utility.yul\":13619:13992   */\n      swap3\n      swap2\n      pop\n      pop\n      jump\t// out\n        /* \"#utility.yul\":13998:14638   */\n    tag_273:\n        /* \"#utility.yul\":14193:14197   */\n      0x00\n        /* \"#utility.yul\":14231:14234   */\n      0x80\n        /* \"#utility.yul\":14220:14229   */\n      dup3\n        /* \"#utility.yul\":14216:14235   */\n      add\n        /* \"#utility.yul\":14208:14235   */\n      swap1\n      pop\n        /* \"#utility.yul\":14245:14316   */\n      tag_522\n        /* \"#utility.yul\":14313:14314   */\n      0x00\n        /* \"#utility.yul\":14302:14311   */\n      dup4\n        /* \"#utility.yul\":14298:14315   */\n      add\n        /* \"#utility.yul\":14289:14295   */\n      dup8\n        /* \"#utility.yul\":14245:14316   */\n      tag_332\n      jump\t// in\n    tag_522:\n        /* \"#utility.yul\":14326:14398   */\n      tag_523\n        /* \"#utility.yul\":14394:14396   */\n      0x20\n        /* \"#utility.yul\":14383:14392   */\n      dup4\n        /* \"#utility.yul\":14379:14397   */\n      add\n        /* \"#utility.yul\":14370:14376   */\n      dup7\n        /* \"#utility.yul\":14326:14398   */\n      tag_332\n      jump\t// in\n    tag_523:\n        /* \"#utility.yul\":14408:14480   */\n      tag_524\n        /* \"#utility.yul\":14476:14478   */\n      0x40\n        /* \"#utility.yul\":14465:14474   */\n      dup4\n        /* \"#utility.yul\":14461:14479   */\n      add\n        /* \"#utility.yul\":14452:14458   */\n      dup6\n        /* \"#utility.yul\":14408:14480   */\n      tag_335\n      jump\t// in\n    tag_524:\n        /* \"#utility.yul\":14527:14536   */\n      dup2\n        /* \"#utility.yul\":14521:14525   */\n      dup2\n        /* \"#utility.yul\":14517:14537   */\n      sub\n        /* \"#utility.yul\":14512:14514   */\n      0x60\n        /* \"#utility.yul\":14501:14510   */\n      dup4\n        /* \"#utility.yul\":14497:14515   */\n      add\n        /* \"#utility.yul\":14490:14538   */\n      mstore\n        /* \"#utility.yul\":14555:14631   */\n      tag_525\n        /* \"#utility.yul\":14626:14630   */\n      dup2\n        /* \"#utility.yul\":14617:14623   */\n      dup5\n        /* \"#utility.yul\":14555:14631   */\n      tag_353\n      jump\t// in\n    tag_525:\n        /* \"#utility.yul\":14547:14631   */\n      swap1\n      pop\n        /* \"#utility.yul\":13998:14638   */\n      swap6\n      swap5\n      pop\n      pop\n      pop\n      pop\n      pop\n      jump\t// out\n        /* \"#utility.yul\":14644:14785   */\n    tag_354:\n        /* \"#utility.yul\":14700:14705   */\n      0x00\n        /* \"#utility.yul\":14731:14737   */\n      dup2\n        /* \"#utility.yul\":14725:14738   */\n      mload\n        /* \"#utility.yul\":14716:14738   */\n      swap1\n      pop\n        /* \"#utility.yul\":14747:14779   */\n      tag_527\n        /* \"#utility.yul\":14773:14778   */\n      dup2\n        /* \"#utility.yul\":14747:14779   */\n      tag_318\n      jump\t// in\n    tag_527:\n        /* \"#utility.yul\":14644:14785   */\n      swap3\n      swap2\n      pop\n      pop\n      jump\t// out\n        /* \"#utility.yul\":14791:15140   */\n    tag_276:\n        /* \"#utility.yul\":14860:14866   */\n      0x00\n        /* \"#utility.yul\":14909:14911   */\n      0x20\n        /* \"#utility.yul\":14897:14906   */\n      dup3\n        /* \"#utility.yul\":14888:14895   */\n      dup5\n        /* \"#utility.yul\":14884:14907   */\n      sub\n        /* \"#utility.yul\":14880:14912   */\n      slt\n        /* \"#utility.yul\":14877:14996   */\n      iszero\n      tag_529\n      jumpi\n        /* \"#utility.yul\":14915:14994   */\n      tag_530\n      tag_315\n      jump\t// in\n    tag_530:\n        /* \"#utility.yul\":14877:14996   */\n    tag_529:\n        /* \"#utility.yul\":15035:15036   */\n      0x00\n        /* \"#utility.yul\":15060:15123   */\n      tag_531\n        /* \"#utility.yul\":15115:15122   */\n      dup5\n        /* \"#utility.yul\":15106:15112   */\n      dup3\n        /* \"#utility.yul\":15095:15104   */\n      dup6\n        /* \"#utility.yul\":15091:15113   */\n      add\n        /* \"#utility.yul\":15060:15123   */\n      tag_354\n      jump\t// in\n    tag_531:\n        /* \"#utility.yul\":15050:15123   */\n      swap2\n      pop\n        /* \"#utility.yul\":15006:15133   */\n      pop\n        /* \"#utility.yul\":14791:15140   */\n      swap3\n      swap2\n      pop\n      pop\n      jump\t// out\n        /* \"#utility.yul\":15146:15331   */\n    tag_288:\n        /* \"#utility.yul\":15186:15187   */\n      0x00\n        /* \"#utility.yul\":15203:15223   */\n      tag_533\n        /* \"#utility.yul\":15221:15222   */\n      dup3\n        /* \"#utility.yul\":15203:15223   */\n      tag_327\n      jump\t// in\n    tag_533:\n        /* \"#utility.yul\":15198:15223   */\n      swap2\n      pop\n        /* \"#utility.yul\":15237:15257   */\n      tag_534\n        /* \"#utility.yul\":15255:15256   */\n      dup4\n        /* \"#utility.yul\":15237:15257   */\n      tag_327\n      jump\t// in\n    tag_534:\n        /* \"#utility.yul\":15232:15257   */\n      swap3\n      pop\n        /* \"#utility.yul\":15276:15277   */\n      dup3\n        /* \"#utility.yul\":15266:15301   */\n      tag_535\n      jumpi\n        /* \"#utility.yul\":15281:15299   */\n      tag_536\n      tag_349\n      jump\t// in\n    tag_536:\n        /* \"#utility.yul\":15266:15301   */\n    tag_535:\n        /* \"#utility.yul\":15323:15324   */\n      dup3\n        /* \"#utility.yul\":15320:15321   */\n      dup3\n        /* \"#utility.yul\":15316:15325   */\n      div\n        /* \"#utility.yul\":15311:15325   */\n      swap1\n      pop\n        /* \"#utility.yul\":15146:15331   */\n      swap3\n      swap2\n      pop\n      pop\n      jump\t// out\n        /* \"#utility.yul\":15337:15570   */\n    tag_295:\n        /* \"#utility.yul\":15376:15379   */\n      0x00\n        /* \"#utility.yul\":15399:15423   */\n      tag_538\n        /* \"#utility.yul\":15417:15422   */\n      dup3\n        /* \"#utility.yul\":15399:15423   */\n      tag_327\n      jump\t// in\n    tag_538:\n        /* \"#utility.yul\":15390:15423   */\n      swap2\n      pop\n        /* \"#utility.yul\":15445:15511   */\n      0xffffffffffffffffffffffffffffffffffffffffffffffffffffffffffffffff\n        /* \"#utility.yul\":15438:15443   */\n      dup3\n        /* \"#utility.yul\":15435:15512   */\n      sub\n        /* \"#utility.yul\":15432:15535   */\n      tag_539\n      jumpi\n        /* \"#utility.yul\":15515:15533   */\n      tag_540\n      tag_350\n      jump\t// in\n    tag_540:\n        /* \"#utility.yul\":15432:15535   */\n    tag_539:\n        /* \"#utility.yul\":15562:15563   */\n      0x01\n        /* \"#utility.yul\":15555:15560   */\n      dup3\n        /* \"#utility.yul\":15551:15564   */\n      add\n        /* \"#utility.yul\":15544:15564   */\n      swap1\n      pop\n        /* \"#utility.yul\":15337:15570   */\n      swap2\n      swap1\n      pop\n      jump\t// out\n        /* \"#utility.yul\":15576:15756   */\n    tag_308:\n        /* \"#utility.yul\":15624:15701   */\n      0x4e487b7100000000000000000000000000000000000000000000000000000000\n        /* \"#utility.yul\":15621:15622   */\n      0x00\n        /* \"#utility.yul\":15614:15702   */\n      mstore\n        /* \"#utility.yul\":15721:15725   */\n      0x32\n        /* \"#utility.yul\":15718:15719   */\n      0x04\n        /* \"#utility.yul\":15711:15726   */\n      mstore\n        /* \"#utility.yul\":15745:15749   */\n      0x24\n        /* \"#utility.yul\":15742:15743   */\n      0x00\n        /* \"#utility.yul\":15735:15750   */\n      revert\n    stop\n    data_626642f6930f156f677ccaa99d1115840f2527d6f062eede1de4dda1bd081a2d 68747470733a2f2f676174657761792e70696e6174612e636c6f75642f697066732f516d65794b6e7658584d78417557473570743335457a3851684a6852363352445653775566736a4b61795234325a2f\n\n    auxdata: 0xa2646970667358221220a5a1e7fc49f21c9a76bc811c7cf78432d82649d2a53102733165e5fffcb3b98f64736f6c63430008110033\n}\n",
				"bytecode": {
					"linkReferences": {},
					"object": "60806040523480156200001157600080fd5b5060405162002c9b38038062002c9b83398181016040528101906200003791906200027b565b83600790816200004891906200056c565b5082600890816200005a91906200056c565b508160058190555062000072620000a860201b60201c565b60048190555080600081905550671bc16d674ec8000060018190555061b3b0600381905550436002819055505050505062000653565b600090565b6000604051905090565b600080fd5b600080fd5b600080fd5b600080fd5b6000601f19601f8301169050919050565b7f4e487b7100000000000000000000000000000000000000000000000000000000600052604160045260246000fd5b6200011682620000cb565b810181811067ffffffffffffffff82111715620001385762000137620000dc565b5b80604052505050565b60006200014d620000ad565b90506200015b82826200010b565b919050565b600067ffffffffffffffff8211156200017e576200017d620000dc565b5b6200018982620000cb565b9050602081019050919050565b60005b83811015620001b657808201518184015260208101905062000199565b60008484015250505050565b6000620001d9620001d38462000160565b62000141565b905082815260208101848484011115620001f857620001f7620000c6565b5b6200020584828562000196565b509392505050565b600082601f830112620002255762000224620000c1565b5b815162000237848260208601620001c2565b91505092915050565b6000819050919050565b620002558162000240565b81146200026157600080fd5b50565b60008151905062000275816200024a565b92915050565b60008060008060808587031215620002985762000297620000b7565b5b600085015167ffffffffffffffff811115620002b957620002b8620000bc565b5b620002c7878288016200020d565b945050602085015167ffffffffffffffff811115620002eb57620002ea620000bc565b5b620002f9878288016200020d565b93505060406200030c8782880162000264565b92505060606200031f8782880162000264565b91505092959194509250565b600081519050919050565b7f4e487b7100000000000000000000000000000000000000000000000000000000600052602260045260246000fd5b600060028204905060018216806200037e57607f821691505b60208210810362000394576200039362000336565b5b50919050565b60008190508160005260206000209050919050565b60006020601f8301049050919050565b600082821b905092915050565b600060088302620003fe7fffffffffffffffffffffffffffffffffffffffffffffffffffffffffffffffff82620003bf565b6200040a8683620003bf565b95508019841693508086168417925050509392505050565b6000819050919050565b60006200044d62000447620004418462000240565b62000422565b62000240565b9050919050565b6000819050919050565b62000469836200042c565b62000481620004788262000454565b848454620003cc565b825550505050565b600090565b6200049862000489565b620004a58184846200045e565b505050565b5b81811015620004cd57620004c16000826200048e565b600181019050620004ab565b5050565b601f8211156200051c57620004e6816200039a565b620004f184620003af565b8101602085101562000501578190505b620005196200051085620003af565b830182620004aa565b50505b505050565b600082821c905092915050565b6000620005416000198460080262000521565b1980831691505092915050565b60006200055c83836200052e565b9150826002028217905092915050565b62000577826200032b565b67ffffffffffffffff811115620005935762000592620000dc565b5b6200059f825462000365565b620005ac828285620004d1565b600060209050601f831160018114620005e45760008415620005cf578287015190505b620005db85826200054e565b8655506200064b565b601f198416620005f4866200039a565b60005b828110156200061e57848901518255600182019150602085019450602081019050620005f7565b868310156200063e57848901516200063a601f8916826200052e565b8355505b6001600288020188555050505b505050505050565b61263880620006636000396000f3fe608060405234801561001057600080fd5b506004361061014d5760003560e01c80636352211e116100c3578063b88d4fde1161007c578063b88d4fde146103a0578063ba6687f4146103bc578063c87b56dd146103ec578063d5abeb011461041c578063e985e9c51461043a578063f390c3281461046a5761014d565b80636352211e146102ca57806370a08231146102fa57806394fc67d11461032a57806395d89b41146103485780639f77339914610366578063a22cb465146103845761014d565b80631c1b8772116101155780631c1b87721461020a57806323b872dd14610226578063325b272a1461024257806338020dcc1461027257806342842e0e146102905780635e7ec827146102ac5761014d565b806301ffc9a71461015257806306fdde0314610182578063081812fc146101a0578063095ea7b3146101d057806318160ddd146101ec575b600080fd5b61016c60048036038101906101679190611cdf565b61049a565b6040516101799190611d27565b60405180910390f35b61018a61057c565b6040516101979190611dd2565b60405180910390f35b6101ba60048036038101906101b59190611e2a565b61060e565b6040516101c79190611e98565b60405180910390f35b6101ea60048036038101906101e59190611edf565b61068a565b005b6101f461078e565b6040516102019190611f2e565b60405180910390f35b610224600480360381019061021f9190611f49565b6107a5565b005b610240600480360381019061023b9190611f76565b610889565b005b61025c60048036038101906102579190611f49565b610899565b6040516102699190611f2e565b60405180910390f35b61027a610994565b6040516102879190611f2e565b60405180910390f35b6102aa60048036038101906102a59190611f76565b61099a565b005b6102b46109ba565b6040516102c19190611f2e565b60405180910390f35b6102e460048036038101906102df9190611e2a565b6109c0565b6040516102f19190611e98565b60405180910390f35b610314600480360381019061030f9190611f49565b6109d6565b6040516103219190611f2e565b60405180910390f35b610332610aa5565b60405161033f9190611f2e565b60405180910390f35b610350610aab565b60405161035d9190611dd2565b60405180910390f35b61036e610b3d565b60405161037b9190611f2e565b60405180910390f35b61039e60048036038101906103999190611ff5565b610b43565b005b6103ba60048036038101906103b5919061216a565b610cba565b005b6103d660048036038101906103d19190611e2a565b610d32565b6040516103e39190611f2e565b60405180910390f35b61040660048036038101906104019190611e2a565b610da9565b6040516104139190611dd2565b60405180910390f35b610424610e47565b6040516104319190611f2e565b60405180910390f35b610454600480360381019061044f91906121ed565b610e5e565b6040516104619190611d27565b60405180910390f35b610484600480360381019061047f9190611e2a565b610ef2565b6040516104919190611f2e565b60405180910390f35b60007f80ac58cd000000000000000000000000000000000000000000000000000000007bffffffffffffffffffffffffffffffffffffffffffffffffffffffff1916827bffffffffffffffffffffffffffffffffffffffffffffffffffffffff1916148061056557507f5b5e139f000000000000000000000000000000000000000000000000000000007bffffffffffffffffffffffffffffffffffffffffffffffffffffffff1916827bffffffffffffffffffffffffffffffffffffffffffffffffffffffff1916145b80610575575061057482610f54565b5b9050919050565b60606007805461058b9061225c565b80601f01602080910402602001604051908101604052809291908181526020018280546105b79061225c565b80156106045780601f106105d957610100808354040283529160200191610604565b820191906000526020600020905b8154815290600101906020018083116105e757829003601f168201915b5050505050905090565b600061061982610fbe565b61064f576040517fcf4700e400000000000000000000000000000000000000000000000000000000815260040160405180910390fd5b600b600083815260200190815260200160002060009054906101000a900473ffffffffffffffffffffffffffffffffffffffff169050919050565b6000610695826109c0565b90508073ffffffffffffffffffffffffffffffffffffffff168373ffffffffffffffffffffffffffffffffffffffff16036106fc576040517f943f7b8c00000000000000000000000000000000000000000000000000000000815260040160405180910390fd5b8073ffffffffffffffffffffffffffffffffffffffff1661071b61100c565b73ffffffffffffffffffffffffffffffffffffffff161461077e576107478161074261100c565b610e5e565b61077d576040517fcfb3b94200000000000000000000000000000000000000000000000000000000815260040160405180910390fd5b5b610789838383611014565b505050565b60006107986110c6565b6006546004540303905090565b600061081e6001610810600d60008673ffffffffffffffffffffffffffffffffffffffff1673ffffffffffffffffffffffffffffffffffffffff16815260200190815260200160002060006001815260200190815260200160002054436110cb90919063ffffffff16565b6110e190919063ffffffff16565b9050600061087c600d60008573ffffffffffffffffffffffffffffffffffffffff1673ffffffffffffffffffffffffffffffffffffffff16815260200190815260200160002060006001815260200190815260200160002054610d32565b9050600043905050505050565b6108948383836110f7565b505050565b600080610900600d60008573ffffffffffffffffffffffffffffffffffffffff1673ffffffffffffffffffffffffffffffffffffffff16815260200190815260200160002060006001815260200190815260200160002054436110cb90919063ffffffff16565b9050600061091f82610911866109d6565b6115bd90919063ffffffff16565b9050600061098782600d60008873ffffffffffffffffffffffffffffffffffffffff1673ffffffffffffffffffffffffffffffffffffffff168152602001908152602001600020600060028152602001908152602001600020546110e190919063ffffffff16565b9050809350505050919050565b60015481565b6109b583838360405180602001604052806000815250610cba565b505050565b60035481565b60006109cb826115d3565b600001519050919050565b60008073ffffffffffffffffffffffffffffffffffffffff168273ffffffffffffffffffffffffffffffffffffffff1603610a3d576040517f8f4eb60400000000000000000000000000000000000000000000000000000000815260040160405180910390fd5b600a60008373ffffffffffffffffffffffffffffffffffffffff1673ffffffffffffffffffffffffffffffffffffffff16815260200190815260200160002060000160009054906101000a900467ffffffffffffffff1667ffffffffffffffff169050919050565b60025481565b606060088054610aba9061225c565b80601f0160208091040260200160405190810160405280929190818152602001828054610ae69061225c565b8015610b335780601f10610b0857610100808354040283529160200191610b33565b820191906000526020600020905b815481529060010190602001808311610b1657829003601f168201915b5050505050905090565b60005481565b610b4b61100c565b73ffffffffffffffffffffffffffffffffffffffff168273ffffffffffffffffffffffffffffffffffffffff1603610baf576040517fb06307db00000000000000000000000000000000000000000000000000000000815260040160405180910390fd5b80600c6000610bbc61100c565b73ffffffffffffffffffffffffffffffffffffffff1673ffffffffffffffffffffffffffffffffffffffff16815260200190815260200160002060008473ffffffffffffffffffffffffffffffffffffffff1673ffffffffffffffffffffffffffffffffffffffff16815260200190815260200160002060006101000a81548160ff0219169083151502179055508173ffffffffffffffffffffffffffffffffffffffff16610c6961100c565b73ffffffffffffffffffffffffffffffffffffffff167f17307eab39ab6107e8899845ad3d59bd9653f200f220920489ca2b5937696c3183604051610cae9190611d27565b60405180910390a35050565b610cc58484846110f7565b610ce48373ffffffffffffffffffffffffffffffffffffffff1661185e565b15610d2c57610cf584848484611881565b610d2b576040517fd1a57ed600000000000000000000000000000000000000000000000000000000815260040160405180910390fd5b5b50505050565b600080610d52670de0b6b3a76400006001546115bd90919063ffffffff16565b90506000610d85600254610d77670de0b6b3a7640000876115bd90919063ffffffff16565b6119d190919063ffffffff16565b90506000610d9c82846119d190919063ffffffff16565b9050809350505050919050565b6060610db482610fbe565b610dea576040517fa14c4b5000000000000000000000000000000000000000000000000000000000815260040160405180910390fd5b6000610df46119e7565b90506000815103610e145760405180602001604052806000815250610e3f565b80610e1e84611a07565b604051602001610e2f9291906122c9565b6040516020818303038152906040525b915050919050565b6000610e516110c6565b6006546005540303905090565b6000600c60008473ffffffffffffffffffffffffffffffffffffffff1673ffffffffffffffffffffffffffffffffffffffff16815260200190815260200160002060008373ffffffffffffffffffffffffffffffffffffffff1673ffffffffffffffffffffffffffffffffffffffff16815260200190815260200160002060009054906101000a900460ff16905092915050565b600080610f1c83610f0e600054866115bd90919063ffffffff16565b6110e190919063ffffffff16565b90506000600a82610f2d919061231c565b03610f3b5760019050610f4b565b600a81610f48919061231c565b90505b80915050919050565b60007f01ffc9a7000000000000000000000000000000000000000000000000000000007bffffffffffffffffffffffffffffffffffffffffffffffffffffffff1916827bffffffffffffffffffffffffffffffffffffffffffffffffffffffff1916149050919050565b600081610fc96110c6565b11158015610fd8575060045482105b8015611005575060096000838152602001908152602001600020600001601c9054906101000a900460ff16155b9050919050565b600033905090565b82600b600084815260200190815260200160002060006101000a81548173ffffffffffffffffffffffffffffffffffffffff021916908373ffffffffffffffffffffffffffffffffffffffff160217905550818373ffffffffffffffffffffffffffffffffffffffff168273ffffffffffffffffffffffffffffffffffffffff167f8c5be1e5ebec7d5bd14f71427d1e84f3dd0314c0f7b2291e5b200ac8c7c3b92560405160405180910390a4505050565b600090565b600081836110d9919061237c565b905092915050565b600081836110ef91906123b0565b905092915050565b61110083611b67565b61110982611b67565b6000611114826115d3565b90508373ffffffffffffffffffffffffffffffffffffffff16816000015173ffffffffffffffffffffffffffffffffffffffff161461117f576040517fa114810000000000000000000000000000000000000000000000000000000000815260040160405180910390fd5b60008473ffffffffffffffffffffffffffffffffffffffff166111a061100c565b73ffffffffffffffffffffffffffffffffffffffff1614806111cf57506111ce856111c961100c565b610e5e565b5b8061121457506111dd61100c565b73ffffffffffffffffffffffffffffffffffffffff166111fc8461060e565b73ffffffffffffffffffffffffffffffffffffffff16145b90508061124d576040517f59c896be00000000000000000000000000000000000000000000000000000000815260040160405180910390fd5b600073ffffffffffffffffffffffffffffffffffffffff168473ffffffffffffffffffffffffffffffffffffffff16036112b3576040517fea553b3400000000000000000000000000000000000000000000000000000000815260040160405180910390fd5b6112c08585856001611c24565b6112cc60008487611014565b6001600a60008773ffffffffffffffffffffffffffffffffffffffff1673ffffffffffffffffffffffffffffffffffffffff16815260200190815260200160002060000160008282829054906101000a900467ffffffffffffffff160392506101000a81548167ffffffffffffffff021916908367ffffffffffffffff1602179055506001600a60008673ffffffffffffffffffffffffffffffffffffffff1673ffffffffffffffffffffffffffffffffffffffff16815260200190815260200160002060000160008282829054906101000a900467ffffffffffffffff160192506101000a81548167ffffffffffffffff021916908367ffffffffffffffff1602179055506000600960008581526020019081526020016000209050848160000160006101000a81548173ffffffffffffffffffffffffffffffffffffffff021916908373ffffffffffffffffffffffffffffffffffffffff160217905550428160000160146101000a81548167ffffffffffffffff021916908367ffffffffffffffff16021790555060006001850190506000600960008381526020019081526020016000209050600073ffffffffffffffffffffffffffffffffffffffff168160000160009054906101000a900473ffffffffffffffffffffffffffffffffffffffff1673ffffffffffffffffffffffffffffffffffffffff160361154b57600454821461154a57878160000160006101000a81548173ffffffffffffffffffffffffffffffffffffffff021916908373ffffffffffffffffffffffffffffffffffffffff16021790555084602001518160000160146101000a81548167ffffffffffffffff021916908367ffffffffffffffff1602179055505b5b505050828473ffffffffffffffffffffffffffffffffffffffff168673ffffffffffffffffffffffffffffffffffffffff167fddf252ad1be2c89b69c2b068fc378daa952ba7f163c4a11628f55a4df523b3ef60405160405180910390a46115b68585856001611c2a565b5050505050565b600081836115cb91906123e4565b905092915050565b6115db611c30565b6000829050806115e96110c6565b1161182757600454811015611826576000600960008381526020019081526020016000206040518060600160405290816000820160009054906101000a900473ffffffffffffffffffffffffffffffffffffffff1673ffffffffffffffffffffffffffffffffffffffff1673ffffffffffffffffffffffffffffffffffffffff1681526020016000820160149054906101000a900467ffffffffffffffff1667ffffffffffffffff1667ffffffffffffffff16815260200160008201601c9054906101000a900460ff1615151515815250509050806040015161182457600073ffffffffffffffffffffffffffffffffffffffff16816000015173ffffffffffffffffffffffffffffffffffffffff1614611708578092505050611859565b5b60011561182357818060019003925050600960008381526020019081526020016000206040518060600160405290816000820160009054906101000a900473ffffffffffffffffffffffffffffffffffffffff1673ffffffffffffffffffffffffffffffffffffffff1673ffffffffffffffffffffffffffffffffffffffff1681526020016000820160149054906101000a900467ffffffffffffffff1667ffffffffffffffff1667ffffffffffffffff16815260200160008201601c9054906101000a900460ff1615151515815250509050600073ffffffffffffffffffffffffffffffffffffffff16816000015173ffffffffffffffffffffffffffffffffffffffff161461181e578092505050611859565b611709565b5b505b5b6040517fdf2d9b4200000000000000000000000000000000000000000000000000000000815260040160405180910390fd5b919050565b6000808273ffffffffffffffffffffffffffffffffffffffff163b119050919050565b60008373ffffffffffffffffffffffffffffffffffffffff1663150b7a026118a761100c565b8786866040518563ffffffff1660e01b81526004016118c9949392919061247b565b6020604051808303816000875af192505050801561190557506040513d601f19601f8201168201806040525081019061190291906124dc565b60015b61197e573d8060008114611935576040519150601f19603f3d011682016040523d82523d6000602084013e61193a565b606091505b506000815103611976576040517fd1a57ed600000000000000000000000000000000000000000000000000000000815260040160405180910390fd5b805181602001fd5b63150b7a0260e01b7bffffffffffffffffffffffffffffffffffffffffffffffffffffffff1916817bffffffffffffffffffffffffffffffffffffffffffffffffffffffff191614915050949350505050565b600081836119df9190612509565b905092915050565b60606040518060800160405280605181526020016125b260519139905090565b606060008203611a4e576040518060400160405280600181526020017f30000000000000000000000000000000000000000000000000000000000000008152509050611b62565b600082905060005b60008214611a80578080611a699061253a565b915050600a82611a799190612509565b9150611a56565b60008167ffffffffffffffff811115611a9c57611a9b61203f565b5b6040519080825280601f01601f191660200182016040528015611ace5781602001600182028036833780820191505090505b5090505b60008514611b5b57600182611ae7919061237c565b9150600a85611af6919061231c565b6030611b0291906123b0565b60f81b818381518110611b1857611b17612582565b5b60200101907effffffffffffffffffffffffffffffffffffffffffffffffffffffffffffff1916908160001a905350600a85611b549190612509565b9450611ad2565b8093505050505b919050565b6000611b7282610899565b905080600d60008473ffffffffffffffffffffffffffffffffffffffff1673ffffffffffffffffffffffffffffffffffffffff1681526020019081526020016000206000600281526020019081526020016000208190555043600d60008473ffffffffffffffffffffffffffffffffffffffff1673ffffffffffffffffffffffffffffffffffffffff168152602001908152602001600020600060018152602001908152602001600020819055505050565b50505050565b50505050565b6040518060600160405280600073ffffffffffffffffffffffffffffffffffffffff168152602001600067ffffffffffffffff1681526020016000151581525090565b6000604051905090565b600080fd5b600080fd5b60007fffffffff0000000000000000000000000000000000000000000000000000000082169050919050565b611cbc81611c87565b8114611cc757600080fd5b50565b600081359050611cd981611cb3565b92915050565b600060208284031215611cf557611cf4611c7d565b5b6000611d0384828501611cca565b91505092915050565b60008115159050919050565b611d2181611d0c565b82525050565b6000602082019050611d3c6000830184611d18565b92915050565b600081519050919050565b600082825260208201905092915050565b60005b83811015611d7c578082015181840152602081019050611d61565b60008484015250505050565b6000601f19601f8301169050919050565b6000611da482611d42565b611dae8185611d4d565b9350611dbe818560208601611d5e565b611dc781611d88565b840191505092915050565b60006020820190508181036000830152611dec8184611d99565b905092915050565b6000819050919050565b611e0781611df4565b8114611e1257600080fd5b50565b600081359050611e2481611dfe565b92915050565b600060208284031215611e4057611e3f611c7d565b5b6000611e4e84828501611e15565b91505092915050565b600073ffffffffffffffffffffffffffffffffffffffff82169050919050565b6000611e8282611e57565b9050919050565b611e9281611e77565b82525050565b6000602082019050611ead6000830184611e89565b92915050565b611ebc81611e77565b8114611ec757600080fd5b50565b600081359050611ed981611eb3565b92915050565b60008060408385031215611ef657611ef5611c7d565b5b6000611f0485828601611eca565b9250506020611f1585828601611e15565b9150509250929050565b611f2881611df4565b82525050565b6000602082019050611f436000830184611f1f565b92915050565b600060208284031215611f5f57611f5e611c7d565b5b6000611f6d84828501611eca565b91505092915050565b600080600060608486031215611f8f57611f8e611c7d565b5b6000611f9d86828701611eca565b9350506020611fae86828701611eca565b9250506040611fbf86828701611e15565b9150509250925092565b611fd281611d0c565b8114611fdd57600080fd5b50565b600081359050611fef81611fc9565b92915050565b6000806040838503121561200c5761200b611c7d565b5b600061201a85828601611eca565b925050602061202b85828601611fe0565b9150509250929050565b600080fd5b600080fd5b7f4e487b7100000000000000000000000000000000000000000000000000000000600052604160045260246000fd5b61207782611d88565b810181811067ffffffffffffffff821117156120965761209561203f565b5b80604052505050565b60006120a9611c73565b90506120b5828261206e565b919050565b600067ffffffffffffffff8211156120d5576120d461203f565b5b6120de82611d88565b9050602081019050919050565b82818337600083830152505050565b600061210d612108846120ba565b61209f565b9050828152602081018484840111156121295761212861203a565b5b6121348482856120eb565b509392505050565b600082601f83011261215157612150612035565b5b81356121618482602086016120fa565b91505092915050565b6000806000806080858703121561218457612183611c7d565b5b600061219287828801611eca565b94505060206121a387828801611eca565b93505060406121b487828801611e15565b925050606085013567ffffffffffffffff8111156121d5576121d4611c82565b5b6121e18782880161213c565b91505092959194509250565b6000806040838503121561220457612203611c7d565b5b600061221285828601611eca565b925050602061222385828601611eca565b9150509250929050565b7f4e487b7100000000000000000000000000000000000000000000000000000000600052602260045260246000fd5b6000600282049050600182168061227457607f821691505b6020821081036122875761228661222d565b5b50919050565b600081905092915050565b60006122a382611d42565b6122ad818561228d565b93506122bd818560208601611d5e565b80840191505092915050565b60006122d58285612298565b91506122e18284612298565b91508190509392505050565b7f4e487b7100000000000000000000000000000000000000000000000000000000600052601260045260246000fd5b600061232782611df4565b915061233283611df4565b925082612342576123416122ed565b5b828206905092915050565b7f4e487b7100000000000000000000000000000000000000000000000000000000600052601160045260246000fd5b600061238782611df4565b915061239283611df4565b92508282039050818111156123aa576123a961234d565b5b92915050565b60006123bb82611df4565b91506123c683611df4565b92508282019050808211156123de576123dd61234d565b5b92915050565b60006123ef82611df4565b91506123fa83611df4565b925082820261240881611df4565b9150828204841483151761241f5761241e61234d565b5b5092915050565b600081519050919050565b600082825260208201905092915050565b600061244d82612426565b6124578185612431565b9350612467818560208601611d5e565b61247081611d88565b840191505092915050565b60006080820190506124906000830187611e89565b61249d6020830186611e89565b6124aa6040830185611f1f565b81810360608301526124bc8184612442565b905095945050505050565b6000815190506124d681611cb3565b92915050565b6000602082840312156124f2576124f1611c7d565b5b6000612500848285016124c7565b91505092915050565b600061251482611df4565b915061251f83611df4565b92508261252f5761252e6122ed565b5b828204905092915050565b600061254582611df4565b91507fffffffffffffffffffffffffffffffffffffffffffffffffffffffffffffffff82036125775761257661234d565b5b600182019050919050565b7f4e487b7100000000000000000000000000000000000000000000000000000000600052603260045260246000fdfe68747470733a2f2f676174657761792e70696e6174612e636c6f75642f697066732f516d65794b6e7658584d78417557473570743335457a3851684a6852363352445653775566736a4b61795234325a2fa2646970667358221220a5a1e7fc49f21c9a76bc811c7cf78432d82649d2a53102733165e5fffcb3b98f64736f6c63430008110033",
					"opcodes": "PUSH1 0x80 PUSH1 0x40 MSTORE CALLVALUE DUP1 ISZERO PUSH3 0x11 JUMPI PUSH1 0x0 DUP1 REVERT JUMPDEST POP PUSH1 0x40 MLOAD PUSH3 0x2C9B CODESIZE SUB DUP1 PUSH3 0x2C9B DUP4 CODECOPY DUP2 DUP2 ADD PUSH1 0x40 MSTORE DUP2 ADD SWAP1 PUSH3 0x37 SWAP2 SWAP1 PUSH3 0x27B JUMP JUMPDEST DUP4 PUSH1 0x7 SWAP1 DUP2 PUSH3 0x48 SWAP2 SWAP1 PUSH3 0x56C JUMP JUMPDEST POP DUP3 PUSH1 0x8 SWAP1 DUP2 PUSH3 0x5A SWAP2 SWAP1 PUSH3 0x56C JUMP JUMPDEST POP DUP2 PUSH1 0x5 DUP2 SWAP1 SSTORE POP PUSH3 0x72 PUSH3 0xA8 PUSH1 0x20 SHL PUSH1 0x20 SHR JUMP JUMPDEST PUSH1 0x4 DUP2 SWAP1 SSTORE POP DUP1 PUSH1 0x0 DUP2 SWAP1 SSTORE POP PUSH8 0x1BC16D674EC80000 PUSH1 0x1 DUP2 SWAP1 SSTORE POP PUSH2 0xB3B0 PUSH1 0x3 DUP2 SWAP1 SSTORE POP NUMBER PUSH1 0x2 DUP2 SWAP1 SSTORE POP POP POP POP POP PUSH3 0x653 JUMP JUMPDEST PUSH1 0x0 SWAP1 JUMP JUMPDEST PUSH1 0x0 PUSH1 0x40 MLOAD SWAP1 POP SWAP1 JUMP JUMPDEST PUSH1 0x0 DUP1 REVERT JUMPDEST PUSH1 0x0 DUP1 REVERT JUMPDEST PUSH1 0x0 DUP1 REVERT JUMPDEST PUSH1 0x0 DUP1 REVERT JUMPDEST PUSH1 0x0 PUSH1 0x1F NOT PUSH1 0x1F DUP4 ADD AND SWAP1 POP SWAP2 SWAP1 POP JUMP JUMPDEST PUSH32 0x4E487B7100000000000000000000000000000000000000000000000000000000 PUSH1 0x0 MSTORE PUSH1 0x41 PUSH1 0x4 MSTORE PUSH1 0x24 PUSH1 0x0 REVERT JUMPDEST PUSH3 0x116 DUP3 PUSH3 0xCB JUMP JUMPDEST DUP2 ADD DUP2 DUP2 LT PUSH8 0xFFFFFFFFFFFFFFFF DUP3 GT OR ISZERO PUSH3 0x138 JUMPI PUSH3 0x137 PUSH3 0xDC JUMP JUMPDEST JUMPDEST DUP1 PUSH1 0x40 MSTORE POP POP POP JUMP JUMPDEST PUSH1 0x0 PUSH3 0x14D PUSH3 0xAD JUMP JUMPDEST SWAP1 POP PUSH3 0x15B DUP3 DUP3 PUSH3 0x10B JUMP JUMPDEST SWAP2 SWAP1 POP JUMP JUMPDEST PUSH1 0x0 PUSH8 0xFFFFFFFFFFFFFFFF DUP3 GT ISZERO PUSH3 0x17E JUMPI PUSH3 0x17D PUSH3 0xDC JUMP JUMPDEST JUMPDEST PUSH3 0x189 DUP3 PUSH3 0xCB JUMP JUMPDEST SWAP1 POP PUSH1 0x20 DUP2 ADD SWAP1 POP SWAP2 SWAP1 POP JUMP JUMPDEST PUSH1 0x0 JUMPDEST DUP4 DUP2 LT ISZERO PUSH3 0x1B6 JUMPI DUP1 DUP3 ADD MLOAD DUP2 DUP5 ADD MSTORE PUSH1 0x20 DUP2 ADD SWAP1 POP PUSH3 0x199 JUMP JUMPDEST PUSH1 0x0 DUP5 DUP5 ADD MSTORE POP POP POP POP JUMP JUMPDEST PUSH1 0x0 PUSH3 0x1D9 PUSH3 0x1D3 DUP5 PUSH3 0x160 JUMP JUMPDEST PUSH3 0x141 JUMP JUMPDEST SWAP1 POP DUP3 DUP2 MSTORE PUSH1 0x20 DUP2 ADD DUP5 DUP5 DUP5 ADD GT ISZERO PUSH3 0x1F8 JUMPI PUSH3 0x1F7 PUSH3 0xC6 JUMP JUMPDEST JUMPDEST PUSH3 0x205 DUP5 DUP3 DUP6 PUSH3 0x196 JUMP JUMPDEST POP SWAP4 SWAP3 POP POP POP JUMP JUMPDEST PUSH1 0x0 DUP3 PUSH1 0x1F DUP4 ADD SLT PUSH3 0x225 JUMPI PUSH3 0x224 PUSH3 0xC1 JUMP JUMPDEST JUMPDEST DUP2 MLOAD PUSH3 0x237 DUP5 DUP3 PUSH1 0x20 DUP7 ADD PUSH3 0x1C2 JUMP JUMPDEST SWAP2 POP POP SWAP3 SWAP2 POP POP JUMP JUMPDEST PUSH1 0x0 DUP2 SWAP1 POP SWAP2 SWAP1 POP JUMP JUMPDEST PUSH3 0x255 DUP2 PUSH3 0x240 JUMP JUMPDEST DUP2 EQ PUSH3 0x261 JUMPI PUSH1 0x0 DUP1 REVERT JUMPDEST POP JUMP JUMPDEST PUSH1 0x0 DUP2 MLOAD SWAP1 POP PUSH3 0x275 DUP2 PUSH3 0x24A JUMP JUMPDEST SWAP3 SWAP2 POP POP JUMP JUMPDEST PUSH1 0x0 DUP1 PUSH1 0x0 DUP1 PUSH1 0x80 DUP6 DUP8 SUB SLT ISZERO PUSH3 0x298 JUMPI PUSH3 0x297 PUSH3 0xB7 JUMP JUMPDEST JUMPDEST PUSH1 0x0 DUP6 ADD MLOAD PUSH8 0xFFFFFFFFFFFFFFFF DUP2 GT ISZERO PUSH3 0x2B9 JUMPI PUSH3 0x2B8 PUSH3 0xBC JUMP JUMPDEST JUMPDEST PUSH3 0x2C7 DUP8 DUP3 DUP9 ADD PUSH3 0x20D JUMP JUMPDEST SWAP5 POP POP PUSH1 0x20 DUP6 ADD MLOAD PUSH8 0xFFFFFFFFFFFFFFFF DUP2 GT ISZERO PUSH3 0x2EB JUMPI PUSH3 0x2EA PUSH3 0xBC JUMP JUMPDEST JUMPDEST PUSH3 0x2F9 DUP8 DUP3 DUP9 ADD PUSH3 0x20D JUMP JUMPDEST SWAP4 POP POP PUSH1 0x40 PUSH3 0x30C DUP8 DUP3 DUP9 ADD PUSH3 0x264 JUMP JUMPDEST SWAP3 POP POP PUSH1 0x60 PUSH3 0x31F DUP8 DUP3 DUP9 ADD PUSH3 0x264 JUMP JUMPDEST SWAP2 POP POP SWAP3 SWAP6 SWAP2 SWAP5 POP SWAP3 POP JUMP JUMPDEST PUSH1 0x0 DUP2 MLOAD SWAP1 POP SWAP2 SWAP1 POP JUMP JUMPDEST PUSH32 0x4E487B7100000000000000000000000000000000000000000000000000000000 PUSH1 0x0 MSTORE PUSH1 0x22 PUSH1 0x4 MSTORE PUSH1 0x24 PUSH1 0x0 REVERT JUMPDEST PUSH1 0x0 PUSH1 0x2 DUP3 DIV SWAP1 POP PUSH1 0x1 DUP3 AND DUP1 PUSH3 0x37E JUMPI PUSH1 0x7F DUP3 AND SWAP2 POP JUMPDEST PUSH1 0x20 DUP3 LT DUP2 SUB PUSH3 0x394 JUMPI PUSH3 0x393 PUSH3 0x336 JUMP JUMPDEST JUMPDEST POP SWAP2 SWAP1 POP JUMP JUMPDEST PUSH1 0x0 DUP2 SWAP1 POP DUP2 PUSH1 0x0 MSTORE PUSH1 0x20 PUSH1 0x0 KECCAK256 SWAP1 POP SWAP2 SWAP1 POP JUMP JUMPDEST PUSH1 0x0 PUSH1 0x20 PUSH1 0x1F DUP4 ADD DIV SWAP1 POP SWAP2 SWAP1 POP JUMP JUMPDEST PUSH1 0x0 DUP3 DUP3 SHL SWAP1 POP SWAP3 SWAP2 POP POP JUMP JUMPDEST PUSH1 0x0 PUSH1 0x8 DUP4 MUL PUSH3 0x3FE PUSH32 0xFFFFFFFFFFFFFFFFFFFFFFFFFFFFFFFFFFFFFFFFFFFFFFFFFFFFFFFFFFFFFFFF DUP3 PUSH3 0x3BF JUMP JUMPDEST PUSH3 0x40A DUP7 DUP4 PUSH3 0x3BF JUMP JUMPDEST SWAP6 POP DUP1 NOT DUP5 AND SWAP4 POP DUP1 DUP7 AND DUP5 OR SWAP3 POP POP POP SWAP4 SWAP3 POP POP POP JUMP JUMPDEST PUSH1 0x0 DUP2 SWAP1 POP SWAP2 SWAP1 POP JUMP JUMPDEST PUSH1 0x0 PUSH3 0x44D PUSH3 0x447 PUSH3 0x441 DUP5 PUSH3 0x240 JUMP JUMPDEST PUSH3 0x422 JUMP JUMPDEST PUSH3 0x240 JUMP JUMPDEST SWAP1 POP SWAP2 SWAP1 POP JUMP JUMPDEST PUSH1 0x0 DUP2 SWAP1 POP SWAP2 SWAP1 POP JUMP JUMPDEST PUSH3 0x469 DUP4 PUSH3 0x42C JUMP JUMPDEST PUSH3 0x481 PUSH3 0x478 DUP3 PUSH3 0x454 JUMP JUMPDEST DUP5 DUP5 SLOAD PUSH3 0x3CC JUMP JUMPDEST DUP3 SSTORE POP POP POP POP JUMP JUMPDEST PUSH1 0x0 SWAP1 JUMP JUMPDEST PUSH3 0x498 PUSH3 0x489 JUMP JUMPDEST PUSH3 0x4A5 DUP2 DUP5 DUP5 PUSH3 0x45E JUMP JUMPDEST POP POP POP JUMP JUMPDEST JUMPDEST DUP2 DUP2 LT ISZERO PUSH3 0x4CD JUMPI PUSH3 0x4C1 PUSH1 0x0 DUP3 PUSH3 0x48E JUMP JUMPDEST PUSH1 0x1 DUP2 ADD SWAP1 POP PUSH3 0x4AB JUMP JUMPDEST POP POP JUMP JUMPDEST PUSH1 0x1F DUP3 GT ISZERO PUSH3 0x51C JUMPI PUSH3 0x4E6 DUP2 PUSH3 0x39A JUMP JUMPDEST PUSH3 0x4F1 DUP5 PUSH3 0x3AF JUMP JUMPDEST DUP2 ADD PUSH1 0x20 DUP6 LT ISZERO PUSH3 0x501 JUMPI DUP2 SWAP1 POP JUMPDEST PUSH3 0x519 PUSH3 0x510 DUP6 PUSH3 0x3AF JUMP JUMPDEST DUP4 ADD DUP3 PUSH3 0x4AA JUMP JUMPDEST POP POP JUMPDEST POP POP POP JUMP JUMPDEST PUSH1 0x0 DUP3 DUP3 SHR SWAP1 POP SWAP3 SWAP2 POP POP JUMP JUMPDEST PUSH1 0x0 PUSH3 0x541 PUSH1 0x0 NOT DUP5 PUSH1 0x8 MUL PUSH3 0x521 JUMP JUMPDEST NOT DUP1 DUP4 AND SWAP2 POP POP SWAP3 SWAP2 POP POP JUMP JUMPDEST PUSH1 0x0 PUSH3 0x55C DUP4 DUP4 PUSH3 0x52E JUMP JUMPDEST SWAP2 POP DUP3 PUSH1 0x2 MUL DUP3 OR SWAP1 POP SWAP3 SWAP2 POP POP JUMP JUMPDEST PUSH3 0x577 DUP3 PUSH3 0x32B JUMP JUMPDEST PUSH8 0xFFFFFFFFFFFFFFFF DUP2 GT ISZERO PUSH3 0x593 JUMPI PUSH3 0x592 PUSH3 0xDC JUMP JUMPDEST JUMPDEST PUSH3 0x59F DUP3 SLOAD PUSH3 0x365 JUMP JUMPDEST PUSH3 0x5AC DUP3 DUP3 DUP6 PUSH3 0x4D1 JUMP JUMPDEST PUSH1 0x0 PUSH1 0x20 SWAP1 POP PUSH1 0x1F DUP4 GT PUSH1 0x1 DUP2 EQ PUSH3 0x5E4 JUMPI PUSH1 0x0 DUP5 ISZERO PUSH3 0x5CF JUMPI DUP3 DUP8 ADD MLOAD SWAP1 POP JUMPDEST PUSH3 0x5DB DUP6 DUP3 PUSH3 0x54E JUMP JUMPDEST DUP7 SSTORE POP PUSH3 0x64B JUMP JUMPDEST PUSH1 0x1F NOT DUP5 AND PUSH3 0x5F4 DUP7 PUSH3 0x39A JUMP JUMPDEST PUSH1 0x0 JUMPDEST DUP3 DUP2 LT ISZERO PUSH3 0x61E JUMPI DUP5 DUP10 ADD MLOAD DUP3 SSTORE PUSH1 0x1 DUP3 ADD SWAP2 POP PUSH1 0x20 DUP6 ADD SWAP5 POP PUSH1 0x20 DUP2 ADD SWAP1 POP PUSH3 0x5F7 JUMP JUMPDEST DUP7 DUP4 LT ISZERO PUSH3 0x63E JUMPI DUP5 DUP10 ADD MLOAD PUSH3 0x63A PUSH1 0x1F DUP10 AND DUP3 PUSH3 0x52E JUMP JUMPDEST DUP4 SSTORE POP JUMPDEST PUSH1 0x1 PUSH1 0x2 DUP9 MUL ADD DUP9 SSTORE POP POP POP JUMPDEST POP POP POP POP POP POP JUMP JUMPDEST PUSH2 0x2638 DUP1 PUSH3 0x663 PUSH1 0x0 CODECOPY PUSH1 0x0 RETURN INVALID PUSH1 0x80 PUSH1 0x40 MSTORE CALLVALUE DUP1 ISZERO PUSH2 0x10 JUMPI PUSH1 0x0 DUP1 REVERT JUMPDEST POP PUSH1 0x4 CALLDATASIZE LT PUSH2 0x14D JUMPI PUSH1 0x0 CALLDATALOAD PUSH1 0xE0 SHR DUP1 PUSH4 0x6352211E GT PUSH2 0xC3 JUMPI DUP1 PUSH4 0xB88D4FDE GT PUSH2 0x7C JUMPI DUP1 PUSH4 0xB88D4FDE EQ PUSH2 0x3A0 JUMPI DUP1 PUSH4 0xBA6687F4 EQ PUSH2 0x3BC JUMPI DUP1 PUSH4 0xC87B56DD EQ PUSH2 0x3EC JUMPI DUP1 PUSH4 0xD5ABEB01 EQ PUSH2 0x41C JUMPI DUP1 PUSH4 0xE985E9C5 EQ PUSH2 0x43A JUMPI DUP1 PUSH4 0xF390C328 EQ PUSH2 0x46A JUMPI PUSH2 0x14D JUMP JUMPDEST DUP1 PUSH4 0x6352211E EQ PUSH2 0x2CA JUMPI DUP1 PUSH4 0x70A08231 EQ PUSH2 0x2FA JUMPI DUP1 PUSH4 0x94FC67D1 EQ PUSH2 0x32A JUMPI DUP1 PUSH4 0x95D89B41 EQ PUSH2 0x348 JUMPI DUP1 PUSH4 0x9F773399 EQ PUSH2 0x366 JUMPI DUP1 PUSH4 0xA22CB465 EQ PUSH2 0x384 JUMPI PUSH2 0x14D JUMP JUMPDEST DUP1 PUSH4 0x1C1B8772 GT PUSH2 0x115 JUMPI DUP1 PUSH4 0x1C1B8772 EQ PUSH2 0x20A JUMPI DUP1 PUSH4 0x23B872DD EQ PUSH2 0x226 JUMPI DUP1 PUSH4 0x325B272A EQ PUSH2 0x242 JUMPI DUP1 PUSH4 0x38020DCC EQ PUSH2 0x272 JUMPI DUP1 PUSH4 0x42842E0E EQ PUSH2 0x290 JUMPI DUP1 PUSH4 0x5E7EC827 EQ PUSH2 0x2AC JUMPI PUSH2 0x14D JUMP JUMPDEST DUP1 PUSH4 0x1FFC9A7 EQ PUSH2 0x152 JUMPI DUP1 PUSH4 0x6FDDE03 EQ PUSH2 0x182 JUMPI DUP1 PUSH4 0x81812FC EQ PUSH2 0x1A0 JUMPI DUP1 PUSH4 0x95EA7B3 EQ PUSH2 0x1D0 JUMPI DUP1 PUSH4 0x18160DDD EQ PUSH2 0x1EC JUMPI JUMPDEST PUSH1 0x0 DUP1 REVERT JUMPDEST PUSH2 0x16C PUSH1 0x4 DUP1 CALLDATASIZE SUB DUP2 ADD SWAP1 PUSH2 0x167 SWAP2 SWAP1 PUSH2 0x1CDF JUMP JUMPDEST PUSH2 0x49A JUMP JUMPDEST PUSH1 0x40 MLOAD PUSH2 0x179 SWAP2 SWAP1 PUSH2 0x1D27 JUMP JUMPDEST PUSH1 0x40 MLOAD DUP1 SWAP2 SUB SWAP1 RETURN JUMPDEST PUSH2 0x18A PUSH2 0x57C JUMP JUMPDEST PUSH1 0x40 MLOAD PUSH2 0x197 SWAP2 SWAP1 PUSH2 0x1DD2 JUMP JUMPDEST PUSH1 0x40 MLOAD DUP1 SWAP2 SUB SWAP1 RETURN JUMPDEST PUSH2 0x1BA PUSH1 0x4 DUP1 CALLDATASIZE SUB DUP2 ADD SWAP1 PUSH2 0x1B5 SWAP2 SWAP1 PUSH2 0x1E2A JUMP JUMPDEST PUSH2 0x60E JUMP JUMPDEST PUSH1 0x40 MLOAD PUSH2 0x1C7 SWAP2 SWAP1 PUSH2 0x1E98 JUMP JUMPDEST PUSH1 0x40 MLOAD DUP1 SWAP2 SUB SWAP1 RETURN JUMPDEST PUSH2 0x1EA PUSH1 0x4 DUP1 CALLDATASIZE SUB DUP2 ADD SWAP1 PUSH2 0x1E5 SWAP2 SWAP1 PUSH2 0x1EDF JUMP JUMPDEST PUSH2 0x68A JUMP JUMPDEST STOP JUMPDEST PUSH2 0x1F4 PUSH2 0x78E JUMP JUMPDEST PUSH1 0x40 MLOAD PUSH2 0x201 SWAP2 SWAP1 PUSH2 0x1F2E JUMP JUMPDEST PUSH1 0x40 MLOAD DUP1 SWAP2 SUB SWAP1 RETURN JUMPDEST PUSH2 0x224 PUSH1 0x4 DUP1 CALLDATASIZE SUB DUP2 ADD SWAP1 PUSH2 0x21F SWAP2 SWAP1 PUSH2 0x1F49 JUMP JUMPDEST PUSH2 0x7A5 JUMP JUMPDEST STOP JUMPDEST PUSH2 0x240 PUSH1 0x4 DUP1 CALLDATASIZE SUB DUP2 ADD SWAP1 PUSH2 0x23B SWAP2 SWAP1 PUSH2 0x1F76 JUMP JUMPDEST PUSH2 0x889 JUMP JUMPDEST STOP JUMPDEST PUSH2 0x25C PUSH1 0x4 DUP1 CALLDATASIZE SUB DUP2 ADD SWAP1 PUSH2 0x257 SWAP2 SWAP1 PUSH2 0x1F49 JUMP JUMPDEST PUSH2 0x899 JUMP JUMPDEST PUSH1 0x40 MLOAD PUSH2 0x269 SWAP2 SWAP1 PUSH2 0x1F2E JUMP JUMPDEST PUSH1 0x40 MLOAD DUP1 SWAP2 SUB SWAP1 RETURN JUMPDEST PUSH2 0x27A PUSH2 0x994 JUMP JUMPDEST PUSH1 0x40 MLOAD PUSH2 0x287 SWAP2 SWAP1 PUSH2 0x1F2E JUMP JUMPDEST PUSH1 0x40 MLOAD DUP1 SWAP2 SUB SWAP1 RETURN JUMPDEST PUSH2 0x2AA PUSH1 0x4 DUP1 CALLDATASIZE SUB DUP2 ADD SWAP1 PUSH2 0x2A5 SWAP2 SWAP1 PUSH2 0x1F76 JUMP JUMPDEST PUSH2 0x99A JUMP JUMPDEST STOP JUMPDEST PUSH2 0x2B4 PUSH2 0x9BA JUMP JUMPDEST PUSH1 0x40 MLOAD PUSH2 0x2C1 SWAP2 SWAP1 PUSH2 0x1F2E JUMP JUMPDEST PUSH1 0x40 MLOAD DUP1 SWAP2 SUB SWAP1 RETURN JUMPDEST PUSH2 0x2E4 PUSH1 0x4 DUP1 CALLDATASIZE SUB DUP2 ADD SWAP1 PUSH2 0x2DF SWAP2 SWAP1 PUSH2 0x1E2A JUMP JUMPDEST PUSH2 0x9C0 JUMP JUMPDEST PUSH1 0x40 MLOAD PUSH2 0x2F1 SWAP2 SWAP1 PUSH2 0x1E98 JUMP JUMPDEST PUSH1 0x40 MLOAD DUP1 SWAP2 SUB SWAP1 RETURN JUMPDEST PUSH2 0x314 PUSH1 0x4 DUP1 CALLDATASIZE SUB DUP2 ADD SWAP1 PUSH2 0x30F SWAP2 SWAP1 PUSH2 0x1F49 JUMP JUMPDEST PUSH2 0x9D6 JUMP JUMPDEST PUSH1 0x40 MLOAD PUSH2 0x321 SWAP2 SWAP1 PUSH2 0x1F2E JUMP JUMPDEST PUSH1 0x40 MLOAD DUP1 SWAP2 SUB SWAP1 RETURN JUMPDEST PUSH2 0x332 PUSH2 0xAA5 JUMP JUMPDEST PUSH1 0x40 MLOAD PUSH2 0x33F SWAP2 SWAP1 PUSH2 0x1F2E JUMP JUMPDEST PUSH1 0x40 MLOAD DUP1 SWAP2 SUB SWAP1 RETURN JUMPDEST PUSH2 0x350 PUSH2 0xAAB JUMP JUMPDEST PUSH1 0x40 MLOAD PUSH2 0x35D SWAP2 SWAP1 PUSH2 0x1DD2 JUMP JUMPDEST PUSH1 0x40 MLOAD DUP1 SWAP2 SUB SWAP1 RETURN JUMPDEST PUSH2 0x36E PUSH2 0xB3D JUMP JUMPDEST PUSH1 0x40 MLOAD PUSH2 0x37B SWAP2 SWAP1 PUSH2 0x1F2E JUMP JUMPDEST PUSH1 0x40 MLOAD DUP1 SWAP2 SUB SWAP1 RETURN JUMPDEST PUSH2 0x39E PUSH1 0x4 DUP1 CALLDATASIZE SUB DUP2 ADD SWAP1 PUSH2 0x399 SWAP2 SWAP1 PUSH2 0x1FF5 JUMP JUMPDEST PUSH2 0xB43 JUMP JUMPDEST STOP JUMPDEST PUSH2 0x3BA PUSH1 0x4 DUP1 CALLDATASIZE SUB DUP2 ADD SWAP1 PUSH2 0x3B5 SWAP2 SWAP1 PUSH2 0x216A JUMP JUMPDEST PUSH2 0xCBA JUMP JUMPDEST STOP JUMPDEST PUSH2 0x3D6 PUSH1 0x4 DUP1 CALLDATASIZE SUB DUP2 ADD SWAP1 PUSH2 0x3D1 SWAP2 SWAP1 PUSH2 0x1E2A JUMP JUMPDEST PUSH2 0xD32 JUMP JUMPDEST PUSH1 0x40 MLOAD PUSH2 0x3E3 SWAP2 SWAP1 PUSH2 0x1F2E JUMP JUMPDEST PUSH1 0x40 MLOAD DUP1 SWAP2 SUB SWAP1 RETURN JUMPDEST PUSH2 0x406 PUSH1 0x4 DUP1 CALLDATASIZE SUB DUP2 ADD SWAP1 PUSH2 0x401 SWAP2 SWAP1 PUSH2 0x1E2A JUMP JUMPDEST PUSH2 0xDA9 JUMP JUMPDEST PUSH1 0x40 MLOAD PUSH2 0x413 SWAP2 SWAP1 PUSH2 0x1DD2 JUMP JUMPDEST PUSH1 0x40 MLOAD DUP1 SWAP2 SUB SWAP1 RETURN JUMPDEST PUSH2 0x424 PUSH2 0xE47 JUMP JUMPDEST PUSH1 0x40 MLOAD PUSH2 0x431 SWAP2 SWAP1 PUSH2 0x1F2E JUMP JUMPDEST PUSH1 0x40 MLOAD DUP1 SWAP2 SUB SWAP1 RETURN JUMPDEST PUSH2 0x454 PUSH1 0x4 DUP1 CALLDATASIZE SUB DUP2 ADD SWAP1 PUSH2 0x44F SWAP2 SWAP1 PUSH2 0x21ED JUMP JUMPDEST PUSH2 0xE5E JUMP JUMPDEST PUSH1 0x40 MLOAD PUSH2 0x461 SWAP2 SWAP1 PUSH2 0x1D27 JUMP JUMPDEST PUSH1 0x40 MLOAD DUP1 SWAP2 SUB SWAP1 RETURN JUMPDEST PUSH2 0x484 PUSH1 0x4 DUP1 CALLDATASIZE SUB DUP2 ADD SWAP1 PUSH2 0x47F SWAP2 SWAP1 PUSH2 0x1E2A JUMP JUMPDEST PUSH2 0xEF2 JUMP JUMPDEST PUSH1 0x40 MLOAD PUSH2 0x491 SWAP2 SWAP1 PUSH2 0x1F2E JUMP JUMPDEST PUSH1 0x40 MLOAD DUP1 SWAP2 SUB SWAP1 RETURN JUMPDEST PUSH1 0x0 PUSH32 0x80AC58CD00000000000000000000000000000000000000000000000000000000 PUSH28 0xFFFFFFFFFFFFFFFFFFFFFFFFFFFFFFFFFFFFFFFFFFFFFFFFFFFFFFFF NOT AND DUP3 PUSH28 0xFFFFFFFFFFFFFFFFFFFFFFFFFFFFFFFFFFFFFFFFFFFFFFFFFFFFFFFF NOT AND EQ DUP1 PUSH2 0x565 JUMPI POP PUSH32 0x5B5E139F00000000000000000000000000000000000000000000000000000000 PUSH28 0xFFFFFFFFFFFFFFFFFFFFFFFFFFFFFFFFFFFFFFFFFFFFFFFFFFFFFFFF NOT AND DUP3 PUSH28 0xFFFFFFFFFFFFFFFFFFFFFFFFFFFFFFFFFFFFFFFFFFFFFFFFFFFFFFFF NOT AND EQ JUMPDEST DUP1 PUSH2 0x575 JUMPI POP PUSH2 0x574 DUP3 PUSH2 0xF54 JUMP JUMPDEST JUMPDEST SWAP1 POP SWAP2 SWAP1 POP JUMP JUMPDEST PUSH1 0x60 PUSH1 0x7 DUP1 SLOAD PUSH2 0x58B SWAP1 PUSH2 0x225C JUMP JUMPDEST DUP1 PUSH1 0x1F ADD PUSH1 0x20 DUP1 SWAP2 DIV MUL PUSH1 0x20 ADD PUSH1 0x40 MLOAD SWAP1 DUP2 ADD PUSH1 0x40 MSTORE DUP1 SWAP3 SWAP2 SWAP1 DUP2 DUP2 MSTORE PUSH1 0x20 ADD DUP3 DUP1 SLOAD PUSH2 0x5B7 SWAP1 PUSH2 0x225C JUMP JUMPDEST DUP1 ISZERO PUSH2 0x604 JUMPI DUP1 PUSH1 0x1F LT PUSH2 0x5D9 JUMPI PUSH2 0x100 DUP1 DUP4 SLOAD DIV MUL DUP4 MSTORE SWAP2 PUSH1 0x20 ADD SWAP2 PUSH2 0x604 JUMP JUMPDEST DUP3 ADD SWAP2 SWAP1 PUSH1 0x0 MSTORE PUSH1 0x20 PUSH1 0x0 KECCAK256 SWAP1 JUMPDEST DUP2 SLOAD DUP2 MSTORE SWAP1 PUSH1 0x1 ADD SWAP1 PUSH1 0x20 ADD DUP1 DUP4 GT PUSH2 0x5E7 JUMPI DUP3 SWAP1 SUB PUSH1 0x1F AND DUP3 ADD SWAP2 JUMPDEST POP POP POP POP POP SWAP1 POP SWAP1 JUMP JUMPDEST PUSH1 0x0 PUSH2 0x619 DUP3 PUSH2 0xFBE JUMP JUMPDEST PUSH2 0x64F JUMPI PUSH1 0x40 MLOAD PUSH32 0xCF4700E400000000000000000000000000000000000000000000000000000000 DUP2 MSTORE PUSH1 0x4 ADD PUSH1 0x40 MLOAD DUP1 SWAP2 SUB SWAP1 REVERT JUMPDEST PUSH1 0xB PUSH1 0x0 DUP4 DUP2 MSTORE PUSH1 0x20 ADD SWAP1 DUP2 MSTORE PUSH1 0x20 ADD PUSH1 0x0 KECCAK256 PUSH1 0x0 SWAP1 SLOAD SWAP1 PUSH2 0x100 EXP SWAP1 DIV PUSH20 0xFFFFFFFFFFFFFFFFFFFFFFFFFFFFFFFFFFFFFFFF AND SWAP1 POP SWAP2 SWAP1 POP JUMP JUMPDEST PUSH1 0x0 PUSH2 0x695 DUP3 PUSH2 0x9C0 JUMP JUMPDEST SWAP1 POP DUP1 PUSH20 0xFFFFFFFFFFFFFFFFFFFFFFFFFFFFFFFFFFFFFFFF AND DUP4 PUSH20 0xFFFFFFFFFFFFFFFFFFFFFFFFFFFFFFFFFFFFFFFF AND SUB PUSH2 0x6FC JUMPI PUSH1 0x40 MLOAD PUSH32 0x943F7B8C00000000000000000000000000000000000000000000000000000000 DUP2 MSTORE PUSH1 0x4 ADD PUSH1 0x40 MLOAD DUP1 SWAP2 SUB SWAP1 REVERT JUMPDEST DUP1 PUSH20 0xFFFFFFFFFFFFFFFFFFFFFFFFFFFFFFFFFFFFFFFF AND PUSH2 0x71B PUSH2 0x100C JUMP JUMPDEST PUSH20 0xFFFFFFFFFFFFFFFFFFFFFFFFFFFFFFFFFFFFFFFF AND EQ PUSH2 0x77E JUMPI PUSH2 0x747 DUP2 PUSH2 0x742 PUSH2 0x100C JUMP JUMPDEST PUSH2 0xE5E JUMP JUMPDEST PUSH2 0x77D JUMPI PUSH1 0x40 MLOAD PUSH32 0xCFB3B94200000000000000000000000000000000000000000000000000000000 DUP2 MSTORE PUSH1 0x4 ADD PUSH1 0x40 MLOAD DUP1 SWAP2 SUB SWAP1 REVERT JUMPDEST JUMPDEST PUSH2 0x789 DUP4 DUP4 DUP4 PUSH2 0x1014 JUMP JUMPDEST POP POP POP JUMP JUMPDEST PUSH1 0x0 PUSH2 0x798 PUSH2 0x10C6 JUMP JUMPDEST PUSH1 0x6 SLOAD PUSH1 0x4 SLOAD SUB SUB SWAP1 POP SWAP1 JUMP JUMPDEST PUSH1 0x0 PUSH2 0x81E PUSH1 0x1 PUSH2 0x810 PUSH1 0xD PUSH1 0x0 DUP7 PUSH20 0xFFFFFFFFFFFFFFFFFFFFFFFFFFFFFFFFFFFFFFFF AND PUSH20 0xFFFFFFFFFFFFFFFFFFFFFFFFFFFFFFFFFFFFFFFF AND DUP2 MSTORE PUSH1 0x20 ADD SWAP1 DUP2 MSTORE PUSH1 0x20 ADD PUSH1 0x0 KECCAK256 PUSH1 0x0 PUSH1 0x1 DUP2 MSTORE PUSH1 0x20 ADD SWAP1 DUP2 MSTORE PUSH1 0x20 ADD PUSH1 0x0 KECCAK256 SLOAD NUMBER PUSH2 0x10CB SWAP1 SWAP2 SWAP1 PUSH4 0xFFFFFFFF AND JUMP JUMPDEST PUSH2 0x10E1 SWAP1 SWAP2 SWAP1 PUSH4 0xFFFFFFFF AND JUMP JUMPDEST SWAP1 POP PUSH1 0x0 PUSH2 0x87C PUSH1 0xD PUSH1 0x0 DUP6 PUSH20 0xFFFFFFFFFFFFFFFFFFFFFFFFFFFFFFFFFFFFFFFF AND PUSH20 0xFFFFFFFFFFFFFFFFFFFFFFFFFFFFFFFFFFFFFFFF AND DUP2 MSTORE PUSH1 0x20 ADD SWAP1 DUP2 MSTORE PUSH1 0x20 ADD PUSH1 0x0 KECCAK256 PUSH1 0x0 PUSH1 0x1 DUP2 MSTORE PUSH1 0x20 ADD SWAP1 DUP2 MSTORE PUSH1 0x20 ADD PUSH1 0x0 KECCAK256 SLOAD PUSH2 0xD32 JUMP JUMPDEST SWAP1 POP PUSH1 0x0 NUMBER SWAP1 POP POP POP POP POP JUMP JUMPDEST PUSH2 0x894 DUP4 DUP4 DUP4 PUSH2 0x10F7 JUMP JUMPDEST POP POP POP JUMP JUMPDEST PUSH1 0x0 DUP1 PUSH2 0x900 PUSH1 0xD PUSH1 0x0 DUP6 PUSH20 0xFFFFFFFFFFFFFFFFFFFFFFFFFFFFFFFFFFFFFFFF AND PUSH20 0xFFFFFFFFFFFFFFFFFFFFFFFFFFFFFFFFFFFFFFFF AND DUP2 MSTORE PUSH1 0x20 ADD SWAP1 DUP2 MSTORE PUSH1 0x20 ADD PUSH1 0x0 KECCAK256 PUSH1 0x0 PUSH1 0x1 DUP2 MSTORE PUSH1 0x20 ADD SWAP1 DUP2 MSTORE PUSH1 0x20 ADD PUSH1 0x0 KECCAK256 SLOAD NUMBER PUSH2 0x10CB SWAP1 SWAP2 SWAP1 PUSH4 0xFFFFFFFF AND JUMP JUMPDEST SWAP1 POP PUSH1 0x0 PUSH2 0x91F DUP3 PUSH2 0x911 DUP7 PUSH2 0x9D6 JUMP JUMPDEST PUSH2 0x15BD SWAP1 SWAP2 SWAP1 PUSH4 0xFFFFFFFF AND JUMP JUMPDEST SWAP1 POP PUSH1 0x0 PUSH2 0x987 DUP3 PUSH1 0xD PUSH1 0x0 DUP9 PUSH20 0xFFFFFFFFFFFFFFFFFFFFFFFFFFFFFFFFFFFFFFFF AND PUSH20 0xFFFFFFFFFFFFFFFFFFFFFFFFFFFFFFFFFFFFFFFF AND DUP2 MSTORE PUSH1 0x20 ADD SWAP1 DUP2 MSTORE PUSH1 0x20 ADD PUSH1 0x0 KECCAK256 PUSH1 0x0 PUSH1 0x2 DUP2 MSTORE PUSH1 0x20 ADD SWAP1 DUP2 MSTORE PUSH1 0x20 ADD PUSH1 0x0 KECCAK256 SLOAD PUSH2 0x10E1 SWAP1 SWAP2 SWAP1 PUSH4 0xFFFFFFFF AND JUMP JUMPDEST SWAP1 POP DUP1 SWAP4 POP POP POP POP SWAP2 SWAP1 POP JUMP JUMPDEST PUSH1 0x1 SLOAD DUP2 JUMP JUMPDEST PUSH2 0x9B5 DUP4 DUP4 DUP4 PUSH1 0x40 MLOAD DUP1 PUSH1 0x20 ADD PUSH1 0x40 MSTORE DUP1 PUSH1 0x0 DUP2 MSTORE POP PUSH2 0xCBA JUMP JUMPDEST POP POP POP JUMP JUMPDEST PUSH1 0x3 SLOAD DUP2 JUMP JUMPDEST PUSH1 0x0 PUSH2 0x9CB DUP3 PUSH2 0x15D3 JUMP JUMPDEST PUSH1 0x0 ADD MLOAD SWAP1 POP SWAP2 SWAP1 POP JUMP JUMPDEST PUSH1 0x0 DUP1 PUSH20 0xFFFFFFFFFFFFFFFFFFFFFFFFFFFFFFFFFFFFFFFF AND DUP3 PUSH20 0xFFFFFFFFFFFFFFFFFFFFFFFFFFFFFFFFFFFFFFFF AND SUB PUSH2 0xA3D JUMPI PUSH1 0x40 MLOAD PUSH32 0x8F4EB60400000000000000000000000000000000000000000000000000000000 DUP2 MSTORE PUSH1 0x4 ADD PUSH1 0x40 MLOAD DUP1 SWAP2 SUB SWAP1 REVERT JUMPDEST PUSH1 0xA PUSH1 0x0 DUP4 PUSH20 0xFFFFFFFFFFFFFFFFFFFFFFFFFFFFFFFFFFFFFFFF AND PUSH20 0xFFFFFFFFFFFFFFFFFFFFFFFFFFFFFFFFFFFFFFFF AND DUP2 MSTORE PUSH1 0x20 ADD SWAP1 DUP2 MSTORE PUSH1 0x20 ADD PUSH1 0x0 KECCAK256 PUSH1 0x0 ADD PUSH1 0x0 SWAP1 SLOAD SWAP1 PUSH2 0x100 EXP SWAP1 DIV PUSH8 0xFFFFFFFFFFFFFFFF AND PUSH8 0xFFFFFFFFFFFFFFFF AND SWAP1 POP SWAP2 SWAP1 POP JUMP JUMPDEST PUSH1 0x2 SLOAD DUP2 JUMP JUMPDEST PUSH1 0x60 PUSH1 0x8 DUP1 SLOAD PUSH2 0xABA SWAP1 PUSH2 0x225C JUMP JUMPDEST DUP1 PUSH1 0x1F ADD PUSH1 0x20 DUP1 SWAP2 DIV MUL PUSH1 0x20 ADD PUSH1 0x40 MLOAD SWAP1 DUP2 ADD PUSH1 0x40 MSTORE DUP1 SWAP3 SWAP2 SWAP1 DUP2 DUP2 MSTORE PUSH1 0x20 ADD DUP3 DUP1 SLOAD PUSH2 0xAE6 SWAP1 PUSH2 0x225C JUMP JUMPDEST DUP1 ISZERO PUSH2 0xB33 JUMPI DUP1 PUSH1 0x1F LT PUSH2 0xB08 JUMPI PUSH2 0x100 DUP1 DUP4 SLOAD DIV MUL DUP4 MSTORE SWAP2 PUSH1 0x20 ADD SWAP2 PUSH2 0xB33 JUMP JUMPDEST DUP3 ADD SWAP2 SWAP1 PUSH1 0x0 MSTORE PUSH1 0x20 PUSH1 0x0 KECCAK256 SWAP1 JUMPDEST DUP2 SLOAD DUP2 MSTORE SWAP1 PUSH1 0x1 ADD SWAP1 PUSH1 0x20 ADD DUP1 DUP4 GT PUSH2 0xB16 JUMPI DUP3 SWAP1 SUB PUSH1 0x1F AND DUP3 ADD SWAP2 JUMPDEST POP POP POP POP POP SWAP1 POP SWAP1 JUMP JUMPDEST PUSH1 0x0 SLOAD DUP2 JUMP JUMPDEST PUSH2 0xB4B PUSH2 0x100C JUMP JUMPDEST PUSH20 0xFFFFFFFFFFFFFFFFFFFFFFFFFFFFFFFFFFFFFFFF AND DUP3 PUSH20 0xFFFFFFFFFFFFFFFFFFFFFFFFFFFFFFFFFFFFFFFF AND SUB PUSH2 0xBAF JUMPI PUSH1 0x40 MLOAD PUSH32 0xB06307DB00000000000000000000000000000000000000000000000000000000 DUP2 MSTORE PUSH1 0x4 ADD PUSH1 0x40 MLOAD DUP1 SWAP2 SUB SWAP1 REVERT JUMPDEST DUP1 PUSH1 0xC PUSH1 0x0 PUSH2 0xBBC PUSH2 0x100C JUMP JUMPDEST PUSH20 0xFFFFFFFFFFFFFFFFFFFFFFFFFFFFFFFFFFFFFFFF AND PUSH20 0xFFFFFFFFFFFFFFFFFFFFFFFFFFFFFFFFFFFFFFFF AND DUP2 MSTORE PUSH1 0x20 ADD SWAP1 DUP2 MSTORE PUSH1 0x20 ADD PUSH1 0x0 KECCAK256 PUSH1 0x0 DUP5 PUSH20 0xFFFFFFFFFFFFFFFFFFFFFFFFFFFFFFFFFFFFFFFF AND PUSH20 0xFFFFFFFFFFFFFFFFFFFFFFFFFFFFFFFFFFFFFFFF AND DUP2 MSTORE PUSH1 0x20 ADD SWAP1 DUP2 MSTORE PUSH1 0x20 ADD PUSH1 0x0 KECCAK256 PUSH1 0x0 PUSH2 0x100 EXP DUP2 SLOAD DUP2 PUSH1 0xFF MUL NOT AND SWAP1 DUP4 ISZERO ISZERO MUL OR SWAP1 SSTORE POP DUP2 PUSH20 0xFFFFFFFFFFFFFFFFFFFFFFFFFFFFFFFFFFFFFFFF AND PUSH2 0xC69 PUSH2 0x100C JUMP JUMPDEST PUSH20 0xFFFFFFFFFFFFFFFFFFFFFFFFFFFFFFFFFFFFFFFF AND PUSH32 0x17307EAB39AB6107E8899845AD3D59BD9653F200F220920489CA2B5937696C31 DUP4 PUSH1 0x40 MLOAD PUSH2 0xCAE SWAP2 SWAP1 PUSH2 0x1D27 JUMP JUMPDEST PUSH1 0x40 MLOAD DUP1 SWAP2 SUB SWAP1 LOG3 POP POP JUMP JUMPDEST PUSH2 0xCC5 DUP5 DUP5 DUP5 PUSH2 0x10F7 JUMP JUMPDEST PUSH2 0xCE4 DUP4 PUSH20 0xFFFFFFFFFFFFFFFFFFFFFFFFFFFFFFFFFFFFFFFF AND PUSH2 0x185E JUMP JUMPDEST ISZERO PUSH2 0xD2C JUMPI PUSH2 0xCF5 DUP5 DUP5 DUP5 DUP5 PUSH2 0x1881 JUMP JUMPDEST PUSH2 0xD2B JUMPI PUSH1 0x40 MLOAD PUSH32 0xD1A57ED600000000000000000000000000000000000000000000000000000000 DUP2 MSTORE PUSH1 0x4 ADD PUSH1 0x40 MLOAD DUP1 SWAP2 SUB SWAP1 REVERT JUMPDEST JUMPDEST POP POP POP POP JUMP JUMPDEST PUSH1 0x0 DUP1 PUSH2 0xD52 PUSH8 0xDE0B6B3A7640000 PUSH1 0x1 SLOAD PUSH2 0x15BD SWAP1 SWAP2 SWAP1 PUSH4 0xFFFFFFFF AND JUMP JUMPDEST SWAP1 POP PUSH1 0x0 PUSH2 0xD85 PUSH1 0x2 SLOAD PUSH2 0xD77 PUSH8 0xDE0B6B3A7640000 DUP8 PUSH2 0x15BD SWAP1 SWAP2 SWAP1 PUSH4 0xFFFFFFFF AND JUMP JUMPDEST PUSH2 0x19D1 SWAP1 SWAP2 SWAP1 PUSH4 0xFFFFFFFF AND JUMP JUMPDEST SWAP1 POP PUSH1 0x0 PUSH2 0xD9C DUP3 DUP5 PUSH2 0x19D1 SWAP1 SWAP2 SWAP1 PUSH4 0xFFFFFFFF AND JUMP JUMPDEST SWAP1 POP DUP1 SWAP4 POP POP POP POP SWAP2 SWAP1 POP JUMP JUMPDEST PUSH1 0x60 PUSH2 0xDB4 DUP3 PUSH2 0xFBE JUMP JUMPDEST PUSH2 0xDEA JUMPI PUSH1 0x40 MLOAD PUSH32 0xA14C4B5000000000000000000000000000000000000000000000000000000000 DUP2 MSTORE PUSH1 0x4 ADD PUSH1 0x40 MLOAD DUP1 SWAP2 SUB SWAP1 REVERT JUMPDEST PUSH1 0x0 PUSH2 0xDF4 PUSH2 0x19E7 JUMP JUMPDEST SWAP1 POP PUSH1 0x0 DUP2 MLOAD SUB PUSH2 0xE14 JUMPI PUSH1 0x40 MLOAD DUP1 PUSH1 0x20 ADD PUSH1 0x40 MSTORE DUP1 PUSH1 0x0 DUP2 MSTORE POP PUSH2 0xE3F JUMP JUMPDEST DUP1 PUSH2 0xE1E DUP5 PUSH2 0x1A07 JUMP JUMPDEST PUSH1 0x40 MLOAD PUSH1 0x20 ADD PUSH2 0xE2F SWAP3 SWAP2 SWAP1 PUSH2 0x22C9 JUMP JUMPDEST PUSH1 0x40 MLOAD PUSH1 0x20 DUP2 DUP4 SUB SUB DUP2 MSTORE SWAP1 PUSH1 0x40 MSTORE JUMPDEST SWAP2 POP POP SWAP2 SWAP1 POP JUMP JUMPDEST PUSH1 0x0 PUSH2 0xE51 PUSH2 0x10C6 JUMP JUMPDEST PUSH1 0x6 SLOAD PUSH1 0x5 SLOAD SUB SUB SWAP1 POP SWAP1 JUMP JUMPDEST PUSH1 0x0 PUSH1 0xC PUSH1 0x0 DUP5 PUSH20 0xFFFFFFFFFFFFFFFFFFFFFFFFFFFFFFFFFFFFFFFF AND PUSH20 0xFFFFFFFFFFFFFFFFFFFFFFFFFFFFFFFFFFFFFFFF AND DUP2 MSTORE PUSH1 0x20 ADD SWAP1 DUP2 MSTORE PUSH1 0x20 ADD PUSH1 0x0 KECCAK256 PUSH1 0x0 DUP4 PUSH20 0xFFFFFFFFFFFFFFFFFFFFFFFFFFFFFFFFFFFFFFFF AND PUSH20 0xFFFFFFFFFFFFFFFFFFFFFFFFFFFFFFFFFFFFFFFF AND DUP2 MSTORE PUSH1 0x20 ADD SWAP1 DUP2 MSTORE PUSH1 0x20 ADD PUSH1 0x0 KECCAK256 PUSH1 0x0 SWAP1 SLOAD SWAP1 PUSH2 0x100 EXP SWAP1 DIV PUSH1 0xFF AND SWAP1 POP SWAP3 SWAP2 POP POP JUMP JUMPDEST PUSH1 0x0 DUP1 PUSH2 0xF1C DUP4 PUSH2 0xF0E PUSH1 0x0 SLOAD DUP7 PUSH2 0x15BD SWAP1 SWAP2 SWAP1 PUSH4 0xFFFFFFFF AND JUMP JUMPDEST PUSH2 0x10E1 SWAP1 SWAP2 SWAP1 PUSH4 0xFFFFFFFF AND JUMP JUMPDEST SWAP1 POP PUSH1 0x0 PUSH1 0xA DUP3 PUSH2 0xF2D SWAP2 SWAP1 PUSH2 0x231C JUMP JUMPDEST SUB PUSH2 0xF3B JUMPI PUSH1 0x1 SWAP1 POP PUSH2 0xF4B JUMP JUMPDEST PUSH1 0xA DUP2 PUSH2 0xF48 SWAP2 SWAP1 PUSH2 0x231C JUMP JUMPDEST SWAP1 POP JUMPDEST DUP1 SWAP2 POP POP SWAP2 SWAP1 POP JUMP JUMPDEST PUSH1 0x0 PUSH32 0x1FFC9A700000000000000000000000000000000000000000000000000000000 PUSH28 0xFFFFFFFFFFFFFFFFFFFFFFFFFFFFFFFFFFFFFFFFFFFFFFFFFFFFFFFF NOT AND DUP3 PUSH28 0xFFFFFFFFFFFFFFFFFFFFFFFFFFFFFFFFFFFFFFFFFFFFFFFFFFFFFFFF NOT AND EQ SWAP1 POP SWAP2 SWAP1 POP JUMP JUMPDEST PUSH1 0x0 DUP2 PUSH2 0xFC9 PUSH2 0x10C6 JUMP JUMPDEST GT ISZERO DUP1 ISZERO PUSH2 0xFD8 JUMPI POP PUSH1 0x4 SLOAD DUP3 LT JUMPDEST DUP1 ISZERO PUSH2 0x1005 JUMPI POP PUSH1 0x9 PUSH1 0x0 DUP4 DUP2 MSTORE PUSH1 0x20 ADD SWAP1 DUP2 MSTORE PUSH1 0x20 ADD PUSH1 0x0 KECCAK256 PUSH1 0x0 ADD PUSH1 0x1C SWAP1 SLOAD SWAP1 PUSH2 0x100 EXP SWAP1 DIV PUSH1 0xFF AND ISZERO JUMPDEST SWAP1 POP SWAP2 SWAP1 POP JUMP JUMPDEST PUSH1 0x0 CALLER SWAP1 POP SWAP1 JUMP JUMPDEST DUP3 PUSH1 0xB PUSH1 0x0 DUP5 DUP2 MSTORE PUSH1 0x20 ADD SWAP1 DUP2 MSTORE PUSH1 0x20 ADD PUSH1 0x0 KECCAK256 PUSH1 0x0 PUSH2 0x100 EXP DUP2 SLOAD DUP2 PUSH20 0xFFFFFFFFFFFFFFFFFFFFFFFFFFFFFFFFFFFFFFFF MUL NOT AND SWAP1 DUP4 PUSH20 0xFFFFFFFFFFFFFFFFFFFFFFFFFFFFFFFFFFFFFFFF AND MUL OR SWAP1 SSTORE POP DUP2 DUP4 PUSH20 0xFFFFFFFFFFFFFFFFFFFFFFFFFFFFFFFFFFFFFFFF AND DUP3 PUSH20 0xFFFFFFFFFFFFFFFFFFFFFFFFFFFFFFFFFFFFFFFF AND PUSH32 0x8C5BE1E5EBEC7D5BD14F71427D1E84F3DD0314C0F7B2291E5B200AC8C7C3B925 PUSH1 0x40 MLOAD PUSH1 0x40 MLOAD DUP1 SWAP2 SUB SWAP1 LOG4 POP POP POP JUMP JUMPDEST PUSH1 0x0 SWAP1 JUMP JUMPDEST PUSH1 0x0 DUP2 DUP4 PUSH2 0x10D9 SWAP2 SWAP1 PUSH2 0x237C JUMP JUMPDEST SWAP1 POP SWAP3 SWAP2 POP POP JUMP JUMPDEST PUSH1 0x0 DUP2 DUP4 PUSH2 0x10EF SWAP2 SWAP1 PUSH2 0x23B0 JUMP JUMPDEST SWAP1 POP SWAP3 SWAP2 POP POP JUMP JUMPDEST PUSH2 0x1100 DUP4 PUSH2 0x1B67 JUMP JUMPDEST PUSH2 0x1109 DUP3 PUSH2 0x1B67 JUMP JUMPDEST PUSH1 0x0 PUSH2 0x1114 DUP3 PUSH2 0x15D3 JUMP JUMPDEST SWAP1 POP DUP4 PUSH20 0xFFFFFFFFFFFFFFFFFFFFFFFFFFFFFFFFFFFFFFFF AND DUP2 PUSH1 0x0 ADD MLOAD PUSH20 0xFFFFFFFFFFFFFFFFFFFFFFFFFFFFFFFFFFFFFFFF AND EQ PUSH2 0x117F JUMPI PUSH1 0x40 MLOAD PUSH32 0xA114810000000000000000000000000000000000000000000000000000000000 DUP2 MSTORE PUSH1 0x4 ADD PUSH1 0x40 MLOAD DUP1 SWAP2 SUB SWAP1 REVERT JUMPDEST PUSH1 0x0 DUP5 PUSH20 0xFFFFFFFFFFFFFFFFFFFFFFFFFFFFFFFFFFFFFFFF AND PUSH2 0x11A0 PUSH2 0x100C JUMP JUMPDEST PUSH20 0xFFFFFFFFFFFFFFFFFFFFFFFFFFFFFFFFFFFFFFFF AND EQ DUP1 PUSH2 0x11CF JUMPI POP PUSH2 0x11CE DUP6 PUSH2 0x11C9 PUSH2 0x100C JUMP JUMPDEST PUSH2 0xE5E JUMP JUMPDEST JUMPDEST DUP1 PUSH2 0x1214 JUMPI POP PUSH2 0x11DD PUSH2 0x100C JUMP JUMPDEST PUSH20 0xFFFFFFFFFFFFFFFFFFFFFFFFFFFFFFFFFFFFFFFF AND PUSH2 0x11FC DUP5 PUSH2 0x60E JUMP JUMPDEST PUSH20 0xFFFFFFFFFFFFFFFFFFFFFFFFFFFFFFFFFFFFFFFF AND EQ JUMPDEST SWAP1 POP DUP1 PUSH2 0x124D JUMPI PUSH1 0x40 MLOAD PUSH32 0x59C896BE00000000000000000000000000000000000000000000000000000000 DUP2 MSTORE PUSH1 0x4 ADD PUSH1 0x40 MLOAD DUP1 SWAP2 SUB SWAP1 REVERT JUMPDEST PUSH1 0x0 PUSH20 0xFFFFFFFFFFFFFFFFFFFFFFFFFFFFFFFFFFFFFFFF AND DUP5 PUSH20 0xFFFFFFFFFFFFFFFFFFFFFFFFFFFFFFFFFFFFFFFF AND SUB PUSH2 0x12B3 JUMPI PUSH1 0x40 MLOAD PUSH32 0xEA553B3400000000000000000000000000000000000000000000000000000000 DUP2 MSTORE PUSH1 0x4 ADD PUSH1 0x40 MLOAD DUP1 SWAP2 SUB SWAP1 REVERT JUMPDEST PUSH2 0x12C0 DUP6 DUP6 DUP6 PUSH1 0x1 PUSH2 0x1C24 JUMP JUMPDEST PUSH2 0x12CC PUSH1 0x0 DUP5 DUP8 PUSH2 0x1014 JUMP JUMPDEST PUSH1 0x1 PUSH1 0xA PUSH1 0x0 DUP8 PUSH20 0xFFFFFFFFFFFFFFFFFFFFFFFFFFFFFFFFFFFFFFFF AND PUSH20 0xFFFFFFFFFFFFFFFFFFFFFFFFFFFFFFFFFFFFFFFF AND DUP2 MSTORE PUSH1 0x20 ADD SWAP1 DUP2 MSTORE PUSH1 0x20 ADD PUSH1 0x0 KECCAK256 PUSH1 0x0 ADD PUSH1 0x0 DUP3 DUP3 DUP3 SWAP1 SLOAD SWAP1 PUSH2 0x100 EXP SWAP1 DIV PUSH8 0xFFFFFFFFFFFFFFFF AND SUB SWAP3 POP PUSH2 0x100 EXP DUP2 SLOAD DUP2 PUSH8 0xFFFFFFFFFFFFFFFF MUL NOT AND SWAP1 DUP4 PUSH8 0xFFFFFFFFFFFFFFFF AND MUL OR SWAP1 SSTORE POP PUSH1 0x1 PUSH1 0xA PUSH1 0x0 DUP7 PUSH20 0xFFFFFFFFFFFFFFFFFFFFFFFFFFFFFFFFFFFFFFFF AND PUSH20 0xFFFFFFFFFFFFFFFFFFFFFFFFFFFFFFFFFFFFFFFF AND DUP2 MSTORE PUSH1 0x20 ADD SWAP1 DUP2 MSTORE PUSH1 0x20 ADD PUSH1 0x0 KECCAK256 PUSH1 0x0 ADD PUSH1 0x0 DUP3 DUP3 DUP3 SWAP1 SLOAD SWAP1 PUSH2 0x100 EXP SWAP1 DIV PUSH8 0xFFFFFFFFFFFFFFFF AND ADD SWAP3 POP PUSH2 0x100 EXP DUP2 SLOAD DUP2 PUSH8 0xFFFFFFFFFFFFFFFF MUL NOT AND SWAP1 DUP4 PUSH8 0xFFFFFFFFFFFFFFFF AND MUL OR SWAP1 SSTORE POP PUSH1 0x0 PUSH1 0x9 PUSH1 0x0 DUP6 DUP2 MSTORE PUSH1 0x20 ADD SWAP1 DUP2 MSTORE PUSH1 0x20 ADD PUSH1 0x0 KECCAK256 SWAP1 POP DUP5 DUP2 PUSH1 0x0 ADD PUSH1 0x0 PUSH2 0x100 EXP DUP2 SLOAD DUP2 PUSH20 0xFFFFFFFFFFFFFFFFFFFFFFFFFFFFFFFFFFFFFFFF MUL NOT AND SWAP1 DUP4 PUSH20 0xFFFFFFFFFFFFFFFFFFFFFFFFFFFFFFFFFFFFFFFF AND MUL OR SWAP1 SSTORE POP TIMESTAMP DUP2 PUSH1 0x0 ADD PUSH1 0x14 PUSH2 0x100 EXP DUP2 SLOAD DUP2 PUSH8 0xFFFFFFFFFFFFFFFF MUL NOT AND SWAP1 DUP4 PUSH8 0xFFFFFFFFFFFFFFFF AND MUL OR SWAP1 SSTORE POP PUSH1 0x0 PUSH1 0x1 DUP6 ADD SWAP1 POP PUSH1 0x0 PUSH1 0x9 PUSH1 0x0 DUP4 DUP2 MSTORE PUSH1 0x20 ADD SWAP1 DUP2 MSTORE PUSH1 0x20 ADD PUSH1 0x0 KECCAK256 SWAP1 POP PUSH1 0x0 PUSH20 0xFFFFFFFFFFFFFFFFFFFFFFFFFFFFFFFFFFFFFFFF AND DUP2 PUSH1 0x0 ADD PUSH1 0x0 SWAP1 SLOAD SWAP1 PUSH2 0x100 EXP SWAP1 DIV PUSH20 0xFFFFFFFFFFFFFFFFFFFFFFFFFFFFFFFFFFFFFFFF AND PUSH20 0xFFFFFFFFFFFFFFFFFFFFFFFFFFFFFFFFFFFFFFFF AND SUB PUSH2 0x154B JUMPI PUSH1 0x4 SLOAD DUP3 EQ PUSH2 0x154A JUMPI DUP8 DUP2 PUSH1 0x0 ADD PUSH1 0x0 PUSH2 0x100 EXP DUP2 SLOAD DUP2 PUSH20 0xFFFFFFFFFFFFFFFFFFFFFFFFFFFFFFFFFFFFFFFF MUL NOT AND SWAP1 DUP4 PUSH20 0xFFFFFFFFFFFFFFFFFFFFFFFFFFFFFFFFFFFFFFFF AND MUL OR SWAP1 SSTORE POP DUP5 PUSH1 0x20 ADD MLOAD DUP2 PUSH1 0x0 ADD PUSH1 0x14 PUSH2 0x100 EXP DUP2 SLOAD DUP2 PUSH8 0xFFFFFFFFFFFFFFFF MUL NOT AND SWAP1 DUP4 PUSH8 0xFFFFFFFFFFFFFFFF AND MUL OR SWAP1 SSTORE POP JUMPDEST JUMPDEST POP POP POP DUP3 DUP5 PUSH20 0xFFFFFFFFFFFFFFFFFFFFFFFFFFFFFFFFFFFFFFFF AND DUP7 PUSH20 0xFFFFFFFFFFFFFFFFFFFFFFFFFFFFFFFFFFFFFFFF AND PUSH32 0xDDF252AD1BE2C89B69C2B068FC378DAA952BA7F163C4A11628F55A4DF523B3EF PUSH1 0x40 MLOAD PUSH1 0x40 MLOAD DUP1 SWAP2 SUB SWAP1 LOG4 PUSH2 0x15B6 DUP6 DUP6 DUP6 PUSH1 0x1 PUSH2 0x1C2A JUMP JUMPDEST POP POP POP POP POP JUMP JUMPDEST PUSH1 0x0 DUP2 DUP4 PUSH2 0x15CB SWAP2 SWAP1 PUSH2 0x23E4 JUMP JUMPDEST SWAP1 POP SWAP3 SWAP2 POP POP JUMP JUMPDEST PUSH2 0x15DB PUSH2 0x1C30 JUMP JUMPDEST PUSH1 0x0 DUP3 SWAP1 POP DUP1 PUSH2 0x15E9 PUSH2 0x10C6 JUMP JUMPDEST GT PUSH2 0x1827 JUMPI PUSH1 0x4 SLOAD DUP2 LT ISZERO PUSH2 0x1826 JUMPI PUSH1 0x0 PUSH1 0x9 PUSH1 0x0 DUP4 DUP2 MSTORE PUSH1 0x20 ADD SWAP1 DUP2 MSTORE PUSH1 0x20 ADD PUSH1 0x0 KECCAK256 PUSH1 0x40 MLOAD DUP1 PUSH1 0x60 ADD PUSH1 0x40 MSTORE SWAP1 DUP2 PUSH1 0x0 DUP3 ADD PUSH1 0x0 SWAP1 SLOAD SWAP1 PUSH2 0x100 EXP SWAP1 DIV PUSH20 0xFFFFFFFFFFFFFFFFFFFFFFFFFFFFFFFFFFFFFFFF AND PUSH20 0xFFFFFFFFFFFFFFFFFFFFFFFFFFFFFFFFFFFFFFFF AND PUSH20 0xFFFFFFFFFFFFFFFFFFFFFFFFFFFFFFFFFFFFFFFF AND DUP2 MSTORE PUSH1 0x20 ADD PUSH1 0x0 DUP3 ADD PUSH1 0x14 SWAP1 SLOAD SWAP1 PUSH2 0x100 EXP SWAP1 DIV PUSH8 0xFFFFFFFFFFFFFFFF AND PUSH8 0xFFFFFFFFFFFFFFFF AND PUSH8 0xFFFFFFFFFFFFFFFF AND DUP2 MSTORE PUSH1 0x20 ADD PUSH1 0x0 DUP3 ADD PUSH1 0x1C SWAP1 SLOAD SWAP1 PUSH2 0x100 EXP SWAP1 DIV PUSH1 0xFF AND ISZERO ISZERO ISZERO ISZERO DUP2 MSTORE POP POP SWAP1 POP DUP1 PUSH1 0x40 ADD MLOAD PUSH2 0x1824 JUMPI PUSH1 0x0 PUSH20 0xFFFFFFFFFFFFFFFFFFFFFFFFFFFFFFFFFFFFFFFF AND DUP2 PUSH1 0x0 ADD MLOAD PUSH20 0xFFFFFFFFFFFFFFFFFFFFFFFFFFFFFFFFFFFFFFFF AND EQ PUSH2 0x1708 JUMPI DUP1 SWAP3 POP POP POP PUSH2 0x1859 JUMP JUMPDEST JUMPDEST PUSH1 0x1 ISZERO PUSH2 0x1823 JUMPI DUP2 DUP1 PUSH1 0x1 SWAP1 SUB SWAP3 POP POP PUSH1 0x9 PUSH1 0x0 DUP4 DUP2 MSTORE PUSH1 0x20 ADD SWAP1 DUP2 MSTORE PUSH1 0x20 ADD PUSH1 0x0 KECCAK256 PUSH1 0x40 MLOAD DUP1 PUSH1 0x60 ADD PUSH1 0x40 MSTORE SWAP1 DUP2 PUSH1 0x0 DUP3 ADD PUSH1 0x0 SWAP1 SLOAD SWAP1 PUSH2 0x100 EXP SWAP1 DIV PUSH20 0xFFFFFFFFFFFFFFFFFFFFFFFFFFFFFFFFFFFFFFFF AND PUSH20 0xFFFFFFFFFFFFFFFFFFFFFFFFFFFFFFFFFFFFFFFF AND PUSH20 0xFFFFFFFFFFFFFFFFFFFFFFFFFFFFFFFFFFFFFFFF AND DUP2 MSTORE PUSH1 0x20 ADD PUSH1 0x0 DUP3 ADD PUSH1 0x14 SWAP1 SLOAD SWAP1 PUSH2 0x100 EXP SWAP1 DIV PUSH8 0xFFFFFFFFFFFFFFFF AND PUSH8 0xFFFFFFFFFFFFFFFF AND PUSH8 0xFFFFFFFFFFFFFFFF AND DUP2 MSTORE PUSH1 0x20 ADD PUSH1 0x0 DUP3 ADD PUSH1 0x1C SWAP1 SLOAD SWAP1 PUSH2 0x100 EXP SWAP1 DIV PUSH1 0xFF AND ISZERO ISZERO ISZERO ISZERO DUP2 MSTORE POP POP SWAP1 POP PUSH1 0x0 PUSH20 0xFFFFFFFFFFFFFFFFFFFFFFFFFFFFFFFFFFFFFFFF AND DUP2 PUSH1 0x0 ADD MLOAD PUSH20 0xFFFFFFFFFFFFFFFFFFFFFFFFFFFFFFFFFFFFFFFF AND EQ PUSH2 0x181E JUMPI DUP1 SWAP3 POP POP POP PUSH2 0x1859 JUMP JUMPDEST PUSH2 0x1709 JUMP JUMPDEST JUMPDEST POP JUMPDEST JUMPDEST PUSH1 0x40 MLOAD PUSH32 0xDF2D9B4200000000000000000000000000000000000000000000000000000000 DUP2 MSTORE PUSH1 0x4 ADD PUSH1 0x40 MLOAD DUP1 SWAP2 SUB SWAP1 REVERT JUMPDEST SWAP2 SWAP1 POP JUMP JUMPDEST PUSH1 0x0 DUP1 DUP3 PUSH20 0xFFFFFFFFFFFFFFFFFFFFFFFFFFFFFFFFFFFFFFFF AND EXTCODESIZE GT SWAP1 POP SWAP2 SWAP1 POP JUMP JUMPDEST PUSH1 0x0 DUP4 PUSH20 0xFFFFFFFFFFFFFFFFFFFFFFFFFFFFFFFFFFFFFFFF AND PUSH4 0x150B7A02 PUSH2 0x18A7 PUSH2 0x100C JUMP JUMPDEST DUP8 DUP7 DUP7 PUSH1 0x40 MLOAD DUP6 PUSH4 0xFFFFFFFF AND PUSH1 0xE0 SHL DUP2 MSTORE PUSH1 0x4 ADD PUSH2 0x18C9 SWAP5 SWAP4 SWAP3 SWAP2 SWAP1 PUSH2 0x247B JUMP JUMPDEST PUSH1 0x20 PUSH1 0x40 MLOAD DUP1 DUP4 SUB DUP2 PUSH1 0x0 DUP8 GAS CALL SWAP3 POP POP POP DUP1 ISZERO PUSH2 0x1905 JUMPI POP PUSH1 0x40 MLOAD RETURNDATASIZE PUSH1 0x1F NOT PUSH1 0x1F DUP3 ADD AND DUP3 ADD DUP1 PUSH1 0x40 MSTORE POP DUP2 ADD SWAP1 PUSH2 0x1902 SWAP2 SWAP1 PUSH2 0x24DC JUMP JUMPDEST PUSH1 0x1 JUMPDEST PUSH2 0x197E JUMPI RETURNDATASIZE DUP1 PUSH1 0x0 DUP2 EQ PUSH2 0x1935 JUMPI PUSH1 0x40 MLOAD SWAP2 POP PUSH1 0x1F NOT PUSH1 0x3F RETURNDATASIZE ADD AND DUP3 ADD PUSH1 0x40 MSTORE RETURNDATASIZE DUP3 MSTORE RETURNDATASIZE PUSH1 0x0 PUSH1 0x20 DUP5 ADD RETURNDATACOPY PUSH2 0x193A JUMP JUMPDEST PUSH1 0x60 SWAP2 POP JUMPDEST POP PUSH1 0x0 DUP2 MLOAD SUB PUSH2 0x1976 JUMPI PUSH1 0x40 MLOAD PUSH32 0xD1A57ED600000000000000000000000000000000000000000000000000000000 DUP2 MSTORE PUSH1 0x4 ADD PUSH1 0x40 MLOAD DUP1 SWAP2 SUB SWAP1 REVERT JUMPDEST DUP1 MLOAD DUP2 PUSH1 0x20 ADD REVERT JUMPDEST PUSH4 0x150B7A02 PUSH1 0xE0 SHL PUSH28 0xFFFFFFFFFFFFFFFFFFFFFFFFFFFFFFFFFFFFFFFFFFFFFFFFFFFFFFFF NOT AND DUP2 PUSH28 0xFFFFFFFFFFFFFFFFFFFFFFFFFFFFFFFFFFFFFFFFFFFFFFFFFFFFFFFF NOT AND EQ SWAP2 POP POP SWAP5 SWAP4 POP POP POP POP JUMP JUMPDEST PUSH1 0x0 DUP2 DUP4 PUSH2 0x19DF SWAP2 SWAP1 PUSH2 0x2509 JUMP JUMPDEST SWAP1 POP SWAP3 SWAP2 POP POP JUMP JUMPDEST PUSH1 0x60 PUSH1 0x40 MLOAD DUP1 PUSH1 0x80 ADD PUSH1 0x40 MSTORE DUP1 PUSH1 0x51 DUP2 MSTORE PUSH1 0x20 ADD PUSH2 0x25B2 PUSH1 0x51 SWAP2 CODECOPY SWAP1 POP SWAP1 JUMP JUMPDEST PUSH1 0x60 PUSH1 0x0 DUP3 SUB PUSH2 0x1A4E JUMPI PUSH1 0x40 MLOAD DUP1 PUSH1 0x40 ADD PUSH1 0x40 MSTORE DUP1 PUSH1 0x1 DUP2 MSTORE PUSH1 0x20 ADD PUSH32 0x3000000000000000000000000000000000000000000000000000000000000000 DUP2 MSTORE POP SWAP1 POP PUSH2 0x1B62 JUMP JUMPDEST PUSH1 0x0 DUP3 SWAP1 POP PUSH1 0x0 JUMPDEST PUSH1 0x0 DUP3 EQ PUSH2 0x1A80 JUMPI DUP1 DUP1 PUSH2 0x1A69 SWAP1 PUSH2 0x253A JUMP JUMPDEST SWAP2 POP POP PUSH1 0xA DUP3 PUSH2 0x1A79 SWAP2 SWAP1 PUSH2 0x2509 JUMP JUMPDEST SWAP2 POP PUSH2 0x1A56 JUMP JUMPDEST PUSH1 0x0 DUP2 PUSH8 0xFFFFFFFFFFFFFFFF DUP2 GT ISZERO PUSH2 0x1A9C JUMPI PUSH2 0x1A9B PUSH2 0x203F JUMP JUMPDEST JUMPDEST PUSH1 0x40 MLOAD SWAP1 DUP1 DUP3 MSTORE DUP1 PUSH1 0x1F ADD PUSH1 0x1F NOT AND PUSH1 0x20 ADD DUP3 ADD PUSH1 0x40 MSTORE DUP1 ISZERO PUSH2 0x1ACE JUMPI DUP2 PUSH1 0x20 ADD PUSH1 0x1 DUP3 MUL DUP1 CALLDATASIZE DUP4 CALLDATACOPY DUP1 DUP3 ADD SWAP2 POP POP SWAP1 POP JUMPDEST POP SWAP1 POP JUMPDEST PUSH1 0x0 DUP6 EQ PUSH2 0x1B5B JUMPI PUSH1 0x1 DUP3 PUSH2 0x1AE7 SWAP2 SWAP1 PUSH2 0x237C JUMP JUMPDEST SWAP2 POP PUSH1 0xA DUP6 PUSH2 0x1AF6 SWAP2 SWAP1 PUSH2 0x231C JUMP JUMPDEST PUSH1 0x30 PUSH2 0x1B02 SWAP2 SWAP1 PUSH2 0x23B0 JUMP JUMPDEST PUSH1 0xF8 SHL DUP2 DUP4 DUP2 MLOAD DUP2 LT PUSH2 0x1B18 JUMPI PUSH2 0x1B17 PUSH2 0x2582 JUMP JUMPDEST JUMPDEST PUSH1 0x20 ADD ADD SWAP1 PUSH31 0xFFFFFFFFFFFFFFFFFFFFFFFFFFFFFFFFFFFFFFFFFFFFFFFFFFFFFFFFFFFFFF NOT AND SWAP1 DUP2 PUSH1 0x0 BYTE SWAP1 MSTORE8 POP PUSH1 0xA DUP6 PUSH2 0x1B54 SWAP2 SWAP1 PUSH2 0x2509 JUMP JUMPDEST SWAP5 POP PUSH2 0x1AD2 JUMP JUMPDEST DUP1 SWAP4 POP POP POP POP JUMPDEST SWAP2 SWAP1 POP JUMP JUMPDEST PUSH1 0x0 PUSH2 0x1B72 DUP3 PUSH2 0x899 JUMP JUMPDEST SWAP1 POP DUP1 PUSH1 0xD PUSH1 0x0 DUP5 PUSH20 0xFFFFFFFFFFFFFFFFFFFFFFFFFFFFFFFFFFFFFFFF AND PUSH20 0xFFFFFFFFFFFFFFFFFFFFFFFFFFFFFFFFFFFFFFFF AND DUP2 MSTORE PUSH1 0x20 ADD SWAP1 DUP2 MSTORE PUSH1 0x20 ADD PUSH1 0x0 KECCAK256 PUSH1 0x0 PUSH1 0x2 DUP2 MSTORE PUSH1 0x20 ADD SWAP1 DUP2 MSTORE PUSH1 0x20 ADD PUSH1 0x0 KECCAK256 DUP2 SWAP1 SSTORE POP NUMBER PUSH1 0xD PUSH1 0x0 DUP5 PUSH20 0xFFFFFFFFFFFFFFFFFFFFFFFFFFFFFFFFFFFFFFFF AND PUSH20 0xFFFFFFFFFFFFFFFFFFFFFFFFFFFFFFFFFFFFFFFF AND DUP2 MSTORE PUSH1 0x20 ADD SWAP1 DUP2 MSTORE PUSH1 0x20 ADD PUSH1 0x0 KECCAK256 PUSH1 0x0 PUSH1 0x1 DUP2 MSTORE PUSH1 0x20 ADD SWAP1 DUP2 MSTORE PUSH1 0x20 ADD PUSH1 0x0 KECCAK256 DUP2 SWAP1 SSTORE POP POP POP JUMP JUMPDEST POP POP POP POP JUMP JUMPDEST POP POP POP POP JUMP JUMPDEST PUSH1 0x40 MLOAD DUP1 PUSH1 0x60 ADD PUSH1 0x40 MSTORE DUP1 PUSH1 0x0 PUSH20 0xFFFFFFFFFFFFFFFFFFFFFFFFFFFFFFFFFFFFFFFF AND DUP2 MSTORE PUSH1 0x20 ADD PUSH1 0x0 PUSH8 0xFFFFFFFFFFFFFFFF AND DUP2 MSTORE PUSH1 0x20 ADD PUSH1 0x0 ISZERO ISZERO DUP2 MSTORE POP SWAP1 JUMP JUMPDEST PUSH1 0x0 PUSH1 0x40 MLOAD SWAP1 POP SWAP1 JUMP JUMPDEST PUSH1 0x0 DUP1 REVERT JUMPDEST PUSH1 0x0 DUP1 REVERT JUMPDEST PUSH1 0x0 PUSH32 0xFFFFFFFF00000000000000000000000000000000000000000000000000000000 DUP3 AND SWAP1 POP SWAP2 SWAP1 POP JUMP JUMPDEST PUSH2 0x1CBC DUP2 PUSH2 0x1C87 JUMP JUMPDEST DUP2 EQ PUSH2 0x1CC7 JUMPI PUSH1 0x0 DUP1 REVERT JUMPDEST POP JUMP JUMPDEST PUSH1 0x0 DUP2 CALLDATALOAD SWAP1 POP PUSH2 0x1CD9 DUP2 PUSH2 0x1CB3 JUMP JUMPDEST SWAP3 SWAP2 POP POP JUMP JUMPDEST PUSH1 0x0 PUSH1 0x20 DUP3 DUP5 SUB SLT ISZERO PUSH2 0x1CF5 JUMPI PUSH2 0x1CF4 PUSH2 0x1C7D JUMP JUMPDEST JUMPDEST PUSH1 0x0 PUSH2 0x1D03 DUP5 DUP3 DUP6 ADD PUSH2 0x1CCA JUMP JUMPDEST SWAP2 POP POP SWAP3 SWAP2 POP POP JUMP JUMPDEST PUSH1 0x0 DUP2 ISZERO ISZERO SWAP1 POP SWAP2 SWAP1 POP JUMP JUMPDEST PUSH2 0x1D21 DUP2 PUSH2 0x1D0C JUMP JUMPDEST DUP3 MSTORE POP POP JUMP JUMPDEST PUSH1 0x0 PUSH1 0x20 DUP3 ADD SWAP1 POP PUSH2 0x1D3C PUSH1 0x0 DUP4 ADD DUP5 PUSH2 0x1D18 JUMP JUMPDEST SWAP3 SWAP2 POP POP JUMP JUMPDEST PUSH1 0x0 DUP2 MLOAD SWAP1 POP SWAP2 SWAP1 POP JUMP JUMPDEST PUSH1 0x0 DUP3 DUP3 MSTORE PUSH1 0x20 DUP3 ADD SWAP1 POP SWAP3 SWAP2 POP POP JUMP JUMPDEST PUSH1 0x0 JUMPDEST DUP4 DUP2 LT ISZERO PUSH2 0x1D7C JUMPI DUP1 DUP3 ADD MLOAD DUP2 DUP5 ADD MSTORE PUSH1 0x20 DUP2 ADD SWAP1 POP PUSH2 0x1D61 JUMP JUMPDEST PUSH1 0x0 DUP5 DUP5 ADD MSTORE POP POP POP POP JUMP JUMPDEST PUSH1 0x0 PUSH1 0x1F NOT PUSH1 0x1F DUP4 ADD AND SWAP1 POP SWAP2 SWAP1 POP JUMP JUMPDEST PUSH1 0x0 PUSH2 0x1DA4 DUP3 PUSH2 0x1D42 JUMP JUMPDEST PUSH2 0x1DAE DUP2 DUP6 PUSH2 0x1D4D JUMP JUMPDEST SWAP4 POP PUSH2 0x1DBE DUP2 DUP6 PUSH1 0x20 DUP7 ADD PUSH2 0x1D5E JUMP JUMPDEST PUSH2 0x1DC7 DUP2 PUSH2 0x1D88 JUMP JUMPDEST DUP5 ADD SWAP2 POP POP SWAP3 SWAP2 POP POP JUMP JUMPDEST PUSH1 0x0 PUSH1 0x20 DUP3 ADD SWAP1 POP DUP2 DUP2 SUB PUSH1 0x0 DUP4 ADD MSTORE PUSH2 0x1DEC DUP2 DUP5 PUSH2 0x1D99 JUMP JUMPDEST SWAP1 POP SWAP3 SWAP2 POP POP JUMP JUMPDEST PUSH1 0x0 DUP2 SWAP1 POP SWAP2 SWAP1 POP JUMP JUMPDEST PUSH2 0x1E07 DUP2 PUSH2 0x1DF4 JUMP JUMPDEST DUP2 EQ PUSH2 0x1E12 JUMPI PUSH1 0x0 DUP1 REVERT JUMPDEST POP JUMP JUMPDEST PUSH1 0x0 DUP2 CALLDATALOAD SWAP1 POP PUSH2 0x1E24 DUP2 PUSH2 0x1DFE JUMP JUMPDEST SWAP3 SWAP2 POP POP JUMP JUMPDEST PUSH1 0x0 PUSH1 0x20 DUP3 DUP5 SUB SLT ISZERO PUSH2 0x1E40 JUMPI PUSH2 0x1E3F PUSH2 0x1C7D JUMP JUMPDEST JUMPDEST PUSH1 0x0 PUSH2 0x1E4E DUP5 DUP3 DUP6 ADD PUSH2 0x1E15 JUMP JUMPDEST SWAP2 POP POP SWAP3 SWAP2 POP POP JUMP JUMPDEST PUSH1 0x0 PUSH20 0xFFFFFFFFFFFFFFFFFFFFFFFFFFFFFFFFFFFFFFFF DUP3 AND SWAP1 POP SWAP2 SWAP1 POP JUMP JUMPDEST PUSH1 0x0 PUSH2 0x1E82 DUP3 PUSH2 0x1E57 JUMP JUMPDEST SWAP1 POP SWAP2 SWAP1 POP JUMP JUMPDEST PUSH2 0x1E92 DUP2 PUSH2 0x1E77 JUMP JUMPDEST DUP3 MSTORE POP POP JUMP JUMPDEST PUSH1 0x0 PUSH1 0x20 DUP3 ADD SWAP1 POP PUSH2 0x1EAD PUSH1 0x0 DUP4 ADD DUP5 PUSH2 0x1E89 JUMP JUMPDEST SWAP3 SWAP2 POP POP JUMP JUMPDEST PUSH2 0x1EBC DUP2 PUSH2 0x1E77 JUMP JUMPDEST DUP2 EQ PUSH2 0x1EC7 JUMPI PUSH1 0x0 DUP1 REVERT JUMPDEST POP JUMP JUMPDEST PUSH1 0x0 DUP2 CALLDATALOAD SWAP1 POP PUSH2 0x1ED9 DUP2 PUSH2 0x1EB3 JUMP JUMPDEST SWAP3 SWAP2 POP POP JUMP JUMPDEST PUSH1 0x0 DUP1 PUSH1 0x40 DUP4 DUP6 SUB SLT ISZERO PUSH2 0x1EF6 JUMPI PUSH2 0x1EF5 PUSH2 0x1C7D JUMP JUMPDEST JUMPDEST PUSH1 0x0 PUSH2 0x1F04 DUP6 DUP3 DUP7 ADD PUSH2 0x1ECA JUMP JUMPDEST SWAP3 POP POP PUSH1 0x20 PUSH2 0x1F15 DUP6 DUP3 DUP7 ADD PUSH2 0x1E15 JUMP JUMPDEST SWAP2 POP POP SWAP3 POP SWAP3 SWAP1 POP JUMP JUMPDEST PUSH2 0x1F28 DUP2 PUSH2 0x1DF4 JUMP JUMPDEST DUP3 MSTORE POP POP JUMP JUMPDEST PUSH1 0x0 PUSH1 0x20 DUP3 ADD SWAP1 POP PUSH2 0x1F43 PUSH1 0x0 DUP4 ADD DUP5 PUSH2 0x1F1F JUMP JUMPDEST SWAP3 SWAP2 POP POP JUMP JUMPDEST PUSH1 0x0 PUSH1 0x20 DUP3 DUP5 SUB SLT ISZERO PUSH2 0x1F5F JUMPI PUSH2 0x1F5E PUSH2 0x1C7D JUMP JUMPDEST JUMPDEST PUSH1 0x0 PUSH2 0x1F6D DUP5 DUP3 DUP6 ADD PUSH2 0x1ECA JUMP JUMPDEST SWAP2 POP POP SWAP3 SWAP2 POP POP JUMP JUMPDEST PUSH1 0x0 DUP1 PUSH1 0x0 PUSH1 0x60 DUP5 DUP7 SUB SLT ISZERO PUSH2 0x1F8F JUMPI PUSH2 0x1F8E PUSH2 0x1C7D JUMP JUMPDEST JUMPDEST PUSH1 0x0 PUSH2 0x1F9D DUP7 DUP3 DUP8 ADD PUSH2 0x1ECA JUMP JUMPDEST SWAP4 POP POP PUSH1 0x20 PUSH2 0x1FAE DUP7 DUP3 DUP8 ADD PUSH2 0x1ECA JUMP JUMPDEST SWAP3 POP POP PUSH1 0x40 PUSH2 0x1FBF DUP7 DUP3 DUP8 ADD PUSH2 0x1E15 JUMP JUMPDEST SWAP2 POP POP SWAP3 POP SWAP3 POP SWAP3 JUMP JUMPDEST PUSH2 0x1FD2 DUP2 PUSH2 0x1D0C JUMP JUMPDEST DUP2 EQ PUSH2 0x1FDD JUMPI PUSH1 0x0 DUP1 REVERT JUMPDEST POP JUMP JUMPDEST PUSH1 0x0 DUP2 CALLDATALOAD SWAP1 POP PUSH2 0x1FEF DUP2 PUSH2 0x1FC9 JUMP JUMPDEST SWAP3 SWAP2 POP POP JUMP JUMPDEST PUSH1 0x0 DUP1 PUSH1 0x40 DUP4 DUP6 SUB SLT ISZERO PUSH2 0x200C JUMPI PUSH2 0x200B PUSH2 0x1C7D JUMP JUMPDEST JUMPDEST PUSH1 0x0 PUSH2 0x201A DUP6 DUP3 DUP7 ADD PUSH2 0x1ECA JUMP JUMPDEST SWAP3 POP POP PUSH1 0x20 PUSH2 0x202B DUP6 DUP3 DUP7 ADD PUSH2 0x1FE0 JUMP JUMPDEST SWAP2 POP POP SWAP3 POP SWAP3 SWAP1 POP JUMP JUMPDEST PUSH1 0x0 DUP1 REVERT JUMPDEST PUSH1 0x0 DUP1 REVERT JUMPDEST PUSH32 0x4E487B7100000000000000000000000000000000000000000000000000000000 PUSH1 0x0 MSTORE PUSH1 0x41 PUSH1 0x4 MSTORE PUSH1 0x24 PUSH1 0x0 REVERT JUMPDEST PUSH2 0x2077 DUP3 PUSH2 0x1D88 JUMP JUMPDEST DUP2 ADD DUP2 DUP2 LT PUSH8 0xFFFFFFFFFFFFFFFF DUP3 GT OR ISZERO PUSH2 0x2096 JUMPI PUSH2 0x2095 PUSH2 0x203F JUMP JUMPDEST JUMPDEST DUP1 PUSH1 0x40 MSTORE POP POP POP JUMP JUMPDEST PUSH1 0x0 PUSH2 0x20A9 PUSH2 0x1C73 JUMP JUMPDEST SWAP1 POP PUSH2 0x20B5 DUP3 DUP3 PUSH2 0x206E JUMP JUMPDEST SWAP2 SWAP1 POP JUMP JUMPDEST PUSH1 0x0 PUSH8 0xFFFFFFFFFFFFFFFF DUP3 GT ISZERO PUSH2 0x20D5 JUMPI PUSH2 0x20D4 PUSH2 0x203F JUMP JUMPDEST JUMPDEST PUSH2 0x20DE DUP3 PUSH2 0x1D88 JUMP JUMPDEST SWAP1 POP PUSH1 0x20 DUP2 ADD SWAP1 POP SWAP2 SWAP1 POP JUMP JUMPDEST DUP3 DUP2 DUP4 CALLDATACOPY PUSH1 0x0 DUP4 DUP4 ADD MSTORE POP POP POP JUMP JUMPDEST PUSH1 0x0 PUSH2 0x210D PUSH2 0x2108 DUP5 PUSH2 0x20BA JUMP JUMPDEST PUSH2 0x209F JUMP JUMPDEST SWAP1 POP DUP3 DUP2 MSTORE PUSH1 0x20 DUP2 ADD DUP5 DUP5 DUP5 ADD GT ISZERO PUSH2 0x2129 JUMPI PUSH2 0x2128 PUSH2 0x203A JUMP JUMPDEST JUMPDEST PUSH2 0x2134 DUP5 DUP3 DUP6 PUSH2 0x20EB JUMP JUMPDEST POP SWAP4 SWAP3 POP POP POP JUMP JUMPDEST PUSH1 0x0 DUP3 PUSH1 0x1F DUP4 ADD SLT PUSH2 0x2151 JUMPI PUSH2 0x2150 PUSH2 0x2035 JUMP JUMPDEST JUMPDEST DUP2 CALLDATALOAD PUSH2 0x2161 DUP5 DUP3 PUSH1 0x20 DUP7 ADD PUSH2 0x20FA JUMP JUMPDEST SWAP2 POP POP SWAP3 SWAP2 POP POP JUMP JUMPDEST PUSH1 0x0 DUP1 PUSH1 0x0 DUP1 PUSH1 0x80 DUP6 DUP8 SUB SLT ISZERO PUSH2 0x2184 JUMPI PUSH2 0x2183 PUSH2 0x1C7D JUMP JUMPDEST JUMPDEST PUSH1 0x0 PUSH2 0x2192 DUP8 DUP3 DUP9 ADD PUSH2 0x1ECA JUMP JUMPDEST SWAP5 POP POP PUSH1 0x20 PUSH2 0x21A3 DUP8 DUP3 DUP9 ADD PUSH2 0x1ECA JUMP JUMPDEST SWAP4 POP POP PUSH1 0x40 PUSH2 0x21B4 DUP8 DUP3 DUP9 ADD PUSH2 0x1E15 JUMP JUMPDEST SWAP3 POP POP PUSH1 0x60 DUP6 ADD CALLDATALOAD PUSH8 0xFFFFFFFFFFFFFFFF DUP2 GT ISZERO PUSH2 0x21D5 JUMPI PUSH2 0x21D4 PUSH2 0x1C82 JUMP JUMPDEST JUMPDEST PUSH2 0x21E1 DUP8 DUP3 DUP9 ADD PUSH2 0x213C JUMP JUMPDEST SWAP2 POP POP SWAP3 SWAP6 SWAP2 SWAP5 POP SWAP3 POP JUMP JUMPDEST PUSH1 0x0 DUP1 PUSH1 0x40 DUP4 DUP6 SUB SLT ISZERO PUSH2 0x2204 JUMPI PUSH2 0x2203 PUSH2 0x1C7D JUMP JUMPDEST JUMPDEST PUSH1 0x0 PUSH2 0x2212 DUP6 DUP3 DUP7 ADD PUSH2 0x1ECA JUMP JUMPDEST SWAP3 POP POP PUSH1 0x20 PUSH2 0x2223 DUP6 DUP3 DUP7 ADD PUSH2 0x1ECA JUMP JUMPDEST SWAP2 POP POP SWAP3 POP SWAP3 SWAP1 POP JUMP JUMPDEST PUSH32 0x4E487B7100000000000000000000000000000000000000000000000000000000 PUSH1 0x0 MSTORE PUSH1 0x22 PUSH1 0x4 MSTORE PUSH1 0x24 PUSH1 0x0 REVERT JUMPDEST PUSH1 0x0 PUSH1 0x2 DUP3 DIV SWAP1 POP PUSH1 0x1 DUP3 AND DUP1 PUSH2 0x2274 JUMPI PUSH1 0x7F DUP3 AND SWAP2 POP JUMPDEST PUSH1 0x20 DUP3 LT DUP2 SUB PUSH2 0x2287 JUMPI PUSH2 0x2286 PUSH2 0x222D JUMP JUMPDEST JUMPDEST POP SWAP2 SWAP1 POP JUMP JUMPDEST PUSH1 0x0 DUP2 SWAP1 POP SWAP3 SWAP2 POP POP JUMP JUMPDEST PUSH1 0x0 PUSH2 0x22A3 DUP3 PUSH2 0x1D42 JUMP JUMPDEST PUSH2 0x22AD DUP2 DUP6 PUSH2 0x228D JUMP JUMPDEST SWAP4 POP PUSH2 0x22BD DUP2 DUP6 PUSH1 0x20 DUP7 ADD PUSH2 0x1D5E JUMP JUMPDEST DUP1 DUP5 ADD SWAP2 POP POP SWAP3 SWAP2 POP POP JUMP JUMPDEST PUSH1 0x0 PUSH2 0x22D5 DUP3 DUP6 PUSH2 0x2298 JUMP JUMPDEST SWAP2 POP PUSH2 0x22E1 DUP3 DUP5 PUSH2 0x2298 JUMP JUMPDEST SWAP2 POP DUP2 SWAP1 POP SWAP4 SWAP3 POP POP POP JUMP JUMPDEST PUSH32 0x4E487B7100000000000000000000000000000000000000000000000000000000 PUSH1 0x0 MSTORE PUSH1 0x12 PUSH1 0x4 MSTORE PUSH1 0x24 PUSH1 0x0 REVERT JUMPDEST PUSH1 0x0 PUSH2 0x2327 DUP3 PUSH2 0x1DF4 JUMP JUMPDEST SWAP2 POP PUSH2 0x2332 DUP4 PUSH2 0x1DF4 JUMP JUMPDEST SWAP3 POP DUP3 PUSH2 0x2342 JUMPI PUSH2 0x2341 PUSH2 0x22ED JUMP JUMPDEST JUMPDEST DUP3 DUP3 MOD SWAP1 POP SWAP3 SWAP2 POP POP JUMP JUMPDEST PUSH32 0x4E487B7100000000000000000000000000000000000000000000000000000000 PUSH1 0x0 MSTORE PUSH1 0x11 PUSH1 0x4 MSTORE PUSH1 0x24 PUSH1 0x0 REVERT JUMPDEST PUSH1 0x0 PUSH2 0x2387 DUP3 PUSH2 0x1DF4 JUMP JUMPDEST SWAP2 POP PUSH2 0x2392 DUP4 PUSH2 0x1DF4 JUMP JUMPDEST SWAP3 POP DUP3 DUP3 SUB SWAP1 POP DUP2 DUP2 GT ISZERO PUSH2 0x23AA JUMPI PUSH2 0x23A9 PUSH2 0x234D JUMP JUMPDEST JUMPDEST SWAP3 SWAP2 POP POP JUMP JUMPDEST PUSH1 0x0 PUSH2 0x23BB DUP3 PUSH2 0x1DF4 JUMP JUMPDEST SWAP2 POP PUSH2 0x23C6 DUP4 PUSH2 0x1DF4 JUMP JUMPDEST SWAP3 POP DUP3 DUP3 ADD SWAP1 POP DUP1 DUP3 GT ISZERO PUSH2 0x23DE JUMPI PUSH2 0x23DD PUSH2 0x234D JUMP JUMPDEST JUMPDEST SWAP3 SWAP2 POP POP JUMP JUMPDEST PUSH1 0x0 PUSH2 0x23EF DUP3 PUSH2 0x1DF4 JUMP JUMPDEST SWAP2 POP PUSH2 0x23FA DUP4 PUSH2 0x1DF4 JUMP JUMPDEST SWAP3 POP DUP3 DUP3 MUL PUSH2 0x2408 DUP2 PUSH2 0x1DF4 JUMP JUMPDEST SWAP2 POP DUP3 DUP3 DIV DUP5 EQ DUP4 ISZERO OR PUSH2 0x241F JUMPI PUSH2 0x241E PUSH2 0x234D JUMP JUMPDEST JUMPDEST POP SWAP3 SWAP2 POP POP JUMP JUMPDEST PUSH1 0x0 DUP2 MLOAD SWAP1 POP SWAP2 SWAP1 POP JUMP JUMPDEST PUSH1 0x0 DUP3 DUP3 MSTORE PUSH1 0x20 DUP3 ADD SWAP1 POP SWAP3 SWAP2 POP POP JUMP JUMPDEST PUSH1 0x0 PUSH2 0x244D DUP3 PUSH2 0x2426 JUMP JUMPDEST PUSH2 0x2457 DUP2 DUP6 PUSH2 0x2431 JUMP JUMPDEST SWAP4 POP PUSH2 0x2467 DUP2 DUP6 PUSH1 0x20 DUP7 ADD PUSH2 0x1D5E JUMP JUMPDEST PUSH2 0x2470 DUP2 PUSH2 0x1D88 JUMP JUMPDEST DUP5 ADD SWAP2 POP POP SWAP3 SWAP2 POP POP JUMP JUMPDEST PUSH1 0x0 PUSH1 0x80 DUP3 ADD SWAP1 POP PUSH2 0x2490 PUSH1 0x0 DUP4 ADD DUP8 PUSH2 0x1E89 JUMP JUMPDEST PUSH2 0x249D PUSH1 0x20 DUP4 ADD DUP7 PUSH2 0x1E89 JUMP JUMPDEST PUSH2 0x24AA PUSH1 0x40 DUP4 ADD DUP6 PUSH2 0x1F1F JUMP JUMPDEST DUP2 DUP2 SUB PUSH1 0x60 DUP4 ADD MSTORE PUSH2 0x24BC DUP2 DUP5 PUSH2 0x2442 JUMP JUMPDEST SWAP1 POP SWAP6 SWAP5 POP POP POP POP POP JUMP JUMPDEST PUSH1 0x0 DUP2 MLOAD SWAP1 POP PUSH2 0x24D6 DUP2 PUSH2 0x1CB3 JUMP JUMPDEST SWAP3 SWAP2 POP POP JUMP JUMPDEST PUSH1 0x0 PUSH1 0x20 DUP3 DUP5 SUB SLT ISZERO PUSH2 0x24F2 JUMPI PUSH2 0x24F1 PUSH2 0x1C7D JUMP JUMPDEST JUMPDEST PUSH1 0x0 PUSH2 0x2500 DUP5 DUP3 DUP6 ADD PUSH2 0x24C7 JUMP JUMPDEST SWAP2 POP POP SWAP3 SWAP2 POP POP JUMP JUMPDEST PUSH1 0x0 PUSH2 0x2514 DUP3 PUSH2 0x1DF4 JUMP JUMPDEST SWAP2 POP PUSH2 0x251F DUP4 PUSH2 0x1DF4 JUMP JUMPDEST SWAP3 POP DUP3 PUSH2 0x252F JUMPI PUSH2 0x252E PUSH2 0x22ED JUMP JUMPDEST JUMPDEST DUP3 DUP3 DIV SWAP1 POP SWAP3 SWAP2 POP POP JUMP JUMPDEST PUSH1 0x0 PUSH2 0x2545 DUP3 PUSH2 0x1DF4 JUMP JUMPDEST SWAP2 POP PUSH32 0xFFFFFFFFFFFFFFFFFFFFFFFFFFFFFFFFFFFFFFFFFFFFFFFFFFFFFFFFFFFFFFFF DUP3 SUB PUSH2 0x2577 JUMPI PUSH2 0x2576 PUSH2 0x234D JUMP JUMPDEST JUMPDEST PUSH1 0x1 DUP3 ADD SWAP1 POP SWAP2 SWAP1 POP JUMP JUMPDEST PUSH32 0x4E487B7100000000000000000000000000000000000000000000000000000000 PUSH1 0x0 MSTORE PUSH1 0x32 PUSH1 0x4 MSTORE PUSH1 0x24 PUSH1 0x0 REVERT INVALID PUSH9 0x747470733A2F2F6761 PUSH21 0x657761792E70696E6174612E636C6F75642F697066 PUSH20 0x2F516D65794B6E7658584D784175574735707433 CALLDATALOAD GASLIMIT PUSH27 0x3851684A6852363352445653775566736A4B61795234325A2FA264 PUSH10 0x70667358221220A5A1E7 0xFC 0x49 CALLCODE SHR SWAP11 PUSH23 0xBC811C7CF78432D82649D2A53102733165E5FFFCB3B98F PUSH5 0x736F6C6343 STOP ADDMOD GT STOP CALLER "
				},
				"gasEstimates": {
					"creation": {
						"codeDepositCost": "1956800",
						"executionCost": "infinite",
						"totalCost": "infinite"
					},
					"external": {
						"BlockScore(address)": "infinite",
						"DcofferPower(uint256)": "infinite",
						"MineStatus(uint256)": "infinite",
						"_DCFperBlock()": "2518",
						"_salt()": "2540",
						"_startBlockNumber()": "2496",
						"_totalPower()": "2562",
						"approve(address,uint256)": "infinite",
						"balanceOf(address)": "2969",
						"getApproved(uint256)": "7458",
						"isApprovedForAll(address,address)": "infinite",
						"maxSupply()": "4664",
						"name()": "infinite",
						"ownerOf(uint256)": "infinite",
						"safeTransferFrom(address,address,uint256)": "infinite",
						"safeTransferFrom(address,address,uint256,bytes)": "infinite",
						"setApprovalForAll(address,bool)": "infinite",
						"supportsInterface(bytes4)": "797",
						"symbol()": "infinite",
						"tokenURI(uint256)": "infinite",
						"totalSupply()": "4688",
						"transferFrom(address,address,uint256)": "infinite",
						"update(address)": "infinite"
					},
					"internal": {
						"_afterTokenTransfers(address,address,uint256,uint256)": "17",
						"_approve(address,uint256,address)": "26292",
						"_baseURI()": "infinite",
						"_beforeTokenTransfers(address,address,uint256,uint256)": "17",
						"_burn(uint256)": "infinite",
						"_burn(uint256,bool)": "infinite",
						"_checkContractOnERC721Received(address,address,uint256,bytes memory)": "infinite",
						"_exists(uint256)": "4499",
						"_getAux(address)": "infinite",
						"_numberBurned(address)": "infinite",
						"_numberMinted(address)": "infinite",
						"_ownershipOf(uint256)": "infinite",
						"_safeMint(address,uint256)": "infinite",
						"_safeMint(address,uint256,bytes memory)": "infinite",
						"_setAux(address,uint64)": "infinite",
						"_startTokenId()": "15",
						"_totalMinted()": "infinite",
						"_transfer(address,address,uint256)": "infinite",
						"updateBlockScore(address)": "infinite"
					}
				},
				"methodIdentifiers": {
					"BlockScore(address)": "325b272a",
					"DcofferPower(uint256)": "f390c328",
					"MineStatus(uint256)": "ba6687f4",
					"_DCFperBlock()": "38020dcc",
					"_salt()": "9f773399",
					"_startBlockNumber()": "94fc67d1",
					"_totalPower()": "5e7ec827",
					"approve(address,uint256)": "095ea7b3",
					"balanceOf(address)": "70a08231",
					"getApproved(uint256)": "081812fc",
					"isApprovedForAll(address,address)": "e985e9c5",
					"maxSupply()": "d5abeb01",
					"name()": "06fdde03",
					"ownerOf(uint256)": "6352211e",
					"safeTransferFrom(address,address,uint256)": "42842e0e",
					"safeTransferFrom(address,address,uint256,bytes)": "b88d4fde",
					"setApprovalForAll(address,bool)": "a22cb465",
					"supportsInterface(bytes4)": "01ffc9a7",
					"symbol()": "95d89b41",
					"tokenURI(uint256)": "c87b56dd",
					"totalSupply()": "18160ddd",
					"transferFrom(address,address,uint256)": "23b872dd",
					"update(address)": "1c1b8772"
				}
			},
			"storageLayout": {
				"storage": [
					{
						"astId": 1152,
						"contract": "Dcoffer/ERC721A/test.sol:ERC721A",
						"label": "_salt",
						"offset": 0,
						"slot": "0",
						"type": "t_uint256"
					},
					{
						"astId": 1154,
						"contract": "Dcoffer/ERC721A/test.sol:ERC721A",
						"label": "_DCFperBlock",
						"offset": 0,
						"slot": "1",
						"type": "t_uint256"
					},
					{
						"astId": 1156,
						"contract": "Dcoffer/ERC721A/test.sol:ERC721A",
						"label": "_startBlockNumber",
						"offset": 0,
						"slot": "2",
						"type": "t_uint256"
					},
					{
						"astId": 1158,
						"contract": "Dcoffer/ERC721A/test.sol:ERC721A",
						"label": "_totalPower",
						"offset": 0,
						"slot": "3",
						"type": "t_uint256"
					},
					{
						"astId": 1160,
						"contract": "Dcoffer/ERC721A/test.sol:ERC721A",
						"label": "_currentIndex",
						"offset": 0,
						"slot": "4",
						"type": "t_uint256"
					},
					{
						"astId": 1162,
						"contract": "Dcoffer/ERC721A/test.sol:ERC721A",
						"label": "_maxSupply",
						"offset": 0,
						"slot": "5",
						"type": "t_uint256"
					},
					{
						"astId": 1164,
						"contract": "Dcoffer/ERC721A/test.sol:ERC721A",
						"label": "_burnCounter",
						"offset": 0,
						"slot": "6",
						"type": "t_uint256"
					},
					{
						"astId": 1166,
						"contract": "Dcoffer/ERC721A/test.sol:ERC721A",
						"label": "_name",
						"offset": 0,
						"slot": "7",
						"type": "t_string_storage"
					},
					{
						"astId": 1168,
						"contract": "Dcoffer/ERC721A/test.sol:ERC721A",
						"label": "_symbol",
						"offset": 0,
						"slot": "8",
						"type": "t_string_storage"
					},
					{
						"astId": 1173,
						"contract": "Dcoffer/ERC721A/test.sol:ERC721A",
						"label": "_ownerships",
						"offset": 0,
						"slot": "9",
						"type": "t_mapping(t_uint256,t_struct(TokenOwnership)1106_storage)"
					},
					{
						"astId": 1178,
						"contract": "Dcoffer/ERC721A/test.sol:ERC721A",
						"label": "_addressData",
						"offset": 0,
						"slot": "10",
						"type": "t_mapping(t_address,t_struct(AddressData)1115_storage)"
					},
					{
						"astId": 1182,
						"contract": "Dcoffer/ERC721A/test.sol:ERC721A",
						"label": "_tokenApprovals",
						"offset": 0,
						"slot": "11",
						"type": "t_mapping(t_uint256,t_address)"
					},
					{
						"astId": 1188,
						"contract": "Dcoffer/ERC721A/test.sol:ERC721A",
						"label": "_operatorApprovals",
						"offset": 0,
						"slot": "12",
						"type": "t_mapping(t_address,t_mapping(t_address,t_bool))"
					},
					{
						"astId": 1195,
						"contract": "Dcoffer/ERC721A/test.sol:ERC721A",
						"label": "_mineInfo",
						"offset": 0,
						"slot": "13",
						"type": "t_mapping(t_address,t_mapping(t_uint256,t_uint256))"
					}
				],
				"types": {
					"t_address": {
						"encoding": "inplace",
						"label": "address",
						"numberOfBytes": "20"
					},
					"t_bool": {
						"encoding": "inplace",
						"label": "bool",
						"numberOfBytes": "1"
					},
					"t_mapping(t_address,t_bool)": {
						"encoding": "mapping",
						"key": "t_address",
						"label": "mapping(address => bool)",
						"numberOfBytes": "32",
						"value": "t_bool"
					},
					"t_mapping(t_address,t_mapping(t_address,t_bool))": {
						"encoding": "mapping",
						"key": "t_address",
						"label": "mapping(address => mapping(address => bool))",
						"numberOfBytes": "32",
						"value": "t_mapping(t_address,t_bool)"
					},
					"t_mapping(t_address,t_mapping(t_uint256,t_uint256))": {
						"encoding": "mapping",
						"key": "t_address",
						"label": "mapping(address => mapping(uint256 => uint256))",
						"numberOfBytes": "32",
						"value": "t_mapping(t_uint256,t_uint256)"
					},
					"t_mapping(t_address,t_struct(AddressData)1115_storage)": {
						"encoding": "mapping",
						"key": "t_address",
						"label": "mapping(address => struct IERC721A.AddressData)",
						"numberOfBytes": "32",
						"value": "t_struct(AddressData)1115_storage"
					},
					"t_mapping(t_uint256,t_address)": {
						"encoding": "mapping",
						"key": "t_uint256",
						"label": "mapping(uint256 => address)",
						"numberOfBytes": "32",
						"value": "t_address"
					},
					"t_mapping(t_uint256,t_struct(TokenOwnership)1106_storage)": {
						"encoding": "mapping",
						"key": "t_uint256",
						"label": "mapping(uint256 => struct IERC721A.TokenOwnership)",
						"numberOfBytes": "32",
						"value": "t_struct(TokenOwnership)1106_storage"
					},
					"t_mapping(t_uint256,t_uint256)": {
						"encoding": "mapping",
						"key": "t_uint256",
						"label": "mapping(uint256 => uint256)",
						"numberOfBytes": "32",
						"value": "t_uint256"
					},
					"t_string_storage": {
						"encoding": "bytes",
						"label": "string",
						"numberOfBytes": "32"
					},
					"t_struct(AddressData)1115_storage": {
						"encoding": "inplace",
						"label": "struct IERC721A.AddressData",
						"members": [
							{
								"astId": 1108,
								"contract": "Dcoffer/ERC721A/test.sol:ERC721A",
								"label": "balance",
								"offset": 0,
								"slot": "0",
								"type": "t_uint64"
							},
							{
								"astId": 1110,
								"contract": "Dcoffer/ERC721A/test.sol:ERC721A",
								"label": "numberMinted",
								"offset": 8,
								"slot": "0",
								"type": "t_uint64"
							},
							{
								"astId": 1112,
								"contract": "Dcoffer/ERC721A/test.sol:ERC721A",
								"label": "numberBurned",
								"offset": 16,
								"slot": "0",
								"type": "t_uint64"
							},
							{
								"astId": 1114,
								"contract": "Dcoffer/ERC721A/test.sol:ERC721A",
								"label": "aux",
								"offset": 24,
								"slot": "0",
								"type": "t_uint64"
							}
						],
						"numberOfBytes": "32"
					},
					"t_struct(TokenOwnership)1106_storage": {
						"encoding": "inplace",
						"label": "struct IERC721A.TokenOwnership",
						"members": [
							{
								"astId": 1101,
								"contract": "Dcoffer/ERC721A/test.sol:ERC721A",
								"label": "addr",
								"offset": 0,
								"slot": "0",
								"type": "t_address"
							},
							{
								"astId": 1103,
								"contract": "Dcoffer/ERC721A/test.sol:ERC721A",
								"label": "startTimestamp",
								"offset": 20,
								"slot": "0",
								"type": "t_uint64"
							},
							{
								"astId": 1105,
								"contract": "Dcoffer/ERC721A/test.sol:ERC721A",
								"label": "burned",
								"offset": 28,
								"slot": "0",
								"type": "t_bool"
							}
						],
						"numberOfBytes": "32"
					},
					"t_uint256": {
						"encoding": "inplace",
						"label": "uint256",
						"numberOfBytes": "32"
					},
					"t_uint64": {
						"encoding": "inplace",
						"label": "uint64",
						"numberOfBytes": "8"
					}
				}
			},
			"userdoc": {
				"errors": {
					"ApprovalCallerNotOwnerNorApproved()": [
						{
							"notice": "The caller must own the token or be an approved operator."
						}
					],
					"ApprovalQueryForNonexistentToken()": [
						{
							"notice": "The token does not exist."
						}
					],
					"ApprovalToCurrentOwner()": [
						{
							"notice": "The caller cannot approve to the current owner."
						}
					],
					"ApproveToCaller()": [
						{
							"notice": "The caller cannot approve to their own address."
						}
					],
					"BalanceQueryForZeroAddress()": [
						{
							"notice": "Cannot query the balance for the zero address."
						}
					],
					"MintToZeroAddress()": [
						{
							"notice": "Cannot mint to the zero address."
						}
					],
					"MintZeroQuantity()": [
						{
							"notice": "The quantity of tokens minted must be more than zero."
						}
					],
					"OwnerQueryForNonexistentToken()": [
						{
							"notice": "The token does not exist."
						}
					],
					"TransferCallerNotOwnerNorApproved()": [
						{
							"notice": "The caller must own the token or be an approved operator."
						}
					],
					"TransferFromIncorrectOwner()": [
						{
							"notice": "The token must be owned by `from`."
						}
					],
					"TransferToNonERC721ReceiverImplementer()": [
						{
							"notice": "Cannot safely transfer to a contract that does not implement the ERC721Receiver interface."
						}
					],
					"TransferToZeroAddress()": [
						{
							"notice": "Cannot transfer to the zero address."
						}
					],
					"URIQueryForNonexistentToken()": [
						{
							"notice": "The token does not exist."
						}
					]
				},
				"kind": "user",
				"methods": {},
				"version": 1
			}
		}
	}
}