{
	"Dcoffer/ERC721A/test.sol": {
		"ERC721A": {
			"abi": [
				{
					"inputs": [
						{
							"internalType": "string",
							"name": "name_",
							"type": "string"
						},
						{
							"internalType": "string",
							"name": "symbol_",
							"type": "string"
						},
						{
							"internalType": "uint256",
							"name": "maxSupply_",
							"type": "uint256"
						},
						{
							"internalType": "uint256",
							"name": "salt_",
							"type": "uint256"
						}
					],
					"stateMutability": "nonpayable",
					"type": "constructor"
				},
				{
					"inputs": [],
					"name": "ApprovalCallerNotOwnerNorApproved",
					"type": "error"
				},
				{
					"inputs": [],
					"name": "ApprovalQueryForNonexistentToken",
					"type": "error"
				},
				{
					"inputs": [],
					"name": "ApprovalToCurrentOwner",
					"type": "error"
				},
				{
					"inputs": [],
					"name": "ApproveToCaller",
					"type": "error"
				},
				{
					"inputs": [],
					"name": "BalanceQueryForZeroAddress",
					"type": "error"
				},
				{
					"inputs": [],
					"name": "MintToZeroAddress",
					"type": "error"
				},
				{
					"inputs": [],
					"name": "MintZeroQuantity",
					"type": "error"
				},
				{
					"inputs": [],
					"name": "OwnerQueryForNonexistentToken",
					"type": "error"
				},
				{
					"inputs": [],
					"name": "TransferCallerNotOwnerNorApproved",
					"type": "error"
				},
				{
					"inputs": [],
					"name": "TransferFromIncorrectOwner",
					"type": "error"
				},
				{
					"inputs": [],
					"name": "TransferToNonERC721ReceiverImplementer",
					"type": "error"
				},
				{
					"inputs": [],
					"name": "TransferToZeroAddress",
					"type": "error"
				},
				{
					"inputs": [],
					"name": "URIQueryForNonexistentToken",
					"type": "error"
				},
				{
					"anonymous": false,
					"inputs": [
						{
							"indexed": true,
							"internalType": "address",
							"name": "owner",
							"type": "address"
						},
						{
							"indexed": true,
							"internalType": "address",
							"name": "approved",
							"type": "address"
						},
						{
							"indexed": true,
							"internalType": "uint256",
							"name": "tokenId",
							"type": "uint256"
						}
					],
					"name": "Approval",
					"type": "event"
				},
				{
					"anonymous": false,
					"inputs": [
						{
							"indexed": true,
							"internalType": "address",
							"name": "owner",
							"type": "address"
						},
						{
							"indexed": true,
							"internalType": "address",
							"name": "operator",
							"type": "address"
						},
						{
							"indexed": false,
							"internalType": "bool",
							"name": "approved",
							"type": "bool"
						}
					],
					"name": "ApprovalForAll",
					"type": "event"
				},
				{
					"anonymous": false,
					"inputs": [
						{
							"indexed": true,
							"internalType": "address",
							"name": "from",
							"type": "address"
						},
						{
							"indexed": true,
							"internalType": "address",
							"name": "to",
							"type": "address"
						},
						{
							"indexed": true,
							"internalType": "uint256",
							"name": "tokenId",
							"type": "uint256"
						}
					],
					"name": "Transfer",
					"type": "event"
				},
				{
					"inputs": [
						{
							"internalType": "uint256",
							"name": "tokenId",
							"type": "uint256"
						}
					],
					"name": "DcofferPower",
					"outputs": [
						{
							"internalType": "uint256",
							"name": "",
							"type": "uint256"
						}
					],
					"stateMutability": "view",
					"type": "function"
				},
				{
					"inputs": [
						{
							"internalType": "address",
							"name": "user",
							"type": "address"
						}
					],
					"name": "MineStatus",
					"outputs": [
						{
							"internalType": "uint256",
							"name": "",
							"type": "uint256"
						}
					],
					"stateMutability": "view",
					"type": "function"
				},
				{
					"inputs": [],
					"name": "_DCFperBlock",
					"outputs": [
						{
							"internalType": "uint256",
							"name": "",
							"type": "uint256"
						}
					],
					"stateMutability": "view",
					"type": "function"
				},
				{
					"inputs": [],
					"name": "_salt",
					"outputs": [
						{
							"internalType": "uint256",
							"name": "",
							"type": "uint256"
						}
					],
					"stateMutability": "view",
					"type": "function"
				},
				{
					"inputs": [],
					"name": "_startBlockNumber",
					"outputs": [
						{
							"internalType": "uint256",
							"name": "",
							"type": "uint256"
						}
					],
					"stateMutability": "view",
					"type": "function"
				},
				{
					"inputs": [],
					"name": "_totalPower",
					"outputs": [
						{
							"internalType": "uint256",
							"name": "",
							"type": "uint256"
						}
					],
					"stateMutability": "view",
					"type": "function"
				},
				{
					"inputs": [
						{
							"internalType": "address",
							"name": "to",
							"type": "address"
						},
						{
							"internalType": "uint256",
							"name": "tokenId",
							"type": "uint256"
						}
					],
					"name": "approve",
					"outputs": [],
					"stateMutability": "nonpayable",
					"type": "function"
				},
				{
					"inputs": [
						{
							"internalType": "address",
							"name": "owner",
							"type": "address"
						}
					],
					"name": "balanceOf",
					"outputs": [
						{
							"internalType": "uint256",
							"name": "",
							"type": "uint256"
						}
					],
					"stateMutability": "view",
					"type": "function"
				},
				{
					"inputs": [
						{
							"internalType": "uint256",
							"name": "_BlockNumber",
							"type": "uint256"
						}
					],
					"name": "blockStatus",
					"outputs": [
						{
							"internalType": "uint256",
							"name": "",
							"type": "uint256"
						}
					],
					"stateMutability": "view",
					"type": "function"
				},
				{
					"inputs": [
						{
							"internalType": "uint256",
							"name": "tokenId",
							"type": "uint256"
						}
					],
					"name": "getApproved",
					"outputs": [
						{
							"internalType": "address",
							"name": "",
							"type": "address"
						}
					],
					"stateMutability": "view",
					"type": "function"
				},
				{
					"inputs": [
						{
							"internalType": "address",
							"name": "owner",
							"type": "address"
						},
						{
							"internalType": "address",
							"name": "operator",
							"type": "address"
						}
					],
					"name": "isApprovedForAll",
					"outputs": [
						{
							"internalType": "bool",
							"name": "",
							"type": "bool"
						}
					],
					"stateMutability": "view",
					"type": "function"
				},
				{
					"inputs": [],
					"name": "maxSupply",
					"outputs": [
						{
							"internalType": "uint256",
							"name": "",
							"type": "uint256"
						}
					],
					"stateMutability": "view",
					"type": "function"
				},
				{
					"inputs": [],
					"name": "name",
					"outputs": [
						{
							"internalType": "string",
							"name": "",
							"type": "string"
						}
					],
					"stateMutability": "view",
					"type": "function"
				},
				{
					"inputs": [
						{
							"internalType": "uint256",
							"name": "tokenId",
							"type": "uint256"
						}
					],
					"name": "ownerOf",
					"outputs": [
						{
							"internalType": "address",
							"name": "",
							"type": "address"
						}
					],
					"stateMutability": "view",
					"type": "function"
				},
				{
					"inputs": [
						{
							"internalType": "address",
							"name": "from",
							"type": "address"
						},
						{
							"internalType": "address",
							"name": "to",
							"type": "address"
						},
						{
							"internalType": "uint256",
							"name": "tokenId",
							"type": "uint256"
						}
					],
					"name": "safeTransferFrom",
					"outputs": [],
					"stateMutability": "nonpayable",
					"type": "function"
				},
				{
					"inputs": [
						{
							"internalType": "address",
							"name": "from",
							"type": "address"
						},
						{
							"internalType": "address",
							"name": "to",
							"type": "address"
						},
						{
							"internalType": "uint256",
							"name": "tokenId",
							"type": "uint256"
						},
						{
							"internalType": "bytes",
							"name": "_data",
							"type": "bytes"
						}
					],
					"name": "safeTransferFrom",
					"outputs": [],
					"stateMutability": "nonpayable",
					"type": "function"
				},
				{
					"inputs": [
						{
							"internalType": "address",
							"name": "operator",
							"type": "address"
						},
						{
							"internalType": "bool",
							"name": "approved",
							"type": "bool"
						}
					],
					"name": "setApprovalForAll",
					"outputs": [],
					"stateMutability": "nonpayable",
					"type": "function"
				},
				{
					"inputs": [
						{
							"internalType": "bytes4",
							"name": "interfaceId",
							"type": "bytes4"
						}
					],
					"name": "supportsInterface",
					"outputs": [
						{
							"internalType": "bool",
							"name": "",
							"type": "bool"
						}
					],
					"stateMutability": "view",
					"type": "function"
				},
				{
					"inputs": [],
					"name": "symbol",
					"outputs": [
						{
							"internalType": "string",
							"name": "",
							"type": "string"
						}
					],
					"stateMutability": "view",
					"type": "function"
				},
				{
					"inputs": [
						{
							"internalType": "uint256",
							"name": "tokenId",
							"type": "uint256"
						}
					],
					"name": "tokenURI",
					"outputs": [
						{
							"internalType": "string",
							"name": "",
							"type": "string"
						}
					],
					"stateMutability": "view",
					"type": "function"
				},
				{
					"inputs": [],
					"name": "totalSupply",
					"outputs": [
						{
							"internalType": "uint256",
							"name": "",
							"type": "uint256"
						}
					],
					"stateMutability": "view",
					"type": "function"
				},
				{
					"inputs": [
						{
							"internalType": "address",
							"name": "from",
							"type": "address"
						},
						{
							"internalType": "address",
							"name": "to",
							"type": "address"
						},
						{
							"internalType": "uint256",
							"name": "tokenId",
							"type": "uint256"
						}
					],
					"name": "transferFrom",
					"outputs": [],
					"stateMutability": "nonpayable",
					"type": "function"
				}
			],
			"devdoc": {
				"details": "Implementation of https://eips.ethereum.org/EIPS/eip-721[ERC721] Non-Fungible Token Standard, including the Metadata extension. Built to optimize for lower gas during batch mints. Assumes serials are sequentially minted starting at _startTokenId() (defaults to 0, e.g. 0, 1, 2, 3..). Assumes that an owner cannot have more than 2**64 - 1 (max value of uint64) of supply. Assumes that the maximum token id cannot exceed 2**256 - 1 (max value of uint256).",
				"kind": "dev",
				"methods": {
					"approve(address,uint256)": {
						"details": "See {IERC721-approve}."
					},
					"balanceOf(address)": {
						"details": "See {IERC721-balanceOf}."
					},
					"getApproved(uint256)": {
						"details": "See {IERC721-getApproved}."
					},
					"isApprovedForAll(address,address)": {
						"details": "See {IERC721-isApprovedForAll}."
					},
					"name()": {
						"details": "See {IERC721Metadata-name}."
					},
					"ownerOf(uint256)": {
						"details": "See {IERC721-ownerOf}."
					},
					"safeTransferFrom(address,address,uint256)": {
						"details": "See {IERC721-safeTransferFrom}."
					},
					"safeTransferFrom(address,address,uint256,bytes)": {
						"details": "See {IERC721-safeTransferFrom}."
					},
					"setApprovalForAll(address,bool)": {
						"details": "See {IERC721-setApprovalForAll}."
					},
					"supportsInterface(bytes4)": {
						"details": "See {IERC165-supportsInterface}."
					},
					"symbol()": {
						"details": "See {IERC721Metadata-symbol}."
					},
					"tokenURI(uint256)": {
						"details": "See {IERC721Metadata-tokenURI}."
					},
					"totalSupply()": {
						"details": "Burned tokens are calculated here, use _totalMinted() if you want to count just minted tokens."
					},
					"transferFrom(address,address,uint256)": {
						"details": "See {IERC721-transferFrom}."
					}
				},
				"version": 1
			},
			"evm": {
				"assembly": "    /* \"Dcoffer/ERC721A/test.sol\":996:22650  contract ERC721A is Context, ERC165, IERC721A {... */\n  mstore(0x40, 0x80)\n    /* \"Dcoffer/ERC721A/test.sol\":2394:2759  constructor(string memory name_, string memory symbol_, uint256 maxSupply_, uint256 salt_) {... */\n  callvalue\n  dup1\n  iszero\n  tag_1\n  jumpi\n  0x00\n  dup1\n  revert\ntag_1:\n  pop\n  mload(0x40)\n  sub(codesize, bytecodeSize)\n  dup1\n  bytecodeSize\n  dup4\n  codecopy\n  dup2\n  dup2\n  add\n  0x40\n  mstore\n  dup2\n  add\n  swap1\n  tag_2\n  swap2\n  swap1\n  tag_3\n  jump\t// in\ntag_2:\n    /* \"Dcoffer/ERC721A/test.sol\":2504:2509  name_ */\n  dup4\n    /* \"Dcoffer/ERC721A/test.sol\":2496:2501  _name */\n  0x07\n    /* \"Dcoffer/ERC721A/test.sol\":2496:2509  _name = name_ */\n  swap1\n  dup2\n  tag_6\n  swap2\n  swap1\n  tag_7\n  jump\t// in\ntag_6:\n  pop\n    /* \"Dcoffer/ERC721A/test.sol\":2530:2537  symbol_ */\n  dup3\n    /* \"Dcoffer/ERC721A/test.sol\":2520:2527  _symbol */\n  0x08\n    /* \"Dcoffer/ERC721A/test.sol\":2520:2537  _symbol = symbol_ */\n  swap1\n  dup2\n  tag_8\n  swap2\n  swap1\n  tag_7\n  jump\t// in\ntag_8:\n  pop\n    /* \"Dcoffer/ERC721A/test.sol\":2561:2571  maxSupply_ */\n  dup2\n    /* \"Dcoffer/ERC721A/test.sol\":2548:2558  _maxSupply */\n  0x05\n    /* \"Dcoffer/ERC721A/test.sol\":2548:2571  _maxSupply = maxSupply_ */\n  dup2\n  swap1\n  sstore\n  pop\n    /* \"Dcoffer/ERC721A/test.sol\":2598:2613  _startTokenId() */\n  tag_9\n    /* \"Dcoffer/ERC721A/test.sol\":2598:2611  _startTokenId */\n  shl(0x20, tag_10)\n    /* \"Dcoffer/ERC721A/test.sol\":2598:2613  _startTokenId() */\n  0x20\n  shr\n  jump\t// in\ntag_9:\n    /* \"Dcoffer/ERC721A/test.sol\":2582:2595  _currentIndex */\n  0x04\n    /* \"Dcoffer/ERC721A/test.sol\":2582:2613  _currentIndex = _startTokenId() */\n  dup2\n  swap1\n  sstore\n  pop\n    /* \"Dcoffer/ERC721A/test.sol\":2633:2638  salt_ */\n  dup1\n    /* \"Dcoffer/ERC721A/test.sol\":2625:2630  _salt */\n  0x00\n    /* \"Dcoffer/ERC721A/test.sol\":2625:2638  _salt = salt_ */\n  dup2\n  swap1\n  sstore\n  pop\n    /* \"Dcoffer/ERC721A/test.sol\":2667:2671  2e18 */\n  0x1bc16d674ec80000\n    /* \"Dcoffer/ERC721A/test.sol\":2652:2664  _DCFperBlock */\n  0x01\n    /* \"Dcoffer/ERC721A/test.sol\":2652:2671  _DCFperBlock = 2e18 */\n  dup2\n  swap1\n  sstore\n  pop\n    /* \"Dcoffer/ERC721A/test.sol\":2699:2704  46000 */\n  0xb3b0\n    /* \"Dcoffer/ERC721A/test.sol\":2685:2696  _totalPower */\n  0x03\n    /* \"Dcoffer/ERC721A/test.sol\":2685:2704  _totalPower = 46000 */\n  dup2\n  swap1\n  sstore\n  pop\n    /* \"Dcoffer/ERC721A/test.sol\":2735:2747  block.number */\n  number\n    /* \"Dcoffer/ERC721A/test.sol\":2715:2732  _startBlockNumber */\n  0x02\n    /* \"Dcoffer/ERC721A/test.sol\":2715:2747  _startBlockNumber = block.number */\n  dup2\n  swap1\n  sstore\n  pop\n    /* \"Dcoffer/ERC721A/test.sol\":2394:2759  constructor(string memory name_, string memory symbol_, uint256 maxSupply_, uint256 salt_) {... */\n  pop\n  pop\n  pop\n  pop\n    /* \"Dcoffer/ERC721A/test.sol\":996:22650  contract ERC721A is Context, ERC165, IERC721A {... */\n  jump(tag_11)\n    /* \"Dcoffer/ERC721A/test.sol\":3894:3986  function _startTokenId() internal view virtual returns (uint256) {... */\ntag_10:\n    /* \"Dcoffer/ERC721A/test.sol\":3950:3957  uint256 */\n  0x00\n    /* \"Dcoffer/ERC721A/test.sol\":3894:3986  function _startTokenId() internal view virtual returns (uint256) {... */\n  swap1\n  jump\t// out\n    /* \"#utility.yul\":7:82   */\ntag_13:\n    /* \"#utility.yul\":40:46   */\n  0x00\n    /* \"#utility.yul\":73:75   */\n  0x40\n    /* \"#utility.yul\":67:76   */\n  mload\n    /* \"#utility.yul\":57:76   */\n  swap1\n  pop\n    /* \"#utility.yul\":7:82   */\n  swap1\n  jump\t// out\n    /* \"#utility.yul\":88:205   */\ntag_14:\n    /* \"#utility.yul\":197:198   */\n  0x00\n    /* \"#utility.yul\":194:195   */\n  dup1\n    /* \"#utility.yul\":187:199   */\n  revert\n    /* \"#utility.yul\":211:328   */\ntag_15:\n    /* \"#utility.yul\":320:321   */\n  0x00\n    /* \"#utility.yul\":317:318   */\n  dup1\n    /* \"#utility.yul\":310:322   */\n  revert\n    /* \"#utility.yul\":334:451   */\ntag_16:\n    /* \"#utility.yul\":443:444   */\n  0x00\n    /* \"#utility.yul\":440:441   */\n  dup1\n    /* \"#utility.yul\":433:445   */\n  revert\n    /* \"#utility.yul\":457:574   */\ntag_17:\n    /* \"#utility.yul\":566:567   */\n  0x00\n    /* \"#utility.yul\":563:564   */\n  dup1\n    /* \"#utility.yul\":556:568   */\n  revert\n    /* \"#utility.yul\":580:682   */\ntag_18:\n    /* \"#utility.yul\":621:627   */\n  0x00\n    /* \"#utility.yul\":672:674   */\n  0x1f\n    /* \"#utility.yul\":668:675   */\n  not\n    /* \"#utility.yul\":663:665   */\n  0x1f\n    /* \"#utility.yul\":656:661   */\n  dup4\n    /* \"#utility.yul\":652:666   */\n  add\n    /* \"#utility.yul\":648:676   */\n  and\n    /* \"#utility.yul\":638:676   */\n  swap1\n  pop\n    /* \"#utility.yul\":580:682   */\n  swap2\n  swap1\n  pop\n  jump\t// out\n    /* \"#utility.yul\":688:868   */\ntag_19:\n    /* \"#utility.yul\":736:813   */\n  0x4e487b7100000000000000000000000000000000000000000000000000000000\n    /* \"#utility.yul\":733:734   */\n  0x00\n    /* \"#utility.yul\":726:814   */\n  mstore\n    /* \"#utility.yul\":833:837   */\n  0x41\n    /* \"#utility.yul\":830:831   */\n  0x04\n    /* \"#utility.yul\":823:838   */\n  mstore\n    /* \"#utility.yul\":857:861   */\n  0x24\n    /* \"#utility.yul\":854:855   */\n  0x00\n    /* \"#utility.yul\":847:862   */\n  revert\n    /* \"#utility.yul\":874:1155   */\ntag_20:\n    /* \"#utility.yul\":957:984   */\n  tag_56\n    /* \"#utility.yul\":979:983   */\n  dup3\n    /* \"#utility.yul\":957:984   */\n  tag_18\n  jump\t// in\ntag_56:\n    /* \"#utility.yul\":949:955   */\n  dup2\n    /* \"#utility.yul\":945:985   */\n  add\n    /* \"#utility.yul\":1087:1093   */\n  dup2\n    /* \"#utility.yul\":1075:1085   */\n  dup2\n    /* \"#utility.yul\":1072:1094   */\n  lt\n    /* \"#utility.yul\":1051:1069   */\n  0xffffffffffffffff\n    /* \"#utility.yul\":1039:1049   */\n  dup3\n    /* \"#utility.yul\":1036:1070   */\n  gt\n    /* \"#utility.yul\":1033:1095   */\n  or\n    /* \"#utility.yul\":1030:1118   */\n  iszero\n  tag_57\n  jumpi\n    /* \"#utility.yul\":1098:1116   */\n  tag_58\n  tag_19\n  jump\t// in\ntag_58:\n    /* \"#utility.yul\":1030:1118   */\ntag_57:\n    /* \"#utility.yul\":1138:1148   */\n  dup1\n    /* \"#utility.yul\":1134:1136   */\n  0x40\n    /* \"#utility.yul\":1127:1149   */\n  mstore\n    /* \"#utility.yul\":917:1155   */\n  pop\n    /* \"#utility.yul\":874:1155   */\n  pop\n  pop\n  jump\t// out\n    /* \"#utility.yul\":1161:1290   */\ntag_21:\n    /* \"#utility.yul\":1195:1201   */\n  0x00\n    /* \"#utility.yul\":1222:1242   */\n  tag_60\n  tag_13\n  jump\t// in\ntag_60:\n    /* \"#utility.yul\":1212:1242   */\n  swap1\n  pop\n    /* \"#utility.yul\":1251:1284   */\n  tag_61\n    /* \"#utility.yul\":1279:1283   */\n  dup3\n    /* \"#utility.yul\":1271:1277   */\n  dup3\n    /* \"#utility.yul\":1251:1284   */\n  tag_20\n  jump\t// in\ntag_61:\n    /* \"#utility.yul\":1161:1290   */\n  swap2\n  swap1\n  pop\n  jump\t// out\n    /* \"#utility.yul\":1296:1604   */\ntag_22:\n    /* \"#utility.yul\":1358:1362   */\n  0x00\n    /* \"#utility.yul\":1448:1466   */\n  0xffffffffffffffff\n    /* \"#utility.yul\":1440:1446   */\n  dup3\n    /* \"#utility.yul\":1437:1467   */\n  gt\n    /* \"#utility.yul\":1434:1490   */\n  iszero\n  tag_63\n  jumpi\n    /* \"#utility.yul\":1470:1488   */\n  tag_64\n  tag_19\n  jump\t// in\ntag_64:\n    /* \"#utility.yul\":1434:1490   */\ntag_63:\n    /* \"#utility.yul\":1508:1537   */\n  tag_65\n    /* \"#utility.yul\":1530:1536   */\n  dup3\n    /* \"#utility.yul\":1508:1537   */\n  tag_18\n  jump\t// in\ntag_65:\n    /* \"#utility.yul\":1500:1537   */\n  swap1\n  pop\n    /* \"#utility.yul\":1592:1596   */\n  0x20\n    /* \"#utility.yul\":1586:1590   */\n  dup2\n    /* \"#utility.yul\":1582:1597   */\n  add\n    /* \"#utility.yul\":1574:1597   */\n  swap1\n  pop\n    /* \"#utility.yul\":1296:1604   */\n  swap2\n  swap1\n  pop\n  jump\t// out\n    /* \"#utility.yul\":1610:1856   */\ntag_23:\n    /* \"#utility.yul\":1691:1692   */\n  0x00\n    /* \"#utility.yul\":1701:1814   */\ntag_67:\n    /* \"#utility.yul\":1715:1721   */\n  dup4\n    /* \"#utility.yul\":1712:1713   */\n  dup2\n    /* \"#utility.yul\":1709:1722   */\n  lt\n    /* \"#utility.yul\":1701:1814   */\n  iszero\n  tag_69\n  jumpi\n    /* \"#utility.yul\":1800:1801   */\n  dup1\n    /* \"#utility.yul\":1795:1798   */\n  dup3\n    /* \"#utility.yul\":1791:1802   */\n  add\n    /* \"#utility.yul\":1785:1803   */\n  mload\n    /* \"#utility.yul\":1781:1782   */\n  dup2\n    /* \"#utility.yul\":1776:1779   */\n  dup5\n    /* \"#utility.yul\":1772:1783   */\n  add\n    /* \"#utility.yul\":1765:1804   */\n  mstore\n    /* \"#utility.yul\":1737:1739   */\n  0x20\n    /* \"#utility.yul\":1734:1735   */\n  dup2\n    /* \"#utility.yul\":1730:1740   */\n  add\n    /* \"#utility.yul\":1725:1740   */\n  swap1\n  pop\n    /* \"#utility.yul\":1701:1814   */\n  jump(tag_67)\ntag_69:\n    /* \"#utility.yul\":1848:1849   */\n  0x00\n    /* \"#utility.yul\":1839:1845   */\n  dup5\n    /* \"#utility.yul\":1834:1837   */\n  dup5\n    /* \"#utility.yul\":1830:1846   */\n  add\n    /* \"#utility.yul\":1823:1850   */\n  mstore\n    /* \"#utility.yul\":1672:1856   */\n  pop\n    /* \"#utility.yul\":1610:1856   */\n  pop\n  pop\n  pop\n  jump\t// out\n    /* \"#utility.yul\":1862:2296   */\ntag_24:\n    /* \"#utility.yul\":1951:1956   */\n  0x00\n    /* \"#utility.yul\":1976:2042   */\n  tag_71\n    /* \"#utility.yul\":1992:2041   */\n  tag_72\n    /* \"#utility.yul\":2034:2040   */\n  dup5\n    /* \"#utility.yul\":1992:2041   */\n  tag_22\n  jump\t// in\ntag_72:\n    /* \"#utility.yul\":1976:2042   */\n  tag_21\n  jump\t// in\ntag_71:\n    /* \"#utility.yul\":1967:2042   */\n  swap1\n  pop\n    /* \"#utility.yul\":2065:2071   */\n  dup3\n    /* \"#utility.yul\":2058:2063   */\n  dup2\n    /* \"#utility.yul\":2051:2072   */\n  mstore\n    /* \"#utility.yul\":2103:2107   */\n  0x20\n    /* \"#utility.yul\":2096:2101   */\n  dup2\n    /* \"#utility.yul\":2092:2108   */\n  add\n    /* \"#utility.yul\":2141:2144   */\n  dup5\n    /* \"#utility.yul\":2132:2138   */\n  dup5\n    /* \"#utility.yul\":2127:2130   */\n  dup5\n    /* \"#utility.yul\":2123:2139   */\n  add\n    /* \"#utility.yul\":2120:2145   */\n  gt\n    /* \"#utility.yul\":2117:2229   */\n  iszero\n  tag_73\n  jumpi\n    /* \"#utility.yul\":2148:2227   */\n  tag_74\n  tag_17\n  jump\t// in\ntag_74:\n    /* \"#utility.yul\":2117:2229   */\ntag_73:\n    /* \"#utility.yul\":2238:2290   */\n  tag_75\n    /* \"#utility.yul\":2283:2289   */\n  dup5\n    /* \"#utility.yul\":2278:2281   */\n  dup3\n    /* \"#utility.yul\":2273:2276   */\n  dup6\n    /* \"#utility.yul\":2238:2290   */\n  tag_23\n  jump\t// in\ntag_75:\n    /* \"#utility.yul\":1957:2296   */\n  pop\n    /* \"#utility.yul\":1862:2296   */\n  swap4\n  swap3\n  pop\n  pop\n  pop\n  jump\t// out\n    /* \"#utility.yul\":2316:2671   */\ntag_25:\n    /* \"#utility.yul\":2383:2388   */\n  0x00\n    /* \"#utility.yul\":2432:2435   */\n  dup3\n    /* \"#utility.yul\":2425:2429   */\n  0x1f\n    /* \"#utility.yul\":2417:2423   */\n  dup4\n    /* \"#utility.yul\":2413:2430   */\n  add\n    /* \"#utility.yul\":2409:2436   */\n  slt\n    /* \"#utility.yul\":2399:2521   */\n  tag_77\n  jumpi\n    /* \"#utility.yul\":2440:2519   */\n  tag_78\n  tag_16\n  jump\t// in\ntag_78:\n    /* \"#utility.yul\":2399:2521   */\ntag_77:\n    /* \"#utility.yul\":2550:2556   */\n  dup2\n    /* \"#utility.yul\":2544:2557   */\n  mload\n    /* \"#utility.yul\":2575:2665   */\n  tag_79\n    /* \"#utility.yul\":2661:2664   */\n  dup5\n    /* \"#utility.yul\":2653:2659   */\n  dup3\n    /* \"#utility.yul\":2646:2650   */\n  0x20\n    /* \"#utility.yul\":2638:2644   */\n  dup7\n    /* \"#utility.yul\":2634:2651   */\n  add\n    /* \"#utility.yul\":2575:2665   */\n  tag_24\n  jump\t// in\ntag_79:\n    /* \"#utility.yul\":2566:2665   */\n  swap2\n  pop\n    /* \"#utility.yul\":2389:2671   */\n  pop\n    /* \"#utility.yul\":2316:2671   */\n  swap3\n  swap2\n  pop\n  pop\n  jump\t// out\n    /* \"#utility.yul\":2677:2754   */\ntag_26:\n    /* \"#utility.yul\":2714:2721   */\n  0x00\n    /* \"#utility.yul\":2743:2748   */\n  dup2\n    /* \"#utility.yul\":2732:2748   */\n  swap1\n  pop\n    /* \"#utility.yul\":2677:2754   */\n  swap2\n  swap1\n  pop\n  jump\t// out\n    /* \"#utility.yul\":2760:2882   */\ntag_27:\n    /* \"#utility.yul\":2833:2857   */\n  tag_82\n    /* \"#utility.yul\":2851:2856   */\n  dup2\n    /* \"#utility.yul\":2833:2857   */\n  tag_26\n  jump\t// in\ntag_82:\n    /* \"#utility.yul\":2826:2831   */\n  dup2\n    /* \"#utility.yul\":2823:2858   */\n  eq\n    /* \"#utility.yul\":2813:2876   */\n  tag_83\n  jumpi\n    /* \"#utility.yul\":2872:2873   */\n  0x00\n    /* \"#utility.yul\":2869:2870   */\n  dup1\n    /* \"#utility.yul\":2862:2874   */\n  revert\n    /* \"#utility.yul\":2813:2876   */\ntag_83:\n    /* \"#utility.yul\":2760:2882   */\n  pop\n  jump\t// out\n    /* \"#utility.yul\":2888:3031   */\ntag_28:\n    /* \"#utility.yul\":2945:2950   */\n  0x00\n    /* \"#utility.yul\":2976:2982   */\n  dup2\n    /* \"#utility.yul\":2970:2983   */\n  mload\n    /* \"#utility.yul\":2961:2983   */\n  swap1\n  pop\n    /* \"#utility.yul\":2992:3025   */\n  tag_85\n    /* \"#utility.yul\":3019:3024   */\n  dup2\n    /* \"#utility.yul\":2992:3025   */\n  tag_27\n  jump\t// in\ntag_85:\n    /* \"#utility.yul\":2888:3031   */\n  swap3\n  swap2\n  pop\n  pop\n  jump\t// out\n    /* \"#utility.yul\":3037:4203   */\ntag_3:\n    /* \"#utility.yul\":3154:3160   */\n  0x00\n    /* \"#utility.yul\":3162:3168   */\n  dup1\n    /* \"#utility.yul\":3170:3176   */\n  0x00\n    /* \"#utility.yul\":3178:3184   */\n  dup1\n    /* \"#utility.yul\":3227:3230   */\n  0x80\n    /* \"#utility.yul\":3215:3224   */\n  dup6\n    /* \"#utility.yul\":3206:3213   */\n  dup8\n    /* \"#utility.yul\":3202:3225   */\n  sub\n    /* \"#utility.yul\":3198:3231   */\n  slt\n    /* \"#utility.yul\":3195:3315   */\n  iszero\n  tag_87\n  jumpi\n    /* \"#utility.yul\":3234:3313   */\n  tag_88\n  tag_14\n  jump\t// in\ntag_88:\n    /* \"#utility.yul\":3195:3315   */\ntag_87:\n    /* \"#utility.yul\":3375:3376   */\n  0x00\n    /* \"#utility.yul\":3364:3373   */\n  dup6\n    /* \"#utility.yul\":3360:3377   */\n  add\n    /* \"#utility.yul\":3354:3378   */\n  mload\n    /* \"#utility.yul\":3405:3423   */\n  0xffffffffffffffff\n    /* \"#utility.yul\":3397:3403   */\n  dup2\n    /* \"#utility.yul\":3394:3424   */\n  gt\n    /* \"#utility.yul\":3391:3508   */\n  iszero\n  tag_89\n  jumpi\n    /* \"#utility.yul\":3427:3506   */\n  tag_90\n  tag_15\n  jump\t// in\ntag_90:\n    /* \"#utility.yul\":3391:3508   */\ntag_89:\n    /* \"#utility.yul\":3532:3606   */\n  tag_91\n    /* \"#utility.yul\":3598:3605   */\n  dup8\n    /* \"#utility.yul\":3589:3595   */\n  dup3\n    /* \"#utility.yul\":3578:3587   */\n  dup9\n    /* \"#utility.yul\":3574:3596   */\n  add\n    /* \"#utility.yul\":3532:3606   */\n  tag_25\n  jump\t// in\ntag_91:\n    /* \"#utility.yul\":3522:3606   */\n  swap5\n  pop\n    /* \"#utility.yul\":3325:3616   */\n  pop\n    /* \"#utility.yul\":3676:3678   */\n  0x20\n    /* \"#utility.yul\":3665:3674   */\n  dup6\n    /* \"#utility.yul\":3661:3679   */\n  add\n    /* \"#utility.yul\":3655:3680   */\n  mload\n    /* \"#utility.yul\":3707:3725   */\n  0xffffffffffffffff\n    /* \"#utility.yul\":3699:3705   */\n  dup2\n    /* \"#utility.yul\":3696:3726   */\n  gt\n    /* \"#utility.yul\":3693:3810   */\n  iszero\n  tag_92\n  jumpi\n    /* \"#utility.yul\":3729:3808   */\n  tag_93\n  tag_15\n  jump\t// in\ntag_93:\n    /* \"#utility.yul\":3693:3810   */\ntag_92:\n    /* \"#utility.yul\":3834:3908   */\n  tag_94\n    /* \"#utility.yul\":3900:3907   */\n  dup8\n    /* \"#utility.yul\":3891:3897   */\n  dup3\n    /* \"#utility.yul\":3880:3889   */\n  dup9\n    /* \"#utility.yul\":3876:3898   */\n  add\n    /* \"#utility.yul\":3834:3908   */\n  tag_25\n  jump\t// in\ntag_94:\n    /* \"#utility.yul\":3824:3908   */\n  swap4\n  pop\n    /* \"#utility.yul\":3626:3918   */\n  pop\n    /* \"#utility.yul\":3957:3959   */\n  0x40\n    /* \"#utility.yul\":3983:4047   */\n  tag_95\n    /* \"#utility.yul\":4039:4046   */\n  dup8\n    /* \"#utility.yul\":4030:4036   */\n  dup3\n    /* \"#utility.yul\":4019:4028   */\n  dup9\n    /* \"#utility.yul\":4015:4037   */\n  add\n    /* \"#utility.yul\":3983:4047   */\n  tag_28\n  jump\t// in\ntag_95:\n    /* \"#utility.yul\":3973:4047   */\n  swap3\n  pop\n    /* \"#utility.yul\":3928:4057   */\n  pop\n    /* \"#utility.yul\":4096:4098   */\n  0x60\n    /* \"#utility.yul\":4122:4186   */\n  tag_96\n    /* \"#utility.yul\":4178:4185   */\n  dup8\n    /* \"#utility.yul\":4169:4175   */\n  dup3\n    /* \"#utility.yul\":4158:4167   */\n  dup9\n    /* \"#utility.yul\":4154:4176   */\n  add\n    /* \"#utility.yul\":4122:4186   */\n  tag_28\n  jump\t// in\ntag_96:\n    /* \"#utility.yul\":4112:4186   */\n  swap2\n  pop\n    /* \"#utility.yul\":4067:4196   */\n  pop\n    /* \"#utility.yul\":3037:4203   */\n  swap3\n  swap6\n  swap2\n  swap5\n  pop\n  swap3\n  pop\n  jump\t// out\n    /* \"#utility.yul\":4209:4308   */\ntag_29:\n    /* \"#utility.yul\":4261:4267   */\n  0x00\n    /* \"#utility.yul\":4295:4300   */\n  dup2\n    /* \"#utility.yul\":4289:4301   */\n  mload\n    /* \"#utility.yul\":4279:4301   */\n  swap1\n  pop\n    /* \"#utility.yul\":4209:4308   */\n  swap2\n  swap1\n  pop\n  jump\t// out\n    /* \"#utility.yul\":4314:4494   */\ntag_30:\n    /* \"#utility.yul\":4362:4439   */\n  0x4e487b7100000000000000000000000000000000000000000000000000000000\n    /* \"#utility.yul\":4359:4360   */\n  0x00\n    /* \"#utility.yul\":4352:4440   */\n  mstore\n    /* \"#utility.yul\":4459:4463   */\n  0x22\n    /* \"#utility.yul\":4456:4457   */\n  0x04\n    /* \"#utility.yul\":4449:4464   */\n  mstore\n    /* \"#utility.yul\":4483:4487   */\n  0x24\n    /* \"#utility.yul\":4480:4481   */\n  0x00\n    /* \"#utility.yul\":4473:4488   */\n  revert\n    /* \"#utility.yul\":4500:4820   */\ntag_31:\n    /* \"#utility.yul\":4544:4550   */\n  0x00\n    /* \"#utility.yul\":4581:4582   */\n  0x02\n    /* \"#utility.yul\":4575:4579   */\n  dup3\n    /* \"#utility.yul\":4571:4583   */\n  div\n    /* \"#utility.yul\":4561:4583   */\n  swap1\n  pop\n    /* \"#utility.yul\":4628:4629   */\n  0x01\n    /* \"#utility.yul\":4622:4626   */\n  dup3\n    /* \"#utility.yul\":4618:4630   */\n  and\n    /* \"#utility.yul\":4649:4667   */\n  dup1\n    /* \"#utility.yul\":4639:4720   */\n  tag_100\n  jumpi\n    /* \"#utility.yul\":4705:4709   */\n  0x7f\n    /* \"#utility.yul\":4697:4703   */\n  dup3\n    /* \"#utility.yul\":4693:4710   */\n  and\n    /* \"#utility.yul\":4683:4710   */\n  swap2\n  pop\n    /* \"#utility.yul\":4639:4720   */\ntag_100:\n    /* \"#utility.yul\":4767:4769   */\n  0x20\n    /* \"#utility.yul\":4759:4765   */\n  dup3\n    /* \"#utility.yul\":4756:4770   */\n  lt\n    /* \"#utility.yul\":4736:4754   */\n  dup2\n    /* \"#utility.yul\":4733:4771   */\n  sub\n    /* \"#utility.yul\":4730:4814   */\n  tag_101\n  jumpi\n    /* \"#utility.yul\":4786:4804   */\n  tag_102\n  tag_30\n  jump\t// in\ntag_102:\n    /* \"#utility.yul\":4730:4814   */\ntag_101:\n    /* \"#utility.yul\":4551:4820   */\n  pop\n    /* \"#utility.yul\":4500:4820   */\n  swap2\n  swap1\n  pop\n  jump\t// out\n    /* \"#utility.yul\":4826:4967   */\ntag_32:\n    /* \"#utility.yul\":4875:4879   */\n  0x00\n    /* \"#utility.yul\":4898:4901   */\n  dup2\n    /* \"#utility.yul\":4890:4901   */\n  swap1\n  pop\n    /* \"#utility.yul\":4921:4924   */\n  dup2\n    /* \"#utility.yul\":4918:4919   */\n  0x00\n    /* \"#utility.yul\":4911:4925   */\n  mstore\n    /* \"#utility.yul\":4955:4959   */\n  0x20\n    /* \"#utility.yul\":4952:4953   */\n  0x00\n    /* \"#utility.yul\":4942:4960   */\n  keccak256\n    /* \"#utility.yul\":4934:4960   */\n  swap1\n  pop\n    /* \"#utility.yul\":4826:4967   */\n  swap2\n  swap1\n  pop\n  jump\t// out\n    /* \"#utility.yul\":4973:5066   */\ntag_33:\n    /* \"#utility.yul\":5010:5016   */\n  0x00\n    /* \"#utility.yul\":5057:5059   */\n  0x20\n    /* \"#utility.yul\":5052:5054   */\n  0x1f\n    /* \"#utility.yul\":5045:5050   */\n  dup4\n    /* \"#utility.yul\":5041:5055   */\n  add\n    /* \"#utility.yul\":5037:5060   */\n  div\n    /* \"#utility.yul\":5027:5060   */\n  swap1\n  pop\n    /* \"#utility.yul\":4973:5066   */\n  swap2\n  swap1\n  pop\n  jump\t// out\n    /* \"#utility.yul\":5072:5179   */\ntag_34:\n    /* \"#utility.yul\":5116:5124   */\n  0x00\n    /* \"#utility.yul\":5166:5171   */\n  dup3\n    /* \"#utility.yul\":5160:5164   */\n  dup3\n    /* \"#utility.yul\":5156:5172   */\n  shl\n    /* \"#utility.yul\":5135:5172   */\n  swap1\n  pop\n    /* \"#utility.yul\":5072:5179   */\n  swap3\n  swap2\n  pop\n  pop\n  jump\t// out\n    /* \"#utility.yul\":5185:5578   */\ntag_35:\n    /* \"#utility.yul\":5254:5260   */\n  0x00\n    /* \"#utility.yul\":5304:5305   */\n  0x08\n    /* \"#utility.yul\":5292:5302   */\n  dup4\n    /* \"#utility.yul\":5288:5306   */\n  mul\n    /* \"#utility.yul\":5327:5424   */\n  tag_107\n    /* \"#utility.yul\":5357:5423   */\n  0xffffffffffffffffffffffffffffffffffffffffffffffffffffffffffffffff\n    /* \"#utility.yul\":5346:5355   */\n  dup3\n    /* \"#utility.yul\":5327:5424   */\n  tag_34\n  jump\t// in\ntag_107:\n    /* \"#utility.yul\":5445:5484   */\n  tag_108\n    /* \"#utility.yul\":5475:5483   */\n  dup7\n    /* \"#utility.yul\":5464:5473   */\n  dup4\n    /* \"#utility.yul\":5445:5484   */\n  tag_34\n  jump\t// in\ntag_108:\n    /* \"#utility.yul\":5433:5484   */\n  swap6\n  pop\n    /* \"#utility.yul\":5517:5521   */\n  dup1\n    /* \"#utility.yul\":5513:5522   */\n  not\n    /* \"#utility.yul\":5506:5511   */\n  dup5\n    /* \"#utility.yul\":5502:5523   */\n  and\n    /* \"#utility.yul\":5493:5523   */\n  swap4\n  pop\n    /* \"#utility.yul\":5566:5570   */\n  dup1\n    /* \"#utility.yul\":5556:5564   */\n  dup7\n    /* \"#utility.yul\":5552:5571   */\n  and\n    /* \"#utility.yul\":5545:5550   */\n  dup5\n    /* \"#utility.yul\":5542:5572   */\n  or\n    /* \"#utility.yul\":5532:5572   */\n  swap3\n  pop\n    /* \"#utility.yul\":5261:5578   */\n  pop\n  pop\n    /* \"#utility.yul\":5185:5578   */\n  swap4\n  swap3\n  pop\n  pop\n  pop\n  jump\t// out\n    /* \"#utility.yul\":5584:5644   */\ntag_36:\n    /* \"#utility.yul\":5612:5615   */\n  0x00\n    /* \"#utility.yul\":5633:5638   */\n  dup2\n    /* \"#utility.yul\":5626:5638   */\n  swap1\n  pop\n    /* \"#utility.yul\":5584:5644   */\n  swap2\n  swap1\n  pop\n  jump\t// out\n    /* \"#utility.yul\":5650:5792   */\ntag_37:\n    /* \"#utility.yul\":5700:5709   */\n  0x00\n    /* \"#utility.yul\":5733:5786   */\n  tag_111\n    /* \"#utility.yul\":5751:5785   */\n  tag_112\n    /* \"#utility.yul\":5760:5784   */\n  tag_113\n    /* \"#utility.yul\":5778:5783   */\n  dup5\n    /* \"#utility.yul\":5760:5784   */\n  tag_26\n  jump\t// in\ntag_113:\n    /* \"#utility.yul\":5751:5785   */\n  tag_36\n  jump\t// in\ntag_112:\n    /* \"#utility.yul\":5733:5786   */\n  tag_26\n  jump\t// in\ntag_111:\n    /* \"#utility.yul\":5720:5786   */\n  swap1\n  pop\n    /* \"#utility.yul\":5650:5792   */\n  swap2\n  swap1\n  pop\n  jump\t// out\n    /* \"#utility.yul\":5798:5873   */\ntag_38:\n    /* \"#utility.yul\":5841:5844   */\n  0x00\n    /* \"#utility.yul\":5862:5867   */\n  dup2\n    /* \"#utility.yul\":5855:5867   */\n  swap1\n  pop\n    /* \"#utility.yul\":5798:5873   */\n  swap2\n  swap1\n  pop\n  jump\t// out\n    /* \"#utility.yul\":5879:6148   */\ntag_39:\n    /* \"#utility.yul\":5989:6028   */\n  tag_116\n    /* \"#utility.yul\":6020:6027   */\n  dup4\n    /* \"#utility.yul\":5989:6028   */\n  tag_37\n  jump\t// in\ntag_116:\n    /* \"#utility.yul\":6050:6141   */\n  tag_117\n    /* \"#utility.yul\":6099:6140   */\n  tag_118\n    /* \"#utility.yul\":6123:6139   */\n  dup3\n    /* \"#utility.yul\":6099:6140   */\n  tag_38\n  jump\t// in\ntag_118:\n    /* \"#utility.yul\":6091:6097   */\n  dup5\n    /* \"#utility.yul\":6084:6088   */\n  dup5\n    /* \"#utility.yul\":6078:6089   */\n  sload\n    /* \"#utility.yul\":6050:6141   */\n  tag_35\n  jump\t// in\ntag_117:\n    /* \"#utility.yul\":6044:6048   */\n  dup3\n    /* \"#utility.yul\":6037:6142   */\n  sstore\n    /* \"#utility.yul\":5955:6148   */\n  pop\n    /* \"#utility.yul\":5879:6148   */\n  pop\n  pop\n  pop\n  jump\t// out\n    /* \"#utility.yul\":6154:6227   */\ntag_40:\n    /* \"#utility.yul\":6199:6202   */\n  0x00\n    /* \"#utility.yul\":6154:6227   */\n  swap1\n  jump\t// out\n    /* \"#utility.yul\":6233:6422   */\ntag_41:\n    /* \"#utility.yul\":6310:6342   */\n  tag_121\n  tag_40\n  jump\t// in\ntag_121:\n    /* \"#utility.yul\":6351:6416   */\n  tag_122\n    /* \"#utility.yul\":6409:6415   */\n  dup2\n    /* \"#utility.yul\":6401:6407   */\n  dup5\n    /* \"#utility.yul\":6395:6399   */\n  dup5\n    /* \"#utility.yul\":6351:6416   */\n  tag_39\n  jump\t// in\ntag_122:\n    /* \"#utility.yul\":6286:6422   */\n  pop\n    /* \"#utility.yul\":6233:6422   */\n  pop\n  pop\n  jump\t// out\n    /* \"#utility.yul\":6428:6614   */\ntag_42:\n    /* \"#utility.yul\":6488:6608   */\ntag_124:\n    /* \"#utility.yul\":6505:6508   */\n  dup2\n    /* \"#utility.yul\":6498:6503   */\n  dup2\n    /* \"#utility.yul\":6495:6509   */\n  lt\n    /* \"#utility.yul\":6488:6608   */\n  iszero\n  tag_126\n  jumpi\n    /* \"#utility.yul\":6559:6598   */\n  tag_127\n    /* \"#utility.yul\":6596:6597   */\n  0x00\n    /* \"#utility.yul\":6589:6594   */\n  dup3\n    /* \"#utility.yul\":6559:6598   */\n  tag_41\n  jump\t// in\ntag_127:\n    /* \"#utility.yul\":6532:6533   */\n  0x01\n    /* \"#utility.yul\":6525:6530   */\n  dup2\n    /* \"#utility.yul\":6521:6534   */\n  add\n    /* \"#utility.yul\":6512:6534   */\n  swap1\n  pop\n    /* \"#utility.yul\":6488:6608   */\n  jump(tag_124)\ntag_126:\n    /* \"#utility.yul\":6428:6614   */\n  pop\n  pop\n  jump\t// out\n    /* \"#utility.yul\":6620:7163   */\ntag_43:\n    /* \"#utility.yul\":6721:6723   */\n  0x1f\n    /* \"#utility.yul\":6716:6719   */\n  dup3\n    /* \"#utility.yul\":6713:6724   */\n  gt\n    /* \"#utility.yul\":6710:7156   */\n  iszero\n  tag_129\n  jumpi\n    /* \"#utility.yul\":6755:6793   */\n  tag_130\n    /* \"#utility.yul\":6787:6792   */\n  dup2\n    /* \"#utility.yul\":6755:6793   */\n  tag_32\n  jump\t// in\ntag_130:\n    /* \"#utility.yul\":6839:6868   */\n  tag_131\n    /* \"#utility.yul\":6857:6867   */\n  dup5\n    /* \"#utility.yul\":6839:6868   */\n  tag_33\n  jump\t// in\ntag_131:\n    /* \"#utility.yul\":6829:6837   */\n  dup2\n    /* \"#utility.yul\":6825:6869   */\n  add\n    /* \"#utility.yul\":7022:7024   */\n  0x20\n    /* \"#utility.yul\":7010:7020   */\n  dup6\n    /* \"#utility.yul\":7007:7025   */\n  lt\n    /* \"#utility.yul\":7004:7053   */\n  iszero\n  tag_132\n  jumpi\n    /* \"#utility.yul\":7043:7051   */\n  dup2\n    /* \"#utility.yul\":7028:7051   */\n  swap1\n  pop\n    /* \"#utility.yul\":7004:7053   */\ntag_132:\n    /* \"#utility.yul\":7066:7146   */\n  tag_133\n    /* \"#utility.yul\":7122:7144   */\n  tag_134\n    /* \"#utility.yul\":7140:7143   */\n  dup6\n    /* \"#utility.yul\":7122:7144   */\n  tag_33\n  jump\t// in\ntag_134:\n    /* \"#utility.yul\":7112:7120   */\n  dup4\n    /* \"#utility.yul\":7108:7145   */\n  add\n    /* \"#utility.yul\":7095:7106   */\n  dup3\n    /* \"#utility.yul\":7066:7146   */\n  tag_42\n  jump\t// in\ntag_133:\n    /* \"#utility.yul\":6725:7156   */\n  pop\n  pop\n    /* \"#utility.yul\":6710:7156   */\ntag_129:\n    /* \"#utility.yul\":6620:7163   */\n  pop\n  pop\n  pop\n  jump\t// out\n    /* \"#utility.yul\":7169:7286   */\ntag_44:\n    /* \"#utility.yul\":7223:7231   */\n  0x00\n    /* \"#utility.yul\":7273:7278   */\n  dup3\n    /* \"#utility.yul\":7267:7271   */\n  dup3\n    /* \"#utility.yul\":7263:7279   */\n  shr\n    /* \"#utility.yul\":7242:7279   */\n  swap1\n  pop\n    /* \"#utility.yul\":7169:7286   */\n  swap3\n  swap2\n  pop\n  pop\n  jump\t// out\n    /* \"#utility.yul\":7292:7461   */\ntag_45:\n    /* \"#utility.yul\":7336:7342   */\n  0x00\n    /* \"#utility.yul\":7369:7420   */\n  tag_137\n    /* \"#utility.yul\":7417:7418   */\n  0x00\n    /* \"#utility.yul\":7413:7419   */\n  not\n    /* \"#utility.yul\":7405:7410   */\n  dup5\n    /* \"#utility.yul\":7402:7403   */\n  0x08\n    /* \"#utility.yul\":7398:7411   */\n  mul\n    /* \"#utility.yul\":7369:7420   */\n  tag_44\n  jump\t// in\ntag_137:\n    /* \"#utility.yul\":7365:7421   */\n  not\n    /* \"#utility.yul\":7450:7454   */\n  dup1\n    /* \"#utility.yul\":7444:7448   */\n  dup4\n    /* \"#utility.yul\":7440:7455   */\n  and\n    /* \"#utility.yul\":7430:7455   */\n  swap2\n  pop\n    /* \"#utility.yul\":7343:7461   */\n  pop\n    /* \"#utility.yul\":7292:7461   */\n  swap3\n  swap2\n  pop\n  pop\n  jump\t// out\n    /* \"#utility.yul\":7466:7761   */\ntag_46:\n    /* \"#utility.yul\":7542:7546   */\n  0x00\n    /* \"#utility.yul\":7688:7717   */\n  tag_139\n    /* \"#utility.yul\":7713:7716   */\n  dup4\n    /* \"#utility.yul\":7707:7711   */\n  dup4\n    /* \"#utility.yul\":7688:7717   */\n  tag_45\n  jump\t// in\ntag_139:\n    /* \"#utility.yul\":7680:7717   */\n  swap2\n  pop\n    /* \"#utility.yul\":7750:7753   */\n  dup3\n    /* \"#utility.yul\":7747:7748   */\n  0x02\n    /* \"#utility.yul\":7743:7754   */\n  mul\n    /* \"#utility.yul\":7737:7741   */\n  dup3\n    /* \"#utility.yul\":7734:7755   */\n  or\n    /* \"#utility.yul\":7726:7755   */\n  swap1\n  pop\n    /* \"#utility.yul\":7466:7761   */\n  swap3\n  swap2\n  pop\n  pop\n  jump\t// out\n    /* \"#utility.yul\":7766:9161   */\ntag_7:\n    /* \"#utility.yul\":7883:7920   */\n  tag_141\n    /* \"#utility.yul\":7916:7919   */\n  dup3\n    /* \"#utility.yul\":7883:7920   */\n  tag_29\n  jump\t// in\ntag_141:\n    /* \"#utility.yul\":7985:8003   */\n  0xffffffffffffffff\n    /* \"#utility.yul\":7977:7983   */\n  dup2\n    /* \"#utility.yul\":7974:8004   */\n  gt\n    /* \"#utility.yul\":7971:8027   */\n  iszero\n  tag_142\n  jumpi\n    /* \"#utility.yul\":8007:8025   */\n  tag_143\n  tag_19\n  jump\t// in\ntag_143:\n    /* \"#utility.yul\":7971:8027   */\ntag_142:\n    /* \"#utility.yul\":8051:8089   */\n  tag_144\n    /* \"#utility.yul\":8083:8087   */\n  dup3\n    /* \"#utility.yul\":8077:8088   */\n  sload\n    /* \"#utility.yul\":8051:8089   */\n  tag_31\n  jump\t// in\ntag_144:\n    /* \"#utility.yul\":8136:8203   */\n  tag_145\n    /* \"#utility.yul\":8196:8202   */\n  dup3\n    /* \"#utility.yul\":8188:8194   */\n  dup3\n    /* \"#utility.yul\":8182:8186   */\n  dup6\n    /* \"#utility.yul\":8136:8203   */\n  tag_43\n  jump\t// in\ntag_145:\n    /* \"#utility.yul\":8230:8231   */\n  0x00\n    /* \"#utility.yul\":8254:8258   */\n  0x20\n    /* \"#utility.yul\":8241:8258   */\n  swap1\n  pop\n    /* \"#utility.yul\":8286:8288   */\n  0x1f\n    /* \"#utility.yul\":8278:8284   */\n  dup4\n    /* \"#utility.yul\":8275:8289   */\n  gt\n    /* \"#utility.yul\":8303:8304   */\n  0x01\n    /* \"#utility.yul\":8298:8916   */\n  dup2\n  eq\n  tag_147\n  jumpi\n    /* \"#utility.yul\":8960:8961   */\n  0x00\n    /* \"#utility.yul\":8977:8983   */\n  dup5\n    /* \"#utility.yul\":8974:9051   */\n  iszero\n  tag_148\n  jumpi\n    /* \"#utility.yul\":9026:9035   */\n  dup3\n    /* \"#utility.yul\":9021:9024   */\n  dup8\n    /* \"#utility.yul\":9017:9036   */\n  add\n    /* \"#utility.yul\":9011:9037   */\n  mload\n    /* \"#utility.yul\":9002:9037   */\n  swap1\n  pop\n    /* \"#utility.yul\":8974:9051   */\ntag_148:\n    /* \"#utility.yul\":9077:9144   */\n  tag_149\n    /* \"#utility.yul\":9137:9143   */\n  dup6\n    /* \"#utility.yul\":9130:9135   */\n  dup3\n    /* \"#utility.yul\":9077:9144   */\n  tag_46\n  jump\t// in\ntag_149:\n    /* \"#utility.yul\":9071:9075   */\n  dup7\n    /* \"#utility.yul\":9064:9145   */\n  sstore\n    /* \"#utility.yul\":8933:9155   */\n  pop\n    /* \"#utility.yul\":8268:9155   */\n  jump(tag_146)\n    /* \"#utility.yul\":8298:8916   */\ntag_147:\n    /* \"#utility.yul\":8350:8354   */\n  0x1f\n    /* \"#utility.yul\":8346:8355   */\n  not\n    /* \"#utility.yul\":8338:8344   */\n  dup5\n    /* \"#utility.yul\":8334:8356   */\n  and\n    /* \"#utility.yul\":8384:8421   */\n  tag_150\n    /* \"#utility.yul\":8416:8420   */\n  dup7\n    /* \"#utility.yul\":8384:8421   */\n  tag_32\n  jump\t// in\ntag_150:\n    /* \"#utility.yul\":8443:8444   */\n  0x00\n    /* \"#utility.yul\":8457:8665   */\ntag_151:\n    /* \"#utility.yul\":8471:8478   */\n  dup3\n    /* \"#utility.yul\":8468:8469   */\n  dup2\n    /* \"#utility.yul\":8465:8479   */\n  lt\n    /* \"#utility.yul\":8457:8665   */\n  iszero\n  tag_153\n  jumpi\n    /* \"#utility.yul\":8550:8559   */\n  dup5\n    /* \"#utility.yul\":8545:8548   */\n  dup10\n    /* \"#utility.yul\":8541:8560   */\n  add\n    /* \"#utility.yul\":8535:8561   */\n  mload\n    /* \"#utility.yul\":8527:8533   */\n  dup3\n    /* \"#utility.yul\":8520:8562   */\n  sstore\n    /* \"#utility.yul\":8601:8602   */\n  0x01\n    /* \"#utility.yul\":8593:8599   */\n  dup3\n    /* \"#utility.yul\":8589:8603   */\n  add\n    /* \"#utility.yul\":8579:8603   */\n  swap2\n  pop\n    /* \"#utility.yul\":8648:8650   */\n  0x20\n    /* \"#utility.yul\":8637:8646   */\n  dup6\n    /* \"#utility.yul\":8633:8651   */\n  add\n    /* \"#utility.yul\":8620:8651   */\n  swap5\n  pop\n    /* \"#utility.yul\":8494:8498   */\n  0x20\n    /* \"#utility.yul\":8491:8492   */\n  dup2\n    /* \"#utility.yul\":8487:8499   */\n  add\n    /* \"#utility.yul\":8482:8499   */\n  swap1\n  pop\n    /* \"#utility.yul\":8457:8665   */\n  jump(tag_151)\ntag_153:\n    /* \"#utility.yul\":8693:8699   */\n  dup7\n    /* \"#utility.yul\":8684:8691   */\n  dup4\n    /* \"#utility.yul\":8681:8700   */\n  lt\n    /* \"#utility.yul\":8678:8857   */\n  iszero\n  tag_154\n  jumpi\n    /* \"#utility.yul\":8751:8760   */\n  dup5\n    /* \"#utility.yul\":8746:8749   */\n  dup10\n    /* \"#utility.yul\":8742:8761   */\n  add\n    /* \"#utility.yul\":8736:8762   */\n  mload\n    /* \"#utility.yul\":8794:8842   */\n  tag_155\n    /* \"#utility.yul\":8836:8840   */\n  0x1f\n    /* \"#utility.yul\":8828:8834   */\n  dup10\n    /* \"#utility.yul\":8824:8841   */\n  and\n    /* \"#utility.yul\":8813:8822   */\n  dup3\n    /* \"#utility.yul\":8794:8842   */\n  tag_45\n  jump\t// in\ntag_155:\n    /* \"#utility.yul\":8786:8792   */\n  dup4\n    /* \"#utility.yul\":8779:8843   */\n  sstore\n    /* \"#utility.yul\":8701:8857   */\n  pop\n    /* \"#utility.yul\":8678:8857   */\ntag_154:\n    /* \"#utility.yul\":8903:8904   */\n  0x01\n    /* \"#utility.yul\":8899:8900   */\n  0x02\n    /* \"#utility.yul\":8891:8897   */\n  dup9\n    /* \"#utility.yul\":8887:8901   */\n  mul\n    /* \"#utility.yul\":8883:8905   */\n  add\n    /* \"#utility.yul\":8877:8881   */\n  dup9\n    /* \"#utility.yul\":8870:8906   */\n  sstore\n    /* \"#utility.yul\":8305:8916   */\n  pop\n  pop\n  pop\n    /* \"#utility.yul\":8268:9155   */\ntag_146:\n  pop\n    /* \"#utility.yul\":7858:9161   */\n  pop\n  pop\n  pop\n    /* \"#utility.yul\":7766:9161   */\n  pop\n  pop\n  jump\t// out\n    /* \"Dcoffer/ERC721A/test.sol\":996:22650  contract ERC721A is Context, ERC165, IERC721A {... */\ntag_11:\n  dataSize(sub_0)\n  dup1\n  dataOffset(sub_0)\n  0x00\n  codecopy\n  0x00\n  return\nstop\n\nsub_0: assembly {\n        /* \"Dcoffer/ERC721A/test.sol\":996:22650  contract ERC721A is Context, ERC165, IERC721A {... */\n      mstore(0x40, 0x80)\n      callvalue\n      dup1\n      iszero\n      tag_1\n      jumpi\n      0x00\n      dup1\n      revert\n    tag_1:\n      pop\n      jumpi(tag_2, lt(calldatasize, 0x04))\n      shr(0xe0, calldataload(0x00))\n      dup1\n      0x70a08231\n      gt\n      tag_25\n      jumpi\n      dup1\n      0xb88d4fde\n      gt\n      tag_26\n      jumpi\n      dup1\n      0xb88d4fde\n      eq\n      tag_19\n      jumpi\n      dup1\n      0xb8ba6007\n      eq\n      tag_20\n      jumpi\n      dup1\n      0xc87b56dd\n      eq\n      tag_21\n      jumpi\n      dup1\n      0xd5abeb01\n      eq\n      tag_22\n      jumpi\n      dup1\n      0xe985e9c5\n      eq\n      tag_23\n      jumpi\n      dup1\n      0xf390c328\n      eq\n      tag_24\n      jumpi\n      jump(tag_2)\n    tag_26:\n      dup1\n      0x70a08231\n      eq\n      tag_14\n      jumpi\n      dup1\n      0x94fc67d1\n      eq\n      tag_15\n      jumpi\n      dup1\n      0x95d89b41\n      eq\n      tag_16\n      jumpi\n      dup1\n      0x9f773399\n      eq\n      tag_17\n      jumpi\n      dup1\n      0xa22cb465\n      eq\n      tag_18\n      jumpi\n      jump(tag_2)\n    tag_25:\n      dup1\n      0x23b872dd\n      gt\n      tag_27\n      jumpi\n      dup1\n      0x23b872dd\n      eq\n      tag_8\n      jumpi\n      dup1\n      0x38020dcc\n      eq\n      tag_9\n      jumpi\n      dup1\n      0x42842e0e\n      eq\n      tag_10\n      jumpi\n      dup1\n      0x4be3403c\n      eq\n      tag_11\n      jumpi\n      dup1\n      0x5e7ec827\n      eq\n      tag_12\n      jumpi\n      dup1\n      0x6352211e\n      eq\n      tag_13\n      jumpi\n      jump(tag_2)\n    tag_27:\n      dup1\n      0x01ffc9a7\n      eq\n      tag_3\n      jumpi\n      dup1\n      0x06fdde03\n      eq\n      tag_4\n      jumpi\n      dup1\n      0x081812fc\n      eq\n      tag_5\n      jumpi\n      dup1\n      0x095ea7b3\n      eq\n      tag_6\n      jumpi\n      dup1\n      0x18160ddd\n      eq\n      tag_7\n      jumpi\n    tag_2:\n      0x00\n      dup1\n      revert\n        /* \"Dcoffer/ERC721A/test.sol\":5054:5359  function supportsInterface(bytes4 interfaceId) public view virtual override(ERC165, IERC165) returns (bool) {... */\n    tag_3:\n      tag_28\n      0x04\n      dup1\n      calldatasize\n      sub\n      dup2\n      add\n      swap1\n      tag_29\n      swap2\n      swap1\n      tag_30\n      jump\t// in\n    tag_29:\n      tag_31\n      jump\t// in\n    tag_28:\n      mload(0x40)\n      tag_32\n      swap2\n      swap1\n      tag_33\n      jump\t// in\n    tag_32:\n      mload(0x40)\n      dup1\n      swap2\n      sub\n      swap1\n      return\n        /* \"Dcoffer/ERC721A/test.sol\":8170:8270  function name() public view virtual override returns (string memory) {... */\n    tag_4:\n      tag_34\n      tag_35\n      jump\t// in\n    tag_34:\n      mload(0x40)\n      tag_36\n      swap2\n      swap1\n      tag_37\n      jump\t// in\n    tag_36:\n      mload(0x40)\n      dup1\n      swap2\n      sub\n      swap1\n      return\n        /* \"Dcoffer/ERC721A/test.sol\":9765:9969  function getApproved(uint256 tokenId) public view override returns (address) {... */\n    tag_5:\n      tag_38\n      0x04\n      dup1\n      calldatasize\n      sub\n      dup2\n      add\n      swap1\n      tag_39\n      swap2\n      swap1\n      tag_40\n      jump\t// in\n    tag_39:\n      tag_41\n      jump\t// in\n    tag_38:\n      mload(0x40)\n      tag_42\n      swap2\n      swap1\n      tag_43\n      jump\t// in\n    tag_42:\n      mload(0x40)\n      dup1\n      swap2\n      sub\n      swap1\n      return\n        /* \"Dcoffer/ERC721A/test.sol\":9327:9699  function approve(address to, uint256 tokenId) public override {... */\n    tag_6:\n      tag_44\n      0x04\n      dup1\n      calldatasize\n      sub\n      dup2\n      add\n      swap1\n      tag_45\n      swap2\n      swap1\n      tag_46\n      jump\t// in\n    tag_45:\n      tag_47\n      jump\t// in\n    tag_44:\n      stop\n        /* \"Dcoffer/ERC721A/test.sol\":4120:4432  function totalSupply() public view override returns (uint256) {... */\n    tag_7:\n      tag_48\n      tag_49\n      jump\t// in\n    tag_48:\n      mload(0x40)\n      tag_50\n      swap2\n      swap1\n      tag_51\n      jump\t// in\n    tag_50:\n      mload(0x40)\n      dup1\n      swap2\n      sub\n      swap1\n      return\n        /* \"Dcoffer/ERC721A/test.sol\":10630:10800  function transferFrom(... */\n    tag_8:\n      tag_52\n      0x04\n      dup1\n      calldatasize\n      sub\n      dup2\n      add\n      swap1\n      tag_53\n      swap2\n      swap1\n      tag_54\n      jump\t// in\n    tag_53:\n      tag_55\n      jump\t// in\n    tag_52:\n      stop\n        /* \"Dcoffer/ERC721A/test.sol\":1174:1201  uint256 public _DCFperBlock */\n    tag_9:\n      tag_56\n      tag_57\n      jump\t// in\n    tag_56:\n      mload(0x40)\n      tag_58\n      swap2\n      swap1\n      tag_51\n      jump\t// in\n    tag_58:\n      mload(0x40)\n      dup1\n      swap2\n      sub\n      swap1\n      return\n        /* \"Dcoffer/ERC721A/test.sol\":10871:11056  function safeTransferFrom(... */\n    tag_10:\n      tag_59\n      0x04\n      dup1\n      calldatasize\n      sub\n      dup2\n      add\n      swap1\n      tag_60\n      swap2\n      swap1\n      tag_54\n      jump\t// in\n    tag_60:\n      tag_61\n      jump\t// in\n    tag_59:\n      stop\n        /* \"Dcoffer/ERC721A/test.sol\":3242:3492  function blockStatus (uint256 _BlockNumber)public view returns (uint256){... */\n    tag_11:\n      tag_62\n      0x04\n      dup1\n      calldatasize\n      sub\n      dup2\n      add\n      swap1\n      tag_63\n      swap2\n      swap1\n      tag_40\n      jump\t// in\n    tag_63:\n      tag_64\n      jump\t// in\n    tag_62:\n      mload(0x40)\n      tag_65\n      swap2\n      swap1\n      tag_51\n      jump\t// in\n    tag_65:\n      mload(0x40)\n      dup1\n      swap2\n      sub\n      swap1\n      return\n        /* \"Dcoffer/ERC721A/test.sol\":1251:1277  uint256 public _totalPower */\n    tag_12:\n      tag_66\n      tag_67\n      jump\t// in\n    tag_66:\n      mload(0x40)\n      tag_68\n      swap2\n      swap1\n      tag_51\n      jump\t// in\n    tag_68:\n      mload(0x40)\n      dup1\n      swap2\n      sub\n      swap1\n      return\n        /* \"Dcoffer/ERC721A/test.sol\":7978:8103  function ownerOf(uint256 tokenId) public view override returns (address) {... */\n    tag_13:\n      tag_69\n      0x04\n      dup1\n      calldatasize\n      sub\n      dup2\n      add\n      swap1\n      tag_70\n      swap2\n      swap1\n      tag_40\n      jump\t// in\n    tag_70:\n      tag_71\n      jump\t// in\n    tag_69:\n      mload(0x40)\n      tag_72\n      swap2\n      swap1\n      tag_43\n      jump\t// in\n    tag_72:\n      mload(0x40)\n      dup1\n      swap2\n      sub\n      swap1\n      return\n        /* \"Dcoffer/ERC721A/test.sol\":5423:5629  function balanceOf(address owner) public view override returns (uint256) {... */\n    tag_14:\n      tag_73\n      0x04\n      dup1\n      calldatasize\n      sub\n      dup2\n      add\n      swap1\n      tag_74\n      swap2\n      swap1\n      tag_75\n      jump\t// in\n    tag_74:\n      tag_76\n      jump\t// in\n    tag_73:\n      mload(0x40)\n      tag_77\n      swap2\n      swap1\n      tag_51\n      jump\t// in\n    tag_77:\n      mload(0x40)\n      dup1\n      swap2\n      sub\n      swap1\n      return\n        /* \"Dcoffer/ERC721A/test.sol\":1210:1242  uint256 public _startBlockNumber */\n    tag_15:\n      tag_78\n      tag_79\n      jump\t// in\n    tag_78:\n      mload(0x40)\n      tag_80\n      swap2\n      swap1\n      tag_51\n      jump\t// in\n    tag_80:\n      mload(0x40)\n      dup1\n      swap2\n      sub\n      swap1\n      return\n        /* \"Dcoffer/ERC721A/test.sol\":8339:8443  function symbol() public view virtual override returns (string memory) {... */\n    tag_16:\n      tag_81\n      tag_82\n      jump\t// in\n    tag_81:\n      mload(0x40)\n      tag_83\n      swap2\n      swap1\n      tag_37\n      jump\t// in\n    tag_83:\n      mload(0x40)\n      dup1\n      swap2\n      sub\n      swap1\n      return\n        /* \"Dcoffer/ERC721A/test.sol\":1145:1165  uint256 public _salt */\n    tag_17:\n      tag_84\n      tag_85\n      jump\t// in\n    tag_84:\n      mload(0x40)\n      tag_86\n      swap2\n      swap1\n      tag_51\n      jump\t// in\n    tag_86:\n      mload(0x40)\n      dup1\n      swap2\n      sub\n      swap1\n      return\n        /* \"Dcoffer/ERC721A/test.sol\":10041:10328  function setApprovalForAll(address operator, bool approved) public virtual override {... */\n    tag_18:\n      tag_87\n      0x04\n      dup1\n      calldatasize\n      sub\n      dup2\n      add\n      swap1\n      tag_88\n      swap2\n      swap1\n      tag_89\n      jump\t// in\n    tag_88:\n      tag_90\n      jump\t// in\n    tag_87:\n      stop\n        /* \"Dcoffer/ERC721A/test.sol\":11127:11497  function safeTransferFrom(... */\n    tag_19:\n      tag_91\n      0x04\n      dup1\n      calldatasize\n      sub\n      dup2\n      add\n      swap1\n      tag_92\n      swap2\n      swap1\n      tag_93\n      jump\t// in\n    tag_92:\n      tag_94\n      jump\t// in\n    tag_91:\n      stop\n        /* \"Dcoffer/ERC721A/test.sol\":2775:3219  function MineStatus(address user)public view returns(uint256){... */\n    tag_20:\n      tag_95\n      0x04\n      dup1\n      calldatasize\n      sub\n      dup2\n      add\n      swap1\n      tag_96\n      swap2\n      swap1\n      tag_75\n      jump\t// in\n    tag_96:\n      tag_97\n      jump\t// in\n    tag_95:\n      mload(0x40)\n      tag_98\n      swap2\n      swap1\n      tag_51\n      jump\t// in\n    tag_98:\n      mload(0x40)\n      dup1\n      swap2\n      sub\n      swap1\n      return\n        /* \"Dcoffer/ERC721A/test.sol\":8514:8832  function tokenURI(uint256 tokenId) public view virtual override returns (string memory) {... */\n    tag_21:\n      tag_99\n      0x04\n      dup1\n      calldatasize\n      sub\n      dup2\n      add\n      swap1\n      tag_100\n      swap2\n      swap1\n      tag_40\n      jump\t// in\n    tag_100:\n      tag_101\n      jump\t// in\n    tag_99:\n      mload(0x40)\n      tag_102\n      swap2\n      swap1\n      tag_37\n      jump\t// in\n    tag_102:\n      mload(0x40)\n      dup1\n      swap2\n      sub\n      swap1\n      return\n        /* \"Dcoffer/ERC721A/test.sol\":4442:4606  function maxSupply() public view  returns (uint256) {       ... */\n    tag_22:\n      tag_103\n      tag_104\n      jump\t// in\n    tag_103:\n      mload(0x40)\n      tag_105\n      swap2\n      swap1\n      tag_51\n      jump\t// in\n    tag_105:\n      mload(0x40)\n      dup1\n      swap2\n      sub\n      swap1\n      return\n        /* \"Dcoffer/ERC721A/test.sol\":10399:10563  function isApprovedForAll(address owner, address operator) public view virtual override returns (bool) {... */\n    tag_23:\n      tag_106\n      0x04\n      dup1\n      calldatasize\n      sub\n      dup2\n      add\n      swap1\n      tag_107\n      swap2\n      swap1\n      tag_108\n      jump\t// in\n    tag_107:\n      tag_109\n      jump\t// in\n    tag_106:\n      mload(0x40)\n      tag_110\n      swap2\n      swap1\n      tag_33\n      jump\t// in\n    tag_110:\n      mload(0x40)\n      dup1\n      swap2\n      sub\n      swap1\n      return\n        /* \"Dcoffer/ERC721A/test.sol\":3502:3776  function DcofferPower (uint256 tokenId)public view returns(uint256){... */\n    tag_24:\n      tag_111\n      0x04\n      dup1\n      calldatasize\n      sub\n      dup2\n      add\n      swap1\n      tag_112\n      swap2\n      swap1\n      tag_40\n      jump\t// in\n    tag_112:\n      tag_113\n      jump\t// in\n    tag_111:\n      mload(0x40)\n      tag_114\n      swap2\n      swap1\n      tag_51\n      jump\t// in\n    tag_114:\n      mload(0x40)\n      dup1\n      swap2\n      sub\n      swap1\n      return\n        /* \"Dcoffer/ERC721A/test.sol\":5054:5359  function supportsInterface(bytes4 interfaceId) public view virtual override(ERC165, IERC165) returns (bool) {... */\n    tag_31:\n        /* \"Dcoffer/ERC721A/test.sol\":5156:5160  bool */\n      0x00\n        /* \"Dcoffer/ERC721A/test.sol\":5208:5233  type(IERC721).interfaceId */\n      0x80ac58cd00000000000000000000000000000000000000000000000000000000\n        /* \"Dcoffer/ERC721A/test.sol\":5193:5233  interfaceId == type(IERC721).interfaceId */\n      not(0xffffffffffffffffffffffffffffffffffffffffffffffffffffffff)\n      and\n        /* \"Dcoffer/ERC721A/test.sol\":5193:5204  interfaceId */\n      dup3\n        /* \"Dcoffer/ERC721A/test.sol\":5193:5233  interfaceId == type(IERC721).interfaceId */\n      not(0xffffffffffffffffffffffffffffffffffffffffffffffffffffffff)\n      and\n      eq\n        /* \"Dcoffer/ERC721A/test.sol\":5193:5298  interfaceId == type(IERC721).interfaceId ||... */\n      dup1\n      tag_116\n      jumpi\n      pop\n        /* \"Dcoffer/ERC721A/test.sol\":5265:5298  type(IERC721Metadata).interfaceId */\n      0x5b5e139f00000000000000000000000000000000000000000000000000000000\n        /* \"Dcoffer/ERC721A/test.sol\":5250:5298  interfaceId == type(IERC721Metadata).interfaceId */\n      not(0xffffffffffffffffffffffffffffffffffffffffffffffffffffffff)\n      and\n        /* \"Dcoffer/ERC721A/test.sol\":5250:5261  interfaceId */\n      dup3\n        /* \"Dcoffer/ERC721A/test.sol\":5250:5298  interfaceId == type(IERC721Metadata).interfaceId */\n      not(0xffffffffffffffffffffffffffffffffffffffffffffffffffffffff)\n      and\n      eq\n        /* \"Dcoffer/ERC721A/test.sol\":5193:5298  interfaceId == type(IERC721).interfaceId ||... */\n    tag_116:\n        /* \"Dcoffer/ERC721A/test.sol\":5193:5351  interfaceId == type(IERC721).interfaceId ||... */\n      dup1\n      tag_117\n      jumpi\n      pop\n        /* \"Dcoffer/ERC721A/test.sol\":5315:5351  super.supportsInterface(interfaceId) */\n      tag_118\n        /* \"Dcoffer/ERC721A/test.sol\":5339:5350  interfaceId */\n      dup3\n        /* \"Dcoffer/ERC721A/test.sol\":5315:5338  super.supportsInterface */\n      tag_119\n        /* \"Dcoffer/ERC721A/test.sol\":5315:5351  super.supportsInterface(interfaceId) */\n      jump\t// in\n    tag_118:\n        /* \"Dcoffer/ERC721A/test.sol\":5193:5351  interfaceId == type(IERC721).interfaceId ||... */\n    tag_117:\n        /* \"Dcoffer/ERC721A/test.sol\":5173:5351  return... */\n      swap1\n      pop\n        /* \"Dcoffer/ERC721A/test.sol\":5054:5359  function supportsInterface(bytes4 interfaceId) public view virtual override(ERC165, IERC165) returns (bool) {... */\n      swap2\n      swap1\n      pop\n      jump\t// out\n        /* \"Dcoffer/ERC721A/test.sol\":8170:8270  function name() public view virtual override returns (string memory) {... */\n    tag_35:\n        /* \"Dcoffer/ERC721A/test.sol\":8224:8237  string memory */\n      0x60\n        /* \"Dcoffer/ERC721A/test.sol\":8257:8262  _name */\n      0x07\n        /* \"Dcoffer/ERC721A/test.sol\":8250:8262  return _name */\n      dup1\n      sload\n      tag_121\n      swap1\n      tag_122\n      jump\t// in\n    tag_121:\n      dup1\n      0x1f\n      add\n      0x20\n      dup1\n      swap2\n      div\n      mul\n      0x20\n      add\n      mload(0x40)\n      swap1\n      dup2\n      add\n      0x40\n      mstore\n      dup1\n      swap3\n      swap2\n      swap1\n      dup2\n      dup2\n      mstore\n      0x20\n      add\n      dup3\n      dup1\n      sload\n      tag_123\n      swap1\n      tag_122\n      jump\t// in\n    tag_123:\n      dup1\n      iszero\n      tag_124\n      jumpi\n      dup1\n      0x1f\n      lt\n      tag_125\n      jumpi\n      0x0100\n      dup1\n      dup4\n      sload\n      div\n      mul\n      dup4\n      mstore\n      swap2\n      0x20\n      add\n      swap2\n      jump(tag_124)\n    tag_125:\n      dup3\n      add\n      swap2\n      swap1\n      0x00\n      mstore\n      keccak256(0x00, 0x20)\n      swap1\n    tag_126:\n      dup2\n      sload\n      dup2\n      mstore\n      swap1\n      0x01\n      add\n      swap1\n      0x20\n      add\n      dup1\n      dup4\n      gt\n      tag_126\n      jumpi\n      dup3\n      swap1\n      sub\n      0x1f\n      and\n      dup3\n      add\n      swap2\n    tag_124:\n      pop\n      pop\n      pop\n      pop\n      pop\n      swap1\n      pop\n        /* \"Dcoffer/ERC721A/test.sol\":8170:8270  function name() public view virtual override returns (string memory) {... */\n      swap1\n      jump\t// out\n        /* \"Dcoffer/ERC721A/test.sol\":9765:9969  function getApproved(uint256 tokenId) public view override returns (address) {... */\n    tag_41:\n        /* \"Dcoffer/ERC721A/test.sol\":9833:9840  address */\n      0x00\n        /* \"Dcoffer/ERC721A/test.sol\":9858:9874  _exists(tokenId) */\n      tag_128\n        /* \"Dcoffer/ERC721A/test.sol\":9866:9873  tokenId */\n      dup3\n        /* \"Dcoffer/ERC721A/test.sol\":9858:9865  _exists */\n      tag_129\n        /* \"Dcoffer/ERC721A/test.sol\":9858:9874  _exists(tokenId) */\n      jump\t// in\n    tag_128:\n        /* \"Dcoffer/ERC721A/test.sol\":9853:9917  if (!_exists(tokenId)) revert ApprovalQueryForNonexistentToken() */\n      tag_130\n      jumpi\n        /* \"Dcoffer/ERC721A/test.sol\":9883:9917  ApprovalQueryForNonexistentToken() */\n      mload(0x40)\n      0xcf4700e400000000000000000000000000000000000000000000000000000000\n      dup2\n      mstore\n      0x04\n      add\n      mload(0x40)\n      dup1\n      swap2\n      sub\n      swap1\n      revert\n        /* \"Dcoffer/ERC721A/test.sol\":9853:9917  if (!_exists(tokenId)) revert ApprovalQueryForNonexistentToken() */\n    tag_130:\n        /* \"Dcoffer/ERC721A/test.sol\":9937:9952  _tokenApprovals */\n      0x0b\n        /* \"Dcoffer/ERC721A/test.sol\":9937:9961  _tokenApprovals[tokenId] */\n      0x00\n        /* \"Dcoffer/ERC721A/test.sol\":9953:9960  tokenId */\n      dup4\n        /* \"Dcoffer/ERC721A/test.sol\":9937:9961  _tokenApprovals[tokenId] */\n      dup2\n      mstore\n      0x20\n      add\n      swap1\n      dup2\n      mstore\n      0x20\n      add\n      0x00\n      keccak256\n      0x00\n      swap1\n      sload\n      swap1\n      0x0100\n      exp\n      swap1\n      div\n      0xffffffffffffffffffffffffffffffffffffffff\n      and\n        /* \"Dcoffer/ERC721A/test.sol\":9930:9961  return _tokenApprovals[tokenId] */\n      swap1\n      pop\n        /* \"Dcoffer/ERC721A/test.sol\":9765:9969  function getApproved(uint256 tokenId) public view override returns (address) {... */\n      swap2\n      swap1\n      pop\n      jump\t// out\n        /* \"Dcoffer/ERC721A/test.sol\":9327:9699  function approve(address to, uint256 tokenId) public override {... */\n    tag_47:\n        /* \"Dcoffer/ERC721A/test.sol\":9400:9413  address owner */\n      0x00\n        /* \"Dcoffer/ERC721A/test.sol\":9416:9440  ERC721A.ownerOf(tokenId) */\n      tag_132\n        /* \"Dcoffer/ERC721A/test.sol\":9432:9439  tokenId */\n      dup3\n        /* \"Dcoffer/ERC721A/test.sol\":9416:9431  ERC721A.ownerOf */\n      tag_71\n        /* \"Dcoffer/ERC721A/test.sol\":9416:9440  ERC721A.ownerOf(tokenId) */\n      jump\t// in\n    tag_132:\n        /* \"Dcoffer/ERC721A/test.sol\":9400:9440  address owner = ERC721A.ownerOf(tokenId) */\n      swap1\n      pop\n        /* \"Dcoffer/ERC721A/test.sol\":9461:9466  owner */\n      dup1\n        /* \"Dcoffer/ERC721A/test.sol\":9455:9466  to == owner */\n      0xffffffffffffffffffffffffffffffffffffffff\n      and\n        /* \"Dcoffer/ERC721A/test.sol\":9455:9457  to */\n      dup4\n        /* \"Dcoffer/ERC721A/test.sol\":9455:9466  to == owner */\n      0xffffffffffffffffffffffffffffffffffffffff\n      and\n      sub\n        /* \"Dcoffer/ERC721A/test.sol\":9451:9499  if (to == owner) revert ApprovalToCurrentOwner() */\n      tag_133\n      jumpi\n        /* \"Dcoffer/ERC721A/test.sol\":9475:9499  ApprovalToCurrentOwner() */\n      mload(0x40)\n      0x943f7b8c00000000000000000000000000000000000000000000000000000000\n      dup2\n      mstore\n      0x04\n      add\n      mload(0x40)\n      dup1\n      swap2\n      sub\n      swap1\n      revert\n        /* \"Dcoffer/ERC721A/test.sol\":9451:9499  if (to == owner) revert ApprovalToCurrentOwner() */\n    tag_133:\n        /* \"Dcoffer/ERC721A/test.sol\":9532:9537  owner */\n      dup1\n        /* \"Dcoffer/ERC721A/test.sol\":9516:9537  _msgSender() != owner */\n      0xffffffffffffffffffffffffffffffffffffffff\n      and\n        /* \"Dcoffer/ERC721A/test.sol\":9516:9528  _msgSender() */\n      tag_134\n        /* \"Dcoffer/ERC721A/test.sol\":9516:9526  _msgSender */\n      tag_135\n        /* \"Dcoffer/ERC721A/test.sol\":9516:9528  _msgSender() */\n      jump\t// in\n    tag_134:\n        /* \"Dcoffer/ERC721A/test.sol\":9516:9537  _msgSender() != owner */\n      0xffffffffffffffffffffffffffffffffffffffff\n      and\n      eq\n        /* \"Dcoffer/ERC721A/test.sol\":9512:9651  if (_msgSender() != owner) if(!isApprovedForAll(owner, _msgSender())) {... */\n      tag_136\n      jumpi\n        /* \"Dcoffer/ERC721A/test.sol\":9543:9580  isApprovedForAll(owner, _msgSender()) */\n      tag_137\n        /* \"Dcoffer/ERC721A/test.sol\":9560:9565  owner */\n      dup2\n        /* \"Dcoffer/ERC721A/test.sol\":9567:9579  _msgSender() */\n      tag_138\n        /* \"Dcoffer/ERC721A/test.sol\":9567:9577  _msgSender */\n      tag_135\n        /* \"Dcoffer/ERC721A/test.sol\":9567:9579  _msgSender() */\n      jump\t// in\n    tag_138:\n        /* \"Dcoffer/ERC721A/test.sol\":9543:9559  isApprovedForAll */\n      tag_109\n        /* \"Dcoffer/ERC721A/test.sol\":9543:9580  isApprovedForAll(owner, _msgSender()) */\n      jump\t// in\n    tag_137:\n        /* \"Dcoffer/ERC721A/test.sol\":9539:9651  if(!isApprovedForAll(owner, _msgSender())) {... */\n      tag_139\n      jumpi\n        /* \"Dcoffer/ERC721A/test.sol\":9604:9639  ApprovalCallerNotOwnerNorApproved() */\n      mload(0x40)\n      0xcfb3b94200000000000000000000000000000000000000000000000000000000\n      dup2\n      mstore\n      0x04\n      add\n      mload(0x40)\n      dup1\n      swap2\n      sub\n      swap1\n      revert\n        /* \"Dcoffer/ERC721A/test.sol\":9539:9651  if(!isApprovedForAll(owner, _msgSender())) {... */\n    tag_139:\n        /* \"Dcoffer/ERC721A/test.sol\":9512:9651  if (_msgSender() != owner) if(!isApprovedForAll(owner, _msgSender())) {... */\n    tag_136:\n        /* \"Dcoffer/ERC721A/test.sol\":9663:9691  _approve(to, tokenId, owner) */\n      tag_140\n        /* \"Dcoffer/ERC721A/test.sol\":9672:9674  to */\n      dup4\n        /* \"Dcoffer/ERC721A/test.sol\":9676:9683  tokenId */\n      dup4\n        /* \"Dcoffer/ERC721A/test.sol\":9685:9690  owner */\n      dup4\n        /* \"Dcoffer/ERC721A/test.sol\":9663:9671  _approve */\n      tag_141\n        /* \"Dcoffer/ERC721A/test.sol\":9663:9691  _approve(to, tokenId, owner) */\n      jump\t// in\n    tag_140:\n        /* \"Dcoffer/ERC721A/test.sol\":9389:9699  {... */\n      pop\n        /* \"Dcoffer/ERC721A/test.sol\":9327:9699  function approve(address to, uint256 tokenId) public override {... */\n      pop\n      pop\n      jump\t// out\n        /* \"Dcoffer/ERC721A/test.sol\":4120:4432  function totalSupply() public view override returns (uint256) {... */\n    tag_49:\n        /* \"Dcoffer/ERC721A/test.sol\":4173:4180  uint256 */\n      0x00\n        /* \"Dcoffer/ERC721A/test.sol\":4398:4413  _startTokenId() */\n      tag_143\n        /* \"Dcoffer/ERC721A/test.sol\":4398:4411  _startTokenId */\n      tag_144\n        /* \"Dcoffer/ERC721A/test.sol\":4398:4413  _startTokenId() */\n      jump\t// in\n    tag_143:\n        /* \"Dcoffer/ERC721A/test.sol\":4383:4395  _burnCounter */\n      sload(0x06)\n        /* \"Dcoffer/ERC721A/test.sol\":4367:4380  _currentIndex */\n      sload(0x04)\n        /* \"Dcoffer/ERC721A/test.sol\":4367:4395  _currentIndex - _burnCounter */\n      sub\n        /* \"Dcoffer/ERC721A/test.sol\":4367:4413  _currentIndex - _burnCounter - _startTokenId() */\n      sub\n        /* \"Dcoffer/ERC721A/test.sol\":4360:4413  return _currentIndex - _burnCounter - _startTokenId() */\n      swap1\n      pop\n        /* \"Dcoffer/ERC721A/test.sol\":4120:4432  function totalSupply() public view override returns (uint256) {... */\n      swap1\n      jump\t// out\n        /* \"Dcoffer/ERC721A/test.sol\":10630:10800  function transferFrom(... */\n    tag_55:\n        /* \"Dcoffer/ERC721A/test.sol\":10764:10792  _transfer(from, to, tokenId) */\n      tag_146\n        /* \"Dcoffer/ERC721A/test.sol\":10774:10778  from */\n      dup4\n        /* \"Dcoffer/ERC721A/test.sol\":10780:10782  to */\n      dup4\n        /* \"Dcoffer/ERC721A/test.sol\":10784:10791  tokenId */\n      dup4\n        /* \"Dcoffer/ERC721A/test.sol\":10764:10773  _transfer */\n      tag_147\n        /* \"Dcoffer/ERC721A/test.sol\":10764:10792  _transfer(from, to, tokenId) */\n      jump\t// in\n    tag_146:\n        /* \"Dcoffer/ERC721A/test.sol\":10630:10800  function transferFrom(... */\n      pop\n      pop\n      pop\n      jump\t// out\n        /* \"Dcoffer/ERC721A/test.sol\":1174:1201  uint256 public _DCFperBlock */\n    tag_57:\n      sload(0x01)\n      dup2\n      jump\t// out\n        /* \"Dcoffer/ERC721A/test.sol\":10871:11056  function safeTransferFrom(... */\n    tag_61:\n        /* \"Dcoffer/ERC721A/test.sol\":11009:11048  safeTransferFrom(from, to, tokenId, '') */\n      tag_149\n        /* \"Dcoffer/ERC721A/test.sol\":11026:11030  from */\n      dup4\n        /* \"Dcoffer/ERC721A/test.sol\":11032:11034  to */\n      dup4\n        /* \"Dcoffer/ERC721A/test.sol\":11036:11043  tokenId */\n      dup4\n        /* \"Dcoffer/ERC721A/test.sol\":11009:11048  safeTransferFrom(from, to, tokenId, '') */\n      mload(0x40)\n      dup1\n      0x20\n      add\n      0x40\n      mstore\n      dup1\n      0x00\n      dup2\n      mstore\n      pop\n        /* \"Dcoffer/ERC721A/test.sol\":11009:11025  safeTransferFrom */\n      tag_94\n        /* \"Dcoffer/ERC721A/test.sol\":11009:11048  safeTransferFrom(from, to, tokenId, '') */\n      jump\t// in\n    tag_149:\n        /* \"Dcoffer/ERC721A/test.sol\":10871:11056  function safeTransferFrom(... */\n      pop\n      pop\n      pop\n      jump\t// out\n        /* \"Dcoffer/ERC721A/test.sol\":3242:3492  function blockStatus (uint256 _BlockNumber)public view returns (uint256){... */\n    tag_64:\n        /* \"Dcoffer/ERC721A/test.sol\":3306:3313  uint256 */\n      0x00\n        /* \"Dcoffer/ERC721A/test.sol\":3325:3334  uint256 a */\n      dup1\n        /* \"Dcoffer/ERC721A/test.sol\":3337:3359  _DCFperBlock.mul(1e18) */\n      tag_151\n        /* \"Dcoffer/ERC721A/test.sol\":3354:3358  1e18 */\n      0x0de0b6b3a7640000\n        /* \"Dcoffer/ERC721A/test.sol\":3337:3349  _DCFperBlock */\n      sload(0x01)\n        /* \"Dcoffer/ERC721A/test.sol\":3337:3353  _DCFperBlock.mul */\n      tag_152\n      swap1\n        /* \"Dcoffer/ERC721A/test.sol\":3337:3359  _DCFperBlock.mul(1e18) */\n      swap2\n      swap1\n      0xffffffff\n      and\n      jump\t// in\n    tag_151:\n        /* \"Dcoffer/ERC721A/test.sol\":3325:3359  uint256 a = _DCFperBlock.mul(1e18) */\n      swap1\n      pop\n        /* \"Dcoffer/ERC721A/test.sol\":3373:3382  uint256 b */\n      0x00\n        /* \"Dcoffer/ERC721A/test.sol\":3385:3430  _BlockNumber.mul(1e18).div(_startBlockNumber) */\n      tag_153\n        /* \"Dcoffer/ERC721A/test.sol\":3412:3429  _startBlockNumber */\n      sload(0x02)\n        /* \"Dcoffer/ERC721A/test.sol\":3385:3407  _BlockNumber.mul(1e18) */\n      tag_154\n        /* \"Dcoffer/ERC721A/test.sol\":3402:3406  1e18 */\n      0x0de0b6b3a7640000\n        /* \"Dcoffer/ERC721A/test.sol\":3385:3397  _BlockNumber */\n      dup8\n        /* \"Dcoffer/ERC721A/test.sol\":3385:3401  _BlockNumber.mul */\n      tag_152\n      swap1\n        /* \"Dcoffer/ERC721A/test.sol\":3385:3407  _BlockNumber.mul(1e18) */\n      swap2\n      swap1\n      0xffffffff\n      and\n      jump\t// in\n    tag_154:\n        /* \"Dcoffer/ERC721A/test.sol\":3385:3411  _BlockNumber.mul(1e18).div */\n      tag_155\n      swap1\n        /* \"Dcoffer/ERC721A/test.sol\":3385:3430  _BlockNumber.mul(1e18).div(_startBlockNumber) */\n      swap2\n      swap1\n      0xffffffff\n      and\n      jump\t// in\n    tag_153:\n        /* \"Dcoffer/ERC721A/test.sol\":3373:3430  uint256 b = _BlockNumber.mul(1e18).div(_startBlockNumber) */\n      swap1\n      pop\n        /* \"Dcoffer/ERC721A/test.sol\":3441:3450  uint256 c */\n      0x00\n        /* \"Dcoffer/ERC721A/test.sol\":3453:3461  a.div(b) */\n      tag_156\n        /* \"Dcoffer/ERC721A/test.sol\":3459:3460  b */\n      dup3\n        /* \"Dcoffer/ERC721A/test.sol\":3453:3454  a */\n      dup5\n        /* \"Dcoffer/ERC721A/test.sol\":3453:3458  a.div */\n      tag_155\n      swap1\n        /* \"Dcoffer/ERC721A/test.sol\":3453:3461  a.div(b) */\n      swap2\n      swap1\n      0xffffffff\n      and\n      jump\t// in\n    tag_156:\n        /* \"Dcoffer/ERC721A/test.sol\":3441:3461  uint256 c = a.div(b) */\n      swap1\n      pop\n        /* \"Dcoffer/ERC721A/test.sol\":3479:3480  c */\n      dup1\n        /* \"Dcoffer/ERC721A/test.sol\":3472:3480  return c */\n      swap4\n      pop\n      pop\n      pop\n      pop\n        /* \"Dcoffer/ERC721A/test.sol\":3242:3492  function blockStatus (uint256 _BlockNumber)public view returns (uint256){... */\n      swap2\n      swap1\n      pop\n      jump\t// out\n        /* \"Dcoffer/ERC721A/test.sol\":1251:1277  uint256 public _totalPower */\n    tag_67:\n      sload(0x03)\n      dup2\n      jump\t// out\n        /* \"Dcoffer/ERC721A/test.sol\":7978:8103  function ownerOf(uint256 tokenId) public view override returns (address) {... */\n    tag_71:\n        /* \"Dcoffer/ERC721A/test.sol\":8042:8049  address */\n      0x00\n        /* \"Dcoffer/ERC721A/test.sol\":8069:8090  _ownershipOf(tokenId) */\n      tag_158\n        /* \"Dcoffer/ERC721A/test.sol\":8082:8089  tokenId */\n      dup3\n        /* \"Dcoffer/ERC721A/test.sol\":8069:8081  _ownershipOf */\n      tag_159\n        /* \"Dcoffer/ERC721A/test.sol\":8069:8090  _ownershipOf(tokenId) */\n      jump\t// in\n    tag_158:\n        /* \"Dcoffer/ERC721A/test.sol\":8069:8095  _ownershipOf(tokenId).addr */\n      0x00\n      add\n      mload\n        /* \"Dcoffer/ERC721A/test.sol\":8062:8095  return _ownershipOf(tokenId).addr */\n      swap1\n      pop\n        /* \"Dcoffer/ERC721A/test.sol\":7978:8103  function ownerOf(uint256 tokenId) public view override returns (address) {... */\n      swap2\n      swap1\n      pop\n      jump\t// out\n        /* \"Dcoffer/ERC721A/test.sol\":5423:5629  function balanceOf(address owner) public view override returns (uint256) {... */\n    tag_76:\n        /* \"Dcoffer/ERC721A/test.sol\":5487:5494  uint256 */\n      0x00\n        /* \"Dcoffer/ERC721A/test.sol\":5528:5529  0 */\n      dup1\n        /* \"Dcoffer/ERC721A/test.sol\":5511:5530  owner == address(0) */\n      0xffffffffffffffffffffffffffffffffffffffff\n      and\n        /* \"Dcoffer/ERC721A/test.sol\":5511:5516  owner */\n      dup3\n        /* \"Dcoffer/ERC721A/test.sol\":5511:5530  owner == address(0) */\n      0xffffffffffffffffffffffffffffffffffffffff\n      and\n      sub\n        /* \"Dcoffer/ERC721A/test.sol\":5507:5567  if (owner == address(0)) revert BalanceQueryForZeroAddress() */\n      tag_161\n      jumpi\n        /* \"Dcoffer/ERC721A/test.sol\":5539:5567  BalanceQueryForZeroAddress() */\n      mload(0x40)\n      0x8f4eb60400000000000000000000000000000000000000000000000000000000\n      dup2\n      mstore\n      0x04\n      add\n      mload(0x40)\n      dup1\n      swap2\n      sub\n      swap1\n      revert\n        /* \"Dcoffer/ERC721A/test.sol\":5507:5567  if (owner == address(0)) revert BalanceQueryForZeroAddress() */\n    tag_161:\n        /* \"Dcoffer/ERC721A/test.sol\":5593:5605  _addressData */\n      0x0a\n        /* \"Dcoffer/ERC721A/test.sol\":5593:5612  _addressData[owner] */\n      0x00\n        /* \"Dcoffer/ERC721A/test.sol\":5606:5611  owner */\n      dup4\n        /* \"Dcoffer/ERC721A/test.sol\":5593:5612  _addressData[owner] */\n      0xffffffffffffffffffffffffffffffffffffffff\n      and\n      0xffffffffffffffffffffffffffffffffffffffff\n      and\n      dup2\n      mstore\n      0x20\n      add\n      swap1\n      dup2\n      mstore\n      0x20\n      add\n      0x00\n      keccak256\n        /* \"Dcoffer/ERC721A/test.sol\":5593:5620  _addressData[owner].balance */\n      0x00\n      add\n      0x00\n      swap1\n      sload\n      swap1\n      0x0100\n      exp\n      swap1\n      div\n      0xffffffffffffffff\n      and\n        /* \"Dcoffer/ERC721A/test.sol\":5585:5621  uint256(_addressData[owner].balance) */\n      0xffffffffffffffff\n      and\n        /* \"Dcoffer/ERC721A/test.sol\":5578:5621  return uint256(_addressData[owner].balance) */\n      swap1\n      pop\n        /* \"Dcoffer/ERC721A/test.sol\":5423:5629  function balanceOf(address owner) public view override returns (uint256) {... */\n      swap2\n      swap1\n      pop\n      jump\t// out\n        /* \"Dcoffer/ERC721A/test.sol\":1210:1242  uint256 public _startBlockNumber */\n    tag_79:\n      sload(0x02)\n      dup2\n      jump\t// out\n        /* \"Dcoffer/ERC721A/test.sol\":8339:8443  function symbol() public view virtual override returns (string memory) {... */\n    tag_82:\n        /* \"Dcoffer/ERC721A/test.sol\":8395:8408  string memory */\n      0x60\n        /* \"Dcoffer/ERC721A/test.sol\":8428:8435  _symbol */\n      0x08\n        /* \"Dcoffer/ERC721A/test.sol\":8421:8435  return _symbol */\n      dup1\n      sload\n      tag_163\n      swap1\n      tag_122\n      jump\t// in\n    tag_163:\n      dup1\n      0x1f\n      add\n      0x20\n      dup1\n      swap2\n      div\n      mul\n      0x20\n      add\n      mload(0x40)\n      swap1\n      dup2\n      add\n      0x40\n      mstore\n      dup1\n      swap3\n      swap2\n      swap1\n      dup2\n      dup2\n      mstore\n      0x20\n      add\n      dup3\n      dup1\n      sload\n      tag_164\n      swap1\n      tag_122\n      jump\t// in\n    tag_164:\n      dup1\n      iszero\n      tag_165\n      jumpi\n      dup1\n      0x1f\n      lt\n      tag_166\n      jumpi\n      0x0100\n      dup1\n      dup4\n      sload\n      div\n      mul\n      dup4\n      mstore\n      swap2\n      0x20\n      add\n      swap2\n      jump(tag_165)\n    tag_166:\n      dup3\n      add\n      swap2\n      swap1\n      0x00\n      mstore\n      keccak256(0x00, 0x20)\n      swap1\n    tag_167:\n      dup2\n      sload\n      dup2\n      mstore\n      swap1\n      0x01\n      add\n      swap1\n      0x20\n      add\n      dup1\n      dup4\n      gt\n      tag_167\n      jumpi\n      dup3\n      swap1\n      sub\n      0x1f\n      and\n      dup3\n      add\n      swap2\n    tag_165:\n      pop\n      pop\n      pop\n      pop\n      pop\n      swap1\n      pop\n        /* \"Dcoffer/ERC721A/test.sol\":8339:8443  function symbol() public view virtual override returns (string memory) {... */\n      swap1\n      jump\t// out\n        /* \"Dcoffer/ERC721A/test.sol\":1145:1165  uint256 public _salt */\n    tag_85:\n      sload(0x00)\n      dup2\n      jump\t// out\n        /* \"Dcoffer/ERC721A/test.sol\":10041:10328  function setApprovalForAll(address operator, bool approved) public virtual override {... */\n    tag_90:\n        /* \"Dcoffer/ERC721A/test.sol\":10152:10164  _msgSender() */\n      tag_169\n        /* \"Dcoffer/ERC721A/test.sol\":10152:10162  _msgSender */\n      tag_135\n        /* \"Dcoffer/ERC721A/test.sol\":10152:10164  _msgSender() */\n      jump\t// in\n    tag_169:\n        /* \"Dcoffer/ERC721A/test.sol\":10140:10164  operator == _msgSender() */\n      0xffffffffffffffffffffffffffffffffffffffff\n      and\n        /* \"Dcoffer/ERC721A/test.sol\":10140:10148  operator */\n      dup3\n        /* \"Dcoffer/ERC721A/test.sol\":10140:10164  operator == _msgSender() */\n      0xffffffffffffffffffffffffffffffffffffffff\n      and\n      sub\n        /* \"Dcoffer/ERC721A/test.sol\":10136:10190  if (operator == _msgSender()) revert ApproveToCaller() */\n      tag_170\n      jumpi\n        /* \"Dcoffer/ERC721A/test.sol\":10173:10190  ApproveToCaller() */\n      mload(0x40)\n      0xb06307db00000000000000000000000000000000000000000000000000000000\n      dup2\n      mstore\n      0x04\n      add\n      mload(0x40)\n      dup1\n      swap2\n      sub\n      swap1\n      revert\n        /* \"Dcoffer/ERC721A/test.sol\":10136:10190  if (operator == _msgSender()) revert ApproveToCaller() */\n    tag_170:\n        /* \"Dcoffer/ERC721A/test.sol\":10248:10256  approved */\n      dup1\n        /* \"Dcoffer/ERC721A/test.sol\":10203:10221  _operatorApprovals */\n      0x0c\n        /* \"Dcoffer/ERC721A/test.sol\":10203:10235  _operatorApprovals[_msgSender()] */\n      0x00\n        /* \"Dcoffer/ERC721A/test.sol\":10222:10234  _msgSender() */\n      tag_171\n        /* \"Dcoffer/ERC721A/test.sol\":10222:10232  _msgSender */\n      tag_135\n        /* \"Dcoffer/ERC721A/test.sol\":10222:10234  _msgSender() */\n      jump\t// in\n    tag_171:\n        /* \"Dcoffer/ERC721A/test.sol\":10203:10235  _operatorApprovals[_msgSender()] */\n      0xffffffffffffffffffffffffffffffffffffffff\n      and\n      0xffffffffffffffffffffffffffffffffffffffff\n      and\n      dup2\n      mstore\n      0x20\n      add\n      swap1\n      dup2\n      mstore\n      0x20\n      add\n      0x00\n      keccak256\n        /* \"Dcoffer/ERC721A/test.sol\":10203:10245  _operatorApprovals[_msgSender()][operator] */\n      0x00\n        /* \"Dcoffer/ERC721A/test.sol\":10236:10244  operator */\n      dup5\n        /* \"Dcoffer/ERC721A/test.sol\":10203:10245  _operatorApprovals[_msgSender()][operator] */\n      0xffffffffffffffffffffffffffffffffffffffff\n      and\n      0xffffffffffffffffffffffffffffffffffffffff\n      and\n      dup2\n      mstore\n      0x20\n      add\n      swap1\n      dup2\n      mstore\n      0x20\n      add\n      0x00\n      keccak256\n      0x00\n        /* \"Dcoffer/ERC721A/test.sol\":10203:10256  _operatorApprovals[_msgSender()][operator] = approved */\n      0x0100\n      exp\n      dup2\n      sload\n      dup2\n      0xff\n      mul\n      not\n      and\n      swap1\n      dup4\n      iszero\n      iszero\n      mul\n      or\n      swap1\n      sstore\n      pop\n        /* \"Dcoffer/ERC721A/test.sol\":10301:10309  operator */\n      dup2\n        /* \"Dcoffer/ERC721A/test.sol\":10272:10320  ApprovalForAll(_msgSender(), operator, approved) */\n      0xffffffffffffffffffffffffffffffffffffffff\n      and\n        /* \"Dcoffer/ERC721A/test.sol\":10287:10299  _msgSender() */\n      tag_172\n        /* \"Dcoffer/ERC721A/test.sol\":10287:10297  _msgSender */\n      tag_135\n        /* \"Dcoffer/ERC721A/test.sol\":10287:10299  _msgSender() */\n      jump\t// in\n    tag_172:\n        /* \"Dcoffer/ERC721A/test.sol\":10272:10320  ApprovalForAll(_msgSender(), operator, approved) */\n      0xffffffffffffffffffffffffffffffffffffffff\n      and\n      0x17307eab39ab6107e8899845ad3d59bd9653f200f220920489ca2b5937696c31\n        /* \"Dcoffer/ERC721A/test.sol\":10311:10319  approved */\n      dup4\n        /* \"Dcoffer/ERC721A/test.sol\":10272:10320  ApprovalForAll(_msgSender(), operator, approved) */\n      mload(0x40)\n      tag_173\n      swap2\n      swap1\n      tag_33\n      jump\t// in\n    tag_173:\n      mload(0x40)\n      dup1\n      swap2\n      sub\n      swap1\n      log3\n        /* \"Dcoffer/ERC721A/test.sol\":10041:10328  function setApprovalForAll(address operator, bool approved) public virtual override {... */\n      pop\n      pop\n      jump\t// out\n        /* \"Dcoffer/ERC721A/test.sol\":11127:11497  function safeTransferFrom(... */\n    tag_94:\n        /* \"Dcoffer/ERC721A/test.sol\":11294:11322  _transfer(from, to, tokenId) */\n      tag_175\n        /* \"Dcoffer/ERC721A/test.sol\":11304:11308  from */\n      dup5\n        /* \"Dcoffer/ERC721A/test.sol\":11310:11312  to */\n      dup5\n        /* \"Dcoffer/ERC721A/test.sol\":11314:11321  tokenId */\n      dup5\n        /* \"Dcoffer/ERC721A/test.sol\":11294:11303  _transfer */\n      tag_147\n        /* \"Dcoffer/ERC721A/test.sol\":11294:11322  _transfer(from, to, tokenId) */\n      jump\t// in\n    tag_175:\n        /* \"Dcoffer/ERC721A/test.sol\":11337:11352  to.isContract() */\n      tag_176\n        /* \"Dcoffer/ERC721A/test.sol\":11337:11339  to */\n      dup4\n        /* \"Dcoffer/ERC721A/test.sol\":11337:11350  to.isContract */\n      0xffffffffffffffffffffffffffffffffffffffff\n      and\n      tag_177\n        /* \"Dcoffer/ERC721A/test.sol\":11337:11352  to.isContract() */\n      jump\t// in\n    tag_176:\n        /* \"Dcoffer/ERC721A/test.sol\":11333:11490  if (to.isContract()) if(!_checkContractOnERC721Received(from, to, tokenId, _data)) {... */\n      iszero\n      tag_178\n      jumpi\n        /* \"Dcoffer/ERC721A/test.sol\":11358:11414  _checkContractOnERC721Received(from, to, tokenId, _data) */\n      tag_179\n        /* \"Dcoffer/ERC721A/test.sol\":11389:11393  from */\n      dup5\n        /* \"Dcoffer/ERC721A/test.sol\":11395:11397  to */\n      dup5\n        /* \"Dcoffer/ERC721A/test.sol\":11399:11406  tokenId */\n      dup5\n        /* \"Dcoffer/ERC721A/test.sol\":11408:11413  _data */\n      dup5\n        /* \"Dcoffer/ERC721A/test.sol\":11358:11388  _checkContractOnERC721Received */\n      tag_180\n        /* \"Dcoffer/ERC721A/test.sol\":11358:11414  _checkContractOnERC721Received(from, to, tokenId, _data) */\n      jump\t// in\n    tag_179:\n        /* \"Dcoffer/ERC721A/test.sol\":11354:11490  if(!_checkContractOnERC721Received(from, to, tokenId, _data)) {... */\n      tag_181\n      jumpi\n        /* \"Dcoffer/ERC721A/test.sol\":11438:11478  TransferToNonERC721ReceiverImplementer() */\n      mload(0x40)\n      0xd1a57ed600000000000000000000000000000000000000000000000000000000\n      dup2\n      mstore\n      0x04\n      add\n      mload(0x40)\n      dup1\n      swap2\n      sub\n      swap1\n      revert\n        /* \"Dcoffer/ERC721A/test.sol\":11354:11490  if(!_checkContractOnERC721Received(from, to, tokenId, _data)) {... */\n    tag_181:\n        /* \"Dcoffer/ERC721A/test.sol\":11333:11490  if (to.isContract()) if(!_checkContractOnERC721Received(from, to, tokenId, _data)) {... */\n    tag_178:\n        /* \"Dcoffer/ERC721A/test.sol\":11127:11497  function safeTransferFrom(... */\n      pop\n      pop\n      pop\n      pop\n      jump\t// out\n        /* \"Dcoffer/ERC721A/test.sol\":2775:3219  function MineStatus(address user)public view returns(uint256){... */\n    tag_97:\n        /* \"Dcoffer/ERC721A/test.sol\":2828:2835  uint256 */\n      0x00\n        /* \"Dcoffer/ERC721A/test.sol\":2847:2865  uint256 difference */\n      dup1\n        /* \"Dcoffer/ERC721A/test.sol\":2868:2911  block.number.sub(_mineInfo[user][1]).add(1) */\n      tag_183\n        /* \"Dcoffer/ERC721A/test.sol\":2909:2910  1 */\n      0x01\n        /* \"Dcoffer/ERC721A/test.sol\":2868:2904  block.number.sub(_mineInfo[user][1]) */\n      tag_184\n        /* \"Dcoffer/ERC721A/test.sol\":2885:2894  _mineInfo */\n      0x0d\n        /* \"Dcoffer/ERC721A/test.sol\":2885:2900  _mineInfo[user] */\n      0x00\n        /* \"Dcoffer/ERC721A/test.sol\":2895:2899  user */\n      dup8\n        /* \"Dcoffer/ERC721A/test.sol\":2885:2900  _mineInfo[user] */\n      0xffffffffffffffffffffffffffffffffffffffff\n      and\n      0xffffffffffffffffffffffffffffffffffffffff\n      and\n      dup2\n      mstore\n      0x20\n      add\n      swap1\n      dup2\n      mstore\n      0x20\n      add\n      0x00\n      keccak256\n        /* \"Dcoffer/ERC721A/test.sol\":2885:2903  _mineInfo[user][1] */\n      0x00\n        /* \"Dcoffer/ERC721A/test.sol\":2901:2902  1 */\n      0x01\n        /* \"Dcoffer/ERC721A/test.sol\":2885:2903  _mineInfo[user][1] */\n      dup2\n      mstore\n      0x20\n      add\n      swap1\n      dup2\n      mstore\n      0x20\n      add\n      0x00\n      keccak256\n      sload\n        /* \"Dcoffer/ERC721A/test.sol\":2868:2880  block.number */\n      number\n        /* \"Dcoffer/ERC721A/test.sol\":2868:2884  block.number.sub */\n      tag_185\n      swap1\n        /* \"Dcoffer/ERC721A/test.sol\":2868:2904  block.number.sub(_mineInfo[user][1]) */\n      swap2\n      swap1\n      0xffffffff\n      and\n      jump\t// in\n    tag_184:\n        /* \"Dcoffer/ERC721A/test.sol\":2868:2908  block.number.sub(_mineInfo[user][1]).add */\n      tag_186\n      swap1\n        /* \"Dcoffer/ERC721A/test.sol\":2868:2911  block.number.sub(_mineInfo[user][1]).add(1) */\n      swap2\n      swap1\n      0xffffffff\n      and\n      jump\t// in\n    tag_183:\n        /* \"Dcoffer/ERC721A/test.sol\":2847:2911  uint256 difference = block.number.sub(_mineInfo[user][1]).add(1) */\n      swap1\n      pop\n        /* \"Dcoffer/ERC721A/test.sol\":2922:2935  uint256 start */\n      0x00\n        /* \"Dcoffer/ERC721A/test.sol\":2938:2969  blockStatus(_mineInfo[user][1]) */\n      tag_187\n        /* \"Dcoffer/ERC721A/test.sol\":2950:2959  _mineInfo */\n      0x0d\n        /* \"Dcoffer/ERC721A/test.sol\":2950:2965  _mineInfo[user] */\n      0x00\n        /* \"Dcoffer/ERC721A/test.sol\":2960:2964  user */\n      dup7\n        /* \"Dcoffer/ERC721A/test.sol\":2950:2965  _mineInfo[user] */\n      0xffffffffffffffffffffffffffffffffffffffff\n      and\n      0xffffffffffffffffffffffffffffffffffffffff\n      and\n      dup2\n      mstore\n      0x20\n      add\n      swap1\n      dup2\n      mstore\n      0x20\n      add\n      0x00\n      keccak256\n        /* \"Dcoffer/ERC721A/test.sol\":2950:2968  _mineInfo[user][1] */\n      0x00\n        /* \"Dcoffer/ERC721A/test.sol\":2966:2967  1 */\n      0x01\n        /* \"Dcoffer/ERC721A/test.sol\":2950:2968  _mineInfo[user][1] */\n      dup2\n      mstore\n      0x20\n      add\n      swap1\n      dup2\n      mstore\n      0x20\n      add\n      0x00\n      keccak256\n      sload\n        /* \"Dcoffer/ERC721A/test.sol\":2938:2949  blockStatus */\n      tag_64\n        /* \"Dcoffer/ERC721A/test.sol\":2938:2969  blockStatus(_mineInfo[user][1]) */\n      jump\t// in\n    tag_187:\n        /* \"Dcoffer/ERC721A/test.sol\":2922:2969  uint256 start = blockStatus(_mineInfo[user][1]) */\n      swap1\n      pop\n        /* \"Dcoffer/ERC721A/test.sol\":2980:2991  uint256 end */\n      0x00\n        /* \"Dcoffer/ERC721A/test.sol\":2994:3019  blockStatus(block.number) */\n      tag_188\n        /* \"Dcoffer/ERC721A/test.sol\":3006:3018  block.number */\n      number\n        /* \"Dcoffer/ERC721A/test.sol\":2994:3005  blockStatus */\n      tag_64\n        /* \"Dcoffer/ERC721A/test.sol\":2994:3019  blockStatus(block.number) */\n      jump\t// in\n    tag_188:\n        /* \"Dcoffer/ERC721A/test.sol\":2980:3019  uint256 end = blockStatus(block.number) */\n      swap1\n      pop\n        /* \"Dcoffer/ERC721A/test.sol\":3030:3039  uint256 a */\n      0x00\n        /* \"Dcoffer/ERC721A/test.sol\":3042:3079  start.add(end).mul(difference).div(2) */\n      tag_189\n        /* \"Dcoffer/ERC721A/test.sol\":3077:3078  2 */\n      0x02\n        /* \"Dcoffer/ERC721A/test.sol\":3042:3072  start.add(end).mul(difference) */\n      tag_190\n        /* \"Dcoffer/ERC721A/test.sol\":3061:3071  difference */\n      dup7\n        /* \"Dcoffer/ERC721A/test.sol\":3042:3056  start.add(end) */\n      tag_191\n        /* \"Dcoffer/ERC721A/test.sol\":3052:3055  end */\n      dup7\n        /* \"Dcoffer/ERC721A/test.sol\":3042:3047  start */\n      dup9\n        /* \"Dcoffer/ERC721A/test.sol\":3042:3051  start.add */\n      tag_186\n      swap1\n        /* \"Dcoffer/ERC721A/test.sol\":3042:3056  start.add(end) */\n      swap2\n      swap1\n      0xffffffff\n      and\n      jump\t// in\n    tag_191:\n        /* \"Dcoffer/ERC721A/test.sol\":3042:3060  start.add(end).mul */\n      tag_152\n      swap1\n        /* \"Dcoffer/ERC721A/test.sol\":3042:3072  start.add(end).mul(difference) */\n      swap2\n      swap1\n      0xffffffff\n      and\n      jump\t// in\n    tag_190:\n        /* \"Dcoffer/ERC721A/test.sol\":3042:3076  start.add(end).mul(difference).div */\n      tag_155\n      swap1\n        /* \"Dcoffer/ERC721A/test.sol\":3042:3079  start.add(end).mul(difference).div(2) */\n      swap2\n      swap1\n      0xffffffff\n      and\n      jump\t// in\n    tag_189:\n        /* \"Dcoffer/ERC721A/test.sol\":3030:3079  uint256 a = start.add(end).mul(difference).div(2) */\n      swap1\n      pop\n        /* \"Dcoffer/ERC721A/test.sol\":3092:3107  uint dcf_amount */\n      0x00\n        /* \"Dcoffer/ERC721A/test.sol\":3110:3152  a.mul(_mineInfo[user][2]).div(_totalPower) */\n      tag_192\n        /* \"Dcoffer/ERC721A/test.sol\":3140:3151  _totalPower */\n      sload(0x03)\n        /* \"Dcoffer/ERC721A/test.sol\":3110:3135  a.mul(_mineInfo[user][2]) */\n      tag_193\n        /* \"Dcoffer/ERC721A/test.sol\":3116:3125  _mineInfo */\n      0x0d\n        /* \"Dcoffer/ERC721A/test.sol\":3116:3131  _mineInfo[user] */\n      0x00\n        /* \"Dcoffer/ERC721A/test.sol\":3126:3130  user */\n      dup12\n        /* \"Dcoffer/ERC721A/test.sol\":3116:3131  _mineInfo[user] */\n      0xffffffffffffffffffffffffffffffffffffffff\n      and\n      0xffffffffffffffffffffffffffffffffffffffff\n      and\n      dup2\n      mstore\n      0x20\n      add\n      swap1\n      dup2\n      mstore\n      0x20\n      add\n      0x00\n      keccak256\n        /* \"Dcoffer/ERC721A/test.sol\":3116:3134  _mineInfo[user][2] */\n      0x00\n        /* \"Dcoffer/ERC721A/test.sol\":3132:3133  2 */\n      0x02\n        /* \"Dcoffer/ERC721A/test.sol\":3116:3134  _mineInfo[user][2] */\n      dup2\n      mstore\n      0x20\n      add\n      swap1\n      dup2\n      mstore\n      0x20\n      add\n      0x00\n      keccak256\n      sload\n        /* \"Dcoffer/ERC721A/test.sol\":3110:3111  a */\n      dup6\n        /* \"Dcoffer/ERC721A/test.sol\":3110:3115  a.mul */\n      tag_152\n      swap1\n        /* \"Dcoffer/ERC721A/test.sol\":3110:3135  a.mul(_mineInfo[user][2]) */\n      swap2\n      swap1\n      0xffffffff\n      and\n      jump\t// in\n    tag_193:\n        /* \"Dcoffer/ERC721A/test.sol\":3110:3139  a.mul(_mineInfo[user][2]).div */\n      tag_155\n      swap1\n        /* \"Dcoffer/ERC721A/test.sol\":3110:3152  a.mul(_mineInfo[user][2]).div(_totalPower) */\n      swap2\n      swap1\n      0xffffffff\n      and\n      jump\t// in\n    tag_192:\n        /* \"Dcoffer/ERC721A/test.sol\":3092:3152  uint dcf_amount = a.mul(_mineInfo[user][2]).div(_totalPower) */\n      swap1\n      pop\n        /* \"Dcoffer/ERC721A/test.sol\":3170:3204  _mineInfo[user][3].add(dcf_amount) */\n      tag_194\n        /* \"Dcoffer/ERC721A/test.sol\":3193:3203  dcf_amount */\n      dup2\n        /* \"Dcoffer/ERC721A/test.sol\":3170:3179  _mineInfo */\n      0x0d\n        /* \"Dcoffer/ERC721A/test.sol\":3170:3185  _mineInfo[user] */\n      0x00\n        /* \"Dcoffer/ERC721A/test.sol\":3180:3184  user */\n      dup11\n        /* \"Dcoffer/ERC721A/test.sol\":3170:3185  _mineInfo[user] */\n      0xffffffffffffffffffffffffffffffffffffffff\n      and\n      0xffffffffffffffffffffffffffffffffffffffff\n      and\n      dup2\n      mstore\n      0x20\n      add\n      swap1\n      dup2\n      mstore\n      0x20\n      add\n      0x00\n      keccak256\n        /* \"Dcoffer/ERC721A/test.sol\":3170:3188  _mineInfo[user][3] */\n      0x00\n        /* \"Dcoffer/ERC721A/test.sol\":3186:3187  3 */\n      0x03\n        /* \"Dcoffer/ERC721A/test.sol\":3170:3188  _mineInfo[user][3] */\n      dup2\n      mstore\n      0x20\n      add\n      swap1\n      dup2\n      mstore\n      0x20\n      add\n      0x00\n      keccak256\n      sload\n        /* \"Dcoffer/ERC721A/test.sol\":3170:3192  _mineInfo[user][3].add */\n      tag_186\n      swap1\n        /* \"Dcoffer/ERC721A/test.sol\":3170:3204  _mineInfo[user][3].add(dcf_amount) */\n      swap2\n      swap1\n      0xffffffff\n      and\n      jump\t// in\n    tag_194:\n        /* \"Dcoffer/ERC721A/test.sol\":3163:3204  return _mineInfo[user][3].add(dcf_amount) */\n      swap6\n      pop\n      pop\n      pop\n      pop\n      pop\n      pop\n        /* \"Dcoffer/ERC721A/test.sol\":2775:3219  function MineStatus(address user)public view returns(uint256){... */\n      swap2\n      swap1\n      pop\n      jump\t// out\n        /* \"Dcoffer/ERC721A/test.sol\":8514:8832  function tokenURI(uint256 tokenId) public view virtual override returns (string memory) {... */\n    tag_101:\n        /* \"Dcoffer/ERC721A/test.sol\":8587:8600  string memory */\n      0x60\n        /* \"Dcoffer/ERC721A/test.sol\":8618:8634  _exists(tokenId) */\n      tag_196\n        /* \"Dcoffer/ERC721A/test.sol\":8626:8633  tokenId */\n      dup3\n        /* \"Dcoffer/ERC721A/test.sol\":8618:8625  _exists */\n      tag_129\n        /* \"Dcoffer/ERC721A/test.sol\":8618:8634  _exists(tokenId) */\n      jump\t// in\n    tag_196:\n        /* \"Dcoffer/ERC721A/test.sol\":8613:8672  if (!_exists(tokenId)) revert URIQueryForNonexistentToken() */\n      tag_197\n      jumpi\n        /* \"Dcoffer/ERC721A/test.sol\":8643:8672  URIQueryForNonexistentToken() */\n      mload(0x40)\n      0xa14c4b5000000000000000000000000000000000000000000000000000000000\n      dup2\n      mstore\n      0x04\n      add\n      mload(0x40)\n      dup1\n      swap2\n      sub\n      swap1\n      revert\n        /* \"Dcoffer/ERC721A/test.sol\":8613:8672  if (!_exists(tokenId)) revert URIQueryForNonexistentToken() */\n    tag_197:\n        /* \"Dcoffer/ERC721A/test.sol\":8685:8706  string memory baseURI */\n      0x00\n        /* \"Dcoffer/ERC721A/test.sol\":8709:8719  _baseURI() */\n      tag_198\n        /* \"Dcoffer/ERC721A/test.sol\":8709:8717  _baseURI */\n      tag_199\n        /* \"Dcoffer/ERC721A/test.sol\":8709:8719  _baseURI() */\n      jump\t// in\n    tag_198:\n        /* \"Dcoffer/ERC721A/test.sol\":8685:8719  string memory baseURI = _baseURI() */\n      swap1\n      pop\n        /* \"Dcoffer/ERC721A/test.sol\":8762:8763  0 */\n      0x00\n        /* \"Dcoffer/ERC721A/test.sol\":8743:8750  baseURI */\n      dup2\n        /* \"Dcoffer/ERC721A/test.sol\":8737:8758  bytes(baseURI).length */\n      mload\n        /* \"Dcoffer/ERC721A/test.sol\":8737:8763  bytes(baseURI).length != 0 */\n      sub\n        /* \"Dcoffer/ERC721A/test.sol\":8737:8824  bytes(baseURI).length != 0 ? string(abi.encodePacked(baseURI, tokenId.toString())) : '' */\n      tag_200\n      jumpi\n      mload(0x40)\n      dup1\n      0x20\n      add\n      0x40\n      mstore\n      dup1\n      0x00\n      dup2\n      mstore\n      pop\n      jump(tag_201)\n    tag_200:\n        /* \"Dcoffer/ERC721A/test.sol\":8790:8797  baseURI */\n      dup1\n        /* \"Dcoffer/ERC721A/test.sol\":8799:8817  tokenId.toString() */\n      tag_202\n        /* \"Dcoffer/ERC721A/test.sol\":8799:8806  tokenId */\n      dup5\n        /* \"Dcoffer/ERC721A/test.sol\":8799:8815  tokenId.toString */\n      tag_203\n        /* \"Dcoffer/ERC721A/test.sol\":8799:8817  tokenId.toString() */\n      jump\t// in\n    tag_202:\n        /* \"Dcoffer/ERC721A/test.sol\":8773:8818  abi.encodePacked(baseURI, tokenId.toString()) */\n      add(0x20, mload(0x40))\n      tag_204\n      swap3\n      swap2\n      swap1\n      tag_205\n      jump\t// in\n    tag_204:\n      mload(0x40)\n      0x20\n      dup2\n      dup4\n      sub\n      sub\n      dup2\n      mstore\n      swap1\n      0x40\n      mstore\n        /* \"Dcoffer/ERC721A/test.sol\":8737:8824  bytes(baseURI).length != 0 ? string(abi.encodePacked(baseURI, tokenId.toString())) : '' */\n    tag_201:\n        /* \"Dcoffer/ERC721A/test.sol\":8730:8824  return bytes(baseURI).length != 0 ? string(abi.encodePacked(baseURI, tokenId.toString())) : '' */\n      swap2\n      pop\n      pop\n        /* \"Dcoffer/ERC721A/test.sol\":8514:8832  function tokenURI(uint256 tokenId) public view virtual override returns (string memory) {... */\n      swap2\n      swap1\n      pop\n      jump\t// out\n        /* \"Dcoffer/ERC721A/test.sol\":4442:4606  function maxSupply() public view  returns (uint256) {       ... */\n    tag_104:\n        /* \"Dcoffer/ERC721A/test.sol\":4485:4492  uint256 */\n      0x00\n        /* \"Dcoffer/ERC721A/test.sol\":4572:4587  _startTokenId() */\n      tag_207\n        /* \"Dcoffer/ERC721A/test.sol\":4572:4585  _startTokenId */\n      tag_144\n        /* \"Dcoffer/ERC721A/test.sol\":4572:4587  _startTokenId() */\n      jump\t// in\n    tag_207:\n        /* \"Dcoffer/ERC721A/test.sol\":4557:4569  _burnCounter */\n      sload(0x06)\n        /* \"Dcoffer/ERC721A/test.sol\":4544:4554  _maxSupply */\n      sload(0x05)\n        /* \"Dcoffer/ERC721A/test.sol\":4544:4569  _maxSupply - _burnCounter */\n      sub\n        /* \"Dcoffer/ERC721A/test.sol\":4544:4587  _maxSupply - _burnCounter - _startTokenId() */\n      sub\n        /* \"Dcoffer/ERC721A/test.sol\":4537:4587  return _maxSupply - _burnCounter - _startTokenId() */\n      swap1\n      pop\n        /* \"Dcoffer/ERC721A/test.sol\":4442:4606  function maxSupply() public view  returns (uint256) {       ... */\n      swap1\n      jump\t// out\n        /* \"Dcoffer/ERC721A/test.sol\":10399:10563  function isApprovedForAll(address owner, address operator) public view virtual override returns (bool) {... */\n    tag_109:\n        /* \"Dcoffer/ERC721A/test.sol\":10496:10500  bool */\n      0x00\n        /* \"Dcoffer/ERC721A/test.sol\":10520:10538  _operatorApprovals */\n      0x0c\n        /* \"Dcoffer/ERC721A/test.sol\":10520:10545  _operatorApprovals[owner] */\n      0x00\n        /* \"Dcoffer/ERC721A/test.sol\":10539:10544  owner */\n      dup5\n        /* \"Dcoffer/ERC721A/test.sol\":10520:10545  _operatorApprovals[owner] */\n      0xffffffffffffffffffffffffffffffffffffffff\n      and\n      0xffffffffffffffffffffffffffffffffffffffff\n      and\n      dup2\n      mstore\n      0x20\n      add\n      swap1\n      dup2\n      mstore\n      0x20\n      add\n      0x00\n      keccak256\n        /* \"Dcoffer/ERC721A/test.sol\":10520:10555  _operatorApprovals[owner][operator] */\n      0x00\n        /* \"Dcoffer/ERC721A/test.sol\":10546:10554  operator */\n      dup4\n        /* \"Dcoffer/ERC721A/test.sol\":10520:10555  _operatorApprovals[owner][operator] */\n      0xffffffffffffffffffffffffffffffffffffffff\n      and\n      0xffffffffffffffffffffffffffffffffffffffff\n      and\n      dup2\n      mstore\n      0x20\n      add\n      swap1\n      dup2\n      mstore\n      0x20\n      add\n      0x00\n      keccak256\n      0x00\n      swap1\n      sload\n      swap1\n      0x0100\n      exp\n      swap1\n      div\n      0xff\n      and\n        /* \"Dcoffer/ERC721A/test.sol\":10513:10555  return _operatorApprovals[owner][operator] */\n      swap1\n      pop\n        /* \"Dcoffer/ERC721A/test.sol\":10399:10563  function isApprovedForAll(address owner, address operator) public view virtual override returns (bool) {... */\n      swap3\n      swap2\n      pop\n      pop\n      jump\t// out\n        /* \"Dcoffer/ERC721A/test.sol\":3502:3776  function DcofferPower (uint256 tokenId)public view returns(uint256){... */\n    tag_113:\n        /* \"Dcoffer/ERC721A/test.sol\":3561:3568  uint256 */\n      0x00\n        /* \"Dcoffer/ERC721A/test.sol\":3580:3591  uint _power */\n      dup1\n        /* \"Dcoffer/ERC721A/test.sol\":3594:3625  tokenId.mul(_salt).add(tokenId) */\n      tag_210\n        /* \"Dcoffer/ERC721A/test.sol\":3617:3624  tokenId */\n      dup4\n        /* \"Dcoffer/ERC721A/test.sol\":3594:3612  tokenId.mul(_salt) */\n      tag_211\n        /* \"Dcoffer/ERC721A/test.sol\":3606:3611  _salt */\n      sload(0x00)\n        /* \"Dcoffer/ERC721A/test.sol\":3594:3601  tokenId */\n      dup7\n        /* \"Dcoffer/ERC721A/test.sol\":3594:3605  tokenId.mul */\n      tag_152\n      swap1\n        /* \"Dcoffer/ERC721A/test.sol\":3594:3612  tokenId.mul(_salt) */\n      swap2\n      swap1\n      0xffffffff\n      and\n      jump\t// in\n    tag_211:\n        /* \"Dcoffer/ERC721A/test.sol\":3594:3616  tokenId.mul(_salt).add */\n      tag_186\n      swap1\n        /* \"Dcoffer/ERC721A/test.sol\":3594:3625  tokenId.mul(_salt).add(tokenId) */\n      swap2\n      swap1\n      0xffffffff\n      and\n      jump\t// in\n    tag_210:\n        /* \"Dcoffer/ERC721A/test.sol\":3580:3625  uint _power = tokenId.mul(_salt).add(tokenId) */\n      swap1\n      pop\n        /* \"Dcoffer/ERC721A/test.sol\":3655:3656  0 */\n      0x00\n        /* \"Dcoffer/ERC721A/test.sol\":3649:3651  10 */\n      0x0a\n        /* \"Dcoffer/ERC721A/test.sol\":3642:3648  _power */\n      dup3\n        /* \"Dcoffer/ERC721A/test.sol\":3642:3651  _power%10 */\n      tag_212\n      swap2\n      swap1\n      tag_213\n      jump\t// in\n    tag_212:\n        /* \"Dcoffer/ERC721A/test.sol\":3642:3656  _power%10 == 0 */\n      sub\n        /* \"Dcoffer/ERC721A/test.sol\":3639:3743  if(_power%10 == 0){... */\n      tag_214\n      jumpi\n        /* \"Dcoffer/ERC721A/test.sol\":3681:3682  1 */\n      0x01\n        /* \"Dcoffer/ERC721A/test.sol\":3672:3682  _power = 1 */\n      swap1\n      pop\n        /* \"Dcoffer/ERC721A/test.sol\":3639:3743  if(_power%10 == 0){... */\n      jump(tag_215)\n    tag_214:\n        /* \"Dcoffer/ERC721A/test.sol\":3729:3731  10 */\n      0x0a\n        /* \"Dcoffer/ERC721A/test.sol\":3722:3728  _power */\n      dup2\n        /* \"Dcoffer/ERC721A/test.sol\":3722:3731  _power%10 */\n      tag_216\n      swap2\n      swap1\n      tag_213\n      jump\t// in\n    tag_216:\n        /* \"Dcoffer/ERC721A/test.sol\":3713:3731  _power = _power%10 */\n      swap1\n      pop\n        /* \"Dcoffer/ERC721A/test.sol\":3639:3743  if(_power%10 == 0){... */\n    tag_215:\n        /* \"Dcoffer/ERC721A/test.sol\":3762:3768  _power */\n      dup1\n        /* \"Dcoffer/ERC721A/test.sol\":3755:3768  return _power */\n      swap2\n      pop\n      pop\n        /* \"Dcoffer/ERC721A/test.sol\":3502:3776  function DcofferPower (uint256 tokenId)public view returns(uint256){... */\n      swap2\n      swap1\n      pop\n      jump\t// out\n        /* \"@openzeppelin/contracts/utils/introspection/ERC165.sol\":829:984  function supportsInterface(bytes4 interfaceId) public view virtual override returns (bool) {... */\n    tag_119:\n        /* \"@openzeppelin/contracts/utils/introspection/ERC165.sol\":914:918  bool */\n      0x00\n        /* \"@openzeppelin/contracts/utils/introspection/ERC165.sol\":952:977  type(IERC165).interfaceId */\n      0x01ffc9a700000000000000000000000000000000000000000000000000000000\n        /* \"@openzeppelin/contracts/utils/introspection/ERC165.sol\":937:977  interfaceId == type(IERC165).interfaceId */\n      not(0xffffffffffffffffffffffffffffffffffffffffffffffffffffffff)\n      and\n        /* \"@openzeppelin/contracts/utils/introspection/ERC165.sol\":937:948  interfaceId */\n      dup3\n        /* \"@openzeppelin/contracts/utils/introspection/ERC165.sol\":937:977  interfaceId == type(IERC165).interfaceId */\n      not(0xffffffffffffffffffffffffffffffffffffffffffffffffffffffff)\n      and\n      eq\n        /* \"@openzeppelin/contracts/utils/introspection/ERC165.sol\":930:977  return interfaceId == type(IERC165).interfaceId */\n      swap1\n      pop\n        /* \"@openzeppelin/contracts/utils/introspection/ERC165.sol\":829:984  function supportsInterface(bytes4 interfaceId) public view virtual override returns (bool) {... */\n      swap2\n      swap1\n      pop\n      jump\t// out\n        /* \"Dcoffer/ERC721A/test.sol\":11711:11885  function _exists(uint256 tokenId) internal view returns (bool) {... */\n    tag_129:\n        /* \"Dcoffer/ERC721A/test.sol\":11768:11772  bool */\n      0x00\n        /* \"Dcoffer/ERC721A/test.sol\":11811:11818  tokenId */\n      dup2\n        /* \"Dcoffer/ERC721A/test.sol\":11792:11807  _startTokenId() */\n      tag_219\n        /* \"Dcoffer/ERC721A/test.sol\":11792:11805  _startTokenId */\n      tag_144\n        /* \"Dcoffer/ERC721A/test.sol\":11792:11807  _startTokenId() */\n      jump\t// in\n    tag_219:\n        /* \"Dcoffer/ERC721A/test.sol\":11792:11818  _startTokenId() <= tokenId */\n      gt\n      iszero\n        /* \"Dcoffer/ERC721A/test.sol\":11792:11845  _startTokenId() <= tokenId && tokenId < _currentIndex */\n      dup1\n      iszero\n      tag_220\n      jumpi\n      pop\n        /* \"Dcoffer/ERC721A/test.sol\":11832:11845  _currentIndex */\n      sload(0x04)\n        /* \"Dcoffer/ERC721A/test.sol\":11822:11829  tokenId */\n      dup3\n        /* \"Dcoffer/ERC721A/test.sol\":11822:11845  tokenId < _currentIndex */\n      lt\n        /* \"Dcoffer/ERC721A/test.sol\":11792:11845  _startTokenId() <= tokenId && tokenId < _currentIndex */\n    tag_220:\n        /* \"Dcoffer/ERC721A/test.sol\":11792:11877  _startTokenId() <= tokenId && tokenId < _currentIndex && !_ownerships[tokenId].burned */\n      dup1\n      iszero\n      tag_221\n      jumpi\n      pop\n        /* \"Dcoffer/ERC721A/test.sol\":11850:11861  _ownerships */\n      0x09\n        /* \"Dcoffer/ERC721A/test.sol\":11850:11870  _ownerships[tokenId] */\n      0x00\n        /* \"Dcoffer/ERC721A/test.sol\":11862:11869  tokenId */\n      dup4\n        /* \"Dcoffer/ERC721A/test.sol\":11850:11870  _ownerships[tokenId] */\n      dup2\n      mstore\n      0x20\n      add\n      swap1\n      dup2\n      mstore\n      0x20\n      add\n      0x00\n      keccak256\n        /* \"Dcoffer/ERC721A/test.sol\":11850:11877  _ownerships[tokenId].burned */\n      0x00\n      add\n      0x1c\n      swap1\n      sload\n      swap1\n      0x0100\n      exp\n      swap1\n      div\n      0xff\n      and\n        /* \"Dcoffer/ERC721A/test.sol\":11849:11877  !_ownerships[tokenId].burned */\n      iszero\n        /* \"Dcoffer/ERC721A/test.sol\":11792:11877  _startTokenId() <= tokenId && tokenId < _currentIndex && !_ownerships[tokenId].burned */\n    tag_221:\n        /* \"Dcoffer/ERC721A/test.sol\":11785:11877  return _startTokenId() <= tokenId && tokenId < _currentIndex && !_ownerships[tokenId].burned */\n      swap1\n      pop\n        /* \"Dcoffer/ERC721A/test.sol\":11711:11885  function _exists(uint256 tokenId) internal view returns (bool) {... */\n      swap2\n      swap1\n      pop\n      jump\t// out\n        /* \"@openzeppelin/contracts/utils/Context.sol\":640:736  function _msgSender() internal view virtual returns (address) {... */\n    tag_135:\n        /* \"@openzeppelin/contracts/utils/Context.sol\":693:700  address */\n      0x00\n        /* \"@openzeppelin/contracts/utils/Context.sol\":719:729  msg.sender */\n      caller\n        /* \"@openzeppelin/contracts/utils/Context.sol\":712:729  return msg.sender */\n      swap1\n      pop\n        /* \"@openzeppelin/contracts/utils/Context.sol\":640:736  function _msgSender() internal view virtual returns (address) {... */\n      swap1\n      jump\t// out\n        /* \"Dcoffer/ERC721A/test.sol\":19668:19864  function _approve(... */\n    tag_141:\n        /* \"Dcoffer/ERC721A/test.sol\":19810:19812  to */\n      dup3\n        /* \"Dcoffer/ERC721A/test.sol\":19783:19798  _tokenApprovals */\n      0x0b\n        /* \"Dcoffer/ERC721A/test.sol\":19783:19807  _tokenApprovals[tokenId] */\n      0x00\n        /* \"Dcoffer/ERC721A/test.sol\":19799:19806  tokenId */\n      dup5\n        /* \"Dcoffer/ERC721A/test.sol\":19783:19807  _tokenApprovals[tokenId] */\n      dup2\n      mstore\n      0x20\n      add\n      swap1\n      dup2\n      mstore\n      0x20\n      add\n      0x00\n      keccak256\n      0x00\n        /* \"Dcoffer/ERC721A/test.sol\":19783:19812  _tokenApprovals[tokenId] = to */\n      0x0100\n      exp\n      dup2\n      sload\n      dup2\n      0xffffffffffffffffffffffffffffffffffffffff\n      mul\n      not\n      and\n      swap1\n      dup4\n      0xffffffffffffffffffffffffffffffffffffffff\n      and\n      mul\n      or\n      swap1\n      sstore\n      pop\n        /* \"Dcoffer/ERC721A/test.sol\":19848:19855  tokenId */\n      dup2\n        /* \"Dcoffer/ERC721A/test.sol\":19844:19846  to */\n      dup4\n        /* \"Dcoffer/ERC721A/test.sol\":19828:19856  Approval(owner, to, tokenId) */\n      0xffffffffffffffffffffffffffffffffffffffff\n      and\n        /* \"Dcoffer/ERC721A/test.sol\":19837:19842  owner */\n      dup3\n        /* \"Dcoffer/ERC721A/test.sol\":19828:19856  Approval(owner, to, tokenId) */\n      0xffffffffffffffffffffffffffffffffffffffff\n      and\n      0x8c5be1e5ebec7d5bd14f71427d1e84f3dd0314c0f7b2291e5b200ac8c7c3b925\n      mload(0x40)\n      mload(0x40)\n      dup1\n      swap2\n      sub\n      swap1\n      log4\n        /* \"Dcoffer/ERC721A/test.sol\":19668:19864  function _approve(... */\n      pop\n      pop\n      pop\n      jump\t// out\n        /* \"Dcoffer/ERC721A/test.sol\":3894:3986  function _startTokenId() internal view virtual returns (uint256) {... */\n    tag_144:\n        /* \"Dcoffer/ERC721A/test.sol\":3950:3957  uint256 */\n      0x00\n        /* \"Dcoffer/ERC721A/test.sol\":3894:3986  function _startTokenId() internal view virtual returns (uint256) {... */\n      swap1\n      jump\t// out\n        /* \"Dcoffer/ERC721A/test.sol\":14589:16734  function _transfer(... */\n    tag_147:\n        /* \"Dcoffer/ERC721A/test.sol\":14719:14754  TokenOwnership memory prevOwnership */\n      0x00\n        /* \"Dcoffer/ERC721A/test.sol\":14757:14778  _ownershipOf(tokenId) */\n      tag_226\n        /* \"Dcoffer/ERC721A/test.sol\":14770:14777  tokenId */\n      dup3\n        /* \"Dcoffer/ERC721A/test.sol\":14757:14769  _ownershipOf */\n      tag_159\n        /* \"Dcoffer/ERC721A/test.sol\":14757:14778  _ownershipOf(tokenId) */\n      jump\t// in\n    tag_226:\n        /* \"Dcoffer/ERC721A/test.sol\":14719:14778  TokenOwnership memory prevOwnership = _ownershipOf(tokenId) */\n      swap1\n      pop\n        /* \"Dcoffer/ERC721A/test.sol\":14817:14821  from */\n      dup4\n        /* \"Dcoffer/ERC721A/test.sol\":14795:14821  prevOwnership.addr != from */\n      0xffffffffffffffffffffffffffffffffffffffff\n      and\n        /* \"Dcoffer/ERC721A/test.sol\":14795:14808  prevOwnership */\n      dup2\n        /* \"Dcoffer/ERC721A/test.sol\":14795:14813  prevOwnership.addr */\n      0x00\n      add\n      mload\n        /* \"Dcoffer/ERC721A/test.sol\":14795:14821  prevOwnership.addr != from */\n      0xffffffffffffffffffffffffffffffffffffffff\n      and\n      eq\n        /* \"Dcoffer/ERC721A/test.sol\":14791:14858  if (prevOwnership.addr != from) revert TransferFromIncorrectOwner() */\n      tag_227\n      jumpi\n        /* \"Dcoffer/ERC721A/test.sol\":14830:14858  TransferFromIncorrectOwner() */\n      mload(0x40)\n      0xa114810000000000000000000000000000000000000000000000000000000000\n      dup2\n      mstore\n      0x04\n      add\n      mload(0x40)\n      dup1\n      swap2\n      sub\n      swap1\n      revert\n        /* \"Dcoffer/ERC721A/test.sol\":14791:14858  if (prevOwnership.addr != from) revert TransferFromIncorrectOwner() */\n    tag_227:\n        /* \"Dcoffer/ERC721A/test.sol\":14871:14893  bool isApprovedOrOwner */\n      0x00\n        /* \"Dcoffer/ERC721A/test.sol\":14913:14917  from */\n      dup5\n        /* \"Dcoffer/ERC721A/test.sol\":14897:14917  _msgSender() == from */\n      0xffffffffffffffffffffffffffffffffffffffff\n      and\n        /* \"Dcoffer/ERC721A/test.sol\":14897:14909  _msgSender() */\n      tag_228\n        /* \"Dcoffer/ERC721A/test.sol\":14897:14907  _msgSender */\n      tag_135\n        /* \"Dcoffer/ERC721A/test.sol\":14897:14909  _msgSender() */\n      jump\t// in\n    tag_228:\n        /* \"Dcoffer/ERC721A/test.sol\":14897:14917  _msgSender() == from */\n      0xffffffffffffffffffffffffffffffffffffffff\n      and\n      eq\n        /* \"Dcoffer/ERC721A/test.sol\":14897:14970  _msgSender() == from ||... */\n      dup1\n      tag_229\n      jumpi\n      pop\n        /* \"Dcoffer/ERC721A/test.sol\":14934:14970  isApprovedForAll(from, _msgSender()) */\n      tag_230\n        /* \"Dcoffer/ERC721A/test.sol\":14951:14955  from */\n      dup6\n        /* \"Dcoffer/ERC721A/test.sol\":14957:14969  _msgSender() */\n      tag_231\n        /* \"Dcoffer/ERC721A/test.sol\":14957:14967  _msgSender */\n      tag_135\n        /* \"Dcoffer/ERC721A/test.sol\":14957:14969  _msgSender() */\n      jump\t// in\n    tag_231:\n        /* \"Dcoffer/ERC721A/test.sol\":14934:14950  isApprovedForAll */\n      tag_109\n        /* \"Dcoffer/ERC721A/test.sol\":14934:14970  isApprovedForAll(from, _msgSender()) */\n      jump\t// in\n    tag_230:\n        /* \"Dcoffer/ERC721A/test.sol\":14897:14970  _msgSender() == from ||... */\n    tag_229:\n        /* \"Dcoffer/ERC721A/test.sol\":14897:15023  _msgSender() == from ||... */\n      dup1\n      tag_232\n      jumpi\n      pop\n        /* \"Dcoffer/ERC721A/test.sol\":15011:15023  _msgSender() */\n      tag_233\n        /* \"Dcoffer/ERC721A/test.sol\":15011:15021  _msgSender */\n      tag_135\n        /* \"Dcoffer/ERC721A/test.sol\":15011:15023  _msgSender() */\n      jump\t// in\n    tag_233:\n        /* \"Dcoffer/ERC721A/test.sol\":14987:15023  getApproved(tokenId) == _msgSender() */\n      0xffffffffffffffffffffffffffffffffffffffff\n      and\n        /* \"Dcoffer/ERC721A/test.sol\":14987:15007  getApproved(tokenId) */\n      tag_234\n        /* \"Dcoffer/ERC721A/test.sol\":14999:15006  tokenId */\n      dup5\n        /* \"Dcoffer/ERC721A/test.sol\":14987:14998  getApproved */\n      tag_41\n        /* \"Dcoffer/ERC721A/test.sol\":14987:15007  getApproved(tokenId) */\n      jump\t// in\n    tag_234:\n        /* \"Dcoffer/ERC721A/test.sol\":14987:15023  getApproved(tokenId) == _msgSender() */\n      0xffffffffffffffffffffffffffffffffffffffff\n      and\n      eq\n        /* \"Dcoffer/ERC721A/test.sol\":14897:15023  _msgSender() == from ||... */\n    tag_232:\n        /* \"Dcoffer/ERC721A/test.sol\":14871:15024  bool isApprovedOrOwner = (_msgSender() == from ||... */\n      swap1\n      pop\n        /* \"Dcoffer/ERC721A/test.sol\":15042:15059  isApprovedOrOwner */\n      dup1\n        /* \"Dcoffer/ERC721A/test.sol\":15037:15103  if (!isApprovedOrOwner) revert TransferCallerNotOwnerNorApproved() */\n      tag_235\n      jumpi\n        /* \"Dcoffer/ERC721A/test.sol\":15068:15103  TransferCallerNotOwnerNorApproved() */\n      mload(0x40)\n      0x59c896be00000000000000000000000000000000000000000000000000000000\n      dup2\n      mstore\n      0x04\n      add\n      mload(0x40)\n      dup1\n      swap2\n      sub\n      swap1\n      revert\n        /* \"Dcoffer/ERC721A/test.sol\":15037:15103  if (!isApprovedOrOwner) revert TransferCallerNotOwnerNorApproved() */\n    tag_235:\n        /* \"Dcoffer/ERC721A/test.sol\":15132:15133  0 */\n      0x00\n        /* \"Dcoffer/ERC721A/test.sol\":15118:15134  to == address(0) */\n      0xffffffffffffffffffffffffffffffffffffffff\n      and\n        /* \"Dcoffer/ERC721A/test.sol\":15118:15120  to */\n      dup5\n        /* \"Dcoffer/ERC721A/test.sol\":15118:15134  to == address(0) */\n      0xffffffffffffffffffffffffffffffffffffffff\n      and\n      sub\n        /* \"Dcoffer/ERC721A/test.sol\":15114:15166  if (to == address(0)) revert TransferToZeroAddress() */\n      tag_236\n      jumpi\n        /* \"Dcoffer/ERC721A/test.sol\":15143:15166  TransferToZeroAddress() */\n      mload(0x40)\n      0xea553b3400000000000000000000000000000000000000000000000000000000\n      dup2\n      mstore\n      0x04\n      add\n      mload(0x40)\n      dup1\n      swap2\n      sub\n      swap1\n      revert\n        /* \"Dcoffer/ERC721A/test.sol\":15114:15166  if (to == address(0)) revert TransferToZeroAddress() */\n    tag_236:\n        /* \"Dcoffer/ERC721A/test.sol\":15179:15222  _beforeTokenTransfers(from, to, tokenId, 1) */\n      tag_237\n        /* \"Dcoffer/ERC721A/test.sol\":15201:15205  from */\n      dup6\n        /* \"Dcoffer/ERC721A/test.sol\":15207:15209  to */\n      dup6\n        /* \"Dcoffer/ERC721A/test.sol\":15211:15218  tokenId */\n      dup6\n        /* \"Dcoffer/ERC721A/test.sol\":15220:15221  1 */\n      0x01\n        /* \"Dcoffer/ERC721A/test.sol\":15179:15200  _beforeTokenTransfers */\n      tag_238\n        /* \"Dcoffer/ERC721A/test.sol\":15179:15222  _beforeTokenTransfers(from, to, tokenId, 1) */\n      jump\t// in\n    tag_237:\n        /* \"Dcoffer/ERC721A/test.sol\":15287:15322  _approve(address(0), tokenId, from) */\n      tag_239\n        /* \"Dcoffer/ERC721A/test.sol\":15304:15305  0 */\n      0x00\n        /* \"Dcoffer/ERC721A/test.sol\":15308:15315  tokenId */\n      dup5\n        /* \"Dcoffer/ERC721A/test.sol\":15317:15321  from */\n      dup8\n        /* \"Dcoffer/ERC721A/test.sol\":15287:15295  _approve */\n      tag_141\n        /* \"Dcoffer/ERC721A/test.sol\":15287:15322  _approve(address(0), tokenId, from) */\n      jump\t// in\n    tag_239:\n        /* \"Dcoffer/ERC721A/test.sol\":15648:15649  1 */\n      0x01\n        /* \"Dcoffer/ERC721A/test.sol\":15618:15630  _addressData */\n      0x0a\n        /* \"Dcoffer/ERC721A/test.sol\":15618:15636  _addressData[from] */\n      0x00\n        /* \"Dcoffer/ERC721A/test.sol\":15631:15635  from */\n      dup8\n        /* \"Dcoffer/ERC721A/test.sol\":15618:15636  _addressData[from] */\n      0xffffffffffffffffffffffffffffffffffffffff\n      and\n      0xffffffffffffffffffffffffffffffffffffffff\n      and\n      dup2\n      mstore\n      0x20\n      add\n      swap1\n      dup2\n      mstore\n      0x20\n      add\n      0x00\n      keccak256\n        /* \"Dcoffer/ERC721A/test.sol\":15618:15644  _addressData[from].balance */\n      0x00\n      add\n      0x00\n        /* \"Dcoffer/ERC721A/test.sol\":15618:15649  _addressData[from].balance -= 1 */\n      dup3\n      dup3\n      dup3\n      swap1\n      sload\n      swap1\n      0x0100\n      exp\n      swap1\n      div\n      0xffffffffffffffff\n      and\n      sub\n      swap3\n      pop\n      0x0100\n      exp\n      dup2\n      sload\n      dup2\n      0xffffffffffffffff\n      mul\n      not\n      and\n      swap1\n      dup4\n      0xffffffffffffffff\n      and\n      mul\n      or\n      swap1\n      sstore\n      pop\n        /* \"Dcoffer/ERC721A/test.sol\":15692:15693  1 */\n      0x01\n        /* \"Dcoffer/ERC721A/test.sol\":15664:15676  _addressData */\n      0x0a\n        /* \"Dcoffer/ERC721A/test.sol\":15664:15680  _addressData[to] */\n      0x00\n        /* \"Dcoffer/ERC721A/test.sol\":15677:15679  to */\n      dup7\n        /* \"Dcoffer/ERC721A/test.sol\":15664:15680  _addressData[to] */\n      0xffffffffffffffffffffffffffffffffffffffff\n      and\n      0xffffffffffffffffffffffffffffffffffffffff\n      and\n      dup2\n      mstore\n      0x20\n      add\n      swap1\n      dup2\n      mstore\n      0x20\n      add\n      0x00\n      keccak256\n        /* \"Dcoffer/ERC721A/test.sol\":15664:15688  _addressData[to].balance */\n      0x00\n      add\n      0x00\n        /* \"Dcoffer/ERC721A/test.sol\":15664:15693  _addressData[to].balance += 1 */\n      dup3\n      dup3\n      dup3\n      swap1\n      sload\n      swap1\n      0x0100\n      exp\n      swap1\n      div\n      0xffffffffffffffff\n      and\n      add\n      swap3\n      pop\n      0x0100\n      exp\n      dup2\n      sload\n      dup2\n      0xffffffffffffffff\n      mul\n      not\n      and\n      swap1\n      dup4\n      0xffffffffffffffff\n      and\n      mul\n      or\n      swap1\n      sstore\n      pop\n        /* \"Dcoffer/ERC721A/test.sol\":15710:15741  TokenOwnership storage currSlot */\n      0x00\n        /* \"Dcoffer/ERC721A/test.sol\":15744:15755  _ownerships */\n      0x09\n        /* \"Dcoffer/ERC721A/test.sol\":15744:15764  _ownerships[tokenId] */\n      0x00\n        /* \"Dcoffer/ERC721A/test.sol\":15756:15763  tokenId */\n      dup6\n        /* \"Dcoffer/ERC721A/test.sol\":15744:15764  _ownerships[tokenId] */\n      dup2\n      mstore\n      0x20\n      add\n      swap1\n      dup2\n      mstore\n      0x20\n      add\n      0x00\n      keccak256\n        /* \"Dcoffer/ERC721A/test.sol\":15710:15764  TokenOwnership storage currSlot = _ownerships[tokenId] */\n      swap1\n      pop\n        /* \"Dcoffer/ERC721A/test.sol\":15795:15797  to */\n      dup5\n        /* \"Dcoffer/ERC721A/test.sol\":15779:15787  currSlot */\n      dup2\n        /* \"Dcoffer/ERC721A/test.sol\":15779:15792  currSlot.addr */\n      0x00\n      add\n      0x00\n        /* \"Dcoffer/ERC721A/test.sol\":15779:15797  currSlot.addr = to */\n      0x0100\n      exp\n      dup2\n      sload\n      dup2\n      0xffffffffffffffffffffffffffffffffffffffff\n      mul\n      not\n      and\n      swap1\n      dup4\n      0xffffffffffffffffffffffffffffffffffffffff\n      and\n      mul\n      or\n      swap1\n      sstore\n      pop\n        /* \"Dcoffer/ERC721A/test.sol\":15845:15860  block.timestamp */\n      timestamp\n        /* \"Dcoffer/ERC721A/test.sol\":15812:15820  currSlot */\n      dup2\n        /* \"Dcoffer/ERC721A/test.sol\":15812:15835  currSlot.startTimestamp */\n      0x00\n      add\n      0x14\n        /* \"Dcoffer/ERC721A/test.sol\":15812:15861  currSlot.startTimestamp = uint64(block.timestamp) */\n      0x0100\n      exp\n      dup2\n      sload\n      dup2\n      0xffffffffffffffff\n      mul\n      not\n      and\n      swap1\n      dup4\n      0xffffffffffffffff\n      and\n      mul\n      or\n      swap1\n      sstore\n      pop\n        /* \"Dcoffer/ERC721A/test.sol\":16113:16132  uint256 nextTokenId */\n      0x00\n        /* \"Dcoffer/ERC721A/test.sol\":16145:16146  1 */\n      0x01\n        /* \"Dcoffer/ERC721A/test.sol\":16135:16142  tokenId */\n      dup6\n        /* \"Dcoffer/ERC721A/test.sol\":16135:16146  tokenId + 1 */\n      add\n        /* \"Dcoffer/ERC721A/test.sol\":16113:16146  uint256 nextTokenId = tokenId + 1 */\n      swap1\n      pop\n        /* \"Dcoffer/ERC721A/test.sol\":16161:16192  TokenOwnership storage nextSlot */\n      0x00\n        /* \"Dcoffer/ERC721A/test.sol\":16195:16206  _ownerships */\n      0x09\n        /* \"Dcoffer/ERC721A/test.sol\":16195:16219  _ownerships[nextTokenId] */\n      0x00\n        /* \"Dcoffer/ERC721A/test.sol\":16207:16218  nextTokenId */\n      dup4\n        /* \"Dcoffer/ERC721A/test.sol\":16195:16219  _ownerships[nextTokenId] */\n      dup2\n      mstore\n      0x20\n      add\n      swap1\n      dup2\n      mstore\n      0x20\n      add\n      0x00\n      keccak256\n        /* \"Dcoffer/ERC721A/test.sol\":16161:16219  TokenOwnership storage nextSlot = _ownerships[nextTokenId] */\n      swap1\n      pop\n        /* \"Dcoffer/ERC721A/test.sol\":16263:16264  0 */\n      0x00\n        /* \"Dcoffer/ERC721A/test.sol\":16238:16265  nextSlot.addr == address(0) */\n      0xffffffffffffffffffffffffffffffffffffffff\n      and\n        /* \"Dcoffer/ERC721A/test.sol\":16238:16246  nextSlot */\n      dup2\n        /* \"Dcoffer/ERC721A/test.sol\":16238:16251  nextSlot.addr */\n      0x00\n      add\n      0x00\n      swap1\n      sload\n      swap1\n      0x0100\n      exp\n      swap1\n      div\n      0xffffffffffffffffffffffffffffffffffffffff\n      and\n        /* \"Dcoffer/ERC721A/test.sol\":16238:16265  nextSlot.addr == address(0) */\n      0xffffffffffffffffffffffffffffffffffffffff\n      and\n      sub\n        /* \"Dcoffer/ERC721A/test.sol\":16234:16618  if (nextSlot.addr == address(0)) {... */\n      tag_240\n      jumpi\n        /* \"Dcoffer/ERC721A/test.sol\":16448:16461  _currentIndex */\n      sload(0x04)\n        /* \"Dcoffer/ERC721A/test.sol\":16433:16444  nextTokenId */\n      dup3\n        /* \"Dcoffer/ERC721A/test.sol\":16433:16461  nextTokenId != _currentIndex */\n      eq\n        /* \"Dcoffer/ERC721A/test.sol\":16429:16603  if (nextTokenId != _currentIndex) {... */\n      tag_241\n      jumpi\n        /* \"Dcoffer/ERC721A/test.sol\":16502:16506  from */\n      dup8\n        /* \"Dcoffer/ERC721A/test.sol\":16486:16494  nextSlot */\n      dup2\n        /* \"Dcoffer/ERC721A/test.sol\":16486:16499  nextSlot.addr */\n      0x00\n      add\n      0x00\n        /* \"Dcoffer/ERC721A/test.sol\":16486:16506  nextSlot.addr = from */\n      0x0100\n      exp\n      dup2\n      sload\n      dup2\n      0xffffffffffffffffffffffffffffffffffffffff\n      mul\n      not\n      and\n      swap1\n      dup4\n      0xffffffffffffffffffffffffffffffffffffffff\n      and\n      mul\n      or\n      swap1\n      sstore\n      pop\n        /* \"Dcoffer/ERC721A/test.sol\":16555:16568  prevOwnership */\n      dup5\n        /* \"Dcoffer/ERC721A/test.sol\":16555:16583  prevOwnership.startTimestamp */\n      0x20\n      add\n      mload\n        /* \"Dcoffer/ERC721A/test.sol\":16529:16537  nextSlot */\n      dup2\n        /* \"Dcoffer/ERC721A/test.sol\":16529:16552  nextSlot.startTimestamp */\n      0x00\n      add\n      0x14\n        /* \"Dcoffer/ERC721A/test.sol\":16529:16583  nextSlot.startTimestamp = prevOwnership.startTimestamp */\n      0x0100\n      exp\n      dup2\n      sload\n      dup2\n      0xffffffffffffffff\n      mul\n      not\n      and\n      swap1\n      dup4\n      0xffffffffffffffff\n      and\n      mul\n      or\n      swap1\n      sstore\n      pop\n        /* \"Dcoffer/ERC721A/test.sol\":16429:16603  if (nextTokenId != _currentIndex) {... */\n    tag_241:\n        /* \"Dcoffer/ERC721A/test.sol\":16234:16618  if (nextSlot.addr == address(0)) {... */\n    tag_240:\n        /* \"Dcoffer/ERC721A/test.sol\":15593:16629  unchecked {... */\n      pop\n      pop\n      pop\n        /* \"Dcoffer/ERC721A/test.sol\":16665:16672  tokenId */\n      dup3\n        /* \"Dcoffer/ERC721A/test.sol\":16661:16663  to */\n      dup5\n        /* \"Dcoffer/ERC721A/test.sol\":16646:16673  Transfer(from, to, tokenId) */\n      0xffffffffffffffffffffffffffffffffffffffff\n      and\n        /* \"Dcoffer/ERC721A/test.sol\":16655:16659  from */\n      dup7\n        /* \"Dcoffer/ERC721A/test.sol\":16646:16673  Transfer(from, to, tokenId) */\n      0xffffffffffffffffffffffffffffffffffffffff\n      and\n      0xddf252ad1be2c89b69c2b068fc378daa952ba7f163c4a11628f55a4df523b3ef\n      mload(0x40)\n      mload(0x40)\n      dup1\n      swap2\n      sub\n      swap1\n      log4\n        /* \"Dcoffer/ERC721A/test.sol\":16684:16726  _afterTokenTransfers(from, to, tokenId, 1) */\n      tag_242\n        /* \"Dcoffer/ERC721A/test.sol\":16705:16709  from */\n      dup6\n        /* \"Dcoffer/ERC721A/test.sol\":16711:16713  to */\n      dup6\n        /* \"Dcoffer/ERC721A/test.sol\":16715:16722  tokenId */\n      dup6\n        /* \"Dcoffer/ERC721A/test.sol\":16724:16725  1 */\n      0x01\n        /* \"Dcoffer/ERC721A/test.sol\":16684:16704  _afterTokenTransfers */\n      tag_243\n        /* \"Dcoffer/ERC721A/test.sol\":16684:16726  _afterTokenTransfers(from, to, tokenId, 1) */\n      jump\t// in\n    tag_242:\n        /* \"Dcoffer/ERC721A/test.sol\":14693:16734  {   ... */\n      pop\n      pop\n        /* \"Dcoffer/ERC721A/test.sol\":14589:16734  function _transfer(... */\n      pop\n      pop\n      pop\n      jump\t// out\n        /* \"@openzeppelin/contracts/utils/math/SafeMath.sol\":3465:3561  function mul(uint256 a, uint256 b) internal pure returns (uint256) {... */\n    tag_152:\n        /* \"@openzeppelin/contracts/utils/math/SafeMath.sol\":3523:3530  uint256 */\n      0x00\n        /* \"@openzeppelin/contracts/utils/math/SafeMath.sol\":3553:3554  b */\n      dup2\n        /* \"@openzeppelin/contracts/utils/math/SafeMath.sol\":3549:3550  a */\n      dup4\n        /* \"@openzeppelin/contracts/utils/math/SafeMath.sol\":3549:3554  a * b */\n      tag_245\n      swap2\n      swap1\n      tag_246\n      jump\t// in\n    tag_245:\n        /* \"@openzeppelin/contracts/utils/math/SafeMath.sol\":3542:3554  return a * b */\n      swap1\n      pop\n        /* \"@openzeppelin/contracts/utils/math/SafeMath.sol\":3465:3561  function mul(uint256 a, uint256 b) internal pure returns (uint256) {... */\n      swap3\n      swap2\n      pop\n      pop\n      jump\t// out\n        /* \"@openzeppelin/contracts/utils/math/SafeMath.sol\":3850:3946  function div(uint256 a, uint256 b) internal pure returns (uint256) {... */\n    tag_155:\n        /* \"@openzeppelin/contracts/utils/math/SafeMath.sol\":3908:3915  uint256 */\n      0x00\n        /* \"@openzeppelin/contracts/utils/math/SafeMath.sol\":3938:3939  b */\n      dup2\n        /* \"@openzeppelin/contracts/utils/math/SafeMath.sol\":3934:3935  a */\n      dup4\n        /* \"@openzeppelin/contracts/utils/math/SafeMath.sol\":3934:3939  a / b */\n      tag_248\n      swap2\n      swap1\n      tag_249\n      jump\t// in\n    tag_248:\n        /* \"@openzeppelin/contracts/utils/math/SafeMath.sol\":3927:3939  return a / b */\n      swap1\n      pop\n        /* \"@openzeppelin/contracts/utils/math/SafeMath.sol\":3850:3946  function div(uint256 a, uint256 b) internal pure returns (uint256) {... */\n      swap3\n      swap2\n      pop\n      pop\n      jump\t// out\n        /* \"Dcoffer/ERC721A/test.sol\":6805:7916  function _ownershipOf(uint256 tokenId) internal view returns (TokenOwnership memory) {... */\n    tag_159:\n        /* \"Dcoffer/ERC721A/test.sol\":6867:6888  TokenOwnership memory */\n      tag_250\n      tag_251\n      jump\t// in\n    tag_250:\n        /* \"Dcoffer/ERC721A/test.sol\":6901:6913  uint256 curr */\n      0x00\n        /* \"Dcoffer/ERC721A/test.sol\":6916:6923  tokenId */\n      dup3\n        /* \"Dcoffer/ERC721A/test.sol\":6901:6923  uint256 curr = tokenId */\n      swap1\n      pop\n        /* \"Dcoffer/ERC721A/test.sol\":6984:6988  curr */\n      dup1\n        /* \"Dcoffer/ERC721A/test.sol\":6965:6980  _startTokenId() */\n      tag_253\n        /* \"Dcoffer/ERC721A/test.sol\":6965:6978  _startTokenId */\n      tag_144\n        /* \"Dcoffer/ERC721A/test.sol\":6965:6980  _startTokenId() */\n      jump\t// in\n    tag_253:\n        /* \"Dcoffer/ERC721A/test.sol\":6965:6988  _startTokenId() <= curr */\n      gt\n        /* \"Dcoffer/ERC721A/test.sol\":6961:7849  if (_startTokenId() <= curr) if (curr < _currentIndex) {... */\n      tag_254\n      jumpi\n        /* \"Dcoffer/ERC721A/test.sol\":7001:7014  _currentIndex */\n      sload(0x04)\n        /* \"Dcoffer/ERC721A/test.sol\":6994:6998  curr */\n      dup2\n        /* \"Dcoffer/ERC721A/test.sol\":6994:7014  curr < _currentIndex */\n      lt\n        /* \"Dcoffer/ERC721A/test.sol\":6990:7849  if (curr < _currentIndex) {... */\n      iszero\n      tag_255\n      jumpi\n        /* \"Dcoffer/ERC721A/test.sol\":7035:7066  TokenOwnership memory ownership */\n      0x00\n        /* \"Dcoffer/ERC721A/test.sol\":7069:7080  _ownerships */\n      0x09\n        /* \"Dcoffer/ERC721A/test.sol\":7069:7086  _ownerships[curr] */\n      0x00\n        /* \"Dcoffer/ERC721A/test.sol\":7081:7085  curr */\n      dup4\n        /* \"Dcoffer/ERC721A/test.sol\":7069:7086  _ownerships[curr] */\n      dup2\n      mstore\n      0x20\n      add\n      swap1\n      dup2\n      mstore\n      0x20\n      add\n      0x00\n      keccak256\n        /* \"Dcoffer/ERC721A/test.sol\":7035:7086  TokenOwnership memory ownership = _ownerships[curr] */\n      mload(0x40)\n      dup1\n      0x60\n      add\n      0x40\n      mstore\n      swap1\n      dup2\n      0x00\n      dup3\n      add\n      0x00\n      swap1\n      sload\n      swap1\n      0x0100\n      exp\n      swap1\n      div\n      0xffffffffffffffffffffffffffffffffffffffff\n      and\n      0xffffffffffffffffffffffffffffffffffffffff\n      and\n      0xffffffffffffffffffffffffffffffffffffffff\n      and\n      dup2\n      mstore\n      0x20\n      add\n      0x00\n      dup3\n      add\n      0x14\n      swap1\n      sload\n      swap1\n      0x0100\n      exp\n      swap1\n      div\n      0xffffffffffffffff\n      and\n      0xffffffffffffffff\n      and\n      0xffffffffffffffff\n      and\n      dup2\n      mstore\n      0x20\n      add\n      0x00\n      dup3\n      add\n      0x1c\n      swap1\n      sload\n      swap1\n      0x0100\n      exp\n      swap1\n      div\n      0xff\n      and\n      iszero\n      iszero\n      iszero\n      iszero\n      dup2\n      mstore\n      pop\n      pop\n      swap1\n      pop\n        /* \"Dcoffer/ERC721A/test.sol\":7110:7119  ownership */\n      dup1\n        /* \"Dcoffer/ERC721A/test.sol\":7110:7126  ownership.burned */\n      0x40\n      add\n      mload\n        /* \"Dcoffer/ERC721A/test.sol\":7105:7834  if (!ownership.burned) {... */\n      tag_256\n      jumpi\n        /* \"Dcoffer/ERC721A/test.sol\":7181:7182  0 */\n      0x00\n        /* \"Dcoffer/ERC721A/test.sol\":7155:7183  ownership.addr != address(0) */\n      0xffffffffffffffffffffffffffffffffffffffff\n      and\n        /* \"Dcoffer/ERC721A/test.sol\":7155:7164  ownership */\n      dup2\n        /* \"Dcoffer/ERC721A/test.sol\":7155:7169  ownership.addr */\n      0x00\n      add\n      mload\n        /* \"Dcoffer/ERC721A/test.sol\":7155:7183  ownership.addr != address(0) */\n      0xffffffffffffffffffffffffffffffffffffffff\n      and\n      eq\n        /* \"Dcoffer/ERC721A/test.sol\":7151:7252  if (ownership.addr != address(0)) {... */\n      tag_257\n      jumpi\n        /* \"Dcoffer/ERC721A/test.sol\":7219:7228  ownership */\n      dup1\n        /* \"Dcoffer/ERC721A/test.sol\":7212:7228  return ownership */\n      swap3\n      pop\n      pop\n      pop\n      jump(tag_252)\n        /* \"Dcoffer/ERC721A/test.sol\":7151:7252  if (ownership.addr != address(0)) {... */\n    tag_257:\n        /* \"Dcoffer/ERC721A/test.sol\":7554:7815  while (true) {... */\n    tag_258:\n        /* \"Dcoffer/ERC721A/test.sol\":7561:7565  true */\n      0x01\n        /* \"Dcoffer/ERC721A/test.sol\":7554:7815  while (true) {... */\n      iszero\n      tag_259\n      jumpi\n        /* \"Dcoffer/ERC721A/test.sol\":7594:7600  curr-- */\n      dup2\n      dup1\n      0x01\n      swap1\n      sub\n      swap3\n      pop\n      pop\n        /* \"Dcoffer/ERC721A/test.sol\":7639:7650  _ownerships */\n      0x09\n        /* \"Dcoffer/ERC721A/test.sol\":7639:7656  _ownerships[curr] */\n      0x00\n        /* \"Dcoffer/ERC721A/test.sol\":7651:7655  curr */\n      dup4\n        /* \"Dcoffer/ERC721A/test.sol\":7639:7656  _ownerships[curr] */\n      dup2\n      mstore\n      0x20\n      add\n      swap1\n      dup2\n      mstore\n      0x20\n      add\n      0x00\n      keccak256\n        /* \"Dcoffer/ERC721A/test.sol\":7627:7656  ownership = _ownerships[curr] */\n      mload(0x40)\n      dup1\n      0x60\n      add\n      0x40\n      mstore\n      swap1\n      dup2\n      0x00\n      dup3\n      add\n      0x00\n      swap1\n      sload\n      swap1\n      0x0100\n      exp\n      swap1\n      div\n      0xffffffffffffffffffffffffffffffffffffffff\n      and\n      0xffffffffffffffffffffffffffffffffffffffff\n      and\n      0xffffffffffffffffffffffffffffffffffffffff\n      and\n      dup2\n      mstore\n      0x20\n      add\n      0x00\n      dup3\n      add\n      0x14\n      swap1\n      sload\n      swap1\n      0x0100\n      exp\n      swap1\n      div\n      0xffffffffffffffff\n      and\n      0xffffffffffffffff\n      and\n      0xffffffffffffffff\n      and\n      dup2\n      mstore\n      0x20\n      add\n      0x00\n      dup3\n      add\n      0x1c\n      swap1\n      sload\n      swap1\n      0x0100\n      exp\n      swap1\n      div\n      0xff\n      and\n      iszero\n      iszero\n      iszero\n      iszero\n      dup2\n      mstore\n      pop\n      pop\n      swap1\n      pop\n        /* \"Dcoffer/ERC721A/test.sol\":7713:7714  0 */\n      0x00\n        /* \"Dcoffer/ERC721A/test.sol\":7687:7715  ownership.addr != address(0) */\n      0xffffffffffffffffffffffffffffffffffffffff\n      and\n        /* \"Dcoffer/ERC721A/test.sol\":7687:7696  ownership */\n      dup2\n        /* \"Dcoffer/ERC721A/test.sol\":7687:7701  ownership.addr */\n      0x00\n      add\n      mload\n        /* \"Dcoffer/ERC721A/test.sol\":7687:7715  ownership.addr != address(0) */\n      0xffffffffffffffffffffffffffffffffffffffff\n      and\n      eq\n        /* \"Dcoffer/ERC721A/test.sol\":7683:7792  if (ownership.addr != address(0)) {... */\n      tag_260\n      jumpi\n        /* \"Dcoffer/ERC721A/test.sol\":7755:7764  ownership */\n      dup1\n        /* \"Dcoffer/ERC721A/test.sol\":7748:7764  return ownership */\n      swap3\n      pop\n      pop\n      pop\n      jump(tag_252)\n        /* \"Dcoffer/ERC721A/test.sol\":7683:7792  if (ownership.addr != address(0)) {... */\n    tag_260:\n        /* \"Dcoffer/ERC721A/test.sol\":7554:7815  while (true) {... */\n      jump(tag_258)\n    tag_259:\n        /* \"Dcoffer/ERC721A/test.sol\":7105:7834  if (!ownership.burned) {... */\n    tag_256:\n        /* \"Dcoffer/ERC721A/test.sol\":7016:7849  {... */\n      pop\n        /* \"Dcoffer/ERC721A/test.sol\":6990:7849  if (curr < _currentIndex) {... */\n    tag_255:\n        /* \"Dcoffer/ERC721A/test.sol\":6961:7849  if (_startTokenId() <= curr) if (curr < _currentIndex) {... */\n    tag_254:\n        /* \"Dcoffer/ERC721A/test.sol\":7877:7908  OwnerQueryForNonexistentToken() */\n      mload(0x40)\n      0xdf2d9b4200000000000000000000000000000000000000000000000000000000\n      dup2\n      mstore\n      0x04\n      add\n      mload(0x40)\n      dup1\n      swap2\n      sub\n      swap1\n      revert\n        /* \"Dcoffer/ERC721A/test.sol\":6805:7916  function _ownershipOf(uint256 tokenId) internal view returns (TokenOwnership memory) {... */\n    tag_252:\n      swap2\n      swap1\n      pop\n      jump\t// out\n        /* \"@openzeppelin/contracts/utils/Address.sol\":1175:1495  function isContract(address account) internal view returns (bool) {... */\n    tag_177:\n        /* \"@openzeppelin/contracts/utils/Address.sol\":1235:1239  bool */\n      0x00\n        /* \"@openzeppelin/contracts/utils/Address.sol\":1487:1488  0 */\n      dup1\n        /* \"@openzeppelin/contracts/utils/Address.sol\":1465:1472  account */\n      dup3\n        /* \"@openzeppelin/contracts/utils/Address.sol\":1465:1484  account.code.length */\n      0xffffffffffffffffffffffffffffffffffffffff\n      and\n      extcodesize\n        /* \"@openzeppelin/contracts/utils/Address.sol\":1465:1488  account.code.length > 0 */\n      gt\n        /* \"@openzeppelin/contracts/utils/Address.sol\":1458:1488  return account.code.length > 0 */\n      swap1\n      pop\n        /* \"@openzeppelin/contracts/utils/Address.sol\":1175:1495  function isContract(address account) internal view returns (bool) {... */\n      swap2\n      swap1\n      pop\n      jump\t// out\n        /* \"Dcoffer/ERC721A/test.sol\":20356:21023  function _checkContractOnERC721Received(... */\n    tag_180:\n        /* \"Dcoffer/ERC721A/test.sol\":20519:20523  bool */\n      0x00\n        /* \"Dcoffer/ERC721A/test.sol\":20556:20558  to */\n      dup4\n        /* \"Dcoffer/ERC721A/test.sol\":20540:20576  IERC721Receiver(to).onERC721Received */\n      0xffffffffffffffffffffffffffffffffffffffff\n      and\n      0x150b7a02\n        /* \"Dcoffer/ERC721A/test.sol\":20577:20589  _msgSender() */\n      tag_263\n        /* \"Dcoffer/ERC721A/test.sol\":20577:20587  _msgSender */\n      tag_135\n        /* \"Dcoffer/ERC721A/test.sol\":20577:20589  _msgSender() */\n      jump\t// in\n    tag_263:\n        /* \"Dcoffer/ERC721A/test.sol\":20591:20595  from */\n      dup8\n        /* \"Dcoffer/ERC721A/test.sol\":20597:20604  tokenId */\n      dup7\n        /* \"Dcoffer/ERC721A/test.sol\":20606:20611  _data */\n      dup7\n        /* \"Dcoffer/ERC721A/test.sol\":20540:20612  IERC721Receiver(to).onERC721Received(_msgSender(), from, tokenId, _data) */\n      mload(0x40)\n      dup6\n      0xffffffff\n      and\n      0xe0\n      shl\n      dup2\n      mstore\n      0x04\n      add\n      tag_264\n      swap5\n      swap4\n      swap3\n      swap2\n      swap1\n      tag_265\n      jump\t// in\n    tag_264:\n      0x20\n      mload(0x40)\n      dup1\n      dup4\n      sub\n      dup2\n      0x00\n      dup8\n      gas\n      call\n      swap3\n      pop\n      pop\n      pop\n      dup1\n      iszero\n      tag_266\n      jumpi\n      pop\n      mload(0x40)\n      returndatasize\n      not(0x1f)\n      0x1f\n      dup3\n      add\n      and\n      dup3\n      add\n      dup1\n      0x40\n      mstore\n      pop\n      dup2\n      add\n      swap1\n      tag_267\n      swap2\n      swap1\n      tag_268\n      jump\t// in\n    tag_267:\n      0x01\n    tag_266:\n        /* \"Dcoffer/ERC721A/test.sol\":20536:21016  try IERC721Receiver(to).onERC721Received(_msgSender(), from, tokenId, _data) returns (bytes4 retval) {... */\n      tag_269\n      jumpi\n      returndatasize\n      dup1\n      0x00\n      dup2\n      eq\n      tag_274\n      jumpi\n      mload(0x40)\n      swap2\n      pop\n      and(add(returndatasize, 0x3f), not(0x1f))\n      dup3\n      add\n      0x40\n      mstore\n      returndatasize\n      dup3\n      mstore\n      returndatasize\n      0x00\n      0x20\n      dup5\n      add\n      returndatacopy\n      jump(tag_273)\n    tag_274:\n      0x60\n      swap2\n      pop\n    tag_273:\n      pop\n        /* \"Dcoffer/ERC721A/test.sol\":20791:20792  0 */\n      0x00\n        /* \"Dcoffer/ERC721A/test.sol\":20774:20780  reason */\n      dup2\n        /* \"Dcoffer/ERC721A/test.sol\":20774:20787  reason.length */\n      mload\n        /* \"Dcoffer/ERC721A/test.sol\":20774:20792  reason.length == 0 */\n      sub\n        /* \"Dcoffer/ERC721A/test.sol\":20770:21005  if (reason.length == 0) {... */\n      tag_275\n      jumpi\n        /* \"Dcoffer/ERC721A/test.sol\":20820:20860  TransferToNonERC721ReceiverImplementer() */\n      mload(0x40)\n      0xd1a57ed600000000000000000000000000000000000000000000000000000000\n      dup2\n      mstore\n      0x04\n      add\n      mload(0x40)\n      dup1\n      swap2\n      sub\n      swap1\n      revert\n        /* \"Dcoffer/ERC721A/test.sol\":20770:21005  if (reason.length == 0) {... */\n    tag_275:\n        /* \"Dcoffer/ERC721A/test.sol\":20963:20969  reason */\n      dup1\n        /* \"Dcoffer/ERC721A/test.sol\":20957:20970  mload(reason) */\n      mload\n        /* \"Dcoffer/ERC721A/test.sol\":20948:20954  reason */\n      dup2\n        /* \"Dcoffer/ERC721A/test.sol\":20944:20946  32 */\n      0x20\n        /* \"Dcoffer/ERC721A/test.sol\":20940:20955  add(32, reason) */\n      add\n        /* \"Dcoffer/ERC721A/test.sol\":20933:20971  revert(add(32, reason), mload(reason)) */\n      revert\n        /* \"Dcoffer/ERC721A/test.sol\":20536:21016  try IERC721Receiver(to).onERC721Received(_msgSender(), from, tokenId, _data) returns (bytes4 retval) {... */\n    tag_269:\n        /* \"Dcoffer/ERC721A/test.sol\":20669:20714  IERC721Receiver(to).onERC721Received.selector */\n      shl(0xe0, 0x150b7a02)\n        /* \"Dcoffer/ERC721A/test.sol\":20659:20714  retval == IERC721Receiver(to).onERC721Received.selector */\n      not(0xffffffffffffffffffffffffffffffffffffffffffffffffffffffff)\n      and\n        /* \"Dcoffer/ERC721A/test.sol\":20659:20665  retval */\n      dup2\n        /* \"Dcoffer/ERC721A/test.sol\":20659:20714  retval == IERC721Receiver(to).onERC721Received.selector */\n      not(0xffffffffffffffffffffffffffffffffffffffffffffffffffffffff)\n      and\n      eq\n        /* \"Dcoffer/ERC721A/test.sol\":20652:20714  return retval == IERC721Receiver(to).onERC721Received.selector */\n      swap2\n      pop\n      pop\n        /* \"Dcoffer/ERC721A/test.sol\":20356:21023  function _checkContractOnERC721Received(... */\n      swap5\n      swap4\n      pop\n      pop\n      pop\n      pop\n      jump\t// out\n        /* \"@openzeppelin/contracts/utils/math/SafeMath.sol\":3122:3218  function sub(uint256 a, uint256 b) internal pure returns (uint256) {... */\n    tag_185:\n        /* \"@openzeppelin/contracts/utils/math/SafeMath.sol\":3180:3187  uint256 */\n      0x00\n        /* \"@openzeppelin/contracts/utils/math/SafeMath.sol\":3210:3211  b */\n      dup2\n        /* \"@openzeppelin/contracts/utils/math/SafeMath.sol\":3206:3207  a */\n      dup4\n        /* \"@openzeppelin/contracts/utils/math/SafeMath.sol\":3206:3211  a - b */\n      tag_279\n      swap2\n      swap1\n      tag_280\n      jump\t// in\n    tag_279:\n        /* \"@openzeppelin/contracts/utils/math/SafeMath.sol\":3199:3211  return a - b */\n      swap1\n      pop\n        /* \"@openzeppelin/contracts/utils/math/SafeMath.sol\":3122:3218  function sub(uint256 a, uint256 b) internal pure returns (uint256) {... */\n      swap3\n      swap2\n      pop\n      pop\n      jump\t// out\n        /* \"@openzeppelin/contracts/utils/math/SafeMath.sol\":2755:2851  function add(uint256 a, uint256 b) internal pure returns (uint256) {... */\n    tag_186:\n        /* \"@openzeppelin/contracts/utils/math/SafeMath.sol\":2813:2820  uint256 */\n      0x00\n        /* \"@openzeppelin/contracts/utils/math/SafeMath.sol\":2843:2844  b */\n      dup2\n        /* \"@openzeppelin/contracts/utils/math/SafeMath.sol\":2839:2840  a */\n      dup4\n        /* \"@openzeppelin/contracts/utils/math/SafeMath.sol\":2839:2844  a + b */\n      tag_282\n      swap2\n      swap1\n      tag_283\n      jump\t// in\n    tag_282:\n        /* \"@openzeppelin/contracts/utils/math/SafeMath.sol\":2832:2844  return a + b */\n      swap1\n      pop\n        /* \"@openzeppelin/contracts/utils/math/SafeMath.sol\":2755:2851  function add(uint256 a, uint256 b) internal pure returns (uint256) {... */\n      swap3\n      swap2\n      pop\n      pop\n      jump\t// out\n        /* \"Dcoffer/ERC721A/test.sol\":9080:9265  function _baseURI() internal view virtual returns (string memory) {... */\n    tag_199:\n        /* \"Dcoffer/ERC721A/test.sol\":9131:9144  string memory */\n      0x60\n        /* \"Dcoffer/ERC721A/test.sol\":9157:9247  return 'https://gateway.pinata.cloud/ipfs/QmeyKnvXXMxAuWG5pt35Ez8QhJhR63RDVSwUfsjKayR42Z/' */\n      mload(0x40)\n      dup1\n      0x80\n      add\n      0x40\n      mstore\n      dup1\n      0x51\n      dup2\n      mstore\n      0x20\n      add\n      data_626642f6930f156f677ccaa99d1115840f2527d6f062eede1de4dda1bd081a2d\n      0x51\n      swap2\n      codecopy\n      swap1\n      pop\n        /* \"Dcoffer/ERC721A/test.sol\":9080:9265  function _baseURI() internal view virtual returns (string memory) {... */\n      swap1\n      jump\t// out\n        /* \"@openzeppelin/contracts/utils/Strings.sol\":392:1095  function toString(uint256 value) internal pure returns (string memory) {... */\n    tag_203:\n        /* \"@openzeppelin/contracts/utils/Strings.sol\":448:461  string memory */\n      0x60\n        /* \"@openzeppelin/contracts/utils/Strings.sol\":674:675  0 */\n      0x00\n        /* \"@openzeppelin/contracts/utils/Strings.sol\":665:670  value */\n      dup3\n        /* \"@openzeppelin/contracts/utils/Strings.sol\":665:675  value == 0 */\n      sub\n        /* \"@openzeppelin/contracts/utils/Strings.sol\":661:712  if (value == 0) {... */\n      tag_286\n      jumpi\n        /* \"@openzeppelin/contracts/utils/Strings.sol\":691:701  return \"0\" */\n      mload(0x40)\n      dup1\n      0x40\n      add\n      0x40\n      mstore\n      dup1\n      0x01\n      dup2\n      mstore\n      0x20\n      add\n      0x3000000000000000000000000000000000000000000000000000000000000000\n      dup2\n      mstore\n      pop\n      swap1\n      pop\n      jump(tag_285)\n        /* \"@openzeppelin/contracts/utils/Strings.sol\":661:712  if (value == 0) {... */\n    tag_286:\n        /* \"@openzeppelin/contracts/utils/Strings.sol\":721:733  uint256 temp */\n      0x00\n        /* \"@openzeppelin/contracts/utils/Strings.sol\":736:741  value */\n      dup3\n        /* \"@openzeppelin/contracts/utils/Strings.sol\":721:741  uint256 temp = value */\n      swap1\n      pop\n        /* \"@openzeppelin/contracts/utils/Strings.sol\":751:765  uint256 digits */\n      0x00\n        /* \"@openzeppelin/contracts/utils/Strings.sol\":775:850  while (temp != 0) {... */\n    tag_287:\n        /* \"@openzeppelin/contracts/utils/Strings.sol\":790:791  0 */\n      0x00\n        /* \"@openzeppelin/contracts/utils/Strings.sol\":782:786  temp */\n      dup3\n        /* \"@openzeppelin/contracts/utils/Strings.sol\":782:791  temp != 0 */\n      eq\n        /* \"@openzeppelin/contracts/utils/Strings.sol\":775:850  while (temp != 0) {... */\n      tag_288\n      jumpi\n        /* \"@openzeppelin/contracts/utils/Strings.sol\":807:815  digits++ */\n      dup1\n      dup1\n      tag_289\n      swap1\n      tag_290\n      jump\t// in\n    tag_289:\n      swap2\n      pop\n      pop\n        /* \"@openzeppelin/contracts/utils/Strings.sol\":837:839  10 */\n      0x0a\n        /* \"@openzeppelin/contracts/utils/Strings.sol\":829:839  temp /= 10 */\n      dup3\n      tag_291\n      swap2\n      swap1\n      tag_249\n      jump\t// in\n    tag_291:\n      swap2\n      pop\n        /* \"@openzeppelin/contracts/utils/Strings.sol\":775:850  while (temp != 0) {... */\n      jump(tag_287)\n    tag_288:\n        /* \"@openzeppelin/contracts/utils/Strings.sol\":859:878  bytes memory buffer */\n      0x00\n        /* \"@openzeppelin/contracts/utils/Strings.sol\":891:897  digits */\n      dup2\n        /* \"@openzeppelin/contracts/utils/Strings.sol\":881:898  new bytes(digits) */\n      0xffffffffffffffff\n      dup2\n      gt\n      iszero\n      tag_292\n      jumpi\n      tag_293\n      tag_294\n      jump\t// in\n    tag_293:\n    tag_292:\n      mload(0x40)\n      swap1\n      dup1\n      dup3\n      mstore\n      dup1\n      0x1f\n      add\n      not(0x1f)\n      and\n      0x20\n      add\n      dup3\n      add\n      0x40\n      mstore\n      dup1\n      iszero\n      tag_295\n      jumpi\n      dup2\n      0x20\n      add\n      0x01\n      dup3\n      mul\n      dup1\n      calldatasize\n      dup4\n      calldatacopy\n      dup1\n      dup3\n      add\n      swap2\n      pop\n      pop\n      swap1\n      pop\n    tag_295:\n      pop\n        /* \"@openzeppelin/contracts/utils/Strings.sol\":859:898  bytes memory buffer = new bytes(digits) */\n      swap1\n      pop\n        /* \"@openzeppelin/contracts/utils/Strings.sol\":908:1058  while (value != 0) {... */\n    tag_296:\n        /* \"@openzeppelin/contracts/utils/Strings.sol\":924:925  0 */\n      0x00\n        /* \"@openzeppelin/contracts/utils/Strings.sol\":915:920  value */\n      dup6\n        /* \"@openzeppelin/contracts/utils/Strings.sol\":915:925  value != 0 */\n      eq\n        /* \"@openzeppelin/contracts/utils/Strings.sol\":908:1058  while (value != 0) {... */\n      tag_297\n      jumpi\n        /* \"@openzeppelin/contracts/utils/Strings.sol\":951:952  1 */\n      0x01\n        /* \"@openzeppelin/contracts/utils/Strings.sol\":941:952  digits -= 1 */\n      dup3\n      tag_298\n      swap2\n      swap1\n      tag_280\n      jump\t// in\n    tag_298:\n      swap2\n      pop\n        /* \"@openzeppelin/contracts/utils/Strings.sol\":1017:1019  10 */\n      0x0a\n        /* \"@openzeppelin/contracts/utils/Strings.sol\":1009:1014  value */\n      dup6\n        /* \"@openzeppelin/contracts/utils/Strings.sol\":1009:1019  value % 10 */\n      tag_299\n      swap2\n      swap1\n      tag_213\n      jump\t// in\n    tag_299:\n        /* \"@openzeppelin/contracts/utils/Strings.sol\":996:998  48 */\n      0x30\n        /* \"@openzeppelin/contracts/utils/Strings.sol\":996:1020  48 + uint256(value % 10) */\n      tag_300\n      swap2\n      swap1\n      tag_283\n      jump\t// in\n    tag_300:\n        /* \"@openzeppelin/contracts/utils/Strings.sol\":983:1022  bytes1(uint8(48 + uint256(value % 10))) */\n      0xf8\n      shl\n        /* \"@openzeppelin/contracts/utils/Strings.sol\":966:972  buffer */\n      dup2\n        /* \"@openzeppelin/contracts/utils/Strings.sol\":973:979  digits */\n      dup4\n        /* \"@openzeppelin/contracts/utils/Strings.sol\":966:980  buffer[digits] */\n      dup2\n      mload\n      dup2\n      lt\n      tag_301\n      jumpi\n      tag_302\n      tag_303\n      jump\t// in\n    tag_302:\n    tag_301:\n      0x20\n      add\n      add\n        /* \"@openzeppelin/contracts/utils/Strings.sol\":966:1022  buffer[digits] = bytes1(uint8(48 + uint256(value % 10))) */\n      swap1\n      not(0xffffffffffffffffffffffffffffffffffffffffffffffffffffffffffffff)\n      and\n      swap1\n      dup2\n      0x00\n      byte\n      swap1\n      mstore8\n      pop\n        /* \"@openzeppelin/contracts/utils/Strings.sol\":1045:1047  10 */\n      0x0a\n        /* \"@openzeppelin/contracts/utils/Strings.sol\":1036:1047  value /= 10 */\n      dup6\n      tag_304\n      swap2\n      swap1\n      tag_249\n      jump\t// in\n    tag_304:\n      swap5\n      pop\n        /* \"@openzeppelin/contracts/utils/Strings.sol\":908:1058  while (value != 0) {... */\n      jump(tag_296)\n    tag_297:\n        /* \"@openzeppelin/contracts/utils/Strings.sol\":1081:1087  buffer */\n      dup1\n        /* \"@openzeppelin/contracts/utils/Strings.sol\":1067:1088  return string(buffer) */\n      swap4\n      pop\n      pop\n      pop\n      pop\n        /* \"@openzeppelin/contracts/utils/Strings.sol\":392:1095  function toString(uint256 value) internal pure returns (string memory) {... */\n    tag_285:\n      swap2\n      swap1\n      pop\n      jump\t// out\n        /* \"Dcoffer/ERC721A/test.sol\":21671:21830  function _beforeTokenTransfers(... */\n    tag_238:\n      pop\n      pop\n      pop\n      pop\n      jump\t// out\n        /* \"Dcoffer/ERC721A/test.sol\":22489:22647  function _afterTokenTransfers(... */\n    tag_243:\n      pop\n      pop\n      pop\n      pop\n      jump\t// out\n    tag_251:\n      mload(0x40)\n      dup1\n      0x60\n      add\n      0x40\n      mstore\n      dup1\n      and(0xffffffffffffffffffffffffffffffffffffffff, 0x00)\n      dup2\n      mstore\n      0x20\n      add\n      and(0xffffffffffffffff, 0x00)\n      dup2\n      mstore\n      0x20\n      add\n      iszero(iszero(0x00))\n      dup2\n      mstore\n      pop\n      swap1\n      jump\t// out\n        /* \"#utility.yul\":7:82   */\n    tag_307:\n        /* \"#utility.yul\":40:46   */\n      0x00\n        /* \"#utility.yul\":73:75   */\n      0x40\n        /* \"#utility.yul\":67:76   */\n      mload\n        /* \"#utility.yul\":57:76   */\n      swap1\n      pop\n        /* \"#utility.yul\":7:82   */\n      swap1\n      jump\t// out\n        /* \"#utility.yul\":88:205   */\n    tag_308:\n        /* \"#utility.yul\":197:198   */\n      0x00\n        /* \"#utility.yul\":194:195   */\n      dup1\n        /* \"#utility.yul\":187:199   */\n      revert\n        /* \"#utility.yul\":211:328   */\n    tag_309:\n        /* \"#utility.yul\":320:321   */\n      0x00\n        /* \"#utility.yul\":317:318   */\n      dup1\n        /* \"#utility.yul\":310:322   */\n      revert\n        /* \"#utility.yul\":334:483   */\n    tag_310:\n        /* \"#utility.yul\":370:377   */\n      0x00\n        /* \"#utility.yul\":410:476   */\n      0xffffffff00000000000000000000000000000000000000000000000000000000\n        /* \"#utility.yul\":403:408   */\n      dup3\n        /* \"#utility.yul\":399:477   */\n      and\n        /* \"#utility.yul\":388:477   */\n      swap1\n      pop\n        /* \"#utility.yul\":334:483   */\n      swap2\n      swap1\n      pop\n      jump\t// out\n        /* \"#utility.yul\":489:609   */\n    tag_311:\n        /* \"#utility.yul\":561:584   */\n      tag_354\n        /* \"#utility.yul\":578:583   */\n      dup2\n        /* \"#utility.yul\":561:584   */\n      tag_310\n      jump\t// in\n    tag_354:\n        /* \"#utility.yul\":554:559   */\n      dup2\n        /* \"#utility.yul\":551:585   */\n      eq\n        /* \"#utility.yul\":541:603   */\n      tag_355\n      jumpi\n        /* \"#utility.yul\":599:600   */\n      0x00\n        /* \"#utility.yul\":596:597   */\n      dup1\n        /* \"#utility.yul\":589:601   */\n      revert\n        /* \"#utility.yul\":541:603   */\n    tag_355:\n        /* \"#utility.yul\":489:609   */\n      pop\n      jump\t// out\n        /* \"#utility.yul\":615:752   */\n    tag_312:\n        /* \"#utility.yul\":660:665   */\n      0x00\n        /* \"#utility.yul\":698:704   */\n      dup2\n        /* \"#utility.yul\":685:705   */\n      calldataload\n        /* \"#utility.yul\":676:705   */\n      swap1\n      pop\n        /* \"#utility.yul\":714:746   */\n      tag_357\n        /* \"#utility.yul\":740:745   */\n      dup2\n        /* \"#utility.yul\":714:746   */\n      tag_311\n      jump\t// in\n    tag_357:\n        /* \"#utility.yul\":615:752   */\n      swap3\n      swap2\n      pop\n      pop\n      jump\t// out\n        /* \"#utility.yul\":758:1085   */\n    tag_30:\n        /* \"#utility.yul\":816:822   */\n      0x00\n        /* \"#utility.yul\":865:867   */\n      0x20\n        /* \"#utility.yul\":853:862   */\n      dup3\n        /* \"#utility.yul\":844:851   */\n      dup5\n        /* \"#utility.yul\":840:863   */\n      sub\n        /* \"#utility.yul\":836:868   */\n      slt\n        /* \"#utility.yul\":833:952   */\n      iszero\n      tag_359\n      jumpi\n        /* \"#utility.yul\":871:950   */\n      tag_360\n      tag_308\n      jump\t// in\n    tag_360:\n        /* \"#utility.yul\":833:952   */\n    tag_359:\n        /* \"#utility.yul\":991:992   */\n      0x00\n        /* \"#utility.yul\":1016:1068   */\n      tag_361\n        /* \"#utility.yul\":1060:1067   */\n      dup5\n        /* \"#utility.yul\":1051:1057   */\n      dup3\n        /* \"#utility.yul\":1040:1049   */\n      dup6\n        /* \"#utility.yul\":1036:1058   */\n      add\n        /* \"#utility.yul\":1016:1068   */\n      tag_312\n      jump\t// in\n    tag_361:\n        /* \"#utility.yul\":1006:1068   */\n      swap2\n      pop\n        /* \"#utility.yul\":962:1078   */\n      pop\n        /* \"#utility.yul\":758:1085   */\n      swap3\n      swap2\n      pop\n      pop\n      jump\t// out\n        /* \"#utility.yul\":1091:1181   */\n    tag_313:\n        /* \"#utility.yul\":1125:1132   */\n      0x00\n        /* \"#utility.yul\":1168:1173   */\n      dup2\n        /* \"#utility.yul\":1161:1174   */\n      iszero\n        /* \"#utility.yul\":1154:1175   */\n      iszero\n        /* \"#utility.yul\":1143:1175   */\n      swap1\n      pop\n        /* \"#utility.yul\":1091:1181   */\n      swap2\n      swap1\n      pop\n      jump\t// out\n        /* \"#utility.yul\":1187:1296   */\n    tag_314:\n        /* \"#utility.yul\":1268:1289   */\n      tag_364\n        /* \"#utility.yul\":1283:1288   */\n      dup2\n        /* \"#utility.yul\":1268:1289   */\n      tag_313\n      jump\t// in\n    tag_364:\n        /* \"#utility.yul\":1263:1266   */\n      dup3\n        /* \"#utility.yul\":1256:1290   */\n      mstore\n        /* \"#utility.yul\":1187:1296   */\n      pop\n      pop\n      jump\t// out\n        /* \"#utility.yul\":1302:1512   */\n    tag_33:\n        /* \"#utility.yul\":1389:1393   */\n      0x00\n        /* \"#utility.yul\":1427:1429   */\n      0x20\n        /* \"#utility.yul\":1416:1425   */\n      dup3\n        /* \"#utility.yul\":1412:1430   */\n      add\n        /* \"#utility.yul\":1404:1430   */\n      swap1\n      pop\n        /* \"#utility.yul\":1440:1505   */\n      tag_366\n        /* \"#utility.yul\":1502:1503   */\n      0x00\n        /* \"#utility.yul\":1491:1500   */\n      dup4\n        /* \"#utility.yul\":1487:1504   */\n      add\n        /* \"#utility.yul\":1478:1484   */\n      dup5\n        /* \"#utility.yul\":1440:1505   */\n      tag_314\n      jump\t// in\n    tag_366:\n        /* \"#utility.yul\":1302:1512   */\n      swap3\n      swap2\n      pop\n      pop\n      jump\t// out\n        /* \"#utility.yul\":1518:1617   */\n    tag_315:\n        /* \"#utility.yul\":1570:1576   */\n      0x00\n        /* \"#utility.yul\":1604:1609   */\n      dup2\n        /* \"#utility.yul\":1598:1610   */\n      mload\n        /* \"#utility.yul\":1588:1610   */\n      swap1\n      pop\n        /* \"#utility.yul\":1518:1617   */\n      swap2\n      swap1\n      pop\n      jump\t// out\n        /* \"#utility.yul\":1623:1792   */\n    tag_316:\n        /* \"#utility.yul\":1707:1718   */\n      0x00\n        /* \"#utility.yul\":1741:1747   */\n      dup3\n        /* \"#utility.yul\":1736:1739   */\n      dup3\n        /* \"#utility.yul\":1729:1748   */\n      mstore\n        /* \"#utility.yul\":1781:1785   */\n      0x20\n        /* \"#utility.yul\":1776:1779   */\n      dup3\n        /* \"#utility.yul\":1772:1786   */\n      add\n        /* \"#utility.yul\":1757:1786   */\n      swap1\n      pop\n        /* \"#utility.yul\":1623:1792   */\n      swap3\n      swap2\n      pop\n      pop\n      jump\t// out\n        /* \"#utility.yul\":1798:2044   */\n    tag_317:\n        /* \"#utility.yul\":1879:1880   */\n      0x00\n        /* \"#utility.yul\":1889:2002   */\n    tag_370:\n        /* \"#utility.yul\":1903:1909   */\n      dup4\n        /* \"#utility.yul\":1900:1901   */\n      dup2\n        /* \"#utility.yul\":1897:1910   */\n      lt\n        /* \"#utility.yul\":1889:2002   */\n      iszero\n      tag_372\n      jumpi\n        /* \"#utility.yul\":1988:1989   */\n      dup1\n        /* \"#utility.yul\":1983:1986   */\n      dup3\n        /* \"#utility.yul\":1979:1990   */\n      add\n        /* \"#utility.yul\":1973:1991   */\n      mload\n        /* \"#utility.yul\":1969:1970   */\n      dup2\n        /* \"#utility.yul\":1964:1967   */\n      dup5\n        /* \"#utility.yul\":1960:1971   */\n      add\n        /* \"#utility.yul\":1953:1992   */\n      mstore\n        /* \"#utility.yul\":1925:1927   */\n      0x20\n        /* \"#utility.yul\":1922:1923   */\n      dup2\n        /* \"#utility.yul\":1918:1928   */\n      add\n        /* \"#utility.yul\":1913:1928   */\n      swap1\n      pop\n        /* \"#utility.yul\":1889:2002   */\n      jump(tag_370)\n    tag_372:\n        /* \"#utility.yul\":2036:2037   */\n      0x00\n        /* \"#utility.yul\":2027:2033   */\n      dup5\n        /* \"#utility.yul\":2022:2025   */\n      dup5\n        /* \"#utility.yul\":2018:2034   */\n      add\n        /* \"#utility.yul\":2011:2038   */\n      mstore\n        /* \"#utility.yul\":1860:2044   */\n      pop\n        /* \"#utility.yul\":1798:2044   */\n      pop\n      pop\n      pop\n      jump\t// out\n        /* \"#utility.yul\":2050:2152   */\n    tag_318:\n        /* \"#utility.yul\":2091:2097   */\n      0x00\n        /* \"#utility.yul\":2142:2144   */\n      0x1f\n        /* \"#utility.yul\":2138:2145   */\n      not\n        /* \"#utility.yul\":2133:2135   */\n      0x1f\n        /* \"#utility.yul\":2126:2131   */\n      dup4\n        /* \"#utility.yul\":2122:2136   */\n      add\n        /* \"#utility.yul\":2118:2146   */\n      and\n        /* \"#utility.yul\":2108:2146   */\n      swap1\n      pop\n        /* \"#utility.yul\":2050:2152   */\n      swap2\n      swap1\n      pop\n      jump\t// out\n        /* \"#utility.yul\":2158:2535   */\n    tag_319:\n        /* \"#utility.yul\":2246:2249   */\n      0x00\n        /* \"#utility.yul\":2274:2313   */\n      tag_375\n        /* \"#utility.yul\":2307:2312   */\n      dup3\n        /* \"#utility.yul\":2274:2313   */\n      tag_315\n      jump\t// in\n    tag_375:\n        /* \"#utility.yul\":2329:2400   */\n      tag_376\n        /* \"#utility.yul\":2393:2399   */\n      dup2\n        /* \"#utility.yul\":2388:2391   */\n      dup6\n        /* \"#utility.yul\":2329:2400   */\n      tag_316\n      jump\t// in\n    tag_376:\n        /* \"#utility.yul\":2322:2400   */\n      swap4\n      pop\n        /* \"#utility.yul\":2409:2474   */\n      tag_377\n        /* \"#utility.yul\":2467:2473   */\n      dup2\n        /* \"#utility.yul\":2462:2465   */\n      dup6\n        /* \"#utility.yul\":2455:2459   */\n      0x20\n        /* \"#utility.yul\":2448:2453   */\n      dup7\n        /* \"#utility.yul\":2444:2460   */\n      add\n        /* \"#utility.yul\":2409:2474   */\n      tag_317\n      jump\t// in\n    tag_377:\n        /* \"#utility.yul\":2499:2528   */\n      tag_378\n        /* \"#utility.yul\":2521:2527   */\n      dup2\n        /* \"#utility.yul\":2499:2528   */\n      tag_318\n      jump\t// in\n    tag_378:\n        /* \"#utility.yul\":2494:2497   */\n      dup5\n        /* \"#utility.yul\":2490:2529   */\n      add\n        /* \"#utility.yul\":2483:2529   */\n      swap2\n      pop\n        /* \"#utility.yul\":2250:2535   */\n      pop\n        /* \"#utility.yul\":2158:2535   */\n      swap3\n      swap2\n      pop\n      pop\n      jump\t// out\n        /* \"#utility.yul\":2541:2854   */\n    tag_37:\n        /* \"#utility.yul\":2654:2658   */\n      0x00\n        /* \"#utility.yul\":2692:2694   */\n      0x20\n        /* \"#utility.yul\":2681:2690   */\n      dup3\n        /* \"#utility.yul\":2677:2695   */\n      add\n        /* \"#utility.yul\":2669:2695   */\n      swap1\n      pop\n        /* \"#utility.yul\":2741:2750   */\n      dup2\n        /* \"#utility.yul\":2735:2739   */\n      dup2\n        /* \"#utility.yul\":2731:2751   */\n      sub\n        /* \"#utility.yul\":2727:2728   */\n      0x00\n        /* \"#utility.yul\":2716:2725   */\n      dup4\n        /* \"#utility.yul\":2712:2729   */\n      add\n        /* \"#utility.yul\":2705:2752   */\n      mstore\n        /* \"#utility.yul\":2769:2847   */\n      tag_380\n        /* \"#utility.yul\":2842:2846   */\n      dup2\n        /* \"#utility.yul\":2833:2839   */\n      dup5\n        /* \"#utility.yul\":2769:2847   */\n      tag_319\n      jump\t// in\n    tag_380:\n        /* \"#utility.yul\":2761:2847   */\n      swap1\n      pop\n        /* \"#utility.yul\":2541:2854   */\n      swap3\n      swap2\n      pop\n      pop\n      jump\t// out\n        /* \"#utility.yul\":2860:2937   */\n    tag_320:\n        /* \"#utility.yul\":2897:2904   */\n      0x00\n        /* \"#utility.yul\":2926:2931   */\n      dup2\n        /* \"#utility.yul\":2915:2931   */\n      swap1\n      pop\n        /* \"#utility.yul\":2860:2937   */\n      swap2\n      swap1\n      pop\n      jump\t// out\n        /* \"#utility.yul\":2943:3065   */\n    tag_321:\n        /* \"#utility.yul\":3016:3040   */\n      tag_383\n        /* \"#utility.yul\":3034:3039   */\n      dup2\n        /* \"#utility.yul\":3016:3040   */\n      tag_320\n      jump\t// in\n    tag_383:\n        /* \"#utility.yul\":3009:3014   */\n      dup2\n        /* \"#utility.yul\":3006:3041   */\n      eq\n        /* \"#utility.yul\":2996:3059   */\n      tag_384\n      jumpi\n        /* \"#utility.yul\":3055:3056   */\n      0x00\n        /* \"#utility.yul\":3052:3053   */\n      dup1\n        /* \"#utility.yul\":3045:3057   */\n      revert\n        /* \"#utility.yul\":2996:3059   */\n    tag_384:\n        /* \"#utility.yul\":2943:3065   */\n      pop\n      jump\t// out\n        /* \"#utility.yul\":3071:3210   */\n    tag_322:\n        /* \"#utility.yul\":3117:3122   */\n      0x00\n        /* \"#utility.yul\":3155:3161   */\n      dup2\n        /* \"#utility.yul\":3142:3162   */\n      calldataload\n        /* \"#utility.yul\":3133:3162   */\n      swap1\n      pop\n        /* \"#utility.yul\":3171:3204   */\n      tag_386\n        /* \"#utility.yul\":3198:3203   */\n      dup2\n        /* \"#utility.yul\":3171:3204   */\n      tag_321\n      jump\t// in\n    tag_386:\n        /* \"#utility.yul\":3071:3210   */\n      swap3\n      swap2\n      pop\n      pop\n      jump\t// out\n        /* \"#utility.yul\":3216:3545   */\n    tag_40:\n        /* \"#utility.yul\":3275:3281   */\n      0x00\n        /* \"#utility.yul\":3324:3326   */\n      0x20\n        /* \"#utility.yul\":3312:3321   */\n      dup3\n        /* \"#utility.yul\":3303:3310   */\n      dup5\n        /* \"#utility.yul\":3299:3322   */\n      sub\n        /* \"#utility.yul\":3295:3327   */\n      slt\n        /* \"#utility.yul\":3292:3411   */\n      iszero\n      tag_388\n      jumpi\n        /* \"#utility.yul\":3330:3409   */\n      tag_389\n      tag_308\n      jump\t// in\n    tag_389:\n        /* \"#utility.yul\":3292:3411   */\n    tag_388:\n        /* \"#utility.yul\":3450:3451   */\n      0x00\n        /* \"#utility.yul\":3475:3528   */\n      tag_390\n        /* \"#utility.yul\":3520:3527   */\n      dup5\n        /* \"#utility.yul\":3511:3517   */\n      dup3\n        /* \"#utility.yul\":3500:3509   */\n      dup6\n        /* \"#utility.yul\":3496:3518   */\n      add\n        /* \"#utility.yul\":3475:3528   */\n      tag_322\n      jump\t// in\n    tag_390:\n        /* \"#utility.yul\":3465:3528   */\n      swap2\n      pop\n        /* \"#utility.yul\":3421:3538   */\n      pop\n        /* \"#utility.yul\":3216:3545   */\n      swap3\n      swap2\n      pop\n      pop\n      jump\t// out\n        /* \"#utility.yul\":3551:3677   */\n    tag_323:\n        /* \"#utility.yul\":3588:3595   */\n      0x00\n        /* \"#utility.yul\":3628:3670   */\n      0xffffffffffffffffffffffffffffffffffffffff\n        /* \"#utility.yul\":3621:3626   */\n      dup3\n        /* \"#utility.yul\":3617:3671   */\n      and\n        /* \"#utility.yul\":3606:3671   */\n      swap1\n      pop\n        /* \"#utility.yul\":3551:3677   */\n      swap2\n      swap1\n      pop\n      jump\t// out\n        /* \"#utility.yul\":3683:3779   */\n    tag_324:\n        /* \"#utility.yul\":3720:3727   */\n      0x00\n        /* \"#utility.yul\":3749:3773   */\n      tag_393\n        /* \"#utility.yul\":3767:3772   */\n      dup3\n        /* \"#utility.yul\":3749:3773   */\n      tag_323\n      jump\t// in\n    tag_393:\n        /* \"#utility.yul\":3738:3773   */\n      swap1\n      pop\n        /* \"#utility.yul\":3683:3779   */\n      swap2\n      swap1\n      pop\n      jump\t// out\n        /* \"#utility.yul\":3785:3903   */\n    tag_325:\n        /* \"#utility.yul\":3872:3896   */\n      tag_395\n        /* \"#utility.yul\":3890:3895   */\n      dup2\n        /* \"#utility.yul\":3872:3896   */\n      tag_324\n      jump\t// in\n    tag_395:\n        /* \"#utility.yul\":3867:3870   */\n      dup3\n        /* \"#utility.yul\":3860:3897   */\n      mstore\n        /* \"#utility.yul\":3785:3903   */\n      pop\n      pop\n      jump\t// out\n        /* \"#utility.yul\":3909:4131   */\n    tag_43:\n        /* \"#utility.yul\":4002:4006   */\n      0x00\n        /* \"#utility.yul\":4040:4042   */\n      0x20\n        /* \"#utility.yul\":4029:4038   */\n      dup3\n        /* \"#utility.yul\":4025:4043   */\n      add\n        /* \"#utility.yul\":4017:4043   */\n      swap1\n      pop\n        /* \"#utility.yul\":4053:4124   */\n      tag_397\n        /* \"#utility.yul\":4121:4122   */\n      0x00\n        /* \"#utility.yul\":4110:4119   */\n      dup4\n        /* \"#utility.yul\":4106:4123   */\n      add\n        /* \"#utility.yul\":4097:4103   */\n      dup5\n        /* \"#utility.yul\":4053:4124   */\n      tag_325\n      jump\t// in\n    tag_397:\n        /* \"#utility.yul\":3909:4131   */\n      swap3\n      swap2\n      pop\n      pop\n      jump\t// out\n        /* \"#utility.yul\":4137:4259   */\n    tag_326:\n        /* \"#utility.yul\":4210:4234   */\n      tag_399\n        /* \"#utility.yul\":4228:4233   */\n      dup2\n        /* \"#utility.yul\":4210:4234   */\n      tag_324\n      jump\t// in\n    tag_399:\n        /* \"#utility.yul\":4203:4208   */\n      dup2\n        /* \"#utility.yul\":4200:4235   */\n      eq\n        /* \"#utility.yul\":4190:4253   */\n      tag_400\n      jumpi\n        /* \"#utility.yul\":4249:4250   */\n      0x00\n        /* \"#utility.yul\":4246:4247   */\n      dup1\n        /* \"#utility.yul\":4239:4251   */\n      revert\n        /* \"#utility.yul\":4190:4253   */\n    tag_400:\n        /* \"#utility.yul\":4137:4259   */\n      pop\n      jump\t// out\n        /* \"#utility.yul\":4265:4404   */\n    tag_327:\n        /* \"#utility.yul\":4311:4316   */\n      0x00\n        /* \"#utility.yul\":4349:4355   */\n      dup2\n        /* \"#utility.yul\":4336:4356   */\n      calldataload\n        /* \"#utility.yul\":4327:4356   */\n      swap1\n      pop\n        /* \"#utility.yul\":4365:4398   */\n      tag_402\n        /* \"#utility.yul\":4392:4397   */\n      dup2\n        /* \"#utility.yul\":4365:4398   */\n      tag_326\n      jump\t// in\n    tag_402:\n        /* \"#utility.yul\":4265:4404   */\n      swap3\n      swap2\n      pop\n      pop\n      jump\t// out\n        /* \"#utility.yul\":4410:4884   */\n    tag_46:\n        /* \"#utility.yul\":4478:4484   */\n      0x00\n        /* \"#utility.yul\":4486:4492   */\n      dup1\n        /* \"#utility.yul\":4535:4537   */\n      0x40\n        /* \"#utility.yul\":4523:4532   */\n      dup4\n        /* \"#utility.yul\":4514:4521   */\n      dup6\n        /* \"#utility.yul\":4510:4533   */\n      sub\n        /* \"#utility.yul\":4506:4538   */\n      slt\n        /* \"#utility.yul\":4503:4622   */\n      iszero\n      tag_404\n      jumpi\n        /* \"#utility.yul\":4541:4620   */\n      tag_405\n      tag_308\n      jump\t// in\n    tag_405:\n        /* \"#utility.yul\":4503:4622   */\n    tag_404:\n        /* \"#utility.yul\":4661:4662   */\n      0x00\n        /* \"#utility.yul\":4686:4739   */\n      tag_406\n        /* \"#utility.yul\":4731:4738   */\n      dup6\n        /* \"#utility.yul\":4722:4728   */\n      dup3\n        /* \"#utility.yul\":4711:4720   */\n      dup7\n        /* \"#utility.yul\":4707:4729   */\n      add\n        /* \"#utility.yul\":4686:4739   */\n      tag_327\n      jump\t// in\n    tag_406:\n        /* \"#utility.yul\":4676:4739   */\n      swap3\n      pop\n        /* \"#utility.yul\":4632:4749   */\n      pop\n        /* \"#utility.yul\":4788:4790   */\n      0x20\n        /* \"#utility.yul\":4814:4867   */\n      tag_407\n        /* \"#utility.yul\":4859:4866   */\n      dup6\n        /* \"#utility.yul\":4850:4856   */\n      dup3\n        /* \"#utility.yul\":4839:4848   */\n      dup7\n        /* \"#utility.yul\":4835:4857   */\n      add\n        /* \"#utility.yul\":4814:4867   */\n      tag_322\n      jump\t// in\n    tag_407:\n        /* \"#utility.yul\":4804:4867   */\n      swap2\n      pop\n        /* \"#utility.yul\":4759:4877   */\n      pop\n        /* \"#utility.yul\":4410:4884   */\n      swap3\n      pop\n      swap3\n      swap1\n      pop\n      jump\t// out\n        /* \"#utility.yul\":4890:5008   */\n    tag_328:\n        /* \"#utility.yul\":4977:5001   */\n      tag_409\n        /* \"#utility.yul\":4995:5000   */\n      dup2\n        /* \"#utility.yul\":4977:5001   */\n      tag_320\n      jump\t// in\n    tag_409:\n        /* \"#utility.yul\":4972:4975   */\n      dup3\n        /* \"#utility.yul\":4965:5002   */\n      mstore\n        /* \"#utility.yul\":4890:5008   */\n      pop\n      pop\n      jump\t// out\n        /* \"#utility.yul\":5014:5236   */\n    tag_51:\n        /* \"#utility.yul\":5107:5111   */\n      0x00\n        /* \"#utility.yul\":5145:5147   */\n      0x20\n        /* \"#utility.yul\":5134:5143   */\n      dup3\n        /* \"#utility.yul\":5130:5148   */\n      add\n        /* \"#utility.yul\":5122:5148   */\n      swap1\n      pop\n        /* \"#utility.yul\":5158:5229   */\n      tag_411\n        /* \"#utility.yul\":5226:5227   */\n      0x00\n        /* \"#utility.yul\":5215:5224   */\n      dup4\n        /* \"#utility.yul\":5211:5228   */\n      add\n        /* \"#utility.yul\":5202:5208   */\n      dup5\n        /* \"#utility.yul\":5158:5229   */\n      tag_328\n      jump\t// in\n    tag_411:\n        /* \"#utility.yul\":5014:5236   */\n      swap3\n      swap2\n      pop\n      pop\n      jump\t// out\n        /* \"#utility.yul\":5242:5861   */\n    tag_54:\n        /* \"#utility.yul\":5319:5325   */\n      0x00\n        /* \"#utility.yul\":5327:5333   */\n      dup1\n        /* \"#utility.yul\":5335:5341   */\n      0x00\n        /* \"#utility.yul\":5384:5386   */\n      0x60\n        /* \"#utility.yul\":5372:5381   */\n      dup5\n        /* \"#utility.yul\":5363:5370   */\n      dup7\n        /* \"#utility.yul\":5359:5382   */\n      sub\n        /* \"#utility.yul\":5355:5387   */\n      slt\n        /* \"#utility.yul\":5352:5471   */\n      iszero\n      tag_413\n      jumpi\n        /* \"#utility.yul\":5390:5469   */\n      tag_414\n      tag_308\n      jump\t// in\n    tag_414:\n        /* \"#utility.yul\":5352:5471   */\n    tag_413:\n        /* \"#utility.yul\":5510:5511   */\n      0x00\n        /* \"#utility.yul\":5535:5588   */\n      tag_415\n        /* \"#utility.yul\":5580:5587   */\n      dup7\n        /* \"#utility.yul\":5571:5577   */\n      dup3\n        /* \"#utility.yul\":5560:5569   */\n      dup8\n        /* \"#utility.yul\":5556:5578   */\n      add\n        /* \"#utility.yul\":5535:5588   */\n      tag_327\n      jump\t// in\n    tag_415:\n        /* \"#utility.yul\":5525:5588   */\n      swap4\n      pop\n        /* \"#utility.yul\":5481:5598   */\n      pop\n        /* \"#utility.yul\":5637:5639   */\n      0x20\n        /* \"#utility.yul\":5663:5716   */\n      tag_416\n        /* \"#utility.yul\":5708:5715   */\n      dup7\n        /* \"#utility.yul\":5699:5705   */\n      dup3\n        /* \"#utility.yul\":5688:5697   */\n      dup8\n        /* \"#utility.yul\":5684:5706   */\n      add\n        /* \"#utility.yul\":5663:5716   */\n      tag_327\n      jump\t// in\n    tag_416:\n        /* \"#utility.yul\":5653:5716   */\n      swap3\n      pop\n        /* \"#utility.yul\":5608:5726   */\n      pop\n        /* \"#utility.yul\":5765:5767   */\n      0x40\n        /* \"#utility.yul\":5791:5844   */\n      tag_417\n        /* \"#utility.yul\":5836:5843   */\n      dup7\n        /* \"#utility.yul\":5827:5833   */\n      dup3\n        /* \"#utility.yul\":5816:5825   */\n      dup8\n        /* \"#utility.yul\":5812:5834   */\n      add\n        /* \"#utility.yul\":5791:5844   */\n      tag_322\n      jump\t// in\n    tag_417:\n        /* \"#utility.yul\":5781:5844   */\n      swap2\n      pop\n        /* \"#utility.yul\":5736:5854   */\n      pop\n        /* \"#utility.yul\":5242:5861   */\n      swap3\n      pop\n      swap3\n      pop\n      swap3\n      jump\t// out\n        /* \"#utility.yul\":5867:6196   */\n    tag_75:\n        /* \"#utility.yul\":5926:5932   */\n      0x00\n        /* \"#utility.yul\":5975:5977   */\n      0x20\n        /* \"#utility.yul\":5963:5972   */\n      dup3\n        /* \"#utility.yul\":5954:5961   */\n      dup5\n        /* \"#utility.yul\":5950:5973   */\n      sub\n        /* \"#utility.yul\":5946:5978   */\n      slt\n        /* \"#utility.yul\":5943:6062   */\n      iszero\n      tag_419\n      jumpi\n        /* \"#utility.yul\":5981:6060   */\n      tag_420\n      tag_308\n      jump\t// in\n    tag_420:\n        /* \"#utility.yul\":5943:6062   */\n    tag_419:\n        /* \"#utility.yul\":6101:6102   */\n      0x00\n        /* \"#utility.yul\":6126:6179   */\n      tag_421\n        /* \"#utility.yul\":6171:6178   */\n      dup5\n        /* \"#utility.yul\":6162:6168   */\n      dup3\n        /* \"#utility.yul\":6151:6160   */\n      dup6\n        /* \"#utility.yul\":6147:6169   */\n      add\n        /* \"#utility.yul\":6126:6179   */\n      tag_327\n      jump\t// in\n    tag_421:\n        /* \"#utility.yul\":6116:6179   */\n      swap2\n      pop\n        /* \"#utility.yul\":6072:6189   */\n      pop\n        /* \"#utility.yul\":5867:6196   */\n      swap3\n      swap2\n      pop\n      pop\n      jump\t// out\n        /* \"#utility.yul\":6202:6318   */\n    tag_329:\n        /* \"#utility.yul\":6272:6293   */\n      tag_423\n        /* \"#utility.yul\":6287:6292   */\n      dup2\n        /* \"#utility.yul\":6272:6293   */\n      tag_313\n      jump\t// in\n    tag_423:\n        /* \"#utility.yul\":6265:6270   */\n      dup2\n        /* \"#utility.yul\":6262:6294   */\n      eq\n        /* \"#utility.yul\":6252:6312   */\n      tag_424\n      jumpi\n        /* \"#utility.yul\":6308:6309   */\n      0x00\n        /* \"#utility.yul\":6305:6306   */\n      dup1\n        /* \"#utility.yul\":6298:6310   */\n      revert\n        /* \"#utility.yul\":6252:6312   */\n    tag_424:\n        /* \"#utility.yul\":6202:6318   */\n      pop\n      jump\t// out\n        /* \"#utility.yul\":6324:6457   */\n    tag_330:\n        /* \"#utility.yul\":6367:6372   */\n      0x00\n        /* \"#utility.yul\":6405:6411   */\n      dup2\n        /* \"#utility.yul\":6392:6412   */\n      calldataload\n        /* \"#utility.yul\":6383:6412   */\n      swap1\n      pop\n        /* \"#utility.yul\":6421:6451   */\n      tag_426\n        /* \"#utility.yul\":6445:6450   */\n      dup2\n        /* \"#utility.yul\":6421:6451   */\n      tag_329\n      jump\t// in\n    tag_426:\n        /* \"#utility.yul\":6324:6457   */\n      swap3\n      swap2\n      pop\n      pop\n      jump\t// out\n        /* \"#utility.yul\":6463:6931   */\n    tag_89:\n        /* \"#utility.yul\":6528:6534   */\n      0x00\n        /* \"#utility.yul\":6536:6542   */\n      dup1\n        /* \"#utility.yul\":6585:6587   */\n      0x40\n        /* \"#utility.yul\":6573:6582   */\n      dup4\n        /* \"#utility.yul\":6564:6571   */\n      dup6\n        /* \"#utility.yul\":6560:6583   */\n      sub\n        /* \"#utility.yul\":6556:6588   */\n      slt\n        /* \"#utility.yul\":6553:6672   */\n      iszero\n      tag_428\n      jumpi\n        /* \"#utility.yul\":6591:6670   */\n      tag_429\n      tag_308\n      jump\t// in\n    tag_429:\n        /* \"#utility.yul\":6553:6672   */\n    tag_428:\n        /* \"#utility.yul\":6711:6712   */\n      0x00\n        /* \"#utility.yul\":6736:6789   */\n      tag_430\n        /* \"#utility.yul\":6781:6788   */\n      dup6\n        /* \"#utility.yul\":6772:6778   */\n      dup3\n        /* \"#utility.yul\":6761:6770   */\n      dup7\n        /* \"#utility.yul\":6757:6779   */\n      add\n        /* \"#utility.yul\":6736:6789   */\n      tag_327\n      jump\t// in\n    tag_430:\n        /* \"#utility.yul\":6726:6789   */\n      swap3\n      pop\n        /* \"#utility.yul\":6682:6799   */\n      pop\n        /* \"#utility.yul\":6838:6840   */\n      0x20\n        /* \"#utility.yul\":6864:6914   */\n      tag_431\n        /* \"#utility.yul\":6906:6913   */\n      dup6\n        /* \"#utility.yul\":6897:6903   */\n      dup3\n        /* \"#utility.yul\":6886:6895   */\n      dup7\n        /* \"#utility.yul\":6882:6904   */\n      add\n        /* \"#utility.yul\":6864:6914   */\n      tag_330\n      jump\t// in\n    tag_431:\n        /* \"#utility.yul\":6854:6914   */\n      swap2\n      pop\n        /* \"#utility.yul\":6809:6924   */\n      pop\n        /* \"#utility.yul\":6463:6931   */\n      swap3\n      pop\n      swap3\n      swap1\n      pop\n      jump\t// out\n        /* \"#utility.yul\":6937:7054   */\n    tag_331:\n        /* \"#utility.yul\":7046:7047   */\n      0x00\n        /* \"#utility.yul\":7043:7044   */\n      dup1\n        /* \"#utility.yul\":7036:7048   */\n      revert\n        /* \"#utility.yul\":7060:7177   */\n    tag_332:\n        /* \"#utility.yul\":7169:7170   */\n      0x00\n        /* \"#utility.yul\":7166:7167   */\n      dup1\n        /* \"#utility.yul\":7159:7171   */\n      revert\n        /* \"#utility.yul\":7183:7363   */\n    tag_294:\n        /* \"#utility.yul\":7231:7308   */\n      0x4e487b7100000000000000000000000000000000000000000000000000000000\n        /* \"#utility.yul\":7228:7229   */\n      0x00\n        /* \"#utility.yul\":7221:7309   */\n      mstore\n        /* \"#utility.yul\":7328:7332   */\n      0x41\n        /* \"#utility.yul\":7325:7326   */\n      0x04\n        /* \"#utility.yul\":7318:7333   */\n      mstore\n        /* \"#utility.yul\":7352:7356   */\n      0x24\n        /* \"#utility.yul\":7349:7350   */\n      0x00\n        /* \"#utility.yul\":7342:7357   */\n      revert\n        /* \"#utility.yul\":7369:7650   */\n    tag_333:\n        /* \"#utility.yul\":7452:7479   */\n      tag_436\n        /* \"#utility.yul\":7474:7478   */\n      dup3\n        /* \"#utility.yul\":7452:7479   */\n      tag_318\n      jump\t// in\n    tag_436:\n        /* \"#utility.yul\":7444:7450   */\n      dup2\n        /* \"#utility.yul\":7440:7480   */\n      add\n        /* \"#utility.yul\":7582:7588   */\n      dup2\n        /* \"#utility.yul\":7570:7580   */\n      dup2\n        /* \"#utility.yul\":7567:7589   */\n      lt\n        /* \"#utility.yul\":7546:7564   */\n      0xffffffffffffffff\n        /* \"#utility.yul\":7534:7544   */\n      dup3\n        /* \"#utility.yul\":7531:7565   */\n      gt\n        /* \"#utility.yul\":7528:7590   */\n      or\n        /* \"#utility.yul\":7525:7613   */\n      iszero\n      tag_437\n      jumpi\n        /* \"#utility.yul\":7593:7611   */\n      tag_438\n      tag_294\n      jump\t// in\n    tag_438:\n        /* \"#utility.yul\":7525:7613   */\n    tag_437:\n        /* \"#utility.yul\":7633:7643   */\n      dup1\n        /* \"#utility.yul\":7629:7631   */\n      0x40\n        /* \"#utility.yul\":7622:7644   */\n      mstore\n        /* \"#utility.yul\":7412:7650   */\n      pop\n        /* \"#utility.yul\":7369:7650   */\n      pop\n      pop\n      jump\t// out\n        /* \"#utility.yul\":7656:7785   */\n    tag_334:\n        /* \"#utility.yul\":7690:7696   */\n      0x00\n        /* \"#utility.yul\":7717:7737   */\n      tag_440\n      tag_307\n      jump\t// in\n    tag_440:\n        /* \"#utility.yul\":7707:7737   */\n      swap1\n      pop\n        /* \"#utility.yul\":7746:7779   */\n      tag_441\n        /* \"#utility.yul\":7774:7778   */\n      dup3\n        /* \"#utility.yul\":7766:7772   */\n      dup3\n        /* \"#utility.yul\":7746:7779   */\n      tag_333\n      jump\t// in\n    tag_441:\n        /* \"#utility.yul\":7656:7785   */\n      swap2\n      swap1\n      pop\n      jump\t// out\n        /* \"#utility.yul\":7791:8098   */\n    tag_335:\n        /* \"#utility.yul\":7852:7856   */\n      0x00\n        /* \"#utility.yul\":7942:7960   */\n      0xffffffffffffffff\n        /* \"#utility.yul\":7934:7940   */\n      dup3\n        /* \"#utility.yul\":7931:7961   */\n      gt\n        /* \"#utility.yul\":7928:7984   */\n      iszero\n      tag_443\n      jumpi\n        /* \"#utility.yul\":7964:7982   */\n      tag_444\n      tag_294\n      jump\t// in\n    tag_444:\n        /* \"#utility.yul\":7928:7984   */\n    tag_443:\n        /* \"#utility.yul\":8002:8031   */\n      tag_445\n        /* \"#utility.yul\":8024:8030   */\n      dup3\n        /* \"#utility.yul\":8002:8031   */\n      tag_318\n      jump\t// in\n    tag_445:\n        /* \"#utility.yul\":7994:8031   */\n      swap1\n      pop\n        /* \"#utility.yul\":8086:8090   */\n      0x20\n        /* \"#utility.yul\":8080:8084   */\n      dup2\n        /* \"#utility.yul\":8076:8091   */\n      add\n        /* \"#utility.yul\":8068:8091   */\n      swap1\n      pop\n        /* \"#utility.yul\":7791:8098   */\n      swap2\n      swap1\n      pop\n      jump\t// out\n        /* \"#utility.yul\":8104:8250   */\n    tag_336:\n        /* \"#utility.yul\":8201:8207   */\n      dup3\n        /* \"#utility.yul\":8196:8199   */\n      dup2\n        /* \"#utility.yul\":8191:8194   */\n      dup4\n        /* \"#utility.yul\":8178:8208   */\n      calldatacopy\n        /* \"#utility.yul\":8242:8243   */\n      0x00\n        /* \"#utility.yul\":8233:8239   */\n      dup4\n        /* \"#utility.yul\":8228:8231   */\n      dup4\n        /* \"#utility.yul\":8224:8240   */\n      add\n        /* \"#utility.yul\":8217:8244   */\n      mstore\n        /* \"#utility.yul\":8104:8250   */\n      pop\n      pop\n      pop\n      jump\t// out\n        /* \"#utility.yul\":8256:8679   */\n    tag_337:\n        /* \"#utility.yul\":8333:8338   */\n      0x00\n        /* \"#utility.yul\":8358:8423   */\n      tag_448\n        /* \"#utility.yul\":8374:8422   */\n      tag_449\n        /* \"#utility.yul\":8415:8421   */\n      dup5\n        /* \"#utility.yul\":8374:8422   */\n      tag_335\n      jump\t// in\n    tag_449:\n        /* \"#utility.yul\":8358:8423   */\n      tag_334\n      jump\t// in\n    tag_448:\n        /* \"#utility.yul\":8349:8423   */\n      swap1\n      pop\n        /* \"#utility.yul\":8446:8452   */\n      dup3\n        /* \"#utility.yul\":8439:8444   */\n      dup2\n        /* \"#utility.yul\":8432:8453   */\n      mstore\n        /* \"#utility.yul\":8484:8488   */\n      0x20\n        /* \"#utility.yul\":8477:8482   */\n      dup2\n        /* \"#utility.yul\":8473:8489   */\n      add\n        /* \"#utility.yul\":8522:8525   */\n      dup5\n        /* \"#utility.yul\":8513:8519   */\n      dup5\n        /* \"#utility.yul\":8508:8511   */\n      dup5\n        /* \"#utility.yul\":8504:8520   */\n      add\n        /* \"#utility.yul\":8501:8526   */\n      gt\n        /* \"#utility.yul\":8498:8610   */\n      iszero\n      tag_450\n      jumpi\n        /* \"#utility.yul\":8529:8608   */\n      tag_451\n      tag_332\n      jump\t// in\n    tag_451:\n        /* \"#utility.yul\":8498:8610   */\n    tag_450:\n        /* \"#utility.yul\":8619:8673   */\n      tag_452\n        /* \"#utility.yul\":8666:8672   */\n      dup5\n        /* \"#utility.yul\":8661:8664   */\n      dup3\n        /* \"#utility.yul\":8656:8659   */\n      dup6\n        /* \"#utility.yul\":8619:8673   */\n      tag_336\n      jump\t// in\n    tag_452:\n        /* \"#utility.yul\":8339:8679   */\n      pop\n        /* \"#utility.yul\":8256:8679   */\n      swap4\n      swap3\n      pop\n      pop\n      pop\n      jump\t// out\n        /* \"#utility.yul\":8698:9036   */\n    tag_338:\n        /* \"#utility.yul\":8753:8758   */\n      0x00\n        /* \"#utility.yul\":8802:8805   */\n      dup3\n        /* \"#utility.yul\":8795:8799   */\n      0x1f\n        /* \"#utility.yul\":8787:8793   */\n      dup4\n        /* \"#utility.yul\":8783:8800   */\n      add\n        /* \"#utility.yul\":8779:8806   */\n      slt\n        /* \"#utility.yul\":8769:8891   */\n      tag_454\n      jumpi\n        /* \"#utility.yul\":8810:8889   */\n      tag_455\n      tag_331\n      jump\t// in\n    tag_455:\n        /* \"#utility.yul\":8769:8891   */\n    tag_454:\n        /* \"#utility.yul\":8927:8933   */\n      dup2\n        /* \"#utility.yul\":8914:8934   */\n      calldataload\n        /* \"#utility.yul\":8952:9030   */\n      tag_456\n        /* \"#utility.yul\":9026:9029   */\n      dup5\n        /* \"#utility.yul\":9018:9024   */\n      dup3\n        /* \"#utility.yul\":9011:9015   */\n      0x20\n        /* \"#utility.yul\":9003:9009   */\n      dup7\n        /* \"#utility.yul\":8999:9016   */\n      add\n        /* \"#utility.yul\":8952:9030   */\n      tag_337\n      jump\t// in\n    tag_456:\n        /* \"#utility.yul\":8943:9030   */\n      swap2\n      pop\n        /* \"#utility.yul\":8759:9036   */\n      pop\n        /* \"#utility.yul\":8698:9036   */\n      swap3\n      swap2\n      pop\n      pop\n      jump\t// out\n        /* \"#utility.yul\":9042:9985   */\n    tag_93:\n        /* \"#utility.yul\":9137:9143   */\n      0x00\n        /* \"#utility.yul\":9145:9151   */\n      dup1\n        /* \"#utility.yul\":9153:9159   */\n      0x00\n        /* \"#utility.yul\":9161:9167   */\n      dup1\n        /* \"#utility.yul\":9210:9213   */\n      0x80\n        /* \"#utility.yul\":9198:9207   */\n      dup6\n        /* \"#utility.yul\":9189:9196   */\n      dup8\n        /* \"#utility.yul\":9185:9208   */\n      sub\n        /* \"#utility.yul\":9181:9214   */\n      slt\n        /* \"#utility.yul\":9178:9298   */\n      iszero\n      tag_458\n      jumpi\n        /* \"#utility.yul\":9217:9296   */\n      tag_459\n      tag_308\n      jump\t// in\n    tag_459:\n        /* \"#utility.yul\":9178:9298   */\n    tag_458:\n        /* \"#utility.yul\":9337:9338   */\n      0x00\n        /* \"#utility.yul\":9362:9415   */\n      tag_460\n        /* \"#utility.yul\":9407:9414   */\n      dup8\n        /* \"#utility.yul\":9398:9404   */\n      dup3\n        /* \"#utility.yul\":9387:9396   */\n      dup9\n        /* \"#utility.yul\":9383:9405   */\n      add\n        /* \"#utility.yul\":9362:9415   */\n      tag_327\n      jump\t// in\n    tag_460:\n        /* \"#utility.yul\":9352:9415   */\n      swap5\n      pop\n        /* \"#utility.yul\":9308:9425   */\n      pop\n        /* \"#utility.yul\":9464:9466   */\n      0x20\n        /* \"#utility.yul\":9490:9543   */\n      tag_461\n        /* \"#utility.yul\":9535:9542   */\n      dup8\n        /* \"#utility.yul\":9526:9532   */\n      dup3\n        /* \"#utility.yul\":9515:9524   */\n      dup9\n        /* \"#utility.yul\":9511:9533   */\n      add\n        /* \"#utility.yul\":9490:9543   */\n      tag_327\n      jump\t// in\n    tag_461:\n        /* \"#utility.yul\":9480:9543   */\n      swap4\n      pop\n        /* \"#utility.yul\":9435:9553   */\n      pop\n        /* \"#utility.yul\":9592:9594   */\n      0x40\n        /* \"#utility.yul\":9618:9671   */\n      tag_462\n        /* \"#utility.yul\":9663:9670   */\n      dup8\n        /* \"#utility.yul\":9654:9660   */\n      dup3\n        /* \"#utility.yul\":9643:9652   */\n      dup9\n        /* \"#utility.yul\":9639:9661   */\n      add\n        /* \"#utility.yul\":9618:9671   */\n      tag_322\n      jump\t// in\n    tag_462:\n        /* \"#utility.yul\":9608:9671   */\n      swap3\n      pop\n        /* \"#utility.yul\":9563:9681   */\n      pop\n        /* \"#utility.yul\":9748:9750   */\n      0x60\n        /* \"#utility.yul\":9737:9746   */\n      dup6\n        /* \"#utility.yul\":9733:9751   */\n      add\n        /* \"#utility.yul\":9720:9752   */\n      calldataload\n        /* \"#utility.yul\":9779:9797   */\n      0xffffffffffffffff\n        /* \"#utility.yul\":9771:9777   */\n      dup2\n        /* \"#utility.yul\":9768:9798   */\n      gt\n        /* \"#utility.yul\":9765:9882   */\n      iszero\n      tag_463\n      jumpi\n        /* \"#utility.yul\":9801:9880   */\n      tag_464\n      tag_309\n      jump\t// in\n    tag_464:\n        /* \"#utility.yul\":9765:9882   */\n    tag_463:\n        /* \"#utility.yul\":9906:9968   */\n      tag_465\n        /* \"#utility.yul\":9960:9967   */\n      dup8\n        /* \"#utility.yul\":9951:9957   */\n      dup3\n        /* \"#utility.yul\":9940:9949   */\n      dup9\n        /* \"#utility.yul\":9936:9958   */\n      add\n        /* \"#utility.yul\":9906:9968   */\n      tag_338\n      jump\t// in\n    tag_465:\n        /* \"#utility.yul\":9896:9968   */\n      swap2\n      pop\n        /* \"#utility.yul\":9691:9978   */\n      pop\n        /* \"#utility.yul\":9042:9985   */\n      swap3\n      swap6\n      swap2\n      swap5\n      pop\n      swap3\n      pop\n      jump\t// out\n        /* \"#utility.yul\":9991:10465   */\n    tag_108:\n        /* \"#utility.yul\":10059:10065   */\n      0x00\n        /* \"#utility.yul\":10067:10073   */\n      dup1\n        /* \"#utility.yul\":10116:10118   */\n      0x40\n        /* \"#utility.yul\":10104:10113   */\n      dup4\n        /* \"#utility.yul\":10095:10102   */\n      dup6\n        /* \"#utility.yul\":10091:10114   */\n      sub\n        /* \"#utility.yul\":10087:10119   */\n      slt\n        /* \"#utility.yul\":10084:10203   */\n      iszero\n      tag_467\n      jumpi\n        /* \"#utility.yul\":10122:10201   */\n      tag_468\n      tag_308\n      jump\t// in\n    tag_468:\n        /* \"#utility.yul\":10084:10203   */\n    tag_467:\n        /* \"#utility.yul\":10242:10243   */\n      0x00\n        /* \"#utility.yul\":10267:10320   */\n      tag_469\n        /* \"#utility.yul\":10312:10319   */\n      dup6\n        /* \"#utility.yul\":10303:10309   */\n      dup3\n        /* \"#utility.yul\":10292:10301   */\n      dup7\n        /* \"#utility.yul\":10288:10310   */\n      add\n        /* \"#utility.yul\":10267:10320   */\n      tag_327\n      jump\t// in\n    tag_469:\n        /* \"#utility.yul\":10257:10320   */\n      swap3\n      pop\n        /* \"#utility.yul\":10213:10330   */\n      pop\n        /* \"#utility.yul\":10369:10371   */\n      0x20\n        /* \"#utility.yul\":10395:10448   */\n      tag_470\n        /* \"#utility.yul\":10440:10447   */\n      dup6\n        /* \"#utility.yul\":10431:10437   */\n      dup3\n        /* \"#utility.yul\":10420:10429   */\n      dup7\n        /* \"#utility.yul\":10416:10438   */\n      add\n        /* \"#utility.yul\":10395:10448   */\n      tag_327\n      jump\t// in\n    tag_470:\n        /* \"#utility.yul\":10385:10448   */\n      swap2\n      pop\n        /* \"#utility.yul\":10340:10458   */\n      pop\n        /* \"#utility.yul\":9991:10465   */\n      swap3\n      pop\n      swap3\n      swap1\n      pop\n      jump\t// out\n        /* \"#utility.yul\":10471:10651   */\n    tag_339:\n        /* \"#utility.yul\":10519:10596   */\n      0x4e487b7100000000000000000000000000000000000000000000000000000000\n        /* \"#utility.yul\":10516:10517   */\n      0x00\n        /* \"#utility.yul\":10509:10597   */\n      mstore\n        /* \"#utility.yul\":10616:10620   */\n      0x22\n        /* \"#utility.yul\":10613:10614   */\n      0x04\n        /* \"#utility.yul\":10606:10621   */\n      mstore\n        /* \"#utility.yul\":10640:10644   */\n      0x24\n        /* \"#utility.yul\":10637:10638   */\n      0x00\n        /* \"#utility.yul\":10630:10645   */\n      revert\n        /* \"#utility.yul\":10657:10977   */\n    tag_122:\n        /* \"#utility.yul\":10701:10707   */\n      0x00\n        /* \"#utility.yul\":10738:10739   */\n      0x02\n        /* \"#utility.yul\":10732:10736   */\n      dup3\n        /* \"#utility.yul\":10728:10740   */\n      div\n        /* \"#utility.yul\":10718:10740   */\n      swap1\n      pop\n        /* \"#utility.yul\":10785:10786   */\n      0x01\n        /* \"#utility.yul\":10779:10783   */\n      dup3\n        /* \"#utility.yul\":10775:10787   */\n      and\n        /* \"#utility.yul\":10806:10824   */\n      dup1\n        /* \"#utility.yul\":10796:10877   */\n      tag_473\n      jumpi\n        /* \"#utility.yul\":10862:10866   */\n      0x7f\n        /* \"#utility.yul\":10854:10860   */\n      dup3\n        /* \"#utility.yul\":10850:10867   */\n      and\n        /* \"#utility.yul\":10840:10867   */\n      swap2\n      pop\n        /* \"#utility.yul\":10796:10877   */\n    tag_473:\n        /* \"#utility.yul\":10924:10926   */\n      0x20\n        /* \"#utility.yul\":10916:10922   */\n      dup3\n        /* \"#utility.yul\":10913:10927   */\n      lt\n        /* \"#utility.yul\":10893:10911   */\n      dup2\n        /* \"#utility.yul\":10890:10928   */\n      sub\n        /* \"#utility.yul\":10887:10971   */\n      tag_474\n      jumpi\n        /* \"#utility.yul\":10943:10961   */\n      tag_475\n      tag_339\n      jump\t// in\n    tag_475:\n        /* \"#utility.yul\":10887:10971   */\n    tag_474:\n        /* \"#utility.yul\":10708:10977   */\n      pop\n        /* \"#utility.yul\":10657:10977   */\n      swap2\n      swap1\n      pop\n      jump\t// out\n        /* \"#utility.yul\":10983:11131   */\n    tag_340:\n        /* \"#utility.yul\":11085:11096   */\n      0x00\n        /* \"#utility.yul\":11122:11125   */\n      dup2\n        /* \"#utility.yul\":11107:11125   */\n      swap1\n      pop\n        /* \"#utility.yul\":10983:11131   */\n      swap3\n      swap2\n      pop\n      pop\n      jump\t// out\n        /* \"#utility.yul\":11137:11527   */\n    tag_341:\n        /* \"#utility.yul\":11243:11246   */\n      0x00\n        /* \"#utility.yul\":11271:11310   */\n      tag_478\n        /* \"#utility.yul\":11304:11309   */\n      dup3\n        /* \"#utility.yul\":11271:11310   */\n      tag_315\n      jump\t// in\n    tag_478:\n        /* \"#utility.yul\":11326:11415   */\n      tag_479\n        /* \"#utility.yul\":11408:11414   */\n      dup2\n        /* \"#utility.yul\":11403:11406   */\n      dup6\n        /* \"#utility.yul\":11326:11415   */\n      tag_340\n      jump\t// in\n    tag_479:\n        /* \"#utility.yul\":11319:11415   */\n      swap4\n      pop\n        /* \"#utility.yul\":11424:11489   */\n      tag_480\n        /* \"#utility.yul\":11482:11488   */\n      dup2\n        /* \"#utility.yul\":11477:11480   */\n      dup6\n        /* \"#utility.yul\":11470:11474   */\n      0x20\n        /* \"#utility.yul\":11463:11468   */\n      dup7\n        /* \"#utility.yul\":11459:11475   */\n      add\n        /* \"#utility.yul\":11424:11489   */\n      tag_317\n      jump\t// in\n    tag_480:\n        /* \"#utility.yul\":11514:11520   */\n      dup1\n        /* \"#utility.yul\":11509:11512   */\n      dup5\n        /* \"#utility.yul\":11505:11521   */\n      add\n        /* \"#utility.yul\":11498:11521   */\n      swap2\n      pop\n        /* \"#utility.yul\":11247:11527   */\n      pop\n        /* \"#utility.yul\":11137:11527   */\n      swap3\n      swap2\n      pop\n      pop\n      jump\t// out\n        /* \"#utility.yul\":11533:11968   */\n    tag_205:\n        /* \"#utility.yul\":11713:11716   */\n      0x00\n        /* \"#utility.yul\":11735:11830   */\n      tag_482\n        /* \"#utility.yul\":11826:11829   */\n      dup3\n        /* \"#utility.yul\":11817:11823   */\n      dup6\n        /* \"#utility.yul\":11735:11830   */\n      tag_341\n      jump\t// in\n    tag_482:\n        /* \"#utility.yul\":11728:11830   */\n      swap2\n      pop\n        /* \"#utility.yul\":11847:11942   */\n      tag_483\n        /* \"#utility.yul\":11938:11941   */\n      dup3\n        /* \"#utility.yul\":11929:11935   */\n      dup5\n        /* \"#utility.yul\":11847:11942   */\n      tag_341\n      jump\t// in\n    tag_483:\n        /* \"#utility.yul\":11840:11942   */\n      swap2\n      pop\n        /* \"#utility.yul\":11959:11962   */\n      dup2\n        /* \"#utility.yul\":11952:11962   */\n      swap1\n      pop\n        /* \"#utility.yul\":11533:11968   */\n      swap4\n      swap3\n      pop\n      pop\n      pop\n      jump\t// out\n        /* \"#utility.yul\":11974:12154   */\n    tag_342:\n        /* \"#utility.yul\":12022:12099   */\n      0x4e487b7100000000000000000000000000000000000000000000000000000000\n        /* \"#utility.yul\":12019:12020   */\n      0x00\n        /* \"#utility.yul\":12012:12100   */\n      mstore\n        /* \"#utility.yul\":12119:12123   */\n      0x12\n        /* \"#utility.yul\":12116:12117   */\n      0x04\n        /* \"#utility.yul\":12109:12124   */\n      mstore\n        /* \"#utility.yul\":12143:12147   */\n      0x24\n        /* \"#utility.yul\":12140:12141   */\n      0x00\n        /* \"#utility.yul\":12133:12148   */\n      revert\n        /* \"#utility.yul\":12160:12336   */\n    tag_213:\n        /* \"#utility.yul\":12192:12193   */\n      0x00\n        /* \"#utility.yul\":12209:12229   */\n      tag_486\n        /* \"#utility.yul\":12227:12228   */\n      dup3\n        /* \"#utility.yul\":12209:12229   */\n      tag_320\n      jump\t// in\n    tag_486:\n        /* \"#utility.yul\":12204:12229   */\n      swap2\n      pop\n        /* \"#utility.yul\":12243:12263   */\n      tag_487\n        /* \"#utility.yul\":12261:12262   */\n      dup4\n        /* \"#utility.yul\":12243:12263   */\n      tag_320\n      jump\t// in\n    tag_487:\n        /* \"#utility.yul\":12238:12263   */\n      swap3\n      pop\n        /* \"#utility.yul\":12282:12283   */\n      dup3\n        /* \"#utility.yul\":12272:12307   */\n      tag_488\n      jumpi\n        /* \"#utility.yul\":12287:12305   */\n      tag_489\n      tag_342\n      jump\t// in\n    tag_489:\n        /* \"#utility.yul\":12272:12307   */\n    tag_488:\n        /* \"#utility.yul\":12328:12329   */\n      dup3\n        /* \"#utility.yul\":12325:12326   */\n      dup3\n        /* \"#utility.yul\":12321:12330   */\n      mod\n        /* \"#utility.yul\":12316:12330   */\n      swap1\n      pop\n        /* \"#utility.yul\":12160:12336   */\n      swap3\n      swap2\n      pop\n      pop\n      jump\t// out\n        /* \"#utility.yul\":12342:12522   */\n    tag_343:\n        /* \"#utility.yul\":12390:12467   */\n      0x4e487b7100000000000000000000000000000000000000000000000000000000\n        /* \"#utility.yul\":12387:12388   */\n      0x00\n        /* \"#utility.yul\":12380:12468   */\n      mstore\n        /* \"#utility.yul\":12487:12491   */\n      0x11\n        /* \"#utility.yul\":12484:12485   */\n      0x04\n        /* \"#utility.yul\":12477:12492   */\n      mstore\n        /* \"#utility.yul\":12511:12515   */\n      0x24\n        /* \"#utility.yul\":12508:12509   */\n      0x00\n        /* \"#utility.yul\":12501:12516   */\n      revert\n        /* \"#utility.yul\":12528:12938   */\n    tag_246:\n        /* \"#utility.yul\":12568:12575   */\n      0x00\n        /* \"#utility.yul\":12591:12611   */\n      tag_492\n        /* \"#utility.yul\":12609:12610   */\n      dup3\n        /* \"#utility.yul\":12591:12611   */\n      tag_320\n      jump\t// in\n    tag_492:\n        /* \"#utility.yul\":12586:12611   */\n      swap2\n      pop\n        /* \"#utility.yul\":12625:12645   */\n      tag_493\n        /* \"#utility.yul\":12643:12644   */\n      dup4\n        /* \"#utility.yul\":12625:12645   */\n      tag_320\n      jump\t// in\n    tag_493:\n        /* \"#utility.yul\":12620:12645   */\n      swap3\n      pop\n        /* \"#utility.yul\":12680:12681   */\n      dup3\n        /* \"#utility.yul\":12677:12678   */\n      dup3\n        /* \"#utility.yul\":12673:12682   */\n      mul\n        /* \"#utility.yul\":12702:12732   */\n      tag_494\n        /* \"#utility.yul\":12720:12731   */\n      dup2\n        /* \"#utility.yul\":12702:12732   */\n      tag_320\n      jump\t// in\n    tag_494:\n        /* \"#utility.yul\":12691:12732   */\n      swap2\n      pop\n        /* \"#utility.yul\":12881:12882   */\n      dup3\n        /* \"#utility.yul\":12872:12879   */\n      dup3\n        /* \"#utility.yul\":12868:12883   */\n      div\n        /* \"#utility.yul\":12865:12866   */\n      dup5\n        /* \"#utility.yul\":12862:12884   */\n      eq\n        /* \"#utility.yul\":12842:12843   */\n      dup4\n        /* \"#utility.yul\":12835:12844   */\n      iszero\n        /* \"#utility.yul\":12815:12898   */\n      or\n        /* \"#utility.yul\":12792:12931   */\n      tag_495\n      jumpi\n        /* \"#utility.yul\":12911:12929   */\n      tag_496\n      tag_343\n      jump\t// in\n    tag_496:\n        /* \"#utility.yul\":12792:12931   */\n    tag_495:\n        /* \"#utility.yul\":12576:12938   */\n      pop\n        /* \"#utility.yul\":12528:12938   */\n      swap3\n      swap2\n      pop\n      pop\n      jump\t// out\n        /* \"#utility.yul\":12944:13129   */\n    tag_249:\n        /* \"#utility.yul\":12984:12985   */\n      0x00\n        /* \"#utility.yul\":13001:13021   */\n      tag_498\n        /* \"#utility.yul\":13019:13020   */\n      dup3\n        /* \"#utility.yul\":13001:13021   */\n      tag_320\n      jump\t// in\n    tag_498:\n        /* \"#utility.yul\":12996:13021   */\n      swap2\n      pop\n        /* \"#utility.yul\":13035:13055   */\n      tag_499\n        /* \"#utility.yul\":13053:13054   */\n      dup4\n        /* \"#utility.yul\":13035:13055   */\n      tag_320\n      jump\t// in\n    tag_499:\n        /* \"#utility.yul\":13030:13055   */\n      swap3\n      pop\n        /* \"#utility.yul\":13074:13075   */\n      dup3\n        /* \"#utility.yul\":13064:13099   */\n      tag_500\n      jumpi\n        /* \"#utility.yul\":13079:13097   */\n      tag_501\n      tag_342\n      jump\t// in\n    tag_501:\n        /* \"#utility.yul\":13064:13099   */\n    tag_500:\n        /* \"#utility.yul\":13121:13122   */\n      dup3\n        /* \"#utility.yul\":13118:13119   */\n      dup3\n        /* \"#utility.yul\":13114:13123   */\n      div\n        /* \"#utility.yul\":13109:13123   */\n      swap1\n      pop\n        /* \"#utility.yul\":12944:13129   */\n      swap3\n      swap2\n      pop\n      pop\n      jump\t// out\n        /* \"#utility.yul\":13135:13233   */\n    tag_344:\n        /* \"#utility.yul\":13186:13192   */\n      0x00\n        /* \"#utility.yul\":13220:13225   */\n      dup2\n        /* \"#utility.yul\":13214:13226   */\n      mload\n        /* \"#utility.yul\":13204:13226   */\n      swap1\n      pop\n        /* \"#utility.yul\":13135:13233   */\n      swap2\n      swap1\n      pop\n      jump\t// out\n        /* \"#utility.yul\":13239:13407   */\n    tag_345:\n        /* \"#utility.yul\":13322:13333   */\n      0x00\n        /* \"#utility.yul\":13356:13362   */\n      dup3\n        /* \"#utility.yul\":13351:13354   */\n      dup3\n        /* \"#utility.yul\":13344:13363   */\n      mstore\n        /* \"#utility.yul\":13396:13400   */\n      0x20\n        /* \"#utility.yul\":13391:13394   */\n      dup3\n        /* \"#utility.yul\":13387:13401   */\n      add\n        /* \"#utility.yul\":13372:13401   */\n      swap1\n      pop\n        /* \"#utility.yul\":13239:13407   */\n      swap3\n      swap2\n      pop\n      pop\n      jump\t// out\n        /* \"#utility.yul\":13413:13786   */\n    tag_346:\n        /* \"#utility.yul\":13499:13502   */\n      0x00\n        /* \"#utility.yul\":13527:13565   */\n      tag_505\n        /* \"#utility.yul\":13559:13564   */\n      dup3\n        /* \"#utility.yul\":13527:13565   */\n      tag_344\n      jump\t// in\n    tag_505:\n        /* \"#utility.yul\":13581:13651   */\n      tag_506\n        /* \"#utility.yul\":13644:13650   */\n      dup2\n        /* \"#utility.yul\":13639:13642   */\n      dup6\n        /* \"#utility.yul\":13581:13651   */\n      tag_345\n      jump\t// in\n    tag_506:\n        /* \"#utility.yul\":13574:13651   */\n      swap4\n      pop\n        /* \"#utility.yul\":13660:13725   */\n      tag_507\n        /* \"#utility.yul\":13718:13724   */\n      dup2\n        /* \"#utility.yul\":13713:13716   */\n      dup6\n        /* \"#utility.yul\":13706:13710   */\n      0x20\n        /* \"#utility.yul\":13699:13704   */\n      dup7\n        /* \"#utility.yul\":13695:13711   */\n      add\n        /* \"#utility.yul\":13660:13725   */\n      tag_317\n      jump\t// in\n    tag_507:\n        /* \"#utility.yul\":13750:13779   */\n      tag_508\n        /* \"#utility.yul\":13772:13778   */\n      dup2\n        /* \"#utility.yul\":13750:13779   */\n      tag_318\n      jump\t// in\n    tag_508:\n        /* \"#utility.yul\":13745:13748   */\n      dup5\n        /* \"#utility.yul\":13741:13780   */\n      add\n        /* \"#utility.yul\":13734:13780   */\n      swap2\n      pop\n        /* \"#utility.yul\":13503:13786   */\n      pop\n        /* \"#utility.yul\":13413:13786   */\n      swap3\n      swap2\n      pop\n      pop\n      jump\t// out\n        /* \"#utility.yul\":13792:14432   */\n    tag_265:\n        /* \"#utility.yul\":13987:13991   */\n      0x00\n        /* \"#utility.yul\":14025:14028   */\n      0x80\n        /* \"#utility.yul\":14014:14023   */\n      dup3\n        /* \"#utility.yul\":14010:14029   */\n      add\n        /* \"#utility.yul\":14002:14029   */\n      swap1\n      pop\n        /* \"#utility.yul\":14039:14110   */\n      tag_510\n        /* \"#utility.yul\":14107:14108   */\n      0x00\n        /* \"#utility.yul\":14096:14105   */\n      dup4\n        /* \"#utility.yul\":14092:14109   */\n      add\n        /* \"#utility.yul\":14083:14089   */\n      dup8\n        /* \"#utility.yul\":14039:14110   */\n      tag_325\n      jump\t// in\n    tag_510:\n        /* \"#utility.yul\":14120:14192   */\n      tag_511\n        /* \"#utility.yul\":14188:14190   */\n      0x20\n        /* \"#utility.yul\":14177:14186   */\n      dup4\n        /* \"#utility.yul\":14173:14191   */\n      add\n        /* \"#utility.yul\":14164:14170   */\n      dup7\n        /* \"#utility.yul\":14120:14192   */\n      tag_325\n      jump\t// in\n    tag_511:\n        /* \"#utility.yul\":14202:14274   */\n      tag_512\n        /* \"#utility.yul\":14270:14272   */\n      0x40\n        /* \"#utility.yul\":14259:14268   */\n      dup4\n        /* \"#utility.yul\":14255:14273   */\n      add\n        /* \"#utility.yul\":14246:14252   */\n      dup6\n        /* \"#utility.yul\":14202:14274   */\n      tag_328\n      jump\t// in\n    tag_512:\n        /* \"#utility.yul\":14321:14330   */\n      dup2\n        /* \"#utility.yul\":14315:14319   */\n      dup2\n        /* \"#utility.yul\":14311:14331   */\n      sub\n        /* \"#utility.yul\":14306:14308   */\n      0x60\n        /* \"#utility.yul\":14295:14304   */\n      dup4\n        /* \"#utility.yul\":14291:14309   */\n      add\n        /* \"#utility.yul\":14284:14332   */\n      mstore\n        /* \"#utility.yul\":14349:14425   */\n      tag_513\n        /* \"#utility.yul\":14420:14424   */\n      dup2\n        /* \"#utility.yul\":14411:14417   */\n      dup5\n        /* \"#utility.yul\":14349:14425   */\n      tag_346\n      jump\t// in\n    tag_513:\n        /* \"#utility.yul\":14341:14425   */\n      swap1\n      pop\n        /* \"#utility.yul\":13792:14432   */\n      swap6\n      swap5\n      pop\n      pop\n      pop\n      pop\n      pop\n      jump\t// out\n        /* \"#utility.yul\":14438:14579   */\n    tag_347:\n        /* \"#utility.yul\":14494:14499   */\n      0x00\n        /* \"#utility.yul\":14525:14531   */\n      dup2\n        /* \"#utility.yul\":14519:14532   */\n      mload\n        /* \"#utility.yul\":14510:14532   */\n      swap1\n      pop\n        /* \"#utility.yul\":14541:14573   */\n      tag_515\n        /* \"#utility.yul\":14567:14572   */\n      dup2\n        /* \"#utility.yul\":14541:14573   */\n      tag_311\n      jump\t// in\n    tag_515:\n        /* \"#utility.yul\":14438:14579   */\n      swap3\n      swap2\n      pop\n      pop\n      jump\t// out\n        /* \"#utility.yul\":14585:14934   */\n    tag_268:\n        /* \"#utility.yul\":14654:14660   */\n      0x00\n        /* \"#utility.yul\":14703:14705   */\n      0x20\n        /* \"#utility.yul\":14691:14700   */\n      dup3\n        /* \"#utility.yul\":14682:14689   */\n      dup5\n        /* \"#utility.yul\":14678:14701   */\n      sub\n        /* \"#utility.yul\":14674:14706   */\n      slt\n        /* \"#utility.yul\":14671:14790   */\n      iszero\n      tag_517\n      jumpi\n        /* \"#utility.yul\":14709:14788   */\n      tag_518\n      tag_308\n      jump\t// in\n    tag_518:\n        /* \"#utility.yul\":14671:14790   */\n    tag_517:\n        /* \"#utility.yul\":14829:14830   */\n      0x00\n        /* \"#utility.yul\":14854:14917   */\n      tag_519\n        /* \"#utility.yul\":14909:14916   */\n      dup5\n        /* \"#utility.yul\":14900:14906   */\n      dup3\n        /* \"#utility.yul\":14889:14898   */\n      dup6\n        /* \"#utility.yul\":14885:14907   */\n      add\n        /* \"#utility.yul\":14854:14917   */\n      tag_347\n      jump\t// in\n    tag_519:\n        /* \"#utility.yul\":14844:14917   */\n      swap2\n      pop\n        /* \"#utility.yul\":14800:14927   */\n      pop\n        /* \"#utility.yul\":14585:14934   */\n      swap3\n      swap2\n      pop\n      pop\n      jump\t// out\n        /* \"#utility.yul\":14940:15134   */\n    tag_280:\n        /* \"#utility.yul\":14980:14984   */\n      0x00\n        /* \"#utility.yul\":15000:15020   */\n      tag_521\n        /* \"#utility.yul\":15018:15019   */\n      dup3\n        /* \"#utility.yul\":15000:15020   */\n      tag_320\n      jump\t// in\n    tag_521:\n        /* \"#utility.yul\":14995:15020   */\n      swap2\n      pop\n        /* \"#utility.yul\":15034:15054   */\n      tag_522\n        /* \"#utility.yul\":15052:15053   */\n      dup4\n        /* \"#utility.yul\":15034:15054   */\n      tag_320\n      jump\t// in\n    tag_522:\n        /* \"#utility.yul\":15029:15054   */\n      swap3\n      pop\n        /* \"#utility.yul\":15078:15079   */\n      dup3\n        /* \"#utility.yul\":15075:15076   */\n      dup3\n        /* \"#utility.yul\":15071:15080   */\n      sub\n        /* \"#utility.yul\":15063:15080   */\n      swap1\n      pop\n        /* \"#utility.yul\":15102:15103   */\n      dup2\n        /* \"#utility.yul\":15096:15100   */\n      dup2\n        /* \"#utility.yul\":15093:15104   */\n      gt\n        /* \"#utility.yul\":15090:15127   */\n      iszero\n      tag_523\n      jumpi\n        /* \"#utility.yul\":15107:15125   */\n      tag_524\n      tag_343\n      jump\t// in\n    tag_524:\n        /* \"#utility.yul\":15090:15127   */\n    tag_523:\n        /* \"#utility.yul\":14940:15134   */\n      swap3\n      swap2\n      pop\n      pop\n      jump\t// out\n        /* \"#utility.yul\":15140:15331   */\n    tag_283:\n        /* \"#utility.yul\":15180:15183   */\n      0x00\n        /* \"#utility.yul\":15199:15219   */\n      tag_526\n        /* \"#utility.yul\":15217:15218   */\n      dup3\n        /* \"#utility.yul\":15199:15219   */\n      tag_320\n      jump\t// in\n    tag_526:\n        /* \"#utility.yul\":15194:15219   */\n      swap2\n      pop\n        /* \"#utility.yul\":15233:15253   */\n      tag_527\n        /* \"#utility.yul\":15251:15252   */\n      dup4\n        /* \"#utility.yul\":15233:15253   */\n      tag_320\n      jump\t// in\n    tag_527:\n        /* \"#utility.yul\":15228:15253   */\n      swap3\n      pop\n        /* \"#utility.yul\":15276:15277   */\n      dup3\n        /* \"#utility.yul\":15273:15274   */\n      dup3\n        /* \"#utility.yul\":15269:15278   */\n      add\n        /* \"#utility.yul\":15262:15278   */\n      swap1\n      pop\n        /* \"#utility.yul\":15297:15300   */\n      dup1\n        /* \"#utility.yul\":15294:15295   */\n      dup3\n        /* \"#utility.yul\":15291:15301   */\n      gt\n        /* \"#utility.yul\":15288:15324   */\n      iszero\n      tag_528\n      jumpi\n        /* \"#utility.yul\":15304:15322   */\n      tag_529\n      tag_343\n      jump\t// in\n    tag_529:\n        /* \"#utility.yul\":15288:15324   */\n    tag_528:\n        /* \"#utility.yul\":15140:15331   */\n      swap3\n      swap2\n      pop\n      pop\n      jump\t// out\n        /* \"#utility.yul\":15337:15570   */\n    tag_290:\n        /* \"#utility.yul\":15376:15379   */\n      0x00\n        /* \"#utility.yul\":15399:15423   */\n      tag_531\n        /* \"#utility.yul\":15417:15422   */\n      dup3\n        /* \"#utility.yul\":15399:15423   */\n      tag_320\n      jump\t// in\n    tag_531:\n        /* \"#utility.yul\":15390:15423   */\n      swap2\n      pop\n        /* \"#utility.yul\":15445:15511   */\n      0xffffffffffffffffffffffffffffffffffffffffffffffffffffffffffffffff\n        /* \"#utility.yul\":15438:15443   */\n      dup3\n        /* \"#utility.yul\":15435:15512   */\n      sub\n        /* \"#utility.yul\":15432:15535   */\n      tag_532\n      jumpi\n        /* \"#utility.yul\":15515:15533   */\n      tag_533\n      tag_343\n      jump\t// in\n    tag_533:\n        /* \"#utility.yul\":15432:15535   */\n    tag_532:\n        /* \"#utility.yul\":15562:15563   */\n      0x01\n        /* \"#utility.yul\":15555:15560   */\n      dup3\n        /* \"#utility.yul\":15551:15564   */\n      add\n        /* \"#utility.yul\":15544:15564   */\n      swap1\n      pop\n        /* \"#utility.yul\":15337:15570   */\n      swap2\n      swap1\n      pop\n      jump\t// out\n        /* \"#utility.yul\":15576:15756   */\n    tag_303:\n        /* \"#utility.yul\":15624:15701   */\n      0x4e487b7100000000000000000000000000000000000000000000000000000000\n        /* \"#utility.yul\":15621:15622   */\n      0x00\n        /* \"#utility.yul\":15614:15702   */\n      mstore\n        /* \"#utility.yul\":15721:15725   */\n      0x32\n        /* \"#utility.yul\":15718:15719   */\n      0x04\n        /* \"#utility.yul\":15711:15726   */\n      mstore\n        /* \"#utility.yul\":15745:15749   */\n      0x24\n        /* \"#utility.yul\":15742:15743   */\n      0x00\n        /* \"#utility.yul\":15735:15750   */\n      revert\n    stop\n    data_626642f6930f156f677ccaa99d1115840f2527d6f062eede1de4dda1bd081a2d 68747470733a2f2f676174657761792e70696e6174612e636c6f75642f697066732f516d65794b6e7658584d78417557473570743335457a3851684a6852363352445653775566736a4b61795234325a2f\n\n    auxdata: 0xa2646970667358221220e408422035066b24311c14da822408208df8a328755ba1f770530f1882911bca64736f6c63430008110033\n}\n",
				"bytecode": {
					"linkReferences": {},
					"object": "60806040523480156200001157600080fd5b5060405162002bd538038062002bd583398181016040528101906200003791906200027b565b83600790816200004891906200056c565b5082600890816200005a91906200056c565b508160058190555062000072620000a860201b60201c565b60048190555080600081905550671bc16d674ec8000060018190555061b3b0600381905550436002819055505050505062000653565b600090565b6000604051905090565b600080fd5b600080fd5b600080fd5b600080fd5b6000601f19601f8301169050919050565b7f4e487b7100000000000000000000000000000000000000000000000000000000600052604160045260246000fd5b6200011682620000cb565b810181811067ffffffffffffffff82111715620001385762000137620000dc565b5b80604052505050565b60006200014d620000ad565b90506200015b82826200010b565b919050565b600067ffffffffffffffff8211156200017e576200017d620000dc565b5b6200018982620000cb565b9050602081019050919050565b60005b83811015620001b657808201518184015260208101905062000199565b60008484015250505050565b6000620001d9620001d38462000160565b62000141565b905082815260208101848484011115620001f857620001f7620000c6565b5b6200020584828562000196565b509392505050565b600082601f830112620002255762000224620000c1565b5b815162000237848260208601620001c2565b91505092915050565b6000819050919050565b620002558162000240565b81146200026157600080fd5b50565b60008151905062000275816200024a565b92915050565b60008060008060808587031215620002985762000297620000b7565b5b600085015167ffffffffffffffff811115620002b957620002b8620000bc565b5b620002c7878288016200020d565b945050602085015167ffffffffffffffff811115620002eb57620002ea620000bc565b5b620002f9878288016200020d565b93505060406200030c8782880162000264565b92505060606200031f8782880162000264565b91505092959194509250565b600081519050919050565b7f4e487b7100000000000000000000000000000000000000000000000000000000600052602260045260246000fd5b600060028204905060018216806200037e57607f821691505b60208210810362000394576200039362000336565b5b50919050565b60008190508160005260206000209050919050565b60006020601f8301049050919050565b600082821b905092915050565b600060088302620003fe7fffffffffffffffffffffffffffffffffffffffffffffffffffffffffffffffff82620003bf565b6200040a8683620003bf565b95508019841693508086168417925050509392505050565b6000819050919050565b60006200044d62000447620004418462000240565b62000422565b62000240565b9050919050565b6000819050919050565b62000469836200042c565b62000481620004788262000454565b848454620003cc565b825550505050565b600090565b6200049862000489565b620004a58184846200045e565b505050565b5b81811015620004cd57620004c16000826200048e565b600181019050620004ab565b5050565b601f8211156200051c57620004e6816200039a565b620004f184620003af565b8101602085101562000501578190505b620005196200051085620003af565b830182620004aa565b50505b505050565b600082821c905092915050565b6000620005416000198460080262000521565b1980831691505092915050565b60006200055c83836200052e565b9150826002028217905092915050565b62000577826200032b565b67ffffffffffffffff811115620005935762000592620000dc565b5b6200059f825462000365565b620005ac828285620004d1565b600060209050601f831160018114620005e45760008415620005cf578287015190505b620005db85826200054e565b8655506200064b565b601f198416620005f4866200039a565b60005b828110156200061e57848901518255600182019150602085019450602081019050620005f7565b868310156200063e57848901516200063a601f8916826200052e565b8355505b6001600288020188555050505b505050505050565b61257280620006636000396000f3fe608060405234801561001057600080fd5b50600436106101425760003560e01c806370a08231116100b8578063b88d4fde1161007c578063b88d4fde14610379578063b8ba600714610395578063c87b56dd146103c5578063d5abeb01146103f5578063e985e9c514610413578063f390c3281461044357610142565b806370a08231146102d357806394fc67d11461030357806395d89b41146103215780639f7733991461033f578063a22cb4651461035d57610142565b806323b872dd1161010a57806323b872dd146101ff57806338020dcc1461021b57806342842e0e146102395780634be3403c146102555780635e7ec827146102855780636352211e146102a357610142565b806301ffc9a71461014757806306fdde0314610177578063081812fc14610195578063095ea7b3146101c557806318160ddd146101e1575b600080fd5b610161600480360381019061015c9190611c19565b610473565b60405161016e9190611c61565b60405180910390f35b61017f610555565b60405161018c9190611d0c565b60405180910390f35b6101af60048036038101906101aa9190611d64565b6105e7565b6040516101bc9190611dd2565b60405180910390f35b6101df60048036038101906101da9190611e19565b610663565b005b6101e9610767565b6040516101f69190611e68565b60405180910390f35b61021960048036038101906102149190611e83565b61077e565b005b61022361078e565b6040516102309190611e68565b60405180910390f35b610253600480360381019061024e9190611e83565b610794565b005b61026f600480360381019061026a9190611d64565b6107b4565b60405161027c9190611e68565b60405180910390f35b61028d61082b565b60405161029a9190611e68565b60405180910390f35b6102bd60048036038101906102b89190611d64565b610831565b6040516102ca9190611dd2565b60405180910390f35b6102ed60048036038101906102e89190611ed6565b610847565b6040516102fa9190611e68565b60405180910390f35b61030b610916565b6040516103189190611e68565b60405180910390f35b61032961091c565b6040516103369190611d0c565b60405180910390f35b6103476109ae565b6040516103549190611e68565b60405180910390f35b61037760048036038101906103729190611f2f565b6109b4565b005b610393600480360381019061038e91906120a4565b610b2b565b005b6103af60048036038101906103aa9190611ed6565b610ba3565b6040516103bc9190611e68565b60405180910390f35b6103df60048036038101906103da9190611d64565b610db2565b6040516103ec9190611d0c565b60405180910390f35b6103fd610e50565b60405161040a9190611e68565b60405180910390f35b61042d60048036038101906104289190612127565b610e67565b60405161043a9190611c61565b60405180910390f35b61045d60048036038101906104589190611d64565b610efb565b60405161046a9190611e68565b60405180910390f35b60007f80ac58cd000000000000000000000000000000000000000000000000000000007bffffffffffffffffffffffffffffffffffffffffffffffffffffffff1916827bffffffffffffffffffffffffffffffffffffffffffffffffffffffff1916148061053e57507f5b5e139f000000000000000000000000000000000000000000000000000000007bffffffffffffffffffffffffffffffffffffffffffffffffffffffff1916827bffffffffffffffffffffffffffffffffffffffffffffffffffffffff1916145b8061054e575061054d82610f5d565b5b9050919050565b60606007805461056490612196565b80601f016020809104026020016040519081016040528092919081815260200182805461059090612196565b80156105dd5780601f106105b2576101008083540402835291602001916105dd565b820191906000526020600020905b8154815290600101906020018083116105c057829003601f168201915b5050505050905090565b60006105f282610fc7565b610628576040517fcf4700e400000000000000000000000000000000000000000000000000000000815260040160405180910390fd5b600b600083815260200190815260200160002060009054906101000a900473ffffffffffffffffffffffffffffffffffffffff169050919050565b600061066e82610831565b90508073ffffffffffffffffffffffffffffffffffffffff168373ffffffffffffffffffffffffffffffffffffffff16036106d5576040517f943f7b8c00000000000000000000000000000000000000000000000000000000815260040160405180910390fd5b8073ffffffffffffffffffffffffffffffffffffffff166106f4611015565b73ffffffffffffffffffffffffffffffffffffffff1614610757576107208161071b611015565b610e67565b610756576040517fcfb3b94200000000000000000000000000000000000000000000000000000000815260040160405180910390fd5b5b61076283838361101d565b505050565b60006107716110cf565b6006546004540303905090565b6107898383836110d4565b505050565b60015481565b6107af83838360405180602001604052806000815250610b2b565b505050565b6000806107d4670de0b6b3a764000060015461158890919063ffffffff16565b905060006108076002546107f9670de0b6b3a76400008761158890919063ffffffff16565b61159e90919063ffffffff16565b9050600061081e828461159e90919063ffffffff16565b9050809350505050919050565b60035481565b600061083c826115b4565b600001519050919050565b60008073ffffffffffffffffffffffffffffffffffffffff168273ffffffffffffffffffffffffffffffffffffffff16036108ae576040517f8f4eb60400000000000000000000000000000000000000000000000000000000815260040160405180910390fd5b600a60008373ffffffffffffffffffffffffffffffffffffffff1673ffffffffffffffffffffffffffffffffffffffff16815260200190815260200160002060000160009054906101000a900467ffffffffffffffff1667ffffffffffffffff169050919050565b60025481565b60606008805461092b90612196565b80601f016020809104026020016040519081016040528092919081815260200182805461095790612196565b80156109a45780601f10610979576101008083540402835291602001916109a4565b820191906000526020600020905b81548152906001019060200180831161098757829003601f168201915b5050505050905090565b60005481565b6109bc611015565b73ffffffffffffffffffffffffffffffffffffffff168273ffffffffffffffffffffffffffffffffffffffff1603610a20576040517fb06307db00000000000000000000000000000000000000000000000000000000815260040160405180910390fd5b80600c6000610a2d611015565b73ffffffffffffffffffffffffffffffffffffffff1673ffffffffffffffffffffffffffffffffffffffff16815260200190815260200160002060008473ffffffffffffffffffffffffffffffffffffffff1673ffffffffffffffffffffffffffffffffffffffff16815260200190815260200160002060006101000a81548160ff0219169083151502179055508173ffffffffffffffffffffffffffffffffffffffff16610ada611015565b73ffffffffffffffffffffffffffffffffffffffff167f17307eab39ab6107e8899845ad3d59bd9653f200f220920489ca2b5937696c3183604051610b1f9190611c61565b60405180910390a35050565b610b368484846110d4565b610b558373ffffffffffffffffffffffffffffffffffffffff1661183f565b15610b9d57610b6684848484611862565b610b9c576040517fd1a57ed600000000000000000000000000000000000000000000000000000000815260040160405180910390fd5b5b50505050565b600080610c1d6001610c0f600d60008773ffffffffffffffffffffffffffffffffffffffff1673ffffffffffffffffffffffffffffffffffffffff16815260200190815260200160002060006001815260200190815260200160002054436119b290919063ffffffff16565b6119c890919063ffffffff16565b90506000610c7b600d60008673ffffffffffffffffffffffffffffffffffffffff1673ffffffffffffffffffffffffffffffffffffffff168152602001908152602001600020600060018152602001908152602001600020546107b4565b90506000610c88436107b4565b90506000610cc46002610cb686610ca886886119c890919063ffffffff16565b61158890919063ffffffff16565b61159e90919063ffffffff16565b90506000610d40600354610d32600d60008b73ffffffffffffffffffffffffffffffffffffffff1673ffffffffffffffffffffffffffffffffffffffff168152602001908152602001600020600060028152602001908152602001600020548561158890919063ffffffff16565b61159e90919063ffffffff16565b9050610da681600d60008a73ffffffffffffffffffffffffffffffffffffffff1673ffffffffffffffffffffffffffffffffffffffff168152602001908152602001600020600060038152602001908152602001600020546119c890919063ffffffff16565b95505050505050919050565b6060610dbd82610fc7565b610df3576040517fa14c4b5000000000000000000000000000000000000000000000000000000000815260040160405180910390fd5b6000610dfd6119de565b90506000815103610e1d5760405180602001604052806000815250610e48565b80610e27846119fe565b604051602001610e38929190612203565b6040516020818303038152906040525b915050919050565b6000610e5a6110cf565b6006546005540303905090565b6000600c60008473ffffffffffffffffffffffffffffffffffffffff1673ffffffffffffffffffffffffffffffffffffffff16815260200190815260200160002060008373ffffffffffffffffffffffffffffffffffffffff1673ffffffffffffffffffffffffffffffffffffffff16815260200190815260200160002060009054906101000a900460ff16905092915050565b600080610f2583610f176000548661158890919063ffffffff16565b6119c890919063ffffffff16565b90506000600a82610f369190612256565b03610f445760019050610f54565b600a81610f519190612256565b90505b80915050919050565b60007f01ffc9a7000000000000000000000000000000000000000000000000000000007bffffffffffffffffffffffffffffffffffffffffffffffffffffffff1916827bffffffffffffffffffffffffffffffffffffffffffffffffffffffff1916149050919050565b600081610fd26110cf565b11158015610fe1575060045482105b801561100e575060096000838152602001908152602001600020600001601c9054906101000a900460ff16155b9050919050565b600033905090565b82600b600084815260200190815260200160002060006101000a81548173ffffffffffffffffffffffffffffffffffffffff021916908373ffffffffffffffffffffffffffffffffffffffff160217905550818373ffffffffffffffffffffffffffffffffffffffff168273ffffffffffffffffffffffffffffffffffffffff167f8c5be1e5ebec7d5bd14f71427d1e84f3dd0314c0f7b2291e5b200ac8c7c3b92560405160405180910390a4505050565b600090565b60006110df826115b4565b90508373ffffffffffffffffffffffffffffffffffffffff16816000015173ffffffffffffffffffffffffffffffffffffffff161461114a576040517fa114810000000000000000000000000000000000000000000000000000000000815260040160405180910390fd5b60008473ffffffffffffffffffffffffffffffffffffffff1661116b611015565b73ffffffffffffffffffffffffffffffffffffffff16148061119a575061119985611194611015565b610e67565b5b806111df57506111a8611015565b73ffffffffffffffffffffffffffffffffffffffff166111c7846105e7565b73ffffffffffffffffffffffffffffffffffffffff16145b905080611218576040517f59c896be00000000000000000000000000000000000000000000000000000000815260040160405180910390fd5b600073ffffffffffffffffffffffffffffffffffffffff168473ffffffffffffffffffffffffffffffffffffffff160361127e576040517fea553b3400000000000000000000000000000000000000000000000000000000815260040160405180910390fd5b61128b8585856001611b5e565b6112976000848761101d565b6001600a60008773ffffffffffffffffffffffffffffffffffffffff1673ffffffffffffffffffffffffffffffffffffffff16815260200190815260200160002060000160008282829054906101000a900467ffffffffffffffff160392506101000a81548167ffffffffffffffff021916908367ffffffffffffffff1602179055506001600a60008673ffffffffffffffffffffffffffffffffffffffff1673ffffffffffffffffffffffffffffffffffffffff16815260200190815260200160002060000160008282829054906101000a900467ffffffffffffffff160192506101000a81548167ffffffffffffffff021916908367ffffffffffffffff1602179055506000600960008581526020019081526020016000209050848160000160006101000a81548173ffffffffffffffffffffffffffffffffffffffff021916908373ffffffffffffffffffffffffffffffffffffffff160217905550428160000160146101000a81548167ffffffffffffffff021916908367ffffffffffffffff16021790555060006001850190506000600960008381526020019081526020016000209050600073ffffffffffffffffffffffffffffffffffffffff168160000160009054906101000a900473ffffffffffffffffffffffffffffffffffffffff1673ffffffffffffffffffffffffffffffffffffffff160361151657600454821461151557878160000160006101000a81548173ffffffffffffffffffffffffffffffffffffffff021916908373ffffffffffffffffffffffffffffffffffffffff16021790555084602001518160000160146101000a81548167ffffffffffffffff021916908367ffffffffffffffff1602179055505b5b505050828473ffffffffffffffffffffffffffffffffffffffff168673ffffffffffffffffffffffffffffffffffffffff167fddf252ad1be2c89b69c2b068fc378daa952ba7f163c4a11628f55a4df523b3ef60405160405180910390a46115818585856001611b64565b5050505050565b6000818361159691906122b6565b905092915050565b600081836115ac91906122f8565b905092915050565b6115bc611b6a565b6000829050806115ca6110cf565b1161180857600454811015611807576000600960008381526020019081526020016000206040518060600160405290816000820160009054906101000a900473ffffffffffffffffffffffffffffffffffffffff1673ffffffffffffffffffffffffffffffffffffffff1673ffffffffffffffffffffffffffffffffffffffff1681526020016000820160149054906101000a900467ffffffffffffffff1667ffffffffffffffff1667ffffffffffffffff16815260200160008201601c9054906101000a900460ff1615151515815250509050806040015161180557600073ffffffffffffffffffffffffffffffffffffffff16816000015173ffffffffffffffffffffffffffffffffffffffff16146116e957809250505061183a565b5b60011561180457818060019003925050600960008381526020019081526020016000206040518060600160405290816000820160009054906101000a900473ffffffffffffffffffffffffffffffffffffffff1673ffffffffffffffffffffffffffffffffffffffff1673ffffffffffffffffffffffffffffffffffffffff1681526020016000820160149054906101000a900467ffffffffffffffff1667ffffffffffffffff1667ffffffffffffffff16815260200160008201601c9054906101000a900460ff1615151515815250509050600073ffffffffffffffffffffffffffffffffffffffff16816000015173ffffffffffffffffffffffffffffffffffffffff16146117ff57809250505061183a565b6116ea565b5b505b5b6040517fdf2d9b4200000000000000000000000000000000000000000000000000000000815260040160405180910390fd5b919050565b6000808273ffffffffffffffffffffffffffffffffffffffff163b119050919050565b60008373ffffffffffffffffffffffffffffffffffffffff1663150b7a02611888611015565b8786866040518563ffffffff1660e01b81526004016118aa949392919061237e565b6020604051808303816000875af19250505080156118e657506040513d601f19601f820116820180604052508101906118e391906123df565b60015b61195f573d8060008114611916576040519150601f19603f3d011682016040523d82523d6000602084013e61191b565b606091505b506000815103611957576040517fd1a57ed600000000000000000000000000000000000000000000000000000000815260040160405180910390fd5b805181602001fd5b63150b7a0260e01b7bffffffffffffffffffffffffffffffffffffffffffffffffffffffff1916817bffffffffffffffffffffffffffffffffffffffffffffffffffffffff191614915050949350505050565b600081836119c0919061240c565b905092915050565b600081836119d69190612440565b905092915050565b60606040518060800160405280605181526020016124ec60519139905090565b606060008203611a45576040518060400160405280600181526020017f30000000000000000000000000000000000000000000000000000000000000008152509050611b59565b600082905060005b60008214611a77578080611a6090612474565b915050600a82611a7091906122f8565b9150611a4d565b60008167ffffffffffffffff811115611a9357611a92611f79565b5b6040519080825280601f01601f191660200182016040528015611ac55781602001600182028036833780820191505090505b5090505b60008514611b5257600182611ade919061240c565b9150600a85611aed9190612256565b6030611af99190612440565b60f81b818381518110611b0f57611b0e6124bc565b5b60200101907effffffffffffffffffffffffffffffffffffffffffffffffffffffffffffff1916908160001a905350600a85611b4b91906122f8565b9450611ac9565b8093505050505b919050565b50505050565b50505050565b6040518060600160405280600073ffffffffffffffffffffffffffffffffffffffff168152602001600067ffffffffffffffff1681526020016000151581525090565b6000604051905090565b600080fd5b600080fd5b60007fffffffff0000000000000000000000000000000000000000000000000000000082169050919050565b611bf681611bc1565b8114611c0157600080fd5b50565b600081359050611c1381611bed565b92915050565b600060208284031215611c2f57611c2e611bb7565b5b6000611c3d84828501611c04565b91505092915050565b60008115159050919050565b611c5b81611c46565b82525050565b6000602082019050611c766000830184611c52565b92915050565b600081519050919050565b600082825260208201905092915050565b60005b83811015611cb6578082015181840152602081019050611c9b565b60008484015250505050565b6000601f19601f8301169050919050565b6000611cde82611c7c565b611ce88185611c87565b9350611cf8818560208601611c98565b611d0181611cc2565b840191505092915050565b60006020820190508181036000830152611d268184611cd3565b905092915050565b6000819050919050565b611d4181611d2e565b8114611d4c57600080fd5b50565b600081359050611d5e81611d38565b92915050565b600060208284031215611d7a57611d79611bb7565b5b6000611d8884828501611d4f565b91505092915050565b600073ffffffffffffffffffffffffffffffffffffffff82169050919050565b6000611dbc82611d91565b9050919050565b611dcc81611db1565b82525050565b6000602082019050611de76000830184611dc3565b92915050565b611df681611db1565b8114611e0157600080fd5b50565b600081359050611e1381611ded565b92915050565b60008060408385031215611e3057611e2f611bb7565b5b6000611e3e85828601611e04565b9250506020611e4f85828601611d4f565b9150509250929050565b611e6281611d2e565b82525050565b6000602082019050611e7d6000830184611e59565b92915050565b600080600060608486031215611e9c57611e9b611bb7565b5b6000611eaa86828701611e04565b9350506020611ebb86828701611e04565b9250506040611ecc86828701611d4f565b9150509250925092565b600060208284031215611eec57611eeb611bb7565b5b6000611efa84828501611e04565b91505092915050565b611f0c81611c46565b8114611f1757600080fd5b50565b600081359050611f2981611f03565b92915050565b60008060408385031215611f4657611f45611bb7565b5b6000611f5485828601611e04565b9250506020611f6585828601611f1a565b9150509250929050565b600080fd5b600080fd5b7f4e487b7100000000000000000000000000000000000000000000000000000000600052604160045260246000fd5b611fb182611cc2565b810181811067ffffffffffffffff82111715611fd057611fcf611f79565b5b80604052505050565b6000611fe3611bad565b9050611fef8282611fa8565b919050565b600067ffffffffffffffff82111561200f5761200e611f79565b5b61201882611cc2565b9050602081019050919050565b82818337600083830152505050565b600061204761204284611ff4565b611fd9565b90508281526020810184848401111561206357612062611f74565b5b61206e848285612025565b509392505050565b600082601f83011261208b5761208a611f6f565b5b813561209b848260208601612034565b91505092915050565b600080600080608085870312156120be576120bd611bb7565b5b60006120cc87828801611e04565b94505060206120dd87828801611e04565b93505060406120ee87828801611d4f565b925050606085013567ffffffffffffffff81111561210f5761210e611bbc565b5b61211b87828801612076565b91505092959194509250565b6000806040838503121561213e5761213d611bb7565b5b600061214c85828601611e04565b925050602061215d85828601611e04565b9150509250929050565b7f4e487b7100000000000000000000000000000000000000000000000000000000600052602260045260246000fd5b600060028204905060018216806121ae57607f821691505b6020821081036121c1576121c0612167565b5b50919050565b600081905092915050565b60006121dd82611c7c565b6121e781856121c7565b93506121f7818560208601611c98565b80840191505092915050565b600061220f82856121d2565b915061221b82846121d2565b91508190509392505050565b7f4e487b7100000000000000000000000000000000000000000000000000000000600052601260045260246000fd5b600061226182611d2e565b915061226c83611d2e565b92508261227c5761227b612227565b5b828206905092915050565b7f4e487b7100000000000000000000000000000000000000000000000000000000600052601160045260246000fd5b60006122c182611d2e565b91506122cc83611d2e565b92508282026122da81611d2e565b915082820484148315176122f1576122f0612287565b5b5092915050565b600061230382611d2e565b915061230e83611d2e565b92508261231e5761231d612227565b5b828204905092915050565b600081519050919050565b600082825260208201905092915050565b600061235082612329565b61235a8185612334565b935061236a818560208601611c98565b61237381611cc2565b840191505092915050565b60006080820190506123936000830187611dc3565b6123a06020830186611dc3565b6123ad6040830185611e59565b81810360608301526123bf8184612345565b905095945050505050565b6000815190506123d981611bed565b92915050565b6000602082840312156123f5576123f4611bb7565b5b6000612403848285016123ca565b91505092915050565b600061241782611d2e565b915061242283611d2e565b925082820390508181111561243a57612439612287565b5b92915050565b600061244b82611d2e565b915061245683611d2e565b925082820190508082111561246e5761246d612287565b5b92915050565b600061247f82611d2e565b91507fffffffffffffffffffffffffffffffffffffffffffffffffffffffffffffffff82036124b1576124b0612287565b5b600182019050919050565b7f4e487b7100000000000000000000000000000000000000000000000000000000600052603260045260246000fdfe68747470733a2f2f676174657761792e70696e6174612e636c6f75642f697066732f516d65794b6e7658584d78417557473570743335457a3851684a6852363352445653775566736a4b61795234325a2fa2646970667358221220e408422035066b24311c14da822408208df8a328755ba1f770530f1882911bca64736f6c63430008110033",
					"opcodes": "PUSH1 0x80 PUSH1 0x40 MSTORE CALLVALUE DUP1 ISZERO PUSH3 0x11 JUMPI PUSH1 0x0 DUP1 REVERT JUMPDEST POP PUSH1 0x40 MLOAD PUSH3 0x2BD5 CODESIZE SUB DUP1 PUSH3 0x2BD5 DUP4 CODECOPY DUP2 DUP2 ADD PUSH1 0x40 MSTORE DUP2 ADD SWAP1 PUSH3 0x37 SWAP2 SWAP1 PUSH3 0x27B JUMP JUMPDEST DUP4 PUSH1 0x7 SWAP1 DUP2 PUSH3 0x48 SWAP2 SWAP1 PUSH3 0x56C JUMP JUMPDEST POP DUP3 PUSH1 0x8 SWAP1 DUP2 PUSH3 0x5A SWAP2 SWAP1 PUSH3 0x56C JUMP JUMPDEST POP DUP2 PUSH1 0x5 DUP2 SWAP1 SSTORE POP PUSH3 0x72 PUSH3 0xA8 PUSH1 0x20 SHL PUSH1 0x20 SHR JUMP JUMPDEST PUSH1 0x4 DUP2 SWAP1 SSTORE POP DUP1 PUSH1 0x0 DUP2 SWAP1 SSTORE POP PUSH8 0x1BC16D674EC80000 PUSH1 0x1 DUP2 SWAP1 SSTORE POP PUSH2 0xB3B0 PUSH1 0x3 DUP2 SWAP1 SSTORE POP NUMBER PUSH1 0x2 DUP2 SWAP1 SSTORE POP POP POP POP POP PUSH3 0x653 JUMP JUMPDEST PUSH1 0x0 SWAP1 JUMP JUMPDEST PUSH1 0x0 PUSH1 0x40 MLOAD SWAP1 POP SWAP1 JUMP JUMPDEST PUSH1 0x0 DUP1 REVERT JUMPDEST PUSH1 0x0 DUP1 REVERT JUMPDEST PUSH1 0x0 DUP1 REVERT JUMPDEST PUSH1 0x0 DUP1 REVERT JUMPDEST PUSH1 0x0 PUSH1 0x1F NOT PUSH1 0x1F DUP4 ADD AND SWAP1 POP SWAP2 SWAP1 POP JUMP JUMPDEST PUSH32 0x4E487B7100000000000000000000000000000000000000000000000000000000 PUSH1 0x0 MSTORE PUSH1 0x41 PUSH1 0x4 MSTORE PUSH1 0x24 PUSH1 0x0 REVERT JUMPDEST PUSH3 0x116 DUP3 PUSH3 0xCB JUMP JUMPDEST DUP2 ADD DUP2 DUP2 LT PUSH8 0xFFFFFFFFFFFFFFFF DUP3 GT OR ISZERO PUSH3 0x138 JUMPI PUSH3 0x137 PUSH3 0xDC JUMP JUMPDEST JUMPDEST DUP1 PUSH1 0x40 MSTORE POP POP POP JUMP JUMPDEST PUSH1 0x0 PUSH3 0x14D PUSH3 0xAD JUMP JUMPDEST SWAP1 POP PUSH3 0x15B DUP3 DUP3 PUSH3 0x10B JUMP JUMPDEST SWAP2 SWAP1 POP JUMP JUMPDEST PUSH1 0x0 PUSH8 0xFFFFFFFFFFFFFFFF DUP3 GT ISZERO PUSH3 0x17E JUMPI PUSH3 0x17D PUSH3 0xDC JUMP JUMPDEST JUMPDEST PUSH3 0x189 DUP3 PUSH3 0xCB JUMP JUMPDEST SWAP1 POP PUSH1 0x20 DUP2 ADD SWAP1 POP SWAP2 SWAP1 POP JUMP JUMPDEST PUSH1 0x0 JUMPDEST DUP4 DUP2 LT ISZERO PUSH3 0x1B6 JUMPI DUP1 DUP3 ADD MLOAD DUP2 DUP5 ADD MSTORE PUSH1 0x20 DUP2 ADD SWAP1 POP PUSH3 0x199 JUMP JUMPDEST PUSH1 0x0 DUP5 DUP5 ADD MSTORE POP POP POP POP JUMP JUMPDEST PUSH1 0x0 PUSH3 0x1D9 PUSH3 0x1D3 DUP5 PUSH3 0x160 JUMP JUMPDEST PUSH3 0x141 JUMP JUMPDEST SWAP1 POP DUP3 DUP2 MSTORE PUSH1 0x20 DUP2 ADD DUP5 DUP5 DUP5 ADD GT ISZERO PUSH3 0x1F8 JUMPI PUSH3 0x1F7 PUSH3 0xC6 JUMP JUMPDEST JUMPDEST PUSH3 0x205 DUP5 DUP3 DUP6 PUSH3 0x196 JUMP JUMPDEST POP SWAP4 SWAP3 POP POP POP JUMP JUMPDEST PUSH1 0x0 DUP3 PUSH1 0x1F DUP4 ADD SLT PUSH3 0x225 JUMPI PUSH3 0x224 PUSH3 0xC1 JUMP JUMPDEST JUMPDEST DUP2 MLOAD PUSH3 0x237 DUP5 DUP3 PUSH1 0x20 DUP7 ADD PUSH3 0x1C2 JUMP JUMPDEST SWAP2 POP POP SWAP3 SWAP2 POP POP JUMP JUMPDEST PUSH1 0x0 DUP2 SWAP1 POP SWAP2 SWAP1 POP JUMP JUMPDEST PUSH3 0x255 DUP2 PUSH3 0x240 JUMP JUMPDEST DUP2 EQ PUSH3 0x261 JUMPI PUSH1 0x0 DUP1 REVERT JUMPDEST POP JUMP JUMPDEST PUSH1 0x0 DUP2 MLOAD SWAP1 POP PUSH3 0x275 DUP2 PUSH3 0x24A JUMP JUMPDEST SWAP3 SWAP2 POP POP JUMP JUMPDEST PUSH1 0x0 DUP1 PUSH1 0x0 DUP1 PUSH1 0x80 DUP6 DUP8 SUB SLT ISZERO PUSH3 0x298 JUMPI PUSH3 0x297 PUSH3 0xB7 JUMP JUMPDEST JUMPDEST PUSH1 0x0 DUP6 ADD MLOAD PUSH8 0xFFFFFFFFFFFFFFFF DUP2 GT ISZERO PUSH3 0x2B9 JUMPI PUSH3 0x2B8 PUSH3 0xBC JUMP JUMPDEST JUMPDEST PUSH3 0x2C7 DUP8 DUP3 DUP9 ADD PUSH3 0x20D JUMP JUMPDEST SWAP5 POP POP PUSH1 0x20 DUP6 ADD MLOAD PUSH8 0xFFFFFFFFFFFFFFFF DUP2 GT ISZERO PUSH3 0x2EB JUMPI PUSH3 0x2EA PUSH3 0xBC JUMP JUMPDEST JUMPDEST PUSH3 0x2F9 DUP8 DUP3 DUP9 ADD PUSH3 0x20D JUMP JUMPDEST SWAP4 POP POP PUSH1 0x40 PUSH3 0x30C DUP8 DUP3 DUP9 ADD PUSH3 0x264 JUMP JUMPDEST SWAP3 POP POP PUSH1 0x60 PUSH3 0x31F DUP8 DUP3 DUP9 ADD PUSH3 0x264 JUMP JUMPDEST SWAP2 POP POP SWAP3 SWAP6 SWAP2 SWAP5 POP SWAP3 POP JUMP JUMPDEST PUSH1 0x0 DUP2 MLOAD SWAP1 POP SWAP2 SWAP1 POP JUMP JUMPDEST PUSH32 0x4E487B7100000000000000000000000000000000000000000000000000000000 PUSH1 0x0 MSTORE PUSH1 0x22 PUSH1 0x4 MSTORE PUSH1 0x24 PUSH1 0x0 REVERT JUMPDEST PUSH1 0x0 PUSH1 0x2 DUP3 DIV SWAP1 POP PUSH1 0x1 DUP3 AND DUP1 PUSH3 0x37E JUMPI PUSH1 0x7F DUP3 AND SWAP2 POP JUMPDEST PUSH1 0x20 DUP3 LT DUP2 SUB PUSH3 0x394 JUMPI PUSH3 0x393 PUSH3 0x336 JUMP JUMPDEST JUMPDEST POP SWAP2 SWAP1 POP JUMP JUMPDEST PUSH1 0x0 DUP2 SWAP1 POP DUP2 PUSH1 0x0 MSTORE PUSH1 0x20 PUSH1 0x0 KECCAK256 SWAP1 POP SWAP2 SWAP1 POP JUMP JUMPDEST PUSH1 0x0 PUSH1 0x20 PUSH1 0x1F DUP4 ADD DIV SWAP1 POP SWAP2 SWAP1 POP JUMP JUMPDEST PUSH1 0x0 DUP3 DUP3 SHL SWAP1 POP SWAP3 SWAP2 POP POP JUMP JUMPDEST PUSH1 0x0 PUSH1 0x8 DUP4 MUL PUSH3 0x3FE PUSH32 0xFFFFFFFFFFFFFFFFFFFFFFFFFFFFFFFFFFFFFFFFFFFFFFFFFFFFFFFFFFFFFFFF DUP3 PUSH3 0x3BF JUMP JUMPDEST PUSH3 0x40A DUP7 DUP4 PUSH3 0x3BF JUMP JUMPDEST SWAP6 POP DUP1 NOT DUP5 AND SWAP4 POP DUP1 DUP7 AND DUP5 OR SWAP3 POP POP POP SWAP4 SWAP3 POP POP POP JUMP JUMPDEST PUSH1 0x0 DUP2 SWAP1 POP SWAP2 SWAP1 POP JUMP JUMPDEST PUSH1 0x0 PUSH3 0x44D PUSH3 0x447 PUSH3 0x441 DUP5 PUSH3 0x240 JUMP JUMPDEST PUSH3 0x422 JUMP JUMPDEST PUSH3 0x240 JUMP JUMPDEST SWAP1 POP SWAP2 SWAP1 POP JUMP JUMPDEST PUSH1 0x0 DUP2 SWAP1 POP SWAP2 SWAP1 POP JUMP JUMPDEST PUSH3 0x469 DUP4 PUSH3 0x42C JUMP JUMPDEST PUSH3 0x481 PUSH3 0x478 DUP3 PUSH3 0x454 JUMP JUMPDEST DUP5 DUP5 SLOAD PUSH3 0x3CC JUMP JUMPDEST DUP3 SSTORE POP POP POP POP JUMP JUMPDEST PUSH1 0x0 SWAP1 JUMP JUMPDEST PUSH3 0x498 PUSH3 0x489 JUMP JUMPDEST PUSH3 0x4A5 DUP2 DUP5 DUP5 PUSH3 0x45E JUMP JUMPDEST POP POP POP JUMP JUMPDEST JUMPDEST DUP2 DUP2 LT ISZERO PUSH3 0x4CD JUMPI PUSH3 0x4C1 PUSH1 0x0 DUP3 PUSH3 0x48E JUMP JUMPDEST PUSH1 0x1 DUP2 ADD SWAP1 POP PUSH3 0x4AB JUMP JUMPDEST POP POP JUMP JUMPDEST PUSH1 0x1F DUP3 GT ISZERO PUSH3 0x51C JUMPI PUSH3 0x4E6 DUP2 PUSH3 0x39A JUMP JUMPDEST PUSH3 0x4F1 DUP5 PUSH3 0x3AF JUMP JUMPDEST DUP2 ADD PUSH1 0x20 DUP6 LT ISZERO PUSH3 0x501 JUMPI DUP2 SWAP1 POP JUMPDEST PUSH3 0x519 PUSH3 0x510 DUP6 PUSH3 0x3AF JUMP JUMPDEST DUP4 ADD DUP3 PUSH3 0x4AA JUMP JUMPDEST POP POP JUMPDEST POP POP POP JUMP JUMPDEST PUSH1 0x0 DUP3 DUP3 SHR SWAP1 POP SWAP3 SWAP2 POP POP JUMP JUMPDEST PUSH1 0x0 PUSH3 0x541 PUSH1 0x0 NOT DUP5 PUSH1 0x8 MUL PUSH3 0x521 JUMP JUMPDEST NOT DUP1 DUP4 AND SWAP2 POP POP SWAP3 SWAP2 POP POP JUMP JUMPDEST PUSH1 0x0 PUSH3 0x55C DUP4 DUP4 PUSH3 0x52E JUMP JUMPDEST SWAP2 POP DUP3 PUSH1 0x2 MUL DUP3 OR SWAP1 POP SWAP3 SWAP2 POP POP JUMP JUMPDEST PUSH3 0x577 DUP3 PUSH3 0x32B JUMP JUMPDEST PUSH8 0xFFFFFFFFFFFFFFFF DUP2 GT ISZERO PUSH3 0x593 JUMPI PUSH3 0x592 PUSH3 0xDC JUMP JUMPDEST JUMPDEST PUSH3 0x59F DUP3 SLOAD PUSH3 0x365 JUMP JUMPDEST PUSH3 0x5AC DUP3 DUP3 DUP6 PUSH3 0x4D1 JUMP JUMPDEST PUSH1 0x0 PUSH1 0x20 SWAP1 POP PUSH1 0x1F DUP4 GT PUSH1 0x1 DUP2 EQ PUSH3 0x5E4 JUMPI PUSH1 0x0 DUP5 ISZERO PUSH3 0x5CF JUMPI DUP3 DUP8 ADD MLOAD SWAP1 POP JUMPDEST PUSH3 0x5DB DUP6 DUP3 PUSH3 0x54E JUMP JUMPDEST DUP7 SSTORE POP PUSH3 0x64B JUMP JUMPDEST PUSH1 0x1F NOT DUP5 AND PUSH3 0x5F4 DUP7 PUSH3 0x39A JUMP JUMPDEST PUSH1 0x0 JUMPDEST DUP3 DUP2 LT ISZERO PUSH3 0x61E JUMPI DUP5 DUP10 ADD MLOAD DUP3 SSTORE PUSH1 0x1 DUP3 ADD SWAP2 POP PUSH1 0x20 DUP6 ADD SWAP5 POP PUSH1 0x20 DUP2 ADD SWAP1 POP PUSH3 0x5F7 JUMP JUMPDEST DUP7 DUP4 LT ISZERO PUSH3 0x63E JUMPI DUP5 DUP10 ADD MLOAD PUSH3 0x63A PUSH1 0x1F DUP10 AND DUP3 PUSH3 0x52E JUMP JUMPDEST DUP4 SSTORE POP JUMPDEST PUSH1 0x1 PUSH1 0x2 DUP9 MUL ADD DUP9 SSTORE POP POP POP JUMPDEST POP POP POP POP POP POP JUMP JUMPDEST PUSH2 0x2572 DUP1 PUSH3 0x663 PUSH1 0x0 CODECOPY PUSH1 0x0 RETURN INVALID PUSH1 0x80 PUSH1 0x40 MSTORE CALLVALUE DUP1 ISZERO PUSH2 0x10 JUMPI PUSH1 0x0 DUP1 REVERT JUMPDEST POP PUSH1 0x4 CALLDATASIZE LT PUSH2 0x142 JUMPI PUSH1 0x0 CALLDATALOAD PUSH1 0xE0 SHR DUP1 PUSH4 0x70A08231 GT PUSH2 0xB8 JUMPI DUP1 PUSH4 0xB88D4FDE GT PUSH2 0x7C JUMPI DUP1 PUSH4 0xB88D4FDE EQ PUSH2 0x379 JUMPI DUP1 PUSH4 0xB8BA6007 EQ PUSH2 0x395 JUMPI DUP1 PUSH4 0xC87B56DD EQ PUSH2 0x3C5 JUMPI DUP1 PUSH4 0xD5ABEB01 EQ PUSH2 0x3F5 JUMPI DUP1 PUSH4 0xE985E9C5 EQ PUSH2 0x413 JUMPI DUP1 PUSH4 0xF390C328 EQ PUSH2 0x443 JUMPI PUSH2 0x142 JUMP JUMPDEST DUP1 PUSH4 0x70A08231 EQ PUSH2 0x2D3 JUMPI DUP1 PUSH4 0x94FC67D1 EQ PUSH2 0x303 JUMPI DUP1 PUSH4 0x95D89B41 EQ PUSH2 0x321 JUMPI DUP1 PUSH4 0x9F773399 EQ PUSH2 0x33F JUMPI DUP1 PUSH4 0xA22CB465 EQ PUSH2 0x35D JUMPI PUSH2 0x142 JUMP JUMPDEST DUP1 PUSH4 0x23B872DD GT PUSH2 0x10A JUMPI DUP1 PUSH4 0x23B872DD EQ PUSH2 0x1FF JUMPI DUP1 PUSH4 0x38020DCC EQ PUSH2 0x21B JUMPI DUP1 PUSH4 0x42842E0E EQ PUSH2 0x239 JUMPI DUP1 PUSH4 0x4BE3403C EQ PUSH2 0x255 JUMPI DUP1 PUSH4 0x5E7EC827 EQ PUSH2 0x285 JUMPI DUP1 PUSH4 0x6352211E EQ PUSH2 0x2A3 JUMPI PUSH2 0x142 JUMP JUMPDEST DUP1 PUSH4 0x1FFC9A7 EQ PUSH2 0x147 JUMPI DUP1 PUSH4 0x6FDDE03 EQ PUSH2 0x177 JUMPI DUP1 PUSH4 0x81812FC EQ PUSH2 0x195 JUMPI DUP1 PUSH4 0x95EA7B3 EQ PUSH2 0x1C5 JUMPI DUP1 PUSH4 0x18160DDD EQ PUSH2 0x1E1 JUMPI JUMPDEST PUSH1 0x0 DUP1 REVERT JUMPDEST PUSH2 0x161 PUSH1 0x4 DUP1 CALLDATASIZE SUB DUP2 ADD SWAP1 PUSH2 0x15C SWAP2 SWAP1 PUSH2 0x1C19 JUMP JUMPDEST PUSH2 0x473 JUMP JUMPDEST PUSH1 0x40 MLOAD PUSH2 0x16E SWAP2 SWAP1 PUSH2 0x1C61 JUMP JUMPDEST PUSH1 0x40 MLOAD DUP1 SWAP2 SUB SWAP1 RETURN JUMPDEST PUSH2 0x17F PUSH2 0x555 JUMP JUMPDEST PUSH1 0x40 MLOAD PUSH2 0x18C SWAP2 SWAP1 PUSH2 0x1D0C JUMP JUMPDEST PUSH1 0x40 MLOAD DUP1 SWAP2 SUB SWAP1 RETURN JUMPDEST PUSH2 0x1AF PUSH1 0x4 DUP1 CALLDATASIZE SUB DUP2 ADD SWAP1 PUSH2 0x1AA SWAP2 SWAP1 PUSH2 0x1D64 JUMP JUMPDEST PUSH2 0x5E7 JUMP JUMPDEST PUSH1 0x40 MLOAD PUSH2 0x1BC SWAP2 SWAP1 PUSH2 0x1DD2 JUMP JUMPDEST PUSH1 0x40 MLOAD DUP1 SWAP2 SUB SWAP1 RETURN JUMPDEST PUSH2 0x1DF PUSH1 0x4 DUP1 CALLDATASIZE SUB DUP2 ADD SWAP1 PUSH2 0x1DA SWAP2 SWAP1 PUSH2 0x1E19 JUMP JUMPDEST PUSH2 0x663 JUMP JUMPDEST STOP JUMPDEST PUSH2 0x1E9 PUSH2 0x767 JUMP JUMPDEST PUSH1 0x40 MLOAD PUSH2 0x1F6 SWAP2 SWAP1 PUSH2 0x1E68 JUMP JUMPDEST PUSH1 0x40 MLOAD DUP1 SWAP2 SUB SWAP1 RETURN JUMPDEST PUSH2 0x219 PUSH1 0x4 DUP1 CALLDATASIZE SUB DUP2 ADD SWAP1 PUSH2 0x214 SWAP2 SWAP1 PUSH2 0x1E83 JUMP JUMPDEST PUSH2 0x77E JUMP JUMPDEST STOP JUMPDEST PUSH2 0x223 PUSH2 0x78E JUMP JUMPDEST PUSH1 0x40 MLOAD PUSH2 0x230 SWAP2 SWAP1 PUSH2 0x1E68 JUMP JUMPDEST PUSH1 0x40 MLOAD DUP1 SWAP2 SUB SWAP1 RETURN JUMPDEST PUSH2 0x253 PUSH1 0x4 DUP1 CALLDATASIZE SUB DUP2 ADD SWAP1 PUSH2 0x24E SWAP2 SWAP1 PUSH2 0x1E83 JUMP JUMPDEST PUSH2 0x794 JUMP JUMPDEST STOP JUMPDEST PUSH2 0x26F PUSH1 0x4 DUP1 CALLDATASIZE SUB DUP2 ADD SWAP1 PUSH2 0x26A SWAP2 SWAP1 PUSH2 0x1D64 JUMP JUMPDEST PUSH2 0x7B4 JUMP JUMPDEST PUSH1 0x40 MLOAD PUSH2 0x27C SWAP2 SWAP1 PUSH2 0x1E68 JUMP JUMPDEST PUSH1 0x40 MLOAD DUP1 SWAP2 SUB SWAP1 RETURN JUMPDEST PUSH2 0x28D PUSH2 0x82B JUMP JUMPDEST PUSH1 0x40 MLOAD PUSH2 0x29A SWAP2 SWAP1 PUSH2 0x1E68 JUMP JUMPDEST PUSH1 0x40 MLOAD DUP1 SWAP2 SUB SWAP1 RETURN JUMPDEST PUSH2 0x2BD PUSH1 0x4 DUP1 CALLDATASIZE SUB DUP2 ADD SWAP1 PUSH2 0x2B8 SWAP2 SWAP1 PUSH2 0x1D64 JUMP JUMPDEST PUSH2 0x831 JUMP JUMPDEST PUSH1 0x40 MLOAD PUSH2 0x2CA SWAP2 SWAP1 PUSH2 0x1DD2 JUMP JUMPDEST PUSH1 0x40 MLOAD DUP1 SWAP2 SUB SWAP1 RETURN JUMPDEST PUSH2 0x2ED PUSH1 0x4 DUP1 CALLDATASIZE SUB DUP2 ADD SWAP1 PUSH2 0x2E8 SWAP2 SWAP1 PUSH2 0x1ED6 JUMP JUMPDEST PUSH2 0x847 JUMP JUMPDEST PUSH1 0x40 MLOAD PUSH2 0x2FA SWAP2 SWAP1 PUSH2 0x1E68 JUMP JUMPDEST PUSH1 0x40 MLOAD DUP1 SWAP2 SUB SWAP1 RETURN JUMPDEST PUSH2 0x30B PUSH2 0x916 JUMP JUMPDEST PUSH1 0x40 MLOAD PUSH2 0x318 SWAP2 SWAP1 PUSH2 0x1E68 JUMP JUMPDEST PUSH1 0x40 MLOAD DUP1 SWAP2 SUB SWAP1 RETURN JUMPDEST PUSH2 0x329 PUSH2 0x91C JUMP JUMPDEST PUSH1 0x40 MLOAD PUSH2 0x336 SWAP2 SWAP1 PUSH2 0x1D0C JUMP JUMPDEST PUSH1 0x40 MLOAD DUP1 SWAP2 SUB SWAP1 RETURN JUMPDEST PUSH2 0x347 PUSH2 0x9AE JUMP JUMPDEST PUSH1 0x40 MLOAD PUSH2 0x354 SWAP2 SWAP1 PUSH2 0x1E68 JUMP JUMPDEST PUSH1 0x40 MLOAD DUP1 SWAP2 SUB SWAP1 RETURN JUMPDEST PUSH2 0x377 PUSH1 0x4 DUP1 CALLDATASIZE SUB DUP2 ADD SWAP1 PUSH2 0x372 SWAP2 SWAP1 PUSH2 0x1F2F JUMP JUMPDEST PUSH2 0x9B4 JUMP JUMPDEST STOP JUMPDEST PUSH2 0x393 PUSH1 0x4 DUP1 CALLDATASIZE SUB DUP2 ADD SWAP1 PUSH2 0x38E SWAP2 SWAP1 PUSH2 0x20A4 JUMP JUMPDEST PUSH2 0xB2B JUMP JUMPDEST STOP JUMPDEST PUSH2 0x3AF PUSH1 0x4 DUP1 CALLDATASIZE SUB DUP2 ADD SWAP1 PUSH2 0x3AA SWAP2 SWAP1 PUSH2 0x1ED6 JUMP JUMPDEST PUSH2 0xBA3 JUMP JUMPDEST PUSH1 0x40 MLOAD PUSH2 0x3BC SWAP2 SWAP1 PUSH2 0x1E68 JUMP JUMPDEST PUSH1 0x40 MLOAD DUP1 SWAP2 SUB SWAP1 RETURN JUMPDEST PUSH2 0x3DF PUSH1 0x4 DUP1 CALLDATASIZE SUB DUP2 ADD SWAP1 PUSH2 0x3DA SWAP2 SWAP1 PUSH2 0x1D64 JUMP JUMPDEST PUSH2 0xDB2 JUMP JUMPDEST PUSH1 0x40 MLOAD PUSH2 0x3EC SWAP2 SWAP1 PUSH2 0x1D0C JUMP JUMPDEST PUSH1 0x40 MLOAD DUP1 SWAP2 SUB SWAP1 RETURN JUMPDEST PUSH2 0x3FD PUSH2 0xE50 JUMP JUMPDEST PUSH1 0x40 MLOAD PUSH2 0x40A SWAP2 SWAP1 PUSH2 0x1E68 JUMP JUMPDEST PUSH1 0x40 MLOAD DUP1 SWAP2 SUB SWAP1 RETURN JUMPDEST PUSH2 0x42D PUSH1 0x4 DUP1 CALLDATASIZE SUB DUP2 ADD SWAP1 PUSH2 0x428 SWAP2 SWAP1 PUSH2 0x2127 JUMP JUMPDEST PUSH2 0xE67 JUMP JUMPDEST PUSH1 0x40 MLOAD PUSH2 0x43A SWAP2 SWAP1 PUSH2 0x1C61 JUMP JUMPDEST PUSH1 0x40 MLOAD DUP1 SWAP2 SUB SWAP1 RETURN JUMPDEST PUSH2 0x45D PUSH1 0x4 DUP1 CALLDATASIZE SUB DUP2 ADD SWAP1 PUSH2 0x458 SWAP2 SWAP1 PUSH2 0x1D64 JUMP JUMPDEST PUSH2 0xEFB JUMP JUMPDEST PUSH1 0x40 MLOAD PUSH2 0x46A SWAP2 SWAP1 PUSH2 0x1E68 JUMP JUMPDEST PUSH1 0x40 MLOAD DUP1 SWAP2 SUB SWAP1 RETURN JUMPDEST PUSH1 0x0 PUSH32 0x80AC58CD00000000000000000000000000000000000000000000000000000000 PUSH28 0xFFFFFFFFFFFFFFFFFFFFFFFFFFFFFFFFFFFFFFFFFFFFFFFFFFFFFFFF NOT AND DUP3 PUSH28 0xFFFFFFFFFFFFFFFFFFFFFFFFFFFFFFFFFFFFFFFFFFFFFFFFFFFFFFFF NOT AND EQ DUP1 PUSH2 0x53E JUMPI POP PUSH32 0x5B5E139F00000000000000000000000000000000000000000000000000000000 PUSH28 0xFFFFFFFFFFFFFFFFFFFFFFFFFFFFFFFFFFFFFFFFFFFFFFFFFFFFFFFF NOT AND DUP3 PUSH28 0xFFFFFFFFFFFFFFFFFFFFFFFFFFFFFFFFFFFFFFFFFFFFFFFFFFFFFFFF NOT AND EQ JUMPDEST DUP1 PUSH2 0x54E JUMPI POP PUSH2 0x54D DUP3 PUSH2 0xF5D JUMP JUMPDEST JUMPDEST SWAP1 POP SWAP2 SWAP1 POP JUMP JUMPDEST PUSH1 0x60 PUSH1 0x7 DUP1 SLOAD PUSH2 0x564 SWAP1 PUSH2 0x2196 JUMP JUMPDEST DUP1 PUSH1 0x1F ADD PUSH1 0x20 DUP1 SWAP2 DIV MUL PUSH1 0x20 ADD PUSH1 0x40 MLOAD SWAP1 DUP2 ADD PUSH1 0x40 MSTORE DUP1 SWAP3 SWAP2 SWAP1 DUP2 DUP2 MSTORE PUSH1 0x20 ADD DUP3 DUP1 SLOAD PUSH2 0x590 SWAP1 PUSH2 0x2196 JUMP JUMPDEST DUP1 ISZERO PUSH2 0x5DD JUMPI DUP1 PUSH1 0x1F LT PUSH2 0x5B2 JUMPI PUSH2 0x100 DUP1 DUP4 SLOAD DIV MUL DUP4 MSTORE SWAP2 PUSH1 0x20 ADD SWAP2 PUSH2 0x5DD JUMP JUMPDEST DUP3 ADD SWAP2 SWAP1 PUSH1 0x0 MSTORE PUSH1 0x20 PUSH1 0x0 KECCAK256 SWAP1 JUMPDEST DUP2 SLOAD DUP2 MSTORE SWAP1 PUSH1 0x1 ADD SWAP1 PUSH1 0x20 ADD DUP1 DUP4 GT PUSH2 0x5C0 JUMPI DUP3 SWAP1 SUB PUSH1 0x1F AND DUP3 ADD SWAP2 JUMPDEST POP POP POP POP POP SWAP1 POP SWAP1 JUMP JUMPDEST PUSH1 0x0 PUSH2 0x5F2 DUP3 PUSH2 0xFC7 JUMP JUMPDEST PUSH2 0x628 JUMPI PUSH1 0x40 MLOAD PUSH32 0xCF4700E400000000000000000000000000000000000000000000000000000000 DUP2 MSTORE PUSH1 0x4 ADD PUSH1 0x40 MLOAD DUP1 SWAP2 SUB SWAP1 REVERT JUMPDEST PUSH1 0xB PUSH1 0x0 DUP4 DUP2 MSTORE PUSH1 0x20 ADD SWAP1 DUP2 MSTORE PUSH1 0x20 ADD PUSH1 0x0 KECCAK256 PUSH1 0x0 SWAP1 SLOAD SWAP1 PUSH2 0x100 EXP SWAP1 DIV PUSH20 0xFFFFFFFFFFFFFFFFFFFFFFFFFFFFFFFFFFFFFFFF AND SWAP1 POP SWAP2 SWAP1 POP JUMP JUMPDEST PUSH1 0x0 PUSH2 0x66E DUP3 PUSH2 0x831 JUMP JUMPDEST SWAP1 POP DUP1 PUSH20 0xFFFFFFFFFFFFFFFFFFFFFFFFFFFFFFFFFFFFFFFF AND DUP4 PUSH20 0xFFFFFFFFFFFFFFFFFFFFFFFFFFFFFFFFFFFFFFFF AND SUB PUSH2 0x6D5 JUMPI PUSH1 0x40 MLOAD PUSH32 0x943F7B8C00000000000000000000000000000000000000000000000000000000 DUP2 MSTORE PUSH1 0x4 ADD PUSH1 0x40 MLOAD DUP1 SWAP2 SUB SWAP1 REVERT JUMPDEST DUP1 PUSH20 0xFFFFFFFFFFFFFFFFFFFFFFFFFFFFFFFFFFFFFFFF AND PUSH2 0x6F4 PUSH2 0x1015 JUMP JUMPDEST PUSH20 0xFFFFFFFFFFFFFFFFFFFFFFFFFFFFFFFFFFFFFFFF AND EQ PUSH2 0x757 JUMPI PUSH2 0x720 DUP2 PUSH2 0x71B PUSH2 0x1015 JUMP JUMPDEST PUSH2 0xE67 JUMP JUMPDEST PUSH2 0x756 JUMPI PUSH1 0x40 MLOAD PUSH32 0xCFB3B94200000000000000000000000000000000000000000000000000000000 DUP2 MSTORE PUSH1 0x4 ADD PUSH1 0x40 MLOAD DUP1 SWAP2 SUB SWAP1 REVERT JUMPDEST JUMPDEST PUSH2 0x762 DUP4 DUP4 DUP4 PUSH2 0x101D JUMP JUMPDEST POP POP POP JUMP JUMPDEST PUSH1 0x0 PUSH2 0x771 PUSH2 0x10CF JUMP JUMPDEST PUSH1 0x6 SLOAD PUSH1 0x4 SLOAD SUB SUB SWAP1 POP SWAP1 JUMP JUMPDEST PUSH2 0x789 DUP4 DUP4 DUP4 PUSH2 0x10D4 JUMP JUMPDEST POP POP POP JUMP JUMPDEST PUSH1 0x1 SLOAD DUP2 JUMP JUMPDEST PUSH2 0x7AF DUP4 DUP4 DUP4 PUSH1 0x40 MLOAD DUP1 PUSH1 0x20 ADD PUSH1 0x40 MSTORE DUP1 PUSH1 0x0 DUP2 MSTORE POP PUSH2 0xB2B JUMP JUMPDEST POP POP POP JUMP JUMPDEST PUSH1 0x0 DUP1 PUSH2 0x7D4 PUSH8 0xDE0B6B3A7640000 PUSH1 0x1 SLOAD PUSH2 0x1588 SWAP1 SWAP2 SWAP1 PUSH4 0xFFFFFFFF AND JUMP JUMPDEST SWAP1 POP PUSH1 0x0 PUSH2 0x807 PUSH1 0x2 SLOAD PUSH2 0x7F9 PUSH8 0xDE0B6B3A7640000 DUP8 PUSH2 0x1588 SWAP1 SWAP2 SWAP1 PUSH4 0xFFFFFFFF AND JUMP JUMPDEST PUSH2 0x159E SWAP1 SWAP2 SWAP1 PUSH4 0xFFFFFFFF AND JUMP JUMPDEST SWAP1 POP PUSH1 0x0 PUSH2 0x81E DUP3 DUP5 PUSH2 0x159E SWAP1 SWAP2 SWAP1 PUSH4 0xFFFFFFFF AND JUMP JUMPDEST SWAP1 POP DUP1 SWAP4 POP POP POP POP SWAP2 SWAP1 POP JUMP JUMPDEST PUSH1 0x3 SLOAD DUP2 JUMP JUMPDEST PUSH1 0x0 PUSH2 0x83C DUP3 PUSH2 0x15B4 JUMP JUMPDEST PUSH1 0x0 ADD MLOAD SWAP1 POP SWAP2 SWAP1 POP JUMP JUMPDEST PUSH1 0x0 DUP1 PUSH20 0xFFFFFFFFFFFFFFFFFFFFFFFFFFFFFFFFFFFFFFFF AND DUP3 PUSH20 0xFFFFFFFFFFFFFFFFFFFFFFFFFFFFFFFFFFFFFFFF AND SUB PUSH2 0x8AE JUMPI PUSH1 0x40 MLOAD PUSH32 0x8F4EB60400000000000000000000000000000000000000000000000000000000 DUP2 MSTORE PUSH1 0x4 ADD PUSH1 0x40 MLOAD DUP1 SWAP2 SUB SWAP1 REVERT JUMPDEST PUSH1 0xA PUSH1 0x0 DUP4 PUSH20 0xFFFFFFFFFFFFFFFFFFFFFFFFFFFFFFFFFFFFFFFF AND PUSH20 0xFFFFFFFFFFFFFFFFFFFFFFFFFFFFFFFFFFFFFFFF AND DUP2 MSTORE PUSH1 0x20 ADD SWAP1 DUP2 MSTORE PUSH1 0x20 ADD PUSH1 0x0 KECCAK256 PUSH1 0x0 ADD PUSH1 0x0 SWAP1 SLOAD SWAP1 PUSH2 0x100 EXP SWAP1 DIV PUSH8 0xFFFFFFFFFFFFFFFF AND PUSH8 0xFFFFFFFFFFFFFFFF AND SWAP1 POP SWAP2 SWAP1 POP JUMP JUMPDEST PUSH1 0x2 SLOAD DUP2 JUMP JUMPDEST PUSH1 0x60 PUSH1 0x8 DUP1 SLOAD PUSH2 0x92B SWAP1 PUSH2 0x2196 JUMP JUMPDEST DUP1 PUSH1 0x1F ADD PUSH1 0x20 DUP1 SWAP2 DIV MUL PUSH1 0x20 ADD PUSH1 0x40 MLOAD SWAP1 DUP2 ADD PUSH1 0x40 MSTORE DUP1 SWAP3 SWAP2 SWAP1 DUP2 DUP2 MSTORE PUSH1 0x20 ADD DUP3 DUP1 SLOAD PUSH2 0x957 SWAP1 PUSH2 0x2196 JUMP JUMPDEST DUP1 ISZERO PUSH2 0x9A4 JUMPI DUP1 PUSH1 0x1F LT PUSH2 0x979 JUMPI PUSH2 0x100 DUP1 DUP4 SLOAD DIV MUL DUP4 MSTORE SWAP2 PUSH1 0x20 ADD SWAP2 PUSH2 0x9A4 JUMP JUMPDEST DUP3 ADD SWAP2 SWAP1 PUSH1 0x0 MSTORE PUSH1 0x20 PUSH1 0x0 KECCAK256 SWAP1 JUMPDEST DUP2 SLOAD DUP2 MSTORE SWAP1 PUSH1 0x1 ADD SWAP1 PUSH1 0x20 ADD DUP1 DUP4 GT PUSH2 0x987 JUMPI DUP3 SWAP1 SUB PUSH1 0x1F AND DUP3 ADD SWAP2 JUMPDEST POP POP POP POP POP SWAP1 POP SWAP1 JUMP JUMPDEST PUSH1 0x0 SLOAD DUP2 JUMP JUMPDEST PUSH2 0x9BC PUSH2 0x1015 JUMP JUMPDEST PUSH20 0xFFFFFFFFFFFFFFFFFFFFFFFFFFFFFFFFFFFFFFFF AND DUP3 PUSH20 0xFFFFFFFFFFFFFFFFFFFFFFFFFFFFFFFFFFFFFFFF AND SUB PUSH2 0xA20 JUMPI PUSH1 0x40 MLOAD PUSH32 0xB06307DB00000000000000000000000000000000000000000000000000000000 DUP2 MSTORE PUSH1 0x4 ADD PUSH1 0x40 MLOAD DUP1 SWAP2 SUB SWAP1 REVERT JUMPDEST DUP1 PUSH1 0xC PUSH1 0x0 PUSH2 0xA2D PUSH2 0x1015 JUMP JUMPDEST PUSH20 0xFFFFFFFFFFFFFFFFFFFFFFFFFFFFFFFFFFFFFFFF AND PUSH20 0xFFFFFFFFFFFFFFFFFFFFFFFFFFFFFFFFFFFFFFFF AND DUP2 MSTORE PUSH1 0x20 ADD SWAP1 DUP2 MSTORE PUSH1 0x20 ADD PUSH1 0x0 KECCAK256 PUSH1 0x0 DUP5 PUSH20 0xFFFFFFFFFFFFFFFFFFFFFFFFFFFFFFFFFFFFFFFF AND PUSH20 0xFFFFFFFFFFFFFFFFFFFFFFFFFFFFFFFFFFFFFFFF AND DUP2 MSTORE PUSH1 0x20 ADD SWAP1 DUP2 MSTORE PUSH1 0x20 ADD PUSH1 0x0 KECCAK256 PUSH1 0x0 PUSH2 0x100 EXP DUP2 SLOAD DUP2 PUSH1 0xFF MUL NOT AND SWAP1 DUP4 ISZERO ISZERO MUL OR SWAP1 SSTORE POP DUP2 PUSH20 0xFFFFFFFFFFFFFFFFFFFFFFFFFFFFFFFFFFFFFFFF AND PUSH2 0xADA PUSH2 0x1015 JUMP JUMPDEST PUSH20 0xFFFFFFFFFFFFFFFFFFFFFFFFFFFFFFFFFFFFFFFF AND PUSH32 0x17307EAB39AB6107E8899845AD3D59BD9653F200F220920489CA2B5937696C31 DUP4 PUSH1 0x40 MLOAD PUSH2 0xB1F SWAP2 SWAP1 PUSH2 0x1C61 JUMP JUMPDEST PUSH1 0x40 MLOAD DUP1 SWAP2 SUB SWAP1 LOG3 POP POP JUMP JUMPDEST PUSH2 0xB36 DUP5 DUP5 DUP5 PUSH2 0x10D4 JUMP JUMPDEST PUSH2 0xB55 DUP4 PUSH20 0xFFFFFFFFFFFFFFFFFFFFFFFFFFFFFFFFFFFFFFFF AND PUSH2 0x183F JUMP JUMPDEST ISZERO PUSH2 0xB9D JUMPI PUSH2 0xB66 DUP5 DUP5 DUP5 DUP5 PUSH2 0x1862 JUMP JUMPDEST PUSH2 0xB9C JUMPI PUSH1 0x40 MLOAD PUSH32 0xD1A57ED600000000000000000000000000000000000000000000000000000000 DUP2 MSTORE PUSH1 0x4 ADD PUSH1 0x40 MLOAD DUP1 SWAP2 SUB SWAP1 REVERT JUMPDEST JUMPDEST POP POP POP POP JUMP JUMPDEST PUSH1 0x0 DUP1 PUSH2 0xC1D PUSH1 0x1 PUSH2 0xC0F PUSH1 0xD PUSH1 0x0 DUP8 PUSH20 0xFFFFFFFFFFFFFFFFFFFFFFFFFFFFFFFFFFFFFFFF AND PUSH20 0xFFFFFFFFFFFFFFFFFFFFFFFFFFFFFFFFFFFFFFFF AND DUP2 MSTORE PUSH1 0x20 ADD SWAP1 DUP2 MSTORE PUSH1 0x20 ADD PUSH1 0x0 KECCAK256 PUSH1 0x0 PUSH1 0x1 DUP2 MSTORE PUSH1 0x20 ADD SWAP1 DUP2 MSTORE PUSH1 0x20 ADD PUSH1 0x0 KECCAK256 SLOAD NUMBER PUSH2 0x19B2 SWAP1 SWAP2 SWAP1 PUSH4 0xFFFFFFFF AND JUMP JUMPDEST PUSH2 0x19C8 SWAP1 SWAP2 SWAP1 PUSH4 0xFFFFFFFF AND JUMP JUMPDEST SWAP1 POP PUSH1 0x0 PUSH2 0xC7B PUSH1 0xD PUSH1 0x0 DUP7 PUSH20 0xFFFFFFFFFFFFFFFFFFFFFFFFFFFFFFFFFFFFFFFF AND PUSH20 0xFFFFFFFFFFFFFFFFFFFFFFFFFFFFFFFFFFFFFFFF AND DUP2 MSTORE PUSH1 0x20 ADD SWAP1 DUP2 MSTORE PUSH1 0x20 ADD PUSH1 0x0 KECCAK256 PUSH1 0x0 PUSH1 0x1 DUP2 MSTORE PUSH1 0x20 ADD SWAP1 DUP2 MSTORE PUSH1 0x20 ADD PUSH1 0x0 KECCAK256 SLOAD PUSH2 0x7B4 JUMP JUMPDEST SWAP1 POP PUSH1 0x0 PUSH2 0xC88 NUMBER PUSH2 0x7B4 JUMP JUMPDEST SWAP1 POP PUSH1 0x0 PUSH2 0xCC4 PUSH1 0x2 PUSH2 0xCB6 DUP7 PUSH2 0xCA8 DUP7 DUP9 PUSH2 0x19C8 SWAP1 SWAP2 SWAP1 PUSH4 0xFFFFFFFF AND JUMP JUMPDEST PUSH2 0x1588 SWAP1 SWAP2 SWAP1 PUSH4 0xFFFFFFFF AND JUMP JUMPDEST PUSH2 0x159E SWAP1 SWAP2 SWAP1 PUSH4 0xFFFFFFFF AND JUMP JUMPDEST SWAP1 POP PUSH1 0x0 PUSH2 0xD40 PUSH1 0x3 SLOAD PUSH2 0xD32 PUSH1 0xD PUSH1 0x0 DUP12 PUSH20 0xFFFFFFFFFFFFFFFFFFFFFFFFFFFFFFFFFFFFFFFF AND PUSH20 0xFFFFFFFFFFFFFFFFFFFFFFFFFFFFFFFFFFFFFFFF AND DUP2 MSTORE PUSH1 0x20 ADD SWAP1 DUP2 MSTORE PUSH1 0x20 ADD PUSH1 0x0 KECCAK256 PUSH1 0x0 PUSH1 0x2 DUP2 MSTORE PUSH1 0x20 ADD SWAP1 DUP2 MSTORE PUSH1 0x20 ADD PUSH1 0x0 KECCAK256 SLOAD DUP6 PUSH2 0x1588 SWAP1 SWAP2 SWAP1 PUSH4 0xFFFFFFFF AND JUMP JUMPDEST PUSH2 0x159E SWAP1 SWAP2 SWAP1 PUSH4 0xFFFFFFFF AND JUMP JUMPDEST SWAP1 POP PUSH2 0xDA6 DUP2 PUSH1 0xD PUSH1 0x0 DUP11 PUSH20 0xFFFFFFFFFFFFFFFFFFFFFFFFFFFFFFFFFFFFFFFF AND PUSH20 0xFFFFFFFFFFFFFFFFFFFFFFFFFFFFFFFFFFFFFFFF AND DUP2 MSTORE PUSH1 0x20 ADD SWAP1 DUP2 MSTORE PUSH1 0x20 ADD PUSH1 0x0 KECCAK256 PUSH1 0x0 PUSH1 0x3 DUP2 MSTORE PUSH1 0x20 ADD SWAP1 DUP2 MSTORE PUSH1 0x20 ADD PUSH1 0x0 KECCAK256 SLOAD PUSH2 0x19C8 SWAP1 SWAP2 SWAP1 PUSH4 0xFFFFFFFF AND JUMP JUMPDEST SWAP6 POP POP POP POP POP POP SWAP2 SWAP1 POP JUMP JUMPDEST PUSH1 0x60 PUSH2 0xDBD DUP3 PUSH2 0xFC7 JUMP JUMPDEST PUSH2 0xDF3 JUMPI PUSH1 0x40 MLOAD PUSH32 0xA14C4B5000000000000000000000000000000000000000000000000000000000 DUP2 MSTORE PUSH1 0x4 ADD PUSH1 0x40 MLOAD DUP1 SWAP2 SUB SWAP1 REVERT JUMPDEST PUSH1 0x0 PUSH2 0xDFD PUSH2 0x19DE JUMP JUMPDEST SWAP1 POP PUSH1 0x0 DUP2 MLOAD SUB PUSH2 0xE1D JUMPI PUSH1 0x40 MLOAD DUP1 PUSH1 0x20 ADD PUSH1 0x40 MSTORE DUP1 PUSH1 0x0 DUP2 MSTORE POP PUSH2 0xE48 JUMP JUMPDEST DUP1 PUSH2 0xE27 DUP5 PUSH2 0x19FE JUMP JUMPDEST PUSH1 0x40 MLOAD PUSH1 0x20 ADD PUSH2 0xE38 SWAP3 SWAP2 SWAP1 PUSH2 0x2203 JUMP JUMPDEST PUSH1 0x40 MLOAD PUSH1 0x20 DUP2 DUP4 SUB SUB DUP2 MSTORE SWAP1 PUSH1 0x40 MSTORE JUMPDEST SWAP2 POP POP SWAP2 SWAP1 POP JUMP JUMPDEST PUSH1 0x0 PUSH2 0xE5A PUSH2 0x10CF JUMP JUMPDEST PUSH1 0x6 SLOAD PUSH1 0x5 SLOAD SUB SUB SWAP1 POP SWAP1 JUMP JUMPDEST PUSH1 0x0 PUSH1 0xC PUSH1 0x0 DUP5 PUSH20 0xFFFFFFFFFFFFFFFFFFFFFFFFFFFFFFFFFFFFFFFF AND PUSH20 0xFFFFFFFFFFFFFFFFFFFFFFFFFFFFFFFFFFFFFFFF AND DUP2 MSTORE PUSH1 0x20 ADD SWAP1 DUP2 MSTORE PUSH1 0x20 ADD PUSH1 0x0 KECCAK256 PUSH1 0x0 DUP4 PUSH20 0xFFFFFFFFFFFFFFFFFFFFFFFFFFFFFFFFFFFFFFFF AND PUSH20 0xFFFFFFFFFFFFFFFFFFFFFFFFFFFFFFFFFFFFFFFF AND DUP2 MSTORE PUSH1 0x20 ADD SWAP1 DUP2 MSTORE PUSH1 0x20 ADD PUSH1 0x0 KECCAK256 PUSH1 0x0 SWAP1 SLOAD SWAP1 PUSH2 0x100 EXP SWAP1 DIV PUSH1 0xFF AND SWAP1 POP SWAP3 SWAP2 POP POP JUMP JUMPDEST PUSH1 0x0 DUP1 PUSH2 0xF25 DUP4 PUSH2 0xF17 PUSH1 0x0 SLOAD DUP7 PUSH2 0x1588 SWAP1 SWAP2 SWAP1 PUSH4 0xFFFFFFFF AND JUMP JUMPDEST PUSH2 0x19C8 SWAP1 SWAP2 SWAP1 PUSH4 0xFFFFFFFF AND JUMP JUMPDEST SWAP1 POP PUSH1 0x0 PUSH1 0xA DUP3 PUSH2 0xF36 SWAP2 SWAP1 PUSH2 0x2256 JUMP JUMPDEST SUB PUSH2 0xF44 JUMPI PUSH1 0x1 SWAP1 POP PUSH2 0xF54 JUMP JUMPDEST PUSH1 0xA DUP2 PUSH2 0xF51 SWAP2 SWAP1 PUSH2 0x2256 JUMP JUMPDEST SWAP1 POP JUMPDEST DUP1 SWAP2 POP POP SWAP2 SWAP1 POP JUMP JUMPDEST PUSH1 0x0 PUSH32 0x1FFC9A700000000000000000000000000000000000000000000000000000000 PUSH28 0xFFFFFFFFFFFFFFFFFFFFFFFFFFFFFFFFFFFFFFFFFFFFFFFFFFFFFFFF NOT AND DUP3 PUSH28 0xFFFFFFFFFFFFFFFFFFFFFFFFFFFFFFFFFFFFFFFFFFFFFFFFFFFFFFFF NOT AND EQ SWAP1 POP SWAP2 SWAP1 POP JUMP JUMPDEST PUSH1 0x0 DUP2 PUSH2 0xFD2 PUSH2 0x10CF JUMP JUMPDEST GT ISZERO DUP1 ISZERO PUSH2 0xFE1 JUMPI POP PUSH1 0x4 SLOAD DUP3 LT JUMPDEST DUP1 ISZERO PUSH2 0x100E JUMPI POP PUSH1 0x9 PUSH1 0x0 DUP4 DUP2 MSTORE PUSH1 0x20 ADD SWAP1 DUP2 MSTORE PUSH1 0x20 ADD PUSH1 0x0 KECCAK256 PUSH1 0x0 ADD PUSH1 0x1C SWAP1 SLOAD SWAP1 PUSH2 0x100 EXP SWAP1 DIV PUSH1 0xFF AND ISZERO JUMPDEST SWAP1 POP SWAP2 SWAP1 POP JUMP JUMPDEST PUSH1 0x0 CALLER SWAP1 POP SWAP1 JUMP JUMPDEST DUP3 PUSH1 0xB PUSH1 0x0 DUP5 DUP2 MSTORE PUSH1 0x20 ADD SWAP1 DUP2 MSTORE PUSH1 0x20 ADD PUSH1 0x0 KECCAK256 PUSH1 0x0 PUSH2 0x100 EXP DUP2 SLOAD DUP2 PUSH20 0xFFFFFFFFFFFFFFFFFFFFFFFFFFFFFFFFFFFFFFFF MUL NOT AND SWAP1 DUP4 PUSH20 0xFFFFFFFFFFFFFFFFFFFFFFFFFFFFFFFFFFFFFFFF AND MUL OR SWAP1 SSTORE POP DUP2 DUP4 PUSH20 0xFFFFFFFFFFFFFFFFFFFFFFFFFFFFFFFFFFFFFFFF AND DUP3 PUSH20 0xFFFFFFFFFFFFFFFFFFFFFFFFFFFFFFFFFFFFFFFF AND PUSH32 0x8C5BE1E5EBEC7D5BD14F71427D1E84F3DD0314C0F7B2291E5B200AC8C7C3B925 PUSH1 0x40 MLOAD PUSH1 0x40 MLOAD DUP1 SWAP2 SUB SWAP1 LOG4 POP POP POP JUMP JUMPDEST PUSH1 0x0 SWAP1 JUMP JUMPDEST PUSH1 0x0 PUSH2 0x10DF DUP3 PUSH2 0x15B4 JUMP JUMPDEST SWAP1 POP DUP4 PUSH20 0xFFFFFFFFFFFFFFFFFFFFFFFFFFFFFFFFFFFFFFFF AND DUP2 PUSH1 0x0 ADD MLOAD PUSH20 0xFFFFFFFFFFFFFFFFFFFFFFFFFFFFFFFFFFFFFFFF AND EQ PUSH2 0x114A JUMPI PUSH1 0x40 MLOAD PUSH32 0xA114810000000000000000000000000000000000000000000000000000000000 DUP2 MSTORE PUSH1 0x4 ADD PUSH1 0x40 MLOAD DUP1 SWAP2 SUB SWAP1 REVERT JUMPDEST PUSH1 0x0 DUP5 PUSH20 0xFFFFFFFFFFFFFFFFFFFFFFFFFFFFFFFFFFFFFFFF AND PUSH2 0x116B PUSH2 0x1015 JUMP JUMPDEST PUSH20 0xFFFFFFFFFFFFFFFFFFFFFFFFFFFFFFFFFFFFFFFF AND EQ DUP1 PUSH2 0x119A JUMPI POP PUSH2 0x1199 DUP6 PUSH2 0x1194 PUSH2 0x1015 JUMP JUMPDEST PUSH2 0xE67 JUMP JUMPDEST JUMPDEST DUP1 PUSH2 0x11DF JUMPI POP PUSH2 0x11A8 PUSH2 0x1015 JUMP JUMPDEST PUSH20 0xFFFFFFFFFFFFFFFFFFFFFFFFFFFFFFFFFFFFFFFF AND PUSH2 0x11C7 DUP5 PUSH2 0x5E7 JUMP JUMPDEST PUSH20 0xFFFFFFFFFFFFFFFFFFFFFFFFFFFFFFFFFFFFFFFF AND EQ JUMPDEST SWAP1 POP DUP1 PUSH2 0x1218 JUMPI PUSH1 0x40 MLOAD PUSH32 0x59C896BE00000000000000000000000000000000000000000000000000000000 DUP2 MSTORE PUSH1 0x4 ADD PUSH1 0x40 MLOAD DUP1 SWAP2 SUB SWAP1 REVERT JUMPDEST PUSH1 0x0 PUSH20 0xFFFFFFFFFFFFFFFFFFFFFFFFFFFFFFFFFFFFFFFF AND DUP5 PUSH20 0xFFFFFFFFFFFFFFFFFFFFFFFFFFFFFFFFFFFFFFFF AND SUB PUSH2 0x127E JUMPI PUSH1 0x40 MLOAD PUSH32 0xEA553B3400000000000000000000000000000000000000000000000000000000 DUP2 MSTORE PUSH1 0x4 ADD PUSH1 0x40 MLOAD DUP1 SWAP2 SUB SWAP1 REVERT JUMPDEST PUSH2 0x128B DUP6 DUP6 DUP6 PUSH1 0x1 PUSH2 0x1B5E JUMP JUMPDEST PUSH2 0x1297 PUSH1 0x0 DUP5 DUP8 PUSH2 0x101D JUMP JUMPDEST PUSH1 0x1 PUSH1 0xA PUSH1 0x0 DUP8 PUSH20 0xFFFFFFFFFFFFFFFFFFFFFFFFFFFFFFFFFFFFFFFF AND PUSH20 0xFFFFFFFFFFFFFFFFFFFFFFFFFFFFFFFFFFFFFFFF AND DUP2 MSTORE PUSH1 0x20 ADD SWAP1 DUP2 MSTORE PUSH1 0x20 ADD PUSH1 0x0 KECCAK256 PUSH1 0x0 ADD PUSH1 0x0 DUP3 DUP3 DUP3 SWAP1 SLOAD SWAP1 PUSH2 0x100 EXP SWAP1 DIV PUSH8 0xFFFFFFFFFFFFFFFF AND SUB SWAP3 POP PUSH2 0x100 EXP DUP2 SLOAD DUP2 PUSH8 0xFFFFFFFFFFFFFFFF MUL NOT AND SWAP1 DUP4 PUSH8 0xFFFFFFFFFFFFFFFF AND MUL OR SWAP1 SSTORE POP PUSH1 0x1 PUSH1 0xA PUSH1 0x0 DUP7 PUSH20 0xFFFFFFFFFFFFFFFFFFFFFFFFFFFFFFFFFFFFFFFF AND PUSH20 0xFFFFFFFFFFFFFFFFFFFFFFFFFFFFFFFFFFFFFFFF AND DUP2 MSTORE PUSH1 0x20 ADD SWAP1 DUP2 MSTORE PUSH1 0x20 ADD PUSH1 0x0 KECCAK256 PUSH1 0x0 ADD PUSH1 0x0 DUP3 DUP3 DUP3 SWAP1 SLOAD SWAP1 PUSH2 0x100 EXP SWAP1 DIV PUSH8 0xFFFFFFFFFFFFFFFF AND ADD SWAP3 POP PUSH2 0x100 EXP DUP2 SLOAD DUP2 PUSH8 0xFFFFFFFFFFFFFFFF MUL NOT AND SWAP1 DUP4 PUSH8 0xFFFFFFFFFFFFFFFF AND MUL OR SWAP1 SSTORE POP PUSH1 0x0 PUSH1 0x9 PUSH1 0x0 DUP6 DUP2 MSTORE PUSH1 0x20 ADD SWAP1 DUP2 MSTORE PUSH1 0x20 ADD PUSH1 0x0 KECCAK256 SWAP1 POP DUP5 DUP2 PUSH1 0x0 ADD PUSH1 0x0 PUSH2 0x100 EXP DUP2 SLOAD DUP2 PUSH20 0xFFFFFFFFFFFFFFFFFFFFFFFFFFFFFFFFFFFFFFFF MUL NOT AND SWAP1 DUP4 PUSH20 0xFFFFFFFFFFFFFFFFFFFFFFFFFFFFFFFFFFFFFFFF AND MUL OR SWAP1 SSTORE POP TIMESTAMP DUP2 PUSH1 0x0 ADD PUSH1 0x14 PUSH2 0x100 EXP DUP2 SLOAD DUP2 PUSH8 0xFFFFFFFFFFFFFFFF MUL NOT AND SWAP1 DUP4 PUSH8 0xFFFFFFFFFFFFFFFF AND MUL OR SWAP1 SSTORE POP PUSH1 0x0 PUSH1 0x1 DUP6 ADD SWAP1 POP PUSH1 0x0 PUSH1 0x9 PUSH1 0x0 DUP4 DUP2 MSTORE PUSH1 0x20 ADD SWAP1 DUP2 MSTORE PUSH1 0x20 ADD PUSH1 0x0 KECCAK256 SWAP1 POP PUSH1 0x0 PUSH20 0xFFFFFFFFFFFFFFFFFFFFFFFFFFFFFFFFFFFFFFFF AND DUP2 PUSH1 0x0 ADD PUSH1 0x0 SWAP1 SLOAD SWAP1 PUSH2 0x100 EXP SWAP1 DIV PUSH20 0xFFFFFFFFFFFFFFFFFFFFFFFFFFFFFFFFFFFFFFFF AND PUSH20 0xFFFFFFFFFFFFFFFFFFFFFFFFFFFFFFFFFFFFFFFF AND SUB PUSH2 0x1516 JUMPI PUSH1 0x4 SLOAD DUP3 EQ PUSH2 0x1515 JUMPI DUP8 DUP2 PUSH1 0x0 ADD PUSH1 0x0 PUSH2 0x100 EXP DUP2 SLOAD DUP2 PUSH20 0xFFFFFFFFFFFFFFFFFFFFFFFFFFFFFFFFFFFFFFFF MUL NOT AND SWAP1 DUP4 PUSH20 0xFFFFFFFFFFFFFFFFFFFFFFFFFFFFFFFFFFFFFFFF AND MUL OR SWAP1 SSTORE POP DUP5 PUSH1 0x20 ADD MLOAD DUP2 PUSH1 0x0 ADD PUSH1 0x14 PUSH2 0x100 EXP DUP2 SLOAD DUP2 PUSH8 0xFFFFFFFFFFFFFFFF MUL NOT AND SWAP1 DUP4 PUSH8 0xFFFFFFFFFFFFFFFF AND MUL OR SWAP1 SSTORE POP JUMPDEST JUMPDEST POP POP POP DUP3 DUP5 PUSH20 0xFFFFFFFFFFFFFFFFFFFFFFFFFFFFFFFFFFFFFFFF AND DUP7 PUSH20 0xFFFFFFFFFFFFFFFFFFFFFFFFFFFFFFFFFFFFFFFF AND PUSH32 0xDDF252AD1BE2C89B69C2B068FC378DAA952BA7F163C4A11628F55A4DF523B3EF PUSH1 0x40 MLOAD PUSH1 0x40 MLOAD DUP1 SWAP2 SUB SWAP1 LOG4 PUSH2 0x1581 DUP6 DUP6 DUP6 PUSH1 0x1 PUSH2 0x1B64 JUMP JUMPDEST POP POP POP POP POP JUMP JUMPDEST PUSH1 0x0 DUP2 DUP4 PUSH2 0x1596 SWAP2 SWAP1 PUSH2 0x22B6 JUMP JUMPDEST SWAP1 POP SWAP3 SWAP2 POP POP JUMP JUMPDEST PUSH1 0x0 DUP2 DUP4 PUSH2 0x15AC SWAP2 SWAP1 PUSH2 0x22F8 JUMP JUMPDEST SWAP1 POP SWAP3 SWAP2 POP POP JUMP JUMPDEST PUSH2 0x15BC PUSH2 0x1B6A JUMP JUMPDEST PUSH1 0x0 DUP3 SWAP1 POP DUP1 PUSH2 0x15CA PUSH2 0x10CF JUMP JUMPDEST GT PUSH2 0x1808 JUMPI PUSH1 0x4 SLOAD DUP2 LT ISZERO PUSH2 0x1807 JUMPI PUSH1 0x0 PUSH1 0x9 PUSH1 0x0 DUP4 DUP2 MSTORE PUSH1 0x20 ADD SWAP1 DUP2 MSTORE PUSH1 0x20 ADD PUSH1 0x0 KECCAK256 PUSH1 0x40 MLOAD DUP1 PUSH1 0x60 ADD PUSH1 0x40 MSTORE SWAP1 DUP2 PUSH1 0x0 DUP3 ADD PUSH1 0x0 SWAP1 SLOAD SWAP1 PUSH2 0x100 EXP SWAP1 DIV PUSH20 0xFFFFFFFFFFFFFFFFFFFFFFFFFFFFFFFFFFFFFFFF AND PUSH20 0xFFFFFFFFFFFFFFFFFFFFFFFFFFFFFFFFFFFFFFFF AND PUSH20 0xFFFFFFFFFFFFFFFFFFFFFFFFFFFFFFFFFFFFFFFF AND DUP2 MSTORE PUSH1 0x20 ADD PUSH1 0x0 DUP3 ADD PUSH1 0x14 SWAP1 SLOAD SWAP1 PUSH2 0x100 EXP SWAP1 DIV PUSH8 0xFFFFFFFFFFFFFFFF AND PUSH8 0xFFFFFFFFFFFFFFFF AND PUSH8 0xFFFFFFFFFFFFFFFF AND DUP2 MSTORE PUSH1 0x20 ADD PUSH1 0x0 DUP3 ADD PUSH1 0x1C SWAP1 SLOAD SWAP1 PUSH2 0x100 EXP SWAP1 DIV PUSH1 0xFF AND ISZERO ISZERO ISZERO ISZERO DUP2 MSTORE POP POP SWAP1 POP DUP1 PUSH1 0x40 ADD MLOAD PUSH2 0x1805 JUMPI PUSH1 0x0 PUSH20 0xFFFFFFFFFFFFFFFFFFFFFFFFFFFFFFFFFFFFFFFF AND DUP2 PUSH1 0x0 ADD MLOAD PUSH20 0xFFFFFFFFFFFFFFFFFFFFFFFFFFFFFFFFFFFFFFFF AND EQ PUSH2 0x16E9 JUMPI DUP1 SWAP3 POP POP POP PUSH2 0x183A JUMP JUMPDEST JUMPDEST PUSH1 0x1 ISZERO PUSH2 0x1804 JUMPI DUP2 DUP1 PUSH1 0x1 SWAP1 SUB SWAP3 POP POP PUSH1 0x9 PUSH1 0x0 DUP4 DUP2 MSTORE PUSH1 0x20 ADD SWAP1 DUP2 MSTORE PUSH1 0x20 ADD PUSH1 0x0 KECCAK256 PUSH1 0x40 MLOAD DUP1 PUSH1 0x60 ADD PUSH1 0x40 MSTORE SWAP1 DUP2 PUSH1 0x0 DUP3 ADD PUSH1 0x0 SWAP1 SLOAD SWAP1 PUSH2 0x100 EXP SWAP1 DIV PUSH20 0xFFFFFFFFFFFFFFFFFFFFFFFFFFFFFFFFFFFFFFFF AND PUSH20 0xFFFFFFFFFFFFFFFFFFFFFFFFFFFFFFFFFFFFFFFF AND PUSH20 0xFFFFFFFFFFFFFFFFFFFFFFFFFFFFFFFFFFFFFFFF AND DUP2 MSTORE PUSH1 0x20 ADD PUSH1 0x0 DUP3 ADD PUSH1 0x14 SWAP1 SLOAD SWAP1 PUSH2 0x100 EXP SWAP1 DIV PUSH8 0xFFFFFFFFFFFFFFFF AND PUSH8 0xFFFFFFFFFFFFFFFF AND PUSH8 0xFFFFFFFFFFFFFFFF AND DUP2 MSTORE PUSH1 0x20 ADD PUSH1 0x0 DUP3 ADD PUSH1 0x1C SWAP1 SLOAD SWAP1 PUSH2 0x100 EXP SWAP1 DIV PUSH1 0xFF AND ISZERO ISZERO ISZERO ISZERO DUP2 MSTORE POP POP SWAP1 POP PUSH1 0x0 PUSH20 0xFFFFFFFFFFFFFFFFFFFFFFFFFFFFFFFFFFFFFFFF AND DUP2 PUSH1 0x0 ADD MLOAD PUSH20 0xFFFFFFFFFFFFFFFFFFFFFFFFFFFFFFFFFFFFFFFF AND EQ PUSH2 0x17FF JUMPI DUP1 SWAP3 POP POP POP PUSH2 0x183A JUMP JUMPDEST PUSH2 0x16EA JUMP JUMPDEST JUMPDEST POP JUMPDEST JUMPDEST PUSH1 0x40 MLOAD PUSH32 0xDF2D9B4200000000000000000000000000000000000000000000000000000000 DUP2 MSTORE PUSH1 0x4 ADD PUSH1 0x40 MLOAD DUP1 SWAP2 SUB SWAP1 REVERT JUMPDEST SWAP2 SWAP1 POP JUMP JUMPDEST PUSH1 0x0 DUP1 DUP3 PUSH20 0xFFFFFFFFFFFFFFFFFFFFFFFFFFFFFFFFFFFFFFFF AND EXTCODESIZE GT SWAP1 POP SWAP2 SWAP1 POP JUMP JUMPDEST PUSH1 0x0 DUP4 PUSH20 0xFFFFFFFFFFFFFFFFFFFFFFFFFFFFFFFFFFFFFFFF AND PUSH4 0x150B7A02 PUSH2 0x1888 PUSH2 0x1015 JUMP JUMPDEST DUP8 DUP7 DUP7 PUSH1 0x40 MLOAD DUP6 PUSH4 0xFFFFFFFF AND PUSH1 0xE0 SHL DUP2 MSTORE PUSH1 0x4 ADD PUSH2 0x18AA SWAP5 SWAP4 SWAP3 SWAP2 SWAP1 PUSH2 0x237E JUMP JUMPDEST PUSH1 0x20 PUSH1 0x40 MLOAD DUP1 DUP4 SUB DUP2 PUSH1 0x0 DUP8 GAS CALL SWAP3 POP POP POP DUP1 ISZERO PUSH2 0x18E6 JUMPI POP PUSH1 0x40 MLOAD RETURNDATASIZE PUSH1 0x1F NOT PUSH1 0x1F DUP3 ADD AND DUP3 ADD DUP1 PUSH1 0x40 MSTORE POP DUP2 ADD SWAP1 PUSH2 0x18E3 SWAP2 SWAP1 PUSH2 0x23DF JUMP JUMPDEST PUSH1 0x1 JUMPDEST PUSH2 0x195F JUMPI RETURNDATASIZE DUP1 PUSH1 0x0 DUP2 EQ PUSH2 0x1916 JUMPI PUSH1 0x40 MLOAD SWAP2 POP PUSH1 0x1F NOT PUSH1 0x3F RETURNDATASIZE ADD AND DUP3 ADD PUSH1 0x40 MSTORE RETURNDATASIZE DUP3 MSTORE RETURNDATASIZE PUSH1 0x0 PUSH1 0x20 DUP5 ADD RETURNDATACOPY PUSH2 0x191B JUMP JUMPDEST PUSH1 0x60 SWAP2 POP JUMPDEST POP PUSH1 0x0 DUP2 MLOAD SUB PUSH2 0x1957 JUMPI PUSH1 0x40 MLOAD PUSH32 0xD1A57ED600000000000000000000000000000000000000000000000000000000 DUP2 MSTORE PUSH1 0x4 ADD PUSH1 0x40 MLOAD DUP1 SWAP2 SUB SWAP1 REVERT JUMPDEST DUP1 MLOAD DUP2 PUSH1 0x20 ADD REVERT JUMPDEST PUSH4 0x150B7A02 PUSH1 0xE0 SHL PUSH28 0xFFFFFFFFFFFFFFFFFFFFFFFFFFFFFFFFFFFFFFFFFFFFFFFFFFFFFFFF NOT AND DUP2 PUSH28 0xFFFFFFFFFFFFFFFFFFFFFFFFFFFFFFFFFFFFFFFFFFFFFFFFFFFFFFFF NOT AND EQ SWAP2 POP POP SWAP5 SWAP4 POP POP POP POP JUMP JUMPDEST PUSH1 0x0 DUP2 DUP4 PUSH2 0x19C0 SWAP2 SWAP1 PUSH2 0x240C JUMP JUMPDEST SWAP1 POP SWAP3 SWAP2 POP POP JUMP JUMPDEST PUSH1 0x0 DUP2 DUP4 PUSH2 0x19D6 SWAP2 SWAP1 PUSH2 0x2440 JUMP JUMPDEST SWAP1 POP SWAP3 SWAP2 POP POP JUMP JUMPDEST PUSH1 0x60 PUSH1 0x40 MLOAD DUP1 PUSH1 0x80 ADD PUSH1 0x40 MSTORE DUP1 PUSH1 0x51 DUP2 MSTORE PUSH1 0x20 ADD PUSH2 0x24EC PUSH1 0x51 SWAP2 CODECOPY SWAP1 POP SWAP1 JUMP JUMPDEST PUSH1 0x60 PUSH1 0x0 DUP3 SUB PUSH2 0x1A45 JUMPI PUSH1 0x40 MLOAD DUP1 PUSH1 0x40 ADD PUSH1 0x40 MSTORE DUP1 PUSH1 0x1 DUP2 MSTORE PUSH1 0x20 ADD PUSH32 0x3000000000000000000000000000000000000000000000000000000000000000 DUP2 MSTORE POP SWAP1 POP PUSH2 0x1B59 JUMP JUMPDEST PUSH1 0x0 DUP3 SWAP1 POP PUSH1 0x0 JUMPDEST PUSH1 0x0 DUP3 EQ PUSH2 0x1A77 JUMPI DUP1 DUP1 PUSH2 0x1A60 SWAP1 PUSH2 0x2474 JUMP JUMPDEST SWAP2 POP POP PUSH1 0xA DUP3 PUSH2 0x1A70 SWAP2 SWAP1 PUSH2 0x22F8 JUMP JUMPDEST SWAP2 POP PUSH2 0x1A4D JUMP JUMPDEST PUSH1 0x0 DUP2 PUSH8 0xFFFFFFFFFFFFFFFF DUP2 GT ISZERO PUSH2 0x1A93 JUMPI PUSH2 0x1A92 PUSH2 0x1F79 JUMP JUMPDEST JUMPDEST PUSH1 0x40 MLOAD SWAP1 DUP1 DUP3 MSTORE DUP1 PUSH1 0x1F ADD PUSH1 0x1F NOT AND PUSH1 0x20 ADD DUP3 ADD PUSH1 0x40 MSTORE DUP1 ISZERO PUSH2 0x1AC5 JUMPI DUP2 PUSH1 0x20 ADD PUSH1 0x1 DUP3 MUL DUP1 CALLDATASIZE DUP4 CALLDATACOPY DUP1 DUP3 ADD SWAP2 POP POP SWAP1 POP JUMPDEST POP SWAP1 POP JUMPDEST PUSH1 0x0 DUP6 EQ PUSH2 0x1B52 JUMPI PUSH1 0x1 DUP3 PUSH2 0x1ADE SWAP2 SWAP1 PUSH2 0x240C JUMP JUMPDEST SWAP2 POP PUSH1 0xA DUP6 PUSH2 0x1AED SWAP2 SWAP1 PUSH2 0x2256 JUMP JUMPDEST PUSH1 0x30 PUSH2 0x1AF9 SWAP2 SWAP1 PUSH2 0x2440 JUMP JUMPDEST PUSH1 0xF8 SHL DUP2 DUP4 DUP2 MLOAD DUP2 LT PUSH2 0x1B0F JUMPI PUSH2 0x1B0E PUSH2 0x24BC JUMP JUMPDEST JUMPDEST PUSH1 0x20 ADD ADD SWAP1 PUSH31 0xFFFFFFFFFFFFFFFFFFFFFFFFFFFFFFFFFFFFFFFFFFFFFFFFFFFFFFFFFFFFFF NOT AND SWAP1 DUP2 PUSH1 0x0 BYTE SWAP1 MSTORE8 POP PUSH1 0xA DUP6 PUSH2 0x1B4B SWAP2 SWAP1 PUSH2 0x22F8 JUMP JUMPDEST SWAP5 POP PUSH2 0x1AC9 JUMP JUMPDEST DUP1 SWAP4 POP POP POP POP JUMPDEST SWAP2 SWAP1 POP JUMP JUMPDEST POP POP POP POP JUMP JUMPDEST POP POP POP POP JUMP JUMPDEST PUSH1 0x40 MLOAD DUP1 PUSH1 0x60 ADD PUSH1 0x40 MSTORE DUP1 PUSH1 0x0 PUSH20 0xFFFFFFFFFFFFFFFFFFFFFFFFFFFFFFFFFFFFFFFF AND DUP2 MSTORE PUSH1 0x20 ADD PUSH1 0x0 PUSH8 0xFFFFFFFFFFFFFFFF AND DUP2 MSTORE PUSH1 0x20 ADD PUSH1 0x0 ISZERO ISZERO DUP2 MSTORE POP SWAP1 JUMP JUMPDEST PUSH1 0x0 PUSH1 0x40 MLOAD SWAP1 POP SWAP1 JUMP JUMPDEST PUSH1 0x0 DUP1 REVERT JUMPDEST PUSH1 0x0 DUP1 REVERT JUMPDEST PUSH1 0x0 PUSH32 0xFFFFFFFF00000000000000000000000000000000000000000000000000000000 DUP3 AND SWAP1 POP SWAP2 SWAP1 POP JUMP JUMPDEST PUSH2 0x1BF6 DUP2 PUSH2 0x1BC1 JUMP JUMPDEST DUP2 EQ PUSH2 0x1C01 JUMPI PUSH1 0x0 DUP1 REVERT JUMPDEST POP JUMP JUMPDEST PUSH1 0x0 DUP2 CALLDATALOAD SWAP1 POP PUSH2 0x1C13 DUP2 PUSH2 0x1BED JUMP JUMPDEST SWAP3 SWAP2 POP POP JUMP JUMPDEST PUSH1 0x0 PUSH1 0x20 DUP3 DUP5 SUB SLT ISZERO PUSH2 0x1C2F JUMPI PUSH2 0x1C2E PUSH2 0x1BB7 JUMP JUMPDEST JUMPDEST PUSH1 0x0 PUSH2 0x1C3D DUP5 DUP3 DUP6 ADD PUSH2 0x1C04 JUMP JUMPDEST SWAP2 POP POP SWAP3 SWAP2 POP POP JUMP JUMPDEST PUSH1 0x0 DUP2 ISZERO ISZERO SWAP1 POP SWAP2 SWAP1 POP JUMP JUMPDEST PUSH2 0x1C5B DUP2 PUSH2 0x1C46 JUMP JUMPDEST DUP3 MSTORE POP POP JUMP JUMPDEST PUSH1 0x0 PUSH1 0x20 DUP3 ADD SWAP1 POP PUSH2 0x1C76 PUSH1 0x0 DUP4 ADD DUP5 PUSH2 0x1C52 JUMP JUMPDEST SWAP3 SWAP2 POP POP JUMP JUMPDEST PUSH1 0x0 DUP2 MLOAD SWAP1 POP SWAP2 SWAP1 POP JUMP JUMPDEST PUSH1 0x0 DUP3 DUP3 MSTORE PUSH1 0x20 DUP3 ADD SWAP1 POP SWAP3 SWAP2 POP POP JUMP JUMPDEST PUSH1 0x0 JUMPDEST DUP4 DUP2 LT ISZERO PUSH2 0x1CB6 JUMPI DUP1 DUP3 ADD MLOAD DUP2 DUP5 ADD MSTORE PUSH1 0x20 DUP2 ADD SWAP1 POP PUSH2 0x1C9B JUMP JUMPDEST PUSH1 0x0 DUP5 DUP5 ADD MSTORE POP POP POP POP JUMP JUMPDEST PUSH1 0x0 PUSH1 0x1F NOT PUSH1 0x1F DUP4 ADD AND SWAP1 POP SWAP2 SWAP1 POP JUMP JUMPDEST PUSH1 0x0 PUSH2 0x1CDE DUP3 PUSH2 0x1C7C JUMP JUMPDEST PUSH2 0x1CE8 DUP2 DUP6 PUSH2 0x1C87 JUMP JUMPDEST SWAP4 POP PUSH2 0x1CF8 DUP2 DUP6 PUSH1 0x20 DUP7 ADD PUSH2 0x1C98 JUMP JUMPDEST PUSH2 0x1D01 DUP2 PUSH2 0x1CC2 JUMP JUMPDEST DUP5 ADD SWAP2 POP POP SWAP3 SWAP2 POP POP JUMP JUMPDEST PUSH1 0x0 PUSH1 0x20 DUP3 ADD SWAP1 POP DUP2 DUP2 SUB PUSH1 0x0 DUP4 ADD MSTORE PUSH2 0x1D26 DUP2 DUP5 PUSH2 0x1CD3 JUMP JUMPDEST SWAP1 POP SWAP3 SWAP2 POP POP JUMP JUMPDEST PUSH1 0x0 DUP2 SWAP1 POP SWAP2 SWAP1 POP JUMP JUMPDEST PUSH2 0x1D41 DUP2 PUSH2 0x1D2E JUMP JUMPDEST DUP2 EQ PUSH2 0x1D4C JUMPI PUSH1 0x0 DUP1 REVERT JUMPDEST POP JUMP JUMPDEST PUSH1 0x0 DUP2 CALLDATALOAD SWAP1 POP PUSH2 0x1D5E DUP2 PUSH2 0x1D38 JUMP JUMPDEST SWAP3 SWAP2 POP POP JUMP JUMPDEST PUSH1 0x0 PUSH1 0x20 DUP3 DUP5 SUB SLT ISZERO PUSH2 0x1D7A JUMPI PUSH2 0x1D79 PUSH2 0x1BB7 JUMP JUMPDEST JUMPDEST PUSH1 0x0 PUSH2 0x1D88 DUP5 DUP3 DUP6 ADD PUSH2 0x1D4F JUMP JUMPDEST SWAP2 POP POP SWAP3 SWAP2 POP POP JUMP JUMPDEST PUSH1 0x0 PUSH20 0xFFFFFFFFFFFFFFFFFFFFFFFFFFFFFFFFFFFFFFFF DUP3 AND SWAP1 POP SWAP2 SWAP1 POP JUMP JUMPDEST PUSH1 0x0 PUSH2 0x1DBC DUP3 PUSH2 0x1D91 JUMP JUMPDEST SWAP1 POP SWAP2 SWAP1 POP JUMP JUMPDEST PUSH2 0x1DCC DUP2 PUSH2 0x1DB1 JUMP JUMPDEST DUP3 MSTORE POP POP JUMP JUMPDEST PUSH1 0x0 PUSH1 0x20 DUP3 ADD SWAP1 POP PUSH2 0x1DE7 PUSH1 0x0 DUP4 ADD DUP5 PUSH2 0x1DC3 JUMP JUMPDEST SWAP3 SWAP2 POP POP JUMP JUMPDEST PUSH2 0x1DF6 DUP2 PUSH2 0x1DB1 JUMP JUMPDEST DUP2 EQ PUSH2 0x1E01 JUMPI PUSH1 0x0 DUP1 REVERT JUMPDEST POP JUMP JUMPDEST PUSH1 0x0 DUP2 CALLDATALOAD SWAP1 POP PUSH2 0x1E13 DUP2 PUSH2 0x1DED JUMP JUMPDEST SWAP3 SWAP2 POP POP JUMP JUMPDEST PUSH1 0x0 DUP1 PUSH1 0x40 DUP4 DUP6 SUB SLT ISZERO PUSH2 0x1E30 JUMPI PUSH2 0x1E2F PUSH2 0x1BB7 JUMP JUMPDEST JUMPDEST PUSH1 0x0 PUSH2 0x1E3E DUP6 DUP3 DUP7 ADD PUSH2 0x1E04 JUMP JUMPDEST SWAP3 POP POP PUSH1 0x20 PUSH2 0x1E4F DUP6 DUP3 DUP7 ADD PUSH2 0x1D4F JUMP JUMPDEST SWAP2 POP POP SWAP3 POP SWAP3 SWAP1 POP JUMP JUMPDEST PUSH2 0x1E62 DUP2 PUSH2 0x1D2E JUMP JUMPDEST DUP3 MSTORE POP POP JUMP JUMPDEST PUSH1 0x0 PUSH1 0x20 DUP3 ADD SWAP1 POP PUSH2 0x1E7D PUSH1 0x0 DUP4 ADD DUP5 PUSH2 0x1E59 JUMP JUMPDEST SWAP3 SWAP2 POP POP JUMP JUMPDEST PUSH1 0x0 DUP1 PUSH1 0x0 PUSH1 0x60 DUP5 DUP7 SUB SLT ISZERO PUSH2 0x1E9C JUMPI PUSH2 0x1E9B PUSH2 0x1BB7 JUMP JUMPDEST JUMPDEST PUSH1 0x0 PUSH2 0x1EAA DUP7 DUP3 DUP8 ADD PUSH2 0x1E04 JUMP JUMPDEST SWAP4 POP POP PUSH1 0x20 PUSH2 0x1EBB DUP7 DUP3 DUP8 ADD PUSH2 0x1E04 JUMP JUMPDEST SWAP3 POP POP PUSH1 0x40 PUSH2 0x1ECC DUP7 DUP3 DUP8 ADD PUSH2 0x1D4F JUMP JUMPDEST SWAP2 POP POP SWAP3 POP SWAP3 POP SWAP3 JUMP JUMPDEST PUSH1 0x0 PUSH1 0x20 DUP3 DUP5 SUB SLT ISZERO PUSH2 0x1EEC JUMPI PUSH2 0x1EEB PUSH2 0x1BB7 JUMP JUMPDEST JUMPDEST PUSH1 0x0 PUSH2 0x1EFA DUP5 DUP3 DUP6 ADD PUSH2 0x1E04 JUMP JUMPDEST SWAP2 POP POP SWAP3 SWAP2 POP POP JUMP JUMPDEST PUSH2 0x1F0C DUP2 PUSH2 0x1C46 JUMP JUMPDEST DUP2 EQ PUSH2 0x1F17 JUMPI PUSH1 0x0 DUP1 REVERT JUMPDEST POP JUMP JUMPDEST PUSH1 0x0 DUP2 CALLDATALOAD SWAP1 POP PUSH2 0x1F29 DUP2 PUSH2 0x1F03 JUMP JUMPDEST SWAP3 SWAP2 POP POP JUMP JUMPDEST PUSH1 0x0 DUP1 PUSH1 0x40 DUP4 DUP6 SUB SLT ISZERO PUSH2 0x1F46 JUMPI PUSH2 0x1F45 PUSH2 0x1BB7 JUMP JUMPDEST JUMPDEST PUSH1 0x0 PUSH2 0x1F54 DUP6 DUP3 DUP7 ADD PUSH2 0x1E04 JUMP JUMPDEST SWAP3 POP POP PUSH1 0x20 PUSH2 0x1F65 DUP6 DUP3 DUP7 ADD PUSH2 0x1F1A JUMP JUMPDEST SWAP2 POP POP SWAP3 POP SWAP3 SWAP1 POP JUMP JUMPDEST PUSH1 0x0 DUP1 REVERT JUMPDEST PUSH1 0x0 DUP1 REVERT JUMPDEST PUSH32 0x4E487B7100000000000000000000000000000000000000000000000000000000 PUSH1 0x0 MSTORE PUSH1 0x41 PUSH1 0x4 MSTORE PUSH1 0x24 PUSH1 0x0 REVERT JUMPDEST PUSH2 0x1FB1 DUP3 PUSH2 0x1CC2 JUMP JUMPDEST DUP2 ADD DUP2 DUP2 LT PUSH8 0xFFFFFFFFFFFFFFFF DUP3 GT OR ISZERO PUSH2 0x1FD0 JUMPI PUSH2 0x1FCF PUSH2 0x1F79 JUMP JUMPDEST JUMPDEST DUP1 PUSH1 0x40 MSTORE POP POP POP JUMP JUMPDEST PUSH1 0x0 PUSH2 0x1FE3 PUSH2 0x1BAD JUMP JUMPDEST SWAP1 POP PUSH2 0x1FEF DUP3 DUP3 PUSH2 0x1FA8 JUMP JUMPDEST SWAP2 SWAP1 POP JUMP JUMPDEST PUSH1 0x0 PUSH8 0xFFFFFFFFFFFFFFFF DUP3 GT ISZERO PUSH2 0x200F JUMPI PUSH2 0x200E PUSH2 0x1F79 JUMP JUMPDEST JUMPDEST PUSH2 0x2018 DUP3 PUSH2 0x1CC2 JUMP JUMPDEST SWAP1 POP PUSH1 0x20 DUP2 ADD SWAP1 POP SWAP2 SWAP1 POP JUMP JUMPDEST DUP3 DUP2 DUP4 CALLDATACOPY PUSH1 0x0 DUP4 DUP4 ADD MSTORE POP POP POP JUMP JUMPDEST PUSH1 0x0 PUSH2 0x2047 PUSH2 0x2042 DUP5 PUSH2 0x1FF4 JUMP JUMPDEST PUSH2 0x1FD9 JUMP JUMPDEST SWAP1 POP DUP3 DUP2 MSTORE PUSH1 0x20 DUP2 ADD DUP5 DUP5 DUP5 ADD GT ISZERO PUSH2 0x2063 JUMPI PUSH2 0x2062 PUSH2 0x1F74 JUMP JUMPDEST JUMPDEST PUSH2 0x206E DUP5 DUP3 DUP6 PUSH2 0x2025 JUMP JUMPDEST POP SWAP4 SWAP3 POP POP POP JUMP JUMPDEST PUSH1 0x0 DUP3 PUSH1 0x1F DUP4 ADD SLT PUSH2 0x208B JUMPI PUSH2 0x208A PUSH2 0x1F6F JUMP JUMPDEST JUMPDEST DUP2 CALLDATALOAD PUSH2 0x209B DUP5 DUP3 PUSH1 0x20 DUP7 ADD PUSH2 0x2034 JUMP JUMPDEST SWAP2 POP POP SWAP3 SWAP2 POP POP JUMP JUMPDEST PUSH1 0x0 DUP1 PUSH1 0x0 DUP1 PUSH1 0x80 DUP6 DUP8 SUB SLT ISZERO PUSH2 0x20BE JUMPI PUSH2 0x20BD PUSH2 0x1BB7 JUMP JUMPDEST JUMPDEST PUSH1 0x0 PUSH2 0x20CC DUP8 DUP3 DUP9 ADD PUSH2 0x1E04 JUMP JUMPDEST SWAP5 POP POP PUSH1 0x20 PUSH2 0x20DD DUP8 DUP3 DUP9 ADD PUSH2 0x1E04 JUMP JUMPDEST SWAP4 POP POP PUSH1 0x40 PUSH2 0x20EE DUP8 DUP3 DUP9 ADD PUSH2 0x1D4F JUMP JUMPDEST SWAP3 POP POP PUSH1 0x60 DUP6 ADD CALLDATALOAD PUSH8 0xFFFFFFFFFFFFFFFF DUP2 GT ISZERO PUSH2 0x210F JUMPI PUSH2 0x210E PUSH2 0x1BBC JUMP JUMPDEST JUMPDEST PUSH2 0x211B DUP8 DUP3 DUP9 ADD PUSH2 0x2076 JUMP JUMPDEST SWAP2 POP POP SWAP3 SWAP6 SWAP2 SWAP5 POP SWAP3 POP JUMP JUMPDEST PUSH1 0x0 DUP1 PUSH1 0x40 DUP4 DUP6 SUB SLT ISZERO PUSH2 0x213E JUMPI PUSH2 0x213D PUSH2 0x1BB7 JUMP JUMPDEST JUMPDEST PUSH1 0x0 PUSH2 0x214C DUP6 DUP3 DUP7 ADD PUSH2 0x1E04 JUMP JUMPDEST SWAP3 POP POP PUSH1 0x20 PUSH2 0x215D DUP6 DUP3 DUP7 ADD PUSH2 0x1E04 JUMP JUMPDEST SWAP2 POP POP SWAP3 POP SWAP3 SWAP1 POP JUMP JUMPDEST PUSH32 0x4E487B7100000000000000000000000000000000000000000000000000000000 PUSH1 0x0 MSTORE PUSH1 0x22 PUSH1 0x4 MSTORE PUSH1 0x24 PUSH1 0x0 REVERT JUMPDEST PUSH1 0x0 PUSH1 0x2 DUP3 DIV SWAP1 POP PUSH1 0x1 DUP3 AND DUP1 PUSH2 0x21AE JUMPI PUSH1 0x7F DUP3 AND SWAP2 POP JUMPDEST PUSH1 0x20 DUP3 LT DUP2 SUB PUSH2 0x21C1 JUMPI PUSH2 0x21C0 PUSH2 0x2167 JUMP JUMPDEST JUMPDEST POP SWAP2 SWAP1 POP JUMP JUMPDEST PUSH1 0x0 DUP2 SWAP1 POP SWAP3 SWAP2 POP POP JUMP JUMPDEST PUSH1 0x0 PUSH2 0x21DD DUP3 PUSH2 0x1C7C JUMP JUMPDEST PUSH2 0x21E7 DUP2 DUP6 PUSH2 0x21C7 JUMP JUMPDEST SWAP4 POP PUSH2 0x21F7 DUP2 DUP6 PUSH1 0x20 DUP7 ADD PUSH2 0x1C98 JUMP JUMPDEST DUP1 DUP5 ADD SWAP2 POP POP SWAP3 SWAP2 POP POP JUMP JUMPDEST PUSH1 0x0 PUSH2 0x220F DUP3 DUP6 PUSH2 0x21D2 JUMP JUMPDEST SWAP2 POP PUSH2 0x221B DUP3 DUP5 PUSH2 0x21D2 JUMP JUMPDEST SWAP2 POP DUP2 SWAP1 POP SWAP4 SWAP3 POP POP POP JUMP JUMPDEST PUSH32 0x4E487B7100000000000000000000000000000000000000000000000000000000 PUSH1 0x0 MSTORE PUSH1 0x12 PUSH1 0x4 MSTORE PUSH1 0x24 PUSH1 0x0 REVERT JUMPDEST PUSH1 0x0 PUSH2 0x2261 DUP3 PUSH2 0x1D2E JUMP JUMPDEST SWAP2 POP PUSH2 0x226C DUP4 PUSH2 0x1D2E JUMP JUMPDEST SWAP3 POP DUP3 PUSH2 0x227C JUMPI PUSH2 0x227B PUSH2 0x2227 JUMP JUMPDEST JUMPDEST DUP3 DUP3 MOD SWAP1 POP SWAP3 SWAP2 POP POP JUMP JUMPDEST PUSH32 0x4E487B7100000000000000000000000000000000000000000000000000000000 PUSH1 0x0 MSTORE PUSH1 0x11 PUSH1 0x4 MSTORE PUSH1 0x24 PUSH1 0x0 REVERT JUMPDEST PUSH1 0x0 PUSH2 0x22C1 DUP3 PUSH2 0x1D2E JUMP JUMPDEST SWAP2 POP PUSH2 0x22CC DUP4 PUSH2 0x1D2E JUMP JUMPDEST SWAP3 POP DUP3 DUP3 MUL PUSH2 0x22DA DUP2 PUSH2 0x1D2E JUMP JUMPDEST SWAP2 POP DUP3 DUP3 DIV DUP5 EQ DUP4 ISZERO OR PUSH2 0x22F1 JUMPI PUSH2 0x22F0 PUSH2 0x2287 JUMP JUMPDEST JUMPDEST POP SWAP3 SWAP2 POP POP JUMP JUMPDEST PUSH1 0x0 PUSH2 0x2303 DUP3 PUSH2 0x1D2E JUMP JUMPDEST SWAP2 POP PUSH2 0x230E DUP4 PUSH2 0x1D2E JUMP JUMPDEST SWAP3 POP DUP3 PUSH2 0x231E JUMPI PUSH2 0x231D PUSH2 0x2227 JUMP JUMPDEST JUMPDEST DUP3 DUP3 DIV SWAP1 POP SWAP3 SWAP2 POP POP JUMP JUMPDEST PUSH1 0x0 DUP2 MLOAD SWAP1 POP SWAP2 SWAP1 POP JUMP JUMPDEST PUSH1 0x0 DUP3 DUP3 MSTORE PUSH1 0x20 DUP3 ADD SWAP1 POP SWAP3 SWAP2 POP POP JUMP JUMPDEST PUSH1 0x0 PUSH2 0x2350 DUP3 PUSH2 0x2329 JUMP JUMPDEST PUSH2 0x235A DUP2 DUP6 PUSH2 0x2334 JUMP JUMPDEST SWAP4 POP PUSH2 0x236A DUP2 DUP6 PUSH1 0x20 DUP7 ADD PUSH2 0x1C98 JUMP JUMPDEST PUSH2 0x2373 DUP2 PUSH2 0x1CC2 JUMP JUMPDEST DUP5 ADD SWAP2 POP POP SWAP3 SWAP2 POP POP JUMP JUMPDEST PUSH1 0x0 PUSH1 0x80 DUP3 ADD SWAP1 POP PUSH2 0x2393 PUSH1 0x0 DUP4 ADD DUP8 PUSH2 0x1DC3 JUMP JUMPDEST PUSH2 0x23A0 PUSH1 0x20 DUP4 ADD DUP7 PUSH2 0x1DC3 JUMP JUMPDEST PUSH2 0x23AD PUSH1 0x40 DUP4 ADD DUP6 PUSH2 0x1E59 JUMP JUMPDEST DUP2 DUP2 SUB PUSH1 0x60 DUP4 ADD MSTORE PUSH2 0x23BF DUP2 DUP5 PUSH2 0x2345 JUMP JUMPDEST SWAP1 POP SWAP6 SWAP5 POP POP POP POP POP JUMP JUMPDEST PUSH1 0x0 DUP2 MLOAD SWAP1 POP PUSH2 0x23D9 DUP2 PUSH2 0x1BED JUMP JUMPDEST SWAP3 SWAP2 POP POP JUMP JUMPDEST PUSH1 0x0 PUSH1 0x20 DUP3 DUP5 SUB SLT ISZERO PUSH2 0x23F5 JUMPI PUSH2 0x23F4 PUSH2 0x1BB7 JUMP JUMPDEST JUMPDEST PUSH1 0x0 PUSH2 0x2403 DUP5 DUP3 DUP6 ADD PUSH2 0x23CA JUMP JUMPDEST SWAP2 POP POP SWAP3 SWAP2 POP POP JUMP JUMPDEST PUSH1 0x0 PUSH2 0x2417 DUP3 PUSH2 0x1D2E JUMP JUMPDEST SWAP2 POP PUSH2 0x2422 DUP4 PUSH2 0x1D2E JUMP JUMPDEST SWAP3 POP DUP3 DUP3 SUB SWAP1 POP DUP2 DUP2 GT ISZERO PUSH2 0x243A JUMPI PUSH2 0x2439 PUSH2 0x2287 JUMP JUMPDEST JUMPDEST SWAP3 SWAP2 POP POP JUMP JUMPDEST PUSH1 0x0 PUSH2 0x244B DUP3 PUSH2 0x1D2E JUMP JUMPDEST SWAP2 POP PUSH2 0x2456 DUP4 PUSH2 0x1D2E JUMP JUMPDEST SWAP3 POP DUP3 DUP3 ADD SWAP1 POP DUP1 DUP3 GT ISZERO PUSH2 0x246E JUMPI PUSH2 0x246D PUSH2 0x2287 JUMP JUMPDEST JUMPDEST SWAP3 SWAP2 POP POP JUMP JUMPDEST PUSH1 0x0 PUSH2 0x247F DUP3 PUSH2 0x1D2E JUMP JUMPDEST SWAP2 POP PUSH32 0xFFFFFFFFFFFFFFFFFFFFFFFFFFFFFFFFFFFFFFFFFFFFFFFFFFFFFFFFFFFFFFFF DUP3 SUB PUSH2 0x24B1 JUMPI PUSH2 0x24B0 PUSH2 0x2287 JUMP JUMPDEST JUMPDEST PUSH1 0x1 DUP3 ADD SWAP1 POP SWAP2 SWAP1 POP JUMP JUMPDEST PUSH32 0x4E487B7100000000000000000000000000000000000000000000000000000000 PUSH1 0x0 MSTORE PUSH1 0x32 PUSH1 0x4 MSTORE PUSH1 0x24 PUSH1 0x0 REVERT INVALID PUSH9 0x747470733A2F2F6761 PUSH21 0x657761792E70696E6174612E636C6F75642F697066 PUSH20 0x2F516D65794B6E7658584D784175574735707433 CALLDATALOAD GASLIMIT PUSH27 0x3851684A6852363352445653775566736A4B61795234325A2FA264 PUSH10 0x70667358221220E40842 KECCAK256 CALLDATALOAD MOD PUSH12 0x24311C14DA822408208DF8A3 0x28 PUSH22 0x5BA1F770530F1882911BCA64736F6C63430008110033 "
				},
				"gasEstimates": {
					"creation": {
						"codeDepositCost": "1917200",
						"executionCost": "infinite",
						"totalCost": "infinite"
					},
					"external": {
						"DcofferPower(uint256)": "infinite",
						"MineStatus(address)": "infinite",
						"_DCFperBlock()": "2474",
						"_salt()": "2518",
						"_startBlockNumber()": "2474",
						"_totalPower()": "2540",
						"approve(address,uint256)": "infinite",
						"balanceOf(address)": "2947",
						"blockStatus(uint256)": "infinite",
						"getApproved(uint256)": "7458",
						"isApprovedForAll(address,address)": "infinite",
						"maxSupply()": "4664",
						"name()": "infinite",
						"ownerOf(uint256)": "infinite",
						"safeTransferFrom(address,address,uint256)": "infinite",
						"safeTransferFrom(address,address,uint256,bytes)": "infinite",
						"setApprovalForAll(address,bool)": "infinite",
						"supportsInterface(bytes4)": "797",
						"symbol()": "infinite",
						"tokenURI(uint256)": "infinite",
						"totalSupply()": "4688",
						"transferFrom(address,address,uint256)": "infinite"
					},
					"internal": {
						"_afterTokenTransfers(address,address,uint256,uint256)": "17",
						"_approve(address,uint256,address)": "26292",
						"_baseURI()": "infinite",
						"_beforeTokenTransfers(address,address,uint256,uint256)": "17",
						"_burn(uint256)": "infinite",
						"_burn(uint256,bool)": "infinite",
						"_checkContractOnERC721Received(address,address,uint256,bytes memory)": "infinite",
						"_exists(uint256)": "4499",
						"_getAux(address)": "infinite",
						"_numberBurned(address)": "infinite",
						"_numberMinted(address)": "infinite",
						"_ownershipOf(uint256)": "infinite",
						"_safeMint(address,uint256)": "infinite",
						"_safeMint(address,uint256,bytes memory)": "infinite",
						"_setAux(address,uint64)": "infinite",
						"_startTokenId()": "15",
						"_totalMinted()": "infinite",
						"_transfer(address,address,uint256)": "infinite"
					}
				},
				"methodIdentifiers": {
					"DcofferPower(uint256)": "f390c328",
					"MineStatus(address)": "b8ba6007",
					"_DCFperBlock()": "38020dcc",
					"_salt()": "9f773399",
					"_startBlockNumber()": "94fc67d1",
					"_totalPower()": "5e7ec827",
					"approve(address,uint256)": "095ea7b3",
					"balanceOf(address)": "70a08231",
					"blockStatus(uint256)": "4be3403c",
					"getApproved(uint256)": "081812fc",
					"isApprovedForAll(address,address)": "e985e9c5",
					"maxSupply()": "d5abeb01",
					"name()": "06fdde03",
					"ownerOf(uint256)": "6352211e",
					"safeTransferFrom(address,address,uint256)": "42842e0e",
					"safeTransferFrom(address,address,uint256,bytes)": "b88d4fde",
					"setApprovalForAll(address,bool)": "a22cb465",
					"supportsInterface(bytes4)": "01ffc9a7",
					"symbol()": "95d89b41",
					"tokenURI(uint256)": "c87b56dd",
					"totalSupply()": "18160ddd",
					"transferFrom(address,address,uint256)": "23b872dd"
				}
			},
			"storageLayout": {
				"storage": [
					{
						"astId": 1149,
						"contract": "Dcoffer/ERC721A/test.sol:ERC721A",
						"label": "_salt",
						"offset": 0,
						"slot": "0",
						"type": "t_uint256"
					},
					{
						"astId": 1151,
						"contract": "Dcoffer/ERC721A/test.sol:ERC721A",
						"label": "_DCFperBlock",
						"offset": 0,
						"slot": "1",
						"type": "t_uint256"
					},
					{
						"astId": 1153,
						"contract": "Dcoffer/ERC721A/test.sol:ERC721A",
						"label": "_startBlockNumber",
						"offset": 0,
						"slot": "2",
						"type": "t_uint256"
					},
					{
						"astId": 1155,
						"contract": "Dcoffer/ERC721A/test.sol:ERC721A",
						"label": "_totalPower",
						"offset": 0,
						"slot": "3",
						"type": "t_uint256"
					},
					{
						"astId": 1157,
						"contract": "Dcoffer/ERC721A/test.sol:ERC721A",
						"label": "_currentIndex",
						"offset": 0,
						"slot": "4",
						"type": "t_uint256"
					},
					{
						"astId": 1159,
						"contract": "Dcoffer/ERC721A/test.sol:ERC721A",
						"label": "_maxSupply",
						"offset": 0,
						"slot": "5",
						"type": "t_uint256"
					},
					{
						"astId": 1161,
						"contract": "Dcoffer/ERC721A/test.sol:ERC721A",
						"label": "_burnCounter",
						"offset": 0,
						"slot": "6",
						"type": "t_uint256"
					},
					{
						"astId": 1163,
						"contract": "Dcoffer/ERC721A/test.sol:ERC721A",
						"label": "_name",
						"offset": 0,
						"slot": "7",
						"type": "t_string_storage"
					},
					{
						"astId": 1165,
						"contract": "Dcoffer/ERC721A/test.sol:ERC721A",
						"label": "_symbol",
						"offset": 0,
						"slot": "8",
						"type": "t_string_storage"
					},
					{
						"astId": 1170,
						"contract": "Dcoffer/ERC721A/test.sol:ERC721A",
						"label": "_ownerships",
						"offset": 0,
						"slot": "9",
						"type": "t_mapping(t_uint256,t_struct(TokenOwnership)1106_storage)"
					},
					{
						"astId": 1175,
						"contract": "Dcoffer/ERC721A/test.sol:ERC721A",
						"label": "_addressData",
						"offset": 0,
						"slot": "10",
						"type": "t_mapping(t_address,t_struct(AddressData)1115_storage)"
					},
					{
						"astId": 1179,
						"contract": "Dcoffer/ERC721A/test.sol:ERC721A",
						"label": "_tokenApprovals",
						"offset": 0,
						"slot": "11",
						"type": "t_mapping(t_uint256,t_address)"
					},
					{
						"astId": 1185,
						"contract": "Dcoffer/ERC721A/test.sol:ERC721A",
						"label": "_operatorApprovals",
						"offset": 0,
						"slot": "12",
						"type": "t_mapping(t_address,t_mapping(t_address,t_bool))"
					},
					{
						"astId": 1192,
						"contract": "Dcoffer/ERC721A/test.sol:ERC721A",
						"label": "_mineInfo",
						"offset": 0,
						"slot": "13",
						"type": "t_mapping(t_address,t_mapping(t_uint256,t_uint256))"
					}
				],
				"types": {
					"t_address": {
						"encoding": "inplace",
						"label": "address",
						"numberOfBytes": "20"
					},
					"t_bool": {
						"encoding": "inplace",
						"label": "bool",
						"numberOfBytes": "1"
					},
					"t_mapping(t_address,t_bool)": {
						"encoding": "mapping",
						"key": "t_address",
						"label": "mapping(address => bool)",
						"numberOfBytes": "32",
						"value": "t_bool"
					},
					"t_mapping(t_address,t_mapping(t_address,t_bool))": {
						"encoding": "mapping",
						"key": "t_address",
						"label": "mapping(address => mapping(address => bool))",
						"numberOfBytes": "32",
						"value": "t_mapping(t_address,t_bool)"
					},
					"t_mapping(t_address,t_mapping(t_uint256,t_uint256))": {
						"encoding": "mapping",
						"key": "t_address",
						"label": "mapping(address => mapping(uint256 => uint256))",
						"numberOfBytes": "32",
						"value": "t_mapping(t_uint256,t_uint256)"
					},
					"t_mapping(t_address,t_struct(AddressData)1115_storage)": {
						"encoding": "mapping",
						"key": "t_address",
						"label": "mapping(address => struct IERC721A.AddressData)",
						"numberOfBytes": "32",
						"value": "t_struct(AddressData)1115_storage"
					},
					"t_mapping(t_uint256,t_address)": {
						"encoding": "mapping",
						"key": "t_uint256",
						"label": "mapping(uint256 => address)",
						"numberOfBytes": "32",
						"value": "t_address"
					},
					"t_mapping(t_uint256,t_struct(TokenOwnership)1106_storage)": {
						"encoding": "mapping",
						"key": "t_uint256",
						"label": "mapping(uint256 => struct IERC721A.TokenOwnership)",
						"numberOfBytes": "32",
						"value": "t_struct(TokenOwnership)1106_storage"
					},
					"t_mapping(t_uint256,t_uint256)": {
						"encoding": "mapping",
						"key": "t_uint256",
						"label": "mapping(uint256 => uint256)",
						"numberOfBytes": "32",
						"value": "t_uint256"
					},
					"t_string_storage": {
						"encoding": "bytes",
						"label": "string",
						"numberOfBytes": "32"
					},
					"t_struct(AddressData)1115_storage": {
						"encoding": "inplace",
						"label": "struct IERC721A.AddressData",
						"members": [
							{
								"astId": 1108,
								"contract": "Dcoffer/ERC721A/test.sol:ERC721A",
								"label": "balance",
								"offset": 0,
								"slot": "0",
								"type": "t_uint64"
							},
							{
								"astId": 1110,
								"contract": "Dcoffer/ERC721A/test.sol:ERC721A",
								"label": "numberMinted",
								"offset": 8,
								"slot": "0",
								"type": "t_uint64"
							},
							{
								"astId": 1112,
								"contract": "Dcoffer/ERC721A/test.sol:ERC721A",
								"label": "numberBurned",
								"offset": 16,
								"slot": "0",
								"type": "t_uint64"
							},
							{
								"astId": 1114,
								"contract": "Dcoffer/ERC721A/test.sol:ERC721A",
								"label": "aux",
								"offset": 24,
								"slot": "0",
								"type": "t_uint64"
							}
						],
						"numberOfBytes": "32"
					},
					"t_struct(TokenOwnership)1106_storage": {
						"encoding": "inplace",
						"label": "struct IERC721A.TokenOwnership",
						"members": [
							{
								"astId": 1101,
								"contract": "Dcoffer/ERC721A/test.sol:ERC721A",
								"label": "addr",
								"offset": 0,
								"slot": "0",
								"type": "t_address"
							},
							{
								"astId": 1103,
								"contract": "Dcoffer/ERC721A/test.sol:ERC721A",
								"label": "startTimestamp",
								"offset": 20,
								"slot": "0",
								"type": "t_uint64"
							},
							{
								"astId": 1105,
								"contract": "Dcoffer/ERC721A/test.sol:ERC721A",
								"label": "burned",
								"offset": 28,
								"slot": "0",
								"type": "t_bool"
							}
						],
						"numberOfBytes": "32"
					},
					"t_uint256": {
						"encoding": "inplace",
						"label": "uint256",
						"numberOfBytes": "32"
					},
					"t_uint64": {
						"encoding": "inplace",
						"label": "uint64",
						"numberOfBytes": "8"
					}
				}
			},
			"userdoc": {
				"errors": {
					"ApprovalCallerNotOwnerNorApproved()": [
						{
							"notice": "The caller must own the token or be an approved operator."
						}
					],
					"ApprovalQueryForNonexistentToken()": [
						{
							"notice": "The token does not exist."
						}
					],
					"ApprovalToCurrentOwner()": [
						{
							"notice": "The caller cannot approve to the current owner."
						}
					],
					"ApproveToCaller()": [
						{
							"notice": "The caller cannot approve to their own address."
						}
					],
					"BalanceQueryForZeroAddress()": [
						{
							"notice": "Cannot query the balance for the zero address."
						}
					],
					"MintToZeroAddress()": [
						{
							"notice": "Cannot mint to the zero address."
						}
					],
					"MintZeroQuantity()": [
						{
							"notice": "The quantity of tokens minted must be more than zero."
						}
					],
					"OwnerQueryForNonexistentToken()": [
						{
							"notice": "The token does not exist."
						}
					],
					"TransferCallerNotOwnerNorApproved()": [
						{
							"notice": "The caller must own the token or be an approved operator."
						}
					],
					"TransferFromIncorrectOwner()": [
						{
							"notice": "The token must be owned by `from`."
						}
					],
					"TransferToNonERC721ReceiverImplementer()": [
						{
							"notice": "Cannot safely transfer to a contract that does not implement the ERC721Receiver interface."
						}
					],
					"TransferToZeroAddress()": [
						{
							"notice": "Cannot transfer to the zero address."
						}
					],
					"URIQueryForNonexistentToken()": [
						{
							"notice": "The token does not exist."
						}
					]
				},
				"kind": "user",
				"methods": {},
				"version": 1
			}
		}
	}
}