{
	"minerpunk/ERC721A/ERC721A.sol": {
		"ERC721A": {
			"abi": [
				{
					"inputs": [
						{
							"internalType": "string",
							"name": "name_",
							"type": "string"
						},
						{
							"internalType": "string",
							"name": "symbol_",
							"type": "string"
						},
						{
							"internalType": "uint256",
							"name": "salt_",
							"type": "uint256"
						}
					],
					"stateMutability": "nonpayable",
					"type": "constructor"
				},
				{
					"inputs": [],
					"name": "ApprovalCallerNotOwnerNorApproved",
					"type": "error"
				},
				{
					"inputs": [],
					"name": "ApprovalQueryForNonexistentToken",
					"type": "error"
				},
				{
					"inputs": [],
					"name": "ApprovalToCurrentOwner",
					"type": "error"
				},
				{
					"inputs": [],
					"name": "ApproveToCaller",
					"type": "error"
				},
				{
					"inputs": [],
					"name": "BalanceQueryForZeroAddress",
					"type": "error"
				},
				{
					"inputs": [],
					"name": "MintToZeroAddress",
					"type": "error"
				},
				{
					"inputs": [],
					"name": "MintZeroQuantity",
					"type": "error"
				},
				{
					"inputs": [],
					"name": "OwnerQueryForNonexistentToken",
					"type": "error"
				},
				{
					"inputs": [],
					"name": "TransferCallerNotOwnerNorApproved",
					"type": "error"
				},
				{
					"inputs": [],
					"name": "TransferFromIncorrectOwner",
					"type": "error"
				},
				{
					"inputs": [],
					"name": "TransferToNonERC721ReceiverImplementer",
					"type": "error"
				},
				{
					"inputs": [],
					"name": "TransferToZeroAddress",
					"type": "error"
				},
				{
					"inputs": [],
					"name": "URIQueryForNonexistentToken",
					"type": "error"
				},
				{
					"anonymous": false,
					"inputs": [
						{
							"indexed": true,
							"internalType": "address",
							"name": "owner",
							"type": "address"
						},
						{
							"indexed": true,
							"internalType": "address",
							"name": "approved",
							"type": "address"
						},
						{
							"indexed": true,
							"internalType": "uint256",
							"name": "tokenId",
							"type": "uint256"
						}
					],
					"name": "Approval",
					"type": "event"
				},
				{
					"anonymous": false,
					"inputs": [
						{
							"indexed": true,
							"internalType": "address",
							"name": "owner",
							"type": "address"
						},
						{
							"indexed": true,
							"internalType": "address",
							"name": "operator",
							"type": "address"
						},
						{
							"indexed": false,
							"internalType": "bool",
							"name": "approved",
							"type": "bool"
						}
					],
					"name": "ApprovalForAll",
					"type": "event"
				},
				{
					"anonymous": false,
					"inputs": [
						{
							"indexed": true,
							"internalType": "address",
							"name": "from",
							"type": "address"
						},
						{
							"indexed": true,
							"internalType": "address",
							"name": "to",
							"type": "address"
						},
						{
							"indexed": true,
							"internalType": "uint256",
							"name": "tokenId",
							"type": "uint256"
						}
					],
					"name": "Transfer",
					"type": "event"
				},
				{
					"inputs": [
						{
							"internalType": "address",
							"name": "user",
							"type": "address"
						}
					],
					"name": "MineStatus",
					"outputs": [
						{
							"internalType": "uint256",
							"name": "",
							"type": "uint256"
						}
					],
					"stateMutability": "view",
					"type": "function"
				},
				{
					"inputs": [
						{
							"internalType": "address",
							"name": "to",
							"type": "address"
						},
						{
							"internalType": "uint256",
							"name": "tokenId",
							"type": "uint256"
						}
					],
					"name": "approve",
					"outputs": [],
					"stateMutability": "nonpayable",
					"type": "function"
				},
				{
					"inputs": [
						{
							"internalType": "address",
							"name": "owner",
							"type": "address"
						}
					],
					"name": "balanceOf",
					"outputs": [
						{
							"internalType": "uint256",
							"name": "",
							"type": "uint256"
						}
					],
					"stateMutability": "view",
					"type": "function"
				},
				{
					"inputs": [
						{
							"internalType": "uint256",
							"name": "_BlockNumber",
							"type": "uint256"
						}
					],
					"name": "blockStatus",
					"outputs": [
						{
							"internalType": "uint256",
							"name": "",
							"type": "uint256"
						}
					],
					"stateMutability": "view",
					"type": "function"
				},
				{
					"inputs": [
						{
							"internalType": "uint256",
							"name": "_BlockNumber",
							"type": "uint256"
						}
					],
					"name": "difficult",
					"outputs": [
						{
							"internalType": "uint256",
							"name": "",
							"type": "uint256"
						}
					],
					"stateMutability": "view",
					"type": "function"
				},
				{
					"inputs": [
						{
							"internalType": "uint256",
							"name": "tokenId",
							"type": "uint256"
						}
					],
					"name": "getApproved",
					"outputs": [
						{
							"internalType": "address",
							"name": "",
							"type": "address"
						}
					],
					"stateMutability": "view",
					"type": "function"
				},
				{
					"inputs": [
						{
							"internalType": "address",
							"name": "owner",
							"type": "address"
						},
						{
							"internalType": "address",
							"name": "operator",
							"type": "address"
						}
					],
					"name": "isApprovedForAll",
					"outputs": [
						{
							"internalType": "bool",
							"name": "",
							"type": "bool"
						}
					],
					"stateMutability": "view",
					"type": "function"
				},
				{
					"inputs": [],
					"name": "maxSupply",
					"outputs": [
						{
							"internalType": "uint256",
							"name": "",
							"type": "uint256"
						}
					],
					"stateMutability": "view",
					"type": "function"
				},
				{
					"inputs": [
						{
							"internalType": "address",
							"name": "user",
							"type": "address"
						},
						{
							"internalType": "uint256",
							"name": "number",
							"type": "uint256"
						}
					],
					"name": "mineInfo",
					"outputs": [
						{
							"internalType": "uint256",
							"name": "",
							"type": "uint256"
						}
					],
					"stateMutability": "view",
					"type": "function"
				},
				{
					"inputs": [],
					"name": "name",
					"outputs": [
						{
							"internalType": "string",
							"name": "",
							"type": "string"
						}
					],
					"stateMutability": "view",
					"type": "function"
				},
				{
					"inputs": [
						{
							"internalType": "uint256",
							"name": "tokenId",
							"type": "uint256"
						}
					],
					"name": "ownerOf",
					"outputs": [
						{
							"internalType": "address",
							"name": "",
							"type": "address"
						}
					],
					"stateMutability": "view",
					"type": "function"
				},
				{
					"inputs": [
						{
							"internalType": "address",
							"name": "from",
							"type": "address"
						},
						{
							"internalType": "address",
							"name": "to",
							"type": "address"
						},
						{
							"internalType": "uint256",
							"name": "tokenId",
							"type": "uint256"
						}
					],
					"name": "safeTransferFrom",
					"outputs": [],
					"stateMutability": "nonpayable",
					"type": "function"
				},
				{
					"inputs": [
						{
							"internalType": "address",
							"name": "from",
							"type": "address"
						},
						{
							"internalType": "address",
							"name": "to",
							"type": "address"
						},
						{
							"internalType": "uint256",
							"name": "tokenId",
							"type": "uint256"
						},
						{
							"internalType": "bytes",
							"name": "_data",
							"type": "bytes"
						}
					],
					"name": "safeTransferFrom",
					"outputs": [],
					"stateMutability": "nonpayable",
					"type": "function"
				},
				{
					"inputs": [
						{
							"internalType": "address",
							"name": "operator",
							"type": "address"
						},
						{
							"internalType": "bool",
							"name": "approved",
							"type": "bool"
						}
					],
					"name": "setApprovalForAll",
					"outputs": [],
					"stateMutability": "nonpayable",
					"type": "function"
				},
				{
					"inputs": [
						{
							"internalType": "bytes4",
							"name": "interfaceId",
							"type": "bytes4"
						}
					],
					"name": "supportsInterface",
					"outputs": [
						{
							"internalType": "bool",
							"name": "",
							"type": "bool"
						}
					],
					"stateMutability": "view",
					"type": "function"
				},
				{
					"inputs": [],
					"name": "symbol",
					"outputs": [
						{
							"internalType": "string",
							"name": "",
							"type": "string"
						}
					],
					"stateMutability": "view",
					"type": "function"
				},
				{
					"inputs": [
						{
							"internalType": "uint256",
							"name": "tokenId",
							"type": "uint256"
						}
					],
					"name": "tokenIDPower",
					"outputs": [
						{
							"internalType": "uint256",
							"name": "",
							"type": "uint256"
						}
					],
					"stateMutability": "view",
					"type": "function"
				},
				{
					"inputs": [
						{
							"internalType": "uint256",
							"name": "tokenId",
							"type": "uint256"
						}
					],
					"name": "tokenURI",
					"outputs": [
						{
							"internalType": "string",
							"name": "",
							"type": "string"
						}
					],
					"stateMutability": "view",
					"type": "function"
				},
				{
					"inputs": [],
					"name": "totalPower",
					"outputs": [
						{
							"internalType": "uint256",
							"name": "",
							"type": "uint256"
						}
					],
					"stateMutability": "view",
					"type": "function"
				},
				{
					"inputs": [],
					"name": "totalSupply",
					"outputs": [
						{
							"internalType": "uint256",
							"name": "",
							"type": "uint256"
						}
					],
					"stateMutability": "view",
					"type": "function"
				},
				{
					"inputs": [
						{
							"internalType": "address",
							"name": "from",
							"type": "address"
						},
						{
							"internalType": "address",
							"name": "to",
							"type": "address"
						},
						{
							"internalType": "uint256",
							"name": "tokenId",
							"type": "uint256"
						}
					],
					"name": "transferFrom",
					"outputs": [],
					"stateMutability": "nonpayable",
					"type": "function"
				}
			],
			"devdoc": {
				"details": "Implementation of https://eips.ethereum.org/EIPS/eip-721[ERC721] Non-Fungible Token Standard, including the Metadata extension. Built to optimize for lower gas during batch mints. Assumes serials are sequentially minted starting at _startTokenId() (defaults to 0, e.g. 0, 1, 2, 3..). Assumes that an owner cannot have more than 2**64 - 1 (max value of uint64) of supply. Assumes that the maximum token id cannot exceed 2**256 - 1 (max value of uint256).",
				"kind": "dev",
				"methods": {
					"approve(address,uint256)": {
						"details": "See {IERC721-approve}."
					},
					"balanceOf(address)": {
						"details": "See {IERC721-balanceOf}."
					},
					"getApproved(uint256)": {
						"details": "See {IERC721-getApproved}."
					},
					"isApprovedForAll(address,address)": {
						"details": "See {IERC721-isApprovedForAll}."
					},
					"name()": {
						"details": "See {IERC721Metadata-name}."
					},
					"ownerOf(uint256)": {
						"details": "See {IERC721-ownerOf}."
					},
					"safeTransferFrom(address,address,uint256)": {
						"details": "See {IERC721-safeTransferFrom}."
					},
					"safeTransferFrom(address,address,uint256,bytes)": {
						"details": "See {IERC721-safeTransferFrom}."
					},
					"setApprovalForAll(address,bool)": {
						"details": "See {IERC721-setApprovalForAll}."
					},
					"supportsInterface(bytes4)": {
						"details": "See {IERC165-supportsInterface}."
					},
					"symbol()": {
						"details": "See {IERC721Metadata-symbol}."
					},
					"tokenURI(uint256)": {
						"details": "See {IERC721Metadata-tokenURI}."
					},
					"totalSupply()": {
						"details": "Burned tokens are calculated here, use _totalMinted() if you want to count just minted tokens."
					},
					"transferFrom(address,address,uint256)": {
						"details": "See {IERC721-transferFrom}."
					}
				},
				"version": 1
			},
			"evm": {
				"assembly": "    /* \"minerpunk/ERC721A/ERC721A.sol\":1033:24692  contract ERC721A is Context, ERC165, IERC721A,mine {... */\n  mstore(0x40, 0x80)\n    /* \"minerpunk/ERC721A/ERC721A.sol\":2455:2797  constructor(string memory name_, string memory symbol_, uint256 salt_) {... */\n  callvalue\n  dup1\n  iszero\n  tag_1\n  jumpi\n  0x00\n  dup1\n  revert\ntag_1:\n  pop\n  mload(0x40)\n  sub(codesize, bytecodeSize)\n  dup1\n  bytecodeSize\n  dup4\n  codecopy\n  dup2\n  dup2\n  add\n  0x40\n  mstore\n  dup2\n  add\n  swap1\n  tag_2\n  swap2\n  swap1\n  tag_3\n  jump\t// in\ntag_2:\n    /* \"minerpunk/ERC721A/ERC721A.sol\":2545:2550  name_ */\n  dup3\n    /* \"minerpunk/ERC721A/ERC721A.sol\":2537:2542  _name */\n  0x07\n    /* \"minerpunk/ERC721A/ERC721A.sol\":2537:2550  _name = name_ */\n  swap1\n  dup2\n  tag_6\n  swap2\n  swap1\n  tag_7\n  jump\t// in\ntag_6:\n  pop\n    /* \"minerpunk/ERC721A/ERC721A.sol\":2571:2578  symbol_ */\n  dup2\n    /* \"minerpunk/ERC721A/ERC721A.sol\":2561:2568  _symbol */\n  0x08\n    /* \"minerpunk/ERC721A/ERC721A.sol\":2561:2578  _symbol = symbol_ */\n  swap1\n  dup2\n  tag_8\n  swap2\n  swap1\n  tag_7\n  jump\t// in\ntag_8:\n  pop\n    /* \"minerpunk/ERC721A/ERC721A.sol\":2602:2607  10000 */\n  0x2710\n    /* \"minerpunk/ERC721A/ERC721A.sol\":2589:2599  _maxSupply */\n  0x05\n    /* \"minerpunk/ERC721A/ERC721A.sol\":2589:2607  _maxSupply = 10000 */\n  dup2\n  swap1\n  sstore\n  pop\n    /* \"minerpunk/ERC721A/ERC721A.sol\":2634:2649  _startTokenId() */\n  tag_9\n    /* \"minerpunk/ERC721A/ERC721A.sol\":2634:2647  _startTokenId */\n  shl(0x20, tag_10)\n    /* \"minerpunk/ERC721A/ERC721A.sol\":2634:2649  _startTokenId() */\n  0x20\n  shr\n  jump\t// in\ntag_9:\n    /* \"minerpunk/ERC721A/ERC721A.sol\":2618:2631  _currentIndex */\n  0x04\n    /* \"minerpunk/ERC721A/ERC721A.sol\":2618:2649  _currentIndex = _startTokenId() */\n  dup2\n  swap1\n  sstore\n  pop\n    /* \"minerpunk/ERC721A/ERC721A.sol\":2669:2674  salt_ */\n  dup1\n    /* \"minerpunk/ERC721A/ERC721A.sol\":2661:2666  _salt */\n  0x00\n    /* \"minerpunk/ERC721A/ERC721A.sol\":2661:2674  _salt = salt_ */\n  dup2\n  swap1\n  sstore\n  pop\n    /* \"minerpunk/ERC721A/ERC721A.sol\":2705:2709  5e18 */\n  0x4563918244f40000\n    /* \"minerpunk/ERC721A/ERC721A.sol\":2688:2702  _TokenperBlock */\n  0x01\n    /* \"minerpunk/ERC721A/ERC721A.sol\":2688:2709  _TokenperBlock = 5e18 */\n  dup2\n  swap1\n  sstore\n  pop\n    /* \"minerpunk/ERC721A/ERC721A.sol\":2737:2742  46000 */\n  0xb3b0\n    /* \"minerpunk/ERC721A/ERC721A.sol\":2723:2734  _totalPower */\n  0x03\n    /* \"minerpunk/ERC721A/ERC721A.sol\":2723:2742  _totalPower = 46000 */\n  dup2\n  swap1\n  sstore\n  pop\n    /* \"minerpunk/ERC721A/ERC721A.sol\":2773:2785  block.number */\n  number\n    /* \"minerpunk/ERC721A/ERC721A.sol\":2753:2770  _startBlockNumber */\n  0x02\n    /* \"minerpunk/ERC721A/ERC721A.sol\":2753:2785  _startBlockNumber = block.number */\n  dup2\n  swap1\n  sstore\n  pop\n    /* \"minerpunk/ERC721A/ERC721A.sol\":2455:2797  constructor(string memory name_, string memory symbol_, uint256 salt_) {... */\n  pop\n  pop\n  pop\n    /* \"minerpunk/ERC721A/ERC721A.sol\":1033:24692  contract ERC721A is Context, ERC165, IERC721A,mine {... */\n  jump(tag_11)\n    /* \"minerpunk/ERC721A/ERC721A.sol\":4534:4626  function _startTokenId() internal view virtual returns (uint256) {... */\ntag_10:\n    /* \"minerpunk/ERC721A/ERC721A.sol\":4590:4597  uint256 */\n  0x00\n    /* \"minerpunk/ERC721A/ERC721A.sol\":4534:4626  function _startTokenId() internal view virtual returns (uint256) {... */\n  swap1\n  jump\t// out\n    /* \"#utility.yul\":7:82   */\ntag_13:\n    /* \"#utility.yul\":40:46   */\n  0x00\n    /* \"#utility.yul\":73:75   */\n  0x40\n    /* \"#utility.yul\":67:76   */\n  mload\n    /* \"#utility.yul\":57:76   */\n  swap1\n  pop\n    /* \"#utility.yul\":7:82   */\n  swap1\n  jump\t// out\n    /* \"#utility.yul\":88:205   */\ntag_14:\n    /* \"#utility.yul\":197:198   */\n  0x00\n    /* \"#utility.yul\":194:195   */\n  dup1\n    /* \"#utility.yul\":187:199   */\n  revert\n    /* \"#utility.yul\":211:328   */\ntag_15:\n    /* \"#utility.yul\":320:321   */\n  0x00\n    /* \"#utility.yul\":317:318   */\n  dup1\n    /* \"#utility.yul\":310:322   */\n  revert\n    /* \"#utility.yul\":334:451   */\ntag_16:\n    /* \"#utility.yul\":443:444   */\n  0x00\n    /* \"#utility.yul\":440:441   */\n  dup1\n    /* \"#utility.yul\":433:445   */\n  revert\n    /* \"#utility.yul\":457:574   */\ntag_17:\n    /* \"#utility.yul\":566:567   */\n  0x00\n    /* \"#utility.yul\":563:564   */\n  dup1\n    /* \"#utility.yul\":556:568   */\n  revert\n    /* \"#utility.yul\":580:682   */\ntag_18:\n    /* \"#utility.yul\":621:627   */\n  0x00\n    /* \"#utility.yul\":672:674   */\n  0x1f\n    /* \"#utility.yul\":668:675   */\n  not\n    /* \"#utility.yul\":663:665   */\n  0x1f\n    /* \"#utility.yul\":656:661   */\n  dup4\n    /* \"#utility.yul\":652:666   */\n  add\n    /* \"#utility.yul\":648:676   */\n  and\n    /* \"#utility.yul\":638:676   */\n  swap1\n  pop\n    /* \"#utility.yul\":580:682   */\n  swap2\n  swap1\n  pop\n  jump\t// out\n    /* \"#utility.yul\":688:868   */\ntag_19:\n    /* \"#utility.yul\":736:813   */\n  0x4e487b7100000000000000000000000000000000000000000000000000000000\n    /* \"#utility.yul\":733:734   */\n  0x00\n    /* \"#utility.yul\":726:814   */\n  mstore\n    /* \"#utility.yul\":833:837   */\n  0x41\n    /* \"#utility.yul\":830:831   */\n  0x04\n    /* \"#utility.yul\":823:838   */\n  mstore\n    /* \"#utility.yul\":857:861   */\n  0x24\n    /* \"#utility.yul\":854:855   */\n  0x00\n    /* \"#utility.yul\":847:862   */\n  revert\n    /* \"#utility.yul\":874:1155   */\ntag_20:\n    /* \"#utility.yul\":957:984   */\n  tag_56\n    /* \"#utility.yul\":979:983   */\n  dup3\n    /* \"#utility.yul\":957:984   */\n  tag_18\n  jump\t// in\ntag_56:\n    /* \"#utility.yul\":949:955   */\n  dup2\n    /* \"#utility.yul\":945:985   */\n  add\n    /* \"#utility.yul\":1087:1093   */\n  dup2\n    /* \"#utility.yul\":1075:1085   */\n  dup2\n    /* \"#utility.yul\":1072:1094   */\n  lt\n    /* \"#utility.yul\":1051:1069   */\n  0xffffffffffffffff\n    /* \"#utility.yul\":1039:1049   */\n  dup3\n    /* \"#utility.yul\":1036:1070   */\n  gt\n    /* \"#utility.yul\":1033:1095   */\n  or\n    /* \"#utility.yul\":1030:1118   */\n  iszero\n  tag_57\n  jumpi\n    /* \"#utility.yul\":1098:1116   */\n  tag_58\n  tag_19\n  jump\t// in\ntag_58:\n    /* \"#utility.yul\":1030:1118   */\ntag_57:\n    /* \"#utility.yul\":1138:1148   */\n  dup1\n    /* \"#utility.yul\":1134:1136   */\n  0x40\n    /* \"#utility.yul\":1127:1149   */\n  mstore\n    /* \"#utility.yul\":917:1155   */\n  pop\n    /* \"#utility.yul\":874:1155   */\n  pop\n  pop\n  jump\t// out\n    /* \"#utility.yul\":1161:1290   */\ntag_21:\n    /* \"#utility.yul\":1195:1201   */\n  0x00\n    /* \"#utility.yul\":1222:1242   */\n  tag_60\n  tag_13\n  jump\t// in\ntag_60:\n    /* \"#utility.yul\":1212:1242   */\n  swap1\n  pop\n    /* \"#utility.yul\":1251:1284   */\n  tag_61\n    /* \"#utility.yul\":1279:1283   */\n  dup3\n    /* \"#utility.yul\":1271:1277   */\n  dup3\n    /* \"#utility.yul\":1251:1284   */\n  tag_20\n  jump\t// in\ntag_61:\n    /* \"#utility.yul\":1161:1290   */\n  swap2\n  swap1\n  pop\n  jump\t// out\n    /* \"#utility.yul\":1296:1604   */\ntag_22:\n    /* \"#utility.yul\":1358:1362   */\n  0x00\n    /* \"#utility.yul\":1448:1466   */\n  0xffffffffffffffff\n    /* \"#utility.yul\":1440:1446   */\n  dup3\n    /* \"#utility.yul\":1437:1467   */\n  gt\n    /* \"#utility.yul\":1434:1490   */\n  iszero\n  tag_63\n  jumpi\n    /* \"#utility.yul\":1470:1488   */\n  tag_64\n  tag_19\n  jump\t// in\ntag_64:\n    /* \"#utility.yul\":1434:1490   */\ntag_63:\n    /* \"#utility.yul\":1508:1537   */\n  tag_65\n    /* \"#utility.yul\":1530:1536   */\n  dup3\n    /* \"#utility.yul\":1508:1537   */\n  tag_18\n  jump\t// in\ntag_65:\n    /* \"#utility.yul\":1500:1537   */\n  swap1\n  pop\n    /* \"#utility.yul\":1592:1596   */\n  0x20\n    /* \"#utility.yul\":1586:1590   */\n  dup2\n    /* \"#utility.yul\":1582:1597   */\n  add\n    /* \"#utility.yul\":1574:1597   */\n  swap1\n  pop\n    /* \"#utility.yul\":1296:1604   */\n  swap2\n  swap1\n  pop\n  jump\t// out\n    /* \"#utility.yul\":1610:1856   */\ntag_23:\n    /* \"#utility.yul\":1691:1692   */\n  0x00\n    /* \"#utility.yul\":1701:1814   */\ntag_67:\n    /* \"#utility.yul\":1715:1721   */\n  dup4\n    /* \"#utility.yul\":1712:1713   */\n  dup2\n    /* \"#utility.yul\":1709:1722   */\n  lt\n    /* \"#utility.yul\":1701:1814   */\n  iszero\n  tag_69\n  jumpi\n    /* \"#utility.yul\":1800:1801   */\n  dup1\n    /* \"#utility.yul\":1795:1798   */\n  dup3\n    /* \"#utility.yul\":1791:1802   */\n  add\n    /* \"#utility.yul\":1785:1803   */\n  mload\n    /* \"#utility.yul\":1781:1782   */\n  dup2\n    /* \"#utility.yul\":1776:1779   */\n  dup5\n    /* \"#utility.yul\":1772:1783   */\n  add\n    /* \"#utility.yul\":1765:1804   */\n  mstore\n    /* \"#utility.yul\":1737:1739   */\n  0x20\n    /* \"#utility.yul\":1734:1735   */\n  dup2\n    /* \"#utility.yul\":1730:1740   */\n  add\n    /* \"#utility.yul\":1725:1740   */\n  swap1\n  pop\n    /* \"#utility.yul\":1701:1814   */\n  jump(tag_67)\ntag_69:\n    /* \"#utility.yul\":1848:1849   */\n  0x00\n    /* \"#utility.yul\":1839:1845   */\n  dup5\n    /* \"#utility.yul\":1834:1837   */\n  dup5\n    /* \"#utility.yul\":1830:1846   */\n  add\n    /* \"#utility.yul\":1823:1850   */\n  mstore\n    /* \"#utility.yul\":1672:1856   */\n  pop\n    /* \"#utility.yul\":1610:1856   */\n  pop\n  pop\n  pop\n  jump\t// out\n    /* \"#utility.yul\":1862:2296   */\ntag_24:\n    /* \"#utility.yul\":1951:1956   */\n  0x00\n    /* \"#utility.yul\":1976:2042   */\n  tag_71\n    /* \"#utility.yul\":1992:2041   */\n  tag_72\n    /* \"#utility.yul\":2034:2040   */\n  dup5\n    /* \"#utility.yul\":1992:2041   */\n  tag_22\n  jump\t// in\ntag_72:\n    /* \"#utility.yul\":1976:2042   */\n  tag_21\n  jump\t// in\ntag_71:\n    /* \"#utility.yul\":1967:2042   */\n  swap1\n  pop\n    /* \"#utility.yul\":2065:2071   */\n  dup3\n    /* \"#utility.yul\":2058:2063   */\n  dup2\n    /* \"#utility.yul\":2051:2072   */\n  mstore\n    /* \"#utility.yul\":2103:2107   */\n  0x20\n    /* \"#utility.yul\":2096:2101   */\n  dup2\n    /* \"#utility.yul\":2092:2108   */\n  add\n    /* \"#utility.yul\":2141:2144   */\n  dup5\n    /* \"#utility.yul\":2132:2138   */\n  dup5\n    /* \"#utility.yul\":2127:2130   */\n  dup5\n    /* \"#utility.yul\":2123:2139   */\n  add\n    /* \"#utility.yul\":2120:2145   */\n  gt\n    /* \"#utility.yul\":2117:2229   */\n  iszero\n  tag_73\n  jumpi\n    /* \"#utility.yul\":2148:2227   */\n  tag_74\n  tag_17\n  jump\t// in\ntag_74:\n    /* \"#utility.yul\":2117:2229   */\ntag_73:\n    /* \"#utility.yul\":2238:2290   */\n  tag_75\n    /* \"#utility.yul\":2283:2289   */\n  dup5\n    /* \"#utility.yul\":2278:2281   */\n  dup3\n    /* \"#utility.yul\":2273:2276   */\n  dup6\n    /* \"#utility.yul\":2238:2290   */\n  tag_23\n  jump\t// in\ntag_75:\n    /* \"#utility.yul\":1957:2296   */\n  pop\n    /* \"#utility.yul\":1862:2296   */\n  swap4\n  swap3\n  pop\n  pop\n  pop\n  jump\t// out\n    /* \"#utility.yul\":2316:2671   */\ntag_25:\n    /* \"#utility.yul\":2383:2388   */\n  0x00\n    /* \"#utility.yul\":2432:2435   */\n  dup3\n    /* \"#utility.yul\":2425:2429   */\n  0x1f\n    /* \"#utility.yul\":2417:2423   */\n  dup4\n    /* \"#utility.yul\":2413:2430   */\n  add\n    /* \"#utility.yul\":2409:2436   */\n  slt\n    /* \"#utility.yul\":2399:2521   */\n  tag_77\n  jumpi\n    /* \"#utility.yul\":2440:2519   */\n  tag_78\n  tag_16\n  jump\t// in\ntag_78:\n    /* \"#utility.yul\":2399:2521   */\ntag_77:\n    /* \"#utility.yul\":2550:2556   */\n  dup2\n    /* \"#utility.yul\":2544:2557   */\n  mload\n    /* \"#utility.yul\":2575:2665   */\n  tag_79\n    /* \"#utility.yul\":2661:2664   */\n  dup5\n    /* \"#utility.yul\":2653:2659   */\n  dup3\n    /* \"#utility.yul\":2646:2650   */\n  0x20\n    /* \"#utility.yul\":2638:2644   */\n  dup7\n    /* \"#utility.yul\":2634:2651   */\n  add\n    /* \"#utility.yul\":2575:2665   */\n  tag_24\n  jump\t// in\ntag_79:\n    /* \"#utility.yul\":2566:2665   */\n  swap2\n  pop\n    /* \"#utility.yul\":2389:2671   */\n  pop\n    /* \"#utility.yul\":2316:2671   */\n  swap3\n  swap2\n  pop\n  pop\n  jump\t// out\n    /* \"#utility.yul\":2677:2754   */\ntag_26:\n    /* \"#utility.yul\":2714:2721   */\n  0x00\n    /* \"#utility.yul\":2743:2748   */\n  dup2\n    /* \"#utility.yul\":2732:2748   */\n  swap1\n  pop\n    /* \"#utility.yul\":2677:2754   */\n  swap2\n  swap1\n  pop\n  jump\t// out\n    /* \"#utility.yul\":2760:2882   */\ntag_27:\n    /* \"#utility.yul\":2833:2857   */\n  tag_82\n    /* \"#utility.yul\":2851:2856   */\n  dup2\n    /* \"#utility.yul\":2833:2857   */\n  tag_26\n  jump\t// in\ntag_82:\n    /* \"#utility.yul\":2826:2831   */\n  dup2\n    /* \"#utility.yul\":2823:2858   */\n  eq\n    /* \"#utility.yul\":2813:2876   */\n  tag_83\n  jumpi\n    /* \"#utility.yul\":2872:2873   */\n  0x00\n    /* \"#utility.yul\":2869:2870   */\n  dup1\n    /* \"#utility.yul\":2862:2874   */\n  revert\n    /* \"#utility.yul\":2813:2876   */\ntag_83:\n    /* \"#utility.yul\":2760:2882   */\n  pop\n  jump\t// out\n    /* \"#utility.yul\":2888:3031   */\ntag_28:\n    /* \"#utility.yul\":2945:2950   */\n  0x00\n    /* \"#utility.yul\":2976:2982   */\n  dup2\n    /* \"#utility.yul\":2970:2983   */\n  mload\n    /* \"#utility.yul\":2961:2983   */\n  swap1\n  pop\n    /* \"#utility.yul\":2992:3025   */\n  tag_85\n    /* \"#utility.yul\":3019:3024   */\n  dup2\n    /* \"#utility.yul\":2992:3025   */\n  tag_27\n  jump\t// in\ntag_85:\n    /* \"#utility.yul\":2888:3031   */\n  swap3\n  swap2\n  pop\n  pop\n  jump\t// out\n    /* \"#utility.yul\":3037:4046   */\ntag_3:\n    /* \"#utility.yul\":3145:3151   */\n  0x00\n    /* \"#utility.yul\":3153:3159   */\n  dup1\n    /* \"#utility.yul\":3161:3167   */\n  0x00\n    /* \"#utility.yul\":3210:3212   */\n  0x60\n    /* \"#utility.yul\":3198:3207   */\n  dup5\n    /* \"#utility.yul\":3189:3196   */\n  dup7\n    /* \"#utility.yul\":3185:3208   */\n  sub\n    /* \"#utility.yul\":3181:3213   */\n  slt\n    /* \"#utility.yul\":3178:3297   */\n  iszero\n  tag_87\n  jumpi\n    /* \"#utility.yul\":3216:3295   */\n  tag_88\n  tag_14\n  jump\t// in\ntag_88:\n    /* \"#utility.yul\":3178:3297   */\ntag_87:\n    /* \"#utility.yul\":3357:3358   */\n  0x00\n    /* \"#utility.yul\":3346:3355   */\n  dup5\n    /* \"#utility.yul\":3342:3359   */\n  add\n    /* \"#utility.yul\":3336:3360   */\n  mload\n    /* \"#utility.yul\":3387:3405   */\n  0xffffffffffffffff\n    /* \"#utility.yul\":3379:3385   */\n  dup2\n    /* \"#utility.yul\":3376:3406   */\n  gt\n    /* \"#utility.yul\":3373:3490   */\n  iszero\n  tag_89\n  jumpi\n    /* \"#utility.yul\":3409:3488   */\n  tag_90\n  tag_15\n  jump\t// in\ntag_90:\n    /* \"#utility.yul\":3373:3490   */\ntag_89:\n    /* \"#utility.yul\":3514:3588   */\n  tag_91\n    /* \"#utility.yul\":3580:3587   */\n  dup7\n    /* \"#utility.yul\":3571:3577   */\n  dup3\n    /* \"#utility.yul\":3560:3569   */\n  dup8\n    /* \"#utility.yul\":3556:3578   */\n  add\n    /* \"#utility.yul\":3514:3588   */\n  tag_25\n  jump\t// in\ntag_91:\n    /* \"#utility.yul\":3504:3588   */\n  swap4\n  pop\n    /* \"#utility.yul\":3307:3598   */\n  pop\n    /* \"#utility.yul\":3658:3660   */\n  0x20\n    /* \"#utility.yul\":3647:3656   */\n  dup5\n    /* \"#utility.yul\":3643:3661   */\n  add\n    /* \"#utility.yul\":3637:3662   */\n  mload\n    /* \"#utility.yul\":3689:3707   */\n  0xffffffffffffffff\n    /* \"#utility.yul\":3681:3687   */\n  dup2\n    /* \"#utility.yul\":3678:3708   */\n  gt\n    /* \"#utility.yul\":3675:3792   */\n  iszero\n  tag_92\n  jumpi\n    /* \"#utility.yul\":3711:3790   */\n  tag_93\n  tag_15\n  jump\t// in\ntag_93:\n    /* \"#utility.yul\":3675:3792   */\ntag_92:\n    /* \"#utility.yul\":3816:3890   */\n  tag_94\n    /* \"#utility.yul\":3882:3889   */\n  dup7\n    /* \"#utility.yul\":3873:3879   */\n  dup3\n    /* \"#utility.yul\":3862:3871   */\n  dup8\n    /* \"#utility.yul\":3858:3880   */\n  add\n    /* \"#utility.yul\":3816:3890   */\n  tag_25\n  jump\t// in\ntag_94:\n    /* \"#utility.yul\":3806:3890   */\n  swap3\n  pop\n    /* \"#utility.yul\":3608:3900   */\n  pop\n    /* \"#utility.yul\":3939:3941   */\n  0x40\n    /* \"#utility.yul\":3965:4029   */\n  tag_95\n    /* \"#utility.yul\":4021:4028   */\n  dup7\n    /* \"#utility.yul\":4012:4018   */\n  dup3\n    /* \"#utility.yul\":4001:4010   */\n  dup8\n    /* \"#utility.yul\":3997:4019   */\n  add\n    /* \"#utility.yul\":3965:4029   */\n  tag_28\n  jump\t// in\ntag_95:\n    /* \"#utility.yul\":3955:4029   */\n  swap2\n  pop\n    /* \"#utility.yul\":3910:4039   */\n  pop\n    /* \"#utility.yul\":3037:4046   */\n  swap3\n  pop\n  swap3\n  pop\n  swap3\n  jump\t// out\n    /* \"#utility.yul\":4052:4151   */\ntag_29:\n    /* \"#utility.yul\":4104:4110   */\n  0x00\n    /* \"#utility.yul\":4138:4143   */\n  dup2\n    /* \"#utility.yul\":4132:4144   */\n  mload\n    /* \"#utility.yul\":4122:4144   */\n  swap1\n  pop\n    /* \"#utility.yul\":4052:4151   */\n  swap2\n  swap1\n  pop\n  jump\t// out\n    /* \"#utility.yul\":4157:4337   */\ntag_30:\n    /* \"#utility.yul\":4205:4282   */\n  0x4e487b7100000000000000000000000000000000000000000000000000000000\n    /* \"#utility.yul\":4202:4203   */\n  0x00\n    /* \"#utility.yul\":4195:4283   */\n  mstore\n    /* \"#utility.yul\":4302:4306   */\n  0x22\n    /* \"#utility.yul\":4299:4300   */\n  0x04\n    /* \"#utility.yul\":4292:4307   */\n  mstore\n    /* \"#utility.yul\":4326:4330   */\n  0x24\n    /* \"#utility.yul\":4323:4324   */\n  0x00\n    /* \"#utility.yul\":4316:4331   */\n  revert\n    /* \"#utility.yul\":4343:4663   */\ntag_31:\n    /* \"#utility.yul\":4387:4393   */\n  0x00\n    /* \"#utility.yul\":4424:4425   */\n  0x02\n    /* \"#utility.yul\":4418:4422   */\n  dup3\n    /* \"#utility.yul\":4414:4426   */\n  div\n    /* \"#utility.yul\":4404:4426   */\n  swap1\n  pop\n    /* \"#utility.yul\":4471:4472   */\n  0x01\n    /* \"#utility.yul\":4465:4469   */\n  dup3\n    /* \"#utility.yul\":4461:4473   */\n  and\n    /* \"#utility.yul\":4492:4510   */\n  dup1\n    /* \"#utility.yul\":4482:4563   */\n  tag_99\n  jumpi\n    /* \"#utility.yul\":4548:4552   */\n  0x7f\n    /* \"#utility.yul\":4540:4546   */\n  dup3\n    /* \"#utility.yul\":4536:4553   */\n  and\n    /* \"#utility.yul\":4526:4553   */\n  swap2\n  pop\n    /* \"#utility.yul\":4482:4563   */\ntag_99:\n    /* \"#utility.yul\":4610:4612   */\n  0x20\n    /* \"#utility.yul\":4602:4608   */\n  dup3\n    /* \"#utility.yul\":4599:4613   */\n  lt\n    /* \"#utility.yul\":4579:4597   */\n  dup2\n    /* \"#utility.yul\":4576:4614   */\n  sub\n    /* \"#utility.yul\":4573:4657   */\n  tag_100\n  jumpi\n    /* \"#utility.yul\":4629:4647   */\n  tag_101\n  tag_30\n  jump\t// in\ntag_101:\n    /* \"#utility.yul\":4573:4657   */\ntag_100:\n    /* \"#utility.yul\":4394:4663   */\n  pop\n    /* \"#utility.yul\":4343:4663   */\n  swap2\n  swap1\n  pop\n  jump\t// out\n    /* \"#utility.yul\":4669:4810   */\ntag_32:\n    /* \"#utility.yul\":4718:4722   */\n  0x00\n    /* \"#utility.yul\":4741:4744   */\n  dup2\n    /* \"#utility.yul\":4733:4744   */\n  swap1\n  pop\n    /* \"#utility.yul\":4764:4767   */\n  dup2\n    /* \"#utility.yul\":4761:4762   */\n  0x00\n    /* \"#utility.yul\":4754:4768   */\n  mstore\n    /* \"#utility.yul\":4798:4802   */\n  0x20\n    /* \"#utility.yul\":4795:4796   */\n  0x00\n    /* \"#utility.yul\":4785:4803   */\n  keccak256\n    /* \"#utility.yul\":4777:4803   */\n  swap1\n  pop\n    /* \"#utility.yul\":4669:4810   */\n  swap2\n  swap1\n  pop\n  jump\t// out\n    /* \"#utility.yul\":4816:4909   */\ntag_33:\n    /* \"#utility.yul\":4853:4859   */\n  0x00\n    /* \"#utility.yul\":4900:4902   */\n  0x20\n    /* \"#utility.yul\":4895:4897   */\n  0x1f\n    /* \"#utility.yul\":4888:4893   */\n  dup4\n    /* \"#utility.yul\":4884:4898   */\n  add\n    /* \"#utility.yul\":4880:4903   */\n  div\n    /* \"#utility.yul\":4870:4903   */\n  swap1\n  pop\n    /* \"#utility.yul\":4816:4909   */\n  swap2\n  swap1\n  pop\n  jump\t// out\n    /* \"#utility.yul\":4915:5022   */\ntag_34:\n    /* \"#utility.yul\":4959:4967   */\n  0x00\n    /* \"#utility.yul\":5009:5014   */\n  dup3\n    /* \"#utility.yul\":5003:5007   */\n  dup3\n    /* \"#utility.yul\":4999:5015   */\n  shl\n    /* \"#utility.yul\":4978:5015   */\n  swap1\n  pop\n    /* \"#utility.yul\":4915:5022   */\n  swap3\n  swap2\n  pop\n  pop\n  jump\t// out\n    /* \"#utility.yul\":5028:5421   */\ntag_35:\n    /* \"#utility.yul\":5097:5103   */\n  0x00\n    /* \"#utility.yul\":5147:5148   */\n  0x08\n    /* \"#utility.yul\":5135:5145   */\n  dup4\n    /* \"#utility.yul\":5131:5149   */\n  mul\n    /* \"#utility.yul\":5170:5267   */\n  tag_106\n    /* \"#utility.yul\":5200:5266   */\n  0xffffffffffffffffffffffffffffffffffffffffffffffffffffffffffffffff\n    /* \"#utility.yul\":5189:5198   */\n  dup3\n    /* \"#utility.yul\":5170:5267   */\n  tag_34\n  jump\t// in\ntag_106:\n    /* \"#utility.yul\":5288:5327   */\n  tag_107\n    /* \"#utility.yul\":5318:5326   */\n  dup7\n    /* \"#utility.yul\":5307:5316   */\n  dup4\n    /* \"#utility.yul\":5288:5327   */\n  tag_34\n  jump\t// in\ntag_107:\n    /* \"#utility.yul\":5276:5327   */\n  swap6\n  pop\n    /* \"#utility.yul\":5360:5364   */\n  dup1\n    /* \"#utility.yul\":5356:5365   */\n  not\n    /* \"#utility.yul\":5349:5354   */\n  dup5\n    /* \"#utility.yul\":5345:5366   */\n  and\n    /* \"#utility.yul\":5336:5366   */\n  swap4\n  pop\n    /* \"#utility.yul\":5409:5413   */\n  dup1\n    /* \"#utility.yul\":5399:5407   */\n  dup7\n    /* \"#utility.yul\":5395:5414   */\n  and\n    /* \"#utility.yul\":5388:5393   */\n  dup5\n    /* \"#utility.yul\":5385:5415   */\n  or\n    /* \"#utility.yul\":5375:5415   */\n  swap3\n  pop\n    /* \"#utility.yul\":5104:5421   */\n  pop\n  pop\n    /* \"#utility.yul\":5028:5421   */\n  swap4\n  swap3\n  pop\n  pop\n  pop\n  jump\t// out\n    /* \"#utility.yul\":5427:5487   */\ntag_36:\n    /* \"#utility.yul\":5455:5458   */\n  0x00\n    /* \"#utility.yul\":5476:5481   */\n  dup2\n    /* \"#utility.yul\":5469:5481   */\n  swap1\n  pop\n    /* \"#utility.yul\":5427:5487   */\n  swap2\n  swap1\n  pop\n  jump\t// out\n    /* \"#utility.yul\":5493:5635   */\ntag_37:\n    /* \"#utility.yul\":5543:5552   */\n  0x00\n    /* \"#utility.yul\":5576:5629   */\n  tag_110\n    /* \"#utility.yul\":5594:5628   */\n  tag_111\n    /* \"#utility.yul\":5603:5627   */\n  tag_112\n    /* \"#utility.yul\":5621:5626   */\n  dup5\n    /* \"#utility.yul\":5603:5627   */\n  tag_26\n  jump\t// in\ntag_112:\n    /* \"#utility.yul\":5594:5628   */\n  tag_36\n  jump\t// in\ntag_111:\n    /* \"#utility.yul\":5576:5629   */\n  tag_26\n  jump\t// in\ntag_110:\n    /* \"#utility.yul\":5563:5629   */\n  swap1\n  pop\n    /* \"#utility.yul\":5493:5635   */\n  swap2\n  swap1\n  pop\n  jump\t// out\n    /* \"#utility.yul\":5641:5716   */\ntag_38:\n    /* \"#utility.yul\":5684:5687   */\n  0x00\n    /* \"#utility.yul\":5705:5710   */\n  dup2\n    /* \"#utility.yul\":5698:5710   */\n  swap1\n  pop\n    /* \"#utility.yul\":5641:5716   */\n  swap2\n  swap1\n  pop\n  jump\t// out\n    /* \"#utility.yul\":5722:5991   */\ntag_39:\n    /* \"#utility.yul\":5832:5871   */\n  tag_115\n    /* \"#utility.yul\":5863:5870   */\n  dup4\n    /* \"#utility.yul\":5832:5871   */\n  tag_37\n  jump\t// in\ntag_115:\n    /* \"#utility.yul\":5893:5984   */\n  tag_116\n    /* \"#utility.yul\":5942:5983   */\n  tag_117\n    /* \"#utility.yul\":5966:5982   */\n  dup3\n    /* \"#utility.yul\":5942:5983   */\n  tag_38\n  jump\t// in\ntag_117:\n    /* \"#utility.yul\":5934:5940   */\n  dup5\n    /* \"#utility.yul\":5927:5931   */\n  dup5\n    /* \"#utility.yul\":5921:5932   */\n  sload\n    /* \"#utility.yul\":5893:5984   */\n  tag_35\n  jump\t// in\ntag_116:\n    /* \"#utility.yul\":5887:5891   */\n  dup3\n    /* \"#utility.yul\":5880:5985   */\n  sstore\n    /* \"#utility.yul\":5798:5991   */\n  pop\n    /* \"#utility.yul\":5722:5991   */\n  pop\n  pop\n  pop\n  jump\t// out\n    /* \"#utility.yul\":5997:6070   */\ntag_40:\n    /* \"#utility.yul\":6042:6045   */\n  0x00\n    /* \"#utility.yul\":5997:6070   */\n  swap1\n  jump\t// out\n    /* \"#utility.yul\":6076:6265   */\ntag_41:\n    /* \"#utility.yul\":6153:6185   */\n  tag_120\n  tag_40\n  jump\t// in\ntag_120:\n    /* \"#utility.yul\":6194:6259   */\n  tag_121\n    /* \"#utility.yul\":6252:6258   */\n  dup2\n    /* \"#utility.yul\":6244:6250   */\n  dup5\n    /* \"#utility.yul\":6238:6242   */\n  dup5\n    /* \"#utility.yul\":6194:6259   */\n  tag_39\n  jump\t// in\ntag_121:\n    /* \"#utility.yul\":6129:6265   */\n  pop\n    /* \"#utility.yul\":6076:6265   */\n  pop\n  pop\n  jump\t// out\n    /* \"#utility.yul\":6271:6457   */\ntag_42:\n    /* \"#utility.yul\":6331:6451   */\ntag_123:\n    /* \"#utility.yul\":6348:6351   */\n  dup2\n    /* \"#utility.yul\":6341:6346   */\n  dup2\n    /* \"#utility.yul\":6338:6352   */\n  lt\n    /* \"#utility.yul\":6331:6451   */\n  iszero\n  tag_125\n  jumpi\n    /* \"#utility.yul\":6402:6441   */\n  tag_126\n    /* \"#utility.yul\":6439:6440   */\n  0x00\n    /* \"#utility.yul\":6432:6437   */\n  dup3\n    /* \"#utility.yul\":6402:6441   */\n  tag_41\n  jump\t// in\ntag_126:\n    /* \"#utility.yul\":6375:6376   */\n  0x01\n    /* \"#utility.yul\":6368:6373   */\n  dup2\n    /* \"#utility.yul\":6364:6377   */\n  add\n    /* \"#utility.yul\":6355:6377   */\n  swap1\n  pop\n    /* \"#utility.yul\":6331:6451   */\n  jump(tag_123)\ntag_125:\n    /* \"#utility.yul\":6271:6457   */\n  pop\n  pop\n  jump\t// out\n    /* \"#utility.yul\":6463:7006   */\ntag_43:\n    /* \"#utility.yul\":6564:6566   */\n  0x1f\n    /* \"#utility.yul\":6559:6562   */\n  dup3\n    /* \"#utility.yul\":6556:6567   */\n  gt\n    /* \"#utility.yul\":6553:6999   */\n  iszero\n  tag_128\n  jumpi\n    /* \"#utility.yul\":6598:6636   */\n  tag_129\n    /* \"#utility.yul\":6630:6635   */\n  dup2\n    /* \"#utility.yul\":6598:6636   */\n  tag_32\n  jump\t// in\ntag_129:\n    /* \"#utility.yul\":6682:6711   */\n  tag_130\n    /* \"#utility.yul\":6700:6710   */\n  dup5\n    /* \"#utility.yul\":6682:6711   */\n  tag_33\n  jump\t// in\ntag_130:\n    /* \"#utility.yul\":6672:6680   */\n  dup2\n    /* \"#utility.yul\":6668:6712   */\n  add\n    /* \"#utility.yul\":6865:6867   */\n  0x20\n    /* \"#utility.yul\":6853:6863   */\n  dup6\n    /* \"#utility.yul\":6850:6868   */\n  lt\n    /* \"#utility.yul\":6847:6896   */\n  iszero\n  tag_131\n  jumpi\n    /* \"#utility.yul\":6886:6894   */\n  dup2\n    /* \"#utility.yul\":6871:6894   */\n  swap1\n  pop\n    /* \"#utility.yul\":6847:6896   */\ntag_131:\n    /* \"#utility.yul\":6909:6989   */\n  tag_132\n    /* \"#utility.yul\":6965:6987   */\n  tag_133\n    /* \"#utility.yul\":6983:6986   */\n  dup6\n    /* \"#utility.yul\":6965:6987   */\n  tag_33\n  jump\t// in\ntag_133:\n    /* \"#utility.yul\":6955:6963   */\n  dup4\n    /* \"#utility.yul\":6951:6988   */\n  add\n    /* \"#utility.yul\":6938:6949   */\n  dup3\n    /* \"#utility.yul\":6909:6989   */\n  tag_42\n  jump\t// in\ntag_132:\n    /* \"#utility.yul\":6568:6999   */\n  pop\n  pop\n    /* \"#utility.yul\":6553:6999   */\ntag_128:\n    /* \"#utility.yul\":6463:7006   */\n  pop\n  pop\n  pop\n  jump\t// out\n    /* \"#utility.yul\":7012:7129   */\ntag_44:\n    /* \"#utility.yul\":7066:7074   */\n  0x00\n    /* \"#utility.yul\":7116:7121   */\n  dup3\n    /* \"#utility.yul\":7110:7114   */\n  dup3\n    /* \"#utility.yul\":7106:7122   */\n  shr\n    /* \"#utility.yul\":7085:7122   */\n  swap1\n  pop\n    /* \"#utility.yul\":7012:7129   */\n  swap3\n  swap2\n  pop\n  pop\n  jump\t// out\n    /* \"#utility.yul\":7135:7304   */\ntag_45:\n    /* \"#utility.yul\":7179:7185   */\n  0x00\n    /* \"#utility.yul\":7212:7263   */\n  tag_136\n    /* \"#utility.yul\":7260:7261   */\n  0x00\n    /* \"#utility.yul\":7256:7262   */\n  not\n    /* \"#utility.yul\":7248:7253   */\n  dup5\n    /* \"#utility.yul\":7245:7246   */\n  0x08\n    /* \"#utility.yul\":7241:7254   */\n  mul\n    /* \"#utility.yul\":7212:7263   */\n  tag_44\n  jump\t// in\ntag_136:\n    /* \"#utility.yul\":7208:7264   */\n  not\n    /* \"#utility.yul\":7293:7297   */\n  dup1\n    /* \"#utility.yul\":7287:7291   */\n  dup4\n    /* \"#utility.yul\":7283:7298   */\n  and\n    /* \"#utility.yul\":7273:7298   */\n  swap2\n  pop\n    /* \"#utility.yul\":7186:7304   */\n  pop\n    /* \"#utility.yul\":7135:7304   */\n  swap3\n  swap2\n  pop\n  pop\n  jump\t// out\n    /* \"#utility.yul\":7309:7604   */\ntag_46:\n    /* \"#utility.yul\":7385:7389   */\n  0x00\n    /* \"#utility.yul\":7531:7560   */\n  tag_138\n    /* \"#utility.yul\":7556:7559   */\n  dup4\n    /* \"#utility.yul\":7550:7554   */\n  dup4\n    /* \"#utility.yul\":7531:7560   */\n  tag_45\n  jump\t// in\ntag_138:\n    /* \"#utility.yul\":7523:7560   */\n  swap2\n  pop\n    /* \"#utility.yul\":7593:7596   */\n  dup3\n    /* \"#utility.yul\":7590:7591   */\n  0x02\n    /* \"#utility.yul\":7586:7597   */\n  mul\n    /* \"#utility.yul\":7580:7584   */\n  dup3\n    /* \"#utility.yul\":7577:7598   */\n  or\n    /* \"#utility.yul\":7569:7598   */\n  swap1\n  pop\n    /* \"#utility.yul\":7309:7604   */\n  swap3\n  swap2\n  pop\n  pop\n  jump\t// out\n    /* \"#utility.yul\":7609:9004   */\ntag_7:\n    /* \"#utility.yul\":7726:7763   */\n  tag_140\n    /* \"#utility.yul\":7759:7762   */\n  dup3\n    /* \"#utility.yul\":7726:7763   */\n  tag_29\n  jump\t// in\ntag_140:\n    /* \"#utility.yul\":7828:7846   */\n  0xffffffffffffffff\n    /* \"#utility.yul\":7820:7826   */\n  dup2\n    /* \"#utility.yul\":7817:7847   */\n  gt\n    /* \"#utility.yul\":7814:7870   */\n  iszero\n  tag_141\n  jumpi\n    /* \"#utility.yul\":7850:7868   */\n  tag_142\n  tag_19\n  jump\t// in\ntag_142:\n    /* \"#utility.yul\":7814:7870   */\ntag_141:\n    /* \"#utility.yul\":7894:7932   */\n  tag_143\n    /* \"#utility.yul\":7926:7930   */\n  dup3\n    /* \"#utility.yul\":7920:7931   */\n  sload\n    /* \"#utility.yul\":7894:7932   */\n  tag_31\n  jump\t// in\ntag_143:\n    /* \"#utility.yul\":7979:8046   */\n  tag_144\n    /* \"#utility.yul\":8039:8045   */\n  dup3\n    /* \"#utility.yul\":8031:8037   */\n  dup3\n    /* \"#utility.yul\":8025:8029   */\n  dup6\n    /* \"#utility.yul\":7979:8046   */\n  tag_43\n  jump\t// in\ntag_144:\n    /* \"#utility.yul\":8073:8074   */\n  0x00\n    /* \"#utility.yul\":8097:8101   */\n  0x20\n    /* \"#utility.yul\":8084:8101   */\n  swap1\n  pop\n    /* \"#utility.yul\":8129:8131   */\n  0x1f\n    /* \"#utility.yul\":8121:8127   */\n  dup4\n    /* \"#utility.yul\":8118:8132   */\n  gt\n    /* \"#utility.yul\":8146:8147   */\n  0x01\n    /* \"#utility.yul\":8141:8759   */\n  dup2\n  eq\n  tag_146\n  jumpi\n    /* \"#utility.yul\":8803:8804   */\n  0x00\n    /* \"#utility.yul\":8820:8826   */\n  dup5\n    /* \"#utility.yul\":8817:8894   */\n  iszero\n  tag_147\n  jumpi\n    /* \"#utility.yul\":8869:8878   */\n  dup3\n    /* \"#utility.yul\":8864:8867   */\n  dup8\n    /* \"#utility.yul\":8860:8879   */\n  add\n    /* \"#utility.yul\":8854:8880   */\n  mload\n    /* \"#utility.yul\":8845:8880   */\n  swap1\n  pop\n    /* \"#utility.yul\":8817:8894   */\ntag_147:\n    /* \"#utility.yul\":8920:8987   */\n  tag_148\n    /* \"#utility.yul\":8980:8986   */\n  dup6\n    /* \"#utility.yul\":8973:8978   */\n  dup3\n    /* \"#utility.yul\":8920:8987   */\n  tag_46\n  jump\t// in\ntag_148:\n    /* \"#utility.yul\":8914:8918   */\n  dup7\n    /* \"#utility.yul\":8907:8988   */\n  sstore\n    /* \"#utility.yul\":8776:8998   */\n  pop\n    /* \"#utility.yul\":8111:8998   */\n  jump(tag_145)\n    /* \"#utility.yul\":8141:8759   */\ntag_146:\n    /* \"#utility.yul\":8193:8197   */\n  0x1f\n    /* \"#utility.yul\":8189:8198   */\n  not\n    /* \"#utility.yul\":8181:8187   */\n  dup5\n    /* \"#utility.yul\":8177:8199   */\n  and\n    /* \"#utility.yul\":8227:8264   */\n  tag_149\n    /* \"#utility.yul\":8259:8263   */\n  dup7\n    /* \"#utility.yul\":8227:8264   */\n  tag_32\n  jump\t// in\ntag_149:\n    /* \"#utility.yul\":8286:8287   */\n  0x00\n    /* \"#utility.yul\":8300:8508   */\ntag_150:\n    /* \"#utility.yul\":8314:8321   */\n  dup3\n    /* \"#utility.yul\":8311:8312   */\n  dup2\n    /* \"#utility.yul\":8308:8322   */\n  lt\n    /* \"#utility.yul\":8300:8508   */\n  iszero\n  tag_152\n  jumpi\n    /* \"#utility.yul\":8393:8402   */\n  dup5\n    /* \"#utility.yul\":8388:8391   */\n  dup10\n    /* \"#utility.yul\":8384:8403   */\n  add\n    /* \"#utility.yul\":8378:8404   */\n  mload\n    /* \"#utility.yul\":8370:8376   */\n  dup3\n    /* \"#utility.yul\":8363:8405   */\n  sstore\n    /* \"#utility.yul\":8444:8445   */\n  0x01\n    /* \"#utility.yul\":8436:8442   */\n  dup3\n    /* \"#utility.yul\":8432:8446   */\n  add\n    /* \"#utility.yul\":8422:8446   */\n  swap2\n  pop\n    /* \"#utility.yul\":8491:8493   */\n  0x20\n    /* \"#utility.yul\":8480:8489   */\n  dup6\n    /* \"#utility.yul\":8476:8494   */\n  add\n    /* \"#utility.yul\":8463:8494   */\n  swap5\n  pop\n    /* \"#utility.yul\":8337:8341   */\n  0x20\n    /* \"#utility.yul\":8334:8335   */\n  dup2\n    /* \"#utility.yul\":8330:8342   */\n  add\n    /* \"#utility.yul\":8325:8342   */\n  swap1\n  pop\n    /* \"#utility.yul\":8300:8508   */\n  jump(tag_150)\ntag_152:\n    /* \"#utility.yul\":8536:8542   */\n  dup7\n    /* \"#utility.yul\":8527:8534   */\n  dup4\n    /* \"#utility.yul\":8524:8543   */\n  lt\n    /* \"#utility.yul\":8521:8700   */\n  iszero\n  tag_153\n  jumpi\n    /* \"#utility.yul\":8594:8603   */\n  dup5\n    /* \"#utility.yul\":8589:8592   */\n  dup10\n    /* \"#utility.yul\":8585:8604   */\n  add\n    /* \"#utility.yul\":8579:8605   */\n  mload\n    /* \"#utility.yul\":8637:8685   */\n  tag_154\n    /* \"#utility.yul\":8679:8683   */\n  0x1f\n    /* \"#utility.yul\":8671:8677   */\n  dup10\n    /* \"#utility.yul\":8667:8684   */\n  and\n    /* \"#utility.yul\":8656:8665   */\n  dup3\n    /* \"#utility.yul\":8637:8685   */\n  tag_45\n  jump\t// in\ntag_154:\n    /* \"#utility.yul\":8629:8635   */\n  dup4\n    /* \"#utility.yul\":8622:8686   */\n  sstore\n    /* \"#utility.yul\":8544:8700   */\n  pop\n    /* \"#utility.yul\":8521:8700   */\ntag_153:\n    /* \"#utility.yul\":8746:8747   */\n  0x01\n    /* \"#utility.yul\":8742:8743   */\n  0x02\n    /* \"#utility.yul\":8734:8740   */\n  dup9\n    /* \"#utility.yul\":8730:8744   */\n  mul\n    /* \"#utility.yul\":8726:8748   */\n  add\n    /* \"#utility.yul\":8720:8724   */\n  dup9\n    /* \"#utility.yul\":8713:8749   */\n  sstore\n    /* \"#utility.yul\":8148:8759   */\n  pop\n  pop\n  pop\n    /* \"#utility.yul\":8111:8998   */\ntag_145:\n  pop\n    /* \"#utility.yul\":7701:9004   */\n  pop\n  pop\n  pop\n    /* \"#utility.yul\":7609:9004   */\n  pop\n  pop\n  jump\t// out\n    /* \"minerpunk/ERC721A/ERC721A.sol\":1033:24692  contract ERC721A is Context, ERC165, IERC721A,mine {... */\ntag_11:\n  dataSize(sub_0)\n  dup1\n  dataOffset(sub_0)\n  0x00\n  codecopy\n  0x00\n  return\nstop\n\nsub_0: assembly {\n        /* \"minerpunk/ERC721A/ERC721A.sol\":1033:24692  contract ERC721A is Context, ERC165, IERC721A,mine {... */\n      mstore(0x40, 0x80)\n      callvalue\n      dup1\n      iszero\n      tag_1\n      jumpi\n      0x00\n      dup1\n      revert\n    tag_1:\n      pop\n      jumpi(tag_2, lt(calldatasize, 0x04))\n      shr(0xe0, calldataload(0x00))\n      dup1\n      0x95d89b41\n      gt\n      tag_24\n      jumpi\n      dup1\n      0xd5abeb01\n      gt\n      tag_25\n      jumpi\n      dup1\n      0xd5abeb01\n      eq\n      tag_18\n      jumpi\n      dup1\n      0xd993226b\n      eq\n      tag_19\n      jumpi\n      dup1\n      0xdb3ad22c\n      eq\n      tag_20\n      jumpi\n      dup1\n      0xe29301f9\n      eq\n      tag_21\n      jumpi\n      dup1\n      0xe985e9c5\n      eq\n      tag_22\n      jumpi\n      dup1\n      0xeff0730d\n      eq\n      tag_23\n      jumpi\n      jump(tag_2)\n    tag_25:\n      dup1\n      0x95d89b41\n      eq\n      tag_13\n      jumpi\n      dup1\n      0xa22cb465\n      eq\n      tag_14\n      jumpi\n      dup1\n      0xb88d4fde\n      eq\n      tag_15\n      jumpi\n      dup1\n      0xb8ba6007\n      eq\n      tag_16\n      jumpi\n      dup1\n      0xc87b56dd\n      eq\n      tag_17\n      jumpi\n      jump(tag_2)\n    tag_24:\n      dup1\n      0x23b872dd\n      gt\n      tag_26\n      jumpi\n      dup1\n      0x23b872dd\n      eq\n      tag_8\n      jumpi\n      dup1\n      0x42842e0e\n      eq\n      tag_9\n      jumpi\n      dup1\n      0x4be3403c\n      eq\n      tag_10\n      jumpi\n      dup1\n      0x6352211e\n      eq\n      tag_11\n      jumpi\n      dup1\n      0x70a08231\n      eq\n      tag_12\n      jumpi\n      jump(tag_2)\n    tag_26:\n      dup1\n      0x01ffc9a7\n      eq\n      tag_3\n      jumpi\n      dup1\n      0x06fdde03\n      eq\n      tag_4\n      jumpi\n      dup1\n      0x081812fc\n      eq\n      tag_5\n      jumpi\n      dup1\n      0x095ea7b3\n      eq\n      tag_6\n      jumpi\n      dup1\n      0x18160ddd\n      eq\n      tag_7\n      jumpi\n    tag_2:\n      0x00\n      dup1\n      revert\n        /* \"minerpunk/ERC721A/ERC721A.sol\":6049:6354  function supportsInterface(bytes4 interfaceId) public view virtual override(ERC165, IERC165) returns (bool) {... */\n    tag_3:\n      tag_27\n      0x04\n      dup1\n      calldatasize\n      sub\n      dup2\n      add\n      swap1\n      tag_28\n      swap2\n      swap1\n      tag_29\n      jump\t// in\n    tag_28:\n      tag_30\n      jump\t// in\n    tag_27:\n      mload(0x40)\n      tag_31\n      swap2\n      swap1\n      tag_32\n      jump\t// in\n    tag_31:\n      mload(0x40)\n      dup1\n      swap2\n      sub\n      swap1\n      return\n        /* \"minerpunk/ERC721A/ERC721A.sol\":9165:9265  function name() public view virtual override returns (string memory) {... */\n    tag_4:\n      tag_33\n      tag_34\n      jump\t// in\n    tag_33:\n      mload(0x40)\n      tag_35\n      swap2\n      swap1\n      tag_36\n      jump\t// in\n    tag_35:\n      mload(0x40)\n      dup1\n      swap2\n      sub\n      swap1\n      return\n        /* \"minerpunk/ERC721A/ERC721A.sol\":10760:10964  function getApproved(uint256 tokenId) public view override returns (address) {... */\n    tag_5:\n      tag_37\n      0x04\n      dup1\n      calldatasize\n      sub\n      dup2\n      add\n      swap1\n      tag_38\n      swap2\n      swap1\n      tag_39\n      jump\t// in\n    tag_38:\n      tag_40\n      jump\t// in\n    tag_37:\n      mload(0x40)\n      tag_41\n      swap2\n      swap1\n      tag_42\n      jump\t// in\n    tag_41:\n      mload(0x40)\n      dup1\n      swap2\n      sub\n      swap1\n      return\n        /* \"minerpunk/ERC721A/ERC721A.sol\":10322:10694  function approve(address to, uint256 tokenId) public override {... */\n    tag_6:\n      tag_43\n      0x04\n      dup1\n      calldatasize\n      sub\n      dup2\n      add\n      swap1\n      tag_44\n      swap2\n      swap1\n      tag_45\n      jump\t// in\n    tag_44:\n      tag_46\n      jump\t// in\n    tag_43:\n      stop\n        /* \"minerpunk/ERC721A/ERC721A.sol\":4760:5072  function totalSupply() public view override returns (uint256) {... */\n    tag_7:\n      tag_47\n      tag_48\n      jump\t// in\n    tag_47:\n      mload(0x40)\n      tag_49\n      swap2\n      swap1\n      tag_50\n      jump\t// in\n    tag_49:\n      mload(0x40)\n      dup1\n      swap2\n      sub\n      swap1\n      return\n        /* \"minerpunk/ERC721A/ERC721A.sol\":11625:11795  function transferFrom(... */\n    tag_8:\n      tag_51\n      0x04\n      dup1\n      calldatasize\n      sub\n      dup2\n      add\n      swap1\n      tag_52\n      swap2\n      swap1\n      tag_53\n      jump\t// in\n    tag_52:\n      tag_54\n      jump\t// in\n    tag_51:\n      stop\n        /* \"minerpunk/ERC721A/ERC721A.sol\":11866:12051  function safeTransferFrom(... */\n    tag_9:\n      tag_55\n      0x04\n      dup1\n      calldatasize\n      sub\n      dup2\n      add\n      swap1\n      tag_56\n      swap2\n      swap1\n      tag_53\n      jump\t// in\n    tag_56:\n      tag_57\n      jump\t// in\n    tag_55:\n      stop\n        /* \"minerpunk/ERC721A/ERC721A.sol\":3452:3863  function blockStatus (uint256 _BlockNumber)public view override returns (uint256){... */\n    tag_10:\n      tag_58\n      0x04\n      dup1\n      calldatasize\n      sub\n      dup2\n      add\n      swap1\n      tag_59\n      swap2\n      swap1\n      tag_39\n      jump\t// in\n    tag_59:\n      tag_60\n      jump\t// in\n    tag_58:\n      mload(0x40)\n      tag_61\n      swap2\n      swap1\n      tag_50\n      jump\t// in\n    tag_61:\n      mload(0x40)\n      dup1\n      swap2\n      sub\n      swap1\n      return\n        /* \"minerpunk/ERC721A/ERC721A.sol\":8973:9098  function ownerOf(uint256 tokenId) public view override returns (address) {... */\n    tag_11:\n      tag_62\n      0x04\n      dup1\n      calldatasize\n      sub\n      dup2\n      add\n      swap1\n      tag_63\n      swap2\n      swap1\n      tag_39\n      jump\t// in\n    tag_63:\n      tag_64\n      jump\t// in\n    tag_62:\n      mload(0x40)\n      tag_65\n      swap2\n      swap1\n      tag_42\n      jump\t// in\n    tag_65:\n      mload(0x40)\n      dup1\n      swap2\n      sub\n      swap1\n      return\n        /* \"minerpunk/ERC721A/ERC721A.sol\":6418:6624  function balanceOf(address owner) public view override returns (uint256) {... */\n    tag_12:\n      tag_66\n      0x04\n      dup1\n      calldatasize\n      sub\n      dup2\n      add\n      swap1\n      tag_67\n      swap2\n      swap1\n      tag_68\n      jump\t// in\n    tag_67:\n      tag_69\n      jump\t// in\n    tag_66:\n      mload(0x40)\n      tag_70\n      swap2\n      swap1\n      tag_50\n      jump\t// in\n    tag_70:\n      mload(0x40)\n      dup1\n      swap2\n      sub\n      swap1\n      return\n        /* \"minerpunk/ERC721A/ERC721A.sol\":9334:9438  function symbol() public view virtual override returns (string memory) {... */\n    tag_13:\n      tag_71\n      tag_72\n      jump\t// in\n    tag_71:\n      mload(0x40)\n      tag_73\n      swap2\n      swap1\n      tag_36\n      jump\t// in\n    tag_73:\n      mload(0x40)\n      dup1\n      swap2\n      sub\n      swap1\n      return\n        /* \"minerpunk/ERC721A/ERC721A.sol\":11036:11323  function setApprovalForAll(address operator, bool approved) public virtual override {... */\n    tag_14:\n      tag_74\n      0x04\n      dup1\n      calldatasize\n      sub\n      dup2\n      add\n      swap1\n      tag_75\n      swap2\n      swap1\n      tag_76\n      jump\t// in\n    tag_75:\n      tag_77\n      jump\t// in\n    tag_74:\n      stop\n        /* \"minerpunk/ERC721A/ERC721A.sol\":12122:12492  function safeTransferFrom(... */\n    tag_15:\n      tag_78\n      0x04\n      dup1\n      calldatasize\n      sub\n      dup2\n      add\n      swap1\n      tag_79\n      swap2\n      swap1\n      tag_80\n      jump\t// in\n    tag_79:\n      tag_81\n      jump\t// in\n    tag_78:\n      stop\n        /* \"minerpunk/ERC721A/ERC721A.sol\":2831:3381  function MineStatus(address user)public view override returns(uint256){      ... */\n    tag_16:\n      tag_82\n      0x04\n      dup1\n      calldatasize\n      sub\n      dup2\n      add\n      swap1\n      tag_83\n      swap2\n      swap1\n      tag_68\n      jump\t// in\n    tag_83:\n      tag_84\n      jump\t// in\n    tag_82:\n      mload(0x40)\n      tag_85\n      swap2\n      swap1\n      tag_50\n      jump\t// in\n    tag_85:\n      mload(0x40)\n      dup1\n      swap2\n      sub\n      swap1\n      return\n        /* \"minerpunk/ERC721A/ERC721A.sol\":9509:9827  function tokenURI(uint256 tokenId) public view virtual override returns (string memory) {... */\n    tag_17:\n      tag_86\n      0x04\n      dup1\n      calldatasize\n      sub\n      dup2\n      add\n      swap1\n      tag_87\n      swap2\n      swap1\n      tag_39\n      jump\t// in\n    tag_87:\n      tag_88\n      jump\t// in\n    tag_86:\n      mload(0x40)\n      tag_89\n      swap2\n      swap1\n      tag_36\n      jump\t// in\n    tag_89:\n      mload(0x40)\n      dup1\n      swap2\n      sub\n      swap1\n      return\n        /* \"minerpunk/ERC721A/ERC721A.sol\":5237:5401  function maxSupply() public view  returns (uint256) {       ... */\n    tag_18:\n      tag_90\n      tag_91\n      jump\t// in\n    tag_90:\n      mload(0x40)\n      tag_92\n      swap2\n      swap1\n      tag_50\n      jump\t// in\n    tag_92:\n      mload(0x40)\n      dup1\n      swap2\n      sub\n      swap1\n      return\n        /* \"minerpunk/ERC721A/ERC721A.sol\":3873:4107  function difficult(uint _BlockNumber)public view override returns (uint256){... */\n    tag_19:\n      tag_93\n      0x04\n      dup1\n      calldatasize\n      sub\n      dup2\n      add\n      swap1\n      tag_94\n      swap2\n      swap1\n      tag_39\n      jump\t// in\n    tag_94:\n      tag_95\n      jump\t// in\n    tag_93:\n      mload(0x40)\n      tag_96\n      swap2\n      swap1\n      tag_50\n      jump\t// in\n    tag_96:\n      mload(0x40)\n      dup1\n      swap2\n      sub\n      swap1\n      return\n        /* \"minerpunk/ERC721A/ERC721A.sol\":5082:5227  function totalPower() public view  returns (uint256) {       ... */\n    tag_20:\n      tag_97\n      tag_98\n      jump\t// in\n    tag_97:\n      mload(0x40)\n      tag_99\n      swap2\n      swap1\n      tag_50\n      jump\t// in\n    tag_99:\n      mload(0x40)\n      dup1\n      swap2\n      sub\n      swap1\n      return\n        /* \"minerpunk/ERC721A/ERC721A.sol\":4126:4418  function tokenIDPower (uint256 tokenId)public view override returns(uint256){        ... */\n    tag_21:\n      tag_100\n      0x04\n      dup1\n      calldatasize\n      sub\n      dup2\n      add\n      swap1\n      tag_101\n      swap2\n      swap1\n      tag_39\n      jump\t// in\n    tag_101:\n      tag_102\n      jump\t// in\n    tag_100:\n      mload(0x40)\n      tag_103\n      swap2\n      swap1\n      tag_50\n      jump\t// in\n    tag_103:\n      mload(0x40)\n      dup1\n      swap2\n      sub\n      swap1\n      return\n        /* \"minerpunk/ERC721A/ERC721A.sol\":11394:11558  function isApprovedForAll(address owner, address operator) public view virtual override returns (bool) {... */\n    tag_22:\n      tag_104\n      0x04\n      dup1\n      calldatasize\n      sub\n      dup2\n      add\n      swap1\n      tag_105\n      swap2\n      swap1\n      tag_106\n      jump\t// in\n    tag_105:\n      tag_107\n      jump\t// in\n    tag_104:\n      mload(0x40)\n      tag_108\n      swap2\n      swap1\n      tag_32\n      jump\t// in\n    tag_108:\n      mload(0x40)\n      dup1\n      swap2\n      sub\n      swap1\n      return\n        /* \"minerpunk/ERC721A/ERC721A.sol\":5418:5589  function mineInfo(address user, uint256 number) public view  returns (uint256) {       ... */\n    tag_23:\n      tag_109\n      0x04\n      dup1\n      calldatasize\n      sub\n      dup2\n      add\n      swap1\n      tag_110\n      swap2\n      swap1\n      tag_45\n      jump\t// in\n    tag_110:\n      tag_111\n      jump\t// in\n    tag_109:\n      mload(0x40)\n      tag_112\n      swap2\n      swap1\n      tag_50\n      jump\t// in\n    tag_112:\n      mload(0x40)\n      dup1\n      swap2\n      sub\n      swap1\n      return\n        /* \"minerpunk/ERC721A/ERC721A.sol\":6049:6354  function supportsInterface(bytes4 interfaceId) public view virtual override(ERC165, IERC165) returns (bool) {... */\n    tag_30:\n        /* \"minerpunk/ERC721A/ERC721A.sol\":6151:6155  bool */\n      0x00\n        /* \"minerpunk/ERC721A/ERC721A.sol\":6203:6228  type(IERC721).interfaceId */\n      0x80ac58cd00000000000000000000000000000000000000000000000000000000\n        /* \"minerpunk/ERC721A/ERC721A.sol\":6188:6228  interfaceId == type(IERC721).interfaceId */\n      not(0xffffffffffffffffffffffffffffffffffffffffffffffffffffffff)\n      and\n        /* \"minerpunk/ERC721A/ERC721A.sol\":6188:6199  interfaceId */\n      dup3\n        /* \"minerpunk/ERC721A/ERC721A.sol\":6188:6228  interfaceId == type(IERC721).interfaceId */\n      not(0xffffffffffffffffffffffffffffffffffffffffffffffffffffffff)\n      and\n      eq\n        /* \"minerpunk/ERC721A/ERC721A.sol\":6188:6293  interfaceId == type(IERC721).interfaceId ||... */\n      dup1\n      tag_114\n      jumpi\n      pop\n        /* \"minerpunk/ERC721A/ERC721A.sol\":6260:6293  type(IERC721Metadata).interfaceId */\n      0x5b5e139f00000000000000000000000000000000000000000000000000000000\n        /* \"minerpunk/ERC721A/ERC721A.sol\":6245:6293  interfaceId == type(IERC721Metadata).interfaceId */\n      not(0xffffffffffffffffffffffffffffffffffffffffffffffffffffffff)\n      and\n        /* \"minerpunk/ERC721A/ERC721A.sol\":6245:6256  interfaceId */\n      dup3\n        /* \"minerpunk/ERC721A/ERC721A.sol\":6245:6293  interfaceId == type(IERC721Metadata).interfaceId */\n      not(0xffffffffffffffffffffffffffffffffffffffffffffffffffffffff)\n      and\n      eq\n        /* \"minerpunk/ERC721A/ERC721A.sol\":6188:6293  interfaceId == type(IERC721).interfaceId ||... */\n    tag_114:\n        /* \"minerpunk/ERC721A/ERC721A.sol\":6188:6346  interfaceId == type(IERC721).interfaceId ||... */\n      dup1\n      tag_115\n      jumpi\n      pop\n        /* \"minerpunk/ERC721A/ERC721A.sol\":6310:6346  super.supportsInterface(interfaceId) */\n      tag_116\n        /* \"minerpunk/ERC721A/ERC721A.sol\":6334:6345  interfaceId */\n      dup3\n        /* \"minerpunk/ERC721A/ERC721A.sol\":6310:6333  super.supportsInterface */\n      tag_117\n        /* \"minerpunk/ERC721A/ERC721A.sol\":6310:6346  super.supportsInterface(interfaceId) */\n      jump\t// in\n    tag_116:\n        /* \"minerpunk/ERC721A/ERC721A.sol\":6188:6346  interfaceId == type(IERC721).interfaceId ||... */\n    tag_115:\n        /* \"minerpunk/ERC721A/ERC721A.sol\":6168:6346  return... */\n      swap1\n      pop\n        /* \"minerpunk/ERC721A/ERC721A.sol\":6049:6354  function supportsInterface(bytes4 interfaceId) public view virtual override(ERC165, IERC165) returns (bool) {... */\n      swap2\n      swap1\n      pop\n      jump\t// out\n        /* \"minerpunk/ERC721A/ERC721A.sol\":9165:9265  function name() public view virtual override returns (string memory) {... */\n    tag_34:\n        /* \"minerpunk/ERC721A/ERC721A.sol\":9219:9232  string memory */\n      0x60\n        /* \"minerpunk/ERC721A/ERC721A.sol\":9252:9257  _name */\n      0x07\n        /* \"minerpunk/ERC721A/ERC721A.sol\":9245:9257  return _name */\n      dup1\n      sload\n      tag_119\n      swap1\n      tag_120\n      jump\t// in\n    tag_119:\n      dup1\n      0x1f\n      add\n      0x20\n      dup1\n      swap2\n      div\n      mul\n      0x20\n      add\n      mload(0x40)\n      swap1\n      dup2\n      add\n      0x40\n      mstore\n      dup1\n      swap3\n      swap2\n      swap1\n      dup2\n      dup2\n      mstore\n      0x20\n      add\n      dup3\n      dup1\n      sload\n      tag_121\n      swap1\n      tag_120\n      jump\t// in\n    tag_121:\n      dup1\n      iszero\n      tag_122\n      jumpi\n      dup1\n      0x1f\n      lt\n      tag_123\n      jumpi\n      0x0100\n      dup1\n      dup4\n      sload\n      div\n      mul\n      dup4\n      mstore\n      swap2\n      0x20\n      add\n      swap2\n      jump(tag_122)\n    tag_123:\n      dup3\n      add\n      swap2\n      swap1\n      0x00\n      mstore\n      keccak256(0x00, 0x20)\n      swap1\n    tag_124:\n      dup2\n      sload\n      dup2\n      mstore\n      swap1\n      0x01\n      add\n      swap1\n      0x20\n      add\n      dup1\n      dup4\n      gt\n      tag_124\n      jumpi\n      dup3\n      swap1\n      sub\n      0x1f\n      and\n      dup3\n      add\n      swap2\n    tag_122:\n      pop\n      pop\n      pop\n      pop\n      pop\n      swap1\n      pop\n        /* \"minerpunk/ERC721A/ERC721A.sol\":9165:9265  function name() public view virtual override returns (string memory) {... */\n      swap1\n      jump\t// out\n        /* \"minerpunk/ERC721A/ERC721A.sol\":10760:10964  function getApproved(uint256 tokenId) public view override returns (address) {... */\n    tag_40:\n        /* \"minerpunk/ERC721A/ERC721A.sol\":10828:10835  address */\n      0x00\n        /* \"minerpunk/ERC721A/ERC721A.sol\":10853:10869  _exists(tokenId) */\n      tag_126\n        /* \"minerpunk/ERC721A/ERC721A.sol\":10861:10868  tokenId */\n      dup3\n        /* \"minerpunk/ERC721A/ERC721A.sol\":10853:10860  _exists */\n      tag_127\n        /* \"minerpunk/ERC721A/ERC721A.sol\":10853:10869  _exists(tokenId) */\n      jump\t// in\n    tag_126:\n        /* \"minerpunk/ERC721A/ERC721A.sol\":10848:10912  if (!_exists(tokenId)) revert ApprovalQueryForNonexistentToken() */\n      tag_128\n      jumpi\n        /* \"minerpunk/ERC721A/ERC721A.sol\":10878:10912  ApprovalQueryForNonexistentToken() */\n      mload(0x40)\n      0xcf4700e400000000000000000000000000000000000000000000000000000000\n      dup2\n      mstore\n      0x04\n      add\n      mload(0x40)\n      dup1\n      swap2\n      sub\n      swap1\n      revert\n        /* \"minerpunk/ERC721A/ERC721A.sol\":10848:10912  if (!_exists(tokenId)) revert ApprovalQueryForNonexistentToken() */\n    tag_128:\n        /* \"minerpunk/ERC721A/ERC721A.sol\":10932:10947  _tokenApprovals */\n      0x0b\n        /* \"minerpunk/ERC721A/ERC721A.sol\":10932:10956  _tokenApprovals[tokenId] */\n      0x00\n        /* \"minerpunk/ERC721A/ERC721A.sol\":10948:10955  tokenId */\n      dup4\n        /* \"minerpunk/ERC721A/ERC721A.sol\":10932:10956  _tokenApprovals[tokenId] */\n      dup2\n      mstore\n      0x20\n      add\n      swap1\n      dup2\n      mstore\n      0x20\n      add\n      0x00\n      keccak256\n      0x00\n      swap1\n      sload\n      swap1\n      0x0100\n      exp\n      swap1\n      div\n      0xffffffffffffffffffffffffffffffffffffffff\n      and\n        /* \"minerpunk/ERC721A/ERC721A.sol\":10925:10956  return _tokenApprovals[tokenId] */\n      swap1\n      pop\n        /* \"minerpunk/ERC721A/ERC721A.sol\":10760:10964  function getApproved(uint256 tokenId) public view override returns (address) {... */\n      swap2\n      swap1\n      pop\n      jump\t// out\n        /* \"minerpunk/ERC721A/ERC721A.sol\":10322:10694  function approve(address to, uint256 tokenId) public override {... */\n    tag_46:\n        /* \"minerpunk/ERC721A/ERC721A.sol\":10395:10408  address owner */\n      0x00\n        /* \"minerpunk/ERC721A/ERC721A.sol\":10411:10435  ERC721A.ownerOf(tokenId) */\n      tag_130\n        /* \"minerpunk/ERC721A/ERC721A.sol\":10427:10434  tokenId */\n      dup3\n        /* \"minerpunk/ERC721A/ERC721A.sol\":10411:10426  ERC721A.ownerOf */\n      tag_64\n        /* \"minerpunk/ERC721A/ERC721A.sol\":10411:10435  ERC721A.ownerOf(tokenId) */\n      jump\t// in\n    tag_130:\n        /* \"minerpunk/ERC721A/ERC721A.sol\":10395:10435  address owner = ERC721A.ownerOf(tokenId) */\n      swap1\n      pop\n        /* \"minerpunk/ERC721A/ERC721A.sol\":10456:10461  owner */\n      dup1\n        /* \"minerpunk/ERC721A/ERC721A.sol\":10450:10461  to == owner */\n      0xffffffffffffffffffffffffffffffffffffffff\n      and\n        /* \"minerpunk/ERC721A/ERC721A.sol\":10450:10452  to */\n      dup4\n        /* \"minerpunk/ERC721A/ERC721A.sol\":10450:10461  to == owner */\n      0xffffffffffffffffffffffffffffffffffffffff\n      and\n      sub\n        /* \"minerpunk/ERC721A/ERC721A.sol\":10446:10494  if (to == owner) revert ApprovalToCurrentOwner() */\n      tag_131\n      jumpi\n        /* \"minerpunk/ERC721A/ERC721A.sol\":10470:10494  ApprovalToCurrentOwner() */\n      mload(0x40)\n      0x943f7b8c00000000000000000000000000000000000000000000000000000000\n      dup2\n      mstore\n      0x04\n      add\n      mload(0x40)\n      dup1\n      swap2\n      sub\n      swap1\n      revert\n        /* \"minerpunk/ERC721A/ERC721A.sol\":10446:10494  if (to == owner) revert ApprovalToCurrentOwner() */\n    tag_131:\n        /* \"minerpunk/ERC721A/ERC721A.sol\":10527:10532  owner */\n      dup1\n        /* \"minerpunk/ERC721A/ERC721A.sol\":10511:10532  _msgSender() != owner */\n      0xffffffffffffffffffffffffffffffffffffffff\n      and\n        /* \"minerpunk/ERC721A/ERC721A.sol\":10511:10523  _msgSender() */\n      tag_132\n        /* \"minerpunk/ERC721A/ERC721A.sol\":10511:10521  _msgSender */\n      tag_133\n        /* \"minerpunk/ERC721A/ERC721A.sol\":10511:10523  _msgSender() */\n      jump\t// in\n    tag_132:\n        /* \"minerpunk/ERC721A/ERC721A.sol\":10511:10532  _msgSender() != owner */\n      0xffffffffffffffffffffffffffffffffffffffff\n      and\n      eq\n        /* \"minerpunk/ERC721A/ERC721A.sol\":10507:10646  if (_msgSender() != owner) if(!isApprovedForAll(owner, _msgSender())) {... */\n      tag_134\n      jumpi\n        /* \"minerpunk/ERC721A/ERC721A.sol\":10538:10575  isApprovedForAll(owner, _msgSender()) */\n      tag_135\n        /* \"minerpunk/ERC721A/ERC721A.sol\":10555:10560  owner */\n      dup2\n        /* \"minerpunk/ERC721A/ERC721A.sol\":10562:10574  _msgSender() */\n      tag_136\n        /* \"minerpunk/ERC721A/ERC721A.sol\":10562:10572  _msgSender */\n      tag_133\n        /* \"minerpunk/ERC721A/ERC721A.sol\":10562:10574  _msgSender() */\n      jump\t// in\n    tag_136:\n        /* \"minerpunk/ERC721A/ERC721A.sol\":10538:10554  isApprovedForAll */\n      tag_107\n        /* \"minerpunk/ERC721A/ERC721A.sol\":10538:10575  isApprovedForAll(owner, _msgSender()) */\n      jump\t// in\n    tag_135:\n        /* \"minerpunk/ERC721A/ERC721A.sol\":10534:10646  if(!isApprovedForAll(owner, _msgSender())) {... */\n      tag_137\n      jumpi\n        /* \"minerpunk/ERC721A/ERC721A.sol\":10599:10634  ApprovalCallerNotOwnerNorApproved() */\n      mload(0x40)\n      0xcfb3b94200000000000000000000000000000000000000000000000000000000\n      dup2\n      mstore\n      0x04\n      add\n      mload(0x40)\n      dup1\n      swap2\n      sub\n      swap1\n      revert\n        /* \"minerpunk/ERC721A/ERC721A.sol\":10534:10646  if(!isApprovedForAll(owner, _msgSender())) {... */\n    tag_137:\n        /* \"minerpunk/ERC721A/ERC721A.sol\":10507:10646  if (_msgSender() != owner) if(!isApprovedForAll(owner, _msgSender())) {... */\n    tag_134:\n        /* \"minerpunk/ERC721A/ERC721A.sol\":10658:10686  _approve(to, tokenId, owner) */\n      tag_138\n        /* \"minerpunk/ERC721A/ERC721A.sol\":10667:10669  to */\n      dup4\n        /* \"minerpunk/ERC721A/ERC721A.sol\":10671:10678  tokenId */\n      dup4\n        /* \"minerpunk/ERC721A/ERC721A.sol\":10680:10685  owner */\n      dup4\n        /* \"minerpunk/ERC721A/ERC721A.sol\":10658:10666  _approve */\n      tag_139\n        /* \"minerpunk/ERC721A/ERC721A.sol\":10658:10686  _approve(to, tokenId, owner) */\n      jump\t// in\n    tag_138:\n        /* \"minerpunk/ERC721A/ERC721A.sol\":10384:10694  {... */\n      pop\n        /* \"minerpunk/ERC721A/ERC721A.sol\":10322:10694  function approve(address to, uint256 tokenId) public override {... */\n      pop\n      pop\n      jump\t// out\n        /* \"minerpunk/ERC721A/ERC721A.sol\":4760:5072  function totalSupply() public view override returns (uint256) {... */\n    tag_48:\n        /* \"minerpunk/ERC721A/ERC721A.sol\":4813:4820  uint256 */\n      0x00\n        /* \"minerpunk/ERC721A/ERC721A.sol\":5038:5053  _startTokenId() */\n      tag_141\n        /* \"minerpunk/ERC721A/ERC721A.sol\":5038:5051  _startTokenId */\n      tag_142\n        /* \"minerpunk/ERC721A/ERC721A.sol\":5038:5053  _startTokenId() */\n      jump\t// in\n    tag_141:\n        /* \"minerpunk/ERC721A/ERC721A.sol\":5023:5035  _burnCounter */\n      sload(0x06)\n        /* \"minerpunk/ERC721A/ERC721A.sol\":5007:5020  _currentIndex */\n      sload(0x04)\n        /* \"minerpunk/ERC721A/ERC721A.sol\":5007:5035  _currentIndex - _burnCounter */\n      sub\n        /* \"minerpunk/ERC721A/ERC721A.sol\":5007:5053  _currentIndex - _burnCounter - _startTokenId() */\n      sub\n        /* \"minerpunk/ERC721A/ERC721A.sol\":5000:5053  return _currentIndex - _burnCounter - _startTokenId() */\n      swap1\n      pop\n        /* \"minerpunk/ERC721A/ERC721A.sol\":4760:5072  function totalSupply() public view override returns (uint256) {... */\n      swap1\n      jump\t// out\n        /* \"minerpunk/ERC721A/ERC721A.sol\":11625:11795  function transferFrom(... */\n    tag_54:\n        /* \"minerpunk/ERC721A/ERC721A.sol\":11759:11787  _transfer(from, to, tokenId) */\n      tag_144\n        /* \"minerpunk/ERC721A/ERC721A.sol\":11769:11773  from */\n      dup4\n        /* \"minerpunk/ERC721A/ERC721A.sol\":11775:11777  to */\n      dup4\n        /* \"minerpunk/ERC721A/ERC721A.sol\":11779:11786  tokenId */\n      dup4\n        /* \"minerpunk/ERC721A/ERC721A.sol\":11759:11768  _transfer */\n      tag_145\n        /* \"minerpunk/ERC721A/ERC721A.sol\":11759:11787  _transfer(from, to, tokenId) */\n      jump\t// in\n    tag_144:\n        /* \"minerpunk/ERC721A/ERC721A.sol\":11625:11795  function transferFrom(... */\n      pop\n      pop\n      pop\n      jump\t// out\n        /* \"minerpunk/ERC721A/ERC721A.sol\":11866:12051  function safeTransferFrom(... */\n    tag_57:\n        /* \"minerpunk/ERC721A/ERC721A.sol\":12004:12043  safeTransferFrom(from, to, tokenId, '') */\n      tag_147\n        /* \"minerpunk/ERC721A/ERC721A.sol\":12021:12025  from */\n      dup4\n        /* \"minerpunk/ERC721A/ERC721A.sol\":12027:12029  to */\n      dup4\n        /* \"minerpunk/ERC721A/ERC721A.sol\":12031:12038  tokenId */\n      dup4\n        /* \"minerpunk/ERC721A/ERC721A.sol\":12004:12043  safeTransferFrom(from, to, tokenId, '') */\n      mload(0x40)\n      dup1\n      0x20\n      add\n      0x40\n      mstore\n      dup1\n      0x00\n      dup2\n      mstore\n      pop\n        /* \"minerpunk/ERC721A/ERC721A.sol\":12004:12020  safeTransferFrom */\n      tag_81\n        /* \"minerpunk/ERC721A/ERC721A.sol\":12004:12043  safeTransferFrom(from, to, tokenId, '') */\n      jump\t// in\n    tag_147:\n        /* \"minerpunk/ERC721A/ERC721A.sol\":11866:12051  function safeTransferFrom(... */\n      pop\n      pop\n      pop\n      jump\t// out\n        /* \"minerpunk/ERC721A/ERC721A.sol\":3452:3863  function blockStatus (uint256 _BlockNumber)public view override returns (uint256){... */\n    tag_60:\n        /* \"minerpunk/ERC721A/ERC721A.sol\":3525:3532  uint256 */\n      0x00\n        /* \"minerpunk/ERC721A/ERC721A.sol\":3562:3579  _startBlockNumber */\n      sload(0x02)\n        /* \"minerpunk/ERC721A/ERC721A.sol\":3547:3559  _BlockNumber */\n      dup3\n        /* \"minerpunk/ERC721A/ERC721A.sol\":3547:3579  _BlockNumber < _startBlockNumber */\n      lt\n        /* \"minerpunk/ERC721A/ERC721A.sol\":3544:3639  if(_BlockNumber < _startBlockNumber){... */\n      iszero\n      tag_149\n      jumpi\n        /* \"minerpunk/ERC721A/ERC721A.sol\":3610:3627  _startBlockNumber */\n      sload(0x02)\n        /* \"minerpunk/ERC721A/ERC721A.sol\":3595:3627  _BlockNumber = _startBlockNumber */\n      swap2\n      pop\n        /* \"minerpunk/ERC721A/ERC721A.sol\":3544:3639  if(_BlockNumber < _startBlockNumber){... */\n    tag_149:\n        /* \"minerpunk/ERC721A/ERC721A.sol\":3649:3668  uint256 DCFperBlock */\n      0x00\n        /* \"minerpunk/ERC721A/ERC721A.sol\":3671:3695  _TokenperBlock.mul(1e54) */\n      tag_150\n        /* \"minerpunk/ERC721A/ERC721A.sol\":3690:3694  1e54 */\n      0x0a70c3c40a64e6c51999090b65f67d9240000000000000\n        /* \"minerpunk/ERC721A/ERC721A.sol\":3671:3685  _TokenperBlock */\n      sload(0x01)\n        /* \"minerpunk/ERC721A/ERC721A.sol\":3671:3689  _TokenperBlock.mul */\n      tag_151\n      swap1\n        /* \"minerpunk/ERC721A/ERC721A.sol\":3671:3695  _TokenperBlock.mul(1e54) */\n      swap2\n      swap1\n      0xffffffff\n      and\n      jump\t// in\n    tag_150:\n        /* \"minerpunk/ERC721A/ERC721A.sol\":3649:3695  uint256 DCFperBlock = _TokenperBlock.mul(1e54) */\n      swap1\n      pop\n        /* \"minerpunk/ERC721A/ERC721A.sol\":3717:3739  uint256 BlockDifficult */\n      0x00\n        /* \"minerpunk/ERC721A/ERC721A.sol\":3742:3765  difficult(_BlockNumber) */\n      tag_152\n        /* \"minerpunk/ERC721A/ERC721A.sol\":3752:3764  _BlockNumber */\n      dup5\n        /* \"minerpunk/ERC721A/ERC721A.sol\":3742:3751  difficult */\n      tag_95\n        /* \"minerpunk/ERC721A/ERC721A.sol\":3742:3765  difficult(_BlockNumber) */\n      jump\t// in\n    tag_152:\n        /* \"minerpunk/ERC721A/ERC721A.sol\":3717:3765  uint256 BlockDifficult = difficult(_BlockNumber) */\n      swap1\n      pop\n        /* \"minerpunk/ERC721A/ERC721A.sol\":3781:3794  uint256 DugUP */\n      0x00\n        /* \"minerpunk/ERC721A/ERC721A.sol\":3797:3828  DCFperBlock.div(BlockDifficult) */\n      tag_153\n        /* \"minerpunk/ERC721A/ERC721A.sol\":3813:3827  BlockDifficult */\n      dup3\n        /* \"minerpunk/ERC721A/ERC721A.sol\":3797:3808  DCFperBlock */\n      dup5\n        /* \"minerpunk/ERC721A/ERC721A.sol\":3797:3812  DCFperBlock.div */\n      tag_154\n      swap1\n        /* \"minerpunk/ERC721A/ERC721A.sol\":3797:3828  DCFperBlock.div(BlockDifficult) */\n      swap2\n      swap1\n      0xffffffff\n      and\n      jump\t// in\n    tag_153:\n        /* \"minerpunk/ERC721A/ERC721A.sol\":3781:3828  uint256 DugUP = DCFperBlock.div(BlockDifficult) */\n      swap1\n      pop\n        /* \"minerpunk/ERC721A/ERC721A.sol\":3846:3851  DugUP */\n      dup1\n        /* \"minerpunk/ERC721A/ERC721A.sol\":3839:3851  return DugUP */\n      swap4\n      pop\n      pop\n      pop\n      pop\n        /* \"minerpunk/ERC721A/ERC721A.sol\":3452:3863  function blockStatus (uint256 _BlockNumber)public view override returns (uint256){... */\n      swap2\n      swap1\n      pop\n      jump\t// out\n        /* \"minerpunk/ERC721A/ERC721A.sol\":8973:9098  function ownerOf(uint256 tokenId) public view override returns (address) {... */\n    tag_64:\n        /* \"minerpunk/ERC721A/ERC721A.sol\":9037:9044  address */\n      0x00\n        /* \"minerpunk/ERC721A/ERC721A.sol\":9064:9085  _ownershipOf(tokenId) */\n      tag_156\n        /* \"minerpunk/ERC721A/ERC721A.sol\":9077:9084  tokenId */\n      dup3\n        /* \"minerpunk/ERC721A/ERC721A.sol\":9064:9076  _ownershipOf */\n      tag_157\n        /* \"minerpunk/ERC721A/ERC721A.sol\":9064:9085  _ownershipOf(tokenId) */\n      jump\t// in\n    tag_156:\n        /* \"minerpunk/ERC721A/ERC721A.sol\":9064:9090  _ownershipOf(tokenId).addr */\n      0x00\n      add\n      mload\n        /* \"minerpunk/ERC721A/ERC721A.sol\":9057:9090  return _ownershipOf(tokenId).addr */\n      swap1\n      pop\n        /* \"minerpunk/ERC721A/ERC721A.sol\":8973:9098  function ownerOf(uint256 tokenId) public view override returns (address) {... */\n      swap2\n      swap1\n      pop\n      jump\t// out\n        /* \"minerpunk/ERC721A/ERC721A.sol\":6418:6624  function balanceOf(address owner) public view override returns (uint256) {... */\n    tag_69:\n        /* \"minerpunk/ERC721A/ERC721A.sol\":6482:6489  uint256 */\n      0x00\n        /* \"minerpunk/ERC721A/ERC721A.sol\":6523:6524  0 */\n      dup1\n        /* \"minerpunk/ERC721A/ERC721A.sol\":6506:6525  owner == address(0) */\n      0xffffffffffffffffffffffffffffffffffffffff\n      and\n        /* \"minerpunk/ERC721A/ERC721A.sol\":6506:6511  owner */\n      dup3\n        /* \"minerpunk/ERC721A/ERC721A.sol\":6506:6525  owner == address(0) */\n      0xffffffffffffffffffffffffffffffffffffffff\n      and\n      sub\n        /* \"minerpunk/ERC721A/ERC721A.sol\":6502:6562  if (owner == address(0)) revert BalanceQueryForZeroAddress() */\n      tag_159\n      jumpi\n        /* \"minerpunk/ERC721A/ERC721A.sol\":6534:6562  BalanceQueryForZeroAddress() */\n      mload(0x40)\n      0x8f4eb60400000000000000000000000000000000000000000000000000000000\n      dup2\n      mstore\n      0x04\n      add\n      mload(0x40)\n      dup1\n      swap2\n      sub\n      swap1\n      revert\n        /* \"minerpunk/ERC721A/ERC721A.sol\":6502:6562  if (owner == address(0)) revert BalanceQueryForZeroAddress() */\n    tag_159:\n        /* \"minerpunk/ERC721A/ERC721A.sol\":6588:6600  _addressData */\n      0x0a\n        /* \"minerpunk/ERC721A/ERC721A.sol\":6588:6607  _addressData[owner] */\n      0x00\n        /* \"minerpunk/ERC721A/ERC721A.sol\":6601:6606  owner */\n      dup4\n        /* \"minerpunk/ERC721A/ERC721A.sol\":6588:6607  _addressData[owner] */\n      0xffffffffffffffffffffffffffffffffffffffff\n      and\n      0xffffffffffffffffffffffffffffffffffffffff\n      and\n      dup2\n      mstore\n      0x20\n      add\n      swap1\n      dup2\n      mstore\n      0x20\n      add\n      0x00\n      keccak256\n        /* \"minerpunk/ERC721A/ERC721A.sol\":6588:6615  _addressData[owner].balance */\n      0x00\n      add\n      0x00\n      swap1\n      sload\n      swap1\n      0x0100\n      exp\n      swap1\n      div\n      0xffffffffffffffff\n      and\n        /* \"minerpunk/ERC721A/ERC721A.sol\":6580:6616  uint256(_addressData[owner].balance) */\n      0xffffffffffffffff\n      and\n        /* \"minerpunk/ERC721A/ERC721A.sol\":6573:6616  return uint256(_addressData[owner].balance) */\n      swap1\n      pop\n        /* \"minerpunk/ERC721A/ERC721A.sol\":6418:6624  function balanceOf(address owner) public view override returns (uint256) {... */\n      swap2\n      swap1\n      pop\n      jump\t// out\n        /* \"minerpunk/ERC721A/ERC721A.sol\":9334:9438  function symbol() public view virtual override returns (string memory) {... */\n    tag_72:\n        /* \"minerpunk/ERC721A/ERC721A.sol\":9390:9403  string memory */\n      0x60\n        /* \"minerpunk/ERC721A/ERC721A.sol\":9423:9430  _symbol */\n      0x08\n        /* \"minerpunk/ERC721A/ERC721A.sol\":9416:9430  return _symbol */\n      dup1\n      sload\n      tag_161\n      swap1\n      tag_120\n      jump\t// in\n    tag_161:\n      dup1\n      0x1f\n      add\n      0x20\n      dup1\n      swap2\n      div\n      mul\n      0x20\n      add\n      mload(0x40)\n      swap1\n      dup2\n      add\n      0x40\n      mstore\n      dup1\n      swap3\n      swap2\n      swap1\n      dup2\n      dup2\n      mstore\n      0x20\n      add\n      dup3\n      dup1\n      sload\n      tag_162\n      swap1\n      tag_120\n      jump\t// in\n    tag_162:\n      dup1\n      iszero\n      tag_163\n      jumpi\n      dup1\n      0x1f\n      lt\n      tag_164\n      jumpi\n      0x0100\n      dup1\n      dup4\n      sload\n      div\n      mul\n      dup4\n      mstore\n      swap2\n      0x20\n      add\n      swap2\n      jump(tag_163)\n    tag_164:\n      dup3\n      add\n      swap2\n      swap1\n      0x00\n      mstore\n      keccak256(0x00, 0x20)\n      swap1\n    tag_165:\n      dup2\n      sload\n      dup2\n      mstore\n      swap1\n      0x01\n      add\n      swap1\n      0x20\n      add\n      dup1\n      dup4\n      gt\n      tag_165\n      jumpi\n      dup3\n      swap1\n      sub\n      0x1f\n      and\n      dup3\n      add\n      swap2\n    tag_163:\n      pop\n      pop\n      pop\n      pop\n      pop\n      swap1\n      pop\n        /* \"minerpunk/ERC721A/ERC721A.sol\":9334:9438  function symbol() public view virtual override returns (string memory) {... */\n      swap1\n      jump\t// out\n        /* \"minerpunk/ERC721A/ERC721A.sol\":11036:11323  function setApprovalForAll(address operator, bool approved) public virtual override {... */\n    tag_77:\n        /* \"minerpunk/ERC721A/ERC721A.sol\":11147:11159  _msgSender() */\n      tag_167\n        /* \"minerpunk/ERC721A/ERC721A.sol\":11147:11157  _msgSender */\n      tag_133\n        /* \"minerpunk/ERC721A/ERC721A.sol\":11147:11159  _msgSender() */\n      jump\t// in\n    tag_167:\n        /* \"minerpunk/ERC721A/ERC721A.sol\":11135:11159  operator == _msgSender() */\n      0xffffffffffffffffffffffffffffffffffffffff\n      and\n        /* \"minerpunk/ERC721A/ERC721A.sol\":11135:11143  operator */\n      dup3\n        /* \"minerpunk/ERC721A/ERC721A.sol\":11135:11159  operator == _msgSender() */\n      0xffffffffffffffffffffffffffffffffffffffff\n      and\n      sub\n        /* \"minerpunk/ERC721A/ERC721A.sol\":11131:11185  if (operator == _msgSender()) revert ApproveToCaller() */\n      tag_168\n      jumpi\n        /* \"minerpunk/ERC721A/ERC721A.sol\":11168:11185  ApproveToCaller() */\n      mload(0x40)\n      0xb06307db00000000000000000000000000000000000000000000000000000000\n      dup2\n      mstore\n      0x04\n      add\n      mload(0x40)\n      dup1\n      swap2\n      sub\n      swap1\n      revert\n        /* \"minerpunk/ERC721A/ERC721A.sol\":11131:11185  if (operator == _msgSender()) revert ApproveToCaller() */\n    tag_168:\n        /* \"minerpunk/ERC721A/ERC721A.sol\":11243:11251  approved */\n      dup1\n        /* \"minerpunk/ERC721A/ERC721A.sol\":11198:11216  _operatorApprovals */\n      0x0c\n        /* \"minerpunk/ERC721A/ERC721A.sol\":11198:11230  _operatorApprovals[_msgSender()] */\n      0x00\n        /* \"minerpunk/ERC721A/ERC721A.sol\":11217:11229  _msgSender() */\n      tag_169\n        /* \"minerpunk/ERC721A/ERC721A.sol\":11217:11227  _msgSender */\n      tag_133\n        /* \"minerpunk/ERC721A/ERC721A.sol\":11217:11229  _msgSender() */\n      jump\t// in\n    tag_169:\n        /* \"minerpunk/ERC721A/ERC721A.sol\":11198:11230  _operatorApprovals[_msgSender()] */\n      0xffffffffffffffffffffffffffffffffffffffff\n      and\n      0xffffffffffffffffffffffffffffffffffffffff\n      and\n      dup2\n      mstore\n      0x20\n      add\n      swap1\n      dup2\n      mstore\n      0x20\n      add\n      0x00\n      keccak256\n        /* \"minerpunk/ERC721A/ERC721A.sol\":11198:11240  _operatorApprovals[_msgSender()][operator] */\n      0x00\n        /* \"minerpunk/ERC721A/ERC721A.sol\":11231:11239  operator */\n      dup5\n        /* \"minerpunk/ERC721A/ERC721A.sol\":11198:11240  _operatorApprovals[_msgSender()][operator] */\n      0xffffffffffffffffffffffffffffffffffffffff\n      and\n      0xffffffffffffffffffffffffffffffffffffffff\n      and\n      dup2\n      mstore\n      0x20\n      add\n      swap1\n      dup2\n      mstore\n      0x20\n      add\n      0x00\n      keccak256\n      0x00\n        /* \"minerpunk/ERC721A/ERC721A.sol\":11198:11251  _operatorApprovals[_msgSender()][operator] = approved */\n      0x0100\n      exp\n      dup2\n      sload\n      dup2\n      0xff\n      mul\n      not\n      and\n      swap1\n      dup4\n      iszero\n      iszero\n      mul\n      or\n      swap1\n      sstore\n      pop\n        /* \"minerpunk/ERC721A/ERC721A.sol\":11296:11304  operator */\n      dup2\n        /* \"minerpunk/ERC721A/ERC721A.sol\":11267:11315  ApprovalForAll(_msgSender(), operator, approved) */\n      0xffffffffffffffffffffffffffffffffffffffff\n      and\n        /* \"minerpunk/ERC721A/ERC721A.sol\":11282:11294  _msgSender() */\n      tag_170\n        /* \"minerpunk/ERC721A/ERC721A.sol\":11282:11292  _msgSender */\n      tag_133\n        /* \"minerpunk/ERC721A/ERC721A.sol\":11282:11294  _msgSender() */\n      jump\t// in\n    tag_170:\n        /* \"minerpunk/ERC721A/ERC721A.sol\":11267:11315  ApprovalForAll(_msgSender(), operator, approved) */\n      0xffffffffffffffffffffffffffffffffffffffff\n      and\n      0x17307eab39ab6107e8899845ad3d59bd9653f200f220920489ca2b5937696c31\n        /* \"minerpunk/ERC721A/ERC721A.sol\":11306:11314  approved */\n      dup4\n        /* \"minerpunk/ERC721A/ERC721A.sol\":11267:11315  ApprovalForAll(_msgSender(), operator, approved) */\n      mload(0x40)\n      tag_171\n      swap2\n      swap1\n      tag_32\n      jump\t// in\n    tag_171:\n      mload(0x40)\n      dup1\n      swap2\n      sub\n      swap1\n      log3\n        /* \"minerpunk/ERC721A/ERC721A.sol\":11036:11323  function setApprovalForAll(address operator, bool approved) public virtual override {... */\n      pop\n      pop\n      jump\t// out\n        /* \"minerpunk/ERC721A/ERC721A.sol\":12122:12492  function safeTransferFrom(... */\n    tag_81:\n        /* \"minerpunk/ERC721A/ERC721A.sol\":12289:12317  _transfer(from, to, tokenId) */\n      tag_173\n        /* \"minerpunk/ERC721A/ERC721A.sol\":12299:12303  from */\n      dup5\n        /* \"minerpunk/ERC721A/ERC721A.sol\":12305:12307  to */\n      dup5\n        /* \"minerpunk/ERC721A/ERC721A.sol\":12309:12316  tokenId */\n      dup5\n        /* \"minerpunk/ERC721A/ERC721A.sol\":12289:12298  _transfer */\n      tag_145\n        /* \"minerpunk/ERC721A/ERC721A.sol\":12289:12317  _transfer(from, to, tokenId) */\n      jump\t// in\n    tag_173:\n        /* \"minerpunk/ERC721A/ERC721A.sol\":12332:12347  to.isContract() */\n      tag_174\n        /* \"minerpunk/ERC721A/ERC721A.sol\":12332:12334  to */\n      dup4\n        /* \"minerpunk/ERC721A/ERC721A.sol\":12332:12345  to.isContract */\n      0xffffffffffffffffffffffffffffffffffffffff\n      and\n      tag_175\n        /* \"minerpunk/ERC721A/ERC721A.sol\":12332:12347  to.isContract() */\n      jump\t// in\n    tag_174:\n        /* \"minerpunk/ERC721A/ERC721A.sol\":12328:12485  if (to.isContract()) if(!_checkContractOnERC721Received(from, to, tokenId, _data)) {... */\n      iszero\n      tag_176\n      jumpi\n        /* \"minerpunk/ERC721A/ERC721A.sol\":12353:12409  _checkContractOnERC721Received(from, to, tokenId, _data) */\n      tag_177\n        /* \"minerpunk/ERC721A/ERC721A.sol\":12384:12388  from */\n      dup5\n        /* \"minerpunk/ERC721A/ERC721A.sol\":12390:12392  to */\n      dup5\n        /* \"minerpunk/ERC721A/ERC721A.sol\":12394:12401  tokenId */\n      dup5\n        /* \"minerpunk/ERC721A/ERC721A.sol\":12403:12408  _data */\n      dup5\n        /* \"minerpunk/ERC721A/ERC721A.sol\":12353:12383  _checkContractOnERC721Received */\n      tag_178\n        /* \"minerpunk/ERC721A/ERC721A.sol\":12353:12409  _checkContractOnERC721Received(from, to, tokenId, _data) */\n      jump\t// in\n    tag_177:\n        /* \"minerpunk/ERC721A/ERC721A.sol\":12349:12485  if(!_checkContractOnERC721Received(from, to, tokenId, _data)) {... */\n      tag_179\n      jumpi\n        /* \"minerpunk/ERC721A/ERC721A.sol\":12433:12473  TransferToNonERC721ReceiverImplementer() */\n      mload(0x40)\n      0xd1a57ed600000000000000000000000000000000000000000000000000000000\n      dup2\n      mstore\n      0x04\n      add\n      mload(0x40)\n      dup1\n      swap2\n      sub\n      swap1\n      revert\n        /* \"minerpunk/ERC721A/ERC721A.sol\":12349:12485  if(!_checkContractOnERC721Received(from, to, tokenId, _data)) {... */\n    tag_179:\n        /* \"minerpunk/ERC721A/ERC721A.sol\":12328:12485  if (to.isContract()) if(!_checkContractOnERC721Received(from, to, tokenId, _data)) {... */\n    tag_176:\n        /* \"minerpunk/ERC721A/ERC721A.sol\":12122:12492  function safeTransferFrom(... */\n      pop\n      pop\n      pop\n      pop\n      jump\t// out\n        /* \"minerpunk/ERC721A/ERC721A.sol\":2831:3381  function MineStatus(address user)public view override returns(uint256){      ... */\n    tag_84:\n        /* \"minerpunk/ERC721A/ERC721A.sol\":2893:2900  uint256 */\n      0x00\n        /* \"minerpunk/ERC721A/ERC721A.sol\":2918:2936  uint256 difference */\n      dup1\n        /* \"minerpunk/ERC721A/ERC721A.sol\":2939:2975  block.number.sub(_mineInfo[user][1]) */\n      tag_181\n        /* \"minerpunk/ERC721A/ERC721A.sol\":2956:2965  _mineInfo */\n      0x0d\n        /* \"minerpunk/ERC721A/ERC721A.sol\":2956:2971  _mineInfo[user] */\n      0x00\n        /* \"minerpunk/ERC721A/ERC721A.sol\":2966:2970  user */\n      dup6\n        /* \"minerpunk/ERC721A/ERC721A.sol\":2956:2971  _mineInfo[user] */\n      0xffffffffffffffffffffffffffffffffffffffff\n      and\n      0xffffffffffffffffffffffffffffffffffffffff\n      and\n      dup2\n      mstore\n      0x20\n      add\n      swap1\n      dup2\n      mstore\n      0x20\n      add\n      0x00\n      keccak256\n        /* \"minerpunk/ERC721A/ERC721A.sol\":2956:2974  _mineInfo[user][1] */\n      0x00\n        /* \"minerpunk/ERC721A/ERC721A.sol\":2972:2973  1 */\n      0x01\n        /* \"minerpunk/ERC721A/ERC721A.sol\":2956:2974  _mineInfo[user][1] */\n      dup2\n      mstore\n      0x20\n      add\n      swap1\n      dup2\n      mstore\n      0x20\n      add\n      0x00\n      keccak256\n      sload\n        /* \"minerpunk/ERC721A/ERC721A.sol\":2939:2951  block.number */\n      number\n        /* \"minerpunk/ERC721A/ERC721A.sol\":2939:2955  block.number.sub */\n      tag_182\n      swap1\n        /* \"minerpunk/ERC721A/ERC721A.sol\":2939:2975  block.number.sub(_mineInfo[user][1]) */\n      swap2\n      swap1\n      0xffffffff\n      and\n      jump\t// in\n    tag_181:\n        /* \"minerpunk/ERC721A/ERC721A.sol\":2918:2975  uint256 difference = block.number.sub(_mineInfo[user][1]) */\n      swap1\n      pop\n        /* \"minerpunk/ERC721A/ERC721A.sol\":2986:2999  uint256 start */\n      0x00\n        /* \"minerpunk/ERC721A/ERC721A.sol\":3002:3033  blockStatus(_mineInfo[user][1]) */\n      tag_183\n        /* \"minerpunk/ERC721A/ERC721A.sol\":3014:3023  _mineInfo */\n      0x0d\n        /* \"minerpunk/ERC721A/ERC721A.sol\":3014:3029  _mineInfo[user] */\n      0x00\n        /* \"minerpunk/ERC721A/ERC721A.sol\":3024:3028  user */\n      dup7\n        /* \"minerpunk/ERC721A/ERC721A.sol\":3014:3029  _mineInfo[user] */\n      0xffffffffffffffffffffffffffffffffffffffff\n      and\n      0xffffffffffffffffffffffffffffffffffffffff\n      and\n      dup2\n      mstore\n      0x20\n      add\n      swap1\n      dup2\n      mstore\n      0x20\n      add\n      0x00\n      keccak256\n        /* \"minerpunk/ERC721A/ERC721A.sol\":3014:3032  _mineInfo[user][1] */\n      0x00\n        /* \"minerpunk/ERC721A/ERC721A.sol\":3030:3031  1 */\n      0x01\n        /* \"minerpunk/ERC721A/ERC721A.sol\":3014:3032  _mineInfo[user][1] */\n      dup2\n      mstore\n      0x20\n      add\n      swap1\n      dup2\n      mstore\n      0x20\n      add\n      0x00\n      keccak256\n      sload\n        /* \"minerpunk/ERC721A/ERC721A.sol\":3002:3013  blockStatus */\n      tag_60\n        /* \"minerpunk/ERC721A/ERC721A.sol\":3002:3033  blockStatus(_mineInfo[user][1]) */\n      jump\t// in\n    tag_183:\n        /* \"minerpunk/ERC721A/ERC721A.sol\":2986:3033  uint256 start = blockStatus(_mineInfo[user][1]) */\n      swap1\n      pop\n        /* \"minerpunk/ERC721A/ERC721A.sol\":3044:3055  uint256 end */\n      0x00\n        /* \"minerpunk/ERC721A/ERC721A.sol\":3058:3083  blockStatus(block.number) */\n      tag_184\n        /* \"minerpunk/ERC721A/ERC721A.sol\":3070:3082  block.number */\n      number\n        /* \"minerpunk/ERC721A/ERC721A.sol\":3058:3069  blockStatus */\n      tag_60\n        /* \"minerpunk/ERC721A/ERC721A.sol\":3058:3083  blockStatus(block.number) */\n      jump\t// in\n    tag_184:\n        /* \"minerpunk/ERC721A/ERC721A.sol\":3044:3083  uint256 end = blockStatus(block.number) */\n      swap1\n      pop\n        /* \"minerpunk/ERC721A/ERC721A.sol\":3094:3112  uint256 mined_area */\n      0x00\n        /* \"minerpunk/ERC721A/ERC721A.sol\":3115:3152  start.add(end).mul(difference).div(2) */\n      tag_185\n        /* \"minerpunk/ERC721A/ERC721A.sol\":3150:3151  2 */\n      0x02\n        /* \"minerpunk/ERC721A/ERC721A.sol\":3115:3145  start.add(end).mul(difference) */\n      tag_186\n        /* \"minerpunk/ERC721A/ERC721A.sol\":3134:3144  difference */\n      dup7\n        /* \"minerpunk/ERC721A/ERC721A.sol\":3115:3129  start.add(end) */\n      tag_187\n        /* \"minerpunk/ERC721A/ERC721A.sol\":3125:3128  end */\n      dup7\n        /* \"minerpunk/ERC721A/ERC721A.sol\":3115:3120  start */\n      dup9\n        /* \"minerpunk/ERC721A/ERC721A.sol\":3115:3124  start.add */\n      tag_188\n      swap1\n        /* \"minerpunk/ERC721A/ERC721A.sol\":3115:3129  start.add(end) */\n      swap2\n      swap1\n      0xffffffff\n      and\n      jump\t// in\n    tag_187:\n        /* \"minerpunk/ERC721A/ERC721A.sol\":3115:3133  start.add(end).mul */\n      tag_151\n      swap1\n        /* \"minerpunk/ERC721A/ERC721A.sol\":3115:3145  start.add(end).mul(difference) */\n      swap2\n      swap1\n      0xffffffff\n      and\n      jump\t// in\n    tag_186:\n        /* \"minerpunk/ERC721A/ERC721A.sol\":3115:3149  start.add(end).mul(difference).div */\n      tag_154\n      swap1\n        /* \"minerpunk/ERC721A/ERC721A.sol\":3115:3152  start.add(end).mul(difference).div(2) */\n      swap2\n      swap1\n      0xffffffff\n      and\n      jump\t// in\n    tag_185:\n        /* \"minerpunk/ERC721A/ERC721A.sol\":3094:3152  uint256 mined_area = start.add(end).mul(difference).div(2) */\n      swap1\n      pop\n        /* \"minerpunk/ERC721A/ERC721A.sol\":3245:3260  uint dcf_amount */\n      0x00\n        /* \"minerpunk/ERC721A/ERC721A.sol\":3263:3314  mined_area.mul(_mineInfo[user][2]).div(_totalPower) */\n      tag_189\n        /* \"minerpunk/ERC721A/ERC721A.sol\":3302:3313  _totalPower */\n      sload(0x03)\n        /* \"minerpunk/ERC721A/ERC721A.sol\":3263:3297  mined_area.mul(_mineInfo[user][2]) */\n      tag_190\n        /* \"minerpunk/ERC721A/ERC721A.sol\":3278:3287  _mineInfo */\n      0x0d\n        /* \"minerpunk/ERC721A/ERC721A.sol\":3278:3293  _mineInfo[user] */\n      0x00\n        /* \"minerpunk/ERC721A/ERC721A.sol\":3288:3292  user */\n      dup12\n        /* \"minerpunk/ERC721A/ERC721A.sol\":3278:3293  _mineInfo[user] */\n      0xffffffffffffffffffffffffffffffffffffffff\n      and\n      0xffffffffffffffffffffffffffffffffffffffff\n      and\n      dup2\n      mstore\n      0x20\n      add\n      swap1\n      dup2\n      mstore\n      0x20\n      add\n      0x00\n      keccak256\n        /* \"minerpunk/ERC721A/ERC721A.sol\":3278:3296  _mineInfo[user][2] */\n      0x00\n        /* \"minerpunk/ERC721A/ERC721A.sol\":3294:3295  2 */\n      0x02\n        /* \"minerpunk/ERC721A/ERC721A.sol\":3278:3296  _mineInfo[user][2] */\n      dup2\n      mstore\n      0x20\n      add\n      swap1\n      dup2\n      mstore\n      0x20\n      add\n      0x00\n      keccak256\n      sload\n        /* \"minerpunk/ERC721A/ERC721A.sol\":3263:3273  mined_area */\n      dup6\n        /* \"minerpunk/ERC721A/ERC721A.sol\":3263:3277  mined_area.mul */\n      tag_151\n      swap1\n        /* \"minerpunk/ERC721A/ERC721A.sol\":3263:3297  mined_area.mul(_mineInfo[user][2]) */\n      swap2\n      swap1\n      0xffffffff\n      and\n      jump\t// in\n    tag_190:\n        /* \"minerpunk/ERC721A/ERC721A.sol\":3263:3301  mined_area.mul(_mineInfo[user][2]).div */\n      tag_154\n      swap1\n        /* \"minerpunk/ERC721A/ERC721A.sol\":3263:3314  mined_area.mul(_mineInfo[user][2]).div(_totalPower) */\n      swap2\n      swap1\n      0xffffffff\n      and\n      jump\t// in\n    tag_189:\n        /* \"minerpunk/ERC721A/ERC721A.sol\":3245:3314  uint dcf_amount = mined_area.mul(_mineInfo[user][2]).div(_totalPower) */\n      swap1\n      pop\n        /* \"minerpunk/ERC721A/ERC721A.sol\":3332:3366  _mineInfo[user][3].add(dcf_amount) */\n      tag_191\n        /* \"minerpunk/ERC721A/ERC721A.sol\":3355:3365  dcf_amount */\n      dup2\n        /* \"minerpunk/ERC721A/ERC721A.sol\":3332:3341  _mineInfo */\n      0x0d\n        /* \"minerpunk/ERC721A/ERC721A.sol\":3332:3347  _mineInfo[user] */\n      0x00\n        /* \"minerpunk/ERC721A/ERC721A.sol\":3342:3346  user */\n      dup11\n        /* \"minerpunk/ERC721A/ERC721A.sol\":3332:3347  _mineInfo[user] */\n      0xffffffffffffffffffffffffffffffffffffffff\n      and\n      0xffffffffffffffffffffffffffffffffffffffff\n      and\n      dup2\n      mstore\n      0x20\n      add\n      swap1\n      dup2\n      mstore\n      0x20\n      add\n      0x00\n      keccak256\n        /* \"minerpunk/ERC721A/ERC721A.sol\":3332:3350  _mineInfo[user][3] */\n      0x00\n        /* \"minerpunk/ERC721A/ERC721A.sol\":3348:3349  3 */\n      0x03\n        /* \"minerpunk/ERC721A/ERC721A.sol\":3332:3350  _mineInfo[user][3] */\n      dup2\n      mstore\n      0x20\n      add\n      swap1\n      dup2\n      mstore\n      0x20\n      add\n      0x00\n      keccak256\n      sload\n        /* \"minerpunk/ERC721A/ERC721A.sol\":3332:3354  _mineInfo[user][3].add */\n      tag_188\n      swap1\n        /* \"minerpunk/ERC721A/ERC721A.sol\":3332:3366  _mineInfo[user][3].add(dcf_amount) */\n      swap2\n      swap1\n      0xffffffff\n      and\n      jump\t// in\n    tag_191:\n        /* \"minerpunk/ERC721A/ERC721A.sol\":3325:3366  return _mineInfo[user][3].add(dcf_amount) */\n      swap6\n      pop\n      pop\n      pop\n      pop\n      pop\n      pop\n        /* \"minerpunk/ERC721A/ERC721A.sol\":2831:3381  function MineStatus(address user)public view override returns(uint256){      ... */\n      swap2\n      swap1\n      pop\n      jump\t// out\n        /* \"minerpunk/ERC721A/ERC721A.sol\":9509:9827  function tokenURI(uint256 tokenId) public view virtual override returns (string memory) {... */\n    tag_88:\n        /* \"minerpunk/ERC721A/ERC721A.sol\":9582:9595  string memory */\n      0x60\n        /* \"minerpunk/ERC721A/ERC721A.sol\":9613:9629  _exists(tokenId) */\n      tag_193\n        /* \"minerpunk/ERC721A/ERC721A.sol\":9621:9628  tokenId */\n      dup3\n        /* \"minerpunk/ERC721A/ERC721A.sol\":9613:9620  _exists */\n      tag_127\n        /* \"minerpunk/ERC721A/ERC721A.sol\":9613:9629  _exists(tokenId) */\n      jump\t// in\n    tag_193:\n        /* \"minerpunk/ERC721A/ERC721A.sol\":9608:9667  if (!_exists(tokenId)) revert URIQueryForNonexistentToken() */\n      tag_194\n      jumpi\n        /* \"minerpunk/ERC721A/ERC721A.sol\":9638:9667  URIQueryForNonexistentToken() */\n      mload(0x40)\n      0xa14c4b5000000000000000000000000000000000000000000000000000000000\n      dup2\n      mstore\n      0x04\n      add\n      mload(0x40)\n      dup1\n      swap2\n      sub\n      swap1\n      revert\n        /* \"minerpunk/ERC721A/ERC721A.sol\":9608:9667  if (!_exists(tokenId)) revert URIQueryForNonexistentToken() */\n    tag_194:\n        /* \"minerpunk/ERC721A/ERC721A.sol\":9680:9701  string memory baseURI */\n      0x00\n        /* \"minerpunk/ERC721A/ERC721A.sol\":9704:9714  _baseURI() */\n      tag_195\n        /* \"minerpunk/ERC721A/ERC721A.sol\":9704:9712  _baseURI */\n      tag_196\n        /* \"minerpunk/ERC721A/ERC721A.sol\":9704:9714  _baseURI() */\n      jump\t// in\n    tag_195:\n        /* \"minerpunk/ERC721A/ERC721A.sol\":9680:9714  string memory baseURI = _baseURI() */\n      swap1\n      pop\n        /* \"minerpunk/ERC721A/ERC721A.sol\":9757:9758  0 */\n      0x00\n        /* \"minerpunk/ERC721A/ERC721A.sol\":9738:9745  baseURI */\n      dup2\n        /* \"minerpunk/ERC721A/ERC721A.sol\":9732:9753  bytes(baseURI).length */\n      mload\n        /* \"minerpunk/ERC721A/ERC721A.sol\":9732:9758  bytes(baseURI).length != 0 */\n      sub\n        /* \"minerpunk/ERC721A/ERC721A.sol\":9732:9819  bytes(baseURI).length != 0 ? string(abi.encodePacked(baseURI, tokenId.toString())) : '' */\n      tag_197\n      jumpi\n      mload(0x40)\n      dup1\n      0x20\n      add\n      0x40\n      mstore\n      dup1\n      0x00\n      dup2\n      mstore\n      pop\n      jump(tag_198)\n    tag_197:\n        /* \"minerpunk/ERC721A/ERC721A.sol\":9785:9792  baseURI */\n      dup1\n        /* \"minerpunk/ERC721A/ERC721A.sol\":9794:9812  tokenId.toString() */\n      tag_199\n        /* \"minerpunk/ERC721A/ERC721A.sol\":9794:9801  tokenId */\n      dup5\n        /* \"minerpunk/ERC721A/ERC721A.sol\":9794:9810  tokenId.toString */\n      tag_200\n        /* \"minerpunk/ERC721A/ERC721A.sol\":9794:9812  tokenId.toString() */\n      jump\t// in\n    tag_199:\n        /* \"minerpunk/ERC721A/ERC721A.sol\":9768:9813  abi.encodePacked(baseURI, tokenId.toString()) */\n      add(0x20, mload(0x40))\n      tag_201\n      swap3\n      swap2\n      swap1\n      tag_202\n      jump\t// in\n    tag_201:\n      mload(0x40)\n      0x20\n      dup2\n      dup4\n      sub\n      sub\n      dup2\n      mstore\n      swap1\n      0x40\n      mstore\n        /* \"minerpunk/ERC721A/ERC721A.sol\":9732:9819  bytes(baseURI).length != 0 ? string(abi.encodePacked(baseURI, tokenId.toString())) : '' */\n    tag_198:\n        /* \"minerpunk/ERC721A/ERC721A.sol\":9725:9819  return bytes(baseURI).length != 0 ? string(abi.encodePacked(baseURI, tokenId.toString())) : '' */\n      swap2\n      pop\n      pop\n        /* \"minerpunk/ERC721A/ERC721A.sol\":9509:9827  function tokenURI(uint256 tokenId) public view virtual override returns (string memory) {... */\n      swap2\n      swap1\n      pop\n      jump\t// out\n        /* \"minerpunk/ERC721A/ERC721A.sol\":5237:5401  function maxSupply() public view  returns (uint256) {       ... */\n    tag_91:\n        /* \"minerpunk/ERC721A/ERC721A.sol\":5280:5287  uint256 */\n      0x00\n        /* \"minerpunk/ERC721A/ERC721A.sol\":5367:5382  _startTokenId() */\n      tag_204\n        /* \"minerpunk/ERC721A/ERC721A.sol\":5367:5380  _startTokenId */\n      tag_142\n        /* \"minerpunk/ERC721A/ERC721A.sol\":5367:5382  _startTokenId() */\n      jump\t// in\n    tag_204:\n        /* \"minerpunk/ERC721A/ERC721A.sol\":5352:5364  _burnCounter */\n      sload(0x06)\n        /* \"minerpunk/ERC721A/ERC721A.sol\":5339:5349  _maxSupply */\n      sload(0x05)\n        /* \"minerpunk/ERC721A/ERC721A.sol\":5339:5364  _maxSupply - _burnCounter */\n      sub\n        /* \"minerpunk/ERC721A/ERC721A.sol\":5339:5382  _maxSupply - _burnCounter - _startTokenId() */\n      sub\n        /* \"minerpunk/ERC721A/ERC721A.sol\":5332:5382  return _maxSupply - _burnCounter - _startTokenId() */\n      swap1\n      pop\n        /* \"minerpunk/ERC721A/ERC721A.sol\":5237:5401  function maxSupply() public view  returns (uint256) {       ... */\n      swap1\n      jump\t// out\n        /* \"minerpunk/ERC721A/ERC721A.sol\":3873:4107  function difficult(uint _BlockNumber)public view override returns (uint256){... */\n    tag_95:\n        /* \"minerpunk/ERC721A/ERC721A.sol\":3940:3947  uint256 */\n      0x00\n        /* \"minerpunk/ERC721A/ERC721A.sol\":3959:3978  uint BlockDifficult */\n      dup1\n        /* \"minerpunk/ERC721A/ERC721A.sol\":3979:4024  _BlockNumber.mul(1e18).div(_startBlockNumber) */\n      tag_206\n        /* \"minerpunk/ERC721A/ERC721A.sol\":4006:4023  _startBlockNumber */\n      sload(0x02)\n        /* \"minerpunk/ERC721A/ERC721A.sol\":3979:4001  _BlockNumber.mul(1e18) */\n      tag_207\n        /* \"minerpunk/ERC721A/ERC721A.sol\":3996:4000  1e18 */\n      0x0de0b6b3a7640000\n        /* \"minerpunk/ERC721A/ERC721A.sol\":3979:3991  _BlockNumber */\n      dup7\n        /* \"minerpunk/ERC721A/ERC721A.sol\":3979:3995  _BlockNumber.mul */\n      tag_151\n      swap1\n        /* \"minerpunk/ERC721A/ERC721A.sol\":3979:4001  _BlockNumber.mul(1e18) */\n      swap2\n      swap1\n      0xffffffff\n      and\n      jump\t// in\n    tag_207:\n        /* \"minerpunk/ERC721A/ERC721A.sol\":3979:4005  _BlockNumber.mul(1e18).div */\n      tag_154\n      swap1\n        /* \"minerpunk/ERC721A/ERC721A.sol\":3979:4024  _BlockNumber.mul(1e18).div(_startBlockNumber) */\n      swap2\n      swap1\n      0xffffffff\n      and\n      jump\t// in\n    tag_206:\n        /* \"minerpunk/ERC721A/ERC721A.sol\":3959:4024  uint BlockDifficult=_BlockNumber.mul(1e18).div(_startBlockNumber) */\n      swap1\n      pop\n        /* \"minerpunk/ERC721A/ERC721A.sol\":4066:4067  4 */\n      0x04\n        /* \"minerpunk/ERC721A/ERC721A.sol\":4050:4064  BlockDifficult */\n      dup2\n        /* \"minerpunk/ERC721A/ERC721A.sol\":4050:4067  BlockDifficult**4 */\n      tag_208\n      swap2\n      swap1\n      tag_209\n      jump\t// in\n    tag_208:\n        /* \"minerpunk/ERC721A/ERC721A.sol\":4035:4067  BlockDifficult=BlockDifficult**4 */\n      swap1\n      pop\n        /* \"minerpunk/ERC721A/ERC721A.sol\":4085:4099  BlockDifficult */\n      dup1\n        /* \"minerpunk/ERC721A/ERC721A.sol\":4078:4099  return BlockDifficult */\n      swap2\n      pop\n      pop\n        /* \"minerpunk/ERC721A/ERC721A.sol\":3873:4107  function difficult(uint _BlockNumber)public view override returns (uint256){... */\n      swap2\n      swap1\n      pop\n      jump\t// out\n        /* \"minerpunk/ERC721A/ERC721A.sol\":5082:5227  function totalPower() public view  returns (uint256) {       ... */\n    tag_98:\n        /* \"minerpunk/ERC721A/ERC721A.sol\":5126:5133  uint256 */\n      0x00\n        /* \"minerpunk/ERC721A/ERC721A.sol\":5197:5208  _totalPower */\n      sload(0x03)\n        /* \"minerpunk/ERC721A/ERC721A.sol\":5190:5208  return _totalPower */\n      swap1\n      pop\n        /* \"minerpunk/ERC721A/ERC721A.sol\":5082:5227  function totalPower() public view  returns (uint256) {       ... */\n      swap1\n      jump\t// out\n        /* \"minerpunk/ERC721A/ERC721A.sol\":4126:4418  function tokenIDPower (uint256 tokenId)public view override returns(uint256){        ... */\n    tag_102:\n        /* \"minerpunk/ERC721A/ERC721A.sol\":4194:4201  uint256 */\n      0x00\n        /* \"minerpunk/ERC721A/ERC721A.sol\":4223:4237  uint256 _power */\n      dup1\n        /* \"minerpunk/ERC721A/ERC721A.sol\":4240:4271  tokenId.mul(_salt).add(tokenId) */\n      tag_212\n        /* \"minerpunk/ERC721A/ERC721A.sol\":4263:4270  tokenId */\n      dup4\n        /* \"minerpunk/ERC721A/ERC721A.sol\":4240:4258  tokenId.mul(_salt) */\n      tag_213\n        /* \"minerpunk/ERC721A/ERC721A.sol\":4252:4257  _salt */\n      sload(0x00)\n        /* \"minerpunk/ERC721A/ERC721A.sol\":4240:4247  tokenId */\n      dup7\n        /* \"minerpunk/ERC721A/ERC721A.sol\":4240:4251  tokenId.mul */\n      tag_151\n      swap1\n        /* \"minerpunk/ERC721A/ERC721A.sol\":4240:4258  tokenId.mul(_salt) */\n      swap2\n      swap1\n      0xffffffff\n      and\n      jump\t// in\n    tag_213:\n        /* \"minerpunk/ERC721A/ERC721A.sol\":4240:4262  tokenId.mul(_salt).add */\n      tag_188\n      swap1\n        /* \"minerpunk/ERC721A/ERC721A.sol\":4240:4271  tokenId.mul(_salt).add(tokenId) */\n      swap2\n      swap1\n      0xffffffff\n      and\n      jump\t// in\n    tag_212:\n        /* \"minerpunk/ERC721A/ERC721A.sol\":4223:4271  uint256 _power = tokenId.mul(_salt).add(tokenId) */\n      swap1\n      pop\n        /* \"minerpunk/ERC721A/ERC721A.sol\":4299:4300  0 */\n      0x00\n        /* \"minerpunk/ERC721A/ERC721A.sol\":4293:4295  10 */\n      0x0a\n        /* \"minerpunk/ERC721A/ERC721A.sol\":4286:4292  _power */\n      dup3\n        /* \"minerpunk/ERC721A/ERC721A.sol\":4286:4295  _power%10 */\n      tag_214\n      swap2\n      swap1\n      tag_215\n      jump\t// in\n    tag_214:\n        /* \"minerpunk/ERC721A/ERC721A.sol\":4286:4300  _power%10 == 0 */\n      sub\n        /* \"minerpunk/ERC721A/ERC721A.sol\":4283:4387  if(_power%10 == 0){... */\n      tag_216\n      jumpi\n        /* \"minerpunk/ERC721A/ERC721A.sol\":4325:4326  1 */\n      0x01\n        /* \"minerpunk/ERC721A/ERC721A.sol\":4316:4326  _power = 1 */\n      swap1\n      pop\n        /* \"minerpunk/ERC721A/ERC721A.sol\":4283:4387  if(_power%10 == 0){... */\n      jump(tag_217)\n    tag_216:\n        /* \"minerpunk/ERC721A/ERC721A.sol\":4373:4375  10 */\n      0x0a\n        /* \"minerpunk/ERC721A/ERC721A.sol\":4366:4372  _power */\n      dup2\n        /* \"minerpunk/ERC721A/ERC721A.sol\":4366:4375  _power%10 */\n      tag_218\n      swap2\n      swap1\n      tag_215\n      jump\t// in\n    tag_218:\n        /* \"minerpunk/ERC721A/ERC721A.sol\":4357:4375  _power = _power%10 */\n      swap1\n      pop\n        /* \"minerpunk/ERC721A/ERC721A.sol\":4283:4387  if(_power%10 == 0){... */\n    tag_217:\n        /* \"minerpunk/ERC721A/ERC721A.sol\":4404:4410  _power */\n      dup1\n        /* \"minerpunk/ERC721A/ERC721A.sol\":4397:4410  return _power */\n      swap2\n      pop\n      pop\n        /* \"minerpunk/ERC721A/ERC721A.sol\":4126:4418  function tokenIDPower (uint256 tokenId)public view override returns(uint256){        ... */\n      swap2\n      swap1\n      pop\n      jump\t// out\n        /* \"minerpunk/ERC721A/ERC721A.sol\":11394:11558  function isApprovedForAll(address owner, address operator) public view virtual override returns (bool) {... */\n    tag_107:\n        /* \"minerpunk/ERC721A/ERC721A.sol\":11491:11495  bool */\n      0x00\n        /* \"minerpunk/ERC721A/ERC721A.sol\":11515:11533  _operatorApprovals */\n      0x0c\n        /* \"minerpunk/ERC721A/ERC721A.sol\":11515:11540  _operatorApprovals[owner] */\n      0x00\n        /* \"minerpunk/ERC721A/ERC721A.sol\":11534:11539  owner */\n      dup5\n        /* \"minerpunk/ERC721A/ERC721A.sol\":11515:11540  _operatorApprovals[owner] */\n      0xffffffffffffffffffffffffffffffffffffffff\n      and\n      0xffffffffffffffffffffffffffffffffffffffff\n      and\n      dup2\n      mstore\n      0x20\n      add\n      swap1\n      dup2\n      mstore\n      0x20\n      add\n      0x00\n      keccak256\n        /* \"minerpunk/ERC721A/ERC721A.sol\":11515:11550  _operatorApprovals[owner][operator] */\n      0x00\n        /* \"minerpunk/ERC721A/ERC721A.sol\":11541:11549  operator */\n      dup4\n        /* \"minerpunk/ERC721A/ERC721A.sol\":11515:11550  _operatorApprovals[owner][operator] */\n      0xffffffffffffffffffffffffffffffffffffffff\n      and\n      0xffffffffffffffffffffffffffffffffffffffff\n      and\n      dup2\n      mstore\n      0x20\n      add\n      swap1\n      dup2\n      mstore\n      0x20\n      add\n      0x00\n      keccak256\n      0x00\n      swap1\n      sload\n      swap1\n      0x0100\n      exp\n      swap1\n      div\n      0xff\n      and\n        /* \"minerpunk/ERC721A/ERC721A.sol\":11508:11550  return _operatorApprovals[owner][operator] */\n      swap1\n      pop\n        /* \"minerpunk/ERC721A/ERC721A.sol\":11394:11558  function isApprovedForAll(address owner, address operator) public view virtual override returns (bool) {... */\n      swap3\n      swap2\n      pop\n      pop\n      jump\t// out\n        /* \"minerpunk/ERC721A/ERC721A.sol\":5418:5589  function mineInfo(address user, uint256 number) public view  returns (uint256) {       ... */\n    tag_111:\n        /* \"minerpunk/ERC721A/ERC721A.sol\":5488:5495  uint256 */\n      0x00\n        /* \"minerpunk/ERC721A/ERC721A.sol\":5547:5556  _mineInfo */\n      0x0d\n        /* \"minerpunk/ERC721A/ERC721A.sol\":5547:5562  _mineInfo[user] */\n      0x00\n        /* \"minerpunk/ERC721A/ERC721A.sol\":5557:5561  user */\n      dup5\n        /* \"minerpunk/ERC721A/ERC721A.sol\":5547:5562  _mineInfo[user] */\n      0xffffffffffffffffffffffffffffffffffffffff\n      and\n      0xffffffffffffffffffffffffffffffffffffffff\n      and\n      dup2\n      mstore\n      0x20\n      add\n      swap1\n      dup2\n      mstore\n      0x20\n      add\n      0x00\n      keccak256\n        /* \"minerpunk/ERC721A/ERC721A.sol\":5547:5570  _mineInfo[user][number] */\n      0x00\n        /* \"minerpunk/ERC721A/ERC721A.sol\":5563:5569  number */\n      dup4\n        /* \"minerpunk/ERC721A/ERC721A.sol\":5547:5570  _mineInfo[user][number] */\n      dup2\n      mstore\n      0x20\n      add\n      swap1\n      dup2\n      mstore\n      0x20\n      add\n      0x00\n      keccak256\n      sload\n        /* \"minerpunk/ERC721A/ERC721A.sol\":5540:5570  return _mineInfo[user][number] */\n      swap1\n      pop\n        /* \"minerpunk/ERC721A/ERC721A.sol\":5418:5589  function mineInfo(address user, uint256 number) public view  returns (uint256) {       ... */\n      swap3\n      swap2\n      pop\n      pop\n      jump\t// out\n        /* \"@openzeppelin/contracts/utils/introspection/ERC165.sol\":829:984  function supportsInterface(bytes4 interfaceId) public view virtual override returns (bool) {... */\n    tag_117:\n        /* \"@openzeppelin/contracts/utils/introspection/ERC165.sol\":914:918  bool */\n      0x00\n        /* \"@openzeppelin/contracts/utils/introspection/ERC165.sol\":952:977  type(IERC165).interfaceId */\n      0x01ffc9a700000000000000000000000000000000000000000000000000000000\n        /* \"@openzeppelin/contracts/utils/introspection/ERC165.sol\":937:977  interfaceId == type(IERC165).interfaceId */\n      not(0xffffffffffffffffffffffffffffffffffffffffffffffffffffffff)\n      and\n        /* \"@openzeppelin/contracts/utils/introspection/ERC165.sol\":937:948  interfaceId */\n      dup3\n        /* \"@openzeppelin/contracts/utils/introspection/ERC165.sol\":937:977  interfaceId == type(IERC165).interfaceId */\n      not(0xffffffffffffffffffffffffffffffffffffffffffffffffffffffff)\n      and\n      eq\n        /* \"@openzeppelin/contracts/utils/introspection/ERC165.sol\":930:977  return interfaceId == type(IERC165).interfaceId */\n      swap1\n      pop\n        /* \"@openzeppelin/contracts/utils/introspection/ERC165.sol\":829:984  function supportsInterface(bytes4 interfaceId) public view virtual override returns (bool) {... */\n      swap2\n      swap1\n      pop\n      jump\t// out\n        /* \"minerpunk/ERC721A/ERC721A.sol\":12706:12880  function _exists(uint256 tokenId) internal view returns (bool) {... */\n    tag_127:\n        /* \"minerpunk/ERC721A/ERC721A.sol\":12763:12767  bool */\n      0x00\n        /* \"minerpunk/ERC721A/ERC721A.sol\":12806:12813  tokenId */\n      dup2\n        /* \"minerpunk/ERC721A/ERC721A.sol\":12787:12802  _startTokenId() */\n      tag_223\n        /* \"minerpunk/ERC721A/ERC721A.sol\":12787:12800  _startTokenId */\n      tag_142\n        /* \"minerpunk/ERC721A/ERC721A.sol\":12787:12802  _startTokenId() */\n      jump\t// in\n    tag_223:\n        /* \"minerpunk/ERC721A/ERC721A.sol\":12787:12813  _startTokenId() <= tokenId */\n      gt\n      iszero\n        /* \"minerpunk/ERC721A/ERC721A.sol\":12787:12840  _startTokenId() <= tokenId && tokenId < _currentIndex */\n      dup1\n      iszero\n      tag_224\n      jumpi\n      pop\n        /* \"minerpunk/ERC721A/ERC721A.sol\":12827:12840  _currentIndex */\n      sload(0x04)\n        /* \"minerpunk/ERC721A/ERC721A.sol\":12817:12824  tokenId */\n      dup3\n        /* \"minerpunk/ERC721A/ERC721A.sol\":12817:12840  tokenId < _currentIndex */\n      lt\n        /* \"minerpunk/ERC721A/ERC721A.sol\":12787:12840  _startTokenId() <= tokenId && tokenId < _currentIndex */\n    tag_224:\n        /* \"minerpunk/ERC721A/ERC721A.sol\":12787:12872  _startTokenId() <= tokenId && tokenId < _currentIndex && !_ownerships[tokenId].burned */\n      dup1\n      iszero\n      tag_225\n      jumpi\n      pop\n        /* \"minerpunk/ERC721A/ERC721A.sol\":12845:12856  _ownerships */\n      0x09\n        /* \"minerpunk/ERC721A/ERC721A.sol\":12845:12865  _ownerships[tokenId] */\n      0x00\n        /* \"minerpunk/ERC721A/ERC721A.sol\":12857:12864  tokenId */\n      dup4\n        /* \"minerpunk/ERC721A/ERC721A.sol\":12845:12865  _ownerships[tokenId] */\n      dup2\n      mstore\n      0x20\n      add\n      swap1\n      dup2\n      mstore\n      0x20\n      add\n      0x00\n      keccak256\n        /* \"minerpunk/ERC721A/ERC721A.sol\":12845:12872  _ownerships[tokenId].burned */\n      0x00\n      add\n      0x1c\n      swap1\n      sload\n      swap1\n      0x0100\n      exp\n      swap1\n      div\n      0xff\n      and\n        /* \"minerpunk/ERC721A/ERC721A.sol\":12844:12872  !_ownerships[tokenId].burned */\n      iszero\n        /* \"minerpunk/ERC721A/ERC721A.sol\":12787:12872  _startTokenId() <= tokenId && tokenId < _currentIndex && !_ownerships[tokenId].burned */\n    tag_225:\n        /* \"minerpunk/ERC721A/ERC721A.sol\":12780:12872  return _startTokenId() <= tokenId && tokenId < _currentIndex && !_ownerships[tokenId].burned */\n      swap1\n      pop\n        /* \"minerpunk/ERC721A/ERC721A.sol\":12706:12880  function _exists(uint256 tokenId) internal view returns (bool) {... */\n      swap2\n      swap1\n      pop\n      jump\t// out\n        /* \"@openzeppelin/contracts/utils/Context.sol\":640:736  function _msgSender() internal view virtual returns (address) {... */\n    tag_133:\n        /* \"@openzeppelin/contracts/utils/Context.sol\":693:700  address */\n      0x00\n        /* \"@openzeppelin/contracts/utils/Context.sol\":719:729  msg.sender */\n      caller\n        /* \"@openzeppelin/contracts/utils/Context.sol\":712:729  return msg.sender */\n      swap1\n      pop\n        /* \"@openzeppelin/contracts/utils/Context.sol\":640:736  function _msgSender() internal view virtual returns (address) {... */\n      swap1\n      jump\t// out\n        /* \"minerpunk/ERC721A/ERC721A.sol\":21710:21906  function _approve(... */\n    tag_139:\n        /* \"minerpunk/ERC721A/ERC721A.sol\":21852:21854  to */\n      dup3\n        /* \"minerpunk/ERC721A/ERC721A.sol\":21825:21840  _tokenApprovals */\n      0x0b\n        /* \"minerpunk/ERC721A/ERC721A.sol\":21825:21849  _tokenApprovals[tokenId] */\n      0x00\n        /* \"minerpunk/ERC721A/ERC721A.sol\":21841:21848  tokenId */\n      dup5\n        /* \"minerpunk/ERC721A/ERC721A.sol\":21825:21849  _tokenApprovals[tokenId] */\n      dup2\n      mstore\n      0x20\n      add\n      swap1\n      dup2\n      mstore\n      0x20\n      add\n      0x00\n      keccak256\n      0x00\n        /* \"minerpunk/ERC721A/ERC721A.sol\":21825:21854  _tokenApprovals[tokenId] = to */\n      0x0100\n      exp\n      dup2\n      sload\n      dup2\n      0xffffffffffffffffffffffffffffffffffffffff\n      mul\n      not\n      and\n      swap1\n      dup4\n      0xffffffffffffffffffffffffffffffffffffffff\n      and\n      mul\n      or\n      swap1\n      sstore\n      pop\n        /* \"minerpunk/ERC721A/ERC721A.sol\":21890:21897  tokenId */\n      dup2\n        /* \"minerpunk/ERC721A/ERC721A.sol\":21886:21888  to */\n      dup4\n        /* \"minerpunk/ERC721A/ERC721A.sol\":21870:21898  Approval(owner, to, tokenId) */\n      0xffffffffffffffffffffffffffffffffffffffff\n      and\n        /* \"minerpunk/ERC721A/ERC721A.sol\":21879:21884  owner */\n      dup3\n        /* \"minerpunk/ERC721A/ERC721A.sol\":21870:21898  Approval(owner, to, tokenId) */\n      0xffffffffffffffffffffffffffffffffffffffff\n      and\n      0x8c5be1e5ebec7d5bd14f71427d1e84f3dd0314c0f7b2291e5b200ac8c7c3b925\n      mload(0x40)\n      mload(0x40)\n      dup1\n      swap2\n      sub\n      swap1\n      log4\n        /* \"minerpunk/ERC721A/ERC721A.sol\":21710:21906  function _approve(... */\n      pop\n      pop\n      pop\n      jump\t// out\n        /* \"minerpunk/ERC721A/ERC721A.sol\":4534:4626  function _startTokenId() internal view virtual returns (uint256) {... */\n    tag_142:\n        /* \"minerpunk/ERC721A/ERC721A.sol\":4590:4597  uint256 */\n      0x00\n        /* \"minerpunk/ERC721A/ERC721A.sol\":4534:4626  function _startTokenId() internal view virtual returns (uint256) {... */\n      swap1\n      jump\t// out\n        /* \"minerpunk/ERC721A/ERC721A.sol\":15938:18466  function _transfer(... */\n    tag_145:\n        /* \"minerpunk/ERC721A/ERC721A.sol\":16057:16076  uint256 powerNumber */\n      0x00\n        /* \"minerpunk/ERC721A/ERC721A.sol\":16079:16100  tokenIDPower(tokenId) */\n      tag_230\n        /* \"minerpunk/ERC721A/ERC721A.sol\":16092:16099  tokenId */\n      dup3\n        /* \"minerpunk/ERC721A/ERC721A.sol\":16079:16091  tokenIDPower */\n      tag_102\n        /* \"minerpunk/ERC721A/ERC721A.sol\":16079:16100  tokenIDPower(tokenId) */\n      jump\t// in\n    tag_230:\n        /* \"minerpunk/ERC721A/ERC721A.sol\":16057:16100  uint256 powerNumber = tokenIDPower(tokenId) */\n      swap1\n      pop\n        /* \"minerpunk/ERC721A/ERC721A.sol\":16140:16156  MineStatus(from) */\n      tag_231\n        /* \"minerpunk/ERC721A/ERC721A.sol\":16151:16155  from */\n      dup5\n        /* \"minerpunk/ERC721A/ERC721A.sol\":16140:16150  MineStatus */\n      tag_84\n        /* \"minerpunk/ERC721A/ERC721A.sol\":16140:16156  MineStatus(from) */\n      jump\t// in\n    tag_231:\n        /* \"minerpunk/ERC721A/ERC721A.sol\":16119:16128  _mineInfo */\n      0x0d\n        /* \"minerpunk/ERC721A/ERC721A.sol\":16119:16134  _mineInfo[from] */\n      0x00\n        /* \"minerpunk/ERC721A/ERC721A.sol\":16129:16133  from */\n      dup7\n        /* \"minerpunk/ERC721A/ERC721A.sol\":16119:16134  _mineInfo[from] */\n      0xffffffffffffffffffffffffffffffffffffffff\n      and\n      0xffffffffffffffffffffffffffffffffffffffff\n      and\n      dup2\n      mstore\n      0x20\n      add\n      swap1\n      dup2\n      mstore\n      0x20\n      add\n      0x00\n      keccak256\n        /* \"minerpunk/ERC721A/ERC721A.sol\":16119:16137  _mineInfo[from][3] */\n      0x00\n        /* \"minerpunk/ERC721A/ERC721A.sol\":16135:16136  3 */\n      0x03\n        /* \"minerpunk/ERC721A/ERC721A.sol\":16119:16137  _mineInfo[from][3] */\n      dup2\n      mstore\n      0x20\n      add\n      swap1\n      dup2\n      mstore\n      0x20\n      add\n      0x00\n      keccak256\n        /* \"minerpunk/ERC721A/ERC721A.sol\":16119:16156  _mineInfo[from][3] = MineStatus(from) */\n      dup2\n      swap1\n      sstore\n      pop\n        /* \"minerpunk/ERC721A/ERC721A.sol\":16188:16223  _mineInfo[from][2].sub(powerNumber) */\n      tag_232\n        /* \"minerpunk/ERC721A/ERC721A.sol\":16211:16222  powerNumber */\n      dup2\n        /* \"minerpunk/ERC721A/ERC721A.sol\":16188:16197  _mineInfo */\n      0x0d\n        /* \"minerpunk/ERC721A/ERC721A.sol\":16188:16203  _mineInfo[from] */\n      0x00\n        /* \"minerpunk/ERC721A/ERC721A.sol\":16198:16202  from */\n      dup8\n        /* \"minerpunk/ERC721A/ERC721A.sol\":16188:16203  _mineInfo[from] */\n      0xffffffffffffffffffffffffffffffffffffffff\n      and\n      0xffffffffffffffffffffffffffffffffffffffff\n      and\n      dup2\n      mstore\n      0x20\n      add\n      swap1\n      dup2\n      mstore\n      0x20\n      add\n      0x00\n      keccak256\n        /* \"minerpunk/ERC721A/ERC721A.sol\":16188:16206  _mineInfo[from][2] */\n      0x00\n        /* \"minerpunk/ERC721A/ERC721A.sol\":16204:16205  2 */\n      0x02\n        /* \"minerpunk/ERC721A/ERC721A.sol\":16188:16206  _mineInfo[from][2] */\n      dup2\n      mstore\n      0x20\n      add\n      swap1\n      dup2\n      mstore\n      0x20\n      add\n      0x00\n      keccak256\n      sload\n        /* \"minerpunk/ERC721A/ERC721A.sol\":16188:16210  _mineInfo[from][2].sub */\n      tag_182\n      swap1\n        /* \"minerpunk/ERC721A/ERC721A.sol\":16188:16223  _mineInfo[from][2].sub(powerNumber) */\n      swap2\n      swap1\n      0xffffffff\n      and\n      jump\t// in\n    tag_232:\n        /* \"minerpunk/ERC721A/ERC721A.sol\":16167:16176  _mineInfo */\n      0x0d\n        /* \"minerpunk/ERC721A/ERC721A.sol\":16167:16182  _mineInfo[from] */\n      0x00\n        /* \"minerpunk/ERC721A/ERC721A.sol\":16177:16181  from */\n      dup7\n        /* \"minerpunk/ERC721A/ERC721A.sol\":16167:16182  _mineInfo[from] */\n      0xffffffffffffffffffffffffffffffffffffffff\n      and\n      0xffffffffffffffffffffffffffffffffffffffff\n      and\n      dup2\n      mstore\n      0x20\n      add\n      swap1\n      dup2\n      mstore\n      0x20\n      add\n      0x00\n      keccak256\n        /* \"minerpunk/ERC721A/ERC721A.sol\":16167:16185  _mineInfo[from][2] */\n      0x00\n        /* \"minerpunk/ERC721A/ERC721A.sol\":16183:16184  2 */\n      0x02\n        /* \"minerpunk/ERC721A/ERC721A.sol\":16167:16185  _mineInfo[from][2] */\n      dup2\n      mstore\n      0x20\n      add\n      swap1\n      dup2\n      mstore\n      0x20\n      add\n      0x00\n      keccak256\n        /* \"minerpunk/ERC721A/ERC721A.sol\":16167:16223  _mineInfo[from][2] = _mineInfo[from][2].sub(powerNumber) */\n      dup2\n      swap1\n      sstore\n      pop\n        /* \"minerpunk/ERC721A/ERC721A.sol\":16255:16267  block.number */\n      number\n        /* \"minerpunk/ERC721A/ERC721A.sol\":16234:16243  _mineInfo */\n      0x0d\n        /* \"minerpunk/ERC721A/ERC721A.sol\":16234:16249  _mineInfo[from] */\n      0x00\n        /* \"minerpunk/ERC721A/ERC721A.sol\":16244:16248  from */\n      dup7\n        /* \"minerpunk/ERC721A/ERC721A.sol\":16234:16249  _mineInfo[from] */\n      0xffffffffffffffffffffffffffffffffffffffff\n      and\n      0xffffffffffffffffffffffffffffffffffffffff\n      and\n      dup2\n      mstore\n      0x20\n      add\n      swap1\n      dup2\n      mstore\n      0x20\n      add\n      0x00\n      keccak256\n        /* \"minerpunk/ERC721A/ERC721A.sol\":16234:16252  _mineInfo[from][1] */\n      0x00\n        /* \"minerpunk/ERC721A/ERC721A.sol\":16250:16251  1 */\n      0x01\n        /* \"minerpunk/ERC721A/ERC721A.sol\":16234:16252  _mineInfo[from][1] */\n      dup2\n      mstore\n      0x20\n      add\n      swap1\n      dup2\n      mstore\n      0x20\n      add\n      0x00\n      keccak256\n        /* \"minerpunk/ERC721A/ERC721A.sol\":16234:16267  _mineInfo[from][1] = block.number */\n      dup2\n      swap1\n      sstore\n      pop\n        /* \"minerpunk/ERC721A/ERC721A.sol\":16297:16311  MineStatus(to) */\n      tag_233\n        /* \"minerpunk/ERC721A/ERC721A.sol\":16308:16310  to */\n      dup4\n        /* \"minerpunk/ERC721A/ERC721A.sol\":16297:16307  MineStatus */\n      tag_84\n        /* \"minerpunk/ERC721A/ERC721A.sol\":16297:16311  MineStatus(to) */\n      jump\t// in\n    tag_233:\n        /* \"minerpunk/ERC721A/ERC721A.sol\":16278:16287  _mineInfo */\n      0x0d\n        /* \"minerpunk/ERC721A/ERC721A.sol\":16278:16291  _mineInfo[to] */\n      0x00\n        /* \"minerpunk/ERC721A/ERC721A.sol\":16288:16290  to */\n      dup6\n        /* \"minerpunk/ERC721A/ERC721A.sol\":16278:16291  _mineInfo[to] */\n      0xffffffffffffffffffffffffffffffffffffffff\n      and\n      0xffffffffffffffffffffffffffffffffffffffff\n      and\n      dup2\n      mstore\n      0x20\n      add\n      swap1\n      dup2\n      mstore\n      0x20\n      add\n      0x00\n      keccak256\n        /* \"minerpunk/ERC721A/ERC721A.sol\":16278:16294  _mineInfo[to][3] */\n      0x00\n        /* \"minerpunk/ERC721A/ERC721A.sol\":16292:16293  3 */\n      0x03\n        /* \"minerpunk/ERC721A/ERC721A.sol\":16278:16294  _mineInfo[to][3] */\n      dup2\n      mstore\n      0x20\n      add\n      swap1\n      dup2\n      mstore\n      0x20\n      add\n      0x00\n      keccak256\n        /* \"minerpunk/ERC721A/ERC721A.sol\":16278:16311  _mineInfo[to][3] = MineStatus(to) */\n      dup2\n      swap1\n      sstore\n      pop\n        /* \"minerpunk/ERC721A/ERC721A.sol\":16341:16374  _mineInfo[to][2].add(powerNumber) */\n      tag_234\n        /* \"minerpunk/ERC721A/ERC721A.sol\":16362:16373  powerNumber */\n      dup2\n        /* \"minerpunk/ERC721A/ERC721A.sol\":16341:16350  _mineInfo */\n      0x0d\n        /* \"minerpunk/ERC721A/ERC721A.sol\":16341:16354  _mineInfo[to] */\n      0x00\n        /* \"minerpunk/ERC721A/ERC721A.sol\":16351:16353  to */\n      dup7\n        /* \"minerpunk/ERC721A/ERC721A.sol\":16341:16354  _mineInfo[to] */\n      0xffffffffffffffffffffffffffffffffffffffff\n      and\n      0xffffffffffffffffffffffffffffffffffffffff\n      and\n      dup2\n      mstore\n      0x20\n      add\n      swap1\n      dup2\n      mstore\n      0x20\n      add\n      0x00\n      keccak256\n        /* \"minerpunk/ERC721A/ERC721A.sol\":16341:16357  _mineInfo[to][2] */\n      0x00\n        /* \"minerpunk/ERC721A/ERC721A.sol\":16355:16356  2 */\n      0x02\n        /* \"minerpunk/ERC721A/ERC721A.sol\":16341:16357  _mineInfo[to][2] */\n      dup2\n      mstore\n      0x20\n      add\n      swap1\n      dup2\n      mstore\n      0x20\n      add\n      0x00\n      keccak256\n      sload\n        /* \"minerpunk/ERC721A/ERC721A.sol\":16341:16361  _mineInfo[to][2].add */\n      tag_188\n      swap1\n        /* \"minerpunk/ERC721A/ERC721A.sol\":16341:16374  _mineInfo[to][2].add(powerNumber) */\n      swap2\n      swap1\n      0xffffffff\n      and\n      jump\t// in\n    tag_234:\n        /* \"minerpunk/ERC721A/ERC721A.sol\":16322:16331  _mineInfo */\n      0x0d\n        /* \"minerpunk/ERC721A/ERC721A.sol\":16322:16335  _mineInfo[to] */\n      0x00\n        /* \"minerpunk/ERC721A/ERC721A.sol\":16332:16334  to */\n      dup6\n        /* \"minerpunk/ERC721A/ERC721A.sol\":16322:16335  _mineInfo[to] */\n      0xffffffffffffffffffffffffffffffffffffffff\n      and\n      0xffffffffffffffffffffffffffffffffffffffff\n      and\n      dup2\n      mstore\n      0x20\n      add\n      swap1\n      dup2\n      mstore\n      0x20\n      add\n      0x00\n      keccak256\n        /* \"minerpunk/ERC721A/ERC721A.sol\":16322:16338  _mineInfo[to][2] */\n      0x00\n        /* \"minerpunk/ERC721A/ERC721A.sol\":16336:16337  2 */\n      0x02\n        /* \"minerpunk/ERC721A/ERC721A.sol\":16322:16338  _mineInfo[to][2] */\n      dup2\n      mstore\n      0x20\n      add\n      swap1\n      dup2\n      mstore\n      0x20\n      add\n      0x00\n      keccak256\n        /* \"minerpunk/ERC721A/ERC721A.sol\":16322:16374  _mineInfo[to][2] = _mineInfo[to][2].add(powerNumber) */\n      dup2\n      swap1\n      sstore\n      pop\n        /* \"minerpunk/ERC721A/ERC721A.sol\":16404:16416  block.number */\n      number\n        /* \"minerpunk/ERC721A/ERC721A.sol\":16385:16394  _mineInfo */\n      0x0d\n        /* \"minerpunk/ERC721A/ERC721A.sol\":16385:16398  _mineInfo[to] */\n      0x00\n        /* \"minerpunk/ERC721A/ERC721A.sol\":16395:16397  to */\n      dup6\n        /* \"minerpunk/ERC721A/ERC721A.sol\":16385:16398  _mineInfo[to] */\n      0xffffffffffffffffffffffffffffffffffffffff\n      and\n      0xffffffffffffffffffffffffffffffffffffffff\n      and\n      dup2\n      mstore\n      0x20\n      add\n      swap1\n      dup2\n      mstore\n      0x20\n      add\n      0x00\n      keccak256\n        /* \"minerpunk/ERC721A/ERC721A.sol\":16385:16401  _mineInfo[to][1] */\n      0x00\n        /* \"minerpunk/ERC721A/ERC721A.sol\":16399:16400  1 */\n      0x01\n        /* \"minerpunk/ERC721A/ERC721A.sol\":16385:16401  _mineInfo[to][1] */\n      dup2\n      mstore\n      0x20\n      add\n      swap1\n      dup2\n      mstore\n      0x20\n      add\n      0x00\n      keccak256\n        /* \"minerpunk/ERC721A/ERC721A.sol\":16385:16416  _mineInfo[to][1] = block.number */\n      dup2\n      swap1\n      sstore\n      pop\n        /* \"minerpunk/ERC721A/ERC721A.sol\":16451:16486  TokenOwnership memory prevOwnership */\n      0x00\n        /* \"minerpunk/ERC721A/ERC721A.sol\":16489:16510  _ownershipOf(tokenId) */\n      tag_235\n        /* \"minerpunk/ERC721A/ERC721A.sol\":16502:16509  tokenId */\n      dup4\n        /* \"minerpunk/ERC721A/ERC721A.sol\":16489:16501  _ownershipOf */\n      tag_157\n        /* \"minerpunk/ERC721A/ERC721A.sol\":16489:16510  _ownershipOf(tokenId) */\n      jump\t// in\n    tag_235:\n        /* \"minerpunk/ERC721A/ERC721A.sol\":16451:16510  TokenOwnership memory prevOwnership = _ownershipOf(tokenId) */\n      swap1\n      pop\n        /* \"minerpunk/ERC721A/ERC721A.sol\":16549:16553  from */\n      dup5\n        /* \"minerpunk/ERC721A/ERC721A.sol\":16527:16553  prevOwnership.addr != from */\n      0xffffffffffffffffffffffffffffffffffffffff\n      and\n        /* \"minerpunk/ERC721A/ERC721A.sol\":16527:16540  prevOwnership */\n      dup2\n        /* \"minerpunk/ERC721A/ERC721A.sol\":16527:16545  prevOwnership.addr */\n      0x00\n      add\n      mload\n        /* \"minerpunk/ERC721A/ERC721A.sol\":16527:16553  prevOwnership.addr != from */\n      0xffffffffffffffffffffffffffffffffffffffff\n      and\n      eq\n        /* \"minerpunk/ERC721A/ERC721A.sol\":16523:16590  if (prevOwnership.addr != from) revert TransferFromIncorrectOwner() */\n      tag_236\n      jumpi\n        /* \"minerpunk/ERC721A/ERC721A.sol\":16562:16590  TransferFromIncorrectOwner() */\n      mload(0x40)\n      0xa114810000000000000000000000000000000000000000000000000000000000\n      dup2\n      mstore\n      0x04\n      add\n      mload(0x40)\n      dup1\n      swap2\n      sub\n      swap1\n      revert\n        /* \"minerpunk/ERC721A/ERC721A.sol\":16523:16590  if (prevOwnership.addr != from) revert TransferFromIncorrectOwner() */\n    tag_236:\n        /* \"minerpunk/ERC721A/ERC721A.sol\":16603:16625  bool isApprovedOrOwner */\n      0x00\n        /* \"minerpunk/ERC721A/ERC721A.sol\":16645:16649  from */\n      dup6\n        /* \"minerpunk/ERC721A/ERC721A.sol\":16629:16649  _msgSender() == from */\n      0xffffffffffffffffffffffffffffffffffffffff\n      and\n        /* \"minerpunk/ERC721A/ERC721A.sol\":16629:16641  _msgSender() */\n      tag_237\n        /* \"minerpunk/ERC721A/ERC721A.sol\":16629:16639  _msgSender */\n      tag_133\n        /* \"minerpunk/ERC721A/ERC721A.sol\":16629:16641  _msgSender() */\n      jump\t// in\n    tag_237:\n        /* \"minerpunk/ERC721A/ERC721A.sol\":16629:16649  _msgSender() == from */\n      0xffffffffffffffffffffffffffffffffffffffff\n      and\n      eq\n        /* \"minerpunk/ERC721A/ERC721A.sol\":16629:16702  _msgSender() == from ||... */\n      dup1\n      tag_238\n      jumpi\n      pop\n        /* \"minerpunk/ERC721A/ERC721A.sol\":16666:16702  isApprovedForAll(from, _msgSender()) */\n      tag_239\n        /* \"minerpunk/ERC721A/ERC721A.sol\":16683:16687  from */\n      dup7\n        /* \"minerpunk/ERC721A/ERC721A.sol\":16689:16701  _msgSender() */\n      tag_240\n        /* \"minerpunk/ERC721A/ERC721A.sol\":16689:16699  _msgSender */\n      tag_133\n        /* \"minerpunk/ERC721A/ERC721A.sol\":16689:16701  _msgSender() */\n      jump\t// in\n    tag_240:\n        /* \"minerpunk/ERC721A/ERC721A.sol\":16666:16682  isApprovedForAll */\n      tag_107\n        /* \"minerpunk/ERC721A/ERC721A.sol\":16666:16702  isApprovedForAll(from, _msgSender()) */\n      jump\t// in\n    tag_239:\n        /* \"minerpunk/ERC721A/ERC721A.sol\":16629:16702  _msgSender() == from ||... */\n    tag_238:\n        /* \"minerpunk/ERC721A/ERC721A.sol\":16629:16755  _msgSender() == from ||... */\n      dup1\n      tag_241\n      jumpi\n      pop\n        /* \"minerpunk/ERC721A/ERC721A.sol\":16743:16755  _msgSender() */\n      tag_242\n        /* \"minerpunk/ERC721A/ERC721A.sol\":16743:16753  _msgSender */\n      tag_133\n        /* \"minerpunk/ERC721A/ERC721A.sol\":16743:16755  _msgSender() */\n      jump\t// in\n    tag_242:\n        /* \"minerpunk/ERC721A/ERC721A.sol\":16719:16755  getApproved(tokenId) == _msgSender() */\n      0xffffffffffffffffffffffffffffffffffffffff\n      and\n        /* \"minerpunk/ERC721A/ERC721A.sol\":16719:16739  getApproved(tokenId) */\n      tag_243\n        /* \"minerpunk/ERC721A/ERC721A.sol\":16731:16738  tokenId */\n      dup6\n        /* \"minerpunk/ERC721A/ERC721A.sol\":16719:16730  getApproved */\n      tag_40\n        /* \"minerpunk/ERC721A/ERC721A.sol\":16719:16739  getApproved(tokenId) */\n      jump\t// in\n    tag_243:\n        /* \"minerpunk/ERC721A/ERC721A.sol\":16719:16755  getApproved(tokenId) == _msgSender() */\n      0xffffffffffffffffffffffffffffffffffffffff\n      and\n      eq\n        /* \"minerpunk/ERC721A/ERC721A.sol\":16629:16755  _msgSender() == from ||... */\n    tag_241:\n        /* \"minerpunk/ERC721A/ERC721A.sol\":16603:16756  bool isApprovedOrOwner = (_msgSender() == from ||... */\n      swap1\n      pop\n        /* \"minerpunk/ERC721A/ERC721A.sol\":16774:16791  isApprovedOrOwner */\n      dup1\n        /* \"minerpunk/ERC721A/ERC721A.sol\":16769:16835  if (!isApprovedOrOwner) revert TransferCallerNotOwnerNorApproved() */\n      tag_244\n      jumpi\n        /* \"minerpunk/ERC721A/ERC721A.sol\":16800:16835  TransferCallerNotOwnerNorApproved() */\n      mload(0x40)\n      0x59c896be00000000000000000000000000000000000000000000000000000000\n      dup2\n      mstore\n      0x04\n      add\n      mload(0x40)\n      dup1\n      swap2\n      sub\n      swap1\n      revert\n        /* \"minerpunk/ERC721A/ERC721A.sol\":16769:16835  if (!isApprovedOrOwner) revert TransferCallerNotOwnerNorApproved() */\n    tag_244:\n        /* \"minerpunk/ERC721A/ERC721A.sol\":16864:16865  0 */\n      0x00\n        /* \"minerpunk/ERC721A/ERC721A.sol\":16850:16866  to == address(0) */\n      0xffffffffffffffffffffffffffffffffffffffff\n      and\n        /* \"minerpunk/ERC721A/ERC721A.sol\":16850:16852  to */\n      dup6\n        /* \"minerpunk/ERC721A/ERC721A.sol\":16850:16866  to == address(0) */\n      0xffffffffffffffffffffffffffffffffffffffff\n      and\n      sub\n        /* \"minerpunk/ERC721A/ERC721A.sol\":16846:16898  if (to == address(0)) revert TransferToZeroAddress() */\n      tag_245\n      jumpi\n        /* \"minerpunk/ERC721A/ERC721A.sol\":16875:16898  TransferToZeroAddress() */\n      mload(0x40)\n      0xea553b3400000000000000000000000000000000000000000000000000000000\n      dup2\n      mstore\n      0x04\n      add\n      mload(0x40)\n      dup1\n      swap2\n      sub\n      swap1\n      revert\n        /* \"minerpunk/ERC721A/ERC721A.sol\":16846:16898  if (to == address(0)) revert TransferToZeroAddress() */\n    tag_245:\n        /* \"minerpunk/ERC721A/ERC721A.sol\":16911:16954  _beforeTokenTransfers(from, to, tokenId, 1) */\n      tag_246\n        /* \"minerpunk/ERC721A/ERC721A.sol\":16933:16937  from */\n      dup7\n        /* \"minerpunk/ERC721A/ERC721A.sol\":16939:16941  to */\n      dup7\n        /* \"minerpunk/ERC721A/ERC721A.sol\":16943:16950  tokenId */\n      dup7\n        /* \"minerpunk/ERC721A/ERC721A.sol\":16952:16953  1 */\n      0x01\n        /* \"minerpunk/ERC721A/ERC721A.sol\":16911:16932  _beforeTokenTransfers */\n      tag_247\n        /* \"minerpunk/ERC721A/ERC721A.sol\":16911:16954  _beforeTokenTransfers(from, to, tokenId, 1) */\n      jump\t// in\n    tag_246:\n        /* \"minerpunk/ERC721A/ERC721A.sol\":17019:17054  _approve(address(0), tokenId, from) */\n      tag_248\n        /* \"minerpunk/ERC721A/ERC721A.sol\":17036:17037  0 */\n      0x00\n        /* \"minerpunk/ERC721A/ERC721A.sol\":17040:17047  tokenId */\n      dup6\n        /* \"minerpunk/ERC721A/ERC721A.sol\":17049:17053  from */\n      dup9\n        /* \"minerpunk/ERC721A/ERC721A.sol\":17019:17027  _approve */\n      tag_139\n        /* \"minerpunk/ERC721A/ERC721A.sol\":17019:17054  _approve(address(0), tokenId, from) */\n      jump\t// in\n    tag_248:\n        /* \"minerpunk/ERC721A/ERC721A.sol\":17380:17381  1 */\n      0x01\n        /* \"minerpunk/ERC721A/ERC721A.sol\":17350:17362  _addressData */\n      0x0a\n        /* \"minerpunk/ERC721A/ERC721A.sol\":17350:17368  _addressData[from] */\n      0x00\n        /* \"minerpunk/ERC721A/ERC721A.sol\":17363:17367  from */\n      dup9\n        /* \"minerpunk/ERC721A/ERC721A.sol\":17350:17368  _addressData[from] */\n      0xffffffffffffffffffffffffffffffffffffffff\n      and\n      0xffffffffffffffffffffffffffffffffffffffff\n      and\n      dup2\n      mstore\n      0x20\n      add\n      swap1\n      dup2\n      mstore\n      0x20\n      add\n      0x00\n      keccak256\n        /* \"minerpunk/ERC721A/ERC721A.sol\":17350:17376  _addressData[from].balance */\n      0x00\n      add\n      0x00\n        /* \"minerpunk/ERC721A/ERC721A.sol\":17350:17381  _addressData[from].balance -= 1 */\n      dup3\n      dup3\n      dup3\n      swap1\n      sload\n      swap1\n      0x0100\n      exp\n      swap1\n      div\n      0xffffffffffffffff\n      and\n      sub\n      swap3\n      pop\n      0x0100\n      exp\n      dup2\n      sload\n      dup2\n      0xffffffffffffffff\n      mul\n      not\n      and\n      swap1\n      dup4\n      0xffffffffffffffff\n      and\n      mul\n      or\n      swap1\n      sstore\n      pop\n        /* \"minerpunk/ERC721A/ERC721A.sol\":17424:17425  1 */\n      0x01\n        /* \"minerpunk/ERC721A/ERC721A.sol\":17396:17408  _addressData */\n      0x0a\n        /* \"minerpunk/ERC721A/ERC721A.sol\":17396:17412  _addressData[to] */\n      0x00\n        /* \"minerpunk/ERC721A/ERC721A.sol\":17409:17411  to */\n      dup8\n        /* \"minerpunk/ERC721A/ERC721A.sol\":17396:17412  _addressData[to] */\n      0xffffffffffffffffffffffffffffffffffffffff\n      and\n      0xffffffffffffffffffffffffffffffffffffffff\n      and\n      dup2\n      mstore\n      0x20\n      add\n      swap1\n      dup2\n      mstore\n      0x20\n      add\n      0x00\n      keccak256\n        /* \"minerpunk/ERC721A/ERC721A.sol\":17396:17420  _addressData[to].balance */\n      0x00\n      add\n      0x00\n        /* \"minerpunk/ERC721A/ERC721A.sol\":17396:17425  _addressData[to].balance += 1 */\n      dup3\n      dup3\n      dup3\n      swap1\n      sload\n      swap1\n      0x0100\n      exp\n      swap1\n      div\n      0xffffffffffffffff\n      and\n      add\n      swap3\n      pop\n      0x0100\n      exp\n      dup2\n      sload\n      dup2\n      0xffffffffffffffff\n      mul\n      not\n      and\n      swap1\n      dup4\n      0xffffffffffffffff\n      and\n      mul\n      or\n      swap1\n      sstore\n      pop\n        /* \"minerpunk/ERC721A/ERC721A.sol\":17442:17473  TokenOwnership storage currSlot */\n      0x00\n        /* \"minerpunk/ERC721A/ERC721A.sol\":17476:17487  _ownerships */\n      0x09\n        /* \"minerpunk/ERC721A/ERC721A.sol\":17476:17496  _ownerships[tokenId] */\n      0x00\n        /* \"minerpunk/ERC721A/ERC721A.sol\":17488:17495  tokenId */\n      dup7\n        /* \"minerpunk/ERC721A/ERC721A.sol\":17476:17496  _ownerships[tokenId] */\n      dup2\n      mstore\n      0x20\n      add\n      swap1\n      dup2\n      mstore\n      0x20\n      add\n      0x00\n      keccak256\n        /* \"minerpunk/ERC721A/ERC721A.sol\":17442:17496  TokenOwnership storage currSlot = _ownerships[tokenId] */\n      swap1\n      pop\n        /* \"minerpunk/ERC721A/ERC721A.sol\":17527:17529  to */\n      dup6\n        /* \"minerpunk/ERC721A/ERC721A.sol\":17511:17519  currSlot */\n      dup2\n        /* \"minerpunk/ERC721A/ERC721A.sol\":17511:17524  currSlot.addr */\n      0x00\n      add\n      0x00\n        /* \"minerpunk/ERC721A/ERC721A.sol\":17511:17529  currSlot.addr = to */\n      0x0100\n      exp\n      dup2\n      sload\n      dup2\n      0xffffffffffffffffffffffffffffffffffffffff\n      mul\n      not\n      and\n      swap1\n      dup4\n      0xffffffffffffffffffffffffffffffffffffffff\n      and\n      mul\n      or\n      swap1\n      sstore\n      pop\n        /* \"minerpunk/ERC721A/ERC721A.sol\":17577:17592  block.timestamp */\n      timestamp\n        /* \"minerpunk/ERC721A/ERC721A.sol\":17544:17552  currSlot */\n      dup2\n        /* \"minerpunk/ERC721A/ERC721A.sol\":17544:17567  currSlot.startTimestamp */\n      0x00\n      add\n      0x14\n        /* \"minerpunk/ERC721A/ERC721A.sol\":17544:17593  currSlot.startTimestamp = uint64(block.timestamp) */\n      0x0100\n      exp\n      dup2\n      sload\n      dup2\n      0xffffffffffffffff\n      mul\n      not\n      and\n      swap1\n      dup4\n      0xffffffffffffffff\n      and\n      mul\n      or\n      swap1\n      sstore\n      pop\n        /* \"minerpunk/ERC721A/ERC721A.sol\":17845:17864  uint256 nextTokenId */\n      0x00\n        /* \"minerpunk/ERC721A/ERC721A.sol\":17877:17878  1 */\n      0x01\n        /* \"minerpunk/ERC721A/ERC721A.sol\":17867:17874  tokenId */\n      dup7\n        /* \"minerpunk/ERC721A/ERC721A.sol\":17867:17878  tokenId + 1 */\n      add\n        /* \"minerpunk/ERC721A/ERC721A.sol\":17845:17878  uint256 nextTokenId = tokenId + 1 */\n      swap1\n      pop\n        /* \"minerpunk/ERC721A/ERC721A.sol\":17893:17924  TokenOwnership storage nextSlot */\n      0x00\n        /* \"minerpunk/ERC721A/ERC721A.sol\":17927:17938  _ownerships */\n      0x09\n        /* \"minerpunk/ERC721A/ERC721A.sol\":17927:17951  _ownerships[nextTokenId] */\n      0x00\n        /* \"minerpunk/ERC721A/ERC721A.sol\":17939:17950  nextTokenId */\n      dup4\n        /* \"minerpunk/ERC721A/ERC721A.sol\":17927:17951  _ownerships[nextTokenId] */\n      dup2\n      mstore\n      0x20\n      add\n      swap1\n      dup2\n      mstore\n      0x20\n      add\n      0x00\n      keccak256\n        /* \"minerpunk/ERC721A/ERC721A.sol\":17893:17951  TokenOwnership storage nextSlot = _ownerships[nextTokenId] */\n      swap1\n      pop\n        /* \"minerpunk/ERC721A/ERC721A.sol\":17995:17996  0 */\n      0x00\n        /* \"minerpunk/ERC721A/ERC721A.sol\":17970:17997  nextSlot.addr == address(0) */\n      0xffffffffffffffffffffffffffffffffffffffff\n      and\n        /* \"minerpunk/ERC721A/ERC721A.sol\":17970:17978  nextSlot */\n      dup2\n        /* \"minerpunk/ERC721A/ERC721A.sol\":17970:17983  nextSlot.addr */\n      0x00\n      add\n      0x00\n      swap1\n      sload\n      swap1\n      0x0100\n      exp\n      swap1\n      div\n      0xffffffffffffffffffffffffffffffffffffffff\n      and\n        /* \"minerpunk/ERC721A/ERC721A.sol\":17970:17997  nextSlot.addr == address(0) */\n      0xffffffffffffffffffffffffffffffffffffffff\n      and\n      sub\n        /* \"minerpunk/ERC721A/ERC721A.sol\":17966:18350  if (nextSlot.addr == address(0)) {... */\n      tag_249\n      jumpi\n        /* \"minerpunk/ERC721A/ERC721A.sol\":18180:18193  _currentIndex */\n      sload(0x04)\n        /* \"minerpunk/ERC721A/ERC721A.sol\":18165:18176  nextTokenId */\n      dup3\n        /* \"minerpunk/ERC721A/ERC721A.sol\":18165:18193  nextTokenId != _currentIndex */\n      eq\n        /* \"minerpunk/ERC721A/ERC721A.sol\":18161:18335  if (nextTokenId != _currentIndex) {... */\n      tag_250\n      jumpi\n        /* \"minerpunk/ERC721A/ERC721A.sol\":18234:18238  from */\n      dup9\n        /* \"minerpunk/ERC721A/ERC721A.sol\":18218:18226  nextSlot */\n      dup2\n        /* \"minerpunk/ERC721A/ERC721A.sol\":18218:18231  nextSlot.addr */\n      0x00\n      add\n      0x00\n        /* \"minerpunk/ERC721A/ERC721A.sol\":18218:18238  nextSlot.addr = from */\n      0x0100\n      exp\n      dup2\n      sload\n      dup2\n      0xffffffffffffffffffffffffffffffffffffffff\n      mul\n      not\n      and\n      swap1\n      dup4\n      0xffffffffffffffffffffffffffffffffffffffff\n      and\n      mul\n      or\n      swap1\n      sstore\n      pop\n        /* \"minerpunk/ERC721A/ERC721A.sol\":18287:18300  prevOwnership */\n      dup5\n        /* \"minerpunk/ERC721A/ERC721A.sol\":18287:18315  prevOwnership.startTimestamp */\n      0x20\n      add\n      mload\n        /* \"minerpunk/ERC721A/ERC721A.sol\":18261:18269  nextSlot */\n      dup2\n        /* \"minerpunk/ERC721A/ERC721A.sol\":18261:18284  nextSlot.startTimestamp */\n      0x00\n      add\n      0x14\n        /* \"minerpunk/ERC721A/ERC721A.sol\":18261:18315  nextSlot.startTimestamp = prevOwnership.startTimestamp */\n      0x0100\n      exp\n      dup2\n      sload\n      dup2\n      0xffffffffffffffff\n      mul\n      not\n      and\n      swap1\n      dup4\n      0xffffffffffffffff\n      and\n      mul\n      or\n      swap1\n      sstore\n      pop\n        /* \"minerpunk/ERC721A/ERC721A.sol\":18161:18335  if (nextTokenId != _currentIndex) {... */\n    tag_250:\n        /* \"minerpunk/ERC721A/ERC721A.sol\":17966:18350  if (nextSlot.addr == address(0)) {... */\n    tag_249:\n        /* \"minerpunk/ERC721A/ERC721A.sol\":17325:18361  unchecked {... */\n      pop\n      pop\n      pop\n        /* \"minerpunk/ERC721A/ERC721A.sol\":18397:18404  tokenId */\n      dup4\n        /* \"minerpunk/ERC721A/ERC721A.sol\":18393:18395  to */\n      dup6\n        /* \"minerpunk/ERC721A/ERC721A.sol\":18378:18405  Transfer(from, to, tokenId) */\n      0xffffffffffffffffffffffffffffffffffffffff\n      and\n        /* \"minerpunk/ERC721A/ERC721A.sol\":18387:18391  from */\n      dup8\n        /* \"minerpunk/ERC721A/ERC721A.sol\":18378:18405  Transfer(from, to, tokenId) */\n      0xffffffffffffffffffffffffffffffffffffffff\n      and\n      0xddf252ad1be2c89b69c2b068fc378daa952ba7f163c4a11628f55a4df523b3ef\n      mload(0x40)\n      mload(0x40)\n      dup1\n      swap2\n      sub\n      swap1\n      log4\n        /* \"minerpunk/ERC721A/ERC721A.sol\":18416:18458  _afterTokenTransfers(from, to, tokenId, 1) */\n      tag_251\n        /* \"minerpunk/ERC721A/ERC721A.sol\":18437:18441  from */\n      dup7\n        /* \"minerpunk/ERC721A/ERC721A.sol\":18443:18445  to */\n      dup7\n        /* \"minerpunk/ERC721A/ERC721A.sol\":18447:18454  tokenId */\n      dup7\n        /* \"minerpunk/ERC721A/ERC721A.sol\":18456:18457  1 */\n      0x01\n        /* \"minerpunk/ERC721A/ERC721A.sol\":18416:18436  _afterTokenTransfers */\n      tag_252\n        /* \"minerpunk/ERC721A/ERC721A.sol\":18416:18458  _afterTokenTransfers(from, to, tokenId, 1) */\n      jump\t// in\n    tag_251:\n        /* \"minerpunk/ERC721A/ERC721A.sol\":16042:18466  {  ... */\n      pop\n      pop\n      pop\n        /* \"minerpunk/ERC721A/ERC721A.sol\":15938:18466  function _transfer(... */\n      pop\n      pop\n      pop\n      jump\t// out\n        /* \"@openzeppelin/contracts/utils/math/SafeMath.sol\":3465:3561  function mul(uint256 a, uint256 b) internal pure returns (uint256) {... */\n    tag_151:\n        /* \"@openzeppelin/contracts/utils/math/SafeMath.sol\":3523:3530  uint256 */\n      0x00\n        /* \"@openzeppelin/contracts/utils/math/SafeMath.sol\":3553:3554  b */\n      dup2\n        /* \"@openzeppelin/contracts/utils/math/SafeMath.sol\":3549:3550  a */\n      dup4\n        /* \"@openzeppelin/contracts/utils/math/SafeMath.sol\":3549:3554  a * b */\n      tag_254\n      swap2\n      swap1\n      tag_255\n      jump\t// in\n    tag_254:\n        /* \"@openzeppelin/contracts/utils/math/SafeMath.sol\":3542:3554  return a * b */\n      swap1\n      pop\n        /* \"@openzeppelin/contracts/utils/math/SafeMath.sol\":3465:3561  function mul(uint256 a, uint256 b) internal pure returns (uint256) {... */\n      swap3\n      swap2\n      pop\n      pop\n      jump\t// out\n        /* \"@openzeppelin/contracts/utils/math/SafeMath.sol\":3850:3946  function div(uint256 a, uint256 b) internal pure returns (uint256) {... */\n    tag_154:\n        /* \"@openzeppelin/contracts/utils/math/SafeMath.sol\":3908:3915  uint256 */\n      0x00\n        /* \"@openzeppelin/contracts/utils/math/SafeMath.sol\":3938:3939  b */\n      dup2\n        /* \"@openzeppelin/contracts/utils/math/SafeMath.sol\":3934:3935  a */\n      dup4\n        /* \"@openzeppelin/contracts/utils/math/SafeMath.sol\":3934:3939  a / b */\n      tag_257\n      swap2\n      swap1\n      tag_258\n      jump\t// in\n    tag_257:\n        /* \"@openzeppelin/contracts/utils/math/SafeMath.sol\":3927:3939  return a / b */\n      swap1\n      pop\n        /* \"@openzeppelin/contracts/utils/math/SafeMath.sol\":3850:3946  function div(uint256 a, uint256 b) internal pure returns (uint256) {... */\n      swap3\n      swap2\n      pop\n      pop\n      jump\t// out\n        /* \"minerpunk/ERC721A/ERC721A.sol\":7800:8911  function _ownershipOf(uint256 tokenId) internal view returns (TokenOwnership memory) {... */\n    tag_157:\n        /* \"minerpunk/ERC721A/ERC721A.sol\":7862:7883  TokenOwnership memory */\n      tag_259\n      tag_260\n      jump\t// in\n    tag_259:\n        /* \"minerpunk/ERC721A/ERC721A.sol\":7896:7908  uint256 curr */\n      0x00\n        /* \"minerpunk/ERC721A/ERC721A.sol\":7911:7918  tokenId */\n      dup3\n        /* \"minerpunk/ERC721A/ERC721A.sol\":7896:7918  uint256 curr = tokenId */\n      swap1\n      pop\n        /* \"minerpunk/ERC721A/ERC721A.sol\":7979:7983  curr */\n      dup1\n        /* \"minerpunk/ERC721A/ERC721A.sol\":7960:7975  _startTokenId() */\n      tag_262\n        /* \"minerpunk/ERC721A/ERC721A.sol\":7960:7973  _startTokenId */\n      tag_142\n        /* \"minerpunk/ERC721A/ERC721A.sol\":7960:7975  _startTokenId() */\n      jump\t// in\n    tag_262:\n        /* \"minerpunk/ERC721A/ERC721A.sol\":7960:7983  _startTokenId() <= curr */\n      gt\n        /* \"minerpunk/ERC721A/ERC721A.sol\":7956:8844  if (_startTokenId() <= curr) if (curr < _currentIndex) {... */\n      tag_263\n      jumpi\n        /* \"minerpunk/ERC721A/ERC721A.sol\":7996:8009  _currentIndex */\n      sload(0x04)\n        /* \"minerpunk/ERC721A/ERC721A.sol\":7989:7993  curr */\n      dup2\n        /* \"minerpunk/ERC721A/ERC721A.sol\":7989:8009  curr < _currentIndex */\n      lt\n        /* \"minerpunk/ERC721A/ERC721A.sol\":7985:8844  if (curr < _currentIndex) {... */\n      iszero\n      tag_264\n      jumpi\n        /* \"minerpunk/ERC721A/ERC721A.sol\":8030:8061  TokenOwnership memory ownership */\n      0x00\n        /* \"minerpunk/ERC721A/ERC721A.sol\":8064:8075  _ownerships */\n      0x09\n        /* \"minerpunk/ERC721A/ERC721A.sol\":8064:8081  _ownerships[curr] */\n      0x00\n        /* \"minerpunk/ERC721A/ERC721A.sol\":8076:8080  curr */\n      dup4\n        /* \"minerpunk/ERC721A/ERC721A.sol\":8064:8081  _ownerships[curr] */\n      dup2\n      mstore\n      0x20\n      add\n      swap1\n      dup2\n      mstore\n      0x20\n      add\n      0x00\n      keccak256\n        /* \"minerpunk/ERC721A/ERC721A.sol\":8030:8081  TokenOwnership memory ownership = _ownerships[curr] */\n      mload(0x40)\n      dup1\n      0x60\n      add\n      0x40\n      mstore\n      swap1\n      dup2\n      0x00\n      dup3\n      add\n      0x00\n      swap1\n      sload\n      swap1\n      0x0100\n      exp\n      swap1\n      div\n      0xffffffffffffffffffffffffffffffffffffffff\n      and\n      0xffffffffffffffffffffffffffffffffffffffff\n      and\n      0xffffffffffffffffffffffffffffffffffffffff\n      and\n      dup2\n      mstore\n      0x20\n      add\n      0x00\n      dup3\n      add\n      0x14\n      swap1\n      sload\n      swap1\n      0x0100\n      exp\n      swap1\n      div\n      0xffffffffffffffff\n      and\n      0xffffffffffffffff\n      and\n      0xffffffffffffffff\n      and\n      dup2\n      mstore\n      0x20\n      add\n      0x00\n      dup3\n      add\n      0x1c\n      swap1\n      sload\n      swap1\n      0x0100\n      exp\n      swap1\n      div\n      0xff\n      and\n      iszero\n      iszero\n      iszero\n      iszero\n      dup2\n      mstore\n      pop\n      pop\n      swap1\n      pop\n        /* \"minerpunk/ERC721A/ERC721A.sol\":8105:8114  ownership */\n      dup1\n        /* \"minerpunk/ERC721A/ERC721A.sol\":8105:8121  ownership.burned */\n      0x40\n      add\n      mload\n        /* \"minerpunk/ERC721A/ERC721A.sol\":8100:8829  if (!ownership.burned) {... */\n      tag_265\n      jumpi\n        /* \"minerpunk/ERC721A/ERC721A.sol\":8176:8177  0 */\n      0x00\n        /* \"minerpunk/ERC721A/ERC721A.sol\":8150:8178  ownership.addr != address(0) */\n      0xffffffffffffffffffffffffffffffffffffffff\n      and\n        /* \"minerpunk/ERC721A/ERC721A.sol\":8150:8159  ownership */\n      dup2\n        /* \"minerpunk/ERC721A/ERC721A.sol\":8150:8164  ownership.addr */\n      0x00\n      add\n      mload\n        /* \"minerpunk/ERC721A/ERC721A.sol\":8150:8178  ownership.addr != address(0) */\n      0xffffffffffffffffffffffffffffffffffffffff\n      and\n      eq\n        /* \"minerpunk/ERC721A/ERC721A.sol\":8146:8247  if (ownership.addr != address(0)) {... */\n      tag_266\n      jumpi\n        /* \"minerpunk/ERC721A/ERC721A.sol\":8214:8223  ownership */\n      dup1\n        /* \"minerpunk/ERC721A/ERC721A.sol\":8207:8223  return ownership */\n      swap3\n      pop\n      pop\n      pop\n      jump(tag_261)\n        /* \"minerpunk/ERC721A/ERC721A.sol\":8146:8247  if (ownership.addr != address(0)) {... */\n    tag_266:\n        /* \"minerpunk/ERC721A/ERC721A.sol\":8549:8810  while (true) {... */\n    tag_267:\n        /* \"minerpunk/ERC721A/ERC721A.sol\":8556:8560  true */\n      0x01\n        /* \"minerpunk/ERC721A/ERC721A.sol\":8549:8810  while (true) {... */\n      iszero\n      tag_268\n      jumpi\n        /* \"minerpunk/ERC721A/ERC721A.sol\":8589:8595  curr-- */\n      dup2\n      dup1\n      0x01\n      swap1\n      sub\n      swap3\n      pop\n      pop\n        /* \"minerpunk/ERC721A/ERC721A.sol\":8634:8645  _ownerships */\n      0x09\n        /* \"minerpunk/ERC721A/ERC721A.sol\":8634:8651  _ownerships[curr] */\n      0x00\n        /* \"minerpunk/ERC721A/ERC721A.sol\":8646:8650  curr */\n      dup4\n        /* \"minerpunk/ERC721A/ERC721A.sol\":8634:8651  _ownerships[curr] */\n      dup2\n      mstore\n      0x20\n      add\n      swap1\n      dup2\n      mstore\n      0x20\n      add\n      0x00\n      keccak256\n        /* \"minerpunk/ERC721A/ERC721A.sol\":8622:8651  ownership = _ownerships[curr] */\n      mload(0x40)\n      dup1\n      0x60\n      add\n      0x40\n      mstore\n      swap1\n      dup2\n      0x00\n      dup3\n      add\n      0x00\n      swap1\n      sload\n      swap1\n      0x0100\n      exp\n      swap1\n      div\n      0xffffffffffffffffffffffffffffffffffffffff\n      and\n      0xffffffffffffffffffffffffffffffffffffffff\n      and\n      0xffffffffffffffffffffffffffffffffffffffff\n      and\n      dup2\n      mstore\n      0x20\n      add\n      0x00\n      dup3\n      add\n      0x14\n      swap1\n      sload\n      swap1\n      0x0100\n      exp\n      swap1\n      div\n      0xffffffffffffffff\n      and\n      0xffffffffffffffff\n      and\n      0xffffffffffffffff\n      and\n      dup2\n      mstore\n      0x20\n      add\n      0x00\n      dup3\n      add\n      0x1c\n      swap1\n      sload\n      swap1\n      0x0100\n      exp\n      swap1\n      div\n      0xff\n      and\n      iszero\n      iszero\n      iszero\n      iszero\n      dup2\n      mstore\n      pop\n      pop\n      swap1\n      pop\n        /* \"minerpunk/ERC721A/ERC721A.sol\":8708:8709  0 */\n      0x00\n        /* \"minerpunk/ERC721A/ERC721A.sol\":8682:8710  ownership.addr != address(0) */\n      0xffffffffffffffffffffffffffffffffffffffff\n      and\n        /* \"minerpunk/ERC721A/ERC721A.sol\":8682:8691  ownership */\n      dup2\n        /* \"minerpunk/ERC721A/ERC721A.sol\":8682:8696  ownership.addr */\n      0x00\n      add\n      mload\n        /* \"minerpunk/ERC721A/ERC721A.sol\":8682:8710  ownership.addr != address(0) */\n      0xffffffffffffffffffffffffffffffffffffffff\n      and\n      eq\n        /* \"minerpunk/ERC721A/ERC721A.sol\":8678:8787  if (ownership.addr != address(0)) {... */\n      tag_269\n      jumpi\n        /* \"minerpunk/ERC721A/ERC721A.sol\":8750:8759  ownership */\n      dup1\n        /* \"minerpunk/ERC721A/ERC721A.sol\":8743:8759  return ownership */\n      swap3\n      pop\n      pop\n      pop\n      jump(tag_261)\n        /* \"minerpunk/ERC721A/ERC721A.sol\":8678:8787  if (ownership.addr != address(0)) {... */\n    tag_269:\n        /* \"minerpunk/ERC721A/ERC721A.sol\":8549:8810  while (true) {... */\n      jump(tag_267)\n    tag_268:\n        /* \"minerpunk/ERC721A/ERC721A.sol\":8100:8829  if (!ownership.burned) {... */\n    tag_265:\n        /* \"minerpunk/ERC721A/ERC721A.sol\":8011:8844  {... */\n      pop\n        /* \"minerpunk/ERC721A/ERC721A.sol\":7985:8844  if (curr < _currentIndex) {... */\n    tag_264:\n        /* \"minerpunk/ERC721A/ERC721A.sol\":7956:8844  if (_startTokenId() <= curr) if (curr < _currentIndex) {... */\n    tag_263:\n        /* \"minerpunk/ERC721A/ERC721A.sol\":8872:8903  OwnerQueryForNonexistentToken() */\n      mload(0x40)\n      0xdf2d9b4200000000000000000000000000000000000000000000000000000000\n      dup2\n      mstore\n      0x04\n      add\n      mload(0x40)\n      dup1\n      swap2\n      sub\n      swap1\n      revert\n        /* \"minerpunk/ERC721A/ERC721A.sol\":7800:8911  function _ownershipOf(uint256 tokenId) internal view returns (TokenOwnership memory) {... */\n    tag_261:\n      swap2\n      swap1\n      pop\n      jump\t// out\n        /* \"@openzeppelin/contracts/utils/Address.sol\":1175:1495  function isContract(address account) internal view returns (bool) {... */\n    tag_175:\n        /* \"@openzeppelin/contracts/utils/Address.sol\":1235:1239  bool */\n      0x00\n        /* \"@openzeppelin/contracts/utils/Address.sol\":1487:1488  0 */\n      dup1\n        /* \"@openzeppelin/contracts/utils/Address.sol\":1465:1472  account */\n      dup3\n        /* \"@openzeppelin/contracts/utils/Address.sol\":1465:1484  account.code.length */\n      0xffffffffffffffffffffffffffffffffffffffff\n      and\n      extcodesize\n        /* \"@openzeppelin/contracts/utils/Address.sol\":1465:1488  account.code.length > 0 */\n      gt\n        /* \"@openzeppelin/contracts/utils/Address.sol\":1458:1488  return account.code.length > 0 */\n      swap1\n      pop\n        /* \"@openzeppelin/contracts/utils/Address.sol\":1175:1495  function isContract(address account) internal view returns (bool) {... */\n      swap2\n      swap1\n      pop\n      jump\t// out\n        /* \"minerpunk/ERC721A/ERC721A.sol\":22398:23065  function _checkContractOnERC721Received(... */\n    tag_178:\n        /* \"minerpunk/ERC721A/ERC721A.sol\":22561:22565  bool */\n      0x00\n        /* \"minerpunk/ERC721A/ERC721A.sol\":22598:22600  to */\n      dup4\n        /* \"minerpunk/ERC721A/ERC721A.sol\":22582:22618  IERC721Receiver(to).onERC721Received */\n      0xffffffffffffffffffffffffffffffffffffffff\n      and\n      0x150b7a02\n        /* \"minerpunk/ERC721A/ERC721A.sol\":22619:22631  _msgSender() */\n      tag_272\n        /* \"minerpunk/ERC721A/ERC721A.sol\":22619:22629  _msgSender */\n      tag_133\n        /* \"minerpunk/ERC721A/ERC721A.sol\":22619:22631  _msgSender() */\n      jump\t// in\n    tag_272:\n        /* \"minerpunk/ERC721A/ERC721A.sol\":22633:22637  from */\n      dup8\n        /* \"minerpunk/ERC721A/ERC721A.sol\":22639:22646  tokenId */\n      dup7\n        /* \"minerpunk/ERC721A/ERC721A.sol\":22648:22653  _data */\n      dup7\n        /* \"minerpunk/ERC721A/ERC721A.sol\":22582:22654  IERC721Receiver(to).onERC721Received(_msgSender(), from, tokenId, _data) */\n      mload(0x40)\n      dup6\n      0xffffffff\n      and\n      0xe0\n      shl\n      dup2\n      mstore\n      0x04\n      add\n      tag_273\n      swap5\n      swap4\n      swap3\n      swap2\n      swap1\n      tag_274\n      jump\t// in\n    tag_273:\n      0x20\n      mload(0x40)\n      dup1\n      dup4\n      sub\n      dup2\n      0x00\n      dup8\n      gas\n      call\n      swap3\n      pop\n      pop\n      pop\n      dup1\n      iszero\n      tag_275\n      jumpi\n      pop\n      mload(0x40)\n      returndatasize\n      not(0x1f)\n      0x1f\n      dup3\n      add\n      and\n      dup3\n      add\n      dup1\n      0x40\n      mstore\n      pop\n      dup2\n      add\n      swap1\n      tag_276\n      swap2\n      swap1\n      tag_277\n      jump\t// in\n    tag_276:\n      0x01\n    tag_275:\n        /* \"minerpunk/ERC721A/ERC721A.sol\":22578:23058  try IERC721Receiver(to).onERC721Received(_msgSender(), from, tokenId, _data) returns (bytes4 retval) {... */\n      tag_278\n      jumpi\n      returndatasize\n      dup1\n      0x00\n      dup2\n      eq\n      tag_283\n      jumpi\n      mload(0x40)\n      swap2\n      pop\n      and(add(returndatasize, 0x3f), not(0x1f))\n      dup3\n      add\n      0x40\n      mstore\n      returndatasize\n      dup3\n      mstore\n      returndatasize\n      0x00\n      0x20\n      dup5\n      add\n      returndatacopy\n      jump(tag_282)\n    tag_283:\n      0x60\n      swap2\n      pop\n    tag_282:\n      pop\n        /* \"minerpunk/ERC721A/ERC721A.sol\":22833:22834  0 */\n      0x00\n        /* \"minerpunk/ERC721A/ERC721A.sol\":22816:22822  reason */\n      dup2\n        /* \"minerpunk/ERC721A/ERC721A.sol\":22816:22829  reason.length */\n      mload\n        /* \"minerpunk/ERC721A/ERC721A.sol\":22816:22834  reason.length == 0 */\n      sub\n        /* \"minerpunk/ERC721A/ERC721A.sol\":22812:23047  if (reason.length == 0) {... */\n      tag_284\n      jumpi\n        /* \"minerpunk/ERC721A/ERC721A.sol\":22862:22902  TransferToNonERC721ReceiverImplementer() */\n      mload(0x40)\n      0xd1a57ed600000000000000000000000000000000000000000000000000000000\n      dup2\n      mstore\n      0x04\n      add\n      mload(0x40)\n      dup1\n      swap2\n      sub\n      swap1\n      revert\n        /* \"minerpunk/ERC721A/ERC721A.sol\":22812:23047  if (reason.length == 0) {... */\n    tag_284:\n        /* \"minerpunk/ERC721A/ERC721A.sol\":23005:23011  reason */\n      dup1\n        /* \"minerpunk/ERC721A/ERC721A.sol\":22999:23012  mload(reason) */\n      mload\n        /* \"minerpunk/ERC721A/ERC721A.sol\":22990:22996  reason */\n      dup2\n        /* \"minerpunk/ERC721A/ERC721A.sol\":22986:22988  32 */\n      0x20\n        /* \"minerpunk/ERC721A/ERC721A.sol\":22982:22997  add(32, reason) */\n      add\n        /* \"minerpunk/ERC721A/ERC721A.sol\":22975:23013  revert(add(32, reason), mload(reason)) */\n      revert\n        /* \"minerpunk/ERC721A/ERC721A.sol\":22578:23058  try IERC721Receiver(to).onERC721Received(_msgSender(), from, tokenId, _data) returns (bytes4 retval) {... */\n    tag_278:\n        /* \"minerpunk/ERC721A/ERC721A.sol\":22711:22756  IERC721Receiver(to).onERC721Received.selector */\n      shl(0xe0, 0x150b7a02)\n        /* \"minerpunk/ERC721A/ERC721A.sol\":22701:22756  retval == IERC721Receiver(to).onERC721Received.selector */\n      not(0xffffffffffffffffffffffffffffffffffffffffffffffffffffffff)\n      and\n        /* \"minerpunk/ERC721A/ERC721A.sol\":22701:22707  retval */\n      dup2\n        /* \"minerpunk/ERC721A/ERC721A.sol\":22701:22756  retval == IERC721Receiver(to).onERC721Received.selector */\n      not(0xffffffffffffffffffffffffffffffffffffffffffffffffffffffff)\n      and\n      eq\n        /* \"minerpunk/ERC721A/ERC721A.sol\":22694:22756  return retval == IERC721Receiver(to).onERC721Received.selector */\n      swap2\n      pop\n      pop\n        /* \"minerpunk/ERC721A/ERC721A.sol\":22398:23065  function _checkContractOnERC721Received(... */\n      swap5\n      swap4\n      pop\n      pop\n      pop\n      pop\n      jump\t// out\n        /* \"@openzeppelin/contracts/utils/math/SafeMath.sol\":3122:3218  function sub(uint256 a, uint256 b) internal pure returns (uint256) {... */\n    tag_182:\n        /* \"@openzeppelin/contracts/utils/math/SafeMath.sol\":3180:3187  uint256 */\n      0x00\n        /* \"@openzeppelin/contracts/utils/math/SafeMath.sol\":3210:3211  b */\n      dup2\n        /* \"@openzeppelin/contracts/utils/math/SafeMath.sol\":3206:3207  a */\n      dup4\n        /* \"@openzeppelin/contracts/utils/math/SafeMath.sol\":3206:3211  a - b */\n      tag_288\n      swap2\n      swap1\n      tag_289\n      jump\t// in\n    tag_288:\n        /* \"@openzeppelin/contracts/utils/math/SafeMath.sol\":3199:3211  return a - b */\n      swap1\n      pop\n        /* \"@openzeppelin/contracts/utils/math/SafeMath.sol\":3122:3218  function sub(uint256 a, uint256 b) internal pure returns (uint256) {... */\n      swap3\n      swap2\n      pop\n      pop\n      jump\t// out\n        /* \"@openzeppelin/contracts/utils/math/SafeMath.sol\":2755:2851  function add(uint256 a, uint256 b) internal pure returns (uint256) {... */\n    tag_188:\n        /* \"@openzeppelin/contracts/utils/math/SafeMath.sol\":2813:2820  uint256 */\n      0x00\n        /* \"@openzeppelin/contracts/utils/math/SafeMath.sol\":2843:2844  b */\n      dup2\n        /* \"@openzeppelin/contracts/utils/math/SafeMath.sol\":2839:2840  a */\n      dup4\n        /* \"@openzeppelin/contracts/utils/math/SafeMath.sol\":2839:2844  a + b */\n      tag_291\n      swap2\n      swap1\n      tag_292\n      jump\t// in\n    tag_291:\n        /* \"@openzeppelin/contracts/utils/math/SafeMath.sol\":2832:2844  return a + b */\n      swap1\n      pop\n        /* \"@openzeppelin/contracts/utils/math/SafeMath.sol\":2755:2851  function add(uint256 a, uint256 b) internal pure returns (uint256) {... */\n      swap3\n      swap2\n      pop\n      pop\n      jump\t// out\n        /* \"minerpunk/ERC721A/ERC721A.sol\":10075:10260  function _baseURI() internal view virtual returns (string memory) {... */\n    tag_196:\n        /* \"minerpunk/ERC721A/ERC721A.sol\":10126:10139  string memory */\n      0x60\n        /* \"minerpunk/ERC721A/ERC721A.sol\":10152:10242  return 'https://gateway.pinata.cloud/ipfs/QmeN77SqTYErXdMQ4hL41b1faGxAKt4QWA5NGVFuZu9xHn/' */\n      mload(0x40)\n      dup1\n      0x80\n      add\n      0x40\n      mstore\n      dup1\n      0x51\n      dup2\n      mstore\n      0x20\n      add\n      data_d8cc7cbf95b52afa2322fac553d3c4e20f5096fb87da64785a945de91007c7b2\n      0x51\n      swap2\n      codecopy\n      swap1\n      pop\n        /* \"minerpunk/ERC721A/ERC721A.sol\":10075:10260  function _baseURI() internal view virtual returns (string memory) {... */\n      swap1\n      jump\t// out\n        /* \"@openzeppelin/contracts/utils/Strings.sol\":392:1095  function toString(uint256 value) internal pure returns (string memory) {... */\n    tag_200:\n        /* \"@openzeppelin/contracts/utils/Strings.sol\":448:461  string memory */\n      0x60\n        /* \"@openzeppelin/contracts/utils/Strings.sol\":674:675  0 */\n      0x00\n        /* \"@openzeppelin/contracts/utils/Strings.sol\":665:670  value */\n      dup3\n        /* \"@openzeppelin/contracts/utils/Strings.sol\":665:675  value == 0 */\n      sub\n        /* \"@openzeppelin/contracts/utils/Strings.sol\":661:712  if (value == 0) {... */\n      tag_295\n      jumpi\n        /* \"@openzeppelin/contracts/utils/Strings.sol\":691:701  return \"0\" */\n      mload(0x40)\n      dup1\n      0x40\n      add\n      0x40\n      mstore\n      dup1\n      0x01\n      dup2\n      mstore\n      0x20\n      add\n      0x3000000000000000000000000000000000000000000000000000000000000000\n      dup2\n      mstore\n      pop\n      swap1\n      pop\n      jump(tag_294)\n        /* \"@openzeppelin/contracts/utils/Strings.sol\":661:712  if (value == 0) {... */\n    tag_295:\n        /* \"@openzeppelin/contracts/utils/Strings.sol\":721:733  uint256 temp */\n      0x00\n        /* \"@openzeppelin/contracts/utils/Strings.sol\":736:741  value */\n      dup3\n        /* \"@openzeppelin/contracts/utils/Strings.sol\":721:741  uint256 temp = value */\n      swap1\n      pop\n        /* \"@openzeppelin/contracts/utils/Strings.sol\":751:765  uint256 digits */\n      0x00\n        /* \"@openzeppelin/contracts/utils/Strings.sol\":775:850  while (temp != 0) {... */\n    tag_296:\n        /* \"@openzeppelin/contracts/utils/Strings.sol\":790:791  0 */\n      0x00\n        /* \"@openzeppelin/contracts/utils/Strings.sol\":782:786  temp */\n      dup3\n        /* \"@openzeppelin/contracts/utils/Strings.sol\":782:791  temp != 0 */\n      eq\n        /* \"@openzeppelin/contracts/utils/Strings.sol\":775:850  while (temp != 0) {... */\n      tag_297\n      jumpi\n        /* \"@openzeppelin/contracts/utils/Strings.sol\":807:815  digits++ */\n      dup1\n      dup1\n      tag_298\n      swap1\n      tag_299\n      jump\t// in\n    tag_298:\n      swap2\n      pop\n      pop\n        /* \"@openzeppelin/contracts/utils/Strings.sol\":837:839  10 */\n      0x0a\n        /* \"@openzeppelin/contracts/utils/Strings.sol\":829:839  temp /= 10 */\n      dup3\n      tag_300\n      swap2\n      swap1\n      tag_258\n      jump\t// in\n    tag_300:\n      swap2\n      pop\n        /* \"@openzeppelin/contracts/utils/Strings.sol\":775:850  while (temp != 0) {... */\n      jump(tag_296)\n    tag_297:\n        /* \"@openzeppelin/contracts/utils/Strings.sol\":859:878  bytes memory buffer */\n      0x00\n        /* \"@openzeppelin/contracts/utils/Strings.sol\":891:897  digits */\n      dup2\n        /* \"@openzeppelin/contracts/utils/Strings.sol\":881:898  new bytes(digits) */\n      0xffffffffffffffff\n      dup2\n      gt\n      iszero\n      tag_301\n      jumpi\n      tag_302\n      tag_303\n      jump\t// in\n    tag_302:\n    tag_301:\n      mload(0x40)\n      swap1\n      dup1\n      dup3\n      mstore\n      dup1\n      0x1f\n      add\n      not(0x1f)\n      and\n      0x20\n      add\n      dup3\n      add\n      0x40\n      mstore\n      dup1\n      iszero\n      tag_304\n      jumpi\n      dup2\n      0x20\n      add\n      0x01\n      dup3\n      mul\n      dup1\n      calldatasize\n      dup4\n      calldatacopy\n      dup1\n      dup3\n      add\n      swap2\n      pop\n      pop\n      swap1\n      pop\n    tag_304:\n      pop\n        /* \"@openzeppelin/contracts/utils/Strings.sol\":859:898  bytes memory buffer = new bytes(digits) */\n      swap1\n      pop\n        /* \"@openzeppelin/contracts/utils/Strings.sol\":908:1058  while (value != 0) {... */\n    tag_305:\n        /* \"@openzeppelin/contracts/utils/Strings.sol\":924:925  0 */\n      0x00\n        /* \"@openzeppelin/contracts/utils/Strings.sol\":915:920  value */\n      dup6\n        /* \"@openzeppelin/contracts/utils/Strings.sol\":915:925  value != 0 */\n      eq\n        /* \"@openzeppelin/contracts/utils/Strings.sol\":908:1058  while (value != 0) {... */\n      tag_306\n      jumpi\n        /* \"@openzeppelin/contracts/utils/Strings.sol\":951:952  1 */\n      0x01\n        /* \"@openzeppelin/contracts/utils/Strings.sol\":941:952  digits -= 1 */\n      dup3\n      tag_307\n      swap2\n      swap1\n      tag_289\n      jump\t// in\n    tag_307:\n      swap2\n      pop\n        /* \"@openzeppelin/contracts/utils/Strings.sol\":1017:1019  10 */\n      0x0a\n        /* \"@openzeppelin/contracts/utils/Strings.sol\":1009:1014  value */\n      dup6\n        /* \"@openzeppelin/contracts/utils/Strings.sol\":1009:1019  value % 10 */\n      tag_308\n      swap2\n      swap1\n      tag_215\n      jump\t// in\n    tag_308:\n        /* \"@openzeppelin/contracts/utils/Strings.sol\":996:998  48 */\n      0x30\n        /* \"@openzeppelin/contracts/utils/Strings.sol\":996:1020  48 + uint256(value % 10) */\n      tag_309\n      swap2\n      swap1\n      tag_292\n      jump\t// in\n    tag_309:\n        /* \"@openzeppelin/contracts/utils/Strings.sol\":983:1022  bytes1(uint8(48 + uint256(value % 10))) */\n      0xf8\n      shl\n        /* \"@openzeppelin/contracts/utils/Strings.sol\":966:972  buffer */\n      dup2\n        /* \"@openzeppelin/contracts/utils/Strings.sol\":973:979  digits */\n      dup4\n        /* \"@openzeppelin/contracts/utils/Strings.sol\":966:980  buffer[digits] */\n      dup2\n      mload\n      dup2\n      lt\n      tag_310\n      jumpi\n      tag_311\n      tag_312\n      jump\t// in\n    tag_311:\n    tag_310:\n      0x20\n      add\n      add\n        /* \"@openzeppelin/contracts/utils/Strings.sol\":966:1022  buffer[digits] = bytes1(uint8(48 + uint256(value % 10))) */\n      swap1\n      not(0xffffffffffffffffffffffffffffffffffffffffffffffffffffffffffffff)\n      and\n      swap1\n      dup2\n      0x00\n      byte\n      swap1\n      mstore8\n      pop\n        /* \"@openzeppelin/contracts/utils/Strings.sol\":1045:1047  10 */\n      0x0a\n        /* \"@openzeppelin/contracts/utils/Strings.sol\":1036:1047  value /= 10 */\n      dup6\n      tag_313\n      swap2\n      swap1\n      tag_258\n      jump\t// in\n    tag_313:\n      swap5\n      pop\n        /* \"@openzeppelin/contracts/utils/Strings.sol\":908:1058  while (value != 0) {... */\n      jump(tag_305)\n    tag_306:\n        /* \"@openzeppelin/contracts/utils/Strings.sol\":1081:1087  buffer */\n      dup1\n        /* \"@openzeppelin/contracts/utils/Strings.sol\":1067:1088  return string(buffer) */\n      swap4\n      pop\n      pop\n      pop\n      pop\n        /* \"@openzeppelin/contracts/utils/Strings.sol\":392:1095  function toString(uint256 value) internal pure returns (string memory) {... */\n    tag_294:\n      swap2\n      swap1\n      pop\n      jump\t// out\n        /* \"minerpunk/ERC721A/ERC721A.sol\":23713:23872  function _beforeTokenTransfers(... */\n    tag_247:\n      pop\n      pop\n      pop\n      pop\n      jump\t// out\n        /* \"minerpunk/ERC721A/ERC721A.sol\":24531:24689  function _afterTokenTransfers(... */\n    tag_252:\n      pop\n      pop\n      pop\n      pop\n      jump\t// out\n    tag_260:\n      mload(0x40)\n      dup1\n      0x60\n      add\n      0x40\n      mstore\n      dup1\n      and(0xffffffffffffffffffffffffffffffffffffffff, 0x00)\n      dup2\n      mstore\n      0x20\n      add\n      and(0xffffffffffffffff, 0x00)\n      dup2\n      mstore\n      0x20\n      add\n      iszero(iszero(0x00))\n      dup2\n      mstore\n      pop\n      swap1\n      jump\t// out\n        /* \"#utility.yul\":7:82   */\n    tag_316:\n        /* \"#utility.yul\":40:46   */\n      0x00\n        /* \"#utility.yul\":73:75   */\n      0x40\n        /* \"#utility.yul\":67:76   */\n      mload\n        /* \"#utility.yul\":57:76   */\n      swap1\n      pop\n        /* \"#utility.yul\":7:82   */\n      swap1\n      jump\t// out\n        /* \"#utility.yul\":88:205   */\n    tag_317:\n        /* \"#utility.yul\":197:198   */\n      0x00\n        /* \"#utility.yul\":194:195   */\n      dup1\n        /* \"#utility.yul\":187:199   */\n      revert\n        /* \"#utility.yul\":211:328   */\n    tag_318:\n        /* \"#utility.yul\":320:321   */\n      0x00\n        /* \"#utility.yul\":317:318   */\n      dup1\n        /* \"#utility.yul\":310:322   */\n      revert\n        /* \"#utility.yul\":334:483   */\n    tag_319:\n        /* \"#utility.yul\":370:377   */\n      0x00\n        /* \"#utility.yul\":410:476   */\n      0xffffffff00000000000000000000000000000000000000000000000000000000\n        /* \"#utility.yul\":403:408   */\n      dup3\n        /* \"#utility.yul\":399:477   */\n      and\n        /* \"#utility.yul\":388:477   */\n      swap1\n      pop\n        /* \"#utility.yul\":334:483   */\n      swap2\n      swap1\n      pop\n      jump\t// out\n        /* \"#utility.yul\":489:609   */\n    tag_320:\n        /* \"#utility.yul\":561:584   */\n      tag_367\n        /* \"#utility.yul\":578:583   */\n      dup2\n        /* \"#utility.yul\":561:584   */\n      tag_319\n      jump\t// in\n    tag_367:\n        /* \"#utility.yul\":554:559   */\n      dup2\n        /* \"#utility.yul\":551:585   */\n      eq\n        /* \"#utility.yul\":541:603   */\n      tag_368\n      jumpi\n        /* \"#utility.yul\":599:600   */\n      0x00\n        /* \"#utility.yul\":596:597   */\n      dup1\n        /* \"#utility.yul\":589:601   */\n      revert\n        /* \"#utility.yul\":541:603   */\n    tag_368:\n        /* \"#utility.yul\":489:609   */\n      pop\n      jump\t// out\n        /* \"#utility.yul\":615:752   */\n    tag_321:\n        /* \"#utility.yul\":660:665   */\n      0x00\n        /* \"#utility.yul\":698:704   */\n      dup2\n        /* \"#utility.yul\":685:705   */\n      calldataload\n        /* \"#utility.yul\":676:705   */\n      swap1\n      pop\n        /* \"#utility.yul\":714:746   */\n      tag_370\n        /* \"#utility.yul\":740:745   */\n      dup2\n        /* \"#utility.yul\":714:746   */\n      tag_320\n      jump\t// in\n    tag_370:\n        /* \"#utility.yul\":615:752   */\n      swap3\n      swap2\n      pop\n      pop\n      jump\t// out\n        /* \"#utility.yul\":758:1085   */\n    tag_29:\n        /* \"#utility.yul\":816:822   */\n      0x00\n        /* \"#utility.yul\":865:867   */\n      0x20\n        /* \"#utility.yul\":853:862   */\n      dup3\n        /* \"#utility.yul\":844:851   */\n      dup5\n        /* \"#utility.yul\":840:863   */\n      sub\n        /* \"#utility.yul\":836:868   */\n      slt\n        /* \"#utility.yul\":833:952   */\n      iszero\n      tag_372\n      jumpi\n        /* \"#utility.yul\":871:950   */\n      tag_373\n      tag_317\n      jump\t// in\n    tag_373:\n        /* \"#utility.yul\":833:952   */\n    tag_372:\n        /* \"#utility.yul\":991:992   */\n      0x00\n        /* \"#utility.yul\":1016:1068   */\n      tag_374\n        /* \"#utility.yul\":1060:1067   */\n      dup5\n        /* \"#utility.yul\":1051:1057   */\n      dup3\n        /* \"#utility.yul\":1040:1049   */\n      dup6\n        /* \"#utility.yul\":1036:1058   */\n      add\n        /* \"#utility.yul\":1016:1068   */\n      tag_321\n      jump\t// in\n    tag_374:\n        /* \"#utility.yul\":1006:1068   */\n      swap2\n      pop\n        /* \"#utility.yul\":962:1078   */\n      pop\n        /* \"#utility.yul\":758:1085   */\n      swap3\n      swap2\n      pop\n      pop\n      jump\t// out\n        /* \"#utility.yul\":1091:1181   */\n    tag_322:\n        /* \"#utility.yul\":1125:1132   */\n      0x00\n        /* \"#utility.yul\":1168:1173   */\n      dup2\n        /* \"#utility.yul\":1161:1174   */\n      iszero\n        /* \"#utility.yul\":1154:1175   */\n      iszero\n        /* \"#utility.yul\":1143:1175   */\n      swap1\n      pop\n        /* \"#utility.yul\":1091:1181   */\n      swap2\n      swap1\n      pop\n      jump\t// out\n        /* \"#utility.yul\":1187:1296   */\n    tag_323:\n        /* \"#utility.yul\":1268:1289   */\n      tag_377\n        /* \"#utility.yul\":1283:1288   */\n      dup2\n        /* \"#utility.yul\":1268:1289   */\n      tag_322\n      jump\t// in\n    tag_377:\n        /* \"#utility.yul\":1263:1266   */\n      dup3\n        /* \"#utility.yul\":1256:1290   */\n      mstore\n        /* \"#utility.yul\":1187:1296   */\n      pop\n      pop\n      jump\t// out\n        /* \"#utility.yul\":1302:1512   */\n    tag_32:\n        /* \"#utility.yul\":1389:1393   */\n      0x00\n        /* \"#utility.yul\":1427:1429   */\n      0x20\n        /* \"#utility.yul\":1416:1425   */\n      dup3\n        /* \"#utility.yul\":1412:1430   */\n      add\n        /* \"#utility.yul\":1404:1430   */\n      swap1\n      pop\n        /* \"#utility.yul\":1440:1505   */\n      tag_379\n        /* \"#utility.yul\":1502:1503   */\n      0x00\n        /* \"#utility.yul\":1491:1500   */\n      dup4\n        /* \"#utility.yul\":1487:1504   */\n      add\n        /* \"#utility.yul\":1478:1484   */\n      dup5\n        /* \"#utility.yul\":1440:1505   */\n      tag_323\n      jump\t// in\n    tag_379:\n        /* \"#utility.yul\":1302:1512   */\n      swap3\n      swap2\n      pop\n      pop\n      jump\t// out\n        /* \"#utility.yul\":1518:1617   */\n    tag_324:\n        /* \"#utility.yul\":1570:1576   */\n      0x00\n        /* \"#utility.yul\":1604:1609   */\n      dup2\n        /* \"#utility.yul\":1598:1610   */\n      mload\n        /* \"#utility.yul\":1588:1610   */\n      swap1\n      pop\n        /* \"#utility.yul\":1518:1617   */\n      swap2\n      swap1\n      pop\n      jump\t// out\n        /* \"#utility.yul\":1623:1792   */\n    tag_325:\n        /* \"#utility.yul\":1707:1718   */\n      0x00\n        /* \"#utility.yul\":1741:1747   */\n      dup3\n        /* \"#utility.yul\":1736:1739   */\n      dup3\n        /* \"#utility.yul\":1729:1748   */\n      mstore\n        /* \"#utility.yul\":1781:1785   */\n      0x20\n        /* \"#utility.yul\":1776:1779   */\n      dup3\n        /* \"#utility.yul\":1772:1786   */\n      add\n        /* \"#utility.yul\":1757:1786   */\n      swap1\n      pop\n        /* \"#utility.yul\":1623:1792   */\n      swap3\n      swap2\n      pop\n      pop\n      jump\t// out\n        /* \"#utility.yul\":1798:2044   */\n    tag_326:\n        /* \"#utility.yul\":1879:1880   */\n      0x00\n        /* \"#utility.yul\":1889:2002   */\n    tag_383:\n        /* \"#utility.yul\":1903:1909   */\n      dup4\n        /* \"#utility.yul\":1900:1901   */\n      dup2\n        /* \"#utility.yul\":1897:1910   */\n      lt\n        /* \"#utility.yul\":1889:2002   */\n      iszero\n      tag_385\n      jumpi\n        /* \"#utility.yul\":1988:1989   */\n      dup1\n        /* \"#utility.yul\":1983:1986   */\n      dup3\n        /* \"#utility.yul\":1979:1990   */\n      add\n        /* \"#utility.yul\":1973:1991   */\n      mload\n        /* \"#utility.yul\":1969:1970   */\n      dup2\n        /* \"#utility.yul\":1964:1967   */\n      dup5\n        /* \"#utility.yul\":1960:1971   */\n      add\n        /* \"#utility.yul\":1953:1992   */\n      mstore\n        /* \"#utility.yul\":1925:1927   */\n      0x20\n        /* \"#utility.yul\":1922:1923   */\n      dup2\n        /* \"#utility.yul\":1918:1928   */\n      add\n        /* \"#utility.yul\":1913:1928   */\n      swap1\n      pop\n        /* \"#utility.yul\":1889:2002   */\n      jump(tag_383)\n    tag_385:\n        /* \"#utility.yul\":2036:2037   */\n      0x00\n        /* \"#utility.yul\":2027:2033   */\n      dup5\n        /* \"#utility.yul\":2022:2025   */\n      dup5\n        /* \"#utility.yul\":2018:2034   */\n      add\n        /* \"#utility.yul\":2011:2038   */\n      mstore\n        /* \"#utility.yul\":1860:2044   */\n      pop\n        /* \"#utility.yul\":1798:2044   */\n      pop\n      pop\n      pop\n      jump\t// out\n        /* \"#utility.yul\":2050:2152   */\n    tag_327:\n        /* \"#utility.yul\":2091:2097   */\n      0x00\n        /* \"#utility.yul\":2142:2144   */\n      0x1f\n        /* \"#utility.yul\":2138:2145   */\n      not\n        /* \"#utility.yul\":2133:2135   */\n      0x1f\n        /* \"#utility.yul\":2126:2131   */\n      dup4\n        /* \"#utility.yul\":2122:2136   */\n      add\n        /* \"#utility.yul\":2118:2146   */\n      and\n        /* \"#utility.yul\":2108:2146   */\n      swap1\n      pop\n        /* \"#utility.yul\":2050:2152   */\n      swap2\n      swap1\n      pop\n      jump\t// out\n        /* \"#utility.yul\":2158:2535   */\n    tag_328:\n        /* \"#utility.yul\":2246:2249   */\n      0x00\n        /* \"#utility.yul\":2274:2313   */\n      tag_388\n        /* \"#utility.yul\":2307:2312   */\n      dup3\n        /* \"#utility.yul\":2274:2313   */\n      tag_324\n      jump\t// in\n    tag_388:\n        /* \"#utility.yul\":2329:2400   */\n      tag_389\n        /* \"#utility.yul\":2393:2399   */\n      dup2\n        /* \"#utility.yul\":2388:2391   */\n      dup6\n        /* \"#utility.yul\":2329:2400   */\n      tag_325\n      jump\t// in\n    tag_389:\n        /* \"#utility.yul\":2322:2400   */\n      swap4\n      pop\n        /* \"#utility.yul\":2409:2474   */\n      tag_390\n        /* \"#utility.yul\":2467:2473   */\n      dup2\n        /* \"#utility.yul\":2462:2465   */\n      dup6\n        /* \"#utility.yul\":2455:2459   */\n      0x20\n        /* \"#utility.yul\":2448:2453   */\n      dup7\n        /* \"#utility.yul\":2444:2460   */\n      add\n        /* \"#utility.yul\":2409:2474   */\n      tag_326\n      jump\t// in\n    tag_390:\n        /* \"#utility.yul\":2499:2528   */\n      tag_391\n        /* \"#utility.yul\":2521:2527   */\n      dup2\n        /* \"#utility.yul\":2499:2528   */\n      tag_327\n      jump\t// in\n    tag_391:\n        /* \"#utility.yul\":2494:2497   */\n      dup5\n        /* \"#utility.yul\":2490:2529   */\n      add\n        /* \"#utility.yul\":2483:2529   */\n      swap2\n      pop\n        /* \"#utility.yul\":2250:2535   */\n      pop\n        /* \"#utility.yul\":2158:2535   */\n      swap3\n      swap2\n      pop\n      pop\n      jump\t// out\n        /* \"#utility.yul\":2541:2854   */\n    tag_36:\n        /* \"#utility.yul\":2654:2658   */\n      0x00\n        /* \"#utility.yul\":2692:2694   */\n      0x20\n        /* \"#utility.yul\":2681:2690   */\n      dup3\n        /* \"#utility.yul\":2677:2695   */\n      add\n        /* \"#utility.yul\":2669:2695   */\n      swap1\n      pop\n        /* \"#utility.yul\":2741:2750   */\n      dup2\n        /* \"#utility.yul\":2735:2739   */\n      dup2\n        /* \"#utility.yul\":2731:2751   */\n      sub\n        /* \"#utility.yul\":2727:2728   */\n      0x00\n        /* \"#utility.yul\":2716:2725   */\n      dup4\n        /* \"#utility.yul\":2712:2729   */\n      add\n        /* \"#utility.yul\":2705:2752   */\n      mstore\n        /* \"#utility.yul\":2769:2847   */\n      tag_393\n        /* \"#utility.yul\":2842:2846   */\n      dup2\n        /* \"#utility.yul\":2833:2839   */\n      dup5\n        /* \"#utility.yul\":2769:2847   */\n      tag_328\n      jump\t// in\n    tag_393:\n        /* \"#utility.yul\":2761:2847   */\n      swap1\n      pop\n        /* \"#utility.yul\":2541:2854   */\n      swap3\n      swap2\n      pop\n      pop\n      jump\t// out\n        /* \"#utility.yul\":2860:2937   */\n    tag_329:\n        /* \"#utility.yul\":2897:2904   */\n      0x00\n        /* \"#utility.yul\":2926:2931   */\n      dup2\n        /* \"#utility.yul\":2915:2931   */\n      swap1\n      pop\n        /* \"#utility.yul\":2860:2937   */\n      swap2\n      swap1\n      pop\n      jump\t// out\n        /* \"#utility.yul\":2943:3065   */\n    tag_330:\n        /* \"#utility.yul\":3016:3040   */\n      tag_396\n        /* \"#utility.yul\":3034:3039   */\n      dup2\n        /* \"#utility.yul\":3016:3040   */\n      tag_329\n      jump\t// in\n    tag_396:\n        /* \"#utility.yul\":3009:3014   */\n      dup2\n        /* \"#utility.yul\":3006:3041   */\n      eq\n        /* \"#utility.yul\":2996:3059   */\n      tag_397\n      jumpi\n        /* \"#utility.yul\":3055:3056   */\n      0x00\n        /* \"#utility.yul\":3052:3053   */\n      dup1\n        /* \"#utility.yul\":3045:3057   */\n      revert\n        /* \"#utility.yul\":2996:3059   */\n    tag_397:\n        /* \"#utility.yul\":2943:3065   */\n      pop\n      jump\t// out\n        /* \"#utility.yul\":3071:3210   */\n    tag_331:\n        /* \"#utility.yul\":3117:3122   */\n      0x00\n        /* \"#utility.yul\":3155:3161   */\n      dup2\n        /* \"#utility.yul\":3142:3162   */\n      calldataload\n        /* \"#utility.yul\":3133:3162   */\n      swap1\n      pop\n        /* \"#utility.yul\":3171:3204   */\n      tag_399\n        /* \"#utility.yul\":3198:3203   */\n      dup2\n        /* \"#utility.yul\":3171:3204   */\n      tag_330\n      jump\t// in\n    tag_399:\n        /* \"#utility.yul\":3071:3210   */\n      swap3\n      swap2\n      pop\n      pop\n      jump\t// out\n        /* \"#utility.yul\":3216:3545   */\n    tag_39:\n        /* \"#utility.yul\":3275:3281   */\n      0x00\n        /* \"#utility.yul\":3324:3326   */\n      0x20\n        /* \"#utility.yul\":3312:3321   */\n      dup3\n        /* \"#utility.yul\":3303:3310   */\n      dup5\n        /* \"#utility.yul\":3299:3322   */\n      sub\n        /* \"#utility.yul\":3295:3327   */\n      slt\n        /* \"#utility.yul\":3292:3411   */\n      iszero\n      tag_401\n      jumpi\n        /* \"#utility.yul\":3330:3409   */\n      tag_402\n      tag_317\n      jump\t// in\n    tag_402:\n        /* \"#utility.yul\":3292:3411   */\n    tag_401:\n        /* \"#utility.yul\":3450:3451   */\n      0x00\n        /* \"#utility.yul\":3475:3528   */\n      tag_403\n        /* \"#utility.yul\":3520:3527   */\n      dup5\n        /* \"#utility.yul\":3511:3517   */\n      dup3\n        /* \"#utility.yul\":3500:3509   */\n      dup6\n        /* \"#utility.yul\":3496:3518   */\n      add\n        /* \"#utility.yul\":3475:3528   */\n      tag_331\n      jump\t// in\n    tag_403:\n        /* \"#utility.yul\":3465:3528   */\n      swap2\n      pop\n        /* \"#utility.yul\":3421:3538   */\n      pop\n        /* \"#utility.yul\":3216:3545   */\n      swap3\n      swap2\n      pop\n      pop\n      jump\t// out\n        /* \"#utility.yul\":3551:3677   */\n    tag_332:\n        /* \"#utility.yul\":3588:3595   */\n      0x00\n        /* \"#utility.yul\":3628:3670   */\n      0xffffffffffffffffffffffffffffffffffffffff\n        /* \"#utility.yul\":3621:3626   */\n      dup3\n        /* \"#utility.yul\":3617:3671   */\n      and\n        /* \"#utility.yul\":3606:3671   */\n      swap1\n      pop\n        /* \"#utility.yul\":3551:3677   */\n      swap2\n      swap1\n      pop\n      jump\t// out\n        /* \"#utility.yul\":3683:3779   */\n    tag_333:\n        /* \"#utility.yul\":3720:3727   */\n      0x00\n        /* \"#utility.yul\":3749:3773   */\n      tag_406\n        /* \"#utility.yul\":3767:3772   */\n      dup3\n        /* \"#utility.yul\":3749:3773   */\n      tag_332\n      jump\t// in\n    tag_406:\n        /* \"#utility.yul\":3738:3773   */\n      swap1\n      pop\n        /* \"#utility.yul\":3683:3779   */\n      swap2\n      swap1\n      pop\n      jump\t// out\n        /* \"#utility.yul\":3785:3903   */\n    tag_334:\n        /* \"#utility.yul\":3872:3896   */\n      tag_408\n        /* \"#utility.yul\":3890:3895   */\n      dup2\n        /* \"#utility.yul\":3872:3896   */\n      tag_333\n      jump\t// in\n    tag_408:\n        /* \"#utility.yul\":3867:3870   */\n      dup3\n        /* \"#utility.yul\":3860:3897   */\n      mstore\n        /* \"#utility.yul\":3785:3903   */\n      pop\n      pop\n      jump\t// out\n        /* \"#utility.yul\":3909:4131   */\n    tag_42:\n        /* \"#utility.yul\":4002:4006   */\n      0x00\n        /* \"#utility.yul\":4040:4042   */\n      0x20\n        /* \"#utility.yul\":4029:4038   */\n      dup3\n        /* \"#utility.yul\":4025:4043   */\n      add\n        /* \"#utility.yul\":4017:4043   */\n      swap1\n      pop\n        /* \"#utility.yul\":4053:4124   */\n      tag_410\n        /* \"#utility.yul\":4121:4122   */\n      0x00\n        /* \"#utility.yul\":4110:4119   */\n      dup4\n        /* \"#utility.yul\":4106:4123   */\n      add\n        /* \"#utility.yul\":4097:4103   */\n      dup5\n        /* \"#utility.yul\":4053:4124   */\n      tag_334\n      jump\t// in\n    tag_410:\n        /* \"#utility.yul\":3909:4131   */\n      swap3\n      swap2\n      pop\n      pop\n      jump\t// out\n        /* \"#utility.yul\":4137:4259   */\n    tag_335:\n        /* \"#utility.yul\":4210:4234   */\n      tag_412\n        /* \"#utility.yul\":4228:4233   */\n      dup2\n        /* \"#utility.yul\":4210:4234   */\n      tag_333\n      jump\t// in\n    tag_412:\n        /* \"#utility.yul\":4203:4208   */\n      dup2\n        /* \"#utility.yul\":4200:4235   */\n      eq\n        /* \"#utility.yul\":4190:4253   */\n      tag_413\n      jumpi\n        /* \"#utility.yul\":4249:4250   */\n      0x00\n        /* \"#utility.yul\":4246:4247   */\n      dup1\n        /* \"#utility.yul\":4239:4251   */\n      revert\n        /* \"#utility.yul\":4190:4253   */\n    tag_413:\n        /* \"#utility.yul\":4137:4259   */\n      pop\n      jump\t// out\n        /* \"#utility.yul\":4265:4404   */\n    tag_336:\n        /* \"#utility.yul\":4311:4316   */\n      0x00\n        /* \"#utility.yul\":4349:4355   */\n      dup2\n        /* \"#utility.yul\":4336:4356   */\n      calldataload\n        /* \"#utility.yul\":4327:4356   */\n      swap1\n      pop\n        /* \"#utility.yul\":4365:4398   */\n      tag_415\n        /* \"#utility.yul\":4392:4397   */\n      dup2\n        /* \"#utility.yul\":4365:4398   */\n      tag_335\n      jump\t// in\n    tag_415:\n        /* \"#utility.yul\":4265:4404   */\n      swap3\n      swap2\n      pop\n      pop\n      jump\t// out\n        /* \"#utility.yul\":4410:4884   */\n    tag_45:\n        /* \"#utility.yul\":4478:4484   */\n      0x00\n        /* \"#utility.yul\":4486:4492   */\n      dup1\n        /* \"#utility.yul\":4535:4537   */\n      0x40\n        /* \"#utility.yul\":4523:4532   */\n      dup4\n        /* \"#utility.yul\":4514:4521   */\n      dup6\n        /* \"#utility.yul\":4510:4533   */\n      sub\n        /* \"#utility.yul\":4506:4538   */\n      slt\n        /* \"#utility.yul\":4503:4622   */\n      iszero\n      tag_417\n      jumpi\n        /* \"#utility.yul\":4541:4620   */\n      tag_418\n      tag_317\n      jump\t// in\n    tag_418:\n        /* \"#utility.yul\":4503:4622   */\n    tag_417:\n        /* \"#utility.yul\":4661:4662   */\n      0x00\n        /* \"#utility.yul\":4686:4739   */\n      tag_419\n        /* \"#utility.yul\":4731:4738   */\n      dup6\n        /* \"#utility.yul\":4722:4728   */\n      dup3\n        /* \"#utility.yul\":4711:4720   */\n      dup7\n        /* \"#utility.yul\":4707:4729   */\n      add\n        /* \"#utility.yul\":4686:4739   */\n      tag_336\n      jump\t// in\n    tag_419:\n        /* \"#utility.yul\":4676:4739   */\n      swap3\n      pop\n        /* \"#utility.yul\":4632:4749   */\n      pop\n        /* \"#utility.yul\":4788:4790   */\n      0x20\n        /* \"#utility.yul\":4814:4867   */\n      tag_420\n        /* \"#utility.yul\":4859:4866   */\n      dup6\n        /* \"#utility.yul\":4850:4856   */\n      dup3\n        /* \"#utility.yul\":4839:4848   */\n      dup7\n        /* \"#utility.yul\":4835:4857   */\n      add\n        /* \"#utility.yul\":4814:4867   */\n      tag_331\n      jump\t// in\n    tag_420:\n        /* \"#utility.yul\":4804:4867   */\n      swap2\n      pop\n        /* \"#utility.yul\":4759:4877   */\n      pop\n        /* \"#utility.yul\":4410:4884   */\n      swap3\n      pop\n      swap3\n      swap1\n      pop\n      jump\t// out\n        /* \"#utility.yul\":4890:5008   */\n    tag_337:\n        /* \"#utility.yul\":4977:5001   */\n      tag_422\n        /* \"#utility.yul\":4995:5000   */\n      dup2\n        /* \"#utility.yul\":4977:5001   */\n      tag_329\n      jump\t// in\n    tag_422:\n        /* \"#utility.yul\":4972:4975   */\n      dup3\n        /* \"#utility.yul\":4965:5002   */\n      mstore\n        /* \"#utility.yul\":4890:5008   */\n      pop\n      pop\n      jump\t// out\n        /* \"#utility.yul\":5014:5236   */\n    tag_50:\n        /* \"#utility.yul\":5107:5111   */\n      0x00\n        /* \"#utility.yul\":5145:5147   */\n      0x20\n        /* \"#utility.yul\":5134:5143   */\n      dup3\n        /* \"#utility.yul\":5130:5148   */\n      add\n        /* \"#utility.yul\":5122:5148   */\n      swap1\n      pop\n        /* \"#utility.yul\":5158:5229   */\n      tag_424\n        /* \"#utility.yul\":5226:5227   */\n      0x00\n        /* \"#utility.yul\":5215:5224   */\n      dup4\n        /* \"#utility.yul\":5211:5228   */\n      add\n        /* \"#utility.yul\":5202:5208   */\n      dup5\n        /* \"#utility.yul\":5158:5229   */\n      tag_337\n      jump\t// in\n    tag_424:\n        /* \"#utility.yul\":5014:5236   */\n      swap3\n      swap2\n      pop\n      pop\n      jump\t// out\n        /* \"#utility.yul\":5242:5861   */\n    tag_53:\n        /* \"#utility.yul\":5319:5325   */\n      0x00\n        /* \"#utility.yul\":5327:5333   */\n      dup1\n        /* \"#utility.yul\":5335:5341   */\n      0x00\n        /* \"#utility.yul\":5384:5386   */\n      0x60\n        /* \"#utility.yul\":5372:5381   */\n      dup5\n        /* \"#utility.yul\":5363:5370   */\n      dup7\n        /* \"#utility.yul\":5359:5382   */\n      sub\n        /* \"#utility.yul\":5355:5387   */\n      slt\n        /* \"#utility.yul\":5352:5471   */\n      iszero\n      tag_426\n      jumpi\n        /* \"#utility.yul\":5390:5469   */\n      tag_427\n      tag_317\n      jump\t// in\n    tag_427:\n        /* \"#utility.yul\":5352:5471   */\n    tag_426:\n        /* \"#utility.yul\":5510:5511   */\n      0x00\n        /* \"#utility.yul\":5535:5588   */\n      tag_428\n        /* \"#utility.yul\":5580:5587   */\n      dup7\n        /* \"#utility.yul\":5571:5577   */\n      dup3\n        /* \"#utility.yul\":5560:5569   */\n      dup8\n        /* \"#utility.yul\":5556:5578   */\n      add\n        /* \"#utility.yul\":5535:5588   */\n      tag_336\n      jump\t// in\n    tag_428:\n        /* \"#utility.yul\":5525:5588   */\n      swap4\n      pop\n        /* \"#utility.yul\":5481:5598   */\n      pop\n        /* \"#utility.yul\":5637:5639   */\n      0x20\n        /* \"#utility.yul\":5663:5716   */\n      tag_429\n        /* \"#utility.yul\":5708:5715   */\n      dup7\n        /* \"#utility.yul\":5699:5705   */\n      dup3\n        /* \"#utility.yul\":5688:5697   */\n      dup8\n        /* \"#utility.yul\":5684:5706   */\n      add\n        /* \"#utility.yul\":5663:5716   */\n      tag_336\n      jump\t// in\n    tag_429:\n        /* \"#utility.yul\":5653:5716   */\n      swap3\n      pop\n        /* \"#utility.yul\":5608:5726   */\n      pop\n        /* \"#utility.yul\":5765:5767   */\n      0x40\n        /* \"#utility.yul\":5791:5844   */\n      tag_430\n        /* \"#utility.yul\":5836:5843   */\n      dup7\n        /* \"#utility.yul\":5827:5833   */\n      dup3\n        /* \"#utility.yul\":5816:5825   */\n      dup8\n        /* \"#utility.yul\":5812:5834   */\n      add\n        /* \"#utility.yul\":5791:5844   */\n      tag_331\n      jump\t// in\n    tag_430:\n        /* \"#utility.yul\":5781:5844   */\n      swap2\n      pop\n        /* \"#utility.yul\":5736:5854   */\n      pop\n        /* \"#utility.yul\":5242:5861   */\n      swap3\n      pop\n      swap3\n      pop\n      swap3\n      jump\t// out\n        /* \"#utility.yul\":5867:6196   */\n    tag_68:\n        /* \"#utility.yul\":5926:5932   */\n      0x00\n        /* \"#utility.yul\":5975:5977   */\n      0x20\n        /* \"#utility.yul\":5963:5972   */\n      dup3\n        /* \"#utility.yul\":5954:5961   */\n      dup5\n        /* \"#utility.yul\":5950:5973   */\n      sub\n        /* \"#utility.yul\":5946:5978   */\n      slt\n        /* \"#utility.yul\":5943:6062   */\n      iszero\n      tag_432\n      jumpi\n        /* \"#utility.yul\":5981:6060   */\n      tag_433\n      tag_317\n      jump\t// in\n    tag_433:\n        /* \"#utility.yul\":5943:6062   */\n    tag_432:\n        /* \"#utility.yul\":6101:6102   */\n      0x00\n        /* \"#utility.yul\":6126:6179   */\n      tag_434\n        /* \"#utility.yul\":6171:6178   */\n      dup5\n        /* \"#utility.yul\":6162:6168   */\n      dup3\n        /* \"#utility.yul\":6151:6160   */\n      dup6\n        /* \"#utility.yul\":6147:6169   */\n      add\n        /* \"#utility.yul\":6126:6179   */\n      tag_336\n      jump\t// in\n    tag_434:\n        /* \"#utility.yul\":6116:6179   */\n      swap2\n      pop\n        /* \"#utility.yul\":6072:6189   */\n      pop\n        /* \"#utility.yul\":5867:6196   */\n      swap3\n      swap2\n      pop\n      pop\n      jump\t// out\n        /* \"#utility.yul\":6202:6318   */\n    tag_338:\n        /* \"#utility.yul\":6272:6293   */\n      tag_436\n        /* \"#utility.yul\":6287:6292   */\n      dup2\n        /* \"#utility.yul\":6272:6293   */\n      tag_322\n      jump\t// in\n    tag_436:\n        /* \"#utility.yul\":6265:6270   */\n      dup2\n        /* \"#utility.yul\":6262:6294   */\n      eq\n        /* \"#utility.yul\":6252:6312   */\n      tag_437\n      jumpi\n        /* \"#utility.yul\":6308:6309   */\n      0x00\n        /* \"#utility.yul\":6305:6306   */\n      dup1\n        /* \"#utility.yul\":6298:6310   */\n      revert\n        /* \"#utility.yul\":6252:6312   */\n    tag_437:\n        /* \"#utility.yul\":6202:6318   */\n      pop\n      jump\t// out\n        /* \"#utility.yul\":6324:6457   */\n    tag_339:\n        /* \"#utility.yul\":6367:6372   */\n      0x00\n        /* \"#utility.yul\":6405:6411   */\n      dup2\n        /* \"#utility.yul\":6392:6412   */\n      calldataload\n        /* \"#utility.yul\":6383:6412   */\n      swap1\n      pop\n        /* \"#utility.yul\":6421:6451   */\n      tag_439\n        /* \"#utility.yul\":6445:6450   */\n      dup2\n        /* \"#utility.yul\":6421:6451   */\n      tag_338\n      jump\t// in\n    tag_439:\n        /* \"#utility.yul\":6324:6457   */\n      swap3\n      swap2\n      pop\n      pop\n      jump\t// out\n        /* \"#utility.yul\":6463:6931   */\n    tag_76:\n        /* \"#utility.yul\":6528:6534   */\n      0x00\n        /* \"#utility.yul\":6536:6542   */\n      dup1\n        /* \"#utility.yul\":6585:6587   */\n      0x40\n        /* \"#utility.yul\":6573:6582   */\n      dup4\n        /* \"#utility.yul\":6564:6571   */\n      dup6\n        /* \"#utility.yul\":6560:6583   */\n      sub\n        /* \"#utility.yul\":6556:6588   */\n      slt\n        /* \"#utility.yul\":6553:6672   */\n      iszero\n      tag_441\n      jumpi\n        /* \"#utility.yul\":6591:6670   */\n      tag_442\n      tag_317\n      jump\t// in\n    tag_442:\n        /* \"#utility.yul\":6553:6672   */\n    tag_441:\n        /* \"#utility.yul\":6711:6712   */\n      0x00\n        /* \"#utility.yul\":6736:6789   */\n      tag_443\n        /* \"#utility.yul\":6781:6788   */\n      dup6\n        /* \"#utility.yul\":6772:6778   */\n      dup3\n        /* \"#utility.yul\":6761:6770   */\n      dup7\n        /* \"#utility.yul\":6757:6779   */\n      add\n        /* \"#utility.yul\":6736:6789   */\n      tag_336\n      jump\t// in\n    tag_443:\n        /* \"#utility.yul\":6726:6789   */\n      swap3\n      pop\n        /* \"#utility.yul\":6682:6799   */\n      pop\n        /* \"#utility.yul\":6838:6840   */\n      0x20\n        /* \"#utility.yul\":6864:6914   */\n      tag_444\n        /* \"#utility.yul\":6906:6913   */\n      dup6\n        /* \"#utility.yul\":6897:6903   */\n      dup3\n        /* \"#utility.yul\":6886:6895   */\n      dup7\n        /* \"#utility.yul\":6882:6904   */\n      add\n        /* \"#utility.yul\":6864:6914   */\n      tag_339\n      jump\t// in\n    tag_444:\n        /* \"#utility.yul\":6854:6914   */\n      swap2\n      pop\n        /* \"#utility.yul\":6809:6924   */\n      pop\n        /* \"#utility.yul\":6463:6931   */\n      swap3\n      pop\n      swap3\n      swap1\n      pop\n      jump\t// out\n        /* \"#utility.yul\":6937:7054   */\n    tag_340:\n        /* \"#utility.yul\":7046:7047   */\n      0x00\n        /* \"#utility.yul\":7043:7044   */\n      dup1\n        /* \"#utility.yul\":7036:7048   */\n      revert\n        /* \"#utility.yul\":7060:7177   */\n    tag_341:\n        /* \"#utility.yul\":7169:7170   */\n      0x00\n        /* \"#utility.yul\":7166:7167   */\n      dup1\n        /* \"#utility.yul\":7159:7171   */\n      revert\n        /* \"#utility.yul\":7183:7363   */\n    tag_303:\n        /* \"#utility.yul\":7231:7308   */\n      0x4e487b7100000000000000000000000000000000000000000000000000000000\n        /* \"#utility.yul\":7228:7229   */\n      0x00\n        /* \"#utility.yul\":7221:7309   */\n      mstore\n        /* \"#utility.yul\":7328:7332   */\n      0x41\n        /* \"#utility.yul\":7325:7326   */\n      0x04\n        /* \"#utility.yul\":7318:7333   */\n      mstore\n        /* \"#utility.yul\":7352:7356   */\n      0x24\n        /* \"#utility.yul\":7349:7350   */\n      0x00\n        /* \"#utility.yul\":7342:7357   */\n      revert\n        /* \"#utility.yul\":7369:7650   */\n    tag_342:\n        /* \"#utility.yul\":7452:7479   */\n      tag_449\n        /* \"#utility.yul\":7474:7478   */\n      dup3\n        /* \"#utility.yul\":7452:7479   */\n      tag_327\n      jump\t// in\n    tag_449:\n        /* \"#utility.yul\":7444:7450   */\n      dup2\n        /* \"#utility.yul\":7440:7480   */\n      add\n        /* \"#utility.yul\":7582:7588   */\n      dup2\n        /* \"#utility.yul\":7570:7580   */\n      dup2\n        /* \"#utility.yul\":7567:7589   */\n      lt\n        /* \"#utility.yul\":7546:7564   */\n      0xffffffffffffffff\n        /* \"#utility.yul\":7534:7544   */\n      dup3\n        /* \"#utility.yul\":7531:7565   */\n      gt\n        /* \"#utility.yul\":7528:7590   */\n      or\n        /* \"#utility.yul\":7525:7613   */\n      iszero\n      tag_450\n      jumpi\n        /* \"#utility.yul\":7593:7611   */\n      tag_451\n      tag_303\n      jump\t// in\n    tag_451:\n        /* \"#utility.yul\":7525:7613   */\n    tag_450:\n        /* \"#utility.yul\":7633:7643   */\n      dup1\n        /* \"#utility.yul\":7629:7631   */\n      0x40\n        /* \"#utility.yul\":7622:7644   */\n      mstore\n        /* \"#utility.yul\":7412:7650   */\n      pop\n        /* \"#utility.yul\":7369:7650   */\n      pop\n      pop\n      jump\t// out\n        /* \"#utility.yul\":7656:7785   */\n    tag_343:\n        /* \"#utility.yul\":7690:7696   */\n      0x00\n        /* \"#utility.yul\":7717:7737   */\n      tag_453\n      tag_316\n      jump\t// in\n    tag_453:\n        /* \"#utility.yul\":7707:7737   */\n      swap1\n      pop\n        /* \"#utility.yul\":7746:7779   */\n      tag_454\n        /* \"#utility.yul\":7774:7778   */\n      dup3\n        /* \"#utility.yul\":7766:7772   */\n      dup3\n        /* \"#utility.yul\":7746:7779   */\n      tag_342\n      jump\t// in\n    tag_454:\n        /* \"#utility.yul\":7656:7785   */\n      swap2\n      swap1\n      pop\n      jump\t// out\n        /* \"#utility.yul\":7791:8098   */\n    tag_344:\n        /* \"#utility.yul\":7852:7856   */\n      0x00\n        /* \"#utility.yul\":7942:7960   */\n      0xffffffffffffffff\n        /* \"#utility.yul\":7934:7940   */\n      dup3\n        /* \"#utility.yul\":7931:7961   */\n      gt\n        /* \"#utility.yul\":7928:7984   */\n      iszero\n      tag_456\n      jumpi\n        /* \"#utility.yul\":7964:7982   */\n      tag_457\n      tag_303\n      jump\t// in\n    tag_457:\n        /* \"#utility.yul\":7928:7984   */\n    tag_456:\n        /* \"#utility.yul\":8002:8031   */\n      tag_458\n        /* \"#utility.yul\":8024:8030   */\n      dup3\n        /* \"#utility.yul\":8002:8031   */\n      tag_327\n      jump\t// in\n    tag_458:\n        /* \"#utility.yul\":7994:8031   */\n      swap1\n      pop\n        /* \"#utility.yul\":8086:8090   */\n      0x20\n        /* \"#utility.yul\":8080:8084   */\n      dup2\n        /* \"#utility.yul\":8076:8091   */\n      add\n        /* \"#utility.yul\":8068:8091   */\n      swap1\n      pop\n        /* \"#utility.yul\":7791:8098   */\n      swap2\n      swap1\n      pop\n      jump\t// out\n        /* \"#utility.yul\":8104:8250   */\n    tag_345:\n        /* \"#utility.yul\":8201:8207   */\n      dup3\n        /* \"#utility.yul\":8196:8199   */\n      dup2\n        /* \"#utility.yul\":8191:8194   */\n      dup4\n        /* \"#utility.yul\":8178:8208   */\n      calldatacopy\n        /* \"#utility.yul\":8242:8243   */\n      0x00\n        /* \"#utility.yul\":8233:8239   */\n      dup4\n        /* \"#utility.yul\":8228:8231   */\n      dup4\n        /* \"#utility.yul\":8224:8240   */\n      add\n        /* \"#utility.yul\":8217:8244   */\n      mstore\n        /* \"#utility.yul\":8104:8250   */\n      pop\n      pop\n      pop\n      jump\t// out\n        /* \"#utility.yul\":8256:8679   */\n    tag_346:\n        /* \"#utility.yul\":8333:8338   */\n      0x00\n        /* \"#utility.yul\":8358:8423   */\n      tag_461\n        /* \"#utility.yul\":8374:8422   */\n      tag_462\n        /* \"#utility.yul\":8415:8421   */\n      dup5\n        /* \"#utility.yul\":8374:8422   */\n      tag_344\n      jump\t// in\n    tag_462:\n        /* \"#utility.yul\":8358:8423   */\n      tag_343\n      jump\t// in\n    tag_461:\n        /* \"#utility.yul\":8349:8423   */\n      swap1\n      pop\n        /* \"#utility.yul\":8446:8452   */\n      dup3\n        /* \"#utility.yul\":8439:8444   */\n      dup2\n        /* \"#utility.yul\":8432:8453   */\n      mstore\n        /* \"#utility.yul\":8484:8488   */\n      0x20\n        /* \"#utility.yul\":8477:8482   */\n      dup2\n        /* \"#utility.yul\":8473:8489   */\n      add\n        /* \"#utility.yul\":8522:8525   */\n      dup5\n        /* \"#utility.yul\":8513:8519   */\n      dup5\n        /* \"#utility.yul\":8508:8511   */\n      dup5\n        /* \"#utility.yul\":8504:8520   */\n      add\n        /* \"#utility.yul\":8501:8526   */\n      gt\n        /* \"#utility.yul\":8498:8610   */\n      iszero\n      tag_463\n      jumpi\n        /* \"#utility.yul\":8529:8608   */\n      tag_464\n      tag_341\n      jump\t// in\n    tag_464:\n        /* \"#utility.yul\":8498:8610   */\n    tag_463:\n        /* \"#utility.yul\":8619:8673   */\n      tag_465\n        /* \"#utility.yul\":8666:8672   */\n      dup5\n        /* \"#utility.yul\":8661:8664   */\n      dup3\n        /* \"#utility.yul\":8656:8659   */\n      dup6\n        /* \"#utility.yul\":8619:8673   */\n      tag_345\n      jump\t// in\n    tag_465:\n        /* \"#utility.yul\":8339:8679   */\n      pop\n        /* \"#utility.yul\":8256:8679   */\n      swap4\n      swap3\n      pop\n      pop\n      pop\n      jump\t// out\n        /* \"#utility.yul\":8698:9036   */\n    tag_347:\n        /* \"#utility.yul\":8753:8758   */\n      0x00\n        /* \"#utility.yul\":8802:8805   */\n      dup3\n        /* \"#utility.yul\":8795:8799   */\n      0x1f\n        /* \"#utility.yul\":8787:8793   */\n      dup4\n        /* \"#utility.yul\":8783:8800   */\n      add\n        /* \"#utility.yul\":8779:8806   */\n      slt\n        /* \"#utility.yul\":8769:8891   */\n      tag_467\n      jumpi\n        /* \"#utility.yul\":8810:8889   */\n      tag_468\n      tag_340\n      jump\t// in\n    tag_468:\n        /* \"#utility.yul\":8769:8891   */\n    tag_467:\n        /* \"#utility.yul\":8927:8933   */\n      dup2\n        /* \"#utility.yul\":8914:8934   */\n      calldataload\n        /* \"#utility.yul\":8952:9030   */\n      tag_469\n        /* \"#utility.yul\":9026:9029   */\n      dup5\n        /* \"#utility.yul\":9018:9024   */\n      dup3\n        /* \"#utility.yul\":9011:9015   */\n      0x20\n        /* \"#utility.yul\":9003:9009   */\n      dup7\n        /* \"#utility.yul\":8999:9016   */\n      add\n        /* \"#utility.yul\":8952:9030   */\n      tag_346\n      jump\t// in\n    tag_469:\n        /* \"#utility.yul\":8943:9030   */\n      swap2\n      pop\n        /* \"#utility.yul\":8759:9036   */\n      pop\n        /* \"#utility.yul\":8698:9036   */\n      swap3\n      swap2\n      pop\n      pop\n      jump\t// out\n        /* \"#utility.yul\":9042:9985   */\n    tag_80:\n        /* \"#utility.yul\":9137:9143   */\n      0x00\n        /* \"#utility.yul\":9145:9151   */\n      dup1\n        /* \"#utility.yul\":9153:9159   */\n      0x00\n        /* \"#utility.yul\":9161:9167   */\n      dup1\n        /* \"#utility.yul\":9210:9213   */\n      0x80\n        /* \"#utility.yul\":9198:9207   */\n      dup6\n        /* \"#utility.yul\":9189:9196   */\n      dup8\n        /* \"#utility.yul\":9185:9208   */\n      sub\n        /* \"#utility.yul\":9181:9214   */\n      slt\n        /* \"#utility.yul\":9178:9298   */\n      iszero\n      tag_471\n      jumpi\n        /* \"#utility.yul\":9217:9296   */\n      tag_472\n      tag_317\n      jump\t// in\n    tag_472:\n        /* \"#utility.yul\":9178:9298   */\n    tag_471:\n        /* \"#utility.yul\":9337:9338   */\n      0x00\n        /* \"#utility.yul\":9362:9415   */\n      tag_473\n        /* \"#utility.yul\":9407:9414   */\n      dup8\n        /* \"#utility.yul\":9398:9404   */\n      dup3\n        /* \"#utility.yul\":9387:9396   */\n      dup9\n        /* \"#utility.yul\":9383:9405   */\n      add\n        /* \"#utility.yul\":9362:9415   */\n      tag_336\n      jump\t// in\n    tag_473:\n        /* \"#utility.yul\":9352:9415   */\n      swap5\n      pop\n        /* \"#utility.yul\":9308:9425   */\n      pop\n        /* \"#utility.yul\":9464:9466   */\n      0x20\n        /* \"#utility.yul\":9490:9543   */\n      tag_474\n        /* \"#utility.yul\":9535:9542   */\n      dup8\n        /* \"#utility.yul\":9526:9532   */\n      dup3\n        /* \"#utility.yul\":9515:9524   */\n      dup9\n        /* \"#utility.yul\":9511:9533   */\n      add\n        /* \"#utility.yul\":9490:9543   */\n      tag_336\n      jump\t// in\n    tag_474:\n        /* \"#utility.yul\":9480:9543   */\n      swap4\n      pop\n        /* \"#utility.yul\":9435:9553   */\n      pop\n        /* \"#utility.yul\":9592:9594   */\n      0x40\n        /* \"#utility.yul\":9618:9671   */\n      tag_475\n        /* \"#utility.yul\":9663:9670   */\n      dup8\n        /* \"#utility.yul\":9654:9660   */\n      dup3\n        /* \"#utility.yul\":9643:9652   */\n      dup9\n        /* \"#utility.yul\":9639:9661   */\n      add\n        /* \"#utility.yul\":9618:9671   */\n      tag_331\n      jump\t// in\n    tag_475:\n        /* \"#utility.yul\":9608:9671   */\n      swap3\n      pop\n        /* \"#utility.yul\":9563:9681   */\n      pop\n        /* \"#utility.yul\":9748:9750   */\n      0x60\n        /* \"#utility.yul\":9737:9746   */\n      dup6\n        /* \"#utility.yul\":9733:9751   */\n      add\n        /* \"#utility.yul\":9720:9752   */\n      calldataload\n        /* \"#utility.yul\":9779:9797   */\n      0xffffffffffffffff\n        /* \"#utility.yul\":9771:9777   */\n      dup2\n        /* \"#utility.yul\":9768:9798   */\n      gt\n        /* \"#utility.yul\":9765:9882   */\n      iszero\n      tag_476\n      jumpi\n        /* \"#utility.yul\":9801:9880   */\n      tag_477\n      tag_318\n      jump\t// in\n    tag_477:\n        /* \"#utility.yul\":9765:9882   */\n    tag_476:\n        /* \"#utility.yul\":9906:9968   */\n      tag_478\n        /* \"#utility.yul\":9960:9967   */\n      dup8\n        /* \"#utility.yul\":9951:9957   */\n      dup3\n        /* \"#utility.yul\":9940:9949   */\n      dup9\n        /* \"#utility.yul\":9936:9958   */\n      add\n        /* \"#utility.yul\":9906:9968   */\n      tag_347\n      jump\t// in\n    tag_478:\n        /* \"#utility.yul\":9896:9968   */\n      swap2\n      pop\n        /* \"#utility.yul\":9691:9978   */\n      pop\n        /* \"#utility.yul\":9042:9985   */\n      swap3\n      swap6\n      swap2\n      swap5\n      pop\n      swap3\n      pop\n      jump\t// out\n        /* \"#utility.yul\":9991:10465   */\n    tag_106:\n        /* \"#utility.yul\":10059:10065   */\n      0x00\n        /* \"#utility.yul\":10067:10073   */\n      dup1\n        /* \"#utility.yul\":10116:10118   */\n      0x40\n        /* \"#utility.yul\":10104:10113   */\n      dup4\n        /* \"#utility.yul\":10095:10102   */\n      dup6\n        /* \"#utility.yul\":10091:10114   */\n      sub\n        /* \"#utility.yul\":10087:10119   */\n      slt\n        /* \"#utility.yul\":10084:10203   */\n      iszero\n      tag_480\n      jumpi\n        /* \"#utility.yul\":10122:10201   */\n      tag_481\n      tag_317\n      jump\t// in\n    tag_481:\n        /* \"#utility.yul\":10084:10203   */\n    tag_480:\n        /* \"#utility.yul\":10242:10243   */\n      0x00\n        /* \"#utility.yul\":10267:10320   */\n      tag_482\n        /* \"#utility.yul\":10312:10319   */\n      dup6\n        /* \"#utility.yul\":10303:10309   */\n      dup3\n        /* \"#utility.yul\":10292:10301   */\n      dup7\n        /* \"#utility.yul\":10288:10310   */\n      add\n        /* \"#utility.yul\":10267:10320   */\n      tag_336\n      jump\t// in\n    tag_482:\n        /* \"#utility.yul\":10257:10320   */\n      swap3\n      pop\n        /* \"#utility.yul\":10213:10330   */\n      pop\n        /* \"#utility.yul\":10369:10371   */\n      0x20\n        /* \"#utility.yul\":10395:10448   */\n      tag_483\n        /* \"#utility.yul\":10440:10447   */\n      dup6\n        /* \"#utility.yul\":10431:10437   */\n      dup3\n        /* \"#utility.yul\":10420:10429   */\n      dup7\n        /* \"#utility.yul\":10416:10438   */\n      add\n        /* \"#utility.yul\":10395:10448   */\n      tag_336\n      jump\t// in\n    tag_483:\n        /* \"#utility.yul\":10385:10448   */\n      swap2\n      pop\n        /* \"#utility.yul\":10340:10458   */\n      pop\n        /* \"#utility.yul\":9991:10465   */\n      swap3\n      pop\n      swap3\n      swap1\n      pop\n      jump\t// out\n        /* \"#utility.yul\":10471:10651   */\n    tag_348:\n        /* \"#utility.yul\":10519:10596   */\n      0x4e487b7100000000000000000000000000000000000000000000000000000000\n        /* \"#utility.yul\":10516:10517   */\n      0x00\n        /* \"#utility.yul\":10509:10597   */\n      mstore\n        /* \"#utility.yul\":10616:10620   */\n      0x22\n        /* \"#utility.yul\":10613:10614   */\n      0x04\n        /* \"#utility.yul\":10606:10621   */\n      mstore\n        /* \"#utility.yul\":10640:10644   */\n      0x24\n        /* \"#utility.yul\":10637:10638   */\n      0x00\n        /* \"#utility.yul\":10630:10645   */\n      revert\n        /* \"#utility.yul\":10657:10977   */\n    tag_120:\n        /* \"#utility.yul\":10701:10707   */\n      0x00\n        /* \"#utility.yul\":10738:10739   */\n      0x02\n        /* \"#utility.yul\":10732:10736   */\n      dup3\n        /* \"#utility.yul\":10728:10740   */\n      div\n        /* \"#utility.yul\":10718:10740   */\n      swap1\n      pop\n        /* \"#utility.yul\":10785:10786   */\n      0x01\n        /* \"#utility.yul\":10779:10783   */\n      dup3\n        /* \"#utility.yul\":10775:10787   */\n      and\n        /* \"#utility.yul\":10806:10824   */\n      dup1\n        /* \"#utility.yul\":10796:10877   */\n      tag_486\n      jumpi\n        /* \"#utility.yul\":10862:10866   */\n      0x7f\n        /* \"#utility.yul\":10854:10860   */\n      dup3\n        /* \"#utility.yul\":10850:10867   */\n      and\n        /* \"#utility.yul\":10840:10867   */\n      swap2\n      pop\n        /* \"#utility.yul\":10796:10877   */\n    tag_486:\n        /* \"#utility.yul\":10924:10926   */\n      0x20\n        /* \"#utility.yul\":10916:10922   */\n      dup3\n        /* \"#utility.yul\":10913:10927   */\n      lt\n        /* \"#utility.yul\":10893:10911   */\n      dup2\n        /* \"#utility.yul\":10890:10928   */\n      sub\n        /* \"#utility.yul\":10887:10971   */\n      tag_487\n      jumpi\n        /* \"#utility.yul\":10943:10961   */\n      tag_488\n      tag_348\n      jump\t// in\n    tag_488:\n        /* \"#utility.yul\":10887:10971   */\n    tag_487:\n        /* \"#utility.yul\":10708:10977   */\n      pop\n        /* \"#utility.yul\":10657:10977   */\n      swap2\n      swap1\n      pop\n      jump\t// out\n        /* \"#utility.yul\":10983:11131   */\n    tag_349:\n        /* \"#utility.yul\":11085:11096   */\n      0x00\n        /* \"#utility.yul\":11122:11125   */\n      dup2\n        /* \"#utility.yul\":11107:11125   */\n      swap1\n      pop\n        /* \"#utility.yul\":10983:11131   */\n      swap3\n      swap2\n      pop\n      pop\n      jump\t// out\n        /* \"#utility.yul\":11137:11527   */\n    tag_350:\n        /* \"#utility.yul\":11243:11246   */\n      0x00\n        /* \"#utility.yul\":11271:11310   */\n      tag_491\n        /* \"#utility.yul\":11304:11309   */\n      dup3\n        /* \"#utility.yul\":11271:11310   */\n      tag_324\n      jump\t// in\n    tag_491:\n        /* \"#utility.yul\":11326:11415   */\n      tag_492\n        /* \"#utility.yul\":11408:11414   */\n      dup2\n        /* \"#utility.yul\":11403:11406   */\n      dup6\n        /* \"#utility.yul\":11326:11415   */\n      tag_349\n      jump\t// in\n    tag_492:\n        /* \"#utility.yul\":11319:11415   */\n      swap4\n      pop\n        /* \"#utility.yul\":11424:11489   */\n      tag_493\n        /* \"#utility.yul\":11482:11488   */\n      dup2\n        /* \"#utility.yul\":11477:11480   */\n      dup6\n        /* \"#utility.yul\":11470:11474   */\n      0x20\n        /* \"#utility.yul\":11463:11468   */\n      dup7\n        /* \"#utility.yul\":11459:11475   */\n      add\n        /* \"#utility.yul\":11424:11489   */\n      tag_326\n      jump\t// in\n    tag_493:\n        /* \"#utility.yul\":11514:11520   */\n      dup1\n        /* \"#utility.yul\":11509:11512   */\n      dup5\n        /* \"#utility.yul\":11505:11521   */\n      add\n        /* \"#utility.yul\":11498:11521   */\n      swap2\n      pop\n        /* \"#utility.yul\":11247:11527   */\n      pop\n        /* \"#utility.yul\":11137:11527   */\n      swap3\n      swap2\n      pop\n      pop\n      jump\t// out\n        /* \"#utility.yul\":11533:11968   */\n    tag_202:\n        /* \"#utility.yul\":11713:11716   */\n      0x00\n        /* \"#utility.yul\":11735:11830   */\n      tag_495\n        /* \"#utility.yul\":11826:11829   */\n      dup3\n        /* \"#utility.yul\":11817:11823   */\n      dup6\n        /* \"#utility.yul\":11735:11830   */\n      tag_350\n      jump\t// in\n    tag_495:\n        /* \"#utility.yul\":11728:11830   */\n      swap2\n      pop\n        /* \"#utility.yul\":11847:11942   */\n      tag_496\n        /* \"#utility.yul\":11938:11941   */\n      dup3\n        /* \"#utility.yul\":11929:11935   */\n      dup5\n        /* \"#utility.yul\":11847:11942   */\n      tag_350\n      jump\t// in\n    tag_496:\n        /* \"#utility.yul\":11840:11942   */\n      swap2\n      pop\n        /* \"#utility.yul\":11959:11962   */\n      dup2\n        /* \"#utility.yul\":11952:11962   */\n      swap1\n      pop\n        /* \"#utility.yul\":11533:11968   */\n      swap4\n      swap3\n      pop\n      pop\n      pop\n      jump\t// out\n        /* \"#utility.yul\":11974:12154   */\n    tag_351:\n        /* \"#utility.yul\":12022:12099   */\n      0x4e487b7100000000000000000000000000000000000000000000000000000000\n        /* \"#utility.yul\":12019:12020   */\n      0x00\n        /* \"#utility.yul\":12012:12100   */\n      mstore\n        /* \"#utility.yul\":12119:12123   */\n      0x11\n        /* \"#utility.yul\":12116:12117   */\n      0x04\n        /* \"#utility.yul\":12109:12124   */\n      mstore\n        /* \"#utility.yul\":12143:12147   */\n      0x24\n        /* \"#utility.yul\":12140:12141   */\n      0x00\n        /* \"#utility.yul\":12133:12148   */\n      revert\n        /* \"#utility.yul\":12160:12262   */\n    tag_352:\n        /* \"#utility.yul\":12202:12210   */\n      0x00\n        /* \"#utility.yul\":12249:12254   */\n      dup2\n        /* \"#utility.yul\":12246:12247   */\n      0x01\n        /* \"#utility.yul\":12242:12255   */\n      shr\n        /* \"#utility.yul\":12221:12255   */\n      swap1\n      pop\n        /* \"#utility.yul\":12160:12262   */\n      swap2\n      swap1\n      pop\n      jump\t// out\n        /* \"#utility.yul\":12268:13116   */\n    tag_353:\n        /* \"#utility.yul\":12329:12334   */\n      0x00\n        /* \"#utility.yul\":12336:12340   */\n      dup1\n        /* \"#utility.yul\":12360:12366   */\n      dup3\n        /* \"#utility.yul\":12351:12366   */\n      swap2\n      pop\n        /* \"#utility.yul\":12384:12389   */\n      dup4\n        /* \"#utility.yul\":12375:12389   */\n      swap1\n      pop\n        /* \"#utility.yul\":12398:13110   */\n    tag_500:\n        /* \"#utility.yul\":12419:12420   */\n      0x01\n        /* \"#utility.yul\":12409:12417   */\n      dup6\n        /* \"#utility.yul\":12406:12421   */\n      gt\n        /* \"#utility.yul\":12398:13110   */\n      iszero\n      tag_502\n      jumpi\n        /* \"#utility.yul\":12514:12518   */\n      dup1\n        /* \"#utility.yul\":12509:12512   */\n      dup7\n        /* \"#utility.yul\":12505:12519   */\n      div\n        /* \"#utility.yul\":12499:12503   */\n      dup2\n        /* \"#utility.yul\":12496:12520   */\n      gt\n        /* \"#utility.yul\":12493:12543   */\n      iszero\n      tag_503\n      jumpi\n        /* \"#utility.yul\":12523:12541   */\n      tag_504\n      tag_351\n      jump\t// in\n    tag_504:\n        /* \"#utility.yul\":12493:12543   */\n    tag_503:\n        /* \"#utility.yul\":12573:12574   */\n      0x01\n        /* \"#utility.yul\":12563:12571   */\n      dup6\n        /* \"#utility.yul\":12559:12575   */\n      and\n        /* \"#utility.yul\":12556:13007   */\n      iszero\n      tag_505\n      jumpi\n        /* \"#utility.yul\":12988:12992   */\n      dup1\n        /* \"#utility.yul\":12981:12986   */\n      dup3\n        /* \"#utility.yul\":12977:12993   */\n      mul\n        /* \"#utility.yul\":12968:12993   */\n      swap2\n      pop\n        /* \"#utility.yul\":12556:13007   */\n    tag_505:\n        /* \"#utility.yul\":13038:13042   */\n      dup1\n        /* \"#utility.yul\":13032:13036   */\n      dup2\n        /* \"#utility.yul\":13028:13043   */\n      mul\n        /* \"#utility.yul\":13020:13043   */\n      swap1\n      pop\n        /* \"#utility.yul\":13068:13100   */\n      tag_506\n        /* \"#utility.yul\":13091:13099   */\n      dup6\n        /* \"#utility.yul\":13068:13100   */\n      tag_352\n      jump\t// in\n    tag_506:\n        /* \"#utility.yul\":13056:13100   */\n      swap5\n      pop\n        /* \"#utility.yul\":12398:13110   */\n      jump(tag_500)\n    tag_502:\n        /* \"#utility.yul\":12268:13116   */\n      swap5\n      pop\n      swap5\n      swap3\n      pop\n      pop\n      pop\n      jump\t// out\n        /* \"#utility.yul\":13122:14195   */\n    tag_354:\n        /* \"#utility.yul\":13176:13181   */\n      0x00\n        /* \"#utility.yul\":13367:13375   */\n      dup3\n        /* \"#utility.yul\":13357:13397   */\n      tag_508\n      jumpi\n        /* \"#utility.yul\":13388:13389   */\n      0x01\n        /* \"#utility.yul\":13379:13389   */\n      swap1\n      pop\n        /* \"#utility.yul\":13390:13395   */\n      jump(tag_507)\n        /* \"#utility.yul\":13357:13397   */\n    tag_508:\n        /* \"#utility.yul\":13416:13420   */\n      dup2\n        /* \"#utility.yul\":13406:13442   */\n      tag_509\n      jumpi\n        /* \"#utility.yul\":13433:13434   */\n      0x00\n        /* \"#utility.yul\":13424:13434   */\n      swap1\n      pop\n        /* \"#utility.yul\":13435:13440   */\n      jump(tag_507)\n        /* \"#utility.yul\":13406:13442   */\n    tag_509:\n        /* \"#utility.yul\":13502:13506   */\n      dup2\n        /* \"#utility.yul\":13550:13551   */\n      0x01\n        /* \"#utility.yul\":13545:13572   */\n      dup2\n      eq\n      tag_511\n      jumpi\n        /* \"#utility.yul\":13586:13587   */\n      0x02\n        /* \"#utility.yul\":13581:13772   */\n      dup2\n      eq\n      tag_512\n      jumpi\n        /* \"#utility.yul\":13495:13772   */\n      jump(tag_510)\n        /* \"#utility.yul\":13545:13572   */\n    tag_511:\n        /* \"#utility.yul\":13563:13564   */\n      0x01\n        /* \"#utility.yul\":13554:13564   */\n      swap2\n      pop\n        /* \"#utility.yul\":13565:13570   */\n      pop\n      jump(tag_507)\n        /* \"#utility.yul\":13581:13772   */\n    tag_512:\n        /* \"#utility.yul\":13626:13629   */\n      0xff\n        /* \"#utility.yul\":13616:13624   */\n      dup5\n        /* \"#utility.yul\":13613:13630   */\n      gt\n        /* \"#utility.yul\":13610:13653   */\n      iszero\n      tag_513\n      jumpi\n        /* \"#utility.yul\":13633:13651   */\n      tag_514\n      tag_351\n      jump\t// in\n    tag_514:\n        /* \"#utility.yul\":13610:13653   */\n    tag_513:\n        /* \"#utility.yul\":13682:13690   */\n      dup4\n        /* \"#utility.yul\":13679:13680   */\n      0x02\n        /* \"#utility.yul\":13675:13691   */\n      exp\n        /* \"#utility.yul\":13666:13691   */\n      swap2\n      pop\n        /* \"#utility.yul\":13717:13720   */\n      dup5\n        /* \"#utility.yul\":13710:13715   */\n      dup3\n        /* \"#utility.yul\":13707:13721   */\n      gt\n        /* \"#utility.yul\":13704:13744   */\n      iszero\n      tag_515\n      jumpi\n        /* \"#utility.yul\":13724:13742   */\n      tag_516\n      tag_351\n      jump\t// in\n    tag_516:\n        /* \"#utility.yul\":13704:13744   */\n    tag_515:\n        /* \"#utility.yul\":13757:13762   */\n      pop\n      jump(tag_507)\n        /* \"#utility.yul\":13495:13772   */\n    tag_510:\n      pop\n        /* \"#utility.yul\":13881:13883   */\n      0x20\n        /* \"#utility.yul\":13871:13879   */\n      dup4\n        /* \"#utility.yul\":13868:13884   */\n      lt\n        /* \"#utility.yul\":13862:13865   */\n      0x0133\n        /* \"#utility.yul\":13856:13860   */\n      dup4\n        /* \"#utility.yul\":13853:13866   */\n      lt\n        /* \"#utility.yul\":13849:13885   */\n      and\n        /* \"#utility.yul\":13831:13833   */\n      0x4e\n        /* \"#utility.yul\":13821:13829   */\n      dup5\n        /* \"#utility.yul\":13818:13834   */\n      lt\n        /* \"#utility.yul\":13813:13815   */\n      0x0b\n        /* \"#utility.yul\":13807:13811   */\n      dup5\n        /* \"#utility.yul\":13804:13816   */\n      lt\n        /* \"#utility.yul\":13800:13835   */\n      and\n        /* \"#utility.yul\":13784:13895   */\n      or\n        /* \"#utility.yul\":13781:14027   */\n      iszero\n      tag_517\n      jumpi\n        /* \"#utility.yul\":13937:13945   */\n      dup3\n        /* \"#utility.yul\":13931:13935   */\n      dup3\n        /* \"#utility.yul\":13927:13946   */\n      exp\n        /* \"#utility.yul\":13918:13946   */\n      swap1\n      pop\n        /* \"#utility.yul\":13972:13975   */\n      dup4\n        /* \"#utility.yul\":13965:13970   */\n      dup2\n        /* \"#utility.yul\":13962:13976   */\n      gt\n        /* \"#utility.yul\":13959:13999   */\n      iszero\n      tag_518\n      jumpi\n        /* \"#utility.yul\":13979:13997   */\n      tag_519\n      tag_351\n      jump\t// in\n    tag_519:\n        /* \"#utility.yul\":13959:13999   */\n    tag_518:\n        /* \"#utility.yul\":14012:14017   */\n      jump(tag_507)\n        /* \"#utility.yul\":13781:14027   */\n    tag_517:\n        /* \"#utility.yul\":14052:14094   */\n      tag_520\n        /* \"#utility.yul\":14090:14093   */\n      dup5\n        /* \"#utility.yul\":14080:14088   */\n      dup5\n        /* \"#utility.yul\":14074:14078   */\n      dup5\n        /* \"#utility.yul\":14071:14072   */\n      0x01\n        /* \"#utility.yul\":14052:14094   */\n      tag_353\n      jump\t// in\n    tag_520:\n        /* \"#utility.yul\":14037:14094   */\n      swap3\n      pop\n      swap1\n      pop\n        /* \"#utility.yul\":14126:14130   */\n      dup2\n        /* \"#utility.yul\":14121:14124   */\n      dup5\n        /* \"#utility.yul\":14117:14131   */\n      div\n        /* \"#utility.yul\":14110:14115   */\n      dup2\n        /* \"#utility.yul\":14107:14132   */\n      gt\n        /* \"#utility.yul\":14104:14155   */\n      iszero\n      tag_521\n      jumpi\n        /* \"#utility.yul\":14135:14153   */\n      tag_522\n      tag_351\n      jump\t// in\n    tag_522:\n        /* \"#utility.yul\":14104:14155   */\n    tag_521:\n        /* \"#utility.yul\":14184:14188   */\n      dup2\n        /* \"#utility.yul\":14177:14182   */\n      dup2\n        /* \"#utility.yul\":14173:14189   */\n      mul\n        /* \"#utility.yul\":14164:14189   */\n      swap1\n      pop\n        /* \"#utility.yul\":13122:14195   */\n    tag_507:\n      swap4\n      swap3\n      pop\n      pop\n      pop\n      jump\t// out\n        /* \"#utility.yul\":14201:14287   */\n    tag_355:\n        /* \"#utility.yul\":14236:14243   */\n      0x00\n        /* \"#utility.yul\":14276:14280   */\n      0xff\n        /* \"#utility.yul\":14269:14274   */\n      dup3\n        /* \"#utility.yul\":14265:14281   */\n      and\n        /* \"#utility.yul\":14254:14281   */\n      swap1\n      pop\n        /* \"#utility.yul\":14201:14287   */\n      swap2\n      swap1\n      pop\n      jump\t// out\n        /* \"#utility.yul\":14293:14574   */\n    tag_209:\n        /* \"#utility.yul\":14351:14356   */\n      0x00\n        /* \"#utility.yul\":14375:14398   */\n      tag_525\n        /* \"#utility.yul\":14393:14397   */\n      dup3\n        /* \"#utility.yul\":14375:14398   */\n      tag_329\n      jump\t// in\n    tag_525:\n        /* \"#utility.yul\":14367:14398   */\n      swap2\n      pop\n        /* \"#utility.yul\":14419:14444   */\n      tag_526\n        /* \"#utility.yul\":14435:14443   */\n      dup4\n        /* \"#utility.yul\":14419:14444   */\n      tag_355\n      jump\t// in\n    tag_526:\n        /* \"#utility.yul\":14407:14444   */\n      swap3\n      pop\n        /* \"#utility.yul\":14463:14567   */\n      tag_527\n        /* \"#utility.yul\":14500:14566   */\n      0xffffffffffffffffffffffffffffffffffffffffffffffffffffffffffffffff\n        /* \"#utility.yul\":14490:14498   */\n      dup5\n        /* \"#utility.yul\":14484:14488   */\n      dup5\n        /* \"#utility.yul\":14463:14567   */\n      tag_354\n      jump\t// in\n    tag_527:\n        /* \"#utility.yul\":14454:14567   */\n      swap1\n      pop\n        /* \"#utility.yul\":14293:14574   */\n      swap3\n      swap2\n      pop\n      pop\n      jump\t// out\n        /* \"#utility.yul\":14580:14760   */\n    tag_356:\n        /* \"#utility.yul\":14628:14705   */\n      0x4e487b7100000000000000000000000000000000000000000000000000000000\n        /* \"#utility.yul\":14625:14626   */\n      0x00\n        /* \"#utility.yul\":14618:14706   */\n      mstore\n        /* \"#utility.yul\":14725:14729   */\n      0x12\n        /* \"#utility.yul\":14722:14723   */\n      0x04\n        /* \"#utility.yul\":14715:14730   */\n      mstore\n        /* \"#utility.yul\":14749:14753   */\n      0x24\n        /* \"#utility.yul\":14746:14747   */\n      0x00\n        /* \"#utility.yul\":14739:14754   */\n      revert\n        /* \"#utility.yul\":14766:14942   */\n    tag_215:\n        /* \"#utility.yul\":14798:14799   */\n      0x00\n        /* \"#utility.yul\":14815:14835   */\n      tag_530\n        /* \"#utility.yul\":14833:14834   */\n      dup3\n        /* \"#utility.yul\":14815:14835   */\n      tag_329\n      jump\t// in\n    tag_530:\n        /* \"#utility.yul\":14810:14835   */\n      swap2\n      pop\n        /* \"#utility.yul\":14849:14869   */\n      tag_531\n        /* \"#utility.yul\":14867:14868   */\n      dup4\n        /* \"#utility.yul\":14849:14869   */\n      tag_329\n      jump\t// in\n    tag_531:\n        /* \"#utility.yul\":14844:14869   */\n      swap3\n      pop\n        /* \"#utility.yul\":14888:14889   */\n      dup3\n        /* \"#utility.yul\":14878:14913   */\n      tag_532\n      jumpi\n        /* \"#utility.yul\":14893:14911   */\n      tag_533\n      tag_356\n      jump\t// in\n    tag_533:\n        /* \"#utility.yul\":14878:14913   */\n    tag_532:\n        /* \"#utility.yul\":14934:14935   */\n      dup3\n        /* \"#utility.yul\":14931:14932   */\n      dup3\n        /* \"#utility.yul\":14927:14936   */\n      mod\n        /* \"#utility.yul\":14922:14936   */\n      swap1\n      pop\n        /* \"#utility.yul\":14766:14942   */\n      swap3\n      swap2\n      pop\n      pop\n      jump\t// out\n        /* \"#utility.yul\":14948:15358   */\n    tag_255:\n        /* \"#utility.yul\":14988:14995   */\n      0x00\n        /* \"#utility.yul\":15011:15031   */\n      tag_535\n        /* \"#utility.yul\":15029:15030   */\n      dup3\n        /* \"#utility.yul\":15011:15031   */\n      tag_329\n      jump\t// in\n    tag_535:\n        /* \"#utility.yul\":15006:15031   */\n      swap2\n      pop\n        /* \"#utility.yul\":15045:15065   */\n      tag_536\n        /* \"#utility.yul\":15063:15064   */\n      dup4\n        /* \"#utility.yul\":15045:15065   */\n      tag_329\n      jump\t// in\n    tag_536:\n        /* \"#utility.yul\":15040:15065   */\n      swap3\n      pop\n        /* \"#utility.yul\":15100:15101   */\n      dup3\n        /* \"#utility.yul\":15097:15098   */\n      dup3\n        /* \"#utility.yul\":15093:15102   */\n      mul\n        /* \"#utility.yul\":15122:15152   */\n      tag_537\n        /* \"#utility.yul\":15140:15151   */\n      dup2\n        /* \"#utility.yul\":15122:15152   */\n      tag_329\n      jump\t// in\n    tag_537:\n        /* \"#utility.yul\":15111:15152   */\n      swap2\n      pop\n        /* \"#utility.yul\":15301:15302   */\n      dup3\n        /* \"#utility.yul\":15292:15299   */\n      dup3\n        /* \"#utility.yul\":15288:15303   */\n      div\n        /* \"#utility.yul\":15285:15286   */\n      dup5\n        /* \"#utility.yul\":15282:15304   */\n      eq\n        /* \"#utility.yul\":15262:15263   */\n      dup4\n        /* \"#utility.yul\":15255:15264   */\n      iszero\n        /* \"#utility.yul\":15235:15318   */\n      or\n        /* \"#utility.yul\":15212:15351   */\n      tag_538\n      jumpi\n        /* \"#utility.yul\":15331:15349   */\n      tag_539\n      tag_351\n      jump\t// in\n    tag_539:\n        /* \"#utility.yul\":15212:15351   */\n    tag_538:\n        /* \"#utility.yul\":14996:15358   */\n      pop\n        /* \"#utility.yul\":14948:15358   */\n      swap3\n      swap2\n      pop\n      pop\n      jump\t// out\n        /* \"#utility.yul\":15364:15549   */\n    tag_258:\n        /* \"#utility.yul\":15404:15405   */\n      0x00\n        /* \"#utility.yul\":15421:15441   */\n      tag_541\n        /* \"#utility.yul\":15439:15440   */\n      dup3\n        /* \"#utility.yul\":15421:15441   */\n      tag_329\n      jump\t// in\n    tag_541:\n        /* \"#utility.yul\":15416:15441   */\n      swap2\n      pop\n        /* \"#utility.yul\":15455:15475   */\n      tag_542\n        /* \"#utility.yul\":15473:15474   */\n      dup4\n        /* \"#utility.yul\":15455:15475   */\n      tag_329\n      jump\t// in\n    tag_542:\n        /* \"#utility.yul\":15450:15475   */\n      swap3\n      pop\n        /* \"#utility.yul\":15494:15495   */\n      dup3\n        /* \"#utility.yul\":15484:15519   */\n      tag_543\n      jumpi\n        /* \"#utility.yul\":15499:15517   */\n      tag_544\n      tag_356\n      jump\t// in\n    tag_544:\n        /* \"#utility.yul\":15484:15519   */\n    tag_543:\n        /* \"#utility.yul\":15541:15542   */\n      dup3\n        /* \"#utility.yul\":15538:15539   */\n      dup3\n        /* \"#utility.yul\":15534:15543   */\n      div\n        /* \"#utility.yul\":15529:15543   */\n      swap1\n      pop\n        /* \"#utility.yul\":15364:15549   */\n      swap3\n      swap2\n      pop\n      pop\n      jump\t// out\n        /* \"#utility.yul\":15555:15653   */\n    tag_357:\n        /* \"#utility.yul\":15606:15612   */\n      0x00\n        /* \"#utility.yul\":15640:15645   */\n      dup2\n        /* \"#utility.yul\":15634:15646   */\n      mload\n        /* \"#utility.yul\":15624:15646   */\n      swap1\n      pop\n        /* \"#utility.yul\":15555:15653   */\n      swap2\n      swap1\n      pop\n      jump\t// out\n        /* \"#utility.yul\":15659:15827   */\n    tag_358:\n        /* \"#utility.yul\":15742:15753   */\n      0x00\n        /* \"#utility.yul\":15776:15782   */\n      dup3\n        /* \"#utility.yul\":15771:15774   */\n      dup3\n        /* \"#utility.yul\":15764:15783   */\n      mstore\n        /* \"#utility.yul\":15816:15820   */\n      0x20\n        /* \"#utility.yul\":15811:15814   */\n      dup3\n        /* \"#utility.yul\":15807:15821   */\n      add\n        /* \"#utility.yul\":15792:15821   */\n      swap1\n      pop\n        /* \"#utility.yul\":15659:15827   */\n      swap3\n      swap2\n      pop\n      pop\n      jump\t// out\n        /* \"#utility.yul\":15833:16206   */\n    tag_359:\n        /* \"#utility.yul\":15919:15922   */\n      0x00\n        /* \"#utility.yul\":15947:15985   */\n      tag_548\n        /* \"#utility.yul\":15979:15984   */\n      dup3\n        /* \"#utility.yul\":15947:15985   */\n      tag_357\n      jump\t// in\n    tag_548:\n        /* \"#utility.yul\":16001:16071   */\n      tag_549\n        /* \"#utility.yul\":16064:16070   */\n      dup2\n        /* \"#utility.yul\":16059:16062   */\n      dup6\n        /* \"#utility.yul\":16001:16071   */\n      tag_358\n      jump\t// in\n    tag_549:\n        /* \"#utility.yul\":15994:16071   */\n      swap4\n      pop\n        /* \"#utility.yul\":16080:16145   */\n      tag_550\n        /* \"#utility.yul\":16138:16144   */\n      dup2\n        /* \"#utility.yul\":16133:16136   */\n      dup6\n        /* \"#utility.yul\":16126:16130   */\n      0x20\n        /* \"#utility.yul\":16119:16124   */\n      dup7\n        /* \"#utility.yul\":16115:16131   */\n      add\n        /* \"#utility.yul\":16080:16145   */\n      tag_326\n      jump\t// in\n    tag_550:\n        /* \"#utility.yul\":16170:16199   */\n      tag_551\n        /* \"#utility.yul\":16192:16198   */\n      dup2\n        /* \"#utility.yul\":16170:16199   */\n      tag_327\n      jump\t// in\n    tag_551:\n        /* \"#utility.yul\":16165:16168   */\n      dup5\n        /* \"#utility.yul\":16161:16200   */\n      add\n        /* \"#utility.yul\":16154:16200   */\n      swap2\n      pop\n        /* \"#utility.yul\":15923:16206   */\n      pop\n        /* \"#utility.yul\":15833:16206   */\n      swap3\n      swap2\n      pop\n      pop\n      jump\t// out\n        /* \"#utility.yul\":16212:16852   */\n    tag_274:\n        /* \"#utility.yul\":16407:16411   */\n      0x00\n        /* \"#utility.yul\":16445:16448   */\n      0x80\n        /* \"#utility.yul\":16434:16443   */\n      dup3\n        /* \"#utility.yul\":16430:16449   */\n      add\n        /* \"#utility.yul\":16422:16449   */\n      swap1\n      pop\n        /* \"#utility.yul\":16459:16530   */\n      tag_553\n        /* \"#utility.yul\":16527:16528   */\n      0x00\n        /* \"#utility.yul\":16516:16525   */\n      dup4\n        /* \"#utility.yul\":16512:16529   */\n      add\n        /* \"#utility.yul\":16503:16509   */\n      dup8\n        /* \"#utility.yul\":16459:16530   */\n      tag_334\n      jump\t// in\n    tag_553:\n        /* \"#utility.yul\":16540:16612   */\n      tag_554\n        /* \"#utility.yul\":16608:16610   */\n      0x20\n        /* \"#utility.yul\":16597:16606   */\n      dup4\n        /* \"#utility.yul\":16593:16611   */\n      add\n        /* \"#utility.yul\":16584:16590   */\n      dup7\n        /* \"#utility.yul\":16540:16612   */\n      tag_334\n      jump\t// in\n    tag_554:\n        /* \"#utility.yul\":16622:16694   */\n      tag_555\n        /* \"#utility.yul\":16690:16692   */\n      0x40\n        /* \"#utility.yul\":16679:16688   */\n      dup4\n        /* \"#utility.yul\":16675:16693   */\n      add\n        /* \"#utility.yul\":16666:16672   */\n      dup6\n        /* \"#utility.yul\":16622:16694   */\n      tag_337\n      jump\t// in\n    tag_555:\n        /* \"#utility.yul\":16741:16750   */\n      dup2\n        /* \"#utility.yul\":16735:16739   */\n      dup2\n        /* \"#utility.yul\":16731:16751   */\n      sub\n        /* \"#utility.yul\":16726:16728   */\n      0x60\n        /* \"#utility.yul\":16715:16724   */\n      dup4\n        /* \"#utility.yul\":16711:16729   */\n      add\n        /* \"#utility.yul\":16704:16752   */\n      mstore\n        /* \"#utility.yul\":16769:16845   */\n      tag_556\n        /* \"#utility.yul\":16840:16844   */\n      dup2\n        /* \"#utility.yul\":16831:16837   */\n      dup5\n        /* \"#utility.yul\":16769:16845   */\n      tag_359\n      jump\t// in\n    tag_556:\n        /* \"#utility.yul\":16761:16845   */\n      swap1\n      pop\n        /* \"#utility.yul\":16212:16852   */\n      swap6\n      swap5\n      pop\n      pop\n      pop\n      pop\n      pop\n      jump\t// out\n        /* \"#utility.yul\":16858:16999   */\n    tag_360:\n        /* \"#utility.yul\":16914:16919   */\n      0x00\n        /* \"#utility.yul\":16945:16951   */\n      dup2\n        /* \"#utility.yul\":16939:16952   */\n      mload\n        /* \"#utility.yul\":16930:16952   */\n      swap1\n      pop\n        /* \"#utility.yul\":16961:16993   */\n      tag_558\n        /* \"#utility.yul\":16987:16992   */\n      dup2\n        /* \"#utility.yul\":16961:16993   */\n      tag_320\n      jump\t// in\n    tag_558:\n        /* \"#utility.yul\":16858:16999   */\n      swap3\n      swap2\n      pop\n      pop\n      jump\t// out\n        /* \"#utility.yul\":17005:17354   */\n    tag_277:\n        /* \"#utility.yul\":17074:17080   */\n      0x00\n        /* \"#utility.yul\":17123:17125   */\n      0x20\n        /* \"#utility.yul\":17111:17120   */\n      dup3\n        /* \"#utility.yul\":17102:17109   */\n      dup5\n        /* \"#utility.yul\":17098:17121   */\n      sub\n        /* \"#utility.yul\":17094:17126   */\n      slt\n        /* \"#utility.yul\":17091:17210   */\n      iszero\n      tag_560\n      jumpi\n        /* \"#utility.yul\":17129:17208   */\n      tag_561\n      tag_317\n      jump\t// in\n    tag_561:\n        /* \"#utility.yul\":17091:17210   */\n    tag_560:\n        /* \"#utility.yul\":17249:17250   */\n      0x00\n        /* \"#utility.yul\":17274:17337   */\n      tag_562\n        /* \"#utility.yul\":17329:17336   */\n      dup5\n        /* \"#utility.yul\":17320:17326   */\n      dup3\n        /* \"#utility.yul\":17309:17318   */\n      dup6\n        /* \"#utility.yul\":17305:17327   */\n      add\n        /* \"#utility.yul\":17274:17337   */\n      tag_360\n      jump\t// in\n    tag_562:\n        /* \"#utility.yul\":17264:17337   */\n      swap2\n      pop\n        /* \"#utility.yul\":17220:17347   */\n      pop\n        /* \"#utility.yul\":17005:17354   */\n      swap3\n      swap2\n      pop\n      pop\n      jump\t// out\n        /* \"#utility.yul\":17360:17554   */\n    tag_289:\n        /* \"#utility.yul\":17400:17404   */\n      0x00\n        /* \"#utility.yul\":17420:17440   */\n      tag_564\n        /* \"#utility.yul\":17438:17439   */\n      dup3\n        /* \"#utility.yul\":17420:17440   */\n      tag_329\n      jump\t// in\n    tag_564:\n        /* \"#utility.yul\":17415:17440   */\n      swap2\n      pop\n        /* \"#utility.yul\":17454:17474   */\n      tag_565\n        /* \"#utility.yul\":17472:17473   */\n      dup4\n        /* \"#utility.yul\":17454:17474   */\n      tag_329\n      jump\t// in\n    tag_565:\n        /* \"#utility.yul\":17449:17474   */\n      swap3\n      pop\n        /* \"#utility.yul\":17498:17499   */\n      dup3\n        /* \"#utility.yul\":17495:17496   */\n      dup3\n        /* \"#utility.yul\":17491:17500   */\n      sub\n        /* \"#utility.yul\":17483:17500   */\n      swap1\n      pop\n        /* \"#utility.yul\":17522:17523   */\n      dup2\n        /* \"#utility.yul\":17516:17520   */\n      dup2\n        /* \"#utility.yul\":17513:17524   */\n      gt\n        /* \"#utility.yul\":17510:17547   */\n      iszero\n      tag_566\n      jumpi\n        /* \"#utility.yul\":17527:17545   */\n      tag_567\n      tag_351\n      jump\t// in\n    tag_567:\n        /* \"#utility.yul\":17510:17547   */\n    tag_566:\n        /* \"#utility.yul\":17360:17554   */\n      swap3\n      swap2\n      pop\n      pop\n      jump\t// out\n        /* \"#utility.yul\":17560:17751   */\n    tag_292:\n        /* \"#utility.yul\":17600:17603   */\n      0x00\n        /* \"#utility.yul\":17619:17639   */\n      tag_569\n        /* \"#utility.yul\":17637:17638   */\n      dup3\n        /* \"#utility.yul\":17619:17639   */\n      tag_329\n      jump\t// in\n    tag_569:\n        /* \"#utility.yul\":17614:17639   */\n      swap2\n      pop\n        /* \"#utility.yul\":17653:17673   */\n      tag_570\n        /* \"#utility.yul\":17671:17672   */\n      dup4\n        /* \"#utility.yul\":17653:17673   */\n      tag_329\n      jump\t// in\n    tag_570:\n        /* \"#utility.yul\":17648:17673   */\n      swap3\n      pop\n        /* \"#utility.yul\":17696:17697   */\n      dup3\n        /* \"#utility.yul\":17693:17694   */\n      dup3\n        /* \"#utility.yul\":17689:17698   */\n      add\n        /* \"#utility.yul\":17682:17698   */\n      swap1\n      pop\n        /* \"#utility.yul\":17717:17720   */\n      dup1\n        /* \"#utility.yul\":17714:17715   */\n      dup3\n        /* \"#utility.yul\":17711:17721   */\n      gt\n        /* \"#utility.yul\":17708:17744   */\n      iszero\n      tag_571\n      jumpi\n        /* \"#utility.yul\":17724:17742   */\n      tag_572\n      tag_351\n      jump\t// in\n    tag_572:\n        /* \"#utility.yul\":17708:17744   */\n    tag_571:\n        /* \"#utility.yul\":17560:17751   */\n      swap3\n      swap2\n      pop\n      pop\n      jump\t// out\n        /* \"#utility.yul\":17757:17990   */\n    tag_299:\n        /* \"#utility.yul\":17796:17799   */\n      0x00\n        /* \"#utility.yul\":17819:17843   */\n      tag_574\n        /* \"#utility.yul\":17837:17842   */\n      dup3\n        /* \"#utility.yul\":17819:17843   */\n      tag_329\n      jump\t// in\n    tag_574:\n        /* \"#utility.yul\":17810:17843   */\n      swap2\n      pop\n        /* \"#utility.yul\":17865:17931   */\n      0xffffffffffffffffffffffffffffffffffffffffffffffffffffffffffffffff\n        /* \"#utility.yul\":17858:17863   */\n      dup3\n        /* \"#utility.yul\":17855:17932   */\n      sub\n        /* \"#utility.yul\":17852:17955   */\n      tag_575\n      jumpi\n        /* \"#utility.yul\":17935:17953   */\n      tag_576\n      tag_351\n      jump\t// in\n    tag_576:\n        /* \"#utility.yul\":17852:17955   */\n    tag_575:\n        /* \"#utility.yul\":17982:17983   */\n      0x01\n        /* \"#utility.yul\":17975:17980   */\n      dup3\n        /* \"#utility.yul\":17971:17984   */\n      add\n        /* \"#utility.yul\":17964:17984   */\n      swap1\n      pop\n        /* \"#utility.yul\":17757:17990   */\n      swap2\n      swap1\n      pop\n      jump\t// out\n        /* \"#utility.yul\":17996:18176   */\n    tag_312:\n        /* \"#utility.yul\":18044:18121   */\n      0x4e487b7100000000000000000000000000000000000000000000000000000000\n        /* \"#utility.yul\":18041:18042   */\n      0x00\n        /* \"#utility.yul\":18034:18122   */\n      mstore\n        /* \"#utility.yul\":18141:18145   */\n      0x32\n        /* \"#utility.yul\":18138:18139   */\n      0x04\n        /* \"#utility.yul\":18131:18146   */\n      mstore\n        /* \"#utility.yul\":18165:18169   */\n      0x24\n        /* \"#utility.yul\":18162:18163   */\n      0x00\n        /* \"#utility.yul\":18155:18170   */\n      revert\n    stop\n    data_d8cc7cbf95b52afa2322fac553d3c4e20f5096fb87da64785a945de91007c7b2 68747470733a2f2f676174657761792e70696e6174612e636c6f75642f697066732f516d654e373753715459457258644d5134684c3431623166614778414b7434515741354e475646755a753978486e2f\n\n    auxdata: 0xa264697066735822122074575bc0c53afc80d23c637f8fb51308891c660bc3c319579ccc44a88175bbdc64736f6c63430008110033\n}\n",
				"bytecode": {
					"linkReferences": {},
					"object": "60806040523480156200001157600080fd5b50604051620030ae380380620030ae83398181016040528101906200003791906200027c565b826007908162000048919062000557565b5081600890816200005a919062000557565b5061271060058190555062000074620000a960201b60201c565b60048190555080600081905550674563918244f4000060018190555061b3b0600381905550436002819055505050506200063e565b600090565b6000604051905090565b600080fd5b600080fd5b600080fd5b600080fd5b6000601f19601f8301169050919050565b7f4e487b7100000000000000000000000000000000000000000000000000000000600052604160045260246000fd5b6200011782620000cc565b810181811067ffffffffffffffff82111715620001395762000138620000dd565b5b80604052505050565b60006200014e620000ae565b90506200015c82826200010c565b919050565b600067ffffffffffffffff8211156200017f576200017e620000dd565b5b6200018a82620000cc565b9050602081019050919050565b60005b83811015620001b75780820151818401526020810190506200019a565b60008484015250505050565b6000620001da620001d48462000161565b62000142565b905082815260208101848484011115620001f957620001f8620000c7565b5b6200020684828562000197565b509392505050565b600082601f830112620002265762000225620000c2565b5b815162000238848260208601620001c3565b91505092915050565b6000819050919050565b620002568162000241565b81146200026257600080fd5b50565b60008151905062000276816200024b565b92915050565b600080600060608486031215620002985762000297620000b8565b5b600084015167ffffffffffffffff811115620002b957620002b8620000bd565b5b620002c7868287016200020e565b935050602084015167ffffffffffffffff811115620002eb57620002ea620000bd565b5b620002f9868287016200020e565b92505060406200030c8682870162000265565b9150509250925092565b600081519050919050565b7f4e487b7100000000000000000000000000000000000000000000000000000000600052602260045260246000fd5b600060028204905060018216806200036957607f821691505b6020821081036200037f576200037e62000321565b5b50919050565b60008190508160005260206000209050919050565b60006020601f8301049050919050565b600082821b905092915050565b600060088302620003e97fffffffffffffffffffffffffffffffffffffffffffffffffffffffffffffffff82620003aa565b620003f58683620003aa565b95508019841693508086168417925050509392505050565b6000819050919050565b600062000438620004326200042c8462000241565b6200040d565b62000241565b9050919050565b6000819050919050565b620004548362000417565b6200046c62000463826200043f565b848454620003b7565b825550505050565b600090565b6200048362000474565b6200049081848462000449565b505050565b5b81811015620004b857620004ac60008262000479565b60018101905062000496565b5050565b601f8211156200050757620004d18162000385565b620004dc846200039a565b81016020851015620004ec578190505b62000504620004fb856200039a565b83018262000495565b50505b505050565b600082821c905092915050565b60006200052c600019846008026200050c565b1980831691505092915050565b600062000547838362000519565b9150826002028217905092915050565b620005628262000316565b67ffffffffffffffff8111156200057e576200057d620000dd565b5b6200058a825462000350565b62000597828285620004bc565b600060209050601f831160018114620005cf5760008415620005ba578287015190505b620005c6858262000539565b86555062000636565b601f198416620005df8662000385565b60005b828110156200060957848901518255600182019150602085019450602081019050620005e2565b8683101562000629578489015162000625601f89168262000519565b8355505b6001600288020188555050505b505050505050565b612a60806200064e6000396000f3fe608060405234801561001057600080fd5b50600436106101375760003560e01c806395d89b41116100b8578063d5abeb011161007c578063d5abeb0114610372578063d993226b14610390578063db3ad22c146103c0578063e29301f9146103de578063e985e9c51461040e578063eff0730d1461043e57610137565b806395d89b41146102bc578063a22cb465146102da578063b88d4fde146102f6578063b8ba600714610312578063c87b56dd1461034257610137565b806323b872dd116100ff57806323b872dd146101f457806342842e0e146102105780634be3403c1461022c5780636352211e1461025c57806370a082311461028c57610137565b806301ffc9a71461013c57806306fdde031461016c578063081812fc1461018a578063095ea7b3146101ba57806318160ddd146101d6575b600080fd5b61015660048036038101906101519190611f7c565b61046e565b6040516101639190611fc4565b60405180910390f35b610174610550565b604051610181919061206f565b60405180910390f35b6101a4600480360381019061019f91906120c7565b6105e2565b6040516101b19190612135565b60405180910390f35b6101d460048036038101906101cf919061217c565b61065e565b005b6101de610762565b6040516101eb91906121cb565b60405180910390f35b61020e600480360381019061020991906121e6565b610779565b005b61022a600480360381019061022591906121e6565b610789565b005b610246600480360381019061024191906120c7565b6107a9565b60405161025391906121cb565b60405180910390f35b610276600480360381019061027191906120c7565b61081a565b6040516102839190612135565b60405180910390f35b6102a660048036038101906102a19190612239565b610830565b6040516102b391906121cb565b60405180910390f35b6102c46108ff565b6040516102d1919061206f565b60405180910390f35b6102f460048036038101906102ef9190612292565b610991565b005b610310600480360381019061030b9190612407565b610b08565b005b61032c60048036038101906103279190612239565b610b80565b60405161033991906121cb565b60405180910390f35b61035c600480360381019061035791906120c7565b610d7c565b604051610369919061206f565b60405180910390f35b61037a610e1a565b60405161038791906121cb565b60405180910390f35b6103aa60048036038101906103a591906120c7565b610e31565b6040516103b791906121cb565b60405180910390f35b6103c8610e7d565b6040516103d591906121cb565b60405180910390f35b6103f860048036038101906103f391906120c7565b610e87565b60405161040591906121cb565b60405180910390f35b6104286004803603810190610423919061248a565b610ee9565b6040516104359190611fc4565b60405180910390f35b6104586004803603810190610453919061217c565b610f7d565b60405161046591906121cb565b60405180910390f35b60007f80ac58cd000000000000000000000000000000000000000000000000000000007bffffffffffffffffffffffffffffffffffffffffffffffffffffffff1916827bffffffffffffffffffffffffffffffffffffffffffffffffffffffff1916148061053957507f5b5e139f000000000000000000000000000000000000000000000000000000007bffffffffffffffffffffffffffffffffffffffffffffffffffffffff1916827bffffffffffffffffffffffffffffffffffffffffffffffffffffffff1916145b80610549575061054882610fd8565b5b9050919050565b60606007805461055f906124f9565b80601f016020809104026020016040519081016040528092919081815260200182805461058b906124f9565b80156105d85780601f106105ad576101008083540402835291602001916105d8565b820191906000526020600020905b8154815290600101906020018083116105bb57829003601f168201915b5050505050905090565b60006105ed82611042565b610623576040517fcf4700e400000000000000000000000000000000000000000000000000000000815260040160405180910390fd5b600b600083815260200190815260200160002060009054906101000a900473ffffffffffffffffffffffffffffffffffffffff169050919050565b60006106698261081a565b90508073ffffffffffffffffffffffffffffffffffffffff168373ffffffffffffffffffffffffffffffffffffffff16036106d0576040517f943f7b8c00000000000000000000000000000000000000000000000000000000815260040160405180910390fd5b8073ffffffffffffffffffffffffffffffffffffffff166106ef611090565b73ffffffffffffffffffffffffffffffffffffffff16146107525761071b81610716611090565b610ee9565b610751576040517fcfb3b94200000000000000000000000000000000000000000000000000000000815260040160405180910390fd5b5b61075d838383611098565b505050565b600061076c61114a565b6006546004540303905090565b61078483838361114f565b505050565b6107a483838360405180602001604052806000815250610b08565b505050565b60006002548210156107bb5760025491505b60006107e9760a70c3c40a64e6c51999090b65f67d92400000000000006001546118eb90919063ffffffff16565b905060006107f684610e31565b9050600061080d828461190190919063ffffffff16565b9050809350505050919050565b600061082582611917565b600001519050919050565b60008073ffffffffffffffffffffffffffffffffffffffff168273ffffffffffffffffffffffffffffffffffffffff1603610897576040517f8f4eb60400000000000000000000000000000000000000000000000000000000815260040160405180910390fd5b600a60008373ffffffffffffffffffffffffffffffffffffffff1673ffffffffffffffffffffffffffffffffffffffff16815260200190815260200160002060000160009054906101000a900467ffffffffffffffff1667ffffffffffffffff169050919050565b60606008805461090e906124f9565b80601f016020809104026020016040519081016040528092919081815260200182805461093a906124f9565b80156109875780601f1061095c57610100808354040283529160200191610987565b820191906000526020600020905b81548152906001019060200180831161096a57829003601f168201915b5050505050905090565b610999611090565b73ffffffffffffffffffffffffffffffffffffffff168273ffffffffffffffffffffffffffffffffffffffff16036109fd576040517fb06307db00000000000000000000000000000000000000000000000000000000815260040160405180910390fd5b80600c6000610a0a611090565b73ffffffffffffffffffffffffffffffffffffffff1673ffffffffffffffffffffffffffffffffffffffff16815260200190815260200160002060008473ffffffffffffffffffffffffffffffffffffffff1673ffffffffffffffffffffffffffffffffffffffff16815260200190815260200160002060006101000a81548160ff0219169083151502179055508173ffffffffffffffffffffffffffffffffffffffff16610ab7611090565b73ffffffffffffffffffffffffffffffffffffffff167f17307eab39ab6107e8899845ad3d59bd9653f200f220920489ca2b5937696c3183604051610afc9190611fc4565b60405180910390a35050565b610b1384848461114f565b610b328373ffffffffffffffffffffffffffffffffffffffff16611ba2565b15610b7a57610b4384848484611bc5565b610b79576040517fd1a57ed600000000000000000000000000000000000000000000000000000000815260040160405180910390fd5b5b50505050565b600080610be7600d60008573ffffffffffffffffffffffffffffffffffffffff1673ffffffffffffffffffffffffffffffffffffffff1681526020019081526020016000206000600181526020019081526020016000205443611d1590919063ffffffff16565b90506000610c45600d60008673ffffffffffffffffffffffffffffffffffffffff1673ffffffffffffffffffffffffffffffffffffffff168152602001908152602001600020600060018152602001908152602001600020546107a9565b90506000610c52436107a9565b90506000610c8e6002610c8086610c728688611d2b90919063ffffffff16565b6118eb90919063ffffffff16565b61190190919063ffffffff16565b90506000610d0a600354610cfc600d60008b73ffffffffffffffffffffffffffffffffffffffff1673ffffffffffffffffffffffffffffffffffffffff16815260200190815260200160002060006002815260200190815260200160002054856118eb90919063ffffffff16565b61190190919063ffffffff16565b9050610d7081600d60008a73ffffffffffffffffffffffffffffffffffffffff1673ffffffffffffffffffffffffffffffffffffffff16815260200190815260200160002060006003815260200190815260200160002054611d2b90919063ffffffff16565b95505050505050919050565b6060610d8782611042565b610dbd576040517fa14c4b5000000000000000000000000000000000000000000000000000000000815260040160405180910390fd5b6000610dc7611d41565b90506000815103610de75760405180602001604052806000815250610e12565b80610df184611d61565b604051602001610e02929190612566565b6040516020818303038152906040525b915050919050565b6000610e2461114a565b6006546005540303905090565b600080610e63600254610e55670de0b6b3a7640000866118eb90919063ffffffff16565b61190190919063ffffffff16565b9050600481610e7291906126f9565b905080915050919050565b6000600354905090565b600080610eb183610ea3600054866118eb90919063ffffffff16565b611d2b90919063ffffffff16565b90506000600a82610ec29190612773565b03610ed05760019050610ee0565b600a81610edd9190612773565b90505b80915050919050565b6000600c60008473ffffffffffffffffffffffffffffffffffffffff1673ffffffffffffffffffffffffffffffffffffffff16815260200190815260200160002060008373ffffffffffffffffffffffffffffffffffffffff1673ffffffffffffffffffffffffffffffffffffffff16815260200190815260200160002060009054906101000a900460ff16905092915050565b6000600d60008473ffffffffffffffffffffffffffffffffffffffff1673ffffffffffffffffffffffffffffffffffffffff168152602001908152602001600020600083815260200190815260200160002054905092915050565b60007f01ffc9a7000000000000000000000000000000000000000000000000000000007bffffffffffffffffffffffffffffffffffffffffffffffffffffffff1916827bffffffffffffffffffffffffffffffffffffffffffffffffffffffff1916149050919050565b60008161104d61114a565b1115801561105c575060045482105b8015611089575060096000838152602001908152602001600020600001601c9054906101000a900460ff16155b9050919050565b600033905090565b82600b600084815260200190815260200160002060006101000a81548173ffffffffffffffffffffffffffffffffffffffff021916908373ffffffffffffffffffffffffffffffffffffffff160217905550818373ffffffffffffffffffffffffffffffffffffffff168273ffffffffffffffffffffffffffffffffffffffff167f8c5be1e5ebec7d5bd14f71427d1e84f3dd0314c0f7b2291e5b200ac8c7c3b92560405160405180910390a4505050565b600090565b600061115a82610e87565b905061116584610b80565b600d60008673ffffffffffffffffffffffffffffffffffffffff1673ffffffffffffffffffffffffffffffffffffffff1681526020019081526020016000206000600381526020019081526020016000208190555061121e81600d60008773ffffffffffffffffffffffffffffffffffffffff1673ffffffffffffffffffffffffffffffffffffffff16815260200190815260200160002060006002815260200190815260200160002054611d1590919063ffffffff16565b600d60008673ffffffffffffffffffffffffffffffffffffffff1673ffffffffffffffffffffffffffffffffffffffff1681526020019081526020016000206000600281526020019081526020016000208190555043600d60008673ffffffffffffffffffffffffffffffffffffffff1673ffffffffffffffffffffffffffffffffffffffff168152602001908152602001600020600060018152602001908152602001600020819055506112d283610b80565b600d60008573ffffffffffffffffffffffffffffffffffffffff1673ffffffffffffffffffffffffffffffffffffffff1681526020019081526020016000206000600381526020019081526020016000208190555061138b81600d60008673ffffffffffffffffffffffffffffffffffffffff1673ffffffffffffffffffffffffffffffffffffffff16815260200190815260200160002060006002815260200190815260200160002054611d2b90919063ffffffff16565b600d60008573ffffffffffffffffffffffffffffffffffffffff1673ffffffffffffffffffffffffffffffffffffffff1681526020019081526020016000206000600281526020019081526020016000208190555043600d60008573ffffffffffffffffffffffffffffffffffffffff1673ffffffffffffffffffffffffffffffffffffffff16815260200190815260200160002060006001815260200190815260200160002081905550600061144183611917565b90508473ffffffffffffffffffffffffffffffffffffffff16816000015173ffffffffffffffffffffffffffffffffffffffff16146114ac576040517fa114810000000000000000000000000000000000000000000000000000000000815260040160405180910390fd5b60008573ffffffffffffffffffffffffffffffffffffffff166114cd611090565b73ffffffffffffffffffffffffffffffffffffffff1614806114fc57506114fb866114f6611090565b610ee9565b5b80611541575061150a611090565b73ffffffffffffffffffffffffffffffffffffffff16611529856105e2565b73ffffffffffffffffffffffffffffffffffffffff16145b90508061157a576040517f59c896be00000000000000000000000000000000000000000000000000000000815260040160405180910390fd5b600073ffffffffffffffffffffffffffffffffffffffff168573ffffffffffffffffffffffffffffffffffffffff16036115e0576040517fea553b3400000000000000000000000000000000000000000000000000000000815260040160405180910390fd5b6115ed8686866001611ec1565b6115f960008588611098565b6001600a60008873ffffffffffffffffffffffffffffffffffffffff1673ffffffffffffffffffffffffffffffffffffffff16815260200190815260200160002060000160008282829054906101000a900467ffffffffffffffff160392506101000a81548167ffffffffffffffff021916908367ffffffffffffffff1602179055506001600a60008773ffffffffffffffffffffffffffffffffffffffff1673ffffffffffffffffffffffffffffffffffffffff16815260200190815260200160002060000160008282829054906101000a900467ffffffffffffffff160192506101000a81548167ffffffffffffffff021916908367ffffffffffffffff1602179055506000600960008681526020019081526020016000209050858160000160006101000a81548173ffffffffffffffffffffffffffffffffffffffff021916908373ffffffffffffffffffffffffffffffffffffffff160217905550428160000160146101000a81548167ffffffffffffffff021916908367ffffffffffffffff16021790555060006001860190506000600960008381526020019081526020016000209050600073ffffffffffffffffffffffffffffffffffffffff168160000160009054906101000a900473ffffffffffffffffffffffffffffffffffffffff1673ffffffffffffffffffffffffffffffffffffffff160361187857600454821461187757888160000160006101000a81548173ffffffffffffffffffffffffffffffffffffffff021916908373ffffffffffffffffffffffffffffffffffffffff16021790555084602001518160000160146101000a81548167ffffffffffffffff021916908367ffffffffffffffff1602179055505b5b505050838573ffffffffffffffffffffffffffffffffffffffff168773ffffffffffffffffffffffffffffffffffffffff167fddf252ad1be2c89b69c2b068fc378daa952ba7f163c4a11628f55a4df523b3ef60405160405180910390a46118e38686866001611ec7565b505050505050565b600081836118f991906127a4565b905092915050565b6000818361190f91906127e6565b905092915050565b61191f611ecd565b60008290508061192d61114a565b11611b6b57600454811015611b6a576000600960008381526020019081526020016000206040518060600160405290816000820160009054906101000a900473ffffffffffffffffffffffffffffffffffffffff1673ffffffffffffffffffffffffffffffffffffffff1673ffffffffffffffffffffffffffffffffffffffff1681526020016000820160149054906101000a900467ffffffffffffffff1667ffffffffffffffff1667ffffffffffffffff16815260200160008201601c9054906101000a900460ff16151515158152505090508060400151611b6857600073ffffffffffffffffffffffffffffffffffffffff16816000015173ffffffffffffffffffffffffffffffffffffffff1614611a4c578092505050611b9d565b5b600115611b6757818060019003925050600960008381526020019081526020016000206040518060600160405290816000820160009054906101000a900473ffffffffffffffffffffffffffffffffffffffff1673ffffffffffffffffffffffffffffffffffffffff1673ffffffffffffffffffffffffffffffffffffffff1681526020016000820160149054906101000a900467ffffffffffffffff1667ffffffffffffffff1667ffffffffffffffff16815260200160008201601c9054906101000a900460ff1615151515815250509050600073ffffffffffffffffffffffffffffffffffffffff16816000015173ffffffffffffffffffffffffffffffffffffffff1614611b62578092505050611b9d565b611a4d565b5b505b5b6040517fdf2d9b4200000000000000000000000000000000000000000000000000000000815260040160405180910390fd5b919050565b6000808273ffffffffffffffffffffffffffffffffffffffff163b119050919050565b60008373ffffffffffffffffffffffffffffffffffffffff1663150b7a02611beb611090565b8786866040518563ffffffff1660e01b8152600401611c0d949392919061286c565b6020604051808303816000875af1925050508015611c4957506040513d601f19601f82011682018060405250810190611c4691906128cd565b60015b611cc2573d8060008114611c79576040519150601f19603f3d011682016040523d82523d6000602084013e611c7e565b606091505b506000815103611cba576040517fd1a57ed600000000000000000000000000000000000000000000000000000000815260040160405180910390fd5b805181602001fd5b63150b7a0260e01b7bffffffffffffffffffffffffffffffffffffffffffffffffffffffff1916817bffffffffffffffffffffffffffffffffffffffffffffffffffffffff191614915050949350505050565b60008183611d2391906128fa565b905092915050565b60008183611d39919061292e565b905092915050565b60606040518060800160405280605181526020016129da60519139905090565b606060008203611da8576040518060400160405280600181526020017f30000000000000000000000000000000000000000000000000000000000000008152509050611ebc565b600082905060005b60008214611dda578080611dc390612962565b915050600a82611dd391906127e6565b9150611db0565b60008167ffffffffffffffff811115611df657611df56122dc565b5b6040519080825280601f01601f191660200182016040528015611e285781602001600182028036833780820191505090505b5090505b60008514611eb557600182611e4191906128fa565b9150600a85611e509190612773565b6030611e5c919061292e565b60f81b818381518110611e7257611e716129aa565b5b60200101907effffffffffffffffffffffffffffffffffffffffffffffffffffffffffffff1916908160001a905350600a85611eae91906127e6565b9450611e2c565b8093505050505b919050565b50505050565b50505050565b6040518060600160405280600073ffffffffffffffffffffffffffffffffffffffff168152602001600067ffffffffffffffff1681526020016000151581525090565b6000604051905090565b600080fd5b600080fd5b60007fffffffff0000000000000000000000000000000000000000000000000000000082169050919050565b611f5981611f24565b8114611f6457600080fd5b50565b600081359050611f7681611f50565b92915050565b600060208284031215611f9257611f91611f1a565b5b6000611fa084828501611f67565b91505092915050565b60008115159050919050565b611fbe81611fa9565b82525050565b6000602082019050611fd96000830184611fb5565b92915050565b600081519050919050565b600082825260208201905092915050565b60005b83811015612019578082015181840152602081019050611ffe565b60008484015250505050565b6000601f19601f8301169050919050565b600061204182611fdf565b61204b8185611fea565b935061205b818560208601611ffb565b61206481612025565b840191505092915050565b600060208201905081810360008301526120898184612036565b905092915050565b6000819050919050565b6120a481612091565b81146120af57600080fd5b50565b6000813590506120c18161209b565b92915050565b6000602082840312156120dd576120dc611f1a565b5b60006120eb848285016120b2565b91505092915050565b600073ffffffffffffffffffffffffffffffffffffffff82169050919050565b600061211f826120f4565b9050919050565b61212f81612114565b82525050565b600060208201905061214a6000830184612126565b92915050565b61215981612114565b811461216457600080fd5b50565b60008135905061217681612150565b92915050565b6000806040838503121561219357612192611f1a565b5b60006121a185828601612167565b92505060206121b2858286016120b2565b9150509250929050565b6121c581612091565b82525050565b60006020820190506121e060008301846121bc565b92915050565b6000806000606084860312156121ff576121fe611f1a565b5b600061220d86828701612167565b935050602061221e86828701612167565b925050604061222f868287016120b2565b9150509250925092565b60006020828403121561224f5761224e611f1a565b5b600061225d84828501612167565b91505092915050565b61226f81611fa9565b811461227a57600080fd5b50565b60008135905061228c81612266565b92915050565b600080604083850312156122a9576122a8611f1a565b5b60006122b785828601612167565b92505060206122c88582860161227d565b9150509250929050565b600080fd5b600080fd5b7f4e487b7100000000000000000000000000000000000000000000000000000000600052604160045260246000fd5b61231482612025565b810181811067ffffffffffffffff82111715612333576123326122dc565b5b80604052505050565b6000612346611f10565b9050612352828261230b565b919050565b600067ffffffffffffffff821115612372576123716122dc565b5b61237b82612025565b9050602081019050919050565b82818337600083830152505050565b60006123aa6123a584612357565b61233c565b9050828152602081018484840111156123c6576123c56122d7565b5b6123d1848285612388565b509392505050565b600082601f8301126123ee576123ed6122d2565b5b81356123fe848260208601612397565b91505092915050565b6000806000806080858703121561242157612420611f1a565b5b600061242f87828801612167565b945050602061244087828801612167565b9350506040612451878288016120b2565b925050606085013567ffffffffffffffff81111561247257612471611f1f565b5b61247e878288016123d9565b91505092959194509250565b600080604083850312156124a1576124a0611f1a565b5b60006124af85828601612167565b92505060206124c085828601612167565b9150509250929050565b7f4e487b7100000000000000000000000000000000000000000000000000000000600052602260045260246000fd5b6000600282049050600182168061251157607f821691505b602082108103612524576125236124ca565b5b50919050565b600081905092915050565b600061254082611fdf565b61254a818561252a565b935061255a818560208601611ffb565b80840191505092915050565b60006125728285612535565b915061257e8284612535565b91508190509392505050565b7f4e487b7100000000000000000000000000000000000000000000000000000000600052601160045260246000fd5b60008160011c9050919050565b6000808291508390505b6001851115612610578086048111156125ec576125eb61258a565b5b60018516156125fb5780820291505b8081029050612609856125b9565b94506125d0565b94509492505050565b60008261262957600190506126e5565b8161263757600090506126e5565b816001811461264d576002811461265757612686565b60019150506126e5565b60ff8411156126695761266861258a565b5b8360020a9150848211156126805761267f61258a565b5b506126e5565b5060208310610133831016604e8410600b84101617156126bb5782820a9050838111156126b6576126b561258a565b5b6126e5565b6126c884848460016125c6565b925090508184048111156126df576126de61258a565b5b81810290505b9392505050565b600060ff82169050919050565b600061270482612091565b915061270f836126ec565b925061273c7fffffffffffffffffffffffffffffffffffffffffffffffffffffffffffffffff8484612619565b905092915050565b7f4e487b7100000000000000000000000000000000000000000000000000000000600052601260045260246000fd5b600061277e82612091565b915061278983612091565b92508261279957612798612744565b5b828206905092915050565b60006127af82612091565b91506127ba83612091565b92508282026127c881612091565b915082820484148315176127df576127de61258a565b5b5092915050565b60006127f182612091565b91506127fc83612091565b92508261280c5761280b612744565b5b828204905092915050565b600081519050919050565b600082825260208201905092915050565b600061283e82612817565b6128488185612822565b9350612858818560208601611ffb565b61286181612025565b840191505092915050565b60006080820190506128816000830187612126565b61288e6020830186612126565b61289b60408301856121bc565b81810360608301526128ad8184612833565b905095945050505050565b6000815190506128c781611f50565b92915050565b6000602082840312156128e3576128e2611f1a565b5b60006128f1848285016128b8565b91505092915050565b600061290582612091565b915061291083612091565b92508282039050818111156129285761292761258a565b5b92915050565b600061293982612091565b915061294483612091565b925082820190508082111561295c5761295b61258a565b5b92915050565b600061296d82612091565b91507fffffffffffffffffffffffffffffffffffffffffffffffffffffffffffffffff820361299f5761299e61258a565b5b600182019050919050565b7f4e487b7100000000000000000000000000000000000000000000000000000000600052603260045260246000fdfe68747470733a2f2f676174657761792e70696e6174612e636c6f75642f697066732f516d654e373753715459457258644d5134684c3431623166614778414b7434515741354e475646755a753978486e2fa264697066735822122074575bc0c53afc80d23c637f8fb51308891c660bc3c319579ccc44a88175bbdc64736f6c63430008110033",
					"opcodes": "PUSH1 0x80 PUSH1 0x40 MSTORE CALLVALUE DUP1 ISZERO PUSH3 0x11 JUMPI PUSH1 0x0 DUP1 REVERT JUMPDEST POP PUSH1 0x40 MLOAD PUSH3 0x30AE CODESIZE SUB DUP1 PUSH3 0x30AE DUP4 CODECOPY DUP2 DUP2 ADD PUSH1 0x40 MSTORE DUP2 ADD SWAP1 PUSH3 0x37 SWAP2 SWAP1 PUSH3 0x27C JUMP JUMPDEST DUP3 PUSH1 0x7 SWAP1 DUP2 PUSH3 0x48 SWAP2 SWAP1 PUSH3 0x557 JUMP JUMPDEST POP DUP2 PUSH1 0x8 SWAP1 DUP2 PUSH3 0x5A SWAP2 SWAP1 PUSH3 0x557 JUMP JUMPDEST POP PUSH2 0x2710 PUSH1 0x5 DUP2 SWAP1 SSTORE POP PUSH3 0x74 PUSH3 0xA9 PUSH1 0x20 SHL PUSH1 0x20 SHR JUMP JUMPDEST PUSH1 0x4 DUP2 SWAP1 SSTORE POP DUP1 PUSH1 0x0 DUP2 SWAP1 SSTORE POP PUSH8 0x4563918244F40000 PUSH1 0x1 DUP2 SWAP1 SSTORE POP PUSH2 0xB3B0 PUSH1 0x3 DUP2 SWAP1 SSTORE POP NUMBER PUSH1 0x2 DUP2 SWAP1 SSTORE POP POP POP POP PUSH3 0x63E JUMP JUMPDEST PUSH1 0x0 SWAP1 JUMP JUMPDEST PUSH1 0x0 PUSH1 0x40 MLOAD SWAP1 POP SWAP1 JUMP JUMPDEST PUSH1 0x0 DUP1 REVERT JUMPDEST PUSH1 0x0 DUP1 REVERT JUMPDEST PUSH1 0x0 DUP1 REVERT JUMPDEST PUSH1 0x0 DUP1 REVERT JUMPDEST PUSH1 0x0 PUSH1 0x1F NOT PUSH1 0x1F DUP4 ADD AND SWAP1 POP SWAP2 SWAP1 POP JUMP JUMPDEST PUSH32 0x4E487B7100000000000000000000000000000000000000000000000000000000 PUSH1 0x0 MSTORE PUSH1 0x41 PUSH1 0x4 MSTORE PUSH1 0x24 PUSH1 0x0 REVERT JUMPDEST PUSH3 0x117 DUP3 PUSH3 0xCC JUMP JUMPDEST DUP2 ADD DUP2 DUP2 LT PUSH8 0xFFFFFFFFFFFFFFFF DUP3 GT OR ISZERO PUSH3 0x139 JUMPI PUSH3 0x138 PUSH3 0xDD JUMP JUMPDEST JUMPDEST DUP1 PUSH1 0x40 MSTORE POP POP POP JUMP JUMPDEST PUSH1 0x0 PUSH3 0x14E PUSH3 0xAE JUMP JUMPDEST SWAP1 POP PUSH3 0x15C DUP3 DUP3 PUSH3 0x10C JUMP JUMPDEST SWAP2 SWAP1 POP JUMP JUMPDEST PUSH1 0x0 PUSH8 0xFFFFFFFFFFFFFFFF DUP3 GT ISZERO PUSH3 0x17F JUMPI PUSH3 0x17E PUSH3 0xDD JUMP JUMPDEST JUMPDEST PUSH3 0x18A DUP3 PUSH3 0xCC JUMP JUMPDEST SWAP1 POP PUSH1 0x20 DUP2 ADD SWAP1 POP SWAP2 SWAP1 POP JUMP JUMPDEST PUSH1 0x0 JUMPDEST DUP4 DUP2 LT ISZERO PUSH3 0x1B7 JUMPI DUP1 DUP3 ADD MLOAD DUP2 DUP5 ADD MSTORE PUSH1 0x20 DUP2 ADD SWAP1 POP PUSH3 0x19A JUMP JUMPDEST PUSH1 0x0 DUP5 DUP5 ADD MSTORE POP POP POP POP JUMP JUMPDEST PUSH1 0x0 PUSH3 0x1DA PUSH3 0x1D4 DUP5 PUSH3 0x161 JUMP JUMPDEST PUSH3 0x142 JUMP JUMPDEST SWAP1 POP DUP3 DUP2 MSTORE PUSH1 0x20 DUP2 ADD DUP5 DUP5 DUP5 ADD GT ISZERO PUSH3 0x1F9 JUMPI PUSH3 0x1F8 PUSH3 0xC7 JUMP JUMPDEST JUMPDEST PUSH3 0x206 DUP5 DUP3 DUP6 PUSH3 0x197 JUMP JUMPDEST POP SWAP4 SWAP3 POP POP POP JUMP JUMPDEST PUSH1 0x0 DUP3 PUSH1 0x1F DUP4 ADD SLT PUSH3 0x226 JUMPI PUSH3 0x225 PUSH3 0xC2 JUMP JUMPDEST JUMPDEST DUP2 MLOAD PUSH3 0x238 DUP5 DUP3 PUSH1 0x20 DUP7 ADD PUSH3 0x1C3 JUMP JUMPDEST SWAP2 POP POP SWAP3 SWAP2 POP POP JUMP JUMPDEST PUSH1 0x0 DUP2 SWAP1 POP SWAP2 SWAP1 POP JUMP JUMPDEST PUSH3 0x256 DUP2 PUSH3 0x241 JUMP JUMPDEST DUP2 EQ PUSH3 0x262 JUMPI PUSH1 0x0 DUP1 REVERT JUMPDEST POP JUMP JUMPDEST PUSH1 0x0 DUP2 MLOAD SWAP1 POP PUSH3 0x276 DUP2 PUSH3 0x24B JUMP JUMPDEST SWAP3 SWAP2 POP POP JUMP JUMPDEST PUSH1 0x0 DUP1 PUSH1 0x0 PUSH1 0x60 DUP5 DUP7 SUB SLT ISZERO PUSH3 0x298 JUMPI PUSH3 0x297 PUSH3 0xB8 JUMP JUMPDEST JUMPDEST PUSH1 0x0 DUP5 ADD MLOAD PUSH8 0xFFFFFFFFFFFFFFFF DUP2 GT ISZERO PUSH3 0x2B9 JUMPI PUSH3 0x2B8 PUSH3 0xBD JUMP JUMPDEST JUMPDEST PUSH3 0x2C7 DUP7 DUP3 DUP8 ADD PUSH3 0x20E JUMP JUMPDEST SWAP4 POP POP PUSH1 0x20 DUP5 ADD MLOAD PUSH8 0xFFFFFFFFFFFFFFFF DUP2 GT ISZERO PUSH3 0x2EB JUMPI PUSH3 0x2EA PUSH3 0xBD JUMP JUMPDEST JUMPDEST PUSH3 0x2F9 DUP7 DUP3 DUP8 ADD PUSH3 0x20E JUMP JUMPDEST SWAP3 POP POP PUSH1 0x40 PUSH3 0x30C DUP7 DUP3 DUP8 ADD PUSH3 0x265 JUMP JUMPDEST SWAP2 POP POP SWAP3 POP SWAP3 POP SWAP3 JUMP JUMPDEST PUSH1 0x0 DUP2 MLOAD SWAP1 POP SWAP2 SWAP1 POP JUMP JUMPDEST PUSH32 0x4E487B7100000000000000000000000000000000000000000000000000000000 PUSH1 0x0 MSTORE PUSH1 0x22 PUSH1 0x4 MSTORE PUSH1 0x24 PUSH1 0x0 REVERT JUMPDEST PUSH1 0x0 PUSH1 0x2 DUP3 DIV SWAP1 POP PUSH1 0x1 DUP3 AND DUP1 PUSH3 0x369 JUMPI PUSH1 0x7F DUP3 AND SWAP2 POP JUMPDEST PUSH1 0x20 DUP3 LT DUP2 SUB PUSH3 0x37F JUMPI PUSH3 0x37E PUSH3 0x321 JUMP JUMPDEST JUMPDEST POP SWAP2 SWAP1 POP JUMP JUMPDEST PUSH1 0x0 DUP2 SWAP1 POP DUP2 PUSH1 0x0 MSTORE PUSH1 0x20 PUSH1 0x0 KECCAK256 SWAP1 POP SWAP2 SWAP1 POP JUMP JUMPDEST PUSH1 0x0 PUSH1 0x20 PUSH1 0x1F DUP4 ADD DIV SWAP1 POP SWAP2 SWAP1 POP JUMP JUMPDEST PUSH1 0x0 DUP3 DUP3 SHL SWAP1 POP SWAP3 SWAP2 POP POP JUMP JUMPDEST PUSH1 0x0 PUSH1 0x8 DUP4 MUL PUSH3 0x3E9 PUSH32 0xFFFFFFFFFFFFFFFFFFFFFFFFFFFFFFFFFFFFFFFFFFFFFFFFFFFFFFFFFFFFFFFF DUP3 PUSH3 0x3AA JUMP JUMPDEST PUSH3 0x3F5 DUP7 DUP4 PUSH3 0x3AA JUMP JUMPDEST SWAP6 POP DUP1 NOT DUP5 AND SWAP4 POP DUP1 DUP7 AND DUP5 OR SWAP3 POP POP POP SWAP4 SWAP3 POP POP POP JUMP JUMPDEST PUSH1 0x0 DUP2 SWAP1 POP SWAP2 SWAP1 POP JUMP JUMPDEST PUSH1 0x0 PUSH3 0x438 PUSH3 0x432 PUSH3 0x42C DUP5 PUSH3 0x241 JUMP JUMPDEST PUSH3 0x40D JUMP JUMPDEST PUSH3 0x241 JUMP JUMPDEST SWAP1 POP SWAP2 SWAP1 POP JUMP JUMPDEST PUSH1 0x0 DUP2 SWAP1 POP SWAP2 SWAP1 POP JUMP JUMPDEST PUSH3 0x454 DUP4 PUSH3 0x417 JUMP JUMPDEST PUSH3 0x46C PUSH3 0x463 DUP3 PUSH3 0x43F JUMP JUMPDEST DUP5 DUP5 SLOAD PUSH3 0x3B7 JUMP JUMPDEST DUP3 SSTORE POP POP POP POP JUMP JUMPDEST PUSH1 0x0 SWAP1 JUMP JUMPDEST PUSH3 0x483 PUSH3 0x474 JUMP JUMPDEST PUSH3 0x490 DUP2 DUP5 DUP5 PUSH3 0x449 JUMP JUMPDEST POP POP POP JUMP JUMPDEST JUMPDEST DUP2 DUP2 LT ISZERO PUSH3 0x4B8 JUMPI PUSH3 0x4AC PUSH1 0x0 DUP3 PUSH3 0x479 JUMP JUMPDEST PUSH1 0x1 DUP2 ADD SWAP1 POP PUSH3 0x496 JUMP JUMPDEST POP POP JUMP JUMPDEST PUSH1 0x1F DUP3 GT ISZERO PUSH3 0x507 JUMPI PUSH3 0x4D1 DUP2 PUSH3 0x385 JUMP JUMPDEST PUSH3 0x4DC DUP5 PUSH3 0x39A JUMP JUMPDEST DUP2 ADD PUSH1 0x20 DUP6 LT ISZERO PUSH3 0x4EC JUMPI DUP2 SWAP1 POP JUMPDEST PUSH3 0x504 PUSH3 0x4FB DUP6 PUSH3 0x39A JUMP JUMPDEST DUP4 ADD DUP3 PUSH3 0x495 JUMP JUMPDEST POP POP JUMPDEST POP POP POP JUMP JUMPDEST PUSH1 0x0 DUP3 DUP3 SHR SWAP1 POP SWAP3 SWAP2 POP POP JUMP JUMPDEST PUSH1 0x0 PUSH3 0x52C PUSH1 0x0 NOT DUP5 PUSH1 0x8 MUL PUSH3 0x50C JUMP JUMPDEST NOT DUP1 DUP4 AND SWAP2 POP POP SWAP3 SWAP2 POP POP JUMP JUMPDEST PUSH1 0x0 PUSH3 0x547 DUP4 DUP4 PUSH3 0x519 JUMP JUMPDEST SWAP2 POP DUP3 PUSH1 0x2 MUL DUP3 OR SWAP1 POP SWAP3 SWAP2 POP POP JUMP JUMPDEST PUSH3 0x562 DUP3 PUSH3 0x316 JUMP JUMPDEST PUSH8 0xFFFFFFFFFFFFFFFF DUP2 GT ISZERO PUSH3 0x57E JUMPI PUSH3 0x57D PUSH3 0xDD JUMP JUMPDEST JUMPDEST PUSH3 0x58A DUP3 SLOAD PUSH3 0x350 JUMP JUMPDEST PUSH3 0x597 DUP3 DUP3 DUP6 PUSH3 0x4BC JUMP JUMPDEST PUSH1 0x0 PUSH1 0x20 SWAP1 POP PUSH1 0x1F DUP4 GT PUSH1 0x1 DUP2 EQ PUSH3 0x5CF JUMPI PUSH1 0x0 DUP5 ISZERO PUSH3 0x5BA JUMPI DUP3 DUP8 ADD MLOAD SWAP1 POP JUMPDEST PUSH3 0x5C6 DUP6 DUP3 PUSH3 0x539 JUMP JUMPDEST DUP7 SSTORE POP PUSH3 0x636 JUMP JUMPDEST PUSH1 0x1F NOT DUP5 AND PUSH3 0x5DF DUP7 PUSH3 0x385 JUMP JUMPDEST PUSH1 0x0 JUMPDEST DUP3 DUP2 LT ISZERO PUSH3 0x609 JUMPI DUP5 DUP10 ADD MLOAD DUP3 SSTORE PUSH1 0x1 DUP3 ADD SWAP2 POP PUSH1 0x20 DUP6 ADD SWAP5 POP PUSH1 0x20 DUP2 ADD SWAP1 POP PUSH3 0x5E2 JUMP JUMPDEST DUP7 DUP4 LT ISZERO PUSH3 0x629 JUMPI DUP5 DUP10 ADD MLOAD PUSH3 0x625 PUSH1 0x1F DUP10 AND DUP3 PUSH3 0x519 JUMP JUMPDEST DUP4 SSTORE POP JUMPDEST PUSH1 0x1 PUSH1 0x2 DUP9 MUL ADD DUP9 SSTORE POP POP POP JUMPDEST POP POP POP POP POP POP JUMP JUMPDEST PUSH2 0x2A60 DUP1 PUSH3 0x64E PUSH1 0x0 CODECOPY PUSH1 0x0 RETURN INVALID PUSH1 0x80 PUSH1 0x40 MSTORE CALLVALUE DUP1 ISZERO PUSH2 0x10 JUMPI PUSH1 0x0 DUP1 REVERT JUMPDEST POP PUSH1 0x4 CALLDATASIZE LT PUSH2 0x137 JUMPI PUSH1 0x0 CALLDATALOAD PUSH1 0xE0 SHR DUP1 PUSH4 0x95D89B41 GT PUSH2 0xB8 JUMPI DUP1 PUSH4 0xD5ABEB01 GT PUSH2 0x7C JUMPI DUP1 PUSH4 0xD5ABEB01 EQ PUSH2 0x372 JUMPI DUP1 PUSH4 0xD993226B EQ PUSH2 0x390 JUMPI DUP1 PUSH4 0xDB3AD22C EQ PUSH2 0x3C0 JUMPI DUP1 PUSH4 0xE29301F9 EQ PUSH2 0x3DE JUMPI DUP1 PUSH4 0xE985E9C5 EQ PUSH2 0x40E JUMPI DUP1 PUSH4 0xEFF0730D EQ PUSH2 0x43E JUMPI PUSH2 0x137 JUMP JUMPDEST DUP1 PUSH4 0x95D89B41 EQ PUSH2 0x2BC JUMPI DUP1 PUSH4 0xA22CB465 EQ PUSH2 0x2DA JUMPI DUP1 PUSH4 0xB88D4FDE EQ PUSH2 0x2F6 JUMPI DUP1 PUSH4 0xB8BA6007 EQ PUSH2 0x312 JUMPI DUP1 PUSH4 0xC87B56DD EQ PUSH2 0x342 JUMPI PUSH2 0x137 JUMP JUMPDEST DUP1 PUSH4 0x23B872DD GT PUSH2 0xFF JUMPI DUP1 PUSH4 0x23B872DD EQ PUSH2 0x1F4 JUMPI DUP1 PUSH4 0x42842E0E EQ PUSH2 0x210 JUMPI DUP1 PUSH4 0x4BE3403C EQ PUSH2 0x22C JUMPI DUP1 PUSH4 0x6352211E EQ PUSH2 0x25C JUMPI DUP1 PUSH4 0x70A08231 EQ PUSH2 0x28C JUMPI PUSH2 0x137 JUMP JUMPDEST DUP1 PUSH4 0x1FFC9A7 EQ PUSH2 0x13C JUMPI DUP1 PUSH4 0x6FDDE03 EQ PUSH2 0x16C JUMPI DUP1 PUSH4 0x81812FC EQ PUSH2 0x18A JUMPI DUP1 PUSH4 0x95EA7B3 EQ PUSH2 0x1BA JUMPI DUP1 PUSH4 0x18160DDD EQ PUSH2 0x1D6 JUMPI JUMPDEST PUSH1 0x0 DUP1 REVERT JUMPDEST PUSH2 0x156 PUSH1 0x4 DUP1 CALLDATASIZE SUB DUP2 ADD SWAP1 PUSH2 0x151 SWAP2 SWAP1 PUSH2 0x1F7C JUMP JUMPDEST PUSH2 0x46E JUMP JUMPDEST PUSH1 0x40 MLOAD PUSH2 0x163 SWAP2 SWAP1 PUSH2 0x1FC4 JUMP JUMPDEST PUSH1 0x40 MLOAD DUP1 SWAP2 SUB SWAP1 RETURN JUMPDEST PUSH2 0x174 PUSH2 0x550 JUMP JUMPDEST PUSH1 0x40 MLOAD PUSH2 0x181 SWAP2 SWAP1 PUSH2 0x206F JUMP JUMPDEST PUSH1 0x40 MLOAD DUP1 SWAP2 SUB SWAP1 RETURN JUMPDEST PUSH2 0x1A4 PUSH1 0x4 DUP1 CALLDATASIZE SUB DUP2 ADD SWAP1 PUSH2 0x19F SWAP2 SWAP1 PUSH2 0x20C7 JUMP JUMPDEST PUSH2 0x5E2 JUMP JUMPDEST PUSH1 0x40 MLOAD PUSH2 0x1B1 SWAP2 SWAP1 PUSH2 0x2135 JUMP JUMPDEST PUSH1 0x40 MLOAD DUP1 SWAP2 SUB SWAP1 RETURN JUMPDEST PUSH2 0x1D4 PUSH1 0x4 DUP1 CALLDATASIZE SUB DUP2 ADD SWAP1 PUSH2 0x1CF SWAP2 SWAP1 PUSH2 0x217C JUMP JUMPDEST PUSH2 0x65E JUMP JUMPDEST STOP JUMPDEST PUSH2 0x1DE PUSH2 0x762 JUMP JUMPDEST PUSH1 0x40 MLOAD PUSH2 0x1EB SWAP2 SWAP1 PUSH2 0x21CB JUMP JUMPDEST PUSH1 0x40 MLOAD DUP1 SWAP2 SUB SWAP1 RETURN JUMPDEST PUSH2 0x20E PUSH1 0x4 DUP1 CALLDATASIZE SUB DUP2 ADD SWAP1 PUSH2 0x209 SWAP2 SWAP1 PUSH2 0x21E6 JUMP JUMPDEST PUSH2 0x779 JUMP JUMPDEST STOP JUMPDEST PUSH2 0x22A PUSH1 0x4 DUP1 CALLDATASIZE SUB DUP2 ADD SWAP1 PUSH2 0x225 SWAP2 SWAP1 PUSH2 0x21E6 JUMP JUMPDEST PUSH2 0x789 JUMP JUMPDEST STOP JUMPDEST PUSH2 0x246 PUSH1 0x4 DUP1 CALLDATASIZE SUB DUP2 ADD SWAP1 PUSH2 0x241 SWAP2 SWAP1 PUSH2 0x20C7 JUMP JUMPDEST PUSH2 0x7A9 JUMP JUMPDEST PUSH1 0x40 MLOAD PUSH2 0x253 SWAP2 SWAP1 PUSH2 0x21CB JUMP JUMPDEST PUSH1 0x40 MLOAD DUP1 SWAP2 SUB SWAP1 RETURN JUMPDEST PUSH2 0x276 PUSH1 0x4 DUP1 CALLDATASIZE SUB DUP2 ADD SWAP1 PUSH2 0x271 SWAP2 SWAP1 PUSH2 0x20C7 JUMP JUMPDEST PUSH2 0x81A JUMP JUMPDEST PUSH1 0x40 MLOAD PUSH2 0x283 SWAP2 SWAP1 PUSH2 0x2135 JUMP JUMPDEST PUSH1 0x40 MLOAD DUP1 SWAP2 SUB SWAP1 RETURN JUMPDEST PUSH2 0x2A6 PUSH1 0x4 DUP1 CALLDATASIZE SUB DUP2 ADD SWAP1 PUSH2 0x2A1 SWAP2 SWAP1 PUSH2 0x2239 JUMP JUMPDEST PUSH2 0x830 JUMP JUMPDEST PUSH1 0x40 MLOAD PUSH2 0x2B3 SWAP2 SWAP1 PUSH2 0x21CB JUMP JUMPDEST PUSH1 0x40 MLOAD DUP1 SWAP2 SUB SWAP1 RETURN JUMPDEST PUSH2 0x2C4 PUSH2 0x8FF JUMP JUMPDEST PUSH1 0x40 MLOAD PUSH2 0x2D1 SWAP2 SWAP1 PUSH2 0x206F JUMP JUMPDEST PUSH1 0x40 MLOAD DUP1 SWAP2 SUB SWAP1 RETURN JUMPDEST PUSH2 0x2F4 PUSH1 0x4 DUP1 CALLDATASIZE SUB DUP2 ADD SWAP1 PUSH2 0x2EF SWAP2 SWAP1 PUSH2 0x2292 JUMP JUMPDEST PUSH2 0x991 JUMP JUMPDEST STOP JUMPDEST PUSH2 0x310 PUSH1 0x4 DUP1 CALLDATASIZE SUB DUP2 ADD SWAP1 PUSH2 0x30B SWAP2 SWAP1 PUSH2 0x2407 JUMP JUMPDEST PUSH2 0xB08 JUMP JUMPDEST STOP JUMPDEST PUSH2 0x32C PUSH1 0x4 DUP1 CALLDATASIZE SUB DUP2 ADD SWAP1 PUSH2 0x327 SWAP2 SWAP1 PUSH2 0x2239 JUMP JUMPDEST PUSH2 0xB80 JUMP JUMPDEST PUSH1 0x40 MLOAD PUSH2 0x339 SWAP2 SWAP1 PUSH2 0x21CB JUMP JUMPDEST PUSH1 0x40 MLOAD DUP1 SWAP2 SUB SWAP1 RETURN JUMPDEST PUSH2 0x35C PUSH1 0x4 DUP1 CALLDATASIZE SUB DUP2 ADD SWAP1 PUSH2 0x357 SWAP2 SWAP1 PUSH2 0x20C7 JUMP JUMPDEST PUSH2 0xD7C JUMP JUMPDEST PUSH1 0x40 MLOAD PUSH2 0x369 SWAP2 SWAP1 PUSH2 0x206F JUMP JUMPDEST PUSH1 0x40 MLOAD DUP1 SWAP2 SUB SWAP1 RETURN JUMPDEST PUSH2 0x37A PUSH2 0xE1A JUMP JUMPDEST PUSH1 0x40 MLOAD PUSH2 0x387 SWAP2 SWAP1 PUSH2 0x21CB JUMP JUMPDEST PUSH1 0x40 MLOAD DUP1 SWAP2 SUB SWAP1 RETURN JUMPDEST PUSH2 0x3AA PUSH1 0x4 DUP1 CALLDATASIZE SUB DUP2 ADD SWAP1 PUSH2 0x3A5 SWAP2 SWAP1 PUSH2 0x20C7 JUMP JUMPDEST PUSH2 0xE31 JUMP JUMPDEST PUSH1 0x40 MLOAD PUSH2 0x3B7 SWAP2 SWAP1 PUSH2 0x21CB JUMP JUMPDEST PUSH1 0x40 MLOAD DUP1 SWAP2 SUB SWAP1 RETURN JUMPDEST PUSH2 0x3C8 PUSH2 0xE7D JUMP JUMPDEST PUSH1 0x40 MLOAD PUSH2 0x3D5 SWAP2 SWAP1 PUSH2 0x21CB JUMP JUMPDEST PUSH1 0x40 MLOAD DUP1 SWAP2 SUB SWAP1 RETURN JUMPDEST PUSH2 0x3F8 PUSH1 0x4 DUP1 CALLDATASIZE SUB DUP2 ADD SWAP1 PUSH2 0x3F3 SWAP2 SWAP1 PUSH2 0x20C7 JUMP JUMPDEST PUSH2 0xE87 JUMP JUMPDEST PUSH1 0x40 MLOAD PUSH2 0x405 SWAP2 SWAP1 PUSH2 0x21CB JUMP JUMPDEST PUSH1 0x40 MLOAD DUP1 SWAP2 SUB SWAP1 RETURN JUMPDEST PUSH2 0x428 PUSH1 0x4 DUP1 CALLDATASIZE SUB DUP2 ADD SWAP1 PUSH2 0x423 SWAP2 SWAP1 PUSH2 0x248A JUMP JUMPDEST PUSH2 0xEE9 JUMP JUMPDEST PUSH1 0x40 MLOAD PUSH2 0x435 SWAP2 SWAP1 PUSH2 0x1FC4 JUMP JUMPDEST PUSH1 0x40 MLOAD DUP1 SWAP2 SUB SWAP1 RETURN JUMPDEST PUSH2 0x458 PUSH1 0x4 DUP1 CALLDATASIZE SUB DUP2 ADD SWAP1 PUSH2 0x453 SWAP2 SWAP1 PUSH2 0x217C JUMP JUMPDEST PUSH2 0xF7D JUMP JUMPDEST PUSH1 0x40 MLOAD PUSH2 0x465 SWAP2 SWAP1 PUSH2 0x21CB JUMP JUMPDEST PUSH1 0x40 MLOAD DUP1 SWAP2 SUB SWAP1 RETURN JUMPDEST PUSH1 0x0 PUSH32 0x80AC58CD00000000000000000000000000000000000000000000000000000000 PUSH28 0xFFFFFFFFFFFFFFFFFFFFFFFFFFFFFFFFFFFFFFFFFFFFFFFFFFFFFFFF NOT AND DUP3 PUSH28 0xFFFFFFFFFFFFFFFFFFFFFFFFFFFFFFFFFFFFFFFFFFFFFFFFFFFFFFFF NOT AND EQ DUP1 PUSH2 0x539 JUMPI POP PUSH32 0x5B5E139F00000000000000000000000000000000000000000000000000000000 PUSH28 0xFFFFFFFFFFFFFFFFFFFFFFFFFFFFFFFFFFFFFFFFFFFFFFFFFFFFFFFF NOT AND DUP3 PUSH28 0xFFFFFFFFFFFFFFFFFFFFFFFFFFFFFFFFFFFFFFFFFFFFFFFFFFFFFFFF NOT AND EQ JUMPDEST DUP1 PUSH2 0x549 JUMPI POP PUSH2 0x548 DUP3 PUSH2 0xFD8 JUMP JUMPDEST JUMPDEST SWAP1 POP SWAP2 SWAP1 POP JUMP JUMPDEST PUSH1 0x60 PUSH1 0x7 DUP1 SLOAD PUSH2 0x55F SWAP1 PUSH2 0x24F9 JUMP JUMPDEST DUP1 PUSH1 0x1F ADD PUSH1 0x20 DUP1 SWAP2 DIV MUL PUSH1 0x20 ADD PUSH1 0x40 MLOAD SWAP1 DUP2 ADD PUSH1 0x40 MSTORE DUP1 SWAP3 SWAP2 SWAP1 DUP2 DUP2 MSTORE PUSH1 0x20 ADD DUP3 DUP1 SLOAD PUSH2 0x58B SWAP1 PUSH2 0x24F9 JUMP JUMPDEST DUP1 ISZERO PUSH2 0x5D8 JUMPI DUP1 PUSH1 0x1F LT PUSH2 0x5AD JUMPI PUSH2 0x100 DUP1 DUP4 SLOAD DIV MUL DUP4 MSTORE SWAP2 PUSH1 0x20 ADD SWAP2 PUSH2 0x5D8 JUMP JUMPDEST DUP3 ADD SWAP2 SWAP1 PUSH1 0x0 MSTORE PUSH1 0x20 PUSH1 0x0 KECCAK256 SWAP1 JUMPDEST DUP2 SLOAD DUP2 MSTORE SWAP1 PUSH1 0x1 ADD SWAP1 PUSH1 0x20 ADD DUP1 DUP4 GT PUSH2 0x5BB JUMPI DUP3 SWAP1 SUB PUSH1 0x1F AND DUP3 ADD SWAP2 JUMPDEST POP POP POP POP POP SWAP1 POP SWAP1 JUMP JUMPDEST PUSH1 0x0 PUSH2 0x5ED DUP3 PUSH2 0x1042 JUMP JUMPDEST PUSH2 0x623 JUMPI PUSH1 0x40 MLOAD PUSH32 0xCF4700E400000000000000000000000000000000000000000000000000000000 DUP2 MSTORE PUSH1 0x4 ADD PUSH1 0x40 MLOAD DUP1 SWAP2 SUB SWAP1 REVERT JUMPDEST PUSH1 0xB PUSH1 0x0 DUP4 DUP2 MSTORE PUSH1 0x20 ADD SWAP1 DUP2 MSTORE PUSH1 0x20 ADD PUSH1 0x0 KECCAK256 PUSH1 0x0 SWAP1 SLOAD SWAP1 PUSH2 0x100 EXP SWAP1 DIV PUSH20 0xFFFFFFFFFFFFFFFFFFFFFFFFFFFFFFFFFFFFFFFF AND SWAP1 POP SWAP2 SWAP1 POP JUMP JUMPDEST PUSH1 0x0 PUSH2 0x669 DUP3 PUSH2 0x81A JUMP JUMPDEST SWAP1 POP DUP1 PUSH20 0xFFFFFFFFFFFFFFFFFFFFFFFFFFFFFFFFFFFFFFFF AND DUP4 PUSH20 0xFFFFFFFFFFFFFFFFFFFFFFFFFFFFFFFFFFFFFFFF AND SUB PUSH2 0x6D0 JUMPI PUSH1 0x40 MLOAD PUSH32 0x943F7B8C00000000000000000000000000000000000000000000000000000000 DUP2 MSTORE PUSH1 0x4 ADD PUSH1 0x40 MLOAD DUP1 SWAP2 SUB SWAP1 REVERT JUMPDEST DUP1 PUSH20 0xFFFFFFFFFFFFFFFFFFFFFFFFFFFFFFFFFFFFFFFF AND PUSH2 0x6EF PUSH2 0x1090 JUMP JUMPDEST PUSH20 0xFFFFFFFFFFFFFFFFFFFFFFFFFFFFFFFFFFFFFFFF AND EQ PUSH2 0x752 JUMPI PUSH2 0x71B DUP2 PUSH2 0x716 PUSH2 0x1090 JUMP JUMPDEST PUSH2 0xEE9 JUMP JUMPDEST PUSH2 0x751 JUMPI PUSH1 0x40 MLOAD PUSH32 0xCFB3B94200000000000000000000000000000000000000000000000000000000 DUP2 MSTORE PUSH1 0x4 ADD PUSH1 0x40 MLOAD DUP1 SWAP2 SUB SWAP1 REVERT JUMPDEST JUMPDEST PUSH2 0x75D DUP4 DUP4 DUP4 PUSH2 0x1098 JUMP JUMPDEST POP POP POP JUMP JUMPDEST PUSH1 0x0 PUSH2 0x76C PUSH2 0x114A JUMP JUMPDEST PUSH1 0x6 SLOAD PUSH1 0x4 SLOAD SUB SUB SWAP1 POP SWAP1 JUMP JUMPDEST PUSH2 0x784 DUP4 DUP4 DUP4 PUSH2 0x114F JUMP JUMPDEST POP POP POP JUMP JUMPDEST PUSH2 0x7A4 DUP4 DUP4 DUP4 PUSH1 0x40 MLOAD DUP1 PUSH1 0x20 ADD PUSH1 0x40 MSTORE DUP1 PUSH1 0x0 DUP2 MSTORE POP PUSH2 0xB08 JUMP JUMPDEST POP POP POP JUMP JUMPDEST PUSH1 0x0 PUSH1 0x2 SLOAD DUP3 LT ISZERO PUSH2 0x7BB JUMPI PUSH1 0x2 SLOAD SWAP2 POP JUMPDEST PUSH1 0x0 PUSH2 0x7E9 PUSH23 0xA70C3C40A64E6C51999090B65F67D9240000000000000 PUSH1 0x1 SLOAD PUSH2 0x18EB SWAP1 SWAP2 SWAP1 PUSH4 0xFFFFFFFF AND JUMP JUMPDEST SWAP1 POP PUSH1 0x0 PUSH2 0x7F6 DUP5 PUSH2 0xE31 JUMP JUMPDEST SWAP1 POP PUSH1 0x0 PUSH2 0x80D DUP3 DUP5 PUSH2 0x1901 SWAP1 SWAP2 SWAP1 PUSH4 0xFFFFFFFF AND JUMP JUMPDEST SWAP1 POP DUP1 SWAP4 POP POP POP POP SWAP2 SWAP1 POP JUMP JUMPDEST PUSH1 0x0 PUSH2 0x825 DUP3 PUSH2 0x1917 JUMP JUMPDEST PUSH1 0x0 ADD MLOAD SWAP1 POP SWAP2 SWAP1 POP JUMP JUMPDEST PUSH1 0x0 DUP1 PUSH20 0xFFFFFFFFFFFFFFFFFFFFFFFFFFFFFFFFFFFFFFFF AND DUP3 PUSH20 0xFFFFFFFFFFFFFFFFFFFFFFFFFFFFFFFFFFFFFFFF AND SUB PUSH2 0x897 JUMPI PUSH1 0x40 MLOAD PUSH32 0x8F4EB60400000000000000000000000000000000000000000000000000000000 DUP2 MSTORE PUSH1 0x4 ADD PUSH1 0x40 MLOAD DUP1 SWAP2 SUB SWAP1 REVERT JUMPDEST PUSH1 0xA PUSH1 0x0 DUP4 PUSH20 0xFFFFFFFFFFFFFFFFFFFFFFFFFFFFFFFFFFFFFFFF AND PUSH20 0xFFFFFFFFFFFFFFFFFFFFFFFFFFFFFFFFFFFFFFFF AND DUP2 MSTORE PUSH1 0x20 ADD SWAP1 DUP2 MSTORE PUSH1 0x20 ADD PUSH1 0x0 KECCAK256 PUSH1 0x0 ADD PUSH1 0x0 SWAP1 SLOAD SWAP1 PUSH2 0x100 EXP SWAP1 DIV PUSH8 0xFFFFFFFFFFFFFFFF AND PUSH8 0xFFFFFFFFFFFFFFFF AND SWAP1 POP SWAP2 SWAP1 POP JUMP JUMPDEST PUSH1 0x60 PUSH1 0x8 DUP1 SLOAD PUSH2 0x90E SWAP1 PUSH2 0x24F9 JUMP JUMPDEST DUP1 PUSH1 0x1F ADD PUSH1 0x20 DUP1 SWAP2 DIV MUL PUSH1 0x20 ADD PUSH1 0x40 MLOAD SWAP1 DUP2 ADD PUSH1 0x40 MSTORE DUP1 SWAP3 SWAP2 SWAP1 DUP2 DUP2 MSTORE PUSH1 0x20 ADD DUP3 DUP1 SLOAD PUSH2 0x93A SWAP1 PUSH2 0x24F9 JUMP JUMPDEST DUP1 ISZERO PUSH2 0x987 JUMPI DUP1 PUSH1 0x1F LT PUSH2 0x95C JUMPI PUSH2 0x100 DUP1 DUP4 SLOAD DIV MUL DUP4 MSTORE SWAP2 PUSH1 0x20 ADD SWAP2 PUSH2 0x987 JUMP JUMPDEST DUP3 ADD SWAP2 SWAP1 PUSH1 0x0 MSTORE PUSH1 0x20 PUSH1 0x0 KECCAK256 SWAP1 JUMPDEST DUP2 SLOAD DUP2 MSTORE SWAP1 PUSH1 0x1 ADD SWAP1 PUSH1 0x20 ADD DUP1 DUP4 GT PUSH2 0x96A JUMPI DUP3 SWAP1 SUB PUSH1 0x1F AND DUP3 ADD SWAP2 JUMPDEST POP POP POP POP POP SWAP1 POP SWAP1 JUMP JUMPDEST PUSH2 0x999 PUSH2 0x1090 JUMP JUMPDEST PUSH20 0xFFFFFFFFFFFFFFFFFFFFFFFFFFFFFFFFFFFFFFFF AND DUP3 PUSH20 0xFFFFFFFFFFFFFFFFFFFFFFFFFFFFFFFFFFFFFFFF AND SUB PUSH2 0x9FD JUMPI PUSH1 0x40 MLOAD PUSH32 0xB06307DB00000000000000000000000000000000000000000000000000000000 DUP2 MSTORE PUSH1 0x4 ADD PUSH1 0x40 MLOAD DUP1 SWAP2 SUB SWAP1 REVERT JUMPDEST DUP1 PUSH1 0xC PUSH1 0x0 PUSH2 0xA0A PUSH2 0x1090 JUMP JUMPDEST PUSH20 0xFFFFFFFFFFFFFFFFFFFFFFFFFFFFFFFFFFFFFFFF AND PUSH20 0xFFFFFFFFFFFFFFFFFFFFFFFFFFFFFFFFFFFFFFFF AND DUP2 MSTORE PUSH1 0x20 ADD SWAP1 DUP2 MSTORE PUSH1 0x20 ADD PUSH1 0x0 KECCAK256 PUSH1 0x0 DUP5 PUSH20 0xFFFFFFFFFFFFFFFFFFFFFFFFFFFFFFFFFFFFFFFF AND PUSH20 0xFFFFFFFFFFFFFFFFFFFFFFFFFFFFFFFFFFFFFFFF AND DUP2 MSTORE PUSH1 0x20 ADD SWAP1 DUP2 MSTORE PUSH1 0x20 ADD PUSH1 0x0 KECCAK256 PUSH1 0x0 PUSH2 0x100 EXP DUP2 SLOAD DUP2 PUSH1 0xFF MUL NOT AND SWAP1 DUP4 ISZERO ISZERO MUL OR SWAP1 SSTORE POP DUP2 PUSH20 0xFFFFFFFFFFFFFFFFFFFFFFFFFFFFFFFFFFFFFFFF AND PUSH2 0xAB7 PUSH2 0x1090 JUMP JUMPDEST PUSH20 0xFFFFFFFFFFFFFFFFFFFFFFFFFFFFFFFFFFFFFFFF AND PUSH32 0x17307EAB39AB6107E8899845AD3D59BD9653F200F220920489CA2B5937696C31 DUP4 PUSH1 0x40 MLOAD PUSH2 0xAFC SWAP2 SWAP1 PUSH2 0x1FC4 JUMP JUMPDEST PUSH1 0x40 MLOAD DUP1 SWAP2 SUB SWAP1 LOG3 POP POP JUMP JUMPDEST PUSH2 0xB13 DUP5 DUP5 DUP5 PUSH2 0x114F JUMP JUMPDEST PUSH2 0xB32 DUP4 PUSH20 0xFFFFFFFFFFFFFFFFFFFFFFFFFFFFFFFFFFFFFFFF AND PUSH2 0x1BA2 JUMP JUMPDEST ISZERO PUSH2 0xB7A JUMPI PUSH2 0xB43 DUP5 DUP5 DUP5 DUP5 PUSH2 0x1BC5 JUMP JUMPDEST PUSH2 0xB79 JUMPI PUSH1 0x40 MLOAD PUSH32 0xD1A57ED600000000000000000000000000000000000000000000000000000000 DUP2 MSTORE PUSH1 0x4 ADD PUSH1 0x40 MLOAD DUP1 SWAP2 SUB SWAP1 REVERT JUMPDEST JUMPDEST POP POP POP POP JUMP JUMPDEST PUSH1 0x0 DUP1 PUSH2 0xBE7 PUSH1 0xD PUSH1 0x0 DUP6 PUSH20 0xFFFFFFFFFFFFFFFFFFFFFFFFFFFFFFFFFFFFFFFF AND PUSH20 0xFFFFFFFFFFFFFFFFFFFFFFFFFFFFFFFFFFFFFFFF AND DUP2 MSTORE PUSH1 0x20 ADD SWAP1 DUP2 MSTORE PUSH1 0x20 ADD PUSH1 0x0 KECCAK256 PUSH1 0x0 PUSH1 0x1 DUP2 MSTORE PUSH1 0x20 ADD SWAP1 DUP2 MSTORE PUSH1 0x20 ADD PUSH1 0x0 KECCAK256 SLOAD NUMBER PUSH2 0x1D15 SWAP1 SWAP2 SWAP1 PUSH4 0xFFFFFFFF AND JUMP JUMPDEST SWAP1 POP PUSH1 0x0 PUSH2 0xC45 PUSH1 0xD PUSH1 0x0 DUP7 PUSH20 0xFFFFFFFFFFFFFFFFFFFFFFFFFFFFFFFFFFFFFFFF AND PUSH20 0xFFFFFFFFFFFFFFFFFFFFFFFFFFFFFFFFFFFFFFFF AND DUP2 MSTORE PUSH1 0x20 ADD SWAP1 DUP2 MSTORE PUSH1 0x20 ADD PUSH1 0x0 KECCAK256 PUSH1 0x0 PUSH1 0x1 DUP2 MSTORE PUSH1 0x20 ADD SWAP1 DUP2 MSTORE PUSH1 0x20 ADD PUSH1 0x0 KECCAK256 SLOAD PUSH2 0x7A9 JUMP JUMPDEST SWAP1 POP PUSH1 0x0 PUSH2 0xC52 NUMBER PUSH2 0x7A9 JUMP JUMPDEST SWAP1 POP PUSH1 0x0 PUSH2 0xC8E PUSH1 0x2 PUSH2 0xC80 DUP7 PUSH2 0xC72 DUP7 DUP9 PUSH2 0x1D2B SWAP1 SWAP2 SWAP1 PUSH4 0xFFFFFFFF AND JUMP JUMPDEST PUSH2 0x18EB SWAP1 SWAP2 SWAP1 PUSH4 0xFFFFFFFF AND JUMP JUMPDEST PUSH2 0x1901 SWAP1 SWAP2 SWAP1 PUSH4 0xFFFFFFFF AND JUMP JUMPDEST SWAP1 POP PUSH1 0x0 PUSH2 0xD0A PUSH1 0x3 SLOAD PUSH2 0xCFC PUSH1 0xD PUSH1 0x0 DUP12 PUSH20 0xFFFFFFFFFFFFFFFFFFFFFFFFFFFFFFFFFFFFFFFF AND PUSH20 0xFFFFFFFFFFFFFFFFFFFFFFFFFFFFFFFFFFFFFFFF AND DUP2 MSTORE PUSH1 0x20 ADD SWAP1 DUP2 MSTORE PUSH1 0x20 ADD PUSH1 0x0 KECCAK256 PUSH1 0x0 PUSH1 0x2 DUP2 MSTORE PUSH1 0x20 ADD SWAP1 DUP2 MSTORE PUSH1 0x20 ADD PUSH1 0x0 KECCAK256 SLOAD DUP6 PUSH2 0x18EB SWAP1 SWAP2 SWAP1 PUSH4 0xFFFFFFFF AND JUMP JUMPDEST PUSH2 0x1901 SWAP1 SWAP2 SWAP1 PUSH4 0xFFFFFFFF AND JUMP JUMPDEST SWAP1 POP PUSH2 0xD70 DUP2 PUSH1 0xD PUSH1 0x0 DUP11 PUSH20 0xFFFFFFFFFFFFFFFFFFFFFFFFFFFFFFFFFFFFFFFF AND PUSH20 0xFFFFFFFFFFFFFFFFFFFFFFFFFFFFFFFFFFFFFFFF AND DUP2 MSTORE PUSH1 0x20 ADD SWAP1 DUP2 MSTORE PUSH1 0x20 ADD PUSH1 0x0 KECCAK256 PUSH1 0x0 PUSH1 0x3 DUP2 MSTORE PUSH1 0x20 ADD SWAP1 DUP2 MSTORE PUSH1 0x20 ADD PUSH1 0x0 KECCAK256 SLOAD PUSH2 0x1D2B SWAP1 SWAP2 SWAP1 PUSH4 0xFFFFFFFF AND JUMP JUMPDEST SWAP6 POP POP POP POP POP POP SWAP2 SWAP1 POP JUMP JUMPDEST PUSH1 0x60 PUSH2 0xD87 DUP3 PUSH2 0x1042 JUMP JUMPDEST PUSH2 0xDBD JUMPI PUSH1 0x40 MLOAD PUSH32 0xA14C4B5000000000000000000000000000000000000000000000000000000000 DUP2 MSTORE PUSH1 0x4 ADD PUSH1 0x40 MLOAD DUP1 SWAP2 SUB SWAP1 REVERT JUMPDEST PUSH1 0x0 PUSH2 0xDC7 PUSH2 0x1D41 JUMP JUMPDEST SWAP1 POP PUSH1 0x0 DUP2 MLOAD SUB PUSH2 0xDE7 JUMPI PUSH1 0x40 MLOAD DUP1 PUSH1 0x20 ADD PUSH1 0x40 MSTORE DUP1 PUSH1 0x0 DUP2 MSTORE POP PUSH2 0xE12 JUMP JUMPDEST DUP1 PUSH2 0xDF1 DUP5 PUSH2 0x1D61 JUMP JUMPDEST PUSH1 0x40 MLOAD PUSH1 0x20 ADD PUSH2 0xE02 SWAP3 SWAP2 SWAP1 PUSH2 0x2566 JUMP JUMPDEST PUSH1 0x40 MLOAD PUSH1 0x20 DUP2 DUP4 SUB SUB DUP2 MSTORE SWAP1 PUSH1 0x40 MSTORE JUMPDEST SWAP2 POP POP SWAP2 SWAP1 POP JUMP JUMPDEST PUSH1 0x0 PUSH2 0xE24 PUSH2 0x114A JUMP JUMPDEST PUSH1 0x6 SLOAD PUSH1 0x5 SLOAD SUB SUB SWAP1 POP SWAP1 JUMP JUMPDEST PUSH1 0x0 DUP1 PUSH2 0xE63 PUSH1 0x2 SLOAD PUSH2 0xE55 PUSH8 0xDE0B6B3A7640000 DUP7 PUSH2 0x18EB SWAP1 SWAP2 SWAP1 PUSH4 0xFFFFFFFF AND JUMP JUMPDEST PUSH2 0x1901 SWAP1 SWAP2 SWAP1 PUSH4 0xFFFFFFFF AND JUMP JUMPDEST SWAP1 POP PUSH1 0x4 DUP2 PUSH2 0xE72 SWAP2 SWAP1 PUSH2 0x26F9 JUMP JUMPDEST SWAP1 POP DUP1 SWAP2 POP POP SWAP2 SWAP1 POP JUMP JUMPDEST PUSH1 0x0 PUSH1 0x3 SLOAD SWAP1 POP SWAP1 JUMP JUMPDEST PUSH1 0x0 DUP1 PUSH2 0xEB1 DUP4 PUSH2 0xEA3 PUSH1 0x0 SLOAD DUP7 PUSH2 0x18EB SWAP1 SWAP2 SWAP1 PUSH4 0xFFFFFFFF AND JUMP JUMPDEST PUSH2 0x1D2B SWAP1 SWAP2 SWAP1 PUSH4 0xFFFFFFFF AND JUMP JUMPDEST SWAP1 POP PUSH1 0x0 PUSH1 0xA DUP3 PUSH2 0xEC2 SWAP2 SWAP1 PUSH2 0x2773 JUMP JUMPDEST SUB PUSH2 0xED0 JUMPI PUSH1 0x1 SWAP1 POP PUSH2 0xEE0 JUMP JUMPDEST PUSH1 0xA DUP2 PUSH2 0xEDD SWAP2 SWAP1 PUSH2 0x2773 JUMP JUMPDEST SWAP1 POP JUMPDEST DUP1 SWAP2 POP POP SWAP2 SWAP1 POP JUMP JUMPDEST PUSH1 0x0 PUSH1 0xC PUSH1 0x0 DUP5 PUSH20 0xFFFFFFFFFFFFFFFFFFFFFFFFFFFFFFFFFFFFFFFF AND PUSH20 0xFFFFFFFFFFFFFFFFFFFFFFFFFFFFFFFFFFFFFFFF AND DUP2 MSTORE PUSH1 0x20 ADD SWAP1 DUP2 MSTORE PUSH1 0x20 ADD PUSH1 0x0 KECCAK256 PUSH1 0x0 DUP4 PUSH20 0xFFFFFFFFFFFFFFFFFFFFFFFFFFFFFFFFFFFFFFFF AND PUSH20 0xFFFFFFFFFFFFFFFFFFFFFFFFFFFFFFFFFFFFFFFF AND DUP2 MSTORE PUSH1 0x20 ADD SWAP1 DUP2 MSTORE PUSH1 0x20 ADD PUSH1 0x0 KECCAK256 PUSH1 0x0 SWAP1 SLOAD SWAP1 PUSH2 0x100 EXP SWAP1 DIV PUSH1 0xFF AND SWAP1 POP SWAP3 SWAP2 POP POP JUMP JUMPDEST PUSH1 0x0 PUSH1 0xD PUSH1 0x0 DUP5 PUSH20 0xFFFFFFFFFFFFFFFFFFFFFFFFFFFFFFFFFFFFFFFF AND PUSH20 0xFFFFFFFFFFFFFFFFFFFFFFFFFFFFFFFFFFFFFFFF AND DUP2 MSTORE PUSH1 0x20 ADD SWAP1 DUP2 MSTORE PUSH1 0x20 ADD PUSH1 0x0 KECCAK256 PUSH1 0x0 DUP4 DUP2 MSTORE PUSH1 0x20 ADD SWAP1 DUP2 MSTORE PUSH1 0x20 ADD PUSH1 0x0 KECCAK256 SLOAD SWAP1 POP SWAP3 SWAP2 POP POP JUMP JUMPDEST PUSH1 0x0 PUSH32 0x1FFC9A700000000000000000000000000000000000000000000000000000000 PUSH28 0xFFFFFFFFFFFFFFFFFFFFFFFFFFFFFFFFFFFFFFFFFFFFFFFFFFFFFFFF NOT AND DUP3 PUSH28 0xFFFFFFFFFFFFFFFFFFFFFFFFFFFFFFFFFFFFFFFFFFFFFFFFFFFFFFFF NOT AND EQ SWAP1 POP SWAP2 SWAP1 POP JUMP JUMPDEST PUSH1 0x0 DUP2 PUSH2 0x104D PUSH2 0x114A JUMP JUMPDEST GT ISZERO DUP1 ISZERO PUSH2 0x105C JUMPI POP PUSH1 0x4 SLOAD DUP3 LT JUMPDEST DUP1 ISZERO PUSH2 0x1089 JUMPI POP PUSH1 0x9 PUSH1 0x0 DUP4 DUP2 MSTORE PUSH1 0x20 ADD SWAP1 DUP2 MSTORE PUSH1 0x20 ADD PUSH1 0x0 KECCAK256 PUSH1 0x0 ADD PUSH1 0x1C SWAP1 SLOAD SWAP1 PUSH2 0x100 EXP SWAP1 DIV PUSH1 0xFF AND ISZERO JUMPDEST SWAP1 POP SWAP2 SWAP1 POP JUMP JUMPDEST PUSH1 0x0 CALLER SWAP1 POP SWAP1 JUMP JUMPDEST DUP3 PUSH1 0xB PUSH1 0x0 DUP5 DUP2 MSTORE PUSH1 0x20 ADD SWAP1 DUP2 MSTORE PUSH1 0x20 ADD PUSH1 0x0 KECCAK256 PUSH1 0x0 PUSH2 0x100 EXP DUP2 SLOAD DUP2 PUSH20 0xFFFFFFFFFFFFFFFFFFFFFFFFFFFFFFFFFFFFFFFF MUL NOT AND SWAP1 DUP4 PUSH20 0xFFFFFFFFFFFFFFFFFFFFFFFFFFFFFFFFFFFFFFFF AND MUL OR SWAP1 SSTORE POP DUP2 DUP4 PUSH20 0xFFFFFFFFFFFFFFFFFFFFFFFFFFFFFFFFFFFFFFFF AND DUP3 PUSH20 0xFFFFFFFFFFFFFFFFFFFFFFFFFFFFFFFFFFFFFFFF AND PUSH32 0x8C5BE1E5EBEC7D5BD14F71427D1E84F3DD0314C0F7B2291E5B200AC8C7C3B925 PUSH1 0x40 MLOAD PUSH1 0x40 MLOAD DUP1 SWAP2 SUB SWAP1 LOG4 POP POP POP JUMP JUMPDEST PUSH1 0x0 SWAP1 JUMP JUMPDEST PUSH1 0x0 PUSH2 0x115A DUP3 PUSH2 0xE87 JUMP JUMPDEST SWAP1 POP PUSH2 0x1165 DUP5 PUSH2 0xB80 JUMP JUMPDEST PUSH1 0xD PUSH1 0x0 DUP7 PUSH20 0xFFFFFFFFFFFFFFFFFFFFFFFFFFFFFFFFFFFFFFFF AND PUSH20 0xFFFFFFFFFFFFFFFFFFFFFFFFFFFFFFFFFFFFFFFF AND DUP2 MSTORE PUSH1 0x20 ADD SWAP1 DUP2 MSTORE PUSH1 0x20 ADD PUSH1 0x0 KECCAK256 PUSH1 0x0 PUSH1 0x3 DUP2 MSTORE PUSH1 0x20 ADD SWAP1 DUP2 MSTORE PUSH1 0x20 ADD PUSH1 0x0 KECCAK256 DUP2 SWAP1 SSTORE POP PUSH2 0x121E DUP2 PUSH1 0xD PUSH1 0x0 DUP8 PUSH20 0xFFFFFFFFFFFFFFFFFFFFFFFFFFFFFFFFFFFFFFFF AND PUSH20 0xFFFFFFFFFFFFFFFFFFFFFFFFFFFFFFFFFFFFFFFF AND DUP2 MSTORE PUSH1 0x20 ADD SWAP1 DUP2 MSTORE PUSH1 0x20 ADD PUSH1 0x0 KECCAK256 PUSH1 0x0 PUSH1 0x2 DUP2 MSTORE PUSH1 0x20 ADD SWAP1 DUP2 MSTORE PUSH1 0x20 ADD PUSH1 0x0 KECCAK256 SLOAD PUSH2 0x1D15 SWAP1 SWAP2 SWAP1 PUSH4 0xFFFFFFFF AND JUMP JUMPDEST PUSH1 0xD PUSH1 0x0 DUP7 PUSH20 0xFFFFFFFFFFFFFFFFFFFFFFFFFFFFFFFFFFFFFFFF AND PUSH20 0xFFFFFFFFFFFFFFFFFFFFFFFFFFFFFFFFFFFFFFFF AND DUP2 MSTORE PUSH1 0x20 ADD SWAP1 DUP2 MSTORE PUSH1 0x20 ADD PUSH1 0x0 KECCAK256 PUSH1 0x0 PUSH1 0x2 DUP2 MSTORE PUSH1 0x20 ADD SWAP1 DUP2 MSTORE PUSH1 0x20 ADD PUSH1 0x0 KECCAK256 DUP2 SWAP1 SSTORE POP NUMBER PUSH1 0xD PUSH1 0x0 DUP7 PUSH20 0xFFFFFFFFFFFFFFFFFFFFFFFFFFFFFFFFFFFFFFFF AND PUSH20 0xFFFFFFFFFFFFFFFFFFFFFFFFFFFFFFFFFFFFFFFF AND DUP2 MSTORE PUSH1 0x20 ADD SWAP1 DUP2 MSTORE PUSH1 0x20 ADD PUSH1 0x0 KECCAK256 PUSH1 0x0 PUSH1 0x1 DUP2 MSTORE PUSH1 0x20 ADD SWAP1 DUP2 MSTORE PUSH1 0x20 ADD PUSH1 0x0 KECCAK256 DUP2 SWAP1 SSTORE POP PUSH2 0x12D2 DUP4 PUSH2 0xB80 JUMP JUMPDEST PUSH1 0xD PUSH1 0x0 DUP6 PUSH20 0xFFFFFFFFFFFFFFFFFFFFFFFFFFFFFFFFFFFFFFFF AND PUSH20 0xFFFFFFFFFFFFFFFFFFFFFFFFFFFFFFFFFFFFFFFF AND DUP2 MSTORE PUSH1 0x20 ADD SWAP1 DUP2 MSTORE PUSH1 0x20 ADD PUSH1 0x0 KECCAK256 PUSH1 0x0 PUSH1 0x3 DUP2 MSTORE PUSH1 0x20 ADD SWAP1 DUP2 MSTORE PUSH1 0x20 ADD PUSH1 0x0 KECCAK256 DUP2 SWAP1 SSTORE POP PUSH2 0x138B DUP2 PUSH1 0xD PUSH1 0x0 DUP7 PUSH20 0xFFFFFFFFFFFFFFFFFFFFFFFFFFFFFFFFFFFFFFFF AND PUSH20 0xFFFFFFFFFFFFFFFFFFFFFFFFFFFFFFFFFFFFFFFF AND DUP2 MSTORE PUSH1 0x20 ADD SWAP1 DUP2 MSTORE PUSH1 0x20 ADD PUSH1 0x0 KECCAK256 PUSH1 0x0 PUSH1 0x2 DUP2 MSTORE PUSH1 0x20 ADD SWAP1 DUP2 MSTORE PUSH1 0x20 ADD PUSH1 0x0 KECCAK256 SLOAD PUSH2 0x1D2B SWAP1 SWAP2 SWAP1 PUSH4 0xFFFFFFFF AND JUMP JUMPDEST PUSH1 0xD PUSH1 0x0 DUP6 PUSH20 0xFFFFFFFFFFFFFFFFFFFFFFFFFFFFFFFFFFFFFFFF AND PUSH20 0xFFFFFFFFFFFFFFFFFFFFFFFFFFFFFFFFFFFFFFFF AND DUP2 MSTORE PUSH1 0x20 ADD SWAP1 DUP2 MSTORE PUSH1 0x20 ADD PUSH1 0x0 KECCAK256 PUSH1 0x0 PUSH1 0x2 DUP2 MSTORE PUSH1 0x20 ADD SWAP1 DUP2 MSTORE PUSH1 0x20 ADD PUSH1 0x0 KECCAK256 DUP2 SWAP1 SSTORE POP NUMBER PUSH1 0xD PUSH1 0x0 DUP6 PUSH20 0xFFFFFFFFFFFFFFFFFFFFFFFFFFFFFFFFFFFFFFFF AND PUSH20 0xFFFFFFFFFFFFFFFFFFFFFFFFFFFFFFFFFFFFFFFF AND DUP2 MSTORE PUSH1 0x20 ADD SWAP1 DUP2 MSTORE PUSH1 0x20 ADD PUSH1 0x0 KECCAK256 PUSH1 0x0 PUSH1 0x1 DUP2 MSTORE PUSH1 0x20 ADD SWAP1 DUP2 MSTORE PUSH1 0x20 ADD PUSH1 0x0 KECCAK256 DUP2 SWAP1 SSTORE POP PUSH1 0x0 PUSH2 0x1441 DUP4 PUSH2 0x1917 JUMP JUMPDEST SWAP1 POP DUP5 PUSH20 0xFFFFFFFFFFFFFFFFFFFFFFFFFFFFFFFFFFFFFFFF AND DUP2 PUSH1 0x0 ADD MLOAD PUSH20 0xFFFFFFFFFFFFFFFFFFFFFFFFFFFFFFFFFFFFFFFF AND EQ PUSH2 0x14AC JUMPI PUSH1 0x40 MLOAD PUSH32 0xA114810000000000000000000000000000000000000000000000000000000000 DUP2 MSTORE PUSH1 0x4 ADD PUSH1 0x40 MLOAD DUP1 SWAP2 SUB SWAP1 REVERT JUMPDEST PUSH1 0x0 DUP6 PUSH20 0xFFFFFFFFFFFFFFFFFFFFFFFFFFFFFFFFFFFFFFFF AND PUSH2 0x14CD PUSH2 0x1090 JUMP JUMPDEST PUSH20 0xFFFFFFFFFFFFFFFFFFFFFFFFFFFFFFFFFFFFFFFF AND EQ DUP1 PUSH2 0x14FC JUMPI POP PUSH2 0x14FB DUP7 PUSH2 0x14F6 PUSH2 0x1090 JUMP JUMPDEST PUSH2 0xEE9 JUMP JUMPDEST JUMPDEST DUP1 PUSH2 0x1541 JUMPI POP PUSH2 0x150A PUSH2 0x1090 JUMP JUMPDEST PUSH20 0xFFFFFFFFFFFFFFFFFFFFFFFFFFFFFFFFFFFFFFFF AND PUSH2 0x1529 DUP6 PUSH2 0x5E2 JUMP JUMPDEST PUSH20 0xFFFFFFFFFFFFFFFFFFFFFFFFFFFFFFFFFFFFFFFF AND EQ JUMPDEST SWAP1 POP DUP1 PUSH2 0x157A JUMPI PUSH1 0x40 MLOAD PUSH32 0x59C896BE00000000000000000000000000000000000000000000000000000000 DUP2 MSTORE PUSH1 0x4 ADD PUSH1 0x40 MLOAD DUP1 SWAP2 SUB SWAP1 REVERT JUMPDEST PUSH1 0x0 PUSH20 0xFFFFFFFFFFFFFFFFFFFFFFFFFFFFFFFFFFFFFFFF AND DUP6 PUSH20 0xFFFFFFFFFFFFFFFFFFFFFFFFFFFFFFFFFFFFFFFF AND SUB PUSH2 0x15E0 JUMPI PUSH1 0x40 MLOAD PUSH32 0xEA553B3400000000000000000000000000000000000000000000000000000000 DUP2 MSTORE PUSH1 0x4 ADD PUSH1 0x40 MLOAD DUP1 SWAP2 SUB SWAP1 REVERT JUMPDEST PUSH2 0x15ED DUP7 DUP7 DUP7 PUSH1 0x1 PUSH2 0x1EC1 JUMP JUMPDEST PUSH2 0x15F9 PUSH1 0x0 DUP6 DUP9 PUSH2 0x1098 JUMP JUMPDEST PUSH1 0x1 PUSH1 0xA PUSH1 0x0 DUP9 PUSH20 0xFFFFFFFFFFFFFFFFFFFFFFFFFFFFFFFFFFFFFFFF AND PUSH20 0xFFFFFFFFFFFFFFFFFFFFFFFFFFFFFFFFFFFFFFFF AND DUP2 MSTORE PUSH1 0x20 ADD SWAP1 DUP2 MSTORE PUSH1 0x20 ADD PUSH1 0x0 KECCAK256 PUSH1 0x0 ADD PUSH1 0x0 DUP3 DUP3 DUP3 SWAP1 SLOAD SWAP1 PUSH2 0x100 EXP SWAP1 DIV PUSH8 0xFFFFFFFFFFFFFFFF AND SUB SWAP3 POP PUSH2 0x100 EXP DUP2 SLOAD DUP2 PUSH8 0xFFFFFFFFFFFFFFFF MUL NOT AND SWAP1 DUP4 PUSH8 0xFFFFFFFFFFFFFFFF AND MUL OR SWAP1 SSTORE POP PUSH1 0x1 PUSH1 0xA PUSH1 0x0 DUP8 PUSH20 0xFFFFFFFFFFFFFFFFFFFFFFFFFFFFFFFFFFFFFFFF AND PUSH20 0xFFFFFFFFFFFFFFFFFFFFFFFFFFFFFFFFFFFFFFFF AND DUP2 MSTORE PUSH1 0x20 ADD SWAP1 DUP2 MSTORE PUSH1 0x20 ADD PUSH1 0x0 KECCAK256 PUSH1 0x0 ADD PUSH1 0x0 DUP3 DUP3 DUP3 SWAP1 SLOAD SWAP1 PUSH2 0x100 EXP SWAP1 DIV PUSH8 0xFFFFFFFFFFFFFFFF AND ADD SWAP3 POP PUSH2 0x100 EXP DUP2 SLOAD DUP2 PUSH8 0xFFFFFFFFFFFFFFFF MUL NOT AND SWAP1 DUP4 PUSH8 0xFFFFFFFFFFFFFFFF AND MUL OR SWAP1 SSTORE POP PUSH1 0x0 PUSH1 0x9 PUSH1 0x0 DUP7 DUP2 MSTORE PUSH1 0x20 ADD SWAP1 DUP2 MSTORE PUSH1 0x20 ADD PUSH1 0x0 KECCAK256 SWAP1 POP DUP6 DUP2 PUSH1 0x0 ADD PUSH1 0x0 PUSH2 0x100 EXP DUP2 SLOAD DUP2 PUSH20 0xFFFFFFFFFFFFFFFFFFFFFFFFFFFFFFFFFFFFFFFF MUL NOT AND SWAP1 DUP4 PUSH20 0xFFFFFFFFFFFFFFFFFFFFFFFFFFFFFFFFFFFFFFFF AND MUL OR SWAP1 SSTORE POP TIMESTAMP DUP2 PUSH1 0x0 ADD PUSH1 0x14 PUSH2 0x100 EXP DUP2 SLOAD DUP2 PUSH8 0xFFFFFFFFFFFFFFFF MUL NOT AND SWAP1 DUP4 PUSH8 0xFFFFFFFFFFFFFFFF AND MUL OR SWAP1 SSTORE POP PUSH1 0x0 PUSH1 0x1 DUP7 ADD SWAP1 POP PUSH1 0x0 PUSH1 0x9 PUSH1 0x0 DUP4 DUP2 MSTORE PUSH1 0x20 ADD SWAP1 DUP2 MSTORE PUSH1 0x20 ADD PUSH1 0x0 KECCAK256 SWAP1 POP PUSH1 0x0 PUSH20 0xFFFFFFFFFFFFFFFFFFFFFFFFFFFFFFFFFFFFFFFF AND DUP2 PUSH1 0x0 ADD PUSH1 0x0 SWAP1 SLOAD SWAP1 PUSH2 0x100 EXP SWAP1 DIV PUSH20 0xFFFFFFFFFFFFFFFFFFFFFFFFFFFFFFFFFFFFFFFF AND PUSH20 0xFFFFFFFFFFFFFFFFFFFFFFFFFFFFFFFFFFFFFFFF AND SUB PUSH2 0x1878 JUMPI PUSH1 0x4 SLOAD DUP3 EQ PUSH2 0x1877 JUMPI DUP9 DUP2 PUSH1 0x0 ADD PUSH1 0x0 PUSH2 0x100 EXP DUP2 SLOAD DUP2 PUSH20 0xFFFFFFFFFFFFFFFFFFFFFFFFFFFFFFFFFFFFFFFF MUL NOT AND SWAP1 DUP4 PUSH20 0xFFFFFFFFFFFFFFFFFFFFFFFFFFFFFFFFFFFFFFFF AND MUL OR SWAP1 SSTORE POP DUP5 PUSH1 0x20 ADD MLOAD DUP2 PUSH1 0x0 ADD PUSH1 0x14 PUSH2 0x100 EXP DUP2 SLOAD DUP2 PUSH8 0xFFFFFFFFFFFFFFFF MUL NOT AND SWAP1 DUP4 PUSH8 0xFFFFFFFFFFFFFFFF AND MUL OR SWAP1 SSTORE POP JUMPDEST JUMPDEST POP POP POP DUP4 DUP6 PUSH20 0xFFFFFFFFFFFFFFFFFFFFFFFFFFFFFFFFFFFFFFFF AND DUP8 PUSH20 0xFFFFFFFFFFFFFFFFFFFFFFFFFFFFFFFFFFFFFFFF AND PUSH32 0xDDF252AD1BE2C89B69C2B068FC378DAA952BA7F163C4A11628F55A4DF523B3EF PUSH1 0x40 MLOAD PUSH1 0x40 MLOAD DUP1 SWAP2 SUB SWAP1 LOG4 PUSH2 0x18E3 DUP7 DUP7 DUP7 PUSH1 0x1 PUSH2 0x1EC7 JUMP JUMPDEST POP POP POP POP POP POP JUMP JUMPDEST PUSH1 0x0 DUP2 DUP4 PUSH2 0x18F9 SWAP2 SWAP1 PUSH2 0x27A4 JUMP JUMPDEST SWAP1 POP SWAP3 SWAP2 POP POP JUMP JUMPDEST PUSH1 0x0 DUP2 DUP4 PUSH2 0x190F SWAP2 SWAP1 PUSH2 0x27E6 JUMP JUMPDEST SWAP1 POP SWAP3 SWAP2 POP POP JUMP JUMPDEST PUSH2 0x191F PUSH2 0x1ECD JUMP JUMPDEST PUSH1 0x0 DUP3 SWAP1 POP DUP1 PUSH2 0x192D PUSH2 0x114A JUMP JUMPDEST GT PUSH2 0x1B6B JUMPI PUSH1 0x4 SLOAD DUP2 LT ISZERO PUSH2 0x1B6A JUMPI PUSH1 0x0 PUSH1 0x9 PUSH1 0x0 DUP4 DUP2 MSTORE PUSH1 0x20 ADD SWAP1 DUP2 MSTORE PUSH1 0x20 ADD PUSH1 0x0 KECCAK256 PUSH1 0x40 MLOAD DUP1 PUSH1 0x60 ADD PUSH1 0x40 MSTORE SWAP1 DUP2 PUSH1 0x0 DUP3 ADD PUSH1 0x0 SWAP1 SLOAD SWAP1 PUSH2 0x100 EXP SWAP1 DIV PUSH20 0xFFFFFFFFFFFFFFFFFFFFFFFFFFFFFFFFFFFFFFFF AND PUSH20 0xFFFFFFFFFFFFFFFFFFFFFFFFFFFFFFFFFFFFFFFF AND PUSH20 0xFFFFFFFFFFFFFFFFFFFFFFFFFFFFFFFFFFFFFFFF AND DUP2 MSTORE PUSH1 0x20 ADD PUSH1 0x0 DUP3 ADD PUSH1 0x14 SWAP1 SLOAD SWAP1 PUSH2 0x100 EXP SWAP1 DIV PUSH8 0xFFFFFFFFFFFFFFFF AND PUSH8 0xFFFFFFFFFFFFFFFF AND PUSH8 0xFFFFFFFFFFFFFFFF AND DUP2 MSTORE PUSH1 0x20 ADD PUSH1 0x0 DUP3 ADD PUSH1 0x1C SWAP1 SLOAD SWAP1 PUSH2 0x100 EXP SWAP1 DIV PUSH1 0xFF AND ISZERO ISZERO ISZERO ISZERO DUP2 MSTORE POP POP SWAP1 POP DUP1 PUSH1 0x40 ADD MLOAD PUSH2 0x1B68 JUMPI PUSH1 0x0 PUSH20 0xFFFFFFFFFFFFFFFFFFFFFFFFFFFFFFFFFFFFFFFF AND DUP2 PUSH1 0x0 ADD MLOAD PUSH20 0xFFFFFFFFFFFFFFFFFFFFFFFFFFFFFFFFFFFFFFFF AND EQ PUSH2 0x1A4C JUMPI DUP1 SWAP3 POP POP POP PUSH2 0x1B9D JUMP JUMPDEST JUMPDEST PUSH1 0x1 ISZERO PUSH2 0x1B67 JUMPI DUP2 DUP1 PUSH1 0x1 SWAP1 SUB SWAP3 POP POP PUSH1 0x9 PUSH1 0x0 DUP4 DUP2 MSTORE PUSH1 0x20 ADD SWAP1 DUP2 MSTORE PUSH1 0x20 ADD PUSH1 0x0 KECCAK256 PUSH1 0x40 MLOAD DUP1 PUSH1 0x60 ADD PUSH1 0x40 MSTORE SWAP1 DUP2 PUSH1 0x0 DUP3 ADD PUSH1 0x0 SWAP1 SLOAD SWAP1 PUSH2 0x100 EXP SWAP1 DIV PUSH20 0xFFFFFFFFFFFFFFFFFFFFFFFFFFFFFFFFFFFFFFFF AND PUSH20 0xFFFFFFFFFFFFFFFFFFFFFFFFFFFFFFFFFFFFFFFF AND PUSH20 0xFFFFFFFFFFFFFFFFFFFFFFFFFFFFFFFFFFFFFFFF AND DUP2 MSTORE PUSH1 0x20 ADD PUSH1 0x0 DUP3 ADD PUSH1 0x14 SWAP1 SLOAD SWAP1 PUSH2 0x100 EXP SWAP1 DIV PUSH8 0xFFFFFFFFFFFFFFFF AND PUSH8 0xFFFFFFFFFFFFFFFF AND PUSH8 0xFFFFFFFFFFFFFFFF AND DUP2 MSTORE PUSH1 0x20 ADD PUSH1 0x0 DUP3 ADD PUSH1 0x1C SWAP1 SLOAD SWAP1 PUSH2 0x100 EXP SWAP1 DIV PUSH1 0xFF AND ISZERO ISZERO ISZERO ISZERO DUP2 MSTORE POP POP SWAP1 POP PUSH1 0x0 PUSH20 0xFFFFFFFFFFFFFFFFFFFFFFFFFFFFFFFFFFFFFFFF AND DUP2 PUSH1 0x0 ADD MLOAD PUSH20 0xFFFFFFFFFFFFFFFFFFFFFFFFFFFFFFFFFFFFFFFF AND EQ PUSH2 0x1B62 JUMPI DUP1 SWAP3 POP POP POP PUSH2 0x1B9D JUMP JUMPDEST PUSH2 0x1A4D JUMP JUMPDEST JUMPDEST POP JUMPDEST JUMPDEST PUSH1 0x40 MLOAD PUSH32 0xDF2D9B4200000000000000000000000000000000000000000000000000000000 DUP2 MSTORE PUSH1 0x4 ADD PUSH1 0x40 MLOAD DUP1 SWAP2 SUB SWAP1 REVERT JUMPDEST SWAP2 SWAP1 POP JUMP JUMPDEST PUSH1 0x0 DUP1 DUP3 PUSH20 0xFFFFFFFFFFFFFFFFFFFFFFFFFFFFFFFFFFFFFFFF AND EXTCODESIZE GT SWAP1 POP SWAP2 SWAP1 POP JUMP JUMPDEST PUSH1 0x0 DUP4 PUSH20 0xFFFFFFFFFFFFFFFFFFFFFFFFFFFFFFFFFFFFFFFF AND PUSH4 0x150B7A02 PUSH2 0x1BEB PUSH2 0x1090 JUMP JUMPDEST DUP8 DUP7 DUP7 PUSH1 0x40 MLOAD DUP6 PUSH4 0xFFFFFFFF AND PUSH1 0xE0 SHL DUP2 MSTORE PUSH1 0x4 ADD PUSH2 0x1C0D SWAP5 SWAP4 SWAP3 SWAP2 SWAP1 PUSH2 0x286C JUMP JUMPDEST PUSH1 0x20 PUSH1 0x40 MLOAD DUP1 DUP4 SUB DUP2 PUSH1 0x0 DUP8 GAS CALL SWAP3 POP POP POP DUP1 ISZERO PUSH2 0x1C49 JUMPI POP PUSH1 0x40 MLOAD RETURNDATASIZE PUSH1 0x1F NOT PUSH1 0x1F DUP3 ADD AND DUP3 ADD DUP1 PUSH1 0x40 MSTORE POP DUP2 ADD SWAP1 PUSH2 0x1C46 SWAP2 SWAP1 PUSH2 0x28CD JUMP JUMPDEST PUSH1 0x1 JUMPDEST PUSH2 0x1CC2 JUMPI RETURNDATASIZE DUP1 PUSH1 0x0 DUP2 EQ PUSH2 0x1C79 JUMPI PUSH1 0x40 MLOAD SWAP2 POP PUSH1 0x1F NOT PUSH1 0x3F RETURNDATASIZE ADD AND DUP3 ADD PUSH1 0x40 MSTORE RETURNDATASIZE DUP3 MSTORE RETURNDATASIZE PUSH1 0x0 PUSH1 0x20 DUP5 ADD RETURNDATACOPY PUSH2 0x1C7E JUMP JUMPDEST PUSH1 0x60 SWAP2 POP JUMPDEST POP PUSH1 0x0 DUP2 MLOAD SUB PUSH2 0x1CBA JUMPI PUSH1 0x40 MLOAD PUSH32 0xD1A57ED600000000000000000000000000000000000000000000000000000000 DUP2 MSTORE PUSH1 0x4 ADD PUSH1 0x40 MLOAD DUP1 SWAP2 SUB SWAP1 REVERT JUMPDEST DUP1 MLOAD DUP2 PUSH1 0x20 ADD REVERT JUMPDEST PUSH4 0x150B7A02 PUSH1 0xE0 SHL PUSH28 0xFFFFFFFFFFFFFFFFFFFFFFFFFFFFFFFFFFFFFFFFFFFFFFFFFFFFFFFF NOT AND DUP2 PUSH28 0xFFFFFFFFFFFFFFFFFFFFFFFFFFFFFFFFFFFFFFFFFFFFFFFFFFFFFFFF NOT AND EQ SWAP2 POP POP SWAP5 SWAP4 POP POP POP POP JUMP JUMPDEST PUSH1 0x0 DUP2 DUP4 PUSH2 0x1D23 SWAP2 SWAP1 PUSH2 0x28FA JUMP JUMPDEST SWAP1 POP SWAP3 SWAP2 POP POP JUMP JUMPDEST PUSH1 0x0 DUP2 DUP4 PUSH2 0x1D39 SWAP2 SWAP1 PUSH2 0x292E JUMP JUMPDEST SWAP1 POP SWAP3 SWAP2 POP POP JUMP JUMPDEST PUSH1 0x60 PUSH1 0x40 MLOAD DUP1 PUSH1 0x80 ADD PUSH1 0x40 MSTORE DUP1 PUSH1 0x51 DUP2 MSTORE PUSH1 0x20 ADD PUSH2 0x29DA PUSH1 0x51 SWAP2 CODECOPY SWAP1 POP SWAP1 JUMP JUMPDEST PUSH1 0x60 PUSH1 0x0 DUP3 SUB PUSH2 0x1DA8 JUMPI PUSH1 0x40 MLOAD DUP1 PUSH1 0x40 ADD PUSH1 0x40 MSTORE DUP1 PUSH1 0x1 DUP2 MSTORE PUSH1 0x20 ADD PUSH32 0x3000000000000000000000000000000000000000000000000000000000000000 DUP2 MSTORE POP SWAP1 POP PUSH2 0x1EBC JUMP JUMPDEST PUSH1 0x0 DUP3 SWAP1 POP PUSH1 0x0 JUMPDEST PUSH1 0x0 DUP3 EQ PUSH2 0x1DDA JUMPI DUP1 DUP1 PUSH2 0x1DC3 SWAP1 PUSH2 0x2962 JUMP JUMPDEST SWAP2 POP POP PUSH1 0xA DUP3 PUSH2 0x1DD3 SWAP2 SWAP1 PUSH2 0x27E6 JUMP JUMPDEST SWAP2 POP PUSH2 0x1DB0 JUMP JUMPDEST PUSH1 0x0 DUP2 PUSH8 0xFFFFFFFFFFFFFFFF DUP2 GT ISZERO PUSH2 0x1DF6 JUMPI PUSH2 0x1DF5 PUSH2 0x22DC JUMP JUMPDEST JUMPDEST PUSH1 0x40 MLOAD SWAP1 DUP1 DUP3 MSTORE DUP1 PUSH1 0x1F ADD PUSH1 0x1F NOT AND PUSH1 0x20 ADD DUP3 ADD PUSH1 0x40 MSTORE DUP1 ISZERO PUSH2 0x1E28 JUMPI DUP2 PUSH1 0x20 ADD PUSH1 0x1 DUP3 MUL DUP1 CALLDATASIZE DUP4 CALLDATACOPY DUP1 DUP3 ADD SWAP2 POP POP SWAP1 POP JUMPDEST POP SWAP1 POP JUMPDEST PUSH1 0x0 DUP6 EQ PUSH2 0x1EB5 JUMPI PUSH1 0x1 DUP3 PUSH2 0x1E41 SWAP2 SWAP1 PUSH2 0x28FA JUMP JUMPDEST SWAP2 POP PUSH1 0xA DUP6 PUSH2 0x1E50 SWAP2 SWAP1 PUSH2 0x2773 JUMP JUMPDEST PUSH1 0x30 PUSH2 0x1E5C SWAP2 SWAP1 PUSH2 0x292E JUMP JUMPDEST PUSH1 0xF8 SHL DUP2 DUP4 DUP2 MLOAD DUP2 LT PUSH2 0x1E72 JUMPI PUSH2 0x1E71 PUSH2 0x29AA JUMP JUMPDEST JUMPDEST PUSH1 0x20 ADD ADD SWAP1 PUSH31 0xFFFFFFFFFFFFFFFFFFFFFFFFFFFFFFFFFFFFFFFFFFFFFFFFFFFFFFFFFFFFFF NOT AND SWAP1 DUP2 PUSH1 0x0 BYTE SWAP1 MSTORE8 POP PUSH1 0xA DUP6 PUSH2 0x1EAE SWAP2 SWAP1 PUSH2 0x27E6 JUMP JUMPDEST SWAP5 POP PUSH2 0x1E2C JUMP JUMPDEST DUP1 SWAP4 POP POP POP POP JUMPDEST SWAP2 SWAP1 POP JUMP JUMPDEST POP POP POP POP JUMP JUMPDEST POP POP POP POP JUMP JUMPDEST PUSH1 0x40 MLOAD DUP1 PUSH1 0x60 ADD PUSH1 0x40 MSTORE DUP1 PUSH1 0x0 PUSH20 0xFFFFFFFFFFFFFFFFFFFFFFFFFFFFFFFFFFFFFFFF AND DUP2 MSTORE PUSH1 0x20 ADD PUSH1 0x0 PUSH8 0xFFFFFFFFFFFFFFFF AND DUP2 MSTORE PUSH1 0x20 ADD PUSH1 0x0 ISZERO ISZERO DUP2 MSTORE POP SWAP1 JUMP JUMPDEST PUSH1 0x0 PUSH1 0x40 MLOAD SWAP1 POP SWAP1 JUMP JUMPDEST PUSH1 0x0 DUP1 REVERT JUMPDEST PUSH1 0x0 DUP1 REVERT JUMPDEST PUSH1 0x0 PUSH32 0xFFFFFFFF00000000000000000000000000000000000000000000000000000000 DUP3 AND SWAP1 POP SWAP2 SWAP1 POP JUMP JUMPDEST PUSH2 0x1F59 DUP2 PUSH2 0x1F24 JUMP JUMPDEST DUP2 EQ PUSH2 0x1F64 JUMPI PUSH1 0x0 DUP1 REVERT JUMPDEST POP JUMP JUMPDEST PUSH1 0x0 DUP2 CALLDATALOAD SWAP1 POP PUSH2 0x1F76 DUP2 PUSH2 0x1F50 JUMP JUMPDEST SWAP3 SWAP2 POP POP JUMP JUMPDEST PUSH1 0x0 PUSH1 0x20 DUP3 DUP5 SUB SLT ISZERO PUSH2 0x1F92 JUMPI PUSH2 0x1F91 PUSH2 0x1F1A JUMP JUMPDEST JUMPDEST PUSH1 0x0 PUSH2 0x1FA0 DUP5 DUP3 DUP6 ADD PUSH2 0x1F67 JUMP JUMPDEST SWAP2 POP POP SWAP3 SWAP2 POP POP JUMP JUMPDEST PUSH1 0x0 DUP2 ISZERO ISZERO SWAP1 POP SWAP2 SWAP1 POP JUMP JUMPDEST PUSH2 0x1FBE DUP2 PUSH2 0x1FA9 JUMP JUMPDEST DUP3 MSTORE POP POP JUMP JUMPDEST PUSH1 0x0 PUSH1 0x20 DUP3 ADD SWAP1 POP PUSH2 0x1FD9 PUSH1 0x0 DUP4 ADD DUP5 PUSH2 0x1FB5 JUMP JUMPDEST SWAP3 SWAP2 POP POP JUMP JUMPDEST PUSH1 0x0 DUP2 MLOAD SWAP1 POP SWAP2 SWAP1 POP JUMP JUMPDEST PUSH1 0x0 DUP3 DUP3 MSTORE PUSH1 0x20 DUP3 ADD SWAP1 POP SWAP3 SWAP2 POP POP JUMP JUMPDEST PUSH1 0x0 JUMPDEST DUP4 DUP2 LT ISZERO PUSH2 0x2019 JUMPI DUP1 DUP3 ADD MLOAD DUP2 DUP5 ADD MSTORE PUSH1 0x20 DUP2 ADD SWAP1 POP PUSH2 0x1FFE JUMP JUMPDEST PUSH1 0x0 DUP5 DUP5 ADD MSTORE POP POP POP POP JUMP JUMPDEST PUSH1 0x0 PUSH1 0x1F NOT PUSH1 0x1F DUP4 ADD AND SWAP1 POP SWAP2 SWAP1 POP JUMP JUMPDEST PUSH1 0x0 PUSH2 0x2041 DUP3 PUSH2 0x1FDF JUMP JUMPDEST PUSH2 0x204B DUP2 DUP6 PUSH2 0x1FEA JUMP JUMPDEST SWAP4 POP PUSH2 0x205B DUP2 DUP6 PUSH1 0x20 DUP7 ADD PUSH2 0x1FFB JUMP JUMPDEST PUSH2 0x2064 DUP2 PUSH2 0x2025 JUMP JUMPDEST DUP5 ADD SWAP2 POP POP SWAP3 SWAP2 POP POP JUMP JUMPDEST PUSH1 0x0 PUSH1 0x20 DUP3 ADD SWAP1 POP DUP2 DUP2 SUB PUSH1 0x0 DUP4 ADD MSTORE PUSH2 0x2089 DUP2 DUP5 PUSH2 0x2036 JUMP JUMPDEST SWAP1 POP SWAP3 SWAP2 POP POP JUMP JUMPDEST PUSH1 0x0 DUP2 SWAP1 POP SWAP2 SWAP1 POP JUMP JUMPDEST PUSH2 0x20A4 DUP2 PUSH2 0x2091 JUMP JUMPDEST DUP2 EQ PUSH2 0x20AF JUMPI PUSH1 0x0 DUP1 REVERT JUMPDEST POP JUMP JUMPDEST PUSH1 0x0 DUP2 CALLDATALOAD SWAP1 POP PUSH2 0x20C1 DUP2 PUSH2 0x209B JUMP JUMPDEST SWAP3 SWAP2 POP POP JUMP JUMPDEST PUSH1 0x0 PUSH1 0x20 DUP3 DUP5 SUB SLT ISZERO PUSH2 0x20DD JUMPI PUSH2 0x20DC PUSH2 0x1F1A JUMP JUMPDEST JUMPDEST PUSH1 0x0 PUSH2 0x20EB DUP5 DUP3 DUP6 ADD PUSH2 0x20B2 JUMP JUMPDEST SWAP2 POP POP SWAP3 SWAP2 POP POP JUMP JUMPDEST PUSH1 0x0 PUSH20 0xFFFFFFFFFFFFFFFFFFFFFFFFFFFFFFFFFFFFFFFF DUP3 AND SWAP1 POP SWAP2 SWAP1 POP JUMP JUMPDEST PUSH1 0x0 PUSH2 0x211F DUP3 PUSH2 0x20F4 JUMP JUMPDEST SWAP1 POP SWAP2 SWAP1 POP JUMP JUMPDEST PUSH2 0x212F DUP2 PUSH2 0x2114 JUMP JUMPDEST DUP3 MSTORE POP POP JUMP JUMPDEST PUSH1 0x0 PUSH1 0x20 DUP3 ADD SWAP1 POP PUSH2 0x214A PUSH1 0x0 DUP4 ADD DUP5 PUSH2 0x2126 JUMP JUMPDEST SWAP3 SWAP2 POP POP JUMP JUMPDEST PUSH2 0x2159 DUP2 PUSH2 0x2114 JUMP JUMPDEST DUP2 EQ PUSH2 0x2164 JUMPI PUSH1 0x0 DUP1 REVERT JUMPDEST POP JUMP JUMPDEST PUSH1 0x0 DUP2 CALLDATALOAD SWAP1 POP PUSH2 0x2176 DUP2 PUSH2 0x2150 JUMP JUMPDEST SWAP3 SWAP2 POP POP JUMP JUMPDEST PUSH1 0x0 DUP1 PUSH1 0x40 DUP4 DUP6 SUB SLT ISZERO PUSH2 0x2193 JUMPI PUSH2 0x2192 PUSH2 0x1F1A JUMP JUMPDEST JUMPDEST PUSH1 0x0 PUSH2 0x21A1 DUP6 DUP3 DUP7 ADD PUSH2 0x2167 JUMP JUMPDEST SWAP3 POP POP PUSH1 0x20 PUSH2 0x21B2 DUP6 DUP3 DUP7 ADD PUSH2 0x20B2 JUMP JUMPDEST SWAP2 POP POP SWAP3 POP SWAP3 SWAP1 POP JUMP JUMPDEST PUSH2 0x21C5 DUP2 PUSH2 0x2091 JUMP JUMPDEST DUP3 MSTORE POP POP JUMP JUMPDEST PUSH1 0x0 PUSH1 0x20 DUP3 ADD SWAP1 POP PUSH2 0x21E0 PUSH1 0x0 DUP4 ADD DUP5 PUSH2 0x21BC JUMP JUMPDEST SWAP3 SWAP2 POP POP JUMP JUMPDEST PUSH1 0x0 DUP1 PUSH1 0x0 PUSH1 0x60 DUP5 DUP7 SUB SLT ISZERO PUSH2 0x21FF JUMPI PUSH2 0x21FE PUSH2 0x1F1A JUMP JUMPDEST JUMPDEST PUSH1 0x0 PUSH2 0x220D DUP7 DUP3 DUP8 ADD PUSH2 0x2167 JUMP JUMPDEST SWAP4 POP POP PUSH1 0x20 PUSH2 0x221E DUP7 DUP3 DUP8 ADD PUSH2 0x2167 JUMP JUMPDEST SWAP3 POP POP PUSH1 0x40 PUSH2 0x222F DUP7 DUP3 DUP8 ADD PUSH2 0x20B2 JUMP JUMPDEST SWAP2 POP POP SWAP3 POP SWAP3 POP SWAP3 JUMP JUMPDEST PUSH1 0x0 PUSH1 0x20 DUP3 DUP5 SUB SLT ISZERO PUSH2 0x224F JUMPI PUSH2 0x224E PUSH2 0x1F1A JUMP JUMPDEST JUMPDEST PUSH1 0x0 PUSH2 0x225D DUP5 DUP3 DUP6 ADD PUSH2 0x2167 JUMP JUMPDEST SWAP2 POP POP SWAP3 SWAP2 POP POP JUMP JUMPDEST PUSH2 0x226F DUP2 PUSH2 0x1FA9 JUMP JUMPDEST DUP2 EQ PUSH2 0x227A JUMPI PUSH1 0x0 DUP1 REVERT JUMPDEST POP JUMP JUMPDEST PUSH1 0x0 DUP2 CALLDATALOAD SWAP1 POP PUSH2 0x228C DUP2 PUSH2 0x2266 JUMP JUMPDEST SWAP3 SWAP2 POP POP JUMP JUMPDEST PUSH1 0x0 DUP1 PUSH1 0x40 DUP4 DUP6 SUB SLT ISZERO PUSH2 0x22A9 JUMPI PUSH2 0x22A8 PUSH2 0x1F1A JUMP JUMPDEST JUMPDEST PUSH1 0x0 PUSH2 0x22B7 DUP6 DUP3 DUP7 ADD PUSH2 0x2167 JUMP JUMPDEST SWAP3 POP POP PUSH1 0x20 PUSH2 0x22C8 DUP6 DUP3 DUP7 ADD PUSH2 0x227D JUMP JUMPDEST SWAP2 POP POP SWAP3 POP SWAP3 SWAP1 POP JUMP JUMPDEST PUSH1 0x0 DUP1 REVERT JUMPDEST PUSH1 0x0 DUP1 REVERT JUMPDEST PUSH32 0x4E487B7100000000000000000000000000000000000000000000000000000000 PUSH1 0x0 MSTORE PUSH1 0x41 PUSH1 0x4 MSTORE PUSH1 0x24 PUSH1 0x0 REVERT JUMPDEST PUSH2 0x2314 DUP3 PUSH2 0x2025 JUMP JUMPDEST DUP2 ADD DUP2 DUP2 LT PUSH8 0xFFFFFFFFFFFFFFFF DUP3 GT OR ISZERO PUSH2 0x2333 JUMPI PUSH2 0x2332 PUSH2 0x22DC JUMP JUMPDEST JUMPDEST DUP1 PUSH1 0x40 MSTORE POP POP POP JUMP JUMPDEST PUSH1 0x0 PUSH2 0x2346 PUSH2 0x1F10 JUMP JUMPDEST SWAP1 POP PUSH2 0x2352 DUP3 DUP3 PUSH2 0x230B JUMP JUMPDEST SWAP2 SWAP1 POP JUMP JUMPDEST PUSH1 0x0 PUSH8 0xFFFFFFFFFFFFFFFF DUP3 GT ISZERO PUSH2 0x2372 JUMPI PUSH2 0x2371 PUSH2 0x22DC JUMP JUMPDEST JUMPDEST PUSH2 0x237B DUP3 PUSH2 0x2025 JUMP JUMPDEST SWAP1 POP PUSH1 0x20 DUP2 ADD SWAP1 POP SWAP2 SWAP1 POP JUMP JUMPDEST DUP3 DUP2 DUP4 CALLDATACOPY PUSH1 0x0 DUP4 DUP4 ADD MSTORE POP POP POP JUMP JUMPDEST PUSH1 0x0 PUSH2 0x23AA PUSH2 0x23A5 DUP5 PUSH2 0x2357 JUMP JUMPDEST PUSH2 0x233C JUMP JUMPDEST SWAP1 POP DUP3 DUP2 MSTORE PUSH1 0x20 DUP2 ADD DUP5 DUP5 DUP5 ADD GT ISZERO PUSH2 0x23C6 JUMPI PUSH2 0x23C5 PUSH2 0x22D7 JUMP JUMPDEST JUMPDEST PUSH2 0x23D1 DUP5 DUP3 DUP6 PUSH2 0x2388 JUMP JUMPDEST POP SWAP4 SWAP3 POP POP POP JUMP JUMPDEST PUSH1 0x0 DUP3 PUSH1 0x1F DUP4 ADD SLT PUSH2 0x23EE JUMPI PUSH2 0x23ED PUSH2 0x22D2 JUMP JUMPDEST JUMPDEST DUP2 CALLDATALOAD PUSH2 0x23FE DUP5 DUP3 PUSH1 0x20 DUP7 ADD PUSH2 0x2397 JUMP JUMPDEST SWAP2 POP POP SWAP3 SWAP2 POP POP JUMP JUMPDEST PUSH1 0x0 DUP1 PUSH1 0x0 DUP1 PUSH1 0x80 DUP6 DUP8 SUB SLT ISZERO PUSH2 0x2421 JUMPI PUSH2 0x2420 PUSH2 0x1F1A JUMP JUMPDEST JUMPDEST PUSH1 0x0 PUSH2 0x242F DUP8 DUP3 DUP9 ADD PUSH2 0x2167 JUMP JUMPDEST SWAP5 POP POP PUSH1 0x20 PUSH2 0x2440 DUP8 DUP3 DUP9 ADD PUSH2 0x2167 JUMP JUMPDEST SWAP4 POP POP PUSH1 0x40 PUSH2 0x2451 DUP8 DUP3 DUP9 ADD PUSH2 0x20B2 JUMP JUMPDEST SWAP3 POP POP PUSH1 0x60 DUP6 ADD CALLDATALOAD PUSH8 0xFFFFFFFFFFFFFFFF DUP2 GT ISZERO PUSH2 0x2472 JUMPI PUSH2 0x2471 PUSH2 0x1F1F JUMP JUMPDEST JUMPDEST PUSH2 0x247E DUP8 DUP3 DUP9 ADD PUSH2 0x23D9 JUMP JUMPDEST SWAP2 POP POP SWAP3 SWAP6 SWAP2 SWAP5 POP SWAP3 POP JUMP JUMPDEST PUSH1 0x0 DUP1 PUSH1 0x40 DUP4 DUP6 SUB SLT ISZERO PUSH2 0x24A1 JUMPI PUSH2 0x24A0 PUSH2 0x1F1A JUMP JUMPDEST JUMPDEST PUSH1 0x0 PUSH2 0x24AF DUP6 DUP3 DUP7 ADD PUSH2 0x2167 JUMP JUMPDEST SWAP3 POP POP PUSH1 0x20 PUSH2 0x24C0 DUP6 DUP3 DUP7 ADD PUSH2 0x2167 JUMP JUMPDEST SWAP2 POP POP SWAP3 POP SWAP3 SWAP1 POP JUMP JUMPDEST PUSH32 0x4E487B7100000000000000000000000000000000000000000000000000000000 PUSH1 0x0 MSTORE PUSH1 0x22 PUSH1 0x4 MSTORE PUSH1 0x24 PUSH1 0x0 REVERT JUMPDEST PUSH1 0x0 PUSH1 0x2 DUP3 DIV SWAP1 POP PUSH1 0x1 DUP3 AND DUP1 PUSH2 0x2511 JUMPI PUSH1 0x7F DUP3 AND SWAP2 POP JUMPDEST PUSH1 0x20 DUP3 LT DUP2 SUB PUSH2 0x2524 JUMPI PUSH2 0x2523 PUSH2 0x24CA JUMP JUMPDEST JUMPDEST POP SWAP2 SWAP1 POP JUMP JUMPDEST PUSH1 0x0 DUP2 SWAP1 POP SWAP3 SWAP2 POP POP JUMP JUMPDEST PUSH1 0x0 PUSH2 0x2540 DUP3 PUSH2 0x1FDF JUMP JUMPDEST PUSH2 0x254A DUP2 DUP6 PUSH2 0x252A JUMP JUMPDEST SWAP4 POP PUSH2 0x255A DUP2 DUP6 PUSH1 0x20 DUP7 ADD PUSH2 0x1FFB JUMP JUMPDEST DUP1 DUP5 ADD SWAP2 POP POP SWAP3 SWAP2 POP POP JUMP JUMPDEST PUSH1 0x0 PUSH2 0x2572 DUP3 DUP6 PUSH2 0x2535 JUMP JUMPDEST SWAP2 POP PUSH2 0x257E DUP3 DUP5 PUSH2 0x2535 JUMP JUMPDEST SWAP2 POP DUP2 SWAP1 POP SWAP4 SWAP3 POP POP POP JUMP JUMPDEST PUSH32 0x4E487B7100000000000000000000000000000000000000000000000000000000 PUSH1 0x0 MSTORE PUSH1 0x11 PUSH1 0x4 MSTORE PUSH1 0x24 PUSH1 0x0 REVERT JUMPDEST PUSH1 0x0 DUP2 PUSH1 0x1 SHR SWAP1 POP SWAP2 SWAP1 POP JUMP JUMPDEST PUSH1 0x0 DUP1 DUP3 SWAP2 POP DUP4 SWAP1 POP JUMPDEST PUSH1 0x1 DUP6 GT ISZERO PUSH2 0x2610 JUMPI DUP1 DUP7 DIV DUP2 GT ISZERO PUSH2 0x25EC JUMPI PUSH2 0x25EB PUSH2 0x258A JUMP JUMPDEST JUMPDEST PUSH1 0x1 DUP6 AND ISZERO PUSH2 0x25FB JUMPI DUP1 DUP3 MUL SWAP2 POP JUMPDEST DUP1 DUP2 MUL SWAP1 POP PUSH2 0x2609 DUP6 PUSH2 0x25B9 JUMP JUMPDEST SWAP5 POP PUSH2 0x25D0 JUMP JUMPDEST SWAP5 POP SWAP5 SWAP3 POP POP POP JUMP JUMPDEST PUSH1 0x0 DUP3 PUSH2 0x2629 JUMPI PUSH1 0x1 SWAP1 POP PUSH2 0x26E5 JUMP JUMPDEST DUP2 PUSH2 0x2637 JUMPI PUSH1 0x0 SWAP1 POP PUSH2 0x26E5 JUMP JUMPDEST DUP2 PUSH1 0x1 DUP2 EQ PUSH2 0x264D JUMPI PUSH1 0x2 DUP2 EQ PUSH2 0x2657 JUMPI PUSH2 0x2686 JUMP JUMPDEST PUSH1 0x1 SWAP2 POP POP PUSH2 0x26E5 JUMP JUMPDEST PUSH1 0xFF DUP5 GT ISZERO PUSH2 0x2669 JUMPI PUSH2 0x2668 PUSH2 0x258A JUMP JUMPDEST JUMPDEST DUP4 PUSH1 0x2 EXP SWAP2 POP DUP5 DUP3 GT ISZERO PUSH2 0x2680 JUMPI PUSH2 0x267F PUSH2 0x258A JUMP JUMPDEST JUMPDEST POP PUSH2 0x26E5 JUMP JUMPDEST POP PUSH1 0x20 DUP4 LT PUSH2 0x133 DUP4 LT AND PUSH1 0x4E DUP5 LT PUSH1 0xB DUP5 LT AND OR ISZERO PUSH2 0x26BB JUMPI DUP3 DUP3 EXP SWAP1 POP DUP4 DUP2 GT ISZERO PUSH2 0x26B6 JUMPI PUSH2 0x26B5 PUSH2 0x258A JUMP JUMPDEST JUMPDEST PUSH2 0x26E5 JUMP JUMPDEST PUSH2 0x26C8 DUP5 DUP5 DUP5 PUSH1 0x1 PUSH2 0x25C6 JUMP JUMPDEST SWAP3 POP SWAP1 POP DUP2 DUP5 DIV DUP2 GT ISZERO PUSH2 0x26DF JUMPI PUSH2 0x26DE PUSH2 0x258A JUMP JUMPDEST JUMPDEST DUP2 DUP2 MUL SWAP1 POP JUMPDEST SWAP4 SWAP3 POP POP POP JUMP JUMPDEST PUSH1 0x0 PUSH1 0xFF DUP3 AND SWAP1 POP SWAP2 SWAP1 POP JUMP JUMPDEST PUSH1 0x0 PUSH2 0x2704 DUP3 PUSH2 0x2091 JUMP JUMPDEST SWAP2 POP PUSH2 0x270F DUP4 PUSH2 0x26EC JUMP JUMPDEST SWAP3 POP PUSH2 0x273C PUSH32 0xFFFFFFFFFFFFFFFFFFFFFFFFFFFFFFFFFFFFFFFFFFFFFFFFFFFFFFFFFFFFFFFF DUP5 DUP5 PUSH2 0x2619 JUMP JUMPDEST SWAP1 POP SWAP3 SWAP2 POP POP JUMP JUMPDEST PUSH32 0x4E487B7100000000000000000000000000000000000000000000000000000000 PUSH1 0x0 MSTORE PUSH1 0x12 PUSH1 0x4 MSTORE PUSH1 0x24 PUSH1 0x0 REVERT JUMPDEST PUSH1 0x0 PUSH2 0x277E DUP3 PUSH2 0x2091 JUMP JUMPDEST SWAP2 POP PUSH2 0x2789 DUP4 PUSH2 0x2091 JUMP JUMPDEST SWAP3 POP DUP3 PUSH2 0x2799 JUMPI PUSH2 0x2798 PUSH2 0x2744 JUMP JUMPDEST JUMPDEST DUP3 DUP3 MOD SWAP1 POP SWAP3 SWAP2 POP POP JUMP JUMPDEST PUSH1 0x0 PUSH2 0x27AF DUP3 PUSH2 0x2091 JUMP JUMPDEST SWAP2 POP PUSH2 0x27BA DUP4 PUSH2 0x2091 JUMP JUMPDEST SWAP3 POP DUP3 DUP3 MUL PUSH2 0x27C8 DUP2 PUSH2 0x2091 JUMP JUMPDEST SWAP2 POP DUP3 DUP3 DIV DUP5 EQ DUP4 ISZERO OR PUSH2 0x27DF JUMPI PUSH2 0x27DE PUSH2 0x258A JUMP JUMPDEST JUMPDEST POP SWAP3 SWAP2 POP POP JUMP JUMPDEST PUSH1 0x0 PUSH2 0x27F1 DUP3 PUSH2 0x2091 JUMP JUMPDEST SWAP2 POP PUSH2 0x27FC DUP4 PUSH2 0x2091 JUMP JUMPDEST SWAP3 POP DUP3 PUSH2 0x280C JUMPI PUSH2 0x280B PUSH2 0x2744 JUMP JUMPDEST JUMPDEST DUP3 DUP3 DIV SWAP1 POP SWAP3 SWAP2 POP POP JUMP JUMPDEST PUSH1 0x0 DUP2 MLOAD SWAP1 POP SWAP2 SWAP1 POP JUMP JUMPDEST PUSH1 0x0 DUP3 DUP3 MSTORE PUSH1 0x20 DUP3 ADD SWAP1 POP SWAP3 SWAP2 POP POP JUMP JUMPDEST PUSH1 0x0 PUSH2 0x283E DUP3 PUSH2 0x2817 JUMP JUMPDEST PUSH2 0x2848 DUP2 DUP6 PUSH2 0x2822 JUMP JUMPDEST SWAP4 POP PUSH2 0x2858 DUP2 DUP6 PUSH1 0x20 DUP7 ADD PUSH2 0x1FFB JUMP JUMPDEST PUSH2 0x2861 DUP2 PUSH2 0x2025 JUMP JUMPDEST DUP5 ADD SWAP2 POP POP SWAP3 SWAP2 POP POP JUMP JUMPDEST PUSH1 0x0 PUSH1 0x80 DUP3 ADD SWAP1 POP PUSH2 0x2881 PUSH1 0x0 DUP4 ADD DUP8 PUSH2 0x2126 JUMP JUMPDEST PUSH2 0x288E PUSH1 0x20 DUP4 ADD DUP7 PUSH2 0x2126 JUMP JUMPDEST PUSH2 0x289B PUSH1 0x40 DUP4 ADD DUP6 PUSH2 0x21BC JUMP JUMPDEST DUP2 DUP2 SUB PUSH1 0x60 DUP4 ADD MSTORE PUSH2 0x28AD DUP2 DUP5 PUSH2 0x2833 JUMP JUMPDEST SWAP1 POP SWAP6 SWAP5 POP POP POP POP POP JUMP JUMPDEST PUSH1 0x0 DUP2 MLOAD SWAP1 POP PUSH2 0x28C7 DUP2 PUSH2 0x1F50 JUMP JUMPDEST SWAP3 SWAP2 POP POP JUMP JUMPDEST PUSH1 0x0 PUSH1 0x20 DUP3 DUP5 SUB SLT ISZERO PUSH2 0x28E3 JUMPI PUSH2 0x28E2 PUSH2 0x1F1A JUMP JUMPDEST JUMPDEST PUSH1 0x0 PUSH2 0x28F1 DUP5 DUP3 DUP6 ADD PUSH2 0x28B8 JUMP JUMPDEST SWAP2 POP POP SWAP3 SWAP2 POP POP JUMP JUMPDEST PUSH1 0x0 PUSH2 0x2905 DUP3 PUSH2 0x2091 JUMP JUMPDEST SWAP2 POP PUSH2 0x2910 DUP4 PUSH2 0x2091 JUMP JUMPDEST SWAP3 POP DUP3 DUP3 SUB SWAP1 POP DUP2 DUP2 GT ISZERO PUSH2 0x2928 JUMPI PUSH2 0x2927 PUSH2 0x258A JUMP JUMPDEST JUMPDEST SWAP3 SWAP2 POP POP JUMP JUMPDEST PUSH1 0x0 PUSH2 0x2939 DUP3 PUSH2 0x2091 JUMP JUMPDEST SWAP2 POP PUSH2 0x2944 DUP4 PUSH2 0x2091 JUMP JUMPDEST SWAP3 POP DUP3 DUP3 ADD SWAP1 POP DUP1 DUP3 GT ISZERO PUSH2 0x295C JUMPI PUSH2 0x295B PUSH2 0x258A JUMP JUMPDEST JUMPDEST SWAP3 SWAP2 POP POP JUMP JUMPDEST PUSH1 0x0 PUSH2 0x296D DUP3 PUSH2 0x2091 JUMP JUMPDEST SWAP2 POP PUSH32 0xFFFFFFFFFFFFFFFFFFFFFFFFFFFFFFFFFFFFFFFFFFFFFFFFFFFFFFFFFFFFFFFF DUP3 SUB PUSH2 0x299F JUMPI PUSH2 0x299E PUSH2 0x258A JUMP JUMPDEST JUMPDEST PUSH1 0x1 DUP3 ADD SWAP1 POP SWAP2 SWAP1 POP JUMP JUMPDEST PUSH32 0x4E487B7100000000000000000000000000000000000000000000000000000000 PUSH1 0x0 MSTORE PUSH1 0x32 PUSH1 0x4 MSTORE PUSH1 0x24 PUSH1 0x0 REVERT INVALID PUSH9 0x747470733A2F2F6761 PUSH21 0x657761792E70696E6174612E636C6F75642F697066 PUSH20 0x2F516D654E373753715459457258644D5134684C CALLVALUE BALANCE PUSH3 0x316661 SELFBALANCE PUSH25 0x414B7434515741354E475646755A753978486E2FA264697066 PUSH20 0x5822122074575BC0C53AFC80D23C637F8FB51308 DUP10 SHR PUSH7 0xBC3C319579CCC DIFFICULTY 0xA8 DUP2 PUSH22 0xBBDC64736F6C63430008110033000000000000000000 "
				},
				"gasEstimates": {
					"creation": {
						"codeDepositCost": "2169600",
						"executionCost": "infinite",
						"totalCost": "infinite"
					},
					"external": {
						"MineStatus(address)": "infinite",
						"approve(address,uint256)": "infinite",
						"balanceOf(address)": "3035",
						"blockStatus(uint256)": "infinite",
						"difficult(uint256)": "infinite",
						"getApproved(uint256)": "7458",
						"isApprovedForAll(address,address)": "infinite",
						"maxSupply()": "4598",
						"mineInfo(address,uint256)": "infinite",
						"name()": "infinite",
						"ownerOf(uint256)": "infinite",
						"safeTransferFrom(address,address,uint256)": "infinite",
						"safeTransferFrom(address,address,uint256,bytes)": "infinite",
						"setApprovalForAll(address,bool)": "infinite",
						"supportsInterface(bytes4)": "797",
						"symbol()": "infinite",
						"tokenIDPower(uint256)": "infinite",
						"tokenURI(uint256)": "infinite",
						"totalPower()": "2503",
						"totalSupply()": "4688",
						"transferFrom(address,address,uint256)": "infinite"
					},
					"internal": {
						"_afterTokenTransfers(address,address,uint256,uint256)": "17",
						"_approve(address,uint256,address)": "26292",
						"_baseURI()": "infinite",
						"_beforeTokenTransfers(address,address,uint256,uint256)": "17",
						"_burn(uint256)": "infinite",
						"_burn(uint256,bool)": "infinite",
						"_checkContractOnERC721Received(address,address,uint256,bytes memory)": "infinite",
						"_exists(uint256)": "4499",
						"_getAux(address)": "infinite",
						"_numberBurned(address)": "infinite",
						"_numberMinted(address)": "infinite",
						"_ownershipOf(uint256)": "infinite",
						"_safeMint(address,uint256)": "infinite",
						"_safeMint(address,uint256,bytes memory)": "infinite",
						"_setAux(address,uint64)": "infinite",
						"_startTokenId()": "15",
						"_totalMinted()": "infinite",
						"_transfer(address,address,uint256)": "infinite"
					}
				},
				"methodIdentifiers": {
					"MineStatus(address)": "b8ba6007",
					"approve(address,uint256)": "095ea7b3",
					"balanceOf(address)": "70a08231",
					"blockStatus(uint256)": "4be3403c",
					"difficult(uint256)": "d993226b",
					"getApproved(uint256)": "081812fc",
					"isApprovedForAll(address,address)": "e985e9c5",
					"maxSupply()": "d5abeb01",
					"mineInfo(address,uint256)": "eff0730d",
					"name()": "06fdde03",
					"ownerOf(uint256)": "6352211e",
					"safeTransferFrom(address,address,uint256)": "42842e0e",
					"safeTransferFrom(address,address,uint256,bytes)": "b88d4fde",
					"setApprovalForAll(address,bool)": "a22cb465",
					"supportsInterface(bytes4)": "01ffc9a7",
					"symbol()": "95d89b41",
					"tokenIDPower(uint256)": "e29301f9",
					"tokenURI(uint256)": "c87b56dd",
					"totalPower()": "db3ad22c",
					"totalSupply()": "18160ddd",
					"transferFrom(address,address,uint256)": "23b872dd"
				}
			},
			"storageLayout": {
				"storage": [
					{
						"astId": 1081,
						"contract": "minerpunk/ERC721A/ERC721A.sol:ERC721A",
						"label": "_salt",
						"offset": 0,
						"slot": "0",
						"type": "t_uint256"
					},
					{
						"astId": 1083,
						"contract": "minerpunk/ERC721A/ERC721A.sol:ERC721A",
						"label": "_TokenperBlock",
						"offset": 0,
						"slot": "1",
						"type": "t_uint256"
					},
					{
						"astId": 1085,
						"contract": "minerpunk/ERC721A/ERC721A.sol:ERC721A",
						"label": "_startBlockNumber",
						"offset": 0,
						"slot": "2",
						"type": "t_uint256"
					},
					{
						"astId": 1087,
						"contract": "minerpunk/ERC721A/ERC721A.sol:ERC721A",
						"label": "_totalPower",
						"offset": 0,
						"slot": "3",
						"type": "t_uint256"
					},
					{
						"astId": 1089,
						"contract": "minerpunk/ERC721A/ERC721A.sol:ERC721A",
						"label": "_currentIndex",
						"offset": 0,
						"slot": "4",
						"type": "t_uint256"
					},
					{
						"astId": 1091,
						"contract": "minerpunk/ERC721A/ERC721A.sol:ERC721A",
						"label": "_maxSupply",
						"offset": 0,
						"slot": "5",
						"type": "t_uint256"
					},
					{
						"astId": 1093,
						"contract": "minerpunk/ERC721A/ERC721A.sol:ERC721A",
						"label": "_burnCounter",
						"offset": 0,
						"slot": "6",
						"type": "t_uint256"
					},
					{
						"astId": 1095,
						"contract": "minerpunk/ERC721A/ERC721A.sol:ERC721A",
						"label": "_name",
						"offset": 0,
						"slot": "7",
						"type": "t_string_storage"
					},
					{
						"astId": 1097,
						"contract": "minerpunk/ERC721A/ERC721A.sol:ERC721A",
						"label": "_symbol",
						"offset": 0,
						"slot": "8",
						"type": "t_string_storage"
					},
					{
						"astId": 1102,
						"contract": "minerpunk/ERC721A/ERC721A.sol:ERC721A",
						"label": "_ownerships",
						"offset": 0,
						"slot": "9",
						"type": "t_mapping(t_uint256,t_struct(TokenOwnership)2823_storage)"
					},
					{
						"astId": 1107,
						"contract": "minerpunk/ERC721A/ERC721A.sol:ERC721A",
						"label": "_addressData",
						"offset": 0,
						"slot": "10",
						"type": "t_mapping(t_address,t_struct(AddressData)2832_storage)"
					},
					{
						"astId": 1111,
						"contract": "minerpunk/ERC721A/ERC721A.sol:ERC721A",
						"label": "_tokenApprovals",
						"offset": 0,
						"slot": "11",
						"type": "t_mapping(t_uint256,t_address)"
					},
					{
						"astId": 1117,
						"contract": "minerpunk/ERC721A/ERC721A.sol:ERC721A",
						"label": "_operatorApprovals",
						"offset": 0,
						"slot": "12",
						"type": "t_mapping(t_address,t_mapping(t_address,t_bool))"
					},
					{
						"astId": 1124,
						"contract": "minerpunk/ERC721A/ERC721A.sol:ERC721A",
						"label": "_mineInfo",
						"offset": 0,
						"slot": "13",
						"type": "t_mapping(t_address,t_mapping(t_uint256,t_uint256))"
					}
				],
				"types": {
					"t_address": {
						"encoding": "inplace",
						"label": "address",
						"numberOfBytes": "20"
					},
					"t_bool": {
						"encoding": "inplace",
						"label": "bool",
						"numberOfBytes": "1"
					},
					"t_mapping(t_address,t_bool)": {
						"encoding": "mapping",
						"key": "t_address",
						"label": "mapping(address => bool)",
						"numberOfBytes": "32",
						"value": "t_bool"
					},
					"t_mapping(t_address,t_mapping(t_address,t_bool))": {
						"encoding": "mapping",
						"key": "t_address",
						"label": "mapping(address => mapping(address => bool))",
						"numberOfBytes": "32",
						"value": "t_mapping(t_address,t_bool)"
					},
					"t_mapping(t_address,t_mapping(t_uint256,t_uint256))": {
						"encoding": "mapping",
						"key": "t_address",
						"label": "mapping(address => mapping(uint256 => uint256))",
						"numberOfBytes": "32",
						"value": "t_mapping(t_uint256,t_uint256)"
					},
					"t_mapping(t_address,t_struct(AddressData)2832_storage)": {
						"encoding": "mapping",
						"key": "t_address",
						"label": "mapping(address => struct IERC721A.AddressData)",
						"numberOfBytes": "32",
						"value": "t_struct(AddressData)2832_storage"
					},
					"t_mapping(t_uint256,t_address)": {
						"encoding": "mapping",
						"key": "t_uint256",
						"label": "mapping(uint256 => address)",
						"numberOfBytes": "32",
						"value": "t_address"
					},
					"t_mapping(t_uint256,t_struct(TokenOwnership)2823_storage)": {
						"encoding": "mapping",
						"key": "t_uint256",
						"label": "mapping(uint256 => struct IERC721A.TokenOwnership)",
						"numberOfBytes": "32",
						"value": "t_struct(TokenOwnership)2823_storage"
					},
					"t_mapping(t_uint256,t_uint256)": {
						"encoding": "mapping",
						"key": "t_uint256",
						"label": "mapping(uint256 => uint256)",
						"numberOfBytes": "32",
						"value": "t_uint256"
					},
					"t_string_storage": {
						"encoding": "bytes",
						"label": "string",
						"numberOfBytes": "32"
					},
					"t_struct(AddressData)2832_storage": {
						"encoding": "inplace",
						"label": "struct IERC721A.AddressData",
						"members": [
							{
								"astId": 2825,
								"contract": "minerpunk/ERC721A/ERC721A.sol:ERC721A",
								"label": "balance",
								"offset": 0,
								"slot": "0",
								"type": "t_uint64"
							},
							{
								"astId": 2827,
								"contract": "minerpunk/ERC721A/ERC721A.sol:ERC721A",
								"label": "numberMinted",
								"offset": 8,
								"slot": "0",
								"type": "t_uint64"
							},
							{
								"astId": 2829,
								"contract": "minerpunk/ERC721A/ERC721A.sol:ERC721A",
								"label": "numberBurned",
								"offset": 16,
								"slot": "0",
								"type": "t_uint64"
							},
							{
								"astId": 2831,
								"contract": "minerpunk/ERC721A/ERC721A.sol:ERC721A",
								"label": "aux",
								"offset": 24,
								"slot": "0",
								"type": "t_uint64"
							}
						],
						"numberOfBytes": "32"
					},
					"t_struct(TokenOwnership)2823_storage": {
						"encoding": "inplace",
						"label": "struct IERC721A.TokenOwnership",
						"members": [
							{
								"astId": 2818,
								"contract": "minerpunk/ERC721A/ERC721A.sol:ERC721A",
								"label": "addr",
								"offset": 0,
								"slot": "0",
								"type": "t_address"
							},
							{
								"astId": 2820,
								"contract": "minerpunk/ERC721A/ERC721A.sol:ERC721A",
								"label": "startTimestamp",
								"offset": 20,
								"slot": "0",
								"type": "t_uint64"
							},
							{
								"astId": 2822,
								"contract": "minerpunk/ERC721A/ERC721A.sol:ERC721A",
								"label": "burned",
								"offset": 28,
								"slot": "0",
								"type": "t_bool"
							}
						],
						"numberOfBytes": "32"
					},
					"t_uint256": {
						"encoding": "inplace",
						"label": "uint256",
						"numberOfBytes": "32"
					},
					"t_uint64": {
						"encoding": "inplace",
						"label": "uint64",
						"numberOfBytes": "8"
					}
				}
			},
			"userdoc": {
				"errors": {
					"ApprovalCallerNotOwnerNorApproved()": [
						{
							"notice": "The caller must own the token or be an approved operator."
						}
					],
					"ApprovalQueryForNonexistentToken()": [
						{
							"notice": "The token does not exist."
						}
					],
					"ApprovalToCurrentOwner()": [
						{
							"notice": "The caller cannot approve to the current owner."
						}
					],
					"ApproveToCaller()": [
						{
							"notice": "The caller cannot approve to their own address."
						}
					],
					"BalanceQueryForZeroAddress()": [
						{
							"notice": "Cannot query the balance for the zero address."
						}
					],
					"MintToZeroAddress()": [
						{
							"notice": "Cannot mint to the zero address."
						}
					],
					"MintZeroQuantity()": [
						{
							"notice": "The quantity of tokens minted must be more than zero."
						}
					],
					"OwnerQueryForNonexistentToken()": [
						{
							"notice": "The token does not exist."
						}
					],
					"TransferCallerNotOwnerNorApproved()": [
						{
							"notice": "The caller must own the token or be an approved operator."
						}
					],
					"TransferFromIncorrectOwner()": [
						{
							"notice": "The token must be owned by `from`."
						}
					],
					"TransferToNonERC721ReceiverImplementer()": [
						{
							"notice": "Cannot safely transfer to a contract that does not implement the ERC721Receiver interface."
						}
					],
					"TransferToZeroAddress()": [
						{
							"notice": "Cannot transfer to the zero address."
						}
					],
					"URIQueryForNonexistentToken()": [
						{
							"notice": "The token does not exist."
						}
					]
				},
				"kind": "user",
				"methods": {},
				"version": 1
			}
		}
	}
}