{
	"Dcoffer/ERC721A/test.sol": {
		"ERC721A": {
			"abi": [
				{
					"inputs": [
						{
							"internalType": "string",
							"name": "name_",
							"type": "string"
						},
						{
							"internalType": "string",
							"name": "symbol_",
							"type": "string"
						},
						{
							"internalType": "uint256",
							"name": "salt_",
							"type": "uint256"
						}
					],
					"stateMutability": "nonpayable",
					"type": "constructor"
				},
				{
					"inputs": [],
					"name": "ApprovalCallerNotOwnerNorApproved",
					"type": "error"
				},
				{
					"inputs": [],
					"name": "ApprovalQueryForNonexistentToken",
					"type": "error"
				},
				{
					"inputs": [],
					"name": "ApprovalToCurrentOwner",
					"type": "error"
				},
				{
					"inputs": [],
					"name": "ApproveToCaller",
					"type": "error"
				},
				{
					"inputs": [],
					"name": "BalanceQueryForZeroAddress",
					"type": "error"
				},
				{
					"inputs": [],
					"name": "MintToZeroAddress",
					"type": "error"
				},
				{
					"inputs": [],
					"name": "MintZeroQuantity",
					"type": "error"
				},
				{
					"inputs": [],
					"name": "OwnerQueryForNonexistentToken",
					"type": "error"
				},
				{
					"inputs": [],
					"name": "TransferCallerNotOwnerNorApproved",
					"type": "error"
				},
				{
					"inputs": [],
					"name": "TransferFromIncorrectOwner",
					"type": "error"
				},
				{
					"inputs": [],
					"name": "TransferToNonERC721ReceiverImplementer",
					"type": "error"
				},
				{
					"inputs": [],
					"name": "TransferToZeroAddress",
					"type": "error"
				},
				{
					"inputs": [],
					"name": "URIQueryForNonexistentToken",
					"type": "error"
				},
				{
					"anonymous": false,
					"inputs": [
						{
							"indexed": true,
							"internalType": "address",
							"name": "owner",
							"type": "address"
						},
						{
							"indexed": true,
							"internalType": "address",
							"name": "approved",
							"type": "address"
						},
						{
							"indexed": true,
							"internalType": "uint256",
							"name": "tokenId",
							"type": "uint256"
						}
					],
					"name": "Approval",
					"type": "event"
				},
				{
					"anonymous": false,
					"inputs": [
						{
							"indexed": true,
							"internalType": "address",
							"name": "owner",
							"type": "address"
						},
						{
							"indexed": true,
							"internalType": "address",
							"name": "operator",
							"type": "address"
						},
						{
							"indexed": false,
							"internalType": "bool",
							"name": "approved",
							"type": "bool"
						}
					],
					"name": "ApprovalForAll",
					"type": "event"
				},
				{
					"anonymous": false,
					"inputs": [
						{
							"indexed": true,
							"internalType": "address",
							"name": "from",
							"type": "address"
						},
						{
							"indexed": true,
							"internalType": "address",
							"name": "to",
							"type": "address"
						},
						{
							"indexed": true,
							"internalType": "uint256",
							"name": "tokenId",
							"type": "uint256"
						}
					],
					"name": "Transfer",
					"type": "event"
				},
				{
					"inputs": [
						{
							"internalType": "uint256",
							"name": "tokenId",
							"type": "uint256"
						}
					],
					"name": "DcofferPower",
					"outputs": [
						{
							"internalType": "uint256",
							"name": "",
							"type": "uint256"
						}
					],
					"stateMutability": "view",
					"type": "function"
				},
				{
					"inputs": [
						{
							"internalType": "address",
							"name": "user",
							"type": "address"
						}
					],
					"name": "MineStatus",
					"outputs": [
						{
							"internalType": "uint256",
							"name": "",
							"type": "uint256"
						}
					],
					"stateMutability": "view",
					"type": "function"
				},
				{
					"inputs": [
						{
							"internalType": "address",
							"name": "to",
							"type": "address"
						},
						{
							"internalType": "uint256",
							"name": "tokenId",
							"type": "uint256"
						}
					],
					"name": "approve",
					"outputs": [],
					"stateMutability": "nonpayable",
					"type": "function"
				},
				{
					"inputs": [
						{
							"internalType": "address",
							"name": "owner",
							"type": "address"
						}
					],
					"name": "balanceOf",
					"outputs": [
						{
							"internalType": "uint256",
							"name": "",
							"type": "uint256"
						}
					],
					"stateMutability": "view",
					"type": "function"
				},
				{
					"inputs": [
						{
							"internalType": "uint256",
							"name": "_BlockNumber",
							"type": "uint256"
						}
					],
					"name": "blockStatus",
					"outputs": [
						{
							"internalType": "uint256",
							"name": "",
							"type": "uint256"
						}
					],
					"stateMutability": "view",
					"type": "function"
				},
				{
					"inputs": [
						{
							"internalType": "uint256",
							"name": "tokenId",
							"type": "uint256"
						}
					],
					"name": "getApproved",
					"outputs": [
						{
							"internalType": "address",
							"name": "",
							"type": "address"
						}
					],
					"stateMutability": "view",
					"type": "function"
				},
				{
					"inputs": [
						{
							"internalType": "address",
							"name": "owner",
							"type": "address"
						},
						{
							"internalType": "address",
							"name": "operator",
							"type": "address"
						}
					],
					"name": "isApprovedForAll",
					"outputs": [
						{
							"internalType": "bool",
							"name": "",
							"type": "bool"
						}
					],
					"stateMutability": "view",
					"type": "function"
				},
				{
					"inputs": [],
					"name": "maxSupply",
					"outputs": [
						{
							"internalType": "uint256",
							"name": "",
							"type": "uint256"
						}
					],
					"stateMutability": "view",
					"type": "function"
				},
				{
					"inputs": [
						{
							"internalType": "uint256",
							"name": "a",
							"type": "uint256"
						},
						{
							"internalType": "uint256",
							"name": "b",
							"type": "uint256"
						}
					],
					"name": "mineInfo",
					"outputs": [
						{
							"internalType": "uint256",
							"name": "",
							"type": "uint256"
						}
					],
					"stateMutability": "view",
					"type": "function"
				},
				{
					"inputs": [],
					"name": "name",
					"outputs": [
						{
							"internalType": "string",
							"name": "",
							"type": "string"
						}
					],
					"stateMutability": "view",
					"type": "function"
				},
				{
					"inputs": [
						{
							"internalType": "uint256",
							"name": "tokenId",
							"type": "uint256"
						}
					],
					"name": "ownerOf",
					"outputs": [
						{
							"internalType": "address",
							"name": "",
							"type": "address"
						}
					],
					"stateMutability": "view",
					"type": "function"
				},
				{
					"inputs": [
						{
							"internalType": "address",
							"name": "from",
							"type": "address"
						},
						{
							"internalType": "address",
							"name": "to",
							"type": "address"
						},
						{
							"internalType": "uint256",
							"name": "tokenId",
							"type": "uint256"
						}
					],
					"name": "safeTransferFrom",
					"outputs": [],
					"stateMutability": "nonpayable",
					"type": "function"
				},
				{
					"inputs": [
						{
							"internalType": "address",
							"name": "from",
							"type": "address"
						},
						{
							"internalType": "address",
							"name": "to",
							"type": "address"
						},
						{
							"internalType": "uint256",
							"name": "tokenId",
							"type": "uint256"
						},
						{
							"internalType": "bytes",
							"name": "_data",
							"type": "bytes"
						}
					],
					"name": "safeTransferFrom",
					"outputs": [],
					"stateMutability": "nonpayable",
					"type": "function"
				},
				{
					"inputs": [
						{
							"internalType": "address",
							"name": "operator",
							"type": "address"
						},
						{
							"internalType": "bool",
							"name": "approved",
							"type": "bool"
						}
					],
					"name": "setApprovalForAll",
					"outputs": [],
					"stateMutability": "nonpayable",
					"type": "function"
				},
				{
					"inputs": [
						{
							"internalType": "bytes4",
							"name": "interfaceId",
							"type": "bytes4"
						}
					],
					"name": "supportsInterface",
					"outputs": [
						{
							"internalType": "bool",
							"name": "",
							"type": "bool"
						}
					],
					"stateMutability": "view",
					"type": "function"
				},
				{
					"inputs": [],
					"name": "symbol",
					"outputs": [
						{
							"internalType": "string",
							"name": "",
							"type": "string"
						}
					],
					"stateMutability": "view",
					"type": "function"
				},
				{
					"inputs": [
						{
							"internalType": "uint256",
							"name": "tokenId",
							"type": "uint256"
						}
					],
					"name": "tokenURI",
					"outputs": [
						{
							"internalType": "string",
							"name": "",
							"type": "string"
						}
					],
					"stateMutability": "view",
					"type": "function"
				},
				{
					"inputs": [],
					"name": "totalPower",
					"outputs": [
						{
							"internalType": "uint256",
							"name": "",
							"type": "uint256"
						}
					],
					"stateMutability": "view",
					"type": "function"
				},
				{
					"inputs": [],
					"name": "totalSupply",
					"outputs": [
						{
							"internalType": "uint256",
							"name": "",
							"type": "uint256"
						}
					],
					"stateMutability": "view",
					"type": "function"
				},
				{
					"inputs": [
						{
							"internalType": "address",
							"name": "from",
							"type": "address"
						},
						{
							"internalType": "address",
							"name": "to",
							"type": "address"
						},
						{
							"internalType": "uint256",
							"name": "tokenId",
							"type": "uint256"
						}
					],
					"name": "transferFrom",
					"outputs": [],
					"stateMutability": "nonpayable",
					"type": "function"
				}
			],
			"devdoc": {
				"details": "Implementation of https://eips.ethereum.org/EIPS/eip-721[ERC721] Non-Fungible Token Standard, including the Metadata extension. Built to optimize for lower gas during batch mints. Assumes serials are sequentially minted starting at _startTokenId() (defaults to 0, e.g. 0, 1, 2, 3..). Assumes that an owner cannot have more than 2**64 - 1 (max value of uint64) of supply. Assumes that the maximum token id cannot exceed 2**256 - 1 (max value of uint256).",
				"kind": "dev",
				"methods": {
					"approve(address,uint256)": {
						"details": "See {IERC721-approve}."
					},
					"balanceOf(address)": {
						"details": "See {IERC721-balanceOf}."
					},
					"getApproved(uint256)": {
						"details": "See {IERC721-getApproved}."
					},
					"isApprovedForAll(address,address)": {
						"details": "See {IERC721-isApprovedForAll}."
					},
					"name()": {
						"details": "See {IERC721Metadata-name}."
					},
					"ownerOf(uint256)": {
						"details": "See {IERC721-ownerOf}."
					},
					"safeTransferFrom(address,address,uint256)": {
						"details": "See {IERC721-safeTransferFrom}."
					},
					"safeTransferFrom(address,address,uint256,bytes)": {
						"details": "See {IERC721-safeTransferFrom}."
					},
					"setApprovalForAll(address,bool)": {
						"details": "See {IERC721-setApprovalForAll}."
					},
					"supportsInterface(bytes4)": {
						"details": "See {IERC165-supportsInterface}."
					},
					"symbol()": {
						"details": "See {IERC721Metadata-symbol}."
					},
					"tokenURI(uint256)": {
						"details": "See {IERC721Metadata-tokenURI}."
					},
					"totalSupply()": {
						"details": "Burned tokens are calculated here, use _totalMinted() if you want to count just minted tokens."
					},
					"transferFrom(address,address,uint256)": {
						"details": "See {IERC721-transferFrom}."
					}
				},
				"version": 1
			},
			"evm": {
				"assembly": "    /* \"Dcoffer/ERC721A/test.sol\":1033:24152  contract ERC721A is Context, ERC165, IERC721A,mine {... */\n  mstore(0x40, 0x80)\n    /* \"Dcoffer/ERC721A/test.sol\":2444:2784  constructor(string memory name_, string memory symbol_, uint256 salt_) {... */\n  callvalue\n  dup1\n  iszero\n  tag_1\n  jumpi\n  0x00\n  dup1\n  revert\ntag_1:\n  pop\n  mload(0x40)\n  sub(codesize, bytecodeSize)\n  dup1\n  bytecodeSize\n  dup4\n  codecopy\n  dup2\n  dup2\n  add\n  0x40\n  mstore\n  dup2\n  add\n  swap1\n  tag_2\n  swap2\n  swap1\n  tag_3\n  jump\t// in\ntag_2:\n    /* \"Dcoffer/ERC721A/test.sol\":2534:2539  name_ */\n  dup3\n    /* \"Dcoffer/ERC721A/test.sol\":2526:2531  _name */\n  0x07\n    /* \"Dcoffer/ERC721A/test.sol\":2526:2539  _name = name_ */\n  swap1\n  dup2\n  tag_6\n  swap2\n  swap1\n  tag_7\n  jump\t// in\ntag_6:\n  pop\n    /* \"Dcoffer/ERC721A/test.sol\":2560:2567  symbol_ */\n  dup2\n    /* \"Dcoffer/ERC721A/test.sol\":2550:2557  _symbol */\n  0x08\n    /* \"Dcoffer/ERC721A/test.sol\":2550:2567  _symbol = symbol_ */\n  swap1\n  dup2\n  tag_8\n  swap2\n  swap1\n  tag_7\n  jump\t// in\ntag_8:\n  pop\n    /* \"Dcoffer/ERC721A/test.sol\":2591:2596  10000 */\n  0x2710\n    /* \"Dcoffer/ERC721A/test.sol\":2578:2588  _maxSupply */\n  0x05\n    /* \"Dcoffer/ERC721A/test.sol\":2578:2596  _maxSupply = 10000 */\n  dup2\n  swap1\n  sstore\n  pop\n    /* \"Dcoffer/ERC721A/test.sol\":2623:2638  _startTokenId() */\n  tag_9\n    /* \"Dcoffer/ERC721A/test.sol\":2623:2636  _startTokenId */\n  shl(0x20, tag_10)\n    /* \"Dcoffer/ERC721A/test.sol\":2623:2638  _startTokenId() */\n  0x20\n  shr\n  jump\t// in\ntag_9:\n    /* \"Dcoffer/ERC721A/test.sol\":2607:2620  _currentIndex */\n  0x04\n    /* \"Dcoffer/ERC721A/test.sol\":2607:2638  _currentIndex = _startTokenId() */\n  dup2\n  swap1\n  sstore\n  pop\n    /* \"Dcoffer/ERC721A/test.sol\":2658:2663  salt_ */\n  dup1\n    /* \"Dcoffer/ERC721A/test.sol\":2650:2655  _salt */\n  0x00\n    /* \"Dcoffer/ERC721A/test.sol\":2650:2663  _salt = salt_ */\n  dup2\n  swap1\n  sstore\n  pop\n    /* \"Dcoffer/ERC721A/test.sol\":2692:2696  2e18 */\n  0x1bc16d674ec80000\n    /* \"Dcoffer/ERC721A/test.sol\":2677:2689  _DCFperBlock */\n  0x01\n    /* \"Dcoffer/ERC721A/test.sol\":2677:2696  _DCFperBlock = 2e18 */\n  dup2\n  swap1\n  sstore\n  pop\n    /* \"Dcoffer/ERC721A/test.sol\":2724:2729  46000 */\n  0xb3b0\n    /* \"Dcoffer/ERC721A/test.sol\":2710:2721  _totalPower */\n  0x03\n    /* \"Dcoffer/ERC721A/test.sol\":2710:2729  _totalPower = 46000 */\n  dup2\n  swap1\n  sstore\n  pop\n    /* \"Dcoffer/ERC721A/test.sol\":2760:2772  block.number */\n  number\n    /* \"Dcoffer/ERC721A/test.sol\":2740:2757  _startBlockNumber */\n  0x02\n    /* \"Dcoffer/ERC721A/test.sol\":2740:2772  _startBlockNumber = block.number */\n  dup2\n  swap1\n  sstore\n  pop\n    /* \"Dcoffer/ERC721A/test.sol\":2444:2784  constructor(string memory name_, string memory symbol_, uint256 salt_) {... */\n  pop\n  pop\n  pop\n    /* \"Dcoffer/ERC721A/test.sol\":1033:24152  contract ERC721A is Context, ERC165, IERC721A,mine {... */\n  jump(tag_11)\n    /* \"Dcoffer/ERC721A/test.sol\":4221:4313  function _startTokenId() internal view virtual returns (uint256) {... */\ntag_10:\n    /* \"Dcoffer/ERC721A/test.sol\":4277:4284  uint256 */\n  0x00\n    /* \"Dcoffer/ERC721A/test.sol\":4221:4313  function _startTokenId() internal view virtual returns (uint256) {... */\n  swap1\n  jump\t// out\n    /* \"#utility.yul\":7:82   */\ntag_13:\n    /* \"#utility.yul\":40:46   */\n  0x00\n    /* \"#utility.yul\":73:75   */\n  0x40\n    /* \"#utility.yul\":67:76   */\n  mload\n    /* \"#utility.yul\":57:76   */\n  swap1\n  pop\n    /* \"#utility.yul\":7:82   */\n  swap1\n  jump\t// out\n    /* \"#utility.yul\":88:205   */\ntag_14:\n    /* \"#utility.yul\":197:198   */\n  0x00\n    /* \"#utility.yul\":194:195   */\n  dup1\n    /* \"#utility.yul\":187:199   */\n  revert\n    /* \"#utility.yul\":211:328   */\ntag_15:\n    /* \"#utility.yul\":320:321   */\n  0x00\n    /* \"#utility.yul\":317:318   */\n  dup1\n    /* \"#utility.yul\":310:322   */\n  revert\n    /* \"#utility.yul\":334:451   */\ntag_16:\n    /* \"#utility.yul\":443:444   */\n  0x00\n    /* \"#utility.yul\":440:441   */\n  dup1\n    /* \"#utility.yul\":433:445   */\n  revert\n    /* \"#utility.yul\":457:574   */\ntag_17:\n    /* \"#utility.yul\":566:567   */\n  0x00\n    /* \"#utility.yul\":563:564   */\n  dup1\n    /* \"#utility.yul\":556:568   */\n  revert\n    /* \"#utility.yul\":580:682   */\ntag_18:\n    /* \"#utility.yul\":621:627   */\n  0x00\n    /* \"#utility.yul\":672:674   */\n  0x1f\n    /* \"#utility.yul\":668:675   */\n  not\n    /* \"#utility.yul\":663:665   */\n  0x1f\n    /* \"#utility.yul\":656:661   */\n  dup4\n    /* \"#utility.yul\":652:666   */\n  add\n    /* \"#utility.yul\":648:676   */\n  and\n    /* \"#utility.yul\":638:676   */\n  swap1\n  pop\n    /* \"#utility.yul\":580:682   */\n  swap2\n  swap1\n  pop\n  jump\t// out\n    /* \"#utility.yul\":688:868   */\ntag_19:\n    /* \"#utility.yul\":736:813   */\n  0x4e487b7100000000000000000000000000000000000000000000000000000000\n    /* \"#utility.yul\":733:734   */\n  0x00\n    /* \"#utility.yul\":726:814   */\n  mstore\n    /* \"#utility.yul\":833:837   */\n  0x41\n    /* \"#utility.yul\":830:831   */\n  0x04\n    /* \"#utility.yul\":823:838   */\n  mstore\n    /* \"#utility.yul\":857:861   */\n  0x24\n    /* \"#utility.yul\":854:855   */\n  0x00\n    /* \"#utility.yul\":847:862   */\n  revert\n    /* \"#utility.yul\":874:1155   */\ntag_20:\n    /* \"#utility.yul\":957:984   */\n  tag_56\n    /* \"#utility.yul\":979:983   */\n  dup3\n    /* \"#utility.yul\":957:984   */\n  tag_18\n  jump\t// in\ntag_56:\n    /* \"#utility.yul\":949:955   */\n  dup2\n    /* \"#utility.yul\":945:985   */\n  add\n    /* \"#utility.yul\":1087:1093   */\n  dup2\n    /* \"#utility.yul\":1075:1085   */\n  dup2\n    /* \"#utility.yul\":1072:1094   */\n  lt\n    /* \"#utility.yul\":1051:1069   */\n  0xffffffffffffffff\n    /* \"#utility.yul\":1039:1049   */\n  dup3\n    /* \"#utility.yul\":1036:1070   */\n  gt\n    /* \"#utility.yul\":1033:1095   */\n  or\n    /* \"#utility.yul\":1030:1118   */\n  iszero\n  tag_57\n  jumpi\n    /* \"#utility.yul\":1098:1116   */\n  tag_58\n  tag_19\n  jump\t// in\ntag_58:\n    /* \"#utility.yul\":1030:1118   */\ntag_57:\n    /* \"#utility.yul\":1138:1148   */\n  dup1\n    /* \"#utility.yul\":1134:1136   */\n  0x40\n    /* \"#utility.yul\":1127:1149   */\n  mstore\n    /* \"#utility.yul\":917:1155   */\n  pop\n    /* \"#utility.yul\":874:1155   */\n  pop\n  pop\n  jump\t// out\n    /* \"#utility.yul\":1161:1290   */\ntag_21:\n    /* \"#utility.yul\":1195:1201   */\n  0x00\n    /* \"#utility.yul\":1222:1242   */\n  tag_60\n  tag_13\n  jump\t// in\ntag_60:\n    /* \"#utility.yul\":1212:1242   */\n  swap1\n  pop\n    /* \"#utility.yul\":1251:1284   */\n  tag_61\n    /* \"#utility.yul\":1279:1283   */\n  dup3\n    /* \"#utility.yul\":1271:1277   */\n  dup3\n    /* \"#utility.yul\":1251:1284   */\n  tag_20\n  jump\t// in\ntag_61:\n    /* \"#utility.yul\":1161:1290   */\n  swap2\n  swap1\n  pop\n  jump\t// out\n    /* \"#utility.yul\":1296:1604   */\ntag_22:\n    /* \"#utility.yul\":1358:1362   */\n  0x00\n    /* \"#utility.yul\":1448:1466   */\n  0xffffffffffffffff\n    /* \"#utility.yul\":1440:1446   */\n  dup3\n    /* \"#utility.yul\":1437:1467   */\n  gt\n    /* \"#utility.yul\":1434:1490   */\n  iszero\n  tag_63\n  jumpi\n    /* \"#utility.yul\":1470:1488   */\n  tag_64\n  tag_19\n  jump\t// in\ntag_64:\n    /* \"#utility.yul\":1434:1490   */\ntag_63:\n    /* \"#utility.yul\":1508:1537   */\n  tag_65\n    /* \"#utility.yul\":1530:1536   */\n  dup3\n    /* \"#utility.yul\":1508:1537   */\n  tag_18\n  jump\t// in\ntag_65:\n    /* \"#utility.yul\":1500:1537   */\n  swap1\n  pop\n    /* \"#utility.yul\":1592:1596   */\n  0x20\n    /* \"#utility.yul\":1586:1590   */\n  dup2\n    /* \"#utility.yul\":1582:1597   */\n  add\n    /* \"#utility.yul\":1574:1597   */\n  swap1\n  pop\n    /* \"#utility.yul\":1296:1604   */\n  swap2\n  swap1\n  pop\n  jump\t// out\n    /* \"#utility.yul\":1610:1856   */\ntag_23:\n    /* \"#utility.yul\":1691:1692   */\n  0x00\n    /* \"#utility.yul\":1701:1814   */\ntag_67:\n    /* \"#utility.yul\":1715:1721   */\n  dup4\n    /* \"#utility.yul\":1712:1713   */\n  dup2\n    /* \"#utility.yul\":1709:1722   */\n  lt\n    /* \"#utility.yul\":1701:1814   */\n  iszero\n  tag_69\n  jumpi\n    /* \"#utility.yul\":1800:1801   */\n  dup1\n    /* \"#utility.yul\":1795:1798   */\n  dup3\n    /* \"#utility.yul\":1791:1802   */\n  add\n    /* \"#utility.yul\":1785:1803   */\n  mload\n    /* \"#utility.yul\":1781:1782   */\n  dup2\n    /* \"#utility.yul\":1776:1779   */\n  dup5\n    /* \"#utility.yul\":1772:1783   */\n  add\n    /* \"#utility.yul\":1765:1804   */\n  mstore\n    /* \"#utility.yul\":1737:1739   */\n  0x20\n    /* \"#utility.yul\":1734:1735   */\n  dup2\n    /* \"#utility.yul\":1730:1740   */\n  add\n    /* \"#utility.yul\":1725:1740   */\n  swap1\n  pop\n    /* \"#utility.yul\":1701:1814   */\n  jump(tag_67)\ntag_69:\n    /* \"#utility.yul\":1848:1849   */\n  0x00\n    /* \"#utility.yul\":1839:1845   */\n  dup5\n    /* \"#utility.yul\":1834:1837   */\n  dup5\n    /* \"#utility.yul\":1830:1846   */\n  add\n    /* \"#utility.yul\":1823:1850   */\n  mstore\n    /* \"#utility.yul\":1672:1856   */\n  pop\n    /* \"#utility.yul\":1610:1856   */\n  pop\n  pop\n  pop\n  jump\t// out\n    /* \"#utility.yul\":1862:2296   */\ntag_24:\n    /* \"#utility.yul\":1951:1956   */\n  0x00\n    /* \"#utility.yul\":1976:2042   */\n  tag_71\n    /* \"#utility.yul\":1992:2041   */\n  tag_72\n    /* \"#utility.yul\":2034:2040   */\n  dup5\n    /* \"#utility.yul\":1992:2041   */\n  tag_22\n  jump\t// in\ntag_72:\n    /* \"#utility.yul\":1976:2042   */\n  tag_21\n  jump\t// in\ntag_71:\n    /* \"#utility.yul\":1967:2042   */\n  swap1\n  pop\n    /* \"#utility.yul\":2065:2071   */\n  dup3\n    /* \"#utility.yul\":2058:2063   */\n  dup2\n    /* \"#utility.yul\":2051:2072   */\n  mstore\n    /* \"#utility.yul\":2103:2107   */\n  0x20\n    /* \"#utility.yul\":2096:2101   */\n  dup2\n    /* \"#utility.yul\":2092:2108   */\n  add\n    /* \"#utility.yul\":2141:2144   */\n  dup5\n    /* \"#utility.yul\":2132:2138   */\n  dup5\n    /* \"#utility.yul\":2127:2130   */\n  dup5\n    /* \"#utility.yul\":2123:2139   */\n  add\n    /* \"#utility.yul\":2120:2145   */\n  gt\n    /* \"#utility.yul\":2117:2229   */\n  iszero\n  tag_73\n  jumpi\n    /* \"#utility.yul\":2148:2227   */\n  tag_74\n  tag_17\n  jump\t// in\ntag_74:\n    /* \"#utility.yul\":2117:2229   */\ntag_73:\n    /* \"#utility.yul\":2238:2290   */\n  tag_75\n    /* \"#utility.yul\":2283:2289   */\n  dup5\n    /* \"#utility.yul\":2278:2281   */\n  dup3\n    /* \"#utility.yul\":2273:2276   */\n  dup6\n    /* \"#utility.yul\":2238:2290   */\n  tag_23\n  jump\t// in\ntag_75:\n    /* \"#utility.yul\":1957:2296   */\n  pop\n    /* \"#utility.yul\":1862:2296   */\n  swap4\n  swap3\n  pop\n  pop\n  pop\n  jump\t// out\n    /* \"#utility.yul\":2316:2671   */\ntag_25:\n    /* \"#utility.yul\":2383:2388   */\n  0x00\n    /* \"#utility.yul\":2432:2435   */\n  dup3\n    /* \"#utility.yul\":2425:2429   */\n  0x1f\n    /* \"#utility.yul\":2417:2423   */\n  dup4\n    /* \"#utility.yul\":2413:2430   */\n  add\n    /* \"#utility.yul\":2409:2436   */\n  slt\n    /* \"#utility.yul\":2399:2521   */\n  tag_77\n  jumpi\n    /* \"#utility.yul\":2440:2519   */\n  tag_78\n  tag_16\n  jump\t// in\ntag_78:\n    /* \"#utility.yul\":2399:2521   */\ntag_77:\n    /* \"#utility.yul\":2550:2556   */\n  dup2\n    /* \"#utility.yul\":2544:2557   */\n  mload\n    /* \"#utility.yul\":2575:2665   */\n  tag_79\n    /* \"#utility.yul\":2661:2664   */\n  dup5\n    /* \"#utility.yul\":2653:2659   */\n  dup3\n    /* \"#utility.yul\":2646:2650   */\n  0x20\n    /* \"#utility.yul\":2638:2644   */\n  dup7\n    /* \"#utility.yul\":2634:2651   */\n  add\n    /* \"#utility.yul\":2575:2665   */\n  tag_24\n  jump\t// in\ntag_79:\n    /* \"#utility.yul\":2566:2665   */\n  swap2\n  pop\n    /* \"#utility.yul\":2389:2671   */\n  pop\n    /* \"#utility.yul\":2316:2671   */\n  swap3\n  swap2\n  pop\n  pop\n  jump\t// out\n    /* \"#utility.yul\":2677:2754   */\ntag_26:\n    /* \"#utility.yul\":2714:2721   */\n  0x00\n    /* \"#utility.yul\":2743:2748   */\n  dup2\n    /* \"#utility.yul\":2732:2748   */\n  swap1\n  pop\n    /* \"#utility.yul\":2677:2754   */\n  swap2\n  swap1\n  pop\n  jump\t// out\n    /* \"#utility.yul\":2760:2882   */\ntag_27:\n    /* \"#utility.yul\":2833:2857   */\n  tag_82\n    /* \"#utility.yul\":2851:2856   */\n  dup2\n    /* \"#utility.yul\":2833:2857   */\n  tag_26\n  jump\t// in\ntag_82:\n    /* \"#utility.yul\":2826:2831   */\n  dup2\n    /* \"#utility.yul\":2823:2858   */\n  eq\n    /* \"#utility.yul\":2813:2876   */\n  tag_83\n  jumpi\n    /* \"#utility.yul\":2872:2873   */\n  0x00\n    /* \"#utility.yul\":2869:2870   */\n  dup1\n    /* \"#utility.yul\":2862:2874   */\n  revert\n    /* \"#utility.yul\":2813:2876   */\ntag_83:\n    /* \"#utility.yul\":2760:2882   */\n  pop\n  jump\t// out\n    /* \"#utility.yul\":2888:3031   */\ntag_28:\n    /* \"#utility.yul\":2945:2950   */\n  0x00\n    /* \"#utility.yul\":2976:2982   */\n  dup2\n    /* \"#utility.yul\":2970:2983   */\n  mload\n    /* \"#utility.yul\":2961:2983   */\n  swap1\n  pop\n    /* \"#utility.yul\":2992:3025   */\n  tag_85\n    /* \"#utility.yul\":3019:3024   */\n  dup2\n    /* \"#utility.yul\":2992:3025   */\n  tag_27\n  jump\t// in\ntag_85:\n    /* \"#utility.yul\":2888:3031   */\n  swap3\n  swap2\n  pop\n  pop\n  jump\t// out\n    /* \"#utility.yul\":3037:4046   */\ntag_3:\n    /* \"#utility.yul\":3145:3151   */\n  0x00\n    /* \"#utility.yul\":3153:3159   */\n  dup1\n    /* \"#utility.yul\":3161:3167   */\n  0x00\n    /* \"#utility.yul\":3210:3212   */\n  0x60\n    /* \"#utility.yul\":3198:3207   */\n  dup5\n    /* \"#utility.yul\":3189:3196   */\n  dup7\n    /* \"#utility.yul\":3185:3208   */\n  sub\n    /* \"#utility.yul\":3181:3213   */\n  slt\n    /* \"#utility.yul\":3178:3297   */\n  iszero\n  tag_87\n  jumpi\n    /* \"#utility.yul\":3216:3295   */\n  tag_88\n  tag_14\n  jump\t// in\ntag_88:\n    /* \"#utility.yul\":3178:3297   */\ntag_87:\n    /* \"#utility.yul\":3357:3358   */\n  0x00\n    /* \"#utility.yul\":3346:3355   */\n  dup5\n    /* \"#utility.yul\":3342:3359   */\n  add\n    /* \"#utility.yul\":3336:3360   */\n  mload\n    /* \"#utility.yul\":3387:3405   */\n  0xffffffffffffffff\n    /* \"#utility.yul\":3379:3385   */\n  dup2\n    /* \"#utility.yul\":3376:3406   */\n  gt\n    /* \"#utility.yul\":3373:3490   */\n  iszero\n  tag_89\n  jumpi\n    /* \"#utility.yul\":3409:3488   */\n  tag_90\n  tag_15\n  jump\t// in\ntag_90:\n    /* \"#utility.yul\":3373:3490   */\ntag_89:\n    /* \"#utility.yul\":3514:3588   */\n  tag_91\n    /* \"#utility.yul\":3580:3587   */\n  dup7\n    /* \"#utility.yul\":3571:3577   */\n  dup3\n    /* \"#utility.yul\":3560:3569   */\n  dup8\n    /* \"#utility.yul\":3556:3578   */\n  add\n    /* \"#utility.yul\":3514:3588   */\n  tag_25\n  jump\t// in\ntag_91:\n    /* \"#utility.yul\":3504:3588   */\n  swap4\n  pop\n    /* \"#utility.yul\":3307:3598   */\n  pop\n    /* \"#utility.yul\":3658:3660   */\n  0x20\n    /* \"#utility.yul\":3647:3656   */\n  dup5\n    /* \"#utility.yul\":3643:3661   */\n  add\n    /* \"#utility.yul\":3637:3662   */\n  mload\n    /* \"#utility.yul\":3689:3707   */\n  0xffffffffffffffff\n    /* \"#utility.yul\":3681:3687   */\n  dup2\n    /* \"#utility.yul\":3678:3708   */\n  gt\n    /* \"#utility.yul\":3675:3792   */\n  iszero\n  tag_92\n  jumpi\n    /* \"#utility.yul\":3711:3790   */\n  tag_93\n  tag_15\n  jump\t// in\ntag_93:\n    /* \"#utility.yul\":3675:3792   */\ntag_92:\n    /* \"#utility.yul\":3816:3890   */\n  tag_94\n    /* \"#utility.yul\":3882:3889   */\n  dup7\n    /* \"#utility.yul\":3873:3879   */\n  dup3\n    /* \"#utility.yul\":3862:3871   */\n  dup8\n    /* \"#utility.yul\":3858:3880   */\n  add\n    /* \"#utility.yul\":3816:3890   */\n  tag_25\n  jump\t// in\ntag_94:\n    /* \"#utility.yul\":3806:3890   */\n  swap3\n  pop\n    /* \"#utility.yul\":3608:3900   */\n  pop\n    /* \"#utility.yul\":3939:3941   */\n  0x40\n    /* \"#utility.yul\":3965:4029   */\n  tag_95\n    /* \"#utility.yul\":4021:4028   */\n  dup7\n    /* \"#utility.yul\":4012:4018   */\n  dup3\n    /* \"#utility.yul\":4001:4010   */\n  dup8\n    /* \"#utility.yul\":3997:4019   */\n  add\n    /* \"#utility.yul\":3965:4029   */\n  tag_28\n  jump\t// in\ntag_95:\n    /* \"#utility.yul\":3955:4029   */\n  swap2\n  pop\n    /* \"#utility.yul\":3910:4039   */\n  pop\n    /* \"#utility.yul\":3037:4046   */\n  swap3\n  pop\n  swap3\n  pop\n  swap3\n  jump\t// out\n    /* \"#utility.yul\":4052:4151   */\ntag_29:\n    /* \"#utility.yul\":4104:4110   */\n  0x00\n    /* \"#utility.yul\":4138:4143   */\n  dup2\n    /* \"#utility.yul\":4132:4144   */\n  mload\n    /* \"#utility.yul\":4122:4144   */\n  swap1\n  pop\n    /* \"#utility.yul\":4052:4151   */\n  swap2\n  swap1\n  pop\n  jump\t// out\n    /* \"#utility.yul\":4157:4337   */\ntag_30:\n    /* \"#utility.yul\":4205:4282   */\n  0x4e487b7100000000000000000000000000000000000000000000000000000000\n    /* \"#utility.yul\":4202:4203   */\n  0x00\n    /* \"#utility.yul\":4195:4283   */\n  mstore\n    /* \"#utility.yul\":4302:4306   */\n  0x22\n    /* \"#utility.yul\":4299:4300   */\n  0x04\n    /* \"#utility.yul\":4292:4307   */\n  mstore\n    /* \"#utility.yul\":4326:4330   */\n  0x24\n    /* \"#utility.yul\":4323:4324   */\n  0x00\n    /* \"#utility.yul\":4316:4331   */\n  revert\n    /* \"#utility.yul\":4343:4663   */\ntag_31:\n    /* \"#utility.yul\":4387:4393   */\n  0x00\n    /* \"#utility.yul\":4424:4425   */\n  0x02\n    /* \"#utility.yul\":4418:4422   */\n  dup3\n    /* \"#utility.yul\":4414:4426   */\n  div\n    /* \"#utility.yul\":4404:4426   */\n  swap1\n  pop\n    /* \"#utility.yul\":4471:4472   */\n  0x01\n    /* \"#utility.yul\":4465:4469   */\n  dup3\n    /* \"#utility.yul\":4461:4473   */\n  and\n    /* \"#utility.yul\":4492:4510   */\n  dup1\n    /* \"#utility.yul\":4482:4563   */\n  tag_99\n  jumpi\n    /* \"#utility.yul\":4548:4552   */\n  0x7f\n    /* \"#utility.yul\":4540:4546   */\n  dup3\n    /* \"#utility.yul\":4536:4553   */\n  and\n    /* \"#utility.yul\":4526:4553   */\n  swap2\n  pop\n    /* \"#utility.yul\":4482:4563   */\ntag_99:\n    /* \"#utility.yul\":4610:4612   */\n  0x20\n    /* \"#utility.yul\":4602:4608   */\n  dup3\n    /* \"#utility.yul\":4599:4613   */\n  lt\n    /* \"#utility.yul\":4579:4597   */\n  dup2\n    /* \"#utility.yul\":4576:4614   */\n  sub\n    /* \"#utility.yul\":4573:4657   */\n  tag_100\n  jumpi\n    /* \"#utility.yul\":4629:4647   */\n  tag_101\n  tag_30\n  jump\t// in\ntag_101:\n    /* \"#utility.yul\":4573:4657   */\ntag_100:\n    /* \"#utility.yul\":4394:4663   */\n  pop\n    /* \"#utility.yul\":4343:4663   */\n  swap2\n  swap1\n  pop\n  jump\t// out\n    /* \"#utility.yul\":4669:4810   */\ntag_32:\n    /* \"#utility.yul\":4718:4722   */\n  0x00\n    /* \"#utility.yul\":4741:4744   */\n  dup2\n    /* \"#utility.yul\":4733:4744   */\n  swap1\n  pop\n    /* \"#utility.yul\":4764:4767   */\n  dup2\n    /* \"#utility.yul\":4761:4762   */\n  0x00\n    /* \"#utility.yul\":4754:4768   */\n  mstore\n    /* \"#utility.yul\":4798:4802   */\n  0x20\n    /* \"#utility.yul\":4795:4796   */\n  0x00\n    /* \"#utility.yul\":4785:4803   */\n  keccak256\n    /* \"#utility.yul\":4777:4803   */\n  swap1\n  pop\n    /* \"#utility.yul\":4669:4810   */\n  swap2\n  swap1\n  pop\n  jump\t// out\n    /* \"#utility.yul\":4816:4909   */\ntag_33:\n    /* \"#utility.yul\":4853:4859   */\n  0x00\n    /* \"#utility.yul\":4900:4902   */\n  0x20\n    /* \"#utility.yul\":4895:4897   */\n  0x1f\n    /* \"#utility.yul\":4888:4893   */\n  dup4\n    /* \"#utility.yul\":4884:4898   */\n  add\n    /* \"#utility.yul\":4880:4903   */\n  div\n    /* \"#utility.yul\":4870:4903   */\n  swap1\n  pop\n    /* \"#utility.yul\":4816:4909   */\n  swap2\n  swap1\n  pop\n  jump\t// out\n    /* \"#utility.yul\":4915:5022   */\ntag_34:\n    /* \"#utility.yul\":4959:4967   */\n  0x00\n    /* \"#utility.yul\":5009:5014   */\n  dup3\n    /* \"#utility.yul\":5003:5007   */\n  dup3\n    /* \"#utility.yul\":4999:5015   */\n  shl\n    /* \"#utility.yul\":4978:5015   */\n  swap1\n  pop\n    /* \"#utility.yul\":4915:5022   */\n  swap3\n  swap2\n  pop\n  pop\n  jump\t// out\n    /* \"#utility.yul\":5028:5421   */\ntag_35:\n    /* \"#utility.yul\":5097:5103   */\n  0x00\n    /* \"#utility.yul\":5147:5148   */\n  0x08\n    /* \"#utility.yul\":5135:5145   */\n  dup4\n    /* \"#utility.yul\":5131:5149   */\n  mul\n    /* \"#utility.yul\":5170:5267   */\n  tag_106\n    /* \"#utility.yul\":5200:5266   */\n  0xffffffffffffffffffffffffffffffffffffffffffffffffffffffffffffffff\n    /* \"#utility.yul\":5189:5198   */\n  dup3\n    /* \"#utility.yul\":5170:5267   */\n  tag_34\n  jump\t// in\ntag_106:\n    /* \"#utility.yul\":5288:5327   */\n  tag_107\n    /* \"#utility.yul\":5318:5326   */\n  dup7\n    /* \"#utility.yul\":5307:5316   */\n  dup4\n    /* \"#utility.yul\":5288:5327   */\n  tag_34\n  jump\t// in\ntag_107:\n    /* \"#utility.yul\":5276:5327   */\n  swap6\n  pop\n    /* \"#utility.yul\":5360:5364   */\n  dup1\n    /* \"#utility.yul\":5356:5365   */\n  not\n    /* \"#utility.yul\":5349:5354   */\n  dup5\n    /* \"#utility.yul\":5345:5366   */\n  and\n    /* \"#utility.yul\":5336:5366   */\n  swap4\n  pop\n    /* \"#utility.yul\":5409:5413   */\n  dup1\n    /* \"#utility.yul\":5399:5407   */\n  dup7\n    /* \"#utility.yul\":5395:5414   */\n  and\n    /* \"#utility.yul\":5388:5393   */\n  dup5\n    /* \"#utility.yul\":5385:5415   */\n  or\n    /* \"#utility.yul\":5375:5415   */\n  swap3\n  pop\n    /* \"#utility.yul\":5104:5421   */\n  pop\n  pop\n    /* \"#utility.yul\":5028:5421   */\n  swap4\n  swap3\n  pop\n  pop\n  pop\n  jump\t// out\n    /* \"#utility.yul\":5427:5487   */\ntag_36:\n    /* \"#utility.yul\":5455:5458   */\n  0x00\n    /* \"#utility.yul\":5476:5481   */\n  dup2\n    /* \"#utility.yul\":5469:5481   */\n  swap1\n  pop\n    /* \"#utility.yul\":5427:5487   */\n  swap2\n  swap1\n  pop\n  jump\t// out\n    /* \"#utility.yul\":5493:5635   */\ntag_37:\n    /* \"#utility.yul\":5543:5552   */\n  0x00\n    /* \"#utility.yul\":5576:5629   */\n  tag_110\n    /* \"#utility.yul\":5594:5628   */\n  tag_111\n    /* \"#utility.yul\":5603:5627   */\n  tag_112\n    /* \"#utility.yul\":5621:5626   */\n  dup5\n    /* \"#utility.yul\":5603:5627   */\n  tag_26\n  jump\t// in\ntag_112:\n    /* \"#utility.yul\":5594:5628   */\n  tag_36\n  jump\t// in\ntag_111:\n    /* \"#utility.yul\":5576:5629   */\n  tag_26\n  jump\t// in\ntag_110:\n    /* \"#utility.yul\":5563:5629   */\n  swap1\n  pop\n    /* \"#utility.yul\":5493:5635   */\n  swap2\n  swap1\n  pop\n  jump\t// out\n    /* \"#utility.yul\":5641:5716   */\ntag_38:\n    /* \"#utility.yul\":5684:5687   */\n  0x00\n    /* \"#utility.yul\":5705:5710   */\n  dup2\n    /* \"#utility.yul\":5698:5710   */\n  swap1\n  pop\n    /* \"#utility.yul\":5641:5716   */\n  swap2\n  swap1\n  pop\n  jump\t// out\n    /* \"#utility.yul\":5722:5991   */\ntag_39:\n    /* \"#utility.yul\":5832:5871   */\n  tag_115\n    /* \"#utility.yul\":5863:5870   */\n  dup4\n    /* \"#utility.yul\":5832:5871   */\n  tag_37\n  jump\t// in\ntag_115:\n    /* \"#utility.yul\":5893:5984   */\n  tag_116\n    /* \"#utility.yul\":5942:5983   */\n  tag_117\n    /* \"#utility.yul\":5966:5982   */\n  dup3\n    /* \"#utility.yul\":5942:5983   */\n  tag_38\n  jump\t// in\ntag_117:\n    /* \"#utility.yul\":5934:5940   */\n  dup5\n    /* \"#utility.yul\":5927:5931   */\n  dup5\n    /* \"#utility.yul\":5921:5932   */\n  sload\n    /* \"#utility.yul\":5893:5984   */\n  tag_35\n  jump\t// in\ntag_116:\n    /* \"#utility.yul\":5887:5891   */\n  dup3\n    /* \"#utility.yul\":5880:5985   */\n  sstore\n    /* \"#utility.yul\":5798:5991   */\n  pop\n    /* \"#utility.yul\":5722:5991   */\n  pop\n  pop\n  pop\n  jump\t// out\n    /* \"#utility.yul\":5997:6070   */\ntag_40:\n    /* \"#utility.yul\":6042:6045   */\n  0x00\n    /* \"#utility.yul\":5997:6070   */\n  swap1\n  jump\t// out\n    /* \"#utility.yul\":6076:6265   */\ntag_41:\n    /* \"#utility.yul\":6153:6185   */\n  tag_120\n  tag_40\n  jump\t// in\ntag_120:\n    /* \"#utility.yul\":6194:6259   */\n  tag_121\n    /* \"#utility.yul\":6252:6258   */\n  dup2\n    /* \"#utility.yul\":6244:6250   */\n  dup5\n    /* \"#utility.yul\":6238:6242   */\n  dup5\n    /* \"#utility.yul\":6194:6259   */\n  tag_39\n  jump\t// in\ntag_121:\n    /* \"#utility.yul\":6129:6265   */\n  pop\n    /* \"#utility.yul\":6076:6265   */\n  pop\n  pop\n  jump\t// out\n    /* \"#utility.yul\":6271:6457   */\ntag_42:\n    /* \"#utility.yul\":6331:6451   */\ntag_123:\n    /* \"#utility.yul\":6348:6351   */\n  dup2\n    /* \"#utility.yul\":6341:6346   */\n  dup2\n    /* \"#utility.yul\":6338:6352   */\n  lt\n    /* \"#utility.yul\":6331:6451   */\n  iszero\n  tag_125\n  jumpi\n    /* \"#utility.yul\":6402:6441   */\n  tag_126\n    /* \"#utility.yul\":6439:6440   */\n  0x00\n    /* \"#utility.yul\":6432:6437   */\n  dup3\n    /* \"#utility.yul\":6402:6441   */\n  tag_41\n  jump\t// in\ntag_126:\n    /* \"#utility.yul\":6375:6376   */\n  0x01\n    /* \"#utility.yul\":6368:6373   */\n  dup2\n    /* \"#utility.yul\":6364:6377   */\n  add\n    /* \"#utility.yul\":6355:6377   */\n  swap1\n  pop\n    /* \"#utility.yul\":6331:6451   */\n  jump(tag_123)\ntag_125:\n    /* \"#utility.yul\":6271:6457   */\n  pop\n  pop\n  jump\t// out\n    /* \"#utility.yul\":6463:7006   */\ntag_43:\n    /* \"#utility.yul\":6564:6566   */\n  0x1f\n    /* \"#utility.yul\":6559:6562   */\n  dup3\n    /* \"#utility.yul\":6556:6567   */\n  gt\n    /* \"#utility.yul\":6553:6999   */\n  iszero\n  tag_128\n  jumpi\n    /* \"#utility.yul\":6598:6636   */\n  tag_129\n    /* \"#utility.yul\":6630:6635   */\n  dup2\n    /* \"#utility.yul\":6598:6636   */\n  tag_32\n  jump\t// in\ntag_129:\n    /* \"#utility.yul\":6682:6711   */\n  tag_130\n    /* \"#utility.yul\":6700:6710   */\n  dup5\n    /* \"#utility.yul\":6682:6711   */\n  tag_33\n  jump\t// in\ntag_130:\n    /* \"#utility.yul\":6672:6680   */\n  dup2\n    /* \"#utility.yul\":6668:6712   */\n  add\n    /* \"#utility.yul\":6865:6867   */\n  0x20\n    /* \"#utility.yul\":6853:6863   */\n  dup6\n    /* \"#utility.yul\":6850:6868   */\n  lt\n    /* \"#utility.yul\":6847:6896   */\n  iszero\n  tag_131\n  jumpi\n    /* \"#utility.yul\":6886:6894   */\n  dup2\n    /* \"#utility.yul\":6871:6894   */\n  swap1\n  pop\n    /* \"#utility.yul\":6847:6896   */\ntag_131:\n    /* \"#utility.yul\":6909:6989   */\n  tag_132\n    /* \"#utility.yul\":6965:6987   */\n  tag_133\n    /* \"#utility.yul\":6983:6986   */\n  dup6\n    /* \"#utility.yul\":6965:6987   */\n  tag_33\n  jump\t// in\ntag_133:\n    /* \"#utility.yul\":6955:6963   */\n  dup4\n    /* \"#utility.yul\":6951:6988   */\n  add\n    /* \"#utility.yul\":6938:6949   */\n  dup3\n    /* \"#utility.yul\":6909:6989   */\n  tag_42\n  jump\t// in\ntag_132:\n    /* \"#utility.yul\":6568:6999   */\n  pop\n  pop\n    /* \"#utility.yul\":6553:6999   */\ntag_128:\n    /* \"#utility.yul\":6463:7006   */\n  pop\n  pop\n  pop\n  jump\t// out\n    /* \"#utility.yul\":7012:7129   */\ntag_44:\n    /* \"#utility.yul\":7066:7074   */\n  0x00\n    /* \"#utility.yul\":7116:7121   */\n  dup3\n    /* \"#utility.yul\":7110:7114   */\n  dup3\n    /* \"#utility.yul\":7106:7122   */\n  shr\n    /* \"#utility.yul\":7085:7122   */\n  swap1\n  pop\n    /* \"#utility.yul\":7012:7129   */\n  swap3\n  swap2\n  pop\n  pop\n  jump\t// out\n    /* \"#utility.yul\":7135:7304   */\ntag_45:\n    /* \"#utility.yul\":7179:7185   */\n  0x00\n    /* \"#utility.yul\":7212:7263   */\n  tag_136\n    /* \"#utility.yul\":7260:7261   */\n  0x00\n    /* \"#utility.yul\":7256:7262   */\n  not\n    /* \"#utility.yul\":7248:7253   */\n  dup5\n    /* \"#utility.yul\":7245:7246   */\n  0x08\n    /* \"#utility.yul\":7241:7254   */\n  mul\n    /* \"#utility.yul\":7212:7263   */\n  tag_44\n  jump\t// in\ntag_136:\n    /* \"#utility.yul\":7208:7264   */\n  not\n    /* \"#utility.yul\":7293:7297   */\n  dup1\n    /* \"#utility.yul\":7287:7291   */\n  dup4\n    /* \"#utility.yul\":7283:7298   */\n  and\n    /* \"#utility.yul\":7273:7298   */\n  swap2\n  pop\n    /* \"#utility.yul\":7186:7304   */\n  pop\n    /* \"#utility.yul\":7135:7304   */\n  swap3\n  swap2\n  pop\n  pop\n  jump\t// out\n    /* \"#utility.yul\":7309:7604   */\ntag_46:\n    /* \"#utility.yul\":7385:7389   */\n  0x00\n    /* \"#utility.yul\":7531:7560   */\n  tag_138\n    /* \"#utility.yul\":7556:7559   */\n  dup4\n    /* \"#utility.yul\":7550:7554   */\n  dup4\n    /* \"#utility.yul\":7531:7560   */\n  tag_45\n  jump\t// in\ntag_138:\n    /* \"#utility.yul\":7523:7560   */\n  swap2\n  pop\n    /* \"#utility.yul\":7593:7596   */\n  dup3\n    /* \"#utility.yul\":7590:7591   */\n  0x02\n    /* \"#utility.yul\":7586:7597   */\n  mul\n    /* \"#utility.yul\":7580:7584   */\n  dup3\n    /* \"#utility.yul\":7577:7598   */\n  or\n    /* \"#utility.yul\":7569:7598   */\n  swap1\n  pop\n    /* \"#utility.yul\":7309:7604   */\n  swap3\n  swap2\n  pop\n  pop\n  jump\t// out\n    /* \"#utility.yul\":7609:9004   */\ntag_7:\n    /* \"#utility.yul\":7726:7763   */\n  tag_140\n    /* \"#utility.yul\":7759:7762   */\n  dup3\n    /* \"#utility.yul\":7726:7763   */\n  tag_29\n  jump\t// in\ntag_140:\n    /* \"#utility.yul\":7828:7846   */\n  0xffffffffffffffff\n    /* \"#utility.yul\":7820:7826   */\n  dup2\n    /* \"#utility.yul\":7817:7847   */\n  gt\n    /* \"#utility.yul\":7814:7870   */\n  iszero\n  tag_141\n  jumpi\n    /* \"#utility.yul\":7850:7868   */\n  tag_142\n  tag_19\n  jump\t// in\ntag_142:\n    /* \"#utility.yul\":7814:7870   */\ntag_141:\n    /* \"#utility.yul\":7894:7932   */\n  tag_143\n    /* \"#utility.yul\":7926:7930   */\n  dup3\n    /* \"#utility.yul\":7920:7931   */\n  sload\n    /* \"#utility.yul\":7894:7932   */\n  tag_31\n  jump\t// in\ntag_143:\n    /* \"#utility.yul\":7979:8046   */\n  tag_144\n    /* \"#utility.yul\":8039:8045   */\n  dup3\n    /* \"#utility.yul\":8031:8037   */\n  dup3\n    /* \"#utility.yul\":8025:8029   */\n  dup6\n    /* \"#utility.yul\":7979:8046   */\n  tag_43\n  jump\t// in\ntag_144:\n    /* \"#utility.yul\":8073:8074   */\n  0x00\n    /* \"#utility.yul\":8097:8101   */\n  0x20\n    /* \"#utility.yul\":8084:8101   */\n  swap1\n  pop\n    /* \"#utility.yul\":8129:8131   */\n  0x1f\n    /* \"#utility.yul\":8121:8127   */\n  dup4\n    /* \"#utility.yul\":8118:8132   */\n  gt\n    /* \"#utility.yul\":8146:8147   */\n  0x01\n    /* \"#utility.yul\":8141:8759   */\n  dup2\n  eq\n  tag_146\n  jumpi\n    /* \"#utility.yul\":8803:8804   */\n  0x00\n    /* \"#utility.yul\":8820:8826   */\n  dup5\n    /* \"#utility.yul\":8817:8894   */\n  iszero\n  tag_147\n  jumpi\n    /* \"#utility.yul\":8869:8878   */\n  dup3\n    /* \"#utility.yul\":8864:8867   */\n  dup8\n    /* \"#utility.yul\":8860:8879   */\n  add\n    /* \"#utility.yul\":8854:8880   */\n  mload\n    /* \"#utility.yul\":8845:8880   */\n  swap1\n  pop\n    /* \"#utility.yul\":8817:8894   */\ntag_147:\n    /* \"#utility.yul\":8920:8987   */\n  tag_148\n    /* \"#utility.yul\":8980:8986   */\n  dup6\n    /* \"#utility.yul\":8973:8978   */\n  dup3\n    /* \"#utility.yul\":8920:8987   */\n  tag_46\n  jump\t// in\ntag_148:\n    /* \"#utility.yul\":8914:8918   */\n  dup7\n    /* \"#utility.yul\":8907:8988   */\n  sstore\n    /* \"#utility.yul\":8776:8998   */\n  pop\n    /* \"#utility.yul\":8111:8998   */\n  jump(tag_145)\n    /* \"#utility.yul\":8141:8759   */\ntag_146:\n    /* \"#utility.yul\":8193:8197   */\n  0x1f\n    /* \"#utility.yul\":8189:8198   */\n  not\n    /* \"#utility.yul\":8181:8187   */\n  dup5\n    /* \"#utility.yul\":8177:8199   */\n  and\n    /* \"#utility.yul\":8227:8264   */\n  tag_149\n    /* \"#utility.yul\":8259:8263   */\n  dup7\n    /* \"#utility.yul\":8227:8264   */\n  tag_32\n  jump\t// in\ntag_149:\n    /* \"#utility.yul\":8286:8287   */\n  0x00\n    /* \"#utility.yul\":8300:8508   */\ntag_150:\n    /* \"#utility.yul\":8314:8321   */\n  dup3\n    /* \"#utility.yul\":8311:8312   */\n  dup2\n    /* \"#utility.yul\":8308:8322   */\n  lt\n    /* \"#utility.yul\":8300:8508   */\n  iszero\n  tag_152\n  jumpi\n    /* \"#utility.yul\":8393:8402   */\n  dup5\n    /* \"#utility.yul\":8388:8391   */\n  dup10\n    /* \"#utility.yul\":8384:8403   */\n  add\n    /* \"#utility.yul\":8378:8404   */\n  mload\n    /* \"#utility.yul\":8370:8376   */\n  dup3\n    /* \"#utility.yul\":8363:8405   */\n  sstore\n    /* \"#utility.yul\":8444:8445   */\n  0x01\n    /* \"#utility.yul\":8436:8442   */\n  dup3\n    /* \"#utility.yul\":8432:8446   */\n  add\n    /* \"#utility.yul\":8422:8446   */\n  swap2\n  pop\n    /* \"#utility.yul\":8491:8493   */\n  0x20\n    /* \"#utility.yul\":8480:8489   */\n  dup6\n    /* \"#utility.yul\":8476:8494   */\n  add\n    /* \"#utility.yul\":8463:8494   */\n  swap5\n  pop\n    /* \"#utility.yul\":8337:8341   */\n  0x20\n    /* \"#utility.yul\":8334:8335   */\n  dup2\n    /* \"#utility.yul\":8330:8342   */\n  add\n    /* \"#utility.yul\":8325:8342   */\n  swap1\n  pop\n    /* \"#utility.yul\":8300:8508   */\n  jump(tag_150)\ntag_152:\n    /* \"#utility.yul\":8536:8542   */\n  dup7\n    /* \"#utility.yul\":8527:8534   */\n  dup4\n    /* \"#utility.yul\":8524:8543   */\n  lt\n    /* \"#utility.yul\":8521:8700   */\n  iszero\n  tag_153\n  jumpi\n    /* \"#utility.yul\":8594:8603   */\n  dup5\n    /* \"#utility.yul\":8589:8592   */\n  dup10\n    /* \"#utility.yul\":8585:8604   */\n  add\n    /* \"#utility.yul\":8579:8605   */\n  mload\n    /* \"#utility.yul\":8637:8685   */\n  tag_154\n    /* \"#utility.yul\":8679:8683   */\n  0x1f\n    /* \"#utility.yul\":8671:8677   */\n  dup10\n    /* \"#utility.yul\":8667:8684   */\n  and\n    /* \"#utility.yul\":8656:8665   */\n  dup3\n    /* \"#utility.yul\":8637:8685   */\n  tag_45\n  jump\t// in\ntag_154:\n    /* \"#utility.yul\":8629:8635   */\n  dup4\n    /* \"#utility.yul\":8622:8686   */\n  sstore\n    /* \"#utility.yul\":8544:8700   */\n  pop\n    /* \"#utility.yul\":8521:8700   */\ntag_153:\n    /* \"#utility.yul\":8746:8747   */\n  0x01\n    /* \"#utility.yul\":8742:8743   */\n  0x02\n    /* \"#utility.yul\":8734:8740   */\n  dup9\n    /* \"#utility.yul\":8730:8744   */\n  mul\n    /* \"#utility.yul\":8726:8748   */\n  add\n    /* \"#utility.yul\":8720:8724   */\n  dup9\n    /* \"#utility.yul\":8713:8749   */\n  sstore\n    /* \"#utility.yul\":8148:8759   */\n  pop\n  pop\n  pop\n    /* \"#utility.yul\":8111:8998   */\ntag_145:\n  pop\n    /* \"#utility.yul\":7701:9004   */\n  pop\n  pop\n  pop\n    /* \"#utility.yul\":7609:9004   */\n  pop\n  pop\n  jump\t// out\n    /* \"Dcoffer/ERC721A/test.sol\":1033:24152  contract ERC721A is Context, ERC165, IERC721A,mine {... */\ntag_11:\n  dataSize(sub_0)\n  dup1\n  dataOffset(sub_0)\n  0x00\n  codecopy\n  0x00\n  return\nstop\n\nsub_0: assembly {\n        /* \"Dcoffer/ERC721A/test.sol\":1033:24152  contract ERC721A is Context, ERC165, IERC721A,mine {... */\n      mstore(0x40, 0x80)\n      callvalue\n      dup1\n      iszero\n      tag_1\n      jumpi\n      0x00\n      dup1\n      revert\n    tag_1:\n      pop\n      jumpi(tag_2, lt(calldatasize, 0x04))\n      shr(0xe0, calldataload(0x00))\n      dup1\n      0x922a526c\n      gt\n      tag_23\n      jumpi\n      dup1\n      0xc87b56dd\n      gt\n      tag_24\n      jumpi\n      dup1\n      0xc87b56dd\n      eq\n      tag_18\n      jumpi\n      dup1\n      0xd5abeb01\n      eq\n      tag_19\n      jumpi\n      dup1\n      0xdb3ad22c\n      eq\n      tag_20\n      jumpi\n      dup1\n      0xe985e9c5\n      eq\n      tag_21\n      jumpi\n      dup1\n      0xf390c328\n      eq\n      tag_22\n      jumpi\n      jump(tag_2)\n    tag_24:\n      dup1\n      0x922a526c\n      eq\n      tag_13\n      jumpi\n      dup1\n      0x95d89b41\n      eq\n      tag_14\n      jumpi\n      dup1\n      0xa22cb465\n      eq\n      tag_15\n      jumpi\n      dup1\n      0xb88d4fde\n      eq\n      tag_16\n      jumpi\n      dup1\n      0xb8ba6007\n      eq\n      tag_17\n      jumpi\n      jump(tag_2)\n    tag_23:\n      dup1\n      0x23b872dd\n      gt\n      tag_25\n      jumpi\n      dup1\n      0x23b872dd\n      eq\n      tag_8\n      jumpi\n      dup1\n      0x42842e0e\n      eq\n      tag_9\n      jumpi\n      dup1\n      0x4be3403c\n      eq\n      tag_10\n      jumpi\n      dup1\n      0x6352211e\n      eq\n      tag_11\n      jumpi\n      dup1\n      0x70a08231\n      eq\n      tag_12\n      jumpi\n      jump(tag_2)\n    tag_25:\n      dup1\n      0x01ffc9a7\n      eq\n      tag_3\n      jumpi\n      dup1\n      0x06fdde03\n      eq\n      tag_4\n      jumpi\n      dup1\n      0x081812fc\n      eq\n      tag_5\n      jumpi\n      dup1\n      0x095ea7b3\n      eq\n      tag_6\n      jumpi\n      dup1\n      0x18160ddd\n      eq\n      tag_7\n      jumpi\n    tag_2:\n      0x00\n      dup1\n      revert\n        /* \"Dcoffer/ERC721A/test.sol\":5724:6029  function supportsInterface(bytes4 interfaceId) public view virtual override(ERC165, IERC165) returns (bool) {... */\n    tag_3:\n      tag_26\n      0x04\n      dup1\n      calldatasize\n      sub\n      dup2\n      add\n      swap1\n      tag_27\n      swap2\n      swap1\n      tag_28\n      jump\t// in\n    tag_27:\n      tag_29\n      jump\t// in\n    tag_26:\n      mload(0x40)\n      tag_30\n      swap2\n      swap1\n      tag_31\n      jump\t// in\n    tag_30:\n      mload(0x40)\n      dup1\n      swap2\n      sub\n      swap1\n      return\n        /* \"Dcoffer/ERC721A/test.sol\":8840:8940  function name() public view virtual override returns (string memory) {... */\n    tag_4:\n      tag_32\n      tag_33\n      jump\t// in\n    tag_32:\n      mload(0x40)\n      tag_34\n      swap2\n      swap1\n      tag_35\n      jump\t// in\n    tag_34:\n      mload(0x40)\n      dup1\n      swap2\n      sub\n      swap1\n      return\n        /* \"Dcoffer/ERC721A/test.sol\":10435:10639  function getApproved(uint256 tokenId) public view override returns (address) {... */\n    tag_5:\n      tag_36\n      0x04\n      dup1\n      calldatasize\n      sub\n      dup2\n      add\n      swap1\n      tag_37\n      swap2\n      swap1\n      tag_38\n      jump\t// in\n    tag_37:\n      tag_39\n      jump\t// in\n    tag_36:\n      mload(0x40)\n      tag_40\n      swap2\n      swap1\n      tag_41\n      jump\t// in\n    tag_40:\n      mload(0x40)\n      dup1\n      swap2\n      sub\n      swap1\n      return\n        /* \"Dcoffer/ERC721A/test.sol\":9997:10369  function approve(address to, uint256 tokenId) public override {... */\n    tag_6:\n      tag_42\n      0x04\n      dup1\n      calldatasize\n      sub\n      dup2\n      add\n      swap1\n      tag_43\n      swap2\n      swap1\n      tag_44\n      jump\t// in\n    tag_43:\n      tag_45\n      jump\t// in\n    tag_42:\n      stop\n        /* \"Dcoffer/ERC721A/test.sol\":4447:4759  function totalSupply() public view override returns (uint256) {... */\n    tag_7:\n      tag_46\n      tag_47\n      jump\t// in\n    tag_46:\n      mload(0x40)\n      tag_48\n      swap2\n      swap1\n      tag_49\n      jump\t// in\n    tag_48:\n      mload(0x40)\n      dup1\n      swap2\n      sub\n      swap1\n      return\n        /* \"Dcoffer/ERC721A/test.sol\":11300:11470  function transferFrom(... */\n    tag_8:\n      tag_50\n      0x04\n      dup1\n      calldatasize\n      sub\n      dup2\n      add\n      swap1\n      tag_51\n      swap2\n      swap1\n      tag_52\n      jump\t// in\n    tag_51:\n      tag_53\n      jump\t// in\n    tag_50:\n      stop\n        /* \"Dcoffer/ERC721A/test.sol\":11541:11726  function safeTransferFrom(... */\n    tag_9:\n      tag_54\n      0x04\n      dup1\n      calldatasize\n      sub\n      dup2\n      add\n      swap1\n      tag_55\n      swap2\n      swap1\n      tag_52\n      jump\t// in\n    tag_55:\n      tag_56\n      jump\t// in\n    tag_54:\n      stop\n        /* \"Dcoffer/ERC721A/test.sol\":3415:3807  function blockStatus (uint256 _BlockNumber)public view override returns (uint256){... */\n    tag_10:\n      tag_57\n      0x04\n      dup1\n      calldatasize\n      sub\n      dup2\n      add\n      swap1\n      tag_58\n      swap2\n      swap1\n      tag_38\n      jump\t// in\n    tag_58:\n      tag_59\n      jump\t// in\n    tag_57:\n      mload(0x40)\n      tag_60\n      swap2\n      swap1\n      tag_49\n      jump\t// in\n    tag_60:\n      mload(0x40)\n      dup1\n      swap2\n      sub\n      swap1\n      return\n        /* \"Dcoffer/ERC721A/test.sol\":8648:8773  function ownerOf(uint256 tokenId) public view override returns (address) {... */\n    tag_11:\n      tag_61\n      0x04\n      dup1\n      calldatasize\n      sub\n      dup2\n      add\n      swap1\n      tag_62\n      swap2\n      swap1\n      tag_38\n      jump\t// in\n    tag_62:\n      tag_63\n      jump\t// in\n    tag_61:\n      mload(0x40)\n      tag_64\n      swap2\n      swap1\n      tag_41\n      jump\t// in\n    tag_64:\n      mload(0x40)\n      dup1\n      swap2\n      sub\n      swap1\n      return\n        /* \"Dcoffer/ERC721A/test.sol\":6093:6299  function balanceOf(address owner) public view override returns (uint256) {... */\n    tag_12:\n      tag_65\n      0x04\n      dup1\n      calldatasize\n      sub\n      dup2\n      add\n      swap1\n      tag_66\n      swap2\n      swap1\n      tag_67\n      jump\t// in\n    tag_66:\n      tag_68\n      jump\t// in\n    tag_65:\n      mload(0x40)\n      tag_69\n      swap2\n      swap1\n      tag_49\n      jump\t// in\n    tag_69:\n      mload(0x40)\n      dup1\n      swap2\n      sub\n      swap1\n      return\n        /* \"Dcoffer/ERC721A/test.sol\":5093:5276  function mineInfo(uint256 a, uint256 b) public view  returns (uint256) {       ... */\n    tag_13:\n      tag_70\n      0x04\n      dup1\n      calldatasize\n      sub\n      dup2\n      add\n      swap1\n      tag_71\n      swap2\n      swap1\n      tag_72\n      jump\t// in\n    tag_71:\n      tag_73\n      jump\t// in\n    tag_70:\n      mload(0x40)\n      tag_74\n      swap2\n      swap1\n      tag_49\n      jump\t// in\n    tag_74:\n      mload(0x40)\n      dup1\n      swap2\n      sub\n      swap1\n      return\n        /* \"Dcoffer/ERC721A/test.sol\":9009:9113  function symbol() public view virtual override returns (string memory) {... */\n    tag_14:\n      tag_75\n      tag_76\n      jump\t// in\n    tag_75:\n      mload(0x40)\n      tag_77\n      swap2\n      swap1\n      tag_35\n      jump\t// in\n    tag_77:\n      mload(0x40)\n      dup1\n      swap2\n      sub\n      swap1\n      return\n        /* \"Dcoffer/ERC721A/test.sol\":10711:10998  function setApprovalForAll(address operator, bool approved) public virtual override {... */\n    tag_15:\n      tag_78\n      0x04\n      dup1\n      calldatasize\n      sub\n      dup2\n      add\n      swap1\n      tag_79\n      swap2\n      swap1\n      tag_80\n      jump\t// in\n    tag_79:\n      tag_81\n      jump\t// in\n    tag_78:\n      stop\n        /* \"Dcoffer/ERC721A/test.sol\":11797:12167  function safeTransferFrom(... */\n    tag_16:\n      tag_82\n      0x04\n      dup1\n      calldatasize\n      sub\n      dup2\n      add\n      swap1\n      tag_83\n      swap2\n      swap1\n      tag_84\n      jump\t// in\n    tag_83:\n      tag_85\n      jump\t// in\n    tag_82:\n      stop\n        /* \"Dcoffer/ERC721A/test.sol\":2800:3344  function MineStatus(address user)public view override returns(uint256){... */\n    tag_17:\n      tag_86\n      0x04\n      dup1\n      calldatasize\n      sub\n      dup2\n      add\n      swap1\n      tag_87\n      swap2\n      swap1\n      tag_67\n      jump\t// in\n    tag_87:\n      tag_88\n      jump\t// in\n    tag_86:\n      mload(0x40)\n      tag_89\n      swap2\n      swap1\n      tag_49\n      jump\t// in\n    tag_89:\n      mload(0x40)\n      dup1\n      swap2\n      sub\n      swap1\n      return\n        /* \"Dcoffer/ERC721A/test.sol\":9184:9502  function tokenURI(uint256 tokenId) public view virtual override returns (string memory) {... */\n    tag_18:\n      tag_90\n      0x04\n      dup1\n      calldatasize\n      sub\n      dup2\n      add\n      swap1\n      tag_91\n      swap2\n      swap1\n      tag_38\n      jump\t// in\n    tag_91:\n      tag_92\n      jump\t// in\n    tag_90:\n      mload(0x40)\n      tag_93\n      swap2\n      swap1\n      tag_35\n      jump\t// in\n    tag_93:\n      mload(0x40)\n      dup1\n      swap2\n      sub\n      swap1\n      return\n        /* \"Dcoffer/ERC721A/test.sol\":4912:5076  function maxSupply() public view  returns (uint256) {       ... */\n    tag_19:\n      tag_94\n      tag_95\n      jump\t// in\n    tag_94:\n      mload(0x40)\n      tag_96\n      swap2\n      swap1\n      tag_49\n      jump\t// in\n    tag_96:\n      mload(0x40)\n      dup1\n      swap2\n      sub\n      swap1\n      return\n        /* \"Dcoffer/ERC721A/test.sol\":4769:4902  function totalPower() public view  returns (uint256) {       ... */\n    tag_20:\n      tag_97\n      tag_98\n      jump\t// in\n    tag_97:\n      mload(0x40)\n      tag_99\n      swap2\n      swap1\n      tag_49\n      jump\t// in\n    tag_99:\n      mload(0x40)\n      dup1\n      swap2\n      sub\n      swap1\n      return\n        /* \"Dcoffer/ERC721A/test.sol\":11069:11233  function isApprovedForAll(address owner, address operator) public view virtual override returns (bool) {... */\n    tag_21:\n      tag_100\n      0x04\n      dup1\n      calldatasize\n      sub\n      dup2\n      add\n      swap1\n      tag_101\n      swap2\n      swap1\n      tag_102\n      jump\t// in\n    tag_101:\n      tag_103\n      jump\t// in\n    tag_100:\n      mload(0x40)\n      tag_104\n      swap2\n      swap1\n      tag_31\n      jump\t// in\n    tag_104:\n      mload(0x40)\n      dup1\n      swap2\n      sub\n      swap1\n      return\n        /* \"Dcoffer/ERC721A/test.sol\":3824:4103  function DcofferPower (uint256 tokenId)public view override returns(uint256){... */\n    tag_22:\n      tag_105\n      0x04\n      dup1\n      calldatasize\n      sub\n      dup2\n      add\n      swap1\n      tag_106\n      swap2\n      swap1\n      tag_38\n      jump\t// in\n    tag_106:\n      tag_107\n      jump\t// in\n    tag_105:\n      mload(0x40)\n      tag_108\n      swap2\n      swap1\n      tag_49\n      jump\t// in\n    tag_108:\n      mload(0x40)\n      dup1\n      swap2\n      sub\n      swap1\n      return\n        /* \"Dcoffer/ERC721A/test.sol\":5724:6029  function supportsInterface(bytes4 interfaceId) public view virtual override(ERC165, IERC165) returns (bool) {... */\n    tag_29:\n        /* \"Dcoffer/ERC721A/test.sol\":5826:5830  bool */\n      0x00\n        /* \"Dcoffer/ERC721A/test.sol\":5878:5903  type(IERC721).interfaceId */\n      0x80ac58cd00000000000000000000000000000000000000000000000000000000\n        /* \"Dcoffer/ERC721A/test.sol\":5863:5903  interfaceId == type(IERC721).interfaceId */\n      not(0xffffffffffffffffffffffffffffffffffffffffffffffffffffffff)\n      and\n        /* \"Dcoffer/ERC721A/test.sol\":5863:5874  interfaceId */\n      dup3\n        /* \"Dcoffer/ERC721A/test.sol\":5863:5903  interfaceId == type(IERC721).interfaceId */\n      not(0xffffffffffffffffffffffffffffffffffffffffffffffffffffffff)\n      and\n      eq\n        /* \"Dcoffer/ERC721A/test.sol\":5863:5968  interfaceId == type(IERC721).interfaceId ||... */\n      dup1\n      tag_110\n      jumpi\n      pop\n        /* \"Dcoffer/ERC721A/test.sol\":5935:5968  type(IERC721Metadata).interfaceId */\n      0x5b5e139f00000000000000000000000000000000000000000000000000000000\n        /* \"Dcoffer/ERC721A/test.sol\":5920:5968  interfaceId == type(IERC721Metadata).interfaceId */\n      not(0xffffffffffffffffffffffffffffffffffffffffffffffffffffffff)\n      and\n        /* \"Dcoffer/ERC721A/test.sol\":5920:5931  interfaceId */\n      dup3\n        /* \"Dcoffer/ERC721A/test.sol\":5920:5968  interfaceId == type(IERC721Metadata).interfaceId */\n      not(0xffffffffffffffffffffffffffffffffffffffffffffffffffffffff)\n      and\n      eq\n        /* \"Dcoffer/ERC721A/test.sol\":5863:5968  interfaceId == type(IERC721).interfaceId ||... */\n    tag_110:\n        /* \"Dcoffer/ERC721A/test.sol\":5863:6021  interfaceId == type(IERC721).interfaceId ||... */\n      dup1\n      tag_111\n      jumpi\n      pop\n        /* \"Dcoffer/ERC721A/test.sol\":5985:6021  super.supportsInterface(interfaceId) */\n      tag_112\n        /* \"Dcoffer/ERC721A/test.sol\":6009:6020  interfaceId */\n      dup3\n        /* \"Dcoffer/ERC721A/test.sol\":5985:6008  super.supportsInterface */\n      tag_113\n        /* \"Dcoffer/ERC721A/test.sol\":5985:6021  super.supportsInterface(interfaceId) */\n      jump\t// in\n    tag_112:\n        /* \"Dcoffer/ERC721A/test.sol\":5863:6021  interfaceId == type(IERC721).interfaceId ||... */\n    tag_111:\n        /* \"Dcoffer/ERC721A/test.sol\":5843:6021  return... */\n      swap1\n      pop\n        /* \"Dcoffer/ERC721A/test.sol\":5724:6029  function supportsInterface(bytes4 interfaceId) public view virtual override(ERC165, IERC165) returns (bool) {... */\n      swap2\n      swap1\n      pop\n      jump\t// out\n        /* \"Dcoffer/ERC721A/test.sol\":8840:8940  function name() public view virtual override returns (string memory) {... */\n    tag_33:\n        /* \"Dcoffer/ERC721A/test.sol\":8894:8907  string memory */\n      0x60\n        /* \"Dcoffer/ERC721A/test.sol\":8927:8932  _name */\n      0x07\n        /* \"Dcoffer/ERC721A/test.sol\":8920:8932  return _name */\n      dup1\n      sload\n      tag_115\n      swap1\n      tag_116\n      jump\t// in\n    tag_115:\n      dup1\n      0x1f\n      add\n      0x20\n      dup1\n      swap2\n      div\n      mul\n      0x20\n      add\n      mload(0x40)\n      swap1\n      dup2\n      add\n      0x40\n      mstore\n      dup1\n      swap3\n      swap2\n      swap1\n      dup2\n      dup2\n      mstore\n      0x20\n      add\n      dup3\n      dup1\n      sload\n      tag_117\n      swap1\n      tag_116\n      jump\t// in\n    tag_117:\n      dup1\n      iszero\n      tag_118\n      jumpi\n      dup1\n      0x1f\n      lt\n      tag_119\n      jumpi\n      0x0100\n      dup1\n      dup4\n      sload\n      div\n      mul\n      dup4\n      mstore\n      swap2\n      0x20\n      add\n      swap2\n      jump(tag_118)\n    tag_119:\n      dup3\n      add\n      swap2\n      swap1\n      0x00\n      mstore\n      keccak256(0x00, 0x20)\n      swap1\n    tag_120:\n      dup2\n      sload\n      dup2\n      mstore\n      swap1\n      0x01\n      add\n      swap1\n      0x20\n      add\n      dup1\n      dup4\n      gt\n      tag_120\n      jumpi\n      dup3\n      swap1\n      sub\n      0x1f\n      and\n      dup3\n      add\n      swap2\n    tag_118:\n      pop\n      pop\n      pop\n      pop\n      pop\n      swap1\n      pop\n        /* \"Dcoffer/ERC721A/test.sol\":8840:8940  function name() public view virtual override returns (string memory) {... */\n      swap1\n      jump\t// out\n        /* \"Dcoffer/ERC721A/test.sol\":10435:10639  function getApproved(uint256 tokenId) public view override returns (address) {... */\n    tag_39:\n        /* \"Dcoffer/ERC721A/test.sol\":10503:10510  address */\n      0x00\n        /* \"Dcoffer/ERC721A/test.sol\":10528:10544  _exists(tokenId) */\n      tag_122\n        /* \"Dcoffer/ERC721A/test.sol\":10536:10543  tokenId */\n      dup3\n        /* \"Dcoffer/ERC721A/test.sol\":10528:10535  _exists */\n      tag_123\n        /* \"Dcoffer/ERC721A/test.sol\":10528:10544  _exists(tokenId) */\n      jump\t// in\n    tag_122:\n        /* \"Dcoffer/ERC721A/test.sol\":10523:10587  if (!_exists(tokenId)) revert ApprovalQueryForNonexistentToken() */\n      tag_124\n      jumpi\n        /* \"Dcoffer/ERC721A/test.sol\":10553:10587  ApprovalQueryForNonexistentToken() */\n      mload(0x40)\n      0xcf4700e400000000000000000000000000000000000000000000000000000000\n      dup2\n      mstore\n      0x04\n      add\n      mload(0x40)\n      dup1\n      swap2\n      sub\n      swap1\n      revert\n        /* \"Dcoffer/ERC721A/test.sol\":10523:10587  if (!_exists(tokenId)) revert ApprovalQueryForNonexistentToken() */\n    tag_124:\n        /* \"Dcoffer/ERC721A/test.sol\":10607:10622  _tokenApprovals */\n      0x0b\n        /* \"Dcoffer/ERC721A/test.sol\":10607:10631  _tokenApprovals[tokenId] */\n      0x00\n        /* \"Dcoffer/ERC721A/test.sol\":10623:10630  tokenId */\n      dup4\n        /* \"Dcoffer/ERC721A/test.sol\":10607:10631  _tokenApprovals[tokenId] */\n      dup2\n      mstore\n      0x20\n      add\n      swap1\n      dup2\n      mstore\n      0x20\n      add\n      0x00\n      keccak256\n      0x00\n      swap1\n      sload\n      swap1\n      0x0100\n      exp\n      swap1\n      div\n      0xffffffffffffffffffffffffffffffffffffffff\n      and\n        /* \"Dcoffer/ERC721A/test.sol\":10600:10631  return _tokenApprovals[tokenId] */\n      swap1\n      pop\n        /* \"Dcoffer/ERC721A/test.sol\":10435:10639  function getApproved(uint256 tokenId) public view override returns (address) {... */\n      swap2\n      swap1\n      pop\n      jump\t// out\n        /* \"Dcoffer/ERC721A/test.sol\":9997:10369  function approve(address to, uint256 tokenId) public override {... */\n    tag_45:\n        /* \"Dcoffer/ERC721A/test.sol\":10070:10083  address owner */\n      0x00\n        /* \"Dcoffer/ERC721A/test.sol\":10086:10110  ERC721A.ownerOf(tokenId) */\n      tag_126\n        /* \"Dcoffer/ERC721A/test.sol\":10102:10109  tokenId */\n      dup3\n        /* \"Dcoffer/ERC721A/test.sol\":10086:10101  ERC721A.ownerOf */\n      tag_63\n        /* \"Dcoffer/ERC721A/test.sol\":10086:10110  ERC721A.ownerOf(tokenId) */\n      jump\t// in\n    tag_126:\n        /* \"Dcoffer/ERC721A/test.sol\":10070:10110  address owner = ERC721A.ownerOf(tokenId) */\n      swap1\n      pop\n        /* \"Dcoffer/ERC721A/test.sol\":10131:10136  owner */\n      dup1\n        /* \"Dcoffer/ERC721A/test.sol\":10125:10136  to == owner */\n      0xffffffffffffffffffffffffffffffffffffffff\n      and\n        /* \"Dcoffer/ERC721A/test.sol\":10125:10127  to */\n      dup4\n        /* \"Dcoffer/ERC721A/test.sol\":10125:10136  to == owner */\n      0xffffffffffffffffffffffffffffffffffffffff\n      and\n      sub\n        /* \"Dcoffer/ERC721A/test.sol\":10121:10169  if (to == owner) revert ApprovalToCurrentOwner() */\n      tag_127\n      jumpi\n        /* \"Dcoffer/ERC721A/test.sol\":10145:10169  ApprovalToCurrentOwner() */\n      mload(0x40)\n      0x943f7b8c00000000000000000000000000000000000000000000000000000000\n      dup2\n      mstore\n      0x04\n      add\n      mload(0x40)\n      dup1\n      swap2\n      sub\n      swap1\n      revert\n        /* \"Dcoffer/ERC721A/test.sol\":10121:10169  if (to == owner) revert ApprovalToCurrentOwner() */\n    tag_127:\n        /* \"Dcoffer/ERC721A/test.sol\":10202:10207  owner */\n      dup1\n        /* \"Dcoffer/ERC721A/test.sol\":10186:10207  _msgSender() != owner */\n      0xffffffffffffffffffffffffffffffffffffffff\n      and\n        /* \"Dcoffer/ERC721A/test.sol\":10186:10198  _msgSender() */\n      tag_128\n        /* \"Dcoffer/ERC721A/test.sol\":10186:10196  _msgSender */\n      tag_129\n        /* \"Dcoffer/ERC721A/test.sol\":10186:10198  _msgSender() */\n      jump\t// in\n    tag_128:\n        /* \"Dcoffer/ERC721A/test.sol\":10186:10207  _msgSender() != owner */\n      0xffffffffffffffffffffffffffffffffffffffff\n      and\n      eq\n        /* \"Dcoffer/ERC721A/test.sol\":10182:10321  if (_msgSender() != owner) if(!isApprovedForAll(owner, _msgSender())) {... */\n      tag_130\n      jumpi\n        /* \"Dcoffer/ERC721A/test.sol\":10213:10250  isApprovedForAll(owner, _msgSender()) */\n      tag_131\n        /* \"Dcoffer/ERC721A/test.sol\":10230:10235  owner */\n      dup2\n        /* \"Dcoffer/ERC721A/test.sol\":10237:10249  _msgSender() */\n      tag_132\n        /* \"Dcoffer/ERC721A/test.sol\":10237:10247  _msgSender */\n      tag_129\n        /* \"Dcoffer/ERC721A/test.sol\":10237:10249  _msgSender() */\n      jump\t// in\n    tag_132:\n        /* \"Dcoffer/ERC721A/test.sol\":10213:10229  isApprovedForAll */\n      tag_103\n        /* \"Dcoffer/ERC721A/test.sol\":10213:10250  isApprovedForAll(owner, _msgSender()) */\n      jump\t// in\n    tag_131:\n        /* \"Dcoffer/ERC721A/test.sol\":10209:10321  if(!isApprovedForAll(owner, _msgSender())) {... */\n      tag_133\n      jumpi\n        /* \"Dcoffer/ERC721A/test.sol\":10274:10309  ApprovalCallerNotOwnerNorApproved() */\n      mload(0x40)\n      0xcfb3b94200000000000000000000000000000000000000000000000000000000\n      dup2\n      mstore\n      0x04\n      add\n      mload(0x40)\n      dup1\n      swap2\n      sub\n      swap1\n      revert\n        /* \"Dcoffer/ERC721A/test.sol\":10209:10321  if(!isApprovedForAll(owner, _msgSender())) {... */\n    tag_133:\n        /* \"Dcoffer/ERC721A/test.sol\":10182:10321  if (_msgSender() != owner) if(!isApprovedForAll(owner, _msgSender())) {... */\n    tag_130:\n        /* \"Dcoffer/ERC721A/test.sol\":10333:10361  _approve(to, tokenId, owner) */\n      tag_134\n        /* \"Dcoffer/ERC721A/test.sol\":10342:10344  to */\n      dup4\n        /* \"Dcoffer/ERC721A/test.sol\":10346:10353  tokenId */\n      dup4\n        /* \"Dcoffer/ERC721A/test.sol\":10355:10360  owner */\n      dup4\n        /* \"Dcoffer/ERC721A/test.sol\":10333:10341  _approve */\n      tag_135\n        /* \"Dcoffer/ERC721A/test.sol\":10333:10361  _approve(to, tokenId, owner) */\n      jump\t// in\n    tag_134:\n        /* \"Dcoffer/ERC721A/test.sol\":10059:10369  {... */\n      pop\n        /* \"Dcoffer/ERC721A/test.sol\":9997:10369  function approve(address to, uint256 tokenId) public override {... */\n      pop\n      pop\n      jump\t// out\n        /* \"Dcoffer/ERC721A/test.sol\":4447:4759  function totalSupply() public view override returns (uint256) {... */\n    tag_47:\n        /* \"Dcoffer/ERC721A/test.sol\":4500:4507  uint256 */\n      0x00\n        /* \"Dcoffer/ERC721A/test.sol\":4725:4740  _startTokenId() */\n      tag_137\n        /* \"Dcoffer/ERC721A/test.sol\":4725:4738  _startTokenId */\n      tag_138\n        /* \"Dcoffer/ERC721A/test.sol\":4725:4740  _startTokenId() */\n      jump\t// in\n    tag_137:\n        /* \"Dcoffer/ERC721A/test.sol\":4710:4722  _burnCounter */\n      sload(0x06)\n        /* \"Dcoffer/ERC721A/test.sol\":4694:4707  _currentIndex */\n      sload(0x04)\n        /* \"Dcoffer/ERC721A/test.sol\":4694:4722  _currentIndex - _burnCounter */\n      sub\n        /* \"Dcoffer/ERC721A/test.sol\":4694:4740  _currentIndex - _burnCounter - _startTokenId() */\n      sub\n        /* \"Dcoffer/ERC721A/test.sol\":4687:4740  return _currentIndex - _burnCounter - _startTokenId() */\n      swap1\n      pop\n        /* \"Dcoffer/ERC721A/test.sol\":4447:4759  function totalSupply() public view override returns (uint256) {... */\n      swap1\n      jump\t// out\n        /* \"Dcoffer/ERC721A/test.sol\":11300:11470  function transferFrom(... */\n    tag_53:\n        /* \"Dcoffer/ERC721A/test.sol\":11434:11462  _transfer(from, to, tokenId) */\n      tag_140\n        /* \"Dcoffer/ERC721A/test.sol\":11444:11448  from */\n      dup4\n        /* \"Dcoffer/ERC721A/test.sol\":11450:11452  to */\n      dup4\n        /* \"Dcoffer/ERC721A/test.sol\":11454:11461  tokenId */\n      dup4\n        /* \"Dcoffer/ERC721A/test.sol\":11434:11443  _transfer */\n      tag_141\n        /* \"Dcoffer/ERC721A/test.sol\":11434:11462  _transfer(from, to, tokenId) */\n      jump\t// in\n    tag_140:\n        /* \"Dcoffer/ERC721A/test.sol\":11300:11470  function transferFrom(... */\n      pop\n      pop\n      pop\n      jump\t// out\n        /* \"Dcoffer/ERC721A/test.sol\":11541:11726  function safeTransferFrom(... */\n    tag_56:\n        /* \"Dcoffer/ERC721A/test.sol\":11679:11718  safeTransferFrom(from, to, tokenId, '') */\n      tag_143\n        /* \"Dcoffer/ERC721A/test.sol\":11696:11700  from */\n      dup4\n        /* \"Dcoffer/ERC721A/test.sol\":11702:11704  to */\n      dup4\n        /* \"Dcoffer/ERC721A/test.sol\":11706:11713  tokenId */\n      dup4\n        /* \"Dcoffer/ERC721A/test.sol\":11679:11718  safeTransferFrom(from, to, tokenId, '') */\n      mload(0x40)\n      dup1\n      0x20\n      add\n      0x40\n      mstore\n      dup1\n      0x00\n      dup2\n      mstore\n      pop\n        /* \"Dcoffer/ERC721A/test.sol\":11679:11695  safeTransferFrom */\n      tag_85\n        /* \"Dcoffer/ERC721A/test.sol\":11679:11718  safeTransferFrom(from, to, tokenId, '') */\n      jump\t// in\n    tag_143:\n        /* \"Dcoffer/ERC721A/test.sol\":11541:11726  function safeTransferFrom(... */\n      pop\n      pop\n      pop\n      jump\t// out\n        /* \"Dcoffer/ERC721A/test.sol\":3415:3807  function blockStatus (uint256 _BlockNumber)public view override returns (uint256){... */\n    tag_59:\n        /* \"Dcoffer/ERC721A/test.sol\":3488:3495  uint256 */\n      0x00\n        /* \"Dcoffer/ERC721A/test.sol\":3525:3542  _startBlockNumber */\n      sload(0x02)\n        /* \"Dcoffer/ERC721A/test.sol\":3510:3522  _BlockNumber */\n      dup3\n        /* \"Dcoffer/ERC721A/test.sol\":3510:3542  _BlockNumber < _startBlockNumber */\n      lt\n        /* \"Dcoffer/ERC721A/test.sol\":3507:3602  if(_BlockNumber < _startBlockNumber){... */\n      iszero\n      tag_145\n      jumpi\n        /* \"Dcoffer/ERC721A/test.sol\":3573:3590  _startBlockNumber */\n      sload(0x02)\n        /* \"Dcoffer/ERC721A/test.sol\":3558:3590  _BlockNumber = _startBlockNumber */\n      swap2\n      pop\n        /* \"Dcoffer/ERC721A/test.sol\":3507:3602  if(_BlockNumber < _startBlockNumber){... */\n    tag_145:\n        /* \"Dcoffer/ERC721A/test.sol\":3612:3631  uint256 DCFperBlock */\n      0x00\n        /* \"Dcoffer/ERC721A/test.sol\":3634:3656  _DCFperBlock.mul(1e18) */\n      tag_146\n        /* \"Dcoffer/ERC721A/test.sol\":3651:3655  1e18 */\n      0x0de0b6b3a7640000\n        /* \"Dcoffer/ERC721A/test.sol\":3634:3646  _DCFperBlock */\n      sload(0x01)\n        /* \"Dcoffer/ERC721A/test.sol\":3634:3650  _DCFperBlock.mul */\n      tag_147\n      swap1\n        /* \"Dcoffer/ERC721A/test.sol\":3634:3656  _DCFperBlock.mul(1e18) */\n      swap2\n      swap1\n      0xffffffff\n      and\n      jump\t// in\n    tag_146:\n        /* \"Dcoffer/ERC721A/test.sol\":3612:3656  uint256 DCFperBlock = _DCFperBlock.mul(1e18) */\n      swap1\n      pop\n        /* \"Dcoffer/ERC721A/test.sol\":3678:3687  uint256 b */\n      0x00\n        /* \"Dcoffer/ERC721A/test.sol\":3690:3735  _BlockNumber.mul(1e18).div(_startBlockNumber) */\n      tag_148\n        /* \"Dcoffer/ERC721A/test.sol\":3717:3734  _startBlockNumber */\n      sload(0x02)\n        /* \"Dcoffer/ERC721A/test.sol\":3690:3712  _BlockNumber.mul(1e18) */\n      tag_149\n        /* \"Dcoffer/ERC721A/test.sol\":3707:3711  1e18 */\n      0x0de0b6b3a7640000\n        /* \"Dcoffer/ERC721A/test.sol\":3690:3702  _BlockNumber */\n      dup8\n        /* \"Dcoffer/ERC721A/test.sol\":3690:3706  _BlockNumber.mul */\n      tag_147\n      swap1\n        /* \"Dcoffer/ERC721A/test.sol\":3690:3712  _BlockNumber.mul(1e18) */\n      swap2\n      swap1\n      0xffffffff\n      and\n      jump\t// in\n    tag_149:\n        /* \"Dcoffer/ERC721A/test.sol\":3690:3716  _BlockNumber.mul(1e18).div */\n      tag_150\n      swap1\n        /* \"Dcoffer/ERC721A/test.sol\":3690:3735  _BlockNumber.mul(1e18).div(_startBlockNumber) */\n      swap2\n      swap1\n      0xffffffff\n      and\n      jump\t// in\n    tag_148:\n        /* \"Dcoffer/ERC721A/test.sol\":3678:3735  uint256 b = _BlockNumber.mul(1e18).div(_startBlockNumber) */\n      swap1\n      pop\n        /* \"Dcoffer/ERC721A/test.sol\":3746:3755  uint256 c */\n      0x00\n        /* \"Dcoffer/ERC721A/test.sol\":3758:3776  DCFperBlock.div(b) */\n      tag_151\n        /* \"Dcoffer/ERC721A/test.sol\":3774:3775  b */\n      dup3\n        /* \"Dcoffer/ERC721A/test.sol\":3758:3769  DCFperBlock */\n      dup5\n        /* \"Dcoffer/ERC721A/test.sol\":3758:3773  DCFperBlock.div */\n      tag_150\n      swap1\n        /* \"Dcoffer/ERC721A/test.sol\":3758:3776  DCFperBlock.div(b) */\n      swap2\n      swap1\n      0xffffffff\n      and\n      jump\t// in\n    tag_151:\n        /* \"Dcoffer/ERC721A/test.sol\":3746:3776  uint256 c = DCFperBlock.div(b) */\n      swap1\n      pop\n        /* \"Dcoffer/ERC721A/test.sol\":3794:3795  c */\n      dup1\n        /* \"Dcoffer/ERC721A/test.sol\":3787:3795  return c */\n      swap4\n      pop\n      pop\n      pop\n      pop\n        /* \"Dcoffer/ERC721A/test.sol\":3415:3807  function blockStatus (uint256 _BlockNumber)public view override returns (uint256){... */\n      swap2\n      swap1\n      pop\n      jump\t// out\n        /* \"Dcoffer/ERC721A/test.sol\":8648:8773  function ownerOf(uint256 tokenId) public view override returns (address) {... */\n    tag_63:\n        /* \"Dcoffer/ERC721A/test.sol\":8712:8719  address */\n      0x00\n        /* \"Dcoffer/ERC721A/test.sol\":8739:8760  _ownershipOf(tokenId) */\n      tag_153\n        /* \"Dcoffer/ERC721A/test.sol\":8752:8759  tokenId */\n      dup3\n        /* \"Dcoffer/ERC721A/test.sol\":8739:8751  _ownershipOf */\n      tag_154\n        /* \"Dcoffer/ERC721A/test.sol\":8739:8760  _ownershipOf(tokenId) */\n      jump\t// in\n    tag_153:\n        /* \"Dcoffer/ERC721A/test.sol\":8739:8765  _ownershipOf(tokenId).addr */\n      0x00\n      add\n      mload\n        /* \"Dcoffer/ERC721A/test.sol\":8732:8765  return _ownershipOf(tokenId).addr */\n      swap1\n      pop\n        /* \"Dcoffer/ERC721A/test.sol\":8648:8773  function ownerOf(uint256 tokenId) public view override returns (address) {... */\n      swap2\n      swap1\n      pop\n      jump\t// out\n        /* \"Dcoffer/ERC721A/test.sol\":6093:6299  function balanceOf(address owner) public view override returns (uint256) {... */\n    tag_68:\n        /* \"Dcoffer/ERC721A/test.sol\":6157:6164  uint256 */\n      0x00\n        /* \"Dcoffer/ERC721A/test.sol\":6198:6199  0 */\n      dup1\n        /* \"Dcoffer/ERC721A/test.sol\":6181:6200  owner == address(0) */\n      0xffffffffffffffffffffffffffffffffffffffff\n      and\n        /* \"Dcoffer/ERC721A/test.sol\":6181:6186  owner */\n      dup3\n        /* \"Dcoffer/ERC721A/test.sol\":6181:6200  owner == address(0) */\n      0xffffffffffffffffffffffffffffffffffffffff\n      and\n      sub\n        /* \"Dcoffer/ERC721A/test.sol\":6177:6237  if (owner == address(0)) revert BalanceQueryForZeroAddress() */\n      tag_156\n      jumpi\n        /* \"Dcoffer/ERC721A/test.sol\":6209:6237  BalanceQueryForZeroAddress() */\n      mload(0x40)\n      0x8f4eb60400000000000000000000000000000000000000000000000000000000\n      dup2\n      mstore\n      0x04\n      add\n      mload(0x40)\n      dup1\n      swap2\n      sub\n      swap1\n      revert\n        /* \"Dcoffer/ERC721A/test.sol\":6177:6237  if (owner == address(0)) revert BalanceQueryForZeroAddress() */\n    tag_156:\n        /* \"Dcoffer/ERC721A/test.sol\":6263:6275  _addressData */\n      0x0a\n        /* \"Dcoffer/ERC721A/test.sol\":6263:6282  _addressData[owner] */\n      0x00\n        /* \"Dcoffer/ERC721A/test.sol\":6276:6281  owner */\n      dup4\n        /* \"Dcoffer/ERC721A/test.sol\":6263:6282  _addressData[owner] */\n      0xffffffffffffffffffffffffffffffffffffffff\n      and\n      0xffffffffffffffffffffffffffffffffffffffff\n      and\n      dup2\n      mstore\n      0x20\n      add\n      swap1\n      dup2\n      mstore\n      0x20\n      add\n      0x00\n      keccak256\n        /* \"Dcoffer/ERC721A/test.sol\":6263:6290  _addressData[owner].balance */\n      0x00\n      add\n      0x00\n      swap1\n      sload\n      swap1\n      0x0100\n      exp\n      swap1\n      div\n      0xffffffffffffffff\n      and\n        /* \"Dcoffer/ERC721A/test.sol\":6255:6291  uint256(_addressData[owner].balance) */\n      0xffffffffffffffff\n      and\n        /* \"Dcoffer/ERC721A/test.sol\":6248:6291  return uint256(_addressData[owner].balance) */\n      swap1\n      pop\n        /* \"Dcoffer/ERC721A/test.sol\":6093:6299  function balanceOf(address owner) public view override returns (uint256) {... */\n      swap2\n      swap1\n      pop\n      jump\t// out\n        /* \"Dcoffer/ERC721A/test.sol\":5093:5276  function mineInfo(uint256 a, uint256 b) public view  returns (uint256) {       ... */\n    tag_73:\n        /* \"Dcoffer/ERC721A/test.sol\":5155:5162  uint256 */\n      0x00\n        /* \"Dcoffer/ERC721A/test.sol\":5242:5257  _startTokenId() */\n      tag_158\n        /* \"Dcoffer/ERC721A/test.sol\":5242:5255  _startTokenId */\n      tag_138\n        /* \"Dcoffer/ERC721A/test.sol\":5242:5257  _startTokenId() */\n      jump\t// in\n    tag_158:\n        /* \"Dcoffer/ERC721A/test.sol\":5227:5239  _burnCounter */\n      sload(0x06)\n        /* \"Dcoffer/ERC721A/test.sol\":5214:5224  _maxSupply */\n      sload(0x05)\n        /* \"Dcoffer/ERC721A/test.sol\":5214:5239  _maxSupply - _burnCounter */\n      sub\n        /* \"Dcoffer/ERC721A/test.sol\":5214:5257  _maxSupply - _burnCounter - _startTokenId() */\n      sub\n        /* \"Dcoffer/ERC721A/test.sol\":5207:5257  return _maxSupply - _burnCounter - _startTokenId() */\n      swap1\n      pop\n        /* \"Dcoffer/ERC721A/test.sol\":5093:5276  function mineInfo(uint256 a, uint256 b) public view  returns (uint256) {       ... */\n      swap3\n      swap2\n      pop\n      pop\n      jump\t// out\n        /* \"Dcoffer/ERC721A/test.sol\":9009:9113  function symbol() public view virtual override returns (string memory) {... */\n    tag_76:\n        /* \"Dcoffer/ERC721A/test.sol\":9065:9078  string memory */\n      0x60\n        /* \"Dcoffer/ERC721A/test.sol\":9098:9105  _symbol */\n      0x08\n        /* \"Dcoffer/ERC721A/test.sol\":9091:9105  return _symbol */\n      dup1\n      sload\n      tag_160\n      swap1\n      tag_116\n      jump\t// in\n    tag_160:\n      dup1\n      0x1f\n      add\n      0x20\n      dup1\n      swap2\n      div\n      mul\n      0x20\n      add\n      mload(0x40)\n      swap1\n      dup2\n      add\n      0x40\n      mstore\n      dup1\n      swap3\n      swap2\n      swap1\n      dup2\n      dup2\n      mstore\n      0x20\n      add\n      dup3\n      dup1\n      sload\n      tag_161\n      swap1\n      tag_116\n      jump\t// in\n    tag_161:\n      dup1\n      iszero\n      tag_162\n      jumpi\n      dup1\n      0x1f\n      lt\n      tag_163\n      jumpi\n      0x0100\n      dup1\n      dup4\n      sload\n      div\n      mul\n      dup4\n      mstore\n      swap2\n      0x20\n      add\n      swap2\n      jump(tag_162)\n    tag_163:\n      dup3\n      add\n      swap2\n      swap1\n      0x00\n      mstore\n      keccak256(0x00, 0x20)\n      swap1\n    tag_164:\n      dup2\n      sload\n      dup2\n      mstore\n      swap1\n      0x01\n      add\n      swap1\n      0x20\n      add\n      dup1\n      dup4\n      gt\n      tag_164\n      jumpi\n      dup3\n      swap1\n      sub\n      0x1f\n      and\n      dup3\n      add\n      swap2\n    tag_162:\n      pop\n      pop\n      pop\n      pop\n      pop\n      swap1\n      pop\n        /* \"Dcoffer/ERC721A/test.sol\":9009:9113  function symbol() public view virtual override returns (string memory) {... */\n      swap1\n      jump\t// out\n        /* \"Dcoffer/ERC721A/test.sol\":10711:10998  function setApprovalForAll(address operator, bool approved) public virtual override {... */\n    tag_81:\n        /* \"Dcoffer/ERC721A/test.sol\":10822:10834  _msgSender() */\n      tag_166\n        /* \"Dcoffer/ERC721A/test.sol\":10822:10832  _msgSender */\n      tag_129\n        /* \"Dcoffer/ERC721A/test.sol\":10822:10834  _msgSender() */\n      jump\t// in\n    tag_166:\n        /* \"Dcoffer/ERC721A/test.sol\":10810:10834  operator == _msgSender() */\n      0xffffffffffffffffffffffffffffffffffffffff\n      and\n        /* \"Dcoffer/ERC721A/test.sol\":10810:10818  operator */\n      dup3\n        /* \"Dcoffer/ERC721A/test.sol\":10810:10834  operator == _msgSender() */\n      0xffffffffffffffffffffffffffffffffffffffff\n      and\n      sub\n        /* \"Dcoffer/ERC721A/test.sol\":10806:10860  if (operator == _msgSender()) revert ApproveToCaller() */\n      tag_167\n      jumpi\n        /* \"Dcoffer/ERC721A/test.sol\":10843:10860  ApproveToCaller() */\n      mload(0x40)\n      0xb06307db00000000000000000000000000000000000000000000000000000000\n      dup2\n      mstore\n      0x04\n      add\n      mload(0x40)\n      dup1\n      swap2\n      sub\n      swap1\n      revert\n        /* \"Dcoffer/ERC721A/test.sol\":10806:10860  if (operator == _msgSender()) revert ApproveToCaller() */\n    tag_167:\n        /* \"Dcoffer/ERC721A/test.sol\":10918:10926  approved */\n      dup1\n        /* \"Dcoffer/ERC721A/test.sol\":10873:10891  _operatorApprovals */\n      0x0c\n        /* \"Dcoffer/ERC721A/test.sol\":10873:10905  _operatorApprovals[_msgSender()] */\n      0x00\n        /* \"Dcoffer/ERC721A/test.sol\":10892:10904  _msgSender() */\n      tag_168\n        /* \"Dcoffer/ERC721A/test.sol\":10892:10902  _msgSender */\n      tag_129\n        /* \"Dcoffer/ERC721A/test.sol\":10892:10904  _msgSender() */\n      jump\t// in\n    tag_168:\n        /* \"Dcoffer/ERC721A/test.sol\":10873:10905  _operatorApprovals[_msgSender()] */\n      0xffffffffffffffffffffffffffffffffffffffff\n      and\n      0xffffffffffffffffffffffffffffffffffffffff\n      and\n      dup2\n      mstore\n      0x20\n      add\n      swap1\n      dup2\n      mstore\n      0x20\n      add\n      0x00\n      keccak256\n        /* \"Dcoffer/ERC721A/test.sol\":10873:10915  _operatorApprovals[_msgSender()][operator] */\n      0x00\n        /* \"Dcoffer/ERC721A/test.sol\":10906:10914  operator */\n      dup5\n        /* \"Dcoffer/ERC721A/test.sol\":10873:10915  _operatorApprovals[_msgSender()][operator] */\n      0xffffffffffffffffffffffffffffffffffffffff\n      and\n      0xffffffffffffffffffffffffffffffffffffffff\n      and\n      dup2\n      mstore\n      0x20\n      add\n      swap1\n      dup2\n      mstore\n      0x20\n      add\n      0x00\n      keccak256\n      0x00\n        /* \"Dcoffer/ERC721A/test.sol\":10873:10926  _operatorApprovals[_msgSender()][operator] = approved */\n      0x0100\n      exp\n      dup2\n      sload\n      dup2\n      0xff\n      mul\n      not\n      and\n      swap1\n      dup4\n      iszero\n      iszero\n      mul\n      or\n      swap1\n      sstore\n      pop\n        /* \"Dcoffer/ERC721A/test.sol\":10971:10979  operator */\n      dup2\n        /* \"Dcoffer/ERC721A/test.sol\":10942:10990  ApprovalForAll(_msgSender(), operator, approved) */\n      0xffffffffffffffffffffffffffffffffffffffff\n      and\n        /* \"Dcoffer/ERC721A/test.sol\":10957:10969  _msgSender() */\n      tag_169\n        /* \"Dcoffer/ERC721A/test.sol\":10957:10967  _msgSender */\n      tag_129\n        /* \"Dcoffer/ERC721A/test.sol\":10957:10969  _msgSender() */\n      jump\t// in\n    tag_169:\n        /* \"Dcoffer/ERC721A/test.sol\":10942:10990  ApprovalForAll(_msgSender(), operator, approved) */\n      0xffffffffffffffffffffffffffffffffffffffff\n      and\n      0x17307eab39ab6107e8899845ad3d59bd9653f200f220920489ca2b5937696c31\n        /* \"Dcoffer/ERC721A/test.sol\":10981:10989  approved */\n      dup4\n        /* \"Dcoffer/ERC721A/test.sol\":10942:10990  ApprovalForAll(_msgSender(), operator, approved) */\n      mload(0x40)\n      tag_170\n      swap2\n      swap1\n      tag_31\n      jump\t// in\n    tag_170:\n      mload(0x40)\n      dup1\n      swap2\n      sub\n      swap1\n      log3\n        /* \"Dcoffer/ERC721A/test.sol\":10711:10998  function setApprovalForAll(address operator, bool approved) public virtual override {... */\n      pop\n      pop\n      jump\t// out\n        /* \"Dcoffer/ERC721A/test.sol\":11797:12167  function safeTransferFrom(... */\n    tag_85:\n        /* \"Dcoffer/ERC721A/test.sol\":11964:11992  _transfer(from, to, tokenId) */\n      tag_172\n        /* \"Dcoffer/ERC721A/test.sol\":11974:11978  from */\n      dup5\n        /* \"Dcoffer/ERC721A/test.sol\":11980:11982  to */\n      dup5\n        /* \"Dcoffer/ERC721A/test.sol\":11984:11991  tokenId */\n      dup5\n        /* \"Dcoffer/ERC721A/test.sol\":11964:11973  _transfer */\n      tag_141\n        /* \"Dcoffer/ERC721A/test.sol\":11964:11992  _transfer(from, to, tokenId) */\n      jump\t// in\n    tag_172:\n        /* \"Dcoffer/ERC721A/test.sol\":12007:12022  to.isContract() */\n      tag_173\n        /* \"Dcoffer/ERC721A/test.sol\":12007:12009  to */\n      dup4\n        /* \"Dcoffer/ERC721A/test.sol\":12007:12020  to.isContract */\n      0xffffffffffffffffffffffffffffffffffffffff\n      and\n      tag_174\n        /* \"Dcoffer/ERC721A/test.sol\":12007:12022  to.isContract() */\n      jump\t// in\n    tag_173:\n        /* \"Dcoffer/ERC721A/test.sol\":12003:12160  if (to.isContract()) if(!_checkContractOnERC721Received(from, to, tokenId, _data)) {... */\n      iszero\n      tag_175\n      jumpi\n        /* \"Dcoffer/ERC721A/test.sol\":12028:12084  _checkContractOnERC721Received(from, to, tokenId, _data) */\n      tag_176\n        /* \"Dcoffer/ERC721A/test.sol\":12059:12063  from */\n      dup5\n        /* \"Dcoffer/ERC721A/test.sol\":12065:12067  to */\n      dup5\n        /* \"Dcoffer/ERC721A/test.sol\":12069:12076  tokenId */\n      dup5\n        /* \"Dcoffer/ERC721A/test.sol\":12078:12083  _data */\n      dup5\n        /* \"Dcoffer/ERC721A/test.sol\":12028:12058  _checkContractOnERC721Received */\n      tag_177\n        /* \"Dcoffer/ERC721A/test.sol\":12028:12084  _checkContractOnERC721Received(from, to, tokenId, _data) */\n      jump\t// in\n    tag_176:\n        /* \"Dcoffer/ERC721A/test.sol\":12024:12160  if(!_checkContractOnERC721Received(from, to, tokenId, _data)) {... */\n      tag_178\n      jumpi\n        /* \"Dcoffer/ERC721A/test.sol\":12108:12148  TransferToNonERC721ReceiverImplementer() */\n      mload(0x40)\n      0xd1a57ed600000000000000000000000000000000000000000000000000000000\n      dup2\n      mstore\n      0x04\n      add\n      mload(0x40)\n      dup1\n      swap2\n      sub\n      swap1\n      revert\n        /* \"Dcoffer/ERC721A/test.sol\":12024:12160  if(!_checkContractOnERC721Received(from, to, tokenId, _data)) {... */\n    tag_178:\n        /* \"Dcoffer/ERC721A/test.sol\":12003:12160  if (to.isContract()) if(!_checkContractOnERC721Received(from, to, tokenId, _data)) {... */\n    tag_175:\n        /* \"Dcoffer/ERC721A/test.sol\":11797:12167  function safeTransferFrom(... */\n      pop\n      pop\n      pop\n      pop\n      jump\t// out\n        /* \"Dcoffer/ERC721A/test.sol\":2800:3344  function MineStatus(address user)public view override returns(uint256){... */\n    tag_88:\n        /* \"Dcoffer/ERC721A/test.sol\":2862:2869  uint256 */\n      0x00\n        /* \"Dcoffer/ERC721A/test.sol\":2881:2899  uint256 difference */\n      dup1\n        /* \"Dcoffer/ERC721A/test.sol\":2902:2938  block.number.sub(_mineInfo[user][1]) */\n      tag_180\n        /* \"Dcoffer/ERC721A/test.sol\":2919:2928  _mineInfo */\n      0x0d\n        /* \"Dcoffer/ERC721A/test.sol\":2919:2934  _mineInfo[user] */\n      0x00\n        /* \"Dcoffer/ERC721A/test.sol\":2929:2933  user */\n      dup6\n        /* \"Dcoffer/ERC721A/test.sol\":2919:2934  _mineInfo[user] */\n      0xffffffffffffffffffffffffffffffffffffffff\n      and\n      0xffffffffffffffffffffffffffffffffffffffff\n      and\n      dup2\n      mstore\n      0x20\n      add\n      swap1\n      dup2\n      mstore\n      0x20\n      add\n      0x00\n      keccak256\n        /* \"Dcoffer/ERC721A/test.sol\":2919:2937  _mineInfo[user][1] */\n      0x00\n        /* \"Dcoffer/ERC721A/test.sol\":2935:2936  1 */\n      0x01\n        /* \"Dcoffer/ERC721A/test.sol\":2919:2937  _mineInfo[user][1] */\n      dup2\n      mstore\n      0x20\n      add\n      swap1\n      dup2\n      mstore\n      0x20\n      add\n      0x00\n      keccak256\n      sload\n        /* \"Dcoffer/ERC721A/test.sol\":2902:2914  block.number */\n      number\n        /* \"Dcoffer/ERC721A/test.sol\":2902:2918  block.number.sub */\n      tag_181\n      swap1\n        /* \"Dcoffer/ERC721A/test.sol\":2902:2938  block.number.sub(_mineInfo[user][1]) */\n      swap2\n      swap1\n      0xffffffff\n      and\n      jump\t// in\n    tag_180:\n        /* \"Dcoffer/ERC721A/test.sol\":2881:2938  uint256 difference = block.number.sub(_mineInfo[user][1]) */\n      swap1\n      pop\n        /* \"Dcoffer/ERC721A/test.sol\":2949:2962  uint256 start */\n      0x00\n        /* \"Dcoffer/ERC721A/test.sol\":2965:2996  blockStatus(_mineInfo[user][1]) */\n      tag_182\n        /* \"Dcoffer/ERC721A/test.sol\":2977:2986  _mineInfo */\n      0x0d\n        /* \"Dcoffer/ERC721A/test.sol\":2977:2992  _mineInfo[user] */\n      0x00\n        /* \"Dcoffer/ERC721A/test.sol\":2987:2991  user */\n      dup7\n        /* \"Dcoffer/ERC721A/test.sol\":2977:2992  _mineInfo[user] */\n      0xffffffffffffffffffffffffffffffffffffffff\n      and\n      0xffffffffffffffffffffffffffffffffffffffff\n      and\n      dup2\n      mstore\n      0x20\n      add\n      swap1\n      dup2\n      mstore\n      0x20\n      add\n      0x00\n      keccak256\n        /* \"Dcoffer/ERC721A/test.sol\":2977:2995  _mineInfo[user][1] */\n      0x00\n        /* \"Dcoffer/ERC721A/test.sol\":2993:2994  1 */\n      0x01\n        /* \"Dcoffer/ERC721A/test.sol\":2977:2995  _mineInfo[user][1] */\n      dup2\n      mstore\n      0x20\n      add\n      swap1\n      dup2\n      mstore\n      0x20\n      add\n      0x00\n      keccak256\n      sload\n        /* \"Dcoffer/ERC721A/test.sol\":2965:2976  blockStatus */\n      tag_59\n        /* \"Dcoffer/ERC721A/test.sol\":2965:2996  blockStatus(_mineInfo[user][1]) */\n      jump\t// in\n    tag_182:\n        /* \"Dcoffer/ERC721A/test.sol\":2949:2996  uint256 start = blockStatus(_mineInfo[user][1]) */\n      swap1\n      pop\n        /* \"Dcoffer/ERC721A/test.sol\":3007:3018  uint256 end */\n      0x00\n        /* \"Dcoffer/ERC721A/test.sol\":3021:3046  blockStatus(block.number) */\n      tag_183\n        /* \"Dcoffer/ERC721A/test.sol\":3033:3045  block.number */\n      number\n        /* \"Dcoffer/ERC721A/test.sol\":3021:3032  blockStatus */\n      tag_59\n        /* \"Dcoffer/ERC721A/test.sol\":3021:3046  blockStatus(block.number) */\n      jump\t// in\n    tag_183:\n        /* \"Dcoffer/ERC721A/test.sol\":3007:3046  uint256 end = blockStatus(block.number) */\n      swap1\n      pop\n        /* \"Dcoffer/ERC721A/test.sol\":3057:3075  uint256 mined_area */\n      0x00\n        /* \"Dcoffer/ERC721A/test.sol\":3078:3115  start.add(end).mul(difference).div(2) */\n      tag_184\n        /* \"Dcoffer/ERC721A/test.sol\":3113:3114  2 */\n      0x02\n        /* \"Dcoffer/ERC721A/test.sol\":3078:3108  start.add(end).mul(difference) */\n      tag_185\n        /* \"Dcoffer/ERC721A/test.sol\":3097:3107  difference */\n      dup7\n        /* \"Dcoffer/ERC721A/test.sol\":3078:3092  start.add(end) */\n      tag_186\n        /* \"Dcoffer/ERC721A/test.sol\":3088:3091  end */\n      dup7\n        /* \"Dcoffer/ERC721A/test.sol\":3078:3083  start */\n      dup9\n        /* \"Dcoffer/ERC721A/test.sol\":3078:3087  start.add */\n      tag_187\n      swap1\n        /* \"Dcoffer/ERC721A/test.sol\":3078:3092  start.add(end) */\n      swap2\n      swap1\n      0xffffffff\n      and\n      jump\t// in\n    tag_186:\n        /* \"Dcoffer/ERC721A/test.sol\":3078:3096  start.add(end).mul */\n      tag_147\n      swap1\n        /* \"Dcoffer/ERC721A/test.sol\":3078:3108  start.add(end).mul(difference) */\n      swap2\n      swap1\n      0xffffffff\n      and\n      jump\t// in\n    tag_185:\n        /* \"Dcoffer/ERC721A/test.sol\":3078:3112  start.add(end).mul(difference).div */\n      tag_150\n      swap1\n        /* \"Dcoffer/ERC721A/test.sol\":3078:3115  start.add(end).mul(difference).div(2) */\n      swap2\n      swap1\n      0xffffffff\n      and\n      jump\t// in\n    tag_184:\n        /* \"Dcoffer/ERC721A/test.sol\":3057:3115  uint256 mined_area = start.add(end).mul(difference).div(2) */\n      swap1\n      pop\n        /* \"Dcoffer/ERC721A/test.sol\":3208:3223  uint dcf_amount */\n      0x00\n        /* \"Dcoffer/ERC721A/test.sol\":3226:3277  mined_area.mul(_mineInfo[user][2]).div(_totalPower) */\n      tag_188\n        /* \"Dcoffer/ERC721A/test.sol\":3265:3276  _totalPower */\n      sload(0x03)\n        /* \"Dcoffer/ERC721A/test.sol\":3226:3260  mined_area.mul(_mineInfo[user][2]) */\n      tag_189\n        /* \"Dcoffer/ERC721A/test.sol\":3241:3250  _mineInfo */\n      0x0d\n        /* \"Dcoffer/ERC721A/test.sol\":3241:3256  _mineInfo[user] */\n      0x00\n        /* \"Dcoffer/ERC721A/test.sol\":3251:3255  user */\n      dup12\n        /* \"Dcoffer/ERC721A/test.sol\":3241:3256  _mineInfo[user] */\n      0xffffffffffffffffffffffffffffffffffffffff\n      and\n      0xffffffffffffffffffffffffffffffffffffffff\n      and\n      dup2\n      mstore\n      0x20\n      add\n      swap1\n      dup2\n      mstore\n      0x20\n      add\n      0x00\n      keccak256\n        /* \"Dcoffer/ERC721A/test.sol\":3241:3259  _mineInfo[user][2] */\n      0x00\n        /* \"Dcoffer/ERC721A/test.sol\":3257:3258  2 */\n      0x02\n        /* \"Dcoffer/ERC721A/test.sol\":3241:3259  _mineInfo[user][2] */\n      dup2\n      mstore\n      0x20\n      add\n      swap1\n      dup2\n      mstore\n      0x20\n      add\n      0x00\n      keccak256\n      sload\n        /* \"Dcoffer/ERC721A/test.sol\":3226:3236  mined_area */\n      dup6\n        /* \"Dcoffer/ERC721A/test.sol\":3226:3240  mined_area.mul */\n      tag_147\n      swap1\n        /* \"Dcoffer/ERC721A/test.sol\":3226:3260  mined_area.mul(_mineInfo[user][2]) */\n      swap2\n      swap1\n      0xffffffff\n      and\n      jump\t// in\n    tag_189:\n        /* \"Dcoffer/ERC721A/test.sol\":3226:3264  mined_area.mul(_mineInfo[user][2]).div */\n      tag_150\n      swap1\n        /* \"Dcoffer/ERC721A/test.sol\":3226:3277  mined_area.mul(_mineInfo[user][2]).div(_totalPower) */\n      swap2\n      swap1\n      0xffffffff\n      and\n      jump\t// in\n    tag_188:\n        /* \"Dcoffer/ERC721A/test.sol\":3208:3277  uint dcf_amount = mined_area.mul(_mineInfo[user][2]).div(_totalPower) */\n      swap1\n      pop\n        /* \"Dcoffer/ERC721A/test.sol\":3295:3329  _mineInfo[user][3].add(dcf_amount) */\n      tag_190\n        /* \"Dcoffer/ERC721A/test.sol\":3318:3328  dcf_amount */\n      dup2\n        /* \"Dcoffer/ERC721A/test.sol\":3295:3304  _mineInfo */\n      0x0d\n        /* \"Dcoffer/ERC721A/test.sol\":3295:3310  _mineInfo[user] */\n      0x00\n        /* \"Dcoffer/ERC721A/test.sol\":3305:3309  user */\n      dup11\n        /* \"Dcoffer/ERC721A/test.sol\":3295:3310  _mineInfo[user] */\n      0xffffffffffffffffffffffffffffffffffffffff\n      and\n      0xffffffffffffffffffffffffffffffffffffffff\n      and\n      dup2\n      mstore\n      0x20\n      add\n      swap1\n      dup2\n      mstore\n      0x20\n      add\n      0x00\n      keccak256\n        /* \"Dcoffer/ERC721A/test.sol\":3295:3313  _mineInfo[user][3] */\n      0x00\n        /* \"Dcoffer/ERC721A/test.sol\":3311:3312  3 */\n      0x03\n        /* \"Dcoffer/ERC721A/test.sol\":3295:3313  _mineInfo[user][3] */\n      dup2\n      mstore\n      0x20\n      add\n      swap1\n      dup2\n      mstore\n      0x20\n      add\n      0x00\n      keccak256\n      sload\n        /* \"Dcoffer/ERC721A/test.sol\":3295:3317  _mineInfo[user][3].add */\n      tag_187\n      swap1\n        /* \"Dcoffer/ERC721A/test.sol\":3295:3329  _mineInfo[user][3].add(dcf_amount) */\n      swap2\n      swap1\n      0xffffffff\n      and\n      jump\t// in\n    tag_190:\n        /* \"Dcoffer/ERC721A/test.sol\":3288:3329  return _mineInfo[user][3].add(dcf_amount) */\n      swap6\n      pop\n      pop\n      pop\n      pop\n      pop\n      pop\n        /* \"Dcoffer/ERC721A/test.sol\":2800:3344  function MineStatus(address user)public view override returns(uint256){... */\n      swap2\n      swap1\n      pop\n      jump\t// out\n        /* \"Dcoffer/ERC721A/test.sol\":9184:9502  function tokenURI(uint256 tokenId) public view virtual override returns (string memory) {... */\n    tag_92:\n        /* \"Dcoffer/ERC721A/test.sol\":9257:9270  string memory */\n      0x60\n        /* \"Dcoffer/ERC721A/test.sol\":9288:9304  _exists(tokenId) */\n      tag_192\n        /* \"Dcoffer/ERC721A/test.sol\":9296:9303  tokenId */\n      dup3\n        /* \"Dcoffer/ERC721A/test.sol\":9288:9295  _exists */\n      tag_123\n        /* \"Dcoffer/ERC721A/test.sol\":9288:9304  _exists(tokenId) */\n      jump\t// in\n    tag_192:\n        /* \"Dcoffer/ERC721A/test.sol\":9283:9342  if (!_exists(tokenId)) revert URIQueryForNonexistentToken() */\n      tag_193\n      jumpi\n        /* \"Dcoffer/ERC721A/test.sol\":9313:9342  URIQueryForNonexistentToken() */\n      mload(0x40)\n      0xa14c4b5000000000000000000000000000000000000000000000000000000000\n      dup2\n      mstore\n      0x04\n      add\n      mload(0x40)\n      dup1\n      swap2\n      sub\n      swap1\n      revert\n        /* \"Dcoffer/ERC721A/test.sol\":9283:9342  if (!_exists(tokenId)) revert URIQueryForNonexistentToken() */\n    tag_193:\n        /* \"Dcoffer/ERC721A/test.sol\":9355:9376  string memory baseURI */\n      0x00\n        /* \"Dcoffer/ERC721A/test.sol\":9379:9389  _baseURI() */\n      tag_194\n        /* \"Dcoffer/ERC721A/test.sol\":9379:9387  _baseURI */\n      tag_195\n        /* \"Dcoffer/ERC721A/test.sol\":9379:9389  _baseURI() */\n      jump\t// in\n    tag_194:\n        /* \"Dcoffer/ERC721A/test.sol\":9355:9389  string memory baseURI = _baseURI() */\n      swap1\n      pop\n        /* \"Dcoffer/ERC721A/test.sol\":9432:9433  0 */\n      0x00\n        /* \"Dcoffer/ERC721A/test.sol\":9413:9420  baseURI */\n      dup2\n        /* \"Dcoffer/ERC721A/test.sol\":9407:9428  bytes(baseURI).length */\n      mload\n        /* \"Dcoffer/ERC721A/test.sol\":9407:9433  bytes(baseURI).length != 0 */\n      sub\n        /* \"Dcoffer/ERC721A/test.sol\":9407:9494  bytes(baseURI).length != 0 ? string(abi.encodePacked(baseURI, tokenId.toString())) : '' */\n      tag_196\n      jumpi\n      mload(0x40)\n      dup1\n      0x20\n      add\n      0x40\n      mstore\n      dup1\n      0x00\n      dup2\n      mstore\n      pop\n      jump(tag_197)\n    tag_196:\n        /* \"Dcoffer/ERC721A/test.sol\":9460:9467  baseURI */\n      dup1\n        /* \"Dcoffer/ERC721A/test.sol\":9469:9487  tokenId.toString() */\n      tag_198\n        /* \"Dcoffer/ERC721A/test.sol\":9469:9476  tokenId */\n      dup5\n        /* \"Dcoffer/ERC721A/test.sol\":9469:9485  tokenId.toString */\n      tag_199\n        /* \"Dcoffer/ERC721A/test.sol\":9469:9487  tokenId.toString() */\n      jump\t// in\n    tag_198:\n        /* \"Dcoffer/ERC721A/test.sol\":9443:9488  abi.encodePacked(baseURI, tokenId.toString()) */\n      add(0x20, mload(0x40))\n      tag_200\n      swap3\n      swap2\n      swap1\n      tag_201\n      jump\t// in\n    tag_200:\n      mload(0x40)\n      0x20\n      dup2\n      dup4\n      sub\n      sub\n      dup2\n      mstore\n      swap1\n      0x40\n      mstore\n        /* \"Dcoffer/ERC721A/test.sol\":9407:9494  bytes(baseURI).length != 0 ? string(abi.encodePacked(baseURI, tokenId.toString())) : '' */\n    tag_197:\n        /* \"Dcoffer/ERC721A/test.sol\":9400:9494  return bytes(baseURI).length != 0 ? string(abi.encodePacked(baseURI, tokenId.toString())) : '' */\n      swap2\n      pop\n      pop\n        /* \"Dcoffer/ERC721A/test.sol\":9184:9502  function tokenURI(uint256 tokenId) public view virtual override returns (string memory) {... */\n      swap2\n      swap1\n      pop\n      jump\t// out\n        /* \"Dcoffer/ERC721A/test.sol\":4912:5076  function maxSupply() public view  returns (uint256) {       ... */\n    tag_95:\n        /* \"Dcoffer/ERC721A/test.sol\":4955:4962  uint256 */\n      0x00\n        /* \"Dcoffer/ERC721A/test.sol\":5042:5057  _startTokenId() */\n      tag_203\n        /* \"Dcoffer/ERC721A/test.sol\":5042:5055  _startTokenId */\n      tag_138\n        /* \"Dcoffer/ERC721A/test.sol\":5042:5057  _startTokenId() */\n      jump\t// in\n    tag_203:\n        /* \"Dcoffer/ERC721A/test.sol\":5027:5039  _burnCounter */\n      sload(0x06)\n        /* \"Dcoffer/ERC721A/test.sol\":5014:5024  _maxSupply */\n      sload(0x05)\n        /* \"Dcoffer/ERC721A/test.sol\":5014:5039  _maxSupply - _burnCounter */\n      sub\n        /* \"Dcoffer/ERC721A/test.sol\":5014:5057  _maxSupply - _burnCounter - _startTokenId() */\n      sub\n        /* \"Dcoffer/ERC721A/test.sol\":5007:5057  return _maxSupply - _burnCounter - _startTokenId() */\n      swap1\n      pop\n        /* \"Dcoffer/ERC721A/test.sol\":4912:5076  function maxSupply() public view  returns (uint256) {       ... */\n      swap1\n      jump\t// out\n        /* \"Dcoffer/ERC721A/test.sol\":4769:4902  function totalPower() public view  returns (uint256) {       ... */\n    tag_98:\n        /* \"Dcoffer/ERC721A/test.sol\":4813:4820  uint256 */\n      0x00\n        /* \"Dcoffer/ERC721A/test.sol\":4872:4883  _totalPower */\n      sload(0x03)\n        /* \"Dcoffer/ERC721A/test.sol\":4865:4883  return _totalPower */\n      swap1\n      pop\n        /* \"Dcoffer/ERC721A/test.sol\":4769:4902  function totalPower() public view  returns (uint256) {       ... */\n      swap1\n      jump\t// out\n        /* \"Dcoffer/ERC721A/test.sol\":11069:11233  function isApprovedForAll(address owner, address operator) public view virtual override returns (bool) {... */\n    tag_103:\n        /* \"Dcoffer/ERC721A/test.sol\":11166:11170  bool */\n      0x00\n        /* \"Dcoffer/ERC721A/test.sol\":11190:11208  _operatorApprovals */\n      0x0c\n        /* \"Dcoffer/ERC721A/test.sol\":11190:11215  _operatorApprovals[owner] */\n      0x00\n        /* \"Dcoffer/ERC721A/test.sol\":11209:11214  owner */\n      dup5\n        /* \"Dcoffer/ERC721A/test.sol\":11190:11215  _operatorApprovals[owner] */\n      0xffffffffffffffffffffffffffffffffffffffff\n      and\n      0xffffffffffffffffffffffffffffffffffffffff\n      and\n      dup2\n      mstore\n      0x20\n      add\n      swap1\n      dup2\n      mstore\n      0x20\n      add\n      0x00\n      keccak256\n        /* \"Dcoffer/ERC721A/test.sol\":11190:11225  _operatorApprovals[owner][operator] */\n      0x00\n        /* \"Dcoffer/ERC721A/test.sol\":11216:11224  operator */\n      dup4\n        /* \"Dcoffer/ERC721A/test.sol\":11190:11225  _operatorApprovals[owner][operator] */\n      0xffffffffffffffffffffffffffffffffffffffff\n      and\n      0xffffffffffffffffffffffffffffffffffffffff\n      and\n      dup2\n      mstore\n      0x20\n      add\n      swap1\n      dup2\n      mstore\n      0x20\n      add\n      0x00\n      keccak256\n      0x00\n      swap1\n      sload\n      swap1\n      0x0100\n      exp\n      swap1\n      div\n      0xff\n      and\n        /* \"Dcoffer/ERC721A/test.sol\":11183:11225  return _operatorApprovals[owner][operator] */\n      swap1\n      pop\n        /* \"Dcoffer/ERC721A/test.sol\":11069:11233  function isApprovedForAll(address owner, address operator) public view virtual override returns (bool) {... */\n      swap3\n      swap2\n      pop\n      pop\n      jump\t// out\n        /* \"Dcoffer/ERC721A/test.sol\":3824:4103  function DcofferPower (uint256 tokenId)public view override returns(uint256){... */\n    tag_107:\n        /* \"Dcoffer/ERC721A/test.sol\":3892:3899  uint256 */\n      0x00\n        /* \"Dcoffer/ERC721A/test.sol\":3911:3922  uint _power */\n      dup1\n        /* \"Dcoffer/ERC721A/test.sol\":3925:3956  tokenId.mul(_salt).add(tokenId) */\n      tag_207\n        /* \"Dcoffer/ERC721A/test.sol\":3948:3955  tokenId */\n      dup4\n        /* \"Dcoffer/ERC721A/test.sol\":3925:3943  tokenId.mul(_salt) */\n      tag_208\n        /* \"Dcoffer/ERC721A/test.sol\":3937:3942  _salt */\n      sload(0x00)\n        /* \"Dcoffer/ERC721A/test.sol\":3925:3932  tokenId */\n      dup7\n        /* \"Dcoffer/ERC721A/test.sol\":3925:3936  tokenId.mul */\n      tag_147\n      swap1\n        /* \"Dcoffer/ERC721A/test.sol\":3925:3943  tokenId.mul(_salt) */\n      swap2\n      swap1\n      0xffffffff\n      and\n      jump\t// in\n    tag_208:\n        /* \"Dcoffer/ERC721A/test.sol\":3925:3947  tokenId.mul(_salt).add */\n      tag_187\n      swap1\n        /* \"Dcoffer/ERC721A/test.sol\":3925:3956  tokenId.mul(_salt).add(tokenId) */\n      swap2\n      swap1\n      0xffffffff\n      and\n      jump\t// in\n    tag_207:\n        /* \"Dcoffer/ERC721A/test.sol\":3911:3956  uint _power = tokenId.mul(_salt).add(tokenId) */\n      swap1\n      pop\n        /* \"Dcoffer/ERC721A/test.sol\":3984:3985  0 */\n      0x00\n        /* \"Dcoffer/ERC721A/test.sol\":3978:3980  10 */\n      0x0a\n        /* \"Dcoffer/ERC721A/test.sol\":3971:3977  _power */\n      dup3\n        /* \"Dcoffer/ERC721A/test.sol\":3971:3980  _power%10 */\n      tag_209\n      swap2\n      swap1\n      tag_210\n      jump\t// in\n    tag_209:\n        /* \"Dcoffer/ERC721A/test.sol\":3971:3985  _power%10 == 0 */\n      sub\n        /* \"Dcoffer/ERC721A/test.sol\":3968:4072  if(_power%10 == 0){... */\n      tag_211\n      jumpi\n        /* \"Dcoffer/ERC721A/test.sol\":4010:4011  1 */\n      0x01\n        /* \"Dcoffer/ERC721A/test.sol\":4001:4011  _power = 1 */\n      swap1\n      pop\n        /* \"Dcoffer/ERC721A/test.sol\":3968:4072  if(_power%10 == 0){... */\n      jump(tag_212)\n    tag_211:\n        /* \"Dcoffer/ERC721A/test.sol\":4058:4060  10 */\n      0x0a\n        /* \"Dcoffer/ERC721A/test.sol\":4051:4057  _power */\n      dup2\n        /* \"Dcoffer/ERC721A/test.sol\":4051:4060  _power%10 */\n      tag_213\n      swap2\n      swap1\n      tag_210\n      jump\t// in\n    tag_213:\n        /* \"Dcoffer/ERC721A/test.sol\":4042:4060  _power = _power%10 */\n      swap1\n      pop\n        /* \"Dcoffer/ERC721A/test.sol\":3968:4072  if(_power%10 == 0){... */\n    tag_212:\n        /* \"Dcoffer/ERC721A/test.sol\":4089:4095  _power */\n      dup1\n        /* \"Dcoffer/ERC721A/test.sol\":4082:4095  return _power */\n      swap2\n      pop\n      pop\n        /* \"Dcoffer/ERC721A/test.sol\":3824:4103  function DcofferPower (uint256 tokenId)public view override returns(uint256){... */\n      swap2\n      swap1\n      pop\n      jump\t// out\n        /* \"@openzeppelin/contracts/utils/introspection/ERC165.sol\":829:984  function supportsInterface(bytes4 interfaceId) public view virtual override returns (bool) {... */\n    tag_113:\n        /* \"@openzeppelin/contracts/utils/introspection/ERC165.sol\":914:918  bool */\n      0x00\n        /* \"@openzeppelin/contracts/utils/introspection/ERC165.sol\":952:977  type(IERC165).interfaceId */\n      0x01ffc9a700000000000000000000000000000000000000000000000000000000\n        /* \"@openzeppelin/contracts/utils/introspection/ERC165.sol\":937:977  interfaceId == type(IERC165).interfaceId */\n      not(0xffffffffffffffffffffffffffffffffffffffffffffffffffffffff)\n      and\n        /* \"@openzeppelin/contracts/utils/introspection/ERC165.sol\":937:948  interfaceId */\n      dup3\n        /* \"@openzeppelin/contracts/utils/introspection/ERC165.sol\":937:977  interfaceId == type(IERC165).interfaceId */\n      not(0xffffffffffffffffffffffffffffffffffffffffffffffffffffffff)\n      and\n      eq\n        /* \"@openzeppelin/contracts/utils/introspection/ERC165.sol\":930:977  return interfaceId == type(IERC165).interfaceId */\n      swap1\n      pop\n        /* \"@openzeppelin/contracts/utils/introspection/ERC165.sol\":829:984  function supportsInterface(bytes4 interfaceId) public view virtual override returns (bool) {... */\n      swap2\n      swap1\n      pop\n      jump\t// out\n        /* \"Dcoffer/ERC721A/test.sol\":12381:12555  function _exists(uint256 tokenId) internal view returns (bool) {... */\n    tag_123:\n        /* \"Dcoffer/ERC721A/test.sol\":12438:12442  bool */\n      0x00\n        /* \"Dcoffer/ERC721A/test.sol\":12481:12488  tokenId */\n      dup2\n        /* \"Dcoffer/ERC721A/test.sol\":12462:12477  _startTokenId() */\n      tag_216\n        /* \"Dcoffer/ERC721A/test.sol\":12462:12475  _startTokenId */\n      tag_138\n        /* \"Dcoffer/ERC721A/test.sol\":12462:12477  _startTokenId() */\n      jump\t// in\n    tag_216:\n        /* \"Dcoffer/ERC721A/test.sol\":12462:12488  _startTokenId() <= tokenId */\n      gt\n      iszero\n        /* \"Dcoffer/ERC721A/test.sol\":12462:12515  _startTokenId() <= tokenId && tokenId < _currentIndex */\n      dup1\n      iszero\n      tag_217\n      jumpi\n      pop\n        /* \"Dcoffer/ERC721A/test.sol\":12502:12515  _currentIndex */\n      sload(0x04)\n        /* \"Dcoffer/ERC721A/test.sol\":12492:12499  tokenId */\n      dup3\n        /* \"Dcoffer/ERC721A/test.sol\":12492:12515  tokenId < _currentIndex */\n      lt\n        /* \"Dcoffer/ERC721A/test.sol\":12462:12515  _startTokenId() <= tokenId && tokenId < _currentIndex */\n    tag_217:\n        /* \"Dcoffer/ERC721A/test.sol\":12462:12547  _startTokenId() <= tokenId && tokenId < _currentIndex && !_ownerships[tokenId].burned */\n      dup1\n      iszero\n      tag_218\n      jumpi\n      pop\n        /* \"Dcoffer/ERC721A/test.sol\":12520:12531  _ownerships */\n      0x09\n        /* \"Dcoffer/ERC721A/test.sol\":12520:12540  _ownerships[tokenId] */\n      0x00\n        /* \"Dcoffer/ERC721A/test.sol\":12532:12539  tokenId */\n      dup4\n        /* \"Dcoffer/ERC721A/test.sol\":12520:12540  _ownerships[tokenId] */\n      dup2\n      mstore\n      0x20\n      add\n      swap1\n      dup2\n      mstore\n      0x20\n      add\n      0x00\n      keccak256\n        /* \"Dcoffer/ERC721A/test.sol\":12520:12547  _ownerships[tokenId].burned */\n      0x00\n      add\n      0x1c\n      swap1\n      sload\n      swap1\n      0x0100\n      exp\n      swap1\n      div\n      0xff\n      and\n        /* \"Dcoffer/ERC721A/test.sol\":12519:12547  !_ownerships[tokenId].burned */\n      iszero\n        /* \"Dcoffer/ERC721A/test.sol\":12462:12547  _startTokenId() <= tokenId && tokenId < _currentIndex && !_ownerships[tokenId].burned */\n    tag_218:\n        /* \"Dcoffer/ERC721A/test.sol\":12455:12547  return _startTokenId() <= tokenId && tokenId < _currentIndex && !_ownerships[tokenId].burned */\n      swap1\n      pop\n        /* \"Dcoffer/ERC721A/test.sol\":12381:12555  function _exists(uint256 tokenId) internal view returns (bool) {... */\n      swap2\n      swap1\n      pop\n      jump\t// out\n        /* \"@openzeppelin/contracts/utils/Context.sol\":640:736  function _msgSender() internal view virtual returns (address) {... */\n    tag_129:\n        /* \"@openzeppelin/contracts/utils/Context.sol\":693:700  address */\n      0x00\n        /* \"@openzeppelin/contracts/utils/Context.sol\":719:729  msg.sender */\n      caller\n        /* \"@openzeppelin/contracts/utils/Context.sol\":712:729  return msg.sender */\n      swap1\n      pop\n        /* \"@openzeppelin/contracts/utils/Context.sol\":640:736  function _msgSender() internal view virtual returns (address) {... */\n      swap1\n      jump\t// out\n        /* \"Dcoffer/ERC721A/test.sol\":21170:21366  function _approve(... */\n    tag_135:\n        /* \"Dcoffer/ERC721A/test.sol\":21312:21314  to */\n      dup3\n        /* \"Dcoffer/ERC721A/test.sol\":21285:21300  _tokenApprovals */\n      0x0b\n        /* \"Dcoffer/ERC721A/test.sol\":21285:21309  _tokenApprovals[tokenId] */\n      0x00\n        /* \"Dcoffer/ERC721A/test.sol\":21301:21308  tokenId */\n      dup5\n        /* \"Dcoffer/ERC721A/test.sol\":21285:21309  _tokenApprovals[tokenId] */\n      dup2\n      mstore\n      0x20\n      add\n      swap1\n      dup2\n      mstore\n      0x20\n      add\n      0x00\n      keccak256\n      0x00\n        /* \"Dcoffer/ERC721A/test.sol\":21285:21314  _tokenApprovals[tokenId] = to */\n      0x0100\n      exp\n      dup2\n      sload\n      dup2\n      0xffffffffffffffffffffffffffffffffffffffff\n      mul\n      not\n      and\n      swap1\n      dup4\n      0xffffffffffffffffffffffffffffffffffffffff\n      and\n      mul\n      or\n      swap1\n      sstore\n      pop\n        /* \"Dcoffer/ERC721A/test.sol\":21350:21357  tokenId */\n      dup2\n        /* \"Dcoffer/ERC721A/test.sol\":21346:21348  to */\n      dup4\n        /* \"Dcoffer/ERC721A/test.sol\":21330:21358  Approval(owner, to, tokenId) */\n      0xffffffffffffffffffffffffffffffffffffffff\n      and\n        /* \"Dcoffer/ERC721A/test.sol\":21339:21344  owner */\n      dup3\n        /* \"Dcoffer/ERC721A/test.sol\":21330:21358  Approval(owner, to, tokenId) */\n      0xffffffffffffffffffffffffffffffffffffffff\n      and\n      0x8c5be1e5ebec7d5bd14f71427d1e84f3dd0314c0f7b2291e5b200ac8c7c3b925\n      mload(0x40)\n      mload(0x40)\n      dup1\n      swap2\n      sub\n      swap1\n      log4\n        /* \"Dcoffer/ERC721A/test.sol\":21170:21366  function _approve(... */\n      pop\n      pop\n      pop\n      jump\t// out\n        /* \"Dcoffer/ERC721A/test.sol\":4221:4313  function _startTokenId() internal view virtual returns (uint256) {... */\n    tag_138:\n        /* \"Dcoffer/ERC721A/test.sol\":4277:4284  uint256 */\n      0x00\n        /* \"Dcoffer/ERC721A/test.sol\":4221:4313  function _startTokenId() internal view virtual returns (uint256) {... */\n      swap1\n      jump\t// out\n        /* \"Dcoffer/ERC721A/test.sol\":15398:17926  function _transfer(... */\n    tag_141:\n        /* \"Dcoffer/ERC721A/test.sol\":15517:15536  uint256 powerNumber */\n      0x00\n        /* \"Dcoffer/ERC721A/test.sol\":15539:15560  DcofferPower(tokenId) */\n      tag_223\n        /* \"Dcoffer/ERC721A/test.sol\":15552:15559  tokenId */\n      dup3\n        /* \"Dcoffer/ERC721A/test.sol\":15539:15551  DcofferPower */\n      tag_107\n        /* \"Dcoffer/ERC721A/test.sol\":15539:15560  DcofferPower(tokenId) */\n      jump\t// in\n    tag_223:\n        /* \"Dcoffer/ERC721A/test.sol\":15517:15560  uint256 powerNumber = DcofferPower(tokenId) */\n      swap1\n      pop\n        /* \"Dcoffer/ERC721A/test.sol\":15600:15616  MineStatus(from) */\n      tag_224\n        /* \"Dcoffer/ERC721A/test.sol\":15611:15615  from */\n      dup5\n        /* \"Dcoffer/ERC721A/test.sol\":15600:15610  MineStatus */\n      tag_88\n        /* \"Dcoffer/ERC721A/test.sol\":15600:15616  MineStatus(from) */\n      jump\t// in\n    tag_224:\n        /* \"Dcoffer/ERC721A/test.sol\":15579:15588  _mineInfo */\n      0x0d\n        /* \"Dcoffer/ERC721A/test.sol\":15579:15594  _mineInfo[from] */\n      0x00\n        /* \"Dcoffer/ERC721A/test.sol\":15589:15593  from */\n      dup7\n        /* \"Dcoffer/ERC721A/test.sol\":15579:15594  _mineInfo[from] */\n      0xffffffffffffffffffffffffffffffffffffffff\n      and\n      0xffffffffffffffffffffffffffffffffffffffff\n      and\n      dup2\n      mstore\n      0x20\n      add\n      swap1\n      dup2\n      mstore\n      0x20\n      add\n      0x00\n      keccak256\n        /* \"Dcoffer/ERC721A/test.sol\":15579:15597  _mineInfo[from][3] */\n      0x00\n        /* \"Dcoffer/ERC721A/test.sol\":15595:15596  3 */\n      0x03\n        /* \"Dcoffer/ERC721A/test.sol\":15579:15597  _mineInfo[from][3] */\n      dup2\n      mstore\n      0x20\n      add\n      swap1\n      dup2\n      mstore\n      0x20\n      add\n      0x00\n      keccak256\n        /* \"Dcoffer/ERC721A/test.sol\":15579:15616  _mineInfo[from][3] = MineStatus(from) */\n      dup2\n      swap1\n      sstore\n      pop\n        /* \"Dcoffer/ERC721A/test.sol\":15648:15683  _mineInfo[from][2].sub(powerNumber) */\n      tag_225\n        /* \"Dcoffer/ERC721A/test.sol\":15671:15682  powerNumber */\n      dup2\n        /* \"Dcoffer/ERC721A/test.sol\":15648:15657  _mineInfo */\n      0x0d\n        /* \"Dcoffer/ERC721A/test.sol\":15648:15663  _mineInfo[from] */\n      0x00\n        /* \"Dcoffer/ERC721A/test.sol\":15658:15662  from */\n      dup8\n        /* \"Dcoffer/ERC721A/test.sol\":15648:15663  _mineInfo[from] */\n      0xffffffffffffffffffffffffffffffffffffffff\n      and\n      0xffffffffffffffffffffffffffffffffffffffff\n      and\n      dup2\n      mstore\n      0x20\n      add\n      swap1\n      dup2\n      mstore\n      0x20\n      add\n      0x00\n      keccak256\n        /* \"Dcoffer/ERC721A/test.sol\":15648:15666  _mineInfo[from][2] */\n      0x00\n        /* \"Dcoffer/ERC721A/test.sol\":15664:15665  2 */\n      0x02\n        /* \"Dcoffer/ERC721A/test.sol\":15648:15666  _mineInfo[from][2] */\n      dup2\n      mstore\n      0x20\n      add\n      swap1\n      dup2\n      mstore\n      0x20\n      add\n      0x00\n      keccak256\n      sload\n        /* \"Dcoffer/ERC721A/test.sol\":15648:15670  _mineInfo[from][2].sub */\n      tag_181\n      swap1\n        /* \"Dcoffer/ERC721A/test.sol\":15648:15683  _mineInfo[from][2].sub(powerNumber) */\n      swap2\n      swap1\n      0xffffffff\n      and\n      jump\t// in\n    tag_225:\n        /* \"Dcoffer/ERC721A/test.sol\":15627:15636  _mineInfo */\n      0x0d\n        /* \"Dcoffer/ERC721A/test.sol\":15627:15642  _mineInfo[from] */\n      0x00\n        /* \"Dcoffer/ERC721A/test.sol\":15637:15641  from */\n      dup7\n        /* \"Dcoffer/ERC721A/test.sol\":15627:15642  _mineInfo[from] */\n      0xffffffffffffffffffffffffffffffffffffffff\n      and\n      0xffffffffffffffffffffffffffffffffffffffff\n      and\n      dup2\n      mstore\n      0x20\n      add\n      swap1\n      dup2\n      mstore\n      0x20\n      add\n      0x00\n      keccak256\n        /* \"Dcoffer/ERC721A/test.sol\":15627:15645  _mineInfo[from][2] */\n      0x00\n        /* \"Dcoffer/ERC721A/test.sol\":15643:15644  2 */\n      0x02\n        /* \"Dcoffer/ERC721A/test.sol\":15627:15645  _mineInfo[from][2] */\n      dup2\n      mstore\n      0x20\n      add\n      swap1\n      dup2\n      mstore\n      0x20\n      add\n      0x00\n      keccak256\n        /* \"Dcoffer/ERC721A/test.sol\":15627:15683  _mineInfo[from][2] = _mineInfo[from][2].sub(powerNumber) */\n      dup2\n      swap1\n      sstore\n      pop\n        /* \"Dcoffer/ERC721A/test.sol\":15715:15727  block.number */\n      number\n        /* \"Dcoffer/ERC721A/test.sol\":15694:15703  _mineInfo */\n      0x0d\n        /* \"Dcoffer/ERC721A/test.sol\":15694:15709  _mineInfo[from] */\n      0x00\n        /* \"Dcoffer/ERC721A/test.sol\":15704:15708  from */\n      dup7\n        /* \"Dcoffer/ERC721A/test.sol\":15694:15709  _mineInfo[from] */\n      0xffffffffffffffffffffffffffffffffffffffff\n      and\n      0xffffffffffffffffffffffffffffffffffffffff\n      and\n      dup2\n      mstore\n      0x20\n      add\n      swap1\n      dup2\n      mstore\n      0x20\n      add\n      0x00\n      keccak256\n        /* \"Dcoffer/ERC721A/test.sol\":15694:15712  _mineInfo[from][1] */\n      0x00\n        /* \"Dcoffer/ERC721A/test.sol\":15710:15711  1 */\n      0x01\n        /* \"Dcoffer/ERC721A/test.sol\":15694:15712  _mineInfo[from][1] */\n      dup2\n      mstore\n      0x20\n      add\n      swap1\n      dup2\n      mstore\n      0x20\n      add\n      0x00\n      keccak256\n        /* \"Dcoffer/ERC721A/test.sol\":15694:15727  _mineInfo[from][1] = block.number */\n      dup2\n      swap1\n      sstore\n      pop\n        /* \"Dcoffer/ERC721A/test.sol\":15757:15771  MineStatus(to) */\n      tag_226\n        /* \"Dcoffer/ERC721A/test.sol\":15768:15770  to */\n      dup4\n        /* \"Dcoffer/ERC721A/test.sol\":15757:15767  MineStatus */\n      tag_88\n        /* \"Dcoffer/ERC721A/test.sol\":15757:15771  MineStatus(to) */\n      jump\t// in\n    tag_226:\n        /* \"Dcoffer/ERC721A/test.sol\":15738:15747  _mineInfo */\n      0x0d\n        /* \"Dcoffer/ERC721A/test.sol\":15738:15751  _mineInfo[to] */\n      0x00\n        /* \"Dcoffer/ERC721A/test.sol\":15748:15750  to */\n      dup6\n        /* \"Dcoffer/ERC721A/test.sol\":15738:15751  _mineInfo[to] */\n      0xffffffffffffffffffffffffffffffffffffffff\n      and\n      0xffffffffffffffffffffffffffffffffffffffff\n      and\n      dup2\n      mstore\n      0x20\n      add\n      swap1\n      dup2\n      mstore\n      0x20\n      add\n      0x00\n      keccak256\n        /* \"Dcoffer/ERC721A/test.sol\":15738:15754  _mineInfo[to][3] */\n      0x00\n        /* \"Dcoffer/ERC721A/test.sol\":15752:15753  3 */\n      0x03\n        /* \"Dcoffer/ERC721A/test.sol\":15738:15754  _mineInfo[to][3] */\n      dup2\n      mstore\n      0x20\n      add\n      swap1\n      dup2\n      mstore\n      0x20\n      add\n      0x00\n      keccak256\n        /* \"Dcoffer/ERC721A/test.sol\":15738:15771  _mineInfo[to][3] = MineStatus(to) */\n      dup2\n      swap1\n      sstore\n      pop\n        /* \"Dcoffer/ERC721A/test.sol\":15801:15834  _mineInfo[to][2].add(powerNumber) */\n      tag_227\n        /* \"Dcoffer/ERC721A/test.sol\":15822:15833  powerNumber */\n      dup2\n        /* \"Dcoffer/ERC721A/test.sol\":15801:15810  _mineInfo */\n      0x0d\n        /* \"Dcoffer/ERC721A/test.sol\":15801:15814  _mineInfo[to] */\n      0x00\n        /* \"Dcoffer/ERC721A/test.sol\":15811:15813  to */\n      dup7\n        /* \"Dcoffer/ERC721A/test.sol\":15801:15814  _mineInfo[to] */\n      0xffffffffffffffffffffffffffffffffffffffff\n      and\n      0xffffffffffffffffffffffffffffffffffffffff\n      and\n      dup2\n      mstore\n      0x20\n      add\n      swap1\n      dup2\n      mstore\n      0x20\n      add\n      0x00\n      keccak256\n        /* \"Dcoffer/ERC721A/test.sol\":15801:15817  _mineInfo[to][2] */\n      0x00\n        /* \"Dcoffer/ERC721A/test.sol\":15815:15816  2 */\n      0x02\n        /* \"Dcoffer/ERC721A/test.sol\":15801:15817  _mineInfo[to][2] */\n      dup2\n      mstore\n      0x20\n      add\n      swap1\n      dup2\n      mstore\n      0x20\n      add\n      0x00\n      keccak256\n      sload\n        /* \"Dcoffer/ERC721A/test.sol\":15801:15821  _mineInfo[to][2].add */\n      tag_187\n      swap1\n        /* \"Dcoffer/ERC721A/test.sol\":15801:15834  _mineInfo[to][2].add(powerNumber) */\n      swap2\n      swap1\n      0xffffffff\n      and\n      jump\t// in\n    tag_227:\n        /* \"Dcoffer/ERC721A/test.sol\":15782:15791  _mineInfo */\n      0x0d\n        /* \"Dcoffer/ERC721A/test.sol\":15782:15795  _mineInfo[to] */\n      0x00\n        /* \"Dcoffer/ERC721A/test.sol\":15792:15794  to */\n      dup6\n        /* \"Dcoffer/ERC721A/test.sol\":15782:15795  _mineInfo[to] */\n      0xffffffffffffffffffffffffffffffffffffffff\n      and\n      0xffffffffffffffffffffffffffffffffffffffff\n      and\n      dup2\n      mstore\n      0x20\n      add\n      swap1\n      dup2\n      mstore\n      0x20\n      add\n      0x00\n      keccak256\n        /* \"Dcoffer/ERC721A/test.sol\":15782:15798  _mineInfo[to][2] */\n      0x00\n        /* \"Dcoffer/ERC721A/test.sol\":15796:15797  2 */\n      0x02\n        /* \"Dcoffer/ERC721A/test.sol\":15782:15798  _mineInfo[to][2] */\n      dup2\n      mstore\n      0x20\n      add\n      swap1\n      dup2\n      mstore\n      0x20\n      add\n      0x00\n      keccak256\n        /* \"Dcoffer/ERC721A/test.sol\":15782:15834  _mineInfo[to][2] = _mineInfo[to][2].add(powerNumber) */\n      dup2\n      swap1\n      sstore\n      pop\n        /* \"Dcoffer/ERC721A/test.sol\":15864:15876  block.number */\n      number\n        /* \"Dcoffer/ERC721A/test.sol\":15845:15854  _mineInfo */\n      0x0d\n        /* \"Dcoffer/ERC721A/test.sol\":15845:15858  _mineInfo[to] */\n      0x00\n        /* \"Dcoffer/ERC721A/test.sol\":15855:15857  to */\n      dup6\n        /* \"Dcoffer/ERC721A/test.sol\":15845:15858  _mineInfo[to] */\n      0xffffffffffffffffffffffffffffffffffffffff\n      and\n      0xffffffffffffffffffffffffffffffffffffffff\n      and\n      dup2\n      mstore\n      0x20\n      add\n      swap1\n      dup2\n      mstore\n      0x20\n      add\n      0x00\n      keccak256\n        /* \"Dcoffer/ERC721A/test.sol\":15845:15861  _mineInfo[to][1] */\n      0x00\n        /* \"Dcoffer/ERC721A/test.sol\":15859:15860  1 */\n      0x01\n        /* \"Dcoffer/ERC721A/test.sol\":15845:15861  _mineInfo[to][1] */\n      dup2\n      mstore\n      0x20\n      add\n      swap1\n      dup2\n      mstore\n      0x20\n      add\n      0x00\n      keccak256\n        /* \"Dcoffer/ERC721A/test.sol\":15845:15876  _mineInfo[to][1] = block.number */\n      dup2\n      swap1\n      sstore\n      pop\n        /* \"Dcoffer/ERC721A/test.sol\":15911:15946  TokenOwnership memory prevOwnership */\n      0x00\n        /* \"Dcoffer/ERC721A/test.sol\":15949:15970  _ownershipOf(tokenId) */\n      tag_228\n        /* \"Dcoffer/ERC721A/test.sol\":15962:15969  tokenId */\n      dup4\n        /* \"Dcoffer/ERC721A/test.sol\":15949:15961  _ownershipOf */\n      tag_154\n        /* \"Dcoffer/ERC721A/test.sol\":15949:15970  _ownershipOf(tokenId) */\n      jump\t// in\n    tag_228:\n        /* \"Dcoffer/ERC721A/test.sol\":15911:15970  TokenOwnership memory prevOwnership = _ownershipOf(tokenId) */\n      swap1\n      pop\n        /* \"Dcoffer/ERC721A/test.sol\":16009:16013  from */\n      dup5\n        /* \"Dcoffer/ERC721A/test.sol\":15987:16013  prevOwnership.addr != from */\n      0xffffffffffffffffffffffffffffffffffffffff\n      and\n        /* \"Dcoffer/ERC721A/test.sol\":15987:16000  prevOwnership */\n      dup2\n        /* \"Dcoffer/ERC721A/test.sol\":15987:16005  prevOwnership.addr */\n      0x00\n      add\n      mload\n        /* \"Dcoffer/ERC721A/test.sol\":15987:16013  prevOwnership.addr != from */\n      0xffffffffffffffffffffffffffffffffffffffff\n      and\n      eq\n        /* \"Dcoffer/ERC721A/test.sol\":15983:16050  if (prevOwnership.addr != from) revert TransferFromIncorrectOwner() */\n      tag_229\n      jumpi\n        /* \"Dcoffer/ERC721A/test.sol\":16022:16050  TransferFromIncorrectOwner() */\n      mload(0x40)\n      0xa114810000000000000000000000000000000000000000000000000000000000\n      dup2\n      mstore\n      0x04\n      add\n      mload(0x40)\n      dup1\n      swap2\n      sub\n      swap1\n      revert\n        /* \"Dcoffer/ERC721A/test.sol\":15983:16050  if (prevOwnership.addr != from) revert TransferFromIncorrectOwner() */\n    tag_229:\n        /* \"Dcoffer/ERC721A/test.sol\":16063:16085  bool isApprovedOrOwner */\n      0x00\n        /* \"Dcoffer/ERC721A/test.sol\":16105:16109  from */\n      dup6\n        /* \"Dcoffer/ERC721A/test.sol\":16089:16109  _msgSender() == from */\n      0xffffffffffffffffffffffffffffffffffffffff\n      and\n        /* \"Dcoffer/ERC721A/test.sol\":16089:16101  _msgSender() */\n      tag_230\n        /* \"Dcoffer/ERC721A/test.sol\":16089:16099  _msgSender */\n      tag_129\n        /* \"Dcoffer/ERC721A/test.sol\":16089:16101  _msgSender() */\n      jump\t// in\n    tag_230:\n        /* \"Dcoffer/ERC721A/test.sol\":16089:16109  _msgSender() == from */\n      0xffffffffffffffffffffffffffffffffffffffff\n      and\n      eq\n        /* \"Dcoffer/ERC721A/test.sol\":16089:16162  _msgSender() == from ||... */\n      dup1\n      tag_231\n      jumpi\n      pop\n        /* \"Dcoffer/ERC721A/test.sol\":16126:16162  isApprovedForAll(from, _msgSender()) */\n      tag_232\n        /* \"Dcoffer/ERC721A/test.sol\":16143:16147  from */\n      dup7\n        /* \"Dcoffer/ERC721A/test.sol\":16149:16161  _msgSender() */\n      tag_233\n        /* \"Dcoffer/ERC721A/test.sol\":16149:16159  _msgSender */\n      tag_129\n        /* \"Dcoffer/ERC721A/test.sol\":16149:16161  _msgSender() */\n      jump\t// in\n    tag_233:\n        /* \"Dcoffer/ERC721A/test.sol\":16126:16142  isApprovedForAll */\n      tag_103\n        /* \"Dcoffer/ERC721A/test.sol\":16126:16162  isApprovedForAll(from, _msgSender()) */\n      jump\t// in\n    tag_232:\n        /* \"Dcoffer/ERC721A/test.sol\":16089:16162  _msgSender() == from ||... */\n    tag_231:\n        /* \"Dcoffer/ERC721A/test.sol\":16089:16215  _msgSender() == from ||... */\n      dup1\n      tag_234\n      jumpi\n      pop\n        /* \"Dcoffer/ERC721A/test.sol\":16203:16215  _msgSender() */\n      tag_235\n        /* \"Dcoffer/ERC721A/test.sol\":16203:16213  _msgSender */\n      tag_129\n        /* \"Dcoffer/ERC721A/test.sol\":16203:16215  _msgSender() */\n      jump\t// in\n    tag_235:\n        /* \"Dcoffer/ERC721A/test.sol\":16179:16215  getApproved(tokenId) == _msgSender() */\n      0xffffffffffffffffffffffffffffffffffffffff\n      and\n        /* \"Dcoffer/ERC721A/test.sol\":16179:16199  getApproved(tokenId) */\n      tag_236\n        /* \"Dcoffer/ERC721A/test.sol\":16191:16198  tokenId */\n      dup6\n        /* \"Dcoffer/ERC721A/test.sol\":16179:16190  getApproved */\n      tag_39\n        /* \"Dcoffer/ERC721A/test.sol\":16179:16199  getApproved(tokenId) */\n      jump\t// in\n    tag_236:\n        /* \"Dcoffer/ERC721A/test.sol\":16179:16215  getApproved(tokenId) == _msgSender() */\n      0xffffffffffffffffffffffffffffffffffffffff\n      and\n      eq\n        /* \"Dcoffer/ERC721A/test.sol\":16089:16215  _msgSender() == from ||... */\n    tag_234:\n        /* \"Dcoffer/ERC721A/test.sol\":16063:16216  bool isApprovedOrOwner = (_msgSender() == from ||... */\n      swap1\n      pop\n        /* \"Dcoffer/ERC721A/test.sol\":16234:16251  isApprovedOrOwner */\n      dup1\n        /* \"Dcoffer/ERC721A/test.sol\":16229:16295  if (!isApprovedOrOwner) revert TransferCallerNotOwnerNorApproved() */\n      tag_237\n      jumpi\n        /* \"Dcoffer/ERC721A/test.sol\":16260:16295  TransferCallerNotOwnerNorApproved() */\n      mload(0x40)\n      0x59c896be00000000000000000000000000000000000000000000000000000000\n      dup2\n      mstore\n      0x04\n      add\n      mload(0x40)\n      dup1\n      swap2\n      sub\n      swap1\n      revert\n        /* \"Dcoffer/ERC721A/test.sol\":16229:16295  if (!isApprovedOrOwner) revert TransferCallerNotOwnerNorApproved() */\n    tag_237:\n        /* \"Dcoffer/ERC721A/test.sol\":16324:16325  0 */\n      0x00\n        /* \"Dcoffer/ERC721A/test.sol\":16310:16326  to == address(0) */\n      0xffffffffffffffffffffffffffffffffffffffff\n      and\n        /* \"Dcoffer/ERC721A/test.sol\":16310:16312  to */\n      dup6\n        /* \"Dcoffer/ERC721A/test.sol\":16310:16326  to == address(0) */\n      0xffffffffffffffffffffffffffffffffffffffff\n      and\n      sub\n        /* \"Dcoffer/ERC721A/test.sol\":16306:16358  if (to == address(0)) revert TransferToZeroAddress() */\n      tag_238\n      jumpi\n        /* \"Dcoffer/ERC721A/test.sol\":16335:16358  TransferToZeroAddress() */\n      mload(0x40)\n      0xea553b3400000000000000000000000000000000000000000000000000000000\n      dup2\n      mstore\n      0x04\n      add\n      mload(0x40)\n      dup1\n      swap2\n      sub\n      swap1\n      revert\n        /* \"Dcoffer/ERC721A/test.sol\":16306:16358  if (to == address(0)) revert TransferToZeroAddress() */\n    tag_238:\n        /* \"Dcoffer/ERC721A/test.sol\":16371:16414  _beforeTokenTransfers(from, to, tokenId, 1) */\n      tag_239\n        /* \"Dcoffer/ERC721A/test.sol\":16393:16397  from */\n      dup7\n        /* \"Dcoffer/ERC721A/test.sol\":16399:16401  to */\n      dup7\n        /* \"Dcoffer/ERC721A/test.sol\":16403:16410  tokenId */\n      dup7\n        /* \"Dcoffer/ERC721A/test.sol\":16412:16413  1 */\n      0x01\n        /* \"Dcoffer/ERC721A/test.sol\":16371:16392  _beforeTokenTransfers */\n      tag_240\n        /* \"Dcoffer/ERC721A/test.sol\":16371:16414  _beforeTokenTransfers(from, to, tokenId, 1) */\n      jump\t// in\n    tag_239:\n        /* \"Dcoffer/ERC721A/test.sol\":16479:16514  _approve(address(0), tokenId, from) */\n      tag_241\n        /* \"Dcoffer/ERC721A/test.sol\":16496:16497  0 */\n      0x00\n        /* \"Dcoffer/ERC721A/test.sol\":16500:16507  tokenId */\n      dup6\n        /* \"Dcoffer/ERC721A/test.sol\":16509:16513  from */\n      dup9\n        /* \"Dcoffer/ERC721A/test.sol\":16479:16487  _approve */\n      tag_135\n        /* \"Dcoffer/ERC721A/test.sol\":16479:16514  _approve(address(0), tokenId, from) */\n      jump\t// in\n    tag_241:\n        /* \"Dcoffer/ERC721A/test.sol\":16840:16841  1 */\n      0x01\n        /* \"Dcoffer/ERC721A/test.sol\":16810:16822  _addressData */\n      0x0a\n        /* \"Dcoffer/ERC721A/test.sol\":16810:16828  _addressData[from] */\n      0x00\n        /* \"Dcoffer/ERC721A/test.sol\":16823:16827  from */\n      dup9\n        /* \"Dcoffer/ERC721A/test.sol\":16810:16828  _addressData[from] */\n      0xffffffffffffffffffffffffffffffffffffffff\n      and\n      0xffffffffffffffffffffffffffffffffffffffff\n      and\n      dup2\n      mstore\n      0x20\n      add\n      swap1\n      dup2\n      mstore\n      0x20\n      add\n      0x00\n      keccak256\n        /* \"Dcoffer/ERC721A/test.sol\":16810:16836  _addressData[from].balance */\n      0x00\n      add\n      0x00\n        /* \"Dcoffer/ERC721A/test.sol\":16810:16841  _addressData[from].balance -= 1 */\n      dup3\n      dup3\n      dup3\n      swap1\n      sload\n      swap1\n      0x0100\n      exp\n      swap1\n      div\n      0xffffffffffffffff\n      and\n      sub\n      swap3\n      pop\n      0x0100\n      exp\n      dup2\n      sload\n      dup2\n      0xffffffffffffffff\n      mul\n      not\n      and\n      swap1\n      dup4\n      0xffffffffffffffff\n      and\n      mul\n      or\n      swap1\n      sstore\n      pop\n        /* \"Dcoffer/ERC721A/test.sol\":16884:16885  1 */\n      0x01\n        /* \"Dcoffer/ERC721A/test.sol\":16856:16868  _addressData */\n      0x0a\n        /* \"Dcoffer/ERC721A/test.sol\":16856:16872  _addressData[to] */\n      0x00\n        /* \"Dcoffer/ERC721A/test.sol\":16869:16871  to */\n      dup8\n        /* \"Dcoffer/ERC721A/test.sol\":16856:16872  _addressData[to] */\n      0xffffffffffffffffffffffffffffffffffffffff\n      and\n      0xffffffffffffffffffffffffffffffffffffffff\n      and\n      dup2\n      mstore\n      0x20\n      add\n      swap1\n      dup2\n      mstore\n      0x20\n      add\n      0x00\n      keccak256\n        /* \"Dcoffer/ERC721A/test.sol\":16856:16880  _addressData[to].balance */\n      0x00\n      add\n      0x00\n        /* \"Dcoffer/ERC721A/test.sol\":16856:16885  _addressData[to].balance += 1 */\n      dup3\n      dup3\n      dup3\n      swap1\n      sload\n      swap1\n      0x0100\n      exp\n      swap1\n      div\n      0xffffffffffffffff\n      and\n      add\n      swap3\n      pop\n      0x0100\n      exp\n      dup2\n      sload\n      dup2\n      0xffffffffffffffff\n      mul\n      not\n      and\n      swap1\n      dup4\n      0xffffffffffffffff\n      and\n      mul\n      or\n      swap1\n      sstore\n      pop\n        /* \"Dcoffer/ERC721A/test.sol\":16902:16933  TokenOwnership storage currSlot */\n      0x00\n        /* \"Dcoffer/ERC721A/test.sol\":16936:16947  _ownerships */\n      0x09\n        /* \"Dcoffer/ERC721A/test.sol\":16936:16956  _ownerships[tokenId] */\n      0x00\n        /* \"Dcoffer/ERC721A/test.sol\":16948:16955  tokenId */\n      dup7\n        /* \"Dcoffer/ERC721A/test.sol\":16936:16956  _ownerships[tokenId] */\n      dup2\n      mstore\n      0x20\n      add\n      swap1\n      dup2\n      mstore\n      0x20\n      add\n      0x00\n      keccak256\n        /* \"Dcoffer/ERC721A/test.sol\":16902:16956  TokenOwnership storage currSlot = _ownerships[tokenId] */\n      swap1\n      pop\n        /* \"Dcoffer/ERC721A/test.sol\":16987:16989  to */\n      dup6\n        /* \"Dcoffer/ERC721A/test.sol\":16971:16979  currSlot */\n      dup2\n        /* \"Dcoffer/ERC721A/test.sol\":16971:16984  currSlot.addr */\n      0x00\n      add\n      0x00\n        /* \"Dcoffer/ERC721A/test.sol\":16971:16989  currSlot.addr = to */\n      0x0100\n      exp\n      dup2\n      sload\n      dup2\n      0xffffffffffffffffffffffffffffffffffffffff\n      mul\n      not\n      and\n      swap1\n      dup4\n      0xffffffffffffffffffffffffffffffffffffffff\n      and\n      mul\n      or\n      swap1\n      sstore\n      pop\n        /* \"Dcoffer/ERC721A/test.sol\":17037:17052  block.timestamp */\n      timestamp\n        /* \"Dcoffer/ERC721A/test.sol\":17004:17012  currSlot */\n      dup2\n        /* \"Dcoffer/ERC721A/test.sol\":17004:17027  currSlot.startTimestamp */\n      0x00\n      add\n      0x14\n        /* \"Dcoffer/ERC721A/test.sol\":17004:17053  currSlot.startTimestamp = uint64(block.timestamp) */\n      0x0100\n      exp\n      dup2\n      sload\n      dup2\n      0xffffffffffffffff\n      mul\n      not\n      and\n      swap1\n      dup4\n      0xffffffffffffffff\n      and\n      mul\n      or\n      swap1\n      sstore\n      pop\n        /* \"Dcoffer/ERC721A/test.sol\":17305:17324  uint256 nextTokenId */\n      0x00\n        /* \"Dcoffer/ERC721A/test.sol\":17337:17338  1 */\n      0x01\n        /* \"Dcoffer/ERC721A/test.sol\":17327:17334  tokenId */\n      dup7\n        /* \"Dcoffer/ERC721A/test.sol\":17327:17338  tokenId + 1 */\n      add\n        /* \"Dcoffer/ERC721A/test.sol\":17305:17338  uint256 nextTokenId = tokenId + 1 */\n      swap1\n      pop\n        /* \"Dcoffer/ERC721A/test.sol\":17353:17384  TokenOwnership storage nextSlot */\n      0x00\n        /* \"Dcoffer/ERC721A/test.sol\":17387:17398  _ownerships */\n      0x09\n        /* \"Dcoffer/ERC721A/test.sol\":17387:17411  _ownerships[nextTokenId] */\n      0x00\n        /* \"Dcoffer/ERC721A/test.sol\":17399:17410  nextTokenId */\n      dup4\n        /* \"Dcoffer/ERC721A/test.sol\":17387:17411  _ownerships[nextTokenId] */\n      dup2\n      mstore\n      0x20\n      add\n      swap1\n      dup2\n      mstore\n      0x20\n      add\n      0x00\n      keccak256\n        /* \"Dcoffer/ERC721A/test.sol\":17353:17411  TokenOwnership storage nextSlot = _ownerships[nextTokenId] */\n      swap1\n      pop\n        /* \"Dcoffer/ERC721A/test.sol\":17455:17456  0 */\n      0x00\n        /* \"Dcoffer/ERC721A/test.sol\":17430:17457  nextSlot.addr == address(0) */\n      0xffffffffffffffffffffffffffffffffffffffff\n      and\n        /* \"Dcoffer/ERC721A/test.sol\":17430:17438  nextSlot */\n      dup2\n        /* \"Dcoffer/ERC721A/test.sol\":17430:17443  nextSlot.addr */\n      0x00\n      add\n      0x00\n      swap1\n      sload\n      swap1\n      0x0100\n      exp\n      swap1\n      div\n      0xffffffffffffffffffffffffffffffffffffffff\n      and\n        /* \"Dcoffer/ERC721A/test.sol\":17430:17457  nextSlot.addr == address(0) */\n      0xffffffffffffffffffffffffffffffffffffffff\n      and\n      sub\n        /* \"Dcoffer/ERC721A/test.sol\":17426:17810  if (nextSlot.addr == address(0)) {... */\n      tag_242\n      jumpi\n        /* \"Dcoffer/ERC721A/test.sol\":17640:17653  _currentIndex */\n      sload(0x04)\n        /* \"Dcoffer/ERC721A/test.sol\":17625:17636  nextTokenId */\n      dup3\n        /* \"Dcoffer/ERC721A/test.sol\":17625:17653  nextTokenId != _currentIndex */\n      eq\n        /* \"Dcoffer/ERC721A/test.sol\":17621:17795  if (nextTokenId != _currentIndex) {... */\n      tag_243\n      jumpi\n        /* \"Dcoffer/ERC721A/test.sol\":17694:17698  from */\n      dup9\n        /* \"Dcoffer/ERC721A/test.sol\":17678:17686  nextSlot */\n      dup2\n        /* \"Dcoffer/ERC721A/test.sol\":17678:17691  nextSlot.addr */\n      0x00\n      add\n      0x00\n        /* \"Dcoffer/ERC721A/test.sol\":17678:17698  nextSlot.addr = from */\n      0x0100\n      exp\n      dup2\n      sload\n      dup2\n      0xffffffffffffffffffffffffffffffffffffffff\n      mul\n      not\n      and\n      swap1\n      dup4\n      0xffffffffffffffffffffffffffffffffffffffff\n      and\n      mul\n      or\n      swap1\n      sstore\n      pop\n        /* \"Dcoffer/ERC721A/test.sol\":17747:17760  prevOwnership */\n      dup5\n        /* \"Dcoffer/ERC721A/test.sol\":17747:17775  prevOwnership.startTimestamp */\n      0x20\n      add\n      mload\n        /* \"Dcoffer/ERC721A/test.sol\":17721:17729  nextSlot */\n      dup2\n        /* \"Dcoffer/ERC721A/test.sol\":17721:17744  nextSlot.startTimestamp */\n      0x00\n      add\n      0x14\n        /* \"Dcoffer/ERC721A/test.sol\":17721:17775  nextSlot.startTimestamp = prevOwnership.startTimestamp */\n      0x0100\n      exp\n      dup2\n      sload\n      dup2\n      0xffffffffffffffff\n      mul\n      not\n      and\n      swap1\n      dup4\n      0xffffffffffffffff\n      and\n      mul\n      or\n      swap1\n      sstore\n      pop\n        /* \"Dcoffer/ERC721A/test.sol\":17621:17795  if (nextTokenId != _currentIndex) {... */\n    tag_243:\n        /* \"Dcoffer/ERC721A/test.sol\":17426:17810  if (nextSlot.addr == address(0)) {... */\n    tag_242:\n        /* \"Dcoffer/ERC721A/test.sol\":16785:17821  unchecked {... */\n      pop\n      pop\n      pop\n        /* \"Dcoffer/ERC721A/test.sol\":17857:17864  tokenId */\n      dup4\n        /* \"Dcoffer/ERC721A/test.sol\":17853:17855  to */\n      dup6\n        /* \"Dcoffer/ERC721A/test.sol\":17838:17865  Transfer(from, to, tokenId) */\n      0xffffffffffffffffffffffffffffffffffffffff\n      and\n        /* \"Dcoffer/ERC721A/test.sol\":17847:17851  from */\n      dup8\n        /* \"Dcoffer/ERC721A/test.sol\":17838:17865  Transfer(from, to, tokenId) */\n      0xffffffffffffffffffffffffffffffffffffffff\n      and\n      0xddf252ad1be2c89b69c2b068fc378daa952ba7f163c4a11628f55a4df523b3ef\n      mload(0x40)\n      mload(0x40)\n      dup1\n      swap2\n      sub\n      swap1\n      log4\n        /* \"Dcoffer/ERC721A/test.sol\":17876:17918  _afterTokenTransfers(from, to, tokenId, 1) */\n      tag_244\n        /* \"Dcoffer/ERC721A/test.sol\":17897:17901  from */\n      dup7\n        /* \"Dcoffer/ERC721A/test.sol\":17903:17905  to */\n      dup7\n        /* \"Dcoffer/ERC721A/test.sol\":17907:17914  tokenId */\n      dup7\n        /* \"Dcoffer/ERC721A/test.sol\":17916:17917  1 */\n      0x01\n        /* \"Dcoffer/ERC721A/test.sol\":17876:17896  _afterTokenTransfers */\n      tag_245\n        /* \"Dcoffer/ERC721A/test.sol\":17876:17918  _afterTokenTransfers(from, to, tokenId, 1) */\n      jump\t// in\n    tag_244:\n        /* \"Dcoffer/ERC721A/test.sol\":15502:17926  {  ... */\n      pop\n      pop\n      pop\n        /* \"Dcoffer/ERC721A/test.sol\":15398:17926  function _transfer(... */\n      pop\n      pop\n      pop\n      jump\t// out\n        /* \"@openzeppelin/contracts/utils/math/SafeMath.sol\":3465:3561  function mul(uint256 a, uint256 b) internal pure returns (uint256) {... */\n    tag_147:\n        /* \"@openzeppelin/contracts/utils/math/SafeMath.sol\":3523:3530  uint256 */\n      0x00\n        /* \"@openzeppelin/contracts/utils/math/SafeMath.sol\":3553:3554  b */\n      dup2\n        /* \"@openzeppelin/contracts/utils/math/SafeMath.sol\":3549:3550  a */\n      dup4\n        /* \"@openzeppelin/contracts/utils/math/SafeMath.sol\":3549:3554  a * b */\n      tag_247\n      swap2\n      swap1\n      tag_248\n      jump\t// in\n    tag_247:\n        /* \"@openzeppelin/contracts/utils/math/SafeMath.sol\":3542:3554  return a * b */\n      swap1\n      pop\n        /* \"@openzeppelin/contracts/utils/math/SafeMath.sol\":3465:3561  function mul(uint256 a, uint256 b) internal pure returns (uint256) {... */\n      swap3\n      swap2\n      pop\n      pop\n      jump\t// out\n        /* \"@openzeppelin/contracts/utils/math/SafeMath.sol\":3850:3946  function div(uint256 a, uint256 b) internal pure returns (uint256) {... */\n    tag_150:\n        /* \"@openzeppelin/contracts/utils/math/SafeMath.sol\":3908:3915  uint256 */\n      0x00\n        /* \"@openzeppelin/contracts/utils/math/SafeMath.sol\":3938:3939  b */\n      dup2\n        /* \"@openzeppelin/contracts/utils/math/SafeMath.sol\":3934:3935  a */\n      dup4\n        /* \"@openzeppelin/contracts/utils/math/SafeMath.sol\":3934:3939  a / b */\n      tag_250\n      swap2\n      swap1\n      tag_251\n      jump\t// in\n    tag_250:\n        /* \"@openzeppelin/contracts/utils/math/SafeMath.sol\":3927:3939  return a / b */\n      swap1\n      pop\n        /* \"@openzeppelin/contracts/utils/math/SafeMath.sol\":3850:3946  function div(uint256 a, uint256 b) internal pure returns (uint256) {... */\n      swap3\n      swap2\n      pop\n      pop\n      jump\t// out\n        /* \"Dcoffer/ERC721A/test.sol\":7475:8586  function _ownershipOf(uint256 tokenId) internal view returns (TokenOwnership memory) {... */\n    tag_154:\n        /* \"Dcoffer/ERC721A/test.sol\":7537:7558  TokenOwnership memory */\n      tag_252\n      tag_253\n      jump\t// in\n    tag_252:\n        /* \"Dcoffer/ERC721A/test.sol\":7571:7583  uint256 curr */\n      0x00\n        /* \"Dcoffer/ERC721A/test.sol\":7586:7593  tokenId */\n      dup3\n        /* \"Dcoffer/ERC721A/test.sol\":7571:7593  uint256 curr = tokenId */\n      swap1\n      pop\n        /* \"Dcoffer/ERC721A/test.sol\":7654:7658  curr */\n      dup1\n        /* \"Dcoffer/ERC721A/test.sol\":7635:7650  _startTokenId() */\n      tag_255\n        /* \"Dcoffer/ERC721A/test.sol\":7635:7648  _startTokenId */\n      tag_138\n        /* \"Dcoffer/ERC721A/test.sol\":7635:7650  _startTokenId() */\n      jump\t// in\n    tag_255:\n        /* \"Dcoffer/ERC721A/test.sol\":7635:7658  _startTokenId() <= curr */\n      gt\n        /* \"Dcoffer/ERC721A/test.sol\":7631:8519  if (_startTokenId() <= curr) if (curr < _currentIndex) {... */\n      tag_256\n      jumpi\n        /* \"Dcoffer/ERC721A/test.sol\":7671:7684  _currentIndex */\n      sload(0x04)\n        /* \"Dcoffer/ERC721A/test.sol\":7664:7668  curr */\n      dup2\n        /* \"Dcoffer/ERC721A/test.sol\":7664:7684  curr < _currentIndex */\n      lt\n        /* \"Dcoffer/ERC721A/test.sol\":7660:8519  if (curr < _currentIndex) {... */\n      iszero\n      tag_257\n      jumpi\n        /* \"Dcoffer/ERC721A/test.sol\":7705:7736  TokenOwnership memory ownership */\n      0x00\n        /* \"Dcoffer/ERC721A/test.sol\":7739:7750  _ownerships */\n      0x09\n        /* \"Dcoffer/ERC721A/test.sol\":7739:7756  _ownerships[curr] */\n      0x00\n        /* \"Dcoffer/ERC721A/test.sol\":7751:7755  curr */\n      dup4\n        /* \"Dcoffer/ERC721A/test.sol\":7739:7756  _ownerships[curr] */\n      dup2\n      mstore\n      0x20\n      add\n      swap1\n      dup2\n      mstore\n      0x20\n      add\n      0x00\n      keccak256\n        /* \"Dcoffer/ERC721A/test.sol\":7705:7756  TokenOwnership memory ownership = _ownerships[curr] */\n      mload(0x40)\n      dup1\n      0x60\n      add\n      0x40\n      mstore\n      swap1\n      dup2\n      0x00\n      dup3\n      add\n      0x00\n      swap1\n      sload\n      swap1\n      0x0100\n      exp\n      swap1\n      div\n      0xffffffffffffffffffffffffffffffffffffffff\n      and\n      0xffffffffffffffffffffffffffffffffffffffff\n      and\n      0xffffffffffffffffffffffffffffffffffffffff\n      and\n      dup2\n      mstore\n      0x20\n      add\n      0x00\n      dup3\n      add\n      0x14\n      swap1\n      sload\n      swap1\n      0x0100\n      exp\n      swap1\n      div\n      0xffffffffffffffff\n      and\n      0xffffffffffffffff\n      and\n      0xffffffffffffffff\n      and\n      dup2\n      mstore\n      0x20\n      add\n      0x00\n      dup3\n      add\n      0x1c\n      swap1\n      sload\n      swap1\n      0x0100\n      exp\n      swap1\n      div\n      0xff\n      and\n      iszero\n      iszero\n      iszero\n      iszero\n      dup2\n      mstore\n      pop\n      pop\n      swap1\n      pop\n        /* \"Dcoffer/ERC721A/test.sol\":7780:7789  ownership */\n      dup1\n        /* \"Dcoffer/ERC721A/test.sol\":7780:7796  ownership.burned */\n      0x40\n      add\n      mload\n        /* \"Dcoffer/ERC721A/test.sol\":7775:8504  if (!ownership.burned) {... */\n      tag_258\n      jumpi\n        /* \"Dcoffer/ERC721A/test.sol\":7851:7852  0 */\n      0x00\n        /* \"Dcoffer/ERC721A/test.sol\":7825:7853  ownership.addr != address(0) */\n      0xffffffffffffffffffffffffffffffffffffffff\n      and\n        /* \"Dcoffer/ERC721A/test.sol\":7825:7834  ownership */\n      dup2\n        /* \"Dcoffer/ERC721A/test.sol\":7825:7839  ownership.addr */\n      0x00\n      add\n      mload\n        /* \"Dcoffer/ERC721A/test.sol\":7825:7853  ownership.addr != address(0) */\n      0xffffffffffffffffffffffffffffffffffffffff\n      and\n      eq\n        /* \"Dcoffer/ERC721A/test.sol\":7821:7922  if (ownership.addr != address(0)) {... */\n      tag_259\n      jumpi\n        /* \"Dcoffer/ERC721A/test.sol\":7889:7898  ownership */\n      dup1\n        /* \"Dcoffer/ERC721A/test.sol\":7882:7898  return ownership */\n      swap3\n      pop\n      pop\n      pop\n      jump(tag_254)\n        /* \"Dcoffer/ERC721A/test.sol\":7821:7922  if (ownership.addr != address(0)) {... */\n    tag_259:\n        /* \"Dcoffer/ERC721A/test.sol\":8224:8485  while (true) {... */\n    tag_260:\n        /* \"Dcoffer/ERC721A/test.sol\":8231:8235  true */\n      0x01\n        /* \"Dcoffer/ERC721A/test.sol\":8224:8485  while (true) {... */\n      iszero\n      tag_261\n      jumpi\n        /* \"Dcoffer/ERC721A/test.sol\":8264:8270  curr-- */\n      dup2\n      dup1\n      0x01\n      swap1\n      sub\n      swap3\n      pop\n      pop\n        /* \"Dcoffer/ERC721A/test.sol\":8309:8320  _ownerships */\n      0x09\n        /* \"Dcoffer/ERC721A/test.sol\":8309:8326  _ownerships[curr] */\n      0x00\n        /* \"Dcoffer/ERC721A/test.sol\":8321:8325  curr */\n      dup4\n        /* \"Dcoffer/ERC721A/test.sol\":8309:8326  _ownerships[curr] */\n      dup2\n      mstore\n      0x20\n      add\n      swap1\n      dup2\n      mstore\n      0x20\n      add\n      0x00\n      keccak256\n        /* \"Dcoffer/ERC721A/test.sol\":8297:8326  ownership = _ownerships[curr] */\n      mload(0x40)\n      dup1\n      0x60\n      add\n      0x40\n      mstore\n      swap1\n      dup2\n      0x00\n      dup3\n      add\n      0x00\n      swap1\n      sload\n      swap1\n      0x0100\n      exp\n      swap1\n      div\n      0xffffffffffffffffffffffffffffffffffffffff\n      and\n      0xffffffffffffffffffffffffffffffffffffffff\n      and\n      0xffffffffffffffffffffffffffffffffffffffff\n      and\n      dup2\n      mstore\n      0x20\n      add\n      0x00\n      dup3\n      add\n      0x14\n      swap1\n      sload\n      swap1\n      0x0100\n      exp\n      swap1\n      div\n      0xffffffffffffffff\n      and\n      0xffffffffffffffff\n      and\n      0xffffffffffffffff\n      and\n      dup2\n      mstore\n      0x20\n      add\n      0x00\n      dup3\n      add\n      0x1c\n      swap1\n      sload\n      swap1\n      0x0100\n      exp\n      swap1\n      div\n      0xff\n      and\n      iszero\n      iszero\n      iszero\n      iszero\n      dup2\n      mstore\n      pop\n      pop\n      swap1\n      pop\n        /* \"Dcoffer/ERC721A/test.sol\":8383:8384  0 */\n      0x00\n        /* \"Dcoffer/ERC721A/test.sol\":8357:8385  ownership.addr != address(0) */\n      0xffffffffffffffffffffffffffffffffffffffff\n      and\n        /* \"Dcoffer/ERC721A/test.sol\":8357:8366  ownership */\n      dup2\n        /* \"Dcoffer/ERC721A/test.sol\":8357:8371  ownership.addr */\n      0x00\n      add\n      mload\n        /* \"Dcoffer/ERC721A/test.sol\":8357:8385  ownership.addr != address(0) */\n      0xffffffffffffffffffffffffffffffffffffffff\n      and\n      eq\n        /* \"Dcoffer/ERC721A/test.sol\":8353:8462  if (ownership.addr != address(0)) {... */\n      tag_262\n      jumpi\n        /* \"Dcoffer/ERC721A/test.sol\":8425:8434  ownership */\n      dup1\n        /* \"Dcoffer/ERC721A/test.sol\":8418:8434  return ownership */\n      swap3\n      pop\n      pop\n      pop\n      jump(tag_254)\n        /* \"Dcoffer/ERC721A/test.sol\":8353:8462  if (ownership.addr != address(0)) {... */\n    tag_262:\n        /* \"Dcoffer/ERC721A/test.sol\":8224:8485  while (true) {... */\n      jump(tag_260)\n    tag_261:\n        /* \"Dcoffer/ERC721A/test.sol\":7775:8504  if (!ownership.burned) {... */\n    tag_258:\n        /* \"Dcoffer/ERC721A/test.sol\":7686:8519  {... */\n      pop\n        /* \"Dcoffer/ERC721A/test.sol\":7660:8519  if (curr < _currentIndex) {... */\n    tag_257:\n        /* \"Dcoffer/ERC721A/test.sol\":7631:8519  if (_startTokenId() <= curr) if (curr < _currentIndex) {... */\n    tag_256:\n        /* \"Dcoffer/ERC721A/test.sol\":8547:8578  OwnerQueryForNonexistentToken() */\n      mload(0x40)\n      0xdf2d9b4200000000000000000000000000000000000000000000000000000000\n      dup2\n      mstore\n      0x04\n      add\n      mload(0x40)\n      dup1\n      swap2\n      sub\n      swap1\n      revert\n        /* \"Dcoffer/ERC721A/test.sol\":7475:8586  function _ownershipOf(uint256 tokenId) internal view returns (TokenOwnership memory) {... */\n    tag_254:\n      swap2\n      swap1\n      pop\n      jump\t// out\n        /* \"@openzeppelin/contracts/utils/Address.sol\":1175:1495  function isContract(address account) internal view returns (bool) {... */\n    tag_174:\n        /* \"@openzeppelin/contracts/utils/Address.sol\":1235:1239  bool */\n      0x00\n        /* \"@openzeppelin/contracts/utils/Address.sol\":1487:1488  0 */\n      dup1\n        /* \"@openzeppelin/contracts/utils/Address.sol\":1465:1472  account */\n      dup3\n        /* \"@openzeppelin/contracts/utils/Address.sol\":1465:1484  account.code.length */\n      0xffffffffffffffffffffffffffffffffffffffff\n      and\n      extcodesize\n        /* \"@openzeppelin/contracts/utils/Address.sol\":1465:1488  account.code.length > 0 */\n      gt\n        /* \"@openzeppelin/contracts/utils/Address.sol\":1458:1488  return account.code.length > 0 */\n      swap1\n      pop\n        /* \"@openzeppelin/contracts/utils/Address.sol\":1175:1495  function isContract(address account) internal view returns (bool) {... */\n      swap2\n      swap1\n      pop\n      jump\t// out\n        /* \"Dcoffer/ERC721A/test.sol\":21858:22525  function _checkContractOnERC721Received(... */\n    tag_177:\n        /* \"Dcoffer/ERC721A/test.sol\":22021:22025  bool */\n      0x00\n        /* \"Dcoffer/ERC721A/test.sol\":22058:22060  to */\n      dup4\n        /* \"Dcoffer/ERC721A/test.sol\":22042:22078  IERC721Receiver(to).onERC721Received */\n      0xffffffffffffffffffffffffffffffffffffffff\n      and\n      0x150b7a02\n        /* \"Dcoffer/ERC721A/test.sol\":22079:22091  _msgSender() */\n      tag_265\n        /* \"Dcoffer/ERC721A/test.sol\":22079:22089  _msgSender */\n      tag_129\n        /* \"Dcoffer/ERC721A/test.sol\":22079:22091  _msgSender() */\n      jump\t// in\n    tag_265:\n        /* \"Dcoffer/ERC721A/test.sol\":22093:22097  from */\n      dup8\n        /* \"Dcoffer/ERC721A/test.sol\":22099:22106  tokenId */\n      dup7\n        /* \"Dcoffer/ERC721A/test.sol\":22108:22113  _data */\n      dup7\n        /* \"Dcoffer/ERC721A/test.sol\":22042:22114  IERC721Receiver(to).onERC721Received(_msgSender(), from, tokenId, _data) */\n      mload(0x40)\n      dup6\n      0xffffffff\n      and\n      0xe0\n      shl\n      dup2\n      mstore\n      0x04\n      add\n      tag_266\n      swap5\n      swap4\n      swap3\n      swap2\n      swap1\n      tag_267\n      jump\t// in\n    tag_266:\n      0x20\n      mload(0x40)\n      dup1\n      dup4\n      sub\n      dup2\n      0x00\n      dup8\n      gas\n      call\n      swap3\n      pop\n      pop\n      pop\n      dup1\n      iszero\n      tag_268\n      jumpi\n      pop\n      mload(0x40)\n      returndatasize\n      not(0x1f)\n      0x1f\n      dup3\n      add\n      and\n      dup3\n      add\n      dup1\n      0x40\n      mstore\n      pop\n      dup2\n      add\n      swap1\n      tag_269\n      swap2\n      swap1\n      tag_270\n      jump\t// in\n    tag_269:\n      0x01\n    tag_268:\n        /* \"Dcoffer/ERC721A/test.sol\":22038:22518  try IERC721Receiver(to).onERC721Received(_msgSender(), from, tokenId, _data) returns (bytes4 retval) {... */\n      tag_271\n      jumpi\n      returndatasize\n      dup1\n      0x00\n      dup2\n      eq\n      tag_276\n      jumpi\n      mload(0x40)\n      swap2\n      pop\n      and(add(returndatasize, 0x3f), not(0x1f))\n      dup3\n      add\n      0x40\n      mstore\n      returndatasize\n      dup3\n      mstore\n      returndatasize\n      0x00\n      0x20\n      dup5\n      add\n      returndatacopy\n      jump(tag_275)\n    tag_276:\n      0x60\n      swap2\n      pop\n    tag_275:\n      pop\n        /* \"Dcoffer/ERC721A/test.sol\":22293:22294  0 */\n      0x00\n        /* \"Dcoffer/ERC721A/test.sol\":22276:22282  reason */\n      dup2\n        /* \"Dcoffer/ERC721A/test.sol\":22276:22289  reason.length */\n      mload\n        /* \"Dcoffer/ERC721A/test.sol\":22276:22294  reason.length == 0 */\n      sub\n        /* \"Dcoffer/ERC721A/test.sol\":22272:22507  if (reason.length == 0) {... */\n      tag_277\n      jumpi\n        /* \"Dcoffer/ERC721A/test.sol\":22322:22362  TransferToNonERC721ReceiverImplementer() */\n      mload(0x40)\n      0xd1a57ed600000000000000000000000000000000000000000000000000000000\n      dup2\n      mstore\n      0x04\n      add\n      mload(0x40)\n      dup1\n      swap2\n      sub\n      swap1\n      revert\n        /* \"Dcoffer/ERC721A/test.sol\":22272:22507  if (reason.length == 0) {... */\n    tag_277:\n        /* \"Dcoffer/ERC721A/test.sol\":22465:22471  reason */\n      dup1\n        /* \"Dcoffer/ERC721A/test.sol\":22459:22472  mload(reason) */\n      mload\n        /* \"Dcoffer/ERC721A/test.sol\":22450:22456  reason */\n      dup2\n        /* \"Dcoffer/ERC721A/test.sol\":22446:22448  32 */\n      0x20\n        /* \"Dcoffer/ERC721A/test.sol\":22442:22457  add(32, reason) */\n      add\n        /* \"Dcoffer/ERC721A/test.sol\":22435:22473  revert(add(32, reason), mload(reason)) */\n      revert\n        /* \"Dcoffer/ERC721A/test.sol\":22038:22518  try IERC721Receiver(to).onERC721Received(_msgSender(), from, tokenId, _data) returns (bytes4 retval) {... */\n    tag_271:\n        /* \"Dcoffer/ERC721A/test.sol\":22171:22216  IERC721Receiver(to).onERC721Received.selector */\n      shl(0xe0, 0x150b7a02)\n        /* \"Dcoffer/ERC721A/test.sol\":22161:22216  retval == IERC721Receiver(to).onERC721Received.selector */\n      not(0xffffffffffffffffffffffffffffffffffffffffffffffffffffffff)\n      and\n        /* \"Dcoffer/ERC721A/test.sol\":22161:22167  retval */\n      dup2\n        /* \"Dcoffer/ERC721A/test.sol\":22161:22216  retval == IERC721Receiver(to).onERC721Received.selector */\n      not(0xffffffffffffffffffffffffffffffffffffffffffffffffffffffff)\n      and\n      eq\n        /* \"Dcoffer/ERC721A/test.sol\":22154:22216  return retval == IERC721Receiver(to).onERC721Received.selector */\n      swap2\n      pop\n      pop\n        /* \"Dcoffer/ERC721A/test.sol\":21858:22525  function _checkContractOnERC721Received(... */\n      swap5\n      swap4\n      pop\n      pop\n      pop\n      pop\n      jump\t// out\n        /* \"@openzeppelin/contracts/utils/math/SafeMath.sol\":3122:3218  function sub(uint256 a, uint256 b) internal pure returns (uint256) {... */\n    tag_181:\n        /* \"@openzeppelin/contracts/utils/math/SafeMath.sol\":3180:3187  uint256 */\n      0x00\n        /* \"@openzeppelin/contracts/utils/math/SafeMath.sol\":3210:3211  b */\n      dup2\n        /* \"@openzeppelin/contracts/utils/math/SafeMath.sol\":3206:3207  a */\n      dup4\n        /* \"@openzeppelin/contracts/utils/math/SafeMath.sol\":3206:3211  a - b */\n      tag_281\n      swap2\n      swap1\n      tag_282\n      jump\t// in\n    tag_281:\n        /* \"@openzeppelin/contracts/utils/math/SafeMath.sol\":3199:3211  return a - b */\n      swap1\n      pop\n        /* \"@openzeppelin/contracts/utils/math/SafeMath.sol\":3122:3218  function sub(uint256 a, uint256 b) internal pure returns (uint256) {... */\n      swap3\n      swap2\n      pop\n      pop\n      jump\t// out\n        /* \"@openzeppelin/contracts/utils/math/SafeMath.sol\":2755:2851  function add(uint256 a, uint256 b) internal pure returns (uint256) {... */\n    tag_187:\n        /* \"@openzeppelin/contracts/utils/math/SafeMath.sol\":2813:2820  uint256 */\n      0x00\n        /* \"@openzeppelin/contracts/utils/math/SafeMath.sol\":2843:2844  b */\n      dup2\n        /* \"@openzeppelin/contracts/utils/math/SafeMath.sol\":2839:2840  a */\n      dup4\n        /* \"@openzeppelin/contracts/utils/math/SafeMath.sol\":2839:2844  a + b */\n      tag_284\n      swap2\n      swap1\n      tag_285\n      jump\t// in\n    tag_284:\n        /* \"@openzeppelin/contracts/utils/math/SafeMath.sol\":2832:2844  return a + b */\n      swap1\n      pop\n        /* \"@openzeppelin/contracts/utils/math/SafeMath.sol\":2755:2851  function add(uint256 a, uint256 b) internal pure returns (uint256) {... */\n      swap3\n      swap2\n      pop\n      pop\n      jump\t// out\n        /* \"Dcoffer/ERC721A/test.sol\":9750:9935  function _baseURI() internal view virtual returns (string memory) {... */\n    tag_195:\n        /* \"Dcoffer/ERC721A/test.sol\":9801:9814  string memory */\n      0x60\n        /* \"Dcoffer/ERC721A/test.sol\":9827:9917  return 'https://gateway.pinata.cloud/ipfs/QmeyKnvXXMxAuWG5pt35Ez8QhJhR63RDVSwUfsjKayR42Z/' */\n      mload(0x40)\n      dup1\n      0x80\n      add\n      0x40\n      mstore\n      dup1\n      0x51\n      dup2\n      mstore\n      0x20\n      add\n      data_626642f6930f156f677ccaa99d1115840f2527d6f062eede1de4dda1bd081a2d\n      0x51\n      swap2\n      codecopy\n      swap1\n      pop\n        /* \"Dcoffer/ERC721A/test.sol\":9750:9935  function _baseURI() internal view virtual returns (string memory) {... */\n      swap1\n      jump\t// out\n        /* \"@openzeppelin/contracts/utils/Strings.sol\":392:1095  function toString(uint256 value) internal pure returns (string memory) {... */\n    tag_199:\n        /* \"@openzeppelin/contracts/utils/Strings.sol\":448:461  string memory */\n      0x60\n        /* \"@openzeppelin/contracts/utils/Strings.sol\":674:675  0 */\n      0x00\n        /* \"@openzeppelin/contracts/utils/Strings.sol\":665:670  value */\n      dup3\n        /* \"@openzeppelin/contracts/utils/Strings.sol\":665:675  value == 0 */\n      sub\n        /* \"@openzeppelin/contracts/utils/Strings.sol\":661:712  if (value == 0) {... */\n      tag_288\n      jumpi\n        /* \"@openzeppelin/contracts/utils/Strings.sol\":691:701  return \"0\" */\n      mload(0x40)\n      dup1\n      0x40\n      add\n      0x40\n      mstore\n      dup1\n      0x01\n      dup2\n      mstore\n      0x20\n      add\n      0x3000000000000000000000000000000000000000000000000000000000000000\n      dup2\n      mstore\n      pop\n      swap1\n      pop\n      jump(tag_287)\n        /* \"@openzeppelin/contracts/utils/Strings.sol\":661:712  if (value == 0) {... */\n    tag_288:\n        /* \"@openzeppelin/contracts/utils/Strings.sol\":721:733  uint256 temp */\n      0x00\n        /* \"@openzeppelin/contracts/utils/Strings.sol\":736:741  value */\n      dup3\n        /* \"@openzeppelin/contracts/utils/Strings.sol\":721:741  uint256 temp = value */\n      swap1\n      pop\n        /* \"@openzeppelin/contracts/utils/Strings.sol\":751:765  uint256 digits */\n      0x00\n        /* \"@openzeppelin/contracts/utils/Strings.sol\":775:850  while (temp != 0) {... */\n    tag_289:\n        /* \"@openzeppelin/contracts/utils/Strings.sol\":790:791  0 */\n      0x00\n        /* \"@openzeppelin/contracts/utils/Strings.sol\":782:786  temp */\n      dup3\n        /* \"@openzeppelin/contracts/utils/Strings.sol\":782:791  temp != 0 */\n      eq\n        /* \"@openzeppelin/contracts/utils/Strings.sol\":775:850  while (temp != 0) {... */\n      tag_290\n      jumpi\n        /* \"@openzeppelin/contracts/utils/Strings.sol\":807:815  digits++ */\n      dup1\n      dup1\n      tag_291\n      swap1\n      tag_292\n      jump\t// in\n    tag_291:\n      swap2\n      pop\n      pop\n        /* \"@openzeppelin/contracts/utils/Strings.sol\":837:839  10 */\n      0x0a\n        /* \"@openzeppelin/contracts/utils/Strings.sol\":829:839  temp /= 10 */\n      dup3\n      tag_293\n      swap2\n      swap1\n      tag_251\n      jump\t// in\n    tag_293:\n      swap2\n      pop\n        /* \"@openzeppelin/contracts/utils/Strings.sol\":775:850  while (temp != 0) {... */\n      jump(tag_289)\n    tag_290:\n        /* \"@openzeppelin/contracts/utils/Strings.sol\":859:878  bytes memory buffer */\n      0x00\n        /* \"@openzeppelin/contracts/utils/Strings.sol\":891:897  digits */\n      dup2\n        /* \"@openzeppelin/contracts/utils/Strings.sol\":881:898  new bytes(digits) */\n      0xffffffffffffffff\n      dup2\n      gt\n      iszero\n      tag_294\n      jumpi\n      tag_295\n      tag_296\n      jump\t// in\n    tag_295:\n    tag_294:\n      mload(0x40)\n      swap1\n      dup1\n      dup3\n      mstore\n      dup1\n      0x1f\n      add\n      not(0x1f)\n      and\n      0x20\n      add\n      dup3\n      add\n      0x40\n      mstore\n      dup1\n      iszero\n      tag_297\n      jumpi\n      dup2\n      0x20\n      add\n      0x01\n      dup3\n      mul\n      dup1\n      calldatasize\n      dup4\n      calldatacopy\n      dup1\n      dup3\n      add\n      swap2\n      pop\n      pop\n      swap1\n      pop\n    tag_297:\n      pop\n        /* \"@openzeppelin/contracts/utils/Strings.sol\":859:898  bytes memory buffer = new bytes(digits) */\n      swap1\n      pop\n        /* \"@openzeppelin/contracts/utils/Strings.sol\":908:1058  while (value != 0) {... */\n    tag_298:\n        /* \"@openzeppelin/contracts/utils/Strings.sol\":924:925  0 */\n      0x00\n        /* \"@openzeppelin/contracts/utils/Strings.sol\":915:920  value */\n      dup6\n        /* \"@openzeppelin/contracts/utils/Strings.sol\":915:925  value != 0 */\n      eq\n        /* \"@openzeppelin/contracts/utils/Strings.sol\":908:1058  while (value != 0) {... */\n      tag_299\n      jumpi\n        /* \"@openzeppelin/contracts/utils/Strings.sol\":951:952  1 */\n      0x01\n        /* \"@openzeppelin/contracts/utils/Strings.sol\":941:952  digits -= 1 */\n      dup3\n      tag_300\n      swap2\n      swap1\n      tag_282\n      jump\t// in\n    tag_300:\n      swap2\n      pop\n        /* \"@openzeppelin/contracts/utils/Strings.sol\":1017:1019  10 */\n      0x0a\n        /* \"@openzeppelin/contracts/utils/Strings.sol\":1009:1014  value */\n      dup6\n        /* \"@openzeppelin/contracts/utils/Strings.sol\":1009:1019  value % 10 */\n      tag_301\n      swap2\n      swap1\n      tag_210\n      jump\t// in\n    tag_301:\n        /* \"@openzeppelin/contracts/utils/Strings.sol\":996:998  48 */\n      0x30\n        /* \"@openzeppelin/contracts/utils/Strings.sol\":996:1020  48 + uint256(value % 10) */\n      tag_302\n      swap2\n      swap1\n      tag_285\n      jump\t// in\n    tag_302:\n        /* \"@openzeppelin/contracts/utils/Strings.sol\":983:1022  bytes1(uint8(48 + uint256(value % 10))) */\n      0xf8\n      shl\n        /* \"@openzeppelin/contracts/utils/Strings.sol\":966:972  buffer */\n      dup2\n        /* \"@openzeppelin/contracts/utils/Strings.sol\":973:979  digits */\n      dup4\n        /* \"@openzeppelin/contracts/utils/Strings.sol\":966:980  buffer[digits] */\n      dup2\n      mload\n      dup2\n      lt\n      tag_303\n      jumpi\n      tag_304\n      tag_305\n      jump\t// in\n    tag_304:\n    tag_303:\n      0x20\n      add\n      add\n        /* \"@openzeppelin/contracts/utils/Strings.sol\":966:1022  buffer[digits] = bytes1(uint8(48 + uint256(value % 10))) */\n      swap1\n      not(0xffffffffffffffffffffffffffffffffffffffffffffffffffffffffffffff)\n      and\n      swap1\n      dup2\n      0x00\n      byte\n      swap1\n      mstore8\n      pop\n        /* \"@openzeppelin/contracts/utils/Strings.sol\":1045:1047  10 */\n      0x0a\n        /* \"@openzeppelin/contracts/utils/Strings.sol\":1036:1047  value /= 10 */\n      dup6\n      tag_306\n      swap2\n      swap1\n      tag_251\n      jump\t// in\n    tag_306:\n      swap5\n      pop\n        /* \"@openzeppelin/contracts/utils/Strings.sol\":908:1058  while (value != 0) {... */\n      jump(tag_298)\n    tag_299:\n        /* \"@openzeppelin/contracts/utils/Strings.sol\":1081:1087  buffer */\n      dup1\n        /* \"@openzeppelin/contracts/utils/Strings.sol\":1067:1088  return string(buffer) */\n      swap4\n      pop\n      pop\n      pop\n      pop\n        /* \"@openzeppelin/contracts/utils/Strings.sol\":392:1095  function toString(uint256 value) internal pure returns (string memory) {... */\n    tag_287:\n      swap2\n      swap1\n      pop\n      jump\t// out\n        /* \"Dcoffer/ERC721A/test.sol\":23173:23332  function _beforeTokenTransfers(... */\n    tag_240:\n      pop\n      pop\n      pop\n      pop\n      jump\t// out\n        /* \"Dcoffer/ERC721A/test.sol\":23991:24149  function _afterTokenTransfers(... */\n    tag_245:\n      pop\n      pop\n      pop\n      pop\n      jump\t// out\n    tag_253:\n      mload(0x40)\n      dup1\n      0x60\n      add\n      0x40\n      mstore\n      dup1\n      and(0xffffffffffffffffffffffffffffffffffffffff, 0x00)\n      dup2\n      mstore\n      0x20\n      add\n      and(0xffffffffffffffff, 0x00)\n      dup2\n      mstore\n      0x20\n      add\n      iszero(iszero(0x00))\n      dup2\n      mstore\n      pop\n      swap1\n      jump\t// out\n        /* \"#utility.yul\":7:82   */\n    tag_309:\n        /* \"#utility.yul\":40:46   */\n      0x00\n        /* \"#utility.yul\":73:75   */\n      0x40\n        /* \"#utility.yul\":67:76   */\n      mload\n        /* \"#utility.yul\":57:76   */\n      swap1\n      pop\n        /* \"#utility.yul\":7:82   */\n      swap1\n      jump\t// out\n        /* \"#utility.yul\":88:205   */\n    tag_310:\n        /* \"#utility.yul\":197:198   */\n      0x00\n        /* \"#utility.yul\":194:195   */\n      dup1\n        /* \"#utility.yul\":187:199   */\n      revert\n        /* \"#utility.yul\":211:328   */\n    tag_311:\n        /* \"#utility.yul\":320:321   */\n      0x00\n        /* \"#utility.yul\":317:318   */\n      dup1\n        /* \"#utility.yul\":310:322   */\n      revert\n        /* \"#utility.yul\":334:483   */\n    tag_312:\n        /* \"#utility.yul\":370:377   */\n      0x00\n        /* \"#utility.yul\":410:476   */\n      0xffffffff00000000000000000000000000000000000000000000000000000000\n        /* \"#utility.yul\":403:408   */\n      dup3\n        /* \"#utility.yul\":399:477   */\n      and\n        /* \"#utility.yul\":388:477   */\n      swap1\n      pop\n        /* \"#utility.yul\":334:483   */\n      swap2\n      swap1\n      pop\n      jump\t// out\n        /* \"#utility.yul\":489:609   */\n    tag_313:\n        /* \"#utility.yul\":561:584   */\n      tag_356\n        /* \"#utility.yul\":578:583   */\n      dup2\n        /* \"#utility.yul\":561:584   */\n      tag_312\n      jump\t// in\n    tag_356:\n        /* \"#utility.yul\":554:559   */\n      dup2\n        /* \"#utility.yul\":551:585   */\n      eq\n        /* \"#utility.yul\":541:603   */\n      tag_357\n      jumpi\n        /* \"#utility.yul\":599:600   */\n      0x00\n        /* \"#utility.yul\":596:597   */\n      dup1\n        /* \"#utility.yul\":589:601   */\n      revert\n        /* \"#utility.yul\":541:603   */\n    tag_357:\n        /* \"#utility.yul\":489:609   */\n      pop\n      jump\t// out\n        /* \"#utility.yul\":615:752   */\n    tag_314:\n        /* \"#utility.yul\":660:665   */\n      0x00\n        /* \"#utility.yul\":698:704   */\n      dup2\n        /* \"#utility.yul\":685:705   */\n      calldataload\n        /* \"#utility.yul\":676:705   */\n      swap1\n      pop\n        /* \"#utility.yul\":714:746   */\n      tag_359\n        /* \"#utility.yul\":740:745   */\n      dup2\n        /* \"#utility.yul\":714:746   */\n      tag_313\n      jump\t// in\n    tag_359:\n        /* \"#utility.yul\":615:752   */\n      swap3\n      swap2\n      pop\n      pop\n      jump\t// out\n        /* \"#utility.yul\":758:1085   */\n    tag_28:\n        /* \"#utility.yul\":816:822   */\n      0x00\n        /* \"#utility.yul\":865:867   */\n      0x20\n        /* \"#utility.yul\":853:862   */\n      dup3\n        /* \"#utility.yul\":844:851   */\n      dup5\n        /* \"#utility.yul\":840:863   */\n      sub\n        /* \"#utility.yul\":836:868   */\n      slt\n        /* \"#utility.yul\":833:952   */\n      iszero\n      tag_361\n      jumpi\n        /* \"#utility.yul\":871:950   */\n      tag_362\n      tag_310\n      jump\t// in\n    tag_362:\n        /* \"#utility.yul\":833:952   */\n    tag_361:\n        /* \"#utility.yul\":991:992   */\n      0x00\n        /* \"#utility.yul\":1016:1068   */\n      tag_363\n        /* \"#utility.yul\":1060:1067   */\n      dup5\n        /* \"#utility.yul\":1051:1057   */\n      dup3\n        /* \"#utility.yul\":1040:1049   */\n      dup6\n        /* \"#utility.yul\":1036:1058   */\n      add\n        /* \"#utility.yul\":1016:1068   */\n      tag_314\n      jump\t// in\n    tag_363:\n        /* \"#utility.yul\":1006:1068   */\n      swap2\n      pop\n        /* \"#utility.yul\":962:1078   */\n      pop\n        /* \"#utility.yul\":758:1085   */\n      swap3\n      swap2\n      pop\n      pop\n      jump\t// out\n        /* \"#utility.yul\":1091:1181   */\n    tag_315:\n        /* \"#utility.yul\":1125:1132   */\n      0x00\n        /* \"#utility.yul\":1168:1173   */\n      dup2\n        /* \"#utility.yul\":1161:1174   */\n      iszero\n        /* \"#utility.yul\":1154:1175   */\n      iszero\n        /* \"#utility.yul\":1143:1175   */\n      swap1\n      pop\n        /* \"#utility.yul\":1091:1181   */\n      swap2\n      swap1\n      pop\n      jump\t// out\n        /* \"#utility.yul\":1187:1296   */\n    tag_316:\n        /* \"#utility.yul\":1268:1289   */\n      tag_366\n        /* \"#utility.yul\":1283:1288   */\n      dup2\n        /* \"#utility.yul\":1268:1289   */\n      tag_315\n      jump\t// in\n    tag_366:\n        /* \"#utility.yul\":1263:1266   */\n      dup3\n        /* \"#utility.yul\":1256:1290   */\n      mstore\n        /* \"#utility.yul\":1187:1296   */\n      pop\n      pop\n      jump\t// out\n        /* \"#utility.yul\":1302:1512   */\n    tag_31:\n        /* \"#utility.yul\":1389:1393   */\n      0x00\n        /* \"#utility.yul\":1427:1429   */\n      0x20\n        /* \"#utility.yul\":1416:1425   */\n      dup3\n        /* \"#utility.yul\":1412:1430   */\n      add\n        /* \"#utility.yul\":1404:1430   */\n      swap1\n      pop\n        /* \"#utility.yul\":1440:1505   */\n      tag_368\n        /* \"#utility.yul\":1502:1503   */\n      0x00\n        /* \"#utility.yul\":1491:1500   */\n      dup4\n        /* \"#utility.yul\":1487:1504   */\n      add\n        /* \"#utility.yul\":1478:1484   */\n      dup5\n        /* \"#utility.yul\":1440:1505   */\n      tag_316\n      jump\t// in\n    tag_368:\n        /* \"#utility.yul\":1302:1512   */\n      swap3\n      swap2\n      pop\n      pop\n      jump\t// out\n        /* \"#utility.yul\":1518:1617   */\n    tag_317:\n        /* \"#utility.yul\":1570:1576   */\n      0x00\n        /* \"#utility.yul\":1604:1609   */\n      dup2\n        /* \"#utility.yul\":1598:1610   */\n      mload\n        /* \"#utility.yul\":1588:1610   */\n      swap1\n      pop\n        /* \"#utility.yul\":1518:1617   */\n      swap2\n      swap1\n      pop\n      jump\t// out\n        /* \"#utility.yul\":1623:1792   */\n    tag_318:\n        /* \"#utility.yul\":1707:1718   */\n      0x00\n        /* \"#utility.yul\":1741:1747   */\n      dup3\n        /* \"#utility.yul\":1736:1739   */\n      dup3\n        /* \"#utility.yul\":1729:1748   */\n      mstore\n        /* \"#utility.yul\":1781:1785   */\n      0x20\n        /* \"#utility.yul\":1776:1779   */\n      dup3\n        /* \"#utility.yul\":1772:1786   */\n      add\n        /* \"#utility.yul\":1757:1786   */\n      swap1\n      pop\n        /* \"#utility.yul\":1623:1792   */\n      swap3\n      swap2\n      pop\n      pop\n      jump\t// out\n        /* \"#utility.yul\":1798:2044   */\n    tag_319:\n        /* \"#utility.yul\":1879:1880   */\n      0x00\n        /* \"#utility.yul\":1889:2002   */\n    tag_372:\n        /* \"#utility.yul\":1903:1909   */\n      dup4\n        /* \"#utility.yul\":1900:1901   */\n      dup2\n        /* \"#utility.yul\":1897:1910   */\n      lt\n        /* \"#utility.yul\":1889:2002   */\n      iszero\n      tag_374\n      jumpi\n        /* \"#utility.yul\":1988:1989   */\n      dup1\n        /* \"#utility.yul\":1983:1986   */\n      dup3\n        /* \"#utility.yul\":1979:1990   */\n      add\n        /* \"#utility.yul\":1973:1991   */\n      mload\n        /* \"#utility.yul\":1969:1970   */\n      dup2\n        /* \"#utility.yul\":1964:1967   */\n      dup5\n        /* \"#utility.yul\":1960:1971   */\n      add\n        /* \"#utility.yul\":1953:1992   */\n      mstore\n        /* \"#utility.yul\":1925:1927   */\n      0x20\n        /* \"#utility.yul\":1922:1923   */\n      dup2\n        /* \"#utility.yul\":1918:1928   */\n      add\n        /* \"#utility.yul\":1913:1928   */\n      swap1\n      pop\n        /* \"#utility.yul\":1889:2002   */\n      jump(tag_372)\n    tag_374:\n        /* \"#utility.yul\":2036:2037   */\n      0x00\n        /* \"#utility.yul\":2027:2033   */\n      dup5\n        /* \"#utility.yul\":2022:2025   */\n      dup5\n        /* \"#utility.yul\":2018:2034   */\n      add\n        /* \"#utility.yul\":2011:2038   */\n      mstore\n        /* \"#utility.yul\":1860:2044   */\n      pop\n        /* \"#utility.yul\":1798:2044   */\n      pop\n      pop\n      pop\n      jump\t// out\n        /* \"#utility.yul\":2050:2152   */\n    tag_320:\n        /* \"#utility.yul\":2091:2097   */\n      0x00\n        /* \"#utility.yul\":2142:2144   */\n      0x1f\n        /* \"#utility.yul\":2138:2145   */\n      not\n        /* \"#utility.yul\":2133:2135   */\n      0x1f\n        /* \"#utility.yul\":2126:2131   */\n      dup4\n        /* \"#utility.yul\":2122:2136   */\n      add\n        /* \"#utility.yul\":2118:2146   */\n      and\n        /* \"#utility.yul\":2108:2146   */\n      swap1\n      pop\n        /* \"#utility.yul\":2050:2152   */\n      swap2\n      swap1\n      pop\n      jump\t// out\n        /* \"#utility.yul\":2158:2535   */\n    tag_321:\n        /* \"#utility.yul\":2246:2249   */\n      0x00\n        /* \"#utility.yul\":2274:2313   */\n      tag_377\n        /* \"#utility.yul\":2307:2312   */\n      dup3\n        /* \"#utility.yul\":2274:2313   */\n      tag_317\n      jump\t// in\n    tag_377:\n        /* \"#utility.yul\":2329:2400   */\n      tag_378\n        /* \"#utility.yul\":2393:2399   */\n      dup2\n        /* \"#utility.yul\":2388:2391   */\n      dup6\n        /* \"#utility.yul\":2329:2400   */\n      tag_318\n      jump\t// in\n    tag_378:\n        /* \"#utility.yul\":2322:2400   */\n      swap4\n      pop\n        /* \"#utility.yul\":2409:2474   */\n      tag_379\n        /* \"#utility.yul\":2467:2473   */\n      dup2\n        /* \"#utility.yul\":2462:2465   */\n      dup6\n        /* \"#utility.yul\":2455:2459   */\n      0x20\n        /* \"#utility.yul\":2448:2453   */\n      dup7\n        /* \"#utility.yul\":2444:2460   */\n      add\n        /* \"#utility.yul\":2409:2474   */\n      tag_319\n      jump\t// in\n    tag_379:\n        /* \"#utility.yul\":2499:2528   */\n      tag_380\n        /* \"#utility.yul\":2521:2527   */\n      dup2\n        /* \"#utility.yul\":2499:2528   */\n      tag_320\n      jump\t// in\n    tag_380:\n        /* \"#utility.yul\":2494:2497   */\n      dup5\n        /* \"#utility.yul\":2490:2529   */\n      add\n        /* \"#utility.yul\":2483:2529   */\n      swap2\n      pop\n        /* \"#utility.yul\":2250:2535   */\n      pop\n        /* \"#utility.yul\":2158:2535   */\n      swap3\n      swap2\n      pop\n      pop\n      jump\t// out\n        /* \"#utility.yul\":2541:2854   */\n    tag_35:\n        /* \"#utility.yul\":2654:2658   */\n      0x00\n        /* \"#utility.yul\":2692:2694   */\n      0x20\n        /* \"#utility.yul\":2681:2690   */\n      dup3\n        /* \"#utility.yul\":2677:2695   */\n      add\n        /* \"#utility.yul\":2669:2695   */\n      swap1\n      pop\n        /* \"#utility.yul\":2741:2750   */\n      dup2\n        /* \"#utility.yul\":2735:2739   */\n      dup2\n        /* \"#utility.yul\":2731:2751   */\n      sub\n        /* \"#utility.yul\":2727:2728   */\n      0x00\n        /* \"#utility.yul\":2716:2725   */\n      dup4\n        /* \"#utility.yul\":2712:2729   */\n      add\n        /* \"#utility.yul\":2705:2752   */\n      mstore\n        /* \"#utility.yul\":2769:2847   */\n      tag_382\n        /* \"#utility.yul\":2842:2846   */\n      dup2\n        /* \"#utility.yul\":2833:2839   */\n      dup5\n        /* \"#utility.yul\":2769:2847   */\n      tag_321\n      jump\t// in\n    tag_382:\n        /* \"#utility.yul\":2761:2847   */\n      swap1\n      pop\n        /* \"#utility.yul\":2541:2854   */\n      swap3\n      swap2\n      pop\n      pop\n      jump\t// out\n        /* \"#utility.yul\":2860:2937   */\n    tag_322:\n        /* \"#utility.yul\":2897:2904   */\n      0x00\n        /* \"#utility.yul\":2926:2931   */\n      dup2\n        /* \"#utility.yul\":2915:2931   */\n      swap1\n      pop\n        /* \"#utility.yul\":2860:2937   */\n      swap2\n      swap1\n      pop\n      jump\t// out\n        /* \"#utility.yul\":2943:3065   */\n    tag_323:\n        /* \"#utility.yul\":3016:3040   */\n      tag_385\n        /* \"#utility.yul\":3034:3039   */\n      dup2\n        /* \"#utility.yul\":3016:3040   */\n      tag_322\n      jump\t// in\n    tag_385:\n        /* \"#utility.yul\":3009:3014   */\n      dup2\n        /* \"#utility.yul\":3006:3041   */\n      eq\n        /* \"#utility.yul\":2996:3059   */\n      tag_386\n      jumpi\n        /* \"#utility.yul\":3055:3056   */\n      0x00\n        /* \"#utility.yul\":3052:3053   */\n      dup1\n        /* \"#utility.yul\":3045:3057   */\n      revert\n        /* \"#utility.yul\":2996:3059   */\n    tag_386:\n        /* \"#utility.yul\":2943:3065   */\n      pop\n      jump\t// out\n        /* \"#utility.yul\":3071:3210   */\n    tag_324:\n        /* \"#utility.yul\":3117:3122   */\n      0x00\n        /* \"#utility.yul\":3155:3161   */\n      dup2\n        /* \"#utility.yul\":3142:3162   */\n      calldataload\n        /* \"#utility.yul\":3133:3162   */\n      swap1\n      pop\n        /* \"#utility.yul\":3171:3204   */\n      tag_388\n        /* \"#utility.yul\":3198:3203   */\n      dup2\n        /* \"#utility.yul\":3171:3204   */\n      tag_323\n      jump\t// in\n    tag_388:\n        /* \"#utility.yul\":3071:3210   */\n      swap3\n      swap2\n      pop\n      pop\n      jump\t// out\n        /* \"#utility.yul\":3216:3545   */\n    tag_38:\n        /* \"#utility.yul\":3275:3281   */\n      0x00\n        /* \"#utility.yul\":3324:3326   */\n      0x20\n        /* \"#utility.yul\":3312:3321   */\n      dup3\n        /* \"#utility.yul\":3303:3310   */\n      dup5\n        /* \"#utility.yul\":3299:3322   */\n      sub\n        /* \"#utility.yul\":3295:3327   */\n      slt\n        /* \"#utility.yul\":3292:3411   */\n      iszero\n      tag_390\n      jumpi\n        /* \"#utility.yul\":3330:3409   */\n      tag_391\n      tag_310\n      jump\t// in\n    tag_391:\n        /* \"#utility.yul\":3292:3411   */\n    tag_390:\n        /* \"#utility.yul\":3450:3451   */\n      0x00\n        /* \"#utility.yul\":3475:3528   */\n      tag_392\n        /* \"#utility.yul\":3520:3527   */\n      dup5\n        /* \"#utility.yul\":3511:3517   */\n      dup3\n        /* \"#utility.yul\":3500:3509   */\n      dup6\n        /* \"#utility.yul\":3496:3518   */\n      add\n        /* \"#utility.yul\":3475:3528   */\n      tag_324\n      jump\t// in\n    tag_392:\n        /* \"#utility.yul\":3465:3528   */\n      swap2\n      pop\n        /* \"#utility.yul\":3421:3538   */\n      pop\n        /* \"#utility.yul\":3216:3545   */\n      swap3\n      swap2\n      pop\n      pop\n      jump\t// out\n        /* \"#utility.yul\":3551:3677   */\n    tag_325:\n        /* \"#utility.yul\":3588:3595   */\n      0x00\n        /* \"#utility.yul\":3628:3670   */\n      0xffffffffffffffffffffffffffffffffffffffff\n        /* \"#utility.yul\":3621:3626   */\n      dup3\n        /* \"#utility.yul\":3617:3671   */\n      and\n        /* \"#utility.yul\":3606:3671   */\n      swap1\n      pop\n        /* \"#utility.yul\":3551:3677   */\n      swap2\n      swap1\n      pop\n      jump\t// out\n        /* \"#utility.yul\":3683:3779   */\n    tag_326:\n        /* \"#utility.yul\":3720:3727   */\n      0x00\n        /* \"#utility.yul\":3749:3773   */\n      tag_395\n        /* \"#utility.yul\":3767:3772   */\n      dup3\n        /* \"#utility.yul\":3749:3773   */\n      tag_325\n      jump\t// in\n    tag_395:\n        /* \"#utility.yul\":3738:3773   */\n      swap1\n      pop\n        /* \"#utility.yul\":3683:3779   */\n      swap2\n      swap1\n      pop\n      jump\t// out\n        /* \"#utility.yul\":3785:3903   */\n    tag_327:\n        /* \"#utility.yul\":3872:3896   */\n      tag_397\n        /* \"#utility.yul\":3890:3895   */\n      dup2\n        /* \"#utility.yul\":3872:3896   */\n      tag_326\n      jump\t// in\n    tag_397:\n        /* \"#utility.yul\":3867:3870   */\n      dup3\n        /* \"#utility.yul\":3860:3897   */\n      mstore\n        /* \"#utility.yul\":3785:3903   */\n      pop\n      pop\n      jump\t// out\n        /* \"#utility.yul\":3909:4131   */\n    tag_41:\n        /* \"#utility.yul\":4002:4006   */\n      0x00\n        /* \"#utility.yul\":4040:4042   */\n      0x20\n        /* \"#utility.yul\":4029:4038   */\n      dup3\n        /* \"#utility.yul\":4025:4043   */\n      add\n        /* \"#utility.yul\":4017:4043   */\n      swap1\n      pop\n        /* \"#utility.yul\":4053:4124   */\n      tag_399\n        /* \"#utility.yul\":4121:4122   */\n      0x00\n        /* \"#utility.yul\":4110:4119   */\n      dup4\n        /* \"#utility.yul\":4106:4123   */\n      add\n        /* \"#utility.yul\":4097:4103   */\n      dup5\n        /* \"#utility.yul\":4053:4124   */\n      tag_327\n      jump\t// in\n    tag_399:\n        /* \"#utility.yul\":3909:4131   */\n      swap3\n      swap2\n      pop\n      pop\n      jump\t// out\n        /* \"#utility.yul\":4137:4259   */\n    tag_328:\n        /* \"#utility.yul\":4210:4234   */\n      tag_401\n        /* \"#utility.yul\":4228:4233   */\n      dup2\n        /* \"#utility.yul\":4210:4234   */\n      tag_326\n      jump\t// in\n    tag_401:\n        /* \"#utility.yul\":4203:4208   */\n      dup2\n        /* \"#utility.yul\":4200:4235   */\n      eq\n        /* \"#utility.yul\":4190:4253   */\n      tag_402\n      jumpi\n        /* \"#utility.yul\":4249:4250   */\n      0x00\n        /* \"#utility.yul\":4246:4247   */\n      dup1\n        /* \"#utility.yul\":4239:4251   */\n      revert\n        /* \"#utility.yul\":4190:4253   */\n    tag_402:\n        /* \"#utility.yul\":4137:4259   */\n      pop\n      jump\t// out\n        /* \"#utility.yul\":4265:4404   */\n    tag_329:\n        /* \"#utility.yul\":4311:4316   */\n      0x00\n        /* \"#utility.yul\":4349:4355   */\n      dup2\n        /* \"#utility.yul\":4336:4356   */\n      calldataload\n        /* \"#utility.yul\":4327:4356   */\n      swap1\n      pop\n        /* \"#utility.yul\":4365:4398   */\n      tag_404\n        /* \"#utility.yul\":4392:4397   */\n      dup2\n        /* \"#utility.yul\":4365:4398   */\n      tag_328\n      jump\t// in\n    tag_404:\n        /* \"#utility.yul\":4265:4404   */\n      swap3\n      swap2\n      pop\n      pop\n      jump\t// out\n        /* \"#utility.yul\":4410:4884   */\n    tag_44:\n        /* \"#utility.yul\":4478:4484   */\n      0x00\n        /* \"#utility.yul\":4486:4492   */\n      dup1\n        /* \"#utility.yul\":4535:4537   */\n      0x40\n        /* \"#utility.yul\":4523:4532   */\n      dup4\n        /* \"#utility.yul\":4514:4521   */\n      dup6\n        /* \"#utility.yul\":4510:4533   */\n      sub\n        /* \"#utility.yul\":4506:4538   */\n      slt\n        /* \"#utility.yul\":4503:4622   */\n      iszero\n      tag_406\n      jumpi\n        /* \"#utility.yul\":4541:4620   */\n      tag_407\n      tag_310\n      jump\t// in\n    tag_407:\n        /* \"#utility.yul\":4503:4622   */\n    tag_406:\n        /* \"#utility.yul\":4661:4662   */\n      0x00\n        /* \"#utility.yul\":4686:4739   */\n      tag_408\n        /* \"#utility.yul\":4731:4738   */\n      dup6\n        /* \"#utility.yul\":4722:4728   */\n      dup3\n        /* \"#utility.yul\":4711:4720   */\n      dup7\n        /* \"#utility.yul\":4707:4729   */\n      add\n        /* \"#utility.yul\":4686:4739   */\n      tag_329\n      jump\t// in\n    tag_408:\n        /* \"#utility.yul\":4676:4739   */\n      swap3\n      pop\n        /* \"#utility.yul\":4632:4749   */\n      pop\n        /* \"#utility.yul\":4788:4790   */\n      0x20\n        /* \"#utility.yul\":4814:4867   */\n      tag_409\n        /* \"#utility.yul\":4859:4866   */\n      dup6\n        /* \"#utility.yul\":4850:4856   */\n      dup3\n        /* \"#utility.yul\":4839:4848   */\n      dup7\n        /* \"#utility.yul\":4835:4857   */\n      add\n        /* \"#utility.yul\":4814:4867   */\n      tag_324\n      jump\t// in\n    tag_409:\n        /* \"#utility.yul\":4804:4867   */\n      swap2\n      pop\n        /* \"#utility.yul\":4759:4877   */\n      pop\n        /* \"#utility.yul\":4410:4884   */\n      swap3\n      pop\n      swap3\n      swap1\n      pop\n      jump\t// out\n        /* \"#utility.yul\":4890:5008   */\n    tag_330:\n        /* \"#utility.yul\":4977:5001   */\n      tag_411\n        /* \"#utility.yul\":4995:5000   */\n      dup2\n        /* \"#utility.yul\":4977:5001   */\n      tag_322\n      jump\t// in\n    tag_411:\n        /* \"#utility.yul\":4972:4975   */\n      dup3\n        /* \"#utility.yul\":4965:5002   */\n      mstore\n        /* \"#utility.yul\":4890:5008   */\n      pop\n      pop\n      jump\t// out\n        /* \"#utility.yul\":5014:5236   */\n    tag_49:\n        /* \"#utility.yul\":5107:5111   */\n      0x00\n        /* \"#utility.yul\":5145:5147   */\n      0x20\n        /* \"#utility.yul\":5134:5143   */\n      dup3\n        /* \"#utility.yul\":5130:5148   */\n      add\n        /* \"#utility.yul\":5122:5148   */\n      swap1\n      pop\n        /* \"#utility.yul\":5158:5229   */\n      tag_413\n        /* \"#utility.yul\":5226:5227   */\n      0x00\n        /* \"#utility.yul\":5215:5224   */\n      dup4\n        /* \"#utility.yul\":5211:5228   */\n      add\n        /* \"#utility.yul\":5202:5208   */\n      dup5\n        /* \"#utility.yul\":5158:5229   */\n      tag_330\n      jump\t// in\n    tag_413:\n        /* \"#utility.yul\":5014:5236   */\n      swap3\n      swap2\n      pop\n      pop\n      jump\t// out\n        /* \"#utility.yul\":5242:5861   */\n    tag_52:\n        /* \"#utility.yul\":5319:5325   */\n      0x00\n        /* \"#utility.yul\":5327:5333   */\n      dup1\n        /* \"#utility.yul\":5335:5341   */\n      0x00\n        /* \"#utility.yul\":5384:5386   */\n      0x60\n        /* \"#utility.yul\":5372:5381   */\n      dup5\n        /* \"#utility.yul\":5363:5370   */\n      dup7\n        /* \"#utility.yul\":5359:5382   */\n      sub\n        /* \"#utility.yul\":5355:5387   */\n      slt\n        /* \"#utility.yul\":5352:5471   */\n      iszero\n      tag_415\n      jumpi\n        /* \"#utility.yul\":5390:5469   */\n      tag_416\n      tag_310\n      jump\t// in\n    tag_416:\n        /* \"#utility.yul\":5352:5471   */\n    tag_415:\n        /* \"#utility.yul\":5510:5511   */\n      0x00\n        /* \"#utility.yul\":5535:5588   */\n      tag_417\n        /* \"#utility.yul\":5580:5587   */\n      dup7\n        /* \"#utility.yul\":5571:5577   */\n      dup3\n        /* \"#utility.yul\":5560:5569   */\n      dup8\n        /* \"#utility.yul\":5556:5578   */\n      add\n        /* \"#utility.yul\":5535:5588   */\n      tag_329\n      jump\t// in\n    tag_417:\n        /* \"#utility.yul\":5525:5588   */\n      swap4\n      pop\n        /* \"#utility.yul\":5481:5598   */\n      pop\n        /* \"#utility.yul\":5637:5639   */\n      0x20\n        /* \"#utility.yul\":5663:5716   */\n      tag_418\n        /* \"#utility.yul\":5708:5715   */\n      dup7\n        /* \"#utility.yul\":5699:5705   */\n      dup3\n        /* \"#utility.yul\":5688:5697   */\n      dup8\n        /* \"#utility.yul\":5684:5706   */\n      add\n        /* \"#utility.yul\":5663:5716   */\n      tag_329\n      jump\t// in\n    tag_418:\n        /* \"#utility.yul\":5653:5716   */\n      swap3\n      pop\n        /* \"#utility.yul\":5608:5726   */\n      pop\n        /* \"#utility.yul\":5765:5767   */\n      0x40\n        /* \"#utility.yul\":5791:5844   */\n      tag_419\n        /* \"#utility.yul\":5836:5843   */\n      dup7\n        /* \"#utility.yul\":5827:5833   */\n      dup3\n        /* \"#utility.yul\":5816:5825   */\n      dup8\n        /* \"#utility.yul\":5812:5834   */\n      add\n        /* \"#utility.yul\":5791:5844   */\n      tag_324\n      jump\t// in\n    tag_419:\n        /* \"#utility.yul\":5781:5844   */\n      swap2\n      pop\n        /* \"#utility.yul\":5736:5854   */\n      pop\n        /* \"#utility.yul\":5242:5861   */\n      swap3\n      pop\n      swap3\n      pop\n      swap3\n      jump\t// out\n        /* \"#utility.yul\":5867:6196   */\n    tag_67:\n        /* \"#utility.yul\":5926:5932   */\n      0x00\n        /* \"#utility.yul\":5975:5977   */\n      0x20\n        /* \"#utility.yul\":5963:5972   */\n      dup3\n        /* \"#utility.yul\":5954:5961   */\n      dup5\n        /* \"#utility.yul\":5950:5973   */\n      sub\n        /* \"#utility.yul\":5946:5978   */\n      slt\n        /* \"#utility.yul\":5943:6062   */\n      iszero\n      tag_421\n      jumpi\n        /* \"#utility.yul\":5981:6060   */\n      tag_422\n      tag_310\n      jump\t// in\n    tag_422:\n        /* \"#utility.yul\":5943:6062   */\n    tag_421:\n        /* \"#utility.yul\":6101:6102   */\n      0x00\n        /* \"#utility.yul\":6126:6179   */\n      tag_423\n        /* \"#utility.yul\":6171:6178   */\n      dup5\n        /* \"#utility.yul\":6162:6168   */\n      dup3\n        /* \"#utility.yul\":6151:6160   */\n      dup6\n        /* \"#utility.yul\":6147:6169   */\n      add\n        /* \"#utility.yul\":6126:6179   */\n      tag_329\n      jump\t// in\n    tag_423:\n        /* \"#utility.yul\":6116:6179   */\n      swap2\n      pop\n        /* \"#utility.yul\":6072:6189   */\n      pop\n        /* \"#utility.yul\":5867:6196   */\n      swap3\n      swap2\n      pop\n      pop\n      jump\t// out\n        /* \"#utility.yul\":6202:6676   */\n    tag_72:\n        /* \"#utility.yul\":6270:6276   */\n      0x00\n        /* \"#utility.yul\":6278:6284   */\n      dup1\n        /* \"#utility.yul\":6327:6329   */\n      0x40\n        /* \"#utility.yul\":6315:6324   */\n      dup4\n        /* \"#utility.yul\":6306:6313   */\n      dup6\n        /* \"#utility.yul\":6302:6325   */\n      sub\n        /* \"#utility.yul\":6298:6330   */\n      slt\n        /* \"#utility.yul\":6295:6414   */\n      iszero\n      tag_425\n      jumpi\n        /* \"#utility.yul\":6333:6412   */\n      tag_426\n      tag_310\n      jump\t// in\n    tag_426:\n        /* \"#utility.yul\":6295:6414   */\n    tag_425:\n        /* \"#utility.yul\":6453:6454   */\n      0x00\n        /* \"#utility.yul\":6478:6531   */\n      tag_427\n        /* \"#utility.yul\":6523:6530   */\n      dup6\n        /* \"#utility.yul\":6514:6520   */\n      dup3\n        /* \"#utility.yul\":6503:6512   */\n      dup7\n        /* \"#utility.yul\":6499:6521   */\n      add\n        /* \"#utility.yul\":6478:6531   */\n      tag_324\n      jump\t// in\n    tag_427:\n        /* \"#utility.yul\":6468:6531   */\n      swap3\n      pop\n        /* \"#utility.yul\":6424:6541   */\n      pop\n        /* \"#utility.yul\":6580:6582   */\n      0x20\n        /* \"#utility.yul\":6606:6659   */\n      tag_428\n        /* \"#utility.yul\":6651:6658   */\n      dup6\n        /* \"#utility.yul\":6642:6648   */\n      dup3\n        /* \"#utility.yul\":6631:6640   */\n      dup7\n        /* \"#utility.yul\":6627:6649   */\n      add\n        /* \"#utility.yul\":6606:6659   */\n      tag_324\n      jump\t// in\n    tag_428:\n        /* \"#utility.yul\":6596:6659   */\n      swap2\n      pop\n        /* \"#utility.yul\":6551:6669   */\n      pop\n        /* \"#utility.yul\":6202:6676   */\n      swap3\n      pop\n      swap3\n      swap1\n      pop\n      jump\t// out\n        /* \"#utility.yul\":6682:6798   */\n    tag_331:\n        /* \"#utility.yul\":6752:6773   */\n      tag_430\n        /* \"#utility.yul\":6767:6772   */\n      dup2\n        /* \"#utility.yul\":6752:6773   */\n      tag_315\n      jump\t// in\n    tag_430:\n        /* \"#utility.yul\":6745:6750   */\n      dup2\n        /* \"#utility.yul\":6742:6774   */\n      eq\n        /* \"#utility.yul\":6732:6792   */\n      tag_431\n      jumpi\n        /* \"#utility.yul\":6788:6789   */\n      0x00\n        /* \"#utility.yul\":6785:6786   */\n      dup1\n        /* \"#utility.yul\":6778:6790   */\n      revert\n        /* \"#utility.yul\":6732:6792   */\n    tag_431:\n        /* \"#utility.yul\":6682:6798   */\n      pop\n      jump\t// out\n        /* \"#utility.yul\":6804:6937   */\n    tag_332:\n        /* \"#utility.yul\":6847:6852   */\n      0x00\n        /* \"#utility.yul\":6885:6891   */\n      dup2\n        /* \"#utility.yul\":6872:6892   */\n      calldataload\n        /* \"#utility.yul\":6863:6892   */\n      swap1\n      pop\n        /* \"#utility.yul\":6901:6931   */\n      tag_433\n        /* \"#utility.yul\":6925:6930   */\n      dup2\n        /* \"#utility.yul\":6901:6931   */\n      tag_331\n      jump\t// in\n    tag_433:\n        /* \"#utility.yul\":6804:6937   */\n      swap3\n      swap2\n      pop\n      pop\n      jump\t// out\n        /* \"#utility.yul\":6943:7411   */\n    tag_80:\n        /* \"#utility.yul\":7008:7014   */\n      0x00\n        /* \"#utility.yul\":7016:7022   */\n      dup1\n        /* \"#utility.yul\":7065:7067   */\n      0x40\n        /* \"#utility.yul\":7053:7062   */\n      dup4\n        /* \"#utility.yul\":7044:7051   */\n      dup6\n        /* \"#utility.yul\":7040:7063   */\n      sub\n        /* \"#utility.yul\":7036:7068   */\n      slt\n        /* \"#utility.yul\":7033:7152   */\n      iszero\n      tag_435\n      jumpi\n        /* \"#utility.yul\":7071:7150   */\n      tag_436\n      tag_310\n      jump\t// in\n    tag_436:\n        /* \"#utility.yul\":7033:7152   */\n    tag_435:\n        /* \"#utility.yul\":7191:7192   */\n      0x00\n        /* \"#utility.yul\":7216:7269   */\n      tag_437\n        /* \"#utility.yul\":7261:7268   */\n      dup6\n        /* \"#utility.yul\":7252:7258   */\n      dup3\n        /* \"#utility.yul\":7241:7250   */\n      dup7\n        /* \"#utility.yul\":7237:7259   */\n      add\n        /* \"#utility.yul\":7216:7269   */\n      tag_329\n      jump\t// in\n    tag_437:\n        /* \"#utility.yul\":7206:7269   */\n      swap3\n      pop\n        /* \"#utility.yul\":7162:7279   */\n      pop\n        /* \"#utility.yul\":7318:7320   */\n      0x20\n        /* \"#utility.yul\":7344:7394   */\n      tag_438\n        /* \"#utility.yul\":7386:7393   */\n      dup6\n        /* \"#utility.yul\":7377:7383   */\n      dup3\n        /* \"#utility.yul\":7366:7375   */\n      dup7\n        /* \"#utility.yul\":7362:7384   */\n      add\n        /* \"#utility.yul\":7344:7394   */\n      tag_332\n      jump\t// in\n    tag_438:\n        /* \"#utility.yul\":7334:7394   */\n      swap2\n      pop\n        /* \"#utility.yul\":7289:7404   */\n      pop\n        /* \"#utility.yul\":6943:7411   */\n      swap3\n      pop\n      swap3\n      swap1\n      pop\n      jump\t// out\n        /* \"#utility.yul\":7417:7534   */\n    tag_333:\n        /* \"#utility.yul\":7526:7527   */\n      0x00\n        /* \"#utility.yul\":7523:7524   */\n      dup1\n        /* \"#utility.yul\":7516:7528   */\n      revert\n        /* \"#utility.yul\":7540:7657   */\n    tag_334:\n        /* \"#utility.yul\":7649:7650   */\n      0x00\n        /* \"#utility.yul\":7646:7647   */\n      dup1\n        /* \"#utility.yul\":7639:7651   */\n      revert\n        /* \"#utility.yul\":7663:7843   */\n    tag_296:\n        /* \"#utility.yul\":7711:7788   */\n      0x4e487b7100000000000000000000000000000000000000000000000000000000\n        /* \"#utility.yul\":7708:7709   */\n      0x00\n        /* \"#utility.yul\":7701:7789   */\n      mstore\n        /* \"#utility.yul\":7808:7812   */\n      0x41\n        /* \"#utility.yul\":7805:7806   */\n      0x04\n        /* \"#utility.yul\":7798:7813   */\n      mstore\n        /* \"#utility.yul\":7832:7836   */\n      0x24\n        /* \"#utility.yul\":7829:7830   */\n      0x00\n        /* \"#utility.yul\":7822:7837   */\n      revert\n        /* \"#utility.yul\":7849:8130   */\n    tag_335:\n        /* \"#utility.yul\":7932:7959   */\n      tag_443\n        /* \"#utility.yul\":7954:7958   */\n      dup3\n        /* \"#utility.yul\":7932:7959   */\n      tag_320\n      jump\t// in\n    tag_443:\n        /* \"#utility.yul\":7924:7930   */\n      dup2\n        /* \"#utility.yul\":7920:7960   */\n      add\n        /* \"#utility.yul\":8062:8068   */\n      dup2\n        /* \"#utility.yul\":8050:8060   */\n      dup2\n        /* \"#utility.yul\":8047:8069   */\n      lt\n        /* \"#utility.yul\":8026:8044   */\n      0xffffffffffffffff\n        /* \"#utility.yul\":8014:8024   */\n      dup3\n        /* \"#utility.yul\":8011:8045   */\n      gt\n        /* \"#utility.yul\":8008:8070   */\n      or\n        /* \"#utility.yul\":8005:8093   */\n      iszero\n      tag_444\n      jumpi\n        /* \"#utility.yul\":8073:8091   */\n      tag_445\n      tag_296\n      jump\t// in\n    tag_445:\n        /* \"#utility.yul\":8005:8093   */\n    tag_444:\n        /* \"#utility.yul\":8113:8123   */\n      dup1\n        /* \"#utility.yul\":8109:8111   */\n      0x40\n        /* \"#utility.yul\":8102:8124   */\n      mstore\n        /* \"#utility.yul\":7892:8130   */\n      pop\n        /* \"#utility.yul\":7849:8130   */\n      pop\n      pop\n      jump\t// out\n        /* \"#utility.yul\":8136:8265   */\n    tag_336:\n        /* \"#utility.yul\":8170:8176   */\n      0x00\n        /* \"#utility.yul\":8197:8217   */\n      tag_447\n      tag_309\n      jump\t// in\n    tag_447:\n        /* \"#utility.yul\":8187:8217   */\n      swap1\n      pop\n        /* \"#utility.yul\":8226:8259   */\n      tag_448\n        /* \"#utility.yul\":8254:8258   */\n      dup3\n        /* \"#utility.yul\":8246:8252   */\n      dup3\n        /* \"#utility.yul\":8226:8259   */\n      tag_335\n      jump\t// in\n    tag_448:\n        /* \"#utility.yul\":8136:8265   */\n      swap2\n      swap1\n      pop\n      jump\t// out\n        /* \"#utility.yul\":8271:8578   */\n    tag_337:\n        /* \"#utility.yul\":8332:8336   */\n      0x00\n        /* \"#utility.yul\":8422:8440   */\n      0xffffffffffffffff\n        /* \"#utility.yul\":8414:8420   */\n      dup3\n        /* \"#utility.yul\":8411:8441   */\n      gt\n        /* \"#utility.yul\":8408:8464   */\n      iszero\n      tag_450\n      jumpi\n        /* \"#utility.yul\":8444:8462   */\n      tag_451\n      tag_296\n      jump\t// in\n    tag_451:\n        /* \"#utility.yul\":8408:8464   */\n    tag_450:\n        /* \"#utility.yul\":8482:8511   */\n      tag_452\n        /* \"#utility.yul\":8504:8510   */\n      dup3\n        /* \"#utility.yul\":8482:8511   */\n      tag_320\n      jump\t// in\n    tag_452:\n        /* \"#utility.yul\":8474:8511   */\n      swap1\n      pop\n        /* \"#utility.yul\":8566:8570   */\n      0x20\n        /* \"#utility.yul\":8560:8564   */\n      dup2\n        /* \"#utility.yul\":8556:8571   */\n      add\n        /* \"#utility.yul\":8548:8571   */\n      swap1\n      pop\n        /* \"#utility.yul\":8271:8578   */\n      swap2\n      swap1\n      pop\n      jump\t// out\n        /* \"#utility.yul\":8584:8730   */\n    tag_338:\n        /* \"#utility.yul\":8681:8687   */\n      dup3\n        /* \"#utility.yul\":8676:8679   */\n      dup2\n        /* \"#utility.yul\":8671:8674   */\n      dup4\n        /* \"#utility.yul\":8658:8688   */\n      calldatacopy\n        /* \"#utility.yul\":8722:8723   */\n      0x00\n        /* \"#utility.yul\":8713:8719   */\n      dup4\n        /* \"#utility.yul\":8708:8711   */\n      dup4\n        /* \"#utility.yul\":8704:8720   */\n      add\n        /* \"#utility.yul\":8697:8724   */\n      mstore\n        /* \"#utility.yul\":8584:8730   */\n      pop\n      pop\n      pop\n      jump\t// out\n        /* \"#utility.yul\":8736:9159   */\n    tag_339:\n        /* \"#utility.yul\":8813:8818   */\n      0x00\n        /* \"#utility.yul\":8838:8903   */\n      tag_455\n        /* \"#utility.yul\":8854:8902   */\n      tag_456\n        /* \"#utility.yul\":8895:8901   */\n      dup5\n        /* \"#utility.yul\":8854:8902   */\n      tag_337\n      jump\t// in\n    tag_456:\n        /* \"#utility.yul\":8838:8903   */\n      tag_336\n      jump\t// in\n    tag_455:\n        /* \"#utility.yul\":8829:8903   */\n      swap1\n      pop\n        /* \"#utility.yul\":8926:8932   */\n      dup3\n        /* \"#utility.yul\":8919:8924   */\n      dup2\n        /* \"#utility.yul\":8912:8933   */\n      mstore\n        /* \"#utility.yul\":8964:8968   */\n      0x20\n        /* \"#utility.yul\":8957:8962   */\n      dup2\n        /* \"#utility.yul\":8953:8969   */\n      add\n        /* \"#utility.yul\":9002:9005   */\n      dup5\n        /* \"#utility.yul\":8993:8999   */\n      dup5\n        /* \"#utility.yul\":8988:8991   */\n      dup5\n        /* \"#utility.yul\":8984:9000   */\n      add\n        /* \"#utility.yul\":8981:9006   */\n      gt\n        /* \"#utility.yul\":8978:9090   */\n      iszero\n      tag_457\n      jumpi\n        /* \"#utility.yul\":9009:9088   */\n      tag_458\n      tag_334\n      jump\t// in\n    tag_458:\n        /* \"#utility.yul\":8978:9090   */\n    tag_457:\n        /* \"#utility.yul\":9099:9153   */\n      tag_459\n        /* \"#utility.yul\":9146:9152   */\n      dup5\n        /* \"#utility.yul\":9141:9144   */\n      dup3\n        /* \"#utility.yul\":9136:9139   */\n      dup6\n        /* \"#utility.yul\":9099:9153   */\n      tag_338\n      jump\t// in\n    tag_459:\n        /* \"#utility.yul\":8819:9159   */\n      pop\n        /* \"#utility.yul\":8736:9159   */\n      swap4\n      swap3\n      pop\n      pop\n      pop\n      jump\t// out\n        /* \"#utility.yul\":9178:9516   */\n    tag_340:\n        /* \"#utility.yul\":9233:9238   */\n      0x00\n        /* \"#utility.yul\":9282:9285   */\n      dup3\n        /* \"#utility.yul\":9275:9279   */\n      0x1f\n        /* \"#utility.yul\":9267:9273   */\n      dup4\n        /* \"#utility.yul\":9263:9280   */\n      add\n        /* \"#utility.yul\":9259:9286   */\n      slt\n        /* \"#utility.yul\":9249:9371   */\n      tag_461\n      jumpi\n        /* \"#utility.yul\":9290:9369   */\n      tag_462\n      tag_333\n      jump\t// in\n    tag_462:\n        /* \"#utility.yul\":9249:9371   */\n    tag_461:\n        /* \"#utility.yul\":9407:9413   */\n      dup2\n        /* \"#utility.yul\":9394:9414   */\n      calldataload\n        /* \"#utility.yul\":9432:9510   */\n      tag_463\n        /* \"#utility.yul\":9506:9509   */\n      dup5\n        /* \"#utility.yul\":9498:9504   */\n      dup3\n        /* \"#utility.yul\":9491:9495   */\n      0x20\n        /* \"#utility.yul\":9483:9489   */\n      dup7\n        /* \"#utility.yul\":9479:9496   */\n      add\n        /* \"#utility.yul\":9432:9510   */\n      tag_339\n      jump\t// in\n    tag_463:\n        /* \"#utility.yul\":9423:9510   */\n      swap2\n      pop\n        /* \"#utility.yul\":9239:9516   */\n      pop\n        /* \"#utility.yul\":9178:9516   */\n      swap3\n      swap2\n      pop\n      pop\n      jump\t// out\n        /* \"#utility.yul\":9522:10465   */\n    tag_84:\n        /* \"#utility.yul\":9617:9623   */\n      0x00\n        /* \"#utility.yul\":9625:9631   */\n      dup1\n        /* \"#utility.yul\":9633:9639   */\n      0x00\n        /* \"#utility.yul\":9641:9647   */\n      dup1\n        /* \"#utility.yul\":9690:9693   */\n      0x80\n        /* \"#utility.yul\":9678:9687   */\n      dup6\n        /* \"#utility.yul\":9669:9676   */\n      dup8\n        /* \"#utility.yul\":9665:9688   */\n      sub\n        /* \"#utility.yul\":9661:9694   */\n      slt\n        /* \"#utility.yul\":9658:9778   */\n      iszero\n      tag_465\n      jumpi\n        /* \"#utility.yul\":9697:9776   */\n      tag_466\n      tag_310\n      jump\t// in\n    tag_466:\n        /* \"#utility.yul\":9658:9778   */\n    tag_465:\n        /* \"#utility.yul\":9817:9818   */\n      0x00\n        /* \"#utility.yul\":9842:9895   */\n      tag_467\n        /* \"#utility.yul\":9887:9894   */\n      dup8\n        /* \"#utility.yul\":9878:9884   */\n      dup3\n        /* \"#utility.yul\":9867:9876   */\n      dup9\n        /* \"#utility.yul\":9863:9885   */\n      add\n        /* \"#utility.yul\":9842:9895   */\n      tag_329\n      jump\t// in\n    tag_467:\n        /* \"#utility.yul\":9832:9895   */\n      swap5\n      pop\n        /* \"#utility.yul\":9788:9905   */\n      pop\n        /* \"#utility.yul\":9944:9946   */\n      0x20\n        /* \"#utility.yul\":9970:10023   */\n      tag_468\n        /* \"#utility.yul\":10015:10022   */\n      dup8\n        /* \"#utility.yul\":10006:10012   */\n      dup3\n        /* \"#utility.yul\":9995:10004   */\n      dup9\n        /* \"#utility.yul\":9991:10013   */\n      add\n        /* \"#utility.yul\":9970:10023   */\n      tag_329\n      jump\t// in\n    tag_468:\n        /* \"#utility.yul\":9960:10023   */\n      swap4\n      pop\n        /* \"#utility.yul\":9915:10033   */\n      pop\n        /* \"#utility.yul\":10072:10074   */\n      0x40\n        /* \"#utility.yul\":10098:10151   */\n      tag_469\n        /* \"#utility.yul\":10143:10150   */\n      dup8\n        /* \"#utility.yul\":10134:10140   */\n      dup3\n        /* \"#utility.yul\":10123:10132   */\n      dup9\n        /* \"#utility.yul\":10119:10141   */\n      add\n        /* \"#utility.yul\":10098:10151   */\n      tag_324\n      jump\t// in\n    tag_469:\n        /* \"#utility.yul\":10088:10151   */\n      swap3\n      pop\n        /* \"#utility.yul\":10043:10161   */\n      pop\n        /* \"#utility.yul\":10228:10230   */\n      0x60\n        /* \"#utility.yul\":10217:10226   */\n      dup6\n        /* \"#utility.yul\":10213:10231   */\n      add\n        /* \"#utility.yul\":10200:10232   */\n      calldataload\n        /* \"#utility.yul\":10259:10277   */\n      0xffffffffffffffff\n        /* \"#utility.yul\":10251:10257   */\n      dup2\n        /* \"#utility.yul\":10248:10278   */\n      gt\n        /* \"#utility.yul\":10245:10362   */\n      iszero\n      tag_470\n      jumpi\n        /* \"#utility.yul\":10281:10360   */\n      tag_471\n      tag_311\n      jump\t// in\n    tag_471:\n        /* \"#utility.yul\":10245:10362   */\n    tag_470:\n        /* \"#utility.yul\":10386:10448   */\n      tag_472\n        /* \"#utility.yul\":10440:10447   */\n      dup8\n        /* \"#utility.yul\":10431:10437   */\n      dup3\n        /* \"#utility.yul\":10420:10429   */\n      dup9\n        /* \"#utility.yul\":10416:10438   */\n      add\n        /* \"#utility.yul\":10386:10448   */\n      tag_340\n      jump\t// in\n    tag_472:\n        /* \"#utility.yul\":10376:10448   */\n      swap2\n      pop\n        /* \"#utility.yul\":10171:10458   */\n      pop\n        /* \"#utility.yul\":9522:10465   */\n      swap3\n      swap6\n      swap2\n      swap5\n      pop\n      swap3\n      pop\n      jump\t// out\n        /* \"#utility.yul\":10471:10945   */\n    tag_102:\n        /* \"#utility.yul\":10539:10545   */\n      0x00\n        /* \"#utility.yul\":10547:10553   */\n      dup1\n        /* \"#utility.yul\":10596:10598   */\n      0x40\n        /* \"#utility.yul\":10584:10593   */\n      dup4\n        /* \"#utility.yul\":10575:10582   */\n      dup6\n        /* \"#utility.yul\":10571:10594   */\n      sub\n        /* \"#utility.yul\":10567:10599   */\n      slt\n        /* \"#utility.yul\":10564:10683   */\n      iszero\n      tag_474\n      jumpi\n        /* \"#utility.yul\":10602:10681   */\n      tag_475\n      tag_310\n      jump\t// in\n    tag_475:\n        /* \"#utility.yul\":10564:10683   */\n    tag_474:\n        /* \"#utility.yul\":10722:10723   */\n      0x00\n        /* \"#utility.yul\":10747:10800   */\n      tag_476\n        /* \"#utility.yul\":10792:10799   */\n      dup6\n        /* \"#utility.yul\":10783:10789   */\n      dup3\n        /* \"#utility.yul\":10772:10781   */\n      dup7\n        /* \"#utility.yul\":10768:10790   */\n      add\n        /* \"#utility.yul\":10747:10800   */\n      tag_329\n      jump\t// in\n    tag_476:\n        /* \"#utility.yul\":10737:10800   */\n      swap3\n      pop\n        /* \"#utility.yul\":10693:10810   */\n      pop\n        /* \"#utility.yul\":10849:10851   */\n      0x20\n        /* \"#utility.yul\":10875:10928   */\n      tag_477\n        /* \"#utility.yul\":10920:10927   */\n      dup6\n        /* \"#utility.yul\":10911:10917   */\n      dup3\n        /* \"#utility.yul\":10900:10909   */\n      dup7\n        /* \"#utility.yul\":10896:10918   */\n      add\n        /* \"#utility.yul\":10875:10928   */\n      tag_329\n      jump\t// in\n    tag_477:\n        /* \"#utility.yul\":10865:10928   */\n      swap2\n      pop\n        /* \"#utility.yul\":10820:10938   */\n      pop\n        /* \"#utility.yul\":10471:10945   */\n      swap3\n      pop\n      swap3\n      swap1\n      pop\n      jump\t// out\n        /* \"#utility.yul\":10951:11131   */\n    tag_341:\n        /* \"#utility.yul\":10999:11076   */\n      0x4e487b7100000000000000000000000000000000000000000000000000000000\n        /* \"#utility.yul\":10996:10997   */\n      0x00\n        /* \"#utility.yul\":10989:11077   */\n      mstore\n        /* \"#utility.yul\":11096:11100   */\n      0x22\n        /* \"#utility.yul\":11093:11094   */\n      0x04\n        /* \"#utility.yul\":11086:11101   */\n      mstore\n        /* \"#utility.yul\":11120:11124   */\n      0x24\n        /* \"#utility.yul\":11117:11118   */\n      0x00\n        /* \"#utility.yul\":11110:11125   */\n      revert\n        /* \"#utility.yul\":11137:11457   */\n    tag_116:\n        /* \"#utility.yul\":11181:11187   */\n      0x00\n        /* \"#utility.yul\":11218:11219   */\n      0x02\n        /* \"#utility.yul\":11212:11216   */\n      dup3\n        /* \"#utility.yul\":11208:11220   */\n      div\n        /* \"#utility.yul\":11198:11220   */\n      swap1\n      pop\n        /* \"#utility.yul\":11265:11266   */\n      0x01\n        /* \"#utility.yul\":11259:11263   */\n      dup3\n        /* \"#utility.yul\":11255:11267   */\n      and\n        /* \"#utility.yul\":11286:11304   */\n      dup1\n        /* \"#utility.yul\":11276:11357   */\n      tag_480\n      jumpi\n        /* \"#utility.yul\":11342:11346   */\n      0x7f\n        /* \"#utility.yul\":11334:11340   */\n      dup3\n        /* \"#utility.yul\":11330:11347   */\n      and\n        /* \"#utility.yul\":11320:11347   */\n      swap2\n      pop\n        /* \"#utility.yul\":11276:11357   */\n    tag_480:\n        /* \"#utility.yul\":11404:11406   */\n      0x20\n        /* \"#utility.yul\":11396:11402   */\n      dup3\n        /* \"#utility.yul\":11393:11407   */\n      lt\n        /* \"#utility.yul\":11373:11391   */\n      dup2\n        /* \"#utility.yul\":11370:11408   */\n      sub\n        /* \"#utility.yul\":11367:11451   */\n      tag_481\n      jumpi\n        /* \"#utility.yul\":11423:11441   */\n      tag_482\n      tag_341\n      jump\t// in\n    tag_482:\n        /* \"#utility.yul\":11367:11451   */\n    tag_481:\n        /* \"#utility.yul\":11188:11457   */\n      pop\n        /* \"#utility.yul\":11137:11457   */\n      swap2\n      swap1\n      pop\n      jump\t// out\n        /* \"#utility.yul\":11463:11611   */\n    tag_342:\n        /* \"#utility.yul\":11565:11576   */\n      0x00\n        /* \"#utility.yul\":11602:11605   */\n      dup2\n        /* \"#utility.yul\":11587:11605   */\n      swap1\n      pop\n        /* \"#utility.yul\":11463:11611   */\n      swap3\n      swap2\n      pop\n      pop\n      jump\t// out\n        /* \"#utility.yul\":11617:12007   */\n    tag_343:\n        /* \"#utility.yul\":11723:11726   */\n      0x00\n        /* \"#utility.yul\":11751:11790   */\n      tag_485\n        /* \"#utility.yul\":11784:11789   */\n      dup3\n        /* \"#utility.yul\":11751:11790   */\n      tag_317\n      jump\t// in\n    tag_485:\n        /* \"#utility.yul\":11806:11895   */\n      tag_486\n        /* \"#utility.yul\":11888:11894   */\n      dup2\n        /* \"#utility.yul\":11883:11886   */\n      dup6\n        /* \"#utility.yul\":11806:11895   */\n      tag_342\n      jump\t// in\n    tag_486:\n        /* \"#utility.yul\":11799:11895   */\n      swap4\n      pop\n        /* \"#utility.yul\":11904:11969   */\n      tag_487\n        /* \"#utility.yul\":11962:11968   */\n      dup2\n        /* \"#utility.yul\":11957:11960   */\n      dup6\n        /* \"#utility.yul\":11950:11954   */\n      0x20\n        /* \"#utility.yul\":11943:11948   */\n      dup7\n        /* \"#utility.yul\":11939:11955   */\n      add\n        /* \"#utility.yul\":11904:11969   */\n      tag_319\n      jump\t// in\n    tag_487:\n        /* \"#utility.yul\":11994:12000   */\n      dup1\n        /* \"#utility.yul\":11989:11992   */\n      dup5\n        /* \"#utility.yul\":11985:12001   */\n      add\n        /* \"#utility.yul\":11978:12001   */\n      swap2\n      pop\n        /* \"#utility.yul\":11727:12007   */\n      pop\n        /* \"#utility.yul\":11617:12007   */\n      swap3\n      swap2\n      pop\n      pop\n      jump\t// out\n        /* \"#utility.yul\":12013:12448   */\n    tag_201:\n        /* \"#utility.yul\":12193:12196   */\n      0x00\n        /* \"#utility.yul\":12215:12310   */\n      tag_489\n        /* \"#utility.yul\":12306:12309   */\n      dup3\n        /* \"#utility.yul\":12297:12303   */\n      dup6\n        /* \"#utility.yul\":12215:12310   */\n      tag_343\n      jump\t// in\n    tag_489:\n        /* \"#utility.yul\":12208:12310   */\n      swap2\n      pop\n        /* \"#utility.yul\":12327:12422   */\n      tag_490\n        /* \"#utility.yul\":12418:12421   */\n      dup3\n        /* \"#utility.yul\":12409:12415   */\n      dup5\n        /* \"#utility.yul\":12327:12422   */\n      tag_343\n      jump\t// in\n    tag_490:\n        /* \"#utility.yul\":12320:12422   */\n      swap2\n      pop\n        /* \"#utility.yul\":12439:12442   */\n      dup2\n        /* \"#utility.yul\":12432:12442   */\n      swap1\n      pop\n        /* \"#utility.yul\":12013:12448   */\n      swap4\n      swap3\n      pop\n      pop\n      pop\n      jump\t// out\n        /* \"#utility.yul\":12454:12634   */\n    tag_344:\n        /* \"#utility.yul\":12502:12579   */\n      0x4e487b7100000000000000000000000000000000000000000000000000000000\n        /* \"#utility.yul\":12499:12500   */\n      0x00\n        /* \"#utility.yul\":12492:12580   */\n      mstore\n        /* \"#utility.yul\":12599:12603   */\n      0x12\n        /* \"#utility.yul\":12596:12597   */\n      0x04\n        /* \"#utility.yul\":12589:12604   */\n      mstore\n        /* \"#utility.yul\":12623:12627   */\n      0x24\n        /* \"#utility.yul\":12620:12621   */\n      0x00\n        /* \"#utility.yul\":12613:12628   */\n      revert\n        /* \"#utility.yul\":12640:12816   */\n    tag_210:\n        /* \"#utility.yul\":12672:12673   */\n      0x00\n        /* \"#utility.yul\":12689:12709   */\n      tag_493\n        /* \"#utility.yul\":12707:12708   */\n      dup3\n        /* \"#utility.yul\":12689:12709   */\n      tag_322\n      jump\t// in\n    tag_493:\n        /* \"#utility.yul\":12684:12709   */\n      swap2\n      pop\n        /* \"#utility.yul\":12723:12743   */\n      tag_494\n        /* \"#utility.yul\":12741:12742   */\n      dup4\n        /* \"#utility.yul\":12723:12743   */\n      tag_322\n      jump\t// in\n    tag_494:\n        /* \"#utility.yul\":12718:12743   */\n      swap3\n      pop\n        /* \"#utility.yul\":12762:12763   */\n      dup3\n        /* \"#utility.yul\":12752:12787   */\n      tag_495\n      jumpi\n        /* \"#utility.yul\":12767:12785   */\n      tag_496\n      tag_344\n      jump\t// in\n    tag_496:\n        /* \"#utility.yul\":12752:12787   */\n    tag_495:\n        /* \"#utility.yul\":12808:12809   */\n      dup3\n        /* \"#utility.yul\":12805:12806   */\n      dup3\n        /* \"#utility.yul\":12801:12810   */\n      mod\n        /* \"#utility.yul\":12796:12810   */\n      swap1\n      pop\n        /* \"#utility.yul\":12640:12816   */\n      swap3\n      swap2\n      pop\n      pop\n      jump\t// out\n        /* \"#utility.yul\":12822:13002   */\n    tag_345:\n        /* \"#utility.yul\":12870:12947   */\n      0x4e487b7100000000000000000000000000000000000000000000000000000000\n        /* \"#utility.yul\":12867:12868   */\n      0x00\n        /* \"#utility.yul\":12860:12948   */\n      mstore\n        /* \"#utility.yul\":12967:12971   */\n      0x11\n        /* \"#utility.yul\":12964:12965   */\n      0x04\n        /* \"#utility.yul\":12957:12972   */\n      mstore\n        /* \"#utility.yul\":12991:12995   */\n      0x24\n        /* \"#utility.yul\":12988:12989   */\n      0x00\n        /* \"#utility.yul\":12981:12996   */\n      revert\n        /* \"#utility.yul\":13008:13418   */\n    tag_248:\n        /* \"#utility.yul\":13048:13055   */\n      0x00\n        /* \"#utility.yul\":13071:13091   */\n      tag_499\n        /* \"#utility.yul\":13089:13090   */\n      dup3\n        /* \"#utility.yul\":13071:13091   */\n      tag_322\n      jump\t// in\n    tag_499:\n        /* \"#utility.yul\":13066:13091   */\n      swap2\n      pop\n        /* \"#utility.yul\":13105:13125   */\n      tag_500\n        /* \"#utility.yul\":13123:13124   */\n      dup4\n        /* \"#utility.yul\":13105:13125   */\n      tag_322\n      jump\t// in\n    tag_500:\n        /* \"#utility.yul\":13100:13125   */\n      swap3\n      pop\n        /* \"#utility.yul\":13160:13161   */\n      dup3\n        /* \"#utility.yul\":13157:13158   */\n      dup3\n        /* \"#utility.yul\":13153:13162   */\n      mul\n        /* \"#utility.yul\":13182:13212   */\n      tag_501\n        /* \"#utility.yul\":13200:13211   */\n      dup2\n        /* \"#utility.yul\":13182:13212   */\n      tag_322\n      jump\t// in\n    tag_501:\n        /* \"#utility.yul\":13171:13212   */\n      swap2\n      pop\n        /* \"#utility.yul\":13361:13362   */\n      dup3\n        /* \"#utility.yul\":13352:13359   */\n      dup3\n        /* \"#utility.yul\":13348:13363   */\n      div\n        /* \"#utility.yul\":13345:13346   */\n      dup5\n        /* \"#utility.yul\":13342:13364   */\n      eq\n        /* \"#utility.yul\":13322:13323   */\n      dup4\n        /* \"#utility.yul\":13315:13324   */\n      iszero\n        /* \"#utility.yul\":13295:13378   */\n      or\n        /* \"#utility.yul\":13272:13411   */\n      tag_502\n      jumpi\n        /* \"#utility.yul\":13391:13409   */\n      tag_503\n      tag_345\n      jump\t// in\n    tag_503:\n        /* \"#utility.yul\":13272:13411   */\n    tag_502:\n        /* \"#utility.yul\":13056:13418   */\n      pop\n        /* \"#utility.yul\":13008:13418   */\n      swap3\n      swap2\n      pop\n      pop\n      jump\t// out\n        /* \"#utility.yul\":13424:13609   */\n    tag_251:\n        /* \"#utility.yul\":13464:13465   */\n      0x00\n        /* \"#utility.yul\":13481:13501   */\n      tag_505\n        /* \"#utility.yul\":13499:13500   */\n      dup3\n        /* \"#utility.yul\":13481:13501   */\n      tag_322\n      jump\t// in\n    tag_505:\n        /* \"#utility.yul\":13476:13501   */\n      swap2\n      pop\n        /* \"#utility.yul\":13515:13535   */\n      tag_506\n        /* \"#utility.yul\":13533:13534   */\n      dup4\n        /* \"#utility.yul\":13515:13535   */\n      tag_322\n      jump\t// in\n    tag_506:\n        /* \"#utility.yul\":13510:13535   */\n      swap3\n      pop\n        /* \"#utility.yul\":13554:13555   */\n      dup3\n        /* \"#utility.yul\":13544:13579   */\n      tag_507\n      jumpi\n        /* \"#utility.yul\":13559:13577   */\n      tag_508\n      tag_344\n      jump\t// in\n    tag_508:\n        /* \"#utility.yul\":13544:13579   */\n    tag_507:\n        /* \"#utility.yul\":13601:13602   */\n      dup3\n        /* \"#utility.yul\":13598:13599   */\n      dup3\n        /* \"#utility.yul\":13594:13603   */\n      div\n        /* \"#utility.yul\":13589:13603   */\n      swap1\n      pop\n        /* \"#utility.yul\":13424:13609   */\n      swap3\n      swap2\n      pop\n      pop\n      jump\t// out\n        /* \"#utility.yul\":13615:13713   */\n    tag_346:\n        /* \"#utility.yul\":13666:13672   */\n      0x00\n        /* \"#utility.yul\":13700:13705   */\n      dup2\n        /* \"#utility.yul\":13694:13706   */\n      mload\n        /* \"#utility.yul\":13684:13706   */\n      swap1\n      pop\n        /* \"#utility.yul\":13615:13713   */\n      swap2\n      swap1\n      pop\n      jump\t// out\n        /* \"#utility.yul\":13719:13887   */\n    tag_347:\n        /* \"#utility.yul\":13802:13813   */\n      0x00\n        /* \"#utility.yul\":13836:13842   */\n      dup3\n        /* \"#utility.yul\":13831:13834   */\n      dup3\n        /* \"#utility.yul\":13824:13843   */\n      mstore\n        /* \"#utility.yul\":13876:13880   */\n      0x20\n        /* \"#utility.yul\":13871:13874   */\n      dup3\n        /* \"#utility.yul\":13867:13881   */\n      add\n        /* \"#utility.yul\":13852:13881   */\n      swap1\n      pop\n        /* \"#utility.yul\":13719:13887   */\n      swap3\n      swap2\n      pop\n      pop\n      jump\t// out\n        /* \"#utility.yul\":13893:14266   */\n    tag_348:\n        /* \"#utility.yul\":13979:13982   */\n      0x00\n        /* \"#utility.yul\":14007:14045   */\n      tag_512\n        /* \"#utility.yul\":14039:14044   */\n      dup3\n        /* \"#utility.yul\":14007:14045   */\n      tag_346\n      jump\t// in\n    tag_512:\n        /* \"#utility.yul\":14061:14131   */\n      tag_513\n        /* \"#utility.yul\":14124:14130   */\n      dup2\n        /* \"#utility.yul\":14119:14122   */\n      dup6\n        /* \"#utility.yul\":14061:14131   */\n      tag_347\n      jump\t// in\n    tag_513:\n        /* \"#utility.yul\":14054:14131   */\n      swap4\n      pop\n        /* \"#utility.yul\":14140:14205   */\n      tag_514\n        /* \"#utility.yul\":14198:14204   */\n      dup2\n        /* \"#utility.yul\":14193:14196   */\n      dup6\n        /* \"#utility.yul\":14186:14190   */\n      0x20\n        /* \"#utility.yul\":14179:14184   */\n      dup7\n        /* \"#utility.yul\":14175:14191   */\n      add\n        /* \"#utility.yul\":14140:14205   */\n      tag_319\n      jump\t// in\n    tag_514:\n        /* \"#utility.yul\":14230:14259   */\n      tag_515\n        /* \"#utility.yul\":14252:14258   */\n      dup2\n        /* \"#utility.yul\":14230:14259   */\n      tag_320\n      jump\t// in\n    tag_515:\n        /* \"#utility.yul\":14225:14228   */\n      dup5\n        /* \"#utility.yul\":14221:14260   */\n      add\n        /* \"#utility.yul\":14214:14260   */\n      swap2\n      pop\n        /* \"#utility.yul\":13983:14266   */\n      pop\n        /* \"#utility.yul\":13893:14266   */\n      swap3\n      swap2\n      pop\n      pop\n      jump\t// out\n        /* \"#utility.yul\":14272:14912   */\n    tag_267:\n        /* \"#utility.yul\":14467:14471   */\n      0x00\n        /* \"#utility.yul\":14505:14508   */\n      0x80\n        /* \"#utility.yul\":14494:14503   */\n      dup3\n        /* \"#utility.yul\":14490:14509   */\n      add\n        /* \"#utility.yul\":14482:14509   */\n      swap1\n      pop\n        /* \"#utility.yul\":14519:14590   */\n      tag_517\n        /* \"#utility.yul\":14587:14588   */\n      0x00\n        /* \"#utility.yul\":14576:14585   */\n      dup4\n        /* \"#utility.yul\":14572:14589   */\n      add\n        /* \"#utility.yul\":14563:14569   */\n      dup8\n        /* \"#utility.yul\":14519:14590   */\n      tag_327\n      jump\t// in\n    tag_517:\n        /* \"#utility.yul\":14600:14672   */\n      tag_518\n        /* \"#utility.yul\":14668:14670   */\n      0x20\n        /* \"#utility.yul\":14657:14666   */\n      dup4\n        /* \"#utility.yul\":14653:14671   */\n      add\n        /* \"#utility.yul\":14644:14650   */\n      dup7\n        /* \"#utility.yul\":14600:14672   */\n      tag_327\n      jump\t// in\n    tag_518:\n        /* \"#utility.yul\":14682:14754   */\n      tag_519\n        /* \"#utility.yul\":14750:14752   */\n      0x40\n        /* \"#utility.yul\":14739:14748   */\n      dup4\n        /* \"#utility.yul\":14735:14753   */\n      add\n        /* \"#utility.yul\":14726:14732   */\n      dup6\n        /* \"#utility.yul\":14682:14754   */\n      tag_330\n      jump\t// in\n    tag_519:\n        /* \"#utility.yul\":14801:14810   */\n      dup2\n        /* \"#utility.yul\":14795:14799   */\n      dup2\n        /* \"#utility.yul\":14791:14811   */\n      sub\n        /* \"#utility.yul\":14786:14788   */\n      0x60\n        /* \"#utility.yul\":14775:14784   */\n      dup4\n        /* \"#utility.yul\":14771:14789   */\n      add\n        /* \"#utility.yul\":14764:14812   */\n      mstore\n        /* \"#utility.yul\":14829:14905   */\n      tag_520\n        /* \"#utility.yul\":14900:14904   */\n      dup2\n        /* \"#utility.yul\":14891:14897   */\n      dup5\n        /* \"#utility.yul\":14829:14905   */\n      tag_348\n      jump\t// in\n    tag_520:\n        /* \"#utility.yul\":14821:14905   */\n      swap1\n      pop\n        /* \"#utility.yul\":14272:14912   */\n      swap6\n      swap5\n      pop\n      pop\n      pop\n      pop\n      pop\n      jump\t// out\n        /* \"#utility.yul\":14918:15059   */\n    tag_349:\n        /* \"#utility.yul\":14974:14979   */\n      0x00\n        /* \"#utility.yul\":15005:15011   */\n      dup2\n        /* \"#utility.yul\":14999:15012   */\n      mload\n        /* \"#utility.yul\":14990:15012   */\n      swap1\n      pop\n        /* \"#utility.yul\":15021:15053   */\n      tag_522\n        /* \"#utility.yul\":15047:15052   */\n      dup2\n        /* \"#utility.yul\":15021:15053   */\n      tag_313\n      jump\t// in\n    tag_522:\n        /* \"#utility.yul\":14918:15059   */\n      swap3\n      swap2\n      pop\n      pop\n      jump\t// out\n        /* \"#utility.yul\":15065:15414   */\n    tag_270:\n        /* \"#utility.yul\":15134:15140   */\n      0x00\n        /* \"#utility.yul\":15183:15185   */\n      0x20\n        /* \"#utility.yul\":15171:15180   */\n      dup3\n        /* \"#utility.yul\":15162:15169   */\n      dup5\n        /* \"#utility.yul\":15158:15181   */\n      sub\n        /* \"#utility.yul\":15154:15186   */\n      slt\n        /* \"#utility.yul\":15151:15270   */\n      iszero\n      tag_524\n      jumpi\n        /* \"#utility.yul\":15189:15268   */\n      tag_525\n      tag_310\n      jump\t// in\n    tag_525:\n        /* \"#utility.yul\":15151:15270   */\n    tag_524:\n        /* \"#utility.yul\":15309:15310   */\n      0x00\n        /* \"#utility.yul\":15334:15397   */\n      tag_526\n        /* \"#utility.yul\":15389:15396   */\n      dup5\n        /* \"#utility.yul\":15380:15386   */\n      dup3\n        /* \"#utility.yul\":15369:15378   */\n      dup6\n        /* \"#utility.yul\":15365:15387   */\n      add\n        /* \"#utility.yul\":15334:15397   */\n      tag_349\n      jump\t// in\n    tag_526:\n        /* \"#utility.yul\":15324:15397   */\n      swap2\n      pop\n        /* \"#utility.yul\":15280:15407   */\n      pop\n        /* \"#utility.yul\":15065:15414   */\n      swap3\n      swap2\n      pop\n      pop\n      jump\t// out\n        /* \"#utility.yul\":15420:15614   */\n    tag_282:\n        /* \"#utility.yul\":15460:15464   */\n      0x00\n        /* \"#utility.yul\":15480:15500   */\n      tag_528\n        /* \"#utility.yul\":15498:15499   */\n      dup3\n        /* \"#utility.yul\":15480:15500   */\n      tag_322\n      jump\t// in\n    tag_528:\n        /* \"#utility.yul\":15475:15500   */\n      swap2\n      pop\n        /* \"#utility.yul\":15514:15534   */\n      tag_529\n        /* \"#utility.yul\":15532:15533   */\n      dup4\n        /* \"#utility.yul\":15514:15534   */\n      tag_322\n      jump\t// in\n    tag_529:\n        /* \"#utility.yul\":15509:15534   */\n      swap3\n      pop\n        /* \"#utility.yul\":15558:15559   */\n      dup3\n        /* \"#utility.yul\":15555:15556   */\n      dup3\n        /* \"#utility.yul\":15551:15560   */\n      sub\n        /* \"#utility.yul\":15543:15560   */\n      swap1\n      pop\n        /* \"#utility.yul\":15582:15583   */\n      dup2\n        /* \"#utility.yul\":15576:15580   */\n      dup2\n        /* \"#utility.yul\":15573:15584   */\n      gt\n        /* \"#utility.yul\":15570:15607   */\n      iszero\n      tag_530\n      jumpi\n        /* \"#utility.yul\":15587:15605   */\n      tag_531\n      tag_345\n      jump\t// in\n    tag_531:\n        /* \"#utility.yul\":15570:15607   */\n    tag_530:\n        /* \"#utility.yul\":15420:15614   */\n      swap3\n      swap2\n      pop\n      pop\n      jump\t// out\n        /* \"#utility.yul\":15620:15811   */\n    tag_285:\n        /* \"#utility.yul\":15660:15663   */\n      0x00\n        /* \"#utility.yul\":15679:15699   */\n      tag_533\n        /* \"#utility.yul\":15697:15698   */\n      dup3\n        /* \"#utility.yul\":15679:15699   */\n      tag_322\n      jump\t// in\n    tag_533:\n        /* \"#utility.yul\":15674:15699   */\n      swap2\n      pop\n        /* \"#utility.yul\":15713:15733   */\n      tag_534\n        /* \"#utility.yul\":15731:15732   */\n      dup4\n        /* \"#utility.yul\":15713:15733   */\n      tag_322\n      jump\t// in\n    tag_534:\n        /* \"#utility.yul\":15708:15733   */\n      swap3\n      pop\n        /* \"#utility.yul\":15756:15757   */\n      dup3\n        /* \"#utility.yul\":15753:15754   */\n      dup3\n        /* \"#utility.yul\":15749:15758   */\n      add\n        /* \"#utility.yul\":15742:15758   */\n      swap1\n      pop\n        /* \"#utility.yul\":15777:15780   */\n      dup1\n        /* \"#utility.yul\":15774:15775   */\n      dup3\n        /* \"#utility.yul\":15771:15781   */\n      gt\n        /* \"#utility.yul\":15768:15804   */\n      iszero\n      tag_535\n      jumpi\n        /* \"#utility.yul\":15784:15802   */\n      tag_536\n      tag_345\n      jump\t// in\n    tag_536:\n        /* \"#utility.yul\":15768:15804   */\n    tag_535:\n        /* \"#utility.yul\":15620:15811   */\n      swap3\n      swap2\n      pop\n      pop\n      jump\t// out\n        /* \"#utility.yul\":15817:16050   */\n    tag_292:\n        /* \"#utility.yul\":15856:15859   */\n      0x00\n        /* \"#utility.yul\":15879:15903   */\n      tag_538\n        /* \"#utility.yul\":15897:15902   */\n      dup3\n        /* \"#utility.yul\":15879:15903   */\n      tag_322\n      jump\t// in\n    tag_538:\n        /* \"#utility.yul\":15870:15903   */\n      swap2\n      pop\n        /* \"#utility.yul\":15925:15991   */\n      0xffffffffffffffffffffffffffffffffffffffffffffffffffffffffffffffff\n        /* \"#utility.yul\":15918:15923   */\n      dup3\n        /* \"#utility.yul\":15915:15992   */\n      sub\n        /* \"#utility.yul\":15912:16015   */\n      tag_539\n      jumpi\n        /* \"#utility.yul\":15995:16013   */\n      tag_540\n      tag_345\n      jump\t// in\n    tag_540:\n        /* \"#utility.yul\":15912:16015   */\n    tag_539:\n        /* \"#utility.yul\":16042:16043   */\n      0x01\n        /* \"#utility.yul\":16035:16040   */\n      dup3\n        /* \"#utility.yul\":16031:16044   */\n      add\n        /* \"#utility.yul\":16024:16044   */\n      swap1\n      pop\n        /* \"#utility.yul\":15817:16050   */\n      swap2\n      swap1\n      pop\n      jump\t// out\n        /* \"#utility.yul\":16056:16236   */\n    tag_305:\n        /* \"#utility.yul\":16104:16181   */\n      0x4e487b7100000000000000000000000000000000000000000000000000000000\n        /* \"#utility.yul\":16101:16102   */\n      0x00\n        /* \"#utility.yul\":16094:16182   */\n      mstore\n        /* \"#utility.yul\":16201:16205   */\n      0x32\n        /* \"#utility.yul\":16198:16199   */\n      0x04\n        /* \"#utility.yul\":16191:16206   */\n      mstore\n        /* \"#utility.yul\":16225:16229   */\n      0x24\n        /* \"#utility.yul\":16222:16223   */\n      0x00\n        /* \"#utility.yul\":16215:16230   */\n      revert\n    stop\n    data_626642f6930f156f677ccaa99d1115840f2527d6f062eede1de4dda1bd081a2d 68747470733a2f2f676174657761792e70696e6174612e636c6f75642f697066732f516d65794b6e7658584d78417557473570743335457a3851684a6852363352445653775566736a4b61795234325a2f\n\n    auxdata: 0xa2646970667358221220e998a977448829ad90fd2ca234dc35dedfa45999a683f72f536d564ee0b7efe564736f6c63430008110033\n}\n",
				"bytecode": {
					"linkReferences": {},
					"object": "60806040523480156200001157600080fd5b5060405162002eb238038062002eb283398181016040528101906200003791906200027c565b826007908162000048919062000557565b5081600890816200005a919062000557565b5061271060058190555062000074620000a960201b60201c565b60048190555080600081905550671bc16d674ec8000060018190555061b3b0600381905550436002819055505050506200063e565b600090565b6000604051905090565b600080fd5b600080fd5b600080fd5b600080fd5b6000601f19601f8301169050919050565b7f4e487b7100000000000000000000000000000000000000000000000000000000600052604160045260246000fd5b6200011782620000cc565b810181811067ffffffffffffffff82111715620001395762000138620000dd565b5b80604052505050565b60006200014e620000ae565b90506200015c82826200010c565b919050565b600067ffffffffffffffff8211156200017f576200017e620000dd565b5b6200018a82620000cc565b9050602081019050919050565b60005b83811015620001b75780820151818401526020810190506200019a565b60008484015250505050565b6000620001da620001d48462000161565b62000142565b905082815260208101848484011115620001f957620001f8620000c7565b5b6200020684828562000197565b509392505050565b600082601f830112620002265762000225620000c2565b5b815162000238848260208601620001c3565b91505092915050565b6000819050919050565b620002568162000241565b81146200026257600080fd5b50565b60008151905062000276816200024b565b92915050565b600080600060608486031215620002985762000297620000b8565b5b600084015167ffffffffffffffff811115620002b957620002b8620000bd565b5b620002c7868287016200020e565b935050602084015167ffffffffffffffff811115620002eb57620002ea620000bd565b5b620002f9868287016200020e565b92505060406200030c8682870162000265565b9150509250925092565b600081519050919050565b7f4e487b7100000000000000000000000000000000000000000000000000000000600052602260045260246000fd5b600060028204905060018216806200036957607f821691505b6020821081036200037f576200037e62000321565b5b50919050565b60008190508160005260206000209050919050565b60006020601f8301049050919050565b600082821b905092915050565b600060088302620003e97fffffffffffffffffffffffffffffffffffffffffffffffffffffffffffffffff82620003aa565b620003f58683620003aa565b95508019841693508086168417925050509392505050565b6000819050919050565b600062000438620004326200042c8462000241565b6200040d565b62000241565b9050919050565b6000819050919050565b620004548362000417565b6200046c62000463826200043f565b848454620003b7565b825550505050565b600090565b6200048362000474565b6200049081848462000449565b505050565b5b81811015620004b857620004ac60008262000479565b60018101905062000496565b5050565b601f8211156200050757620004d18162000385565b620004dc846200039a565b81016020851015620004ec578190505b62000504620004fb856200039a565b83018262000495565b50505b505050565b600082821c905092915050565b60006200052c600019846008026200050c565b1980831691505092915050565b600062000547838362000519565b9150826002028217905092915050565b620005628262000316565b67ffffffffffffffff8111156200057e576200057d620000dd565b5b6200058a825462000350565b62000597828285620004bc565b600060209050601f831160018114620005cf5760008415620005ba578287015190505b620005c6858262000539565b86555062000636565b601f198416620005df8662000385565b60005b828110156200060957848901518255600182019150602085019450602081019050620005e2565b8683101562000629578489015162000625601f89168262000519565b8355505b6001600288020188555050505b505050505050565b612864806200064e6000396000f3fe608060405234801561001057600080fd5b506004361061012c5760003560e01c8063922a526c116100ad578063c87b56dd11610071578063c87b56dd14610367578063d5abeb0114610397578063db3ad22c146103b5578063e985e9c5146103d3578063f390c328146104035761012c565b8063922a526c146102b157806395d89b41146102e1578063a22cb465146102ff578063b88d4fde1461031b578063b8ba6007146103375761012c565b806323b872dd116100f457806323b872dd146101e957806342842e0e146102055780634be3403c146102215780636352211e1461025157806370a08231146102815761012c565b806301ffc9a71461013157806306fdde0314610161578063081812fc1461017f578063095ea7b3146101af57806318160ddd146101cb575b600080fd5b61014b60048036038101906101469190611ecb565b610433565b6040516101589190611f13565b60405180910390f35b610169610515565b6040516101769190611fbe565b60405180910390f35b61019960048036038101906101949190612016565b6105a7565b6040516101a69190612084565b60405180910390f35b6101c960048036038101906101c491906120cb565b610623565b005b6101d3610727565b6040516101e0919061211a565b60405180910390f35b61020360048036038101906101fe9190612135565b61073e565b005b61021f600480360381019061021a9190612135565b61074e565b005b61023b60048036038101906102369190612016565b61076e565b604051610248919061211a565b60405180910390f35b61026b60048036038101906102669190612016565b6107f6565b6040516102789190612084565b60405180910390f35b61029b60048036038101906102969190612188565b61080c565b6040516102a8919061211a565b60405180910390f35b6102cb60048036038101906102c691906121b5565b6108db565b6040516102d8919061211a565b60405180910390f35b6102e96108f5565b6040516102f69190611fbe565b60405180910390f35b61031960048036038101906103149190612221565b610987565b005b61033560048036038101906103309190612396565b610afe565b005b610351600480360381019061034c9190612188565b610b76565b60405161035e919061211a565b60405180910390f35b610381600480360381019061037c9190612016565b610d72565b60405161038e9190611fbe565b60405180910390f35b61039f610e10565b6040516103ac919061211a565b60405180910390f35b6103bd610e27565b6040516103ca919061211a565b60405180910390f35b6103ed60048036038101906103e89190612419565b610e31565b6040516103fa9190611f13565b60405180910390f35b61041d60048036038101906104189190612016565b610ec5565b60405161042a919061211a565b60405180910390f35b60007f80ac58cd000000000000000000000000000000000000000000000000000000007bffffffffffffffffffffffffffffffffffffffffffffffffffffffff1916827bffffffffffffffffffffffffffffffffffffffffffffffffffffffff191614806104fe57507f5b5e139f000000000000000000000000000000000000000000000000000000007bffffffffffffffffffffffffffffffffffffffffffffffffffffffff1916827bffffffffffffffffffffffffffffffffffffffffffffffffffffffff1916145b8061050e575061050d82610f27565b5b9050919050565b60606007805461052490612488565b80601f016020809104026020016040519081016040528092919081815260200182805461055090612488565b801561059d5780601f106105725761010080835404028352916020019161059d565b820191906000526020600020905b81548152906001019060200180831161058057829003601f168201915b5050505050905090565b60006105b282610f91565b6105e8576040517fcf4700e400000000000000000000000000000000000000000000000000000000815260040160405180910390fd5b600b600083815260200190815260200160002060009054906101000a900473ffffffffffffffffffffffffffffffffffffffff169050919050565b600061062e826107f6565b90508073ffffffffffffffffffffffffffffffffffffffff168373ffffffffffffffffffffffffffffffffffffffff1603610695576040517f943f7b8c00000000000000000000000000000000000000000000000000000000815260040160405180910390fd5b8073ffffffffffffffffffffffffffffffffffffffff166106b4610fdf565b73ffffffffffffffffffffffffffffffffffffffff1614610717576106e0816106db610fdf565b610e31565b610716576040517fcfb3b94200000000000000000000000000000000000000000000000000000000815260040160405180910390fd5b5b610722838383610fe7565b505050565b6000610731611099565b6006546004540303905090565b61074983838361109e565b505050565b61076983838360405180602001604052806000815250610afe565b505050565b60006002548210156107805760025491505b600061079f670de0b6b3a764000060015461183a90919063ffffffff16565b905060006107d26002546107c4670de0b6b3a76400008761183a90919063ffffffff16565b61185090919063ffffffff16565b905060006107e9828461185090919063ffffffff16565b9050809350505050919050565b600061080182611866565b600001519050919050565b60008073ffffffffffffffffffffffffffffffffffffffff168273ffffffffffffffffffffffffffffffffffffffff1603610873576040517f8f4eb60400000000000000000000000000000000000000000000000000000000815260040160405180910390fd5b600a60008373ffffffffffffffffffffffffffffffffffffffff1673ffffffffffffffffffffffffffffffffffffffff16815260200190815260200160002060000160009054906101000a900467ffffffffffffffff1667ffffffffffffffff169050919050565b60006108e5611099565b6006546005540303905092915050565b60606008805461090490612488565b80601f016020809104026020016040519081016040528092919081815260200182805461093090612488565b801561097d5780601f106109525761010080835404028352916020019161097d565b820191906000526020600020905b81548152906001019060200180831161096057829003601f168201915b5050505050905090565b61098f610fdf565b73ffffffffffffffffffffffffffffffffffffffff168273ffffffffffffffffffffffffffffffffffffffff16036109f3576040517fb06307db00000000000000000000000000000000000000000000000000000000815260040160405180910390fd5b80600c6000610a00610fdf565b73ffffffffffffffffffffffffffffffffffffffff1673ffffffffffffffffffffffffffffffffffffffff16815260200190815260200160002060008473ffffffffffffffffffffffffffffffffffffffff1673ffffffffffffffffffffffffffffffffffffffff16815260200190815260200160002060006101000a81548160ff0219169083151502179055508173ffffffffffffffffffffffffffffffffffffffff16610aad610fdf565b73ffffffffffffffffffffffffffffffffffffffff167f17307eab39ab6107e8899845ad3d59bd9653f200f220920489ca2b5937696c3183604051610af29190611f13565b60405180910390a35050565b610b0984848461109e565b610b288373ffffffffffffffffffffffffffffffffffffffff16611af1565b15610b7057610b3984848484611b14565b610b6f576040517fd1a57ed600000000000000000000000000000000000000000000000000000000815260040160405180910390fd5b5b50505050565b600080610bdd600d60008573ffffffffffffffffffffffffffffffffffffffff1673ffffffffffffffffffffffffffffffffffffffff1681526020019081526020016000206000600181526020019081526020016000205443611c6490919063ffffffff16565b90506000610c3b600d60008673ffffffffffffffffffffffffffffffffffffffff1673ffffffffffffffffffffffffffffffffffffffff1681526020019081526020016000206000600181526020019081526020016000205461076e565b90506000610c484361076e565b90506000610c846002610c7686610c688688611c7a90919063ffffffff16565b61183a90919063ffffffff16565b61185090919063ffffffff16565b90506000610d00600354610cf2600d60008b73ffffffffffffffffffffffffffffffffffffffff1673ffffffffffffffffffffffffffffffffffffffff168152602001908152602001600020600060028152602001908152602001600020548561183a90919063ffffffff16565b61185090919063ffffffff16565b9050610d6681600d60008a73ffffffffffffffffffffffffffffffffffffffff1673ffffffffffffffffffffffffffffffffffffffff16815260200190815260200160002060006003815260200190815260200160002054611c7a90919063ffffffff16565b95505050505050919050565b6060610d7d82610f91565b610db3576040517fa14c4b5000000000000000000000000000000000000000000000000000000000815260040160405180910390fd5b6000610dbd611c90565b90506000815103610ddd5760405180602001604052806000815250610e08565b80610de784611cb0565b604051602001610df89291906124f5565b6040516020818303038152906040525b915050919050565b6000610e1a611099565b6006546005540303905090565b6000600354905090565b6000600c60008473ffffffffffffffffffffffffffffffffffffffff1673ffffffffffffffffffffffffffffffffffffffff16815260200190815260200160002060008373ffffffffffffffffffffffffffffffffffffffff1673ffffffffffffffffffffffffffffffffffffffff16815260200190815260200160002060009054906101000a900460ff16905092915050565b600080610eef83610ee16000548661183a90919063ffffffff16565b611c7a90919063ffffffff16565b90506000600a82610f009190612548565b03610f0e5760019050610f1e565b600a81610f1b9190612548565b90505b80915050919050565b60007f01ffc9a7000000000000000000000000000000000000000000000000000000007bffffffffffffffffffffffffffffffffffffffffffffffffffffffff1916827bffffffffffffffffffffffffffffffffffffffffffffffffffffffff1916149050919050565b600081610f9c611099565b11158015610fab575060045482105b8015610fd8575060096000838152602001908152602001600020600001601c9054906101000a900460ff16155b9050919050565b600033905090565b82600b600084815260200190815260200160002060006101000a81548173ffffffffffffffffffffffffffffffffffffffff021916908373ffffffffffffffffffffffffffffffffffffffff160217905550818373ffffffffffffffffffffffffffffffffffffffff168273ffffffffffffffffffffffffffffffffffffffff167f8c5be1e5ebec7d5bd14f71427d1e84f3dd0314c0f7b2291e5b200ac8c7c3b92560405160405180910390a4505050565b600090565b60006110a982610ec5565b90506110b484610b76565b600d60008673ffffffffffffffffffffffffffffffffffffffff1673ffffffffffffffffffffffffffffffffffffffff1681526020019081526020016000206000600381526020019081526020016000208190555061116d81600d60008773ffffffffffffffffffffffffffffffffffffffff1673ffffffffffffffffffffffffffffffffffffffff16815260200190815260200160002060006002815260200190815260200160002054611c6490919063ffffffff16565b600d60008673ffffffffffffffffffffffffffffffffffffffff1673ffffffffffffffffffffffffffffffffffffffff1681526020019081526020016000206000600281526020019081526020016000208190555043600d60008673ffffffffffffffffffffffffffffffffffffffff1673ffffffffffffffffffffffffffffffffffffffff1681526020019081526020016000206000600181526020019081526020016000208190555061122183610b76565b600d60008573ffffffffffffffffffffffffffffffffffffffff1673ffffffffffffffffffffffffffffffffffffffff168152602001908152602001600020600060038152602001908152602001600020819055506112da81600d60008673ffffffffffffffffffffffffffffffffffffffff1673ffffffffffffffffffffffffffffffffffffffff16815260200190815260200160002060006002815260200190815260200160002054611c7a90919063ffffffff16565b600d60008573ffffffffffffffffffffffffffffffffffffffff1673ffffffffffffffffffffffffffffffffffffffff1681526020019081526020016000206000600281526020019081526020016000208190555043600d60008573ffffffffffffffffffffffffffffffffffffffff1673ffffffffffffffffffffffffffffffffffffffff16815260200190815260200160002060006001815260200190815260200160002081905550600061139083611866565b90508473ffffffffffffffffffffffffffffffffffffffff16816000015173ffffffffffffffffffffffffffffffffffffffff16146113fb576040517fa114810000000000000000000000000000000000000000000000000000000000815260040160405180910390fd5b60008573ffffffffffffffffffffffffffffffffffffffff1661141c610fdf565b73ffffffffffffffffffffffffffffffffffffffff16148061144b575061144a86611445610fdf565b610e31565b5b806114905750611459610fdf565b73ffffffffffffffffffffffffffffffffffffffff16611478856105a7565b73ffffffffffffffffffffffffffffffffffffffff16145b9050806114c9576040517f59c896be00000000000000000000000000000000000000000000000000000000815260040160405180910390fd5b600073ffffffffffffffffffffffffffffffffffffffff168573ffffffffffffffffffffffffffffffffffffffff160361152f576040517fea553b3400000000000000000000000000000000000000000000000000000000815260040160405180910390fd5b61153c8686866001611e10565b61154860008588610fe7565b6001600a60008873ffffffffffffffffffffffffffffffffffffffff1673ffffffffffffffffffffffffffffffffffffffff16815260200190815260200160002060000160008282829054906101000a900467ffffffffffffffff160392506101000a81548167ffffffffffffffff021916908367ffffffffffffffff1602179055506001600a60008773ffffffffffffffffffffffffffffffffffffffff1673ffffffffffffffffffffffffffffffffffffffff16815260200190815260200160002060000160008282829054906101000a900467ffffffffffffffff160192506101000a81548167ffffffffffffffff021916908367ffffffffffffffff1602179055506000600960008681526020019081526020016000209050858160000160006101000a81548173ffffffffffffffffffffffffffffffffffffffff021916908373ffffffffffffffffffffffffffffffffffffffff160217905550428160000160146101000a81548167ffffffffffffffff021916908367ffffffffffffffff16021790555060006001860190506000600960008381526020019081526020016000209050600073ffffffffffffffffffffffffffffffffffffffff168160000160009054906101000a900473ffffffffffffffffffffffffffffffffffffffff1673ffffffffffffffffffffffffffffffffffffffff16036117c75760045482146117c657888160000160006101000a81548173ffffffffffffffffffffffffffffffffffffffff021916908373ffffffffffffffffffffffffffffffffffffffff16021790555084602001518160000160146101000a81548167ffffffffffffffff021916908367ffffffffffffffff1602179055505b5b505050838573ffffffffffffffffffffffffffffffffffffffff168773ffffffffffffffffffffffffffffffffffffffff167fddf252ad1be2c89b69c2b068fc378daa952ba7f163c4a11628f55a4df523b3ef60405160405180910390a46118328686866001611e16565b505050505050565b6000818361184891906125a8565b905092915050565b6000818361185e91906125ea565b905092915050565b61186e611e1c565b60008290508061187c611099565b11611aba57600454811015611ab9576000600960008381526020019081526020016000206040518060600160405290816000820160009054906101000a900473ffffffffffffffffffffffffffffffffffffffff1673ffffffffffffffffffffffffffffffffffffffff1673ffffffffffffffffffffffffffffffffffffffff1681526020016000820160149054906101000a900467ffffffffffffffff1667ffffffffffffffff1667ffffffffffffffff16815260200160008201601c9054906101000a900460ff16151515158152505090508060400151611ab757600073ffffffffffffffffffffffffffffffffffffffff16816000015173ffffffffffffffffffffffffffffffffffffffff161461199b578092505050611aec565b5b600115611ab657818060019003925050600960008381526020019081526020016000206040518060600160405290816000820160009054906101000a900473ffffffffffffffffffffffffffffffffffffffff1673ffffffffffffffffffffffffffffffffffffffff1673ffffffffffffffffffffffffffffffffffffffff1681526020016000820160149054906101000a900467ffffffffffffffff1667ffffffffffffffff1667ffffffffffffffff16815260200160008201601c9054906101000a900460ff1615151515815250509050600073ffffffffffffffffffffffffffffffffffffffff16816000015173ffffffffffffffffffffffffffffffffffffffff1614611ab1578092505050611aec565b61199c565b5b505b5b6040517fdf2d9b4200000000000000000000000000000000000000000000000000000000815260040160405180910390fd5b919050565b6000808273ffffffffffffffffffffffffffffffffffffffff163b119050919050565b60008373ffffffffffffffffffffffffffffffffffffffff1663150b7a02611b3a610fdf565b8786866040518563ffffffff1660e01b8152600401611b5c9493929190612670565b6020604051808303816000875af1925050508015611b9857506040513d601f19601f82011682018060405250810190611b9591906126d1565b60015b611c11573d8060008114611bc8576040519150601f19603f3d011682016040523d82523d6000602084013e611bcd565b606091505b506000815103611c09576040517fd1a57ed600000000000000000000000000000000000000000000000000000000815260040160405180910390fd5b805181602001fd5b63150b7a0260e01b7bffffffffffffffffffffffffffffffffffffffffffffffffffffffff1916817bffffffffffffffffffffffffffffffffffffffffffffffffffffffff191614915050949350505050565b60008183611c7291906126fe565b905092915050565b60008183611c889190612732565b905092915050565b60606040518060800160405280605181526020016127de60519139905090565b606060008203611cf7576040518060400160405280600181526020017f30000000000000000000000000000000000000000000000000000000000000008152509050611e0b565b600082905060005b60008214611d29578080611d1290612766565b915050600a82611d2291906125ea565b9150611cff565b60008167ffffffffffffffff811115611d4557611d4461226b565b5b6040519080825280601f01601f191660200182016040528015611d775781602001600182028036833780820191505090505b5090505b60008514611e0457600182611d9091906126fe565b9150600a85611d9f9190612548565b6030611dab9190612732565b60f81b818381518110611dc157611dc06127ae565b5b60200101907effffffffffffffffffffffffffffffffffffffffffffffffffffffffffffff1916908160001a905350600a85611dfd91906125ea565b9450611d7b565b8093505050505b919050565b50505050565b50505050565b6040518060600160405280600073ffffffffffffffffffffffffffffffffffffffff168152602001600067ffffffffffffffff1681526020016000151581525090565b6000604051905090565b600080fd5b600080fd5b60007fffffffff0000000000000000000000000000000000000000000000000000000082169050919050565b611ea881611e73565b8114611eb357600080fd5b50565b600081359050611ec581611e9f565b92915050565b600060208284031215611ee157611ee0611e69565b5b6000611eef84828501611eb6565b91505092915050565b60008115159050919050565b611f0d81611ef8565b82525050565b6000602082019050611f286000830184611f04565b92915050565b600081519050919050565b600082825260208201905092915050565b60005b83811015611f68578082015181840152602081019050611f4d565b60008484015250505050565b6000601f19601f8301169050919050565b6000611f9082611f2e565b611f9a8185611f39565b9350611faa818560208601611f4a565b611fb381611f74565b840191505092915050565b60006020820190508181036000830152611fd88184611f85565b905092915050565b6000819050919050565b611ff381611fe0565b8114611ffe57600080fd5b50565b60008135905061201081611fea565b92915050565b60006020828403121561202c5761202b611e69565b5b600061203a84828501612001565b91505092915050565b600073ffffffffffffffffffffffffffffffffffffffff82169050919050565b600061206e82612043565b9050919050565b61207e81612063565b82525050565b60006020820190506120996000830184612075565b92915050565b6120a881612063565b81146120b357600080fd5b50565b6000813590506120c58161209f565b92915050565b600080604083850312156120e2576120e1611e69565b5b60006120f0858286016120b6565b925050602061210185828601612001565b9150509250929050565b61211481611fe0565b82525050565b600060208201905061212f600083018461210b565b92915050565b60008060006060848603121561214e5761214d611e69565b5b600061215c868287016120b6565b935050602061216d868287016120b6565b925050604061217e86828701612001565b9150509250925092565b60006020828403121561219e5761219d611e69565b5b60006121ac848285016120b6565b91505092915050565b600080604083850312156121cc576121cb611e69565b5b60006121da85828601612001565b92505060206121eb85828601612001565b9150509250929050565b6121fe81611ef8565b811461220957600080fd5b50565b60008135905061221b816121f5565b92915050565b6000806040838503121561223857612237611e69565b5b6000612246858286016120b6565b92505060206122578582860161220c565b9150509250929050565b600080fd5b600080fd5b7f4e487b7100000000000000000000000000000000000000000000000000000000600052604160045260246000fd5b6122a382611f74565b810181811067ffffffffffffffff821117156122c2576122c161226b565b5b80604052505050565b60006122d5611e5f565b90506122e1828261229a565b919050565b600067ffffffffffffffff8211156123015761230061226b565b5b61230a82611f74565b9050602081019050919050565b82818337600083830152505050565b6000612339612334846122e6565b6122cb565b90508281526020810184848401111561235557612354612266565b5b612360848285612317565b509392505050565b600082601f83011261237d5761237c612261565b5b813561238d848260208601612326565b91505092915050565b600080600080608085870312156123b0576123af611e69565b5b60006123be878288016120b6565b94505060206123cf878288016120b6565b93505060406123e087828801612001565b925050606085013567ffffffffffffffff81111561240157612400611e6e565b5b61240d87828801612368565b91505092959194509250565b600080604083850312156124305761242f611e69565b5b600061243e858286016120b6565b925050602061244f858286016120b6565b9150509250929050565b7f4e487b7100000000000000000000000000000000000000000000000000000000600052602260045260246000fd5b600060028204905060018216806124a057607f821691505b6020821081036124b3576124b2612459565b5b50919050565b600081905092915050565b60006124cf82611f2e565b6124d981856124b9565b93506124e9818560208601611f4a565b80840191505092915050565b600061250182856124c4565b915061250d82846124c4565b91508190509392505050565b7f4e487b7100000000000000000000000000000000000000000000000000000000600052601260045260246000fd5b600061255382611fe0565b915061255e83611fe0565b92508261256e5761256d612519565b5b828206905092915050565b7f4e487b7100000000000000000000000000000000000000000000000000000000600052601160045260246000fd5b60006125b382611fe0565b91506125be83611fe0565b92508282026125cc81611fe0565b915082820484148315176125e3576125e2612579565b5b5092915050565b60006125f582611fe0565b915061260083611fe0565b9250826126105761260f612519565b5b828204905092915050565b600081519050919050565b600082825260208201905092915050565b60006126428261261b565b61264c8185612626565b935061265c818560208601611f4a565b61266581611f74565b840191505092915050565b60006080820190506126856000830187612075565b6126926020830186612075565b61269f604083018561210b565b81810360608301526126b18184612637565b905095945050505050565b6000815190506126cb81611e9f565b92915050565b6000602082840312156126e7576126e6611e69565b5b60006126f5848285016126bc565b91505092915050565b600061270982611fe0565b915061271483611fe0565b925082820390508181111561272c5761272b612579565b5b92915050565b600061273d82611fe0565b915061274883611fe0565b92508282019050808211156127605761275f612579565b5b92915050565b600061277182611fe0565b91507fffffffffffffffffffffffffffffffffffffffffffffffffffffffffffffffff82036127a3576127a2612579565b5b600182019050919050565b7f4e487b7100000000000000000000000000000000000000000000000000000000600052603260045260246000fdfe68747470733a2f2f676174657761792e70696e6174612e636c6f75642f697066732f516d65794b6e7658584d78417557473570743335457a3851684a6852363352445653775566736a4b61795234325a2fa2646970667358221220e998a977448829ad90fd2ca234dc35dedfa45999a683f72f536d564ee0b7efe564736f6c63430008110033",
					"opcodes": "PUSH1 0x80 PUSH1 0x40 MSTORE CALLVALUE DUP1 ISZERO PUSH3 0x11 JUMPI PUSH1 0x0 DUP1 REVERT JUMPDEST POP PUSH1 0x40 MLOAD PUSH3 0x2EB2 CODESIZE SUB DUP1 PUSH3 0x2EB2 DUP4 CODECOPY DUP2 DUP2 ADD PUSH1 0x40 MSTORE DUP2 ADD SWAP1 PUSH3 0x37 SWAP2 SWAP1 PUSH3 0x27C JUMP JUMPDEST DUP3 PUSH1 0x7 SWAP1 DUP2 PUSH3 0x48 SWAP2 SWAP1 PUSH3 0x557 JUMP JUMPDEST POP DUP2 PUSH1 0x8 SWAP1 DUP2 PUSH3 0x5A SWAP2 SWAP1 PUSH3 0x557 JUMP JUMPDEST POP PUSH2 0x2710 PUSH1 0x5 DUP2 SWAP1 SSTORE POP PUSH3 0x74 PUSH3 0xA9 PUSH1 0x20 SHL PUSH1 0x20 SHR JUMP JUMPDEST PUSH1 0x4 DUP2 SWAP1 SSTORE POP DUP1 PUSH1 0x0 DUP2 SWAP1 SSTORE POP PUSH8 0x1BC16D674EC80000 PUSH1 0x1 DUP2 SWAP1 SSTORE POP PUSH2 0xB3B0 PUSH1 0x3 DUP2 SWAP1 SSTORE POP NUMBER PUSH1 0x2 DUP2 SWAP1 SSTORE POP POP POP POP PUSH3 0x63E JUMP JUMPDEST PUSH1 0x0 SWAP1 JUMP JUMPDEST PUSH1 0x0 PUSH1 0x40 MLOAD SWAP1 POP SWAP1 JUMP JUMPDEST PUSH1 0x0 DUP1 REVERT JUMPDEST PUSH1 0x0 DUP1 REVERT JUMPDEST PUSH1 0x0 DUP1 REVERT JUMPDEST PUSH1 0x0 DUP1 REVERT JUMPDEST PUSH1 0x0 PUSH1 0x1F NOT PUSH1 0x1F DUP4 ADD AND SWAP1 POP SWAP2 SWAP1 POP JUMP JUMPDEST PUSH32 0x4E487B7100000000000000000000000000000000000000000000000000000000 PUSH1 0x0 MSTORE PUSH1 0x41 PUSH1 0x4 MSTORE PUSH1 0x24 PUSH1 0x0 REVERT JUMPDEST PUSH3 0x117 DUP3 PUSH3 0xCC JUMP JUMPDEST DUP2 ADD DUP2 DUP2 LT PUSH8 0xFFFFFFFFFFFFFFFF DUP3 GT OR ISZERO PUSH3 0x139 JUMPI PUSH3 0x138 PUSH3 0xDD JUMP JUMPDEST JUMPDEST DUP1 PUSH1 0x40 MSTORE POP POP POP JUMP JUMPDEST PUSH1 0x0 PUSH3 0x14E PUSH3 0xAE JUMP JUMPDEST SWAP1 POP PUSH3 0x15C DUP3 DUP3 PUSH3 0x10C JUMP JUMPDEST SWAP2 SWAP1 POP JUMP JUMPDEST PUSH1 0x0 PUSH8 0xFFFFFFFFFFFFFFFF DUP3 GT ISZERO PUSH3 0x17F JUMPI PUSH3 0x17E PUSH3 0xDD JUMP JUMPDEST JUMPDEST PUSH3 0x18A DUP3 PUSH3 0xCC JUMP JUMPDEST SWAP1 POP PUSH1 0x20 DUP2 ADD SWAP1 POP SWAP2 SWAP1 POP JUMP JUMPDEST PUSH1 0x0 JUMPDEST DUP4 DUP2 LT ISZERO PUSH3 0x1B7 JUMPI DUP1 DUP3 ADD MLOAD DUP2 DUP5 ADD MSTORE PUSH1 0x20 DUP2 ADD SWAP1 POP PUSH3 0x19A JUMP JUMPDEST PUSH1 0x0 DUP5 DUP5 ADD MSTORE POP POP POP POP JUMP JUMPDEST PUSH1 0x0 PUSH3 0x1DA PUSH3 0x1D4 DUP5 PUSH3 0x161 JUMP JUMPDEST PUSH3 0x142 JUMP JUMPDEST SWAP1 POP DUP3 DUP2 MSTORE PUSH1 0x20 DUP2 ADD DUP5 DUP5 DUP5 ADD GT ISZERO PUSH3 0x1F9 JUMPI PUSH3 0x1F8 PUSH3 0xC7 JUMP JUMPDEST JUMPDEST PUSH3 0x206 DUP5 DUP3 DUP6 PUSH3 0x197 JUMP JUMPDEST POP SWAP4 SWAP3 POP POP POP JUMP JUMPDEST PUSH1 0x0 DUP3 PUSH1 0x1F DUP4 ADD SLT PUSH3 0x226 JUMPI PUSH3 0x225 PUSH3 0xC2 JUMP JUMPDEST JUMPDEST DUP2 MLOAD PUSH3 0x238 DUP5 DUP3 PUSH1 0x20 DUP7 ADD PUSH3 0x1C3 JUMP JUMPDEST SWAP2 POP POP SWAP3 SWAP2 POP POP JUMP JUMPDEST PUSH1 0x0 DUP2 SWAP1 POP SWAP2 SWAP1 POP JUMP JUMPDEST PUSH3 0x256 DUP2 PUSH3 0x241 JUMP JUMPDEST DUP2 EQ PUSH3 0x262 JUMPI PUSH1 0x0 DUP1 REVERT JUMPDEST POP JUMP JUMPDEST PUSH1 0x0 DUP2 MLOAD SWAP1 POP PUSH3 0x276 DUP2 PUSH3 0x24B JUMP JUMPDEST SWAP3 SWAP2 POP POP JUMP JUMPDEST PUSH1 0x0 DUP1 PUSH1 0x0 PUSH1 0x60 DUP5 DUP7 SUB SLT ISZERO PUSH3 0x298 JUMPI PUSH3 0x297 PUSH3 0xB8 JUMP JUMPDEST JUMPDEST PUSH1 0x0 DUP5 ADD MLOAD PUSH8 0xFFFFFFFFFFFFFFFF DUP2 GT ISZERO PUSH3 0x2B9 JUMPI PUSH3 0x2B8 PUSH3 0xBD JUMP JUMPDEST JUMPDEST PUSH3 0x2C7 DUP7 DUP3 DUP8 ADD PUSH3 0x20E JUMP JUMPDEST SWAP4 POP POP PUSH1 0x20 DUP5 ADD MLOAD PUSH8 0xFFFFFFFFFFFFFFFF DUP2 GT ISZERO PUSH3 0x2EB JUMPI PUSH3 0x2EA PUSH3 0xBD JUMP JUMPDEST JUMPDEST PUSH3 0x2F9 DUP7 DUP3 DUP8 ADD PUSH3 0x20E JUMP JUMPDEST SWAP3 POP POP PUSH1 0x40 PUSH3 0x30C DUP7 DUP3 DUP8 ADD PUSH3 0x265 JUMP JUMPDEST SWAP2 POP POP SWAP3 POP SWAP3 POP SWAP3 JUMP JUMPDEST PUSH1 0x0 DUP2 MLOAD SWAP1 POP SWAP2 SWAP1 POP JUMP JUMPDEST PUSH32 0x4E487B7100000000000000000000000000000000000000000000000000000000 PUSH1 0x0 MSTORE PUSH1 0x22 PUSH1 0x4 MSTORE PUSH1 0x24 PUSH1 0x0 REVERT JUMPDEST PUSH1 0x0 PUSH1 0x2 DUP3 DIV SWAP1 POP PUSH1 0x1 DUP3 AND DUP1 PUSH3 0x369 JUMPI PUSH1 0x7F DUP3 AND SWAP2 POP JUMPDEST PUSH1 0x20 DUP3 LT DUP2 SUB PUSH3 0x37F JUMPI PUSH3 0x37E PUSH3 0x321 JUMP JUMPDEST JUMPDEST POP SWAP2 SWAP1 POP JUMP JUMPDEST PUSH1 0x0 DUP2 SWAP1 POP DUP2 PUSH1 0x0 MSTORE PUSH1 0x20 PUSH1 0x0 KECCAK256 SWAP1 POP SWAP2 SWAP1 POP JUMP JUMPDEST PUSH1 0x0 PUSH1 0x20 PUSH1 0x1F DUP4 ADD DIV SWAP1 POP SWAP2 SWAP1 POP JUMP JUMPDEST PUSH1 0x0 DUP3 DUP3 SHL SWAP1 POP SWAP3 SWAP2 POP POP JUMP JUMPDEST PUSH1 0x0 PUSH1 0x8 DUP4 MUL PUSH3 0x3E9 PUSH32 0xFFFFFFFFFFFFFFFFFFFFFFFFFFFFFFFFFFFFFFFFFFFFFFFFFFFFFFFFFFFFFFFF DUP3 PUSH3 0x3AA JUMP JUMPDEST PUSH3 0x3F5 DUP7 DUP4 PUSH3 0x3AA JUMP JUMPDEST SWAP6 POP DUP1 NOT DUP5 AND SWAP4 POP DUP1 DUP7 AND DUP5 OR SWAP3 POP POP POP SWAP4 SWAP3 POP POP POP JUMP JUMPDEST PUSH1 0x0 DUP2 SWAP1 POP SWAP2 SWAP1 POP JUMP JUMPDEST PUSH1 0x0 PUSH3 0x438 PUSH3 0x432 PUSH3 0x42C DUP5 PUSH3 0x241 JUMP JUMPDEST PUSH3 0x40D JUMP JUMPDEST PUSH3 0x241 JUMP JUMPDEST SWAP1 POP SWAP2 SWAP1 POP JUMP JUMPDEST PUSH1 0x0 DUP2 SWAP1 POP SWAP2 SWAP1 POP JUMP JUMPDEST PUSH3 0x454 DUP4 PUSH3 0x417 JUMP JUMPDEST PUSH3 0x46C PUSH3 0x463 DUP3 PUSH3 0x43F JUMP JUMPDEST DUP5 DUP5 SLOAD PUSH3 0x3B7 JUMP JUMPDEST DUP3 SSTORE POP POP POP POP JUMP JUMPDEST PUSH1 0x0 SWAP1 JUMP JUMPDEST PUSH3 0x483 PUSH3 0x474 JUMP JUMPDEST PUSH3 0x490 DUP2 DUP5 DUP5 PUSH3 0x449 JUMP JUMPDEST POP POP POP JUMP JUMPDEST JUMPDEST DUP2 DUP2 LT ISZERO PUSH3 0x4B8 JUMPI PUSH3 0x4AC PUSH1 0x0 DUP3 PUSH3 0x479 JUMP JUMPDEST PUSH1 0x1 DUP2 ADD SWAP1 POP PUSH3 0x496 JUMP JUMPDEST POP POP JUMP JUMPDEST PUSH1 0x1F DUP3 GT ISZERO PUSH3 0x507 JUMPI PUSH3 0x4D1 DUP2 PUSH3 0x385 JUMP JUMPDEST PUSH3 0x4DC DUP5 PUSH3 0x39A JUMP JUMPDEST DUP2 ADD PUSH1 0x20 DUP6 LT ISZERO PUSH3 0x4EC JUMPI DUP2 SWAP1 POP JUMPDEST PUSH3 0x504 PUSH3 0x4FB DUP6 PUSH3 0x39A JUMP JUMPDEST DUP4 ADD DUP3 PUSH3 0x495 JUMP JUMPDEST POP POP JUMPDEST POP POP POP JUMP JUMPDEST PUSH1 0x0 DUP3 DUP3 SHR SWAP1 POP SWAP3 SWAP2 POP POP JUMP JUMPDEST PUSH1 0x0 PUSH3 0x52C PUSH1 0x0 NOT DUP5 PUSH1 0x8 MUL PUSH3 0x50C JUMP JUMPDEST NOT DUP1 DUP4 AND SWAP2 POP POP SWAP3 SWAP2 POP POP JUMP JUMPDEST PUSH1 0x0 PUSH3 0x547 DUP4 DUP4 PUSH3 0x519 JUMP JUMPDEST SWAP2 POP DUP3 PUSH1 0x2 MUL DUP3 OR SWAP1 POP SWAP3 SWAP2 POP POP JUMP JUMPDEST PUSH3 0x562 DUP3 PUSH3 0x316 JUMP JUMPDEST PUSH8 0xFFFFFFFFFFFFFFFF DUP2 GT ISZERO PUSH3 0x57E JUMPI PUSH3 0x57D PUSH3 0xDD JUMP JUMPDEST JUMPDEST PUSH3 0x58A DUP3 SLOAD PUSH3 0x350 JUMP JUMPDEST PUSH3 0x597 DUP3 DUP3 DUP6 PUSH3 0x4BC JUMP JUMPDEST PUSH1 0x0 PUSH1 0x20 SWAP1 POP PUSH1 0x1F DUP4 GT PUSH1 0x1 DUP2 EQ PUSH3 0x5CF JUMPI PUSH1 0x0 DUP5 ISZERO PUSH3 0x5BA JUMPI DUP3 DUP8 ADD MLOAD SWAP1 POP JUMPDEST PUSH3 0x5C6 DUP6 DUP3 PUSH3 0x539 JUMP JUMPDEST DUP7 SSTORE POP PUSH3 0x636 JUMP JUMPDEST PUSH1 0x1F NOT DUP5 AND PUSH3 0x5DF DUP7 PUSH3 0x385 JUMP JUMPDEST PUSH1 0x0 JUMPDEST DUP3 DUP2 LT ISZERO PUSH3 0x609 JUMPI DUP5 DUP10 ADD MLOAD DUP3 SSTORE PUSH1 0x1 DUP3 ADD SWAP2 POP PUSH1 0x20 DUP6 ADD SWAP5 POP PUSH1 0x20 DUP2 ADD SWAP1 POP PUSH3 0x5E2 JUMP JUMPDEST DUP7 DUP4 LT ISZERO PUSH3 0x629 JUMPI DUP5 DUP10 ADD MLOAD PUSH3 0x625 PUSH1 0x1F DUP10 AND DUP3 PUSH3 0x519 JUMP JUMPDEST DUP4 SSTORE POP JUMPDEST PUSH1 0x1 PUSH1 0x2 DUP9 MUL ADD DUP9 SSTORE POP POP POP JUMPDEST POP POP POP POP POP POP JUMP JUMPDEST PUSH2 0x2864 DUP1 PUSH3 0x64E PUSH1 0x0 CODECOPY PUSH1 0x0 RETURN INVALID PUSH1 0x80 PUSH1 0x40 MSTORE CALLVALUE DUP1 ISZERO PUSH2 0x10 JUMPI PUSH1 0x0 DUP1 REVERT JUMPDEST POP PUSH1 0x4 CALLDATASIZE LT PUSH2 0x12C JUMPI PUSH1 0x0 CALLDATALOAD PUSH1 0xE0 SHR DUP1 PUSH4 0x922A526C GT PUSH2 0xAD JUMPI DUP1 PUSH4 0xC87B56DD GT PUSH2 0x71 JUMPI DUP1 PUSH4 0xC87B56DD EQ PUSH2 0x367 JUMPI DUP1 PUSH4 0xD5ABEB01 EQ PUSH2 0x397 JUMPI DUP1 PUSH4 0xDB3AD22C EQ PUSH2 0x3B5 JUMPI DUP1 PUSH4 0xE985E9C5 EQ PUSH2 0x3D3 JUMPI DUP1 PUSH4 0xF390C328 EQ PUSH2 0x403 JUMPI PUSH2 0x12C JUMP JUMPDEST DUP1 PUSH4 0x922A526C EQ PUSH2 0x2B1 JUMPI DUP1 PUSH4 0x95D89B41 EQ PUSH2 0x2E1 JUMPI DUP1 PUSH4 0xA22CB465 EQ PUSH2 0x2FF JUMPI DUP1 PUSH4 0xB88D4FDE EQ PUSH2 0x31B JUMPI DUP1 PUSH4 0xB8BA6007 EQ PUSH2 0x337 JUMPI PUSH2 0x12C JUMP JUMPDEST DUP1 PUSH4 0x23B872DD GT PUSH2 0xF4 JUMPI DUP1 PUSH4 0x23B872DD EQ PUSH2 0x1E9 JUMPI DUP1 PUSH4 0x42842E0E EQ PUSH2 0x205 JUMPI DUP1 PUSH4 0x4BE3403C EQ PUSH2 0x221 JUMPI DUP1 PUSH4 0x6352211E EQ PUSH2 0x251 JUMPI DUP1 PUSH4 0x70A08231 EQ PUSH2 0x281 JUMPI PUSH2 0x12C JUMP JUMPDEST DUP1 PUSH4 0x1FFC9A7 EQ PUSH2 0x131 JUMPI DUP1 PUSH4 0x6FDDE03 EQ PUSH2 0x161 JUMPI DUP1 PUSH4 0x81812FC EQ PUSH2 0x17F JUMPI DUP1 PUSH4 0x95EA7B3 EQ PUSH2 0x1AF JUMPI DUP1 PUSH4 0x18160DDD EQ PUSH2 0x1CB JUMPI JUMPDEST PUSH1 0x0 DUP1 REVERT JUMPDEST PUSH2 0x14B PUSH1 0x4 DUP1 CALLDATASIZE SUB DUP2 ADD SWAP1 PUSH2 0x146 SWAP2 SWAP1 PUSH2 0x1ECB JUMP JUMPDEST PUSH2 0x433 JUMP JUMPDEST PUSH1 0x40 MLOAD PUSH2 0x158 SWAP2 SWAP1 PUSH2 0x1F13 JUMP JUMPDEST PUSH1 0x40 MLOAD DUP1 SWAP2 SUB SWAP1 RETURN JUMPDEST PUSH2 0x169 PUSH2 0x515 JUMP JUMPDEST PUSH1 0x40 MLOAD PUSH2 0x176 SWAP2 SWAP1 PUSH2 0x1FBE JUMP JUMPDEST PUSH1 0x40 MLOAD DUP1 SWAP2 SUB SWAP1 RETURN JUMPDEST PUSH2 0x199 PUSH1 0x4 DUP1 CALLDATASIZE SUB DUP2 ADD SWAP1 PUSH2 0x194 SWAP2 SWAP1 PUSH2 0x2016 JUMP JUMPDEST PUSH2 0x5A7 JUMP JUMPDEST PUSH1 0x40 MLOAD PUSH2 0x1A6 SWAP2 SWAP1 PUSH2 0x2084 JUMP JUMPDEST PUSH1 0x40 MLOAD DUP1 SWAP2 SUB SWAP1 RETURN JUMPDEST PUSH2 0x1C9 PUSH1 0x4 DUP1 CALLDATASIZE SUB DUP2 ADD SWAP1 PUSH2 0x1C4 SWAP2 SWAP1 PUSH2 0x20CB JUMP JUMPDEST PUSH2 0x623 JUMP JUMPDEST STOP JUMPDEST PUSH2 0x1D3 PUSH2 0x727 JUMP JUMPDEST PUSH1 0x40 MLOAD PUSH2 0x1E0 SWAP2 SWAP1 PUSH2 0x211A JUMP JUMPDEST PUSH1 0x40 MLOAD DUP1 SWAP2 SUB SWAP1 RETURN JUMPDEST PUSH2 0x203 PUSH1 0x4 DUP1 CALLDATASIZE SUB DUP2 ADD SWAP1 PUSH2 0x1FE SWAP2 SWAP1 PUSH2 0x2135 JUMP JUMPDEST PUSH2 0x73E JUMP JUMPDEST STOP JUMPDEST PUSH2 0x21F PUSH1 0x4 DUP1 CALLDATASIZE SUB DUP2 ADD SWAP1 PUSH2 0x21A SWAP2 SWAP1 PUSH2 0x2135 JUMP JUMPDEST PUSH2 0x74E JUMP JUMPDEST STOP JUMPDEST PUSH2 0x23B PUSH1 0x4 DUP1 CALLDATASIZE SUB DUP2 ADD SWAP1 PUSH2 0x236 SWAP2 SWAP1 PUSH2 0x2016 JUMP JUMPDEST PUSH2 0x76E JUMP JUMPDEST PUSH1 0x40 MLOAD PUSH2 0x248 SWAP2 SWAP1 PUSH2 0x211A JUMP JUMPDEST PUSH1 0x40 MLOAD DUP1 SWAP2 SUB SWAP1 RETURN JUMPDEST PUSH2 0x26B PUSH1 0x4 DUP1 CALLDATASIZE SUB DUP2 ADD SWAP1 PUSH2 0x266 SWAP2 SWAP1 PUSH2 0x2016 JUMP JUMPDEST PUSH2 0x7F6 JUMP JUMPDEST PUSH1 0x40 MLOAD PUSH2 0x278 SWAP2 SWAP1 PUSH2 0x2084 JUMP JUMPDEST PUSH1 0x40 MLOAD DUP1 SWAP2 SUB SWAP1 RETURN JUMPDEST PUSH2 0x29B PUSH1 0x4 DUP1 CALLDATASIZE SUB DUP2 ADD SWAP1 PUSH2 0x296 SWAP2 SWAP1 PUSH2 0x2188 JUMP JUMPDEST PUSH2 0x80C JUMP JUMPDEST PUSH1 0x40 MLOAD PUSH2 0x2A8 SWAP2 SWAP1 PUSH2 0x211A JUMP JUMPDEST PUSH1 0x40 MLOAD DUP1 SWAP2 SUB SWAP1 RETURN JUMPDEST PUSH2 0x2CB PUSH1 0x4 DUP1 CALLDATASIZE SUB DUP2 ADD SWAP1 PUSH2 0x2C6 SWAP2 SWAP1 PUSH2 0x21B5 JUMP JUMPDEST PUSH2 0x8DB JUMP JUMPDEST PUSH1 0x40 MLOAD PUSH2 0x2D8 SWAP2 SWAP1 PUSH2 0x211A JUMP JUMPDEST PUSH1 0x40 MLOAD DUP1 SWAP2 SUB SWAP1 RETURN JUMPDEST PUSH2 0x2E9 PUSH2 0x8F5 JUMP JUMPDEST PUSH1 0x40 MLOAD PUSH2 0x2F6 SWAP2 SWAP1 PUSH2 0x1FBE JUMP JUMPDEST PUSH1 0x40 MLOAD DUP1 SWAP2 SUB SWAP1 RETURN JUMPDEST PUSH2 0x319 PUSH1 0x4 DUP1 CALLDATASIZE SUB DUP2 ADD SWAP1 PUSH2 0x314 SWAP2 SWAP1 PUSH2 0x2221 JUMP JUMPDEST PUSH2 0x987 JUMP JUMPDEST STOP JUMPDEST PUSH2 0x335 PUSH1 0x4 DUP1 CALLDATASIZE SUB DUP2 ADD SWAP1 PUSH2 0x330 SWAP2 SWAP1 PUSH2 0x2396 JUMP JUMPDEST PUSH2 0xAFE JUMP JUMPDEST STOP JUMPDEST PUSH2 0x351 PUSH1 0x4 DUP1 CALLDATASIZE SUB DUP2 ADD SWAP1 PUSH2 0x34C SWAP2 SWAP1 PUSH2 0x2188 JUMP JUMPDEST PUSH2 0xB76 JUMP JUMPDEST PUSH1 0x40 MLOAD PUSH2 0x35E SWAP2 SWAP1 PUSH2 0x211A JUMP JUMPDEST PUSH1 0x40 MLOAD DUP1 SWAP2 SUB SWAP1 RETURN JUMPDEST PUSH2 0x381 PUSH1 0x4 DUP1 CALLDATASIZE SUB DUP2 ADD SWAP1 PUSH2 0x37C SWAP2 SWAP1 PUSH2 0x2016 JUMP JUMPDEST PUSH2 0xD72 JUMP JUMPDEST PUSH1 0x40 MLOAD PUSH2 0x38E SWAP2 SWAP1 PUSH2 0x1FBE JUMP JUMPDEST PUSH1 0x40 MLOAD DUP1 SWAP2 SUB SWAP1 RETURN JUMPDEST PUSH2 0x39F PUSH2 0xE10 JUMP JUMPDEST PUSH1 0x40 MLOAD PUSH2 0x3AC SWAP2 SWAP1 PUSH2 0x211A JUMP JUMPDEST PUSH1 0x40 MLOAD DUP1 SWAP2 SUB SWAP1 RETURN JUMPDEST PUSH2 0x3BD PUSH2 0xE27 JUMP JUMPDEST PUSH1 0x40 MLOAD PUSH2 0x3CA SWAP2 SWAP1 PUSH2 0x211A JUMP JUMPDEST PUSH1 0x40 MLOAD DUP1 SWAP2 SUB SWAP1 RETURN JUMPDEST PUSH2 0x3ED PUSH1 0x4 DUP1 CALLDATASIZE SUB DUP2 ADD SWAP1 PUSH2 0x3E8 SWAP2 SWAP1 PUSH2 0x2419 JUMP JUMPDEST PUSH2 0xE31 JUMP JUMPDEST PUSH1 0x40 MLOAD PUSH2 0x3FA SWAP2 SWAP1 PUSH2 0x1F13 JUMP JUMPDEST PUSH1 0x40 MLOAD DUP1 SWAP2 SUB SWAP1 RETURN JUMPDEST PUSH2 0x41D PUSH1 0x4 DUP1 CALLDATASIZE SUB DUP2 ADD SWAP1 PUSH2 0x418 SWAP2 SWAP1 PUSH2 0x2016 JUMP JUMPDEST PUSH2 0xEC5 JUMP JUMPDEST PUSH1 0x40 MLOAD PUSH2 0x42A SWAP2 SWAP1 PUSH2 0x211A JUMP JUMPDEST PUSH1 0x40 MLOAD DUP1 SWAP2 SUB SWAP1 RETURN JUMPDEST PUSH1 0x0 PUSH32 0x80AC58CD00000000000000000000000000000000000000000000000000000000 PUSH28 0xFFFFFFFFFFFFFFFFFFFFFFFFFFFFFFFFFFFFFFFFFFFFFFFFFFFFFFFF NOT AND DUP3 PUSH28 0xFFFFFFFFFFFFFFFFFFFFFFFFFFFFFFFFFFFFFFFFFFFFFFFFFFFFFFFF NOT AND EQ DUP1 PUSH2 0x4FE JUMPI POP PUSH32 0x5B5E139F00000000000000000000000000000000000000000000000000000000 PUSH28 0xFFFFFFFFFFFFFFFFFFFFFFFFFFFFFFFFFFFFFFFFFFFFFFFFFFFFFFFF NOT AND DUP3 PUSH28 0xFFFFFFFFFFFFFFFFFFFFFFFFFFFFFFFFFFFFFFFFFFFFFFFFFFFFFFFF NOT AND EQ JUMPDEST DUP1 PUSH2 0x50E JUMPI POP PUSH2 0x50D DUP3 PUSH2 0xF27 JUMP JUMPDEST JUMPDEST SWAP1 POP SWAP2 SWAP1 POP JUMP JUMPDEST PUSH1 0x60 PUSH1 0x7 DUP1 SLOAD PUSH2 0x524 SWAP1 PUSH2 0x2488 JUMP JUMPDEST DUP1 PUSH1 0x1F ADD PUSH1 0x20 DUP1 SWAP2 DIV MUL PUSH1 0x20 ADD PUSH1 0x40 MLOAD SWAP1 DUP2 ADD PUSH1 0x40 MSTORE DUP1 SWAP3 SWAP2 SWAP1 DUP2 DUP2 MSTORE PUSH1 0x20 ADD DUP3 DUP1 SLOAD PUSH2 0x550 SWAP1 PUSH2 0x2488 JUMP JUMPDEST DUP1 ISZERO PUSH2 0x59D JUMPI DUP1 PUSH1 0x1F LT PUSH2 0x572 JUMPI PUSH2 0x100 DUP1 DUP4 SLOAD DIV MUL DUP4 MSTORE SWAP2 PUSH1 0x20 ADD SWAP2 PUSH2 0x59D JUMP JUMPDEST DUP3 ADD SWAP2 SWAP1 PUSH1 0x0 MSTORE PUSH1 0x20 PUSH1 0x0 KECCAK256 SWAP1 JUMPDEST DUP2 SLOAD DUP2 MSTORE SWAP1 PUSH1 0x1 ADD SWAP1 PUSH1 0x20 ADD DUP1 DUP4 GT PUSH2 0x580 JUMPI DUP3 SWAP1 SUB PUSH1 0x1F AND DUP3 ADD SWAP2 JUMPDEST POP POP POP POP POP SWAP1 POP SWAP1 JUMP JUMPDEST PUSH1 0x0 PUSH2 0x5B2 DUP3 PUSH2 0xF91 JUMP JUMPDEST PUSH2 0x5E8 JUMPI PUSH1 0x40 MLOAD PUSH32 0xCF4700E400000000000000000000000000000000000000000000000000000000 DUP2 MSTORE PUSH1 0x4 ADD PUSH1 0x40 MLOAD DUP1 SWAP2 SUB SWAP1 REVERT JUMPDEST PUSH1 0xB PUSH1 0x0 DUP4 DUP2 MSTORE PUSH1 0x20 ADD SWAP1 DUP2 MSTORE PUSH1 0x20 ADD PUSH1 0x0 KECCAK256 PUSH1 0x0 SWAP1 SLOAD SWAP1 PUSH2 0x100 EXP SWAP1 DIV PUSH20 0xFFFFFFFFFFFFFFFFFFFFFFFFFFFFFFFFFFFFFFFF AND SWAP1 POP SWAP2 SWAP1 POP JUMP JUMPDEST PUSH1 0x0 PUSH2 0x62E DUP3 PUSH2 0x7F6 JUMP JUMPDEST SWAP1 POP DUP1 PUSH20 0xFFFFFFFFFFFFFFFFFFFFFFFFFFFFFFFFFFFFFFFF AND DUP4 PUSH20 0xFFFFFFFFFFFFFFFFFFFFFFFFFFFFFFFFFFFFFFFF AND SUB PUSH2 0x695 JUMPI PUSH1 0x40 MLOAD PUSH32 0x943F7B8C00000000000000000000000000000000000000000000000000000000 DUP2 MSTORE PUSH1 0x4 ADD PUSH1 0x40 MLOAD DUP1 SWAP2 SUB SWAP1 REVERT JUMPDEST DUP1 PUSH20 0xFFFFFFFFFFFFFFFFFFFFFFFFFFFFFFFFFFFFFFFF AND PUSH2 0x6B4 PUSH2 0xFDF JUMP JUMPDEST PUSH20 0xFFFFFFFFFFFFFFFFFFFFFFFFFFFFFFFFFFFFFFFF AND EQ PUSH2 0x717 JUMPI PUSH2 0x6E0 DUP2 PUSH2 0x6DB PUSH2 0xFDF JUMP JUMPDEST PUSH2 0xE31 JUMP JUMPDEST PUSH2 0x716 JUMPI PUSH1 0x40 MLOAD PUSH32 0xCFB3B94200000000000000000000000000000000000000000000000000000000 DUP2 MSTORE PUSH1 0x4 ADD PUSH1 0x40 MLOAD DUP1 SWAP2 SUB SWAP1 REVERT JUMPDEST JUMPDEST PUSH2 0x722 DUP4 DUP4 DUP4 PUSH2 0xFE7 JUMP JUMPDEST POP POP POP JUMP JUMPDEST PUSH1 0x0 PUSH2 0x731 PUSH2 0x1099 JUMP JUMPDEST PUSH1 0x6 SLOAD PUSH1 0x4 SLOAD SUB SUB SWAP1 POP SWAP1 JUMP JUMPDEST PUSH2 0x749 DUP4 DUP4 DUP4 PUSH2 0x109E JUMP JUMPDEST POP POP POP JUMP JUMPDEST PUSH2 0x769 DUP4 DUP4 DUP4 PUSH1 0x40 MLOAD DUP1 PUSH1 0x20 ADD PUSH1 0x40 MSTORE DUP1 PUSH1 0x0 DUP2 MSTORE POP PUSH2 0xAFE JUMP JUMPDEST POP POP POP JUMP JUMPDEST PUSH1 0x0 PUSH1 0x2 SLOAD DUP3 LT ISZERO PUSH2 0x780 JUMPI PUSH1 0x2 SLOAD SWAP2 POP JUMPDEST PUSH1 0x0 PUSH2 0x79F PUSH8 0xDE0B6B3A7640000 PUSH1 0x1 SLOAD PUSH2 0x183A SWAP1 SWAP2 SWAP1 PUSH4 0xFFFFFFFF AND JUMP JUMPDEST SWAP1 POP PUSH1 0x0 PUSH2 0x7D2 PUSH1 0x2 SLOAD PUSH2 0x7C4 PUSH8 0xDE0B6B3A7640000 DUP8 PUSH2 0x183A SWAP1 SWAP2 SWAP1 PUSH4 0xFFFFFFFF AND JUMP JUMPDEST PUSH2 0x1850 SWAP1 SWAP2 SWAP1 PUSH4 0xFFFFFFFF AND JUMP JUMPDEST SWAP1 POP PUSH1 0x0 PUSH2 0x7E9 DUP3 DUP5 PUSH2 0x1850 SWAP1 SWAP2 SWAP1 PUSH4 0xFFFFFFFF AND JUMP JUMPDEST SWAP1 POP DUP1 SWAP4 POP POP POP POP SWAP2 SWAP1 POP JUMP JUMPDEST PUSH1 0x0 PUSH2 0x801 DUP3 PUSH2 0x1866 JUMP JUMPDEST PUSH1 0x0 ADD MLOAD SWAP1 POP SWAP2 SWAP1 POP JUMP JUMPDEST PUSH1 0x0 DUP1 PUSH20 0xFFFFFFFFFFFFFFFFFFFFFFFFFFFFFFFFFFFFFFFF AND DUP3 PUSH20 0xFFFFFFFFFFFFFFFFFFFFFFFFFFFFFFFFFFFFFFFF AND SUB PUSH2 0x873 JUMPI PUSH1 0x40 MLOAD PUSH32 0x8F4EB60400000000000000000000000000000000000000000000000000000000 DUP2 MSTORE PUSH1 0x4 ADD PUSH1 0x40 MLOAD DUP1 SWAP2 SUB SWAP1 REVERT JUMPDEST PUSH1 0xA PUSH1 0x0 DUP4 PUSH20 0xFFFFFFFFFFFFFFFFFFFFFFFFFFFFFFFFFFFFFFFF AND PUSH20 0xFFFFFFFFFFFFFFFFFFFFFFFFFFFFFFFFFFFFFFFF AND DUP2 MSTORE PUSH1 0x20 ADD SWAP1 DUP2 MSTORE PUSH1 0x20 ADD PUSH1 0x0 KECCAK256 PUSH1 0x0 ADD PUSH1 0x0 SWAP1 SLOAD SWAP1 PUSH2 0x100 EXP SWAP1 DIV PUSH8 0xFFFFFFFFFFFFFFFF AND PUSH8 0xFFFFFFFFFFFFFFFF AND SWAP1 POP SWAP2 SWAP1 POP JUMP JUMPDEST PUSH1 0x0 PUSH2 0x8E5 PUSH2 0x1099 JUMP JUMPDEST PUSH1 0x6 SLOAD PUSH1 0x5 SLOAD SUB SUB SWAP1 POP SWAP3 SWAP2 POP POP JUMP JUMPDEST PUSH1 0x60 PUSH1 0x8 DUP1 SLOAD PUSH2 0x904 SWAP1 PUSH2 0x2488 JUMP JUMPDEST DUP1 PUSH1 0x1F ADD PUSH1 0x20 DUP1 SWAP2 DIV MUL PUSH1 0x20 ADD PUSH1 0x40 MLOAD SWAP1 DUP2 ADD PUSH1 0x40 MSTORE DUP1 SWAP3 SWAP2 SWAP1 DUP2 DUP2 MSTORE PUSH1 0x20 ADD DUP3 DUP1 SLOAD PUSH2 0x930 SWAP1 PUSH2 0x2488 JUMP JUMPDEST DUP1 ISZERO PUSH2 0x97D JUMPI DUP1 PUSH1 0x1F LT PUSH2 0x952 JUMPI PUSH2 0x100 DUP1 DUP4 SLOAD DIV MUL DUP4 MSTORE SWAP2 PUSH1 0x20 ADD SWAP2 PUSH2 0x97D JUMP JUMPDEST DUP3 ADD SWAP2 SWAP1 PUSH1 0x0 MSTORE PUSH1 0x20 PUSH1 0x0 KECCAK256 SWAP1 JUMPDEST DUP2 SLOAD DUP2 MSTORE SWAP1 PUSH1 0x1 ADD SWAP1 PUSH1 0x20 ADD DUP1 DUP4 GT PUSH2 0x960 JUMPI DUP3 SWAP1 SUB PUSH1 0x1F AND DUP3 ADD SWAP2 JUMPDEST POP POP POP POP POP SWAP1 POP SWAP1 JUMP JUMPDEST PUSH2 0x98F PUSH2 0xFDF JUMP JUMPDEST PUSH20 0xFFFFFFFFFFFFFFFFFFFFFFFFFFFFFFFFFFFFFFFF AND DUP3 PUSH20 0xFFFFFFFFFFFFFFFFFFFFFFFFFFFFFFFFFFFFFFFF AND SUB PUSH2 0x9F3 JUMPI PUSH1 0x40 MLOAD PUSH32 0xB06307DB00000000000000000000000000000000000000000000000000000000 DUP2 MSTORE PUSH1 0x4 ADD PUSH1 0x40 MLOAD DUP1 SWAP2 SUB SWAP1 REVERT JUMPDEST DUP1 PUSH1 0xC PUSH1 0x0 PUSH2 0xA00 PUSH2 0xFDF JUMP JUMPDEST PUSH20 0xFFFFFFFFFFFFFFFFFFFFFFFFFFFFFFFFFFFFFFFF AND PUSH20 0xFFFFFFFFFFFFFFFFFFFFFFFFFFFFFFFFFFFFFFFF AND DUP2 MSTORE PUSH1 0x20 ADD SWAP1 DUP2 MSTORE PUSH1 0x20 ADD PUSH1 0x0 KECCAK256 PUSH1 0x0 DUP5 PUSH20 0xFFFFFFFFFFFFFFFFFFFFFFFFFFFFFFFFFFFFFFFF AND PUSH20 0xFFFFFFFFFFFFFFFFFFFFFFFFFFFFFFFFFFFFFFFF AND DUP2 MSTORE PUSH1 0x20 ADD SWAP1 DUP2 MSTORE PUSH1 0x20 ADD PUSH1 0x0 KECCAK256 PUSH1 0x0 PUSH2 0x100 EXP DUP2 SLOAD DUP2 PUSH1 0xFF MUL NOT AND SWAP1 DUP4 ISZERO ISZERO MUL OR SWAP1 SSTORE POP DUP2 PUSH20 0xFFFFFFFFFFFFFFFFFFFFFFFFFFFFFFFFFFFFFFFF AND PUSH2 0xAAD PUSH2 0xFDF JUMP JUMPDEST PUSH20 0xFFFFFFFFFFFFFFFFFFFFFFFFFFFFFFFFFFFFFFFF AND PUSH32 0x17307EAB39AB6107E8899845AD3D59BD9653F200F220920489CA2B5937696C31 DUP4 PUSH1 0x40 MLOAD PUSH2 0xAF2 SWAP2 SWAP1 PUSH2 0x1F13 JUMP JUMPDEST PUSH1 0x40 MLOAD DUP1 SWAP2 SUB SWAP1 LOG3 POP POP JUMP JUMPDEST PUSH2 0xB09 DUP5 DUP5 DUP5 PUSH2 0x109E JUMP JUMPDEST PUSH2 0xB28 DUP4 PUSH20 0xFFFFFFFFFFFFFFFFFFFFFFFFFFFFFFFFFFFFFFFF AND PUSH2 0x1AF1 JUMP JUMPDEST ISZERO PUSH2 0xB70 JUMPI PUSH2 0xB39 DUP5 DUP5 DUP5 DUP5 PUSH2 0x1B14 JUMP JUMPDEST PUSH2 0xB6F JUMPI PUSH1 0x40 MLOAD PUSH32 0xD1A57ED600000000000000000000000000000000000000000000000000000000 DUP2 MSTORE PUSH1 0x4 ADD PUSH1 0x40 MLOAD DUP1 SWAP2 SUB SWAP1 REVERT JUMPDEST JUMPDEST POP POP POP POP JUMP JUMPDEST PUSH1 0x0 DUP1 PUSH2 0xBDD PUSH1 0xD PUSH1 0x0 DUP6 PUSH20 0xFFFFFFFFFFFFFFFFFFFFFFFFFFFFFFFFFFFFFFFF AND PUSH20 0xFFFFFFFFFFFFFFFFFFFFFFFFFFFFFFFFFFFFFFFF AND DUP2 MSTORE PUSH1 0x20 ADD SWAP1 DUP2 MSTORE PUSH1 0x20 ADD PUSH1 0x0 KECCAK256 PUSH1 0x0 PUSH1 0x1 DUP2 MSTORE PUSH1 0x20 ADD SWAP1 DUP2 MSTORE PUSH1 0x20 ADD PUSH1 0x0 KECCAK256 SLOAD NUMBER PUSH2 0x1C64 SWAP1 SWAP2 SWAP1 PUSH4 0xFFFFFFFF AND JUMP JUMPDEST SWAP1 POP PUSH1 0x0 PUSH2 0xC3B PUSH1 0xD PUSH1 0x0 DUP7 PUSH20 0xFFFFFFFFFFFFFFFFFFFFFFFFFFFFFFFFFFFFFFFF AND PUSH20 0xFFFFFFFFFFFFFFFFFFFFFFFFFFFFFFFFFFFFFFFF AND DUP2 MSTORE PUSH1 0x20 ADD SWAP1 DUP2 MSTORE PUSH1 0x20 ADD PUSH1 0x0 KECCAK256 PUSH1 0x0 PUSH1 0x1 DUP2 MSTORE PUSH1 0x20 ADD SWAP1 DUP2 MSTORE PUSH1 0x20 ADD PUSH1 0x0 KECCAK256 SLOAD PUSH2 0x76E JUMP JUMPDEST SWAP1 POP PUSH1 0x0 PUSH2 0xC48 NUMBER PUSH2 0x76E JUMP JUMPDEST SWAP1 POP PUSH1 0x0 PUSH2 0xC84 PUSH1 0x2 PUSH2 0xC76 DUP7 PUSH2 0xC68 DUP7 DUP9 PUSH2 0x1C7A SWAP1 SWAP2 SWAP1 PUSH4 0xFFFFFFFF AND JUMP JUMPDEST PUSH2 0x183A SWAP1 SWAP2 SWAP1 PUSH4 0xFFFFFFFF AND JUMP JUMPDEST PUSH2 0x1850 SWAP1 SWAP2 SWAP1 PUSH4 0xFFFFFFFF AND JUMP JUMPDEST SWAP1 POP PUSH1 0x0 PUSH2 0xD00 PUSH1 0x3 SLOAD PUSH2 0xCF2 PUSH1 0xD PUSH1 0x0 DUP12 PUSH20 0xFFFFFFFFFFFFFFFFFFFFFFFFFFFFFFFFFFFFFFFF AND PUSH20 0xFFFFFFFFFFFFFFFFFFFFFFFFFFFFFFFFFFFFFFFF AND DUP2 MSTORE PUSH1 0x20 ADD SWAP1 DUP2 MSTORE PUSH1 0x20 ADD PUSH1 0x0 KECCAK256 PUSH1 0x0 PUSH1 0x2 DUP2 MSTORE PUSH1 0x20 ADD SWAP1 DUP2 MSTORE PUSH1 0x20 ADD PUSH1 0x0 KECCAK256 SLOAD DUP6 PUSH2 0x183A SWAP1 SWAP2 SWAP1 PUSH4 0xFFFFFFFF AND JUMP JUMPDEST PUSH2 0x1850 SWAP1 SWAP2 SWAP1 PUSH4 0xFFFFFFFF AND JUMP JUMPDEST SWAP1 POP PUSH2 0xD66 DUP2 PUSH1 0xD PUSH1 0x0 DUP11 PUSH20 0xFFFFFFFFFFFFFFFFFFFFFFFFFFFFFFFFFFFFFFFF AND PUSH20 0xFFFFFFFFFFFFFFFFFFFFFFFFFFFFFFFFFFFFFFFF AND DUP2 MSTORE PUSH1 0x20 ADD SWAP1 DUP2 MSTORE PUSH1 0x20 ADD PUSH1 0x0 KECCAK256 PUSH1 0x0 PUSH1 0x3 DUP2 MSTORE PUSH1 0x20 ADD SWAP1 DUP2 MSTORE PUSH1 0x20 ADD PUSH1 0x0 KECCAK256 SLOAD PUSH2 0x1C7A SWAP1 SWAP2 SWAP1 PUSH4 0xFFFFFFFF AND JUMP JUMPDEST SWAP6 POP POP POP POP POP POP SWAP2 SWAP1 POP JUMP JUMPDEST PUSH1 0x60 PUSH2 0xD7D DUP3 PUSH2 0xF91 JUMP JUMPDEST PUSH2 0xDB3 JUMPI PUSH1 0x40 MLOAD PUSH32 0xA14C4B5000000000000000000000000000000000000000000000000000000000 DUP2 MSTORE PUSH1 0x4 ADD PUSH1 0x40 MLOAD DUP1 SWAP2 SUB SWAP1 REVERT JUMPDEST PUSH1 0x0 PUSH2 0xDBD PUSH2 0x1C90 JUMP JUMPDEST SWAP1 POP PUSH1 0x0 DUP2 MLOAD SUB PUSH2 0xDDD JUMPI PUSH1 0x40 MLOAD DUP1 PUSH1 0x20 ADD PUSH1 0x40 MSTORE DUP1 PUSH1 0x0 DUP2 MSTORE POP PUSH2 0xE08 JUMP JUMPDEST DUP1 PUSH2 0xDE7 DUP5 PUSH2 0x1CB0 JUMP JUMPDEST PUSH1 0x40 MLOAD PUSH1 0x20 ADD PUSH2 0xDF8 SWAP3 SWAP2 SWAP1 PUSH2 0x24F5 JUMP JUMPDEST PUSH1 0x40 MLOAD PUSH1 0x20 DUP2 DUP4 SUB SUB DUP2 MSTORE SWAP1 PUSH1 0x40 MSTORE JUMPDEST SWAP2 POP POP SWAP2 SWAP1 POP JUMP JUMPDEST PUSH1 0x0 PUSH2 0xE1A PUSH2 0x1099 JUMP JUMPDEST PUSH1 0x6 SLOAD PUSH1 0x5 SLOAD SUB SUB SWAP1 POP SWAP1 JUMP JUMPDEST PUSH1 0x0 PUSH1 0x3 SLOAD SWAP1 POP SWAP1 JUMP JUMPDEST PUSH1 0x0 PUSH1 0xC PUSH1 0x0 DUP5 PUSH20 0xFFFFFFFFFFFFFFFFFFFFFFFFFFFFFFFFFFFFFFFF AND PUSH20 0xFFFFFFFFFFFFFFFFFFFFFFFFFFFFFFFFFFFFFFFF AND DUP2 MSTORE PUSH1 0x20 ADD SWAP1 DUP2 MSTORE PUSH1 0x20 ADD PUSH1 0x0 KECCAK256 PUSH1 0x0 DUP4 PUSH20 0xFFFFFFFFFFFFFFFFFFFFFFFFFFFFFFFFFFFFFFFF AND PUSH20 0xFFFFFFFFFFFFFFFFFFFFFFFFFFFFFFFFFFFFFFFF AND DUP2 MSTORE PUSH1 0x20 ADD SWAP1 DUP2 MSTORE PUSH1 0x20 ADD PUSH1 0x0 KECCAK256 PUSH1 0x0 SWAP1 SLOAD SWAP1 PUSH2 0x100 EXP SWAP1 DIV PUSH1 0xFF AND SWAP1 POP SWAP3 SWAP2 POP POP JUMP JUMPDEST PUSH1 0x0 DUP1 PUSH2 0xEEF DUP4 PUSH2 0xEE1 PUSH1 0x0 SLOAD DUP7 PUSH2 0x183A SWAP1 SWAP2 SWAP1 PUSH4 0xFFFFFFFF AND JUMP JUMPDEST PUSH2 0x1C7A SWAP1 SWAP2 SWAP1 PUSH4 0xFFFFFFFF AND JUMP JUMPDEST SWAP1 POP PUSH1 0x0 PUSH1 0xA DUP3 PUSH2 0xF00 SWAP2 SWAP1 PUSH2 0x2548 JUMP JUMPDEST SUB PUSH2 0xF0E JUMPI PUSH1 0x1 SWAP1 POP PUSH2 0xF1E JUMP JUMPDEST PUSH1 0xA DUP2 PUSH2 0xF1B SWAP2 SWAP1 PUSH2 0x2548 JUMP JUMPDEST SWAP1 POP JUMPDEST DUP1 SWAP2 POP POP SWAP2 SWAP1 POP JUMP JUMPDEST PUSH1 0x0 PUSH32 0x1FFC9A700000000000000000000000000000000000000000000000000000000 PUSH28 0xFFFFFFFFFFFFFFFFFFFFFFFFFFFFFFFFFFFFFFFFFFFFFFFFFFFFFFFF NOT AND DUP3 PUSH28 0xFFFFFFFFFFFFFFFFFFFFFFFFFFFFFFFFFFFFFFFFFFFFFFFFFFFFFFFF NOT AND EQ SWAP1 POP SWAP2 SWAP1 POP JUMP JUMPDEST PUSH1 0x0 DUP2 PUSH2 0xF9C PUSH2 0x1099 JUMP JUMPDEST GT ISZERO DUP1 ISZERO PUSH2 0xFAB JUMPI POP PUSH1 0x4 SLOAD DUP3 LT JUMPDEST DUP1 ISZERO PUSH2 0xFD8 JUMPI POP PUSH1 0x9 PUSH1 0x0 DUP4 DUP2 MSTORE PUSH1 0x20 ADD SWAP1 DUP2 MSTORE PUSH1 0x20 ADD PUSH1 0x0 KECCAK256 PUSH1 0x0 ADD PUSH1 0x1C SWAP1 SLOAD SWAP1 PUSH2 0x100 EXP SWAP1 DIV PUSH1 0xFF AND ISZERO JUMPDEST SWAP1 POP SWAP2 SWAP1 POP JUMP JUMPDEST PUSH1 0x0 CALLER SWAP1 POP SWAP1 JUMP JUMPDEST DUP3 PUSH1 0xB PUSH1 0x0 DUP5 DUP2 MSTORE PUSH1 0x20 ADD SWAP1 DUP2 MSTORE PUSH1 0x20 ADD PUSH1 0x0 KECCAK256 PUSH1 0x0 PUSH2 0x100 EXP DUP2 SLOAD DUP2 PUSH20 0xFFFFFFFFFFFFFFFFFFFFFFFFFFFFFFFFFFFFFFFF MUL NOT AND SWAP1 DUP4 PUSH20 0xFFFFFFFFFFFFFFFFFFFFFFFFFFFFFFFFFFFFFFFF AND MUL OR SWAP1 SSTORE POP DUP2 DUP4 PUSH20 0xFFFFFFFFFFFFFFFFFFFFFFFFFFFFFFFFFFFFFFFF AND DUP3 PUSH20 0xFFFFFFFFFFFFFFFFFFFFFFFFFFFFFFFFFFFFFFFF AND PUSH32 0x8C5BE1E5EBEC7D5BD14F71427D1E84F3DD0314C0F7B2291E5B200AC8C7C3B925 PUSH1 0x40 MLOAD PUSH1 0x40 MLOAD DUP1 SWAP2 SUB SWAP1 LOG4 POP POP POP JUMP JUMPDEST PUSH1 0x0 SWAP1 JUMP JUMPDEST PUSH1 0x0 PUSH2 0x10A9 DUP3 PUSH2 0xEC5 JUMP JUMPDEST SWAP1 POP PUSH2 0x10B4 DUP5 PUSH2 0xB76 JUMP JUMPDEST PUSH1 0xD PUSH1 0x0 DUP7 PUSH20 0xFFFFFFFFFFFFFFFFFFFFFFFFFFFFFFFFFFFFFFFF AND PUSH20 0xFFFFFFFFFFFFFFFFFFFFFFFFFFFFFFFFFFFFFFFF AND DUP2 MSTORE PUSH1 0x20 ADD SWAP1 DUP2 MSTORE PUSH1 0x20 ADD PUSH1 0x0 KECCAK256 PUSH1 0x0 PUSH1 0x3 DUP2 MSTORE PUSH1 0x20 ADD SWAP1 DUP2 MSTORE PUSH1 0x20 ADD PUSH1 0x0 KECCAK256 DUP2 SWAP1 SSTORE POP PUSH2 0x116D DUP2 PUSH1 0xD PUSH1 0x0 DUP8 PUSH20 0xFFFFFFFFFFFFFFFFFFFFFFFFFFFFFFFFFFFFFFFF AND PUSH20 0xFFFFFFFFFFFFFFFFFFFFFFFFFFFFFFFFFFFFFFFF AND DUP2 MSTORE PUSH1 0x20 ADD SWAP1 DUP2 MSTORE PUSH1 0x20 ADD PUSH1 0x0 KECCAK256 PUSH1 0x0 PUSH1 0x2 DUP2 MSTORE PUSH1 0x20 ADD SWAP1 DUP2 MSTORE PUSH1 0x20 ADD PUSH1 0x0 KECCAK256 SLOAD PUSH2 0x1C64 SWAP1 SWAP2 SWAP1 PUSH4 0xFFFFFFFF AND JUMP JUMPDEST PUSH1 0xD PUSH1 0x0 DUP7 PUSH20 0xFFFFFFFFFFFFFFFFFFFFFFFFFFFFFFFFFFFFFFFF AND PUSH20 0xFFFFFFFFFFFFFFFFFFFFFFFFFFFFFFFFFFFFFFFF AND DUP2 MSTORE PUSH1 0x20 ADD SWAP1 DUP2 MSTORE PUSH1 0x20 ADD PUSH1 0x0 KECCAK256 PUSH1 0x0 PUSH1 0x2 DUP2 MSTORE PUSH1 0x20 ADD SWAP1 DUP2 MSTORE PUSH1 0x20 ADD PUSH1 0x0 KECCAK256 DUP2 SWAP1 SSTORE POP NUMBER PUSH1 0xD PUSH1 0x0 DUP7 PUSH20 0xFFFFFFFFFFFFFFFFFFFFFFFFFFFFFFFFFFFFFFFF AND PUSH20 0xFFFFFFFFFFFFFFFFFFFFFFFFFFFFFFFFFFFFFFFF AND DUP2 MSTORE PUSH1 0x20 ADD SWAP1 DUP2 MSTORE PUSH1 0x20 ADD PUSH1 0x0 KECCAK256 PUSH1 0x0 PUSH1 0x1 DUP2 MSTORE PUSH1 0x20 ADD SWAP1 DUP2 MSTORE PUSH1 0x20 ADD PUSH1 0x0 KECCAK256 DUP2 SWAP1 SSTORE POP PUSH2 0x1221 DUP4 PUSH2 0xB76 JUMP JUMPDEST PUSH1 0xD PUSH1 0x0 DUP6 PUSH20 0xFFFFFFFFFFFFFFFFFFFFFFFFFFFFFFFFFFFFFFFF AND PUSH20 0xFFFFFFFFFFFFFFFFFFFFFFFFFFFFFFFFFFFFFFFF AND DUP2 MSTORE PUSH1 0x20 ADD SWAP1 DUP2 MSTORE PUSH1 0x20 ADD PUSH1 0x0 KECCAK256 PUSH1 0x0 PUSH1 0x3 DUP2 MSTORE PUSH1 0x20 ADD SWAP1 DUP2 MSTORE PUSH1 0x20 ADD PUSH1 0x0 KECCAK256 DUP2 SWAP1 SSTORE POP PUSH2 0x12DA DUP2 PUSH1 0xD PUSH1 0x0 DUP7 PUSH20 0xFFFFFFFFFFFFFFFFFFFFFFFFFFFFFFFFFFFFFFFF AND PUSH20 0xFFFFFFFFFFFFFFFFFFFFFFFFFFFFFFFFFFFFFFFF AND DUP2 MSTORE PUSH1 0x20 ADD SWAP1 DUP2 MSTORE PUSH1 0x20 ADD PUSH1 0x0 KECCAK256 PUSH1 0x0 PUSH1 0x2 DUP2 MSTORE PUSH1 0x20 ADD SWAP1 DUP2 MSTORE PUSH1 0x20 ADD PUSH1 0x0 KECCAK256 SLOAD PUSH2 0x1C7A SWAP1 SWAP2 SWAP1 PUSH4 0xFFFFFFFF AND JUMP JUMPDEST PUSH1 0xD PUSH1 0x0 DUP6 PUSH20 0xFFFFFFFFFFFFFFFFFFFFFFFFFFFFFFFFFFFFFFFF AND PUSH20 0xFFFFFFFFFFFFFFFFFFFFFFFFFFFFFFFFFFFFFFFF AND DUP2 MSTORE PUSH1 0x20 ADD SWAP1 DUP2 MSTORE PUSH1 0x20 ADD PUSH1 0x0 KECCAK256 PUSH1 0x0 PUSH1 0x2 DUP2 MSTORE PUSH1 0x20 ADD SWAP1 DUP2 MSTORE PUSH1 0x20 ADD PUSH1 0x0 KECCAK256 DUP2 SWAP1 SSTORE POP NUMBER PUSH1 0xD PUSH1 0x0 DUP6 PUSH20 0xFFFFFFFFFFFFFFFFFFFFFFFFFFFFFFFFFFFFFFFF AND PUSH20 0xFFFFFFFFFFFFFFFFFFFFFFFFFFFFFFFFFFFFFFFF AND DUP2 MSTORE PUSH1 0x20 ADD SWAP1 DUP2 MSTORE PUSH1 0x20 ADD PUSH1 0x0 KECCAK256 PUSH1 0x0 PUSH1 0x1 DUP2 MSTORE PUSH1 0x20 ADD SWAP1 DUP2 MSTORE PUSH1 0x20 ADD PUSH1 0x0 KECCAK256 DUP2 SWAP1 SSTORE POP PUSH1 0x0 PUSH2 0x1390 DUP4 PUSH2 0x1866 JUMP JUMPDEST SWAP1 POP DUP5 PUSH20 0xFFFFFFFFFFFFFFFFFFFFFFFFFFFFFFFFFFFFFFFF AND DUP2 PUSH1 0x0 ADD MLOAD PUSH20 0xFFFFFFFFFFFFFFFFFFFFFFFFFFFFFFFFFFFFFFFF AND EQ PUSH2 0x13FB JUMPI PUSH1 0x40 MLOAD PUSH32 0xA114810000000000000000000000000000000000000000000000000000000000 DUP2 MSTORE PUSH1 0x4 ADD PUSH1 0x40 MLOAD DUP1 SWAP2 SUB SWAP1 REVERT JUMPDEST PUSH1 0x0 DUP6 PUSH20 0xFFFFFFFFFFFFFFFFFFFFFFFFFFFFFFFFFFFFFFFF AND PUSH2 0x141C PUSH2 0xFDF JUMP JUMPDEST PUSH20 0xFFFFFFFFFFFFFFFFFFFFFFFFFFFFFFFFFFFFFFFF AND EQ DUP1 PUSH2 0x144B JUMPI POP PUSH2 0x144A DUP7 PUSH2 0x1445 PUSH2 0xFDF JUMP JUMPDEST PUSH2 0xE31 JUMP JUMPDEST JUMPDEST DUP1 PUSH2 0x1490 JUMPI POP PUSH2 0x1459 PUSH2 0xFDF JUMP JUMPDEST PUSH20 0xFFFFFFFFFFFFFFFFFFFFFFFFFFFFFFFFFFFFFFFF AND PUSH2 0x1478 DUP6 PUSH2 0x5A7 JUMP JUMPDEST PUSH20 0xFFFFFFFFFFFFFFFFFFFFFFFFFFFFFFFFFFFFFFFF AND EQ JUMPDEST SWAP1 POP DUP1 PUSH2 0x14C9 JUMPI PUSH1 0x40 MLOAD PUSH32 0x59C896BE00000000000000000000000000000000000000000000000000000000 DUP2 MSTORE PUSH1 0x4 ADD PUSH1 0x40 MLOAD DUP1 SWAP2 SUB SWAP1 REVERT JUMPDEST PUSH1 0x0 PUSH20 0xFFFFFFFFFFFFFFFFFFFFFFFFFFFFFFFFFFFFFFFF AND DUP6 PUSH20 0xFFFFFFFFFFFFFFFFFFFFFFFFFFFFFFFFFFFFFFFF AND SUB PUSH2 0x152F JUMPI PUSH1 0x40 MLOAD PUSH32 0xEA553B3400000000000000000000000000000000000000000000000000000000 DUP2 MSTORE PUSH1 0x4 ADD PUSH1 0x40 MLOAD DUP1 SWAP2 SUB SWAP1 REVERT JUMPDEST PUSH2 0x153C DUP7 DUP7 DUP7 PUSH1 0x1 PUSH2 0x1E10 JUMP JUMPDEST PUSH2 0x1548 PUSH1 0x0 DUP6 DUP9 PUSH2 0xFE7 JUMP JUMPDEST PUSH1 0x1 PUSH1 0xA PUSH1 0x0 DUP9 PUSH20 0xFFFFFFFFFFFFFFFFFFFFFFFFFFFFFFFFFFFFFFFF AND PUSH20 0xFFFFFFFFFFFFFFFFFFFFFFFFFFFFFFFFFFFFFFFF AND DUP2 MSTORE PUSH1 0x20 ADD SWAP1 DUP2 MSTORE PUSH1 0x20 ADD PUSH1 0x0 KECCAK256 PUSH1 0x0 ADD PUSH1 0x0 DUP3 DUP3 DUP3 SWAP1 SLOAD SWAP1 PUSH2 0x100 EXP SWAP1 DIV PUSH8 0xFFFFFFFFFFFFFFFF AND SUB SWAP3 POP PUSH2 0x100 EXP DUP2 SLOAD DUP2 PUSH8 0xFFFFFFFFFFFFFFFF MUL NOT AND SWAP1 DUP4 PUSH8 0xFFFFFFFFFFFFFFFF AND MUL OR SWAP1 SSTORE POP PUSH1 0x1 PUSH1 0xA PUSH1 0x0 DUP8 PUSH20 0xFFFFFFFFFFFFFFFFFFFFFFFFFFFFFFFFFFFFFFFF AND PUSH20 0xFFFFFFFFFFFFFFFFFFFFFFFFFFFFFFFFFFFFFFFF AND DUP2 MSTORE PUSH1 0x20 ADD SWAP1 DUP2 MSTORE PUSH1 0x20 ADD PUSH1 0x0 KECCAK256 PUSH1 0x0 ADD PUSH1 0x0 DUP3 DUP3 DUP3 SWAP1 SLOAD SWAP1 PUSH2 0x100 EXP SWAP1 DIV PUSH8 0xFFFFFFFFFFFFFFFF AND ADD SWAP3 POP PUSH2 0x100 EXP DUP2 SLOAD DUP2 PUSH8 0xFFFFFFFFFFFFFFFF MUL NOT AND SWAP1 DUP4 PUSH8 0xFFFFFFFFFFFFFFFF AND MUL OR SWAP1 SSTORE POP PUSH1 0x0 PUSH1 0x9 PUSH1 0x0 DUP7 DUP2 MSTORE PUSH1 0x20 ADD SWAP1 DUP2 MSTORE PUSH1 0x20 ADD PUSH1 0x0 KECCAK256 SWAP1 POP DUP6 DUP2 PUSH1 0x0 ADD PUSH1 0x0 PUSH2 0x100 EXP DUP2 SLOAD DUP2 PUSH20 0xFFFFFFFFFFFFFFFFFFFFFFFFFFFFFFFFFFFFFFFF MUL NOT AND SWAP1 DUP4 PUSH20 0xFFFFFFFFFFFFFFFFFFFFFFFFFFFFFFFFFFFFFFFF AND MUL OR SWAP1 SSTORE POP TIMESTAMP DUP2 PUSH1 0x0 ADD PUSH1 0x14 PUSH2 0x100 EXP DUP2 SLOAD DUP2 PUSH8 0xFFFFFFFFFFFFFFFF MUL NOT AND SWAP1 DUP4 PUSH8 0xFFFFFFFFFFFFFFFF AND MUL OR SWAP1 SSTORE POP PUSH1 0x0 PUSH1 0x1 DUP7 ADD SWAP1 POP PUSH1 0x0 PUSH1 0x9 PUSH1 0x0 DUP4 DUP2 MSTORE PUSH1 0x20 ADD SWAP1 DUP2 MSTORE PUSH1 0x20 ADD PUSH1 0x0 KECCAK256 SWAP1 POP PUSH1 0x0 PUSH20 0xFFFFFFFFFFFFFFFFFFFFFFFFFFFFFFFFFFFFFFFF AND DUP2 PUSH1 0x0 ADD PUSH1 0x0 SWAP1 SLOAD SWAP1 PUSH2 0x100 EXP SWAP1 DIV PUSH20 0xFFFFFFFFFFFFFFFFFFFFFFFFFFFFFFFFFFFFFFFF AND PUSH20 0xFFFFFFFFFFFFFFFFFFFFFFFFFFFFFFFFFFFFFFFF AND SUB PUSH2 0x17C7 JUMPI PUSH1 0x4 SLOAD DUP3 EQ PUSH2 0x17C6 JUMPI DUP9 DUP2 PUSH1 0x0 ADD PUSH1 0x0 PUSH2 0x100 EXP DUP2 SLOAD DUP2 PUSH20 0xFFFFFFFFFFFFFFFFFFFFFFFFFFFFFFFFFFFFFFFF MUL NOT AND SWAP1 DUP4 PUSH20 0xFFFFFFFFFFFFFFFFFFFFFFFFFFFFFFFFFFFFFFFF AND MUL OR SWAP1 SSTORE POP DUP5 PUSH1 0x20 ADD MLOAD DUP2 PUSH1 0x0 ADD PUSH1 0x14 PUSH2 0x100 EXP DUP2 SLOAD DUP2 PUSH8 0xFFFFFFFFFFFFFFFF MUL NOT AND SWAP1 DUP4 PUSH8 0xFFFFFFFFFFFFFFFF AND MUL OR SWAP1 SSTORE POP JUMPDEST JUMPDEST POP POP POP DUP4 DUP6 PUSH20 0xFFFFFFFFFFFFFFFFFFFFFFFFFFFFFFFFFFFFFFFF AND DUP8 PUSH20 0xFFFFFFFFFFFFFFFFFFFFFFFFFFFFFFFFFFFFFFFF AND PUSH32 0xDDF252AD1BE2C89B69C2B068FC378DAA952BA7F163C4A11628F55A4DF523B3EF PUSH1 0x40 MLOAD PUSH1 0x40 MLOAD DUP1 SWAP2 SUB SWAP1 LOG4 PUSH2 0x1832 DUP7 DUP7 DUP7 PUSH1 0x1 PUSH2 0x1E16 JUMP JUMPDEST POP POP POP POP POP POP JUMP JUMPDEST PUSH1 0x0 DUP2 DUP4 PUSH2 0x1848 SWAP2 SWAP1 PUSH2 0x25A8 JUMP JUMPDEST SWAP1 POP SWAP3 SWAP2 POP POP JUMP JUMPDEST PUSH1 0x0 DUP2 DUP4 PUSH2 0x185E SWAP2 SWAP1 PUSH2 0x25EA JUMP JUMPDEST SWAP1 POP SWAP3 SWAP2 POP POP JUMP JUMPDEST PUSH2 0x186E PUSH2 0x1E1C JUMP JUMPDEST PUSH1 0x0 DUP3 SWAP1 POP DUP1 PUSH2 0x187C PUSH2 0x1099 JUMP JUMPDEST GT PUSH2 0x1ABA JUMPI PUSH1 0x4 SLOAD DUP2 LT ISZERO PUSH2 0x1AB9 JUMPI PUSH1 0x0 PUSH1 0x9 PUSH1 0x0 DUP4 DUP2 MSTORE PUSH1 0x20 ADD SWAP1 DUP2 MSTORE PUSH1 0x20 ADD PUSH1 0x0 KECCAK256 PUSH1 0x40 MLOAD DUP1 PUSH1 0x60 ADD PUSH1 0x40 MSTORE SWAP1 DUP2 PUSH1 0x0 DUP3 ADD PUSH1 0x0 SWAP1 SLOAD SWAP1 PUSH2 0x100 EXP SWAP1 DIV PUSH20 0xFFFFFFFFFFFFFFFFFFFFFFFFFFFFFFFFFFFFFFFF AND PUSH20 0xFFFFFFFFFFFFFFFFFFFFFFFFFFFFFFFFFFFFFFFF AND PUSH20 0xFFFFFFFFFFFFFFFFFFFFFFFFFFFFFFFFFFFFFFFF AND DUP2 MSTORE PUSH1 0x20 ADD PUSH1 0x0 DUP3 ADD PUSH1 0x14 SWAP1 SLOAD SWAP1 PUSH2 0x100 EXP SWAP1 DIV PUSH8 0xFFFFFFFFFFFFFFFF AND PUSH8 0xFFFFFFFFFFFFFFFF AND PUSH8 0xFFFFFFFFFFFFFFFF AND DUP2 MSTORE PUSH1 0x20 ADD PUSH1 0x0 DUP3 ADD PUSH1 0x1C SWAP1 SLOAD SWAP1 PUSH2 0x100 EXP SWAP1 DIV PUSH1 0xFF AND ISZERO ISZERO ISZERO ISZERO DUP2 MSTORE POP POP SWAP1 POP DUP1 PUSH1 0x40 ADD MLOAD PUSH2 0x1AB7 JUMPI PUSH1 0x0 PUSH20 0xFFFFFFFFFFFFFFFFFFFFFFFFFFFFFFFFFFFFFFFF AND DUP2 PUSH1 0x0 ADD MLOAD PUSH20 0xFFFFFFFFFFFFFFFFFFFFFFFFFFFFFFFFFFFFFFFF AND EQ PUSH2 0x199B JUMPI DUP1 SWAP3 POP POP POP PUSH2 0x1AEC JUMP JUMPDEST JUMPDEST PUSH1 0x1 ISZERO PUSH2 0x1AB6 JUMPI DUP2 DUP1 PUSH1 0x1 SWAP1 SUB SWAP3 POP POP PUSH1 0x9 PUSH1 0x0 DUP4 DUP2 MSTORE PUSH1 0x20 ADD SWAP1 DUP2 MSTORE PUSH1 0x20 ADD PUSH1 0x0 KECCAK256 PUSH1 0x40 MLOAD DUP1 PUSH1 0x60 ADD PUSH1 0x40 MSTORE SWAP1 DUP2 PUSH1 0x0 DUP3 ADD PUSH1 0x0 SWAP1 SLOAD SWAP1 PUSH2 0x100 EXP SWAP1 DIV PUSH20 0xFFFFFFFFFFFFFFFFFFFFFFFFFFFFFFFFFFFFFFFF AND PUSH20 0xFFFFFFFFFFFFFFFFFFFFFFFFFFFFFFFFFFFFFFFF AND PUSH20 0xFFFFFFFFFFFFFFFFFFFFFFFFFFFFFFFFFFFFFFFF AND DUP2 MSTORE PUSH1 0x20 ADD PUSH1 0x0 DUP3 ADD PUSH1 0x14 SWAP1 SLOAD SWAP1 PUSH2 0x100 EXP SWAP1 DIV PUSH8 0xFFFFFFFFFFFFFFFF AND PUSH8 0xFFFFFFFFFFFFFFFF AND PUSH8 0xFFFFFFFFFFFFFFFF AND DUP2 MSTORE PUSH1 0x20 ADD PUSH1 0x0 DUP3 ADD PUSH1 0x1C SWAP1 SLOAD SWAP1 PUSH2 0x100 EXP SWAP1 DIV PUSH1 0xFF AND ISZERO ISZERO ISZERO ISZERO DUP2 MSTORE POP POP SWAP1 POP PUSH1 0x0 PUSH20 0xFFFFFFFFFFFFFFFFFFFFFFFFFFFFFFFFFFFFFFFF AND DUP2 PUSH1 0x0 ADD MLOAD PUSH20 0xFFFFFFFFFFFFFFFFFFFFFFFFFFFFFFFFFFFFFFFF AND EQ PUSH2 0x1AB1 JUMPI DUP1 SWAP3 POP POP POP PUSH2 0x1AEC JUMP JUMPDEST PUSH2 0x199C JUMP JUMPDEST JUMPDEST POP JUMPDEST JUMPDEST PUSH1 0x40 MLOAD PUSH32 0xDF2D9B4200000000000000000000000000000000000000000000000000000000 DUP2 MSTORE PUSH1 0x4 ADD PUSH1 0x40 MLOAD DUP1 SWAP2 SUB SWAP1 REVERT JUMPDEST SWAP2 SWAP1 POP JUMP JUMPDEST PUSH1 0x0 DUP1 DUP3 PUSH20 0xFFFFFFFFFFFFFFFFFFFFFFFFFFFFFFFFFFFFFFFF AND EXTCODESIZE GT SWAP1 POP SWAP2 SWAP1 POP JUMP JUMPDEST PUSH1 0x0 DUP4 PUSH20 0xFFFFFFFFFFFFFFFFFFFFFFFFFFFFFFFFFFFFFFFF AND PUSH4 0x150B7A02 PUSH2 0x1B3A PUSH2 0xFDF JUMP JUMPDEST DUP8 DUP7 DUP7 PUSH1 0x40 MLOAD DUP6 PUSH4 0xFFFFFFFF AND PUSH1 0xE0 SHL DUP2 MSTORE PUSH1 0x4 ADD PUSH2 0x1B5C SWAP5 SWAP4 SWAP3 SWAP2 SWAP1 PUSH2 0x2670 JUMP JUMPDEST PUSH1 0x20 PUSH1 0x40 MLOAD DUP1 DUP4 SUB DUP2 PUSH1 0x0 DUP8 GAS CALL SWAP3 POP POP POP DUP1 ISZERO PUSH2 0x1B98 JUMPI POP PUSH1 0x40 MLOAD RETURNDATASIZE PUSH1 0x1F NOT PUSH1 0x1F DUP3 ADD AND DUP3 ADD DUP1 PUSH1 0x40 MSTORE POP DUP2 ADD SWAP1 PUSH2 0x1B95 SWAP2 SWAP1 PUSH2 0x26D1 JUMP JUMPDEST PUSH1 0x1 JUMPDEST PUSH2 0x1C11 JUMPI RETURNDATASIZE DUP1 PUSH1 0x0 DUP2 EQ PUSH2 0x1BC8 JUMPI PUSH1 0x40 MLOAD SWAP2 POP PUSH1 0x1F NOT PUSH1 0x3F RETURNDATASIZE ADD AND DUP3 ADD PUSH1 0x40 MSTORE RETURNDATASIZE DUP3 MSTORE RETURNDATASIZE PUSH1 0x0 PUSH1 0x20 DUP5 ADD RETURNDATACOPY PUSH2 0x1BCD JUMP JUMPDEST PUSH1 0x60 SWAP2 POP JUMPDEST POP PUSH1 0x0 DUP2 MLOAD SUB PUSH2 0x1C09 JUMPI PUSH1 0x40 MLOAD PUSH32 0xD1A57ED600000000000000000000000000000000000000000000000000000000 DUP2 MSTORE PUSH1 0x4 ADD PUSH1 0x40 MLOAD DUP1 SWAP2 SUB SWAP1 REVERT JUMPDEST DUP1 MLOAD DUP2 PUSH1 0x20 ADD REVERT JUMPDEST PUSH4 0x150B7A02 PUSH1 0xE0 SHL PUSH28 0xFFFFFFFFFFFFFFFFFFFFFFFFFFFFFFFFFFFFFFFFFFFFFFFFFFFFFFFF NOT AND DUP2 PUSH28 0xFFFFFFFFFFFFFFFFFFFFFFFFFFFFFFFFFFFFFFFFFFFFFFFFFFFFFFFF NOT AND EQ SWAP2 POP POP SWAP5 SWAP4 POP POP POP POP JUMP JUMPDEST PUSH1 0x0 DUP2 DUP4 PUSH2 0x1C72 SWAP2 SWAP1 PUSH2 0x26FE JUMP JUMPDEST SWAP1 POP SWAP3 SWAP2 POP POP JUMP JUMPDEST PUSH1 0x0 DUP2 DUP4 PUSH2 0x1C88 SWAP2 SWAP1 PUSH2 0x2732 JUMP JUMPDEST SWAP1 POP SWAP3 SWAP2 POP POP JUMP JUMPDEST PUSH1 0x60 PUSH1 0x40 MLOAD DUP1 PUSH1 0x80 ADD PUSH1 0x40 MSTORE DUP1 PUSH1 0x51 DUP2 MSTORE PUSH1 0x20 ADD PUSH2 0x27DE PUSH1 0x51 SWAP2 CODECOPY SWAP1 POP SWAP1 JUMP JUMPDEST PUSH1 0x60 PUSH1 0x0 DUP3 SUB PUSH2 0x1CF7 JUMPI PUSH1 0x40 MLOAD DUP1 PUSH1 0x40 ADD PUSH1 0x40 MSTORE DUP1 PUSH1 0x1 DUP2 MSTORE PUSH1 0x20 ADD PUSH32 0x3000000000000000000000000000000000000000000000000000000000000000 DUP2 MSTORE POP SWAP1 POP PUSH2 0x1E0B JUMP JUMPDEST PUSH1 0x0 DUP3 SWAP1 POP PUSH1 0x0 JUMPDEST PUSH1 0x0 DUP3 EQ PUSH2 0x1D29 JUMPI DUP1 DUP1 PUSH2 0x1D12 SWAP1 PUSH2 0x2766 JUMP JUMPDEST SWAP2 POP POP PUSH1 0xA DUP3 PUSH2 0x1D22 SWAP2 SWAP1 PUSH2 0x25EA JUMP JUMPDEST SWAP2 POP PUSH2 0x1CFF JUMP JUMPDEST PUSH1 0x0 DUP2 PUSH8 0xFFFFFFFFFFFFFFFF DUP2 GT ISZERO PUSH2 0x1D45 JUMPI PUSH2 0x1D44 PUSH2 0x226B JUMP JUMPDEST JUMPDEST PUSH1 0x40 MLOAD SWAP1 DUP1 DUP3 MSTORE DUP1 PUSH1 0x1F ADD PUSH1 0x1F NOT AND PUSH1 0x20 ADD DUP3 ADD PUSH1 0x40 MSTORE DUP1 ISZERO PUSH2 0x1D77 JUMPI DUP2 PUSH1 0x20 ADD PUSH1 0x1 DUP3 MUL DUP1 CALLDATASIZE DUP4 CALLDATACOPY DUP1 DUP3 ADD SWAP2 POP POP SWAP1 POP JUMPDEST POP SWAP1 POP JUMPDEST PUSH1 0x0 DUP6 EQ PUSH2 0x1E04 JUMPI PUSH1 0x1 DUP3 PUSH2 0x1D90 SWAP2 SWAP1 PUSH2 0x26FE JUMP JUMPDEST SWAP2 POP PUSH1 0xA DUP6 PUSH2 0x1D9F SWAP2 SWAP1 PUSH2 0x2548 JUMP JUMPDEST PUSH1 0x30 PUSH2 0x1DAB SWAP2 SWAP1 PUSH2 0x2732 JUMP JUMPDEST PUSH1 0xF8 SHL DUP2 DUP4 DUP2 MLOAD DUP2 LT PUSH2 0x1DC1 JUMPI PUSH2 0x1DC0 PUSH2 0x27AE JUMP JUMPDEST JUMPDEST PUSH1 0x20 ADD ADD SWAP1 PUSH31 0xFFFFFFFFFFFFFFFFFFFFFFFFFFFFFFFFFFFFFFFFFFFFFFFFFFFFFFFFFFFFFF NOT AND SWAP1 DUP2 PUSH1 0x0 BYTE SWAP1 MSTORE8 POP PUSH1 0xA DUP6 PUSH2 0x1DFD SWAP2 SWAP1 PUSH2 0x25EA JUMP JUMPDEST SWAP5 POP PUSH2 0x1D7B JUMP JUMPDEST DUP1 SWAP4 POP POP POP POP JUMPDEST SWAP2 SWAP1 POP JUMP JUMPDEST POP POP POP POP JUMP JUMPDEST POP POP POP POP JUMP JUMPDEST PUSH1 0x40 MLOAD DUP1 PUSH1 0x60 ADD PUSH1 0x40 MSTORE DUP1 PUSH1 0x0 PUSH20 0xFFFFFFFFFFFFFFFFFFFFFFFFFFFFFFFFFFFFFFFF AND DUP2 MSTORE PUSH1 0x20 ADD PUSH1 0x0 PUSH8 0xFFFFFFFFFFFFFFFF AND DUP2 MSTORE PUSH1 0x20 ADD PUSH1 0x0 ISZERO ISZERO DUP2 MSTORE POP SWAP1 JUMP JUMPDEST PUSH1 0x0 PUSH1 0x40 MLOAD SWAP1 POP SWAP1 JUMP JUMPDEST PUSH1 0x0 DUP1 REVERT JUMPDEST PUSH1 0x0 DUP1 REVERT JUMPDEST PUSH1 0x0 PUSH32 0xFFFFFFFF00000000000000000000000000000000000000000000000000000000 DUP3 AND SWAP1 POP SWAP2 SWAP1 POP JUMP JUMPDEST PUSH2 0x1EA8 DUP2 PUSH2 0x1E73 JUMP JUMPDEST DUP2 EQ PUSH2 0x1EB3 JUMPI PUSH1 0x0 DUP1 REVERT JUMPDEST POP JUMP JUMPDEST PUSH1 0x0 DUP2 CALLDATALOAD SWAP1 POP PUSH2 0x1EC5 DUP2 PUSH2 0x1E9F JUMP JUMPDEST SWAP3 SWAP2 POP POP JUMP JUMPDEST PUSH1 0x0 PUSH1 0x20 DUP3 DUP5 SUB SLT ISZERO PUSH2 0x1EE1 JUMPI PUSH2 0x1EE0 PUSH2 0x1E69 JUMP JUMPDEST JUMPDEST PUSH1 0x0 PUSH2 0x1EEF DUP5 DUP3 DUP6 ADD PUSH2 0x1EB6 JUMP JUMPDEST SWAP2 POP POP SWAP3 SWAP2 POP POP JUMP JUMPDEST PUSH1 0x0 DUP2 ISZERO ISZERO SWAP1 POP SWAP2 SWAP1 POP JUMP JUMPDEST PUSH2 0x1F0D DUP2 PUSH2 0x1EF8 JUMP JUMPDEST DUP3 MSTORE POP POP JUMP JUMPDEST PUSH1 0x0 PUSH1 0x20 DUP3 ADD SWAP1 POP PUSH2 0x1F28 PUSH1 0x0 DUP4 ADD DUP5 PUSH2 0x1F04 JUMP JUMPDEST SWAP3 SWAP2 POP POP JUMP JUMPDEST PUSH1 0x0 DUP2 MLOAD SWAP1 POP SWAP2 SWAP1 POP JUMP JUMPDEST PUSH1 0x0 DUP3 DUP3 MSTORE PUSH1 0x20 DUP3 ADD SWAP1 POP SWAP3 SWAP2 POP POP JUMP JUMPDEST PUSH1 0x0 JUMPDEST DUP4 DUP2 LT ISZERO PUSH2 0x1F68 JUMPI DUP1 DUP3 ADD MLOAD DUP2 DUP5 ADD MSTORE PUSH1 0x20 DUP2 ADD SWAP1 POP PUSH2 0x1F4D JUMP JUMPDEST PUSH1 0x0 DUP5 DUP5 ADD MSTORE POP POP POP POP JUMP JUMPDEST PUSH1 0x0 PUSH1 0x1F NOT PUSH1 0x1F DUP4 ADD AND SWAP1 POP SWAP2 SWAP1 POP JUMP JUMPDEST PUSH1 0x0 PUSH2 0x1F90 DUP3 PUSH2 0x1F2E JUMP JUMPDEST PUSH2 0x1F9A DUP2 DUP6 PUSH2 0x1F39 JUMP JUMPDEST SWAP4 POP PUSH2 0x1FAA DUP2 DUP6 PUSH1 0x20 DUP7 ADD PUSH2 0x1F4A JUMP JUMPDEST PUSH2 0x1FB3 DUP2 PUSH2 0x1F74 JUMP JUMPDEST DUP5 ADD SWAP2 POP POP SWAP3 SWAP2 POP POP JUMP JUMPDEST PUSH1 0x0 PUSH1 0x20 DUP3 ADD SWAP1 POP DUP2 DUP2 SUB PUSH1 0x0 DUP4 ADD MSTORE PUSH2 0x1FD8 DUP2 DUP5 PUSH2 0x1F85 JUMP JUMPDEST SWAP1 POP SWAP3 SWAP2 POP POP JUMP JUMPDEST PUSH1 0x0 DUP2 SWAP1 POP SWAP2 SWAP1 POP JUMP JUMPDEST PUSH2 0x1FF3 DUP2 PUSH2 0x1FE0 JUMP JUMPDEST DUP2 EQ PUSH2 0x1FFE JUMPI PUSH1 0x0 DUP1 REVERT JUMPDEST POP JUMP JUMPDEST PUSH1 0x0 DUP2 CALLDATALOAD SWAP1 POP PUSH2 0x2010 DUP2 PUSH2 0x1FEA JUMP JUMPDEST SWAP3 SWAP2 POP POP JUMP JUMPDEST PUSH1 0x0 PUSH1 0x20 DUP3 DUP5 SUB SLT ISZERO PUSH2 0x202C JUMPI PUSH2 0x202B PUSH2 0x1E69 JUMP JUMPDEST JUMPDEST PUSH1 0x0 PUSH2 0x203A DUP5 DUP3 DUP6 ADD PUSH2 0x2001 JUMP JUMPDEST SWAP2 POP POP SWAP3 SWAP2 POP POP JUMP JUMPDEST PUSH1 0x0 PUSH20 0xFFFFFFFFFFFFFFFFFFFFFFFFFFFFFFFFFFFFFFFF DUP3 AND SWAP1 POP SWAP2 SWAP1 POP JUMP JUMPDEST PUSH1 0x0 PUSH2 0x206E DUP3 PUSH2 0x2043 JUMP JUMPDEST SWAP1 POP SWAP2 SWAP1 POP JUMP JUMPDEST PUSH2 0x207E DUP2 PUSH2 0x2063 JUMP JUMPDEST DUP3 MSTORE POP POP JUMP JUMPDEST PUSH1 0x0 PUSH1 0x20 DUP3 ADD SWAP1 POP PUSH2 0x2099 PUSH1 0x0 DUP4 ADD DUP5 PUSH2 0x2075 JUMP JUMPDEST SWAP3 SWAP2 POP POP JUMP JUMPDEST PUSH2 0x20A8 DUP2 PUSH2 0x2063 JUMP JUMPDEST DUP2 EQ PUSH2 0x20B3 JUMPI PUSH1 0x0 DUP1 REVERT JUMPDEST POP JUMP JUMPDEST PUSH1 0x0 DUP2 CALLDATALOAD SWAP1 POP PUSH2 0x20C5 DUP2 PUSH2 0x209F JUMP JUMPDEST SWAP3 SWAP2 POP POP JUMP JUMPDEST PUSH1 0x0 DUP1 PUSH1 0x40 DUP4 DUP6 SUB SLT ISZERO PUSH2 0x20E2 JUMPI PUSH2 0x20E1 PUSH2 0x1E69 JUMP JUMPDEST JUMPDEST PUSH1 0x0 PUSH2 0x20F0 DUP6 DUP3 DUP7 ADD PUSH2 0x20B6 JUMP JUMPDEST SWAP3 POP POP PUSH1 0x20 PUSH2 0x2101 DUP6 DUP3 DUP7 ADD PUSH2 0x2001 JUMP JUMPDEST SWAP2 POP POP SWAP3 POP SWAP3 SWAP1 POP JUMP JUMPDEST PUSH2 0x2114 DUP2 PUSH2 0x1FE0 JUMP JUMPDEST DUP3 MSTORE POP POP JUMP JUMPDEST PUSH1 0x0 PUSH1 0x20 DUP3 ADD SWAP1 POP PUSH2 0x212F PUSH1 0x0 DUP4 ADD DUP5 PUSH2 0x210B JUMP JUMPDEST SWAP3 SWAP2 POP POP JUMP JUMPDEST PUSH1 0x0 DUP1 PUSH1 0x0 PUSH1 0x60 DUP5 DUP7 SUB SLT ISZERO PUSH2 0x214E JUMPI PUSH2 0x214D PUSH2 0x1E69 JUMP JUMPDEST JUMPDEST PUSH1 0x0 PUSH2 0x215C DUP7 DUP3 DUP8 ADD PUSH2 0x20B6 JUMP JUMPDEST SWAP4 POP POP PUSH1 0x20 PUSH2 0x216D DUP7 DUP3 DUP8 ADD PUSH2 0x20B6 JUMP JUMPDEST SWAP3 POP POP PUSH1 0x40 PUSH2 0x217E DUP7 DUP3 DUP8 ADD PUSH2 0x2001 JUMP JUMPDEST SWAP2 POP POP SWAP3 POP SWAP3 POP SWAP3 JUMP JUMPDEST PUSH1 0x0 PUSH1 0x20 DUP3 DUP5 SUB SLT ISZERO PUSH2 0x219E JUMPI PUSH2 0x219D PUSH2 0x1E69 JUMP JUMPDEST JUMPDEST PUSH1 0x0 PUSH2 0x21AC DUP5 DUP3 DUP6 ADD PUSH2 0x20B6 JUMP JUMPDEST SWAP2 POP POP SWAP3 SWAP2 POP POP JUMP JUMPDEST PUSH1 0x0 DUP1 PUSH1 0x40 DUP4 DUP6 SUB SLT ISZERO PUSH2 0x21CC JUMPI PUSH2 0x21CB PUSH2 0x1E69 JUMP JUMPDEST JUMPDEST PUSH1 0x0 PUSH2 0x21DA DUP6 DUP3 DUP7 ADD PUSH2 0x2001 JUMP JUMPDEST SWAP3 POP POP PUSH1 0x20 PUSH2 0x21EB DUP6 DUP3 DUP7 ADD PUSH2 0x2001 JUMP JUMPDEST SWAP2 POP POP SWAP3 POP SWAP3 SWAP1 POP JUMP JUMPDEST PUSH2 0x21FE DUP2 PUSH2 0x1EF8 JUMP JUMPDEST DUP2 EQ PUSH2 0x2209 JUMPI PUSH1 0x0 DUP1 REVERT JUMPDEST POP JUMP JUMPDEST PUSH1 0x0 DUP2 CALLDATALOAD SWAP1 POP PUSH2 0x221B DUP2 PUSH2 0x21F5 JUMP JUMPDEST SWAP3 SWAP2 POP POP JUMP JUMPDEST PUSH1 0x0 DUP1 PUSH1 0x40 DUP4 DUP6 SUB SLT ISZERO PUSH2 0x2238 JUMPI PUSH2 0x2237 PUSH2 0x1E69 JUMP JUMPDEST JUMPDEST PUSH1 0x0 PUSH2 0x2246 DUP6 DUP3 DUP7 ADD PUSH2 0x20B6 JUMP JUMPDEST SWAP3 POP POP PUSH1 0x20 PUSH2 0x2257 DUP6 DUP3 DUP7 ADD PUSH2 0x220C JUMP JUMPDEST SWAP2 POP POP SWAP3 POP SWAP3 SWAP1 POP JUMP JUMPDEST PUSH1 0x0 DUP1 REVERT JUMPDEST PUSH1 0x0 DUP1 REVERT JUMPDEST PUSH32 0x4E487B7100000000000000000000000000000000000000000000000000000000 PUSH1 0x0 MSTORE PUSH1 0x41 PUSH1 0x4 MSTORE PUSH1 0x24 PUSH1 0x0 REVERT JUMPDEST PUSH2 0x22A3 DUP3 PUSH2 0x1F74 JUMP JUMPDEST DUP2 ADD DUP2 DUP2 LT PUSH8 0xFFFFFFFFFFFFFFFF DUP3 GT OR ISZERO PUSH2 0x22C2 JUMPI PUSH2 0x22C1 PUSH2 0x226B JUMP JUMPDEST JUMPDEST DUP1 PUSH1 0x40 MSTORE POP POP POP JUMP JUMPDEST PUSH1 0x0 PUSH2 0x22D5 PUSH2 0x1E5F JUMP JUMPDEST SWAP1 POP PUSH2 0x22E1 DUP3 DUP3 PUSH2 0x229A JUMP JUMPDEST SWAP2 SWAP1 POP JUMP JUMPDEST PUSH1 0x0 PUSH8 0xFFFFFFFFFFFFFFFF DUP3 GT ISZERO PUSH2 0x2301 JUMPI PUSH2 0x2300 PUSH2 0x226B JUMP JUMPDEST JUMPDEST PUSH2 0x230A DUP3 PUSH2 0x1F74 JUMP JUMPDEST SWAP1 POP PUSH1 0x20 DUP2 ADD SWAP1 POP SWAP2 SWAP1 POP JUMP JUMPDEST DUP3 DUP2 DUP4 CALLDATACOPY PUSH1 0x0 DUP4 DUP4 ADD MSTORE POP POP POP JUMP JUMPDEST PUSH1 0x0 PUSH2 0x2339 PUSH2 0x2334 DUP5 PUSH2 0x22E6 JUMP JUMPDEST PUSH2 0x22CB JUMP JUMPDEST SWAP1 POP DUP3 DUP2 MSTORE PUSH1 0x20 DUP2 ADD DUP5 DUP5 DUP5 ADD GT ISZERO PUSH2 0x2355 JUMPI PUSH2 0x2354 PUSH2 0x2266 JUMP JUMPDEST JUMPDEST PUSH2 0x2360 DUP5 DUP3 DUP6 PUSH2 0x2317 JUMP JUMPDEST POP SWAP4 SWAP3 POP POP POP JUMP JUMPDEST PUSH1 0x0 DUP3 PUSH1 0x1F DUP4 ADD SLT PUSH2 0x237D JUMPI PUSH2 0x237C PUSH2 0x2261 JUMP JUMPDEST JUMPDEST DUP2 CALLDATALOAD PUSH2 0x238D DUP5 DUP3 PUSH1 0x20 DUP7 ADD PUSH2 0x2326 JUMP JUMPDEST SWAP2 POP POP SWAP3 SWAP2 POP POP JUMP JUMPDEST PUSH1 0x0 DUP1 PUSH1 0x0 DUP1 PUSH1 0x80 DUP6 DUP8 SUB SLT ISZERO PUSH2 0x23B0 JUMPI PUSH2 0x23AF PUSH2 0x1E69 JUMP JUMPDEST JUMPDEST PUSH1 0x0 PUSH2 0x23BE DUP8 DUP3 DUP9 ADD PUSH2 0x20B6 JUMP JUMPDEST SWAP5 POP POP PUSH1 0x20 PUSH2 0x23CF DUP8 DUP3 DUP9 ADD PUSH2 0x20B6 JUMP JUMPDEST SWAP4 POP POP PUSH1 0x40 PUSH2 0x23E0 DUP8 DUP3 DUP9 ADD PUSH2 0x2001 JUMP JUMPDEST SWAP3 POP POP PUSH1 0x60 DUP6 ADD CALLDATALOAD PUSH8 0xFFFFFFFFFFFFFFFF DUP2 GT ISZERO PUSH2 0x2401 JUMPI PUSH2 0x2400 PUSH2 0x1E6E JUMP JUMPDEST JUMPDEST PUSH2 0x240D DUP8 DUP3 DUP9 ADD PUSH2 0x2368 JUMP JUMPDEST SWAP2 POP POP SWAP3 SWAP6 SWAP2 SWAP5 POP SWAP3 POP JUMP JUMPDEST PUSH1 0x0 DUP1 PUSH1 0x40 DUP4 DUP6 SUB SLT ISZERO PUSH2 0x2430 JUMPI PUSH2 0x242F PUSH2 0x1E69 JUMP JUMPDEST JUMPDEST PUSH1 0x0 PUSH2 0x243E DUP6 DUP3 DUP7 ADD PUSH2 0x20B6 JUMP JUMPDEST SWAP3 POP POP PUSH1 0x20 PUSH2 0x244F DUP6 DUP3 DUP7 ADD PUSH2 0x20B6 JUMP JUMPDEST SWAP2 POP POP SWAP3 POP SWAP3 SWAP1 POP JUMP JUMPDEST PUSH32 0x4E487B7100000000000000000000000000000000000000000000000000000000 PUSH1 0x0 MSTORE PUSH1 0x22 PUSH1 0x4 MSTORE PUSH1 0x24 PUSH1 0x0 REVERT JUMPDEST PUSH1 0x0 PUSH1 0x2 DUP3 DIV SWAP1 POP PUSH1 0x1 DUP3 AND DUP1 PUSH2 0x24A0 JUMPI PUSH1 0x7F DUP3 AND SWAP2 POP JUMPDEST PUSH1 0x20 DUP3 LT DUP2 SUB PUSH2 0x24B3 JUMPI PUSH2 0x24B2 PUSH2 0x2459 JUMP JUMPDEST JUMPDEST POP SWAP2 SWAP1 POP JUMP JUMPDEST PUSH1 0x0 DUP2 SWAP1 POP SWAP3 SWAP2 POP POP JUMP JUMPDEST PUSH1 0x0 PUSH2 0x24CF DUP3 PUSH2 0x1F2E JUMP JUMPDEST PUSH2 0x24D9 DUP2 DUP6 PUSH2 0x24B9 JUMP JUMPDEST SWAP4 POP PUSH2 0x24E9 DUP2 DUP6 PUSH1 0x20 DUP7 ADD PUSH2 0x1F4A JUMP JUMPDEST DUP1 DUP5 ADD SWAP2 POP POP SWAP3 SWAP2 POP POP JUMP JUMPDEST PUSH1 0x0 PUSH2 0x2501 DUP3 DUP6 PUSH2 0x24C4 JUMP JUMPDEST SWAP2 POP PUSH2 0x250D DUP3 DUP5 PUSH2 0x24C4 JUMP JUMPDEST SWAP2 POP DUP2 SWAP1 POP SWAP4 SWAP3 POP POP POP JUMP JUMPDEST PUSH32 0x4E487B7100000000000000000000000000000000000000000000000000000000 PUSH1 0x0 MSTORE PUSH1 0x12 PUSH1 0x4 MSTORE PUSH1 0x24 PUSH1 0x0 REVERT JUMPDEST PUSH1 0x0 PUSH2 0x2553 DUP3 PUSH2 0x1FE0 JUMP JUMPDEST SWAP2 POP PUSH2 0x255E DUP4 PUSH2 0x1FE0 JUMP JUMPDEST SWAP3 POP DUP3 PUSH2 0x256E JUMPI PUSH2 0x256D PUSH2 0x2519 JUMP JUMPDEST JUMPDEST DUP3 DUP3 MOD SWAP1 POP SWAP3 SWAP2 POP POP JUMP JUMPDEST PUSH32 0x4E487B7100000000000000000000000000000000000000000000000000000000 PUSH1 0x0 MSTORE PUSH1 0x11 PUSH1 0x4 MSTORE PUSH1 0x24 PUSH1 0x0 REVERT JUMPDEST PUSH1 0x0 PUSH2 0x25B3 DUP3 PUSH2 0x1FE0 JUMP JUMPDEST SWAP2 POP PUSH2 0x25BE DUP4 PUSH2 0x1FE0 JUMP JUMPDEST SWAP3 POP DUP3 DUP3 MUL PUSH2 0x25CC DUP2 PUSH2 0x1FE0 JUMP JUMPDEST SWAP2 POP DUP3 DUP3 DIV DUP5 EQ DUP4 ISZERO OR PUSH2 0x25E3 JUMPI PUSH2 0x25E2 PUSH2 0x2579 JUMP JUMPDEST JUMPDEST POP SWAP3 SWAP2 POP POP JUMP JUMPDEST PUSH1 0x0 PUSH2 0x25F5 DUP3 PUSH2 0x1FE0 JUMP JUMPDEST SWAP2 POP PUSH2 0x2600 DUP4 PUSH2 0x1FE0 JUMP JUMPDEST SWAP3 POP DUP3 PUSH2 0x2610 JUMPI PUSH2 0x260F PUSH2 0x2519 JUMP JUMPDEST JUMPDEST DUP3 DUP3 DIV SWAP1 POP SWAP3 SWAP2 POP POP JUMP JUMPDEST PUSH1 0x0 DUP2 MLOAD SWAP1 POP SWAP2 SWAP1 POP JUMP JUMPDEST PUSH1 0x0 DUP3 DUP3 MSTORE PUSH1 0x20 DUP3 ADD SWAP1 POP SWAP3 SWAP2 POP POP JUMP JUMPDEST PUSH1 0x0 PUSH2 0x2642 DUP3 PUSH2 0x261B JUMP JUMPDEST PUSH2 0x264C DUP2 DUP6 PUSH2 0x2626 JUMP JUMPDEST SWAP4 POP PUSH2 0x265C DUP2 DUP6 PUSH1 0x20 DUP7 ADD PUSH2 0x1F4A JUMP JUMPDEST PUSH2 0x2665 DUP2 PUSH2 0x1F74 JUMP JUMPDEST DUP5 ADD SWAP2 POP POP SWAP3 SWAP2 POP POP JUMP JUMPDEST PUSH1 0x0 PUSH1 0x80 DUP3 ADD SWAP1 POP PUSH2 0x2685 PUSH1 0x0 DUP4 ADD DUP8 PUSH2 0x2075 JUMP JUMPDEST PUSH2 0x2692 PUSH1 0x20 DUP4 ADD DUP7 PUSH2 0x2075 JUMP JUMPDEST PUSH2 0x269F PUSH1 0x40 DUP4 ADD DUP6 PUSH2 0x210B JUMP JUMPDEST DUP2 DUP2 SUB PUSH1 0x60 DUP4 ADD MSTORE PUSH2 0x26B1 DUP2 DUP5 PUSH2 0x2637 JUMP JUMPDEST SWAP1 POP SWAP6 SWAP5 POP POP POP POP POP JUMP JUMPDEST PUSH1 0x0 DUP2 MLOAD SWAP1 POP PUSH2 0x26CB DUP2 PUSH2 0x1E9F JUMP JUMPDEST SWAP3 SWAP2 POP POP JUMP JUMPDEST PUSH1 0x0 PUSH1 0x20 DUP3 DUP5 SUB SLT ISZERO PUSH2 0x26E7 JUMPI PUSH2 0x26E6 PUSH2 0x1E69 JUMP JUMPDEST JUMPDEST PUSH1 0x0 PUSH2 0x26F5 DUP5 DUP3 DUP6 ADD PUSH2 0x26BC JUMP JUMPDEST SWAP2 POP POP SWAP3 SWAP2 POP POP JUMP JUMPDEST PUSH1 0x0 PUSH2 0x2709 DUP3 PUSH2 0x1FE0 JUMP JUMPDEST SWAP2 POP PUSH2 0x2714 DUP4 PUSH2 0x1FE0 JUMP JUMPDEST SWAP3 POP DUP3 DUP3 SUB SWAP1 POP DUP2 DUP2 GT ISZERO PUSH2 0x272C JUMPI PUSH2 0x272B PUSH2 0x2579 JUMP JUMPDEST JUMPDEST SWAP3 SWAP2 POP POP JUMP JUMPDEST PUSH1 0x0 PUSH2 0x273D DUP3 PUSH2 0x1FE0 JUMP JUMPDEST SWAP2 POP PUSH2 0x2748 DUP4 PUSH2 0x1FE0 JUMP JUMPDEST SWAP3 POP DUP3 DUP3 ADD SWAP1 POP DUP1 DUP3 GT ISZERO PUSH2 0x2760 JUMPI PUSH2 0x275F PUSH2 0x2579 JUMP JUMPDEST JUMPDEST SWAP3 SWAP2 POP POP JUMP JUMPDEST PUSH1 0x0 PUSH2 0x2771 DUP3 PUSH2 0x1FE0 JUMP JUMPDEST SWAP2 POP PUSH32 0xFFFFFFFFFFFFFFFFFFFFFFFFFFFFFFFFFFFFFFFFFFFFFFFFFFFFFFFFFFFFFFFF DUP3 SUB PUSH2 0x27A3 JUMPI PUSH2 0x27A2 PUSH2 0x2579 JUMP JUMPDEST JUMPDEST PUSH1 0x1 DUP3 ADD SWAP1 POP SWAP2 SWAP1 POP JUMP JUMPDEST PUSH32 0x4E487B7100000000000000000000000000000000000000000000000000000000 PUSH1 0x0 MSTORE PUSH1 0x32 PUSH1 0x4 MSTORE PUSH1 0x24 PUSH1 0x0 REVERT INVALID PUSH9 0x747470733A2F2F6761 PUSH21 0x657761792E70696E6174612E636C6F75642F697066 PUSH20 0x2F516D65794B6E7658584D784175574735707433 CALLDATALOAD GASLIMIT PUSH27 0x3851684A6852363352445653775566736A4B61795234325A2FA264 PUSH10 0x70667358221220E998A9 PUSH24 0x448829AD90FD2CA234DC35DEDFA45999A683F72F536D564E 0xE0 0xB7 0xEF 0xE5 PUSH5 0x736F6C6343 STOP ADDMOD GT STOP CALLER "
				},
				"gasEstimates": {
					"creation": {
						"codeDepositCost": "2068000",
						"executionCost": "infinite",
						"totalCost": "infinite"
					},
					"external": {
						"DcofferPower(uint256)": "infinite",
						"MineStatus(address)": "infinite",
						"approve(address,uint256)": "infinite",
						"balanceOf(address)": "3035",
						"blockStatus(uint256)": "infinite",
						"getApproved(uint256)": "7458",
						"isApprovedForAll(address,address)": "infinite",
						"maxSupply()": "4620",
						"mineInfo(uint256,uint256)": "infinite",
						"name()": "infinite",
						"ownerOf(uint256)": "infinite",
						"safeTransferFrom(address,address,uint256)": "infinite",
						"safeTransferFrom(address,address,uint256,bytes)": "infinite",
						"setApprovalForAll(address,bool)": "infinite",
						"supportsInterface(bytes4)": "797",
						"symbol()": "infinite",
						"tokenURI(uint256)": "infinite",
						"totalPower()": "2503",
						"totalSupply()": "4688",
						"transferFrom(address,address,uint256)": "infinite"
					},
					"internal": {
						"_afterTokenTransfers(address,address,uint256,uint256)": "17",
						"_approve(address,uint256,address)": "26292",
						"_baseURI()": "infinite",
						"_beforeTokenTransfers(address,address,uint256,uint256)": "17",
						"_burn(uint256)": "infinite",
						"_burn(uint256,bool)": "infinite",
						"_checkContractOnERC721Received(address,address,uint256,bytes memory)": "infinite",
						"_exists(uint256)": "4499",
						"_getAux(address)": "infinite",
						"_numberBurned(address)": "infinite",
						"_numberMinted(address)": "infinite",
						"_ownershipOf(uint256)": "infinite",
						"_safeMint(address,uint256)": "infinite",
						"_safeMint(address,uint256,bytes memory)": "infinite",
						"_setAux(address,uint64)": "infinite",
						"_startTokenId()": "15",
						"_totalMinted()": "infinite",
						"_transfer(address,address,uint256)": "infinite"
					}
				},
				"methodIdentifiers": {
					"DcofferPower(uint256)": "f390c328",
					"MineStatus(address)": "b8ba6007",
					"approve(address,uint256)": "095ea7b3",
					"balanceOf(address)": "70a08231",
					"blockStatus(uint256)": "4be3403c",
					"getApproved(uint256)": "081812fc",
					"isApprovedForAll(address,address)": "e985e9c5",
					"maxSupply()": "d5abeb01",
					"mineInfo(uint256,uint256)": "922a526c",
					"name()": "06fdde03",
					"ownerOf(uint256)": "6352211e",
					"safeTransferFrom(address,address,uint256)": "42842e0e",
					"safeTransferFrom(address,address,uint256,bytes)": "b88d4fde",
					"setApprovalForAll(address,bool)": "a22cb465",
					"supportsInterface(bytes4)": "01ffc9a7",
					"symbol()": "95d89b41",
					"tokenURI(uint256)": "c87b56dd",
					"totalPower()": "db3ad22c",
					"totalSupply()": "18160ddd",
					"transferFrom(address,address,uint256)": "23b872dd"
				}
			},
			"storageLayout": {
				"storage": [
					{
						"astId": 1152,
						"contract": "Dcoffer/ERC721A/test.sol:ERC721A",
						"label": "_salt",
						"offset": 0,
						"slot": "0",
						"type": "t_uint256"
					},
					{
						"astId": 1154,
						"contract": "Dcoffer/ERC721A/test.sol:ERC721A",
						"label": "_DCFperBlock",
						"offset": 0,
						"slot": "1",
						"type": "t_uint256"
					},
					{
						"astId": 1156,
						"contract": "Dcoffer/ERC721A/test.sol:ERC721A",
						"label": "_startBlockNumber",
						"offset": 0,
						"slot": "2",
						"type": "t_uint256"
					},
					{
						"astId": 1158,
						"contract": "Dcoffer/ERC721A/test.sol:ERC721A",
						"label": "_totalPower",
						"offset": 0,
						"slot": "3",
						"type": "t_uint256"
					},
					{
						"astId": 1160,
						"contract": "Dcoffer/ERC721A/test.sol:ERC721A",
						"label": "_currentIndex",
						"offset": 0,
						"slot": "4",
						"type": "t_uint256"
					},
					{
						"astId": 1162,
						"contract": "Dcoffer/ERC721A/test.sol:ERC721A",
						"label": "_maxSupply",
						"offset": 0,
						"slot": "5",
						"type": "t_uint256"
					},
					{
						"astId": 1164,
						"contract": "Dcoffer/ERC721A/test.sol:ERC721A",
						"label": "_burnCounter",
						"offset": 0,
						"slot": "6",
						"type": "t_uint256"
					},
					{
						"astId": 1166,
						"contract": "Dcoffer/ERC721A/test.sol:ERC721A",
						"label": "_name",
						"offset": 0,
						"slot": "7",
						"type": "t_string_storage"
					},
					{
						"astId": 1168,
						"contract": "Dcoffer/ERC721A/test.sol:ERC721A",
						"label": "_symbol",
						"offset": 0,
						"slot": "8",
						"type": "t_string_storage"
					},
					{
						"astId": 1173,
						"contract": "Dcoffer/ERC721A/test.sol:ERC721A",
						"label": "_ownerships",
						"offset": 0,
						"slot": "9",
						"type": "t_mapping(t_uint256,t_struct(TokenOwnership)1106_storage)"
					},
					{
						"astId": 1178,
						"contract": "Dcoffer/ERC721A/test.sol:ERC721A",
						"label": "_addressData",
						"offset": 0,
						"slot": "10",
						"type": "t_mapping(t_address,t_struct(AddressData)1115_storage)"
					},
					{
						"astId": 1182,
						"contract": "Dcoffer/ERC721A/test.sol:ERC721A",
						"label": "_tokenApprovals",
						"offset": 0,
						"slot": "11",
						"type": "t_mapping(t_uint256,t_address)"
					},
					{
						"astId": 1188,
						"contract": "Dcoffer/ERC721A/test.sol:ERC721A",
						"label": "_operatorApprovals",
						"offset": 0,
						"slot": "12",
						"type": "t_mapping(t_address,t_mapping(t_address,t_bool))"
					},
					{
						"astId": 1195,
						"contract": "Dcoffer/ERC721A/test.sol:ERC721A",
						"label": "_mineInfo",
						"offset": 0,
						"slot": "13",
						"type": "t_mapping(t_address,t_mapping(t_uint256,t_uint256))"
					}
				],
				"types": {
					"t_address": {
						"encoding": "inplace",
						"label": "address",
						"numberOfBytes": "20"
					},
					"t_bool": {
						"encoding": "inplace",
						"label": "bool",
						"numberOfBytes": "1"
					},
					"t_mapping(t_address,t_bool)": {
						"encoding": "mapping",
						"key": "t_address",
						"label": "mapping(address => bool)",
						"numberOfBytes": "32",
						"value": "t_bool"
					},
					"t_mapping(t_address,t_mapping(t_address,t_bool))": {
						"encoding": "mapping",
						"key": "t_address",
						"label": "mapping(address => mapping(address => bool))",
						"numberOfBytes": "32",
						"value": "t_mapping(t_address,t_bool)"
					},
					"t_mapping(t_address,t_mapping(t_uint256,t_uint256))": {
						"encoding": "mapping",
						"key": "t_address",
						"label": "mapping(address => mapping(uint256 => uint256))",
						"numberOfBytes": "32",
						"value": "t_mapping(t_uint256,t_uint256)"
					},
					"t_mapping(t_address,t_struct(AddressData)1115_storage)": {
						"encoding": "mapping",
						"key": "t_address",
						"label": "mapping(address => struct IERC721A.AddressData)",
						"numberOfBytes": "32",
						"value": "t_struct(AddressData)1115_storage"
					},
					"t_mapping(t_uint256,t_address)": {
						"encoding": "mapping",
						"key": "t_uint256",
						"label": "mapping(uint256 => address)",
						"numberOfBytes": "32",
						"value": "t_address"
					},
					"t_mapping(t_uint256,t_struct(TokenOwnership)1106_storage)": {
						"encoding": "mapping",
						"key": "t_uint256",
						"label": "mapping(uint256 => struct IERC721A.TokenOwnership)",
						"numberOfBytes": "32",
						"value": "t_struct(TokenOwnership)1106_storage"
					},
					"t_mapping(t_uint256,t_uint256)": {
						"encoding": "mapping",
						"key": "t_uint256",
						"label": "mapping(uint256 => uint256)",
						"numberOfBytes": "32",
						"value": "t_uint256"
					},
					"t_string_storage": {
						"encoding": "bytes",
						"label": "string",
						"numberOfBytes": "32"
					},
					"t_struct(AddressData)1115_storage": {
						"encoding": "inplace",
						"label": "struct IERC721A.AddressData",
						"members": [
							{
								"astId": 1108,
								"contract": "Dcoffer/ERC721A/test.sol:ERC721A",
								"label": "balance",
								"offset": 0,
								"slot": "0",
								"type": "t_uint64"
							},
							{
								"astId": 1110,
								"contract": "Dcoffer/ERC721A/test.sol:ERC721A",
								"label": "numberMinted",
								"offset": 8,
								"slot": "0",
								"type": "t_uint64"
							},
							{
								"astId": 1112,
								"contract": "Dcoffer/ERC721A/test.sol:ERC721A",
								"label": "numberBurned",
								"offset": 16,
								"slot": "0",
								"type": "t_uint64"
							},
							{
								"astId": 1114,
								"contract": "Dcoffer/ERC721A/test.sol:ERC721A",
								"label": "aux",
								"offset": 24,
								"slot": "0",
								"type": "t_uint64"
							}
						],
						"numberOfBytes": "32"
					},
					"t_struct(TokenOwnership)1106_storage": {
						"encoding": "inplace",
						"label": "struct IERC721A.TokenOwnership",
						"members": [
							{
								"astId": 1101,
								"contract": "Dcoffer/ERC721A/test.sol:ERC721A",
								"label": "addr",
								"offset": 0,
								"slot": "0",
								"type": "t_address"
							},
							{
								"astId": 1103,
								"contract": "Dcoffer/ERC721A/test.sol:ERC721A",
								"label": "startTimestamp",
								"offset": 20,
								"slot": "0",
								"type": "t_uint64"
							},
							{
								"astId": 1105,
								"contract": "Dcoffer/ERC721A/test.sol:ERC721A",
								"label": "burned",
								"offset": 28,
								"slot": "0",
								"type": "t_bool"
							}
						],
						"numberOfBytes": "32"
					},
					"t_uint256": {
						"encoding": "inplace",
						"label": "uint256",
						"numberOfBytes": "32"
					},
					"t_uint64": {
						"encoding": "inplace",
						"label": "uint64",
						"numberOfBytes": "8"
					}
				}
			},
			"userdoc": {
				"errors": {
					"ApprovalCallerNotOwnerNorApproved()": [
						{
							"notice": "The caller must own the token or be an approved operator."
						}
					],
					"ApprovalQueryForNonexistentToken()": [
						{
							"notice": "The token does not exist."
						}
					],
					"ApprovalToCurrentOwner()": [
						{
							"notice": "The caller cannot approve to the current owner."
						}
					],
					"ApproveToCaller()": [
						{
							"notice": "The caller cannot approve to their own address."
						}
					],
					"BalanceQueryForZeroAddress()": [
						{
							"notice": "Cannot query the balance for the zero address."
						}
					],
					"MintToZeroAddress()": [
						{
							"notice": "Cannot mint to the zero address."
						}
					],
					"MintZeroQuantity()": [
						{
							"notice": "The quantity of tokens minted must be more than zero."
						}
					],
					"OwnerQueryForNonexistentToken()": [
						{
							"notice": "The token does not exist."
						}
					],
					"TransferCallerNotOwnerNorApproved()": [
						{
							"notice": "The caller must own the token or be an approved operator."
						}
					],
					"TransferFromIncorrectOwner()": [
						{
							"notice": "The token must be owned by `from`."
						}
					],
					"TransferToNonERC721ReceiverImplementer()": [
						{
							"notice": "Cannot safely transfer to a contract that does not implement the ERC721Receiver interface."
						}
					],
					"TransferToZeroAddress()": [
						{
							"notice": "Cannot transfer to the zero address."
						}
					],
					"URIQueryForNonexistentToken()": [
						{
							"notice": "The token does not exist."
						}
					]
				},
				"kind": "user",
				"methods": {},
				"version": 1
			}
		}
	}
}