{
	"Dcoffer/ERC721A/test.sol": {
		"ERC721A": {
			"abi": [
				{
					"inputs": [
						{
							"internalType": "string",
							"name": "name_",
							"type": "string"
						},
						{
							"internalType": "string",
							"name": "symbol_",
							"type": "string"
						},
						{
							"internalType": "uint256",
							"name": "salt_",
							"type": "uint256"
						}
					],
					"stateMutability": "nonpayable",
					"type": "constructor"
				},
				{
					"inputs": [],
					"name": "ApprovalCallerNotOwnerNorApproved",
					"type": "error"
				},
				{
					"inputs": [],
					"name": "ApprovalQueryForNonexistentToken",
					"type": "error"
				},
				{
					"inputs": [],
					"name": "ApprovalToCurrentOwner",
					"type": "error"
				},
				{
					"inputs": [],
					"name": "ApproveToCaller",
					"type": "error"
				},
				{
					"inputs": [],
					"name": "BalanceQueryForZeroAddress",
					"type": "error"
				},
				{
					"inputs": [],
					"name": "MintToZeroAddress",
					"type": "error"
				},
				{
					"inputs": [],
					"name": "MintZeroQuantity",
					"type": "error"
				},
				{
					"inputs": [],
					"name": "OwnerQueryForNonexistentToken",
					"type": "error"
				},
				{
					"inputs": [],
					"name": "TransferCallerNotOwnerNorApproved",
					"type": "error"
				},
				{
					"inputs": [],
					"name": "TransferFromIncorrectOwner",
					"type": "error"
				},
				{
					"inputs": [],
					"name": "TransferToNonERC721ReceiverImplementer",
					"type": "error"
				},
				{
					"inputs": [],
					"name": "TransferToZeroAddress",
					"type": "error"
				},
				{
					"inputs": [],
					"name": "URIQueryForNonexistentToken",
					"type": "error"
				},
				{
					"anonymous": false,
					"inputs": [
						{
							"indexed": true,
							"internalType": "address",
							"name": "owner",
							"type": "address"
						},
						{
							"indexed": true,
							"internalType": "address",
							"name": "approved",
							"type": "address"
						},
						{
							"indexed": true,
							"internalType": "uint256",
							"name": "tokenId",
							"type": "uint256"
						}
					],
					"name": "Approval",
					"type": "event"
				},
				{
					"anonymous": false,
					"inputs": [
						{
							"indexed": true,
							"internalType": "address",
							"name": "owner",
							"type": "address"
						},
						{
							"indexed": true,
							"internalType": "address",
							"name": "operator",
							"type": "address"
						},
						{
							"indexed": false,
							"internalType": "bool",
							"name": "approved",
							"type": "bool"
						}
					],
					"name": "ApprovalForAll",
					"type": "event"
				},
				{
					"anonymous": false,
					"inputs": [
						{
							"indexed": true,
							"internalType": "address",
							"name": "from",
							"type": "address"
						},
						{
							"indexed": true,
							"internalType": "address",
							"name": "to",
							"type": "address"
						},
						{
							"indexed": true,
							"internalType": "uint256",
							"name": "tokenId",
							"type": "uint256"
						}
					],
					"name": "Transfer",
					"type": "event"
				},
				{
					"inputs": [
						{
							"internalType": "uint256",
							"name": "tokenId",
							"type": "uint256"
						}
					],
					"name": "DcofferPower",
					"outputs": [
						{
							"internalType": "uint256",
							"name": "",
							"type": "uint256"
						}
					],
					"stateMutability": "view",
					"type": "function"
				},
				{
					"inputs": [
						{
							"internalType": "address",
							"name": "user",
							"type": "address"
						}
					],
					"name": "MineStatus",
					"outputs": [
						{
							"internalType": "uint256",
							"name": "",
							"type": "uint256"
						}
					],
					"stateMutability": "view",
					"type": "function"
				},
				{
					"inputs": [],
					"name": "_DCFperBlock",
					"outputs": [
						{
							"internalType": "uint256",
							"name": "",
							"type": "uint256"
						}
					],
					"stateMutability": "view",
					"type": "function"
				},
				{
					"inputs": [],
					"name": "_salt",
					"outputs": [
						{
							"internalType": "uint256",
							"name": "",
							"type": "uint256"
						}
					],
					"stateMutability": "view",
					"type": "function"
				},
				{
					"inputs": [],
					"name": "_startBlockNumber",
					"outputs": [
						{
							"internalType": "uint256",
							"name": "",
							"type": "uint256"
						}
					],
					"stateMutability": "view",
					"type": "function"
				},
				{
					"inputs": [],
					"name": "_totalPower",
					"outputs": [
						{
							"internalType": "uint256",
							"name": "",
							"type": "uint256"
						}
					],
					"stateMutability": "view",
					"type": "function"
				},
				{
					"inputs": [
						{
							"internalType": "address",
							"name": "to",
							"type": "address"
						},
						{
							"internalType": "uint256",
							"name": "tokenId",
							"type": "uint256"
						}
					],
					"name": "approve",
					"outputs": [],
					"stateMutability": "nonpayable",
					"type": "function"
				},
				{
					"inputs": [
						{
							"internalType": "address",
							"name": "owner",
							"type": "address"
						}
					],
					"name": "balanceOf",
					"outputs": [
						{
							"internalType": "uint256",
							"name": "",
							"type": "uint256"
						}
					],
					"stateMutability": "view",
					"type": "function"
				},
				{
					"inputs": [
						{
							"internalType": "uint256",
							"name": "_BlockNumber",
							"type": "uint256"
						}
					],
					"name": "blockStatus",
					"outputs": [
						{
							"internalType": "uint256",
							"name": "",
							"type": "uint256"
						}
					],
					"stateMutability": "view",
					"type": "function"
				},
				{
					"inputs": [
						{
							"internalType": "uint256",
							"name": "tokenId",
							"type": "uint256"
						}
					],
					"name": "getApproved",
					"outputs": [
						{
							"internalType": "address",
							"name": "",
							"type": "address"
						}
					],
					"stateMutability": "view",
					"type": "function"
				},
				{
					"inputs": [
						{
							"internalType": "address",
							"name": "owner",
							"type": "address"
						},
						{
							"internalType": "address",
							"name": "operator",
							"type": "address"
						}
					],
					"name": "isApprovedForAll",
					"outputs": [
						{
							"internalType": "bool",
							"name": "",
							"type": "bool"
						}
					],
					"stateMutability": "view",
					"type": "function"
				},
				{
					"inputs": [],
					"name": "maxSupply",
					"outputs": [
						{
							"internalType": "uint256",
							"name": "",
							"type": "uint256"
						}
					],
					"stateMutability": "view",
					"type": "function"
				},
				{
					"inputs": [],
					"name": "name",
					"outputs": [
						{
							"internalType": "string",
							"name": "",
							"type": "string"
						}
					],
					"stateMutability": "view",
					"type": "function"
				},
				{
					"inputs": [
						{
							"internalType": "uint256",
							"name": "tokenId",
							"type": "uint256"
						}
					],
					"name": "ownerOf",
					"outputs": [
						{
							"internalType": "address",
							"name": "",
							"type": "address"
						}
					],
					"stateMutability": "view",
					"type": "function"
				},
				{
					"inputs": [
						{
							"internalType": "address",
							"name": "from",
							"type": "address"
						},
						{
							"internalType": "address",
							"name": "to",
							"type": "address"
						},
						{
							"internalType": "uint256",
							"name": "tokenId",
							"type": "uint256"
						}
					],
					"name": "safeTransferFrom",
					"outputs": [],
					"stateMutability": "nonpayable",
					"type": "function"
				},
				{
					"inputs": [
						{
							"internalType": "address",
							"name": "from",
							"type": "address"
						},
						{
							"internalType": "address",
							"name": "to",
							"type": "address"
						},
						{
							"internalType": "uint256",
							"name": "tokenId",
							"type": "uint256"
						},
						{
							"internalType": "bytes",
							"name": "_data",
							"type": "bytes"
						}
					],
					"name": "safeTransferFrom",
					"outputs": [],
					"stateMutability": "nonpayable",
					"type": "function"
				},
				{
					"inputs": [
						{
							"internalType": "address",
							"name": "operator",
							"type": "address"
						},
						{
							"internalType": "bool",
							"name": "approved",
							"type": "bool"
						}
					],
					"name": "setApprovalForAll",
					"outputs": [],
					"stateMutability": "nonpayable",
					"type": "function"
				},
				{
					"inputs": [
						{
							"internalType": "bytes4",
							"name": "interfaceId",
							"type": "bytes4"
						}
					],
					"name": "supportsInterface",
					"outputs": [
						{
							"internalType": "bool",
							"name": "",
							"type": "bool"
						}
					],
					"stateMutability": "view",
					"type": "function"
				},
				{
					"inputs": [],
					"name": "symbol",
					"outputs": [
						{
							"internalType": "string",
							"name": "",
							"type": "string"
						}
					],
					"stateMutability": "view",
					"type": "function"
				},
				{
					"inputs": [
						{
							"internalType": "uint256",
							"name": "tokenId",
							"type": "uint256"
						}
					],
					"name": "tokenURI",
					"outputs": [
						{
							"internalType": "string",
							"name": "",
							"type": "string"
						}
					],
					"stateMutability": "view",
					"type": "function"
				},
				{
					"inputs": [],
					"name": "totalSupply",
					"outputs": [
						{
							"internalType": "uint256",
							"name": "",
							"type": "uint256"
						}
					],
					"stateMutability": "view",
					"type": "function"
				},
				{
					"inputs": [
						{
							"internalType": "address",
							"name": "from",
							"type": "address"
						},
						{
							"internalType": "address",
							"name": "to",
							"type": "address"
						},
						{
							"internalType": "uint256",
							"name": "tokenId",
							"type": "uint256"
						}
					],
					"name": "transferFrom",
					"outputs": [],
					"stateMutability": "nonpayable",
					"type": "function"
				}
			],
			"devdoc": {
				"details": "Implementation of https://eips.ethereum.org/EIPS/eip-721[ERC721] Non-Fungible Token Standard, including the Metadata extension. Built to optimize for lower gas during batch mints. Assumes serials are sequentially minted starting at _startTokenId() (defaults to 0, e.g. 0, 1, 2, 3..). Assumes that an owner cannot have more than 2**64 - 1 (max value of uint64) of supply. Assumes that the maximum token id cannot exceed 2**256 - 1 (max value of uint256).",
				"kind": "dev",
				"methods": {
					"approve(address,uint256)": {
						"details": "See {IERC721-approve}."
					},
					"balanceOf(address)": {
						"details": "See {IERC721-balanceOf}."
					},
					"getApproved(uint256)": {
						"details": "See {IERC721-getApproved}."
					},
					"isApprovedForAll(address,address)": {
						"details": "See {IERC721-isApprovedForAll}."
					},
					"name()": {
						"details": "See {IERC721Metadata-name}."
					},
					"ownerOf(uint256)": {
						"details": "See {IERC721-ownerOf}."
					},
					"safeTransferFrom(address,address,uint256)": {
						"details": "See {IERC721-safeTransferFrom}."
					},
					"safeTransferFrom(address,address,uint256,bytes)": {
						"details": "See {IERC721-safeTransferFrom}."
					},
					"setApprovalForAll(address,bool)": {
						"details": "See {IERC721-setApprovalForAll}."
					},
					"supportsInterface(bytes4)": {
						"details": "See {IERC165-supportsInterface}."
					},
					"symbol()": {
						"details": "See {IERC721Metadata-symbol}."
					},
					"tokenURI(uint256)": {
						"details": "See {IERC721Metadata-tokenURI}."
					},
					"totalSupply()": {
						"details": "Burned tokens are calculated here, use _totalMinted() if you want to count just minted tokens."
					},
					"transferFrom(address,address,uint256)": {
						"details": "See {IERC721-transferFrom}."
					}
				},
				"version": 1
			},
			"evm": {
				"assembly": "    /* \"Dcoffer/ERC721A/test.sol\":996:23510  contract ERC721A is Context, ERC165, IERC721A {... */\n  mstore(0x40, 0x80)\n    /* \"Dcoffer/ERC721A/test.sol\":2394:2734  constructor(string memory name_, string memory symbol_, uint256 salt_) {... */\n  callvalue\n  dup1\n  iszero\n  tag_1\n  jumpi\n  0x00\n  dup1\n  revert\ntag_1:\n  pop\n  mload(0x40)\n  sub(codesize, bytecodeSize)\n  dup1\n  bytecodeSize\n  dup4\n  codecopy\n  dup2\n  dup2\n  add\n  0x40\n  mstore\n  dup2\n  add\n  swap1\n  tag_2\n  swap2\n  swap1\n  tag_3\n  jump\t// in\ntag_2:\n    /* \"Dcoffer/ERC721A/test.sol\":2484:2489  name_ */\n  dup3\n    /* \"Dcoffer/ERC721A/test.sol\":2476:2481  _name */\n  0x07\n    /* \"Dcoffer/ERC721A/test.sol\":2476:2489  _name = name_ */\n  swap1\n  dup2\n  tag_6\n  swap2\n  swap1\n  tag_7\n  jump\t// in\ntag_6:\n  pop\n    /* \"Dcoffer/ERC721A/test.sol\":2510:2517  symbol_ */\n  dup2\n    /* \"Dcoffer/ERC721A/test.sol\":2500:2507  _symbol */\n  0x08\n    /* \"Dcoffer/ERC721A/test.sol\":2500:2517  _symbol = symbol_ */\n  swap1\n  dup2\n  tag_8\n  swap2\n  swap1\n  tag_7\n  jump\t// in\ntag_8:\n  pop\n    /* \"Dcoffer/ERC721A/test.sol\":2541:2546  10000 */\n  0x2710\n    /* \"Dcoffer/ERC721A/test.sol\":2528:2538  _maxSupply */\n  0x05\n    /* \"Dcoffer/ERC721A/test.sol\":2528:2546  _maxSupply = 10000 */\n  dup2\n  swap1\n  sstore\n  pop\n    /* \"Dcoffer/ERC721A/test.sol\":2573:2588  _startTokenId() */\n  tag_9\n    /* \"Dcoffer/ERC721A/test.sol\":2573:2586  _startTokenId */\n  shl(0x20, tag_10)\n    /* \"Dcoffer/ERC721A/test.sol\":2573:2588  _startTokenId() */\n  0x20\n  shr\n  jump\t// in\ntag_9:\n    /* \"Dcoffer/ERC721A/test.sol\":2557:2570  _currentIndex */\n  0x04\n    /* \"Dcoffer/ERC721A/test.sol\":2557:2588  _currentIndex = _startTokenId() */\n  dup2\n  swap1\n  sstore\n  pop\n    /* \"Dcoffer/ERC721A/test.sol\":2608:2613  salt_ */\n  dup1\n    /* \"Dcoffer/ERC721A/test.sol\":2600:2605  _salt */\n  0x00\n    /* \"Dcoffer/ERC721A/test.sol\":2600:2613  _salt = salt_ */\n  dup2\n  swap1\n  sstore\n  pop\n    /* \"Dcoffer/ERC721A/test.sol\":2642:2646  2e18 */\n  0x1bc16d674ec80000\n    /* \"Dcoffer/ERC721A/test.sol\":2627:2639  _DCFperBlock */\n  0x01\n    /* \"Dcoffer/ERC721A/test.sol\":2627:2646  _DCFperBlock = 2e18 */\n  dup2\n  swap1\n  sstore\n  pop\n    /* \"Dcoffer/ERC721A/test.sol\":2674:2679  46000 */\n  0xb3b0\n    /* \"Dcoffer/ERC721A/test.sol\":2660:2671  _totalPower */\n  0x03\n    /* \"Dcoffer/ERC721A/test.sol\":2660:2679  _totalPower = 46000 */\n  dup2\n  swap1\n  sstore\n  pop\n    /* \"Dcoffer/ERC721A/test.sol\":2710:2722  block.number */\n  number\n    /* \"Dcoffer/ERC721A/test.sol\":2690:2707  _startBlockNumber */\n  0x02\n    /* \"Dcoffer/ERC721A/test.sol\":2690:2722  _startBlockNumber = block.number */\n  dup2\n  swap1\n  sstore\n  pop\n    /* \"Dcoffer/ERC721A/test.sol\":2394:2734  constructor(string memory name_, string memory symbol_, uint256 salt_) {... */\n  pop\n  pop\n  pop\n    /* \"Dcoffer/ERC721A/test.sol\":996:23510  contract ERC721A is Context, ERC165, IERC721A {... */\n  jump(tag_11)\n    /* \"Dcoffer/ERC721A/test.sol\":3922:4014  function _startTokenId() internal view virtual returns (uint256) {... */\ntag_10:\n    /* \"Dcoffer/ERC721A/test.sol\":3978:3985  uint256 */\n  0x00\n    /* \"Dcoffer/ERC721A/test.sol\":3922:4014  function _startTokenId() internal view virtual returns (uint256) {... */\n  swap1\n  jump\t// out\n    /* \"#utility.yul\":7:82   */\ntag_13:\n    /* \"#utility.yul\":40:46   */\n  0x00\n    /* \"#utility.yul\":73:75   */\n  0x40\n    /* \"#utility.yul\":67:76   */\n  mload\n    /* \"#utility.yul\":57:76   */\n  swap1\n  pop\n    /* \"#utility.yul\":7:82   */\n  swap1\n  jump\t// out\n    /* \"#utility.yul\":88:205   */\ntag_14:\n    /* \"#utility.yul\":197:198   */\n  0x00\n    /* \"#utility.yul\":194:195   */\n  dup1\n    /* \"#utility.yul\":187:199   */\n  revert\n    /* \"#utility.yul\":211:328   */\ntag_15:\n    /* \"#utility.yul\":320:321   */\n  0x00\n    /* \"#utility.yul\":317:318   */\n  dup1\n    /* \"#utility.yul\":310:322   */\n  revert\n    /* \"#utility.yul\":334:451   */\ntag_16:\n    /* \"#utility.yul\":443:444   */\n  0x00\n    /* \"#utility.yul\":440:441   */\n  dup1\n    /* \"#utility.yul\":433:445   */\n  revert\n    /* \"#utility.yul\":457:574   */\ntag_17:\n    /* \"#utility.yul\":566:567   */\n  0x00\n    /* \"#utility.yul\":563:564   */\n  dup1\n    /* \"#utility.yul\":556:568   */\n  revert\n    /* \"#utility.yul\":580:682   */\ntag_18:\n    /* \"#utility.yul\":621:627   */\n  0x00\n    /* \"#utility.yul\":672:674   */\n  0x1f\n    /* \"#utility.yul\":668:675   */\n  not\n    /* \"#utility.yul\":663:665   */\n  0x1f\n    /* \"#utility.yul\":656:661   */\n  dup4\n    /* \"#utility.yul\":652:666   */\n  add\n    /* \"#utility.yul\":648:676   */\n  and\n    /* \"#utility.yul\":638:676   */\n  swap1\n  pop\n    /* \"#utility.yul\":580:682   */\n  swap2\n  swap1\n  pop\n  jump\t// out\n    /* \"#utility.yul\":688:868   */\ntag_19:\n    /* \"#utility.yul\":736:813   */\n  0x4e487b7100000000000000000000000000000000000000000000000000000000\n    /* \"#utility.yul\":733:734   */\n  0x00\n    /* \"#utility.yul\":726:814   */\n  mstore\n    /* \"#utility.yul\":833:837   */\n  0x41\n    /* \"#utility.yul\":830:831   */\n  0x04\n    /* \"#utility.yul\":823:838   */\n  mstore\n    /* \"#utility.yul\":857:861   */\n  0x24\n    /* \"#utility.yul\":854:855   */\n  0x00\n    /* \"#utility.yul\":847:862   */\n  revert\n    /* \"#utility.yul\":874:1155   */\ntag_20:\n    /* \"#utility.yul\":957:984   */\n  tag_56\n    /* \"#utility.yul\":979:983   */\n  dup3\n    /* \"#utility.yul\":957:984   */\n  tag_18\n  jump\t// in\ntag_56:\n    /* \"#utility.yul\":949:955   */\n  dup2\n    /* \"#utility.yul\":945:985   */\n  add\n    /* \"#utility.yul\":1087:1093   */\n  dup2\n    /* \"#utility.yul\":1075:1085   */\n  dup2\n    /* \"#utility.yul\":1072:1094   */\n  lt\n    /* \"#utility.yul\":1051:1069   */\n  0xffffffffffffffff\n    /* \"#utility.yul\":1039:1049   */\n  dup3\n    /* \"#utility.yul\":1036:1070   */\n  gt\n    /* \"#utility.yul\":1033:1095   */\n  or\n    /* \"#utility.yul\":1030:1118   */\n  iszero\n  tag_57\n  jumpi\n    /* \"#utility.yul\":1098:1116   */\n  tag_58\n  tag_19\n  jump\t// in\ntag_58:\n    /* \"#utility.yul\":1030:1118   */\ntag_57:\n    /* \"#utility.yul\":1138:1148   */\n  dup1\n    /* \"#utility.yul\":1134:1136   */\n  0x40\n    /* \"#utility.yul\":1127:1149   */\n  mstore\n    /* \"#utility.yul\":917:1155   */\n  pop\n    /* \"#utility.yul\":874:1155   */\n  pop\n  pop\n  jump\t// out\n    /* \"#utility.yul\":1161:1290   */\ntag_21:\n    /* \"#utility.yul\":1195:1201   */\n  0x00\n    /* \"#utility.yul\":1222:1242   */\n  tag_60\n  tag_13\n  jump\t// in\ntag_60:\n    /* \"#utility.yul\":1212:1242   */\n  swap1\n  pop\n    /* \"#utility.yul\":1251:1284   */\n  tag_61\n    /* \"#utility.yul\":1279:1283   */\n  dup3\n    /* \"#utility.yul\":1271:1277   */\n  dup3\n    /* \"#utility.yul\":1251:1284   */\n  tag_20\n  jump\t// in\ntag_61:\n    /* \"#utility.yul\":1161:1290   */\n  swap2\n  swap1\n  pop\n  jump\t// out\n    /* \"#utility.yul\":1296:1604   */\ntag_22:\n    /* \"#utility.yul\":1358:1362   */\n  0x00\n    /* \"#utility.yul\":1448:1466   */\n  0xffffffffffffffff\n    /* \"#utility.yul\":1440:1446   */\n  dup3\n    /* \"#utility.yul\":1437:1467   */\n  gt\n    /* \"#utility.yul\":1434:1490   */\n  iszero\n  tag_63\n  jumpi\n    /* \"#utility.yul\":1470:1488   */\n  tag_64\n  tag_19\n  jump\t// in\ntag_64:\n    /* \"#utility.yul\":1434:1490   */\ntag_63:\n    /* \"#utility.yul\":1508:1537   */\n  tag_65\n    /* \"#utility.yul\":1530:1536   */\n  dup3\n    /* \"#utility.yul\":1508:1537   */\n  tag_18\n  jump\t// in\ntag_65:\n    /* \"#utility.yul\":1500:1537   */\n  swap1\n  pop\n    /* \"#utility.yul\":1592:1596   */\n  0x20\n    /* \"#utility.yul\":1586:1590   */\n  dup2\n    /* \"#utility.yul\":1582:1597   */\n  add\n    /* \"#utility.yul\":1574:1597   */\n  swap1\n  pop\n    /* \"#utility.yul\":1296:1604   */\n  swap2\n  swap1\n  pop\n  jump\t// out\n    /* \"#utility.yul\":1610:1856   */\ntag_23:\n    /* \"#utility.yul\":1691:1692   */\n  0x00\n    /* \"#utility.yul\":1701:1814   */\ntag_67:\n    /* \"#utility.yul\":1715:1721   */\n  dup4\n    /* \"#utility.yul\":1712:1713   */\n  dup2\n    /* \"#utility.yul\":1709:1722   */\n  lt\n    /* \"#utility.yul\":1701:1814   */\n  iszero\n  tag_69\n  jumpi\n    /* \"#utility.yul\":1800:1801   */\n  dup1\n    /* \"#utility.yul\":1795:1798   */\n  dup3\n    /* \"#utility.yul\":1791:1802   */\n  add\n    /* \"#utility.yul\":1785:1803   */\n  mload\n    /* \"#utility.yul\":1781:1782   */\n  dup2\n    /* \"#utility.yul\":1776:1779   */\n  dup5\n    /* \"#utility.yul\":1772:1783   */\n  add\n    /* \"#utility.yul\":1765:1804   */\n  mstore\n    /* \"#utility.yul\":1737:1739   */\n  0x20\n    /* \"#utility.yul\":1734:1735   */\n  dup2\n    /* \"#utility.yul\":1730:1740   */\n  add\n    /* \"#utility.yul\":1725:1740   */\n  swap1\n  pop\n    /* \"#utility.yul\":1701:1814   */\n  jump(tag_67)\ntag_69:\n    /* \"#utility.yul\":1848:1849   */\n  0x00\n    /* \"#utility.yul\":1839:1845   */\n  dup5\n    /* \"#utility.yul\":1834:1837   */\n  dup5\n    /* \"#utility.yul\":1830:1846   */\n  add\n    /* \"#utility.yul\":1823:1850   */\n  mstore\n    /* \"#utility.yul\":1672:1856   */\n  pop\n    /* \"#utility.yul\":1610:1856   */\n  pop\n  pop\n  pop\n  jump\t// out\n    /* \"#utility.yul\":1862:2296   */\ntag_24:\n    /* \"#utility.yul\":1951:1956   */\n  0x00\n    /* \"#utility.yul\":1976:2042   */\n  tag_71\n    /* \"#utility.yul\":1992:2041   */\n  tag_72\n    /* \"#utility.yul\":2034:2040   */\n  dup5\n    /* \"#utility.yul\":1992:2041   */\n  tag_22\n  jump\t// in\ntag_72:\n    /* \"#utility.yul\":1976:2042   */\n  tag_21\n  jump\t// in\ntag_71:\n    /* \"#utility.yul\":1967:2042   */\n  swap1\n  pop\n    /* \"#utility.yul\":2065:2071   */\n  dup3\n    /* \"#utility.yul\":2058:2063   */\n  dup2\n    /* \"#utility.yul\":2051:2072   */\n  mstore\n    /* \"#utility.yul\":2103:2107   */\n  0x20\n    /* \"#utility.yul\":2096:2101   */\n  dup2\n    /* \"#utility.yul\":2092:2108   */\n  add\n    /* \"#utility.yul\":2141:2144   */\n  dup5\n    /* \"#utility.yul\":2132:2138   */\n  dup5\n    /* \"#utility.yul\":2127:2130   */\n  dup5\n    /* \"#utility.yul\":2123:2139   */\n  add\n    /* \"#utility.yul\":2120:2145   */\n  gt\n    /* \"#utility.yul\":2117:2229   */\n  iszero\n  tag_73\n  jumpi\n    /* \"#utility.yul\":2148:2227   */\n  tag_74\n  tag_17\n  jump\t// in\ntag_74:\n    /* \"#utility.yul\":2117:2229   */\ntag_73:\n    /* \"#utility.yul\":2238:2290   */\n  tag_75\n    /* \"#utility.yul\":2283:2289   */\n  dup5\n    /* \"#utility.yul\":2278:2281   */\n  dup3\n    /* \"#utility.yul\":2273:2276   */\n  dup6\n    /* \"#utility.yul\":2238:2290   */\n  tag_23\n  jump\t// in\ntag_75:\n    /* \"#utility.yul\":1957:2296   */\n  pop\n    /* \"#utility.yul\":1862:2296   */\n  swap4\n  swap3\n  pop\n  pop\n  pop\n  jump\t// out\n    /* \"#utility.yul\":2316:2671   */\ntag_25:\n    /* \"#utility.yul\":2383:2388   */\n  0x00\n    /* \"#utility.yul\":2432:2435   */\n  dup3\n    /* \"#utility.yul\":2425:2429   */\n  0x1f\n    /* \"#utility.yul\":2417:2423   */\n  dup4\n    /* \"#utility.yul\":2413:2430   */\n  add\n    /* \"#utility.yul\":2409:2436   */\n  slt\n    /* \"#utility.yul\":2399:2521   */\n  tag_77\n  jumpi\n    /* \"#utility.yul\":2440:2519   */\n  tag_78\n  tag_16\n  jump\t// in\ntag_78:\n    /* \"#utility.yul\":2399:2521   */\ntag_77:\n    /* \"#utility.yul\":2550:2556   */\n  dup2\n    /* \"#utility.yul\":2544:2557   */\n  mload\n    /* \"#utility.yul\":2575:2665   */\n  tag_79\n    /* \"#utility.yul\":2661:2664   */\n  dup5\n    /* \"#utility.yul\":2653:2659   */\n  dup3\n    /* \"#utility.yul\":2646:2650   */\n  0x20\n    /* \"#utility.yul\":2638:2644   */\n  dup7\n    /* \"#utility.yul\":2634:2651   */\n  add\n    /* \"#utility.yul\":2575:2665   */\n  tag_24\n  jump\t// in\ntag_79:\n    /* \"#utility.yul\":2566:2665   */\n  swap2\n  pop\n    /* \"#utility.yul\":2389:2671   */\n  pop\n    /* \"#utility.yul\":2316:2671   */\n  swap3\n  swap2\n  pop\n  pop\n  jump\t// out\n    /* \"#utility.yul\":2677:2754   */\ntag_26:\n    /* \"#utility.yul\":2714:2721   */\n  0x00\n    /* \"#utility.yul\":2743:2748   */\n  dup2\n    /* \"#utility.yul\":2732:2748   */\n  swap1\n  pop\n    /* \"#utility.yul\":2677:2754   */\n  swap2\n  swap1\n  pop\n  jump\t// out\n    /* \"#utility.yul\":2760:2882   */\ntag_27:\n    /* \"#utility.yul\":2833:2857   */\n  tag_82\n    /* \"#utility.yul\":2851:2856   */\n  dup2\n    /* \"#utility.yul\":2833:2857   */\n  tag_26\n  jump\t// in\ntag_82:\n    /* \"#utility.yul\":2826:2831   */\n  dup2\n    /* \"#utility.yul\":2823:2858   */\n  eq\n    /* \"#utility.yul\":2813:2876   */\n  tag_83\n  jumpi\n    /* \"#utility.yul\":2872:2873   */\n  0x00\n    /* \"#utility.yul\":2869:2870   */\n  dup1\n    /* \"#utility.yul\":2862:2874   */\n  revert\n    /* \"#utility.yul\":2813:2876   */\ntag_83:\n    /* \"#utility.yul\":2760:2882   */\n  pop\n  jump\t// out\n    /* \"#utility.yul\":2888:3031   */\ntag_28:\n    /* \"#utility.yul\":2945:2950   */\n  0x00\n    /* \"#utility.yul\":2976:2982   */\n  dup2\n    /* \"#utility.yul\":2970:2983   */\n  mload\n    /* \"#utility.yul\":2961:2983   */\n  swap1\n  pop\n    /* \"#utility.yul\":2992:3025   */\n  tag_85\n    /* \"#utility.yul\":3019:3024   */\n  dup2\n    /* \"#utility.yul\":2992:3025   */\n  tag_27\n  jump\t// in\ntag_85:\n    /* \"#utility.yul\":2888:3031   */\n  swap3\n  swap2\n  pop\n  pop\n  jump\t// out\n    /* \"#utility.yul\":3037:4046   */\ntag_3:\n    /* \"#utility.yul\":3145:3151   */\n  0x00\n    /* \"#utility.yul\":3153:3159   */\n  dup1\n    /* \"#utility.yul\":3161:3167   */\n  0x00\n    /* \"#utility.yul\":3210:3212   */\n  0x60\n    /* \"#utility.yul\":3198:3207   */\n  dup5\n    /* \"#utility.yul\":3189:3196   */\n  dup7\n    /* \"#utility.yul\":3185:3208   */\n  sub\n    /* \"#utility.yul\":3181:3213   */\n  slt\n    /* \"#utility.yul\":3178:3297   */\n  iszero\n  tag_87\n  jumpi\n    /* \"#utility.yul\":3216:3295   */\n  tag_88\n  tag_14\n  jump\t// in\ntag_88:\n    /* \"#utility.yul\":3178:3297   */\ntag_87:\n    /* \"#utility.yul\":3357:3358   */\n  0x00\n    /* \"#utility.yul\":3346:3355   */\n  dup5\n    /* \"#utility.yul\":3342:3359   */\n  add\n    /* \"#utility.yul\":3336:3360   */\n  mload\n    /* \"#utility.yul\":3387:3405   */\n  0xffffffffffffffff\n    /* \"#utility.yul\":3379:3385   */\n  dup2\n    /* \"#utility.yul\":3376:3406   */\n  gt\n    /* \"#utility.yul\":3373:3490   */\n  iszero\n  tag_89\n  jumpi\n    /* \"#utility.yul\":3409:3488   */\n  tag_90\n  tag_15\n  jump\t// in\ntag_90:\n    /* \"#utility.yul\":3373:3490   */\ntag_89:\n    /* \"#utility.yul\":3514:3588   */\n  tag_91\n    /* \"#utility.yul\":3580:3587   */\n  dup7\n    /* \"#utility.yul\":3571:3577   */\n  dup3\n    /* \"#utility.yul\":3560:3569   */\n  dup8\n    /* \"#utility.yul\":3556:3578   */\n  add\n    /* \"#utility.yul\":3514:3588   */\n  tag_25\n  jump\t// in\ntag_91:\n    /* \"#utility.yul\":3504:3588   */\n  swap4\n  pop\n    /* \"#utility.yul\":3307:3598   */\n  pop\n    /* \"#utility.yul\":3658:3660   */\n  0x20\n    /* \"#utility.yul\":3647:3656   */\n  dup5\n    /* \"#utility.yul\":3643:3661   */\n  add\n    /* \"#utility.yul\":3637:3662   */\n  mload\n    /* \"#utility.yul\":3689:3707   */\n  0xffffffffffffffff\n    /* \"#utility.yul\":3681:3687   */\n  dup2\n    /* \"#utility.yul\":3678:3708   */\n  gt\n    /* \"#utility.yul\":3675:3792   */\n  iszero\n  tag_92\n  jumpi\n    /* \"#utility.yul\":3711:3790   */\n  tag_93\n  tag_15\n  jump\t// in\ntag_93:\n    /* \"#utility.yul\":3675:3792   */\ntag_92:\n    /* \"#utility.yul\":3816:3890   */\n  tag_94\n    /* \"#utility.yul\":3882:3889   */\n  dup7\n    /* \"#utility.yul\":3873:3879   */\n  dup3\n    /* \"#utility.yul\":3862:3871   */\n  dup8\n    /* \"#utility.yul\":3858:3880   */\n  add\n    /* \"#utility.yul\":3816:3890   */\n  tag_25\n  jump\t// in\ntag_94:\n    /* \"#utility.yul\":3806:3890   */\n  swap3\n  pop\n    /* \"#utility.yul\":3608:3900   */\n  pop\n    /* \"#utility.yul\":3939:3941   */\n  0x40\n    /* \"#utility.yul\":3965:4029   */\n  tag_95\n    /* \"#utility.yul\":4021:4028   */\n  dup7\n    /* \"#utility.yul\":4012:4018   */\n  dup3\n    /* \"#utility.yul\":4001:4010   */\n  dup8\n    /* \"#utility.yul\":3997:4019   */\n  add\n    /* \"#utility.yul\":3965:4029   */\n  tag_28\n  jump\t// in\ntag_95:\n    /* \"#utility.yul\":3955:4029   */\n  swap2\n  pop\n    /* \"#utility.yul\":3910:4039   */\n  pop\n    /* \"#utility.yul\":3037:4046   */\n  swap3\n  pop\n  swap3\n  pop\n  swap3\n  jump\t// out\n    /* \"#utility.yul\":4052:4151   */\ntag_29:\n    /* \"#utility.yul\":4104:4110   */\n  0x00\n    /* \"#utility.yul\":4138:4143   */\n  dup2\n    /* \"#utility.yul\":4132:4144   */\n  mload\n    /* \"#utility.yul\":4122:4144   */\n  swap1\n  pop\n    /* \"#utility.yul\":4052:4151   */\n  swap2\n  swap1\n  pop\n  jump\t// out\n    /* \"#utility.yul\":4157:4337   */\ntag_30:\n    /* \"#utility.yul\":4205:4282   */\n  0x4e487b7100000000000000000000000000000000000000000000000000000000\n    /* \"#utility.yul\":4202:4203   */\n  0x00\n    /* \"#utility.yul\":4195:4283   */\n  mstore\n    /* \"#utility.yul\":4302:4306   */\n  0x22\n    /* \"#utility.yul\":4299:4300   */\n  0x04\n    /* \"#utility.yul\":4292:4307   */\n  mstore\n    /* \"#utility.yul\":4326:4330   */\n  0x24\n    /* \"#utility.yul\":4323:4324   */\n  0x00\n    /* \"#utility.yul\":4316:4331   */\n  revert\n    /* \"#utility.yul\":4343:4663   */\ntag_31:\n    /* \"#utility.yul\":4387:4393   */\n  0x00\n    /* \"#utility.yul\":4424:4425   */\n  0x02\n    /* \"#utility.yul\":4418:4422   */\n  dup3\n    /* \"#utility.yul\":4414:4426   */\n  div\n    /* \"#utility.yul\":4404:4426   */\n  swap1\n  pop\n    /* \"#utility.yul\":4471:4472   */\n  0x01\n    /* \"#utility.yul\":4465:4469   */\n  dup3\n    /* \"#utility.yul\":4461:4473   */\n  and\n    /* \"#utility.yul\":4492:4510   */\n  dup1\n    /* \"#utility.yul\":4482:4563   */\n  tag_99\n  jumpi\n    /* \"#utility.yul\":4548:4552   */\n  0x7f\n    /* \"#utility.yul\":4540:4546   */\n  dup3\n    /* \"#utility.yul\":4536:4553   */\n  and\n    /* \"#utility.yul\":4526:4553   */\n  swap2\n  pop\n    /* \"#utility.yul\":4482:4563   */\ntag_99:\n    /* \"#utility.yul\":4610:4612   */\n  0x20\n    /* \"#utility.yul\":4602:4608   */\n  dup3\n    /* \"#utility.yul\":4599:4613   */\n  lt\n    /* \"#utility.yul\":4579:4597   */\n  dup2\n    /* \"#utility.yul\":4576:4614   */\n  sub\n    /* \"#utility.yul\":4573:4657   */\n  tag_100\n  jumpi\n    /* \"#utility.yul\":4629:4647   */\n  tag_101\n  tag_30\n  jump\t// in\ntag_101:\n    /* \"#utility.yul\":4573:4657   */\ntag_100:\n    /* \"#utility.yul\":4394:4663   */\n  pop\n    /* \"#utility.yul\":4343:4663   */\n  swap2\n  swap1\n  pop\n  jump\t// out\n    /* \"#utility.yul\":4669:4810   */\ntag_32:\n    /* \"#utility.yul\":4718:4722   */\n  0x00\n    /* \"#utility.yul\":4741:4744   */\n  dup2\n    /* \"#utility.yul\":4733:4744   */\n  swap1\n  pop\n    /* \"#utility.yul\":4764:4767   */\n  dup2\n    /* \"#utility.yul\":4761:4762   */\n  0x00\n    /* \"#utility.yul\":4754:4768   */\n  mstore\n    /* \"#utility.yul\":4798:4802   */\n  0x20\n    /* \"#utility.yul\":4795:4796   */\n  0x00\n    /* \"#utility.yul\":4785:4803   */\n  keccak256\n    /* \"#utility.yul\":4777:4803   */\n  swap1\n  pop\n    /* \"#utility.yul\":4669:4810   */\n  swap2\n  swap1\n  pop\n  jump\t// out\n    /* \"#utility.yul\":4816:4909   */\ntag_33:\n    /* \"#utility.yul\":4853:4859   */\n  0x00\n    /* \"#utility.yul\":4900:4902   */\n  0x20\n    /* \"#utility.yul\":4895:4897   */\n  0x1f\n    /* \"#utility.yul\":4888:4893   */\n  dup4\n    /* \"#utility.yul\":4884:4898   */\n  add\n    /* \"#utility.yul\":4880:4903   */\n  div\n    /* \"#utility.yul\":4870:4903   */\n  swap1\n  pop\n    /* \"#utility.yul\":4816:4909   */\n  swap2\n  swap1\n  pop\n  jump\t// out\n    /* \"#utility.yul\":4915:5022   */\ntag_34:\n    /* \"#utility.yul\":4959:4967   */\n  0x00\n    /* \"#utility.yul\":5009:5014   */\n  dup3\n    /* \"#utility.yul\":5003:5007   */\n  dup3\n    /* \"#utility.yul\":4999:5015   */\n  shl\n    /* \"#utility.yul\":4978:5015   */\n  swap1\n  pop\n    /* \"#utility.yul\":4915:5022   */\n  swap3\n  swap2\n  pop\n  pop\n  jump\t// out\n    /* \"#utility.yul\":5028:5421   */\ntag_35:\n    /* \"#utility.yul\":5097:5103   */\n  0x00\n    /* \"#utility.yul\":5147:5148   */\n  0x08\n    /* \"#utility.yul\":5135:5145   */\n  dup4\n    /* \"#utility.yul\":5131:5149   */\n  mul\n    /* \"#utility.yul\":5170:5267   */\n  tag_106\n    /* \"#utility.yul\":5200:5266   */\n  0xffffffffffffffffffffffffffffffffffffffffffffffffffffffffffffffff\n    /* \"#utility.yul\":5189:5198   */\n  dup3\n    /* \"#utility.yul\":5170:5267   */\n  tag_34\n  jump\t// in\ntag_106:\n    /* \"#utility.yul\":5288:5327   */\n  tag_107\n    /* \"#utility.yul\":5318:5326   */\n  dup7\n    /* \"#utility.yul\":5307:5316   */\n  dup4\n    /* \"#utility.yul\":5288:5327   */\n  tag_34\n  jump\t// in\ntag_107:\n    /* \"#utility.yul\":5276:5327   */\n  swap6\n  pop\n    /* \"#utility.yul\":5360:5364   */\n  dup1\n    /* \"#utility.yul\":5356:5365   */\n  not\n    /* \"#utility.yul\":5349:5354   */\n  dup5\n    /* \"#utility.yul\":5345:5366   */\n  and\n    /* \"#utility.yul\":5336:5366   */\n  swap4\n  pop\n    /* \"#utility.yul\":5409:5413   */\n  dup1\n    /* \"#utility.yul\":5399:5407   */\n  dup7\n    /* \"#utility.yul\":5395:5414   */\n  and\n    /* \"#utility.yul\":5388:5393   */\n  dup5\n    /* \"#utility.yul\":5385:5415   */\n  or\n    /* \"#utility.yul\":5375:5415   */\n  swap3\n  pop\n    /* \"#utility.yul\":5104:5421   */\n  pop\n  pop\n    /* \"#utility.yul\":5028:5421   */\n  swap4\n  swap3\n  pop\n  pop\n  pop\n  jump\t// out\n    /* \"#utility.yul\":5427:5487   */\ntag_36:\n    /* \"#utility.yul\":5455:5458   */\n  0x00\n    /* \"#utility.yul\":5476:5481   */\n  dup2\n    /* \"#utility.yul\":5469:5481   */\n  swap1\n  pop\n    /* \"#utility.yul\":5427:5487   */\n  swap2\n  swap1\n  pop\n  jump\t// out\n    /* \"#utility.yul\":5493:5635   */\ntag_37:\n    /* \"#utility.yul\":5543:5552   */\n  0x00\n    /* \"#utility.yul\":5576:5629   */\n  tag_110\n    /* \"#utility.yul\":5594:5628   */\n  tag_111\n    /* \"#utility.yul\":5603:5627   */\n  tag_112\n    /* \"#utility.yul\":5621:5626   */\n  dup5\n    /* \"#utility.yul\":5603:5627   */\n  tag_26\n  jump\t// in\ntag_112:\n    /* \"#utility.yul\":5594:5628   */\n  tag_36\n  jump\t// in\ntag_111:\n    /* \"#utility.yul\":5576:5629   */\n  tag_26\n  jump\t// in\ntag_110:\n    /* \"#utility.yul\":5563:5629   */\n  swap1\n  pop\n    /* \"#utility.yul\":5493:5635   */\n  swap2\n  swap1\n  pop\n  jump\t// out\n    /* \"#utility.yul\":5641:5716   */\ntag_38:\n    /* \"#utility.yul\":5684:5687   */\n  0x00\n    /* \"#utility.yul\":5705:5710   */\n  dup2\n    /* \"#utility.yul\":5698:5710   */\n  swap1\n  pop\n    /* \"#utility.yul\":5641:5716   */\n  swap2\n  swap1\n  pop\n  jump\t// out\n    /* \"#utility.yul\":5722:5991   */\ntag_39:\n    /* \"#utility.yul\":5832:5871   */\n  tag_115\n    /* \"#utility.yul\":5863:5870   */\n  dup4\n    /* \"#utility.yul\":5832:5871   */\n  tag_37\n  jump\t// in\ntag_115:\n    /* \"#utility.yul\":5893:5984   */\n  tag_116\n    /* \"#utility.yul\":5942:5983   */\n  tag_117\n    /* \"#utility.yul\":5966:5982   */\n  dup3\n    /* \"#utility.yul\":5942:5983   */\n  tag_38\n  jump\t// in\ntag_117:\n    /* \"#utility.yul\":5934:5940   */\n  dup5\n    /* \"#utility.yul\":5927:5931   */\n  dup5\n    /* \"#utility.yul\":5921:5932   */\n  sload\n    /* \"#utility.yul\":5893:5984   */\n  tag_35\n  jump\t// in\ntag_116:\n    /* \"#utility.yul\":5887:5891   */\n  dup3\n    /* \"#utility.yul\":5880:5985   */\n  sstore\n    /* \"#utility.yul\":5798:5991   */\n  pop\n    /* \"#utility.yul\":5722:5991   */\n  pop\n  pop\n  pop\n  jump\t// out\n    /* \"#utility.yul\":5997:6070   */\ntag_40:\n    /* \"#utility.yul\":6042:6045   */\n  0x00\n    /* \"#utility.yul\":5997:6070   */\n  swap1\n  jump\t// out\n    /* \"#utility.yul\":6076:6265   */\ntag_41:\n    /* \"#utility.yul\":6153:6185   */\n  tag_120\n  tag_40\n  jump\t// in\ntag_120:\n    /* \"#utility.yul\":6194:6259   */\n  tag_121\n    /* \"#utility.yul\":6252:6258   */\n  dup2\n    /* \"#utility.yul\":6244:6250   */\n  dup5\n    /* \"#utility.yul\":6238:6242   */\n  dup5\n    /* \"#utility.yul\":6194:6259   */\n  tag_39\n  jump\t// in\ntag_121:\n    /* \"#utility.yul\":6129:6265   */\n  pop\n    /* \"#utility.yul\":6076:6265   */\n  pop\n  pop\n  jump\t// out\n    /* \"#utility.yul\":6271:6457   */\ntag_42:\n    /* \"#utility.yul\":6331:6451   */\ntag_123:\n    /* \"#utility.yul\":6348:6351   */\n  dup2\n    /* \"#utility.yul\":6341:6346   */\n  dup2\n    /* \"#utility.yul\":6338:6352   */\n  lt\n    /* \"#utility.yul\":6331:6451   */\n  iszero\n  tag_125\n  jumpi\n    /* \"#utility.yul\":6402:6441   */\n  tag_126\n    /* \"#utility.yul\":6439:6440   */\n  0x00\n    /* \"#utility.yul\":6432:6437   */\n  dup3\n    /* \"#utility.yul\":6402:6441   */\n  tag_41\n  jump\t// in\ntag_126:\n    /* \"#utility.yul\":6375:6376   */\n  0x01\n    /* \"#utility.yul\":6368:6373   */\n  dup2\n    /* \"#utility.yul\":6364:6377   */\n  add\n    /* \"#utility.yul\":6355:6377   */\n  swap1\n  pop\n    /* \"#utility.yul\":6331:6451   */\n  jump(tag_123)\ntag_125:\n    /* \"#utility.yul\":6271:6457   */\n  pop\n  pop\n  jump\t// out\n    /* \"#utility.yul\":6463:7006   */\ntag_43:\n    /* \"#utility.yul\":6564:6566   */\n  0x1f\n    /* \"#utility.yul\":6559:6562   */\n  dup3\n    /* \"#utility.yul\":6556:6567   */\n  gt\n    /* \"#utility.yul\":6553:6999   */\n  iszero\n  tag_128\n  jumpi\n    /* \"#utility.yul\":6598:6636   */\n  tag_129\n    /* \"#utility.yul\":6630:6635   */\n  dup2\n    /* \"#utility.yul\":6598:6636   */\n  tag_32\n  jump\t// in\ntag_129:\n    /* \"#utility.yul\":6682:6711   */\n  tag_130\n    /* \"#utility.yul\":6700:6710   */\n  dup5\n    /* \"#utility.yul\":6682:6711   */\n  tag_33\n  jump\t// in\ntag_130:\n    /* \"#utility.yul\":6672:6680   */\n  dup2\n    /* \"#utility.yul\":6668:6712   */\n  add\n    /* \"#utility.yul\":6865:6867   */\n  0x20\n    /* \"#utility.yul\":6853:6863   */\n  dup6\n    /* \"#utility.yul\":6850:6868   */\n  lt\n    /* \"#utility.yul\":6847:6896   */\n  iszero\n  tag_131\n  jumpi\n    /* \"#utility.yul\":6886:6894   */\n  dup2\n    /* \"#utility.yul\":6871:6894   */\n  swap1\n  pop\n    /* \"#utility.yul\":6847:6896   */\ntag_131:\n    /* \"#utility.yul\":6909:6989   */\n  tag_132\n    /* \"#utility.yul\":6965:6987   */\n  tag_133\n    /* \"#utility.yul\":6983:6986   */\n  dup6\n    /* \"#utility.yul\":6965:6987   */\n  tag_33\n  jump\t// in\ntag_133:\n    /* \"#utility.yul\":6955:6963   */\n  dup4\n    /* \"#utility.yul\":6951:6988   */\n  add\n    /* \"#utility.yul\":6938:6949   */\n  dup3\n    /* \"#utility.yul\":6909:6989   */\n  tag_42\n  jump\t// in\ntag_132:\n    /* \"#utility.yul\":6568:6999   */\n  pop\n  pop\n    /* \"#utility.yul\":6553:6999   */\ntag_128:\n    /* \"#utility.yul\":6463:7006   */\n  pop\n  pop\n  pop\n  jump\t// out\n    /* \"#utility.yul\":7012:7129   */\ntag_44:\n    /* \"#utility.yul\":7066:7074   */\n  0x00\n    /* \"#utility.yul\":7116:7121   */\n  dup3\n    /* \"#utility.yul\":7110:7114   */\n  dup3\n    /* \"#utility.yul\":7106:7122   */\n  shr\n    /* \"#utility.yul\":7085:7122   */\n  swap1\n  pop\n    /* \"#utility.yul\":7012:7129   */\n  swap3\n  swap2\n  pop\n  pop\n  jump\t// out\n    /* \"#utility.yul\":7135:7304   */\ntag_45:\n    /* \"#utility.yul\":7179:7185   */\n  0x00\n    /* \"#utility.yul\":7212:7263   */\n  tag_136\n    /* \"#utility.yul\":7260:7261   */\n  0x00\n    /* \"#utility.yul\":7256:7262   */\n  not\n    /* \"#utility.yul\":7248:7253   */\n  dup5\n    /* \"#utility.yul\":7245:7246   */\n  0x08\n    /* \"#utility.yul\":7241:7254   */\n  mul\n    /* \"#utility.yul\":7212:7263   */\n  tag_44\n  jump\t// in\ntag_136:\n    /* \"#utility.yul\":7208:7264   */\n  not\n    /* \"#utility.yul\":7293:7297   */\n  dup1\n    /* \"#utility.yul\":7287:7291   */\n  dup4\n    /* \"#utility.yul\":7283:7298   */\n  and\n    /* \"#utility.yul\":7273:7298   */\n  swap2\n  pop\n    /* \"#utility.yul\":7186:7304   */\n  pop\n    /* \"#utility.yul\":7135:7304   */\n  swap3\n  swap2\n  pop\n  pop\n  jump\t// out\n    /* \"#utility.yul\":7309:7604   */\ntag_46:\n    /* \"#utility.yul\":7385:7389   */\n  0x00\n    /* \"#utility.yul\":7531:7560   */\n  tag_138\n    /* \"#utility.yul\":7556:7559   */\n  dup4\n    /* \"#utility.yul\":7550:7554   */\n  dup4\n    /* \"#utility.yul\":7531:7560   */\n  tag_45\n  jump\t// in\ntag_138:\n    /* \"#utility.yul\":7523:7560   */\n  swap2\n  pop\n    /* \"#utility.yul\":7593:7596   */\n  dup3\n    /* \"#utility.yul\":7590:7591   */\n  0x02\n    /* \"#utility.yul\":7586:7597   */\n  mul\n    /* \"#utility.yul\":7580:7584   */\n  dup3\n    /* \"#utility.yul\":7577:7598   */\n  or\n    /* \"#utility.yul\":7569:7598   */\n  swap1\n  pop\n    /* \"#utility.yul\":7309:7604   */\n  swap3\n  swap2\n  pop\n  pop\n  jump\t// out\n    /* \"#utility.yul\":7609:9004   */\ntag_7:\n    /* \"#utility.yul\":7726:7763   */\n  tag_140\n    /* \"#utility.yul\":7759:7762   */\n  dup3\n    /* \"#utility.yul\":7726:7763   */\n  tag_29\n  jump\t// in\ntag_140:\n    /* \"#utility.yul\":7828:7846   */\n  0xffffffffffffffff\n    /* \"#utility.yul\":7820:7826   */\n  dup2\n    /* \"#utility.yul\":7817:7847   */\n  gt\n    /* \"#utility.yul\":7814:7870   */\n  iszero\n  tag_141\n  jumpi\n    /* \"#utility.yul\":7850:7868   */\n  tag_142\n  tag_19\n  jump\t// in\ntag_142:\n    /* \"#utility.yul\":7814:7870   */\ntag_141:\n    /* \"#utility.yul\":7894:7932   */\n  tag_143\n    /* \"#utility.yul\":7926:7930   */\n  dup3\n    /* \"#utility.yul\":7920:7931   */\n  sload\n    /* \"#utility.yul\":7894:7932   */\n  tag_31\n  jump\t// in\ntag_143:\n    /* \"#utility.yul\":7979:8046   */\n  tag_144\n    /* \"#utility.yul\":8039:8045   */\n  dup3\n    /* \"#utility.yul\":8031:8037   */\n  dup3\n    /* \"#utility.yul\":8025:8029   */\n  dup6\n    /* \"#utility.yul\":7979:8046   */\n  tag_43\n  jump\t// in\ntag_144:\n    /* \"#utility.yul\":8073:8074   */\n  0x00\n    /* \"#utility.yul\":8097:8101   */\n  0x20\n    /* \"#utility.yul\":8084:8101   */\n  swap1\n  pop\n    /* \"#utility.yul\":8129:8131   */\n  0x1f\n    /* \"#utility.yul\":8121:8127   */\n  dup4\n    /* \"#utility.yul\":8118:8132   */\n  gt\n    /* \"#utility.yul\":8146:8147   */\n  0x01\n    /* \"#utility.yul\":8141:8759   */\n  dup2\n  eq\n  tag_146\n  jumpi\n    /* \"#utility.yul\":8803:8804   */\n  0x00\n    /* \"#utility.yul\":8820:8826   */\n  dup5\n    /* \"#utility.yul\":8817:8894   */\n  iszero\n  tag_147\n  jumpi\n    /* \"#utility.yul\":8869:8878   */\n  dup3\n    /* \"#utility.yul\":8864:8867   */\n  dup8\n    /* \"#utility.yul\":8860:8879   */\n  add\n    /* \"#utility.yul\":8854:8880   */\n  mload\n    /* \"#utility.yul\":8845:8880   */\n  swap1\n  pop\n    /* \"#utility.yul\":8817:8894   */\ntag_147:\n    /* \"#utility.yul\":8920:8987   */\n  tag_148\n    /* \"#utility.yul\":8980:8986   */\n  dup6\n    /* \"#utility.yul\":8973:8978   */\n  dup3\n    /* \"#utility.yul\":8920:8987   */\n  tag_46\n  jump\t// in\ntag_148:\n    /* \"#utility.yul\":8914:8918   */\n  dup7\n    /* \"#utility.yul\":8907:8988   */\n  sstore\n    /* \"#utility.yul\":8776:8998   */\n  pop\n    /* \"#utility.yul\":8111:8998   */\n  jump(tag_145)\n    /* \"#utility.yul\":8141:8759   */\ntag_146:\n    /* \"#utility.yul\":8193:8197   */\n  0x1f\n    /* \"#utility.yul\":8189:8198   */\n  not\n    /* \"#utility.yul\":8181:8187   */\n  dup5\n    /* \"#utility.yul\":8177:8199   */\n  and\n    /* \"#utility.yul\":8227:8264   */\n  tag_149\n    /* \"#utility.yul\":8259:8263   */\n  dup7\n    /* \"#utility.yul\":8227:8264   */\n  tag_32\n  jump\t// in\ntag_149:\n    /* \"#utility.yul\":8286:8287   */\n  0x00\n    /* \"#utility.yul\":8300:8508   */\ntag_150:\n    /* \"#utility.yul\":8314:8321   */\n  dup3\n    /* \"#utility.yul\":8311:8312   */\n  dup2\n    /* \"#utility.yul\":8308:8322   */\n  lt\n    /* \"#utility.yul\":8300:8508   */\n  iszero\n  tag_152\n  jumpi\n    /* \"#utility.yul\":8393:8402   */\n  dup5\n    /* \"#utility.yul\":8388:8391   */\n  dup10\n    /* \"#utility.yul\":8384:8403   */\n  add\n    /* \"#utility.yul\":8378:8404   */\n  mload\n    /* \"#utility.yul\":8370:8376   */\n  dup3\n    /* \"#utility.yul\":8363:8405   */\n  sstore\n    /* \"#utility.yul\":8444:8445   */\n  0x01\n    /* \"#utility.yul\":8436:8442   */\n  dup3\n    /* \"#utility.yul\":8432:8446   */\n  add\n    /* \"#utility.yul\":8422:8446   */\n  swap2\n  pop\n    /* \"#utility.yul\":8491:8493   */\n  0x20\n    /* \"#utility.yul\":8480:8489   */\n  dup6\n    /* \"#utility.yul\":8476:8494   */\n  add\n    /* \"#utility.yul\":8463:8494   */\n  swap5\n  pop\n    /* \"#utility.yul\":8337:8341   */\n  0x20\n    /* \"#utility.yul\":8334:8335   */\n  dup2\n    /* \"#utility.yul\":8330:8342   */\n  add\n    /* \"#utility.yul\":8325:8342   */\n  swap1\n  pop\n    /* \"#utility.yul\":8300:8508   */\n  jump(tag_150)\ntag_152:\n    /* \"#utility.yul\":8536:8542   */\n  dup7\n    /* \"#utility.yul\":8527:8534   */\n  dup4\n    /* \"#utility.yul\":8524:8543   */\n  lt\n    /* \"#utility.yul\":8521:8700   */\n  iszero\n  tag_153\n  jumpi\n    /* \"#utility.yul\":8594:8603   */\n  dup5\n    /* \"#utility.yul\":8589:8592   */\n  dup10\n    /* \"#utility.yul\":8585:8604   */\n  add\n    /* \"#utility.yul\":8579:8605   */\n  mload\n    /* \"#utility.yul\":8637:8685   */\n  tag_154\n    /* \"#utility.yul\":8679:8683   */\n  0x1f\n    /* \"#utility.yul\":8671:8677   */\n  dup10\n    /* \"#utility.yul\":8667:8684   */\n  and\n    /* \"#utility.yul\":8656:8665   */\n  dup3\n    /* \"#utility.yul\":8637:8685   */\n  tag_45\n  jump\t// in\ntag_154:\n    /* \"#utility.yul\":8629:8635   */\n  dup4\n    /* \"#utility.yul\":8622:8686   */\n  sstore\n    /* \"#utility.yul\":8544:8700   */\n  pop\n    /* \"#utility.yul\":8521:8700   */\ntag_153:\n    /* \"#utility.yul\":8746:8747   */\n  0x01\n    /* \"#utility.yul\":8742:8743   */\n  0x02\n    /* \"#utility.yul\":8734:8740   */\n  dup9\n    /* \"#utility.yul\":8730:8744   */\n  mul\n    /* \"#utility.yul\":8726:8748   */\n  add\n    /* \"#utility.yul\":8720:8724   */\n  dup9\n    /* \"#utility.yul\":8713:8749   */\n  sstore\n    /* \"#utility.yul\":8148:8759   */\n  pop\n  pop\n  pop\n    /* \"#utility.yul\":8111:8998   */\ntag_145:\n  pop\n    /* \"#utility.yul\":7701:9004   */\n  pop\n  pop\n  pop\n    /* \"#utility.yul\":7609:9004   */\n  pop\n  pop\n  jump\t// out\n    /* \"Dcoffer/ERC721A/test.sol\":996:23510  contract ERC721A is Context, ERC165, IERC721A {... */\ntag_11:\n  dataSize(sub_0)\n  dup1\n  dataOffset(sub_0)\n  0x00\n  codecopy\n  0x00\n  return\nstop\n\nsub_0: assembly {\n        /* \"Dcoffer/ERC721A/test.sol\":996:23510  contract ERC721A is Context, ERC165, IERC721A {... */\n      mstore(0x40, 0x80)\n      callvalue\n      dup1\n      iszero\n      tag_1\n      jumpi\n      0x00\n      dup1\n      revert\n    tag_1:\n      pop\n      jumpi(tag_2, lt(calldatasize, 0x04))\n      shr(0xe0, calldataload(0x00))\n      dup1\n      0x70a08231\n      gt\n      tag_25\n      jumpi\n      dup1\n      0xb88d4fde\n      gt\n      tag_26\n      jumpi\n      dup1\n      0xb88d4fde\n      eq\n      tag_19\n      jumpi\n      dup1\n      0xb8ba6007\n      eq\n      tag_20\n      jumpi\n      dup1\n      0xc87b56dd\n      eq\n      tag_21\n      jumpi\n      dup1\n      0xd5abeb01\n      eq\n      tag_22\n      jumpi\n      dup1\n      0xe985e9c5\n      eq\n      tag_23\n      jumpi\n      dup1\n      0xf390c328\n      eq\n      tag_24\n      jumpi\n      jump(tag_2)\n    tag_26:\n      dup1\n      0x70a08231\n      eq\n      tag_14\n      jumpi\n      dup1\n      0x94fc67d1\n      eq\n      tag_15\n      jumpi\n      dup1\n      0x95d89b41\n      eq\n      tag_16\n      jumpi\n      dup1\n      0x9f773399\n      eq\n      tag_17\n      jumpi\n      dup1\n      0xa22cb465\n      eq\n      tag_18\n      jumpi\n      jump(tag_2)\n    tag_25:\n      dup1\n      0x23b872dd\n      gt\n      tag_27\n      jumpi\n      dup1\n      0x23b872dd\n      eq\n      tag_8\n      jumpi\n      dup1\n      0x38020dcc\n      eq\n      tag_9\n      jumpi\n      dup1\n      0x42842e0e\n      eq\n      tag_10\n      jumpi\n      dup1\n      0x4be3403c\n      eq\n      tag_11\n      jumpi\n      dup1\n      0x5e7ec827\n      eq\n      tag_12\n      jumpi\n      dup1\n      0x6352211e\n      eq\n      tag_13\n      jumpi\n      jump(tag_2)\n    tag_27:\n      dup1\n      0x01ffc9a7\n      eq\n      tag_3\n      jumpi\n      dup1\n      0x06fdde03\n      eq\n      tag_4\n      jumpi\n      dup1\n      0x081812fc\n      eq\n      tag_5\n      jumpi\n      dup1\n      0x095ea7b3\n      eq\n      tag_6\n      jumpi\n      dup1\n      0x18160ddd\n      eq\n      tag_7\n      jumpi\n    tag_2:\n      0x00\n      dup1\n      revert\n        /* \"Dcoffer/ERC721A/test.sol\":5082:5387  function supportsInterface(bytes4 interfaceId) public view virtual override(ERC165, IERC165) returns (bool) {... */\n    tag_3:\n      tag_28\n      0x04\n      dup1\n      calldatasize\n      sub\n      dup2\n      add\n      swap1\n      tag_29\n      swap2\n      swap1\n      tag_30\n      jump\t// in\n    tag_29:\n      tag_31\n      jump\t// in\n    tag_28:\n      mload(0x40)\n      tag_32\n      swap2\n      swap1\n      tag_33\n      jump\t// in\n    tag_32:\n      mload(0x40)\n      dup1\n      swap2\n      sub\n      swap1\n      return\n        /* \"Dcoffer/ERC721A/test.sol\":8198:8298  function name() public view virtual override returns (string memory) {... */\n    tag_4:\n      tag_34\n      tag_35\n      jump\t// in\n    tag_34:\n      mload(0x40)\n      tag_36\n      swap2\n      swap1\n      tag_37\n      jump\t// in\n    tag_36:\n      mload(0x40)\n      dup1\n      swap2\n      sub\n      swap1\n      return\n        /* \"Dcoffer/ERC721A/test.sol\":9793:9997  function getApproved(uint256 tokenId) public view override returns (address) {... */\n    tag_5:\n      tag_38\n      0x04\n      dup1\n      calldatasize\n      sub\n      dup2\n      add\n      swap1\n      tag_39\n      swap2\n      swap1\n      tag_40\n      jump\t// in\n    tag_39:\n      tag_41\n      jump\t// in\n    tag_38:\n      mload(0x40)\n      tag_42\n      swap2\n      swap1\n      tag_43\n      jump\t// in\n    tag_42:\n      mload(0x40)\n      dup1\n      swap2\n      sub\n      swap1\n      return\n        /* \"Dcoffer/ERC721A/test.sol\":9355:9727  function approve(address to, uint256 tokenId) public override {... */\n    tag_6:\n      tag_44\n      0x04\n      dup1\n      calldatasize\n      sub\n      dup2\n      add\n      swap1\n      tag_45\n      swap2\n      swap1\n      tag_46\n      jump\t// in\n    tag_45:\n      tag_47\n      jump\t// in\n    tag_44:\n      stop\n        /* \"Dcoffer/ERC721A/test.sol\":4148:4460  function totalSupply() public view override returns (uint256) {... */\n    tag_7:\n      tag_48\n      tag_49\n      jump\t// in\n    tag_48:\n      mload(0x40)\n      tag_50\n      swap2\n      swap1\n      tag_51\n      jump\t// in\n    tag_50:\n      mload(0x40)\n      dup1\n      swap2\n      sub\n      swap1\n      return\n        /* \"Dcoffer/ERC721A/test.sol\":10658:10828  function transferFrom(... */\n    tag_8:\n      tag_52\n      0x04\n      dup1\n      calldatasize\n      sub\n      dup2\n      add\n      swap1\n      tag_53\n      swap2\n      swap1\n      tag_54\n      jump\t// in\n    tag_53:\n      tag_55\n      jump\t// in\n    tag_52:\n      stop\n        /* \"Dcoffer/ERC721A/test.sol\":1174:1201  uint256 public _DCFperBlock */\n    tag_9:\n      tag_56\n      tag_57\n      jump\t// in\n    tag_56:\n      mload(0x40)\n      tag_58\n      swap2\n      swap1\n      tag_51\n      jump\t// in\n    tag_58:\n      mload(0x40)\n      dup1\n      swap2\n      sub\n      swap1\n      return\n        /* \"Dcoffer/ERC721A/test.sol\":10899:11084  function safeTransferFrom(... */\n    tag_10:\n      tag_59\n      0x04\n      dup1\n      calldatasize\n      sub\n      dup2\n      add\n      swap1\n      tag_60\n      swap2\n      swap1\n      tag_54\n      jump\t// in\n    tag_60:\n      tag_61\n      jump\t// in\n    tag_59:\n      stop\n        /* \"Dcoffer/ERC721A/test.sol\":3267:3517  function blockStatus (uint256 _BlockNumber)public view returns (uint256){... */\n    tag_11:\n      tag_62\n      0x04\n      dup1\n      calldatasize\n      sub\n      dup2\n      add\n      swap1\n      tag_63\n      swap2\n      swap1\n      tag_40\n      jump\t// in\n    tag_63:\n      tag_64\n      jump\t// in\n    tag_62:\n      mload(0x40)\n      tag_65\n      swap2\n      swap1\n      tag_51\n      jump\t// in\n    tag_65:\n      mload(0x40)\n      dup1\n      swap2\n      sub\n      swap1\n      return\n        /* \"Dcoffer/ERC721A/test.sol\":1251:1277  uint256 public _totalPower */\n    tag_12:\n      tag_66\n      tag_67\n      jump\t// in\n    tag_66:\n      mload(0x40)\n      tag_68\n      swap2\n      swap1\n      tag_51\n      jump\t// in\n    tag_68:\n      mload(0x40)\n      dup1\n      swap2\n      sub\n      swap1\n      return\n        /* \"Dcoffer/ERC721A/test.sol\":8006:8131  function ownerOf(uint256 tokenId) public view override returns (address) {... */\n    tag_13:\n      tag_69\n      0x04\n      dup1\n      calldatasize\n      sub\n      dup2\n      add\n      swap1\n      tag_70\n      swap2\n      swap1\n      tag_40\n      jump\t// in\n    tag_70:\n      tag_71\n      jump\t// in\n    tag_69:\n      mload(0x40)\n      tag_72\n      swap2\n      swap1\n      tag_43\n      jump\t// in\n    tag_72:\n      mload(0x40)\n      dup1\n      swap2\n      sub\n      swap1\n      return\n        /* \"Dcoffer/ERC721A/test.sol\":5451:5657  function balanceOf(address owner) public view override returns (uint256) {... */\n    tag_14:\n      tag_73\n      0x04\n      dup1\n      calldatasize\n      sub\n      dup2\n      add\n      swap1\n      tag_74\n      swap2\n      swap1\n      tag_75\n      jump\t// in\n    tag_74:\n      tag_76\n      jump\t// in\n    tag_73:\n      mload(0x40)\n      tag_77\n      swap2\n      swap1\n      tag_51\n      jump\t// in\n    tag_77:\n      mload(0x40)\n      dup1\n      swap2\n      sub\n      swap1\n      return\n        /* \"Dcoffer/ERC721A/test.sol\":1210:1242  uint256 public _startBlockNumber */\n    tag_15:\n      tag_78\n      tag_79\n      jump\t// in\n    tag_78:\n      mload(0x40)\n      tag_80\n      swap2\n      swap1\n      tag_51\n      jump\t// in\n    tag_80:\n      mload(0x40)\n      dup1\n      swap2\n      sub\n      swap1\n      return\n        /* \"Dcoffer/ERC721A/test.sol\":8367:8471  function symbol() public view virtual override returns (string memory) {... */\n    tag_16:\n      tag_81\n      tag_82\n      jump\t// in\n    tag_81:\n      mload(0x40)\n      tag_83\n      swap2\n      swap1\n      tag_37\n      jump\t// in\n    tag_83:\n      mload(0x40)\n      dup1\n      swap2\n      sub\n      swap1\n      return\n        /* \"Dcoffer/ERC721A/test.sol\":1145:1165  uint256 public _salt */\n    tag_17:\n      tag_84\n      tag_85\n      jump\t// in\n    tag_84:\n      mload(0x40)\n      tag_86\n      swap2\n      swap1\n      tag_51\n      jump\t// in\n    tag_86:\n      mload(0x40)\n      dup1\n      swap2\n      sub\n      swap1\n      return\n        /* \"Dcoffer/ERC721A/test.sol\":10069:10356  function setApprovalForAll(address operator, bool approved) public virtual override {... */\n    tag_18:\n      tag_87\n      0x04\n      dup1\n      calldatasize\n      sub\n      dup2\n      add\n      swap1\n      tag_88\n      swap2\n      swap1\n      tag_89\n      jump\t// in\n    tag_88:\n      tag_90\n      jump\t// in\n    tag_87:\n      stop\n        /* \"Dcoffer/ERC721A/test.sol\":11155:11525  function safeTransferFrom(... */\n    tag_19:\n      tag_91\n      0x04\n      dup1\n      calldatasize\n      sub\n      dup2\n      add\n      swap1\n      tag_92\n      swap2\n      swap1\n      tag_93\n      jump\t// in\n    tag_92:\n      tag_94\n      jump\t// in\n    tag_91:\n      stop\n        /* \"Dcoffer/ERC721A/test.sol\":2750:3194  function MineStatus(address user)public view returns(uint256){... */\n    tag_20:\n      tag_95\n      0x04\n      dup1\n      calldatasize\n      sub\n      dup2\n      add\n      swap1\n      tag_96\n      swap2\n      swap1\n      tag_75\n      jump\t// in\n    tag_96:\n      tag_97\n      jump\t// in\n    tag_95:\n      mload(0x40)\n      tag_98\n      swap2\n      swap1\n      tag_51\n      jump\t// in\n    tag_98:\n      mload(0x40)\n      dup1\n      swap2\n      sub\n      swap1\n      return\n        /* \"Dcoffer/ERC721A/test.sol\":8542:8860  function tokenURI(uint256 tokenId) public view virtual override returns (string memory) {... */\n    tag_21:\n      tag_99\n      0x04\n      dup1\n      calldatasize\n      sub\n      dup2\n      add\n      swap1\n      tag_100\n      swap2\n      swap1\n      tag_40\n      jump\t// in\n    tag_100:\n      tag_101\n      jump\t// in\n    tag_99:\n      mload(0x40)\n      tag_102\n      swap2\n      swap1\n      tag_37\n      jump\t// in\n    tag_102:\n      mload(0x40)\n      dup1\n      swap2\n      sub\n      swap1\n      return\n        /* \"Dcoffer/ERC721A/test.sol\":4470:4634  function maxSupply() public view  returns (uint256) {       ... */\n    tag_22:\n      tag_103\n      tag_104\n      jump\t// in\n    tag_103:\n      mload(0x40)\n      tag_105\n      swap2\n      swap1\n      tag_51\n      jump\t// in\n    tag_105:\n      mload(0x40)\n      dup1\n      swap2\n      sub\n      swap1\n      return\n        /* \"Dcoffer/ERC721A/test.sol\":10427:10591  function isApprovedForAll(address owner, address operator) public view virtual override returns (bool) {... */\n    tag_23:\n      tag_106\n      0x04\n      dup1\n      calldatasize\n      sub\n      dup2\n      add\n      swap1\n      tag_107\n      swap2\n      swap1\n      tag_108\n      jump\t// in\n    tag_107:\n      tag_109\n      jump\t// in\n    tag_106:\n      mload(0x40)\n      tag_110\n      swap2\n      swap1\n      tag_33\n      jump\t// in\n    tag_110:\n      mload(0x40)\n      dup1\n      swap2\n      sub\n      swap1\n      return\n        /* \"Dcoffer/ERC721A/test.sol\":3534:3804  function DcofferPower (uint256 tokenId)public view returns(uint256){... */\n    tag_24:\n      tag_111\n      0x04\n      dup1\n      calldatasize\n      sub\n      dup2\n      add\n      swap1\n      tag_112\n      swap2\n      swap1\n      tag_40\n      jump\t// in\n    tag_112:\n      tag_113\n      jump\t// in\n    tag_111:\n      mload(0x40)\n      tag_114\n      swap2\n      swap1\n      tag_51\n      jump\t// in\n    tag_114:\n      mload(0x40)\n      dup1\n      swap2\n      sub\n      swap1\n      return\n        /* \"Dcoffer/ERC721A/test.sol\":5082:5387  function supportsInterface(bytes4 interfaceId) public view virtual override(ERC165, IERC165) returns (bool) {... */\n    tag_31:\n        /* \"Dcoffer/ERC721A/test.sol\":5184:5188  bool */\n      0x00\n        /* \"Dcoffer/ERC721A/test.sol\":5236:5261  type(IERC721).interfaceId */\n      0x80ac58cd00000000000000000000000000000000000000000000000000000000\n        /* \"Dcoffer/ERC721A/test.sol\":5221:5261  interfaceId == type(IERC721).interfaceId */\n      not(0xffffffffffffffffffffffffffffffffffffffffffffffffffffffff)\n      and\n        /* \"Dcoffer/ERC721A/test.sol\":5221:5232  interfaceId */\n      dup3\n        /* \"Dcoffer/ERC721A/test.sol\":5221:5261  interfaceId == type(IERC721).interfaceId */\n      not(0xffffffffffffffffffffffffffffffffffffffffffffffffffffffff)\n      and\n      eq\n        /* \"Dcoffer/ERC721A/test.sol\":5221:5326  interfaceId == type(IERC721).interfaceId ||... */\n      dup1\n      tag_116\n      jumpi\n      pop\n        /* \"Dcoffer/ERC721A/test.sol\":5293:5326  type(IERC721Metadata).interfaceId */\n      0x5b5e139f00000000000000000000000000000000000000000000000000000000\n        /* \"Dcoffer/ERC721A/test.sol\":5278:5326  interfaceId == type(IERC721Metadata).interfaceId */\n      not(0xffffffffffffffffffffffffffffffffffffffffffffffffffffffff)\n      and\n        /* \"Dcoffer/ERC721A/test.sol\":5278:5289  interfaceId */\n      dup3\n        /* \"Dcoffer/ERC721A/test.sol\":5278:5326  interfaceId == type(IERC721Metadata).interfaceId */\n      not(0xffffffffffffffffffffffffffffffffffffffffffffffffffffffff)\n      and\n      eq\n        /* \"Dcoffer/ERC721A/test.sol\":5221:5326  interfaceId == type(IERC721).interfaceId ||... */\n    tag_116:\n        /* \"Dcoffer/ERC721A/test.sol\":5221:5379  interfaceId == type(IERC721).interfaceId ||... */\n      dup1\n      tag_117\n      jumpi\n      pop\n        /* \"Dcoffer/ERC721A/test.sol\":5343:5379  super.supportsInterface(interfaceId) */\n      tag_118\n        /* \"Dcoffer/ERC721A/test.sol\":5367:5378  interfaceId */\n      dup3\n        /* \"Dcoffer/ERC721A/test.sol\":5343:5366  super.supportsInterface */\n      tag_119\n        /* \"Dcoffer/ERC721A/test.sol\":5343:5379  super.supportsInterface(interfaceId) */\n      jump\t// in\n    tag_118:\n        /* \"Dcoffer/ERC721A/test.sol\":5221:5379  interfaceId == type(IERC721).interfaceId ||... */\n    tag_117:\n        /* \"Dcoffer/ERC721A/test.sol\":5201:5379  return... */\n      swap1\n      pop\n        /* \"Dcoffer/ERC721A/test.sol\":5082:5387  function supportsInterface(bytes4 interfaceId) public view virtual override(ERC165, IERC165) returns (bool) {... */\n      swap2\n      swap1\n      pop\n      jump\t// out\n        /* \"Dcoffer/ERC721A/test.sol\":8198:8298  function name() public view virtual override returns (string memory) {... */\n    tag_35:\n        /* \"Dcoffer/ERC721A/test.sol\":8252:8265  string memory */\n      0x60\n        /* \"Dcoffer/ERC721A/test.sol\":8285:8290  _name */\n      0x07\n        /* \"Dcoffer/ERC721A/test.sol\":8278:8290  return _name */\n      dup1\n      sload\n      tag_121\n      swap1\n      tag_122\n      jump\t// in\n    tag_121:\n      dup1\n      0x1f\n      add\n      0x20\n      dup1\n      swap2\n      div\n      mul\n      0x20\n      add\n      mload(0x40)\n      swap1\n      dup2\n      add\n      0x40\n      mstore\n      dup1\n      swap3\n      swap2\n      swap1\n      dup2\n      dup2\n      mstore\n      0x20\n      add\n      dup3\n      dup1\n      sload\n      tag_123\n      swap1\n      tag_122\n      jump\t// in\n    tag_123:\n      dup1\n      iszero\n      tag_124\n      jumpi\n      dup1\n      0x1f\n      lt\n      tag_125\n      jumpi\n      0x0100\n      dup1\n      dup4\n      sload\n      div\n      mul\n      dup4\n      mstore\n      swap2\n      0x20\n      add\n      swap2\n      jump(tag_124)\n    tag_125:\n      dup3\n      add\n      swap2\n      swap1\n      0x00\n      mstore\n      keccak256(0x00, 0x20)\n      swap1\n    tag_126:\n      dup2\n      sload\n      dup2\n      mstore\n      swap1\n      0x01\n      add\n      swap1\n      0x20\n      add\n      dup1\n      dup4\n      gt\n      tag_126\n      jumpi\n      dup3\n      swap1\n      sub\n      0x1f\n      and\n      dup3\n      add\n      swap2\n    tag_124:\n      pop\n      pop\n      pop\n      pop\n      pop\n      swap1\n      pop\n        /* \"Dcoffer/ERC721A/test.sol\":8198:8298  function name() public view virtual override returns (string memory) {... */\n      swap1\n      jump\t// out\n        /* \"Dcoffer/ERC721A/test.sol\":9793:9997  function getApproved(uint256 tokenId) public view override returns (address) {... */\n    tag_41:\n        /* \"Dcoffer/ERC721A/test.sol\":9861:9868  address */\n      0x00\n        /* \"Dcoffer/ERC721A/test.sol\":9886:9902  _exists(tokenId) */\n      tag_128\n        /* \"Dcoffer/ERC721A/test.sol\":9894:9901  tokenId */\n      dup3\n        /* \"Dcoffer/ERC721A/test.sol\":9886:9893  _exists */\n      tag_129\n        /* \"Dcoffer/ERC721A/test.sol\":9886:9902  _exists(tokenId) */\n      jump\t// in\n    tag_128:\n        /* \"Dcoffer/ERC721A/test.sol\":9881:9945  if (!_exists(tokenId)) revert ApprovalQueryForNonexistentToken() */\n      tag_130\n      jumpi\n        /* \"Dcoffer/ERC721A/test.sol\":9911:9945  ApprovalQueryForNonexistentToken() */\n      mload(0x40)\n      0xcf4700e400000000000000000000000000000000000000000000000000000000\n      dup2\n      mstore\n      0x04\n      add\n      mload(0x40)\n      dup1\n      swap2\n      sub\n      swap1\n      revert\n        /* \"Dcoffer/ERC721A/test.sol\":9881:9945  if (!_exists(tokenId)) revert ApprovalQueryForNonexistentToken() */\n    tag_130:\n        /* \"Dcoffer/ERC721A/test.sol\":9965:9980  _tokenApprovals */\n      0x0b\n        /* \"Dcoffer/ERC721A/test.sol\":9965:9989  _tokenApprovals[tokenId] */\n      0x00\n        /* \"Dcoffer/ERC721A/test.sol\":9981:9988  tokenId */\n      dup4\n        /* \"Dcoffer/ERC721A/test.sol\":9965:9989  _tokenApprovals[tokenId] */\n      dup2\n      mstore\n      0x20\n      add\n      swap1\n      dup2\n      mstore\n      0x20\n      add\n      0x00\n      keccak256\n      0x00\n      swap1\n      sload\n      swap1\n      0x0100\n      exp\n      swap1\n      div\n      0xffffffffffffffffffffffffffffffffffffffff\n      and\n        /* \"Dcoffer/ERC721A/test.sol\":9958:9989  return _tokenApprovals[tokenId] */\n      swap1\n      pop\n        /* \"Dcoffer/ERC721A/test.sol\":9793:9997  function getApproved(uint256 tokenId) public view override returns (address) {... */\n      swap2\n      swap1\n      pop\n      jump\t// out\n        /* \"Dcoffer/ERC721A/test.sol\":9355:9727  function approve(address to, uint256 tokenId) public override {... */\n    tag_47:\n        /* \"Dcoffer/ERC721A/test.sol\":9428:9441  address owner */\n      0x00\n        /* \"Dcoffer/ERC721A/test.sol\":9444:9468  ERC721A.ownerOf(tokenId) */\n      tag_132\n        /* \"Dcoffer/ERC721A/test.sol\":9460:9467  tokenId */\n      dup3\n        /* \"Dcoffer/ERC721A/test.sol\":9444:9459  ERC721A.ownerOf */\n      tag_71\n        /* \"Dcoffer/ERC721A/test.sol\":9444:9468  ERC721A.ownerOf(tokenId) */\n      jump\t// in\n    tag_132:\n        /* \"Dcoffer/ERC721A/test.sol\":9428:9468  address owner = ERC721A.ownerOf(tokenId) */\n      swap1\n      pop\n        /* \"Dcoffer/ERC721A/test.sol\":9489:9494  owner */\n      dup1\n        /* \"Dcoffer/ERC721A/test.sol\":9483:9494  to == owner */\n      0xffffffffffffffffffffffffffffffffffffffff\n      and\n        /* \"Dcoffer/ERC721A/test.sol\":9483:9485  to */\n      dup4\n        /* \"Dcoffer/ERC721A/test.sol\":9483:9494  to == owner */\n      0xffffffffffffffffffffffffffffffffffffffff\n      and\n      sub\n        /* \"Dcoffer/ERC721A/test.sol\":9479:9527  if (to == owner) revert ApprovalToCurrentOwner() */\n      tag_133\n      jumpi\n        /* \"Dcoffer/ERC721A/test.sol\":9503:9527  ApprovalToCurrentOwner() */\n      mload(0x40)\n      0x943f7b8c00000000000000000000000000000000000000000000000000000000\n      dup2\n      mstore\n      0x04\n      add\n      mload(0x40)\n      dup1\n      swap2\n      sub\n      swap1\n      revert\n        /* \"Dcoffer/ERC721A/test.sol\":9479:9527  if (to == owner) revert ApprovalToCurrentOwner() */\n    tag_133:\n        /* \"Dcoffer/ERC721A/test.sol\":9560:9565  owner */\n      dup1\n        /* \"Dcoffer/ERC721A/test.sol\":9544:9565  _msgSender() != owner */\n      0xffffffffffffffffffffffffffffffffffffffff\n      and\n        /* \"Dcoffer/ERC721A/test.sol\":9544:9556  _msgSender() */\n      tag_134\n        /* \"Dcoffer/ERC721A/test.sol\":9544:9554  _msgSender */\n      tag_135\n        /* \"Dcoffer/ERC721A/test.sol\":9544:9556  _msgSender() */\n      jump\t// in\n    tag_134:\n        /* \"Dcoffer/ERC721A/test.sol\":9544:9565  _msgSender() != owner */\n      0xffffffffffffffffffffffffffffffffffffffff\n      and\n      eq\n        /* \"Dcoffer/ERC721A/test.sol\":9540:9679  if (_msgSender() != owner) if(!isApprovedForAll(owner, _msgSender())) {... */\n      tag_136\n      jumpi\n        /* \"Dcoffer/ERC721A/test.sol\":9571:9608  isApprovedForAll(owner, _msgSender()) */\n      tag_137\n        /* \"Dcoffer/ERC721A/test.sol\":9588:9593  owner */\n      dup2\n        /* \"Dcoffer/ERC721A/test.sol\":9595:9607  _msgSender() */\n      tag_138\n        /* \"Dcoffer/ERC721A/test.sol\":9595:9605  _msgSender */\n      tag_135\n        /* \"Dcoffer/ERC721A/test.sol\":9595:9607  _msgSender() */\n      jump\t// in\n    tag_138:\n        /* \"Dcoffer/ERC721A/test.sol\":9571:9587  isApprovedForAll */\n      tag_109\n        /* \"Dcoffer/ERC721A/test.sol\":9571:9608  isApprovedForAll(owner, _msgSender()) */\n      jump\t// in\n    tag_137:\n        /* \"Dcoffer/ERC721A/test.sol\":9567:9679  if(!isApprovedForAll(owner, _msgSender())) {... */\n      tag_139\n      jumpi\n        /* \"Dcoffer/ERC721A/test.sol\":9632:9667  ApprovalCallerNotOwnerNorApproved() */\n      mload(0x40)\n      0xcfb3b94200000000000000000000000000000000000000000000000000000000\n      dup2\n      mstore\n      0x04\n      add\n      mload(0x40)\n      dup1\n      swap2\n      sub\n      swap1\n      revert\n        /* \"Dcoffer/ERC721A/test.sol\":9567:9679  if(!isApprovedForAll(owner, _msgSender())) {... */\n    tag_139:\n        /* \"Dcoffer/ERC721A/test.sol\":9540:9679  if (_msgSender() != owner) if(!isApprovedForAll(owner, _msgSender())) {... */\n    tag_136:\n        /* \"Dcoffer/ERC721A/test.sol\":9691:9719  _approve(to, tokenId, owner) */\n      tag_140\n        /* \"Dcoffer/ERC721A/test.sol\":9700:9702  to */\n      dup4\n        /* \"Dcoffer/ERC721A/test.sol\":9704:9711  tokenId */\n      dup4\n        /* \"Dcoffer/ERC721A/test.sol\":9713:9718  owner */\n      dup4\n        /* \"Dcoffer/ERC721A/test.sol\":9691:9699  _approve */\n      tag_141\n        /* \"Dcoffer/ERC721A/test.sol\":9691:9719  _approve(to, tokenId, owner) */\n      jump\t// in\n    tag_140:\n        /* \"Dcoffer/ERC721A/test.sol\":9417:9727  {... */\n      pop\n        /* \"Dcoffer/ERC721A/test.sol\":9355:9727  function approve(address to, uint256 tokenId) public override {... */\n      pop\n      pop\n      jump\t// out\n        /* \"Dcoffer/ERC721A/test.sol\":4148:4460  function totalSupply() public view override returns (uint256) {... */\n    tag_49:\n        /* \"Dcoffer/ERC721A/test.sol\":4201:4208  uint256 */\n      0x00\n        /* \"Dcoffer/ERC721A/test.sol\":4426:4441  _startTokenId() */\n      tag_143\n        /* \"Dcoffer/ERC721A/test.sol\":4426:4439  _startTokenId */\n      tag_144\n        /* \"Dcoffer/ERC721A/test.sol\":4426:4441  _startTokenId() */\n      jump\t// in\n    tag_143:\n        /* \"Dcoffer/ERC721A/test.sol\":4411:4423  _burnCounter */\n      sload(0x06)\n        /* \"Dcoffer/ERC721A/test.sol\":4395:4408  _currentIndex */\n      sload(0x04)\n        /* \"Dcoffer/ERC721A/test.sol\":4395:4423  _currentIndex - _burnCounter */\n      sub\n        /* \"Dcoffer/ERC721A/test.sol\":4395:4441  _currentIndex - _burnCounter - _startTokenId() */\n      sub\n        /* \"Dcoffer/ERC721A/test.sol\":4388:4441  return _currentIndex - _burnCounter - _startTokenId() */\n      swap1\n      pop\n        /* \"Dcoffer/ERC721A/test.sol\":4148:4460  function totalSupply() public view override returns (uint256) {... */\n      swap1\n      jump\t// out\n        /* \"Dcoffer/ERC721A/test.sol\":10658:10828  function transferFrom(... */\n    tag_55:\n        /* \"Dcoffer/ERC721A/test.sol\":10792:10820  _transfer(from, to, tokenId) */\n      tag_146\n        /* \"Dcoffer/ERC721A/test.sol\":10802:10806  from */\n      dup4\n        /* \"Dcoffer/ERC721A/test.sol\":10808:10810  to */\n      dup4\n        /* \"Dcoffer/ERC721A/test.sol\":10812:10819  tokenId */\n      dup4\n        /* \"Dcoffer/ERC721A/test.sol\":10792:10801  _transfer */\n      tag_147\n        /* \"Dcoffer/ERC721A/test.sol\":10792:10820  _transfer(from, to, tokenId) */\n      jump\t// in\n    tag_146:\n        /* \"Dcoffer/ERC721A/test.sol\":10658:10828  function transferFrom(... */\n      pop\n      pop\n      pop\n      jump\t// out\n        /* \"Dcoffer/ERC721A/test.sol\":1174:1201  uint256 public _DCFperBlock */\n    tag_57:\n      sload(0x01)\n      dup2\n      jump\t// out\n        /* \"Dcoffer/ERC721A/test.sol\":10899:11084  function safeTransferFrom(... */\n    tag_61:\n        /* \"Dcoffer/ERC721A/test.sol\":11037:11076  safeTransferFrom(from, to, tokenId, '') */\n      tag_149\n        /* \"Dcoffer/ERC721A/test.sol\":11054:11058  from */\n      dup4\n        /* \"Dcoffer/ERC721A/test.sol\":11060:11062  to */\n      dup4\n        /* \"Dcoffer/ERC721A/test.sol\":11064:11071  tokenId */\n      dup4\n        /* \"Dcoffer/ERC721A/test.sol\":11037:11076  safeTransferFrom(from, to, tokenId, '') */\n      mload(0x40)\n      dup1\n      0x20\n      add\n      0x40\n      mstore\n      dup1\n      0x00\n      dup2\n      mstore\n      pop\n        /* \"Dcoffer/ERC721A/test.sol\":11037:11053  safeTransferFrom */\n      tag_94\n        /* \"Dcoffer/ERC721A/test.sol\":11037:11076  safeTransferFrom(from, to, tokenId, '') */\n      jump\t// in\n    tag_149:\n        /* \"Dcoffer/ERC721A/test.sol\":10899:11084  function safeTransferFrom(... */\n      pop\n      pop\n      pop\n      jump\t// out\n        /* \"Dcoffer/ERC721A/test.sol\":3267:3517  function blockStatus (uint256 _BlockNumber)public view returns (uint256){... */\n    tag_64:\n        /* \"Dcoffer/ERC721A/test.sol\":3331:3338  uint256 */\n      0x00\n        /* \"Dcoffer/ERC721A/test.sol\":3350:3359  uint256 a */\n      dup1\n        /* \"Dcoffer/ERC721A/test.sol\":3362:3384  _DCFperBlock.mul(1e18) */\n      tag_151\n        /* \"Dcoffer/ERC721A/test.sol\":3379:3383  1e18 */\n      0x0de0b6b3a7640000\n        /* \"Dcoffer/ERC721A/test.sol\":3362:3374  _DCFperBlock */\n      sload(0x01)\n        /* \"Dcoffer/ERC721A/test.sol\":3362:3378  _DCFperBlock.mul */\n      tag_152\n      swap1\n        /* \"Dcoffer/ERC721A/test.sol\":3362:3384  _DCFperBlock.mul(1e18) */\n      swap2\n      swap1\n      0xffffffff\n      and\n      jump\t// in\n    tag_151:\n        /* \"Dcoffer/ERC721A/test.sol\":3350:3384  uint256 a = _DCFperBlock.mul(1e18) */\n      swap1\n      pop\n        /* \"Dcoffer/ERC721A/test.sol\":3398:3407  uint256 b */\n      0x00\n        /* \"Dcoffer/ERC721A/test.sol\":3410:3455  _BlockNumber.mul(1e18).div(_startBlockNumber) */\n      tag_153\n        /* \"Dcoffer/ERC721A/test.sol\":3437:3454  _startBlockNumber */\n      sload(0x02)\n        /* \"Dcoffer/ERC721A/test.sol\":3410:3432  _BlockNumber.mul(1e18) */\n      tag_154\n        /* \"Dcoffer/ERC721A/test.sol\":3427:3431  1e18 */\n      0x0de0b6b3a7640000\n        /* \"Dcoffer/ERC721A/test.sol\":3410:3422  _BlockNumber */\n      dup8\n        /* \"Dcoffer/ERC721A/test.sol\":3410:3426  _BlockNumber.mul */\n      tag_152\n      swap1\n        /* \"Dcoffer/ERC721A/test.sol\":3410:3432  _BlockNumber.mul(1e18) */\n      swap2\n      swap1\n      0xffffffff\n      and\n      jump\t// in\n    tag_154:\n        /* \"Dcoffer/ERC721A/test.sol\":3410:3436  _BlockNumber.mul(1e18).div */\n      tag_155\n      swap1\n        /* \"Dcoffer/ERC721A/test.sol\":3410:3455  _BlockNumber.mul(1e18).div(_startBlockNumber) */\n      swap2\n      swap1\n      0xffffffff\n      and\n      jump\t// in\n    tag_153:\n        /* \"Dcoffer/ERC721A/test.sol\":3398:3455  uint256 b = _BlockNumber.mul(1e18).div(_startBlockNumber) */\n      swap1\n      pop\n        /* \"Dcoffer/ERC721A/test.sol\":3466:3475  uint256 c */\n      0x00\n        /* \"Dcoffer/ERC721A/test.sol\":3478:3486  a.div(b) */\n      tag_156\n        /* \"Dcoffer/ERC721A/test.sol\":3484:3485  b */\n      dup3\n        /* \"Dcoffer/ERC721A/test.sol\":3478:3479  a */\n      dup5\n        /* \"Dcoffer/ERC721A/test.sol\":3478:3483  a.div */\n      tag_155\n      swap1\n        /* \"Dcoffer/ERC721A/test.sol\":3478:3486  a.div(b) */\n      swap2\n      swap1\n      0xffffffff\n      and\n      jump\t// in\n    tag_156:\n        /* \"Dcoffer/ERC721A/test.sol\":3466:3486  uint256 c = a.div(b) */\n      swap1\n      pop\n        /* \"Dcoffer/ERC721A/test.sol\":3504:3505  c */\n      dup1\n        /* \"Dcoffer/ERC721A/test.sol\":3497:3505  return c */\n      swap4\n      pop\n      pop\n      pop\n      pop\n        /* \"Dcoffer/ERC721A/test.sol\":3267:3517  function blockStatus (uint256 _BlockNumber)public view returns (uint256){... */\n      swap2\n      swap1\n      pop\n      jump\t// out\n        /* \"Dcoffer/ERC721A/test.sol\":1251:1277  uint256 public _totalPower */\n    tag_67:\n      sload(0x03)\n      dup2\n      jump\t// out\n        /* \"Dcoffer/ERC721A/test.sol\":8006:8131  function ownerOf(uint256 tokenId) public view override returns (address) {... */\n    tag_71:\n        /* \"Dcoffer/ERC721A/test.sol\":8070:8077  address */\n      0x00\n        /* \"Dcoffer/ERC721A/test.sol\":8097:8118  _ownershipOf(tokenId) */\n      tag_158\n        /* \"Dcoffer/ERC721A/test.sol\":8110:8117  tokenId */\n      dup3\n        /* \"Dcoffer/ERC721A/test.sol\":8097:8109  _ownershipOf */\n      tag_159\n        /* \"Dcoffer/ERC721A/test.sol\":8097:8118  _ownershipOf(tokenId) */\n      jump\t// in\n    tag_158:\n        /* \"Dcoffer/ERC721A/test.sol\":8097:8123  _ownershipOf(tokenId).addr */\n      0x00\n      add\n      mload\n        /* \"Dcoffer/ERC721A/test.sol\":8090:8123  return _ownershipOf(tokenId).addr */\n      swap1\n      pop\n        /* \"Dcoffer/ERC721A/test.sol\":8006:8131  function ownerOf(uint256 tokenId) public view override returns (address) {... */\n      swap2\n      swap1\n      pop\n      jump\t// out\n        /* \"Dcoffer/ERC721A/test.sol\":5451:5657  function balanceOf(address owner) public view override returns (uint256) {... */\n    tag_76:\n        /* \"Dcoffer/ERC721A/test.sol\":5515:5522  uint256 */\n      0x00\n        /* \"Dcoffer/ERC721A/test.sol\":5556:5557  0 */\n      dup1\n        /* \"Dcoffer/ERC721A/test.sol\":5539:5558  owner == address(0) */\n      0xffffffffffffffffffffffffffffffffffffffff\n      and\n        /* \"Dcoffer/ERC721A/test.sol\":5539:5544  owner */\n      dup3\n        /* \"Dcoffer/ERC721A/test.sol\":5539:5558  owner == address(0) */\n      0xffffffffffffffffffffffffffffffffffffffff\n      and\n      sub\n        /* \"Dcoffer/ERC721A/test.sol\":5535:5595  if (owner == address(0)) revert BalanceQueryForZeroAddress() */\n      tag_161\n      jumpi\n        /* \"Dcoffer/ERC721A/test.sol\":5567:5595  BalanceQueryForZeroAddress() */\n      mload(0x40)\n      0x8f4eb60400000000000000000000000000000000000000000000000000000000\n      dup2\n      mstore\n      0x04\n      add\n      mload(0x40)\n      dup1\n      swap2\n      sub\n      swap1\n      revert\n        /* \"Dcoffer/ERC721A/test.sol\":5535:5595  if (owner == address(0)) revert BalanceQueryForZeroAddress() */\n    tag_161:\n        /* \"Dcoffer/ERC721A/test.sol\":5621:5633  _addressData */\n      0x0a\n        /* \"Dcoffer/ERC721A/test.sol\":5621:5640  _addressData[owner] */\n      0x00\n        /* \"Dcoffer/ERC721A/test.sol\":5634:5639  owner */\n      dup4\n        /* \"Dcoffer/ERC721A/test.sol\":5621:5640  _addressData[owner] */\n      0xffffffffffffffffffffffffffffffffffffffff\n      and\n      0xffffffffffffffffffffffffffffffffffffffff\n      and\n      dup2\n      mstore\n      0x20\n      add\n      swap1\n      dup2\n      mstore\n      0x20\n      add\n      0x00\n      keccak256\n        /* \"Dcoffer/ERC721A/test.sol\":5621:5648  _addressData[owner].balance */\n      0x00\n      add\n      0x00\n      swap1\n      sload\n      swap1\n      0x0100\n      exp\n      swap1\n      div\n      0xffffffffffffffff\n      and\n        /* \"Dcoffer/ERC721A/test.sol\":5613:5649  uint256(_addressData[owner].balance) */\n      0xffffffffffffffff\n      and\n        /* \"Dcoffer/ERC721A/test.sol\":5606:5649  return uint256(_addressData[owner].balance) */\n      swap1\n      pop\n        /* \"Dcoffer/ERC721A/test.sol\":5451:5657  function balanceOf(address owner) public view override returns (uint256) {... */\n      swap2\n      swap1\n      pop\n      jump\t// out\n        /* \"Dcoffer/ERC721A/test.sol\":1210:1242  uint256 public _startBlockNumber */\n    tag_79:\n      sload(0x02)\n      dup2\n      jump\t// out\n        /* \"Dcoffer/ERC721A/test.sol\":8367:8471  function symbol() public view virtual override returns (string memory) {... */\n    tag_82:\n        /* \"Dcoffer/ERC721A/test.sol\":8423:8436  string memory */\n      0x60\n        /* \"Dcoffer/ERC721A/test.sol\":8456:8463  _symbol */\n      0x08\n        /* \"Dcoffer/ERC721A/test.sol\":8449:8463  return _symbol */\n      dup1\n      sload\n      tag_163\n      swap1\n      tag_122\n      jump\t// in\n    tag_163:\n      dup1\n      0x1f\n      add\n      0x20\n      dup1\n      swap2\n      div\n      mul\n      0x20\n      add\n      mload(0x40)\n      swap1\n      dup2\n      add\n      0x40\n      mstore\n      dup1\n      swap3\n      swap2\n      swap1\n      dup2\n      dup2\n      mstore\n      0x20\n      add\n      dup3\n      dup1\n      sload\n      tag_164\n      swap1\n      tag_122\n      jump\t// in\n    tag_164:\n      dup1\n      iszero\n      tag_165\n      jumpi\n      dup1\n      0x1f\n      lt\n      tag_166\n      jumpi\n      0x0100\n      dup1\n      dup4\n      sload\n      div\n      mul\n      dup4\n      mstore\n      swap2\n      0x20\n      add\n      swap2\n      jump(tag_165)\n    tag_166:\n      dup3\n      add\n      swap2\n      swap1\n      0x00\n      mstore\n      keccak256(0x00, 0x20)\n      swap1\n    tag_167:\n      dup2\n      sload\n      dup2\n      mstore\n      swap1\n      0x01\n      add\n      swap1\n      0x20\n      add\n      dup1\n      dup4\n      gt\n      tag_167\n      jumpi\n      dup3\n      swap1\n      sub\n      0x1f\n      and\n      dup3\n      add\n      swap2\n    tag_165:\n      pop\n      pop\n      pop\n      pop\n      pop\n      swap1\n      pop\n        /* \"Dcoffer/ERC721A/test.sol\":8367:8471  function symbol() public view virtual override returns (string memory) {... */\n      swap1\n      jump\t// out\n        /* \"Dcoffer/ERC721A/test.sol\":1145:1165  uint256 public _salt */\n    tag_85:\n      sload(0x00)\n      dup2\n      jump\t// out\n        /* \"Dcoffer/ERC721A/test.sol\":10069:10356  function setApprovalForAll(address operator, bool approved) public virtual override {... */\n    tag_90:\n        /* \"Dcoffer/ERC721A/test.sol\":10180:10192  _msgSender() */\n      tag_169\n        /* \"Dcoffer/ERC721A/test.sol\":10180:10190  _msgSender */\n      tag_135\n        /* \"Dcoffer/ERC721A/test.sol\":10180:10192  _msgSender() */\n      jump\t// in\n    tag_169:\n        /* \"Dcoffer/ERC721A/test.sol\":10168:10192  operator == _msgSender() */\n      0xffffffffffffffffffffffffffffffffffffffff\n      and\n        /* \"Dcoffer/ERC721A/test.sol\":10168:10176  operator */\n      dup3\n        /* \"Dcoffer/ERC721A/test.sol\":10168:10192  operator == _msgSender() */\n      0xffffffffffffffffffffffffffffffffffffffff\n      and\n      sub\n        /* \"Dcoffer/ERC721A/test.sol\":10164:10218  if (operator == _msgSender()) revert ApproveToCaller() */\n      tag_170\n      jumpi\n        /* \"Dcoffer/ERC721A/test.sol\":10201:10218  ApproveToCaller() */\n      mload(0x40)\n      0xb06307db00000000000000000000000000000000000000000000000000000000\n      dup2\n      mstore\n      0x04\n      add\n      mload(0x40)\n      dup1\n      swap2\n      sub\n      swap1\n      revert\n        /* \"Dcoffer/ERC721A/test.sol\":10164:10218  if (operator == _msgSender()) revert ApproveToCaller() */\n    tag_170:\n        /* \"Dcoffer/ERC721A/test.sol\":10276:10284  approved */\n      dup1\n        /* \"Dcoffer/ERC721A/test.sol\":10231:10249  _operatorApprovals */\n      0x0c\n        /* \"Dcoffer/ERC721A/test.sol\":10231:10263  _operatorApprovals[_msgSender()] */\n      0x00\n        /* \"Dcoffer/ERC721A/test.sol\":10250:10262  _msgSender() */\n      tag_171\n        /* \"Dcoffer/ERC721A/test.sol\":10250:10260  _msgSender */\n      tag_135\n        /* \"Dcoffer/ERC721A/test.sol\":10250:10262  _msgSender() */\n      jump\t// in\n    tag_171:\n        /* \"Dcoffer/ERC721A/test.sol\":10231:10263  _operatorApprovals[_msgSender()] */\n      0xffffffffffffffffffffffffffffffffffffffff\n      and\n      0xffffffffffffffffffffffffffffffffffffffff\n      and\n      dup2\n      mstore\n      0x20\n      add\n      swap1\n      dup2\n      mstore\n      0x20\n      add\n      0x00\n      keccak256\n        /* \"Dcoffer/ERC721A/test.sol\":10231:10273  _operatorApprovals[_msgSender()][operator] */\n      0x00\n        /* \"Dcoffer/ERC721A/test.sol\":10264:10272  operator */\n      dup5\n        /* \"Dcoffer/ERC721A/test.sol\":10231:10273  _operatorApprovals[_msgSender()][operator] */\n      0xffffffffffffffffffffffffffffffffffffffff\n      and\n      0xffffffffffffffffffffffffffffffffffffffff\n      and\n      dup2\n      mstore\n      0x20\n      add\n      swap1\n      dup2\n      mstore\n      0x20\n      add\n      0x00\n      keccak256\n      0x00\n        /* \"Dcoffer/ERC721A/test.sol\":10231:10284  _operatorApprovals[_msgSender()][operator] = approved */\n      0x0100\n      exp\n      dup2\n      sload\n      dup2\n      0xff\n      mul\n      not\n      and\n      swap1\n      dup4\n      iszero\n      iszero\n      mul\n      or\n      swap1\n      sstore\n      pop\n        /* \"Dcoffer/ERC721A/test.sol\":10329:10337  operator */\n      dup2\n        /* \"Dcoffer/ERC721A/test.sol\":10300:10348  ApprovalForAll(_msgSender(), operator, approved) */\n      0xffffffffffffffffffffffffffffffffffffffff\n      and\n        /* \"Dcoffer/ERC721A/test.sol\":10315:10327  _msgSender() */\n      tag_172\n        /* \"Dcoffer/ERC721A/test.sol\":10315:10325  _msgSender */\n      tag_135\n        /* \"Dcoffer/ERC721A/test.sol\":10315:10327  _msgSender() */\n      jump\t// in\n    tag_172:\n        /* \"Dcoffer/ERC721A/test.sol\":10300:10348  ApprovalForAll(_msgSender(), operator, approved) */\n      0xffffffffffffffffffffffffffffffffffffffff\n      and\n      0x17307eab39ab6107e8899845ad3d59bd9653f200f220920489ca2b5937696c31\n        /* \"Dcoffer/ERC721A/test.sol\":10339:10347  approved */\n      dup4\n        /* \"Dcoffer/ERC721A/test.sol\":10300:10348  ApprovalForAll(_msgSender(), operator, approved) */\n      mload(0x40)\n      tag_173\n      swap2\n      swap1\n      tag_33\n      jump\t// in\n    tag_173:\n      mload(0x40)\n      dup1\n      swap2\n      sub\n      swap1\n      log3\n        /* \"Dcoffer/ERC721A/test.sol\":10069:10356  function setApprovalForAll(address operator, bool approved) public virtual override {... */\n      pop\n      pop\n      jump\t// out\n        /* \"Dcoffer/ERC721A/test.sol\":11155:11525  function safeTransferFrom(... */\n    tag_94:\n        /* \"Dcoffer/ERC721A/test.sol\":11322:11350  _transfer(from, to, tokenId) */\n      tag_175\n        /* \"Dcoffer/ERC721A/test.sol\":11332:11336  from */\n      dup5\n        /* \"Dcoffer/ERC721A/test.sol\":11338:11340  to */\n      dup5\n        /* \"Dcoffer/ERC721A/test.sol\":11342:11349  tokenId */\n      dup5\n        /* \"Dcoffer/ERC721A/test.sol\":11322:11331  _transfer */\n      tag_147\n        /* \"Dcoffer/ERC721A/test.sol\":11322:11350  _transfer(from, to, tokenId) */\n      jump\t// in\n    tag_175:\n        /* \"Dcoffer/ERC721A/test.sol\":11365:11380  to.isContract() */\n      tag_176\n        /* \"Dcoffer/ERC721A/test.sol\":11365:11367  to */\n      dup4\n        /* \"Dcoffer/ERC721A/test.sol\":11365:11378  to.isContract */\n      0xffffffffffffffffffffffffffffffffffffffff\n      and\n      tag_177\n        /* \"Dcoffer/ERC721A/test.sol\":11365:11380  to.isContract() */\n      jump\t// in\n    tag_176:\n        /* \"Dcoffer/ERC721A/test.sol\":11361:11518  if (to.isContract()) if(!_checkContractOnERC721Received(from, to, tokenId, _data)) {... */\n      iszero\n      tag_178\n      jumpi\n        /* \"Dcoffer/ERC721A/test.sol\":11386:11442  _checkContractOnERC721Received(from, to, tokenId, _data) */\n      tag_179\n        /* \"Dcoffer/ERC721A/test.sol\":11417:11421  from */\n      dup5\n        /* \"Dcoffer/ERC721A/test.sol\":11423:11425  to */\n      dup5\n        /* \"Dcoffer/ERC721A/test.sol\":11427:11434  tokenId */\n      dup5\n        /* \"Dcoffer/ERC721A/test.sol\":11436:11441  _data */\n      dup5\n        /* \"Dcoffer/ERC721A/test.sol\":11386:11416  _checkContractOnERC721Received */\n      tag_180\n        /* \"Dcoffer/ERC721A/test.sol\":11386:11442  _checkContractOnERC721Received(from, to, tokenId, _data) */\n      jump\t// in\n    tag_179:\n        /* \"Dcoffer/ERC721A/test.sol\":11382:11518  if(!_checkContractOnERC721Received(from, to, tokenId, _data)) {... */\n      tag_181\n      jumpi\n        /* \"Dcoffer/ERC721A/test.sol\":11466:11506  TransferToNonERC721ReceiverImplementer() */\n      mload(0x40)\n      0xd1a57ed600000000000000000000000000000000000000000000000000000000\n      dup2\n      mstore\n      0x04\n      add\n      mload(0x40)\n      dup1\n      swap2\n      sub\n      swap1\n      revert\n        /* \"Dcoffer/ERC721A/test.sol\":11382:11518  if(!_checkContractOnERC721Received(from, to, tokenId, _data)) {... */\n    tag_181:\n        /* \"Dcoffer/ERC721A/test.sol\":11361:11518  if (to.isContract()) if(!_checkContractOnERC721Received(from, to, tokenId, _data)) {... */\n    tag_178:\n        /* \"Dcoffer/ERC721A/test.sol\":11155:11525  function safeTransferFrom(... */\n      pop\n      pop\n      pop\n      pop\n      jump\t// out\n        /* \"Dcoffer/ERC721A/test.sol\":2750:3194  function MineStatus(address user)public view returns(uint256){... */\n    tag_97:\n        /* \"Dcoffer/ERC721A/test.sol\":2803:2810  uint256 */\n      0x00\n        /* \"Dcoffer/ERC721A/test.sol\":2822:2840  uint256 difference */\n      dup1\n        /* \"Dcoffer/ERC721A/test.sol\":2843:2886  block.number.sub(_mineInfo[user][1]).add(1) */\n      tag_183\n        /* \"Dcoffer/ERC721A/test.sol\":2884:2885  1 */\n      0x01\n        /* \"Dcoffer/ERC721A/test.sol\":2843:2879  block.number.sub(_mineInfo[user][1]) */\n      tag_184\n        /* \"Dcoffer/ERC721A/test.sol\":2860:2869  _mineInfo */\n      0x0d\n        /* \"Dcoffer/ERC721A/test.sol\":2860:2875  _mineInfo[user] */\n      0x00\n        /* \"Dcoffer/ERC721A/test.sol\":2870:2874  user */\n      dup8\n        /* \"Dcoffer/ERC721A/test.sol\":2860:2875  _mineInfo[user] */\n      0xffffffffffffffffffffffffffffffffffffffff\n      and\n      0xffffffffffffffffffffffffffffffffffffffff\n      and\n      dup2\n      mstore\n      0x20\n      add\n      swap1\n      dup2\n      mstore\n      0x20\n      add\n      0x00\n      keccak256\n        /* \"Dcoffer/ERC721A/test.sol\":2860:2878  _mineInfo[user][1] */\n      0x00\n        /* \"Dcoffer/ERC721A/test.sol\":2876:2877  1 */\n      0x01\n        /* \"Dcoffer/ERC721A/test.sol\":2860:2878  _mineInfo[user][1] */\n      dup2\n      mstore\n      0x20\n      add\n      swap1\n      dup2\n      mstore\n      0x20\n      add\n      0x00\n      keccak256\n      sload\n        /* \"Dcoffer/ERC721A/test.sol\":2843:2855  block.number */\n      number\n        /* \"Dcoffer/ERC721A/test.sol\":2843:2859  block.number.sub */\n      tag_185\n      swap1\n        /* \"Dcoffer/ERC721A/test.sol\":2843:2879  block.number.sub(_mineInfo[user][1]) */\n      swap2\n      swap1\n      0xffffffff\n      and\n      jump\t// in\n    tag_184:\n        /* \"Dcoffer/ERC721A/test.sol\":2843:2883  block.number.sub(_mineInfo[user][1]).add */\n      tag_186\n      swap1\n        /* \"Dcoffer/ERC721A/test.sol\":2843:2886  block.number.sub(_mineInfo[user][1]).add(1) */\n      swap2\n      swap1\n      0xffffffff\n      and\n      jump\t// in\n    tag_183:\n        /* \"Dcoffer/ERC721A/test.sol\":2822:2886  uint256 difference = block.number.sub(_mineInfo[user][1]).add(1) */\n      swap1\n      pop\n        /* \"Dcoffer/ERC721A/test.sol\":2897:2910  uint256 start */\n      0x00\n        /* \"Dcoffer/ERC721A/test.sol\":2913:2944  blockStatus(_mineInfo[user][1]) */\n      tag_187\n        /* \"Dcoffer/ERC721A/test.sol\":2925:2934  _mineInfo */\n      0x0d\n        /* \"Dcoffer/ERC721A/test.sol\":2925:2940  _mineInfo[user] */\n      0x00\n        /* \"Dcoffer/ERC721A/test.sol\":2935:2939  user */\n      dup7\n        /* \"Dcoffer/ERC721A/test.sol\":2925:2940  _mineInfo[user] */\n      0xffffffffffffffffffffffffffffffffffffffff\n      and\n      0xffffffffffffffffffffffffffffffffffffffff\n      and\n      dup2\n      mstore\n      0x20\n      add\n      swap1\n      dup2\n      mstore\n      0x20\n      add\n      0x00\n      keccak256\n        /* \"Dcoffer/ERC721A/test.sol\":2925:2943  _mineInfo[user][1] */\n      0x00\n        /* \"Dcoffer/ERC721A/test.sol\":2941:2942  1 */\n      0x01\n        /* \"Dcoffer/ERC721A/test.sol\":2925:2943  _mineInfo[user][1] */\n      dup2\n      mstore\n      0x20\n      add\n      swap1\n      dup2\n      mstore\n      0x20\n      add\n      0x00\n      keccak256\n      sload\n        /* \"Dcoffer/ERC721A/test.sol\":2913:2924  blockStatus */\n      tag_64\n        /* \"Dcoffer/ERC721A/test.sol\":2913:2944  blockStatus(_mineInfo[user][1]) */\n      jump\t// in\n    tag_187:\n        /* \"Dcoffer/ERC721A/test.sol\":2897:2944  uint256 start = blockStatus(_mineInfo[user][1]) */\n      swap1\n      pop\n        /* \"Dcoffer/ERC721A/test.sol\":2955:2966  uint256 end */\n      0x00\n        /* \"Dcoffer/ERC721A/test.sol\":2969:2994  blockStatus(block.number) */\n      tag_188\n        /* \"Dcoffer/ERC721A/test.sol\":2981:2993  block.number */\n      number\n        /* \"Dcoffer/ERC721A/test.sol\":2969:2980  blockStatus */\n      tag_64\n        /* \"Dcoffer/ERC721A/test.sol\":2969:2994  blockStatus(block.number) */\n      jump\t// in\n    tag_188:\n        /* \"Dcoffer/ERC721A/test.sol\":2955:2994  uint256 end = blockStatus(block.number) */\n      swap1\n      pop\n        /* \"Dcoffer/ERC721A/test.sol\":3005:3014  uint256 a */\n      0x00\n        /* \"Dcoffer/ERC721A/test.sol\":3017:3054  start.add(end).mul(difference).div(2) */\n      tag_189\n        /* \"Dcoffer/ERC721A/test.sol\":3052:3053  2 */\n      0x02\n        /* \"Dcoffer/ERC721A/test.sol\":3017:3047  start.add(end).mul(difference) */\n      tag_190\n        /* \"Dcoffer/ERC721A/test.sol\":3036:3046  difference */\n      dup7\n        /* \"Dcoffer/ERC721A/test.sol\":3017:3031  start.add(end) */\n      tag_191\n        /* \"Dcoffer/ERC721A/test.sol\":3027:3030  end */\n      dup7\n        /* \"Dcoffer/ERC721A/test.sol\":3017:3022  start */\n      dup9\n        /* \"Dcoffer/ERC721A/test.sol\":3017:3026  start.add */\n      tag_186\n      swap1\n        /* \"Dcoffer/ERC721A/test.sol\":3017:3031  start.add(end) */\n      swap2\n      swap1\n      0xffffffff\n      and\n      jump\t// in\n    tag_191:\n        /* \"Dcoffer/ERC721A/test.sol\":3017:3035  start.add(end).mul */\n      tag_152\n      swap1\n        /* \"Dcoffer/ERC721A/test.sol\":3017:3047  start.add(end).mul(difference) */\n      swap2\n      swap1\n      0xffffffff\n      and\n      jump\t// in\n    tag_190:\n        /* \"Dcoffer/ERC721A/test.sol\":3017:3051  start.add(end).mul(difference).div */\n      tag_155\n      swap1\n        /* \"Dcoffer/ERC721A/test.sol\":3017:3054  start.add(end).mul(difference).div(2) */\n      swap2\n      swap1\n      0xffffffff\n      and\n      jump\t// in\n    tag_189:\n        /* \"Dcoffer/ERC721A/test.sol\":3005:3054  uint256 a = start.add(end).mul(difference).div(2) */\n      swap1\n      pop\n        /* \"Dcoffer/ERC721A/test.sol\":3067:3082  uint dcf_amount */\n      0x00\n        /* \"Dcoffer/ERC721A/test.sol\":3085:3127  a.mul(_mineInfo[user][2]).div(_totalPower) */\n      tag_192\n        /* \"Dcoffer/ERC721A/test.sol\":3115:3126  _totalPower */\n      sload(0x03)\n        /* \"Dcoffer/ERC721A/test.sol\":3085:3110  a.mul(_mineInfo[user][2]) */\n      tag_193\n        /* \"Dcoffer/ERC721A/test.sol\":3091:3100  _mineInfo */\n      0x0d\n        /* \"Dcoffer/ERC721A/test.sol\":3091:3106  _mineInfo[user] */\n      0x00\n        /* \"Dcoffer/ERC721A/test.sol\":3101:3105  user */\n      dup12\n        /* \"Dcoffer/ERC721A/test.sol\":3091:3106  _mineInfo[user] */\n      0xffffffffffffffffffffffffffffffffffffffff\n      and\n      0xffffffffffffffffffffffffffffffffffffffff\n      and\n      dup2\n      mstore\n      0x20\n      add\n      swap1\n      dup2\n      mstore\n      0x20\n      add\n      0x00\n      keccak256\n        /* \"Dcoffer/ERC721A/test.sol\":3091:3109  _mineInfo[user][2] */\n      0x00\n        /* \"Dcoffer/ERC721A/test.sol\":3107:3108  2 */\n      0x02\n        /* \"Dcoffer/ERC721A/test.sol\":3091:3109  _mineInfo[user][2] */\n      dup2\n      mstore\n      0x20\n      add\n      swap1\n      dup2\n      mstore\n      0x20\n      add\n      0x00\n      keccak256\n      sload\n        /* \"Dcoffer/ERC721A/test.sol\":3085:3086  a */\n      dup6\n        /* \"Dcoffer/ERC721A/test.sol\":3085:3090  a.mul */\n      tag_152\n      swap1\n        /* \"Dcoffer/ERC721A/test.sol\":3085:3110  a.mul(_mineInfo[user][2]) */\n      swap2\n      swap1\n      0xffffffff\n      and\n      jump\t// in\n    tag_193:\n        /* \"Dcoffer/ERC721A/test.sol\":3085:3114  a.mul(_mineInfo[user][2]).div */\n      tag_155\n      swap1\n        /* \"Dcoffer/ERC721A/test.sol\":3085:3127  a.mul(_mineInfo[user][2]).div(_totalPower) */\n      swap2\n      swap1\n      0xffffffff\n      and\n      jump\t// in\n    tag_192:\n        /* \"Dcoffer/ERC721A/test.sol\":3067:3127  uint dcf_amount = a.mul(_mineInfo[user][2]).div(_totalPower) */\n      swap1\n      pop\n        /* \"Dcoffer/ERC721A/test.sol\":3145:3179  _mineInfo[user][3].add(dcf_amount) */\n      tag_194\n        /* \"Dcoffer/ERC721A/test.sol\":3168:3178  dcf_amount */\n      dup2\n        /* \"Dcoffer/ERC721A/test.sol\":3145:3154  _mineInfo */\n      0x0d\n        /* \"Dcoffer/ERC721A/test.sol\":3145:3160  _mineInfo[user] */\n      0x00\n        /* \"Dcoffer/ERC721A/test.sol\":3155:3159  user */\n      dup11\n        /* \"Dcoffer/ERC721A/test.sol\":3145:3160  _mineInfo[user] */\n      0xffffffffffffffffffffffffffffffffffffffff\n      and\n      0xffffffffffffffffffffffffffffffffffffffff\n      and\n      dup2\n      mstore\n      0x20\n      add\n      swap1\n      dup2\n      mstore\n      0x20\n      add\n      0x00\n      keccak256\n        /* \"Dcoffer/ERC721A/test.sol\":3145:3163  _mineInfo[user][3] */\n      0x00\n        /* \"Dcoffer/ERC721A/test.sol\":3161:3162  3 */\n      0x03\n        /* \"Dcoffer/ERC721A/test.sol\":3145:3163  _mineInfo[user][3] */\n      dup2\n      mstore\n      0x20\n      add\n      swap1\n      dup2\n      mstore\n      0x20\n      add\n      0x00\n      keccak256\n      sload\n        /* \"Dcoffer/ERC721A/test.sol\":3145:3167  _mineInfo[user][3].add */\n      tag_186\n      swap1\n        /* \"Dcoffer/ERC721A/test.sol\":3145:3179  _mineInfo[user][3].add(dcf_amount) */\n      swap2\n      swap1\n      0xffffffff\n      and\n      jump\t// in\n    tag_194:\n        /* \"Dcoffer/ERC721A/test.sol\":3138:3179  return _mineInfo[user][3].add(dcf_amount) */\n      swap6\n      pop\n      pop\n      pop\n      pop\n      pop\n      pop\n        /* \"Dcoffer/ERC721A/test.sol\":2750:3194  function MineStatus(address user)public view returns(uint256){... */\n      swap2\n      swap1\n      pop\n      jump\t// out\n        /* \"Dcoffer/ERC721A/test.sol\":8542:8860  function tokenURI(uint256 tokenId) public view virtual override returns (string memory) {... */\n    tag_101:\n        /* \"Dcoffer/ERC721A/test.sol\":8615:8628  string memory */\n      0x60\n        /* \"Dcoffer/ERC721A/test.sol\":8646:8662  _exists(tokenId) */\n      tag_196\n        /* \"Dcoffer/ERC721A/test.sol\":8654:8661  tokenId */\n      dup3\n        /* \"Dcoffer/ERC721A/test.sol\":8646:8653  _exists */\n      tag_129\n        /* \"Dcoffer/ERC721A/test.sol\":8646:8662  _exists(tokenId) */\n      jump\t// in\n    tag_196:\n        /* \"Dcoffer/ERC721A/test.sol\":8641:8700  if (!_exists(tokenId)) revert URIQueryForNonexistentToken() */\n      tag_197\n      jumpi\n        /* \"Dcoffer/ERC721A/test.sol\":8671:8700  URIQueryForNonexistentToken() */\n      mload(0x40)\n      0xa14c4b5000000000000000000000000000000000000000000000000000000000\n      dup2\n      mstore\n      0x04\n      add\n      mload(0x40)\n      dup1\n      swap2\n      sub\n      swap1\n      revert\n        /* \"Dcoffer/ERC721A/test.sol\":8641:8700  if (!_exists(tokenId)) revert URIQueryForNonexistentToken() */\n    tag_197:\n        /* \"Dcoffer/ERC721A/test.sol\":8713:8734  string memory baseURI */\n      0x00\n        /* \"Dcoffer/ERC721A/test.sol\":8737:8747  _baseURI() */\n      tag_198\n        /* \"Dcoffer/ERC721A/test.sol\":8737:8745  _baseURI */\n      tag_199\n        /* \"Dcoffer/ERC721A/test.sol\":8737:8747  _baseURI() */\n      jump\t// in\n    tag_198:\n        /* \"Dcoffer/ERC721A/test.sol\":8713:8747  string memory baseURI = _baseURI() */\n      swap1\n      pop\n        /* \"Dcoffer/ERC721A/test.sol\":8790:8791  0 */\n      0x00\n        /* \"Dcoffer/ERC721A/test.sol\":8771:8778  baseURI */\n      dup2\n        /* \"Dcoffer/ERC721A/test.sol\":8765:8786  bytes(baseURI).length */\n      mload\n        /* \"Dcoffer/ERC721A/test.sol\":8765:8791  bytes(baseURI).length != 0 */\n      sub\n        /* \"Dcoffer/ERC721A/test.sol\":8765:8852  bytes(baseURI).length != 0 ? string(abi.encodePacked(baseURI, tokenId.toString())) : '' */\n      tag_200\n      jumpi\n      mload(0x40)\n      dup1\n      0x20\n      add\n      0x40\n      mstore\n      dup1\n      0x00\n      dup2\n      mstore\n      pop\n      jump(tag_201)\n    tag_200:\n        /* \"Dcoffer/ERC721A/test.sol\":8818:8825  baseURI */\n      dup1\n        /* \"Dcoffer/ERC721A/test.sol\":8827:8845  tokenId.toString() */\n      tag_202\n        /* \"Dcoffer/ERC721A/test.sol\":8827:8834  tokenId */\n      dup5\n        /* \"Dcoffer/ERC721A/test.sol\":8827:8843  tokenId.toString */\n      tag_203\n        /* \"Dcoffer/ERC721A/test.sol\":8827:8845  tokenId.toString() */\n      jump\t// in\n    tag_202:\n        /* \"Dcoffer/ERC721A/test.sol\":8801:8846  abi.encodePacked(baseURI, tokenId.toString()) */\n      add(0x20, mload(0x40))\n      tag_204\n      swap3\n      swap2\n      swap1\n      tag_205\n      jump\t// in\n    tag_204:\n      mload(0x40)\n      0x20\n      dup2\n      dup4\n      sub\n      sub\n      dup2\n      mstore\n      swap1\n      0x40\n      mstore\n        /* \"Dcoffer/ERC721A/test.sol\":8765:8852  bytes(baseURI).length != 0 ? string(abi.encodePacked(baseURI, tokenId.toString())) : '' */\n    tag_201:\n        /* \"Dcoffer/ERC721A/test.sol\":8758:8852  return bytes(baseURI).length != 0 ? string(abi.encodePacked(baseURI, tokenId.toString())) : '' */\n      swap2\n      pop\n      pop\n        /* \"Dcoffer/ERC721A/test.sol\":8542:8860  function tokenURI(uint256 tokenId) public view virtual override returns (string memory) {... */\n      swap2\n      swap1\n      pop\n      jump\t// out\n        /* \"Dcoffer/ERC721A/test.sol\":4470:4634  function maxSupply() public view  returns (uint256) {       ... */\n    tag_104:\n        /* \"Dcoffer/ERC721A/test.sol\":4513:4520  uint256 */\n      0x00\n        /* \"Dcoffer/ERC721A/test.sol\":4600:4615  _startTokenId() */\n      tag_207\n        /* \"Dcoffer/ERC721A/test.sol\":4600:4613  _startTokenId */\n      tag_144\n        /* \"Dcoffer/ERC721A/test.sol\":4600:4615  _startTokenId() */\n      jump\t// in\n    tag_207:\n        /* \"Dcoffer/ERC721A/test.sol\":4585:4597  _burnCounter */\n      sload(0x06)\n        /* \"Dcoffer/ERC721A/test.sol\":4572:4582  _maxSupply */\n      sload(0x05)\n        /* \"Dcoffer/ERC721A/test.sol\":4572:4597  _maxSupply - _burnCounter */\n      sub\n        /* \"Dcoffer/ERC721A/test.sol\":4572:4615  _maxSupply - _burnCounter - _startTokenId() */\n      sub\n        /* \"Dcoffer/ERC721A/test.sol\":4565:4615  return _maxSupply - _burnCounter - _startTokenId() */\n      swap1\n      pop\n        /* \"Dcoffer/ERC721A/test.sol\":4470:4634  function maxSupply() public view  returns (uint256) {       ... */\n      swap1\n      jump\t// out\n        /* \"Dcoffer/ERC721A/test.sol\":10427:10591  function isApprovedForAll(address owner, address operator) public view virtual override returns (bool) {... */\n    tag_109:\n        /* \"Dcoffer/ERC721A/test.sol\":10524:10528  bool */\n      0x00\n        /* \"Dcoffer/ERC721A/test.sol\":10548:10566  _operatorApprovals */\n      0x0c\n        /* \"Dcoffer/ERC721A/test.sol\":10548:10573  _operatorApprovals[owner] */\n      0x00\n        /* \"Dcoffer/ERC721A/test.sol\":10567:10572  owner */\n      dup5\n        /* \"Dcoffer/ERC721A/test.sol\":10548:10573  _operatorApprovals[owner] */\n      0xffffffffffffffffffffffffffffffffffffffff\n      and\n      0xffffffffffffffffffffffffffffffffffffffff\n      and\n      dup2\n      mstore\n      0x20\n      add\n      swap1\n      dup2\n      mstore\n      0x20\n      add\n      0x00\n      keccak256\n        /* \"Dcoffer/ERC721A/test.sol\":10548:10583  _operatorApprovals[owner][operator] */\n      0x00\n        /* \"Dcoffer/ERC721A/test.sol\":10574:10582  operator */\n      dup4\n        /* \"Dcoffer/ERC721A/test.sol\":10548:10583  _operatorApprovals[owner][operator] */\n      0xffffffffffffffffffffffffffffffffffffffff\n      and\n      0xffffffffffffffffffffffffffffffffffffffff\n      and\n      dup2\n      mstore\n      0x20\n      add\n      swap1\n      dup2\n      mstore\n      0x20\n      add\n      0x00\n      keccak256\n      0x00\n      swap1\n      sload\n      swap1\n      0x0100\n      exp\n      swap1\n      div\n      0xff\n      and\n        /* \"Dcoffer/ERC721A/test.sol\":10541:10583  return _operatorApprovals[owner][operator] */\n      swap1\n      pop\n        /* \"Dcoffer/ERC721A/test.sol\":10427:10591  function isApprovedForAll(address owner, address operator) public view virtual override returns (bool) {... */\n      swap3\n      swap2\n      pop\n      pop\n      jump\t// out\n        /* \"Dcoffer/ERC721A/test.sol\":3534:3804  function DcofferPower (uint256 tokenId)public view returns(uint256){... */\n    tag_113:\n        /* \"Dcoffer/ERC721A/test.sol\":3593:3600  uint256 */\n      0x00\n        /* \"Dcoffer/ERC721A/test.sol\":3612:3623  uint _power */\n      dup1\n        /* \"Dcoffer/ERC721A/test.sol\":3626:3657  tokenId.mul(_salt).add(tokenId) */\n      tag_210\n        /* \"Dcoffer/ERC721A/test.sol\":3649:3656  tokenId */\n      dup4\n        /* \"Dcoffer/ERC721A/test.sol\":3626:3644  tokenId.mul(_salt) */\n      tag_211\n        /* \"Dcoffer/ERC721A/test.sol\":3638:3643  _salt */\n      sload(0x00)\n        /* \"Dcoffer/ERC721A/test.sol\":3626:3633  tokenId */\n      dup7\n        /* \"Dcoffer/ERC721A/test.sol\":3626:3637  tokenId.mul */\n      tag_152\n      swap1\n        /* \"Dcoffer/ERC721A/test.sol\":3626:3644  tokenId.mul(_salt) */\n      swap2\n      swap1\n      0xffffffff\n      and\n      jump\t// in\n    tag_211:\n        /* \"Dcoffer/ERC721A/test.sol\":3626:3648  tokenId.mul(_salt).add */\n      tag_186\n      swap1\n        /* \"Dcoffer/ERC721A/test.sol\":3626:3657  tokenId.mul(_salt).add(tokenId) */\n      swap2\n      swap1\n      0xffffffff\n      and\n      jump\t// in\n    tag_210:\n        /* \"Dcoffer/ERC721A/test.sol\":3612:3657  uint _power = tokenId.mul(_salt).add(tokenId) */\n      swap1\n      pop\n        /* \"Dcoffer/ERC721A/test.sol\":3685:3686  0 */\n      0x00\n        /* \"Dcoffer/ERC721A/test.sol\":3679:3681  10 */\n      0x0a\n        /* \"Dcoffer/ERC721A/test.sol\":3672:3678  _power */\n      dup3\n        /* \"Dcoffer/ERC721A/test.sol\":3672:3681  _power%10 */\n      tag_212\n      swap2\n      swap1\n      tag_213\n      jump\t// in\n    tag_212:\n        /* \"Dcoffer/ERC721A/test.sol\":3672:3686  _power%10 == 0 */\n      sub\n        /* \"Dcoffer/ERC721A/test.sol\":3669:3773  if(_power%10 == 0){... */\n      tag_214\n      jumpi\n        /* \"Dcoffer/ERC721A/test.sol\":3711:3712  1 */\n      0x01\n        /* \"Dcoffer/ERC721A/test.sol\":3702:3712  _power = 1 */\n      swap1\n      pop\n        /* \"Dcoffer/ERC721A/test.sol\":3669:3773  if(_power%10 == 0){... */\n      jump(tag_215)\n    tag_214:\n        /* \"Dcoffer/ERC721A/test.sol\":3759:3761  10 */\n      0x0a\n        /* \"Dcoffer/ERC721A/test.sol\":3752:3758  _power */\n      dup2\n        /* \"Dcoffer/ERC721A/test.sol\":3752:3761  _power%10 */\n      tag_216\n      swap2\n      swap1\n      tag_213\n      jump\t// in\n    tag_216:\n        /* \"Dcoffer/ERC721A/test.sol\":3743:3761  _power = _power%10 */\n      swap1\n      pop\n        /* \"Dcoffer/ERC721A/test.sol\":3669:3773  if(_power%10 == 0){... */\n    tag_215:\n        /* \"Dcoffer/ERC721A/test.sol\":3790:3796  _power */\n      dup1\n        /* \"Dcoffer/ERC721A/test.sol\":3783:3796  return _power */\n      swap2\n      pop\n      pop\n        /* \"Dcoffer/ERC721A/test.sol\":3534:3804  function DcofferPower (uint256 tokenId)public view returns(uint256){... */\n      swap2\n      swap1\n      pop\n      jump\t// out\n        /* \"@openzeppelin/contracts/utils/introspection/ERC165.sol\":829:984  function supportsInterface(bytes4 interfaceId) public view virtual override returns (bool) {... */\n    tag_119:\n        /* \"@openzeppelin/contracts/utils/introspection/ERC165.sol\":914:918  bool */\n      0x00\n        /* \"@openzeppelin/contracts/utils/introspection/ERC165.sol\":952:977  type(IERC165).interfaceId */\n      0x01ffc9a700000000000000000000000000000000000000000000000000000000\n        /* \"@openzeppelin/contracts/utils/introspection/ERC165.sol\":937:977  interfaceId == type(IERC165).interfaceId */\n      not(0xffffffffffffffffffffffffffffffffffffffffffffffffffffffff)\n      and\n        /* \"@openzeppelin/contracts/utils/introspection/ERC165.sol\":937:948  interfaceId */\n      dup3\n        /* \"@openzeppelin/contracts/utils/introspection/ERC165.sol\":937:977  interfaceId == type(IERC165).interfaceId */\n      not(0xffffffffffffffffffffffffffffffffffffffffffffffffffffffff)\n      and\n      eq\n        /* \"@openzeppelin/contracts/utils/introspection/ERC165.sol\":930:977  return interfaceId == type(IERC165).interfaceId */\n      swap1\n      pop\n        /* \"@openzeppelin/contracts/utils/introspection/ERC165.sol\":829:984  function supportsInterface(bytes4 interfaceId) public view virtual override returns (bool) {... */\n      swap2\n      swap1\n      pop\n      jump\t// out\n        /* \"Dcoffer/ERC721A/test.sol\":11739:11913  function _exists(uint256 tokenId) internal view returns (bool) {... */\n    tag_129:\n        /* \"Dcoffer/ERC721A/test.sol\":11796:11800  bool */\n      0x00\n        /* \"Dcoffer/ERC721A/test.sol\":11839:11846  tokenId */\n      dup2\n        /* \"Dcoffer/ERC721A/test.sol\":11820:11835  _startTokenId() */\n      tag_219\n        /* \"Dcoffer/ERC721A/test.sol\":11820:11833  _startTokenId */\n      tag_144\n        /* \"Dcoffer/ERC721A/test.sol\":11820:11835  _startTokenId() */\n      jump\t// in\n    tag_219:\n        /* \"Dcoffer/ERC721A/test.sol\":11820:11846  _startTokenId() <= tokenId */\n      gt\n      iszero\n        /* \"Dcoffer/ERC721A/test.sol\":11820:11873  _startTokenId() <= tokenId && tokenId < _currentIndex */\n      dup1\n      iszero\n      tag_220\n      jumpi\n      pop\n        /* \"Dcoffer/ERC721A/test.sol\":11860:11873  _currentIndex */\n      sload(0x04)\n        /* \"Dcoffer/ERC721A/test.sol\":11850:11857  tokenId */\n      dup3\n        /* \"Dcoffer/ERC721A/test.sol\":11850:11873  tokenId < _currentIndex */\n      lt\n        /* \"Dcoffer/ERC721A/test.sol\":11820:11873  _startTokenId() <= tokenId && tokenId < _currentIndex */\n    tag_220:\n        /* \"Dcoffer/ERC721A/test.sol\":11820:11905  _startTokenId() <= tokenId && tokenId < _currentIndex && !_ownerships[tokenId].burned */\n      dup1\n      iszero\n      tag_221\n      jumpi\n      pop\n        /* \"Dcoffer/ERC721A/test.sol\":11878:11889  _ownerships */\n      0x09\n        /* \"Dcoffer/ERC721A/test.sol\":11878:11898  _ownerships[tokenId] */\n      0x00\n        /* \"Dcoffer/ERC721A/test.sol\":11890:11897  tokenId */\n      dup4\n        /* \"Dcoffer/ERC721A/test.sol\":11878:11898  _ownerships[tokenId] */\n      dup2\n      mstore\n      0x20\n      add\n      swap1\n      dup2\n      mstore\n      0x20\n      add\n      0x00\n      keccak256\n        /* \"Dcoffer/ERC721A/test.sol\":11878:11905  _ownerships[tokenId].burned */\n      0x00\n      add\n      0x1c\n      swap1\n      sload\n      swap1\n      0x0100\n      exp\n      swap1\n      div\n      0xff\n      and\n        /* \"Dcoffer/ERC721A/test.sol\":11877:11905  !_ownerships[tokenId].burned */\n      iszero\n        /* \"Dcoffer/ERC721A/test.sol\":11820:11905  _startTokenId() <= tokenId && tokenId < _currentIndex && !_ownerships[tokenId].burned */\n    tag_221:\n        /* \"Dcoffer/ERC721A/test.sol\":11813:11905  return _startTokenId() <= tokenId && tokenId < _currentIndex && !_ownerships[tokenId].burned */\n      swap1\n      pop\n        /* \"Dcoffer/ERC721A/test.sol\":11739:11913  function _exists(uint256 tokenId) internal view returns (bool) {... */\n      swap2\n      swap1\n      pop\n      jump\t// out\n        /* \"@openzeppelin/contracts/utils/Context.sol\":640:736  function _msgSender() internal view virtual returns (address) {... */\n    tag_135:\n        /* \"@openzeppelin/contracts/utils/Context.sol\":693:700  address */\n      0x00\n        /* \"@openzeppelin/contracts/utils/Context.sol\":719:729  msg.sender */\n      caller\n        /* \"@openzeppelin/contracts/utils/Context.sol\":712:729  return msg.sender */\n      swap1\n      pop\n        /* \"@openzeppelin/contracts/utils/Context.sol\":640:736  function _msgSender() internal view virtual returns (address) {... */\n      swap1\n      jump\t// out\n        /* \"Dcoffer/ERC721A/test.sol\":20528:20724  function _approve(... */\n    tag_141:\n        /* \"Dcoffer/ERC721A/test.sol\":20670:20672  to */\n      dup3\n        /* \"Dcoffer/ERC721A/test.sol\":20643:20658  _tokenApprovals */\n      0x0b\n        /* \"Dcoffer/ERC721A/test.sol\":20643:20667  _tokenApprovals[tokenId] */\n      0x00\n        /* \"Dcoffer/ERC721A/test.sol\":20659:20666  tokenId */\n      dup5\n        /* \"Dcoffer/ERC721A/test.sol\":20643:20667  _tokenApprovals[tokenId] */\n      dup2\n      mstore\n      0x20\n      add\n      swap1\n      dup2\n      mstore\n      0x20\n      add\n      0x00\n      keccak256\n      0x00\n        /* \"Dcoffer/ERC721A/test.sol\":20643:20672  _tokenApprovals[tokenId] = to */\n      0x0100\n      exp\n      dup2\n      sload\n      dup2\n      0xffffffffffffffffffffffffffffffffffffffff\n      mul\n      not\n      and\n      swap1\n      dup4\n      0xffffffffffffffffffffffffffffffffffffffff\n      and\n      mul\n      or\n      swap1\n      sstore\n      pop\n        /* \"Dcoffer/ERC721A/test.sol\":20708:20715  tokenId */\n      dup2\n        /* \"Dcoffer/ERC721A/test.sol\":20704:20706  to */\n      dup4\n        /* \"Dcoffer/ERC721A/test.sol\":20688:20716  Approval(owner, to, tokenId) */\n      0xffffffffffffffffffffffffffffffffffffffff\n      and\n        /* \"Dcoffer/ERC721A/test.sol\":20697:20702  owner */\n      dup3\n        /* \"Dcoffer/ERC721A/test.sol\":20688:20716  Approval(owner, to, tokenId) */\n      0xffffffffffffffffffffffffffffffffffffffff\n      and\n      0x8c5be1e5ebec7d5bd14f71427d1e84f3dd0314c0f7b2291e5b200ac8c7c3b925\n      mload(0x40)\n      mload(0x40)\n      dup1\n      swap2\n      sub\n      swap1\n      log4\n        /* \"Dcoffer/ERC721A/test.sol\":20528:20724  function _approve(... */\n      pop\n      pop\n      pop\n      jump\t// out\n        /* \"Dcoffer/ERC721A/test.sol\":3922:4014  function _startTokenId() internal view virtual returns (uint256) {... */\n    tag_144:\n        /* \"Dcoffer/ERC721A/test.sol\":3978:3985  uint256 */\n      0x00\n        /* \"Dcoffer/ERC721A/test.sol\":3922:4014  function _startTokenId() internal view virtual returns (uint256) {... */\n      swap1\n      jump\t// out\n        /* \"Dcoffer/ERC721A/test.sol\":14756:17284  function _transfer(... */\n    tag_147:\n        /* \"Dcoffer/ERC721A/test.sol\":14875:14894  uint256 powerNumber */\n      0x00\n        /* \"Dcoffer/ERC721A/test.sol\":14897:14918  DcofferPower(tokenId) */\n      tag_226\n        /* \"Dcoffer/ERC721A/test.sol\":14910:14917  tokenId */\n      dup3\n        /* \"Dcoffer/ERC721A/test.sol\":14897:14909  DcofferPower */\n      tag_113\n        /* \"Dcoffer/ERC721A/test.sol\":14897:14918  DcofferPower(tokenId) */\n      jump\t// in\n    tag_226:\n        /* \"Dcoffer/ERC721A/test.sol\":14875:14918  uint256 powerNumber = DcofferPower(tokenId) */\n      swap1\n      pop\n        /* \"Dcoffer/ERC721A/test.sol\":14958:14974  MineStatus(from) */\n      tag_227\n        /* \"Dcoffer/ERC721A/test.sol\":14969:14973  from */\n      dup5\n        /* \"Dcoffer/ERC721A/test.sol\":14958:14968  MineStatus */\n      tag_97\n        /* \"Dcoffer/ERC721A/test.sol\":14958:14974  MineStatus(from) */\n      jump\t// in\n    tag_227:\n        /* \"Dcoffer/ERC721A/test.sol\":14937:14946  _mineInfo */\n      0x0d\n        /* \"Dcoffer/ERC721A/test.sol\":14937:14952  _mineInfo[from] */\n      0x00\n        /* \"Dcoffer/ERC721A/test.sol\":14947:14951  from */\n      dup7\n        /* \"Dcoffer/ERC721A/test.sol\":14937:14952  _mineInfo[from] */\n      0xffffffffffffffffffffffffffffffffffffffff\n      and\n      0xffffffffffffffffffffffffffffffffffffffff\n      and\n      dup2\n      mstore\n      0x20\n      add\n      swap1\n      dup2\n      mstore\n      0x20\n      add\n      0x00\n      keccak256\n        /* \"Dcoffer/ERC721A/test.sol\":14937:14955  _mineInfo[from][3] */\n      0x00\n        /* \"Dcoffer/ERC721A/test.sol\":14953:14954  3 */\n      0x03\n        /* \"Dcoffer/ERC721A/test.sol\":14937:14955  _mineInfo[from][3] */\n      dup2\n      mstore\n      0x20\n      add\n      swap1\n      dup2\n      mstore\n      0x20\n      add\n      0x00\n      keccak256\n        /* \"Dcoffer/ERC721A/test.sol\":14937:14974  _mineInfo[from][3] = MineStatus(from) */\n      dup2\n      swap1\n      sstore\n      pop\n        /* \"Dcoffer/ERC721A/test.sol\":15006:15041  _mineInfo[from][2].sub(powerNumber) */\n      tag_228\n        /* \"Dcoffer/ERC721A/test.sol\":15029:15040  powerNumber */\n      dup2\n        /* \"Dcoffer/ERC721A/test.sol\":15006:15015  _mineInfo */\n      0x0d\n        /* \"Dcoffer/ERC721A/test.sol\":15006:15021  _mineInfo[from] */\n      0x00\n        /* \"Dcoffer/ERC721A/test.sol\":15016:15020  from */\n      dup8\n        /* \"Dcoffer/ERC721A/test.sol\":15006:15021  _mineInfo[from] */\n      0xffffffffffffffffffffffffffffffffffffffff\n      and\n      0xffffffffffffffffffffffffffffffffffffffff\n      and\n      dup2\n      mstore\n      0x20\n      add\n      swap1\n      dup2\n      mstore\n      0x20\n      add\n      0x00\n      keccak256\n        /* \"Dcoffer/ERC721A/test.sol\":15006:15024  _mineInfo[from][2] */\n      0x00\n        /* \"Dcoffer/ERC721A/test.sol\":15022:15023  2 */\n      0x02\n        /* \"Dcoffer/ERC721A/test.sol\":15006:15024  _mineInfo[from][2] */\n      dup2\n      mstore\n      0x20\n      add\n      swap1\n      dup2\n      mstore\n      0x20\n      add\n      0x00\n      keccak256\n      sload\n        /* \"Dcoffer/ERC721A/test.sol\":15006:15028  _mineInfo[from][2].sub */\n      tag_185\n      swap1\n        /* \"Dcoffer/ERC721A/test.sol\":15006:15041  _mineInfo[from][2].sub(powerNumber) */\n      swap2\n      swap1\n      0xffffffff\n      and\n      jump\t// in\n    tag_228:\n        /* \"Dcoffer/ERC721A/test.sol\":14985:14994  _mineInfo */\n      0x0d\n        /* \"Dcoffer/ERC721A/test.sol\":14985:15000  _mineInfo[from] */\n      0x00\n        /* \"Dcoffer/ERC721A/test.sol\":14995:14999  from */\n      dup7\n        /* \"Dcoffer/ERC721A/test.sol\":14985:15000  _mineInfo[from] */\n      0xffffffffffffffffffffffffffffffffffffffff\n      and\n      0xffffffffffffffffffffffffffffffffffffffff\n      and\n      dup2\n      mstore\n      0x20\n      add\n      swap1\n      dup2\n      mstore\n      0x20\n      add\n      0x00\n      keccak256\n        /* \"Dcoffer/ERC721A/test.sol\":14985:15003  _mineInfo[from][2] */\n      0x00\n        /* \"Dcoffer/ERC721A/test.sol\":15001:15002  2 */\n      0x02\n        /* \"Dcoffer/ERC721A/test.sol\":14985:15003  _mineInfo[from][2] */\n      dup2\n      mstore\n      0x20\n      add\n      swap1\n      dup2\n      mstore\n      0x20\n      add\n      0x00\n      keccak256\n        /* \"Dcoffer/ERC721A/test.sol\":14985:15041  _mineInfo[from][2] = _mineInfo[from][2].sub(powerNumber) */\n      dup2\n      swap1\n      sstore\n      pop\n        /* \"Dcoffer/ERC721A/test.sol\":15073:15085  block.number */\n      number\n        /* \"Dcoffer/ERC721A/test.sol\":15052:15061  _mineInfo */\n      0x0d\n        /* \"Dcoffer/ERC721A/test.sol\":15052:15067  _mineInfo[from] */\n      0x00\n        /* \"Dcoffer/ERC721A/test.sol\":15062:15066  from */\n      dup7\n        /* \"Dcoffer/ERC721A/test.sol\":15052:15067  _mineInfo[from] */\n      0xffffffffffffffffffffffffffffffffffffffff\n      and\n      0xffffffffffffffffffffffffffffffffffffffff\n      and\n      dup2\n      mstore\n      0x20\n      add\n      swap1\n      dup2\n      mstore\n      0x20\n      add\n      0x00\n      keccak256\n        /* \"Dcoffer/ERC721A/test.sol\":15052:15070  _mineInfo[from][1] */\n      0x00\n        /* \"Dcoffer/ERC721A/test.sol\":15068:15069  1 */\n      0x01\n        /* \"Dcoffer/ERC721A/test.sol\":15052:15070  _mineInfo[from][1] */\n      dup2\n      mstore\n      0x20\n      add\n      swap1\n      dup2\n      mstore\n      0x20\n      add\n      0x00\n      keccak256\n        /* \"Dcoffer/ERC721A/test.sol\":15052:15085  _mineInfo[from][1] = block.number */\n      dup2\n      swap1\n      sstore\n      pop\n        /* \"Dcoffer/ERC721A/test.sol\":15115:15129  MineStatus(to) */\n      tag_229\n        /* \"Dcoffer/ERC721A/test.sol\":15126:15128  to */\n      dup4\n        /* \"Dcoffer/ERC721A/test.sol\":15115:15125  MineStatus */\n      tag_97\n        /* \"Dcoffer/ERC721A/test.sol\":15115:15129  MineStatus(to) */\n      jump\t// in\n    tag_229:\n        /* \"Dcoffer/ERC721A/test.sol\":15096:15105  _mineInfo */\n      0x0d\n        /* \"Dcoffer/ERC721A/test.sol\":15096:15109  _mineInfo[to] */\n      0x00\n        /* \"Dcoffer/ERC721A/test.sol\":15106:15108  to */\n      dup6\n        /* \"Dcoffer/ERC721A/test.sol\":15096:15109  _mineInfo[to] */\n      0xffffffffffffffffffffffffffffffffffffffff\n      and\n      0xffffffffffffffffffffffffffffffffffffffff\n      and\n      dup2\n      mstore\n      0x20\n      add\n      swap1\n      dup2\n      mstore\n      0x20\n      add\n      0x00\n      keccak256\n        /* \"Dcoffer/ERC721A/test.sol\":15096:15112  _mineInfo[to][3] */\n      0x00\n        /* \"Dcoffer/ERC721A/test.sol\":15110:15111  3 */\n      0x03\n        /* \"Dcoffer/ERC721A/test.sol\":15096:15112  _mineInfo[to][3] */\n      dup2\n      mstore\n      0x20\n      add\n      swap1\n      dup2\n      mstore\n      0x20\n      add\n      0x00\n      keccak256\n        /* \"Dcoffer/ERC721A/test.sol\":15096:15129  _mineInfo[to][3] = MineStatus(to) */\n      dup2\n      swap1\n      sstore\n      pop\n        /* \"Dcoffer/ERC721A/test.sol\":15159:15192  _mineInfo[to][2].add(powerNumber) */\n      tag_230\n        /* \"Dcoffer/ERC721A/test.sol\":15180:15191  powerNumber */\n      dup2\n        /* \"Dcoffer/ERC721A/test.sol\":15159:15168  _mineInfo */\n      0x0d\n        /* \"Dcoffer/ERC721A/test.sol\":15159:15172  _mineInfo[to] */\n      0x00\n        /* \"Dcoffer/ERC721A/test.sol\":15169:15171  to */\n      dup7\n        /* \"Dcoffer/ERC721A/test.sol\":15159:15172  _mineInfo[to] */\n      0xffffffffffffffffffffffffffffffffffffffff\n      and\n      0xffffffffffffffffffffffffffffffffffffffff\n      and\n      dup2\n      mstore\n      0x20\n      add\n      swap1\n      dup2\n      mstore\n      0x20\n      add\n      0x00\n      keccak256\n        /* \"Dcoffer/ERC721A/test.sol\":15159:15175  _mineInfo[to][2] */\n      0x00\n        /* \"Dcoffer/ERC721A/test.sol\":15173:15174  2 */\n      0x02\n        /* \"Dcoffer/ERC721A/test.sol\":15159:15175  _mineInfo[to][2] */\n      dup2\n      mstore\n      0x20\n      add\n      swap1\n      dup2\n      mstore\n      0x20\n      add\n      0x00\n      keccak256\n      sload\n        /* \"Dcoffer/ERC721A/test.sol\":15159:15179  _mineInfo[to][2].add */\n      tag_186\n      swap1\n        /* \"Dcoffer/ERC721A/test.sol\":15159:15192  _mineInfo[to][2].add(powerNumber) */\n      swap2\n      swap1\n      0xffffffff\n      and\n      jump\t// in\n    tag_230:\n        /* \"Dcoffer/ERC721A/test.sol\":15140:15149  _mineInfo */\n      0x0d\n        /* \"Dcoffer/ERC721A/test.sol\":15140:15153  _mineInfo[to] */\n      0x00\n        /* \"Dcoffer/ERC721A/test.sol\":15150:15152  to */\n      dup6\n        /* \"Dcoffer/ERC721A/test.sol\":15140:15153  _mineInfo[to] */\n      0xffffffffffffffffffffffffffffffffffffffff\n      and\n      0xffffffffffffffffffffffffffffffffffffffff\n      and\n      dup2\n      mstore\n      0x20\n      add\n      swap1\n      dup2\n      mstore\n      0x20\n      add\n      0x00\n      keccak256\n        /* \"Dcoffer/ERC721A/test.sol\":15140:15156  _mineInfo[to][2] */\n      0x00\n        /* \"Dcoffer/ERC721A/test.sol\":15154:15155  2 */\n      0x02\n        /* \"Dcoffer/ERC721A/test.sol\":15140:15156  _mineInfo[to][2] */\n      dup2\n      mstore\n      0x20\n      add\n      swap1\n      dup2\n      mstore\n      0x20\n      add\n      0x00\n      keccak256\n        /* \"Dcoffer/ERC721A/test.sol\":15140:15192  _mineInfo[to][2] = _mineInfo[to][2].add(powerNumber) */\n      dup2\n      swap1\n      sstore\n      pop\n        /* \"Dcoffer/ERC721A/test.sol\":15222:15234  block.number */\n      number\n        /* \"Dcoffer/ERC721A/test.sol\":15203:15212  _mineInfo */\n      0x0d\n        /* \"Dcoffer/ERC721A/test.sol\":15203:15216  _mineInfo[to] */\n      0x00\n        /* \"Dcoffer/ERC721A/test.sol\":15213:15215  to */\n      dup6\n        /* \"Dcoffer/ERC721A/test.sol\":15203:15216  _mineInfo[to] */\n      0xffffffffffffffffffffffffffffffffffffffff\n      and\n      0xffffffffffffffffffffffffffffffffffffffff\n      and\n      dup2\n      mstore\n      0x20\n      add\n      swap1\n      dup2\n      mstore\n      0x20\n      add\n      0x00\n      keccak256\n        /* \"Dcoffer/ERC721A/test.sol\":15203:15219  _mineInfo[to][1] */\n      0x00\n        /* \"Dcoffer/ERC721A/test.sol\":15217:15218  1 */\n      0x01\n        /* \"Dcoffer/ERC721A/test.sol\":15203:15219  _mineInfo[to][1] */\n      dup2\n      mstore\n      0x20\n      add\n      swap1\n      dup2\n      mstore\n      0x20\n      add\n      0x00\n      keccak256\n        /* \"Dcoffer/ERC721A/test.sol\":15203:15234  _mineInfo[to][1] = block.number */\n      dup2\n      swap1\n      sstore\n      pop\n        /* \"Dcoffer/ERC721A/test.sol\":15269:15304  TokenOwnership memory prevOwnership */\n      0x00\n        /* \"Dcoffer/ERC721A/test.sol\":15307:15328  _ownershipOf(tokenId) */\n      tag_231\n        /* \"Dcoffer/ERC721A/test.sol\":15320:15327  tokenId */\n      dup4\n        /* \"Dcoffer/ERC721A/test.sol\":15307:15319  _ownershipOf */\n      tag_159\n        /* \"Dcoffer/ERC721A/test.sol\":15307:15328  _ownershipOf(tokenId) */\n      jump\t// in\n    tag_231:\n        /* \"Dcoffer/ERC721A/test.sol\":15269:15328  TokenOwnership memory prevOwnership = _ownershipOf(tokenId) */\n      swap1\n      pop\n        /* \"Dcoffer/ERC721A/test.sol\":15367:15371  from */\n      dup5\n        /* \"Dcoffer/ERC721A/test.sol\":15345:15371  prevOwnership.addr != from */\n      0xffffffffffffffffffffffffffffffffffffffff\n      and\n        /* \"Dcoffer/ERC721A/test.sol\":15345:15358  prevOwnership */\n      dup2\n        /* \"Dcoffer/ERC721A/test.sol\":15345:15363  prevOwnership.addr */\n      0x00\n      add\n      mload\n        /* \"Dcoffer/ERC721A/test.sol\":15345:15371  prevOwnership.addr != from */\n      0xffffffffffffffffffffffffffffffffffffffff\n      and\n      eq\n        /* \"Dcoffer/ERC721A/test.sol\":15341:15408  if (prevOwnership.addr != from) revert TransferFromIncorrectOwner() */\n      tag_232\n      jumpi\n        /* \"Dcoffer/ERC721A/test.sol\":15380:15408  TransferFromIncorrectOwner() */\n      mload(0x40)\n      0xa114810000000000000000000000000000000000000000000000000000000000\n      dup2\n      mstore\n      0x04\n      add\n      mload(0x40)\n      dup1\n      swap2\n      sub\n      swap1\n      revert\n        /* \"Dcoffer/ERC721A/test.sol\":15341:15408  if (prevOwnership.addr != from) revert TransferFromIncorrectOwner() */\n    tag_232:\n        /* \"Dcoffer/ERC721A/test.sol\":15421:15443  bool isApprovedOrOwner */\n      0x00\n        /* \"Dcoffer/ERC721A/test.sol\":15463:15467  from */\n      dup6\n        /* \"Dcoffer/ERC721A/test.sol\":15447:15467  _msgSender() == from */\n      0xffffffffffffffffffffffffffffffffffffffff\n      and\n        /* \"Dcoffer/ERC721A/test.sol\":15447:15459  _msgSender() */\n      tag_233\n        /* \"Dcoffer/ERC721A/test.sol\":15447:15457  _msgSender */\n      tag_135\n        /* \"Dcoffer/ERC721A/test.sol\":15447:15459  _msgSender() */\n      jump\t// in\n    tag_233:\n        /* \"Dcoffer/ERC721A/test.sol\":15447:15467  _msgSender() == from */\n      0xffffffffffffffffffffffffffffffffffffffff\n      and\n      eq\n        /* \"Dcoffer/ERC721A/test.sol\":15447:15520  _msgSender() == from ||... */\n      dup1\n      tag_234\n      jumpi\n      pop\n        /* \"Dcoffer/ERC721A/test.sol\":15484:15520  isApprovedForAll(from, _msgSender()) */\n      tag_235\n        /* \"Dcoffer/ERC721A/test.sol\":15501:15505  from */\n      dup7\n        /* \"Dcoffer/ERC721A/test.sol\":15507:15519  _msgSender() */\n      tag_236\n        /* \"Dcoffer/ERC721A/test.sol\":15507:15517  _msgSender */\n      tag_135\n        /* \"Dcoffer/ERC721A/test.sol\":15507:15519  _msgSender() */\n      jump\t// in\n    tag_236:\n        /* \"Dcoffer/ERC721A/test.sol\":15484:15500  isApprovedForAll */\n      tag_109\n        /* \"Dcoffer/ERC721A/test.sol\":15484:15520  isApprovedForAll(from, _msgSender()) */\n      jump\t// in\n    tag_235:\n        /* \"Dcoffer/ERC721A/test.sol\":15447:15520  _msgSender() == from ||... */\n    tag_234:\n        /* \"Dcoffer/ERC721A/test.sol\":15447:15573  _msgSender() == from ||... */\n      dup1\n      tag_237\n      jumpi\n      pop\n        /* \"Dcoffer/ERC721A/test.sol\":15561:15573  _msgSender() */\n      tag_238\n        /* \"Dcoffer/ERC721A/test.sol\":15561:15571  _msgSender */\n      tag_135\n        /* \"Dcoffer/ERC721A/test.sol\":15561:15573  _msgSender() */\n      jump\t// in\n    tag_238:\n        /* \"Dcoffer/ERC721A/test.sol\":15537:15573  getApproved(tokenId) == _msgSender() */\n      0xffffffffffffffffffffffffffffffffffffffff\n      and\n        /* \"Dcoffer/ERC721A/test.sol\":15537:15557  getApproved(tokenId) */\n      tag_239\n        /* \"Dcoffer/ERC721A/test.sol\":15549:15556  tokenId */\n      dup6\n        /* \"Dcoffer/ERC721A/test.sol\":15537:15548  getApproved */\n      tag_41\n        /* \"Dcoffer/ERC721A/test.sol\":15537:15557  getApproved(tokenId) */\n      jump\t// in\n    tag_239:\n        /* \"Dcoffer/ERC721A/test.sol\":15537:15573  getApproved(tokenId) == _msgSender() */\n      0xffffffffffffffffffffffffffffffffffffffff\n      and\n      eq\n        /* \"Dcoffer/ERC721A/test.sol\":15447:15573  _msgSender() == from ||... */\n    tag_237:\n        /* \"Dcoffer/ERC721A/test.sol\":15421:15574  bool isApprovedOrOwner = (_msgSender() == from ||... */\n      swap1\n      pop\n        /* \"Dcoffer/ERC721A/test.sol\":15592:15609  isApprovedOrOwner */\n      dup1\n        /* \"Dcoffer/ERC721A/test.sol\":15587:15653  if (!isApprovedOrOwner) revert TransferCallerNotOwnerNorApproved() */\n      tag_240\n      jumpi\n        /* \"Dcoffer/ERC721A/test.sol\":15618:15653  TransferCallerNotOwnerNorApproved() */\n      mload(0x40)\n      0x59c896be00000000000000000000000000000000000000000000000000000000\n      dup2\n      mstore\n      0x04\n      add\n      mload(0x40)\n      dup1\n      swap2\n      sub\n      swap1\n      revert\n        /* \"Dcoffer/ERC721A/test.sol\":15587:15653  if (!isApprovedOrOwner) revert TransferCallerNotOwnerNorApproved() */\n    tag_240:\n        /* \"Dcoffer/ERC721A/test.sol\":15682:15683  0 */\n      0x00\n        /* \"Dcoffer/ERC721A/test.sol\":15668:15684  to == address(0) */\n      0xffffffffffffffffffffffffffffffffffffffff\n      and\n        /* \"Dcoffer/ERC721A/test.sol\":15668:15670  to */\n      dup6\n        /* \"Dcoffer/ERC721A/test.sol\":15668:15684  to == address(0) */\n      0xffffffffffffffffffffffffffffffffffffffff\n      and\n      sub\n        /* \"Dcoffer/ERC721A/test.sol\":15664:15716  if (to == address(0)) revert TransferToZeroAddress() */\n      tag_241\n      jumpi\n        /* \"Dcoffer/ERC721A/test.sol\":15693:15716  TransferToZeroAddress() */\n      mload(0x40)\n      0xea553b3400000000000000000000000000000000000000000000000000000000\n      dup2\n      mstore\n      0x04\n      add\n      mload(0x40)\n      dup1\n      swap2\n      sub\n      swap1\n      revert\n        /* \"Dcoffer/ERC721A/test.sol\":15664:15716  if (to == address(0)) revert TransferToZeroAddress() */\n    tag_241:\n        /* \"Dcoffer/ERC721A/test.sol\":15729:15772  _beforeTokenTransfers(from, to, tokenId, 1) */\n      tag_242\n        /* \"Dcoffer/ERC721A/test.sol\":15751:15755  from */\n      dup7\n        /* \"Dcoffer/ERC721A/test.sol\":15757:15759  to */\n      dup7\n        /* \"Dcoffer/ERC721A/test.sol\":15761:15768  tokenId */\n      dup7\n        /* \"Dcoffer/ERC721A/test.sol\":15770:15771  1 */\n      0x01\n        /* \"Dcoffer/ERC721A/test.sol\":15729:15750  _beforeTokenTransfers */\n      tag_243\n        /* \"Dcoffer/ERC721A/test.sol\":15729:15772  _beforeTokenTransfers(from, to, tokenId, 1) */\n      jump\t// in\n    tag_242:\n        /* \"Dcoffer/ERC721A/test.sol\":15837:15872  _approve(address(0), tokenId, from) */\n      tag_244\n        /* \"Dcoffer/ERC721A/test.sol\":15854:15855  0 */\n      0x00\n        /* \"Dcoffer/ERC721A/test.sol\":15858:15865  tokenId */\n      dup6\n        /* \"Dcoffer/ERC721A/test.sol\":15867:15871  from */\n      dup9\n        /* \"Dcoffer/ERC721A/test.sol\":15837:15845  _approve */\n      tag_141\n        /* \"Dcoffer/ERC721A/test.sol\":15837:15872  _approve(address(0), tokenId, from) */\n      jump\t// in\n    tag_244:\n        /* \"Dcoffer/ERC721A/test.sol\":16198:16199  1 */\n      0x01\n        /* \"Dcoffer/ERC721A/test.sol\":16168:16180  _addressData */\n      0x0a\n        /* \"Dcoffer/ERC721A/test.sol\":16168:16186  _addressData[from] */\n      0x00\n        /* \"Dcoffer/ERC721A/test.sol\":16181:16185  from */\n      dup9\n        /* \"Dcoffer/ERC721A/test.sol\":16168:16186  _addressData[from] */\n      0xffffffffffffffffffffffffffffffffffffffff\n      and\n      0xffffffffffffffffffffffffffffffffffffffff\n      and\n      dup2\n      mstore\n      0x20\n      add\n      swap1\n      dup2\n      mstore\n      0x20\n      add\n      0x00\n      keccak256\n        /* \"Dcoffer/ERC721A/test.sol\":16168:16194  _addressData[from].balance */\n      0x00\n      add\n      0x00\n        /* \"Dcoffer/ERC721A/test.sol\":16168:16199  _addressData[from].balance -= 1 */\n      dup3\n      dup3\n      dup3\n      swap1\n      sload\n      swap1\n      0x0100\n      exp\n      swap1\n      div\n      0xffffffffffffffff\n      and\n      sub\n      swap3\n      pop\n      0x0100\n      exp\n      dup2\n      sload\n      dup2\n      0xffffffffffffffff\n      mul\n      not\n      and\n      swap1\n      dup4\n      0xffffffffffffffff\n      and\n      mul\n      or\n      swap1\n      sstore\n      pop\n        /* \"Dcoffer/ERC721A/test.sol\":16242:16243  1 */\n      0x01\n        /* \"Dcoffer/ERC721A/test.sol\":16214:16226  _addressData */\n      0x0a\n        /* \"Dcoffer/ERC721A/test.sol\":16214:16230  _addressData[to] */\n      0x00\n        /* \"Dcoffer/ERC721A/test.sol\":16227:16229  to */\n      dup8\n        /* \"Dcoffer/ERC721A/test.sol\":16214:16230  _addressData[to] */\n      0xffffffffffffffffffffffffffffffffffffffff\n      and\n      0xffffffffffffffffffffffffffffffffffffffff\n      and\n      dup2\n      mstore\n      0x20\n      add\n      swap1\n      dup2\n      mstore\n      0x20\n      add\n      0x00\n      keccak256\n        /* \"Dcoffer/ERC721A/test.sol\":16214:16238  _addressData[to].balance */\n      0x00\n      add\n      0x00\n        /* \"Dcoffer/ERC721A/test.sol\":16214:16243  _addressData[to].balance += 1 */\n      dup3\n      dup3\n      dup3\n      swap1\n      sload\n      swap1\n      0x0100\n      exp\n      swap1\n      div\n      0xffffffffffffffff\n      and\n      add\n      swap3\n      pop\n      0x0100\n      exp\n      dup2\n      sload\n      dup2\n      0xffffffffffffffff\n      mul\n      not\n      and\n      swap1\n      dup4\n      0xffffffffffffffff\n      and\n      mul\n      or\n      swap1\n      sstore\n      pop\n        /* \"Dcoffer/ERC721A/test.sol\":16260:16291  TokenOwnership storage currSlot */\n      0x00\n        /* \"Dcoffer/ERC721A/test.sol\":16294:16305  _ownerships */\n      0x09\n        /* \"Dcoffer/ERC721A/test.sol\":16294:16314  _ownerships[tokenId] */\n      0x00\n        /* \"Dcoffer/ERC721A/test.sol\":16306:16313  tokenId */\n      dup7\n        /* \"Dcoffer/ERC721A/test.sol\":16294:16314  _ownerships[tokenId] */\n      dup2\n      mstore\n      0x20\n      add\n      swap1\n      dup2\n      mstore\n      0x20\n      add\n      0x00\n      keccak256\n        /* \"Dcoffer/ERC721A/test.sol\":16260:16314  TokenOwnership storage currSlot = _ownerships[tokenId] */\n      swap1\n      pop\n        /* \"Dcoffer/ERC721A/test.sol\":16345:16347  to */\n      dup6\n        /* \"Dcoffer/ERC721A/test.sol\":16329:16337  currSlot */\n      dup2\n        /* \"Dcoffer/ERC721A/test.sol\":16329:16342  currSlot.addr */\n      0x00\n      add\n      0x00\n        /* \"Dcoffer/ERC721A/test.sol\":16329:16347  currSlot.addr = to */\n      0x0100\n      exp\n      dup2\n      sload\n      dup2\n      0xffffffffffffffffffffffffffffffffffffffff\n      mul\n      not\n      and\n      swap1\n      dup4\n      0xffffffffffffffffffffffffffffffffffffffff\n      and\n      mul\n      or\n      swap1\n      sstore\n      pop\n        /* \"Dcoffer/ERC721A/test.sol\":16395:16410  block.timestamp */\n      timestamp\n        /* \"Dcoffer/ERC721A/test.sol\":16362:16370  currSlot */\n      dup2\n        /* \"Dcoffer/ERC721A/test.sol\":16362:16385  currSlot.startTimestamp */\n      0x00\n      add\n      0x14\n        /* \"Dcoffer/ERC721A/test.sol\":16362:16411  currSlot.startTimestamp = uint64(block.timestamp) */\n      0x0100\n      exp\n      dup2\n      sload\n      dup2\n      0xffffffffffffffff\n      mul\n      not\n      and\n      swap1\n      dup4\n      0xffffffffffffffff\n      and\n      mul\n      or\n      swap1\n      sstore\n      pop\n        /* \"Dcoffer/ERC721A/test.sol\":16663:16682  uint256 nextTokenId */\n      0x00\n        /* \"Dcoffer/ERC721A/test.sol\":16695:16696  1 */\n      0x01\n        /* \"Dcoffer/ERC721A/test.sol\":16685:16692  tokenId */\n      dup7\n        /* \"Dcoffer/ERC721A/test.sol\":16685:16696  tokenId + 1 */\n      add\n        /* \"Dcoffer/ERC721A/test.sol\":16663:16696  uint256 nextTokenId = tokenId + 1 */\n      swap1\n      pop\n        /* \"Dcoffer/ERC721A/test.sol\":16711:16742  TokenOwnership storage nextSlot */\n      0x00\n        /* \"Dcoffer/ERC721A/test.sol\":16745:16756  _ownerships */\n      0x09\n        /* \"Dcoffer/ERC721A/test.sol\":16745:16769  _ownerships[nextTokenId] */\n      0x00\n        /* \"Dcoffer/ERC721A/test.sol\":16757:16768  nextTokenId */\n      dup4\n        /* \"Dcoffer/ERC721A/test.sol\":16745:16769  _ownerships[nextTokenId] */\n      dup2\n      mstore\n      0x20\n      add\n      swap1\n      dup2\n      mstore\n      0x20\n      add\n      0x00\n      keccak256\n        /* \"Dcoffer/ERC721A/test.sol\":16711:16769  TokenOwnership storage nextSlot = _ownerships[nextTokenId] */\n      swap1\n      pop\n        /* \"Dcoffer/ERC721A/test.sol\":16813:16814  0 */\n      0x00\n        /* \"Dcoffer/ERC721A/test.sol\":16788:16815  nextSlot.addr == address(0) */\n      0xffffffffffffffffffffffffffffffffffffffff\n      and\n        /* \"Dcoffer/ERC721A/test.sol\":16788:16796  nextSlot */\n      dup2\n        /* \"Dcoffer/ERC721A/test.sol\":16788:16801  nextSlot.addr */\n      0x00\n      add\n      0x00\n      swap1\n      sload\n      swap1\n      0x0100\n      exp\n      swap1\n      div\n      0xffffffffffffffffffffffffffffffffffffffff\n      and\n        /* \"Dcoffer/ERC721A/test.sol\":16788:16815  nextSlot.addr == address(0) */\n      0xffffffffffffffffffffffffffffffffffffffff\n      and\n      sub\n        /* \"Dcoffer/ERC721A/test.sol\":16784:17168  if (nextSlot.addr == address(0)) {... */\n      tag_245\n      jumpi\n        /* \"Dcoffer/ERC721A/test.sol\":16998:17011  _currentIndex */\n      sload(0x04)\n        /* \"Dcoffer/ERC721A/test.sol\":16983:16994  nextTokenId */\n      dup3\n        /* \"Dcoffer/ERC721A/test.sol\":16983:17011  nextTokenId != _currentIndex */\n      eq\n        /* \"Dcoffer/ERC721A/test.sol\":16979:17153  if (nextTokenId != _currentIndex) {... */\n      tag_246\n      jumpi\n        /* \"Dcoffer/ERC721A/test.sol\":17052:17056  from */\n      dup9\n        /* \"Dcoffer/ERC721A/test.sol\":17036:17044  nextSlot */\n      dup2\n        /* \"Dcoffer/ERC721A/test.sol\":17036:17049  nextSlot.addr */\n      0x00\n      add\n      0x00\n        /* \"Dcoffer/ERC721A/test.sol\":17036:17056  nextSlot.addr = from */\n      0x0100\n      exp\n      dup2\n      sload\n      dup2\n      0xffffffffffffffffffffffffffffffffffffffff\n      mul\n      not\n      and\n      swap1\n      dup4\n      0xffffffffffffffffffffffffffffffffffffffff\n      and\n      mul\n      or\n      swap1\n      sstore\n      pop\n        /* \"Dcoffer/ERC721A/test.sol\":17105:17118  prevOwnership */\n      dup5\n        /* \"Dcoffer/ERC721A/test.sol\":17105:17133  prevOwnership.startTimestamp */\n      0x20\n      add\n      mload\n        /* \"Dcoffer/ERC721A/test.sol\":17079:17087  nextSlot */\n      dup2\n        /* \"Dcoffer/ERC721A/test.sol\":17079:17102  nextSlot.startTimestamp */\n      0x00\n      add\n      0x14\n        /* \"Dcoffer/ERC721A/test.sol\":17079:17133  nextSlot.startTimestamp = prevOwnership.startTimestamp */\n      0x0100\n      exp\n      dup2\n      sload\n      dup2\n      0xffffffffffffffff\n      mul\n      not\n      and\n      swap1\n      dup4\n      0xffffffffffffffff\n      and\n      mul\n      or\n      swap1\n      sstore\n      pop\n        /* \"Dcoffer/ERC721A/test.sol\":16979:17153  if (nextTokenId != _currentIndex) {... */\n    tag_246:\n        /* \"Dcoffer/ERC721A/test.sol\":16784:17168  if (nextSlot.addr == address(0)) {... */\n    tag_245:\n        /* \"Dcoffer/ERC721A/test.sol\":16143:17179  unchecked {... */\n      pop\n      pop\n      pop\n        /* \"Dcoffer/ERC721A/test.sol\":17215:17222  tokenId */\n      dup4\n        /* \"Dcoffer/ERC721A/test.sol\":17211:17213  to */\n      dup6\n        /* \"Dcoffer/ERC721A/test.sol\":17196:17223  Transfer(from, to, tokenId) */\n      0xffffffffffffffffffffffffffffffffffffffff\n      and\n        /* \"Dcoffer/ERC721A/test.sol\":17205:17209  from */\n      dup8\n        /* \"Dcoffer/ERC721A/test.sol\":17196:17223  Transfer(from, to, tokenId) */\n      0xffffffffffffffffffffffffffffffffffffffff\n      and\n      0xddf252ad1be2c89b69c2b068fc378daa952ba7f163c4a11628f55a4df523b3ef\n      mload(0x40)\n      mload(0x40)\n      dup1\n      swap2\n      sub\n      swap1\n      log4\n        /* \"Dcoffer/ERC721A/test.sol\":17234:17276  _afterTokenTransfers(from, to, tokenId, 1) */\n      tag_247\n        /* \"Dcoffer/ERC721A/test.sol\":17255:17259  from */\n      dup7\n        /* \"Dcoffer/ERC721A/test.sol\":17261:17263  to */\n      dup7\n        /* \"Dcoffer/ERC721A/test.sol\":17265:17272  tokenId */\n      dup7\n        /* \"Dcoffer/ERC721A/test.sol\":17274:17275  1 */\n      0x01\n        /* \"Dcoffer/ERC721A/test.sol\":17234:17254  _afterTokenTransfers */\n      tag_248\n        /* \"Dcoffer/ERC721A/test.sol\":17234:17276  _afterTokenTransfers(from, to, tokenId, 1) */\n      jump\t// in\n    tag_247:\n        /* \"Dcoffer/ERC721A/test.sol\":14860:17284  {  ... */\n      pop\n      pop\n      pop\n        /* \"Dcoffer/ERC721A/test.sol\":14756:17284  function _transfer(... */\n      pop\n      pop\n      pop\n      jump\t// out\n        /* \"@openzeppelin/contracts/utils/math/SafeMath.sol\":3465:3561  function mul(uint256 a, uint256 b) internal pure returns (uint256) {... */\n    tag_152:\n        /* \"@openzeppelin/contracts/utils/math/SafeMath.sol\":3523:3530  uint256 */\n      0x00\n        /* \"@openzeppelin/contracts/utils/math/SafeMath.sol\":3553:3554  b */\n      dup2\n        /* \"@openzeppelin/contracts/utils/math/SafeMath.sol\":3549:3550  a */\n      dup4\n        /* \"@openzeppelin/contracts/utils/math/SafeMath.sol\":3549:3554  a * b */\n      tag_250\n      swap2\n      swap1\n      tag_251\n      jump\t// in\n    tag_250:\n        /* \"@openzeppelin/contracts/utils/math/SafeMath.sol\":3542:3554  return a * b */\n      swap1\n      pop\n        /* \"@openzeppelin/contracts/utils/math/SafeMath.sol\":3465:3561  function mul(uint256 a, uint256 b) internal pure returns (uint256) {... */\n      swap3\n      swap2\n      pop\n      pop\n      jump\t// out\n        /* \"@openzeppelin/contracts/utils/math/SafeMath.sol\":3850:3946  function div(uint256 a, uint256 b) internal pure returns (uint256) {... */\n    tag_155:\n        /* \"@openzeppelin/contracts/utils/math/SafeMath.sol\":3908:3915  uint256 */\n      0x00\n        /* \"@openzeppelin/contracts/utils/math/SafeMath.sol\":3938:3939  b */\n      dup2\n        /* \"@openzeppelin/contracts/utils/math/SafeMath.sol\":3934:3935  a */\n      dup4\n        /* \"@openzeppelin/contracts/utils/math/SafeMath.sol\":3934:3939  a / b */\n      tag_253\n      swap2\n      swap1\n      tag_254\n      jump\t// in\n    tag_253:\n        /* \"@openzeppelin/contracts/utils/math/SafeMath.sol\":3927:3939  return a / b */\n      swap1\n      pop\n        /* \"@openzeppelin/contracts/utils/math/SafeMath.sol\":3850:3946  function div(uint256 a, uint256 b) internal pure returns (uint256) {... */\n      swap3\n      swap2\n      pop\n      pop\n      jump\t// out\n        /* \"Dcoffer/ERC721A/test.sol\":6833:7944  function _ownershipOf(uint256 tokenId) internal view returns (TokenOwnership memory) {... */\n    tag_159:\n        /* \"Dcoffer/ERC721A/test.sol\":6895:6916  TokenOwnership memory */\n      tag_255\n      tag_256\n      jump\t// in\n    tag_255:\n        /* \"Dcoffer/ERC721A/test.sol\":6929:6941  uint256 curr */\n      0x00\n        /* \"Dcoffer/ERC721A/test.sol\":6944:6951  tokenId */\n      dup3\n        /* \"Dcoffer/ERC721A/test.sol\":6929:6951  uint256 curr = tokenId */\n      swap1\n      pop\n        /* \"Dcoffer/ERC721A/test.sol\":7012:7016  curr */\n      dup1\n        /* \"Dcoffer/ERC721A/test.sol\":6993:7008  _startTokenId() */\n      tag_258\n        /* \"Dcoffer/ERC721A/test.sol\":6993:7006  _startTokenId */\n      tag_144\n        /* \"Dcoffer/ERC721A/test.sol\":6993:7008  _startTokenId() */\n      jump\t// in\n    tag_258:\n        /* \"Dcoffer/ERC721A/test.sol\":6993:7016  _startTokenId() <= curr */\n      gt\n        /* \"Dcoffer/ERC721A/test.sol\":6989:7877  if (_startTokenId() <= curr) if (curr < _currentIndex) {... */\n      tag_259\n      jumpi\n        /* \"Dcoffer/ERC721A/test.sol\":7029:7042  _currentIndex */\n      sload(0x04)\n        /* \"Dcoffer/ERC721A/test.sol\":7022:7026  curr */\n      dup2\n        /* \"Dcoffer/ERC721A/test.sol\":7022:7042  curr < _currentIndex */\n      lt\n        /* \"Dcoffer/ERC721A/test.sol\":7018:7877  if (curr < _currentIndex) {... */\n      iszero\n      tag_260\n      jumpi\n        /* \"Dcoffer/ERC721A/test.sol\":7063:7094  TokenOwnership memory ownership */\n      0x00\n        /* \"Dcoffer/ERC721A/test.sol\":7097:7108  _ownerships */\n      0x09\n        /* \"Dcoffer/ERC721A/test.sol\":7097:7114  _ownerships[curr] */\n      0x00\n        /* \"Dcoffer/ERC721A/test.sol\":7109:7113  curr */\n      dup4\n        /* \"Dcoffer/ERC721A/test.sol\":7097:7114  _ownerships[curr] */\n      dup2\n      mstore\n      0x20\n      add\n      swap1\n      dup2\n      mstore\n      0x20\n      add\n      0x00\n      keccak256\n        /* \"Dcoffer/ERC721A/test.sol\":7063:7114  TokenOwnership memory ownership = _ownerships[curr] */\n      mload(0x40)\n      dup1\n      0x60\n      add\n      0x40\n      mstore\n      swap1\n      dup2\n      0x00\n      dup3\n      add\n      0x00\n      swap1\n      sload\n      swap1\n      0x0100\n      exp\n      swap1\n      div\n      0xffffffffffffffffffffffffffffffffffffffff\n      and\n      0xffffffffffffffffffffffffffffffffffffffff\n      and\n      0xffffffffffffffffffffffffffffffffffffffff\n      and\n      dup2\n      mstore\n      0x20\n      add\n      0x00\n      dup3\n      add\n      0x14\n      swap1\n      sload\n      swap1\n      0x0100\n      exp\n      swap1\n      div\n      0xffffffffffffffff\n      and\n      0xffffffffffffffff\n      and\n      0xffffffffffffffff\n      and\n      dup2\n      mstore\n      0x20\n      add\n      0x00\n      dup3\n      add\n      0x1c\n      swap1\n      sload\n      swap1\n      0x0100\n      exp\n      swap1\n      div\n      0xff\n      and\n      iszero\n      iszero\n      iszero\n      iszero\n      dup2\n      mstore\n      pop\n      pop\n      swap1\n      pop\n        /* \"Dcoffer/ERC721A/test.sol\":7138:7147  ownership */\n      dup1\n        /* \"Dcoffer/ERC721A/test.sol\":7138:7154  ownership.burned */\n      0x40\n      add\n      mload\n        /* \"Dcoffer/ERC721A/test.sol\":7133:7862  if (!ownership.burned) {... */\n      tag_261\n      jumpi\n        /* \"Dcoffer/ERC721A/test.sol\":7209:7210  0 */\n      0x00\n        /* \"Dcoffer/ERC721A/test.sol\":7183:7211  ownership.addr != address(0) */\n      0xffffffffffffffffffffffffffffffffffffffff\n      and\n        /* \"Dcoffer/ERC721A/test.sol\":7183:7192  ownership */\n      dup2\n        /* \"Dcoffer/ERC721A/test.sol\":7183:7197  ownership.addr */\n      0x00\n      add\n      mload\n        /* \"Dcoffer/ERC721A/test.sol\":7183:7211  ownership.addr != address(0) */\n      0xffffffffffffffffffffffffffffffffffffffff\n      and\n      eq\n        /* \"Dcoffer/ERC721A/test.sol\":7179:7280  if (ownership.addr != address(0)) {... */\n      tag_262\n      jumpi\n        /* \"Dcoffer/ERC721A/test.sol\":7247:7256  ownership */\n      dup1\n        /* \"Dcoffer/ERC721A/test.sol\":7240:7256  return ownership */\n      swap3\n      pop\n      pop\n      pop\n      jump(tag_257)\n        /* \"Dcoffer/ERC721A/test.sol\":7179:7280  if (ownership.addr != address(0)) {... */\n    tag_262:\n        /* \"Dcoffer/ERC721A/test.sol\":7582:7843  while (true) {... */\n    tag_263:\n        /* \"Dcoffer/ERC721A/test.sol\":7589:7593  true */\n      0x01\n        /* \"Dcoffer/ERC721A/test.sol\":7582:7843  while (true) {... */\n      iszero\n      tag_264\n      jumpi\n        /* \"Dcoffer/ERC721A/test.sol\":7622:7628  curr-- */\n      dup2\n      dup1\n      0x01\n      swap1\n      sub\n      swap3\n      pop\n      pop\n        /* \"Dcoffer/ERC721A/test.sol\":7667:7678  _ownerships */\n      0x09\n        /* \"Dcoffer/ERC721A/test.sol\":7667:7684  _ownerships[curr] */\n      0x00\n        /* \"Dcoffer/ERC721A/test.sol\":7679:7683  curr */\n      dup4\n        /* \"Dcoffer/ERC721A/test.sol\":7667:7684  _ownerships[curr] */\n      dup2\n      mstore\n      0x20\n      add\n      swap1\n      dup2\n      mstore\n      0x20\n      add\n      0x00\n      keccak256\n        /* \"Dcoffer/ERC721A/test.sol\":7655:7684  ownership = _ownerships[curr] */\n      mload(0x40)\n      dup1\n      0x60\n      add\n      0x40\n      mstore\n      swap1\n      dup2\n      0x00\n      dup3\n      add\n      0x00\n      swap1\n      sload\n      swap1\n      0x0100\n      exp\n      swap1\n      div\n      0xffffffffffffffffffffffffffffffffffffffff\n      and\n      0xffffffffffffffffffffffffffffffffffffffff\n      and\n      0xffffffffffffffffffffffffffffffffffffffff\n      and\n      dup2\n      mstore\n      0x20\n      add\n      0x00\n      dup3\n      add\n      0x14\n      swap1\n      sload\n      swap1\n      0x0100\n      exp\n      swap1\n      div\n      0xffffffffffffffff\n      and\n      0xffffffffffffffff\n      and\n      0xffffffffffffffff\n      and\n      dup2\n      mstore\n      0x20\n      add\n      0x00\n      dup3\n      add\n      0x1c\n      swap1\n      sload\n      swap1\n      0x0100\n      exp\n      swap1\n      div\n      0xff\n      and\n      iszero\n      iszero\n      iszero\n      iszero\n      dup2\n      mstore\n      pop\n      pop\n      swap1\n      pop\n        /* \"Dcoffer/ERC721A/test.sol\":7741:7742  0 */\n      0x00\n        /* \"Dcoffer/ERC721A/test.sol\":7715:7743  ownership.addr != address(0) */\n      0xffffffffffffffffffffffffffffffffffffffff\n      and\n        /* \"Dcoffer/ERC721A/test.sol\":7715:7724  ownership */\n      dup2\n        /* \"Dcoffer/ERC721A/test.sol\":7715:7729  ownership.addr */\n      0x00\n      add\n      mload\n        /* \"Dcoffer/ERC721A/test.sol\":7715:7743  ownership.addr != address(0) */\n      0xffffffffffffffffffffffffffffffffffffffff\n      and\n      eq\n        /* \"Dcoffer/ERC721A/test.sol\":7711:7820  if (ownership.addr != address(0)) {... */\n      tag_265\n      jumpi\n        /* \"Dcoffer/ERC721A/test.sol\":7783:7792  ownership */\n      dup1\n        /* \"Dcoffer/ERC721A/test.sol\":7776:7792  return ownership */\n      swap3\n      pop\n      pop\n      pop\n      jump(tag_257)\n        /* \"Dcoffer/ERC721A/test.sol\":7711:7820  if (ownership.addr != address(0)) {... */\n    tag_265:\n        /* \"Dcoffer/ERC721A/test.sol\":7582:7843  while (true) {... */\n      jump(tag_263)\n    tag_264:\n        /* \"Dcoffer/ERC721A/test.sol\":7133:7862  if (!ownership.burned) {... */\n    tag_261:\n        /* \"Dcoffer/ERC721A/test.sol\":7044:7877  {... */\n      pop\n        /* \"Dcoffer/ERC721A/test.sol\":7018:7877  if (curr < _currentIndex) {... */\n    tag_260:\n        /* \"Dcoffer/ERC721A/test.sol\":6989:7877  if (_startTokenId() <= curr) if (curr < _currentIndex) {... */\n    tag_259:\n        /* \"Dcoffer/ERC721A/test.sol\":7905:7936  OwnerQueryForNonexistentToken() */\n      mload(0x40)\n      0xdf2d9b4200000000000000000000000000000000000000000000000000000000\n      dup2\n      mstore\n      0x04\n      add\n      mload(0x40)\n      dup1\n      swap2\n      sub\n      swap1\n      revert\n        /* \"Dcoffer/ERC721A/test.sol\":6833:7944  function _ownershipOf(uint256 tokenId) internal view returns (TokenOwnership memory) {... */\n    tag_257:\n      swap2\n      swap1\n      pop\n      jump\t// out\n        /* \"@openzeppelin/contracts/utils/Address.sol\":1175:1495  function isContract(address account) internal view returns (bool) {... */\n    tag_177:\n        /* \"@openzeppelin/contracts/utils/Address.sol\":1235:1239  bool */\n      0x00\n        /* \"@openzeppelin/contracts/utils/Address.sol\":1487:1488  0 */\n      dup1\n        /* \"@openzeppelin/contracts/utils/Address.sol\":1465:1472  account */\n      dup3\n        /* \"@openzeppelin/contracts/utils/Address.sol\":1465:1484  account.code.length */\n      0xffffffffffffffffffffffffffffffffffffffff\n      and\n      extcodesize\n        /* \"@openzeppelin/contracts/utils/Address.sol\":1465:1488  account.code.length > 0 */\n      gt\n        /* \"@openzeppelin/contracts/utils/Address.sol\":1458:1488  return account.code.length > 0 */\n      swap1\n      pop\n        /* \"@openzeppelin/contracts/utils/Address.sol\":1175:1495  function isContract(address account) internal view returns (bool) {... */\n      swap2\n      swap1\n      pop\n      jump\t// out\n        /* \"Dcoffer/ERC721A/test.sol\":21216:21883  function _checkContractOnERC721Received(... */\n    tag_180:\n        /* \"Dcoffer/ERC721A/test.sol\":21379:21383  bool */\n      0x00\n        /* \"Dcoffer/ERC721A/test.sol\":21416:21418  to */\n      dup4\n        /* \"Dcoffer/ERC721A/test.sol\":21400:21436  IERC721Receiver(to).onERC721Received */\n      0xffffffffffffffffffffffffffffffffffffffff\n      and\n      0x150b7a02\n        /* \"Dcoffer/ERC721A/test.sol\":21437:21449  _msgSender() */\n      tag_268\n        /* \"Dcoffer/ERC721A/test.sol\":21437:21447  _msgSender */\n      tag_135\n        /* \"Dcoffer/ERC721A/test.sol\":21437:21449  _msgSender() */\n      jump\t// in\n    tag_268:\n        /* \"Dcoffer/ERC721A/test.sol\":21451:21455  from */\n      dup8\n        /* \"Dcoffer/ERC721A/test.sol\":21457:21464  tokenId */\n      dup7\n        /* \"Dcoffer/ERC721A/test.sol\":21466:21471  _data */\n      dup7\n        /* \"Dcoffer/ERC721A/test.sol\":21400:21472  IERC721Receiver(to).onERC721Received(_msgSender(), from, tokenId, _data) */\n      mload(0x40)\n      dup6\n      0xffffffff\n      and\n      0xe0\n      shl\n      dup2\n      mstore\n      0x04\n      add\n      tag_269\n      swap5\n      swap4\n      swap3\n      swap2\n      swap1\n      tag_270\n      jump\t// in\n    tag_269:\n      0x20\n      mload(0x40)\n      dup1\n      dup4\n      sub\n      dup2\n      0x00\n      dup8\n      gas\n      call\n      swap3\n      pop\n      pop\n      pop\n      dup1\n      iszero\n      tag_271\n      jumpi\n      pop\n      mload(0x40)\n      returndatasize\n      not(0x1f)\n      0x1f\n      dup3\n      add\n      and\n      dup3\n      add\n      dup1\n      0x40\n      mstore\n      pop\n      dup2\n      add\n      swap1\n      tag_272\n      swap2\n      swap1\n      tag_273\n      jump\t// in\n    tag_272:\n      0x01\n    tag_271:\n        /* \"Dcoffer/ERC721A/test.sol\":21396:21876  try IERC721Receiver(to).onERC721Received(_msgSender(), from, tokenId, _data) returns (bytes4 retval) {... */\n      tag_274\n      jumpi\n      returndatasize\n      dup1\n      0x00\n      dup2\n      eq\n      tag_279\n      jumpi\n      mload(0x40)\n      swap2\n      pop\n      and(add(returndatasize, 0x3f), not(0x1f))\n      dup3\n      add\n      0x40\n      mstore\n      returndatasize\n      dup3\n      mstore\n      returndatasize\n      0x00\n      0x20\n      dup5\n      add\n      returndatacopy\n      jump(tag_278)\n    tag_279:\n      0x60\n      swap2\n      pop\n    tag_278:\n      pop\n        /* \"Dcoffer/ERC721A/test.sol\":21651:21652  0 */\n      0x00\n        /* \"Dcoffer/ERC721A/test.sol\":21634:21640  reason */\n      dup2\n        /* \"Dcoffer/ERC721A/test.sol\":21634:21647  reason.length */\n      mload\n        /* \"Dcoffer/ERC721A/test.sol\":21634:21652  reason.length == 0 */\n      sub\n        /* \"Dcoffer/ERC721A/test.sol\":21630:21865  if (reason.length == 0) {... */\n      tag_280\n      jumpi\n        /* \"Dcoffer/ERC721A/test.sol\":21680:21720  TransferToNonERC721ReceiverImplementer() */\n      mload(0x40)\n      0xd1a57ed600000000000000000000000000000000000000000000000000000000\n      dup2\n      mstore\n      0x04\n      add\n      mload(0x40)\n      dup1\n      swap2\n      sub\n      swap1\n      revert\n        /* \"Dcoffer/ERC721A/test.sol\":21630:21865  if (reason.length == 0) {... */\n    tag_280:\n        /* \"Dcoffer/ERC721A/test.sol\":21823:21829  reason */\n      dup1\n        /* \"Dcoffer/ERC721A/test.sol\":21817:21830  mload(reason) */\n      mload\n        /* \"Dcoffer/ERC721A/test.sol\":21808:21814  reason */\n      dup2\n        /* \"Dcoffer/ERC721A/test.sol\":21804:21806  32 */\n      0x20\n        /* \"Dcoffer/ERC721A/test.sol\":21800:21815  add(32, reason) */\n      add\n        /* \"Dcoffer/ERC721A/test.sol\":21793:21831  revert(add(32, reason), mload(reason)) */\n      revert\n        /* \"Dcoffer/ERC721A/test.sol\":21396:21876  try IERC721Receiver(to).onERC721Received(_msgSender(), from, tokenId, _data) returns (bytes4 retval) {... */\n    tag_274:\n        /* \"Dcoffer/ERC721A/test.sol\":21529:21574  IERC721Receiver(to).onERC721Received.selector */\n      shl(0xe0, 0x150b7a02)\n        /* \"Dcoffer/ERC721A/test.sol\":21519:21574  retval == IERC721Receiver(to).onERC721Received.selector */\n      not(0xffffffffffffffffffffffffffffffffffffffffffffffffffffffff)\n      and\n        /* \"Dcoffer/ERC721A/test.sol\":21519:21525  retval */\n      dup2\n        /* \"Dcoffer/ERC721A/test.sol\":21519:21574  retval == IERC721Receiver(to).onERC721Received.selector */\n      not(0xffffffffffffffffffffffffffffffffffffffffffffffffffffffff)\n      and\n      eq\n        /* \"Dcoffer/ERC721A/test.sol\":21512:21574  return retval == IERC721Receiver(to).onERC721Received.selector */\n      swap2\n      pop\n      pop\n        /* \"Dcoffer/ERC721A/test.sol\":21216:21883  function _checkContractOnERC721Received(... */\n      swap5\n      swap4\n      pop\n      pop\n      pop\n      pop\n      jump\t// out\n        /* \"@openzeppelin/contracts/utils/math/SafeMath.sol\":3122:3218  function sub(uint256 a, uint256 b) internal pure returns (uint256) {... */\n    tag_185:\n        /* \"@openzeppelin/contracts/utils/math/SafeMath.sol\":3180:3187  uint256 */\n      0x00\n        /* \"@openzeppelin/contracts/utils/math/SafeMath.sol\":3210:3211  b */\n      dup2\n        /* \"@openzeppelin/contracts/utils/math/SafeMath.sol\":3206:3207  a */\n      dup4\n        /* \"@openzeppelin/contracts/utils/math/SafeMath.sol\":3206:3211  a - b */\n      tag_284\n      swap2\n      swap1\n      tag_285\n      jump\t// in\n    tag_284:\n        /* \"@openzeppelin/contracts/utils/math/SafeMath.sol\":3199:3211  return a - b */\n      swap1\n      pop\n        /* \"@openzeppelin/contracts/utils/math/SafeMath.sol\":3122:3218  function sub(uint256 a, uint256 b) internal pure returns (uint256) {... */\n      swap3\n      swap2\n      pop\n      pop\n      jump\t// out\n        /* \"@openzeppelin/contracts/utils/math/SafeMath.sol\":2755:2851  function add(uint256 a, uint256 b) internal pure returns (uint256) {... */\n    tag_186:\n        /* \"@openzeppelin/contracts/utils/math/SafeMath.sol\":2813:2820  uint256 */\n      0x00\n        /* \"@openzeppelin/contracts/utils/math/SafeMath.sol\":2843:2844  b */\n      dup2\n        /* \"@openzeppelin/contracts/utils/math/SafeMath.sol\":2839:2840  a */\n      dup4\n        /* \"@openzeppelin/contracts/utils/math/SafeMath.sol\":2839:2844  a + b */\n      tag_287\n      swap2\n      swap1\n      tag_288\n      jump\t// in\n    tag_287:\n        /* \"@openzeppelin/contracts/utils/math/SafeMath.sol\":2832:2844  return a + b */\n      swap1\n      pop\n        /* \"@openzeppelin/contracts/utils/math/SafeMath.sol\":2755:2851  function add(uint256 a, uint256 b) internal pure returns (uint256) {... */\n      swap3\n      swap2\n      pop\n      pop\n      jump\t// out\n        /* \"Dcoffer/ERC721A/test.sol\":9108:9293  function _baseURI() internal view virtual returns (string memory) {... */\n    tag_199:\n        /* \"Dcoffer/ERC721A/test.sol\":9159:9172  string memory */\n      0x60\n        /* \"Dcoffer/ERC721A/test.sol\":9185:9275  return 'https://gateway.pinata.cloud/ipfs/QmeyKnvXXMxAuWG5pt35Ez8QhJhR63RDVSwUfsjKayR42Z/' */\n      mload(0x40)\n      dup1\n      0x80\n      add\n      0x40\n      mstore\n      dup1\n      0x51\n      dup2\n      mstore\n      0x20\n      add\n      data_626642f6930f156f677ccaa99d1115840f2527d6f062eede1de4dda1bd081a2d\n      0x51\n      swap2\n      codecopy\n      swap1\n      pop\n        /* \"Dcoffer/ERC721A/test.sol\":9108:9293  function _baseURI() internal view virtual returns (string memory) {... */\n      swap1\n      jump\t// out\n        /* \"@openzeppelin/contracts/utils/Strings.sol\":392:1095  function toString(uint256 value) internal pure returns (string memory) {... */\n    tag_203:\n        /* \"@openzeppelin/contracts/utils/Strings.sol\":448:461  string memory */\n      0x60\n        /* \"@openzeppelin/contracts/utils/Strings.sol\":674:675  0 */\n      0x00\n        /* \"@openzeppelin/contracts/utils/Strings.sol\":665:670  value */\n      dup3\n        /* \"@openzeppelin/contracts/utils/Strings.sol\":665:675  value == 0 */\n      sub\n        /* \"@openzeppelin/contracts/utils/Strings.sol\":661:712  if (value == 0) {... */\n      tag_291\n      jumpi\n        /* \"@openzeppelin/contracts/utils/Strings.sol\":691:701  return \"0\" */\n      mload(0x40)\n      dup1\n      0x40\n      add\n      0x40\n      mstore\n      dup1\n      0x01\n      dup2\n      mstore\n      0x20\n      add\n      0x3000000000000000000000000000000000000000000000000000000000000000\n      dup2\n      mstore\n      pop\n      swap1\n      pop\n      jump(tag_290)\n        /* \"@openzeppelin/contracts/utils/Strings.sol\":661:712  if (value == 0) {... */\n    tag_291:\n        /* \"@openzeppelin/contracts/utils/Strings.sol\":721:733  uint256 temp */\n      0x00\n        /* \"@openzeppelin/contracts/utils/Strings.sol\":736:741  value */\n      dup3\n        /* \"@openzeppelin/contracts/utils/Strings.sol\":721:741  uint256 temp = value */\n      swap1\n      pop\n        /* \"@openzeppelin/contracts/utils/Strings.sol\":751:765  uint256 digits */\n      0x00\n        /* \"@openzeppelin/contracts/utils/Strings.sol\":775:850  while (temp != 0) {... */\n    tag_292:\n        /* \"@openzeppelin/contracts/utils/Strings.sol\":790:791  0 */\n      0x00\n        /* \"@openzeppelin/contracts/utils/Strings.sol\":782:786  temp */\n      dup3\n        /* \"@openzeppelin/contracts/utils/Strings.sol\":782:791  temp != 0 */\n      eq\n        /* \"@openzeppelin/contracts/utils/Strings.sol\":775:850  while (temp != 0) {... */\n      tag_293\n      jumpi\n        /* \"@openzeppelin/contracts/utils/Strings.sol\":807:815  digits++ */\n      dup1\n      dup1\n      tag_294\n      swap1\n      tag_295\n      jump\t// in\n    tag_294:\n      swap2\n      pop\n      pop\n        /* \"@openzeppelin/contracts/utils/Strings.sol\":837:839  10 */\n      0x0a\n        /* \"@openzeppelin/contracts/utils/Strings.sol\":829:839  temp /= 10 */\n      dup3\n      tag_296\n      swap2\n      swap1\n      tag_254\n      jump\t// in\n    tag_296:\n      swap2\n      pop\n        /* \"@openzeppelin/contracts/utils/Strings.sol\":775:850  while (temp != 0) {... */\n      jump(tag_292)\n    tag_293:\n        /* \"@openzeppelin/contracts/utils/Strings.sol\":859:878  bytes memory buffer */\n      0x00\n        /* \"@openzeppelin/contracts/utils/Strings.sol\":891:897  digits */\n      dup2\n        /* \"@openzeppelin/contracts/utils/Strings.sol\":881:898  new bytes(digits) */\n      0xffffffffffffffff\n      dup2\n      gt\n      iszero\n      tag_297\n      jumpi\n      tag_298\n      tag_299\n      jump\t// in\n    tag_298:\n    tag_297:\n      mload(0x40)\n      swap1\n      dup1\n      dup3\n      mstore\n      dup1\n      0x1f\n      add\n      not(0x1f)\n      and\n      0x20\n      add\n      dup3\n      add\n      0x40\n      mstore\n      dup1\n      iszero\n      tag_300\n      jumpi\n      dup2\n      0x20\n      add\n      0x01\n      dup3\n      mul\n      dup1\n      calldatasize\n      dup4\n      calldatacopy\n      dup1\n      dup3\n      add\n      swap2\n      pop\n      pop\n      swap1\n      pop\n    tag_300:\n      pop\n        /* \"@openzeppelin/contracts/utils/Strings.sol\":859:898  bytes memory buffer = new bytes(digits) */\n      swap1\n      pop\n        /* \"@openzeppelin/contracts/utils/Strings.sol\":908:1058  while (value != 0) {... */\n    tag_301:\n        /* \"@openzeppelin/contracts/utils/Strings.sol\":924:925  0 */\n      0x00\n        /* \"@openzeppelin/contracts/utils/Strings.sol\":915:920  value */\n      dup6\n        /* \"@openzeppelin/contracts/utils/Strings.sol\":915:925  value != 0 */\n      eq\n        /* \"@openzeppelin/contracts/utils/Strings.sol\":908:1058  while (value != 0) {... */\n      tag_302\n      jumpi\n        /* \"@openzeppelin/contracts/utils/Strings.sol\":951:952  1 */\n      0x01\n        /* \"@openzeppelin/contracts/utils/Strings.sol\":941:952  digits -= 1 */\n      dup3\n      tag_303\n      swap2\n      swap1\n      tag_285\n      jump\t// in\n    tag_303:\n      swap2\n      pop\n        /* \"@openzeppelin/contracts/utils/Strings.sol\":1017:1019  10 */\n      0x0a\n        /* \"@openzeppelin/contracts/utils/Strings.sol\":1009:1014  value */\n      dup6\n        /* \"@openzeppelin/contracts/utils/Strings.sol\":1009:1019  value % 10 */\n      tag_304\n      swap2\n      swap1\n      tag_213\n      jump\t// in\n    tag_304:\n        /* \"@openzeppelin/contracts/utils/Strings.sol\":996:998  48 */\n      0x30\n        /* \"@openzeppelin/contracts/utils/Strings.sol\":996:1020  48 + uint256(value % 10) */\n      tag_305\n      swap2\n      swap1\n      tag_288\n      jump\t// in\n    tag_305:\n        /* \"@openzeppelin/contracts/utils/Strings.sol\":983:1022  bytes1(uint8(48 + uint256(value % 10))) */\n      0xf8\n      shl\n        /* \"@openzeppelin/contracts/utils/Strings.sol\":966:972  buffer */\n      dup2\n        /* \"@openzeppelin/contracts/utils/Strings.sol\":973:979  digits */\n      dup4\n        /* \"@openzeppelin/contracts/utils/Strings.sol\":966:980  buffer[digits] */\n      dup2\n      mload\n      dup2\n      lt\n      tag_306\n      jumpi\n      tag_307\n      tag_308\n      jump\t// in\n    tag_307:\n    tag_306:\n      0x20\n      add\n      add\n        /* \"@openzeppelin/contracts/utils/Strings.sol\":966:1022  buffer[digits] = bytes1(uint8(48 + uint256(value % 10))) */\n      swap1\n      not(0xffffffffffffffffffffffffffffffffffffffffffffffffffffffffffffff)\n      and\n      swap1\n      dup2\n      0x00\n      byte\n      swap1\n      mstore8\n      pop\n        /* \"@openzeppelin/contracts/utils/Strings.sol\":1045:1047  10 */\n      0x0a\n        /* \"@openzeppelin/contracts/utils/Strings.sol\":1036:1047  value /= 10 */\n      dup6\n      tag_309\n      swap2\n      swap1\n      tag_254\n      jump\t// in\n    tag_309:\n      swap5\n      pop\n        /* \"@openzeppelin/contracts/utils/Strings.sol\":908:1058  while (value != 0) {... */\n      jump(tag_301)\n    tag_302:\n        /* \"@openzeppelin/contracts/utils/Strings.sol\":1081:1087  buffer */\n      dup1\n        /* \"@openzeppelin/contracts/utils/Strings.sol\":1067:1088  return string(buffer) */\n      swap4\n      pop\n      pop\n      pop\n      pop\n        /* \"@openzeppelin/contracts/utils/Strings.sol\":392:1095  function toString(uint256 value) internal pure returns (string memory) {... */\n    tag_290:\n      swap2\n      swap1\n      pop\n      jump\t// out\n        /* \"Dcoffer/ERC721A/test.sol\":22531:22690  function _beforeTokenTransfers(... */\n    tag_243:\n      pop\n      pop\n      pop\n      pop\n      jump\t// out\n        /* \"Dcoffer/ERC721A/test.sol\":23349:23507  function _afterTokenTransfers(... */\n    tag_248:\n      pop\n      pop\n      pop\n      pop\n      jump\t// out\n    tag_256:\n      mload(0x40)\n      dup1\n      0x60\n      add\n      0x40\n      mstore\n      dup1\n      and(0xffffffffffffffffffffffffffffffffffffffff, 0x00)\n      dup2\n      mstore\n      0x20\n      add\n      and(0xffffffffffffffff, 0x00)\n      dup2\n      mstore\n      0x20\n      add\n      iszero(iszero(0x00))\n      dup2\n      mstore\n      pop\n      swap1\n      jump\t// out\n        /* \"#utility.yul\":7:82   */\n    tag_312:\n        /* \"#utility.yul\":40:46   */\n      0x00\n        /* \"#utility.yul\":73:75   */\n      0x40\n        /* \"#utility.yul\":67:76   */\n      mload\n        /* \"#utility.yul\":57:76   */\n      swap1\n      pop\n        /* \"#utility.yul\":7:82   */\n      swap1\n      jump\t// out\n        /* \"#utility.yul\":88:205   */\n    tag_313:\n        /* \"#utility.yul\":197:198   */\n      0x00\n        /* \"#utility.yul\":194:195   */\n      dup1\n        /* \"#utility.yul\":187:199   */\n      revert\n        /* \"#utility.yul\":211:328   */\n    tag_314:\n        /* \"#utility.yul\":320:321   */\n      0x00\n        /* \"#utility.yul\":317:318   */\n      dup1\n        /* \"#utility.yul\":310:322   */\n      revert\n        /* \"#utility.yul\":334:483   */\n    tag_315:\n        /* \"#utility.yul\":370:377   */\n      0x00\n        /* \"#utility.yul\":410:476   */\n      0xffffffff00000000000000000000000000000000000000000000000000000000\n        /* \"#utility.yul\":403:408   */\n      dup3\n        /* \"#utility.yul\":399:477   */\n      and\n        /* \"#utility.yul\":388:477   */\n      swap1\n      pop\n        /* \"#utility.yul\":334:483   */\n      swap2\n      swap1\n      pop\n      jump\t// out\n        /* \"#utility.yul\":489:609   */\n    tag_316:\n        /* \"#utility.yul\":561:584   */\n      tag_359\n        /* \"#utility.yul\":578:583   */\n      dup2\n        /* \"#utility.yul\":561:584   */\n      tag_315\n      jump\t// in\n    tag_359:\n        /* \"#utility.yul\":554:559   */\n      dup2\n        /* \"#utility.yul\":551:585   */\n      eq\n        /* \"#utility.yul\":541:603   */\n      tag_360\n      jumpi\n        /* \"#utility.yul\":599:600   */\n      0x00\n        /* \"#utility.yul\":596:597   */\n      dup1\n        /* \"#utility.yul\":589:601   */\n      revert\n        /* \"#utility.yul\":541:603   */\n    tag_360:\n        /* \"#utility.yul\":489:609   */\n      pop\n      jump\t// out\n        /* \"#utility.yul\":615:752   */\n    tag_317:\n        /* \"#utility.yul\":660:665   */\n      0x00\n        /* \"#utility.yul\":698:704   */\n      dup2\n        /* \"#utility.yul\":685:705   */\n      calldataload\n        /* \"#utility.yul\":676:705   */\n      swap1\n      pop\n        /* \"#utility.yul\":714:746   */\n      tag_362\n        /* \"#utility.yul\":740:745   */\n      dup2\n        /* \"#utility.yul\":714:746   */\n      tag_316\n      jump\t// in\n    tag_362:\n        /* \"#utility.yul\":615:752   */\n      swap3\n      swap2\n      pop\n      pop\n      jump\t// out\n        /* \"#utility.yul\":758:1085   */\n    tag_30:\n        /* \"#utility.yul\":816:822   */\n      0x00\n        /* \"#utility.yul\":865:867   */\n      0x20\n        /* \"#utility.yul\":853:862   */\n      dup3\n        /* \"#utility.yul\":844:851   */\n      dup5\n        /* \"#utility.yul\":840:863   */\n      sub\n        /* \"#utility.yul\":836:868   */\n      slt\n        /* \"#utility.yul\":833:952   */\n      iszero\n      tag_364\n      jumpi\n        /* \"#utility.yul\":871:950   */\n      tag_365\n      tag_313\n      jump\t// in\n    tag_365:\n        /* \"#utility.yul\":833:952   */\n    tag_364:\n        /* \"#utility.yul\":991:992   */\n      0x00\n        /* \"#utility.yul\":1016:1068   */\n      tag_366\n        /* \"#utility.yul\":1060:1067   */\n      dup5\n        /* \"#utility.yul\":1051:1057   */\n      dup3\n        /* \"#utility.yul\":1040:1049   */\n      dup6\n        /* \"#utility.yul\":1036:1058   */\n      add\n        /* \"#utility.yul\":1016:1068   */\n      tag_317\n      jump\t// in\n    tag_366:\n        /* \"#utility.yul\":1006:1068   */\n      swap2\n      pop\n        /* \"#utility.yul\":962:1078   */\n      pop\n        /* \"#utility.yul\":758:1085   */\n      swap3\n      swap2\n      pop\n      pop\n      jump\t// out\n        /* \"#utility.yul\":1091:1181   */\n    tag_318:\n        /* \"#utility.yul\":1125:1132   */\n      0x00\n        /* \"#utility.yul\":1168:1173   */\n      dup2\n        /* \"#utility.yul\":1161:1174   */\n      iszero\n        /* \"#utility.yul\":1154:1175   */\n      iszero\n        /* \"#utility.yul\":1143:1175   */\n      swap1\n      pop\n        /* \"#utility.yul\":1091:1181   */\n      swap2\n      swap1\n      pop\n      jump\t// out\n        /* \"#utility.yul\":1187:1296   */\n    tag_319:\n        /* \"#utility.yul\":1268:1289   */\n      tag_369\n        /* \"#utility.yul\":1283:1288   */\n      dup2\n        /* \"#utility.yul\":1268:1289   */\n      tag_318\n      jump\t// in\n    tag_369:\n        /* \"#utility.yul\":1263:1266   */\n      dup3\n        /* \"#utility.yul\":1256:1290   */\n      mstore\n        /* \"#utility.yul\":1187:1296   */\n      pop\n      pop\n      jump\t// out\n        /* \"#utility.yul\":1302:1512   */\n    tag_33:\n        /* \"#utility.yul\":1389:1393   */\n      0x00\n        /* \"#utility.yul\":1427:1429   */\n      0x20\n        /* \"#utility.yul\":1416:1425   */\n      dup3\n        /* \"#utility.yul\":1412:1430   */\n      add\n        /* \"#utility.yul\":1404:1430   */\n      swap1\n      pop\n        /* \"#utility.yul\":1440:1505   */\n      tag_371\n        /* \"#utility.yul\":1502:1503   */\n      0x00\n        /* \"#utility.yul\":1491:1500   */\n      dup4\n        /* \"#utility.yul\":1487:1504   */\n      add\n        /* \"#utility.yul\":1478:1484   */\n      dup5\n        /* \"#utility.yul\":1440:1505   */\n      tag_319\n      jump\t// in\n    tag_371:\n        /* \"#utility.yul\":1302:1512   */\n      swap3\n      swap2\n      pop\n      pop\n      jump\t// out\n        /* \"#utility.yul\":1518:1617   */\n    tag_320:\n        /* \"#utility.yul\":1570:1576   */\n      0x00\n        /* \"#utility.yul\":1604:1609   */\n      dup2\n        /* \"#utility.yul\":1598:1610   */\n      mload\n        /* \"#utility.yul\":1588:1610   */\n      swap1\n      pop\n        /* \"#utility.yul\":1518:1617   */\n      swap2\n      swap1\n      pop\n      jump\t// out\n        /* \"#utility.yul\":1623:1792   */\n    tag_321:\n        /* \"#utility.yul\":1707:1718   */\n      0x00\n        /* \"#utility.yul\":1741:1747   */\n      dup3\n        /* \"#utility.yul\":1736:1739   */\n      dup3\n        /* \"#utility.yul\":1729:1748   */\n      mstore\n        /* \"#utility.yul\":1781:1785   */\n      0x20\n        /* \"#utility.yul\":1776:1779   */\n      dup3\n        /* \"#utility.yul\":1772:1786   */\n      add\n        /* \"#utility.yul\":1757:1786   */\n      swap1\n      pop\n        /* \"#utility.yul\":1623:1792   */\n      swap3\n      swap2\n      pop\n      pop\n      jump\t// out\n        /* \"#utility.yul\":1798:2044   */\n    tag_322:\n        /* \"#utility.yul\":1879:1880   */\n      0x00\n        /* \"#utility.yul\":1889:2002   */\n    tag_375:\n        /* \"#utility.yul\":1903:1909   */\n      dup4\n        /* \"#utility.yul\":1900:1901   */\n      dup2\n        /* \"#utility.yul\":1897:1910   */\n      lt\n        /* \"#utility.yul\":1889:2002   */\n      iszero\n      tag_377\n      jumpi\n        /* \"#utility.yul\":1988:1989   */\n      dup1\n        /* \"#utility.yul\":1983:1986   */\n      dup3\n        /* \"#utility.yul\":1979:1990   */\n      add\n        /* \"#utility.yul\":1973:1991   */\n      mload\n        /* \"#utility.yul\":1969:1970   */\n      dup2\n        /* \"#utility.yul\":1964:1967   */\n      dup5\n        /* \"#utility.yul\":1960:1971   */\n      add\n        /* \"#utility.yul\":1953:1992   */\n      mstore\n        /* \"#utility.yul\":1925:1927   */\n      0x20\n        /* \"#utility.yul\":1922:1923   */\n      dup2\n        /* \"#utility.yul\":1918:1928   */\n      add\n        /* \"#utility.yul\":1913:1928   */\n      swap1\n      pop\n        /* \"#utility.yul\":1889:2002   */\n      jump(tag_375)\n    tag_377:\n        /* \"#utility.yul\":2036:2037   */\n      0x00\n        /* \"#utility.yul\":2027:2033   */\n      dup5\n        /* \"#utility.yul\":2022:2025   */\n      dup5\n        /* \"#utility.yul\":2018:2034   */\n      add\n        /* \"#utility.yul\":2011:2038   */\n      mstore\n        /* \"#utility.yul\":1860:2044   */\n      pop\n        /* \"#utility.yul\":1798:2044   */\n      pop\n      pop\n      pop\n      jump\t// out\n        /* \"#utility.yul\":2050:2152   */\n    tag_323:\n        /* \"#utility.yul\":2091:2097   */\n      0x00\n        /* \"#utility.yul\":2142:2144   */\n      0x1f\n        /* \"#utility.yul\":2138:2145   */\n      not\n        /* \"#utility.yul\":2133:2135   */\n      0x1f\n        /* \"#utility.yul\":2126:2131   */\n      dup4\n        /* \"#utility.yul\":2122:2136   */\n      add\n        /* \"#utility.yul\":2118:2146   */\n      and\n        /* \"#utility.yul\":2108:2146   */\n      swap1\n      pop\n        /* \"#utility.yul\":2050:2152   */\n      swap2\n      swap1\n      pop\n      jump\t// out\n        /* \"#utility.yul\":2158:2535   */\n    tag_324:\n        /* \"#utility.yul\":2246:2249   */\n      0x00\n        /* \"#utility.yul\":2274:2313   */\n      tag_380\n        /* \"#utility.yul\":2307:2312   */\n      dup3\n        /* \"#utility.yul\":2274:2313   */\n      tag_320\n      jump\t// in\n    tag_380:\n        /* \"#utility.yul\":2329:2400   */\n      tag_381\n        /* \"#utility.yul\":2393:2399   */\n      dup2\n        /* \"#utility.yul\":2388:2391   */\n      dup6\n        /* \"#utility.yul\":2329:2400   */\n      tag_321\n      jump\t// in\n    tag_381:\n        /* \"#utility.yul\":2322:2400   */\n      swap4\n      pop\n        /* \"#utility.yul\":2409:2474   */\n      tag_382\n        /* \"#utility.yul\":2467:2473   */\n      dup2\n        /* \"#utility.yul\":2462:2465   */\n      dup6\n        /* \"#utility.yul\":2455:2459   */\n      0x20\n        /* \"#utility.yul\":2448:2453   */\n      dup7\n        /* \"#utility.yul\":2444:2460   */\n      add\n        /* \"#utility.yul\":2409:2474   */\n      tag_322\n      jump\t// in\n    tag_382:\n        /* \"#utility.yul\":2499:2528   */\n      tag_383\n        /* \"#utility.yul\":2521:2527   */\n      dup2\n        /* \"#utility.yul\":2499:2528   */\n      tag_323\n      jump\t// in\n    tag_383:\n        /* \"#utility.yul\":2494:2497   */\n      dup5\n        /* \"#utility.yul\":2490:2529   */\n      add\n        /* \"#utility.yul\":2483:2529   */\n      swap2\n      pop\n        /* \"#utility.yul\":2250:2535   */\n      pop\n        /* \"#utility.yul\":2158:2535   */\n      swap3\n      swap2\n      pop\n      pop\n      jump\t// out\n        /* \"#utility.yul\":2541:2854   */\n    tag_37:\n        /* \"#utility.yul\":2654:2658   */\n      0x00\n        /* \"#utility.yul\":2692:2694   */\n      0x20\n        /* \"#utility.yul\":2681:2690   */\n      dup3\n        /* \"#utility.yul\":2677:2695   */\n      add\n        /* \"#utility.yul\":2669:2695   */\n      swap1\n      pop\n        /* \"#utility.yul\":2741:2750   */\n      dup2\n        /* \"#utility.yul\":2735:2739   */\n      dup2\n        /* \"#utility.yul\":2731:2751   */\n      sub\n        /* \"#utility.yul\":2727:2728   */\n      0x00\n        /* \"#utility.yul\":2716:2725   */\n      dup4\n        /* \"#utility.yul\":2712:2729   */\n      add\n        /* \"#utility.yul\":2705:2752   */\n      mstore\n        /* \"#utility.yul\":2769:2847   */\n      tag_385\n        /* \"#utility.yul\":2842:2846   */\n      dup2\n        /* \"#utility.yul\":2833:2839   */\n      dup5\n        /* \"#utility.yul\":2769:2847   */\n      tag_324\n      jump\t// in\n    tag_385:\n        /* \"#utility.yul\":2761:2847   */\n      swap1\n      pop\n        /* \"#utility.yul\":2541:2854   */\n      swap3\n      swap2\n      pop\n      pop\n      jump\t// out\n        /* \"#utility.yul\":2860:2937   */\n    tag_325:\n        /* \"#utility.yul\":2897:2904   */\n      0x00\n        /* \"#utility.yul\":2926:2931   */\n      dup2\n        /* \"#utility.yul\":2915:2931   */\n      swap1\n      pop\n        /* \"#utility.yul\":2860:2937   */\n      swap2\n      swap1\n      pop\n      jump\t// out\n        /* \"#utility.yul\":2943:3065   */\n    tag_326:\n        /* \"#utility.yul\":3016:3040   */\n      tag_388\n        /* \"#utility.yul\":3034:3039   */\n      dup2\n        /* \"#utility.yul\":3016:3040   */\n      tag_325\n      jump\t// in\n    tag_388:\n        /* \"#utility.yul\":3009:3014   */\n      dup2\n        /* \"#utility.yul\":3006:3041   */\n      eq\n        /* \"#utility.yul\":2996:3059   */\n      tag_389\n      jumpi\n        /* \"#utility.yul\":3055:3056   */\n      0x00\n        /* \"#utility.yul\":3052:3053   */\n      dup1\n        /* \"#utility.yul\":3045:3057   */\n      revert\n        /* \"#utility.yul\":2996:3059   */\n    tag_389:\n        /* \"#utility.yul\":2943:3065   */\n      pop\n      jump\t// out\n        /* \"#utility.yul\":3071:3210   */\n    tag_327:\n        /* \"#utility.yul\":3117:3122   */\n      0x00\n        /* \"#utility.yul\":3155:3161   */\n      dup2\n        /* \"#utility.yul\":3142:3162   */\n      calldataload\n        /* \"#utility.yul\":3133:3162   */\n      swap1\n      pop\n        /* \"#utility.yul\":3171:3204   */\n      tag_391\n        /* \"#utility.yul\":3198:3203   */\n      dup2\n        /* \"#utility.yul\":3171:3204   */\n      tag_326\n      jump\t// in\n    tag_391:\n        /* \"#utility.yul\":3071:3210   */\n      swap3\n      swap2\n      pop\n      pop\n      jump\t// out\n        /* \"#utility.yul\":3216:3545   */\n    tag_40:\n        /* \"#utility.yul\":3275:3281   */\n      0x00\n        /* \"#utility.yul\":3324:3326   */\n      0x20\n        /* \"#utility.yul\":3312:3321   */\n      dup3\n        /* \"#utility.yul\":3303:3310   */\n      dup5\n        /* \"#utility.yul\":3299:3322   */\n      sub\n        /* \"#utility.yul\":3295:3327   */\n      slt\n        /* \"#utility.yul\":3292:3411   */\n      iszero\n      tag_393\n      jumpi\n        /* \"#utility.yul\":3330:3409   */\n      tag_394\n      tag_313\n      jump\t// in\n    tag_394:\n        /* \"#utility.yul\":3292:3411   */\n    tag_393:\n        /* \"#utility.yul\":3450:3451   */\n      0x00\n        /* \"#utility.yul\":3475:3528   */\n      tag_395\n        /* \"#utility.yul\":3520:3527   */\n      dup5\n        /* \"#utility.yul\":3511:3517   */\n      dup3\n        /* \"#utility.yul\":3500:3509   */\n      dup6\n        /* \"#utility.yul\":3496:3518   */\n      add\n        /* \"#utility.yul\":3475:3528   */\n      tag_327\n      jump\t// in\n    tag_395:\n        /* \"#utility.yul\":3465:3528   */\n      swap2\n      pop\n        /* \"#utility.yul\":3421:3538   */\n      pop\n        /* \"#utility.yul\":3216:3545   */\n      swap3\n      swap2\n      pop\n      pop\n      jump\t// out\n        /* \"#utility.yul\":3551:3677   */\n    tag_328:\n        /* \"#utility.yul\":3588:3595   */\n      0x00\n        /* \"#utility.yul\":3628:3670   */\n      0xffffffffffffffffffffffffffffffffffffffff\n        /* \"#utility.yul\":3621:3626   */\n      dup3\n        /* \"#utility.yul\":3617:3671   */\n      and\n        /* \"#utility.yul\":3606:3671   */\n      swap1\n      pop\n        /* \"#utility.yul\":3551:3677   */\n      swap2\n      swap1\n      pop\n      jump\t// out\n        /* \"#utility.yul\":3683:3779   */\n    tag_329:\n        /* \"#utility.yul\":3720:3727   */\n      0x00\n        /* \"#utility.yul\":3749:3773   */\n      tag_398\n        /* \"#utility.yul\":3767:3772   */\n      dup3\n        /* \"#utility.yul\":3749:3773   */\n      tag_328\n      jump\t// in\n    tag_398:\n        /* \"#utility.yul\":3738:3773   */\n      swap1\n      pop\n        /* \"#utility.yul\":3683:3779   */\n      swap2\n      swap1\n      pop\n      jump\t// out\n        /* \"#utility.yul\":3785:3903   */\n    tag_330:\n        /* \"#utility.yul\":3872:3896   */\n      tag_400\n        /* \"#utility.yul\":3890:3895   */\n      dup2\n        /* \"#utility.yul\":3872:3896   */\n      tag_329\n      jump\t// in\n    tag_400:\n        /* \"#utility.yul\":3867:3870   */\n      dup3\n        /* \"#utility.yul\":3860:3897   */\n      mstore\n        /* \"#utility.yul\":3785:3903   */\n      pop\n      pop\n      jump\t// out\n        /* \"#utility.yul\":3909:4131   */\n    tag_43:\n        /* \"#utility.yul\":4002:4006   */\n      0x00\n        /* \"#utility.yul\":4040:4042   */\n      0x20\n        /* \"#utility.yul\":4029:4038   */\n      dup3\n        /* \"#utility.yul\":4025:4043   */\n      add\n        /* \"#utility.yul\":4017:4043   */\n      swap1\n      pop\n        /* \"#utility.yul\":4053:4124   */\n      tag_402\n        /* \"#utility.yul\":4121:4122   */\n      0x00\n        /* \"#utility.yul\":4110:4119   */\n      dup4\n        /* \"#utility.yul\":4106:4123   */\n      add\n        /* \"#utility.yul\":4097:4103   */\n      dup5\n        /* \"#utility.yul\":4053:4124   */\n      tag_330\n      jump\t// in\n    tag_402:\n        /* \"#utility.yul\":3909:4131   */\n      swap3\n      swap2\n      pop\n      pop\n      jump\t// out\n        /* \"#utility.yul\":4137:4259   */\n    tag_331:\n        /* \"#utility.yul\":4210:4234   */\n      tag_404\n        /* \"#utility.yul\":4228:4233   */\n      dup2\n        /* \"#utility.yul\":4210:4234   */\n      tag_329\n      jump\t// in\n    tag_404:\n        /* \"#utility.yul\":4203:4208   */\n      dup2\n        /* \"#utility.yul\":4200:4235   */\n      eq\n        /* \"#utility.yul\":4190:4253   */\n      tag_405\n      jumpi\n        /* \"#utility.yul\":4249:4250   */\n      0x00\n        /* \"#utility.yul\":4246:4247   */\n      dup1\n        /* \"#utility.yul\":4239:4251   */\n      revert\n        /* \"#utility.yul\":4190:4253   */\n    tag_405:\n        /* \"#utility.yul\":4137:4259   */\n      pop\n      jump\t// out\n        /* \"#utility.yul\":4265:4404   */\n    tag_332:\n        /* \"#utility.yul\":4311:4316   */\n      0x00\n        /* \"#utility.yul\":4349:4355   */\n      dup2\n        /* \"#utility.yul\":4336:4356   */\n      calldataload\n        /* \"#utility.yul\":4327:4356   */\n      swap1\n      pop\n        /* \"#utility.yul\":4365:4398   */\n      tag_407\n        /* \"#utility.yul\":4392:4397   */\n      dup2\n        /* \"#utility.yul\":4365:4398   */\n      tag_331\n      jump\t// in\n    tag_407:\n        /* \"#utility.yul\":4265:4404   */\n      swap3\n      swap2\n      pop\n      pop\n      jump\t// out\n        /* \"#utility.yul\":4410:4884   */\n    tag_46:\n        /* \"#utility.yul\":4478:4484   */\n      0x00\n        /* \"#utility.yul\":4486:4492   */\n      dup1\n        /* \"#utility.yul\":4535:4537   */\n      0x40\n        /* \"#utility.yul\":4523:4532   */\n      dup4\n        /* \"#utility.yul\":4514:4521   */\n      dup6\n        /* \"#utility.yul\":4510:4533   */\n      sub\n        /* \"#utility.yul\":4506:4538   */\n      slt\n        /* \"#utility.yul\":4503:4622   */\n      iszero\n      tag_409\n      jumpi\n        /* \"#utility.yul\":4541:4620   */\n      tag_410\n      tag_313\n      jump\t// in\n    tag_410:\n        /* \"#utility.yul\":4503:4622   */\n    tag_409:\n        /* \"#utility.yul\":4661:4662   */\n      0x00\n        /* \"#utility.yul\":4686:4739   */\n      tag_411\n        /* \"#utility.yul\":4731:4738   */\n      dup6\n        /* \"#utility.yul\":4722:4728   */\n      dup3\n        /* \"#utility.yul\":4711:4720   */\n      dup7\n        /* \"#utility.yul\":4707:4729   */\n      add\n        /* \"#utility.yul\":4686:4739   */\n      tag_332\n      jump\t// in\n    tag_411:\n        /* \"#utility.yul\":4676:4739   */\n      swap3\n      pop\n        /* \"#utility.yul\":4632:4749   */\n      pop\n        /* \"#utility.yul\":4788:4790   */\n      0x20\n        /* \"#utility.yul\":4814:4867   */\n      tag_412\n        /* \"#utility.yul\":4859:4866   */\n      dup6\n        /* \"#utility.yul\":4850:4856   */\n      dup3\n        /* \"#utility.yul\":4839:4848   */\n      dup7\n        /* \"#utility.yul\":4835:4857   */\n      add\n        /* \"#utility.yul\":4814:4867   */\n      tag_327\n      jump\t// in\n    tag_412:\n        /* \"#utility.yul\":4804:4867   */\n      swap2\n      pop\n        /* \"#utility.yul\":4759:4877   */\n      pop\n        /* \"#utility.yul\":4410:4884   */\n      swap3\n      pop\n      swap3\n      swap1\n      pop\n      jump\t// out\n        /* \"#utility.yul\":4890:5008   */\n    tag_333:\n        /* \"#utility.yul\":4977:5001   */\n      tag_414\n        /* \"#utility.yul\":4995:5000   */\n      dup2\n        /* \"#utility.yul\":4977:5001   */\n      tag_325\n      jump\t// in\n    tag_414:\n        /* \"#utility.yul\":4972:4975   */\n      dup3\n        /* \"#utility.yul\":4965:5002   */\n      mstore\n        /* \"#utility.yul\":4890:5008   */\n      pop\n      pop\n      jump\t// out\n        /* \"#utility.yul\":5014:5236   */\n    tag_51:\n        /* \"#utility.yul\":5107:5111   */\n      0x00\n        /* \"#utility.yul\":5145:5147   */\n      0x20\n        /* \"#utility.yul\":5134:5143   */\n      dup3\n        /* \"#utility.yul\":5130:5148   */\n      add\n        /* \"#utility.yul\":5122:5148   */\n      swap1\n      pop\n        /* \"#utility.yul\":5158:5229   */\n      tag_416\n        /* \"#utility.yul\":5226:5227   */\n      0x00\n        /* \"#utility.yul\":5215:5224   */\n      dup4\n        /* \"#utility.yul\":5211:5228   */\n      add\n        /* \"#utility.yul\":5202:5208   */\n      dup5\n        /* \"#utility.yul\":5158:5229   */\n      tag_333\n      jump\t// in\n    tag_416:\n        /* \"#utility.yul\":5014:5236   */\n      swap3\n      swap2\n      pop\n      pop\n      jump\t// out\n        /* \"#utility.yul\":5242:5861   */\n    tag_54:\n        /* \"#utility.yul\":5319:5325   */\n      0x00\n        /* \"#utility.yul\":5327:5333   */\n      dup1\n        /* \"#utility.yul\":5335:5341   */\n      0x00\n        /* \"#utility.yul\":5384:5386   */\n      0x60\n        /* \"#utility.yul\":5372:5381   */\n      dup5\n        /* \"#utility.yul\":5363:5370   */\n      dup7\n        /* \"#utility.yul\":5359:5382   */\n      sub\n        /* \"#utility.yul\":5355:5387   */\n      slt\n        /* \"#utility.yul\":5352:5471   */\n      iszero\n      tag_418\n      jumpi\n        /* \"#utility.yul\":5390:5469   */\n      tag_419\n      tag_313\n      jump\t// in\n    tag_419:\n        /* \"#utility.yul\":5352:5471   */\n    tag_418:\n        /* \"#utility.yul\":5510:5511   */\n      0x00\n        /* \"#utility.yul\":5535:5588   */\n      tag_420\n        /* \"#utility.yul\":5580:5587   */\n      dup7\n        /* \"#utility.yul\":5571:5577   */\n      dup3\n        /* \"#utility.yul\":5560:5569   */\n      dup8\n        /* \"#utility.yul\":5556:5578   */\n      add\n        /* \"#utility.yul\":5535:5588   */\n      tag_332\n      jump\t// in\n    tag_420:\n        /* \"#utility.yul\":5525:5588   */\n      swap4\n      pop\n        /* \"#utility.yul\":5481:5598   */\n      pop\n        /* \"#utility.yul\":5637:5639   */\n      0x20\n        /* \"#utility.yul\":5663:5716   */\n      tag_421\n        /* \"#utility.yul\":5708:5715   */\n      dup7\n        /* \"#utility.yul\":5699:5705   */\n      dup3\n        /* \"#utility.yul\":5688:5697   */\n      dup8\n        /* \"#utility.yul\":5684:5706   */\n      add\n        /* \"#utility.yul\":5663:5716   */\n      tag_332\n      jump\t// in\n    tag_421:\n        /* \"#utility.yul\":5653:5716   */\n      swap3\n      pop\n        /* \"#utility.yul\":5608:5726   */\n      pop\n        /* \"#utility.yul\":5765:5767   */\n      0x40\n        /* \"#utility.yul\":5791:5844   */\n      tag_422\n        /* \"#utility.yul\":5836:5843   */\n      dup7\n        /* \"#utility.yul\":5827:5833   */\n      dup3\n        /* \"#utility.yul\":5816:5825   */\n      dup8\n        /* \"#utility.yul\":5812:5834   */\n      add\n        /* \"#utility.yul\":5791:5844   */\n      tag_327\n      jump\t// in\n    tag_422:\n        /* \"#utility.yul\":5781:5844   */\n      swap2\n      pop\n        /* \"#utility.yul\":5736:5854   */\n      pop\n        /* \"#utility.yul\":5242:5861   */\n      swap3\n      pop\n      swap3\n      pop\n      swap3\n      jump\t// out\n        /* \"#utility.yul\":5867:6196   */\n    tag_75:\n        /* \"#utility.yul\":5926:5932   */\n      0x00\n        /* \"#utility.yul\":5975:5977   */\n      0x20\n        /* \"#utility.yul\":5963:5972   */\n      dup3\n        /* \"#utility.yul\":5954:5961   */\n      dup5\n        /* \"#utility.yul\":5950:5973   */\n      sub\n        /* \"#utility.yul\":5946:5978   */\n      slt\n        /* \"#utility.yul\":5943:6062   */\n      iszero\n      tag_424\n      jumpi\n        /* \"#utility.yul\":5981:6060   */\n      tag_425\n      tag_313\n      jump\t// in\n    tag_425:\n        /* \"#utility.yul\":5943:6062   */\n    tag_424:\n        /* \"#utility.yul\":6101:6102   */\n      0x00\n        /* \"#utility.yul\":6126:6179   */\n      tag_426\n        /* \"#utility.yul\":6171:6178   */\n      dup5\n        /* \"#utility.yul\":6162:6168   */\n      dup3\n        /* \"#utility.yul\":6151:6160   */\n      dup6\n        /* \"#utility.yul\":6147:6169   */\n      add\n        /* \"#utility.yul\":6126:6179   */\n      tag_332\n      jump\t// in\n    tag_426:\n        /* \"#utility.yul\":6116:6179   */\n      swap2\n      pop\n        /* \"#utility.yul\":6072:6189   */\n      pop\n        /* \"#utility.yul\":5867:6196   */\n      swap3\n      swap2\n      pop\n      pop\n      jump\t// out\n        /* \"#utility.yul\":6202:6318   */\n    tag_334:\n        /* \"#utility.yul\":6272:6293   */\n      tag_428\n        /* \"#utility.yul\":6287:6292   */\n      dup2\n        /* \"#utility.yul\":6272:6293   */\n      tag_318\n      jump\t// in\n    tag_428:\n        /* \"#utility.yul\":6265:6270   */\n      dup2\n        /* \"#utility.yul\":6262:6294   */\n      eq\n        /* \"#utility.yul\":6252:6312   */\n      tag_429\n      jumpi\n        /* \"#utility.yul\":6308:6309   */\n      0x00\n        /* \"#utility.yul\":6305:6306   */\n      dup1\n        /* \"#utility.yul\":6298:6310   */\n      revert\n        /* \"#utility.yul\":6252:6312   */\n    tag_429:\n        /* \"#utility.yul\":6202:6318   */\n      pop\n      jump\t// out\n        /* \"#utility.yul\":6324:6457   */\n    tag_335:\n        /* \"#utility.yul\":6367:6372   */\n      0x00\n        /* \"#utility.yul\":6405:6411   */\n      dup2\n        /* \"#utility.yul\":6392:6412   */\n      calldataload\n        /* \"#utility.yul\":6383:6412   */\n      swap1\n      pop\n        /* \"#utility.yul\":6421:6451   */\n      tag_431\n        /* \"#utility.yul\":6445:6450   */\n      dup2\n        /* \"#utility.yul\":6421:6451   */\n      tag_334\n      jump\t// in\n    tag_431:\n        /* \"#utility.yul\":6324:6457   */\n      swap3\n      swap2\n      pop\n      pop\n      jump\t// out\n        /* \"#utility.yul\":6463:6931   */\n    tag_89:\n        /* \"#utility.yul\":6528:6534   */\n      0x00\n        /* \"#utility.yul\":6536:6542   */\n      dup1\n        /* \"#utility.yul\":6585:6587   */\n      0x40\n        /* \"#utility.yul\":6573:6582   */\n      dup4\n        /* \"#utility.yul\":6564:6571   */\n      dup6\n        /* \"#utility.yul\":6560:6583   */\n      sub\n        /* \"#utility.yul\":6556:6588   */\n      slt\n        /* \"#utility.yul\":6553:6672   */\n      iszero\n      tag_433\n      jumpi\n        /* \"#utility.yul\":6591:6670   */\n      tag_434\n      tag_313\n      jump\t// in\n    tag_434:\n        /* \"#utility.yul\":6553:6672   */\n    tag_433:\n        /* \"#utility.yul\":6711:6712   */\n      0x00\n        /* \"#utility.yul\":6736:6789   */\n      tag_435\n        /* \"#utility.yul\":6781:6788   */\n      dup6\n        /* \"#utility.yul\":6772:6778   */\n      dup3\n        /* \"#utility.yul\":6761:6770   */\n      dup7\n        /* \"#utility.yul\":6757:6779   */\n      add\n        /* \"#utility.yul\":6736:6789   */\n      tag_332\n      jump\t// in\n    tag_435:\n        /* \"#utility.yul\":6726:6789   */\n      swap3\n      pop\n        /* \"#utility.yul\":6682:6799   */\n      pop\n        /* \"#utility.yul\":6838:6840   */\n      0x20\n        /* \"#utility.yul\":6864:6914   */\n      tag_436\n        /* \"#utility.yul\":6906:6913   */\n      dup6\n        /* \"#utility.yul\":6897:6903   */\n      dup3\n        /* \"#utility.yul\":6886:6895   */\n      dup7\n        /* \"#utility.yul\":6882:6904   */\n      add\n        /* \"#utility.yul\":6864:6914   */\n      tag_335\n      jump\t// in\n    tag_436:\n        /* \"#utility.yul\":6854:6914   */\n      swap2\n      pop\n        /* \"#utility.yul\":6809:6924   */\n      pop\n        /* \"#utility.yul\":6463:6931   */\n      swap3\n      pop\n      swap3\n      swap1\n      pop\n      jump\t// out\n        /* \"#utility.yul\":6937:7054   */\n    tag_336:\n        /* \"#utility.yul\":7046:7047   */\n      0x00\n        /* \"#utility.yul\":7043:7044   */\n      dup1\n        /* \"#utility.yul\":7036:7048   */\n      revert\n        /* \"#utility.yul\":7060:7177   */\n    tag_337:\n        /* \"#utility.yul\":7169:7170   */\n      0x00\n        /* \"#utility.yul\":7166:7167   */\n      dup1\n        /* \"#utility.yul\":7159:7171   */\n      revert\n        /* \"#utility.yul\":7183:7363   */\n    tag_299:\n        /* \"#utility.yul\":7231:7308   */\n      0x4e487b7100000000000000000000000000000000000000000000000000000000\n        /* \"#utility.yul\":7228:7229   */\n      0x00\n        /* \"#utility.yul\":7221:7309   */\n      mstore\n        /* \"#utility.yul\":7328:7332   */\n      0x41\n        /* \"#utility.yul\":7325:7326   */\n      0x04\n        /* \"#utility.yul\":7318:7333   */\n      mstore\n        /* \"#utility.yul\":7352:7356   */\n      0x24\n        /* \"#utility.yul\":7349:7350   */\n      0x00\n        /* \"#utility.yul\":7342:7357   */\n      revert\n        /* \"#utility.yul\":7369:7650   */\n    tag_338:\n        /* \"#utility.yul\":7452:7479   */\n      tag_441\n        /* \"#utility.yul\":7474:7478   */\n      dup3\n        /* \"#utility.yul\":7452:7479   */\n      tag_323\n      jump\t// in\n    tag_441:\n        /* \"#utility.yul\":7444:7450   */\n      dup2\n        /* \"#utility.yul\":7440:7480   */\n      add\n        /* \"#utility.yul\":7582:7588   */\n      dup2\n        /* \"#utility.yul\":7570:7580   */\n      dup2\n        /* \"#utility.yul\":7567:7589   */\n      lt\n        /* \"#utility.yul\":7546:7564   */\n      0xffffffffffffffff\n        /* \"#utility.yul\":7534:7544   */\n      dup3\n        /* \"#utility.yul\":7531:7565   */\n      gt\n        /* \"#utility.yul\":7528:7590   */\n      or\n        /* \"#utility.yul\":7525:7613   */\n      iszero\n      tag_442\n      jumpi\n        /* \"#utility.yul\":7593:7611   */\n      tag_443\n      tag_299\n      jump\t// in\n    tag_443:\n        /* \"#utility.yul\":7525:7613   */\n    tag_442:\n        /* \"#utility.yul\":7633:7643   */\n      dup1\n        /* \"#utility.yul\":7629:7631   */\n      0x40\n        /* \"#utility.yul\":7622:7644   */\n      mstore\n        /* \"#utility.yul\":7412:7650   */\n      pop\n        /* \"#utility.yul\":7369:7650   */\n      pop\n      pop\n      jump\t// out\n        /* \"#utility.yul\":7656:7785   */\n    tag_339:\n        /* \"#utility.yul\":7690:7696   */\n      0x00\n        /* \"#utility.yul\":7717:7737   */\n      tag_445\n      tag_312\n      jump\t// in\n    tag_445:\n        /* \"#utility.yul\":7707:7737   */\n      swap1\n      pop\n        /* \"#utility.yul\":7746:7779   */\n      tag_446\n        /* \"#utility.yul\":7774:7778   */\n      dup3\n        /* \"#utility.yul\":7766:7772   */\n      dup3\n        /* \"#utility.yul\":7746:7779   */\n      tag_338\n      jump\t// in\n    tag_446:\n        /* \"#utility.yul\":7656:7785   */\n      swap2\n      swap1\n      pop\n      jump\t// out\n        /* \"#utility.yul\":7791:8098   */\n    tag_340:\n        /* \"#utility.yul\":7852:7856   */\n      0x00\n        /* \"#utility.yul\":7942:7960   */\n      0xffffffffffffffff\n        /* \"#utility.yul\":7934:7940   */\n      dup3\n        /* \"#utility.yul\":7931:7961   */\n      gt\n        /* \"#utility.yul\":7928:7984   */\n      iszero\n      tag_448\n      jumpi\n        /* \"#utility.yul\":7964:7982   */\n      tag_449\n      tag_299\n      jump\t// in\n    tag_449:\n        /* \"#utility.yul\":7928:7984   */\n    tag_448:\n        /* \"#utility.yul\":8002:8031   */\n      tag_450\n        /* \"#utility.yul\":8024:8030   */\n      dup3\n        /* \"#utility.yul\":8002:8031   */\n      tag_323\n      jump\t// in\n    tag_450:\n        /* \"#utility.yul\":7994:8031   */\n      swap1\n      pop\n        /* \"#utility.yul\":8086:8090   */\n      0x20\n        /* \"#utility.yul\":8080:8084   */\n      dup2\n        /* \"#utility.yul\":8076:8091   */\n      add\n        /* \"#utility.yul\":8068:8091   */\n      swap1\n      pop\n        /* \"#utility.yul\":7791:8098   */\n      swap2\n      swap1\n      pop\n      jump\t// out\n        /* \"#utility.yul\":8104:8250   */\n    tag_341:\n        /* \"#utility.yul\":8201:8207   */\n      dup3\n        /* \"#utility.yul\":8196:8199   */\n      dup2\n        /* \"#utility.yul\":8191:8194   */\n      dup4\n        /* \"#utility.yul\":8178:8208   */\n      calldatacopy\n        /* \"#utility.yul\":8242:8243   */\n      0x00\n        /* \"#utility.yul\":8233:8239   */\n      dup4\n        /* \"#utility.yul\":8228:8231   */\n      dup4\n        /* \"#utility.yul\":8224:8240   */\n      add\n        /* \"#utility.yul\":8217:8244   */\n      mstore\n        /* \"#utility.yul\":8104:8250   */\n      pop\n      pop\n      pop\n      jump\t// out\n        /* \"#utility.yul\":8256:8679   */\n    tag_342:\n        /* \"#utility.yul\":8333:8338   */\n      0x00\n        /* \"#utility.yul\":8358:8423   */\n      tag_453\n        /* \"#utility.yul\":8374:8422   */\n      tag_454\n        /* \"#utility.yul\":8415:8421   */\n      dup5\n        /* \"#utility.yul\":8374:8422   */\n      tag_340\n      jump\t// in\n    tag_454:\n        /* \"#utility.yul\":8358:8423   */\n      tag_339\n      jump\t// in\n    tag_453:\n        /* \"#utility.yul\":8349:8423   */\n      swap1\n      pop\n        /* \"#utility.yul\":8446:8452   */\n      dup3\n        /* \"#utility.yul\":8439:8444   */\n      dup2\n        /* \"#utility.yul\":8432:8453   */\n      mstore\n        /* \"#utility.yul\":8484:8488   */\n      0x20\n        /* \"#utility.yul\":8477:8482   */\n      dup2\n        /* \"#utility.yul\":8473:8489   */\n      add\n        /* \"#utility.yul\":8522:8525   */\n      dup5\n        /* \"#utility.yul\":8513:8519   */\n      dup5\n        /* \"#utility.yul\":8508:8511   */\n      dup5\n        /* \"#utility.yul\":8504:8520   */\n      add\n        /* \"#utility.yul\":8501:8526   */\n      gt\n        /* \"#utility.yul\":8498:8610   */\n      iszero\n      tag_455\n      jumpi\n        /* \"#utility.yul\":8529:8608   */\n      tag_456\n      tag_337\n      jump\t// in\n    tag_456:\n        /* \"#utility.yul\":8498:8610   */\n    tag_455:\n        /* \"#utility.yul\":8619:8673   */\n      tag_457\n        /* \"#utility.yul\":8666:8672   */\n      dup5\n        /* \"#utility.yul\":8661:8664   */\n      dup3\n        /* \"#utility.yul\":8656:8659   */\n      dup6\n        /* \"#utility.yul\":8619:8673   */\n      tag_341\n      jump\t// in\n    tag_457:\n        /* \"#utility.yul\":8339:8679   */\n      pop\n        /* \"#utility.yul\":8256:8679   */\n      swap4\n      swap3\n      pop\n      pop\n      pop\n      jump\t// out\n        /* \"#utility.yul\":8698:9036   */\n    tag_343:\n        /* \"#utility.yul\":8753:8758   */\n      0x00\n        /* \"#utility.yul\":8802:8805   */\n      dup3\n        /* \"#utility.yul\":8795:8799   */\n      0x1f\n        /* \"#utility.yul\":8787:8793   */\n      dup4\n        /* \"#utility.yul\":8783:8800   */\n      add\n        /* \"#utility.yul\":8779:8806   */\n      slt\n        /* \"#utility.yul\":8769:8891   */\n      tag_459\n      jumpi\n        /* \"#utility.yul\":8810:8889   */\n      tag_460\n      tag_336\n      jump\t// in\n    tag_460:\n        /* \"#utility.yul\":8769:8891   */\n    tag_459:\n        /* \"#utility.yul\":8927:8933   */\n      dup2\n        /* \"#utility.yul\":8914:8934   */\n      calldataload\n        /* \"#utility.yul\":8952:9030   */\n      tag_461\n        /* \"#utility.yul\":9026:9029   */\n      dup5\n        /* \"#utility.yul\":9018:9024   */\n      dup3\n        /* \"#utility.yul\":9011:9015   */\n      0x20\n        /* \"#utility.yul\":9003:9009   */\n      dup7\n        /* \"#utility.yul\":8999:9016   */\n      add\n        /* \"#utility.yul\":8952:9030   */\n      tag_342\n      jump\t// in\n    tag_461:\n        /* \"#utility.yul\":8943:9030   */\n      swap2\n      pop\n        /* \"#utility.yul\":8759:9036   */\n      pop\n        /* \"#utility.yul\":8698:9036   */\n      swap3\n      swap2\n      pop\n      pop\n      jump\t// out\n        /* \"#utility.yul\":9042:9985   */\n    tag_93:\n        /* \"#utility.yul\":9137:9143   */\n      0x00\n        /* \"#utility.yul\":9145:9151   */\n      dup1\n        /* \"#utility.yul\":9153:9159   */\n      0x00\n        /* \"#utility.yul\":9161:9167   */\n      dup1\n        /* \"#utility.yul\":9210:9213   */\n      0x80\n        /* \"#utility.yul\":9198:9207   */\n      dup6\n        /* \"#utility.yul\":9189:9196   */\n      dup8\n        /* \"#utility.yul\":9185:9208   */\n      sub\n        /* \"#utility.yul\":9181:9214   */\n      slt\n        /* \"#utility.yul\":9178:9298   */\n      iszero\n      tag_463\n      jumpi\n        /* \"#utility.yul\":9217:9296   */\n      tag_464\n      tag_313\n      jump\t// in\n    tag_464:\n        /* \"#utility.yul\":9178:9298   */\n    tag_463:\n        /* \"#utility.yul\":9337:9338   */\n      0x00\n        /* \"#utility.yul\":9362:9415   */\n      tag_465\n        /* \"#utility.yul\":9407:9414   */\n      dup8\n        /* \"#utility.yul\":9398:9404   */\n      dup3\n        /* \"#utility.yul\":9387:9396   */\n      dup9\n        /* \"#utility.yul\":9383:9405   */\n      add\n        /* \"#utility.yul\":9362:9415   */\n      tag_332\n      jump\t// in\n    tag_465:\n        /* \"#utility.yul\":9352:9415   */\n      swap5\n      pop\n        /* \"#utility.yul\":9308:9425   */\n      pop\n        /* \"#utility.yul\":9464:9466   */\n      0x20\n        /* \"#utility.yul\":9490:9543   */\n      tag_466\n        /* \"#utility.yul\":9535:9542   */\n      dup8\n        /* \"#utility.yul\":9526:9532   */\n      dup3\n        /* \"#utility.yul\":9515:9524   */\n      dup9\n        /* \"#utility.yul\":9511:9533   */\n      add\n        /* \"#utility.yul\":9490:9543   */\n      tag_332\n      jump\t// in\n    tag_466:\n        /* \"#utility.yul\":9480:9543   */\n      swap4\n      pop\n        /* \"#utility.yul\":9435:9553   */\n      pop\n        /* \"#utility.yul\":9592:9594   */\n      0x40\n        /* \"#utility.yul\":9618:9671   */\n      tag_467\n        /* \"#utility.yul\":9663:9670   */\n      dup8\n        /* \"#utility.yul\":9654:9660   */\n      dup3\n        /* \"#utility.yul\":9643:9652   */\n      dup9\n        /* \"#utility.yul\":9639:9661   */\n      add\n        /* \"#utility.yul\":9618:9671   */\n      tag_327\n      jump\t// in\n    tag_467:\n        /* \"#utility.yul\":9608:9671   */\n      swap3\n      pop\n        /* \"#utility.yul\":9563:9681   */\n      pop\n        /* \"#utility.yul\":9748:9750   */\n      0x60\n        /* \"#utility.yul\":9737:9746   */\n      dup6\n        /* \"#utility.yul\":9733:9751   */\n      add\n        /* \"#utility.yul\":9720:9752   */\n      calldataload\n        /* \"#utility.yul\":9779:9797   */\n      0xffffffffffffffff\n        /* \"#utility.yul\":9771:9777   */\n      dup2\n        /* \"#utility.yul\":9768:9798   */\n      gt\n        /* \"#utility.yul\":9765:9882   */\n      iszero\n      tag_468\n      jumpi\n        /* \"#utility.yul\":9801:9880   */\n      tag_469\n      tag_314\n      jump\t// in\n    tag_469:\n        /* \"#utility.yul\":9765:9882   */\n    tag_468:\n        /* \"#utility.yul\":9906:9968   */\n      tag_470\n        /* \"#utility.yul\":9960:9967   */\n      dup8\n        /* \"#utility.yul\":9951:9957   */\n      dup3\n        /* \"#utility.yul\":9940:9949   */\n      dup9\n        /* \"#utility.yul\":9936:9958   */\n      add\n        /* \"#utility.yul\":9906:9968   */\n      tag_343\n      jump\t// in\n    tag_470:\n        /* \"#utility.yul\":9896:9968   */\n      swap2\n      pop\n        /* \"#utility.yul\":9691:9978   */\n      pop\n        /* \"#utility.yul\":9042:9985   */\n      swap3\n      swap6\n      swap2\n      swap5\n      pop\n      swap3\n      pop\n      jump\t// out\n        /* \"#utility.yul\":9991:10465   */\n    tag_108:\n        /* \"#utility.yul\":10059:10065   */\n      0x00\n        /* \"#utility.yul\":10067:10073   */\n      dup1\n        /* \"#utility.yul\":10116:10118   */\n      0x40\n        /* \"#utility.yul\":10104:10113   */\n      dup4\n        /* \"#utility.yul\":10095:10102   */\n      dup6\n        /* \"#utility.yul\":10091:10114   */\n      sub\n        /* \"#utility.yul\":10087:10119   */\n      slt\n        /* \"#utility.yul\":10084:10203   */\n      iszero\n      tag_472\n      jumpi\n        /* \"#utility.yul\":10122:10201   */\n      tag_473\n      tag_313\n      jump\t// in\n    tag_473:\n        /* \"#utility.yul\":10084:10203   */\n    tag_472:\n        /* \"#utility.yul\":10242:10243   */\n      0x00\n        /* \"#utility.yul\":10267:10320   */\n      tag_474\n        /* \"#utility.yul\":10312:10319   */\n      dup6\n        /* \"#utility.yul\":10303:10309   */\n      dup3\n        /* \"#utility.yul\":10292:10301   */\n      dup7\n        /* \"#utility.yul\":10288:10310   */\n      add\n        /* \"#utility.yul\":10267:10320   */\n      tag_332\n      jump\t// in\n    tag_474:\n        /* \"#utility.yul\":10257:10320   */\n      swap3\n      pop\n        /* \"#utility.yul\":10213:10330   */\n      pop\n        /* \"#utility.yul\":10369:10371   */\n      0x20\n        /* \"#utility.yul\":10395:10448   */\n      tag_475\n        /* \"#utility.yul\":10440:10447   */\n      dup6\n        /* \"#utility.yul\":10431:10437   */\n      dup3\n        /* \"#utility.yul\":10420:10429   */\n      dup7\n        /* \"#utility.yul\":10416:10438   */\n      add\n        /* \"#utility.yul\":10395:10448   */\n      tag_332\n      jump\t// in\n    tag_475:\n        /* \"#utility.yul\":10385:10448   */\n      swap2\n      pop\n        /* \"#utility.yul\":10340:10458   */\n      pop\n        /* \"#utility.yul\":9991:10465   */\n      swap3\n      pop\n      swap3\n      swap1\n      pop\n      jump\t// out\n        /* \"#utility.yul\":10471:10651   */\n    tag_344:\n        /* \"#utility.yul\":10519:10596   */\n      0x4e487b7100000000000000000000000000000000000000000000000000000000\n        /* \"#utility.yul\":10516:10517   */\n      0x00\n        /* \"#utility.yul\":10509:10597   */\n      mstore\n        /* \"#utility.yul\":10616:10620   */\n      0x22\n        /* \"#utility.yul\":10613:10614   */\n      0x04\n        /* \"#utility.yul\":10606:10621   */\n      mstore\n        /* \"#utility.yul\":10640:10644   */\n      0x24\n        /* \"#utility.yul\":10637:10638   */\n      0x00\n        /* \"#utility.yul\":10630:10645   */\n      revert\n        /* \"#utility.yul\":10657:10977   */\n    tag_122:\n        /* \"#utility.yul\":10701:10707   */\n      0x00\n        /* \"#utility.yul\":10738:10739   */\n      0x02\n        /* \"#utility.yul\":10732:10736   */\n      dup3\n        /* \"#utility.yul\":10728:10740   */\n      div\n        /* \"#utility.yul\":10718:10740   */\n      swap1\n      pop\n        /* \"#utility.yul\":10785:10786   */\n      0x01\n        /* \"#utility.yul\":10779:10783   */\n      dup3\n        /* \"#utility.yul\":10775:10787   */\n      and\n        /* \"#utility.yul\":10806:10824   */\n      dup1\n        /* \"#utility.yul\":10796:10877   */\n      tag_478\n      jumpi\n        /* \"#utility.yul\":10862:10866   */\n      0x7f\n        /* \"#utility.yul\":10854:10860   */\n      dup3\n        /* \"#utility.yul\":10850:10867   */\n      and\n        /* \"#utility.yul\":10840:10867   */\n      swap2\n      pop\n        /* \"#utility.yul\":10796:10877   */\n    tag_478:\n        /* \"#utility.yul\":10924:10926   */\n      0x20\n        /* \"#utility.yul\":10916:10922   */\n      dup3\n        /* \"#utility.yul\":10913:10927   */\n      lt\n        /* \"#utility.yul\":10893:10911   */\n      dup2\n        /* \"#utility.yul\":10890:10928   */\n      sub\n        /* \"#utility.yul\":10887:10971   */\n      tag_479\n      jumpi\n        /* \"#utility.yul\":10943:10961   */\n      tag_480\n      tag_344\n      jump\t// in\n    tag_480:\n        /* \"#utility.yul\":10887:10971   */\n    tag_479:\n        /* \"#utility.yul\":10708:10977   */\n      pop\n        /* \"#utility.yul\":10657:10977   */\n      swap2\n      swap1\n      pop\n      jump\t// out\n        /* \"#utility.yul\":10983:11131   */\n    tag_345:\n        /* \"#utility.yul\":11085:11096   */\n      0x00\n        /* \"#utility.yul\":11122:11125   */\n      dup2\n        /* \"#utility.yul\":11107:11125   */\n      swap1\n      pop\n        /* \"#utility.yul\":10983:11131   */\n      swap3\n      swap2\n      pop\n      pop\n      jump\t// out\n        /* \"#utility.yul\":11137:11527   */\n    tag_346:\n        /* \"#utility.yul\":11243:11246   */\n      0x00\n        /* \"#utility.yul\":11271:11310   */\n      tag_483\n        /* \"#utility.yul\":11304:11309   */\n      dup3\n        /* \"#utility.yul\":11271:11310   */\n      tag_320\n      jump\t// in\n    tag_483:\n        /* \"#utility.yul\":11326:11415   */\n      tag_484\n        /* \"#utility.yul\":11408:11414   */\n      dup2\n        /* \"#utility.yul\":11403:11406   */\n      dup6\n        /* \"#utility.yul\":11326:11415   */\n      tag_345\n      jump\t// in\n    tag_484:\n        /* \"#utility.yul\":11319:11415   */\n      swap4\n      pop\n        /* \"#utility.yul\":11424:11489   */\n      tag_485\n        /* \"#utility.yul\":11482:11488   */\n      dup2\n        /* \"#utility.yul\":11477:11480   */\n      dup6\n        /* \"#utility.yul\":11470:11474   */\n      0x20\n        /* \"#utility.yul\":11463:11468   */\n      dup7\n        /* \"#utility.yul\":11459:11475   */\n      add\n        /* \"#utility.yul\":11424:11489   */\n      tag_322\n      jump\t// in\n    tag_485:\n        /* \"#utility.yul\":11514:11520   */\n      dup1\n        /* \"#utility.yul\":11509:11512   */\n      dup5\n        /* \"#utility.yul\":11505:11521   */\n      add\n        /* \"#utility.yul\":11498:11521   */\n      swap2\n      pop\n        /* \"#utility.yul\":11247:11527   */\n      pop\n        /* \"#utility.yul\":11137:11527   */\n      swap3\n      swap2\n      pop\n      pop\n      jump\t// out\n        /* \"#utility.yul\":11533:11968   */\n    tag_205:\n        /* \"#utility.yul\":11713:11716   */\n      0x00\n        /* \"#utility.yul\":11735:11830   */\n      tag_487\n        /* \"#utility.yul\":11826:11829   */\n      dup3\n        /* \"#utility.yul\":11817:11823   */\n      dup6\n        /* \"#utility.yul\":11735:11830   */\n      tag_346\n      jump\t// in\n    tag_487:\n        /* \"#utility.yul\":11728:11830   */\n      swap2\n      pop\n        /* \"#utility.yul\":11847:11942   */\n      tag_488\n        /* \"#utility.yul\":11938:11941   */\n      dup3\n        /* \"#utility.yul\":11929:11935   */\n      dup5\n        /* \"#utility.yul\":11847:11942   */\n      tag_346\n      jump\t// in\n    tag_488:\n        /* \"#utility.yul\":11840:11942   */\n      swap2\n      pop\n        /* \"#utility.yul\":11959:11962   */\n      dup2\n        /* \"#utility.yul\":11952:11962   */\n      swap1\n      pop\n        /* \"#utility.yul\":11533:11968   */\n      swap4\n      swap3\n      pop\n      pop\n      pop\n      jump\t// out\n        /* \"#utility.yul\":11974:12154   */\n    tag_347:\n        /* \"#utility.yul\":12022:12099   */\n      0x4e487b7100000000000000000000000000000000000000000000000000000000\n        /* \"#utility.yul\":12019:12020   */\n      0x00\n        /* \"#utility.yul\":12012:12100   */\n      mstore\n        /* \"#utility.yul\":12119:12123   */\n      0x12\n        /* \"#utility.yul\":12116:12117   */\n      0x04\n        /* \"#utility.yul\":12109:12124   */\n      mstore\n        /* \"#utility.yul\":12143:12147   */\n      0x24\n        /* \"#utility.yul\":12140:12141   */\n      0x00\n        /* \"#utility.yul\":12133:12148   */\n      revert\n        /* \"#utility.yul\":12160:12336   */\n    tag_213:\n        /* \"#utility.yul\":12192:12193   */\n      0x00\n        /* \"#utility.yul\":12209:12229   */\n      tag_491\n        /* \"#utility.yul\":12227:12228   */\n      dup3\n        /* \"#utility.yul\":12209:12229   */\n      tag_325\n      jump\t// in\n    tag_491:\n        /* \"#utility.yul\":12204:12229   */\n      swap2\n      pop\n        /* \"#utility.yul\":12243:12263   */\n      tag_492\n        /* \"#utility.yul\":12261:12262   */\n      dup4\n        /* \"#utility.yul\":12243:12263   */\n      tag_325\n      jump\t// in\n    tag_492:\n        /* \"#utility.yul\":12238:12263   */\n      swap3\n      pop\n        /* \"#utility.yul\":12282:12283   */\n      dup3\n        /* \"#utility.yul\":12272:12307   */\n      tag_493\n      jumpi\n        /* \"#utility.yul\":12287:12305   */\n      tag_494\n      tag_347\n      jump\t// in\n    tag_494:\n        /* \"#utility.yul\":12272:12307   */\n    tag_493:\n        /* \"#utility.yul\":12328:12329   */\n      dup3\n        /* \"#utility.yul\":12325:12326   */\n      dup3\n        /* \"#utility.yul\":12321:12330   */\n      mod\n        /* \"#utility.yul\":12316:12330   */\n      swap1\n      pop\n        /* \"#utility.yul\":12160:12336   */\n      swap3\n      swap2\n      pop\n      pop\n      jump\t// out\n        /* \"#utility.yul\":12342:12522   */\n    tag_348:\n        /* \"#utility.yul\":12390:12467   */\n      0x4e487b7100000000000000000000000000000000000000000000000000000000\n        /* \"#utility.yul\":12387:12388   */\n      0x00\n        /* \"#utility.yul\":12380:12468   */\n      mstore\n        /* \"#utility.yul\":12487:12491   */\n      0x11\n        /* \"#utility.yul\":12484:12485   */\n      0x04\n        /* \"#utility.yul\":12477:12492   */\n      mstore\n        /* \"#utility.yul\":12511:12515   */\n      0x24\n        /* \"#utility.yul\":12508:12509   */\n      0x00\n        /* \"#utility.yul\":12501:12516   */\n      revert\n        /* \"#utility.yul\":12528:12938   */\n    tag_251:\n        /* \"#utility.yul\":12568:12575   */\n      0x00\n        /* \"#utility.yul\":12591:12611   */\n      tag_497\n        /* \"#utility.yul\":12609:12610   */\n      dup3\n        /* \"#utility.yul\":12591:12611   */\n      tag_325\n      jump\t// in\n    tag_497:\n        /* \"#utility.yul\":12586:12611   */\n      swap2\n      pop\n        /* \"#utility.yul\":12625:12645   */\n      tag_498\n        /* \"#utility.yul\":12643:12644   */\n      dup4\n        /* \"#utility.yul\":12625:12645   */\n      tag_325\n      jump\t// in\n    tag_498:\n        /* \"#utility.yul\":12620:12645   */\n      swap3\n      pop\n        /* \"#utility.yul\":12680:12681   */\n      dup3\n        /* \"#utility.yul\":12677:12678   */\n      dup3\n        /* \"#utility.yul\":12673:12682   */\n      mul\n        /* \"#utility.yul\":12702:12732   */\n      tag_499\n        /* \"#utility.yul\":12720:12731   */\n      dup2\n        /* \"#utility.yul\":12702:12732   */\n      tag_325\n      jump\t// in\n    tag_499:\n        /* \"#utility.yul\":12691:12732   */\n      swap2\n      pop\n        /* \"#utility.yul\":12881:12882   */\n      dup3\n        /* \"#utility.yul\":12872:12879   */\n      dup3\n        /* \"#utility.yul\":12868:12883   */\n      div\n        /* \"#utility.yul\":12865:12866   */\n      dup5\n        /* \"#utility.yul\":12862:12884   */\n      eq\n        /* \"#utility.yul\":12842:12843   */\n      dup4\n        /* \"#utility.yul\":12835:12844   */\n      iszero\n        /* \"#utility.yul\":12815:12898   */\n      or\n        /* \"#utility.yul\":12792:12931   */\n      tag_500\n      jumpi\n        /* \"#utility.yul\":12911:12929   */\n      tag_501\n      tag_348\n      jump\t// in\n    tag_501:\n        /* \"#utility.yul\":12792:12931   */\n    tag_500:\n        /* \"#utility.yul\":12576:12938   */\n      pop\n        /* \"#utility.yul\":12528:12938   */\n      swap3\n      swap2\n      pop\n      pop\n      jump\t// out\n        /* \"#utility.yul\":12944:13129   */\n    tag_254:\n        /* \"#utility.yul\":12984:12985   */\n      0x00\n        /* \"#utility.yul\":13001:13021   */\n      tag_503\n        /* \"#utility.yul\":13019:13020   */\n      dup3\n        /* \"#utility.yul\":13001:13021   */\n      tag_325\n      jump\t// in\n    tag_503:\n        /* \"#utility.yul\":12996:13021   */\n      swap2\n      pop\n        /* \"#utility.yul\":13035:13055   */\n      tag_504\n        /* \"#utility.yul\":13053:13054   */\n      dup4\n        /* \"#utility.yul\":13035:13055   */\n      tag_325\n      jump\t// in\n    tag_504:\n        /* \"#utility.yul\":13030:13055   */\n      swap3\n      pop\n        /* \"#utility.yul\":13074:13075   */\n      dup3\n        /* \"#utility.yul\":13064:13099   */\n      tag_505\n      jumpi\n        /* \"#utility.yul\":13079:13097   */\n      tag_506\n      tag_347\n      jump\t// in\n    tag_506:\n        /* \"#utility.yul\":13064:13099   */\n    tag_505:\n        /* \"#utility.yul\":13121:13122   */\n      dup3\n        /* \"#utility.yul\":13118:13119   */\n      dup3\n        /* \"#utility.yul\":13114:13123   */\n      div\n        /* \"#utility.yul\":13109:13123   */\n      swap1\n      pop\n        /* \"#utility.yul\":12944:13129   */\n      swap3\n      swap2\n      pop\n      pop\n      jump\t// out\n        /* \"#utility.yul\":13135:13233   */\n    tag_349:\n        /* \"#utility.yul\":13186:13192   */\n      0x00\n        /* \"#utility.yul\":13220:13225   */\n      dup2\n        /* \"#utility.yul\":13214:13226   */\n      mload\n        /* \"#utility.yul\":13204:13226   */\n      swap1\n      pop\n        /* \"#utility.yul\":13135:13233   */\n      swap2\n      swap1\n      pop\n      jump\t// out\n        /* \"#utility.yul\":13239:13407   */\n    tag_350:\n        /* \"#utility.yul\":13322:13333   */\n      0x00\n        /* \"#utility.yul\":13356:13362   */\n      dup3\n        /* \"#utility.yul\":13351:13354   */\n      dup3\n        /* \"#utility.yul\":13344:13363   */\n      mstore\n        /* \"#utility.yul\":13396:13400   */\n      0x20\n        /* \"#utility.yul\":13391:13394   */\n      dup3\n        /* \"#utility.yul\":13387:13401   */\n      add\n        /* \"#utility.yul\":13372:13401   */\n      swap1\n      pop\n        /* \"#utility.yul\":13239:13407   */\n      swap3\n      swap2\n      pop\n      pop\n      jump\t// out\n        /* \"#utility.yul\":13413:13786   */\n    tag_351:\n        /* \"#utility.yul\":13499:13502   */\n      0x00\n        /* \"#utility.yul\":13527:13565   */\n      tag_510\n        /* \"#utility.yul\":13559:13564   */\n      dup3\n        /* \"#utility.yul\":13527:13565   */\n      tag_349\n      jump\t// in\n    tag_510:\n        /* \"#utility.yul\":13581:13651   */\n      tag_511\n        /* \"#utility.yul\":13644:13650   */\n      dup2\n        /* \"#utility.yul\":13639:13642   */\n      dup6\n        /* \"#utility.yul\":13581:13651   */\n      tag_350\n      jump\t// in\n    tag_511:\n        /* \"#utility.yul\":13574:13651   */\n      swap4\n      pop\n        /* \"#utility.yul\":13660:13725   */\n      tag_512\n        /* \"#utility.yul\":13718:13724   */\n      dup2\n        /* \"#utility.yul\":13713:13716   */\n      dup6\n        /* \"#utility.yul\":13706:13710   */\n      0x20\n        /* \"#utility.yul\":13699:13704   */\n      dup7\n        /* \"#utility.yul\":13695:13711   */\n      add\n        /* \"#utility.yul\":13660:13725   */\n      tag_322\n      jump\t// in\n    tag_512:\n        /* \"#utility.yul\":13750:13779   */\n      tag_513\n        /* \"#utility.yul\":13772:13778   */\n      dup2\n        /* \"#utility.yul\":13750:13779   */\n      tag_323\n      jump\t// in\n    tag_513:\n        /* \"#utility.yul\":13745:13748   */\n      dup5\n        /* \"#utility.yul\":13741:13780   */\n      add\n        /* \"#utility.yul\":13734:13780   */\n      swap2\n      pop\n        /* \"#utility.yul\":13503:13786   */\n      pop\n        /* \"#utility.yul\":13413:13786   */\n      swap3\n      swap2\n      pop\n      pop\n      jump\t// out\n        /* \"#utility.yul\":13792:14432   */\n    tag_270:\n        /* \"#utility.yul\":13987:13991   */\n      0x00\n        /* \"#utility.yul\":14025:14028   */\n      0x80\n        /* \"#utility.yul\":14014:14023   */\n      dup3\n        /* \"#utility.yul\":14010:14029   */\n      add\n        /* \"#utility.yul\":14002:14029   */\n      swap1\n      pop\n        /* \"#utility.yul\":14039:14110   */\n      tag_515\n        /* \"#utility.yul\":14107:14108   */\n      0x00\n        /* \"#utility.yul\":14096:14105   */\n      dup4\n        /* \"#utility.yul\":14092:14109   */\n      add\n        /* \"#utility.yul\":14083:14089   */\n      dup8\n        /* \"#utility.yul\":14039:14110   */\n      tag_330\n      jump\t// in\n    tag_515:\n        /* \"#utility.yul\":14120:14192   */\n      tag_516\n        /* \"#utility.yul\":14188:14190   */\n      0x20\n        /* \"#utility.yul\":14177:14186   */\n      dup4\n        /* \"#utility.yul\":14173:14191   */\n      add\n        /* \"#utility.yul\":14164:14170   */\n      dup7\n        /* \"#utility.yul\":14120:14192   */\n      tag_330\n      jump\t// in\n    tag_516:\n        /* \"#utility.yul\":14202:14274   */\n      tag_517\n        /* \"#utility.yul\":14270:14272   */\n      0x40\n        /* \"#utility.yul\":14259:14268   */\n      dup4\n        /* \"#utility.yul\":14255:14273   */\n      add\n        /* \"#utility.yul\":14246:14252   */\n      dup6\n        /* \"#utility.yul\":14202:14274   */\n      tag_333\n      jump\t// in\n    tag_517:\n        /* \"#utility.yul\":14321:14330   */\n      dup2\n        /* \"#utility.yul\":14315:14319   */\n      dup2\n        /* \"#utility.yul\":14311:14331   */\n      sub\n        /* \"#utility.yul\":14306:14308   */\n      0x60\n        /* \"#utility.yul\":14295:14304   */\n      dup4\n        /* \"#utility.yul\":14291:14309   */\n      add\n        /* \"#utility.yul\":14284:14332   */\n      mstore\n        /* \"#utility.yul\":14349:14425   */\n      tag_518\n        /* \"#utility.yul\":14420:14424   */\n      dup2\n        /* \"#utility.yul\":14411:14417   */\n      dup5\n        /* \"#utility.yul\":14349:14425   */\n      tag_351\n      jump\t// in\n    tag_518:\n        /* \"#utility.yul\":14341:14425   */\n      swap1\n      pop\n        /* \"#utility.yul\":13792:14432   */\n      swap6\n      swap5\n      pop\n      pop\n      pop\n      pop\n      pop\n      jump\t// out\n        /* \"#utility.yul\":14438:14579   */\n    tag_352:\n        /* \"#utility.yul\":14494:14499   */\n      0x00\n        /* \"#utility.yul\":14525:14531   */\n      dup2\n        /* \"#utility.yul\":14519:14532   */\n      mload\n        /* \"#utility.yul\":14510:14532   */\n      swap1\n      pop\n        /* \"#utility.yul\":14541:14573   */\n      tag_520\n        /* \"#utility.yul\":14567:14572   */\n      dup2\n        /* \"#utility.yul\":14541:14573   */\n      tag_316\n      jump\t// in\n    tag_520:\n        /* \"#utility.yul\":14438:14579   */\n      swap3\n      swap2\n      pop\n      pop\n      jump\t// out\n        /* \"#utility.yul\":14585:14934   */\n    tag_273:\n        /* \"#utility.yul\":14654:14660   */\n      0x00\n        /* \"#utility.yul\":14703:14705   */\n      0x20\n        /* \"#utility.yul\":14691:14700   */\n      dup3\n        /* \"#utility.yul\":14682:14689   */\n      dup5\n        /* \"#utility.yul\":14678:14701   */\n      sub\n        /* \"#utility.yul\":14674:14706   */\n      slt\n        /* \"#utility.yul\":14671:14790   */\n      iszero\n      tag_522\n      jumpi\n        /* \"#utility.yul\":14709:14788   */\n      tag_523\n      tag_313\n      jump\t// in\n    tag_523:\n        /* \"#utility.yul\":14671:14790   */\n    tag_522:\n        /* \"#utility.yul\":14829:14830   */\n      0x00\n        /* \"#utility.yul\":14854:14917   */\n      tag_524\n        /* \"#utility.yul\":14909:14916   */\n      dup5\n        /* \"#utility.yul\":14900:14906   */\n      dup3\n        /* \"#utility.yul\":14889:14898   */\n      dup6\n        /* \"#utility.yul\":14885:14907   */\n      add\n        /* \"#utility.yul\":14854:14917   */\n      tag_352\n      jump\t// in\n    tag_524:\n        /* \"#utility.yul\":14844:14917   */\n      swap2\n      pop\n        /* \"#utility.yul\":14800:14927   */\n      pop\n        /* \"#utility.yul\":14585:14934   */\n      swap3\n      swap2\n      pop\n      pop\n      jump\t// out\n        /* \"#utility.yul\":14940:15134   */\n    tag_285:\n        /* \"#utility.yul\":14980:14984   */\n      0x00\n        /* \"#utility.yul\":15000:15020   */\n      tag_526\n        /* \"#utility.yul\":15018:15019   */\n      dup3\n        /* \"#utility.yul\":15000:15020   */\n      tag_325\n      jump\t// in\n    tag_526:\n        /* \"#utility.yul\":14995:15020   */\n      swap2\n      pop\n        /* \"#utility.yul\":15034:15054   */\n      tag_527\n        /* \"#utility.yul\":15052:15053   */\n      dup4\n        /* \"#utility.yul\":15034:15054   */\n      tag_325\n      jump\t// in\n    tag_527:\n        /* \"#utility.yul\":15029:15054   */\n      swap3\n      pop\n        /* \"#utility.yul\":15078:15079   */\n      dup3\n        /* \"#utility.yul\":15075:15076   */\n      dup3\n        /* \"#utility.yul\":15071:15080   */\n      sub\n        /* \"#utility.yul\":15063:15080   */\n      swap1\n      pop\n        /* \"#utility.yul\":15102:15103   */\n      dup2\n        /* \"#utility.yul\":15096:15100   */\n      dup2\n        /* \"#utility.yul\":15093:15104   */\n      gt\n        /* \"#utility.yul\":15090:15127   */\n      iszero\n      tag_528\n      jumpi\n        /* \"#utility.yul\":15107:15125   */\n      tag_529\n      tag_348\n      jump\t// in\n    tag_529:\n        /* \"#utility.yul\":15090:15127   */\n    tag_528:\n        /* \"#utility.yul\":14940:15134   */\n      swap3\n      swap2\n      pop\n      pop\n      jump\t// out\n        /* \"#utility.yul\":15140:15331   */\n    tag_288:\n        /* \"#utility.yul\":15180:15183   */\n      0x00\n        /* \"#utility.yul\":15199:15219   */\n      tag_531\n        /* \"#utility.yul\":15217:15218   */\n      dup3\n        /* \"#utility.yul\":15199:15219   */\n      tag_325\n      jump\t// in\n    tag_531:\n        /* \"#utility.yul\":15194:15219   */\n      swap2\n      pop\n        /* \"#utility.yul\":15233:15253   */\n      tag_532\n        /* \"#utility.yul\":15251:15252   */\n      dup4\n        /* \"#utility.yul\":15233:15253   */\n      tag_325\n      jump\t// in\n    tag_532:\n        /* \"#utility.yul\":15228:15253   */\n      swap3\n      pop\n        /* \"#utility.yul\":15276:15277   */\n      dup3\n        /* \"#utility.yul\":15273:15274   */\n      dup3\n        /* \"#utility.yul\":15269:15278   */\n      add\n        /* \"#utility.yul\":15262:15278   */\n      swap1\n      pop\n        /* \"#utility.yul\":15297:15300   */\n      dup1\n        /* \"#utility.yul\":15294:15295   */\n      dup3\n        /* \"#utility.yul\":15291:15301   */\n      gt\n        /* \"#utility.yul\":15288:15324   */\n      iszero\n      tag_533\n      jumpi\n        /* \"#utility.yul\":15304:15322   */\n      tag_534\n      tag_348\n      jump\t// in\n    tag_534:\n        /* \"#utility.yul\":15288:15324   */\n    tag_533:\n        /* \"#utility.yul\":15140:15331   */\n      swap3\n      swap2\n      pop\n      pop\n      jump\t// out\n        /* \"#utility.yul\":15337:15570   */\n    tag_295:\n        /* \"#utility.yul\":15376:15379   */\n      0x00\n        /* \"#utility.yul\":15399:15423   */\n      tag_536\n        /* \"#utility.yul\":15417:15422   */\n      dup3\n        /* \"#utility.yul\":15399:15423   */\n      tag_325\n      jump\t// in\n    tag_536:\n        /* \"#utility.yul\":15390:15423   */\n      swap2\n      pop\n        /* \"#utility.yul\":15445:15511   */\n      0xffffffffffffffffffffffffffffffffffffffffffffffffffffffffffffffff\n        /* \"#utility.yul\":15438:15443   */\n      dup3\n        /* \"#utility.yul\":15435:15512   */\n      sub\n        /* \"#utility.yul\":15432:15535   */\n      tag_537\n      jumpi\n        /* \"#utility.yul\":15515:15533   */\n      tag_538\n      tag_348\n      jump\t// in\n    tag_538:\n        /* \"#utility.yul\":15432:15535   */\n    tag_537:\n        /* \"#utility.yul\":15562:15563   */\n      0x01\n        /* \"#utility.yul\":15555:15560   */\n      dup3\n        /* \"#utility.yul\":15551:15564   */\n      add\n        /* \"#utility.yul\":15544:15564   */\n      swap1\n      pop\n        /* \"#utility.yul\":15337:15570   */\n      swap2\n      swap1\n      pop\n      jump\t// out\n        /* \"#utility.yul\":15576:15756   */\n    tag_308:\n        /* \"#utility.yul\":15624:15701   */\n      0x4e487b7100000000000000000000000000000000000000000000000000000000\n        /* \"#utility.yul\":15621:15622   */\n      0x00\n        /* \"#utility.yul\":15614:15702   */\n      mstore\n        /* \"#utility.yul\":15721:15725   */\n      0x32\n        /* \"#utility.yul\":15718:15719   */\n      0x04\n        /* \"#utility.yul\":15711:15726   */\n      mstore\n        /* \"#utility.yul\":15745:15749   */\n      0x24\n        /* \"#utility.yul\":15742:15743   */\n      0x00\n        /* \"#utility.yul\":15735:15750   */\n      revert\n    stop\n    data_626642f6930f156f677ccaa99d1115840f2527d6f062eede1de4dda1bd081a2d 68747470733a2f2f676174657761792e70696e6174612e636c6f75642f697066732f516d65794b6e7658584d78417557473570743335457a3851684a6852363352445653775566736a4b61795234325a2f\n\n    auxdata: 0xa264697066735822122013a50375dd6c829655e522ac9956f89f4a6b4119de813ea706f22c4afe24ab8264736f6c63430008110033\n}\n",
				"bytecode": {
					"linkReferences": {},
					"object": "60806040523480156200001157600080fd5b5060405162002ea838038062002ea883398181016040528101906200003791906200027c565b826007908162000048919062000557565b5081600890816200005a919062000557565b5061271060058190555062000074620000a960201b60201c565b60048190555080600081905550671bc16d674ec8000060018190555061b3b0600381905550436002819055505050506200063e565b600090565b6000604051905090565b600080fd5b600080fd5b600080fd5b600080fd5b6000601f19601f8301169050919050565b7f4e487b7100000000000000000000000000000000000000000000000000000000600052604160045260246000fd5b6200011782620000cc565b810181811067ffffffffffffffff82111715620001395762000138620000dd565b5b80604052505050565b60006200014e620000ae565b90506200015c82826200010c565b919050565b600067ffffffffffffffff8211156200017f576200017e620000dd565b5b6200018a82620000cc565b9050602081019050919050565b60005b83811015620001b75780820151818401526020810190506200019a565b60008484015250505050565b6000620001da620001d48462000161565b62000142565b905082815260208101848484011115620001f957620001f8620000c7565b5b6200020684828562000197565b509392505050565b600082601f830112620002265762000225620000c2565b5b815162000238848260208601620001c3565b91505092915050565b6000819050919050565b620002568162000241565b81146200026257600080fd5b50565b60008151905062000276816200024b565b92915050565b600080600060608486031215620002985762000297620000b8565b5b600084015167ffffffffffffffff811115620002b957620002b8620000bd565b5b620002c7868287016200020e565b935050602084015167ffffffffffffffff811115620002eb57620002ea620000bd565b5b620002f9868287016200020e565b92505060406200030c8682870162000265565b9150509250925092565b600081519050919050565b7f4e487b7100000000000000000000000000000000000000000000000000000000600052602260045260246000fd5b600060028204905060018216806200036957607f821691505b6020821081036200037f576200037e62000321565b5b50919050565b60008190508160005260206000209050919050565b60006020601f8301049050919050565b600082821b905092915050565b600060088302620003e97fffffffffffffffffffffffffffffffffffffffffffffffffffffffffffffffff82620003aa565b620003f58683620003aa565b95508019841693508086168417925050509392505050565b6000819050919050565b600062000438620004326200042c8462000241565b6200040d565b62000241565b9050919050565b6000819050919050565b620004548362000417565b6200046c62000463826200043f565b848454620003b7565b825550505050565b600090565b6200048362000474565b6200049081848462000449565b505050565b5b81811015620004b857620004ac60008262000479565b60018101905062000496565b5050565b601f8211156200050757620004d18162000385565b620004dc846200039a565b81016020851015620004ec578190505b62000504620004fb856200039a565b83018262000495565b50505b505050565b600082821c905092915050565b60006200052c600019846008026200050c565b1980831691505092915050565b600062000547838362000519565b9150826002028217905092915050565b620005628262000316565b67ffffffffffffffff8111156200057e576200057d620000dd565b5b6200058a825462000350565b62000597828285620004bc565b600060209050601f831160018114620005cf5760008415620005ba578287015190505b620005c6858262000539565b86555062000636565b601f198416620005df8662000385565b60005b828110156200060957848901518255600182019150602085019450602081019050620005e2565b8683101562000629578489015162000625601f89168262000519565b8355505b6001600288020188555050505b505050505050565b61285a806200064e6000396000f3fe608060405234801561001057600080fd5b50600436106101425760003560e01c806370a08231116100b8578063b88d4fde1161007c578063b88d4fde14610379578063b8ba600714610395578063c87b56dd146103c5578063d5abeb01146103f5578063e985e9c514610413578063f390c3281461044357610142565b806370a08231146102d357806394fc67d11461030357806395d89b41146103215780639f7733991461033f578063a22cb4651461035d57610142565b806323b872dd1161010a57806323b872dd146101ff57806338020dcc1461021b57806342842e0e146102395780634be3403c146102555780635e7ec827146102855780636352211e146102a357610142565b806301ffc9a71461014757806306fdde0314610177578063081812fc14610195578063095ea7b3146101c557806318160ddd146101e1575b600080fd5b610161600480360381019061015c9190611f01565b610473565b60405161016e9190611f49565b60405180910390f35b61017f610555565b60405161018c9190611ff4565b60405180910390f35b6101af60048036038101906101aa919061204c565b6105e7565b6040516101bc91906120ba565b60405180910390f35b6101df60048036038101906101da9190612101565b610663565b005b6101e9610767565b6040516101f69190612150565b60405180910390f35b6102196004803603810190610214919061216b565b61077e565b005b61022361078e565b6040516102309190612150565b60405180910390f35b610253600480360381019061024e919061216b565b610794565b005b61026f600480360381019061026a919061204c565b6107b4565b60405161027c9190612150565b60405180910390f35b61028d61082b565b60405161029a9190612150565b60405180910390f35b6102bd60048036038101906102b8919061204c565b610831565b6040516102ca91906120ba565b60405180910390f35b6102ed60048036038101906102e891906121be565b610847565b6040516102fa9190612150565b60405180910390f35b61030b610916565b6040516103189190612150565b60405180910390f35b61032961091c565b6040516103369190611ff4565b60405180910390f35b6103476109ae565b6040516103549190612150565b60405180910390f35b61037760048036038101906103729190612217565b6109b4565b005b610393600480360381019061038e919061238c565b610b2b565b005b6103af60048036038101906103aa91906121be565b610ba3565b6040516103bc9190612150565b60405180910390f35b6103df60048036038101906103da919061204c565b610db2565b6040516103ec9190611ff4565b60405180910390f35b6103fd610e50565b60405161040a9190612150565b60405180910390f35b61042d6004803603810190610428919061240f565b610e67565b60405161043a9190611f49565b60405180910390f35b61045d6004803603810190610458919061204c565b610efb565b60405161046a9190612150565b60405180910390f35b60007f80ac58cd000000000000000000000000000000000000000000000000000000007bffffffffffffffffffffffffffffffffffffffffffffffffffffffff1916827bffffffffffffffffffffffffffffffffffffffffffffffffffffffff1916148061053e57507f5b5e139f000000000000000000000000000000000000000000000000000000007bffffffffffffffffffffffffffffffffffffffffffffffffffffffff1916827bffffffffffffffffffffffffffffffffffffffffffffffffffffffff1916145b8061054e575061054d82610f5d565b5b9050919050565b6060600780546105649061247e565b80601f01602080910402602001604051908101604052809291908181526020018280546105909061247e565b80156105dd5780601f106105b2576101008083540402835291602001916105dd565b820191906000526020600020905b8154815290600101906020018083116105c057829003601f168201915b5050505050905090565b60006105f282610fc7565b610628576040517fcf4700e400000000000000000000000000000000000000000000000000000000815260040160405180910390fd5b600b600083815260200190815260200160002060009054906101000a900473ffffffffffffffffffffffffffffffffffffffff169050919050565b600061066e82610831565b90508073ffffffffffffffffffffffffffffffffffffffff168373ffffffffffffffffffffffffffffffffffffffff16036106d5576040517f943f7b8c00000000000000000000000000000000000000000000000000000000815260040160405180910390fd5b8073ffffffffffffffffffffffffffffffffffffffff166106f4611015565b73ffffffffffffffffffffffffffffffffffffffff1614610757576107208161071b611015565b610e67565b610756576040517fcfb3b94200000000000000000000000000000000000000000000000000000000815260040160405180910390fd5b5b61076283838361101d565b505050565b60006107716110cf565b6006546004540303905090565b6107898383836110d4565b505050565b60015481565b6107af83838360405180602001604052806000815250610b2b565b505050565b6000806107d4670de0b6b3a764000060015461187090919063ffffffff16565b905060006108076002546107f9670de0b6b3a76400008761187090919063ffffffff16565b61188690919063ffffffff16565b9050600061081e828461188690919063ffffffff16565b9050809350505050919050565b60035481565b600061083c8261189c565b600001519050919050565b60008073ffffffffffffffffffffffffffffffffffffffff168273ffffffffffffffffffffffffffffffffffffffff16036108ae576040517f8f4eb60400000000000000000000000000000000000000000000000000000000815260040160405180910390fd5b600a60008373ffffffffffffffffffffffffffffffffffffffff1673ffffffffffffffffffffffffffffffffffffffff16815260200190815260200160002060000160009054906101000a900467ffffffffffffffff1667ffffffffffffffff169050919050565b60025481565b60606008805461092b9061247e565b80601f01602080910402602001604051908101604052809291908181526020018280546109579061247e565b80156109a45780601f10610979576101008083540402835291602001916109a4565b820191906000526020600020905b81548152906001019060200180831161098757829003601f168201915b5050505050905090565b60005481565b6109bc611015565b73ffffffffffffffffffffffffffffffffffffffff168273ffffffffffffffffffffffffffffffffffffffff1603610a20576040517fb06307db00000000000000000000000000000000000000000000000000000000815260040160405180910390fd5b80600c6000610a2d611015565b73ffffffffffffffffffffffffffffffffffffffff1673ffffffffffffffffffffffffffffffffffffffff16815260200190815260200160002060008473ffffffffffffffffffffffffffffffffffffffff1673ffffffffffffffffffffffffffffffffffffffff16815260200190815260200160002060006101000a81548160ff0219169083151502179055508173ffffffffffffffffffffffffffffffffffffffff16610ada611015565b73ffffffffffffffffffffffffffffffffffffffff167f17307eab39ab6107e8899845ad3d59bd9653f200f220920489ca2b5937696c3183604051610b1f9190611f49565b60405180910390a35050565b610b368484846110d4565b610b558373ffffffffffffffffffffffffffffffffffffffff16611b27565b15610b9d57610b6684848484611b4a565b610b9c576040517fd1a57ed600000000000000000000000000000000000000000000000000000000815260040160405180910390fd5b5b50505050565b600080610c1d6001610c0f600d60008773ffffffffffffffffffffffffffffffffffffffff1673ffffffffffffffffffffffffffffffffffffffff1681526020019081526020016000206000600181526020019081526020016000205443611c9a90919063ffffffff16565b611cb090919063ffffffff16565b90506000610c7b600d60008673ffffffffffffffffffffffffffffffffffffffff1673ffffffffffffffffffffffffffffffffffffffff168152602001908152602001600020600060018152602001908152602001600020546107b4565b90506000610c88436107b4565b90506000610cc46002610cb686610ca88688611cb090919063ffffffff16565b61187090919063ffffffff16565b61188690919063ffffffff16565b90506000610d40600354610d32600d60008b73ffffffffffffffffffffffffffffffffffffffff1673ffffffffffffffffffffffffffffffffffffffff168152602001908152602001600020600060028152602001908152602001600020548561187090919063ffffffff16565b61188690919063ffffffff16565b9050610da681600d60008a73ffffffffffffffffffffffffffffffffffffffff1673ffffffffffffffffffffffffffffffffffffffff16815260200190815260200160002060006003815260200190815260200160002054611cb090919063ffffffff16565b95505050505050919050565b6060610dbd82610fc7565b610df3576040517fa14c4b5000000000000000000000000000000000000000000000000000000000815260040160405180910390fd5b6000610dfd611cc6565b90506000815103610e1d5760405180602001604052806000815250610e48565b80610e2784611ce6565b604051602001610e389291906124eb565b6040516020818303038152906040525b915050919050565b6000610e5a6110cf565b6006546005540303905090565b6000600c60008473ffffffffffffffffffffffffffffffffffffffff1673ffffffffffffffffffffffffffffffffffffffff16815260200190815260200160002060008373ffffffffffffffffffffffffffffffffffffffff1673ffffffffffffffffffffffffffffffffffffffff16815260200190815260200160002060009054906101000a900460ff16905092915050565b600080610f2583610f176000548661187090919063ffffffff16565b611cb090919063ffffffff16565b90506000600a82610f36919061253e565b03610f445760019050610f54565b600a81610f51919061253e565b90505b80915050919050565b60007f01ffc9a7000000000000000000000000000000000000000000000000000000007bffffffffffffffffffffffffffffffffffffffffffffffffffffffff1916827bffffffffffffffffffffffffffffffffffffffffffffffffffffffff1916149050919050565b600081610fd26110cf565b11158015610fe1575060045482105b801561100e575060096000838152602001908152602001600020600001601c9054906101000a900460ff16155b9050919050565b600033905090565b82600b600084815260200190815260200160002060006101000a81548173ffffffffffffffffffffffffffffffffffffffff021916908373ffffffffffffffffffffffffffffffffffffffff160217905550818373ffffffffffffffffffffffffffffffffffffffff168273ffffffffffffffffffffffffffffffffffffffff167f8c5be1e5ebec7d5bd14f71427d1e84f3dd0314c0f7b2291e5b200ac8c7c3b92560405160405180910390a4505050565b600090565b60006110df82610efb565b90506110ea84610ba3565b600d60008673ffffffffffffffffffffffffffffffffffffffff1673ffffffffffffffffffffffffffffffffffffffff168152602001908152602001600020600060038152602001908152602001600020819055506111a381600d60008773ffffffffffffffffffffffffffffffffffffffff1673ffffffffffffffffffffffffffffffffffffffff16815260200190815260200160002060006002815260200190815260200160002054611c9a90919063ffffffff16565b600d60008673ffffffffffffffffffffffffffffffffffffffff1673ffffffffffffffffffffffffffffffffffffffff1681526020019081526020016000206000600281526020019081526020016000208190555043600d60008673ffffffffffffffffffffffffffffffffffffffff1673ffffffffffffffffffffffffffffffffffffffff1681526020019081526020016000206000600181526020019081526020016000208190555061125783610ba3565b600d60008573ffffffffffffffffffffffffffffffffffffffff1673ffffffffffffffffffffffffffffffffffffffff1681526020019081526020016000206000600381526020019081526020016000208190555061131081600d60008673ffffffffffffffffffffffffffffffffffffffff1673ffffffffffffffffffffffffffffffffffffffff16815260200190815260200160002060006002815260200190815260200160002054611cb090919063ffffffff16565b600d60008573ffffffffffffffffffffffffffffffffffffffff1673ffffffffffffffffffffffffffffffffffffffff1681526020019081526020016000206000600281526020019081526020016000208190555043600d60008573ffffffffffffffffffffffffffffffffffffffff1673ffffffffffffffffffffffffffffffffffffffff1681526020019081526020016000206000600181526020019081526020016000208190555060006113c68361189c565b90508473ffffffffffffffffffffffffffffffffffffffff16816000015173ffffffffffffffffffffffffffffffffffffffff1614611431576040517fa114810000000000000000000000000000000000000000000000000000000000815260040160405180910390fd5b60008573ffffffffffffffffffffffffffffffffffffffff16611452611015565b73ffffffffffffffffffffffffffffffffffffffff16148061148157506114808661147b611015565b610e67565b5b806114c6575061148f611015565b73ffffffffffffffffffffffffffffffffffffffff166114ae856105e7565b73ffffffffffffffffffffffffffffffffffffffff16145b9050806114ff576040517f59c896be00000000000000000000000000000000000000000000000000000000815260040160405180910390fd5b600073ffffffffffffffffffffffffffffffffffffffff168573ffffffffffffffffffffffffffffffffffffffff1603611565576040517fea553b3400000000000000000000000000000000000000000000000000000000815260040160405180910390fd5b6115728686866001611e46565b61157e6000858861101d565b6001600a60008873ffffffffffffffffffffffffffffffffffffffff1673ffffffffffffffffffffffffffffffffffffffff16815260200190815260200160002060000160008282829054906101000a900467ffffffffffffffff160392506101000a81548167ffffffffffffffff021916908367ffffffffffffffff1602179055506001600a60008773ffffffffffffffffffffffffffffffffffffffff1673ffffffffffffffffffffffffffffffffffffffff16815260200190815260200160002060000160008282829054906101000a900467ffffffffffffffff160192506101000a81548167ffffffffffffffff021916908367ffffffffffffffff1602179055506000600960008681526020019081526020016000209050858160000160006101000a81548173ffffffffffffffffffffffffffffffffffffffff021916908373ffffffffffffffffffffffffffffffffffffffff160217905550428160000160146101000a81548167ffffffffffffffff021916908367ffffffffffffffff16021790555060006001860190506000600960008381526020019081526020016000209050600073ffffffffffffffffffffffffffffffffffffffff168160000160009054906101000a900473ffffffffffffffffffffffffffffffffffffffff1673ffffffffffffffffffffffffffffffffffffffff16036117fd5760045482146117fc57888160000160006101000a81548173ffffffffffffffffffffffffffffffffffffffff021916908373ffffffffffffffffffffffffffffffffffffffff16021790555084602001518160000160146101000a81548167ffffffffffffffff021916908367ffffffffffffffff1602179055505b5b505050838573ffffffffffffffffffffffffffffffffffffffff168773ffffffffffffffffffffffffffffffffffffffff167fddf252ad1be2c89b69c2b068fc378daa952ba7f163c4a11628f55a4df523b3ef60405160405180910390a46118688686866001611e4c565b505050505050565b6000818361187e919061259e565b905092915050565b6000818361189491906125e0565b905092915050565b6118a4611e52565b6000829050806118b26110cf565b11611af057600454811015611aef576000600960008381526020019081526020016000206040518060600160405290816000820160009054906101000a900473ffffffffffffffffffffffffffffffffffffffff1673ffffffffffffffffffffffffffffffffffffffff1673ffffffffffffffffffffffffffffffffffffffff1681526020016000820160149054906101000a900467ffffffffffffffff1667ffffffffffffffff1667ffffffffffffffff16815260200160008201601c9054906101000a900460ff16151515158152505090508060400151611aed57600073ffffffffffffffffffffffffffffffffffffffff16816000015173ffffffffffffffffffffffffffffffffffffffff16146119d1578092505050611b22565b5b600115611aec57818060019003925050600960008381526020019081526020016000206040518060600160405290816000820160009054906101000a900473ffffffffffffffffffffffffffffffffffffffff1673ffffffffffffffffffffffffffffffffffffffff1673ffffffffffffffffffffffffffffffffffffffff1681526020016000820160149054906101000a900467ffffffffffffffff1667ffffffffffffffff1667ffffffffffffffff16815260200160008201601c9054906101000a900460ff1615151515815250509050600073ffffffffffffffffffffffffffffffffffffffff16816000015173ffffffffffffffffffffffffffffffffffffffff1614611ae7578092505050611b22565b6119d2565b5b505b5b6040517fdf2d9b4200000000000000000000000000000000000000000000000000000000815260040160405180910390fd5b919050565b6000808273ffffffffffffffffffffffffffffffffffffffff163b119050919050565b60008373ffffffffffffffffffffffffffffffffffffffff1663150b7a02611b70611015565b8786866040518563ffffffff1660e01b8152600401611b929493929190612666565b6020604051808303816000875af1925050508015611bce57506040513d601f19601f82011682018060405250810190611bcb91906126c7565b60015b611c47573d8060008114611bfe576040519150601f19603f3d011682016040523d82523d6000602084013e611c03565b606091505b506000815103611c3f576040517fd1a57ed600000000000000000000000000000000000000000000000000000000815260040160405180910390fd5b805181602001fd5b63150b7a0260e01b7bffffffffffffffffffffffffffffffffffffffffffffffffffffffff1916817bffffffffffffffffffffffffffffffffffffffffffffffffffffffff191614915050949350505050565b60008183611ca891906126f4565b905092915050565b60008183611cbe9190612728565b905092915050565b60606040518060800160405280605181526020016127d460519139905090565b606060008203611d2d576040518060400160405280600181526020017f30000000000000000000000000000000000000000000000000000000000000008152509050611e41565b600082905060005b60008214611d5f578080611d489061275c565b915050600a82611d5891906125e0565b9150611d35565b60008167ffffffffffffffff811115611d7b57611d7a612261565b5b6040519080825280601f01601f191660200182016040528015611dad5781602001600182028036833780820191505090505b5090505b60008514611e3a57600182611dc691906126f4565b9150600a85611dd5919061253e565b6030611de19190612728565b60f81b818381518110611df757611df66127a4565b5b60200101907effffffffffffffffffffffffffffffffffffffffffffffffffffffffffffff1916908160001a905350600a85611e3391906125e0565b9450611db1565b8093505050505b919050565b50505050565b50505050565b6040518060600160405280600073ffffffffffffffffffffffffffffffffffffffff168152602001600067ffffffffffffffff1681526020016000151581525090565b6000604051905090565b600080fd5b600080fd5b60007fffffffff0000000000000000000000000000000000000000000000000000000082169050919050565b611ede81611ea9565b8114611ee957600080fd5b50565b600081359050611efb81611ed5565b92915050565b600060208284031215611f1757611f16611e9f565b5b6000611f2584828501611eec565b91505092915050565b60008115159050919050565b611f4381611f2e565b82525050565b6000602082019050611f5e6000830184611f3a565b92915050565b600081519050919050565b600082825260208201905092915050565b60005b83811015611f9e578082015181840152602081019050611f83565b60008484015250505050565b6000601f19601f8301169050919050565b6000611fc682611f64565b611fd08185611f6f565b9350611fe0818560208601611f80565b611fe981611faa565b840191505092915050565b6000602082019050818103600083015261200e8184611fbb565b905092915050565b6000819050919050565b61202981612016565b811461203457600080fd5b50565b60008135905061204681612020565b92915050565b60006020828403121561206257612061611e9f565b5b600061207084828501612037565b91505092915050565b600073ffffffffffffffffffffffffffffffffffffffff82169050919050565b60006120a482612079565b9050919050565b6120b481612099565b82525050565b60006020820190506120cf60008301846120ab565b92915050565b6120de81612099565b81146120e957600080fd5b50565b6000813590506120fb816120d5565b92915050565b6000806040838503121561211857612117611e9f565b5b6000612126858286016120ec565b925050602061213785828601612037565b9150509250929050565b61214a81612016565b82525050565b60006020820190506121656000830184612141565b92915050565b60008060006060848603121561218457612183611e9f565b5b6000612192868287016120ec565b93505060206121a3868287016120ec565b92505060406121b486828701612037565b9150509250925092565b6000602082840312156121d4576121d3611e9f565b5b60006121e2848285016120ec565b91505092915050565b6121f481611f2e565b81146121ff57600080fd5b50565b600081359050612211816121eb565b92915050565b6000806040838503121561222e5761222d611e9f565b5b600061223c858286016120ec565b925050602061224d85828601612202565b9150509250929050565b600080fd5b600080fd5b7f4e487b7100000000000000000000000000000000000000000000000000000000600052604160045260246000fd5b61229982611faa565b810181811067ffffffffffffffff821117156122b8576122b7612261565b5b80604052505050565b60006122cb611e95565b90506122d78282612290565b919050565b600067ffffffffffffffff8211156122f7576122f6612261565b5b61230082611faa565b9050602081019050919050565b82818337600083830152505050565b600061232f61232a846122dc565b6122c1565b90508281526020810184848401111561234b5761234a61225c565b5b61235684828561230d565b509392505050565b600082601f83011261237357612372612257565b5b813561238384826020860161231c565b91505092915050565b600080600080608085870312156123a6576123a5611e9f565b5b60006123b4878288016120ec565b94505060206123c5878288016120ec565b93505060406123d687828801612037565b925050606085013567ffffffffffffffff8111156123f7576123f6611ea4565b5b6124038782880161235e565b91505092959194509250565b6000806040838503121561242657612425611e9f565b5b6000612434858286016120ec565b9250506020612445858286016120ec565b9150509250929050565b7f4e487b7100000000000000000000000000000000000000000000000000000000600052602260045260246000fd5b6000600282049050600182168061249657607f821691505b6020821081036124a9576124a861244f565b5b50919050565b600081905092915050565b60006124c582611f64565b6124cf81856124af565b93506124df818560208601611f80565b80840191505092915050565b60006124f782856124ba565b915061250382846124ba565b91508190509392505050565b7f4e487b7100000000000000000000000000000000000000000000000000000000600052601260045260246000fd5b600061254982612016565b915061255483612016565b9250826125645761256361250f565b5b828206905092915050565b7f4e487b7100000000000000000000000000000000000000000000000000000000600052601160045260246000fd5b60006125a982612016565b91506125b483612016565b92508282026125c281612016565b915082820484148315176125d9576125d861256f565b5b5092915050565b60006125eb82612016565b91506125f683612016565b9250826126065761260561250f565b5b828204905092915050565b600081519050919050565b600082825260208201905092915050565b600061263882612611565b612642818561261c565b9350612652818560208601611f80565b61265b81611faa565b840191505092915050565b600060808201905061267b60008301876120ab565b61268860208301866120ab565b6126956040830185612141565b81810360608301526126a7818461262d565b905095945050505050565b6000815190506126c181611ed5565b92915050565b6000602082840312156126dd576126dc611e9f565b5b60006126eb848285016126b2565b91505092915050565b60006126ff82612016565b915061270a83612016565b92508282039050818111156127225761272161256f565b5b92915050565b600061273382612016565b915061273e83612016565b92508282019050808211156127565761275561256f565b5b92915050565b600061276782612016565b91507fffffffffffffffffffffffffffffffffffffffffffffffffffffffffffffffff82036127995761279861256f565b5b600182019050919050565b7f4e487b7100000000000000000000000000000000000000000000000000000000600052603260045260246000fdfe68747470733a2f2f676174657761792e70696e6174612e636c6f75642f697066732f516d65794b6e7658584d78417557473570743335457a3851684a6852363352445653775566736a4b61795234325a2fa264697066735822122013a50375dd6c829655e522ac9956f89f4a6b4119de813ea706f22c4afe24ab8264736f6c63430008110033",
					"opcodes": "PUSH1 0x80 PUSH1 0x40 MSTORE CALLVALUE DUP1 ISZERO PUSH3 0x11 JUMPI PUSH1 0x0 DUP1 REVERT JUMPDEST POP PUSH1 0x40 MLOAD PUSH3 0x2EA8 CODESIZE SUB DUP1 PUSH3 0x2EA8 DUP4 CODECOPY DUP2 DUP2 ADD PUSH1 0x40 MSTORE DUP2 ADD SWAP1 PUSH3 0x37 SWAP2 SWAP1 PUSH3 0x27C JUMP JUMPDEST DUP3 PUSH1 0x7 SWAP1 DUP2 PUSH3 0x48 SWAP2 SWAP1 PUSH3 0x557 JUMP JUMPDEST POP DUP2 PUSH1 0x8 SWAP1 DUP2 PUSH3 0x5A SWAP2 SWAP1 PUSH3 0x557 JUMP JUMPDEST POP PUSH2 0x2710 PUSH1 0x5 DUP2 SWAP1 SSTORE POP PUSH3 0x74 PUSH3 0xA9 PUSH1 0x20 SHL PUSH1 0x20 SHR JUMP JUMPDEST PUSH1 0x4 DUP2 SWAP1 SSTORE POP DUP1 PUSH1 0x0 DUP2 SWAP1 SSTORE POP PUSH8 0x1BC16D674EC80000 PUSH1 0x1 DUP2 SWAP1 SSTORE POP PUSH2 0xB3B0 PUSH1 0x3 DUP2 SWAP1 SSTORE POP NUMBER PUSH1 0x2 DUP2 SWAP1 SSTORE POP POP POP POP PUSH3 0x63E JUMP JUMPDEST PUSH1 0x0 SWAP1 JUMP JUMPDEST PUSH1 0x0 PUSH1 0x40 MLOAD SWAP1 POP SWAP1 JUMP JUMPDEST PUSH1 0x0 DUP1 REVERT JUMPDEST PUSH1 0x0 DUP1 REVERT JUMPDEST PUSH1 0x0 DUP1 REVERT JUMPDEST PUSH1 0x0 DUP1 REVERT JUMPDEST PUSH1 0x0 PUSH1 0x1F NOT PUSH1 0x1F DUP4 ADD AND SWAP1 POP SWAP2 SWAP1 POP JUMP JUMPDEST PUSH32 0x4E487B7100000000000000000000000000000000000000000000000000000000 PUSH1 0x0 MSTORE PUSH1 0x41 PUSH1 0x4 MSTORE PUSH1 0x24 PUSH1 0x0 REVERT JUMPDEST PUSH3 0x117 DUP3 PUSH3 0xCC JUMP JUMPDEST DUP2 ADD DUP2 DUP2 LT PUSH8 0xFFFFFFFFFFFFFFFF DUP3 GT OR ISZERO PUSH3 0x139 JUMPI PUSH3 0x138 PUSH3 0xDD JUMP JUMPDEST JUMPDEST DUP1 PUSH1 0x40 MSTORE POP POP POP JUMP JUMPDEST PUSH1 0x0 PUSH3 0x14E PUSH3 0xAE JUMP JUMPDEST SWAP1 POP PUSH3 0x15C DUP3 DUP3 PUSH3 0x10C JUMP JUMPDEST SWAP2 SWAP1 POP JUMP JUMPDEST PUSH1 0x0 PUSH8 0xFFFFFFFFFFFFFFFF DUP3 GT ISZERO PUSH3 0x17F JUMPI PUSH3 0x17E PUSH3 0xDD JUMP JUMPDEST JUMPDEST PUSH3 0x18A DUP3 PUSH3 0xCC JUMP JUMPDEST SWAP1 POP PUSH1 0x20 DUP2 ADD SWAP1 POP SWAP2 SWAP1 POP JUMP JUMPDEST PUSH1 0x0 JUMPDEST DUP4 DUP2 LT ISZERO PUSH3 0x1B7 JUMPI DUP1 DUP3 ADD MLOAD DUP2 DUP5 ADD MSTORE PUSH1 0x20 DUP2 ADD SWAP1 POP PUSH3 0x19A JUMP JUMPDEST PUSH1 0x0 DUP5 DUP5 ADD MSTORE POP POP POP POP JUMP JUMPDEST PUSH1 0x0 PUSH3 0x1DA PUSH3 0x1D4 DUP5 PUSH3 0x161 JUMP JUMPDEST PUSH3 0x142 JUMP JUMPDEST SWAP1 POP DUP3 DUP2 MSTORE PUSH1 0x20 DUP2 ADD DUP5 DUP5 DUP5 ADD GT ISZERO PUSH3 0x1F9 JUMPI PUSH3 0x1F8 PUSH3 0xC7 JUMP JUMPDEST JUMPDEST PUSH3 0x206 DUP5 DUP3 DUP6 PUSH3 0x197 JUMP JUMPDEST POP SWAP4 SWAP3 POP POP POP JUMP JUMPDEST PUSH1 0x0 DUP3 PUSH1 0x1F DUP4 ADD SLT PUSH3 0x226 JUMPI PUSH3 0x225 PUSH3 0xC2 JUMP JUMPDEST JUMPDEST DUP2 MLOAD PUSH3 0x238 DUP5 DUP3 PUSH1 0x20 DUP7 ADD PUSH3 0x1C3 JUMP JUMPDEST SWAP2 POP POP SWAP3 SWAP2 POP POP JUMP JUMPDEST PUSH1 0x0 DUP2 SWAP1 POP SWAP2 SWAP1 POP JUMP JUMPDEST PUSH3 0x256 DUP2 PUSH3 0x241 JUMP JUMPDEST DUP2 EQ PUSH3 0x262 JUMPI PUSH1 0x0 DUP1 REVERT JUMPDEST POP JUMP JUMPDEST PUSH1 0x0 DUP2 MLOAD SWAP1 POP PUSH3 0x276 DUP2 PUSH3 0x24B JUMP JUMPDEST SWAP3 SWAP2 POP POP JUMP JUMPDEST PUSH1 0x0 DUP1 PUSH1 0x0 PUSH1 0x60 DUP5 DUP7 SUB SLT ISZERO PUSH3 0x298 JUMPI PUSH3 0x297 PUSH3 0xB8 JUMP JUMPDEST JUMPDEST PUSH1 0x0 DUP5 ADD MLOAD PUSH8 0xFFFFFFFFFFFFFFFF DUP2 GT ISZERO PUSH3 0x2B9 JUMPI PUSH3 0x2B8 PUSH3 0xBD JUMP JUMPDEST JUMPDEST PUSH3 0x2C7 DUP7 DUP3 DUP8 ADD PUSH3 0x20E JUMP JUMPDEST SWAP4 POP POP PUSH1 0x20 DUP5 ADD MLOAD PUSH8 0xFFFFFFFFFFFFFFFF DUP2 GT ISZERO PUSH3 0x2EB JUMPI PUSH3 0x2EA PUSH3 0xBD JUMP JUMPDEST JUMPDEST PUSH3 0x2F9 DUP7 DUP3 DUP8 ADD PUSH3 0x20E JUMP JUMPDEST SWAP3 POP POP PUSH1 0x40 PUSH3 0x30C DUP7 DUP3 DUP8 ADD PUSH3 0x265 JUMP JUMPDEST SWAP2 POP POP SWAP3 POP SWAP3 POP SWAP3 JUMP JUMPDEST PUSH1 0x0 DUP2 MLOAD SWAP1 POP SWAP2 SWAP1 POP JUMP JUMPDEST PUSH32 0x4E487B7100000000000000000000000000000000000000000000000000000000 PUSH1 0x0 MSTORE PUSH1 0x22 PUSH1 0x4 MSTORE PUSH1 0x24 PUSH1 0x0 REVERT JUMPDEST PUSH1 0x0 PUSH1 0x2 DUP3 DIV SWAP1 POP PUSH1 0x1 DUP3 AND DUP1 PUSH3 0x369 JUMPI PUSH1 0x7F DUP3 AND SWAP2 POP JUMPDEST PUSH1 0x20 DUP3 LT DUP2 SUB PUSH3 0x37F JUMPI PUSH3 0x37E PUSH3 0x321 JUMP JUMPDEST JUMPDEST POP SWAP2 SWAP1 POP JUMP JUMPDEST PUSH1 0x0 DUP2 SWAP1 POP DUP2 PUSH1 0x0 MSTORE PUSH1 0x20 PUSH1 0x0 KECCAK256 SWAP1 POP SWAP2 SWAP1 POP JUMP JUMPDEST PUSH1 0x0 PUSH1 0x20 PUSH1 0x1F DUP4 ADD DIV SWAP1 POP SWAP2 SWAP1 POP JUMP JUMPDEST PUSH1 0x0 DUP3 DUP3 SHL SWAP1 POP SWAP3 SWAP2 POP POP JUMP JUMPDEST PUSH1 0x0 PUSH1 0x8 DUP4 MUL PUSH3 0x3E9 PUSH32 0xFFFFFFFFFFFFFFFFFFFFFFFFFFFFFFFFFFFFFFFFFFFFFFFFFFFFFFFFFFFFFFFF DUP3 PUSH3 0x3AA JUMP JUMPDEST PUSH3 0x3F5 DUP7 DUP4 PUSH3 0x3AA JUMP JUMPDEST SWAP6 POP DUP1 NOT DUP5 AND SWAP4 POP DUP1 DUP7 AND DUP5 OR SWAP3 POP POP POP SWAP4 SWAP3 POP POP POP JUMP JUMPDEST PUSH1 0x0 DUP2 SWAP1 POP SWAP2 SWAP1 POP JUMP JUMPDEST PUSH1 0x0 PUSH3 0x438 PUSH3 0x432 PUSH3 0x42C DUP5 PUSH3 0x241 JUMP JUMPDEST PUSH3 0x40D JUMP JUMPDEST PUSH3 0x241 JUMP JUMPDEST SWAP1 POP SWAP2 SWAP1 POP JUMP JUMPDEST PUSH1 0x0 DUP2 SWAP1 POP SWAP2 SWAP1 POP JUMP JUMPDEST PUSH3 0x454 DUP4 PUSH3 0x417 JUMP JUMPDEST PUSH3 0x46C PUSH3 0x463 DUP3 PUSH3 0x43F JUMP JUMPDEST DUP5 DUP5 SLOAD PUSH3 0x3B7 JUMP JUMPDEST DUP3 SSTORE POP POP POP POP JUMP JUMPDEST PUSH1 0x0 SWAP1 JUMP JUMPDEST PUSH3 0x483 PUSH3 0x474 JUMP JUMPDEST PUSH3 0x490 DUP2 DUP5 DUP5 PUSH3 0x449 JUMP JUMPDEST POP POP POP JUMP JUMPDEST JUMPDEST DUP2 DUP2 LT ISZERO PUSH3 0x4B8 JUMPI PUSH3 0x4AC PUSH1 0x0 DUP3 PUSH3 0x479 JUMP JUMPDEST PUSH1 0x1 DUP2 ADD SWAP1 POP PUSH3 0x496 JUMP JUMPDEST POP POP JUMP JUMPDEST PUSH1 0x1F DUP3 GT ISZERO PUSH3 0x507 JUMPI PUSH3 0x4D1 DUP2 PUSH3 0x385 JUMP JUMPDEST PUSH3 0x4DC DUP5 PUSH3 0x39A JUMP JUMPDEST DUP2 ADD PUSH1 0x20 DUP6 LT ISZERO PUSH3 0x4EC JUMPI DUP2 SWAP1 POP JUMPDEST PUSH3 0x504 PUSH3 0x4FB DUP6 PUSH3 0x39A JUMP JUMPDEST DUP4 ADD DUP3 PUSH3 0x495 JUMP JUMPDEST POP POP JUMPDEST POP POP POP JUMP JUMPDEST PUSH1 0x0 DUP3 DUP3 SHR SWAP1 POP SWAP3 SWAP2 POP POP JUMP JUMPDEST PUSH1 0x0 PUSH3 0x52C PUSH1 0x0 NOT DUP5 PUSH1 0x8 MUL PUSH3 0x50C JUMP JUMPDEST NOT DUP1 DUP4 AND SWAP2 POP POP SWAP3 SWAP2 POP POP JUMP JUMPDEST PUSH1 0x0 PUSH3 0x547 DUP4 DUP4 PUSH3 0x519 JUMP JUMPDEST SWAP2 POP DUP3 PUSH1 0x2 MUL DUP3 OR SWAP1 POP SWAP3 SWAP2 POP POP JUMP JUMPDEST PUSH3 0x562 DUP3 PUSH3 0x316 JUMP JUMPDEST PUSH8 0xFFFFFFFFFFFFFFFF DUP2 GT ISZERO PUSH3 0x57E JUMPI PUSH3 0x57D PUSH3 0xDD JUMP JUMPDEST JUMPDEST PUSH3 0x58A DUP3 SLOAD PUSH3 0x350 JUMP JUMPDEST PUSH3 0x597 DUP3 DUP3 DUP6 PUSH3 0x4BC JUMP JUMPDEST PUSH1 0x0 PUSH1 0x20 SWAP1 POP PUSH1 0x1F DUP4 GT PUSH1 0x1 DUP2 EQ PUSH3 0x5CF JUMPI PUSH1 0x0 DUP5 ISZERO PUSH3 0x5BA JUMPI DUP3 DUP8 ADD MLOAD SWAP1 POP JUMPDEST PUSH3 0x5C6 DUP6 DUP3 PUSH3 0x539 JUMP JUMPDEST DUP7 SSTORE POP PUSH3 0x636 JUMP JUMPDEST PUSH1 0x1F NOT DUP5 AND PUSH3 0x5DF DUP7 PUSH3 0x385 JUMP JUMPDEST PUSH1 0x0 JUMPDEST DUP3 DUP2 LT ISZERO PUSH3 0x609 JUMPI DUP5 DUP10 ADD MLOAD DUP3 SSTORE PUSH1 0x1 DUP3 ADD SWAP2 POP PUSH1 0x20 DUP6 ADD SWAP5 POP PUSH1 0x20 DUP2 ADD SWAP1 POP PUSH3 0x5E2 JUMP JUMPDEST DUP7 DUP4 LT ISZERO PUSH3 0x629 JUMPI DUP5 DUP10 ADD MLOAD PUSH3 0x625 PUSH1 0x1F DUP10 AND DUP3 PUSH3 0x519 JUMP JUMPDEST DUP4 SSTORE POP JUMPDEST PUSH1 0x1 PUSH1 0x2 DUP9 MUL ADD DUP9 SSTORE POP POP POP JUMPDEST POP POP POP POP POP POP JUMP JUMPDEST PUSH2 0x285A DUP1 PUSH3 0x64E PUSH1 0x0 CODECOPY PUSH1 0x0 RETURN INVALID PUSH1 0x80 PUSH1 0x40 MSTORE CALLVALUE DUP1 ISZERO PUSH2 0x10 JUMPI PUSH1 0x0 DUP1 REVERT JUMPDEST POP PUSH1 0x4 CALLDATASIZE LT PUSH2 0x142 JUMPI PUSH1 0x0 CALLDATALOAD PUSH1 0xE0 SHR DUP1 PUSH4 0x70A08231 GT PUSH2 0xB8 JUMPI DUP1 PUSH4 0xB88D4FDE GT PUSH2 0x7C JUMPI DUP1 PUSH4 0xB88D4FDE EQ PUSH2 0x379 JUMPI DUP1 PUSH4 0xB8BA6007 EQ PUSH2 0x395 JUMPI DUP1 PUSH4 0xC87B56DD EQ PUSH2 0x3C5 JUMPI DUP1 PUSH4 0xD5ABEB01 EQ PUSH2 0x3F5 JUMPI DUP1 PUSH4 0xE985E9C5 EQ PUSH2 0x413 JUMPI DUP1 PUSH4 0xF390C328 EQ PUSH2 0x443 JUMPI PUSH2 0x142 JUMP JUMPDEST DUP1 PUSH4 0x70A08231 EQ PUSH2 0x2D3 JUMPI DUP1 PUSH4 0x94FC67D1 EQ PUSH2 0x303 JUMPI DUP1 PUSH4 0x95D89B41 EQ PUSH2 0x321 JUMPI DUP1 PUSH4 0x9F773399 EQ PUSH2 0x33F JUMPI DUP1 PUSH4 0xA22CB465 EQ PUSH2 0x35D JUMPI PUSH2 0x142 JUMP JUMPDEST DUP1 PUSH4 0x23B872DD GT PUSH2 0x10A JUMPI DUP1 PUSH4 0x23B872DD EQ PUSH2 0x1FF JUMPI DUP1 PUSH4 0x38020DCC EQ PUSH2 0x21B JUMPI DUP1 PUSH4 0x42842E0E EQ PUSH2 0x239 JUMPI DUP1 PUSH4 0x4BE3403C EQ PUSH2 0x255 JUMPI DUP1 PUSH4 0x5E7EC827 EQ PUSH2 0x285 JUMPI DUP1 PUSH4 0x6352211E EQ PUSH2 0x2A3 JUMPI PUSH2 0x142 JUMP JUMPDEST DUP1 PUSH4 0x1FFC9A7 EQ PUSH2 0x147 JUMPI DUP1 PUSH4 0x6FDDE03 EQ PUSH2 0x177 JUMPI DUP1 PUSH4 0x81812FC EQ PUSH2 0x195 JUMPI DUP1 PUSH4 0x95EA7B3 EQ PUSH2 0x1C5 JUMPI DUP1 PUSH4 0x18160DDD EQ PUSH2 0x1E1 JUMPI JUMPDEST PUSH1 0x0 DUP1 REVERT JUMPDEST PUSH2 0x161 PUSH1 0x4 DUP1 CALLDATASIZE SUB DUP2 ADD SWAP1 PUSH2 0x15C SWAP2 SWAP1 PUSH2 0x1F01 JUMP JUMPDEST PUSH2 0x473 JUMP JUMPDEST PUSH1 0x40 MLOAD PUSH2 0x16E SWAP2 SWAP1 PUSH2 0x1F49 JUMP JUMPDEST PUSH1 0x40 MLOAD DUP1 SWAP2 SUB SWAP1 RETURN JUMPDEST PUSH2 0x17F PUSH2 0x555 JUMP JUMPDEST PUSH1 0x40 MLOAD PUSH2 0x18C SWAP2 SWAP1 PUSH2 0x1FF4 JUMP JUMPDEST PUSH1 0x40 MLOAD DUP1 SWAP2 SUB SWAP1 RETURN JUMPDEST PUSH2 0x1AF PUSH1 0x4 DUP1 CALLDATASIZE SUB DUP2 ADD SWAP1 PUSH2 0x1AA SWAP2 SWAP1 PUSH2 0x204C JUMP JUMPDEST PUSH2 0x5E7 JUMP JUMPDEST PUSH1 0x40 MLOAD PUSH2 0x1BC SWAP2 SWAP1 PUSH2 0x20BA JUMP JUMPDEST PUSH1 0x40 MLOAD DUP1 SWAP2 SUB SWAP1 RETURN JUMPDEST PUSH2 0x1DF PUSH1 0x4 DUP1 CALLDATASIZE SUB DUP2 ADD SWAP1 PUSH2 0x1DA SWAP2 SWAP1 PUSH2 0x2101 JUMP JUMPDEST PUSH2 0x663 JUMP JUMPDEST STOP JUMPDEST PUSH2 0x1E9 PUSH2 0x767 JUMP JUMPDEST PUSH1 0x40 MLOAD PUSH2 0x1F6 SWAP2 SWAP1 PUSH2 0x2150 JUMP JUMPDEST PUSH1 0x40 MLOAD DUP1 SWAP2 SUB SWAP1 RETURN JUMPDEST PUSH2 0x219 PUSH1 0x4 DUP1 CALLDATASIZE SUB DUP2 ADD SWAP1 PUSH2 0x214 SWAP2 SWAP1 PUSH2 0x216B JUMP JUMPDEST PUSH2 0x77E JUMP JUMPDEST STOP JUMPDEST PUSH2 0x223 PUSH2 0x78E JUMP JUMPDEST PUSH1 0x40 MLOAD PUSH2 0x230 SWAP2 SWAP1 PUSH2 0x2150 JUMP JUMPDEST PUSH1 0x40 MLOAD DUP1 SWAP2 SUB SWAP1 RETURN JUMPDEST PUSH2 0x253 PUSH1 0x4 DUP1 CALLDATASIZE SUB DUP2 ADD SWAP1 PUSH2 0x24E SWAP2 SWAP1 PUSH2 0x216B JUMP JUMPDEST PUSH2 0x794 JUMP JUMPDEST STOP JUMPDEST PUSH2 0x26F PUSH1 0x4 DUP1 CALLDATASIZE SUB DUP2 ADD SWAP1 PUSH2 0x26A SWAP2 SWAP1 PUSH2 0x204C JUMP JUMPDEST PUSH2 0x7B4 JUMP JUMPDEST PUSH1 0x40 MLOAD PUSH2 0x27C SWAP2 SWAP1 PUSH2 0x2150 JUMP JUMPDEST PUSH1 0x40 MLOAD DUP1 SWAP2 SUB SWAP1 RETURN JUMPDEST PUSH2 0x28D PUSH2 0x82B JUMP JUMPDEST PUSH1 0x40 MLOAD PUSH2 0x29A SWAP2 SWAP1 PUSH2 0x2150 JUMP JUMPDEST PUSH1 0x40 MLOAD DUP1 SWAP2 SUB SWAP1 RETURN JUMPDEST PUSH2 0x2BD PUSH1 0x4 DUP1 CALLDATASIZE SUB DUP2 ADD SWAP1 PUSH2 0x2B8 SWAP2 SWAP1 PUSH2 0x204C JUMP JUMPDEST PUSH2 0x831 JUMP JUMPDEST PUSH1 0x40 MLOAD PUSH2 0x2CA SWAP2 SWAP1 PUSH2 0x20BA JUMP JUMPDEST PUSH1 0x40 MLOAD DUP1 SWAP2 SUB SWAP1 RETURN JUMPDEST PUSH2 0x2ED PUSH1 0x4 DUP1 CALLDATASIZE SUB DUP2 ADD SWAP1 PUSH2 0x2E8 SWAP2 SWAP1 PUSH2 0x21BE JUMP JUMPDEST PUSH2 0x847 JUMP JUMPDEST PUSH1 0x40 MLOAD PUSH2 0x2FA SWAP2 SWAP1 PUSH2 0x2150 JUMP JUMPDEST PUSH1 0x40 MLOAD DUP1 SWAP2 SUB SWAP1 RETURN JUMPDEST PUSH2 0x30B PUSH2 0x916 JUMP JUMPDEST PUSH1 0x40 MLOAD PUSH2 0x318 SWAP2 SWAP1 PUSH2 0x2150 JUMP JUMPDEST PUSH1 0x40 MLOAD DUP1 SWAP2 SUB SWAP1 RETURN JUMPDEST PUSH2 0x329 PUSH2 0x91C JUMP JUMPDEST PUSH1 0x40 MLOAD PUSH2 0x336 SWAP2 SWAP1 PUSH2 0x1FF4 JUMP JUMPDEST PUSH1 0x40 MLOAD DUP1 SWAP2 SUB SWAP1 RETURN JUMPDEST PUSH2 0x347 PUSH2 0x9AE JUMP JUMPDEST PUSH1 0x40 MLOAD PUSH2 0x354 SWAP2 SWAP1 PUSH2 0x2150 JUMP JUMPDEST PUSH1 0x40 MLOAD DUP1 SWAP2 SUB SWAP1 RETURN JUMPDEST PUSH2 0x377 PUSH1 0x4 DUP1 CALLDATASIZE SUB DUP2 ADD SWAP1 PUSH2 0x372 SWAP2 SWAP1 PUSH2 0x2217 JUMP JUMPDEST PUSH2 0x9B4 JUMP JUMPDEST STOP JUMPDEST PUSH2 0x393 PUSH1 0x4 DUP1 CALLDATASIZE SUB DUP2 ADD SWAP1 PUSH2 0x38E SWAP2 SWAP1 PUSH2 0x238C JUMP JUMPDEST PUSH2 0xB2B JUMP JUMPDEST STOP JUMPDEST PUSH2 0x3AF PUSH1 0x4 DUP1 CALLDATASIZE SUB DUP2 ADD SWAP1 PUSH2 0x3AA SWAP2 SWAP1 PUSH2 0x21BE JUMP JUMPDEST PUSH2 0xBA3 JUMP JUMPDEST PUSH1 0x40 MLOAD PUSH2 0x3BC SWAP2 SWAP1 PUSH2 0x2150 JUMP JUMPDEST PUSH1 0x40 MLOAD DUP1 SWAP2 SUB SWAP1 RETURN JUMPDEST PUSH2 0x3DF PUSH1 0x4 DUP1 CALLDATASIZE SUB DUP2 ADD SWAP1 PUSH2 0x3DA SWAP2 SWAP1 PUSH2 0x204C JUMP JUMPDEST PUSH2 0xDB2 JUMP JUMPDEST PUSH1 0x40 MLOAD PUSH2 0x3EC SWAP2 SWAP1 PUSH2 0x1FF4 JUMP JUMPDEST PUSH1 0x40 MLOAD DUP1 SWAP2 SUB SWAP1 RETURN JUMPDEST PUSH2 0x3FD PUSH2 0xE50 JUMP JUMPDEST PUSH1 0x40 MLOAD PUSH2 0x40A SWAP2 SWAP1 PUSH2 0x2150 JUMP JUMPDEST PUSH1 0x40 MLOAD DUP1 SWAP2 SUB SWAP1 RETURN JUMPDEST PUSH2 0x42D PUSH1 0x4 DUP1 CALLDATASIZE SUB DUP2 ADD SWAP1 PUSH2 0x428 SWAP2 SWAP1 PUSH2 0x240F JUMP JUMPDEST PUSH2 0xE67 JUMP JUMPDEST PUSH1 0x40 MLOAD PUSH2 0x43A SWAP2 SWAP1 PUSH2 0x1F49 JUMP JUMPDEST PUSH1 0x40 MLOAD DUP1 SWAP2 SUB SWAP1 RETURN JUMPDEST PUSH2 0x45D PUSH1 0x4 DUP1 CALLDATASIZE SUB DUP2 ADD SWAP1 PUSH2 0x458 SWAP2 SWAP1 PUSH2 0x204C JUMP JUMPDEST PUSH2 0xEFB JUMP JUMPDEST PUSH1 0x40 MLOAD PUSH2 0x46A SWAP2 SWAP1 PUSH2 0x2150 JUMP JUMPDEST PUSH1 0x40 MLOAD DUP1 SWAP2 SUB SWAP1 RETURN JUMPDEST PUSH1 0x0 PUSH32 0x80AC58CD00000000000000000000000000000000000000000000000000000000 PUSH28 0xFFFFFFFFFFFFFFFFFFFFFFFFFFFFFFFFFFFFFFFFFFFFFFFFFFFFFFFF NOT AND DUP3 PUSH28 0xFFFFFFFFFFFFFFFFFFFFFFFFFFFFFFFFFFFFFFFFFFFFFFFFFFFFFFFF NOT AND EQ DUP1 PUSH2 0x53E JUMPI POP PUSH32 0x5B5E139F00000000000000000000000000000000000000000000000000000000 PUSH28 0xFFFFFFFFFFFFFFFFFFFFFFFFFFFFFFFFFFFFFFFFFFFFFFFFFFFFFFFF NOT AND DUP3 PUSH28 0xFFFFFFFFFFFFFFFFFFFFFFFFFFFFFFFFFFFFFFFFFFFFFFFFFFFFFFFF NOT AND EQ JUMPDEST DUP1 PUSH2 0x54E JUMPI POP PUSH2 0x54D DUP3 PUSH2 0xF5D JUMP JUMPDEST JUMPDEST SWAP1 POP SWAP2 SWAP1 POP JUMP JUMPDEST PUSH1 0x60 PUSH1 0x7 DUP1 SLOAD PUSH2 0x564 SWAP1 PUSH2 0x247E JUMP JUMPDEST DUP1 PUSH1 0x1F ADD PUSH1 0x20 DUP1 SWAP2 DIV MUL PUSH1 0x20 ADD PUSH1 0x40 MLOAD SWAP1 DUP2 ADD PUSH1 0x40 MSTORE DUP1 SWAP3 SWAP2 SWAP1 DUP2 DUP2 MSTORE PUSH1 0x20 ADD DUP3 DUP1 SLOAD PUSH2 0x590 SWAP1 PUSH2 0x247E JUMP JUMPDEST DUP1 ISZERO PUSH2 0x5DD JUMPI DUP1 PUSH1 0x1F LT PUSH2 0x5B2 JUMPI PUSH2 0x100 DUP1 DUP4 SLOAD DIV MUL DUP4 MSTORE SWAP2 PUSH1 0x20 ADD SWAP2 PUSH2 0x5DD JUMP JUMPDEST DUP3 ADD SWAP2 SWAP1 PUSH1 0x0 MSTORE PUSH1 0x20 PUSH1 0x0 KECCAK256 SWAP1 JUMPDEST DUP2 SLOAD DUP2 MSTORE SWAP1 PUSH1 0x1 ADD SWAP1 PUSH1 0x20 ADD DUP1 DUP4 GT PUSH2 0x5C0 JUMPI DUP3 SWAP1 SUB PUSH1 0x1F AND DUP3 ADD SWAP2 JUMPDEST POP POP POP POP POP SWAP1 POP SWAP1 JUMP JUMPDEST PUSH1 0x0 PUSH2 0x5F2 DUP3 PUSH2 0xFC7 JUMP JUMPDEST PUSH2 0x628 JUMPI PUSH1 0x40 MLOAD PUSH32 0xCF4700E400000000000000000000000000000000000000000000000000000000 DUP2 MSTORE PUSH1 0x4 ADD PUSH1 0x40 MLOAD DUP1 SWAP2 SUB SWAP1 REVERT JUMPDEST PUSH1 0xB PUSH1 0x0 DUP4 DUP2 MSTORE PUSH1 0x20 ADD SWAP1 DUP2 MSTORE PUSH1 0x20 ADD PUSH1 0x0 KECCAK256 PUSH1 0x0 SWAP1 SLOAD SWAP1 PUSH2 0x100 EXP SWAP1 DIV PUSH20 0xFFFFFFFFFFFFFFFFFFFFFFFFFFFFFFFFFFFFFFFF AND SWAP1 POP SWAP2 SWAP1 POP JUMP JUMPDEST PUSH1 0x0 PUSH2 0x66E DUP3 PUSH2 0x831 JUMP JUMPDEST SWAP1 POP DUP1 PUSH20 0xFFFFFFFFFFFFFFFFFFFFFFFFFFFFFFFFFFFFFFFF AND DUP4 PUSH20 0xFFFFFFFFFFFFFFFFFFFFFFFFFFFFFFFFFFFFFFFF AND SUB PUSH2 0x6D5 JUMPI PUSH1 0x40 MLOAD PUSH32 0x943F7B8C00000000000000000000000000000000000000000000000000000000 DUP2 MSTORE PUSH1 0x4 ADD PUSH1 0x40 MLOAD DUP1 SWAP2 SUB SWAP1 REVERT JUMPDEST DUP1 PUSH20 0xFFFFFFFFFFFFFFFFFFFFFFFFFFFFFFFFFFFFFFFF AND PUSH2 0x6F4 PUSH2 0x1015 JUMP JUMPDEST PUSH20 0xFFFFFFFFFFFFFFFFFFFFFFFFFFFFFFFFFFFFFFFF AND EQ PUSH2 0x757 JUMPI PUSH2 0x720 DUP2 PUSH2 0x71B PUSH2 0x1015 JUMP JUMPDEST PUSH2 0xE67 JUMP JUMPDEST PUSH2 0x756 JUMPI PUSH1 0x40 MLOAD PUSH32 0xCFB3B94200000000000000000000000000000000000000000000000000000000 DUP2 MSTORE PUSH1 0x4 ADD PUSH1 0x40 MLOAD DUP1 SWAP2 SUB SWAP1 REVERT JUMPDEST JUMPDEST PUSH2 0x762 DUP4 DUP4 DUP4 PUSH2 0x101D JUMP JUMPDEST POP POP POP JUMP JUMPDEST PUSH1 0x0 PUSH2 0x771 PUSH2 0x10CF JUMP JUMPDEST PUSH1 0x6 SLOAD PUSH1 0x4 SLOAD SUB SUB SWAP1 POP SWAP1 JUMP JUMPDEST PUSH2 0x789 DUP4 DUP4 DUP4 PUSH2 0x10D4 JUMP JUMPDEST POP POP POP JUMP JUMPDEST PUSH1 0x1 SLOAD DUP2 JUMP JUMPDEST PUSH2 0x7AF DUP4 DUP4 DUP4 PUSH1 0x40 MLOAD DUP1 PUSH1 0x20 ADD PUSH1 0x40 MSTORE DUP1 PUSH1 0x0 DUP2 MSTORE POP PUSH2 0xB2B JUMP JUMPDEST POP POP POP JUMP JUMPDEST PUSH1 0x0 DUP1 PUSH2 0x7D4 PUSH8 0xDE0B6B3A7640000 PUSH1 0x1 SLOAD PUSH2 0x1870 SWAP1 SWAP2 SWAP1 PUSH4 0xFFFFFFFF AND JUMP JUMPDEST SWAP1 POP PUSH1 0x0 PUSH2 0x807 PUSH1 0x2 SLOAD PUSH2 0x7F9 PUSH8 0xDE0B6B3A7640000 DUP8 PUSH2 0x1870 SWAP1 SWAP2 SWAP1 PUSH4 0xFFFFFFFF AND JUMP JUMPDEST PUSH2 0x1886 SWAP1 SWAP2 SWAP1 PUSH4 0xFFFFFFFF AND JUMP JUMPDEST SWAP1 POP PUSH1 0x0 PUSH2 0x81E DUP3 DUP5 PUSH2 0x1886 SWAP1 SWAP2 SWAP1 PUSH4 0xFFFFFFFF AND JUMP JUMPDEST SWAP1 POP DUP1 SWAP4 POP POP POP POP SWAP2 SWAP1 POP JUMP JUMPDEST PUSH1 0x3 SLOAD DUP2 JUMP JUMPDEST PUSH1 0x0 PUSH2 0x83C DUP3 PUSH2 0x189C JUMP JUMPDEST PUSH1 0x0 ADD MLOAD SWAP1 POP SWAP2 SWAP1 POP JUMP JUMPDEST PUSH1 0x0 DUP1 PUSH20 0xFFFFFFFFFFFFFFFFFFFFFFFFFFFFFFFFFFFFFFFF AND DUP3 PUSH20 0xFFFFFFFFFFFFFFFFFFFFFFFFFFFFFFFFFFFFFFFF AND SUB PUSH2 0x8AE JUMPI PUSH1 0x40 MLOAD PUSH32 0x8F4EB60400000000000000000000000000000000000000000000000000000000 DUP2 MSTORE PUSH1 0x4 ADD PUSH1 0x40 MLOAD DUP1 SWAP2 SUB SWAP1 REVERT JUMPDEST PUSH1 0xA PUSH1 0x0 DUP4 PUSH20 0xFFFFFFFFFFFFFFFFFFFFFFFFFFFFFFFFFFFFFFFF AND PUSH20 0xFFFFFFFFFFFFFFFFFFFFFFFFFFFFFFFFFFFFFFFF AND DUP2 MSTORE PUSH1 0x20 ADD SWAP1 DUP2 MSTORE PUSH1 0x20 ADD PUSH1 0x0 KECCAK256 PUSH1 0x0 ADD PUSH1 0x0 SWAP1 SLOAD SWAP1 PUSH2 0x100 EXP SWAP1 DIV PUSH8 0xFFFFFFFFFFFFFFFF AND PUSH8 0xFFFFFFFFFFFFFFFF AND SWAP1 POP SWAP2 SWAP1 POP JUMP JUMPDEST PUSH1 0x2 SLOAD DUP2 JUMP JUMPDEST PUSH1 0x60 PUSH1 0x8 DUP1 SLOAD PUSH2 0x92B SWAP1 PUSH2 0x247E JUMP JUMPDEST DUP1 PUSH1 0x1F ADD PUSH1 0x20 DUP1 SWAP2 DIV MUL PUSH1 0x20 ADD PUSH1 0x40 MLOAD SWAP1 DUP2 ADD PUSH1 0x40 MSTORE DUP1 SWAP3 SWAP2 SWAP1 DUP2 DUP2 MSTORE PUSH1 0x20 ADD DUP3 DUP1 SLOAD PUSH2 0x957 SWAP1 PUSH2 0x247E JUMP JUMPDEST DUP1 ISZERO PUSH2 0x9A4 JUMPI DUP1 PUSH1 0x1F LT PUSH2 0x979 JUMPI PUSH2 0x100 DUP1 DUP4 SLOAD DIV MUL DUP4 MSTORE SWAP2 PUSH1 0x20 ADD SWAP2 PUSH2 0x9A4 JUMP JUMPDEST DUP3 ADD SWAP2 SWAP1 PUSH1 0x0 MSTORE PUSH1 0x20 PUSH1 0x0 KECCAK256 SWAP1 JUMPDEST DUP2 SLOAD DUP2 MSTORE SWAP1 PUSH1 0x1 ADD SWAP1 PUSH1 0x20 ADD DUP1 DUP4 GT PUSH2 0x987 JUMPI DUP3 SWAP1 SUB PUSH1 0x1F AND DUP3 ADD SWAP2 JUMPDEST POP POP POP POP POP SWAP1 POP SWAP1 JUMP JUMPDEST PUSH1 0x0 SLOAD DUP2 JUMP JUMPDEST PUSH2 0x9BC PUSH2 0x1015 JUMP JUMPDEST PUSH20 0xFFFFFFFFFFFFFFFFFFFFFFFFFFFFFFFFFFFFFFFF AND DUP3 PUSH20 0xFFFFFFFFFFFFFFFFFFFFFFFFFFFFFFFFFFFFFFFF AND SUB PUSH2 0xA20 JUMPI PUSH1 0x40 MLOAD PUSH32 0xB06307DB00000000000000000000000000000000000000000000000000000000 DUP2 MSTORE PUSH1 0x4 ADD PUSH1 0x40 MLOAD DUP1 SWAP2 SUB SWAP1 REVERT JUMPDEST DUP1 PUSH1 0xC PUSH1 0x0 PUSH2 0xA2D PUSH2 0x1015 JUMP JUMPDEST PUSH20 0xFFFFFFFFFFFFFFFFFFFFFFFFFFFFFFFFFFFFFFFF AND PUSH20 0xFFFFFFFFFFFFFFFFFFFFFFFFFFFFFFFFFFFFFFFF AND DUP2 MSTORE PUSH1 0x20 ADD SWAP1 DUP2 MSTORE PUSH1 0x20 ADD PUSH1 0x0 KECCAK256 PUSH1 0x0 DUP5 PUSH20 0xFFFFFFFFFFFFFFFFFFFFFFFFFFFFFFFFFFFFFFFF AND PUSH20 0xFFFFFFFFFFFFFFFFFFFFFFFFFFFFFFFFFFFFFFFF AND DUP2 MSTORE PUSH1 0x20 ADD SWAP1 DUP2 MSTORE PUSH1 0x20 ADD PUSH1 0x0 KECCAK256 PUSH1 0x0 PUSH2 0x100 EXP DUP2 SLOAD DUP2 PUSH1 0xFF MUL NOT AND SWAP1 DUP4 ISZERO ISZERO MUL OR SWAP1 SSTORE POP DUP2 PUSH20 0xFFFFFFFFFFFFFFFFFFFFFFFFFFFFFFFFFFFFFFFF AND PUSH2 0xADA PUSH2 0x1015 JUMP JUMPDEST PUSH20 0xFFFFFFFFFFFFFFFFFFFFFFFFFFFFFFFFFFFFFFFF AND PUSH32 0x17307EAB39AB6107E8899845AD3D59BD9653F200F220920489CA2B5937696C31 DUP4 PUSH1 0x40 MLOAD PUSH2 0xB1F SWAP2 SWAP1 PUSH2 0x1F49 JUMP JUMPDEST PUSH1 0x40 MLOAD DUP1 SWAP2 SUB SWAP1 LOG3 POP POP JUMP JUMPDEST PUSH2 0xB36 DUP5 DUP5 DUP5 PUSH2 0x10D4 JUMP JUMPDEST PUSH2 0xB55 DUP4 PUSH20 0xFFFFFFFFFFFFFFFFFFFFFFFFFFFFFFFFFFFFFFFF AND PUSH2 0x1B27 JUMP JUMPDEST ISZERO PUSH2 0xB9D JUMPI PUSH2 0xB66 DUP5 DUP5 DUP5 DUP5 PUSH2 0x1B4A JUMP JUMPDEST PUSH2 0xB9C JUMPI PUSH1 0x40 MLOAD PUSH32 0xD1A57ED600000000000000000000000000000000000000000000000000000000 DUP2 MSTORE PUSH1 0x4 ADD PUSH1 0x40 MLOAD DUP1 SWAP2 SUB SWAP1 REVERT JUMPDEST JUMPDEST POP POP POP POP JUMP JUMPDEST PUSH1 0x0 DUP1 PUSH2 0xC1D PUSH1 0x1 PUSH2 0xC0F PUSH1 0xD PUSH1 0x0 DUP8 PUSH20 0xFFFFFFFFFFFFFFFFFFFFFFFFFFFFFFFFFFFFFFFF AND PUSH20 0xFFFFFFFFFFFFFFFFFFFFFFFFFFFFFFFFFFFFFFFF AND DUP2 MSTORE PUSH1 0x20 ADD SWAP1 DUP2 MSTORE PUSH1 0x20 ADD PUSH1 0x0 KECCAK256 PUSH1 0x0 PUSH1 0x1 DUP2 MSTORE PUSH1 0x20 ADD SWAP1 DUP2 MSTORE PUSH1 0x20 ADD PUSH1 0x0 KECCAK256 SLOAD NUMBER PUSH2 0x1C9A SWAP1 SWAP2 SWAP1 PUSH4 0xFFFFFFFF AND JUMP JUMPDEST PUSH2 0x1CB0 SWAP1 SWAP2 SWAP1 PUSH4 0xFFFFFFFF AND JUMP JUMPDEST SWAP1 POP PUSH1 0x0 PUSH2 0xC7B PUSH1 0xD PUSH1 0x0 DUP7 PUSH20 0xFFFFFFFFFFFFFFFFFFFFFFFFFFFFFFFFFFFFFFFF AND PUSH20 0xFFFFFFFFFFFFFFFFFFFFFFFFFFFFFFFFFFFFFFFF AND DUP2 MSTORE PUSH1 0x20 ADD SWAP1 DUP2 MSTORE PUSH1 0x20 ADD PUSH1 0x0 KECCAK256 PUSH1 0x0 PUSH1 0x1 DUP2 MSTORE PUSH1 0x20 ADD SWAP1 DUP2 MSTORE PUSH1 0x20 ADD PUSH1 0x0 KECCAK256 SLOAD PUSH2 0x7B4 JUMP JUMPDEST SWAP1 POP PUSH1 0x0 PUSH2 0xC88 NUMBER PUSH2 0x7B4 JUMP JUMPDEST SWAP1 POP PUSH1 0x0 PUSH2 0xCC4 PUSH1 0x2 PUSH2 0xCB6 DUP7 PUSH2 0xCA8 DUP7 DUP9 PUSH2 0x1CB0 SWAP1 SWAP2 SWAP1 PUSH4 0xFFFFFFFF AND JUMP JUMPDEST PUSH2 0x1870 SWAP1 SWAP2 SWAP1 PUSH4 0xFFFFFFFF AND JUMP JUMPDEST PUSH2 0x1886 SWAP1 SWAP2 SWAP1 PUSH4 0xFFFFFFFF AND JUMP JUMPDEST SWAP1 POP PUSH1 0x0 PUSH2 0xD40 PUSH1 0x3 SLOAD PUSH2 0xD32 PUSH1 0xD PUSH1 0x0 DUP12 PUSH20 0xFFFFFFFFFFFFFFFFFFFFFFFFFFFFFFFFFFFFFFFF AND PUSH20 0xFFFFFFFFFFFFFFFFFFFFFFFFFFFFFFFFFFFFFFFF AND DUP2 MSTORE PUSH1 0x20 ADD SWAP1 DUP2 MSTORE PUSH1 0x20 ADD PUSH1 0x0 KECCAK256 PUSH1 0x0 PUSH1 0x2 DUP2 MSTORE PUSH1 0x20 ADD SWAP1 DUP2 MSTORE PUSH1 0x20 ADD PUSH1 0x0 KECCAK256 SLOAD DUP6 PUSH2 0x1870 SWAP1 SWAP2 SWAP1 PUSH4 0xFFFFFFFF AND JUMP JUMPDEST PUSH2 0x1886 SWAP1 SWAP2 SWAP1 PUSH4 0xFFFFFFFF AND JUMP JUMPDEST SWAP1 POP PUSH2 0xDA6 DUP2 PUSH1 0xD PUSH1 0x0 DUP11 PUSH20 0xFFFFFFFFFFFFFFFFFFFFFFFFFFFFFFFFFFFFFFFF AND PUSH20 0xFFFFFFFFFFFFFFFFFFFFFFFFFFFFFFFFFFFFFFFF AND DUP2 MSTORE PUSH1 0x20 ADD SWAP1 DUP2 MSTORE PUSH1 0x20 ADD PUSH1 0x0 KECCAK256 PUSH1 0x0 PUSH1 0x3 DUP2 MSTORE PUSH1 0x20 ADD SWAP1 DUP2 MSTORE PUSH1 0x20 ADD PUSH1 0x0 KECCAK256 SLOAD PUSH2 0x1CB0 SWAP1 SWAP2 SWAP1 PUSH4 0xFFFFFFFF AND JUMP JUMPDEST SWAP6 POP POP POP POP POP POP SWAP2 SWAP1 POP JUMP JUMPDEST PUSH1 0x60 PUSH2 0xDBD DUP3 PUSH2 0xFC7 JUMP JUMPDEST PUSH2 0xDF3 JUMPI PUSH1 0x40 MLOAD PUSH32 0xA14C4B5000000000000000000000000000000000000000000000000000000000 DUP2 MSTORE PUSH1 0x4 ADD PUSH1 0x40 MLOAD DUP1 SWAP2 SUB SWAP1 REVERT JUMPDEST PUSH1 0x0 PUSH2 0xDFD PUSH2 0x1CC6 JUMP JUMPDEST SWAP1 POP PUSH1 0x0 DUP2 MLOAD SUB PUSH2 0xE1D JUMPI PUSH1 0x40 MLOAD DUP1 PUSH1 0x20 ADD PUSH1 0x40 MSTORE DUP1 PUSH1 0x0 DUP2 MSTORE POP PUSH2 0xE48 JUMP JUMPDEST DUP1 PUSH2 0xE27 DUP5 PUSH2 0x1CE6 JUMP JUMPDEST PUSH1 0x40 MLOAD PUSH1 0x20 ADD PUSH2 0xE38 SWAP3 SWAP2 SWAP1 PUSH2 0x24EB JUMP JUMPDEST PUSH1 0x40 MLOAD PUSH1 0x20 DUP2 DUP4 SUB SUB DUP2 MSTORE SWAP1 PUSH1 0x40 MSTORE JUMPDEST SWAP2 POP POP SWAP2 SWAP1 POP JUMP JUMPDEST PUSH1 0x0 PUSH2 0xE5A PUSH2 0x10CF JUMP JUMPDEST PUSH1 0x6 SLOAD PUSH1 0x5 SLOAD SUB SUB SWAP1 POP SWAP1 JUMP JUMPDEST PUSH1 0x0 PUSH1 0xC PUSH1 0x0 DUP5 PUSH20 0xFFFFFFFFFFFFFFFFFFFFFFFFFFFFFFFFFFFFFFFF AND PUSH20 0xFFFFFFFFFFFFFFFFFFFFFFFFFFFFFFFFFFFFFFFF AND DUP2 MSTORE PUSH1 0x20 ADD SWAP1 DUP2 MSTORE PUSH1 0x20 ADD PUSH1 0x0 KECCAK256 PUSH1 0x0 DUP4 PUSH20 0xFFFFFFFFFFFFFFFFFFFFFFFFFFFFFFFFFFFFFFFF AND PUSH20 0xFFFFFFFFFFFFFFFFFFFFFFFFFFFFFFFFFFFFFFFF AND DUP2 MSTORE PUSH1 0x20 ADD SWAP1 DUP2 MSTORE PUSH1 0x20 ADD PUSH1 0x0 KECCAK256 PUSH1 0x0 SWAP1 SLOAD SWAP1 PUSH2 0x100 EXP SWAP1 DIV PUSH1 0xFF AND SWAP1 POP SWAP3 SWAP2 POP POP JUMP JUMPDEST PUSH1 0x0 DUP1 PUSH2 0xF25 DUP4 PUSH2 0xF17 PUSH1 0x0 SLOAD DUP7 PUSH2 0x1870 SWAP1 SWAP2 SWAP1 PUSH4 0xFFFFFFFF AND JUMP JUMPDEST PUSH2 0x1CB0 SWAP1 SWAP2 SWAP1 PUSH4 0xFFFFFFFF AND JUMP JUMPDEST SWAP1 POP PUSH1 0x0 PUSH1 0xA DUP3 PUSH2 0xF36 SWAP2 SWAP1 PUSH2 0x253E JUMP JUMPDEST SUB PUSH2 0xF44 JUMPI PUSH1 0x1 SWAP1 POP PUSH2 0xF54 JUMP JUMPDEST PUSH1 0xA DUP2 PUSH2 0xF51 SWAP2 SWAP1 PUSH2 0x253E JUMP JUMPDEST SWAP1 POP JUMPDEST DUP1 SWAP2 POP POP SWAP2 SWAP1 POP JUMP JUMPDEST PUSH1 0x0 PUSH32 0x1FFC9A700000000000000000000000000000000000000000000000000000000 PUSH28 0xFFFFFFFFFFFFFFFFFFFFFFFFFFFFFFFFFFFFFFFFFFFFFFFFFFFFFFFF NOT AND DUP3 PUSH28 0xFFFFFFFFFFFFFFFFFFFFFFFFFFFFFFFFFFFFFFFFFFFFFFFFFFFFFFFF NOT AND EQ SWAP1 POP SWAP2 SWAP1 POP JUMP JUMPDEST PUSH1 0x0 DUP2 PUSH2 0xFD2 PUSH2 0x10CF JUMP JUMPDEST GT ISZERO DUP1 ISZERO PUSH2 0xFE1 JUMPI POP PUSH1 0x4 SLOAD DUP3 LT JUMPDEST DUP1 ISZERO PUSH2 0x100E JUMPI POP PUSH1 0x9 PUSH1 0x0 DUP4 DUP2 MSTORE PUSH1 0x20 ADD SWAP1 DUP2 MSTORE PUSH1 0x20 ADD PUSH1 0x0 KECCAK256 PUSH1 0x0 ADD PUSH1 0x1C SWAP1 SLOAD SWAP1 PUSH2 0x100 EXP SWAP1 DIV PUSH1 0xFF AND ISZERO JUMPDEST SWAP1 POP SWAP2 SWAP1 POP JUMP JUMPDEST PUSH1 0x0 CALLER SWAP1 POP SWAP1 JUMP JUMPDEST DUP3 PUSH1 0xB PUSH1 0x0 DUP5 DUP2 MSTORE PUSH1 0x20 ADD SWAP1 DUP2 MSTORE PUSH1 0x20 ADD PUSH1 0x0 KECCAK256 PUSH1 0x0 PUSH2 0x100 EXP DUP2 SLOAD DUP2 PUSH20 0xFFFFFFFFFFFFFFFFFFFFFFFFFFFFFFFFFFFFFFFF MUL NOT AND SWAP1 DUP4 PUSH20 0xFFFFFFFFFFFFFFFFFFFFFFFFFFFFFFFFFFFFFFFF AND MUL OR SWAP1 SSTORE POP DUP2 DUP4 PUSH20 0xFFFFFFFFFFFFFFFFFFFFFFFFFFFFFFFFFFFFFFFF AND DUP3 PUSH20 0xFFFFFFFFFFFFFFFFFFFFFFFFFFFFFFFFFFFFFFFF AND PUSH32 0x8C5BE1E5EBEC7D5BD14F71427D1E84F3DD0314C0F7B2291E5B200AC8C7C3B925 PUSH1 0x40 MLOAD PUSH1 0x40 MLOAD DUP1 SWAP2 SUB SWAP1 LOG4 POP POP POP JUMP JUMPDEST PUSH1 0x0 SWAP1 JUMP JUMPDEST PUSH1 0x0 PUSH2 0x10DF DUP3 PUSH2 0xEFB JUMP JUMPDEST SWAP1 POP PUSH2 0x10EA DUP5 PUSH2 0xBA3 JUMP JUMPDEST PUSH1 0xD PUSH1 0x0 DUP7 PUSH20 0xFFFFFFFFFFFFFFFFFFFFFFFFFFFFFFFFFFFFFFFF AND PUSH20 0xFFFFFFFFFFFFFFFFFFFFFFFFFFFFFFFFFFFFFFFF AND DUP2 MSTORE PUSH1 0x20 ADD SWAP1 DUP2 MSTORE PUSH1 0x20 ADD PUSH1 0x0 KECCAK256 PUSH1 0x0 PUSH1 0x3 DUP2 MSTORE PUSH1 0x20 ADD SWAP1 DUP2 MSTORE PUSH1 0x20 ADD PUSH1 0x0 KECCAK256 DUP2 SWAP1 SSTORE POP PUSH2 0x11A3 DUP2 PUSH1 0xD PUSH1 0x0 DUP8 PUSH20 0xFFFFFFFFFFFFFFFFFFFFFFFFFFFFFFFFFFFFFFFF AND PUSH20 0xFFFFFFFFFFFFFFFFFFFFFFFFFFFFFFFFFFFFFFFF AND DUP2 MSTORE PUSH1 0x20 ADD SWAP1 DUP2 MSTORE PUSH1 0x20 ADD PUSH1 0x0 KECCAK256 PUSH1 0x0 PUSH1 0x2 DUP2 MSTORE PUSH1 0x20 ADD SWAP1 DUP2 MSTORE PUSH1 0x20 ADD PUSH1 0x0 KECCAK256 SLOAD PUSH2 0x1C9A SWAP1 SWAP2 SWAP1 PUSH4 0xFFFFFFFF AND JUMP JUMPDEST PUSH1 0xD PUSH1 0x0 DUP7 PUSH20 0xFFFFFFFFFFFFFFFFFFFFFFFFFFFFFFFFFFFFFFFF AND PUSH20 0xFFFFFFFFFFFFFFFFFFFFFFFFFFFFFFFFFFFFFFFF AND DUP2 MSTORE PUSH1 0x20 ADD SWAP1 DUP2 MSTORE PUSH1 0x20 ADD PUSH1 0x0 KECCAK256 PUSH1 0x0 PUSH1 0x2 DUP2 MSTORE PUSH1 0x20 ADD SWAP1 DUP2 MSTORE PUSH1 0x20 ADD PUSH1 0x0 KECCAK256 DUP2 SWAP1 SSTORE POP NUMBER PUSH1 0xD PUSH1 0x0 DUP7 PUSH20 0xFFFFFFFFFFFFFFFFFFFFFFFFFFFFFFFFFFFFFFFF AND PUSH20 0xFFFFFFFFFFFFFFFFFFFFFFFFFFFFFFFFFFFFFFFF AND DUP2 MSTORE PUSH1 0x20 ADD SWAP1 DUP2 MSTORE PUSH1 0x20 ADD PUSH1 0x0 KECCAK256 PUSH1 0x0 PUSH1 0x1 DUP2 MSTORE PUSH1 0x20 ADD SWAP1 DUP2 MSTORE PUSH1 0x20 ADD PUSH1 0x0 KECCAK256 DUP2 SWAP1 SSTORE POP PUSH2 0x1257 DUP4 PUSH2 0xBA3 JUMP JUMPDEST PUSH1 0xD PUSH1 0x0 DUP6 PUSH20 0xFFFFFFFFFFFFFFFFFFFFFFFFFFFFFFFFFFFFFFFF AND PUSH20 0xFFFFFFFFFFFFFFFFFFFFFFFFFFFFFFFFFFFFFFFF AND DUP2 MSTORE PUSH1 0x20 ADD SWAP1 DUP2 MSTORE PUSH1 0x20 ADD PUSH1 0x0 KECCAK256 PUSH1 0x0 PUSH1 0x3 DUP2 MSTORE PUSH1 0x20 ADD SWAP1 DUP2 MSTORE PUSH1 0x20 ADD PUSH1 0x0 KECCAK256 DUP2 SWAP1 SSTORE POP PUSH2 0x1310 DUP2 PUSH1 0xD PUSH1 0x0 DUP7 PUSH20 0xFFFFFFFFFFFFFFFFFFFFFFFFFFFFFFFFFFFFFFFF AND PUSH20 0xFFFFFFFFFFFFFFFFFFFFFFFFFFFFFFFFFFFFFFFF AND DUP2 MSTORE PUSH1 0x20 ADD SWAP1 DUP2 MSTORE PUSH1 0x20 ADD PUSH1 0x0 KECCAK256 PUSH1 0x0 PUSH1 0x2 DUP2 MSTORE PUSH1 0x20 ADD SWAP1 DUP2 MSTORE PUSH1 0x20 ADD PUSH1 0x0 KECCAK256 SLOAD PUSH2 0x1CB0 SWAP1 SWAP2 SWAP1 PUSH4 0xFFFFFFFF AND JUMP JUMPDEST PUSH1 0xD PUSH1 0x0 DUP6 PUSH20 0xFFFFFFFFFFFFFFFFFFFFFFFFFFFFFFFFFFFFFFFF AND PUSH20 0xFFFFFFFFFFFFFFFFFFFFFFFFFFFFFFFFFFFFFFFF AND DUP2 MSTORE PUSH1 0x20 ADD SWAP1 DUP2 MSTORE PUSH1 0x20 ADD PUSH1 0x0 KECCAK256 PUSH1 0x0 PUSH1 0x2 DUP2 MSTORE PUSH1 0x20 ADD SWAP1 DUP2 MSTORE PUSH1 0x20 ADD PUSH1 0x0 KECCAK256 DUP2 SWAP1 SSTORE POP NUMBER PUSH1 0xD PUSH1 0x0 DUP6 PUSH20 0xFFFFFFFFFFFFFFFFFFFFFFFFFFFFFFFFFFFFFFFF AND PUSH20 0xFFFFFFFFFFFFFFFFFFFFFFFFFFFFFFFFFFFFFFFF AND DUP2 MSTORE PUSH1 0x20 ADD SWAP1 DUP2 MSTORE PUSH1 0x20 ADD PUSH1 0x0 KECCAK256 PUSH1 0x0 PUSH1 0x1 DUP2 MSTORE PUSH1 0x20 ADD SWAP1 DUP2 MSTORE PUSH1 0x20 ADD PUSH1 0x0 KECCAK256 DUP2 SWAP1 SSTORE POP PUSH1 0x0 PUSH2 0x13C6 DUP4 PUSH2 0x189C JUMP JUMPDEST SWAP1 POP DUP5 PUSH20 0xFFFFFFFFFFFFFFFFFFFFFFFFFFFFFFFFFFFFFFFF AND DUP2 PUSH1 0x0 ADD MLOAD PUSH20 0xFFFFFFFFFFFFFFFFFFFFFFFFFFFFFFFFFFFFFFFF AND EQ PUSH2 0x1431 JUMPI PUSH1 0x40 MLOAD PUSH32 0xA114810000000000000000000000000000000000000000000000000000000000 DUP2 MSTORE PUSH1 0x4 ADD PUSH1 0x40 MLOAD DUP1 SWAP2 SUB SWAP1 REVERT JUMPDEST PUSH1 0x0 DUP6 PUSH20 0xFFFFFFFFFFFFFFFFFFFFFFFFFFFFFFFFFFFFFFFF AND PUSH2 0x1452 PUSH2 0x1015 JUMP JUMPDEST PUSH20 0xFFFFFFFFFFFFFFFFFFFFFFFFFFFFFFFFFFFFFFFF AND EQ DUP1 PUSH2 0x1481 JUMPI POP PUSH2 0x1480 DUP7 PUSH2 0x147B PUSH2 0x1015 JUMP JUMPDEST PUSH2 0xE67 JUMP JUMPDEST JUMPDEST DUP1 PUSH2 0x14C6 JUMPI POP PUSH2 0x148F PUSH2 0x1015 JUMP JUMPDEST PUSH20 0xFFFFFFFFFFFFFFFFFFFFFFFFFFFFFFFFFFFFFFFF AND PUSH2 0x14AE DUP6 PUSH2 0x5E7 JUMP JUMPDEST PUSH20 0xFFFFFFFFFFFFFFFFFFFFFFFFFFFFFFFFFFFFFFFF AND EQ JUMPDEST SWAP1 POP DUP1 PUSH2 0x14FF JUMPI PUSH1 0x40 MLOAD PUSH32 0x59C896BE00000000000000000000000000000000000000000000000000000000 DUP2 MSTORE PUSH1 0x4 ADD PUSH1 0x40 MLOAD DUP1 SWAP2 SUB SWAP1 REVERT JUMPDEST PUSH1 0x0 PUSH20 0xFFFFFFFFFFFFFFFFFFFFFFFFFFFFFFFFFFFFFFFF AND DUP6 PUSH20 0xFFFFFFFFFFFFFFFFFFFFFFFFFFFFFFFFFFFFFFFF AND SUB PUSH2 0x1565 JUMPI PUSH1 0x40 MLOAD PUSH32 0xEA553B3400000000000000000000000000000000000000000000000000000000 DUP2 MSTORE PUSH1 0x4 ADD PUSH1 0x40 MLOAD DUP1 SWAP2 SUB SWAP1 REVERT JUMPDEST PUSH2 0x1572 DUP7 DUP7 DUP7 PUSH1 0x1 PUSH2 0x1E46 JUMP JUMPDEST PUSH2 0x157E PUSH1 0x0 DUP6 DUP9 PUSH2 0x101D JUMP JUMPDEST PUSH1 0x1 PUSH1 0xA PUSH1 0x0 DUP9 PUSH20 0xFFFFFFFFFFFFFFFFFFFFFFFFFFFFFFFFFFFFFFFF AND PUSH20 0xFFFFFFFFFFFFFFFFFFFFFFFFFFFFFFFFFFFFFFFF AND DUP2 MSTORE PUSH1 0x20 ADD SWAP1 DUP2 MSTORE PUSH1 0x20 ADD PUSH1 0x0 KECCAK256 PUSH1 0x0 ADD PUSH1 0x0 DUP3 DUP3 DUP3 SWAP1 SLOAD SWAP1 PUSH2 0x100 EXP SWAP1 DIV PUSH8 0xFFFFFFFFFFFFFFFF AND SUB SWAP3 POP PUSH2 0x100 EXP DUP2 SLOAD DUP2 PUSH8 0xFFFFFFFFFFFFFFFF MUL NOT AND SWAP1 DUP4 PUSH8 0xFFFFFFFFFFFFFFFF AND MUL OR SWAP1 SSTORE POP PUSH1 0x1 PUSH1 0xA PUSH1 0x0 DUP8 PUSH20 0xFFFFFFFFFFFFFFFFFFFFFFFFFFFFFFFFFFFFFFFF AND PUSH20 0xFFFFFFFFFFFFFFFFFFFFFFFFFFFFFFFFFFFFFFFF AND DUP2 MSTORE PUSH1 0x20 ADD SWAP1 DUP2 MSTORE PUSH1 0x20 ADD PUSH1 0x0 KECCAK256 PUSH1 0x0 ADD PUSH1 0x0 DUP3 DUP3 DUP3 SWAP1 SLOAD SWAP1 PUSH2 0x100 EXP SWAP1 DIV PUSH8 0xFFFFFFFFFFFFFFFF AND ADD SWAP3 POP PUSH2 0x100 EXP DUP2 SLOAD DUP2 PUSH8 0xFFFFFFFFFFFFFFFF MUL NOT AND SWAP1 DUP4 PUSH8 0xFFFFFFFFFFFFFFFF AND MUL OR SWAP1 SSTORE POP PUSH1 0x0 PUSH1 0x9 PUSH1 0x0 DUP7 DUP2 MSTORE PUSH1 0x20 ADD SWAP1 DUP2 MSTORE PUSH1 0x20 ADD PUSH1 0x0 KECCAK256 SWAP1 POP DUP6 DUP2 PUSH1 0x0 ADD PUSH1 0x0 PUSH2 0x100 EXP DUP2 SLOAD DUP2 PUSH20 0xFFFFFFFFFFFFFFFFFFFFFFFFFFFFFFFFFFFFFFFF MUL NOT AND SWAP1 DUP4 PUSH20 0xFFFFFFFFFFFFFFFFFFFFFFFFFFFFFFFFFFFFFFFF AND MUL OR SWAP1 SSTORE POP TIMESTAMP DUP2 PUSH1 0x0 ADD PUSH1 0x14 PUSH2 0x100 EXP DUP2 SLOAD DUP2 PUSH8 0xFFFFFFFFFFFFFFFF MUL NOT AND SWAP1 DUP4 PUSH8 0xFFFFFFFFFFFFFFFF AND MUL OR SWAP1 SSTORE POP PUSH1 0x0 PUSH1 0x1 DUP7 ADD SWAP1 POP PUSH1 0x0 PUSH1 0x9 PUSH1 0x0 DUP4 DUP2 MSTORE PUSH1 0x20 ADD SWAP1 DUP2 MSTORE PUSH1 0x20 ADD PUSH1 0x0 KECCAK256 SWAP1 POP PUSH1 0x0 PUSH20 0xFFFFFFFFFFFFFFFFFFFFFFFFFFFFFFFFFFFFFFFF AND DUP2 PUSH1 0x0 ADD PUSH1 0x0 SWAP1 SLOAD SWAP1 PUSH2 0x100 EXP SWAP1 DIV PUSH20 0xFFFFFFFFFFFFFFFFFFFFFFFFFFFFFFFFFFFFFFFF AND PUSH20 0xFFFFFFFFFFFFFFFFFFFFFFFFFFFFFFFFFFFFFFFF AND SUB PUSH2 0x17FD JUMPI PUSH1 0x4 SLOAD DUP3 EQ PUSH2 0x17FC JUMPI DUP9 DUP2 PUSH1 0x0 ADD PUSH1 0x0 PUSH2 0x100 EXP DUP2 SLOAD DUP2 PUSH20 0xFFFFFFFFFFFFFFFFFFFFFFFFFFFFFFFFFFFFFFFF MUL NOT AND SWAP1 DUP4 PUSH20 0xFFFFFFFFFFFFFFFFFFFFFFFFFFFFFFFFFFFFFFFF AND MUL OR SWAP1 SSTORE POP DUP5 PUSH1 0x20 ADD MLOAD DUP2 PUSH1 0x0 ADD PUSH1 0x14 PUSH2 0x100 EXP DUP2 SLOAD DUP2 PUSH8 0xFFFFFFFFFFFFFFFF MUL NOT AND SWAP1 DUP4 PUSH8 0xFFFFFFFFFFFFFFFF AND MUL OR SWAP1 SSTORE POP JUMPDEST JUMPDEST POP POP POP DUP4 DUP6 PUSH20 0xFFFFFFFFFFFFFFFFFFFFFFFFFFFFFFFFFFFFFFFF AND DUP8 PUSH20 0xFFFFFFFFFFFFFFFFFFFFFFFFFFFFFFFFFFFFFFFF AND PUSH32 0xDDF252AD1BE2C89B69C2B068FC378DAA952BA7F163C4A11628F55A4DF523B3EF PUSH1 0x40 MLOAD PUSH1 0x40 MLOAD DUP1 SWAP2 SUB SWAP1 LOG4 PUSH2 0x1868 DUP7 DUP7 DUP7 PUSH1 0x1 PUSH2 0x1E4C JUMP JUMPDEST POP POP POP POP POP POP JUMP JUMPDEST PUSH1 0x0 DUP2 DUP4 PUSH2 0x187E SWAP2 SWAP1 PUSH2 0x259E JUMP JUMPDEST SWAP1 POP SWAP3 SWAP2 POP POP JUMP JUMPDEST PUSH1 0x0 DUP2 DUP4 PUSH2 0x1894 SWAP2 SWAP1 PUSH2 0x25E0 JUMP JUMPDEST SWAP1 POP SWAP3 SWAP2 POP POP JUMP JUMPDEST PUSH2 0x18A4 PUSH2 0x1E52 JUMP JUMPDEST PUSH1 0x0 DUP3 SWAP1 POP DUP1 PUSH2 0x18B2 PUSH2 0x10CF JUMP JUMPDEST GT PUSH2 0x1AF0 JUMPI PUSH1 0x4 SLOAD DUP2 LT ISZERO PUSH2 0x1AEF JUMPI PUSH1 0x0 PUSH1 0x9 PUSH1 0x0 DUP4 DUP2 MSTORE PUSH1 0x20 ADD SWAP1 DUP2 MSTORE PUSH1 0x20 ADD PUSH1 0x0 KECCAK256 PUSH1 0x40 MLOAD DUP1 PUSH1 0x60 ADD PUSH1 0x40 MSTORE SWAP1 DUP2 PUSH1 0x0 DUP3 ADD PUSH1 0x0 SWAP1 SLOAD SWAP1 PUSH2 0x100 EXP SWAP1 DIV PUSH20 0xFFFFFFFFFFFFFFFFFFFFFFFFFFFFFFFFFFFFFFFF AND PUSH20 0xFFFFFFFFFFFFFFFFFFFFFFFFFFFFFFFFFFFFFFFF AND PUSH20 0xFFFFFFFFFFFFFFFFFFFFFFFFFFFFFFFFFFFFFFFF AND DUP2 MSTORE PUSH1 0x20 ADD PUSH1 0x0 DUP3 ADD PUSH1 0x14 SWAP1 SLOAD SWAP1 PUSH2 0x100 EXP SWAP1 DIV PUSH8 0xFFFFFFFFFFFFFFFF AND PUSH8 0xFFFFFFFFFFFFFFFF AND PUSH8 0xFFFFFFFFFFFFFFFF AND DUP2 MSTORE PUSH1 0x20 ADD PUSH1 0x0 DUP3 ADD PUSH1 0x1C SWAP1 SLOAD SWAP1 PUSH2 0x100 EXP SWAP1 DIV PUSH1 0xFF AND ISZERO ISZERO ISZERO ISZERO DUP2 MSTORE POP POP SWAP1 POP DUP1 PUSH1 0x40 ADD MLOAD PUSH2 0x1AED JUMPI PUSH1 0x0 PUSH20 0xFFFFFFFFFFFFFFFFFFFFFFFFFFFFFFFFFFFFFFFF AND DUP2 PUSH1 0x0 ADD MLOAD PUSH20 0xFFFFFFFFFFFFFFFFFFFFFFFFFFFFFFFFFFFFFFFF AND EQ PUSH2 0x19D1 JUMPI DUP1 SWAP3 POP POP POP PUSH2 0x1B22 JUMP JUMPDEST JUMPDEST PUSH1 0x1 ISZERO PUSH2 0x1AEC JUMPI DUP2 DUP1 PUSH1 0x1 SWAP1 SUB SWAP3 POP POP PUSH1 0x9 PUSH1 0x0 DUP4 DUP2 MSTORE PUSH1 0x20 ADD SWAP1 DUP2 MSTORE PUSH1 0x20 ADD PUSH1 0x0 KECCAK256 PUSH1 0x40 MLOAD DUP1 PUSH1 0x60 ADD PUSH1 0x40 MSTORE SWAP1 DUP2 PUSH1 0x0 DUP3 ADD PUSH1 0x0 SWAP1 SLOAD SWAP1 PUSH2 0x100 EXP SWAP1 DIV PUSH20 0xFFFFFFFFFFFFFFFFFFFFFFFFFFFFFFFFFFFFFFFF AND PUSH20 0xFFFFFFFFFFFFFFFFFFFFFFFFFFFFFFFFFFFFFFFF AND PUSH20 0xFFFFFFFFFFFFFFFFFFFFFFFFFFFFFFFFFFFFFFFF AND DUP2 MSTORE PUSH1 0x20 ADD PUSH1 0x0 DUP3 ADD PUSH1 0x14 SWAP1 SLOAD SWAP1 PUSH2 0x100 EXP SWAP1 DIV PUSH8 0xFFFFFFFFFFFFFFFF AND PUSH8 0xFFFFFFFFFFFFFFFF AND PUSH8 0xFFFFFFFFFFFFFFFF AND DUP2 MSTORE PUSH1 0x20 ADD PUSH1 0x0 DUP3 ADD PUSH1 0x1C SWAP1 SLOAD SWAP1 PUSH2 0x100 EXP SWAP1 DIV PUSH1 0xFF AND ISZERO ISZERO ISZERO ISZERO DUP2 MSTORE POP POP SWAP1 POP PUSH1 0x0 PUSH20 0xFFFFFFFFFFFFFFFFFFFFFFFFFFFFFFFFFFFFFFFF AND DUP2 PUSH1 0x0 ADD MLOAD PUSH20 0xFFFFFFFFFFFFFFFFFFFFFFFFFFFFFFFFFFFFFFFF AND EQ PUSH2 0x1AE7 JUMPI DUP1 SWAP3 POP POP POP PUSH2 0x1B22 JUMP JUMPDEST PUSH2 0x19D2 JUMP JUMPDEST JUMPDEST POP JUMPDEST JUMPDEST PUSH1 0x40 MLOAD PUSH32 0xDF2D9B4200000000000000000000000000000000000000000000000000000000 DUP2 MSTORE PUSH1 0x4 ADD PUSH1 0x40 MLOAD DUP1 SWAP2 SUB SWAP1 REVERT JUMPDEST SWAP2 SWAP1 POP JUMP JUMPDEST PUSH1 0x0 DUP1 DUP3 PUSH20 0xFFFFFFFFFFFFFFFFFFFFFFFFFFFFFFFFFFFFFFFF AND EXTCODESIZE GT SWAP1 POP SWAP2 SWAP1 POP JUMP JUMPDEST PUSH1 0x0 DUP4 PUSH20 0xFFFFFFFFFFFFFFFFFFFFFFFFFFFFFFFFFFFFFFFF AND PUSH4 0x150B7A02 PUSH2 0x1B70 PUSH2 0x1015 JUMP JUMPDEST DUP8 DUP7 DUP7 PUSH1 0x40 MLOAD DUP6 PUSH4 0xFFFFFFFF AND PUSH1 0xE0 SHL DUP2 MSTORE PUSH1 0x4 ADD PUSH2 0x1B92 SWAP5 SWAP4 SWAP3 SWAP2 SWAP1 PUSH2 0x2666 JUMP JUMPDEST PUSH1 0x20 PUSH1 0x40 MLOAD DUP1 DUP4 SUB DUP2 PUSH1 0x0 DUP8 GAS CALL SWAP3 POP POP POP DUP1 ISZERO PUSH2 0x1BCE JUMPI POP PUSH1 0x40 MLOAD RETURNDATASIZE PUSH1 0x1F NOT PUSH1 0x1F DUP3 ADD AND DUP3 ADD DUP1 PUSH1 0x40 MSTORE POP DUP2 ADD SWAP1 PUSH2 0x1BCB SWAP2 SWAP1 PUSH2 0x26C7 JUMP JUMPDEST PUSH1 0x1 JUMPDEST PUSH2 0x1C47 JUMPI RETURNDATASIZE DUP1 PUSH1 0x0 DUP2 EQ PUSH2 0x1BFE JUMPI PUSH1 0x40 MLOAD SWAP2 POP PUSH1 0x1F NOT PUSH1 0x3F RETURNDATASIZE ADD AND DUP3 ADD PUSH1 0x40 MSTORE RETURNDATASIZE DUP3 MSTORE RETURNDATASIZE PUSH1 0x0 PUSH1 0x20 DUP5 ADD RETURNDATACOPY PUSH2 0x1C03 JUMP JUMPDEST PUSH1 0x60 SWAP2 POP JUMPDEST POP PUSH1 0x0 DUP2 MLOAD SUB PUSH2 0x1C3F JUMPI PUSH1 0x40 MLOAD PUSH32 0xD1A57ED600000000000000000000000000000000000000000000000000000000 DUP2 MSTORE PUSH1 0x4 ADD PUSH1 0x40 MLOAD DUP1 SWAP2 SUB SWAP1 REVERT JUMPDEST DUP1 MLOAD DUP2 PUSH1 0x20 ADD REVERT JUMPDEST PUSH4 0x150B7A02 PUSH1 0xE0 SHL PUSH28 0xFFFFFFFFFFFFFFFFFFFFFFFFFFFFFFFFFFFFFFFFFFFFFFFFFFFFFFFF NOT AND DUP2 PUSH28 0xFFFFFFFFFFFFFFFFFFFFFFFFFFFFFFFFFFFFFFFFFFFFFFFFFFFFFFFF NOT AND EQ SWAP2 POP POP SWAP5 SWAP4 POP POP POP POP JUMP JUMPDEST PUSH1 0x0 DUP2 DUP4 PUSH2 0x1CA8 SWAP2 SWAP1 PUSH2 0x26F4 JUMP JUMPDEST SWAP1 POP SWAP3 SWAP2 POP POP JUMP JUMPDEST PUSH1 0x0 DUP2 DUP4 PUSH2 0x1CBE SWAP2 SWAP1 PUSH2 0x2728 JUMP JUMPDEST SWAP1 POP SWAP3 SWAP2 POP POP JUMP JUMPDEST PUSH1 0x60 PUSH1 0x40 MLOAD DUP1 PUSH1 0x80 ADD PUSH1 0x40 MSTORE DUP1 PUSH1 0x51 DUP2 MSTORE PUSH1 0x20 ADD PUSH2 0x27D4 PUSH1 0x51 SWAP2 CODECOPY SWAP1 POP SWAP1 JUMP JUMPDEST PUSH1 0x60 PUSH1 0x0 DUP3 SUB PUSH2 0x1D2D JUMPI PUSH1 0x40 MLOAD DUP1 PUSH1 0x40 ADD PUSH1 0x40 MSTORE DUP1 PUSH1 0x1 DUP2 MSTORE PUSH1 0x20 ADD PUSH32 0x3000000000000000000000000000000000000000000000000000000000000000 DUP2 MSTORE POP SWAP1 POP PUSH2 0x1E41 JUMP JUMPDEST PUSH1 0x0 DUP3 SWAP1 POP PUSH1 0x0 JUMPDEST PUSH1 0x0 DUP3 EQ PUSH2 0x1D5F JUMPI DUP1 DUP1 PUSH2 0x1D48 SWAP1 PUSH2 0x275C JUMP JUMPDEST SWAP2 POP POP PUSH1 0xA DUP3 PUSH2 0x1D58 SWAP2 SWAP1 PUSH2 0x25E0 JUMP JUMPDEST SWAP2 POP PUSH2 0x1D35 JUMP JUMPDEST PUSH1 0x0 DUP2 PUSH8 0xFFFFFFFFFFFFFFFF DUP2 GT ISZERO PUSH2 0x1D7B JUMPI PUSH2 0x1D7A PUSH2 0x2261 JUMP JUMPDEST JUMPDEST PUSH1 0x40 MLOAD SWAP1 DUP1 DUP3 MSTORE DUP1 PUSH1 0x1F ADD PUSH1 0x1F NOT AND PUSH1 0x20 ADD DUP3 ADD PUSH1 0x40 MSTORE DUP1 ISZERO PUSH2 0x1DAD JUMPI DUP2 PUSH1 0x20 ADD PUSH1 0x1 DUP3 MUL DUP1 CALLDATASIZE DUP4 CALLDATACOPY DUP1 DUP3 ADD SWAP2 POP POP SWAP1 POP JUMPDEST POP SWAP1 POP JUMPDEST PUSH1 0x0 DUP6 EQ PUSH2 0x1E3A JUMPI PUSH1 0x1 DUP3 PUSH2 0x1DC6 SWAP2 SWAP1 PUSH2 0x26F4 JUMP JUMPDEST SWAP2 POP PUSH1 0xA DUP6 PUSH2 0x1DD5 SWAP2 SWAP1 PUSH2 0x253E JUMP JUMPDEST PUSH1 0x30 PUSH2 0x1DE1 SWAP2 SWAP1 PUSH2 0x2728 JUMP JUMPDEST PUSH1 0xF8 SHL DUP2 DUP4 DUP2 MLOAD DUP2 LT PUSH2 0x1DF7 JUMPI PUSH2 0x1DF6 PUSH2 0x27A4 JUMP JUMPDEST JUMPDEST PUSH1 0x20 ADD ADD SWAP1 PUSH31 0xFFFFFFFFFFFFFFFFFFFFFFFFFFFFFFFFFFFFFFFFFFFFFFFFFFFFFFFFFFFFFF NOT AND SWAP1 DUP2 PUSH1 0x0 BYTE SWAP1 MSTORE8 POP PUSH1 0xA DUP6 PUSH2 0x1E33 SWAP2 SWAP1 PUSH2 0x25E0 JUMP JUMPDEST SWAP5 POP PUSH2 0x1DB1 JUMP JUMPDEST DUP1 SWAP4 POP POP POP POP JUMPDEST SWAP2 SWAP1 POP JUMP JUMPDEST POP POP POP POP JUMP JUMPDEST POP POP POP POP JUMP JUMPDEST PUSH1 0x40 MLOAD DUP1 PUSH1 0x60 ADD PUSH1 0x40 MSTORE DUP1 PUSH1 0x0 PUSH20 0xFFFFFFFFFFFFFFFFFFFFFFFFFFFFFFFFFFFFFFFF AND DUP2 MSTORE PUSH1 0x20 ADD PUSH1 0x0 PUSH8 0xFFFFFFFFFFFFFFFF AND DUP2 MSTORE PUSH1 0x20 ADD PUSH1 0x0 ISZERO ISZERO DUP2 MSTORE POP SWAP1 JUMP JUMPDEST PUSH1 0x0 PUSH1 0x40 MLOAD SWAP1 POP SWAP1 JUMP JUMPDEST PUSH1 0x0 DUP1 REVERT JUMPDEST PUSH1 0x0 DUP1 REVERT JUMPDEST PUSH1 0x0 PUSH32 0xFFFFFFFF00000000000000000000000000000000000000000000000000000000 DUP3 AND SWAP1 POP SWAP2 SWAP1 POP JUMP JUMPDEST PUSH2 0x1EDE DUP2 PUSH2 0x1EA9 JUMP JUMPDEST DUP2 EQ PUSH2 0x1EE9 JUMPI PUSH1 0x0 DUP1 REVERT JUMPDEST POP JUMP JUMPDEST PUSH1 0x0 DUP2 CALLDATALOAD SWAP1 POP PUSH2 0x1EFB DUP2 PUSH2 0x1ED5 JUMP JUMPDEST SWAP3 SWAP2 POP POP JUMP JUMPDEST PUSH1 0x0 PUSH1 0x20 DUP3 DUP5 SUB SLT ISZERO PUSH2 0x1F17 JUMPI PUSH2 0x1F16 PUSH2 0x1E9F JUMP JUMPDEST JUMPDEST PUSH1 0x0 PUSH2 0x1F25 DUP5 DUP3 DUP6 ADD PUSH2 0x1EEC JUMP JUMPDEST SWAP2 POP POP SWAP3 SWAP2 POP POP JUMP JUMPDEST PUSH1 0x0 DUP2 ISZERO ISZERO SWAP1 POP SWAP2 SWAP1 POP JUMP JUMPDEST PUSH2 0x1F43 DUP2 PUSH2 0x1F2E JUMP JUMPDEST DUP3 MSTORE POP POP JUMP JUMPDEST PUSH1 0x0 PUSH1 0x20 DUP3 ADD SWAP1 POP PUSH2 0x1F5E PUSH1 0x0 DUP4 ADD DUP5 PUSH2 0x1F3A JUMP JUMPDEST SWAP3 SWAP2 POP POP JUMP JUMPDEST PUSH1 0x0 DUP2 MLOAD SWAP1 POP SWAP2 SWAP1 POP JUMP JUMPDEST PUSH1 0x0 DUP3 DUP3 MSTORE PUSH1 0x20 DUP3 ADD SWAP1 POP SWAP3 SWAP2 POP POP JUMP JUMPDEST PUSH1 0x0 JUMPDEST DUP4 DUP2 LT ISZERO PUSH2 0x1F9E JUMPI DUP1 DUP3 ADD MLOAD DUP2 DUP5 ADD MSTORE PUSH1 0x20 DUP2 ADD SWAP1 POP PUSH2 0x1F83 JUMP JUMPDEST PUSH1 0x0 DUP5 DUP5 ADD MSTORE POP POP POP POP JUMP JUMPDEST PUSH1 0x0 PUSH1 0x1F NOT PUSH1 0x1F DUP4 ADD AND SWAP1 POP SWAP2 SWAP1 POP JUMP JUMPDEST PUSH1 0x0 PUSH2 0x1FC6 DUP3 PUSH2 0x1F64 JUMP JUMPDEST PUSH2 0x1FD0 DUP2 DUP6 PUSH2 0x1F6F JUMP JUMPDEST SWAP4 POP PUSH2 0x1FE0 DUP2 DUP6 PUSH1 0x20 DUP7 ADD PUSH2 0x1F80 JUMP JUMPDEST PUSH2 0x1FE9 DUP2 PUSH2 0x1FAA JUMP JUMPDEST DUP5 ADD SWAP2 POP POP SWAP3 SWAP2 POP POP JUMP JUMPDEST PUSH1 0x0 PUSH1 0x20 DUP3 ADD SWAP1 POP DUP2 DUP2 SUB PUSH1 0x0 DUP4 ADD MSTORE PUSH2 0x200E DUP2 DUP5 PUSH2 0x1FBB JUMP JUMPDEST SWAP1 POP SWAP3 SWAP2 POP POP JUMP JUMPDEST PUSH1 0x0 DUP2 SWAP1 POP SWAP2 SWAP1 POP JUMP JUMPDEST PUSH2 0x2029 DUP2 PUSH2 0x2016 JUMP JUMPDEST DUP2 EQ PUSH2 0x2034 JUMPI PUSH1 0x0 DUP1 REVERT JUMPDEST POP JUMP JUMPDEST PUSH1 0x0 DUP2 CALLDATALOAD SWAP1 POP PUSH2 0x2046 DUP2 PUSH2 0x2020 JUMP JUMPDEST SWAP3 SWAP2 POP POP JUMP JUMPDEST PUSH1 0x0 PUSH1 0x20 DUP3 DUP5 SUB SLT ISZERO PUSH2 0x2062 JUMPI PUSH2 0x2061 PUSH2 0x1E9F JUMP JUMPDEST JUMPDEST PUSH1 0x0 PUSH2 0x2070 DUP5 DUP3 DUP6 ADD PUSH2 0x2037 JUMP JUMPDEST SWAP2 POP POP SWAP3 SWAP2 POP POP JUMP JUMPDEST PUSH1 0x0 PUSH20 0xFFFFFFFFFFFFFFFFFFFFFFFFFFFFFFFFFFFFFFFF DUP3 AND SWAP1 POP SWAP2 SWAP1 POP JUMP JUMPDEST PUSH1 0x0 PUSH2 0x20A4 DUP3 PUSH2 0x2079 JUMP JUMPDEST SWAP1 POP SWAP2 SWAP1 POP JUMP JUMPDEST PUSH2 0x20B4 DUP2 PUSH2 0x2099 JUMP JUMPDEST DUP3 MSTORE POP POP JUMP JUMPDEST PUSH1 0x0 PUSH1 0x20 DUP3 ADD SWAP1 POP PUSH2 0x20CF PUSH1 0x0 DUP4 ADD DUP5 PUSH2 0x20AB JUMP JUMPDEST SWAP3 SWAP2 POP POP JUMP JUMPDEST PUSH2 0x20DE DUP2 PUSH2 0x2099 JUMP JUMPDEST DUP2 EQ PUSH2 0x20E9 JUMPI PUSH1 0x0 DUP1 REVERT JUMPDEST POP JUMP JUMPDEST PUSH1 0x0 DUP2 CALLDATALOAD SWAP1 POP PUSH2 0x20FB DUP2 PUSH2 0x20D5 JUMP JUMPDEST SWAP3 SWAP2 POP POP JUMP JUMPDEST PUSH1 0x0 DUP1 PUSH1 0x40 DUP4 DUP6 SUB SLT ISZERO PUSH2 0x2118 JUMPI PUSH2 0x2117 PUSH2 0x1E9F JUMP JUMPDEST JUMPDEST PUSH1 0x0 PUSH2 0x2126 DUP6 DUP3 DUP7 ADD PUSH2 0x20EC JUMP JUMPDEST SWAP3 POP POP PUSH1 0x20 PUSH2 0x2137 DUP6 DUP3 DUP7 ADD PUSH2 0x2037 JUMP JUMPDEST SWAP2 POP POP SWAP3 POP SWAP3 SWAP1 POP JUMP JUMPDEST PUSH2 0x214A DUP2 PUSH2 0x2016 JUMP JUMPDEST DUP3 MSTORE POP POP JUMP JUMPDEST PUSH1 0x0 PUSH1 0x20 DUP3 ADD SWAP1 POP PUSH2 0x2165 PUSH1 0x0 DUP4 ADD DUP5 PUSH2 0x2141 JUMP JUMPDEST SWAP3 SWAP2 POP POP JUMP JUMPDEST PUSH1 0x0 DUP1 PUSH1 0x0 PUSH1 0x60 DUP5 DUP7 SUB SLT ISZERO PUSH2 0x2184 JUMPI PUSH2 0x2183 PUSH2 0x1E9F JUMP JUMPDEST JUMPDEST PUSH1 0x0 PUSH2 0x2192 DUP7 DUP3 DUP8 ADD PUSH2 0x20EC JUMP JUMPDEST SWAP4 POP POP PUSH1 0x20 PUSH2 0x21A3 DUP7 DUP3 DUP8 ADD PUSH2 0x20EC JUMP JUMPDEST SWAP3 POP POP PUSH1 0x40 PUSH2 0x21B4 DUP7 DUP3 DUP8 ADD PUSH2 0x2037 JUMP JUMPDEST SWAP2 POP POP SWAP3 POP SWAP3 POP SWAP3 JUMP JUMPDEST PUSH1 0x0 PUSH1 0x20 DUP3 DUP5 SUB SLT ISZERO PUSH2 0x21D4 JUMPI PUSH2 0x21D3 PUSH2 0x1E9F JUMP JUMPDEST JUMPDEST PUSH1 0x0 PUSH2 0x21E2 DUP5 DUP3 DUP6 ADD PUSH2 0x20EC JUMP JUMPDEST SWAP2 POP POP SWAP3 SWAP2 POP POP JUMP JUMPDEST PUSH2 0x21F4 DUP2 PUSH2 0x1F2E JUMP JUMPDEST DUP2 EQ PUSH2 0x21FF JUMPI PUSH1 0x0 DUP1 REVERT JUMPDEST POP JUMP JUMPDEST PUSH1 0x0 DUP2 CALLDATALOAD SWAP1 POP PUSH2 0x2211 DUP2 PUSH2 0x21EB JUMP JUMPDEST SWAP3 SWAP2 POP POP JUMP JUMPDEST PUSH1 0x0 DUP1 PUSH1 0x40 DUP4 DUP6 SUB SLT ISZERO PUSH2 0x222E JUMPI PUSH2 0x222D PUSH2 0x1E9F JUMP JUMPDEST JUMPDEST PUSH1 0x0 PUSH2 0x223C DUP6 DUP3 DUP7 ADD PUSH2 0x20EC JUMP JUMPDEST SWAP3 POP POP PUSH1 0x20 PUSH2 0x224D DUP6 DUP3 DUP7 ADD PUSH2 0x2202 JUMP JUMPDEST SWAP2 POP POP SWAP3 POP SWAP3 SWAP1 POP JUMP JUMPDEST PUSH1 0x0 DUP1 REVERT JUMPDEST PUSH1 0x0 DUP1 REVERT JUMPDEST PUSH32 0x4E487B7100000000000000000000000000000000000000000000000000000000 PUSH1 0x0 MSTORE PUSH1 0x41 PUSH1 0x4 MSTORE PUSH1 0x24 PUSH1 0x0 REVERT JUMPDEST PUSH2 0x2299 DUP3 PUSH2 0x1FAA JUMP JUMPDEST DUP2 ADD DUP2 DUP2 LT PUSH8 0xFFFFFFFFFFFFFFFF DUP3 GT OR ISZERO PUSH2 0x22B8 JUMPI PUSH2 0x22B7 PUSH2 0x2261 JUMP JUMPDEST JUMPDEST DUP1 PUSH1 0x40 MSTORE POP POP POP JUMP JUMPDEST PUSH1 0x0 PUSH2 0x22CB PUSH2 0x1E95 JUMP JUMPDEST SWAP1 POP PUSH2 0x22D7 DUP3 DUP3 PUSH2 0x2290 JUMP JUMPDEST SWAP2 SWAP1 POP JUMP JUMPDEST PUSH1 0x0 PUSH8 0xFFFFFFFFFFFFFFFF DUP3 GT ISZERO PUSH2 0x22F7 JUMPI PUSH2 0x22F6 PUSH2 0x2261 JUMP JUMPDEST JUMPDEST PUSH2 0x2300 DUP3 PUSH2 0x1FAA JUMP JUMPDEST SWAP1 POP PUSH1 0x20 DUP2 ADD SWAP1 POP SWAP2 SWAP1 POP JUMP JUMPDEST DUP3 DUP2 DUP4 CALLDATACOPY PUSH1 0x0 DUP4 DUP4 ADD MSTORE POP POP POP JUMP JUMPDEST PUSH1 0x0 PUSH2 0x232F PUSH2 0x232A DUP5 PUSH2 0x22DC JUMP JUMPDEST PUSH2 0x22C1 JUMP JUMPDEST SWAP1 POP DUP3 DUP2 MSTORE PUSH1 0x20 DUP2 ADD DUP5 DUP5 DUP5 ADD GT ISZERO PUSH2 0x234B JUMPI PUSH2 0x234A PUSH2 0x225C JUMP JUMPDEST JUMPDEST PUSH2 0x2356 DUP5 DUP3 DUP6 PUSH2 0x230D JUMP JUMPDEST POP SWAP4 SWAP3 POP POP POP JUMP JUMPDEST PUSH1 0x0 DUP3 PUSH1 0x1F DUP4 ADD SLT PUSH2 0x2373 JUMPI PUSH2 0x2372 PUSH2 0x2257 JUMP JUMPDEST JUMPDEST DUP2 CALLDATALOAD PUSH2 0x2383 DUP5 DUP3 PUSH1 0x20 DUP7 ADD PUSH2 0x231C JUMP JUMPDEST SWAP2 POP POP SWAP3 SWAP2 POP POP JUMP JUMPDEST PUSH1 0x0 DUP1 PUSH1 0x0 DUP1 PUSH1 0x80 DUP6 DUP8 SUB SLT ISZERO PUSH2 0x23A6 JUMPI PUSH2 0x23A5 PUSH2 0x1E9F JUMP JUMPDEST JUMPDEST PUSH1 0x0 PUSH2 0x23B4 DUP8 DUP3 DUP9 ADD PUSH2 0x20EC JUMP JUMPDEST SWAP5 POP POP PUSH1 0x20 PUSH2 0x23C5 DUP8 DUP3 DUP9 ADD PUSH2 0x20EC JUMP JUMPDEST SWAP4 POP POP PUSH1 0x40 PUSH2 0x23D6 DUP8 DUP3 DUP9 ADD PUSH2 0x2037 JUMP JUMPDEST SWAP3 POP POP PUSH1 0x60 DUP6 ADD CALLDATALOAD PUSH8 0xFFFFFFFFFFFFFFFF DUP2 GT ISZERO PUSH2 0x23F7 JUMPI PUSH2 0x23F6 PUSH2 0x1EA4 JUMP JUMPDEST JUMPDEST PUSH2 0x2403 DUP8 DUP3 DUP9 ADD PUSH2 0x235E JUMP JUMPDEST SWAP2 POP POP SWAP3 SWAP6 SWAP2 SWAP5 POP SWAP3 POP JUMP JUMPDEST PUSH1 0x0 DUP1 PUSH1 0x40 DUP4 DUP6 SUB SLT ISZERO PUSH2 0x2426 JUMPI PUSH2 0x2425 PUSH2 0x1E9F JUMP JUMPDEST JUMPDEST PUSH1 0x0 PUSH2 0x2434 DUP6 DUP3 DUP7 ADD PUSH2 0x20EC JUMP JUMPDEST SWAP3 POP POP PUSH1 0x20 PUSH2 0x2445 DUP6 DUP3 DUP7 ADD PUSH2 0x20EC JUMP JUMPDEST SWAP2 POP POP SWAP3 POP SWAP3 SWAP1 POP JUMP JUMPDEST PUSH32 0x4E487B7100000000000000000000000000000000000000000000000000000000 PUSH1 0x0 MSTORE PUSH1 0x22 PUSH1 0x4 MSTORE PUSH1 0x24 PUSH1 0x0 REVERT JUMPDEST PUSH1 0x0 PUSH1 0x2 DUP3 DIV SWAP1 POP PUSH1 0x1 DUP3 AND DUP1 PUSH2 0x2496 JUMPI PUSH1 0x7F DUP3 AND SWAP2 POP JUMPDEST PUSH1 0x20 DUP3 LT DUP2 SUB PUSH2 0x24A9 JUMPI PUSH2 0x24A8 PUSH2 0x244F JUMP JUMPDEST JUMPDEST POP SWAP2 SWAP1 POP JUMP JUMPDEST PUSH1 0x0 DUP2 SWAP1 POP SWAP3 SWAP2 POP POP JUMP JUMPDEST PUSH1 0x0 PUSH2 0x24C5 DUP3 PUSH2 0x1F64 JUMP JUMPDEST PUSH2 0x24CF DUP2 DUP6 PUSH2 0x24AF JUMP JUMPDEST SWAP4 POP PUSH2 0x24DF DUP2 DUP6 PUSH1 0x20 DUP7 ADD PUSH2 0x1F80 JUMP JUMPDEST DUP1 DUP5 ADD SWAP2 POP POP SWAP3 SWAP2 POP POP JUMP JUMPDEST PUSH1 0x0 PUSH2 0x24F7 DUP3 DUP6 PUSH2 0x24BA JUMP JUMPDEST SWAP2 POP PUSH2 0x2503 DUP3 DUP5 PUSH2 0x24BA JUMP JUMPDEST SWAP2 POP DUP2 SWAP1 POP SWAP4 SWAP3 POP POP POP JUMP JUMPDEST PUSH32 0x4E487B7100000000000000000000000000000000000000000000000000000000 PUSH1 0x0 MSTORE PUSH1 0x12 PUSH1 0x4 MSTORE PUSH1 0x24 PUSH1 0x0 REVERT JUMPDEST PUSH1 0x0 PUSH2 0x2549 DUP3 PUSH2 0x2016 JUMP JUMPDEST SWAP2 POP PUSH2 0x2554 DUP4 PUSH2 0x2016 JUMP JUMPDEST SWAP3 POP DUP3 PUSH2 0x2564 JUMPI PUSH2 0x2563 PUSH2 0x250F JUMP JUMPDEST JUMPDEST DUP3 DUP3 MOD SWAP1 POP SWAP3 SWAP2 POP POP JUMP JUMPDEST PUSH32 0x4E487B7100000000000000000000000000000000000000000000000000000000 PUSH1 0x0 MSTORE PUSH1 0x11 PUSH1 0x4 MSTORE PUSH1 0x24 PUSH1 0x0 REVERT JUMPDEST PUSH1 0x0 PUSH2 0x25A9 DUP3 PUSH2 0x2016 JUMP JUMPDEST SWAP2 POP PUSH2 0x25B4 DUP4 PUSH2 0x2016 JUMP JUMPDEST SWAP3 POP DUP3 DUP3 MUL PUSH2 0x25C2 DUP2 PUSH2 0x2016 JUMP JUMPDEST SWAP2 POP DUP3 DUP3 DIV DUP5 EQ DUP4 ISZERO OR PUSH2 0x25D9 JUMPI PUSH2 0x25D8 PUSH2 0x256F JUMP JUMPDEST JUMPDEST POP SWAP3 SWAP2 POP POP JUMP JUMPDEST PUSH1 0x0 PUSH2 0x25EB DUP3 PUSH2 0x2016 JUMP JUMPDEST SWAP2 POP PUSH2 0x25F6 DUP4 PUSH2 0x2016 JUMP JUMPDEST SWAP3 POP DUP3 PUSH2 0x2606 JUMPI PUSH2 0x2605 PUSH2 0x250F JUMP JUMPDEST JUMPDEST DUP3 DUP3 DIV SWAP1 POP SWAP3 SWAP2 POP POP JUMP JUMPDEST PUSH1 0x0 DUP2 MLOAD SWAP1 POP SWAP2 SWAP1 POP JUMP JUMPDEST PUSH1 0x0 DUP3 DUP3 MSTORE PUSH1 0x20 DUP3 ADD SWAP1 POP SWAP3 SWAP2 POP POP JUMP JUMPDEST PUSH1 0x0 PUSH2 0x2638 DUP3 PUSH2 0x2611 JUMP JUMPDEST PUSH2 0x2642 DUP2 DUP6 PUSH2 0x261C JUMP JUMPDEST SWAP4 POP PUSH2 0x2652 DUP2 DUP6 PUSH1 0x20 DUP7 ADD PUSH2 0x1F80 JUMP JUMPDEST PUSH2 0x265B DUP2 PUSH2 0x1FAA JUMP JUMPDEST DUP5 ADD SWAP2 POP POP SWAP3 SWAP2 POP POP JUMP JUMPDEST PUSH1 0x0 PUSH1 0x80 DUP3 ADD SWAP1 POP PUSH2 0x267B PUSH1 0x0 DUP4 ADD DUP8 PUSH2 0x20AB JUMP JUMPDEST PUSH2 0x2688 PUSH1 0x20 DUP4 ADD DUP7 PUSH2 0x20AB JUMP JUMPDEST PUSH2 0x2695 PUSH1 0x40 DUP4 ADD DUP6 PUSH2 0x2141 JUMP JUMPDEST DUP2 DUP2 SUB PUSH1 0x60 DUP4 ADD MSTORE PUSH2 0x26A7 DUP2 DUP5 PUSH2 0x262D JUMP JUMPDEST SWAP1 POP SWAP6 SWAP5 POP POP POP POP POP JUMP JUMPDEST PUSH1 0x0 DUP2 MLOAD SWAP1 POP PUSH2 0x26C1 DUP2 PUSH2 0x1ED5 JUMP JUMPDEST SWAP3 SWAP2 POP POP JUMP JUMPDEST PUSH1 0x0 PUSH1 0x20 DUP3 DUP5 SUB SLT ISZERO PUSH2 0x26DD JUMPI PUSH2 0x26DC PUSH2 0x1E9F JUMP JUMPDEST JUMPDEST PUSH1 0x0 PUSH2 0x26EB DUP5 DUP3 DUP6 ADD PUSH2 0x26B2 JUMP JUMPDEST SWAP2 POP POP SWAP3 SWAP2 POP POP JUMP JUMPDEST PUSH1 0x0 PUSH2 0x26FF DUP3 PUSH2 0x2016 JUMP JUMPDEST SWAP2 POP PUSH2 0x270A DUP4 PUSH2 0x2016 JUMP JUMPDEST SWAP3 POP DUP3 DUP3 SUB SWAP1 POP DUP2 DUP2 GT ISZERO PUSH2 0x2722 JUMPI PUSH2 0x2721 PUSH2 0x256F JUMP JUMPDEST JUMPDEST SWAP3 SWAP2 POP POP JUMP JUMPDEST PUSH1 0x0 PUSH2 0x2733 DUP3 PUSH2 0x2016 JUMP JUMPDEST SWAP2 POP PUSH2 0x273E DUP4 PUSH2 0x2016 JUMP JUMPDEST SWAP3 POP DUP3 DUP3 ADD SWAP1 POP DUP1 DUP3 GT ISZERO PUSH2 0x2756 JUMPI PUSH2 0x2755 PUSH2 0x256F JUMP JUMPDEST JUMPDEST SWAP3 SWAP2 POP POP JUMP JUMPDEST PUSH1 0x0 PUSH2 0x2767 DUP3 PUSH2 0x2016 JUMP JUMPDEST SWAP2 POP PUSH32 0xFFFFFFFFFFFFFFFFFFFFFFFFFFFFFFFFFFFFFFFFFFFFFFFFFFFFFFFFFFFFFFFF DUP3 SUB PUSH2 0x2799 JUMPI PUSH2 0x2798 PUSH2 0x256F JUMP JUMPDEST JUMPDEST PUSH1 0x1 DUP3 ADD SWAP1 POP SWAP2 SWAP1 POP JUMP JUMPDEST PUSH32 0x4E487B7100000000000000000000000000000000000000000000000000000000 PUSH1 0x0 MSTORE PUSH1 0x32 PUSH1 0x4 MSTORE PUSH1 0x24 PUSH1 0x0 REVERT INVALID PUSH9 0x747470733A2F2F6761 PUSH21 0x657761792E70696E6174612E636C6F75642F697066 PUSH20 0x2F516D65794B6E7658584D784175574735707433 CALLDATALOAD GASLIMIT PUSH27 0x3851684A6852363352445653775566736A4B61795234325A2FA264 PUSH10 0x7066735822122013A503 PUSH22 0xDD6C829655E522AC9956F89F4A6B4119DE813EA706F2 0x2C 0x4A INVALID 0x24 0xAB DUP3 PUSH5 0x736F6C6343 STOP ADDMOD GT STOP CALLER "
				},
				"gasEstimates": {
					"creation": {
						"codeDepositCost": "2066000",
						"executionCost": "infinite",
						"totalCost": "infinite"
					},
					"external": {
						"DcofferPower(uint256)": "infinite",
						"MineStatus(address)": "infinite",
						"_DCFperBlock()": "2474",
						"_salt()": "2518",
						"_startBlockNumber()": "2474",
						"_totalPower()": "2540",
						"approve(address,uint256)": "infinite",
						"balanceOf(address)": "2947",
						"blockStatus(uint256)": "infinite",
						"getApproved(uint256)": "7458",
						"isApprovedForAll(address,address)": "infinite",
						"maxSupply()": "4664",
						"name()": "infinite",
						"ownerOf(uint256)": "infinite",
						"safeTransferFrom(address,address,uint256)": "infinite",
						"safeTransferFrom(address,address,uint256,bytes)": "infinite",
						"setApprovalForAll(address,bool)": "infinite",
						"supportsInterface(bytes4)": "797",
						"symbol()": "infinite",
						"tokenURI(uint256)": "infinite",
						"totalSupply()": "4688",
						"transferFrom(address,address,uint256)": "infinite"
					},
					"internal": {
						"_afterTokenTransfers(address,address,uint256,uint256)": "17",
						"_approve(address,uint256,address)": "26292",
						"_baseURI()": "infinite",
						"_beforeTokenTransfers(address,address,uint256,uint256)": "17",
						"_burn(uint256)": "infinite",
						"_burn(uint256,bool)": "infinite",
						"_checkContractOnERC721Received(address,address,uint256,bytes memory)": "infinite",
						"_exists(uint256)": "4499",
						"_getAux(address)": "infinite",
						"_numberBurned(address)": "infinite",
						"_numberMinted(address)": "infinite",
						"_ownershipOf(uint256)": "infinite",
						"_safeMint(address,uint256)": "infinite",
						"_safeMint(address,uint256,bytes memory)": "infinite",
						"_setAux(address,uint64)": "infinite",
						"_startTokenId()": "15",
						"_totalMinted()": "infinite",
						"_transfer(address,address,uint256)": "infinite"
					}
				},
				"methodIdentifiers": {
					"DcofferPower(uint256)": "f390c328",
					"MineStatus(address)": "b8ba6007",
					"_DCFperBlock()": "38020dcc",
					"_salt()": "9f773399",
					"_startBlockNumber()": "94fc67d1",
					"_totalPower()": "5e7ec827",
					"approve(address,uint256)": "095ea7b3",
					"balanceOf(address)": "70a08231",
					"blockStatus(uint256)": "4be3403c",
					"getApproved(uint256)": "081812fc",
					"isApprovedForAll(address,address)": "e985e9c5",
					"maxSupply()": "d5abeb01",
					"name()": "06fdde03",
					"ownerOf(uint256)": "6352211e",
					"safeTransferFrom(address,address,uint256)": "42842e0e",
					"safeTransferFrom(address,address,uint256,bytes)": "b88d4fde",
					"setApprovalForAll(address,bool)": "a22cb465",
					"supportsInterface(bytes4)": "01ffc9a7",
					"symbol()": "95d89b41",
					"tokenURI(uint256)": "c87b56dd",
					"totalSupply()": "18160ddd",
					"transferFrom(address,address,uint256)": "23b872dd"
				}
			},
			"storageLayout": {
				"storage": [
					{
						"astId": 1149,
						"contract": "Dcoffer/ERC721A/test.sol:ERC721A",
						"label": "_salt",
						"offset": 0,
						"slot": "0",
						"type": "t_uint256"
					},
					{
						"astId": 1151,
						"contract": "Dcoffer/ERC721A/test.sol:ERC721A",
						"label": "_DCFperBlock",
						"offset": 0,
						"slot": "1",
						"type": "t_uint256"
					},
					{
						"astId": 1153,
						"contract": "Dcoffer/ERC721A/test.sol:ERC721A",
						"label": "_startBlockNumber",
						"offset": 0,
						"slot": "2",
						"type": "t_uint256"
					},
					{
						"astId": 1155,
						"contract": "Dcoffer/ERC721A/test.sol:ERC721A",
						"label": "_totalPower",
						"offset": 0,
						"slot": "3",
						"type": "t_uint256"
					},
					{
						"astId": 1157,
						"contract": "Dcoffer/ERC721A/test.sol:ERC721A",
						"label": "_currentIndex",
						"offset": 0,
						"slot": "4",
						"type": "t_uint256"
					},
					{
						"astId": 1159,
						"contract": "Dcoffer/ERC721A/test.sol:ERC721A",
						"label": "_maxSupply",
						"offset": 0,
						"slot": "5",
						"type": "t_uint256"
					},
					{
						"astId": 1161,
						"contract": "Dcoffer/ERC721A/test.sol:ERC721A",
						"label": "_burnCounter",
						"offset": 0,
						"slot": "6",
						"type": "t_uint256"
					},
					{
						"astId": 1163,
						"contract": "Dcoffer/ERC721A/test.sol:ERC721A",
						"label": "_name",
						"offset": 0,
						"slot": "7",
						"type": "t_string_storage"
					},
					{
						"astId": 1165,
						"contract": "Dcoffer/ERC721A/test.sol:ERC721A",
						"label": "_symbol",
						"offset": 0,
						"slot": "8",
						"type": "t_string_storage"
					},
					{
						"astId": 1170,
						"contract": "Dcoffer/ERC721A/test.sol:ERC721A",
						"label": "_ownerships",
						"offset": 0,
						"slot": "9",
						"type": "t_mapping(t_uint256,t_struct(TokenOwnership)1106_storage)"
					},
					{
						"astId": 1175,
						"contract": "Dcoffer/ERC721A/test.sol:ERC721A",
						"label": "_addressData",
						"offset": 0,
						"slot": "10",
						"type": "t_mapping(t_address,t_struct(AddressData)1115_storage)"
					},
					{
						"astId": 1179,
						"contract": "Dcoffer/ERC721A/test.sol:ERC721A",
						"label": "_tokenApprovals",
						"offset": 0,
						"slot": "11",
						"type": "t_mapping(t_uint256,t_address)"
					},
					{
						"astId": 1185,
						"contract": "Dcoffer/ERC721A/test.sol:ERC721A",
						"label": "_operatorApprovals",
						"offset": 0,
						"slot": "12",
						"type": "t_mapping(t_address,t_mapping(t_address,t_bool))"
					},
					{
						"astId": 1192,
						"contract": "Dcoffer/ERC721A/test.sol:ERC721A",
						"label": "_mineInfo",
						"offset": 0,
						"slot": "13",
						"type": "t_mapping(t_address,t_mapping(t_uint256,t_uint256))"
					}
				],
				"types": {
					"t_address": {
						"encoding": "inplace",
						"label": "address",
						"numberOfBytes": "20"
					},
					"t_bool": {
						"encoding": "inplace",
						"label": "bool",
						"numberOfBytes": "1"
					},
					"t_mapping(t_address,t_bool)": {
						"encoding": "mapping",
						"key": "t_address",
						"label": "mapping(address => bool)",
						"numberOfBytes": "32",
						"value": "t_bool"
					},
					"t_mapping(t_address,t_mapping(t_address,t_bool))": {
						"encoding": "mapping",
						"key": "t_address",
						"label": "mapping(address => mapping(address => bool))",
						"numberOfBytes": "32",
						"value": "t_mapping(t_address,t_bool)"
					},
					"t_mapping(t_address,t_mapping(t_uint256,t_uint256))": {
						"encoding": "mapping",
						"key": "t_address",
						"label": "mapping(address => mapping(uint256 => uint256))",
						"numberOfBytes": "32",
						"value": "t_mapping(t_uint256,t_uint256)"
					},
					"t_mapping(t_address,t_struct(AddressData)1115_storage)": {
						"encoding": "mapping",
						"key": "t_address",
						"label": "mapping(address => struct IERC721A.AddressData)",
						"numberOfBytes": "32",
						"value": "t_struct(AddressData)1115_storage"
					},
					"t_mapping(t_uint256,t_address)": {
						"encoding": "mapping",
						"key": "t_uint256",
						"label": "mapping(uint256 => address)",
						"numberOfBytes": "32",
						"value": "t_address"
					},
					"t_mapping(t_uint256,t_struct(TokenOwnership)1106_storage)": {
						"encoding": "mapping",
						"key": "t_uint256",
						"label": "mapping(uint256 => struct IERC721A.TokenOwnership)",
						"numberOfBytes": "32",
						"value": "t_struct(TokenOwnership)1106_storage"
					},
					"t_mapping(t_uint256,t_uint256)": {
						"encoding": "mapping",
						"key": "t_uint256",
						"label": "mapping(uint256 => uint256)",
						"numberOfBytes": "32",
						"value": "t_uint256"
					},
					"t_string_storage": {
						"encoding": "bytes",
						"label": "string",
						"numberOfBytes": "32"
					},
					"t_struct(AddressData)1115_storage": {
						"encoding": "inplace",
						"label": "struct IERC721A.AddressData",
						"members": [
							{
								"astId": 1108,
								"contract": "Dcoffer/ERC721A/test.sol:ERC721A",
								"label": "balance",
								"offset": 0,
								"slot": "0",
								"type": "t_uint64"
							},
							{
								"astId": 1110,
								"contract": "Dcoffer/ERC721A/test.sol:ERC721A",
								"label": "numberMinted",
								"offset": 8,
								"slot": "0",
								"type": "t_uint64"
							},
							{
								"astId": 1112,
								"contract": "Dcoffer/ERC721A/test.sol:ERC721A",
								"label": "numberBurned",
								"offset": 16,
								"slot": "0",
								"type": "t_uint64"
							},
							{
								"astId": 1114,
								"contract": "Dcoffer/ERC721A/test.sol:ERC721A",
								"label": "aux",
								"offset": 24,
								"slot": "0",
								"type": "t_uint64"
							}
						],
						"numberOfBytes": "32"
					},
					"t_struct(TokenOwnership)1106_storage": {
						"encoding": "inplace",
						"label": "struct IERC721A.TokenOwnership",
						"members": [
							{
								"astId": 1101,
								"contract": "Dcoffer/ERC721A/test.sol:ERC721A",
								"label": "addr",
								"offset": 0,
								"slot": "0",
								"type": "t_address"
							},
							{
								"astId": 1103,
								"contract": "Dcoffer/ERC721A/test.sol:ERC721A",
								"label": "startTimestamp",
								"offset": 20,
								"slot": "0",
								"type": "t_uint64"
							},
							{
								"astId": 1105,
								"contract": "Dcoffer/ERC721A/test.sol:ERC721A",
								"label": "burned",
								"offset": 28,
								"slot": "0",
								"type": "t_bool"
							}
						],
						"numberOfBytes": "32"
					},
					"t_uint256": {
						"encoding": "inplace",
						"label": "uint256",
						"numberOfBytes": "32"
					},
					"t_uint64": {
						"encoding": "inplace",
						"label": "uint64",
						"numberOfBytes": "8"
					}
				}
			},
			"userdoc": {
				"errors": {
					"ApprovalCallerNotOwnerNorApproved()": [
						{
							"notice": "The caller must own the token or be an approved operator."
						}
					],
					"ApprovalQueryForNonexistentToken()": [
						{
							"notice": "The token does not exist."
						}
					],
					"ApprovalToCurrentOwner()": [
						{
							"notice": "The caller cannot approve to the current owner."
						}
					],
					"ApproveToCaller()": [
						{
							"notice": "The caller cannot approve to their own address."
						}
					],
					"BalanceQueryForZeroAddress()": [
						{
							"notice": "Cannot query the balance for the zero address."
						}
					],
					"MintToZeroAddress()": [
						{
							"notice": "Cannot mint to the zero address."
						}
					],
					"MintZeroQuantity()": [
						{
							"notice": "The quantity of tokens minted must be more than zero."
						}
					],
					"OwnerQueryForNonexistentToken()": [
						{
							"notice": "The token does not exist."
						}
					],
					"TransferCallerNotOwnerNorApproved()": [
						{
							"notice": "The caller must own the token or be an approved operator."
						}
					],
					"TransferFromIncorrectOwner()": [
						{
							"notice": "The token must be owned by `from`."
						}
					],
					"TransferToNonERC721ReceiverImplementer()": [
						{
							"notice": "Cannot safely transfer to a contract that does not implement the ERC721Receiver interface."
						}
					],
					"TransferToZeroAddress()": [
						{
							"notice": "Cannot transfer to the zero address."
						}
					],
					"URIQueryForNonexistentToken()": [
						{
							"notice": "The token does not exist."
						}
					]
				},
				"kind": "user",
				"methods": {},
				"version": 1
			}
		}
	}
}