{
	"data": {
		"bytecode": {
			"linkReferences": {},
			"object": "60806040523480156200001157600080fd5b5060405162003b7638038062003b7683398181016040528101906200003791906200022a565b6040518060400160405280600981526020017f6d696e657270756e6b00000000000000000000000000000000000000000000008152506040518060400160405280600981526020017f6d696e657270756e6b000000000000000000000000000000000000000000000081525060068260079081620000b69190620004e1565b508160089081620000c89190620004e1565b50612710600581905550620000e2620001cd60201b60201c565b60048190555080600081905550620001176a422ca8b0a00a42500000006216e360620001d260201b620013bc1790919060201c565b60018190555061b7986003819055504360028190555050505081601260008081526020019081526020016000206000600181526020019081526020016000208190555080601260008081526020019081526020016000206000600481526020019081526020016000208190555033600e60006101000a81548173ffffffffffffffffffffffffffffffffffffffff021916908373ffffffffffffffffffffffffffffffffffffffff160217905550505062000642565b600090565b60008183620001e29190620005f7565b905092915050565b600080fd5b6000819050919050565b6200020481620001ef565b81146200021057600080fd5b50565b6000815190506200022481620001f9565b92915050565b60008060408385031215620002445762000243620001ea565b5b6000620002548582860162000213565b9250506020620002678582860162000213565b9150509250929050565b600081519050919050565b7f4e487b7100000000000000000000000000000000000000000000000000000000600052604160045260246000fd5b7f4e487b7100000000000000000000000000000000000000000000000000000000600052602260045260246000fd5b60006002820490506001821680620002f357607f821691505b602082108103620003095762000308620002ab565b5b50919050565b60008190508160005260206000209050919050565b60006020601f8301049050919050565b600082821b905092915050565b600060088302620003737fffffffffffffffffffffffffffffffffffffffffffffffffffffffffffffffff8262000334565b6200037f868362000334565b95508019841693508086168417925050509392505050565b6000819050919050565b6000620003c2620003bc620003b684620001ef565b62000397565b620001ef565b9050919050565b6000819050919050565b620003de83620003a1565b620003f6620003ed82620003c9565b84845462000341565b825550505050565b600090565b6200040d620003fe565b6200041a818484620003d3565b505050565b5b8181101562000442576200043660008262000403565b60018101905062000420565b5050565b601f82111562000491576200045b816200030f565b620004668462000324565b8101602085101562000476578190505b6200048e620004858562000324565b8301826200041f565b50505b505050565b600082821c905092915050565b6000620004b66000198460080262000496565b1980831691505092915050565b6000620004d18383620004a3565b9150826002028217905092915050565b620004ec8262000271565b67ffffffffffffffff8111156200050857620005076200027c565b5b620005148254620002da565b6200052182828562000446565b600060209050601f83116001811462000559576000841562000544578287015190505b620005508582620004c3565b865550620005c0565b601f19841662000569866200030f565b60005b8281101562000593578489015182556001820191506020850194506020810190506200056c565b86831015620005b35784890151620005af601f891682620004a3565b8355505b6001600288020188555050505b505050505050565b7f4e487b7100000000000000000000000000000000000000000000000000000000600052601160045260246000fd5b60006200060482620001ef565b91506200061183620001ef565b92508282026200062181620001ef565b915082820484148315176200063b576200063a620005c8565b5b5092915050565b61352480620006526000396000f3fe60806040526004361061014b5760003560e01c8063a0712d68116100b6578063d5abeb011161006f578063d5abeb01146104cb578063db3ad22c146104f6578063e29301f914610521578063e985e9c51461055e578063eff0730d1461059b578063fda6abeb146105d85761014b565b8063a0712d68146103a6578063a22cb465146103c2578063b88d4fde146103eb578063b8ba600714610414578063c87b56dd14610451578063c899c8e81461048e5761014b565b806342842e0e1161010857806342842e0e146102725780634be3403c1461029b5780636352211e146102d857806370a082311461031557806395d89b41146103525780639d0414751461037d5761014b565b806301ffc9a71461015057806306fdde031461018d578063081812fc146101b8578063095ea7b3146101f557806318160ddd1461021e57806323b872dd14610249575b600080fd5b34801561015c57600080fd5b5061017760048036038101906101729190612a42565b610615565b6040516101849190612a8a565b60405180910390f35b34801561019957600080fd5b506101a26106f7565b6040516101af9190612b35565b60405180910390f35b3480156101c457600080fd5b506101df60048036038101906101da9190612b8d565b610789565b6040516101ec9190612bfb565b60405180910390f35b34801561020157600080fd5b5061021c60048036038101906102179190612c42565b610805565b005b34801561022a57600080fd5b50610233610909565b6040516102409190612c91565b60405180910390f35b34801561025557600080fd5b50610270600480360381019061026b9190612cac565b610920565b005b34801561027e57600080fd5b5061029960048036038101906102949190612cac565b610930565b005b3480156102a757600080fd5b506102c260048036038101906102bd9190612b8d565b610950565b6040516102cf9190612c91565b60405180910390f35b3480156102e457600080fd5b506102ff60048036038101906102fa9190612b8d565b6109b3565b60405161030c9190612bfb565b60405180910390f35b34801561032157600080fd5b5061033c60048036038101906103379190612cff565b6109c9565b6040516103499190612c91565b60405180910390f35b34801561035e57600080fd5b50610367610a98565b6040516103749190612b35565b60405180910390f35b34801561038957600080fd5b506103a4600480360381019061039f9190612d2c565b610b2a565b005b6103c060048036038101906103bb9190612b8d565b610be8565b005b3480156103ce57600080fd5b506103e960048036038101906103e49190612dab565b610dc8565b005b3480156103f757600080fd5b50610412600480360381019061040d9190612f20565b610f3f565b005b34801561042057600080fd5b5061043b60048036038101906104369190612cff565b610fb7565b6040516104489190612c91565b60405180910390f35b34801561045d57600080fd5b5061047860048036038101906104739190612b8d565b611122565b6040516104859190612b35565b60405180910390f35b34801561049a57600080fd5b506104b560048036038101906104b09190613044565b6111c0565b6040516104c29190612bfb565b60405180910390f35b3480156104d757600080fd5b506104e0611208565b6040516104ed9190612c91565b60405180910390f35b34801561050257600080fd5b5061050b61121f565b6040516105189190612c91565b60405180910390f35b34801561052d57600080fd5b5061054860048036038101906105439190612b8d565b611229565b6040516105559190612c91565b60405180910390f35b34801561056a57600080fd5b506105856004803603810190610580919061308d565b61129e565b6040516105929190612a8a565b60405180910390f35b3480156105a757600080fd5b506105c260048036038101906105bd9190612c42565b611332565b6040516105cf9190612c91565b60405180910390f35b3480156105e457600080fd5b506105ff60048036038101906105fa91906130cd565b61138d565b60405161060c9190612c91565b60405180910390f35b60007f80ac58cd000000000000000000000000000000000000000000000000000000007bffffffffffffffffffffffffffffffffffffffffffffffffffffffff1916827bffffffffffffffffffffffffffffffffffffffffffffffffffffffff191614806106e057507f5b5e139f000000000000000000000000000000000000000000000000000000007bffffffffffffffffffffffffffffffffffffffffffffffffffffffff1916827bffffffffffffffffffffffffffffffffffffffffffffffffffffffff1916145b806106f057506106ef826113d2565b5b9050919050565b6060600780546107069061313c565b80601f01602080910402602001604051908101604052809291908181526020018280546107329061313c565b801561077f5780601f106107545761010080835404028352916020019161077f565b820191906000526020600020905b81548152906001019060200180831161076257829003601f168201915b5050505050905090565b60006107948261143c565b6107ca576040517fcf4700e400000000000000000000000000000000000000000000000000000000815260040160405180910390fd5b600b600083815260200190815260200160002060009054906101000a900473ffffffffffffffffffffffffffffffffffffffff169050919050565b6000610810826109b3565b90508073ffffffffffffffffffffffffffffffffffffffff168373ffffffffffffffffffffffffffffffffffffffff1603610877576040517f943f7b8c00000000000000000000000000000000000000000000000000000000815260040160405180910390fd5b8073ffffffffffffffffffffffffffffffffffffffff1661089661148a565b73ffffffffffffffffffffffffffffffffffffffff16146108f9576108c2816108bd61148a565b61129e565b6108f8576040517fcfb3b94200000000000000000000000000000000000000000000000000000000815260040160405180910390fd5b5b610904838383611492565b505050565b6000610913611544565b6006546004540303905090565b61092b838383611549565b505050565b61094b83838360405180602001604052806000815250610f3f565b505050565b60006002548210156109625760025491505b600061098e6216e36061098060025486611ce590919063ffffffff16565b611cfb90919063ffffffff16565b905060006109a782600154611d1190919063ffffffff16565b90508092505050919050565b60006109be82611d27565b600001519050919050565b60008073ffffffffffffffffffffffffffffffffffffffff168273ffffffffffffffffffffffffffffffffffffffff1603610a30576040517f8f4eb60400000000000000000000000000000000000000000000000000000000815260040160405180910390fd5b600a60008373ffffffffffffffffffffffffffffffffffffffff1673ffffffffffffffffffffffffffffffffffffffff16815260200190815260200160002060000160009054906101000a900467ffffffffffffffff1667ffffffffffffffff169050919050565b606060088054610aa79061313c565b80601f0160208091040260200160405190810160405280929190818152602001828054610ad39061313c565b8015610b205780601f10610af557610100808354040283529160200191610b20565b820191906000526020600020905b815481529060010190602001808311610b0357829003601f168201915b5050505050905090565b3373ffffffffffffffffffffffffffffffffffffffff16600e60009054906101000a900473ffffffffffffffffffffffffffffffffffffffff1673ffffffffffffffffffffffffffffffffffffffff1614610bba576040517f08c379a0000000000000000000000000000000000000000000000000000000008152600401610bb1906131b9565b60405180910390fd5b8060126000858152602001908152602001600020600084815260200190815260200160002081905550505050565b6012600080815260200190815260200160002060006004815260200190815260200160002054601260008081526020019081526020016000206000600381526020019081526020016000205410610c3e57600080fd5b6012600080815260200190815260200160002060006004815260200190815260200160002054610c9c826012600080815260200190815260200160002060006003815260200190815260200160002054611cfb90919063ffffffff16565b1115610ca757600080fd5b6000610ce16012600080815260200190815260200160002060006001815260200190815260200160002054836113bc90919063ffffffff16565b905080341015610cf057600080fd5b610cfa3383611fb2565b610d32826012600080815260200190815260200160002060006003815260200190815260200160002054611cfb90919063ffffffff16565b6012600080815260200190815260200160002060006003815260200190815260200160002081905550600e60009054906101000a900473ffffffffffffffffffffffffffffffffffffffff1673ffffffffffffffffffffffffffffffffffffffff166108fc349081150290604051600060405180830381858888f19350505050158015610dc3573d6000803e3d6000fd5b505050565b610dd061148a565b73ffffffffffffffffffffffffffffffffffffffff168273ffffffffffffffffffffffffffffffffffffffff1603610e34576040517fb06307db00000000000000000000000000000000000000000000000000000000815260040160405180910390fd5b80600c6000610e4161148a565b73ffffffffffffffffffffffffffffffffffffffff1673ffffffffffffffffffffffffffffffffffffffff16815260200190815260200160002060008473ffffffffffffffffffffffffffffffffffffffff1673ffffffffffffffffffffffffffffffffffffffff16815260200190815260200160002060006101000a81548160ff0219169083151502179055508173ffffffffffffffffffffffffffffffffffffffff16610eee61148a565b73ffffffffffffffffffffffffffffffffffffffff167f17307eab39ab6107e8899845ad3d59bd9653f200f220920489ca2b5937696c3183604051610f339190612a8a565b60405180910390a35050565b610f4a848484611549565b610f698373ffffffffffffffffffffffffffffffffffffffff16611fd0565b15610fb157610f7a84848484611ff3565b610fb0576040517fd1a57ed600000000000000000000000000000000000000000000000000000000815260040160405180910390fd5b5b50505050565b600080611014600d60008573ffffffffffffffffffffffffffffffffffffffff1673ffffffffffffffffffffffffffffffffffffffff16815260200190815260200160002060006001815260200190815260200160002054610950565b9050600061102143610950565b905060006110388284611ce590919063ffffffff16565b90506110b26003546110a4600d60008973ffffffffffffffffffffffffffffffffffffffff1673ffffffffffffffffffffffffffffffffffffffff16815260200190815260200160002060006002815260200190815260200160002054846113bc90919063ffffffff16565b611d1190919063ffffffff16565b905061111881600d60008873ffffffffffffffffffffffffffffffffffffffff1673ffffffffffffffffffffffffffffffffffffffff16815260200190815260200160002060006003815260200190815260200160002054611cfb90919063ffffffff16565b9350505050919050565b606061112d8261143c565b611163576040517fa14c4b5000000000000000000000000000000000000000000000000000000000815260040160405180910390fd5b600061116d612143565b9050600081510361118d57604051806020016040528060008152506111b8565b8061119784612163565b6040516020016111a8929190613215565b6040516020818303038152906040525b915050919050565b60006011826040516111d29190613239565b908152602001604051809103902060009054906101000a900473ffffffffffffffffffffffffffffffffffffffff169050919050565b6000611212611544565b6006546005540303905090565b6000600354905090565b600080612710831061123e5760329050611295565b61126583611257600054866113bc90919063ffffffff16565b611cfb90919063ffffffff16565b90506000600a82611276919061327f565b036112845760019050611294565b600a81611291919061327f565b90505b5b80915050919050565b6000600c60008473ffffffffffffffffffffffffffffffffffffffff1673ffffffffffffffffffffffffffffffffffffffff16815260200190815260200160002060008373ffffffffffffffffffffffffffffffffffffffff1673ffffffffffffffffffffffffffffffffffffffff16815260200190815260200160002060009054906101000a900460ff16905092915050565b6000600d60008473ffffffffffffffffffffffffffffffffffffffff1673ffffffffffffffffffffffffffffffffffffffff168152602001908152602001600020600083815260200190815260200160002054905092915050565b600060126000848152602001908152602001600020600083815260200190815260200160002054905092915050565b600081836113ca91906132df565b905092915050565b60007f01ffc9a7000000000000000000000000000000000000000000000000000000007bffffffffffffffffffffffffffffffffffffffffffffffffffffffff1916827bffffffffffffffffffffffffffffffffffffffffffffffffffffffff1916149050919050565b600081611447611544565b11158015611456575060045482105b8015611483575060096000838152602001908152602001600020600001601c9054906101000a900460ff16155b9050919050565b600033905090565b82600b600084815260200190815260200160002060006101000a81548173ffffffffffffffffffffffffffffffffffffffff021916908373ffffffffffffffffffffffffffffffffffffffff160217905550818373ffffffffffffffffffffffffffffffffffffffff168273ffffffffffffffffffffffffffffffffffffffff167f8c5be1e5ebec7d5bd14f71427d1e84f3dd0314c0f7b2291e5b200ac8c7c3b92560405160405180910390a4505050565b600090565b600061155482611229565b905061155f84610fb7565b600d60008673ffffffffffffffffffffffffffffffffffffffff1673ffffffffffffffffffffffffffffffffffffffff1681526020019081526020016000206000600381526020019081526020016000208190555061161881600d60008773ffffffffffffffffffffffffffffffffffffffff1673ffffffffffffffffffffffffffffffffffffffff16815260200190815260200160002060006002815260200190815260200160002054611ce590919063ffffffff16565b600d60008673ffffffffffffffffffffffffffffffffffffffff1673ffffffffffffffffffffffffffffffffffffffff1681526020019081526020016000206000600281526020019081526020016000208190555043600d60008673ffffffffffffffffffffffffffffffffffffffff1673ffffffffffffffffffffffffffffffffffffffff168152602001908152602001600020600060018152602001908152602001600020819055506116cc83610fb7565b600d60008573ffffffffffffffffffffffffffffffffffffffff1673ffffffffffffffffffffffffffffffffffffffff1681526020019081526020016000206000600381526020019081526020016000208190555061178581600d60008673ffffffffffffffffffffffffffffffffffffffff1673ffffffffffffffffffffffffffffffffffffffff16815260200190815260200160002060006002815260200190815260200160002054611cfb90919063ffffffff16565b600d60008573ffffffffffffffffffffffffffffffffffffffff1673ffffffffffffffffffffffffffffffffffffffff1681526020019081526020016000206000600281526020019081526020016000208190555043600d60008573ffffffffffffffffffffffffffffffffffffffff1673ffffffffffffffffffffffffffffffffffffffff16815260200190815260200160002060006001815260200190815260200160002081905550600061183b83611d27565b90508473ffffffffffffffffffffffffffffffffffffffff16816000015173ffffffffffffffffffffffffffffffffffffffff16146118a6576040517fa114810000000000000000000000000000000000000000000000000000000000815260040160405180910390fd5b60008573ffffffffffffffffffffffffffffffffffffffff166118c761148a565b73ffffffffffffffffffffffffffffffffffffffff1614806118f657506118f5866118f061148a565b61129e565b5b8061193b575061190461148a565b73ffffffffffffffffffffffffffffffffffffffff1661192385610789565b73ffffffffffffffffffffffffffffffffffffffff16145b905080611974576040517f59c896be00000000000000000000000000000000000000000000000000000000815260040160405180910390fd5b600073ffffffffffffffffffffffffffffffffffffffff168573ffffffffffffffffffffffffffffffffffffffff16036119da576040517fea553b3400000000000000000000000000000000000000000000000000000000815260040160405180910390fd5b6119e78686866001612231565b6119f360008588611492565b6001600a60008873ffffffffffffffffffffffffffffffffffffffff1673ffffffffffffffffffffffffffffffffffffffff16815260200190815260200160002060000160008282829054906101000a900467ffffffffffffffff160392506101000a81548167ffffffffffffffff021916908367ffffffffffffffff1602179055506001600a60008773ffffffffffffffffffffffffffffffffffffffff1673ffffffffffffffffffffffffffffffffffffffff16815260200190815260200160002060000160008282829054906101000a900467ffffffffffffffff160192506101000a81548167ffffffffffffffff021916908367ffffffffffffffff1602179055506000600960008681526020019081526020016000209050858160000160006101000a81548173ffffffffffffffffffffffffffffffffffffffff021916908373ffffffffffffffffffffffffffffffffffffffff160217905550428160000160146101000a81548167ffffffffffffffff021916908367ffffffffffffffff16021790555060006001860190506000600960008381526020019081526020016000209050600073ffffffffffffffffffffffffffffffffffffffff168160000160009054906101000a900473ffffffffffffffffffffffffffffffffffffffff1673ffffffffffffffffffffffffffffffffffffffff1603611c72576004548214611c7157888160000160006101000a81548173ffffffffffffffffffffffffffffffffffffffff021916908373ffffffffffffffffffffffffffffffffffffffff16021790555084602001518160000160146101000a81548167ffffffffffffffff021916908367ffffffffffffffff1602179055505b5b505050838573ffffffffffffffffffffffffffffffffffffffff168773ffffffffffffffffffffffffffffffffffffffff167fddf252ad1be2c89b69c2b068fc378daa952ba7f163c4a11628f55a4df523b3ef60405160405180910390a4611cdd8686866001612237565b505050505050565b60008183611cf39190613321565b905092915050565b60008183611d099190613355565b905092915050565b60008183611d1f9190613389565b905092915050565b611d2f612993565b600082905080611d3d611544565b11611f7b57600454811015611f7a576000600960008381526020019081526020016000206040518060600160405290816000820160009054906101000a900473ffffffffffffffffffffffffffffffffffffffff1673ffffffffffffffffffffffffffffffffffffffff1673ffffffffffffffffffffffffffffffffffffffff1681526020016000820160149054906101000a900467ffffffffffffffff1667ffffffffffffffff1667ffffffffffffffff16815260200160008201601c9054906101000a900460ff16151515158152505090508060400151611f7857600073ffffffffffffffffffffffffffffffffffffffff16816000015173ffffffffffffffffffffffffffffffffffffffff1614611e5c578092505050611fad565b5b600115611f7757818060019003925050600960008381526020019081526020016000206040518060600160405290816000820160009054906101000a900473ffffffffffffffffffffffffffffffffffffffff1673ffffffffffffffffffffffffffffffffffffffff1673ffffffffffffffffffffffffffffffffffffffff1681526020016000820160149054906101000a900467ffffffffffffffff1667ffffffffffffffff1667ffffffffffffffff16815260200160008201601c9054906101000a900460ff1615151515815250509050600073ffffffffffffffffffffffffffffffffffffffff16816000015173ffffffffffffffffffffffffffffffffffffffff1614611f72578092505050611fad565b611e5d565b5b505b5b6040517fdf2d9b4200000000000000000000000000000000000000000000000000000000815260040160405180910390fd5b919050565b611fcc82826040518060200160405280600081525061223d565b5050565b6000808273ffffffffffffffffffffffffffffffffffffffff163b119050919050565b60008373ffffffffffffffffffffffffffffffffffffffff1663150b7a0261201961148a565b8786866040518563ffffffff1660e01b815260040161203b949392919061340f565b6020604051808303816000875af192505050801561207757506040513d601f19601f820116820180604052508101906120749190613470565b60015b6120f0573d80600081146120a7576040519150601f19603f3d011682016040523d82523d6000602084013e6120ac565b606091505b5060008151036120e8576040517fd1a57ed600000000000000000000000000000000000000000000000000000000815260040160405180910390fd5b805181602001fd5b63150b7a0260e01b7bffffffffffffffffffffffffffffffffffffffffffffffffffffffff1916817bffffffffffffffffffffffffffffffffffffffffffffffffffffffff191614915050949350505050565b606060405180608001604052806051815260200161349e60519139905090565b60606000600161217284612840565b01905060008167ffffffffffffffff81111561219157612190612df5565b5b6040519080825280601f01601f1916602001820160405280156121c35781602001600182028036833780820191505090505b509050600082602001820190505b600115612226578080600190039150507f3031323334353637383961626364656600000000000000000000000000000000600a86061a8153600a858161221a57612219613250565b5b049450600085036121d1575b819350505050919050565b50505050565b50505050565b6000600454905061224d33610fb7565b600d60003373ffffffffffffffffffffffffffffffffffffffff1673ffffffffffffffffffffffffffffffffffffffff16815260200190815260200160002060006003815260200190815260200160002081905550600073ffffffffffffffffffffffffffffffffffffffff168473ffffffffffffffffffffffffffffffffffffffff1603612308576040517f2e07630000000000000000000000000000000000000000000000000000000000815260040160405180910390fd5b60008303612342576040517fb562e8dd00000000000000000000000000000000000000000000000000000000815260040160405180910390fd5b61234f6000858386612231565b82600a60008673ffffffffffffffffffffffffffffffffffffffff1673ffffffffffffffffffffffffffffffffffffffff16815260200190815260200160002060000160008282829054906101000a900467ffffffffffffffff160192506101000a81548167ffffffffffffffff021916908367ffffffffffffffff16021790555082600a60008673ffffffffffffffffffffffffffffffffffffffff1673ffffffffffffffffffffffffffffffffffffffff16815260200190815260200160002060000160088282829054906101000a900467ffffffffffffffff160192506101000a81548167ffffffffffffffff021916908367ffffffffffffffff160217905550836009600083815260200190815260200160002060000160006101000a81548173ffffffffffffffffffffffffffffffffffffffff021916908373ffffffffffffffffffffffffffffffffffffffff160217905550426009600083815260200190815260200160002060000160146101000a81548167ffffffffffffffff021916908367ffffffffffffffff1602179055506000819050600084820190506125108673ffffffffffffffffffffffffffffffffffffffff16611fd0565b1561269c575b818673ffffffffffffffffffffffffffffffffffffffff16600073ffffffffffffffffffffffffffffffffffffffff167fddf252ad1be2c89b69c2b068fc378daa952ba7f163c4a11628f55a4df523b3ef60405160405180910390a4600061257d83611229565b90506125e381600d60003373ffffffffffffffffffffffffffffffffffffffff1673ffffffffffffffffffffffffffffffffffffffff16815260200190815260200160002060006002815260200190815260200160002054611cfb90919063ffffffff16565b600d60003373ffffffffffffffffffffffffffffffffffffffff1673ffffffffffffffffffffffffffffffffffffffff1681526020019081526020016000206000600281526020019081526020016000208190555061264b6000888580600101965088611ff3565b612681576040517fd1a57ed600000000000000000000000000000000000000000000000000000000815260040160405180910390fd5b5080821061251657826004541461269757600080fd5b6127ce565b5b60006126a883611229565b905061270e81600d60003373ffffffffffffffffffffffffffffffffffffffff1673ffffffffffffffffffffffffffffffffffffffff16815260200190815260200160002060006002815260200190815260200160002054611cfb90919063ffffffff16565b600d60003373ffffffffffffffffffffffffffffffffffffffff1673ffffffffffffffffffffffffffffffffffffffff16815260200190815260200160002060006002815260200190815260200160002081905550828060010193508773ffffffffffffffffffffffffffffffffffffffff16600073ffffffffffffffffffffffffffffffffffffffff167fddf252ad1be2c89b69c2b068fc378daa952ba7f163c4a11628f55a4df523b3ef60405160405180910390a45080821061269d575b8160048190555050506127e46000858386612237565b43600d60003373ffffffffffffffffffffffffffffffffffffffff1673ffffffffffffffffffffffffffffffffffffffff1681526020019081526020016000206000600181526020019081526020016000208190555050505050565b600080600090507a184f03e93ff9f4daa797ed6e38ed64bf6a1f010000000000000000831061289e577a184f03e93ff9f4daa797ed6e38ed64bf6a1f010000000000000000838161289457612893613250565b5b0492506040810190505b6d04ee2d6d415b85acef810000000083106128db576d04ee2d6d415b85acef810000000083816128d1576128d0613250565b5b0492506020810190505b662386f26fc10000831061290a57662386f26fc100008381612900576128ff613250565b5b0492506010810190505b6305f5e1008310612933576305f5e100838161292957612928613250565b5b0492506008810190505b612710831061295857612710838161294e5761294d613250565b5b0492506004810190505b6064831061297b576064838161297157612970613250565b5b0492506002810190505b600a831061298a576001810190505b80915050919050565b6040518060600160405280600073ffffffffffffffffffffffffffffffffffffffff168152602001600067ffffffffffffffff1681526020016000151581525090565b6000604051905090565b600080fd5b600080fd5b60007fffffffff0000000000000000000000000000000000000000000000000000000082169050919050565b612a1f816129ea565b8114612a2a57600080fd5b50565b600081359050612a3c81612a16565b92915050565b600060208284031215612a5857612a576129e0565b5b6000612a6684828501612a2d565b91505092915050565b60008115159050919050565b612a8481612a6f565b82525050565b6000602082019050612a9f6000830184612a7b565b92915050565b600081519050919050565b600082825260208201905092915050565b60005b83811015612adf578082015181840152602081019050612ac4565b60008484015250505050565b6000601f19601f8301169050919050565b6000612b0782612aa5565b612b118185612ab0565b9350612b21818560208601612ac1565b612b2a81612aeb565b840191505092915050565b60006020820190508181036000830152612b4f8184612afc565b905092915050565b6000819050919050565b612b6a81612b57565b8114612b7557600080fd5b50565b600081359050612b8781612b61565b92915050565b600060208284031215612ba357612ba26129e0565b5b6000612bb184828501612b78565b91505092915050565b600073ffffffffffffffffffffffffffffffffffffffff82169050919050565b6000612be582612bba565b9050919050565b612bf581612bda565b82525050565b6000602082019050612c106000830184612bec565b92915050565b612c1f81612bda565b8114612c2a57600080fd5b50565b600081359050612c3c81612c16565b92915050565b60008060408385031215612c5957612c586129e0565b5b6000612c6785828601612c2d565b9250506020612c7885828601612b78565b9150509250929050565b612c8b81612b57565b82525050565b6000602082019050612ca66000830184612c82565b92915050565b600080600060608486031215612cc557612cc46129e0565b5b6000612cd386828701612c2d565b9350506020612ce486828701612c2d565b9250506040612cf586828701612b78565b9150509250925092565b600060208284031215612d1557612d146129e0565b5b6000612d2384828501612c2d565b91505092915050565b600080600060608486031215612d4557612d446129e0565b5b6000612d5386828701612b78565b9350506020612d6486828701612b78565b9250506040612d7586828701612b78565b9150509250925092565b612d8881612a6f565b8114612d9357600080fd5b50565b600081359050612da581612d7f565b92915050565b60008060408385031215612dc257612dc16129e0565b5b6000612dd085828601612c2d565b9250506020612de185828601612d96565b9150509250929050565b600080fd5b600080fd5b7f4e487b7100000000000000000000000000000000000000000000000000000000600052604160045260246000fd5b612e2d82612aeb565b810181811067ffffffffffffffff82111715612e4c57612e4b612df5565b5b80604052505050565b6000612e5f6129d6565b9050612e6b8282612e24565b919050565b600067ffffffffffffffff821115612e8b57612e8a612df5565b5b612e9482612aeb565b9050602081019050919050565b82818337600083830152505050565b6000612ec3612ebe84612e70565b612e55565b905082815260208101848484011115612edf57612ede612df0565b5b612eea848285612ea1565b509392505050565b600082601f830112612f0757612f06612deb565b5b8135612f17848260208601612eb0565b91505092915050565b60008060008060808587031215612f3a57612f396129e0565b5b6000612f4887828801612c2d565b9450506020612f5987828801612c2d565b9350506040612f6a87828801612b78565b925050606085013567ffffffffffffffff811115612f8b57612f8a6129e5565b5b612f9787828801612ef2565b91505092959194509250565b600067ffffffffffffffff821115612fbe57612fbd612df5565b5b612fc782612aeb565b9050602081019050919050565b6000612fe7612fe284612fa3565b612e55565b90508281526020810184848401111561300357613002612df0565b5b61300e848285612ea1565b509392505050565b600082601f83011261302b5761302a612deb565b5b813561303b848260208601612fd4565b91505092915050565b60006020828403121561305a576130596129e0565b5b600082013567ffffffffffffffff811115613078576130776129e5565b5b61308484828501613016565b91505092915050565b600080604083850312156130a4576130a36129e0565b5b60006130b285828601612c2d565b92505060206130c385828601612c2d565b9150509250929050565b600080604083850312156130e4576130e36129e0565b5b60006130f285828601612b78565b925050602061310385828601612b78565b9150509250929050565b7f4e487b7100000000000000000000000000000000000000000000000000000000600052602260045260246000fd5b6000600282049050600182168061315457607f821691505b6020821081036131675761316661310d565b5b50919050565b7f4f776e61626c653a2063616c6c6572206973206e6f7420746865206f776e6572600082015250565b60006131a3602083612ab0565b91506131ae8261316d565b602082019050919050565b600060208201905081810360008301526131d281613196565b9050919050565b600081905092915050565b60006131ef82612aa5565b6131f981856131d9565b9350613209818560208601612ac1565b80840191505092915050565b600061322182856131e4565b915061322d82846131e4565b91508190509392505050565b600061324582846131e4565b915081905092915050565b7f4e487b7100000000000000000000000000000000000000000000000000000000600052601260045260246000fd5b600061328a82612b57565b915061329583612b57565b9250826132a5576132a4613250565b5b828206905092915050565b7f4e487b7100000000000000000000000000000000000000000000000000000000600052601160045260246000fd5b60006132ea82612b57565b91506132f583612b57565b925082820261330381612b57565b9150828204841483151761331a576133196132b0565b5b5092915050565b600061332c82612b57565b915061333783612b57565b925082820390508181111561334f5761334e6132b0565b5b92915050565b600061336082612b57565b915061336b83612b57565b9250828201905080821115613383576133826132b0565b5b92915050565b600061339482612b57565b915061339f83612b57565b9250826133af576133ae613250565b5b828204905092915050565b600081519050919050565b600082825260208201905092915050565b60006133e1826133ba565b6133eb81856133c5565b93506133fb818560208601612ac1565b61340481612aeb565b840191505092915050565b60006080820190506134246000830187612bec565b6134316020830186612bec565b61343e6040830185612c82565b818103606083015261345081846133d6565b905095945050505050565b60008151905061346a81612a16565b92915050565b600060208284031215613486576134856129e0565b5b60006134948482850161345b565b9150509291505056fe68747470733a2f2f676174657761792e70696e6174612e636c6f75642f697066732f516d56513653643563566b56447a414c706472484b616e6768426f4a59645755785574336b3748705146525838782fa264697066735822122002c92751287b9b5bb9496eeec57abd5612b65a9745b46dac44b214c8e4d0165664736f6c63430008110033",
			"opcodes": "PUSH1 0x80 PUSH1 0x40 MSTORE CALLVALUE DUP1 ISZERO PUSH3 0x11 JUMPI PUSH1 0x0 DUP1 REVERT JUMPDEST POP PUSH1 0x40 MLOAD PUSH3 0x3B76 CODESIZE SUB DUP1 PUSH3 0x3B76 DUP4 CODECOPY DUP2 DUP2 ADD PUSH1 0x40 MSTORE DUP2 ADD SWAP1 PUSH3 0x37 SWAP2 SWAP1 PUSH3 0x22A JUMP JUMPDEST PUSH1 0x40 MLOAD DUP1 PUSH1 0x40 ADD PUSH1 0x40 MSTORE DUP1 PUSH1 0x9 DUP2 MSTORE PUSH1 0x20 ADD PUSH32 0x6D696E657270756E6B0000000000000000000000000000000000000000000000 DUP2 MSTORE POP PUSH1 0x40 MLOAD DUP1 PUSH1 0x40 ADD PUSH1 0x40 MSTORE DUP1 PUSH1 0x9 DUP2 MSTORE PUSH1 0x20 ADD PUSH32 0x6D696E657270756E6B0000000000000000000000000000000000000000000000 DUP2 MSTORE POP PUSH1 0x6 DUP3 PUSH1 0x7 SWAP1 DUP2 PUSH3 0xB6 SWAP2 SWAP1 PUSH3 0x4E1 JUMP JUMPDEST POP DUP2 PUSH1 0x8 SWAP1 DUP2 PUSH3 0xC8 SWAP2 SWAP1 PUSH3 0x4E1 JUMP JUMPDEST POP PUSH2 0x2710 PUSH1 0x5 DUP2 SWAP1 SSTORE POP PUSH3 0xE2 PUSH3 0x1CD PUSH1 0x20 SHL PUSH1 0x20 SHR JUMP JUMPDEST PUSH1 0x4 DUP2 SWAP1 SSTORE POP DUP1 PUSH1 0x0 DUP2 SWAP1 SSTORE POP PUSH3 0x117 PUSH11 0x422CA8B0A00A4250000000 PUSH3 0x16E360 PUSH3 0x1D2 PUSH1 0x20 SHL PUSH3 0x13BC OR SWAP1 SWAP2 SWAP1 PUSH1 0x20 SHR JUMP JUMPDEST PUSH1 0x1 DUP2 SWAP1 SSTORE POP PUSH2 0xB798 PUSH1 0x3 DUP2 SWAP1 SSTORE POP NUMBER PUSH1 0x2 DUP2 SWAP1 SSTORE POP POP POP POP DUP2 PUSH1 0x12 PUSH1 0x0 DUP1 DUP2 MSTORE PUSH1 0x20 ADD SWAP1 DUP2 MSTORE PUSH1 0x20 ADD PUSH1 0x0 KECCAK256 PUSH1 0x0 PUSH1 0x1 DUP2 MSTORE PUSH1 0x20 ADD SWAP1 DUP2 MSTORE PUSH1 0x20 ADD PUSH1 0x0 KECCAK256 DUP2 SWAP1 SSTORE POP DUP1 PUSH1 0x12 PUSH1 0x0 DUP1 DUP2 MSTORE PUSH1 0x20 ADD SWAP1 DUP2 MSTORE PUSH1 0x20 ADD PUSH1 0x0 KECCAK256 PUSH1 0x0 PUSH1 0x4 DUP2 MSTORE PUSH1 0x20 ADD SWAP1 DUP2 MSTORE PUSH1 0x20 ADD PUSH1 0x0 KECCAK256 DUP2 SWAP1 SSTORE POP CALLER PUSH1 0xE PUSH1 0x0 PUSH2 0x100 EXP DUP2 SLOAD DUP2 PUSH20 0xFFFFFFFFFFFFFFFFFFFFFFFFFFFFFFFFFFFFFFFF MUL NOT AND SWAP1 DUP4 PUSH20 0xFFFFFFFFFFFFFFFFFFFFFFFFFFFFFFFFFFFFFFFF AND MUL OR SWAP1 SSTORE POP POP POP PUSH3 0x642 JUMP JUMPDEST PUSH1 0x0 SWAP1 JUMP JUMPDEST PUSH1 0x0 DUP2 DUP4 PUSH3 0x1E2 SWAP2 SWAP1 PUSH3 0x5F7 JUMP JUMPDEST SWAP1 POP SWAP3 SWAP2 POP POP JUMP JUMPDEST PUSH1 0x0 DUP1 REVERT JUMPDEST PUSH1 0x0 DUP2 SWAP1 POP SWAP2 SWAP1 POP JUMP JUMPDEST PUSH3 0x204 DUP2 PUSH3 0x1EF JUMP JUMPDEST DUP2 EQ PUSH3 0x210 JUMPI PUSH1 0x0 DUP1 REVERT JUMPDEST POP JUMP JUMPDEST PUSH1 0x0 DUP2 MLOAD SWAP1 POP PUSH3 0x224 DUP2 PUSH3 0x1F9 JUMP JUMPDEST SWAP3 SWAP2 POP POP JUMP JUMPDEST PUSH1 0x0 DUP1 PUSH1 0x40 DUP4 DUP6 SUB SLT ISZERO PUSH3 0x244 JUMPI PUSH3 0x243 PUSH3 0x1EA JUMP JUMPDEST JUMPDEST PUSH1 0x0 PUSH3 0x254 DUP6 DUP3 DUP7 ADD PUSH3 0x213 JUMP JUMPDEST SWAP3 POP POP PUSH1 0x20 PUSH3 0x267 DUP6 DUP3 DUP7 ADD PUSH3 0x213 JUMP JUMPDEST SWAP2 POP POP SWAP3 POP SWAP3 SWAP1 POP JUMP JUMPDEST PUSH1 0x0 DUP2 MLOAD SWAP1 POP SWAP2 SWAP1 POP JUMP JUMPDEST PUSH32 0x4E487B7100000000000000000000000000000000000000000000000000000000 PUSH1 0x0 MSTORE PUSH1 0x41 PUSH1 0x4 MSTORE PUSH1 0x24 PUSH1 0x0 REVERT JUMPDEST PUSH32 0x4E487B7100000000000000000000000000000000000000000000000000000000 PUSH1 0x0 MSTORE PUSH1 0x22 PUSH1 0x4 MSTORE PUSH1 0x24 PUSH1 0x0 REVERT JUMPDEST PUSH1 0x0 PUSH1 0x2 DUP3 DIV SWAP1 POP PUSH1 0x1 DUP3 AND DUP1 PUSH3 0x2F3 JUMPI PUSH1 0x7F DUP3 AND SWAP2 POP JUMPDEST PUSH1 0x20 DUP3 LT DUP2 SUB PUSH3 0x309 JUMPI PUSH3 0x308 PUSH3 0x2AB JUMP JUMPDEST JUMPDEST POP SWAP2 SWAP1 POP JUMP JUMPDEST PUSH1 0x0 DUP2 SWAP1 POP DUP2 PUSH1 0x0 MSTORE PUSH1 0x20 PUSH1 0x0 KECCAK256 SWAP1 POP SWAP2 SWAP1 POP JUMP JUMPDEST PUSH1 0x0 PUSH1 0x20 PUSH1 0x1F DUP4 ADD DIV SWAP1 POP SWAP2 SWAP1 POP JUMP JUMPDEST PUSH1 0x0 DUP3 DUP3 SHL SWAP1 POP SWAP3 SWAP2 POP POP JUMP JUMPDEST PUSH1 0x0 PUSH1 0x8 DUP4 MUL PUSH3 0x373 PUSH32 0xFFFFFFFFFFFFFFFFFFFFFFFFFFFFFFFFFFFFFFFFFFFFFFFFFFFFFFFFFFFFFFFF DUP3 PUSH3 0x334 JUMP JUMPDEST PUSH3 0x37F DUP7 DUP4 PUSH3 0x334 JUMP JUMPDEST SWAP6 POP DUP1 NOT DUP5 AND SWAP4 POP DUP1 DUP7 AND DUP5 OR SWAP3 POP POP POP SWAP4 SWAP3 POP POP POP JUMP JUMPDEST PUSH1 0x0 DUP2 SWAP1 POP SWAP2 SWAP1 POP JUMP JUMPDEST PUSH1 0x0 PUSH3 0x3C2 PUSH3 0x3BC PUSH3 0x3B6 DUP5 PUSH3 0x1EF JUMP JUMPDEST PUSH3 0x397 JUMP JUMPDEST PUSH3 0x1EF JUMP JUMPDEST SWAP1 POP SWAP2 SWAP1 POP JUMP JUMPDEST PUSH1 0x0 DUP2 SWAP1 POP SWAP2 SWAP1 POP JUMP JUMPDEST PUSH3 0x3DE DUP4 PUSH3 0x3A1 JUMP JUMPDEST PUSH3 0x3F6 PUSH3 0x3ED DUP3 PUSH3 0x3C9 JUMP JUMPDEST DUP5 DUP5 SLOAD PUSH3 0x341 JUMP JUMPDEST DUP3 SSTORE POP POP POP POP JUMP JUMPDEST PUSH1 0x0 SWAP1 JUMP JUMPDEST PUSH3 0x40D PUSH3 0x3FE JUMP JUMPDEST PUSH3 0x41A DUP2 DUP5 DUP5 PUSH3 0x3D3 JUMP JUMPDEST POP POP POP JUMP JUMPDEST JUMPDEST DUP2 DUP2 LT ISZERO PUSH3 0x442 JUMPI PUSH3 0x436 PUSH1 0x0 DUP3 PUSH3 0x403 JUMP JUMPDEST PUSH1 0x1 DUP2 ADD SWAP1 POP PUSH3 0x420 JUMP JUMPDEST POP POP JUMP JUMPDEST PUSH1 0x1F DUP3 GT ISZERO PUSH3 0x491 JUMPI PUSH3 0x45B DUP2 PUSH3 0x30F JUMP JUMPDEST PUSH3 0x466 DUP5 PUSH3 0x324 JUMP JUMPDEST DUP2 ADD PUSH1 0x20 DUP6 LT ISZERO PUSH3 0x476 JUMPI DUP2 SWAP1 POP JUMPDEST PUSH3 0x48E PUSH3 0x485 DUP6 PUSH3 0x324 JUMP JUMPDEST DUP4 ADD DUP3 PUSH3 0x41F JUMP JUMPDEST POP POP JUMPDEST POP POP POP JUMP JUMPDEST PUSH1 0x0 DUP3 DUP3 SHR SWAP1 POP SWAP3 SWAP2 POP POP JUMP JUMPDEST PUSH1 0x0 PUSH3 0x4B6 PUSH1 0x0 NOT DUP5 PUSH1 0x8 MUL PUSH3 0x496 JUMP JUMPDEST NOT DUP1 DUP4 AND SWAP2 POP POP SWAP3 SWAP2 POP POP JUMP JUMPDEST PUSH1 0x0 PUSH3 0x4D1 DUP4 DUP4 PUSH3 0x4A3 JUMP JUMPDEST SWAP2 POP DUP3 PUSH1 0x2 MUL DUP3 OR SWAP1 POP SWAP3 SWAP2 POP POP JUMP JUMPDEST PUSH3 0x4EC DUP3 PUSH3 0x271 JUMP JUMPDEST PUSH8 0xFFFFFFFFFFFFFFFF DUP2 GT ISZERO PUSH3 0x508 JUMPI PUSH3 0x507 PUSH3 0x27C JUMP JUMPDEST JUMPDEST PUSH3 0x514 DUP3 SLOAD PUSH3 0x2DA JUMP JUMPDEST PUSH3 0x521 DUP3 DUP3 DUP6 PUSH3 0x446 JUMP JUMPDEST PUSH1 0x0 PUSH1 0x20 SWAP1 POP PUSH1 0x1F DUP4 GT PUSH1 0x1 DUP2 EQ PUSH3 0x559 JUMPI PUSH1 0x0 DUP5 ISZERO PUSH3 0x544 JUMPI DUP3 DUP8 ADD MLOAD SWAP1 POP JUMPDEST PUSH3 0x550 DUP6 DUP3 PUSH3 0x4C3 JUMP JUMPDEST DUP7 SSTORE POP PUSH3 0x5C0 JUMP JUMPDEST PUSH1 0x1F NOT DUP5 AND PUSH3 0x569 DUP7 PUSH3 0x30F JUMP JUMPDEST PUSH1 0x0 JUMPDEST DUP3 DUP2 LT ISZERO PUSH3 0x593 JUMPI DUP5 DUP10 ADD MLOAD DUP3 SSTORE PUSH1 0x1 DUP3 ADD SWAP2 POP PUSH1 0x20 DUP6 ADD SWAP5 POP PUSH1 0x20 DUP2 ADD SWAP1 POP PUSH3 0x56C JUMP JUMPDEST DUP7 DUP4 LT ISZERO PUSH3 0x5B3 JUMPI DUP5 DUP10 ADD MLOAD PUSH3 0x5AF PUSH1 0x1F DUP10 AND DUP3 PUSH3 0x4A3 JUMP JUMPDEST DUP4 SSTORE POP JUMPDEST PUSH1 0x1 PUSH1 0x2 DUP9 MUL ADD DUP9 SSTORE POP POP POP JUMPDEST POP POP POP POP POP POP JUMP JUMPDEST PUSH32 0x4E487B7100000000000000000000000000000000000000000000000000000000 PUSH1 0x0 MSTORE PUSH1 0x11 PUSH1 0x4 MSTORE PUSH1 0x24 PUSH1 0x0 REVERT JUMPDEST PUSH1 0x0 PUSH3 0x604 DUP3 PUSH3 0x1EF JUMP JUMPDEST SWAP2 POP PUSH3 0x611 DUP4 PUSH3 0x1EF JUMP JUMPDEST SWAP3 POP DUP3 DUP3 MUL PUSH3 0x621 DUP2 PUSH3 0x1EF JUMP JUMPDEST SWAP2 POP DUP3 DUP3 DIV DUP5 EQ DUP4 ISZERO OR PUSH3 0x63B JUMPI PUSH3 0x63A PUSH3 0x5C8 JUMP JUMPDEST JUMPDEST POP SWAP3 SWAP2 POP POP JUMP JUMPDEST PUSH2 0x3524 DUP1 PUSH3 0x652 PUSH1 0x0 CODECOPY PUSH1 0x0 RETURN INVALID PUSH1 0x80 PUSH1 0x40 MSTORE PUSH1 0x4 CALLDATASIZE LT PUSH2 0x14B JUMPI PUSH1 0x0 CALLDATALOAD PUSH1 0xE0 SHR DUP1 PUSH4 0xA0712D68 GT PUSH2 0xB6 JUMPI DUP1 PUSH4 0xD5ABEB01 GT PUSH2 0x6F JUMPI DUP1 PUSH4 0xD5ABEB01 EQ PUSH2 0x4CB JUMPI DUP1 PUSH4 0xDB3AD22C EQ PUSH2 0x4F6 JUMPI DUP1 PUSH4 0xE29301F9 EQ PUSH2 0x521 JUMPI DUP1 PUSH4 0xE985E9C5 EQ PUSH2 0x55E JUMPI DUP1 PUSH4 0xEFF0730D EQ PUSH2 0x59B JUMPI DUP1 PUSH4 0xFDA6ABEB EQ PUSH2 0x5D8 JUMPI PUSH2 0x14B JUMP JUMPDEST DUP1 PUSH4 0xA0712D68 EQ PUSH2 0x3A6 JUMPI DUP1 PUSH4 0xA22CB465 EQ PUSH2 0x3C2 JUMPI DUP1 PUSH4 0xB88D4FDE EQ PUSH2 0x3EB JUMPI DUP1 PUSH4 0xB8BA6007 EQ PUSH2 0x414 JUMPI DUP1 PUSH4 0xC87B56DD EQ PUSH2 0x451 JUMPI DUP1 PUSH4 0xC899C8E8 EQ PUSH2 0x48E JUMPI PUSH2 0x14B JUMP JUMPDEST DUP1 PUSH4 0x42842E0E GT PUSH2 0x108 JUMPI DUP1 PUSH4 0x42842E0E EQ PUSH2 0x272 JUMPI DUP1 PUSH4 0x4BE3403C EQ PUSH2 0x29B JUMPI DUP1 PUSH4 0x6352211E EQ PUSH2 0x2D8 JUMPI DUP1 PUSH4 0x70A08231 EQ PUSH2 0x315 JUMPI DUP1 PUSH4 0x95D89B41 EQ PUSH2 0x352 JUMPI DUP1 PUSH4 0x9D041475 EQ PUSH2 0x37D JUMPI PUSH2 0x14B JUMP JUMPDEST DUP1 PUSH4 0x1FFC9A7 EQ PUSH2 0x150 JUMPI DUP1 PUSH4 0x6FDDE03 EQ PUSH2 0x18D JUMPI DUP1 PUSH4 0x81812FC EQ PUSH2 0x1B8 JUMPI DUP1 PUSH4 0x95EA7B3 EQ PUSH2 0x1F5 JUMPI DUP1 PUSH4 0x18160DDD EQ PUSH2 0x21E JUMPI DUP1 PUSH4 0x23B872DD EQ PUSH2 0x249 JUMPI JUMPDEST PUSH1 0x0 DUP1 REVERT JUMPDEST CALLVALUE DUP1 ISZERO PUSH2 0x15C JUMPI PUSH1 0x0 DUP1 REVERT JUMPDEST POP PUSH2 0x177 PUSH1 0x4 DUP1 CALLDATASIZE SUB DUP2 ADD SWAP1 PUSH2 0x172 SWAP2 SWAP1 PUSH2 0x2A42 JUMP JUMPDEST PUSH2 0x615 JUMP JUMPDEST PUSH1 0x40 MLOAD PUSH2 0x184 SWAP2 SWAP1 PUSH2 0x2A8A JUMP JUMPDEST PUSH1 0x40 MLOAD DUP1 SWAP2 SUB SWAP1 RETURN JUMPDEST CALLVALUE DUP1 ISZERO PUSH2 0x199 JUMPI PUSH1 0x0 DUP1 REVERT JUMPDEST POP PUSH2 0x1A2 PUSH2 0x6F7 JUMP JUMPDEST PUSH1 0x40 MLOAD PUSH2 0x1AF SWAP2 SWAP1 PUSH2 0x2B35 JUMP JUMPDEST PUSH1 0x40 MLOAD DUP1 SWAP2 SUB SWAP1 RETURN JUMPDEST CALLVALUE DUP1 ISZERO PUSH2 0x1C4 JUMPI PUSH1 0x0 DUP1 REVERT JUMPDEST POP PUSH2 0x1DF PUSH1 0x4 DUP1 CALLDATASIZE SUB DUP2 ADD SWAP1 PUSH2 0x1DA SWAP2 SWAP1 PUSH2 0x2B8D JUMP JUMPDEST PUSH2 0x789 JUMP JUMPDEST PUSH1 0x40 MLOAD PUSH2 0x1EC SWAP2 SWAP1 PUSH2 0x2BFB JUMP JUMPDEST PUSH1 0x40 MLOAD DUP1 SWAP2 SUB SWAP1 RETURN JUMPDEST CALLVALUE DUP1 ISZERO PUSH2 0x201 JUMPI PUSH1 0x0 DUP1 REVERT JUMPDEST POP PUSH2 0x21C PUSH1 0x4 DUP1 CALLDATASIZE SUB DUP2 ADD SWAP1 PUSH2 0x217 SWAP2 SWAP1 PUSH2 0x2C42 JUMP JUMPDEST PUSH2 0x805 JUMP JUMPDEST STOP JUMPDEST CALLVALUE DUP1 ISZERO PUSH2 0x22A JUMPI PUSH1 0x0 DUP1 REVERT JUMPDEST POP PUSH2 0x233 PUSH2 0x909 JUMP JUMPDEST PUSH1 0x40 MLOAD PUSH2 0x240 SWAP2 SWAP1 PUSH2 0x2C91 JUMP JUMPDEST PUSH1 0x40 MLOAD DUP1 SWAP2 SUB SWAP1 RETURN JUMPDEST CALLVALUE DUP1 ISZERO PUSH2 0x255 JUMPI PUSH1 0x0 DUP1 REVERT JUMPDEST POP PUSH2 0x270 PUSH1 0x4 DUP1 CALLDATASIZE SUB DUP2 ADD SWAP1 PUSH2 0x26B SWAP2 SWAP1 PUSH2 0x2CAC JUMP JUMPDEST PUSH2 0x920 JUMP JUMPDEST STOP JUMPDEST CALLVALUE DUP1 ISZERO PUSH2 0x27E JUMPI PUSH1 0x0 DUP1 REVERT JUMPDEST POP PUSH2 0x299 PUSH1 0x4 DUP1 CALLDATASIZE SUB DUP2 ADD SWAP1 PUSH2 0x294 SWAP2 SWAP1 PUSH2 0x2CAC JUMP JUMPDEST PUSH2 0x930 JUMP JUMPDEST STOP JUMPDEST CALLVALUE DUP1 ISZERO PUSH2 0x2A7 JUMPI PUSH1 0x0 DUP1 REVERT JUMPDEST POP PUSH2 0x2C2 PUSH1 0x4 DUP1 CALLDATASIZE SUB DUP2 ADD SWAP1 PUSH2 0x2BD SWAP2 SWAP1 PUSH2 0x2B8D JUMP JUMPDEST PUSH2 0x950 JUMP JUMPDEST PUSH1 0x40 MLOAD PUSH2 0x2CF SWAP2 SWAP1 PUSH2 0x2C91 JUMP JUMPDEST PUSH1 0x40 MLOAD DUP1 SWAP2 SUB SWAP1 RETURN JUMPDEST CALLVALUE DUP1 ISZERO PUSH2 0x2E4 JUMPI PUSH1 0x0 DUP1 REVERT JUMPDEST POP PUSH2 0x2FF PUSH1 0x4 DUP1 CALLDATASIZE SUB DUP2 ADD SWAP1 PUSH2 0x2FA SWAP2 SWAP1 PUSH2 0x2B8D JUMP JUMPDEST PUSH2 0x9B3 JUMP JUMPDEST PUSH1 0x40 MLOAD PUSH2 0x30C SWAP2 SWAP1 PUSH2 0x2BFB JUMP JUMPDEST PUSH1 0x40 MLOAD DUP1 SWAP2 SUB SWAP1 RETURN JUMPDEST CALLVALUE DUP1 ISZERO PUSH2 0x321 JUMPI PUSH1 0x0 DUP1 REVERT JUMPDEST POP PUSH2 0x33C PUSH1 0x4 DUP1 CALLDATASIZE SUB DUP2 ADD SWAP1 PUSH2 0x337 SWAP2 SWAP1 PUSH2 0x2CFF JUMP JUMPDEST PUSH2 0x9C9 JUMP JUMPDEST PUSH1 0x40 MLOAD PUSH2 0x349 SWAP2 SWAP1 PUSH2 0x2C91 JUMP JUMPDEST PUSH1 0x40 MLOAD DUP1 SWAP2 SUB SWAP1 RETURN JUMPDEST CALLVALUE DUP1 ISZERO PUSH2 0x35E JUMPI PUSH1 0x0 DUP1 REVERT JUMPDEST POP PUSH2 0x367 PUSH2 0xA98 JUMP JUMPDEST PUSH1 0x40 MLOAD PUSH2 0x374 SWAP2 SWAP1 PUSH2 0x2B35 JUMP JUMPDEST PUSH1 0x40 MLOAD DUP1 SWAP2 SUB SWAP1 RETURN JUMPDEST CALLVALUE DUP1 ISZERO PUSH2 0x389 JUMPI PUSH1 0x0 DUP1 REVERT JUMPDEST POP PUSH2 0x3A4 PUSH1 0x4 DUP1 CALLDATASIZE SUB DUP2 ADD SWAP1 PUSH2 0x39F SWAP2 SWAP1 PUSH2 0x2D2C JUMP JUMPDEST PUSH2 0xB2A JUMP JUMPDEST STOP JUMPDEST PUSH2 0x3C0 PUSH1 0x4 DUP1 CALLDATASIZE SUB DUP2 ADD SWAP1 PUSH2 0x3BB SWAP2 SWAP1 PUSH2 0x2B8D JUMP JUMPDEST PUSH2 0xBE8 JUMP JUMPDEST STOP JUMPDEST CALLVALUE DUP1 ISZERO PUSH2 0x3CE JUMPI PUSH1 0x0 DUP1 REVERT JUMPDEST POP PUSH2 0x3E9 PUSH1 0x4 DUP1 CALLDATASIZE SUB DUP2 ADD SWAP1 PUSH2 0x3E4 SWAP2 SWAP1 PUSH2 0x2DAB JUMP JUMPDEST PUSH2 0xDC8 JUMP JUMPDEST STOP JUMPDEST CALLVALUE DUP1 ISZERO PUSH2 0x3F7 JUMPI PUSH1 0x0 DUP1 REVERT JUMPDEST POP PUSH2 0x412 PUSH1 0x4 DUP1 CALLDATASIZE SUB DUP2 ADD SWAP1 PUSH2 0x40D SWAP2 SWAP1 PUSH2 0x2F20 JUMP JUMPDEST PUSH2 0xF3F JUMP JUMPDEST STOP JUMPDEST CALLVALUE DUP1 ISZERO PUSH2 0x420 JUMPI PUSH1 0x0 DUP1 REVERT JUMPDEST POP PUSH2 0x43B PUSH1 0x4 DUP1 CALLDATASIZE SUB DUP2 ADD SWAP1 PUSH2 0x436 SWAP2 SWAP1 PUSH2 0x2CFF JUMP JUMPDEST PUSH2 0xFB7 JUMP JUMPDEST PUSH1 0x40 MLOAD PUSH2 0x448 SWAP2 SWAP1 PUSH2 0x2C91 JUMP JUMPDEST PUSH1 0x40 MLOAD DUP1 SWAP2 SUB SWAP1 RETURN JUMPDEST CALLVALUE DUP1 ISZERO PUSH2 0x45D JUMPI PUSH1 0x0 DUP1 REVERT JUMPDEST POP PUSH2 0x478 PUSH1 0x4 DUP1 CALLDATASIZE SUB DUP2 ADD SWAP1 PUSH2 0x473 SWAP2 SWAP1 PUSH2 0x2B8D JUMP JUMPDEST PUSH2 0x1122 JUMP JUMPDEST PUSH1 0x40 MLOAD PUSH2 0x485 SWAP2 SWAP1 PUSH2 0x2B35 JUMP JUMPDEST PUSH1 0x40 MLOAD DUP1 SWAP2 SUB SWAP1 RETURN JUMPDEST CALLVALUE DUP1 ISZERO PUSH2 0x49A JUMPI PUSH1 0x0 DUP1 REVERT JUMPDEST POP PUSH2 0x4B5 PUSH1 0x4 DUP1 CALLDATASIZE SUB DUP2 ADD SWAP1 PUSH2 0x4B0 SWAP2 SWAP1 PUSH2 0x3044 JUMP JUMPDEST PUSH2 0x11C0 JUMP JUMPDEST PUSH1 0x40 MLOAD PUSH2 0x4C2 SWAP2 SWAP1 PUSH2 0x2BFB JUMP JUMPDEST PUSH1 0x40 MLOAD DUP1 SWAP2 SUB SWAP1 RETURN JUMPDEST CALLVALUE DUP1 ISZERO PUSH2 0x4D7 JUMPI PUSH1 0x0 DUP1 REVERT JUMPDEST POP PUSH2 0x4E0 PUSH2 0x1208 JUMP JUMPDEST PUSH1 0x40 MLOAD PUSH2 0x4ED SWAP2 SWAP1 PUSH2 0x2C91 JUMP JUMPDEST PUSH1 0x40 MLOAD DUP1 SWAP2 SUB SWAP1 RETURN JUMPDEST CALLVALUE DUP1 ISZERO PUSH2 0x502 JUMPI PUSH1 0x0 DUP1 REVERT JUMPDEST POP PUSH2 0x50B PUSH2 0x121F JUMP JUMPDEST PUSH1 0x40 MLOAD PUSH2 0x518 SWAP2 SWAP1 PUSH2 0x2C91 JUMP JUMPDEST PUSH1 0x40 MLOAD DUP1 SWAP2 SUB SWAP1 RETURN JUMPDEST CALLVALUE DUP1 ISZERO PUSH2 0x52D JUMPI PUSH1 0x0 DUP1 REVERT JUMPDEST POP PUSH2 0x548 PUSH1 0x4 DUP1 CALLDATASIZE SUB DUP2 ADD SWAP1 PUSH2 0x543 SWAP2 SWAP1 PUSH2 0x2B8D JUMP JUMPDEST PUSH2 0x1229 JUMP JUMPDEST PUSH1 0x40 MLOAD PUSH2 0x555 SWAP2 SWAP1 PUSH2 0x2C91 JUMP JUMPDEST PUSH1 0x40 MLOAD DUP1 SWAP2 SUB SWAP1 RETURN JUMPDEST CALLVALUE DUP1 ISZERO PUSH2 0x56A JUMPI PUSH1 0x0 DUP1 REVERT JUMPDEST POP PUSH2 0x585 PUSH1 0x4 DUP1 CALLDATASIZE SUB DUP2 ADD SWAP1 PUSH2 0x580 SWAP2 SWAP1 PUSH2 0x308D JUMP JUMPDEST PUSH2 0x129E JUMP JUMPDEST PUSH1 0x40 MLOAD PUSH2 0x592 SWAP2 SWAP1 PUSH2 0x2A8A JUMP JUMPDEST PUSH1 0x40 MLOAD DUP1 SWAP2 SUB SWAP1 RETURN JUMPDEST CALLVALUE DUP1 ISZERO PUSH2 0x5A7 JUMPI PUSH1 0x0 DUP1 REVERT JUMPDEST POP PUSH2 0x5C2 PUSH1 0x4 DUP1 CALLDATASIZE SUB DUP2 ADD SWAP1 PUSH2 0x5BD SWAP2 SWAP1 PUSH2 0x2C42 JUMP JUMPDEST PUSH2 0x1332 JUMP JUMPDEST PUSH1 0x40 MLOAD PUSH2 0x5CF SWAP2 SWAP1 PUSH2 0x2C91 JUMP JUMPDEST PUSH1 0x40 MLOAD DUP1 SWAP2 SUB SWAP1 RETURN JUMPDEST CALLVALUE DUP1 ISZERO PUSH2 0x5E4 JUMPI PUSH1 0x0 DUP1 REVERT JUMPDEST POP PUSH2 0x5FF PUSH1 0x4 DUP1 CALLDATASIZE SUB DUP2 ADD SWAP1 PUSH2 0x5FA SWAP2 SWAP1 PUSH2 0x30CD JUMP JUMPDEST PUSH2 0x138D JUMP JUMPDEST PUSH1 0x40 MLOAD PUSH2 0x60C SWAP2 SWAP1 PUSH2 0x2C91 JUMP JUMPDEST PUSH1 0x40 MLOAD DUP1 SWAP2 SUB SWAP1 RETURN JUMPDEST PUSH1 0x0 PUSH32 0x80AC58CD00000000000000000000000000000000000000000000000000000000 PUSH28 0xFFFFFFFFFFFFFFFFFFFFFFFFFFFFFFFFFFFFFFFFFFFFFFFFFFFFFFFF NOT AND DUP3 PUSH28 0xFFFFFFFFFFFFFFFFFFFFFFFFFFFFFFFFFFFFFFFFFFFFFFFFFFFFFFFF NOT AND EQ DUP1 PUSH2 0x6E0 JUMPI POP PUSH32 0x5B5E139F00000000000000000000000000000000000000000000000000000000 PUSH28 0xFFFFFFFFFFFFFFFFFFFFFFFFFFFFFFFFFFFFFFFFFFFFFFFFFFFFFFFF NOT AND DUP3 PUSH28 0xFFFFFFFFFFFFFFFFFFFFFFFFFFFFFFFFFFFFFFFFFFFFFFFFFFFFFFFF NOT AND EQ JUMPDEST DUP1 PUSH2 0x6F0 JUMPI POP PUSH2 0x6EF DUP3 PUSH2 0x13D2 JUMP JUMPDEST JUMPDEST SWAP1 POP SWAP2 SWAP1 POP JUMP JUMPDEST PUSH1 0x60 PUSH1 0x7 DUP1 SLOAD PUSH2 0x706 SWAP1 PUSH2 0x313C JUMP JUMPDEST DUP1 PUSH1 0x1F ADD PUSH1 0x20 DUP1 SWAP2 DIV MUL PUSH1 0x20 ADD PUSH1 0x40 MLOAD SWAP1 DUP2 ADD PUSH1 0x40 MSTORE DUP1 SWAP3 SWAP2 SWAP1 DUP2 DUP2 MSTORE PUSH1 0x20 ADD DUP3 DUP1 SLOAD PUSH2 0x732 SWAP1 PUSH2 0x313C JUMP JUMPDEST DUP1 ISZERO PUSH2 0x77F JUMPI DUP1 PUSH1 0x1F LT PUSH2 0x754 JUMPI PUSH2 0x100 DUP1 DUP4 SLOAD DIV MUL DUP4 MSTORE SWAP2 PUSH1 0x20 ADD SWAP2 PUSH2 0x77F JUMP JUMPDEST DUP3 ADD SWAP2 SWAP1 PUSH1 0x0 MSTORE PUSH1 0x20 PUSH1 0x0 KECCAK256 SWAP1 JUMPDEST DUP2 SLOAD DUP2 MSTORE SWAP1 PUSH1 0x1 ADD SWAP1 PUSH1 0x20 ADD DUP1 DUP4 GT PUSH2 0x762 JUMPI DUP3 SWAP1 SUB PUSH1 0x1F AND DUP3 ADD SWAP2 JUMPDEST POP POP POP POP POP SWAP1 POP SWAP1 JUMP JUMPDEST PUSH1 0x0 PUSH2 0x794 DUP3 PUSH2 0x143C JUMP JUMPDEST PUSH2 0x7CA JUMPI PUSH1 0x40 MLOAD PUSH32 0xCF4700E400000000000000000000000000000000000000000000000000000000 DUP2 MSTORE PUSH1 0x4 ADD PUSH1 0x40 MLOAD DUP1 SWAP2 SUB SWAP1 REVERT JUMPDEST PUSH1 0xB PUSH1 0x0 DUP4 DUP2 MSTORE PUSH1 0x20 ADD SWAP1 DUP2 MSTORE PUSH1 0x20 ADD PUSH1 0x0 KECCAK256 PUSH1 0x0 SWAP1 SLOAD SWAP1 PUSH2 0x100 EXP SWAP1 DIV PUSH20 0xFFFFFFFFFFFFFFFFFFFFFFFFFFFFFFFFFFFFFFFF AND SWAP1 POP SWAP2 SWAP1 POP JUMP JUMPDEST PUSH1 0x0 PUSH2 0x810 DUP3 PUSH2 0x9B3 JUMP JUMPDEST SWAP1 POP DUP1 PUSH20 0xFFFFFFFFFFFFFFFFFFFFFFFFFFFFFFFFFFFFFFFF AND DUP4 PUSH20 0xFFFFFFFFFFFFFFFFFFFFFFFFFFFFFFFFFFFFFFFF AND SUB PUSH2 0x877 JUMPI PUSH1 0x40 MLOAD PUSH32 0x943F7B8C00000000000000000000000000000000000000000000000000000000 DUP2 MSTORE PUSH1 0x4 ADD PUSH1 0x40 MLOAD DUP1 SWAP2 SUB SWAP1 REVERT JUMPDEST DUP1 PUSH20 0xFFFFFFFFFFFFFFFFFFFFFFFFFFFFFFFFFFFFFFFF AND PUSH2 0x896 PUSH2 0x148A JUMP JUMPDEST PUSH20 0xFFFFFFFFFFFFFFFFFFFFFFFFFFFFFFFFFFFFFFFF AND EQ PUSH2 0x8F9 JUMPI PUSH2 0x8C2 DUP2 PUSH2 0x8BD PUSH2 0x148A JUMP JUMPDEST PUSH2 0x129E JUMP JUMPDEST PUSH2 0x8F8 JUMPI PUSH1 0x40 MLOAD PUSH32 0xCFB3B94200000000000000000000000000000000000000000000000000000000 DUP2 MSTORE PUSH1 0x4 ADD PUSH1 0x40 MLOAD DUP1 SWAP2 SUB SWAP1 REVERT JUMPDEST JUMPDEST PUSH2 0x904 DUP4 DUP4 DUP4 PUSH2 0x1492 JUMP JUMPDEST POP POP POP JUMP JUMPDEST PUSH1 0x0 PUSH2 0x913 PUSH2 0x1544 JUMP JUMPDEST PUSH1 0x6 SLOAD PUSH1 0x4 SLOAD SUB SUB SWAP1 POP SWAP1 JUMP JUMPDEST PUSH2 0x92B DUP4 DUP4 DUP4 PUSH2 0x1549 JUMP JUMPDEST POP POP POP JUMP JUMPDEST PUSH2 0x94B DUP4 DUP4 DUP4 PUSH1 0x40 MLOAD DUP1 PUSH1 0x20 ADD PUSH1 0x40 MSTORE DUP1 PUSH1 0x0 DUP2 MSTORE POP PUSH2 0xF3F JUMP JUMPDEST POP POP POP JUMP JUMPDEST PUSH1 0x0 PUSH1 0x2 SLOAD DUP3 LT ISZERO PUSH2 0x962 JUMPI PUSH1 0x2 SLOAD SWAP2 POP JUMPDEST PUSH1 0x0 PUSH2 0x98E PUSH3 0x16E360 PUSH2 0x980 PUSH1 0x2 SLOAD DUP7 PUSH2 0x1CE5 SWAP1 SWAP2 SWAP1 PUSH4 0xFFFFFFFF AND JUMP JUMPDEST PUSH2 0x1CFB SWAP1 SWAP2 SWAP1 PUSH4 0xFFFFFFFF AND JUMP JUMPDEST SWAP1 POP PUSH1 0x0 PUSH2 0x9A7 DUP3 PUSH1 0x1 SLOAD PUSH2 0x1D11 SWAP1 SWAP2 SWAP1 PUSH4 0xFFFFFFFF AND JUMP JUMPDEST SWAP1 POP DUP1 SWAP3 POP POP POP SWAP2 SWAP1 POP JUMP JUMPDEST PUSH1 0x0 PUSH2 0x9BE DUP3 PUSH2 0x1D27 JUMP JUMPDEST PUSH1 0x0 ADD MLOAD SWAP1 POP SWAP2 SWAP1 POP JUMP JUMPDEST PUSH1 0x0 DUP1 PUSH20 0xFFFFFFFFFFFFFFFFFFFFFFFFFFFFFFFFFFFFFFFF AND DUP3 PUSH20 0xFFFFFFFFFFFFFFFFFFFFFFFFFFFFFFFFFFFFFFFF AND SUB PUSH2 0xA30 JUMPI PUSH1 0x40 MLOAD PUSH32 0x8F4EB60400000000000000000000000000000000000000000000000000000000 DUP2 MSTORE PUSH1 0x4 ADD PUSH1 0x40 MLOAD DUP1 SWAP2 SUB SWAP1 REVERT JUMPDEST PUSH1 0xA PUSH1 0x0 DUP4 PUSH20 0xFFFFFFFFFFFFFFFFFFFFFFFFFFFFFFFFFFFFFFFF AND PUSH20 0xFFFFFFFFFFFFFFFFFFFFFFFFFFFFFFFFFFFFFFFF AND DUP2 MSTORE PUSH1 0x20 ADD SWAP1 DUP2 MSTORE PUSH1 0x20 ADD PUSH1 0x0 KECCAK256 PUSH1 0x0 ADD PUSH1 0x0 SWAP1 SLOAD SWAP1 PUSH2 0x100 EXP SWAP1 DIV PUSH8 0xFFFFFFFFFFFFFFFF AND PUSH8 0xFFFFFFFFFFFFFFFF AND SWAP1 POP SWAP2 SWAP1 POP JUMP JUMPDEST PUSH1 0x60 PUSH1 0x8 DUP1 SLOAD PUSH2 0xAA7 SWAP1 PUSH2 0x313C JUMP JUMPDEST DUP1 PUSH1 0x1F ADD PUSH1 0x20 DUP1 SWAP2 DIV MUL PUSH1 0x20 ADD PUSH1 0x40 MLOAD SWAP1 DUP2 ADD PUSH1 0x40 MSTORE DUP1 SWAP3 SWAP2 SWAP1 DUP2 DUP2 MSTORE PUSH1 0x20 ADD DUP3 DUP1 SLOAD PUSH2 0xAD3 SWAP1 PUSH2 0x313C JUMP JUMPDEST DUP1 ISZERO PUSH2 0xB20 JUMPI DUP1 PUSH1 0x1F LT PUSH2 0xAF5 JUMPI PUSH2 0x100 DUP1 DUP4 SLOAD DIV MUL DUP4 MSTORE SWAP2 PUSH1 0x20 ADD SWAP2 PUSH2 0xB20 JUMP JUMPDEST DUP3 ADD SWAP2 SWAP1 PUSH1 0x0 MSTORE PUSH1 0x20 PUSH1 0x0 KECCAK256 SWAP1 JUMPDEST DUP2 SLOAD DUP2 MSTORE SWAP1 PUSH1 0x1 ADD SWAP1 PUSH1 0x20 ADD DUP1 DUP4 GT PUSH2 0xB03 JUMPI DUP3 SWAP1 SUB PUSH1 0x1F AND DUP3 ADD SWAP2 JUMPDEST POP POP POP POP POP SWAP1 POP SWAP1 JUMP JUMPDEST CALLER PUSH20 0xFFFFFFFFFFFFFFFFFFFFFFFFFFFFFFFFFFFFFFFF AND PUSH1 0xE PUSH1 0x0 SWAP1 SLOAD SWAP1 PUSH2 0x100 EXP SWAP1 DIV PUSH20 0xFFFFFFFFFFFFFFFFFFFFFFFFFFFFFFFFFFFFFFFF AND PUSH20 0xFFFFFFFFFFFFFFFFFFFFFFFFFFFFFFFFFFFFFFFF AND EQ PUSH2 0xBBA JUMPI PUSH1 0x40 MLOAD PUSH32 0x8C379A000000000000000000000000000000000000000000000000000000000 DUP2 MSTORE PUSH1 0x4 ADD PUSH2 0xBB1 SWAP1 PUSH2 0x31B9 JUMP JUMPDEST PUSH1 0x40 MLOAD DUP1 SWAP2 SUB SWAP1 REVERT JUMPDEST DUP1 PUSH1 0x12 PUSH1 0x0 DUP6 DUP2 MSTORE PUSH1 0x20 ADD SWAP1 DUP2 MSTORE PUSH1 0x20 ADD PUSH1 0x0 KECCAK256 PUSH1 0x0 DUP5 DUP2 MSTORE PUSH1 0x20 ADD SWAP1 DUP2 MSTORE PUSH1 0x20 ADD PUSH1 0x0 KECCAK256 DUP2 SWAP1 SSTORE POP POP POP POP JUMP JUMPDEST PUSH1 0x12 PUSH1 0x0 DUP1 DUP2 MSTORE PUSH1 0x20 ADD SWAP1 DUP2 MSTORE PUSH1 0x20 ADD PUSH1 0x0 KECCAK256 PUSH1 0x0 PUSH1 0x4 DUP2 MSTORE PUSH1 0x20 ADD SWAP1 DUP2 MSTORE PUSH1 0x20 ADD PUSH1 0x0 KECCAK256 SLOAD PUSH1 0x12 PUSH1 0x0 DUP1 DUP2 MSTORE PUSH1 0x20 ADD SWAP1 DUP2 MSTORE PUSH1 0x20 ADD PUSH1 0x0 KECCAK256 PUSH1 0x0 PUSH1 0x3 DUP2 MSTORE PUSH1 0x20 ADD SWAP1 DUP2 MSTORE PUSH1 0x20 ADD PUSH1 0x0 KECCAK256 SLOAD LT PUSH2 0xC3E JUMPI PUSH1 0x0 DUP1 REVERT JUMPDEST PUSH1 0x12 PUSH1 0x0 DUP1 DUP2 MSTORE PUSH1 0x20 ADD SWAP1 DUP2 MSTORE PUSH1 0x20 ADD PUSH1 0x0 KECCAK256 PUSH1 0x0 PUSH1 0x4 DUP2 MSTORE PUSH1 0x20 ADD SWAP1 DUP2 MSTORE PUSH1 0x20 ADD PUSH1 0x0 KECCAK256 SLOAD PUSH2 0xC9C DUP3 PUSH1 0x12 PUSH1 0x0 DUP1 DUP2 MSTORE PUSH1 0x20 ADD SWAP1 DUP2 MSTORE PUSH1 0x20 ADD PUSH1 0x0 KECCAK256 PUSH1 0x0 PUSH1 0x3 DUP2 MSTORE PUSH1 0x20 ADD SWAP1 DUP2 MSTORE PUSH1 0x20 ADD PUSH1 0x0 KECCAK256 SLOAD PUSH2 0x1CFB SWAP1 SWAP2 SWAP1 PUSH4 0xFFFFFFFF AND JUMP JUMPDEST GT ISZERO PUSH2 0xCA7 JUMPI PUSH1 0x0 DUP1 REVERT JUMPDEST PUSH1 0x0 PUSH2 0xCE1 PUSH1 0x12 PUSH1 0x0 DUP1 DUP2 MSTORE PUSH1 0x20 ADD SWAP1 DUP2 MSTORE PUSH1 0x20 ADD PUSH1 0x0 KECCAK256 PUSH1 0x0 PUSH1 0x1 DUP2 MSTORE PUSH1 0x20 ADD SWAP1 DUP2 MSTORE PUSH1 0x20 ADD PUSH1 0x0 KECCAK256 SLOAD DUP4 PUSH2 0x13BC SWAP1 SWAP2 SWAP1 PUSH4 0xFFFFFFFF AND JUMP JUMPDEST SWAP1 POP DUP1 CALLVALUE LT ISZERO PUSH2 0xCF0 JUMPI PUSH1 0x0 DUP1 REVERT JUMPDEST PUSH2 0xCFA CALLER DUP4 PUSH2 0x1FB2 JUMP JUMPDEST PUSH2 0xD32 DUP3 PUSH1 0x12 PUSH1 0x0 DUP1 DUP2 MSTORE PUSH1 0x20 ADD SWAP1 DUP2 MSTORE PUSH1 0x20 ADD PUSH1 0x0 KECCAK256 PUSH1 0x0 PUSH1 0x3 DUP2 MSTORE PUSH1 0x20 ADD SWAP1 DUP2 MSTORE PUSH1 0x20 ADD PUSH1 0x0 KECCAK256 SLOAD PUSH2 0x1CFB SWAP1 SWAP2 SWAP1 PUSH4 0xFFFFFFFF AND JUMP JUMPDEST PUSH1 0x12 PUSH1 0x0 DUP1 DUP2 MSTORE PUSH1 0x20 ADD SWAP1 DUP2 MSTORE PUSH1 0x20 ADD PUSH1 0x0 KECCAK256 PUSH1 0x0 PUSH1 0x3 DUP2 MSTORE PUSH1 0x20 ADD SWAP1 DUP2 MSTORE PUSH1 0x20 ADD PUSH1 0x0 KECCAK256 DUP2 SWAP1 SSTORE POP PUSH1 0xE PUSH1 0x0 SWAP1 SLOAD SWAP1 PUSH2 0x100 EXP SWAP1 DIV PUSH20 0xFFFFFFFFFFFFFFFFFFFFFFFFFFFFFFFFFFFFFFFF AND PUSH20 0xFFFFFFFFFFFFFFFFFFFFFFFFFFFFFFFFFFFFFFFF AND PUSH2 0x8FC CALLVALUE SWAP1 DUP2 ISZERO MUL SWAP1 PUSH1 0x40 MLOAD PUSH1 0x0 PUSH1 0x40 MLOAD DUP1 DUP4 SUB DUP2 DUP6 DUP9 DUP9 CALL SWAP4 POP POP POP POP ISZERO DUP1 ISZERO PUSH2 0xDC3 JUMPI RETURNDATASIZE PUSH1 0x0 DUP1 RETURNDATACOPY RETURNDATASIZE PUSH1 0x0 REVERT JUMPDEST POP POP POP JUMP JUMPDEST PUSH2 0xDD0 PUSH2 0x148A JUMP JUMPDEST PUSH20 0xFFFFFFFFFFFFFFFFFFFFFFFFFFFFFFFFFFFFFFFF AND DUP3 PUSH20 0xFFFFFFFFFFFFFFFFFFFFFFFFFFFFFFFFFFFFFFFF AND SUB PUSH2 0xE34 JUMPI PUSH1 0x40 MLOAD PUSH32 0xB06307DB00000000000000000000000000000000000000000000000000000000 DUP2 MSTORE PUSH1 0x4 ADD PUSH1 0x40 MLOAD DUP1 SWAP2 SUB SWAP1 REVERT JUMPDEST DUP1 PUSH1 0xC PUSH1 0x0 PUSH2 0xE41 PUSH2 0x148A JUMP JUMPDEST PUSH20 0xFFFFFFFFFFFFFFFFFFFFFFFFFFFFFFFFFFFFFFFF AND PUSH20 0xFFFFFFFFFFFFFFFFFFFFFFFFFFFFFFFFFFFFFFFF AND DUP2 MSTORE PUSH1 0x20 ADD SWAP1 DUP2 MSTORE PUSH1 0x20 ADD PUSH1 0x0 KECCAK256 PUSH1 0x0 DUP5 PUSH20 0xFFFFFFFFFFFFFFFFFFFFFFFFFFFFFFFFFFFFFFFF AND PUSH20 0xFFFFFFFFFFFFFFFFFFFFFFFFFFFFFFFFFFFFFFFF AND DUP2 MSTORE PUSH1 0x20 ADD SWAP1 DUP2 MSTORE PUSH1 0x20 ADD PUSH1 0x0 KECCAK256 PUSH1 0x0 PUSH2 0x100 EXP DUP2 SLOAD DUP2 PUSH1 0xFF MUL NOT AND SWAP1 DUP4 ISZERO ISZERO MUL OR SWAP1 SSTORE POP DUP2 PUSH20 0xFFFFFFFFFFFFFFFFFFFFFFFFFFFFFFFFFFFFFFFF AND PUSH2 0xEEE PUSH2 0x148A JUMP JUMPDEST PUSH20 0xFFFFFFFFFFFFFFFFFFFFFFFFFFFFFFFFFFFFFFFF AND PUSH32 0x17307EAB39AB6107E8899845AD3D59BD9653F200F220920489CA2B5937696C31 DUP4 PUSH1 0x40 MLOAD PUSH2 0xF33 SWAP2 SWAP1 PUSH2 0x2A8A JUMP JUMPDEST PUSH1 0x40 MLOAD DUP1 SWAP2 SUB SWAP1 LOG3 POP POP JUMP JUMPDEST PUSH2 0xF4A DUP5 DUP5 DUP5 PUSH2 0x1549 JUMP JUMPDEST PUSH2 0xF69 DUP4 PUSH20 0xFFFFFFFFFFFFFFFFFFFFFFFFFFFFFFFFFFFFFFFF AND PUSH2 0x1FD0 JUMP JUMPDEST ISZERO PUSH2 0xFB1 JUMPI PUSH2 0xF7A DUP5 DUP5 DUP5 DUP5 PUSH2 0x1FF3 JUMP JUMPDEST PUSH2 0xFB0 JUMPI PUSH1 0x40 MLOAD PUSH32 0xD1A57ED600000000000000000000000000000000000000000000000000000000 DUP2 MSTORE PUSH1 0x4 ADD PUSH1 0x40 MLOAD DUP1 SWAP2 SUB SWAP1 REVERT JUMPDEST JUMPDEST POP POP POP POP JUMP JUMPDEST PUSH1 0x0 DUP1 PUSH2 0x1014 PUSH1 0xD PUSH1 0x0 DUP6 PUSH20 0xFFFFFFFFFFFFFFFFFFFFFFFFFFFFFFFFFFFFFFFF AND PUSH20 0xFFFFFFFFFFFFFFFFFFFFFFFFFFFFFFFFFFFFFFFF AND DUP2 MSTORE PUSH1 0x20 ADD SWAP1 DUP2 MSTORE PUSH1 0x20 ADD PUSH1 0x0 KECCAK256 PUSH1 0x0 PUSH1 0x1 DUP2 MSTORE PUSH1 0x20 ADD SWAP1 DUP2 MSTORE PUSH1 0x20 ADD PUSH1 0x0 KECCAK256 SLOAD PUSH2 0x950 JUMP JUMPDEST SWAP1 POP PUSH1 0x0 PUSH2 0x1021 NUMBER PUSH2 0x950 JUMP JUMPDEST SWAP1 POP PUSH1 0x0 PUSH2 0x1038 DUP3 DUP5 PUSH2 0x1CE5 SWAP1 SWAP2 SWAP1 PUSH4 0xFFFFFFFF AND JUMP JUMPDEST SWAP1 POP PUSH2 0x10B2 PUSH1 0x3 SLOAD PUSH2 0x10A4 PUSH1 0xD PUSH1 0x0 DUP10 PUSH20 0xFFFFFFFFFFFFFFFFFFFFFFFFFFFFFFFFFFFFFFFF AND PUSH20 0xFFFFFFFFFFFFFFFFFFFFFFFFFFFFFFFFFFFFFFFF AND DUP2 MSTORE PUSH1 0x20 ADD SWAP1 DUP2 MSTORE PUSH1 0x20 ADD PUSH1 0x0 KECCAK256 PUSH1 0x0 PUSH1 0x2 DUP2 MSTORE PUSH1 0x20 ADD SWAP1 DUP2 MSTORE PUSH1 0x20 ADD PUSH1 0x0 KECCAK256 SLOAD DUP5 PUSH2 0x13BC SWAP1 SWAP2 SWAP1 PUSH4 0xFFFFFFFF AND JUMP JUMPDEST PUSH2 0x1D11 SWAP1 SWAP2 SWAP1 PUSH4 0xFFFFFFFF AND JUMP JUMPDEST SWAP1 POP PUSH2 0x1118 DUP2 PUSH1 0xD PUSH1 0x0 DUP9 PUSH20 0xFFFFFFFFFFFFFFFFFFFFFFFFFFFFFFFFFFFFFFFF AND PUSH20 0xFFFFFFFFFFFFFFFFFFFFFFFFFFFFFFFFFFFFFFFF AND DUP2 MSTORE PUSH1 0x20 ADD SWAP1 DUP2 MSTORE PUSH1 0x20 ADD PUSH1 0x0 KECCAK256 PUSH1 0x0 PUSH1 0x3 DUP2 MSTORE PUSH1 0x20 ADD SWAP1 DUP2 MSTORE PUSH1 0x20 ADD PUSH1 0x0 KECCAK256 SLOAD PUSH2 0x1CFB SWAP1 SWAP2 SWAP1 PUSH4 0xFFFFFFFF AND JUMP JUMPDEST SWAP4 POP POP POP POP SWAP2 SWAP1 POP JUMP JUMPDEST PUSH1 0x60 PUSH2 0x112D DUP3 PUSH2 0x143C JUMP JUMPDEST PUSH2 0x1163 JUMPI PUSH1 0x40 MLOAD PUSH32 0xA14C4B5000000000000000000000000000000000000000000000000000000000 DUP2 MSTORE PUSH1 0x4 ADD PUSH1 0x40 MLOAD DUP1 SWAP2 SUB SWAP1 REVERT JUMPDEST PUSH1 0x0 PUSH2 0x116D PUSH2 0x2143 JUMP JUMPDEST SWAP1 POP PUSH1 0x0 DUP2 MLOAD SUB PUSH2 0x118D JUMPI PUSH1 0x40 MLOAD DUP1 PUSH1 0x20 ADD PUSH1 0x40 MSTORE DUP1 PUSH1 0x0 DUP2 MSTORE POP PUSH2 0x11B8 JUMP JUMPDEST DUP1 PUSH2 0x1197 DUP5 PUSH2 0x2163 JUMP JUMPDEST PUSH1 0x40 MLOAD PUSH1 0x20 ADD PUSH2 0x11A8 SWAP3 SWAP2 SWAP1 PUSH2 0x3215 JUMP JUMPDEST PUSH1 0x40 MLOAD PUSH1 0x20 DUP2 DUP4 SUB SUB DUP2 MSTORE SWAP1 PUSH1 0x40 MSTORE JUMPDEST SWAP2 POP POP SWAP2 SWAP1 POP JUMP JUMPDEST PUSH1 0x0 PUSH1 0x11 DUP3 PUSH1 0x40 MLOAD PUSH2 0x11D2 SWAP2 SWAP1 PUSH2 0x3239 JUMP JUMPDEST SWAP1 DUP2 MSTORE PUSH1 0x20 ADD PUSH1 0x40 MLOAD DUP1 SWAP2 SUB SWAP1 KECCAK256 PUSH1 0x0 SWAP1 SLOAD SWAP1 PUSH2 0x100 EXP SWAP1 DIV PUSH20 0xFFFFFFFFFFFFFFFFFFFFFFFFFFFFFFFFFFFFFFFF AND SWAP1 POP SWAP2 SWAP1 POP JUMP JUMPDEST PUSH1 0x0 PUSH2 0x1212 PUSH2 0x1544 JUMP JUMPDEST PUSH1 0x6 SLOAD PUSH1 0x5 SLOAD SUB SUB SWAP1 POP SWAP1 JUMP JUMPDEST PUSH1 0x0 PUSH1 0x3 SLOAD SWAP1 POP SWAP1 JUMP JUMPDEST PUSH1 0x0 DUP1 PUSH2 0x2710 DUP4 LT PUSH2 0x123E JUMPI PUSH1 0x32 SWAP1 POP PUSH2 0x1295 JUMP JUMPDEST PUSH2 0x1265 DUP4 PUSH2 0x1257 PUSH1 0x0 SLOAD DUP7 PUSH2 0x13BC SWAP1 SWAP2 SWAP1 PUSH4 0xFFFFFFFF AND JUMP JUMPDEST PUSH2 0x1CFB SWAP1 SWAP2 SWAP1 PUSH4 0xFFFFFFFF AND JUMP JUMPDEST SWAP1 POP PUSH1 0x0 PUSH1 0xA DUP3 PUSH2 0x1276 SWAP2 SWAP1 PUSH2 0x327F JUMP JUMPDEST SUB PUSH2 0x1284 JUMPI PUSH1 0x1 SWAP1 POP PUSH2 0x1294 JUMP JUMPDEST PUSH1 0xA DUP2 PUSH2 0x1291 SWAP2 SWAP1 PUSH2 0x327F JUMP JUMPDEST SWAP1 POP JUMPDEST JUMPDEST DUP1 SWAP2 POP POP SWAP2 SWAP1 POP JUMP JUMPDEST PUSH1 0x0 PUSH1 0xC PUSH1 0x0 DUP5 PUSH20 0xFFFFFFFFFFFFFFFFFFFFFFFFFFFFFFFFFFFFFFFF AND PUSH20 0xFFFFFFFFFFFFFFFFFFFFFFFFFFFFFFFFFFFFFFFF AND DUP2 MSTORE PUSH1 0x20 ADD SWAP1 DUP2 MSTORE PUSH1 0x20 ADD PUSH1 0x0 KECCAK256 PUSH1 0x0 DUP4 PUSH20 0xFFFFFFFFFFFFFFFFFFFFFFFFFFFFFFFFFFFFFFFF AND PUSH20 0xFFFFFFFFFFFFFFFFFFFFFFFFFFFFFFFFFFFFFFFF AND DUP2 MSTORE PUSH1 0x20 ADD SWAP1 DUP2 MSTORE PUSH1 0x20 ADD PUSH1 0x0 KECCAK256 PUSH1 0x0 SWAP1 SLOAD SWAP1 PUSH2 0x100 EXP SWAP1 DIV PUSH1 0xFF AND SWAP1 POP SWAP3 SWAP2 POP POP JUMP JUMPDEST PUSH1 0x0 PUSH1 0xD PUSH1 0x0 DUP5 PUSH20 0xFFFFFFFFFFFFFFFFFFFFFFFFFFFFFFFFFFFFFFFF AND PUSH20 0xFFFFFFFFFFFFFFFFFFFFFFFFFFFFFFFFFFFFFFFF AND DUP2 MSTORE PUSH1 0x20 ADD SWAP1 DUP2 MSTORE PUSH1 0x20 ADD PUSH1 0x0 KECCAK256 PUSH1 0x0 DUP4 DUP2 MSTORE PUSH1 0x20 ADD SWAP1 DUP2 MSTORE PUSH1 0x20 ADD PUSH1 0x0 KECCAK256 SLOAD SWAP1 POP SWAP3 SWAP2 POP POP JUMP JUMPDEST PUSH1 0x0 PUSH1 0x12 PUSH1 0x0 DUP5 DUP2 MSTORE PUSH1 0x20 ADD SWAP1 DUP2 MSTORE PUSH1 0x20 ADD PUSH1 0x0 KECCAK256 PUSH1 0x0 DUP4 DUP2 MSTORE PUSH1 0x20 ADD SWAP1 DUP2 MSTORE PUSH1 0x20 ADD PUSH1 0x0 KECCAK256 SLOAD SWAP1 POP SWAP3 SWAP2 POP POP JUMP JUMPDEST PUSH1 0x0 DUP2 DUP4 PUSH2 0x13CA SWAP2 SWAP1 PUSH2 0x32DF JUMP JUMPDEST SWAP1 POP SWAP3 SWAP2 POP POP JUMP JUMPDEST PUSH1 0x0 PUSH32 0x1FFC9A700000000000000000000000000000000000000000000000000000000 PUSH28 0xFFFFFFFFFFFFFFFFFFFFFFFFFFFFFFFFFFFFFFFFFFFFFFFFFFFFFFFF NOT AND DUP3 PUSH28 0xFFFFFFFFFFFFFFFFFFFFFFFFFFFFFFFFFFFFFFFFFFFFFFFFFFFFFFFF NOT AND EQ SWAP1 POP SWAP2 SWAP1 POP JUMP JUMPDEST PUSH1 0x0 DUP2 PUSH2 0x1447 PUSH2 0x1544 JUMP JUMPDEST GT ISZERO DUP1 ISZERO PUSH2 0x1456 JUMPI POP PUSH1 0x4 SLOAD DUP3 LT JUMPDEST DUP1 ISZERO PUSH2 0x1483 JUMPI POP PUSH1 0x9 PUSH1 0x0 DUP4 DUP2 MSTORE PUSH1 0x20 ADD SWAP1 DUP2 MSTORE PUSH1 0x20 ADD PUSH1 0x0 KECCAK256 PUSH1 0x0 ADD PUSH1 0x1C SWAP1 SLOAD SWAP1 PUSH2 0x100 EXP SWAP1 DIV PUSH1 0xFF AND ISZERO JUMPDEST SWAP1 POP SWAP2 SWAP1 POP JUMP JUMPDEST PUSH1 0x0 CALLER SWAP1 POP SWAP1 JUMP JUMPDEST DUP3 PUSH1 0xB PUSH1 0x0 DUP5 DUP2 MSTORE PUSH1 0x20 ADD SWAP1 DUP2 MSTORE PUSH1 0x20 ADD PUSH1 0x0 KECCAK256 PUSH1 0x0 PUSH2 0x100 EXP DUP2 SLOAD DUP2 PUSH20 0xFFFFFFFFFFFFFFFFFFFFFFFFFFFFFFFFFFFFFFFF MUL NOT AND SWAP1 DUP4 PUSH20 0xFFFFFFFFFFFFFFFFFFFFFFFFFFFFFFFFFFFFFFFF AND MUL OR SWAP1 SSTORE POP DUP2 DUP4 PUSH20 0xFFFFFFFFFFFFFFFFFFFFFFFFFFFFFFFFFFFFFFFF AND DUP3 PUSH20 0xFFFFFFFFFFFFFFFFFFFFFFFFFFFFFFFFFFFFFFFF AND PUSH32 0x8C5BE1E5EBEC7D5BD14F71427D1E84F3DD0314C0F7B2291E5B200AC8C7C3B925 PUSH1 0x40 MLOAD PUSH1 0x40 MLOAD DUP1 SWAP2 SUB SWAP1 LOG4 POP POP POP JUMP JUMPDEST PUSH1 0x0 SWAP1 JUMP JUMPDEST PUSH1 0x0 PUSH2 0x1554 DUP3 PUSH2 0x1229 JUMP JUMPDEST SWAP1 POP PUSH2 0x155F DUP5 PUSH2 0xFB7 JUMP JUMPDEST PUSH1 0xD PUSH1 0x0 DUP7 PUSH20 0xFFFFFFFFFFFFFFFFFFFFFFFFFFFFFFFFFFFFFFFF AND PUSH20 0xFFFFFFFFFFFFFFFFFFFFFFFFFFFFFFFFFFFFFFFF AND DUP2 MSTORE PUSH1 0x20 ADD SWAP1 DUP2 MSTORE PUSH1 0x20 ADD PUSH1 0x0 KECCAK256 PUSH1 0x0 PUSH1 0x3 DUP2 MSTORE PUSH1 0x20 ADD SWAP1 DUP2 MSTORE PUSH1 0x20 ADD PUSH1 0x0 KECCAK256 DUP2 SWAP1 SSTORE POP PUSH2 0x1618 DUP2 PUSH1 0xD PUSH1 0x0 DUP8 PUSH20 0xFFFFFFFFFFFFFFFFFFFFFFFFFFFFFFFFFFFFFFFF AND PUSH20 0xFFFFFFFFFFFFFFFFFFFFFFFFFFFFFFFFFFFFFFFF AND DUP2 MSTORE PUSH1 0x20 ADD SWAP1 DUP2 MSTORE PUSH1 0x20 ADD PUSH1 0x0 KECCAK256 PUSH1 0x0 PUSH1 0x2 DUP2 MSTORE PUSH1 0x20 ADD SWAP1 DUP2 MSTORE PUSH1 0x20 ADD PUSH1 0x0 KECCAK256 SLOAD PUSH2 0x1CE5 SWAP1 SWAP2 SWAP1 PUSH4 0xFFFFFFFF AND JUMP JUMPDEST PUSH1 0xD PUSH1 0x0 DUP7 PUSH20 0xFFFFFFFFFFFFFFFFFFFFFFFFFFFFFFFFFFFFFFFF AND PUSH20 0xFFFFFFFFFFFFFFFFFFFFFFFFFFFFFFFFFFFFFFFF AND DUP2 MSTORE PUSH1 0x20 ADD SWAP1 DUP2 MSTORE PUSH1 0x20 ADD PUSH1 0x0 KECCAK256 PUSH1 0x0 PUSH1 0x2 DUP2 MSTORE PUSH1 0x20 ADD SWAP1 DUP2 MSTORE PUSH1 0x20 ADD PUSH1 0x0 KECCAK256 DUP2 SWAP1 SSTORE POP NUMBER PUSH1 0xD PUSH1 0x0 DUP7 PUSH20 0xFFFFFFFFFFFFFFFFFFFFFFFFFFFFFFFFFFFFFFFF AND PUSH20 0xFFFFFFFFFFFFFFFFFFFFFFFFFFFFFFFFFFFFFFFF AND DUP2 MSTORE PUSH1 0x20 ADD SWAP1 DUP2 MSTORE PUSH1 0x20 ADD PUSH1 0x0 KECCAK256 PUSH1 0x0 PUSH1 0x1 DUP2 MSTORE PUSH1 0x20 ADD SWAP1 DUP2 MSTORE PUSH1 0x20 ADD PUSH1 0x0 KECCAK256 DUP2 SWAP1 SSTORE POP PUSH2 0x16CC DUP4 PUSH2 0xFB7 JUMP JUMPDEST PUSH1 0xD PUSH1 0x0 DUP6 PUSH20 0xFFFFFFFFFFFFFFFFFFFFFFFFFFFFFFFFFFFFFFFF AND PUSH20 0xFFFFFFFFFFFFFFFFFFFFFFFFFFFFFFFFFFFFFFFF AND DUP2 MSTORE PUSH1 0x20 ADD SWAP1 DUP2 MSTORE PUSH1 0x20 ADD PUSH1 0x0 KECCAK256 PUSH1 0x0 PUSH1 0x3 DUP2 MSTORE PUSH1 0x20 ADD SWAP1 DUP2 MSTORE PUSH1 0x20 ADD PUSH1 0x0 KECCAK256 DUP2 SWAP1 SSTORE POP PUSH2 0x1785 DUP2 PUSH1 0xD PUSH1 0x0 DUP7 PUSH20 0xFFFFFFFFFFFFFFFFFFFFFFFFFFFFFFFFFFFFFFFF AND PUSH20 0xFFFFFFFFFFFFFFFFFFFFFFFFFFFFFFFFFFFFFFFF AND DUP2 MSTORE PUSH1 0x20 ADD SWAP1 DUP2 MSTORE PUSH1 0x20 ADD PUSH1 0x0 KECCAK256 PUSH1 0x0 PUSH1 0x2 DUP2 MSTORE PUSH1 0x20 ADD SWAP1 DUP2 MSTORE PUSH1 0x20 ADD PUSH1 0x0 KECCAK256 SLOAD PUSH2 0x1CFB SWAP1 SWAP2 SWAP1 PUSH4 0xFFFFFFFF AND JUMP JUMPDEST PUSH1 0xD PUSH1 0x0 DUP6 PUSH20 0xFFFFFFFFFFFFFFFFFFFFFFFFFFFFFFFFFFFFFFFF AND PUSH20 0xFFFFFFFFFFFFFFFFFFFFFFFFFFFFFFFFFFFFFFFF AND DUP2 MSTORE PUSH1 0x20 ADD SWAP1 DUP2 MSTORE PUSH1 0x20 ADD PUSH1 0x0 KECCAK256 PUSH1 0x0 PUSH1 0x2 DUP2 MSTORE PUSH1 0x20 ADD SWAP1 DUP2 MSTORE PUSH1 0x20 ADD PUSH1 0x0 KECCAK256 DUP2 SWAP1 SSTORE POP NUMBER PUSH1 0xD PUSH1 0x0 DUP6 PUSH20 0xFFFFFFFFFFFFFFFFFFFFFFFFFFFFFFFFFFFFFFFF AND PUSH20 0xFFFFFFFFFFFFFFFFFFFFFFFFFFFFFFFFFFFFFFFF AND DUP2 MSTORE PUSH1 0x20 ADD SWAP1 DUP2 MSTORE PUSH1 0x20 ADD PUSH1 0x0 KECCAK256 PUSH1 0x0 PUSH1 0x1 DUP2 MSTORE PUSH1 0x20 ADD SWAP1 DUP2 MSTORE PUSH1 0x20 ADD PUSH1 0x0 KECCAK256 DUP2 SWAP1 SSTORE POP PUSH1 0x0 PUSH2 0x183B DUP4 PUSH2 0x1D27 JUMP JUMPDEST SWAP1 POP DUP5 PUSH20 0xFFFFFFFFFFFFFFFFFFFFFFFFFFFFFFFFFFFFFFFF AND DUP2 PUSH1 0x0 ADD MLOAD PUSH20 0xFFFFFFFFFFFFFFFFFFFFFFFFFFFFFFFFFFFFFFFF AND EQ PUSH2 0x18A6 JUMPI PUSH1 0x40 MLOAD PUSH32 0xA114810000000000000000000000000000000000000000000000000000000000 DUP2 MSTORE PUSH1 0x4 ADD PUSH1 0x40 MLOAD DUP1 SWAP2 SUB SWAP1 REVERT JUMPDEST PUSH1 0x0 DUP6 PUSH20 0xFFFFFFFFFFFFFFFFFFFFFFFFFFFFFFFFFFFFFFFF AND PUSH2 0x18C7 PUSH2 0x148A JUMP JUMPDEST PUSH20 0xFFFFFFFFFFFFFFFFFFFFFFFFFFFFFFFFFFFFFFFF AND EQ DUP1 PUSH2 0x18F6 JUMPI POP PUSH2 0x18F5 DUP7 PUSH2 0x18F0 PUSH2 0x148A JUMP JUMPDEST PUSH2 0x129E JUMP JUMPDEST JUMPDEST DUP1 PUSH2 0x193B JUMPI POP PUSH2 0x1904 PUSH2 0x148A JUMP JUMPDEST PUSH20 0xFFFFFFFFFFFFFFFFFFFFFFFFFFFFFFFFFFFFFFFF AND PUSH2 0x1923 DUP6 PUSH2 0x789 JUMP JUMPDEST PUSH20 0xFFFFFFFFFFFFFFFFFFFFFFFFFFFFFFFFFFFFFFFF AND EQ JUMPDEST SWAP1 POP DUP1 PUSH2 0x1974 JUMPI PUSH1 0x40 MLOAD PUSH32 0x59C896BE00000000000000000000000000000000000000000000000000000000 DUP2 MSTORE PUSH1 0x4 ADD PUSH1 0x40 MLOAD DUP1 SWAP2 SUB SWAP1 REVERT JUMPDEST PUSH1 0x0 PUSH20 0xFFFFFFFFFFFFFFFFFFFFFFFFFFFFFFFFFFFFFFFF AND DUP6 PUSH20 0xFFFFFFFFFFFFFFFFFFFFFFFFFFFFFFFFFFFFFFFF AND SUB PUSH2 0x19DA JUMPI PUSH1 0x40 MLOAD PUSH32 0xEA553B3400000000000000000000000000000000000000000000000000000000 DUP2 MSTORE PUSH1 0x4 ADD PUSH1 0x40 MLOAD DUP1 SWAP2 SUB SWAP1 REVERT JUMPDEST PUSH2 0x19E7 DUP7 DUP7 DUP7 PUSH1 0x1 PUSH2 0x2231 JUMP JUMPDEST PUSH2 0x19F3 PUSH1 0x0 DUP6 DUP9 PUSH2 0x1492 JUMP JUMPDEST PUSH1 0x1 PUSH1 0xA PUSH1 0x0 DUP9 PUSH20 0xFFFFFFFFFFFFFFFFFFFFFFFFFFFFFFFFFFFFFFFF AND PUSH20 0xFFFFFFFFFFFFFFFFFFFFFFFFFFFFFFFFFFFFFFFF AND DUP2 MSTORE PUSH1 0x20 ADD SWAP1 DUP2 MSTORE PUSH1 0x20 ADD PUSH1 0x0 KECCAK256 PUSH1 0x0 ADD PUSH1 0x0 DUP3 DUP3 DUP3 SWAP1 SLOAD SWAP1 PUSH2 0x100 EXP SWAP1 DIV PUSH8 0xFFFFFFFFFFFFFFFF AND SUB SWAP3 POP PUSH2 0x100 EXP DUP2 SLOAD DUP2 PUSH8 0xFFFFFFFFFFFFFFFF MUL NOT AND SWAP1 DUP4 PUSH8 0xFFFFFFFFFFFFFFFF AND MUL OR SWAP1 SSTORE POP PUSH1 0x1 PUSH1 0xA PUSH1 0x0 DUP8 PUSH20 0xFFFFFFFFFFFFFFFFFFFFFFFFFFFFFFFFFFFFFFFF AND PUSH20 0xFFFFFFFFFFFFFFFFFFFFFFFFFFFFFFFFFFFFFFFF AND DUP2 MSTORE PUSH1 0x20 ADD SWAP1 DUP2 MSTORE PUSH1 0x20 ADD PUSH1 0x0 KECCAK256 PUSH1 0x0 ADD PUSH1 0x0 DUP3 DUP3 DUP3 SWAP1 SLOAD SWAP1 PUSH2 0x100 EXP SWAP1 DIV PUSH8 0xFFFFFFFFFFFFFFFF AND ADD SWAP3 POP PUSH2 0x100 EXP DUP2 SLOAD DUP2 PUSH8 0xFFFFFFFFFFFFFFFF MUL NOT AND SWAP1 DUP4 PUSH8 0xFFFFFFFFFFFFFFFF AND MUL OR SWAP1 SSTORE POP PUSH1 0x0 PUSH1 0x9 PUSH1 0x0 DUP7 DUP2 MSTORE PUSH1 0x20 ADD SWAP1 DUP2 MSTORE PUSH1 0x20 ADD PUSH1 0x0 KECCAK256 SWAP1 POP DUP6 DUP2 PUSH1 0x0 ADD PUSH1 0x0 PUSH2 0x100 EXP DUP2 SLOAD DUP2 PUSH20 0xFFFFFFFFFFFFFFFFFFFFFFFFFFFFFFFFFFFFFFFF MUL NOT AND SWAP1 DUP4 PUSH20 0xFFFFFFFFFFFFFFFFFFFFFFFFFFFFFFFFFFFFFFFF AND MUL OR SWAP1 SSTORE POP TIMESTAMP DUP2 PUSH1 0x0 ADD PUSH1 0x14 PUSH2 0x100 EXP DUP2 SLOAD DUP2 PUSH8 0xFFFFFFFFFFFFFFFF MUL NOT AND SWAP1 DUP4 PUSH8 0xFFFFFFFFFFFFFFFF AND MUL OR SWAP1 SSTORE POP PUSH1 0x0 PUSH1 0x1 DUP7 ADD SWAP1 POP PUSH1 0x0 PUSH1 0x9 PUSH1 0x0 DUP4 DUP2 MSTORE PUSH1 0x20 ADD SWAP1 DUP2 MSTORE PUSH1 0x20 ADD PUSH1 0x0 KECCAK256 SWAP1 POP PUSH1 0x0 PUSH20 0xFFFFFFFFFFFFFFFFFFFFFFFFFFFFFFFFFFFFFFFF AND DUP2 PUSH1 0x0 ADD PUSH1 0x0 SWAP1 SLOAD SWAP1 PUSH2 0x100 EXP SWAP1 DIV PUSH20 0xFFFFFFFFFFFFFFFFFFFFFFFFFFFFFFFFFFFFFFFF AND PUSH20 0xFFFFFFFFFFFFFFFFFFFFFFFFFFFFFFFFFFFFFFFF AND SUB PUSH2 0x1C72 JUMPI PUSH1 0x4 SLOAD DUP3 EQ PUSH2 0x1C71 JUMPI DUP9 DUP2 PUSH1 0x0 ADD PUSH1 0x0 PUSH2 0x100 EXP DUP2 SLOAD DUP2 PUSH20 0xFFFFFFFFFFFFFFFFFFFFFFFFFFFFFFFFFFFFFFFF MUL NOT AND SWAP1 DUP4 PUSH20 0xFFFFFFFFFFFFFFFFFFFFFFFFFFFFFFFFFFFFFFFF AND MUL OR SWAP1 SSTORE POP DUP5 PUSH1 0x20 ADD MLOAD DUP2 PUSH1 0x0 ADD PUSH1 0x14 PUSH2 0x100 EXP DUP2 SLOAD DUP2 PUSH8 0xFFFFFFFFFFFFFFFF MUL NOT AND SWAP1 DUP4 PUSH8 0xFFFFFFFFFFFFFFFF AND MUL OR SWAP1 SSTORE POP JUMPDEST JUMPDEST POP POP POP DUP4 DUP6 PUSH20 0xFFFFFFFFFFFFFFFFFFFFFFFFFFFFFFFFFFFFFFFF AND DUP8 PUSH20 0xFFFFFFFFFFFFFFFFFFFFFFFFFFFFFFFFFFFFFFFF AND PUSH32 0xDDF252AD1BE2C89B69C2B068FC378DAA952BA7F163C4A11628F55A4DF523B3EF PUSH1 0x40 MLOAD PUSH1 0x40 MLOAD DUP1 SWAP2 SUB SWAP1 LOG4 PUSH2 0x1CDD DUP7 DUP7 DUP7 PUSH1 0x1 PUSH2 0x2237 JUMP JUMPDEST POP POP POP POP POP POP JUMP JUMPDEST PUSH1 0x0 DUP2 DUP4 PUSH2 0x1CF3 SWAP2 SWAP1 PUSH2 0x3321 JUMP JUMPDEST SWAP1 POP SWAP3 SWAP2 POP POP JUMP JUMPDEST PUSH1 0x0 DUP2 DUP4 PUSH2 0x1D09 SWAP2 SWAP1 PUSH2 0x3355 JUMP JUMPDEST SWAP1 POP SWAP3 SWAP2 POP POP JUMP JUMPDEST PUSH1 0x0 DUP2 DUP4 PUSH2 0x1D1F SWAP2 SWAP1 PUSH2 0x3389 JUMP JUMPDEST SWAP1 POP SWAP3 SWAP2 POP POP JUMP JUMPDEST PUSH2 0x1D2F PUSH2 0x2993 JUMP JUMPDEST PUSH1 0x0 DUP3 SWAP1 POP DUP1 PUSH2 0x1D3D PUSH2 0x1544 JUMP JUMPDEST GT PUSH2 0x1F7B JUMPI PUSH1 0x4 SLOAD DUP2 LT ISZERO PUSH2 0x1F7A JUMPI PUSH1 0x0 PUSH1 0x9 PUSH1 0x0 DUP4 DUP2 MSTORE PUSH1 0x20 ADD SWAP1 DUP2 MSTORE PUSH1 0x20 ADD PUSH1 0x0 KECCAK256 PUSH1 0x40 MLOAD DUP1 PUSH1 0x60 ADD PUSH1 0x40 MSTORE SWAP1 DUP2 PUSH1 0x0 DUP3 ADD PUSH1 0x0 SWAP1 SLOAD SWAP1 PUSH2 0x100 EXP SWAP1 DIV PUSH20 0xFFFFFFFFFFFFFFFFFFFFFFFFFFFFFFFFFFFFFFFF AND PUSH20 0xFFFFFFFFFFFFFFFFFFFFFFFFFFFFFFFFFFFFFFFF AND PUSH20 0xFFFFFFFFFFFFFFFFFFFFFFFFFFFFFFFFFFFFFFFF AND DUP2 MSTORE PUSH1 0x20 ADD PUSH1 0x0 DUP3 ADD PUSH1 0x14 SWAP1 SLOAD SWAP1 PUSH2 0x100 EXP SWAP1 DIV PUSH8 0xFFFFFFFFFFFFFFFF AND PUSH8 0xFFFFFFFFFFFFFFFF AND PUSH8 0xFFFFFFFFFFFFFFFF AND DUP2 MSTORE PUSH1 0x20 ADD PUSH1 0x0 DUP3 ADD PUSH1 0x1C SWAP1 SLOAD SWAP1 PUSH2 0x100 EXP SWAP1 DIV PUSH1 0xFF AND ISZERO ISZERO ISZERO ISZERO DUP2 MSTORE POP POP SWAP1 POP DUP1 PUSH1 0x40 ADD MLOAD PUSH2 0x1F78 JUMPI PUSH1 0x0 PUSH20 0xFFFFFFFFFFFFFFFFFFFFFFFFFFFFFFFFFFFFFFFF AND DUP2 PUSH1 0x0 ADD MLOAD PUSH20 0xFFFFFFFFFFFFFFFFFFFFFFFFFFFFFFFFFFFFFFFF AND EQ PUSH2 0x1E5C JUMPI DUP1 SWAP3 POP POP POP PUSH2 0x1FAD JUMP JUMPDEST JUMPDEST PUSH1 0x1 ISZERO PUSH2 0x1F77 JUMPI DUP2 DUP1 PUSH1 0x1 SWAP1 SUB SWAP3 POP POP PUSH1 0x9 PUSH1 0x0 DUP4 DUP2 MSTORE PUSH1 0x20 ADD SWAP1 DUP2 MSTORE PUSH1 0x20 ADD PUSH1 0x0 KECCAK256 PUSH1 0x40 MLOAD DUP1 PUSH1 0x60 ADD PUSH1 0x40 MSTORE SWAP1 DUP2 PUSH1 0x0 DUP3 ADD PUSH1 0x0 SWAP1 SLOAD SWAP1 PUSH2 0x100 EXP SWAP1 DIV PUSH20 0xFFFFFFFFFFFFFFFFFFFFFFFFFFFFFFFFFFFFFFFF AND PUSH20 0xFFFFFFFFFFFFFFFFFFFFFFFFFFFFFFFFFFFFFFFF AND PUSH20 0xFFFFFFFFFFFFFFFFFFFFFFFFFFFFFFFFFFFFFFFF AND DUP2 MSTORE PUSH1 0x20 ADD PUSH1 0x0 DUP3 ADD PUSH1 0x14 SWAP1 SLOAD SWAP1 PUSH2 0x100 EXP SWAP1 DIV PUSH8 0xFFFFFFFFFFFFFFFF AND PUSH8 0xFFFFFFFFFFFFFFFF AND PUSH8 0xFFFFFFFFFFFFFFFF AND DUP2 MSTORE PUSH1 0x20 ADD PUSH1 0x0 DUP3 ADD PUSH1 0x1C SWAP1 SLOAD SWAP1 PUSH2 0x100 EXP SWAP1 DIV PUSH1 0xFF AND ISZERO ISZERO ISZERO ISZERO DUP2 MSTORE POP POP SWAP1 POP PUSH1 0x0 PUSH20 0xFFFFFFFFFFFFFFFFFFFFFFFFFFFFFFFFFFFFFFFF AND DUP2 PUSH1 0x0 ADD MLOAD PUSH20 0xFFFFFFFFFFFFFFFFFFFFFFFFFFFFFFFFFFFFFFFF AND EQ PUSH2 0x1F72 JUMPI DUP1 SWAP3 POP POP POP PUSH2 0x1FAD JUMP JUMPDEST PUSH2 0x1E5D JUMP JUMPDEST JUMPDEST POP JUMPDEST JUMPDEST PUSH1 0x40 MLOAD PUSH32 0xDF2D9B4200000000000000000000000000000000000000000000000000000000 DUP2 MSTORE PUSH1 0x4 ADD PUSH1 0x40 MLOAD DUP1 SWAP2 SUB SWAP1 REVERT JUMPDEST SWAP2 SWAP1 POP JUMP JUMPDEST PUSH2 0x1FCC DUP3 DUP3 PUSH1 0x40 MLOAD DUP1 PUSH1 0x20 ADD PUSH1 0x40 MSTORE DUP1 PUSH1 0x0 DUP2 MSTORE POP PUSH2 0x223D JUMP JUMPDEST POP POP JUMP JUMPDEST PUSH1 0x0 DUP1 DUP3 PUSH20 0xFFFFFFFFFFFFFFFFFFFFFFFFFFFFFFFFFFFFFFFF AND EXTCODESIZE GT SWAP1 POP SWAP2 SWAP1 POP JUMP JUMPDEST PUSH1 0x0 DUP4 PUSH20 0xFFFFFFFFFFFFFFFFFFFFFFFFFFFFFFFFFFFFFFFF AND PUSH4 0x150B7A02 PUSH2 0x2019 PUSH2 0x148A JUMP JUMPDEST DUP8 DUP7 DUP7 PUSH1 0x40 MLOAD DUP6 PUSH4 0xFFFFFFFF AND PUSH1 0xE0 SHL DUP2 MSTORE PUSH1 0x4 ADD PUSH2 0x203B SWAP5 SWAP4 SWAP3 SWAP2 SWAP1 PUSH2 0x340F JUMP JUMPDEST PUSH1 0x20 PUSH1 0x40 MLOAD DUP1 DUP4 SUB DUP2 PUSH1 0x0 DUP8 GAS CALL SWAP3 POP POP POP DUP1 ISZERO PUSH2 0x2077 JUMPI POP PUSH1 0x40 MLOAD RETURNDATASIZE PUSH1 0x1F NOT PUSH1 0x1F DUP3 ADD AND DUP3 ADD DUP1 PUSH1 0x40 MSTORE POP DUP2 ADD SWAP1 PUSH2 0x2074 SWAP2 SWAP1 PUSH2 0x3470 JUMP JUMPDEST PUSH1 0x1 JUMPDEST PUSH2 0x20F0 JUMPI RETURNDATASIZE DUP1 PUSH1 0x0 DUP2 EQ PUSH2 0x20A7 JUMPI PUSH1 0x40 MLOAD SWAP2 POP PUSH1 0x1F NOT PUSH1 0x3F RETURNDATASIZE ADD AND DUP3 ADD PUSH1 0x40 MSTORE RETURNDATASIZE DUP3 MSTORE RETURNDATASIZE PUSH1 0x0 PUSH1 0x20 DUP5 ADD RETURNDATACOPY PUSH2 0x20AC JUMP JUMPDEST PUSH1 0x60 SWAP2 POP JUMPDEST POP PUSH1 0x0 DUP2 MLOAD SUB PUSH2 0x20E8 JUMPI PUSH1 0x40 MLOAD PUSH32 0xD1A57ED600000000000000000000000000000000000000000000000000000000 DUP2 MSTORE PUSH1 0x4 ADD PUSH1 0x40 MLOAD DUP1 SWAP2 SUB SWAP1 REVERT JUMPDEST DUP1 MLOAD DUP2 PUSH1 0x20 ADD REVERT JUMPDEST PUSH4 0x150B7A02 PUSH1 0xE0 SHL PUSH28 0xFFFFFFFFFFFFFFFFFFFFFFFFFFFFFFFFFFFFFFFFFFFFFFFFFFFFFFFF NOT AND DUP2 PUSH28 0xFFFFFFFFFFFFFFFFFFFFFFFFFFFFFFFFFFFFFFFFFFFFFFFFFFFFFFFF NOT AND EQ SWAP2 POP POP SWAP5 SWAP4 POP POP POP POP JUMP JUMPDEST PUSH1 0x60 PUSH1 0x40 MLOAD DUP1 PUSH1 0x80 ADD PUSH1 0x40 MSTORE DUP1 PUSH1 0x51 DUP2 MSTORE PUSH1 0x20 ADD PUSH2 0x349E PUSH1 0x51 SWAP2 CODECOPY SWAP1 POP SWAP1 JUMP JUMPDEST PUSH1 0x60 PUSH1 0x0 PUSH1 0x1 PUSH2 0x2172 DUP5 PUSH2 0x2840 JUMP JUMPDEST ADD SWAP1 POP PUSH1 0x0 DUP2 PUSH8 0xFFFFFFFFFFFFFFFF DUP2 GT ISZERO PUSH2 0x2191 JUMPI PUSH2 0x2190 PUSH2 0x2DF5 JUMP JUMPDEST JUMPDEST PUSH1 0x40 MLOAD SWAP1 DUP1 DUP3 MSTORE DUP1 PUSH1 0x1F ADD PUSH1 0x1F NOT AND PUSH1 0x20 ADD DUP3 ADD PUSH1 0x40 MSTORE DUP1 ISZERO PUSH2 0x21C3 JUMPI DUP2 PUSH1 0x20 ADD PUSH1 0x1 DUP3 MUL DUP1 CALLDATASIZE DUP4 CALLDATACOPY DUP1 DUP3 ADD SWAP2 POP POP SWAP1 POP JUMPDEST POP SWAP1 POP PUSH1 0x0 DUP3 PUSH1 0x20 ADD DUP3 ADD SWAP1 POP JUMPDEST PUSH1 0x1 ISZERO PUSH2 0x2226 JUMPI DUP1 DUP1 PUSH1 0x1 SWAP1 SUB SWAP2 POP POP PUSH32 0x3031323334353637383961626364656600000000000000000000000000000000 PUSH1 0xA DUP7 MOD BYTE DUP2 MSTORE8 PUSH1 0xA DUP6 DUP2 PUSH2 0x221A JUMPI PUSH2 0x2219 PUSH2 0x3250 JUMP JUMPDEST JUMPDEST DIV SWAP5 POP PUSH1 0x0 DUP6 SUB PUSH2 0x21D1 JUMPI JUMPDEST DUP2 SWAP4 POP POP POP POP SWAP2 SWAP1 POP JUMP JUMPDEST POP POP POP POP JUMP JUMPDEST POP POP POP POP JUMP JUMPDEST PUSH1 0x0 PUSH1 0x4 SLOAD SWAP1 POP PUSH2 0x224D CALLER PUSH2 0xFB7 JUMP JUMPDEST PUSH1 0xD PUSH1 0x0 CALLER PUSH20 0xFFFFFFFFFFFFFFFFFFFFFFFFFFFFFFFFFFFFFFFF AND PUSH20 0xFFFFFFFFFFFFFFFFFFFFFFFFFFFFFFFFFFFFFFFF AND DUP2 MSTORE PUSH1 0x20 ADD SWAP1 DUP2 MSTORE PUSH1 0x20 ADD PUSH1 0x0 KECCAK256 PUSH1 0x0 PUSH1 0x3 DUP2 MSTORE PUSH1 0x20 ADD SWAP1 DUP2 MSTORE PUSH1 0x20 ADD PUSH1 0x0 KECCAK256 DUP2 SWAP1 SSTORE POP PUSH1 0x0 PUSH20 0xFFFFFFFFFFFFFFFFFFFFFFFFFFFFFFFFFFFFFFFF AND DUP5 PUSH20 0xFFFFFFFFFFFFFFFFFFFFFFFFFFFFFFFFFFFFFFFF AND SUB PUSH2 0x2308 JUMPI PUSH1 0x40 MLOAD PUSH32 0x2E07630000000000000000000000000000000000000000000000000000000000 DUP2 MSTORE PUSH1 0x4 ADD PUSH1 0x40 MLOAD DUP1 SWAP2 SUB SWAP1 REVERT JUMPDEST PUSH1 0x0 DUP4 SUB PUSH2 0x2342 JUMPI PUSH1 0x40 MLOAD PUSH32 0xB562E8DD00000000000000000000000000000000000000000000000000000000 DUP2 MSTORE PUSH1 0x4 ADD PUSH1 0x40 MLOAD DUP1 SWAP2 SUB SWAP1 REVERT JUMPDEST PUSH2 0x234F PUSH1 0x0 DUP6 DUP4 DUP7 PUSH2 0x2231 JUMP JUMPDEST DUP3 PUSH1 0xA PUSH1 0x0 DUP7 PUSH20 0xFFFFFFFFFFFFFFFFFFFFFFFFFFFFFFFFFFFFFFFF AND PUSH20 0xFFFFFFFFFFFFFFFFFFFFFFFFFFFFFFFFFFFFFFFF AND DUP2 MSTORE PUSH1 0x20 ADD SWAP1 DUP2 MSTORE PUSH1 0x20 ADD PUSH1 0x0 KECCAK256 PUSH1 0x0 ADD PUSH1 0x0 DUP3 DUP3 DUP3 SWAP1 SLOAD SWAP1 PUSH2 0x100 EXP SWAP1 DIV PUSH8 0xFFFFFFFFFFFFFFFF AND ADD SWAP3 POP PUSH2 0x100 EXP DUP2 SLOAD DUP2 PUSH8 0xFFFFFFFFFFFFFFFF MUL NOT AND SWAP1 DUP4 PUSH8 0xFFFFFFFFFFFFFFFF AND MUL OR SWAP1 SSTORE POP DUP3 PUSH1 0xA PUSH1 0x0 DUP7 PUSH20 0xFFFFFFFFFFFFFFFFFFFFFFFFFFFFFFFFFFFFFFFF AND PUSH20 0xFFFFFFFFFFFFFFFFFFFFFFFFFFFFFFFFFFFFFFFF AND DUP2 MSTORE PUSH1 0x20 ADD SWAP1 DUP2 MSTORE PUSH1 0x20 ADD PUSH1 0x0 KECCAK256 PUSH1 0x0 ADD PUSH1 0x8 DUP3 DUP3 DUP3 SWAP1 SLOAD SWAP1 PUSH2 0x100 EXP SWAP1 DIV PUSH8 0xFFFFFFFFFFFFFFFF AND ADD SWAP3 POP PUSH2 0x100 EXP DUP2 SLOAD DUP2 PUSH8 0xFFFFFFFFFFFFFFFF MUL NOT AND SWAP1 DUP4 PUSH8 0xFFFFFFFFFFFFFFFF AND MUL OR SWAP1 SSTORE POP DUP4 PUSH1 0x9 PUSH1 0x0 DUP4 DUP2 MSTORE PUSH1 0x20 ADD SWAP1 DUP2 MSTORE PUSH1 0x20 ADD PUSH1 0x0 KECCAK256 PUSH1 0x0 ADD PUSH1 0x0 PUSH2 0x100 EXP DUP2 SLOAD DUP2 PUSH20 0xFFFFFFFFFFFFFFFFFFFFFFFFFFFFFFFFFFFFFFFF MUL NOT AND SWAP1 DUP4 PUSH20 0xFFFFFFFFFFFFFFFFFFFFFFFFFFFFFFFFFFFFFFFF AND MUL OR SWAP1 SSTORE POP TIMESTAMP PUSH1 0x9 PUSH1 0x0 DUP4 DUP2 MSTORE PUSH1 0x20 ADD SWAP1 DUP2 MSTORE PUSH1 0x20 ADD PUSH1 0x0 KECCAK256 PUSH1 0x0 ADD PUSH1 0x14 PUSH2 0x100 EXP DUP2 SLOAD DUP2 PUSH8 0xFFFFFFFFFFFFFFFF MUL NOT AND SWAP1 DUP4 PUSH8 0xFFFFFFFFFFFFFFFF AND MUL OR SWAP1 SSTORE POP PUSH1 0x0 DUP2 SWAP1 POP PUSH1 0x0 DUP5 DUP3 ADD SWAP1 POP PUSH2 0x2510 DUP7 PUSH20 0xFFFFFFFFFFFFFFFFFFFFFFFFFFFFFFFFFFFFFFFF AND PUSH2 0x1FD0 JUMP JUMPDEST ISZERO PUSH2 0x269C JUMPI JUMPDEST DUP2 DUP7 PUSH20 0xFFFFFFFFFFFFFFFFFFFFFFFFFFFFFFFFFFFFFFFF AND PUSH1 0x0 PUSH20 0xFFFFFFFFFFFFFFFFFFFFFFFFFFFFFFFFFFFFFFFF AND PUSH32 0xDDF252AD1BE2C89B69C2B068FC378DAA952BA7F163C4A11628F55A4DF523B3EF PUSH1 0x40 MLOAD PUSH1 0x40 MLOAD DUP1 SWAP2 SUB SWAP1 LOG4 PUSH1 0x0 PUSH2 0x257D DUP4 PUSH2 0x1229 JUMP JUMPDEST SWAP1 POP PUSH2 0x25E3 DUP2 PUSH1 0xD PUSH1 0x0 CALLER PUSH20 0xFFFFFFFFFFFFFFFFFFFFFFFFFFFFFFFFFFFFFFFF AND PUSH20 0xFFFFFFFFFFFFFFFFFFFFFFFFFFFFFFFFFFFFFFFF AND DUP2 MSTORE PUSH1 0x20 ADD SWAP1 DUP2 MSTORE PUSH1 0x20 ADD PUSH1 0x0 KECCAK256 PUSH1 0x0 PUSH1 0x2 DUP2 MSTORE PUSH1 0x20 ADD SWAP1 DUP2 MSTORE PUSH1 0x20 ADD PUSH1 0x0 KECCAK256 SLOAD PUSH2 0x1CFB SWAP1 SWAP2 SWAP1 PUSH4 0xFFFFFFFF AND JUMP JUMPDEST PUSH1 0xD PUSH1 0x0 CALLER PUSH20 0xFFFFFFFFFFFFFFFFFFFFFFFFFFFFFFFFFFFFFFFF AND PUSH20 0xFFFFFFFFFFFFFFFFFFFFFFFFFFFFFFFFFFFFFFFF AND DUP2 MSTORE PUSH1 0x20 ADD SWAP1 DUP2 MSTORE PUSH1 0x20 ADD PUSH1 0x0 KECCAK256 PUSH1 0x0 PUSH1 0x2 DUP2 MSTORE PUSH1 0x20 ADD SWAP1 DUP2 MSTORE PUSH1 0x20 ADD PUSH1 0x0 KECCAK256 DUP2 SWAP1 SSTORE POP PUSH2 0x264B PUSH1 0x0 DUP9 DUP6 DUP1 PUSH1 0x1 ADD SWAP7 POP DUP9 PUSH2 0x1FF3 JUMP JUMPDEST PUSH2 0x2681 JUMPI PUSH1 0x40 MLOAD PUSH32 0xD1A57ED600000000000000000000000000000000000000000000000000000000 DUP2 MSTORE PUSH1 0x4 ADD PUSH1 0x40 MLOAD DUP1 SWAP2 SUB SWAP1 REVERT JUMPDEST POP DUP1 DUP3 LT PUSH2 0x2516 JUMPI DUP3 PUSH1 0x4 SLOAD EQ PUSH2 0x2697 JUMPI PUSH1 0x0 DUP1 REVERT JUMPDEST PUSH2 0x27CE JUMP JUMPDEST JUMPDEST PUSH1 0x0 PUSH2 0x26A8 DUP4 PUSH2 0x1229 JUMP JUMPDEST SWAP1 POP PUSH2 0x270E DUP2 PUSH1 0xD PUSH1 0x0 CALLER PUSH20 0xFFFFFFFFFFFFFFFFFFFFFFFFFFFFFFFFFFFFFFFF AND PUSH20 0xFFFFFFFFFFFFFFFFFFFFFFFFFFFFFFFFFFFFFFFF AND DUP2 MSTORE PUSH1 0x20 ADD SWAP1 DUP2 MSTORE PUSH1 0x20 ADD PUSH1 0x0 KECCAK256 PUSH1 0x0 PUSH1 0x2 DUP2 MSTORE PUSH1 0x20 ADD SWAP1 DUP2 MSTORE PUSH1 0x20 ADD PUSH1 0x0 KECCAK256 SLOAD PUSH2 0x1CFB SWAP1 SWAP2 SWAP1 PUSH4 0xFFFFFFFF AND JUMP JUMPDEST PUSH1 0xD PUSH1 0x0 CALLER PUSH20 0xFFFFFFFFFFFFFFFFFFFFFFFFFFFFFFFFFFFFFFFF AND PUSH20 0xFFFFFFFFFFFFFFFFFFFFFFFFFFFFFFFFFFFFFFFF AND DUP2 MSTORE PUSH1 0x20 ADD SWAP1 DUP2 MSTORE PUSH1 0x20 ADD PUSH1 0x0 KECCAK256 PUSH1 0x0 PUSH1 0x2 DUP2 MSTORE PUSH1 0x20 ADD SWAP1 DUP2 MSTORE PUSH1 0x20 ADD PUSH1 0x0 KECCAK256 DUP2 SWAP1 SSTORE POP DUP3 DUP1 PUSH1 0x1 ADD SWAP4 POP DUP8 PUSH20 0xFFFFFFFFFFFFFFFFFFFFFFFFFFFFFFFFFFFFFFFF AND PUSH1 0x0 PUSH20 0xFFFFFFFFFFFFFFFFFFFFFFFFFFFFFFFFFFFFFFFF AND PUSH32 0xDDF252AD1BE2C89B69C2B068FC378DAA952BA7F163C4A11628F55A4DF523B3EF PUSH1 0x40 MLOAD PUSH1 0x40 MLOAD DUP1 SWAP2 SUB SWAP1 LOG4 POP DUP1 DUP3 LT PUSH2 0x269D JUMPI JUMPDEST DUP2 PUSH1 0x4 DUP2 SWAP1 SSTORE POP POP POP PUSH2 0x27E4 PUSH1 0x0 DUP6 DUP4 DUP7 PUSH2 0x2237 JUMP JUMPDEST NUMBER PUSH1 0xD PUSH1 0x0 CALLER PUSH20 0xFFFFFFFFFFFFFFFFFFFFFFFFFFFFFFFFFFFFFFFF AND PUSH20 0xFFFFFFFFFFFFFFFFFFFFFFFFFFFFFFFFFFFFFFFF AND DUP2 MSTORE PUSH1 0x20 ADD SWAP1 DUP2 MSTORE PUSH1 0x20 ADD PUSH1 0x0 KECCAK256 PUSH1 0x0 PUSH1 0x1 DUP2 MSTORE PUSH1 0x20 ADD SWAP1 DUP2 MSTORE PUSH1 0x20 ADD PUSH1 0x0 KECCAK256 DUP2 SWAP1 SSTORE POP POP POP POP POP JUMP JUMPDEST PUSH1 0x0 DUP1 PUSH1 0x0 SWAP1 POP PUSH27 0x184F03E93FF9F4DAA797ED6E38ED64BF6A1F010000000000000000 DUP4 LT PUSH2 0x289E JUMPI PUSH27 0x184F03E93FF9F4DAA797ED6E38ED64BF6A1F010000000000000000 DUP4 DUP2 PUSH2 0x2894 JUMPI PUSH2 0x2893 PUSH2 0x3250 JUMP JUMPDEST JUMPDEST DIV SWAP3 POP PUSH1 0x40 DUP2 ADD SWAP1 POP JUMPDEST PUSH14 0x4EE2D6D415B85ACEF8100000000 DUP4 LT PUSH2 0x28DB JUMPI PUSH14 0x4EE2D6D415B85ACEF8100000000 DUP4 DUP2 PUSH2 0x28D1 JUMPI PUSH2 0x28D0 PUSH2 0x3250 JUMP JUMPDEST JUMPDEST DIV SWAP3 POP PUSH1 0x20 DUP2 ADD SWAP1 POP JUMPDEST PUSH7 0x2386F26FC10000 DUP4 LT PUSH2 0x290A JUMPI PUSH7 0x2386F26FC10000 DUP4 DUP2 PUSH2 0x2900 JUMPI PUSH2 0x28FF PUSH2 0x3250 JUMP JUMPDEST JUMPDEST DIV SWAP3 POP PUSH1 0x10 DUP2 ADD SWAP1 POP JUMPDEST PUSH4 0x5F5E100 DUP4 LT PUSH2 0x2933 JUMPI PUSH4 0x5F5E100 DUP4 DUP2 PUSH2 0x2929 JUMPI PUSH2 0x2928 PUSH2 0x3250 JUMP JUMPDEST JUMPDEST DIV SWAP3 POP PUSH1 0x8 DUP2 ADD SWAP1 POP JUMPDEST PUSH2 0x2710 DUP4 LT PUSH2 0x2958 JUMPI PUSH2 0x2710 DUP4 DUP2 PUSH2 0x294E JUMPI PUSH2 0x294D PUSH2 0x3250 JUMP JUMPDEST JUMPDEST DIV SWAP3 POP PUSH1 0x4 DUP2 ADD SWAP1 POP JUMPDEST PUSH1 0x64 DUP4 LT PUSH2 0x297B JUMPI PUSH1 0x64 DUP4 DUP2 PUSH2 0x2971 JUMPI PUSH2 0x2970 PUSH2 0x3250 JUMP JUMPDEST JUMPDEST DIV SWAP3 POP PUSH1 0x2 DUP2 ADD SWAP1 POP JUMPDEST PUSH1 0xA DUP4 LT PUSH2 0x298A JUMPI PUSH1 0x1 DUP2 ADD SWAP1 POP JUMPDEST DUP1 SWAP2 POP POP SWAP2 SWAP1 POP JUMP JUMPDEST PUSH1 0x40 MLOAD DUP1 PUSH1 0x60 ADD PUSH1 0x40 MSTORE DUP1 PUSH1 0x0 PUSH20 0xFFFFFFFFFFFFFFFFFFFFFFFFFFFFFFFFFFFFFFFF AND DUP2 MSTORE PUSH1 0x20 ADD PUSH1 0x0 PUSH8 0xFFFFFFFFFFFFFFFF AND DUP2 MSTORE PUSH1 0x20 ADD PUSH1 0x0 ISZERO ISZERO DUP2 MSTORE POP SWAP1 JUMP JUMPDEST PUSH1 0x0 PUSH1 0x40 MLOAD SWAP1 POP SWAP1 JUMP JUMPDEST PUSH1 0x0 DUP1 REVERT JUMPDEST PUSH1 0x0 DUP1 REVERT JUMPDEST PUSH1 0x0 PUSH32 0xFFFFFFFF00000000000000000000000000000000000000000000000000000000 DUP3 AND SWAP1 POP SWAP2 SWAP1 POP JUMP JUMPDEST PUSH2 0x2A1F DUP2 PUSH2 0x29EA JUMP JUMPDEST DUP2 EQ PUSH2 0x2A2A JUMPI PUSH1 0x0 DUP1 REVERT JUMPDEST POP JUMP JUMPDEST PUSH1 0x0 DUP2 CALLDATALOAD SWAP1 POP PUSH2 0x2A3C DUP2 PUSH2 0x2A16 JUMP JUMPDEST SWAP3 SWAP2 POP POP JUMP JUMPDEST PUSH1 0x0 PUSH1 0x20 DUP3 DUP5 SUB SLT ISZERO PUSH2 0x2A58 JUMPI PUSH2 0x2A57 PUSH2 0x29E0 JUMP JUMPDEST JUMPDEST PUSH1 0x0 PUSH2 0x2A66 DUP5 DUP3 DUP6 ADD PUSH2 0x2A2D JUMP JUMPDEST SWAP2 POP POP SWAP3 SWAP2 POP POP JUMP JUMPDEST PUSH1 0x0 DUP2 ISZERO ISZERO SWAP1 POP SWAP2 SWAP1 POP JUMP JUMPDEST PUSH2 0x2A84 DUP2 PUSH2 0x2A6F JUMP JUMPDEST DUP3 MSTORE POP POP JUMP JUMPDEST PUSH1 0x0 PUSH1 0x20 DUP3 ADD SWAP1 POP PUSH2 0x2A9F PUSH1 0x0 DUP4 ADD DUP5 PUSH2 0x2A7B JUMP JUMPDEST SWAP3 SWAP2 POP POP JUMP JUMPDEST PUSH1 0x0 DUP2 MLOAD SWAP1 POP SWAP2 SWAP1 POP JUMP JUMPDEST PUSH1 0x0 DUP3 DUP3 MSTORE PUSH1 0x20 DUP3 ADD SWAP1 POP SWAP3 SWAP2 POP POP JUMP JUMPDEST PUSH1 0x0 JUMPDEST DUP4 DUP2 LT ISZERO PUSH2 0x2ADF JUMPI DUP1 DUP3 ADD MLOAD DUP2 DUP5 ADD MSTORE PUSH1 0x20 DUP2 ADD SWAP1 POP PUSH2 0x2AC4 JUMP JUMPDEST PUSH1 0x0 DUP5 DUP5 ADD MSTORE POP POP POP POP JUMP JUMPDEST PUSH1 0x0 PUSH1 0x1F NOT PUSH1 0x1F DUP4 ADD AND SWAP1 POP SWAP2 SWAP1 POP JUMP JUMPDEST PUSH1 0x0 PUSH2 0x2B07 DUP3 PUSH2 0x2AA5 JUMP JUMPDEST PUSH2 0x2B11 DUP2 DUP6 PUSH2 0x2AB0 JUMP JUMPDEST SWAP4 POP PUSH2 0x2B21 DUP2 DUP6 PUSH1 0x20 DUP7 ADD PUSH2 0x2AC1 JUMP JUMPDEST PUSH2 0x2B2A DUP2 PUSH2 0x2AEB JUMP JUMPDEST DUP5 ADD SWAP2 POP POP SWAP3 SWAP2 POP POP JUMP JUMPDEST PUSH1 0x0 PUSH1 0x20 DUP3 ADD SWAP1 POP DUP2 DUP2 SUB PUSH1 0x0 DUP4 ADD MSTORE PUSH2 0x2B4F DUP2 DUP5 PUSH2 0x2AFC JUMP JUMPDEST SWAP1 POP SWAP3 SWAP2 POP POP JUMP JUMPDEST PUSH1 0x0 DUP2 SWAP1 POP SWAP2 SWAP1 POP JUMP JUMPDEST PUSH2 0x2B6A DUP2 PUSH2 0x2B57 JUMP JUMPDEST DUP2 EQ PUSH2 0x2B75 JUMPI PUSH1 0x0 DUP1 REVERT JUMPDEST POP JUMP JUMPDEST PUSH1 0x0 DUP2 CALLDATALOAD SWAP1 POP PUSH2 0x2B87 DUP2 PUSH2 0x2B61 JUMP JUMPDEST SWAP3 SWAP2 POP POP JUMP JUMPDEST PUSH1 0x0 PUSH1 0x20 DUP3 DUP5 SUB SLT ISZERO PUSH2 0x2BA3 JUMPI PUSH2 0x2BA2 PUSH2 0x29E0 JUMP JUMPDEST JUMPDEST PUSH1 0x0 PUSH2 0x2BB1 DUP5 DUP3 DUP6 ADD PUSH2 0x2B78 JUMP JUMPDEST SWAP2 POP POP SWAP3 SWAP2 POP POP JUMP JUMPDEST PUSH1 0x0 PUSH20 0xFFFFFFFFFFFFFFFFFFFFFFFFFFFFFFFFFFFFFFFF DUP3 AND SWAP1 POP SWAP2 SWAP1 POP JUMP JUMPDEST PUSH1 0x0 PUSH2 0x2BE5 DUP3 PUSH2 0x2BBA JUMP JUMPDEST SWAP1 POP SWAP2 SWAP1 POP JUMP JUMPDEST PUSH2 0x2BF5 DUP2 PUSH2 0x2BDA JUMP JUMPDEST DUP3 MSTORE POP POP JUMP JUMPDEST PUSH1 0x0 PUSH1 0x20 DUP3 ADD SWAP1 POP PUSH2 0x2C10 PUSH1 0x0 DUP4 ADD DUP5 PUSH2 0x2BEC JUMP JUMPDEST SWAP3 SWAP2 POP POP JUMP JUMPDEST PUSH2 0x2C1F DUP2 PUSH2 0x2BDA JUMP JUMPDEST DUP2 EQ PUSH2 0x2C2A JUMPI PUSH1 0x0 DUP1 REVERT JUMPDEST POP JUMP JUMPDEST PUSH1 0x0 DUP2 CALLDATALOAD SWAP1 POP PUSH2 0x2C3C DUP2 PUSH2 0x2C16 JUMP JUMPDEST SWAP3 SWAP2 POP POP JUMP JUMPDEST PUSH1 0x0 DUP1 PUSH1 0x40 DUP4 DUP6 SUB SLT ISZERO PUSH2 0x2C59 JUMPI PUSH2 0x2C58 PUSH2 0x29E0 JUMP JUMPDEST JUMPDEST PUSH1 0x0 PUSH2 0x2C67 DUP6 DUP3 DUP7 ADD PUSH2 0x2C2D JUMP JUMPDEST SWAP3 POP POP PUSH1 0x20 PUSH2 0x2C78 DUP6 DUP3 DUP7 ADD PUSH2 0x2B78 JUMP JUMPDEST SWAP2 POP POP SWAP3 POP SWAP3 SWAP1 POP JUMP JUMPDEST PUSH2 0x2C8B DUP2 PUSH2 0x2B57 JUMP JUMPDEST DUP3 MSTORE POP POP JUMP JUMPDEST PUSH1 0x0 PUSH1 0x20 DUP3 ADD SWAP1 POP PUSH2 0x2CA6 PUSH1 0x0 DUP4 ADD DUP5 PUSH2 0x2C82 JUMP JUMPDEST SWAP3 SWAP2 POP POP JUMP JUMPDEST PUSH1 0x0 DUP1 PUSH1 0x0 PUSH1 0x60 DUP5 DUP7 SUB SLT ISZERO PUSH2 0x2CC5 JUMPI PUSH2 0x2CC4 PUSH2 0x29E0 JUMP JUMPDEST JUMPDEST PUSH1 0x0 PUSH2 0x2CD3 DUP7 DUP3 DUP8 ADD PUSH2 0x2C2D JUMP JUMPDEST SWAP4 POP POP PUSH1 0x20 PUSH2 0x2CE4 DUP7 DUP3 DUP8 ADD PUSH2 0x2C2D JUMP JUMPDEST SWAP3 POP POP PUSH1 0x40 PUSH2 0x2CF5 DUP7 DUP3 DUP8 ADD PUSH2 0x2B78 JUMP JUMPDEST SWAP2 POP POP SWAP3 POP SWAP3 POP SWAP3 JUMP JUMPDEST PUSH1 0x0 PUSH1 0x20 DUP3 DUP5 SUB SLT ISZERO PUSH2 0x2D15 JUMPI PUSH2 0x2D14 PUSH2 0x29E0 JUMP JUMPDEST JUMPDEST PUSH1 0x0 PUSH2 0x2D23 DUP5 DUP3 DUP6 ADD PUSH2 0x2C2D JUMP JUMPDEST SWAP2 POP POP SWAP3 SWAP2 POP POP JUMP JUMPDEST PUSH1 0x0 DUP1 PUSH1 0x0 PUSH1 0x60 DUP5 DUP7 SUB SLT ISZERO PUSH2 0x2D45 JUMPI PUSH2 0x2D44 PUSH2 0x29E0 JUMP JUMPDEST JUMPDEST PUSH1 0x0 PUSH2 0x2D53 DUP7 DUP3 DUP8 ADD PUSH2 0x2B78 JUMP JUMPDEST SWAP4 POP POP PUSH1 0x20 PUSH2 0x2D64 DUP7 DUP3 DUP8 ADD PUSH2 0x2B78 JUMP JUMPDEST SWAP3 POP POP PUSH1 0x40 PUSH2 0x2D75 DUP7 DUP3 DUP8 ADD PUSH2 0x2B78 JUMP JUMPDEST SWAP2 POP POP SWAP3 POP SWAP3 POP SWAP3 JUMP JUMPDEST PUSH2 0x2D88 DUP2 PUSH2 0x2A6F JUMP JUMPDEST DUP2 EQ PUSH2 0x2D93 JUMPI PUSH1 0x0 DUP1 REVERT JUMPDEST POP JUMP JUMPDEST PUSH1 0x0 DUP2 CALLDATALOAD SWAP1 POP PUSH2 0x2DA5 DUP2 PUSH2 0x2D7F JUMP JUMPDEST SWAP3 SWAP2 POP POP JUMP JUMPDEST PUSH1 0x0 DUP1 PUSH1 0x40 DUP4 DUP6 SUB SLT ISZERO PUSH2 0x2DC2 JUMPI PUSH2 0x2DC1 PUSH2 0x29E0 JUMP JUMPDEST JUMPDEST PUSH1 0x0 PUSH2 0x2DD0 DUP6 DUP3 DUP7 ADD PUSH2 0x2C2D JUMP JUMPDEST SWAP3 POP POP PUSH1 0x20 PUSH2 0x2DE1 DUP6 DUP3 DUP7 ADD PUSH2 0x2D96 JUMP JUMPDEST SWAP2 POP POP SWAP3 POP SWAP3 SWAP1 POP JUMP JUMPDEST PUSH1 0x0 DUP1 REVERT JUMPDEST PUSH1 0x0 DUP1 REVERT JUMPDEST PUSH32 0x4E487B7100000000000000000000000000000000000000000000000000000000 PUSH1 0x0 MSTORE PUSH1 0x41 PUSH1 0x4 MSTORE PUSH1 0x24 PUSH1 0x0 REVERT JUMPDEST PUSH2 0x2E2D DUP3 PUSH2 0x2AEB JUMP JUMPDEST DUP2 ADD DUP2 DUP2 LT PUSH8 0xFFFFFFFFFFFFFFFF DUP3 GT OR ISZERO PUSH2 0x2E4C JUMPI PUSH2 0x2E4B PUSH2 0x2DF5 JUMP JUMPDEST JUMPDEST DUP1 PUSH1 0x40 MSTORE POP POP POP JUMP JUMPDEST PUSH1 0x0 PUSH2 0x2E5F PUSH2 0x29D6 JUMP JUMPDEST SWAP1 POP PUSH2 0x2E6B DUP3 DUP3 PUSH2 0x2E24 JUMP JUMPDEST SWAP2 SWAP1 POP JUMP JUMPDEST PUSH1 0x0 PUSH8 0xFFFFFFFFFFFFFFFF DUP3 GT ISZERO PUSH2 0x2E8B JUMPI PUSH2 0x2E8A PUSH2 0x2DF5 JUMP JUMPDEST JUMPDEST PUSH2 0x2E94 DUP3 PUSH2 0x2AEB JUMP JUMPDEST SWAP1 POP PUSH1 0x20 DUP2 ADD SWAP1 POP SWAP2 SWAP1 POP JUMP JUMPDEST DUP3 DUP2 DUP4 CALLDATACOPY PUSH1 0x0 DUP4 DUP4 ADD MSTORE POP POP POP JUMP JUMPDEST PUSH1 0x0 PUSH2 0x2EC3 PUSH2 0x2EBE DUP5 PUSH2 0x2E70 JUMP JUMPDEST PUSH2 0x2E55 JUMP JUMPDEST SWAP1 POP DUP3 DUP2 MSTORE PUSH1 0x20 DUP2 ADD DUP5 DUP5 DUP5 ADD GT ISZERO PUSH2 0x2EDF JUMPI PUSH2 0x2EDE PUSH2 0x2DF0 JUMP JUMPDEST JUMPDEST PUSH2 0x2EEA DUP5 DUP3 DUP6 PUSH2 0x2EA1 JUMP JUMPDEST POP SWAP4 SWAP3 POP POP POP JUMP JUMPDEST PUSH1 0x0 DUP3 PUSH1 0x1F DUP4 ADD SLT PUSH2 0x2F07 JUMPI PUSH2 0x2F06 PUSH2 0x2DEB JUMP JUMPDEST JUMPDEST DUP2 CALLDATALOAD PUSH2 0x2F17 DUP5 DUP3 PUSH1 0x20 DUP7 ADD PUSH2 0x2EB0 JUMP JUMPDEST SWAP2 POP POP SWAP3 SWAP2 POP POP JUMP JUMPDEST PUSH1 0x0 DUP1 PUSH1 0x0 DUP1 PUSH1 0x80 DUP6 DUP8 SUB SLT ISZERO PUSH2 0x2F3A JUMPI PUSH2 0x2F39 PUSH2 0x29E0 JUMP JUMPDEST JUMPDEST PUSH1 0x0 PUSH2 0x2F48 DUP8 DUP3 DUP9 ADD PUSH2 0x2C2D JUMP JUMPDEST SWAP5 POP POP PUSH1 0x20 PUSH2 0x2F59 DUP8 DUP3 DUP9 ADD PUSH2 0x2C2D JUMP JUMPDEST SWAP4 POP POP PUSH1 0x40 PUSH2 0x2F6A DUP8 DUP3 DUP9 ADD PUSH2 0x2B78 JUMP JUMPDEST SWAP3 POP POP PUSH1 0x60 DUP6 ADD CALLDATALOAD PUSH8 0xFFFFFFFFFFFFFFFF DUP2 GT ISZERO PUSH2 0x2F8B JUMPI PUSH2 0x2F8A PUSH2 0x29E5 JUMP JUMPDEST JUMPDEST PUSH2 0x2F97 DUP8 DUP3 DUP9 ADD PUSH2 0x2EF2 JUMP JUMPDEST SWAP2 POP POP SWAP3 SWAP6 SWAP2 SWAP5 POP SWAP3 POP JUMP JUMPDEST PUSH1 0x0 PUSH8 0xFFFFFFFFFFFFFFFF DUP3 GT ISZERO PUSH2 0x2FBE JUMPI PUSH2 0x2FBD PUSH2 0x2DF5 JUMP JUMPDEST JUMPDEST PUSH2 0x2FC7 DUP3 PUSH2 0x2AEB JUMP JUMPDEST SWAP1 POP PUSH1 0x20 DUP2 ADD SWAP1 POP SWAP2 SWAP1 POP JUMP JUMPDEST PUSH1 0x0 PUSH2 0x2FE7 PUSH2 0x2FE2 DUP5 PUSH2 0x2FA3 JUMP JUMPDEST PUSH2 0x2E55 JUMP JUMPDEST SWAP1 POP DUP3 DUP2 MSTORE PUSH1 0x20 DUP2 ADD DUP5 DUP5 DUP5 ADD GT ISZERO PUSH2 0x3003 JUMPI PUSH2 0x3002 PUSH2 0x2DF0 JUMP JUMPDEST JUMPDEST PUSH2 0x300E DUP5 DUP3 DUP6 PUSH2 0x2EA1 JUMP JUMPDEST POP SWAP4 SWAP3 POP POP POP JUMP JUMPDEST PUSH1 0x0 DUP3 PUSH1 0x1F DUP4 ADD SLT PUSH2 0x302B JUMPI PUSH2 0x302A PUSH2 0x2DEB JUMP JUMPDEST JUMPDEST DUP2 CALLDATALOAD PUSH2 0x303B DUP5 DUP3 PUSH1 0x20 DUP7 ADD PUSH2 0x2FD4 JUMP JUMPDEST SWAP2 POP POP SWAP3 SWAP2 POP POP JUMP JUMPDEST PUSH1 0x0 PUSH1 0x20 DUP3 DUP5 SUB SLT ISZERO PUSH2 0x305A JUMPI PUSH2 0x3059 PUSH2 0x29E0 JUMP JUMPDEST JUMPDEST PUSH1 0x0 DUP3 ADD CALLDATALOAD PUSH8 0xFFFFFFFFFFFFFFFF DUP2 GT ISZERO PUSH2 0x3078 JUMPI PUSH2 0x3077 PUSH2 0x29E5 JUMP JUMPDEST JUMPDEST PUSH2 0x3084 DUP5 DUP3 DUP6 ADD PUSH2 0x3016 JUMP JUMPDEST SWAP2 POP POP SWAP3 SWAP2 POP POP JUMP JUMPDEST PUSH1 0x0 DUP1 PUSH1 0x40 DUP4 DUP6 SUB SLT ISZERO PUSH2 0x30A4 JUMPI PUSH2 0x30A3 PUSH2 0x29E0 JUMP JUMPDEST JUMPDEST PUSH1 0x0 PUSH2 0x30B2 DUP6 DUP3 DUP7 ADD PUSH2 0x2C2D JUMP JUMPDEST SWAP3 POP POP PUSH1 0x20 PUSH2 0x30C3 DUP6 DUP3 DUP7 ADD PUSH2 0x2C2D JUMP JUMPDEST SWAP2 POP POP SWAP3 POP SWAP3 SWAP1 POP JUMP JUMPDEST PUSH1 0x0 DUP1 PUSH1 0x40 DUP4 DUP6 SUB SLT ISZERO PUSH2 0x30E4 JUMPI PUSH2 0x30E3 PUSH2 0x29E0 JUMP JUMPDEST JUMPDEST PUSH1 0x0 PUSH2 0x30F2 DUP6 DUP3 DUP7 ADD PUSH2 0x2B78 JUMP JUMPDEST SWAP3 POP POP PUSH1 0x20 PUSH2 0x3103 DUP6 DUP3 DUP7 ADD PUSH2 0x2B78 JUMP JUMPDEST SWAP2 POP POP SWAP3 POP SWAP3 SWAP1 POP JUMP JUMPDEST PUSH32 0x4E487B7100000000000000000000000000000000000000000000000000000000 PUSH1 0x0 MSTORE PUSH1 0x22 PUSH1 0x4 MSTORE PUSH1 0x24 PUSH1 0x0 REVERT JUMPDEST PUSH1 0x0 PUSH1 0x2 DUP3 DIV SWAP1 POP PUSH1 0x1 DUP3 AND DUP1 PUSH2 0x3154 JUMPI PUSH1 0x7F DUP3 AND SWAP2 POP JUMPDEST PUSH1 0x20 DUP3 LT DUP2 SUB PUSH2 0x3167 JUMPI PUSH2 0x3166 PUSH2 0x310D JUMP JUMPDEST JUMPDEST POP SWAP2 SWAP1 POP JUMP JUMPDEST PUSH32 0x4F776E61626C653A2063616C6C6572206973206E6F7420746865206F776E6572 PUSH1 0x0 DUP3 ADD MSTORE POP JUMP JUMPDEST PUSH1 0x0 PUSH2 0x31A3 PUSH1 0x20 DUP4 PUSH2 0x2AB0 JUMP JUMPDEST SWAP2 POP PUSH2 0x31AE DUP3 PUSH2 0x316D JUMP JUMPDEST PUSH1 0x20 DUP3 ADD SWAP1 POP SWAP2 SWAP1 POP JUMP JUMPDEST PUSH1 0x0 PUSH1 0x20 DUP3 ADD SWAP1 POP DUP2 DUP2 SUB PUSH1 0x0 DUP4 ADD MSTORE PUSH2 0x31D2 DUP2 PUSH2 0x3196 JUMP JUMPDEST SWAP1 POP SWAP2 SWAP1 POP JUMP JUMPDEST PUSH1 0x0 DUP2 SWAP1 POP SWAP3 SWAP2 POP POP JUMP JUMPDEST PUSH1 0x0 PUSH2 0x31EF DUP3 PUSH2 0x2AA5 JUMP JUMPDEST PUSH2 0x31F9 DUP2 DUP6 PUSH2 0x31D9 JUMP JUMPDEST SWAP4 POP PUSH2 0x3209 DUP2 DUP6 PUSH1 0x20 DUP7 ADD PUSH2 0x2AC1 JUMP JUMPDEST DUP1 DUP5 ADD SWAP2 POP POP SWAP3 SWAP2 POP POP JUMP JUMPDEST PUSH1 0x0 PUSH2 0x3221 DUP3 DUP6 PUSH2 0x31E4 JUMP JUMPDEST SWAP2 POP PUSH2 0x322D DUP3 DUP5 PUSH2 0x31E4 JUMP JUMPDEST SWAP2 POP DUP2 SWAP1 POP SWAP4 SWAP3 POP POP POP JUMP JUMPDEST PUSH1 0x0 PUSH2 0x3245 DUP3 DUP5 PUSH2 0x31E4 JUMP JUMPDEST SWAP2 POP DUP2 SWAP1 POP SWAP3 SWAP2 POP POP JUMP JUMPDEST PUSH32 0x4E487B7100000000000000000000000000000000000000000000000000000000 PUSH1 0x0 MSTORE PUSH1 0x12 PUSH1 0x4 MSTORE PUSH1 0x24 PUSH1 0x0 REVERT JUMPDEST PUSH1 0x0 PUSH2 0x328A DUP3 PUSH2 0x2B57 JUMP JUMPDEST SWAP2 POP PUSH2 0x3295 DUP4 PUSH2 0x2B57 JUMP JUMPDEST SWAP3 POP DUP3 PUSH2 0x32A5 JUMPI PUSH2 0x32A4 PUSH2 0x3250 JUMP JUMPDEST JUMPDEST DUP3 DUP3 MOD SWAP1 POP SWAP3 SWAP2 POP POP JUMP JUMPDEST PUSH32 0x4E487B7100000000000000000000000000000000000000000000000000000000 PUSH1 0x0 MSTORE PUSH1 0x11 PUSH1 0x4 MSTORE PUSH1 0x24 PUSH1 0x0 REVERT JUMPDEST PUSH1 0x0 PUSH2 0x32EA DUP3 PUSH2 0x2B57 JUMP JUMPDEST SWAP2 POP PUSH2 0x32F5 DUP4 PUSH2 0x2B57 JUMP JUMPDEST SWAP3 POP DUP3 DUP3 MUL PUSH2 0x3303 DUP2 PUSH2 0x2B57 JUMP JUMPDEST SWAP2 POP DUP3 DUP3 DIV DUP5 EQ DUP4 ISZERO OR PUSH2 0x331A JUMPI PUSH2 0x3319 PUSH2 0x32B0 JUMP JUMPDEST JUMPDEST POP SWAP3 SWAP2 POP POP JUMP JUMPDEST PUSH1 0x0 PUSH2 0x332C DUP3 PUSH2 0x2B57 JUMP JUMPDEST SWAP2 POP PUSH2 0x3337 DUP4 PUSH2 0x2B57 JUMP JUMPDEST SWAP3 POP DUP3 DUP3 SUB SWAP1 POP DUP2 DUP2 GT ISZERO PUSH2 0x334F JUMPI PUSH2 0x334E PUSH2 0x32B0 JUMP JUMPDEST JUMPDEST SWAP3 SWAP2 POP POP JUMP JUMPDEST PUSH1 0x0 PUSH2 0x3360 DUP3 PUSH2 0x2B57 JUMP JUMPDEST SWAP2 POP PUSH2 0x336B DUP4 PUSH2 0x2B57 JUMP JUMPDEST SWAP3 POP DUP3 DUP3 ADD SWAP1 POP DUP1 DUP3 GT ISZERO PUSH2 0x3383 JUMPI PUSH2 0x3382 PUSH2 0x32B0 JUMP JUMPDEST JUMPDEST SWAP3 SWAP2 POP POP JUMP JUMPDEST PUSH1 0x0 PUSH2 0x3394 DUP3 PUSH2 0x2B57 JUMP JUMPDEST SWAP2 POP PUSH2 0x339F DUP4 PUSH2 0x2B57 JUMP JUMPDEST SWAP3 POP DUP3 PUSH2 0x33AF JUMPI PUSH2 0x33AE PUSH2 0x3250 JUMP JUMPDEST JUMPDEST DUP3 DUP3 DIV SWAP1 POP SWAP3 SWAP2 POP POP JUMP JUMPDEST PUSH1 0x0 DUP2 MLOAD SWAP1 POP SWAP2 SWAP1 POP JUMP JUMPDEST PUSH1 0x0 DUP3 DUP3 MSTORE PUSH1 0x20 DUP3 ADD SWAP1 POP SWAP3 SWAP2 POP POP JUMP JUMPDEST PUSH1 0x0 PUSH2 0x33E1 DUP3 PUSH2 0x33BA JUMP JUMPDEST PUSH2 0x33EB DUP2 DUP6 PUSH2 0x33C5 JUMP JUMPDEST SWAP4 POP PUSH2 0x33FB DUP2 DUP6 PUSH1 0x20 DUP7 ADD PUSH2 0x2AC1 JUMP JUMPDEST PUSH2 0x3404 DUP2 PUSH2 0x2AEB JUMP JUMPDEST DUP5 ADD SWAP2 POP POP SWAP3 SWAP2 POP POP JUMP JUMPDEST PUSH1 0x0 PUSH1 0x80 DUP3 ADD SWAP1 POP PUSH2 0x3424 PUSH1 0x0 DUP4 ADD DUP8 PUSH2 0x2BEC JUMP JUMPDEST PUSH2 0x3431 PUSH1 0x20 DUP4 ADD DUP7 PUSH2 0x2BEC JUMP JUMPDEST PUSH2 0x343E PUSH1 0x40 DUP4 ADD DUP6 PUSH2 0x2C82 JUMP JUMPDEST DUP2 DUP2 SUB PUSH1 0x60 DUP4 ADD MSTORE PUSH2 0x3450 DUP2 DUP5 PUSH2 0x33D6 JUMP JUMPDEST SWAP1 POP SWAP6 SWAP5 POP POP POP POP POP JUMP JUMPDEST PUSH1 0x0 DUP2 MLOAD SWAP1 POP PUSH2 0x346A DUP2 PUSH2 0x2A16 JUMP JUMPDEST SWAP3 SWAP2 POP POP JUMP JUMPDEST PUSH1 0x0 PUSH1 0x20 DUP3 DUP5 SUB SLT ISZERO PUSH2 0x3486 JUMPI PUSH2 0x3485 PUSH2 0x29E0 JUMP JUMPDEST JUMPDEST PUSH1 0x0 PUSH2 0x3494 DUP5 DUP3 DUP6 ADD PUSH2 0x345B JUMP JUMPDEST SWAP2 POP POP SWAP3 SWAP2 POP POP JUMP INVALID PUSH9 0x747470733A2F2F6761 PUSH21 0x657761792E70696E6174612E636C6F75642F697066 PUSH20 0x2F516D56513653643563566B56447A414C706472 BASEFEE 0x4B PUSH2 0x6E67 PUSH9 0x426F4A596457557855 PUSH21 0x336B3748705146525838782FA26469706673582212 KECCAK256 MUL 0xC9 0x27 MLOAD 0x28 PUSH28 0x9B5BB9496EEEC57ABD5612B65A9745B46DAC44B214C8E4D016566473 PUSH16 0x6C634300081100330000000000000000 "
		},
		"gasEstimates": {
			"creation": {
				"codeDepositCost": "2720800",
				"executionCost": "infinite",
				"totalCost": "infinite"
			},
			"external": {
				"MineStatus(address)": "infinite",
				"ViewInfo(uint256,uint256)": "infinite",
				"ViewRecommender(string)": "infinite",
				"approve(address,uint256)": "infinite",
				"balanceOf(address)": "3013",
				"blockStatus(uint256)": "infinite",
				"getApproved(uint256)": "7458",
				"isApprovedForAll(address,address)": "infinite",
				"maxSupply()": "4598",
				"mineInfo(address,uint256)": "infinite",
				"mint(uint256)": "infinite",
				"name()": "infinite",
				"ownerOf(uint256)": "infinite",
				"safeTransferFrom(address,address,uint256)": "infinite",
				"safeTransferFrom(address,address,uint256,bytes)": "infinite",
				"setApprovalForAll(address,bool)": "infinite",
				"setInfo(uint256,uint256,uint256)": "infinite",
				"supportsInterface(bytes4)": "797",
				"symbol()": "infinite",
				"tokenIDPower(uint256)": "infinite",
				"tokenURI(uint256)": "infinite",
				"totalPower()": "2481",
				"totalSupply()": "4688",
				"transferFrom(address,address,uint256)": "infinite"
			},
			"internal": {
				"setRecommender()": "infinite",
				"viewCode()": "infinite"
			}
		},
		"methodIdentifiers": {
			"MineStatus(address)": "b8ba6007",
			"ViewInfo(uint256,uint256)": "fda6abeb",
			"ViewRecommender(string)": "c899c8e8",
			"approve(address,uint256)": "095ea7b3",
			"balanceOf(address)": "70a08231",
			"blockStatus(uint256)": "4be3403c",
			"getApproved(uint256)": "081812fc",
			"isApprovedForAll(address,address)": "e985e9c5",
			"maxSupply()": "d5abeb01",
			"mineInfo(address,uint256)": "eff0730d",
			"mint(uint256)": "a0712d68",
			"name()": "06fdde03",
			"ownerOf(uint256)": "6352211e",
			"safeTransferFrom(address,address,uint256)": "42842e0e",
			"safeTransferFrom(address,address,uint256,bytes)": "b88d4fde",
			"setApprovalForAll(address,bool)": "a22cb465",
			"setInfo(uint256,uint256,uint256)": "9d041475",
			"supportsInterface(bytes4)": "01ffc9a7",
			"symbol()": "95d89b41",
			"tokenIDPower(uint256)": "e29301f9",
			"tokenURI(uint256)": "c87b56dd",
			"totalPower()": "db3ad22c",
			"totalSupply()": "18160ddd",
			"transferFrom(address,address,uint256)": "23b872dd"
		}
	},
	"abi": [
		{
			"inputs": [
				{
					"internalType": "uint256",
					"name": "_price",
					"type": "uint256"
				},
				{
					"internalType": "uint256",
					"name": "openAmount",
					"type": "uint256"
				}
			],
			"stateMutability": "nonpayable",
			"type": "constructor"
		},
		{
			"inputs": [],
			"name": "ApprovalCallerNotOwnerNorApproved",
			"type": "error"
		},
		{
			"inputs": [],
			"name": "ApprovalQueryForNonexistentToken",
			"type": "error"
		},
		{
			"inputs": [],
			"name": "ApprovalToCurrentOwner",
			"type": "error"
		},
		{
			"inputs": [],
			"name": "ApproveToCaller",
			"type": "error"
		},
		{
			"inputs": [],
			"name": "BalanceQueryForZeroAddress",
			"type": "error"
		},
		{
			"inputs": [],
			"name": "MintToZeroAddress",
			"type": "error"
		},
		{
			"inputs": [],
			"name": "MintZeroQuantity",
			"type": "error"
		},
		{
			"inputs": [],
			"name": "OwnerQueryForNonexistentToken",
			"type": "error"
		},
		{
			"inputs": [],
			"name": "TransferCallerNotOwnerNorApproved",
			"type": "error"
		},
		{
			"inputs": [],
			"name": "TransferFromIncorrectOwner",
			"type": "error"
		},
		{
			"inputs": [],
			"name": "TransferToNonERC721ReceiverImplementer",
			"type": "error"
		},
		{
			"inputs": [],
			"name": "TransferToZeroAddress",
			"type": "error"
		},
		{
			"inputs": [],
			"name": "URIQueryForNonexistentToken",
			"type": "error"
		},
		{
			"anonymous": false,
			"inputs": [
				{
					"indexed": true,
					"internalType": "address",
					"name": "owner",
					"type": "address"
				},
				{
					"indexed": true,
					"internalType": "address",
					"name": "approved",
					"type": "address"
				},
				{
					"indexed": true,
					"internalType": "uint256",
					"name": "tokenId",
					"type": "uint256"
				}
			],
			"name": "Approval",
			"type": "event"
		},
		{
			"anonymous": false,
			"inputs": [
				{
					"indexed": true,
					"internalType": "address",
					"name": "owner",
					"type": "address"
				},
				{
					"indexed": true,
					"internalType": "address",
					"name": "operator",
					"type": "address"
				},
				{
					"indexed": false,
					"internalType": "bool",
					"name": "approved",
					"type": "bool"
				}
			],
			"name": "ApprovalForAll",
			"type": "event"
		},
		{
			"anonymous": false,
			"inputs": [
				{
					"indexed": true,
					"internalType": "address",
					"name": "from",
					"type": "address"
				},
				{
					"indexed": true,
					"internalType": "address",
					"name": "to",
					"type": "address"
				},
				{
					"indexed": true,
					"internalType": "uint256",
					"name": "tokenId",
					"type": "uint256"
				}
			],
			"name": "Transfer",
			"type": "event"
		},
		{
			"inputs": [
				{
					"internalType": "address",
					"name": "user",
					"type": "address"
				}
			],
			"name": "MineStatus",
			"outputs": [
				{
					"internalType": "uint256",
					"name": "",
					"type": "uint256"
				}
			],
			"stateMutability": "view",
			"type": "function"
		},
		{
			"inputs": [
				{
					"internalType": "uint256",
					"name": "paramA",
					"type": "uint256"
				},
				{
					"internalType": "uint256",
					"name": "paramB",
					"type": "uint256"
				}
			],
			"name": "ViewInfo",
			"outputs": [
				{
					"internalType": "uint256",
					"name": "",
					"type": "uint256"
				}
			],
			"stateMutability": "view",
			"type": "function"
		},
		{
			"inputs": [
				{
					"internalType": "string",
					"name": "code",
					"type": "string"
				}
			],
			"name": "ViewRecommender",
			"outputs": [
				{
					"internalType": "address",
					"name": "",
					"type": "address"
				}
			],
			"stateMutability": "view",
			"type": "function"
		},
		{
			"inputs": [
				{
					"internalType": "address",
					"name": "to",
					"type": "address"
				},
				{
					"internalType": "uint256",
					"name": "tokenId",
					"type": "uint256"
				}
			],
			"name": "approve",
			"outputs": [],
			"stateMutability": "nonpayable",
			"type": "function"
		},
		{
			"inputs": [
				{
					"internalType": "address",
					"name": "owner",
					"type": "address"
				}
			],
			"name": "balanceOf",
			"outputs": [
				{
					"internalType": "uint256",
					"name": "",
					"type": "uint256"
				}
			],
			"stateMutability": "view",
			"type": "function"
		},
		{
			"inputs": [
				{
					"internalType": "uint256",
					"name": "_BlockNumber",
					"type": "uint256"
				}
			],
			"name": "blockStatus",
			"outputs": [
				{
					"internalType": "uint256",
					"name": "",
					"type": "uint256"
				}
			],
			"stateMutability": "view",
			"type": "function"
		},
		{
			"inputs": [
				{
					"internalType": "uint256",
					"name": "tokenId",
					"type": "uint256"
				}
			],
			"name": "getApproved",
			"outputs": [
				{
					"internalType": "address",
					"name": "",
					"type": "address"
				}
			],
			"stateMutability": "view",
			"type": "function"
		},
		{
			"inputs": [
				{
					"internalType": "address",
					"name": "owner",
					"type": "address"
				},
				{
					"internalType": "address",
					"name": "operator",
					"type": "address"
				}
			],
			"name": "isApprovedForAll",
			"outputs": [
				{
					"internalType": "bool",
					"name": "",
					"type": "bool"
				}
			],
			"stateMutability": "view",
			"type": "function"
		},
		{
			"inputs": [],
			"name": "maxSupply",
			"outputs": [
				{
					"internalType": "uint256",
					"name": "",
					"type": "uint256"
				}
			],
			"stateMutability": "view",
			"type": "function"
		},
		{
			"inputs": [
				{
					"internalType": "address",
					"name": "user",
					"type": "address"
				},
				{
					"internalType": "uint256",
					"name": "number",
					"type": "uint256"
				}
			],
			"name": "mineInfo",
			"outputs": [
				{
					"internalType": "uint256",
					"name": "",
					"type": "uint256"
				}
			],
			"stateMutability": "view",
			"type": "function"
		},
		{
			"inputs": [
				{
					"internalType": "uint256",
					"name": "quantity",
					"type": "uint256"
				}
			],
			"name": "mint",
			"outputs": [],
			"stateMutability": "payable",
			"type": "function"
		},
		{
			"inputs": [],
			"name": "name",
			"outputs": [
				{
					"internalType": "string",
					"name": "",
					"type": "string"
				}
			],
			"stateMutability": "view",
			"type": "function"
		},
		{
			"inputs": [
				{
					"internalType": "uint256",
					"name": "tokenId",
					"type": "uint256"
				}
			],
			"name": "ownerOf",
			"outputs": [
				{
					"internalType": "address",
					"name": "",
					"type": "address"
				}
			],
			"stateMutability": "view",
			"type": "function"
		},
		{
			"inputs": [
				{
					"internalType": "address",
					"name": "from",
					"type": "address"
				},
				{
					"internalType": "address",
					"name": "to",
					"type": "address"
				},
				{
					"internalType": "uint256",
					"name": "tokenId",
					"type": "uint256"
				}
			],
			"name": "safeTransferFrom",
			"outputs": [],
			"stateMutability": "nonpayable",
			"type": "function"
		},
		{
			"inputs": [
				{
					"internalType": "address",
					"name": "from",
					"type": "address"
				},
				{
					"internalType": "address",
					"name": "to",
					"type": "address"
				},
				{
					"internalType": "uint256",
					"name": "tokenId",
					"type": "uint256"
				},
				{
					"internalType": "bytes",
					"name": "_data",
					"type": "bytes"
				}
			],
			"name": "safeTransferFrom",
			"outputs": [],
			"stateMutability": "nonpayable",
			"type": "function"
		},
		{
			"inputs": [
				{
					"internalType": "address",
					"name": "operator",
					"type": "address"
				},
				{
					"internalType": "bool",
					"name": "approved",
					"type": "bool"
				}
			],
			"name": "setApprovalForAll",
			"outputs": [],
			"stateMutability": "nonpayable",
			"type": "function"
		},
		{
			"inputs": [
				{
					"internalType": "uint256",
					"name": "paramA",
					"type": "uint256"
				},
				{
					"internalType": "uint256",
					"name": "paramB",
					"type": "uint256"
				},
				{
					"internalType": "uint256",
					"name": "paramC",
					"type": "uint256"
				}
			],
			"name": "setInfo",
			"outputs": [],
			"stateMutability": "nonpayable",
			"type": "function"
		},
		{
			"inputs": [
				{
					"internalType": "bytes4",
					"name": "interfaceId",
					"type": "bytes4"
				}
			],
			"name": "supportsInterface",
			"outputs": [
				{
					"internalType": "bool",
					"name": "",
					"type": "bool"
				}
			],
			"stateMutability": "view",
			"type": "function"
		},
		{
			"inputs": [],
			"name": "symbol",
			"outputs": [
				{
					"internalType": "string",
					"name": "",
					"type": "string"
				}
			],
			"stateMutability": "view",
			"type": "function"
		},
		{
			"inputs": [
				{
					"internalType": "uint256",
					"name": "tokenId",
					"type": "uint256"
				}
			],
			"name": "tokenIDPower",
			"outputs": [
				{
					"internalType": "uint256",
					"name": "",
					"type": "uint256"
				}
			],
			"stateMutability": "view",
			"type": "function"
		},
		{
			"inputs": [
				{
					"internalType": "uint256",
					"name": "tokenId",
					"type": "uint256"
				}
			],
			"name": "tokenURI",
			"outputs": [
				{
					"internalType": "string",
					"name": "",
					"type": "string"
				}
			],
			"stateMutability": "view",
			"type": "function"
		},
		{
			"inputs": [],
			"name": "totalPower",
			"outputs": [
				{
					"internalType": "uint256",
					"name": "",
					"type": "uint256"
				}
			],
			"stateMutability": "view",
			"type": "function"
		},
		{
			"inputs": [],
			"name": "totalSupply",
			"outputs": [
				{
					"internalType": "uint256",
					"name": "",
					"type": "uint256"
				}
			],
			"stateMutability": "view",
			"type": "function"
		},
		{
			"inputs": [
				{
					"internalType": "address",
					"name": "from",
					"type": "address"
				},
				{
					"internalType": "address",
					"name": "to",
					"type": "address"
				},
				{
					"internalType": "uint256",
					"name": "tokenId",
					"type": "uint256"
				}
			],
			"name": "transferFrom",
			"outputs": [],
			"stateMutability": "nonpayable",
			"type": "function"
		}
	]
}