{
	"minerpunk/treasury.sol": {
		"treasury": {
			"abi": [
				{
					"inputs": [],
					"stateMutability": "nonpayable",
					"type": "constructor"
				},
				{
					"inputs": [
						{
							"internalType": "uint256",
							"name": "dcf_amount",
							"type": "uint256"
						}
					],
					"name": "ETH_DCF",
					"outputs": [
						{
							"internalType": "uint256",
							"name": "",
							"type": "uint256"
						}
					],
					"stateMutability": "view",
					"type": "function"
				},
				{
					"inputs": [
						{
							"internalType": "uint256",
							"name": "_invertory",
							"type": "uint256"
						}
					],
					"name": "Quote",
					"outputs": [
						{
							"internalType": "uint256",
							"name": "",
							"type": "uint256"
						}
					],
					"stateMutability": "view",
					"type": "function"
				},
				{
					"inputs": [],
					"name": "Warning_protect",
					"outputs": [],
					"stateMutability": "nonpayable",
					"type": "function"
				},
				{
					"inputs": [],
					"name": "deposit",
					"outputs": [],
					"stateMutability": "payable",
					"type": "function"
				},
				{
					"inputs": [
						{
							"internalType": "uint256",
							"name": "_unit",
							"type": "uint256"
						}
					],
					"name": "market",
					"outputs": [
						{
							"internalType": "uint256",
							"name": "",
							"type": "uint256"
						}
					],
					"stateMutability": "view",
					"type": "function"
				},
				{
					"inputs": [
						{
							"internalType": "address",
							"name": "from",
							"type": "address"
						},
						{
							"internalType": "address payable",
							"name": "to",
							"type": "address"
						},
						{
							"internalType": "uint256",
							"name": "dcf_amount",
							"type": "uint256"
						}
					],
					"name": "market",
					"outputs": [],
					"stateMutability": "nonpayable",
					"type": "function"
				},
				{
					"inputs": [
						{
							"internalType": "address",
							"name": "user",
							"type": "address"
						},
						{
							"internalType": "uint256",
							"name": "_unit",
							"type": "uint256"
						}
					],
					"name": "purchasePower",
					"outputs": [],
					"stateMutability": "payable",
					"type": "function"
				},
				{
					"inputs": [
						{
							"internalType": "address",
							"name": "user",
							"type": "address"
						},
						{
							"internalType": "bool",
							"name": "power",
							"type": "bool"
						}
					],
					"name": "setRouter",
					"outputs": [],
					"stateMutability": "nonpayable",
					"type": "function"
				}
			],
			"devdoc": {
				"kind": "dev",
				"methods": {},
				"version": 1
			},
			"evm": {
				"assembly": "    /* \"minerpunk/treasury.sol\":278:2526  contract treasury {... */\n  mstore(0x40, 0x80)\n    /* \"minerpunk/treasury.sol\":356:398  0xA9fae5eA311D3CfB2bcC9CAefC5003b30b60b6c3 */\n  0xa9fae5ea311d3cfb2bcc9caefc5003b30b60b6c3\n    /* \"minerpunk/treasury.sol\":333:399  IERC20 dcoff =  IERC20(0xA9fae5eA311D3CfB2bcC9CAefC5003b30b60b6c3) */\n  0x00\n  dup1\n  0x0100\n  exp\n  dup2\n  sload\n  dup2\n  0xffffffffffffffffffffffffffffffffffffffff\n  mul\n  not\n  and\n  swap1\n  dup4\n  0xffffffffffffffffffffffffffffffffffffffff\n  and\n  mul\n  or\n  swap1\n  sstore\n  pop\n    /* \"minerpunk/treasury.sol\":436:478  0xA9fae5eA311D3CfB2bcC9CAefC5003b30b60b6c3 */\n  0xa9fae5ea311d3cfb2bcc9caefc5003b30b60b6c3\n    /* \"minerpunk/treasury.sol\":404:479  IburnFrom dcoffburn = IburnFrom(0xA9fae5eA311D3CfB2bcC9CAefC5003b30b60b6c3) */\n  0x01\n  exp(0x0100, 0x00)\n  dup2\n  sload\n  dup2\n  0xffffffffffffffffffffffffffffffffffffffff\n  mul\n  not\n  and\n  swap1\n  dup4\n  0xffffffffffffffffffffffffffffffffffffffff\n  and\n  mul\n  or\n  swap1\n  sstore\n  pop\n    /* \"minerpunk/treasury.sol\":511:553  0xe3410Af1B80F925ac42b78EA54A48DE13dFA6eBe */\n  0xe3410af1b80f925ac42b78ea54a48de13dfa6ebe\n    /* \"minerpunk/treasury.sol\":484:554  IERC20 minePower =  IERC20(0xe3410Af1B80F925ac42b78EA54A48DE13dFA6eBe) */\n  0x02\n  exp(0x0100, 0x00)\n  dup2\n  sload\n  dup2\n  0xffffffffffffffffffffffffffffffffffffffff\n  mul\n  not\n  and\n  swap1\n  dup4\n  0xffffffffffffffffffffffffffffffffffffffff\n  and\n  mul\n  or\n  swap1\n  sstore\n  pop\n    /* \"minerpunk/treasury.sol\":595:637  0xe3410Af1B80F925ac42b78EA54A48DE13dFA6eBe */\n  0xe3410af1b80f925ac42b78ea54a48de13dfa6ebe\n    /* \"minerpunk/treasury.sol\":559:638  IburnFrom minePowerburn = IburnFrom(0xe3410Af1B80F925ac42b78EA54A48DE13dFA6eBe) */\n  0x03\n  exp(0x0100, 0x00)\n  dup2\n  sload\n  dup2\n  0xffffffffffffffffffffffffffffffffffffffff\n  mul\n  not\n  and\n  swap1\n  dup4\n  0xffffffffffffffffffffffffffffffffffffffff\n  and\n  mul\n  or\n  swap1\n  sstore\n  pop\n    /* \"minerpunk/treasury.sol\":655:725  constructor(){... */\n  callvalue\n  dup1\n  iszero\n  tag_1\n  jumpi\n  0x00\n  dup1\n  revert\ntag_1:\n  pop\n    /* \"minerpunk/treasury.sol\":683:693  msg.sender */\n  caller\n    /* \"minerpunk/treasury.sol\":675:680  owner */\n  0x04\n  0x00\n    /* \"minerpunk/treasury.sol\":675:693  owner = msg.sender */\n  0x0100\n  exp\n  dup2\n  sload\n  dup2\n  0xffffffffffffffffffffffffffffffffffffffff\n  mul\n  not\n  and\n  swap1\n  dup4\n  0xffffffffffffffffffffffffffffffffffffffff\n  and\n  mul\n  or\n  swap1\n  sstore\n  pop\n    /* \"minerpunk/treasury.sol\":705:718  54000e18*5e15 */\n  0xcb201bc68e0578e319c1c2e000000000\n    /* \"minerpunk/treasury.sol\":701:702  k */\n  0x05\n    /* \"minerpunk/treasury.sol\":701:718  k = 54000e18*5e15 */\n  dup2\n  swap1\n  sstore\n  pop\n    /* \"minerpunk/treasury.sol\":278:2526  contract treasury {... */\n  dataSize(sub_0)\n  dup1\n  dataOffset(sub_0)\n  0x00\n  codecopy\n  0x00\n  return\nstop\n\nsub_0: assembly {\n        /* \"minerpunk/treasury.sol\":278:2526  contract treasury {... */\n      mstore(0x40, 0x80)\n      jumpi(tag_1, lt(calldatasize, 0x04))\n      shr(0xe0, calldataload(0x00))\n      dup1\n      0xd0e30db0\n      gt\n      tag_10\n      jumpi\n      dup1\n      0xd0e30db0\n      eq\n      tag_6\n      jumpi\n      dup1\n      0xd9e9402f\n      eq\n      tag_7\n      jumpi\n      dup1\n      0xdac3fad4\n      eq\n      tag_8\n      jumpi\n      dup1\n      0xdaeae851\n      eq\n      tag_9\n      jumpi\n      jump(tag_1)\n    tag_10:\n      dup1\n      0x28861d22\n      eq\n      tag_2\n      jumpi\n      dup1\n      0x44c8ad13\n      eq\n      tag_3\n      jumpi\n      dup1\n      0x97dedb1d\n      eq\n      tag_4\n      jumpi\n      dup1\n      0xc3c64674\n      eq\n      tag_5\n      jumpi\n    tag_1:\n      0x00\n      dup1\n      revert\n        /* \"minerpunk/treasury.sol\":1324:1674  function market(uint256 _unit)public view returns(uint256){... */\n    tag_2:\n      callvalue\n      dup1\n      iszero\n      tag_11\n      jumpi\n      0x00\n      dup1\n      revert\n    tag_11:\n      pop\n      tag_12\n      0x04\n      dup1\n      calldatasize\n      sub\n      dup2\n      add\n      swap1\n      tag_13\n      swap2\n      swap1\n      tag_14\n      jump\t// in\n    tag_13:\n      tag_15\n      jump\t// in\n    tag_12:\n      mload(0x40)\n      tag_16\n      swap2\n      swap1\n      tag_17\n      jump\t// in\n    tag_16:\n      mload(0x40)\n      dup1\n      swap2\n      sub\n      swap1\n      return\n        /* \"minerpunk/treasury.sol\":1684:1780  function Quote(uint256 _invertory)public view returns(uint256){... */\n    tag_3:\n      callvalue\n      dup1\n      iszero\n      tag_18\n      jumpi\n      0x00\n      dup1\n      revert\n    tag_18:\n      pop\n      tag_19\n      0x04\n      dup1\n      calldatasize\n      sub\n      dup2\n      add\n      swap1\n      tag_20\n      swap2\n      swap1\n      tag_14\n      jump\t// in\n    tag_20:\n      tag_21\n      jump\t// in\n    tag_19:\n      mload(0x40)\n      tag_22\n      swap2\n      swap1\n      tag_17\n      jump\t// in\n    tag_22:\n      mload(0x40)\n      dup1\n      swap2\n      sub\n      swap1\n      return\n        /* \"minerpunk/treasury.sol\":2129:2387  function ETH_DCF(uint256 dcf_amount)public view returns(uint256){... */\n    tag_4:\n      callvalue\n      dup1\n      iszero\n      tag_23\n      jumpi\n      0x00\n      dup1\n      revert\n    tag_23:\n      pop\n      tag_24\n      0x04\n      dup1\n      calldatasize\n      sub\n      dup2\n      add\n      swap1\n      tag_25\n      swap2\n      swap1\n      tag_14\n      jump\t// in\n    tag_25:\n      tag_26\n      jump\t// in\n    tag_24:\n      mload(0x40)\n      tag_27\n      swap2\n      swap1\n      tag_17\n      jump\t// in\n    tag_27:\n      mload(0x40)\n      dup1\n      swap2\n      sub\n      swap1\n      return\n        /* \"minerpunk/treasury.sol\":948:1050  function setRouter(address user, bool power)external onlyOwner{... */\n    tag_5:\n      callvalue\n      dup1\n      iszero\n      tag_28\n      jumpi\n      0x00\n      dup1\n      revert\n    tag_28:\n      pop\n      tag_29\n      0x04\n      dup1\n      calldatasize\n      sub\n      dup2\n      add\n      swap1\n      tag_30\n      swap2\n      swap1\n      tag_31\n      jump\t// in\n    tag_30:\n      tag_32\n      jump\t// in\n    tag_29:\n      stop\n        /* \"minerpunk/treasury.sol\":1058:1147  function deposit()external payable{... */\n    tag_6:\n      tag_33\n      tag_34\n      jump\t// in\n    tag_33:\n      stop\n        /* \"minerpunk/treasury.sol\":1797:2121  function market(address from ,address payable to, uint256 dcf_amount)external {... */\n    tag_7:\n      callvalue\n      dup1\n      iszero\n      tag_35\n      jumpi\n      0x00\n      dup1\n      revert\n    tag_35:\n      pop\n      tag_36\n      0x04\n      dup1\n      calldatasize\n      sub\n      dup2\n      add\n      swap1\n      tag_37\n      swap2\n      swap1\n      tag_38\n      jump\t// in\n    tag_37:\n      tag_39\n      jump\t// in\n    tag_36:\n      stop\n        /* \"minerpunk/treasury.sol\":2398:2501  function Warning_protect()external onlyOwner{... */\n    tag_8:\n      callvalue\n      dup1\n      iszero\n      tag_40\n      jumpi\n      0x00\n      dup1\n      revert\n    tag_40:\n      pop\n      tag_41\n      tag_42\n      jump\t// in\n    tag_41:\n      stop\n        /* \"minerpunk/treasury.sol\":1157:1316  function purchasePower(address user, uint256 _unit)external payable{... */\n    tag_9:\n      tag_43\n      0x04\n      dup1\n      calldatasize\n      sub\n      dup2\n      add\n      swap1\n      tag_44\n      swap2\n      swap1\n      tag_45\n      jump\t// in\n    tag_44:\n      tag_46\n      jump\t// in\n    tag_43:\n      stop\n        /* \"minerpunk/treasury.sol\":1324:1674  function market(uint256 _unit)public view returns(uint256){... */\n    tag_15:\n        /* \"minerpunk/treasury.sol\":1374:1381  uint256 */\n      0x00\n        /* \"minerpunk/treasury.sol\":1391:1408  uint256 invertory */\n      dup1\n        /* \"minerpunk/treasury.sol\":1411:1420  minePower */\n      0x02\n      0x00\n      swap1\n      sload\n      swap1\n      0x0100\n      exp\n      swap1\n      div\n      0xffffffffffffffffffffffffffffffffffffffff\n      and\n        /* \"minerpunk/treasury.sol\":1411:1430  minePower.balanceOf */\n      0xffffffffffffffffffffffffffffffffffffffff\n      and\n      0x70a08231\n        /* \"minerpunk/treasury.sol\":1439:1443  this */\n      address\n        /* \"minerpunk/treasury.sol\":1411:1445  minePower.balanceOf(address(this)) */\n      mload(0x40)\n      dup3\n      0xffffffff\n      and\n      0xe0\n      shl\n      dup2\n      mstore\n      0x04\n      add\n      tag_48\n      swap2\n      swap1\n      tag_49\n      jump\t// in\n    tag_48:\n      0x20\n      mload(0x40)\n      dup1\n      dup4\n      sub\n      dup2\n      dup7\n      gas\n      staticcall\n      iszero\n      dup1\n      iszero\n      tag_51\n      jumpi\n      returndatasize\n      0x00\n      dup1\n      returndatacopy\n      revert(0x00, returndatasize)\n    tag_51:\n      pop\n      pop\n      pop\n      pop\n      mload(0x40)\n      returndatasize\n      not(0x1f)\n      0x1f\n      dup3\n      add\n      and\n      dup3\n      add\n      dup1\n      0x40\n      mstore\n      pop\n      dup2\n      add\n      swap1\n      tag_52\n      swap2\n      swap1\n      tag_53\n      jump\t// in\n    tag_52:\n        /* \"minerpunk/treasury.sol\":1391:1445  uint256 invertory = minePower.balanceOf(address(this)) */\n      swap1\n      pop\n        /* \"minerpunk/treasury.sol\":1454:1463  uint unit */\n      0x00\n        /* \"minerpunk/treasury.sol\":1466:1481  _unit.mul(1e18) */\n      tag_54\n        /* \"minerpunk/treasury.sol\":1476:1480  1e18 */\n      0x0de0b6b3a7640000\n        /* \"minerpunk/treasury.sol\":1466:1471  _unit */\n      dup6\n        /* \"minerpunk/treasury.sol\":1466:1475  _unit.mul */\n      tag_55\n      swap1\n        /* \"minerpunk/treasury.sol\":1466:1481  _unit.mul(1e18) */\n      swap2\n      swap1\n      0xffffffff\n      and\n      jump\t// in\n    tag_54:\n        /* \"minerpunk/treasury.sol\":1454:1481  uint unit = _unit.mul(1e18) */\n      swap1\n      pop\n        /* \"minerpunk/treasury.sol\":1494:1503  uint256 a */\n      0x00\n        /* \"minerpunk/treasury.sol\":1506:1535  invertory.sub(unit).add(1e18) */\n      tag_56\n        /* \"minerpunk/treasury.sol\":1530:1534  1e18 */\n      0x0de0b6b3a7640000\n        /* \"minerpunk/treasury.sol\":1506:1525  invertory.sub(unit) */\n      tag_57\n        /* \"minerpunk/treasury.sol\":1520:1524  unit */\n      dup5\n        /* \"minerpunk/treasury.sol\":1506:1515  invertory */\n      dup7\n        /* \"minerpunk/treasury.sol\":1506:1519  invertory.sub */\n      tag_58\n      swap1\n        /* \"minerpunk/treasury.sol\":1506:1525  invertory.sub(unit) */\n      swap2\n      swap1\n      0xffffffff\n      and\n      jump\t// in\n    tag_57:\n        /* \"minerpunk/treasury.sol\":1506:1529  invertory.sub(unit).add */\n      tag_59\n      swap1\n        /* \"minerpunk/treasury.sol\":1506:1535  invertory.sub(unit).add(1e18) */\n      swap2\n      swap1\n      0xffffffff\n      and\n      jump\t// in\n    tag_56:\n        /* \"minerpunk/treasury.sol\":1494:1535  uint256 a = invertory.sub(unit).add(1e18) */\n      swap1\n      pop\n        /* \"minerpunk/treasury.sol\":1544:1555  uint256 top */\n      0x00\n        /* \"minerpunk/treasury.sol\":1558:1574  Quote(invertory) */\n      tag_60\n        /* \"minerpunk/treasury.sol\":1564:1573  invertory */\n      dup5\n        /* \"minerpunk/treasury.sol\":1558:1563  Quote */\n      tag_21\n        /* \"minerpunk/treasury.sol\":1558:1574  Quote(invertory) */\n      jump\t// in\n    tag_60:\n        /* \"minerpunk/treasury.sol\":1544:1574  uint256 top = Quote(invertory) */\n      swap1\n      pop\n        /* \"minerpunk/treasury.sol\":1583:1597  uint256 bottom */\n      0x00\n        /* \"minerpunk/treasury.sol\":1600:1608  Quote(a) */\n      tag_61\n        /* \"minerpunk/treasury.sol\":1606:1607  a */\n      dup4\n        /* \"minerpunk/treasury.sol\":1600:1605  Quote */\n      tag_21\n        /* \"minerpunk/treasury.sol\":1600:1608  Quote(a) */\n      jump\t// in\n    tag_61:\n        /* \"minerpunk/treasury.sol\":1583:1608  uint256 bottom = Quote(a) */\n      swap1\n      pop\n        /* \"minerpunk/treasury.sol\":1617:1626  uint256 b */\n      0x00\n        /* \"minerpunk/treasury.sol\":1650:1651  2 */\n      0x02\n        /* \"minerpunk/treasury.sol\":1643:1648  _unit */\n      dup9\n        /* \"minerpunk/treasury.sol\":1634:1640  bottom */\n      dup4\n        /* \"minerpunk/treasury.sol\":1630:1633  top */\n      dup6\n        /* \"minerpunk/treasury.sol\":1630:1640  top+bottom */\n      tag_62\n      swap2\n      swap1\n      tag_63\n      jump\t// in\n    tag_62:\n        /* \"minerpunk/treasury.sol\":1629:1649  (top+bottom)*(_unit) */\n      tag_64\n      swap2\n      swap1\n      tag_65\n      jump\t// in\n    tag_64:\n        /* \"minerpunk/treasury.sol\":1629:1651  (top+bottom)*(_unit)/2 */\n      tag_66\n      swap2\n      swap1\n      tag_67\n      jump\t// in\n    tag_66:\n        /* \"minerpunk/treasury.sol\":1617:1651  uint256 b = (top+bottom)*(_unit)/2 */\n      swap1\n      pop\n        /* \"minerpunk/treasury.sol\":1667:1668  b */\n      dup1\n        /* \"minerpunk/treasury.sol\":1660:1668  return b */\n      swap7\n      pop\n      pop\n      pop\n      pop\n      pop\n      pop\n      pop\n        /* \"minerpunk/treasury.sol\":1324:1674  function market(uint256 _unit)public view returns(uint256){... */\n      swap2\n      swap1\n      pop\n      jump\t// out\n        /* \"minerpunk/treasury.sol\":1684:1780  function Quote(uint256 _invertory)public view returns(uint256){... */\n    tag_21:\n        /* \"minerpunk/treasury.sol\":1738:1745  uint256 */\n      0x00\n        /* \"minerpunk/treasury.sol\":1764:1774  _invertory */\n      dup2\n        /* \"minerpunk/treasury.sol\":1762:1763  k */\n      sload(0x05)\n        /* \"minerpunk/treasury.sol\":1762:1774  k/_invertory */\n      tag_69\n      swap2\n      swap1\n      tag_67\n      jump\t// in\n    tag_69:\n        /* \"minerpunk/treasury.sol\":1755:1774  return k/_invertory */\n      swap1\n      pop\n        /* \"minerpunk/treasury.sol\":1684:1780  function Quote(uint256 _invertory)public view returns(uint256){... */\n      swap2\n      swap1\n      pop\n      jump\t// out\n        /* \"minerpunk/treasury.sol\":2129:2387  function ETH_DCF(uint256 dcf_amount)public view returns(uint256){... */\n    tag_26:\n        /* \"minerpunk/treasury.sol\":2185:2192  uint256 */\n      0x00\n        /* \"minerpunk/treasury.sol\":2200:2219  uint256 _eth_amount */\n      dup1\n        /* \"minerpunk/treasury.sol\":2222:2243  address(this).balance */\n      selfbalance\n        /* \"minerpunk/treasury.sol\":2200:2243  uint256 _eth_amount = address(this).balance */\n      swap1\n      pop\n        /* \"minerpunk/treasury.sol\":2250:2269  uint256 _dcf_amount */\n      0x00\n        /* \"minerpunk/treasury.sol\":2272:2277  dcoff */\n      dup1\n      0x00\n      swap1\n      sload\n      swap1\n      0x0100\n      exp\n      swap1\n      div\n      0xffffffffffffffffffffffffffffffffffffffff\n      and\n        /* \"minerpunk/treasury.sol\":2272:2289  dcoff.totalSupply */\n      0xffffffffffffffffffffffffffffffffffffffff\n      and\n      0x18160ddd\n        /* \"minerpunk/treasury.sol\":2272:2291  dcoff.totalSupply() */\n      mload(0x40)\n      dup2\n      0xffffffff\n      and\n      0xe0\n      shl\n      dup2\n      mstore\n      0x04\n      add\n      0x20\n      mload(0x40)\n      dup1\n      dup4\n      sub\n      dup2\n      dup7\n      gas\n      staticcall\n      iszero\n      dup1\n      iszero\n      tag_72\n      jumpi\n      returndatasize\n      0x00\n      dup1\n      returndatacopy\n      revert(0x00, returndatasize)\n    tag_72:\n      pop\n      pop\n      pop\n      pop\n      mload(0x40)\n      returndatasize\n      not(0x1f)\n      0x1f\n      dup3\n      add\n      and\n      dup3\n      add\n      dup1\n      0x40\n      mstore\n      pop\n      dup2\n      add\n      swap1\n      tag_73\n      swap2\n      swap1\n      tag_53\n      jump\t// in\n    tag_73:\n        /* \"minerpunk/treasury.sol\":2250:2291  uint256 _dcf_amount = dcoff.totalSupply() */\n      swap1\n      pop\n        /* \"minerpunk/treasury.sol\":2300:2314  uint256 _price */\n      0x00\n        /* \"minerpunk/treasury.sol\":2317:2361  dcf_amount.mul(_eth_amount).div(_dcf_amount) */\n      tag_74\n        /* \"minerpunk/treasury.sol\":2349:2360  _dcf_amount */\n      dup3\n        /* \"minerpunk/treasury.sol\":2317:2344  dcf_amount.mul(_eth_amount) */\n      tag_75\n        /* \"minerpunk/treasury.sol\":2332:2343  _eth_amount */\n      dup6\n        /* \"minerpunk/treasury.sol\":2317:2327  dcf_amount */\n      dup9\n        /* \"minerpunk/treasury.sol\":2317:2331  dcf_amount.mul */\n      tag_55\n      swap1\n        /* \"minerpunk/treasury.sol\":2317:2344  dcf_amount.mul(_eth_amount) */\n      swap2\n      swap1\n      0xffffffff\n      and\n      jump\t// in\n    tag_75:\n        /* \"minerpunk/treasury.sol\":2317:2348  dcf_amount.mul(_eth_amount).div */\n      tag_76\n      swap1\n        /* \"minerpunk/treasury.sol\":2317:2361  dcf_amount.mul(_eth_amount).div(_dcf_amount) */\n      swap2\n      swap1\n      0xffffffff\n      and\n      jump\t// in\n    tag_74:\n        /* \"minerpunk/treasury.sol\":2300:2361  uint256 _price = dcf_amount.mul(_eth_amount).div(_dcf_amount) */\n      swap1\n      pop\n        /* \"minerpunk/treasury.sol\":2375:2381  _price */\n      dup1\n        /* \"minerpunk/treasury.sol\":2368:2381  return _price */\n      swap4\n      pop\n      pop\n      pop\n      pop\n        /* \"minerpunk/treasury.sol\":2129:2387  function ETH_DCF(uint256 dcf_amount)public view returns(uint256){... */\n      swap2\n      swap1\n      pop\n      jump\t// out\n        /* \"minerpunk/treasury.sol\":948:1050  function setRouter(address user, bool power)external onlyOwner{... */\n    tag_32:\n        /* \"minerpunk/treasury.sol\":871:881  msg.sender */\n      caller\n        /* \"minerpunk/treasury.sol\":862:881  owner == msg.sender */\n      0xffffffffffffffffffffffffffffffffffffffff\n      and\n        /* \"minerpunk/treasury.sol\":862:867  owner */\n      0x04\n      0x00\n      swap1\n      sload\n      swap1\n      0x0100\n      exp\n      swap1\n      div\n      0xffffffffffffffffffffffffffffffffffffffff\n      and\n        /* \"minerpunk/treasury.sol\":862:881  owner == msg.sender */\n      0xffffffffffffffffffffffffffffffffffffffff\n      and\n      eq\n        /* \"minerpunk/treasury.sol\":854:918  require(owner == msg.sender, \"Ownable: caller is not the owner\") */\n      tag_78\n      jumpi\n      mload(0x40)\n      0x08c379a000000000000000000000000000000000000000000000000000000000\n      dup2\n      mstore\n      0x04\n      add\n      tag_79\n      swap1\n      tag_80\n      jump\t// in\n    tag_79:\n      mload(0x40)\n      dup1\n      swap2\n      sub\n      swap1\n      revert\n    tag_78:\n        /* \"minerpunk/treasury.sol\":1039:1044  power */\n      dup1\n        /* \"minerpunk/treasury.sol\":1019:1030  RouterAdmin */\n      0x06\n        /* \"minerpunk/treasury.sol\":1019:1036  RouterAdmin[user] */\n      0x00\n        /* \"minerpunk/treasury.sol\":1031:1035  user */\n      dup5\n        /* \"minerpunk/treasury.sol\":1019:1036  RouterAdmin[user] */\n      0xffffffffffffffffffffffffffffffffffffffff\n      and\n      0xffffffffffffffffffffffffffffffffffffffff\n      and\n      dup2\n      mstore\n      0x20\n      add\n      swap1\n      dup2\n      mstore\n      0x20\n      add\n      0x00\n      keccak256\n      0x00\n        /* \"minerpunk/treasury.sol\":1019:1044  RouterAdmin[user] = power */\n      0x0100\n      exp\n      dup2\n      sload\n      dup2\n      0xff\n      mul\n      not\n      and\n      swap1\n      dup4\n      iszero\n      iszero\n      mul\n      or\n      swap1\n      sstore\n      pop\n        /* \"minerpunk/treasury.sol\":948:1050  function setRouter(address user, bool power)external onlyOwner{... */\n      pop\n      pop\n      jump\t// out\n        /* \"minerpunk/treasury.sol\":1058:1147  function deposit()external payable{... */\n    tag_34:\n        /* \"minerpunk/treasury.sol\":1136:1140  true */\n      0x01\n        /* \"minerpunk/treasury.sol\":1109:1140  RouterAdmin[msg.sender] == true */\n      iszero\n      iszero\n        /* \"minerpunk/treasury.sol\":1109:1120  RouterAdmin */\n      0x06\n        /* \"minerpunk/treasury.sol\":1109:1132  RouterAdmin[msg.sender] */\n      0x00\n        /* \"minerpunk/treasury.sol\":1121:1131  msg.sender */\n      caller\n        /* \"minerpunk/treasury.sol\":1109:1132  RouterAdmin[msg.sender] */\n      0xffffffffffffffffffffffffffffffffffffffff\n      and\n      0xffffffffffffffffffffffffffffffffffffffff\n      and\n      dup2\n      mstore\n      0x20\n      add\n      swap1\n      dup2\n      mstore\n      0x20\n      add\n      0x00\n      keccak256\n      0x00\n      swap1\n      sload\n      swap1\n      0x0100\n      exp\n      swap1\n      div\n      0xff\n      and\n        /* \"minerpunk/treasury.sol\":1109:1140  RouterAdmin[msg.sender] == true */\n      iszero\n      iszero\n      eq\n        /* \"minerpunk/treasury.sol\":1101:1141  require(RouterAdmin[msg.sender] == true) */\n      tag_83\n      jumpi\n      0x00\n      dup1\n      revert\n    tag_83:\n        /* \"minerpunk/treasury.sol\":1058:1147  function deposit()external payable{... */\n      jump\t// out\n        /* \"minerpunk/treasury.sol\":1797:2121  function market(address from ,address payable to, uint256 dcf_amount)external {... */\n    tag_39:\n        /* \"minerpunk/treasury.sol\":1919:1923  true */\n      0x01\n        /* \"minerpunk/treasury.sol\":1892:1923  RouterAdmin[msg.sender] == true */\n      iszero\n      iszero\n        /* \"minerpunk/treasury.sol\":1892:1903  RouterAdmin */\n      0x06\n        /* \"minerpunk/treasury.sol\":1892:1915  RouterAdmin[msg.sender] */\n      0x00\n        /* \"minerpunk/treasury.sol\":1904:1914  msg.sender */\n      caller\n        /* \"minerpunk/treasury.sol\":1892:1915  RouterAdmin[msg.sender] */\n      0xffffffffffffffffffffffffffffffffffffffff\n      and\n      0xffffffffffffffffffffffffffffffffffffffff\n      and\n      dup2\n      mstore\n      0x20\n      add\n      swap1\n      dup2\n      mstore\n      0x20\n      add\n      0x00\n      keccak256\n      0x00\n      swap1\n      sload\n      swap1\n      0x0100\n      exp\n      swap1\n      div\n      0xff\n      and\n        /* \"minerpunk/treasury.sol\":1892:1923  RouterAdmin[msg.sender] == true */\n      iszero\n      iszero\n      eq\n        /* \"minerpunk/treasury.sol\":1884:1924  require(RouterAdmin[msg.sender] == true) */\n      tag_85\n      jumpi\n      0x00\n      dup1\n      revert\n    tag_85:\n        /* \"minerpunk/treasury.sol\":1966:1976  dcf_amount */\n      dup1\n        /* \"minerpunk/treasury.sol\":1941:1946  dcoff */\n      0x00\n      dup1\n      sload\n      swap1\n      0x0100\n      exp\n      swap1\n      div\n      0xffffffffffffffffffffffffffffffffffffffff\n      and\n        /* \"minerpunk/treasury.sol\":1941:1956  dcoff.balanceOf */\n      0xffffffffffffffffffffffffffffffffffffffff\n      and\n      0x70a08231\n        /* \"minerpunk/treasury.sol\":1957:1961  from */\n      dup6\n        /* \"minerpunk/treasury.sol\":1941:1962  dcoff.balanceOf(from) */\n      mload(0x40)\n      dup3\n      0xffffffff\n      and\n      0xe0\n      shl\n      dup2\n      mstore\n      0x04\n      add\n      tag_86\n      swap2\n      swap1\n      tag_49\n      jump\t// in\n    tag_86:\n      0x20\n      mload(0x40)\n      dup1\n      dup4\n      sub\n      dup2\n      dup7\n      gas\n      staticcall\n      iszero\n      dup1\n      iszero\n      tag_88\n      jumpi\n      returndatasize\n      0x00\n      dup1\n      returndatacopy\n      revert(0x00, returndatasize)\n    tag_88:\n      pop\n      pop\n      pop\n      pop\n      mload(0x40)\n      returndatasize\n      not(0x1f)\n      0x1f\n      dup3\n      add\n      and\n      dup3\n      add\n      dup1\n      0x40\n      mstore\n      pop\n      dup2\n      add\n      swap1\n      tag_89\n      swap2\n      swap1\n      tag_53\n      jump\t// in\n    tag_89:\n        /* \"minerpunk/treasury.sol\":1941:1976  dcoff.balanceOf(from) >= dcf_amount */\n      lt\n      iszero\n        /* \"minerpunk/treasury.sol\":1933:1977  require(dcoff.balanceOf(from) >= dcf_amount) */\n      tag_90\n      jumpi\n      0x00\n      dup1\n      revert\n    tag_90:\n        /* \"minerpunk/treasury.sol\":1988:2006  uint256 eth_amount */\n      0x00\n        /* \"minerpunk/treasury.sol\":2008:2027  ETH_DCF(dcf_amount) */\n      tag_91\n        /* \"minerpunk/treasury.sol\":2016:2026  dcf_amount */\n      dup3\n        /* \"minerpunk/treasury.sol\":2008:2015  ETH_DCF */\n      tag_26\n        /* \"minerpunk/treasury.sol\":2008:2027  ETH_DCF(dcf_amount) */\n      jump\t// in\n    tag_91:\n        /* \"minerpunk/treasury.sol\":1988:2027  uint256 eth_amount =ETH_DCF(dcf_amount) */\n      swap1\n      pop\n        /* \"minerpunk/treasury.sol\":2042:2044  to */\n      dup3\n        /* \"minerpunk/treasury.sol\":2042:2053  to.transfer */\n      0xffffffffffffffffffffffffffffffffffffffff\n      and\n        /* \"minerpunk/treasury.sol\":2042:2065  to.transfer(eth_amount) */\n      0x08fc\n        /* \"minerpunk/treasury.sol\":2054:2064  eth_amount */\n      dup3\n        /* \"minerpunk/treasury.sol\":2042:2065  to.transfer(eth_amount) */\n      swap1\n      dup2\n      iszero\n      mul\n      swap1\n      mload(0x40)\n      0x00\n      mload(0x40)\n      dup1\n      dup4\n      sub\n      dup2\n      dup6\n      dup9\n      dup9\n      call\n      swap4\n      pop\n      pop\n      pop\n      pop\n      iszero\n      dup1\n      iszero\n      tag_93\n      jumpi\n      returndatasize\n      0x00\n      dup1\n      returndatacopy\n      revert(0x00, returndatasize)\n    tag_93:\n      pop\n        /* \"minerpunk/treasury.sol\":2074:2083  dcoffburn */\n      0x01\n      0x00\n      swap1\n      sload\n      swap1\n      0x0100\n      exp\n      swap1\n      div\n      0xffffffffffffffffffffffffffffffffffffffff\n      and\n        /* \"minerpunk/treasury.sol\":2074:2092  dcoffburn.burnFrom */\n      0xffffffffffffffffffffffffffffffffffffffff\n      and\n      0x79cc6790\n        /* \"minerpunk/treasury.sol\":2093:2097  from */\n      dup6\n        /* \"minerpunk/treasury.sol\":2098:2108  dcf_amount */\n      dup5\n        /* \"minerpunk/treasury.sol\":2074:2109  dcoffburn.burnFrom(from,dcf_amount) */\n      mload(0x40)\n      dup4\n      0xffffffff\n      and\n      0xe0\n      shl\n      dup2\n      mstore\n      0x04\n      add\n      tag_94\n      swap3\n      swap2\n      swap1\n      tag_95\n      jump\t// in\n    tag_94:\n      0x00\n      mload(0x40)\n      dup1\n      dup4\n      sub\n      dup2\n      0x00\n      dup8\n      dup1\n      extcodesize\n      iszero\n      dup1\n      iszero\n      tag_96\n      jumpi\n      0x00\n      dup1\n      revert\n    tag_96:\n      pop\n      gas\n      call\n      iszero\n      dup1\n      iszero\n      tag_98\n      jumpi\n      returndatasize\n      0x00\n      dup1\n      returndatacopy\n      revert(0x00, returndatasize)\n    tag_98:\n      pop\n      pop\n      pop\n      pop\n        /* \"minerpunk/treasury.sol\":1875:2121  {... */\n      pop\n        /* \"minerpunk/treasury.sol\":1797:2121  function market(address from ,address payable to, uint256 dcf_amount)external {... */\n      pop\n      pop\n      pop\n      jump\t// out\n        /* \"minerpunk/treasury.sol\":2398:2501  function Warning_protect()external onlyOwner{... */\n    tag_42:\n        /* \"minerpunk/treasury.sol\":871:881  msg.sender */\n      caller\n        /* \"minerpunk/treasury.sol\":862:881  owner == msg.sender */\n      0xffffffffffffffffffffffffffffffffffffffff\n      and\n        /* \"minerpunk/treasury.sol\":862:867  owner */\n      0x04\n      0x00\n      swap1\n      sload\n      swap1\n      0x0100\n      exp\n      swap1\n      div\n      0xffffffffffffffffffffffffffffffffffffffff\n      and\n        /* \"minerpunk/treasury.sol\":862:881  owner == msg.sender */\n      0xffffffffffffffffffffffffffffffffffffffff\n      and\n      eq\n        /* \"minerpunk/treasury.sol\":854:918  require(owner == msg.sender, \"Ownable: caller is not the owner\") */\n      tag_100\n      jumpi\n      mload(0x40)\n      0x08c379a000000000000000000000000000000000000000000000000000000000\n      dup2\n      mstore\n      0x04\n      add\n      tag_101\n      swap1\n      tag_80\n      jump\t// in\n    tag_101:\n      mload(0x40)\n      dup1\n      swap2\n      sub\n      swap1\n      revert\n    tag_100:\n        /* \"minerpunk/treasury.sol\":2457:2462  owner */\n      0x04\n      0x00\n      swap1\n      sload\n      swap1\n      0x0100\n      exp\n      swap1\n      div\n      0xffffffffffffffffffffffffffffffffffffffff\n      and\n        /* \"minerpunk/treasury.sol\":2449:2472  payable(owner).transfer */\n      0xffffffffffffffffffffffffffffffffffffffff\n      and\n        /* \"minerpunk/treasury.sol\":2449:2495  payable(owner).transfer(address(this).balance) */\n      0x08fc\n        /* \"minerpunk/treasury.sol\":2473:2494  address(this).balance */\n      selfbalance\n        /* \"minerpunk/treasury.sol\":2449:2495  payable(owner).transfer(address(this).balance) */\n      swap1\n      dup2\n      iszero\n      mul\n      swap1\n      mload(0x40)\n      0x00\n      mload(0x40)\n      dup1\n      dup4\n      sub\n      dup2\n      dup6\n      dup9\n      dup9\n      call\n      swap4\n      pop\n      pop\n      pop\n      pop\n      iszero\n      dup1\n      iszero\n      tag_104\n      jumpi\n      returndatasize\n      0x00\n      dup1\n      returndatacopy\n      revert(0x00, returndatasize)\n    tag_104:\n      pop\n        /* \"minerpunk/treasury.sol\":2398:2501  function Warning_protect()external onlyOwner{... */\n      jump\t// out\n        /* \"minerpunk/treasury.sol\":1157:1316  function purchasePower(address user, uint256 _unit)external payable{... */\n    tag_46:\n        /* \"minerpunk/treasury.sol\":1233:1246  uint256 price */\n      0x00\n        /* \"minerpunk/treasury.sol\":1249:1262  market(_unit) */\n      tag_106\n        /* \"minerpunk/treasury.sol\":1256:1261  _unit */\n      dup3\n        /* \"minerpunk/treasury.sol\":1249:1255  market */\n      tag_15\n        /* \"minerpunk/treasury.sol\":1249:1262  market(_unit) */\n      jump\t// in\n    tag_106:\n        /* \"minerpunk/treasury.sol\":1233:1262  uint256 price = market(_unit) */\n      swap1\n      pop\n        /* \"minerpunk/treasury.sol\":1292:1297  price */\n      dup1\n        /* \"minerpunk/treasury.sol\":1279:1288  msg.value */\n      callvalue\n        /* \"minerpunk/treasury.sol\":1279:1297  msg.value >= price */\n      lt\n      iszero\n        /* \"minerpunk/treasury.sol\":1271:1298  require(msg.value >= price) */\n      tag_107\n      jumpi\n      0x00\n      dup1\n      revert\n    tag_107:\n        /* \"minerpunk/treasury.sol\":1224:1316  {... */\n      pop\n        /* \"minerpunk/treasury.sol\":1157:1316  function purchasePower(address user, uint256 _unit)external payable{... */\n      pop\n      pop\n      jump\t// out\n        /* \"@openzeppelin/contracts/utils/math/SafeMath.sol\":3465:3561  function mul(uint256 a, uint256 b) internal pure returns (uint256) {... */\n    tag_55:\n        /* \"@openzeppelin/contracts/utils/math/SafeMath.sol\":3523:3530  uint256 */\n      0x00\n        /* \"@openzeppelin/contracts/utils/math/SafeMath.sol\":3553:3554  b */\n      dup2\n        /* \"@openzeppelin/contracts/utils/math/SafeMath.sol\":3549:3550  a */\n      dup4\n        /* \"@openzeppelin/contracts/utils/math/SafeMath.sol\":3549:3554  a * b */\n      tag_109\n      swap2\n      swap1\n      tag_65\n      jump\t// in\n    tag_109:\n        /* \"@openzeppelin/contracts/utils/math/SafeMath.sol\":3542:3554  return a * b */\n      swap1\n      pop\n        /* \"@openzeppelin/contracts/utils/math/SafeMath.sol\":3465:3561  function mul(uint256 a, uint256 b) internal pure returns (uint256) {... */\n      swap3\n      swap2\n      pop\n      pop\n      jump\t// out\n        /* \"@openzeppelin/contracts/utils/math/SafeMath.sol\":3122:3218  function sub(uint256 a, uint256 b) internal pure returns (uint256) {... */\n    tag_58:\n        /* \"@openzeppelin/contracts/utils/math/SafeMath.sol\":3180:3187  uint256 */\n      0x00\n        /* \"@openzeppelin/contracts/utils/math/SafeMath.sol\":3210:3211  b */\n      dup2\n        /* \"@openzeppelin/contracts/utils/math/SafeMath.sol\":3206:3207  a */\n      dup4\n        /* \"@openzeppelin/contracts/utils/math/SafeMath.sol\":3206:3211  a - b */\n      tag_111\n      swap2\n      swap1\n      tag_112\n      jump\t// in\n    tag_111:\n        /* \"@openzeppelin/contracts/utils/math/SafeMath.sol\":3199:3211  return a - b */\n      swap1\n      pop\n        /* \"@openzeppelin/contracts/utils/math/SafeMath.sol\":3122:3218  function sub(uint256 a, uint256 b) internal pure returns (uint256) {... */\n      swap3\n      swap2\n      pop\n      pop\n      jump\t// out\n        /* \"@openzeppelin/contracts/utils/math/SafeMath.sol\":2755:2851  function add(uint256 a, uint256 b) internal pure returns (uint256) {... */\n    tag_59:\n        /* \"@openzeppelin/contracts/utils/math/SafeMath.sol\":2813:2820  uint256 */\n      0x00\n        /* \"@openzeppelin/contracts/utils/math/SafeMath.sol\":2843:2844  b */\n      dup2\n        /* \"@openzeppelin/contracts/utils/math/SafeMath.sol\":2839:2840  a */\n      dup4\n        /* \"@openzeppelin/contracts/utils/math/SafeMath.sol\":2839:2844  a + b */\n      tag_114\n      swap2\n      swap1\n      tag_63\n      jump\t// in\n    tag_114:\n        /* \"@openzeppelin/contracts/utils/math/SafeMath.sol\":2832:2844  return a + b */\n      swap1\n      pop\n        /* \"@openzeppelin/contracts/utils/math/SafeMath.sol\":2755:2851  function add(uint256 a, uint256 b) internal pure returns (uint256) {... */\n      swap3\n      swap2\n      pop\n      pop\n      jump\t// out\n        /* \"@openzeppelin/contracts/utils/math/SafeMath.sol\":3850:3946  function div(uint256 a, uint256 b) internal pure returns (uint256) {... */\n    tag_76:\n        /* \"@openzeppelin/contracts/utils/math/SafeMath.sol\":3908:3915  uint256 */\n      0x00\n        /* \"@openzeppelin/contracts/utils/math/SafeMath.sol\":3938:3939  b */\n      dup2\n        /* \"@openzeppelin/contracts/utils/math/SafeMath.sol\":3934:3935  a */\n      dup4\n        /* \"@openzeppelin/contracts/utils/math/SafeMath.sol\":3934:3939  a / b */\n      tag_116\n      swap2\n      swap1\n      tag_67\n      jump\t// in\n    tag_116:\n        /* \"@openzeppelin/contracts/utils/math/SafeMath.sol\":3927:3939  return a / b */\n      swap1\n      pop\n        /* \"@openzeppelin/contracts/utils/math/SafeMath.sol\":3850:3946  function div(uint256 a, uint256 b) internal pure returns (uint256) {... */\n      swap3\n      swap2\n      pop\n      pop\n      jump\t// out\n        /* \"#utility.yul\":88:205   */\n    tag_118:\n        /* \"#utility.yul\":197:198   */\n      0x00\n        /* \"#utility.yul\":194:195   */\n      dup1\n        /* \"#utility.yul\":187:199   */\n      revert\n        /* \"#utility.yul\":334:411   */\n    tag_120:\n        /* \"#utility.yul\":371:378   */\n      0x00\n        /* \"#utility.yul\":400:405   */\n      dup2\n        /* \"#utility.yul\":389:405   */\n      swap1\n      pop\n        /* \"#utility.yul\":334:411   */\n      swap2\n      swap1\n      pop\n      jump\t// out\n        /* \"#utility.yul\":417:539   */\n    tag_121:\n        /* \"#utility.yul\":490:514   */\n      tag_147\n        /* \"#utility.yul\":508:513   */\n      dup2\n        /* \"#utility.yul\":490:514   */\n      tag_120\n      jump\t// in\n    tag_147:\n        /* \"#utility.yul\":483:488   */\n      dup2\n        /* \"#utility.yul\":480:515   */\n      eq\n        /* \"#utility.yul\":470:533   */\n      tag_148\n      jumpi\n        /* \"#utility.yul\":529:530   */\n      0x00\n        /* \"#utility.yul\":526:527   */\n      dup1\n        /* \"#utility.yul\":519:531   */\n      revert\n        /* \"#utility.yul\":470:533   */\n    tag_148:\n        /* \"#utility.yul\":417:539   */\n      pop\n      jump\t// out\n        /* \"#utility.yul\":545:684   */\n    tag_122:\n        /* \"#utility.yul\":591:596   */\n      0x00\n        /* \"#utility.yul\":629:635   */\n      dup2\n        /* \"#utility.yul\":616:636   */\n      calldataload\n        /* \"#utility.yul\":607:636   */\n      swap1\n      pop\n        /* \"#utility.yul\":645:678   */\n      tag_150\n        /* \"#utility.yul\":672:677   */\n      dup2\n        /* \"#utility.yul\":645:678   */\n      tag_121\n      jump\t// in\n    tag_150:\n        /* \"#utility.yul\":545:684   */\n      swap3\n      swap2\n      pop\n      pop\n      jump\t// out\n        /* \"#utility.yul\":690:1019   */\n    tag_14:\n        /* \"#utility.yul\":749:755   */\n      0x00\n        /* \"#utility.yul\":798:800   */\n      0x20\n        /* \"#utility.yul\":786:795   */\n      dup3\n        /* \"#utility.yul\":777:784   */\n      dup5\n        /* \"#utility.yul\":773:796   */\n      sub\n        /* \"#utility.yul\":769:801   */\n      slt\n        /* \"#utility.yul\":766:885   */\n      iszero\n      tag_152\n      jumpi\n        /* \"#utility.yul\":804:883   */\n      tag_153\n      tag_118\n      jump\t// in\n    tag_153:\n        /* \"#utility.yul\":766:885   */\n    tag_152:\n        /* \"#utility.yul\":924:925   */\n      0x00\n        /* \"#utility.yul\":949:1002   */\n      tag_154\n        /* \"#utility.yul\":994:1001   */\n      dup5\n        /* \"#utility.yul\":985:991   */\n      dup3\n        /* \"#utility.yul\":974:983   */\n      dup6\n        /* \"#utility.yul\":970:992   */\n      add\n        /* \"#utility.yul\":949:1002   */\n      tag_122\n      jump\t// in\n    tag_154:\n        /* \"#utility.yul\":939:1002   */\n      swap2\n      pop\n        /* \"#utility.yul\":895:1012   */\n      pop\n        /* \"#utility.yul\":690:1019   */\n      swap3\n      swap2\n      pop\n      pop\n      jump\t// out\n        /* \"#utility.yul\":1025:1143   */\n    tag_123:\n        /* \"#utility.yul\":1112:1136   */\n      tag_156\n        /* \"#utility.yul\":1130:1135   */\n      dup2\n        /* \"#utility.yul\":1112:1136   */\n      tag_120\n      jump\t// in\n    tag_156:\n        /* \"#utility.yul\":1107:1110   */\n      dup3\n        /* \"#utility.yul\":1100:1137   */\n      mstore\n        /* \"#utility.yul\":1025:1143   */\n      pop\n      pop\n      jump\t// out\n        /* \"#utility.yul\":1149:1371   */\n    tag_17:\n        /* \"#utility.yul\":1242:1246   */\n      0x00\n        /* \"#utility.yul\":1280:1282   */\n      0x20\n        /* \"#utility.yul\":1269:1278   */\n      dup3\n        /* \"#utility.yul\":1265:1283   */\n      add\n        /* \"#utility.yul\":1257:1283   */\n      swap1\n      pop\n        /* \"#utility.yul\":1293:1364   */\n      tag_158\n        /* \"#utility.yul\":1361:1362   */\n      0x00\n        /* \"#utility.yul\":1350:1359   */\n      dup4\n        /* \"#utility.yul\":1346:1363   */\n      add\n        /* \"#utility.yul\":1337:1343   */\n      dup5\n        /* \"#utility.yul\":1293:1364   */\n      tag_123\n      jump\t// in\n    tag_158:\n        /* \"#utility.yul\":1149:1371   */\n      swap3\n      swap2\n      pop\n      pop\n      jump\t// out\n        /* \"#utility.yul\":1377:1503   */\n    tag_124:\n        /* \"#utility.yul\":1414:1421   */\n      0x00\n        /* \"#utility.yul\":1454:1496   */\n      0xffffffffffffffffffffffffffffffffffffffff\n        /* \"#utility.yul\":1447:1452   */\n      dup3\n        /* \"#utility.yul\":1443:1497   */\n      and\n        /* \"#utility.yul\":1432:1497   */\n      swap1\n      pop\n        /* \"#utility.yul\":1377:1503   */\n      swap2\n      swap1\n      pop\n      jump\t// out\n        /* \"#utility.yul\":1509:1605   */\n    tag_125:\n        /* \"#utility.yul\":1546:1553   */\n      0x00\n        /* \"#utility.yul\":1575:1599   */\n      tag_161\n        /* \"#utility.yul\":1593:1598   */\n      dup3\n        /* \"#utility.yul\":1575:1599   */\n      tag_124\n      jump\t// in\n    tag_161:\n        /* \"#utility.yul\":1564:1599   */\n      swap1\n      pop\n        /* \"#utility.yul\":1509:1605   */\n      swap2\n      swap1\n      pop\n      jump\t// out\n        /* \"#utility.yul\":1611:1733   */\n    tag_126:\n        /* \"#utility.yul\":1684:1708   */\n      tag_163\n        /* \"#utility.yul\":1702:1707   */\n      dup2\n        /* \"#utility.yul\":1684:1708   */\n      tag_125\n      jump\t// in\n    tag_163:\n        /* \"#utility.yul\":1677:1682   */\n      dup2\n        /* \"#utility.yul\":1674:1709   */\n      eq\n        /* \"#utility.yul\":1664:1727   */\n      tag_164\n      jumpi\n        /* \"#utility.yul\":1723:1724   */\n      0x00\n        /* \"#utility.yul\":1720:1721   */\n      dup1\n        /* \"#utility.yul\":1713:1725   */\n      revert\n        /* \"#utility.yul\":1664:1727   */\n    tag_164:\n        /* \"#utility.yul\":1611:1733   */\n      pop\n      jump\t// out\n        /* \"#utility.yul\":1739:1878   */\n    tag_127:\n        /* \"#utility.yul\":1785:1790   */\n      0x00\n        /* \"#utility.yul\":1823:1829   */\n      dup2\n        /* \"#utility.yul\":1810:1830   */\n      calldataload\n        /* \"#utility.yul\":1801:1830   */\n      swap1\n      pop\n        /* \"#utility.yul\":1839:1872   */\n      tag_166\n        /* \"#utility.yul\":1866:1871   */\n      dup2\n        /* \"#utility.yul\":1839:1872   */\n      tag_126\n      jump\t// in\n    tag_166:\n        /* \"#utility.yul\":1739:1878   */\n      swap3\n      swap2\n      pop\n      pop\n      jump\t// out\n        /* \"#utility.yul\":1884:1974   */\n    tag_128:\n        /* \"#utility.yul\":1918:1925   */\n      0x00\n        /* \"#utility.yul\":1961:1966   */\n      dup2\n        /* \"#utility.yul\":1954:1967   */\n      iszero\n        /* \"#utility.yul\":1947:1968   */\n      iszero\n        /* \"#utility.yul\":1936:1968   */\n      swap1\n      pop\n        /* \"#utility.yul\":1884:1974   */\n      swap2\n      swap1\n      pop\n      jump\t// out\n        /* \"#utility.yul\":1980:2096   */\n    tag_129:\n        /* \"#utility.yul\":2050:2071   */\n      tag_169\n        /* \"#utility.yul\":2065:2070   */\n      dup2\n        /* \"#utility.yul\":2050:2071   */\n      tag_128\n      jump\t// in\n    tag_169:\n        /* \"#utility.yul\":2043:2048   */\n      dup2\n        /* \"#utility.yul\":2040:2072   */\n      eq\n        /* \"#utility.yul\":2030:2090   */\n      tag_170\n      jumpi\n        /* \"#utility.yul\":2086:2087   */\n      0x00\n        /* \"#utility.yul\":2083:2084   */\n      dup1\n        /* \"#utility.yul\":2076:2088   */\n      revert\n        /* \"#utility.yul\":2030:2090   */\n    tag_170:\n        /* \"#utility.yul\":1980:2096   */\n      pop\n      jump\t// out\n        /* \"#utility.yul\":2102:2235   */\n    tag_130:\n        /* \"#utility.yul\":2145:2150   */\n      0x00\n        /* \"#utility.yul\":2183:2189   */\n      dup2\n        /* \"#utility.yul\":2170:2190   */\n      calldataload\n        /* \"#utility.yul\":2161:2190   */\n      swap1\n      pop\n        /* \"#utility.yul\":2199:2229   */\n      tag_172\n        /* \"#utility.yul\":2223:2228   */\n      dup2\n        /* \"#utility.yul\":2199:2229   */\n      tag_129\n      jump\t// in\n    tag_172:\n        /* \"#utility.yul\":2102:2235   */\n      swap3\n      swap2\n      pop\n      pop\n      jump\t// out\n        /* \"#utility.yul\":2241:2709   */\n    tag_31:\n        /* \"#utility.yul\":2306:2312   */\n      0x00\n        /* \"#utility.yul\":2314:2320   */\n      dup1\n        /* \"#utility.yul\":2363:2365   */\n      0x40\n        /* \"#utility.yul\":2351:2360   */\n      dup4\n        /* \"#utility.yul\":2342:2349   */\n      dup6\n        /* \"#utility.yul\":2338:2361   */\n      sub\n        /* \"#utility.yul\":2334:2366   */\n      slt\n        /* \"#utility.yul\":2331:2450   */\n      iszero\n      tag_174\n      jumpi\n        /* \"#utility.yul\":2369:2448   */\n      tag_175\n      tag_118\n      jump\t// in\n    tag_175:\n        /* \"#utility.yul\":2331:2450   */\n    tag_174:\n        /* \"#utility.yul\":2489:2490   */\n      0x00\n        /* \"#utility.yul\":2514:2567   */\n      tag_176\n        /* \"#utility.yul\":2559:2566   */\n      dup6\n        /* \"#utility.yul\":2550:2556   */\n      dup3\n        /* \"#utility.yul\":2539:2548   */\n      dup7\n        /* \"#utility.yul\":2535:2557   */\n      add\n        /* \"#utility.yul\":2514:2567   */\n      tag_127\n      jump\t// in\n    tag_176:\n        /* \"#utility.yul\":2504:2567   */\n      swap3\n      pop\n        /* \"#utility.yul\":2460:2577   */\n      pop\n        /* \"#utility.yul\":2616:2618   */\n      0x20\n        /* \"#utility.yul\":2642:2692   */\n      tag_177\n        /* \"#utility.yul\":2684:2691   */\n      dup6\n        /* \"#utility.yul\":2675:2681   */\n      dup3\n        /* \"#utility.yul\":2664:2673   */\n      dup7\n        /* \"#utility.yul\":2660:2682   */\n      add\n        /* \"#utility.yul\":2642:2692   */\n      tag_130\n      jump\t// in\n    tag_177:\n        /* \"#utility.yul\":2632:2692   */\n      swap2\n      pop\n        /* \"#utility.yul\":2587:2702   */\n      pop\n        /* \"#utility.yul\":2241:2709   */\n      swap3\n      pop\n      swap3\n      swap1\n      pop\n      jump\t// out\n        /* \"#utility.yul\":2715:2819   */\n    tag_131:\n        /* \"#utility.yul\":2760:2767   */\n      0x00\n        /* \"#utility.yul\":2789:2813   */\n      tag_179\n        /* \"#utility.yul\":2807:2812   */\n      dup3\n        /* \"#utility.yul\":2789:2813   */\n      tag_124\n      jump\t// in\n    tag_179:\n        /* \"#utility.yul\":2778:2813   */\n      swap1\n      pop\n        /* \"#utility.yul\":2715:2819   */\n      swap2\n      swap1\n      pop\n      jump\t// out\n        /* \"#utility.yul\":2825:2963   */\n    tag_132:\n        /* \"#utility.yul\":2906:2938   */\n      tag_181\n        /* \"#utility.yul\":2932:2937   */\n      dup2\n        /* \"#utility.yul\":2906:2938   */\n      tag_131\n      jump\t// in\n    tag_181:\n        /* \"#utility.yul\":2899:2904   */\n      dup2\n        /* \"#utility.yul\":2896:2939   */\n      eq\n        /* \"#utility.yul\":2886:2957   */\n      tag_182\n      jumpi\n        /* \"#utility.yul\":2953:2954   */\n      0x00\n        /* \"#utility.yul\":2950:2951   */\n      dup1\n        /* \"#utility.yul\":2943:2955   */\n      revert\n        /* \"#utility.yul\":2886:2957   */\n    tag_182:\n        /* \"#utility.yul\":2825:2963   */\n      pop\n      jump\t// out\n        /* \"#utility.yul\":2969:3124   */\n    tag_133:\n        /* \"#utility.yul\":3023:3028   */\n      0x00\n        /* \"#utility.yul\":3061:3067   */\n      dup2\n        /* \"#utility.yul\":3048:3068   */\n      calldataload\n        /* \"#utility.yul\":3039:3068   */\n      swap1\n      pop\n        /* \"#utility.yul\":3077:3118   */\n      tag_184\n        /* \"#utility.yul\":3112:3117   */\n      dup2\n        /* \"#utility.yul\":3077:3118   */\n      tag_132\n      jump\t// in\n    tag_184:\n        /* \"#utility.yul\":2969:3124   */\n      swap3\n      swap2\n      pop\n      pop\n      jump\t// out\n        /* \"#utility.yul\":3130:3765   */\n    tag_38:\n        /* \"#utility.yul\":3215:3221   */\n      0x00\n        /* \"#utility.yul\":3223:3229   */\n      dup1\n        /* \"#utility.yul\":3231:3237   */\n      0x00\n        /* \"#utility.yul\":3280:3282   */\n      0x60\n        /* \"#utility.yul\":3268:3277   */\n      dup5\n        /* \"#utility.yul\":3259:3266   */\n      dup7\n        /* \"#utility.yul\":3255:3278   */\n      sub\n        /* \"#utility.yul\":3251:3283   */\n      slt\n        /* \"#utility.yul\":3248:3367   */\n      iszero\n      tag_186\n      jumpi\n        /* \"#utility.yul\":3286:3365   */\n      tag_187\n      tag_118\n      jump\t// in\n    tag_187:\n        /* \"#utility.yul\":3248:3367   */\n    tag_186:\n        /* \"#utility.yul\":3406:3407   */\n      0x00\n        /* \"#utility.yul\":3431:3484   */\n      tag_188\n        /* \"#utility.yul\":3476:3483   */\n      dup7\n        /* \"#utility.yul\":3467:3473   */\n      dup3\n        /* \"#utility.yul\":3456:3465   */\n      dup8\n        /* \"#utility.yul\":3452:3474   */\n      add\n        /* \"#utility.yul\":3431:3484   */\n      tag_127\n      jump\t// in\n    tag_188:\n        /* \"#utility.yul\":3421:3484   */\n      swap4\n      pop\n        /* \"#utility.yul\":3377:3494   */\n      pop\n        /* \"#utility.yul\":3533:3535   */\n      0x20\n        /* \"#utility.yul\":3559:3620   */\n      tag_189\n        /* \"#utility.yul\":3612:3619   */\n      dup7\n        /* \"#utility.yul\":3603:3609   */\n      dup3\n        /* \"#utility.yul\":3592:3601   */\n      dup8\n        /* \"#utility.yul\":3588:3610   */\n      add\n        /* \"#utility.yul\":3559:3620   */\n      tag_133\n      jump\t// in\n    tag_189:\n        /* \"#utility.yul\":3549:3620   */\n      swap3\n      pop\n        /* \"#utility.yul\":3504:3630   */\n      pop\n        /* \"#utility.yul\":3669:3671   */\n      0x40\n        /* \"#utility.yul\":3695:3748   */\n      tag_190\n        /* \"#utility.yul\":3740:3747   */\n      dup7\n        /* \"#utility.yul\":3731:3737   */\n      dup3\n        /* \"#utility.yul\":3720:3729   */\n      dup8\n        /* \"#utility.yul\":3716:3738   */\n      add\n        /* \"#utility.yul\":3695:3748   */\n      tag_122\n      jump\t// in\n    tag_190:\n        /* \"#utility.yul\":3685:3748   */\n      swap2\n      pop\n        /* \"#utility.yul\":3640:3758   */\n      pop\n        /* \"#utility.yul\":3130:3765   */\n      swap3\n      pop\n      swap3\n      pop\n      swap3\n      jump\t// out\n        /* \"#utility.yul\":3771:4245   */\n    tag_45:\n        /* \"#utility.yul\":3839:3845   */\n      0x00\n        /* \"#utility.yul\":3847:3853   */\n      dup1\n        /* \"#utility.yul\":3896:3898   */\n      0x40\n        /* \"#utility.yul\":3884:3893   */\n      dup4\n        /* \"#utility.yul\":3875:3882   */\n      dup6\n        /* \"#utility.yul\":3871:3894   */\n      sub\n        /* \"#utility.yul\":3867:3899   */\n      slt\n        /* \"#utility.yul\":3864:3983   */\n      iszero\n      tag_192\n      jumpi\n        /* \"#utility.yul\":3902:3981   */\n      tag_193\n      tag_118\n      jump\t// in\n    tag_193:\n        /* \"#utility.yul\":3864:3983   */\n    tag_192:\n        /* \"#utility.yul\":4022:4023   */\n      0x00\n        /* \"#utility.yul\":4047:4100   */\n      tag_194\n        /* \"#utility.yul\":4092:4099   */\n      dup6\n        /* \"#utility.yul\":4083:4089   */\n      dup3\n        /* \"#utility.yul\":4072:4081   */\n      dup7\n        /* \"#utility.yul\":4068:4090   */\n      add\n        /* \"#utility.yul\":4047:4100   */\n      tag_127\n      jump\t// in\n    tag_194:\n        /* \"#utility.yul\":4037:4100   */\n      swap3\n      pop\n        /* \"#utility.yul\":3993:4110   */\n      pop\n        /* \"#utility.yul\":4149:4151   */\n      0x20\n        /* \"#utility.yul\":4175:4228   */\n      tag_195\n        /* \"#utility.yul\":4220:4227   */\n      dup6\n        /* \"#utility.yul\":4211:4217   */\n      dup3\n        /* \"#utility.yul\":4200:4209   */\n      dup7\n        /* \"#utility.yul\":4196:4218   */\n      add\n        /* \"#utility.yul\":4175:4228   */\n      tag_122\n      jump\t// in\n    tag_195:\n        /* \"#utility.yul\":4165:4228   */\n      swap2\n      pop\n        /* \"#utility.yul\":4120:4238   */\n      pop\n        /* \"#utility.yul\":3771:4245   */\n      swap3\n      pop\n      swap3\n      swap1\n      pop\n      jump\t// out\n        /* \"#utility.yul\":4251:4369   */\n    tag_134:\n        /* \"#utility.yul\":4338:4362   */\n      tag_197\n        /* \"#utility.yul\":4356:4361   */\n      dup2\n        /* \"#utility.yul\":4338:4362   */\n      tag_125\n      jump\t// in\n    tag_197:\n        /* \"#utility.yul\":4333:4336   */\n      dup3\n        /* \"#utility.yul\":4326:4363   */\n      mstore\n        /* \"#utility.yul\":4251:4369   */\n      pop\n      pop\n      jump\t// out\n        /* \"#utility.yul\":4375:4597   */\n    tag_49:\n        /* \"#utility.yul\":4468:4472   */\n      0x00\n        /* \"#utility.yul\":4506:4508   */\n      0x20\n        /* \"#utility.yul\":4495:4504   */\n      dup3\n        /* \"#utility.yul\":4491:4509   */\n      add\n        /* \"#utility.yul\":4483:4509   */\n      swap1\n      pop\n        /* \"#utility.yul\":4519:4590   */\n      tag_199\n        /* \"#utility.yul\":4587:4588   */\n      0x00\n        /* \"#utility.yul\":4576:4585   */\n      dup4\n        /* \"#utility.yul\":4572:4589   */\n      add\n        /* \"#utility.yul\":4563:4569   */\n      dup5\n        /* \"#utility.yul\":4519:4590   */\n      tag_134\n      jump\t// in\n    tag_199:\n        /* \"#utility.yul\":4375:4597   */\n      swap3\n      swap2\n      pop\n      pop\n      jump\t// out\n        /* \"#utility.yul\":4603:4746   */\n    tag_135:\n        /* \"#utility.yul\":4660:4665   */\n      0x00\n        /* \"#utility.yul\":4691:4697   */\n      dup2\n        /* \"#utility.yul\":4685:4698   */\n      mload\n        /* \"#utility.yul\":4676:4698   */\n      swap1\n      pop\n        /* \"#utility.yul\":4707:4740   */\n      tag_201\n        /* \"#utility.yul\":4734:4739   */\n      dup2\n        /* \"#utility.yul\":4707:4740   */\n      tag_121\n      jump\t// in\n    tag_201:\n        /* \"#utility.yul\":4603:4746   */\n      swap3\n      swap2\n      pop\n      pop\n      jump\t// out\n        /* \"#utility.yul\":4752:5103   */\n    tag_53:\n        /* \"#utility.yul\":4822:4828   */\n      0x00\n        /* \"#utility.yul\":4871:4873   */\n      0x20\n        /* \"#utility.yul\":4859:4868   */\n      dup3\n        /* \"#utility.yul\":4850:4857   */\n      dup5\n        /* \"#utility.yul\":4846:4869   */\n      sub\n        /* \"#utility.yul\":4842:4874   */\n      slt\n        /* \"#utility.yul\":4839:4958   */\n      iszero\n      tag_203\n      jumpi\n        /* \"#utility.yul\":4877:4956   */\n      tag_204\n      tag_118\n      jump\t// in\n    tag_204:\n        /* \"#utility.yul\":4839:4958   */\n    tag_203:\n        /* \"#utility.yul\":4997:4998   */\n      0x00\n        /* \"#utility.yul\":5022:5086   */\n      tag_205\n        /* \"#utility.yul\":5078:5085   */\n      dup5\n        /* \"#utility.yul\":5069:5075   */\n      dup3\n        /* \"#utility.yul\":5058:5067   */\n      dup6\n        /* \"#utility.yul\":5054:5076   */\n      add\n        /* \"#utility.yul\":5022:5086   */\n      tag_135\n      jump\t// in\n    tag_205:\n        /* \"#utility.yul\":5012:5086   */\n      swap2\n      pop\n        /* \"#utility.yul\":4968:5096   */\n      pop\n        /* \"#utility.yul\":4752:5103   */\n      swap3\n      swap2\n      pop\n      pop\n      jump\t// out\n        /* \"#utility.yul\":5109:5289   */\n    tag_136:\n        /* \"#utility.yul\":5157:5234   */\n      0x4e487b7100000000000000000000000000000000000000000000000000000000\n        /* \"#utility.yul\":5154:5155   */\n      0x00\n        /* \"#utility.yul\":5147:5235   */\n      mstore\n        /* \"#utility.yul\":5254:5258   */\n      0x11\n        /* \"#utility.yul\":5251:5252   */\n      0x04\n        /* \"#utility.yul\":5244:5259   */\n      mstore\n        /* \"#utility.yul\":5278:5282   */\n      0x24\n        /* \"#utility.yul\":5275:5276   */\n      0x00\n        /* \"#utility.yul\":5268:5283   */\n      revert\n        /* \"#utility.yul\":5295:5486   */\n    tag_63:\n        /* \"#utility.yul\":5335:5338   */\n      0x00\n        /* \"#utility.yul\":5354:5374   */\n      tag_208\n        /* \"#utility.yul\":5372:5373   */\n      dup3\n        /* \"#utility.yul\":5354:5374   */\n      tag_120\n      jump\t// in\n    tag_208:\n        /* \"#utility.yul\":5349:5374   */\n      swap2\n      pop\n        /* \"#utility.yul\":5388:5408   */\n      tag_209\n        /* \"#utility.yul\":5406:5407   */\n      dup4\n        /* \"#utility.yul\":5388:5408   */\n      tag_120\n      jump\t// in\n    tag_209:\n        /* \"#utility.yul\":5383:5408   */\n      swap3\n      pop\n        /* \"#utility.yul\":5431:5432   */\n      dup3\n        /* \"#utility.yul\":5428:5429   */\n      dup3\n        /* \"#utility.yul\":5424:5433   */\n      add\n        /* \"#utility.yul\":5417:5433   */\n      swap1\n      pop\n        /* \"#utility.yul\":5452:5455   */\n      dup1\n        /* \"#utility.yul\":5449:5450   */\n      dup3\n        /* \"#utility.yul\":5446:5456   */\n      gt\n        /* \"#utility.yul\":5443:5479   */\n      iszero\n      tag_210\n      jumpi\n        /* \"#utility.yul\":5459:5477   */\n      tag_211\n      tag_136\n      jump\t// in\n    tag_211:\n        /* \"#utility.yul\":5443:5479   */\n    tag_210:\n        /* \"#utility.yul\":5295:5486   */\n      swap3\n      swap2\n      pop\n      pop\n      jump\t// out\n        /* \"#utility.yul\":5492:5902   */\n    tag_65:\n        /* \"#utility.yul\":5532:5539   */\n      0x00\n        /* \"#utility.yul\":5555:5575   */\n      tag_213\n        /* \"#utility.yul\":5573:5574   */\n      dup3\n        /* \"#utility.yul\":5555:5575   */\n      tag_120\n      jump\t// in\n    tag_213:\n        /* \"#utility.yul\":5550:5575   */\n      swap2\n      pop\n        /* \"#utility.yul\":5589:5609   */\n      tag_214\n        /* \"#utility.yul\":5607:5608   */\n      dup4\n        /* \"#utility.yul\":5589:5609   */\n      tag_120\n      jump\t// in\n    tag_214:\n        /* \"#utility.yul\":5584:5609   */\n      swap3\n      pop\n        /* \"#utility.yul\":5644:5645   */\n      dup3\n        /* \"#utility.yul\":5641:5642   */\n      dup3\n        /* \"#utility.yul\":5637:5646   */\n      mul\n        /* \"#utility.yul\":5666:5696   */\n      tag_215\n        /* \"#utility.yul\":5684:5695   */\n      dup2\n        /* \"#utility.yul\":5666:5696   */\n      tag_120\n      jump\t// in\n    tag_215:\n        /* \"#utility.yul\":5655:5696   */\n      swap2\n      pop\n        /* \"#utility.yul\":5845:5846   */\n      dup3\n        /* \"#utility.yul\":5836:5843   */\n      dup3\n        /* \"#utility.yul\":5832:5847   */\n      div\n        /* \"#utility.yul\":5829:5830   */\n      dup5\n        /* \"#utility.yul\":5826:5848   */\n      eq\n        /* \"#utility.yul\":5806:5807   */\n      dup4\n        /* \"#utility.yul\":5799:5808   */\n      iszero\n        /* \"#utility.yul\":5779:5862   */\n      or\n        /* \"#utility.yul\":5756:5895   */\n      tag_216\n      jumpi\n        /* \"#utility.yul\":5875:5893   */\n      tag_217\n      tag_136\n      jump\t// in\n    tag_217:\n        /* \"#utility.yul\":5756:5895   */\n    tag_216:\n        /* \"#utility.yul\":5540:5902   */\n      pop\n        /* \"#utility.yul\":5492:5902   */\n      swap3\n      swap2\n      pop\n      pop\n      jump\t// out\n        /* \"#utility.yul\":5908:6088   */\n    tag_137:\n        /* \"#utility.yul\":5956:6033   */\n      0x4e487b7100000000000000000000000000000000000000000000000000000000\n        /* \"#utility.yul\":5953:5954   */\n      0x00\n        /* \"#utility.yul\":5946:6034   */\n      mstore\n        /* \"#utility.yul\":6053:6057   */\n      0x12\n        /* \"#utility.yul\":6050:6051   */\n      0x04\n        /* \"#utility.yul\":6043:6058   */\n      mstore\n        /* \"#utility.yul\":6077:6081   */\n      0x24\n        /* \"#utility.yul\":6074:6075   */\n      0x00\n        /* \"#utility.yul\":6067:6082   */\n      revert\n        /* \"#utility.yul\":6094:6279   */\n    tag_67:\n        /* \"#utility.yul\":6134:6135   */\n      0x00\n        /* \"#utility.yul\":6151:6171   */\n      tag_220\n        /* \"#utility.yul\":6169:6170   */\n      dup3\n        /* \"#utility.yul\":6151:6171   */\n      tag_120\n      jump\t// in\n    tag_220:\n        /* \"#utility.yul\":6146:6171   */\n      swap2\n      pop\n        /* \"#utility.yul\":6185:6205   */\n      tag_221\n        /* \"#utility.yul\":6203:6204   */\n      dup4\n        /* \"#utility.yul\":6185:6205   */\n      tag_120\n      jump\t// in\n    tag_221:\n        /* \"#utility.yul\":6180:6205   */\n      swap3\n      pop\n        /* \"#utility.yul\":6224:6225   */\n      dup3\n        /* \"#utility.yul\":6214:6249   */\n      tag_222\n      jumpi\n        /* \"#utility.yul\":6229:6247   */\n      tag_223\n      tag_137\n      jump\t// in\n    tag_223:\n        /* \"#utility.yul\":6214:6249   */\n    tag_222:\n        /* \"#utility.yul\":6271:6272   */\n      dup3\n        /* \"#utility.yul\":6268:6269   */\n      dup3\n        /* \"#utility.yul\":6264:6273   */\n      div\n        /* \"#utility.yul\":6259:6273   */\n      swap1\n      pop\n        /* \"#utility.yul\":6094:6279   */\n      swap3\n      swap2\n      pop\n      pop\n      jump\t// out\n        /* \"#utility.yul\":6285:6454   */\n    tag_138:\n        /* \"#utility.yul\":6369:6380   */\n      0x00\n        /* \"#utility.yul\":6403:6409   */\n      dup3\n        /* \"#utility.yul\":6398:6401   */\n      dup3\n        /* \"#utility.yul\":6391:6410   */\n      mstore\n        /* \"#utility.yul\":6443:6447   */\n      0x20\n        /* \"#utility.yul\":6438:6441   */\n      dup3\n        /* \"#utility.yul\":6434:6448   */\n      add\n        /* \"#utility.yul\":6419:6448   */\n      swap1\n      pop\n        /* \"#utility.yul\":6285:6454   */\n      swap3\n      swap2\n      pop\n      pop\n      jump\t// out\n        /* \"#utility.yul\":6460:6642   */\n    tag_139:\n        /* \"#utility.yul\":6600:6634   */\n      0x4f776e61626c653a2063616c6c6572206973206e6f7420746865206f776e6572\n        /* \"#utility.yul\":6596:6597   */\n      0x00\n        /* \"#utility.yul\":6588:6594   */\n      dup3\n        /* \"#utility.yul\":6584:6598   */\n      add\n        /* \"#utility.yul\":6577:6635   */\n      mstore\n        /* \"#utility.yul\":6460:6642   */\n      pop\n      jump\t// out\n        /* \"#utility.yul\":6648:7014   */\n    tag_140:\n        /* \"#utility.yul\":6790:6793   */\n      0x00\n        /* \"#utility.yul\":6811:6878   */\n      tag_227\n        /* \"#utility.yul\":6875:6877   */\n      0x20\n        /* \"#utility.yul\":6870:6873   */\n      dup4\n        /* \"#utility.yul\":6811:6878   */\n      tag_138\n      jump\t// in\n    tag_227:\n        /* \"#utility.yul\":6804:6878   */\n      swap2\n      pop\n        /* \"#utility.yul\":6887:6980   */\n      tag_228\n        /* \"#utility.yul\":6976:6979   */\n      dup3\n        /* \"#utility.yul\":6887:6980   */\n      tag_139\n      jump\t// in\n    tag_228:\n        /* \"#utility.yul\":7005:7007   */\n      0x20\n        /* \"#utility.yul\":7000:7003   */\n      dup3\n        /* \"#utility.yul\":6996:7008   */\n      add\n        /* \"#utility.yul\":6989:7008   */\n      swap1\n      pop\n        /* \"#utility.yul\":6648:7014   */\n      swap2\n      swap1\n      pop\n      jump\t// out\n        /* \"#utility.yul\":7020:7439   */\n    tag_80:\n        /* \"#utility.yul\":7186:7190   */\n      0x00\n        /* \"#utility.yul\":7224:7226   */\n      0x20\n        /* \"#utility.yul\":7213:7222   */\n      dup3\n        /* \"#utility.yul\":7209:7227   */\n      add\n        /* \"#utility.yul\":7201:7227   */\n      swap1\n      pop\n        /* \"#utility.yul\":7273:7282   */\n      dup2\n        /* \"#utility.yul\":7267:7271   */\n      dup2\n        /* \"#utility.yul\":7263:7283   */\n      sub\n        /* \"#utility.yul\":7259:7260   */\n      0x00\n        /* \"#utility.yul\":7248:7257   */\n      dup4\n        /* \"#utility.yul\":7244:7261   */\n      add\n        /* \"#utility.yul\":7237:7284   */\n      mstore\n        /* \"#utility.yul\":7301:7432   */\n      tag_230\n        /* \"#utility.yul\":7427:7431   */\n      dup2\n        /* \"#utility.yul\":7301:7432   */\n      tag_140\n      jump\t// in\n    tag_230:\n        /* \"#utility.yul\":7293:7432   */\n      swap1\n      pop\n        /* \"#utility.yul\":7020:7439   */\n      swap2\n      swap1\n      pop\n      jump\t// out\n        /* \"#utility.yul\":7445:7777   */\n    tag_95:\n        /* \"#utility.yul\":7566:7570   */\n      0x00\n        /* \"#utility.yul\":7604:7606   */\n      0x40\n        /* \"#utility.yul\":7593:7602   */\n      dup3\n        /* \"#utility.yul\":7589:7607   */\n      add\n        /* \"#utility.yul\":7581:7607   */\n      swap1\n      pop\n        /* \"#utility.yul\":7617:7688   */\n      tag_232\n        /* \"#utility.yul\":7685:7686   */\n      0x00\n        /* \"#utility.yul\":7674:7683   */\n      dup4\n        /* \"#utility.yul\":7670:7687   */\n      add\n        /* \"#utility.yul\":7661:7667   */\n      dup6\n        /* \"#utility.yul\":7617:7688   */\n      tag_134\n      jump\t// in\n    tag_232:\n        /* \"#utility.yul\":7698:7770   */\n      tag_233\n        /* \"#utility.yul\":7766:7768   */\n      0x20\n        /* \"#utility.yul\":7755:7764   */\n      dup4\n        /* \"#utility.yul\":7751:7769   */\n      add\n        /* \"#utility.yul\":7742:7748   */\n      dup5\n        /* \"#utility.yul\":7698:7770   */\n      tag_123\n      jump\t// in\n    tag_233:\n        /* \"#utility.yul\":7445:7777   */\n      swap4\n      swap3\n      pop\n      pop\n      pop\n      jump\t// out\n        /* \"#utility.yul\":7783:7977   */\n    tag_112:\n        /* \"#utility.yul\":7823:7827   */\n      0x00\n        /* \"#utility.yul\":7843:7863   */\n      tag_235\n        /* \"#utility.yul\":7861:7862   */\n      dup3\n        /* \"#utility.yul\":7843:7863   */\n      tag_120\n      jump\t// in\n    tag_235:\n        /* \"#utility.yul\":7838:7863   */\n      swap2\n      pop\n        /* \"#utility.yul\":7877:7897   */\n      tag_236\n        /* \"#utility.yul\":7895:7896   */\n      dup4\n        /* \"#utility.yul\":7877:7897   */\n      tag_120\n      jump\t// in\n    tag_236:\n        /* \"#utility.yul\":7872:7897   */\n      swap3\n      pop\n        /* \"#utility.yul\":7921:7922   */\n      dup3\n        /* \"#utility.yul\":7918:7919   */\n      dup3\n        /* \"#utility.yul\":7914:7923   */\n      sub\n        /* \"#utility.yul\":7906:7923   */\n      swap1\n      pop\n        /* \"#utility.yul\":7945:7946   */\n      dup2\n        /* \"#utility.yul\":7939:7943   */\n      dup2\n        /* \"#utility.yul\":7936:7947   */\n      gt\n        /* \"#utility.yul\":7933:7970   */\n      iszero\n      tag_237\n      jumpi\n        /* \"#utility.yul\":7950:7968   */\n      tag_238\n      tag_136\n      jump\t// in\n    tag_238:\n        /* \"#utility.yul\":7933:7970   */\n    tag_237:\n        /* \"#utility.yul\":7783:7977   */\n      swap3\n      swap2\n      pop\n      pop\n      jump\t// out\n\n    auxdata: 0xa2646970667358221220d85b91b9f9b30c83c134ff7e2d2355fb5c09bff10258078293a76661ac6cd2b964736f6c63430008110033\n}\n",
				"bytecode": {
					"linkReferences": {},
					"object": "608060405273a9fae5ea311d3cfb2bcc9caefc5003b30b60b6c36000806101000a81548173ffffffffffffffffffffffffffffffffffffffff021916908373ffffffffffffffffffffffffffffffffffffffff16021790555073a9fae5ea311d3cfb2bcc9caefc5003b30b60b6c3600160006101000a81548173ffffffffffffffffffffffffffffffffffffffff021916908373ffffffffffffffffffffffffffffffffffffffff16021790555073e3410af1b80f925ac42b78ea54a48de13dfa6ebe600260006101000a81548173ffffffffffffffffffffffffffffffffffffffff021916908373ffffffffffffffffffffffffffffffffffffffff16021790555073e3410af1b80f925ac42b78ea54a48de13dfa6ebe600360006101000a81548173ffffffffffffffffffffffffffffffffffffffff021916908373ffffffffffffffffffffffffffffffffffffffff16021790555034801561016357600080fd5b5033600460006101000a81548173ffffffffffffffffffffffffffffffffffffffff021916908373ffffffffffffffffffffffffffffffffffffffff1602179055506fcb201bc68e0578e319c1c2e000000000600581905550610d4d806101cb6000396000f3fe60806040526004361061007b5760003560e01c8063d0e30db01161004e578063d0e30db014610160578063d9e9402f1461016a578063dac3fad414610193578063daeae851146101aa5761007b565b806328861d221461008057806344c8ad13146100bd57806397dedb1d146100fa578063c3c6467414610137575b600080fd5b34801561008c57600080fd5b506100a760048036038101906100a291906108ce565b6101c6565b6040516100b4919061090a565b60405180910390f35b3480156100c957600080fd5b506100e460048036038101906100df91906108ce565b610306565b6040516100f1919061090a565b60405180910390f35b34801561010657600080fd5b50610121600480360381019061011c91906108ce565b61031d565b60405161012e919061090a565b60405180910390f35b34801561014357600080fd5b5061015e600480360381019061015991906109bb565b6103eb565b005b6101686104d6565b005b34801561017657600080fd5b50610191600480360381019061018c9190610a39565b610535565b005b34801561019f57600080fd5b506101a8610721565b005b6101c460048036038101906101bf9190610a8c565b61081c565b005b600080600260009054906101000a900473ffffffffffffffffffffffffffffffffffffffff1673ffffffffffffffffffffffffffffffffffffffff166370a08231306040518263ffffffff1660e01b81526004016102249190610adb565b602060405180830381865afa158015610241573d6000803e3d6000fd5b505050506040513d601f19601f820116820180604052508101906102659190610b0b565b90506000610284670de0b6b3a76400008561083b90919063ffffffff16565b905060006102b5670de0b6b3a76400006102a7848661085190919063ffffffff16565b61086790919063ffffffff16565b905060006102c284610306565b905060006102cf83610306565b9050600060028883856102e29190610b67565b6102ec9190610b9b565b6102f69190610c0c565b9050809650505050505050919050565b6000816005546103169190610c0c565b9050919050565b60008047905060008060009054906101000a900473ffffffffffffffffffffffffffffffffffffffff1673ffffffffffffffffffffffffffffffffffffffff166318160ddd6040518163ffffffff1660e01b8152600401602060405180830381865afa158015610391573d6000803e3d6000fd5b505050506040513d601f19601f820116820180604052508101906103b59190610b0b565b905060006103de826103d0858861083b90919063ffffffff16565b61087d90919063ffffffff16565b9050809350505050919050565b3373ffffffffffffffffffffffffffffffffffffffff16600460009054906101000a900473ffffffffffffffffffffffffffffffffffffffff1673ffffffffffffffffffffffffffffffffffffffff161461047b576040517f08c379a000000000000000000000000000000000000000000000000000000000815260040161047290610c9a565b60405180910390fd5b80600660008473ffffffffffffffffffffffffffffffffffffffff1673ffffffffffffffffffffffffffffffffffffffff16815260200190815260200160002060006101000a81548160ff0219169083151502179055505050565b60011515600660003373ffffffffffffffffffffffffffffffffffffffff1673ffffffffffffffffffffffffffffffffffffffff16815260200190815260200160002060009054906101000a900460ff1615151461053357600080fd5b565b60011515600660003373ffffffffffffffffffffffffffffffffffffffff1673ffffffffffffffffffffffffffffffffffffffff16815260200190815260200160002060009054906101000a900460ff1615151461059257600080fd5b8060008054906101000a900473ffffffffffffffffffffffffffffffffffffffff1673ffffffffffffffffffffffffffffffffffffffff166370a08231856040518263ffffffff1660e01b81526004016105ec9190610adb565b602060405180830381865afa158015610609573d6000803e3d6000fd5b505050506040513d601f19601f8201168201806040525081019061062d9190610b0b565b101561063857600080fd5b60006106438261031d565b90508273ffffffffffffffffffffffffffffffffffffffff166108fc829081150290604051600060405180830381858888f1935050505015801561068b573d6000803e3d6000fd5b50600160009054906101000a900473ffffffffffffffffffffffffffffffffffffffff1673ffffffffffffffffffffffffffffffffffffffff166379cc679085846040518363ffffffff1660e01b81526004016106e9929190610cba565b600060405180830381600087803b15801561070357600080fd5b505af1158015610717573d6000803e3d6000fd5b5050505050505050565b3373ffffffffffffffffffffffffffffffffffffffff16600460009054906101000a900473ffffffffffffffffffffffffffffffffffffffff1673ffffffffffffffffffffffffffffffffffffffff16146107b1576040517f08c379a00000000000000000000000000000000000000000000000000000000081526004016107a890610c9a565b60405180910390fd5b600460009054906101000a900473ffffffffffffffffffffffffffffffffffffffff1673ffffffffffffffffffffffffffffffffffffffff166108fc479081150290604051600060405180830381858888f19350505050158015610819573d6000803e3d6000fd5b50565b6000610827826101c6565b90508034101561083657600080fd5b505050565b600081836108499190610b9b565b905092915050565b6000818361085f9190610ce3565b905092915050565b600081836108759190610b67565b905092915050565b6000818361088b9190610c0c565b905092915050565b600080fd5b6000819050919050565b6108ab81610898565b81146108b657600080fd5b50565b6000813590506108c8816108a2565b92915050565b6000602082840312156108e4576108e3610893565b5b60006108f2848285016108b9565b91505092915050565b61090481610898565b82525050565b600060208201905061091f60008301846108fb565b92915050565b600073ffffffffffffffffffffffffffffffffffffffff82169050919050565b600061095082610925565b9050919050565b61096081610945565b811461096b57600080fd5b50565b60008135905061097d81610957565b92915050565b60008115159050919050565b61099881610983565b81146109a357600080fd5b50565b6000813590506109b58161098f565b92915050565b600080604083850312156109d2576109d1610893565b5b60006109e08582860161096e565b92505060206109f1858286016109a6565b9150509250929050565b6000610a0682610925565b9050919050565b610a16816109fb565b8114610a2157600080fd5b50565b600081359050610a3381610a0d565b92915050565b600080600060608486031215610a5257610a51610893565b5b6000610a608682870161096e565b9350506020610a7186828701610a24565b9250506040610a82868287016108b9565b9150509250925092565b60008060408385031215610aa357610aa2610893565b5b6000610ab18582860161096e565b9250506020610ac2858286016108b9565b9150509250929050565b610ad581610945565b82525050565b6000602082019050610af06000830184610acc565b92915050565b600081519050610b05816108a2565b92915050565b600060208284031215610b2157610b20610893565b5b6000610b2f84828501610af6565b91505092915050565b7f4e487b7100000000000000000000000000000000000000000000000000000000600052601160045260246000fd5b6000610b7282610898565b9150610b7d83610898565b9250828201905080821115610b9557610b94610b38565b5b92915050565b6000610ba682610898565b9150610bb183610898565b9250828202610bbf81610898565b91508282048414831517610bd657610bd5610b38565b5b5092915050565b7f4e487b7100000000000000000000000000000000000000000000000000000000600052601260045260246000fd5b6000610c1782610898565b9150610c2283610898565b925082610c3257610c31610bdd565b5b828204905092915050565b600082825260208201905092915050565b7f4f776e61626c653a2063616c6c6572206973206e6f7420746865206f776e6572600082015250565b6000610c84602083610c3d565b9150610c8f82610c4e565b602082019050919050565b60006020820190508181036000830152610cb381610c77565b9050919050565b6000604082019050610ccf6000830185610acc565b610cdc60208301846108fb565b9392505050565b6000610cee82610898565b9150610cf983610898565b9250828203905081811115610d1157610d10610b38565b5b9291505056fea2646970667358221220d85b91b9f9b30c83c134ff7e2d2355fb5c09bff10258078293a76661ac6cd2b964736f6c63430008110033",
					"opcodes": "PUSH1 0x80 PUSH1 0x40 MSTORE PUSH20 0xA9FAE5EA311D3CFB2BCC9CAEFC5003B30B60B6C3 PUSH1 0x0 DUP1 PUSH2 0x100 EXP DUP2 SLOAD DUP2 PUSH20 0xFFFFFFFFFFFFFFFFFFFFFFFFFFFFFFFFFFFFFFFF MUL NOT AND SWAP1 DUP4 PUSH20 0xFFFFFFFFFFFFFFFFFFFFFFFFFFFFFFFFFFFFFFFF AND MUL OR SWAP1 SSTORE POP PUSH20 0xA9FAE5EA311D3CFB2BCC9CAEFC5003B30B60B6C3 PUSH1 0x1 PUSH1 0x0 PUSH2 0x100 EXP DUP2 SLOAD DUP2 PUSH20 0xFFFFFFFFFFFFFFFFFFFFFFFFFFFFFFFFFFFFFFFF MUL NOT AND SWAP1 DUP4 PUSH20 0xFFFFFFFFFFFFFFFFFFFFFFFFFFFFFFFFFFFFFFFF AND MUL OR SWAP1 SSTORE POP PUSH20 0xE3410AF1B80F925AC42B78EA54A48DE13DFA6EBE PUSH1 0x2 PUSH1 0x0 PUSH2 0x100 EXP DUP2 SLOAD DUP2 PUSH20 0xFFFFFFFFFFFFFFFFFFFFFFFFFFFFFFFFFFFFFFFF MUL NOT AND SWAP1 DUP4 PUSH20 0xFFFFFFFFFFFFFFFFFFFFFFFFFFFFFFFFFFFFFFFF AND MUL OR SWAP1 SSTORE POP PUSH20 0xE3410AF1B80F925AC42B78EA54A48DE13DFA6EBE PUSH1 0x3 PUSH1 0x0 PUSH2 0x100 EXP DUP2 SLOAD DUP2 PUSH20 0xFFFFFFFFFFFFFFFFFFFFFFFFFFFFFFFFFFFFFFFF MUL NOT AND SWAP1 DUP4 PUSH20 0xFFFFFFFFFFFFFFFFFFFFFFFFFFFFFFFFFFFFFFFF AND MUL OR SWAP1 SSTORE POP CALLVALUE DUP1 ISZERO PUSH2 0x163 JUMPI PUSH1 0x0 DUP1 REVERT JUMPDEST POP CALLER PUSH1 0x4 PUSH1 0x0 PUSH2 0x100 EXP DUP2 SLOAD DUP2 PUSH20 0xFFFFFFFFFFFFFFFFFFFFFFFFFFFFFFFFFFFFFFFF MUL NOT AND SWAP1 DUP4 PUSH20 0xFFFFFFFFFFFFFFFFFFFFFFFFFFFFFFFFFFFFFFFF AND MUL OR SWAP1 SSTORE POP PUSH16 0xCB201BC68E0578E319C1C2E000000000 PUSH1 0x5 DUP2 SWAP1 SSTORE POP PUSH2 0xD4D DUP1 PUSH2 0x1CB PUSH1 0x0 CODECOPY PUSH1 0x0 RETURN INVALID PUSH1 0x80 PUSH1 0x40 MSTORE PUSH1 0x4 CALLDATASIZE LT PUSH2 0x7B JUMPI PUSH1 0x0 CALLDATALOAD PUSH1 0xE0 SHR DUP1 PUSH4 0xD0E30DB0 GT PUSH2 0x4E JUMPI DUP1 PUSH4 0xD0E30DB0 EQ PUSH2 0x160 JUMPI DUP1 PUSH4 0xD9E9402F EQ PUSH2 0x16A JUMPI DUP1 PUSH4 0xDAC3FAD4 EQ PUSH2 0x193 JUMPI DUP1 PUSH4 0xDAEAE851 EQ PUSH2 0x1AA JUMPI PUSH2 0x7B JUMP JUMPDEST DUP1 PUSH4 0x28861D22 EQ PUSH2 0x80 JUMPI DUP1 PUSH4 0x44C8AD13 EQ PUSH2 0xBD JUMPI DUP1 PUSH4 0x97DEDB1D EQ PUSH2 0xFA JUMPI DUP1 PUSH4 0xC3C64674 EQ PUSH2 0x137 JUMPI JUMPDEST PUSH1 0x0 DUP1 REVERT JUMPDEST CALLVALUE DUP1 ISZERO PUSH2 0x8C JUMPI PUSH1 0x0 DUP1 REVERT JUMPDEST POP PUSH2 0xA7 PUSH1 0x4 DUP1 CALLDATASIZE SUB DUP2 ADD SWAP1 PUSH2 0xA2 SWAP2 SWAP1 PUSH2 0x8CE JUMP JUMPDEST PUSH2 0x1C6 JUMP JUMPDEST PUSH1 0x40 MLOAD PUSH2 0xB4 SWAP2 SWAP1 PUSH2 0x90A JUMP JUMPDEST PUSH1 0x40 MLOAD DUP1 SWAP2 SUB SWAP1 RETURN JUMPDEST CALLVALUE DUP1 ISZERO PUSH2 0xC9 JUMPI PUSH1 0x0 DUP1 REVERT JUMPDEST POP PUSH2 0xE4 PUSH1 0x4 DUP1 CALLDATASIZE SUB DUP2 ADD SWAP1 PUSH2 0xDF SWAP2 SWAP1 PUSH2 0x8CE JUMP JUMPDEST PUSH2 0x306 JUMP JUMPDEST PUSH1 0x40 MLOAD PUSH2 0xF1 SWAP2 SWAP1 PUSH2 0x90A JUMP JUMPDEST PUSH1 0x40 MLOAD DUP1 SWAP2 SUB SWAP1 RETURN JUMPDEST CALLVALUE DUP1 ISZERO PUSH2 0x106 JUMPI PUSH1 0x0 DUP1 REVERT JUMPDEST POP PUSH2 0x121 PUSH1 0x4 DUP1 CALLDATASIZE SUB DUP2 ADD SWAP1 PUSH2 0x11C SWAP2 SWAP1 PUSH2 0x8CE JUMP JUMPDEST PUSH2 0x31D JUMP JUMPDEST PUSH1 0x40 MLOAD PUSH2 0x12E SWAP2 SWAP1 PUSH2 0x90A JUMP JUMPDEST PUSH1 0x40 MLOAD DUP1 SWAP2 SUB SWAP1 RETURN JUMPDEST CALLVALUE DUP1 ISZERO PUSH2 0x143 JUMPI PUSH1 0x0 DUP1 REVERT JUMPDEST POP PUSH2 0x15E PUSH1 0x4 DUP1 CALLDATASIZE SUB DUP2 ADD SWAP1 PUSH2 0x159 SWAP2 SWAP1 PUSH2 0x9BB JUMP JUMPDEST PUSH2 0x3EB JUMP JUMPDEST STOP JUMPDEST PUSH2 0x168 PUSH2 0x4D6 JUMP JUMPDEST STOP JUMPDEST CALLVALUE DUP1 ISZERO PUSH2 0x176 JUMPI PUSH1 0x0 DUP1 REVERT JUMPDEST POP PUSH2 0x191 PUSH1 0x4 DUP1 CALLDATASIZE SUB DUP2 ADD SWAP1 PUSH2 0x18C SWAP2 SWAP1 PUSH2 0xA39 JUMP JUMPDEST PUSH2 0x535 JUMP JUMPDEST STOP JUMPDEST CALLVALUE DUP1 ISZERO PUSH2 0x19F JUMPI PUSH1 0x0 DUP1 REVERT JUMPDEST POP PUSH2 0x1A8 PUSH2 0x721 JUMP JUMPDEST STOP JUMPDEST PUSH2 0x1C4 PUSH1 0x4 DUP1 CALLDATASIZE SUB DUP2 ADD SWAP1 PUSH2 0x1BF SWAP2 SWAP1 PUSH2 0xA8C JUMP JUMPDEST PUSH2 0x81C JUMP JUMPDEST STOP JUMPDEST PUSH1 0x0 DUP1 PUSH1 0x2 PUSH1 0x0 SWAP1 SLOAD SWAP1 PUSH2 0x100 EXP SWAP1 DIV PUSH20 0xFFFFFFFFFFFFFFFFFFFFFFFFFFFFFFFFFFFFFFFF AND PUSH20 0xFFFFFFFFFFFFFFFFFFFFFFFFFFFFFFFFFFFFFFFF AND PUSH4 0x70A08231 ADDRESS PUSH1 0x40 MLOAD DUP3 PUSH4 0xFFFFFFFF AND PUSH1 0xE0 SHL DUP2 MSTORE PUSH1 0x4 ADD PUSH2 0x224 SWAP2 SWAP1 PUSH2 0xADB JUMP JUMPDEST PUSH1 0x20 PUSH1 0x40 MLOAD DUP1 DUP4 SUB DUP2 DUP7 GAS STATICCALL ISZERO DUP1 ISZERO PUSH2 0x241 JUMPI RETURNDATASIZE PUSH1 0x0 DUP1 RETURNDATACOPY RETURNDATASIZE PUSH1 0x0 REVERT JUMPDEST POP POP POP POP PUSH1 0x40 MLOAD RETURNDATASIZE PUSH1 0x1F NOT PUSH1 0x1F DUP3 ADD AND DUP3 ADD DUP1 PUSH1 0x40 MSTORE POP DUP2 ADD SWAP1 PUSH2 0x265 SWAP2 SWAP1 PUSH2 0xB0B JUMP JUMPDEST SWAP1 POP PUSH1 0x0 PUSH2 0x284 PUSH8 0xDE0B6B3A7640000 DUP6 PUSH2 0x83B SWAP1 SWAP2 SWAP1 PUSH4 0xFFFFFFFF AND JUMP JUMPDEST SWAP1 POP PUSH1 0x0 PUSH2 0x2B5 PUSH8 0xDE0B6B3A7640000 PUSH2 0x2A7 DUP5 DUP7 PUSH2 0x851 SWAP1 SWAP2 SWAP1 PUSH4 0xFFFFFFFF AND JUMP JUMPDEST PUSH2 0x867 SWAP1 SWAP2 SWAP1 PUSH4 0xFFFFFFFF AND JUMP JUMPDEST SWAP1 POP PUSH1 0x0 PUSH2 0x2C2 DUP5 PUSH2 0x306 JUMP JUMPDEST SWAP1 POP PUSH1 0x0 PUSH2 0x2CF DUP4 PUSH2 0x306 JUMP JUMPDEST SWAP1 POP PUSH1 0x0 PUSH1 0x2 DUP9 DUP4 DUP6 PUSH2 0x2E2 SWAP2 SWAP1 PUSH2 0xB67 JUMP JUMPDEST PUSH2 0x2EC SWAP2 SWAP1 PUSH2 0xB9B JUMP JUMPDEST PUSH2 0x2F6 SWAP2 SWAP1 PUSH2 0xC0C JUMP JUMPDEST SWAP1 POP DUP1 SWAP7 POP POP POP POP POP POP POP SWAP2 SWAP1 POP JUMP JUMPDEST PUSH1 0x0 DUP2 PUSH1 0x5 SLOAD PUSH2 0x316 SWAP2 SWAP1 PUSH2 0xC0C JUMP JUMPDEST SWAP1 POP SWAP2 SWAP1 POP JUMP JUMPDEST PUSH1 0x0 DUP1 SELFBALANCE SWAP1 POP PUSH1 0x0 DUP1 PUSH1 0x0 SWAP1 SLOAD SWAP1 PUSH2 0x100 EXP SWAP1 DIV PUSH20 0xFFFFFFFFFFFFFFFFFFFFFFFFFFFFFFFFFFFFFFFF AND PUSH20 0xFFFFFFFFFFFFFFFFFFFFFFFFFFFFFFFFFFFFFFFF AND PUSH4 0x18160DDD PUSH1 0x40 MLOAD DUP2 PUSH4 0xFFFFFFFF AND PUSH1 0xE0 SHL DUP2 MSTORE PUSH1 0x4 ADD PUSH1 0x20 PUSH1 0x40 MLOAD DUP1 DUP4 SUB DUP2 DUP7 GAS STATICCALL ISZERO DUP1 ISZERO PUSH2 0x391 JUMPI RETURNDATASIZE PUSH1 0x0 DUP1 RETURNDATACOPY RETURNDATASIZE PUSH1 0x0 REVERT JUMPDEST POP POP POP POP PUSH1 0x40 MLOAD RETURNDATASIZE PUSH1 0x1F NOT PUSH1 0x1F DUP3 ADD AND DUP3 ADD DUP1 PUSH1 0x40 MSTORE POP DUP2 ADD SWAP1 PUSH2 0x3B5 SWAP2 SWAP1 PUSH2 0xB0B JUMP JUMPDEST SWAP1 POP PUSH1 0x0 PUSH2 0x3DE DUP3 PUSH2 0x3D0 DUP6 DUP9 PUSH2 0x83B SWAP1 SWAP2 SWAP1 PUSH4 0xFFFFFFFF AND JUMP JUMPDEST PUSH2 0x87D SWAP1 SWAP2 SWAP1 PUSH4 0xFFFFFFFF AND JUMP JUMPDEST SWAP1 POP DUP1 SWAP4 POP POP POP POP SWAP2 SWAP1 POP JUMP JUMPDEST CALLER PUSH20 0xFFFFFFFFFFFFFFFFFFFFFFFFFFFFFFFFFFFFFFFF AND PUSH1 0x4 PUSH1 0x0 SWAP1 SLOAD SWAP1 PUSH2 0x100 EXP SWAP1 DIV PUSH20 0xFFFFFFFFFFFFFFFFFFFFFFFFFFFFFFFFFFFFFFFF AND PUSH20 0xFFFFFFFFFFFFFFFFFFFFFFFFFFFFFFFFFFFFFFFF AND EQ PUSH2 0x47B JUMPI PUSH1 0x40 MLOAD PUSH32 0x8C379A000000000000000000000000000000000000000000000000000000000 DUP2 MSTORE PUSH1 0x4 ADD PUSH2 0x472 SWAP1 PUSH2 0xC9A JUMP JUMPDEST PUSH1 0x40 MLOAD DUP1 SWAP2 SUB SWAP1 REVERT JUMPDEST DUP1 PUSH1 0x6 PUSH1 0x0 DUP5 PUSH20 0xFFFFFFFFFFFFFFFFFFFFFFFFFFFFFFFFFFFFFFFF AND PUSH20 0xFFFFFFFFFFFFFFFFFFFFFFFFFFFFFFFFFFFFFFFF AND DUP2 MSTORE PUSH1 0x20 ADD SWAP1 DUP2 MSTORE PUSH1 0x20 ADD PUSH1 0x0 KECCAK256 PUSH1 0x0 PUSH2 0x100 EXP DUP2 SLOAD DUP2 PUSH1 0xFF MUL NOT AND SWAP1 DUP4 ISZERO ISZERO MUL OR SWAP1 SSTORE POP POP POP JUMP JUMPDEST PUSH1 0x1 ISZERO ISZERO PUSH1 0x6 PUSH1 0x0 CALLER PUSH20 0xFFFFFFFFFFFFFFFFFFFFFFFFFFFFFFFFFFFFFFFF AND PUSH20 0xFFFFFFFFFFFFFFFFFFFFFFFFFFFFFFFFFFFFFFFF AND DUP2 MSTORE PUSH1 0x20 ADD SWAP1 DUP2 MSTORE PUSH1 0x20 ADD PUSH1 0x0 KECCAK256 PUSH1 0x0 SWAP1 SLOAD SWAP1 PUSH2 0x100 EXP SWAP1 DIV PUSH1 0xFF AND ISZERO ISZERO EQ PUSH2 0x533 JUMPI PUSH1 0x0 DUP1 REVERT JUMPDEST JUMP JUMPDEST PUSH1 0x1 ISZERO ISZERO PUSH1 0x6 PUSH1 0x0 CALLER PUSH20 0xFFFFFFFFFFFFFFFFFFFFFFFFFFFFFFFFFFFFFFFF AND PUSH20 0xFFFFFFFFFFFFFFFFFFFFFFFFFFFFFFFFFFFFFFFF AND DUP2 MSTORE PUSH1 0x20 ADD SWAP1 DUP2 MSTORE PUSH1 0x20 ADD PUSH1 0x0 KECCAK256 PUSH1 0x0 SWAP1 SLOAD SWAP1 PUSH2 0x100 EXP SWAP1 DIV PUSH1 0xFF AND ISZERO ISZERO EQ PUSH2 0x592 JUMPI PUSH1 0x0 DUP1 REVERT JUMPDEST DUP1 PUSH1 0x0 DUP1 SLOAD SWAP1 PUSH2 0x100 EXP SWAP1 DIV PUSH20 0xFFFFFFFFFFFFFFFFFFFFFFFFFFFFFFFFFFFFFFFF AND PUSH20 0xFFFFFFFFFFFFFFFFFFFFFFFFFFFFFFFFFFFFFFFF AND PUSH4 0x70A08231 DUP6 PUSH1 0x40 MLOAD DUP3 PUSH4 0xFFFFFFFF AND PUSH1 0xE0 SHL DUP2 MSTORE PUSH1 0x4 ADD PUSH2 0x5EC SWAP2 SWAP1 PUSH2 0xADB JUMP JUMPDEST PUSH1 0x20 PUSH1 0x40 MLOAD DUP1 DUP4 SUB DUP2 DUP7 GAS STATICCALL ISZERO DUP1 ISZERO PUSH2 0x609 JUMPI RETURNDATASIZE PUSH1 0x0 DUP1 RETURNDATACOPY RETURNDATASIZE PUSH1 0x0 REVERT JUMPDEST POP POP POP POP PUSH1 0x40 MLOAD RETURNDATASIZE PUSH1 0x1F NOT PUSH1 0x1F DUP3 ADD AND DUP3 ADD DUP1 PUSH1 0x40 MSTORE POP DUP2 ADD SWAP1 PUSH2 0x62D SWAP2 SWAP1 PUSH2 0xB0B JUMP JUMPDEST LT ISZERO PUSH2 0x638 JUMPI PUSH1 0x0 DUP1 REVERT JUMPDEST PUSH1 0x0 PUSH2 0x643 DUP3 PUSH2 0x31D JUMP JUMPDEST SWAP1 POP DUP3 PUSH20 0xFFFFFFFFFFFFFFFFFFFFFFFFFFFFFFFFFFFFFFFF AND PUSH2 0x8FC DUP3 SWAP1 DUP2 ISZERO MUL SWAP1 PUSH1 0x40 MLOAD PUSH1 0x0 PUSH1 0x40 MLOAD DUP1 DUP4 SUB DUP2 DUP6 DUP9 DUP9 CALL SWAP4 POP POP POP POP ISZERO DUP1 ISZERO PUSH2 0x68B JUMPI RETURNDATASIZE PUSH1 0x0 DUP1 RETURNDATACOPY RETURNDATASIZE PUSH1 0x0 REVERT JUMPDEST POP PUSH1 0x1 PUSH1 0x0 SWAP1 SLOAD SWAP1 PUSH2 0x100 EXP SWAP1 DIV PUSH20 0xFFFFFFFFFFFFFFFFFFFFFFFFFFFFFFFFFFFFFFFF AND PUSH20 0xFFFFFFFFFFFFFFFFFFFFFFFFFFFFFFFFFFFFFFFF AND PUSH4 0x79CC6790 DUP6 DUP5 PUSH1 0x40 MLOAD DUP4 PUSH4 0xFFFFFFFF AND PUSH1 0xE0 SHL DUP2 MSTORE PUSH1 0x4 ADD PUSH2 0x6E9 SWAP3 SWAP2 SWAP1 PUSH2 0xCBA JUMP JUMPDEST PUSH1 0x0 PUSH1 0x40 MLOAD DUP1 DUP4 SUB DUP2 PUSH1 0x0 DUP8 DUP1 EXTCODESIZE ISZERO DUP1 ISZERO PUSH2 0x703 JUMPI PUSH1 0x0 DUP1 REVERT JUMPDEST POP GAS CALL ISZERO DUP1 ISZERO PUSH2 0x717 JUMPI RETURNDATASIZE PUSH1 0x0 DUP1 RETURNDATACOPY RETURNDATASIZE PUSH1 0x0 REVERT JUMPDEST POP POP POP POP POP POP POP POP JUMP JUMPDEST CALLER PUSH20 0xFFFFFFFFFFFFFFFFFFFFFFFFFFFFFFFFFFFFFFFF AND PUSH1 0x4 PUSH1 0x0 SWAP1 SLOAD SWAP1 PUSH2 0x100 EXP SWAP1 DIV PUSH20 0xFFFFFFFFFFFFFFFFFFFFFFFFFFFFFFFFFFFFFFFF AND PUSH20 0xFFFFFFFFFFFFFFFFFFFFFFFFFFFFFFFFFFFFFFFF AND EQ PUSH2 0x7B1 JUMPI PUSH1 0x40 MLOAD PUSH32 0x8C379A000000000000000000000000000000000000000000000000000000000 DUP2 MSTORE PUSH1 0x4 ADD PUSH2 0x7A8 SWAP1 PUSH2 0xC9A JUMP JUMPDEST PUSH1 0x40 MLOAD DUP1 SWAP2 SUB SWAP1 REVERT JUMPDEST PUSH1 0x4 PUSH1 0x0 SWAP1 SLOAD SWAP1 PUSH2 0x100 EXP SWAP1 DIV PUSH20 0xFFFFFFFFFFFFFFFFFFFFFFFFFFFFFFFFFFFFFFFF AND PUSH20 0xFFFFFFFFFFFFFFFFFFFFFFFFFFFFFFFFFFFFFFFF AND PUSH2 0x8FC SELFBALANCE SWAP1 DUP2 ISZERO MUL SWAP1 PUSH1 0x40 MLOAD PUSH1 0x0 PUSH1 0x40 MLOAD DUP1 DUP4 SUB DUP2 DUP6 DUP9 DUP9 CALL SWAP4 POP POP POP POP ISZERO DUP1 ISZERO PUSH2 0x819 JUMPI RETURNDATASIZE PUSH1 0x0 DUP1 RETURNDATACOPY RETURNDATASIZE PUSH1 0x0 REVERT JUMPDEST POP JUMP JUMPDEST PUSH1 0x0 PUSH2 0x827 DUP3 PUSH2 0x1C6 JUMP JUMPDEST SWAP1 POP DUP1 CALLVALUE LT ISZERO PUSH2 0x836 JUMPI PUSH1 0x0 DUP1 REVERT JUMPDEST POP POP POP JUMP JUMPDEST PUSH1 0x0 DUP2 DUP4 PUSH2 0x849 SWAP2 SWAP1 PUSH2 0xB9B JUMP JUMPDEST SWAP1 POP SWAP3 SWAP2 POP POP JUMP JUMPDEST PUSH1 0x0 DUP2 DUP4 PUSH2 0x85F SWAP2 SWAP1 PUSH2 0xCE3 JUMP JUMPDEST SWAP1 POP SWAP3 SWAP2 POP POP JUMP JUMPDEST PUSH1 0x0 DUP2 DUP4 PUSH2 0x875 SWAP2 SWAP1 PUSH2 0xB67 JUMP JUMPDEST SWAP1 POP SWAP3 SWAP2 POP POP JUMP JUMPDEST PUSH1 0x0 DUP2 DUP4 PUSH2 0x88B SWAP2 SWAP1 PUSH2 0xC0C JUMP JUMPDEST SWAP1 POP SWAP3 SWAP2 POP POP JUMP JUMPDEST PUSH1 0x0 DUP1 REVERT JUMPDEST PUSH1 0x0 DUP2 SWAP1 POP SWAP2 SWAP1 POP JUMP JUMPDEST PUSH2 0x8AB DUP2 PUSH2 0x898 JUMP JUMPDEST DUP2 EQ PUSH2 0x8B6 JUMPI PUSH1 0x0 DUP1 REVERT JUMPDEST POP JUMP JUMPDEST PUSH1 0x0 DUP2 CALLDATALOAD SWAP1 POP PUSH2 0x8C8 DUP2 PUSH2 0x8A2 JUMP JUMPDEST SWAP3 SWAP2 POP POP JUMP JUMPDEST PUSH1 0x0 PUSH1 0x20 DUP3 DUP5 SUB SLT ISZERO PUSH2 0x8E4 JUMPI PUSH2 0x8E3 PUSH2 0x893 JUMP JUMPDEST JUMPDEST PUSH1 0x0 PUSH2 0x8F2 DUP5 DUP3 DUP6 ADD PUSH2 0x8B9 JUMP JUMPDEST SWAP2 POP POP SWAP3 SWAP2 POP POP JUMP JUMPDEST PUSH2 0x904 DUP2 PUSH2 0x898 JUMP JUMPDEST DUP3 MSTORE POP POP JUMP JUMPDEST PUSH1 0x0 PUSH1 0x20 DUP3 ADD SWAP1 POP PUSH2 0x91F PUSH1 0x0 DUP4 ADD DUP5 PUSH2 0x8FB JUMP JUMPDEST SWAP3 SWAP2 POP POP JUMP JUMPDEST PUSH1 0x0 PUSH20 0xFFFFFFFFFFFFFFFFFFFFFFFFFFFFFFFFFFFFFFFF DUP3 AND SWAP1 POP SWAP2 SWAP1 POP JUMP JUMPDEST PUSH1 0x0 PUSH2 0x950 DUP3 PUSH2 0x925 JUMP JUMPDEST SWAP1 POP SWAP2 SWAP1 POP JUMP JUMPDEST PUSH2 0x960 DUP2 PUSH2 0x945 JUMP JUMPDEST DUP2 EQ PUSH2 0x96B JUMPI PUSH1 0x0 DUP1 REVERT JUMPDEST POP JUMP JUMPDEST PUSH1 0x0 DUP2 CALLDATALOAD SWAP1 POP PUSH2 0x97D DUP2 PUSH2 0x957 JUMP JUMPDEST SWAP3 SWAP2 POP POP JUMP JUMPDEST PUSH1 0x0 DUP2 ISZERO ISZERO SWAP1 POP SWAP2 SWAP1 POP JUMP JUMPDEST PUSH2 0x998 DUP2 PUSH2 0x983 JUMP JUMPDEST DUP2 EQ PUSH2 0x9A3 JUMPI PUSH1 0x0 DUP1 REVERT JUMPDEST POP JUMP JUMPDEST PUSH1 0x0 DUP2 CALLDATALOAD SWAP1 POP PUSH2 0x9B5 DUP2 PUSH2 0x98F JUMP JUMPDEST SWAP3 SWAP2 POP POP JUMP JUMPDEST PUSH1 0x0 DUP1 PUSH1 0x40 DUP4 DUP6 SUB SLT ISZERO PUSH2 0x9D2 JUMPI PUSH2 0x9D1 PUSH2 0x893 JUMP JUMPDEST JUMPDEST PUSH1 0x0 PUSH2 0x9E0 DUP6 DUP3 DUP7 ADD PUSH2 0x96E JUMP JUMPDEST SWAP3 POP POP PUSH1 0x20 PUSH2 0x9F1 DUP6 DUP3 DUP7 ADD PUSH2 0x9A6 JUMP JUMPDEST SWAP2 POP POP SWAP3 POP SWAP3 SWAP1 POP JUMP JUMPDEST PUSH1 0x0 PUSH2 0xA06 DUP3 PUSH2 0x925 JUMP JUMPDEST SWAP1 POP SWAP2 SWAP1 POP JUMP JUMPDEST PUSH2 0xA16 DUP2 PUSH2 0x9FB JUMP JUMPDEST DUP2 EQ PUSH2 0xA21 JUMPI PUSH1 0x0 DUP1 REVERT JUMPDEST POP JUMP JUMPDEST PUSH1 0x0 DUP2 CALLDATALOAD SWAP1 POP PUSH2 0xA33 DUP2 PUSH2 0xA0D JUMP JUMPDEST SWAP3 SWAP2 POP POP JUMP JUMPDEST PUSH1 0x0 DUP1 PUSH1 0x0 PUSH1 0x60 DUP5 DUP7 SUB SLT ISZERO PUSH2 0xA52 JUMPI PUSH2 0xA51 PUSH2 0x893 JUMP JUMPDEST JUMPDEST PUSH1 0x0 PUSH2 0xA60 DUP7 DUP3 DUP8 ADD PUSH2 0x96E JUMP JUMPDEST SWAP4 POP POP PUSH1 0x20 PUSH2 0xA71 DUP7 DUP3 DUP8 ADD PUSH2 0xA24 JUMP JUMPDEST SWAP3 POP POP PUSH1 0x40 PUSH2 0xA82 DUP7 DUP3 DUP8 ADD PUSH2 0x8B9 JUMP JUMPDEST SWAP2 POP POP SWAP3 POP SWAP3 POP SWAP3 JUMP JUMPDEST PUSH1 0x0 DUP1 PUSH1 0x40 DUP4 DUP6 SUB SLT ISZERO PUSH2 0xAA3 JUMPI PUSH2 0xAA2 PUSH2 0x893 JUMP JUMPDEST JUMPDEST PUSH1 0x0 PUSH2 0xAB1 DUP6 DUP3 DUP7 ADD PUSH2 0x96E JUMP JUMPDEST SWAP3 POP POP PUSH1 0x20 PUSH2 0xAC2 DUP6 DUP3 DUP7 ADD PUSH2 0x8B9 JUMP JUMPDEST SWAP2 POP POP SWAP3 POP SWAP3 SWAP1 POP JUMP JUMPDEST PUSH2 0xAD5 DUP2 PUSH2 0x945 JUMP JUMPDEST DUP3 MSTORE POP POP JUMP JUMPDEST PUSH1 0x0 PUSH1 0x20 DUP3 ADD SWAP1 POP PUSH2 0xAF0 PUSH1 0x0 DUP4 ADD DUP5 PUSH2 0xACC JUMP JUMPDEST SWAP3 SWAP2 POP POP JUMP JUMPDEST PUSH1 0x0 DUP2 MLOAD SWAP1 POP PUSH2 0xB05 DUP2 PUSH2 0x8A2 JUMP JUMPDEST SWAP3 SWAP2 POP POP JUMP JUMPDEST PUSH1 0x0 PUSH1 0x20 DUP3 DUP5 SUB SLT ISZERO PUSH2 0xB21 JUMPI PUSH2 0xB20 PUSH2 0x893 JUMP JUMPDEST JUMPDEST PUSH1 0x0 PUSH2 0xB2F DUP5 DUP3 DUP6 ADD PUSH2 0xAF6 JUMP JUMPDEST SWAP2 POP POP SWAP3 SWAP2 POP POP JUMP JUMPDEST PUSH32 0x4E487B7100000000000000000000000000000000000000000000000000000000 PUSH1 0x0 MSTORE PUSH1 0x11 PUSH1 0x4 MSTORE PUSH1 0x24 PUSH1 0x0 REVERT JUMPDEST PUSH1 0x0 PUSH2 0xB72 DUP3 PUSH2 0x898 JUMP JUMPDEST SWAP2 POP PUSH2 0xB7D DUP4 PUSH2 0x898 JUMP JUMPDEST SWAP3 POP DUP3 DUP3 ADD SWAP1 POP DUP1 DUP3 GT ISZERO PUSH2 0xB95 JUMPI PUSH2 0xB94 PUSH2 0xB38 JUMP JUMPDEST JUMPDEST SWAP3 SWAP2 POP POP JUMP JUMPDEST PUSH1 0x0 PUSH2 0xBA6 DUP3 PUSH2 0x898 JUMP JUMPDEST SWAP2 POP PUSH2 0xBB1 DUP4 PUSH2 0x898 JUMP JUMPDEST SWAP3 POP DUP3 DUP3 MUL PUSH2 0xBBF DUP2 PUSH2 0x898 JUMP JUMPDEST SWAP2 POP DUP3 DUP3 DIV DUP5 EQ DUP4 ISZERO OR PUSH2 0xBD6 JUMPI PUSH2 0xBD5 PUSH2 0xB38 JUMP JUMPDEST JUMPDEST POP SWAP3 SWAP2 POP POP JUMP JUMPDEST PUSH32 0x4E487B7100000000000000000000000000000000000000000000000000000000 PUSH1 0x0 MSTORE PUSH1 0x12 PUSH1 0x4 MSTORE PUSH1 0x24 PUSH1 0x0 REVERT JUMPDEST PUSH1 0x0 PUSH2 0xC17 DUP3 PUSH2 0x898 JUMP JUMPDEST SWAP2 POP PUSH2 0xC22 DUP4 PUSH2 0x898 JUMP JUMPDEST SWAP3 POP DUP3 PUSH2 0xC32 JUMPI PUSH2 0xC31 PUSH2 0xBDD JUMP JUMPDEST JUMPDEST DUP3 DUP3 DIV SWAP1 POP SWAP3 SWAP2 POP POP JUMP JUMPDEST PUSH1 0x0 DUP3 DUP3 MSTORE PUSH1 0x20 DUP3 ADD SWAP1 POP SWAP3 SWAP2 POP POP JUMP JUMPDEST PUSH32 0x4F776E61626C653A2063616C6C6572206973206E6F7420746865206F776E6572 PUSH1 0x0 DUP3 ADD MSTORE POP JUMP JUMPDEST PUSH1 0x0 PUSH2 0xC84 PUSH1 0x20 DUP4 PUSH2 0xC3D JUMP JUMPDEST SWAP2 POP PUSH2 0xC8F DUP3 PUSH2 0xC4E JUMP JUMPDEST PUSH1 0x20 DUP3 ADD SWAP1 POP SWAP2 SWAP1 POP JUMP JUMPDEST PUSH1 0x0 PUSH1 0x20 DUP3 ADD SWAP1 POP DUP2 DUP2 SUB PUSH1 0x0 DUP4 ADD MSTORE PUSH2 0xCB3 DUP2 PUSH2 0xC77 JUMP JUMPDEST SWAP1 POP SWAP2 SWAP1 POP JUMP JUMPDEST PUSH1 0x0 PUSH1 0x40 DUP3 ADD SWAP1 POP PUSH2 0xCCF PUSH1 0x0 DUP4 ADD DUP6 PUSH2 0xACC JUMP JUMPDEST PUSH2 0xCDC PUSH1 0x20 DUP4 ADD DUP5 PUSH2 0x8FB JUMP JUMPDEST SWAP4 SWAP3 POP POP POP JUMP JUMPDEST PUSH1 0x0 PUSH2 0xCEE DUP3 PUSH2 0x898 JUMP JUMPDEST SWAP2 POP PUSH2 0xCF9 DUP4 PUSH2 0x898 JUMP JUMPDEST SWAP3 POP DUP3 DUP3 SUB SWAP1 POP DUP2 DUP2 GT ISZERO PUSH2 0xD11 JUMPI PUSH2 0xD10 PUSH2 0xB38 JUMP JUMPDEST JUMPDEST SWAP3 SWAP2 POP POP JUMP INVALID LOG2 PUSH5 0x6970667358 0x22 SLT KECCAK256 0xD8 JUMPDEST SWAP2 0xB9 0xF9 0xB3 0xC DUP4 0xC1 CALLVALUE SELFDESTRUCT PUSH31 0x2D2355FB5C09BFF10258078293A76661AC6CD2B964736F6C63430008110033 "
				},
				"gasEstimates": {
					"creation": {
						"codeDepositCost": "681000",
						"executionCost": "144163",
						"totalCost": "825163"
					},
					"external": {
						"ETH_DCF(uint256)": "infinite",
						"Quote(uint256)": "infinite",
						"Warning_protect()": "infinite",
						"deposit()": "2380",
						"market(address,address,uint256)": "infinite",
						"market(uint256)": "infinite",
						"purchasePower(address,uint256)": "infinite",
						"setRouter(address,bool)": "27228"
					}
				},
				"methodIdentifiers": {
					"ETH_DCF(uint256)": "97dedb1d",
					"Quote(uint256)": "44c8ad13",
					"Warning_protect()": "dac3fad4",
					"deposit()": "d0e30db0",
					"market(address,address,uint256)": "d9e9402f",
					"market(uint256)": "28861d22",
					"purchasePower(address,uint256)": "daeae851",
					"setRouter(address,bool)": "c3c64674"
				}
			},
			"storageLayout": {
				"storage": [
					{
						"astId": 410,
						"contract": "minerpunk/treasury.sol:treasury",
						"label": "dcoff",
						"offset": 0,
						"slot": "0",
						"type": "t_contract(IERC20)77"
					},
					{
						"astId": 416,
						"contract": "minerpunk/treasury.sol:treasury",
						"label": "dcoffburn",
						"offset": 0,
						"slot": "1",
						"type": "t_contract(IburnFrom)401"
					},
					{
						"astId": 422,
						"contract": "minerpunk/treasury.sol:treasury",
						"label": "minePower",
						"offset": 0,
						"slot": "2",
						"type": "t_contract(IERC20)77"
					},
					{
						"astId": 428,
						"contract": "minerpunk/treasury.sol:treasury",
						"label": "minePowerburn",
						"offset": 0,
						"slot": "3",
						"type": "t_contract(IburnFrom)401"
					},
					{
						"astId": 445,
						"contract": "minerpunk/treasury.sol:treasury",
						"label": "owner",
						"offset": 0,
						"slot": "4",
						"type": "t_address"
					},
					{
						"astId": 447,
						"contract": "minerpunk/treasury.sol:treasury",
						"label": "k",
						"offset": 0,
						"slot": "5",
						"type": "t_uint256"
					},
					{
						"astId": 451,
						"contract": "minerpunk/treasury.sol:treasury",
						"label": "RouterAdmin",
						"offset": 0,
						"slot": "6",
						"type": "t_mapping(t_address,t_bool)"
					}
				],
				"types": {
					"t_address": {
						"encoding": "inplace",
						"label": "address",
						"numberOfBytes": "20"
					},
					"t_bool": {
						"encoding": "inplace",
						"label": "bool",
						"numberOfBytes": "1"
					},
					"t_contract(IERC20)77": {
						"encoding": "inplace",
						"label": "contract IERC20",
						"numberOfBytes": "20"
					},
					"t_contract(IburnFrom)401": {
						"encoding": "inplace",
						"label": "contract IburnFrom",
						"numberOfBytes": "20"
					},
					"t_mapping(t_address,t_bool)": {
						"encoding": "mapping",
						"key": "t_address",
						"label": "mapping(address => bool)",
						"numberOfBytes": "32",
						"value": "t_bool"
					},
					"t_uint256": {
						"encoding": "inplace",
						"label": "uint256",
						"numberOfBytes": "32"
					}
				}
			},
			"userdoc": {
				"kind": "user",
				"methods": {},
				"version": 1
			}
		}
	}
}