{
	"Dcoffer/treasury.sol": {
		"treasury": {
			"abi": [
				{
					"inputs": [],
					"stateMutability": "payable",
					"type": "constructor"
				},
				{
					"inputs": [
						{
							"internalType": "uint256",
							"name": "dcf_amount",
							"type": "uint256"
						}
					],
					"name": "ETH_DCF",
					"outputs": [
						{
							"internalType": "uint256",
							"name": "",
							"type": "uint256"
						}
					],
					"stateMutability": "view",
					"type": "function"
				},
				{
					"inputs": [],
					"name": "Warning_protect",
					"outputs": [],
					"stateMutability": "nonpayable",
					"type": "function"
				},
				{
					"inputs": [],
					"name": "deposit",
					"outputs": [],
					"stateMutability": "payable",
					"type": "function"
				},
				{
					"inputs": [
						{
							"internalType": "address payable",
							"name": "seller",
							"type": "address"
						},
						{
							"internalType": "uint256",
							"name": "dcf_amount",
							"type": "uint256"
						}
					],
					"name": "market",
					"outputs": [],
					"stateMutability": "nonpayable",
					"type": "function"
				},
				{
					"inputs": [
						{
							"internalType": "address",
							"name": "user",
							"type": "address"
						},
						{
							"internalType": "bool",
							"name": "power",
							"type": "bool"
						}
					],
					"name": "setRouter",
					"outputs": [],
					"stateMutability": "nonpayable",
					"type": "function"
				}
			],
			"devdoc": {
				"kind": "dev",
				"methods": {},
				"version": 1
			},
			"evm": {
				"assembly": "    /* \"Dcoffer/treasury.sol\":278:1676  contract treasury {... */\n  mstore(0x40, 0x80)\n    /* \"Dcoffer/treasury.sol\":356:398  0x4d231d87c831C1a0EB2B0855672AefE9545308A1 */\n  0x4d231d87c831c1a0eb2b0855672aefe9545308a1\n    /* \"Dcoffer/treasury.sol\":333:399  IERC20 dcoff =  IERC20(0x4d231d87c831C1a0EB2B0855672AefE9545308A1) */\n  0x00\n  dup1\n  0x0100\n  exp\n  dup2\n  sload\n  dup2\n  0xffffffffffffffffffffffffffffffffffffffff\n  mul\n  not\n  and\n  swap1\n  dup4\n  0xffffffffffffffffffffffffffffffffffffffff\n  and\n  mul\n  or\n  swap1\n  sstore\n  pop\n    /* \"Dcoffer/treasury.sol\":431:473  0x51d2B5462fe8fB671488Ac66aE4780d29bDCf6e1 */\n  0x51d2b5462fe8fb671488ac66ae4780d29bdcf6e1\n    /* \"Dcoffer/treasury.sol\":404:474  IburnFrom burn = IburnFrom(0x51d2B5462fe8fB671488Ac66aE4780d29bDCf6e1) */\n  0x01\n  exp(0x0100, 0x00)\n  dup2\n  sload\n  dup2\n  0xffffffffffffffffffffffffffffffffffffffff\n  mul\n  not\n  and\n  swap1\n  dup4\n  0xffffffffffffffffffffffffffffffffffffffff\n  and\n  mul\n  or\n  swap1\n  sstore\n  pop\n    /* \"Dcoffer/treasury.sol\":526:536  msg.sender */\n  caller\n    /* \"Dcoffer/treasury.sol\":518:523  owner */\n  0x02\n  0x00\n    /* \"Dcoffer/treasury.sol\":518:536  owner = msg.sender */\n  0x0100\n  exp\n  dup2\n  sload\n  dup2\n  0xffffffffffffffffffffffffffffffffffffffff\n  mul\n  not\n  and\n  swap1\n  dup4\n  0xffffffffffffffffffffffffffffffffffffffff\n  and\n  mul\n  or\n  swap1\n  sstore\n  pop\n    /* \"Dcoffer/treasury.sol\":278:1676  contract treasury {... */\n  dataSize(sub_0)\n  dup1\n  dataOffset(sub_0)\n  0x00\n  codecopy\n  0x00\n  return\nstop\n\nsub_0: assembly {\n        /* \"Dcoffer/treasury.sol\":278:1676  contract treasury {... */\n      mstore(0x40, 0x80)\n      jumpi(tag_1, lt(calldatasize, 0x04))\n      shr(0xe0, calldataload(0x00))\n      dup1\n      0x94756aa7\n      eq\n      tag_2\n      jumpi\n      dup1\n      0x97dedb1d\n      eq\n      tag_3\n      jumpi\n      dup1\n      0xc3c64674\n      eq\n      tag_4\n      jumpi\n      dup1\n      0xd0e30db0\n      eq\n      tag_5\n      jumpi\n      dup1\n      0xdac3fad4\n      eq\n      tag_6\n      jumpi\n    tag_1:\n      0x00\n      dup1\n      revert\n        /* \"Dcoffer/treasury.sol\":949:1266  function market(address payable seller, uint256 dcf_amount)external {... */\n    tag_2:\n      callvalue\n      dup1\n      iszero\n      tag_7\n      jumpi\n      0x00\n      dup1\n      revert\n    tag_7:\n      pop\n      tag_8\n      0x04\n      dup1\n      calldatasize\n      sub\n      dup2\n      add\n      swap1\n      tag_9\n      swap2\n      swap1\n      tag_10\n      jump\t// in\n    tag_9:\n      tag_11\n      jump\t// in\n    tag_8:\n      stop\n        /* \"Dcoffer/treasury.sol\":1274:1538  function ETH_DCF(uint256 dcf_amount)public view returns(uint256){... */\n    tag_3:\n      callvalue\n      dup1\n      iszero\n      tag_12\n      jumpi\n      0x00\n      dup1\n      revert\n    tag_12:\n      pop\n      tag_13\n      0x04\n      dup1\n      calldatasize\n      sub\n      dup2\n      add\n      swap1\n      tag_14\n      swap2\n      swap1\n      tag_15\n      jump\t// in\n    tag_14:\n      tag_16\n      jump\t// in\n    tag_13:\n      mload(0x40)\n      tag_17\n      swap2\n      swap1\n      tag_18\n      jump\t// in\n    tag_17:\n      mload(0x40)\n      dup1\n      swap2\n      sub\n      swap1\n      return\n        /* \"Dcoffer/treasury.sol\":742:844  function setRouter(address user, bool power)external onlyOwner{... */\n    tag_4:\n      callvalue\n      dup1\n      iszero\n      tag_19\n      jumpi\n      0x00\n      dup1\n      revert\n    tag_19:\n      pop\n      tag_20\n      0x04\n      dup1\n      calldatasize\n      sub\n      dup2\n      add\n      swap1\n      tag_21\n      swap2\n      swap1\n      tag_22\n      jump\t// in\n    tag_21:\n      tag_23\n      jump\t// in\n    tag_20:\n      stop\n        /* \"Dcoffer/treasury.sol\":852:941  function deposit()external payable{... */\n    tag_5:\n      tag_24\n      tag_25\n      jump\t// in\n    tag_24:\n      stop\n        /* \"Dcoffer/treasury.sol\":1548:1651  function Warning_protect()external onlyOwner{... */\n    tag_6:\n      callvalue\n      dup1\n      iszero\n      tag_26\n      jumpi\n      0x00\n      dup1\n      revert\n    tag_26:\n      pop\n      tag_27\n      tag_28\n      jump\t// in\n    tag_27:\n      stop\n        /* \"Dcoffer/treasury.sol\":949:1266  function market(address payable seller, uint256 dcf_amount)external {... */\n    tag_11:\n        /* \"Dcoffer/treasury.sol\":1061:1065  true */\n      0x01\n        /* \"Dcoffer/treasury.sol\":1034:1065  RouterAdmin[msg.sender] == true */\n      iszero\n      iszero\n        /* \"Dcoffer/treasury.sol\":1034:1045  RouterAdmin */\n      0x03\n        /* \"Dcoffer/treasury.sol\":1034:1057  RouterAdmin[msg.sender] */\n      0x00\n        /* \"Dcoffer/treasury.sol\":1046:1056  msg.sender */\n      caller\n        /* \"Dcoffer/treasury.sol\":1034:1057  RouterAdmin[msg.sender] */\n      0xffffffffffffffffffffffffffffffffffffffff\n      and\n      0xffffffffffffffffffffffffffffffffffffffff\n      and\n      dup2\n      mstore\n      0x20\n      add\n      swap1\n      dup2\n      mstore\n      0x20\n      add\n      0x00\n      keccak256\n      0x00\n      swap1\n      sload\n      swap1\n      0x0100\n      exp\n      swap1\n      div\n      0xff\n      and\n        /* \"Dcoffer/treasury.sol\":1034:1065  RouterAdmin[msg.sender] == true */\n      iszero\n      iszero\n      eq\n        /* \"Dcoffer/treasury.sol\":1026:1066  require(RouterAdmin[msg.sender] == true) */\n      tag_30\n      jumpi\n      0x00\n      dup1\n      revert\n    tag_30:\n        /* \"Dcoffer/treasury.sol\":1110:1120  dcf_amount */\n      dup1\n        /* \"Dcoffer/treasury.sol\":1083:1088  dcoff */\n      0x00\n      dup1\n      sload\n      swap1\n      0x0100\n      exp\n      swap1\n      div\n      0xffffffffffffffffffffffffffffffffffffffff\n      and\n        /* \"Dcoffer/treasury.sol\":1083:1098  dcoff.balanceOf */\n      0xffffffffffffffffffffffffffffffffffffffff\n      and\n      0x70a08231\n        /* \"Dcoffer/treasury.sol\":1099:1105  seller */\n      dup5\n        /* \"Dcoffer/treasury.sol\":1083:1106  dcoff.balanceOf(seller) */\n      mload(0x40)\n      dup3\n      0xffffffff\n      and\n      0xe0\n      shl\n      dup2\n      mstore\n      0x04\n      add\n      tag_31\n      swap2\n      swap1\n      tag_32\n      jump\t// in\n    tag_31:\n      0x20\n      mload(0x40)\n      dup1\n      dup4\n      sub\n      dup2\n      dup7\n      gas\n      staticcall\n      iszero\n      dup1\n      iszero\n      tag_34\n      jumpi\n      returndatasize\n      0x00\n      dup1\n      returndatacopy\n      revert(0x00, returndatasize)\n    tag_34:\n      pop\n      pop\n      pop\n      pop\n      mload(0x40)\n      returndatasize\n      not(0x1f)\n      0x1f\n      dup3\n      add\n      and\n      dup3\n      add\n      dup1\n      0x40\n      mstore\n      pop\n      dup2\n      add\n      swap1\n      tag_35\n      swap2\n      swap1\n      tag_36\n      jump\t// in\n    tag_35:\n        /* \"Dcoffer/treasury.sol\":1083:1120  dcoff.balanceOf(seller) >= dcf_amount */\n      lt\n      iszero\n        /* \"Dcoffer/treasury.sol\":1075:1121  require(dcoff.balanceOf(seller) >= dcf_amount) */\n      tag_37\n      jumpi\n      0x00\n      dup1\n      revert\n    tag_37:\n        /* \"Dcoffer/treasury.sol\":1132:1150  uint256 eth_amount */\n      0x00\n        /* \"Dcoffer/treasury.sol\":1152:1171  ETH_DCF(dcf_amount) */\n      tag_38\n        /* \"Dcoffer/treasury.sol\":1160:1170  dcf_amount */\n      dup3\n        /* \"Dcoffer/treasury.sol\":1152:1159  ETH_DCF */\n      tag_16\n        /* \"Dcoffer/treasury.sol\":1152:1171  ETH_DCF(dcf_amount) */\n      jump\t// in\n    tag_38:\n        /* \"Dcoffer/treasury.sol\":1132:1171  uint256 eth_amount =ETH_DCF(dcf_amount) */\n      swap1\n      pop\n        /* \"Dcoffer/treasury.sol\":1186:1192  seller */\n      dup3\n        /* \"Dcoffer/treasury.sol\":1186:1201  seller.transfer */\n      0xffffffffffffffffffffffffffffffffffffffff\n      and\n        /* \"Dcoffer/treasury.sol\":1186:1213  seller.transfer(eth_amount) */\n      0x08fc\n        /* \"Dcoffer/treasury.sol\":1202:1212  eth_amount */\n      dup3\n        /* \"Dcoffer/treasury.sol\":1186:1213  seller.transfer(eth_amount) */\n      swap1\n      dup2\n      iszero\n      mul\n      swap1\n      mload(0x40)\n      0x00\n      mload(0x40)\n      dup1\n      dup4\n      sub\n      dup2\n      dup6\n      dup9\n      dup9\n      call\n      swap4\n      pop\n      pop\n      pop\n      pop\n      iszero\n      dup1\n      iszero\n      tag_40\n      jumpi\n      returndatasize\n      0x00\n      dup1\n      returndatacopy\n      revert(0x00, returndatasize)\n    tag_40:\n      pop\n        /* \"Dcoffer/treasury.sol\":1222:1226  burn */\n      0x01\n      0x00\n      swap1\n      sload\n      swap1\n      0x0100\n      exp\n      swap1\n      div\n      0xffffffffffffffffffffffffffffffffffffffff\n      and\n        /* \"Dcoffer/treasury.sol\":1222:1235  burn.burnFrom */\n      0xffffffffffffffffffffffffffffffffffffffff\n      and\n      0x79cc6790\n        /* \"Dcoffer/treasury.sol\":1236:1242  seller */\n      dup5\n        /* \"Dcoffer/treasury.sol\":1243:1253  dcf_amount */\n      dup5\n        /* \"Dcoffer/treasury.sol\":1222:1254  burn.burnFrom(seller,dcf_amount) */\n      mload(0x40)\n      dup4\n      0xffffffff\n      and\n      0xe0\n      shl\n      dup2\n      mstore\n      0x04\n      add\n      tag_41\n      swap3\n      swap2\n      swap1\n      tag_42\n      jump\t// in\n    tag_41:\n      0x00\n      mload(0x40)\n      dup1\n      dup4\n      sub\n      dup2\n      0x00\n      dup8\n      dup1\n      extcodesize\n      iszero\n      dup1\n      iszero\n      tag_43\n      jumpi\n      0x00\n      dup1\n      revert\n    tag_43:\n      pop\n      gas\n      call\n      iszero\n      dup1\n      iszero\n      tag_45\n      jumpi\n      returndatasize\n      0x00\n      dup1\n      returndatacopy\n      revert(0x00, returndatasize)\n    tag_45:\n      pop\n      pop\n      pop\n      pop\n        /* \"Dcoffer/treasury.sol\":1017:1266  {... */\n      pop\n        /* \"Dcoffer/treasury.sol\":949:1266  function market(address payable seller, uint256 dcf_amount)external {... */\n      pop\n      pop\n      jump\t// out\n        /* \"Dcoffer/treasury.sol\":1274:1538  function ETH_DCF(uint256 dcf_amount)public view returns(uint256){... */\n    tag_16:\n        /* \"Dcoffer/treasury.sol\":1330:1337  uint256 */\n      0x00\n        /* \"Dcoffer/treasury.sol\":1345:1364  uint256 _eth_amount */\n      dup1\n        /* \"Dcoffer/treasury.sol\":1367:1388  address(this).balance */\n      selfbalance\n        /* \"Dcoffer/treasury.sol\":1345:1388  uint256 _eth_amount = address(this).balance */\n      swap1\n      pop\n        /* \"Dcoffer/treasury.sol\":1395:1414  uint256 _dcf_amount */\n      0x00\n        /* \"Dcoffer/treasury.sol\":1417:1422  dcoff */\n      dup1\n      0x00\n      swap1\n      sload\n      swap1\n      0x0100\n      exp\n      swap1\n      div\n      0xffffffffffffffffffffffffffffffffffffffff\n      and\n        /* \"Dcoffer/treasury.sol\":1417:1434  dcoff.totalSupply */\n      0xffffffffffffffffffffffffffffffffffffffff\n      and\n      0x18160ddd\n        /* \"Dcoffer/treasury.sol\":1417:1436  dcoff.totalSupply() */\n      mload(0x40)\n      dup2\n      0xffffffff\n      and\n      0xe0\n      shl\n      dup2\n      mstore\n      0x04\n      add\n      0x20\n      mload(0x40)\n      dup1\n      dup4\n      sub\n      dup2\n      dup7\n      gas\n      staticcall\n      iszero\n      dup1\n      iszero\n      tag_48\n      jumpi\n      returndatasize\n      0x00\n      dup1\n      returndatacopy\n      revert(0x00, returndatasize)\n    tag_48:\n      pop\n      pop\n      pop\n      pop\n      mload(0x40)\n      returndatasize\n      not(0x1f)\n      0x1f\n      dup3\n      add\n      and\n      dup3\n      add\n      dup1\n      0x40\n      mstore\n      pop\n      dup2\n      add\n      swap1\n      tag_49\n      swap2\n      swap1\n      tag_36\n      jump\t// in\n    tag_49:\n        /* \"Dcoffer/treasury.sol\":1395:1436  uint256 _dcf_amount = dcoff.totalSupply() */\n      swap1\n      pop\n        /* \"Dcoffer/treasury.sol\":1445:1459  uint256 _price */\n      0x00\n        /* \"Dcoffer/treasury.sol\":1462:1512  uint(dcf_amount).mul(_eth_amount).div(_dcf_amount) */\n      tag_50\n        /* \"Dcoffer/treasury.sol\":1500:1511  _dcf_amount */\n      dup3\n        /* \"Dcoffer/treasury.sol\":1462:1495  uint(dcf_amount).mul(_eth_amount) */\n      tag_51\n        /* \"Dcoffer/treasury.sol\":1483:1494  _eth_amount */\n      dup6\n        /* \"Dcoffer/treasury.sol\":1467:1477  dcf_amount */\n      dup9\n        /* \"Dcoffer/treasury.sol\":1462:1482  uint(dcf_amount).mul */\n      tag_52\n      swap1\n        /* \"Dcoffer/treasury.sol\":1462:1495  uint(dcf_amount).mul(_eth_amount) */\n      swap2\n      swap1\n      0xffffffff\n      and\n      jump\t// in\n    tag_51:\n        /* \"Dcoffer/treasury.sol\":1462:1499  uint(dcf_amount).mul(_eth_amount).div */\n      tag_53\n      swap1\n        /* \"Dcoffer/treasury.sol\":1462:1512  uint(dcf_amount).mul(_eth_amount).div(_dcf_amount) */\n      swap2\n      swap1\n      0xffffffff\n      and\n      jump\t// in\n    tag_50:\n        /* \"Dcoffer/treasury.sol\":1445:1512  uint256 _price = uint(dcf_amount).mul(_eth_amount).div(_dcf_amount) */\n      swap1\n      pop\n        /* \"Dcoffer/treasury.sol\":1526:1532  _price */\n      dup1\n        /* \"Dcoffer/treasury.sol\":1519:1532  return _price */\n      swap4\n      pop\n      pop\n      pop\n      pop\n        /* \"Dcoffer/treasury.sol\":1274:1538  function ETH_DCF(uint256 dcf_amount)public view returns(uint256){... */\n      swap2\n      swap1\n      pop\n      jump\t// out\n        /* \"Dcoffer/treasury.sol\":742:844  function setRouter(address user, bool power)external onlyOwner{... */\n    tag_23:\n        /* \"Dcoffer/treasury.sol\":665:675  msg.sender */\n      caller\n        /* \"Dcoffer/treasury.sol\":656:675  owner == msg.sender */\n      0xffffffffffffffffffffffffffffffffffffffff\n      and\n        /* \"Dcoffer/treasury.sol\":656:661  owner */\n      0x02\n      0x00\n      swap1\n      sload\n      swap1\n      0x0100\n      exp\n      swap1\n      div\n      0xffffffffffffffffffffffffffffffffffffffff\n      and\n        /* \"Dcoffer/treasury.sol\":656:675  owner == msg.sender */\n      0xffffffffffffffffffffffffffffffffffffffff\n      and\n      eq\n        /* \"Dcoffer/treasury.sol\":648:712  require(owner == msg.sender, \"Ownable: caller is not the owner\") */\n      tag_55\n      jumpi\n      mload(0x40)\n      0x08c379a000000000000000000000000000000000000000000000000000000000\n      dup2\n      mstore\n      0x04\n      add\n      tag_56\n      swap1\n      tag_57\n      jump\t// in\n    tag_56:\n      mload(0x40)\n      dup1\n      swap2\n      sub\n      swap1\n      revert\n    tag_55:\n        /* \"Dcoffer/treasury.sol\":833:838  power */\n      dup1\n        /* \"Dcoffer/treasury.sol\":813:824  RouterAdmin */\n      0x03\n        /* \"Dcoffer/treasury.sol\":813:830  RouterAdmin[user] */\n      0x00\n        /* \"Dcoffer/treasury.sol\":825:829  user */\n      dup5\n        /* \"Dcoffer/treasury.sol\":813:830  RouterAdmin[user] */\n      0xffffffffffffffffffffffffffffffffffffffff\n      and\n      0xffffffffffffffffffffffffffffffffffffffff\n      and\n      dup2\n      mstore\n      0x20\n      add\n      swap1\n      dup2\n      mstore\n      0x20\n      add\n      0x00\n      keccak256\n      0x00\n        /* \"Dcoffer/treasury.sol\":813:838  RouterAdmin[user] = power */\n      0x0100\n      exp\n      dup2\n      sload\n      dup2\n      0xff\n      mul\n      not\n      and\n      swap1\n      dup4\n      iszero\n      iszero\n      mul\n      or\n      swap1\n      sstore\n      pop\n        /* \"Dcoffer/treasury.sol\":742:844  function setRouter(address user, bool power)external onlyOwner{... */\n      pop\n      pop\n      jump\t// out\n        /* \"Dcoffer/treasury.sol\":852:941  function deposit()external payable{... */\n    tag_25:\n        /* \"Dcoffer/treasury.sol\":930:934  true */\n      0x01\n        /* \"Dcoffer/treasury.sol\":903:934  RouterAdmin[msg.sender] == true */\n      iszero\n      iszero\n        /* \"Dcoffer/treasury.sol\":903:914  RouterAdmin */\n      0x03\n        /* \"Dcoffer/treasury.sol\":903:926  RouterAdmin[msg.sender] */\n      0x00\n        /* \"Dcoffer/treasury.sol\":915:925  msg.sender */\n      caller\n        /* \"Dcoffer/treasury.sol\":903:926  RouterAdmin[msg.sender] */\n      0xffffffffffffffffffffffffffffffffffffffff\n      and\n      0xffffffffffffffffffffffffffffffffffffffff\n      and\n      dup2\n      mstore\n      0x20\n      add\n      swap1\n      dup2\n      mstore\n      0x20\n      add\n      0x00\n      keccak256\n      0x00\n      swap1\n      sload\n      swap1\n      0x0100\n      exp\n      swap1\n      div\n      0xff\n      and\n        /* \"Dcoffer/treasury.sol\":903:934  RouterAdmin[msg.sender] == true */\n      iszero\n      iszero\n      eq\n        /* \"Dcoffer/treasury.sol\":895:935  require(RouterAdmin[msg.sender] == true) */\n      tag_60\n      jumpi\n      0x00\n      dup1\n      revert\n    tag_60:\n        /* \"Dcoffer/treasury.sol\":852:941  function deposit()external payable{... */\n      jump\t// out\n        /* \"Dcoffer/treasury.sol\":1548:1651  function Warning_protect()external onlyOwner{... */\n    tag_28:\n        /* \"Dcoffer/treasury.sol\":665:675  msg.sender */\n      caller\n        /* \"Dcoffer/treasury.sol\":656:675  owner == msg.sender */\n      0xffffffffffffffffffffffffffffffffffffffff\n      and\n        /* \"Dcoffer/treasury.sol\":656:661  owner */\n      0x02\n      0x00\n      swap1\n      sload\n      swap1\n      0x0100\n      exp\n      swap1\n      div\n      0xffffffffffffffffffffffffffffffffffffffff\n      and\n        /* \"Dcoffer/treasury.sol\":656:675  owner == msg.sender */\n      0xffffffffffffffffffffffffffffffffffffffff\n      and\n      eq\n        /* \"Dcoffer/treasury.sol\":648:712  require(owner == msg.sender, \"Ownable: caller is not the owner\") */\n      tag_62\n      jumpi\n      mload(0x40)\n      0x08c379a000000000000000000000000000000000000000000000000000000000\n      dup2\n      mstore\n      0x04\n      add\n      tag_63\n      swap1\n      tag_57\n      jump\t// in\n    tag_63:\n      mload(0x40)\n      dup1\n      swap2\n      sub\n      swap1\n      revert\n    tag_62:\n        /* \"Dcoffer/treasury.sol\":1607:1612  owner */\n      0x02\n      0x00\n      swap1\n      sload\n      swap1\n      0x0100\n      exp\n      swap1\n      div\n      0xffffffffffffffffffffffffffffffffffffffff\n      and\n        /* \"Dcoffer/treasury.sol\":1599:1622  payable(owner).transfer */\n      0xffffffffffffffffffffffffffffffffffffffff\n      and\n        /* \"Dcoffer/treasury.sol\":1599:1645  payable(owner).transfer(address(this).balance) */\n      0x08fc\n        /* \"Dcoffer/treasury.sol\":1623:1644  address(this).balance */\n      selfbalance\n        /* \"Dcoffer/treasury.sol\":1599:1645  payable(owner).transfer(address(this).balance) */\n      swap1\n      dup2\n      iszero\n      mul\n      swap1\n      mload(0x40)\n      0x00\n      mload(0x40)\n      dup1\n      dup4\n      sub\n      dup2\n      dup6\n      dup9\n      dup9\n      call\n      swap4\n      pop\n      pop\n      pop\n      pop\n      iszero\n      dup1\n      iszero\n      tag_66\n      jumpi\n      returndatasize\n      0x00\n      dup1\n      returndatacopy\n      revert(0x00, returndatasize)\n    tag_66:\n      pop\n        /* \"Dcoffer/treasury.sol\":1548:1651  function Warning_protect()external onlyOwner{... */\n      jump\t// out\n        /* \"@openzeppelin/contracts/utils/math/SafeMath.sol\":3465:3561  function mul(uint256 a, uint256 b) internal pure returns (uint256) {... */\n    tag_52:\n        /* \"@openzeppelin/contracts/utils/math/SafeMath.sol\":3523:3530  uint256 */\n      0x00\n        /* \"@openzeppelin/contracts/utils/math/SafeMath.sol\":3553:3554  b */\n      dup2\n        /* \"@openzeppelin/contracts/utils/math/SafeMath.sol\":3549:3550  a */\n      dup4\n        /* \"@openzeppelin/contracts/utils/math/SafeMath.sol\":3549:3554  a * b */\n      tag_68\n      swap2\n      swap1\n      tag_69\n      jump\t// in\n    tag_68:\n        /* \"@openzeppelin/contracts/utils/math/SafeMath.sol\":3542:3554  return a * b */\n      swap1\n      pop\n        /* \"@openzeppelin/contracts/utils/math/SafeMath.sol\":3465:3561  function mul(uint256 a, uint256 b) internal pure returns (uint256) {... */\n      swap3\n      swap2\n      pop\n      pop\n      jump\t// out\n        /* \"@openzeppelin/contracts/utils/math/SafeMath.sol\":3850:3946  function div(uint256 a, uint256 b) internal pure returns (uint256) {... */\n    tag_53:\n        /* \"@openzeppelin/contracts/utils/math/SafeMath.sol\":3908:3915  uint256 */\n      0x00\n        /* \"@openzeppelin/contracts/utils/math/SafeMath.sol\":3938:3939  b */\n      dup2\n        /* \"@openzeppelin/contracts/utils/math/SafeMath.sol\":3934:3935  a */\n      dup4\n        /* \"@openzeppelin/contracts/utils/math/SafeMath.sol\":3934:3939  a / b */\n      tag_71\n      swap2\n      swap1\n      tag_72\n      jump\t// in\n    tag_71:\n        /* \"@openzeppelin/contracts/utils/math/SafeMath.sol\":3927:3939  return a / b */\n      swap1\n      pop\n        /* \"@openzeppelin/contracts/utils/math/SafeMath.sol\":3850:3946  function div(uint256 a, uint256 b) internal pure returns (uint256) {... */\n      swap3\n      swap2\n      pop\n      pop\n      jump\t// out\n        /* \"#utility.yul\":88:205   */\n    tag_74:\n        /* \"#utility.yul\":197:198   */\n      0x00\n        /* \"#utility.yul\":194:195   */\n      dup1\n        /* \"#utility.yul\":187:199   */\n      revert\n        /* \"#utility.yul\":334:460   */\n    tag_76:\n        /* \"#utility.yul\":371:378   */\n      0x00\n        /* \"#utility.yul\":411:453   */\n      0xffffffffffffffffffffffffffffffffffffffff\n        /* \"#utility.yul\":404:409   */\n      dup3\n        /* \"#utility.yul\":400:454   */\n      and\n        /* \"#utility.yul\":389:454   */\n      swap1\n      pop\n        /* \"#utility.yul\":334:460   */\n      swap2\n      swap1\n      pop\n      jump\t// out\n        /* \"#utility.yul\":466:570   */\n    tag_77:\n        /* \"#utility.yul\":511:518   */\n      0x00\n        /* \"#utility.yul\":540:564   */\n      tag_107\n        /* \"#utility.yul\":558:563   */\n      dup3\n        /* \"#utility.yul\":540:564   */\n      tag_76\n      jump\t// in\n    tag_107:\n        /* \"#utility.yul\":529:564   */\n      swap1\n      pop\n        /* \"#utility.yul\":466:570   */\n      swap2\n      swap1\n      pop\n      jump\t// out\n        /* \"#utility.yul\":576:714   */\n    tag_78:\n        /* \"#utility.yul\":657:689   */\n      tag_109\n        /* \"#utility.yul\":683:688   */\n      dup2\n        /* \"#utility.yul\":657:689   */\n      tag_77\n      jump\t// in\n    tag_109:\n        /* \"#utility.yul\":650:655   */\n      dup2\n        /* \"#utility.yul\":647:690   */\n      eq\n        /* \"#utility.yul\":637:708   */\n      tag_110\n      jumpi\n        /* \"#utility.yul\":704:705   */\n      0x00\n        /* \"#utility.yul\":701:702   */\n      dup1\n        /* \"#utility.yul\":694:706   */\n      revert\n        /* \"#utility.yul\":637:708   */\n    tag_110:\n        /* \"#utility.yul\":576:714   */\n      pop\n      jump\t// out\n        /* \"#utility.yul\":720:875   */\n    tag_79:\n        /* \"#utility.yul\":774:779   */\n      0x00\n        /* \"#utility.yul\":812:818   */\n      dup2\n        /* \"#utility.yul\":799:819   */\n      calldataload\n        /* \"#utility.yul\":790:819   */\n      swap1\n      pop\n        /* \"#utility.yul\":828:869   */\n      tag_112\n        /* \"#utility.yul\":863:868   */\n      dup2\n        /* \"#utility.yul\":828:869   */\n      tag_78\n      jump\t// in\n    tag_112:\n        /* \"#utility.yul\":720:875   */\n      swap3\n      swap2\n      pop\n      pop\n      jump\t// out\n        /* \"#utility.yul\":881:958   */\n    tag_80:\n        /* \"#utility.yul\":918:925   */\n      0x00\n        /* \"#utility.yul\":947:952   */\n      dup2\n        /* \"#utility.yul\":936:952   */\n      swap1\n      pop\n        /* \"#utility.yul\":881:958   */\n      swap2\n      swap1\n      pop\n      jump\t// out\n        /* \"#utility.yul\":964:1086   */\n    tag_81:\n        /* \"#utility.yul\":1037:1061   */\n      tag_115\n        /* \"#utility.yul\":1055:1060   */\n      dup2\n        /* \"#utility.yul\":1037:1061   */\n      tag_80\n      jump\t// in\n    tag_115:\n        /* \"#utility.yul\":1030:1035   */\n      dup2\n        /* \"#utility.yul\":1027:1062   */\n      eq\n        /* \"#utility.yul\":1017:1080   */\n      tag_116\n      jumpi\n        /* \"#utility.yul\":1076:1077   */\n      0x00\n        /* \"#utility.yul\":1073:1074   */\n      dup1\n        /* \"#utility.yul\":1066:1078   */\n      revert\n        /* \"#utility.yul\":1017:1080   */\n    tag_116:\n        /* \"#utility.yul\":964:1086   */\n      pop\n      jump\t// out\n        /* \"#utility.yul\":1092:1231   */\n    tag_82:\n        /* \"#utility.yul\":1138:1143   */\n      0x00\n        /* \"#utility.yul\":1176:1182   */\n      dup2\n        /* \"#utility.yul\":1163:1183   */\n      calldataload\n        /* \"#utility.yul\":1154:1183   */\n      swap1\n      pop\n        /* \"#utility.yul\":1192:1225   */\n      tag_118\n        /* \"#utility.yul\":1219:1224   */\n      dup2\n        /* \"#utility.yul\":1192:1225   */\n      tag_81\n      jump\t// in\n    tag_118:\n        /* \"#utility.yul\":1092:1231   */\n      swap3\n      swap2\n      pop\n      pop\n      jump\t// out\n        /* \"#utility.yul\":1237:1727   */\n    tag_10:\n        /* \"#utility.yul\":1313:1319   */\n      0x00\n        /* \"#utility.yul\":1321:1327   */\n      dup1\n        /* \"#utility.yul\":1370:1372   */\n      0x40\n        /* \"#utility.yul\":1358:1367   */\n      dup4\n        /* \"#utility.yul\":1349:1356   */\n      dup6\n        /* \"#utility.yul\":1345:1368   */\n      sub\n        /* \"#utility.yul\":1341:1373   */\n      slt\n        /* \"#utility.yul\":1338:1457   */\n      iszero\n      tag_120\n      jumpi\n        /* \"#utility.yul\":1376:1455   */\n      tag_121\n      tag_74\n      jump\t// in\n    tag_121:\n        /* \"#utility.yul\":1338:1457   */\n    tag_120:\n        /* \"#utility.yul\":1496:1497   */\n      0x00\n        /* \"#utility.yul\":1521:1582   */\n      tag_122\n        /* \"#utility.yul\":1574:1581   */\n      dup6\n        /* \"#utility.yul\":1565:1571   */\n      dup3\n        /* \"#utility.yul\":1554:1563   */\n      dup7\n        /* \"#utility.yul\":1550:1572   */\n      add\n        /* \"#utility.yul\":1521:1582   */\n      tag_79\n      jump\t// in\n    tag_122:\n        /* \"#utility.yul\":1511:1582   */\n      swap3\n      pop\n        /* \"#utility.yul\":1467:1592   */\n      pop\n        /* \"#utility.yul\":1631:1633   */\n      0x20\n        /* \"#utility.yul\":1657:1710   */\n      tag_123\n        /* \"#utility.yul\":1702:1709   */\n      dup6\n        /* \"#utility.yul\":1693:1699   */\n      dup3\n        /* \"#utility.yul\":1682:1691   */\n      dup7\n        /* \"#utility.yul\":1678:1700   */\n      add\n        /* \"#utility.yul\":1657:1710   */\n      tag_82\n      jump\t// in\n    tag_123:\n        /* \"#utility.yul\":1647:1710   */\n      swap2\n      pop\n        /* \"#utility.yul\":1602:1720   */\n      pop\n        /* \"#utility.yul\":1237:1727   */\n      swap3\n      pop\n      swap3\n      swap1\n      pop\n      jump\t// out\n        /* \"#utility.yul\":1733:2062   */\n    tag_15:\n        /* \"#utility.yul\":1792:1798   */\n      0x00\n        /* \"#utility.yul\":1841:1843   */\n      0x20\n        /* \"#utility.yul\":1829:1838   */\n      dup3\n        /* \"#utility.yul\":1820:1827   */\n      dup5\n        /* \"#utility.yul\":1816:1839   */\n      sub\n        /* \"#utility.yul\":1812:1844   */\n      slt\n        /* \"#utility.yul\":1809:1928   */\n      iszero\n      tag_125\n      jumpi\n        /* \"#utility.yul\":1847:1926   */\n      tag_126\n      tag_74\n      jump\t// in\n    tag_126:\n        /* \"#utility.yul\":1809:1928   */\n    tag_125:\n        /* \"#utility.yul\":1967:1968   */\n      0x00\n        /* \"#utility.yul\":1992:2045   */\n      tag_127\n        /* \"#utility.yul\":2037:2044   */\n      dup5\n        /* \"#utility.yul\":2028:2034   */\n      dup3\n        /* \"#utility.yul\":2017:2026   */\n      dup6\n        /* \"#utility.yul\":2013:2035   */\n      add\n        /* \"#utility.yul\":1992:2045   */\n      tag_82\n      jump\t// in\n    tag_127:\n        /* \"#utility.yul\":1982:2045   */\n      swap2\n      pop\n        /* \"#utility.yul\":1938:2055   */\n      pop\n        /* \"#utility.yul\":1733:2062   */\n      swap3\n      swap2\n      pop\n      pop\n      jump\t// out\n        /* \"#utility.yul\":2068:2186   */\n    tag_83:\n        /* \"#utility.yul\":2155:2179   */\n      tag_129\n        /* \"#utility.yul\":2173:2178   */\n      dup2\n        /* \"#utility.yul\":2155:2179   */\n      tag_80\n      jump\t// in\n    tag_129:\n        /* \"#utility.yul\":2150:2153   */\n      dup3\n        /* \"#utility.yul\":2143:2180   */\n      mstore\n        /* \"#utility.yul\":2068:2186   */\n      pop\n      pop\n      jump\t// out\n        /* \"#utility.yul\":2192:2414   */\n    tag_18:\n        /* \"#utility.yul\":2285:2289   */\n      0x00\n        /* \"#utility.yul\":2323:2325   */\n      0x20\n        /* \"#utility.yul\":2312:2321   */\n      dup3\n        /* \"#utility.yul\":2308:2326   */\n      add\n        /* \"#utility.yul\":2300:2326   */\n      swap1\n      pop\n        /* \"#utility.yul\":2336:2407   */\n      tag_131\n        /* \"#utility.yul\":2404:2405   */\n      0x00\n        /* \"#utility.yul\":2393:2402   */\n      dup4\n        /* \"#utility.yul\":2389:2406   */\n      add\n        /* \"#utility.yul\":2380:2386   */\n      dup5\n        /* \"#utility.yul\":2336:2407   */\n      tag_83\n      jump\t// in\n    tag_131:\n        /* \"#utility.yul\":2192:2414   */\n      swap3\n      swap2\n      pop\n      pop\n      jump\t// out\n        /* \"#utility.yul\":2420:2516   */\n    tag_84:\n        /* \"#utility.yul\":2457:2464   */\n      0x00\n        /* \"#utility.yul\":2486:2510   */\n      tag_133\n        /* \"#utility.yul\":2504:2509   */\n      dup3\n        /* \"#utility.yul\":2486:2510   */\n      tag_76\n      jump\t// in\n    tag_133:\n        /* \"#utility.yul\":2475:2510   */\n      swap1\n      pop\n        /* \"#utility.yul\":2420:2516   */\n      swap2\n      swap1\n      pop\n      jump\t// out\n        /* \"#utility.yul\":2522:2644   */\n    tag_85:\n        /* \"#utility.yul\":2595:2619   */\n      tag_135\n        /* \"#utility.yul\":2613:2618   */\n      dup2\n        /* \"#utility.yul\":2595:2619   */\n      tag_84\n      jump\t// in\n    tag_135:\n        /* \"#utility.yul\":2588:2593   */\n      dup2\n        /* \"#utility.yul\":2585:2620   */\n      eq\n        /* \"#utility.yul\":2575:2638   */\n      tag_136\n      jumpi\n        /* \"#utility.yul\":2634:2635   */\n      0x00\n        /* \"#utility.yul\":2631:2632   */\n      dup1\n        /* \"#utility.yul\":2624:2636   */\n      revert\n        /* \"#utility.yul\":2575:2638   */\n    tag_136:\n        /* \"#utility.yul\":2522:2644   */\n      pop\n      jump\t// out\n        /* \"#utility.yul\":2650:2789   */\n    tag_86:\n        /* \"#utility.yul\":2696:2701   */\n      0x00\n        /* \"#utility.yul\":2734:2740   */\n      dup2\n        /* \"#utility.yul\":2721:2741   */\n      calldataload\n        /* \"#utility.yul\":2712:2741   */\n      swap1\n      pop\n        /* \"#utility.yul\":2750:2783   */\n      tag_138\n        /* \"#utility.yul\":2777:2782   */\n      dup2\n        /* \"#utility.yul\":2750:2783   */\n      tag_85\n      jump\t// in\n    tag_138:\n        /* \"#utility.yul\":2650:2789   */\n      swap3\n      swap2\n      pop\n      pop\n      jump\t// out\n        /* \"#utility.yul\":2795:2885   */\n    tag_87:\n        /* \"#utility.yul\":2829:2836   */\n      0x00\n        /* \"#utility.yul\":2872:2877   */\n      dup2\n        /* \"#utility.yul\":2865:2878   */\n      iszero\n        /* \"#utility.yul\":2858:2879   */\n      iszero\n        /* \"#utility.yul\":2847:2879   */\n      swap1\n      pop\n        /* \"#utility.yul\":2795:2885   */\n      swap2\n      swap1\n      pop\n      jump\t// out\n        /* \"#utility.yul\":2891:3007   */\n    tag_88:\n        /* \"#utility.yul\":2961:2982   */\n      tag_141\n        /* \"#utility.yul\":2976:2981   */\n      dup2\n        /* \"#utility.yul\":2961:2982   */\n      tag_87\n      jump\t// in\n    tag_141:\n        /* \"#utility.yul\":2954:2959   */\n      dup2\n        /* \"#utility.yul\":2951:2983   */\n      eq\n        /* \"#utility.yul\":2941:3001   */\n      tag_142\n      jumpi\n        /* \"#utility.yul\":2997:2998   */\n      0x00\n        /* \"#utility.yul\":2994:2995   */\n      dup1\n        /* \"#utility.yul\":2987:2999   */\n      revert\n        /* \"#utility.yul\":2941:3001   */\n    tag_142:\n        /* \"#utility.yul\":2891:3007   */\n      pop\n      jump\t// out\n        /* \"#utility.yul\":3013:3146   */\n    tag_89:\n        /* \"#utility.yul\":3056:3061   */\n      0x00\n        /* \"#utility.yul\":3094:3100   */\n      dup2\n        /* \"#utility.yul\":3081:3101   */\n      calldataload\n        /* \"#utility.yul\":3072:3101   */\n      swap1\n      pop\n        /* \"#utility.yul\":3110:3140   */\n      tag_144\n        /* \"#utility.yul\":3134:3139   */\n      dup2\n        /* \"#utility.yul\":3110:3140   */\n      tag_88\n      jump\t// in\n    tag_144:\n        /* \"#utility.yul\":3013:3146   */\n      swap3\n      swap2\n      pop\n      pop\n      jump\t// out\n        /* \"#utility.yul\":3152:3620   */\n    tag_22:\n        /* \"#utility.yul\":3217:3223   */\n      0x00\n        /* \"#utility.yul\":3225:3231   */\n      dup1\n        /* \"#utility.yul\":3274:3276   */\n      0x40\n        /* \"#utility.yul\":3262:3271   */\n      dup4\n        /* \"#utility.yul\":3253:3260   */\n      dup6\n        /* \"#utility.yul\":3249:3272   */\n      sub\n        /* \"#utility.yul\":3245:3277   */\n      slt\n        /* \"#utility.yul\":3242:3361   */\n      iszero\n      tag_146\n      jumpi\n        /* \"#utility.yul\":3280:3359   */\n      tag_147\n      tag_74\n      jump\t// in\n    tag_147:\n        /* \"#utility.yul\":3242:3361   */\n    tag_146:\n        /* \"#utility.yul\":3400:3401   */\n      0x00\n        /* \"#utility.yul\":3425:3478   */\n      tag_148\n        /* \"#utility.yul\":3470:3477   */\n      dup6\n        /* \"#utility.yul\":3461:3467   */\n      dup3\n        /* \"#utility.yul\":3450:3459   */\n      dup7\n        /* \"#utility.yul\":3446:3468   */\n      add\n        /* \"#utility.yul\":3425:3478   */\n      tag_86\n      jump\t// in\n    tag_148:\n        /* \"#utility.yul\":3415:3478   */\n      swap3\n      pop\n        /* \"#utility.yul\":3371:3488   */\n      pop\n        /* \"#utility.yul\":3527:3529   */\n      0x20\n        /* \"#utility.yul\":3553:3603   */\n      tag_149\n        /* \"#utility.yul\":3595:3602   */\n      dup6\n        /* \"#utility.yul\":3586:3592   */\n      dup3\n        /* \"#utility.yul\":3575:3584   */\n      dup7\n        /* \"#utility.yul\":3571:3593   */\n      add\n        /* \"#utility.yul\":3553:3603   */\n      tag_89\n      jump\t// in\n    tag_149:\n        /* \"#utility.yul\":3543:3603   */\n      swap2\n      pop\n        /* \"#utility.yul\":3498:3613   */\n      pop\n        /* \"#utility.yul\":3152:3620   */\n      swap3\n      pop\n      swap3\n      swap1\n      pop\n      jump\t// out\n        /* \"#utility.yul\":3626:3686   */\n    tag_90:\n        /* \"#utility.yul\":3654:3657   */\n      0x00\n        /* \"#utility.yul\":3675:3680   */\n      dup2\n        /* \"#utility.yul\":3668:3680   */\n      swap1\n      pop\n        /* \"#utility.yul\":3626:3686   */\n      swap2\n      swap1\n      pop\n      jump\t// out\n        /* \"#utility.yul\":3692:3834   */\n    tag_91:\n        /* \"#utility.yul\":3742:3751   */\n      0x00\n        /* \"#utility.yul\":3775:3828   */\n      tag_152\n        /* \"#utility.yul\":3793:3827   */\n      tag_153\n        /* \"#utility.yul\":3802:3826   */\n      tag_154\n        /* \"#utility.yul\":3820:3825   */\n      dup5\n        /* \"#utility.yul\":3802:3826   */\n      tag_76\n      jump\t// in\n    tag_154:\n        /* \"#utility.yul\":3793:3827   */\n      tag_90\n      jump\t// in\n    tag_153:\n        /* \"#utility.yul\":3775:3828   */\n      tag_76\n      jump\t// in\n    tag_152:\n        /* \"#utility.yul\":3762:3828   */\n      swap1\n      pop\n        /* \"#utility.yul\":3692:3834   */\n      swap2\n      swap1\n      pop\n      jump\t// out\n        /* \"#utility.yul\":3840:3966   */\n    tag_92:\n        /* \"#utility.yul\":3890:3899   */\n      0x00\n        /* \"#utility.yul\":3923:3960   */\n      tag_156\n        /* \"#utility.yul\":3954:3959   */\n      dup3\n        /* \"#utility.yul\":3923:3960   */\n      tag_91\n      jump\t// in\n    tag_156:\n        /* \"#utility.yul\":3910:3960   */\n      swap1\n      pop\n        /* \"#utility.yul\":3840:3966   */\n      swap2\n      swap1\n      pop\n      jump\t// out\n        /* \"#utility.yul\":3972:4106   */\n    tag_93:\n        /* \"#utility.yul\":4030:4039   */\n      0x00\n        /* \"#utility.yul\":4063:4100   */\n      tag_158\n        /* \"#utility.yul\":4094:4099   */\n      dup3\n        /* \"#utility.yul\":4063:4100   */\n      tag_92\n      jump\t// in\n    tag_158:\n        /* \"#utility.yul\":4050:4100   */\n      swap1\n      pop\n        /* \"#utility.yul\":3972:4106   */\n      swap2\n      swap1\n      pop\n      jump\t// out\n        /* \"#utility.yul\":4112:4259   */\n    tag_94:\n        /* \"#utility.yul\":4207:4252   */\n      tag_160\n        /* \"#utility.yul\":4246:4251   */\n      dup2\n        /* \"#utility.yul\":4207:4252   */\n      tag_93\n      jump\t// in\n    tag_160:\n        /* \"#utility.yul\":4202:4205   */\n      dup3\n        /* \"#utility.yul\":4195:4253   */\n      mstore\n        /* \"#utility.yul\":4112:4259   */\n      pop\n      pop\n      jump\t// out\n        /* \"#utility.yul\":4265:4503   */\n    tag_32:\n        /* \"#utility.yul\":4366:4370   */\n      0x00\n        /* \"#utility.yul\":4404:4406   */\n      0x20\n        /* \"#utility.yul\":4393:4402   */\n      dup3\n        /* \"#utility.yul\":4389:4407   */\n      add\n        /* \"#utility.yul\":4381:4407   */\n      swap1\n      pop\n        /* \"#utility.yul\":4417:4496   */\n      tag_162\n        /* \"#utility.yul\":4493:4494   */\n      0x00\n        /* \"#utility.yul\":4482:4491   */\n      dup4\n        /* \"#utility.yul\":4478:4495   */\n      add\n        /* \"#utility.yul\":4469:4475   */\n      dup5\n        /* \"#utility.yul\":4417:4496   */\n      tag_94\n      jump\t// in\n    tag_162:\n        /* \"#utility.yul\":4265:4503   */\n      swap3\n      swap2\n      pop\n      pop\n      jump\t// out\n        /* \"#utility.yul\":4509:4652   */\n    tag_95:\n        /* \"#utility.yul\":4566:4571   */\n      0x00\n        /* \"#utility.yul\":4597:4603   */\n      dup2\n        /* \"#utility.yul\":4591:4604   */\n      mload\n        /* \"#utility.yul\":4582:4604   */\n      swap1\n      pop\n        /* \"#utility.yul\":4613:4646   */\n      tag_164\n        /* \"#utility.yul\":4640:4645   */\n      dup2\n        /* \"#utility.yul\":4613:4646   */\n      tag_81\n      jump\t// in\n    tag_164:\n        /* \"#utility.yul\":4509:4652   */\n      swap3\n      swap2\n      pop\n      pop\n      jump\t// out\n        /* \"#utility.yul\":4658:5009   */\n    tag_36:\n        /* \"#utility.yul\":4728:4734   */\n      0x00\n        /* \"#utility.yul\":4777:4779   */\n      0x20\n        /* \"#utility.yul\":4765:4774   */\n      dup3\n        /* \"#utility.yul\":4756:4763   */\n      dup5\n        /* \"#utility.yul\":4752:4775   */\n      sub\n        /* \"#utility.yul\":4748:4780   */\n      slt\n        /* \"#utility.yul\":4745:4864   */\n      iszero\n      tag_166\n      jumpi\n        /* \"#utility.yul\":4783:4862   */\n      tag_167\n      tag_74\n      jump\t// in\n    tag_167:\n        /* \"#utility.yul\":4745:4864   */\n    tag_166:\n        /* \"#utility.yul\":4903:4904   */\n      0x00\n        /* \"#utility.yul\":4928:4992   */\n      tag_168\n        /* \"#utility.yul\":4984:4991   */\n      dup5\n        /* \"#utility.yul\":4975:4981   */\n      dup3\n        /* \"#utility.yul\":4964:4973   */\n      dup6\n        /* \"#utility.yul\":4960:4982   */\n      add\n        /* \"#utility.yul\":4928:4992   */\n      tag_95\n      jump\t// in\n    tag_168:\n        /* \"#utility.yul\":4918:4992   */\n      swap2\n      pop\n        /* \"#utility.yul\":4874:5002   */\n      pop\n        /* \"#utility.yul\":4658:5009   */\n      swap3\n      swap2\n      pop\n      pop\n      jump\t// out\n        /* \"#utility.yul\":5015:5363   */\n    tag_42:\n        /* \"#utility.yul\":5144:5148   */\n      0x00\n        /* \"#utility.yul\":5182:5184   */\n      0x40\n        /* \"#utility.yul\":5171:5180   */\n      dup3\n        /* \"#utility.yul\":5167:5185   */\n      add\n        /* \"#utility.yul\":5159:5185   */\n      swap1\n      pop\n        /* \"#utility.yul\":5195:5274   */\n      tag_170\n        /* \"#utility.yul\":5271:5272   */\n      0x00\n        /* \"#utility.yul\":5260:5269   */\n      dup4\n        /* \"#utility.yul\":5256:5273   */\n      add\n        /* \"#utility.yul\":5247:5253   */\n      dup6\n        /* \"#utility.yul\":5195:5274   */\n      tag_94\n      jump\t// in\n    tag_170:\n        /* \"#utility.yul\":5284:5356   */\n      tag_171\n        /* \"#utility.yul\":5352:5354   */\n      0x20\n        /* \"#utility.yul\":5341:5350   */\n      dup4\n        /* \"#utility.yul\":5337:5355   */\n      add\n        /* \"#utility.yul\":5328:5334   */\n      dup5\n        /* \"#utility.yul\":5284:5356   */\n      tag_83\n      jump\t// in\n    tag_171:\n        /* \"#utility.yul\":5015:5363   */\n      swap4\n      swap3\n      pop\n      pop\n      pop\n      jump\t// out\n        /* \"#utility.yul\":5369:5538   */\n    tag_96:\n        /* \"#utility.yul\":5453:5464   */\n      0x00\n        /* \"#utility.yul\":5487:5493   */\n      dup3\n        /* \"#utility.yul\":5482:5485   */\n      dup3\n        /* \"#utility.yul\":5475:5494   */\n      mstore\n        /* \"#utility.yul\":5527:5531   */\n      0x20\n        /* \"#utility.yul\":5522:5525   */\n      dup3\n        /* \"#utility.yul\":5518:5532   */\n      add\n        /* \"#utility.yul\":5503:5532   */\n      swap1\n      pop\n        /* \"#utility.yul\":5369:5538   */\n      swap3\n      swap2\n      pop\n      pop\n      jump\t// out\n        /* \"#utility.yul\":5544:5726   */\n    tag_97:\n        /* \"#utility.yul\":5684:5718   */\n      0x4f776e61626c653a2063616c6c6572206973206e6f7420746865206f776e6572\n        /* \"#utility.yul\":5680:5681   */\n      0x00\n        /* \"#utility.yul\":5672:5678   */\n      dup3\n        /* \"#utility.yul\":5668:5682   */\n      add\n        /* \"#utility.yul\":5661:5719   */\n      mstore\n        /* \"#utility.yul\":5544:5726   */\n      pop\n      jump\t// out\n        /* \"#utility.yul\":5732:6098   */\n    tag_98:\n        /* \"#utility.yul\":5874:5877   */\n      0x00\n        /* \"#utility.yul\":5895:5962   */\n      tag_175\n        /* \"#utility.yul\":5959:5961   */\n      0x20\n        /* \"#utility.yul\":5954:5957   */\n      dup4\n        /* \"#utility.yul\":5895:5962   */\n      tag_96\n      jump\t// in\n    tag_175:\n        /* \"#utility.yul\":5888:5962   */\n      swap2\n      pop\n        /* \"#utility.yul\":5971:6064   */\n      tag_176\n        /* \"#utility.yul\":6060:6063   */\n      dup3\n        /* \"#utility.yul\":5971:6064   */\n      tag_97\n      jump\t// in\n    tag_176:\n        /* \"#utility.yul\":6089:6091   */\n      0x20\n        /* \"#utility.yul\":6084:6087   */\n      dup3\n        /* \"#utility.yul\":6080:6092   */\n      add\n        /* \"#utility.yul\":6073:6092   */\n      swap1\n      pop\n        /* \"#utility.yul\":5732:6098   */\n      swap2\n      swap1\n      pop\n      jump\t// out\n        /* \"#utility.yul\":6104:6523   */\n    tag_57:\n        /* \"#utility.yul\":6270:6274   */\n      0x00\n        /* \"#utility.yul\":6308:6310   */\n      0x20\n        /* \"#utility.yul\":6297:6306   */\n      dup3\n        /* \"#utility.yul\":6293:6311   */\n      add\n        /* \"#utility.yul\":6285:6311   */\n      swap1\n      pop\n        /* \"#utility.yul\":6357:6366   */\n      dup2\n        /* \"#utility.yul\":6351:6355   */\n      dup2\n        /* \"#utility.yul\":6347:6367   */\n      sub\n        /* \"#utility.yul\":6343:6344   */\n      0x00\n        /* \"#utility.yul\":6332:6341   */\n      dup4\n        /* \"#utility.yul\":6328:6345   */\n      add\n        /* \"#utility.yul\":6321:6368   */\n      mstore\n        /* \"#utility.yul\":6385:6516   */\n      tag_178\n        /* \"#utility.yul\":6511:6515   */\n      dup2\n        /* \"#utility.yul\":6385:6516   */\n      tag_98\n      jump\t// in\n    tag_178:\n        /* \"#utility.yul\":6377:6516   */\n      swap1\n      pop\n        /* \"#utility.yul\":6104:6523   */\n      swap2\n      swap1\n      pop\n      jump\t// out\n        /* \"#utility.yul\":6529:6709   */\n    tag_99:\n        /* \"#utility.yul\":6577:6654   */\n      0x4e487b7100000000000000000000000000000000000000000000000000000000\n        /* \"#utility.yul\":6574:6575   */\n      0x00\n        /* \"#utility.yul\":6567:6655   */\n      mstore\n        /* \"#utility.yul\":6674:6678   */\n      0x11\n        /* \"#utility.yul\":6671:6672   */\n      0x04\n        /* \"#utility.yul\":6664:6679   */\n      mstore\n        /* \"#utility.yul\":6698:6702   */\n      0x24\n        /* \"#utility.yul\":6695:6696   */\n      0x00\n        /* \"#utility.yul\":6688:6703   */\n      revert\n        /* \"#utility.yul\":6715:7063   */\n    tag_69:\n        /* \"#utility.yul\":6755:6762   */\n      0x00\n        /* \"#utility.yul\":6778:6798   */\n      tag_181\n        /* \"#utility.yul\":6796:6797   */\n      dup3\n        /* \"#utility.yul\":6778:6798   */\n      tag_80\n      jump\t// in\n    tag_181:\n        /* \"#utility.yul\":6773:6798   */\n      swap2\n      pop\n        /* \"#utility.yul\":6812:6832   */\n      tag_182\n        /* \"#utility.yul\":6830:6831   */\n      dup4\n        /* \"#utility.yul\":6812:6832   */\n      tag_80\n      jump\t// in\n    tag_182:\n        /* \"#utility.yul\":6807:6832   */\n      swap3\n      pop\n        /* \"#utility.yul\":7000:7001   */\n      dup2\n        /* \"#utility.yul\":6932:6998   */\n      0xffffffffffffffffffffffffffffffffffffffffffffffffffffffffffffffff\n        /* \"#utility.yul\":6928:7002   */\n      div\n        /* \"#utility.yul\":6925:6926   */\n      dup4\n        /* \"#utility.yul\":6922:7003   */\n      gt\n        /* \"#utility.yul\":6917:6918   */\n      dup3\n        /* \"#utility.yul\":6910:6919   */\n      iszero\n        /* \"#utility.yul\":6903:6920   */\n      iszero\n        /* \"#utility.yul\":6899:7004   */\n      and\n        /* \"#utility.yul\":6896:7027   */\n      iszero\n      tag_183\n      jumpi\n        /* \"#utility.yul\":7007:7025   */\n      tag_184\n      tag_99\n      jump\t// in\n    tag_184:\n        /* \"#utility.yul\":6896:7027   */\n    tag_183:\n        /* \"#utility.yul\":7055:7056   */\n      dup3\n        /* \"#utility.yul\":7052:7053   */\n      dup3\n        /* \"#utility.yul\":7048:7057   */\n      mul\n        /* \"#utility.yul\":7037:7057   */\n      swap1\n      pop\n        /* \"#utility.yul\":6715:7063   */\n      swap3\n      swap2\n      pop\n      pop\n      jump\t// out\n        /* \"#utility.yul\":7069:7249   */\n    tag_100:\n        /* \"#utility.yul\":7117:7194   */\n      0x4e487b7100000000000000000000000000000000000000000000000000000000\n        /* \"#utility.yul\":7114:7115   */\n      0x00\n        /* \"#utility.yul\":7107:7195   */\n      mstore\n        /* \"#utility.yul\":7214:7218   */\n      0x12\n        /* \"#utility.yul\":7211:7212   */\n      0x04\n        /* \"#utility.yul\":7204:7219   */\n      mstore\n        /* \"#utility.yul\":7238:7242   */\n      0x24\n        /* \"#utility.yul\":7235:7236   */\n      0x00\n        /* \"#utility.yul\":7228:7243   */\n      revert\n        /* \"#utility.yul\":7255:7440   */\n    tag_72:\n        /* \"#utility.yul\":7295:7296   */\n      0x00\n        /* \"#utility.yul\":7312:7332   */\n      tag_187\n        /* \"#utility.yul\":7330:7331   */\n      dup3\n        /* \"#utility.yul\":7312:7332   */\n      tag_80\n      jump\t// in\n    tag_187:\n        /* \"#utility.yul\":7307:7332   */\n      swap2\n      pop\n        /* \"#utility.yul\":7346:7366   */\n      tag_188\n        /* \"#utility.yul\":7364:7365   */\n      dup4\n        /* \"#utility.yul\":7346:7366   */\n      tag_80\n      jump\t// in\n    tag_188:\n        /* \"#utility.yul\":7341:7366   */\n      swap3\n      pop\n        /* \"#utility.yul\":7385:7386   */\n      dup3\n        /* \"#utility.yul\":7375:7410   */\n      tag_189\n      jumpi\n        /* \"#utility.yul\":7390:7408   */\n      tag_190\n      tag_100\n      jump\t// in\n    tag_190:\n        /* \"#utility.yul\":7375:7410   */\n    tag_189:\n        /* \"#utility.yul\":7432:7433   */\n      dup3\n        /* \"#utility.yul\":7429:7430   */\n      dup3\n        /* \"#utility.yul\":7425:7434   */\n      div\n        /* \"#utility.yul\":7420:7434   */\n      swap1\n      pop\n        /* \"#utility.yul\":7255:7440   */\n      swap3\n      swap2\n      pop\n      pop\n      jump\t// out\n\n    auxdata: 0xa2646970667358221220ce0716b7dd8d96266b258bf5c38aa9c9affa8f528e4c9df430a55a7584eff1be64736f6c634300080f0033\n}\n",
				"bytecode": {
					"linkReferences": {},
					"object": "6080604052734d231d87c831c1a0eb2b0855672aefe9545308a16000806101000a81548173ffffffffffffffffffffffffffffffffffffffff021916908373ffffffffffffffffffffffffffffffffffffffff1602179055507351d2b5462fe8fb671488ac66ae4780d29bdcf6e1600160006101000a81548173ffffffffffffffffffffffffffffffffffffffff021916908373ffffffffffffffffffffffffffffffffffffffff16021790555033600260006101000a81548173ffffffffffffffffffffffffffffffffffffffff021916908373ffffffffffffffffffffffffffffffffffffffff160217905550610a90806100fd6000396000f3fe60806040526004361061004a5760003560e01c806394756aa71461004f57806397dedb1d14610078578063c3c64674146100b5578063d0e30db0146100de578063dac3fad4146100e8575b600080fd5b34801561005b57600080fd5b50610076600480360381019061007191906106c2565b6100ff565b005b34801561008457600080fd5b5061009f600480360381019061009a9190610702565b6102ea565b6040516100ac919061073e565b60405180910390f35b3480156100c157600080fd5b506100dc60048036038101906100d791906107cf565b6103b8565b005b6100e66104a3565b005b3480156100f457600080fd5b506100fd610502565b005b60011515600360003373ffffffffffffffffffffffffffffffffffffffff1673ffffffffffffffffffffffffffffffffffffffff16815260200190815260200160002060009054906101000a900460ff1615151461015c57600080fd5b8060008054906101000a900473ffffffffffffffffffffffffffffffffffffffff1673ffffffffffffffffffffffffffffffffffffffff166370a08231846040518263ffffffff1660e01b81526004016101b6919061086e565b602060405180830381865afa1580156101d3573d6000803e3d6000fd5b505050506040513d601f19601f820116820180604052508101906101f7919061089e565b101561020257600080fd5b600061020d826102ea565b90508273ffffffffffffffffffffffffffffffffffffffff166108fc829081150290604051600060405180830381858888f19350505050158015610255573d6000803e3d6000fd5b50600160009054906101000a900473ffffffffffffffffffffffffffffffffffffffff1673ffffffffffffffffffffffffffffffffffffffff166379cc679084846040518363ffffffff1660e01b81526004016102b39291906108cb565b600060405180830381600087803b1580156102cd57600080fd5b505af11580156102e1573d6000803e3d6000fd5b50505050505050565b60008047905060008060009054906101000a900473ffffffffffffffffffffffffffffffffffffffff1673ffffffffffffffffffffffffffffffffffffffff166318160ddd6040518163ffffffff1660e01b8152600401602060405180830381865afa15801561035e573d6000803e3d6000fd5b505050506040513d601f19601f82011682018060405250810190610382919061089e565b905060006103ab8261039d85886105fd90919063ffffffff16565b61061390919063ffffffff16565b9050809350505050919050565b3373ffffffffffffffffffffffffffffffffffffffff16600260009054906101000a900473ffffffffffffffffffffffffffffffffffffffff1673ffffffffffffffffffffffffffffffffffffffff1614610448576040517f08c379a000000000000000000000000000000000000000000000000000000000815260040161043f90610951565b60405180910390fd5b80600360008473ffffffffffffffffffffffffffffffffffffffff1673ffffffffffffffffffffffffffffffffffffffff16815260200190815260200160002060006101000a81548160ff0219169083151502179055505050565b60011515600360003373ffffffffffffffffffffffffffffffffffffffff1673ffffffffffffffffffffffffffffffffffffffff16815260200190815260200160002060009054906101000a900460ff1615151461050057600080fd5b565b3373ffffffffffffffffffffffffffffffffffffffff16600260009054906101000a900473ffffffffffffffffffffffffffffffffffffffff1673ffffffffffffffffffffffffffffffffffffffff1614610592576040517f08c379a000000000000000000000000000000000000000000000000000000000815260040161058990610951565b60405180910390fd5b600260009054906101000a900473ffffffffffffffffffffffffffffffffffffffff1673ffffffffffffffffffffffffffffffffffffffff166108fc479081150290604051600060405180830381858888f193505050501580156105fa573d6000803e3d6000fd5b50565b6000818361060b91906109a0565b905092915050565b600081836106219190610a29565b905092915050565b600080fd5b600073ffffffffffffffffffffffffffffffffffffffff82169050919050565b60006106598261062e565b9050919050565b6106698161064e565b811461067457600080fd5b50565b60008135905061068681610660565b92915050565b6000819050919050565b61069f8161068c565b81146106aa57600080fd5b50565b6000813590506106bc81610696565b92915050565b600080604083850312156106d9576106d8610629565b5b60006106e785828601610677565b92505060206106f8858286016106ad565b9150509250929050565b60006020828403121561071857610717610629565b5b6000610726848285016106ad565b91505092915050565b6107388161068c565b82525050565b6000602082019050610753600083018461072f565b92915050565b60006107648261062e565b9050919050565b61077481610759565b811461077f57600080fd5b50565b6000813590506107918161076b565b92915050565b60008115159050919050565b6107ac81610797565b81146107b757600080fd5b50565b6000813590506107c9816107a3565b92915050565b600080604083850312156107e6576107e5610629565b5b60006107f485828601610782565b9250506020610805858286016107ba565b9150509250929050565b6000819050919050565b600061083461082f61082a8461062e565b61080f565b61062e565b9050919050565b600061084682610819565b9050919050565b60006108588261083b565b9050919050565b6108688161084d565b82525050565b6000602082019050610883600083018461085f565b92915050565b60008151905061089881610696565b92915050565b6000602082840312156108b4576108b3610629565b5b60006108c284828501610889565b91505092915050565b60006040820190506108e0600083018561085f565b6108ed602083018461072f565b9392505050565b600082825260208201905092915050565b7f4f776e61626c653a2063616c6c6572206973206e6f7420746865206f776e6572600082015250565b600061093b6020836108f4565b915061094682610905565b602082019050919050565b6000602082019050818103600083015261096a8161092e565b9050919050565b7f4e487b7100000000000000000000000000000000000000000000000000000000600052601160045260246000fd5b60006109ab8261068c565b91506109b68361068c565b9250817fffffffffffffffffffffffffffffffffffffffffffffffffffffffffffffffff04831182151516156109ef576109ee610971565b5b828202905092915050565b7f4e487b7100000000000000000000000000000000000000000000000000000000600052601260045260246000fd5b6000610a348261068c565b9150610a3f8361068c565b925082610a4f57610a4e6109fa565b5b82820490509291505056fea2646970667358221220ce0716b7dd8d96266b258bf5c38aa9c9affa8f528e4c9df430a55a7584eff1be64736f6c634300080f0033",
					"opcodes": "PUSH1 0x80 PUSH1 0x40 MSTORE PUSH20 0x4D231D87C831C1A0EB2B0855672AEFE9545308A1 PUSH1 0x0 DUP1 PUSH2 0x100 EXP DUP2 SLOAD DUP2 PUSH20 0xFFFFFFFFFFFFFFFFFFFFFFFFFFFFFFFFFFFFFFFF MUL NOT AND SWAP1 DUP4 PUSH20 0xFFFFFFFFFFFFFFFFFFFFFFFFFFFFFFFFFFFFFFFF AND MUL OR SWAP1 SSTORE POP PUSH20 0x51D2B5462FE8FB671488AC66AE4780D29BDCF6E1 PUSH1 0x1 PUSH1 0x0 PUSH2 0x100 EXP DUP2 SLOAD DUP2 PUSH20 0xFFFFFFFFFFFFFFFFFFFFFFFFFFFFFFFFFFFFFFFF MUL NOT AND SWAP1 DUP4 PUSH20 0xFFFFFFFFFFFFFFFFFFFFFFFFFFFFFFFFFFFFFFFF AND MUL OR SWAP1 SSTORE POP CALLER PUSH1 0x2 PUSH1 0x0 PUSH2 0x100 EXP DUP2 SLOAD DUP2 PUSH20 0xFFFFFFFFFFFFFFFFFFFFFFFFFFFFFFFFFFFFFFFF MUL NOT AND SWAP1 DUP4 PUSH20 0xFFFFFFFFFFFFFFFFFFFFFFFFFFFFFFFFFFFFFFFF AND MUL OR SWAP1 SSTORE POP PUSH2 0xA90 DUP1 PUSH2 0xFD PUSH1 0x0 CODECOPY PUSH1 0x0 RETURN INVALID PUSH1 0x80 PUSH1 0x40 MSTORE PUSH1 0x4 CALLDATASIZE LT PUSH2 0x4A JUMPI PUSH1 0x0 CALLDATALOAD PUSH1 0xE0 SHR DUP1 PUSH4 0x94756AA7 EQ PUSH2 0x4F JUMPI DUP1 PUSH4 0x97DEDB1D EQ PUSH2 0x78 JUMPI DUP1 PUSH4 0xC3C64674 EQ PUSH2 0xB5 JUMPI DUP1 PUSH4 0xD0E30DB0 EQ PUSH2 0xDE JUMPI DUP1 PUSH4 0xDAC3FAD4 EQ PUSH2 0xE8 JUMPI JUMPDEST PUSH1 0x0 DUP1 REVERT JUMPDEST CALLVALUE DUP1 ISZERO PUSH2 0x5B JUMPI PUSH1 0x0 DUP1 REVERT JUMPDEST POP PUSH2 0x76 PUSH1 0x4 DUP1 CALLDATASIZE SUB DUP2 ADD SWAP1 PUSH2 0x71 SWAP2 SWAP1 PUSH2 0x6C2 JUMP JUMPDEST PUSH2 0xFF JUMP JUMPDEST STOP JUMPDEST CALLVALUE DUP1 ISZERO PUSH2 0x84 JUMPI PUSH1 0x0 DUP1 REVERT JUMPDEST POP PUSH2 0x9F PUSH1 0x4 DUP1 CALLDATASIZE SUB DUP2 ADD SWAP1 PUSH2 0x9A SWAP2 SWAP1 PUSH2 0x702 JUMP JUMPDEST PUSH2 0x2EA JUMP JUMPDEST PUSH1 0x40 MLOAD PUSH2 0xAC SWAP2 SWAP1 PUSH2 0x73E JUMP JUMPDEST PUSH1 0x40 MLOAD DUP1 SWAP2 SUB SWAP1 RETURN JUMPDEST CALLVALUE DUP1 ISZERO PUSH2 0xC1 JUMPI PUSH1 0x0 DUP1 REVERT JUMPDEST POP PUSH2 0xDC PUSH1 0x4 DUP1 CALLDATASIZE SUB DUP2 ADD SWAP1 PUSH2 0xD7 SWAP2 SWAP1 PUSH2 0x7CF JUMP JUMPDEST PUSH2 0x3B8 JUMP JUMPDEST STOP JUMPDEST PUSH2 0xE6 PUSH2 0x4A3 JUMP JUMPDEST STOP JUMPDEST CALLVALUE DUP1 ISZERO PUSH2 0xF4 JUMPI PUSH1 0x0 DUP1 REVERT JUMPDEST POP PUSH2 0xFD PUSH2 0x502 JUMP JUMPDEST STOP JUMPDEST PUSH1 0x1 ISZERO ISZERO PUSH1 0x3 PUSH1 0x0 CALLER PUSH20 0xFFFFFFFFFFFFFFFFFFFFFFFFFFFFFFFFFFFFFFFF AND PUSH20 0xFFFFFFFFFFFFFFFFFFFFFFFFFFFFFFFFFFFFFFFF AND DUP2 MSTORE PUSH1 0x20 ADD SWAP1 DUP2 MSTORE PUSH1 0x20 ADD PUSH1 0x0 KECCAK256 PUSH1 0x0 SWAP1 SLOAD SWAP1 PUSH2 0x100 EXP SWAP1 DIV PUSH1 0xFF AND ISZERO ISZERO EQ PUSH2 0x15C JUMPI PUSH1 0x0 DUP1 REVERT JUMPDEST DUP1 PUSH1 0x0 DUP1 SLOAD SWAP1 PUSH2 0x100 EXP SWAP1 DIV PUSH20 0xFFFFFFFFFFFFFFFFFFFFFFFFFFFFFFFFFFFFFFFF AND PUSH20 0xFFFFFFFFFFFFFFFFFFFFFFFFFFFFFFFFFFFFFFFF AND PUSH4 0x70A08231 DUP5 PUSH1 0x40 MLOAD DUP3 PUSH4 0xFFFFFFFF AND PUSH1 0xE0 SHL DUP2 MSTORE PUSH1 0x4 ADD PUSH2 0x1B6 SWAP2 SWAP1 PUSH2 0x86E JUMP JUMPDEST PUSH1 0x20 PUSH1 0x40 MLOAD DUP1 DUP4 SUB DUP2 DUP7 GAS STATICCALL ISZERO DUP1 ISZERO PUSH2 0x1D3 JUMPI RETURNDATASIZE PUSH1 0x0 DUP1 RETURNDATACOPY RETURNDATASIZE PUSH1 0x0 REVERT JUMPDEST POP POP POP POP PUSH1 0x40 MLOAD RETURNDATASIZE PUSH1 0x1F NOT PUSH1 0x1F DUP3 ADD AND DUP3 ADD DUP1 PUSH1 0x40 MSTORE POP DUP2 ADD SWAP1 PUSH2 0x1F7 SWAP2 SWAP1 PUSH2 0x89E JUMP JUMPDEST LT ISZERO PUSH2 0x202 JUMPI PUSH1 0x0 DUP1 REVERT JUMPDEST PUSH1 0x0 PUSH2 0x20D DUP3 PUSH2 0x2EA JUMP JUMPDEST SWAP1 POP DUP3 PUSH20 0xFFFFFFFFFFFFFFFFFFFFFFFFFFFFFFFFFFFFFFFF AND PUSH2 0x8FC DUP3 SWAP1 DUP2 ISZERO MUL SWAP1 PUSH1 0x40 MLOAD PUSH1 0x0 PUSH1 0x40 MLOAD DUP1 DUP4 SUB DUP2 DUP6 DUP9 DUP9 CALL SWAP4 POP POP POP POP ISZERO DUP1 ISZERO PUSH2 0x255 JUMPI RETURNDATASIZE PUSH1 0x0 DUP1 RETURNDATACOPY RETURNDATASIZE PUSH1 0x0 REVERT JUMPDEST POP PUSH1 0x1 PUSH1 0x0 SWAP1 SLOAD SWAP1 PUSH2 0x100 EXP SWAP1 DIV PUSH20 0xFFFFFFFFFFFFFFFFFFFFFFFFFFFFFFFFFFFFFFFF AND PUSH20 0xFFFFFFFFFFFFFFFFFFFFFFFFFFFFFFFFFFFFFFFF AND PUSH4 0x79CC6790 DUP5 DUP5 PUSH1 0x40 MLOAD DUP4 PUSH4 0xFFFFFFFF AND PUSH1 0xE0 SHL DUP2 MSTORE PUSH1 0x4 ADD PUSH2 0x2B3 SWAP3 SWAP2 SWAP1 PUSH2 0x8CB JUMP JUMPDEST PUSH1 0x0 PUSH1 0x40 MLOAD DUP1 DUP4 SUB DUP2 PUSH1 0x0 DUP8 DUP1 EXTCODESIZE ISZERO DUP1 ISZERO PUSH2 0x2CD JUMPI PUSH1 0x0 DUP1 REVERT JUMPDEST POP GAS CALL ISZERO DUP1 ISZERO PUSH2 0x2E1 JUMPI RETURNDATASIZE PUSH1 0x0 DUP1 RETURNDATACOPY RETURNDATASIZE PUSH1 0x0 REVERT JUMPDEST POP POP POP POP POP POP POP JUMP JUMPDEST PUSH1 0x0 DUP1 SELFBALANCE SWAP1 POP PUSH1 0x0 DUP1 PUSH1 0x0 SWAP1 SLOAD SWAP1 PUSH2 0x100 EXP SWAP1 DIV PUSH20 0xFFFFFFFFFFFFFFFFFFFFFFFFFFFFFFFFFFFFFFFF AND PUSH20 0xFFFFFFFFFFFFFFFFFFFFFFFFFFFFFFFFFFFFFFFF AND PUSH4 0x18160DDD PUSH1 0x40 MLOAD DUP2 PUSH4 0xFFFFFFFF AND PUSH1 0xE0 SHL DUP2 MSTORE PUSH1 0x4 ADD PUSH1 0x20 PUSH1 0x40 MLOAD DUP1 DUP4 SUB DUP2 DUP7 GAS STATICCALL ISZERO DUP1 ISZERO PUSH2 0x35E JUMPI RETURNDATASIZE PUSH1 0x0 DUP1 RETURNDATACOPY RETURNDATASIZE PUSH1 0x0 REVERT JUMPDEST POP POP POP POP PUSH1 0x40 MLOAD RETURNDATASIZE PUSH1 0x1F NOT PUSH1 0x1F DUP3 ADD AND DUP3 ADD DUP1 PUSH1 0x40 MSTORE POP DUP2 ADD SWAP1 PUSH2 0x382 SWAP2 SWAP1 PUSH2 0x89E JUMP JUMPDEST SWAP1 POP PUSH1 0x0 PUSH2 0x3AB DUP3 PUSH2 0x39D DUP6 DUP9 PUSH2 0x5FD SWAP1 SWAP2 SWAP1 PUSH4 0xFFFFFFFF AND JUMP JUMPDEST PUSH2 0x613 SWAP1 SWAP2 SWAP1 PUSH4 0xFFFFFFFF AND JUMP JUMPDEST SWAP1 POP DUP1 SWAP4 POP POP POP POP SWAP2 SWAP1 POP JUMP JUMPDEST CALLER PUSH20 0xFFFFFFFFFFFFFFFFFFFFFFFFFFFFFFFFFFFFFFFF AND PUSH1 0x2 PUSH1 0x0 SWAP1 SLOAD SWAP1 PUSH2 0x100 EXP SWAP1 DIV PUSH20 0xFFFFFFFFFFFFFFFFFFFFFFFFFFFFFFFFFFFFFFFF AND PUSH20 0xFFFFFFFFFFFFFFFFFFFFFFFFFFFFFFFFFFFFFFFF AND EQ PUSH2 0x448 JUMPI PUSH1 0x40 MLOAD PUSH32 0x8C379A000000000000000000000000000000000000000000000000000000000 DUP2 MSTORE PUSH1 0x4 ADD PUSH2 0x43F SWAP1 PUSH2 0x951 JUMP JUMPDEST PUSH1 0x40 MLOAD DUP1 SWAP2 SUB SWAP1 REVERT JUMPDEST DUP1 PUSH1 0x3 PUSH1 0x0 DUP5 PUSH20 0xFFFFFFFFFFFFFFFFFFFFFFFFFFFFFFFFFFFFFFFF AND PUSH20 0xFFFFFFFFFFFFFFFFFFFFFFFFFFFFFFFFFFFFFFFF AND DUP2 MSTORE PUSH1 0x20 ADD SWAP1 DUP2 MSTORE PUSH1 0x20 ADD PUSH1 0x0 KECCAK256 PUSH1 0x0 PUSH2 0x100 EXP DUP2 SLOAD DUP2 PUSH1 0xFF MUL NOT AND SWAP1 DUP4 ISZERO ISZERO MUL OR SWAP1 SSTORE POP POP POP JUMP JUMPDEST PUSH1 0x1 ISZERO ISZERO PUSH1 0x3 PUSH1 0x0 CALLER PUSH20 0xFFFFFFFFFFFFFFFFFFFFFFFFFFFFFFFFFFFFFFFF AND PUSH20 0xFFFFFFFFFFFFFFFFFFFFFFFFFFFFFFFFFFFFFFFF AND DUP2 MSTORE PUSH1 0x20 ADD SWAP1 DUP2 MSTORE PUSH1 0x20 ADD PUSH1 0x0 KECCAK256 PUSH1 0x0 SWAP1 SLOAD SWAP1 PUSH2 0x100 EXP SWAP1 DIV PUSH1 0xFF AND ISZERO ISZERO EQ PUSH2 0x500 JUMPI PUSH1 0x0 DUP1 REVERT JUMPDEST JUMP JUMPDEST CALLER PUSH20 0xFFFFFFFFFFFFFFFFFFFFFFFFFFFFFFFFFFFFFFFF AND PUSH1 0x2 PUSH1 0x0 SWAP1 SLOAD SWAP1 PUSH2 0x100 EXP SWAP1 DIV PUSH20 0xFFFFFFFFFFFFFFFFFFFFFFFFFFFFFFFFFFFFFFFF AND PUSH20 0xFFFFFFFFFFFFFFFFFFFFFFFFFFFFFFFFFFFFFFFF AND EQ PUSH2 0x592 JUMPI PUSH1 0x40 MLOAD PUSH32 0x8C379A000000000000000000000000000000000000000000000000000000000 DUP2 MSTORE PUSH1 0x4 ADD PUSH2 0x589 SWAP1 PUSH2 0x951 JUMP JUMPDEST PUSH1 0x40 MLOAD DUP1 SWAP2 SUB SWAP1 REVERT JUMPDEST PUSH1 0x2 PUSH1 0x0 SWAP1 SLOAD SWAP1 PUSH2 0x100 EXP SWAP1 DIV PUSH20 0xFFFFFFFFFFFFFFFFFFFFFFFFFFFFFFFFFFFFFFFF AND PUSH20 0xFFFFFFFFFFFFFFFFFFFFFFFFFFFFFFFFFFFFFFFF AND PUSH2 0x8FC SELFBALANCE SWAP1 DUP2 ISZERO MUL SWAP1 PUSH1 0x40 MLOAD PUSH1 0x0 PUSH1 0x40 MLOAD DUP1 DUP4 SUB DUP2 DUP6 DUP9 DUP9 CALL SWAP4 POP POP POP POP ISZERO DUP1 ISZERO PUSH2 0x5FA JUMPI RETURNDATASIZE PUSH1 0x0 DUP1 RETURNDATACOPY RETURNDATASIZE PUSH1 0x0 REVERT JUMPDEST POP JUMP JUMPDEST PUSH1 0x0 DUP2 DUP4 PUSH2 0x60B SWAP2 SWAP1 PUSH2 0x9A0 JUMP JUMPDEST SWAP1 POP SWAP3 SWAP2 POP POP JUMP JUMPDEST PUSH1 0x0 DUP2 DUP4 PUSH2 0x621 SWAP2 SWAP1 PUSH2 0xA29 JUMP JUMPDEST SWAP1 POP SWAP3 SWAP2 POP POP JUMP JUMPDEST PUSH1 0x0 DUP1 REVERT JUMPDEST PUSH1 0x0 PUSH20 0xFFFFFFFFFFFFFFFFFFFFFFFFFFFFFFFFFFFFFFFF DUP3 AND SWAP1 POP SWAP2 SWAP1 POP JUMP JUMPDEST PUSH1 0x0 PUSH2 0x659 DUP3 PUSH2 0x62E JUMP JUMPDEST SWAP1 POP SWAP2 SWAP1 POP JUMP JUMPDEST PUSH2 0x669 DUP2 PUSH2 0x64E JUMP JUMPDEST DUP2 EQ PUSH2 0x674 JUMPI PUSH1 0x0 DUP1 REVERT JUMPDEST POP JUMP JUMPDEST PUSH1 0x0 DUP2 CALLDATALOAD SWAP1 POP PUSH2 0x686 DUP2 PUSH2 0x660 JUMP JUMPDEST SWAP3 SWAP2 POP POP JUMP JUMPDEST PUSH1 0x0 DUP2 SWAP1 POP SWAP2 SWAP1 POP JUMP JUMPDEST PUSH2 0x69F DUP2 PUSH2 0x68C JUMP JUMPDEST DUP2 EQ PUSH2 0x6AA JUMPI PUSH1 0x0 DUP1 REVERT JUMPDEST POP JUMP JUMPDEST PUSH1 0x0 DUP2 CALLDATALOAD SWAP1 POP PUSH2 0x6BC DUP2 PUSH2 0x696 JUMP JUMPDEST SWAP3 SWAP2 POP POP JUMP JUMPDEST PUSH1 0x0 DUP1 PUSH1 0x40 DUP4 DUP6 SUB SLT ISZERO PUSH2 0x6D9 JUMPI PUSH2 0x6D8 PUSH2 0x629 JUMP JUMPDEST JUMPDEST PUSH1 0x0 PUSH2 0x6E7 DUP6 DUP3 DUP7 ADD PUSH2 0x677 JUMP JUMPDEST SWAP3 POP POP PUSH1 0x20 PUSH2 0x6F8 DUP6 DUP3 DUP7 ADD PUSH2 0x6AD JUMP JUMPDEST SWAP2 POP POP SWAP3 POP SWAP3 SWAP1 POP JUMP JUMPDEST PUSH1 0x0 PUSH1 0x20 DUP3 DUP5 SUB SLT ISZERO PUSH2 0x718 JUMPI PUSH2 0x717 PUSH2 0x629 JUMP JUMPDEST JUMPDEST PUSH1 0x0 PUSH2 0x726 DUP5 DUP3 DUP6 ADD PUSH2 0x6AD JUMP JUMPDEST SWAP2 POP POP SWAP3 SWAP2 POP POP JUMP JUMPDEST PUSH2 0x738 DUP2 PUSH2 0x68C JUMP JUMPDEST DUP3 MSTORE POP POP JUMP JUMPDEST PUSH1 0x0 PUSH1 0x20 DUP3 ADD SWAP1 POP PUSH2 0x753 PUSH1 0x0 DUP4 ADD DUP5 PUSH2 0x72F JUMP JUMPDEST SWAP3 SWAP2 POP POP JUMP JUMPDEST PUSH1 0x0 PUSH2 0x764 DUP3 PUSH2 0x62E JUMP JUMPDEST SWAP1 POP SWAP2 SWAP1 POP JUMP JUMPDEST PUSH2 0x774 DUP2 PUSH2 0x759 JUMP JUMPDEST DUP2 EQ PUSH2 0x77F JUMPI PUSH1 0x0 DUP1 REVERT JUMPDEST POP JUMP JUMPDEST PUSH1 0x0 DUP2 CALLDATALOAD SWAP1 POP PUSH2 0x791 DUP2 PUSH2 0x76B JUMP JUMPDEST SWAP3 SWAP2 POP POP JUMP JUMPDEST PUSH1 0x0 DUP2 ISZERO ISZERO SWAP1 POP SWAP2 SWAP1 POP JUMP JUMPDEST PUSH2 0x7AC DUP2 PUSH2 0x797 JUMP JUMPDEST DUP2 EQ PUSH2 0x7B7 JUMPI PUSH1 0x0 DUP1 REVERT JUMPDEST POP JUMP JUMPDEST PUSH1 0x0 DUP2 CALLDATALOAD SWAP1 POP PUSH2 0x7C9 DUP2 PUSH2 0x7A3 JUMP JUMPDEST SWAP3 SWAP2 POP POP JUMP JUMPDEST PUSH1 0x0 DUP1 PUSH1 0x40 DUP4 DUP6 SUB SLT ISZERO PUSH2 0x7E6 JUMPI PUSH2 0x7E5 PUSH2 0x629 JUMP JUMPDEST JUMPDEST PUSH1 0x0 PUSH2 0x7F4 DUP6 DUP3 DUP7 ADD PUSH2 0x782 JUMP JUMPDEST SWAP3 POP POP PUSH1 0x20 PUSH2 0x805 DUP6 DUP3 DUP7 ADD PUSH2 0x7BA JUMP JUMPDEST SWAP2 POP POP SWAP3 POP SWAP3 SWAP1 POP JUMP JUMPDEST PUSH1 0x0 DUP2 SWAP1 POP SWAP2 SWAP1 POP JUMP JUMPDEST PUSH1 0x0 PUSH2 0x834 PUSH2 0x82F PUSH2 0x82A DUP5 PUSH2 0x62E JUMP JUMPDEST PUSH2 0x80F JUMP JUMPDEST PUSH2 0x62E JUMP JUMPDEST SWAP1 POP SWAP2 SWAP1 POP JUMP JUMPDEST PUSH1 0x0 PUSH2 0x846 DUP3 PUSH2 0x819 JUMP JUMPDEST SWAP1 POP SWAP2 SWAP1 POP JUMP JUMPDEST PUSH1 0x0 PUSH2 0x858 DUP3 PUSH2 0x83B JUMP JUMPDEST SWAP1 POP SWAP2 SWAP1 POP JUMP JUMPDEST PUSH2 0x868 DUP2 PUSH2 0x84D JUMP JUMPDEST DUP3 MSTORE POP POP JUMP JUMPDEST PUSH1 0x0 PUSH1 0x20 DUP3 ADD SWAP1 POP PUSH2 0x883 PUSH1 0x0 DUP4 ADD DUP5 PUSH2 0x85F JUMP JUMPDEST SWAP3 SWAP2 POP POP JUMP JUMPDEST PUSH1 0x0 DUP2 MLOAD SWAP1 POP PUSH2 0x898 DUP2 PUSH2 0x696 JUMP JUMPDEST SWAP3 SWAP2 POP POP JUMP JUMPDEST PUSH1 0x0 PUSH1 0x20 DUP3 DUP5 SUB SLT ISZERO PUSH2 0x8B4 JUMPI PUSH2 0x8B3 PUSH2 0x629 JUMP JUMPDEST JUMPDEST PUSH1 0x0 PUSH2 0x8C2 DUP5 DUP3 DUP6 ADD PUSH2 0x889 JUMP JUMPDEST SWAP2 POP POP SWAP3 SWAP2 POP POP JUMP JUMPDEST PUSH1 0x0 PUSH1 0x40 DUP3 ADD SWAP1 POP PUSH2 0x8E0 PUSH1 0x0 DUP4 ADD DUP6 PUSH2 0x85F JUMP JUMPDEST PUSH2 0x8ED PUSH1 0x20 DUP4 ADD DUP5 PUSH2 0x72F JUMP JUMPDEST SWAP4 SWAP3 POP POP POP JUMP JUMPDEST PUSH1 0x0 DUP3 DUP3 MSTORE PUSH1 0x20 DUP3 ADD SWAP1 POP SWAP3 SWAP2 POP POP JUMP JUMPDEST PUSH32 0x4F776E61626C653A2063616C6C6572206973206E6F7420746865206F776E6572 PUSH1 0x0 DUP3 ADD MSTORE POP JUMP JUMPDEST PUSH1 0x0 PUSH2 0x93B PUSH1 0x20 DUP4 PUSH2 0x8F4 JUMP JUMPDEST SWAP2 POP PUSH2 0x946 DUP3 PUSH2 0x905 JUMP JUMPDEST PUSH1 0x20 DUP3 ADD SWAP1 POP SWAP2 SWAP1 POP JUMP JUMPDEST PUSH1 0x0 PUSH1 0x20 DUP3 ADD SWAP1 POP DUP2 DUP2 SUB PUSH1 0x0 DUP4 ADD MSTORE PUSH2 0x96A DUP2 PUSH2 0x92E JUMP JUMPDEST SWAP1 POP SWAP2 SWAP1 POP JUMP JUMPDEST PUSH32 0x4E487B7100000000000000000000000000000000000000000000000000000000 PUSH1 0x0 MSTORE PUSH1 0x11 PUSH1 0x4 MSTORE PUSH1 0x24 PUSH1 0x0 REVERT JUMPDEST PUSH1 0x0 PUSH2 0x9AB DUP3 PUSH2 0x68C JUMP JUMPDEST SWAP2 POP PUSH2 0x9B6 DUP4 PUSH2 0x68C JUMP JUMPDEST SWAP3 POP DUP2 PUSH32 0xFFFFFFFFFFFFFFFFFFFFFFFFFFFFFFFFFFFFFFFFFFFFFFFFFFFFFFFFFFFFFFFF DIV DUP4 GT DUP3 ISZERO ISZERO AND ISZERO PUSH2 0x9EF JUMPI PUSH2 0x9EE PUSH2 0x971 JUMP JUMPDEST JUMPDEST DUP3 DUP3 MUL SWAP1 POP SWAP3 SWAP2 POP POP JUMP JUMPDEST PUSH32 0x4E487B7100000000000000000000000000000000000000000000000000000000 PUSH1 0x0 MSTORE PUSH1 0x12 PUSH1 0x4 MSTORE PUSH1 0x24 PUSH1 0x0 REVERT JUMPDEST PUSH1 0x0 PUSH2 0xA34 DUP3 PUSH2 0x68C JUMP JUMPDEST SWAP2 POP PUSH2 0xA3F DUP4 PUSH2 0x68C JUMP JUMPDEST SWAP3 POP DUP3 PUSH2 0xA4F JUMPI PUSH2 0xA4E PUSH2 0x9FA JUMP JUMPDEST JUMPDEST DUP3 DUP3 DIV SWAP1 POP SWAP3 SWAP2 POP POP JUMP INVALID LOG2 PUSH5 0x6970667358 0x22 SLT KECCAK256 0xCE SMOD AND 0xB7 0xDD DUP14 SWAP7 0x26 PUSH12 0x258BF5C38AA9C9AFFA8F528E 0x4C SWAP14 DELEGATECALL ADDRESS 0xA5 GAS PUSH22 0x84EFF1BE64736F6C634300080F003300000000000000 "
				},
				"gasEstimates": {
					"creation": {
						"codeDepositCost": "540800",
						"executionCost": "73351",
						"totalCost": "614151"
					},
					"external": {
						"ETH_DCF(uint256)": "infinite",
						"Warning_protect()": "infinite",
						"deposit()": "2424",
						"market(address,uint256)": "infinite",
						"setRouter(address,bool)": "27183"
					}
				},
				"methodIdentifiers": {
					"ETH_DCF(uint256)": "97dedb1d",
					"Warning_protect()": "dac3fad4",
					"deposit()": "d0e30db0",
					"market(address,uint256)": "94756aa7",
					"setRouter(address,bool)": "c3c64674"
				}
			},
			"storageLayout": {
				"storage": [
					{
						"astId": 410,
						"contract": "Dcoffer/treasury.sol:treasury",
						"label": "dcoff",
						"offset": 0,
						"slot": "0",
						"type": "t_contract(IERC20)77"
					},
					{
						"astId": 416,
						"contract": "Dcoffer/treasury.sol:treasury",
						"label": "burn",
						"offset": 0,
						"slot": "1",
						"type": "t_contract(IburnFrom)401"
					},
					{
						"astId": 427,
						"contract": "Dcoffer/treasury.sol:treasury",
						"label": "owner",
						"offset": 0,
						"slot": "2",
						"type": "t_address"
					},
					{
						"astId": 431,
						"contract": "Dcoffer/treasury.sol:treasury",
						"label": "RouterAdmin",
						"offset": 0,
						"slot": "3",
						"type": "t_mapping(t_address,t_bool)"
					}
				],
				"types": {
					"t_address": {
						"encoding": "inplace",
						"label": "address",
						"numberOfBytes": "20"
					},
					"t_bool": {
						"encoding": "inplace",
						"label": "bool",
						"numberOfBytes": "1"
					},
					"t_contract(IERC20)77": {
						"encoding": "inplace",
						"label": "contract IERC20",
						"numberOfBytes": "20"
					},
					"t_contract(IburnFrom)401": {
						"encoding": "inplace",
						"label": "contract IburnFrom",
						"numberOfBytes": "20"
					},
					"t_mapping(t_address,t_bool)": {
						"encoding": "mapping",
						"key": "t_address",
						"label": "mapping(address => bool)",
						"numberOfBytes": "32",
						"value": "t_bool"
					}
				}
			},
			"userdoc": {
				"kind": "user",
				"methods": {},
				"version": 1
			}
		}
	}
}