{
	"Dcoffer/DcoffMine.sol": {
		"DcoffMine": {
			"abi": [
				{
					"inputs": [
						{
							"internalType": "address",
							"name": "_treasuryAddr",
							"type": "address"
						},
						{
							"internalType": "uint256",
							"name": "_fee",
							"type": "uint256"
						}
					],
					"stateMutability": "nonpayable",
					"type": "constructor"
				},
				{
					"inputs": [],
					"name": "FlashSwap",
					"outputs": [],
					"stateMutability": "nonpayable",
					"type": "function"
				},
				{
					"inputs": [],
					"name": "MineDcoff",
					"outputs": [],
					"stateMutability": "nonpayable",
					"type": "function"
				},
				{
					"inputs": [
						{
							"internalType": "address",
							"name": "user",
							"type": "address"
						}
					],
					"name": "mineStatus",
					"outputs": [
						{
							"internalType": "uint256",
							"name": "",
							"type": "uint256"
						}
					],
					"stateMutability": "view",
					"type": "function"
				},
				{
					"inputs": [],
					"name": "treasury_admin",
					"outputs": [],
					"stateMutability": "nonpayable",
					"type": "function"
				}
			],
			"devdoc": {
				"kind": "dev",
				"methods": {},
				"version": 1
			},
			"evm": {
				"assembly": "    /* \"Dcoffer/DcoffMine.sol\":306:2065  contract DcoffMine  {... */\n  mstore(0x40, 0x80)\n    /* \"Dcoffer/DcoffMine.sol\":378:420  0xa11Fb3cFB4EE968312A551F3d9daF5B0DcDF9307 */\n  0xa11fb3cfb4ee968312a551f3d9daf5b0dcdf9307\n    /* \"Dcoffer/DcoffMine.sol\":361:421  IDCF mine = IDCF(0xa11Fb3cFB4EE968312A551F3d9daF5B0DcDF9307) */\n  0x00\n  dup1\n  0x0100\n  exp\n  dup2\n  sload\n  dup2\n  0xffffffffffffffffffffffffffffffffffffffff\n  mul\n  not\n  and\n  swap1\n  dup4\n  0xffffffffffffffffffffffffffffffffffffffff\n  and\n  mul\n  or\n  swap1\n  sstore\n  pop\n    /* \"Dcoffer/DcoffMine.sol\":449:491  0x4320d4A0a469a93c916d2ba1351Cb403E0D1A7c7 */\n  0x4320d4a0a469a93c916d2ba1351cb403e0d1a7c7\n    /* \"Dcoffer/DcoffMine.sol\":426:492  IERC20 dcoff =  IERC20(0x4320d4A0a469a93c916d2ba1351Cb403E0D1A7c7) */\n  0x01\n  exp(0x0100, 0x00)\n  dup2\n  sload\n  dup2\n  0xffffffffffffffffffffffffffffffffffffffff\n  mul\n  not\n  and\n  swap1\n  dup4\n  0xffffffffffffffffffffffffffffffffffffffff\n  and\n  mul\n  or\n  swap1\n  sstore\n  pop\n    /* \"Dcoffer/DcoffMine.sol\":524:566  0xDB696D671A95B47c682111590F8f6a1316678797 */\n  0xdb696d671a95b47c682111590f8f6a1316678797\n    /* \"Dcoffer/DcoffMine.sol\":497:567  treasury router = treasury(0xDB696D671A95B47c682111590F8f6a1316678797) */\n  0x02\n  exp(0x0100, 0x00)\n  dup2\n  sload\n  dup2\n  0xffffffffffffffffffffffffffffffffffffffff\n  mul\n  not\n  and\n  swap1\n  dup4\n  0xffffffffffffffffffffffffffffffffffffffff\n  and\n  mul\n  or\n  swap1\n  sstore\n  pop\n    /* \"Dcoffer/DcoffMine.sol\":736:895  constructor(address _treasuryAddr, uint256 _fee){... */\n  callvalue\n  dup1\n  iszero\n  tag_1\n  jumpi\n  0x00\n  dup1\n  revert\ntag_1:\n  pop\n  mload(0x40)\n  sub(codesize, bytecodeSize)\n  dup1\n  bytecodeSize\n  dup4\n  codecopy\n  dup2\n  dup2\n  add\n  0x40\n  mstore\n  dup2\n  add\n  swap1\n  tag_2\n  swap2\n  swap1\n  tag_3\n  jump\t// in\ntag_2:\n    /* \"Dcoffer/DcoffMine.sol\":807:811  2e18 */\n  0x1bc16d674ec80000\n    /* \"Dcoffer/DcoffMine.sol\":791:804  DcoffperBlock */\n  0x06\n    /* \"Dcoffer/DcoffMine.sol\":791:811  DcoffperBlock = 2e18 */\n  dup2\n  swap1\n  sstore\n  pop\n    /* \"Dcoffer/DcoffMine.sol\":827:837  msg.sender */\n  caller\n    /* \"Dcoffer/DcoffMine.sol\":819:824  owner */\n  0x03\n  0x00\n    /* \"Dcoffer/DcoffMine.sol\":819:837  owner = msg.sender */\n  0x0100\n  exp\n  dup2\n  sload\n  dup2\n  0xffffffffffffffffffffffffffffffffffffffff\n  mul\n  not\n  and\n  swap1\n  dup4\n  0xffffffffffffffffffffffffffffffffffffffff\n  and\n  mul\n  or\n  swap1\n  sstore\n  pop\n    /* \"Dcoffer/DcoffMine.sol\":859:872  _treasuryAddr */\n  dup2\n    /* \"Dcoffer/DcoffMine.sol\":844:856  treasuryAddr */\n  0x04\n  0x00\n    /* \"Dcoffer/DcoffMine.sol\":844:872  treasuryAddr = _treasuryAddr */\n  0x0100\n  exp\n  dup2\n  sload\n  dup2\n  0xffffffffffffffffffffffffffffffffffffffff\n  mul\n  not\n  and\n  swap1\n  dup4\n  0xffffffffffffffffffffffffffffffffffffffff\n  and\n  mul\n  or\n  swap1\n  sstore\n  pop\n    /* \"Dcoffer/DcoffMine.sol\":885:889  _fee */\n  dup1\n    /* \"Dcoffer/DcoffMine.sol\":879:882  fee */\n  0x05\n    /* \"Dcoffer/DcoffMine.sol\":879:889  fee = _fee */\n  dup2\n  swap1\n  sstore\n  pop\n    /* \"Dcoffer/DcoffMine.sol\":736:895  constructor(address _treasuryAddr, uint256 _fee){... */\n  pop\n  pop\n    /* \"Dcoffer/DcoffMine.sol\":306:2065  contract DcoffMine  {... */\n  jump(tag_6)\n    /* \"#utility.yul\":88:205   */\ntag_8:\n    /* \"#utility.yul\":197:198   */\n  0x00\n    /* \"#utility.yul\":194:195   */\n  dup1\n    /* \"#utility.yul\":187:199   */\n  revert\n    /* \"#utility.yul\":334:460   */\ntag_10:\n    /* \"#utility.yul\":371:378   */\n  0x00\n    /* \"#utility.yul\":411:453   */\n  0xffffffffffffffffffffffffffffffffffffffff\n    /* \"#utility.yul\":404:409   */\n  dup3\n    /* \"#utility.yul\":400:454   */\n  and\n    /* \"#utility.yul\":389:454   */\n  swap1\n  pop\n    /* \"#utility.yul\":334:460   */\n  swap2\n  swap1\n  pop\n  jump\t// out\n    /* \"#utility.yul\":466:562   */\ntag_11:\n    /* \"#utility.yul\":503:510   */\n  0x00\n    /* \"#utility.yul\":532:556   */\n  tag_23\n    /* \"#utility.yul\":550:555   */\n  dup3\n    /* \"#utility.yul\":532:556   */\n  tag_10\n  jump\t// in\ntag_23:\n    /* \"#utility.yul\":521:556   */\n  swap1\n  pop\n    /* \"#utility.yul\":466:562   */\n  swap2\n  swap1\n  pop\n  jump\t// out\n    /* \"#utility.yul\":568:690   */\ntag_12:\n    /* \"#utility.yul\":641:665   */\n  tag_25\n    /* \"#utility.yul\":659:664   */\n  dup2\n    /* \"#utility.yul\":641:665   */\n  tag_11\n  jump\t// in\ntag_25:\n    /* \"#utility.yul\":634:639   */\n  dup2\n    /* \"#utility.yul\":631:666   */\n  eq\n    /* \"#utility.yul\":621:684   */\n  tag_26\n  jumpi\n    /* \"#utility.yul\":680:681   */\n  0x00\n    /* \"#utility.yul\":677:678   */\n  dup1\n    /* \"#utility.yul\":670:682   */\n  revert\n    /* \"#utility.yul\":621:684   */\ntag_26:\n    /* \"#utility.yul\":568:690   */\n  pop\n  jump\t// out\n    /* \"#utility.yul\":696:839   */\ntag_13:\n    /* \"#utility.yul\":753:758   */\n  0x00\n    /* \"#utility.yul\":784:790   */\n  dup2\n    /* \"#utility.yul\":778:791   */\n  mload\n    /* \"#utility.yul\":769:791   */\n  swap1\n  pop\n    /* \"#utility.yul\":800:833   */\n  tag_28\n    /* \"#utility.yul\":827:832   */\n  dup2\n    /* \"#utility.yul\":800:833   */\n  tag_12\n  jump\t// in\ntag_28:\n    /* \"#utility.yul\":696:839   */\n  swap3\n  swap2\n  pop\n  pop\n  jump\t// out\n    /* \"#utility.yul\":845:922   */\ntag_14:\n    /* \"#utility.yul\":882:889   */\n  0x00\n    /* \"#utility.yul\":911:916   */\n  dup2\n    /* \"#utility.yul\":900:916   */\n  swap1\n  pop\n    /* \"#utility.yul\":845:922   */\n  swap2\n  swap1\n  pop\n  jump\t// out\n    /* \"#utility.yul\":928:1050   */\ntag_15:\n    /* \"#utility.yul\":1001:1025   */\n  tag_31\n    /* \"#utility.yul\":1019:1024   */\n  dup2\n    /* \"#utility.yul\":1001:1025   */\n  tag_14\n  jump\t// in\ntag_31:\n    /* \"#utility.yul\":994:999   */\n  dup2\n    /* \"#utility.yul\":991:1026   */\n  eq\n    /* \"#utility.yul\":981:1044   */\n  tag_32\n  jumpi\n    /* \"#utility.yul\":1040:1041   */\n  0x00\n    /* \"#utility.yul\":1037:1038   */\n  dup1\n    /* \"#utility.yul\":1030:1042   */\n  revert\n    /* \"#utility.yul\":981:1044   */\ntag_32:\n    /* \"#utility.yul\":928:1050   */\n  pop\n  jump\t// out\n    /* \"#utility.yul\":1056:1199   */\ntag_16:\n    /* \"#utility.yul\":1113:1118   */\n  0x00\n    /* \"#utility.yul\":1144:1150   */\n  dup2\n    /* \"#utility.yul\":1138:1151   */\n  mload\n    /* \"#utility.yul\":1129:1151   */\n  swap1\n  pop\n    /* \"#utility.yul\":1160:1193   */\n  tag_34\n    /* \"#utility.yul\":1187:1192   */\n  dup2\n    /* \"#utility.yul\":1160:1193   */\n  tag_15\n  jump\t// in\ntag_34:\n    /* \"#utility.yul\":1056:1199   */\n  swap3\n  swap2\n  pop\n  pop\n  jump\t// out\n    /* \"#utility.yul\":1205:1712   */\ntag_3:\n    /* \"#utility.yul\":1284:1290   */\n  0x00\n    /* \"#utility.yul\":1292:1298   */\n  dup1\n    /* \"#utility.yul\":1341:1343   */\n  0x40\n    /* \"#utility.yul\":1329:1338   */\n  dup4\n    /* \"#utility.yul\":1320:1327   */\n  dup6\n    /* \"#utility.yul\":1316:1339   */\n  sub\n    /* \"#utility.yul\":1312:1344   */\n  slt\n    /* \"#utility.yul\":1309:1428   */\n  iszero\n  tag_36\n  jumpi\n    /* \"#utility.yul\":1347:1426   */\n  tag_37\n  tag_8\n  jump\t// in\ntag_37:\n    /* \"#utility.yul\":1309:1428   */\ntag_36:\n    /* \"#utility.yul\":1467:1468   */\n  0x00\n    /* \"#utility.yul\":1492:1556   */\n  tag_38\n    /* \"#utility.yul\":1548:1555   */\n  dup6\n    /* \"#utility.yul\":1539:1545   */\n  dup3\n    /* \"#utility.yul\":1528:1537   */\n  dup7\n    /* \"#utility.yul\":1524:1546   */\n  add\n    /* \"#utility.yul\":1492:1556   */\n  tag_13\n  jump\t// in\ntag_38:\n    /* \"#utility.yul\":1482:1556   */\n  swap3\n  pop\n    /* \"#utility.yul\":1438:1566   */\n  pop\n    /* \"#utility.yul\":1605:1607   */\n  0x20\n    /* \"#utility.yul\":1631:1695   */\n  tag_39\n    /* \"#utility.yul\":1687:1694   */\n  dup6\n    /* \"#utility.yul\":1678:1684   */\n  dup3\n    /* \"#utility.yul\":1667:1676   */\n  dup7\n    /* \"#utility.yul\":1663:1685   */\n  add\n    /* \"#utility.yul\":1631:1695   */\n  tag_16\n  jump\t// in\ntag_39:\n    /* \"#utility.yul\":1621:1695   */\n  swap2\n  pop\n    /* \"#utility.yul\":1576:1705   */\n  pop\n    /* \"#utility.yul\":1205:1712   */\n  swap3\n  pop\n  swap3\n  swap1\n  pop\n  jump\t// out\n    /* \"Dcoffer/DcoffMine.sol\":306:2065  contract DcoffMine  {... */\ntag_6:\n  dataSize(sub_0)\n  dup1\n  dataOffset(sub_0)\n  0x00\n  codecopy\n  0x00\n  return\nstop\n\nsub_0: assembly {\n        /* \"Dcoffer/DcoffMine.sol\":306:2065  contract DcoffMine  {... */\n      mstore(0x40, 0x80)\n      callvalue\n      dup1\n      iszero\n      tag_1\n      jumpi\n      0x00\n      dup1\n      revert\n    tag_1:\n      pop\n      jumpi(tag_2, lt(calldatasize, 0x04))\n      shr(0xe0, calldataload(0x00))\n      dup1\n      0x33a22571\n      eq\n      tag_3\n      jumpi\n      dup1\n      0x8bed4778\n      eq\n      tag_4\n      jumpi\n      dup1\n      0x9acc1b73\n      eq\n      tag_5\n      jumpi\n      dup1\n      0xb3a26307\n      eq\n      tag_6\n      jumpi\n    tag_2:\n      0x00\n      dup1\n      revert\n        /* \"Dcoffer/DcoffMine.sol\":1376:1626  function mineStatus(address user)public view returns(uint256){  ... */\n    tag_3:\n      tag_7\n      0x04\n      dup1\n      calldatasize\n      sub\n      dup2\n      add\n      swap1\n      tag_8\n      swap2\n      swap1\n      tag_9\n      jump\t// in\n    tag_8:\n      tag_10\n      jump\t// in\n    tag_7:\n      mload(0x40)\n      tag_11\n      swap2\n      swap1\n      tag_12\n      jump\t// in\n    tag_11:\n      mload(0x40)\n      dup1\n      swap2\n      sub\n      swap1\n      return\n        /* \"Dcoffer/DcoffMine.sol\":903:1162  function MineDcoff()external{      ... */\n    tag_4:\n      tag_13\n      tag_14\n      jump\t// in\n    tag_13:\n      stop\n        /* \"Dcoffer/DcoffMine.sol\":1927:2049  function treasury_admin()external {... */\n    tag_5:\n      tag_15\n      tag_16\n      jump\t// in\n    tag_15:\n      stop\n        /* \"Dcoffer/DcoffMine.sol\":1632:1913  function FlashSwap()external {... */\n    tag_6:\n      tag_17\n      tag_18\n      jump\t// in\n    tag_17:\n      stop\n        /* \"Dcoffer/DcoffMine.sol\":1376:1626  function mineStatus(address user)public view returns(uint256){  ... */\n    tag_10:\n        /* \"Dcoffer/DcoffMine.sol\":1429:1436  uint256 */\n      0x00\n        /* \"Dcoffer/DcoffMine.sol\":1448:1466  uint256 _maxSupply */\n      dup1\n        /* \"Dcoffer/DcoffMine.sol\":1470:1474  mine */\n      0x00\n      dup1\n      sload\n      swap1\n      0x0100\n      exp\n      swap1\n      div\n      0xffffffffffffffffffffffffffffffffffffffff\n      and\n        /* \"Dcoffer/DcoffMine.sol\":1470:1484  mine.maxSupply */\n      0xffffffffffffffffffffffffffffffffffffffff\n      and\n      0xd5abeb01\n        /* \"Dcoffer/DcoffMine.sol\":1470:1486  mine.maxSupply() */\n      mload(0x40)\n      dup2\n      0xffffffff\n      and\n      0xe0\n      shl\n      dup2\n      mstore\n      0x04\n      add\n      0x20\n      mload(0x40)\n      dup1\n      dup4\n      sub\n      dup2\n      dup7\n      gas\n      staticcall\n      iszero\n      dup1\n      iszero\n      tag_21\n      jumpi\n      returndatasize\n      0x00\n      dup1\n      returndatacopy\n      revert(0x00, returndatasize)\n    tag_21:\n      pop\n      pop\n      pop\n      pop\n      mload(0x40)\n      returndatasize\n      not(0x1f)\n      0x1f\n      dup3\n      add\n      and\n      dup3\n      add\n      dup1\n      0x40\n      mstore\n      pop\n      dup2\n      add\n      swap1\n      tag_22\n      swap2\n      swap1\n      tag_23\n      jump\t// in\n    tag_22:\n        /* \"Dcoffer/DcoffMine.sol\":1448:1486  uint256 _maxSupply =  mine.maxSupply() */\n      swap1\n      pop\n        /* \"Dcoffer/DcoffMine.sol\":1495:1513  uint256 afterScore */\n      0x00\n        /* \"Dcoffer/DcoffMine.sol\":1516:1527  Score(user) */\n      tag_24\n        /* \"Dcoffer/DcoffMine.sol\":1522:1526  user */\n      dup5\n        /* \"Dcoffer/DcoffMine.sol\":1516:1521  Score */\n      tag_25\n        /* \"Dcoffer/DcoffMine.sol\":1516:1527  Score(user) */\n      jump\t// in\n    tag_24:\n        /* \"Dcoffer/DcoffMine.sol\":1495:1527  uint256 afterScore = Score(user) */\n      swap1\n      pop\n        /* \"Dcoffer/DcoffMine.sol\":1536:1550  uint256 GetDCF */\n      0x00\n        /* \"Dcoffer/DcoffMine.sol\":1553:1598  afterScore.mul(DcoffperBlock).div(_maxSupply) */\n      tag_26\n        /* \"Dcoffer/DcoffMine.sol\":1587:1597  _maxSupply */\n      dup4\n        /* \"Dcoffer/DcoffMine.sol\":1553:1582  afterScore.mul(DcoffperBlock) */\n      tag_27\n        /* \"Dcoffer/DcoffMine.sol\":1568:1581  DcoffperBlock */\n      sload(0x06)\n        /* \"Dcoffer/DcoffMine.sol\":1553:1563  afterScore */\n      dup6\n        /* \"Dcoffer/DcoffMine.sol\":1553:1567  afterScore.mul */\n      tag_28\n      swap1\n        /* \"Dcoffer/DcoffMine.sol\":1553:1582  afterScore.mul(DcoffperBlock) */\n      swap2\n      swap1\n      0xffffffff\n      and\n      jump\t// in\n    tag_27:\n        /* \"Dcoffer/DcoffMine.sol\":1553:1586  afterScore.mul(DcoffperBlock).div */\n      tag_29\n      swap1\n        /* \"Dcoffer/DcoffMine.sol\":1553:1598  afterScore.mul(DcoffperBlock).div(_maxSupply) */\n      swap2\n      swap1\n      0xffffffff\n      and\n      jump\t// in\n    tag_26:\n        /* \"Dcoffer/DcoffMine.sol\":1536:1598  uint256 GetDCF = afterScore.mul(DcoffperBlock).div(_maxSupply) */\n      swap1\n      pop\n        /* \"Dcoffer/DcoffMine.sol\":1614:1620  GetDCF */\n      dup1\n        /* \"Dcoffer/DcoffMine.sol\":1607:1620  return GetDCF */\n      swap4\n      pop\n      pop\n      pop\n      pop\n        /* \"Dcoffer/DcoffMine.sol\":1376:1626  function mineStatus(address user)public view returns(uint256){  ... */\n      swap2\n      swap1\n      pop\n      jump\t// out\n        /* \"Dcoffer/DcoffMine.sol\":903:1162  function MineDcoff()external{      ... */\n    tag_14:\n        /* \"Dcoffer/DcoffMine.sol\":946:960  uint256 GetDCF */\n      0x00\n        /* \"Dcoffer/DcoffMine.sol\":963:985  mineStatus(msg.sender) */\n      tag_31\n        /* \"Dcoffer/DcoffMine.sol\":974:984  msg.sender */\n      caller\n        /* \"Dcoffer/DcoffMine.sol\":963:973  mineStatus */\n      tag_10\n        /* \"Dcoffer/DcoffMine.sol\":963:985  mineStatus(msg.sender) */\n      jump\t// in\n    tag_31:\n        /* \"Dcoffer/DcoffMine.sol\":946:985  uint256 GetDCF = mineStatus(msg.sender) */\n      swap1\n      pop\n        /* \"Dcoffer/DcoffMine.sol\":994:999  dcoff */\n      0x01\n      0x00\n      swap1\n      sload\n      swap1\n      0x0100\n      exp\n      swap1\n      div\n      0xffffffffffffffffffffffffffffffffffffffff\n      and\n        /* \"Dcoffer/DcoffMine.sol\":994:1008  dcoff.transfer */\n      0xffffffffffffffffffffffffffffffffffffffff\n      and\n      0xa9059cbb\n        /* \"Dcoffer/DcoffMine.sol\":1009:1019  msg.sender */\n      caller\n        /* \"Dcoffer/DcoffMine.sol\":1020:1026  GetDCF */\n      dup4\n        /* \"Dcoffer/DcoffMine.sol\":994:1027  dcoff.transfer(msg.sender,GetDCF) */\n      mload(0x40)\n      dup4\n      0xffffffff\n      and\n      0xe0\n      shl\n      dup2\n      mstore\n      0x04\n      add\n      tag_32\n      swap3\n      swap2\n      swap1\n      tag_33\n      jump\t// in\n    tag_32:\n      0x20\n      mload(0x40)\n      dup1\n      dup4\n      sub\n      dup2\n      0x00\n      dup8\n      gas\n      call\n      iszero\n      dup1\n      iszero\n      tag_35\n      jumpi\n      returndatasize\n      0x00\n      dup1\n      returndatacopy\n      revert(0x00, returndatasize)\n    tag_35:\n      pop\n      pop\n      pop\n      pop\n      mload(0x40)\n      returndatasize\n      not(0x1f)\n      0x1f\n      dup3\n      add\n      and\n      dup3\n      add\n      dup1\n      0x40\n      mstore\n      pop\n      dup2\n      add\n      swap1\n      tag_36\n      swap2\n      swap1\n      tag_37\n      jump\t// in\n    tag_36:\n      pop\n        /* \"Dcoffer/DcoffMine.sol\":1038:1056  uint256 afterScore */\n      0x00\n        /* \"Dcoffer/DcoffMine.sol\":1059:1076  Score(msg.sender) */\n      tag_38\n        /* \"Dcoffer/DcoffMine.sol\":1065:1075  msg.sender */\n      caller\n        /* \"Dcoffer/DcoffMine.sol\":1059:1064  Score */\n      tag_25\n        /* \"Dcoffer/DcoffMine.sol\":1059:1076  Score(msg.sender) */\n      jump\t// in\n    tag_38:\n        /* \"Dcoffer/DcoffMine.sol\":1038:1076  uint256 afterScore = Score(msg.sender) */\n      swap1\n      pop\n        /* \"Dcoffer/DcoffMine.sol\":1114:1156  ScoreWithdrawn[msg.sender].add(afterScore) */\n      tag_39\n        /* \"Dcoffer/DcoffMine.sol\":1145:1155  afterScore */\n      dup2\n        /* \"Dcoffer/DcoffMine.sol\":1114:1128  ScoreWithdrawn */\n      0x07\n        /* \"Dcoffer/DcoffMine.sol\":1114:1140  ScoreWithdrawn[msg.sender] */\n      0x00\n        /* \"Dcoffer/DcoffMine.sol\":1129:1139  msg.sender */\n      caller\n        /* \"Dcoffer/DcoffMine.sol\":1114:1140  ScoreWithdrawn[msg.sender] */\n      0xffffffffffffffffffffffffffffffffffffffff\n      and\n      0xffffffffffffffffffffffffffffffffffffffff\n      and\n      dup2\n      mstore\n      0x20\n      add\n      swap1\n      dup2\n      mstore\n      0x20\n      add\n      0x00\n      keccak256\n      sload\n        /* \"Dcoffer/DcoffMine.sol\":1114:1144  ScoreWithdrawn[msg.sender].add */\n      tag_40\n      swap1\n        /* \"Dcoffer/DcoffMine.sol\":1114:1156  ScoreWithdrawn[msg.sender].add(afterScore) */\n      swap2\n      swap1\n      0xffffffff\n      and\n      jump\t// in\n    tag_39:\n        /* \"Dcoffer/DcoffMine.sol\":1085:1099  ScoreWithdrawn */\n      0x07\n        /* \"Dcoffer/DcoffMine.sol\":1085:1111  ScoreWithdrawn[msg.sender] */\n      0x00\n        /* \"Dcoffer/DcoffMine.sol\":1100:1110  msg.sender */\n      caller\n        /* \"Dcoffer/DcoffMine.sol\":1085:1111  ScoreWithdrawn[msg.sender] */\n      0xffffffffffffffffffffffffffffffffffffffff\n      and\n      0xffffffffffffffffffffffffffffffffffffffff\n      and\n      dup2\n      mstore\n      0x20\n      add\n      swap1\n      dup2\n      mstore\n      0x20\n      add\n      0x00\n      keccak256\n        /* \"Dcoffer/DcoffMine.sol\":1085:1156  ScoreWithdrawn[msg.sender] = ScoreWithdrawn[msg.sender].add(afterScore) */\n      dup2\n      swap1\n      sstore\n      pop\n        /* \"Dcoffer/DcoffMine.sol\":931:1162  {      ... */\n      pop\n      pop\n        /* \"Dcoffer/DcoffMine.sol\":903:1162  function MineDcoff()external{      ... */\n      jump\t// out\n        /* \"Dcoffer/DcoffMine.sol\":1927:2049  function treasury_admin()external {... */\n    tag_16:\n        /* \"Dcoffer/DcoffMine.sol\":1990:1995  owner */\n      0x03\n      0x00\n      swap1\n      sload\n      swap1\n      0x0100\n      exp\n      swap1\n      div\n      0xffffffffffffffffffffffffffffffffffffffff\n      and\n        /* \"Dcoffer/DcoffMine.sol\":1976:1995  msg.sender == owner */\n      0xffffffffffffffffffffffffffffffffffffffff\n      and\n        /* \"Dcoffer/DcoffMine.sol\":1976:1986  msg.sender */\n      caller\n        /* \"Dcoffer/DcoffMine.sol\":1976:1995  msg.sender == owner */\n      0xffffffffffffffffffffffffffffffffffffffff\n      and\n      eq\n        /* \"Dcoffer/DcoffMine.sol\":1968:1996  require(msg.sender == owner) */\n      tag_42\n      jumpi\n      0x00\n      dup1\n      revert\n    tag_42:\n        /* \"Dcoffer/DcoffMine.sol\":2003:2008  dcoff */\n      0x01\n      0x00\n      swap1\n      sload\n      swap1\n      0x0100\n      exp\n      swap1\n      div\n      0xffffffffffffffffffffffffffffffffffffffff\n      and\n        /* \"Dcoffer/DcoffMine.sol\":2003:2016  dcoff.approve */\n      0xffffffffffffffffffffffffffffffffffffffff\n      and\n      0x095ea7b3\n        /* \"Dcoffer/DcoffMine.sol\":2017:2029  treasuryAddr */\n      0x04\n      0x00\n      swap1\n      sload\n      swap1\n      0x0100\n      exp\n      swap1\n      div\n      0xffffffffffffffffffffffffffffffffffffffff\n      and\n        /* \"Dcoffer/DcoffMine.sol\":2030:2042  100000000e18 */\n      0x52b7d2dcc80cd2e4000000\n        /* \"Dcoffer/DcoffMine.sol\":2003:2043  dcoff.approve(treasuryAddr,100000000e18) */\n      mload(0x40)\n      dup4\n      0xffffffff\n      and\n      0xe0\n      shl\n      dup2\n      mstore\n      0x04\n      add\n      tag_43\n      swap3\n      swap2\n      swap1\n      tag_44\n      jump\t// in\n    tag_43:\n      0x20\n      mload(0x40)\n      dup1\n      dup4\n      sub\n      dup2\n      0x00\n      dup8\n      gas\n      call\n      iszero\n      dup1\n      iszero\n      tag_46\n      jumpi\n      returndatasize\n      0x00\n      dup1\n      returndatacopy\n      revert(0x00, returndatasize)\n    tag_46:\n      pop\n      pop\n      pop\n      pop\n      mload(0x40)\n      returndatasize\n      not(0x1f)\n      0x1f\n      dup3\n      add\n      and\n      dup3\n      add\n      dup1\n      0x40\n      mstore\n      pop\n      dup2\n      add\n      swap1\n      tag_47\n      swap2\n      swap1\n      tag_37\n      jump\t// in\n    tag_47:\n      pop\n        /* \"Dcoffer/DcoffMine.sol\":1927:2049  function treasury_admin()external {... */\n      jump\t// out\n        /* \"Dcoffer/DcoffMine.sol\":1632:1913  function FlashSwap()external {... */\n    tag_18:\n        /* \"Dcoffer/DcoffMine.sol\":1668:1686  uint256 dcf_amount */\n      0x00\n        /* \"Dcoffer/DcoffMine.sol\":1689:1711  mineStatus(msg.sender) */\n      tag_49\n        /* \"Dcoffer/DcoffMine.sol\":1700:1710  msg.sender */\n      caller\n        /* \"Dcoffer/DcoffMine.sol\":1689:1699  mineStatus */\n      tag_10\n        /* \"Dcoffer/DcoffMine.sol\":1689:1711  mineStatus(msg.sender) */\n      jump\t// in\n    tag_49:\n        /* \"Dcoffer/DcoffMine.sol\":1668:1711  uint256 dcf_amount = mineStatus(msg.sender) */\n      swap1\n      pop\n        /* \"Dcoffer/DcoffMine.sol\":1726:1732  router */\n      0x02\n      0x00\n      swap1\n      sload\n      swap1\n      0x0100\n      exp\n      swap1\n      div\n      0xffffffffffffffffffffffffffffffffffffffff\n      and\n        /* \"Dcoffer/DcoffMine.sol\":1726:1739  router.market */\n      0xffffffffffffffffffffffffffffffffffffffff\n      and\n      0x94756aa7\n        /* \"Dcoffer/DcoffMine.sol\":1748:1758  msg.sender */\n      caller\n        /* \"Dcoffer/DcoffMine.sol\":1760:1770  dcf_amount */\n      dup4\n        /* \"Dcoffer/DcoffMine.sol\":1726:1771  router.market(payable(msg.sender),dcf_amount) */\n      mload(0x40)\n      dup4\n      0xffffffff\n      and\n      0xe0\n      shl\n      dup2\n      mstore\n      0x04\n      add\n      tag_50\n      swap3\n      swap2\n      swap1\n      tag_51\n      jump\t// in\n    tag_50:\n      0x00\n      mload(0x40)\n      dup1\n      dup4\n      sub\n      dup2\n      0x00\n      dup8\n      dup1\n      extcodesize\n      iszero\n      dup1\n      iszero\n      tag_52\n      jumpi\n      0x00\n      dup1\n      revert\n    tag_52:\n      pop\n      gas\n      call\n      iszero\n      dup1\n      iszero\n      tag_54\n      jumpi\n      returndatasize\n      0x00\n      dup1\n      returndatacopy\n      revert(0x00, returndatasize)\n    tag_54:\n      pop\n      pop\n      pop\n      pop\n        /* \"Dcoffer/DcoffMine.sol\":1791:1809  uint256 afterScore */\n      0x00\n        /* \"Dcoffer/DcoffMine.sol\":1812:1829  Score(msg.sender) */\n      tag_55\n        /* \"Dcoffer/DcoffMine.sol\":1818:1828  msg.sender */\n      caller\n        /* \"Dcoffer/DcoffMine.sol\":1812:1817  Score */\n      tag_25\n        /* \"Dcoffer/DcoffMine.sol\":1812:1829  Score(msg.sender) */\n      jump\t// in\n    tag_55:\n        /* \"Dcoffer/DcoffMine.sol\":1791:1829  uint256 afterScore = Score(msg.sender) */\n      swap1\n      pop\n        /* \"Dcoffer/DcoffMine.sol\":1865:1907  ScoreWithdrawn[msg.sender].add(afterScore) */\n      tag_56\n        /* \"Dcoffer/DcoffMine.sol\":1896:1906  afterScore */\n      dup2\n        /* \"Dcoffer/DcoffMine.sol\":1865:1879  ScoreWithdrawn */\n      0x07\n        /* \"Dcoffer/DcoffMine.sol\":1865:1891  ScoreWithdrawn[msg.sender] */\n      0x00\n        /* \"Dcoffer/DcoffMine.sol\":1880:1890  msg.sender */\n      caller\n        /* \"Dcoffer/DcoffMine.sol\":1865:1891  ScoreWithdrawn[msg.sender] */\n      0xffffffffffffffffffffffffffffffffffffffff\n      and\n      0xffffffffffffffffffffffffffffffffffffffff\n      and\n      dup2\n      mstore\n      0x20\n      add\n      swap1\n      dup2\n      mstore\n      0x20\n      add\n      0x00\n      keccak256\n      sload\n        /* \"Dcoffer/DcoffMine.sol\":1865:1895  ScoreWithdrawn[msg.sender].add */\n      tag_40\n      swap1\n        /* \"Dcoffer/DcoffMine.sol\":1865:1907  ScoreWithdrawn[msg.sender].add(afterScore) */\n      swap2\n      swap1\n      0xffffffff\n      and\n      jump\t// in\n    tag_56:\n        /* \"Dcoffer/DcoffMine.sol\":1836:1850  ScoreWithdrawn */\n      0x07\n        /* \"Dcoffer/DcoffMine.sol\":1836:1862  ScoreWithdrawn[msg.sender] */\n      0x00\n        /* \"Dcoffer/DcoffMine.sol\":1851:1861  msg.sender */\n      caller\n        /* \"Dcoffer/DcoffMine.sol\":1836:1862  ScoreWithdrawn[msg.sender] */\n      0xffffffffffffffffffffffffffffffffffffffff\n      and\n      0xffffffffffffffffffffffffffffffffffffffff\n      and\n      dup2\n      mstore\n      0x20\n      add\n      swap1\n      dup2\n      mstore\n      0x20\n      add\n      0x00\n      keccak256\n        /* \"Dcoffer/DcoffMine.sol\":1836:1907  ScoreWithdrawn[msg.sender] = ScoreWithdrawn[msg.sender].add(afterScore) */\n      dup2\n      swap1\n      sstore\n      pop\n        /* \"Dcoffer/DcoffMine.sol\":1661:1913  {... */\n      pop\n      pop\n        /* \"Dcoffer/DcoffMine.sol\":1632:1913  function FlashSwap()external {... */\n      jump\t// out\n        /* \"Dcoffer/DcoffMine.sol\":1170:1369  function Score(address user)internal view returns(uint256){... */\n    tag_25:\n        /* \"Dcoffer/DcoffMine.sol\":1220:1227  uint256 */\n      0x00\n        /* \"Dcoffer/DcoffMine.sol\":1237:1251  uint256 _Score */\n      dup1\n        /* \"Dcoffer/DcoffMine.sol\":1254:1258  mine */\n      0x00\n      dup1\n      sload\n      swap1\n      0x0100\n      exp\n      swap1\n      div\n      0xffffffffffffffffffffffffffffffffffffffff\n      and\n        /* \"Dcoffer/DcoffMine.sol\":1254:1269  mine.BlockScore */\n      0xffffffffffffffffffffffffffffffffffffffff\n      and\n      0x325b272a\n        /* \"Dcoffer/DcoffMine.sol\":1270:1274  user */\n      dup5\n        /* \"Dcoffer/DcoffMine.sol\":1254:1275  mine.BlockScore(user) */\n      mload(0x40)\n      dup3\n      0xffffffff\n      and\n      0xe0\n      shl\n      dup2\n      mstore\n      0x04\n      add\n      tag_58\n      swap2\n      swap1\n      tag_59\n      jump\t// in\n    tag_58:\n      0x20\n      mload(0x40)\n      dup1\n      dup4\n      sub\n      dup2\n      dup7\n      gas\n      staticcall\n      iszero\n      dup1\n      iszero\n      tag_61\n      jumpi\n      returndatasize\n      0x00\n      dup1\n      returndatacopy\n      revert(0x00, returndatasize)\n    tag_61:\n      pop\n      pop\n      pop\n      pop\n      mload(0x40)\n      returndatasize\n      not(0x1f)\n      0x1f\n      dup3\n      add\n      and\n      dup3\n      add\n      dup1\n      0x40\n      mstore\n      pop\n      dup2\n      add\n      swap1\n      tag_62\n      swap2\n      swap1\n      tag_23\n      jump\t// in\n    tag_62:\n        /* \"Dcoffer/DcoffMine.sol\":1237:1275  uint256 _Score = mine.BlockScore(user) */\n      swap1\n      pop\n        /* \"Dcoffer/DcoffMine.sol\":1284:1302  uint256 afterScore */\n      0x00\n        /* \"Dcoffer/DcoffMine.sol\":1305:1337  _Score.sub(ScoreWithdrawn[user]) */\n      tag_63\n        /* \"Dcoffer/DcoffMine.sol\":1316:1330  ScoreWithdrawn */\n      0x07\n        /* \"Dcoffer/DcoffMine.sol\":1316:1336  ScoreWithdrawn[user] */\n      0x00\n        /* \"Dcoffer/DcoffMine.sol\":1331:1335  user */\n      dup7\n        /* \"Dcoffer/DcoffMine.sol\":1316:1336  ScoreWithdrawn[user] */\n      0xffffffffffffffffffffffffffffffffffffffff\n      and\n      0xffffffffffffffffffffffffffffffffffffffff\n      and\n      dup2\n      mstore\n      0x20\n      add\n      swap1\n      dup2\n      mstore\n      0x20\n      add\n      0x00\n      keccak256\n      sload\n        /* \"Dcoffer/DcoffMine.sol\":1305:1311  _Score */\n      dup4\n        /* \"Dcoffer/DcoffMine.sol\":1305:1315  _Score.sub */\n      tag_64\n      swap1\n        /* \"Dcoffer/DcoffMine.sol\":1305:1337  _Score.sub(ScoreWithdrawn[user]) */\n      swap2\n      swap1\n      0xffffffff\n      and\n      jump\t// in\n    tag_63:\n        /* \"Dcoffer/DcoffMine.sol\":1284:1337  uint256 afterScore = _Score.sub(ScoreWithdrawn[user]) */\n      swap1\n      pop\n        /* \"Dcoffer/DcoffMine.sol\":1353:1363  afterScore */\n      dup1\n        /* \"Dcoffer/DcoffMine.sol\":1346:1363  return afterScore */\n      swap3\n      pop\n      pop\n      pop\n        /* \"Dcoffer/DcoffMine.sol\":1170:1369  function Score(address user)internal view returns(uint256){... */\n      swap2\n      swap1\n      pop\n      jump\t// out\n        /* \"@openzeppelin/contracts/utils/math/SafeMath.sol\":3465:3561  function mul(uint256 a, uint256 b) internal pure returns (uint256) {... */\n    tag_28:\n        /* \"@openzeppelin/contracts/utils/math/SafeMath.sol\":3523:3530  uint256 */\n      0x00\n        /* \"@openzeppelin/contracts/utils/math/SafeMath.sol\":3553:3554  b */\n      dup2\n        /* \"@openzeppelin/contracts/utils/math/SafeMath.sol\":3549:3550  a */\n      dup4\n        /* \"@openzeppelin/contracts/utils/math/SafeMath.sol\":3549:3554  a * b */\n      tag_66\n      swap2\n      swap1\n      tag_67\n      jump\t// in\n    tag_66:\n        /* \"@openzeppelin/contracts/utils/math/SafeMath.sol\":3542:3554  return a * b */\n      swap1\n      pop\n        /* \"@openzeppelin/contracts/utils/math/SafeMath.sol\":3465:3561  function mul(uint256 a, uint256 b) internal pure returns (uint256) {... */\n      swap3\n      swap2\n      pop\n      pop\n      jump\t// out\n        /* \"@openzeppelin/contracts/utils/math/SafeMath.sol\":3850:3946  function div(uint256 a, uint256 b) internal pure returns (uint256) {... */\n    tag_29:\n        /* \"@openzeppelin/contracts/utils/math/SafeMath.sol\":3908:3915  uint256 */\n      0x00\n        /* \"@openzeppelin/contracts/utils/math/SafeMath.sol\":3938:3939  b */\n      dup2\n        /* \"@openzeppelin/contracts/utils/math/SafeMath.sol\":3934:3935  a */\n      dup4\n        /* \"@openzeppelin/contracts/utils/math/SafeMath.sol\":3934:3939  a / b */\n      tag_69\n      swap2\n      swap1\n      tag_70\n      jump\t// in\n    tag_69:\n        /* \"@openzeppelin/contracts/utils/math/SafeMath.sol\":3927:3939  return a / b */\n      swap1\n      pop\n        /* \"@openzeppelin/contracts/utils/math/SafeMath.sol\":3850:3946  function div(uint256 a, uint256 b) internal pure returns (uint256) {... */\n      swap3\n      swap2\n      pop\n      pop\n      jump\t// out\n        /* \"@openzeppelin/contracts/utils/math/SafeMath.sol\":2755:2851  function add(uint256 a, uint256 b) internal pure returns (uint256) {... */\n    tag_40:\n        /* \"@openzeppelin/contracts/utils/math/SafeMath.sol\":2813:2820  uint256 */\n      0x00\n        /* \"@openzeppelin/contracts/utils/math/SafeMath.sol\":2843:2844  b */\n      dup2\n        /* \"@openzeppelin/contracts/utils/math/SafeMath.sol\":2839:2840  a */\n      dup4\n        /* \"@openzeppelin/contracts/utils/math/SafeMath.sol\":2839:2844  a + b */\n      tag_72\n      swap2\n      swap1\n      tag_73\n      jump\t// in\n    tag_72:\n        /* \"@openzeppelin/contracts/utils/math/SafeMath.sol\":2832:2844  return a + b */\n      swap1\n      pop\n        /* \"@openzeppelin/contracts/utils/math/SafeMath.sol\":2755:2851  function add(uint256 a, uint256 b) internal pure returns (uint256) {... */\n      swap3\n      swap2\n      pop\n      pop\n      jump\t// out\n        /* \"@openzeppelin/contracts/utils/math/SafeMath.sol\":3122:3218  function sub(uint256 a, uint256 b) internal pure returns (uint256) {... */\n    tag_64:\n        /* \"@openzeppelin/contracts/utils/math/SafeMath.sol\":3180:3187  uint256 */\n      0x00\n        /* \"@openzeppelin/contracts/utils/math/SafeMath.sol\":3210:3211  b */\n      dup2\n        /* \"@openzeppelin/contracts/utils/math/SafeMath.sol\":3206:3207  a */\n      dup4\n        /* \"@openzeppelin/contracts/utils/math/SafeMath.sol\":3206:3211  a - b */\n      tag_75\n      swap2\n      swap1\n      tag_76\n      jump\t// in\n    tag_75:\n        /* \"@openzeppelin/contracts/utils/math/SafeMath.sol\":3199:3211  return a - b */\n      swap1\n      pop\n        /* \"@openzeppelin/contracts/utils/math/SafeMath.sol\":3122:3218  function sub(uint256 a, uint256 b) internal pure returns (uint256) {... */\n      swap3\n      swap2\n      pop\n      pop\n      jump\t// out\n        /* \"#utility.yul\":88:205   */\n    tag_78:\n        /* \"#utility.yul\":197:198   */\n      0x00\n        /* \"#utility.yul\":194:195   */\n      dup1\n        /* \"#utility.yul\":187:199   */\n      revert\n        /* \"#utility.yul\":334:460   */\n    tag_80:\n        /* \"#utility.yul\":371:378   */\n      0x00\n        /* \"#utility.yul\":411:453   */\n      0xffffffffffffffffffffffffffffffffffffffff\n        /* \"#utility.yul\":404:409   */\n      dup3\n        /* \"#utility.yul\":400:454   */\n      and\n        /* \"#utility.yul\":389:454   */\n      swap1\n      pop\n        /* \"#utility.yul\":334:460   */\n      swap2\n      swap1\n      pop\n      jump\t// out\n        /* \"#utility.yul\":466:562   */\n    tag_81:\n        /* \"#utility.yul\":503:510   */\n      0x00\n        /* \"#utility.yul\":532:556   */\n      tag_106\n        /* \"#utility.yul\":550:555   */\n      dup3\n        /* \"#utility.yul\":532:556   */\n      tag_80\n      jump\t// in\n    tag_106:\n        /* \"#utility.yul\":521:556   */\n      swap1\n      pop\n        /* \"#utility.yul\":466:562   */\n      swap2\n      swap1\n      pop\n      jump\t// out\n        /* \"#utility.yul\":568:690   */\n    tag_82:\n        /* \"#utility.yul\":641:665   */\n      tag_108\n        /* \"#utility.yul\":659:664   */\n      dup2\n        /* \"#utility.yul\":641:665   */\n      tag_81\n      jump\t// in\n    tag_108:\n        /* \"#utility.yul\":634:639   */\n      dup2\n        /* \"#utility.yul\":631:666   */\n      eq\n        /* \"#utility.yul\":621:684   */\n      tag_109\n      jumpi\n        /* \"#utility.yul\":680:681   */\n      0x00\n        /* \"#utility.yul\":677:678   */\n      dup1\n        /* \"#utility.yul\":670:682   */\n      revert\n        /* \"#utility.yul\":621:684   */\n    tag_109:\n        /* \"#utility.yul\":568:690   */\n      pop\n      jump\t// out\n        /* \"#utility.yul\":696:835   */\n    tag_83:\n        /* \"#utility.yul\":742:747   */\n      0x00\n        /* \"#utility.yul\":780:786   */\n      dup2\n        /* \"#utility.yul\":767:787   */\n      calldataload\n        /* \"#utility.yul\":758:787   */\n      swap1\n      pop\n        /* \"#utility.yul\":796:829   */\n      tag_111\n        /* \"#utility.yul\":823:828   */\n      dup2\n        /* \"#utility.yul\":796:829   */\n      tag_82\n      jump\t// in\n    tag_111:\n        /* \"#utility.yul\":696:835   */\n      swap3\n      swap2\n      pop\n      pop\n      jump\t// out\n        /* \"#utility.yul\":841:1170   */\n    tag_9:\n        /* \"#utility.yul\":900:906   */\n      0x00\n        /* \"#utility.yul\":949:951   */\n      0x20\n        /* \"#utility.yul\":937:946   */\n      dup3\n        /* \"#utility.yul\":928:935   */\n      dup5\n        /* \"#utility.yul\":924:947   */\n      sub\n        /* \"#utility.yul\":920:952   */\n      slt\n        /* \"#utility.yul\":917:1036   */\n      iszero\n      tag_113\n      jumpi\n        /* \"#utility.yul\":955:1034   */\n      tag_114\n      tag_78\n      jump\t// in\n    tag_114:\n        /* \"#utility.yul\":917:1036   */\n    tag_113:\n        /* \"#utility.yul\":1075:1076   */\n      0x00\n        /* \"#utility.yul\":1100:1153   */\n      tag_115\n        /* \"#utility.yul\":1145:1152   */\n      dup5\n        /* \"#utility.yul\":1136:1142   */\n      dup3\n        /* \"#utility.yul\":1125:1134   */\n      dup6\n        /* \"#utility.yul\":1121:1143   */\n      add\n        /* \"#utility.yul\":1100:1153   */\n      tag_83\n      jump\t// in\n    tag_115:\n        /* \"#utility.yul\":1090:1153   */\n      swap2\n      pop\n        /* \"#utility.yul\":1046:1163   */\n      pop\n        /* \"#utility.yul\":841:1170   */\n      swap3\n      swap2\n      pop\n      pop\n      jump\t// out\n        /* \"#utility.yul\":1176:1253   */\n    tag_84:\n        /* \"#utility.yul\":1213:1220   */\n      0x00\n        /* \"#utility.yul\":1242:1247   */\n      dup2\n        /* \"#utility.yul\":1231:1247   */\n      swap1\n      pop\n        /* \"#utility.yul\":1176:1253   */\n      swap2\n      swap1\n      pop\n      jump\t// out\n        /* \"#utility.yul\":1259:1377   */\n    tag_85:\n        /* \"#utility.yul\":1346:1370   */\n      tag_118\n        /* \"#utility.yul\":1364:1369   */\n      dup2\n        /* \"#utility.yul\":1346:1370   */\n      tag_84\n      jump\t// in\n    tag_118:\n        /* \"#utility.yul\":1341:1344   */\n      dup3\n        /* \"#utility.yul\":1334:1371   */\n      mstore\n        /* \"#utility.yul\":1259:1377   */\n      pop\n      pop\n      jump\t// out\n        /* \"#utility.yul\":1383:1605   */\n    tag_12:\n        /* \"#utility.yul\":1476:1480   */\n      0x00\n        /* \"#utility.yul\":1514:1516   */\n      0x20\n        /* \"#utility.yul\":1503:1512   */\n      dup3\n        /* \"#utility.yul\":1499:1517   */\n      add\n        /* \"#utility.yul\":1491:1517   */\n      swap1\n      pop\n        /* \"#utility.yul\":1527:1598   */\n      tag_120\n        /* \"#utility.yul\":1595:1596   */\n      0x00\n        /* \"#utility.yul\":1584:1593   */\n      dup4\n        /* \"#utility.yul\":1580:1597   */\n      add\n        /* \"#utility.yul\":1571:1577   */\n      dup5\n        /* \"#utility.yul\":1527:1598   */\n      tag_85\n      jump\t// in\n    tag_120:\n        /* \"#utility.yul\":1383:1605   */\n      swap3\n      swap2\n      pop\n      pop\n      jump\t// out\n        /* \"#utility.yul\":1611:1733   */\n    tag_86:\n        /* \"#utility.yul\":1684:1708   */\n      tag_122\n        /* \"#utility.yul\":1702:1707   */\n      dup2\n        /* \"#utility.yul\":1684:1708   */\n      tag_84\n      jump\t// in\n    tag_122:\n        /* \"#utility.yul\":1677:1682   */\n      dup2\n        /* \"#utility.yul\":1674:1709   */\n      eq\n        /* \"#utility.yul\":1664:1727   */\n      tag_123\n      jumpi\n        /* \"#utility.yul\":1723:1724   */\n      0x00\n        /* \"#utility.yul\":1720:1721   */\n      dup1\n        /* \"#utility.yul\":1713:1725   */\n      revert\n        /* \"#utility.yul\":1664:1727   */\n    tag_123:\n        /* \"#utility.yul\":1611:1733   */\n      pop\n      jump\t// out\n        /* \"#utility.yul\":1739:1882   */\n    tag_87:\n        /* \"#utility.yul\":1796:1801   */\n      0x00\n        /* \"#utility.yul\":1827:1833   */\n      dup2\n        /* \"#utility.yul\":1821:1834   */\n      mload\n        /* \"#utility.yul\":1812:1834   */\n      swap1\n      pop\n        /* \"#utility.yul\":1843:1876   */\n      tag_125\n        /* \"#utility.yul\":1870:1875   */\n      dup2\n        /* \"#utility.yul\":1843:1876   */\n      tag_86\n      jump\t// in\n    tag_125:\n        /* \"#utility.yul\":1739:1882   */\n      swap3\n      swap2\n      pop\n      pop\n      jump\t// out\n        /* \"#utility.yul\":1888:2239   */\n    tag_23:\n        /* \"#utility.yul\":1958:1964   */\n      0x00\n        /* \"#utility.yul\":2007:2009   */\n      0x20\n        /* \"#utility.yul\":1995:2004   */\n      dup3\n        /* \"#utility.yul\":1986:1993   */\n      dup5\n        /* \"#utility.yul\":1982:2005   */\n      sub\n        /* \"#utility.yul\":1978:2010   */\n      slt\n        /* \"#utility.yul\":1975:2094   */\n      iszero\n      tag_127\n      jumpi\n        /* \"#utility.yul\":2013:2092   */\n      tag_128\n      tag_78\n      jump\t// in\n    tag_128:\n        /* \"#utility.yul\":1975:2094   */\n    tag_127:\n        /* \"#utility.yul\":2133:2134   */\n      0x00\n        /* \"#utility.yul\":2158:2222   */\n      tag_129\n        /* \"#utility.yul\":2214:2221   */\n      dup5\n        /* \"#utility.yul\":2205:2211   */\n      dup3\n        /* \"#utility.yul\":2194:2203   */\n      dup6\n        /* \"#utility.yul\":2190:2212   */\n      add\n        /* \"#utility.yul\":2158:2222   */\n      tag_87\n      jump\t// in\n    tag_129:\n        /* \"#utility.yul\":2148:2222   */\n      swap2\n      pop\n        /* \"#utility.yul\":2104:2232   */\n      pop\n        /* \"#utility.yul\":1888:2239   */\n      swap3\n      swap2\n      pop\n      pop\n      jump\t// out\n        /* \"#utility.yul\":2245:2363   */\n    tag_88:\n        /* \"#utility.yul\":2332:2356   */\n      tag_131\n        /* \"#utility.yul\":2350:2355   */\n      dup2\n        /* \"#utility.yul\":2332:2356   */\n      tag_81\n      jump\t// in\n    tag_131:\n        /* \"#utility.yul\":2327:2330   */\n      dup3\n        /* \"#utility.yul\":2320:2357   */\n      mstore\n        /* \"#utility.yul\":2245:2363   */\n      pop\n      pop\n      jump\t// out\n        /* \"#utility.yul\":2369:2701   */\n    tag_33:\n        /* \"#utility.yul\":2490:2494   */\n      0x00\n        /* \"#utility.yul\":2528:2530   */\n      0x40\n        /* \"#utility.yul\":2517:2526   */\n      dup3\n        /* \"#utility.yul\":2513:2531   */\n      add\n        /* \"#utility.yul\":2505:2531   */\n      swap1\n      pop\n        /* \"#utility.yul\":2541:2612   */\n      tag_133\n        /* \"#utility.yul\":2609:2610   */\n      0x00\n        /* \"#utility.yul\":2598:2607   */\n      dup4\n        /* \"#utility.yul\":2594:2611   */\n      add\n        /* \"#utility.yul\":2585:2591   */\n      dup6\n        /* \"#utility.yul\":2541:2612   */\n      tag_88\n      jump\t// in\n    tag_133:\n        /* \"#utility.yul\":2622:2694   */\n      tag_134\n        /* \"#utility.yul\":2690:2692   */\n      0x20\n        /* \"#utility.yul\":2679:2688   */\n      dup4\n        /* \"#utility.yul\":2675:2693   */\n      add\n        /* \"#utility.yul\":2666:2672   */\n      dup5\n        /* \"#utility.yul\":2622:2694   */\n      tag_85\n      jump\t// in\n    tag_134:\n        /* \"#utility.yul\":2369:2701   */\n      swap4\n      swap3\n      pop\n      pop\n      pop\n      jump\t// out\n        /* \"#utility.yul\":2707:2797   */\n    tag_89:\n        /* \"#utility.yul\":2741:2748   */\n      0x00\n        /* \"#utility.yul\":2784:2789   */\n      dup2\n        /* \"#utility.yul\":2777:2790   */\n      iszero\n        /* \"#utility.yul\":2770:2791   */\n      iszero\n        /* \"#utility.yul\":2759:2791   */\n      swap1\n      pop\n        /* \"#utility.yul\":2707:2797   */\n      swap2\n      swap1\n      pop\n      jump\t// out\n        /* \"#utility.yul\":2803:2919   */\n    tag_90:\n        /* \"#utility.yul\":2873:2894   */\n      tag_137\n        /* \"#utility.yul\":2888:2893   */\n      dup2\n        /* \"#utility.yul\":2873:2894   */\n      tag_89\n      jump\t// in\n    tag_137:\n        /* \"#utility.yul\":2866:2871   */\n      dup2\n        /* \"#utility.yul\":2863:2895   */\n      eq\n        /* \"#utility.yul\":2853:2913   */\n      tag_138\n      jumpi\n        /* \"#utility.yul\":2909:2910   */\n      0x00\n        /* \"#utility.yul\":2906:2907   */\n      dup1\n        /* \"#utility.yul\":2899:2911   */\n      revert\n        /* \"#utility.yul\":2853:2913   */\n    tag_138:\n        /* \"#utility.yul\":2803:2919   */\n      pop\n      jump\t// out\n        /* \"#utility.yul\":2925:3062   */\n    tag_91:\n        /* \"#utility.yul\":2979:2984   */\n      0x00\n        /* \"#utility.yul\":3010:3016   */\n      dup2\n        /* \"#utility.yul\":3004:3017   */\n      mload\n        /* \"#utility.yul\":2995:3017   */\n      swap1\n      pop\n        /* \"#utility.yul\":3026:3056   */\n      tag_140\n        /* \"#utility.yul\":3050:3055   */\n      dup2\n        /* \"#utility.yul\":3026:3056   */\n      tag_90\n      jump\t// in\n    tag_140:\n        /* \"#utility.yul\":2925:3062   */\n      swap3\n      swap2\n      pop\n      pop\n      jump\t// out\n        /* \"#utility.yul\":3068:3413   */\n    tag_37:\n        /* \"#utility.yul\":3135:3141   */\n      0x00\n        /* \"#utility.yul\":3184:3186   */\n      0x20\n        /* \"#utility.yul\":3172:3181   */\n      dup3\n        /* \"#utility.yul\":3163:3170   */\n      dup5\n        /* \"#utility.yul\":3159:3182   */\n      sub\n        /* \"#utility.yul\":3155:3187   */\n      slt\n        /* \"#utility.yul\":3152:3271   */\n      iszero\n      tag_142\n      jumpi\n        /* \"#utility.yul\":3190:3269   */\n      tag_143\n      tag_78\n      jump\t// in\n    tag_143:\n        /* \"#utility.yul\":3152:3271   */\n    tag_142:\n        /* \"#utility.yul\":3310:3311   */\n      0x00\n        /* \"#utility.yul\":3335:3396   */\n      tag_144\n        /* \"#utility.yul\":3388:3395   */\n      dup5\n        /* \"#utility.yul\":3379:3385   */\n      dup3\n        /* \"#utility.yul\":3368:3377   */\n      dup6\n        /* \"#utility.yul\":3364:3386   */\n      add\n        /* \"#utility.yul\":3335:3396   */\n      tag_91\n      jump\t// in\n    tag_144:\n        /* \"#utility.yul\":3325:3396   */\n      swap2\n      pop\n        /* \"#utility.yul\":3281:3406   */\n      pop\n        /* \"#utility.yul\":3068:3413   */\n      swap3\n      swap2\n      pop\n      pop\n      jump\t// out\n        /* \"#utility.yul\":3419:3530   */\n    tag_92:\n        /* \"#utility.yul\":3490:3497   */\n      0x00\n        /* \"#utility.yul\":3519:3524   */\n      dup2\n        /* \"#utility.yul\":3508:3524   */\n      swap1\n      pop\n        /* \"#utility.yul\":3419:3530   */\n      swap2\n      swap1\n      pop\n      jump\t// out\n        /* \"#utility.yul\":3536:3596   */\n    tag_93:\n        /* \"#utility.yul\":3564:3567   */\n      0x00\n        /* \"#utility.yul\":3585:3590   */\n      dup2\n        /* \"#utility.yul\":3578:3590   */\n      swap1\n      pop\n        /* \"#utility.yul\":3536:3596   */\n      swap2\n      swap1\n      pop\n      jump\t// out\n        /* \"#utility.yul\":3602:3812   */\n    tag_94:\n        /* \"#utility.yul\":3686:3695   */\n      0x00\n        /* \"#utility.yul\":3719:3806   */\n      tag_148\n        /* \"#utility.yul\":3737:3805   */\n      tag_149\n        /* \"#utility.yul\":3746:3804   */\n      tag_150\n        /* \"#utility.yul\":3798:3803   */\n      dup5\n        /* \"#utility.yul\":3746:3804   */\n      tag_92\n      jump\t// in\n    tag_150:\n        /* \"#utility.yul\":3737:3805   */\n      tag_93\n      jump\t// in\n    tag_149:\n        /* \"#utility.yul\":3719:3806   */\n      tag_84\n      jump\t// in\n    tag_148:\n        /* \"#utility.yul\":3706:3806   */\n      swap1\n      pop\n        /* \"#utility.yul\":3602:3812   */\n      swap2\n      swap1\n      pop\n      jump\t// out\n        /* \"#utility.yul\":3818:4017   */\n    tag_95:\n        /* \"#utility.yul\":3939:4010   */\n      tag_152\n        /* \"#utility.yul\":4004:4009   */\n      dup2\n        /* \"#utility.yul\":3939:4010   */\n      tag_94\n      jump\t// in\n    tag_152:\n        /* \"#utility.yul\":3934:3937   */\n      dup3\n        /* \"#utility.yul\":3927:4011   */\n      mstore\n        /* \"#utility.yul\":3818:4017   */\n      pop\n      pop\n      jump\t// out\n        /* \"#utility.yul\":4023:4423   */\n    tag_44:\n        /* \"#utility.yul\":4178:4182   */\n      0x00\n        /* \"#utility.yul\":4216:4218   */\n      0x40\n        /* \"#utility.yul\":4205:4214   */\n      dup3\n        /* \"#utility.yul\":4201:4219   */\n      add\n        /* \"#utility.yul\":4193:4219   */\n      swap1\n      pop\n        /* \"#utility.yul\":4229:4300   */\n      tag_154\n        /* \"#utility.yul\":4297:4298   */\n      0x00\n        /* \"#utility.yul\":4286:4295   */\n      dup4\n        /* \"#utility.yul\":4282:4299   */\n      add\n        /* \"#utility.yul\":4273:4279   */\n      dup6\n        /* \"#utility.yul\":4229:4300   */\n      tag_88\n      jump\t// in\n    tag_154:\n        /* \"#utility.yul\":4310:4416   */\n      tag_155\n        /* \"#utility.yul\":4412:4414   */\n      0x20\n        /* \"#utility.yul\":4401:4410   */\n      dup4\n        /* \"#utility.yul\":4397:4415   */\n      add\n        /* \"#utility.yul\":4388:4394   */\n      dup5\n        /* \"#utility.yul\":4310:4416   */\n      tag_95\n      jump\t// in\n    tag_155:\n        /* \"#utility.yul\":4023:4423   */\n      swap4\n      swap3\n      pop\n      pop\n      pop\n      jump\t// out\n        /* \"#utility.yul\":4429:4533   */\n    tag_96:\n        /* \"#utility.yul\":4474:4481   */\n      0x00\n        /* \"#utility.yul\":4503:4527   */\n      tag_157\n        /* \"#utility.yul\":4521:4526   */\n      dup3\n        /* \"#utility.yul\":4503:4527   */\n      tag_80\n      jump\t// in\n    tag_157:\n        /* \"#utility.yul\":4492:4527   */\n      swap1\n      pop\n        /* \"#utility.yul\":4429:4533   */\n      swap2\n      swap1\n      pop\n      jump\t// out\n        /* \"#utility.yul\":4539:4681   */\n    tag_97:\n        /* \"#utility.yul\":4642:4674   */\n      tag_159\n        /* \"#utility.yul\":4668:4673   */\n      dup2\n        /* \"#utility.yul\":4642:4674   */\n      tag_96\n      jump\t// in\n    tag_159:\n        /* \"#utility.yul\":4637:4640   */\n      dup3\n        /* \"#utility.yul\":4630:4675   */\n      mstore\n        /* \"#utility.yul\":4539:4681   */\n      pop\n      pop\n      jump\t// out\n        /* \"#utility.yul\":4687:5051   */\n    tag_51:\n        /* \"#utility.yul\":4824:4828   */\n      0x00\n        /* \"#utility.yul\":4862:4864   */\n      0x40\n        /* \"#utility.yul\":4851:4860   */\n      dup3\n        /* \"#utility.yul\":4847:4865   */\n      add\n        /* \"#utility.yul\":4839:4865   */\n      swap1\n      pop\n        /* \"#utility.yul\":4875:4962   */\n      tag_161\n        /* \"#utility.yul\":4959:4960   */\n      0x00\n        /* \"#utility.yul\":4948:4957   */\n      dup4\n        /* \"#utility.yul\":4944:4961   */\n      add\n        /* \"#utility.yul\":4935:4941   */\n      dup6\n        /* \"#utility.yul\":4875:4962   */\n      tag_97\n      jump\t// in\n    tag_161:\n        /* \"#utility.yul\":4972:5044   */\n      tag_162\n        /* \"#utility.yul\":5040:5042   */\n      0x20\n        /* \"#utility.yul\":5029:5038   */\n      dup4\n        /* \"#utility.yul\":5025:5043   */\n      add\n        /* \"#utility.yul\":5016:5022   */\n      dup5\n        /* \"#utility.yul\":4972:5044   */\n      tag_85\n      jump\t// in\n    tag_162:\n        /* \"#utility.yul\":4687:5051   */\n      swap4\n      swap3\n      pop\n      pop\n      pop\n      jump\t// out\n        /* \"#utility.yul\":5057:5279   */\n    tag_59:\n        /* \"#utility.yul\":5150:5154   */\n      0x00\n        /* \"#utility.yul\":5188:5190   */\n      0x20\n        /* \"#utility.yul\":5177:5186   */\n      dup3\n        /* \"#utility.yul\":5173:5191   */\n      add\n        /* \"#utility.yul\":5165:5191   */\n      swap1\n      pop\n        /* \"#utility.yul\":5201:5272   */\n      tag_164\n        /* \"#utility.yul\":5269:5270   */\n      0x00\n        /* \"#utility.yul\":5258:5267   */\n      dup4\n        /* \"#utility.yul\":5254:5271   */\n      add\n        /* \"#utility.yul\":5245:5251   */\n      dup5\n        /* \"#utility.yul\":5201:5272   */\n      tag_88\n      jump\t// in\n    tag_164:\n        /* \"#utility.yul\":5057:5279   */\n      swap3\n      swap2\n      pop\n      pop\n      jump\t// out\n        /* \"#utility.yul\":5285:5465   */\n    tag_98:\n        /* \"#utility.yul\":5333:5410   */\n      0x4e487b7100000000000000000000000000000000000000000000000000000000\n        /* \"#utility.yul\":5330:5331   */\n      0x00\n        /* \"#utility.yul\":5323:5411   */\n      mstore\n        /* \"#utility.yul\":5430:5434   */\n      0x11\n        /* \"#utility.yul\":5427:5428   */\n      0x04\n        /* \"#utility.yul\":5420:5435   */\n      mstore\n        /* \"#utility.yul\":5454:5458   */\n      0x24\n        /* \"#utility.yul\":5451:5452   */\n      0x00\n        /* \"#utility.yul\":5444:5459   */\n      revert\n        /* \"#utility.yul\":5471:5881   */\n    tag_67:\n        /* \"#utility.yul\":5511:5518   */\n      0x00\n        /* \"#utility.yul\":5534:5554   */\n      tag_167\n        /* \"#utility.yul\":5552:5553   */\n      dup3\n        /* \"#utility.yul\":5534:5554   */\n      tag_84\n      jump\t// in\n    tag_167:\n        /* \"#utility.yul\":5529:5554   */\n      swap2\n      pop\n        /* \"#utility.yul\":5568:5588   */\n      tag_168\n        /* \"#utility.yul\":5586:5587   */\n      dup4\n        /* \"#utility.yul\":5568:5588   */\n      tag_84\n      jump\t// in\n    tag_168:\n        /* \"#utility.yul\":5563:5588   */\n      swap3\n      pop\n        /* \"#utility.yul\":5623:5624   */\n      dup3\n        /* \"#utility.yul\":5620:5621   */\n      dup3\n        /* \"#utility.yul\":5616:5625   */\n      mul\n        /* \"#utility.yul\":5645:5675   */\n      tag_169\n        /* \"#utility.yul\":5663:5674   */\n      dup2\n        /* \"#utility.yul\":5645:5675   */\n      tag_84\n      jump\t// in\n    tag_169:\n        /* \"#utility.yul\":5634:5675   */\n      swap2\n      pop\n        /* \"#utility.yul\":5824:5825   */\n      dup3\n        /* \"#utility.yul\":5815:5822   */\n      dup3\n        /* \"#utility.yul\":5811:5826   */\n      div\n        /* \"#utility.yul\":5808:5809   */\n      dup5\n        /* \"#utility.yul\":5805:5827   */\n      eq\n        /* \"#utility.yul\":5785:5786   */\n      dup4\n        /* \"#utility.yul\":5778:5787   */\n      iszero\n        /* \"#utility.yul\":5758:5841   */\n      or\n        /* \"#utility.yul\":5735:5874   */\n      tag_170\n      jumpi\n        /* \"#utility.yul\":5854:5872   */\n      tag_171\n      tag_98\n      jump\t// in\n    tag_171:\n        /* \"#utility.yul\":5735:5874   */\n    tag_170:\n        /* \"#utility.yul\":5519:5881   */\n      pop\n        /* \"#utility.yul\":5471:5881   */\n      swap3\n      swap2\n      pop\n      pop\n      jump\t// out\n        /* \"#utility.yul\":5887:6067   */\n    tag_99:\n        /* \"#utility.yul\":5935:6012   */\n      0x4e487b7100000000000000000000000000000000000000000000000000000000\n        /* \"#utility.yul\":5932:5933   */\n      0x00\n        /* \"#utility.yul\":5925:6013   */\n      mstore\n        /* \"#utility.yul\":6032:6036   */\n      0x12\n        /* \"#utility.yul\":6029:6030   */\n      0x04\n        /* \"#utility.yul\":6022:6037   */\n      mstore\n        /* \"#utility.yul\":6056:6060   */\n      0x24\n        /* \"#utility.yul\":6053:6054   */\n      0x00\n        /* \"#utility.yul\":6046:6061   */\n      revert\n        /* \"#utility.yul\":6073:6258   */\n    tag_70:\n        /* \"#utility.yul\":6113:6114   */\n      0x00\n        /* \"#utility.yul\":6130:6150   */\n      tag_174\n        /* \"#utility.yul\":6148:6149   */\n      dup3\n        /* \"#utility.yul\":6130:6150   */\n      tag_84\n      jump\t// in\n    tag_174:\n        /* \"#utility.yul\":6125:6150   */\n      swap2\n      pop\n        /* \"#utility.yul\":6164:6184   */\n      tag_175\n        /* \"#utility.yul\":6182:6183   */\n      dup4\n        /* \"#utility.yul\":6164:6184   */\n      tag_84\n      jump\t// in\n    tag_175:\n        /* \"#utility.yul\":6159:6184   */\n      swap3\n      pop\n        /* \"#utility.yul\":6203:6204   */\n      dup3\n        /* \"#utility.yul\":6193:6228   */\n      tag_176\n      jumpi\n        /* \"#utility.yul\":6208:6226   */\n      tag_177\n      tag_99\n      jump\t// in\n    tag_177:\n        /* \"#utility.yul\":6193:6228   */\n    tag_176:\n        /* \"#utility.yul\":6250:6251   */\n      dup3\n        /* \"#utility.yul\":6247:6248   */\n      dup3\n        /* \"#utility.yul\":6243:6252   */\n      div\n        /* \"#utility.yul\":6238:6252   */\n      swap1\n      pop\n        /* \"#utility.yul\":6073:6258   */\n      swap3\n      swap2\n      pop\n      pop\n      jump\t// out\n        /* \"#utility.yul\":6264:6455   */\n    tag_73:\n        /* \"#utility.yul\":6304:6307   */\n      0x00\n        /* \"#utility.yul\":6323:6343   */\n      tag_179\n        /* \"#utility.yul\":6341:6342   */\n      dup3\n        /* \"#utility.yul\":6323:6343   */\n      tag_84\n      jump\t// in\n    tag_179:\n        /* \"#utility.yul\":6318:6343   */\n      swap2\n      pop\n        /* \"#utility.yul\":6357:6377   */\n      tag_180\n        /* \"#utility.yul\":6375:6376   */\n      dup4\n        /* \"#utility.yul\":6357:6377   */\n      tag_84\n      jump\t// in\n    tag_180:\n        /* \"#utility.yul\":6352:6377   */\n      swap3\n      pop\n        /* \"#utility.yul\":6400:6401   */\n      dup3\n        /* \"#utility.yul\":6397:6398   */\n      dup3\n        /* \"#utility.yul\":6393:6402   */\n      add\n        /* \"#utility.yul\":6386:6402   */\n      swap1\n      pop\n        /* \"#utility.yul\":6421:6424   */\n      dup1\n        /* \"#utility.yul\":6418:6419   */\n      dup3\n        /* \"#utility.yul\":6415:6425   */\n      gt\n        /* \"#utility.yul\":6412:6448   */\n      iszero\n      tag_181\n      jumpi\n        /* \"#utility.yul\":6428:6446   */\n      tag_182\n      tag_98\n      jump\t// in\n    tag_182:\n        /* \"#utility.yul\":6412:6448   */\n    tag_181:\n        /* \"#utility.yul\":6264:6455   */\n      swap3\n      swap2\n      pop\n      pop\n      jump\t// out\n        /* \"#utility.yul\":6461:6655   */\n    tag_76:\n        /* \"#utility.yul\":6501:6505   */\n      0x00\n        /* \"#utility.yul\":6521:6541   */\n      tag_184\n        /* \"#utility.yul\":6539:6540   */\n      dup3\n        /* \"#utility.yul\":6521:6541   */\n      tag_84\n      jump\t// in\n    tag_184:\n        /* \"#utility.yul\":6516:6541   */\n      swap2\n      pop\n        /* \"#utility.yul\":6555:6575   */\n      tag_185\n        /* \"#utility.yul\":6573:6574   */\n      dup4\n        /* \"#utility.yul\":6555:6575   */\n      tag_84\n      jump\t// in\n    tag_185:\n        /* \"#utility.yul\":6550:6575   */\n      swap3\n      pop\n        /* \"#utility.yul\":6599:6600   */\n      dup3\n        /* \"#utility.yul\":6596:6597   */\n      dup3\n        /* \"#utility.yul\":6592:6601   */\n      sub\n        /* \"#utility.yul\":6584:6601   */\n      swap1\n      pop\n        /* \"#utility.yul\":6623:6624   */\n      dup2\n        /* \"#utility.yul\":6617:6621   */\n      dup2\n        /* \"#utility.yul\":6614:6625   */\n      gt\n        /* \"#utility.yul\":6611:6648   */\n      iszero\n      tag_186\n      jumpi\n        /* \"#utility.yul\":6628:6646   */\n      tag_187\n      tag_98\n      jump\t// in\n    tag_187:\n        /* \"#utility.yul\":6611:6648   */\n    tag_186:\n        /* \"#utility.yul\":6461:6655   */\n      swap3\n      swap2\n      pop\n      pop\n      jump\t// out\n\n    auxdata: 0xa26469706673582212201f7199f7f4659064ebda0364a2668fbd13beaed59d26f608d36282eefbabe14664736f6c63430008110033\n}\n",
				"bytecode": {
					"linkReferences": {},
					"object": "608060405273a11fb3cfb4ee968312a551f3d9daf5b0dcdf93076000806101000a81548173ffffffffffffffffffffffffffffffffffffffff021916908373ffffffffffffffffffffffffffffffffffffffff160217905550734320d4a0a469a93c916d2ba1351cb403e0d1a7c7600160006101000a81548173ffffffffffffffffffffffffffffffffffffffff021916908373ffffffffffffffffffffffffffffffffffffffff16021790555073db696d671a95b47c682111590f8f6a1316678797600260006101000a81548173ffffffffffffffffffffffffffffffffffffffff021916908373ffffffffffffffffffffffffffffffffffffffff16021790555034801561010e57600080fd5b5060405162000d4338038062000d438339818101604052810190610132919061026a565b671bc16d674ec8000060068190555033600360006101000a81548173ffffffffffffffffffffffffffffffffffffffff021916908373ffffffffffffffffffffffffffffffffffffffff16021790555081600460006101000a81548173ffffffffffffffffffffffffffffffffffffffff021916908373ffffffffffffffffffffffffffffffffffffffff1602179055508060058190555050506102aa565b600080fd5b600073ffffffffffffffffffffffffffffffffffffffff82169050919050565b6000610201826101d6565b9050919050565b610211816101f6565b811461021c57600080fd5b50565b60008151905061022e81610208565b92915050565b6000819050919050565b61024781610234565b811461025257600080fd5b50565b6000815190506102648161023e565b92915050565b60008060408385031215610281576102806101d1565b5b600061028f8582860161021f565b92505060206102a085828601610255565b9150509250929050565b610a8980620002ba6000396000f3fe608060405234801561001057600080fd5b506004361061004c5760003560e01c806333a22571146100515780638bed4778146100815780639acc1b731461008b578063b3a2630714610095575b600080fd5b61006b600480360381019061006691906106f0565b61009f565b6040516100789190610736565b60405180910390f35b610089610176565b005b6100936102ca565b005b61009d6103f4565b005b60008060008054906101000a900473ffffffffffffffffffffffffffffffffffffffff1673ffffffffffffffffffffffffffffffffffffffff1663d5abeb016040518163ffffffff1660e01b8152600401602060405180830381865afa15801561010d573d6000803e3d6000fd5b505050506040513d601f19601f82011682018060405250810190610131919061077d565b9050600061013e84610536565b905060006101698361015b6006548561063590919063ffffffff16565b61064b90919063ffffffff16565b9050809350505050919050565b60006101813361009f565b9050600160009054906101000a900473ffffffffffffffffffffffffffffffffffffffff1673ffffffffffffffffffffffffffffffffffffffff1663a9059cbb33836040518363ffffffff1660e01b81526004016101e09291906107b9565b6020604051808303816000875af11580156101ff573d6000803e3d6000fd5b505050506040513d601f19601f82011682018060405250810190610223919061081a565b50600061022f33610536565b905061028381600760003373ffffffffffffffffffffffffffffffffffffffff1673ffffffffffffffffffffffffffffffffffffffff1681526020019081526020016000205461066190919063ffffffff16565b600760003373ffffffffffffffffffffffffffffffffffffffff1673ffffffffffffffffffffffffffffffffffffffff168152602001908152602001600020819055505050565b600360009054906101000a900473ffffffffffffffffffffffffffffffffffffffff1673ffffffffffffffffffffffffffffffffffffffff163373ffffffffffffffffffffffffffffffffffffffff161461032457600080fd5b600160009054906101000a900473ffffffffffffffffffffffffffffffffffffffff1673ffffffffffffffffffffffffffffffffffffffff1663095ea7b3600460009054906101000a900473ffffffffffffffffffffffffffffffffffffffff166a52b7d2dcc80cd2e40000006040518363ffffffff1660e01b81526004016103ae92919061088c565b6020604051808303816000875af11580156103cd573d6000803e3d6000fd5b505050506040513d601f19601f820116820180604052508101906103f1919061081a565b50565b60006103ff3361009f565b9050600260009054906101000a900473ffffffffffffffffffffffffffffffffffffffff1673ffffffffffffffffffffffffffffffffffffffff166394756aa733836040518363ffffffff1660e01b815260040161045e9291906108d6565b600060405180830381600087803b15801561047857600080fd5b505af115801561048c573d6000803e3d6000fd5b50505050600061049b33610536565b90506104ef81600760003373ffffffffffffffffffffffffffffffffffffffff1673ffffffffffffffffffffffffffffffffffffffff1681526020019081526020016000205461066190919063ffffffff16565b600760003373ffffffffffffffffffffffffffffffffffffffff1673ffffffffffffffffffffffffffffffffffffffff168152602001908152602001600020819055505050565b60008060008054906101000a900473ffffffffffffffffffffffffffffffffffffffff1673ffffffffffffffffffffffffffffffffffffffff1663325b272a846040518263ffffffff1660e01b815260040161059291906108ff565b602060405180830381865afa1580156105af573d6000803e3d6000fd5b505050506040513d601f19601f820116820180604052508101906105d3919061077d565b90506000610629600760008673ffffffffffffffffffffffffffffffffffffffff1673ffffffffffffffffffffffffffffffffffffffff168152602001908152602001600020548361067790919063ffffffff16565b90508092505050919050565b600081836106439190610949565b905092915050565b6000818361065991906109ba565b905092915050565b6000818361066f91906109eb565b905092915050565b600081836106859190610a1f565b905092915050565b600080fd5b600073ffffffffffffffffffffffffffffffffffffffff82169050919050565b60006106bd82610692565b9050919050565b6106cd816106b2565b81146106d857600080fd5b50565b6000813590506106ea816106c4565b92915050565b6000602082840312156107065761070561068d565b5b6000610714848285016106db565b91505092915050565b6000819050919050565b6107308161071d565b82525050565b600060208201905061074b6000830184610727565b92915050565b61075a8161071d565b811461076557600080fd5b50565b60008151905061077781610751565b92915050565b6000602082840312156107935761079261068d565b5b60006107a184828501610768565b91505092915050565b6107b3816106b2565b82525050565b60006040820190506107ce60008301856107aa565b6107db6020830184610727565b9392505050565b60008115159050919050565b6107f7816107e2565b811461080257600080fd5b50565b600081519050610814816107ee565b92915050565b6000602082840312156108305761082f61068d565b5b600061083e84828501610805565b91505092915050565b6000819050919050565b6000819050919050565b600061087661087161086c84610847565b610851565b61071d565b9050919050565b6108868161085b565b82525050565b60006040820190506108a160008301856107aa565b6108ae602083018461087d565b9392505050565b60006108c082610692565b9050919050565b6108d0816108b5565b82525050565b60006040820190506108eb60008301856108c7565b6108f86020830184610727565b9392505050565b600060208201905061091460008301846107aa565b92915050565b7f4e487b7100000000000000000000000000000000000000000000000000000000600052601160045260246000fd5b60006109548261071d565b915061095f8361071d565b925082820261096d8161071d565b915082820484148315176109845761098361091a565b5b5092915050565b7f4e487b7100000000000000000000000000000000000000000000000000000000600052601260045260246000fd5b60006109c58261071d565b91506109d08361071d565b9250826109e0576109df61098b565b5b828204905092915050565b60006109f68261071d565b9150610a018361071d565b9250828201905080821115610a1957610a1861091a565b5b92915050565b6000610a2a8261071d565b9150610a358361071d565b9250828203905081811115610a4d57610a4c61091a565b5b9291505056fea26469706673582212201f7199f7f4659064ebda0364a2668fbd13beaed59d26f608d36282eefbabe14664736f6c63430008110033",
					"opcodes": "PUSH1 0x80 PUSH1 0x40 MSTORE PUSH20 0xA11FB3CFB4EE968312A551F3D9DAF5B0DCDF9307 PUSH1 0x0 DUP1 PUSH2 0x100 EXP DUP2 SLOAD DUP2 PUSH20 0xFFFFFFFFFFFFFFFFFFFFFFFFFFFFFFFFFFFFFFFF MUL NOT AND SWAP1 DUP4 PUSH20 0xFFFFFFFFFFFFFFFFFFFFFFFFFFFFFFFFFFFFFFFF AND MUL OR SWAP1 SSTORE POP PUSH20 0x4320D4A0A469A93C916D2BA1351CB403E0D1A7C7 PUSH1 0x1 PUSH1 0x0 PUSH2 0x100 EXP DUP2 SLOAD DUP2 PUSH20 0xFFFFFFFFFFFFFFFFFFFFFFFFFFFFFFFFFFFFFFFF MUL NOT AND SWAP1 DUP4 PUSH20 0xFFFFFFFFFFFFFFFFFFFFFFFFFFFFFFFFFFFFFFFF AND MUL OR SWAP1 SSTORE POP PUSH20 0xDB696D671A95B47C682111590F8F6A1316678797 PUSH1 0x2 PUSH1 0x0 PUSH2 0x100 EXP DUP2 SLOAD DUP2 PUSH20 0xFFFFFFFFFFFFFFFFFFFFFFFFFFFFFFFFFFFFFFFF MUL NOT AND SWAP1 DUP4 PUSH20 0xFFFFFFFFFFFFFFFFFFFFFFFFFFFFFFFFFFFFFFFF AND MUL OR SWAP1 SSTORE POP CALLVALUE DUP1 ISZERO PUSH2 0x10E JUMPI PUSH1 0x0 DUP1 REVERT JUMPDEST POP PUSH1 0x40 MLOAD PUSH3 0xD43 CODESIZE SUB DUP1 PUSH3 0xD43 DUP4 CODECOPY DUP2 DUP2 ADD PUSH1 0x40 MSTORE DUP2 ADD SWAP1 PUSH2 0x132 SWAP2 SWAP1 PUSH2 0x26A JUMP JUMPDEST PUSH8 0x1BC16D674EC80000 PUSH1 0x6 DUP2 SWAP1 SSTORE POP CALLER PUSH1 0x3 PUSH1 0x0 PUSH2 0x100 EXP DUP2 SLOAD DUP2 PUSH20 0xFFFFFFFFFFFFFFFFFFFFFFFFFFFFFFFFFFFFFFFF MUL NOT AND SWAP1 DUP4 PUSH20 0xFFFFFFFFFFFFFFFFFFFFFFFFFFFFFFFFFFFFFFFF AND MUL OR SWAP1 SSTORE POP DUP2 PUSH1 0x4 PUSH1 0x0 PUSH2 0x100 EXP DUP2 SLOAD DUP2 PUSH20 0xFFFFFFFFFFFFFFFFFFFFFFFFFFFFFFFFFFFFFFFF MUL NOT AND SWAP1 DUP4 PUSH20 0xFFFFFFFFFFFFFFFFFFFFFFFFFFFFFFFFFFFFFFFF AND MUL OR SWAP1 SSTORE POP DUP1 PUSH1 0x5 DUP2 SWAP1 SSTORE POP POP POP PUSH2 0x2AA JUMP JUMPDEST PUSH1 0x0 DUP1 REVERT JUMPDEST PUSH1 0x0 PUSH20 0xFFFFFFFFFFFFFFFFFFFFFFFFFFFFFFFFFFFFFFFF DUP3 AND SWAP1 POP SWAP2 SWAP1 POP JUMP JUMPDEST PUSH1 0x0 PUSH2 0x201 DUP3 PUSH2 0x1D6 JUMP JUMPDEST SWAP1 POP SWAP2 SWAP1 POP JUMP JUMPDEST PUSH2 0x211 DUP2 PUSH2 0x1F6 JUMP JUMPDEST DUP2 EQ PUSH2 0x21C JUMPI PUSH1 0x0 DUP1 REVERT JUMPDEST POP JUMP JUMPDEST PUSH1 0x0 DUP2 MLOAD SWAP1 POP PUSH2 0x22E DUP2 PUSH2 0x208 JUMP JUMPDEST SWAP3 SWAP2 POP POP JUMP JUMPDEST PUSH1 0x0 DUP2 SWAP1 POP SWAP2 SWAP1 POP JUMP JUMPDEST PUSH2 0x247 DUP2 PUSH2 0x234 JUMP JUMPDEST DUP2 EQ PUSH2 0x252 JUMPI PUSH1 0x0 DUP1 REVERT JUMPDEST POP JUMP JUMPDEST PUSH1 0x0 DUP2 MLOAD SWAP1 POP PUSH2 0x264 DUP2 PUSH2 0x23E JUMP JUMPDEST SWAP3 SWAP2 POP POP JUMP JUMPDEST PUSH1 0x0 DUP1 PUSH1 0x40 DUP4 DUP6 SUB SLT ISZERO PUSH2 0x281 JUMPI PUSH2 0x280 PUSH2 0x1D1 JUMP JUMPDEST JUMPDEST PUSH1 0x0 PUSH2 0x28F DUP6 DUP3 DUP7 ADD PUSH2 0x21F JUMP JUMPDEST SWAP3 POP POP PUSH1 0x20 PUSH2 0x2A0 DUP6 DUP3 DUP7 ADD PUSH2 0x255 JUMP JUMPDEST SWAP2 POP POP SWAP3 POP SWAP3 SWAP1 POP JUMP JUMPDEST PUSH2 0xA89 DUP1 PUSH3 0x2BA PUSH1 0x0 CODECOPY PUSH1 0x0 RETURN INVALID PUSH1 0x80 PUSH1 0x40 MSTORE CALLVALUE DUP1 ISZERO PUSH2 0x10 JUMPI PUSH1 0x0 DUP1 REVERT JUMPDEST POP PUSH1 0x4 CALLDATASIZE LT PUSH2 0x4C JUMPI PUSH1 0x0 CALLDATALOAD PUSH1 0xE0 SHR DUP1 PUSH4 0x33A22571 EQ PUSH2 0x51 JUMPI DUP1 PUSH4 0x8BED4778 EQ PUSH2 0x81 JUMPI DUP1 PUSH4 0x9ACC1B73 EQ PUSH2 0x8B JUMPI DUP1 PUSH4 0xB3A26307 EQ PUSH2 0x95 JUMPI JUMPDEST PUSH1 0x0 DUP1 REVERT JUMPDEST PUSH2 0x6B PUSH1 0x4 DUP1 CALLDATASIZE SUB DUP2 ADD SWAP1 PUSH2 0x66 SWAP2 SWAP1 PUSH2 0x6F0 JUMP JUMPDEST PUSH2 0x9F JUMP JUMPDEST PUSH1 0x40 MLOAD PUSH2 0x78 SWAP2 SWAP1 PUSH2 0x736 JUMP JUMPDEST PUSH1 0x40 MLOAD DUP1 SWAP2 SUB SWAP1 RETURN JUMPDEST PUSH2 0x89 PUSH2 0x176 JUMP JUMPDEST STOP JUMPDEST PUSH2 0x93 PUSH2 0x2CA JUMP JUMPDEST STOP JUMPDEST PUSH2 0x9D PUSH2 0x3F4 JUMP JUMPDEST STOP JUMPDEST PUSH1 0x0 DUP1 PUSH1 0x0 DUP1 SLOAD SWAP1 PUSH2 0x100 EXP SWAP1 DIV PUSH20 0xFFFFFFFFFFFFFFFFFFFFFFFFFFFFFFFFFFFFFFFF AND PUSH20 0xFFFFFFFFFFFFFFFFFFFFFFFFFFFFFFFFFFFFFFFF AND PUSH4 0xD5ABEB01 PUSH1 0x40 MLOAD DUP2 PUSH4 0xFFFFFFFF AND PUSH1 0xE0 SHL DUP2 MSTORE PUSH1 0x4 ADD PUSH1 0x20 PUSH1 0x40 MLOAD DUP1 DUP4 SUB DUP2 DUP7 GAS STATICCALL ISZERO DUP1 ISZERO PUSH2 0x10D JUMPI RETURNDATASIZE PUSH1 0x0 DUP1 RETURNDATACOPY RETURNDATASIZE PUSH1 0x0 REVERT JUMPDEST POP POP POP POP PUSH1 0x40 MLOAD RETURNDATASIZE PUSH1 0x1F NOT PUSH1 0x1F DUP3 ADD AND DUP3 ADD DUP1 PUSH1 0x40 MSTORE POP DUP2 ADD SWAP1 PUSH2 0x131 SWAP2 SWAP1 PUSH2 0x77D JUMP JUMPDEST SWAP1 POP PUSH1 0x0 PUSH2 0x13E DUP5 PUSH2 0x536 JUMP JUMPDEST SWAP1 POP PUSH1 0x0 PUSH2 0x169 DUP4 PUSH2 0x15B PUSH1 0x6 SLOAD DUP6 PUSH2 0x635 SWAP1 SWAP2 SWAP1 PUSH4 0xFFFFFFFF AND JUMP JUMPDEST PUSH2 0x64B SWAP1 SWAP2 SWAP1 PUSH4 0xFFFFFFFF AND JUMP JUMPDEST SWAP1 POP DUP1 SWAP4 POP POP POP POP SWAP2 SWAP1 POP JUMP JUMPDEST PUSH1 0x0 PUSH2 0x181 CALLER PUSH2 0x9F JUMP JUMPDEST SWAP1 POP PUSH1 0x1 PUSH1 0x0 SWAP1 SLOAD SWAP1 PUSH2 0x100 EXP SWAP1 DIV PUSH20 0xFFFFFFFFFFFFFFFFFFFFFFFFFFFFFFFFFFFFFFFF AND PUSH20 0xFFFFFFFFFFFFFFFFFFFFFFFFFFFFFFFFFFFFFFFF AND PUSH4 0xA9059CBB CALLER DUP4 PUSH1 0x40 MLOAD DUP4 PUSH4 0xFFFFFFFF AND PUSH1 0xE0 SHL DUP2 MSTORE PUSH1 0x4 ADD PUSH2 0x1E0 SWAP3 SWAP2 SWAP1 PUSH2 0x7B9 JUMP JUMPDEST PUSH1 0x20 PUSH1 0x40 MLOAD DUP1 DUP4 SUB DUP2 PUSH1 0x0 DUP8 GAS CALL ISZERO DUP1 ISZERO PUSH2 0x1FF JUMPI RETURNDATASIZE PUSH1 0x0 DUP1 RETURNDATACOPY RETURNDATASIZE PUSH1 0x0 REVERT JUMPDEST POP POP POP POP PUSH1 0x40 MLOAD RETURNDATASIZE PUSH1 0x1F NOT PUSH1 0x1F DUP3 ADD AND DUP3 ADD DUP1 PUSH1 0x40 MSTORE POP DUP2 ADD SWAP1 PUSH2 0x223 SWAP2 SWAP1 PUSH2 0x81A JUMP JUMPDEST POP PUSH1 0x0 PUSH2 0x22F CALLER PUSH2 0x536 JUMP JUMPDEST SWAP1 POP PUSH2 0x283 DUP2 PUSH1 0x7 PUSH1 0x0 CALLER PUSH20 0xFFFFFFFFFFFFFFFFFFFFFFFFFFFFFFFFFFFFFFFF AND PUSH20 0xFFFFFFFFFFFFFFFFFFFFFFFFFFFFFFFFFFFFFFFF AND DUP2 MSTORE PUSH1 0x20 ADD SWAP1 DUP2 MSTORE PUSH1 0x20 ADD PUSH1 0x0 KECCAK256 SLOAD PUSH2 0x661 SWAP1 SWAP2 SWAP1 PUSH4 0xFFFFFFFF AND JUMP JUMPDEST PUSH1 0x7 PUSH1 0x0 CALLER PUSH20 0xFFFFFFFFFFFFFFFFFFFFFFFFFFFFFFFFFFFFFFFF AND PUSH20 0xFFFFFFFFFFFFFFFFFFFFFFFFFFFFFFFFFFFFFFFF AND DUP2 MSTORE PUSH1 0x20 ADD SWAP1 DUP2 MSTORE PUSH1 0x20 ADD PUSH1 0x0 KECCAK256 DUP2 SWAP1 SSTORE POP POP POP JUMP JUMPDEST PUSH1 0x3 PUSH1 0x0 SWAP1 SLOAD SWAP1 PUSH2 0x100 EXP SWAP1 DIV PUSH20 0xFFFFFFFFFFFFFFFFFFFFFFFFFFFFFFFFFFFFFFFF AND PUSH20 0xFFFFFFFFFFFFFFFFFFFFFFFFFFFFFFFFFFFFFFFF AND CALLER PUSH20 0xFFFFFFFFFFFFFFFFFFFFFFFFFFFFFFFFFFFFFFFF AND EQ PUSH2 0x324 JUMPI PUSH1 0x0 DUP1 REVERT JUMPDEST PUSH1 0x1 PUSH1 0x0 SWAP1 SLOAD SWAP1 PUSH2 0x100 EXP SWAP1 DIV PUSH20 0xFFFFFFFFFFFFFFFFFFFFFFFFFFFFFFFFFFFFFFFF AND PUSH20 0xFFFFFFFFFFFFFFFFFFFFFFFFFFFFFFFFFFFFFFFF AND PUSH4 0x95EA7B3 PUSH1 0x4 PUSH1 0x0 SWAP1 SLOAD SWAP1 PUSH2 0x100 EXP SWAP1 DIV PUSH20 0xFFFFFFFFFFFFFFFFFFFFFFFFFFFFFFFFFFFFFFFF AND PUSH11 0x52B7D2DCC80CD2E4000000 PUSH1 0x40 MLOAD DUP4 PUSH4 0xFFFFFFFF AND PUSH1 0xE0 SHL DUP2 MSTORE PUSH1 0x4 ADD PUSH2 0x3AE SWAP3 SWAP2 SWAP1 PUSH2 0x88C JUMP JUMPDEST PUSH1 0x20 PUSH1 0x40 MLOAD DUP1 DUP4 SUB DUP2 PUSH1 0x0 DUP8 GAS CALL ISZERO DUP1 ISZERO PUSH2 0x3CD JUMPI RETURNDATASIZE PUSH1 0x0 DUP1 RETURNDATACOPY RETURNDATASIZE PUSH1 0x0 REVERT JUMPDEST POP POP POP POP PUSH1 0x40 MLOAD RETURNDATASIZE PUSH1 0x1F NOT PUSH1 0x1F DUP3 ADD AND DUP3 ADD DUP1 PUSH1 0x40 MSTORE POP DUP2 ADD SWAP1 PUSH2 0x3F1 SWAP2 SWAP1 PUSH2 0x81A JUMP JUMPDEST POP JUMP JUMPDEST PUSH1 0x0 PUSH2 0x3FF CALLER PUSH2 0x9F JUMP JUMPDEST SWAP1 POP PUSH1 0x2 PUSH1 0x0 SWAP1 SLOAD SWAP1 PUSH2 0x100 EXP SWAP1 DIV PUSH20 0xFFFFFFFFFFFFFFFFFFFFFFFFFFFFFFFFFFFFFFFF AND PUSH20 0xFFFFFFFFFFFFFFFFFFFFFFFFFFFFFFFFFFFFFFFF AND PUSH4 0x94756AA7 CALLER DUP4 PUSH1 0x40 MLOAD DUP4 PUSH4 0xFFFFFFFF AND PUSH1 0xE0 SHL DUP2 MSTORE PUSH1 0x4 ADD PUSH2 0x45E SWAP3 SWAP2 SWAP1 PUSH2 0x8D6 JUMP JUMPDEST PUSH1 0x0 PUSH1 0x40 MLOAD DUP1 DUP4 SUB DUP2 PUSH1 0x0 DUP8 DUP1 EXTCODESIZE ISZERO DUP1 ISZERO PUSH2 0x478 JUMPI PUSH1 0x0 DUP1 REVERT JUMPDEST POP GAS CALL ISZERO DUP1 ISZERO PUSH2 0x48C JUMPI RETURNDATASIZE PUSH1 0x0 DUP1 RETURNDATACOPY RETURNDATASIZE PUSH1 0x0 REVERT JUMPDEST POP POP POP POP PUSH1 0x0 PUSH2 0x49B CALLER PUSH2 0x536 JUMP JUMPDEST SWAP1 POP PUSH2 0x4EF DUP2 PUSH1 0x7 PUSH1 0x0 CALLER PUSH20 0xFFFFFFFFFFFFFFFFFFFFFFFFFFFFFFFFFFFFFFFF AND PUSH20 0xFFFFFFFFFFFFFFFFFFFFFFFFFFFFFFFFFFFFFFFF AND DUP2 MSTORE PUSH1 0x20 ADD SWAP1 DUP2 MSTORE PUSH1 0x20 ADD PUSH1 0x0 KECCAK256 SLOAD PUSH2 0x661 SWAP1 SWAP2 SWAP1 PUSH4 0xFFFFFFFF AND JUMP JUMPDEST PUSH1 0x7 PUSH1 0x0 CALLER PUSH20 0xFFFFFFFFFFFFFFFFFFFFFFFFFFFFFFFFFFFFFFFF AND PUSH20 0xFFFFFFFFFFFFFFFFFFFFFFFFFFFFFFFFFFFFFFFF AND DUP2 MSTORE PUSH1 0x20 ADD SWAP1 DUP2 MSTORE PUSH1 0x20 ADD PUSH1 0x0 KECCAK256 DUP2 SWAP1 SSTORE POP POP POP JUMP JUMPDEST PUSH1 0x0 DUP1 PUSH1 0x0 DUP1 SLOAD SWAP1 PUSH2 0x100 EXP SWAP1 DIV PUSH20 0xFFFFFFFFFFFFFFFFFFFFFFFFFFFFFFFFFFFFFFFF AND PUSH20 0xFFFFFFFFFFFFFFFFFFFFFFFFFFFFFFFFFFFFFFFF AND PUSH4 0x325B272A DUP5 PUSH1 0x40 MLOAD DUP3 PUSH4 0xFFFFFFFF AND PUSH1 0xE0 SHL DUP2 MSTORE PUSH1 0x4 ADD PUSH2 0x592 SWAP2 SWAP1 PUSH2 0x8FF JUMP JUMPDEST PUSH1 0x20 PUSH1 0x40 MLOAD DUP1 DUP4 SUB DUP2 DUP7 GAS STATICCALL ISZERO DUP1 ISZERO PUSH2 0x5AF JUMPI RETURNDATASIZE PUSH1 0x0 DUP1 RETURNDATACOPY RETURNDATASIZE PUSH1 0x0 REVERT JUMPDEST POP POP POP POP PUSH1 0x40 MLOAD RETURNDATASIZE PUSH1 0x1F NOT PUSH1 0x1F DUP3 ADD AND DUP3 ADD DUP1 PUSH1 0x40 MSTORE POP DUP2 ADD SWAP1 PUSH2 0x5D3 SWAP2 SWAP1 PUSH2 0x77D JUMP JUMPDEST SWAP1 POP PUSH1 0x0 PUSH2 0x629 PUSH1 0x7 PUSH1 0x0 DUP7 PUSH20 0xFFFFFFFFFFFFFFFFFFFFFFFFFFFFFFFFFFFFFFFF AND PUSH20 0xFFFFFFFFFFFFFFFFFFFFFFFFFFFFFFFFFFFFFFFF AND DUP2 MSTORE PUSH1 0x20 ADD SWAP1 DUP2 MSTORE PUSH1 0x20 ADD PUSH1 0x0 KECCAK256 SLOAD DUP4 PUSH2 0x677 SWAP1 SWAP2 SWAP1 PUSH4 0xFFFFFFFF AND JUMP JUMPDEST SWAP1 POP DUP1 SWAP3 POP POP POP SWAP2 SWAP1 POP JUMP JUMPDEST PUSH1 0x0 DUP2 DUP4 PUSH2 0x643 SWAP2 SWAP1 PUSH2 0x949 JUMP JUMPDEST SWAP1 POP SWAP3 SWAP2 POP POP JUMP JUMPDEST PUSH1 0x0 DUP2 DUP4 PUSH2 0x659 SWAP2 SWAP1 PUSH2 0x9BA JUMP JUMPDEST SWAP1 POP SWAP3 SWAP2 POP POP JUMP JUMPDEST PUSH1 0x0 DUP2 DUP4 PUSH2 0x66F SWAP2 SWAP1 PUSH2 0x9EB JUMP JUMPDEST SWAP1 POP SWAP3 SWAP2 POP POP JUMP JUMPDEST PUSH1 0x0 DUP2 DUP4 PUSH2 0x685 SWAP2 SWAP1 PUSH2 0xA1F JUMP JUMPDEST SWAP1 POP SWAP3 SWAP2 POP POP JUMP JUMPDEST PUSH1 0x0 DUP1 REVERT JUMPDEST PUSH1 0x0 PUSH20 0xFFFFFFFFFFFFFFFFFFFFFFFFFFFFFFFFFFFFFFFF DUP3 AND SWAP1 POP SWAP2 SWAP1 POP JUMP JUMPDEST PUSH1 0x0 PUSH2 0x6BD DUP3 PUSH2 0x692 JUMP JUMPDEST SWAP1 POP SWAP2 SWAP1 POP JUMP JUMPDEST PUSH2 0x6CD DUP2 PUSH2 0x6B2 JUMP JUMPDEST DUP2 EQ PUSH2 0x6D8 JUMPI PUSH1 0x0 DUP1 REVERT JUMPDEST POP JUMP JUMPDEST PUSH1 0x0 DUP2 CALLDATALOAD SWAP1 POP PUSH2 0x6EA DUP2 PUSH2 0x6C4 JUMP JUMPDEST SWAP3 SWAP2 POP POP JUMP JUMPDEST PUSH1 0x0 PUSH1 0x20 DUP3 DUP5 SUB SLT ISZERO PUSH2 0x706 JUMPI PUSH2 0x705 PUSH2 0x68D JUMP JUMPDEST JUMPDEST PUSH1 0x0 PUSH2 0x714 DUP5 DUP3 DUP6 ADD PUSH2 0x6DB JUMP JUMPDEST SWAP2 POP POP SWAP3 SWAP2 POP POP JUMP JUMPDEST PUSH1 0x0 DUP2 SWAP1 POP SWAP2 SWAP1 POP JUMP JUMPDEST PUSH2 0x730 DUP2 PUSH2 0x71D JUMP JUMPDEST DUP3 MSTORE POP POP JUMP JUMPDEST PUSH1 0x0 PUSH1 0x20 DUP3 ADD SWAP1 POP PUSH2 0x74B PUSH1 0x0 DUP4 ADD DUP5 PUSH2 0x727 JUMP JUMPDEST SWAP3 SWAP2 POP POP JUMP JUMPDEST PUSH2 0x75A DUP2 PUSH2 0x71D JUMP JUMPDEST DUP2 EQ PUSH2 0x765 JUMPI PUSH1 0x0 DUP1 REVERT JUMPDEST POP JUMP JUMPDEST PUSH1 0x0 DUP2 MLOAD SWAP1 POP PUSH2 0x777 DUP2 PUSH2 0x751 JUMP JUMPDEST SWAP3 SWAP2 POP POP JUMP JUMPDEST PUSH1 0x0 PUSH1 0x20 DUP3 DUP5 SUB SLT ISZERO PUSH2 0x793 JUMPI PUSH2 0x792 PUSH2 0x68D JUMP JUMPDEST JUMPDEST PUSH1 0x0 PUSH2 0x7A1 DUP5 DUP3 DUP6 ADD PUSH2 0x768 JUMP JUMPDEST SWAP2 POP POP SWAP3 SWAP2 POP POP JUMP JUMPDEST PUSH2 0x7B3 DUP2 PUSH2 0x6B2 JUMP JUMPDEST DUP3 MSTORE POP POP JUMP JUMPDEST PUSH1 0x0 PUSH1 0x40 DUP3 ADD SWAP1 POP PUSH2 0x7CE PUSH1 0x0 DUP4 ADD DUP6 PUSH2 0x7AA JUMP JUMPDEST PUSH2 0x7DB PUSH1 0x20 DUP4 ADD DUP5 PUSH2 0x727 JUMP JUMPDEST SWAP4 SWAP3 POP POP POP JUMP JUMPDEST PUSH1 0x0 DUP2 ISZERO ISZERO SWAP1 POP SWAP2 SWAP1 POP JUMP JUMPDEST PUSH2 0x7F7 DUP2 PUSH2 0x7E2 JUMP JUMPDEST DUP2 EQ PUSH2 0x802 JUMPI PUSH1 0x0 DUP1 REVERT JUMPDEST POP JUMP JUMPDEST PUSH1 0x0 DUP2 MLOAD SWAP1 POP PUSH2 0x814 DUP2 PUSH2 0x7EE JUMP JUMPDEST SWAP3 SWAP2 POP POP JUMP JUMPDEST PUSH1 0x0 PUSH1 0x20 DUP3 DUP5 SUB SLT ISZERO PUSH2 0x830 JUMPI PUSH2 0x82F PUSH2 0x68D JUMP JUMPDEST JUMPDEST PUSH1 0x0 PUSH2 0x83E DUP5 DUP3 DUP6 ADD PUSH2 0x805 JUMP JUMPDEST SWAP2 POP POP SWAP3 SWAP2 POP POP JUMP JUMPDEST PUSH1 0x0 DUP2 SWAP1 POP SWAP2 SWAP1 POP JUMP JUMPDEST PUSH1 0x0 DUP2 SWAP1 POP SWAP2 SWAP1 POP JUMP JUMPDEST PUSH1 0x0 PUSH2 0x876 PUSH2 0x871 PUSH2 0x86C DUP5 PUSH2 0x847 JUMP JUMPDEST PUSH2 0x851 JUMP JUMPDEST PUSH2 0x71D JUMP JUMPDEST SWAP1 POP SWAP2 SWAP1 POP JUMP JUMPDEST PUSH2 0x886 DUP2 PUSH2 0x85B JUMP JUMPDEST DUP3 MSTORE POP POP JUMP JUMPDEST PUSH1 0x0 PUSH1 0x40 DUP3 ADD SWAP1 POP PUSH2 0x8A1 PUSH1 0x0 DUP4 ADD DUP6 PUSH2 0x7AA JUMP JUMPDEST PUSH2 0x8AE PUSH1 0x20 DUP4 ADD DUP5 PUSH2 0x87D JUMP JUMPDEST SWAP4 SWAP3 POP POP POP JUMP JUMPDEST PUSH1 0x0 PUSH2 0x8C0 DUP3 PUSH2 0x692 JUMP JUMPDEST SWAP1 POP SWAP2 SWAP1 POP JUMP JUMPDEST PUSH2 0x8D0 DUP2 PUSH2 0x8B5 JUMP JUMPDEST DUP3 MSTORE POP POP JUMP JUMPDEST PUSH1 0x0 PUSH1 0x40 DUP3 ADD SWAP1 POP PUSH2 0x8EB PUSH1 0x0 DUP4 ADD DUP6 PUSH2 0x8C7 JUMP JUMPDEST PUSH2 0x8F8 PUSH1 0x20 DUP4 ADD DUP5 PUSH2 0x727 JUMP JUMPDEST SWAP4 SWAP3 POP POP POP JUMP JUMPDEST PUSH1 0x0 PUSH1 0x20 DUP3 ADD SWAP1 POP PUSH2 0x914 PUSH1 0x0 DUP4 ADD DUP5 PUSH2 0x7AA JUMP JUMPDEST SWAP3 SWAP2 POP POP JUMP JUMPDEST PUSH32 0x4E487B7100000000000000000000000000000000000000000000000000000000 PUSH1 0x0 MSTORE PUSH1 0x11 PUSH1 0x4 MSTORE PUSH1 0x24 PUSH1 0x0 REVERT JUMPDEST PUSH1 0x0 PUSH2 0x954 DUP3 PUSH2 0x71D JUMP JUMPDEST SWAP2 POP PUSH2 0x95F DUP4 PUSH2 0x71D JUMP JUMPDEST SWAP3 POP DUP3 DUP3 MUL PUSH2 0x96D DUP2 PUSH2 0x71D JUMP JUMPDEST SWAP2 POP DUP3 DUP3 DIV DUP5 EQ DUP4 ISZERO OR PUSH2 0x984 JUMPI PUSH2 0x983 PUSH2 0x91A JUMP JUMPDEST JUMPDEST POP SWAP3 SWAP2 POP POP JUMP JUMPDEST PUSH32 0x4E487B7100000000000000000000000000000000000000000000000000000000 PUSH1 0x0 MSTORE PUSH1 0x12 PUSH1 0x4 MSTORE PUSH1 0x24 PUSH1 0x0 REVERT JUMPDEST PUSH1 0x0 PUSH2 0x9C5 DUP3 PUSH2 0x71D JUMP JUMPDEST SWAP2 POP PUSH2 0x9D0 DUP4 PUSH2 0x71D JUMP JUMPDEST SWAP3 POP DUP3 PUSH2 0x9E0 JUMPI PUSH2 0x9DF PUSH2 0x98B JUMP JUMPDEST JUMPDEST DUP3 DUP3 DIV SWAP1 POP SWAP3 SWAP2 POP POP JUMP JUMPDEST PUSH1 0x0 PUSH2 0x9F6 DUP3 PUSH2 0x71D JUMP JUMPDEST SWAP2 POP PUSH2 0xA01 DUP4 PUSH2 0x71D JUMP JUMPDEST SWAP3 POP DUP3 DUP3 ADD SWAP1 POP DUP1 DUP3 GT ISZERO PUSH2 0xA19 JUMPI PUSH2 0xA18 PUSH2 0x91A JUMP JUMPDEST JUMPDEST SWAP3 SWAP2 POP POP JUMP JUMPDEST PUSH1 0x0 PUSH2 0xA2A DUP3 PUSH2 0x71D JUMP JUMPDEST SWAP2 POP PUSH2 0xA35 DUP4 PUSH2 0x71D JUMP JUMPDEST SWAP3 POP DUP3 DUP3 SUB SWAP1 POP DUP2 DUP2 GT ISZERO PUSH2 0xA4D JUMPI PUSH2 0xA4C PUSH2 0x91A JUMP JUMPDEST JUMPDEST SWAP3 SWAP2 POP POP JUMP INVALID LOG2 PUSH5 0x6970667358 0x22 SLT KECCAK256 0x1F PUSH18 0x99F7F4659064EBDA0364A2668FBD13BEAED5 SWAP14 0x26 0xF6 ADDMOD 0xD3 PUSH3 0x82EEFB 0xAB 0xE1 CHAINID PUSH5 0x736F6C6343 STOP ADDMOD GT STOP CALLER "
				},
				"gasEstimates": {
					"creation": {
						"codeDepositCost": "539400",
						"executionCost": "infinite",
						"totalCost": "infinite"
					},
					"external": {
						"FlashSwap()": "infinite",
						"MineDcoff()": "infinite",
						"mineStatus(address)": "infinite",
						"treasury_admin()": "infinite"
					},
					"internal": {
						"Score(address)": "infinite"
					}
				},
				"methodIdentifiers": {
					"FlashSwap()": "b3a26307",
					"MineDcoff()": "8bed4778",
					"mineStatus(address)": "33a22571",
					"treasury_admin()": "9acc1b73"
				}
			},
			"storageLayout": {
				"storage": [
					{
						"astId": 411,
						"contract": "Dcoffer/DcoffMine.sol:DcoffMine",
						"label": "mine",
						"offset": 0,
						"slot": "0",
						"type": "t_contract(IDCF)634"
					},
					{
						"astId": 417,
						"contract": "Dcoffer/DcoffMine.sol:DcoffMine",
						"label": "dcoff",
						"offset": 0,
						"slot": "1",
						"type": "t_contract(IERC20)77"
					},
					{
						"astId": 423,
						"contract": "Dcoffer/DcoffMine.sol:DcoffMine",
						"label": "router",
						"offset": 0,
						"slot": "2",
						"type": "t_contract(treasury)402"
					},
					{
						"astId": 425,
						"contract": "Dcoffer/DcoffMine.sol:DcoffMine",
						"label": "owner",
						"offset": 0,
						"slot": "3",
						"type": "t_address"
					},
					{
						"astId": 427,
						"contract": "Dcoffer/DcoffMine.sol:DcoffMine",
						"label": "treasuryAddr",
						"offset": 0,
						"slot": "4",
						"type": "t_address"
					},
					{
						"astId": 429,
						"contract": "Dcoffer/DcoffMine.sol:DcoffMine",
						"label": "fee",
						"offset": 0,
						"slot": "5",
						"type": "t_uint256"
					},
					{
						"astId": 431,
						"contract": "Dcoffer/DcoffMine.sol:DcoffMine",
						"label": "DcoffperBlock",
						"offset": 0,
						"slot": "6",
						"type": "t_uint256"
					},
					{
						"astId": 435,
						"contract": "Dcoffer/DcoffMine.sol:DcoffMine",
						"label": "ScoreWithdrawn",
						"offset": 0,
						"slot": "7",
						"type": "t_mapping(t_address,t_uint256)"
					}
				],
				"types": {
					"t_address": {
						"encoding": "inplace",
						"label": "address",
						"numberOfBytes": "20"
					},
					"t_contract(IDCF)634": {
						"encoding": "inplace",
						"label": "contract IDCF",
						"numberOfBytes": "20"
					},
					"t_contract(IERC20)77": {
						"encoding": "inplace",
						"label": "contract IERC20",
						"numberOfBytes": "20"
					},
					"t_contract(treasury)402": {
						"encoding": "inplace",
						"label": "contract treasury",
						"numberOfBytes": "20"
					},
					"t_mapping(t_address,t_uint256)": {
						"encoding": "mapping",
						"key": "t_address",
						"label": "mapping(address => uint256)",
						"numberOfBytes": "32",
						"value": "t_uint256"
					},
					"t_uint256": {
						"encoding": "inplace",
						"label": "uint256",
						"numberOfBytes": "32"
					}
				}
			},
			"userdoc": {
				"kind": "user",
				"methods": {},
				"version": 1
			}
		}
	}
}