{
	"minerpunk/treasury.sol": {
		"treasury": {
			"abi": [
				{
					"inputs": [],
					"stateMutability": "nonpayable",
					"type": "constructor"
				},
				{
					"anonymous": false,
					"inputs": [
						{
							"indexed": false,
							"internalType": "uint256",
							"name": "_DCFamount",
							"type": "uint256"
						},
						{
							"indexed": false,
							"internalType": "uint256",
							"name": "_ETHamount",
							"type": "uint256"
						},
						{
							"indexed": false,
							"internalType": "uint256",
							"name": "_time",
							"type": "uint256"
						}
					],
					"name": "ETHperDCF",
					"type": "event"
				},
				{
					"inputs": [
						{
							"internalType": "uint256",
							"name": "dcf_amount",
							"type": "uint256"
						}
					],
					"name": "ETH_DCF",
					"outputs": [
						{
							"internalType": "uint256",
							"name": "",
							"type": "uint256"
						}
					],
					"stateMutability": "view",
					"type": "function"
				},
				{
					"inputs": [
						{
							"internalType": "uint256",
							"name": "_unit",
							"type": "uint256"
						}
					],
					"name": "PowerQuote",
					"outputs": [
						{
							"internalType": "uint256",
							"name": "",
							"type": "uint256"
						}
					],
					"stateMutability": "view",
					"type": "function"
				},
				{
					"inputs": [],
					"name": "Warning_protect",
					"outputs": [],
					"stateMutability": "nonpayable",
					"type": "function"
				},
				{
					"inputs": [],
					"name": "deposit",
					"outputs": [],
					"stateMutability": "payable",
					"type": "function"
				},
				{
					"inputs": [
						{
							"internalType": "address",
							"name": "from",
							"type": "address"
						},
						{
							"internalType": "address payable",
							"name": "to",
							"type": "address"
						},
						{
							"internalType": "uint256",
							"name": "dcf_amount",
							"type": "uint256"
						}
					],
					"name": "market",
					"outputs": [],
					"stateMutability": "nonpayable",
					"type": "function"
				},
				{
					"inputs": [
						{
							"internalType": "address",
							"name": "user",
							"type": "address"
						},
						{
							"internalType": "uint256",
							"name": "_unit",
							"type": "uint256"
						}
					],
					"name": "purchasePower",
					"outputs": [],
					"stateMutability": "payable",
					"type": "function"
				},
				{
					"inputs": [
						{
							"internalType": "address",
							"name": "user",
							"type": "address"
						},
						{
							"internalType": "bool",
							"name": "power",
							"type": "bool"
						}
					],
					"name": "setRouter",
					"outputs": [],
					"stateMutability": "nonpayable",
					"type": "function"
				}
			],
			"devdoc": {
				"kind": "dev",
				"methods": {},
				"version": 1
			},
			"evm": {
				"assembly": "    /* \"minerpunk/treasury.sol\":278:2868  contract treasury {... */\n  mstore(0x40, 0x80)\n    /* \"minerpunk/treasury.sol\":356:398  0xA9fae5eA311D3CfB2bcC9CAefC5003b30b60b6c3 */\n  0xa9fae5ea311d3cfb2bcc9caefc5003b30b60b6c3\n    /* \"minerpunk/treasury.sol\":333:399  IERC20 dcoff =  IERC20(0xA9fae5eA311D3CfB2bcC9CAefC5003b30b60b6c3) */\n  0x00\n  dup1\n  0x0100\n  exp\n  dup2\n  sload\n  dup2\n  0xffffffffffffffffffffffffffffffffffffffff\n  mul\n  not\n  and\n  swap1\n  dup4\n  0xffffffffffffffffffffffffffffffffffffffff\n  and\n  mul\n  or\n  swap1\n  sstore\n  pop\n    /* \"minerpunk/treasury.sol\":436:478  0xA9fae5eA311D3CfB2bcC9CAefC5003b30b60b6c3 */\n  0xa9fae5ea311d3cfb2bcc9caefc5003b30b60b6c3\n    /* \"minerpunk/treasury.sol\":404:479  IburnFrom dcoffburn = IburnFrom(0xA9fae5eA311D3CfB2bcC9CAefC5003b30b60b6c3) */\n  0x01\n  exp(0x0100, 0x00)\n  dup2\n  sload\n  dup2\n  0xffffffffffffffffffffffffffffffffffffffff\n  mul\n  not\n  and\n  swap1\n  dup4\n  0xffffffffffffffffffffffffffffffffffffffff\n  and\n  mul\n  or\n  swap1\n  sstore\n  pop\n    /* \"minerpunk/treasury.sol\":511:553  0xe3410Af1B80F925ac42b78EA54A48DE13dFA6eBe */\n  0xe3410af1b80f925ac42b78ea54a48de13dfa6ebe\n    /* \"minerpunk/treasury.sol\":484:554  IERC20 minePower =  IERC20(0xe3410Af1B80F925ac42b78EA54A48DE13dFA6eBe) */\n  0x02\n  exp(0x0100, 0x00)\n  dup2\n  sload\n  dup2\n  0xffffffffffffffffffffffffffffffffffffffff\n  mul\n  not\n  and\n  swap1\n  dup4\n  0xffffffffffffffffffffffffffffffffffffffff\n  and\n  mul\n  or\n  swap1\n  sstore\n  pop\n    /* \"minerpunk/treasury.sol\":646:693  constructor(){... */\n  callvalue\n  dup1\n  iszero\n  tag_1\n  jumpi\n  0x00\n  dup1\n  revert\ntag_1:\n  pop\n    /* \"minerpunk/treasury.sol\":674:684  msg.sender */\n  caller\n    /* \"minerpunk/treasury.sol\":666:671  owner */\n  0x03\n  0x00\n    /* \"minerpunk/treasury.sol\":666:684  owner = msg.sender */\n  0x0100\n  exp\n  dup2\n  sload\n  dup2\n  0xffffffffffffffffffffffffffffffffffffffff\n  mul\n  not\n  and\n  swap1\n  dup4\n  0xffffffffffffffffffffffffffffffffffffffff\n  and\n  mul\n  or\n  swap1\n  sstore\n  pop\n    /* \"minerpunk/treasury.sol\":278:2868  contract treasury {... */\n  dataSize(sub_0)\n  dup1\n  dataOffset(sub_0)\n  0x00\n  codecopy\n  0x00\n  return\nstop\n\nsub_0: assembly {\n        /* \"minerpunk/treasury.sol\":278:2868  contract treasury {... */\n      mstore(0x40, 0x80)\n      jumpi(tag_1, lt(calldatasize, 0x04))\n      shr(0xe0, calldataload(0x00))\n      dup1\n      0xd9e9402f\n      gt\n      tag_9\n      jumpi\n      dup1\n      0xd9e9402f\n      eq\n      tag_5\n      jumpi\n      dup1\n      0xdac3fad4\n      eq\n      tag_6\n      jumpi\n      dup1\n      0xdaeae851\n      eq\n      tag_7\n      jumpi\n      dup1\n      0xef170619\n      eq\n      tag_8\n      jumpi\n      jump(tag_1)\n    tag_9:\n      dup1\n      0x97dedb1d\n      eq\n      tag_2\n      jumpi\n      dup1\n      0xc3c64674\n      eq\n      tag_3\n      jumpi\n      dup1\n      0xd0e30db0\n      eq\n      tag_4\n      jumpi\n    tag_1:\n      0x00\n      dup1\n      revert\n        /* \"minerpunk/treasury.sol\":2471:2729  function ETH_DCF(uint256 dcf_amount)public view returns(uint256){... */\n    tag_2:\n      callvalue\n      dup1\n      iszero\n      tag_10\n      jumpi\n      0x00\n      dup1\n      revert\n    tag_10:\n      pop\n      tag_11\n      0x04\n      dup1\n      calldatasize\n      sub\n      dup2\n      add\n      swap1\n      tag_12\n      swap2\n      swap1\n      tag_13\n      jump\t// in\n    tag_12:\n      tag_14\n      jump\t// in\n    tag_11:\n      mload(0x40)\n      tag_15\n      swap2\n      swap1\n      tag_16\n      jump\t// in\n    tag_15:\n      mload(0x40)\n      dup1\n      swap2\n      sub\n      swap1\n      return\n        /* \"minerpunk/treasury.sol\":916:1018  function setRouter(address user, bool power)external onlyOwner{... */\n    tag_3:\n      callvalue\n      dup1\n      iszero\n      tag_17\n      jumpi\n      0x00\n      dup1\n      revert\n    tag_17:\n      pop\n      tag_18\n      0x04\n      dup1\n      calldatasize\n      sub\n      dup2\n      add\n      swap1\n      tag_19\n      swap2\n      swap1\n      tag_20\n      jump\t// in\n    tag_19:\n      tag_21\n      jump\t// in\n    tag_18:\n      stop\n        /* \"minerpunk/treasury.sol\":1026:1208  function deposit()external payable{... */\n    tag_4:\n      tag_22\n      tag_23\n      jump\t// in\n    tag_22:\n      stop\n        /* \"minerpunk/treasury.sol\":2046:2463  function market(address from ,address payable to, uint256 dcf_amount)external {... */\n    tag_5:\n      callvalue\n      dup1\n      iszero\n      tag_24\n      jumpi\n      0x00\n      dup1\n      revert\n    tag_24:\n      pop\n      tag_25\n      0x04\n      dup1\n      calldatasize\n      sub\n      dup2\n      add\n      swap1\n      tag_26\n      swap2\n      swap1\n      tag_27\n      jump\t// in\n    tag_26:\n      tag_28\n      jump\t// in\n    tag_25:\n      stop\n        /* \"minerpunk/treasury.sol\":2740:2843  function Warning_protect()external onlyOwner{... */\n    tag_6:\n      callvalue\n      dup1\n      iszero\n      tag_29\n      jumpi\n      0x00\n      dup1\n      revert\n    tag_29:\n      pop\n      tag_30\n      tag_31\n      jump\t// in\n    tag_30:\n      stop\n        /* \"minerpunk/treasury.sol\":1218:1560  function purchasePower(address user, uint256 _unit)external payable{... */\n    tag_7:\n      tag_32\n      0x04\n      dup1\n      calldatasize\n      sub\n      dup2\n      add\n      swap1\n      tag_33\n      swap2\n      swap1\n      tag_34\n      jump\t// in\n    tag_33:\n      tag_35\n      jump\t// in\n    tag_32:\n      stop\n        /* \"minerpunk/treasury.sol\":1568:1922  function PowerQuote(uint256 _unit)public view returns(uint256){... */\n    tag_8:\n      callvalue\n      dup1\n      iszero\n      tag_36\n      jumpi\n      0x00\n      dup1\n      revert\n    tag_36:\n      pop\n      tag_37\n      0x04\n      dup1\n      calldatasize\n      sub\n      dup2\n      add\n      swap1\n      tag_38\n      swap2\n      swap1\n      tag_13\n      jump\t// in\n    tag_38:\n      tag_39\n      jump\t// in\n    tag_37:\n      mload(0x40)\n      tag_40\n      swap2\n      swap1\n      tag_16\n      jump\t// in\n    tag_40:\n      mload(0x40)\n      dup1\n      swap2\n      sub\n      swap1\n      return\n        /* \"minerpunk/treasury.sol\":2471:2729  function ETH_DCF(uint256 dcf_amount)public view returns(uint256){... */\n    tag_14:\n        /* \"minerpunk/treasury.sol\":2527:2534  uint256 */\n      0x00\n        /* \"minerpunk/treasury.sol\":2542:2561  uint256 _eth_amount */\n      dup1\n        /* \"minerpunk/treasury.sol\":2564:2585  address(this).balance */\n      selfbalance\n        /* \"minerpunk/treasury.sol\":2542:2585  uint256 _eth_amount = address(this).balance */\n      swap1\n      pop\n        /* \"minerpunk/treasury.sol\":2592:2611  uint256 _dcf_amount */\n      0x00\n        /* \"minerpunk/treasury.sol\":2614:2619  dcoff */\n      dup1\n      0x00\n      swap1\n      sload\n      swap1\n      0x0100\n      exp\n      swap1\n      div\n      0xffffffffffffffffffffffffffffffffffffffff\n      and\n        /* \"minerpunk/treasury.sol\":2614:2631  dcoff.totalSupply */\n      0xffffffffffffffffffffffffffffffffffffffff\n      and\n      0x18160ddd\n        /* \"minerpunk/treasury.sol\":2614:2633  dcoff.totalSupply() */\n      mload(0x40)\n      dup2\n      0xffffffff\n      and\n      0xe0\n      shl\n      dup2\n      mstore\n      0x04\n      add\n      0x20\n      mload(0x40)\n      dup1\n      dup4\n      sub\n      dup2\n      dup7\n      gas\n      staticcall\n      iszero\n      dup1\n      iszero\n      tag_43\n      jumpi\n      returndatasize\n      0x00\n      dup1\n      returndatacopy\n      revert(0x00, returndatasize)\n    tag_43:\n      pop\n      pop\n      pop\n      pop\n      mload(0x40)\n      returndatasize\n      not(0x1f)\n      0x1f\n      dup3\n      add\n      and\n      dup3\n      add\n      dup1\n      0x40\n      mstore\n      pop\n      dup2\n      add\n      swap1\n      tag_44\n      swap2\n      swap1\n      tag_45\n      jump\t// in\n    tag_44:\n        /* \"minerpunk/treasury.sol\":2592:2633  uint256 _dcf_amount = dcoff.totalSupply() */\n      swap1\n      pop\n        /* \"minerpunk/treasury.sol\":2642:2656  uint256 _price */\n      0x00\n        /* \"minerpunk/treasury.sol\":2659:2703  dcf_amount.mul(_eth_amount).div(_dcf_amount) */\n      tag_46\n        /* \"minerpunk/treasury.sol\":2691:2702  _dcf_amount */\n      dup3\n        /* \"minerpunk/treasury.sol\":2659:2686  dcf_amount.mul(_eth_amount) */\n      tag_47\n        /* \"minerpunk/treasury.sol\":2674:2685  _eth_amount */\n      dup6\n        /* \"minerpunk/treasury.sol\":2659:2669  dcf_amount */\n      dup9\n        /* \"minerpunk/treasury.sol\":2659:2673  dcf_amount.mul */\n      tag_48\n      swap1\n        /* \"minerpunk/treasury.sol\":2659:2686  dcf_amount.mul(_eth_amount) */\n      swap2\n      swap1\n      0xffffffff\n      and\n      jump\t// in\n    tag_47:\n        /* \"minerpunk/treasury.sol\":2659:2690  dcf_amount.mul(_eth_amount).div */\n      tag_49\n      swap1\n        /* \"minerpunk/treasury.sol\":2659:2703  dcf_amount.mul(_eth_amount).div(_dcf_amount) */\n      swap2\n      swap1\n      0xffffffff\n      and\n      jump\t// in\n    tag_46:\n        /* \"minerpunk/treasury.sol\":2642:2703  uint256 _price = dcf_amount.mul(_eth_amount).div(_dcf_amount) */\n      swap1\n      pop\n        /* \"minerpunk/treasury.sol\":2717:2723  _price */\n      dup1\n        /* \"minerpunk/treasury.sol\":2710:2723  return _price */\n      swap4\n      pop\n      pop\n      pop\n      pop\n        /* \"minerpunk/treasury.sol\":2471:2729  function ETH_DCF(uint256 dcf_amount)public view returns(uint256){... */\n      swap2\n      swap1\n      pop\n      jump\t// out\n        /* \"minerpunk/treasury.sol\":916:1018  function setRouter(address user, bool power)external onlyOwner{... */\n    tag_21:\n        /* \"minerpunk/treasury.sol\":839:849  msg.sender */\n      caller\n        /* \"minerpunk/treasury.sol\":830:849  owner == msg.sender */\n      0xffffffffffffffffffffffffffffffffffffffff\n      and\n        /* \"minerpunk/treasury.sol\":830:835  owner */\n      0x03\n      0x00\n      swap1\n      sload\n      swap1\n      0x0100\n      exp\n      swap1\n      div\n      0xffffffffffffffffffffffffffffffffffffffff\n      and\n        /* \"minerpunk/treasury.sol\":830:849  owner == msg.sender */\n      0xffffffffffffffffffffffffffffffffffffffff\n      and\n      eq\n        /* \"minerpunk/treasury.sol\":822:886  require(owner == msg.sender, \"Ownable: caller is not the owner\") */\n      tag_51\n      jumpi\n      mload(0x40)\n      0x08c379a000000000000000000000000000000000000000000000000000000000\n      dup2\n      mstore\n      0x04\n      add\n      tag_52\n      swap1\n      tag_53\n      jump\t// in\n    tag_52:\n      mload(0x40)\n      dup1\n      swap2\n      sub\n      swap1\n      revert\n    tag_51:\n        /* \"minerpunk/treasury.sol\":1007:1012  power */\n      dup1\n        /* \"minerpunk/treasury.sol\":987:998  RouterAdmin */\n      0x05\n        /* \"minerpunk/treasury.sol\":987:1004  RouterAdmin[user] */\n      0x00\n        /* \"minerpunk/treasury.sol\":999:1003  user */\n      dup5\n        /* \"minerpunk/treasury.sol\":987:1004  RouterAdmin[user] */\n      0xffffffffffffffffffffffffffffffffffffffff\n      and\n      0xffffffffffffffffffffffffffffffffffffffff\n      and\n      dup2\n      mstore\n      0x20\n      add\n      swap1\n      dup2\n      mstore\n      0x20\n      add\n      0x00\n      keccak256\n      0x00\n        /* \"minerpunk/treasury.sol\":987:1012  RouterAdmin[user] = power */\n      0x0100\n      exp\n      dup2\n      sload\n      dup2\n      0xff\n      mul\n      not\n      and\n      swap1\n      dup4\n      iszero\n      iszero\n      mul\n      or\n      swap1\n      sstore\n      pop\n        /* \"minerpunk/treasury.sol\":916:1018  function setRouter(address user, bool power)external onlyOwner{... */\n      pop\n      pop\n      jump\t// out\n        /* \"minerpunk/treasury.sol\":1026:1208  function deposit()external payable{... */\n    tag_23:\n        /* \"minerpunk/treasury.sol\":1104:1108  true */\n      0x01\n        /* \"minerpunk/treasury.sol\":1077:1108  RouterAdmin[msg.sender] == true */\n      iszero\n      iszero\n        /* \"minerpunk/treasury.sol\":1077:1088  RouterAdmin */\n      0x05\n        /* \"minerpunk/treasury.sol\":1077:1100  RouterAdmin[msg.sender] */\n      0x00\n        /* \"minerpunk/treasury.sol\":1089:1099  msg.sender */\n      caller\n        /* \"minerpunk/treasury.sol\":1077:1100  RouterAdmin[msg.sender] */\n      0xffffffffffffffffffffffffffffffffffffffff\n      and\n      0xffffffffffffffffffffffffffffffffffffffff\n      and\n      dup2\n      mstore\n      0x20\n      add\n      swap1\n      dup2\n      mstore\n      0x20\n      add\n      0x00\n      keccak256\n      0x00\n      swap1\n      sload\n      swap1\n      0x0100\n      exp\n      swap1\n      div\n      0xff\n      and\n        /* \"minerpunk/treasury.sol\":1077:1108  RouterAdmin[msg.sender] == true */\n      iszero\n      iszero\n      eq\n        /* \"minerpunk/treasury.sol\":1069:1109  require(RouterAdmin[msg.sender] == true) */\n      tag_56\n      jumpi\n      0x00\n      dup1\n      revert\n    tag_56:\n        /* \"minerpunk/treasury.sol\":1123:1202  ETHperDCF(dcoff.balanceOf(address(this)),address(this).balance,block.timestamp) */\n      0x3eb1506d8210b5dbd38e30d7f6113495d1c713078c2cd75ec454a8e3a4d871a9\n        /* \"minerpunk/treasury.sol\":1133:1138  dcoff */\n      0x00\n      dup1\n      sload\n      swap1\n      0x0100\n      exp\n      swap1\n      div\n      0xffffffffffffffffffffffffffffffffffffffff\n      and\n        /* \"minerpunk/treasury.sol\":1133:1148  dcoff.balanceOf */\n      0xffffffffffffffffffffffffffffffffffffffff\n      and\n      0x70a08231\n        /* \"minerpunk/treasury.sol\":1157:1161  this */\n      address\n        /* \"minerpunk/treasury.sol\":1133:1163  dcoff.balanceOf(address(this)) */\n      mload(0x40)\n      dup3\n      0xffffffff\n      and\n      0xe0\n      shl\n      dup2\n      mstore\n      0x04\n      add\n      tag_57\n      swap2\n      swap1\n      tag_58\n      jump\t// in\n    tag_57:\n      0x20\n      mload(0x40)\n      dup1\n      dup4\n      sub\n      dup2\n      dup7\n      gas\n      staticcall\n      iszero\n      dup1\n      iszero\n      tag_60\n      jumpi\n      returndatasize\n      0x00\n      dup1\n      returndatacopy\n      revert(0x00, returndatasize)\n    tag_60:\n      pop\n      pop\n      pop\n      pop\n      mload(0x40)\n      returndatasize\n      not(0x1f)\n      0x1f\n      dup3\n      add\n      and\n      dup3\n      add\n      dup1\n      0x40\n      mstore\n      pop\n      dup2\n      add\n      swap1\n      tag_61\n      swap2\n      swap1\n      tag_45\n      jump\t// in\n    tag_61:\n        /* \"minerpunk/treasury.sol\":1164:1185  address(this).balance */\n      selfbalance\n        /* \"minerpunk/treasury.sol\":1186:1201  block.timestamp */\n      timestamp\n        /* \"minerpunk/treasury.sol\":1123:1202  ETHperDCF(dcoff.balanceOf(address(this)),address(this).balance,block.timestamp) */\n      mload(0x40)\n      tag_62\n      swap4\n      swap3\n      swap2\n      swap1\n      tag_63\n      jump\t// in\n    tag_62:\n      mload(0x40)\n      dup1\n      swap2\n      sub\n      swap1\n      log1\n        /* \"minerpunk/treasury.sol\":1026:1208  function deposit()external payable{... */\n      jump\t// out\n        /* \"minerpunk/treasury.sol\":2046:2463  function market(address from ,address payable to, uint256 dcf_amount)external {... */\n    tag_28:\n        /* \"minerpunk/treasury.sol\":2168:2172  true */\n      0x01\n        /* \"minerpunk/treasury.sol\":2141:2172  RouterAdmin[msg.sender] == true */\n      iszero\n      iszero\n        /* \"minerpunk/treasury.sol\":2141:2152  RouterAdmin */\n      0x05\n        /* \"minerpunk/treasury.sol\":2141:2164  RouterAdmin[msg.sender] */\n      0x00\n        /* \"minerpunk/treasury.sol\":2153:2163  msg.sender */\n      caller\n        /* \"minerpunk/treasury.sol\":2141:2164  RouterAdmin[msg.sender] */\n      0xffffffffffffffffffffffffffffffffffffffff\n      and\n      0xffffffffffffffffffffffffffffffffffffffff\n      and\n      dup2\n      mstore\n      0x20\n      add\n      swap1\n      dup2\n      mstore\n      0x20\n      add\n      0x00\n      keccak256\n      0x00\n      swap1\n      sload\n      swap1\n      0x0100\n      exp\n      swap1\n      div\n      0xff\n      and\n        /* \"minerpunk/treasury.sol\":2141:2172  RouterAdmin[msg.sender] == true */\n      iszero\n      iszero\n      eq\n        /* \"minerpunk/treasury.sol\":2133:2173  require(RouterAdmin[msg.sender] == true) */\n      tag_65\n      jumpi\n      0x00\n      dup1\n      revert\n    tag_65:\n        /* \"minerpunk/treasury.sol\":2215:2225  dcf_amount */\n      dup1\n        /* \"minerpunk/treasury.sol\":2190:2195  dcoff */\n      0x00\n      dup1\n      sload\n      swap1\n      0x0100\n      exp\n      swap1\n      div\n      0xffffffffffffffffffffffffffffffffffffffff\n      and\n        /* \"minerpunk/treasury.sol\":2190:2205  dcoff.balanceOf */\n      0xffffffffffffffffffffffffffffffffffffffff\n      and\n      0x70a08231\n        /* \"minerpunk/treasury.sol\":2206:2210  from */\n      dup6\n        /* \"minerpunk/treasury.sol\":2190:2211  dcoff.balanceOf(from) */\n      mload(0x40)\n      dup3\n      0xffffffff\n      and\n      0xe0\n      shl\n      dup2\n      mstore\n      0x04\n      add\n      tag_66\n      swap2\n      swap1\n      tag_58\n      jump\t// in\n    tag_66:\n      0x20\n      mload(0x40)\n      dup1\n      dup4\n      sub\n      dup2\n      dup7\n      gas\n      staticcall\n      iszero\n      dup1\n      iszero\n      tag_68\n      jumpi\n      returndatasize\n      0x00\n      dup1\n      returndatacopy\n      revert(0x00, returndatasize)\n    tag_68:\n      pop\n      pop\n      pop\n      pop\n      mload(0x40)\n      returndatasize\n      not(0x1f)\n      0x1f\n      dup3\n      add\n      and\n      dup3\n      add\n      dup1\n      0x40\n      mstore\n      pop\n      dup2\n      add\n      swap1\n      tag_69\n      swap2\n      swap1\n      tag_45\n      jump\t// in\n    tag_69:\n        /* \"minerpunk/treasury.sol\":2190:2225  dcoff.balanceOf(from) >= dcf_amount */\n      lt\n      iszero\n        /* \"minerpunk/treasury.sol\":2182:2226  require(dcoff.balanceOf(from) >= dcf_amount) */\n      tag_70\n      jumpi\n      0x00\n      dup1\n      revert\n    tag_70:\n        /* \"minerpunk/treasury.sol\":2237:2255  uint256 eth_amount */\n      0x00\n        /* \"minerpunk/treasury.sol\":2257:2276  ETH_DCF(dcf_amount) */\n      tag_71\n        /* \"minerpunk/treasury.sol\":2265:2275  dcf_amount */\n      dup3\n        /* \"minerpunk/treasury.sol\":2257:2264  ETH_DCF */\n      tag_14\n        /* \"minerpunk/treasury.sol\":2257:2276  ETH_DCF(dcf_amount) */\n      jump\t// in\n    tag_71:\n        /* \"minerpunk/treasury.sol\":2237:2276  uint256 eth_amount =ETH_DCF(dcf_amount) */\n      swap1\n      pop\n        /* \"minerpunk/treasury.sol\":2291:2293  to */\n      dup3\n        /* \"minerpunk/treasury.sol\":2291:2302  to.transfer */\n      0xffffffffffffffffffffffffffffffffffffffff\n      and\n        /* \"minerpunk/treasury.sol\":2291:2314  to.transfer(eth_amount) */\n      0x08fc\n        /* \"minerpunk/treasury.sol\":2303:2313  eth_amount */\n      dup3\n        /* \"minerpunk/treasury.sol\":2291:2314  to.transfer(eth_amount) */\n      swap1\n      dup2\n      iszero\n      mul\n      swap1\n      mload(0x40)\n      0x00\n      mload(0x40)\n      dup1\n      dup4\n      sub\n      dup2\n      dup6\n      dup9\n      dup9\n      call\n      swap4\n      pop\n      pop\n      pop\n      pop\n      iszero\n      dup1\n      iszero\n      tag_73\n      jumpi\n      returndatasize\n      0x00\n      dup1\n      returndatacopy\n      revert(0x00, returndatasize)\n    tag_73:\n      pop\n        /* \"minerpunk/treasury.sol\":2323:2332  dcoffburn */\n      0x01\n      0x00\n      swap1\n      sload\n      swap1\n      0x0100\n      exp\n      swap1\n      div\n      0xffffffffffffffffffffffffffffffffffffffff\n      and\n        /* \"minerpunk/treasury.sol\":2323:2341  dcoffburn.burnFrom */\n      0xffffffffffffffffffffffffffffffffffffffff\n      and\n      0x79cc6790\n        /* \"minerpunk/treasury.sol\":2342:2346  from */\n      dup6\n        /* \"minerpunk/treasury.sol\":2347:2357  dcf_amount */\n      dup5\n        /* \"minerpunk/treasury.sol\":2323:2358  dcoffburn.burnFrom(from,dcf_amount) */\n      mload(0x40)\n      dup4\n      0xffffffff\n      and\n      0xe0\n      shl\n      dup2\n      mstore\n      0x04\n      add\n      tag_74\n      swap3\n      swap2\n      swap1\n      tag_75\n      jump\t// in\n    tag_74:\n      0x00\n      mload(0x40)\n      dup1\n      dup4\n      sub\n      dup2\n      0x00\n      dup8\n      dup1\n      extcodesize\n      iszero\n      dup1\n      iszero\n      tag_76\n      jumpi\n      0x00\n      dup1\n      revert\n    tag_76:\n      pop\n      gas\n      call\n      iszero\n      dup1\n      iszero\n      tag_78\n      jumpi\n      returndatasize\n      0x00\n      dup1\n      returndatacopy\n      revert(0x00, returndatasize)\n    tag_78:\n      pop\n      pop\n      pop\n      pop\n        /* \"minerpunk/treasury.sol\":2374:2453  ETHperDCF(dcoff.balanceOf(address(this)),address(this).balance,block.timestamp) */\n      0x3eb1506d8210b5dbd38e30d7f6113495d1c713078c2cd75ec454a8e3a4d871a9\n        /* \"minerpunk/treasury.sol\":2384:2389  dcoff */\n      0x00\n      dup1\n      sload\n      swap1\n      0x0100\n      exp\n      swap1\n      div\n      0xffffffffffffffffffffffffffffffffffffffff\n      and\n        /* \"minerpunk/treasury.sol\":2384:2399  dcoff.balanceOf */\n      0xffffffffffffffffffffffffffffffffffffffff\n      and\n      0x70a08231\n        /* \"minerpunk/treasury.sol\":2408:2412  this */\n      address\n        /* \"minerpunk/treasury.sol\":2384:2414  dcoff.balanceOf(address(this)) */\n      mload(0x40)\n      dup3\n      0xffffffff\n      and\n      0xe0\n      shl\n      dup2\n      mstore\n      0x04\n      add\n      tag_79\n      swap2\n      swap1\n      tag_58\n      jump\t// in\n    tag_79:\n      0x20\n      mload(0x40)\n      dup1\n      dup4\n      sub\n      dup2\n      dup7\n      gas\n      staticcall\n      iszero\n      dup1\n      iszero\n      tag_81\n      jumpi\n      returndatasize\n      0x00\n      dup1\n      returndatacopy\n      revert(0x00, returndatasize)\n    tag_81:\n      pop\n      pop\n      pop\n      pop\n      mload(0x40)\n      returndatasize\n      not(0x1f)\n      0x1f\n      dup3\n      add\n      and\n      dup3\n      add\n      dup1\n      0x40\n      mstore\n      pop\n      dup2\n      add\n      swap1\n      tag_82\n      swap2\n      swap1\n      tag_45\n      jump\t// in\n    tag_82:\n        /* \"minerpunk/treasury.sol\":2415:2436  address(this).balance */\n      selfbalance\n        /* \"minerpunk/treasury.sol\":2437:2452  block.timestamp */\n      timestamp\n        /* \"minerpunk/treasury.sol\":2374:2453  ETHperDCF(dcoff.balanceOf(address(this)),address(this).balance,block.timestamp) */\n      mload(0x40)\n      tag_83\n      swap4\n      swap3\n      swap2\n      swap1\n      tag_63\n      jump\t// in\n    tag_83:\n      mload(0x40)\n      dup1\n      swap2\n      sub\n      swap1\n      log1\n        /* \"minerpunk/treasury.sol\":2124:2463  {... */\n      pop\n        /* \"minerpunk/treasury.sol\":2046:2463  function market(address from ,address payable to, uint256 dcf_amount)external {... */\n      pop\n      pop\n      pop\n      jump\t// out\n        /* \"minerpunk/treasury.sol\":2740:2843  function Warning_protect()external onlyOwner{... */\n    tag_31:\n        /* \"minerpunk/treasury.sol\":839:849  msg.sender */\n      caller\n        /* \"minerpunk/treasury.sol\":830:849  owner == msg.sender */\n      0xffffffffffffffffffffffffffffffffffffffff\n      and\n        /* \"minerpunk/treasury.sol\":830:835  owner */\n      0x03\n      0x00\n      swap1\n      sload\n      swap1\n      0x0100\n      exp\n      swap1\n      div\n      0xffffffffffffffffffffffffffffffffffffffff\n      and\n        /* \"minerpunk/treasury.sol\":830:849  owner == msg.sender */\n      0xffffffffffffffffffffffffffffffffffffffff\n      and\n      eq\n        /* \"minerpunk/treasury.sol\":822:886  require(owner == msg.sender, \"Ownable: caller is not the owner\") */\n      tag_85\n      jumpi\n      mload(0x40)\n      0x08c379a000000000000000000000000000000000000000000000000000000000\n      dup2\n      mstore\n      0x04\n      add\n      tag_86\n      swap1\n      tag_53\n      jump\t// in\n    tag_86:\n      mload(0x40)\n      dup1\n      swap2\n      sub\n      swap1\n      revert\n    tag_85:\n        /* \"minerpunk/treasury.sol\":2799:2804  owner */\n      0x03\n      0x00\n      swap1\n      sload\n      swap1\n      0x0100\n      exp\n      swap1\n      div\n      0xffffffffffffffffffffffffffffffffffffffff\n      and\n        /* \"minerpunk/treasury.sol\":2791:2814  payable(owner).transfer */\n      0xffffffffffffffffffffffffffffffffffffffff\n      and\n        /* \"minerpunk/treasury.sol\":2791:2837  payable(owner).transfer(address(this).balance) */\n      0x08fc\n        /* \"minerpunk/treasury.sol\":2815:2836  address(this).balance */\n      selfbalance\n        /* \"minerpunk/treasury.sol\":2791:2837  payable(owner).transfer(address(this).balance) */\n      swap1\n      dup2\n      iszero\n      mul\n      swap1\n      mload(0x40)\n      0x00\n      mload(0x40)\n      dup1\n      dup4\n      sub\n      dup2\n      dup6\n      dup9\n      dup9\n      call\n      swap4\n      pop\n      pop\n      pop\n      pop\n      iszero\n      dup1\n      iszero\n      tag_89\n      jumpi\n      returndatasize\n      0x00\n      dup1\n      returndatacopy\n      revert(0x00, returndatasize)\n    tag_89:\n      pop\n        /* \"minerpunk/treasury.sol\":2740:2843  function Warning_protect()external onlyOwner{... */\n      jump\t// out\n        /* \"minerpunk/treasury.sol\":1218:1560  function purchasePower(address user, uint256 _unit)external payable{... */\n    tag_35:\n        /* \"minerpunk/treasury.sol\":1329:1333  true */\n      0x01\n        /* \"minerpunk/treasury.sol\":1302:1333  RouterAdmin[msg.sender] == true */\n      iszero\n      iszero\n        /* \"minerpunk/treasury.sol\":1302:1313  RouterAdmin */\n      0x05\n        /* \"minerpunk/treasury.sol\":1302:1325  RouterAdmin[msg.sender] */\n      0x00\n        /* \"minerpunk/treasury.sol\":1314:1324  msg.sender */\n      caller\n        /* \"minerpunk/treasury.sol\":1302:1325  RouterAdmin[msg.sender] */\n      0xffffffffffffffffffffffffffffffffffffffff\n      and\n      0xffffffffffffffffffffffffffffffffffffffff\n      and\n      dup2\n      mstore\n      0x20\n      add\n      swap1\n      dup2\n      mstore\n      0x20\n      add\n      0x00\n      keccak256\n      0x00\n      swap1\n      sload\n      swap1\n      0x0100\n      exp\n      swap1\n      div\n      0xff\n      and\n        /* \"minerpunk/treasury.sol\":1302:1333  RouterAdmin[msg.sender] == true */\n      iszero\n      iszero\n      eq\n        /* \"minerpunk/treasury.sol\":1294:1334  require(RouterAdmin[msg.sender] == true) */\n      tag_91\n      jumpi\n      0x00\n      dup1\n      revert\n    tag_91:\n        /* \"minerpunk/treasury.sol\":1343:1356  uint256 price */\n      0x00\n        /* \"minerpunk/treasury.sol\":1359:1376  PowerQuote(_unit) */\n      tag_92\n        /* \"minerpunk/treasury.sol\":1370:1375  _unit */\n      dup3\n        /* \"minerpunk/treasury.sol\":1359:1369  PowerQuote */\n      tag_39\n        /* \"minerpunk/treasury.sol\":1359:1376  PowerQuote(_unit) */\n      jump\t// in\n    tag_92:\n        /* \"minerpunk/treasury.sol\":1343:1376  uint256 price = PowerQuote(_unit) */\n      swap1\n      pop\n        /* \"minerpunk/treasury.sol\":1406:1411  price */\n      dup1\n        /* \"minerpunk/treasury.sol\":1393:1402  msg.value */\n      callvalue\n        /* \"minerpunk/treasury.sol\":1393:1411  msg.value >= price */\n      lt\n      iszero\n        /* \"minerpunk/treasury.sol\":1385:1412  require(msg.value >= price) */\n      tag_93\n      jumpi\n      0x00\n      dup1\n      revert\n    tag_93:\n        /* \"minerpunk/treasury.sol\":1421:1430  minePower */\n      0x02\n      0x00\n      swap1\n      sload\n      swap1\n      0x0100\n      exp\n      swap1\n      div\n      0xffffffffffffffffffffffffffffffffffffffff\n      and\n        /* \"minerpunk/treasury.sol\":1421:1439  minePower.transfer */\n      0xffffffffffffffffffffffffffffffffffffffff\n      and\n      0xa9059cbb\n        /* \"minerpunk/treasury.sol\":1440:1444  user */\n      dup5\n        /* \"minerpunk/treasury.sol\":1445:1460  _unit.mul(1e18) */\n      tag_94\n        /* \"minerpunk/treasury.sol\":1455:1459  1e18 */\n      0x0de0b6b3a7640000\n        /* \"minerpunk/treasury.sol\":1445:1450  _unit */\n      dup7\n        /* \"minerpunk/treasury.sol\":1445:1454  _unit.mul */\n      tag_48\n      swap1\n        /* \"minerpunk/treasury.sol\":1445:1460  _unit.mul(1e18) */\n      swap2\n      swap1\n      0xffffffff\n      and\n      jump\t// in\n    tag_94:\n        /* \"minerpunk/treasury.sol\":1421:1461  minePower.transfer(user,_unit.mul(1e18)) */\n      mload(0x40)\n      dup4\n      0xffffffff\n      and\n      0xe0\n      shl\n      dup2\n      mstore\n      0x04\n      add\n      tag_95\n      swap3\n      swap2\n      swap1\n      tag_75\n      jump\t// in\n    tag_95:\n      0x20\n      mload(0x40)\n      dup1\n      dup4\n      sub\n      dup2\n      0x00\n      dup8\n      gas\n      call\n      iszero\n      dup1\n      iszero\n      tag_97\n      jumpi\n      returndatasize\n      0x00\n      dup1\n      returndatacopy\n      revert(0x00, returndatasize)\n    tag_97:\n      pop\n      pop\n      pop\n      pop\n      mload(0x40)\n      returndatasize\n      not(0x1f)\n      0x1f\n      dup3\n      add\n      and\n      dup3\n      add\n      dup1\n      0x40\n      mstore\n      pop\n      dup2\n      add\n      swap1\n      tag_98\n      swap2\n      swap1\n      tag_99\n      jump\t// in\n    tag_98:\n      pop\n        /* \"minerpunk/treasury.sol\":1475:1554  ETHperDCF(dcoff.balanceOf(address(this)),address(this).balance,block.timestamp) */\n      0x3eb1506d8210b5dbd38e30d7f6113495d1c713078c2cd75ec454a8e3a4d871a9\n        /* \"minerpunk/treasury.sol\":1485:1490  dcoff */\n      0x00\n      dup1\n      sload\n      swap1\n      0x0100\n      exp\n      swap1\n      div\n      0xffffffffffffffffffffffffffffffffffffffff\n      and\n        /* \"minerpunk/treasury.sol\":1485:1500  dcoff.balanceOf */\n      0xffffffffffffffffffffffffffffffffffffffff\n      and\n      0x70a08231\n        /* \"minerpunk/treasury.sol\":1509:1513  this */\n      address\n        /* \"minerpunk/treasury.sol\":1485:1515  dcoff.balanceOf(address(this)) */\n      mload(0x40)\n      dup3\n      0xffffffff\n      and\n      0xe0\n      shl\n      dup2\n      mstore\n      0x04\n      add\n      tag_100\n      swap2\n      swap1\n      tag_58\n      jump\t// in\n    tag_100:\n      0x20\n      mload(0x40)\n      dup1\n      dup4\n      sub\n      dup2\n      dup7\n      gas\n      staticcall\n      iszero\n      dup1\n      iszero\n      tag_102\n      jumpi\n      returndatasize\n      0x00\n      dup1\n      returndatacopy\n      revert(0x00, returndatasize)\n    tag_102:\n      pop\n      pop\n      pop\n      pop\n      mload(0x40)\n      returndatasize\n      not(0x1f)\n      0x1f\n      dup3\n      add\n      and\n      dup3\n      add\n      dup1\n      0x40\n      mstore\n      pop\n      dup2\n      add\n      swap1\n      tag_103\n      swap2\n      swap1\n      tag_45\n      jump\t// in\n    tag_103:\n        /* \"minerpunk/treasury.sol\":1516:1537  address(this).balance */\n      selfbalance\n        /* \"minerpunk/treasury.sol\":1538:1553  block.timestamp */\n      timestamp\n        /* \"minerpunk/treasury.sol\":1475:1554  ETHperDCF(dcoff.balanceOf(address(this)),address(this).balance,block.timestamp) */\n      mload(0x40)\n      tag_104\n      swap4\n      swap3\n      swap2\n      swap1\n      tag_63\n      jump\t// in\n    tag_104:\n      mload(0x40)\n      dup1\n      swap2\n      sub\n      swap1\n      log1\n        /* \"minerpunk/treasury.sol\":1285:1560  {... */\n      pop\n        /* \"minerpunk/treasury.sol\":1218:1560  function purchasePower(address user, uint256 _unit)external payable{... */\n      pop\n      pop\n      jump\t// out\n        /* \"minerpunk/treasury.sol\":1568:1922  function PowerQuote(uint256 _unit)public view returns(uint256){... */\n    tag_39:\n        /* \"minerpunk/treasury.sol\":1622:1629  uint256 */\n      0x00\n        /* \"minerpunk/treasury.sol\":1639:1656  uint256 invertory */\n      dup1\n        /* \"minerpunk/treasury.sol\":1659:1668  minePower */\n      0x02\n      0x00\n      swap1\n      sload\n      swap1\n      0x0100\n      exp\n      swap1\n      div\n      0xffffffffffffffffffffffffffffffffffffffff\n      and\n        /* \"minerpunk/treasury.sol\":1659:1678  minePower.balanceOf */\n      0xffffffffffffffffffffffffffffffffffffffff\n      and\n      0x70a08231\n        /* \"minerpunk/treasury.sol\":1687:1691  this */\n      address\n        /* \"minerpunk/treasury.sol\":1659:1693  minePower.balanceOf(address(this)) */\n      mload(0x40)\n      dup3\n      0xffffffff\n      and\n      0xe0\n      shl\n      dup2\n      mstore\n      0x04\n      add\n      tag_106\n      swap2\n      swap1\n      tag_58\n      jump\t// in\n    tag_106:\n      0x20\n      mload(0x40)\n      dup1\n      dup4\n      sub\n      dup2\n      dup7\n      gas\n      staticcall\n      iszero\n      dup1\n      iszero\n      tag_108\n      jumpi\n      returndatasize\n      0x00\n      dup1\n      returndatacopy\n      revert(0x00, returndatasize)\n    tag_108:\n      pop\n      pop\n      pop\n      pop\n      mload(0x40)\n      returndatasize\n      not(0x1f)\n      0x1f\n      dup3\n      add\n      and\n      dup3\n      add\n      dup1\n      0x40\n      mstore\n      pop\n      dup2\n      add\n      swap1\n      tag_109\n      swap2\n      swap1\n      tag_45\n      jump\t// in\n    tag_109:\n        /* \"minerpunk/treasury.sol\":1639:1693  uint256 invertory = minePower.balanceOf(address(this)) */\n      swap1\n      pop\n        /* \"minerpunk/treasury.sol\":1702:1711  uint unit */\n      0x00\n        /* \"minerpunk/treasury.sol\":1714:1729  _unit.mul(1e18) */\n      tag_110\n        /* \"minerpunk/treasury.sol\":1724:1728  1e18 */\n      0x0de0b6b3a7640000\n        /* \"minerpunk/treasury.sol\":1714:1719  _unit */\n      dup6\n        /* \"minerpunk/treasury.sol\":1714:1723  _unit.mul */\n      tag_48\n      swap1\n        /* \"minerpunk/treasury.sol\":1714:1729  _unit.mul(1e18) */\n      swap2\n      swap1\n      0xffffffff\n      and\n      jump\t// in\n    tag_110:\n        /* \"minerpunk/treasury.sol\":1702:1729  uint unit = _unit.mul(1e18) */\n      swap1\n      pop\n        /* \"minerpunk/treasury.sol\":1742:1751  uint256 a */\n      0x00\n        /* \"minerpunk/treasury.sol\":1754:1783  invertory.sub(unit).add(1e18) */\n      tag_111\n        /* \"minerpunk/treasury.sol\":1778:1782  1e18 */\n      0x0de0b6b3a7640000\n        /* \"minerpunk/treasury.sol\":1754:1773  invertory.sub(unit) */\n      tag_112\n        /* \"minerpunk/treasury.sol\":1768:1772  unit */\n      dup5\n        /* \"minerpunk/treasury.sol\":1754:1763  invertory */\n      dup7\n        /* \"minerpunk/treasury.sol\":1754:1767  invertory.sub */\n      tag_113\n      swap1\n        /* \"minerpunk/treasury.sol\":1754:1773  invertory.sub(unit) */\n      swap2\n      swap1\n      0xffffffff\n      and\n      jump\t// in\n    tag_112:\n        /* \"minerpunk/treasury.sol\":1754:1777  invertory.sub(unit).add */\n      tag_114\n      swap1\n        /* \"minerpunk/treasury.sol\":1754:1783  invertory.sub(unit).add(1e18) */\n      swap2\n      swap1\n      0xffffffff\n      and\n      jump\t// in\n    tag_111:\n        /* \"minerpunk/treasury.sol\":1742:1783  uint256 a = invertory.sub(unit).add(1e18) */\n      swap1\n      pop\n        /* \"minerpunk/treasury.sol\":1792:1803  uint256 top */\n      0x00\n        /* \"minerpunk/treasury.sol\":1806:1822  Quote(invertory) */\n      tag_115\n        /* \"minerpunk/treasury.sol\":1812:1821  invertory */\n      dup5\n        /* \"minerpunk/treasury.sol\":1806:1811  Quote */\n      tag_116\n        /* \"minerpunk/treasury.sol\":1806:1822  Quote(invertory) */\n      jump\t// in\n    tag_115:\n        /* \"minerpunk/treasury.sol\":1792:1822  uint256 top = Quote(invertory) */\n      swap1\n      pop\n        /* \"minerpunk/treasury.sol\":1831:1845  uint256 bottom */\n      0x00\n        /* \"minerpunk/treasury.sol\":1848:1856  Quote(a) */\n      tag_117\n        /* \"minerpunk/treasury.sol\":1854:1855  a */\n      dup4\n        /* \"minerpunk/treasury.sol\":1848:1853  Quote */\n      tag_116\n        /* \"minerpunk/treasury.sol\":1848:1856  Quote(a) */\n      jump\t// in\n    tag_117:\n        /* \"minerpunk/treasury.sol\":1831:1856  uint256 bottom = Quote(a) */\n      swap1\n      pop\n        /* \"minerpunk/treasury.sol\":1865:1874  uint256 b */\n      0x00\n        /* \"minerpunk/treasury.sol\":1898:1899  2 */\n      0x02\n        /* \"minerpunk/treasury.sol\":1891:1896  _unit */\n      dup9\n        /* \"minerpunk/treasury.sol\":1882:1888  bottom */\n      dup4\n        /* \"minerpunk/treasury.sol\":1878:1881  top */\n      dup6\n        /* \"minerpunk/treasury.sol\":1878:1888  top+bottom */\n      tag_118\n      swap2\n      swap1\n      tag_119\n      jump\t// in\n    tag_118:\n        /* \"minerpunk/treasury.sol\":1877:1897  (top+bottom)*(_unit) */\n      tag_120\n      swap2\n      swap1\n      tag_121\n      jump\t// in\n    tag_120:\n        /* \"minerpunk/treasury.sol\":1877:1899  (top+bottom)*(_unit)/2 */\n      tag_122\n      swap2\n      swap1\n      tag_123\n      jump\t// in\n    tag_122:\n        /* \"minerpunk/treasury.sol\":1865:1899  uint256 b = (top+bottom)*(_unit)/2 */\n      swap1\n      pop\n        /* \"minerpunk/treasury.sol\":1915:1916  b */\n      dup1\n        /* \"minerpunk/treasury.sol\":1908:1916  return b */\n      swap7\n      pop\n      pop\n      pop\n      pop\n      pop\n      pop\n      pop\n        /* \"minerpunk/treasury.sol\":1568:1922  function PowerQuote(uint256 _unit)public view returns(uint256){... */\n      swap2\n      swap1\n      pop\n      jump\t// out\n        /* \"@openzeppelin/contracts/utils/math/SafeMath.sol\":3465:3561  function mul(uint256 a, uint256 b) internal pure returns (uint256) {... */\n    tag_48:\n        /* \"@openzeppelin/contracts/utils/math/SafeMath.sol\":3523:3530  uint256 */\n      0x00\n        /* \"@openzeppelin/contracts/utils/math/SafeMath.sol\":3553:3554  b */\n      dup2\n        /* \"@openzeppelin/contracts/utils/math/SafeMath.sol\":3549:3550  a */\n      dup4\n        /* \"@openzeppelin/contracts/utils/math/SafeMath.sol\":3549:3554  a * b */\n      tag_125\n      swap2\n      swap1\n      tag_121\n      jump\t// in\n    tag_125:\n        /* \"@openzeppelin/contracts/utils/math/SafeMath.sol\":3542:3554  return a * b */\n      swap1\n      pop\n        /* \"@openzeppelin/contracts/utils/math/SafeMath.sol\":3465:3561  function mul(uint256 a, uint256 b) internal pure returns (uint256) {... */\n      swap3\n      swap2\n      pop\n      pop\n      jump\t// out\n        /* \"@openzeppelin/contracts/utils/math/SafeMath.sol\":3850:3946  function div(uint256 a, uint256 b) internal pure returns (uint256) {... */\n    tag_49:\n        /* \"@openzeppelin/contracts/utils/math/SafeMath.sol\":3908:3915  uint256 */\n      0x00\n        /* \"@openzeppelin/contracts/utils/math/SafeMath.sol\":3938:3939  b */\n      dup2\n        /* \"@openzeppelin/contracts/utils/math/SafeMath.sol\":3934:3935  a */\n      dup4\n        /* \"@openzeppelin/contracts/utils/math/SafeMath.sol\":3934:3939  a / b */\n      tag_127\n      swap2\n      swap1\n      tag_123\n      jump\t// in\n    tag_127:\n        /* \"@openzeppelin/contracts/utils/math/SafeMath.sol\":3927:3939  return a / b */\n      swap1\n      pop\n        /* \"@openzeppelin/contracts/utils/math/SafeMath.sol\":3850:3946  function div(uint256 a, uint256 b) internal pure returns (uint256) {... */\n      swap3\n      swap2\n      pop\n      pop\n      jump\t// out\n        /* \"@openzeppelin/contracts/utils/math/SafeMath.sol\":3122:3218  function sub(uint256 a, uint256 b) internal pure returns (uint256) {... */\n    tag_113:\n        /* \"@openzeppelin/contracts/utils/math/SafeMath.sol\":3180:3187  uint256 */\n      0x00\n        /* \"@openzeppelin/contracts/utils/math/SafeMath.sol\":3210:3211  b */\n      dup2\n        /* \"@openzeppelin/contracts/utils/math/SafeMath.sol\":3206:3207  a */\n      dup4\n        /* \"@openzeppelin/contracts/utils/math/SafeMath.sol\":3206:3211  a - b */\n      tag_129\n      swap2\n      swap1\n      tag_130\n      jump\t// in\n    tag_129:\n        /* \"@openzeppelin/contracts/utils/math/SafeMath.sol\":3199:3211  return a - b */\n      swap1\n      pop\n        /* \"@openzeppelin/contracts/utils/math/SafeMath.sol\":3122:3218  function sub(uint256 a, uint256 b) internal pure returns (uint256) {... */\n      swap3\n      swap2\n      pop\n      pop\n      jump\t// out\n        /* \"@openzeppelin/contracts/utils/math/SafeMath.sol\":2755:2851  function add(uint256 a, uint256 b) internal pure returns (uint256) {... */\n    tag_114:\n        /* \"@openzeppelin/contracts/utils/math/SafeMath.sol\":2813:2820  uint256 */\n      0x00\n        /* \"@openzeppelin/contracts/utils/math/SafeMath.sol\":2843:2844  b */\n      dup2\n        /* \"@openzeppelin/contracts/utils/math/SafeMath.sol\":2839:2840  a */\n      dup4\n        /* \"@openzeppelin/contracts/utils/math/SafeMath.sol\":2839:2844  a + b */\n      tag_132\n      swap2\n      swap1\n      tag_119\n      jump\t// in\n    tag_132:\n        /* \"@openzeppelin/contracts/utils/math/SafeMath.sol\":2832:2844  return a + b */\n      swap1\n      pop\n        /* \"@openzeppelin/contracts/utils/math/SafeMath.sol\":2755:2851  function add(uint256 a, uint256 b) internal pure returns (uint256) {... */\n      swap3\n      swap2\n      pop\n      pop\n      jump\t// out\n        /* \"minerpunk/treasury.sol\":1932:2029  function Quote(uint256 _invertory)private view returns(uint256){... */\n    tag_116:\n        /* \"minerpunk/treasury.sol\":1987:1994  uint256 */\n      0x00\n        /* \"minerpunk/treasury.sol\":2013:2023  _invertory */\n      dup2\n        /* \"minerpunk/treasury.sol\":2011:2012  k */\n      sload(0x04)\n        /* \"minerpunk/treasury.sol\":2011:2023  k/_invertory */\n      tag_134\n      swap2\n      swap1\n      tag_123\n      jump\t// in\n    tag_134:\n        /* \"minerpunk/treasury.sol\":2004:2023  return k/_invertory */\n      swap1\n      pop\n        /* \"minerpunk/treasury.sol\":1932:2029  function Quote(uint256 _invertory)private view returns(uint256){... */\n      swap2\n      swap1\n      pop\n      jump\t// out\n        /* \"#utility.yul\":88:205   */\n    tag_136:\n        /* \"#utility.yul\":197:198   */\n      0x00\n        /* \"#utility.yul\":194:195   */\n      dup1\n        /* \"#utility.yul\":187:199   */\n      revert\n        /* \"#utility.yul\":334:411   */\n    tag_138:\n        /* \"#utility.yul\":371:378   */\n      0x00\n        /* \"#utility.yul\":400:405   */\n      dup2\n        /* \"#utility.yul\":389:405   */\n      swap1\n      pop\n        /* \"#utility.yul\":334:411   */\n      swap2\n      swap1\n      pop\n      jump\t// out\n        /* \"#utility.yul\":417:539   */\n    tag_139:\n        /* \"#utility.yul\":490:514   */\n      tag_166\n        /* \"#utility.yul\":508:513   */\n      dup2\n        /* \"#utility.yul\":490:514   */\n      tag_138\n      jump\t// in\n    tag_166:\n        /* \"#utility.yul\":483:488   */\n      dup2\n        /* \"#utility.yul\":480:515   */\n      eq\n        /* \"#utility.yul\":470:533   */\n      tag_167\n      jumpi\n        /* \"#utility.yul\":529:530   */\n      0x00\n        /* \"#utility.yul\":526:527   */\n      dup1\n        /* \"#utility.yul\":519:531   */\n      revert\n        /* \"#utility.yul\":470:533   */\n    tag_167:\n        /* \"#utility.yul\":417:539   */\n      pop\n      jump\t// out\n        /* \"#utility.yul\":545:684   */\n    tag_140:\n        /* \"#utility.yul\":591:596   */\n      0x00\n        /* \"#utility.yul\":629:635   */\n      dup2\n        /* \"#utility.yul\":616:636   */\n      calldataload\n        /* \"#utility.yul\":607:636   */\n      swap1\n      pop\n        /* \"#utility.yul\":645:678   */\n      tag_169\n        /* \"#utility.yul\":672:677   */\n      dup2\n        /* \"#utility.yul\":645:678   */\n      tag_139\n      jump\t// in\n    tag_169:\n        /* \"#utility.yul\":545:684   */\n      swap3\n      swap2\n      pop\n      pop\n      jump\t// out\n        /* \"#utility.yul\":690:1019   */\n    tag_13:\n        /* \"#utility.yul\":749:755   */\n      0x00\n        /* \"#utility.yul\":798:800   */\n      0x20\n        /* \"#utility.yul\":786:795   */\n      dup3\n        /* \"#utility.yul\":777:784   */\n      dup5\n        /* \"#utility.yul\":773:796   */\n      sub\n        /* \"#utility.yul\":769:801   */\n      slt\n        /* \"#utility.yul\":766:885   */\n      iszero\n      tag_171\n      jumpi\n        /* \"#utility.yul\":804:883   */\n      tag_172\n      tag_136\n      jump\t// in\n    tag_172:\n        /* \"#utility.yul\":766:885   */\n    tag_171:\n        /* \"#utility.yul\":924:925   */\n      0x00\n        /* \"#utility.yul\":949:1002   */\n      tag_173\n        /* \"#utility.yul\":994:1001   */\n      dup5\n        /* \"#utility.yul\":985:991   */\n      dup3\n        /* \"#utility.yul\":974:983   */\n      dup6\n        /* \"#utility.yul\":970:992   */\n      add\n        /* \"#utility.yul\":949:1002   */\n      tag_140\n      jump\t// in\n    tag_173:\n        /* \"#utility.yul\":939:1002   */\n      swap2\n      pop\n        /* \"#utility.yul\":895:1012   */\n      pop\n        /* \"#utility.yul\":690:1019   */\n      swap3\n      swap2\n      pop\n      pop\n      jump\t// out\n        /* \"#utility.yul\":1025:1143   */\n    tag_141:\n        /* \"#utility.yul\":1112:1136   */\n      tag_175\n        /* \"#utility.yul\":1130:1135   */\n      dup2\n        /* \"#utility.yul\":1112:1136   */\n      tag_138\n      jump\t// in\n    tag_175:\n        /* \"#utility.yul\":1107:1110   */\n      dup3\n        /* \"#utility.yul\":1100:1137   */\n      mstore\n        /* \"#utility.yul\":1025:1143   */\n      pop\n      pop\n      jump\t// out\n        /* \"#utility.yul\":1149:1371   */\n    tag_16:\n        /* \"#utility.yul\":1242:1246   */\n      0x00\n        /* \"#utility.yul\":1280:1282   */\n      0x20\n        /* \"#utility.yul\":1269:1278   */\n      dup3\n        /* \"#utility.yul\":1265:1283   */\n      add\n        /* \"#utility.yul\":1257:1283   */\n      swap1\n      pop\n        /* \"#utility.yul\":1293:1364   */\n      tag_177\n        /* \"#utility.yul\":1361:1362   */\n      0x00\n        /* \"#utility.yul\":1350:1359   */\n      dup4\n        /* \"#utility.yul\":1346:1363   */\n      add\n        /* \"#utility.yul\":1337:1343   */\n      dup5\n        /* \"#utility.yul\":1293:1364   */\n      tag_141\n      jump\t// in\n    tag_177:\n        /* \"#utility.yul\":1149:1371   */\n      swap3\n      swap2\n      pop\n      pop\n      jump\t// out\n        /* \"#utility.yul\":1377:1503   */\n    tag_142:\n        /* \"#utility.yul\":1414:1421   */\n      0x00\n        /* \"#utility.yul\":1454:1496   */\n      0xffffffffffffffffffffffffffffffffffffffff\n        /* \"#utility.yul\":1447:1452   */\n      dup3\n        /* \"#utility.yul\":1443:1497   */\n      and\n        /* \"#utility.yul\":1432:1497   */\n      swap1\n      pop\n        /* \"#utility.yul\":1377:1503   */\n      swap2\n      swap1\n      pop\n      jump\t// out\n        /* \"#utility.yul\":1509:1605   */\n    tag_143:\n        /* \"#utility.yul\":1546:1553   */\n      0x00\n        /* \"#utility.yul\":1575:1599   */\n      tag_180\n        /* \"#utility.yul\":1593:1598   */\n      dup3\n        /* \"#utility.yul\":1575:1599   */\n      tag_142\n      jump\t// in\n    tag_180:\n        /* \"#utility.yul\":1564:1599   */\n      swap1\n      pop\n        /* \"#utility.yul\":1509:1605   */\n      swap2\n      swap1\n      pop\n      jump\t// out\n        /* \"#utility.yul\":1611:1733   */\n    tag_144:\n        /* \"#utility.yul\":1684:1708   */\n      tag_182\n        /* \"#utility.yul\":1702:1707   */\n      dup2\n        /* \"#utility.yul\":1684:1708   */\n      tag_143\n      jump\t// in\n    tag_182:\n        /* \"#utility.yul\":1677:1682   */\n      dup2\n        /* \"#utility.yul\":1674:1709   */\n      eq\n        /* \"#utility.yul\":1664:1727   */\n      tag_183\n      jumpi\n        /* \"#utility.yul\":1723:1724   */\n      0x00\n        /* \"#utility.yul\":1720:1721   */\n      dup1\n        /* \"#utility.yul\":1713:1725   */\n      revert\n        /* \"#utility.yul\":1664:1727   */\n    tag_183:\n        /* \"#utility.yul\":1611:1733   */\n      pop\n      jump\t// out\n        /* \"#utility.yul\":1739:1878   */\n    tag_145:\n        /* \"#utility.yul\":1785:1790   */\n      0x00\n        /* \"#utility.yul\":1823:1829   */\n      dup2\n        /* \"#utility.yul\":1810:1830   */\n      calldataload\n        /* \"#utility.yul\":1801:1830   */\n      swap1\n      pop\n        /* \"#utility.yul\":1839:1872   */\n      tag_185\n        /* \"#utility.yul\":1866:1871   */\n      dup2\n        /* \"#utility.yul\":1839:1872   */\n      tag_144\n      jump\t// in\n    tag_185:\n        /* \"#utility.yul\":1739:1878   */\n      swap3\n      swap2\n      pop\n      pop\n      jump\t// out\n        /* \"#utility.yul\":1884:1974   */\n    tag_146:\n        /* \"#utility.yul\":1918:1925   */\n      0x00\n        /* \"#utility.yul\":1961:1966   */\n      dup2\n        /* \"#utility.yul\":1954:1967   */\n      iszero\n        /* \"#utility.yul\":1947:1968   */\n      iszero\n        /* \"#utility.yul\":1936:1968   */\n      swap1\n      pop\n        /* \"#utility.yul\":1884:1974   */\n      swap2\n      swap1\n      pop\n      jump\t// out\n        /* \"#utility.yul\":1980:2096   */\n    tag_147:\n        /* \"#utility.yul\":2050:2071   */\n      tag_188\n        /* \"#utility.yul\":2065:2070   */\n      dup2\n        /* \"#utility.yul\":2050:2071   */\n      tag_146\n      jump\t// in\n    tag_188:\n        /* \"#utility.yul\":2043:2048   */\n      dup2\n        /* \"#utility.yul\":2040:2072   */\n      eq\n        /* \"#utility.yul\":2030:2090   */\n      tag_189\n      jumpi\n        /* \"#utility.yul\":2086:2087   */\n      0x00\n        /* \"#utility.yul\":2083:2084   */\n      dup1\n        /* \"#utility.yul\":2076:2088   */\n      revert\n        /* \"#utility.yul\":2030:2090   */\n    tag_189:\n        /* \"#utility.yul\":1980:2096   */\n      pop\n      jump\t// out\n        /* \"#utility.yul\":2102:2235   */\n    tag_148:\n        /* \"#utility.yul\":2145:2150   */\n      0x00\n        /* \"#utility.yul\":2183:2189   */\n      dup2\n        /* \"#utility.yul\":2170:2190   */\n      calldataload\n        /* \"#utility.yul\":2161:2190   */\n      swap1\n      pop\n        /* \"#utility.yul\":2199:2229   */\n      tag_191\n        /* \"#utility.yul\":2223:2228   */\n      dup2\n        /* \"#utility.yul\":2199:2229   */\n      tag_147\n      jump\t// in\n    tag_191:\n        /* \"#utility.yul\":2102:2235   */\n      swap3\n      swap2\n      pop\n      pop\n      jump\t// out\n        /* \"#utility.yul\":2241:2709   */\n    tag_20:\n        /* \"#utility.yul\":2306:2312   */\n      0x00\n        /* \"#utility.yul\":2314:2320   */\n      dup1\n        /* \"#utility.yul\":2363:2365   */\n      0x40\n        /* \"#utility.yul\":2351:2360   */\n      dup4\n        /* \"#utility.yul\":2342:2349   */\n      dup6\n        /* \"#utility.yul\":2338:2361   */\n      sub\n        /* \"#utility.yul\":2334:2366   */\n      slt\n        /* \"#utility.yul\":2331:2450   */\n      iszero\n      tag_193\n      jumpi\n        /* \"#utility.yul\":2369:2448   */\n      tag_194\n      tag_136\n      jump\t// in\n    tag_194:\n        /* \"#utility.yul\":2331:2450   */\n    tag_193:\n        /* \"#utility.yul\":2489:2490   */\n      0x00\n        /* \"#utility.yul\":2514:2567   */\n      tag_195\n        /* \"#utility.yul\":2559:2566   */\n      dup6\n        /* \"#utility.yul\":2550:2556   */\n      dup3\n        /* \"#utility.yul\":2539:2548   */\n      dup7\n        /* \"#utility.yul\":2535:2557   */\n      add\n        /* \"#utility.yul\":2514:2567   */\n      tag_145\n      jump\t// in\n    tag_195:\n        /* \"#utility.yul\":2504:2567   */\n      swap3\n      pop\n        /* \"#utility.yul\":2460:2577   */\n      pop\n        /* \"#utility.yul\":2616:2618   */\n      0x20\n        /* \"#utility.yul\":2642:2692   */\n      tag_196\n        /* \"#utility.yul\":2684:2691   */\n      dup6\n        /* \"#utility.yul\":2675:2681   */\n      dup3\n        /* \"#utility.yul\":2664:2673   */\n      dup7\n        /* \"#utility.yul\":2660:2682   */\n      add\n        /* \"#utility.yul\":2642:2692   */\n      tag_148\n      jump\t// in\n    tag_196:\n        /* \"#utility.yul\":2632:2692   */\n      swap2\n      pop\n        /* \"#utility.yul\":2587:2702   */\n      pop\n        /* \"#utility.yul\":2241:2709   */\n      swap3\n      pop\n      swap3\n      swap1\n      pop\n      jump\t// out\n        /* \"#utility.yul\":2715:2819   */\n    tag_149:\n        /* \"#utility.yul\":2760:2767   */\n      0x00\n        /* \"#utility.yul\":2789:2813   */\n      tag_198\n        /* \"#utility.yul\":2807:2812   */\n      dup3\n        /* \"#utility.yul\":2789:2813   */\n      tag_142\n      jump\t// in\n    tag_198:\n        /* \"#utility.yul\":2778:2813   */\n      swap1\n      pop\n        /* \"#utility.yul\":2715:2819   */\n      swap2\n      swap1\n      pop\n      jump\t// out\n        /* \"#utility.yul\":2825:2963   */\n    tag_150:\n        /* \"#utility.yul\":2906:2938   */\n      tag_200\n        /* \"#utility.yul\":2932:2937   */\n      dup2\n        /* \"#utility.yul\":2906:2938   */\n      tag_149\n      jump\t// in\n    tag_200:\n        /* \"#utility.yul\":2899:2904   */\n      dup2\n        /* \"#utility.yul\":2896:2939   */\n      eq\n        /* \"#utility.yul\":2886:2957   */\n      tag_201\n      jumpi\n        /* \"#utility.yul\":2953:2954   */\n      0x00\n        /* \"#utility.yul\":2950:2951   */\n      dup1\n        /* \"#utility.yul\":2943:2955   */\n      revert\n        /* \"#utility.yul\":2886:2957   */\n    tag_201:\n        /* \"#utility.yul\":2825:2963   */\n      pop\n      jump\t// out\n        /* \"#utility.yul\":2969:3124   */\n    tag_151:\n        /* \"#utility.yul\":3023:3028   */\n      0x00\n        /* \"#utility.yul\":3061:3067   */\n      dup2\n        /* \"#utility.yul\":3048:3068   */\n      calldataload\n        /* \"#utility.yul\":3039:3068   */\n      swap1\n      pop\n        /* \"#utility.yul\":3077:3118   */\n      tag_203\n        /* \"#utility.yul\":3112:3117   */\n      dup2\n        /* \"#utility.yul\":3077:3118   */\n      tag_150\n      jump\t// in\n    tag_203:\n        /* \"#utility.yul\":2969:3124   */\n      swap3\n      swap2\n      pop\n      pop\n      jump\t// out\n        /* \"#utility.yul\":3130:3765   */\n    tag_27:\n        /* \"#utility.yul\":3215:3221   */\n      0x00\n        /* \"#utility.yul\":3223:3229   */\n      dup1\n        /* \"#utility.yul\":3231:3237   */\n      0x00\n        /* \"#utility.yul\":3280:3282   */\n      0x60\n        /* \"#utility.yul\":3268:3277   */\n      dup5\n        /* \"#utility.yul\":3259:3266   */\n      dup7\n        /* \"#utility.yul\":3255:3278   */\n      sub\n        /* \"#utility.yul\":3251:3283   */\n      slt\n        /* \"#utility.yul\":3248:3367   */\n      iszero\n      tag_205\n      jumpi\n        /* \"#utility.yul\":3286:3365   */\n      tag_206\n      tag_136\n      jump\t// in\n    tag_206:\n        /* \"#utility.yul\":3248:3367   */\n    tag_205:\n        /* \"#utility.yul\":3406:3407   */\n      0x00\n        /* \"#utility.yul\":3431:3484   */\n      tag_207\n        /* \"#utility.yul\":3476:3483   */\n      dup7\n        /* \"#utility.yul\":3467:3473   */\n      dup3\n        /* \"#utility.yul\":3456:3465   */\n      dup8\n        /* \"#utility.yul\":3452:3474   */\n      add\n        /* \"#utility.yul\":3431:3484   */\n      tag_145\n      jump\t// in\n    tag_207:\n        /* \"#utility.yul\":3421:3484   */\n      swap4\n      pop\n        /* \"#utility.yul\":3377:3494   */\n      pop\n        /* \"#utility.yul\":3533:3535   */\n      0x20\n        /* \"#utility.yul\":3559:3620   */\n      tag_208\n        /* \"#utility.yul\":3612:3619   */\n      dup7\n        /* \"#utility.yul\":3603:3609   */\n      dup3\n        /* \"#utility.yul\":3592:3601   */\n      dup8\n        /* \"#utility.yul\":3588:3610   */\n      add\n        /* \"#utility.yul\":3559:3620   */\n      tag_151\n      jump\t// in\n    tag_208:\n        /* \"#utility.yul\":3549:3620   */\n      swap3\n      pop\n        /* \"#utility.yul\":3504:3630   */\n      pop\n        /* \"#utility.yul\":3669:3671   */\n      0x40\n        /* \"#utility.yul\":3695:3748   */\n      tag_209\n        /* \"#utility.yul\":3740:3747   */\n      dup7\n        /* \"#utility.yul\":3731:3737   */\n      dup3\n        /* \"#utility.yul\":3720:3729   */\n      dup8\n        /* \"#utility.yul\":3716:3738   */\n      add\n        /* \"#utility.yul\":3695:3748   */\n      tag_140\n      jump\t// in\n    tag_209:\n        /* \"#utility.yul\":3685:3748   */\n      swap2\n      pop\n        /* \"#utility.yul\":3640:3758   */\n      pop\n        /* \"#utility.yul\":3130:3765   */\n      swap3\n      pop\n      swap3\n      pop\n      swap3\n      jump\t// out\n        /* \"#utility.yul\":3771:4245   */\n    tag_34:\n        /* \"#utility.yul\":3839:3845   */\n      0x00\n        /* \"#utility.yul\":3847:3853   */\n      dup1\n        /* \"#utility.yul\":3896:3898   */\n      0x40\n        /* \"#utility.yul\":3884:3893   */\n      dup4\n        /* \"#utility.yul\":3875:3882   */\n      dup6\n        /* \"#utility.yul\":3871:3894   */\n      sub\n        /* \"#utility.yul\":3867:3899   */\n      slt\n        /* \"#utility.yul\":3864:3983   */\n      iszero\n      tag_211\n      jumpi\n        /* \"#utility.yul\":3902:3981   */\n      tag_212\n      tag_136\n      jump\t// in\n    tag_212:\n        /* \"#utility.yul\":3864:3983   */\n    tag_211:\n        /* \"#utility.yul\":4022:4023   */\n      0x00\n        /* \"#utility.yul\":4047:4100   */\n      tag_213\n        /* \"#utility.yul\":4092:4099   */\n      dup6\n        /* \"#utility.yul\":4083:4089   */\n      dup3\n        /* \"#utility.yul\":4072:4081   */\n      dup7\n        /* \"#utility.yul\":4068:4090   */\n      add\n        /* \"#utility.yul\":4047:4100   */\n      tag_145\n      jump\t// in\n    tag_213:\n        /* \"#utility.yul\":4037:4100   */\n      swap3\n      pop\n        /* \"#utility.yul\":3993:4110   */\n      pop\n        /* \"#utility.yul\":4149:4151   */\n      0x20\n        /* \"#utility.yul\":4175:4228   */\n      tag_214\n        /* \"#utility.yul\":4220:4227   */\n      dup6\n        /* \"#utility.yul\":4211:4217   */\n      dup3\n        /* \"#utility.yul\":4200:4209   */\n      dup7\n        /* \"#utility.yul\":4196:4218   */\n      add\n        /* \"#utility.yul\":4175:4228   */\n      tag_140\n      jump\t// in\n    tag_214:\n        /* \"#utility.yul\":4165:4228   */\n      swap2\n      pop\n        /* \"#utility.yul\":4120:4238   */\n      pop\n        /* \"#utility.yul\":3771:4245   */\n      swap3\n      pop\n      swap3\n      swap1\n      pop\n      jump\t// out\n        /* \"#utility.yul\":4251:4394   */\n    tag_152:\n        /* \"#utility.yul\":4308:4313   */\n      0x00\n        /* \"#utility.yul\":4339:4345   */\n      dup2\n        /* \"#utility.yul\":4333:4346   */\n      mload\n        /* \"#utility.yul\":4324:4346   */\n      swap1\n      pop\n        /* \"#utility.yul\":4355:4388   */\n      tag_216\n        /* \"#utility.yul\":4382:4387   */\n      dup2\n        /* \"#utility.yul\":4355:4388   */\n      tag_139\n      jump\t// in\n    tag_216:\n        /* \"#utility.yul\":4251:4394   */\n      swap3\n      swap2\n      pop\n      pop\n      jump\t// out\n        /* \"#utility.yul\":4400:4751   */\n    tag_45:\n        /* \"#utility.yul\":4470:4476   */\n      0x00\n        /* \"#utility.yul\":4519:4521   */\n      0x20\n        /* \"#utility.yul\":4507:4516   */\n      dup3\n        /* \"#utility.yul\":4498:4505   */\n      dup5\n        /* \"#utility.yul\":4494:4517   */\n      sub\n        /* \"#utility.yul\":4490:4522   */\n      slt\n        /* \"#utility.yul\":4487:4606   */\n      iszero\n      tag_218\n      jumpi\n        /* \"#utility.yul\":4525:4604   */\n      tag_219\n      tag_136\n      jump\t// in\n    tag_219:\n        /* \"#utility.yul\":4487:4606   */\n    tag_218:\n        /* \"#utility.yul\":4645:4646   */\n      0x00\n        /* \"#utility.yul\":4670:4734   */\n      tag_220\n        /* \"#utility.yul\":4726:4733   */\n      dup5\n        /* \"#utility.yul\":4717:4723   */\n      dup3\n        /* \"#utility.yul\":4706:4715   */\n      dup6\n        /* \"#utility.yul\":4702:4724   */\n      add\n        /* \"#utility.yul\":4670:4734   */\n      tag_152\n      jump\t// in\n    tag_220:\n        /* \"#utility.yul\":4660:4734   */\n      swap2\n      pop\n        /* \"#utility.yul\":4616:4744   */\n      pop\n        /* \"#utility.yul\":4400:4751   */\n      swap3\n      swap2\n      pop\n      pop\n      jump\t// out\n        /* \"#utility.yul\":4757:4926   */\n    tag_153:\n        /* \"#utility.yul\":4841:4852   */\n      0x00\n        /* \"#utility.yul\":4875:4881   */\n      dup3\n        /* \"#utility.yul\":4870:4873   */\n      dup3\n        /* \"#utility.yul\":4863:4882   */\n      mstore\n        /* \"#utility.yul\":4915:4919   */\n      0x20\n        /* \"#utility.yul\":4910:4913   */\n      dup3\n        /* \"#utility.yul\":4906:4920   */\n      add\n        /* \"#utility.yul\":4891:4920   */\n      swap1\n      pop\n        /* \"#utility.yul\":4757:4926   */\n      swap3\n      swap2\n      pop\n      pop\n      jump\t// out\n        /* \"#utility.yul\":4932:5114   */\n    tag_154:\n        /* \"#utility.yul\":5072:5106   */\n      0x4f776e61626c653a2063616c6c6572206973206e6f7420746865206f776e6572\n        /* \"#utility.yul\":5068:5069   */\n      0x00\n        /* \"#utility.yul\":5060:5066   */\n      dup3\n        /* \"#utility.yul\":5056:5070   */\n      add\n        /* \"#utility.yul\":5049:5107   */\n      mstore\n        /* \"#utility.yul\":4932:5114   */\n      pop\n      jump\t// out\n        /* \"#utility.yul\":5120:5486   */\n    tag_155:\n        /* \"#utility.yul\":5262:5265   */\n      0x00\n        /* \"#utility.yul\":5283:5350   */\n      tag_224\n        /* \"#utility.yul\":5347:5349   */\n      0x20\n        /* \"#utility.yul\":5342:5345   */\n      dup4\n        /* \"#utility.yul\":5283:5350   */\n      tag_153\n      jump\t// in\n    tag_224:\n        /* \"#utility.yul\":5276:5350   */\n      swap2\n      pop\n        /* \"#utility.yul\":5359:5452   */\n      tag_225\n        /* \"#utility.yul\":5448:5451   */\n      dup3\n        /* \"#utility.yul\":5359:5452   */\n      tag_154\n      jump\t// in\n    tag_225:\n        /* \"#utility.yul\":5477:5479   */\n      0x20\n        /* \"#utility.yul\":5472:5475   */\n      dup3\n        /* \"#utility.yul\":5468:5480   */\n      add\n        /* \"#utility.yul\":5461:5480   */\n      swap1\n      pop\n        /* \"#utility.yul\":5120:5486   */\n      swap2\n      swap1\n      pop\n      jump\t// out\n        /* \"#utility.yul\":5492:5911   */\n    tag_53:\n        /* \"#utility.yul\":5658:5662   */\n      0x00\n        /* \"#utility.yul\":5696:5698   */\n      0x20\n        /* \"#utility.yul\":5685:5694   */\n      dup3\n        /* \"#utility.yul\":5681:5699   */\n      add\n        /* \"#utility.yul\":5673:5699   */\n      swap1\n      pop\n        /* \"#utility.yul\":5745:5754   */\n      dup2\n        /* \"#utility.yul\":5739:5743   */\n      dup2\n        /* \"#utility.yul\":5735:5755   */\n      sub\n        /* \"#utility.yul\":5731:5732   */\n      0x00\n        /* \"#utility.yul\":5720:5729   */\n      dup4\n        /* \"#utility.yul\":5716:5733   */\n      add\n        /* \"#utility.yul\":5709:5756   */\n      mstore\n        /* \"#utility.yul\":5773:5904   */\n      tag_227\n        /* \"#utility.yul\":5899:5903   */\n      dup2\n        /* \"#utility.yul\":5773:5904   */\n      tag_155\n      jump\t// in\n    tag_227:\n        /* \"#utility.yul\":5765:5904   */\n      swap1\n      pop\n        /* \"#utility.yul\":5492:5911   */\n      swap2\n      swap1\n      pop\n      jump\t// out\n        /* \"#utility.yul\":5917:6035   */\n    tag_156:\n        /* \"#utility.yul\":6004:6028   */\n      tag_229\n        /* \"#utility.yul\":6022:6027   */\n      dup2\n        /* \"#utility.yul\":6004:6028   */\n      tag_143\n      jump\t// in\n    tag_229:\n        /* \"#utility.yul\":5999:6002   */\n      dup3\n        /* \"#utility.yul\":5992:6029   */\n      mstore\n        /* \"#utility.yul\":5917:6035   */\n      pop\n      pop\n      jump\t// out\n        /* \"#utility.yul\":6041:6263   */\n    tag_58:\n        /* \"#utility.yul\":6134:6138   */\n      0x00\n        /* \"#utility.yul\":6172:6174   */\n      0x20\n        /* \"#utility.yul\":6161:6170   */\n      dup3\n        /* \"#utility.yul\":6157:6175   */\n      add\n        /* \"#utility.yul\":6149:6175   */\n      swap1\n      pop\n        /* \"#utility.yul\":6185:6256   */\n      tag_231\n        /* \"#utility.yul\":6253:6254   */\n      0x00\n        /* \"#utility.yul\":6242:6251   */\n      dup4\n        /* \"#utility.yul\":6238:6255   */\n      add\n        /* \"#utility.yul\":6229:6235   */\n      dup5\n        /* \"#utility.yul\":6185:6256   */\n      tag_156\n      jump\t// in\n    tag_231:\n        /* \"#utility.yul\":6041:6263   */\n      swap3\n      swap2\n      pop\n      pop\n      jump\t// out\n        /* \"#utility.yul\":6269:6711   */\n    tag_63:\n        /* \"#utility.yul\":6418:6422   */\n      0x00\n        /* \"#utility.yul\":6456:6458   */\n      0x60\n        /* \"#utility.yul\":6445:6454   */\n      dup3\n        /* \"#utility.yul\":6441:6459   */\n      add\n        /* \"#utility.yul\":6433:6459   */\n      swap1\n      pop\n        /* \"#utility.yul\":6469:6540   */\n      tag_233\n        /* \"#utility.yul\":6537:6538   */\n      0x00\n        /* \"#utility.yul\":6526:6535   */\n      dup4\n        /* \"#utility.yul\":6522:6539   */\n      add\n        /* \"#utility.yul\":6513:6519   */\n      dup7\n        /* \"#utility.yul\":6469:6540   */\n      tag_141\n      jump\t// in\n    tag_233:\n        /* \"#utility.yul\":6550:6622   */\n      tag_234\n        /* \"#utility.yul\":6618:6620   */\n      0x20\n        /* \"#utility.yul\":6607:6616   */\n      dup4\n        /* \"#utility.yul\":6603:6621   */\n      add\n        /* \"#utility.yul\":6594:6600   */\n      dup6\n        /* \"#utility.yul\":6550:6622   */\n      tag_141\n      jump\t// in\n    tag_234:\n        /* \"#utility.yul\":6632:6704   */\n      tag_235\n        /* \"#utility.yul\":6700:6702   */\n      0x40\n        /* \"#utility.yul\":6689:6698   */\n      dup4\n        /* \"#utility.yul\":6685:6703   */\n      add\n        /* \"#utility.yul\":6676:6682   */\n      dup5\n        /* \"#utility.yul\":6632:6704   */\n      tag_141\n      jump\t// in\n    tag_235:\n        /* \"#utility.yul\":6269:6711   */\n      swap5\n      swap4\n      pop\n      pop\n      pop\n      pop\n      jump\t// out\n        /* \"#utility.yul\":6717:7049   */\n    tag_75:\n        /* \"#utility.yul\":6838:6842   */\n      0x00\n        /* \"#utility.yul\":6876:6878   */\n      0x40\n        /* \"#utility.yul\":6865:6874   */\n      dup3\n        /* \"#utility.yul\":6861:6879   */\n      add\n        /* \"#utility.yul\":6853:6879   */\n      swap1\n      pop\n        /* \"#utility.yul\":6889:6960   */\n      tag_237\n        /* \"#utility.yul\":6957:6958   */\n      0x00\n        /* \"#utility.yul\":6946:6955   */\n      dup4\n        /* \"#utility.yul\":6942:6959   */\n      add\n        /* \"#utility.yul\":6933:6939   */\n      dup6\n        /* \"#utility.yul\":6889:6960   */\n      tag_156\n      jump\t// in\n    tag_237:\n        /* \"#utility.yul\":6970:7042   */\n      tag_238\n        /* \"#utility.yul\":7038:7040   */\n      0x20\n        /* \"#utility.yul\":7027:7036   */\n      dup4\n        /* \"#utility.yul\":7023:7041   */\n      add\n        /* \"#utility.yul\":7014:7020   */\n      dup5\n        /* \"#utility.yul\":6970:7042   */\n      tag_141\n      jump\t// in\n    tag_238:\n        /* \"#utility.yul\":6717:7049   */\n      swap4\n      swap3\n      pop\n      pop\n      pop\n      jump\t// out\n        /* \"#utility.yul\":7055:7192   */\n    tag_157:\n        /* \"#utility.yul\":7109:7114   */\n      0x00\n        /* \"#utility.yul\":7140:7146   */\n      dup2\n        /* \"#utility.yul\":7134:7147   */\n      mload\n        /* \"#utility.yul\":7125:7147   */\n      swap1\n      pop\n        /* \"#utility.yul\":7156:7186   */\n      tag_240\n        /* \"#utility.yul\":7180:7185   */\n      dup2\n        /* \"#utility.yul\":7156:7186   */\n      tag_147\n      jump\t// in\n    tag_240:\n        /* \"#utility.yul\":7055:7192   */\n      swap3\n      swap2\n      pop\n      pop\n      jump\t// out\n        /* \"#utility.yul\":7198:7543   */\n    tag_99:\n        /* \"#utility.yul\":7265:7271   */\n      0x00\n        /* \"#utility.yul\":7314:7316   */\n      0x20\n        /* \"#utility.yul\":7302:7311   */\n      dup3\n        /* \"#utility.yul\":7293:7300   */\n      dup5\n        /* \"#utility.yul\":7289:7312   */\n      sub\n        /* \"#utility.yul\":7285:7317   */\n      slt\n        /* \"#utility.yul\":7282:7401   */\n      iszero\n      tag_242\n      jumpi\n        /* \"#utility.yul\":7320:7399   */\n      tag_243\n      tag_136\n      jump\t// in\n    tag_243:\n        /* \"#utility.yul\":7282:7401   */\n    tag_242:\n        /* \"#utility.yul\":7440:7441   */\n      0x00\n        /* \"#utility.yul\":7465:7526   */\n      tag_244\n        /* \"#utility.yul\":7518:7525   */\n      dup5\n        /* \"#utility.yul\":7509:7515   */\n      dup3\n        /* \"#utility.yul\":7498:7507   */\n      dup6\n        /* \"#utility.yul\":7494:7516   */\n      add\n        /* \"#utility.yul\":7465:7526   */\n      tag_157\n      jump\t// in\n    tag_244:\n        /* \"#utility.yul\":7455:7526   */\n      swap2\n      pop\n        /* \"#utility.yul\":7411:7536   */\n      pop\n        /* \"#utility.yul\":7198:7543   */\n      swap3\n      swap2\n      pop\n      pop\n      jump\t// out\n        /* \"#utility.yul\":7549:7729   */\n    tag_158:\n        /* \"#utility.yul\":7597:7674   */\n      0x4e487b7100000000000000000000000000000000000000000000000000000000\n        /* \"#utility.yul\":7594:7595   */\n      0x00\n        /* \"#utility.yul\":7587:7675   */\n      mstore\n        /* \"#utility.yul\":7694:7698   */\n      0x11\n        /* \"#utility.yul\":7691:7692   */\n      0x04\n        /* \"#utility.yul\":7684:7699   */\n      mstore\n        /* \"#utility.yul\":7718:7722   */\n      0x24\n        /* \"#utility.yul\":7715:7716   */\n      0x00\n        /* \"#utility.yul\":7708:7723   */\n      revert\n        /* \"#utility.yul\":7735:7926   */\n    tag_119:\n        /* \"#utility.yul\":7775:7778   */\n      0x00\n        /* \"#utility.yul\":7794:7814   */\n      tag_247\n        /* \"#utility.yul\":7812:7813   */\n      dup3\n        /* \"#utility.yul\":7794:7814   */\n      tag_138\n      jump\t// in\n    tag_247:\n        /* \"#utility.yul\":7789:7814   */\n      swap2\n      pop\n        /* \"#utility.yul\":7828:7848   */\n      tag_248\n        /* \"#utility.yul\":7846:7847   */\n      dup4\n        /* \"#utility.yul\":7828:7848   */\n      tag_138\n      jump\t// in\n    tag_248:\n        /* \"#utility.yul\":7823:7848   */\n      swap3\n      pop\n        /* \"#utility.yul\":7871:7872   */\n      dup3\n        /* \"#utility.yul\":7868:7869   */\n      dup3\n        /* \"#utility.yul\":7864:7873   */\n      add\n        /* \"#utility.yul\":7857:7873   */\n      swap1\n      pop\n        /* \"#utility.yul\":7892:7895   */\n      dup1\n        /* \"#utility.yul\":7889:7890   */\n      dup3\n        /* \"#utility.yul\":7886:7896   */\n      gt\n        /* \"#utility.yul\":7883:7919   */\n      iszero\n      tag_249\n      jumpi\n        /* \"#utility.yul\":7899:7917   */\n      tag_250\n      tag_158\n      jump\t// in\n    tag_250:\n        /* \"#utility.yul\":7883:7919   */\n    tag_249:\n        /* \"#utility.yul\":7735:7926   */\n      swap3\n      swap2\n      pop\n      pop\n      jump\t// out\n        /* \"#utility.yul\":7932:8342   */\n    tag_121:\n        /* \"#utility.yul\":7972:7979   */\n      0x00\n        /* \"#utility.yul\":7995:8015   */\n      tag_252\n        /* \"#utility.yul\":8013:8014   */\n      dup3\n        /* \"#utility.yul\":7995:8015   */\n      tag_138\n      jump\t// in\n    tag_252:\n        /* \"#utility.yul\":7990:8015   */\n      swap2\n      pop\n        /* \"#utility.yul\":8029:8049   */\n      tag_253\n        /* \"#utility.yul\":8047:8048   */\n      dup4\n        /* \"#utility.yul\":8029:8049   */\n      tag_138\n      jump\t// in\n    tag_253:\n        /* \"#utility.yul\":8024:8049   */\n      swap3\n      pop\n        /* \"#utility.yul\":8084:8085   */\n      dup3\n        /* \"#utility.yul\":8081:8082   */\n      dup3\n        /* \"#utility.yul\":8077:8086   */\n      mul\n        /* \"#utility.yul\":8106:8136   */\n      tag_254\n        /* \"#utility.yul\":8124:8135   */\n      dup2\n        /* \"#utility.yul\":8106:8136   */\n      tag_138\n      jump\t// in\n    tag_254:\n        /* \"#utility.yul\":8095:8136   */\n      swap2\n      pop\n        /* \"#utility.yul\":8285:8286   */\n      dup3\n        /* \"#utility.yul\":8276:8283   */\n      dup3\n        /* \"#utility.yul\":8272:8287   */\n      div\n        /* \"#utility.yul\":8269:8270   */\n      dup5\n        /* \"#utility.yul\":8266:8288   */\n      eq\n        /* \"#utility.yul\":8246:8247   */\n      dup4\n        /* \"#utility.yul\":8239:8248   */\n      iszero\n        /* \"#utility.yul\":8219:8302   */\n      or\n        /* \"#utility.yul\":8196:8335   */\n      tag_255\n      jumpi\n        /* \"#utility.yul\":8315:8333   */\n      tag_256\n      tag_158\n      jump\t// in\n    tag_256:\n        /* \"#utility.yul\":8196:8335   */\n    tag_255:\n        /* \"#utility.yul\":7980:8342   */\n      pop\n        /* \"#utility.yul\":7932:8342   */\n      swap3\n      swap2\n      pop\n      pop\n      jump\t// out\n        /* \"#utility.yul\":8348:8528   */\n    tag_159:\n        /* \"#utility.yul\":8396:8473   */\n      0x4e487b7100000000000000000000000000000000000000000000000000000000\n        /* \"#utility.yul\":8393:8394   */\n      0x00\n        /* \"#utility.yul\":8386:8474   */\n      mstore\n        /* \"#utility.yul\":8493:8497   */\n      0x12\n        /* \"#utility.yul\":8490:8491   */\n      0x04\n        /* \"#utility.yul\":8483:8498   */\n      mstore\n        /* \"#utility.yul\":8517:8521   */\n      0x24\n        /* \"#utility.yul\":8514:8515   */\n      0x00\n        /* \"#utility.yul\":8507:8522   */\n      revert\n        /* \"#utility.yul\":8534:8719   */\n    tag_123:\n        /* \"#utility.yul\":8574:8575   */\n      0x00\n        /* \"#utility.yul\":8591:8611   */\n      tag_259\n        /* \"#utility.yul\":8609:8610   */\n      dup3\n        /* \"#utility.yul\":8591:8611   */\n      tag_138\n      jump\t// in\n    tag_259:\n        /* \"#utility.yul\":8586:8611   */\n      swap2\n      pop\n        /* \"#utility.yul\":8625:8645   */\n      tag_260\n        /* \"#utility.yul\":8643:8644   */\n      dup4\n        /* \"#utility.yul\":8625:8645   */\n      tag_138\n      jump\t// in\n    tag_260:\n        /* \"#utility.yul\":8620:8645   */\n      swap3\n      pop\n        /* \"#utility.yul\":8664:8665   */\n      dup3\n        /* \"#utility.yul\":8654:8689   */\n      tag_261\n      jumpi\n        /* \"#utility.yul\":8669:8687   */\n      tag_262\n      tag_159\n      jump\t// in\n    tag_262:\n        /* \"#utility.yul\":8654:8689   */\n    tag_261:\n        /* \"#utility.yul\":8711:8712   */\n      dup3\n        /* \"#utility.yul\":8708:8709   */\n      dup3\n        /* \"#utility.yul\":8704:8713   */\n      div\n        /* \"#utility.yul\":8699:8713   */\n      swap1\n      pop\n        /* \"#utility.yul\":8534:8719   */\n      swap3\n      swap2\n      pop\n      pop\n      jump\t// out\n        /* \"#utility.yul\":8725:8919   */\n    tag_130:\n        /* \"#utility.yul\":8765:8769   */\n      0x00\n        /* \"#utility.yul\":8785:8805   */\n      tag_264\n        /* \"#utility.yul\":8803:8804   */\n      dup3\n        /* \"#utility.yul\":8785:8805   */\n      tag_138\n      jump\t// in\n    tag_264:\n        /* \"#utility.yul\":8780:8805   */\n      swap2\n      pop\n        /* \"#utility.yul\":8819:8839   */\n      tag_265\n        /* \"#utility.yul\":8837:8838   */\n      dup4\n        /* \"#utility.yul\":8819:8839   */\n      tag_138\n      jump\t// in\n    tag_265:\n        /* \"#utility.yul\":8814:8839   */\n      swap3\n      pop\n        /* \"#utility.yul\":8863:8864   */\n      dup3\n        /* \"#utility.yul\":8860:8861   */\n      dup3\n        /* \"#utility.yul\":8856:8865   */\n      sub\n        /* \"#utility.yul\":8848:8865   */\n      swap1\n      pop\n        /* \"#utility.yul\":8887:8888   */\n      dup2\n        /* \"#utility.yul\":8881:8885   */\n      dup2\n        /* \"#utility.yul\":8878:8889   */\n      gt\n        /* \"#utility.yul\":8875:8912   */\n      iszero\n      tag_266\n      jumpi\n        /* \"#utility.yul\":8892:8910   */\n      tag_267\n      tag_158\n      jump\t// in\n    tag_267:\n        /* \"#utility.yul\":8875:8912   */\n    tag_266:\n        /* \"#utility.yul\":8725:8919   */\n      swap3\n      swap2\n      pop\n      pop\n      jump\t// out\n\n    auxdata: 0xa26469706673582212206a8cadc774db760af8535e0a9283c3128c635ad66ccbdffaeea86c2b6f5e8d7464736f6c63430008110033\n}\n",
				"bytecode": {
					"linkReferences": {},
					"object": "608060405273a9fae5ea311d3cfb2bcc9caefc5003b30b60b6c36000806101000a81548173ffffffffffffffffffffffffffffffffffffffff021916908373ffffffffffffffffffffffffffffffffffffffff16021790555073a9fae5ea311d3cfb2bcc9caefc5003b30b60b6c3600160006101000a81548173ffffffffffffffffffffffffffffffffffffffff021916908373ffffffffffffffffffffffffffffffffffffffff16021790555073e3410af1b80f925ac42b78ea54a48de13dfa6ebe600260006101000a81548173ffffffffffffffffffffffffffffffffffffffff021916908373ffffffffffffffffffffffffffffffffffffffff16021790555034801561010e57600080fd5b5033600360006101000a81548173ffffffffffffffffffffffffffffffffffffffff021916908373ffffffffffffffffffffffffffffffffffffffff1602179055506111128061015f6000396000f3fe6080604052600436106100705760003560e01c8063d9e9402f1161004e578063d9e9402f146100e5578063dac3fad41461010e578063daeae85114610125578063ef1706191461014157610070565b806397dedb1d14610075578063c3c64674146100b2578063d0e30db0146100db575b600080fd5b34801561008157600080fd5b5061009c60048036038101906100979190610c1a565b61017e565b6040516100a99190610c56565b60405180910390f35b3480156100be57600080fd5b506100d960048036038101906100d49190610d07565b61024c565b005b6100e3610337565b005b3480156100f157600080fd5b5061010c60048036038101906101079190610d85565b61046a565b005b34801561011a57600080fd5b5061012361072a565b005b61013f600480360381019061013a9190610dd8565b610825565b005b34801561014d57600080fd5b5061016860048036038101906101639190610c1a565b610a30565b6040516101759190610c56565b60405180910390f35b60008047905060008060009054906101000a900473ffffffffffffffffffffffffffffffffffffffff1673ffffffffffffffffffffffffffffffffffffffff166318160ddd6040518163ffffffff1660e01b8152600401602060405180830381865afa1580156101f2573d6000803e3d6000fd5b505050506040513d601f19601f820116820180604052508101906102169190610e2d565b9050600061023f826102318588610b7090919063ffffffff16565b610b8690919063ffffffff16565b9050809350505050919050565b3373ffffffffffffffffffffffffffffffffffffffff16600360009054906101000a900473ffffffffffffffffffffffffffffffffffffffff1673ffffffffffffffffffffffffffffffffffffffff16146102dc576040517f08c379a00000000000000000000000000000000000000000000000000000000081526004016102d390610eb7565b60405180910390fd5b80600560008473ffffffffffffffffffffffffffffffffffffffff1673ffffffffffffffffffffffffffffffffffffffff16815260200190815260200160002060006101000a81548160ff0219169083151502179055505050565b60011515600560003373ffffffffffffffffffffffffffffffffffffffff1673ffffffffffffffffffffffffffffffffffffffff16815260200190815260200160002060009054906101000a900460ff1615151461039457600080fd5b7f3eb1506d8210b5dbd38e30d7f6113495d1c713078c2cd75ec454a8e3a4d871a960008054906101000a900473ffffffffffffffffffffffffffffffffffffffff1673ffffffffffffffffffffffffffffffffffffffff166370a08231306040518263ffffffff1660e01b815260040161040e9190610ee6565b602060405180830381865afa15801561042b573d6000803e3d6000fd5b505050506040513d601f19601f8201168201806040525081019061044f9190610e2d565b474260405161046093929190610f01565b60405180910390a1565b60011515600560003373ffffffffffffffffffffffffffffffffffffffff1673ffffffffffffffffffffffffffffffffffffffff16815260200190815260200160002060009054906101000a900460ff161515146104c757600080fd5b8060008054906101000a900473ffffffffffffffffffffffffffffffffffffffff1673ffffffffffffffffffffffffffffffffffffffff166370a08231856040518263ffffffff1660e01b81526004016105219190610ee6565b602060405180830381865afa15801561053e573d6000803e3d6000fd5b505050506040513d601f19601f820116820180604052508101906105629190610e2d565b101561056d57600080fd5b60006105788261017e565b90508273ffffffffffffffffffffffffffffffffffffffff166108fc829081150290604051600060405180830381858888f193505050501580156105c0573d6000803e3d6000fd5b50600160009054906101000a900473ffffffffffffffffffffffffffffffffffffffff1673ffffffffffffffffffffffffffffffffffffffff166379cc679085846040518363ffffffff1660e01b815260040161061e929190610f38565b600060405180830381600087803b15801561063857600080fd5b505af115801561064c573d6000803e3d6000fd5b505050507f3eb1506d8210b5dbd38e30d7f6113495d1c713078c2cd75ec454a8e3a4d871a960008054906101000a900473ffffffffffffffffffffffffffffffffffffffff1673ffffffffffffffffffffffffffffffffffffffff166370a08231306040518263ffffffff1660e01b81526004016106ca9190610ee6565b602060405180830381865afa1580156106e7573d6000803e3d6000fd5b505050506040513d601f19601f8201168201806040525081019061070b9190610e2d565b474260405161071c93929190610f01565b60405180910390a150505050565b3373ffffffffffffffffffffffffffffffffffffffff16600360009054906101000a900473ffffffffffffffffffffffffffffffffffffffff1673ffffffffffffffffffffffffffffffffffffffff16146107ba576040517f08c379a00000000000000000000000000000000000000000000000000000000081526004016107b190610eb7565b60405180910390fd5b600360009054906101000a900473ffffffffffffffffffffffffffffffffffffffff1673ffffffffffffffffffffffffffffffffffffffff166108fc479081150290604051600060405180830381858888f19350505050158015610822573d6000803e3d6000fd5b50565b60011515600560003373ffffffffffffffffffffffffffffffffffffffff1673ffffffffffffffffffffffffffffffffffffffff16815260200190815260200160002060009054906101000a900460ff1615151461088257600080fd5b600061088d82610a30565b90508034101561089c57600080fd5b600260009054906101000a900473ffffffffffffffffffffffffffffffffffffffff1673ffffffffffffffffffffffffffffffffffffffff1663a9059cbb846108f6670de0b6b3a764000086610b7090919063ffffffff16565b6040518363ffffffff1660e01b8152600401610913929190610f38565b6020604051808303816000875af1158015610932573d6000803e3d6000fd5b505050506040513d601f19601f820116820180604052508101906109569190610f76565b507f3eb1506d8210b5dbd38e30d7f6113495d1c713078c2cd75ec454a8e3a4d871a960008054906101000a900473ffffffffffffffffffffffffffffffffffffffff1673ffffffffffffffffffffffffffffffffffffffff166370a08231306040518263ffffffff1660e01b81526004016109d19190610ee6565b602060405180830381865afa1580156109ee573d6000803e3d6000fd5b505050506040513d601f19601f82011682018060405250810190610a129190610e2d565b4742604051610a2393929190610f01565b60405180910390a1505050565b600080600260009054906101000a900473ffffffffffffffffffffffffffffffffffffffff1673ffffffffffffffffffffffffffffffffffffffff166370a08231306040518263ffffffff1660e01b8152600401610a8e9190610ee6565b602060405180830381865afa158015610aab573d6000803e3d6000fd5b505050506040513d601f19601f82011682018060405250810190610acf9190610e2d565b90506000610aee670de0b6b3a764000085610b7090919063ffffffff16565b90506000610b1f670de0b6b3a7640000610b118486610b9c90919063ffffffff16565b610bb290919063ffffffff16565b90506000610b2c84610bc8565b90506000610b3983610bc8565b905060006002888385610b4c9190610fd2565b610b569190611006565b610b609190611077565b9050809650505050505050919050565b60008183610b7e9190611006565b905092915050565b60008183610b949190611077565b905092915050565b60008183610baa91906110a8565b905092915050565b60008183610bc09190610fd2565b905092915050565b600081600454610bd89190611077565b9050919050565b600080fd5b6000819050919050565b610bf781610be4565b8114610c0257600080fd5b50565b600081359050610c1481610bee565b92915050565b600060208284031215610c3057610c2f610bdf565b5b6000610c3e84828501610c05565b91505092915050565b610c5081610be4565b82525050565b6000602082019050610c6b6000830184610c47565b92915050565b600073ffffffffffffffffffffffffffffffffffffffff82169050919050565b6000610c9c82610c71565b9050919050565b610cac81610c91565b8114610cb757600080fd5b50565b600081359050610cc981610ca3565b92915050565b60008115159050919050565b610ce481610ccf565b8114610cef57600080fd5b50565b600081359050610d0181610cdb565b92915050565b60008060408385031215610d1e57610d1d610bdf565b5b6000610d2c85828601610cba565b9250506020610d3d85828601610cf2565b9150509250929050565b6000610d5282610c71565b9050919050565b610d6281610d47565b8114610d6d57600080fd5b50565b600081359050610d7f81610d59565b92915050565b600080600060608486031215610d9e57610d9d610bdf565b5b6000610dac86828701610cba565b9350506020610dbd86828701610d70565b9250506040610dce86828701610c05565b9150509250925092565b60008060408385031215610def57610dee610bdf565b5b6000610dfd85828601610cba565b9250506020610e0e85828601610c05565b9150509250929050565b600081519050610e2781610bee565b92915050565b600060208284031215610e4357610e42610bdf565b5b6000610e5184828501610e18565b91505092915050565b600082825260208201905092915050565b7f4f776e61626c653a2063616c6c6572206973206e6f7420746865206f776e6572600082015250565b6000610ea1602083610e5a565b9150610eac82610e6b565b602082019050919050565b60006020820190508181036000830152610ed081610e94565b9050919050565b610ee081610c91565b82525050565b6000602082019050610efb6000830184610ed7565b92915050565b6000606082019050610f166000830186610c47565b610f236020830185610c47565b610f306040830184610c47565b949350505050565b6000604082019050610f4d6000830185610ed7565b610f5a6020830184610c47565b9392505050565b600081519050610f7081610cdb565b92915050565b600060208284031215610f8c57610f8b610bdf565b5b6000610f9a84828501610f61565b91505092915050565b7f4e487b7100000000000000000000000000000000000000000000000000000000600052601160045260246000fd5b6000610fdd82610be4565b9150610fe883610be4565b925082820190508082111561100057610fff610fa3565b5b92915050565b600061101182610be4565b915061101c83610be4565b925082820261102a81610be4565b9150828204841483151761104157611040610fa3565b5b5092915050565b7f4e487b7100000000000000000000000000000000000000000000000000000000600052601260045260246000fd5b600061108282610be4565b915061108d83610be4565b92508261109d5761109c611048565b5b828204905092915050565b60006110b382610be4565b91506110be83610be4565b92508282039050818111156110d6576110d5610fa3565b5b9291505056fea26469706673582212206a8cadc774db760af8535e0a9283c3128c635ad66ccbdffaeea86c2b6f5e8d7464736f6c63430008110033",
					"opcodes": "PUSH1 0x80 PUSH1 0x40 MSTORE PUSH20 0xA9FAE5EA311D3CFB2BCC9CAEFC5003B30B60B6C3 PUSH1 0x0 DUP1 PUSH2 0x100 EXP DUP2 SLOAD DUP2 PUSH20 0xFFFFFFFFFFFFFFFFFFFFFFFFFFFFFFFFFFFFFFFF MUL NOT AND SWAP1 DUP4 PUSH20 0xFFFFFFFFFFFFFFFFFFFFFFFFFFFFFFFFFFFFFFFF AND MUL OR SWAP1 SSTORE POP PUSH20 0xA9FAE5EA311D3CFB2BCC9CAEFC5003B30B60B6C3 PUSH1 0x1 PUSH1 0x0 PUSH2 0x100 EXP DUP2 SLOAD DUP2 PUSH20 0xFFFFFFFFFFFFFFFFFFFFFFFFFFFFFFFFFFFFFFFF MUL NOT AND SWAP1 DUP4 PUSH20 0xFFFFFFFFFFFFFFFFFFFFFFFFFFFFFFFFFFFFFFFF AND MUL OR SWAP1 SSTORE POP PUSH20 0xE3410AF1B80F925AC42B78EA54A48DE13DFA6EBE PUSH1 0x2 PUSH1 0x0 PUSH2 0x100 EXP DUP2 SLOAD DUP2 PUSH20 0xFFFFFFFFFFFFFFFFFFFFFFFFFFFFFFFFFFFFFFFF MUL NOT AND SWAP1 DUP4 PUSH20 0xFFFFFFFFFFFFFFFFFFFFFFFFFFFFFFFFFFFFFFFF AND MUL OR SWAP1 SSTORE POP CALLVALUE DUP1 ISZERO PUSH2 0x10E JUMPI PUSH1 0x0 DUP1 REVERT JUMPDEST POP CALLER PUSH1 0x3 PUSH1 0x0 PUSH2 0x100 EXP DUP2 SLOAD DUP2 PUSH20 0xFFFFFFFFFFFFFFFFFFFFFFFFFFFFFFFFFFFFFFFF MUL NOT AND SWAP1 DUP4 PUSH20 0xFFFFFFFFFFFFFFFFFFFFFFFFFFFFFFFFFFFFFFFF AND MUL OR SWAP1 SSTORE POP PUSH2 0x1112 DUP1 PUSH2 0x15F PUSH1 0x0 CODECOPY PUSH1 0x0 RETURN INVALID PUSH1 0x80 PUSH1 0x40 MSTORE PUSH1 0x4 CALLDATASIZE LT PUSH2 0x70 JUMPI PUSH1 0x0 CALLDATALOAD PUSH1 0xE0 SHR DUP1 PUSH4 0xD9E9402F GT PUSH2 0x4E JUMPI DUP1 PUSH4 0xD9E9402F EQ PUSH2 0xE5 JUMPI DUP1 PUSH4 0xDAC3FAD4 EQ PUSH2 0x10E JUMPI DUP1 PUSH4 0xDAEAE851 EQ PUSH2 0x125 JUMPI DUP1 PUSH4 0xEF170619 EQ PUSH2 0x141 JUMPI PUSH2 0x70 JUMP JUMPDEST DUP1 PUSH4 0x97DEDB1D EQ PUSH2 0x75 JUMPI DUP1 PUSH4 0xC3C64674 EQ PUSH2 0xB2 JUMPI DUP1 PUSH4 0xD0E30DB0 EQ PUSH2 0xDB JUMPI JUMPDEST PUSH1 0x0 DUP1 REVERT JUMPDEST CALLVALUE DUP1 ISZERO PUSH2 0x81 JUMPI PUSH1 0x0 DUP1 REVERT JUMPDEST POP PUSH2 0x9C PUSH1 0x4 DUP1 CALLDATASIZE SUB DUP2 ADD SWAP1 PUSH2 0x97 SWAP2 SWAP1 PUSH2 0xC1A JUMP JUMPDEST PUSH2 0x17E JUMP JUMPDEST PUSH1 0x40 MLOAD PUSH2 0xA9 SWAP2 SWAP1 PUSH2 0xC56 JUMP JUMPDEST PUSH1 0x40 MLOAD DUP1 SWAP2 SUB SWAP1 RETURN JUMPDEST CALLVALUE DUP1 ISZERO PUSH2 0xBE JUMPI PUSH1 0x0 DUP1 REVERT JUMPDEST POP PUSH2 0xD9 PUSH1 0x4 DUP1 CALLDATASIZE SUB DUP2 ADD SWAP1 PUSH2 0xD4 SWAP2 SWAP1 PUSH2 0xD07 JUMP JUMPDEST PUSH2 0x24C JUMP JUMPDEST STOP JUMPDEST PUSH2 0xE3 PUSH2 0x337 JUMP JUMPDEST STOP JUMPDEST CALLVALUE DUP1 ISZERO PUSH2 0xF1 JUMPI PUSH1 0x0 DUP1 REVERT JUMPDEST POP PUSH2 0x10C PUSH1 0x4 DUP1 CALLDATASIZE SUB DUP2 ADD SWAP1 PUSH2 0x107 SWAP2 SWAP1 PUSH2 0xD85 JUMP JUMPDEST PUSH2 0x46A JUMP JUMPDEST STOP JUMPDEST CALLVALUE DUP1 ISZERO PUSH2 0x11A JUMPI PUSH1 0x0 DUP1 REVERT JUMPDEST POP PUSH2 0x123 PUSH2 0x72A JUMP JUMPDEST STOP JUMPDEST PUSH2 0x13F PUSH1 0x4 DUP1 CALLDATASIZE SUB DUP2 ADD SWAP1 PUSH2 0x13A SWAP2 SWAP1 PUSH2 0xDD8 JUMP JUMPDEST PUSH2 0x825 JUMP JUMPDEST STOP JUMPDEST CALLVALUE DUP1 ISZERO PUSH2 0x14D JUMPI PUSH1 0x0 DUP1 REVERT JUMPDEST POP PUSH2 0x168 PUSH1 0x4 DUP1 CALLDATASIZE SUB DUP2 ADD SWAP1 PUSH2 0x163 SWAP2 SWAP1 PUSH2 0xC1A JUMP JUMPDEST PUSH2 0xA30 JUMP JUMPDEST PUSH1 0x40 MLOAD PUSH2 0x175 SWAP2 SWAP1 PUSH2 0xC56 JUMP JUMPDEST PUSH1 0x40 MLOAD DUP1 SWAP2 SUB SWAP1 RETURN JUMPDEST PUSH1 0x0 DUP1 SELFBALANCE SWAP1 POP PUSH1 0x0 DUP1 PUSH1 0x0 SWAP1 SLOAD SWAP1 PUSH2 0x100 EXP SWAP1 DIV PUSH20 0xFFFFFFFFFFFFFFFFFFFFFFFFFFFFFFFFFFFFFFFF AND PUSH20 0xFFFFFFFFFFFFFFFFFFFFFFFFFFFFFFFFFFFFFFFF AND PUSH4 0x18160DDD PUSH1 0x40 MLOAD DUP2 PUSH4 0xFFFFFFFF AND PUSH1 0xE0 SHL DUP2 MSTORE PUSH1 0x4 ADD PUSH1 0x20 PUSH1 0x40 MLOAD DUP1 DUP4 SUB DUP2 DUP7 GAS STATICCALL ISZERO DUP1 ISZERO PUSH2 0x1F2 JUMPI RETURNDATASIZE PUSH1 0x0 DUP1 RETURNDATACOPY RETURNDATASIZE PUSH1 0x0 REVERT JUMPDEST POP POP POP POP PUSH1 0x40 MLOAD RETURNDATASIZE PUSH1 0x1F NOT PUSH1 0x1F DUP3 ADD AND DUP3 ADD DUP1 PUSH1 0x40 MSTORE POP DUP2 ADD SWAP1 PUSH2 0x216 SWAP2 SWAP1 PUSH2 0xE2D JUMP JUMPDEST SWAP1 POP PUSH1 0x0 PUSH2 0x23F DUP3 PUSH2 0x231 DUP6 DUP9 PUSH2 0xB70 SWAP1 SWAP2 SWAP1 PUSH4 0xFFFFFFFF AND JUMP JUMPDEST PUSH2 0xB86 SWAP1 SWAP2 SWAP1 PUSH4 0xFFFFFFFF AND JUMP JUMPDEST SWAP1 POP DUP1 SWAP4 POP POP POP POP SWAP2 SWAP1 POP JUMP JUMPDEST CALLER PUSH20 0xFFFFFFFFFFFFFFFFFFFFFFFFFFFFFFFFFFFFFFFF AND PUSH1 0x3 PUSH1 0x0 SWAP1 SLOAD SWAP1 PUSH2 0x100 EXP SWAP1 DIV PUSH20 0xFFFFFFFFFFFFFFFFFFFFFFFFFFFFFFFFFFFFFFFF AND PUSH20 0xFFFFFFFFFFFFFFFFFFFFFFFFFFFFFFFFFFFFFFFF AND EQ PUSH2 0x2DC JUMPI PUSH1 0x40 MLOAD PUSH32 0x8C379A000000000000000000000000000000000000000000000000000000000 DUP2 MSTORE PUSH1 0x4 ADD PUSH2 0x2D3 SWAP1 PUSH2 0xEB7 JUMP JUMPDEST PUSH1 0x40 MLOAD DUP1 SWAP2 SUB SWAP1 REVERT JUMPDEST DUP1 PUSH1 0x5 PUSH1 0x0 DUP5 PUSH20 0xFFFFFFFFFFFFFFFFFFFFFFFFFFFFFFFFFFFFFFFF AND PUSH20 0xFFFFFFFFFFFFFFFFFFFFFFFFFFFFFFFFFFFFFFFF AND DUP2 MSTORE PUSH1 0x20 ADD SWAP1 DUP2 MSTORE PUSH1 0x20 ADD PUSH1 0x0 KECCAK256 PUSH1 0x0 PUSH2 0x100 EXP DUP2 SLOAD DUP2 PUSH1 0xFF MUL NOT AND SWAP1 DUP4 ISZERO ISZERO MUL OR SWAP1 SSTORE POP POP POP JUMP JUMPDEST PUSH1 0x1 ISZERO ISZERO PUSH1 0x5 PUSH1 0x0 CALLER PUSH20 0xFFFFFFFFFFFFFFFFFFFFFFFFFFFFFFFFFFFFFFFF AND PUSH20 0xFFFFFFFFFFFFFFFFFFFFFFFFFFFFFFFFFFFFFFFF AND DUP2 MSTORE PUSH1 0x20 ADD SWAP1 DUP2 MSTORE PUSH1 0x20 ADD PUSH1 0x0 KECCAK256 PUSH1 0x0 SWAP1 SLOAD SWAP1 PUSH2 0x100 EXP SWAP1 DIV PUSH1 0xFF AND ISZERO ISZERO EQ PUSH2 0x394 JUMPI PUSH1 0x0 DUP1 REVERT JUMPDEST PUSH32 0x3EB1506D8210B5DBD38E30D7F6113495D1C713078C2CD75EC454A8E3A4D871A9 PUSH1 0x0 DUP1 SLOAD SWAP1 PUSH2 0x100 EXP SWAP1 DIV PUSH20 0xFFFFFFFFFFFFFFFFFFFFFFFFFFFFFFFFFFFFFFFF AND PUSH20 0xFFFFFFFFFFFFFFFFFFFFFFFFFFFFFFFFFFFFFFFF AND PUSH4 0x70A08231 ADDRESS PUSH1 0x40 MLOAD DUP3 PUSH4 0xFFFFFFFF AND PUSH1 0xE0 SHL DUP2 MSTORE PUSH1 0x4 ADD PUSH2 0x40E SWAP2 SWAP1 PUSH2 0xEE6 JUMP JUMPDEST PUSH1 0x20 PUSH1 0x40 MLOAD DUP1 DUP4 SUB DUP2 DUP7 GAS STATICCALL ISZERO DUP1 ISZERO PUSH2 0x42B JUMPI RETURNDATASIZE PUSH1 0x0 DUP1 RETURNDATACOPY RETURNDATASIZE PUSH1 0x0 REVERT JUMPDEST POP POP POP POP PUSH1 0x40 MLOAD RETURNDATASIZE PUSH1 0x1F NOT PUSH1 0x1F DUP3 ADD AND DUP3 ADD DUP1 PUSH1 0x40 MSTORE POP DUP2 ADD SWAP1 PUSH2 0x44F SWAP2 SWAP1 PUSH2 0xE2D JUMP JUMPDEST SELFBALANCE TIMESTAMP PUSH1 0x40 MLOAD PUSH2 0x460 SWAP4 SWAP3 SWAP2 SWAP1 PUSH2 0xF01 JUMP JUMPDEST PUSH1 0x40 MLOAD DUP1 SWAP2 SUB SWAP1 LOG1 JUMP JUMPDEST PUSH1 0x1 ISZERO ISZERO PUSH1 0x5 PUSH1 0x0 CALLER PUSH20 0xFFFFFFFFFFFFFFFFFFFFFFFFFFFFFFFFFFFFFFFF AND PUSH20 0xFFFFFFFFFFFFFFFFFFFFFFFFFFFFFFFFFFFFFFFF AND DUP2 MSTORE PUSH1 0x20 ADD SWAP1 DUP2 MSTORE PUSH1 0x20 ADD PUSH1 0x0 KECCAK256 PUSH1 0x0 SWAP1 SLOAD SWAP1 PUSH2 0x100 EXP SWAP1 DIV PUSH1 0xFF AND ISZERO ISZERO EQ PUSH2 0x4C7 JUMPI PUSH1 0x0 DUP1 REVERT JUMPDEST DUP1 PUSH1 0x0 DUP1 SLOAD SWAP1 PUSH2 0x100 EXP SWAP1 DIV PUSH20 0xFFFFFFFFFFFFFFFFFFFFFFFFFFFFFFFFFFFFFFFF AND PUSH20 0xFFFFFFFFFFFFFFFFFFFFFFFFFFFFFFFFFFFFFFFF AND PUSH4 0x70A08231 DUP6 PUSH1 0x40 MLOAD DUP3 PUSH4 0xFFFFFFFF AND PUSH1 0xE0 SHL DUP2 MSTORE PUSH1 0x4 ADD PUSH2 0x521 SWAP2 SWAP1 PUSH2 0xEE6 JUMP JUMPDEST PUSH1 0x20 PUSH1 0x40 MLOAD DUP1 DUP4 SUB DUP2 DUP7 GAS STATICCALL ISZERO DUP1 ISZERO PUSH2 0x53E JUMPI RETURNDATASIZE PUSH1 0x0 DUP1 RETURNDATACOPY RETURNDATASIZE PUSH1 0x0 REVERT JUMPDEST POP POP POP POP PUSH1 0x40 MLOAD RETURNDATASIZE PUSH1 0x1F NOT PUSH1 0x1F DUP3 ADD AND DUP3 ADD DUP1 PUSH1 0x40 MSTORE POP DUP2 ADD SWAP1 PUSH2 0x562 SWAP2 SWAP1 PUSH2 0xE2D JUMP JUMPDEST LT ISZERO PUSH2 0x56D JUMPI PUSH1 0x0 DUP1 REVERT JUMPDEST PUSH1 0x0 PUSH2 0x578 DUP3 PUSH2 0x17E JUMP JUMPDEST SWAP1 POP DUP3 PUSH20 0xFFFFFFFFFFFFFFFFFFFFFFFFFFFFFFFFFFFFFFFF AND PUSH2 0x8FC DUP3 SWAP1 DUP2 ISZERO MUL SWAP1 PUSH1 0x40 MLOAD PUSH1 0x0 PUSH1 0x40 MLOAD DUP1 DUP4 SUB DUP2 DUP6 DUP9 DUP9 CALL SWAP4 POP POP POP POP ISZERO DUP1 ISZERO PUSH2 0x5C0 JUMPI RETURNDATASIZE PUSH1 0x0 DUP1 RETURNDATACOPY RETURNDATASIZE PUSH1 0x0 REVERT JUMPDEST POP PUSH1 0x1 PUSH1 0x0 SWAP1 SLOAD SWAP1 PUSH2 0x100 EXP SWAP1 DIV PUSH20 0xFFFFFFFFFFFFFFFFFFFFFFFFFFFFFFFFFFFFFFFF AND PUSH20 0xFFFFFFFFFFFFFFFFFFFFFFFFFFFFFFFFFFFFFFFF AND PUSH4 0x79CC6790 DUP6 DUP5 PUSH1 0x40 MLOAD DUP4 PUSH4 0xFFFFFFFF AND PUSH1 0xE0 SHL DUP2 MSTORE PUSH1 0x4 ADD PUSH2 0x61E SWAP3 SWAP2 SWAP1 PUSH2 0xF38 JUMP JUMPDEST PUSH1 0x0 PUSH1 0x40 MLOAD DUP1 DUP4 SUB DUP2 PUSH1 0x0 DUP8 DUP1 EXTCODESIZE ISZERO DUP1 ISZERO PUSH2 0x638 JUMPI PUSH1 0x0 DUP1 REVERT JUMPDEST POP GAS CALL ISZERO DUP1 ISZERO PUSH2 0x64C JUMPI RETURNDATASIZE PUSH1 0x0 DUP1 RETURNDATACOPY RETURNDATASIZE PUSH1 0x0 REVERT JUMPDEST POP POP POP POP PUSH32 0x3EB1506D8210B5DBD38E30D7F6113495D1C713078C2CD75EC454A8E3A4D871A9 PUSH1 0x0 DUP1 SLOAD SWAP1 PUSH2 0x100 EXP SWAP1 DIV PUSH20 0xFFFFFFFFFFFFFFFFFFFFFFFFFFFFFFFFFFFFFFFF AND PUSH20 0xFFFFFFFFFFFFFFFFFFFFFFFFFFFFFFFFFFFFFFFF AND PUSH4 0x70A08231 ADDRESS PUSH1 0x40 MLOAD DUP3 PUSH4 0xFFFFFFFF AND PUSH1 0xE0 SHL DUP2 MSTORE PUSH1 0x4 ADD PUSH2 0x6CA SWAP2 SWAP1 PUSH2 0xEE6 JUMP JUMPDEST PUSH1 0x20 PUSH1 0x40 MLOAD DUP1 DUP4 SUB DUP2 DUP7 GAS STATICCALL ISZERO DUP1 ISZERO PUSH2 0x6E7 JUMPI RETURNDATASIZE PUSH1 0x0 DUP1 RETURNDATACOPY RETURNDATASIZE PUSH1 0x0 REVERT JUMPDEST POP POP POP POP PUSH1 0x40 MLOAD RETURNDATASIZE PUSH1 0x1F NOT PUSH1 0x1F DUP3 ADD AND DUP3 ADD DUP1 PUSH1 0x40 MSTORE POP DUP2 ADD SWAP1 PUSH2 0x70B SWAP2 SWAP1 PUSH2 0xE2D JUMP JUMPDEST SELFBALANCE TIMESTAMP PUSH1 0x40 MLOAD PUSH2 0x71C SWAP4 SWAP3 SWAP2 SWAP1 PUSH2 0xF01 JUMP JUMPDEST PUSH1 0x40 MLOAD DUP1 SWAP2 SUB SWAP1 LOG1 POP POP POP POP JUMP JUMPDEST CALLER PUSH20 0xFFFFFFFFFFFFFFFFFFFFFFFFFFFFFFFFFFFFFFFF AND PUSH1 0x3 PUSH1 0x0 SWAP1 SLOAD SWAP1 PUSH2 0x100 EXP SWAP1 DIV PUSH20 0xFFFFFFFFFFFFFFFFFFFFFFFFFFFFFFFFFFFFFFFF AND PUSH20 0xFFFFFFFFFFFFFFFFFFFFFFFFFFFFFFFFFFFFFFFF AND EQ PUSH2 0x7BA JUMPI PUSH1 0x40 MLOAD PUSH32 0x8C379A000000000000000000000000000000000000000000000000000000000 DUP2 MSTORE PUSH1 0x4 ADD PUSH2 0x7B1 SWAP1 PUSH2 0xEB7 JUMP JUMPDEST PUSH1 0x40 MLOAD DUP1 SWAP2 SUB SWAP1 REVERT JUMPDEST PUSH1 0x3 PUSH1 0x0 SWAP1 SLOAD SWAP1 PUSH2 0x100 EXP SWAP1 DIV PUSH20 0xFFFFFFFFFFFFFFFFFFFFFFFFFFFFFFFFFFFFFFFF AND PUSH20 0xFFFFFFFFFFFFFFFFFFFFFFFFFFFFFFFFFFFFFFFF AND PUSH2 0x8FC SELFBALANCE SWAP1 DUP2 ISZERO MUL SWAP1 PUSH1 0x40 MLOAD PUSH1 0x0 PUSH1 0x40 MLOAD DUP1 DUP4 SUB DUP2 DUP6 DUP9 DUP9 CALL SWAP4 POP POP POP POP ISZERO DUP1 ISZERO PUSH2 0x822 JUMPI RETURNDATASIZE PUSH1 0x0 DUP1 RETURNDATACOPY RETURNDATASIZE PUSH1 0x0 REVERT JUMPDEST POP JUMP JUMPDEST PUSH1 0x1 ISZERO ISZERO PUSH1 0x5 PUSH1 0x0 CALLER PUSH20 0xFFFFFFFFFFFFFFFFFFFFFFFFFFFFFFFFFFFFFFFF AND PUSH20 0xFFFFFFFFFFFFFFFFFFFFFFFFFFFFFFFFFFFFFFFF AND DUP2 MSTORE PUSH1 0x20 ADD SWAP1 DUP2 MSTORE PUSH1 0x20 ADD PUSH1 0x0 KECCAK256 PUSH1 0x0 SWAP1 SLOAD SWAP1 PUSH2 0x100 EXP SWAP1 DIV PUSH1 0xFF AND ISZERO ISZERO EQ PUSH2 0x882 JUMPI PUSH1 0x0 DUP1 REVERT JUMPDEST PUSH1 0x0 PUSH2 0x88D DUP3 PUSH2 0xA30 JUMP JUMPDEST SWAP1 POP DUP1 CALLVALUE LT ISZERO PUSH2 0x89C JUMPI PUSH1 0x0 DUP1 REVERT JUMPDEST PUSH1 0x2 PUSH1 0x0 SWAP1 SLOAD SWAP1 PUSH2 0x100 EXP SWAP1 DIV PUSH20 0xFFFFFFFFFFFFFFFFFFFFFFFFFFFFFFFFFFFFFFFF AND PUSH20 0xFFFFFFFFFFFFFFFFFFFFFFFFFFFFFFFFFFFFFFFF AND PUSH4 0xA9059CBB DUP5 PUSH2 0x8F6 PUSH8 0xDE0B6B3A7640000 DUP7 PUSH2 0xB70 SWAP1 SWAP2 SWAP1 PUSH4 0xFFFFFFFF AND JUMP JUMPDEST PUSH1 0x40 MLOAD DUP4 PUSH4 0xFFFFFFFF AND PUSH1 0xE0 SHL DUP2 MSTORE PUSH1 0x4 ADD PUSH2 0x913 SWAP3 SWAP2 SWAP1 PUSH2 0xF38 JUMP JUMPDEST PUSH1 0x20 PUSH1 0x40 MLOAD DUP1 DUP4 SUB DUP2 PUSH1 0x0 DUP8 GAS CALL ISZERO DUP1 ISZERO PUSH2 0x932 JUMPI RETURNDATASIZE PUSH1 0x0 DUP1 RETURNDATACOPY RETURNDATASIZE PUSH1 0x0 REVERT JUMPDEST POP POP POP POP PUSH1 0x40 MLOAD RETURNDATASIZE PUSH1 0x1F NOT PUSH1 0x1F DUP3 ADD AND DUP3 ADD DUP1 PUSH1 0x40 MSTORE POP DUP2 ADD SWAP1 PUSH2 0x956 SWAP2 SWAP1 PUSH2 0xF76 JUMP JUMPDEST POP PUSH32 0x3EB1506D8210B5DBD38E30D7F6113495D1C713078C2CD75EC454A8E3A4D871A9 PUSH1 0x0 DUP1 SLOAD SWAP1 PUSH2 0x100 EXP SWAP1 DIV PUSH20 0xFFFFFFFFFFFFFFFFFFFFFFFFFFFFFFFFFFFFFFFF AND PUSH20 0xFFFFFFFFFFFFFFFFFFFFFFFFFFFFFFFFFFFFFFFF AND PUSH4 0x70A08231 ADDRESS PUSH1 0x40 MLOAD DUP3 PUSH4 0xFFFFFFFF AND PUSH1 0xE0 SHL DUP2 MSTORE PUSH1 0x4 ADD PUSH2 0x9D1 SWAP2 SWAP1 PUSH2 0xEE6 JUMP JUMPDEST PUSH1 0x20 PUSH1 0x40 MLOAD DUP1 DUP4 SUB DUP2 DUP7 GAS STATICCALL ISZERO DUP1 ISZERO PUSH2 0x9EE JUMPI RETURNDATASIZE PUSH1 0x0 DUP1 RETURNDATACOPY RETURNDATASIZE PUSH1 0x0 REVERT JUMPDEST POP POP POP POP PUSH1 0x40 MLOAD RETURNDATASIZE PUSH1 0x1F NOT PUSH1 0x1F DUP3 ADD AND DUP3 ADD DUP1 PUSH1 0x40 MSTORE POP DUP2 ADD SWAP1 PUSH2 0xA12 SWAP2 SWAP1 PUSH2 0xE2D JUMP JUMPDEST SELFBALANCE TIMESTAMP PUSH1 0x40 MLOAD PUSH2 0xA23 SWAP4 SWAP3 SWAP2 SWAP1 PUSH2 0xF01 JUMP JUMPDEST PUSH1 0x40 MLOAD DUP1 SWAP2 SUB SWAP1 LOG1 POP POP POP JUMP JUMPDEST PUSH1 0x0 DUP1 PUSH1 0x2 PUSH1 0x0 SWAP1 SLOAD SWAP1 PUSH2 0x100 EXP SWAP1 DIV PUSH20 0xFFFFFFFFFFFFFFFFFFFFFFFFFFFFFFFFFFFFFFFF AND PUSH20 0xFFFFFFFFFFFFFFFFFFFFFFFFFFFFFFFFFFFFFFFF AND PUSH4 0x70A08231 ADDRESS PUSH1 0x40 MLOAD DUP3 PUSH4 0xFFFFFFFF AND PUSH1 0xE0 SHL DUP2 MSTORE PUSH1 0x4 ADD PUSH2 0xA8E SWAP2 SWAP1 PUSH2 0xEE6 JUMP JUMPDEST PUSH1 0x20 PUSH1 0x40 MLOAD DUP1 DUP4 SUB DUP2 DUP7 GAS STATICCALL ISZERO DUP1 ISZERO PUSH2 0xAAB JUMPI RETURNDATASIZE PUSH1 0x0 DUP1 RETURNDATACOPY RETURNDATASIZE PUSH1 0x0 REVERT JUMPDEST POP POP POP POP PUSH1 0x40 MLOAD RETURNDATASIZE PUSH1 0x1F NOT PUSH1 0x1F DUP3 ADD AND DUP3 ADD DUP1 PUSH1 0x40 MSTORE POP DUP2 ADD SWAP1 PUSH2 0xACF SWAP2 SWAP1 PUSH2 0xE2D JUMP JUMPDEST SWAP1 POP PUSH1 0x0 PUSH2 0xAEE PUSH8 0xDE0B6B3A7640000 DUP6 PUSH2 0xB70 SWAP1 SWAP2 SWAP1 PUSH4 0xFFFFFFFF AND JUMP JUMPDEST SWAP1 POP PUSH1 0x0 PUSH2 0xB1F PUSH8 0xDE0B6B3A7640000 PUSH2 0xB11 DUP5 DUP7 PUSH2 0xB9C SWAP1 SWAP2 SWAP1 PUSH4 0xFFFFFFFF AND JUMP JUMPDEST PUSH2 0xBB2 SWAP1 SWAP2 SWAP1 PUSH4 0xFFFFFFFF AND JUMP JUMPDEST SWAP1 POP PUSH1 0x0 PUSH2 0xB2C DUP5 PUSH2 0xBC8 JUMP JUMPDEST SWAP1 POP PUSH1 0x0 PUSH2 0xB39 DUP4 PUSH2 0xBC8 JUMP JUMPDEST SWAP1 POP PUSH1 0x0 PUSH1 0x2 DUP9 DUP4 DUP6 PUSH2 0xB4C SWAP2 SWAP1 PUSH2 0xFD2 JUMP JUMPDEST PUSH2 0xB56 SWAP2 SWAP1 PUSH2 0x1006 JUMP JUMPDEST PUSH2 0xB60 SWAP2 SWAP1 PUSH2 0x1077 JUMP JUMPDEST SWAP1 POP DUP1 SWAP7 POP POP POP POP POP POP POP SWAP2 SWAP1 POP JUMP JUMPDEST PUSH1 0x0 DUP2 DUP4 PUSH2 0xB7E SWAP2 SWAP1 PUSH2 0x1006 JUMP JUMPDEST SWAP1 POP SWAP3 SWAP2 POP POP JUMP JUMPDEST PUSH1 0x0 DUP2 DUP4 PUSH2 0xB94 SWAP2 SWAP1 PUSH2 0x1077 JUMP JUMPDEST SWAP1 POP SWAP3 SWAP2 POP POP JUMP JUMPDEST PUSH1 0x0 DUP2 DUP4 PUSH2 0xBAA SWAP2 SWAP1 PUSH2 0x10A8 JUMP JUMPDEST SWAP1 POP SWAP3 SWAP2 POP POP JUMP JUMPDEST PUSH1 0x0 DUP2 DUP4 PUSH2 0xBC0 SWAP2 SWAP1 PUSH2 0xFD2 JUMP JUMPDEST SWAP1 POP SWAP3 SWAP2 POP POP JUMP JUMPDEST PUSH1 0x0 DUP2 PUSH1 0x4 SLOAD PUSH2 0xBD8 SWAP2 SWAP1 PUSH2 0x1077 JUMP JUMPDEST SWAP1 POP SWAP2 SWAP1 POP JUMP JUMPDEST PUSH1 0x0 DUP1 REVERT JUMPDEST PUSH1 0x0 DUP2 SWAP1 POP SWAP2 SWAP1 POP JUMP JUMPDEST PUSH2 0xBF7 DUP2 PUSH2 0xBE4 JUMP JUMPDEST DUP2 EQ PUSH2 0xC02 JUMPI PUSH1 0x0 DUP1 REVERT JUMPDEST POP JUMP JUMPDEST PUSH1 0x0 DUP2 CALLDATALOAD SWAP1 POP PUSH2 0xC14 DUP2 PUSH2 0xBEE JUMP JUMPDEST SWAP3 SWAP2 POP POP JUMP JUMPDEST PUSH1 0x0 PUSH1 0x20 DUP3 DUP5 SUB SLT ISZERO PUSH2 0xC30 JUMPI PUSH2 0xC2F PUSH2 0xBDF JUMP JUMPDEST JUMPDEST PUSH1 0x0 PUSH2 0xC3E DUP5 DUP3 DUP6 ADD PUSH2 0xC05 JUMP JUMPDEST SWAP2 POP POP SWAP3 SWAP2 POP POP JUMP JUMPDEST PUSH2 0xC50 DUP2 PUSH2 0xBE4 JUMP JUMPDEST DUP3 MSTORE POP POP JUMP JUMPDEST PUSH1 0x0 PUSH1 0x20 DUP3 ADD SWAP1 POP PUSH2 0xC6B PUSH1 0x0 DUP4 ADD DUP5 PUSH2 0xC47 JUMP JUMPDEST SWAP3 SWAP2 POP POP JUMP JUMPDEST PUSH1 0x0 PUSH20 0xFFFFFFFFFFFFFFFFFFFFFFFFFFFFFFFFFFFFFFFF DUP3 AND SWAP1 POP SWAP2 SWAP1 POP JUMP JUMPDEST PUSH1 0x0 PUSH2 0xC9C DUP3 PUSH2 0xC71 JUMP JUMPDEST SWAP1 POP SWAP2 SWAP1 POP JUMP JUMPDEST PUSH2 0xCAC DUP2 PUSH2 0xC91 JUMP JUMPDEST DUP2 EQ PUSH2 0xCB7 JUMPI PUSH1 0x0 DUP1 REVERT JUMPDEST POP JUMP JUMPDEST PUSH1 0x0 DUP2 CALLDATALOAD SWAP1 POP PUSH2 0xCC9 DUP2 PUSH2 0xCA3 JUMP JUMPDEST SWAP3 SWAP2 POP POP JUMP JUMPDEST PUSH1 0x0 DUP2 ISZERO ISZERO SWAP1 POP SWAP2 SWAP1 POP JUMP JUMPDEST PUSH2 0xCE4 DUP2 PUSH2 0xCCF JUMP JUMPDEST DUP2 EQ PUSH2 0xCEF JUMPI PUSH1 0x0 DUP1 REVERT JUMPDEST POP JUMP JUMPDEST PUSH1 0x0 DUP2 CALLDATALOAD SWAP1 POP PUSH2 0xD01 DUP2 PUSH2 0xCDB JUMP JUMPDEST SWAP3 SWAP2 POP POP JUMP JUMPDEST PUSH1 0x0 DUP1 PUSH1 0x40 DUP4 DUP6 SUB SLT ISZERO PUSH2 0xD1E JUMPI PUSH2 0xD1D PUSH2 0xBDF JUMP JUMPDEST JUMPDEST PUSH1 0x0 PUSH2 0xD2C DUP6 DUP3 DUP7 ADD PUSH2 0xCBA JUMP JUMPDEST SWAP3 POP POP PUSH1 0x20 PUSH2 0xD3D DUP6 DUP3 DUP7 ADD PUSH2 0xCF2 JUMP JUMPDEST SWAP2 POP POP SWAP3 POP SWAP3 SWAP1 POP JUMP JUMPDEST PUSH1 0x0 PUSH2 0xD52 DUP3 PUSH2 0xC71 JUMP JUMPDEST SWAP1 POP SWAP2 SWAP1 POP JUMP JUMPDEST PUSH2 0xD62 DUP2 PUSH2 0xD47 JUMP JUMPDEST DUP2 EQ PUSH2 0xD6D JUMPI PUSH1 0x0 DUP1 REVERT JUMPDEST POP JUMP JUMPDEST PUSH1 0x0 DUP2 CALLDATALOAD SWAP1 POP PUSH2 0xD7F DUP2 PUSH2 0xD59 JUMP JUMPDEST SWAP3 SWAP2 POP POP JUMP JUMPDEST PUSH1 0x0 DUP1 PUSH1 0x0 PUSH1 0x60 DUP5 DUP7 SUB SLT ISZERO PUSH2 0xD9E JUMPI PUSH2 0xD9D PUSH2 0xBDF JUMP JUMPDEST JUMPDEST PUSH1 0x0 PUSH2 0xDAC DUP7 DUP3 DUP8 ADD PUSH2 0xCBA JUMP JUMPDEST SWAP4 POP POP PUSH1 0x20 PUSH2 0xDBD DUP7 DUP3 DUP8 ADD PUSH2 0xD70 JUMP JUMPDEST SWAP3 POP POP PUSH1 0x40 PUSH2 0xDCE DUP7 DUP3 DUP8 ADD PUSH2 0xC05 JUMP JUMPDEST SWAP2 POP POP SWAP3 POP SWAP3 POP SWAP3 JUMP JUMPDEST PUSH1 0x0 DUP1 PUSH1 0x40 DUP4 DUP6 SUB SLT ISZERO PUSH2 0xDEF JUMPI PUSH2 0xDEE PUSH2 0xBDF JUMP JUMPDEST JUMPDEST PUSH1 0x0 PUSH2 0xDFD DUP6 DUP3 DUP7 ADD PUSH2 0xCBA JUMP JUMPDEST SWAP3 POP POP PUSH1 0x20 PUSH2 0xE0E DUP6 DUP3 DUP7 ADD PUSH2 0xC05 JUMP JUMPDEST SWAP2 POP POP SWAP3 POP SWAP3 SWAP1 POP JUMP JUMPDEST PUSH1 0x0 DUP2 MLOAD SWAP1 POP PUSH2 0xE27 DUP2 PUSH2 0xBEE JUMP JUMPDEST SWAP3 SWAP2 POP POP JUMP JUMPDEST PUSH1 0x0 PUSH1 0x20 DUP3 DUP5 SUB SLT ISZERO PUSH2 0xE43 JUMPI PUSH2 0xE42 PUSH2 0xBDF JUMP JUMPDEST JUMPDEST PUSH1 0x0 PUSH2 0xE51 DUP5 DUP3 DUP6 ADD PUSH2 0xE18 JUMP JUMPDEST SWAP2 POP POP SWAP3 SWAP2 POP POP JUMP JUMPDEST PUSH1 0x0 DUP3 DUP3 MSTORE PUSH1 0x20 DUP3 ADD SWAP1 POP SWAP3 SWAP2 POP POP JUMP JUMPDEST PUSH32 0x4F776E61626C653A2063616C6C6572206973206E6F7420746865206F776E6572 PUSH1 0x0 DUP3 ADD MSTORE POP JUMP JUMPDEST PUSH1 0x0 PUSH2 0xEA1 PUSH1 0x20 DUP4 PUSH2 0xE5A JUMP JUMPDEST SWAP2 POP PUSH2 0xEAC DUP3 PUSH2 0xE6B JUMP JUMPDEST PUSH1 0x20 DUP3 ADD SWAP1 POP SWAP2 SWAP1 POP JUMP JUMPDEST PUSH1 0x0 PUSH1 0x20 DUP3 ADD SWAP1 POP DUP2 DUP2 SUB PUSH1 0x0 DUP4 ADD MSTORE PUSH2 0xED0 DUP2 PUSH2 0xE94 JUMP JUMPDEST SWAP1 POP SWAP2 SWAP1 POP JUMP JUMPDEST PUSH2 0xEE0 DUP2 PUSH2 0xC91 JUMP JUMPDEST DUP3 MSTORE POP POP JUMP JUMPDEST PUSH1 0x0 PUSH1 0x20 DUP3 ADD SWAP1 POP PUSH2 0xEFB PUSH1 0x0 DUP4 ADD DUP5 PUSH2 0xED7 JUMP JUMPDEST SWAP3 SWAP2 POP POP JUMP JUMPDEST PUSH1 0x0 PUSH1 0x60 DUP3 ADD SWAP1 POP PUSH2 0xF16 PUSH1 0x0 DUP4 ADD DUP7 PUSH2 0xC47 JUMP JUMPDEST PUSH2 0xF23 PUSH1 0x20 DUP4 ADD DUP6 PUSH2 0xC47 JUMP JUMPDEST PUSH2 0xF30 PUSH1 0x40 DUP4 ADD DUP5 PUSH2 0xC47 JUMP JUMPDEST SWAP5 SWAP4 POP POP POP POP JUMP JUMPDEST PUSH1 0x0 PUSH1 0x40 DUP3 ADD SWAP1 POP PUSH2 0xF4D PUSH1 0x0 DUP4 ADD DUP6 PUSH2 0xED7 JUMP JUMPDEST PUSH2 0xF5A PUSH1 0x20 DUP4 ADD DUP5 PUSH2 0xC47 JUMP JUMPDEST SWAP4 SWAP3 POP POP POP JUMP JUMPDEST PUSH1 0x0 DUP2 MLOAD SWAP1 POP PUSH2 0xF70 DUP2 PUSH2 0xCDB JUMP JUMPDEST SWAP3 SWAP2 POP POP JUMP JUMPDEST PUSH1 0x0 PUSH1 0x20 DUP3 DUP5 SUB SLT ISZERO PUSH2 0xF8C JUMPI PUSH2 0xF8B PUSH2 0xBDF JUMP JUMPDEST JUMPDEST PUSH1 0x0 PUSH2 0xF9A DUP5 DUP3 DUP6 ADD PUSH2 0xF61 JUMP JUMPDEST SWAP2 POP POP SWAP3 SWAP2 POP POP JUMP JUMPDEST PUSH32 0x4E487B7100000000000000000000000000000000000000000000000000000000 PUSH1 0x0 MSTORE PUSH1 0x11 PUSH1 0x4 MSTORE PUSH1 0x24 PUSH1 0x0 REVERT JUMPDEST PUSH1 0x0 PUSH2 0xFDD DUP3 PUSH2 0xBE4 JUMP JUMPDEST SWAP2 POP PUSH2 0xFE8 DUP4 PUSH2 0xBE4 JUMP JUMPDEST SWAP3 POP DUP3 DUP3 ADD SWAP1 POP DUP1 DUP3 GT ISZERO PUSH2 0x1000 JUMPI PUSH2 0xFFF PUSH2 0xFA3 JUMP JUMPDEST JUMPDEST SWAP3 SWAP2 POP POP JUMP JUMPDEST PUSH1 0x0 PUSH2 0x1011 DUP3 PUSH2 0xBE4 JUMP JUMPDEST SWAP2 POP PUSH2 0x101C DUP4 PUSH2 0xBE4 JUMP JUMPDEST SWAP3 POP DUP3 DUP3 MUL PUSH2 0x102A DUP2 PUSH2 0xBE4 JUMP JUMPDEST SWAP2 POP DUP3 DUP3 DIV DUP5 EQ DUP4 ISZERO OR PUSH2 0x1041 JUMPI PUSH2 0x1040 PUSH2 0xFA3 JUMP JUMPDEST JUMPDEST POP SWAP3 SWAP2 POP POP JUMP JUMPDEST PUSH32 0x4E487B7100000000000000000000000000000000000000000000000000000000 PUSH1 0x0 MSTORE PUSH1 0x12 PUSH1 0x4 MSTORE PUSH1 0x24 PUSH1 0x0 REVERT JUMPDEST PUSH1 0x0 PUSH2 0x1082 DUP3 PUSH2 0xBE4 JUMP JUMPDEST SWAP2 POP PUSH2 0x108D DUP4 PUSH2 0xBE4 JUMP JUMPDEST SWAP3 POP DUP3 PUSH2 0x109D JUMPI PUSH2 0x109C PUSH2 0x1048 JUMP JUMPDEST JUMPDEST DUP3 DUP3 DIV SWAP1 POP SWAP3 SWAP2 POP POP JUMP JUMPDEST PUSH1 0x0 PUSH2 0x10B3 DUP3 PUSH2 0xBE4 JUMP JUMPDEST SWAP2 POP PUSH2 0x10BE DUP4 PUSH2 0xBE4 JUMP JUMPDEST SWAP3 POP DUP3 DUP3 SUB SWAP1 POP DUP2 DUP2 GT ISZERO PUSH2 0x10D6 JUMPI PUSH2 0x10D5 PUSH2 0xFA3 JUMP JUMPDEST JUMPDEST SWAP3 SWAP2 POP POP JUMP INVALID LOG2 PUSH5 0x6970667358 0x22 SLT KECCAK256 PUSH11 0x8CADC774DB760AF8535E0A SWAP3 DUP4 0xC3 SLT DUP13 PUSH4 0x5AD66CCB 0xDF STATICCALL 0xEE 0xA8 PUSH13 0x2B6F5E8D7464736F6C63430008 GT STOP CALLER "
				},
				"gasEstimates": {
					"creation": {
						"codeDepositCost": "874000",
						"executionCost": "97976",
						"totalCost": "971976"
					},
					"external": {
						"ETH_DCF(uint256)": "infinite",
						"PowerQuote(uint256)": "infinite",
						"Warning_protect()": "infinite",
						"deposit()": "infinite",
						"market(address,address,uint256)": "infinite",
						"purchasePower(address,uint256)": "infinite",
						"setRouter(address,bool)": "27184"
					},
					"internal": {
						"Quote(uint256)": "infinite"
					}
				},
				"methodIdentifiers": {
					"ETH_DCF(uint256)": "97dedb1d",
					"PowerQuote(uint256)": "ef170619",
					"Warning_protect()": "dac3fad4",
					"deposit()": "d0e30db0",
					"market(address,address,uint256)": "d9e9402f",
					"purchasePower(address,uint256)": "daeae851",
					"setRouter(address,bool)": "c3c64674"
				}
			},
			"storageLayout": {
				"storage": [
					{
						"astId": 410,
						"contract": "minerpunk/treasury.sol:treasury",
						"label": "dcoff",
						"offset": 0,
						"slot": "0",
						"type": "t_contract(IERC20)77"
					},
					{
						"astId": 416,
						"contract": "minerpunk/treasury.sol:treasury",
						"label": "dcoffburn",
						"offset": 0,
						"slot": "1",
						"type": "t_contract(IburnFrom)401"
					},
					{
						"astId": 422,
						"contract": "minerpunk/treasury.sol:treasury",
						"label": "minePower",
						"offset": 0,
						"slot": "2",
						"type": "t_contract(IERC20)77"
					},
					{
						"astId": 441,
						"contract": "minerpunk/treasury.sol:treasury",
						"label": "owner",
						"offset": 0,
						"slot": "3",
						"type": "t_address"
					},
					{
						"astId": 443,
						"contract": "minerpunk/treasury.sol:treasury",
						"label": "k",
						"offset": 0,
						"slot": "4",
						"type": "t_uint256"
					},
					{
						"astId": 447,
						"contract": "minerpunk/treasury.sol:treasury",
						"label": "RouterAdmin",
						"offset": 0,
						"slot": "5",
						"type": "t_mapping(t_address,t_bool)"
					}
				],
				"types": {
					"t_address": {
						"encoding": "inplace",
						"label": "address",
						"numberOfBytes": "20"
					},
					"t_bool": {
						"encoding": "inplace",
						"label": "bool",
						"numberOfBytes": "1"
					},
					"t_contract(IERC20)77": {
						"encoding": "inplace",
						"label": "contract IERC20",
						"numberOfBytes": "20"
					},
					"t_contract(IburnFrom)401": {
						"encoding": "inplace",
						"label": "contract IburnFrom",
						"numberOfBytes": "20"
					},
					"t_mapping(t_address,t_bool)": {
						"encoding": "mapping",
						"key": "t_address",
						"label": "mapping(address => bool)",
						"numberOfBytes": "32",
						"value": "t_bool"
					},
					"t_uint256": {
						"encoding": "inplace",
						"label": "uint256",
						"numberOfBytes": "32"
					}
				}
			},
			"userdoc": {
				"kind": "user",
				"methods": {},
				"version": 1
			}
		}
	}
}