{
	"minerpunk/treasury.sol": {
		"treasury": {
			"abi": [
				{
					"inputs": [],
					"stateMutability": "nonpayable",
					"type": "constructor"
				},
				{
					"inputs": [
						{
							"internalType": "uint256",
							"name": "dcf_amount",
							"type": "uint256"
						}
					],
					"name": "ETH_DCF",
					"outputs": [
						{
							"internalType": "uint256",
							"name": "",
							"type": "uint256"
						}
					],
					"stateMutability": "view",
					"type": "function"
				},
				{
					"inputs": [],
					"name": "Warning_protect",
					"outputs": [],
					"stateMutability": "nonpayable",
					"type": "function"
				},
				{
					"inputs": [],
					"name": "deposit",
					"outputs": [],
					"stateMutability": "payable",
					"type": "function"
				},
				{
					"inputs": [
						{
							"internalType": "address",
							"name": "from",
							"type": "address"
						},
						{
							"internalType": "address payable",
							"name": "to",
							"type": "address"
						},
						{
							"internalType": "uint256",
							"name": "dcf_amount",
							"type": "uint256"
						}
					],
					"name": "market",
					"outputs": [],
					"stateMutability": "nonpayable",
					"type": "function"
				},
				{
					"inputs": [
						{
							"internalType": "address",
							"name": "user",
							"type": "address"
						},
						{
							"internalType": "bool",
							"name": "power",
							"type": "bool"
						}
					],
					"name": "setRouter",
					"outputs": [],
					"stateMutability": "nonpayable",
					"type": "function"
				}
			],
			"devdoc": {
				"kind": "dev",
				"methods": {},
				"version": 1
			},
			"evm": {
				"assembly": "    /* \"minerpunk/treasury.sol\":278:1852  contract treasury {... */\n  mstore(0x40, 0x80)\n    /* \"minerpunk/treasury.sol\":356:398  0xA9fae5eA311D3CfB2bcC9CAefC5003b30b60b6c3 */\n  0xa9fae5ea311d3cfb2bcc9caefc5003b30b60b6c3\n    /* \"minerpunk/treasury.sol\":333:399  IERC20 dcoff =  IERC20(0xA9fae5eA311D3CfB2bcC9CAefC5003b30b60b6c3) */\n  0x00\n  dup1\n  0x0100\n  exp\n  dup2\n  sload\n  dup2\n  0xffffffffffffffffffffffffffffffffffffffff\n  mul\n  not\n  and\n  swap1\n  dup4\n  0xffffffffffffffffffffffffffffffffffffffff\n  and\n  mul\n  or\n  swap1\n  sstore\n  pop\n    /* \"minerpunk/treasury.sol\":436:478  0xA9fae5eA311D3CfB2bcC9CAefC5003b30b60b6c3 */\n  0xa9fae5ea311d3cfb2bcc9caefc5003b30b60b6c3\n    /* \"minerpunk/treasury.sol\":404:479  IburnFrom dcoffburn = IburnFrom(0xA9fae5eA311D3CfB2bcC9CAefC5003b30b60b6c3) */\n  0x01\n  exp(0x0100, 0x00)\n  dup2\n  sload\n  dup2\n  0xffffffffffffffffffffffffffffffffffffffff\n  mul\n  not\n  and\n  swap1\n  dup4\n  0xffffffffffffffffffffffffffffffffffffffff\n  and\n  mul\n  or\n  swap1\n  sstore\n  pop\n    /* \"minerpunk/treasury.sol\":511:553  0xe3410Af1B80F925ac42b78EA54A48DE13dFA6eBe */\n  0xe3410af1b80f925ac42b78ea54a48de13dfa6ebe\n    /* \"minerpunk/treasury.sol\":484:554  IERC20 minePower =  IERC20(0xe3410Af1B80F925ac42b78EA54A48DE13dFA6eBe) */\n  0x02\n  exp(0x0100, 0x00)\n  dup2\n  sload\n  dup2\n  0xffffffffffffffffffffffffffffffffffffffff\n  mul\n  not\n  and\n  swap1\n  dup4\n  0xffffffffffffffffffffffffffffffffffffffff\n  and\n  mul\n  or\n  swap1\n  sstore\n  pop\n    /* \"minerpunk/treasury.sol\":595:637  0xe3410Af1B80F925ac42b78EA54A48DE13dFA6eBe */\n  0xe3410af1b80f925ac42b78ea54a48de13dfa6ebe\n    /* \"minerpunk/treasury.sol\":559:638  IburnFrom minePowerburn = IburnFrom(0xe3410Af1B80F925ac42b78EA54A48DE13dFA6eBe) */\n  0x03\n  exp(0x0100, 0x00)\n  dup2\n  sload\n  dup2\n  0xffffffffffffffffffffffffffffffffffffffff\n  mul\n  not\n  and\n  swap1\n  dup4\n  0xffffffffffffffffffffffffffffffffffffffff\n  and\n  mul\n  or\n  swap1\n  sstore\n  pop\n    /* \"minerpunk/treasury.sol\":655:699  constructor(){... */\n  callvalue\n  dup1\n  iszero\n  tag_1\n  jumpi\n  0x00\n  dup1\n  revert\ntag_1:\n  pop\n    /* \"minerpunk/treasury.sol\":683:693  msg.sender */\n  caller\n    /* \"minerpunk/treasury.sol\":675:680  owner */\n  0x04\n  0x00\n    /* \"minerpunk/treasury.sol\":675:693  owner = msg.sender */\n  0x0100\n  exp\n  dup2\n  sload\n  dup2\n  0xffffffffffffffffffffffffffffffffffffffff\n  mul\n  not\n  and\n  swap1\n  dup4\n  0xffffffffffffffffffffffffffffffffffffffff\n  and\n  mul\n  or\n  swap1\n  sstore\n  pop\n    /* \"minerpunk/treasury.sol\":278:1852  contract treasury {... */\n  dataSize(sub_0)\n  dup1\n  dataOffset(sub_0)\n  0x00\n  codecopy\n  0x00\n  return\nstop\n\nsub_0: assembly {\n        /* \"minerpunk/treasury.sol\":278:1852  contract treasury {... */\n      mstore(0x40, 0x80)\n      jumpi(tag_1, lt(calldatasize, 0x04))\n      shr(0xe0, calldataload(0x00))\n      dup1\n      0x97dedb1d\n      eq\n      tag_2\n      jumpi\n      dup1\n      0xc3c64674\n      eq\n      tag_3\n      jumpi\n      dup1\n      0xd0e30db0\n      eq\n      tag_4\n      jumpi\n      dup1\n      0xd9e9402f\n      eq\n      tag_5\n      jumpi\n      dup1\n      0xdac3fad4\n      eq\n      tag_6\n      jumpi\n    tag_1:\n      0x00\n      dup1\n      revert\n        /* \"minerpunk/treasury.sol\":1455:1713  function ETH_DCF(uint256 dcf_amount)public view returns(uint256){... */\n    tag_2:\n      callvalue\n      dup1\n      iszero\n      tag_7\n      jumpi\n      0x00\n      dup1\n      revert\n    tag_7:\n      pop\n      tag_8\n      0x04\n      dup1\n      calldatasize\n      sub\n      dup2\n      add\n      swap1\n      tag_9\n      swap2\n      swap1\n      tag_10\n      jump\t// in\n    tag_9:\n      tag_11\n      jump\t// in\n    tag_8:\n      mload(0x40)\n      tag_12\n      swap2\n      swap1\n      tag_13\n      jump\t// in\n    tag_12:\n      mload(0x40)\n      dup1\n      swap2\n      sub\n      swap1\n      return\n        /* \"minerpunk/treasury.sol\":914:1016  function setRouter(address user, bool power)external onlyOwner{... */\n    tag_3:\n      callvalue\n      dup1\n      iszero\n      tag_14\n      jumpi\n      0x00\n      dup1\n      revert\n    tag_14:\n      pop\n      tag_15\n      0x04\n      dup1\n      calldatasize\n      sub\n      dup2\n      add\n      swap1\n      tag_16\n      swap2\n      swap1\n      tag_17\n      jump\t// in\n    tag_16:\n      tag_18\n      jump\t// in\n    tag_15:\n      stop\n        /* \"minerpunk/treasury.sol\":1024:1113  function deposit()external payable{... */\n    tag_4:\n      tag_19\n      tag_20\n      jump\t// in\n    tag_19:\n      stop\n        /* \"minerpunk/treasury.sol\":1123:1447  function market(address from ,address payable to, uint256 dcf_amount)external {... */\n    tag_5:\n      callvalue\n      dup1\n      iszero\n      tag_21\n      jumpi\n      0x00\n      dup1\n      revert\n    tag_21:\n      pop\n      tag_22\n      0x04\n      dup1\n      calldatasize\n      sub\n      dup2\n      add\n      swap1\n      tag_23\n      swap2\n      swap1\n      tag_24\n      jump\t// in\n    tag_23:\n      tag_25\n      jump\t// in\n    tag_22:\n      stop\n        /* \"minerpunk/treasury.sol\":1724:1827  function Warning_protect()external onlyOwner{... */\n    tag_6:\n      callvalue\n      dup1\n      iszero\n      tag_26\n      jumpi\n      0x00\n      dup1\n      revert\n    tag_26:\n      pop\n      tag_27\n      tag_28\n      jump\t// in\n    tag_27:\n      stop\n        /* \"minerpunk/treasury.sol\":1455:1713  function ETH_DCF(uint256 dcf_amount)public view returns(uint256){... */\n    tag_11:\n        /* \"minerpunk/treasury.sol\":1511:1518  uint256 */\n      0x00\n        /* \"minerpunk/treasury.sol\":1526:1545  uint256 _eth_amount */\n      dup1\n        /* \"minerpunk/treasury.sol\":1548:1569  address(this).balance */\n      selfbalance\n        /* \"minerpunk/treasury.sol\":1526:1569  uint256 _eth_amount = address(this).balance */\n      swap1\n      pop\n        /* \"minerpunk/treasury.sol\":1576:1595  uint256 _dcf_amount */\n      0x00\n        /* \"minerpunk/treasury.sol\":1598:1603  dcoff */\n      dup1\n      0x00\n      swap1\n      sload\n      swap1\n      0x0100\n      exp\n      swap1\n      div\n      0xffffffffffffffffffffffffffffffffffffffff\n      and\n        /* \"minerpunk/treasury.sol\":1598:1615  dcoff.totalSupply */\n      0xffffffffffffffffffffffffffffffffffffffff\n      and\n      0x18160ddd\n        /* \"minerpunk/treasury.sol\":1598:1617  dcoff.totalSupply() */\n      mload(0x40)\n      dup2\n      0xffffffff\n      and\n      0xe0\n      shl\n      dup2\n      mstore\n      0x04\n      add\n      0x20\n      mload(0x40)\n      dup1\n      dup4\n      sub\n      dup2\n      dup7\n      gas\n      staticcall\n      iszero\n      dup1\n      iszero\n      tag_31\n      jumpi\n      returndatasize\n      0x00\n      dup1\n      returndatacopy\n      revert(0x00, returndatasize)\n    tag_31:\n      pop\n      pop\n      pop\n      pop\n      mload(0x40)\n      returndatasize\n      not(0x1f)\n      0x1f\n      dup3\n      add\n      and\n      dup3\n      add\n      dup1\n      0x40\n      mstore\n      pop\n      dup2\n      add\n      swap1\n      tag_32\n      swap2\n      swap1\n      tag_33\n      jump\t// in\n    tag_32:\n        /* \"minerpunk/treasury.sol\":1576:1617  uint256 _dcf_amount = dcoff.totalSupply() */\n      swap1\n      pop\n        /* \"minerpunk/treasury.sol\":1626:1640  uint256 _price */\n      0x00\n        /* \"minerpunk/treasury.sol\":1643:1687  dcf_amount.mul(_eth_amount).div(_dcf_amount) */\n      tag_34\n        /* \"minerpunk/treasury.sol\":1675:1686  _dcf_amount */\n      dup3\n        /* \"minerpunk/treasury.sol\":1643:1670  dcf_amount.mul(_eth_amount) */\n      tag_35\n        /* \"minerpunk/treasury.sol\":1658:1669  _eth_amount */\n      dup6\n        /* \"minerpunk/treasury.sol\":1643:1653  dcf_amount */\n      dup9\n        /* \"minerpunk/treasury.sol\":1643:1657  dcf_amount.mul */\n      tag_36\n      swap1\n        /* \"minerpunk/treasury.sol\":1643:1670  dcf_amount.mul(_eth_amount) */\n      swap2\n      swap1\n      0xffffffff\n      and\n      jump\t// in\n    tag_35:\n        /* \"minerpunk/treasury.sol\":1643:1674  dcf_amount.mul(_eth_amount).div */\n      tag_37\n      swap1\n        /* \"minerpunk/treasury.sol\":1643:1687  dcf_amount.mul(_eth_amount).div(_dcf_amount) */\n      swap2\n      swap1\n      0xffffffff\n      and\n      jump\t// in\n    tag_34:\n        /* \"minerpunk/treasury.sol\":1626:1687  uint256 _price = dcf_amount.mul(_eth_amount).div(_dcf_amount) */\n      swap1\n      pop\n        /* \"minerpunk/treasury.sol\":1701:1707  _price */\n      dup1\n        /* \"minerpunk/treasury.sol\":1694:1707  return _price */\n      swap4\n      pop\n      pop\n      pop\n      pop\n        /* \"minerpunk/treasury.sol\":1455:1713  function ETH_DCF(uint256 dcf_amount)public view returns(uint256){... */\n      swap2\n      swap1\n      pop\n      jump\t// out\n        /* \"minerpunk/treasury.sol\":914:1016  function setRouter(address user, bool power)external onlyOwner{... */\n    tag_18:\n        /* \"minerpunk/treasury.sol\":837:847  msg.sender */\n      caller\n        /* \"minerpunk/treasury.sol\":828:847  owner == msg.sender */\n      0xffffffffffffffffffffffffffffffffffffffff\n      and\n        /* \"minerpunk/treasury.sol\":828:833  owner */\n      0x04\n      0x00\n      swap1\n      sload\n      swap1\n      0x0100\n      exp\n      swap1\n      div\n      0xffffffffffffffffffffffffffffffffffffffff\n      and\n        /* \"minerpunk/treasury.sol\":828:847  owner == msg.sender */\n      0xffffffffffffffffffffffffffffffffffffffff\n      and\n      eq\n        /* \"minerpunk/treasury.sol\":820:884  require(owner == msg.sender, \"Ownable: caller is not the owner\") */\n      tag_39\n      jumpi\n      mload(0x40)\n      0x08c379a000000000000000000000000000000000000000000000000000000000\n      dup2\n      mstore\n      0x04\n      add\n      tag_40\n      swap1\n      tag_41\n      jump\t// in\n    tag_40:\n      mload(0x40)\n      dup1\n      swap2\n      sub\n      swap1\n      revert\n    tag_39:\n        /* \"minerpunk/treasury.sol\":1005:1010  power */\n      dup1\n        /* \"minerpunk/treasury.sol\":985:996  RouterAdmin */\n      0x06\n        /* \"minerpunk/treasury.sol\":985:1002  RouterAdmin[user] */\n      0x00\n        /* \"minerpunk/treasury.sol\":997:1001  user */\n      dup5\n        /* \"minerpunk/treasury.sol\":985:1002  RouterAdmin[user] */\n      0xffffffffffffffffffffffffffffffffffffffff\n      and\n      0xffffffffffffffffffffffffffffffffffffffff\n      and\n      dup2\n      mstore\n      0x20\n      add\n      swap1\n      dup2\n      mstore\n      0x20\n      add\n      0x00\n      keccak256\n      0x00\n        /* \"minerpunk/treasury.sol\":985:1010  RouterAdmin[user] = power */\n      0x0100\n      exp\n      dup2\n      sload\n      dup2\n      0xff\n      mul\n      not\n      and\n      swap1\n      dup4\n      iszero\n      iszero\n      mul\n      or\n      swap1\n      sstore\n      pop\n        /* \"minerpunk/treasury.sol\":914:1016  function setRouter(address user, bool power)external onlyOwner{... */\n      pop\n      pop\n      jump\t// out\n        /* \"minerpunk/treasury.sol\":1024:1113  function deposit()external payable{... */\n    tag_20:\n        /* \"minerpunk/treasury.sol\":1102:1106  true */\n      0x01\n        /* \"minerpunk/treasury.sol\":1075:1106  RouterAdmin[msg.sender] == true */\n      iszero\n      iszero\n        /* \"minerpunk/treasury.sol\":1075:1086  RouterAdmin */\n      0x06\n        /* \"minerpunk/treasury.sol\":1075:1098  RouterAdmin[msg.sender] */\n      0x00\n        /* \"minerpunk/treasury.sol\":1087:1097  msg.sender */\n      caller\n        /* \"minerpunk/treasury.sol\":1075:1098  RouterAdmin[msg.sender] */\n      0xffffffffffffffffffffffffffffffffffffffff\n      and\n      0xffffffffffffffffffffffffffffffffffffffff\n      and\n      dup2\n      mstore\n      0x20\n      add\n      swap1\n      dup2\n      mstore\n      0x20\n      add\n      0x00\n      keccak256\n      0x00\n      swap1\n      sload\n      swap1\n      0x0100\n      exp\n      swap1\n      div\n      0xff\n      and\n        /* \"minerpunk/treasury.sol\":1075:1106  RouterAdmin[msg.sender] == true */\n      iszero\n      iszero\n      eq\n        /* \"minerpunk/treasury.sol\":1067:1107  require(RouterAdmin[msg.sender] == true) */\n      tag_44\n      jumpi\n      0x00\n      dup1\n      revert\n    tag_44:\n        /* \"minerpunk/treasury.sol\":1024:1113  function deposit()external payable{... */\n      jump\t// out\n        /* \"minerpunk/treasury.sol\":1123:1447  function market(address from ,address payable to, uint256 dcf_amount)external {... */\n    tag_25:\n        /* \"minerpunk/treasury.sol\":1245:1249  true */\n      0x01\n        /* \"minerpunk/treasury.sol\":1218:1249  RouterAdmin[msg.sender] == true */\n      iszero\n      iszero\n        /* \"minerpunk/treasury.sol\":1218:1229  RouterAdmin */\n      0x06\n        /* \"minerpunk/treasury.sol\":1218:1241  RouterAdmin[msg.sender] */\n      0x00\n        /* \"minerpunk/treasury.sol\":1230:1240  msg.sender */\n      caller\n        /* \"minerpunk/treasury.sol\":1218:1241  RouterAdmin[msg.sender] */\n      0xffffffffffffffffffffffffffffffffffffffff\n      and\n      0xffffffffffffffffffffffffffffffffffffffff\n      and\n      dup2\n      mstore\n      0x20\n      add\n      swap1\n      dup2\n      mstore\n      0x20\n      add\n      0x00\n      keccak256\n      0x00\n      swap1\n      sload\n      swap1\n      0x0100\n      exp\n      swap1\n      div\n      0xff\n      and\n        /* \"minerpunk/treasury.sol\":1218:1249  RouterAdmin[msg.sender] == true */\n      iszero\n      iszero\n      eq\n        /* \"minerpunk/treasury.sol\":1210:1250  require(RouterAdmin[msg.sender] == true) */\n      tag_46\n      jumpi\n      0x00\n      dup1\n      revert\n    tag_46:\n        /* \"minerpunk/treasury.sol\":1292:1302  dcf_amount */\n      dup1\n        /* \"minerpunk/treasury.sol\":1267:1272  dcoff */\n      0x00\n      dup1\n      sload\n      swap1\n      0x0100\n      exp\n      swap1\n      div\n      0xffffffffffffffffffffffffffffffffffffffff\n      and\n        /* \"minerpunk/treasury.sol\":1267:1282  dcoff.balanceOf */\n      0xffffffffffffffffffffffffffffffffffffffff\n      and\n      0x70a08231\n        /* \"minerpunk/treasury.sol\":1283:1287  from */\n      dup6\n        /* \"minerpunk/treasury.sol\":1267:1288  dcoff.balanceOf(from) */\n      mload(0x40)\n      dup3\n      0xffffffff\n      and\n      0xe0\n      shl\n      dup2\n      mstore\n      0x04\n      add\n      tag_47\n      swap2\n      swap1\n      tag_48\n      jump\t// in\n    tag_47:\n      0x20\n      mload(0x40)\n      dup1\n      dup4\n      sub\n      dup2\n      dup7\n      gas\n      staticcall\n      iszero\n      dup1\n      iszero\n      tag_50\n      jumpi\n      returndatasize\n      0x00\n      dup1\n      returndatacopy\n      revert(0x00, returndatasize)\n    tag_50:\n      pop\n      pop\n      pop\n      pop\n      mload(0x40)\n      returndatasize\n      not(0x1f)\n      0x1f\n      dup3\n      add\n      and\n      dup3\n      add\n      dup1\n      0x40\n      mstore\n      pop\n      dup2\n      add\n      swap1\n      tag_51\n      swap2\n      swap1\n      tag_33\n      jump\t// in\n    tag_51:\n        /* \"minerpunk/treasury.sol\":1267:1302  dcoff.balanceOf(from) >= dcf_amount */\n      lt\n      iszero\n        /* \"minerpunk/treasury.sol\":1259:1303  require(dcoff.balanceOf(from) >= dcf_amount) */\n      tag_52\n      jumpi\n      0x00\n      dup1\n      revert\n    tag_52:\n        /* \"minerpunk/treasury.sol\":1314:1332  uint256 eth_amount */\n      0x00\n        /* \"minerpunk/treasury.sol\":1334:1353  ETH_DCF(dcf_amount) */\n      tag_53\n        /* \"minerpunk/treasury.sol\":1342:1352  dcf_amount */\n      dup3\n        /* \"minerpunk/treasury.sol\":1334:1341  ETH_DCF */\n      tag_11\n        /* \"minerpunk/treasury.sol\":1334:1353  ETH_DCF(dcf_amount) */\n      jump\t// in\n    tag_53:\n        /* \"minerpunk/treasury.sol\":1314:1353  uint256 eth_amount =ETH_DCF(dcf_amount) */\n      swap1\n      pop\n        /* \"minerpunk/treasury.sol\":1368:1370  to */\n      dup3\n        /* \"minerpunk/treasury.sol\":1368:1379  to.transfer */\n      0xffffffffffffffffffffffffffffffffffffffff\n      and\n        /* \"minerpunk/treasury.sol\":1368:1391  to.transfer(eth_amount) */\n      0x08fc\n        /* \"minerpunk/treasury.sol\":1380:1390  eth_amount */\n      dup3\n        /* \"minerpunk/treasury.sol\":1368:1391  to.transfer(eth_amount) */\n      swap1\n      dup2\n      iszero\n      mul\n      swap1\n      mload(0x40)\n      0x00\n      mload(0x40)\n      dup1\n      dup4\n      sub\n      dup2\n      dup6\n      dup9\n      dup9\n      call\n      swap4\n      pop\n      pop\n      pop\n      pop\n      iszero\n      dup1\n      iszero\n      tag_55\n      jumpi\n      returndatasize\n      0x00\n      dup1\n      returndatacopy\n      revert(0x00, returndatasize)\n    tag_55:\n      pop\n        /* \"minerpunk/treasury.sol\":1400:1409  dcoffburn */\n      0x01\n      0x00\n      swap1\n      sload\n      swap1\n      0x0100\n      exp\n      swap1\n      div\n      0xffffffffffffffffffffffffffffffffffffffff\n      and\n        /* \"minerpunk/treasury.sol\":1400:1418  dcoffburn.burnFrom */\n      0xffffffffffffffffffffffffffffffffffffffff\n      and\n      0x79cc6790\n        /* \"minerpunk/treasury.sol\":1419:1423  from */\n      dup6\n        /* \"minerpunk/treasury.sol\":1424:1434  dcf_amount */\n      dup5\n        /* \"minerpunk/treasury.sol\":1400:1435  dcoffburn.burnFrom(from,dcf_amount) */\n      mload(0x40)\n      dup4\n      0xffffffff\n      and\n      0xe0\n      shl\n      dup2\n      mstore\n      0x04\n      add\n      tag_56\n      swap3\n      swap2\n      swap1\n      tag_57\n      jump\t// in\n    tag_56:\n      0x00\n      mload(0x40)\n      dup1\n      dup4\n      sub\n      dup2\n      0x00\n      dup8\n      dup1\n      extcodesize\n      iszero\n      dup1\n      iszero\n      tag_58\n      jumpi\n      0x00\n      dup1\n      revert\n    tag_58:\n      pop\n      gas\n      call\n      iszero\n      dup1\n      iszero\n      tag_60\n      jumpi\n      returndatasize\n      0x00\n      dup1\n      returndatacopy\n      revert(0x00, returndatasize)\n    tag_60:\n      pop\n      pop\n      pop\n      pop\n        /* \"minerpunk/treasury.sol\":1201:1447  {... */\n      pop\n        /* \"minerpunk/treasury.sol\":1123:1447  function market(address from ,address payable to, uint256 dcf_amount)external {... */\n      pop\n      pop\n      pop\n      jump\t// out\n        /* \"minerpunk/treasury.sol\":1724:1827  function Warning_protect()external onlyOwner{... */\n    tag_28:\n        /* \"minerpunk/treasury.sol\":837:847  msg.sender */\n      caller\n        /* \"minerpunk/treasury.sol\":828:847  owner == msg.sender */\n      0xffffffffffffffffffffffffffffffffffffffff\n      and\n        /* \"minerpunk/treasury.sol\":828:833  owner */\n      0x04\n      0x00\n      swap1\n      sload\n      swap1\n      0x0100\n      exp\n      swap1\n      div\n      0xffffffffffffffffffffffffffffffffffffffff\n      and\n        /* \"minerpunk/treasury.sol\":828:847  owner == msg.sender */\n      0xffffffffffffffffffffffffffffffffffffffff\n      and\n      eq\n        /* \"minerpunk/treasury.sol\":820:884  require(owner == msg.sender, \"Ownable: caller is not the owner\") */\n      tag_62\n      jumpi\n      mload(0x40)\n      0x08c379a000000000000000000000000000000000000000000000000000000000\n      dup2\n      mstore\n      0x04\n      add\n      tag_63\n      swap1\n      tag_41\n      jump\t// in\n    tag_63:\n      mload(0x40)\n      dup1\n      swap2\n      sub\n      swap1\n      revert\n    tag_62:\n        /* \"minerpunk/treasury.sol\":1783:1788  owner */\n      0x04\n      0x00\n      swap1\n      sload\n      swap1\n      0x0100\n      exp\n      swap1\n      div\n      0xffffffffffffffffffffffffffffffffffffffff\n      and\n        /* \"minerpunk/treasury.sol\":1775:1798  payable(owner).transfer */\n      0xffffffffffffffffffffffffffffffffffffffff\n      and\n        /* \"minerpunk/treasury.sol\":1775:1821  payable(owner).transfer(address(this).balance) */\n      0x08fc\n        /* \"minerpunk/treasury.sol\":1799:1820  address(this).balance */\n      selfbalance\n        /* \"minerpunk/treasury.sol\":1775:1821  payable(owner).transfer(address(this).balance) */\n      swap1\n      dup2\n      iszero\n      mul\n      swap1\n      mload(0x40)\n      0x00\n      mload(0x40)\n      dup1\n      dup4\n      sub\n      dup2\n      dup6\n      dup9\n      dup9\n      call\n      swap4\n      pop\n      pop\n      pop\n      pop\n      iszero\n      dup1\n      iszero\n      tag_66\n      jumpi\n      returndatasize\n      0x00\n      dup1\n      returndatacopy\n      revert(0x00, returndatasize)\n    tag_66:\n      pop\n        /* \"minerpunk/treasury.sol\":1724:1827  function Warning_protect()external onlyOwner{... */\n      jump\t// out\n        /* \"@openzeppelin/contracts/utils/math/SafeMath.sol\":3465:3561  function mul(uint256 a, uint256 b) internal pure returns (uint256) {... */\n    tag_36:\n        /* \"@openzeppelin/contracts/utils/math/SafeMath.sol\":3523:3530  uint256 */\n      0x00\n        /* \"@openzeppelin/contracts/utils/math/SafeMath.sol\":3553:3554  b */\n      dup2\n        /* \"@openzeppelin/contracts/utils/math/SafeMath.sol\":3549:3550  a */\n      dup4\n        /* \"@openzeppelin/contracts/utils/math/SafeMath.sol\":3549:3554  a * b */\n      tag_68\n      swap2\n      swap1\n      tag_69\n      jump\t// in\n    tag_68:\n        /* \"@openzeppelin/contracts/utils/math/SafeMath.sol\":3542:3554  return a * b */\n      swap1\n      pop\n        /* \"@openzeppelin/contracts/utils/math/SafeMath.sol\":3465:3561  function mul(uint256 a, uint256 b) internal pure returns (uint256) {... */\n      swap3\n      swap2\n      pop\n      pop\n      jump\t// out\n        /* \"@openzeppelin/contracts/utils/math/SafeMath.sol\":3850:3946  function div(uint256 a, uint256 b) internal pure returns (uint256) {... */\n    tag_37:\n        /* \"@openzeppelin/contracts/utils/math/SafeMath.sol\":3908:3915  uint256 */\n      0x00\n        /* \"@openzeppelin/contracts/utils/math/SafeMath.sol\":3938:3939  b */\n      dup2\n        /* \"@openzeppelin/contracts/utils/math/SafeMath.sol\":3934:3935  a */\n      dup4\n        /* \"@openzeppelin/contracts/utils/math/SafeMath.sol\":3934:3939  a / b */\n      tag_71\n      swap2\n      swap1\n      tag_72\n      jump\t// in\n    tag_71:\n        /* \"@openzeppelin/contracts/utils/math/SafeMath.sol\":3927:3939  return a / b */\n      swap1\n      pop\n        /* \"@openzeppelin/contracts/utils/math/SafeMath.sol\":3850:3946  function div(uint256 a, uint256 b) internal pure returns (uint256) {... */\n      swap3\n      swap2\n      pop\n      pop\n      jump\t// out\n        /* \"#utility.yul\":88:205   */\n    tag_74:\n        /* \"#utility.yul\":197:198   */\n      0x00\n        /* \"#utility.yul\":194:195   */\n      dup1\n        /* \"#utility.yul\":187:199   */\n      revert\n        /* \"#utility.yul\":334:411   */\n    tag_76:\n        /* \"#utility.yul\":371:378   */\n      0x00\n        /* \"#utility.yul\":400:405   */\n      dup2\n        /* \"#utility.yul\":389:405   */\n      swap1\n      pop\n        /* \"#utility.yul\":334:411   */\n      swap2\n      swap1\n      pop\n      jump\t// out\n        /* \"#utility.yul\":417:539   */\n    tag_77:\n        /* \"#utility.yul\":490:514   */\n      tag_103\n        /* \"#utility.yul\":508:513   */\n      dup2\n        /* \"#utility.yul\":490:514   */\n      tag_76\n      jump\t// in\n    tag_103:\n        /* \"#utility.yul\":483:488   */\n      dup2\n        /* \"#utility.yul\":480:515   */\n      eq\n        /* \"#utility.yul\":470:533   */\n      tag_104\n      jumpi\n        /* \"#utility.yul\":529:530   */\n      0x00\n        /* \"#utility.yul\":526:527   */\n      dup1\n        /* \"#utility.yul\":519:531   */\n      revert\n        /* \"#utility.yul\":470:533   */\n    tag_104:\n        /* \"#utility.yul\":417:539   */\n      pop\n      jump\t// out\n        /* \"#utility.yul\":545:684   */\n    tag_78:\n        /* \"#utility.yul\":591:596   */\n      0x00\n        /* \"#utility.yul\":629:635   */\n      dup2\n        /* \"#utility.yul\":616:636   */\n      calldataload\n        /* \"#utility.yul\":607:636   */\n      swap1\n      pop\n        /* \"#utility.yul\":645:678   */\n      tag_106\n        /* \"#utility.yul\":672:677   */\n      dup2\n        /* \"#utility.yul\":645:678   */\n      tag_77\n      jump\t// in\n    tag_106:\n        /* \"#utility.yul\":545:684   */\n      swap3\n      swap2\n      pop\n      pop\n      jump\t// out\n        /* \"#utility.yul\":690:1019   */\n    tag_10:\n        /* \"#utility.yul\":749:755   */\n      0x00\n        /* \"#utility.yul\":798:800   */\n      0x20\n        /* \"#utility.yul\":786:795   */\n      dup3\n        /* \"#utility.yul\":777:784   */\n      dup5\n        /* \"#utility.yul\":773:796   */\n      sub\n        /* \"#utility.yul\":769:801   */\n      slt\n        /* \"#utility.yul\":766:885   */\n      iszero\n      tag_108\n      jumpi\n        /* \"#utility.yul\":804:883   */\n      tag_109\n      tag_74\n      jump\t// in\n    tag_109:\n        /* \"#utility.yul\":766:885   */\n    tag_108:\n        /* \"#utility.yul\":924:925   */\n      0x00\n        /* \"#utility.yul\":949:1002   */\n      tag_110\n        /* \"#utility.yul\":994:1001   */\n      dup5\n        /* \"#utility.yul\":985:991   */\n      dup3\n        /* \"#utility.yul\":974:983   */\n      dup6\n        /* \"#utility.yul\":970:992   */\n      add\n        /* \"#utility.yul\":949:1002   */\n      tag_78\n      jump\t// in\n    tag_110:\n        /* \"#utility.yul\":939:1002   */\n      swap2\n      pop\n        /* \"#utility.yul\":895:1012   */\n      pop\n        /* \"#utility.yul\":690:1019   */\n      swap3\n      swap2\n      pop\n      pop\n      jump\t// out\n        /* \"#utility.yul\":1025:1143   */\n    tag_79:\n        /* \"#utility.yul\":1112:1136   */\n      tag_112\n        /* \"#utility.yul\":1130:1135   */\n      dup2\n        /* \"#utility.yul\":1112:1136   */\n      tag_76\n      jump\t// in\n    tag_112:\n        /* \"#utility.yul\":1107:1110   */\n      dup3\n        /* \"#utility.yul\":1100:1137   */\n      mstore\n        /* \"#utility.yul\":1025:1143   */\n      pop\n      pop\n      jump\t// out\n        /* \"#utility.yul\":1149:1371   */\n    tag_13:\n        /* \"#utility.yul\":1242:1246   */\n      0x00\n        /* \"#utility.yul\":1280:1282   */\n      0x20\n        /* \"#utility.yul\":1269:1278   */\n      dup3\n        /* \"#utility.yul\":1265:1283   */\n      add\n        /* \"#utility.yul\":1257:1283   */\n      swap1\n      pop\n        /* \"#utility.yul\":1293:1364   */\n      tag_114\n        /* \"#utility.yul\":1361:1362   */\n      0x00\n        /* \"#utility.yul\":1350:1359   */\n      dup4\n        /* \"#utility.yul\":1346:1363   */\n      add\n        /* \"#utility.yul\":1337:1343   */\n      dup5\n        /* \"#utility.yul\":1293:1364   */\n      tag_79\n      jump\t// in\n    tag_114:\n        /* \"#utility.yul\":1149:1371   */\n      swap3\n      swap2\n      pop\n      pop\n      jump\t// out\n        /* \"#utility.yul\":1377:1503   */\n    tag_80:\n        /* \"#utility.yul\":1414:1421   */\n      0x00\n        /* \"#utility.yul\":1454:1496   */\n      0xffffffffffffffffffffffffffffffffffffffff\n        /* \"#utility.yul\":1447:1452   */\n      dup3\n        /* \"#utility.yul\":1443:1497   */\n      and\n        /* \"#utility.yul\":1432:1497   */\n      swap1\n      pop\n        /* \"#utility.yul\":1377:1503   */\n      swap2\n      swap1\n      pop\n      jump\t// out\n        /* \"#utility.yul\":1509:1605   */\n    tag_81:\n        /* \"#utility.yul\":1546:1553   */\n      0x00\n        /* \"#utility.yul\":1575:1599   */\n      tag_117\n        /* \"#utility.yul\":1593:1598   */\n      dup3\n        /* \"#utility.yul\":1575:1599   */\n      tag_80\n      jump\t// in\n    tag_117:\n        /* \"#utility.yul\":1564:1599   */\n      swap1\n      pop\n        /* \"#utility.yul\":1509:1605   */\n      swap2\n      swap1\n      pop\n      jump\t// out\n        /* \"#utility.yul\":1611:1733   */\n    tag_82:\n        /* \"#utility.yul\":1684:1708   */\n      tag_119\n        /* \"#utility.yul\":1702:1707   */\n      dup2\n        /* \"#utility.yul\":1684:1708   */\n      tag_81\n      jump\t// in\n    tag_119:\n        /* \"#utility.yul\":1677:1682   */\n      dup2\n        /* \"#utility.yul\":1674:1709   */\n      eq\n        /* \"#utility.yul\":1664:1727   */\n      tag_120\n      jumpi\n        /* \"#utility.yul\":1723:1724   */\n      0x00\n        /* \"#utility.yul\":1720:1721   */\n      dup1\n        /* \"#utility.yul\":1713:1725   */\n      revert\n        /* \"#utility.yul\":1664:1727   */\n    tag_120:\n        /* \"#utility.yul\":1611:1733   */\n      pop\n      jump\t// out\n        /* \"#utility.yul\":1739:1878   */\n    tag_83:\n        /* \"#utility.yul\":1785:1790   */\n      0x00\n        /* \"#utility.yul\":1823:1829   */\n      dup2\n        /* \"#utility.yul\":1810:1830   */\n      calldataload\n        /* \"#utility.yul\":1801:1830   */\n      swap1\n      pop\n        /* \"#utility.yul\":1839:1872   */\n      tag_122\n        /* \"#utility.yul\":1866:1871   */\n      dup2\n        /* \"#utility.yul\":1839:1872   */\n      tag_82\n      jump\t// in\n    tag_122:\n        /* \"#utility.yul\":1739:1878   */\n      swap3\n      swap2\n      pop\n      pop\n      jump\t// out\n        /* \"#utility.yul\":1884:1974   */\n    tag_84:\n        /* \"#utility.yul\":1918:1925   */\n      0x00\n        /* \"#utility.yul\":1961:1966   */\n      dup2\n        /* \"#utility.yul\":1954:1967   */\n      iszero\n        /* \"#utility.yul\":1947:1968   */\n      iszero\n        /* \"#utility.yul\":1936:1968   */\n      swap1\n      pop\n        /* \"#utility.yul\":1884:1974   */\n      swap2\n      swap1\n      pop\n      jump\t// out\n        /* \"#utility.yul\":1980:2096   */\n    tag_85:\n        /* \"#utility.yul\":2050:2071   */\n      tag_125\n        /* \"#utility.yul\":2065:2070   */\n      dup2\n        /* \"#utility.yul\":2050:2071   */\n      tag_84\n      jump\t// in\n    tag_125:\n        /* \"#utility.yul\":2043:2048   */\n      dup2\n        /* \"#utility.yul\":2040:2072   */\n      eq\n        /* \"#utility.yul\":2030:2090   */\n      tag_126\n      jumpi\n        /* \"#utility.yul\":2086:2087   */\n      0x00\n        /* \"#utility.yul\":2083:2084   */\n      dup1\n        /* \"#utility.yul\":2076:2088   */\n      revert\n        /* \"#utility.yul\":2030:2090   */\n    tag_126:\n        /* \"#utility.yul\":1980:2096   */\n      pop\n      jump\t// out\n        /* \"#utility.yul\":2102:2235   */\n    tag_86:\n        /* \"#utility.yul\":2145:2150   */\n      0x00\n        /* \"#utility.yul\":2183:2189   */\n      dup2\n        /* \"#utility.yul\":2170:2190   */\n      calldataload\n        /* \"#utility.yul\":2161:2190   */\n      swap1\n      pop\n        /* \"#utility.yul\":2199:2229   */\n      tag_128\n        /* \"#utility.yul\":2223:2228   */\n      dup2\n        /* \"#utility.yul\":2199:2229   */\n      tag_85\n      jump\t// in\n    tag_128:\n        /* \"#utility.yul\":2102:2235   */\n      swap3\n      swap2\n      pop\n      pop\n      jump\t// out\n        /* \"#utility.yul\":2241:2709   */\n    tag_17:\n        /* \"#utility.yul\":2306:2312   */\n      0x00\n        /* \"#utility.yul\":2314:2320   */\n      dup1\n        /* \"#utility.yul\":2363:2365   */\n      0x40\n        /* \"#utility.yul\":2351:2360   */\n      dup4\n        /* \"#utility.yul\":2342:2349   */\n      dup6\n        /* \"#utility.yul\":2338:2361   */\n      sub\n        /* \"#utility.yul\":2334:2366   */\n      slt\n        /* \"#utility.yul\":2331:2450   */\n      iszero\n      tag_130\n      jumpi\n        /* \"#utility.yul\":2369:2448   */\n      tag_131\n      tag_74\n      jump\t// in\n    tag_131:\n        /* \"#utility.yul\":2331:2450   */\n    tag_130:\n        /* \"#utility.yul\":2489:2490   */\n      0x00\n        /* \"#utility.yul\":2514:2567   */\n      tag_132\n        /* \"#utility.yul\":2559:2566   */\n      dup6\n        /* \"#utility.yul\":2550:2556   */\n      dup3\n        /* \"#utility.yul\":2539:2548   */\n      dup7\n        /* \"#utility.yul\":2535:2557   */\n      add\n        /* \"#utility.yul\":2514:2567   */\n      tag_83\n      jump\t// in\n    tag_132:\n        /* \"#utility.yul\":2504:2567   */\n      swap3\n      pop\n        /* \"#utility.yul\":2460:2577   */\n      pop\n        /* \"#utility.yul\":2616:2618   */\n      0x20\n        /* \"#utility.yul\":2642:2692   */\n      tag_133\n        /* \"#utility.yul\":2684:2691   */\n      dup6\n        /* \"#utility.yul\":2675:2681   */\n      dup3\n        /* \"#utility.yul\":2664:2673   */\n      dup7\n        /* \"#utility.yul\":2660:2682   */\n      add\n        /* \"#utility.yul\":2642:2692   */\n      tag_86\n      jump\t// in\n    tag_133:\n        /* \"#utility.yul\":2632:2692   */\n      swap2\n      pop\n        /* \"#utility.yul\":2587:2702   */\n      pop\n        /* \"#utility.yul\":2241:2709   */\n      swap3\n      pop\n      swap3\n      swap1\n      pop\n      jump\t// out\n        /* \"#utility.yul\":2715:2819   */\n    tag_87:\n        /* \"#utility.yul\":2760:2767   */\n      0x00\n        /* \"#utility.yul\":2789:2813   */\n      tag_135\n        /* \"#utility.yul\":2807:2812   */\n      dup3\n        /* \"#utility.yul\":2789:2813   */\n      tag_80\n      jump\t// in\n    tag_135:\n        /* \"#utility.yul\":2778:2813   */\n      swap1\n      pop\n        /* \"#utility.yul\":2715:2819   */\n      swap2\n      swap1\n      pop\n      jump\t// out\n        /* \"#utility.yul\":2825:2963   */\n    tag_88:\n        /* \"#utility.yul\":2906:2938   */\n      tag_137\n        /* \"#utility.yul\":2932:2937   */\n      dup2\n        /* \"#utility.yul\":2906:2938   */\n      tag_87\n      jump\t// in\n    tag_137:\n        /* \"#utility.yul\":2899:2904   */\n      dup2\n        /* \"#utility.yul\":2896:2939   */\n      eq\n        /* \"#utility.yul\":2886:2957   */\n      tag_138\n      jumpi\n        /* \"#utility.yul\":2953:2954   */\n      0x00\n        /* \"#utility.yul\":2950:2951   */\n      dup1\n        /* \"#utility.yul\":2943:2955   */\n      revert\n        /* \"#utility.yul\":2886:2957   */\n    tag_138:\n        /* \"#utility.yul\":2825:2963   */\n      pop\n      jump\t// out\n        /* \"#utility.yul\":2969:3124   */\n    tag_89:\n        /* \"#utility.yul\":3023:3028   */\n      0x00\n        /* \"#utility.yul\":3061:3067   */\n      dup2\n        /* \"#utility.yul\":3048:3068   */\n      calldataload\n        /* \"#utility.yul\":3039:3068   */\n      swap1\n      pop\n        /* \"#utility.yul\":3077:3118   */\n      tag_140\n        /* \"#utility.yul\":3112:3117   */\n      dup2\n        /* \"#utility.yul\":3077:3118   */\n      tag_88\n      jump\t// in\n    tag_140:\n        /* \"#utility.yul\":2969:3124   */\n      swap3\n      swap2\n      pop\n      pop\n      jump\t// out\n        /* \"#utility.yul\":3130:3765   */\n    tag_24:\n        /* \"#utility.yul\":3215:3221   */\n      0x00\n        /* \"#utility.yul\":3223:3229   */\n      dup1\n        /* \"#utility.yul\":3231:3237   */\n      0x00\n        /* \"#utility.yul\":3280:3282   */\n      0x60\n        /* \"#utility.yul\":3268:3277   */\n      dup5\n        /* \"#utility.yul\":3259:3266   */\n      dup7\n        /* \"#utility.yul\":3255:3278   */\n      sub\n        /* \"#utility.yul\":3251:3283   */\n      slt\n        /* \"#utility.yul\":3248:3367   */\n      iszero\n      tag_142\n      jumpi\n        /* \"#utility.yul\":3286:3365   */\n      tag_143\n      tag_74\n      jump\t// in\n    tag_143:\n        /* \"#utility.yul\":3248:3367   */\n    tag_142:\n        /* \"#utility.yul\":3406:3407   */\n      0x00\n        /* \"#utility.yul\":3431:3484   */\n      tag_144\n        /* \"#utility.yul\":3476:3483   */\n      dup7\n        /* \"#utility.yul\":3467:3473   */\n      dup3\n        /* \"#utility.yul\":3456:3465   */\n      dup8\n        /* \"#utility.yul\":3452:3474   */\n      add\n        /* \"#utility.yul\":3431:3484   */\n      tag_83\n      jump\t// in\n    tag_144:\n        /* \"#utility.yul\":3421:3484   */\n      swap4\n      pop\n        /* \"#utility.yul\":3377:3494   */\n      pop\n        /* \"#utility.yul\":3533:3535   */\n      0x20\n        /* \"#utility.yul\":3559:3620   */\n      tag_145\n        /* \"#utility.yul\":3612:3619   */\n      dup7\n        /* \"#utility.yul\":3603:3609   */\n      dup3\n        /* \"#utility.yul\":3592:3601   */\n      dup8\n        /* \"#utility.yul\":3588:3610   */\n      add\n        /* \"#utility.yul\":3559:3620   */\n      tag_89\n      jump\t// in\n    tag_145:\n        /* \"#utility.yul\":3549:3620   */\n      swap3\n      pop\n        /* \"#utility.yul\":3504:3630   */\n      pop\n        /* \"#utility.yul\":3669:3671   */\n      0x40\n        /* \"#utility.yul\":3695:3748   */\n      tag_146\n        /* \"#utility.yul\":3740:3747   */\n      dup7\n        /* \"#utility.yul\":3731:3737   */\n      dup3\n        /* \"#utility.yul\":3720:3729   */\n      dup8\n        /* \"#utility.yul\":3716:3738   */\n      add\n        /* \"#utility.yul\":3695:3748   */\n      tag_78\n      jump\t// in\n    tag_146:\n        /* \"#utility.yul\":3685:3748   */\n      swap2\n      pop\n        /* \"#utility.yul\":3640:3758   */\n      pop\n        /* \"#utility.yul\":3130:3765   */\n      swap3\n      pop\n      swap3\n      pop\n      swap3\n      jump\t// out\n        /* \"#utility.yul\":3771:3914   */\n    tag_90:\n        /* \"#utility.yul\":3828:3833   */\n      0x00\n        /* \"#utility.yul\":3859:3865   */\n      dup2\n        /* \"#utility.yul\":3853:3866   */\n      mload\n        /* \"#utility.yul\":3844:3866   */\n      swap1\n      pop\n        /* \"#utility.yul\":3875:3908   */\n      tag_148\n        /* \"#utility.yul\":3902:3907   */\n      dup2\n        /* \"#utility.yul\":3875:3908   */\n      tag_77\n      jump\t// in\n    tag_148:\n        /* \"#utility.yul\":3771:3914   */\n      swap3\n      swap2\n      pop\n      pop\n      jump\t// out\n        /* \"#utility.yul\":3920:4271   */\n    tag_33:\n        /* \"#utility.yul\":3990:3996   */\n      0x00\n        /* \"#utility.yul\":4039:4041   */\n      0x20\n        /* \"#utility.yul\":4027:4036   */\n      dup3\n        /* \"#utility.yul\":4018:4025   */\n      dup5\n        /* \"#utility.yul\":4014:4037   */\n      sub\n        /* \"#utility.yul\":4010:4042   */\n      slt\n        /* \"#utility.yul\":4007:4126   */\n      iszero\n      tag_150\n      jumpi\n        /* \"#utility.yul\":4045:4124   */\n      tag_151\n      tag_74\n      jump\t// in\n    tag_151:\n        /* \"#utility.yul\":4007:4126   */\n    tag_150:\n        /* \"#utility.yul\":4165:4166   */\n      0x00\n        /* \"#utility.yul\":4190:4254   */\n      tag_152\n        /* \"#utility.yul\":4246:4253   */\n      dup5\n        /* \"#utility.yul\":4237:4243   */\n      dup3\n        /* \"#utility.yul\":4226:4235   */\n      dup6\n        /* \"#utility.yul\":4222:4244   */\n      add\n        /* \"#utility.yul\":4190:4254   */\n      tag_90\n      jump\t// in\n    tag_152:\n        /* \"#utility.yul\":4180:4254   */\n      swap2\n      pop\n        /* \"#utility.yul\":4136:4264   */\n      pop\n        /* \"#utility.yul\":3920:4271   */\n      swap3\n      swap2\n      pop\n      pop\n      jump\t// out\n        /* \"#utility.yul\":4277:4446   */\n    tag_91:\n        /* \"#utility.yul\":4361:4372   */\n      0x00\n        /* \"#utility.yul\":4395:4401   */\n      dup3\n        /* \"#utility.yul\":4390:4393   */\n      dup3\n        /* \"#utility.yul\":4383:4402   */\n      mstore\n        /* \"#utility.yul\":4435:4439   */\n      0x20\n        /* \"#utility.yul\":4430:4433   */\n      dup3\n        /* \"#utility.yul\":4426:4440   */\n      add\n        /* \"#utility.yul\":4411:4440   */\n      swap1\n      pop\n        /* \"#utility.yul\":4277:4446   */\n      swap3\n      swap2\n      pop\n      pop\n      jump\t// out\n        /* \"#utility.yul\":4452:4634   */\n    tag_92:\n        /* \"#utility.yul\":4592:4626   */\n      0x4f776e61626c653a2063616c6c6572206973206e6f7420746865206f776e6572\n        /* \"#utility.yul\":4588:4589   */\n      0x00\n        /* \"#utility.yul\":4580:4586   */\n      dup3\n        /* \"#utility.yul\":4576:4590   */\n      add\n        /* \"#utility.yul\":4569:4627   */\n      mstore\n        /* \"#utility.yul\":4452:4634   */\n      pop\n      jump\t// out\n        /* \"#utility.yul\":4640:5006   */\n    tag_93:\n        /* \"#utility.yul\":4782:4785   */\n      0x00\n        /* \"#utility.yul\":4803:4870   */\n      tag_156\n        /* \"#utility.yul\":4867:4869   */\n      0x20\n        /* \"#utility.yul\":4862:4865   */\n      dup4\n        /* \"#utility.yul\":4803:4870   */\n      tag_91\n      jump\t// in\n    tag_156:\n        /* \"#utility.yul\":4796:4870   */\n      swap2\n      pop\n        /* \"#utility.yul\":4879:4972   */\n      tag_157\n        /* \"#utility.yul\":4968:4971   */\n      dup3\n        /* \"#utility.yul\":4879:4972   */\n      tag_92\n      jump\t// in\n    tag_157:\n        /* \"#utility.yul\":4997:4999   */\n      0x20\n        /* \"#utility.yul\":4992:4995   */\n      dup3\n        /* \"#utility.yul\":4988:5000   */\n      add\n        /* \"#utility.yul\":4981:5000   */\n      swap1\n      pop\n        /* \"#utility.yul\":4640:5006   */\n      swap2\n      swap1\n      pop\n      jump\t// out\n        /* \"#utility.yul\":5012:5431   */\n    tag_41:\n        /* \"#utility.yul\":5178:5182   */\n      0x00\n        /* \"#utility.yul\":5216:5218   */\n      0x20\n        /* \"#utility.yul\":5205:5214   */\n      dup3\n        /* \"#utility.yul\":5201:5219   */\n      add\n        /* \"#utility.yul\":5193:5219   */\n      swap1\n      pop\n        /* \"#utility.yul\":5265:5274   */\n      dup2\n        /* \"#utility.yul\":5259:5263   */\n      dup2\n        /* \"#utility.yul\":5255:5275   */\n      sub\n        /* \"#utility.yul\":5251:5252   */\n      0x00\n        /* \"#utility.yul\":5240:5249   */\n      dup4\n        /* \"#utility.yul\":5236:5253   */\n      add\n        /* \"#utility.yul\":5229:5276   */\n      mstore\n        /* \"#utility.yul\":5293:5424   */\n      tag_159\n        /* \"#utility.yul\":5419:5423   */\n      dup2\n        /* \"#utility.yul\":5293:5424   */\n      tag_93\n      jump\t// in\n    tag_159:\n        /* \"#utility.yul\":5285:5424   */\n      swap1\n      pop\n        /* \"#utility.yul\":5012:5431   */\n      swap2\n      swap1\n      pop\n      jump\t// out\n        /* \"#utility.yul\":5437:5555   */\n    tag_94:\n        /* \"#utility.yul\":5524:5548   */\n      tag_161\n        /* \"#utility.yul\":5542:5547   */\n      dup2\n        /* \"#utility.yul\":5524:5548   */\n      tag_81\n      jump\t// in\n    tag_161:\n        /* \"#utility.yul\":5519:5522   */\n      dup3\n        /* \"#utility.yul\":5512:5549   */\n      mstore\n        /* \"#utility.yul\":5437:5555   */\n      pop\n      pop\n      jump\t// out\n        /* \"#utility.yul\":5561:5783   */\n    tag_48:\n        /* \"#utility.yul\":5654:5658   */\n      0x00\n        /* \"#utility.yul\":5692:5694   */\n      0x20\n        /* \"#utility.yul\":5681:5690   */\n      dup3\n        /* \"#utility.yul\":5677:5695   */\n      add\n        /* \"#utility.yul\":5669:5695   */\n      swap1\n      pop\n        /* \"#utility.yul\":5705:5776   */\n      tag_163\n        /* \"#utility.yul\":5773:5774   */\n      0x00\n        /* \"#utility.yul\":5762:5771   */\n      dup4\n        /* \"#utility.yul\":5758:5775   */\n      add\n        /* \"#utility.yul\":5749:5755   */\n      dup5\n        /* \"#utility.yul\":5705:5776   */\n      tag_94\n      jump\t// in\n    tag_163:\n        /* \"#utility.yul\":5561:5783   */\n      swap3\n      swap2\n      pop\n      pop\n      jump\t// out\n        /* \"#utility.yul\":5789:6121   */\n    tag_57:\n        /* \"#utility.yul\":5910:5914   */\n      0x00\n        /* \"#utility.yul\":5948:5950   */\n      0x40\n        /* \"#utility.yul\":5937:5946   */\n      dup3\n        /* \"#utility.yul\":5933:5951   */\n      add\n        /* \"#utility.yul\":5925:5951   */\n      swap1\n      pop\n        /* \"#utility.yul\":5961:6032   */\n      tag_165\n        /* \"#utility.yul\":6029:6030   */\n      0x00\n        /* \"#utility.yul\":6018:6027   */\n      dup4\n        /* \"#utility.yul\":6014:6031   */\n      add\n        /* \"#utility.yul\":6005:6011   */\n      dup6\n        /* \"#utility.yul\":5961:6032   */\n      tag_94\n      jump\t// in\n    tag_165:\n        /* \"#utility.yul\":6042:6114   */\n      tag_166\n        /* \"#utility.yul\":6110:6112   */\n      0x20\n        /* \"#utility.yul\":6099:6108   */\n      dup4\n        /* \"#utility.yul\":6095:6113   */\n      add\n        /* \"#utility.yul\":6086:6092   */\n      dup5\n        /* \"#utility.yul\":6042:6114   */\n      tag_79\n      jump\t// in\n    tag_166:\n        /* \"#utility.yul\":5789:6121   */\n      swap4\n      swap3\n      pop\n      pop\n      pop\n      jump\t// out\n        /* \"#utility.yul\":6127:6307   */\n    tag_95:\n        /* \"#utility.yul\":6175:6252   */\n      0x4e487b7100000000000000000000000000000000000000000000000000000000\n        /* \"#utility.yul\":6172:6173   */\n      0x00\n        /* \"#utility.yul\":6165:6253   */\n      mstore\n        /* \"#utility.yul\":6272:6276   */\n      0x11\n        /* \"#utility.yul\":6269:6270   */\n      0x04\n        /* \"#utility.yul\":6262:6277   */\n      mstore\n        /* \"#utility.yul\":6296:6300   */\n      0x24\n        /* \"#utility.yul\":6293:6294   */\n      0x00\n        /* \"#utility.yul\":6286:6301   */\n      revert\n        /* \"#utility.yul\":6313:6723   */\n    tag_69:\n        /* \"#utility.yul\":6353:6360   */\n      0x00\n        /* \"#utility.yul\":6376:6396   */\n      tag_169\n        /* \"#utility.yul\":6394:6395   */\n      dup3\n        /* \"#utility.yul\":6376:6396   */\n      tag_76\n      jump\t// in\n    tag_169:\n        /* \"#utility.yul\":6371:6396   */\n      swap2\n      pop\n        /* \"#utility.yul\":6410:6430   */\n      tag_170\n        /* \"#utility.yul\":6428:6429   */\n      dup4\n        /* \"#utility.yul\":6410:6430   */\n      tag_76\n      jump\t// in\n    tag_170:\n        /* \"#utility.yul\":6405:6430   */\n      swap3\n      pop\n        /* \"#utility.yul\":6465:6466   */\n      dup3\n        /* \"#utility.yul\":6462:6463   */\n      dup3\n        /* \"#utility.yul\":6458:6467   */\n      mul\n        /* \"#utility.yul\":6487:6517   */\n      tag_171\n        /* \"#utility.yul\":6505:6516   */\n      dup2\n        /* \"#utility.yul\":6487:6517   */\n      tag_76\n      jump\t// in\n    tag_171:\n        /* \"#utility.yul\":6476:6517   */\n      swap2\n      pop\n        /* \"#utility.yul\":6666:6667   */\n      dup3\n        /* \"#utility.yul\":6657:6664   */\n      dup3\n        /* \"#utility.yul\":6653:6668   */\n      div\n        /* \"#utility.yul\":6650:6651   */\n      dup5\n        /* \"#utility.yul\":6647:6669   */\n      eq\n        /* \"#utility.yul\":6627:6628   */\n      dup4\n        /* \"#utility.yul\":6620:6629   */\n      iszero\n        /* \"#utility.yul\":6600:6683   */\n      or\n        /* \"#utility.yul\":6577:6716   */\n      tag_172\n      jumpi\n        /* \"#utility.yul\":6696:6714   */\n      tag_173\n      tag_95\n      jump\t// in\n    tag_173:\n        /* \"#utility.yul\":6577:6716   */\n    tag_172:\n        /* \"#utility.yul\":6361:6723   */\n      pop\n        /* \"#utility.yul\":6313:6723   */\n      swap3\n      swap2\n      pop\n      pop\n      jump\t// out\n        /* \"#utility.yul\":6729:6909   */\n    tag_96:\n        /* \"#utility.yul\":6777:6854   */\n      0x4e487b7100000000000000000000000000000000000000000000000000000000\n        /* \"#utility.yul\":6774:6775   */\n      0x00\n        /* \"#utility.yul\":6767:6855   */\n      mstore\n        /* \"#utility.yul\":6874:6878   */\n      0x12\n        /* \"#utility.yul\":6871:6872   */\n      0x04\n        /* \"#utility.yul\":6864:6879   */\n      mstore\n        /* \"#utility.yul\":6898:6902   */\n      0x24\n        /* \"#utility.yul\":6895:6896   */\n      0x00\n        /* \"#utility.yul\":6888:6903   */\n      revert\n        /* \"#utility.yul\":6915:7100   */\n    tag_72:\n        /* \"#utility.yul\":6955:6956   */\n      0x00\n        /* \"#utility.yul\":6972:6992   */\n      tag_176\n        /* \"#utility.yul\":6990:6991   */\n      dup3\n        /* \"#utility.yul\":6972:6992   */\n      tag_76\n      jump\t// in\n    tag_176:\n        /* \"#utility.yul\":6967:6992   */\n      swap2\n      pop\n        /* \"#utility.yul\":7006:7026   */\n      tag_177\n        /* \"#utility.yul\":7024:7025   */\n      dup4\n        /* \"#utility.yul\":7006:7026   */\n      tag_76\n      jump\t// in\n    tag_177:\n        /* \"#utility.yul\":7001:7026   */\n      swap3\n      pop\n        /* \"#utility.yul\":7045:7046   */\n      dup3\n        /* \"#utility.yul\":7035:7070   */\n      tag_178\n      jumpi\n        /* \"#utility.yul\":7050:7068   */\n      tag_179\n      tag_96\n      jump\t// in\n    tag_179:\n        /* \"#utility.yul\":7035:7070   */\n    tag_178:\n        /* \"#utility.yul\":7092:7093   */\n      dup3\n        /* \"#utility.yul\":7089:7090   */\n      dup3\n        /* \"#utility.yul\":7085:7094   */\n      div\n        /* \"#utility.yul\":7080:7094   */\n      swap1\n      pop\n        /* \"#utility.yul\":6915:7100   */\n      swap3\n      swap2\n      pop\n      pop\n      jump\t// out\n\n    auxdata: 0xa26469706673582212206c7c50d3e02d8850b700b4ee114a80aaebc033a8ea13a1275d818b155e4df97a64736f6c63430008110033\n}\n",
				"bytecode": {
					"linkReferences": {},
					"object": "608060405273a9fae5ea311d3cfb2bcc9caefc5003b30b60b6c36000806101000a81548173ffffffffffffffffffffffffffffffffffffffff021916908373ffffffffffffffffffffffffffffffffffffffff16021790555073a9fae5ea311d3cfb2bcc9caefc5003b30b60b6c3600160006101000a81548173ffffffffffffffffffffffffffffffffffffffff021916908373ffffffffffffffffffffffffffffffffffffffff16021790555073e3410af1b80f925ac42b78ea54a48de13dfa6ebe600260006101000a81548173ffffffffffffffffffffffffffffffffffffffff021916908373ffffffffffffffffffffffffffffffffffffffff16021790555073e3410af1b80f925ac42b78ea54a48de13dfa6ebe600360006101000a81548173ffffffffffffffffffffffffffffffffffffffff021916908373ffffffffffffffffffffffffffffffffffffffff16021790555034801561016357600080fd5b5033600460006101000a81548173ffffffffffffffffffffffffffffffffffffffff021916908373ffffffffffffffffffffffffffffffffffffffff160217905550610a3c806101b46000396000f3fe60806040526004361061004a5760003560e01c806397dedb1d1461004f578063c3c646741461008c578063d0e30db0146100b5578063d9e9402f146100bf578063dac3fad4146100e8575b600080fd5b34801561005b57600080fd5b5061007660048036038101906100719190610665565b6100ff565b60405161008391906106a1565b60405180910390f35b34801561009857600080fd5b506100b360048036038101906100ae9190610752565b6101cd565b005b6100bd6102b8565b005b3480156100cb57600080fd5b506100e660048036038101906100e191906107d0565b610317565b005b3480156100f457600080fd5b506100fd610503565b005b60008047905060008060009054906101000a900473ffffffffffffffffffffffffffffffffffffffff1673ffffffffffffffffffffffffffffffffffffffff166318160ddd6040518163ffffffff1660e01b8152600401602060405180830381865afa158015610173573d6000803e3d6000fd5b505050506040513d601f19601f820116820180604052508101906101979190610838565b905060006101c0826101b285886105fe90919063ffffffff16565b61061490919063ffffffff16565b9050809350505050919050565b3373ffffffffffffffffffffffffffffffffffffffff16600460009054906101000a900473ffffffffffffffffffffffffffffffffffffffff1673ffffffffffffffffffffffffffffffffffffffff161461025d576040517f08c379a0000000000000000000000000000000000000000000000000000000008152600401610254906108c2565b60405180910390fd5b80600660008473ffffffffffffffffffffffffffffffffffffffff1673ffffffffffffffffffffffffffffffffffffffff16815260200190815260200160002060006101000a81548160ff0219169083151502179055505050565b60011515600660003373ffffffffffffffffffffffffffffffffffffffff1673ffffffffffffffffffffffffffffffffffffffff16815260200190815260200160002060009054906101000a900460ff1615151461031557600080fd5b565b60011515600660003373ffffffffffffffffffffffffffffffffffffffff1673ffffffffffffffffffffffffffffffffffffffff16815260200190815260200160002060009054906101000a900460ff1615151461037457600080fd5b8060008054906101000a900473ffffffffffffffffffffffffffffffffffffffff1673ffffffffffffffffffffffffffffffffffffffff166370a08231856040518263ffffffff1660e01b81526004016103ce91906108f1565b602060405180830381865afa1580156103eb573d6000803e3d6000fd5b505050506040513d601f19601f8201168201806040525081019061040f9190610838565b101561041a57600080fd5b6000610425826100ff565b90508273ffffffffffffffffffffffffffffffffffffffff166108fc829081150290604051600060405180830381858888f1935050505015801561046d573d6000803e3d6000fd5b50600160009054906101000a900473ffffffffffffffffffffffffffffffffffffffff1673ffffffffffffffffffffffffffffffffffffffff166379cc679085846040518363ffffffff1660e01b81526004016104cb92919061090c565b600060405180830381600087803b1580156104e557600080fd5b505af11580156104f9573d6000803e3d6000fd5b5050505050505050565b3373ffffffffffffffffffffffffffffffffffffffff16600460009054906101000a900473ffffffffffffffffffffffffffffffffffffffff1673ffffffffffffffffffffffffffffffffffffffff1614610593576040517f08c379a000000000000000000000000000000000000000000000000000000000815260040161058a906108c2565b60405180910390fd5b600460009054906101000a900473ffffffffffffffffffffffffffffffffffffffff1673ffffffffffffffffffffffffffffffffffffffff166108fc479081150290604051600060405180830381858888f193505050501580156105fb573d6000803e3d6000fd5b50565b6000818361060c9190610964565b905092915050565b6000818361062291906109d5565b905092915050565b600080fd5b6000819050919050565b6106428161062f565b811461064d57600080fd5b50565b60008135905061065f81610639565b92915050565b60006020828403121561067b5761067a61062a565b5b600061068984828501610650565b91505092915050565b61069b8161062f565b82525050565b60006020820190506106b66000830184610692565b92915050565b600073ffffffffffffffffffffffffffffffffffffffff82169050919050565b60006106e7826106bc565b9050919050565b6106f7816106dc565b811461070257600080fd5b50565b600081359050610714816106ee565b92915050565b60008115159050919050565b61072f8161071a565b811461073a57600080fd5b50565b60008135905061074c81610726565b92915050565b600080604083850312156107695761076861062a565b5b600061077785828601610705565b92505060206107888582860161073d565b9150509250929050565b600061079d826106bc565b9050919050565b6107ad81610792565b81146107b857600080fd5b50565b6000813590506107ca816107a4565b92915050565b6000806000606084860312156107e9576107e861062a565b5b60006107f786828701610705565b9350506020610808868287016107bb565b925050604061081986828701610650565b9150509250925092565b60008151905061083281610639565b92915050565b60006020828403121561084e5761084d61062a565b5b600061085c84828501610823565b91505092915050565b600082825260208201905092915050565b7f4f776e61626c653a2063616c6c6572206973206e6f7420746865206f776e6572600082015250565b60006108ac602083610865565b91506108b782610876565b602082019050919050565b600060208201905081810360008301526108db8161089f565b9050919050565b6108eb816106dc565b82525050565b600060208201905061090660008301846108e2565b92915050565b600060408201905061092160008301856108e2565b61092e6020830184610692565b9392505050565b7f4e487b7100000000000000000000000000000000000000000000000000000000600052601160045260246000fd5b600061096f8261062f565b915061097a8361062f565b92508282026109888161062f565b9150828204841483151761099f5761099e610935565b5b5092915050565b7f4e487b7100000000000000000000000000000000000000000000000000000000600052601260045260246000fd5b60006109e08261062f565b91506109eb8361062f565b9250826109fb576109fa6109a6565b5b82820490509291505056fea26469706673582212206c7c50d3e02d8850b700b4ee114a80aaebc033a8ea13a1275d818b155e4df97a64736f6c63430008110033",
					"opcodes": "PUSH1 0x80 PUSH1 0x40 MSTORE PUSH20 0xA9FAE5EA311D3CFB2BCC9CAEFC5003B30B60B6C3 PUSH1 0x0 DUP1 PUSH2 0x100 EXP DUP2 SLOAD DUP2 PUSH20 0xFFFFFFFFFFFFFFFFFFFFFFFFFFFFFFFFFFFFFFFF MUL NOT AND SWAP1 DUP4 PUSH20 0xFFFFFFFFFFFFFFFFFFFFFFFFFFFFFFFFFFFFFFFF AND MUL OR SWAP1 SSTORE POP PUSH20 0xA9FAE5EA311D3CFB2BCC9CAEFC5003B30B60B6C3 PUSH1 0x1 PUSH1 0x0 PUSH2 0x100 EXP DUP2 SLOAD DUP2 PUSH20 0xFFFFFFFFFFFFFFFFFFFFFFFFFFFFFFFFFFFFFFFF MUL NOT AND SWAP1 DUP4 PUSH20 0xFFFFFFFFFFFFFFFFFFFFFFFFFFFFFFFFFFFFFFFF AND MUL OR SWAP1 SSTORE POP PUSH20 0xE3410AF1B80F925AC42B78EA54A48DE13DFA6EBE PUSH1 0x2 PUSH1 0x0 PUSH2 0x100 EXP DUP2 SLOAD DUP2 PUSH20 0xFFFFFFFFFFFFFFFFFFFFFFFFFFFFFFFFFFFFFFFF MUL NOT AND SWAP1 DUP4 PUSH20 0xFFFFFFFFFFFFFFFFFFFFFFFFFFFFFFFFFFFFFFFF AND MUL OR SWAP1 SSTORE POP PUSH20 0xE3410AF1B80F925AC42B78EA54A48DE13DFA6EBE PUSH1 0x3 PUSH1 0x0 PUSH2 0x100 EXP DUP2 SLOAD DUP2 PUSH20 0xFFFFFFFFFFFFFFFFFFFFFFFFFFFFFFFFFFFFFFFF MUL NOT AND SWAP1 DUP4 PUSH20 0xFFFFFFFFFFFFFFFFFFFFFFFFFFFFFFFFFFFFFFFF AND MUL OR SWAP1 SSTORE POP CALLVALUE DUP1 ISZERO PUSH2 0x163 JUMPI PUSH1 0x0 DUP1 REVERT JUMPDEST POP CALLER PUSH1 0x4 PUSH1 0x0 PUSH2 0x100 EXP DUP2 SLOAD DUP2 PUSH20 0xFFFFFFFFFFFFFFFFFFFFFFFFFFFFFFFFFFFFFFFF MUL NOT AND SWAP1 DUP4 PUSH20 0xFFFFFFFFFFFFFFFFFFFFFFFFFFFFFFFFFFFFFFFF AND MUL OR SWAP1 SSTORE POP PUSH2 0xA3C DUP1 PUSH2 0x1B4 PUSH1 0x0 CODECOPY PUSH1 0x0 RETURN INVALID PUSH1 0x80 PUSH1 0x40 MSTORE PUSH1 0x4 CALLDATASIZE LT PUSH2 0x4A JUMPI PUSH1 0x0 CALLDATALOAD PUSH1 0xE0 SHR DUP1 PUSH4 0x97DEDB1D EQ PUSH2 0x4F JUMPI DUP1 PUSH4 0xC3C64674 EQ PUSH2 0x8C JUMPI DUP1 PUSH4 0xD0E30DB0 EQ PUSH2 0xB5 JUMPI DUP1 PUSH4 0xD9E9402F EQ PUSH2 0xBF JUMPI DUP1 PUSH4 0xDAC3FAD4 EQ PUSH2 0xE8 JUMPI JUMPDEST PUSH1 0x0 DUP1 REVERT JUMPDEST CALLVALUE DUP1 ISZERO PUSH2 0x5B JUMPI PUSH1 0x0 DUP1 REVERT JUMPDEST POP PUSH2 0x76 PUSH1 0x4 DUP1 CALLDATASIZE SUB DUP2 ADD SWAP1 PUSH2 0x71 SWAP2 SWAP1 PUSH2 0x665 JUMP JUMPDEST PUSH2 0xFF JUMP JUMPDEST PUSH1 0x40 MLOAD PUSH2 0x83 SWAP2 SWAP1 PUSH2 0x6A1 JUMP JUMPDEST PUSH1 0x40 MLOAD DUP1 SWAP2 SUB SWAP1 RETURN JUMPDEST CALLVALUE DUP1 ISZERO PUSH2 0x98 JUMPI PUSH1 0x0 DUP1 REVERT JUMPDEST POP PUSH2 0xB3 PUSH1 0x4 DUP1 CALLDATASIZE SUB DUP2 ADD SWAP1 PUSH2 0xAE SWAP2 SWAP1 PUSH2 0x752 JUMP JUMPDEST PUSH2 0x1CD JUMP JUMPDEST STOP JUMPDEST PUSH2 0xBD PUSH2 0x2B8 JUMP JUMPDEST STOP JUMPDEST CALLVALUE DUP1 ISZERO PUSH2 0xCB JUMPI PUSH1 0x0 DUP1 REVERT JUMPDEST POP PUSH2 0xE6 PUSH1 0x4 DUP1 CALLDATASIZE SUB DUP2 ADD SWAP1 PUSH2 0xE1 SWAP2 SWAP1 PUSH2 0x7D0 JUMP JUMPDEST PUSH2 0x317 JUMP JUMPDEST STOP JUMPDEST CALLVALUE DUP1 ISZERO PUSH2 0xF4 JUMPI PUSH1 0x0 DUP1 REVERT JUMPDEST POP PUSH2 0xFD PUSH2 0x503 JUMP JUMPDEST STOP JUMPDEST PUSH1 0x0 DUP1 SELFBALANCE SWAP1 POP PUSH1 0x0 DUP1 PUSH1 0x0 SWAP1 SLOAD SWAP1 PUSH2 0x100 EXP SWAP1 DIV PUSH20 0xFFFFFFFFFFFFFFFFFFFFFFFFFFFFFFFFFFFFFFFF AND PUSH20 0xFFFFFFFFFFFFFFFFFFFFFFFFFFFFFFFFFFFFFFFF AND PUSH4 0x18160DDD PUSH1 0x40 MLOAD DUP2 PUSH4 0xFFFFFFFF AND PUSH1 0xE0 SHL DUP2 MSTORE PUSH1 0x4 ADD PUSH1 0x20 PUSH1 0x40 MLOAD DUP1 DUP4 SUB DUP2 DUP7 GAS STATICCALL ISZERO DUP1 ISZERO PUSH2 0x173 JUMPI RETURNDATASIZE PUSH1 0x0 DUP1 RETURNDATACOPY RETURNDATASIZE PUSH1 0x0 REVERT JUMPDEST POP POP POP POP PUSH1 0x40 MLOAD RETURNDATASIZE PUSH1 0x1F NOT PUSH1 0x1F DUP3 ADD AND DUP3 ADD DUP1 PUSH1 0x40 MSTORE POP DUP2 ADD SWAP1 PUSH2 0x197 SWAP2 SWAP1 PUSH2 0x838 JUMP JUMPDEST SWAP1 POP PUSH1 0x0 PUSH2 0x1C0 DUP3 PUSH2 0x1B2 DUP6 DUP9 PUSH2 0x5FE SWAP1 SWAP2 SWAP1 PUSH4 0xFFFFFFFF AND JUMP JUMPDEST PUSH2 0x614 SWAP1 SWAP2 SWAP1 PUSH4 0xFFFFFFFF AND JUMP JUMPDEST SWAP1 POP DUP1 SWAP4 POP POP POP POP SWAP2 SWAP1 POP JUMP JUMPDEST CALLER PUSH20 0xFFFFFFFFFFFFFFFFFFFFFFFFFFFFFFFFFFFFFFFF AND PUSH1 0x4 PUSH1 0x0 SWAP1 SLOAD SWAP1 PUSH2 0x100 EXP SWAP1 DIV PUSH20 0xFFFFFFFFFFFFFFFFFFFFFFFFFFFFFFFFFFFFFFFF AND PUSH20 0xFFFFFFFFFFFFFFFFFFFFFFFFFFFFFFFFFFFFFFFF AND EQ PUSH2 0x25D JUMPI PUSH1 0x40 MLOAD PUSH32 0x8C379A000000000000000000000000000000000000000000000000000000000 DUP2 MSTORE PUSH1 0x4 ADD PUSH2 0x254 SWAP1 PUSH2 0x8C2 JUMP JUMPDEST PUSH1 0x40 MLOAD DUP1 SWAP2 SUB SWAP1 REVERT JUMPDEST DUP1 PUSH1 0x6 PUSH1 0x0 DUP5 PUSH20 0xFFFFFFFFFFFFFFFFFFFFFFFFFFFFFFFFFFFFFFFF AND PUSH20 0xFFFFFFFFFFFFFFFFFFFFFFFFFFFFFFFFFFFFFFFF AND DUP2 MSTORE PUSH1 0x20 ADD SWAP1 DUP2 MSTORE PUSH1 0x20 ADD PUSH1 0x0 KECCAK256 PUSH1 0x0 PUSH2 0x100 EXP DUP2 SLOAD DUP2 PUSH1 0xFF MUL NOT AND SWAP1 DUP4 ISZERO ISZERO MUL OR SWAP1 SSTORE POP POP POP JUMP JUMPDEST PUSH1 0x1 ISZERO ISZERO PUSH1 0x6 PUSH1 0x0 CALLER PUSH20 0xFFFFFFFFFFFFFFFFFFFFFFFFFFFFFFFFFFFFFFFF AND PUSH20 0xFFFFFFFFFFFFFFFFFFFFFFFFFFFFFFFFFFFFFFFF AND DUP2 MSTORE PUSH1 0x20 ADD SWAP1 DUP2 MSTORE PUSH1 0x20 ADD PUSH1 0x0 KECCAK256 PUSH1 0x0 SWAP1 SLOAD SWAP1 PUSH2 0x100 EXP SWAP1 DIV PUSH1 0xFF AND ISZERO ISZERO EQ PUSH2 0x315 JUMPI PUSH1 0x0 DUP1 REVERT JUMPDEST JUMP JUMPDEST PUSH1 0x1 ISZERO ISZERO PUSH1 0x6 PUSH1 0x0 CALLER PUSH20 0xFFFFFFFFFFFFFFFFFFFFFFFFFFFFFFFFFFFFFFFF AND PUSH20 0xFFFFFFFFFFFFFFFFFFFFFFFFFFFFFFFFFFFFFFFF AND DUP2 MSTORE PUSH1 0x20 ADD SWAP1 DUP2 MSTORE PUSH1 0x20 ADD PUSH1 0x0 KECCAK256 PUSH1 0x0 SWAP1 SLOAD SWAP1 PUSH2 0x100 EXP SWAP1 DIV PUSH1 0xFF AND ISZERO ISZERO EQ PUSH2 0x374 JUMPI PUSH1 0x0 DUP1 REVERT JUMPDEST DUP1 PUSH1 0x0 DUP1 SLOAD SWAP1 PUSH2 0x100 EXP SWAP1 DIV PUSH20 0xFFFFFFFFFFFFFFFFFFFFFFFFFFFFFFFFFFFFFFFF AND PUSH20 0xFFFFFFFFFFFFFFFFFFFFFFFFFFFFFFFFFFFFFFFF AND PUSH4 0x70A08231 DUP6 PUSH1 0x40 MLOAD DUP3 PUSH4 0xFFFFFFFF AND PUSH1 0xE0 SHL DUP2 MSTORE PUSH1 0x4 ADD PUSH2 0x3CE SWAP2 SWAP1 PUSH2 0x8F1 JUMP JUMPDEST PUSH1 0x20 PUSH1 0x40 MLOAD DUP1 DUP4 SUB DUP2 DUP7 GAS STATICCALL ISZERO DUP1 ISZERO PUSH2 0x3EB JUMPI RETURNDATASIZE PUSH1 0x0 DUP1 RETURNDATACOPY RETURNDATASIZE PUSH1 0x0 REVERT JUMPDEST POP POP POP POP PUSH1 0x40 MLOAD RETURNDATASIZE PUSH1 0x1F NOT PUSH1 0x1F DUP3 ADD AND DUP3 ADD DUP1 PUSH1 0x40 MSTORE POP DUP2 ADD SWAP1 PUSH2 0x40F SWAP2 SWAP1 PUSH2 0x838 JUMP JUMPDEST LT ISZERO PUSH2 0x41A JUMPI PUSH1 0x0 DUP1 REVERT JUMPDEST PUSH1 0x0 PUSH2 0x425 DUP3 PUSH2 0xFF JUMP JUMPDEST SWAP1 POP DUP3 PUSH20 0xFFFFFFFFFFFFFFFFFFFFFFFFFFFFFFFFFFFFFFFF AND PUSH2 0x8FC DUP3 SWAP1 DUP2 ISZERO MUL SWAP1 PUSH1 0x40 MLOAD PUSH1 0x0 PUSH1 0x40 MLOAD DUP1 DUP4 SUB DUP2 DUP6 DUP9 DUP9 CALL SWAP4 POP POP POP POP ISZERO DUP1 ISZERO PUSH2 0x46D JUMPI RETURNDATASIZE PUSH1 0x0 DUP1 RETURNDATACOPY RETURNDATASIZE PUSH1 0x0 REVERT JUMPDEST POP PUSH1 0x1 PUSH1 0x0 SWAP1 SLOAD SWAP1 PUSH2 0x100 EXP SWAP1 DIV PUSH20 0xFFFFFFFFFFFFFFFFFFFFFFFFFFFFFFFFFFFFFFFF AND PUSH20 0xFFFFFFFFFFFFFFFFFFFFFFFFFFFFFFFFFFFFFFFF AND PUSH4 0x79CC6790 DUP6 DUP5 PUSH1 0x40 MLOAD DUP4 PUSH4 0xFFFFFFFF AND PUSH1 0xE0 SHL DUP2 MSTORE PUSH1 0x4 ADD PUSH2 0x4CB SWAP3 SWAP2 SWAP1 PUSH2 0x90C JUMP JUMPDEST PUSH1 0x0 PUSH1 0x40 MLOAD DUP1 DUP4 SUB DUP2 PUSH1 0x0 DUP8 DUP1 EXTCODESIZE ISZERO DUP1 ISZERO PUSH2 0x4E5 JUMPI PUSH1 0x0 DUP1 REVERT JUMPDEST POP GAS CALL ISZERO DUP1 ISZERO PUSH2 0x4F9 JUMPI RETURNDATASIZE PUSH1 0x0 DUP1 RETURNDATACOPY RETURNDATASIZE PUSH1 0x0 REVERT JUMPDEST POP POP POP POP POP POP POP POP JUMP JUMPDEST CALLER PUSH20 0xFFFFFFFFFFFFFFFFFFFFFFFFFFFFFFFFFFFFFFFF AND PUSH1 0x4 PUSH1 0x0 SWAP1 SLOAD SWAP1 PUSH2 0x100 EXP SWAP1 DIV PUSH20 0xFFFFFFFFFFFFFFFFFFFFFFFFFFFFFFFFFFFFFFFF AND PUSH20 0xFFFFFFFFFFFFFFFFFFFFFFFFFFFFFFFFFFFFFFFF AND EQ PUSH2 0x593 JUMPI PUSH1 0x40 MLOAD PUSH32 0x8C379A000000000000000000000000000000000000000000000000000000000 DUP2 MSTORE PUSH1 0x4 ADD PUSH2 0x58A SWAP1 PUSH2 0x8C2 JUMP JUMPDEST PUSH1 0x40 MLOAD DUP1 SWAP2 SUB SWAP1 REVERT JUMPDEST PUSH1 0x4 PUSH1 0x0 SWAP1 SLOAD SWAP1 PUSH2 0x100 EXP SWAP1 DIV PUSH20 0xFFFFFFFFFFFFFFFFFFFFFFFFFFFFFFFFFFFFFFFF AND PUSH20 0xFFFFFFFFFFFFFFFFFFFFFFFFFFFFFFFFFFFFFFFF AND PUSH2 0x8FC SELFBALANCE SWAP1 DUP2 ISZERO MUL SWAP1 PUSH1 0x40 MLOAD PUSH1 0x0 PUSH1 0x40 MLOAD DUP1 DUP4 SUB DUP2 DUP6 DUP9 DUP9 CALL SWAP4 POP POP POP POP ISZERO DUP1 ISZERO PUSH2 0x5FB JUMPI RETURNDATASIZE PUSH1 0x0 DUP1 RETURNDATACOPY RETURNDATASIZE PUSH1 0x0 REVERT JUMPDEST POP JUMP JUMPDEST PUSH1 0x0 DUP2 DUP4 PUSH2 0x60C SWAP2 SWAP1 PUSH2 0x964 JUMP JUMPDEST SWAP1 POP SWAP3 SWAP2 POP POP JUMP JUMPDEST PUSH1 0x0 DUP2 DUP4 PUSH2 0x622 SWAP2 SWAP1 PUSH2 0x9D5 JUMP JUMPDEST SWAP1 POP SWAP3 SWAP2 POP POP JUMP JUMPDEST PUSH1 0x0 DUP1 REVERT JUMPDEST PUSH1 0x0 DUP2 SWAP1 POP SWAP2 SWAP1 POP JUMP JUMPDEST PUSH2 0x642 DUP2 PUSH2 0x62F JUMP JUMPDEST DUP2 EQ PUSH2 0x64D JUMPI PUSH1 0x0 DUP1 REVERT JUMPDEST POP JUMP JUMPDEST PUSH1 0x0 DUP2 CALLDATALOAD SWAP1 POP PUSH2 0x65F DUP2 PUSH2 0x639 JUMP JUMPDEST SWAP3 SWAP2 POP POP JUMP JUMPDEST PUSH1 0x0 PUSH1 0x20 DUP3 DUP5 SUB SLT ISZERO PUSH2 0x67B JUMPI PUSH2 0x67A PUSH2 0x62A JUMP JUMPDEST JUMPDEST PUSH1 0x0 PUSH2 0x689 DUP5 DUP3 DUP6 ADD PUSH2 0x650 JUMP JUMPDEST SWAP2 POP POP SWAP3 SWAP2 POP POP JUMP JUMPDEST PUSH2 0x69B DUP2 PUSH2 0x62F JUMP JUMPDEST DUP3 MSTORE POP POP JUMP JUMPDEST PUSH1 0x0 PUSH1 0x20 DUP3 ADD SWAP1 POP PUSH2 0x6B6 PUSH1 0x0 DUP4 ADD DUP5 PUSH2 0x692 JUMP JUMPDEST SWAP3 SWAP2 POP POP JUMP JUMPDEST PUSH1 0x0 PUSH20 0xFFFFFFFFFFFFFFFFFFFFFFFFFFFFFFFFFFFFFFFF DUP3 AND SWAP1 POP SWAP2 SWAP1 POP JUMP JUMPDEST PUSH1 0x0 PUSH2 0x6E7 DUP3 PUSH2 0x6BC JUMP JUMPDEST SWAP1 POP SWAP2 SWAP1 POP JUMP JUMPDEST PUSH2 0x6F7 DUP2 PUSH2 0x6DC JUMP JUMPDEST DUP2 EQ PUSH2 0x702 JUMPI PUSH1 0x0 DUP1 REVERT JUMPDEST POP JUMP JUMPDEST PUSH1 0x0 DUP2 CALLDATALOAD SWAP1 POP PUSH2 0x714 DUP2 PUSH2 0x6EE JUMP JUMPDEST SWAP3 SWAP2 POP POP JUMP JUMPDEST PUSH1 0x0 DUP2 ISZERO ISZERO SWAP1 POP SWAP2 SWAP1 POP JUMP JUMPDEST PUSH2 0x72F DUP2 PUSH2 0x71A JUMP JUMPDEST DUP2 EQ PUSH2 0x73A JUMPI PUSH1 0x0 DUP1 REVERT JUMPDEST POP JUMP JUMPDEST PUSH1 0x0 DUP2 CALLDATALOAD SWAP1 POP PUSH2 0x74C DUP2 PUSH2 0x726 JUMP JUMPDEST SWAP3 SWAP2 POP POP JUMP JUMPDEST PUSH1 0x0 DUP1 PUSH1 0x40 DUP4 DUP6 SUB SLT ISZERO PUSH2 0x769 JUMPI PUSH2 0x768 PUSH2 0x62A JUMP JUMPDEST JUMPDEST PUSH1 0x0 PUSH2 0x777 DUP6 DUP3 DUP7 ADD PUSH2 0x705 JUMP JUMPDEST SWAP3 POP POP PUSH1 0x20 PUSH2 0x788 DUP6 DUP3 DUP7 ADD PUSH2 0x73D JUMP JUMPDEST SWAP2 POP POP SWAP3 POP SWAP3 SWAP1 POP JUMP JUMPDEST PUSH1 0x0 PUSH2 0x79D DUP3 PUSH2 0x6BC JUMP JUMPDEST SWAP1 POP SWAP2 SWAP1 POP JUMP JUMPDEST PUSH2 0x7AD DUP2 PUSH2 0x792 JUMP JUMPDEST DUP2 EQ PUSH2 0x7B8 JUMPI PUSH1 0x0 DUP1 REVERT JUMPDEST POP JUMP JUMPDEST PUSH1 0x0 DUP2 CALLDATALOAD SWAP1 POP PUSH2 0x7CA DUP2 PUSH2 0x7A4 JUMP JUMPDEST SWAP3 SWAP2 POP POP JUMP JUMPDEST PUSH1 0x0 DUP1 PUSH1 0x0 PUSH1 0x60 DUP5 DUP7 SUB SLT ISZERO PUSH2 0x7E9 JUMPI PUSH2 0x7E8 PUSH2 0x62A JUMP JUMPDEST JUMPDEST PUSH1 0x0 PUSH2 0x7F7 DUP7 DUP3 DUP8 ADD PUSH2 0x705 JUMP JUMPDEST SWAP4 POP POP PUSH1 0x20 PUSH2 0x808 DUP7 DUP3 DUP8 ADD PUSH2 0x7BB JUMP JUMPDEST SWAP3 POP POP PUSH1 0x40 PUSH2 0x819 DUP7 DUP3 DUP8 ADD PUSH2 0x650 JUMP JUMPDEST SWAP2 POP POP SWAP3 POP SWAP3 POP SWAP3 JUMP JUMPDEST PUSH1 0x0 DUP2 MLOAD SWAP1 POP PUSH2 0x832 DUP2 PUSH2 0x639 JUMP JUMPDEST SWAP3 SWAP2 POP POP JUMP JUMPDEST PUSH1 0x0 PUSH1 0x20 DUP3 DUP5 SUB SLT ISZERO PUSH2 0x84E JUMPI PUSH2 0x84D PUSH2 0x62A JUMP JUMPDEST JUMPDEST PUSH1 0x0 PUSH2 0x85C DUP5 DUP3 DUP6 ADD PUSH2 0x823 JUMP JUMPDEST SWAP2 POP POP SWAP3 SWAP2 POP POP JUMP JUMPDEST PUSH1 0x0 DUP3 DUP3 MSTORE PUSH1 0x20 DUP3 ADD SWAP1 POP SWAP3 SWAP2 POP POP JUMP JUMPDEST PUSH32 0x4F776E61626C653A2063616C6C6572206973206E6F7420746865206F776E6572 PUSH1 0x0 DUP3 ADD MSTORE POP JUMP JUMPDEST PUSH1 0x0 PUSH2 0x8AC PUSH1 0x20 DUP4 PUSH2 0x865 JUMP JUMPDEST SWAP2 POP PUSH2 0x8B7 DUP3 PUSH2 0x876 JUMP JUMPDEST PUSH1 0x20 DUP3 ADD SWAP1 POP SWAP2 SWAP1 POP JUMP JUMPDEST PUSH1 0x0 PUSH1 0x20 DUP3 ADD SWAP1 POP DUP2 DUP2 SUB PUSH1 0x0 DUP4 ADD MSTORE PUSH2 0x8DB DUP2 PUSH2 0x89F JUMP JUMPDEST SWAP1 POP SWAP2 SWAP1 POP JUMP JUMPDEST PUSH2 0x8EB DUP2 PUSH2 0x6DC JUMP JUMPDEST DUP3 MSTORE POP POP JUMP JUMPDEST PUSH1 0x0 PUSH1 0x20 DUP3 ADD SWAP1 POP PUSH2 0x906 PUSH1 0x0 DUP4 ADD DUP5 PUSH2 0x8E2 JUMP JUMPDEST SWAP3 SWAP2 POP POP JUMP JUMPDEST PUSH1 0x0 PUSH1 0x40 DUP3 ADD SWAP1 POP PUSH2 0x921 PUSH1 0x0 DUP4 ADD DUP6 PUSH2 0x8E2 JUMP JUMPDEST PUSH2 0x92E PUSH1 0x20 DUP4 ADD DUP5 PUSH2 0x692 JUMP JUMPDEST SWAP4 SWAP3 POP POP POP JUMP JUMPDEST PUSH32 0x4E487B7100000000000000000000000000000000000000000000000000000000 PUSH1 0x0 MSTORE PUSH1 0x11 PUSH1 0x4 MSTORE PUSH1 0x24 PUSH1 0x0 REVERT JUMPDEST PUSH1 0x0 PUSH2 0x96F DUP3 PUSH2 0x62F JUMP JUMPDEST SWAP2 POP PUSH2 0x97A DUP4 PUSH2 0x62F JUMP JUMPDEST SWAP3 POP DUP3 DUP3 MUL PUSH2 0x988 DUP2 PUSH2 0x62F JUMP JUMPDEST SWAP2 POP DUP3 DUP3 DIV DUP5 EQ DUP4 ISZERO OR PUSH2 0x99F JUMPI PUSH2 0x99E PUSH2 0x935 JUMP JUMPDEST JUMPDEST POP SWAP3 SWAP2 POP POP JUMP JUMPDEST PUSH32 0x4E487B7100000000000000000000000000000000000000000000000000000000 PUSH1 0x0 MSTORE PUSH1 0x12 PUSH1 0x4 MSTORE PUSH1 0x24 PUSH1 0x0 REVERT JUMPDEST PUSH1 0x0 PUSH2 0x9E0 DUP3 PUSH2 0x62F JUMP JUMPDEST SWAP2 POP PUSH2 0x9EB DUP4 PUSH2 0x62F JUMP JUMPDEST SWAP3 POP DUP3 PUSH2 0x9FB JUMPI PUSH2 0x9FA PUSH2 0x9A6 JUMP JUMPDEST JUMPDEST DUP3 DUP3 DIV SWAP1 POP SWAP3 SWAP2 POP POP JUMP INVALID LOG2 PUSH5 0x6970667358 0x22 SLT KECCAK256 PUSH13 0x7C50D3E02D8850B700B4EE114A DUP1 0xAA 0xEB 0xC0 CALLER 0xA8 0xEA SGT LOG1 0x27 0x5D DUP2 DUP12 ISZERO 0x5E 0x4D 0xF9 PUSH27 0x64736F6C6343000811003300000000000000000000000000000000 "
				},
				"gasEstimates": {
					"creation": {
						"codeDepositCost": "524000",
						"executionCost": "121890",
						"totalCost": "645890"
					},
					"external": {
						"ETH_DCF(uint256)": "infinite",
						"Warning_protect()": "infinite",
						"deposit()": "2402",
						"market(address,address,uint256)": "infinite",
						"setRouter(address,bool)": "27161"
					}
				},
				"methodIdentifiers": {
					"ETH_DCF(uint256)": "97dedb1d",
					"Warning_protect()": "dac3fad4",
					"deposit()": "d0e30db0",
					"market(address,address,uint256)": "d9e9402f",
					"setRouter(address,bool)": "c3c64674"
				}
			},
			"storageLayout": {
				"storage": [
					{
						"astId": 410,
						"contract": "minerpunk/treasury.sol:treasury",
						"label": "dcoff",
						"offset": 0,
						"slot": "0",
						"type": "t_contract(IERC20)77"
					},
					{
						"astId": 416,
						"contract": "minerpunk/treasury.sol:treasury",
						"label": "dcoffburn",
						"offset": 0,
						"slot": "1",
						"type": "t_contract(IburnFrom)401"
					},
					{
						"astId": 422,
						"contract": "minerpunk/treasury.sol:treasury",
						"label": "minePower",
						"offset": 0,
						"slot": "2",
						"type": "t_contract(IERC20)77"
					},
					{
						"astId": 428,
						"contract": "minerpunk/treasury.sol:treasury",
						"label": "minePowerburn",
						"offset": 0,
						"slot": "3",
						"type": "t_contract(IburnFrom)401"
					},
					{
						"astId": 439,
						"contract": "minerpunk/treasury.sol:treasury",
						"label": "owner",
						"offset": 0,
						"slot": "4",
						"type": "t_address"
					},
					{
						"astId": 441,
						"contract": "minerpunk/treasury.sol:treasury",
						"label": "k",
						"offset": 0,
						"slot": "5",
						"type": "t_uint256"
					},
					{
						"astId": 445,
						"contract": "minerpunk/treasury.sol:treasury",
						"label": "RouterAdmin",
						"offset": 0,
						"slot": "6",
						"type": "t_mapping(t_address,t_bool)"
					}
				],
				"types": {
					"t_address": {
						"encoding": "inplace",
						"label": "address",
						"numberOfBytes": "20"
					},
					"t_bool": {
						"encoding": "inplace",
						"label": "bool",
						"numberOfBytes": "1"
					},
					"t_contract(IERC20)77": {
						"encoding": "inplace",
						"label": "contract IERC20",
						"numberOfBytes": "20"
					},
					"t_contract(IburnFrom)401": {
						"encoding": "inplace",
						"label": "contract IburnFrom",
						"numberOfBytes": "20"
					},
					"t_mapping(t_address,t_bool)": {
						"encoding": "mapping",
						"key": "t_address",
						"label": "mapping(address => bool)",
						"numberOfBytes": "32",
						"value": "t_bool"
					},
					"t_uint256": {
						"encoding": "inplace",
						"label": "uint256",
						"numberOfBytes": "32"
					}
				}
			},
			"userdoc": {
				"kind": "user",
				"methods": {},
				"version": 1
			}
		}
	}
}