{
	"Dcoffer/Router.sol": {
		"Router": {
			"abi": [
				{
					"inputs": [
						{
							"internalType": "uint256",
							"name": "dcf_amount",
							"type": "uint256"
						}
					],
					"name": "ETH_DCF",
					"outputs": [
						{
							"internalType": "uint256",
							"name": "",
							"type": "uint256"
						}
					],
					"stateMutability": "view",
					"type": "function"
				},
				{
					"inputs": [],
					"name": "deposit",
					"outputs": [],
					"stateMutability": "payable",
					"type": "function"
				},
				{
					"inputs": [
						{
							"internalType": "address payable",
							"name": "seller",
							"type": "address"
						},
						{
							"internalType": "uint256",
							"name": "dcf_amount",
							"type": "uint256"
						}
					],
					"name": "market",
					"outputs": [],
					"stateMutability": "nonpayable",
					"type": "function"
				}
			],
			"devdoc": {
				"kind": "dev",
				"methods": {},
				"version": 1
			},
			"evm": {
				"assembly": "    /* \"Dcoffer/Router.sol\":284:759  contract Router {   ... */\n  mstore(0x40, 0x80)\n    /* \"Dcoffer/Router.sol\":345:387  0x1F32fA361eDfc947e1cb48B575f4498e88e267a6 */\n  0x1f32fa361edfc947e1cb48b575f4498e88e267a6\n    /* \"Dcoffer/Router.sol\":310:388  _treasury treasuryCtrl = _treasury(0x1F32fA361eDfc947e1cb48B575f4498e88e267a6) */\n  0x00\n  dup1\n  0x0100\n  exp\n  dup2\n  sload\n  dup2\n  0xffffffffffffffffffffffffffffffffffffffff\n  mul\n  not\n  and\n  swap1\n  dup4\n  0xffffffffffffffffffffffffffffffffffffffff\n  and\n  mul\n  or\n  swap1\n  sstore\n  pop\n    /* \"Dcoffer/Router.sol\":284:759  contract Router {   ... */\n  callvalue\n  dup1\n  iszero\n  tag_1\n  jumpi\n  0x00\n  dup1\n  revert\ntag_1:\n  pop\n  dataSize(sub_0)\n  dup1\n  dataOffset(sub_0)\n  0x00\n  codecopy\n  0x00\n  return\nstop\n\nsub_0: assembly {\n        /* \"Dcoffer/Router.sol\":284:759  contract Router {   ... */\n      mstore(0x40, 0x80)\n      jumpi(tag_1, lt(calldatasize, 0x04))\n      shr(0xe0, calldataload(0x00))\n      dup1\n      0x94756aa7\n      eq\n      tag_2\n      jumpi\n      dup1\n      0x97dedb1d\n      eq\n      tag_3\n      jumpi\n      dup1\n      0xd0e30db0\n      eq\n      tag_4\n      jumpi\n    tag_1:\n      0x00\n      dup1\n      revert\n        /* \"Dcoffer/Router.sol\":496:617  function market(address payable seller, uint256 dcf_amount)external {... */\n    tag_2:\n      callvalue\n      dup1\n      iszero\n      tag_5\n      jumpi\n      0x00\n      dup1\n      revert\n    tag_5:\n      pop\n      tag_6\n      0x04\n      dup1\n      calldatasize\n      sub\n      dup2\n      add\n      swap1\n      tag_7\n      swap2\n      swap1\n      tag_8\n      jump\t// in\n    tag_7:\n      tag_9\n      jump\t// in\n    tag_6:\n      stop\n        /* \"Dcoffer/Router.sol\":625:745  function ETH_DCF(uint256 dcf_amount)external view returns(uint256){... */\n    tag_3:\n      callvalue\n      dup1\n      iszero\n      tag_10\n      jumpi\n      0x00\n      dup1\n      revert\n    tag_10:\n      pop\n      tag_11\n      0x04\n      dup1\n      calldatasize\n      sub\n      dup2\n      add\n      swap1\n      tag_12\n      swap2\n      swap1\n      tag_13\n      jump\t// in\n    tag_12:\n      tag_14\n      jump\t// in\n    tag_11:\n      mload(0x40)\n      tag_15\n      swap2\n      swap1\n      tag_16\n      jump\t// in\n    tag_15:\n      mload(0x40)\n      dup1\n      swap2\n      sub\n      swap1\n      return\n        /* \"Dcoffer/Router.sol\":397:486  function deposit()external payable{... */\n    tag_4:\n      tag_17\n      tag_18\n      jump\t// in\n    tag_17:\n      stop\n        /* \"Dcoffer/Router.sol\":496:617  function market(address payable seller, uint256 dcf_amount)external {... */\n    tag_9:\n        /* \"Dcoffer/Router.sol\":573:585  treasuryCtrl */\n      0x00\n      dup1\n      sload\n      swap1\n      0x0100\n      exp\n      swap1\n      div\n      0xffffffffffffffffffffffffffffffffffffffff\n      and\n        /* \"Dcoffer/Router.sol\":573:592  treasuryCtrl.market */\n      0xffffffffffffffffffffffffffffffffffffffff\n      and\n      0x94756aa7\n        /* \"Dcoffer/Router.sol\":593:599  seller */\n      dup4\n        /* \"Dcoffer/Router.sol\":600:610  dcf_amount */\n      dup4\n        /* \"Dcoffer/Router.sol\":573:611  treasuryCtrl.market(seller,dcf_amount) */\n      mload(0x40)\n      dup4\n      0xffffffff\n      and\n      0xe0\n      shl\n      dup2\n      mstore\n      0x04\n      add\n      tag_20\n      swap3\n      swap2\n      swap1\n      tag_21\n      jump\t// in\n    tag_20:\n      0x00\n      mload(0x40)\n      dup1\n      dup4\n      sub\n      dup2\n      0x00\n      dup8\n      dup1\n      extcodesize\n      iszero\n      dup1\n      iszero\n      tag_22\n      jumpi\n      0x00\n      dup1\n      revert\n    tag_22:\n      pop\n      gas\n      call\n      iszero\n      dup1\n      iszero\n      tag_24\n      jumpi\n      returndatasize\n      0x00\n      dup1\n      returndatacopy\n      revert(0x00, returndatasize)\n    tag_24:\n      pop\n      pop\n      pop\n      pop\n        /* \"Dcoffer/Router.sol\":496:617  function market(address payable seller, uint256 dcf_amount)external {... */\n      pop\n      pop\n      jump\t// out\n        /* \"Dcoffer/Router.sol\":625:745  function ETH_DCF(uint256 dcf_amount)external view returns(uint256){... */\n    tag_14:\n        /* \"Dcoffer/Router.sol\":683:690  uint256 */\n      0x00\n        /* \"Dcoffer/Router.sol\":707:719  treasuryCtrl */\n      dup1\n      0x00\n      swap1\n      sload\n      swap1\n      0x0100\n      exp\n      swap1\n      div\n      0xffffffffffffffffffffffffffffffffffffffff\n      and\n        /* \"Dcoffer/Router.sol\":707:727  treasuryCtrl.ETH_DCF */\n      0xffffffffffffffffffffffffffffffffffffffff\n      and\n      0x97dedb1d\n        /* \"Dcoffer/Router.sol\":728:738  dcf_amount */\n      dup4\n        /* \"Dcoffer/Router.sol\":707:739  treasuryCtrl.ETH_DCF(dcf_amount) */\n      mload(0x40)\n      dup3\n      0xffffffff\n      and\n      0xe0\n      shl\n      dup2\n      mstore\n      0x04\n      add\n      tag_26\n      swap2\n      swap1\n      tag_16\n      jump\t// in\n    tag_26:\n      0x20\n      mload(0x40)\n      dup1\n      dup4\n      sub\n      dup2\n      dup7\n      gas\n      staticcall\n      iszero\n      dup1\n      iszero\n      tag_28\n      jumpi\n      returndatasize\n      0x00\n      dup1\n      returndatacopy\n      revert(0x00, returndatasize)\n    tag_28:\n      pop\n      pop\n      pop\n      pop\n      mload(0x40)\n      returndatasize\n      not(0x1f)\n      0x1f\n      dup3\n      add\n      and\n      dup3\n      add\n      dup1\n      0x40\n      mstore\n      pop\n      dup2\n      add\n      swap1\n      tag_29\n      swap2\n      swap1\n      tag_30\n      jump\t// in\n    tag_29:\n        /* \"Dcoffer/Router.sol\":700:739  return treasuryCtrl.ETH_DCF(dcf_amount) */\n      swap1\n      pop\n        /* \"Dcoffer/Router.sol\":625:745  function ETH_DCF(uint256 dcf_amount)external view returns(uint256){... */\n      swap2\n      swap1\n      pop\n      jump\t// out\n        /* \"Dcoffer/Router.sol\":397:486  function deposit()external payable{... */\n    tag_18:\n        /* \"Dcoffer/Router.sol\":440:452  treasuryCtrl */\n      0x00\n      dup1\n      sload\n      swap1\n      0x0100\n      exp\n      swap1\n      div\n      0xffffffffffffffffffffffffffffffffffffffff\n      and\n        /* \"Dcoffer/Router.sol\":440:460  treasuryCtrl.deposit */\n      0xffffffffffffffffffffffffffffffffffffffff\n      and\n      0xd0e30db0\n        /* \"Dcoffer/Router.sol\":468:477  msg.value */\n      callvalue\n        /* \"Dcoffer/Router.sol\":440:480  treasuryCtrl.deposit{value: msg.value}() */\n      mload(0x40)\n      dup3\n      0xffffffff\n      and\n      0xe0\n      shl\n      dup2\n      mstore\n      0x04\n      add\n      0x00\n      mload(0x40)\n      dup1\n      dup4\n      sub\n      dup2\n      dup6\n      dup9\n      dup1\n      extcodesize\n      iszero\n      dup1\n      iszero\n      tag_32\n      jumpi\n      0x00\n      dup1\n      revert\n    tag_32:\n      pop\n      gas\n      call\n      iszero\n      dup1\n      iszero\n      tag_34\n      jumpi\n      returndatasize\n      0x00\n      dup1\n      returndatacopy\n      revert(0x00, returndatasize)\n    tag_34:\n      pop\n      pop\n      pop\n      pop\n      pop\n        /* \"Dcoffer/Router.sol\":397:486  function deposit()external payable{... */\n      jump\t// out\n        /* \"#utility.yul\":88:205   */\n    tag_36:\n        /* \"#utility.yul\":197:198   */\n      0x00\n        /* \"#utility.yul\":194:195   */\n      dup1\n        /* \"#utility.yul\":187:199   */\n      revert\n        /* \"#utility.yul\":334:460   */\n    tag_38:\n        /* \"#utility.yul\":371:378   */\n      0x00\n        /* \"#utility.yul\":411:453   */\n      0xffffffffffffffffffffffffffffffffffffffff\n        /* \"#utility.yul\":404:409   */\n      dup3\n        /* \"#utility.yul\":400:454   */\n      and\n        /* \"#utility.yul\":389:454   */\n      swap1\n      pop\n        /* \"#utility.yul\":334:460   */\n      swap2\n      swap1\n      pop\n      jump\t// out\n        /* \"#utility.yul\":466:570   */\n    tag_39:\n        /* \"#utility.yul\":511:518   */\n      0x00\n        /* \"#utility.yul\":540:564   */\n      tag_54\n        /* \"#utility.yul\":558:563   */\n      dup3\n        /* \"#utility.yul\":540:564   */\n      tag_38\n      jump\t// in\n    tag_54:\n        /* \"#utility.yul\":529:564   */\n      swap1\n      pop\n        /* \"#utility.yul\":466:570   */\n      swap2\n      swap1\n      pop\n      jump\t// out\n        /* \"#utility.yul\":576:714   */\n    tag_40:\n        /* \"#utility.yul\":657:689   */\n      tag_56\n        /* \"#utility.yul\":683:688   */\n      dup2\n        /* \"#utility.yul\":657:689   */\n      tag_39\n      jump\t// in\n    tag_56:\n        /* \"#utility.yul\":650:655   */\n      dup2\n        /* \"#utility.yul\":647:690   */\n      eq\n        /* \"#utility.yul\":637:708   */\n      tag_57\n      jumpi\n        /* \"#utility.yul\":704:705   */\n      0x00\n        /* \"#utility.yul\":701:702   */\n      dup1\n        /* \"#utility.yul\":694:706   */\n      revert\n        /* \"#utility.yul\":637:708   */\n    tag_57:\n        /* \"#utility.yul\":576:714   */\n      pop\n      jump\t// out\n        /* \"#utility.yul\":720:875   */\n    tag_41:\n        /* \"#utility.yul\":774:779   */\n      0x00\n        /* \"#utility.yul\":812:818   */\n      dup2\n        /* \"#utility.yul\":799:819   */\n      calldataload\n        /* \"#utility.yul\":790:819   */\n      swap1\n      pop\n        /* \"#utility.yul\":828:869   */\n      tag_59\n        /* \"#utility.yul\":863:868   */\n      dup2\n        /* \"#utility.yul\":828:869   */\n      tag_40\n      jump\t// in\n    tag_59:\n        /* \"#utility.yul\":720:875   */\n      swap3\n      swap2\n      pop\n      pop\n      jump\t// out\n        /* \"#utility.yul\":881:958   */\n    tag_42:\n        /* \"#utility.yul\":918:925   */\n      0x00\n        /* \"#utility.yul\":947:952   */\n      dup2\n        /* \"#utility.yul\":936:952   */\n      swap1\n      pop\n        /* \"#utility.yul\":881:958   */\n      swap2\n      swap1\n      pop\n      jump\t// out\n        /* \"#utility.yul\":964:1086   */\n    tag_43:\n        /* \"#utility.yul\":1037:1061   */\n      tag_62\n        /* \"#utility.yul\":1055:1060   */\n      dup2\n        /* \"#utility.yul\":1037:1061   */\n      tag_42\n      jump\t// in\n    tag_62:\n        /* \"#utility.yul\":1030:1035   */\n      dup2\n        /* \"#utility.yul\":1027:1062   */\n      eq\n        /* \"#utility.yul\":1017:1080   */\n      tag_63\n      jumpi\n        /* \"#utility.yul\":1076:1077   */\n      0x00\n        /* \"#utility.yul\":1073:1074   */\n      dup1\n        /* \"#utility.yul\":1066:1078   */\n      revert\n        /* \"#utility.yul\":1017:1080   */\n    tag_63:\n        /* \"#utility.yul\":964:1086   */\n      pop\n      jump\t// out\n        /* \"#utility.yul\":1092:1231   */\n    tag_44:\n        /* \"#utility.yul\":1138:1143   */\n      0x00\n        /* \"#utility.yul\":1176:1182   */\n      dup2\n        /* \"#utility.yul\":1163:1183   */\n      calldataload\n        /* \"#utility.yul\":1154:1183   */\n      swap1\n      pop\n        /* \"#utility.yul\":1192:1225   */\n      tag_65\n        /* \"#utility.yul\":1219:1224   */\n      dup2\n        /* \"#utility.yul\":1192:1225   */\n      tag_43\n      jump\t// in\n    tag_65:\n        /* \"#utility.yul\":1092:1231   */\n      swap3\n      swap2\n      pop\n      pop\n      jump\t// out\n        /* \"#utility.yul\":1237:1727   */\n    tag_8:\n        /* \"#utility.yul\":1313:1319   */\n      0x00\n        /* \"#utility.yul\":1321:1327   */\n      dup1\n        /* \"#utility.yul\":1370:1372   */\n      0x40\n        /* \"#utility.yul\":1358:1367   */\n      dup4\n        /* \"#utility.yul\":1349:1356   */\n      dup6\n        /* \"#utility.yul\":1345:1368   */\n      sub\n        /* \"#utility.yul\":1341:1373   */\n      slt\n        /* \"#utility.yul\":1338:1457   */\n      iszero\n      tag_67\n      jumpi\n        /* \"#utility.yul\":1376:1455   */\n      tag_68\n      tag_36\n      jump\t// in\n    tag_68:\n        /* \"#utility.yul\":1338:1457   */\n    tag_67:\n        /* \"#utility.yul\":1496:1497   */\n      0x00\n        /* \"#utility.yul\":1521:1582   */\n      tag_69\n        /* \"#utility.yul\":1574:1581   */\n      dup6\n        /* \"#utility.yul\":1565:1571   */\n      dup3\n        /* \"#utility.yul\":1554:1563   */\n      dup7\n        /* \"#utility.yul\":1550:1572   */\n      add\n        /* \"#utility.yul\":1521:1582   */\n      tag_41\n      jump\t// in\n    tag_69:\n        /* \"#utility.yul\":1511:1582   */\n      swap3\n      pop\n        /* \"#utility.yul\":1467:1592   */\n      pop\n        /* \"#utility.yul\":1631:1633   */\n      0x20\n        /* \"#utility.yul\":1657:1710   */\n      tag_70\n        /* \"#utility.yul\":1702:1709   */\n      dup6\n        /* \"#utility.yul\":1693:1699   */\n      dup3\n        /* \"#utility.yul\":1682:1691   */\n      dup7\n        /* \"#utility.yul\":1678:1700   */\n      add\n        /* \"#utility.yul\":1657:1710   */\n      tag_44\n      jump\t// in\n    tag_70:\n        /* \"#utility.yul\":1647:1710   */\n      swap2\n      pop\n        /* \"#utility.yul\":1602:1720   */\n      pop\n        /* \"#utility.yul\":1237:1727   */\n      swap3\n      pop\n      swap3\n      swap1\n      pop\n      jump\t// out\n        /* \"#utility.yul\":1733:2062   */\n    tag_13:\n        /* \"#utility.yul\":1792:1798   */\n      0x00\n        /* \"#utility.yul\":1841:1843   */\n      0x20\n        /* \"#utility.yul\":1829:1838   */\n      dup3\n        /* \"#utility.yul\":1820:1827   */\n      dup5\n        /* \"#utility.yul\":1816:1839   */\n      sub\n        /* \"#utility.yul\":1812:1844   */\n      slt\n        /* \"#utility.yul\":1809:1928   */\n      iszero\n      tag_72\n      jumpi\n        /* \"#utility.yul\":1847:1926   */\n      tag_73\n      tag_36\n      jump\t// in\n    tag_73:\n        /* \"#utility.yul\":1809:1928   */\n    tag_72:\n        /* \"#utility.yul\":1967:1968   */\n      0x00\n        /* \"#utility.yul\":1992:2045   */\n      tag_74\n        /* \"#utility.yul\":2037:2044   */\n      dup5\n        /* \"#utility.yul\":2028:2034   */\n      dup3\n        /* \"#utility.yul\":2017:2026   */\n      dup6\n        /* \"#utility.yul\":2013:2035   */\n      add\n        /* \"#utility.yul\":1992:2045   */\n      tag_44\n      jump\t// in\n    tag_74:\n        /* \"#utility.yul\":1982:2045   */\n      swap2\n      pop\n        /* \"#utility.yul\":1938:2055   */\n      pop\n        /* \"#utility.yul\":1733:2062   */\n      swap3\n      swap2\n      pop\n      pop\n      jump\t// out\n        /* \"#utility.yul\":2068:2186   */\n    tag_45:\n        /* \"#utility.yul\":2155:2179   */\n      tag_76\n        /* \"#utility.yul\":2173:2178   */\n      dup2\n        /* \"#utility.yul\":2155:2179   */\n      tag_42\n      jump\t// in\n    tag_76:\n        /* \"#utility.yul\":2150:2153   */\n      dup3\n        /* \"#utility.yul\":2143:2180   */\n      mstore\n        /* \"#utility.yul\":2068:2186   */\n      pop\n      pop\n      jump\t// out\n        /* \"#utility.yul\":2192:2414   */\n    tag_16:\n        /* \"#utility.yul\":2285:2289   */\n      0x00\n        /* \"#utility.yul\":2323:2325   */\n      0x20\n        /* \"#utility.yul\":2312:2321   */\n      dup3\n        /* \"#utility.yul\":2308:2326   */\n      add\n        /* \"#utility.yul\":2300:2326   */\n      swap1\n      pop\n        /* \"#utility.yul\":2336:2407   */\n      tag_78\n        /* \"#utility.yul\":2404:2405   */\n      0x00\n        /* \"#utility.yul\":2393:2402   */\n      dup4\n        /* \"#utility.yul\":2389:2406   */\n      add\n        /* \"#utility.yul\":2380:2386   */\n      dup5\n        /* \"#utility.yul\":2336:2407   */\n      tag_45\n      jump\t// in\n    tag_78:\n        /* \"#utility.yul\":2192:2414   */\n      swap3\n      swap2\n      pop\n      pop\n      jump\t// out\n        /* \"#utility.yul\":2420:2562   */\n    tag_46:\n        /* \"#utility.yul\":2523:2555   */\n      tag_80\n        /* \"#utility.yul\":2549:2554   */\n      dup2\n        /* \"#utility.yul\":2523:2555   */\n      tag_39\n      jump\t// in\n    tag_80:\n        /* \"#utility.yul\":2518:2521   */\n      dup3\n        /* \"#utility.yul\":2511:2556   */\n      mstore\n        /* \"#utility.yul\":2420:2562   */\n      pop\n      pop\n      jump\t// out\n        /* \"#utility.yul\":2568:2932   */\n    tag_21:\n        /* \"#utility.yul\":2705:2709   */\n      0x00\n        /* \"#utility.yul\":2743:2745   */\n      0x40\n        /* \"#utility.yul\":2732:2741   */\n      dup3\n        /* \"#utility.yul\":2728:2746   */\n      add\n        /* \"#utility.yul\":2720:2746   */\n      swap1\n      pop\n        /* \"#utility.yul\":2756:2843   */\n      tag_82\n        /* \"#utility.yul\":2840:2841   */\n      0x00\n        /* \"#utility.yul\":2829:2838   */\n      dup4\n        /* \"#utility.yul\":2825:2842   */\n      add\n        /* \"#utility.yul\":2816:2822   */\n      dup6\n        /* \"#utility.yul\":2756:2843   */\n      tag_46\n      jump\t// in\n    tag_82:\n        /* \"#utility.yul\":2853:2925   */\n      tag_83\n        /* \"#utility.yul\":2921:2923   */\n      0x20\n        /* \"#utility.yul\":2910:2919   */\n      dup4\n        /* \"#utility.yul\":2906:2924   */\n      add\n        /* \"#utility.yul\":2897:2903   */\n      dup5\n        /* \"#utility.yul\":2853:2925   */\n      tag_45\n      jump\t// in\n    tag_83:\n        /* \"#utility.yul\":2568:2932   */\n      swap4\n      swap3\n      pop\n      pop\n      pop\n      jump\t// out\n        /* \"#utility.yul\":2938:3081   */\n    tag_47:\n        /* \"#utility.yul\":2995:3000   */\n      0x00\n        /* \"#utility.yul\":3026:3032   */\n      dup2\n        /* \"#utility.yul\":3020:3033   */\n      mload\n        /* \"#utility.yul\":3011:3033   */\n      swap1\n      pop\n        /* \"#utility.yul\":3042:3075   */\n      tag_85\n        /* \"#utility.yul\":3069:3074   */\n      dup2\n        /* \"#utility.yul\":3042:3075   */\n      tag_43\n      jump\t// in\n    tag_85:\n        /* \"#utility.yul\":2938:3081   */\n      swap3\n      swap2\n      pop\n      pop\n      jump\t// out\n        /* \"#utility.yul\":3087:3438   */\n    tag_30:\n        /* \"#utility.yul\":3157:3163   */\n      0x00\n        /* \"#utility.yul\":3206:3208   */\n      0x20\n        /* \"#utility.yul\":3194:3203   */\n      dup3\n        /* \"#utility.yul\":3185:3192   */\n      dup5\n        /* \"#utility.yul\":3181:3204   */\n      sub\n        /* \"#utility.yul\":3177:3209   */\n      slt\n        /* \"#utility.yul\":3174:3293   */\n      iszero\n      tag_87\n      jumpi\n        /* \"#utility.yul\":3212:3291   */\n      tag_88\n      tag_36\n      jump\t// in\n    tag_88:\n        /* \"#utility.yul\":3174:3293   */\n    tag_87:\n        /* \"#utility.yul\":3332:3333   */\n      0x00\n        /* \"#utility.yul\":3357:3421   */\n      tag_89\n        /* \"#utility.yul\":3413:3420   */\n      dup5\n        /* \"#utility.yul\":3404:3410   */\n      dup3\n        /* \"#utility.yul\":3393:3402   */\n      dup6\n        /* \"#utility.yul\":3389:3411   */\n      add\n        /* \"#utility.yul\":3357:3421   */\n      tag_47\n      jump\t// in\n    tag_89:\n        /* \"#utility.yul\":3347:3421   */\n      swap2\n      pop\n        /* \"#utility.yul\":3303:3431   */\n      pop\n        /* \"#utility.yul\":3087:3438   */\n      swap3\n      swap2\n      pop\n      pop\n      jump\t// out\n\n    auxdata: 0xa2646970667358221220c61312614b611931132b9068563fb79822cd81174a226c2062a9bb4f5290510c64736f6c634300080f0033\n}\n",
				"bytecode": {
					"linkReferences": {},
					"object": "6080604052731f32fa361edfc947e1cb48b575f4498e88e267a66000806101000a81548173ffffffffffffffffffffffffffffffffffffffff021916908373ffffffffffffffffffffffffffffffffffffffff16021790555034801561006457600080fd5b50610441806100746000396000f3fe6080604052600436106100345760003560e01c806394756aa71461003957806397dedb1d14610062578063d0e30db01461009f575b600080fd5b34801561004557600080fd5b50610060600480360381019061005b91906102fa565b6100a9565b005b34801561006e57600080fd5b506100896004803603810190610084919061033a565b61013a565b6040516100969190610376565b60405180910390f35b6100a76101de565b005b60008054906101000a900473ffffffffffffffffffffffffffffffffffffffff1673ffffffffffffffffffffffffffffffffffffffff166394756aa783836040518363ffffffff1660e01b81526004016101049291906103a0565b600060405180830381600087803b15801561011e57600080fd5b505af1158015610132573d6000803e3d6000fd5b505050505050565b60008060009054906101000a900473ffffffffffffffffffffffffffffffffffffffff1673ffffffffffffffffffffffffffffffffffffffff166397dedb1d836040518263ffffffff1660e01b81526004016101969190610376565b602060405180830381865afa1580156101b3573d6000803e3d6000fd5b505050506040513d601f19601f820116820180604052508101906101d791906103de565b9050919050565b60008054906101000a900473ffffffffffffffffffffffffffffffffffffffff1673ffffffffffffffffffffffffffffffffffffffff1663d0e30db0346040518263ffffffff1660e01b81526004016000604051808303818588803b15801561024657600080fd5b505af115801561025a573d6000803e3d6000fd5b5050505050565b600080fd5b600073ffffffffffffffffffffffffffffffffffffffff82169050919050565b600061029182610266565b9050919050565b6102a181610286565b81146102ac57600080fd5b50565b6000813590506102be81610298565b92915050565b6000819050919050565b6102d7816102c4565b81146102e257600080fd5b50565b6000813590506102f4816102ce565b92915050565b6000806040838503121561031157610310610261565b5b600061031f858286016102af565b9250506020610330858286016102e5565b9150509250929050565b6000602082840312156103505761034f610261565b5b600061035e848285016102e5565b91505092915050565b610370816102c4565b82525050565b600060208201905061038b6000830184610367565b92915050565b61039a81610286565b82525050565b60006040820190506103b56000830185610391565b6103c26020830184610367565b9392505050565b6000815190506103d8816102ce565b92915050565b6000602082840312156103f4576103f3610261565b5b6000610402848285016103c9565b9150509291505056fea2646970667358221220c61312614b611931132b9068563fb79822cd81174a226c2062a9bb4f5290510c64736f6c634300080f0033",
					"opcodes": "PUSH1 0x80 PUSH1 0x40 MSTORE PUSH20 0x1F32FA361EDFC947E1CB48B575F4498E88E267A6 PUSH1 0x0 DUP1 PUSH2 0x100 EXP DUP2 SLOAD DUP2 PUSH20 0xFFFFFFFFFFFFFFFFFFFFFFFFFFFFFFFFFFFFFFFF MUL NOT AND SWAP1 DUP4 PUSH20 0xFFFFFFFFFFFFFFFFFFFFFFFFFFFFFFFFFFFFFFFF AND MUL OR SWAP1 SSTORE POP CALLVALUE DUP1 ISZERO PUSH2 0x64 JUMPI PUSH1 0x0 DUP1 REVERT JUMPDEST POP PUSH2 0x441 DUP1 PUSH2 0x74 PUSH1 0x0 CODECOPY PUSH1 0x0 RETURN INVALID PUSH1 0x80 PUSH1 0x40 MSTORE PUSH1 0x4 CALLDATASIZE LT PUSH2 0x34 JUMPI PUSH1 0x0 CALLDATALOAD PUSH1 0xE0 SHR DUP1 PUSH4 0x94756AA7 EQ PUSH2 0x39 JUMPI DUP1 PUSH4 0x97DEDB1D EQ PUSH2 0x62 JUMPI DUP1 PUSH4 0xD0E30DB0 EQ PUSH2 0x9F JUMPI JUMPDEST PUSH1 0x0 DUP1 REVERT JUMPDEST CALLVALUE DUP1 ISZERO PUSH2 0x45 JUMPI PUSH1 0x0 DUP1 REVERT JUMPDEST POP PUSH2 0x60 PUSH1 0x4 DUP1 CALLDATASIZE SUB DUP2 ADD SWAP1 PUSH2 0x5B SWAP2 SWAP1 PUSH2 0x2FA JUMP JUMPDEST PUSH2 0xA9 JUMP JUMPDEST STOP JUMPDEST CALLVALUE DUP1 ISZERO PUSH2 0x6E JUMPI PUSH1 0x0 DUP1 REVERT JUMPDEST POP PUSH2 0x89 PUSH1 0x4 DUP1 CALLDATASIZE SUB DUP2 ADD SWAP1 PUSH2 0x84 SWAP2 SWAP1 PUSH2 0x33A JUMP JUMPDEST PUSH2 0x13A JUMP JUMPDEST PUSH1 0x40 MLOAD PUSH2 0x96 SWAP2 SWAP1 PUSH2 0x376 JUMP JUMPDEST PUSH1 0x40 MLOAD DUP1 SWAP2 SUB SWAP1 RETURN JUMPDEST PUSH2 0xA7 PUSH2 0x1DE JUMP JUMPDEST STOP JUMPDEST PUSH1 0x0 DUP1 SLOAD SWAP1 PUSH2 0x100 EXP SWAP1 DIV PUSH20 0xFFFFFFFFFFFFFFFFFFFFFFFFFFFFFFFFFFFFFFFF AND PUSH20 0xFFFFFFFFFFFFFFFFFFFFFFFFFFFFFFFFFFFFFFFF AND PUSH4 0x94756AA7 DUP4 DUP4 PUSH1 0x40 MLOAD DUP4 PUSH4 0xFFFFFFFF AND PUSH1 0xE0 SHL DUP2 MSTORE PUSH1 0x4 ADD PUSH2 0x104 SWAP3 SWAP2 SWAP1 PUSH2 0x3A0 JUMP JUMPDEST PUSH1 0x0 PUSH1 0x40 MLOAD DUP1 DUP4 SUB DUP2 PUSH1 0x0 DUP8 DUP1 EXTCODESIZE ISZERO DUP1 ISZERO PUSH2 0x11E JUMPI PUSH1 0x0 DUP1 REVERT JUMPDEST POP GAS CALL ISZERO DUP1 ISZERO PUSH2 0x132 JUMPI RETURNDATASIZE PUSH1 0x0 DUP1 RETURNDATACOPY RETURNDATASIZE PUSH1 0x0 REVERT JUMPDEST POP POP POP POP POP POP JUMP JUMPDEST PUSH1 0x0 DUP1 PUSH1 0x0 SWAP1 SLOAD SWAP1 PUSH2 0x100 EXP SWAP1 DIV PUSH20 0xFFFFFFFFFFFFFFFFFFFFFFFFFFFFFFFFFFFFFFFF AND PUSH20 0xFFFFFFFFFFFFFFFFFFFFFFFFFFFFFFFFFFFFFFFF AND PUSH4 0x97DEDB1D DUP4 PUSH1 0x40 MLOAD DUP3 PUSH4 0xFFFFFFFF AND PUSH1 0xE0 SHL DUP2 MSTORE PUSH1 0x4 ADD PUSH2 0x196 SWAP2 SWAP1 PUSH2 0x376 JUMP JUMPDEST PUSH1 0x20 PUSH1 0x40 MLOAD DUP1 DUP4 SUB DUP2 DUP7 GAS STATICCALL ISZERO DUP1 ISZERO PUSH2 0x1B3 JUMPI RETURNDATASIZE PUSH1 0x0 DUP1 RETURNDATACOPY RETURNDATASIZE PUSH1 0x0 REVERT JUMPDEST POP POP POP POP PUSH1 0x40 MLOAD RETURNDATASIZE PUSH1 0x1F NOT PUSH1 0x1F DUP3 ADD AND DUP3 ADD DUP1 PUSH1 0x40 MSTORE POP DUP2 ADD SWAP1 PUSH2 0x1D7 SWAP2 SWAP1 PUSH2 0x3DE JUMP JUMPDEST SWAP1 POP SWAP2 SWAP1 POP JUMP JUMPDEST PUSH1 0x0 DUP1 SLOAD SWAP1 PUSH2 0x100 EXP SWAP1 DIV PUSH20 0xFFFFFFFFFFFFFFFFFFFFFFFFFFFFFFFFFFFFFFFF AND PUSH20 0xFFFFFFFFFFFFFFFFFFFFFFFFFFFFFFFFFFFFFFFF AND PUSH4 0xD0E30DB0 CALLVALUE PUSH1 0x40 MLOAD DUP3 PUSH4 0xFFFFFFFF AND PUSH1 0xE0 SHL DUP2 MSTORE PUSH1 0x4 ADD PUSH1 0x0 PUSH1 0x40 MLOAD DUP1 DUP4 SUB DUP2 DUP6 DUP9 DUP1 EXTCODESIZE ISZERO DUP1 ISZERO PUSH2 0x246 JUMPI PUSH1 0x0 DUP1 REVERT JUMPDEST POP GAS CALL ISZERO DUP1 ISZERO PUSH2 0x25A JUMPI RETURNDATASIZE PUSH1 0x0 DUP1 RETURNDATACOPY RETURNDATASIZE PUSH1 0x0 REVERT JUMPDEST POP POP POP POP POP JUMP JUMPDEST PUSH1 0x0 DUP1 REVERT JUMPDEST PUSH1 0x0 PUSH20 0xFFFFFFFFFFFFFFFFFFFFFFFFFFFFFFFFFFFFFFFF DUP3 AND SWAP1 POP SWAP2 SWAP1 POP JUMP JUMPDEST PUSH1 0x0 PUSH2 0x291 DUP3 PUSH2 0x266 JUMP JUMPDEST SWAP1 POP SWAP2 SWAP1 POP JUMP JUMPDEST PUSH2 0x2A1 DUP2 PUSH2 0x286 JUMP JUMPDEST DUP2 EQ PUSH2 0x2AC JUMPI PUSH1 0x0 DUP1 REVERT JUMPDEST POP JUMP JUMPDEST PUSH1 0x0 DUP2 CALLDATALOAD SWAP1 POP PUSH2 0x2BE DUP2 PUSH2 0x298 JUMP JUMPDEST SWAP3 SWAP2 POP POP JUMP JUMPDEST PUSH1 0x0 DUP2 SWAP1 POP SWAP2 SWAP1 POP JUMP JUMPDEST PUSH2 0x2D7 DUP2 PUSH2 0x2C4 JUMP JUMPDEST DUP2 EQ PUSH2 0x2E2 JUMPI PUSH1 0x0 DUP1 REVERT JUMPDEST POP JUMP JUMPDEST PUSH1 0x0 DUP2 CALLDATALOAD SWAP1 POP PUSH2 0x2F4 DUP2 PUSH2 0x2CE JUMP JUMPDEST SWAP3 SWAP2 POP POP JUMP JUMPDEST PUSH1 0x0 DUP1 PUSH1 0x40 DUP4 DUP6 SUB SLT ISZERO PUSH2 0x311 JUMPI PUSH2 0x310 PUSH2 0x261 JUMP JUMPDEST JUMPDEST PUSH1 0x0 PUSH2 0x31F DUP6 DUP3 DUP7 ADD PUSH2 0x2AF JUMP JUMPDEST SWAP3 POP POP PUSH1 0x20 PUSH2 0x330 DUP6 DUP3 DUP7 ADD PUSH2 0x2E5 JUMP JUMPDEST SWAP2 POP POP SWAP3 POP SWAP3 SWAP1 POP JUMP JUMPDEST PUSH1 0x0 PUSH1 0x20 DUP3 DUP5 SUB SLT ISZERO PUSH2 0x350 JUMPI PUSH2 0x34F PUSH2 0x261 JUMP JUMPDEST JUMPDEST PUSH1 0x0 PUSH2 0x35E DUP5 DUP3 DUP6 ADD PUSH2 0x2E5 JUMP JUMPDEST SWAP2 POP POP SWAP3 SWAP2 POP POP JUMP JUMPDEST PUSH2 0x370 DUP2 PUSH2 0x2C4 JUMP JUMPDEST DUP3 MSTORE POP POP JUMP JUMPDEST PUSH1 0x0 PUSH1 0x20 DUP3 ADD SWAP1 POP PUSH2 0x38B PUSH1 0x0 DUP4 ADD DUP5 PUSH2 0x367 JUMP JUMPDEST SWAP3 SWAP2 POP POP JUMP JUMPDEST PUSH2 0x39A DUP2 PUSH2 0x286 JUMP JUMPDEST DUP3 MSTORE POP POP JUMP JUMPDEST PUSH1 0x0 PUSH1 0x40 DUP3 ADD SWAP1 POP PUSH2 0x3B5 PUSH1 0x0 DUP4 ADD DUP6 PUSH2 0x391 JUMP JUMPDEST PUSH2 0x3C2 PUSH1 0x20 DUP4 ADD DUP5 PUSH2 0x367 JUMP JUMPDEST SWAP4 SWAP3 POP POP POP JUMP JUMPDEST PUSH1 0x0 DUP2 MLOAD SWAP1 POP PUSH2 0x3D8 DUP2 PUSH2 0x2CE JUMP JUMPDEST SWAP3 SWAP2 POP POP JUMP JUMPDEST PUSH1 0x0 PUSH1 0x20 DUP3 DUP5 SUB SLT ISZERO PUSH2 0x3F4 JUMPI PUSH2 0x3F3 PUSH2 0x261 JUMP JUMPDEST JUMPDEST PUSH1 0x0 PUSH2 0x402 DUP5 DUP3 DUP6 ADD PUSH2 0x3C9 JUMP JUMPDEST SWAP2 POP POP SWAP3 SWAP2 POP POP JUMP INVALID LOG2 PUSH5 0x6970667358 0x22 SLT KECCAK256 0xC6 SGT SLT PUSH2 0x4B61 NOT BALANCE SGT 0x2B SWAP1 PUSH9 0x563FB79822CD81174A 0x22 PUSH13 0x2062A9BB4F5290510C64736F6C PUSH4 0x4300080F STOP CALLER "
				},
				"gasEstimates": {
					"creation": {
						"codeDepositCost": "217800",
						"executionCost": "24530",
						"totalCost": "242330"
					},
					"external": {
						"ETH_DCF(uint256)": "infinite",
						"deposit()": "infinite",
						"market(address,uint256)": "infinite"
					}
				},
				"methodIdentifiers": {
					"ETH_DCF(uint256)": "97dedb1d",
					"deposit()": "d0e30db0",
					"market(address,uint256)": "94756aa7"
				}
			},
			"storageLayout": {
				"storage": [
					{
						"astId": 25,
						"contract": "Dcoffer/Router.sol:Router",
						"label": "treasuryCtrl",
						"offset": 0,
						"slot": "0",
						"type": "t_contract(_treasury)19"
					}
				],
				"types": {
					"t_contract(_treasury)19": {
						"encoding": "inplace",
						"label": "contract _treasury",
						"numberOfBytes": "20"
					}
				}
			},
			"userdoc": {
				"kind": "user",
				"methods": {},
				"version": 1
			}
		}
	}
}