{
	"Dcoffer/DcoffMine.sol": {
		"DcoffMine": {
			"abi": [
				{
					"inputs": [
						{
							"internalType": "address",
							"name": "_treasuryAddr",
							"type": "address"
						},
						{
							"internalType": "uint256",
							"name": "_fee",
							"type": "uint256"
						}
					],
					"stateMutability": "nonpayable",
					"type": "constructor"
				},
				{
					"inputs": [],
					"name": "Claim",
					"outputs": [],
					"stateMutability": "nonpayable",
					"type": "function"
				},
				{
					"inputs": [],
					"name": "FlashSwap",
					"outputs": [],
					"stateMutability": "nonpayable",
					"type": "function"
				},
				{
					"inputs": [],
					"name": "treasury_admin",
					"outputs": [],
					"stateMutability": "nonpayable",
					"type": "function"
				},
				{
					"inputs": [
						{
							"internalType": "address",
							"name": "user",
							"type": "address"
						}
					],
					"name": "viewReward",
					"outputs": [
						{
							"internalType": "uint256",
							"name": "",
							"type": "uint256"
						}
					],
					"stateMutability": "view",
					"type": "function"
				}
			],
			"devdoc": {
				"kind": "dev",
				"methods": {},
				"version": 1
			},
			"evm": {
				"assembly": "    /* \"Dcoffer/DcoffMine.sol\":315:1778  contract DcoffMine  {... */\n  mstore(0x40, 0x80)\n    /* \"Dcoffer/DcoffMine.sol\":390:432  0x1d2B7602b5f2F939F88fEFB886e21948b13EDE78 */\n  0x1d2b7602b5f2f939f88fefb886e21948b13ede78\n    /* \"Dcoffer/DcoffMine.sol\":370:433  mine DCFmine = mine(0x1d2B7602b5f2F939F88fEFB886e21948b13EDE78) */\n  0x00\n  dup1\n  0x0100\n  exp\n  dup2\n  sload\n  dup2\n  0xffffffffffffffffffffffffffffffffffffffff\n  mul\n  not\n  and\n  swap1\n  dup4\n  0xffffffffffffffffffffffffffffffffffffffff\n  and\n  mul\n  or\n  swap1\n  sstore\n  pop\n    /* \"Dcoffer/DcoffMine.sol\":461:503  0x4320d4A0a469a93c916d2ba1351Cb403E0D1A7c7 */\n  0x4320d4a0a469a93c916d2ba1351cb403e0d1a7c7\n    /* \"Dcoffer/DcoffMine.sol\":438:504  IERC20 dcoff =  IERC20(0x4320d4A0a469a93c916d2ba1351Cb403E0D1A7c7) */\n  0x01\n  exp(0x0100, 0x00)\n  dup2\n  sload\n  dup2\n  0xffffffffffffffffffffffffffffffffffffffff\n  mul\n  not\n  and\n  swap1\n  dup4\n  0xffffffffffffffffffffffffffffffffffffffff\n  and\n  mul\n  or\n  swap1\n  sstore\n  pop\n    /* \"Dcoffer/DcoffMine.sol\":536:578  0xCab0385bEe4b0Dd78428b744D3F47130Eb220EDd */\n  0xcab0385bee4b0dd78428b744d3f47130eb220edd\n    /* \"Dcoffer/DcoffMine.sol\":509:579  treasury router = treasury(0xCab0385bEe4b0Dd78428b744D3F47130Eb220EDd) */\n  0x02\n  exp(0x0100, 0x00)\n  dup2\n  sload\n  dup2\n  0xffffffffffffffffffffffffffffffffffffffff\n  mul\n  not\n  and\n  swap1\n  dup4\n  0xffffffffffffffffffffffffffffffffffffffff\n  and\n  mul\n  or\n  swap1\n  sstore\n  pop\n    /* \"Dcoffer/DcoffMine.sol\":720:854  constructor(address _treasuryAddr, uint256 _fee){   ... */\n  callvalue\n  dup1\n  iszero\n  tag_1\n  jumpi\n  0x00\n  dup1\n  revert\ntag_1:\n  pop\n  mload(0x40)\n  sub(codesize, bytecodeSize)\n  dup1\n  bytecodeSize\n  dup4\n  codecopy\n  dup2\n  dup2\n  add\n  0x40\n  mstore\n  dup2\n  add\n  swap1\n  tag_2\n  swap2\n  swap1\n  tag_3\n  jump\t// in\ntag_2:\n    /* \"Dcoffer/DcoffMine.sol\":786:796  msg.sender */\n  caller\n    /* \"Dcoffer/DcoffMine.sol\":778:783  owner */\n  0x03\n  0x00\n    /* \"Dcoffer/DcoffMine.sol\":778:796  owner = msg.sender */\n  0x0100\n  exp\n  dup2\n  sload\n  dup2\n  0xffffffffffffffffffffffffffffffffffffffff\n  mul\n  not\n  and\n  swap1\n  dup4\n  0xffffffffffffffffffffffffffffffffffffffff\n  and\n  mul\n  or\n  swap1\n  sstore\n  pop\n    /* \"Dcoffer/DcoffMine.sol\":818:831  _treasuryAddr */\n  dup2\n    /* \"Dcoffer/DcoffMine.sol\":803:815  treasuryAddr */\n  0x04\n  0x00\n    /* \"Dcoffer/DcoffMine.sol\":803:831  treasuryAddr = _treasuryAddr */\n  0x0100\n  exp\n  dup2\n  sload\n  dup2\n  0xffffffffffffffffffffffffffffffffffffffff\n  mul\n  not\n  and\n  swap1\n  dup4\n  0xffffffffffffffffffffffffffffffffffffffff\n  and\n  mul\n  or\n  swap1\n  sstore\n  pop\n    /* \"Dcoffer/DcoffMine.sol\":844:848  _fee */\n  dup1\n    /* \"Dcoffer/DcoffMine.sol\":838:841  fee */\n  0x05\n    /* \"Dcoffer/DcoffMine.sol\":838:848  fee = _fee */\n  dup2\n  swap1\n  sstore\n  pop\n    /* \"Dcoffer/DcoffMine.sol\":720:854  constructor(address _treasuryAddr, uint256 _fee){   ... */\n  pop\n  pop\n    /* \"Dcoffer/DcoffMine.sol\":315:1778  contract DcoffMine  {... */\n  jump(tag_6)\n    /* \"#utility.yul\":88:205   */\ntag_8:\n    /* \"#utility.yul\":197:198   */\n  0x00\n    /* \"#utility.yul\":194:195   */\n  dup1\n    /* \"#utility.yul\":187:199   */\n  revert\n    /* \"#utility.yul\":334:460   */\ntag_10:\n    /* \"#utility.yul\":371:378   */\n  0x00\n    /* \"#utility.yul\":411:453   */\n  0xffffffffffffffffffffffffffffffffffffffff\n    /* \"#utility.yul\":404:409   */\n  dup3\n    /* \"#utility.yul\":400:454   */\n  and\n    /* \"#utility.yul\":389:454   */\n  swap1\n  pop\n    /* \"#utility.yul\":334:460   */\n  swap2\n  swap1\n  pop\n  jump\t// out\n    /* \"#utility.yul\":466:562   */\ntag_11:\n    /* \"#utility.yul\":503:510   */\n  0x00\n    /* \"#utility.yul\":532:556   */\n  tag_23\n    /* \"#utility.yul\":550:555   */\n  dup3\n    /* \"#utility.yul\":532:556   */\n  tag_10\n  jump\t// in\ntag_23:\n    /* \"#utility.yul\":521:556   */\n  swap1\n  pop\n    /* \"#utility.yul\":466:562   */\n  swap2\n  swap1\n  pop\n  jump\t// out\n    /* \"#utility.yul\":568:690   */\ntag_12:\n    /* \"#utility.yul\":641:665   */\n  tag_25\n    /* \"#utility.yul\":659:664   */\n  dup2\n    /* \"#utility.yul\":641:665   */\n  tag_11\n  jump\t// in\ntag_25:\n    /* \"#utility.yul\":634:639   */\n  dup2\n    /* \"#utility.yul\":631:666   */\n  eq\n    /* \"#utility.yul\":621:684   */\n  tag_26\n  jumpi\n    /* \"#utility.yul\":680:681   */\n  0x00\n    /* \"#utility.yul\":677:678   */\n  dup1\n    /* \"#utility.yul\":670:682   */\n  revert\n    /* \"#utility.yul\":621:684   */\ntag_26:\n    /* \"#utility.yul\":568:690   */\n  pop\n  jump\t// out\n    /* \"#utility.yul\":696:839   */\ntag_13:\n    /* \"#utility.yul\":753:758   */\n  0x00\n    /* \"#utility.yul\":784:790   */\n  dup2\n    /* \"#utility.yul\":778:791   */\n  mload\n    /* \"#utility.yul\":769:791   */\n  swap1\n  pop\n    /* \"#utility.yul\":800:833   */\n  tag_28\n    /* \"#utility.yul\":827:832   */\n  dup2\n    /* \"#utility.yul\":800:833   */\n  tag_12\n  jump\t// in\ntag_28:\n    /* \"#utility.yul\":696:839   */\n  swap3\n  swap2\n  pop\n  pop\n  jump\t// out\n    /* \"#utility.yul\":845:922   */\ntag_14:\n    /* \"#utility.yul\":882:889   */\n  0x00\n    /* \"#utility.yul\":911:916   */\n  dup2\n    /* \"#utility.yul\":900:916   */\n  swap1\n  pop\n    /* \"#utility.yul\":845:922   */\n  swap2\n  swap1\n  pop\n  jump\t// out\n    /* \"#utility.yul\":928:1050   */\ntag_15:\n    /* \"#utility.yul\":1001:1025   */\n  tag_31\n    /* \"#utility.yul\":1019:1024   */\n  dup2\n    /* \"#utility.yul\":1001:1025   */\n  tag_14\n  jump\t// in\ntag_31:\n    /* \"#utility.yul\":994:999   */\n  dup2\n    /* \"#utility.yul\":991:1026   */\n  eq\n    /* \"#utility.yul\":981:1044   */\n  tag_32\n  jumpi\n    /* \"#utility.yul\":1040:1041   */\n  0x00\n    /* \"#utility.yul\":1037:1038   */\n  dup1\n    /* \"#utility.yul\":1030:1042   */\n  revert\n    /* \"#utility.yul\":981:1044   */\ntag_32:\n    /* \"#utility.yul\":928:1050   */\n  pop\n  jump\t// out\n    /* \"#utility.yul\":1056:1199   */\ntag_16:\n    /* \"#utility.yul\":1113:1118   */\n  0x00\n    /* \"#utility.yul\":1144:1150   */\n  dup2\n    /* \"#utility.yul\":1138:1151   */\n  mload\n    /* \"#utility.yul\":1129:1151   */\n  swap1\n  pop\n    /* \"#utility.yul\":1160:1193   */\n  tag_34\n    /* \"#utility.yul\":1187:1192   */\n  dup2\n    /* \"#utility.yul\":1160:1193   */\n  tag_15\n  jump\t// in\ntag_34:\n    /* \"#utility.yul\":1056:1199   */\n  swap3\n  swap2\n  pop\n  pop\n  jump\t// out\n    /* \"#utility.yul\":1205:1712   */\ntag_3:\n    /* \"#utility.yul\":1284:1290   */\n  0x00\n    /* \"#utility.yul\":1292:1298   */\n  dup1\n    /* \"#utility.yul\":1341:1343   */\n  0x40\n    /* \"#utility.yul\":1329:1338   */\n  dup4\n    /* \"#utility.yul\":1320:1327   */\n  dup6\n    /* \"#utility.yul\":1316:1339   */\n  sub\n    /* \"#utility.yul\":1312:1344   */\n  slt\n    /* \"#utility.yul\":1309:1428   */\n  iszero\n  tag_36\n  jumpi\n    /* \"#utility.yul\":1347:1426   */\n  tag_37\n  tag_8\n  jump\t// in\ntag_37:\n    /* \"#utility.yul\":1309:1428   */\ntag_36:\n    /* \"#utility.yul\":1467:1468   */\n  0x00\n    /* \"#utility.yul\":1492:1556   */\n  tag_38\n    /* \"#utility.yul\":1548:1555   */\n  dup6\n    /* \"#utility.yul\":1539:1545   */\n  dup3\n    /* \"#utility.yul\":1528:1537   */\n  dup7\n    /* \"#utility.yul\":1524:1546   */\n  add\n    /* \"#utility.yul\":1492:1556   */\n  tag_13\n  jump\t// in\ntag_38:\n    /* \"#utility.yul\":1482:1556   */\n  swap3\n  pop\n    /* \"#utility.yul\":1438:1566   */\n  pop\n    /* \"#utility.yul\":1605:1607   */\n  0x20\n    /* \"#utility.yul\":1631:1695   */\n  tag_39\n    /* \"#utility.yul\":1687:1694   */\n  dup6\n    /* \"#utility.yul\":1678:1684   */\n  dup3\n    /* \"#utility.yul\":1667:1676   */\n  dup7\n    /* \"#utility.yul\":1663:1685   */\n  add\n    /* \"#utility.yul\":1631:1695   */\n  tag_16\n  jump\t// in\ntag_39:\n    /* \"#utility.yul\":1621:1695   */\n  swap2\n  pop\n    /* \"#utility.yul\":1576:1705   */\n  pop\n    /* \"#utility.yul\":1205:1712   */\n  swap3\n  pop\n  swap3\n  swap1\n  pop\n  jump\t// out\n    /* \"Dcoffer/DcoffMine.sol\":315:1778  contract DcoffMine  {... */\ntag_6:\n  dataSize(sub_0)\n  dup1\n  dataOffset(sub_0)\n  0x00\n  codecopy\n  0x00\n  return\nstop\n\nsub_0: assembly {\n        /* \"Dcoffer/DcoffMine.sol\":315:1778  contract DcoffMine  {... */\n      mstore(0x40, 0x80)\n      callvalue\n      dup1\n      iszero\n      tag_1\n      jumpi\n      0x00\n      dup1\n      revert\n    tag_1:\n      pop\n      jumpi(tag_2, lt(calldatasize, 0x04))\n      shr(0xe0, calldataload(0x00))\n      dup1\n      0x3158952e\n      eq\n      tag_3\n      jumpi\n      dup1\n      0x9acc1b73\n      eq\n      tag_4\n      jumpi\n      dup1\n      0xb3a26307\n      eq\n      tag_5\n      jumpi\n      dup1\n      0xd0eede67\n      eq\n      tag_6\n      jumpi\n    tag_2:\n      0x00\n      dup1\n      revert\n        /* \"Dcoffer/DcoffMine.sol\":1076:1279  function Claim()external {... */\n    tag_3:\n      tag_7\n      tag_8\n      jump\t// in\n    tag_7:\n      stop\n        /* \"Dcoffer/DcoffMine.sol\":1640:1762  function treasury_admin()external {... */\n    tag_4:\n      tag_9\n      tag_10\n      jump\t// in\n    tag_9:\n      stop\n        /* \"Dcoffer/DcoffMine.sol\":1294:1626  function FlashSwap()external {... */\n    tag_5:\n      tag_11\n      tag_12\n      jump\t// in\n    tag_11:\n      stop\n        /* \"Dcoffer/DcoffMine.sol\":864:1069  function viewReward(address user)public view returns(uint256){... */\n    tag_6:\n      tag_13\n      0x04\n      dup1\n      calldatasize\n      sub\n      dup2\n      add\n      swap1\n      tag_14\n      swap2\n      swap1\n      tag_15\n      jump\t// in\n    tag_14:\n      tag_16\n      jump\t// in\n    tag_13:\n      mload(0x40)\n      tag_17\n      swap2\n      swap1\n      tag_18\n      jump\t// in\n    tag_17:\n      mload(0x40)\n      dup1\n      swap2\n      sub\n      swap1\n      return\n        /* \"Dcoffer/DcoffMine.sol\":1076:1279  function Claim()external {... */\n    tag_8:\n        /* \"Dcoffer/DcoffMine.sol\":1110:1124  uint claim_dcf */\n      0x00\n        /* \"Dcoffer/DcoffMine.sol\":1127:1149  viewReward(msg.sender) */\n      tag_20\n        /* \"Dcoffer/DcoffMine.sol\":1138:1148  msg.sender */\n      caller\n        /* \"Dcoffer/DcoffMine.sol\":1127:1137  viewReward */\n      tag_16\n        /* \"Dcoffer/DcoffMine.sol\":1127:1149  viewReward(msg.sender) */\n      jump\t// in\n    tag_20:\n        /* \"Dcoffer/DcoffMine.sol\":1110:1149  uint claim_dcf = viewReward(msg.sender) */\n      swap1\n      pop\n        /* \"Dcoffer/DcoffMine.sol\":1158:1163  dcoff */\n      0x01\n      0x00\n      swap1\n      sload\n      swap1\n      0x0100\n      exp\n      swap1\n      div\n      0xffffffffffffffffffffffffffffffffffffffff\n      and\n        /* \"Dcoffer/DcoffMine.sol\":1158:1172  dcoff.transfer */\n      0xffffffffffffffffffffffffffffffffffffffff\n      and\n      0xa9059cbb\n        /* \"Dcoffer/DcoffMine.sol\":1173:1183  msg.sender */\n      caller\n        /* \"Dcoffer/DcoffMine.sol\":1184:1193  claim_dcf */\n      dup4\n        /* \"Dcoffer/DcoffMine.sol\":1158:1194  dcoff.transfer(msg.sender,claim_dcf) */\n      mload(0x40)\n      dup4\n      0xffffffff\n      and\n      0xe0\n      shl\n      dup2\n      mstore\n      0x04\n      add\n      tag_21\n      swap3\n      swap2\n      swap1\n      tag_22\n      jump\t// in\n    tag_21:\n      0x20\n      mload(0x40)\n      dup1\n      dup4\n      sub\n      dup2\n      0x00\n      dup8\n      gas\n      call\n      iszero\n      dup1\n      iszero\n      tag_24\n      jumpi\n      returndatasize\n      0x00\n      dup1\n      returndatacopy\n      revert(0x00, returndatasize)\n    tag_24:\n      pop\n      pop\n      pop\n      pop\n      mload(0x40)\n      returndatasize\n      not(0x1f)\n      0x1f\n      dup3\n      add\n      and\n      dup3\n      add\n      dup1\n      0x40\n      mstore\n      pop\n      dup2\n      add\n      swap1\n      tag_25\n      swap2\n      swap1\n      tag_26\n      jump\t// in\n    tag_25:\n      pop\n        /* \"Dcoffer/DcoffMine.sol\":1232:1273  ScoreWithdrawn[msg.sender].add(claim_dcf) */\n      tag_27\n        /* \"Dcoffer/DcoffMine.sol\":1263:1272  claim_dcf */\n      dup2\n        /* \"Dcoffer/DcoffMine.sol\":1232:1246  ScoreWithdrawn */\n      0x06\n        /* \"Dcoffer/DcoffMine.sol\":1232:1258  ScoreWithdrawn[msg.sender] */\n      0x00\n        /* \"Dcoffer/DcoffMine.sol\":1247:1257  msg.sender */\n      caller\n        /* \"Dcoffer/DcoffMine.sol\":1232:1258  ScoreWithdrawn[msg.sender] */\n      0xffffffffffffffffffffffffffffffffffffffff\n      and\n      0xffffffffffffffffffffffffffffffffffffffff\n      and\n      dup2\n      mstore\n      0x20\n      add\n      swap1\n      dup2\n      mstore\n      0x20\n      add\n      0x00\n      keccak256\n      sload\n        /* \"Dcoffer/DcoffMine.sol\":1232:1262  ScoreWithdrawn[msg.sender].add */\n      tag_28\n      swap1\n        /* \"Dcoffer/DcoffMine.sol\":1232:1273  ScoreWithdrawn[msg.sender].add(claim_dcf) */\n      swap2\n      swap1\n      0xffffffff\n      and\n      jump\t// in\n    tag_27:\n        /* \"Dcoffer/DcoffMine.sol\":1203:1217  ScoreWithdrawn */\n      0x06\n        /* \"Dcoffer/DcoffMine.sol\":1203:1229  ScoreWithdrawn[msg.sender] */\n      0x00\n        /* \"Dcoffer/DcoffMine.sol\":1218:1228  msg.sender */\n      caller\n        /* \"Dcoffer/DcoffMine.sol\":1203:1229  ScoreWithdrawn[msg.sender] */\n      0xffffffffffffffffffffffffffffffffffffffff\n      and\n      0xffffffffffffffffffffffffffffffffffffffff\n      and\n      dup2\n      mstore\n      0x20\n      add\n      swap1\n      dup2\n      mstore\n      0x20\n      add\n      0x00\n      keccak256\n        /* \"Dcoffer/DcoffMine.sol\":1203:1273  ScoreWithdrawn[msg.sender] = ScoreWithdrawn[msg.sender].add(claim_dcf) */\n      dup2\n      swap1\n      sstore\n      pop\n        /* \"Dcoffer/DcoffMine.sol\":1101:1279  {... */\n      pop\n        /* \"Dcoffer/DcoffMine.sol\":1076:1279  function Claim()external {... */\n      jump\t// out\n        /* \"Dcoffer/DcoffMine.sol\":1640:1762  function treasury_admin()external {... */\n    tag_10:\n        /* \"Dcoffer/DcoffMine.sol\":1703:1708  owner */\n      0x03\n      0x00\n      swap1\n      sload\n      swap1\n      0x0100\n      exp\n      swap1\n      div\n      0xffffffffffffffffffffffffffffffffffffffff\n      and\n        /* \"Dcoffer/DcoffMine.sol\":1689:1708  msg.sender == owner */\n      0xffffffffffffffffffffffffffffffffffffffff\n      and\n        /* \"Dcoffer/DcoffMine.sol\":1689:1699  msg.sender */\n      caller\n        /* \"Dcoffer/DcoffMine.sol\":1689:1708  msg.sender == owner */\n      0xffffffffffffffffffffffffffffffffffffffff\n      and\n      eq\n        /* \"Dcoffer/DcoffMine.sol\":1681:1709  require(msg.sender == owner) */\n      tag_30\n      jumpi\n      0x00\n      dup1\n      revert\n    tag_30:\n        /* \"Dcoffer/DcoffMine.sol\":1716:1721  dcoff */\n      0x01\n      0x00\n      swap1\n      sload\n      swap1\n      0x0100\n      exp\n      swap1\n      div\n      0xffffffffffffffffffffffffffffffffffffffff\n      and\n        /* \"Dcoffer/DcoffMine.sol\":1716:1729  dcoff.approve */\n      0xffffffffffffffffffffffffffffffffffffffff\n      and\n      0x095ea7b3\n        /* \"Dcoffer/DcoffMine.sol\":1730:1742  treasuryAddr */\n      0x04\n      0x00\n      swap1\n      sload\n      swap1\n      0x0100\n      exp\n      swap1\n      div\n      0xffffffffffffffffffffffffffffffffffffffff\n      and\n        /* \"Dcoffer/DcoffMine.sol\":1743:1755  100000000e18 */\n      0x52b7d2dcc80cd2e4000000\n        /* \"Dcoffer/DcoffMine.sol\":1716:1756  dcoff.approve(treasuryAddr,100000000e18) */\n      mload(0x40)\n      dup4\n      0xffffffff\n      and\n      0xe0\n      shl\n      dup2\n      mstore\n      0x04\n      add\n      tag_31\n      swap3\n      swap2\n      swap1\n      tag_32\n      jump\t// in\n    tag_31:\n      0x20\n      mload(0x40)\n      dup1\n      dup4\n      sub\n      dup2\n      0x00\n      dup8\n      gas\n      call\n      iszero\n      dup1\n      iszero\n      tag_34\n      jumpi\n      returndatasize\n      0x00\n      dup1\n      returndatacopy\n      revert(0x00, returndatasize)\n    tag_34:\n      pop\n      pop\n      pop\n      pop\n      mload(0x40)\n      returndatasize\n      not(0x1f)\n      0x1f\n      dup3\n      add\n      and\n      dup3\n      add\n      dup1\n      0x40\n      mstore\n      pop\n      dup2\n      add\n      swap1\n      tag_35\n      swap2\n      swap1\n      tag_26\n      jump\t// in\n    tag_35:\n      pop\n        /* \"Dcoffer/DcoffMine.sol\":1640:1762  function treasury_admin()external {... */\n      jump\t// out\n        /* \"Dcoffer/DcoffMine.sol\":1294:1626  function FlashSwap()external {... */\n    tag_12:\n        /* \"Dcoffer/DcoffMine.sol\":1330:1348  uint256 dcf_amount */\n      0x00\n        /* \"Dcoffer/DcoffMine.sol\":1351:1373  viewReward(msg.sender) */\n      tag_37\n        /* \"Dcoffer/DcoffMine.sol\":1362:1372  msg.sender */\n      caller\n        /* \"Dcoffer/DcoffMine.sol\":1351:1361  viewReward */\n      tag_16\n        /* \"Dcoffer/DcoffMine.sol\":1351:1373  viewReward(msg.sender) */\n      jump\t// in\n    tag_37:\n        /* \"Dcoffer/DcoffMine.sol\":1330:1373  uint256 dcf_amount = viewReward(msg.sender) */\n      swap1\n      pop\n        /* \"Dcoffer/DcoffMine.sol\":1380:1389  uint _fee */\n      0x00\n        /* \"Dcoffer/DcoffMine.sol\":1392:1421  dcf_amount.mul(fee).div(1000) */\n      tag_38\n        /* \"Dcoffer/DcoffMine.sol\":1416:1420  1000 */\n      0x03e8\n        /* \"Dcoffer/DcoffMine.sol\":1392:1411  dcf_amount.mul(fee) */\n      tag_39\n        /* \"Dcoffer/DcoffMine.sol\":1407:1410  fee */\n      sload(0x05)\n        /* \"Dcoffer/DcoffMine.sol\":1392:1402  dcf_amount */\n      dup6\n        /* \"Dcoffer/DcoffMine.sol\":1392:1406  dcf_amount.mul */\n      tag_40\n      swap1\n        /* \"Dcoffer/DcoffMine.sol\":1392:1411  dcf_amount.mul(fee) */\n      swap2\n      swap1\n      0xffffffff\n      and\n      jump\t// in\n    tag_39:\n        /* \"Dcoffer/DcoffMine.sol\":1392:1415  dcf_amount.mul(fee).div */\n      tag_41\n      swap1\n        /* \"Dcoffer/DcoffMine.sol\":1392:1421  dcf_amount.mul(fee).div(1000) */\n      swap2\n      swap1\n      0xffffffff\n      and\n      jump\t// in\n    tag_38:\n        /* \"Dcoffer/DcoffMine.sol\":1380:1421  uint _fee = dcf_amount.mul(fee).div(1000) */\n      swap1\n      pop\n        /* \"Dcoffer/DcoffMine.sol\":1428:1454  uint256 aftertaxDCF_amount */\n      0x00\n        /* \"Dcoffer/DcoffMine.sol\":1456:1476  dcf_amount.sub(_fee) */\n      tag_42\n        /* \"Dcoffer/DcoffMine.sol\":1471:1475  _fee */\n      dup3\n        /* \"Dcoffer/DcoffMine.sol\":1456:1466  dcf_amount */\n      dup5\n        /* \"Dcoffer/DcoffMine.sol\":1456:1470  dcf_amount.sub */\n      tag_43\n      swap1\n        /* \"Dcoffer/DcoffMine.sol\":1456:1476  dcf_amount.sub(_fee) */\n      swap2\n      swap1\n      0xffffffff\n      and\n      jump\t// in\n    tag_42:\n        /* \"Dcoffer/DcoffMine.sol\":1428:1476  uint256 aftertaxDCF_amount =dcf_amount.sub(_fee) */\n      swap1\n      pop\n        /* \"Dcoffer/DcoffMine.sol\":1485:1491  router */\n      0x02\n      0x00\n      swap1\n      sload\n      swap1\n      0x0100\n      exp\n      swap1\n      div\n      0xffffffffffffffffffffffffffffffffffffffff\n      and\n        /* \"Dcoffer/DcoffMine.sol\":1485:1498  router.market */\n      0xffffffffffffffffffffffffffffffffffffffff\n      and\n      0x94756aa7\n        /* \"Dcoffer/DcoffMine.sol\":1507:1517  msg.sender */\n      caller\n        /* \"Dcoffer/DcoffMine.sol\":1519:1537  aftertaxDCF_amount */\n      dup4\n        /* \"Dcoffer/DcoffMine.sol\":1485:1538  router.market(payable(msg.sender),aftertaxDCF_amount) */\n      mload(0x40)\n      dup4\n      0xffffffff\n      and\n      0xe0\n      shl\n      dup2\n      mstore\n      0x04\n      add\n      tag_44\n      swap3\n      swap2\n      swap1\n      tag_45\n      jump\t// in\n    tag_44:\n      0x00\n      mload(0x40)\n      dup1\n      dup4\n      sub\n      dup2\n      0x00\n      dup8\n      dup1\n      extcodesize\n      iszero\n      dup1\n      iszero\n      tag_46\n      jumpi\n      0x00\n      dup1\n      revert\n    tag_46:\n      pop\n      gas\n      call\n      iszero\n      dup1\n      iszero\n      tag_48\n      jumpi\n      returndatasize\n      0x00\n      dup1\n      returndatacopy\n      revert(0x00, returndatasize)\n    tag_48:\n      pop\n      pop\n      pop\n      pop\n        /* \"Dcoffer/DcoffMine.sol\":1578:1620  ScoreWithdrawn[msg.sender].add(dcf_amount) */\n      tag_49\n        /* \"Dcoffer/DcoffMine.sol\":1609:1619  dcf_amount */\n      dup4\n        /* \"Dcoffer/DcoffMine.sol\":1578:1592  ScoreWithdrawn */\n      0x06\n        /* \"Dcoffer/DcoffMine.sol\":1578:1604  ScoreWithdrawn[msg.sender] */\n      0x00\n        /* \"Dcoffer/DcoffMine.sol\":1593:1603  msg.sender */\n      caller\n        /* \"Dcoffer/DcoffMine.sol\":1578:1604  ScoreWithdrawn[msg.sender] */\n      0xffffffffffffffffffffffffffffffffffffffff\n      and\n      0xffffffffffffffffffffffffffffffffffffffff\n      and\n      dup2\n      mstore\n      0x20\n      add\n      swap1\n      dup2\n      mstore\n      0x20\n      add\n      0x00\n      keccak256\n      sload\n        /* \"Dcoffer/DcoffMine.sol\":1578:1608  ScoreWithdrawn[msg.sender].add */\n      tag_28\n      swap1\n        /* \"Dcoffer/DcoffMine.sol\":1578:1620  ScoreWithdrawn[msg.sender].add(dcf_amount) */\n      swap2\n      swap1\n      0xffffffff\n      and\n      jump\t// in\n    tag_49:\n        /* \"Dcoffer/DcoffMine.sol\":1549:1563  ScoreWithdrawn */\n      0x06\n        /* \"Dcoffer/DcoffMine.sol\":1549:1575  ScoreWithdrawn[msg.sender] */\n      0x00\n        /* \"Dcoffer/DcoffMine.sol\":1564:1574  msg.sender */\n      caller\n        /* \"Dcoffer/DcoffMine.sol\":1549:1575  ScoreWithdrawn[msg.sender] */\n      0xffffffffffffffffffffffffffffffffffffffff\n      and\n      0xffffffffffffffffffffffffffffffffffffffff\n      and\n      dup2\n      mstore\n      0x20\n      add\n      swap1\n      dup2\n      mstore\n      0x20\n      add\n      0x00\n      keccak256\n        /* \"Dcoffer/DcoffMine.sol\":1549:1620  ScoreWithdrawn[msg.sender] = ScoreWithdrawn[msg.sender].add(dcf_amount) */\n      dup2\n      swap1\n      sstore\n      pop\n        /* \"Dcoffer/DcoffMine.sol\":1323:1626  {... */\n      pop\n      pop\n      pop\n        /* \"Dcoffer/DcoffMine.sol\":1294:1626  function FlashSwap()external {... */\n      jump\t// out\n        /* \"Dcoffer/DcoffMine.sol\":864:1069  function viewReward(address user)public view returns(uint256){... */\n    tag_16:\n        /* \"Dcoffer/DcoffMine.sol\":917:924  uint256 */\n      0x00\n        /* \"Dcoffer/DcoffMine.sol\":934:952  uint256 dcf_amount */\n      dup1\n        /* \"Dcoffer/DcoffMine.sol\":955:962  DCFmine */\n      0x00\n      dup1\n      sload\n      swap1\n      0x0100\n      exp\n      swap1\n      div\n      0xffffffffffffffffffffffffffffffffffffffff\n      and\n        /* \"Dcoffer/DcoffMine.sol\":955:973  DCFmine.MineStatus */\n      0xffffffffffffffffffffffffffffffffffffffff\n      and\n      0xb8ba6007\n        /* \"Dcoffer/DcoffMine.sol\":974:978  user */\n      dup5\n        /* \"Dcoffer/DcoffMine.sol\":955:979  DCFmine.MineStatus(user) */\n      mload(0x40)\n      dup3\n      0xffffffff\n      and\n      0xe0\n      shl\n      dup2\n      mstore\n      0x04\n      add\n      tag_51\n      swap2\n      swap1\n      tag_52\n      jump\t// in\n    tag_51:\n      0x20\n      mload(0x40)\n      dup1\n      dup4\n      sub\n      dup2\n      dup7\n      gas\n      staticcall\n      iszero\n      dup1\n      iszero\n      tag_54\n      jumpi\n      returndatasize\n      0x00\n      dup1\n      returndatacopy\n      revert(0x00, returndatasize)\n    tag_54:\n      pop\n      pop\n      pop\n      pop\n      mload(0x40)\n      returndatasize\n      not(0x1f)\n      0x1f\n      dup3\n      add\n      and\n      dup3\n      add\n      dup1\n      0x40\n      mstore\n      pop\n      dup2\n      add\n      swap1\n      tag_55\n      swap2\n      swap1\n      tag_56\n      jump\t// in\n    tag_55:\n        /* \"Dcoffer/DcoffMine.sol\":934:979  uint256 dcf_amount = DCFmine.MineStatus(user) */\n      swap1\n      pop\n        /* \"Dcoffer/DcoffMine.sol\":1001:1037  dcf_amount.sub(ScoreWithdrawn[user]) */\n      tag_57\n        /* \"Dcoffer/DcoffMine.sol\":1016:1030  ScoreWithdrawn */\n      0x06\n        /* \"Dcoffer/DcoffMine.sol\":1016:1036  ScoreWithdrawn[user] */\n      0x00\n        /* \"Dcoffer/DcoffMine.sol\":1031:1035  user */\n      dup6\n        /* \"Dcoffer/DcoffMine.sol\":1016:1036  ScoreWithdrawn[user] */\n      0xffffffffffffffffffffffffffffffffffffffff\n      and\n      0xffffffffffffffffffffffffffffffffffffffff\n      and\n      dup2\n      mstore\n      0x20\n      add\n      swap1\n      dup2\n      mstore\n      0x20\n      add\n      0x00\n      keccak256\n      sload\n        /* \"Dcoffer/DcoffMine.sol\":1001:1011  dcf_amount */\n      dup3\n        /* \"Dcoffer/DcoffMine.sol\":1001:1015  dcf_amount.sub */\n      tag_43\n      swap1\n        /* \"Dcoffer/DcoffMine.sol\":1001:1037  dcf_amount.sub(ScoreWithdrawn[user]) */\n      swap2\n      swap1\n      0xffffffff\n      and\n      jump\t// in\n    tag_57:\n        /* \"Dcoffer/DcoffMine.sol\":988:1037  dcf_amount = dcf_amount.sub(ScoreWithdrawn[user]) */\n      swap1\n      pop\n        /* \"Dcoffer/DcoffMine.sol\":1053:1063  dcf_amount */\n      dup1\n        /* \"Dcoffer/DcoffMine.sol\":1046:1063  return dcf_amount */\n      swap2\n      pop\n      pop\n        /* \"Dcoffer/DcoffMine.sol\":864:1069  function viewReward(address user)public view returns(uint256){... */\n      swap2\n      swap1\n      pop\n      jump\t// out\n        /* \"@openzeppelin/contracts/utils/math/SafeMath.sol\":2755:2851  function add(uint256 a, uint256 b) internal pure returns (uint256) {... */\n    tag_28:\n        /* \"@openzeppelin/contracts/utils/math/SafeMath.sol\":2813:2820  uint256 */\n      0x00\n        /* \"@openzeppelin/contracts/utils/math/SafeMath.sol\":2843:2844  b */\n      dup2\n        /* \"@openzeppelin/contracts/utils/math/SafeMath.sol\":2839:2840  a */\n      dup4\n        /* \"@openzeppelin/contracts/utils/math/SafeMath.sol\":2839:2844  a + b */\n      tag_59\n      swap2\n      swap1\n      tag_60\n      jump\t// in\n    tag_59:\n        /* \"@openzeppelin/contracts/utils/math/SafeMath.sol\":2832:2844  return a + b */\n      swap1\n      pop\n        /* \"@openzeppelin/contracts/utils/math/SafeMath.sol\":2755:2851  function add(uint256 a, uint256 b) internal pure returns (uint256) {... */\n      swap3\n      swap2\n      pop\n      pop\n      jump\t// out\n        /* \"@openzeppelin/contracts/utils/math/SafeMath.sol\":3465:3561  function mul(uint256 a, uint256 b) internal pure returns (uint256) {... */\n    tag_40:\n        /* \"@openzeppelin/contracts/utils/math/SafeMath.sol\":3523:3530  uint256 */\n      0x00\n        /* \"@openzeppelin/contracts/utils/math/SafeMath.sol\":3553:3554  b */\n      dup2\n        /* \"@openzeppelin/contracts/utils/math/SafeMath.sol\":3549:3550  a */\n      dup4\n        /* \"@openzeppelin/contracts/utils/math/SafeMath.sol\":3549:3554  a * b */\n      tag_62\n      swap2\n      swap1\n      tag_63\n      jump\t// in\n    tag_62:\n        /* \"@openzeppelin/contracts/utils/math/SafeMath.sol\":3542:3554  return a * b */\n      swap1\n      pop\n        /* \"@openzeppelin/contracts/utils/math/SafeMath.sol\":3465:3561  function mul(uint256 a, uint256 b) internal pure returns (uint256) {... */\n      swap3\n      swap2\n      pop\n      pop\n      jump\t// out\n        /* \"@openzeppelin/contracts/utils/math/SafeMath.sol\":3850:3946  function div(uint256 a, uint256 b) internal pure returns (uint256) {... */\n    tag_41:\n        /* \"@openzeppelin/contracts/utils/math/SafeMath.sol\":3908:3915  uint256 */\n      0x00\n        /* \"@openzeppelin/contracts/utils/math/SafeMath.sol\":3938:3939  b */\n      dup2\n        /* \"@openzeppelin/contracts/utils/math/SafeMath.sol\":3934:3935  a */\n      dup4\n        /* \"@openzeppelin/contracts/utils/math/SafeMath.sol\":3934:3939  a / b */\n      tag_65\n      swap2\n      swap1\n      tag_66\n      jump\t// in\n    tag_65:\n        /* \"@openzeppelin/contracts/utils/math/SafeMath.sol\":3927:3939  return a / b */\n      swap1\n      pop\n        /* \"@openzeppelin/contracts/utils/math/SafeMath.sol\":3850:3946  function div(uint256 a, uint256 b) internal pure returns (uint256) {... */\n      swap3\n      swap2\n      pop\n      pop\n      jump\t// out\n        /* \"@openzeppelin/contracts/utils/math/SafeMath.sol\":3122:3218  function sub(uint256 a, uint256 b) internal pure returns (uint256) {... */\n    tag_43:\n        /* \"@openzeppelin/contracts/utils/math/SafeMath.sol\":3180:3187  uint256 */\n      0x00\n        /* \"@openzeppelin/contracts/utils/math/SafeMath.sol\":3210:3211  b */\n      dup2\n        /* \"@openzeppelin/contracts/utils/math/SafeMath.sol\":3206:3207  a */\n      dup4\n        /* \"@openzeppelin/contracts/utils/math/SafeMath.sol\":3206:3211  a - b */\n      tag_68\n      swap2\n      swap1\n      tag_69\n      jump\t// in\n    tag_68:\n        /* \"@openzeppelin/contracts/utils/math/SafeMath.sol\":3199:3211  return a - b */\n      swap1\n      pop\n        /* \"@openzeppelin/contracts/utils/math/SafeMath.sol\":3122:3218  function sub(uint256 a, uint256 b) internal pure returns (uint256) {... */\n      swap3\n      swap2\n      pop\n      pop\n      jump\t// out\n        /* \"#utility.yul\":88:205   */\n    tag_71:\n        /* \"#utility.yul\":197:198   */\n      0x00\n        /* \"#utility.yul\":194:195   */\n      dup1\n        /* \"#utility.yul\":187:199   */\n      revert\n        /* \"#utility.yul\":334:460   */\n    tag_73:\n        /* \"#utility.yul\":371:378   */\n      0x00\n        /* \"#utility.yul\":411:453   */\n      0xffffffffffffffffffffffffffffffffffffffff\n        /* \"#utility.yul\":404:409   */\n      dup3\n        /* \"#utility.yul\":400:454   */\n      and\n        /* \"#utility.yul\":389:454   */\n      swap1\n      pop\n        /* \"#utility.yul\":334:460   */\n      swap2\n      swap1\n      pop\n      jump\t// out\n        /* \"#utility.yul\":466:562   */\n    tag_74:\n        /* \"#utility.yul\":503:510   */\n      0x00\n        /* \"#utility.yul\":532:556   */\n      tag_99\n        /* \"#utility.yul\":550:555   */\n      dup3\n        /* \"#utility.yul\":532:556   */\n      tag_73\n      jump\t// in\n    tag_99:\n        /* \"#utility.yul\":521:556   */\n      swap1\n      pop\n        /* \"#utility.yul\":466:562   */\n      swap2\n      swap1\n      pop\n      jump\t// out\n        /* \"#utility.yul\":568:690   */\n    tag_75:\n        /* \"#utility.yul\":641:665   */\n      tag_101\n        /* \"#utility.yul\":659:664   */\n      dup2\n        /* \"#utility.yul\":641:665   */\n      tag_74\n      jump\t// in\n    tag_101:\n        /* \"#utility.yul\":634:639   */\n      dup2\n        /* \"#utility.yul\":631:666   */\n      eq\n        /* \"#utility.yul\":621:684   */\n      tag_102\n      jumpi\n        /* \"#utility.yul\":680:681   */\n      0x00\n        /* \"#utility.yul\":677:678   */\n      dup1\n        /* \"#utility.yul\":670:682   */\n      revert\n        /* \"#utility.yul\":621:684   */\n    tag_102:\n        /* \"#utility.yul\":568:690   */\n      pop\n      jump\t// out\n        /* \"#utility.yul\":696:835   */\n    tag_76:\n        /* \"#utility.yul\":742:747   */\n      0x00\n        /* \"#utility.yul\":780:786   */\n      dup2\n        /* \"#utility.yul\":767:787   */\n      calldataload\n        /* \"#utility.yul\":758:787   */\n      swap1\n      pop\n        /* \"#utility.yul\":796:829   */\n      tag_104\n        /* \"#utility.yul\":823:828   */\n      dup2\n        /* \"#utility.yul\":796:829   */\n      tag_75\n      jump\t// in\n    tag_104:\n        /* \"#utility.yul\":696:835   */\n      swap3\n      swap2\n      pop\n      pop\n      jump\t// out\n        /* \"#utility.yul\":841:1170   */\n    tag_15:\n        /* \"#utility.yul\":900:906   */\n      0x00\n        /* \"#utility.yul\":949:951   */\n      0x20\n        /* \"#utility.yul\":937:946   */\n      dup3\n        /* \"#utility.yul\":928:935   */\n      dup5\n        /* \"#utility.yul\":924:947   */\n      sub\n        /* \"#utility.yul\":920:952   */\n      slt\n        /* \"#utility.yul\":917:1036   */\n      iszero\n      tag_106\n      jumpi\n        /* \"#utility.yul\":955:1034   */\n      tag_107\n      tag_71\n      jump\t// in\n    tag_107:\n        /* \"#utility.yul\":917:1036   */\n    tag_106:\n        /* \"#utility.yul\":1075:1076   */\n      0x00\n        /* \"#utility.yul\":1100:1153   */\n      tag_108\n        /* \"#utility.yul\":1145:1152   */\n      dup5\n        /* \"#utility.yul\":1136:1142   */\n      dup3\n        /* \"#utility.yul\":1125:1134   */\n      dup6\n        /* \"#utility.yul\":1121:1143   */\n      add\n        /* \"#utility.yul\":1100:1153   */\n      tag_76\n      jump\t// in\n    tag_108:\n        /* \"#utility.yul\":1090:1153   */\n      swap2\n      pop\n        /* \"#utility.yul\":1046:1163   */\n      pop\n        /* \"#utility.yul\":841:1170   */\n      swap3\n      swap2\n      pop\n      pop\n      jump\t// out\n        /* \"#utility.yul\":1176:1253   */\n    tag_77:\n        /* \"#utility.yul\":1213:1220   */\n      0x00\n        /* \"#utility.yul\":1242:1247   */\n      dup2\n        /* \"#utility.yul\":1231:1247   */\n      swap1\n      pop\n        /* \"#utility.yul\":1176:1253   */\n      swap2\n      swap1\n      pop\n      jump\t// out\n        /* \"#utility.yul\":1259:1377   */\n    tag_78:\n        /* \"#utility.yul\":1346:1370   */\n      tag_111\n        /* \"#utility.yul\":1364:1369   */\n      dup2\n        /* \"#utility.yul\":1346:1370   */\n      tag_77\n      jump\t// in\n    tag_111:\n        /* \"#utility.yul\":1341:1344   */\n      dup3\n        /* \"#utility.yul\":1334:1371   */\n      mstore\n        /* \"#utility.yul\":1259:1377   */\n      pop\n      pop\n      jump\t// out\n        /* \"#utility.yul\":1383:1605   */\n    tag_18:\n        /* \"#utility.yul\":1476:1480   */\n      0x00\n        /* \"#utility.yul\":1514:1516   */\n      0x20\n        /* \"#utility.yul\":1503:1512   */\n      dup3\n        /* \"#utility.yul\":1499:1517   */\n      add\n        /* \"#utility.yul\":1491:1517   */\n      swap1\n      pop\n        /* \"#utility.yul\":1527:1598   */\n      tag_113\n        /* \"#utility.yul\":1595:1596   */\n      0x00\n        /* \"#utility.yul\":1584:1593   */\n      dup4\n        /* \"#utility.yul\":1580:1597   */\n      add\n        /* \"#utility.yul\":1571:1577   */\n      dup5\n        /* \"#utility.yul\":1527:1598   */\n      tag_78\n      jump\t// in\n    tag_113:\n        /* \"#utility.yul\":1383:1605   */\n      swap3\n      swap2\n      pop\n      pop\n      jump\t// out\n        /* \"#utility.yul\":1611:1729   */\n    tag_79:\n        /* \"#utility.yul\":1698:1722   */\n      tag_115\n        /* \"#utility.yul\":1716:1721   */\n      dup2\n        /* \"#utility.yul\":1698:1722   */\n      tag_74\n      jump\t// in\n    tag_115:\n        /* \"#utility.yul\":1693:1696   */\n      dup3\n        /* \"#utility.yul\":1686:1723   */\n      mstore\n        /* \"#utility.yul\":1611:1729   */\n      pop\n      pop\n      jump\t// out\n        /* \"#utility.yul\":1735:2067   */\n    tag_22:\n        /* \"#utility.yul\":1856:1860   */\n      0x00\n        /* \"#utility.yul\":1894:1896   */\n      0x40\n        /* \"#utility.yul\":1883:1892   */\n      dup3\n        /* \"#utility.yul\":1879:1897   */\n      add\n        /* \"#utility.yul\":1871:1897   */\n      swap1\n      pop\n        /* \"#utility.yul\":1907:1978   */\n      tag_117\n        /* \"#utility.yul\":1975:1976   */\n      0x00\n        /* \"#utility.yul\":1964:1973   */\n      dup4\n        /* \"#utility.yul\":1960:1977   */\n      add\n        /* \"#utility.yul\":1951:1957   */\n      dup6\n        /* \"#utility.yul\":1907:1978   */\n      tag_79\n      jump\t// in\n    tag_117:\n        /* \"#utility.yul\":1988:2060   */\n      tag_118\n        /* \"#utility.yul\":2056:2058   */\n      0x20\n        /* \"#utility.yul\":2045:2054   */\n      dup4\n        /* \"#utility.yul\":2041:2059   */\n      add\n        /* \"#utility.yul\":2032:2038   */\n      dup5\n        /* \"#utility.yul\":1988:2060   */\n      tag_78\n      jump\t// in\n    tag_118:\n        /* \"#utility.yul\":1735:2067   */\n      swap4\n      swap3\n      pop\n      pop\n      pop\n      jump\t// out\n        /* \"#utility.yul\":2073:2163   */\n    tag_80:\n        /* \"#utility.yul\":2107:2114   */\n      0x00\n        /* \"#utility.yul\":2150:2155   */\n      dup2\n        /* \"#utility.yul\":2143:2156   */\n      iszero\n        /* \"#utility.yul\":2136:2157   */\n      iszero\n        /* \"#utility.yul\":2125:2157   */\n      swap1\n      pop\n        /* \"#utility.yul\":2073:2163   */\n      swap2\n      swap1\n      pop\n      jump\t// out\n        /* \"#utility.yul\":2169:2285   */\n    tag_81:\n        /* \"#utility.yul\":2239:2260   */\n      tag_121\n        /* \"#utility.yul\":2254:2259   */\n      dup2\n        /* \"#utility.yul\":2239:2260   */\n      tag_80\n      jump\t// in\n    tag_121:\n        /* \"#utility.yul\":2232:2237   */\n      dup2\n        /* \"#utility.yul\":2229:2261   */\n      eq\n        /* \"#utility.yul\":2219:2279   */\n      tag_122\n      jumpi\n        /* \"#utility.yul\":2275:2276   */\n      0x00\n        /* \"#utility.yul\":2272:2273   */\n      dup1\n        /* \"#utility.yul\":2265:2277   */\n      revert\n        /* \"#utility.yul\":2219:2279   */\n    tag_122:\n        /* \"#utility.yul\":2169:2285   */\n      pop\n      jump\t// out\n        /* \"#utility.yul\":2291:2428   */\n    tag_82:\n        /* \"#utility.yul\":2345:2350   */\n      0x00\n        /* \"#utility.yul\":2376:2382   */\n      dup2\n        /* \"#utility.yul\":2370:2383   */\n      mload\n        /* \"#utility.yul\":2361:2383   */\n      swap1\n      pop\n        /* \"#utility.yul\":2392:2422   */\n      tag_124\n        /* \"#utility.yul\":2416:2421   */\n      dup2\n        /* \"#utility.yul\":2392:2422   */\n      tag_81\n      jump\t// in\n    tag_124:\n        /* \"#utility.yul\":2291:2428   */\n      swap3\n      swap2\n      pop\n      pop\n      jump\t// out\n        /* \"#utility.yul\":2434:2779   */\n    tag_26:\n        /* \"#utility.yul\":2501:2507   */\n      0x00\n        /* \"#utility.yul\":2550:2552   */\n      0x20\n        /* \"#utility.yul\":2538:2547   */\n      dup3\n        /* \"#utility.yul\":2529:2536   */\n      dup5\n        /* \"#utility.yul\":2525:2548   */\n      sub\n        /* \"#utility.yul\":2521:2553   */\n      slt\n        /* \"#utility.yul\":2518:2637   */\n      iszero\n      tag_126\n      jumpi\n        /* \"#utility.yul\":2556:2635   */\n      tag_127\n      tag_71\n      jump\t// in\n    tag_127:\n        /* \"#utility.yul\":2518:2637   */\n    tag_126:\n        /* \"#utility.yul\":2676:2677   */\n      0x00\n        /* \"#utility.yul\":2701:2762   */\n      tag_128\n        /* \"#utility.yul\":2754:2761   */\n      dup5\n        /* \"#utility.yul\":2745:2751   */\n      dup3\n        /* \"#utility.yul\":2734:2743   */\n      dup6\n        /* \"#utility.yul\":2730:2752   */\n      add\n        /* \"#utility.yul\":2701:2762   */\n      tag_82\n      jump\t// in\n    tag_128:\n        /* \"#utility.yul\":2691:2762   */\n      swap2\n      pop\n        /* \"#utility.yul\":2647:2772   */\n      pop\n        /* \"#utility.yul\":2434:2779   */\n      swap3\n      swap2\n      pop\n      pop\n      jump\t// out\n        /* \"#utility.yul\":2785:2896   */\n    tag_83:\n        /* \"#utility.yul\":2856:2863   */\n      0x00\n        /* \"#utility.yul\":2885:2890   */\n      dup2\n        /* \"#utility.yul\":2874:2890   */\n      swap1\n      pop\n        /* \"#utility.yul\":2785:2896   */\n      swap2\n      swap1\n      pop\n      jump\t// out\n        /* \"#utility.yul\":2902:2962   */\n    tag_84:\n        /* \"#utility.yul\":2930:2933   */\n      0x00\n        /* \"#utility.yul\":2951:2956   */\n      dup2\n        /* \"#utility.yul\":2944:2956   */\n      swap1\n      pop\n        /* \"#utility.yul\":2902:2962   */\n      swap2\n      swap1\n      pop\n      jump\t// out\n        /* \"#utility.yul\":2968:3178   */\n    tag_85:\n        /* \"#utility.yul\":3052:3061   */\n      0x00\n        /* \"#utility.yul\":3085:3172   */\n      tag_132\n        /* \"#utility.yul\":3103:3171   */\n      tag_133\n        /* \"#utility.yul\":3112:3170   */\n      tag_134\n        /* \"#utility.yul\":3164:3169   */\n      dup5\n        /* \"#utility.yul\":3112:3170   */\n      tag_83\n      jump\t// in\n    tag_134:\n        /* \"#utility.yul\":3103:3171   */\n      tag_84\n      jump\t// in\n    tag_133:\n        /* \"#utility.yul\":3085:3172   */\n      tag_77\n      jump\t// in\n    tag_132:\n        /* \"#utility.yul\":3072:3172   */\n      swap1\n      pop\n        /* \"#utility.yul\":2968:3178   */\n      swap2\n      swap1\n      pop\n      jump\t// out\n        /* \"#utility.yul\":3184:3383   */\n    tag_86:\n        /* \"#utility.yul\":3305:3376   */\n      tag_136\n        /* \"#utility.yul\":3370:3375   */\n      dup2\n        /* \"#utility.yul\":3305:3376   */\n      tag_85\n      jump\t// in\n    tag_136:\n        /* \"#utility.yul\":3300:3303   */\n      dup3\n        /* \"#utility.yul\":3293:3377   */\n      mstore\n        /* \"#utility.yul\":3184:3383   */\n      pop\n      pop\n      jump\t// out\n        /* \"#utility.yul\":3389:3789   */\n    tag_32:\n        /* \"#utility.yul\":3544:3548   */\n      0x00\n        /* \"#utility.yul\":3582:3584   */\n      0x40\n        /* \"#utility.yul\":3571:3580   */\n      dup3\n        /* \"#utility.yul\":3567:3585   */\n      add\n        /* \"#utility.yul\":3559:3585   */\n      swap1\n      pop\n        /* \"#utility.yul\":3595:3666   */\n      tag_138\n        /* \"#utility.yul\":3663:3664   */\n      0x00\n        /* \"#utility.yul\":3652:3661   */\n      dup4\n        /* \"#utility.yul\":3648:3665   */\n      add\n        /* \"#utility.yul\":3639:3645   */\n      dup6\n        /* \"#utility.yul\":3595:3666   */\n      tag_79\n      jump\t// in\n    tag_138:\n        /* \"#utility.yul\":3676:3782   */\n      tag_139\n        /* \"#utility.yul\":3778:3780   */\n      0x20\n        /* \"#utility.yul\":3767:3776   */\n      dup4\n        /* \"#utility.yul\":3763:3781   */\n      add\n        /* \"#utility.yul\":3754:3760   */\n      dup5\n        /* \"#utility.yul\":3676:3782   */\n      tag_86\n      jump\t// in\n    tag_139:\n        /* \"#utility.yul\":3389:3789   */\n      swap4\n      swap3\n      pop\n      pop\n      pop\n      jump\t// out\n        /* \"#utility.yul\":3795:3899   */\n    tag_87:\n        /* \"#utility.yul\":3840:3847   */\n      0x00\n        /* \"#utility.yul\":3869:3893   */\n      tag_141\n        /* \"#utility.yul\":3887:3892   */\n      dup3\n        /* \"#utility.yul\":3869:3893   */\n      tag_73\n      jump\t// in\n    tag_141:\n        /* \"#utility.yul\":3858:3893   */\n      swap1\n      pop\n        /* \"#utility.yul\":3795:3899   */\n      swap2\n      swap1\n      pop\n      jump\t// out\n        /* \"#utility.yul\":3905:4047   */\n    tag_88:\n        /* \"#utility.yul\":4008:4040   */\n      tag_143\n        /* \"#utility.yul\":4034:4039   */\n      dup2\n        /* \"#utility.yul\":4008:4040   */\n      tag_87\n      jump\t// in\n    tag_143:\n        /* \"#utility.yul\":4003:4006   */\n      dup3\n        /* \"#utility.yul\":3996:4041   */\n      mstore\n        /* \"#utility.yul\":3905:4047   */\n      pop\n      pop\n      jump\t// out\n        /* \"#utility.yul\":4053:4417   */\n    tag_45:\n        /* \"#utility.yul\":4190:4194   */\n      0x00\n        /* \"#utility.yul\":4228:4230   */\n      0x40\n        /* \"#utility.yul\":4217:4226   */\n      dup3\n        /* \"#utility.yul\":4213:4231   */\n      add\n        /* \"#utility.yul\":4205:4231   */\n      swap1\n      pop\n        /* \"#utility.yul\":4241:4328   */\n      tag_145\n        /* \"#utility.yul\":4325:4326   */\n      0x00\n        /* \"#utility.yul\":4314:4323   */\n      dup4\n        /* \"#utility.yul\":4310:4327   */\n      add\n        /* \"#utility.yul\":4301:4307   */\n      dup6\n        /* \"#utility.yul\":4241:4328   */\n      tag_88\n      jump\t// in\n    tag_145:\n        /* \"#utility.yul\":4338:4410   */\n      tag_146\n        /* \"#utility.yul\":4406:4408   */\n      0x20\n        /* \"#utility.yul\":4395:4404   */\n      dup4\n        /* \"#utility.yul\":4391:4409   */\n      add\n        /* \"#utility.yul\":4382:4388   */\n      dup5\n        /* \"#utility.yul\":4338:4410   */\n      tag_78\n      jump\t// in\n    tag_146:\n        /* \"#utility.yul\":4053:4417   */\n      swap4\n      swap3\n      pop\n      pop\n      pop\n      jump\t// out\n        /* \"#utility.yul\":4423:4645   */\n    tag_52:\n        /* \"#utility.yul\":4516:4520   */\n      0x00\n        /* \"#utility.yul\":4554:4556   */\n      0x20\n        /* \"#utility.yul\":4543:4552   */\n      dup3\n        /* \"#utility.yul\":4539:4557   */\n      add\n        /* \"#utility.yul\":4531:4557   */\n      swap1\n      pop\n        /* \"#utility.yul\":4567:4638   */\n      tag_148\n        /* \"#utility.yul\":4635:4636   */\n      0x00\n        /* \"#utility.yul\":4624:4633   */\n      dup4\n        /* \"#utility.yul\":4620:4637   */\n      add\n        /* \"#utility.yul\":4611:4617   */\n      dup5\n        /* \"#utility.yul\":4567:4638   */\n      tag_79\n      jump\t// in\n    tag_148:\n        /* \"#utility.yul\":4423:4645   */\n      swap3\n      swap2\n      pop\n      pop\n      jump\t// out\n        /* \"#utility.yul\":4651:4773   */\n    tag_89:\n        /* \"#utility.yul\":4724:4748   */\n      tag_150\n        /* \"#utility.yul\":4742:4747   */\n      dup2\n        /* \"#utility.yul\":4724:4748   */\n      tag_77\n      jump\t// in\n    tag_150:\n        /* \"#utility.yul\":4717:4722   */\n      dup2\n        /* \"#utility.yul\":4714:4749   */\n      eq\n        /* \"#utility.yul\":4704:4767   */\n      tag_151\n      jumpi\n        /* \"#utility.yul\":4763:4764   */\n      0x00\n        /* \"#utility.yul\":4760:4761   */\n      dup1\n        /* \"#utility.yul\":4753:4765   */\n      revert\n        /* \"#utility.yul\":4704:4767   */\n    tag_151:\n        /* \"#utility.yul\":4651:4773   */\n      pop\n      jump\t// out\n        /* \"#utility.yul\":4779:4922   */\n    tag_90:\n        /* \"#utility.yul\":4836:4841   */\n      0x00\n        /* \"#utility.yul\":4867:4873   */\n      dup2\n        /* \"#utility.yul\":4861:4874   */\n      mload\n        /* \"#utility.yul\":4852:4874   */\n      swap1\n      pop\n        /* \"#utility.yul\":4883:4916   */\n      tag_153\n        /* \"#utility.yul\":4910:4915   */\n      dup2\n        /* \"#utility.yul\":4883:4916   */\n      tag_89\n      jump\t// in\n    tag_153:\n        /* \"#utility.yul\":4779:4922   */\n      swap3\n      swap2\n      pop\n      pop\n      jump\t// out\n        /* \"#utility.yul\":4928:5279   */\n    tag_56:\n        /* \"#utility.yul\":4998:5004   */\n      0x00\n        /* \"#utility.yul\":5047:5049   */\n      0x20\n        /* \"#utility.yul\":5035:5044   */\n      dup3\n        /* \"#utility.yul\":5026:5033   */\n      dup5\n        /* \"#utility.yul\":5022:5045   */\n      sub\n        /* \"#utility.yul\":5018:5050   */\n      slt\n        /* \"#utility.yul\":5015:5134   */\n      iszero\n      tag_155\n      jumpi\n        /* \"#utility.yul\":5053:5132   */\n      tag_156\n      tag_71\n      jump\t// in\n    tag_156:\n        /* \"#utility.yul\":5015:5134   */\n    tag_155:\n        /* \"#utility.yul\":5173:5174   */\n      0x00\n        /* \"#utility.yul\":5198:5262   */\n      tag_157\n        /* \"#utility.yul\":5254:5261   */\n      dup5\n        /* \"#utility.yul\":5245:5251   */\n      dup3\n        /* \"#utility.yul\":5234:5243   */\n      dup6\n        /* \"#utility.yul\":5230:5252   */\n      add\n        /* \"#utility.yul\":5198:5262   */\n      tag_90\n      jump\t// in\n    tag_157:\n        /* \"#utility.yul\":5188:5262   */\n      swap2\n      pop\n        /* \"#utility.yul\":5144:5272   */\n      pop\n        /* \"#utility.yul\":4928:5279   */\n      swap3\n      swap2\n      pop\n      pop\n      jump\t// out\n        /* \"#utility.yul\":5285:5465   */\n    tag_91:\n        /* \"#utility.yul\":5333:5410   */\n      0x4e487b7100000000000000000000000000000000000000000000000000000000\n        /* \"#utility.yul\":5330:5331   */\n      0x00\n        /* \"#utility.yul\":5323:5411   */\n      mstore\n        /* \"#utility.yul\":5430:5434   */\n      0x11\n        /* \"#utility.yul\":5427:5428   */\n      0x04\n        /* \"#utility.yul\":5420:5435   */\n      mstore\n        /* \"#utility.yul\":5454:5458   */\n      0x24\n        /* \"#utility.yul\":5451:5452   */\n      0x00\n        /* \"#utility.yul\":5444:5459   */\n      revert\n        /* \"#utility.yul\":5471:5662   */\n    tag_60:\n        /* \"#utility.yul\":5511:5514   */\n      0x00\n        /* \"#utility.yul\":5530:5550   */\n      tag_160\n        /* \"#utility.yul\":5548:5549   */\n      dup3\n        /* \"#utility.yul\":5530:5550   */\n      tag_77\n      jump\t// in\n    tag_160:\n        /* \"#utility.yul\":5525:5550   */\n      swap2\n      pop\n        /* \"#utility.yul\":5564:5584   */\n      tag_161\n        /* \"#utility.yul\":5582:5583   */\n      dup4\n        /* \"#utility.yul\":5564:5584   */\n      tag_77\n      jump\t// in\n    tag_161:\n        /* \"#utility.yul\":5559:5584   */\n      swap3\n      pop\n        /* \"#utility.yul\":5607:5608   */\n      dup3\n        /* \"#utility.yul\":5604:5605   */\n      dup3\n        /* \"#utility.yul\":5600:5609   */\n      add\n        /* \"#utility.yul\":5593:5609   */\n      swap1\n      pop\n        /* \"#utility.yul\":5628:5631   */\n      dup1\n        /* \"#utility.yul\":5625:5626   */\n      dup3\n        /* \"#utility.yul\":5622:5632   */\n      gt\n        /* \"#utility.yul\":5619:5655   */\n      iszero\n      tag_162\n      jumpi\n        /* \"#utility.yul\":5635:5653   */\n      tag_163\n      tag_91\n      jump\t// in\n    tag_163:\n        /* \"#utility.yul\":5619:5655   */\n    tag_162:\n        /* \"#utility.yul\":5471:5662   */\n      swap3\n      swap2\n      pop\n      pop\n      jump\t// out\n        /* \"#utility.yul\":5668:6078   */\n    tag_63:\n        /* \"#utility.yul\":5708:5715   */\n      0x00\n        /* \"#utility.yul\":5731:5751   */\n      tag_165\n        /* \"#utility.yul\":5749:5750   */\n      dup3\n        /* \"#utility.yul\":5731:5751   */\n      tag_77\n      jump\t// in\n    tag_165:\n        /* \"#utility.yul\":5726:5751   */\n      swap2\n      pop\n        /* \"#utility.yul\":5765:5785   */\n      tag_166\n        /* \"#utility.yul\":5783:5784   */\n      dup4\n        /* \"#utility.yul\":5765:5785   */\n      tag_77\n      jump\t// in\n    tag_166:\n        /* \"#utility.yul\":5760:5785   */\n      swap3\n      pop\n        /* \"#utility.yul\":5820:5821   */\n      dup3\n        /* \"#utility.yul\":5817:5818   */\n      dup3\n        /* \"#utility.yul\":5813:5822   */\n      mul\n        /* \"#utility.yul\":5842:5872   */\n      tag_167\n        /* \"#utility.yul\":5860:5871   */\n      dup2\n        /* \"#utility.yul\":5842:5872   */\n      tag_77\n      jump\t// in\n    tag_167:\n        /* \"#utility.yul\":5831:5872   */\n      swap2\n      pop\n        /* \"#utility.yul\":6021:6022   */\n      dup3\n        /* \"#utility.yul\":6012:6019   */\n      dup3\n        /* \"#utility.yul\":6008:6023   */\n      div\n        /* \"#utility.yul\":6005:6006   */\n      dup5\n        /* \"#utility.yul\":6002:6024   */\n      eq\n        /* \"#utility.yul\":5982:5983   */\n      dup4\n        /* \"#utility.yul\":5975:5984   */\n      iszero\n        /* \"#utility.yul\":5955:6038   */\n      or\n        /* \"#utility.yul\":5932:6071   */\n      tag_168\n      jumpi\n        /* \"#utility.yul\":6051:6069   */\n      tag_169\n      tag_91\n      jump\t// in\n    tag_169:\n        /* \"#utility.yul\":5932:6071   */\n    tag_168:\n        /* \"#utility.yul\":5716:6078   */\n      pop\n        /* \"#utility.yul\":5668:6078   */\n      swap3\n      swap2\n      pop\n      pop\n      jump\t// out\n        /* \"#utility.yul\":6084:6264   */\n    tag_92:\n        /* \"#utility.yul\":6132:6209   */\n      0x4e487b7100000000000000000000000000000000000000000000000000000000\n        /* \"#utility.yul\":6129:6130   */\n      0x00\n        /* \"#utility.yul\":6122:6210   */\n      mstore\n        /* \"#utility.yul\":6229:6233   */\n      0x12\n        /* \"#utility.yul\":6226:6227   */\n      0x04\n        /* \"#utility.yul\":6219:6234   */\n      mstore\n        /* \"#utility.yul\":6253:6257   */\n      0x24\n        /* \"#utility.yul\":6250:6251   */\n      0x00\n        /* \"#utility.yul\":6243:6258   */\n      revert\n        /* \"#utility.yul\":6270:6455   */\n    tag_66:\n        /* \"#utility.yul\":6310:6311   */\n      0x00\n        /* \"#utility.yul\":6327:6347   */\n      tag_172\n        /* \"#utility.yul\":6345:6346   */\n      dup3\n        /* \"#utility.yul\":6327:6347   */\n      tag_77\n      jump\t// in\n    tag_172:\n        /* \"#utility.yul\":6322:6347   */\n      swap2\n      pop\n        /* \"#utility.yul\":6361:6381   */\n      tag_173\n        /* \"#utility.yul\":6379:6380   */\n      dup4\n        /* \"#utility.yul\":6361:6381   */\n      tag_77\n      jump\t// in\n    tag_173:\n        /* \"#utility.yul\":6356:6381   */\n      swap3\n      pop\n        /* \"#utility.yul\":6400:6401   */\n      dup3\n        /* \"#utility.yul\":6390:6425   */\n      tag_174\n      jumpi\n        /* \"#utility.yul\":6405:6423   */\n      tag_175\n      tag_92\n      jump\t// in\n    tag_175:\n        /* \"#utility.yul\":6390:6425   */\n    tag_174:\n        /* \"#utility.yul\":6447:6448   */\n      dup3\n        /* \"#utility.yul\":6444:6445   */\n      dup3\n        /* \"#utility.yul\":6440:6449   */\n      div\n        /* \"#utility.yul\":6435:6449   */\n      swap1\n      pop\n        /* \"#utility.yul\":6270:6455   */\n      swap3\n      swap2\n      pop\n      pop\n      jump\t// out\n        /* \"#utility.yul\":6461:6655   */\n    tag_69:\n        /* \"#utility.yul\":6501:6505   */\n      0x00\n        /* \"#utility.yul\":6521:6541   */\n      tag_177\n        /* \"#utility.yul\":6539:6540   */\n      dup3\n        /* \"#utility.yul\":6521:6541   */\n      tag_77\n      jump\t// in\n    tag_177:\n        /* \"#utility.yul\":6516:6541   */\n      swap2\n      pop\n        /* \"#utility.yul\":6555:6575   */\n      tag_178\n        /* \"#utility.yul\":6573:6574   */\n      dup4\n        /* \"#utility.yul\":6555:6575   */\n      tag_77\n      jump\t// in\n    tag_178:\n        /* \"#utility.yul\":6550:6575   */\n      swap3\n      pop\n        /* \"#utility.yul\":6599:6600   */\n      dup3\n        /* \"#utility.yul\":6596:6597   */\n      dup3\n        /* \"#utility.yul\":6592:6601   */\n      sub\n        /* \"#utility.yul\":6584:6601   */\n      swap1\n      pop\n        /* \"#utility.yul\":6623:6624   */\n      dup2\n        /* \"#utility.yul\":6617:6621   */\n      dup2\n        /* \"#utility.yul\":6614:6625   */\n      gt\n        /* \"#utility.yul\":6611:6648   */\n      iszero\n      tag_179\n      jumpi\n        /* \"#utility.yul\":6628:6646   */\n      tag_180\n      tag_91\n      jump\t// in\n    tag_180:\n        /* \"#utility.yul\":6611:6648   */\n    tag_179:\n        /* \"#utility.yul\":6461:6655   */\n      swap3\n      swap2\n      pop\n      pop\n      jump\t// out\n\n    auxdata: 0xa2646970667358221220ff62bf82a47c8067931fe62262a8b63d93f554631b1fbd7f808e7a65739da70e64736f6c63430008110033\n}\n",
				"bytecode": {
					"linkReferences": {},
					"object": "6080604052731d2b7602b5f2f939f88fefb886e21948b13ede786000806101000a81548173ffffffffffffffffffffffffffffffffffffffff021916908373ffffffffffffffffffffffffffffffffffffffff160217905550734320d4a0a469a93c916d2ba1351cb403e0d1a7c7600160006101000a81548173ffffffffffffffffffffffffffffffffffffffff021916908373ffffffffffffffffffffffffffffffffffffffff16021790555073cab0385bee4b0dd78428b744d3f47130eb220edd600260006101000a81548173ffffffffffffffffffffffffffffffffffffffff021916908373ffffffffffffffffffffffffffffffffffffffff16021790555034801561010e57600080fd5b50604051610c81380380610c8183398181016040528101906101309190610259565b33600360006101000a81548173ffffffffffffffffffffffffffffffffffffffff021916908373ffffffffffffffffffffffffffffffffffffffff16021790555081600460006101000a81548173ffffffffffffffffffffffffffffffffffffffff021916908373ffffffffffffffffffffffffffffffffffffffff160217905550806005819055505050610299565b600080fd5b600073ffffffffffffffffffffffffffffffffffffffff82169050919050565b60006101f0826101c5565b9050919050565b610200816101e5565b811461020b57600080fd5b50565b60008151905061021d816101f7565b92915050565b6000819050919050565b61023681610223565b811461024157600080fd5b50565b6000815190506102538161022d565b92915050565b600080604083850312156102705761026f6101c0565b5b600061027e8582860161020e565b925050602061028f85828601610244565b9150509250929050565b6109d9806102a86000396000f3fe608060405234801561001057600080fd5b506004361061004c5760003560e01c80633158952e146100515780639acc1b731461005b578063b3a2630714610065578063d0eede671461006f575b600080fd5b61005961009f565b005b6100636101e5565b005b61006d61030f565b005b61008960048036038101906100849190610640565b610489565b6040516100969190610686565b60405180910390f35b60006100aa33610489565b9050600160009054906101000a900473ffffffffffffffffffffffffffffffffffffffff1673ffffffffffffffffffffffffffffffffffffffff1663a9059cbb33836040518363ffffffff1660e01b81526004016101099291906106b0565b6020604051808303816000875af1158015610128573d6000803e3d6000fd5b505050506040513d601f19601f8201168201806040525081019061014c9190610711565b5061019f81600660003373ffffffffffffffffffffffffffffffffffffffff1673ffffffffffffffffffffffffffffffffffffffff1681526020019081526020016000205461058590919063ffffffff16565b600660003373ffffffffffffffffffffffffffffffffffffffff1673ffffffffffffffffffffffffffffffffffffffff1681526020019081526020016000208190555050565b600360009054906101000a900473ffffffffffffffffffffffffffffffffffffffff1673ffffffffffffffffffffffffffffffffffffffff163373ffffffffffffffffffffffffffffffffffffffff161461023f57600080fd5b600160009054906101000a900473ffffffffffffffffffffffffffffffffffffffff1673ffffffffffffffffffffffffffffffffffffffff1663095ea7b3600460009054906101000a900473ffffffffffffffffffffffffffffffffffffffff166a52b7d2dcc80cd2e40000006040518363ffffffff1660e01b81526004016102c9929190610783565b6020604051808303816000875af11580156102e8573d6000803e3d6000fd5b505050506040513d601f19601f8201168201806040525081019061030c9190610711565b50565b600061031a33610489565b905060006103476103e86103396005548561059b90919063ffffffff16565b6105b190919063ffffffff16565b9050600061035e82846105c790919063ffffffff16565b9050600260009054906101000a900473ffffffffffffffffffffffffffffffffffffffff1673ffffffffffffffffffffffffffffffffffffffff166394756aa733836040518363ffffffff1660e01b81526004016103bd9291906107cd565b600060405180830381600087803b1580156103d757600080fd5b505af11580156103eb573d6000803e3d6000fd5b5050505061044183600660003373ffffffffffffffffffffffffffffffffffffffff1673ffffffffffffffffffffffffffffffffffffffff1681526020019081526020016000205461058590919063ffffffff16565b600660003373ffffffffffffffffffffffffffffffffffffffff1673ffffffffffffffffffffffffffffffffffffffff16815260200190815260200160002081905550505050565b60008060008054906101000a900473ffffffffffffffffffffffffffffffffffffffff1673ffffffffffffffffffffffffffffffffffffffff1663b8ba6007846040518263ffffffff1660e01b81526004016104e591906107f6565b602060405180830381865afa158015610502573d6000803e3d6000fd5b505050506040513d601f19601f82011682018060405250810190610526919061083d565b905061057a600660008573ffffffffffffffffffffffffffffffffffffffff1673ffffffffffffffffffffffffffffffffffffffff16815260200190815260200160002054826105c790919063ffffffff16565b905080915050919050565b600081836105939190610899565b905092915050565b600081836105a991906108cd565b905092915050565b600081836105bf919061093e565b905092915050565b600081836105d5919061096f565b905092915050565b600080fd5b600073ffffffffffffffffffffffffffffffffffffffff82169050919050565b600061060d826105e2565b9050919050565b61061d81610602565b811461062857600080fd5b50565b60008135905061063a81610614565b92915050565b600060208284031215610656576106556105dd565b5b60006106648482850161062b565b91505092915050565b6000819050919050565b6106808161066d565b82525050565b600060208201905061069b6000830184610677565b92915050565b6106aa81610602565b82525050565b60006040820190506106c560008301856106a1565b6106d26020830184610677565b9392505050565b60008115159050919050565b6106ee816106d9565b81146106f957600080fd5b50565b60008151905061070b816106e5565b92915050565b600060208284031215610727576107266105dd565b5b6000610735848285016106fc565b91505092915050565b6000819050919050565b6000819050919050565b600061076d6107686107638461073e565b610748565b61066d565b9050919050565b61077d81610752565b82525050565b600060408201905061079860008301856106a1565b6107a56020830184610774565b9392505050565b60006107b7826105e2565b9050919050565b6107c7816107ac565b82525050565b60006040820190506107e260008301856107be565b6107ef6020830184610677565b9392505050565b600060208201905061080b60008301846106a1565b92915050565b61081a8161066d565b811461082557600080fd5b50565b60008151905061083781610811565b92915050565b600060208284031215610853576108526105dd565b5b600061086184828501610828565b91505092915050565b7f4e487b7100000000000000000000000000000000000000000000000000000000600052601160045260246000fd5b60006108a48261066d565b91506108af8361066d565b92508282019050808211156108c7576108c661086a565b5b92915050565b60006108d88261066d565b91506108e38361066d565b92508282026108f18161066d565b915082820484148315176109085761090761086a565b5b5092915050565b7f4e487b7100000000000000000000000000000000000000000000000000000000600052601260045260246000fd5b60006109498261066d565b91506109548361066d565b9250826109645761096361090f565b5b828204905092915050565b600061097a8261066d565b91506109858361066d565b925082820390508181111561099d5761099c61086a565b5b9291505056fea2646970667358221220ff62bf82a47c8067931fe62262a8b63d93f554631b1fbd7f808e7a65739da70e64736f6c63430008110033",
					"opcodes": "PUSH1 0x80 PUSH1 0x40 MSTORE PUSH20 0x1D2B7602B5F2F939F88FEFB886E21948B13EDE78 PUSH1 0x0 DUP1 PUSH2 0x100 EXP DUP2 SLOAD DUP2 PUSH20 0xFFFFFFFFFFFFFFFFFFFFFFFFFFFFFFFFFFFFFFFF MUL NOT AND SWAP1 DUP4 PUSH20 0xFFFFFFFFFFFFFFFFFFFFFFFFFFFFFFFFFFFFFFFF AND MUL OR SWAP1 SSTORE POP PUSH20 0x4320D4A0A469A93C916D2BA1351CB403E0D1A7C7 PUSH1 0x1 PUSH1 0x0 PUSH2 0x100 EXP DUP2 SLOAD DUP2 PUSH20 0xFFFFFFFFFFFFFFFFFFFFFFFFFFFFFFFFFFFFFFFF MUL NOT AND SWAP1 DUP4 PUSH20 0xFFFFFFFFFFFFFFFFFFFFFFFFFFFFFFFFFFFFFFFF AND MUL OR SWAP1 SSTORE POP PUSH20 0xCAB0385BEE4B0DD78428B744D3F47130EB220EDD PUSH1 0x2 PUSH1 0x0 PUSH2 0x100 EXP DUP2 SLOAD DUP2 PUSH20 0xFFFFFFFFFFFFFFFFFFFFFFFFFFFFFFFFFFFFFFFF MUL NOT AND SWAP1 DUP4 PUSH20 0xFFFFFFFFFFFFFFFFFFFFFFFFFFFFFFFFFFFFFFFF AND MUL OR SWAP1 SSTORE POP CALLVALUE DUP1 ISZERO PUSH2 0x10E JUMPI PUSH1 0x0 DUP1 REVERT JUMPDEST POP PUSH1 0x40 MLOAD PUSH2 0xC81 CODESIZE SUB DUP1 PUSH2 0xC81 DUP4 CODECOPY DUP2 DUP2 ADD PUSH1 0x40 MSTORE DUP2 ADD SWAP1 PUSH2 0x130 SWAP2 SWAP1 PUSH2 0x259 JUMP JUMPDEST CALLER PUSH1 0x3 PUSH1 0x0 PUSH2 0x100 EXP DUP2 SLOAD DUP2 PUSH20 0xFFFFFFFFFFFFFFFFFFFFFFFFFFFFFFFFFFFFFFFF MUL NOT AND SWAP1 DUP4 PUSH20 0xFFFFFFFFFFFFFFFFFFFFFFFFFFFFFFFFFFFFFFFF AND MUL OR SWAP1 SSTORE POP DUP2 PUSH1 0x4 PUSH1 0x0 PUSH2 0x100 EXP DUP2 SLOAD DUP2 PUSH20 0xFFFFFFFFFFFFFFFFFFFFFFFFFFFFFFFFFFFFFFFF MUL NOT AND SWAP1 DUP4 PUSH20 0xFFFFFFFFFFFFFFFFFFFFFFFFFFFFFFFFFFFFFFFF AND MUL OR SWAP1 SSTORE POP DUP1 PUSH1 0x5 DUP2 SWAP1 SSTORE POP POP POP PUSH2 0x299 JUMP JUMPDEST PUSH1 0x0 DUP1 REVERT JUMPDEST PUSH1 0x0 PUSH20 0xFFFFFFFFFFFFFFFFFFFFFFFFFFFFFFFFFFFFFFFF DUP3 AND SWAP1 POP SWAP2 SWAP1 POP JUMP JUMPDEST PUSH1 0x0 PUSH2 0x1F0 DUP3 PUSH2 0x1C5 JUMP JUMPDEST SWAP1 POP SWAP2 SWAP1 POP JUMP JUMPDEST PUSH2 0x200 DUP2 PUSH2 0x1E5 JUMP JUMPDEST DUP2 EQ PUSH2 0x20B JUMPI PUSH1 0x0 DUP1 REVERT JUMPDEST POP JUMP JUMPDEST PUSH1 0x0 DUP2 MLOAD SWAP1 POP PUSH2 0x21D DUP2 PUSH2 0x1F7 JUMP JUMPDEST SWAP3 SWAP2 POP POP JUMP JUMPDEST PUSH1 0x0 DUP2 SWAP1 POP SWAP2 SWAP1 POP JUMP JUMPDEST PUSH2 0x236 DUP2 PUSH2 0x223 JUMP JUMPDEST DUP2 EQ PUSH2 0x241 JUMPI PUSH1 0x0 DUP1 REVERT JUMPDEST POP JUMP JUMPDEST PUSH1 0x0 DUP2 MLOAD SWAP1 POP PUSH2 0x253 DUP2 PUSH2 0x22D JUMP JUMPDEST SWAP3 SWAP2 POP POP JUMP JUMPDEST PUSH1 0x0 DUP1 PUSH1 0x40 DUP4 DUP6 SUB SLT ISZERO PUSH2 0x270 JUMPI PUSH2 0x26F PUSH2 0x1C0 JUMP JUMPDEST JUMPDEST PUSH1 0x0 PUSH2 0x27E DUP6 DUP3 DUP7 ADD PUSH2 0x20E JUMP JUMPDEST SWAP3 POP POP PUSH1 0x20 PUSH2 0x28F DUP6 DUP3 DUP7 ADD PUSH2 0x244 JUMP JUMPDEST SWAP2 POP POP SWAP3 POP SWAP3 SWAP1 POP JUMP JUMPDEST PUSH2 0x9D9 DUP1 PUSH2 0x2A8 PUSH1 0x0 CODECOPY PUSH1 0x0 RETURN INVALID PUSH1 0x80 PUSH1 0x40 MSTORE CALLVALUE DUP1 ISZERO PUSH2 0x10 JUMPI PUSH1 0x0 DUP1 REVERT JUMPDEST POP PUSH1 0x4 CALLDATASIZE LT PUSH2 0x4C JUMPI PUSH1 0x0 CALLDATALOAD PUSH1 0xE0 SHR DUP1 PUSH4 0x3158952E EQ PUSH2 0x51 JUMPI DUP1 PUSH4 0x9ACC1B73 EQ PUSH2 0x5B JUMPI DUP1 PUSH4 0xB3A26307 EQ PUSH2 0x65 JUMPI DUP1 PUSH4 0xD0EEDE67 EQ PUSH2 0x6F JUMPI JUMPDEST PUSH1 0x0 DUP1 REVERT JUMPDEST PUSH2 0x59 PUSH2 0x9F JUMP JUMPDEST STOP JUMPDEST PUSH2 0x63 PUSH2 0x1E5 JUMP JUMPDEST STOP JUMPDEST PUSH2 0x6D PUSH2 0x30F JUMP JUMPDEST STOP JUMPDEST PUSH2 0x89 PUSH1 0x4 DUP1 CALLDATASIZE SUB DUP2 ADD SWAP1 PUSH2 0x84 SWAP2 SWAP1 PUSH2 0x640 JUMP JUMPDEST PUSH2 0x489 JUMP JUMPDEST PUSH1 0x40 MLOAD PUSH2 0x96 SWAP2 SWAP1 PUSH2 0x686 JUMP JUMPDEST PUSH1 0x40 MLOAD DUP1 SWAP2 SUB SWAP1 RETURN JUMPDEST PUSH1 0x0 PUSH2 0xAA CALLER PUSH2 0x489 JUMP JUMPDEST SWAP1 POP PUSH1 0x1 PUSH1 0x0 SWAP1 SLOAD SWAP1 PUSH2 0x100 EXP SWAP1 DIV PUSH20 0xFFFFFFFFFFFFFFFFFFFFFFFFFFFFFFFFFFFFFFFF AND PUSH20 0xFFFFFFFFFFFFFFFFFFFFFFFFFFFFFFFFFFFFFFFF AND PUSH4 0xA9059CBB CALLER DUP4 PUSH1 0x40 MLOAD DUP4 PUSH4 0xFFFFFFFF AND PUSH1 0xE0 SHL DUP2 MSTORE PUSH1 0x4 ADD PUSH2 0x109 SWAP3 SWAP2 SWAP1 PUSH2 0x6B0 JUMP JUMPDEST PUSH1 0x20 PUSH1 0x40 MLOAD DUP1 DUP4 SUB DUP2 PUSH1 0x0 DUP8 GAS CALL ISZERO DUP1 ISZERO PUSH2 0x128 JUMPI RETURNDATASIZE PUSH1 0x0 DUP1 RETURNDATACOPY RETURNDATASIZE PUSH1 0x0 REVERT JUMPDEST POP POP POP POP PUSH1 0x40 MLOAD RETURNDATASIZE PUSH1 0x1F NOT PUSH1 0x1F DUP3 ADD AND DUP3 ADD DUP1 PUSH1 0x40 MSTORE POP DUP2 ADD SWAP1 PUSH2 0x14C SWAP2 SWAP1 PUSH2 0x711 JUMP JUMPDEST POP PUSH2 0x19F DUP2 PUSH1 0x6 PUSH1 0x0 CALLER PUSH20 0xFFFFFFFFFFFFFFFFFFFFFFFFFFFFFFFFFFFFFFFF AND PUSH20 0xFFFFFFFFFFFFFFFFFFFFFFFFFFFFFFFFFFFFFFFF AND DUP2 MSTORE PUSH1 0x20 ADD SWAP1 DUP2 MSTORE PUSH1 0x20 ADD PUSH1 0x0 KECCAK256 SLOAD PUSH2 0x585 SWAP1 SWAP2 SWAP1 PUSH4 0xFFFFFFFF AND JUMP JUMPDEST PUSH1 0x6 PUSH1 0x0 CALLER PUSH20 0xFFFFFFFFFFFFFFFFFFFFFFFFFFFFFFFFFFFFFFFF AND PUSH20 0xFFFFFFFFFFFFFFFFFFFFFFFFFFFFFFFFFFFFFFFF AND DUP2 MSTORE PUSH1 0x20 ADD SWAP1 DUP2 MSTORE PUSH1 0x20 ADD PUSH1 0x0 KECCAK256 DUP2 SWAP1 SSTORE POP POP JUMP JUMPDEST PUSH1 0x3 PUSH1 0x0 SWAP1 SLOAD SWAP1 PUSH2 0x100 EXP SWAP1 DIV PUSH20 0xFFFFFFFFFFFFFFFFFFFFFFFFFFFFFFFFFFFFFFFF AND PUSH20 0xFFFFFFFFFFFFFFFFFFFFFFFFFFFFFFFFFFFFFFFF AND CALLER PUSH20 0xFFFFFFFFFFFFFFFFFFFFFFFFFFFFFFFFFFFFFFFF AND EQ PUSH2 0x23F JUMPI PUSH1 0x0 DUP1 REVERT JUMPDEST PUSH1 0x1 PUSH1 0x0 SWAP1 SLOAD SWAP1 PUSH2 0x100 EXP SWAP1 DIV PUSH20 0xFFFFFFFFFFFFFFFFFFFFFFFFFFFFFFFFFFFFFFFF AND PUSH20 0xFFFFFFFFFFFFFFFFFFFFFFFFFFFFFFFFFFFFFFFF AND PUSH4 0x95EA7B3 PUSH1 0x4 PUSH1 0x0 SWAP1 SLOAD SWAP1 PUSH2 0x100 EXP SWAP1 DIV PUSH20 0xFFFFFFFFFFFFFFFFFFFFFFFFFFFFFFFFFFFFFFFF AND PUSH11 0x52B7D2DCC80CD2E4000000 PUSH1 0x40 MLOAD DUP4 PUSH4 0xFFFFFFFF AND PUSH1 0xE0 SHL DUP2 MSTORE PUSH1 0x4 ADD PUSH2 0x2C9 SWAP3 SWAP2 SWAP1 PUSH2 0x783 JUMP JUMPDEST PUSH1 0x20 PUSH1 0x40 MLOAD DUP1 DUP4 SUB DUP2 PUSH1 0x0 DUP8 GAS CALL ISZERO DUP1 ISZERO PUSH2 0x2E8 JUMPI RETURNDATASIZE PUSH1 0x0 DUP1 RETURNDATACOPY RETURNDATASIZE PUSH1 0x0 REVERT JUMPDEST POP POP POP POP PUSH1 0x40 MLOAD RETURNDATASIZE PUSH1 0x1F NOT PUSH1 0x1F DUP3 ADD AND DUP3 ADD DUP1 PUSH1 0x40 MSTORE POP DUP2 ADD SWAP1 PUSH2 0x30C SWAP2 SWAP1 PUSH2 0x711 JUMP JUMPDEST POP JUMP JUMPDEST PUSH1 0x0 PUSH2 0x31A CALLER PUSH2 0x489 JUMP JUMPDEST SWAP1 POP PUSH1 0x0 PUSH2 0x347 PUSH2 0x3E8 PUSH2 0x339 PUSH1 0x5 SLOAD DUP6 PUSH2 0x59B SWAP1 SWAP2 SWAP1 PUSH4 0xFFFFFFFF AND JUMP JUMPDEST PUSH2 0x5B1 SWAP1 SWAP2 SWAP1 PUSH4 0xFFFFFFFF AND JUMP JUMPDEST SWAP1 POP PUSH1 0x0 PUSH2 0x35E DUP3 DUP5 PUSH2 0x5C7 SWAP1 SWAP2 SWAP1 PUSH4 0xFFFFFFFF AND JUMP JUMPDEST SWAP1 POP PUSH1 0x2 PUSH1 0x0 SWAP1 SLOAD SWAP1 PUSH2 0x100 EXP SWAP1 DIV PUSH20 0xFFFFFFFFFFFFFFFFFFFFFFFFFFFFFFFFFFFFFFFF AND PUSH20 0xFFFFFFFFFFFFFFFFFFFFFFFFFFFFFFFFFFFFFFFF AND PUSH4 0x94756AA7 CALLER DUP4 PUSH1 0x40 MLOAD DUP4 PUSH4 0xFFFFFFFF AND PUSH1 0xE0 SHL DUP2 MSTORE PUSH1 0x4 ADD PUSH2 0x3BD SWAP3 SWAP2 SWAP1 PUSH2 0x7CD JUMP JUMPDEST PUSH1 0x0 PUSH1 0x40 MLOAD DUP1 DUP4 SUB DUP2 PUSH1 0x0 DUP8 DUP1 EXTCODESIZE ISZERO DUP1 ISZERO PUSH2 0x3D7 JUMPI PUSH1 0x0 DUP1 REVERT JUMPDEST POP GAS CALL ISZERO DUP1 ISZERO PUSH2 0x3EB JUMPI RETURNDATASIZE PUSH1 0x0 DUP1 RETURNDATACOPY RETURNDATASIZE PUSH1 0x0 REVERT JUMPDEST POP POP POP POP PUSH2 0x441 DUP4 PUSH1 0x6 PUSH1 0x0 CALLER PUSH20 0xFFFFFFFFFFFFFFFFFFFFFFFFFFFFFFFFFFFFFFFF AND PUSH20 0xFFFFFFFFFFFFFFFFFFFFFFFFFFFFFFFFFFFFFFFF AND DUP2 MSTORE PUSH1 0x20 ADD SWAP1 DUP2 MSTORE PUSH1 0x20 ADD PUSH1 0x0 KECCAK256 SLOAD PUSH2 0x585 SWAP1 SWAP2 SWAP1 PUSH4 0xFFFFFFFF AND JUMP JUMPDEST PUSH1 0x6 PUSH1 0x0 CALLER PUSH20 0xFFFFFFFFFFFFFFFFFFFFFFFFFFFFFFFFFFFFFFFF AND PUSH20 0xFFFFFFFFFFFFFFFFFFFFFFFFFFFFFFFFFFFFFFFF AND DUP2 MSTORE PUSH1 0x20 ADD SWAP1 DUP2 MSTORE PUSH1 0x20 ADD PUSH1 0x0 KECCAK256 DUP2 SWAP1 SSTORE POP POP POP POP JUMP JUMPDEST PUSH1 0x0 DUP1 PUSH1 0x0 DUP1 SLOAD SWAP1 PUSH2 0x100 EXP SWAP1 DIV PUSH20 0xFFFFFFFFFFFFFFFFFFFFFFFFFFFFFFFFFFFFFFFF AND PUSH20 0xFFFFFFFFFFFFFFFFFFFFFFFFFFFFFFFFFFFFFFFF AND PUSH4 0xB8BA6007 DUP5 PUSH1 0x40 MLOAD DUP3 PUSH4 0xFFFFFFFF AND PUSH1 0xE0 SHL DUP2 MSTORE PUSH1 0x4 ADD PUSH2 0x4E5 SWAP2 SWAP1 PUSH2 0x7F6 JUMP JUMPDEST PUSH1 0x20 PUSH1 0x40 MLOAD DUP1 DUP4 SUB DUP2 DUP7 GAS STATICCALL ISZERO DUP1 ISZERO PUSH2 0x502 JUMPI RETURNDATASIZE PUSH1 0x0 DUP1 RETURNDATACOPY RETURNDATASIZE PUSH1 0x0 REVERT JUMPDEST POP POP POP POP PUSH1 0x40 MLOAD RETURNDATASIZE PUSH1 0x1F NOT PUSH1 0x1F DUP3 ADD AND DUP3 ADD DUP1 PUSH1 0x40 MSTORE POP DUP2 ADD SWAP1 PUSH2 0x526 SWAP2 SWAP1 PUSH2 0x83D JUMP JUMPDEST SWAP1 POP PUSH2 0x57A PUSH1 0x6 PUSH1 0x0 DUP6 PUSH20 0xFFFFFFFFFFFFFFFFFFFFFFFFFFFFFFFFFFFFFFFF AND PUSH20 0xFFFFFFFFFFFFFFFFFFFFFFFFFFFFFFFFFFFFFFFF AND DUP2 MSTORE PUSH1 0x20 ADD SWAP1 DUP2 MSTORE PUSH1 0x20 ADD PUSH1 0x0 KECCAK256 SLOAD DUP3 PUSH2 0x5C7 SWAP1 SWAP2 SWAP1 PUSH4 0xFFFFFFFF AND JUMP JUMPDEST SWAP1 POP DUP1 SWAP2 POP POP SWAP2 SWAP1 POP JUMP JUMPDEST PUSH1 0x0 DUP2 DUP4 PUSH2 0x593 SWAP2 SWAP1 PUSH2 0x899 JUMP JUMPDEST SWAP1 POP SWAP3 SWAP2 POP POP JUMP JUMPDEST PUSH1 0x0 DUP2 DUP4 PUSH2 0x5A9 SWAP2 SWAP1 PUSH2 0x8CD JUMP JUMPDEST SWAP1 POP SWAP3 SWAP2 POP POP JUMP JUMPDEST PUSH1 0x0 DUP2 DUP4 PUSH2 0x5BF SWAP2 SWAP1 PUSH2 0x93E JUMP JUMPDEST SWAP1 POP SWAP3 SWAP2 POP POP JUMP JUMPDEST PUSH1 0x0 DUP2 DUP4 PUSH2 0x5D5 SWAP2 SWAP1 PUSH2 0x96F JUMP JUMPDEST SWAP1 POP SWAP3 SWAP2 POP POP JUMP JUMPDEST PUSH1 0x0 DUP1 REVERT JUMPDEST PUSH1 0x0 PUSH20 0xFFFFFFFFFFFFFFFFFFFFFFFFFFFFFFFFFFFFFFFF DUP3 AND SWAP1 POP SWAP2 SWAP1 POP JUMP JUMPDEST PUSH1 0x0 PUSH2 0x60D DUP3 PUSH2 0x5E2 JUMP JUMPDEST SWAP1 POP SWAP2 SWAP1 POP JUMP JUMPDEST PUSH2 0x61D DUP2 PUSH2 0x602 JUMP JUMPDEST DUP2 EQ PUSH2 0x628 JUMPI PUSH1 0x0 DUP1 REVERT JUMPDEST POP JUMP JUMPDEST PUSH1 0x0 DUP2 CALLDATALOAD SWAP1 POP PUSH2 0x63A DUP2 PUSH2 0x614 JUMP JUMPDEST SWAP3 SWAP2 POP POP JUMP JUMPDEST PUSH1 0x0 PUSH1 0x20 DUP3 DUP5 SUB SLT ISZERO PUSH2 0x656 JUMPI PUSH2 0x655 PUSH2 0x5DD JUMP JUMPDEST JUMPDEST PUSH1 0x0 PUSH2 0x664 DUP5 DUP3 DUP6 ADD PUSH2 0x62B JUMP JUMPDEST SWAP2 POP POP SWAP3 SWAP2 POP POP JUMP JUMPDEST PUSH1 0x0 DUP2 SWAP1 POP SWAP2 SWAP1 POP JUMP JUMPDEST PUSH2 0x680 DUP2 PUSH2 0x66D JUMP JUMPDEST DUP3 MSTORE POP POP JUMP JUMPDEST PUSH1 0x0 PUSH1 0x20 DUP3 ADD SWAP1 POP PUSH2 0x69B PUSH1 0x0 DUP4 ADD DUP5 PUSH2 0x677 JUMP JUMPDEST SWAP3 SWAP2 POP POP JUMP JUMPDEST PUSH2 0x6AA DUP2 PUSH2 0x602 JUMP JUMPDEST DUP3 MSTORE POP POP JUMP JUMPDEST PUSH1 0x0 PUSH1 0x40 DUP3 ADD SWAP1 POP PUSH2 0x6C5 PUSH1 0x0 DUP4 ADD DUP6 PUSH2 0x6A1 JUMP JUMPDEST PUSH2 0x6D2 PUSH1 0x20 DUP4 ADD DUP5 PUSH2 0x677 JUMP JUMPDEST SWAP4 SWAP3 POP POP POP JUMP JUMPDEST PUSH1 0x0 DUP2 ISZERO ISZERO SWAP1 POP SWAP2 SWAP1 POP JUMP JUMPDEST PUSH2 0x6EE DUP2 PUSH2 0x6D9 JUMP JUMPDEST DUP2 EQ PUSH2 0x6F9 JUMPI PUSH1 0x0 DUP1 REVERT JUMPDEST POP JUMP JUMPDEST PUSH1 0x0 DUP2 MLOAD SWAP1 POP PUSH2 0x70B DUP2 PUSH2 0x6E5 JUMP JUMPDEST SWAP3 SWAP2 POP POP JUMP JUMPDEST PUSH1 0x0 PUSH1 0x20 DUP3 DUP5 SUB SLT ISZERO PUSH2 0x727 JUMPI PUSH2 0x726 PUSH2 0x5DD JUMP JUMPDEST JUMPDEST PUSH1 0x0 PUSH2 0x735 DUP5 DUP3 DUP6 ADD PUSH2 0x6FC JUMP JUMPDEST SWAP2 POP POP SWAP3 SWAP2 POP POP JUMP JUMPDEST PUSH1 0x0 DUP2 SWAP1 POP SWAP2 SWAP1 POP JUMP JUMPDEST PUSH1 0x0 DUP2 SWAP1 POP SWAP2 SWAP1 POP JUMP JUMPDEST PUSH1 0x0 PUSH2 0x76D PUSH2 0x768 PUSH2 0x763 DUP5 PUSH2 0x73E JUMP JUMPDEST PUSH2 0x748 JUMP JUMPDEST PUSH2 0x66D JUMP JUMPDEST SWAP1 POP SWAP2 SWAP1 POP JUMP JUMPDEST PUSH2 0x77D DUP2 PUSH2 0x752 JUMP JUMPDEST DUP3 MSTORE POP POP JUMP JUMPDEST PUSH1 0x0 PUSH1 0x40 DUP3 ADD SWAP1 POP PUSH2 0x798 PUSH1 0x0 DUP4 ADD DUP6 PUSH2 0x6A1 JUMP JUMPDEST PUSH2 0x7A5 PUSH1 0x20 DUP4 ADD DUP5 PUSH2 0x774 JUMP JUMPDEST SWAP4 SWAP3 POP POP POP JUMP JUMPDEST PUSH1 0x0 PUSH2 0x7B7 DUP3 PUSH2 0x5E2 JUMP JUMPDEST SWAP1 POP SWAP2 SWAP1 POP JUMP JUMPDEST PUSH2 0x7C7 DUP2 PUSH2 0x7AC JUMP JUMPDEST DUP3 MSTORE POP POP JUMP JUMPDEST PUSH1 0x0 PUSH1 0x40 DUP3 ADD SWAP1 POP PUSH2 0x7E2 PUSH1 0x0 DUP4 ADD DUP6 PUSH2 0x7BE JUMP JUMPDEST PUSH2 0x7EF PUSH1 0x20 DUP4 ADD DUP5 PUSH2 0x677 JUMP JUMPDEST SWAP4 SWAP3 POP POP POP JUMP JUMPDEST PUSH1 0x0 PUSH1 0x20 DUP3 ADD SWAP1 POP PUSH2 0x80B PUSH1 0x0 DUP4 ADD DUP5 PUSH2 0x6A1 JUMP JUMPDEST SWAP3 SWAP2 POP POP JUMP JUMPDEST PUSH2 0x81A DUP2 PUSH2 0x66D JUMP JUMPDEST DUP2 EQ PUSH2 0x825 JUMPI PUSH1 0x0 DUP1 REVERT JUMPDEST POP JUMP JUMPDEST PUSH1 0x0 DUP2 MLOAD SWAP1 POP PUSH2 0x837 DUP2 PUSH2 0x811 JUMP JUMPDEST SWAP3 SWAP2 POP POP JUMP JUMPDEST PUSH1 0x0 PUSH1 0x20 DUP3 DUP5 SUB SLT ISZERO PUSH2 0x853 JUMPI PUSH2 0x852 PUSH2 0x5DD JUMP JUMPDEST JUMPDEST PUSH1 0x0 PUSH2 0x861 DUP5 DUP3 DUP6 ADD PUSH2 0x828 JUMP JUMPDEST SWAP2 POP POP SWAP3 SWAP2 POP POP JUMP JUMPDEST PUSH32 0x4E487B7100000000000000000000000000000000000000000000000000000000 PUSH1 0x0 MSTORE PUSH1 0x11 PUSH1 0x4 MSTORE PUSH1 0x24 PUSH1 0x0 REVERT JUMPDEST PUSH1 0x0 PUSH2 0x8A4 DUP3 PUSH2 0x66D JUMP JUMPDEST SWAP2 POP PUSH2 0x8AF DUP4 PUSH2 0x66D JUMP JUMPDEST SWAP3 POP DUP3 DUP3 ADD SWAP1 POP DUP1 DUP3 GT ISZERO PUSH2 0x8C7 JUMPI PUSH2 0x8C6 PUSH2 0x86A JUMP JUMPDEST JUMPDEST SWAP3 SWAP2 POP POP JUMP JUMPDEST PUSH1 0x0 PUSH2 0x8D8 DUP3 PUSH2 0x66D JUMP JUMPDEST SWAP2 POP PUSH2 0x8E3 DUP4 PUSH2 0x66D JUMP JUMPDEST SWAP3 POP DUP3 DUP3 MUL PUSH2 0x8F1 DUP2 PUSH2 0x66D JUMP JUMPDEST SWAP2 POP DUP3 DUP3 DIV DUP5 EQ DUP4 ISZERO OR PUSH2 0x908 JUMPI PUSH2 0x907 PUSH2 0x86A JUMP JUMPDEST JUMPDEST POP SWAP3 SWAP2 POP POP JUMP JUMPDEST PUSH32 0x4E487B7100000000000000000000000000000000000000000000000000000000 PUSH1 0x0 MSTORE PUSH1 0x12 PUSH1 0x4 MSTORE PUSH1 0x24 PUSH1 0x0 REVERT JUMPDEST PUSH1 0x0 PUSH2 0x949 DUP3 PUSH2 0x66D JUMP JUMPDEST SWAP2 POP PUSH2 0x954 DUP4 PUSH2 0x66D JUMP JUMPDEST SWAP3 POP DUP3 PUSH2 0x964 JUMPI PUSH2 0x963 PUSH2 0x90F JUMP JUMPDEST JUMPDEST DUP3 DUP3 DIV SWAP1 POP SWAP3 SWAP2 POP POP JUMP JUMPDEST PUSH1 0x0 PUSH2 0x97A DUP3 PUSH2 0x66D JUMP JUMPDEST SWAP2 POP PUSH2 0x985 DUP4 PUSH2 0x66D JUMP JUMPDEST SWAP3 POP DUP3 DUP3 SUB SWAP1 POP DUP2 DUP2 GT ISZERO PUSH2 0x99D JUMPI PUSH2 0x99C PUSH2 0x86A JUMP JUMPDEST JUMPDEST SWAP3 SWAP2 POP POP JUMP INVALID LOG2 PUSH5 0x6970667358 0x22 SLT KECCAK256 SELFDESTRUCT PUSH3 0xBF82A4 PUSH29 0x8067931FE62262A8B63D93F554631B1FBD7F808E7A65739DA70E64736F PUSH13 0x63430008110033000000000000 "
				},
				"gasEstimates": {
					"creation": {
						"codeDepositCost": "504200",
						"executionCost": "infinite",
						"totalCost": "infinite"
					},
					"external": {
						"Claim()": "infinite",
						"FlashSwap()": "infinite",
						"treasury_admin()": "infinite",
						"viewReward(address)": "infinite"
					}
				},
				"methodIdentifiers": {
					"Claim()": "3158952e",
					"FlashSwap()": "b3a26307",
					"treasury_admin()": "9acc1b73",
					"viewReward(address)": "d0eede67"
				}
			},
			"storageLayout": {
				"storage": [
					{
						"astId": 411,
						"contract": "Dcoffer/DcoffMine.sol:DcoffMine",
						"label": "DCFmine",
						"offset": 0,
						"slot": "0",
						"type": "t_contract(mine)608"
					},
					{
						"astId": 417,
						"contract": "Dcoffer/DcoffMine.sol:DcoffMine",
						"label": "dcoff",
						"offset": 0,
						"slot": "1",
						"type": "t_contract(IERC20)77"
					},
					{
						"astId": 423,
						"contract": "Dcoffer/DcoffMine.sol:DcoffMine",
						"label": "router",
						"offset": 0,
						"slot": "2",
						"type": "t_contract(treasury)402"
					},
					{
						"astId": 425,
						"contract": "Dcoffer/DcoffMine.sol:DcoffMine",
						"label": "owner",
						"offset": 0,
						"slot": "3",
						"type": "t_address"
					},
					{
						"astId": 427,
						"contract": "Dcoffer/DcoffMine.sol:DcoffMine",
						"label": "treasuryAddr",
						"offset": 0,
						"slot": "4",
						"type": "t_address"
					},
					{
						"astId": 429,
						"contract": "Dcoffer/DcoffMine.sol:DcoffMine",
						"label": "fee",
						"offset": 0,
						"slot": "5",
						"type": "t_uint256"
					},
					{
						"astId": 433,
						"contract": "Dcoffer/DcoffMine.sol:DcoffMine",
						"label": "ScoreWithdrawn",
						"offset": 0,
						"slot": "6",
						"type": "t_mapping(t_address,t_uint256)"
					}
				],
				"types": {
					"t_address": {
						"encoding": "inplace",
						"label": "address",
						"numberOfBytes": "20"
					},
					"t_contract(IERC20)77": {
						"encoding": "inplace",
						"label": "contract IERC20",
						"numberOfBytes": "20"
					},
					"t_contract(mine)608": {
						"encoding": "inplace",
						"label": "contract mine",
						"numberOfBytes": "20"
					},
					"t_contract(treasury)402": {
						"encoding": "inplace",
						"label": "contract treasury",
						"numberOfBytes": "20"
					},
					"t_mapping(t_address,t_uint256)": {
						"encoding": "mapping",
						"key": "t_address",
						"label": "mapping(address => uint256)",
						"numberOfBytes": "32",
						"value": "t_uint256"
					},
					"t_uint256": {
						"encoding": "inplace",
						"label": "uint256",
						"numberOfBytes": "32"
					}
				}
			},
			"userdoc": {
				"kind": "user",
				"methods": {},
				"version": 1
			}
		}
	}
}