{
	"Dcoffer/treasury.sol": {
		"treasury": {
			"abi": [
				{
					"inputs": [
						{
							"internalType": "uint256",
							"name": "_k",
							"type": "uint256"
						},
						{
							"internalType": "uint256",
							"name": "_fee",
							"type": "uint256"
						}
					],
					"stateMutability": "payable",
					"type": "constructor"
				},
				{
					"anonymous": false,
					"inputs": [
						{
							"indexed": false,
							"internalType": "uint256",
							"name": "eth_pool",
							"type": "uint256"
						},
						{
							"indexed": false,
							"internalType": "uint256",
							"name": "dcf_pool",
							"type": "uint256"
						},
						{
							"indexed": false,
							"internalType": "uint256",
							"name": "timestamp",
							"type": "uint256"
						}
					],
					"name": "price",
					"type": "event"
				},
				{
					"inputs": [
						{
							"internalType": "uint256",
							"name": "dcf_amount",
							"type": "uint256"
						}
					],
					"name": "DCF_ETH",
					"outputs": [
						{
							"internalType": "uint256",
							"name": "",
							"type": "uint256"
						}
					],
					"stateMutability": "view",
					"type": "function"
				},
				{
					"inputs": [
						{
							"internalType": "uint256",
							"name": "eth_amount",
							"type": "uint256"
						}
					],
					"name": "ETH_DCF",
					"outputs": [
						{
							"internalType": "uint256",
							"name": "",
							"type": "uint256"
						}
					],
					"stateMutability": "view",
					"type": "function"
				},
				{
					"inputs": [],
					"name": "Warning_protect",
					"outputs": [],
					"stateMutability": "nonpayable",
					"type": "function"
				},
				{
					"inputs": [],
					"name": "admin_fee",
					"outputs": [],
					"stateMutability": "nonpayable",
					"type": "function"
				},
				{
					"inputs": [],
					"name": "deposit",
					"outputs": [],
					"stateMutability": "payable",
					"type": "function"
				},
				{
					"inputs": [
						{
							"internalType": "address payable",
							"name": "seller",
							"type": "address"
						},
						{
							"internalType": "uint256",
							"name": "dcf_amount",
							"type": "uint256"
						}
					],
					"name": "market",
					"outputs": [],
					"stateMutability": "nonpayable",
					"type": "function"
				},
				{
					"inputs": [
						{
							"internalType": "address",
							"name": "user",
							"type": "address"
						},
						{
							"internalType": "bool",
							"name": "power",
							"type": "bool"
						}
					],
					"name": "setRouter",
					"outputs": [],
					"stateMutability": "nonpayable",
					"type": "function"
				},
				{
					"inputs": [],
					"name": "viewAdminFee",
					"outputs": [
						{
							"internalType": "uint256",
							"name": "",
							"type": "uint256"
						}
					],
					"stateMutability": "view",
					"type": "function"
				}
			],
			"devdoc": {
				"kind": "dev",
				"methods": {},
				"version": 1
			},
			"evm": {
				"assembly": "    /* \"Dcoffer/treasury.sol\":183:2956  contract treasury {... */\n  mstore(0x40, 0x80)\n    /* \"Dcoffer/treasury.sol\":261:303  0x58d3a4cb28f30d9C87E8F79544f98F358cde6227 */\n  0x58d3a4cb28f30d9c87e8f79544f98f358cde6227\n    /* \"Dcoffer/treasury.sol\":238:304  IERC20 dcoff =  IERC20(0x58d3a4cb28f30d9C87E8F79544f98F358cde6227) */\n  0x00\n  dup1\n  0x0100\n  exp\n  dup2\n  sload\n  dup2\n  0xffffffffffffffffffffffffffffffffffffffff\n  mul\n  not\n  and\n  swap1\n  dup4\n  0xffffffffffffffffffffffffffffffffffffffff\n  and\n  mul\n  or\n  swap1\n  sstore\n  pop\n    /* \"Dcoffer/treasury.sol\":486:622  constructor(uint256 _k, uint256 _fee)payable{... */\n  mload(0x40)\n  sub(codesize, bytecodeSize)\n  dup1\n  bytecodeSize\n  dup4\n  codecopy\n  dup2\n  dup2\n  add\n  0x40\n  mstore\n  dup2\n  add\n  swap1\n  tag_1\n  swap2\n  swap1\n  tag_2\n  jump\t// in\ntag_1:\n    /* \"Dcoffer/treasury.sol\":545:555  msg.sender */\n  caller\n    /* \"Dcoffer/treasury.sol\":537:542  owner */\n  0x05\n  0x00\n    /* \"Dcoffer/treasury.sol\":537:555  owner = msg.sender */\n  0x0100\n  exp\n  dup2\n  sload\n  dup2\n  0xffffffffffffffffffffffffffffffffffffffff\n  mul\n  not\n  and\n  swap1\n  dup4\n  0xffffffffffffffffffffffffffffffffffffffff\n  and\n  mul\n  or\n  swap1\n  sstore\n  pop\n    /* \"Dcoffer/treasury.sol\":577:586  msg.value */\n  callvalue\n    /* \"Dcoffer/treasury.sol\":562:574  last_balance */\n  0x03\n    /* \"Dcoffer/treasury.sol\":562:586  last_balance = msg.value */\n  dup2\n  swap1\n  sstore\n  pop\n    /* \"Dcoffer/treasury.sol\":597:599  _k */\n  dup2\n    /* \"Dcoffer/treasury.sol\":593:594  K */\n  0x01\n    /* \"Dcoffer/treasury.sol\":593:599  K = _k */\n  dup2\n  swap1\n  sstore\n  pop\n    /* \"Dcoffer/treasury.sol\":612:616  _fee */\n  dup1\n    /* \"Dcoffer/treasury.sol\":606:609  fee */\n  0x02\n    /* \"Dcoffer/treasury.sol\":606:616  fee = _fee */\n  dup2\n  swap1\n  sstore\n  pop\n    /* \"Dcoffer/treasury.sol\":486:622  constructor(uint256 _k, uint256 _fee)payable{... */\n  pop\n  pop\n    /* \"Dcoffer/treasury.sol\":183:2956  contract treasury {... */\n  jump(tag_5)\n    /* \"#utility.yul\":88:205   */\ntag_7:\n    /* \"#utility.yul\":197:198   */\n  0x00\n    /* \"#utility.yul\":194:195   */\n  dup1\n    /* \"#utility.yul\":187:199   */\n  revert\n    /* \"#utility.yul\":334:411   */\ntag_9:\n    /* \"#utility.yul\":371:378   */\n  0x00\n    /* \"#utility.yul\":400:405   */\n  dup2\n    /* \"#utility.yul\":389:405   */\n  swap1\n  pop\n    /* \"#utility.yul\":334:411   */\n  swap2\n  swap1\n  pop\n  jump\t// out\n    /* \"#utility.yul\":417:539   */\ntag_10:\n    /* \"#utility.yul\":490:514   */\n  tag_18\n    /* \"#utility.yul\":508:513   */\n  dup2\n    /* \"#utility.yul\":490:514   */\n  tag_9\n  jump\t// in\ntag_18:\n    /* \"#utility.yul\":483:488   */\n  dup2\n    /* \"#utility.yul\":480:515   */\n  eq\n    /* \"#utility.yul\":470:533   */\n  tag_19\n  jumpi\n    /* \"#utility.yul\":529:530   */\n  0x00\n    /* \"#utility.yul\":526:527   */\n  dup1\n    /* \"#utility.yul\":519:531   */\n  revert\n    /* \"#utility.yul\":470:533   */\ntag_19:\n    /* \"#utility.yul\":417:539   */\n  pop\n  jump\t// out\n    /* \"#utility.yul\":545:688   */\ntag_11:\n    /* \"#utility.yul\":602:607   */\n  0x00\n    /* \"#utility.yul\":633:639   */\n  dup2\n    /* \"#utility.yul\":627:640   */\n  mload\n    /* \"#utility.yul\":618:640   */\n  swap1\n  pop\n    /* \"#utility.yul\":649:682   */\n  tag_21\n    /* \"#utility.yul\":676:681   */\n  dup2\n    /* \"#utility.yul\":649:682   */\n  tag_10\n  jump\t// in\ntag_21:\n    /* \"#utility.yul\":545:688   */\n  swap3\n  swap2\n  pop\n  pop\n  jump\t// out\n    /* \"#utility.yul\":694:1201   */\ntag_2:\n    /* \"#utility.yul\":773:779   */\n  0x00\n    /* \"#utility.yul\":781:787   */\n  dup1\n    /* \"#utility.yul\":830:832   */\n  0x40\n    /* \"#utility.yul\":818:827   */\n  dup4\n    /* \"#utility.yul\":809:816   */\n  dup6\n    /* \"#utility.yul\":805:828   */\n  sub\n    /* \"#utility.yul\":801:833   */\n  slt\n    /* \"#utility.yul\":798:917   */\n  iszero\n  tag_23\n  jumpi\n    /* \"#utility.yul\":836:915   */\n  tag_24\n  tag_7\n  jump\t// in\ntag_24:\n    /* \"#utility.yul\":798:917   */\ntag_23:\n    /* \"#utility.yul\":956:957   */\n  0x00\n    /* \"#utility.yul\":981:1045   */\n  tag_25\n    /* \"#utility.yul\":1037:1044   */\n  dup6\n    /* \"#utility.yul\":1028:1034   */\n  dup3\n    /* \"#utility.yul\":1017:1026   */\n  dup7\n    /* \"#utility.yul\":1013:1035   */\n  add\n    /* \"#utility.yul\":981:1045   */\n  tag_11\n  jump\t// in\ntag_25:\n    /* \"#utility.yul\":971:1045   */\n  swap3\n  pop\n    /* \"#utility.yul\":927:1055   */\n  pop\n    /* \"#utility.yul\":1094:1096   */\n  0x20\n    /* \"#utility.yul\":1120:1184   */\n  tag_26\n    /* \"#utility.yul\":1176:1183   */\n  dup6\n    /* \"#utility.yul\":1167:1173   */\n  dup3\n    /* \"#utility.yul\":1156:1165   */\n  dup7\n    /* \"#utility.yul\":1152:1174   */\n  add\n    /* \"#utility.yul\":1120:1184   */\n  tag_11\n  jump\t// in\ntag_26:\n    /* \"#utility.yul\":1110:1184   */\n  swap2\n  pop\n    /* \"#utility.yul\":1065:1194   */\n  pop\n    /* \"#utility.yul\":694:1201   */\n  swap3\n  pop\n  swap3\n  swap1\n  pop\n  jump\t// out\n    /* \"Dcoffer/treasury.sol\":183:2956  contract treasury {... */\ntag_5:\n  dataSize(sub_0)\n  dup1\n  dataOffset(sub_0)\n  0x00\n  codecopy\n  0x00\n  return\nstop\n\nsub_0: assembly {\n        /* \"Dcoffer/treasury.sol\":183:2956  contract treasury {... */\n      mstore(0x40, 0x80)\n      jumpi(tag_1, lt(calldatasize, 0x04))\n      shr(0xe0, calldataload(0x00))\n      dup1\n      0xc3c64674\n      gt\n      tag_10\n      jumpi\n      dup1\n      0xc3c64674\n      eq\n      tag_6\n      jumpi\n      dup1\n      0xd0e30db0\n      eq\n      tag_7\n      jumpi\n      dup1\n      0xdac3fad4\n      eq\n      tag_8\n      jumpi\n      dup1\n      0xfee3f7f9\n      eq\n      tag_9\n      jumpi\n      jump(tag_1)\n    tag_10:\n      dup1\n      0x1758d6f3\n      eq\n      tag_2\n      jumpi\n      dup1\n      0x3a23bf49\n      eq\n      tag_3\n      jumpi\n      dup1\n      0x94756aa7\n      eq\n      tag_4\n      jumpi\n      dup1\n      0x97dedb1d\n      eq\n      tag_5\n      jumpi\n    tag_1:\n      0x00\n      dup1\n      revert\n        /* \"Dcoffer/treasury.sol\":2777:2933  function viewAdminFee()external onlyOwner view returns(uint256){... */\n    tag_2:\n      callvalue\n      dup1\n      iszero\n      tag_11\n      jumpi\n      0x00\n      dup1\n      revert\n    tag_11:\n      pop\n      tag_12\n      tag_13\n      jump\t// in\n    tag_12:\n      mload(0x40)\n      tag_14\n      swap2\n      swap1\n      tag_15\n      jump\t// in\n    tag_14:\n      mload(0x40)\n      dup1\n      swap2\n      sub\n      swap1\n      return\n        /* \"Dcoffer/treasury.sol\":1659:2122  function DCF_ETH(uint256 dcf_amount)public view returns(uint256){... */\n    tag_3:\n      callvalue\n      dup1\n      iszero\n      tag_16\n      jumpi\n      0x00\n      dup1\n      revert\n    tag_16:\n      pop\n      tag_17\n      0x04\n      dup1\n      calldatasize\n      sub\n      dup2\n      add\n      swap1\n      tag_18\n      swap2\n      swap1\n      tag_19\n      jump\t// in\n    tag_18:\n      tag_20\n      jump\t// in\n    tag_17:\n      mload(0x40)\n      tag_21\n      swap2\n      swap1\n      tag_15\n      jump\t// in\n    tag_21:\n      mload(0x40)\n      dup1\n      swap2\n      sub\n      swap1\n      return\n        /* \"Dcoffer/treasury.sol\":1044:1651  function market(address payable seller, uint256 dcf_amount)external {... */\n    tag_4:\n      callvalue\n      dup1\n      iszero\n      tag_22\n      jumpi\n      0x00\n      dup1\n      revert\n    tag_22:\n      pop\n      tag_23\n      0x04\n      dup1\n      calldatasize\n      sub\n      dup2\n      add\n      swap1\n      tag_24\n      swap2\n      swap1\n      tag_25\n      jump\t// in\n    tag_24:\n      tag_26\n      jump\t// in\n    tag_23:\n      stop\n        /* \"Dcoffer/treasury.sol\":2130:2490  function ETH_DCF(uint256 eth_amount)public view returns(uint256){... */\n    tag_5:\n      callvalue\n      dup1\n      iszero\n      tag_27\n      jumpi\n      0x00\n      dup1\n      revert\n    tag_27:\n      pop\n      tag_28\n      0x04\n      dup1\n      calldatasize\n      sub\n      dup2\n      add\n      swap1\n      tag_29\n      swap2\n      swap1\n      tag_19\n      jump\t// in\n    tag_29:\n      tag_30\n      jump\t// in\n    tag_28:\n      mload(0x40)\n      tag_31\n      swap2\n      swap1\n      tag_15\n      jump\t// in\n    tag_31:\n      mload(0x40)\n      dup1\n      swap2\n      sub\n      swap1\n      return\n        /* \"Dcoffer/treasury.sol\":818:920  function setRouter(address user, bool power)external onlyOwner{... */\n    tag_6:\n      callvalue\n      dup1\n      iszero\n      tag_32\n      jumpi\n      0x00\n      dup1\n      revert\n    tag_32:\n      pop\n      tag_33\n      0x04\n      dup1\n      calldatasize\n      sub\n      dup2\n      add\n      swap1\n      tag_34\n      swap2\n      swap1\n      tag_35\n      jump\t// in\n    tag_34:\n      tag_36\n      jump\t// in\n    tag_33:\n      stop\n        /* \"Dcoffer/treasury.sol\":928:1036  function deposit()external payable{... */\n    tag_7:\n      tag_37\n      tag_38\n      jump\t// in\n    tag_37:\n      stop\n        /* \"Dcoffer/treasury.sol\":2503:2665  function Warning_protect()external onlyOwner{... */\n    tag_8:\n      callvalue\n      dup1\n      iszero\n      tag_39\n      jumpi\n      0x00\n      dup1\n      revert\n    tag_39:\n      pop\n      tag_40\n      tag_41\n      jump\t// in\n    tag_40:\n      stop\n        /* \"Dcoffer/treasury.sol\":2673:2771  function admin_fee()external onlyOwner{... */\n    tag_9:\n      callvalue\n      dup1\n      iszero\n      tag_42\n      jumpi\n      0x00\n      dup1\n      revert\n    tag_42:\n      pop\n      tag_43\n      tag_44\n      jump\t// in\n    tag_43:\n      stop\n        /* \"Dcoffer/treasury.sol\":2777:2933  function viewAdminFee()external onlyOwner view returns(uint256){... */\n    tag_13:\n        /* \"Dcoffer/treasury.sol\":2832:2839  uint256 */\n      0x00\n        /* \"Dcoffer/treasury.sol\":745:755  msg.sender */\n      caller\n        /* \"Dcoffer/treasury.sol\":736:755  owner == msg.sender */\n      0xffffffffffffffffffffffffffffffffffffffff\n      and\n        /* \"Dcoffer/treasury.sol\":736:741  owner */\n      0x05\n      0x00\n      swap1\n      sload\n      swap1\n      0x0100\n      exp\n      swap1\n      div\n      0xffffffffffffffffffffffffffffffffffffffff\n      and\n        /* \"Dcoffer/treasury.sol\":736:755  owner == msg.sender */\n      0xffffffffffffffffffffffffffffffffffffffff\n      and\n      eq\n        /* \"Dcoffer/treasury.sol\":728:792  require(owner == msg.sender, \"Ownable: caller is not the owner\") */\n      tag_46\n      jumpi\n      mload(0x40)\n      0x08c379a000000000000000000000000000000000000000000000000000000000\n      dup2\n      mstore\n      0x04\n      add\n      tag_47\n      swap1\n      tag_48\n      jump\t// in\n    tag_47:\n      mload(0x40)\n      dup1\n      swap2\n      sub\n      swap1\n      revert\n    tag_46:\n        /* \"Dcoffer/treasury.sol\":2859:2869  msg.sender */\n      caller\n        /* \"Dcoffer/treasury.sol\":2850:2869  owner == msg.sender */\n      0xffffffffffffffffffffffffffffffffffffffff\n      and\n        /* \"Dcoffer/treasury.sol\":2850:2855  owner */\n      0x05\n      0x00\n      swap1\n      sload\n      swap1\n      0x0100\n      exp\n      swap1\n      div\n      0xffffffffffffffffffffffffffffffffffffffff\n      and\n        /* \"Dcoffer/treasury.sol\":2850:2869  owner == msg.sender */\n      0xffffffffffffffffffffffffffffffffffffffff\n      and\n      sub\n        /* \"Dcoffer/treasury.sol\":2847:2928  if(owner == msg.sender){... */\n      tag_50\n      jumpi\n        /* \"Dcoffer/treasury.sol\":2886:2891  admin */\n      sload(0x04)\n        /* \"Dcoffer/treasury.sol\":2879:2891  return admin */\n      swap1\n      pop\n      jump(tag_49)\n        /* \"Dcoffer/treasury.sol\":2847:2928  if(owner == msg.sender){... */\n    tag_50:\n        /* \"Dcoffer/treasury.sol\":2912:2920  revert() */\n      0x00\n      dup1\n      revert\n        /* \"Dcoffer/treasury.sol\":803:804  _ */\n    tag_49:\n        /* \"Dcoffer/treasury.sol\":2777:2933  function viewAdminFee()external onlyOwner view returns(uint256){... */\n      swap1\n      jump\t// out\n        /* \"Dcoffer/treasury.sol\":1659:2122  function DCF_ETH(uint256 dcf_amount)public view returns(uint256){... */\n    tag_20:\n        /* \"Dcoffer/treasury.sol\":1715:1722  uint256 */\n      0x00\n        /* \"Dcoffer/treasury.sol\":1730:1749  uint256 _eth_amount */\n      dup1\n        /* \"Dcoffer/treasury.sol\":1752:1775  last_balance.sub(admin) */\n      tag_53\n        /* \"Dcoffer/treasury.sol\":1769:1774  admin */\n      sload(0x04)\n        /* \"Dcoffer/treasury.sol\":1752:1764  last_balance */\n      sload(0x03)\n        /* \"Dcoffer/treasury.sol\":1752:1768  last_balance.sub */\n      tag_54\n      swap1\n        /* \"Dcoffer/treasury.sol\":1752:1775  last_balance.sub(admin) */\n      swap2\n      swap1\n      0xffffffff\n      and\n      jump\t// in\n    tag_53:\n        /* \"Dcoffer/treasury.sol\":1730:1775  uint256 _eth_amount = last_balance.sub(admin) */\n      swap1\n      pop\n        /* \"Dcoffer/treasury.sol\":1782:1801  uint256 _dcf_amount */\n      0x00\n        /* \"Dcoffer/treasury.sol\":1804:1809  dcoff */\n      dup1\n      0x00\n      swap1\n      sload\n      swap1\n      0x0100\n      exp\n      swap1\n      div\n      0xffffffffffffffffffffffffffffffffffffffff\n      and\n        /* \"Dcoffer/treasury.sol\":1804:1819  dcoff.balanceOf */\n      0xffffffffffffffffffffffffffffffffffffffff\n      and\n      0x70a08231\n        /* \"Dcoffer/treasury.sol\":1828:1832  this */\n      address\n        /* \"Dcoffer/treasury.sol\":1804:1834  dcoff.balanceOf(address(this)) */\n      mload(0x40)\n      dup3\n      0xffffffff\n      and\n      0xe0\n      shl\n      dup2\n      mstore\n      0x04\n      add\n      tag_55\n      swap2\n      swap1\n      tag_56\n      jump\t// in\n    tag_55:\n      0x20\n      mload(0x40)\n      dup1\n      dup4\n      sub\n      dup2\n      dup7\n      gas\n      staticcall\n      iszero\n      dup1\n      iszero\n      tag_58\n      jumpi\n      returndatasize\n      0x00\n      dup1\n      returndatacopy\n      revert(0x00, returndatasize)\n    tag_58:\n      pop\n      pop\n      pop\n      pop\n      mload(0x40)\n      returndatasize\n      not(0x1f)\n      0x1f\n      dup3\n      add\n      and\n      dup3\n      add\n      dup1\n      0x40\n      mstore\n      pop\n      dup2\n      add\n      swap1\n      tag_59\n      swap2\n      swap1\n      tag_60\n      jump\t// in\n    tag_59:\n        /* \"Dcoffer/treasury.sol\":1782:1834  uint256 _dcf_amount = dcoff.balanceOf(address(this)) */\n      swap1\n      pop\n        /* \"Dcoffer/treasury.sol\":1845:1865  uint256 Variable_dcf */\n      0x00\n        /* \"Dcoffer/treasury.sol\":1868:1895  _dcf_amount.add(dcf_amount) */\n      tag_61\n        /* \"Dcoffer/treasury.sol\":1884:1894  dcf_amount */\n      dup6\n        /* \"Dcoffer/treasury.sol\":1868:1879  _dcf_amount */\n      dup4\n        /* \"Dcoffer/treasury.sol\":1868:1883  _dcf_amount.add */\n      tag_62\n      swap1\n        /* \"Dcoffer/treasury.sol\":1868:1895  _dcf_amount.add(dcf_amount) */\n      swap2\n      swap1\n      0xffffffff\n      and\n      jump\t// in\n    tag_61:\n        /* \"Dcoffer/treasury.sol\":1845:1895  uint256 Variable_dcf = _dcf_amount.add(dcf_amount) */\n      swap1\n      pop\n        /* \"Dcoffer/treasury.sol\":1922:1927  dcoff */\n      0x00\n      dup1\n      sload\n      swap1\n      0x0100\n      exp\n      swap1\n      div\n      0xffffffffffffffffffffffffffffffffffffffff\n      and\n        /* \"Dcoffer/treasury.sol\":1922:1939  dcoff.totalSupply */\n      0xffffffffffffffffffffffffffffffffffffffff\n      and\n      0x18160ddd\n        /* \"Dcoffer/treasury.sol\":1922:1941  dcoff.totalSupply() */\n      mload(0x40)\n      dup2\n      0xffffffff\n      and\n      0xe0\n      shl\n      dup2\n      mstore\n      0x04\n      add\n      0x20\n      mload(0x40)\n      dup1\n      dup4\n      sub\n      dup2\n      dup7\n      gas\n      staticcall\n      iszero\n      dup1\n      iszero\n      tag_64\n      jumpi\n      returndatasize\n      0x00\n      dup1\n      returndatacopy\n      revert(0x00, returndatasize)\n    tag_64:\n      pop\n      pop\n      pop\n      pop\n      mload(0x40)\n      returndatasize\n      not(0x1f)\n      0x1f\n      dup3\n      add\n      and\n      dup3\n      add\n      dup1\n      0x40\n      mstore\n      pop\n      dup2\n      add\n      swap1\n      tag_65\n      swap2\n      swap1\n      tag_60\n      jump\t// in\n    tag_65:\n        /* \"Dcoffer/treasury.sol\":1907:1919  Variable_dcf */\n      dup2\n        /* \"Dcoffer/treasury.sol\":1907:1941  Variable_dcf > dcoff.totalSupply() */\n      gt\n        /* \"Dcoffer/treasury.sol\":1904:1993  if(Variable_dcf > dcoff.totalSupply()){... */\n      iszero\n      tag_66\n      jumpi\n        /* \"Dcoffer/treasury.sol\":1966:1971  dcoff */\n      0x00\n      dup1\n      sload\n      swap1\n      0x0100\n      exp\n      swap1\n      div\n      0xffffffffffffffffffffffffffffffffffffffff\n      and\n        /* \"Dcoffer/treasury.sol\":1966:1983  dcoff.totalSupply */\n      0xffffffffffffffffffffffffffffffffffffffff\n      and\n      0x18160ddd\n        /* \"Dcoffer/treasury.sol\":1966:1985  dcoff.totalSupply() */\n      mload(0x40)\n      dup2\n      0xffffffff\n      and\n      0xe0\n      shl\n      dup2\n      mstore\n      0x04\n      add\n      0x20\n      mload(0x40)\n      dup1\n      dup4\n      sub\n      dup2\n      dup7\n      gas\n      staticcall\n      iszero\n      dup1\n      iszero\n      tag_68\n      jumpi\n      returndatasize\n      0x00\n      dup1\n      returndatacopy\n      revert(0x00, returndatasize)\n    tag_68:\n      pop\n      pop\n      pop\n      pop\n      mload(0x40)\n      returndatasize\n      not(0x1f)\n      0x1f\n      dup3\n      add\n      and\n      dup3\n      add\n      dup1\n      0x40\n      mstore\n      pop\n      dup2\n      add\n      swap1\n      tag_69\n      swap2\n      swap1\n      tag_60\n      jump\t// in\n    tag_69:\n        /* \"Dcoffer/treasury.sol\":1951:1985  Variable_dcf = dcoff.totalSupply() */\n      swap1\n      pop\n        /* \"Dcoffer/treasury.sol\":1904:1993  if(Variable_dcf > dcoff.totalSupply()){... */\n    tag_66:\n        /* \"Dcoffer/treasury.sol\":2001:2021  uint256 Variable_eth */\n      0x00\n        /* \"Dcoffer/treasury.sol\":2024:2043  K.div(Variable_dcf) */\n      tag_70\n        /* \"Dcoffer/treasury.sol\":2030:2042  Variable_dcf */\n      dup3\n        /* \"Dcoffer/treasury.sol\":2024:2025  K */\n      sload(0x01)\n        /* \"Dcoffer/treasury.sol\":2024:2029  K.div */\n      tag_71\n      swap1\n        /* \"Dcoffer/treasury.sol\":2024:2043  K.div(Variable_dcf) */\n      swap2\n      swap1\n      0xffffffff\n      and\n      jump\t// in\n    tag_70:\n        /* \"Dcoffer/treasury.sol\":2001:2043  uint256 Variable_eth = K.div(Variable_dcf) */\n      swap1\n      pop\n        /* \"Dcoffer/treasury.sol\":2050:2064  uint256 _price */\n      0x00\n        /* \"Dcoffer/treasury.sol\":2067:2096  _eth_amount.sub(Variable_eth) */\n      tag_72\n        /* \"Dcoffer/treasury.sol\":2083:2095  Variable_eth */\n      dup3\n        /* \"Dcoffer/treasury.sol\":2067:2078  _eth_amount */\n      dup7\n        /* \"Dcoffer/treasury.sol\":2067:2082  _eth_amount.sub */\n      tag_54\n      swap1\n        /* \"Dcoffer/treasury.sol\":2067:2096  _eth_amount.sub(Variable_eth) */\n      swap2\n      swap1\n      0xffffffff\n      and\n      jump\t// in\n    tag_72:\n        /* \"Dcoffer/treasury.sol\":2050:2096  uint256 _price = _eth_amount.sub(Variable_eth) */\n      swap1\n      pop\n        /* \"Dcoffer/treasury.sol\":2110:2116  _price */\n      dup1\n        /* \"Dcoffer/treasury.sol\":2103:2116  return _price */\n      swap6\n      pop\n      pop\n      pop\n      pop\n      pop\n      pop\n        /* \"Dcoffer/treasury.sol\":1659:2122  function DCF_ETH(uint256 dcf_amount)public view returns(uint256){... */\n      swap2\n      swap1\n      pop\n      jump\t// out\n        /* \"Dcoffer/treasury.sol\":1044:1651  function market(address payable seller, uint256 dcf_amount)external {... */\n    tag_26:\n        /* \"Dcoffer/treasury.sol\":1156:1160  true */\n      0x01\n        /* \"Dcoffer/treasury.sol\":1129:1160  RouterAdmin[msg.sender] == true */\n      iszero\n      iszero\n        /* \"Dcoffer/treasury.sol\":1129:1140  RouterAdmin */\n      0x06\n        /* \"Dcoffer/treasury.sol\":1129:1152  RouterAdmin[msg.sender] */\n      0x00\n        /* \"Dcoffer/treasury.sol\":1141:1151  msg.sender */\n      caller\n        /* \"Dcoffer/treasury.sol\":1129:1152  RouterAdmin[msg.sender] */\n      0xffffffffffffffffffffffffffffffffffffffff\n      and\n      0xffffffffffffffffffffffffffffffffffffffff\n      and\n      dup2\n      mstore\n      0x20\n      add\n      swap1\n      dup2\n      mstore\n      0x20\n      add\n      0x00\n      keccak256\n      0x00\n      swap1\n      sload\n      swap1\n      0x0100\n      exp\n      swap1\n      div\n      0xff\n      and\n        /* \"Dcoffer/treasury.sol\":1129:1160  RouterAdmin[msg.sender] == true */\n      iszero\n      iszero\n      eq\n        /* \"Dcoffer/treasury.sol\":1121:1161  require(RouterAdmin[msg.sender] == true) */\n      tag_74\n      jumpi\n      0x00\n      dup1\n      revert\n    tag_74:\n        /* \"Dcoffer/treasury.sol\":1205:1215  dcf_amount */\n      dup1\n        /* \"Dcoffer/treasury.sol\":1178:1183  dcoff */\n      0x00\n      dup1\n      sload\n      swap1\n      0x0100\n      exp\n      swap1\n      div\n      0xffffffffffffffffffffffffffffffffffffffff\n      and\n        /* \"Dcoffer/treasury.sol\":1178:1193  dcoff.balanceOf */\n      0xffffffffffffffffffffffffffffffffffffffff\n      and\n      0x70a08231\n        /* \"Dcoffer/treasury.sol\":1194:1200  seller */\n      dup5\n        /* \"Dcoffer/treasury.sol\":1178:1201  dcoff.balanceOf(seller) */\n      mload(0x40)\n      dup3\n      0xffffffff\n      and\n      0xe0\n      shl\n      dup2\n      mstore\n      0x04\n      add\n      tag_75\n      swap2\n      swap1\n      tag_76\n      jump\t// in\n    tag_75:\n      0x20\n      mload(0x40)\n      dup1\n      dup4\n      sub\n      dup2\n      dup7\n      gas\n      staticcall\n      iszero\n      dup1\n      iszero\n      tag_78\n      jumpi\n      returndatasize\n      0x00\n      dup1\n      returndatacopy\n      revert(0x00, returndatasize)\n    tag_78:\n      pop\n      pop\n      pop\n      pop\n      mload(0x40)\n      returndatasize\n      not(0x1f)\n      0x1f\n      dup3\n      add\n      and\n      dup3\n      add\n      dup1\n      0x40\n      mstore\n      pop\n      dup2\n      add\n      swap1\n      tag_79\n      swap2\n      swap1\n      tag_60\n      jump\t// in\n    tag_79:\n        /* \"Dcoffer/treasury.sol\":1178:1215  dcoff.balanceOf(seller) >= dcf_amount */\n      lt\n      iszero\n        /* \"Dcoffer/treasury.sol\":1170:1216  require(dcoff.balanceOf(seller) >= dcf_amount) */\n      tag_80\n      jumpi\n      0x00\n      dup1\n      revert\n    tag_80:\n        /* \"Dcoffer/treasury.sol\":1227:1245  uint256 eth_amount */\n      0x00\n        /* \"Dcoffer/treasury.sol\":1248:1267  DCF_ETH(dcf_amount) */\n      tag_81\n        /* \"Dcoffer/treasury.sol\":1256:1266  dcf_amount */\n      dup3\n        /* \"Dcoffer/treasury.sol\":1248:1255  DCF_ETH */\n      tag_20\n        /* \"Dcoffer/treasury.sol\":1248:1267  DCF_ETH(dcf_amount) */\n      jump\t// in\n    tag_81:\n        /* \"Dcoffer/treasury.sol\":1227:1267  uint256 eth_amount = DCF_ETH(dcf_amount) */\n      swap1\n      pop\n        /* \"Dcoffer/treasury.sol\":1276:1288  uint256 _fee */\n      0x00\n        /* \"Dcoffer/treasury.sol\":1291:1320  eth_amount.mul(fee).div(1000) */\n      tag_82\n        /* \"Dcoffer/treasury.sol\":1315:1319  1000 */\n      0x03e8\n        /* \"Dcoffer/treasury.sol\":1291:1310  eth_amount.mul(fee) */\n      tag_83\n        /* \"Dcoffer/treasury.sol\":1306:1309  fee */\n      sload(0x02)\n        /* \"Dcoffer/treasury.sol\":1291:1301  eth_amount */\n      dup6\n        /* \"Dcoffer/treasury.sol\":1291:1305  eth_amount.mul */\n      tag_84\n      swap1\n        /* \"Dcoffer/treasury.sol\":1291:1310  eth_amount.mul(fee) */\n      swap2\n      swap1\n      0xffffffff\n      and\n      jump\t// in\n    tag_83:\n        /* \"Dcoffer/treasury.sol\":1291:1314  eth_amount.mul(fee).div */\n      tag_71\n      swap1\n        /* \"Dcoffer/treasury.sol\":1291:1320  eth_amount.mul(fee).div(1000) */\n      swap2\n      swap1\n      0xffffffff\n      and\n      jump\t// in\n    tag_82:\n        /* \"Dcoffer/treasury.sol\":1276:1320  uint256 _fee = eth_amount.mul(fee).div(1000) */\n      swap1\n      pop\n        /* \"Dcoffer/treasury.sol\":1337:1352  admin.add(_fee) */\n      tag_85\n        /* \"Dcoffer/treasury.sol\":1347:1351  _fee */\n      dup2\n        /* \"Dcoffer/treasury.sol\":1337:1342  admin */\n      sload(0x04)\n        /* \"Dcoffer/treasury.sol\":1337:1346  admin.add */\n      tag_62\n      swap1\n        /* \"Dcoffer/treasury.sol\":1337:1352  admin.add(_fee) */\n      swap2\n      swap1\n      0xffffffff\n      and\n      jump\t// in\n    tag_85:\n        /* \"Dcoffer/treasury.sol\":1329:1334  admin */\n      0x04\n        /* \"Dcoffer/treasury.sol\":1329:1352  admin = admin.add(_fee) */\n      dup2\n      swap1\n      sstore\n      pop\n        /* \"Dcoffer/treasury.sol\":1374:1394  eth_amount.sub(_fee) */\n      tag_86\n        /* \"Dcoffer/treasury.sol\":1389:1393  _fee */\n      dup2\n        /* \"Dcoffer/treasury.sol\":1374:1384  eth_amount */\n      dup4\n        /* \"Dcoffer/treasury.sol\":1374:1388  eth_amount.sub */\n      tag_54\n      swap1\n        /* \"Dcoffer/treasury.sol\":1374:1394  eth_amount.sub(_fee) */\n      swap2\n      swap1\n      0xffffffff\n      and\n      jump\t// in\n    tag_86:\n        /* \"Dcoffer/treasury.sol\":1361:1394  eth_amount = eth_amount.sub(_fee) */\n      swap2\n      pop\n        /* \"Dcoffer/treasury.sol\":1409:1415  seller */\n      dup4\n        /* \"Dcoffer/treasury.sol\":1409:1424  seller.transfer */\n      0xffffffffffffffffffffffffffffffffffffffff\n      and\n        /* \"Dcoffer/treasury.sol\":1409:1436  seller.transfer(eth_amount) */\n      0x08fc\n        /* \"Dcoffer/treasury.sol\":1425:1435  eth_amount */\n      dup4\n        /* \"Dcoffer/treasury.sol\":1409:1436  seller.transfer(eth_amount) */\n      swap1\n      dup2\n      iszero\n      mul\n      swap1\n      mload(0x40)\n      0x00\n      mload(0x40)\n      dup1\n      dup4\n      sub\n      dup2\n      dup6\n      dup9\n      dup9\n      call\n      swap4\n      pop\n      pop\n      pop\n      pop\n      iszero\n      dup1\n      iszero\n      tag_88\n      jumpi\n      returndatasize\n      0x00\n      dup1\n      returndatacopy\n      revert(0x00, returndatasize)\n    tag_88:\n      pop\n        /* \"Dcoffer/treasury.sol\":1445:1450  dcoff */\n      0x00\n      dup1\n      sload\n      swap1\n      0x0100\n      exp\n      swap1\n      div\n      0xffffffffffffffffffffffffffffffffffffffff\n      and\n        /* \"Dcoffer/treasury.sol\":1445:1463  dcoff.transferFrom */\n      0xffffffffffffffffffffffffffffffffffffffff\n      and\n      0x23b872dd\n        /* \"Dcoffer/treasury.sol\":1464:1470  seller */\n      dup6\n        /* \"Dcoffer/treasury.sol\":1479:1483  this */\n      address\n        /* \"Dcoffer/treasury.sol\":1485:1495  dcf_amount */\n      dup7\n        /* \"Dcoffer/treasury.sol\":1445:1496  dcoff.transferFrom(seller,address(this),dcf_amount) */\n      mload(0x40)\n      dup5\n      0xffffffff\n      and\n      0xe0\n      shl\n      dup2\n      mstore\n      0x04\n      add\n      tag_89\n      swap4\n      swap3\n      swap2\n      swap1\n      tag_90\n      jump\t// in\n    tag_89:\n      0x20\n      mload(0x40)\n      dup1\n      dup4\n      sub\n      dup2\n      0x00\n      dup8\n      gas\n      call\n      iszero\n      dup1\n      iszero\n      tag_92\n      jumpi\n      returndatasize\n      0x00\n      dup1\n      returndatacopy\n      revert(0x00, returndatasize)\n    tag_92:\n      pop\n      pop\n      pop\n      pop\n      mload(0x40)\n      returndatasize\n      not(0x1f)\n      0x1f\n      dup3\n      add\n      and\n      dup3\n      add\n      dup1\n      0x40\n      mstore\n      pop\n      dup2\n      add\n      swap1\n      tag_93\n      swap2\n      swap1\n      tag_94\n      jump\t// in\n    tag_93:\n      pop\n        /* \"Dcoffer/treasury.sol\":1525:1546  address(this).balance */\n      selfbalance\n        /* \"Dcoffer/treasury.sol\":1510:1522  last_balance */\n      0x03\n        /* \"Dcoffer/treasury.sol\":1510:1546  last_balance = address(this).balance */\n      dup2\n      swap1\n      sstore\n      pop\n        /* \"Dcoffer/treasury.sol\":1564:1641  price(last_balance.sub(admin),dcoff.balanceOf(address(this)),block.timestamp) */\n      0x2071a9f40fdef4ea79c384be80fd89a3c0cec179fb2bdc12db4dcec9d3f246c6\n        /* \"Dcoffer/treasury.sol\":1570:1593  last_balance.sub(admin) */\n      tag_95\n        /* \"Dcoffer/treasury.sol\":1587:1592  admin */\n      sload(0x04)\n        /* \"Dcoffer/treasury.sol\":1570:1582  last_balance */\n      sload(0x03)\n        /* \"Dcoffer/treasury.sol\":1570:1586  last_balance.sub */\n      tag_54\n      swap1\n        /* \"Dcoffer/treasury.sol\":1570:1593  last_balance.sub(admin) */\n      swap2\n      swap1\n      0xffffffff\n      and\n      jump\t// in\n    tag_95:\n        /* \"Dcoffer/treasury.sol\":1594:1599  dcoff */\n      0x00\n      dup1\n      sload\n      swap1\n      0x0100\n      exp\n      swap1\n      div\n      0xffffffffffffffffffffffffffffffffffffffff\n      and\n        /* \"Dcoffer/treasury.sol\":1594:1609  dcoff.balanceOf */\n      0xffffffffffffffffffffffffffffffffffffffff\n      and\n      0x70a08231\n        /* \"Dcoffer/treasury.sol\":1618:1622  this */\n      address\n        /* \"Dcoffer/treasury.sol\":1594:1624  dcoff.balanceOf(address(this)) */\n      mload(0x40)\n      dup3\n      0xffffffff\n      and\n      0xe0\n      shl\n      dup2\n      mstore\n      0x04\n      add\n      tag_96\n      swap2\n      swap1\n      tag_56\n      jump\t// in\n    tag_96:\n      0x20\n      mload(0x40)\n      dup1\n      dup4\n      sub\n      dup2\n      dup7\n      gas\n      staticcall\n      iszero\n      dup1\n      iszero\n      tag_98\n      jumpi\n      returndatasize\n      0x00\n      dup1\n      returndatacopy\n      revert(0x00, returndatasize)\n    tag_98:\n      pop\n      pop\n      pop\n      pop\n      mload(0x40)\n      returndatasize\n      not(0x1f)\n      0x1f\n      dup3\n      add\n      and\n      dup3\n      add\n      dup1\n      0x40\n      mstore\n      pop\n      dup2\n      add\n      swap1\n      tag_99\n      swap2\n      swap1\n      tag_60\n      jump\t// in\n    tag_99:\n        /* \"Dcoffer/treasury.sol\":1625:1640  block.timestamp */\n      timestamp\n        /* \"Dcoffer/treasury.sol\":1564:1641  price(last_balance.sub(admin),dcoff.balanceOf(address(this)),block.timestamp) */\n      mload(0x40)\n      tag_100\n      swap4\n      swap3\n      swap2\n      swap1\n      tag_101\n      jump\t// in\n    tag_100:\n      mload(0x40)\n      dup1\n      swap2\n      sub\n      swap1\n      log1\n        /* \"Dcoffer/treasury.sol\":1112:1651  {... */\n      pop\n      pop\n        /* \"Dcoffer/treasury.sol\":1044:1651  function market(address payable seller, uint256 dcf_amount)external {... */\n      pop\n      pop\n      jump\t// out\n        /* \"Dcoffer/treasury.sol\":2130:2490  function ETH_DCF(uint256 eth_amount)public view returns(uint256){... */\n    tag_30:\n        /* \"Dcoffer/treasury.sol\":2186:2193  uint256 */\n      0x00\n        /* \"Dcoffer/treasury.sol\":2201:2220  uint256 _eth_amount */\n      dup1\n        /* \"Dcoffer/treasury.sol\":2223:2246  last_balance.sub(admin) */\n      tag_103\n        /* \"Dcoffer/treasury.sol\":2240:2245  admin */\n      sload(0x04)\n        /* \"Dcoffer/treasury.sol\":2223:2235  last_balance */\n      sload(0x03)\n        /* \"Dcoffer/treasury.sol\":2223:2239  last_balance.sub */\n      tag_54\n      swap1\n        /* \"Dcoffer/treasury.sol\":2223:2246  last_balance.sub(admin) */\n      swap2\n      swap1\n      0xffffffff\n      and\n      jump\t// in\n    tag_103:\n        /* \"Dcoffer/treasury.sol\":2201:2246  uint256 _eth_amount = last_balance.sub(admin) */\n      swap1\n      pop\n        /* \"Dcoffer/treasury.sol\":2253:2272  uint256 _dcf_amount */\n      0x00\n        /* \"Dcoffer/treasury.sol\":2275:2280  dcoff */\n      dup1\n      0x00\n      swap1\n      sload\n      swap1\n      0x0100\n      exp\n      swap1\n      div\n      0xffffffffffffffffffffffffffffffffffffffff\n      and\n        /* \"Dcoffer/treasury.sol\":2275:2290  dcoff.balanceOf */\n      0xffffffffffffffffffffffffffffffffffffffff\n      and\n      0x70a08231\n        /* \"Dcoffer/treasury.sol\":2299:2303  this */\n      address\n        /* \"Dcoffer/treasury.sol\":2275:2305  dcoff.balanceOf(address(this)) */\n      mload(0x40)\n      dup3\n      0xffffffff\n      and\n      0xe0\n      shl\n      dup2\n      mstore\n      0x04\n      add\n      tag_104\n      swap2\n      swap1\n      tag_56\n      jump\t// in\n    tag_104:\n      0x20\n      mload(0x40)\n      dup1\n      dup4\n      sub\n      dup2\n      dup7\n      gas\n      staticcall\n      iszero\n      dup1\n      iszero\n      tag_106\n      jumpi\n      returndatasize\n      0x00\n      dup1\n      returndatacopy\n      revert(0x00, returndatasize)\n    tag_106:\n      pop\n      pop\n      pop\n      pop\n      mload(0x40)\n      returndatasize\n      not(0x1f)\n      0x1f\n      dup3\n      add\n      and\n      dup3\n      add\n      dup1\n      0x40\n      mstore\n      pop\n      dup2\n      add\n      swap1\n      tag_107\n      swap2\n      swap1\n      tag_60\n      jump\t// in\n    tag_107:\n        /* \"Dcoffer/treasury.sol\":2253:2305  uint256 _dcf_amount = dcoff.balanceOf(address(this)) */\n      swap1\n      pop\n        /* \"Dcoffer/treasury.sol\":2312:2332  uint256 Variable_eth */\n      0x00\n        /* \"Dcoffer/treasury.sol\":2335:2362  _eth_amount.add(eth_amount) */\n      tag_108\n        /* \"Dcoffer/treasury.sol\":2351:2361  eth_amount */\n      dup6\n        /* \"Dcoffer/treasury.sol\":2335:2346  _eth_amount */\n      dup5\n        /* \"Dcoffer/treasury.sol\":2335:2350  _eth_amount.add */\n      tag_62\n      swap1\n        /* \"Dcoffer/treasury.sol\":2335:2362  _eth_amount.add(eth_amount) */\n      swap2\n      swap1\n      0xffffffff\n      and\n      jump\t// in\n    tag_108:\n        /* \"Dcoffer/treasury.sol\":2312:2362  uint256 Variable_eth = _eth_amount.add(eth_amount) */\n      swap1\n      pop\n        /* \"Dcoffer/treasury.sol\":2369:2389  uint256 Variable_dcf */\n      0x00\n        /* \"Dcoffer/treasury.sol\":2392:2411  K.div(Variable_eth) */\n      tag_109\n        /* \"Dcoffer/treasury.sol\":2398:2410  Variable_eth */\n      dup3\n        /* \"Dcoffer/treasury.sol\":2392:2393  K */\n      sload(0x01)\n        /* \"Dcoffer/treasury.sol\":2392:2397  K.div */\n      tag_71\n      swap1\n        /* \"Dcoffer/treasury.sol\":2392:2411  K.div(Variable_eth) */\n      swap2\n      swap1\n      0xffffffff\n      and\n      jump\t// in\n    tag_109:\n        /* \"Dcoffer/treasury.sol\":2369:2411  uint256 Variable_dcf = K.div(Variable_eth) */\n      swap1\n      pop\n        /* \"Dcoffer/treasury.sol\":2418:2432  uint256 _price */\n      0x00\n        /* \"Dcoffer/treasury.sol\":2435:2464  _dcf_amount.sub(Variable_dcf) */\n      tag_110\n        /* \"Dcoffer/treasury.sol\":2451:2463  Variable_dcf */\n      dup3\n        /* \"Dcoffer/treasury.sol\":2435:2446  _dcf_amount */\n      dup6\n        /* \"Dcoffer/treasury.sol\":2435:2450  _dcf_amount.sub */\n      tag_54\n      swap1\n        /* \"Dcoffer/treasury.sol\":2435:2464  _dcf_amount.sub(Variable_dcf) */\n      swap2\n      swap1\n      0xffffffff\n      and\n      jump\t// in\n    tag_110:\n        /* \"Dcoffer/treasury.sol\":2418:2464  uint256 _price = _dcf_amount.sub(Variable_dcf) */\n      swap1\n      pop\n        /* \"Dcoffer/treasury.sol\":2478:2484  _price */\n      dup1\n        /* \"Dcoffer/treasury.sol\":2471:2484  return _price */\n      swap6\n      pop\n      pop\n      pop\n      pop\n      pop\n      pop\n        /* \"Dcoffer/treasury.sol\":2130:2490  function ETH_DCF(uint256 eth_amount)public view returns(uint256){... */\n      swap2\n      swap1\n      pop\n      jump\t// out\n        /* \"Dcoffer/treasury.sol\":818:920  function setRouter(address user, bool power)external onlyOwner{... */\n    tag_36:\n        /* \"Dcoffer/treasury.sol\":745:755  msg.sender */\n      caller\n        /* \"Dcoffer/treasury.sol\":736:755  owner == msg.sender */\n      0xffffffffffffffffffffffffffffffffffffffff\n      and\n        /* \"Dcoffer/treasury.sol\":736:741  owner */\n      0x05\n      0x00\n      swap1\n      sload\n      swap1\n      0x0100\n      exp\n      swap1\n      div\n      0xffffffffffffffffffffffffffffffffffffffff\n      and\n        /* \"Dcoffer/treasury.sol\":736:755  owner == msg.sender */\n      0xffffffffffffffffffffffffffffffffffffffff\n      and\n      eq\n        /* \"Dcoffer/treasury.sol\":728:792  require(owner == msg.sender, \"Ownable: caller is not the owner\") */\n      tag_112\n      jumpi\n      mload(0x40)\n      0x08c379a000000000000000000000000000000000000000000000000000000000\n      dup2\n      mstore\n      0x04\n      add\n      tag_113\n      swap1\n      tag_48\n      jump\t// in\n    tag_113:\n      mload(0x40)\n      dup1\n      swap2\n      sub\n      swap1\n      revert\n    tag_112:\n        /* \"Dcoffer/treasury.sol\":909:914  power */\n      dup1\n        /* \"Dcoffer/treasury.sol\":889:900  RouterAdmin */\n      0x06\n        /* \"Dcoffer/treasury.sol\":889:906  RouterAdmin[user] */\n      0x00\n        /* \"Dcoffer/treasury.sol\":901:905  user */\n      dup5\n        /* \"Dcoffer/treasury.sol\":889:906  RouterAdmin[user] */\n      0xffffffffffffffffffffffffffffffffffffffff\n      and\n      0xffffffffffffffffffffffffffffffffffffffff\n      and\n      dup2\n      mstore\n      0x20\n      add\n      swap1\n      dup2\n      mstore\n      0x20\n      add\n      0x00\n      keccak256\n      0x00\n        /* \"Dcoffer/treasury.sol\":889:914  RouterAdmin[user] = power */\n      0x0100\n      exp\n      dup2\n      sload\n      dup2\n      0xff\n      mul\n      not\n      and\n      swap1\n      dup4\n      iszero\n      iszero\n      mul\n      or\n      swap1\n      sstore\n      pop\n        /* \"Dcoffer/treasury.sol\":818:920  function setRouter(address user, bool power)external onlyOwner{... */\n      pop\n      pop\n      jump\t// out\n        /* \"Dcoffer/treasury.sol\":928:1036  function deposit()external payable{... */\n    tag_38:\n        /* \"Dcoffer/treasury.sol\":1006:1010  true */\n      0x01\n        /* \"Dcoffer/treasury.sol\":979:1010  RouterAdmin[msg.sender] == true */\n      iszero\n      iszero\n        /* \"Dcoffer/treasury.sol\":979:990  RouterAdmin */\n      0x06\n        /* \"Dcoffer/treasury.sol\":979:1002  RouterAdmin[msg.sender] */\n      0x00\n        /* \"Dcoffer/treasury.sol\":991:1001  msg.sender */\n      caller\n        /* \"Dcoffer/treasury.sol\":979:1002  RouterAdmin[msg.sender] */\n      0xffffffffffffffffffffffffffffffffffffffff\n      and\n      0xffffffffffffffffffffffffffffffffffffffff\n      and\n      dup2\n      mstore\n      0x20\n      add\n      swap1\n      dup2\n      mstore\n      0x20\n      add\n      0x00\n      keccak256\n      0x00\n      swap1\n      sload\n      swap1\n      0x0100\n      exp\n      swap1\n      div\n      0xff\n      and\n        /* \"Dcoffer/treasury.sol\":979:1010  RouterAdmin[msg.sender] == true */\n      iszero\n      iszero\n      eq\n        /* \"Dcoffer/treasury.sol\":971:1011  require(RouterAdmin[msg.sender] == true) */\n      tag_116\n      jumpi\n      0x00\n      dup1\n      revert\n    tag_116:\n        /* \"Dcoffer/treasury.sol\":928:1036  function deposit()external payable{... */\n      jump\t// out\n        /* \"Dcoffer/treasury.sol\":2503:2665  function Warning_protect()external onlyOwner{... */\n    tag_41:\n        /* \"Dcoffer/treasury.sol\":745:755  msg.sender */\n      caller\n        /* \"Dcoffer/treasury.sol\":736:755  owner == msg.sender */\n      0xffffffffffffffffffffffffffffffffffffffff\n      and\n        /* \"Dcoffer/treasury.sol\":736:741  owner */\n      0x05\n      0x00\n      swap1\n      sload\n      swap1\n      0x0100\n      exp\n      swap1\n      div\n      0xffffffffffffffffffffffffffffffffffffffff\n      and\n        /* \"Dcoffer/treasury.sol\":736:755  owner == msg.sender */\n      0xffffffffffffffffffffffffffffffffffffffff\n      and\n      eq\n        /* \"Dcoffer/treasury.sol\":728:792  require(owner == msg.sender, \"Ownable: caller is not the owner\") */\n      tag_118\n      jumpi\n      mload(0x40)\n      0x08c379a000000000000000000000000000000000000000000000000000000000\n      dup2\n      mstore\n      0x04\n      add\n      tag_119\n      swap1\n      tag_48\n      jump\t// in\n    tag_119:\n      mload(0x40)\n      dup1\n      swap2\n      sub\n      swap1\n      revert\n    tag_118:\n        /* \"Dcoffer/treasury.sol\":2562:2567  owner */\n      0x05\n      0x00\n      swap1\n      sload\n      swap1\n      0x0100\n      exp\n      swap1\n      div\n      0xffffffffffffffffffffffffffffffffffffffff\n      and\n        /* \"Dcoffer/treasury.sol\":2554:2577  payable(owner).transfer */\n      0xffffffffffffffffffffffffffffffffffffffff\n      and\n        /* \"Dcoffer/treasury.sol\":2554:2600  payable(owner).transfer(address(this).balance) */\n      0x08fc\n        /* \"Dcoffer/treasury.sol\":2578:2599  address(this).balance */\n      selfbalance\n        /* \"Dcoffer/treasury.sol\":2554:2600  payable(owner).transfer(address(this).balance) */\n      swap1\n      dup2\n      iszero\n      mul\n      swap1\n      mload(0x40)\n      0x00\n      mload(0x40)\n      dup1\n      dup4\n      sub\n      dup2\n      dup6\n      dup9\n      dup9\n      call\n      swap4\n      pop\n      pop\n      pop\n      pop\n      iszero\n      dup1\n      iszero\n      tag_122\n      jumpi\n      returndatasize\n      0x00\n      dup1\n      returndatacopy\n      revert(0x00, returndatasize)\n    tag_122:\n      pop\n        /* \"Dcoffer/treasury.sol\":2607:2612  dcoff */\n      0x00\n      dup1\n      sload\n      swap1\n      0x0100\n      exp\n      swap1\n      div\n      0xffffffffffffffffffffffffffffffffffffffff\n      and\n        /* \"Dcoffer/treasury.sol\":2607:2621  dcoff.transfer */\n      0xffffffffffffffffffffffffffffffffffffffff\n      and\n      0xa9059cbb\n        /* \"Dcoffer/treasury.sol\":2622:2627  owner */\n      0x05\n      0x00\n      swap1\n      sload\n      swap1\n      0x0100\n      exp\n      swap1\n      div\n      0xffffffffffffffffffffffffffffffffffffffff\n      and\n        /* \"Dcoffer/treasury.sol\":2628:2633  dcoff */\n      0x00\n      dup1\n      sload\n      swap1\n      0x0100\n      exp\n      swap1\n      div\n      0xffffffffffffffffffffffffffffffffffffffff\n      and\n        /* \"Dcoffer/treasury.sol\":2628:2643  dcoff.balanceOf */\n      0xffffffffffffffffffffffffffffffffffffffff\n      and\n      0x70a08231\n        /* \"Dcoffer/treasury.sol\":2652:2656  this */\n      address\n        /* \"Dcoffer/treasury.sol\":2628:2658  dcoff.balanceOf(address(this)) */\n      mload(0x40)\n      dup3\n      0xffffffff\n      and\n      0xe0\n      shl\n      dup2\n      mstore\n      0x04\n      add\n      tag_123\n      swap2\n      swap1\n      tag_56\n      jump\t// in\n    tag_123:\n      0x20\n      mload(0x40)\n      dup1\n      dup4\n      sub\n      dup2\n      dup7\n      gas\n      staticcall\n      iszero\n      dup1\n      iszero\n      tag_125\n      jumpi\n      returndatasize\n      0x00\n      dup1\n      returndatacopy\n      revert(0x00, returndatasize)\n    tag_125:\n      pop\n      pop\n      pop\n      pop\n      mload(0x40)\n      returndatasize\n      not(0x1f)\n      0x1f\n      dup3\n      add\n      and\n      dup3\n      add\n      dup1\n      0x40\n      mstore\n      pop\n      dup2\n      add\n      swap1\n      tag_126\n      swap2\n      swap1\n      tag_60\n      jump\t// in\n    tag_126:\n        /* \"Dcoffer/treasury.sol\":2607:2659  dcoff.transfer(owner,dcoff.balanceOf(address(this))) */\n      mload(0x40)\n      dup4\n      0xffffffff\n      and\n      0xe0\n      shl\n      dup2\n      mstore\n      0x04\n      add\n      tag_127\n      swap3\n      swap2\n      swap1\n      tag_128\n      jump\t// in\n    tag_127:\n      0x20\n      mload(0x40)\n      dup1\n      dup4\n      sub\n      dup2\n      0x00\n      dup8\n      gas\n      call\n      iszero\n      dup1\n      iszero\n      tag_130\n      jumpi\n      returndatasize\n      0x00\n      dup1\n      returndatacopy\n      revert(0x00, returndatasize)\n    tag_130:\n      pop\n      pop\n      pop\n      pop\n      mload(0x40)\n      returndatasize\n      not(0x1f)\n      0x1f\n      dup3\n      add\n      and\n      dup3\n      add\n      dup1\n      0x40\n      mstore\n      pop\n      dup2\n      add\n      swap1\n      tag_131\n      swap2\n      swap1\n      tag_94\n      jump\t// in\n    tag_131:\n      pop\n        /* \"Dcoffer/treasury.sol\":2503:2665  function Warning_protect()external onlyOwner{... */\n      jump\t// out\n        /* \"Dcoffer/treasury.sol\":2673:2771  function admin_fee()external onlyOwner{... */\n    tag_44:\n        /* \"Dcoffer/treasury.sol\":745:755  msg.sender */\n      caller\n        /* \"Dcoffer/treasury.sol\":736:755  owner == msg.sender */\n      0xffffffffffffffffffffffffffffffffffffffff\n      and\n        /* \"Dcoffer/treasury.sol\":736:741  owner */\n      0x05\n      0x00\n      swap1\n      sload\n      swap1\n      0x0100\n      exp\n      swap1\n      div\n      0xffffffffffffffffffffffffffffffffffffffff\n      and\n        /* \"Dcoffer/treasury.sol\":736:755  owner == msg.sender */\n      0xffffffffffffffffffffffffffffffffffffffff\n      and\n      eq\n        /* \"Dcoffer/treasury.sol\":728:792  require(owner == msg.sender, \"Ownable: caller is not the owner\") */\n      tag_133\n      jumpi\n      mload(0x40)\n      0x08c379a000000000000000000000000000000000000000000000000000000000\n      dup2\n      mstore\n      0x04\n      add\n      tag_134\n      swap1\n      tag_48\n      jump\t// in\n    tag_134:\n      mload(0x40)\n      dup1\n      swap2\n      sub\n      swap1\n      revert\n    tag_133:\n        /* \"Dcoffer/treasury.sol\":2726:2731  owner */\n      0x05\n      0x00\n      swap1\n      sload\n      swap1\n      0x0100\n      exp\n      swap1\n      div\n      0xffffffffffffffffffffffffffffffffffffffff\n      and\n        /* \"Dcoffer/treasury.sol\":2718:2741  payable(owner).transfer */\n      0xffffffffffffffffffffffffffffffffffffffff\n      and\n        /* \"Dcoffer/treasury.sol\":2718:2748  payable(owner).transfer(admin) */\n      0x08fc\n        /* \"Dcoffer/treasury.sol\":2742:2747  admin */\n      sload(0x04)\n        /* \"Dcoffer/treasury.sol\":2718:2748  payable(owner).transfer(admin) */\n      swap1\n      dup2\n      iszero\n      mul\n      swap1\n      mload(0x40)\n      0x00\n      mload(0x40)\n      dup1\n      dup4\n      sub\n      dup2\n      dup6\n      dup9\n      dup9\n      call\n      swap4\n      pop\n      pop\n      pop\n      pop\n      iszero\n      dup1\n      iszero\n      tag_137\n      jumpi\n      returndatasize\n      0x00\n      dup1\n      returndatacopy\n      revert(0x00, returndatasize)\n    tag_137:\n      pop\n        /* \"Dcoffer/treasury.sol\":2763:2764  0 */\n      0x00\n        /* \"Dcoffer/treasury.sol\":2755:2760  admin */\n      0x04\n        /* \"Dcoffer/treasury.sol\":2755:2764  admin = 0 */\n      dup2\n      swap1\n      sstore\n      pop\n        /* \"Dcoffer/treasury.sol\":2673:2771  function admin_fee()external onlyOwner{... */\n      jump\t// out\n        /* \"@openzeppelin/contracts/utils/math/SafeMath.sol\":3122:3218  function sub(uint256 a, uint256 b) internal pure returns (uint256) {... */\n    tag_54:\n        /* \"@openzeppelin/contracts/utils/math/SafeMath.sol\":3180:3187  uint256 */\n      0x00\n        /* \"@openzeppelin/contracts/utils/math/SafeMath.sol\":3210:3211  b */\n      dup2\n        /* \"@openzeppelin/contracts/utils/math/SafeMath.sol\":3206:3207  a */\n      dup4\n        /* \"@openzeppelin/contracts/utils/math/SafeMath.sol\":3206:3211  a - b */\n      tag_139\n      swap2\n      swap1\n      tag_140\n      jump\t// in\n    tag_139:\n        /* \"@openzeppelin/contracts/utils/math/SafeMath.sol\":3199:3211  return a - b */\n      swap1\n      pop\n        /* \"@openzeppelin/contracts/utils/math/SafeMath.sol\":3122:3218  function sub(uint256 a, uint256 b) internal pure returns (uint256) {... */\n      swap3\n      swap2\n      pop\n      pop\n      jump\t// out\n        /* \"@openzeppelin/contracts/utils/math/SafeMath.sol\":2755:2851  function add(uint256 a, uint256 b) internal pure returns (uint256) {... */\n    tag_62:\n        /* \"@openzeppelin/contracts/utils/math/SafeMath.sol\":2813:2820  uint256 */\n      0x00\n        /* \"@openzeppelin/contracts/utils/math/SafeMath.sol\":2843:2844  b */\n      dup2\n        /* \"@openzeppelin/contracts/utils/math/SafeMath.sol\":2839:2840  a */\n      dup4\n        /* \"@openzeppelin/contracts/utils/math/SafeMath.sol\":2839:2844  a + b */\n      tag_142\n      swap2\n      swap1\n      tag_143\n      jump\t// in\n    tag_142:\n        /* \"@openzeppelin/contracts/utils/math/SafeMath.sol\":2832:2844  return a + b */\n      swap1\n      pop\n        /* \"@openzeppelin/contracts/utils/math/SafeMath.sol\":2755:2851  function add(uint256 a, uint256 b) internal pure returns (uint256) {... */\n      swap3\n      swap2\n      pop\n      pop\n      jump\t// out\n        /* \"@openzeppelin/contracts/utils/math/SafeMath.sol\":3850:3946  function div(uint256 a, uint256 b) internal pure returns (uint256) {... */\n    tag_71:\n        /* \"@openzeppelin/contracts/utils/math/SafeMath.sol\":3908:3915  uint256 */\n      0x00\n        /* \"@openzeppelin/contracts/utils/math/SafeMath.sol\":3938:3939  b */\n      dup2\n        /* \"@openzeppelin/contracts/utils/math/SafeMath.sol\":3934:3935  a */\n      dup4\n        /* \"@openzeppelin/contracts/utils/math/SafeMath.sol\":3934:3939  a / b */\n      tag_145\n      swap2\n      swap1\n      tag_146\n      jump\t// in\n    tag_145:\n        /* \"@openzeppelin/contracts/utils/math/SafeMath.sol\":3927:3939  return a / b */\n      swap1\n      pop\n        /* \"@openzeppelin/contracts/utils/math/SafeMath.sol\":3850:3946  function div(uint256 a, uint256 b) internal pure returns (uint256) {... */\n      swap3\n      swap2\n      pop\n      pop\n      jump\t// out\n        /* \"@openzeppelin/contracts/utils/math/SafeMath.sol\":3465:3561  function mul(uint256 a, uint256 b) internal pure returns (uint256) {... */\n    tag_84:\n        /* \"@openzeppelin/contracts/utils/math/SafeMath.sol\":3523:3530  uint256 */\n      0x00\n        /* \"@openzeppelin/contracts/utils/math/SafeMath.sol\":3553:3554  b */\n      dup2\n        /* \"@openzeppelin/contracts/utils/math/SafeMath.sol\":3549:3550  a */\n      dup4\n        /* \"@openzeppelin/contracts/utils/math/SafeMath.sol\":3549:3554  a * b */\n      tag_148\n      swap2\n      swap1\n      tag_149\n      jump\t// in\n    tag_148:\n        /* \"@openzeppelin/contracts/utils/math/SafeMath.sol\":3542:3554  return a * b */\n      swap1\n      pop\n        /* \"@openzeppelin/contracts/utils/math/SafeMath.sol\":3465:3561  function mul(uint256 a, uint256 b) internal pure returns (uint256) {... */\n      swap3\n      swap2\n      pop\n      pop\n      jump\t// out\n        /* \"#utility.yul\":7:84   */\n    tag_150:\n        /* \"#utility.yul\":44:51   */\n      0x00\n        /* \"#utility.yul\":73:78   */\n      dup2\n        /* \"#utility.yul\":62:78   */\n      swap1\n      pop\n        /* \"#utility.yul\":7:84   */\n      swap2\n      swap1\n      pop\n      jump\t// out\n        /* \"#utility.yul\":90:208   */\n    tag_151:\n        /* \"#utility.yul\":177:201   */\n      tag_183\n        /* \"#utility.yul\":195:200   */\n      dup2\n        /* \"#utility.yul\":177:201   */\n      tag_150\n      jump\t// in\n    tag_183:\n        /* \"#utility.yul\":172:175   */\n      dup3\n        /* \"#utility.yul\":165:202   */\n      mstore\n        /* \"#utility.yul\":90:208   */\n      pop\n      pop\n      jump\t// out\n        /* \"#utility.yul\":214:436   */\n    tag_15:\n        /* \"#utility.yul\":307:311   */\n      0x00\n        /* \"#utility.yul\":345:347   */\n      0x20\n        /* \"#utility.yul\":334:343   */\n      dup3\n        /* \"#utility.yul\":330:348   */\n      add\n        /* \"#utility.yul\":322:348   */\n      swap1\n      pop\n        /* \"#utility.yul\":358:429   */\n      tag_185\n        /* \"#utility.yul\":426:427   */\n      0x00\n        /* \"#utility.yul\":415:424   */\n      dup4\n        /* \"#utility.yul\":411:428   */\n      add\n        /* \"#utility.yul\":402:408   */\n      dup5\n        /* \"#utility.yul\":358:429   */\n      tag_151\n      jump\t// in\n    tag_185:\n        /* \"#utility.yul\":214:436   */\n      swap3\n      swap2\n      pop\n      pop\n      jump\t// out\n        /* \"#utility.yul\":523:640   */\n    tag_153:\n        /* \"#utility.yul\":632:633   */\n      0x00\n        /* \"#utility.yul\":629:630   */\n      dup1\n        /* \"#utility.yul\":622:634   */\n      revert\n        /* \"#utility.yul\":769:891   */\n    tag_155:\n        /* \"#utility.yul\":842:866   */\n      tag_190\n        /* \"#utility.yul\":860:865   */\n      dup2\n        /* \"#utility.yul\":842:866   */\n      tag_150\n      jump\t// in\n    tag_190:\n        /* \"#utility.yul\":835:840   */\n      dup2\n        /* \"#utility.yul\":832:867   */\n      eq\n        /* \"#utility.yul\":822:885   */\n      tag_191\n      jumpi\n        /* \"#utility.yul\":881:882   */\n      0x00\n        /* \"#utility.yul\":878:879   */\n      dup1\n        /* \"#utility.yul\":871:883   */\n      revert\n        /* \"#utility.yul\":822:885   */\n    tag_191:\n        /* \"#utility.yul\":769:891   */\n      pop\n      jump\t// out\n        /* \"#utility.yul\":897:1036   */\n    tag_156:\n        /* \"#utility.yul\":943:948   */\n      0x00\n        /* \"#utility.yul\":981:987   */\n      dup2\n        /* \"#utility.yul\":968:988   */\n      calldataload\n        /* \"#utility.yul\":959:988   */\n      swap1\n      pop\n        /* \"#utility.yul\":997:1030   */\n      tag_193\n        /* \"#utility.yul\":1024:1029   */\n      dup2\n        /* \"#utility.yul\":997:1030   */\n      tag_155\n      jump\t// in\n    tag_193:\n        /* \"#utility.yul\":897:1036   */\n      swap3\n      swap2\n      pop\n      pop\n      jump\t// out\n        /* \"#utility.yul\":1042:1371   */\n    tag_19:\n        /* \"#utility.yul\":1101:1107   */\n      0x00\n        /* \"#utility.yul\":1150:1152   */\n      0x20\n        /* \"#utility.yul\":1138:1147   */\n      dup3\n        /* \"#utility.yul\":1129:1136   */\n      dup5\n        /* \"#utility.yul\":1125:1148   */\n      sub\n        /* \"#utility.yul\":1121:1153   */\n      slt\n        /* \"#utility.yul\":1118:1237   */\n      iszero\n      tag_195\n      jumpi\n        /* \"#utility.yul\":1156:1235   */\n      tag_196\n      tag_153\n      jump\t// in\n    tag_196:\n        /* \"#utility.yul\":1118:1237   */\n    tag_195:\n        /* \"#utility.yul\":1276:1277   */\n      0x00\n        /* \"#utility.yul\":1301:1354   */\n      tag_197\n        /* \"#utility.yul\":1346:1353   */\n      dup5\n        /* \"#utility.yul\":1337:1343   */\n      dup3\n        /* \"#utility.yul\":1326:1335   */\n      dup6\n        /* \"#utility.yul\":1322:1344   */\n      add\n        /* \"#utility.yul\":1301:1354   */\n      tag_156\n      jump\t// in\n    tag_197:\n        /* \"#utility.yul\":1291:1354   */\n      swap2\n      pop\n        /* \"#utility.yul\":1247:1364   */\n      pop\n        /* \"#utility.yul\":1042:1371   */\n      swap3\n      swap2\n      pop\n      pop\n      jump\t// out\n        /* \"#utility.yul\":1377:1503   */\n    tag_157:\n        /* \"#utility.yul\":1414:1421   */\n      0x00\n        /* \"#utility.yul\":1454:1496   */\n      0xffffffffffffffffffffffffffffffffffffffff\n        /* \"#utility.yul\":1447:1452   */\n      dup3\n        /* \"#utility.yul\":1443:1497   */\n      and\n        /* \"#utility.yul\":1432:1497   */\n      swap1\n      pop\n        /* \"#utility.yul\":1377:1503   */\n      swap2\n      swap1\n      pop\n      jump\t// out\n        /* \"#utility.yul\":1509:1613   */\n    tag_158:\n        /* \"#utility.yul\":1554:1561   */\n      0x00\n        /* \"#utility.yul\":1583:1607   */\n      tag_200\n        /* \"#utility.yul\":1601:1606   */\n      dup3\n        /* \"#utility.yul\":1583:1607   */\n      tag_157\n      jump\t// in\n    tag_200:\n        /* \"#utility.yul\":1572:1607   */\n      swap1\n      pop\n        /* \"#utility.yul\":1509:1613   */\n      swap2\n      swap1\n      pop\n      jump\t// out\n        /* \"#utility.yul\":1619:1757   */\n    tag_159:\n        /* \"#utility.yul\":1700:1732   */\n      tag_202\n        /* \"#utility.yul\":1726:1731   */\n      dup2\n        /* \"#utility.yul\":1700:1732   */\n      tag_158\n      jump\t// in\n    tag_202:\n        /* \"#utility.yul\":1693:1698   */\n      dup2\n        /* \"#utility.yul\":1690:1733   */\n      eq\n        /* \"#utility.yul\":1680:1751   */\n      tag_203\n      jumpi\n        /* \"#utility.yul\":1747:1748   */\n      0x00\n        /* \"#utility.yul\":1744:1745   */\n      dup1\n        /* \"#utility.yul\":1737:1749   */\n      revert\n        /* \"#utility.yul\":1680:1751   */\n    tag_203:\n        /* \"#utility.yul\":1619:1757   */\n      pop\n      jump\t// out\n        /* \"#utility.yul\":1763:1918   */\n    tag_160:\n        /* \"#utility.yul\":1817:1822   */\n      0x00\n        /* \"#utility.yul\":1855:1861   */\n      dup2\n        /* \"#utility.yul\":1842:1862   */\n      calldataload\n        /* \"#utility.yul\":1833:1862   */\n      swap1\n      pop\n        /* \"#utility.yul\":1871:1912   */\n      tag_205\n        /* \"#utility.yul\":1906:1911   */\n      dup2\n        /* \"#utility.yul\":1871:1912   */\n      tag_159\n      jump\t// in\n    tag_205:\n        /* \"#utility.yul\":1763:1918   */\n      swap3\n      swap2\n      pop\n      pop\n      jump\t// out\n        /* \"#utility.yul\":1924:2414   */\n    tag_25:\n        /* \"#utility.yul\":2000:2006   */\n      0x00\n        /* \"#utility.yul\":2008:2014   */\n      dup1\n        /* \"#utility.yul\":2057:2059   */\n      0x40\n        /* \"#utility.yul\":2045:2054   */\n      dup4\n        /* \"#utility.yul\":2036:2043   */\n      dup6\n        /* \"#utility.yul\":2032:2055   */\n      sub\n        /* \"#utility.yul\":2028:2060   */\n      slt\n        /* \"#utility.yul\":2025:2144   */\n      iszero\n      tag_207\n      jumpi\n        /* \"#utility.yul\":2063:2142   */\n      tag_208\n      tag_153\n      jump\t// in\n    tag_208:\n        /* \"#utility.yul\":2025:2144   */\n    tag_207:\n        /* \"#utility.yul\":2183:2184   */\n      0x00\n        /* \"#utility.yul\":2208:2269   */\n      tag_209\n        /* \"#utility.yul\":2261:2268   */\n      dup6\n        /* \"#utility.yul\":2252:2258   */\n      dup3\n        /* \"#utility.yul\":2241:2250   */\n      dup7\n        /* \"#utility.yul\":2237:2259   */\n      add\n        /* \"#utility.yul\":2208:2269   */\n      tag_160\n      jump\t// in\n    tag_209:\n        /* \"#utility.yul\":2198:2269   */\n      swap3\n      pop\n        /* \"#utility.yul\":2154:2279   */\n      pop\n        /* \"#utility.yul\":2318:2320   */\n      0x20\n        /* \"#utility.yul\":2344:2397   */\n      tag_210\n        /* \"#utility.yul\":2389:2396   */\n      dup6\n        /* \"#utility.yul\":2380:2386   */\n      dup3\n        /* \"#utility.yul\":2369:2378   */\n      dup7\n        /* \"#utility.yul\":2365:2387   */\n      add\n        /* \"#utility.yul\":2344:2397   */\n      tag_156\n      jump\t// in\n    tag_210:\n        /* \"#utility.yul\":2334:2397   */\n      swap2\n      pop\n        /* \"#utility.yul\":2289:2407   */\n      pop\n        /* \"#utility.yul\":1924:2414   */\n      swap3\n      pop\n      swap3\n      swap1\n      pop\n      jump\t// out\n        /* \"#utility.yul\":2420:2516   */\n    tag_161:\n        /* \"#utility.yul\":2457:2464   */\n      0x00\n        /* \"#utility.yul\":2486:2510   */\n      tag_212\n        /* \"#utility.yul\":2504:2509   */\n      dup3\n        /* \"#utility.yul\":2486:2510   */\n      tag_157\n      jump\t// in\n    tag_212:\n        /* \"#utility.yul\":2475:2510   */\n      swap1\n      pop\n        /* \"#utility.yul\":2420:2516   */\n      swap2\n      swap1\n      pop\n      jump\t// out\n        /* \"#utility.yul\":2522:2644   */\n    tag_162:\n        /* \"#utility.yul\":2595:2619   */\n      tag_214\n        /* \"#utility.yul\":2613:2618   */\n      dup2\n        /* \"#utility.yul\":2595:2619   */\n      tag_161\n      jump\t// in\n    tag_214:\n        /* \"#utility.yul\":2588:2593   */\n      dup2\n        /* \"#utility.yul\":2585:2620   */\n      eq\n        /* \"#utility.yul\":2575:2638   */\n      tag_215\n      jumpi\n        /* \"#utility.yul\":2634:2635   */\n      0x00\n        /* \"#utility.yul\":2631:2632   */\n      dup1\n        /* \"#utility.yul\":2624:2636   */\n      revert\n        /* \"#utility.yul\":2575:2638   */\n    tag_215:\n        /* \"#utility.yul\":2522:2644   */\n      pop\n      jump\t// out\n        /* \"#utility.yul\":2650:2789   */\n    tag_163:\n        /* \"#utility.yul\":2696:2701   */\n      0x00\n        /* \"#utility.yul\":2734:2740   */\n      dup2\n        /* \"#utility.yul\":2721:2741   */\n      calldataload\n        /* \"#utility.yul\":2712:2741   */\n      swap1\n      pop\n        /* \"#utility.yul\":2750:2783   */\n      tag_217\n        /* \"#utility.yul\":2777:2782   */\n      dup2\n        /* \"#utility.yul\":2750:2783   */\n      tag_162\n      jump\t// in\n    tag_217:\n        /* \"#utility.yul\":2650:2789   */\n      swap3\n      swap2\n      pop\n      pop\n      jump\t// out\n        /* \"#utility.yul\":2795:2885   */\n    tag_164:\n        /* \"#utility.yul\":2829:2836   */\n      0x00\n        /* \"#utility.yul\":2872:2877   */\n      dup2\n        /* \"#utility.yul\":2865:2878   */\n      iszero\n        /* \"#utility.yul\":2858:2879   */\n      iszero\n        /* \"#utility.yul\":2847:2879   */\n      swap1\n      pop\n        /* \"#utility.yul\":2795:2885   */\n      swap2\n      swap1\n      pop\n      jump\t// out\n        /* \"#utility.yul\":2891:3007   */\n    tag_165:\n        /* \"#utility.yul\":2961:2982   */\n      tag_220\n        /* \"#utility.yul\":2976:2981   */\n      dup2\n        /* \"#utility.yul\":2961:2982   */\n      tag_164\n      jump\t// in\n    tag_220:\n        /* \"#utility.yul\":2954:2959   */\n      dup2\n        /* \"#utility.yul\":2951:2983   */\n      eq\n        /* \"#utility.yul\":2941:3001   */\n      tag_221\n      jumpi\n        /* \"#utility.yul\":2997:2998   */\n      0x00\n        /* \"#utility.yul\":2994:2995   */\n      dup1\n        /* \"#utility.yul\":2987:2999   */\n      revert\n        /* \"#utility.yul\":2941:3001   */\n    tag_221:\n        /* \"#utility.yul\":2891:3007   */\n      pop\n      jump\t// out\n        /* \"#utility.yul\":3013:3146   */\n    tag_166:\n        /* \"#utility.yul\":3056:3061   */\n      0x00\n        /* \"#utility.yul\":3094:3100   */\n      dup2\n        /* \"#utility.yul\":3081:3101   */\n      calldataload\n        /* \"#utility.yul\":3072:3101   */\n      swap1\n      pop\n        /* \"#utility.yul\":3110:3140   */\n      tag_223\n        /* \"#utility.yul\":3134:3139   */\n      dup2\n        /* \"#utility.yul\":3110:3140   */\n      tag_165\n      jump\t// in\n    tag_223:\n        /* \"#utility.yul\":3013:3146   */\n      swap3\n      swap2\n      pop\n      pop\n      jump\t// out\n        /* \"#utility.yul\":3152:3620   */\n    tag_35:\n        /* \"#utility.yul\":3217:3223   */\n      0x00\n        /* \"#utility.yul\":3225:3231   */\n      dup1\n        /* \"#utility.yul\":3274:3276   */\n      0x40\n        /* \"#utility.yul\":3262:3271   */\n      dup4\n        /* \"#utility.yul\":3253:3260   */\n      dup6\n        /* \"#utility.yul\":3249:3272   */\n      sub\n        /* \"#utility.yul\":3245:3277   */\n      slt\n        /* \"#utility.yul\":3242:3361   */\n      iszero\n      tag_225\n      jumpi\n        /* \"#utility.yul\":3280:3359   */\n      tag_226\n      tag_153\n      jump\t// in\n    tag_226:\n        /* \"#utility.yul\":3242:3361   */\n    tag_225:\n        /* \"#utility.yul\":3400:3401   */\n      0x00\n        /* \"#utility.yul\":3425:3478   */\n      tag_227\n        /* \"#utility.yul\":3470:3477   */\n      dup6\n        /* \"#utility.yul\":3461:3467   */\n      dup3\n        /* \"#utility.yul\":3450:3459   */\n      dup7\n        /* \"#utility.yul\":3446:3468   */\n      add\n        /* \"#utility.yul\":3425:3478   */\n      tag_163\n      jump\t// in\n    tag_227:\n        /* \"#utility.yul\":3415:3478   */\n      swap3\n      pop\n        /* \"#utility.yul\":3371:3488   */\n      pop\n        /* \"#utility.yul\":3527:3529   */\n      0x20\n        /* \"#utility.yul\":3553:3603   */\n      tag_228\n        /* \"#utility.yul\":3595:3602   */\n      dup6\n        /* \"#utility.yul\":3586:3592   */\n      dup3\n        /* \"#utility.yul\":3575:3584   */\n      dup7\n        /* \"#utility.yul\":3571:3593   */\n      add\n        /* \"#utility.yul\":3553:3603   */\n      tag_166\n      jump\t// in\n    tag_228:\n        /* \"#utility.yul\":3543:3603   */\n      swap2\n      pop\n        /* \"#utility.yul\":3498:3613   */\n      pop\n        /* \"#utility.yul\":3152:3620   */\n      swap3\n      pop\n      swap3\n      swap1\n      pop\n      jump\t// out\n        /* \"#utility.yul\":3626:3795   */\n    tag_167:\n        /* \"#utility.yul\":3710:3721   */\n      0x00\n        /* \"#utility.yul\":3744:3750   */\n      dup3\n        /* \"#utility.yul\":3739:3742   */\n      dup3\n        /* \"#utility.yul\":3732:3751   */\n      mstore\n        /* \"#utility.yul\":3784:3788   */\n      0x20\n        /* \"#utility.yul\":3779:3782   */\n      dup3\n        /* \"#utility.yul\":3775:3789   */\n      add\n        /* \"#utility.yul\":3760:3789   */\n      swap1\n      pop\n        /* \"#utility.yul\":3626:3795   */\n      swap3\n      swap2\n      pop\n      pop\n      jump\t// out\n        /* \"#utility.yul\":3801:3983   */\n    tag_168:\n        /* \"#utility.yul\":3941:3975   */\n      0x4f776e61626c653a2063616c6c6572206973206e6f7420746865206f776e6572\n        /* \"#utility.yul\":3937:3938   */\n      0x00\n        /* \"#utility.yul\":3929:3935   */\n      dup3\n        /* \"#utility.yul\":3925:3939   */\n      add\n        /* \"#utility.yul\":3918:3976   */\n      mstore\n        /* \"#utility.yul\":3801:3983   */\n      pop\n      jump\t// out\n        /* \"#utility.yul\":3989:4355   */\n    tag_169:\n        /* \"#utility.yul\":4131:4134   */\n      0x00\n        /* \"#utility.yul\":4152:4219   */\n      tag_232\n        /* \"#utility.yul\":4216:4218   */\n      0x20\n        /* \"#utility.yul\":4211:4214   */\n      dup4\n        /* \"#utility.yul\":4152:4219   */\n      tag_167\n      jump\t// in\n    tag_232:\n        /* \"#utility.yul\":4145:4219   */\n      swap2\n      pop\n        /* \"#utility.yul\":4228:4321   */\n      tag_233\n        /* \"#utility.yul\":4317:4320   */\n      dup3\n        /* \"#utility.yul\":4228:4321   */\n      tag_168\n      jump\t// in\n    tag_233:\n        /* \"#utility.yul\":4346:4348   */\n      0x20\n        /* \"#utility.yul\":4341:4344   */\n      dup3\n        /* \"#utility.yul\":4337:4349   */\n      add\n        /* \"#utility.yul\":4330:4349   */\n      swap1\n      pop\n        /* \"#utility.yul\":3989:4355   */\n      swap2\n      swap1\n      pop\n      jump\t// out\n        /* \"#utility.yul\":4361:4780   */\n    tag_48:\n        /* \"#utility.yul\":4527:4531   */\n      0x00\n        /* \"#utility.yul\":4565:4567   */\n      0x20\n        /* \"#utility.yul\":4554:4563   */\n      dup3\n        /* \"#utility.yul\":4550:4568   */\n      add\n        /* \"#utility.yul\":4542:4568   */\n      swap1\n      pop\n        /* \"#utility.yul\":4614:4623   */\n      dup2\n        /* \"#utility.yul\":4608:4612   */\n      dup2\n        /* \"#utility.yul\":4604:4624   */\n      sub\n        /* \"#utility.yul\":4600:4601   */\n      0x00\n        /* \"#utility.yul\":4589:4598   */\n      dup4\n        /* \"#utility.yul\":4585:4602   */\n      add\n        /* \"#utility.yul\":4578:4625   */\n      mstore\n        /* \"#utility.yul\":4642:4773   */\n      tag_235\n        /* \"#utility.yul\":4768:4772   */\n      dup2\n        /* \"#utility.yul\":4642:4773   */\n      tag_169\n      jump\t// in\n    tag_235:\n        /* \"#utility.yul\":4634:4773   */\n      swap1\n      pop\n        /* \"#utility.yul\":4361:4780   */\n      swap2\n      swap1\n      pop\n      jump\t// out\n        /* \"#utility.yul\":4786:4904   */\n    tag_170:\n        /* \"#utility.yul\":4873:4897   */\n      tag_237\n        /* \"#utility.yul\":4891:4896   */\n      dup2\n        /* \"#utility.yul\":4873:4897   */\n      tag_161\n      jump\t// in\n    tag_237:\n        /* \"#utility.yul\":4868:4871   */\n      dup3\n        /* \"#utility.yul\":4861:4898   */\n      mstore\n        /* \"#utility.yul\":4786:4904   */\n      pop\n      pop\n      jump\t// out\n        /* \"#utility.yul\":4910:5132   */\n    tag_56:\n        /* \"#utility.yul\":5003:5007   */\n      0x00\n        /* \"#utility.yul\":5041:5043   */\n      0x20\n        /* \"#utility.yul\":5030:5039   */\n      dup3\n        /* \"#utility.yul\":5026:5044   */\n      add\n        /* \"#utility.yul\":5018:5044   */\n      swap1\n      pop\n        /* \"#utility.yul\":5054:5125   */\n      tag_239\n        /* \"#utility.yul\":5122:5123   */\n      0x00\n        /* \"#utility.yul\":5111:5120   */\n      dup4\n        /* \"#utility.yul\":5107:5124   */\n      add\n        /* \"#utility.yul\":5098:5104   */\n      dup5\n        /* \"#utility.yul\":5054:5125   */\n      tag_170\n      jump\t// in\n    tag_239:\n        /* \"#utility.yul\":4910:5132   */\n      swap3\n      swap2\n      pop\n      pop\n      jump\t// out\n        /* \"#utility.yul\":5138:5281   */\n    tag_171:\n        /* \"#utility.yul\":5195:5200   */\n      0x00\n        /* \"#utility.yul\":5226:5232   */\n      dup2\n        /* \"#utility.yul\":5220:5233   */\n      mload\n        /* \"#utility.yul\":5211:5233   */\n      swap1\n      pop\n        /* \"#utility.yul\":5242:5275   */\n      tag_241\n        /* \"#utility.yul\":5269:5274   */\n      dup2\n        /* \"#utility.yul\":5242:5275   */\n      tag_155\n      jump\t// in\n    tag_241:\n        /* \"#utility.yul\":5138:5281   */\n      swap3\n      swap2\n      pop\n      pop\n      jump\t// out\n        /* \"#utility.yul\":5287:5638   */\n    tag_60:\n        /* \"#utility.yul\":5357:5363   */\n      0x00\n        /* \"#utility.yul\":5406:5408   */\n      0x20\n        /* \"#utility.yul\":5394:5403   */\n      dup3\n        /* \"#utility.yul\":5385:5392   */\n      dup5\n        /* \"#utility.yul\":5381:5404   */\n      sub\n        /* \"#utility.yul\":5377:5409   */\n      slt\n        /* \"#utility.yul\":5374:5493   */\n      iszero\n      tag_243\n      jumpi\n        /* \"#utility.yul\":5412:5491   */\n      tag_244\n      tag_153\n      jump\t// in\n    tag_244:\n        /* \"#utility.yul\":5374:5493   */\n    tag_243:\n        /* \"#utility.yul\":5532:5533   */\n      0x00\n        /* \"#utility.yul\":5557:5621   */\n      tag_245\n        /* \"#utility.yul\":5613:5620   */\n      dup5\n        /* \"#utility.yul\":5604:5610   */\n      dup3\n        /* \"#utility.yul\":5593:5602   */\n      dup6\n        /* \"#utility.yul\":5589:5611   */\n      add\n        /* \"#utility.yul\":5557:5621   */\n      tag_171\n      jump\t// in\n    tag_245:\n        /* \"#utility.yul\":5547:5621   */\n      swap2\n      pop\n        /* \"#utility.yul\":5503:5631   */\n      pop\n        /* \"#utility.yul\":5287:5638   */\n      swap3\n      swap2\n      pop\n      pop\n      jump\t// out\n        /* \"#utility.yul\":5644:5704   */\n    tag_172:\n        /* \"#utility.yul\":5672:5675   */\n      0x00\n        /* \"#utility.yul\":5693:5698   */\n      dup2\n        /* \"#utility.yul\":5686:5698   */\n      swap1\n      pop\n        /* \"#utility.yul\":5644:5704   */\n      swap2\n      swap1\n      pop\n      jump\t// out\n        /* \"#utility.yul\":5710:5852   */\n    tag_173:\n        /* \"#utility.yul\":5760:5769   */\n      0x00\n        /* \"#utility.yul\":5793:5846   */\n      tag_248\n        /* \"#utility.yul\":5811:5845   */\n      tag_249\n        /* \"#utility.yul\":5820:5844   */\n      tag_250\n        /* \"#utility.yul\":5838:5843   */\n      dup5\n        /* \"#utility.yul\":5820:5844   */\n      tag_157\n      jump\t// in\n    tag_250:\n        /* \"#utility.yul\":5811:5845   */\n      tag_172\n      jump\t// in\n    tag_249:\n        /* \"#utility.yul\":5793:5846   */\n      tag_157\n      jump\t// in\n    tag_248:\n        /* \"#utility.yul\":5780:5846   */\n      swap1\n      pop\n        /* \"#utility.yul\":5710:5852   */\n      swap2\n      swap1\n      pop\n      jump\t// out\n        /* \"#utility.yul\":5858:5984   */\n    tag_174:\n        /* \"#utility.yul\":5908:5917   */\n      0x00\n        /* \"#utility.yul\":5941:5978   */\n      tag_252\n        /* \"#utility.yul\":5972:5977   */\n      dup3\n        /* \"#utility.yul\":5941:5978   */\n      tag_173\n      jump\t// in\n    tag_252:\n        /* \"#utility.yul\":5928:5978   */\n      swap1\n      pop\n        /* \"#utility.yul\":5858:5984   */\n      swap2\n      swap1\n      pop\n      jump\t// out\n        /* \"#utility.yul\":5990:6124   */\n    tag_175:\n        /* \"#utility.yul\":6048:6057   */\n      0x00\n        /* \"#utility.yul\":6081:6118   */\n      tag_254\n        /* \"#utility.yul\":6112:6117   */\n      dup3\n        /* \"#utility.yul\":6081:6118   */\n      tag_174\n      jump\t// in\n    tag_254:\n        /* \"#utility.yul\":6068:6118   */\n      swap1\n      pop\n        /* \"#utility.yul\":5990:6124   */\n      swap2\n      swap1\n      pop\n      jump\t// out\n        /* \"#utility.yul\":6130:6277   */\n    tag_176:\n        /* \"#utility.yul\":6225:6270   */\n      tag_256\n        /* \"#utility.yul\":6264:6269   */\n      dup2\n        /* \"#utility.yul\":6225:6270   */\n      tag_175\n      jump\t// in\n    tag_256:\n        /* \"#utility.yul\":6220:6223   */\n      dup3\n        /* \"#utility.yul\":6213:6271   */\n      mstore\n        /* \"#utility.yul\":6130:6277   */\n      pop\n      pop\n      jump\t// out\n        /* \"#utility.yul\":6283:6521   */\n    tag_76:\n        /* \"#utility.yul\":6384:6388   */\n      0x00\n        /* \"#utility.yul\":6422:6424   */\n      0x20\n        /* \"#utility.yul\":6411:6420   */\n      dup3\n        /* \"#utility.yul\":6407:6425   */\n      add\n        /* \"#utility.yul\":6399:6425   */\n      swap1\n      pop\n        /* \"#utility.yul\":6435:6514   */\n      tag_258\n        /* \"#utility.yul\":6511:6512   */\n      0x00\n        /* \"#utility.yul\":6500:6509   */\n      dup4\n        /* \"#utility.yul\":6496:6513   */\n      add\n        /* \"#utility.yul\":6487:6493   */\n      dup5\n        /* \"#utility.yul\":6435:6514   */\n      tag_176\n      jump\t// in\n    tag_258:\n        /* \"#utility.yul\":6283:6521   */\n      swap3\n      swap2\n      pop\n      pop\n      jump\t// out\n        /* \"#utility.yul\":6527:6985   */\n    tag_90:\n        /* \"#utility.yul\":6684:6688   */\n      0x00\n        /* \"#utility.yul\":6722:6724   */\n      0x60\n        /* \"#utility.yul\":6711:6720   */\n      dup3\n        /* \"#utility.yul\":6707:6725   */\n      add\n        /* \"#utility.yul\":6699:6725   */\n      swap1\n      pop\n        /* \"#utility.yul\":6735:6814   */\n      tag_260\n        /* \"#utility.yul\":6811:6812   */\n      0x00\n        /* \"#utility.yul\":6800:6809   */\n      dup4\n        /* \"#utility.yul\":6796:6813   */\n      add\n        /* \"#utility.yul\":6787:6793   */\n      dup7\n        /* \"#utility.yul\":6735:6814   */\n      tag_176\n      jump\t// in\n    tag_260:\n        /* \"#utility.yul\":6824:6896   */\n      tag_261\n        /* \"#utility.yul\":6892:6894   */\n      0x20\n        /* \"#utility.yul\":6881:6890   */\n      dup4\n        /* \"#utility.yul\":6877:6895   */\n      add\n        /* \"#utility.yul\":6868:6874   */\n      dup6\n        /* \"#utility.yul\":6824:6896   */\n      tag_170\n      jump\t// in\n    tag_261:\n        /* \"#utility.yul\":6906:6978   */\n      tag_262\n        /* \"#utility.yul\":6974:6976   */\n      0x40\n        /* \"#utility.yul\":6963:6972   */\n      dup4\n        /* \"#utility.yul\":6959:6977   */\n      add\n        /* \"#utility.yul\":6950:6956   */\n      dup5\n        /* \"#utility.yul\":6906:6978   */\n      tag_151\n      jump\t// in\n    tag_262:\n        /* \"#utility.yul\":6527:6985   */\n      swap5\n      swap4\n      pop\n      pop\n      pop\n      pop\n      jump\t// out\n        /* \"#utility.yul\":6991:7128   */\n    tag_177:\n        /* \"#utility.yul\":7045:7050   */\n      0x00\n        /* \"#utility.yul\":7076:7082   */\n      dup2\n        /* \"#utility.yul\":7070:7083   */\n      mload\n        /* \"#utility.yul\":7061:7083   */\n      swap1\n      pop\n        /* \"#utility.yul\":7092:7122   */\n      tag_264\n        /* \"#utility.yul\":7116:7121   */\n      dup2\n        /* \"#utility.yul\":7092:7122   */\n      tag_165\n      jump\t// in\n    tag_264:\n        /* \"#utility.yul\":6991:7128   */\n      swap3\n      swap2\n      pop\n      pop\n      jump\t// out\n        /* \"#utility.yul\":7134:7479   */\n    tag_94:\n        /* \"#utility.yul\":7201:7207   */\n      0x00\n        /* \"#utility.yul\":7250:7252   */\n      0x20\n        /* \"#utility.yul\":7238:7247   */\n      dup3\n        /* \"#utility.yul\":7229:7236   */\n      dup5\n        /* \"#utility.yul\":7225:7248   */\n      sub\n        /* \"#utility.yul\":7221:7253   */\n      slt\n        /* \"#utility.yul\":7218:7337   */\n      iszero\n      tag_266\n      jumpi\n        /* \"#utility.yul\":7256:7335   */\n      tag_267\n      tag_153\n      jump\t// in\n    tag_267:\n        /* \"#utility.yul\":7218:7337   */\n    tag_266:\n        /* \"#utility.yul\":7376:7377   */\n      0x00\n        /* \"#utility.yul\":7401:7462   */\n      tag_268\n        /* \"#utility.yul\":7454:7461   */\n      dup5\n        /* \"#utility.yul\":7445:7451   */\n      dup3\n        /* \"#utility.yul\":7434:7443   */\n      dup6\n        /* \"#utility.yul\":7430:7452   */\n      add\n        /* \"#utility.yul\":7401:7462   */\n      tag_177\n      jump\t// in\n    tag_268:\n        /* \"#utility.yul\":7391:7462   */\n      swap2\n      pop\n        /* \"#utility.yul\":7347:7472   */\n      pop\n        /* \"#utility.yul\":7134:7479   */\n      swap3\n      swap2\n      pop\n      pop\n      jump\t// out\n        /* \"#utility.yul\":7485:7927   */\n    tag_101:\n        /* \"#utility.yul\":7634:7638   */\n      0x00\n        /* \"#utility.yul\":7672:7674   */\n      0x60\n        /* \"#utility.yul\":7661:7670   */\n      dup3\n        /* \"#utility.yul\":7657:7675   */\n      add\n        /* \"#utility.yul\":7649:7675   */\n      swap1\n      pop\n        /* \"#utility.yul\":7685:7756   */\n      tag_270\n        /* \"#utility.yul\":7753:7754   */\n      0x00\n        /* \"#utility.yul\":7742:7751   */\n      dup4\n        /* \"#utility.yul\":7738:7755   */\n      add\n        /* \"#utility.yul\":7729:7735   */\n      dup7\n        /* \"#utility.yul\":7685:7756   */\n      tag_151\n      jump\t// in\n    tag_270:\n        /* \"#utility.yul\":7766:7838   */\n      tag_271\n        /* \"#utility.yul\":7834:7836   */\n      0x20\n        /* \"#utility.yul\":7823:7832   */\n      dup4\n        /* \"#utility.yul\":7819:7837   */\n      add\n        /* \"#utility.yul\":7810:7816   */\n      dup6\n        /* \"#utility.yul\":7766:7838   */\n      tag_151\n      jump\t// in\n    tag_271:\n        /* \"#utility.yul\":7848:7920   */\n      tag_272\n        /* \"#utility.yul\":7916:7918   */\n      0x40\n        /* \"#utility.yul\":7905:7914   */\n      dup4\n        /* \"#utility.yul\":7901:7919   */\n      add\n        /* \"#utility.yul\":7892:7898   */\n      dup5\n        /* \"#utility.yul\":7848:7920   */\n      tag_151\n      jump\t// in\n    tag_272:\n        /* \"#utility.yul\":7485:7927   */\n      swap5\n      swap4\n      pop\n      pop\n      pop\n      pop\n      jump\t// out\n        /* \"#utility.yul\":7933:8265   */\n    tag_128:\n        /* \"#utility.yul\":8054:8058   */\n      0x00\n        /* \"#utility.yul\":8092:8094   */\n      0x40\n        /* \"#utility.yul\":8081:8090   */\n      dup3\n        /* \"#utility.yul\":8077:8095   */\n      add\n        /* \"#utility.yul\":8069:8095   */\n      swap1\n      pop\n        /* \"#utility.yul\":8105:8176   */\n      tag_274\n        /* \"#utility.yul\":8173:8174   */\n      0x00\n        /* \"#utility.yul\":8162:8171   */\n      dup4\n        /* \"#utility.yul\":8158:8175   */\n      add\n        /* \"#utility.yul\":8149:8155   */\n      dup6\n        /* \"#utility.yul\":8105:8176   */\n      tag_170\n      jump\t// in\n    tag_274:\n        /* \"#utility.yul\":8186:8258   */\n      tag_275\n        /* \"#utility.yul\":8254:8256   */\n      0x20\n        /* \"#utility.yul\":8243:8252   */\n      dup4\n        /* \"#utility.yul\":8239:8257   */\n      add\n        /* \"#utility.yul\":8230:8236   */\n      dup5\n        /* \"#utility.yul\":8186:8258   */\n      tag_151\n      jump\t// in\n    tag_275:\n        /* \"#utility.yul\":7933:8265   */\n      swap4\n      swap3\n      pop\n      pop\n      pop\n      jump\t// out\n        /* \"#utility.yul\":8271:8451   */\n    tag_178:\n        /* \"#utility.yul\":8319:8396   */\n      0x4e487b7100000000000000000000000000000000000000000000000000000000\n        /* \"#utility.yul\":8316:8317   */\n      0x00\n        /* \"#utility.yul\":8309:8397   */\n      mstore\n        /* \"#utility.yul\":8416:8420   */\n      0x11\n        /* \"#utility.yul\":8413:8414   */\n      0x04\n        /* \"#utility.yul\":8406:8421   */\n      mstore\n        /* \"#utility.yul\":8440:8444   */\n      0x24\n        /* \"#utility.yul\":8437:8438   */\n      0x00\n        /* \"#utility.yul\":8430:8445   */\n      revert\n        /* \"#utility.yul\":8457:8648   */\n    tag_140:\n        /* \"#utility.yul\":8497:8501   */\n      0x00\n        /* \"#utility.yul\":8517:8537   */\n      tag_278\n        /* \"#utility.yul\":8535:8536   */\n      dup3\n        /* \"#utility.yul\":8517:8537   */\n      tag_150\n      jump\t// in\n    tag_278:\n        /* \"#utility.yul\":8512:8537   */\n      swap2\n      pop\n        /* \"#utility.yul\":8551:8571   */\n      tag_279\n        /* \"#utility.yul\":8569:8570   */\n      dup4\n        /* \"#utility.yul\":8551:8571   */\n      tag_150\n      jump\t// in\n    tag_279:\n        /* \"#utility.yul\":8546:8571   */\n      swap3\n      pop\n        /* \"#utility.yul\":8590:8591   */\n      dup3\n        /* \"#utility.yul\":8587:8588   */\n      dup3\n        /* \"#utility.yul\":8584:8592   */\n      lt\n        /* \"#utility.yul\":8581:8615   */\n      iszero\n      tag_280\n      jumpi\n        /* \"#utility.yul\":8595:8613   */\n      tag_281\n      tag_178\n      jump\t// in\n    tag_281:\n        /* \"#utility.yul\":8581:8615   */\n    tag_280:\n        /* \"#utility.yul\":8640:8641   */\n      dup3\n        /* \"#utility.yul\":8637:8638   */\n      dup3\n        /* \"#utility.yul\":8633:8642   */\n      sub\n        /* \"#utility.yul\":8625:8642   */\n      swap1\n      pop\n        /* \"#utility.yul\":8457:8648   */\n      swap3\n      swap2\n      pop\n      pop\n      jump\t// out\n        /* \"#utility.yul\":8654:8959   */\n    tag_143:\n        /* \"#utility.yul\":8694:8697   */\n      0x00\n        /* \"#utility.yul\":8713:8733   */\n      tag_283\n        /* \"#utility.yul\":8731:8732   */\n      dup3\n        /* \"#utility.yul\":8713:8733   */\n      tag_150\n      jump\t// in\n    tag_283:\n        /* \"#utility.yul\":8708:8733   */\n      swap2\n      pop\n        /* \"#utility.yul\":8747:8767   */\n      tag_284\n        /* \"#utility.yul\":8765:8766   */\n      dup4\n        /* \"#utility.yul\":8747:8767   */\n      tag_150\n      jump\t// in\n    tag_284:\n        /* \"#utility.yul\":8742:8767   */\n      swap3\n      pop\n        /* \"#utility.yul\":8901:8902   */\n      dup3\n        /* \"#utility.yul\":8833:8899   */\n      0xffffffffffffffffffffffffffffffffffffffffffffffffffffffffffffffff\n        /* \"#utility.yul\":8829:8903   */\n      sub\n        /* \"#utility.yul\":8826:8827   */\n      dup3\n        /* \"#utility.yul\":8823:8904   */\n      gt\n        /* \"#utility.yul\":8820:8927   */\n      iszero\n      tag_285\n      jumpi\n        /* \"#utility.yul\":8907:8925   */\n      tag_286\n      tag_178\n      jump\t// in\n    tag_286:\n        /* \"#utility.yul\":8820:8927   */\n    tag_285:\n        /* \"#utility.yul\":8951:8952   */\n      dup3\n        /* \"#utility.yul\":8948:8949   */\n      dup3\n        /* \"#utility.yul\":8944:8953   */\n      add\n        /* \"#utility.yul\":8937:8953   */\n      swap1\n      pop\n        /* \"#utility.yul\":8654:8959   */\n      swap3\n      swap2\n      pop\n      pop\n      jump\t// out\n        /* \"#utility.yul\":8965:9145   */\n    tag_179:\n        /* \"#utility.yul\":9013:9090   */\n      0x4e487b7100000000000000000000000000000000000000000000000000000000\n        /* \"#utility.yul\":9010:9011   */\n      0x00\n        /* \"#utility.yul\":9003:9091   */\n      mstore\n        /* \"#utility.yul\":9110:9114   */\n      0x12\n        /* \"#utility.yul\":9107:9108   */\n      0x04\n        /* \"#utility.yul\":9100:9115   */\n      mstore\n        /* \"#utility.yul\":9134:9138   */\n      0x24\n        /* \"#utility.yul\":9131:9132   */\n      0x00\n        /* \"#utility.yul\":9124:9139   */\n      revert\n        /* \"#utility.yul\":9151:9336   */\n    tag_146:\n        /* \"#utility.yul\":9191:9192   */\n      0x00\n        /* \"#utility.yul\":9208:9228   */\n      tag_289\n        /* \"#utility.yul\":9226:9227   */\n      dup3\n        /* \"#utility.yul\":9208:9228   */\n      tag_150\n      jump\t// in\n    tag_289:\n        /* \"#utility.yul\":9203:9228   */\n      swap2\n      pop\n        /* \"#utility.yul\":9242:9262   */\n      tag_290\n        /* \"#utility.yul\":9260:9261   */\n      dup4\n        /* \"#utility.yul\":9242:9262   */\n      tag_150\n      jump\t// in\n    tag_290:\n        /* \"#utility.yul\":9237:9262   */\n      swap3\n      pop\n        /* \"#utility.yul\":9281:9282   */\n      dup3\n        /* \"#utility.yul\":9271:9306   */\n      tag_291\n      jumpi\n        /* \"#utility.yul\":9286:9304   */\n      tag_292\n      tag_179\n      jump\t// in\n    tag_292:\n        /* \"#utility.yul\":9271:9306   */\n    tag_291:\n        /* \"#utility.yul\":9328:9329   */\n      dup3\n        /* \"#utility.yul\":9325:9326   */\n      dup3\n        /* \"#utility.yul\":9321:9330   */\n      div\n        /* \"#utility.yul\":9316:9330   */\n      swap1\n      pop\n        /* \"#utility.yul\":9151:9336   */\n      swap3\n      swap2\n      pop\n      pop\n      jump\t// out\n        /* \"#utility.yul\":9342:9690   */\n    tag_149:\n        /* \"#utility.yul\":9382:9389   */\n      0x00\n        /* \"#utility.yul\":9405:9425   */\n      tag_294\n        /* \"#utility.yul\":9423:9424   */\n      dup3\n        /* \"#utility.yul\":9405:9425   */\n      tag_150\n      jump\t// in\n    tag_294:\n        /* \"#utility.yul\":9400:9425   */\n      swap2\n      pop\n        /* \"#utility.yul\":9439:9459   */\n      tag_295\n        /* \"#utility.yul\":9457:9458   */\n      dup4\n        /* \"#utility.yul\":9439:9459   */\n      tag_150\n      jump\t// in\n    tag_295:\n        /* \"#utility.yul\":9434:9459   */\n      swap3\n      pop\n        /* \"#utility.yul\":9627:9628   */\n      dup2\n        /* \"#utility.yul\":9559:9625   */\n      0xffffffffffffffffffffffffffffffffffffffffffffffffffffffffffffffff\n        /* \"#utility.yul\":9555:9629   */\n      div\n        /* \"#utility.yul\":9552:9553   */\n      dup4\n        /* \"#utility.yul\":9549:9630   */\n      gt\n        /* \"#utility.yul\":9544:9545   */\n      dup3\n        /* \"#utility.yul\":9537:9546   */\n      iszero\n        /* \"#utility.yul\":9530:9547   */\n      iszero\n        /* \"#utility.yul\":9526:9631   */\n      and\n        /* \"#utility.yul\":9523:9654   */\n      iszero\n      tag_296\n      jumpi\n        /* \"#utility.yul\":9634:9652   */\n      tag_297\n      tag_178\n      jump\t// in\n    tag_297:\n        /* \"#utility.yul\":9523:9654   */\n    tag_296:\n        /* \"#utility.yul\":9682:9683   */\n      dup3\n        /* \"#utility.yul\":9679:9680   */\n      dup3\n        /* \"#utility.yul\":9675:9684   */\n      mul\n        /* \"#utility.yul\":9664:9684   */\n      swap1\n      pop\n        /* \"#utility.yul\":9342:9690   */\n      swap3\n      swap2\n      pop\n      pop\n      jump\t// out\n\n    auxdata: 0xa2646970667358221220d130d842492cb3e4571eb49597b92a0d80e868c7d1581100a5189cfe0786ba5d64736f6c634300080f0033\n}\n",
				"bytecode": {
					"linkReferences": {},
					"object": "60806040527358d3a4cb28f30d9c87e8f79544f98f358cde62276000806101000a81548173ffffffffffffffffffffffffffffffffffffffff021916908373ffffffffffffffffffffffffffffffffffffffff160217905550604051620015733803806200157383398181016040528101906200007d91906200011b565b33600560006101000a81548173ffffffffffffffffffffffffffffffffffffffff021916908373ffffffffffffffffffffffffffffffffffffffff160217905550346003819055508160018190555080600281905550505062000162565b600080fd5b6000819050919050565b620000f581620000e0565b81146200010157600080fd5b50565b6000815190506200011581620000ea565b92915050565b60008060408385031215620001355762000134620000db565b5b6000620001458582860162000104565b9250506020620001588582860162000104565b9150509250929050565b61140180620001726000396000f3fe60806040526004361061007b5760003560e01c8063c3c646741161004e578063c3c646741461014e578063d0e30db014610177578063dac3fad414610181578063fee3f7f9146101985761007b565b80631758d6f3146100805780633a23bf49146100ab57806394756aa7146100e857806397dedb1d14610111575b600080fd5b34801561008c57600080fd5b506100956101af565b6040516100a29190610e4f565b60405180910390f35b3480156100b757600080fd5b506100d260048036038101906100cd9190610e9b565b6102a8565b6040516100df9190610e4f565b60405180910390f35b3480156100f457600080fd5b5061010f600480360381019061010a9190610f26565b6104df565b005b34801561011d57600080fd5b5061013860048036038101906101339190610e9b565b61082b565b6040516101459190610e4f565b60405180910390f35b34801561015a57600080fd5b5061017560048036038101906101709190610fdc565b61093a565b005b61017f610a25565b005b34801561018d57600080fd5b50610196610a84565b005b3480156101a457600080fd5b506101ad610cd9565b005b60003373ffffffffffffffffffffffffffffffffffffffff16600560009054906101000a900473ffffffffffffffffffffffffffffffffffffffff1673ffffffffffffffffffffffffffffffffffffffff1614610241576040517f08c379a000000000000000000000000000000000000000000000000000000000815260040161023890611079565b60405180910390fd5b3373ffffffffffffffffffffffffffffffffffffffff16600560009054906101000a900473ffffffffffffffffffffffffffffffffffffffff1673ffffffffffffffffffffffffffffffffffffffff16036102a05760045490506102a5565b600080fd5b90565b6000806102c2600454600354610dde90919063ffffffff16565b905060008060009054906101000a900473ffffffffffffffffffffffffffffffffffffffff1673ffffffffffffffffffffffffffffffffffffffff166370a08231306040518263ffffffff1660e01b815260040161032091906110a8565b602060405180830381865afa15801561033d573d6000803e3d6000fd5b505050506040513d601f19601f8201168201806040525081019061036191906110d8565b905060006103788583610df490919063ffffffff16565b905060008054906101000a900473ffffffffffffffffffffffffffffffffffffffff1673ffffffffffffffffffffffffffffffffffffffff166318160ddd6040518163ffffffff1660e01b8152600401602060405180830381865afa1580156103e5573d6000803e3d6000fd5b505050506040513d601f19601f8201168201806040525081019061040991906110d8565b8111156104a25760008054906101000a900473ffffffffffffffffffffffffffffffffffffffff1673ffffffffffffffffffffffffffffffffffffffff166318160ddd6040518163ffffffff1660e01b8152600401602060405180830381865afa15801561047b573d6000803e3d6000fd5b505050506040513d601f19601f8201168201806040525081019061049f91906110d8565b90505b60006104b982600154610e0a90919063ffffffff16565b905060006104d08286610dde90919063ffffffff16565b90508095505050505050919050565b60011515600660003373ffffffffffffffffffffffffffffffffffffffff1673ffffffffffffffffffffffffffffffffffffffff16815260200190815260200160002060009054906101000a900460ff1615151461053c57600080fd5b8060008054906101000a900473ffffffffffffffffffffffffffffffffffffffff1673ffffffffffffffffffffffffffffffffffffffff166370a08231846040518263ffffffff1660e01b81526004016105969190611164565b602060405180830381865afa1580156105b3573d6000803e3d6000fd5b505050506040513d601f19601f820116820180604052508101906105d791906110d8565b10156105e257600080fd5b60006105ed826102a8565b9050600061061a6103e861060c60025485610e2090919063ffffffff16565b610e0a90919063ffffffff16565b905061063181600454610df490919063ffffffff16565b60048190555061064a8183610dde90919063ffffffff16565b91508373ffffffffffffffffffffffffffffffffffffffff166108fc839081150290604051600060405180830381858888f19350505050158015610692573d6000803e3d6000fd5b5060008054906101000a900473ffffffffffffffffffffffffffffffffffffffff1673ffffffffffffffffffffffffffffffffffffffff166323b872dd8530866040518463ffffffff1660e01b81526004016106f09392919061117f565b6020604051808303816000875af115801561070f573d6000803e3d6000fd5b505050506040513d601f19601f8201168201806040525081019061073391906111cb565b50476003819055507f2071a9f40fdef4ea79c384be80fd89a3c0cec179fb2bdc12db4dcec9d3f246c6610773600454600354610dde90919063ffffffff16565b60008054906101000a900473ffffffffffffffffffffffffffffffffffffffff1673ffffffffffffffffffffffffffffffffffffffff166370a08231306040518263ffffffff1660e01b81526004016107cc91906110a8565b602060405180830381865afa1580156107e9573d6000803e3d6000fd5b505050506040513d601f19601f8201168201806040525081019061080d91906110d8565b4260405161081d939291906111f8565b60405180910390a150505050565b600080610845600454600354610dde90919063ffffffff16565b905060008060009054906101000a900473ffffffffffffffffffffffffffffffffffffffff1673ffffffffffffffffffffffffffffffffffffffff166370a08231306040518263ffffffff1660e01b81526004016108a391906110a8565b602060405180830381865afa1580156108c0573d6000803e3d6000fd5b505050506040513d601f19601f820116820180604052508101906108e491906110d8565b905060006108fb8584610df490919063ffffffff16565b9050600061091482600154610e0a90919063ffffffff16565b9050600061092b8285610dde90919063ffffffff16565b90508095505050505050919050565b3373ffffffffffffffffffffffffffffffffffffffff16600560009054906101000a900473ffffffffffffffffffffffffffffffffffffffff1673ffffffffffffffffffffffffffffffffffffffff16146109ca576040517f08c379a00000000000000000000000000000000000000000000000000000000081526004016109c190611079565b60405180910390fd5b80600660008473ffffffffffffffffffffffffffffffffffffffff1673ffffffffffffffffffffffffffffffffffffffff16815260200190815260200160002060006101000a81548160ff0219169083151502179055505050565b60011515600660003373ffffffffffffffffffffffffffffffffffffffff1673ffffffffffffffffffffffffffffffffffffffff16815260200190815260200160002060009054906101000a900460ff16151514610a8257600080fd5b565b3373ffffffffffffffffffffffffffffffffffffffff16600560009054906101000a900473ffffffffffffffffffffffffffffffffffffffff1673ffffffffffffffffffffffffffffffffffffffff1614610b14576040517f08c379a0000000000000000000000000000000000000000000000000000000008152600401610b0b90611079565b60405180910390fd5b600560009054906101000a900473ffffffffffffffffffffffffffffffffffffffff1673ffffffffffffffffffffffffffffffffffffffff166108fc479081150290604051600060405180830381858888f19350505050158015610b7c573d6000803e3d6000fd5b5060008054906101000a900473ffffffffffffffffffffffffffffffffffffffff1673ffffffffffffffffffffffffffffffffffffffff1663a9059cbb600560009054906101000a900473ffffffffffffffffffffffffffffffffffffffff1660008054906101000a900473ffffffffffffffffffffffffffffffffffffffff1673ffffffffffffffffffffffffffffffffffffffff166370a08231306040518263ffffffff1660e01b8152600401610c3591906110a8565b602060405180830381865afa158015610c52573d6000803e3d6000fd5b505050506040513d601f19601f82011682018060405250810190610c7691906110d8565b6040518363ffffffff1660e01b8152600401610c9392919061122f565b6020604051808303816000875af1158015610cb2573d6000803e3d6000fd5b505050506040513d601f19601f82011682018060405250810190610cd691906111cb565b50565b3373ffffffffffffffffffffffffffffffffffffffff16600560009054906101000a900473ffffffffffffffffffffffffffffffffffffffff1673ffffffffffffffffffffffffffffffffffffffff1614610d69576040517f08c379a0000000000000000000000000000000000000000000000000000000008152600401610d6090611079565b60405180910390fd5b600560009054906101000a900473ffffffffffffffffffffffffffffffffffffffff1673ffffffffffffffffffffffffffffffffffffffff166108fc6004549081150290604051600060405180830381858888f19350505050158015610dd3573d6000803e3d6000fd5b506000600481905550565b60008183610dec9190611287565b905092915050565b60008183610e0291906112bb565b905092915050565b60008183610e189190611340565b905092915050565b60008183610e2e9190611371565b905092915050565b6000819050919050565b610e4981610e36565b82525050565b6000602082019050610e646000830184610e40565b92915050565b600080fd5b610e7881610e36565b8114610e8357600080fd5b50565b600081359050610e9581610e6f565b92915050565b600060208284031215610eb157610eb0610e6a565b5b6000610ebf84828501610e86565b91505092915050565b600073ffffffffffffffffffffffffffffffffffffffff82169050919050565b6000610ef382610ec8565b9050919050565b610f0381610ee8565b8114610f0e57600080fd5b50565b600081359050610f2081610efa565b92915050565b60008060408385031215610f3d57610f3c610e6a565b5b6000610f4b85828601610f11565b9250506020610f5c85828601610e86565b9150509250929050565b6000610f7182610ec8565b9050919050565b610f8181610f66565b8114610f8c57600080fd5b50565b600081359050610f9e81610f78565b92915050565b60008115159050919050565b610fb981610fa4565b8114610fc457600080fd5b50565b600081359050610fd681610fb0565b92915050565b60008060408385031215610ff357610ff2610e6a565b5b600061100185828601610f8f565b925050602061101285828601610fc7565b9150509250929050565b600082825260208201905092915050565b7f4f776e61626c653a2063616c6c6572206973206e6f7420746865206f776e6572600082015250565b600061106360208361101c565b915061106e8261102d565b602082019050919050565b6000602082019050818103600083015261109281611056565b9050919050565b6110a281610f66565b82525050565b60006020820190506110bd6000830184611099565b92915050565b6000815190506110d281610e6f565b92915050565b6000602082840312156110ee576110ed610e6a565b5b60006110fc848285016110c3565b91505092915050565b6000819050919050565b600061112a61112561112084610ec8565b611105565b610ec8565b9050919050565b600061113c8261110f565b9050919050565b600061114e82611131565b9050919050565b61115e81611143565b82525050565b60006020820190506111796000830184611155565b92915050565b60006060820190506111946000830186611155565b6111a16020830185611099565b6111ae6040830184610e40565b949350505050565b6000815190506111c581610fb0565b92915050565b6000602082840312156111e1576111e0610e6a565b5b60006111ef848285016111b6565b91505092915050565b600060608201905061120d6000830186610e40565b61121a6020830185610e40565b6112276040830184610e40565b949350505050565b60006040820190506112446000830185611099565b6112516020830184610e40565b9392505050565b7f4e487b7100000000000000000000000000000000000000000000000000000000600052601160045260246000fd5b600061129282610e36565b915061129d83610e36565b9250828210156112b0576112af611258565b5b828203905092915050565b60006112c682610e36565b91506112d183610e36565b9250827fffffffffffffffffffffffffffffffffffffffffffffffffffffffffffffffff0382111561130657611305611258565b5b828201905092915050565b7f4e487b7100000000000000000000000000000000000000000000000000000000600052601260045260246000fd5b600061134b82610e36565b915061135683610e36565b92508261136657611365611311565b5b828204905092915050565b600061137c82610e36565b915061138783610e36565b9250817fffffffffffffffffffffffffffffffffffffffffffffffffffffffffffffffff04831182151516156113c0576113bf611258565b5b82820290509291505056fea2646970667358221220d130d842492cb3e4571eb49597b92a0d80e868c7d1581100a5189cfe0786ba5d64736f6c634300080f0033",
					"opcodes": "PUSH1 0x80 PUSH1 0x40 MSTORE PUSH20 0x58D3A4CB28F30D9C87E8F79544F98F358CDE6227 PUSH1 0x0 DUP1 PUSH2 0x100 EXP DUP2 SLOAD DUP2 PUSH20 0xFFFFFFFFFFFFFFFFFFFFFFFFFFFFFFFFFFFFFFFF MUL NOT AND SWAP1 DUP4 PUSH20 0xFFFFFFFFFFFFFFFFFFFFFFFFFFFFFFFFFFFFFFFF AND MUL OR SWAP1 SSTORE POP PUSH1 0x40 MLOAD PUSH3 0x1573 CODESIZE SUB DUP1 PUSH3 0x1573 DUP4 CODECOPY DUP2 DUP2 ADD PUSH1 0x40 MSTORE DUP2 ADD SWAP1 PUSH3 0x7D SWAP2 SWAP1 PUSH3 0x11B JUMP JUMPDEST CALLER PUSH1 0x5 PUSH1 0x0 PUSH2 0x100 EXP DUP2 SLOAD DUP2 PUSH20 0xFFFFFFFFFFFFFFFFFFFFFFFFFFFFFFFFFFFFFFFF MUL NOT AND SWAP1 DUP4 PUSH20 0xFFFFFFFFFFFFFFFFFFFFFFFFFFFFFFFFFFFFFFFF AND MUL OR SWAP1 SSTORE POP CALLVALUE PUSH1 0x3 DUP2 SWAP1 SSTORE POP DUP2 PUSH1 0x1 DUP2 SWAP1 SSTORE POP DUP1 PUSH1 0x2 DUP2 SWAP1 SSTORE POP POP POP PUSH3 0x162 JUMP JUMPDEST PUSH1 0x0 DUP1 REVERT JUMPDEST PUSH1 0x0 DUP2 SWAP1 POP SWAP2 SWAP1 POP JUMP JUMPDEST PUSH3 0xF5 DUP2 PUSH3 0xE0 JUMP JUMPDEST DUP2 EQ PUSH3 0x101 JUMPI PUSH1 0x0 DUP1 REVERT JUMPDEST POP JUMP JUMPDEST PUSH1 0x0 DUP2 MLOAD SWAP1 POP PUSH3 0x115 DUP2 PUSH3 0xEA JUMP JUMPDEST SWAP3 SWAP2 POP POP JUMP JUMPDEST PUSH1 0x0 DUP1 PUSH1 0x40 DUP4 DUP6 SUB SLT ISZERO PUSH3 0x135 JUMPI PUSH3 0x134 PUSH3 0xDB JUMP JUMPDEST JUMPDEST PUSH1 0x0 PUSH3 0x145 DUP6 DUP3 DUP7 ADD PUSH3 0x104 JUMP JUMPDEST SWAP3 POP POP PUSH1 0x20 PUSH3 0x158 DUP6 DUP3 DUP7 ADD PUSH3 0x104 JUMP JUMPDEST SWAP2 POP POP SWAP3 POP SWAP3 SWAP1 POP JUMP JUMPDEST PUSH2 0x1401 DUP1 PUSH3 0x172 PUSH1 0x0 CODECOPY PUSH1 0x0 RETURN INVALID PUSH1 0x80 PUSH1 0x40 MSTORE PUSH1 0x4 CALLDATASIZE LT PUSH2 0x7B JUMPI PUSH1 0x0 CALLDATALOAD PUSH1 0xE0 SHR DUP1 PUSH4 0xC3C64674 GT PUSH2 0x4E JUMPI DUP1 PUSH4 0xC3C64674 EQ PUSH2 0x14E JUMPI DUP1 PUSH4 0xD0E30DB0 EQ PUSH2 0x177 JUMPI DUP1 PUSH4 0xDAC3FAD4 EQ PUSH2 0x181 JUMPI DUP1 PUSH4 0xFEE3F7F9 EQ PUSH2 0x198 JUMPI PUSH2 0x7B JUMP JUMPDEST DUP1 PUSH4 0x1758D6F3 EQ PUSH2 0x80 JUMPI DUP1 PUSH4 0x3A23BF49 EQ PUSH2 0xAB JUMPI DUP1 PUSH4 0x94756AA7 EQ PUSH2 0xE8 JUMPI DUP1 PUSH4 0x97DEDB1D EQ PUSH2 0x111 JUMPI JUMPDEST PUSH1 0x0 DUP1 REVERT JUMPDEST CALLVALUE DUP1 ISZERO PUSH2 0x8C JUMPI PUSH1 0x0 DUP1 REVERT JUMPDEST POP PUSH2 0x95 PUSH2 0x1AF JUMP JUMPDEST PUSH1 0x40 MLOAD PUSH2 0xA2 SWAP2 SWAP1 PUSH2 0xE4F JUMP JUMPDEST PUSH1 0x40 MLOAD DUP1 SWAP2 SUB SWAP1 RETURN JUMPDEST CALLVALUE DUP1 ISZERO PUSH2 0xB7 JUMPI PUSH1 0x0 DUP1 REVERT JUMPDEST POP PUSH2 0xD2 PUSH1 0x4 DUP1 CALLDATASIZE SUB DUP2 ADD SWAP1 PUSH2 0xCD SWAP2 SWAP1 PUSH2 0xE9B JUMP JUMPDEST PUSH2 0x2A8 JUMP JUMPDEST PUSH1 0x40 MLOAD PUSH2 0xDF SWAP2 SWAP1 PUSH2 0xE4F JUMP JUMPDEST PUSH1 0x40 MLOAD DUP1 SWAP2 SUB SWAP1 RETURN JUMPDEST CALLVALUE DUP1 ISZERO PUSH2 0xF4 JUMPI PUSH1 0x0 DUP1 REVERT JUMPDEST POP PUSH2 0x10F PUSH1 0x4 DUP1 CALLDATASIZE SUB DUP2 ADD SWAP1 PUSH2 0x10A SWAP2 SWAP1 PUSH2 0xF26 JUMP JUMPDEST PUSH2 0x4DF JUMP JUMPDEST STOP JUMPDEST CALLVALUE DUP1 ISZERO PUSH2 0x11D JUMPI PUSH1 0x0 DUP1 REVERT JUMPDEST POP PUSH2 0x138 PUSH1 0x4 DUP1 CALLDATASIZE SUB DUP2 ADD SWAP1 PUSH2 0x133 SWAP2 SWAP1 PUSH2 0xE9B JUMP JUMPDEST PUSH2 0x82B JUMP JUMPDEST PUSH1 0x40 MLOAD PUSH2 0x145 SWAP2 SWAP1 PUSH2 0xE4F JUMP JUMPDEST PUSH1 0x40 MLOAD DUP1 SWAP2 SUB SWAP1 RETURN JUMPDEST CALLVALUE DUP1 ISZERO PUSH2 0x15A JUMPI PUSH1 0x0 DUP1 REVERT JUMPDEST POP PUSH2 0x175 PUSH1 0x4 DUP1 CALLDATASIZE SUB DUP2 ADD SWAP1 PUSH2 0x170 SWAP2 SWAP1 PUSH2 0xFDC JUMP JUMPDEST PUSH2 0x93A JUMP JUMPDEST STOP JUMPDEST PUSH2 0x17F PUSH2 0xA25 JUMP JUMPDEST STOP JUMPDEST CALLVALUE DUP1 ISZERO PUSH2 0x18D JUMPI PUSH1 0x0 DUP1 REVERT JUMPDEST POP PUSH2 0x196 PUSH2 0xA84 JUMP JUMPDEST STOP JUMPDEST CALLVALUE DUP1 ISZERO PUSH2 0x1A4 JUMPI PUSH1 0x0 DUP1 REVERT JUMPDEST POP PUSH2 0x1AD PUSH2 0xCD9 JUMP JUMPDEST STOP JUMPDEST PUSH1 0x0 CALLER PUSH20 0xFFFFFFFFFFFFFFFFFFFFFFFFFFFFFFFFFFFFFFFF AND PUSH1 0x5 PUSH1 0x0 SWAP1 SLOAD SWAP1 PUSH2 0x100 EXP SWAP1 DIV PUSH20 0xFFFFFFFFFFFFFFFFFFFFFFFFFFFFFFFFFFFFFFFF AND PUSH20 0xFFFFFFFFFFFFFFFFFFFFFFFFFFFFFFFFFFFFFFFF AND EQ PUSH2 0x241 JUMPI PUSH1 0x40 MLOAD PUSH32 0x8C379A000000000000000000000000000000000000000000000000000000000 DUP2 MSTORE PUSH1 0x4 ADD PUSH2 0x238 SWAP1 PUSH2 0x1079 JUMP JUMPDEST PUSH1 0x40 MLOAD DUP1 SWAP2 SUB SWAP1 REVERT JUMPDEST CALLER PUSH20 0xFFFFFFFFFFFFFFFFFFFFFFFFFFFFFFFFFFFFFFFF AND PUSH1 0x5 PUSH1 0x0 SWAP1 SLOAD SWAP1 PUSH2 0x100 EXP SWAP1 DIV PUSH20 0xFFFFFFFFFFFFFFFFFFFFFFFFFFFFFFFFFFFFFFFF AND PUSH20 0xFFFFFFFFFFFFFFFFFFFFFFFFFFFFFFFFFFFFFFFF AND SUB PUSH2 0x2A0 JUMPI PUSH1 0x4 SLOAD SWAP1 POP PUSH2 0x2A5 JUMP JUMPDEST PUSH1 0x0 DUP1 REVERT JUMPDEST SWAP1 JUMP JUMPDEST PUSH1 0x0 DUP1 PUSH2 0x2C2 PUSH1 0x4 SLOAD PUSH1 0x3 SLOAD PUSH2 0xDDE SWAP1 SWAP2 SWAP1 PUSH4 0xFFFFFFFF AND JUMP JUMPDEST SWAP1 POP PUSH1 0x0 DUP1 PUSH1 0x0 SWAP1 SLOAD SWAP1 PUSH2 0x100 EXP SWAP1 DIV PUSH20 0xFFFFFFFFFFFFFFFFFFFFFFFFFFFFFFFFFFFFFFFF AND PUSH20 0xFFFFFFFFFFFFFFFFFFFFFFFFFFFFFFFFFFFFFFFF AND PUSH4 0x70A08231 ADDRESS PUSH1 0x40 MLOAD DUP3 PUSH4 0xFFFFFFFF AND PUSH1 0xE0 SHL DUP2 MSTORE PUSH1 0x4 ADD PUSH2 0x320 SWAP2 SWAP1 PUSH2 0x10A8 JUMP JUMPDEST PUSH1 0x20 PUSH1 0x40 MLOAD DUP1 DUP4 SUB DUP2 DUP7 GAS STATICCALL ISZERO DUP1 ISZERO PUSH2 0x33D JUMPI RETURNDATASIZE PUSH1 0x0 DUP1 RETURNDATACOPY RETURNDATASIZE PUSH1 0x0 REVERT JUMPDEST POP POP POP POP PUSH1 0x40 MLOAD RETURNDATASIZE PUSH1 0x1F NOT PUSH1 0x1F DUP3 ADD AND DUP3 ADD DUP1 PUSH1 0x40 MSTORE POP DUP2 ADD SWAP1 PUSH2 0x361 SWAP2 SWAP1 PUSH2 0x10D8 JUMP JUMPDEST SWAP1 POP PUSH1 0x0 PUSH2 0x378 DUP6 DUP4 PUSH2 0xDF4 SWAP1 SWAP2 SWAP1 PUSH4 0xFFFFFFFF AND JUMP JUMPDEST SWAP1 POP PUSH1 0x0 DUP1 SLOAD SWAP1 PUSH2 0x100 EXP SWAP1 DIV PUSH20 0xFFFFFFFFFFFFFFFFFFFFFFFFFFFFFFFFFFFFFFFF AND PUSH20 0xFFFFFFFFFFFFFFFFFFFFFFFFFFFFFFFFFFFFFFFF AND PUSH4 0x18160DDD PUSH1 0x40 MLOAD DUP2 PUSH4 0xFFFFFFFF AND PUSH1 0xE0 SHL DUP2 MSTORE PUSH1 0x4 ADD PUSH1 0x20 PUSH1 0x40 MLOAD DUP1 DUP4 SUB DUP2 DUP7 GAS STATICCALL ISZERO DUP1 ISZERO PUSH2 0x3E5 JUMPI RETURNDATASIZE PUSH1 0x0 DUP1 RETURNDATACOPY RETURNDATASIZE PUSH1 0x0 REVERT JUMPDEST POP POP POP POP PUSH1 0x40 MLOAD RETURNDATASIZE PUSH1 0x1F NOT PUSH1 0x1F DUP3 ADD AND DUP3 ADD DUP1 PUSH1 0x40 MSTORE POP DUP2 ADD SWAP1 PUSH2 0x409 SWAP2 SWAP1 PUSH2 0x10D8 JUMP JUMPDEST DUP2 GT ISZERO PUSH2 0x4A2 JUMPI PUSH1 0x0 DUP1 SLOAD SWAP1 PUSH2 0x100 EXP SWAP1 DIV PUSH20 0xFFFFFFFFFFFFFFFFFFFFFFFFFFFFFFFFFFFFFFFF AND PUSH20 0xFFFFFFFFFFFFFFFFFFFFFFFFFFFFFFFFFFFFFFFF AND PUSH4 0x18160DDD PUSH1 0x40 MLOAD DUP2 PUSH4 0xFFFFFFFF AND PUSH1 0xE0 SHL DUP2 MSTORE PUSH1 0x4 ADD PUSH1 0x20 PUSH1 0x40 MLOAD DUP1 DUP4 SUB DUP2 DUP7 GAS STATICCALL ISZERO DUP1 ISZERO PUSH2 0x47B JUMPI RETURNDATASIZE PUSH1 0x0 DUP1 RETURNDATACOPY RETURNDATASIZE PUSH1 0x0 REVERT JUMPDEST POP POP POP POP PUSH1 0x40 MLOAD RETURNDATASIZE PUSH1 0x1F NOT PUSH1 0x1F DUP3 ADD AND DUP3 ADD DUP1 PUSH1 0x40 MSTORE POP DUP2 ADD SWAP1 PUSH2 0x49F SWAP2 SWAP1 PUSH2 0x10D8 JUMP JUMPDEST SWAP1 POP JUMPDEST PUSH1 0x0 PUSH2 0x4B9 DUP3 PUSH1 0x1 SLOAD PUSH2 0xE0A SWAP1 SWAP2 SWAP1 PUSH4 0xFFFFFFFF AND JUMP JUMPDEST SWAP1 POP PUSH1 0x0 PUSH2 0x4D0 DUP3 DUP7 PUSH2 0xDDE SWAP1 SWAP2 SWAP1 PUSH4 0xFFFFFFFF AND JUMP JUMPDEST SWAP1 POP DUP1 SWAP6 POP POP POP POP POP POP SWAP2 SWAP1 POP JUMP JUMPDEST PUSH1 0x1 ISZERO ISZERO PUSH1 0x6 PUSH1 0x0 CALLER PUSH20 0xFFFFFFFFFFFFFFFFFFFFFFFFFFFFFFFFFFFFFFFF AND PUSH20 0xFFFFFFFFFFFFFFFFFFFFFFFFFFFFFFFFFFFFFFFF AND DUP2 MSTORE PUSH1 0x20 ADD SWAP1 DUP2 MSTORE PUSH1 0x20 ADD PUSH1 0x0 KECCAK256 PUSH1 0x0 SWAP1 SLOAD SWAP1 PUSH2 0x100 EXP SWAP1 DIV PUSH1 0xFF AND ISZERO ISZERO EQ PUSH2 0x53C JUMPI PUSH1 0x0 DUP1 REVERT JUMPDEST DUP1 PUSH1 0x0 DUP1 SLOAD SWAP1 PUSH2 0x100 EXP SWAP1 DIV PUSH20 0xFFFFFFFFFFFFFFFFFFFFFFFFFFFFFFFFFFFFFFFF AND PUSH20 0xFFFFFFFFFFFFFFFFFFFFFFFFFFFFFFFFFFFFFFFF AND PUSH4 0x70A08231 DUP5 PUSH1 0x40 MLOAD DUP3 PUSH4 0xFFFFFFFF AND PUSH1 0xE0 SHL DUP2 MSTORE PUSH1 0x4 ADD PUSH2 0x596 SWAP2 SWAP1 PUSH2 0x1164 JUMP JUMPDEST PUSH1 0x20 PUSH1 0x40 MLOAD DUP1 DUP4 SUB DUP2 DUP7 GAS STATICCALL ISZERO DUP1 ISZERO PUSH2 0x5B3 JUMPI RETURNDATASIZE PUSH1 0x0 DUP1 RETURNDATACOPY RETURNDATASIZE PUSH1 0x0 REVERT JUMPDEST POP POP POP POP PUSH1 0x40 MLOAD RETURNDATASIZE PUSH1 0x1F NOT PUSH1 0x1F DUP3 ADD AND DUP3 ADD DUP1 PUSH1 0x40 MSTORE POP DUP2 ADD SWAP1 PUSH2 0x5D7 SWAP2 SWAP1 PUSH2 0x10D8 JUMP JUMPDEST LT ISZERO PUSH2 0x5E2 JUMPI PUSH1 0x0 DUP1 REVERT JUMPDEST PUSH1 0x0 PUSH2 0x5ED DUP3 PUSH2 0x2A8 JUMP JUMPDEST SWAP1 POP PUSH1 0x0 PUSH2 0x61A PUSH2 0x3E8 PUSH2 0x60C PUSH1 0x2 SLOAD DUP6 PUSH2 0xE20 SWAP1 SWAP2 SWAP1 PUSH4 0xFFFFFFFF AND JUMP JUMPDEST PUSH2 0xE0A SWAP1 SWAP2 SWAP1 PUSH4 0xFFFFFFFF AND JUMP JUMPDEST SWAP1 POP PUSH2 0x631 DUP2 PUSH1 0x4 SLOAD PUSH2 0xDF4 SWAP1 SWAP2 SWAP1 PUSH4 0xFFFFFFFF AND JUMP JUMPDEST PUSH1 0x4 DUP2 SWAP1 SSTORE POP PUSH2 0x64A DUP2 DUP4 PUSH2 0xDDE SWAP1 SWAP2 SWAP1 PUSH4 0xFFFFFFFF AND JUMP JUMPDEST SWAP2 POP DUP4 PUSH20 0xFFFFFFFFFFFFFFFFFFFFFFFFFFFFFFFFFFFFFFFF AND PUSH2 0x8FC DUP4 SWAP1 DUP2 ISZERO MUL SWAP1 PUSH1 0x40 MLOAD PUSH1 0x0 PUSH1 0x40 MLOAD DUP1 DUP4 SUB DUP2 DUP6 DUP9 DUP9 CALL SWAP4 POP POP POP POP ISZERO DUP1 ISZERO PUSH2 0x692 JUMPI RETURNDATASIZE PUSH1 0x0 DUP1 RETURNDATACOPY RETURNDATASIZE PUSH1 0x0 REVERT JUMPDEST POP PUSH1 0x0 DUP1 SLOAD SWAP1 PUSH2 0x100 EXP SWAP1 DIV PUSH20 0xFFFFFFFFFFFFFFFFFFFFFFFFFFFFFFFFFFFFFFFF AND PUSH20 0xFFFFFFFFFFFFFFFFFFFFFFFFFFFFFFFFFFFFFFFF AND PUSH4 0x23B872DD DUP6 ADDRESS DUP7 PUSH1 0x40 MLOAD DUP5 PUSH4 0xFFFFFFFF AND PUSH1 0xE0 SHL DUP2 MSTORE PUSH1 0x4 ADD PUSH2 0x6F0 SWAP4 SWAP3 SWAP2 SWAP1 PUSH2 0x117F JUMP JUMPDEST PUSH1 0x20 PUSH1 0x40 MLOAD DUP1 DUP4 SUB DUP2 PUSH1 0x0 DUP8 GAS CALL ISZERO DUP1 ISZERO PUSH2 0x70F JUMPI RETURNDATASIZE PUSH1 0x0 DUP1 RETURNDATACOPY RETURNDATASIZE PUSH1 0x0 REVERT JUMPDEST POP POP POP POP PUSH1 0x40 MLOAD RETURNDATASIZE PUSH1 0x1F NOT PUSH1 0x1F DUP3 ADD AND DUP3 ADD DUP1 PUSH1 0x40 MSTORE POP DUP2 ADD SWAP1 PUSH2 0x733 SWAP2 SWAP1 PUSH2 0x11CB JUMP JUMPDEST POP SELFBALANCE PUSH1 0x3 DUP2 SWAP1 SSTORE POP PUSH32 0x2071A9F40FDEF4EA79C384BE80FD89A3C0CEC179FB2BDC12DB4DCEC9D3F246C6 PUSH2 0x773 PUSH1 0x4 SLOAD PUSH1 0x3 SLOAD PUSH2 0xDDE SWAP1 SWAP2 SWAP1 PUSH4 0xFFFFFFFF AND JUMP JUMPDEST PUSH1 0x0 DUP1 SLOAD SWAP1 PUSH2 0x100 EXP SWAP1 DIV PUSH20 0xFFFFFFFFFFFFFFFFFFFFFFFFFFFFFFFFFFFFFFFF AND PUSH20 0xFFFFFFFFFFFFFFFFFFFFFFFFFFFFFFFFFFFFFFFF AND PUSH4 0x70A08231 ADDRESS PUSH1 0x40 MLOAD DUP3 PUSH4 0xFFFFFFFF AND PUSH1 0xE0 SHL DUP2 MSTORE PUSH1 0x4 ADD PUSH2 0x7CC SWAP2 SWAP1 PUSH2 0x10A8 JUMP JUMPDEST PUSH1 0x20 PUSH1 0x40 MLOAD DUP1 DUP4 SUB DUP2 DUP7 GAS STATICCALL ISZERO DUP1 ISZERO PUSH2 0x7E9 JUMPI RETURNDATASIZE PUSH1 0x0 DUP1 RETURNDATACOPY RETURNDATASIZE PUSH1 0x0 REVERT JUMPDEST POP POP POP POP PUSH1 0x40 MLOAD RETURNDATASIZE PUSH1 0x1F NOT PUSH1 0x1F DUP3 ADD AND DUP3 ADD DUP1 PUSH1 0x40 MSTORE POP DUP2 ADD SWAP1 PUSH2 0x80D SWAP2 SWAP1 PUSH2 0x10D8 JUMP JUMPDEST TIMESTAMP PUSH1 0x40 MLOAD PUSH2 0x81D SWAP4 SWAP3 SWAP2 SWAP1 PUSH2 0x11F8 JUMP JUMPDEST PUSH1 0x40 MLOAD DUP1 SWAP2 SUB SWAP1 LOG1 POP POP POP POP JUMP JUMPDEST PUSH1 0x0 DUP1 PUSH2 0x845 PUSH1 0x4 SLOAD PUSH1 0x3 SLOAD PUSH2 0xDDE SWAP1 SWAP2 SWAP1 PUSH4 0xFFFFFFFF AND JUMP JUMPDEST SWAP1 POP PUSH1 0x0 DUP1 PUSH1 0x0 SWAP1 SLOAD SWAP1 PUSH2 0x100 EXP SWAP1 DIV PUSH20 0xFFFFFFFFFFFFFFFFFFFFFFFFFFFFFFFFFFFFFFFF AND PUSH20 0xFFFFFFFFFFFFFFFFFFFFFFFFFFFFFFFFFFFFFFFF AND PUSH4 0x70A08231 ADDRESS PUSH1 0x40 MLOAD DUP3 PUSH4 0xFFFFFFFF AND PUSH1 0xE0 SHL DUP2 MSTORE PUSH1 0x4 ADD PUSH2 0x8A3 SWAP2 SWAP1 PUSH2 0x10A8 JUMP JUMPDEST PUSH1 0x20 PUSH1 0x40 MLOAD DUP1 DUP4 SUB DUP2 DUP7 GAS STATICCALL ISZERO DUP1 ISZERO PUSH2 0x8C0 JUMPI RETURNDATASIZE PUSH1 0x0 DUP1 RETURNDATACOPY RETURNDATASIZE PUSH1 0x0 REVERT JUMPDEST POP POP POP POP PUSH1 0x40 MLOAD RETURNDATASIZE PUSH1 0x1F NOT PUSH1 0x1F DUP3 ADD AND DUP3 ADD DUP1 PUSH1 0x40 MSTORE POP DUP2 ADD SWAP1 PUSH2 0x8E4 SWAP2 SWAP1 PUSH2 0x10D8 JUMP JUMPDEST SWAP1 POP PUSH1 0x0 PUSH2 0x8FB DUP6 DUP5 PUSH2 0xDF4 SWAP1 SWAP2 SWAP1 PUSH4 0xFFFFFFFF AND JUMP JUMPDEST SWAP1 POP PUSH1 0x0 PUSH2 0x914 DUP3 PUSH1 0x1 SLOAD PUSH2 0xE0A SWAP1 SWAP2 SWAP1 PUSH4 0xFFFFFFFF AND JUMP JUMPDEST SWAP1 POP PUSH1 0x0 PUSH2 0x92B DUP3 DUP6 PUSH2 0xDDE SWAP1 SWAP2 SWAP1 PUSH4 0xFFFFFFFF AND JUMP JUMPDEST SWAP1 POP DUP1 SWAP6 POP POP POP POP POP POP SWAP2 SWAP1 POP JUMP JUMPDEST CALLER PUSH20 0xFFFFFFFFFFFFFFFFFFFFFFFFFFFFFFFFFFFFFFFF AND PUSH1 0x5 PUSH1 0x0 SWAP1 SLOAD SWAP1 PUSH2 0x100 EXP SWAP1 DIV PUSH20 0xFFFFFFFFFFFFFFFFFFFFFFFFFFFFFFFFFFFFFFFF AND PUSH20 0xFFFFFFFFFFFFFFFFFFFFFFFFFFFFFFFFFFFFFFFF AND EQ PUSH2 0x9CA JUMPI PUSH1 0x40 MLOAD PUSH32 0x8C379A000000000000000000000000000000000000000000000000000000000 DUP2 MSTORE PUSH1 0x4 ADD PUSH2 0x9C1 SWAP1 PUSH2 0x1079 JUMP JUMPDEST PUSH1 0x40 MLOAD DUP1 SWAP2 SUB SWAP1 REVERT JUMPDEST DUP1 PUSH1 0x6 PUSH1 0x0 DUP5 PUSH20 0xFFFFFFFFFFFFFFFFFFFFFFFFFFFFFFFFFFFFFFFF AND PUSH20 0xFFFFFFFFFFFFFFFFFFFFFFFFFFFFFFFFFFFFFFFF AND DUP2 MSTORE PUSH1 0x20 ADD SWAP1 DUP2 MSTORE PUSH1 0x20 ADD PUSH1 0x0 KECCAK256 PUSH1 0x0 PUSH2 0x100 EXP DUP2 SLOAD DUP2 PUSH1 0xFF MUL NOT AND SWAP1 DUP4 ISZERO ISZERO MUL OR SWAP1 SSTORE POP POP POP JUMP JUMPDEST PUSH1 0x1 ISZERO ISZERO PUSH1 0x6 PUSH1 0x0 CALLER PUSH20 0xFFFFFFFFFFFFFFFFFFFFFFFFFFFFFFFFFFFFFFFF AND PUSH20 0xFFFFFFFFFFFFFFFFFFFFFFFFFFFFFFFFFFFFFFFF AND DUP2 MSTORE PUSH1 0x20 ADD SWAP1 DUP2 MSTORE PUSH1 0x20 ADD PUSH1 0x0 KECCAK256 PUSH1 0x0 SWAP1 SLOAD SWAP1 PUSH2 0x100 EXP SWAP1 DIV PUSH1 0xFF AND ISZERO ISZERO EQ PUSH2 0xA82 JUMPI PUSH1 0x0 DUP1 REVERT JUMPDEST JUMP JUMPDEST CALLER PUSH20 0xFFFFFFFFFFFFFFFFFFFFFFFFFFFFFFFFFFFFFFFF AND PUSH1 0x5 PUSH1 0x0 SWAP1 SLOAD SWAP1 PUSH2 0x100 EXP SWAP1 DIV PUSH20 0xFFFFFFFFFFFFFFFFFFFFFFFFFFFFFFFFFFFFFFFF AND PUSH20 0xFFFFFFFFFFFFFFFFFFFFFFFFFFFFFFFFFFFFFFFF AND EQ PUSH2 0xB14 JUMPI PUSH1 0x40 MLOAD PUSH32 0x8C379A000000000000000000000000000000000000000000000000000000000 DUP2 MSTORE PUSH1 0x4 ADD PUSH2 0xB0B SWAP1 PUSH2 0x1079 JUMP JUMPDEST PUSH1 0x40 MLOAD DUP1 SWAP2 SUB SWAP1 REVERT JUMPDEST PUSH1 0x5 PUSH1 0x0 SWAP1 SLOAD SWAP1 PUSH2 0x100 EXP SWAP1 DIV PUSH20 0xFFFFFFFFFFFFFFFFFFFFFFFFFFFFFFFFFFFFFFFF AND PUSH20 0xFFFFFFFFFFFFFFFFFFFFFFFFFFFFFFFFFFFFFFFF AND PUSH2 0x8FC SELFBALANCE SWAP1 DUP2 ISZERO MUL SWAP1 PUSH1 0x40 MLOAD PUSH1 0x0 PUSH1 0x40 MLOAD DUP1 DUP4 SUB DUP2 DUP6 DUP9 DUP9 CALL SWAP4 POP POP POP POP ISZERO DUP1 ISZERO PUSH2 0xB7C JUMPI RETURNDATASIZE PUSH1 0x0 DUP1 RETURNDATACOPY RETURNDATASIZE PUSH1 0x0 REVERT JUMPDEST POP PUSH1 0x0 DUP1 SLOAD SWAP1 PUSH2 0x100 EXP SWAP1 DIV PUSH20 0xFFFFFFFFFFFFFFFFFFFFFFFFFFFFFFFFFFFFFFFF AND PUSH20 0xFFFFFFFFFFFFFFFFFFFFFFFFFFFFFFFFFFFFFFFF AND PUSH4 0xA9059CBB PUSH1 0x5 PUSH1 0x0 SWAP1 SLOAD SWAP1 PUSH2 0x100 EXP SWAP1 DIV PUSH20 0xFFFFFFFFFFFFFFFFFFFFFFFFFFFFFFFFFFFFFFFF AND PUSH1 0x0 DUP1 SLOAD SWAP1 PUSH2 0x100 EXP SWAP1 DIV PUSH20 0xFFFFFFFFFFFFFFFFFFFFFFFFFFFFFFFFFFFFFFFF AND PUSH20 0xFFFFFFFFFFFFFFFFFFFFFFFFFFFFFFFFFFFFFFFF AND PUSH4 0x70A08231 ADDRESS PUSH1 0x40 MLOAD DUP3 PUSH4 0xFFFFFFFF AND PUSH1 0xE0 SHL DUP2 MSTORE PUSH1 0x4 ADD PUSH2 0xC35 SWAP2 SWAP1 PUSH2 0x10A8 JUMP JUMPDEST PUSH1 0x20 PUSH1 0x40 MLOAD DUP1 DUP4 SUB DUP2 DUP7 GAS STATICCALL ISZERO DUP1 ISZERO PUSH2 0xC52 JUMPI RETURNDATASIZE PUSH1 0x0 DUP1 RETURNDATACOPY RETURNDATASIZE PUSH1 0x0 REVERT JUMPDEST POP POP POP POP PUSH1 0x40 MLOAD RETURNDATASIZE PUSH1 0x1F NOT PUSH1 0x1F DUP3 ADD AND DUP3 ADD DUP1 PUSH1 0x40 MSTORE POP DUP2 ADD SWAP1 PUSH2 0xC76 SWAP2 SWAP1 PUSH2 0x10D8 JUMP JUMPDEST PUSH1 0x40 MLOAD DUP4 PUSH4 0xFFFFFFFF AND PUSH1 0xE0 SHL DUP2 MSTORE PUSH1 0x4 ADD PUSH2 0xC93 SWAP3 SWAP2 SWAP1 PUSH2 0x122F JUMP JUMPDEST PUSH1 0x20 PUSH1 0x40 MLOAD DUP1 DUP4 SUB DUP2 PUSH1 0x0 DUP8 GAS CALL ISZERO DUP1 ISZERO PUSH2 0xCB2 JUMPI RETURNDATASIZE PUSH1 0x0 DUP1 RETURNDATACOPY RETURNDATASIZE PUSH1 0x0 REVERT JUMPDEST POP POP POP POP PUSH1 0x40 MLOAD RETURNDATASIZE PUSH1 0x1F NOT PUSH1 0x1F DUP3 ADD AND DUP3 ADD DUP1 PUSH1 0x40 MSTORE POP DUP2 ADD SWAP1 PUSH2 0xCD6 SWAP2 SWAP1 PUSH2 0x11CB JUMP JUMPDEST POP JUMP JUMPDEST CALLER PUSH20 0xFFFFFFFFFFFFFFFFFFFFFFFFFFFFFFFFFFFFFFFF AND PUSH1 0x5 PUSH1 0x0 SWAP1 SLOAD SWAP1 PUSH2 0x100 EXP SWAP1 DIV PUSH20 0xFFFFFFFFFFFFFFFFFFFFFFFFFFFFFFFFFFFFFFFF AND PUSH20 0xFFFFFFFFFFFFFFFFFFFFFFFFFFFFFFFFFFFFFFFF AND EQ PUSH2 0xD69 JUMPI PUSH1 0x40 MLOAD PUSH32 0x8C379A000000000000000000000000000000000000000000000000000000000 DUP2 MSTORE PUSH1 0x4 ADD PUSH2 0xD60 SWAP1 PUSH2 0x1079 JUMP JUMPDEST PUSH1 0x40 MLOAD DUP1 SWAP2 SUB SWAP1 REVERT JUMPDEST PUSH1 0x5 PUSH1 0x0 SWAP1 SLOAD SWAP1 PUSH2 0x100 EXP SWAP1 DIV PUSH20 0xFFFFFFFFFFFFFFFFFFFFFFFFFFFFFFFFFFFFFFFF AND PUSH20 0xFFFFFFFFFFFFFFFFFFFFFFFFFFFFFFFFFFFFFFFF AND PUSH2 0x8FC PUSH1 0x4 SLOAD SWAP1 DUP2 ISZERO MUL SWAP1 PUSH1 0x40 MLOAD PUSH1 0x0 PUSH1 0x40 MLOAD DUP1 DUP4 SUB DUP2 DUP6 DUP9 DUP9 CALL SWAP4 POP POP POP POP ISZERO DUP1 ISZERO PUSH2 0xDD3 JUMPI RETURNDATASIZE PUSH1 0x0 DUP1 RETURNDATACOPY RETURNDATASIZE PUSH1 0x0 REVERT JUMPDEST POP PUSH1 0x0 PUSH1 0x4 DUP2 SWAP1 SSTORE POP JUMP JUMPDEST PUSH1 0x0 DUP2 DUP4 PUSH2 0xDEC SWAP2 SWAP1 PUSH2 0x1287 JUMP JUMPDEST SWAP1 POP SWAP3 SWAP2 POP POP JUMP JUMPDEST PUSH1 0x0 DUP2 DUP4 PUSH2 0xE02 SWAP2 SWAP1 PUSH2 0x12BB JUMP JUMPDEST SWAP1 POP SWAP3 SWAP2 POP POP JUMP JUMPDEST PUSH1 0x0 DUP2 DUP4 PUSH2 0xE18 SWAP2 SWAP1 PUSH2 0x1340 JUMP JUMPDEST SWAP1 POP SWAP3 SWAP2 POP POP JUMP JUMPDEST PUSH1 0x0 DUP2 DUP4 PUSH2 0xE2E SWAP2 SWAP1 PUSH2 0x1371 JUMP JUMPDEST SWAP1 POP SWAP3 SWAP2 POP POP JUMP JUMPDEST PUSH1 0x0 DUP2 SWAP1 POP SWAP2 SWAP1 POP JUMP JUMPDEST PUSH2 0xE49 DUP2 PUSH2 0xE36 JUMP JUMPDEST DUP3 MSTORE POP POP JUMP JUMPDEST PUSH1 0x0 PUSH1 0x20 DUP3 ADD SWAP1 POP PUSH2 0xE64 PUSH1 0x0 DUP4 ADD DUP5 PUSH2 0xE40 JUMP JUMPDEST SWAP3 SWAP2 POP POP JUMP JUMPDEST PUSH1 0x0 DUP1 REVERT JUMPDEST PUSH2 0xE78 DUP2 PUSH2 0xE36 JUMP JUMPDEST DUP2 EQ PUSH2 0xE83 JUMPI PUSH1 0x0 DUP1 REVERT JUMPDEST POP JUMP JUMPDEST PUSH1 0x0 DUP2 CALLDATALOAD SWAP1 POP PUSH2 0xE95 DUP2 PUSH2 0xE6F JUMP JUMPDEST SWAP3 SWAP2 POP POP JUMP JUMPDEST PUSH1 0x0 PUSH1 0x20 DUP3 DUP5 SUB SLT ISZERO PUSH2 0xEB1 JUMPI PUSH2 0xEB0 PUSH2 0xE6A JUMP JUMPDEST JUMPDEST PUSH1 0x0 PUSH2 0xEBF DUP5 DUP3 DUP6 ADD PUSH2 0xE86 JUMP JUMPDEST SWAP2 POP POP SWAP3 SWAP2 POP POP JUMP JUMPDEST PUSH1 0x0 PUSH20 0xFFFFFFFFFFFFFFFFFFFFFFFFFFFFFFFFFFFFFFFF DUP3 AND SWAP1 POP SWAP2 SWAP1 POP JUMP JUMPDEST PUSH1 0x0 PUSH2 0xEF3 DUP3 PUSH2 0xEC8 JUMP JUMPDEST SWAP1 POP SWAP2 SWAP1 POP JUMP JUMPDEST PUSH2 0xF03 DUP2 PUSH2 0xEE8 JUMP JUMPDEST DUP2 EQ PUSH2 0xF0E JUMPI PUSH1 0x0 DUP1 REVERT JUMPDEST POP JUMP JUMPDEST PUSH1 0x0 DUP2 CALLDATALOAD SWAP1 POP PUSH2 0xF20 DUP2 PUSH2 0xEFA JUMP JUMPDEST SWAP3 SWAP2 POP POP JUMP JUMPDEST PUSH1 0x0 DUP1 PUSH1 0x40 DUP4 DUP6 SUB SLT ISZERO PUSH2 0xF3D JUMPI PUSH2 0xF3C PUSH2 0xE6A JUMP JUMPDEST JUMPDEST PUSH1 0x0 PUSH2 0xF4B DUP6 DUP3 DUP7 ADD PUSH2 0xF11 JUMP JUMPDEST SWAP3 POP POP PUSH1 0x20 PUSH2 0xF5C DUP6 DUP3 DUP7 ADD PUSH2 0xE86 JUMP JUMPDEST SWAP2 POP POP SWAP3 POP SWAP3 SWAP1 POP JUMP JUMPDEST PUSH1 0x0 PUSH2 0xF71 DUP3 PUSH2 0xEC8 JUMP JUMPDEST SWAP1 POP SWAP2 SWAP1 POP JUMP JUMPDEST PUSH2 0xF81 DUP2 PUSH2 0xF66 JUMP JUMPDEST DUP2 EQ PUSH2 0xF8C JUMPI PUSH1 0x0 DUP1 REVERT JUMPDEST POP JUMP JUMPDEST PUSH1 0x0 DUP2 CALLDATALOAD SWAP1 POP PUSH2 0xF9E DUP2 PUSH2 0xF78 JUMP JUMPDEST SWAP3 SWAP2 POP POP JUMP JUMPDEST PUSH1 0x0 DUP2 ISZERO ISZERO SWAP1 POP SWAP2 SWAP1 POP JUMP JUMPDEST PUSH2 0xFB9 DUP2 PUSH2 0xFA4 JUMP JUMPDEST DUP2 EQ PUSH2 0xFC4 JUMPI PUSH1 0x0 DUP1 REVERT JUMPDEST POP JUMP JUMPDEST PUSH1 0x0 DUP2 CALLDATALOAD SWAP1 POP PUSH2 0xFD6 DUP2 PUSH2 0xFB0 JUMP JUMPDEST SWAP3 SWAP2 POP POP JUMP JUMPDEST PUSH1 0x0 DUP1 PUSH1 0x40 DUP4 DUP6 SUB SLT ISZERO PUSH2 0xFF3 JUMPI PUSH2 0xFF2 PUSH2 0xE6A JUMP JUMPDEST JUMPDEST PUSH1 0x0 PUSH2 0x1001 DUP6 DUP3 DUP7 ADD PUSH2 0xF8F JUMP JUMPDEST SWAP3 POP POP PUSH1 0x20 PUSH2 0x1012 DUP6 DUP3 DUP7 ADD PUSH2 0xFC7 JUMP JUMPDEST SWAP2 POP POP SWAP3 POP SWAP3 SWAP1 POP JUMP JUMPDEST PUSH1 0x0 DUP3 DUP3 MSTORE PUSH1 0x20 DUP3 ADD SWAP1 POP SWAP3 SWAP2 POP POP JUMP JUMPDEST PUSH32 0x4F776E61626C653A2063616C6C6572206973206E6F7420746865206F776E6572 PUSH1 0x0 DUP3 ADD MSTORE POP JUMP JUMPDEST PUSH1 0x0 PUSH2 0x1063 PUSH1 0x20 DUP4 PUSH2 0x101C JUMP JUMPDEST SWAP2 POP PUSH2 0x106E DUP3 PUSH2 0x102D JUMP JUMPDEST PUSH1 0x20 DUP3 ADD SWAP1 POP SWAP2 SWAP1 POP JUMP JUMPDEST PUSH1 0x0 PUSH1 0x20 DUP3 ADD SWAP1 POP DUP2 DUP2 SUB PUSH1 0x0 DUP4 ADD MSTORE PUSH2 0x1092 DUP2 PUSH2 0x1056 JUMP JUMPDEST SWAP1 POP SWAP2 SWAP1 POP JUMP JUMPDEST PUSH2 0x10A2 DUP2 PUSH2 0xF66 JUMP JUMPDEST DUP3 MSTORE POP POP JUMP JUMPDEST PUSH1 0x0 PUSH1 0x20 DUP3 ADD SWAP1 POP PUSH2 0x10BD PUSH1 0x0 DUP4 ADD DUP5 PUSH2 0x1099 JUMP JUMPDEST SWAP3 SWAP2 POP POP JUMP JUMPDEST PUSH1 0x0 DUP2 MLOAD SWAP1 POP PUSH2 0x10D2 DUP2 PUSH2 0xE6F JUMP JUMPDEST SWAP3 SWAP2 POP POP JUMP JUMPDEST PUSH1 0x0 PUSH1 0x20 DUP3 DUP5 SUB SLT ISZERO PUSH2 0x10EE JUMPI PUSH2 0x10ED PUSH2 0xE6A JUMP JUMPDEST JUMPDEST PUSH1 0x0 PUSH2 0x10FC DUP5 DUP3 DUP6 ADD PUSH2 0x10C3 JUMP JUMPDEST SWAP2 POP POP SWAP3 SWAP2 POP POP JUMP JUMPDEST PUSH1 0x0 DUP2 SWAP1 POP SWAP2 SWAP1 POP JUMP JUMPDEST PUSH1 0x0 PUSH2 0x112A PUSH2 0x1125 PUSH2 0x1120 DUP5 PUSH2 0xEC8 JUMP JUMPDEST PUSH2 0x1105 JUMP JUMPDEST PUSH2 0xEC8 JUMP JUMPDEST SWAP1 POP SWAP2 SWAP1 POP JUMP JUMPDEST PUSH1 0x0 PUSH2 0x113C DUP3 PUSH2 0x110F JUMP JUMPDEST SWAP1 POP SWAP2 SWAP1 POP JUMP JUMPDEST PUSH1 0x0 PUSH2 0x114E DUP3 PUSH2 0x1131 JUMP JUMPDEST SWAP1 POP SWAP2 SWAP1 POP JUMP JUMPDEST PUSH2 0x115E DUP2 PUSH2 0x1143 JUMP JUMPDEST DUP3 MSTORE POP POP JUMP JUMPDEST PUSH1 0x0 PUSH1 0x20 DUP3 ADD SWAP1 POP PUSH2 0x1179 PUSH1 0x0 DUP4 ADD DUP5 PUSH2 0x1155 JUMP JUMPDEST SWAP3 SWAP2 POP POP JUMP JUMPDEST PUSH1 0x0 PUSH1 0x60 DUP3 ADD SWAP1 POP PUSH2 0x1194 PUSH1 0x0 DUP4 ADD DUP7 PUSH2 0x1155 JUMP JUMPDEST PUSH2 0x11A1 PUSH1 0x20 DUP4 ADD DUP6 PUSH2 0x1099 JUMP JUMPDEST PUSH2 0x11AE PUSH1 0x40 DUP4 ADD DUP5 PUSH2 0xE40 JUMP JUMPDEST SWAP5 SWAP4 POP POP POP POP JUMP JUMPDEST PUSH1 0x0 DUP2 MLOAD SWAP1 POP PUSH2 0x11C5 DUP2 PUSH2 0xFB0 JUMP JUMPDEST SWAP3 SWAP2 POP POP JUMP JUMPDEST PUSH1 0x0 PUSH1 0x20 DUP3 DUP5 SUB SLT ISZERO PUSH2 0x11E1 JUMPI PUSH2 0x11E0 PUSH2 0xE6A JUMP JUMPDEST JUMPDEST PUSH1 0x0 PUSH2 0x11EF DUP5 DUP3 DUP6 ADD PUSH2 0x11B6 JUMP JUMPDEST SWAP2 POP POP SWAP3 SWAP2 POP POP JUMP JUMPDEST PUSH1 0x0 PUSH1 0x60 DUP3 ADD SWAP1 POP PUSH2 0x120D PUSH1 0x0 DUP4 ADD DUP7 PUSH2 0xE40 JUMP JUMPDEST PUSH2 0x121A PUSH1 0x20 DUP4 ADD DUP6 PUSH2 0xE40 JUMP JUMPDEST PUSH2 0x1227 PUSH1 0x40 DUP4 ADD DUP5 PUSH2 0xE40 JUMP JUMPDEST SWAP5 SWAP4 POP POP POP POP JUMP JUMPDEST PUSH1 0x0 PUSH1 0x40 DUP3 ADD SWAP1 POP PUSH2 0x1244 PUSH1 0x0 DUP4 ADD DUP6 PUSH2 0x1099 JUMP JUMPDEST PUSH2 0x1251 PUSH1 0x20 DUP4 ADD DUP5 PUSH2 0xE40 JUMP JUMPDEST SWAP4 SWAP3 POP POP POP JUMP JUMPDEST PUSH32 0x4E487B7100000000000000000000000000000000000000000000000000000000 PUSH1 0x0 MSTORE PUSH1 0x11 PUSH1 0x4 MSTORE PUSH1 0x24 PUSH1 0x0 REVERT JUMPDEST PUSH1 0x0 PUSH2 0x1292 DUP3 PUSH2 0xE36 JUMP JUMPDEST SWAP2 POP PUSH2 0x129D DUP4 PUSH2 0xE36 JUMP JUMPDEST SWAP3 POP DUP3 DUP3 LT ISZERO PUSH2 0x12B0 JUMPI PUSH2 0x12AF PUSH2 0x1258 JUMP JUMPDEST JUMPDEST DUP3 DUP3 SUB SWAP1 POP SWAP3 SWAP2 POP POP JUMP JUMPDEST PUSH1 0x0 PUSH2 0x12C6 DUP3 PUSH2 0xE36 JUMP JUMPDEST SWAP2 POP PUSH2 0x12D1 DUP4 PUSH2 0xE36 JUMP JUMPDEST SWAP3 POP DUP3 PUSH32 0xFFFFFFFFFFFFFFFFFFFFFFFFFFFFFFFFFFFFFFFFFFFFFFFFFFFFFFFFFFFFFFFF SUB DUP3 GT ISZERO PUSH2 0x1306 JUMPI PUSH2 0x1305 PUSH2 0x1258 JUMP JUMPDEST JUMPDEST DUP3 DUP3 ADD SWAP1 POP SWAP3 SWAP2 POP POP JUMP JUMPDEST PUSH32 0x4E487B7100000000000000000000000000000000000000000000000000000000 PUSH1 0x0 MSTORE PUSH1 0x12 PUSH1 0x4 MSTORE PUSH1 0x24 PUSH1 0x0 REVERT JUMPDEST PUSH1 0x0 PUSH2 0x134B DUP3 PUSH2 0xE36 JUMP JUMPDEST SWAP2 POP PUSH2 0x1356 DUP4 PUSH2 0xE36 JUMP JUMPDEST SWAP3 POP DUP3 PUSH2 0x1366 JUMPI PUSH2 0x1365 PUSH2 0x1311 JUMP JUMPDEST JUMPDEST DUP3 DUP3 DIV SWAP1 POP SWAP3 SWAP2 POP POP JUMP JUMPDEST PUSH1 0x0 PUSH2 0x137C DUP3 PUSH2 0xE36 JUMP JUMPDEST SWAP2 POP PUSH2 0x1387 DUP4 PUSH2 0xE36 JUMP JUMPDEST SWAP3 POP DUP2 PUSH32 0xFFFFFFFFFFFFFFFFFFFFFFFFFFFFFFFFFFFFFFFFFFFFFFFFFFFFFFFFFFFFFFFF DIV DUP4 GT DUP3 ISZERO ISZERO AND ISZERO PUSH2 0x13C0 JUMPI PUSH2 0x13BF PUSH2 0x1258 JUMP JUMPDEST JUMPDEST DUP3 DUP3 MUL SWAP1 POP SWAP3 SWAP2 POP POP JUMP INVALID LOG2 PUSH5 0x6970667358 0x22 SLT KECCAK256 0xD1 ADDRESS 0xD8 TIMESTAMP 0x49 0x2C 0xB3 0xE4 JUMPI 0x1E 0xB4 SWAP6 SWAP8 0xB9 0x2A 0xD DUP1 0xE8 PUSH9 0xC7D1581100A5189CFE SMOD DUP7 0xBA 0x5D PUSH5 0x736F6C6343 STOP ADDMOD 0xF STOP CALLER "
				},
				"gasEstimates": {
					"creation": {
						"codeDepositCost": "1024200",
						"executionCost": "infinite",
						"totalCost": "infinite"
					},
					"external": {
						"DCF_ETH(uint256)": "infinite",
						"ETH_DCF(uint256)": "infinite",
						"Warning_protect()": "infinite",
						"admin_fee()": "infinite",
						"deposit()": "2402",
						"market(address,uint256)": "infinite",
						"setRouter(address,bool)": "27161",
						"viewAdminFee()": "6789"
					}
				},
				"methodIdentifiers": {
					"DCF_ETH(uint256)": "3a23bf49",
					"ETH_DCF(uint256)": "97dedb1d",
					"Warning_protect()": "dac3fad4",
					"admin_fee()": "fee3f7f9",
					"deposit()": "d0e30db0",
					"market(address,uint256)": "94756aa7",
					"setRouter(address,bool)": "c3c64674",
					"viewAdminFee()": "1758d6f3"
				}
			},
			"storageLayout": {
				"storage": [
					{
						"astId": 402,
						"contract": "Dcoffer/treasury.sol:treasury",
						"label": "dcoff",
						"offset": 0,
						"slot": "0",
						"type": "t_contract(IERC20)77"
					},
					{
						"astId": 404,
						"contract": "Dcoffer/treasury.sol:treasury",
						"label": "K",
						"offset": 0,
						"slot": "1",
						"type": "t_uint256"
					},
					{
						"astId": 406,
						"contract": "Dcoffer/treasury.sol:treasury",
						"label": "fee",
						"offset": 0,
						"slot": "2",
						"type": "t_uint256"
					},
					{
						"astId": 408,
						"contract": "Dcoffer/treasury.sol:treasury",
						"label": "last_balance",
						"offset": 0,
						"slot": "3",
						"type": "t_uint256"
					},
					{
						"astId": 410,
						"contract": "Dcoffer/treasury.sol:treasury",
						"label": "admin",
						"offset": 0,
						"slot": "4",
						"type": "t_uint256"
					},
					{
						"astId": 446,
						"contract": "Dcoffer/treasury.sol:treasury",
						"label": "owner",
						"offset": 0,
						"slot": "5",
						"type": "t_address"
					},
					{
						"astId": 450,
						"contract": "Dcoffer/treasury.sol:treasury",
						"label": "RouterAdmin",
						"offset": 0,
						"slot": "6",
						"type": "t_mapping(t_address,t_bool)"
					}
				],
				"types": {
					"t_address": {
						"encoding": "inplace",
						"label": "address",
						"numberOfBytes": "20"
					},
					"t_bool": {
						"encoding": "inplace",
						"label": "bool",
						"numberOfBytes": "1"
					},
					"t_contract(IERC20)77": {
						"encoding": "inplace",
						"label": "contract IERC20",
						"numberOfBytes": "20"
					},
					"t_mapping(t_address,t_bool)": {
						"encoding": "mapping",
						"key": "t_address",
						"label": "mapping(address => bool)",
						"numberOfBytes": "32",
						"value": "t_bool"
					},
					"t_uint256": {
						"encoding": "inplace",
						"label": "uint256",
						"numberOfBytes": "32"
					}
				}
			},
			"userdoc": {
				"kind": "user",
				"methods": {},
				"version": 1
			}
		}
	}
}