{
	"minerpunk/treasury.sol": {
		"treasury": {
			"abi": [
				{
					"inputs": [],
					"stateMutability": "nonpayable",
					"type": "constructor"
				},
				{
					"inputs": [
						{
							"internalType": "uint256",
							"name": "dcf_amount",
							"type": "uint256"
						}
					],
					"name": "ETH_DCF",
					"outputs": [
						{
							"internalType": "uint256",
							"name": "",
							"type": "uint256"
						}
					],
					"stateMutability": "view",
					"type": "function"
				},
				{
					"inputs": [],
					"name": "Warning_protect",
					"outputs": [],
					"stateMutability": "nonpayable",
					"type": "function"
				},
				{
					"inputs": [],
					"name": "deposit",
					"outputs": [],
					"stateMutability": "payable",
					"type": "function"
				},
				{
					"inputs": [
						{
							"internalType": "uint256",
							"name": "_unit",
							"type": "uint256"
						}
					],
					"name": "market",
					"outputs": [
						{
							"internalType": "uint256",
							"name": "",
							"type": "uint256"
						}
					],
					"stateMutability": "view",
					"type": "function"
				},
				{
					"inputs": [
						{
							"internalType": "address",
							"name": "from",
							"type": "address"
						},
						{
							"internalType": "address payable",
							"name": "to",
							"type": "address"
						},
						{
							"internalType": "uint256",
							"name": "dcf_amount",
							"type": "uint256"
						}
					],
					"name": "market",
					"outputs": [],
					"stateMutability": "nonpayable",
					"type": "function"
				},
				{
					"inputs": [
						{
							"internalType": "uint256",
							"name": "_invertory",
							"type": "uint256"
						}
					],
					"name": "price",
					"outputs": [
						{
							"internalType": "uint256",
							"name": "",
							"type": "uint256"
						}
					],
					"stateMutability": "view",
					"type": "function"
				},
				{
					"inputs": [
						{
							"internalType": "address",
							"name": "user",
							"type": "address"
						},
						{
							"internalType": "bool",
							"name": "power",
							"type": "bool"
						}
					],
					"name": "setRouter",
					"outputs": [],
					"stateMutability": "nonpayable",
					"type": "function"
				}
			],
			"devdoc": {
				"kind": "dev",
				"methods": {},
				"version": 1
			},
			"evm": {
				"assembly": "    /* \"minerpunk/treasury.sol\":278:2309  contract treasury {... */\n  mstore(0x40, 0x80)\n    /* \"minerpunk/treasury.sol\":356:398  0xA9fae5eA311D3CfB2bcC9CAefC5003b30b60b6c3 */\n  0xa9fae5ea311d3cfb2bcc9caefc5003b30b60b6c3\n    /* \"minerpunk/treasury.sol\":333:399  IERC20 dcoff =  IERC20(0xA9fae5eA311D3CfB2bcC9CAefC5003b30b60b6c3) */\n  0x00\n  dup1\n  0x0100\n  exp\n  dup2\n  sload\n  dup2\n  0xffffffffffffffffffffffffffffffffffffffff\n  mul\n  not\n  and\n  swap1\n  dup4\n  0xffffffffffffffffffffffffffffffffffffffff\n  and\n  mul\n  or\n  swap1\n  sstore\n  pop\n    /* \"minerpunk/treasury.sol\":436:478  0xA9fae5eA311D3CfB2bcC9CAefC5003b30b60b6c3 */\n  0xa9fae5ea311d3cfb2bcc9caefc5003b30b60b6c3\n    /* \"minerpunk/treasury.sol\":404:479  IburnFrom dcoffburn = IburnFrom(0xA9fae5eA311D3CfB2bcC9CAefC5003b30b60b6c3) */\n  0x01\n  exp(0x0100, 0x00)\n  dup2\n  sload\n  dup2\n  0xffffffffffffffffffffffffffffffffffffffff\n  mul\n  not\n  and\n  swap1\n  dup4\n  0xffffffffffffffffffffffffffffffffffffffff\n  and\n  mul\n  or\n  swap1\n  sstore\n  pop\n    /* \"minerpunk/treasury.sol\":511:553  0xe3410Af1B80F925ac42b78EA54A48DE13dFA6eBe */\n  0xe3410af1b80f925ac42b78ea54a48de13dfa6ebe\n    /* \"minerpunk/treasury.sol\":484:554  IERC20 minePower =  IERC20(0xe3410Af1B80F925ac42b78EA54A48DE13dFA6eBe) */\n  0x02\n  exp(0x0100, 0x00)\n  dup2\n  sload\n  dup2\n  0xffffffffffffffffffffffffffffffffffffffff\n  mul\n  not\n  and\n  swap1\n  dup4\n  0xffffffffffffffffffffffffffffffffffffffff\n  and\n  mul\n  or\n  swap1\n  sstore\n  pop\n    /* \"minerpunk/treasury.sol\":595:637  0xe3410Af1B80F925ac42b78EA54A48DE13dFA6eBe */\n  0xe3410af1b80f925ac42b78ea54a48de13dfa6ebe\n    /* \"minerpunk/treasury.sol\":559:638  IburnFrom minePowerburn = IburnFrom(0xe3410Af1B80F925ac42b78EA54A48DE13dFA6eBe) */\n  0x03\n  exp(0x0100, 0x00)\n  dup2\n  sload\n  dup2\n  0xffffffffffffffffffffffffffffffffffffffff\n  mul\n  not\n  and\n  swap1\n  dup4\n  0xffffffffffffffffffffffffffffffffffffffff\n  and\n  mul\n  or\n  swap1\n  sstore\n  pop\n    /* \"minerpunk/treasury.sol\":655:725  constructor(){... */\n  callvalue\n  dup1\n  iszero\n  tag_1\n  jumpi\n  0x00\n  dup1\n  revert\ntag_1:\n  pop\n    /* \"minerpunk/treasury.sol\":683:693  msg.sender */\n  caller\n    /* \"minerpunk/treasury.sol\":675:680  owner */\n  0x04\n  0x00\n    /* \"minerpunk/treasury.sol\":675:693  owner = msg.sender */\n  0x0100\n  exp\n  dup2\n  sload\n  dup2\n  0xffffffffffffffffffffffffffffffffffffffff\n  mul\n  not\n  and\n  swap1\n  dup4\n  0xffffffffffffffffffffffffffffffffffffffff\n  and\n  mul\n  or\n  swap1\n  sstore\n  pop\n    /* \"minerpunk/treasury.sol\":705:718  54000e18*1e16 */\n  0x019640378d1c0af1c6338385c000000000\n    /* \"minerpunk/treasury.sol\":701:702  k */\n  0x05\n    /* \"minerpunk/treasury.sol\":701:718  k = 54000e18*1e16 */\n  dup2\n  swap1\n  sstore\n  pop\n    /* \"minerpunk/treasury.sol\":278:2309  contract treasury {... */\n  dataSize(sub_0)\n  dup1\n  dataOffset(sub_0)\n  0x00\n  codecopy\n  0x00\n  return\nstop\n\nsub_0: assembly {\n        /* \"minerpunk/treasury.sol\":278:2309  contract treasury {... */\n      mstore(0x40, 0x80)\n      jumpi(tag_1, lt(calldatasize, 0x04))\n      shr(0xe0, calldataload(0x00))\n      dup1\n      0xc3c64674\n      gt\n      tag_9\n      jumpi\n      dup1\n      0xc3c64674\n      eq\n      tag_5\n      jumpi\n      dup1\n      0xd0e30db0\n      eq\n      tag_6\n      jumpi\n      dup1\n      0xd9e9402f\n      eq\n      tag_7\n      jumpi\n      dup1\n      0xdac3fad4\n      eq\n      tag_8\n      jumpi\n      jump(tag_1)\n    tag_9:\n      dup1\n      0x26a49e37\n      eq\n      tag_2\n      jumpi\n      dup1\n      0x28861d22\n      eq\n      tag_3\n      jumpi\n      dup1\n      0x97dedb1d\n      eq\n      tag_4\n      jumpi\n    tag_1:\n      0x00\n      dup1\n      revert\n        /* \"minerpunk/treasury.sol\":1467:1563  function price(uint256 _invertory)public view returns(uint256){... */\n    tag_2:\n      callvalue\n      dup1\n      iszero\n      tag_10\n      jumpi\n      0x00\n      dup1\n      revert\n    tag_10:\n      pop\n      tag_11\n      0x04\n      dup1\n      calldatasize\n      sub\n      dup2\n      add\n      swap1\n      tag_12\n      swap2\n      swap1\n      tag_13\n      jump\t// in\n    tag_12:\n      tag_14\n      jump\t// in\n    tag_11:\n      mload(0x40)\n      tag_15\n      swap2\n      swap1\n      tag_16\n      jump\t// in\n    tag_15:\n      mload(0x40)\n      dup1\n      swap2\n      sub\n      swap1\n      return\n        /* \"minerpunk/treasury.sol\":1155:1456  function market(uint256 _unit)public view returns(uint256){... */\n    tag_3:\n      callvalue\n      dup1\n      iszero\n      tag_17\n      jumpi\n      0x00\n      dup1\n      revert\n    tag_17:\n      pop\n      tag_18\n      0x04\n      dup1\n      calldatasize\n      sub\n      dup2\n      add\n      swap1\n      tag_19\n      swap2\n      swap1\n      tag_13\n      jump\t// in\n    tag_19:\n      tag_20\n      jump\t// in\n    tag_18:\n      mload(0x40)\n      tag_21\n      swap2\n      swap1\n      tag_16\n      jump\t// in\n    tag_21:\n      mload(0x40)\n      dup1\n      swap2\n      sub\n      swap1\n      return\n        /* \"minerpunk/treasury.sol\":1912:2170  function ETH_DCF(uint256 dcf_amount)public view returns(uint256){... */\n    tag_4:\n      callvalue\n      dup1\n      iszero\n      tag_22\n      jumpi\n      0x00\n      dup1\n      revert\n    tag_22:\n      pop\n      tag_23\n      0x04\n      dup1\n      calldatasize\n      sub\n      dup2\n      add\n      swap1\n      tag_24\n      swap2\n      swap1\n      tag_13\n      jump\t// in\n    tag_24:\n      tag_25\n      jump\t// in\n    tag_23:\n      mload(0x40)\n      tag_26\n      swap2\n      swap1\n      tag_16\n      jump\t// in\n    tag_26:\n      mload(0x40)\n      dup1\n      swap2\n      sub\n      swap1\n      return\n        /* \"minerpunk/treasury.sol\":948:1050  function setRouter(address user, bool power)external onlyOwner{... */\n    tag_5:\n      callvalue\n      dup1\n      iszero\n      tag_27\n      jumpi\n      0x00\n      dup1\n      revert\n    tag_27:\n      pop\n      tag_28\n      0x04\n      dup1\n      calldatasize\n      sub\n      dup2\n      add\n      swap1\n      tag_29\n      swap2\n      swap1\n      tag_30\n      jump\t// in\n    tag_29:\n      tag_31\n      jump\t// in\n    tag_28:\n      stop\n        /* \"minerpunk/treasury.sol\":1058:1147  function deposit()external payable{... */\n    tag_6:\n      tag_32\n      tag_33\n      jump\t// in\n    tag_32:\n      stop\n        /* \"minerpunk/treasury.sol\":1580:1904  function market(address from ,address payable to, uint256 dcf_amount)external {... */\n    tag_7:\n      callvalue\n      dup1\n      iszero\n      tag_34\n      jumpi\n      0x00\n      dup1\n      revert\n    tag_34:\n      pop\n      tag_35\n      0x04\n      dup1\n      calldatasize\n      sub\n      dup2\n      add\n      swap1\n      tag_36\n      swap2\n      swap1\n      tag_37\n      jump\t// in\n    tag_36:\n      tag_38\n      jump\t// in\n    tag_35:\n      stop\n        /* \"minerpunk/treasury.sol\":2181:2284  function Warning_protect()external onlyOwner{... */\n    tag_8:\n      callvalue\n      dup1\n      iszero\n      tag_39\n      jumpi\n      0x00\n      dup1\n      revert\n    tag_39:\n      pop\n      tag_40\n      tag_41\n      jump\t// in\n    tag_40:\n      stop\n        /* \"minerpunk/treasury.sol\":1467:1563  function price(uint256 _invertory)public view returns(uint256){... */\n    tag_14:\n        /* \"minerpunk/treasury.sol\":1521:1528  uint256 */\n      0x00\n        /* \"minerpunk/treasury.sol\":1547:1557  _invertory */\n      dup2\n        /* \"minerpunk/treasury.sol\":1545:1546  k */\n      sload(0x05)\n        /* \"minerpunk/treasury.sol\":1545:1557  k/_invertory */\n      tag_43\n      swap2\n      swap1\n      tag_44\n      jump\t// in\n    tag_43:\n        /* \"minerpunk/treasury.sol\":1538:1557  return k/_invertory */\n      swap1\n      pop\n        /* \"minerpunk/treasury.sol\":1467:1563  function price(uint256 _invertory)public view returns(uint256){... */\n      swap2\n      swap1\n      pop\n      jump\t// out\n        /* \"minerpunk/treasury.sol\":1155:1456  function market(uint256 _unit)public view returns(uint256){... */\n    tag_20:\n        /* \"minerpunk/treasury.sol\":1205:1212  uint256 */\n      0x00\n        /* \"minerpunk/treasury.sol\":1222:1239  uint256 invertory */\n      dup1\n        /* \"minerpunk/treasury.sol\":1242:1251  minePower */\n      0x02\n      0x00\n      swap1\n      sload\n      swap1\n      0x0100\n      exp\n      swap1\n      div\n      0xffffffffffffffffffffffffffffffffffffffff\n      and\n        /* \"minerpunk/treasury.sol\":1242:1261  minePower.balanceOf */\n      0xffffffffffffffffffffffffffffffffffffffff\n      and\n      0x70a08231\n        /* \"minerpunk/treasury.sol\":1270:1274  this */\n      address\n        /* \"minerpunk/treasury.sol\":1242:1276  minePower.balanceOf(address(this)) */\n      mload(0x40)\n      dup3\n      0xffffffff\n      and\n      0xe0\n      shl\n      dup2\n      mstore\n      0x04\n      add\n      tag_46\n      swap2\n      swap1\n      tag_47\n      jump\t// in\n    tag_46:\n      0x20\n      mload(0x40)\n      dup1\n      dup4\n      sub\n      dup2\n      dup7\n      gas\n      staticcall\n      iszero\n      dup1\n      iszero\n      tag_49\n      jumpi\n      returndatasize\n      0x00\n      dup1\n      returndatacopy\n      revert(0x00, returndatasize)\n    tag_49:\n      pop\n      pop\n      pop\n      pop\n      mload(0x40)\n      returndatasize\n      not(0x1f)\n      0x1f\n      dup3\n      add\n      and\n      dup3\n      add\n      dup1\n      0x40\n      mstore\n      pop\n      dup2\n      add\n      swap1\n      tag_50\n      swap2\n      swap1\n      tag_51\n      jump\t// in\n    tag_50:\n        /* \"minerpunk/treasury.sol\":1222:1276  uint256 invertory = minePower.balanceOf(address(this)) */\n      swap1\n      pop\n        /* \"minerpunk/treasury.sol\":1285:1294  uint256 a */\n      0x00\n        /* \"minerpunk/treasury.sol\":1297:1317  invertory.sub(_unit) */\n      tag_52\n        /* \"minerpunk/treasury.sol\":1311:1316  _unit */\n      dup5\n        /* \"minerpunk/treasury.sol\":1297:1306  invertory */\n      dup4\n        /* \"minerpunk/treasury.sol\":1297:1310  invertory.sub */\n      tag_53\n      swap1\n        /* \"minerpunk/treasury.sol\":1297:1317  invertory.sub(_unit) */\n      swap2\n      swap1\n      0xffffffff\n      and\n      jump\t// in\n    tag_52:\n        /* \"minerpunk/treasury.sol\":1285:1317  uint256 a = invertory.sub(_unit) */\n      swap1\n      pop\n        /* \"minerpunk/treasury.sol\":1326:1337  uint256 top */\n      0x00\n        /* \"minerpunk/treasury.sol\":1340:1356  price(invertory) */\n      tag_54\n        /* \"minerpunk/treasury.sol\":1346:1355  invertory */\n      dup4\n        /* \"minerpunk/treasury.sol\":1340:1345  price */\n      tag_14\n        /* \"minerpunk/treasury.sol\":1340:1356  price(invertory) */\n      jump\t// in\n    tag_54:\n        /* \"minerpunk/treasury.sol\":1326:1356  uint256 top = price(invertory) */\n      swap1\n      pop\n        /* \"minerpunk/treasury.sol\":1365:1379  uint256 bottom */\n      0x00\n        /* \"minerpunk/treasury.sol\":1382:1390  price(a) */\n      tag_55\n        /* \"minerpunk/treasury.sol\":1388:1389  a */\n      dup4\n        /* \"minerpunk/treasury.sol\":1382:1387  price */\n      tag_14\n        /* \"minerpunk/treasury.sol\":1382:1390  price(a) */\n      jump\t// in\n    tag_55:\n        /* \"minerpunk/treasury.sol\":1365:1390  uint256 bottom = price(a) */\n      swap1\n      pop\n        /* \"minerpunk/treasury.sol\":1399:1408  uint256 b */\n      0x00\n        /* \"minerpunk/treasury.sol\":1432:1433  2 */\n      0x02\n        /* \"minerpunk/treasury.sol\":1425:1430  _unit */\n      dup8\n        /* \"minerpunk/treasury.sol\":1416:1422  bottom */\n      dup4\n        /* \"minerpunk/treasury.sol\":1412:1415  top */\n      dup6\n        /* \"minerpunk/treasury.sol\":1412:1422  top+bottom */\n      tag_56\n      swap2\n      swap1\n      tag_57\n      jump\t// in\n    tag_56:\n        /* \"minerpunk/treasury.sol\":1411:1431  (top+bottom)*(_unit) */\n      tag_58\n      swap2\n      swap1\n      tag_59\n      jump\t// in\n    tag_58:\n        /* \"minerpunk/treasury.sol\":1411:1433  (top+bottom)*(_unit)/2 */\n      tag_60\n      swap2\n      swap1\n      tag_44\n      jump\t// in\n    tag_60:\n        /* \"minerpunk/treasury.sol\":1399:1433  uint256 b = (top+bottom)*(_unit)/2 */\n      swap1\n      pop\n        /* \"minerpunk/treasury.sol\":1449:1450  b */\n      dup1\n        /* \"minerpunk/treasury.sol\":1442:1450  return b */\n      swap6\n      pop\n      pop\n      pop\n      pop\n      pop\n      pop\n        /* \"minerpunk/treasury.sol\":1155:1456  function market(uint256 _unit)public view returns(uint256){... */\n      swap2\n      swap1\n      pop\n      jump\t// out\n        /* \"minerpunk/treasury.sol\":1912:2170  function ETH_DCF(uint256 dcf_amount)public view returns(uint256){... */\n    tag_25:\n        /* \"minerpunk/treasury.sol\":1968:1975  uint256 */\n      0x00\n        /* \"minerpunk/treasury.sol\":1983:2002  uint256 _eth_amount */\n      dup1\n        /* \"minerpunk/treasury.sol\":2005:2026  address(this).balance */\n      selfbalance\n        /* \"minerpunk/treasury.sol\":1983:2026  uint256 _eth_amount = address(this).balance */\n      swap1\n      pop\n        /* \"minerpunk/treasury.sol\":2033:2052  uint256 _dcf_amount */\n      0x00\n        /* \"minerpunk/treasury.sol\":2055:2060  dcoff */\n      dup1\n      0x00\n      swap1\n      sload\n      swap1\n      0x0100\n      exp\n      swap1\n      div\n      0xffffffffffffffffffffffffffffffffffffffff\n      and\n        /* \"minerpunk/treasury.sol\":2055:2072  dcoff.totalSupply */\n      0xffffffffffffffffffffffffffffffffffffffff\n      and\n      0x18160ddd\n        /* \"minerpunk/treasury.sol\":2055:2074  dcoff.totalSupply() */\n      mload(0x40)\n      dup2\n      0xffffffff\n      and\n      0xe0\n      shl\n      dup2\n      mstore\n      0x04\n      add\n      0x20\n      mload(0x40)\n      dup1\n      dup4\n      sub\n      dup2\n      dup7\n      gas\n      staticcall\n      iszero\n      dup1\n      iszero\n      tag_63\n      jumpi\n      returndatasize\n      0x00\n      dup1\n      returndatacopy\n      revert(0x00, returndatasize)\n    tag_63:\n      pop\n      pop\n      pop\n      pop\n      mload(0x40)\n      returndatasize\n      not(0x1f)\n      0x1f\n      dup3\n      add\n      and\n      dup3\n      add\n      dup1\n      0x40\n      mstore\n      pop\n      dup2\n      add\n      swap1\n      tag_64\n      swap2\n      swap1\n      tag_51\n      jump\t// in\n    tag_64:\n        /* \"minerpunk/treasury.sol\":2033:2074  uint256 _dcf_amount = dcoff.totalSupply() */\n      swap1\n      pop\n        /* \"minerpunk/treasury.sol\":2083:2097  uint256 _price */\n      0x00\n        /* \"minerpunk/treasury.sol\":2100:2144  dcf_amount.mul(_eth_amount).div(_dcf_amount) */\n      tag_65\n        /* \"minerpunk/treasury.sol\":2132:2143  _dcf_amount */\n      dup3\n        /* \"minerpunk/treasury.sol\":2100:2127  dcf_amount.mul(_eth_amount) */\n      tag_66\n        /* \"minerpunk/treasury.sol\":2115:2126  _eth_amount */\n      dup6\n        /* \"minerpunk/treasury.sol\":2100:2110  dcf_amount */\n      dup9\n        /* \"minerpunk/treasury.sol\":2100:2114  dcf_amount.mul */\n      tag_67\n      swap1\n        /* \"minerpunk/treasury.sol\":2100:2127  dcf_amount.mul(_eth_amount) */\n      swap2\n      swap1\n      0xffffffff\n      and\n      jump\t// in\n    tag_66:\n        /* \"minerpunk/treasury.sol\":2100:2131  dcf_amount.mul(_eth_amount).div */\n      tag_68\n      swap1\n        /* \"minerpunk/treasury.sol\":2100:2144  dcf_amount.mul(_eth_amount).div(_dcf_amount) */\n      swap2\n      swap1\n      0xffffffff\n      and\n      jump\t// in\n    tag_65:\n        /* \"minerpunk/treasury.sol\":2083:2144  uint256 _price = dcf_amount.mul(_eth_amount).div(_dcf_amount) */\n      swap1\n      pop\n        /* \"minerpunk/treasury.sol\":2158:2164  _price */\n      dup1\n        /* \"minerpunk/treasury.sol\":2151:2164  return _price */\n      swap4\n      pop\n      pop\n      pop\n      pop\n        /* \"minerpunk/treasury.sol\":1912:2170  function ETH_DCF(uint256 dcf_amount)public view returns(uint256){... */\n      swap2\n      swap1\n      pop\n      jump\t// out\n        /* \"minerpunk/treasury.sol\":948:1050  function setRouter(address user, bool power)external onlyOwner{... */\n    tag_31:\n        /* \"minerpunk/treasury.sol\":871:881  msg.sender */\n      caller\n        /* \"minerpunk/treasury.sol\":862:881  owner == msg.sender */\n      0xffffffffffffffffffffffffffffffffffffffff\n      and\n        /* \"minerpunk/treasury.sol\":862:867  owner */\n      0x04\n      0x00\n      swap1\n      sload\n      swap1\n      0x0100\n      exp\n      swap1\n      div\n      0xffffffffffffffffffffffffffffffffffffffff\n      and\n        /* \"minerpunk/treasury.sol\":862:881  owner == msg.sender */\n      0xffffffffffffffffffffffffffffffffffffffff\n      and\n      eq\n        /* \"minerpunk/treasury.sol\":854:918  require(owner == msg.sender, \"Ownable: caller is not the owner\") */\n      tag_70\n      jumpi\n      mload(0x40)\n      0x08c379a000000000000000000000000000000000000000000000000000000000\n      dup2\n      mstore\n      0x04\n      add\n      tag_71\n      swap1\n      tag_72\n      jump\t// in\n    tag_71:\n      mload(0x40)\n      dup1\n      swap2\n      sub\n      swap1\n      revert\n    tag_70:\n        /* \"minerpunk/treasury.sol\":1039:1044  power */\n      dup1\n        /* \"minerpunk/treasury.sol\":1019:1030  RouterAdmin */\n      0x06\n        /* \"minerpunk/treasury.sol\":1019:1036  RouterAdmin[user] */\n      0x00\n        /* \"minerpunk/treasury.sol\":1031:1035  user */\n      dup5\n        /* \"minerpunk/treasury.sol\":1019:1036  RouterAdmin[user] */\n      0xffffffffffffffffffffffffffffffffffffffff\n      and\n      0xffffffffffffffffffffffffffffffffffffffff\n      and\n      dup2\n      mstore\n      0x20\n      add\n      swap1\n      dup2\n      mstore\n      0x20\n      add\n      0x00\n      keccak256\n      0x00\n        /* \"minerpunk/treasury.sol\":1019:1044  RouterAdmin[user] = power */\n      0x0100\n      exp\n      dup2\n      sload\n      dup2\n      0xff\n      mul\n      not\n      and\n      swap1\n      dup4\n      iszero\n      iszero\n      mul\n      or\n      swap1\n      sstore\n      pop\n        /* \"minerpunk/treasury.sol\":948:1050  function setRouter(address user, bool power)external onlyOwner{... */\n      pop\n      pop\n      jump\t// out\n        /* \"minerpunk/treasury.sol\":1058:1147  function deposit()external payable{... */\n    tag_33:\n        /* \"minerpunk/treasury.sol\":1136:1140  true */\n      0x01\n        /* \"minerpunk/treasury.sol\":1109:1140  RouterAdmin[msg.sender] == true */\n      iszero\n      iszero\n        /* \"minerpunk/treasury.sol\":1109:1120  RouterAdmin */\n      0x06\n        /* \"minerpunk/treasury.sol\":1109:1132  RouterAdmin[msg.sender] */\n      0x00\n        /* \"minerpunk/treasury.sol\":1121:1131  msg.sender */\n      caller\n        /* \"minerpunk/treasury.sol\":1109:1132  RouterAdmin[msg.sender] */\n      0xffffffffffffffffffffffffffffffffffffffff\n      and\n      0xffffffffffffffffffffffffffffffffffffffff\n      and\n      dup2\n      mstore\n      0x20\n      add\n      swap1\n      dup2\n      mstore\n      0x20\n      add\n      0x00\n      keccak256\n      0x00\n      swap1\n      sload\n      swap1\n      0x0100\n      exp\n      swap1\n      div\n      0xff\n      and\n        /* \"minerpunk/treasury.sol\":1109:1140  RouterAdmin[msg.sender] == true */\n      iszero\n      iszero\n      eq\n        /* \"minerpunk/treasury.sol\":1101:1141  require(RouterAdmin[msg.sender] == true) */\n      tag_75\n      jumpi\n      0x00\n      dup1\n      revert\n    tag_75:\n        /* \"minerpunk/treasury.sol\":1058:1147  function deposit()external payable{... */\n      jump\t// out\n        /* \"minerpunk/treasury.sol\":1580:1904  function market(address from ,address payable to, uint256 dcf_amount)external {... */\n    tag_38:\n        /* \"minerpunk/treasury.sol\":1702:1706  true */\n      0x01\n        /* \"minerpunk/treasury.sol\":1675:1706  RouterAdmin[msg.sender] == true */\n      iszero\n      iszero\n        /* \"minerpunk/treasury.sol\":1675:1686  RouterAdmin */\n      0x06\n        /* \"minerpunk/treasury.sol\":1675:1698  RouterAdmin[msg.sender] */\n      0x00\n        /* \"minerpunk/treasury.sol\":1687:1697  msg.sender */\n      caller\n        /* \"minerpunk/treasury.sol\":1675:1698  RouterAdmin[msg.sender] */\n      0xffffffffffffffffffffffffffffffffffffffff\n      and\n      0xffffffffffffffffffffffffffffffffffffffff\n      and\n      dup2\n      mstore\n      0x20\n      add\n      swap1\n      dup2\n      mstore\n      0x20\n      add\n      0x00\n      keccak256\n      0x00\n      swap1\n      sload\n      swap1\n      0x0100\n      exp\n      swap1\n      div\n      0xff\n      and\n        /* \"minerpunk/treasury.sol\":1675:1706  RouterAdmin[msg.sender] == true */\n      iszero\n      iszero\n      eq\n        /* \"minerpunk/treasury.sol\":1667:1707  require(RouterAdmin[msg.sender] == true) */\n      tag_77\n      jumpi\n      0x00\n      dup1\n      revert\n    tag_77:\n        /* \"minerpunk/treasury.sol\":1749:1759  dcf_amount */\n      dup1\n        /* \"minerpunk/treasury.sol\":1724:1729  dcoff */\n      0x00\n      dup1\n      sload\n      swap1\n      0x0100\n      exp\n      swap1\n      div\n      0xffffffffffffffffffffffffffffffffffffffff\n      and\n        /* \"minerpunk/treasury.sol\":1724:1739  dcoff.balanceOf */\n      0xffffffffffffffffffffffffffffffffffffffff\n      and\n      0x70a08231\n        /* \"minerpunk/treasury.sol\":1740:1744  from */\n      dup6\n        /* \"minerpunk/treasury.sol\":1724:1745  dcoff.balanceOf(from) */\n      mload(0x40)\n      dup3\n      0xffffffff\n      and\n      0xe0\n      shl\n      dup2\n      mstore\n      0x04\n      add\n      tag_78\n      swap2\n      swap1\n      tag_47\n      jump\t// in\n    tag_78:\n      0x20\n      mload(0x40)\n      dup1\n      dup4\n      sub\n      dup2\n      dup7\n      gas\n      staticcall\n      iszero\n      dup1\n      iszero\n      tag_80\n      jumpi\n      returndatasize\n      0x00\n      dup1\n      returndatacopy\n      revert(0x00, returndatasize)\n    tag_80:\n      pop\n      pop\n      pop\n      pop\n      mload(0x40)\n      returndatasize\n      not(0x1f)\n      0x1f\n      dup3\n      add\n      and\n      dup3\n      add\n      dup1\n      0x40\n      mstore\n      pop\n      dup2\n      add\n      swap1\n      tag_81\n      swap2\n      swap1\n      tag_51\n      jump\t// in\n    tag_81:\n        /* \"minerpunk/treasury.sol\":1724:1759  dcoff.balanceOf(from) >= dcf_amount */\n      lt\n      iszero\n        /* \"minerpunk/treasury.sol\":1716:1760  require(dcoff.balanceOf(from) >= dcf_amount) */\n      tag_82\n      jumpi\n      0x00\n      dup1\n      revert\n    tag_82:\n        /* \"minerpunk/treasury.sol\":1771:1789  uint256 eth_amount */\n      0x00\n        /* \"minerpunk/treasury.sol\":1791:1810  ETH_DCF(dcf_amount) */\n      tag_83\n        /* \"minerpunk/treasury.sol\":1799:1809  dcf_amount */\n      dup3\n        /* \"minerpunk/treasury.sol\":1791:1798  ETH_DCF */\n      tag_25\n        /* \"minerpunk/treasury.sol\":1791:1810  ETH_DCF(dcf_amount) */\n      jump\t// in\n    tag_83:\n        /* \"minerpunk/treasury.sol\":1771:1810  uint256 eth_amount =ETH_DCF(dcf_amount) */\n      swap1\n      pop\n        /* \"minerpunk/treasury.sol\":1825:1827  to */\n      dup3\n        /* \"minerpunk/treasury.sol\":1825:1836  to.transfer */\n      0xffffffffffffffffffffffffffffffffffffffff\n      and\n        /* \"minerpunk/treasury.sol\":1825:1848  to.transfer(eth_amount) */\n      0x08fc\n        /* \"minerpunk/treasury.sol\":1837:1847  eth_amount */\n      dup3\n        /* \"minerpunk/treasury.sol\":1825:1848  to.transfer(eth_amount) */\n      swap1\n      dup2\n      iszero\n      mul\n      swap1\n      mload(0x40)\n      0x00\n      mload(0x40)\n      dup1\n      dup4\n      sub\n      dup2\n      dup6\n      dup9\n      dup9\n      call\n      swap4\n      pop\n      pop\n      pop\n      pop\n      iszero\n      dup1\n      iszero\n      tag_85\n      jumpi\n      returndatasize\n      0x00\n      dup1\n      returndatacopy\n      revert(0x00, returndatasize)\n    tag_85:\n      pop\n        /* \"minerpunk/treasury.sol\":1857:1866  dcoffburn */\n      0x01\n      0x00\n      swap1\n      sload\n      swap1\n      0x0100\n      exp\n      swap1\n      div\n      0xffffffffffffffffffffffffffffffffffffffff\n      and\n        /* \"minerpunk/treasury.sol\":1857:1875  dcoffburn.burnFrom */\n      0xffffffffffffffffffffffffffffffffffffffff\n      and\n      0x79cc6790\n        /* \"minerpunk/treasury.sol\":1876:1880  from */\n      dup6\n        /* \"minerpunk/treasury.sol\":1881:1891  dcf_amount */\n      dup5\n        /* \"minerpunk/treasury.sol\":1857:1892  dcoffburn.burnFrom(from,dcf_amount) */\n      mload(0x40)\n      dup4\n      0xffffffff\n      and\n      0xe0\n      shl\n      dup2\n      mstore\n      0x04\n      add\n      tag_86\n      swap3\n      swap2\n      swap1\n      tag_87\n      jump\t// in\n    tag_86:\n      0x00\n      mload(0x40)\n      dup1\n      dup4\n      sub\n      dup2\n      0x00\n      dup8\n      dup1\n      extcodesize\n      iszero\n      dup1\n      iszero\n      tag_88\n      jumpi\n      0x00\n      dup1\n      revert\n    tag_88:\n      pop\n      gas\n      call\n      iszero\n      dup1\n      iszero\n      tag_90\n      jumpi\n      returndatasize\n      0x00\n      dup1\n      returndatacopy\n      revert(0x00, returndatasize)\n    tag_90:\n      pop\n      pop\n      pop\n      pop\n        /* \"minerpunk/treasury.sol\":1658:1904  {... */\n      pop\n        /* \"minerpunk/treasury.sol\":1580:1904  function market(address from ,address payable to, uint256 dcf_amount)external {... */\n      pop\n      pop\n      pop\n      jump\t// out\n        /* \"minerpunk/treasury.sol\":2181:2284  function Warning_protect()external onlyOwner{... */\n    tag_41:\n        /* \"minerpunk/treasury.sol\":871:881  msg.sender */\n      caller\n        /* \"minerpunk/treasury.sol\":862:881  owner == msg.sender */\n      0xffffffffffffffffffffffffffffffffffffffff\n      and\n        /* \"minerpunk/treasury.sol\":862:867  owner */\n      0x04\n      0x00\n      swap1\n      sload\n      swap1\n      0x0100\n      exp\n      swap1\n      div\n      0xffffffffffffffffffffffffffffffffffffffff\n      and\n        /* \"minerpunk/treasury.sol\":862:881  owner == msg.sender */\n      0xffffffffffffffffffffffffffffffffffffffff\n      and\n      eq\n        /* \"minerpunk/treasury.sol\":854:918  require(owner == msg.sender, \"Ownable: caller is not the owner\") */\n      tag_92\n      jumpi\n      mload(0x40)\n      0x08c379a000000000000000000000000000000000000000000000000000000000\n      dup2\n      mstore\n      0x04\n      add\n      tag_93\n      swap1\n      tag_72\n      jump\t// in\n    tag_93:\n      mload(0x40)\n      dup1\n      swap2\n      sub\n      swap1\n      revert\n    tag_92:\n        /* \"minerpunk/treasury.sol\":2240:2245  owner */\n      0x04\n      0x00\n      swap1\n      sload\n      swap1\n      0x0100\n      exp\n      swap1\n      div\n      0xffffffffffffffffffffffffffffffffffffffff\n      and\n        /* \"minerpunk/treasury.sol\":2232:2255  payable(owner).transfer */\n      0xffffffffffffffffffffffffffffffffffffffff\n      and\n        /* \"minerpunk/treasury.sol\":2232:2278  payable(owner).transfer(address(this).balance) */\n      0x08fc\n        /* \"minerpunk/treasury.sol\":2256:2277  address(this).balance */\n      selfbalance\n        /* \"minerpunk/treasury.sol\":2232:2278  payable(owner).transfer(address(this).balance) */\n      swap1\n      dup2\n      iszero\n      mul\n      swap1\n      mload(0x40)\n      0x00\n      mload(0x40)\n      dup1\n      dup4\n      sub\n      dup2\n      dup6\n      dup9\n      dup9\n      call\n      swap4\n      pop\n      pop\n      pop\n      pop\n      iszero\n      dup1\n      iszero\n      tag_96\n      jumpi\n      returndatasize\n      0x00\n      dup1\n      returndatacopy\n      revert(0x00, returndatasize)\n    tag_96:\n      pop\n        /* \"minerpunk/treasury.sol\":2181:2284  function Warning_protect()external onlyOwner{... */\n      jump\t// out\n        /* \"@openzeppelin/contracts/utils/math/SafeMath.sol\":3122:3218  function sub(uint256 a, uint256 b) internal pure returns (uint256) {... */\n    tag_53:\n        /* \"@openzeppelin/contracts/utils/math/SafeMath.sol\":3180:3187  uint256 */\n      0x00\n        /* \"@openzeppelin/contracts/utils/math/SafeMath.sol\":3210:3211  b */\n      dup2\n        /* \"@openzeppelin/contracts/utils/math/SafeMath.sol\":3206:3207  a */\n      dup4\n        /* \"@openzeppelin/contracts/utils/math/SafeMath.sol\":3206:3211  a - b */\n      tag_98\n      swap2\n      swap1\n      tag_99\n      jump\t// in\n    tag_98:\n        /* \"@openzeppelin/contracts/utils/math/SafeMath.sol\":3199:3211  return a - b */\n      swap1\n      pop\n        /* \"@openzeppelin/contracts/utils/math/SafeMath.sol\":3122:3218  function sub(uint256 a, uint256 b) internal pure returns (uint256) {... */\n      swap3\n      swap2\n      pop\n      pop\n      jump\t// out\n        /* \"@openzeppelin/contracts/utils/math/SafeMath.sol\":3465:3561  function mul(uint256 a, uint256 b) internal pure returns (uint256) {... */\n    tag_67:\n        /* \"@openzeppelin/contracts/utils/math/SafeMath.sol\":3523:3530  uint256 */\n      0x00\n        /* \"@openzeppelin/contracts/utils/math/SafeMath.sol\":3553:3554  b */\n      dup2\n        /* \"@openzeppelin/contracts/utils/math/SafeMath.sol\":3549:3550  a */\n      dup4\n        /* \"@openzeppelin/contracts/utils/math/SafeMath.sol\":3549:3554  a * b */\n      tag_101\n      swap2\n      swap1\n      tag_59\n      jump\t// in\n    tag_101:\n        /* \"@openzeppelin/contracts/utils/math/SafeMath.sol\":3542:3554  return a * b */\n      swap1\n      pop\n        /* \"@openzeppelin/contracts/utils/math/SafeMath.sol\":3465:3561  function mul(uint256 a, uint256 b) internal pure returns (uint256) {... */\n      swap3\n      swap2\n      pop\n      pop\n      jump\t// out\n        /* \"@openzeppelin/contracts/utils/math/SafeMath.sol\":3850:3946  function div(uint256 a, uint256 b) internal pure returns (uint256) {... */\n    tag_68:\n        /* \"@openzeppelin/contracts/utils/math/SafeMath.sol\":3908:3915  uint256 */\n      0x00\n        /* \"@openzeppelin/contracts/utils/math/SafeMath.sol\":3938:3939  b */\n      dup2\n        /* \"@openzeppelin/contracts/utils/math/SafeMath.sol\":3934:3935  a */\n      dup4\n        /* \"@openzeppelin/contracts/utils/math/SafeMath.sol\":3934:3939  a / b */\n      tag_103\n      swap2\n      swap1\n      tag_44\n      jump\t// in\n    tag_103:\n        /* \"@openzeppelin/contracts/utils/math/SafeMath.sol\":3927:3939  return a / b */\n      swap1\n      pop\n        /* \"@openzeppelin/contracts/utils/math/SafeMath.sol\":3850:3946  function div(uint256 a, uint256 b) internal pure returns (uint256) {... */\n      swap3\n      swap2\n      pop\n      pop\n      jump\t// out\n        /* \"#utility.yul\":88:205   */\n    tag_105:\n        /* \"#utility.yul\":197:198   */\n      0x00\n        /* \"#utility.yul\":194:195   */\n      dup1\n        /* \"#utility.yul\":187:199   */\n      revert\n        /* \"#utility.yul\":334:411   */\n    tag_107:\n        /* \"#utility.yul\":371:378   */\n      0x00\n        /* \"#utility.yul\":400:405   */\n      dup2\n        /* \"#utility.yul\":389:405   */\n      swap1\n      pop\n        /* \"#utility.yul\":334:411   */\n      swap2\n      swap1\n      pop\n      jump\t// out\n        /* \"#utility.yul\":417:539   */\n    tag_108:\n        /* \"#utility.yul\":490:514   */\n      tag_134\n        /* \"#utility.yul\":508:513   */\n      dup2\n        /* \"#utility.yul\":490:514   */\n      tag_107\n      jump\t// in\n    tag_134:\n        /* \"#utility.yul\":483:488   */\n      dup2\n        /* \"#utility.yul\":480:515   */\n      eq\n        /* \"#utility.yul\":470:533   */\n      tag_135\n      jumpi\n        /* \"#utility.yul\":529:530   */\n      0x00\n        /* \"#utility.yul\":526:527   */\n      dup1\n        /* \"#utility.yul\":519:531   */\n      revert\n        /* \"#utility.yul\":470:533   */\n    tag_135:\n        /* \"#utility.yul\":417:539   */\n      pop\n      jump\t// out\n        /* \"#utility.yul\":545:684   */\n    tag_109:\n        /* \"#utility.yul\":591:596   */\n      0x00\n        /* \"#utility.yul\":629:635   */\n      dup2\n        /* \"#utility.yul\":616:636   */\n      calldataload\n        /* \"#utility.yul\":607:636   */\n      swap1\n      pop\n        /* \"#utility.yul\":645:678   */\n      tag_137\n        /* \"#utility.yul\":672:677   */\n      dup2\n        /* \"#utility.yul\":645:678   */\n      tag_108\n      jump\t// in\n    tag_137:\n        /* \"#utility.yul\":545:684   */\n      swap3\n      swap2\n      pop\n      pop\n      jump\t// out\n        /* \"#utility.yul\":690:1019   */\n    tag_13:\n        /* \"#utility.yul\":749:755   */\n      0x00\n        /* \"#utility.yul\":798:800   */\n      0x20\n        /* \"#utility.yul\":786:795   */\n      dup3\n        /* \"#utility.yul\":777:784   */\n      dup5\n        /* \"#utility.yul\":773:796   */\n      sub\n        /* \"#utility.yul\":769:801   */\n      slt\n        /* \"#utility.yul\":766:885   */\n      iszero\n      tag_139\n      jumpi\n        /* \"#utility.yul\":804:883   */\n      tag_140\n      tag_105\n      jump\t// in\n    tag_140:\n        /* \"#utility.yul\":766:885   */\n    tag_139:\n        /* \"#utility.yul\":924:925   */\n      0x00\n        /* \"#utility.yul\":949:1002   */\n      tag_141\n        /* \"#utility.yul\":994:1001   */\n      dup5\n        /* \"#utility.yul\":985:991   */\n      dup3\n        /* \"#utility.yul\":974:983   */\n      dup6\n        /* \"#utility.yul\":970:992   */\n      add\n        /* \"#utility.yul\":949:1002   */\n      tag_109\n      jump\t// in\n    tag_141:\n        /* \"#utility.yul\":939:1002   */\n      swap2\n      pop\n        /* \"#utility.yul\":895:1012   */\n      pop\n        /* \"#utility.yul\":690:1019   */\n      swap3\n      swap2\n      pop\n      pop\n      jump\t// out\n        /* \"#utility.yul\":1025:1143   */\n    tag_110:\n        /* \"#utility.yul\":1112:1136   */\n      tag_143\n        /* \"#utility.yul\":1130:1135   */\n      dup2\n        /* \"#utility.yul\":1112:1136   */\n      tag_107\n      jump\t// in\n    tag_143:\n        /* \"#utility.yul\":1107:1110   */\n      dup3\n        /* \"#utility.yul\":1100:1137   */\n      mstore\n        /* \"#utility.yul\":1025:1143   */\n      pop\n      pop\n      jump\t// out\n        /* \"#utility.yul\":1149:1371   */\n    tag_16:\n        /* \"#utility.yul\":1242:1246   */\n      0x00\n        /* \"#utility.yul\":1280:1282   */\n      0x20\n        /* \"#utility.yul\":1269:1278   */\n      dup3\n        /* \"#utility.yul\":1265:1283   */\n      add\n        /* \"#utility.yul\":1257:1283   */\n      swap1\n      pop\n        /* \"#utility.yul\":1293:1364   */\n      tag_145\n        /* \"#utility.yul\":1361:1362   */\n      0x00\n        /* \"#utility.yul\":1350:1359   */\n      dup4\n        /* \"#utility.yul\":1346:1363   */\n      add\n        /* \"#utility.yul\":1337:1343   */\n      dup5\n        /* \"#utility.yul\":1293:1364   */\n      tag_110\n      jump\t// in\n    tag_145:\n        /* \"#utility.yul\":1149:1371   */\n      swap3\n      swap2\n      pop\n      pop\n      jump\t// out\n        /* \"#utility.yul\":1377:1503   */\n    tag_111:\n        /* \"#utility.yul\":1414:1421   */\n      0x00\n        /* \"#utility.yul\":1454:1496   */\n      0xffffffffffffffffffffffffffffffffffffffff\n        /* \"#utility.yul\":1447:1452   */\n      dup3\n        /* \"#utility.yul\":1443:1497   */\n      and\n        /* \"#utility.yul\":1432:1497   */\n      swap1\n      pop\n        /* \"#utility.yul\":1377:1503   */\n      swap2\n      swap1\n      pop\n      jump\t// out\n        /* \"#utility.yul\":1509:1605   */\n    tag_112:\n        /* \"#utility.yul\":1546:1553   */\n      0x00\n        /* \"#utility.yul\":1575:1599   */\n      tag_148\n        /* \"#utility.yul\":1593:1598   */\n      dup3\n        /* \"#utility.yul\":1575:1599   */\n      tag_111\n      jump\t// in\n    tag_148:\n        /* \"#utility.yul\":1564:1599   */\n      swap1\n      pop\n        /* \"#utility.yul\":1509:1605   */\n      swap2\n      swap1\n      pop\n      jump\t// out\n        /* \"#utility.yul\":1611:1733   */\n    tag_113:\n        /* \"#utility.yul\":1684:1708   */\n      tag_150\n        /* \"#utility.yul\":1702:1707   */\n      dup2\n        /* \"#utility.yul\":1684:1708   */\n      tag_112\n      jump\t// in\n    tag_150:\n        /* \"#utility.yul\":1677:1682   */\n      dup2\n        /* \"#utility.yul\":1674:1709   */\n      eq\n        /* \"#utility.yul\":1664:1727   */\n      tag_151\n      jumpi\n        /* \"#utility.yul\":1723:1724   */\n      0x00\n        /* \"#utility.yul\":1720:1721   */\n      dup1\n        /* \"#utility.yul\":1713:1725   */\n      revert\n        /* \"#utility.yul\":1664:1727   */\n    tag_151:\n        /* \"#utility.yul\":1611:1733   */\n      pop\n      jump\t// out\n        /* \"#utility.yul\":1739:1878   */\n    tag_114:\n        /* \"#utility.yul\":1785:1790   */\n      0x00\n        /* \"#utility.yul\":1823:1829   */\n      dup2\n        /* \"#utility.yul\":1810:1830   */\n      calldataload\n        /* \"#utility.yul\":1801:1830   */\n      swap1\n      pop\n        /* \"#utility.yul\":1839:1872   */\n      tag_153\n        /* \"#utility.yul\":1866:1871   */\n      dup2\n        /* \"#utility.yul\":1839:1872   */\n      tag_113\n      jump\t// in\n    tag_153:\n        /* \"#utility.yul\":1739:1878   */\n      swap3\n      swap2\n      pop\n      pop\n      jump\t// out\n        /* \"#utility.yul\":1884:1974   */\n    tag_115:\n        /* \"#utility.yul\":1918:1925   */\n      0x00\n        /* \"#utility.yul\":1961:1966   */\n      dup2\n        /* \"#utility.yul\":1954:1967   */\n      iszero\n        /* \"#utility.yul\":1947:1968   */\n      iszero\n        /* \"#utility.yul\":1936:1968   */\n      swap1\n      pop\n        /* \"#utility.yul\":1884:1974   */\n      swap2\n      swap1\n      pop\n      jump\t// out\n        /* \"#utility.yul\":1980:2096   */\n    tag_116:\n        /* \"#utility.yul\":2050:2071   */\n      tag_156\n        /* \"#utility.yul\":2065:2070   */\n      dup2\n        /* \"#utility.yul\":2050:2071   */\n      tag_115\n      jump\t// in\n    tag_156:\n        /* \"#utility.yul\":2043:2048   */\n      dup2\n        /* \"#utility.yul\":2040:2072   */\n      eq\n        /* \"#utility.yul\":2030:2090   */\n      tag_157\n      jumpi\n        /* \"#utility.yul\":2086:2087   */\n      0x00\n        /* \"#utility.yul\":2083:2084   */\n      dup1\n        /* \"#utility.yul\":2076:2088   */\n      revert\n        /* \"#utility.yul\":2030:2090   */\n    tag_157:\n        /* \"#utility.yul\":1980:2096   */\n      pop\n      jump\t// out\n        /* \"#utility.yul\":2102:2235   */\n    tag_117:\n        /* \"#utility.yul\":2145:2150   */\n      0x00\n        /* \"#utility.yul\":2183:2189   */\n      dup2\n        /* \"#utility.yul\":2170:2190   */\n      calldataload\n        /* \"#utility.yul\":2161:2190   */\n      swap1\n      pop\n        /* \"#utility.yul\":2199:2229   */\n      tag_159\n        /* \"#utility.yul\":2223:2228   */\n      dup2\n        /* \"#utility.yul\":2199:2229   */\n      tag_116\n      jump\t// in\n    tag_159:\n        /* \"#utility.yul\":2102:2235   */\n      swap3\n      swap2\n      pop\n      pop\n      jump\t// out\n        /* \"#utility.yul\":2241:2709   */\n    tag_30:\n        /* \"#utility.yul\":2306:2312   */\n      0x00\n        /* \"#utility.yul\":2314:2320   */\n      dup1\n        /* \"#utility.yul\":2363:2365   */\n      0x40\n        /* \"#utility.yul\":2351:2360   */\n      dup4\n        /* \"#utility.yul\":2342:2349   */\n      dup6\n        /* \"#utility.yul\":2338:2361   */\n      sub\n        /* \"#utility.yul\":2334:2366   */\n      slt\n        /* \"#utility.yul\":2331:2450   */\n      iszero\n      tag_161\n      jumpi\n        /* \"#utility.yul\":2369:2448   */\n      tag_162\n      tag_105\n      jump\t// in\n    tag_162:\n        /* \"#utility.yul\":2331:2450   */\n    tag_161:\n        /* \"#utility.yul\":2489:2490   */\n      0x00\n        /* \"#utility.yul\":2514:2567   */\n      tag_163\n        /* \"#utility.yul\":2559:2566   */\n      dup6\n        /* \"#utility.yul\":2550:2556   */\n      dup3\n        /* \"#utility.yul\":2539:2548   */\n      dup7\n        /* \"#utility.yul\":2535:2557   */\n      add\n        /* \"#utility.yul\":2514:2567   */\n      tag_114\n      jump\t// in\n    tag_163:\n        /* \"#utility.yul\":2504:2567   */\n      swap3\n      pop\n        /* \"#utility.yul\":2460:2577   */\n      pop\n        /* \"#utility.yul\":2616:2618   */\n      0x20\n        /* \"#utility.yul\":2642:2692   */\n      tag_164\n        /* \"#utility.yul\":2684:2691   */\n      dup6\n        /* \"#utility.yul\":2675:2681   */\n      dup3\n        /* \"#utility.yul\":2664:2673   */\n      dup7\n        /* \"#utility.yul\":2660:2682   */\n      add\n        /* \"#utility.yul\":2642:2692   */\n      tag_117\n      jump\t// in\n    tag_164:\n        /* \"#utility.yul\":2632:2692   */\n      swap2\n      pop\n        /* \"#utility.yul\":2587:2702   */\n      pop\n        /* \"#utility.yul\":2241:2709   */\n      swap3\n      pop\n      swap3\n      swap1\n      pop\n      jump\t// out\n        /* \"#utility.yul\":2715:2819   */\n    tag_118:\n        /* \"#utility.yul\":2760:2767   */\n      0x00\n        /* \"#utility.yul\":2789:2813   */\n      tag_166\n        /* \"#utility.yul\":2807:2812   */\n      dup3\n        /* \"#utility.yul\":2789:2813   */\n      tag_111\n      jump\t// in\n    tag_166:\n        /* \"#utility.yul\":2778:2813   */\n      swap1\n      pop\n        /* \"#utility.yul\":2715:2819   */\n      swap2\n      swap1\n      pop\n      jump\t// out\n        /* \"#utility.yul\":2825:2963   */\n    tag_119:\n        /* \"#utility.yul\":2906:2938   */\n      tag_168\n        /* \"#utility.yul\":2932:2937   */\n      dup2\n        /* \"#utility.yul\":2906:2938   */\n      tag_118\n      jump\t// in\n    tag_168:\n        /* \"#utility.yul\":2899:2904   */\n      dup2\n        /* \"#utility.yul\":2896:2939   */\n      eq\n        /* \"#utility.yul\":2886:2957   */\n      tag_169\n      jumpi\n        /* \"#utility.yul\":2953:2954   */\n      0x00\n        /* \"#utility.yul\":2950:2951   */\n      dup1\n        /* \"#utility.yul\":2943:2955   */\n      revert\n        /* \"#utility.yul\":2886:2957   */\n    tag_169:\n        /* \"#utility.yul\":2825:2963   */\n      pop\n      jump\t// out\n        /* \"#utility.yul\":2969:3124   */\n    tag_120:\n        /* \"#utility.yul\":3023:3028   */\n      0x00\n        /* \"#utility.yul\":3061:3067   */\n      dup2\n        /* \"#utility.yul\":3048:3068   */\n      calldataload\n        /* \"#utility.yul\":3039:3068   */\n      swap1\n      pop\n        /* \"#utility.yul\":3077:3118   */\n      tag_171\n        /* \"#utility.yul\":3112:3117   */\n      dup2\n        /* \"#utility.yul\":3077:3118   */\n      tag_119\n      jump\t// in\n    tag_171:\n        /* \"#utility.yul\":2969:3124   */\n      swap3\n      swap2\n      pop\n      pop\n      jump\t// out\n        /* \"#utility.yul\":3130:3765   */\n    tag_37:\n        /* \"#utility.yul\":3215:3221   */\n      0x00\n        /* \"#utility.yul\":3223:3229   */\n      dup1\n        /* \"#utility.yul\":3231:3237   */\n      0x00\n        /* \"#utility.yul\":3280:3282   */\n      0x60\n        /* \"#utility.yul\":3268:3277   */\n      dup5\n        /* \"#utility.yul\":3259:3266   */\n      dup7\n        /* \"#utility.yul\":3255:3278   */\n      sub\n        /* \"#utility.yul\":3251:3283   */\n      slt\n        /* \"#utility.yul\":3248:3367   */\n      iszero\n      tag_173\n      jumpi\n        /* \"#utility.yul\":3286:3365   */\n      tag_174\n      tag_105\n      jump\t// in\n    tag_174:\n        /* \"#utility.yul\":3248:3367   */\n    tag_173:\n        /* \"#utility.yul\":3406:3407   */\n      0x00\n        /* \"#utility.yul\":3431:3484   */\n      tag_175\n        /* \"#utility.yul\":3476:3483   */\n      dup7\n        /* \"#utility.yul\":3467:3473   */\n      dup3\n        /* \"#utility.yul\":3456:3465   */\n      dup8\n        /* \"#utility.yul\":3452:3474   */\n      add\n        /* \"#utility.yul\":3431:3484   */\n      tag_114\n      jump\t// in\n    tag_175:\n        /* \"#utility.yul\":3421:3484   */\n      swap4\n      pop\n        /* \"#utility.yul\":3377:3494   */\n      pop\n        /* \"#utility.yul\":3533:3535   */\n      0x20\n        /* \"#utility.yul\":3559:3620   */\n      tag_176\n        /* \"#utility.yul\":3612:3619   */\n      dup7\n        /* \"#utility.yul\":3603:3609   */\n      dup3\n        /* \"#utility.yul\":3592:3601   */\n      dup8\n        /* \"#utility.yul\":3588:3610   */\n      add\n        /* \"#utility.yul\":3559:3620   */\n      tag_120\n      jump\t// in\n    tag_176:\n        /* \"#utility.yul\":3549:3620   */\n      swap3\n      pop\n        /* \"#utility.yul\":3504:3630   */\n      pop\n        /* \"#utility.yul\":3669:3671   */\n      0x40\n        /* \"#utility.yul\":3695:3748   */\n      tag_177\n        /* \"#utility.yul\":3740:3747   */\n      dup7\n        /* \"#utility.yul\":3731:3737   */\n      dup3\n        /* \"#utility.yul\":3720:3729   */\n      dup8\n        /* \"#utility.yul\":3716:3738   */\n      add\n        /* \"#utility.yul\":3695:3748   */\n      tag_109\n      jump\t// in\n    tag_177:\n        /* \"#utility.yul\":3685:3748   */\n      swap2\n      pop\n        /* \"#utility.yul\":3640:3758   */\n      pop\n        /* \"#utility.yul\":3130:3765   */\n      swap3\n      pop\n      swap3\n      pop\n      swap3\n      jump\t// out\n        /* \"#utility.yul\":3771:3951   */\n    tag_121:\n        /* \"#utility.yul\":3819:3896   */\n      0x4e487b7100000000000000000000000000000000000000000000000000000000\n        /* \"#utility.yul\":3816:3817   */\n      0x00\n        /* \"#utility.yul\":3809:3897   */\n      mstore\n        /* \"#utility.yul\":3916:3920   */\n      0x12\n        /* \"#utility.yul\":3913:3914   */\n      0x04\n        /* \"#utility.yul\":3906:3921   */\n      mstore\n        /* \"#utility.yul\":3940:3944   */\n      0x24\n        /* \"#utility.yul\":3937:3938   */\n      0x00\n        /* \"#utility.yul\":3930:3945   */\n      revert\n        /* \"#utility.yul\":3957:4137   */\n    tag_122:\n        /* \"#utility.yul\":4005:4082   */\n      0x4e487b7100000000000000000000000000000000000000000000000000000000\n        /* \"#utility.yul\":4002:4003   */\n      0x00\n        /* \"#utility.yul\":3995:4083   */\n      mstore\n        /* \"#utility.yul\":4102:4106   */\n      0x11\n        /* \"#utility.yul\":4099:4100   */\n      0x04\n        /* \"#utility.yul\":4092:4107   */\n      mstore\n        /* \"#utility.yul\":4126:4130   */\n      0x24\n        /* \"#utility.yul\":4123:4124   */\n      0x00\n        /* \"#utility.yul\":4116:4131   */\n      revert\n        /* \"#utility.yul\":4143:4328   */\n    tag_44:\n        /* \"#utility.yul\":4183:4184   */\n      0x00\n        /* \"#utility.yul\":4200:4220   */\n      tag_181\n        /* \"#utility.yul\":4218:4219   */\n      dup3\n        /* \"#utility.yul\":4200:4220   */\n      tag_107\n      jump\t// in\n    tag_181:\n        /* \"#utility.yul\":4195:4220   */\n      swap2\n      pop\n        /* \"#utility.yul\":4234:4254   */\n      tag_182\n        /* \"#utility.yul\":4252:4253   */\n      dup4\n        /* \"#utility.yul\":4234:4254   */\n      tag_107\n      jump\t// in\n    tag_182:\n        /* \"#utility.yul\":4229:4254   */\n      swap3\n      pop\n        /* \"#utility.yul\":4273:4274   */\n      dup3\n        /* \"#utility.yul\":4263:4298   */\n      tag_183\n      jumpi\n        /* \"#utility.yul\":4278:4296   */\n      tag_184\n      tag_121\n      jump\t// in\n    tag_184:\n        /* \"#utility.yul\":4263:4298   */\n    tag_183:\n        /* \"#utility.yul\":4320:4321   */\n      dup3\n        /* \"#utility.yul\":4317:4318   */\n      dup3\n        /* \"#utility.yul\":4313:4322   */\n      div\n        /* \"#utility.yul\":4308:4322   */\n      swap1\n      pop\n        /* \"#utility.yul\":4143:4328   */\n      swap3\n      swap2\n      pop\n      pop\n      jump\t// out\n        /* \"#utility.yul\":4334:4452   */\n    tag_123:\n        /* \"#utility.yul\":4421:4445   */\n      tag_186\n        /* \"#utility.yul\":4439:4444   */\n      dup2\n        /* \"#utility.yul\":4421:4445   */\n      tag_112\n      jump\t// in\n    tag_186:\n        /* \"#utility.yul\":4416:4419   */\n      dup3\n        /* \"#utility.yul\":4409:4446   */\n      mstore\n        /* \"#utility.yul\":4334:4452   */\n      pop\n      pop\n      jump\t// out\n        /* \"#utility.yul\":4458:4680   */\n    tag_47:\n        /* \"#utility.yul\":4551:4555   */\n      0x00\n        /* \"#utility.yul\":4589:4591   */\n      0x20\n        /* \"#utility.yul\":4578:4587   */\n      dup3\n        /* \"#utility.yul\":4574:4592   */\n      add\n        /* \"#utility.yul\":4566:4592   */\n      swap1\n      pop\n        /* \"#utility.yul\":4602:4673   */\n      tag_188\n        /* \"#utility.yul\":4670:4671   */\n      0x00\n        /* \"#utility.yul\":4659:4668   */\n      dup4\n        /* \"#utility.yul\":4655:4672   */\n      add\n        /* \"#utility.yul\":4646:4652   */\n      dup5\n        /* \"#utility.yul\":4602:4673   */\n      tag_123\n      jump\t// in\n    tag_188:\n        /* \"#utility.yul\":4458:4680   */\n      swap3\n      swap2\n      pop\n      pop\n      jump\t// out\n        /* \"#utility.yul\":4686:4829   */\n    tag_124:\n        /* \"#utility.yul\":4743:4748   */\n      0x00\n        /* \"#utility.yul\":4774:4780   */\n      dup2\n        /* \"#utility.yul\":4768:4781   */\n      mload\n        /* \"#utility.yul\":4759:4781   */\n      swap1\n      pop\n        /* \"#utility.yul\":4790:4823   */\n      tag_190\n        /* \"#utility.yul\":4817:4822   */\n      dup2\n        /* \"#utility.yul\":4790:4823   */\n      tag_108\n      jump\t// in\n    tag_190:\n        /* \"#utility.yul\":4686:4829   */\n      swap3\n      swap2\n      pop\n      pop\n      jump\t// out\n        /* \"#utility.yul\":4835:5186   */\n    tag_51:\n        /* \"#utility.yul\":4905:4911   */\n      0x00\n        /* \"#utility.yul\":4954:4956   */\n      0x20\n        /* \"#utility.yul\":4942:4951   */\n      dup3\n        /* \"#utility.yul\":4933:4940   */\n      dup5\n        /* \"#utility.yul\":4929:4952   */\n      sub\n        /* \"#utility.yul\":4925:4957   */\n      slt\n        /* \"#utility.yul\":4922:5041   */\n      iszero\n      tag_192\n      jumpi\n        /* \"#utility.yul\":4960:5039   */\n      tag_193\n      tag_105\n      jump\t// in\n    tag_193:\n        /* \"#utility.yul\":4922:5041   */\n    tag_192:\n        /* \"#utility.yul\":5080:5081   */\n      0x00\n        /* \"#utility.yul\":5105:5169   */\n      tag_194\n        /* \"#utility.yul\":5161:5168   */\n      dup5\n        /* \"#utility.yul\":5152:5158   */\n      dup3\n        /* \"#utility.yul\":5141:5150   */\n      dup6\n        /* \"#utility.yul\":5137:5159   */\n      add\n        /* \"#utility.yul\":5105:5169   */\n      tag_124\n      jump\t// in\n    tag_194:\n        /* \"#utility.yul\":5095:5169   */\n      swap2\n      pop\n        /* \"#utility.yul\":5051:5179   */\n      pop\n        /* \"#utility.yul\":4835:5186   */\n      swap3\n      swap2\n      pop\n      pop\n      jump\t// out\n        /* \"#utility.yul\":5192:5383   */\n    tag_57:\n        /* \"#utility.yul\":5232:5235   */\n      0x00\n        /* \"#utility.yul\":5251:5271   */\n      tag_196\n        /* \"#utility.yul\":5269:5270   */\n      dup3\n        /* \"#utility.yul\":5251:5271   */\n      tag_107\n      jump\t// in\n    tag_196:\n        /* \"#utility.yul\":5246:5271   */\n      swap2\n      pop\n        /* \"#utility.yul\":5285:5305   */\n      tag_197\n        /* \"#utility.yul\":5303:5304   */\n      dup4\n        /* \"#utility.yul\":5285:5305   */\n      tag_107\n      jump\t// in\n    tag_197:\n        /* \"#utility.yul\":5280:5305   */\n      swap3\n      pop\n        /* \"#utility.yul\":5328:5329   */\n      dup3\n        /* \"#utility.yul\":5325:5326   */\n      dup3\n        /* \"#utility.yul\":5321:5330   */\n      add\n        /* \"#utility.yul\":5314:5330   */\n      swap1\n      pop\n        /* \"#utility.yul\":5349:5352   */\n      dup1\n        /* \"#utility.yul\":5346:5347   */\n      dup3\n        /* \"#utility.yul\":5343:5353   */\n      gt\n        /* \"#utility.yul\":5340:5376   */\n      iszero\n      tag_198\n      jumpi\n        /* \"#utility.yul\":5356:5374   */\n      tag_199\n      tag_122\n      jump\t// in\n    tag_199:\n        /* \"#utility.yul\":5340:5376   */\n    tag_198:\n        /* \"#utility.yul\":5192:5383   */\n      swap3\n      swap2\n      pop\n      pop\n      jump\t// out\n        /* \"#utility.yul\":5389:5799   */\n    tag_59:\n        /* \"#utility.yul\":5429:5436   */\n      0x00\n        /* \"#utility.yul\":5452:5472   */\n      tag_201\n        /* \"#utility.yul\":5470:5471   */\n      dup3\n        /* \"#utility.yul\":5452:5472   */\n      tag_107\n      jump\t// in\n    tag_201:\n        /* \"#utility.yul\":5447:5472   */\n      swap2\n      pop\n        /* \"#utility.yul\":5486:5506   */\n      tag_202\n        /* \"#utility.yul\":5504:5505   */\n      dup4\n        /* \"#utility.yul\":5486:5506   */\n      tag_107\n      jump\t// in\n    tag_202:\n        /* \"#utility.yul\":5481:5506   */\n      swap3\n      pop\n        /* \"#utility.yul\":5541:5542   */\n      dup3\n        /* \"#utility.yul\":5538:5539   */\n      dup3\n        /* \"#utility.yul\":5534:5543   */\n      mul\n        /* \"#utility.yul\":5563:5593   */\n      tag_203\n        /* \"#utility.yul\":5581:5592   */\n      dup2\n        /* \"#utility.yul\":5563:5593   */\n      tag_107\n      jump\t// in\n    tag_203:\n        /* \"#utility.yul\":5552:5593   */\n      swap2\n      pop\n        /* \"#utility.yul\":5742:5743   */\n      dup3\n        /* \"#utility.yul\":5733:5740   */\n      dup3\n        /* \"#utility.yul\":5729:5744   */\n      div\n        /* \"#utility.yul\":5726:5727   */\n      dup5\n        /* \"#utility.yul\":5723:5745   */\n      eq\n        /* \"#utility.yul\":5703:5704   */\n      dup4\n        /* \"#utility.yul\":5696:5705   */\n      iszero\n        /* \"#utility.yul\":5676:5759   */\n      or\n        /* \"#utility.yul\":5653:5792   */\n      tag_204\n      jumpi\n        /* \"#utility.yul\":5772:5790   */\n      tag_205\n      tag_122\n      jump\t// in\n    tag_205:\n        /* \"#utility.yul\":5653:5792   */\n    tag_204:\n        /* \"#utility.yul\":5437:5799   */\n      pop\n        /* \"#utility.yul\":5389:5799   */\n      swap3\n      swap2\n      pop\n      pop\n      jump\t// out\n        /* \"#utility.yul\":5805:5974   */\n    tag_125:\n        /* \"#utility.yul\":5889:5900   */\n      0x00\n        /* \"#utility.yul\":5923:5929   */\n      dup3\n        /* \"#utility.yul\":5918:5921   */\n      dup3\n        /* \"#utility.yul\":5911:5930   */\n      mstore\n        /* \"#utility.yul\":5963:5967   */\n      0x20\n        /* \"#utility.yul\":5958:5961   */\n      dup3\n        /* \"#utility.yul\":5954:5968   */\n      add\n        /* \"#utility.yul\":5939:5968   */\n      swap1\n      pop\n        /* \"#utility.yul\":5805:5974   */\n      swap3\n      swap2\n      pop\n      pop\n      jump\t// out\n        /* \"#utility.yul\":5980:6162   */\n    tag_126:\n        /* \"#utility.yul\":6120:6154   */\n      0x4f776e61626c653a2063616c6c6572206973206e6f7420746865206f776e6572\n        /* \"#utility.yul\":6116:6117   */\n      0x00\n        /* \"#utility.yul\":6108:6114   */\n      dup3\n        /* \"#utility.yul\":6104:6118   */\n      add\n        /* \"#utility.yul\":6097:6155   */\n      mstore\n        /* \"#utility.yul\":5980:6162   */\n      pop\n      jump\t// out\n        /* \"#utility.yul\":6168:6534   */\n    tag_127:\n        /* \"#utility.yul\":6310:6313   */\n      0x00\n        /* \"#utility.yul\":6331:6398   */\n      tag_209\n        /* \"#utility.yul\":6395:6397   */\n      0x20\n        /* \"#utility.yul\":6390:6393   */\n      dup4\n        /* \"#utility.yul\":6331:6398   */\n      tag_125\n      jump\t// in\n    tag_209:\n        /* \"#utility.yul\":6324:6398   */\n      swap2\n      pop\n        /* \"#utility.yul\":6407:6500   */\n      tag_210\n        /* \"#utility.yul\":6496:6499   */\n      dup3\n        /* \"#utility.yul\":6407:6500   */\n      tag_126\n      jump\t// in\n    tag_210:\n        /* \"#utility.yul\":6525:6527   */\n      0x20\n        /* \"#utility.yul\":6520:6523   */\n      dup3\n        /* \"#utility.yul\":6516:6528   */\n      add\n        /* \"#utility.yul\":6509:6528   */\n      swap1\n      pop\n        /* \"#utility.yul\":6168:6534   */\n      swap2\n      swap1\n      pop\n      jump\t// out\n        /* \"#utility.yul\":6540:6959   */\n    tag_72:\n        /* \"#utility.yul\":6706:6710   */\n      0x00\n        /* \"#utility.yul\":6744:6746   */\n      0x20\n        /* \"#utility.yul\":6733:6742   */\n      dup3\n        /* \"#utility.yul\":6729:6747   */\n      add\n        /* \"#utility.yul\":6721:6747   */\n      swap1\n      pop\n        /* \"#utility.yul\":6793:6802   */\n      dup2\n        /* \"#utility.yul\":6787:6791   */\n      dup2\n        /* \"#utility.yul\":6783:6803   */\n      sub\n        /* \"#utility.yul\":6779:6780   */\n      0x00\n        /* \"#utility.yul\":6768:6777   */\n      dup4\n        /* \"#utility.yul\":6764:6781   */\n      add\n        /* \"#utility.yul\":6757:6804   */\n      mstore\n        /* \"#utility.yul\":6821:6952   */\n      tag_212\n        /* \"#utility.yul\":6947:6951   */\n      dup2\n        /* \"#utility.yul\":6821:6952   */\n      tag_127\n      jump\t// in\n    tag_212:\n        /* \"#utility.yul\":6813:6952   */\n      swap1\n      pop\n        /* \"#utility.yul\":6540:6959   */\n      swap2\n      swap1\n      pop\n      jump\t// out\n        /* \"#utility.yul\":6965:7297   */\n    tag_87:\n        /* \"#utility.yul\":7086:7090   */\n      0x00\n        /* \"#utility.yul\":7124:7126   */\n      0x40\n        /* \"#utility.yul\":7113:7122   */\n      dup3\n        /* \"#utility.yul\":7109:7127   */\n      add\n        /* \"#utility.yul\":7101:7127   */\n      swap1\n      pop\n        /* \"#utility.yul\":7137:7208   */\n      tag_214\n        /* \"#utility.yul\":7205:7206   */\n      0x00\n        /* \"#utility.yul\":7194:7203   */\n      dup4\n        /* \"#utility.yul\":7190:7207   */\n      add\n        /* \"#utility.yul\":7181:7187   */\n      dup6\n        /* \"#utility.yul\":7137:7208   */\n      tag_123\n      jump\t// in\n    tag_214:\n        /* \"#utility.yul\":7218:7290   */\n      tag_215\n        /* \"#utility.yul\":7286:7288   */\n      0x20\n        /* \"#utility.yul\":7275:7284   */\n      dup4\n        /* \"#utility.yul\":7271:7289   */\n      add\n        /* \"#utility.yul\":7262:7268   */\n      dup5\n        /* \"#utility.yul\":7218:7290   */\n      tag_110\n      jump\t// in\n    tag_215:\n        /* \"#utility.yul\":6965:7297   */\n      swap4\n      swap3\n      pop\n      pop\n      pop\n      jump\t// out\n        /* \"#utility.yul\":7303:7497   */\n    tag_99:\n        /* \"#utility.yul\":7343:7347   */\n      0x00\n        /* \"#utility.yul\":7363:7383   */\n      tag_217\n        /* \"#utility.yul\":7381:7382   */\n      dup3\n        /* \"#utility.yul\":7363:7383   */\n      tag_107\n      jump\t// in\n    tag_217:\n        /* \"#utility.yul\":7358:7383   */\n      swap2\n      pop\n        /* \"#utility.yul\":7397:7417   */\n      tag_218\n        /* \"#utility.yul\":7415:7416   */\n      dup4\n        /* \"#utility.yul\":7397:7417   */\n      tag_107\n      jump\t// in\n    tag_218:\n        /* \"#utility.yul\":7392:7417   */\n      swap3\n      pop\n        /* \"#utility.yul\":7441:7442   */\n      dup3\n        /* \"#utility.yul\":7438:7439   */\n      dup3\n        /* \"#utility.yul\":7434:7443   */\n      sub\n        /* \"#utility.yul\":7426:7443   */\n      swap1\n      pop\n        /* \"#utility.yul\":7465:7466   */\n      dup2\n        /* \"#utility.yul\":7459:7463   */\n      dup2\n        /* \"#utility.yul\":7456:7467   */\n      gt\n        /* \"#utility.yul\":7453:7490   */\n      iszero\n      tag_219\n      jumpi\n        /* \"#utility.yul\":7470:7488   */\n      tag_220\n      tag_122\n      jump\t// in\n    tag_220:\n        /* \"#utility.yul\":7453:7490   */\n    tag_219:\n        /* \"#utility.yul\":7303:7497   */\n      swap3\n      swap2\n      pop\n      pop\n      jump\t// out\n\n    auxdata: 0xa26469706673582212206ace4d9cc06c8defd800da580c98376fe14aabb268c9abbf6c3d207e63d06ff464736f6c63430008110033\n}\n",
				"bytecode": {
					"linkReferences": {},
					"object": "608060405273a9fae5ea311d3cfb2bcc9caefc5003b30b60b6c36000806101000a81548173ffffffffffffffffffffffffffffffffffffffff021916908373ffffffffffffffffffffffffffffffffffffffff16021790555073a9fae5ea311d3cfb2bcc9caefc5003b30b60b6c3600160006101000a81548173ffffffffffffffffffffffffffffffffffffffff021916908373ffffffffffffffffffffffffffffffffffffffff16021790555073e3410af1b80f925ac42b78ea54a48de13dfa6ebe600260006101000a81548173ffffffffffffffffffffffffffffffffffffffff021916908373ffffffffffffffffffffffffffffffffffffffff16021790555073e3410af1b80f925ac42b78ea54a48de13dfa6ebe600360006101000a81548173ffffffffffffffffffffffffffffffffffffffff021916908373ffffffffffffffffffffffffffffffffffffffff16021790555034801561016357600080fd5b5033600460006101000a81548173ffffffffffffffffffffffffffffffffffffffff021916908373ffffffffffffffffffffffffffffffffffffffff16021790555070019640378d1c0af1c6338385c000000000600581905550610c77806101cc6000396000f3fe6080604052600436106100705760003560e01c8063c3c646741161004e578063c3c646741461012c578063d0e30db014610155578063d9e9402f1461015f578063dac3fad41461018857610070565b806326a49e371461007557806328861d22146100b257806397dedb1d146100ef575b600080fd5b34801561008157600080fd5b5061009c60048036038101906100979190610838565b61019f565b6040516100a99190610874565b60405180910390f35b3480156100be57600080fd5b506100d960048036038101906100d49190610838565b6101b6565b6040516100e69190610874565b60405180910390f35b3480156100fb57600080fd5b5061011660048036038101906101119190610838565b6102bc565b6040516101239190610874565b60405180910390f35b34801561013857600080fd5b50610153600480360381019061014e9190610925565b61038a565b005b61015d610475565b005b34801561016b57600080fd5b50610186600480360381019061018191906109a3565b6104d4565b005b34801561019457600080fd5b5061019d6106c0565b005b6000816005546101af9190610a54565b9050919050565b600080600260009054906101000a900473ffffffffffffffffffffffffffffffffffffffff1673ffffffffffffffffffffffffffffffffffffffff166370a08231306040518263ffffffff1660e01b81526004016102149190610a94565b602060405180830381865afa158015610231573d6000803e3d6000fd5b505050506040513d601f19601f820116820180604052508101906102559190610ac4565b9050600061026c84836107bb90919063ffffffff16565b905060006102798361019f565b905060006102868361019f565b9050600060028783856102999190610af1565b6102a39190610b25565b6102ad9190610a54565b90508095505050505050919050565b60008047905060008060009054906101000a900473ffffffffffffffffffffffffffffffffffffffff1673ffffffffffffffffffffffffffffffffffffffff166318160ddd6040518163ffffffff1660e01b8152600401602060405180830381865afa158015610330573d6000803e3d6000fd5b505050506040513d601f19601f820116820180604052508101906103549190610ac4565b9050600061037d8261036f85886107d190919063ffffffff16565b6107e790919063ffffffff16565b9050809350505050919050565b3373ffffffffffffffffffffffffffffffffffffffff16600460009054906101000a900473ffffffffffffffffffffffffffffffffffffffff1673ffffffffffffffffffffffffffffffffffffffff161461041a576040517f08c379a000000000000000000000000000000000000000000000000000000000815260040161041190610bc4565b60405180910390fd5b80600660008473ffffffffffffffffffffffffffffffffffffffff1673ffffffffffffffffffffffffffffffffffffffff16815260200190815260200160002060006101000a81548160ff0219169083151502179055505050565b60011515600660003373ffffffffffffffffffffffffffffffffffffffff1673ffffffffffffffffffffffffffffffffffffffff16815260200190815260200160002060009054906101000a900460ff161515146104d257600080fd5b565b60011515600660003373ffffffffffffffffffffffffffffffffffffffff1673ffffffffffffffffffffffffffffffffffffffff16815260200190815260200160002060009054906101000a900460ff1615151461053157600080fd5b8060008054906101000a900473ffffffffffffffffffffffffffffffffffffffff1673ffffffffffffffffffffffffffffffffffffffff166370a08231856040518263ffffffff1660e01b815260040161058b9190610a94565b602060405180830381865afa1580156105a8573d6000803e3d6000fd5b505050506040513d601f19601f820116820180604052508101906105cc9190610ac4565b10156105d757600080fd5b60006105e2826102bc565b90508273ffffffffffffffffffffffffffffffffffffffff166108fc829081150290604051600060405180830381858888f1935050505015801561062a573d6000803e3d6000fd5b50600160009054906101000a900473ffffffffffffffffffffffffffffffffffffffff1673ffffffffffffffffffffffffffffffffffffffff166379cc679085846040518363ffffffff1660e01b8152600401610688929190610be4565b600060405180830381600087803b1580156106a257600080fd5b505af11580156106b6573d6000803e3d6000fd5b5050505050505050565b3373ffffffffffffffffffffffffffffffffffffffff16600460009054906101000a900473ffffffffffffffffffffffffffffffffffffffff1673ffffffffffffffffffffffffffffffffffffffff1614610750576040517f08c379a000000000000000000000000000000000000000000000000000000000815260040161074790610bc4565b60405180910390fd5b600460009054906101000a900473ffffffffffffffffffffffffffffffffffffffff1673ffffffffffffffffffffffffffffffffffffffff166108fc479081150290604051600060405180830381858888f193505050501580156107b8573d6000803e3d6000fd5b50565b600081836107c99190610c0d565b905092915050565b600081836107df9190610b25565b905092915050565b600081836107f59190610a54565b905092915050565b600080fd5b6000819050919050565b61081581610802565b811461082057600080fd5b50565b6000813590506108328161080c565b92915050565b60006020828403121561084e5761084d6107fd565b5b600061085c84828501610823565b91505092915050565b61086e81610802565b82525050565b60006020820190506108896000830184610865565b92915050565b600073ffffffffffffffffffffffffffffffffffffffff82169050919050565b60006108ba8261088f565b9050919050565b6108ca816108af565b81146108d557600080fd5b50565b6000813590506108e7816108c1565b92915050565b60008115159050919050565b610902816108ed565b811461090d57600080fd5b50565b60008135905061091f816108f9565b92915050565b6000806040838503121561093c5761093b6107fd565b5b600061094a858286016108d8565b925050602061095b85828601610910565b9150509250929050565b60006109708261088f565b9050919050565b61098081610965565b811461098b57600080fd5b50565b60008135905061099d81610977565b92915050565b6000806000606084860312156109bc576109bb6107fd565b5b60006109ca868287016108d8565b93505060206109db8682870161098e565b92505060406109ec86828701610823565b9150509250925092565b7f4e487b7100000000000000000000000000000000000000000000000000000000600052601260045260246000fd5b7f4e487b7100000000000000000000000000000000000000000000000000000000600052601160045260246000fd5b6000610a5f82610802565b9150610a6a83610802565b925082610a7a57610a796109f6565b5b828204905092915050565b610a8e816108af565b82525050565b6000602082019050610aa96000830184610a85565b92915050565b600081519050610abe8161080c565b92915050565b600060208284031215610ada57610ad96107fd565b5b6000610ae884828501610aaf565b91505092915050565b6000610afc82610802565b9150610b0783610802565b9250828201905080821115610b1f57610b1e610a25565b5b92915050565b6000610b3082610802565b9150610b3b83610802565b9250828202610b4981610802565b91508282048414831517610b6057610b5f610a25565b5b5092915050565b600082825260208201905092915050565b7f4f776e61626c653a2063616c6c6572206973206e6f7420746865206f776e6572600082015250565b6000610bae602083610b67565b9150610bb982610b78565b602082019050919050565b60006020820190508181036000830152610bdd81610ba1565b9050919050565b6000604082019050610bf96000830185610a85565b610c066020830184610865565b9392505050565b6000610c1882610802565b9150610c2383610802565b9250828203905081811115610c3b57610c3a610a25565b5b9291505056fea26469706673582212206ace4d9cc06c8defd800da580c98376fe14aabb268c9abbf6c3d207e63d06ff464736f6c63430008110033",
					"opcodes": "PUSH1 0x80 PUSH1 0x40 MSTORE PUSH20 0xA9FAE5EA311D3CFB2BCC9CAEFC5003B30B60B6C3 PUSH1 0x0 DUP1 PUSH2 0x100 EXP DUP2 SLOAD DUP2 PUSH20 0xFFFFFFFFFFFFFFFFFFFFFFFFFFFFFFFFFFFFFFFF MUL NOT AND SWAP1 DUP4 PUSH20 0xFFFFFFFFFFFFFFFFFFFFFFFFFFFFFFFFFFFFFFFF AND MUL OR SWAP1 SSTORE POP PUSH20 0xA9FAE5EA311D3CFB2BCC9CAEFC5003B30B60B6C3 PUSH1 0x1 PUSH1 0x0 PUSH2 0x100 EXP DUP2 SLOAD DUP2 PUSH20 0xFFFFFFFFFFFFFFFFFFFFFFFFFFFFFFFFFFFFFFFF MUL NOT AND SWAP1 DUP4 PUSH20 0xFFFFFFFFFFFFFFFFFFFFFFFFFFFFFFFFFFFFFFFF AND MUL OR SWAP1 SSTORE POP PUSH20 0xE3410AF1B80F925AC42B78EA54A48DE13DFA6EBE PUSH1 0x2 PUSH1 0x0 PUSH2 0x100 EXP DUP2 SLOAD DUP2 PUSH20 0xFFFFFFFFFFFFFFFFFFFFFFFFFFFFFFFFFFFFFFFF MUL NOT AND SWAP1 DUP4 PUSH20 0xFFFFFFFFFFFFFFFFFFFFFFFFFFFFFFFFFFFFFFFF AND MUL OR SWAP1 SSTORE POP PUSH20 0xE3410AF1B80F925AC42B78EA54A48DE13DFA6EBE PUSH1 0x3 PUSH1 0x0 PUSH2 0x100 EXP DUP2 SLOAD DUP2 PUSH20 0xFFFFFFFFFFFFFFFFFFFFFFFFFFFFFFFFFFFFFFFF MUL NOT AND SWAP1 DUP4 PUSH20 0xFFFFFFFFFFFFFFFFFFFFFFFFFFFFFFFFFFFFFFFF AND MUL OR SWAP1 SSTORE POP CALLVALUE DUP1 ISZERO PUSH2 0x163 JUMPI PUSH1 0x0 DUP1 REVERT JUMPDEST POP CALLER PUSH1 0x4 PUSH1 0x0 PUSH2 0x100 EXP DUP2 SLOAD DUP2 PUSH20 0xFFFFFFFFFFFFFFFFFFFFFFFFFFFFFFFFFFFFFFFF MUL NOT AND SWAP1 DUP4 PUSH20 0xFFFFFFFFFFFFFFFFFFFFFFFFFFFFFFFFFFFFFFFF AND MUL OR SWAP1 SSTORE POP PUSH17 0x19640378D1C0AF1C6338385C000000000 PUSH1 0x5 DUP2 SWAP1 SSTORE POP PUSH2 0xC77 DUP1 PUSH2 0x1CC PUSH1 0x0 CODECOPY PUSH1 0x0 RETURN INVALID PUSH1 0x80 PUSH1 0x40 MSTORE PUSH1 0x4 CALLDATASIZE LT PUSH2 0x70 JUMPI PUSH1 0x0 CALLDATALOAD PUSH1 0xE0 SHR DUP1 PUSH4 0xC3C64674 GT PUSH2 0x4E JUMPI DUP1 PUSH4 0xC3C64674 EQ PUSH2 0x12C JUMPI DUP1 PUSH4 0xD0E30DB0 EQ PUSH2 0x155 JUMPI DUP1 PUSH4 0xD9E9402F EQ PUSH2 0x15F JUMPI DUP1 PUSH4 0xDAC3FAD4 EQ PUSH2 0x188 JUMPI PUSH2 0x70 JUMP JUMPDEST DUP1 PUSH4 0x26A49E37 EQ PUSH2 0x75 JUMPI DUP1 PUSH4 0x28861D22 EQ PUSH2 0xB2 JUMPI DUP1 PUSH4 0x97DEDB1D EQ PUSH2 0xEF JUMPI JUMPDEST PUSH1 0x0 DUP1 REVERT JUMPDEST CALLVALUE DUP1 ISZERO PUSH2 0x81 JUMPI PUSH1 0x0 DUP1 REVERT JUMPDEST POP PUSH2 0x9C PUSH1 0x4 DUP1 CALLDATASIZE SUB DUP2 ADD SWAP1 PUSH2 0x97 SWAP2 SWAP1 PUSH2 0x838 JUMP JUMPDEST PUSH2 0x19F JUMP JUMPDEST PUSH1 0x40 MLOAD PUSH2 0xA9 SWAP2 SWAP1 PUSH2 0x874 JUMP JUMPDEST PUSH1 0x40 MLOAD DUP1 SWAP2 SUB SWAP1 RETURN JUMPDEST CALLVALUE DUP1 ISZERO PUSH2 0xBE JUMPI PUSH1 0x0 DUP1 REVERT JUMPDEST POP PUSH2 0xD9 PUSH1 0x4 DUP1 CALLDATASIZE SUB DUP2 ADD SWAP1 PUSH2 0xD4 SWAP2 SWAP1 PUSH2 0x838 JUMP JUMPDEST PUSH2 0x1B6 JUMP JUMPDEST PUSH1 0x40 MLOAD PUSH2 0xE6 SWAP2 SWAP1 PUSH2 0x874 JUMP JUMPDEST PUSH1 0x40 MLOAD DUP1 SWAP2 SUB SWAP1 RETURN JUMPDEST CALLVALUE DUP1 ISZERO PUSH2 0xFB JUMPI PUSH1 0x0 DUP1 REVERT JUMPDEST POP PUSH2 0x116 PUSH1 0x4 DUP1 CALLDATASIZE SUB DUP2 ADD SWAP1 PUSH2 0x111 SWAP2 SWAP1 PUSH2 0x838 JUMP JUMPDEST PUSH2 0x2BC JUMP JUMPDEST PUSH1 0x40 MLOAD PUSH2 0x123 SWAP2 SWAP1 PUSH2 0x874 JUMP JUMPDEST PUSH1 0x40 MLOAD DUP1 SWAP2 SUB SWAP1 RETURN JUMPDEST CALLVALUE DUP1 ISZERO PUSH2 0x138 JUMPI PUSH1 0x0 DUP1 REVERT JUMPDEST POP PUSH2 0x153 PUSH1 0x4 DUP1 CALLDATASIZE SUB DUP2 ADD SWAP1 PUSH2 0x14E SWAP2 SWAP1 PUSH2 0x925 JUMP JUMPDEST PUSH2 0x38A JUMP JUMPDEST STOP JUMPDEST PUSH2 0x15D PUSH2 0x475 JUMP JUMPDEST STOP JUMPDEST CALLVALUE DUP1 ISZERO PUSH2 0x16B JUMPI PUSH1 0x0 DUP1 REVERT JUMPDEST POP PUSH2 0x186 PUSH1 0x4 DUP1 CALLDATASIZE SUB DUP2 ADD SWAP1 PUSH2 0x181 SWAP2 SWAP1 PUSH2 0x9A3 JUMP JUMPDEST PUSH2 0x4D4 JUMP JUMPDEST STOP JUMPDEST CALLVALUE DUP1 ISZERO PUSH2 0x194 JUMPI PUSH1 0x0 DUP1 REVERT JUMPDEST POP PUSH2 0x19D PUSH2 0x6C0 JUMP JUMPDEST STOP JUMPDEST PUSH1 0x0 DUP2 PUSH1 0x5 SLOAD PUSH2 0x1AF SWAP2 SWAP1 PUSH2 0xA54 JUMP JUMPDEST SWAP1 POP SWAP2 SWAP1 POP JUMP JUMPDEST PUSH1 0x0 DUP1 PUSH1 0x2 PUSH1 0x0 SWAP1 SLOAD SWAP1 PUSH2 0x100 EXP SWAP1 DIV PUSH20 0xFFFFFFFFFFFFFFFFFFFFFFFFFFFFFFFFFFFFFFFF AND PUSH20 0xFFFFFFFFFFFFFFFFFFFFFFFFFFFFFFFFFFFFFFFF AND PUSH4 0x70A08231 ADDRESS PUSH1 0x40 MLOAD DUP3 PUSH4 0xFFFFFFFF AND PUSH1 0xE0 SHL DUP2 MSTORE PUSH1 0x4 ADD PUSH2 0x214 SWAP2 SWAP1 PUSH2 0xA94 JUMP JUMPDEST PUSH1 0x20 PUSH1 0x40 MLOAD DUP1 DUP4 SUB DUP2 DUP7 GAS STATICCALL ISZERO DUP1 ISZERO PUSH2 0x231 JUMPI RETURNDATASIZE PUSH1 0x0 DUP1 RETURNDATACOPY RETURNDATASIZE PUSH1 0x0 REVERT JUMPDEST POP POP POP POP PUSH1 0x40 MLOAD RETURNDATASIZE PUSH1 0x1F NOT PUSH1 0x1F DUP3 ADD AND DUP3 ADD DUP1 PUSH1 0x40 MSTORE POP DUP2 ADD SWAP1 PUSH2 0x255 SWAP2 SWAP1 PUSH2 0xAC4 JUMP JUMPDEST SWAP1 POP PUSH1 0x0 PUSH2 0x26C DUP5 DUP4 PUSH2 0x7BB SWAP1 SWAP2 SWAP1 PUSH4 0xFFFFFFFF AND JUMP JUMPDEST SWAP1 POP PUSH1 0x0 PUSH2 0x279 DUP4 PUSH2 0x19F JUMP JUMPDEST SWAP1 POP PUSH1 0x0 PUSH2 0x286 DUP4 PUSH2 0x19F JUMP JUMPDEST SWAP1 POP PUSH1 0x0 PUSH1 0x2 DUP8 DUP4 DUP6 PUSH2 0x299 SWAP2 SWAP1 PUSH2 0xAF1 JUMP JUMPDEST PUSH2 0x2A3 SWAP2 SWAP1 PUSH2 0xB25 JUMP JUMPDEST PUSH2 0x2AD SWAP2 SWAP1 PUSH2 0xA54 JUMP JUMPDEST SWAP1 POP DUP1 SWAP6 POP POP POP POP POP POP SWAP2 SWAP1 POP JUMP JUMPDEST PUSH1 0x0 DUP1 SELFBALANCE SWAP1 POP PUSH1 0x0 DUP1 PUSH1 0x0 SWAP1 SLOAD SWAP1 PUSH2 0x100 EXP SWAP1 DIV PUSH20 0xFFFFFFFFFFFFFFFFFFFFFFFFFFFFFFFFFFFFFFFF AND PUSH20 0xFFFFFFFFFFFFFFFFFFFFFFFFFFFFFFFFFFFFFFFF AND PUSH4 0x18160DDD PUSH1 0x40 MLOAD DUP2 PUSH4 0xFFFFFFFF AND PUSH1 0xE0 SHL DUP2 MSTORE PUSH1 0x4 ADD PUSH1 0x20 PUSH1 0x40 MLOAD DUP1 DUP4 SUB DUP2 DUP7 GAS STATICCALL ISZERO DUP1 ISZERO PUSH2 0x330 JUMPI RETURNDATASIZE PUSH1 0x0 DUP1 RETURNDATACOPY RETURNDATASIZE PUSH1 0x0 REVERT JUMPDEST POP POP POP POP PUSH1 0x40 MLOAD RETURNDATASIZE PUSH1 0x1F NOT PUSH1 0x1F DUP3 ADD AND DUP3 ADD DUP1 PUSH1 0x40 MSTORE POP DUP2 ADD SWAP1 PUSH2 0x354 SWAP2 SWAP1 PUSH2 0xAC4 JUMP JUMPDEST SWAP1 POP PUSH1 0x0 PUSH2 0x37D DUP3 PUSH2 0x36F DUP6 DUP9 PUSH2 0x7D1 SWAP1 SWAP2 SWAP1 PUSH4 0xFFFFFFFF AND JUMP JUMPDEST PUSH2 0x7E7 SWAP1 SWAP2 SWAP1 PUSH4 0xFFFFFFFF AND JUMP JUMPDEST SWAP1 POP DUP1 SWAP4 POP POP POP POP SWAP2 SWAP1 POP JUMP JUMPDEST CALLER PUSH20 0xFFFFFFFFFFFFFFFFFFFFFFFFFFFFFFFFFFFFFFFF AND PUSH1 0x4 PUSH1 0x0 SWAP1 SLOAD SWAP1 PUSH2 0x100 EXP SWAP1 DIV PUSH20 0xFFFFFFFFFFFFFFFFFFFFFFFFFFFFFFFFFFFFFFFF AND PUSH20 0xFFFFFFFFFFFFFFFFFFFFFFFFFFFFFFFFFFFFFFFF AND EQ PUSH2 0x41A JUMPI PUSH1 0x40 MLOAD PUSH32 0x8C379A000000000000000000000000000000000000000000000000000000000 DUP2 MSTORE PUSH1 0x4 ADD PUSH2 0x411 SWAP1 PUSH2 0xBC4 JUMP JUMPDEST PUSH1 0x40 MLOAD DUP1 SWAP2 SUB SWAP1 REVERT JUMPDEST DUP1 PUSH1 0x6 PUSH1 0x0 DUP5 PUSH20 0xFFFFFFFFFFFFFFFFFFFFFFFFFFFFFFFFFFFFFFFF AND PUSH20 0xFFFFFFFFFFFFFFFFFFFFFFFFFFFFFFFFFFFFFFFF AND DUP2 MSTORE PUSH1 0x20 ADD SWAP1 DUP2 MSTORE PUSH1 0x20 ADD PUSH1 0x0 KECCAK256 PUSH1 0x0 PUSH2 0x100 EXP DUP2 SLOAD DUP2 PUSH1 0xFF MUL NOT AND SWAP1 DUP4 ISZERO ISZERO MUL OR SWAP1 SSTORE POP POP POP JUMP JUMPDEST PUSH1 0x1 ISZERO ISZERO PUSH1 0x6 PUSH1 0x0 CALLER PUSH20 0xFFFFFFFFFFFFFFFFFFFFFFFFFFFFFFFFFFFFFFFF AND PUSH20 0xFFFFFFFFFFFFFFFFFFFFFFFFFFFFFFFFFFFFFFFF AND DUP2 MSTORE PUSH1 0x20 ADD SWAP1 DUP2 MSTORE PUSH1 0x20 ADD PUSH1 0x0 KECCAK256 PUSH1 0x0 SWAP1 SLOAD SWAP1 PUSH2 0x100 EXP SWAP1 DIV PUSH1 0xFF AND ISZERO ISZERO EQ PUSH2 0x4D2 JUMPI PUSH1 0x0 DUP1 REVERT JUMPDEST JUMP JUMPDEST PUSH1 0x1 ISZERO ISZERO PUSH1 0x6 PUSH1 0x0 CALLER PUSH20 0xFFFFFFFFFFFFFFFFFFFFFFFFFFFFFFFFFFFFFFFF AND PUSH20 0xFFFFFFFFFFFFFFFFFFFFFFFFFFFFFFFFFFFFFFFF AND DUP2 MSTORE PUSH1 0x20 ADD SWAP1 DUP2 MSTORE PUSH1 0x20 ADD PUSH1 0x0 KECCAK256 PUSH1 0x0 SWAP1 SLOAD SWAP1 PUSH2 0x100 EXP SWAP1 DIV PUSH1 0xFF AND ISZERO ISZERO EQ PUSH2 0x531 JUMPI PUSH1 0x0 DUP1 REVERT JUMPDEST DUP1 PUSH1 0x0 DUP1 SLOAD SWAP1 PUSH2 0x100 EXP SWAP1 DIV PUSH20 0xFFFFFFFFFFFFFFFFFFFFFFFFFFFFFFFFFFFFFFFF AND PUSH20 0xFFFFFFFFFFFFFFFFFFFFFFFFFFFFFFFFFFFFFFFF AND PUSH4 0x70A08231 DUP6 PUSH1 0x40 MLOAD DUP3 PUSH4 0xFFFFFFFF AND PUSH1 0xE0 SHL DUP2 MSTORE PUSH1 0x4 ADD PUSH2 0x58B SWAP2 SWAP1 PUSH2 0xA94 JUMP JUMPDEST PUSH1 0x20 PUSH1 0x40 MLOAD DUP1 DUP4 SUB DUP2 DUP7 GAS STATICCALL ISZERO DUP1 ISZERO PUSH2 0x5A8 JUMPI RETURNDATASIZE PUSH1 0x0 DUP1 RETURNDATACOPY RETURNDATASIZE PUSH1 0x0 REVERT JUMPDEST POP POP POP POP PUSH1 0x40 MLOAD RETURNDATASIZE PUSH1 0x1F NOT PUSH1 0x1F DUP3 ADD AND DUP3 ADD DUP1 PUSH1 0x40 MSTORE POP DUP2 ADD SWAP1 PUSH2 0x5CC SWAP2 SWAP1 PUSH2 0xAC4 JUMP JUMPDEST LT ISZERO PUSH2 0x5D7 JUMPI PUSH1 0x0 DUP1 REVERT JUMPDEST PUSH1 0x0 PUSH2 0x5E2 DUP3 PUSH2 0x2BC JUMP JUMPDEST SWAP1 POP DUP3 PUSH20 0xFFFFFFFFFFFFFFFFFFFFFFFFFFFFFFFFFFFFFFFF AND PUSH2 0x8FC DUP3 SWAP1 DUP2 ISZERO MUL SWAP1 PUSH1 0x40 MLOAD PUSH1 0x0 PUSH1 0x40 MLOAD DUP1 DUP4 SUB DUP2 DUP6 DUP9 DUP9 CALL SWAP4 POP POP POP POP ISZERO DUP1 ISZERO PUSH2 0x62A JUMPI RETURNDATASIZE PUSH1 0x0 DUP1 RETURNDATACOPY RETURNDATASIZE PUSH1 0x0 REVERT JUMPDEST POP PUSH1 0x1 PUSH1 0x0 SWAP1 SLOAD SWAP1 PUSH2 0x100 EXP SWAP1 DIV PUSH20 0xFFFFFFFFFFFFFFFFFFFFFFFFFFFFFFFFFFFFFFFF AND PUSH20 0xFFFFFFFFFFFFFFFFFFFFFFFFFFFFFFFFFFFFFFFF AND PUSH4 0x79CC6790 DUP6 DUP5 PUSH1 0x40 MLOAD DUP4 PUSH4 0xFFFFFFFF AND PUSH1 0xE0 SHL DUP2 MSTORE PUSH1 0x4 ADD PUSH2 0x688 SWAP3 SWAP2 SWAP1 PUSH2 0xBE4 JUMP JUMPDEST PUSH1 0x0 PUSH1 0x40 MLOAD DUP1 DUP4 SUB DUP2 PUSH1 0x0 DUP8 DUP1 EXTCODESIZE ISZERO DUP1 ISZERO PUSH2 0x6A2 JUMPI PUSH1 0x0 DUP1 REVERT JUMPDEST POP GAS CALL ISZERO DUP1 ISZERO PUSH2 0x6B6 JUMPI RETURNDATASIZE PUSH1 0x0 DUP1 RETURNDATACOPY RETURNDATASIZE PUSH1 0x0 REVERT JUMPDEST POP POP POP POP POP POP POP POP JUMP JUMPDEST CALLER PUSH20 0xFFFFFFFFFFFFFFFFFFFFFFFFFFFFFFFFFFFFFFFF AND PUSH1 0x4 PUSH1 0x0 SWAP1 SLOAD SWAP1 PUSH2 0x100 EXP SWAP1 DIV PUSH20 0xFFFFFFFFFFFFFFFFFFFFFFFFFFFFFFFFFFFFFFFF AND PUSH20 0xFFFFFFFFFFFFFFFFFFFFFFFFFFFFFFFFFFFFFFFF AND EQ PUSH2 0x750 JUMPI PUSH1 0x40 MLOAD PUSH32 0x8C379A000000000000000000000000000000000000000000000000000000000 DUP2 MSTORE PUSH1 0x4 ADD PUSH2 0x747 SWAP1 PUSH2 0xBC4 JUMP JUMPDEST PUSH1 0x40 MLOAD DUP1 SWAP2 SUB SWAP1 REVERT JUMPDEST PUSH1 0x4 PUSH1 0x0 SWAP1 SLOAD SWAP1 PUSH2 0x100 EXP SWAP1 DIV PUSH20 0xFFFFFFFFFFFFFFFFFFFFFFFFFFFFFFFFFFFFFFFF AND PUSH20 0xFFFFFFFFFFFFFFFFFFFFFFFFFFFFFFFFFFFFFFFF AND PUSH2 0x8FC SELFBALANCE SWAP1 DUP2 ISZERO MUL SWAP1 PUSH1 0x40 MLOAD PUSH1 0x0 PUSH1 0x40 MLOAD DUP1 DUP4 SUB DUP2 DUP6 DUP9 DUP9 CALL SWAP4 POP POP POP POP ISZERO DUP1 ISZERO PUSH2 0x7B8 JUMPI RETURNDATASIZE PUSH1 0x0 DUP1 RETURNDATACOPY RETURNDATASIZE PUSH1 0x0 REVERT JUMPDEST POP JUMP JUMPDEST PUSH1 0x0 DUP2 DUP4 PUSH2 0x7C9 SWAP2 SWAP1 PUSH2 0xC0D JUMP JUMPDEST SWAP1 POP SWAP3 SWAP2 POP POP JUMP JUMPDEST PUSH1 0x0 DUP2 DUP4 PUSH2 0x7DF SWAP2 SWAP1 PUSH2 0xB25 JUMP JUMPDEST SWAP1 POP SWAP3 SWAP2 POP POP JUMP JUMPDEST PUSH1 0x0 DUP2 DUP4 PUSH2 0x7F5 SWAP2 SWAP1 PUSH2 0xA54 JUMP JUMPDEST SWAP1 POP SWAP3 SWAP2 POP POP JUMP JUMPDEST PUSH1 0x0 DUP1 REVERT JUMPDEST PUSH1 0x0 DUP2 SWAP1 POP SWAP2 SWAP1 POP JUMP JUMPDEST PUSH2 0x815 DUP2 PUSH2 0x802 JUMP JUMPDEST DUP2 EQ PUSH2 0x820 JUMPI PUSH1 0x0 DUP1 REVERT JUMPDEST POP JUMP JUMPDEST PUSH1 0x0 DUP2 CALLDATALOAD SWAP1 POP PUSH2 0x832 DUP2 PUSH2 0x80C JUMP JUMPDEST SWAP3 SWAP2 POP POP JUMP JUMPDEST PUSH1 0x0 PUSH1 0x20 DUP3 DUP5 SUB SLT ISZERO PUSH2 0x84E JUMPI PUSH2 0x84D PUSH2 0x7FD JUMP JUMPDEST JUMPDEST PUSH1 0x0 PUSH2 0x85C DUP5 DUP3 DUP6 ADD PUSH2 0x823 JUMP JUMPDEST SWAP2 POP POP SWAP3 SWAP2 POP POP JUMP JUMPDEST PUSH2 0x86E DUP2 PUSH2 0x802 JUMP JUMPDEST DUP3 MSTORE POP POP JUMP JUMPDEST PUSH1 0x0 PUSH1 0x20 DUP3 ADD SWAP1 POP PUSH2 0x889 PUSH1 0x0 DUP4 ADD DUP5 PUSH2 0x865 JUMP JUMPDEST SWAP3 SWAP2 POP POP JUMP JUMPDEST PUSH1 0x0 PUSH20 0xFFFFFFFFFFFFFFFFFFFFFFFFFFFFFFFFFFFFFFFF DUP3 AND SWAP1 POP SWAP2 SWAP1 POP JUMP JUMPDEST PUSH1 0x0 PUSH2 0x8BA DUP3 PUSH2 0x88F JUMP JUMPDEST SWAP1 POP SWAP2 SWAP1 POP JUMP JUMPDEST PUSH2 0x8CA DUP2 PUSH2 0x8AF JUMP JUMPDEST DUP2 EQ PUSH2 0x8D5 JUMPI PUSH1 0x0 DUP1 REVERT JUMPDEST POP JUMP JUMPDEST PUSH1 0x0 DUP2 CALLDATALOAD SWAP1 POP PUSH2 0x8E7 DUP2 PUSH2 0x8C1 JUMP JUMPDEST SWAP3 SWAP2 POP POP JUMP JUMPDEST PUSH1 0x0 DUP2 ISZERO ISZERO SWAP1 POP SWAP2 SWAP1 POP JUMP JUMPDEST PUSH2 0x902 DUP2 PUSH2 0x8ED JUMP JUMPDEST DUP2 EQ PUSH2 0x90D JUMPI PUSH1 0x0 DUP1 REVERT JUMPDEST POP JUMP JUMPDEST PUSH1 0x0 DUP2 CALLDATALOAD SWAP1 POP PUSH2 0x91F DUP2 PUSH2 0x8F9 JUMP JUMPDEST SWAP3 SWAP2 POP POP JUMP JUMPDEST PUSH1 0x0 DUP1 PUSH1 0x40 DUP4 DUP6 SUB SLT ISZERO PUSH2 0x93C JUMPI PUSH2 0x93B PUSH2 0x7FD JUMP JUMPDEST JUMPDEST PUSH1 0x0 PUSH2 0x94A DUP6 DUP3 DUP7 ADD PUSH2 0x8D8 JUMP JUMPDEST SWAP3 POP POP PUSH1 0x20 PUSH2 0x95B DUP6 DUP3 DUP7 ADD PUSH2 0x910 JUMP JUMPDEST SWAP2 POP POP SWAP3 POP SWAP3 SWAP1 POP JUMP JUMPDEST PUSH1 0x0 PUSH2 0x970 DUP3 PUSH2 0x88F JUMP JUMPDEST SWAP1 POP SWAP2 SWAP1 POP JUMP JUMPDEST PUSH2 0x980 DUP2 PUSH2 0x965 JUMP JUMPDEST DUP2 EQ PUSH2 0x98B JUMPI PUSH1 0x0 DUP1 REVERT JUMPDEST POP JUMP JUMPDEST PUSH1 0x0 DUP2 CALLDATALOAD SWAP1 POP PUSH2 0x99D DUP2 PUSH2 0x977 JUMP JUMPDEST SWAP3 SWAP2 POP POP JUMP JUMPDEST PUSH1 0x0 DUP1 PUSH1 0x0 PUSH1 0x60 DUP5 DUP7 SUB SLT ISZERO PUSH2 0x9BC JUMPI PUSH2 0x9BB PUSH2 0x7FD JUMP JUMPDEST JUMPDEST PUSH1 0x0 PUSH2 0x9CA DUP7 DUP3 DUP8 ADD PUSH2 0x8D8 JUMP JUMPDEST SWAP4 POP POP PUSH1 0x20 PUSH2 0x9DB DUP7 DUP3 DUP8 ADD PUSH2 0x98E JUMP JUMPDEST SWAP3 POP POP PUSH1 0x40 PUSH2 0x9EC DUP7 DUP3 DUP8 ADD PUSH2 0x823 JUMP JUMPDEST SWAP2 POP POP SWAP3 POP SWAP3 POP SWAP3 JUMP JUMPDEST PUSH32 0x4E487B7100000000000000000000000000000000000000000000000000000000 PUSH1 0x0 MSTORE PUSH1 0x12 PUSH1 0x4 MSTORE PUSH1 0x24 PUSH1 0x0 REVERT JUMPDEST PUSH32 0x4E487B7100000000000000000000000000000000000000000000000000000000 PUSH1 0x0 MSTORE PUSH1 0x11 PUSH1 0x4 MSTORE PUSH1 0x24 PUSH1 0x0 REVERT JUMPDEST PUSH1 0x0 PUSH2 0xA5F DUP3 PUSH2 0x802 JUMP JUMPDEST SWAP2 POP PUSH2 0xA6A DUP4 PUSH2 0x802 JUMP JUMPDEST SWAP3 POP DUP3 PUSH2 0xA7A JUMPI PUSH2 0xA79 PUSH2 0x9F6 JUMP JUMPDEST JUMPDEST DUP3 DUP3 DIV SWAP1 POP SWAP3 SWAP2 POP POP JUMP JUMPDEST PUSH2 0xA8E DUP2 PUSH2 0x8AF JUMP JUMPDEST DUP3 MSTORE POP POP JUMP JUMPDEST PUSH1 0x0 PUSH1 0x20 DUP3 ADD SWAP1 POP PUSH2 0xAA9 PUSH1 0x0 DUP4 ADD DUP5 PUSH2 0xA85 JUMP JUMPDEST SWAP3 SWAP2 POP POP JUMP JUMPDEST PUSH1 0x0 DUP2 MLOAD SWAP1 POP PUSH2 0xABE DUP2 PUSH2 0x80C JUMP JUMPDEST SWAP3 SWAP2 POP POP JUMP JUMPDEST PUSH1 0x0 PUSH1 0x20 DUP3 DUP5 SUB SLT ISZERO PUSH2 0xADA JUMPI PUSH2 0xAD9 PUSH2 0x7FD JUMP JUMPDEST JUMPDEST PUSH1 0x0 PUSH2 0xAE8 DUP5 DUP3 DUP6 ADD PUSH2 0xAAF JUMP JUMPDEST SWAP2 POP POP SWAP3 SWAP2 POP POP JUMP JUMPDEST PUSH1 0x0 PUSH2 0xAFC DUP3 PUSH2 0x802 JUMP JUMPDEST SWAP2 POP PUSH2 0xB07 DUP4 PUSH2 0x802 JUMP JUMPDEST SWAP3 POP DUP3 DUP3 ADD SWAP1 POP DUP1 DUP3 GT ISZERO PUSH2 0xB1F JUMPI PUSH2 0xB1E PUSH2 0xA25 JUMP JUMPDEST JUMPDEST SWAP3 SWAP2 POP POP JUMP JUMPDEST PUSH1 0x0 PUSH2 0xB30 DUP3 PUSH2 0x802 JUMP JUMPDEST SWAP2 POP PUSH2 0xB3B DUP4 PUSH2 0x802 JUMP JUMPDEST SWAP3 POP DUP3 DUP3 MUL PUSH2 0xB49 DUP2 PUSH2 0x802 JUMP JUMPDEST SWAP2 POP DUP3 DUP3 DIV DUP5 EQ DUP4 ISZERO OR PUSH2 0xB60 JUMPI PUSH2 0xB5F PUSH2 0xA25 JUMP JUMPDEST JUMPDEST POP SWAP3 SWAP2 POP POP JUMP JUMPDEST PUSH1 0x0 DUP3 DUP3 MSTORE PUSH1 0x20 DUP3 ADD SWAP1 POP SWAP3 SWAP2 POP POP JUMP JUMPDEST PUSH32 0x4F776E61626C653A2063616C6C6572206973206E6F7420746865206F776E6572 PUSH1 0x0 DUP3 ADD MSTORE POP JUMP JUMPDEST PUSH1 0x0 PUSH2 0xBAE PUSH1 0x20 DUP4 PUSH2 0xB67 JUMP JUMPDEST SWAP2 POP PUSH2 0xBB9 DUP3 PUSH2 0xB78 JUMP JUMPDEST PUSH1 0x20 DUP3 ADD SWAP1 POP SWAP2 SWAP1 POP JUMP JUMPDEST PUSH1 0x0 PUSH1 0x20 DUP3 ADD SWAP1 POP DUP2 DUP2 SUB PUSH1 0x0 DUP4 ADD MSTORE PUSH2 0xBDD DUP2 PUSH2 0xBA1 JUMP JUMPDEST SWAP1 POP SWAP2 SWAP1 POP JUMP JUMPDEST PUSH1 0x0 PUSH1 0x40 DUP3 ADD SWAP1 POP PUSH2 0xBF9 PUSH1 0x0 DUP4 ADD DUP6 PUSH2 0xA85 JUMP JUMPDEST PUSH2 0xC06 PUSH1 0x20 DUP4 ADD DUP5 PUSH2 0x865 JUMP JUMPDEST SWAP4 SWAP3 POP POP POP JUMP JUMPDEST PUSH1 0x0 PUSH2 0xC18 DUP3 PUSH2 0x802 JUMP JUMPDEST SWAP2 POP PUSH2 0xC23 DUP4 PUSH2 0x802 JUMP JUMPDEST SWAP3 POP DUP3 DUP3 SUB SWAP1 POP DUP2 DUP2 GT ISZERO PUSH2 0xC3B JUMPI PUSH2 0xC3A PUSH2 0xA25 JUMP JUMPDEST JUMPDEST SWAP3 SWAP2 POP POP JUMP INVALID LOG2 PUSH5 0x6970667358 0x22 SLT KECCAK256 PUSH11 0xCE4D9CC06C8DEFD800DA58 0xC SWAP9 CALLDATACOPY PUSH16 0xE14AABB268C9ABBF6C3D207E63D06FF4 PUSH5 0x736F6C6343 STOP ADDMOD GT STOP CALLER "
				},
				"gasEstimates": {
					"creation": {
						"codeDepositCost": "638200",
						"executionCost": "144118",
						"totalCost": "782318"
					},
					"external": {
						"ETH_DCF(uint256)": "infinite",
						"Warning_protect()": "infinite",
						"deposit()": "2402",
						"market(address,address,uint256)": "infinite",
						"market(uint256)": "infinite",
						"price(uint256)": "infinite",
						"setRouter(address,bool)": "27161"
					}
				},
				"methodIdentifiers": {
					"ETH_DCF(uint256)": "97dedb1d",
					"Warning_protect()": "dac3fad4",
					"deposit()": "d0e30db0",
					"market(address,address,uint256)": "d9e9402f",
					"market(uint256)": "28861d22",
					"price(uint256)": "26a49e37",
					"setRouter(address,bool)": "c3c64674"
				}
			},
			"storageLayout": {
				"storage": [
					{
						"astId": 410,
						"contract": "minerpunk/treasury.sol:treasury",
						"label": "dcoff",
						"offset": 0,
						"slot": "0",
						"type": "t_contract(IERC20)77"
					},
					{
						"astId": 416,
						"contract": "minerpunk/treasury.sol:treasury",
						"label": "dcoffburn",
						"offset": 0,
						"slot": "1",
						"type": "t_contract(IburnFrom)401"
					},
					{
						"astId": 422,
						"contract": "minerpunk/treasury.sol:treasury",
						"label": "minePower",
						"offset": 0,
						"slot": "2",
						"type": "t_contract(IERC20)77"
					},
					{
						"astId": 428,
						"contract": "minerpunk/treasury.sol:treasury",
						"label": "minePowerburn",
						"offset": 0,
						"slot": "3",
						"type": "t_contract(IburnFrom)401"
					},
					{
						"astId": 445,
						"contract": "minerpunk/treasury.sol:treasury",
						"label": "owner",
						"offset": 0,
						"slot": "4",
						"type": "t_address"
					},
					{
						"astId": 447,
						"contract": "minerpunk/treasury.sol:treasury",
						"label": "k",
						"offset": 0,
						"slot": "5",
						"type": "t_uint256"
					},
					{
						"astId": 451,
						"contract": "minerpunk/treasury.sol:treasury",
						"label": "RouterAdmin",
						"offset": 0,
						"slot": "6",
						"type": "t_mapping(t_address,t_bool)"
					}
				],
				"types": {
					"t_address": {
						"encoding": "inplace",
						"label": "address",
						"numberOfBytes": "20"
					},
					"t_bool": {
						"encoding": "inplace",
						"label": "bool",
						"numberOfBytes": "1"
					},
					"t_contract(IERC20)77": {
						"encoding": "inplace",
						"label": "contract IERC20",
						"numberOfBytes": "20"
					},
					"t_contract(IburnFrom)401": {
						"encoding": "inplace",
						"label": "contract IburnFrom",
						"numberOfBytes": "20"
					},
					"t_mapping(t_address,t_bool)": {
						"encoding": "mapping",
						"key": "t_address",
						"label": "mapping(address => bool)",
						"numberOfBytes": "32",
						"value": "t_bool"
					},
					"t_uint256": {
						"encoding": "inplace",
						"label": "uint256",
						"numberOfBytes": "32"
					}
				}
			},
			"userdoc": {
				"kind": "user",
				"methods": {},
				"version": 1
			}
		}
	}
}