{
	"minerpunk/treasury.sol": {
		"treasury": {
			"abi": [
				{
					"inputs": [],
					"stateMutability": "nonpayable",
					"type": "constructor"
				},
				{
					"anonymous": false,
					"inputs": [
						{
							"indexed": false,
							"internalType": "uint256",
							"name": "_DCFamount",
							"type": "uint256"
						},
						{
							"indexed": false,
							"internalType": "uint256",
							"name": "_ETHamount",
							"type": "uint256"
						},
						{
							"indexed": false,
							"internalType": "uint256",
							"name": "_time",
							"type": "uint256"
						}
					],
					"name": "ETHperDCF",
					"type": "event"
				},
				{
					"inputs": [
						{
							"internalType": "uint256",
							"name": "dcf_amount",
							"type": "uint256"
						}
					],
					"name": "ETH_DCF",
					"outputs": [
						{
							"internalType": "uint256",
							"name": "",
							"type": "uint256"
						}
					],
					"stateMutability": "view",
					"type": "function"
				},
				{
					"inputs": [],
					"name": "Warning_protect",
					"outputs": [],
					"stateMutability": "nonpayable",
					"type": "function"
				},
				{
					"inputs": [],
					"name": "deposit",
					"outputs": [],
					"stateMutability": "payable",
					"type": "function"
				},
				{
					"inputs": [
						{
							"internalType": "address",
							"name": "from",
							"type": "address"
						},
						{
							"internalType": "address payable",
							"name": "to",
							"type": "address"
						},
						{
							"internalType": "uint256",
							"name": "dcf_amount",
							"type": "uint256"
						}
					],
					"name": "market",
					"outputs": [],
					"stateMutability": "nonpayable",
					"type": "function"
				},
				{
					"inputs": [
						{
							"internalType": "address",
							"name": "user",
							"type": "address"
						},
						{
							"internalType": "uint256",
							"name": "_unit",
							"type": "uint256"
						}
					],
					"name": "purchasePower",
					"outputs": [],
					"stateMutability": "payable",
					"type": "function"
				},
				{
					"inputs": [
						{
							"internalType": "address",
							"name": "user",
							"type": "address"
						},
						{
							"internalType": "bool",
							"name": "power",
							"type": "bool"
						}
					],
					"name": "setRouter",
					"outputs": [],
					"stateMutability": "nonpayable",
					"type": "function"
				}
			],
			"devdoc": {
				"kind": "dev",
				"methods": {},
				"version": 1
			},
			"evm": {
				"assembly": "    /* \"minerpunk/treasury.sol\":278:2555  contract treasury {... */\n  mstore(0x40, 0x80)\n    /* \"minerpunk/treasury.sol\":356:398  0xA9fae5eA311D3CfB2bcC9CAefC5003b30b60b6c3 */\n  0xa9fae5ea311d3cfb2bcc9caefc5003b30b60b6c3\n    /* \"minerpunk/treasury.sol\":333:399  IERC20 dcoff =  IERC20(0xA9fae5eA311D3CfB2bcC9CAefC5003b30b60b6c3) */\n  0x00\n  dup1\n  0x0100\n  exp\n  dup2\n  sload\n  dup2\n  0xffffffffffffffffffffffffffffffffffffffff\n  mul\n  not\n  and\n  swap1\n  dup4\n  0xffffffffffffffffffffffffffffffffffffffff\n  and\n  mul\n  or\n  swap1\n  sstore\n  pop\n    /* \"minerpunk/treasury.sol\":436:478  0xA9fae5eA311D3CfB2bcC9CAefC5003b30b60b6c3 */\n  0xa9fae5ea311d3cfb2bcc9caefc5003b30b60b6c3\n    /* \"minerpunk/treasury.sol\":404:479  IburnFrom dcoffburn = IburnFrom(0xA9fae5eA311D3CfB2bcC9CAefC5003b30b60b6c3) */\n  0x01\n  exp(0x0100, 0x00)\n  dup2\n  sload\n  dup2\n  0xffffffffffffffffffffffffffffffffffffffff\n  mul\n  not\n  and\n  swap1\n  dup4\n  0xffffffffffffffffffffffffffffffffffffffff\n  and\n  mul\n  or\n  swap1\n  sstore\n  pop\n    /* \"minerpunk/treasury.sol\":511:553  0xe3410Af1B80F925ac42b78EA54A48DE13dFA6eBe */\n  0xe3410af1b80f925ac42b78ea54a48de13dfa6ebe\n    /* \"minerpunk/treasury.sol\":484:554  IERC20 minePower =  IERC20(0xe3410Af1B80F925ac42b78EA54A48DE13dFA6eBe) */\n  0x02\n  exp(0x0100, 0x00)\n  dup2\n  sload\n  dup2\n  0xffffffffffffffffffffffffffffffffffffffff\n  mul\n  not\n  and\n  swap1\n  dup4\n  0xffffffffffffffffffffffffffffffffffffffff\n  and\n  mul\n  or\n  swap1\n  sstore\n  pop\n    /* \"minerpunk/treasury.sol\":646:722  constructor(){... */\n  callvalue\n  dup1\n  iszero\n  tag_1\n  jumpi\n  0x00\n  dup1\n  revert\ntag_1:\n  pop\n    /* \"minerpunk/treasury.sol\":674:684  msg.sender */\n  caller\n    /* \"minerpunk/treasury.sol\":666:671  owner */\n  0x03\n  0x00\n    /* \"minerpunk/treasury.sol\":666:684  owner = msg.sender */\n  0x0100\n  exp\n  dup2\n  sload\n  dup2\n  0xffffffffffffffffffffffffffffffffffffffff\n  mul\n  not\n  and\n  swap1\n  dup4\n  0xffffffffffffffffffffffffffffffffffffffff\n  and\n  mul\n  or\n  swap1\n  sstore\n  pop\n    /* \"minerpunk/treasury.sol\":712:716  5e15 */\n  0x11c37937e08000\n    /* \"minerpunk/treasury.sol\":694:709  powerTokenPrice */\n  0x04\n    /* \"minerpunk/treasury.sol\":694:716  powerTokenPrice = 5e15 */\n  dup2\n  swap1\n  sstore\n  pop\n    /* \"minerpunk/treasury.sol\":278:2555  contract treasury {... */\n  dataSize(sub_0)\n  dup1\n  dataOffset(sub_0)\n  0x00\n  codecopy\n  0x00\n  return\nstop\n\nsub_0: assembly {\n        /* \"minerpunk/treasury.sol\":278:2555  contract treasury {... */\n      mstore(0x40, 0x80)\n      jumpi(tag_1, lt(calldatasize, 0x04))\n      shr(0xe0, calldataload(0x00))\n      dup1\n      0x97dedb1d\n      eq\n      tag_2\n      jumpi\n      dup1\n      0xc3c64674\n      eq\n      tag_3\n      jumpi\n      dup1\n      0xd0e30db0\n      eq\n      tag_4\n      jumpi\n      dup1\n      0xd9e9402f\n      eq\n      tag_5\n      jumpi\n      dup1\n      0xdac3fad4\n      eq\n      tag_6\n      jumpi\n      dup1\n      0xdaeae851\n      eq\n      tag_7\n      jumpi\n    tag_1:\n      0x00\n      dup1\n      revert\n        /* \"minerpunk/treasury.sol\":2158:2416  function ETH_DCF(uint256 dcf_amount)public view returns(uint256){... */\n    tag_2:\n      callvalue\n      dup1\n      iszero\n      tag_8\n      jumpi\n      0x00\n      dup1\n      revert\n    tag_8:\n      pop\n      tag_9\n      0x04\n      dup1\n      calldatasize\n      sub\n      dup2\n      add\n      swap1\n      tag_10\n      swap2\n      swap1\n      tag_11\n      jump\t// in\n    tag_10:\n      tag_12\n      jump\t// in\n    tag_9:\n      mload(0x40)\n      tag_13\n      swap2\n      swap1\n      tag_14\n      jump\t// in\n    tag_13:\n      mload(0x40)\n      dup1\n      swap2\n      sub\n      swap1\n      return\n        /* \"minerpunk/treasury.sol\":959:1061  function setRouter(address user, bool power)external onlyOwner{... */\n    tag_3:\n      callvalue\n      dup1\n      iszero\n      tag_15\n      jumpi\n      0x00\n      dup1\n      revert\n    tag_15:\n      pop\n      tag_16\n      0x04\n      dup1\n      calldatasize\n      sub\n      dup2\n      add\n      swap1\n      tag_17\n      swap2\n      swap1\n      tag_18\n      jump\t// in\n    tag_17:\n      tag_19\n      jump\t// in\n    tag_16:\n      stop\n        /* \"minerpunk/treasury.sol\":1069:1251  function deposit()external payable{... */\n    tag_4:\n      tag_20\n      tag_21\n      jump\t// in\n    tag_20:\n      stop\n        /* \"minerpunk/treasury.sol\":1733:2150  function market(address from ,address payable to, uint256 dcf_amount)external {... */\n    tag_5:\n      callvalue\n      dup1\n      iszero\n      tag_22\n      jumpi\n      0x00\n      dup1\n      revert\n    tag_22:\n      pop\n      tag_23\n      0x04\n      dup1\n      calldatasize\n      sub\n      dup2\n      add\n      swap1\n      tag_24\n      swap2\n      swap1\n      tag_25\n      jump\t// in\n    tag_24:\n      tag_26\n      jump\t// in\n    tag_23:\n      stop\n        /* \"minerpunk/treasury.sol\":2427:2530  function Warning_protect()external onlyOwner{... */\n    tag_6:\n      callvalue\n      dup1\n      iszero\n      tag_27\n      jumpi\n      0x00\n      dup1\n      revert\n    tag_27:\n      pop\n      tag_28\n      tag_29\n      jump\t// in\n    tag_28:\n      stop\n        /* \"minerpunk/treasury.sol\":1261:1720  function purchasePower(address user, uint256 _unit)external payable{   ... */\n    tag_7:\n      tag_30\n      0x04\n      dup1\n      calldatasize\n      sub\n      dup2\n      add\n      swap1\n      tag_31\n      swap2\n      swap1\n      tag_32\n      jump\t// in\n    tag_31:\n      tag_33\n      jump\t// in\n    tag_30:\n      stop\n        /* \"minerpunk/treasury.sol\":2158:2416  function ETH_DCF(uint256 dcf_amount)public view returns(uint256){... */\n    tag_12:\n        /* \"minerpunk/treasury.sol\":2214:2221  uint256 */\n      0x00\n        /* \"minerpunk/treasury.sol\":2229:2248  uint256 _eth_amount */\n      dup1\n        /* \"minerpunk/treasury.sol\":2251:2272  address(this).balance */\n      selfbalance\n        /* \"minerpunk/treasury.sol\":2229:2272  uint256 _eth_amount = address(this).balance */\n      swap1\n      pop\n        /* \"minerpunk/treasury.sol\":2279:2298  uint256 _dcf_amount */\n      0x00\n        /* \"minerpunk/treasury.sol\":2301:2306  dcoff */\n      dup1\n      0x00\n      swap1\n      sload\n      swap1\n      0x0100\n      exp\n      swap1\n      div\n      0xffffffffffffffffffffffffffffffffffffffff\n      and\n        /* \"minerpunk/treasury.sol\":2301:2318  dcoff.totalSupply */\n      0xffffffffffffffffffffffffffffffffffffffff\n      and\n      0x18160ddd\n        /* \"minerpunk/treasury.sol\":2301:2320  dcoff.totalSupply() */\n      mload(0x40)\n      dup2\n      0xffffffff\n      and\n      0xe0\n      shl\n      dup2\n      mstore\n      0x04\n      add\n      0x20\n      mload(0x40)\n      dup1\n      dup4\n      sub\n      dup2\n      dup7\n      gas\n      staticcall\n      iszero\n      dup1\n      iszero\n      tag_36\n      jumpi\n      returndatasize\n      0x00\n      dup1\n      returndatacopy\n      revert(0x00, returndatasize)\n    tag_36:\n      pop\n      pop\n      pop\n      pop\n      mload(0x40)\n      returndatasize\n      not(0x1f)\n      0x1f\n      dup3\n      add\n      and\n      dup3\n      add\n      dup1\n      0x40\n      mstore\n      pop\n      dup2\n      add\n      swap1\n      tag_37\n      swap2\n      swap1\n      tag_38\n      jump\t// in\n    tag_37:\n        /* \"minerpunk/treasury.sol\":2279:2320  uint256 _dcf_amount = dcoff.totalSupply() */\n      swap1\n      pop\n        /* \"minerpunk/treasury.sol\":2329:2343  uint256 _price */\n      0x00\n        /* \"minerpunk/treasury.sol\":2346:2390  dcf_amount.mul(_eth_amount).div(_dcf_amount) */\n      tag_39\n        /* \"minerpunk/treasury.sol\":2378:2389  _dcf_amount */\n      dup3\n        /* \"minerpunk/treasury.sol\":2346:2373  dcf_amount.mul(_eth_amount) */\n      tag_40\n        /* \"minerpunk/treasury.sol\":2361:2372  _eth_amount */\n      dup6\n        /* \"minerpunk/treasury.sol\":2346:2356  dcf_amount */\n      dup9\n        /* \"minerpunk/treasury.sol\":2346:2360  dcf_amount.mul */\n      tag_41\n      swap1\n        /* \"minerpunk/treasury.sol\":2346:2373  dcf_amount.mul(_eth_amount) */\n      swap2\n      swap1\n      0xffffffff\n      and\n      jump\t// in\n    tag_40:\n        /* \"minerpunk/treasury.sol\":2346:2377  dcf_amount.mul(_eth_amount).div */\n      tag_42\n      swap1\n        /* \"minerpunk/treasury.sol\":2346:2390  dcf_amount.mul(_eth_amount).div(_dcf_amount) */\n      swap2\n      swap1\n      0xffffffff\n      and\n      jump\t// in\n    tag_39:\n        /* \"minerpunk/treasury.sol\":2329:2390  uint256 _price = dcf_amount.mul(_eth_amount).div(_dcf_amount) */\n      swap1\n      pop\n        /* \"minerpunk/treasury.sol\":2404:2410  _price */\n      dup1\n        /* \"minerpunk/treasury.sol\":2397:2410  return _price */\n      swap4\n      pop\n      pop\n      pop\n      pop\n        /* \"minerpunk/treasury.sol\":2158:2416  function ETH_DCF(uint256 dcf_amount)public view returns(uint256){... */\n      swap2\n      swap1\n      pop\n      jump\t// out\n        /* \"minerpunk/treasury.sol\":959:1061  function setRouter(address user, bool power)external onlyOwner{... */\n    tag_19:\n        /* \"minerpunk/treasury.sol\":882:892  msg.sender */\n      caller\n        /* \"minerpunk/treasury.sol\":873:892  owner == msg.sender */\n      0xffffffffffffffffffffffffffffffffffffffff\n      and\n        /* \"minerpunk/treasury.sol\":873:878  owner */\n      0x03\n      0x00\n      swap1\n      sload\n      swap1\n      0x0100\n      exp\n      swap1\n      div\n      0xffffffffffffffffffffffffffffffffffffffff\n      and\n        /* \"minerpunk/treasury.sol\":873:892  owner == msg.sender */\n      0xffffffffffffffffffffffffffffffffffffffff\n      and\n      eq\n        /* \"minerpunk/treasury.sol\":865:929  require(owner == msg.sender, \"Ownable: caller is not the owner\") */\n      tag_44\n      jumpi\n      mload(0x40)\n      0x08c379a000000000000000000000000000000000000000000000000000000000\n      dup2\n      mstore\n      0x04\n      add\n      tag_45\n      swap1\n      tag_46\n      jump\t// in\n    tag_45:\n      mload(0x40)\n      dup1\n      swap2\n      sub\n      swap1\n      revert\n    tag_44:\n        /* \"minerpunk/treasury.sol\":1050:1055  power */\n      dup1\n        /* \"minerpunk/treasury.sol\":1030:1041  RouterAdmin */\n      0x05\n        /* \"minerpunk/treasury.sol\":1030:1047  RouterAdmin[user] */\n      0x00\n        /* \"minerpunk/treasury.sol\":1042:1046  user */\n      dup5\n        /* \"minerpunk/treasury.sol\":1030:1047  RouterAdmin[user] */\n      0xffffffffffffffffffffffffffffffffffffffff\n      and\n      0xffffffffffffffffffffffffffffffffffffffff\n      and\n      dup2\n      mstore\n      0x20\n      add\n      swap1\n      dup2\n      mstore\n      0x20\n      add\n      0x00\n      keccak256\n      0x00\n        /* \"minerpunk/treasury.sol\":1030:1055  RouterAdmin[user] = power */\n      0x0100\n      exp\n      dup2\n      sload\n      dup2\n      0xff\n      mul\n      not\n      and\n      swap1\n      dup4\n      iszero\n      iszero\n      mul\n      or\n      swap1\n      sstore\n      pop\n        /* \"minerpunk/treasury.sol\":959:1061  function setRouter(address user, bool power)external onlyOwner{... */\n      pop\n      pop\n      jump\t// out\n        /* \"minerpunk/treasury.sol\":1069:1251  function deposit()external payable{... */\n    tag_21:\n        /* \"minerpunk/treasury.sol\":1147:1151  true */\n      0x01\n        /* \"minerpunk/treasury.sol\":1120:1151  RouterAdmin[msg.sender] == true */\n      iszero\n      iszero\n        /* \"minerpunk/treasury.sol\":1120:1131  RouterAdmin */\n      0x05\n        /* \"minerpunk/treasury.sol\":1120:1143  RouterAdmin[msg.sender] */\n      0x00\n        /* \"minerpunk/treasury.sol\":1132:1142  msg.sender */\n      caller\n        /* \"minerpunk/treasury.sol\":1120:1143  RouterAdmin[msg.sender] */\n      0xffffffffffffffffffffffffffffffffffffffff\n      and\n      0xffffffffffffffffffffffffffffffffffffffff\n      and\n      dup2\n      mstore\n      0x20\n      add\n      swap1\n      dup2\n      mstore\n      0x20\n      add\n      0x00\n      keccak256\n      0x00\n      swap1\n      sload\n      swap1\n      0x0100\n      exp\n      swap1\n      div\n      0xff\n      and\n        /* \"minerpunk/treasury.sol\":1120:1151  RouterAdmin[msg.sender] == true */\n      iszero\n      iszero\n      eq\n        /* \"minerpunk/treasury.sol\":1112:1152  require(RouterAdmin[msg.sender] == true) */\n      tag_49\n      jumpi\n      0x00\n      dup1\n      revert\n    tag_49:\n        /* \"minerpunk/treasury.sol\":1166:1245  ETHperDCF(dcoff.balanceOf(address(this)),address(this).balance,block.timestamp) */\n      0x3eb1506d8210b5dbd38e30d7f6113495d1c713078c2cd75ec454a8e3a4d871a9\n        /* \"minerpunk/treasury.sol\":1176:1181  dcoff */\n      0x00\n      dup1\n      sload\n      swap1\n      0x0100\n      exp\n      swap1\n      div\n      0xffffffffffffffffffffffffffffffffffffffff\n      and\n        /* \"minerpunk/treasury.sol\":1176:1191  dcoff.balanceOf */\n      0xffffffffffffffffffffffffffffffffffffffff\n      and\n      0x70a08231\n        /* \"minerpunk/treasury.sol\":1200:1204  this */\n      address\n        /* \"minerpunk/treasury.sol\":1176:1206  dcoff.balanceOf(address(this)) */\n      mload(0x40)\n      dup3\n      0xffffffff\n      and\n      0xe0\n      shl\n      dup2\n      mstore\n      0x04\n      add\n      tag_50\n      swap2\n      swap1\n      tag_51\n      jump\t// in\n    tag_50:\n      0x20\n      mload(0x40)\n      dup1\n      dup4\n      sub\n      dup2\n      dup7\n      gas\n      staticcall\n      iszero\n      dup1\n      iszero\n      tag_53\n      jumpi\n      returndatasize\n      0x00\n      dup1\n      returndatacopy\n      revert(0x00, returndatasize)\n    tag_53:\n      pop\n      pop\n      pop\n      pop\n      mload(0x40)\n      returndatasize\n      not(0x1f)\n      0x1f\n      dup3\n      add\n      and\n      dup3\n      add\n      dup1\n      0x40\n      mstore\n      pop\n      dup2\n      add\n      swap1\n      tag_54\n      swap2\n      swap1\n      tag_38\n      jump\t// in\n    tag_54:\n        /* \"minerpunk/treasury.sol\":1207:1228  address(this).balance */\n      selfbalance\n        /* \"minerpunk/treasury.sol\":1229:1244  block.timestamp */\n      timestamp\n        /* \"minerpunk/treasury.sol\":1166:1245  ETHperDCF(dcoff.balanceOf(address(this)),address(this).balance,block.timestamp) */\n      mload(0x40)\n      tag_55\n      swap4\n      swap3\n      swap2\n      swap1\n      tag_56\n      jump\t// in\n    tag_55:\n      mload(0x40)\n      dup1\n      swap2\n      sub\n      swap1\n      log1\n        /* \"minerpunk/treasury.sol\":1069:1251  function deposit()external payable{... */\n      jump\t// out\n        /* \"minerpunk/treasury.sol\":1733:2150  function market(address from ,address payable to, uint256 dcf_amount)external {... */\n    tag_26:\n        /* \"minerpunk/treasury.sol\":1855:1859  true */\n      0x01\n        /* \"minerpunk/treasury.sol\":1828:1859  RouterAdmin[msg.sender] == true */\n      iszero\n      iszero\n        /* \"minerpunk/treasury.sol\":1828:1839  RouterAdmin */\n      0x05\n        /* \"minerpunk/treasury.sol\":1828:1851  RouterAdmin[msg.sender] */\n      0x00\n        /* \"minerpunk/treasury.sol\":1840:1850  msg.sender */\n      caller\n        /* \"minerpunk/treasury.sol\":1828:1851  RouterAdmin[msg.sender] */\n      0xffffffffffffffffffffffffffffffffffffffff\n      and\n      0xffffffffffffffffffffffffffffffffffffffff\n      and\n      dup2\n      mstore\n      0x20\n      add\n      swap1\n      dup2\n      mstore\n      0x20\n      add\n      0x00\n      keccak256\n      0x00\n      swap1\n      sload\n      swap1\n      0x0100\n      exp\n      swap1\n      div\n      0xff\n      and\n        /* \"minerpunk/treasury.sol\":1828:1859  RouterAdmin[msg.sender] == true */\n      iszero\n      iszero\n      eq\n        /* \"minerpunk/treasury.sol\":1820:1860  require(RouterAdmin[msg.sender] == true) */\n      tag_58\n      jumpi\n      0x00\n      dup1\n      revert\n    tag_58:\n        /* \"minerpunk/treasury.sol\":1902:1912  dcf_amount */\n      dup1\n        /* \"minerpunk/treasury.sol\":1877:1882  dcoff */\n      0x00\n      dup1\n      sload\n      swap1\n      0x0100\n      exp\n      swap1\n      div\n      0xffffffffffffffffffffffffffffffffffffffff\n      and\n        /* \"minerpunk/treasury.sol\":1877:1892  dcoff.balanceOf */\n      0xffffffffffffffffffffffffffffffffffffffff\n      and\n      0x70a08231\n        /* \"minerpunk/treasury.sol\":1893:1897  from */\n      dup6\n        /* \"minerpunk/treasury.sol\":1877:1898  dcoff.balanceOf(from) */\n      mload(0x40)\n      dup3\n      0xffffffff\n      and\n      0xe0\n      shl\n      dup2\n      mstore\n      0x04\n      add\n      tag_59\n      swap2\n      swap1\n      tag_51\n      jump\t// in\n    tag_59:\n      0x20\n      mload(0x40)\n      dup1\n      dup4\n      sub\n      dup2\n      dup7\n      gas\n      staticcall\n      iszero\n      dup1\n      iszero\n      tag_61\n      jumpi\n      returndatasize\n      0x00\n      dup1\n      returndatacopy\n      revert(0x00, returndatasize)\n    tag_61:\n      pop\n      pop\n      pop\n      pop\n      mload(0x40)\n      returndatasize\n      not(0x1f)\n      0x1f\n      dup3\n      add\n      and\n      dup3\n      add\n      dup1\n      0x40\n      mstore\n      pop\n      dup2\n      add\n      swap1\n      tag_62\n      swap2\n      swap1\n      tag_38\n      jump\t// in\n    tag_62:\n        /* \"minerpunk/treasury.sol\":1877:1912  dcoff.balanceOf(from) >= dcf_amount */\n      lt\n      iszero\n        /* \"minerpunk/treasury.sol\":1869:1913  require(dcoff.balanceOf(from) >= dcf_amount) */\n      tag_63\n      jumpi\n      0x00\n      dup1\n      revert\n    tag_63:\n        /* \"minerpunk/treasury.sol\":1924:1942  uint256 eth_amount */\n      0x00\n        /* \"minerpunk/treasury.sol\":1944:1963  ETH_DCF(dcf_amount) */\n      tag_64\n        /* \"minerpunk/treasury.sol\":1952:1962  dcf_amount */\n      dup3\n        /* \"minerpunk/treasury.sol\":1944:1951  ETH_DCF */\n      tag_12\n        /* \"minerpunk/treasury.sol\":1944:1963  ETH_DCF(dcf_amount) */\n      jump\t// in\n    tag_64:\n        /* \"minerpunk/treasury.sol\":1924:1963  uint256 eth_amount =ETH_DCF(dcf_amount) */\n      swap1\n      pop\n        /* \"minerpunk/treasury.sol\":1978:1980  to */\n      dup3\n        /* \"minerpunk/treasury.sol\":1978:1989  to.transfer */\n      0xffffffffffffffffffffffffffffffffffffffff\n      and\n        /* \"minerpunk/treasury.sol\":1978:2001  to.transfer(eth_amount) */\n      0x08fc\n        /* \"minerpunk/treasury.sol\":1990:2000  eth_amount */\n      dup3\n        /* \"minerpunk/treasury.sol\":1978:2001  to.transfer(eth_amount) */\n      swap1\n      dup2\n      iszero\n      mul\n      swap1\n      mload(0x40)\n      0x00\n      mload(0x40)\n      dup1\n      dup4\n      sub\n      dup2\n      dup6\n      dup9\n      dup9\n      call\n      swap4\n      pop\n      pop\n      pop\n      pop\n      iszero\n      dup1\n      iszero\n      tag_66\n      jumpi\n      returndatasize\n      0x00\n      dup1\n      returndatacopy\n      revert(0x00, returndatasize)\n    tag_66:\n      pop\n        /* \"minerpunk/treasury.sol\":2010:2019  dcoffburn */\n      0x01\n      0x00\n      swap1\n      sload\n      swap1\n      0x0100\n      exp\n      swap1\n      div\n      0xffffffffffffffffffffffffffffffffffffffff\n      and\n        /* \"minerpunk/treasury.sol\":2010:2028  dcoffburn.burnFrom */\n      0xffffffffffffffffffffffffffffffffffffffff\n      and\n      0x79cc6790\n        /* \"minerpunk/treasury.sol\":2029:2033  from */\n      dup6\n        /* \"minerpunk/treasury.sol\":2034:2044  dcf_amount */\n      dup5\n        /* \"minerpunk/treasury.sol\":2010:2045  dcoffburn.burnFrom(from,dcf_amount) */\n      mload(0x40)\n      dup4\n      0xffffffff\n      and\n      0xe0\n      shl\n      dup2\n      mstore\n      0x04\n      add\n      tag_67\n      swap3\n      swap2\n      swap1\n      tag_68\n      jump\t// in\n    tag_67:\n      0x00\n      mload(0x40)\n      dup1\n      dup4\n      sub\n      dup2\n      0x00\n      dup8\n      dup1\n      extcodesize\n      iszero\n      dup1\n      iszero\n      tag_69\n      jumpi\n      0x00\n      dup1\n      revert\n    tag_69:\n      pop\n      gas\n      call\n      iszero\n      dup1\n      iszero\n      tag_71\n      jumpi\n      returndatasize\n      0x00\n      dup1\n      returndatacopy\n      revert(0x00, returndatasize)\n    tag_71:\n      pop\n      pop\n      pop\n      pop\n        /* \"minerpunk/treasury.sol\":2061:2140  ETHperDCF(dcoff.balanceOf(address(this)),address(this).balance,block.timestamp) */\n      0x3eb1506d8210b5dbd38e30d7f6113495d1c713078c2cd75ec454a8e3a4d871a9\n        /* \"minerpunk/treasury.sol\":2071:2076  dcoff */\n      0x00\n      dup1\n      sload\n      swap1\n      0x0100\n      exp\n      swap1\n      div\n      0xffffffffffffffffffffffffffffffffffffffff\n      and\n        /* \"minerpunk/treasury.sol\":2071:2086  dcoff.balanceOf */\n      0xffffffffffffffffffffffffffffffffffffffff\n      and\n      0x70a08231\n        /* \"minerpunk/treasury.sol\":2095:2099  this */\n      address\n        /* \"minerpunk/treasury.sol\":2071:2101  dcoff.balanceOf(address(this)) */\n      mload(0x40)\n      dup3\n      0xffffffff\n      and\n      0xe0\n      shl\n      dup2\n      mstore\n      0x04\n      add\n      tag_72\n      swap2\n      swap1\n      tag_51\n      jump\t// in\n    tag_72:\n      0x20\n      mload(0x40)\n      dup1\n      dup4\n      sub\n      dup2\n      dup7\n      gas\n      staticcall\n      iszero\n      dup1\n      iszero\n      tag_74\n      jumpi\n      returndatasize\n      0x00\n      dup1\n      returndatacopy\n      revert(0x00, returndatasize)\n    tag_74:\n      pop\n      pop\n      pop\n      pop\n      mload(0x40)\n      returndatasize\n      not(0x1f)\n      0x1f\n      dup3\n      add\n      and\n      dup3\n      add\n      dup1\n      0x40\n      mstore\n      pop\n      dup2\n      add\n      swap1\n      tag_75\n      swap2\n      swap1\n      tag_38\n      jump\t// in\n    tag_75:\n        /* \"minerpunk/treasury.sol\":2102:2123  address(this).balance */\n      selfbalance\n        /* \"minerpunk/treasury.sol\":2124:2139  block.timestamp */\n      timestamp\n        /* \"minerpunk/treasury.sol\":2061:2140  ETHperDCF(dcoff.balanceOf(address(this)),address(this).balance,block.timestamp) */\n      mload(0x40)\n      tag_76\n      swap4\n      swap3\n      swap2\n      swap1\n      tag_56\n      jump\t// in\n    tag_76:\n      mload(0x40)\n      dup1\n      swap2\n      sub\n      swap1\n      log1\n        /* \"minerpunk/treasury.sol\":1811:2150  {... */\n      pop\n        /* \"minerpunk/treasury.sol\":1733:2150  function market(address from ,address payable to, uint256 dcf_amount)external {... */\n      pop\n      pop\n      pop\n      jump\t// out\n        /* \"minerpunk/treasury.sol\":2427:2530  function Warning_protect()external onlyOwner{... */\n    tag_29:\n        /* \"minerpunk/treasury.sol\":882:892  msg.sender */\n      caller\n        /* \"minerpunk/treasury.sol\":873:892  owner == msg.sender */\n      0xffffffffffffffffffffffffffffffffffffffff\n      and\n        /* \"minerpunk/treasury.sol\":873:878  owner */\n      0x03\n      0x00\n      swap1\n      sload\n      swap1\n      0x0100\n      exp\n      swap1\n      div\n      0xffffffffffffffffffffffffffffffffffffffff\n      and\n        /* \"minerpunk/treasury.sol\":873:892  owner == msg.sender */\n      0xffffffffffffffffffffffffffffffffffffffff\n      and\n      eq\n        /* \"minerpunk/treasury.sol\":865:929  require(owner == msg.sender, \"Ownable: caller is not the owner\") */\n      tag_78\n      jumpi\n      mload(0x40)\n      0x08c379a000000000000000000000000000000000000000000000000000000000\n      dup2\n      mstore\n      0x04\n      add\n      tag_79\n      swap1\n      tag_46\n      jump\t// in\n    tag_79:\n      mload(0x40)\n      dup1\n      swap2\n      sub\n      swap1\n      revert\n    tag_78:\n        /* \"minerpunk/treasury.sol\":2486:2491  owner */\n      0x03\n      0x00\n      swap1\n      sload\n      swap1\n      0x0100\n      exp\n      swap1\n      div\n      0xffffffffffffffffffffffffffffffffffffffff\n      and\n        /* \"minerpunk/treasury.sol\":2478:2501  payable(owner).transfer */\n      0xffffffffffffffffffffffffffffffffffffffff\n      and\n        /* \"minerpunk/treasury.sol\":2478:2524  payable(owner).transfer(address(this).balance) */\n      0x08fc\n        /* \"minerpunk/treasury.sol\":2502:2523  address(this).balance */\n      selfbalance\n        /* \"minerpunk/treasury.sol\":2478:2524  payable(owner).transfer(address(this).balance) */\n      swap1\n      dup2\n      iszero\n      mul\n      swap1\n      mload(0x40)\n      0x00\n      mload(0x40)\n      dup1\n      dup4\n      sub\n      dup2\n      dup6\n      dup9\n      dup9\n      call\n      swap4\n      pop\n      pop\n      pop\n      pop\n      iszero\n      dup1\n      iszero\n      tag_82\n      jumpi\n      returndatasize\n      0x00\n      dup1\n      returndatacopy\n      revert(0x00, returndatasize)\n    tag_82:\n      pop\n        /* \"minerpunk/treasury.sol\":2427:2530  function Warning_protect()external onlyOwner{... */\n      jump\t// out\n        /* \"minerpunk/treasury.sol\":1261:1720  function purchasePower(address user, uint256 _unit)external payable{   ... */\n    tag_33:\n        /* \"minerpunk/treasury.sol\":1375:1379  true */\n      0x01\n        /* \"minerpunk/treasury.sol\":1348:1379  RouterAdmin[msg.sender] == true */\n      iszero\n      iszero\n        /* \"minerpunk/treasury.sol\":1348:1359  RouterAdmin */\n      0x05\n        /* \"minerpunk/treasury.sol\":1348:1371  RouterAdmin[msg.sender] */\n      0x00\n        /* \"minerpunk/treasury.sol\":1360:1370  msg.sender */\n      caller\n        /* \"minerpunk/treasury.sol\":1348:1371  RouterAdmin[msg.sender] */\n      0xffffffffffffffffffffffffffffffffffffffff\n      and\n      0xffffffffffffffffffffffffffffffffffffffff\n      and\n      dup2\n      mstore\n      0x20\n      add\n      swap1\n      dup2\n      mstore\n      0x20\n      add\n      0x00\n      keccak256\n      0x00\n      swap1\n      sload\n      swap1\n      0x0100\n      exp\n      swap1\n      div\n      0xff\n      and\n        /* \"minerpunk/treasury.sol\":1348:1379  RouterAdmin[msg.sender] == true */\n      iszero\n      iszero\n      eq\n        /* \"minerpunk/treasury.sol\":1340:1380  require(RouterAdmin[msg.sender] == true) */\n      tag_84\n      jumpi\n      0x00\n      dup1\n      revert\n    tag_84:\n        /* \"minerpunk/treasury.sol\":1391:1408  uint256 DCFamount */\n      0x00\n        /* \"minerpunk/treasury.sol\":1411:1426  _unit.mul(1e18) */\n      tag_85\n        /* \"minerpunk/treasury.sol\":1421:1425  1e18 */\n      0x0de0b6b3a7640000\n        /* \"minerpunk/treasury.sol\":1411:1416  _unit */\n      dup4\n        /* \"minerpunk/treasury.sol\":1411:1420  _unit.mul */\n      tag_41\n      swap1\n        /* \"minerpunk/treasury.sol\":1411:1426  _unit.mul(1e18) */\n      swap2\n      swap1\n      0xffffffff\n      and\n      jump\t// in\n    tag_85:\n        /* \"minerpunk/treasury.sol\":1391:1426  uint256 DCFamount = _unit.mul(1e18) */\n      swap1\n      pop\n        /* \"minerpunk/treasury.sol\":1481:1490  DCFamount */\n      dup1\n        /* \"minerpunk/treasury.sol\":1443:1452  minePower */\n      0x02\n      0x00\n      swap1\n      sload\n      swap1\n      0x0100\n      exp\n      swap1\n      div\n      0xffffffffffffffffffffffffffffffffffffffff\n      and\n        /* \"minerpunk/treasury.sol\":1443:1462  minePower.balanceOf */\n      0xffffffffffffffffffffffffffffffffffffffff\n      and\n      0x70a08231\n        /* \"minerpunk/treasury.sol\":1471:1475  this */\n      address\n        /* \"minerpunk/treasury.sol\":1443:1477  minePower.balanceOf(address(this)) */\n      mload(0x40)\n      dup3\n      0xffffffff\n      and\n      0xe0\n      shl\n      dup2\n      mstore\n      0x04\n      add\n      tag_86\n      swap2\n      swap1\n      tag_51\n      jump\t// in\n    tag_86:\n      0x20\n      mload(0x40)\n      dup1\n      dup4\n      sub\n      dup2\n      dup7\n      gas\n      staticcall\n      iszero\n      dup1\n      iszero\n      tag_88\n      jumpi\n      returndatasize\n      0x00\n      dup1\n      returndatacopy\n      revert(0x00, returndatasize)\n    tag_88:\n      pop\n      pop\n      pop\n      pop\n      mload(0x40)\n      returndatasize\n      not(0x1f)\n      0x1f\n      dup3\n      add\n      and\n      dup3\n      add\n      dup1\n      0x40\n      mstore\n      pop\n      dup2\n      add\n      swap1\n      tag_89\n      swap2\n      swap1\n      tag_38\n      jump\t// in\n    tag_89:\n        /* \"minerpunk/treasury.sol\":1443:1490  minePower.balanceOf(address(this)) >= DCFamount */\n      lt\n      iszero\n        /* \"minerpunk/treasury.sol\":1435:1491  require(minePower.balanceOf(address(this)) >= DCFamount) */\n      tag_90\n      jumpi\n      0x00\n      dup1\n      revert\n    tag_90:\n        /* \"minerpunk/treasury.sol\":1500:1513  uint256 price */\n      0x00\n        /* \"minerpunk/treasury.sol\":1516:1542  _unit.mul(powerTokenPrice) */\n      tag_91\n        /* \"minerpunk/treasury.sol\":1526:1541  powerTokenPrice */\n      sload(0x04)\n        /* \"minerpunk/treasury.sol\":1516:1521  _unit */\n      dup5\n        /* \"minerpunk/treasury.sol\":1516:1525  _unit.mul */\n      tag_41\n      swap1\n        /* \"minerpunk/treasury.sol\":1516:1542  _unit.mul(powerTokenPrice) */\n      swap2\n      swap1\n      0xffffffff\n      and\n      jump\t// in\n    tag_91:\n        /* \"minerpunk/treasury.sol\":1500:1542  uint256 price = _unit.mul(powerTokenPrice) */\n      swap1\n      pop\n        /* \"minerpunk/treasury.sol\":1572:1577  price */\n      dup1\n        /* \"minerpunk/treasury.sol\":1559:1568  msg.value */\n      callvalue\n        /* \"minerpunk/treasury.sol\":1559:1577  msg.value >= price */\n      lt\n      iszero\n        /* \"minerpunk/treasury.sol\":1551:1578  require(msg.value >= price) */\n      tag_92\n      jumpi\n      0x00\n      dup1\n      revert\n    tag_92:\n        /* \"minerpunk/treasury.sol\":1587:1596  minePower */\n      0x02\n      0x00\n      swap1\n      sload\n      swap1\n      0x0100\n      exp\n      swap1\n      div\n      0xffffffffffffffffffffffffffffffffffffffff\n      and\n        /* \"minerpunk/treasury.sol\":1587:1605  minePower.transfer */\n      0xffffffffffffffffffffffffffffffffffffffff\n      and\n      0xa9059cbb\n        /* \"minerpunk/treasury.sol\":1606:1610  user */\n      dup6\n        /* \"minerpunk/treasury.sol\":1611:1620  DCFamount */\n      dup5\n        /* \"minerpunk/treasury.sol\":1587:1621  minePower.transfer(user,DCFamount) */\n      mload(0x40)\n      dup4\n      0xffffffff\n      and\n      0xe0\n      shl\n      dup2\n      mstore\n      0x04\n      add\n      tag_93\n      swap3\n      swap2\n      swap1\n      tag_68\n      jump\t// in\n    tag_93:\n      0x20\n      mload(0x40)\n      dup1\n      dup4\n      sub\n      dup2\n      0x00\n      dup8\n      gas\n      call\n      iszero\n      dup1\n      iszero\n      tag_95\n      jumpi\n      returndatasize\n      0x00\n      dup1\n      returndatacopy\n      revert(0x00, returndatasize)\n    tag_95:\n      pop\n      pop\n      pop\n      pop\n      mload(0x40)\n      returndatasize\n      not(0x1f)\n      0x1f\n      dup3\n      add\n      and\n      dup3\n      add\n      dup1\n      0x40\n      mstore\n      pop\n      dup2\n      add\n      swap1\n      tag_96\n      swap2\n      swap1\n      tag_97\n      jump\t// in\n    tag_96:\n      pop\n        /* \"minerpunk/treasury.sol\":1635:1714  ETHperDCF(dcoff.balanceOf(address(this)),address(this).balance,block.timestamp) */\n      0x3eb1506d8210b5dbd38e30d7f6113495d1c713078c2cd75ec454a8e3a4d871a9\n        /* \"minerpunk/treasury.sol\":1645:1650  dcoff */\n      0x00\n      dup1\n      sload\n      swap1\n      0x0100\n      exp\n      swap1\n      div\n      0xffffffffffffffffffffffffffffffffffffffff\n      and\n        /* \"minerpunk/treasury.sol\":1645:1660  dcoff.balanceOf */\n      0xffffffffffffffffffffffffffffffffffffffff\n      and\n      0x70a08231\n        /* \"minerpunk/treasury.sol\":1669:1673  this */\n      address\n        /* \"minerpunk/treasury.sol\":1645:1675  dcoff.balanceOf(address(this)) */\n      mload(0x40)\n      dup3\n      0xffffffff\n      and\n      0xe0\n      shl\n      dup2\n      mstore\n      0x04\n      add\n      tag_98\n      swap2\n      swap1\n      tag_51\n      jump\t// in\n    tag_98:\n      0x20\n      mload(0x40)\n      dup1\n      dup4\n      sub\n      dup2\n      dup7\n      gas\n      staticcall\n      iszero\n      dup1\n      iszero\n      tag_100\n      jumpi\n      returndatasize\n      0x00\n      dup1\n      returndatacopy\n      revert(0x00, returndatasize)\n    tag_100:\n      pop\n      pop\n      pop\n      pop\n      mload(0x40)\n      returndatasize\n      not(0x1f)\n      0x1f\n      dup3\n      add\n      and\n      dup3\n      add\n      dup1\n      0x40\n      mstore\n      pop\n      dup2\n      add\n      swap1\n      tag_101\n      swap2\n      swap1\n      tag_38\n      jump\t// in\n    tag_101:\n        /* \"minerpunk/treasury.sol\":1676:1697  address(this).balance */\n      selfbalance\n        /* \"minerpunk/treasury.sol\":1698:1713  block.timestamp */\n      timestamp\n        /* \"minerpunk/treasury.sol\":1635:1714  ETHperDCF(dcoff.balanceOf(address(this)),address(this).balance,block.timestamp) */\n      mload(0x40)\n      tag_102\n      swap4\n      swap3\n      swap2\n      swap1\n      tag_56\n      jump\t// in\n    tag_102:\n      mload(0x40)\n      dup1\n      swap2\n      sub\n      swap1\n      log1\n        /* \"minerpunk/treasury.sol\":1328:1720  {   ... */\n      pop\n      pop\n        /* \"minerpunk/treasury.sol\":1261:1720  function purchasePower(address user, uint256 _unit)external payable{   ... */\n      pop\n      pop\n      jump\t// out\n        /* \"@openzeppelin/contracts/utils/math/SafeMath.sol\":3465:3561  function mul(uint256 a, uint256 b) internal pure returns (uint256) {... */\n    tag_41:\n        /* \"@openzeppelin/contracts/utils/math/SafeMath.sol\":3523:3530  uint256 */\n      0x00\n        /* \"@openzeppelin/contracts/utils/math/SafeMath.sol\":3553:3554  b */\n      dup2\n        /* \"@openzeppelin/contracts/utils/math/SafeMath.sol\":3549:3550  a */\n      dup4\n        /* \"@openzeppelin/contracts/utils/math/SafeMath.sol\":3549:3554  a * b */\n      tag_104\n      swap2\n      swap1\n      tag_105\n      jump\t// in\n    tag_104:\n        /* \"@openzeppelin/contracts/utils/math/SafeMath.sol\":3542:3554  return a * b */\n      swap1\n      pop\n        /* \"@openzeppelin/contracts/utils/math/SafeMath.sol\":3465:3561  function mul(uint256 a, uint256 b) internal pure returns (uint256) {... */\n      swap3\n      swap2\n      pop\n      pop\n      jump\t// out\n        /* \"@openzeppelin/contracts/utils/math/SafeMath.sol\":3850:3946  function div(uint256 a, uint256 b) internal pure returns (uint256) {... */\n    tag_42:\n        /* \"@openzeppelin/contracts/utils/math/SafeMath.sol\":3908:3915  uint256 */\n      0x00\n        /* \"@openzeppelin/contracts/utils/math/SafeMath.sol\":3938:3939  b */\n      dup2\n        /* \"@openzeppelin/contracts/utils/math/SafeMath.sol\":3934:3935  a */\n      dup4\n        /* \"@openzeppelin/contracts/utils/math/SafeMath.sol\":3934:3939  a / b */\n      tag_107\n      swap2\n      swap1\n      tag_108\n      jump\t// in\n    tag_107:\n        /* \"@openzeppelin/contracts/utils/math/SafeMath.sol\":3927:3939  return a / b */\n      swap1\n      pop\n        /* \"@openzeppelin/contracts/utils/math/SafeMath.sol\":3850:3946  function div(uint256 a, uint256 b) internal pure returns (uint256) {... */\n      swap3\n      swap2\n      pop\n      pop\n      jump\t// out\n        /* \"#utility.yul\":88:205   */\n    tag_110:\n        /* \"#utility.yul\":197:198   */\n      0x00\n        /* \"#utility.yul\":194:195   */\n      dup1\n        /* \"#utility.yul\":187:199   */\n      revert\n        /* \"#utility.yul\":334:411   */\n    tag_112:\n        /* \"#utility.yul\":371:378   */\n      0x00\n        /* \"#utility.yul\":400:405   */\n      dup2\n        /* \"#utility.yul\":389:405   */\n      swap1\n      pop\n        /* \"#utility.yul\":334:411   */\n      swap2\n      swap1\n      pop\n      jump\t// out\n        /* \"#utility.yul\":417:539   */\n    tag_113:\n        /* \"#utility.yul\":490:514   */\n      tag_140\n        /* \"#utility.yul\":508:513   */\n      dup2\n        /* \"#utility.yul\":490:514   */\n      tag_112\n      jump\t// in\n    tag_140:\n        /* \"#utility.yul\":483:488   */\n      dup2\n        /* \"#utility.yul\":480:515   */\n      eq\n        /* \"#utility.yul\":470:533   */\n      tag_141\n      jumpi\n        /* \"#utility.yul\":529:530   */\n      0x00\n        /* \"#utility.yul\":526:527   */\n      dup1\n        /* \"#utility.yul\":519:531   */\n      revert\n        /* \"#utility.yul\":470:533   */\n    tag_141:\n        /* \"#utility.yul\":417:539   */\n      pop\n      jump\t// out\n        /* \"#utility.yul\":545:684   */\n    tag_114:\n        /* \"#utility.yul\":591:596   */\n      0x00\n        /* \"#utility.yul\":629:635   */\n      dup2\n        /* \"#utility.yul\":616:636   */\n      calldataload\n        /* \"#utility.yul\":607:636   */\n      swap1\n      pop\n        /* \"#utility.yul\":645:678   */\n      tag_143\n        /* \"#utility.yul\":672:677   */\n      dup2\n        /* \"#utility.yul\":645:678   */\n      tag_113\n      jump\t// in\n    tag_143:\n        /* \"#utility.yul\":545:684   */\n      swap3\n      swap2\n      pop\n      pop\n      jump\t// out\n        /* \"#utility.yul\":690:1019   */\n    tag_11:\n        /* \"#utility.yul\":749:755   */\n      0x00\n        /* \"#utility.yul\":798:800   */\n      0x20\n        /* \"#utility.yul\":786:795   */\n      dup3\n        /* \"#utility.yul\":777:784   */\n      dup5\n        /* \"#utility.yul\":773:796   */\n      sub\n        /* \"#utility.yul\":769:801   */\n      slt\n        /* \"#utility.yul\":766:885   */\n      iszero\n      tag_145\n      jumpi\n        /* \"#utility.yul\":804:883   */\n      tag_146\n      tag_110\n      jump\t// in\n    tag_146:\n        /* \"#utility.yul\":766:885   */\n    tag_145:\n        /* \"#utility.yul\":924:925   */\n      0x00\n        /* \"#utility.yul\":949:1002   */\n      tag_147\n        /* \"#utility.yul\":994:1001   */\n      dup5\n        /* \"#utility.yul\":985:991   */\n      dup3\n        /* \"#utility.yul\":974:983   */\n      dup6\n        /* \"#utility.yul\":970:992   */\n      add\n        /* \"#utility.yul\":949:1002   */\n      tag_114\n      jump\t// in\n    tag_147:\n        /* \"#utility.yul\":939:1002   */\n      swap2\n      pop\n        /* \"#utility.yul\":895:1012   */\n      pop\n        /* \"#utility.yul\":690:1019   */\n      swap3\n      swap2\n      pop\n      pop\n      jump\t// out\n        /* \"#utility.yul\":1025:1143   */\n    tag_115:\n        /* \"#utility.yul\":1112:1136   */\n      tag_149\n        /* \"#utility.yul\":1130:1135   */\n      dup2\n        /* \"#utility.yul\":1112:1136   */\n      tag_112\n      jump\t// in\n    tag_149:\n        /* \"#utility.yul\":1107:1110   */\n      dup3\n        /* \"#utility.yul\":1100:1137   */\n      mstore\n        /* \"#utility.yul\":1025:1143   */\n      pop\n      pop\n      jump\t// out\n        /* \"#utility.yul\":1149:1371   */\n    tag_14:\n        /* \"#utility.yul\":1242:1246   */\n      0x00\n        /* \"#utility.yul\":1280:1282   */\n      0x20\n        /* \"#utility.yul\":1269:1278   */\n      dup3\n        /* \"#utility.yul\":1265:1283   */\n      add\n        /* \"#utility.yul\":1257:1283   */\n      swap1\n      pop\n        /* \"#utility.yul\":1293:1364   */\n      tag_151\n        /* \"#utility.yul\":1361:1362   */\n      0x00\n        /* \"#utility.yul\":1350:1359   */\n      dup4\n        /* \"#utility.yul\":1346:1363   */\n      add\n        /* \"#utility.yul\":1337:1343   */\n      dup5\n        /* \"#utility.yul\":1293:1364   */\n      tag_115\n      jump\t// in\n    tag_151:\n        /* \"#utility.yul\":1149:1371   */\n      swap3\n      swap2\n      pop\n      pop\n      jump\t// out\n        /* \"#utility.yul\":1377:1503   */\n    tag_116:\n        /* \"#utility.yul\":1414:1421   */\n      0x00\n        /* \"#utility.yul\":1454:1496   */\n      0xffffffffffffffffffffffffffffffffffffffff\n        /* \"#utility.yul\":1447:1452   */\n      dup3\n        /* \"#utility.yul\":1443:1497   */\n      and\n        /* \"#utility.yul\":1432:1497   */\n      swap1\n      pop\n        /* \"#utility.yul\":1377:1503   */\n      swap2\n      swap1\n      pop\n      jump\t// out\n        /* \"#utility.yul\":1509:1605   */\n    tag_117:\n        /* \"#utility.yul\":1546:1553   */\n      0x00\n        /* \"#utility.yul\":1575:1599   */\n      tag_154\n        /* \"#utility.yul\":1593:1598   */\n      dup3\n        /* \"#utility.yul\":1575:1599   */\n      tag_116\n      jump\t// in\n    tag_154:\n        /* \"#utility.yul\":1564:1599   */\n      swap1\n      pop\n        /* \"#utility.yul\":1509:1605   */\n      swap2\n      swap1\n      pop\n      jump\t// out\n        /* \"#utility.yul\":1611:1733   */\n    tag_118:\n        /* \"#utility.yul\":1684:1708   */\n      tag_156\n        /* \"#utility.yul\":1702:1707   */\n      dup2\n        /* \"#utility.yul\":1684:1708   */\n      tag_117\n      jump\t// in\n    tag_156:\n        /* \"#utility.yul\":1677:1682   */\n      dup2\n        /* \"#utility.yul\":1674:1709   */\n      eq\n        /* \"#utility.yul\":1664:1727   */\n      tag_157\n      jumpi\n        /* \"#utility.yul\":1723:1724   */\n      0x00\n        /* \"#utility.yul\":1720:1721   */\n      dup1\n        /* \"#utility.yul\":1713:1725   */\n      revert\n        /* \"#utility.yul\":1664:1727   */\n    tag_157:\n        /* \"#utility.yul\":1611:1733   */\n      pop\n      jump\t// out\n        /* \"#utility.yul\":1739:1878   */\n    tag_119:\n        /* \"#utility.yul\":1785:1790   */\n      0x00\n        /* \"#utility.yul\":1823:1829   */\n      dup2\n        /* \"#utility.yul\":1810:1830   */\n      calldataload\n        /* \"#utility.yul\":1801:1830   */\n      swap1\n      pop\n        /* \"#utility.yul\":1839:1872   */\n      tag_159\n        /* \"#utility.yul\":1866:1871   */\n      dup2\n        /* \"#utility.yul\":1839:1872   */\n      tag_118\n      jump\t// in\n    tag_159:\n        /* \"#utility.yul\":1739:1878   */\n      swap3\n      swap2\n      pop\n      pop\n      jump\t// out\n        /* \"#utility.yul\":1884:1974   */\n    tag_120:\n        /* \"#utility.yul\":1918:1925   */\n      0x00\n        /* \"#utility.yul\":1961:1966   */\n      dup2\n        /* \"#utility.yul\":1954:1967   */\n      iszero\n        /* \"#utility.yul\":1947:1968   */\n      iszero\n        /* \"#utility.yul\":1936:1968   */\n      swap1\n      pop\n        /* \"#utility.yul\":1884:1974   */\n      swap2\n      swap1\n      pop\n      jump\t// out\n        /* \"#utility.yul\":1980:2096   */\n    tag_121:\n        /* \"#utility.yul\":2050:2071   */\n      tag_162\n        /* \"#utility.yul\":2065:2070   */\n      dup2\n        /* \"#utility.yul\":2050:2071   */\n      tag_120\n      jump\t// in\n    tag_162:\n        /* \"#utility.yul\":2043:2048   */\n      dup2\n        /* \"#utility.yul\":2040:2072   */\n      eq\n        /* \"#utility.yul\":2030:2090   */\n      tag_163\n      jumpi\n        /* \"#utility.yul\":2086:2087   */\n      0x00\n        /* \"#utility.yul\":2083:2084   */\n      dup1\n        /* \"#utility.yul\":2076:2088   */\n      revert\n        /* \"#utility.yul\":2030:2090   */\n    tag_163:\n        /* \"#utility.yul\":1980:2096   */\n      pop\n      jump\t// out\n        /* \"#utility.yul\":2102:2235   */\n    tag_122:\n        /* \"#utility.yul\":2145:2150   */\n      0x00\n        /* \"#utility.yul\":2183:2189   */\n      dup2\n        /* \"#utility.yul\":2170:2190   */\n      calldataload\n        /* \"#utility.yul\":2161:2190   */\n      swap1\n      pop\n        /* \"#utility.yul\":2199:2229   */\n      tag_165\n        /* \"#utility.yul\":2223:2228   */\n      dup2\n        /* \"#utility.yul\":2199:2229   */\n      tag_121\n      jump\t// in\n    tag_165:\n        /* \"#utility.yul\":2102:2235   */\n      swap3\n      swap2\n      pop\n      pop\n      jump\t// out\n        /* \"#utility.yul\":2241:2709   */\n    tag_18:\n        /* \"#utility.yul\":2306:2312   */\n      0x00\n        /* \"#utility.yul\":2314:2320   */\n      dup1\n        /* \"#utility.yul\":2363:2365   */\n      0x40\n        /* \"#utility.yul\":2351:2360   */\n      dup4\n        /* \"#utility.yul\":2342:2349   */\n      dup6\n        /* \"#utility.yul\":2338:2361   */\n      sub\n        /* \"#utility.yul\":2334:2366   */\n      slt\n        /* \"#utility.yul\":2331:2450   */\n      iszero\n      tag_167\n      jumpi\n        /* \"#utility.yul\":2369:2448   */\n      tag_168\n      tag_110\n      jump\t// in\n    tag_168:\n        /* \"#utility.yul\":2331:2450   */\n    tag_167:\n        /* \"#utility.yul\":2489:2490   */\n      0x00\n        /* \"#utility.yul\":2514:2567   */\n      tag_169\n        /* \"#utility.yul\":2559:2566   */\n      dup6\n        /* \"#utility.yul\":2550:2556   */\n      dup3\n        /* \"#utility.yul\":2539:2548   */\n      dup7\n        /* \"#utility.yul\":2535:2557   */\n      add\n        /* \"#utility.yul\":2514:2567   */\n      tag_119\n      jump\t// in\n    tag_169:\n        /* \"#utility.yul\":2504:2567   */\n      swap3\n      pop\n        /* \"#utility.yul\":2460:2577   */\n      pop\n        /* \"#utility.yul\":2616:2618   */\n      0x20\n        /* \"#utility.yul\":2642:2692   */\n      tag_170\n        /* \"#utility.yul\":2684:2691   */\n      dup6\n        /* \"#utility.yul\":2675:2681   */\n      dup3\n        /* \"#utility.yul\":2664:2673   */\n      dup7\n        /* \"#utility.yul\":2660:2682   */\n      add\n        /* \"#utility.yul\":2642:2692   */\n      tag_122\n      jump\t// in\n    tag_170:\n        /* \"#utility.yul\":2632:2692   */\n      swap2\n      pop\n        /* \"#utility.yul\":2587:2702   */\n      pop\n        /* \"#utility.yul\":2241:2709   */\n      swap3\n      pop\n      swap3\n      swap1\n      pop\n      jump\t// out\n        /* \"#utility.yul\":2715:2819   */\n    tag_123:\n        /* \"#utility.yul\":2760:2767   */\n      0x00\n        /* \"#utility.yul\":2789:2813   */\n      tag_172\n        /* \"#utility.yul\":2807:2812   */\n      dup3\n        /* \"#utility.yul\":2789:2813   */\n      tag_116\n      jump\t// in\n    tag_172:\n        /* \"#utility.yul\":2778:2813   */\n      swap1\n      pop\n        /* \"#utility.yul\":2715:2819   */\n      swap2\n      swap1\n      pop\n      jump\t// out\n        /* \"#utility.yul\":2825:2963   */\n    tag_124:\n        /* \"#utility.yul\":2906:2938   */\n      tag_174\n        /* \"#utility.yul\":2932:2937   */\n      dup2\n        /* \"#utility.yul\":2906:2938   */\n      tag_123\n      jump\t// in\n    tag_174:\n        /* \"#utility.yul\":2899:2904   */\n      dup2\n        /* \"#utility.yul\":2896:2939   */\n      eq\n        /* \"#utility.yul\":2886:2957   */\n      tag_175\n      jumpi\n        /* \"#utility.yul\":2953:2954   */\n      0x00\n        /* \"#utility.yul\":2950:2951   */\n      dup1\n        /* \"#utility.yul\":2943:2955   */\n      revert\n        /* \"#utility.yul\":2886:2957   */\n    tag_175:\n        /* \"#utility.yul\":2825:2963   */\n      pop\n      jump\t// out\n        /* \"#utility.yul\":2969:3124   */\n    tag_125:\n        /* \"#utility.yul\":3023:3028   */\n      0x00\n        /* \"#utility.yul\":3061:3067   */\n      dup2\n        /* \"#utility.yul\":3048:3068   */\n      calldataload\n        /* \"#utility.yul\":3039:3068   */\n      swap1\n      pop\n        /* \"#utility.yul\":3077:3118   */\n      tag_177\n        /* \"#utility.yul\":3112:3117   */\n      dup2\n        /* \"#utility.yul\":3077:3118   */\n      tag_124\n      jump\t// in\n    tag_177:\n        /* \"#utility.yul\":2969:3124   */\n      swap3\n      swap2\n      pop\n      pop\n      jump\t// out\n        /* \"#utility.yul\":3130:3765   */\n    tag_25:\n        /* \"#utility.yul\":3215:3221   */\n      0x00\n        /* \"#utility.yul\":3223:3229   */\n      dup1\n        /* \"#utility.yul\":3231:3237   */\n      0x00\n        /* \"#utility.yul\":3280:3282   */\n      0x60\n        /* \"#utility.yul\":3268:3277   */\n      dup5\n        /* \"#utility.yul\":3259:3266   */\n      dup7\n        /* \"#utility.yul\":3255:3278   */\n      sub\n        /* \"#utility.yul\":3251:3283   */\n      slt\n        /* \"#utility.yul\":3248:3367   */\n      iszero\n      tag_179\n      jumpi\n        /* \"#utility.yul\":3286:3365   */\n      tag_180\n      tag_110\n      jump\t// in\n    tag_180:\n        /* \"#utility.yul\":3248:3367   */\n    tag_179:\n        /* \"#utility.yul\":3406:3407   */\n      0x00\n        /* \"#utility.yul\":3431:3484   */\n      tag_181\n        /* \"#utility.yul\":3476:3483   */\n      dup7\n        /* \"#utility.yul\":3467:3473   */\n      dup3\n        /* \"#utility.yul\":3456:3465   */\n      dup8\n        /* \"#utility.yul\":3452:3474   */\n      add\n        /* \"#utility.yul\":3431:3484   */\n      tag_119\n      jump\t// in\n    tag_181:\n        /* \"#utility.yul\":3421:3484   */\n      swap4\n      pop\n        /* \"#utility.yul\":3377:3494   */\n      pop\n        /* \"#utility.yul\":3533:3535   */\n      0x20\n        /* \"#utility.yul\":3559:3620   */\n      tag_182\n        /* \"#utility.yul\":3612:3619   */\n      dup7\n        /* \"#utility.yul\":3603:3609   */\n      dup3\n        /* \"#utility.yul\":3592:3601   */\n      dup8\n        /* \"#utility.yul\":3588:3610   */\n      add\n        /* \"#utility.yul\":3559:3620   */\n      tag_125\n      jump\t// in\n    tag_182:\n        /* \"#utility.yul\":3549:3620   */\n      swap3\n      pop\n        /* \"#utility.yul\":3504:3630   */\n      pop\n        /* \"#utility.yul\":3669:3671   */\n      0x40\n        /* \"#utility.yul\":3695:3748   */\n      tag_183\n        /* \"#utility.yul\":3740:3747   */\n      dup7\n        /* \"#utility.yul\":3731:3737   */\n      dup3\n        /* \"#utility.yul\":3720:3729   */\n      dup8\n        /* \"#utility.yul\":3716:3738   */\n      add\n        /* \"#utility.yul\":3695:3748   */\n      tag_114\n      jump\t// in\n    tag_183:\n        /* \"#utility.yul\":3685:3748   */\n      swap2\n      pop\n        /* \"#utility.yul\":3640:3758   */\n      pop\n        /* \"#utility.yul\":3130:3765   */\n      swap3\n      pop\n      swap3\n      pop\n      swap3\n      jump\t// out\n        /* \"#utility.yul\":3771:4245   */\n    tag_32:\n        /* \"#utility.yul\":3839:3845   */\n      0x00\n        /* \"#utility.yul\":3847:3853   */\n      dup1\n        /* \"#utility.yul\":3896:3898   */\n      0x40\n        /* \"#utility.yul\":3884:3893   */\n      dup4\n        /* \"#utility.yul\":3875:3882   */\n      dup6\n        /* \"#utility.yul\":3871:3894   */\n      sub\n        /* \"#utility.yul\":3867:3899   */\n      slt\n        /* \"#utility.yul\":3864:3983   */\n      iszero\n      tag_185\n      jumpi\n        /* \"#utility.yul\":3902:3981   */\n      tag_186\n      tag_110\n      jump\t// in\n    tag_186:\n        /* \"#utility.yul\":3864:3983   */\n    tag_185:\n        /* \"#utility.yul\":4022:4023   */\n      0x00\n        /* \"#utility.yul\":4047:4100   */\n      tag_187\n        /* \"#utility.yul\":4092:4099   */\n      dup6\n        /* \"#utility.yul\":4083:4089   */\n      dup3\n        /* \"#utility.yul\":4072:4081   */\n      dup7\n        /* \"#utility.yul\":4068:4090   */\n      add\n        /* \"#utility.yul\":4047:4100   */\n      tag_119\n      jump\t// in\n    tag_187:\n        /* \"#utility.yul\":4037:4100   */\n      swap3\n      pop\n        /* \"#utility.yul\":3993:4110   */\n      pop\n        /* \"#utility.yul\":4149:4151   */\n      0x20\n        /* \"#utility.yul\":4175:4228   */\n      tag_188\n        /* \"#utility.yul\":4220:4227   */\n      dup6\n        /* \"#utility.yul\":4211:4217   */\n      dup3\n        /* \"#utility.yul\":4200:4209   */\n      dup7\n        /* \"#utility.yul\":4196:4218   */\n      add\n        /* \"#utility.yul\":4175:4228   */\n      tag_114\n      jump\t// in\n    tag_188:\n        /* \"#utility.yul\":4165:4228   */\n      swap2\n      pop\n        /* \"#utility.yul\":4120:4238   */\n      pop\n        /* \"#utility.yul\":3771:4245   */\n      swap3\n      pop\n      swap3\n      swap1\n      pop\n      jump\t// out\n        /* \"#utility.yul\":4251:4394   */\n    tag_126:\n        /* \"#utility.yul\":4308:4313   */\n      0x00\n        /* \"#utility.yul\":4339:4345   */\n      dup2\n        /* \"#utility.yul\":4333:4346   */\n      mload\n        /* \"#utility.yul\":4324:4346   */\n      swap1\n      pop\n        /* \"#utility.yul\":4355:4388   */\n      tag_190\n        /* \"#utility.yul\":4382:4387   */\n      dup2\n        /* \"#utility.yul\":4355:4388   */\n      tag_113\n      jump\t// in\n    tag_190:\n        /* \"#utility.yul\":4251:4394   */\n      swap3\n      swap2\n      pop\n      pop\n      jump\t// out\n        /* \"#utility.yul\":4400:4751   */\n    tag_38:\n        /* \"#utility.yul\":4470:4476   */\n      0x00\n        /* \"#utility.yul\":4519:4521   */\n      0x20\n        /* \"#utility.yul\":4507:4516   */\n      dup3\n        /* \"#utility.yul\":4498:4505   */\n      dup5\n        /* \"#utility.yul\":4494:4517   */\n      sub\n        /* \"#utility.yul\":4490:4522   */\n      slt\n        /* \"#utility.yul\":4487:4606   */\n      iszero\n      tag_192\n      jumpi\n        /* \"#utility.yul\":4525:4604   */\n      tag_193\n      tag_110\n      jump\t// in\n    tag_193:\n        /* \"#utility.yul\":4487:4606   */\n    tag_192:\n        /* \"#utility.yul\":4645:4646   */\n      0x00\n        /* \"#utility.yul\":4670:4734   */\n      tag_194\n        /* \"#utility.yul\":4726:4733   */\n      dup5\n        /* \"#utility.yul\":4717:4723   */\n      dup3\n        /* \"#utility.yul\":4706:4715   */\n      dup6\n        /* \"#utility.yul\":4702:4724   */\n      add\n        /* \"#utility.yul\":4670:4734   */\n      tag_126\n      jump\t// in\n    tag_194:\n        /* \"#utility.yul\":4660:4734   */\n      swap2\n      pop\n        /* \"#utility.yul\":4616:4744   */\n      pop\n        /* \"#utility.yul\":4400:4751   */\n      swap3\n      swap2\n      pop\n      pop\n      jump\t// out\n        /* \"#utility.yul\":4757:4926   */\n    tag_127:\n        /* \"#utility.yul\":4841:4852   */\n      0x00\n        /* \"#utility.yul\":4875:4881   */\n      dup3\n        /* \"#utility.yul\":4870:4873   */\n      dup3\n        /* \"#utility.yul\":4863:4882   */\n      mstore\n        /* \"#utility.yul\":4915:4919   */\n      0x20\n        /* \"#utility.yul\":4910:4913   */\n      dup3\n        /* \"#utility.yul\":4906:4920   */\n      add\n        /* \"#utility.yul\":4891:4920   */\n      swap1\n      pop\n        /* \"#utility.yul\":4757:4926   */\n      swap3\n      swap2\n      pop\n      pop\n      jump\t// out\n        /* \"#utility.yul\":4932:5114   */\n    tag_128:\n        /* \"#utility.yul\":5072:5106   */\n      0x4f776e61626c653a2063616c6c6572206973206e6f7420746865206f776e6572\n        /* \"#utility.yul\":5068:5069   */\n      0x00\n        /* \"#utility.yul\":5060:5066   */\n      dup3\n        /* \"#utility.yul\":5056:5070   */\n      add\n        /* \"#utility.yul\":5049:5107   */\n      mstore\n        /* \"#utility.yul\":4932:5114   */\n      pop\n      jump\t// out\n        /* \"#utility.yul\":5120:5486   */\n    tag_129:\n        /* \"#utility.yul\":5262:5265   */\n      0x00\n        /* \"#utility.yul\":5283:5350   */\n      tag_198\n        /* \"#utility.yul\":5347:5349   */\n      0x20\n        /* \"#utility.yul\":5342:5345   */\n      dup4\n        /* \"#utility.yul\":5283:5350   */\n      tag_127\n      jump\t// in\n    tag_198:\n        /* \"#utility.yul\":5276:5350   */\n      swap2\n      pop\n        /* \"#utility.yul\":5359:5452   */\n      tag_199\n        /* \"#utility.yul\":5448:5451   */\n      dup3\n        /* \"#utility.yul\":5359:5452   */\n      tag_128\n      jump\t// in\n    tag_199:\n        /* \"#utility.yul\":5477:5479   */\n      0x20\n        /* \"#utility.yul\":5472:5475   */\n      dup3\n        /* \"#utility.yul\":5468:5480   */\n      add\n        /* \"#utility.yul\":5461:5480   */\n      swap1\n      pop\n        /* \"#utility.yul\":5120:5486   */\n      swap2\n      swap1\n      pop\n      jump\t// out\n        /* \"#utility.yul\":5492:5911   */\n    tag_46:\n        /* \"#utility.yul\":5658:5662   */\n      0x00\n        /* \"#utility.yul\":5696:5698   */\n      0x20\n        /* \"#utility.yul\":5685:5694   */\n      dup3\n        /* \"#utility.yul\":5681:5699   */\n      add\n        /* \"#utility.yul\":5673:5699   */\n      swap1\n      pop\n        /* \"#utility.yul\":5745:5754   */\n      dup2\n        /* \"#utility.yul\":5739:5743   */\n      dup2\n        /* \"#utility.yul\":5735:5755   */\n      sub\n        /* \"#utility.yul\":5731:5732   */\n      0x00\n        /* \"#utility.yul\":5720:5729   */\n      dup4\n        /* \"#utility.yul\":5716:5733   */\n      add\n        /* \"#utility.yul\":5709:5756   */\n      mstore\n        /* \"#utility.yul\":5773:5904   */\n      tag_201\n        /* \"#utility.yul\":5899:5903   */\n      dup2\n        /* \"#utility.yul\":5773:5904   */\n      tag_129\n      jump\t// in\n    tag_201:\n        /* \"#utility.yul\":5765:5904   */\n      swap1\n      pop\n        /* \"#utility.yul\":5492:5911   */\n      swap2\n      swap1\n      pop\n      jump\t// out\n        /* \"#utility.yul\":5917:6035   */\n    tag_130:\n        /* \"#utility.yul\":6004:6028   */\n      tag_203\n        /* \"#utility.yul\":6022:6027   */\n      dup2\n        /* \"#utility.yul\":6004:6028   */\n      tag_117\n      jump\t// in\n    tag_203:\n        /* \"#utility.yul\":5999:6002   */\n      dup3\n        /* \"#utility.yul\":5992:6029   */\n      mstore\n        /* \"#utility.yul\":5917:6035   */\n      pop\n      pop\n      jump\t// out\n        /* \"#utility.yul\":6041:6263   */\n    tag_51:\n        /* \"#utility.yul\":6134:6138   */\n      0x00\n        /* \"#utility.yul\":6172:6174   */\n      0x20\n        /* \"#utility.yul\":6161:6170   */\n      dup3\n        /* \"#utility.yul\":6157:6175   */\n      add\n        /* \"#utility.yul\":6149:6175   */\n      swap1\n      pop\n        /* \"#utility.yul\":6185:6256   */\n      tag_205\n        /* \"#utility.yul\":6253:6254   */\n      0x00\n        /* \"#utility.yul\":6242:6251   */\n      dup4\n        /* \"#utility.yul\":6238:6255   */\n      add\n        /* \"#utility.yul\":6229:6235   */\n      dup5\n        /* \"#utility.yul\":6185:6256   */\n      tag_130\n      jump\t// in\n    tag_205:\n        /* \"#utility.yul\":6041:6263   */\n      swap3\n      swap2\n      pop\n      pop\n      jump\t// out\n        /* \"#utility.yul\":6269:6711   */\n    tag_56:\n        /* \"#utility.yul\":6418:6422   */\n      0x00\n        /* \"#utility.yul\":6456:6458   */\n      0x60\n        /* \"#utility.yul\":6445:6454   */\n      dup3\n        /* \"#utility.yul\":6441:6459   */\n      add\n        /* \"#utility.yul\":6433:6459   */\n      swap1\n      pop\n        /* \"#utility.yul\":6469:6540   */\n      tag_207\n        /* \"#utility.yul\":6537:6538   */\n      0x00\n        /* \"#utility.yul\":6526:6535   */\n      dup4\n        /* \"#utility.yul\":6522:6539   */\n      add\n        /* \"#utility.yul\":6513:6519   */\n      dup7\n        /* \"#utility.yul\":6469:6540   */\n      tag_115\n      jump\t// in\n    tag_207:\n        /* \"#utility.yul\":6550:6622   */\n      tag_208\n        /* \"#utility.yul\":6618:6620   */\n      0x20\n        /* \"#utility.yul\":6607:6616   */\n      dup4\n        /* \"#utility.yul\":6603:6621   */\n      add\n        /* \"#utility.yul\":6594:6600   */\n      dup6\n        /* \"#utility.yul\":6550:6622   */\n      tag_115\n      jump\t// in\n    tag_208:\n        /* \"#utility.yul\":6632:6704   */\n      tag_209\n        /* \"#utility.yul\":6700:6702   */\n      0x40\n        /* \"#utility.yul\":6689:6698   */\n      dup4\n        /* \"#utility.yul\":6685:6703   */\n      add\n        /* \"#utility.yul\":6676:6682   */\n      dup5\n        /* \"#utility.yul\":6632:6704   */\n      tag_115\n      jump\t// in\n    tag_209:\n        /* \"#utility.yul\":6269:6711   */\n      swap5\n      swap4\n      pop\n      pop\n      pop\n      pop\n      jump\t// out\n        /* \"#utility.yul\":6717:7049   */\n    tag_68:\n        /* \"#utility.yul\":6838:6842   */\n      0x00\n        /* \"#utility.yul\":6876:6878   */\n      0x40\n        /* \"#utility.yul\":6865:6874   */\n      dup3\n        /* \"#utility.yul\":6861:6879   */\n      add\n        /* \"#utility.yul\":6853:6879   */\n      swap1\n      pop\n        /* \"#utility.yul\":6889:6960   */\n      tag_211\n        /* \"#utility.yul\":6957:6958   */\n      0x00\n        /* \"#utility.yul\":6946:6955   */\n      dup4\n        /* \"#utility.yul\":6942:6959   */\n      add\n        /* \"#utility.yul\":6933:6939   */\n      dup6\n        /* \"#utility.yul\":6889:6960   */\n      tag_130\n      jump\t// in\n    tag_211:\n        /* \"#utility.yul\":6970:7042   */\n      tag_212\n        /* \"#utility.yul\":7038:7040   */\n      0x20\n        /* \"#utility.yul\":7027:7036   */\n      dup4\n        /* \"#utility.yul\":7023:7041   */\n      add\n        /* \"#utility.yul\":7014:7020   */\n      dup5\n        /* \"#utility.yul\":6970:7042   */\n      tag_115\n      jump\t// in\n    tag_212:\n        /* \"#utility.yul\":6717:7049   */\n      swap4\n      swap3\n      pop\n      pop\n      pop\n      jump\t// out\n        /* \"#utility.yul\":7055:7192   */\n    tag_131:\n        /* \"#utility.yul\":7109:7114   */\n      0x00\n        /* \"#utility.yul\":7140:7146   */\n      dup2\n        /* \"#utility.yul\":7134:7147   */\n      mload\n        /* \"#utility.yul\":7125:7147   */\n      swap1\n      pop\n        /* \"#utility.yul\":7156:7186   */\n      tag_214\n        /* \"#utility.yul\":7180:7185   */\n      dup2\n        /* \"#utility.yul\":7156:7186   */\n      tag_121\n      jump\t// in\n    tag_214:\n        /* \"#utility.yul\":7055:7192   */\n      swap3\n      swap2\n      pop\n      pop\n      jump\t// out\n        /* \"#utility.yul\":7198:7543   */\n    tag_97:\n        /* \"#utility.yul\":7265:7271   */\n      0x00\n        /* \"#utility.yul\":7314:7316   */\n      0x20\n        /* \"#utility.yul\":7302:7311   */\n      dup3\n        /* \"#utility.yul\":7293:7300   */\n      dup5\n        /* \"#utility.yul\":7289:7312   */\n      sub\n        /* \"#utility.yul\":7285:7317   */\n      slt\n        /* \"#utility.yul\":7282:7401   */\n      iszero\n      tag_216\n      jumpi\n        /* \"#utility.yul\":7320:7399   */\n      tag_217\n      tag_110\n      jump\t// in\n    tag_217:\n        /* \"#utility.yul\":7282:7401   */\n    tag_216:\n        /* \"#utility.yul\":7440:7441   */\n      0x00\n        /* \"#utility.yul\":7465:7526   */\n      tag_218\n        /* \"#utility.yul\":7518:7525   */\n      dup5\n        /* \"#utility.yul\":7509:7515   */\n      dup3\n        /* \"#utility.yul\":7498:7507   */\n      dup6\n        /* \"#utility.yul\":7494:7516   */\n      add\n        /* \"#utility.yul\":7465:7526   */\n      tag_131\n      jump\t// in\n    tag_218:\n        /* \"#utility.yul\":7455:7526   */\n      swap2\n      pop\n        /* \"#utility.yul\":7411:7536   */\n      pop\n        /* \"#utility.yul\":7198:7543   */\n      swap3\n      swap2\n      pop\n      pop\n      jump\t// out\n        /* \"#utility.yul\":7549:7729   */\n    tag_132:\n        /* \"#utility.yul\":7597:7674   */\n      0x4e487b7100000000000000000000000000000000000000000000000000000000\n        /* \"#utility.yul\":7594:7595   */\n      0x00\n        /* \"#utility.yul\":7587:7675   */\n      mstore\n        /* \"#utility.yul\":7694:7698   */\n      0x11\n        /* \"#utility.yul\":7691:7692   */\n      0x04\n        /* \"#utility.yul\":7684:7699   */\n      mstore\n        /* \"#utility.yul\":7718:7722   */\n      0x24\n        /* \"#utility.yul\":7715:7716   */\n      0x00\n        /* \"#utility.yul\":7708:7723   */\n      revert\n        /* \"#utility.yul\":7735:8145   */\n    tag_105:\n        /* \"#utility.yul\":7775:7782   */\n      0x00\n        /* \"#utility.yul\":7798:7818   */\n      tag_221\n        /* \"#utility.yul\":7816:7817   */\n      dup3\n        /* \"#utility.yul\":7798:7818   */\n      tag_112\n      jump\t// in\n    tag_221:\n        /* \"#utility.yul\":7793:7818   */\n      swap2\n      pop\n        /* \"#utility.yul\":7832:7852   */\n      tag_222\n        /* \"#utility.yul\":7850:7851   */\n      dup4\n        /* \"#utility.yul\":7832:7852   */\n      tag_112\n      jump\t// in\n    tag_222:\n        /* \"#utility.yul\":7827:7852   */\n      swap3\n      pop\n        /* \"#utility.yul\":7887:7888   */\n      dup3\n        /* \"#utility.yul\":7884:7885   */\n      dup3\n        /* \"#utility.yul\":7880:7889   */\n      mul\n        /* \"#utility.yul\":7909:7939   */\n      tag_223\n        /* \"#utility.yul\":7927:7938   */\n      dup2\n        /* \"#utility.yul\":7909:7939   */\n      tag_112\n      jump\t// in\n    tag_223:\n        /* \"#utility.yul\":7898:7939   */\n      swap2\n      pop\n        /* \"#utility.yul\":8088:8089   */\n      dup3\n        /* \"#utility.yul\":8079:8086   */\n      dup3\n        /* \"#utility.yul\":8075:8090   */\n      div\n        /* \"#utility.yul\":8072:8073   */\n      dup5\n        /* \"#utility.yul\":8069:8091   */\n      eq\n        /* \"#utility.yul\":8049:8050   */\n      dup4\n        /* \"#utility.yul\":8042:8051   */\n      iszero\n        /* \"#utility.yul\":8022:8105   */\n      or\n        /* \"#utility.yul\":7999:8138   */\n      tag_224\n      jumpi\n        /* \"#utility.yul\":8118:8136   */\n      tag_225\n      tag_132\n      jump\t// in\n    tag_225:\n        /* \"#utility.yul\":7999:8138   */\n    tag_224:\n        /* \"#utility.yul\":7783:8145   */\n      pop\n        /* \"#utility.yul\":7735:8145   */\n      swap3\n      swap2\n      pop\n      pop\n      jump\t// out\n        /* \"#utility.yul\":8151:8331   */\n    tag_133:\n        /* \"#utility.yul\":8199:8276   */\n      0x4e487b7100000000000000000000000000000000000000000000000000000000\n        /* \"#utility.yul\":8196:8197   */\n      0x00\n        /* \"#utility.yul\":8189:8277   */\n      mstore\n        /* \"#utility.yul\":8296:8300   */\n      0x12\n        /* \"#utility.yul\":8293:8294   */\n      0x04\n        /* \"#utility.yul\":8286:8301   */\n      mstore\n        /* \"#utility.yul\":8320:8324   */\n      0x24\n        /* \"#utility.yul\":8317:8318   */\n      0x00\n        /* \"#utility.yul\":8310:8325   */\n      revert\n        /* \"#utility.yul\":8337:8522   */\n    tag_108:\n        /* \"#utility.yul\":8377:8378   */\n      0x00\n        /* \"#utility.yul\":8394:8414   */\n      tag_228\n        /* \"#utility.yul\":8412:8413   */\n      dup3\n        /* \"#utility.yul\":8394:8414   */\n      tag_112\n      jump\t// in\n    tag_228:\n        /* \"#utility.yul\":8389:8414   */\n      swap2\n      pop\n        /* \"#utility.yul\":8428:8448   */\n      tag_229\n        /* \"#utility.yul\":8446:8447   */\n      dup4\n        /* \"#utility.yul\":8428:8448   */\n      tag_112\n      jump\t// in\n    tag_229:\n        /* \"#utility.yul\":8423:8448   */\n      swap3\n      pop\n        /* \"#utility.yul\":8467:8468   */\n      dup3\n        /* \"#utility.yul\":8457:8492   */\n      tag_230\n      jumpi\n        /* \"#utility.yul\":8472:8490   */\n      tag_231\n      tag_133\n      jump\t// in\n    tag_231:\n        /* \"#utility.yul\":8457:8492   */\n    tag_230:\n        /* \"#utility.yul\":8514:8515   */\n      dup3\n        /* \"#utility.yul\":8511:8512   */\n      dup3\n        /* \"#utility.yul\":8507:8516   */\n      div\n        /* \"#utility.yul\":8502:8516   */\n      swap1\n      pop\n        /* \"#utility.yul\":8337:8522   */\n      swap3\n      swap2\n      pop\n      pop\n      jump\t// out\n\n    auxdata: 0xa26469706673582212200287a47d95e5f2f3e39ee0b2a3032b045ec455469ad8972fc7096f93f7b12fe264736f6c63430008110033\n}\n",
				"bytecode": {
					"linkReferences": {},
					"object": "608060405273a9fae5ea311d3cfb2bcc9caefc5003b30b60b6c36000806101000a81548173ffffffffffffffffffffffffffffffffffffffff021916908373ffffffffffffffffffffffffffffffffffffffff16021790555073a9fae5ea311d3cfb2bcc9caefc5003b30b60b6c3600160006101000a81548173ffffffffffffffffffffffffffffffffffffffff021916908373ffffffffffffffffffffffffffffffffffffffff16021790555073e3410af1b80f925ac42b78ea54a48de13dfa6ebe600260006101000a81548173ffffffffffffffffffffffffffffffffffffffff021916908373ffffffffffffffffffffffffffffffffffffffff16021790555034801561010e57600080fd5b5033600360006101000a81548173ffffffffffffffffffffffffffffffffffffffff021916908373ffffffffffffffffffffffffffffffffffffffff1602179055506611c37937e08000600481905550610f898061016d6000396000f3fe6080604052600436106100555760003560e01c806397dedb1d1461005a578063c3c6467414610097578063d0e30db0146100c0578063d9e9402f146100ca578063dac3fad4146100f3578063daeae8511461010a575b600080fd5b34801561006657600080fd5b50610081600480360381019061007c9190610af9565b610126565b60405161008e9190610b35565b60405180910390f35b3480156100a357600080fd5b506100be60048036038101906100b99190610be6565b6101f4565b005b6100c86102df565b005b3480156100d657600080fd5b506100f160048036038101906100ec9190610c64565b610412565b005b3480156100ff57600080fd5b506101086106d2565b005b610124600480360381019061011f9190610cb7565b6107cd565b005b60008047905060008060009054906101000a900473ffffffffffffffffffffffffffffffffffffffff1673ffffffffffffffffffffffffffffffffffffffff166318160ddd6040518163ffffffff1660e01b8152600401602060405180830381865afa15801561019a573d6000803e3d6000fd5b505050506040513d601f19601f820116820180604052508101906101be9190610d0c565b905060006101e7826101d98588610a9290919063ffffffff16565b610aa890919063ffffffff16565b9050809350505050919050565b3373ffffffffffffffffffffffffffffffffffffffff16600360009054906101000a900473ffffffffffffffffffffffffffffffffffffffff1673ffffffffffffffffffffffffffffffffffffffff1614610284576040517f08c379a000000000000000000000000000000000000000000000000000000000815260040161027b90610d96565b60405180910390fd5b80600560008473ffffffffffffffffffffffffffffffffffffffff1673ffffffffffffffffffffffffffffffffffffffff16815260200190815260200160002060006101000a81548160ff0219169083151502179055505050565b60011515600560003373ffffffffffffffffffffffffffffffffffffffff1673ffffffffffffffffffffffffffffffffffffffff16815260200190815260200160002060009054906101000a900460ff1615151461033c57600080fd5b7f3eb1506d8210b5dbd38e30d7f6113495d1c713078c2cd75ec454a8e3a4d871a960008054906101000a900473ffffffffffffffffffffffffffffffffffffffff1673ffffffffffffffffffffffffffffffffffffffff166370a08231306040518263ffffffff1660e01b81526004016103b69190610dc5565b602060405180830381865afa1580156103d3573d6000803e3d6000fd5b505050506040513d601f19601f820116820180604052508101906103f79190610d0c565b474260405161040893929190610de0565b60405180910390a1565b60011515600560003373ffffffffffffffffffffffffffffffffffffffff1673ffffffffffffffffffffffffffffffffffffffff16815260200190815260200160002060009054906101000a900460ff1615151461046f57600080fd5b8060008054906101000a900473ffffffffffffffffffffffffffffffffffffffff1673ffffffffffffffffffffffffffffffffffffffff166370a08231856040518263ffffffff1660e01b81526004016104c99190610dc5565b602060405180830381865afa1580156104e6573d6000803e3d6000fd5b505050506040513d601f19601f8201168201806040525081019061050a9190610d0c565b101561051557600080fd5b600061052082610126565b90508273ffffffffffffffffffffffffffffffffffffffff166108fc829081150290604051600060405180830381858888f19350505050158015610568573d6000803e3d6000fd5b50600160009054906101000a900473ffffffffffffffffffffffffffffffffffffffff1673ffffffffffffffffffffffffffffffffffffffff166379cc679085846040518363ffffffff1660e01b81526004016105c6929190610e17565b600060405180830381600087803b1580156105e057600080fd5b505af11580156105f4573d6000803e3d6000fd5b505050507f3eb1506d8210b5dbd38e30d7f6113495d1c713078c2cd75ec454a8e3a4d871a960008054906101000a900473ffffffffffffffffffffffffffffffffffffffff1673ffffffffffffffffffffffffffffffffffffffff166370a08231306040518263ffffffff1660e01b81526004016106729190610dc5565b602060405180830381865afa15801561068f573d6000803e3d6000fd5b505050506040513d601f19601f820116820180604052508101906106b39190610d0c565b47426040516106c493929190610de0565b60405180910390a150505050565b3373ffffffffffffffffffffffffffffffffffffffff16600360009054906101000a900473ffffffffffffffffffffffffffffffffffffffff1673ffffffffffffffffffffffffffffffffffffffff1614610762576040517f08c379a000000000000000000000000000000000000000000000000000000000815260040161075990610d96565b60405180910390fd5b600360009054906101000a900473ffffffffffffffffffffffffffffffffffffffff1673ffffffffffffffffffffffffffffffffffffffff166108fc479081150290604051600060405180830381858888f193505050501580156107ca573d6000803e3d6000fd5b50565b60011515600560003373ffffffffffffffffffffffffffffffffffffffff1673ffffffffffffffffffffffffffffffffffffffff16815260200190815260200160002060009054906101000a900460ff1615151461082a57600080fd5b6000610847670de0b6b3a764000083610a9290919063ffffffff16565b905080600260009054906101000a900473ffffffffffffffffffffffffffffffffffffffff1673ffffffffffffffffffffffffffffffffffffffff166370a08231306040518263ffffffff1660e01b81526004016108a59190610dc5565b602060405180830381865afa1580156108c2573d6000803e3d6000fd5b505050506040513d601f19601f820116820180604052508101906108e69190610d0c565b10156108f157600080fd5b600061090860045484610a9290919063ffffffff16565b90508034101561091757600080fd5b600260009054906101000a900473ffffffffffffffffffffffffffffffffffffffff1673ffffffffffffffffffffffffffffffffffffffff1663a9059cbb85846040518363ffffffff1660e01b8152600401610974929190610e17565b6020604051808303816000875af1158015610993573d6000803e3d6000fd5b505050506040513d601f19601f820116820180604052508101906109b79190610e55565b507f3eb1506d8210b5dbd38e30d7f6113495d1c713078c2cd75ec454a8e3a4d871a960008054906101000a900473ffffffffffffffffffffffffffffffffffffffff1673ffffffffffffffffffffffffffffffffffffffff166370a08231306040518263ffffffff1660e01b8152600401610a329190610dc5565b602060405180830381865afa158015610a4f573d6000803e3d6000fd5b505050506040513d601f19601f82011682018060405250810190610a739190610d0c565b4742604051610a8493929190610de0565b60405180910390a150505050565b60008183610aa09190610eb1565b905092915050565b60008183610ab69190610f22565b905092915050565b600080fd5b6000819050919050565b610ad681610ac3565b8114610ae157600080fd5b50565b600081359050610af381610acd565b92915050565b600060208284031215610b0f57610b0e610abe565b5b6000610b1d84828501610ae4565b91505092915050565b610b2f81610ac3565b82525050565b6000602082019050610b4a6000830184610b26565b92915050565b600073ffffffffffffffffffffffffffffffffffffffff82169050919050565b6000610b7b82610b50565b9050919050565b610b8b81610b70565b8114610b9657600080fd5b50565b600081359050610ba881610b82565b92915050565b60008115159050919050565b610bc381610bae565b8114610bce57600080fd5b50565b600081359050610be081610bba565b92915050565b60008060408385031215610bfd57610bfc610abe565b5b6000610c0b85828601610b99565b9250506020610c1c85828601610bd1565b9150509250929050565b6000610c3182610b50565b9050919050565b610c4181610c26565b8114610c4c57600080fd5b50565b600081359050610c5e81610c38565b92915050565b600080600060608486031215610c7d57610c7c610abe565b5b6000610c8b86828701610b99565b9350506020610c9c86828701610c4f565b9250506040610cad86828701610ae4565b9150509250925092565b60008060408385031215610cce57610ccd610abe565b5b6000610cdc85828601610b99565b9250506020610ced85828601610ae4565b9150509250929050565b600081519050610d0681610acd565b92915050565b600060208284031215610d2257610d21610abe565b5b6000610d3084828501610cf7565b91505092915050565b600082825260208201905092915050565b7f4f776e61626c653a2063616c6c6572206973206e6f7420746865206f776e6572600082015250565b6000610d80602083610d39565b9150610d8b82610d4a565b602082019050919050565b60006020820190508181036000830152610daf81610d73565b9050919050565b610dbf81610b70565b82525050565b6000602082019050610dda6000830184610db6565b92915050565b6000606082019050610df56000830186610b26565b610e026020830185610b26565b610e0f6040830184610b26565b949350505050565b6000604082019050610e2c6000830185610db6565b610e396020830184610b26565b9392505050565b600081519050610e4f81610bba565b92915050565b600060208284031215610e6b57610e6a610abe565b5b6000610e7984828501610e40565b91505092915050565b7f4e487b7100000000000000000000000000000000000000000000000000000000600052601160045260246000fd5b6000610ebc82610ac3565b9150610ec783610ac3565b9250828202610ed581610ac3565b91508282048414831517610eec57610eeb610e82565b5b5092915050565b7f4e487b7100000000000000000000000000000000000000000000000000000000600052601260045260246000fd5b6000610f2d82610ac3565b9150610f3883610ac3565b925082610f4857610f47610ef3565b5b82820490509291505056fea26469706673582212200287a47d95e5f2f3e39ee0b2a3032b045ec455469ad8972fc7096f93f7b12fe264736f6c63430008110033",
					"opcodes": "PUSH1 0x80 PUSH1 0x40 MSTORE PUSH20 0xA9FAE5EA311D3CFB2BCC9CAEFC5003B30B60B6C3 PUSH1 0x0 DUP1 PUSH2 0x100 EXP DUP2 SLOAD DUP2 PUSH20 0xFFFFFFFFFFFFFFFFFFFFFFFFFFFFFFFFFFFFFFFF MUL NOT AND SWAP1 DUP4 PUSH20 0xFFFFFFFFFFFFFFFFFFFFFFFFFFFFFFFFFFFFFFFF AND MUL OR SWAP1 SSTORE POP PUSH20 0xA9FAE5EA311D3CFB2BCC9CAEFC5003B30B60B6C3 PUSH1 0x1 PUSH1 0x0 PUSH2 0x100 EXP DUP2 SLOAD DUP2 PUSH20 0xFFFFFFFFFFFFFFFFFFFFFFFFFFFFFFFFFFFFFFFF MUL NOT AND SWAP1 DUP4 PUSH20 0xFFFFFFFFFFFFFFFFFFFFFFFFFFFFFFFFFFFFFFFF AND MUL OR SWAP1 SSTORE POP PUSH20 0xE3410AF1B80F925AC42B78EA54A48DE13DFA6EBE PUSH1 0x2 PUSH1 0x0 PUSH2 0x100 EXP DUP2 SLOAD DUP2 PUSH20 0xFFFFFFFFFFFFFFFFFFFFFFFFFFFFFFFFFFFFFFFF MUL NOT AND SWAP1 DUP4 PUSH20 0xFFFFFFFFFFFFFFFFFFFFFFFFFFFFFFFFFFFFFFFF AND MUL OR SWAP1 SSTORE POP CALLVALUE DUP1 ISZERO PUSH2 0x10E JUMPI PUSH1 0x0 DUP1 REVERT JUMPDEST POP CALLER PUSH1 0x3 PUSH1 0x0 PUSH2 0x100 EXP DUP2 SLOAD DUP2 PUSH20 0xFFFFFFFFFFFFFFFFFFFFFFFFFFFFFFFFFFFFFFFF MUL NOT AND SWAP1 DUP4 PUSH20 0xFFFFFFFFFFFFFFFFFFFFFFFFFFFFFFFFFFFFFFFF AND MUL OR SWAP1 SSTORE POP PUSH7 0x11C37937E08000 PUSH1 0x4 DUP2 SWAP1 SSTORE POP PUSH2 0xF89 DUP1 PUSH2 0x16D PUSH1 0x0 CODECOPY PUSH1 0x0 RETURN INVALID PUSH1 0x80 PUSH1 0x40 MSTORE PUSH1 0x4 CALLDATASIZE LT PUSH2 0x55 JUMPI PUSH1 0x0 CALLDATALOAD PUSH1 0xE0 SHR DUP1 PUSH4 0x97DEDB1D EQ PUSH2 0x5A JUMPI DUP1 PUSH4 0xC3C64674 EQ PUSH2 0x97 JUMPI DUP1 PUSH4 0xD0E30DB0 EQ PUSH2 0xC0 JUMPI DUP1 PUSH4 0xD9E9402F EQ PUSH2 0xCA JUMPI DUP1 PUSH4 0xDAC3FAD4 EQ PUSH2 0xF3 JUMPI DUP1 PUSH4 0xDAEAE851 EQ PUSH2 0x10A JUMPI JUMPDEST PUSH1 0x0 DUP1 REVERT JUMPDEST CALLVALUE DUP1 ISZERO PUSH2 0x66 JUMPI PUSH1 0x0 DUP1 REVERT JUMPDEST POP PUSH2 0x81 PUSH1 0x4 DUP1 CALLDATASIZE SUB DUP2 ADD SWAP1 PUSH2 0x7C SWAP2 SWAP1 PUSH2 0xAF9 JUMP JUMPDEST PUSH2 0x126 JUMP JUMPDEST PUSH1 0x40 MLOAD PUSH2 0x8E SWAP2 SWAP1 PUSH2 0xB35 JUMP JUMPDEST PUSH1 0x40 MLOAD DUP1 SWAP2 SUB SWAP1 RETURN JUMPDEST CALLVALUE DUP1 ISZERO PUSH2 0xA3 JUMPI PUSH1 0x0 DUP1 REVERT JUMPDEST POP PUSH2 0xBE PUSH1 0x4 DUP1 CALLDATASIZE SUB DUP2 ADD SWAP1 PUSH2 0xB9 SWAP2 SWAP1 PUSH2 0xBE6 JUMP JUMPDEST PUSH2 0x1F4 JUMP JUMPDEST STOP JUMPDEST PUSH2 0xC8 PUSH2 0x2DF JUMP JUMPDEST STOP JUMPDEST CALLVALUE DUP1 ISZERO PUSH2 0xD6 JUMPI PUSH1 0x0 DUP1 REVERT JUMPDEST POP PUSH2 0xF1 PUSH1 0x4 DUP1 CALLDATASIZE SUB DUP2 ADD SWAP1 PUSH2 0xEC SWAP2 SWAP1 PUSH2 0xC64 JUMP JUMPDEST PUSH2 0x412 JUMP JUMPDEST STOP JUMPDEST CALLVALUE DUP1 ISZERO PUSH2 0xFF JUMPI PUSH1 0x0 DUP1 REVERT JUMPDEST POP PUSH2 0x108 PUSH2 0x6D2 JUMP JUMPDEST STOP JUMPDEST PUSH2 0x124 PUSH1 0x4 DUP1 CALLDATASIZE SUB DUP2 ADD SWAP1 PUSH2 0x11F SWAP2 SWAP1 PUSH2 0xCB7 JUMP JUMPDEST PUSH2 0x7CD JUMP JUMPDEST STOP JUMPDEST PUSH1 0x0 DUP1 SELFBALANCE SWAP1 POP PUSH1 0x0 DUP1 PUSH1 0x0 SWAP1 SLOAD SWAP1 PUSH2 0x100 EXP SWAP1 DIV PUSH20 0xFFFFFFFFFFFFFFFFFFFFFFFFFFFFFFFFFFFFFFFF AND PUSH20 0xFFFFFFFFFFFFFFFFFFFFFFFFFFFFFFFFFFFFFFFF AND PUSH4 0x18160DDD PUSH1 0x40 MLOAD DUP2 PUSH4 0xFFFFFFFF AND PUSH1 0xE0 SHL DUP2 MSTORE PUSH1 0x4 ADD PUSH1 0x20 PUSH1 0x40 MLOAD DUP1 DUP4 SUB DUP2 DUP7 GAS STATICCALL ISZERO DUP1 ISZERO PUSH2 0x19A JUMPI RETURNDATASIZE PUSH1 0x0 DUP1 RETURNDATACOPY RETURNDATASIZE PUSH1 0x0 REVERT JUMPDEST POP POP POP POP PUSH1 0x40 MLOAD RETURNDATASIZE PUSH1 0x1F NOT PUSH1 0x1F DUP3 ADD AND DUP3 ADD DUP1 PUSH1 0x40 MSTORE POP DUP2 ADD SWAP1 PUSH2 0x1BE SWAP2 SWAP1 PUSH2 0xD0C JUMP JUMPDEST SWAP1 POP PUSH1 0x0 PUSH2 0x1E7 DUP3 PUSH2 0x1D9 DUP6 DUP9 PUSH2 0xA92 SWAP1 SWAP2 SWAP1 PUSH4 0xFFFFFFFF AND JUMP JUMPDEST PUSH2 0xAA8 SWAP1 SWAP2 SWAP1 PUSH4 0xFFFFFFFF AND JUMP JUMPDEST SWAP1 POP DUP1 SWAP4 POP POP POP POP SWAP2 SWAP1 POP JUMP JUMPDEST CALLER PUSH20 0xFFFFFFFFFFFFFFFFFFFFFFFFFFFFFFFFFFFFFFFF AND PUSH1 0x3 PUSH1 0x0 SWAP1 SLOAD SWAP1 PUSH2 0x100 EXP SWAP1 DIV PUSH20 0xFFFFFFFFFFFFFFFFFFFFFFFFFFFFFFFFFFFFFFFF AND PUSH20 0xFFFFFFFFFFFFFFFFFFFFFFFFFFFFFFFFFFFFFFFF AND EQ PUSH2 0x284 JUMPI PUSH1 0x40 MLOAD PUSH32 0x8C379A000000000000000000000000000000000000000000000000000000000 DUP2 MSTORE PUSH1 0x4 ADD PUSH2 0x27B SWAP1 PUSH2 0xD96 JUMP JUMPDEST PUSH1 0x40 MLOAD DUP1 SWAP2 SUB SWAP1 REVERT JUMPDEST DUP1 PUSH1 0x5 PUSH1 0x0 DUP5 PUSH20 0xFFFFFFFFFFFFFFFFFFFFFFFFFFFFFFFFFFFFFFFF AND PUSH20 0xFFFFFFFFFFFFFFFFFFFFFFFFFFFFFFFFFFFFFFFF AND DUP2 MSTORE PUSH1 0x20 ADD SWAP1 DUP2 MSTORE PUSH1 0x20 ADD PUSH1 0x0 KECCAK256 PUSH1 0x0 PUSH2 0x100 EXP DUP2 SLOAD DUP2 PUSH1 0xFF MUL NOT AND SWAP1 DUP4 ISZERO ISZERO MUL OR SWAP1 SSTORE POP POP POP JUMP JUMPDEST PUSH1 0x1 ISZERO ISZERO PUSH1 0x5 PUSH1 0x0 CALLER PUSH20 0xFFFFFFFFFFFFFFFFFFFFFFFFFFFFFFFFFFFFFFFF AND PUSH20 0xFFFFFFFFFFFFFFFFFFFFFFFFFFFFFFFFFFFFFFFF AND DUP2 MSTORE PUSH1 0x20 ADD SWAP1 DUP2 MSTORE PUSH1 0x20 ADD PUSH1 0x0 KECCAK256 PUSH1 0x0 SWAP1 SLOAD SWAP1 PUSH2 0x100 EXP SWAP1 DIV PUSH1 0xFF AND ISZERO ISZERO EQ PUSH2 0x33C JUMPI PUSH1 0x0 DUP1 REVERT JUMPDEST PUSH32 0x3EB1506D8210B5DBD38E30D7F6113495D1C713078C2CD75EC454A8E3A4D871A9 PUSH1 0x0 DUP1 SLOAD SWAP1 PUSH2 0x100 EXP SWAP1 DIV PUSH20 0xFFFFFFFFFFFFFFFFFFFFFFFFFFFFFFFFFFFFFFFF AND PUSH20 0xFFFFFFFFFFFFFFFFFFFFFFFFFFFFFFFFFFFFFFFF AND PUSH4 0x70A08231 ADDRESS PUSH1 0x40 MLOAD DUP3 PUSH4 0xFFFFFFFF AND PUSH1 0xE0 SHL DUP2 MSTORE PUSH1 0x4 ADD PUSH2 0x3B6 SWAP2 SWAP1 PUSH2 0xDC5 JUMP JUMPDEST PUSH1 0x20 PUSH1 0x40 MLOAD DUP1 DUP4 SUB DUP2 DUP7 GAS STATICCALL ISZERO DUP1 ISZERO PUSH2 0x3D3 JUMPI RETURNDATASIZE PUSH1 0x0 DUP1 RETURNDATACOPY RETURNDATASIZE PUSH1 0x0 REVERT JUMPDEST POP POP POP POP PUSH1 0x40 MLOAD RETURNDATASIZE PUSH1 0x1F NOT PUSH1 0x1F DUP3 ADD AND DUP3 ADD DUP1 PUSH1 0x40 MSTORE POP DUP2 ADD SWAP1 PUSH2 0x3F7 SWAP2 SWAP1 PUSH2 0xD0C JUMP JUMPDEST SELFBALANCE TIMESTAMP PUSH1 0x40 MLOAD PUSH2 0x408 SWAP4 SWAP3 SWAP2 SWAP1 PUSH2 0xDE0 JUMP JUMPDEST PUSH1 0x40 MLOAD DUP1 SWAP2 SUB SWAP1 LOG1 JUMP JUMPDEST PUSH1 0x1 ISZERO ISZERO PUSH1 0x5 PUSH1 0x0 CALLER PUSH20 0xFFFFFFFFFFFFFFFFFFFFFFFFFFFFFFFFFFFFFFFF AND PUSH20 0xFFFFFFFFFFFFFFFFFFFFFFFFFFFFFFFFFFFFFFFF AND DUP2 MSTORE PUSH1 0x20 ADD SWAP1 DUP2 MSTORE PUSH1 0x20 ADD PUSH1 0x0 KECCAK256 PUSH1 0x0 SWAP1 SLOAD SWAP1 PUSH2 0x100 EXP SWAP1 DIV PUSH1 0xFF AND ISZERO ISZERO EQ PUSH2 0x46F JUMPI PUSH1 0x0 DUP1 REVERT JUMPDEST DUP1 PUSH1 0x0 DUP1 SLOAD SWAP1 PUSH2 0x100 EXP SWAP1 DIV PUSH20 0xFFFFFFFFFFFFFFFFFFFFFFFFFFFFFFFFFFFFFFFF AND PUSH20 0xFFFFFFFFFFFFFFFFFFFFFFFFFFFFFFFFFFFFFFFF AND PUSH4 0x70A08231 DUP6 PUSH1 0x40 MLOAD DUP3 PUSH4 0xFFFFFFFF AND PUSH1 0xE0 SHL DUP2 MSTORE PUSH1 0x4 ADD PUSH2 0x4C9 SWAP2 SWAP1 PUSH2 0xDC5 JUMP JUMPDEST PUSH1 0x20 PUSH1 0x40 MLOAD DUP1 DUP4 SUB DUP2 DUP7 GAS STATICCALL ISZERO DUP1 ISZERO PUSH2 0x4E6 JUMPI RETURNDATASIZE PUSH1 0x0 DUP1 RETURNDATACOPY RETURNDATASIZE PUSH1 0x0 REVERT JUMPDEST POP POP POP POP PUSH1 0x40 MLOAD RETURNDATASIZE PUSH1 0x1F NOT PUSH1 0x1F DUP3 ADD AND DUP3 ADD DUP1 PUSH1 0x40 MSTORE POP DUP2 ADD SWAP1 PUSH2 0x50A SWAP2 SWAP1 PUSH2 0xD0C JUMP JUMPDEST LT ISZERO PUSH2 0x515 JUMPI PUSH1 0x0 DUP1 REVERT JUMPDEST PUSH1 0x0 PUSH2 0x520 DUP3 PUSH2 0x126 JUMP JUMPDEST SWAP1 POP DUP3 PUSH20 0xFFFFFFFFFFFFFFFFFFFFFFFFFFFFFFFFFFFFFFFF AND PUSH2 0x8FC DUP3 SWAP1 DUP2 ISZERO MUL SWAP1 PUSH1 0x40 MLOAD PUSH1 0x0 PUSH1 0x40 MLOAD DUP1 DUP4 SUB DUP2 DUP6 DUP9 DUP9 CALL SWAP4 POP POP POP POP ISZERO DUP1 ISZERO PUSH2 0x568 JUMPI RETURNDATASIZE PUSH1 0x0 DUP1 RETURNDATACOPY RETURNDATASIZE PUSH1 0x0 REVERT JUMPDEST POP PUSH1 0x1 PUSH1 0x0 SWAP1 SLOAD SWAP1 PUSH2 0x100 EXP SWAP1 DIV PUSH20 0xFFFFFFFFFFFFFFFFFFFFFFFFFFFFFFFFFFFFFFFF AND PUSH20 0xFFFFFFFFFFFFFFFFFFFFFFFFFFFFFFFFFFFFFFFF AND PUSH4 0x79CC6790 DUP6 DUP5 PUSH1 0x40 MLOAD DUP4 PUSH4 0xFFFFFFFF AND PUSH1 0xE0 SHL DUP2 MSTORE PUSH1 0x4 ADD PUSH2 0x5C6 SWAP3 SWAP2 SWAP1 PUSH2 0xE17 JUMP JUMPDEST PUSH1 0x0 PUSH1 0x40 MLOAD DUP1 DUP4 SUB DUP2 PUSH1 0x0 DUP8 DUP1 EXTCODESIZE ISZERO DUP1 ISZERO PUSH2 0x5E0 JUMPI PUSH1 0x0 DUP1 REVERT JUMPDEST POP GAS CALL ISZERO DUP1 ISZERO PUSH2 0x5F4 JUMPI RETURNDATASIZE PUSH1 0x0 DUP1 RETURNDATACOPY RETURNDATASIZE PUSH1 0x0 REVERT JUMPDEST POP POP POP POP PUSH32 0x3EB1506D8210B5DBD38E30D7F6113495D1C713078C2CD75EC454A8E3A4D871A9 PUSH1 0x0 DUP1 SLOAD SWAP1 PUSH2 0x100 EXP SWAP1 DIV PUSH20 0xFFFFFFFFFFFFFFFFFFFFFFFFFFFFFFFFFFFFFFFF AND PUSH20 0xFFFFFFFFFFFFFFFFFFFFFFFFFFFFFFFFFFFFFFFF AND PUSH4 0x70A08231 ADDRESS PUSH1 0x40 MLOAD DUP3 PUSH4 0xFFFFFFFF AND PUSH1 0xE0 SHL DUP2 MSTORE PUSH1 0x4 ADD PUSH2 0x672 SWAP2 SWAP1 PUSH2 0xDC5 JUMP JUMPDEST PUSH1 0x20 PUSH1 0x40 MLOAD DUP1 DUP4 SUB DUP2 DUP7 GAS STATICCALL ISZERO DUP1 ISZERO PUSH2 0x68F JUMPI RETURNDATASIZE PUSH1 0x0 DUP1 RETURNDATACOPY RETURNDATASIZE PUSH1 0x0 REVERT JUMPDEST POP POP POP POP PUSH1 0x40 MLOAD RETURNDATASIZE PUSH1 0x1F NOT PUSH1 0x1F DUP3 ADD AND DUP3 ADD DUP1 PUSH1 0x40 MSTORE POP DUP2 ADD SWAP1 PUSH2 0x6B3 SWAP2 SWAP1 PUSH2 0xD0C JUMP JUMPDEST SELFBALANCE TIMESTAMP PUSH1 0x40 MLOAD PUSH2 0x6C4 SWAP4 SWAP3 SWAP2 SWAP1 PUSH2 0xDE0 JUMP JUMPDEST PUSH1 0x40 MLOAD DUP1 SWAP2 SUB SWAP1 LOG1 POP POP POP POP JUMP JUMPDEST CALLER PUSH20 0xFFFFFFFFFFFFFFFFFFFFFFFFFFFFFFFFFFFFFFFF AND PUSH1 0x3 PUSH1 0x0 SWAP1 SLOAD SWAP1 PUSH2 0x100 EXP SWAP1 DIV PUSH20 0xFFFFFFFFFFFFFFFFFFFFFFFFFFFFFFFFFFFFFFFF AND PUSH20 0xFFFFFFFFFFFFFFFFFFFFFFFFFFFFFFFFFFFFFFFF AND EQ PUSH2 0x762 JUMPI PUSH1 0x40 MLOAD PUSH32 0x8C379A000000000000000000000000000000000000000000000000000000000 DUP2 MSTORE PUSH1 0x4 ADD PUSH2 0x759 SWAP1 PUSH2 0xD96 JUMP JUMPDEST PUSH1 0x40 MLOAD DUP1 SWAP2 SUB SWAP1 REVERT JUMPDEST PUSH1 0x3 PUSH1 0x0 SWAP1 SLOAD SWAP1 PUSH2 0x100 EXP SWAP1 DIV PUSH20 0xFFFFFFFFFFFFFFFFFFFFFFFFFFFFFFFFFFFFFFFF AND PUSH20 0xFFFFFFFFFFFFFFFFFFFFFFFFFFFFFFFFFFFFFFFF AND PUSH2 0x8FC SELFBALANCE SWAP1 DUP2 ISZERO MUL SWAP1 PUSH1 0x40 MLOAD PUSH1 0x0 PUSH1 0x40 MLOAD DUP1 DUP4 SUB DUP2 DUP6 DUP9 DUP9 CALL SWAP4 POP POP POP POP ISZERO DUP1 ISZERO PUSH2 0x7CA JUMPI RETURNDATASIZE PUSH1 0x0 DUP1 RETURNDATACOPY RETURNDATASIZE PUSH1 0x0 REVERT JUMPDEST POP JUMP JUMPDEST PUSH1 0x1 ISZERO ISZERO PUSH1 0x5 PUSH1 0x0 CALLER PUSH20 0xFFFFFFFFFFFFFFFFFFFFFFFFFFFFFFFFFFFFFFFF AND PUSH20 0xFFFFFFFFFFFFFFFFFFFFFFFFFFFFFFFFFFFFFFFF AND DUP2 MSTORE PUSH1 0x20 ADD SWAP1 DUP2 MSTORE PUSH1 0x20 ADD PUSH1 0x0 KECCAK256 PUSH1 0x0 SWAP1 SLOAD SWAP1 PUSH2 0x100 EXP SWAP1 DIV PUSH1 0xFF AND ISZERO ISZERO EQ PUSH2 0x82A JUMPI PUSH1 0x0 DUP1 REVERT JUMPDEST PUSH1 0x0 PUSH2 0x847 PUSH8 0xDE0B6B3A7640000 DUP4 PUSH2 0xA92 SWAP1 SWAP2 SWAP1 PUSH4 0xFFFFFFFF AND JUMP JUMPDEST SWAP1 POP DUP1 PUSH1 0x2 PUSH1 0x0 SWAP1 SLOAD SWAP1 PUSH2 0x100 EXP SWAP1 DIV PUSH20 0xFFFFFFFFFFFFFFFFFFFFFFFFFFFFFFFFFFFFFFFF AND PUSH20 0xFFFFFFFFFFFFFFFFFFFFFFFFFFFFFFFFFFFFFFFF AND PUSH4 0x70A08231 ADDRESS PUSH1 0x40 MLOAD DUP3 PUSH4 0xFFFFFFFF AND PUSH1 0xE0 SHL DUP2 MSTORE PUSH1 0x4 ADD PUSH2 0x8A5 SWAP2 SWAP1 PUSH2 0xDC5 JUMP JUMPDEST PUSH1 0x20 PUSH1 0x40 MLOAD DUP1 DUP4 SUB DUP2 DUP7 GAS STATICCALL ISZERO DUP1 ISZERO PUSH2 0x8C2 JUMPI RETURNDATASIZE PUSH1 0x0 DUP1 RETURNDATACOPY RETURNDATASIZE PUSH1 0x0 REVERT JUMPDEST POP POP POP POP PUSH1 0x40 MLOAD RETURNDATASIZE PUSH1 0x1F NOT PUSH1 0x1F DUP3 ADD AND DUP3 ADD DUP1 PUSH1 0x40 MSTORE POP DUP2 ADD SWAP1 PUSH2 0x8E6 SWAP2 SWAP1 PUSH2 0xD0C JUMP JUMPDEST LT ISZERO PUSH2 0x8F1 JUMPI PUSH1 0x0 DUP1 REVERT JUMPDEST PUSH1 0x0 PUSH2 0x908 PUSH1 0x4 SLOAD DUP5 PUSH2 0xA92 SWAP1 SWAP2 SWAP1 PUSH4 0xFFFFFFFF AND JUMP JUMPDEST SWAP1 POP DUP1 CALLVALUE LT ISZERO PUSH2 0x917 JUMPI PUSH1 0x0 DUP1 REVERT JUMPDEST PUSH1 0x2 PUSH1 0x0 SWAP1 SLOAD SWAP1 PUSH2 0x100 EXP SWAP1 DIV PUSH20 0xFFFFFFFFFFFFFFFFFFFFFFFFFFFFFFFFFFFFFFFF AND PUSH20 0xFFFFFFFFFFFFFFFFFFFFFFFFFFFFFFFFFFFFFFFF AND PUSH4 0xA9059CBB DUP6 DUP5 PUSH1 0x40 MLOAD DUP4 PUSH4 0xFFFFFFFF AND PUSH1 0xE0 SHL DUP2 MSTORE PUSH1 0x4 ADD PUSH2 0x974 SWAP3 SWAP2 SWAP1 PUSH2 0xE17 JUMP JUMPDEST PUSH1 0x20 PUSH1 0x40 MLOAD DUP1 DUP4 SUB DUP2 PUSH1 0x0 DUP8 GAS CALL ISZERO DUP1 ISZERO PUSH2 0x993 JUMPI RETURNDATASIZE PUSH1 0x0 DUP1 RETURNDATACOPY RETURNDATASIZE PUSH1 0x0 REVERT JUMPDEST POP POP POP POP PUSH1 0x40 MLOAD RETURNDATASIZE PUSH1 0x1F NOT PUSH1 0x1F DUP3 ADD AND DUP3 ADD DUP1 PUSH1 0x40 MSTORE POP DUP2 ADD SWAP1 PUSH2 0x9B7 SWAP2 SWAP1 PUSH2 0xE55 JUMP JUMPDEST POP PUSH32 0x3EB1506D8210B5DBD38E30D7F6113495D1C713078C2CD75EC454A8E3A4D871A9 PUSH1 0x0 DUP1 SLOAD SWAP1 PUSH2 0x100 EXP SWAP1 DIV PUSH20 0xFFFFFFFFFFFFFFFFFFFFFFFFFFFFFFFFFFFFFFFF AND PUSH20 0xFFFFFFFFFFFFFFFFFFFFFFFFFFFFFFFFFFFFFFFF AND PUSH4 0x70A08231 ADDRESS PUSH1 0x40 MLOAD DUP3 PUSH4 0xFFFFFFFF AND PUSH1 0xE0 SHL DUP2 MSTORE PUSH1 0x4 ADD PUSH2 0xA32 SWAP2 SWAP1 PUSH2 0xDC5 JUMP JUMPDEST PUSH1 0x20 PUSH1 0x40 MLOAD DUP1 DUP4 SUB DUP2 DUP7 GAS STATICCALL ISZERO DUP1 ISZERO PUSH2 0xA4F JUMPI RETURNDATASIZE PUSH1 0x0 DUP1 RETURNDATACOPY RETURNDATASIZE PUSH1 0x0 REVERT JUMPDEST POP POP POP POP PUSH1 0x40 MLOAD RETURNDATASIZE PUSH1 0x1F NOT PUSH1 0x1F DUP3 ADD AND DUP3 ADD DUP1 PUSH1 0x40 MSTORE POP DUP2 ADD SWAP1 PUSH2 0xA73 SWAP2 SWAP1 PUSH2 0xD0C JUMP JUMPDEST SELFBALANCE TIMESTAMP PUSH1 0x40 MLOAD PUSH2 0xA84 SWAP4 SWAP3 SWAP2 SWAP1 PUSH2 0xDE0 JUMP JUMPDEST PUSH1 0x40 MLOAD DUP1 SWAP2 SUB SWAP1 LOG1 POP POP POP POP JUMP JUMPDEST PUSH1 0x0 DUP2 DUP4 PUSH2 0xAA0 SWAP2 SWAP1 PUSH2 0xEB1 JUMP JUMPDEST SWAP1 POP SWAP3 SWAP2 POP POP JUMP JUMPDEST PUSH1 0x0 DUP2 DUP4 PUSH2 0xAB6 SWAP2 SWAP1 PUSH2 0xF22 JUMP JUMPDEST SWAP1 POP SWAP3 SWAP2 POP POP JUMP JUMPDEST PUSH1 0x0 DUP1 REVERT JUMPDEST PUSH1 0x0 DUP2 SWAP1 POP SWAP2 SWAP1 POP JUMP JUMPDEST PUSH2 0xAD6 DUP2 PUSH2 0xAC3 JUMP JUMPDEST DUP2 EQ PUSH2 0xAE1 JUMPI PUSH1 0x0 DUP1 REVERT JUMPDEST POP JUMP JUMPDEST PUSH1 0x0 DUP2 CALLDATALOAD SWAP1 POP PUSH2 0xAF3 DUP2 PUSH2 0xACD JUMP JUMPDEST SWAP3 SWAP2 POP POP JUMP JUMPDEST PUSH1 0x0 PUSH1 0x20 DUP3 DUP5 SUB SLT ISZERO PUSH2 0xB0F JUMPI PUSH2 0xB0E PUSH2 0xABE JUMP JUMPDEST JUMPDEST PUSH1 0x0 PUSH2 0xB1D DUP5 DUP3 DUP6 ADD PUSH2 0xAE4 JUMP JUMPDEST SWAP2 POP POP SWAP3 SWAP2 POP POP JUMP JUMPDEST PUSH2 0xB2F DUP2 PUSH2 0xAC3 JUMP JUMPDEST DUP3 MSTORE POP POP JUMP JUMPDEST PUSH1 0x0 PUSH1 0x20 DUP3 ADD SWAP1 POP PUSH2 0xB4A PUSH1 0x0 DUP4 ADD DUP5 PUSH2 0xB26 JUMP JUMPDEST SWAP3 SWAP2 POP POP JUMP JUMPDEST PUSH1 0x0 PUSH20 0xFFFFFFFFFFFFFFFFFFFFFFFFFFFFFFFFFFFFFFFF DUP3 AND SWAP1 POP SWAP2 SWAP1 POP JUMP JUMPDEST PUSH1 0x0 PUSH2 0xB7B DUP3 PUSH2 0xB50 JUMP JUMPDEST SWAP1 POP SWAP2 SWAP1 POP JUMP JUMPDEST PUSH2 0xB8B DUP2 PUSH2 0xB70 JUMP JUMPDEST DUP2 EQ PUSH2 0xB96 JUMPI PUSH1 0x0 DUP1 REVERT JUMPDEST POP JUMP JUMPDEST PUSH1 0x0 DUP2 CALLDATALOAD SWAP1 POP PUSH2 0xBA8 DUP2 PUSH2 0xB82 JUMP JUMPDEST SWAP3 SWAP2 POP POP JUMP JUMPDEST PUSH1 0x0 DUP2 ISZERO ISZERO SWAP1 POP SWAP2 SWAP1 POP JUMP JUMPDEST PUSH2 0xBC3 DUP2 PUSH2 0xBAE JUMP JUMPDEST DUP2 EQ PUSH2 0xBCE JUMPI PUSH1 0x0 DUP1 REVERT JUMPDEST POP JUMP JUMPDEST PUSH1 0x0 DUP2 CALLDATALOAD SWAP1 POP PUSH2 0xBE0 DUP2 PUSH2 0xBBA JUMP JUMPDEST SWAP3 SWAP2 POP POP JUMP JUMPDEST PUSH1 0x0 DUP1 PUSH1 0x40 DUP4 DUP6 SUB SLT ISZERO PUSH2 0xBFD JUMPI PUSH2 0xBFC PUSH2 0xABE JUMP JUMPDEST JUMPDEST PUSH1 0x0 PUSH2 0xC0B DUP6 DUP3 DUP7 ADD PUSH2 0xB99 JUMP JUMPDEST SWAP3 POP POP PUSH1 0x20 PUSH2 0xC1C DUP6 DUP3 DUP7 ADD PUSH2 0xBD1 JUMP JUMPDEST SWAP2 POP POP SWAP3 POP SWAP3 SWAP1 POP JUMP JUMPDEST PUSH1 0x0 PUSH2 0xC31 DUP3 PUSH2 0xB50 JUMP JUMPDEST SWAP1 POP SWAP2 SWAP1 POP JUMP JUMPDEST PUSH2 0xC41 DUP2 PUSH2 0xC26 JUMP JUMPDEST DUP2 EQ PUSH2 0xC4C JUMPI PUSH1 0x0 DUP1 REVERT JUMPDEST POP JUMP JUMPDEST PUSH1 0x0 DUP2 CALLDATALOAD SWAP1 POP PUSH2 0xC5E DUP2 PUSH2 0xC38 JUMP JUMPDEST SWAP3 SWAP2 POP POP JUMP JUMPDEST PUSH1 0x0 DUP1 PUSH1 0x0 PUSH1 0x60 DUP5 DUP7 SUB SLT ISZERO PUSH2 0xC7D JUMPI PUSH2 0xC7C PUSH2 0xABE JUMP JUMPDEST JUMPDEST PUSH1 0x0 PUSH2 0xC8B DUP7 DUP3 DUP8 ADD PUSH2 0xB99 JUMP JUMPDEST SWAP4 POP POP PUSH1 0x20 PUSH2 0xC9C DUP7 DUP3 DUP8 ADD PUSH2 0xC4F JUMP JUMPDEST SWAP3 POP POP PUSH1 0x40 PUSH2 0xCAD DUP7 DUP3 DUP8 ADD PUSH2 0xAE4 JUMP JUMPDEST SWAP2 POP POP SWAP3 POP SWAP3 POP SWAP3 JUMP JUMPDEST PUSH1 0x0 DUP1 PUSH1 0x40 DUP4 DUP6 SUB SLT ISZERO PUSH2 0xCCE JUMPI PUSH2 0xCCD PUSH2 0xABE JUMP JUMPDEST JUMPDEST PUSH1 0x0 PUSH2 0xCDC DUP6 DUP3 DUP7 ADD PUSH2 0xB99 JUMP JUMPDEST SWAP3 POP POP PUSH1 0x20 PUSH2 0xCED DUP6 DUP3 DUP7 ADD PUSH2 0xAE4 JUMP JUMPDEST SWAP2 POP POP SWAP3 POP SWAP3 SWAP1 POP JUMP JUMPDEST PUSH1 0x0 DUP2 MLOAD SWAP1 POP PUSH2 0xD06 DUP2 PUSH2 0xACD JUMP JUMPDEST SWAP3 SWAP2 POP POP JUMP JUMPDEST PUSH1 0x0 PUSH1 0x20 DUP3 DUP5 SUB SLT ISZERO PUSH2 0xD22 JUMPI PUSH2 0xD21 PUSH2 0xABE JUMP JUMPDEST JUMPDEST PUSH1 0x0 PUSH2 0xD30 DUP5 DUP3 DUP6 ADD PUSH2 0xCF7 JUMP JUMPDEST SWAP2 POP POP SWAP3 SWAP2 POP POP JUMP JUMPDEST PUSH1 0x0 DUP3 DUP3 MSTORE PUSH1 0x20 DUP3 ADD SWAP1 POP SWAP3 SWAP2 POP POP JUMP JUMPDEST PUSH32 0x4F776E61626C653A2063616C6C6572206973206E6F7420746865206F776E6572 PUSH1 0x0 DUP3 ADD MSTORE POP JUMP JUMPDEST PUSH1 0x0 PUSH2 0xD80 PUSH1 0x20 DUP4 PUSH2 0xD39 JUMP JUMPDEST SWAP2 POP PUSH2 0xD8B DUP3 PUSH2 0xD4A JUMP JUMPDEST PUSH1 0x20 DUP3 ADD SWAP1 POP SWAP2 SWAP1 POP JUMP JUMPDEST PUSH1 0x0 PUSH1 0x20 DUP3 ADD SWAP1 POP DUP2 DUP2 SUB PUSH1 0x0 DUP4 ADD MSTORE PUSH2 0xDAF DUP2 PUSH2 0xD73 JUMP JUMPDEST SWAP1 POP SWAP2 SWAP1 POP JUMP JUMPDEST PUSH2 0xDBF DUP2 PUSH2 0xB70 JUMP JUMPDEST DUP3 MSTORE POP POP JUMP JUMPDEST PUSH1 0x0 PUSH1 0x20 DUP3 ADD SWAP1 POP PUSH2 0xDDA PUSH1 0x0 DUP4 ADD DUP5 PUSH2 0xDB6 JUMP JUMPDEST SWAP3 SWAP2 POP POP JUMP JUMPDEST PUSH1 0x0 PUSH1 0x60 DUP3 ADD SWAP1 POP PUSH2 0xDF5 PUSH1 0x0 DUP4 ADD DUP7 PUSH2 0xB26 JUMP JUMPDEST PUSH2 0xE02 PUSH1 0x20 DUP4 ADD DUP6 PUSH2 0xB26 JUMP JUMPDEST PUSH2 0xE0F PUSH1 0x40 DUP4 ADD DUP5 PUSH2 0xB26 JUMP JUMPDEST SWAP5 SWAP4 POP POP POP POP JUMP JUMPDEST PUSH1 0x0 PUSH1 0x40 DUP3 ADD SWAP1 POP PUSH2 0xE2C PUSH1 0x0 DUP4 ADD DUP6 PUSH2 0xDB6 JUMP JUMPDEST PUSH2 0xE39 PUSH1 0x20 DUP4 ADD DUP5 PUSH2 0xB26 JUMP JUMPDEST SWAP4 SWAP3 POP POP POP JUMP JUMPDEST PUSH1 0x0 DUP2 MLOAD SWAP1 POP PUSH2 0xE4F DUP2 PUSH2 0xBBA JUMP JUMPDEST SWAP3 SWAP2 POP POP JUMP JUMPDEST PUSH1 0x0 PUSH1 0x20 DUP3 DUP5 SUB SLT ISZERO PUSH2 0xE6B JUMPI PUSH2 0xE6A PUSH2 0xABE JUMP JUMPDEST JUMPDEST PUSH1 0x0 PUSH2 0xE79 DUP5 DUP3 DUP6 ADD PUSH2 0xE40 JUMP JUMPDEST SWAP2 POP POP SWAP3 SWAP2 POP POP JUMP JUMPDEST PUSH32 0x4E487B7100000000000000000000000000000000000000000000000000000000 PUSH1 0x0 MSTORE PUSH1 0x11 PUSH1 0x4 MSTORE PUSH1 0x24 PUSH1 0x0 REVERT JUMPDEST PUSH1 0x0 PUSH2 0xEBC DUP3 PUSH2 0xAC3 JUMP JUMPDEST SWAP2 POP PUSH2 0xEC7 DUP4 PUSH2 0xAC3 JUMP JUMPDEST SWAP3 POP DUP3 DUP3 MUL PUSH2 0xED5 DUP2 PUSH2 0xAC3 JUMP JUMPDEST SWAP2 POP DUP3 DUP3 DIV DUP5 EQ DUP4 ISZERO OR PUSH2 0xEEC JUMPI PUSH2 0xEEB PUSH2 0xE82 JUMP JUMPDEST JUMPDEST POP SWAP3 SWAP2 POP POP JUMP JUMPDEST PUSH32 0x4E487B7100000000000000000000000000000000000000000000000000000000 PUSH1 0x0 MSTORE PUSH1 0x12 PUSH1 0x4 MSTORE PUSH1 0x24 PUSH1 0x0 REVERT JUMPDEST PUSH1 0x0 PUSH2 0xF2D DUP3 PUSH2 0xAC3 JUMP JUMPDEST SWAP2 POP PUSH2 0xF38 DUP4 PUSH2 0xAC3 JUMP JUMPDEST SWAP3 POP DUP3 PUSH2 0xF48 JUMPI PUSH2 0xF47 PUSH2 0xEF3 JUMP JUMPDEST JUMPDEST DUP3 DUP3 DIV SWAP1 POP SWAP3 SWAP2 POP POP JUMP INVALID LOG2 PUSH5 0x6970667358 0x22 SLT KECCAK256 MUL DUP8 LOG4 PUSH30 0x95E5F2F3E39EE0B2A3032B045EC455469AD8972FC7096F93F7B12FE26473 PUSH16 0x6C634300081100330000000000000000 "
				},
				"gasEstimates": {
					"creation": {
						"codeDepositCost": "795400",
						"executionCost": "120012",
						"totalCost": "915412"
					},
					"external": {
						"ETH_DCF(uint256)": "infinite",
						"Warning_protect()": "infinite",
						"deposit()": "infinite",
						"market(address,address,uint256)": "infinite",
						"purchasePower(address,uint256)": "infinite",
						"setRouter(address,bool)": "27161"
					}
				},
				"methodIdentifiers": {
					"ETH_DCF(uint256)": "97dedb1d",
					"Warning_protect()": "dac3fad4",
					"deposit()": "d0e30db0",
					"market(address,address,uint256)": "d9e9402f",
					"purchasePower(address,uint256)": "daeae851",
					"setRouter(address,bool)": "c3c64674"
				}
			},
			"storageLayout": {
				"storage": [
					{
						"astId": 410,
						"contract": "minerpunk/treasury.sol:treasury",
						"label": "dcoff",
						"offset": 0,
						"slot": "0",
						"type": "t_contract(IERC20)77"
					},
					{
						"astId": 416,
						"contract": "minerpunk/treasury.sol:treasury",
						"label": "dcoffburn",
						"offset": 0,
						"slot": "1",
						"type": "t_contract(IburnFrom)401"
					},
					{
						"astId": 422,
						"contract": "minerpunk/treasury.sol:treasury",
						"label": "minePower",
						"offset": 0,
						"slot": "2",
						"type": "t_contract(IERC20)77"
					},
					{
						"astId": 445,
						"contract": "minerpunk/treasury.sol:treasury",
						"label": "owner",
						"offset": 0,
						"slot": "3",
						"type": "t_address"
					},
					{
						"astId": 447,
						"contract": "minerpunk/treasury.sol:treasury",
						"label": "powerTokenPrice",
						"offset": 0,
						"slot": "4",
						"type": "t_uint256"
					},
					{
						"astId": 451,
						"contract": "minerpunk/treasury.sol:treasury",
						"label": "RouterAdmin",
						"offset": 0,
						"slot": "5",
						"type": "t_mapping(t_address,t_bool)"
					}
				],
				"types": {
					"t_address": {
						"encoding": "inplace",
						"label": "address",
						"numberOfBytes": "20"
					},
					"t_bool": {
						"encoding": "inplace",
						"label": "bool",
						"numberOfBytes": "1"
					},
					"t_contract(IERC20)77": {
						"encoding": "inplace",
						"label": "contract IERC20",
						"numberOfBytes": "20"
					},
					"t_contract(IburnFrom)401": {
						"encoding": "inplace",
						"label": "contract IburnFrom",
						"numberOfBytes": "20"
					},
					"t_mapping(t_address,t_bool)": {
						"encoding": "mapping",
						"key": "t_address",
						"label": "mapping(address => bool)",
						"numberOfBytes": "32",
						"value": "t_bool"
					},
					"t_uint256": {
						"encoding": "inplace",
						"label": "uint256",
						"numberOfBytes": "32"
					}
				}
			},
			"userdoc": {
				"kind": "user",
				"methods": {},
				"version": 1
			}
		}
	}
}