{
	"minerpunk/ERC721A/ERC721A.sol": {
		"ERC721A": {
			"abi": [
				{
					"inputs": [
						{
							"internalType": "string",
							"name": "name_",
							"type": "string"
						},
						{
							"internalType": "string",
							"name": "symbol_",
							"type": "string"
						},
						{
							"internalType": "uint256",
							"name": "salt_",
							"type": "uint256"
						}
					],
					"stateMutability": "nonpayable",
					"type": "constructor"
				},
				{
					"inputs": [],
					"name": "ApprovalCallerNotOwnerNorApproved",
					"type": "error"
				},
				{
					"inputs": [],
					"name": "ApprovalQueryForNonexistentToken",
					"type": "error"
				},
				{
					"inputs": [],
					"name": "ApprovalToCurrentOwner",
					"type": "error"
				},
				{
					"inputs": [],
					"name": "ApproveToCaller",
					"type": "error"
				},
				{
					"inputs": [],
					"name": "BalanceQueryForZeroAddress",
					"type": "error"
				},
				{
					"inputs": [],
					"name": "MintToZeroAddress",
					"type": "error"
				},
				{
					"inputs": [],
					"name": "MintZeroQuantity",
					"type": "error"
				},
				{
					"inputs": [],
					"name": "OwnerQueryForNonexistentToken",
					"type": "error"
				},
				{
					"inputs": [],
					"name": "TransferCallerNotOwnerNorApproved",
					"type": "error"
				},
				{
					"inputs": [],
					"name": "TransferFromIncorrectOwner",
					"type": "error"
				},
				{
					"inputs": [],
					"name": "TransferToNonERC721ReceiverImplementer",
					"type": "error"
				},
				{
					"inputs": [],
					"name": "TransferToZeroAddress",
					"type": "error"
				},
				{
					"inputs": [],
					"name": "URIQueryForNonexistentToken",
					"type": "error"
				},
				{
					"anonymous": false,
					"inputs": [
						{
							"indexed": true,
							"internalType": "address",
							"name": "owner",
							"type": "address"
						},
						{
							"indexed": true,
							"internalType": "address",
							"name": "approved",
							"type": "address"
						},
						{
							"indexed": true,
							"internalType": "uint256",
							"name": "tokenId",
							"type": "uint256"
						}
					],
					"name": "Approval",
					"type": "event"
				},
				{
					"anonymous": false,
					"inputs": [
						{
							"indexed": true,
							"internalType": "address",
							"name": "owner",
							"type": "address"
						},
						{
							"indexed": true,
							"internalType": "address",
							"name": "operator",
							"type": "address"
						},
						{
							"indexed": false,
							"internalType": "bool",
							"name": "approved",
							"type": "bool"
						}
					],
					"name": "ApprovalForAll",
					"type": "event"
				},
				{
					"anonymous": false,
					"inputs": [
						{
							"indexed": true,
							"internalType": "address",
							"name": "from",
							"type": "address"
						},
						{
							"indexed": true,
							"internalType": "address",
							"name": "to",
							"type": "address"
						},
						{
							"indexed": true,
							"internalType": "uint256",
							"name": "tokenId",
							"type": "uint256"
						}
					],
					"name": "Transfer",
					"type": "event"
				},
				{
					"inputs": [
						{
							"internalType": "address",
							"name": "user",
							"type": "address"
						}
					],
					"name": "MineStatus",
					"outputs": [
						{
							"internalType": "uint256",
							"name": "",
							"type": "uint256"
						}
					],
					"stateMutability": "view",
					"type": "function"
				},
				{
					"inputs": [
						{
							"internalType": "address",
							"name": "to",
							"type": "address"
						},
						{
							"internalType": "uint256",
							"name": "tokenId",
							"type": "uint256"
						}
					],
					"name": "approve",
					"outputs": [],
					"stateMutability": "nonpayable",
					"type": "function"
				},
				{
					"inputs": [
						{
							"internalType": "address",
							"name": "owner",
							"type": "address"
						}
					],
					"name": "balanceOf",
					"outputs": [
						{
							"internalType": "uint256",
							"name": "",
							"type": "uint256"
						}
					],
					"stateMutability": "view",
					"type": "function"
				},
				{
					"inputs": [
						{
							"internalType": "uint256",
							"name": "_BlockNumber",
							"type": "uint256"
						}
					],
					"name": "blockStatus",
					"outputs": [
						{
							"internalType": "uint256",
							"name": "",
							"type": "uint256"
						}
					],
					"stateMutability": "view",
					"type": "function"
				},
				{
					"inputs": [
						{
							"internalType": "uint256",
							"name": "tokenId",
							"type": "uint256"
						}
					],
					"name": "getApproved",
					"outputs": [
						{
							"internalType": "address",
							"name": "",
							"type": "address"
						}
					],
					"stateMutability": "view",
					"type": "function"
				},
				{
					"inputs": [
						{
							"internalType": "address",
							"name": "owner",
							"type": "address"
						},
						{
							"internalType": "address",
							"name": "operator",
							"type": "address"
						}
					],
					"name": "isApprovedForAll",
					"outputs": [
						{
							"internalType": "bool",
							"name": "",
							"type": "bool"
						}
					],
					"stateMutability": "view",
					"type": "function"
				},
				{
					"inputs": [],
					"name": "maxSupply",
					"outputs": [
						{
							"internalType": "uint256",
							"name": "",
							"type": "uint256"
						}
					],
					"stateMutability": "view",
					"type": "function"
				},
				{
					"inputs": [
						{
							"internalType": "address",
							"name": "user",
							"type": "address"
						},
						{
							"internalType": "uint256",
							"name": "number",
							"type": "uint256"
						}
					],
					"name": "mineInfo",
					"outputs": [
						{
							"internalType": "uint256",
							"name": "",
							"type": "uint256"
						}
					],
					"stateMutability": "view",
					"type": "function"
				},
				{
					"inputs": [],
					"name": "name",
					"outputs": [
						{
							"internalType": "string",
							"name": "",
							"type": "string"
						}
					],
					"stateMutability": "view",
					"type": "function"
				},
				{
					"inputs": [
						{
							"internalType": "uint256",
							"name": "tokenId",
							"type": "uint256"
						}
					],
					"name": "ownerOf",
					"outputs": [
						{
							"internalType": "address",
							"name": "",
							"type": "address"
						}
					],
					"stateMutability": "view",
					"type": "function"
				},
				{
					"inputs": [
						{
							"internalType": "address",
							"name": "from",
							"type": "address"
						},
						{
							"internalType": "address",
							"name": "to",
							"type": "address"
						},
						{
							"internalType": "uint256",
							"name": "tokenId",
							"type": "uint256"
						}
					],
					"name": "safeTransferFrom",
					"outputs": [],
					"stateMutability": "nonpayable",
					"type": "function"
				},
				{
					"inputs": [
						{
							"internalType": "address",
							"name": "from",
							"type": "address"
						},
						{
							"internalType": "address",
							"name": "to",
							"type": "address"
						},
						{
							"internalType": "uint256",
							"name": "tokenId",
							"type": "uint256"
						},
						{
							"internalType": "bytes",
							"name": "_data",
							"type": "bytes"
						}
					],
					"name": "safeTransferFrom",
					"outputs": [],
					"stateMutability": "nonpayable",
					"type": "function"
				},
				{
					"inputs": [
						{
							"internalType": "address",
							"name": "operator",
							"type": "address"
						},
						{
							"internalType": "bool",
							"name": "approved",
							"type": "bool"
						}
					],
					"name": "setApprovalForAll",
					"outputs": [],
					"stateMutability": "nonpayable",
					"type": "function"
				},
				{
					"inputs": [
						{
							"internalType": "bytes4",
							"name": "interfaceId",
							"type": "bytes4"
						}
					],
					"name": "supportsInterface",
					"outputs": [
						{
							"internalType": "bool",
							"name": "",
							"type": "bool"
						}
					],
					"stateMutability": "view",
					"type": "function"
				},
				{
					"inputs": [],
					"name": "symbol",
					"outputs": [
						{
							"internalType": "string",
							"name": "",
							"type": "string"
						}
					],
					"stateMutability": "view",
					"type": "function"
				},
				{
					"inputs": [
						{
							"internalType": "uint256",
							"name": "tokenId",
							"type": "uint256"
						}
					],
					"name": "tokenIDPower",
					"outputs": [
						{
							"internalType": "uint256",
							"name": "",
							"type": "uint256"
						}
					],
					"stateMutability": "view",
					"type": "function"
				},
				{
					"inputs": [
						{
							"internalType": "uint256",
							"name": "tokenId",
							"type": "uint256"
						}
					],
					"name": "tokenURI",
					"outputs": [
						{
							"internalType": "string",
							"name": "",
							"type": "string"
						}
					],
					"stateMutability": "view",
					"type": "function"
				},
				{
					"inputs": [],
					"name": "totalPower",
					"outputs": [
						{
							"internalType": "uint256",
							"name": "",
							"type": "uint256"
						}
					],
					"stateMutability": "view",
					"type": "function"
				},
				{
					"inputs": [],
					"name": "totalSupply",
					"outputs": [
						{
							"internalType": "uint256",
							"name": "",
							"type": "uint256"
						}
					],
					"stateMutability": "view",
					"type": "function"
				},
				{
					"inputs": [
						{
							"internalType": "address",
							"name": "from",
							"type": "address"
						},
						{
							"internalType": "address",
							"name": "to",
							"type": "address"
						},
						{
							"internalType": "uint256",
							"name": "tokenId",
							"type": "uint256"
						}
					],
					"name": "transferFrom",
					"outputs": [],
					"stateMutability": "nonpayable",
					"type": "function"
				}
			],
			"devdoc": {
				"details": "Implementation of https://eips.ethereum.org/EIPS/eip-721[ERC721] Non-Fungible Token Standard, including the Metadata extension. Built to optimize for lower gas during batch mints. Assumes serials are sequentially minted starting at _startTokenId() (defaults to 0, e.g. 0, 1, 2, 3..). Assumes that an owner cannot have more than 2**64 - 1 (max value of uint64) of supply. Assumes that the maximum token id cannot exceed 2**256 - 1 (max value of uint256).",
				"kind": "dev",
				"methods": {
					"approve(address,uint256)": {
						"details": "See {IERC721-approve}."
					},
					"balanceOf(address)": {
						"details": "See {IERC721-balanceOf}."
					},
					"getApproved(uint256)": {
						"details": "See {IERC721-getApproved}."
					},
					"isApprovedForAll(address,address)": {
						"details": "See {IERC721-isApprovedForAll}."
					},
					"name()": {
						"details": "See {IERC721Metadata-name}."
					},
					"ownerOf(uint256)": {
						"details": "See {IERC721-ownerOf}."
					},
					"safeTransferFrom(address,address,uint256)": {
						"details": "See {IERC721-safeTransferFrom}."
					},
					"safeTransferFrom(address,address,uint256,bytes)": {
						"details": "See {IERC721-safeTransferFrom}."
					},
					"setApprovalForAll(address,bool)": {
						"details": "See {IERC721-setApprovalForAll}."
					},
					"supportsInterface(bytes4)": {
						"details": "See {IERC165-supportsInterface}."
					},
					"symbol()": {
						"details": "See {IERC721Metadata-symbol}."
					},
					"tokenURI(uint256)": {
						"details": "See {IERC721Metadata-tokenURI}."
					},
					"totalSupply()": {
						"details": "Burned tokens are calculated here, use _totalMinted() if you want to count just minted tokens."
					},
					"transferFrom(address,address,uint256)": {
						"details": "See {IERC721-transferFrom}."
					}
				},
				"version": 1
			},
			"evm": {
				"assembly": "    /* \"minerpunk/ERC721A/ERC721A.sol\":1033:24301  contract ERC721A is Context, ERC165, IERC721A,mine {... */\n  mstore(0x40, 0x80)\n    /* \"minerpunk/ERC721A/ERC721A.sol\":2444:2807  constructor(string memory name_, string memory symbol_, uint256 salt_) {... */\n  callvalue\n  dup1\n  iszero\n  tag_1\n  jumpi\n  0x00\n  dup1\n  revert\ntag_1:\n  pop\n  mload(0x40)\n  sub(codesize, bytecodeSize)\n  dup1\n  bytecodeSize\n  dup4\n  codecopy\n  dup2\n  dup2\n  add\n  0x40\n  mstore\n  dup2\n  add\n  swap1\n  tag_2\n  swap2\n  swap1\n  tag_3\n  jump\t// in\ntag_2:\n    /* \"minerpunk/ERC721A/ERC721A.sol\":2534:2539  name_ */\n  dup3\n    /* \"minerpunk/ERC721A/ERC721A.sol\":2526:2531  _name */\n  0x07\n    /* \"minerpunk/ERC721A/ERC721A.sol\":2526:2539  _name = name_ */\n  swap1\n  dup2\n  tag_6\n  swap2\n  swap1\n  tag_7\n  jump\t// in\ntag_6:\n  pop\n    /* \"minerpunk/ERC721A/ERC721A.sol\":2560:2567  symbol_ */\n  dup2\n    /* \"minerpunk/ERC721A/ERC721A.sol\":2550:2557  _symbol */\n  0x08\n    /* \"minerpunk/ERC721A/ERC721A.sol\":2550:2567  _symbol = symbol_ */\n  swap1\n  dup2\n  tag_8\n  swap2\n  swap1\n  tag_7\n  jump\t// in\ntag_8:\n  pop\n    /* \"minerpunk/ERC721A/ERC721A.sol\":2591:2596  10000 */\n  0x2710\n    /* \"minerpunk/ERC721A/ERC721A.sol\":2578:2588  _maxSupply */\n  0x05\n    /* \"minerpunk/ERC721A/ERC721A.sol\":2578:2596  _maxSupply = 10000 */\n  dup2\n  swap1\n  sstore\n  pop\n    /* \"minerpunk/ERC721A/ERC721A.sol\":2623:2638  _startTokenId() */\n  tag_9\n    /* \"minerpunk/ERC721A/ERC721A.sol\":2623:2636  _startTokenId */\n  shl(0x20, tag_10)\n    /* \"minerpunk/ERC721A/ERC721A.sol\":2623:2638  _startTokenId() */\n  0x20\n  shr\n  jump\t// in\ntag_9:\n    /* \"minerpunk/ERC721A/ERC721A.sol\":2607:2620  _currentIndex */\n  0x04\n    /* \"minerpunk/ERC721A/ERC721A.sol\":2607:2638  _currentIndex = _startTokenId() */\n  dup2\n  swap1\n  sstore\n  pop\n    /* \"minerpunk/ERC721A/ERC721A.sol\":2658:2663  salt_ */\n  dup1\n    /* \"minerpunk/ERC721A/ERC721A.sol\":2650:2655  _salt */\n  0x00\n    /* \"minerpunk/ERC721A/ERC721A.sol\":2650:2663  _salt = salt_ */\n  dup2\n  swap1\n  sstore\n  pop\n    /* \"minerpunk/ERC721A/ERC721A.sol\":2681:2714  uint256(1500000).mul(80000000e18) */\n  tag_11\n    /* \"minerpunk/ERC721A/ERC721A.sol\":2702:2713  80000000e18 */\n  0x422ca8b0a00a4250000000\n    /* \"minerpunk/ERC721A/ERC721A.sol\":2689:2696  1500000 */\n  0x16e360\n    /* \"minerpunk/ERC721A/ERC721A.sol\":2681:2701  uint256(1500000).mul */\n  or(tag_0_108, shl(0x20, tag_12))\n  swap1\n    /* \"minerpunk/ERC721A/ERC721A.sol\":2681:2714  uint256(1500000).mul(80000000e18) */\n  swap2\n  swap1\n  0x20\n  shr\n  jump\t// in\ntag_11:\n    /* \"minerpunk/ERC721A/ERC721A.sol\":2676:2678  _K */\n  0x01\n    /* \"minerpunk/ERC721A/ERC721A.sol\":2676:2714  _K = uint256(1500000).mul(80000000e18) */\n  dup2\n  swap1\n  sstore\n  pop\n    /* \"minerpunk/ERC721A/ERC721A.sol\":2742:2747  47000 */\n  0xb798\n    /* \"minerpunk/ERC721A/ERC721A.sol\":2728:2739  _totalPower */\n  0x03\n    /* \"minerpunk/ERC721A/ERC721A.sol\":2728:2747  _totalPower = 47000 */\n  dup2\n  swap1\n  sstore\n  pop\n    /* \"minerpunk/ERC721A/ERC721A.sol\":2778:2790  block.number */\n  number\n    /* \"minerpunk/ERC721A/ERC721A.sol\":2758:2775  _startBlockNumber */\n  0x02\n    /* \"minerpunk/ERC721A/ERC721A.sol\":2758:2790  _startBlockNumber = block.number */\n  dup2\n  swap1\n  sstore\n  pop\n    /* \"minerpunk/ERC721A/ERC721A.sol\":2444:2807  constructor(string memory name_, string memory symbol_, uint256 salt_) {... */\n  pop\n  pop\n  pop\n    /* \"minerpunk/ERC721A/ERC721A.sol\":1033:24301  contract ERC721A is Context, ERC165, IERC721A,mine {... */\n  jump(tag_13)\n    /* \"minerpunk/ERC721A/ERC721A.sol\":4153:4245  function _startTokenId() internal view virtual returns (uint256) {... */\ntag_10:\n    /* \"minerpunk/ERC721A/ERC721A.sol\":4209:4216  uint256 */\n  0x00\n    /* \"minerpunk/ERC721A/ERC721A.sol\":4153:4245  function _startTokenId() internal view virtual returns (uint256) {... */\n  swap1\n  jump\t// out\n    /* \"@openzeppelin/contracts/utils/math/SafeMath.sol\":3465:3561  function mul(uint256 a, uint256 b) internal pure returns (uint256) {... */\ntag_12:\n    /* \"@openzeppelin/contracts/utils/math/SafeMath.sol\":3523:3530  uint256 */\n  0x00\n    /* \"@openzeppelin/contracts/utils/math/SafeMath.sol\":3553:3554  b */\n  dup2\n    /* \"@openzeppelin/contracts/utils/math/SafeMath.sol\":3549:3550  a */\n  dup4\n    /* \"@openzeppelin/contracts/utils/math/SafeMath.sol\":3549:3554  a * b */\n  tag_16\n  swap2\n  swap1\n  tag_17\n  jump\t// in\ntag_16:\n    /* \"@openzeppelin/contracts/utils/math/SafeMath.sol\":3542:3554  return a * b */\n  swap1\n  pop\n    /* \"@openzeppelin/contracts/utils/math/SafeMath.sol\":3465:3561  function mul(uint256 a, uint256 b) internal pure returns (uint256) {... */\n  swap3\n  swap2\n  pop\n  pop\n  jump\t// out\n    /* \"#utility.yul\":7:82   */\ntag_18:\n    /* \"#utility.yul\":40:46   */\n  0x00\n    /* \"#utility.yul\":73:75   */\n  0x40\n    /* \"#utility.yul\":67:76   */\n  mload\n    /* \"#utility.yul\":57:76   */\n  swap1\n  pop\n    /* \"#utility.yul\":7:82   */\n  swap1\n  jump\t// out\n    /* \"#utility.yul\":88:205   */\ntag_19:\n    /* \"#utility.yul\":197:198   */\n  0x00\n    /* \"#utility.yul\":194:195   */\n  dup1\n    /* \"#utility.yul\":187:199   */\n  revert\n    /* \"#utility.yul\":211:328   */\ntag_20:\n    /* \"#utility.yul\":320:321   */\n  0x00\n    /* \"#utility.yul\":317:318   */\n  dup1\n    /* \"#utility.yul\":310:322   */\n  revert\n    /* \"#utility.yul\":334:451   */\ntag_21:\n    /* \"#utility.yul\":443:444   */\n  0x00\n    /* \"#utility.yul\":440:441   */\n  dup1\n    /* \"#utility.yul\":433:445   */\n  revert\n    /* \"#utility.yul\":457:574   */\ntag_22:\n    /* \"#utility.yul\":566:567   */\n  0x00\n    /* \"#utility.yul\":563:564   */\n  dup1\n    /* \"#utility.yul\":556:568   */\n  revert\n    /* \"#utility.yul\":580:682   */\ntag_23:\n    /* \"#utility.yul\":621:627   */\n  0x00\n    /* \"#utility.yul\":672:674   */\n  0x1f\n    /* \"#utility.yul\":668:675   */\n  not\n    /* \"#utility.yul\":663:665   */\n  0x1f\n    /* \"#utility.yul\":656:661   */\n  dup4\n    /* \"#utility.yul\":652:666   */\n  add\n    /* \"#utility.yul\":648:676   */\n  and\n    /* \"#utility.yul\":638:676   */\n  swap1\n  pop\n    /* \"#utility.yul\":580:682   */\n  swap2\n  swap1\n  pop\n  jump\t// out\n    /* \"#utility.yul\":688:868   */\ntag_24:\n    /* \"#utility.yul\":736:813   */\n  0x4e487b7100000000000000000000000000000000000000000000000000000000\n    /* \"#utility.yul\":733:734   */\n  0x00\n    /* \"#utility.yul\":726:814   */\n  mstore\n    /* \"#utility.yul\":833:837   */\n  0x41\n    /* \"#utility.yul\":830:831   */\n  0x04\n    /* \"#utility.yul\":823:838   */\n  mstore\n    /* \"#utility.yul\":857:861   */\n  0x24\n    /* \"#utility.yul\":854:855   */\n  0x00\n    /* \"#utility.yul\":847:862   */\n  revert\n    /* \"#utility.yul\":874:1155   */\ntag_25:\n    /* \"#utility.yul\":957:984   */\n  tag_62\n    /* \"#utility.yul\":979:983   */\n  dup3\n    /* \"#utility.yul\":957:984   */\n  tag_23\n  jump\t// in\ntag_62:\n    /* \"#utility.yul\":949:955   */\n  dup2\n    /* \"#utility.yul\":945:985   */\n  add\n    /* \"#utility.yul\":1087:1093   */\n  dup2\n    /* \"#utility.yul\":1075:1085   */\n  dup2\n    /* \"#utility.yul\":1072:1094   */\n  lt\n    /* \"#utility.yul\":1051:1069   */\n  0xffffffffffffffff\n    /* \"#utility.yul\":1039:1049   */\n  dup3\n    /* \"#utility.yul\":1036:1070   */\n  gt\n    /* \"#utility.yul\":1033:1095   */\n  or\n    /* \"#utility.yul\":1030:1118   */\n  iszero\n  tag_63\n  jumpi\n    /* \"#utility.yul\":1098:1116   */\n  tag_64\n  tag_24\n  jump\t// in\ntag_64:\n    /* \"#utility.yul\":1030:1118   */\ntag_63:\n    /* \"#utility.yul\":1138:1148   */\n  dup1\n    /* \"#utility.yul\":1134:1136   */\n  0x40\n    /* \"#utility.yul\":1127:1149   */\n  mstore\n    /* \"#utility.yul\":917:1155   */\n  pop\n    /* \"#utility.yul\":874:1155   */\n  pop\n  pop\n  jump\t// out\n    /* \"#utility.yul\":1161:1290   */\ntag_26:\n    /* \"#utility.yul\":1195:1201   */\n  0x00\n    /* \"#utility.yul\":1222:1242   */\n  tag_66\n  tag_18\n  jump\t// in\ntag_66:\n    /* \"#utility.yul\":1212:1242   */\n  swap1\n  pop\n    /* \"#utility.yul\":1251:1284   */\n  tag_67\n    /* \"#utility.yul\":1279:1283   */\n  dup3\n    /* \"#utility.yul\":1271:1277   */\n  dup3\n    /* \"#utility.yul\":1251:1284   */\n  tag_25\n  jump\t// in\ntag_67:\n    /* \"#utility.yul\":1161:1290   */\n  swap2\n  swap1\n  pop\n  jump\t// out\n    /* \"#utility.yul\":1296:1604   */\ntag_27:\n    /* \"#utility.yul\":1358:1362   */\n  0x00\n    /* \"#utility.yul\":1448:1466   */\n  0xffffffffffffffff\n    /* \"#utility.yul\":1440:1446   */\n  dup3\n    /* \"#utility.yul\":1437:1467   */\n  gt\n    /* \"#utility.yul\":1434:1490   */\n  iszero\n  tag_69\n  jumpi\n    /* \"#utility.yul\":1470:1488   */\n  tag_70\n  tag_24\n  jump\t// in\ntag_70:\n    /* \"#utility.yul\":1434:1490   */\ntag_69:\n    /* \"#utility.yul\":1508:1537   */\n  tag_71\n    /* \"#utility.yul\":1530:1536   */\n  dup3\n    /* \"#utility.yul\":1508:1537   */\n  tag_23\n  jump\t// in\ntag_71:\n    /* \"#utility.yul\":1500:1537   */\n  swap1\n  pop\n    /* \"#utility.yul\":1592:1596   */\n  0x20\n    /* \"#utility.yul\":1586:1590   */\n  dup2\n    /* \"#utility.yul\":1582:1597   */\n  add\n    /* \"#utility.yul\":1574:1597   */\n  swap1\n  pop\n    /* \"#utility.yul\":1296:1604   */\n  swap2\n  swap1\n  pop\n  jump\t// out\n    /* \"#utility.yul\":1610:1856   */\ntag_28:\n    /* \"#utility.yul\":1691:1692   */\n  0x00\n    /* \"#utility.yul\":1701:1814   */\ntag_73:\n    /* \"#utility.yul\":1715:1721   */\n  dup4\n    /* \"#utility.yul\":1712:1713   */\n  dup2\n    /* \"#utility.yul\":1709:1722   */\n  lt\n    /* \"#utility.yul\":1701:1814   */\n  iszero\n  tag_75\n  jumpi\n    /* \"#utility.yul\":1800:1801   */\n  dup1\n    /* \"#utility.yul\":1795:1798   */\n  dup3\n    /* \"#utility.yul\":1791:1802   */\n  add\n    /* \"#utility.yul\":1785:1803   */\n  mload\n    /* \"#utility.yul\":1781:1782   */\n  dup2\n    /* \"#utility.yul\":1776:1779   */\n  dup5\n    /* \"#utility.yul\":1772:1783   */\n  add\n    /* \"#utility.yul\":1765:1804   */\n  mstore\n    /* \"#utility.yul\":1737:1739   */\n  0x20\n    /* \"#utility.yul\":1734:1735   */\n  dup2\n    /* \"#utility.yul\":1730:1740   */\n  add\n    /* \"#utility.yul\":1725:1740   */\n  swap1\n  pop\n    /* \"#utility.yul\":1701:1814   */\n  jump(tag_73)\ntag_75:\n    /* \"#utility.yul\":1848:1849   */\n  0x00\n    /* \"#utility.yul\":1839:1845   */\n  dup5\n    /* \"#utility.yul\":1834:1837   */\n  dup5\n    /* \"#utility.yul\":1830:1846   */\n  add\n    /* \"#utility.yul\":1823:1850   */\n  mstore\n    /* \"#utility.yul\":1672:1856   */\n  pop\n    /* \"#utility.yul\":1610:1856   */\n  pop\n  pop\n  pop\n  jump\t// out\n    /* \"#utility.yul\":1862:2296   */\ntag_29:\n    /* \"#utility.yul\":1951:1956   */\n  0x00\n    /* \"#utility.yul\":1976:2042   */\n  tag_77\n    /* \"#utility.yul\":1992:2041   */\n  tag_78\n    /* \"#utility.yul\":2034:2040   */\n  dup5\n    /* \"#utility.yul\":1992:2041   */\n  tag_27\n  jump\t// in\ntag_78:\n    /* \"#utility.yul\":1976:2042   */\n  tag_26\n  jump\t// in\ntag_77:\n    /* \"#utility.yul\":1967:2042   */\n  swap1\n  pop\n    /* \"#utility.yul\":2065:2071   */\n  dup3\n    /* \"#utility.yul\":2058:2063   */\n  dup2\n    /* \"#utility.yul\":2051:2072   */\n  mstore\n    /* \"#utility.yul\":2103:2107   */\n  0x20\n    /* \"#utility.yul\":2096:2101   */\n  dup2\n    /* \"#utility.yul\":2092:2108   */\n  add\n    /* \"#utility.yul\":2141:2144   */\n  dup5\n    /* \"#utility.yul\":2132:2138   */\n  dup5\n    /* \"#utility.yul\":2127:2130   */\n  dup5\n    /* \"#utility.yul\":2123:2139   */\n  add\n    /* \"#utility.yul\":2120:2145   */\n  gt\n    /* \"#utility.yul\":2117:2229   */\n  iszero\n  tag_79\n  jumpi\n    /* \"#utility.yul\":2148:2227   */\n  tag_80\n  tag_22\n  jump\t// in\ntag_80:\n    /* \"#utility.yul\":2117:2229   */\ntag_79:\n    /* \"#utility.yul\":2238:2290   */\n  tag_81\n    /* \"#utility.yul\":2283:2289   */\n  dup5\n    /* \"#utility.yul\":2278:2281   */\n  dup3\n    /* \"#utility.yul\":2273:2276   */\n  dup6\n    /* \"#utility.yul\":2238:2290   */\n  tag_28\n  jump\t// in\ntag_81:\n    /* \"#utility.yul\":1957:2296   */\n  pop\n    /* \"#utility.yul\":1862:2296   */\n  swap4\n  swap3\n  pop\n  pop\n  pop\n  jump\t// out\n    /* \"#utility.yul\":2316:2671   */\ntag_30:\n    /* \"#utility.yul\":2383:2388   */\n  0x00\n    /* \"#utility.yul\":2432:2435   */\n  dup3\n    /* \"#utility.yul\":2425:2429   */\n  0x1f\n    /* \"#utility.yul\":2417:2423   */\n  dup4\n    /* \"#utility.yul\":2413:2430   */\n  add\n    /* \"#utility.yul\":2409:2436   */\n  slt\n    /* \"#utility.yul\":2399:2521   */\n  tag_83\n  jumpi\n    /* \"#utility.yul\":2440:2519   */\n  tag_84\n  tag_21\n  jump\t// in\ntag_84:\n    /* \"#utility.yul\":2399:2521   */\ntag_83:\n    /* \"#utility.yul\":2550:2556   */\n  dup2\n    /* \"#utility.yul\":2544:2557   */\n  mload\n    /* \"#utility.yul\":2575:2665   */\n  tag_85\n    /* \"#utility.yul\":2661:2664   */\n  dup5\n    /* \"#utility.yul\":2653:2659   */\n  dup3\n    /* \"#utility.yul\":2646:2650   */\n  0x20\n    /* \"#utility.yul\":2638:2644   */\n  dup7\n    /* \"#utility.yul\":2634:2651   */\n  add\n    /* \"#utility.yul\":2575:2665   */\n  tag_29\n  jump\t// in\ntag_85:\n    /* \"#utility.yul\":2566:2665   */\n  swap2\n  pop\n    /* \"#utility.yul\":2389:2671   */\n  pop\n    /* \"#utility.yul\":2316:2671   */\n  swap3\n  swap2\n  pop\n  pop\n  jump\t// out\n    /* \"#utility.yul\":2677:2754   */\ntag_31:\n    /* \"#utility.yul\":2714:2721   */\n  0x00\n    /* \"#utility.yul\":2743:2748   */\n  dup2\n    /* \"#utility.yul\":2732:2748   */\n  swap1\n  pop\n    /* \"#utility.yul\":2677:2754   */\n  swap2\n  swap1\n  pop\n  jump\t// out\n    /* \"#utility.yul\":2760:2882   */\ntag_32:\n    /* \"#utility.yul\":2833:2857   */\n  tag_88\n    /* \"#utility.yul\":2851:2856   */\n  dup2\n    /* \"#utility.yul\":2833:2857   */\n  tag_31\n  jump\t// in\ntag_88:\n    /* \"#utility.yul\":2826:2831   */\n  dup2\n    /* \"#utility.yul\":2823:2858   */\n  eq\n    /* \"#utility.yul\":2813:2876   */\n  tag_89\n  jumpi\n    /* \"#utility.yul\":2872:2873   */\n  0x00\n    /* \"#utility.yul\":2869:2870   */\n  dup1\n    /* \"#utility.yul\":2862:2874   */\n  revert\n    /* \"#utility.yul\":2813:2876   */\ntag_89:\n    /* \"#utility.yul\":2760:2882   */\n  pop\n  jump\t// out\n    /* \"#utility.yul\":2888:3031   */\ntag_33:\n    /* \"#utility.yul\":2945:2950   */\n  0x00\n    /* \"#utility.yul\":2976:2982   */\n  dup2\n    /* \"#utility.yul\":2970:2983   */\n  mload\n    /* \"#utility.yul\":2961:2983   */\n  swap1\n  pop\n    /* \"#utility.yul\":2992:3025   */\n  tag_91\n    /* \"#utility.yul\":3019:3024   */\n  dup2\n    /* \"#utility.yul\":2992:3025   */\n  tag_32\n  jump\t// in\ntag_91:\n    /* \"#utility.yul\":2888:3031   */\n  swap3\n  swap2\n  pop\n  pop\n  jump\t// out\n    /* \"#utility.yul\":3037:4046   */\ntag_3:\n    /* \"#utility.yul\":3145:3151   */\n  0x00\n    /* \"#utility.yul\":3153:3159   */\n  dup1\n    /* \"#utility.yul\":3161:3167   */\n  0x00\n    /* \"#utility.yul\":3210:3212   */\n  0x60\n    /* \"#utility.yul\":3198:3207   */\n  dup5\n    /* \"#utility.yul\":3189:3196   */\n  dup7\n    /* \"#utility.yul\":3185:3208   */\n  sub\n    /* \"#utility.yul\":3181:3213   */\n  slt\n    /* \"#utility.yul\":3178:3297   */\n  iszero\n  tag_93\n  jumpi\n    /* \"#utility.yul\":3216:3295   */\n  tag_94\n  tag_19\n  jump\t// in\ntag_94:\n    /* \"#utility.yul\":3178:3297   */\ntag_93:\n    /* \"#utility.yul\":3357:3358   */\n  0x00\n    /* \"#utility.yul\":3346:3355   */\n  dup5\n    /* \"#utility.yul\":3342:3359   */\n  add\n    /* \"#utility.yul\":3336:3360   */\n  mload\n    /* \"#utility.yul\":3387:3405   */\n  0xffffffffffffffff\n    /* \"#utility.yul\":3379:3385   */\n  dup2\n    /* \"#utility.yul\":3376:3406   */\n  gt\n    /* \"#utility.yul\":3373:3490   */\n  iszero\n  tag_95\n  jumpi\n    /* \"#utility.yul\":3409:3488   */\n  tag_96\n  tag_20\n  jump\t// in\ntag_96:\n    /* \"#utility.yul\":3373:3490   */\ntag_95:\n    /* \"#utility.yul\":3514:3588   */\n  tag_97\n    /* \"#utility.yul\":3580:3587   */\n  dup7\n    /* \"#utility.yul\":3571:3577   */\n  dup3\n    /* \"#utility.yul\":3560:3569   */\n  dup8\n    /* \"#utility.yul\":3556:3578   */\n  add\n    /* \"#utility.yul\":3514:3588   */\n  tag_30\n  jump\t// in\ntag_97:\n    /* \"#utility.yul\":3504:3588   */\n  swap4\n  pop\n    /* \"#utility.yul\":3307:3598   */\n  pop\n    /* \"#utility.yul\":3658:3660   */\n  0x20\n    /* \"#utility.yul\":3647:3656   */\n  dup5\n    /* \"#utility.yul\":3643:3661   */\n  add\n    /* \"#utility.yul\":3637:3662   */\n  mload\n    /* \"#utility.yul\":3689:3707   */\n  0xffffffffffffffff\n    /* \"#utility.yul\":3681:3687   */\n  dup2\n    /* \"#utility.yul\":3678:3708   */\n  gt\n    /* \"#utility.yul\":3675:3792   */\n  iszero\n  tag_98\n  jumpi\n    /* \"#utility.yul\":3711:3790   */\n  tag_99\n  tag_20\n  jump\t// in\ntag_99:\n    /* \"#utility.yul\":3675:3792   */\ntag_98:\n    /* \"#utility.yul\":3816:3890   */\n  tag_100\n    /* \"#utility.yul\":3882:3889   */\n  dup7\n    /* \"#utility.yul\":3873:3879   */\n  dup3\n    /* \"#utility.yul\":3862:3871   */\n  dup8\n    /* \"#utility.yul\":3858:3880   */\n  add\n    /* \"#utility.yul\":3816:3890   */\n  tag_30\n  jump\t// in\ntag_100:\n    /* \"#utility.yul\":3806:3890   */\n  swap3\n  pop\n    /* \"#utility.yul\":3608:3900   */\n  pop\n    /* \"#utility.yul\":3939:3941   */\n  0x40\n    /* \"#utility.yul\":3965:4029   */\n  tag_101\n    /* \"#utility.yul\":4021:4028   */\n  dup7\n    /* \"#utility.yul\":4012:4018   */\n  dup3\n    /* \"#utility.yul\":4001:4010   */\n  dup8\n    /* \"#utility.yul\":3997:4019   */\n  add\n    /* \"#utility.yul\":3965:4029   */\n  tag_33\n  jump\t// in\ntag_101:\n    /* \"#utility.yul\":3955:4029   */\n  swap2\n  pop\n    /* \"#utility.yul\":3910:4039   */\n  pop\n    /* \"#utility.yul\":3037:4046   */\n  swap3\n  pop\n  swap3\n  pop\n  swap3\n  jump\t// out\n    /* \"#utility.yul\":4052:4151   */\ntag_34:\n    /* \"#utility.yul\":4104:4110   */\n  0x00\n    /* \"#utility.yul\":4138:4143   */\n  dup2\n    /* \"#utility.yul\":4132:4144   */\n  mload\n    /* \"#utility.yul\":4122:4144   */\n  swap1\n  pop\n    /* \"#utility.yul\":4052:4151   */\n  swap2\n  swap1\n  pop\n  jump\t// out\n    /* \"#utility.yul\":4157:4337   */\ntag_35:\n    /* \"#utility.yul\":4205:4282   */\n  0x4e487b7100000000000000000000000000000000000000000000000000000000\n    /* \"#utility.yul\":4202:4203   */\n  0x00\n    /* \"#utility.yul\":4195:4283   */\n  mstore\n    /* \"#utility.yul\":4302:4306   */\n  0x22\n    /* \"#utility.yul\":4299:4300   */\n  0x04\n    /* \"#utility.yul\":4292:4307   */\n  mstore\n    /* \"#utility.yul\":4326:4330   */\n  0x24\n    /* \"#utility.yul\":4323:4324   */\n  0x00\n    /* \"#utility.yul\":4316:4331   */\n  revert\n    /* \"#utility.yul\":4343:4663   */\ntag_36:\n    /* \"#utility.yul\":4387:4393   */\n  0x00\n    /* \"#utility.yul\":4424:4425   */\n  0x02\n    /* \"#utility.yul\":4418:4422   */\n  dup3\n    /* \"#utility.yul\":4414:4426   */\n  div\n    /* \"#utility.yul\":4404:4426   */\n  swap1\n  pop\n    /* \"#utility.yul\":4471:4472   */\n  0x01\n    /* \"#utility.yul\":4465:4469   */\n  dup3\n    /* \"#utility.yul\":4461:4473   */\n  and\n    /* \"#utility.yul\":4492:4510   */\n  dup1\n    /* \"#utility.yul\":4482:4563   */\n  tag_105\n  jumpi\n    /* \"#utility.yul\":4548:4552   */\n  0x7f\n    /* \"#utility.yul\":4540:4546   */\n  dup3\n    /* \"#utility.yul\":4536:4553   */\n  and\n    /* \"#utility.yul\":4526:4553   */\n  swap2\n  pop\n    /* \"#utility.yul\":4482:4563   */\ntag_105:\n    /* \"#utility.yul\":4610:4612   */\n  0x20\n    /* \"#utility.yul\":4602:4608   */\n  dup3\n    /* \"#utility.yul\":4599:4613   */\n  lt\n    /* \"#utility.yul\":4579:4597   */\n  dup2\n    /* \"#utility.yul\":4576:4614   */\n  sub\n    /* \"#utility.yul\":4573:4657   */\n  tag_106\n  jumpi\n    /* \"#utility.yul\":4629:4647   */\n  tag_107\n  tag_35\n  jump\t// in\ntag_107:\n    /* \"#utility.yul\":4573:4657   */\ntag_106:\n    /* \"#utility.yul\":4394:4663   */\n  pop\n    /* \"#utility.yul\":4343:4663   */\n  swap2\n  swap1\n  pop\n  jump\t// out\n    /* \"#utility.yul\":4669:4810   */\ntag_37:\n    /* \"#utility.yul\":4718:4722   */\n  0x00\n    /* \"#utility.yul\":4741:4744   */\n  dup2\n    /* \"#utility.yul\":4733:4744   */\n  swap1\n  pop\n    /* \"#utility.yul\":4764:4767   */\n  dup2\n    /* \"#utility.yul\":4761:4762   */\n  0x00\n    /* \"#utility.yul\":4754:4768   */\n  mstore\n    /* \"#utility.yul\":4798:4802   */\n  0x20\n    /* \"#utility.yul\":4795:4796   */\n  0x00\n    /* \"#utility.yul\":4785:4803   */\n  keccak256\n    /* \"#utility.yul\":4777:4803   */\n  swap1\n  pop\n    /* \"#utility.yul\":4669:4810   */\n  swap2\n  swap1\n  pop\n  jump\t// out\n    /* \"#utility.yul\":4816:4909   */\ntag_38:\n    /* \"#utility.yul\":4853:4859   */\n  0x00\n    /* \"#utility.yul\":4900:4902   */\n  0x20\n    /* \"#utility.yul\":4895:4897   */\n  0x1f\n    /* \"#utility.yul\":4888:4893   */\n  dup4\n    /* \"#utility.yul\":4884:4898   */\n  add\n    /* \"#utility.yul\":4880:4903   */\n  div\n    /* \"#utility.yul\":4870:4903   */\n  swap1\n  pop\n    /* \"#utility.yul\":4816:4909   */\n  swap2\n  swap1\n  pop\n  jump\t// out\n    /* \"#utility.yul\":4915:5022   */\ntag_39:\n    /* \"#utility.yul\":4959:4967   */\n  0x00\n    /* \"#utility.yul\":5009:5014   */\n  dup3\n    /* \"#utility.yul\":5003:5007   */\n  dup3\n    /* \"#utility.yul\":4999:5015   */\n  shl\n    /* \"#utility.yul\":4978:5015   */\n  swap1\n  pop\n    /* \"#utility.yul\":4915:5022   */\n  swap3\n  swap2\n  pop\n  pop\n  jump\t// out\n    /* \"#utility.yul\":5028:5421   */\ntag_40:\n    /* \"#utility.yul\":5097:5103   */\n  0x00\n    /* \"#utility.yul\":5147:5148   */\n  0x08\n    /* \"#utility.yul\":5135:5145   */\n  dup4\n    /* \"#utility.yul\":5131:5149   */\n  mul\n    /* \"#utility.yul\":5170:5267   */\n  tag_112\n    /* \"#utility.yul\":5200:5266   */\n  0xffffffffffffffffffffffffffffffffffffffffffffffffffffffffffffffff\n    /* \"#utility.yul\":5189:5198   */\n  dup3\n    /* \"#utility.yul\":5170:5267   */\n  tag_39\n  jump\t// in\ntag_112:\n    /* \"#utility.yul\":5288:5327   */\n  tag_113\n    /* \"#utility.yul\":5318:5326   */\n  dup7\n    /* \"#utility.yul\":5307:5316   */\n  dup4\n    /* \"#utility.yul\":5288:5327   */\n  tag_39\n  jump\t// in\ntag_113:\n    /* \"#utility.yul\":5276:5327   */\n  swap6\n  pop\n    /* \"#utility.yul\":5360:5364   */\n  dup1\n    /* \"#utility.yul\":5356:5365   */\n  not\n    /* \"#utility.yul\":5349:5354   */\n  dup5\n    /* \"#utility.yul\":5345:5366   */\n  and\n    /* \"#utility.yul\":5336:5366   */\n  swap4\n  pop\n    /* \"#utility.yul\":5409:5413   */\n  dup1\n    /* \"#utility.yul\":5399:5407   */\n  dup7\n    /* \"#utility.yul\":5395:5414   */\n  and\n    /* \"#utility.yul\":5388:5393   */\n  dup5\n    /* \"#utility.yul\":5385:5415   */\n  or\n    /* \"#utility.yul\":5375:5415   */\n  swap3\n  pop\n    /* \"#utility.yul\":5104:5421   */\n  pop\n  pop\n    /* \"#utility.yul\":5028:5421   */\n  swap4\n  swap3\n  pop\n  pop\n  pop\n  jump\t// out\n    /* \"#utility.yul\":5427:5487   */\ntag_41:\n    /* \"#utility.yul\":5455:5458   */\n  0x00\n    /* \"#utility.yul\":5476:5481   */\n  dup2\n    /* \"#utility.yul\":5469:5481   */\n  swap1\n  pop\n    /* \"#utility.yul\":5427:5487   */\n  swap2\n  swap1\n  pop\n  jump\t// out\n    /* \"#utility.yul\":5493:5635   */\ntag_42:\n    /* \"#utility.yul\":5543:5552   */\n  0x00\n    /* \"#utility.yul\":5576:5629   */\n  tag_116\n    /* \"#utility.yul\":5594:5628   */\n  tag_117\n    /* \"#utility.yul\":5603:5627   */\n  tag_118\n    /* \"#utility.yul\":5621:5626   */\n  dup5\n    /* \"#utility.yul\":5603:5627   */\n  tag_31\n  jump\t// in\ntag_118:\n    /* \"#utility.yul\":5594:5628   */\n  tag_41\n  jump\t// in\ntag_117:\n    /* \"#utility.yul\":5576:5629   */\n  tag_31\n  jump\t// in\ntag_116:\n    /* \"#utility.yul\":5563:5629   */\n  swap1\n  pop\n    /* \"#utility.yul\":5493:5635   */\n  swap2\n  swap1\n  pop\n  jump\t// out\n    /* \"#utility.yul\":5641:5716   */\ntag_43:\n    /* \"#utility.yul\":5684:5687   */\n  0x00\n    /* \"#utility.yul\":5705:5710   */\n  dup2\n    /* \"#utility.yul\":5698:5710   */\n  swap1\n  pop\n    /* \"#utility.yul\":5641:5716   */\n  swap2\n  swap1\n  pop\n  jump\t// out\n    /* \"#utility.yul\":5722:5991   */\ntag_44:\n    /* \"#utility.yul\":5832:5871   */\n  tag_121\n    /* \"#utility.yul\":5863:5870   */\n  dup4\n    /* \"#utility.yul\":5832:5871   */\n  tag_42\n  jump\t// in\ntag_121:\n    /* \"#utility.yul\":5893:5984   */\n  tag_122\n    /* \"#utility.yul\":5942:5983   */\n  tag_123\n    /* \"#utility.yul\":5966:5982   */\n  dup3\n    /* \"#utility.yul\":5942:5983   */\n  tag_43\n  jump\t// in\ntag_123:\n    /* \"#utility.yul\":5934:5940   */\n  dup5\n    /* \"#utility.yul\":5927:5931   */\n  dup5\n    /* \"#utility.yul\":5921:5932   */\n  sload\n    /* \"#utility.yul\":5893:5984   */\n  tag_40\n  jump\t// in\ntag_122:\n    /* \"#utility.yul\":5887:5891   */\n  dup3\n    /* \"#utility.yul\":5880:5985   */\n  sstore\n    /* \"#utility.yul\":5798:5991   */\n  pop\n    /* \"#utility.yul\":5722:5991   */\n  pop\n  pop\n  pop\n  jump\t// out\n    /* \"#utility.yul\":5997:6070   */\ntag_45:\n    /* \"#utility.yul\":6042:6045   */\n  0x00\n    /* \"#utility.yul\":5997:6070   */\n  swap1\n  jump\t// out\n    /* \"#utility.yul\":6076:6265   */\ntag_46:\n    /* \"#utility.yul\":6153:6185   */\n  tag_126\n  tag_45\n  jump\t// in\ntag_126:\n    /* \"#utility.yul\":6194:6259   */\n  tag_127\n    /* \"#utility.yul\":6252:6258   */\n  dup2\n    /* \"#utility.yul\":6244:6250   */\n  dup5\n    /* \"#utility.yul\":6238:6242   */\n  dup5\n    /* \"#utility.yul\":6194:6259   */\n  tag_44\n  jump\t// in\ntag_127:\n    /* \"#utility.yul\":6129:6265   */\n  pop\n    /* \"#utility.yul\":6076:6265   */\n  pop\n  pop\n  jump\t// out\n    /* \"#utility.yul\":6271:6457   */\ntag_47:\n    /* \"#utility.yul\":6331:6451   */\ntag_129:\n    /* \"#utility.yul\":6348:6351   */\n  dup2\n    /* \"#utility.yul\":6341:6346   */\n  dup2\n    /* \"#utility.yul\":6338:6352   */\n  lt\n    /* \"#utility.yul\":6331:6451   */\n  iszero\n  tag_131\n  jumpi\n    /* \"#utility.yul\":6402:6441   */\n  tag_132\n    /* \"#utility.yul\":6439:6440   */\n  0x00\n    /* \"#utility.yul\":6432:6437   */\n  dup3\n    /* \"#utility.yul\":6402:6441   */\n  tag_46\n  jump\t// in\ntag_132:\n    /* \"#utility.yul\":6375:6376   */\n  0x01\n    /* \"#utility.yul\":6368:6373   */\n  dup2\n    /* \"#utility.yul\":6364:6377   */\n  add\n    /* \"#utility.yul\":6355:6377   */\n  swap1\n  pop\n    /* \"#utility.yul\":6331:6451   */\n  jump(tag_129)\ntag_131:\n    /* \"#utility.yul\":6271:6457   */\n  pop\n  pop\n  jump\t// out\n    /* \"#utility.yul\":6463:7006   */\ntag_48:\n    /* \"#utility.yul\":6564:6566   */\n  0x1f\n    /* \"#utility.yul\":6559:6562   */\n  dup3\n    /* \"#utility.yul\":6556:6567   */\n  gt\n    /* \"#utility.yul\":6553:6999   */\n  iszero\n  tag_134\n  jumpi\n    /* \"#utility.yul\":6598:6636   */\n  tag_135\n    /* \"#utility.yul\":6630:6635   */\n  dup2\n    /* \"#utility.yul\":6598:6636   */\n  tag_37\n  jump\t// in\ntag_135:\n    /* \"#utility.yul\":6682:6711   */\n  tag_136\n    /* \"#utility.yul\":6700:6710   */\n  dup5\n    /* \"#utility.yul\":6682:6711   */\n  tag_38\n  jump\t// in\ntag_136:\n    /* \"#utility.yul\":6672:6680   */\n  dup2\n    /* \"#utility.yul\":6668:6712   */\n  add\n    /* \"#utility.yul\":6865:6867   */\n  0x20\n    /* \"#utility.yul\":6853:6863   */\n  dup6\n    /* \"#utility.yul\":6850:6868   */\n  lt\n    /* \"#utility.yul\":6847:6896   */\n  iszero\n  tag_137\n  jumpi\n    /* \"#utility.yul\":6886:6894   */\n  dup2\n    /* \"#utility.yul\":6871:6894   */\n  swap1\n  pop\n    /* \"#utility.yul\":6847:6896   */\ntag_137:\n    /* \"#utility.yul\":6909:6989   */\n  tag_138\n    /* \"#utility.yul\":6965:6987   */\n  tag_139\n    /* \"#utility.yul\":6983:6986   */\n  dup6\n    /* \"#utility.yul\":6965:6987   */\n  tag_38\n  jump\t// in\ntag_139:\n    /* \"#utility.yul\":6955:6963   */\n  dup4\n    /* \"#utility.yul\":6951:6988   */\n  add\n    /* \"#utility.yul\":6938:6949   */\n  dup3\n    /* \"#utility.yul\":6909:6989   */\n  tag_47\n  jump\t// in\ntag_138:\n    /* \"#utility.yul\":6568:6999   */\n  pop\n  pop\n    /* \"#utility.yul\":6553:6999   */\ntag_134:\n    /* \"#utility.yul\":6463:7006   */\n  pop\n  pop\n  pop\n  jump\t// out\n    /* \"#utility.yul\":7012:7129   */\ntag_49:\n    /* \"#utility.yul\":7066:7074   */\n  0x00\n    /* \"#utility.yul\":7116:7121   */\n  dup3\n    /* \"#utility.yul\":7110:7114   */\n  dup3\n    /* \"#utility.yul\":7106:7122   */\n  shr\n    /* \"#utility.yul\":7085:7122   */\n  swap1\n  pop\n    /* \"#utility.yul\":7012:7129   */\n  swap3\n  swap2\n  pop\n  pop\n  jump\t// out\n    /* \"#utility.yul\":7135:7304   */\ntag_50:\n    /* \"#utility.yul\":7179:7185   */\n  0x00\n    /* \"#utility.yul\":7212:7263   */\n  tag_142\n    /* \"#utility.yul\":7260:7261   */\n  0x00\n    /* \"#utility.yul\":7256:7262   */\n  not\n    /* \"#utility.yul\":7248:7253   */\n  dup5\n    /* \"#utility.yul\":7245:7246   */\n  0x08\n    /* \"#utility.yul\":7241:7254   */\n  mul\n    /* \"#utility.yul\":7212:7263   */\n  tag_49\n  jump\t// in\ntag_142:\n    /* \"#utility.yul\":7208:7264   */\n  not\n    /* \"#utility.yul\":7293:7297   */\n  dup1\n    /* \"#utility.yul\":7287:7291   */\n  dup4\n    /* \"#utility.yul\":7283:7298   */\n  and\n    /* \"#utility.yul\":7273:7298   */\n  swap2\n  pop\n    /* \"#utility.yul\":7186:7304   */\n  pop\n    /* \"#utility.yul\":7135:7304   */\n  swap3\n  swap2\n  pop\n  pop\n  jump\t// out\n    /* \"#utility.yul\":7309:7604   */\ntag_51:\n    /* \"#utility.yul\":7385:7389   */\n  0x00\n    /* \"#utility.yul\":7531:7560   */\n  tag_144\n    /* \"#utility.yul\":7556:7559   */\n  dup4\n    /* \"#utility.yul\":7550:7554   */\n  dup4\n    /* \"#utility.yul\":7531:7560   */\n  tag_50\n  jump\t// in\ntag_144:\n    /* \"#utility.yul\":7523:7560   */\n  swap2\n  pop\n    /* \"#utility.yul\":7593:7596   */\n  dup3\n    /* \"#utility.yul\":7590:7591   */\n  0x02\n    /* \"#utility.yul\":7586:7597   */\n  mul\n    /* \"#utility.yul\":7580:7584   */\n  dup3\n    /* \"#utility.yul\":7577:7598   */\n  or\n    /* \"#utility.yul\":7569:7598   */\n  swap1\n  pop\n    /* \"#utility.yul\":7309:7604   */\n  swap3\n  swap2\n  pop\n  pop\n  jump\t// out\n    /* \"#utility.yul\":7609:9004   */\ntag_7:\n    /* \"#utility.yul\":7726:7763   */\n  tag_146\n    /* \"#utility.yul\":7759:7762   */\n  dup3\n    /* \"#utility.yul\":7726:7763   */\n  tag_34\n  jump\t// in\ntag_146:\n    /* \"#utility.yul\":7828:7846   */\n  0xffffffffffffffff\n    /* \"#utility.yul\":7820:7826   */\n  dup2\n    /* \"#utility.yul\":7817:7847   */\n  gt\n    /* \"#utility.yul\":7814:7870   */\n  iszero\n  tag_147\n  jumpi\n    /* \"#utility.yul\":7850:7868   */\n  tag_148\n  tag_24\n  jump\t// in\ntag_148:\n    /* \"#utility.yul\":7814:7870   */\ntag_147:\n    /* \"#utility.yul\":7894:7932   */\n  tag_149\n    /* \"#utility.yul\":7926:7930   */\n  dup3\n    /* \"#utility.yul\":7920:7931   */\n  sload\n    /* \"#utility.yul\":7894:7932   */\n  tag_36\n  jump\t// in\ntag_149:\n    /* \"#utility.yul\":7979:8046   */\n  tag_150\n    /* \"#utility.yul\":8039:8045   */\n  dup3\n    /* \"#utility.yul\":8031:8037   */\n  dup3\n    /* \"#utility.yul\":8025:8029   */\n  dup6\n    /* \"#utility.yul\":7979:8046   */\n  tag_48\n  jump\t// in\ntag_150:\n    /* \"#utility.yul\":8073:8074   */\n  0x00\n    /* \"#utility.yul\":8097:8101   */\n  0x20\n    /* \"#utility.yul\":8084:8101   */\n  swap1\n  pop\n    /* \"#utility.yul\":8129:8131   */\n  0x1f\n    /* \"#utility.yul\":8121:8127   */\n  dup4\n    /* \"#utility.yul\":8118:8132   */\n  gt\n    /* \"#utility.yul\":8146:8147   */\n  0x01\n    /* \"#utility.yul\":8141:8759   */\n  dup2\n  eq\n  tag_152\n  jumpi\n    /* \"#utility.yul\":8803:8804   */\n  0x00\n    /* \"#utility.yul\":8820:8826   */\n  dup5\n    /* \"#utility.yul\":8817:8894   */\n  iszero\n  tag_153\n  jumpi\n    /* \"#utility.yul\":8869:8878   */\n  dup3\n    /* \"#utility.yul\":8864:8867   */\n  dup8\n    /* \"#utility.yul\":8860:8879   */\n  add\n    /* \"#utility.yul\":8854:8880   */\n  mload\n    /* \"#utility.yul\":8845:8880   */\n  swap1\n  pop\n    /* \"#utility.yul\":8817:8894   */\ntag_153:\n    /* \"#utility.yul\":8920:8987   */\n  tag_154\n    /* \"#utility.yul\":8980:8986   */\n  dup6\n    /* \"#utility.yul\":8973:8978   */\n  dup3\n    /* \"#utility.yul\":8920:8987   */\n  tag_51\n  jump\t// in\ntag_154:\n    /* \"#utility.yul\":8914:8918   */\n  dup7\n    /* \"#utility.yul\":8907:8988   */\n  sstore\n    /* \"#utility.yul\":8776:8998   */\n  pop\n    /* \"#utility.yul\":8111:8998   */\n  jump(tag_151)\n    /* \"#utility.yul\":8141:8759   */\ntag_152:\n    /* \"#utility.yul\":8193:8197   */\n  0x1f\n    /* \"#utility.yul\":8189:8198   */\n  not\n    /* \"#utility.yul\":8181:8187   */\n  dup5\n    /* \"#utility.yul\":8177:8199   */\n  and\n    /* \"#utility.yul\":8227:8264   */\n  tag_155\n    /* \"#utility.yul\":8259:8263   */\n  dup7\n    /* \"#utility.yul\":8227:8264   */\n  tag_37\n  jump\t// in\ntag_155:\n    /* \"#utility.yul\":8286:8287   */\n  0x00\n    /* \"#utility.yul\":8300:8508   */\ntag_156:\n    /* \"#utility.yul\":8314:8321   */\n  dup3\n    /* \"#utility.yul\":8311:8312   */\n  dup2\n    /* \"#utility.yul\":8308:8322   */\n  lt\n    /* \"#utility.yul\":8300:8508   */\n  iszero\n  tag_158\n  jumpi\n    /* \"#utility.yul\":8393:8402   */\n  dup5\n    /* \"#utility.yul\":8388:8391   */\n  dup10\n    /* \"#utility.yul\":8384:8403   */\n  add\n    /* \"#utility.yul\":8378:8404   */\n  mload\n    /* \"#utility.yul\":8370:8376   */\n  dup3\n    /* \"#utility.yul\":8363:8405   */\n  sstore\n    /* \"#utility.yul\":8444:8445   */\n  0x01\n    /* \"#utility.yul\":8436:8442   */\n  dup3\n    /* \"#utility.yul\":8432:8446   */\n  add\n    /* \"#utility.yul\":8422:8446   */\n  swap2\n  pop\n    /* \"#utility.yul\":8491:8493   */\n  0x20\n    /* \"#utility.yul\":8480:8489   */\n  dup6\n    /* \"#utility.yul\":8476:8494   */\n  add\n    /* \"#utility.yul\":8463:8494   */\n  swap5\n  pop\n    /* \"#utility.yul\":8337:8341   */\n  0x20\n    /* \"#utility.yul\":8334:8335   */\n  dup2\n    /* \"#utility.yul\":8330:8342   */\n  add\n    /* \"#utility.yul\":8325:8342   */\n  swap1\n  pop\n    /* \"#utility.yul\":8300:8508   */\n  jump(tag_156)\ntag_158:\n    /* \"#utility.yul\":8536:8542   */\n  dup7\n    /* \"#utility.yul\":8527:8534   */\n  dup4\n    /* \"#utility.yul\":8524:8543   */\n  lt\n    /* \"#utility.yul\":8521:8700   */\n  iszero\n  tag_159\n  jumpi\n    /* \"#utility.yul\":8594:8603   */\n  dup5\n    /* \"#utility.yul\":8589:8592   */\n  dup10\n    /* \"#utility.yul\":8585:8604   */\n  add\n    /* \"#utility.yul\":8579:8605   */\n  mload\n    /* \"#utility.yul\":8637:8685   */\n  tag_160\n    /* \"#utility.yul\":8679:8683   */\n  0x1f\n    /* \"#utility.yul\":8671:8677   */\n  dup10\n    /* \"#utility.yul\":8667:8684   */\n  and\n    /* \"#utility.yul\":8656:8665   */\n  dup3\n    /* \"#utility.yul\":8637:8685   */\n  tag_50\n  jump\t// in\ntag_160:\n    /* \"#utility.yul\":8629:8635   */\n  dup4\n    /* \"#utility.yul\":8622:8686   */\n  sstore\n    /* \"#utility.yul\":8544:8700   */\n  pop\n    /* \"#utility.yul\":8521:8700   */\ntag_159:\n    /* \"#utility.yul\":8746:8747   */\n  0x01\n    /* \"#utility.yul\":8742:8743   */\n  0x02\n    /* \"#utility.yul\":8734:8740   */\n  dup9\n    /* \"#utility.yul\":8730:8744   */\n  mul\n    /* \"#utility.yul\":8726:8748   */\n  add\n    /* \"#utility.yul\":8720:8724   */\n  dup9\n    /* \"#utility.yul\":8713:8749   */\n  sstore\n    /* \"#utility.yul\":8148:8759   */\n  pop\n  pop\n  pop\n    /* \"#utility.yul\":8111:8998   */\ntag_151:\n  pop\n    /* \"#utility.yul\":7701:9004   */\n  pop\n  pop\n  pop\n    /* \"#utility.yul\":7609:9004   */\n  pop\n  pop\n  jump\t// out\n    /* \"#utility.yul\":9010:9190   */\ntag_52:\n    /* \"#utility.yul\":9058:9135   */\n  0x4e487b7100000000000000000000000000000000000000000000000000000000\n    /* \"#utility.yul\":9055:9056   */\n  0x00\n    /* \"#utility.yul\":9048:9136   */\n  mstore\n    /* \"#utility.yul\":9155:9159   */\n  0x11\n    /* \"#utility.yul\":9152:9153   */\n  0x04\n    /* \"#utility.yul\":9145:9160   */\n  mstore\n    /* \"#utility.yul\":9179:9183   */\n  0x24\n    /* \"#utility.yul\":9176:9177   */\n  0x00\n    /* \"#utility.yul\":9169:9184   */\n  revert\n    /* \"#utility.yul\":9196:9606   */\ntag_17:\n    /* \"#utility.yul\":9236:9243   */\n  0x00\n    /* \"#utility.yul\":9259:9279   */\n  tag_163\n    /* \"#utility.yul\":9277:9278   */\n  dup3\n    /* \"#utility.yul\":9259:9279   */\n  tag_31\n  jump\t// in\ntag_163:\n    /* \"#utility.yul\":9254:9279   */\n  swap2\n  pop\n    /* \"#utility.yul\":9293:9313   */\n  tag_164\n    /* \"#utility.yul\":9311:9312   */\n  dup4\n    /* \"#utility.yul\":9293:9313   */\n  tag_31\n  jump\t// in\ntag_164:\n    /* \"#utility.yul\":9288:9313   */\n  swap3\n  pop\n    /* \"#utility.yul\":9348:9349   */\n  dup3\n    /* \"#utility.yul\":9345:9346   */\n  dup3\n    /* \"#utility.yul\":9341:9350   */\n  mul\n    /* \"#utility.yul\":9370:9400   */\n  tag_165\n    /* \"#utility.yul\":9388:9399   */\n  dup2\n    /* \"#utility.yul\":9370:9400   */\n  tag_31\n  jump\t// in\ntag_165:\n    /* \"#utility.yul\":9359:9400   */\n  swap2\n  pop\n    /* \"#utility.yul\":9549:9550   */\n  dup3\n    /* \"#utility.yul\":9540:9547   */\n  dup3\n    /* \"#utility.yul\":9536:9551   */\n  div\n    /* \"#utility.yul\":9533:9534   */\n  dup5\n    /* \"#utility.yul\":9530:9552   */\n  eq\n    /* \"#utility.yul\":9510:9511   */\n  dup4\n    /* \"#utility.yul\":9503:9512   */\n  iszero\n    /* \"#utility.yul\":9483:9566   */\n  or\n    /* \"#utility.yul\":9460:9599   */\n  tag_166\n  jumpi\n    /* \"#utility.yul\":9579:9597   */\n  tag_167\n  tag_52\n  jump\t// in\ntag_167:\n    /* \"#utility.yul\":9460:9599   */\ntag_166:\n    /* \"#utility.yul\":9244:9606   */\n  pop\n    /* \"#utility.yul\":9196:9606   */\n  swap3\n  swap2\n  pop\n  pop\n  jump\t// out\n    /* \"minerpunk/ERC721A/ERC721A.sol\":1033:24301  contract ERC721A is Context, ERC165, IERC721A,mine {... */\ntag_13:\n  dataSize(sub_0)\n  dup1\n  dataOffset(sub_0)\n  0x00\n  codecopy\n  0x00\n  return\nstop\n\nsub_0: assembly {\n        /* \"minerpunk/ERC721A/ERC721A.sol\":1033:24301  contract ERC721A is Context, ERC165, IERC721A,mine {... */\n      mstore(0x40, 0x80)\n      callvalue\n      dup1\n      iszero\n      tag_1\n      jumpi\n      0x00\n      dup1\n      revert\n    tag_1:\n      pop\n      jumpi(tag_2, lt(calldatasize, 0x04))\n      shr(0xe0, calldataload(0x00))\n      dup1\n      0x95d89b41\n      gt\n      tag_23\n      jumpi\n      dup1\n      0xd5abeb01\n      gt\n      tag_24\n      jumpi\n      dup1\n      0xd5abeb01\n      eq\n      tag_18\n      jumpi\n      dup1\n      0xdb3ad22c\n      eq\n      tag_19\n      jumpi\n      dup1\n      0xe29301f9\n      eq\n      tag_20\n      jumpi\n      dup1\n      0xe985e9c5\n      eq\n      tag_21\n      jumpi\n      dup1\n      0xeff0730d\n      eq\n      tag_22\n      jumpi\n      jump(tag_2)\n    tag_24:\n      dup1\n      0x95d89b41\n      eq\n      tag_13\n      jumpi\n      dup1\n      0xa22cb465\n      eq\n      tag_14\n      jumpi\n      dup1\n      0xb88d4fde\n      eq\n      tag_15\n      jumpi\n      dup1\n      0xb8ba6007\n      eq\n      tag_16\n      jumpi\n      dup1\n      0xc87b56dd\n      eq\n      tag_17\n      jumpi\n      jump(tag_2)\n    tag_23:\n      dup1\n      0x23b872dd\n      gt\n      tag_25\n      jumpi\n      dup1\n      0x23b872dd\n      eq\n      tag_8\n      jumpi\n      dup1\n      0x42842e0e\n      eq\n      tag_9\n      jumpi\n      dup1\n      0x4be3403c\n      eq\n      tag_10\n      jumpi\n      dup1\n      0x6352211e\n      eq\n      tag_11\n      jumpi\n      dup1\n      0x70a08231\n      eq\n      tag_12\n      jumpi\n      jump(tag_2)\n    tag_25:\n      dup1\n      0x01ffc9a7\n      eq\n      tag_3\n      jumpi\n      dup1\n      0x06fdde03\n      eq\n      tag_4\n      jumpi\n      dup1\n      0x081812fc\n      eq\n      tag_5\n      jumpi\n      dup1\n      0x095ea7b3\n      eq\n      tag_6\n      jumpi\n      dup1\n      0x18160ddd\n      eq\n      tag_7\n      jumpi\n    tag_2:\n      0x00\n      dup1\n      revert\n        /* \"minerpunk/ERC721A/ERC721A.sol\":5668:5973  function supportsInterface(bytes4 interfaceId) public view virtual override(ERC165, IERC165) returns (bool) {... */\n    tag_3:\n      tag_26\n      0x04\n      dup1\n      calldatasize\n      sub\n      dup2\n      add\n      swap1\n      tag_27\n      swap2\n      swap1\n      tag_28\n      jump\t// in\n    tag_27:\n      tag_29\n      jump\t// in\n    tag_26:\n      mload(0x40)\n      tag_30\n      swap2\n      swap1\n      tag_31\n      jump\t// in\n    tag_30:\n      mload(0x40)\n      dup1\n      swap2\n      sub\n      swap1\n      return\n        /* \"minerpunk/ERC721A/ERC721A.sol\":8784:8884  function name() public view virtual override returns (string memory) {... */\n    tag_4:\n      tag_32\n      tag_33\n      jump\t// in\n    tag_32:\n      mload(0x40)\n      tag_34\n      swap2\n      swap1\n      tag_35\n      jump\t// in\n    tag_34:\n      mload(0x40)\n      dup1\n      swap2\n      sub\n      swap1\n      return\n        /* \"minerpunk/ERC721A/ERC721A.sol\":10369:10573  function getApproved(uint256 tokenId) public view override returns (address) {... */\n    tag_5:\n      tag_36\n      0x04\n      dup1\n      calldatasize\n      sub\n      dup2\n      add\n      swap1\n      tag_37\n      swap2\n      swap1\n      tag_38\n      jump\t// in\n    tag_37:\n      tag_39\n      jump\t// in\n    tag_36:\n      mload(0x40)\n      tag_40\n      swap2\n      swap1\n      tag_41\n      jump\t// in\n    tag_40:\n      mload(0x40)\n      dup1\n      swap2\n      sub\n      swap1\n      return\n        /* \"minerpunk/ERC721A/ERC721A.sol\":9931:10303  function approve(address to, uint256 tokenId) public override {... */\n    tag_6:\n      tag_42\n      0x04\n      dup1\n      calldatasize\n      sub\n      dup2\n      add\n      swap1\n      tag_43\n      swap2\n      swap1\n      tag_44\n      jump\t// in\n    tag_43:\n      tag_45\n      jump\t// in\n    tag_42:\n      stop\n        /* \"minerpunk/ERC721A/ERC721A.sol\":4379:4691  function totalSupply() public view override returns (uint256) {... */\n    tag_7:\n      tag_46\n      tag_47\n      jump\t// in\n    tag_46:\n      mload(0x40)\n      tag_48\n      swap2\n      swap1\n      tag_49\n      jump\t// in\n    tag_48:\n      mload(0x40)\n      dup1\n      swap2\n      sub\n      swap1\n      return\n        /* \"minerpunk/ERC721A/ERC721A.sol\":11234:11404  function transferFrom(... */\n    tag_8:\n      tag_50\n      0x04\n      dup1\n      calldatasize\n      sub\n      dup2\n      add\n      swap1\n      tag_51\n      swap2\n      swap1\n      tag_52\n      jump\t// in\n    tag_51:\n      tag_53\n      jump\t// in\n    tag_50:\n      stop\n        /* \"minerpunk/ERC721A/ERC721A.sol\":11475:11660  function safeTransferFrom(... */\n    tag_9:\n      tag_54\n      0x04\n      dup1\n      calldatasize\n      sub\n      dup2\n      add\n      swap1\n      tag_55\n      swap2\n      swap1\n      tag_52\n      jump\t// in\n    tag_55:\n      tag_56\n      jump\t// in\n    tag_54:\n      stop\n        /* \"minerpunk/ERC721A/ERC721A.sol\":3221:3582  function blockStatus (uint256 _BlockNumber)public view  override returns (uint256){... */\n    tag_10:\n      tag_57\n      0x04\n      dup1\n      calldatasize\n      sub\n      dup2\n      add\n      swap1\n      tag_58\n      swap2\n      swap1\n      tag_38\n      jump\t// in\n    tag_58:\n      tag_59\n      jump\t// in\n    tag_57:\n      mload(0x40)\n      tag_60\n      swap2\n      swap1\n      tag_49\n      jump\t// in\n    tag_60:\n      mload(0x40)\n      dup1\n      swap2\n      sub\n      swap1\n      return\n        /* \"minerpunk/ERC721A/ERC721A.sol\":8592:8717  function ownerOf(uint256 tokenId) public view override returns (address) {... */\n    tag_11:\n      tag_61\n      0x04\n      dup1\n      calldatasize\n      sub\n      dup2\n      add\n      swap1\n      tag_62\n      swap2\n      swap1\n      tag_38\n      jump\t// in\n    tag_62:\n      tag_63\n      jump\t// in\n    tag_61:\n      mload(0x40)\n      tag_64\n      swap2\n      swap1\n      tag_41\n      jump\t// in\n    tag_64:\n      mload(0x40)\n      dup1\n      swap2\n      sub\n      swap1\n      return\n        /* \"minerpunk/ERC721A/ERC721A.sol\":6037:6243  function balanceOf(address owner) public view override returns (uint256) {... */\n    tag_12:\n      tag_65\n      0x04\n      dup1\n      calldatasize\n      sub\n      dup2\n      add\n      swap1\n      tag_66\n      swap2\n      swap1\n      tag_67\n      jump\t// in\n    tag_66:\n      tag_68\n      jump\t// in\n    tag_65:\n      mload(0x40)\n      tag_69\n      swap2\n      swap1\n      tag_49\n      jump\t// in\n    tag_69:\n      mload(0x40)\n      dup1\n      swap2\n      sub\n      swap1\n      return\n        /* \"minerpunk/ERC721A/ERC721A.sol\":8953:9057  function symbol() public view virtual override returns (string memory) {... */\n    tag_13:\n      tag_70\n      tag_71\n      jump\t// in\n    tag_70:\n      mload(0x40)\n      tag_72\n      swap2\n      swap1\n      tag_35\n      jump\t// in\n    tag_72:\n      mload(0x40)\n      dup1\n      swap2\n      sub\n      swap1\n      return\n        /* \"minerpunk/ERC721A/ERC721A.sol\":10645:10932  function setApprovalForAll(address operator, bool approved) public virtual override {... */\n    tag_14:\n      tag_73\n      0x04\n      dup1\n      calldatasize\n      sub\n      dup2\n      add\n      swap1\n      tag_74\n      swap2\n      swap1\n      tag_75\n      jump\t// in\n    tag_74:\n      tag_76\n      jump\t// in\n    tag_73:\n      stop\n        /* \"minerpunk/ERC721A/ERC721A.sol\":11731:12101  function safeTransferFrom(... */\n    tag_15:\n      tag_77\n      0x04\n      dup1\n      calldatasize\n      sub\n      dup2\n      add\n      swap1\n      tag_78\n      swap2\n      swap1\n      tag_79\n      jump\t// in\n    tag_78:\n      tag_80\n      jump\t// in\n    tag_77:\n      stop\n        /* \"minerpunk/ERC721A/ERC721A.sol\":2821:3202  function MineStatus(address user)public view override returns(uint256){           ... */\n    tag_16:\n      tag_81\n      0x04\n      dup1\n      calldatasize\n      sub\n      dup2\n      add\n      swap1\n      tag_82\n      swap2\n      swap1\n      tag_67\n      jump\t// in\n    tag_82:\n      tag_83\n      jump\t// in\n    tag_81:\n      mload(0x40)\n      tag_84\n      swap2\n      swap1\n      tag_49\n      jump\t// in\n    tag_84:\n      mload(0x40)\n      dup1\n      swap2\n      sub\n      swap1\n      return\n        /* \"minerpunk/ERC721A/ERC721A.sol\":9128:9446  function tokenURI(uint256 tokenId) public view virtual override returns (string memory) {... */\n    tag_17:\n      tag_85\n      0x04\n      dup1\n      calldatasize\n      sub\n      dup2\n      add\n      swap1\n      tag_86\n      swap2\n      swap1\n      tag_38\n      jump\t// in\n    tag_86:\n      tag_87\n      jump\t// in\n    tag_85:\n      mload(0x40)\n      tag_88\n      swap2\n      swap1\n      tag_35\n      jump\t// in\n    tag_88:\n      mload(0x40)\n      dup1\n      swap2\n      sub\n      swap1\n      return\n        /* \"minerpunk/ERC721A/ERC721A.sol\":4856:5020  function maxSupply() public view  returns (uint256) {       ... */\n    tag_18:\n      tag_89\n      tag_90\n      jump\t// in\n    tag_89:\n      mload(0x40)\n      tag_91\n      swap2\n      swap1\n      tag_49\n      jump\t// in\n    tag_91:\n      mload(0x40)\n      dup1\n      swap2\n      sub\n      swap1\n      return\n        /* \"minerpunk/ERC721A/ERC721A.sol\":4701:4846  function totalPower() public view  returns (uint256) {       ... */\n    tag_19:\n      tag_92\n      tag_93\n      jump\t// in\n    tag_92:\n      mload(0x40)\n      tag_94\n      swap2\n      swap1\n      tag_49\n      jump\t// in\n    tag_94:\n      mload(0x40)\n      dup1\n      swap2\n      sub\n      swap1\n      return\n        /* \"minerpunk/ERC721A/ERC721A.sol\":3603:4037  function tokenIDPower (uint256 tokenId)public view override returns(uint256){  ... */\n    tag_20:\n      tag_95\n      0x04\n      dup1\n      calldatasize\n      sub\n      dup2\n      add\n      swap1\n      tag_96\n      swap2\n      swap1\n      tag_38\n      jump\t// in\n    tag_96:\n      tag_97\n      jump\t// in\n    tag_95:\n      mload(0x40)\n      tag_98\n      swap2\n      swap1\n      tag_49\n      jump\t// in\n    tag_98:\n      mload(0x40)\n      dup1\n      swap2\n      sub\n      swap1\n      return\n        /* \"minerpunk/ERC721A/ERC721A.sol\":11003:11167  function isApprovedForAll(address owner, address operator) public view virtual override returns (bool) {... */\n    tag_21:\n      tag_99\n      0x04\n      dup1\n      calldatasize\n      sub\n      dup2\n      add\n      swap1\n      tag_100\n      swap2\n      swap1\n      tag_101\n      jump\t// in\n    tag_100:\n      tag_102\n      jump\t// in\n    tag_99:\n      mload(0x40)\n      tag_103\n      swap2\n      swap1\n      tag_31\n      jump\t// in\n    tag_103:\n      mload(0x40)\n      dup1\n      swap2\n      sub\n      swap1\n      return\n        /* \"minerpunk/ERC721A/ERC721A.sol\":5037:5208  function mineInfo(address user, uint256 number) public view  returns (uint256) {       ... */\n    tag_22:\n      tag_104\n      0x04\n      dup1\n      calldatasize\n      sub\n      dup2\n      add\n      swap1\n      tag_105\n      swap2\n      swap1\n      tag_44\n      jump\t// in\n    tag_105:\n      tag_106\n      jump\t// in\n    tag_104:\n      mload(0x40)\n      tag_107\n      swap2\n      swap1\n      tag_49\n      jump\t// in\n    tag_107:\n      mload(0x40)\n      dup1\n      swap2\n      sub\n      swap1\n      return\n        /* \"minerpunk/ERC721A/ERC721A.sol\":5668:5973  function supportsInterface(bytes4 interfaceId) public view virtual override(ERC165, IERC165) returns (bool) {... */\n    tag_29:\n        /* \"minerpunk/ERC721A/ERC721A.sol\":5770:5774  bool */\n      0x00\n        /* \"minerpunk/ERC721A/ERC721A.sol\":5822:5847  type(IERC721).interfaceId */\n      0x80ac58cd00000000000000000000000000000000000000000000000000000000\n        /* \"minerpunk/ERC721A/ERC721A.sol\":5807:5847  interfaceId == type(IERC721).interfaceId */\n      not(0xffffffffffffffffffffffffffffffffffffffffffffffffffffffff)\n      and\n        /* \"minerpunk/ERC721A/ERC721A.sol\":5807:5818  interfaceId */\n      dup3\n        /* \"minerpunk/ERC721A/ERC721A.sol\":5807:5847  interfaceId == type(IERC721).interfaceId */\n      not(0xffffffffffffffffffffffffffffffffffffffffffffffffffffffff)\n      and\n      eq\n        /* \"minerpunk/ERC721A/ERC721A.sol\":5807:5912  interfaceId == type(IERC721).interfaceId ||... */\n      dup1\n      tag_110\n      jumpi\n      pop\n        /* \"minerpunk/ERC721A/ERC721A.sol\":5879:5912  type(IERC721Metadata).interfaceId */\n      0x5b5e139f00000000000000000000000000000000000000000000000000000000\n        /* \"minerpunk/ERC721A/ERC721A.sol\":5864:5912  interfaceId == type(IERC721Metadata).interfaceId */\n      not(0xffffffffffffffffffffffffffffffffffffffffffffffffffffffff)\n      and\n        /* \"minerpunk/ERC721A/ERC721A.sol\":5864:5875  interfaceId */\n      dup3\n        /* \"minerpunk/ERC721A/ERC721A.sol\":5864:5912  interfaceId == type(IERC721Metadata).interfaceId */\n      not(0xffffffffffffffffffffffffffffffffffffffffffffffffffffffff)\n      and\n      eq\n        /* \"minerpunk/ERC721A/ERC721A.sol\":5807:5912  interfaceId == type(IERC721).interfaceId ||... */\n    tag_110:\n        /* \"minerpunk/ERC721A/ERC721A.sol\":5807:5965  interfaceId == type(IERC721).interfaceId ||... */\n      dup1\n      tag_111\n      jumpi\n      pop\n        /* \"minerpunk/ERC721A/ERC721A.sol\":5929:5965  super.supportsInterface(interfaceId) */\n      tag_112\n        /* \"minerpunk/ERC721A/ERC721A.sol\":5953:5964  interfaceId */\n      dup3\n        /* \"minerpunk/ERC721A/ERC721A.sol\":5929:5952  super.supportsInterface */\n      tag_113\n        /* \"minerpunk/ERC721A/ERC721A.sol\":5929:5965  super.supportsInterface(interfaceId) */\n      jump\t// in\n    tag_112:\n        /* \"minerpunk/ERC721A/ERC721A.sol\":5807:5965  interfaceId == type(IERC721).interfaceId ||... */\n    tag_111:\n        /* \"minerpunk/ERC721A/ERC721A.sol\":5787:5965  return... */\n      swap1\n      pop\n        /* \"minerpunk/ERC721A/ERC721A.sol\":5668:5973  function supportsInterface(bytes4 interfaceId) public view virtual override(ERC165, IERC165) returns (bool) {... */\n      swap2\n      swap1\n      pop\n      jump\t// out\n        /* \"minerpunk/ERC721A/ERC721A.sol\":8784:8884  function name() public view virtual override returns (string memory) {... */\n    tag_33:\n        /* \"minerpunk/ERC721A/ERC721A.sol\":8838:8851  string memory */\n      0x60\n        /* \"minerpunk/ERC721A/ERC721A.sol\":8871:8876  _name */\n      0x07\n        /* \"minerpunk/ERC721A/ERC721A.sol\":8864:8876  return _name */\n      dup1\n      sload\n      tag_115\n      swap1\n      tag_116\n      jump\t// in\n    tag_115:\n      dup1\n      0x1f\n      add\n      0x20\n      dup1\n      swap2\n      div\n      mul\n      0x20\n      add\n      mload(0x40)\n      swap1\n      dup2\n      add\n      0x40\n      mstore\n      dup1\n      swap3\n      swap2\n      swap1\n      dup2\n      dup2\n      mstore\n      0x20\n      add\n      dup3\n      dup1\n      sload\n      tag_117\n      swap1\n      tag_116\n      jump\t// in\n    tag_117:\n      dup1\n      iszero\n      tag_118\n      jumpi\n      dup1\n      0x1f\n      lt\n      tag_119\n      jumpi\n      0x0100\n      dup1\n      dup4\n      sload\n      div\n      mul\n      dup4\n      mstore\n      swap2\n      0x20\n      add\n      swap2\n      jump(tag_118)\n    tag_119:\n      dup3\n      add\n      swap2\n      swap1\n      0x00\n      mstore\n      keccak256(0x00, 0x20)\n      swap1\n    tag_120:\n      dup2\n      sload\n      dup2\n      mstore\n      swap1\n      0x01\n      add\n      swap1\n      0x20\n      add\n      dup1\n      dup4\n      gt\n      tag_120\n      jumpi\n      dup3\n      swap1\n      sub\n      0x1f\n      and\n      dup3\n      add\n      swap2\n    tag_118:\n      pop\n      pop\n      pop\n      pop\n      pop\n      swap1\n      pop\n        /* \"minerpunk/ERC721A/ERC721A.sol\":8784:8884  function name() public view virtual override returns (string memory) {... */\n      swap1\n      jump\t// out\n        /* \"minerpunk/ERC721A/ERC721A.sol\":10369:10573  function getApproved(uint256 tokenId) public view override returns (address) {... */\n    tag_39:\n        /* \"minerpunk/ERC721A/ERC721A.sol\":10437:10444  address */\n      0x00\n        /* \"minerpunk/ERC721A/ERC721A.sol\":10462:10478  _exists(tokenId) */\n      tag_122\n        /* \"minerpunk/ERC721A/ERC721A.sol\":10470:10477  tokenId */\n      dup3\n        /* \"minerpunk/ERC721A/ERC721A.sol\":10462:10469  _exists */\n      tag_123\n        /* \"minerpunk/ERC721A/ERC721A.sol\":10462:10478  _exists(tokenId) */\n      jump\t// in\n    tag_122:\n        /* \"minerpunk/ERC721A/ERC721A.sol\":10457:10521  if (!_exists(tokenId)) revert ApprovalQueryForNonexistentToken() */\n      tag_124\n      jumpi\n        /* \"minerpunk/ERC721A/ERC721A.sol\":10487:10521  ApprovalQueryForNonexistentToken() */\n      mload(0x40)\n      0xcf4700e400000000000000000000000000000000000000000000000000000000\n      dup2\n      mstore\n      0x04\n      add\n      mload(0x40)\n      dup1\n      swap2\n      sub\n      swap1\n      revert\n        /* \"minerpunk/ERC721A/ERC721A.sol\":10457:10521  if (!_exists(tokenId)) revert ApprovalQueryForNonexistentToken() */\n    tag_124:\n        /* \"minerpunk/ERC721A/ERC721A.sol\":10541:10556  _tokenApprovals */\n      0x0b\n        /* \"minerpunk/ERC721A/ERC721A.sol\":10541:10565  _tokenApprovals[tokenId] */\n      0x00\n        /* \"minerpunk/ERC721A/ERC721A.sol\":10557:10564  tokenId */\n      dup4\n        /* \"minerpunk/ERC721A/ERC721A.sol\":10541:10565  _tokenApprovals[tokenId] */\n      dup2\n      mstore\n      0x20\n      add\n      swap1\n      dup2\n      mstore\n      0x20\n      add\n      0x00\n      keccak256\n      0x00\n      swap1\n      sload\n      swap1\n      0x0100\n      exp\n      swap1\n      div\n      0xffffffffffffffffffffffffffffffffffffffff\n      and\n        /* \"minerpunk/ERC721A/ERC721A.sol\":10534:10565  return _tokenApprovals[tokenId] */\n      swap1\n      pop\n        /* \"minerpunk/ERC721A/ERC721A.sol\":10369:10573  function getApproved(uint256 tokenId) public view override returns (address) {... */\n      swap2\n      swap1\n      pop\n      jump\t// out\n        /* \"minerpunk/ERC721A/ERC721A.sol\":9931:10303  function approve(address to, uint256 tokenId) public override {... */\n    tag_45:\n        /* \"minerpunk/ERC721A/ERC721A.sol\":10004:10017  address owner */\n      0x00\n        /* \"minerpunk/ERC721A/ERC721A.sol\":10020:10044  ERC721A.ownerOf(tokenId) */\n      tag_126\n        /* \"minerpunk/ERC721A/ERC721A.sol\":10036:10043  tokenId */\n      dup3\n        /* \"minerpunk/ERC721A/ERC721A.sol\":10020:10035  ERC721A.ownerOf */\n      tag_63\n        /* \"minerpunk/ERC721A/ERC721A.sol\":10020:10044  ERC721A.ownerOf(tokenId) */\n      jump\t// in\n    tag_126:\n        /* \"minerpunk/ERC721A/ERC721A.sol\":10004:10044  address owner = ERC721A.ownerOf(tokenId) */\n      swap1\n      pop\n        /* \"minerpunk/ERC721A/ERC721A.sol\":10065:10070  owner */\n      dup1\n        /* \"minerpunk/ERC721A/ERC721A.sol\":10059:10070  to == owner */\n      0xffffffffffffffffffffffffffffffffffffffff\n      and\n        /* \"minerpunk/ERC721A/ERC721A.sol\":10059:10061  to */\n      dup4\n        /* \"minerpunk/ERC721A/ERC721A.sol\":10059:10070  to == owner */\n      0xffffffffffffffffffffffffffffffffffffffff\n      and\n      sub\n        /* \"minerpunk/ERC721A/ERC721A.sol\":10055:10103  if (to == owner) revert ApprovalToCurrentOwner() */\n      tag_127\n      jumpi\n        /* \"minerpunk/ERC721A/ERC721A.sol\":10079:10103  ApprovalToCurrentOwner() */\n      mload(0x40)\n      0x943f7b8c00000000000000000000000000000000000000000000000000000000\n      dup2\n      mstore\n      0x04\n      add\n      mload(0x40)\n      dup1\n      swap2\n      sub\n      swap1\n      revert\n        /* \"minerpunk/ERC721A/ERC721A.sol\":10055:10103  if (to == owner) revert ApprovalToCurrentOwner() */\n    tag_127:\n        /* \"minerpunk/ERC721A/ERC721A.sol\":10136:10141  owner */\n      dup1\n        /* \"minerpunk/ERC721A/ERC721A.sol\":10120:10141  _msgSender() != owner */\n      0xffffffffffffffffffffffffffffffffffffffff\n      and\n        /* \"minerpunk/ERC721A/ERC721A.sol\":10120:10132  _msgSender() */\n      tag_128\n        /* \"minerpunk/ERC721A/ERC721A.sol\":10120:10130  _msgSender */\n      tag_129\n        /* \"minerpunk/ERC721A/ERC721A.sol\":10120:10132  _msgSender() */\n      jump\t// in\n    tag_128:\n        /* \"minerpunk/ERC721A/ERC721A.sol\":10120:10141  _msgSender() != owner */\n      0xffffffffffffffffffffffffffffffffffffffff\n      and\n      eq\n        /* \"minerpunk/ERC721A/ERC721A.sol\":10116:10255  if (_msgSender() != owner) if(!isApprovedForAll(owner, _msgSender())) {... */\n      tag_130\n      jumpi\n        /* \"minerpunk/ERC721A/ERC721A.sol\":10147:10184  isApprovedForAll(owner, _msgSender()) */\n      tag_131\n        /* \"minerpunk/ERC721A/ERC721A.sol\":10164:10169  owner */\n      dup2\n        /* \"minerpunk/ERC721A/ERC721A.sol\":10171:10183  _msgSender() */\n      tag_132\n        /* \"minerpunk/ERC721A/ERC721A.sol\":10171:10181  _msgSender */\n      tag_129\n        /* \"minerpunk/ERC721A/ERC721A.sol\":10171:10183  _msgSender() */\n      jump\t// in\n    tag_132:\n        /* \"minerpunk/ERC721A/ERC721A.sol\":10147:10163  isApprovedForAll */\n      tag_102\n        /* \"minerpunk/ERC721A/ERC721A.sol\":10147:10184  isApprovedForAll(owner, _msgSender()) */\n      jump\t// in\n    tag_131:\n        /* \"minerpunk/ERC721A/ERC721A.sol\":10143:10255  if(!isApprovedForAll(owner, _msgSender())) {... */\n      tag_133\n      jumpi\n        /* \"minerpunk/ERC721A/ERC721A.sol\":10208:10243  ApprovalCallerNotOwnerNorApproved() */\n      mload(0x40)\n      0xcfb3b94200000000000000000000000000000000000000000000000000000000\n      dup2\n      mstore\n      0x04\n      add\n      mload(0x40)\n      dup1\n      swap2\n      sub\n      swap1\n      revert\n        /* \"minerpunk/ERC721A/ERC721A.sol\":10143:10255  if(!isApprovedForAll(owner, _msgSender())) {... */\n    tag_133:\n        /* \"minerpunk/ERC721A/ERC721A.sol\":10116:10255  if (_msgSender() != owner) if(!isApprovedForAll(owner, _msgSender())) {... */\n    tag_130:\n        /* \"minerpunk/ERC721A/ERC721A.sol\":10267:10295  _approve(to, tokenId, owner) */\n      tag_134\n        /* \"minerpunk/ERC721A/ERC721A.sol\":10276:10278  to */\n      dup4\n        /* \"minerpunk/ERC721A/ERC721A.sol\":10280:10287  tokenId */\n      dup4\n        /* \"minerpunk/ERC721A/ERC721A.sol\":10289:10294  owner */\n      dup4\n        /* \"minerpunk/ERC721A/ERC721A.sol\":10267:10275  _approve */\n      tag_135\n        /* \"minerpunk/ERC721A/ERC721A.sol\":10267:10295  _approve(to, tokenId, owner) */\n      jump\t// in\n    tag_134:\n        /* \"minerpunk/ERC721A/ERC721A.sol\":9993:10303  {... */\n      pop\n        /* \"minerpunk/ERC721A/ERC721A.sol\":9931:10303  function approve(address to, uint256 tokenId) public override {... */\n      pop\n      pop\n      jump\t// out\n        /* \"minerpunk/ERC721A/ERC721A.sol\":4379:4691  function totalSupply() public view override returns (uint256) {... */\n    tag_47:\n        /* \"minerpunk/ERC721A/ERC721A.sol\":4432:4439  uint256 */\n      0x00\n        /* \"minerpunk/ERC721A/ERC721A.sol\":4657:4672  _startTokenId() */\n      tag_137\n        /* \"minerpunk/ERC721A/ERC721A.sol\":4657:4670  _startTokenId */\n      tag_138\n        /* \"minerpunk/ERC721A/ERC721A.sol\":4657:4672  _startTokenId() */\n      jump\t// in\n    tag_137:\n        /* \"minerpunk/ERC721A/ERC721A.sol\":4642:4654  _burnCounter */\n      sload(0x06)\n        /* \"minerpunk/ERC721A/ERC721A.sol\":4626:4639  _currentIndex */\n      sload(0x04)\n        /* \"minerpunk/ERC721A/ERC721A.sol\":4626:4654  _currentIndex - _burnCounter */\n      sub\n        /* \"minerpunk/ERC721A/ERC721A.sol\":4626:4672  _currentIndex - _burnCounter - _startTokenId() */\n      sub\n        /* \"minerpunk/ERC721A/ERC721A.sol\":4619:4672  return _currentIndex - _burnCounter - _startTokenId() */\n      swap1\n      pop\n        /* \"minerpunk/ERC721A/ERC721A.sol\":4379:4691  function totalSupply() public view override returns (uint256) {... */\n      swap1\n      jump\t// out\n        /* \"minerpunk/ERC721A/ERC721A.sol\":11234:11404  function transferFrom(... */\n    tag_53:\n        /* \"minerpunk/ERC721A/ERC721A.sol\":11368:11396  _transfer(from, to, tokenId) */\n      tag_140\n        /* \"minerpunk/ERC721A/ERC721A.sol\":11378:11382  from */\n      dup4\n        /* \"minerpunk/ERC721A/ERC721A.sol\":11384:11386  to */\n      dup4\n        /* \"minerpunk/ERC721A/ERC721A.sol\":11388:11395  tokenId */\n      dup4\n        /* \"minerpunk/ERC721A/ERC721A.sol\":11368:11377  _transfer */\n      tag_141\n        /* \"minerpunk/ERC721A/ERC721A.sol\":11368:11396  _transfer(from, to, tokenId) */\n      jump\t// in\n    tag_140:\n        /* \"minerpunk/ERC721A/ERC721A.sol\":11234:11404  function transferFrom(... */\n      pop\n      pop\n      pop\n      jump\t// out\n        /* \"minerpunk/ERC721A/ERC721A.sol\":11475:11660  function safeTransferFrom(... */\n    tag_56:\n        /* \"minerpunk/ERC721A/ERC721A.sol\":11613:11652  safeTransferFrom(from, to, tokenId, '') */\n      tag_143\n        /* \"minerpunk/ERC721A/ERC721A.sol\":11630:11634  from */\n      dup4\n        /* \"minerpunk/ERC721A/ERC721A.sol\":11636:11638  to */\n      dup4\n        /* \"minerpunk/ERC721A/ERC721A.sol\":11640:11647  tokenId */\n      dup4\n        /* \"minerpunk/ERC721A/ERC721A.sol\":11613:11652  safeTransferFrom(from, to, tokenId, '') */\n      mload(0x40)\n      dup1\n      0x20\n      add\n      0x40\n      mstore\n      dup1\n      0x00\n      dup2\n      mstore\n      pop\n        /* \"minerpunk/ERC721A/ERC721A.sol\":11613:11629  safeTransferFrom */\n      tag_80\n        /* \"minerpunk/ERC721A/ERC721A.sol\":11613:11652  safeTransferFrom(from, to, tokenId, '') */\n      jump\t// in\n    tag_143:\n        /* \"minerpunk/ERC721A/ERC721A.sol\":11475:11660  function safeTransferFrom(... */\n      pop\n      pop\n      pop\n      jump\t// out\n        /* \"minerpunk/ERC721A/ERC721A.sol\":3221:3582  function blockStatus (uint256 _BlockNumber)public view  override returns (uint256){... */\n    tag_59:\n        /* \"minerpunk/ERC721A/ERC721A.sol\":3295:3302  uint256 */\n      0x00\n        /* \"minerpunk/ERC721A/ERC721A.sol\":3332:3349  _startBlockNumber */\n      sload(0x02)\n        /* \"minerpunk/ERC721A/ERC721A.sol\":3317:3329  _BlockNumber */\n      dup3\n        /* \"minerpunk/ERC721A/ERC721A.sol\":3317:3349  _BlockNumber < _startBlockNumber */\n      lt\n        /* \"minerpunk/ERC721A/ERC721A.sol\":3314:3409  if(_BlockNumber < _startBlockNumber){... */\n      iszero\n      tag_145\n      jumpi\n        /* \"minerpunk/ERC721A/ERC721A.sol\":3380:3397  _startBlockNumber */\n      sload(0x02)\n        /* \"minerpunk/ERC721A/ERC721A.sol\":3365:3397  _BlockNumber = _startBlockNumber */\n      swap2\n      pop\n        /* \"minerpunk/ERC721A/ERC721A.sol\":3314:3409  if(_BlockNumber < _startBlockNumber){... */\n    tag_145:\n        /* \"minerpunk/ERC721A/ERC721A.sol\":3419:3436  uint256 Stepcount */\n      0x00\n        /* \"minerpunk/ERC721A/ERC721A.sol\":3439:3487  _BlockNumber.sub(_startBlockNumber).add(1500000) */\n      tag_146\n        /* \"minerpunk/ERC721A/ERC721A.sol\":3479:3486  1500000 */\n      0x16e360\n        /* \"minerpunk/ERC721A/ERC721A.sol\":3439:3474  _BlockNumber.sub(_startBlockNumber) */\n      tag_147\n        /* \"minerpunk/ERC721A/ERC721A.sol\":3456:3473  _startBlockNumber */\n      sload(0x02)\n        /* \"minerpunk/ERC721A/ERC721A.sol\":3439:3451  _BlockNumber */\n      dup7\n        /* \"minerpunk/ERC721A/ERC721A.sol\":3439:3455  _BlockNumber.sub */\n      tag_148\n      swap1\n        /* \"minerpunk/ERC721A/ERC721A.sol\":3439:3474  _BlockNumber.sub(_startBlockNumber) */\n      swap2\n      swap1\n      0xffffffff\n      and\n      jump\t// in\n    tag_147:\n        /* \"minerpunk/ERC721A/ERC721A.sol\":3439:3478  _BlockNumber.sub(_startBlockNumber).add */\n      tag_149\n      swap1\n        /* \"minerpunk/ERC721A/ERC721A.sol\":3439:3487  _BlockNumber.sub(_startBlockNumber).add(1500000) */\n      swap2\n      swap1\n      0xffffffff\n      and\n      jump\t// in\n    tag_146:\n        /* \"minerpunk/ERC721A/ERC721A.sol\":3419:3487  uint256 Stepcount = _BlockNumber.sub(_startBlockNumber).add(1500000) */\n      swap1\n      pop\n        /* \"minerpunk/ERC721A/ERC721A.sol\":3498:3521  uint256 TokenWaterLevel */\n      0x00\n        /* \"minerpunk/ERC721A/ERC721A.sol\":3524:3541  _K.div(Stepcount) */\n      tag_150\n        /* \"minerpunk/ERC721A/ERC721A.sol\":3531:3540  Stepcount */\n      dup3\n        /* \"minerpunk/ERC721A/ERC721A.sol\":3524:3526  _K */\n      sload(0x01)\n        /* \"minerpunk/ERC721A/ERC721A.sol\":3524:3530  _K.div */\n      tag_151\n      swap1\n        /* \"minerpunk/ERC721A/ERC721A.sol\":3524:3541  _K.div(Stepcount) */\n      swap2\n      swap1\n      0xffffffff\n      and\n      jump\t// in\n    tag_150:\n        /* \"minerpunk/ERC721A/ERC721A.sol\":3498:3541  uint256 TokenWaterLevel = _K.div(Stepcount) */\n      swap1\n      pop\n        /* \"minerpunk/ERC721A/ERC721A.sol\":3559:3574  TokenWaterLevel */\n      dup1\n        /* \"minerpunk/ERC721A/ERC721A.sol\":3552:3574  return TokenWaterLevel */\n      swap3\n      pop\n      pop\n      pop\n        /* \"minerpunk/ERC721A/ERC721A.sol\":3221:3582  function blockStatus (uint256 _BlockNumber)public view  override returns (uint256){... */\n      swap2\n      swap1\n      pop\n      jump\t// out\n        /* \"minerpunk/ERC721A/ERC721A.sol\":8592:8717  function ownerOf(uint256 tokenId) public view override returns (address) {... */\n    tag_63:\n        /* \"minerpunk/ERC721A/ERC721A.sol\":8656:8663  address */\n      0x00\n        /* \"minerpunk/ERC721A/ERC721A.sol\":8683:8704  _ownershipOf(tokenId) */\n      tag_153\n        /* \"minerpunk/ERC721A/ERC721A.sol\":8696:8703  tokenId */\n      dup3\n        /* \"minerpunk/ERC721A/ERC721A.sol\":8683:8695  _ownershipOf */\n      tag_154\n        /* \"minerpunk/ERC721A/ERC721A.sol\":8683:8704  _ownershipOf(tokenId) */\n      jump\t// in\n    tag_153:\n        /* \"minerpunk/ERC721A/ERC721A.sol\":8683:8709  _ownershipOf(tokenId).addr */\n      0x00\n      add\n      mload\n        /* \"minerpunk/ERC721A/ERC721A.sol\":8676:8709  return _ownershipOf(tokenId).addr */\n      swap1\n      pop\n        /* \"minerpunk/ERC721A/ERC721A.sol\":8592:8717  function ownerOf(uint256 tokenId) public view override returns (address) {... */\n      swap2\n      swap1\n      pop\n      jump\t// out\n        /* \"minerpunk/ERC721A/ERC721A.sol\":6037:6243  function balanceOf(address owner) public view override returns (uint256) {... */\n    tag_68:\n        /* \"minerpunk/ERC721A/ERC721A.sol\":6101:6108  uint256 */\n      0x00\n        /* \"minerpunk/ERC721A/ERC721A.sol\":6142:6143  0 */\n      dup1\n        /* \"minerpunk/ERC721A/ERC721A.sol\":6125:6144  owner == address(0) */\n      0xffffffffffffffffffffffffffffffffffffffff\n      and\n        /* \"minerpunk/ERC721A/ERC721A.sol\":6125:6130  owner */\n      dup3\n        /* \"minerpunk/ERC721A/ERC721A.sol\":6125:6144  owner == address(0) */\n      0xffffffffffffffffffffffffffffffffffffffff\n      and\n      sub\n        /* \"minerpunk/ERC721A/ERC721A.sol\":6121:6181  if (owner == address(0)) revert BalanceQueryForZeroAddress() */\n      tag_156\n      jumpi\n        /* \"minerpunk/ERC721A/ERC721A.sol\":6153:6181  BalanceQueryForZeroAddress() */\n      mload(0x40)\n      0x8f4eb60400000000000000000000000000000000000000000000000000000000\n      dup2\n      mstore\n      0x04\n      add\n      mload(0x40)\n      dup1\n      swap2\n      sub\n      swap1\n      revert\n        /* \"minerpunk/ERC721A/ERC721A.sol\":6121:6181  if (owner == address(0)) revert BalanceQueryForZeroAddress() */\n    tag_156:\n        /* \"minerpunk/ERC721A/ERC721A.sol\":6207:6219  _addressData */\n      0x0a\n        /* \"minerpunk/ERC721A/ERC721A.sol\":6207:6226  _addressData[owner] */\n      0x00\n        /* \"minerpunk/ERC721A/ERC721A.sol\":6220:6225  owner */\n      dup4\n        /* \"minerpunk/ERC721A/ERC721A.sol\":6207:6226  _addressData[owner] */\n      0xffffffffffffffffffffffffffffffffffffffff\n      and\n      0xffffffffffffffffffffffffffffffffffffffff\n      and\n      dup2\n      mstore\n      0x20\n      add\n      swap1\n      dup2\n      mstore\n      0x20\n      add\n      0x00\n      keccak256\n        /* \"minerpunk/ERC721A/ERC721A.sol\":6207:6234  _addressData[owner].balance */\n      0x00\n      add\n      0x00\n      swap1\n      sload\n      swap1\n      0x0100\n      exp\n      swap1\n      div\n      0xffffffffffffffff\n      and\n        /* \"minerpunk/ERC721A/ERC721A.sol\":6199:6235  uint256(_addressData[owner].balance) */\n      0xffffffffffffffff\n      and\n        /* \"minerpunk/ERC721A/ERC721A.sol\":6192:6235  return uint256(_addressData[owner].balance) */\n      swap1\n      pop\n        /* \"minerpunk/ERC721A/ERC721A.sol\":6037:6243  function balanceOf(address owner) public view override returns (uint256) {... */\n      swap2\n      swap1\n      pop\n      jump\t// out\n        /* \"minerpunk/ERC721A/ERC721A.sol\":8953:9057  function symbol() public view virtual override returns (string memory) {... */\n    tag_71:\n        /* \"minerpunk/ERC721A/ERC721A.sol\":9009:9022  string memory */\n      0x60\n        /* \"minerpunk/ERC721A/ERC721A.sol\":9042:9049  _symbol */\n      0x08\n        /* \"minerpunk/ERC721A/ERC721A.sol\":9035:9049  return _symbol */\n      dup1\n      sload\n      tag_158\n      swap1\n      tag_116\n      jump\t// in\n    tag_158:\n      dup1\n      0x1f\n      add\n      0x20\n      dup1\n      swap2\n      div\n      mul\n      0x20\n      add\n      mload(0x40)\n      swap1\n      dup2\n      add\n      0x40\n      mstore\n      dup1\n      swap3\n      swap2\n      swap1\n      dup2\n      dup2\n      mstore\n      0x20\n      add\n      dup3\n      dup1\n      sload\n      tag_159\n      swap1\n      tag_116\n      jump\t// in\n    tag_159:\n      dup1\n      iszero\n      tag_160\n      jumpi\n      dup1\n      0x1f\n      lt\n      tag_161\n      jumpi\n      0x0100\n      dup1\n      dup4\n      sload\n      div\n      mul\n      dup4\n      mstore\n      swap2\n      0x20\n      add\n      swap2\n      jump(tag_160)\n    tag_161:\n      dup3\n      add\n      swap2\n      swap1\n      0x00\n      mstore\n      keccak256(0x00, 0x20)\n      swap1\n    tag_162:\n      dup2\n      sload\n      dup2\n      mstore\n      swap1\n      0x01\n      add\n      swap1\n      0x20\n      add\n      dup1\n      dup4\n      gt\n      tag_162\n      jumpi\n      dup3\n      swap1\n      sub\n      0x1f\n      and\n      dup3\n      add\n      swap2\n    tag_160:\n      pop\n      pop\n      pop\n      pop\n      pop\n      swap1\n      pop\n        /* \"minerpunk/ERC721A/ERC721A.sol\":8953:9057  function symbol() public view virtual override returns (string memory) {... */\n      swap1\n      jump\t// out\n        /* \"minerpunk/ERC721A/ERC721A.sol\":10645:10932  function setApprovalForAll(address operator, bool approved) public virtual override {... */\n    tag_76:\n        /* \"minerpunk/ERC721A/ERC721A.sol\":10756:10768  _msgSender() */\n      tag_164\n        /* \"minerpunk/ERC721A/ERC721A.sol\":10756:10766  _msgSender */\n      tag_129\n        /* \"minerpunk/ERC721A/ERC721A.sol\":10756:10768  _msgSender() */\n      jump\t// in\n    tag_164:\n        /* \"minerpunk/ERC721A/ERC721A.sol\":10744:10768  operator == _msgSender() */\n      0xffffffffffffffffffffffffffffffffffffffff\n      and\n        /* \"minerpunk/ERC721A/ERC721A.sol\":10744:10752  operator */\n      dup3\n        /* \"minerpunk/ERC721A/ERC721A.sol\":10744:10768  operator == _msgSender() */\n      0xffffffffffffffffffffffffffffffffffffffff\n      and\n      sub\n        /* \"minerpunk/ERC721A/ERC721A.sol\":10740:10794  if (operator == _msgSender()) revert ApproveToCaller() */\n      tag_165\n      jumpi\n        /* \"minerpunk/ERC721A/ERC721A.sol\":10777:10794  ApproveToCaller() */\n      mload(0x40)\n      0xb06307db00000000000000000000000000000000000000000000000000000000\n      dup2\n      mstore\n      0x04\n      add\n      mload(0x40)\n      dup1\n      swap2\n      sub\n      swap1\n      revert\n        /* \"minerpunk/ERC721A/ERC721A.sol\":10740:10794  if (operator == _msgSender()) revert ApproveToCaller() */\n    tag_165:\n        /* \"minerpunk/ERC721A/ERC721A.sol\":10852:10860  approved */\n      dup1\n        /* \"minerpunk/ERC721A/ERC721A.sol\":10807:10825  _operatorApprovals */\n      0x0c\n        /* \"minerpunk/ERC721A/ERC721A.sol\":10807:10839  _operatorApprovals[_msgSender()] */\n      0x00\n        /* \"minerpunk/ERC721A/ERC721A.sol\":10826:10838  _msgSender() */\n      tag_166\n        /* \"minerpunk/ERC721A/ERC721A.sol\":10826:10836  _msgSender */\n      tag_129\n        /* \"minerpunk/ERC721A/ERC721A.sol\":10826:10838  _msgSender() */\n      jump\t// in\n    tag_166:\n        /* \"minerpunk/ERC721A/ERC721A.sol\":10807:10839  _operatorApprovals[_msgSender()] */\n      0xffffffffffffffffffffffffffffffffffffffff\n      and\n      0xffffffffffffffffffffffffffffffffffffffff\n      and\n      dup2\n      mstore\n      0x20\n      add\n      swap1\n      dup2\n      mstore\n      0x20\n      add\n      0x00\n      keccak256\n        /* \"minerpunk/ERC721A/ERC721A.sol\":10807:10849  _operatorApprovals[_msgSender()][operator] */\n      0x00\n        /* \"minerpunk/ERC721A/ERC721A.sol\":10840:10848  operator */\n      dup5\n        /* \"minerpunk/ERC721A/ERC721A.sol\":10807:10849  _operatorApprovals[_msgSender()][operator] */\n      0xffffffffffffffffffffffffffffffffffffffff\n      and\n      0xffffffffffffffffffffffffffffffffffffffff\n      and\n      dup2\n      mstore\n      0x20\n      add\n      swap1\n      dup2\n      mstore\n      0x20\n      add\n      0x00\n      keccak256\n      0x00\n        /* \"minerpunk/ERC721A/ERC721A.sol\":10807:10860  _operatorApprovals[_msgSender()][operator] = approved */\n      0x0100\n      exp\n      dup2\n      sload\n      dup2\n      0xff\n      mul\n      not\n      and\n      swap1\n      dup4\n      iszero\n      iszero\n      mul\n      or\n      swap1\n      sstore\n      pop\n        /* \"minerpunk/ERC721A/ERC721A.sol\":10905:10913  operator */\n      dup2\n        /* \"minerpunk/ERC721A/ERC721A.sol\":10876:10924  ApprovalForAll(_msgSender(), operator, approved) */\n      0xffffffffffffffffffffffffffffffffffffffff\n      and\n        /* \"minerpunk/ERC721A/ERC721A.sol\":10891:10903  _msgSender() */\n      tag_167\n        /* \"minerpunk/ERC721A/ERC721A.sol\":10891:10901  _msgSender */\n      tag_129\n        /* \"minerpunk/ERC721A/ERC721A.sol\":10891:10903  _msgSender() */\n      jump\t// in\n    tag_167:\n        /* \"minerpunk/ERC721A/ERC721A.sol\":10876:10924  ApprovalForAll(_msgSender(), operator, approved) */\n      0xffffffffffffffffffffffffffffffffffffffff\n      and\n      0x17307eab39ab6107e8899845ad3d59bd9653f200f220920489ca2b5937696c31\n        /* \"minerpunk/ERC721A/ERC721A.sol\":10915:10923  approved */\n      dup4\n        /* \"minerpunk/ERC721A/ERC721A.sol\":10876:10924  ApprovalForAll(_msgSender(), operator, approved) */\n      mload(0x40)\n      tag_168\n      swap2\n      swap1\n      tag_31\n      jump\t// in\n    tag_168:\n      mload(0x40)\n      dup1\n      swap2\n      sub\n      swap1\n      log3\n        /* \"minerpunk/ERC721A/ERC721A.sol\":10645:10932  function setApprovalForAll(address operator, bool approved) public virtual override {... */\n      pop\n      pop\n      jump\t// out\n        /* \"minerpunk/ERC721A/ERC721A.sol\":11731:12101  function safeTransferFrom(... */\n    tag_80:\n        /* \"minerpunk/ERC721A/ERC721A.sol\":11898:11926  _transfer(from, to, tokenId) */\n      tag_170\n        /* \"minerpunk/ERC721A/ERC721A.sol\":11908:11912  from */\n      dup5\n        /* \"minerpunk/ERC721A/ERC721A.sol\":11914:11916  to */\n      dup5\n        /* \"minerpunk/ERC721A/ERC721A.sol\":11918:11925  tokenId */\n      dup5\n        /* \"minerpunk/ERC721A/ERC721A.sol\":11898:11907  _transfer */\n      tag_141\n        /* \"minerpunk/ERC721A/ERC721A.sol\":11898:11926  _transfer(from, to, tokenId) */\n      jump\t// in\n    tag_170:\n        /* \"minerpunk/ERC721A/ERC721A.sol\":11941:11956  to.isContract() */\n      tag_171\n        /* \"minerpunk/ERC721A/ERC721A.sol\":11941:11943  to */\n      dup4\n        /* \"minerpunk/ERC721A/ERC721A.sol\":11941:11954  to.isContract */\n      0xffffffffffffffffffffffffffffffffffffffff\n      and\n      tag_172\n        /* \"minerpunk/ERC721A/ERC721A.sol\":11941:11956  to.isContract() */\n      jump\t// in\n    tag_171:\n        /* \"minerpunk/ERC721A/ERC721A.sol\":11937:12094  if (to.isContract()) if(!_checkContractOnERC721Received(from, to, tokenId, _data)) {... */\n      iszero\n      tag_173\n      jumpi\n        /* \"minerpunk/ERC721A/ERC721A.sol\":11962:12018  _checkContractOnERC721Received(from, to, tokenId, _data) */\n      tag_174\n        /* \"minerpunk/ERC721A/ERC721A.sol\":11993:11997  from */\n      dup5\n        /* \"minerpunk/ERC721A/ERC721A.sol\":11999:12001  to */\n      dup5\n        /* \"minerpunk/ERC721A/ERC721A.sol\":12003:12010  tokenId */\n      dup5\n        /* \"minerpunk/ERC721A/ERC721A.sol\":12012:12017  _data */\n      dup5\n        /* \"minerpunk/ERC721A/ERC721A.sol\":11962:11992  _checkContractOnERC721Received */\n      tag_175\n        /* \"minerpunk/ERC721A/ERC721A.sol\":11962:12018  _checkContractOnERC721Received(from, to, tokenId, _data) */\n      jump\t// in\n    tag_174:\n        /* \"minerpunk/ERC721A/ERC721A.sol\":11958:12094  if(!_checkContractOnERC721Received(from, to, tokenId, _data)) {... */\n      tag_176\n      jumpi\n        /* \"minerpunk/ERC721A/ERC721A.sol\":12042:12082  TransferToNonERC721ReceiverImplementer() */\n      mload(0x40)\n      0xd1a57ed600000000000000000000000000000000000000000000000000000000\n      dup2\n      mstore\n      0x04\n      add\n      mload(0x40)\n      dup1\n      swap2\n      sub\n      swap1\n      revert\n        /* \"minerpunk/ERC721A/ERC721A.sol\":11958:12094  if(!_checkContractOnERC721Received(from, to, tokenId, _data)) {... */\n    tag_176:\n        /* \"minerpunk/ERC721A/ERC721A.sol\":11937:12094  if (to.isContract()) if(!_checkContractOnERC721Received(from, to, tokenId, _data)) {... */\n    tag_173:\n        /* \"minerpunk/ERC721A/ERC721A.sol\":11731:12101  function safeTransferFrom(... */\n      pop\n      pop\n      pop\n      pop\n      jump\t// out\n        /* \"minerpunk/ERC721A/ERC721A.sol\":2821:3202  function MineStatus(address user)public view override returns(uint256){           ... */\n    tag_83:\n        /* \"minerpunk/ERC721A/ERC721A.sol\":2883:2890  uint256 */\n      0x00\n        /* \"minerpunk/ERC721A/ERC721A.sol\":2913:2926  uint256 start */\n      dup1\n        /* \"minerpunk/ERC721A/ERC721A.sol\":2929:2960  blockStatus(_mineInfo[user][1]) */\n      tag_178\n        /* \"minerpunk/ERC721A/ERC721A.sol\":2941:2950  _mineInfo */\n      0x0d\n        /* \"minerpunk/ERC721A/ERC721A.sol\":2941:2956  _mineInfo[user] */\n      0x00\n        /* \"minerpunk/ERC721A/ERC721A.sol\":2951:2955  user */\n      dup6\n        /* \"minerpunk/ERC721A/ERC721A.sol\":2941:2956  _mineInfo[user] */\n      0xffffffffffffffffffffffffffffffffffffffff\n      and\n      0xffffffffffffffffffffffffffffffffffffffff\n      and\n      dup2\n      mstore\n      0x20\n      add\n      swap1\n      dup2\n      mstore\n      0x20\n      add\n      0x00\n      keccak256\n        /* \"minerpunk/ERC721A/ERC721A.sol\":2941:2959  _mineInfo[user][1] */\n      0x00\n        /* \"minerpunk/ERC721A/ERC721A.sol\":2957:2958  1 */\n      0x01\n        /* \"minerpunk/ERC721A/ERC721A.sol\":2941:2959  _mineInfo[user][1] */\n      dup2\n      mstore\n      0x20\n      add\n      swap1\n      dup2\n      mstore\n      0x20\n      add\n      0x00\n      keccak256\n      sload\n        /* \"minerpunk/ERC721A/ERC721A.sol\":2929:2940  blockStatus */\n      tag_59\n        /* \"minerpunk/ERC721A/ERC721A.sol\":2929:2960  blockStatus(_mineInfo[user][1]) */\n      jump\t// in\n    tag_178:\n        /* \"minerpunk/ERC721A/ERC721A.sol\":2913:2960  uint256 start = blockStatus(_mineInfo[user][1]) */\n      swap1\n      pop\n        /* \"minerpunk/ERC721A/ERC721A.sol\":2971:2982  uint256 end */\n      0x00\n        /* \"minerpunk/ERC721A/ERC721A.sol\":2985:3010  blockStatus(block.number) */\n      tag_179\n        /* \"minerpunk/ERC721A/ERC721A.sol\":2997:3009  block.number */\n      number\n        /* \"minerpunk/ERC721A/ERC721A.sol\":2985:2996  blockStatus */\n      tag_59\n        /* \"minerpunk/ERC721A/ERC721A.sol\":2985:3010  blockStatus(block.number) */\n      jump\t// in\n    tag_179:\n        /* \"minerpunk/ERC721A/ERC721A.sol\":2971:3010  uint256 end = blockStatus(block.number) */\n      swap1\n      pop\n        /* \"minerpunk/ERC721A/ERC721A.sol\":3028:3043  uint dcf_amount */\n      0x00\n        /* \"minerpunk/ERC721A/ERC721A.sol\":3046:3060  start.sub(end) */\n      tag_180\n        /* \"minerpunk/ERC721A/ERC721A.sol\":3056:3059  end */\n      dup3\n        /* \"minerpunk/ERC721A/ERC721A.sol\":3046:3051  start */\n      dup5\n        /* \"minerpunk/ERC721A/ERC721A.sol\":3046:3055  start.sub */\n      tag_148\n      swap1\n        /* \"minerpunk/ERC721A/ERC721A.sol\":3046:3060  start.sub(end) */\n      swap2\n      swap1\n      0xffffffff\n      and\n      jump\t// in\n    tag_180:\n        /* \"minerpunk/ERC721A/ERC721A.sol\":3028:3060  uint dcf_amount = start.sub(end) */\n      swap1\n      pop\n        /* \"minerpunk/ERC721A/ERC721A.sol\":3084:3135  dcf_amount.mul(_mineInfo[user][2]).div(_totalPower) */\n      tag_181\n        /* \"minerpunk/ERC721A/ERC721A.sol\":3123:3134  _totalPower */\n      sload(0x03)\n        /* \"minerpunk/ERC721A/ERC721A.sol\":3084:3118  dcf_amount.mul(_mineInfo[user][2]) */\n      tag_182\n        /* \"minerpunk/ERC721A/ERC721A.sol\":3099:3108  _mineInfo */\n      0x0d\n        /* \"minerpunk/ERC721A/ERC721A.sol\":3099:3114  _mineInfo[user] */\n      0x00\n        /* \"minerpunk/ERC721A/ERC721A.sol\":3109:3113  user */\n      dup10\n        /* \"minerpunk/ERC721A/ERC721A.sol\":3099:3114  _mineInfo[user] */\n      0xffffffffffffffffffffffffffffffffffffffff\n      and\n      0xffffffffffffffffffffffffffffffffffffffff\n      and\n      dup2\n      mstore\n      0x20\n      add\n      swap1\n      dup2\n      mstore\n      0x20\n      add\n      0x00\n      keccak256\n        /* \"minerpunk/ERC721A/ERC721A.sol\":3099:3117  _mineInfo[user][2] */\n      0x00\n        /* \"minerpunk/ERC721A/ERC721A.sol\":3115:3116  2 */\n      0x02\n        /* \"minerpunk/ERC721A/ERC721A.sol\":3099:3117  _mineInfo[user][2] */\n      dup2\n      mstore\n      0x20\n      add\n      swap1\n      dup2\n      mstore\n      0x20\n      add\n      0x00\n      keccak256\n      sload\n        /* \"minerpunk/ERC721A/ERC721A.sol\":3084:3094  dcf_amount */\n      dup5\n        /* \"minerpunk/ERC721A/ERC721A.sol\":3084:3098  dcf_amount.mul */\n      tag_108\n      swap1\n        /* \"minerpunk/ERC721A/ERC721A.sol\":3084:3118  dcf_amount.mul(_mineInfo[user][2]) */\n      swap2\n      swap1\n      0xffffffff\n      and\n      jump\t// in\n    tag_182:\n        /* \"minerpunk/ERC721A/ERC721A.sol\":3084:3122  dcf_amount.mul(_mineInfo[user][2]).div */\n      tag_151\n      swap1\n        /* \"minerpunk/ERC721A/ERC721A.sol\":3084:3135  dcf_amount.mul(_mineInfo[user][2]).div(_totalPower) */\n      swap2\n      swap1\n      0xffffffff\n      and\n      jump\t// in\n    tag_181:\n        /* \"minerpunk/ERC721A/ERC721A.sol\":3071:3135  dcf_amount = dcf_amount.mul(_mineInfo[user][2]).div(_totalPower) */\n      swap1\n      pop\n        /* \"minerpunk/ERC721A/ERC721A.sol\":3153:3187  _mineInfo[user][3].add(dcf_amount) */\n      tag_183\n        /* \"minerpunk/ERC721A/ERC721A.sol\":3176:3186  dcf_amount */\n      dup2\n        /* \"minerpunk/ERC721A/ERC721A.sol\":3153:3162  _mineInfo */\n      0x0d\n        /* \"minerpunk/ERC721A/ERC721A.sol\":3153:3168  _mineInfo[user] */\n      0x00\n        /* \"minerpunk/ERC721A/ERC721A.sol\":3163:3167  user */\n      dup9\n        /* \"minerpunk/ERC721A/ERC721A.sol\":3153:3168  _mineInfo[user] */\n      0xffffffffffffffffffffffffffffffffffffffff\n      and\n      0xffffffffffffffffffffffffffffffffffffffff\n      and\n      dup2\n      mstore\n      0x20\n      add\n      swap1\n      dup2\n      mstore\n      0x20\n      add\n      0x00\n      keccak256\n        /* \"minerpunk/ERC721A/ERC721A.sol\":3153:3171  _mineInfo[user][3] */\n      0x00\n        /* \"minerpunk/ERC721A/ERC721A.sol\":3169:3170  3 */\n      0x03\n        /* \"minerpunk/ERC721A/ERC721A.sol\":3153:3171  _mineInfo[user][3] */\n      dup2\n      mstore\n      0x20\n      add\n      swap1\n      dup2\n      mstore\n      0x20\n      add\n      0x00\n      keccak256\n      sload\n        /* \"minerpunk/ERC721A/ERC721A.sol\":3153:3175  _mineInfo[user][3].add */\n      tag_149\n      swap1\n        /* \"minerpunk/ERC721A/ERC721A.sol\":3153:3187  _mineInfo[user][3].add(dcf_amount) */\n      swap2\n      swap1\n      0xffffffff\n      and\n      jump\t// in\n    tag_183:\n        /* \"minerpunk/ERC721A/ERC721A.sol\":3146:3187  return _mineInfo[user][3].add(dcf_amount) */\n      swap4\n      pop\n      pop\n      pop\n      pop\n        /* \"minerpunk/ERC721A/ERC721A.sol\":2821:3202  function MineStatus(address user)public view override returns(uint256){           ... */\n      swap2\n      swap1\n      pop\n      jump\t// out\n        /* \"minerpunk/ERC721A/ERC721A.sol\":9128:9446  function tokenURI(uint256 tokenId) public view virtual override returns (string memory) {... */\n    tag_87:\n        /* \"minerpunk/ERC721A/ERC721A.sol\":9201:9214  string memory */\n      0x60\n        /* \"minerpunk/ERC721A/ERC721A.sol\":9232:9248  _exists(tokenId) */\n      tag_185\n        /* \"minerpunk/ERC721A/ERC721A.sol\":9240:9247  tokenId */\n      dup3\n        /* \"minerpunk/ERC721A/ERC721A.sol\":9232:9239  _exists */\n      tag_123\n        /* \"minerpunk/ERC721A/ERC721A.sol\":9232:9248  _exists(tokenId) */\n      jump\t// in\n    tag_185:\n        /* \"minerpunk/ERC721A/ERC721A.sol\":9227:9286  if (!_exists(tokenId)) revert URIQueryForNonexistentToken() */\n      tag_186\n      jumpi\n        /* \"minerpunk/ERC721A/ERC721A.sol\":9257:9286  URIQueryForNonexistentToken() */\n      mload(0x40)\n      0xa14c4b5000000000000000000000000000000000000000000000000000000000\n      dup2\n      mstore\n      0x04\n      add\n      mload(0x40)\n      dup1\n      swap2\n      sub\n      swap1\n      revert\n        /* \"minerpunk/ERC721A/ERC721A.sol\":9227:9286  if (!_exists(tokenId)) revert URIQueryForNonexistentToken() */\n    tag_186:\n        /* \"minerpunk/ERC721A/ERC721A.sol\":9299:9320  string memory baseURI */\n      0x00\n        /* \"minerpunk/ERC721A/ERC721A.sol\":9323:9333  _baseURI() */\n      tag_187\n        /* \"minerpunk/ERC721A/ERC721A.sol\":9323:9331  _baseURI */\n      tag_188\n        /* \"minerpunk/ERC721A/ERC721A.sol\":9323:9333  _baseURI() */\n      jump\t// in\n    tag_187:\n        /* \"minerpunk/ERC721A/ERC721A.sol\":9299:9333  string memory baseURI = _baseURI() */\n      swap1\n      pop\n        /* \"minerpunk/ERC721A/ERC721A.sol\":9376:9377  0 */\n      0x00\n        /* \"minerpunk/ERC721A/ERC721A.sol\":9357:9364  baseURI */\n      dup2\n        /* \"minerpunk/ERC721A/ERC721A.sol\":9351:9372  bytes(baseURI).length */\n      mload\n        /* \"minerpunk/ERC721A/ERC721A.sol\":9351:9377  bytes(baseURI).length != 0 */\n      sub\n        /* \"minerpunk/ERC721A/ERC721A.sol\":9351:9438  bytes(baseURI).length != 0 ? string(abi.encodePacked(baseURI, tokenId.toString())) : '' */\n      tag_189\n      jumpi\n      mload(0x40)\n      dup1\n      0x20\n      add\n      0x40\n      mstore\n      dup1\n      0x00\n      dup2\n      mstore\n      pop\n      jump(tag_190)\n    tag_189:\n        /* \"minerpunk/ERC721A/ERC721A.sol\":9404:9411  baseURI */\n      dup1\n        /* \"minerpunk/ERC721A/ERC721A.sol\":9413:9431  tokenId.toString() */\n      tag_191\n        /* \"minerpunk/ERC721A/ERC721A.sol\":9413:9420  tokenId */\n      dup5\n        /* \"minerpunk/ERC721A/ERC721A.sol\":9413:9429  tokenId.toString */\n      tag_192\n        /* \"minerpunk/ERC721A/ERC721A.sol\":9413:9431  tokenId.toString() */\n      jump\t// in\n    tag_191:\n        /* \"minerpunk/ERC721A/ERC721A.sol\":9387:9432  abi.encodePacked(baseURI, tokenId.toString()) */\n      add(0x20, mload(0x40))\n      tag_193\n      swap3\n      swap2\n      swap1\n      tag_194\n      jump\t// in\n    tag_193:\n      mload(0x40)\n      0x20\n      dup2\n      dup4\n      sub\n      sub\n      dup2\n      mstore\n      swap1\n      0x40\n      mstore\n        /* \"minerpunk/ERC721A/ERC721A.sol\":9351:9438  bytes(baseURI).length != 0 ? string(abi.encodePacked(baseURI, tokenId.toString())) : '' */\n    tag_190:\n        /* \"minerpunk/ERC721A/ERC721A.sol\":9344:9438  return bytes(baseURI).length != 0 ? string(abi.encodePacked(baseURI, tokenId.toString())) : '' */\n      swap2\n      pop\n      pop\n        /* \"minerpunk/ERC721A/ERC721A.sol\":9128:9446  function tokenURI(uint256 tokenId) public view virtual override returns (string memory) {... */\n      swap2\n      swap1\n      pop\n      jump\t// out\n        /* \"minerpunk/ERC721A/ERC721A.sol\":4856:5020  function maxSupply() public view  returns (uint256) {       ... */\n    tag_90:\n        /* \"minerpunk/ERC721A/ERC721A.sol\":4899:4906  uint256 */\n      0x00\n        /* \"minerpunk/ERC721A/ERC721A.sol\":4986:5001  _startTokenId() */\n      tag_196\n        /* \"minerpunk/ERC721A/ERC721A.sol\":4986:4999  _startTokenId */\n      tag_138\n        /* \"minerpunk/ERC721A/ERC721A.sol\":4986:5001  _startTokenId() */\n      jump\t// in\n    tag_196:\n        /* \"minerpunk/ERC721A/ERC721A.sol\":4971:4983  _burnCounter */\n      sload(0x06)\n        /* \"minerpunk/ERC721A/ERC721A.sol\":4958:4968  _maxSupply */\n      sload(0x05)\n        /* \"minerpunk/ERC721A/ERC721A.sol\":4958:4983  _maxSupply - _burnCounter */\n      sub\n        /* \"minerpunk/ERC721A/ERC721A.sol\":4958:5001  _maxSupply - _burnCounter - _startTokenId() */\n      sub\n        /* \"minerpunk/ERC721A/ERC721A.sol\":4951:5001  return _maxSupply - _burnCounter - _startTokenId() */\n      swap1\n      pop\n        /* \"minerpunk/ERC721A/ERC721A.sol\":4856:5020  function maxSupply() public view  returns (uint256) {       ... */\n      swap1\n      jump\t// out\n        /* \"minerpunk/ERC721A/ERC721A.sol\":4701:4846  function totalPower() public view  returns (uint256) {       ... */\n    tag_93:\n        /* \"minerpunk/ERC721A/ERC721A.sol\":4745:4752  uint256 */\n      0x00\n        /* \"minerpunk/ERC721A/ERC721A.sol\":4816:4827  _totalPower */\n      sload(0x03)\n        /* \"minerpunk/ERC721A/ERC721A.sol\":4809:4827  return _totalPower */\n      swap1\n      pop\n        /* \"minerpunk/ERC721A/ERC721A.sol\":4701:4846  function totalPower() public view  returns (uint256) {       ... */\n      swap1\n      jump\t// out\n        /* \"minerpunk/ERC721A/ERC721A.sol\":3603:4037  function tokenIDPower (uint256 tokenId)public view override returns(uint256){  ... */\n    tag_97:\n        /* \"minerpunk/ERC721A/ERC721A.sol\":3671:3678  uint256 */\n      0x00\n        /* \"minerpunk/ERC721A/ERC721A.sol\":3695:3709  uint256 _power */\n      dup1\n        /* \"minerpunk/ERC721A/ERC721A.sol\":3736:3741  10000 */\n      0x2710\n        /* \"minerpunk/ERC721A/ERC721A.sol\":3725:3732  tokenId */\n      dup4\n        /* \"minerpunk/ERC721A/ERC721A.sol\":3725:3741  tokenId >= 10000 */\n      lt\n        /* \"minerpunk/ERC721A/ERC721A.sol\":3722:3990  if(tokenId >= 10000){... */\n      tag_199\n      jumpi\n        /* \"minerpunk/ERC721A/ERC721A.sol\":3766:3768  50 */\n      0x32\n        /* \"minerpunk/ERC721A/ERC721A.sol\":3757:3768  _power = 50 */\n      swap1\n      pop\n        /* \"minerpunk/ERC721A/ERC721A.sol\":3722:3990  if(tokenId >= 10000){... */\n      jump(tag_200)\n    tag_199:\n        /* \"minerpunk/ERC721A/ERC721A.sol\":3810:3841  tokenId.mul(_salt).add(tokenId) */\n      tag_201\n        /* \"minerpunk/ERC721A/ERC721A.sol\":3833:3840  tokenId */\n      dup4\n        /* \"minerpunk/ERC721A/ERC721A.sol\":3810:3828  tokenId.mul(_salt) */\n      tag_202\n        /* \"minerpunk/ERC721A/ERC721A.sol\":3822:3827  _salt */\n      sload(0x00)\n        /* \"minerpunk/ERC721A/ERC721A.sol\":3810:3817  tokenId */\n      dup7\n        /* \"minerpunk/ERC721A/ERC721A.sol\":3810:3821  tokenId.mul */\n      tag_108\n      swap1\n        /* \"minerpunk/ERC721A/ERC721A.sol\":3810:3828  tokenId.mul(_salt) */\n      swap2\n      swap1\n      0xffffffff\n      and\n      jump\t// in\n    tag_202:\n        /* \"minerpunk/ERC721A/ERC721A.sol\":3810:3832  tokenId.mul(_salt).add */\n      tag_149\n      swap1\n        /* \"minerpunk/ERC721A/ERC721A.sol\":3810:3841  tokenId.mul(_salt).add(tokenId) */\n      swap2\n      swap1\n      0xffffffff\n      and\n      jump\t// in\n    tag_201:\n        /* \"minerpunk/ERC721A/ERC721A.sol\":3801:3841  _power = tokenId.mul(_salt).add(tokenId) */\n      swap1\n      pop\n        /* \"minerpunk/ERC721A/ERC721A.sol\":3873:3874  0 */\n      0x00\n        /* \"minerpunk/ERC721A/ERC721A.sol\":3867:3869  10 */\n      0x0a\n        /* \"minerpunk/ERC721A/ERC721A.sol\":3860:3866  _power */\n      dup3\n        /* \"minerpunk/ERC721A/ERC721A.sol\":3860:3869  _power%10 */\n      tag_203\n      swap2\n      swap1\n      tag_204\n      jump\t// in\n    tag_203:\n        /* \"minerpunk/ERC721A/ERC721A.sol\":3860:3874  _power%10 == 0 */\n      sub\n        /* \"minerpunk/ERC721A/ERC721A.sol\":3857:3977  if(_power%10 == 0){... */\n      tag_205\n      jumpi\n        /* \"minerpunk/ERC721A/ERC721A.sol\":3903:3904  1 */\n      0x01\n        /* \"minerpunk/ERC721A/ERC721A.sol\":3894:3904  _power = 1 */\n      swap1\n      pop\n        /* \"minerpunk/ERC721A/ERC721A.sol\":3857:3977  if(_power%10 == 0){... */\n      jump(tag_206)\n    tag_205:\n        /* \"minerpunk/ERC721A/ERC721A.sol\":3959:3961  10 */\n      0x0a\n        /* \"minerpunk/ERC721A/ERC721A.sol\":3952:3958  _power */\n      dup2\n        /* \"minerpunk/ERC721A/ERC721A.sol\":3952:3961  _power%10 */\n      tag_207\n      swap2\n      swap1\n      tag_204\n      jump\t// in\n    tag_207:\n        /* \"minerpunk/ERC721A/ERC721A.sol\":3943:3961  _power = _power%10 */\n      swap1\n      pop\n        /* \"minerpunk/ERC721A/ERC721A.sol\":3857:3977  if(_power%10 == 0){... */\n    tag_206:\n        /* \"minerpunk/ERC721A/ERC721A.sol\":3722:3990  if(tokenId >= 10000){... */\n    tag_200:\n        /* \"minerpunk/ERC721A/ERC721A.sol\":4023:4029  _power */\n      dup1\n        /* \"minerpunk/ERC721A/ERC721A.sol\":4016:4029  return _power */\n      swap2\n      pop\n      pop\n        /* \"minerpunk/ERC721A/ERC721A.sol\":3603:4037  function tokenIDPower (uint256 tokenId)public view override returns(uint256){  ... */\n      swap2\n      swap1\n      pop\n      jump\t// out\n        /* \"minerpunk/ERC721A/ERC721A.sol\":11003:11167  function isApprovedForAll(address owner, address operator) public view virtual override returns (bool) {... */\n    tag_102:\n        /* \"minerpunk/ERC721A/ERC721A.sol\":11100:11104  bool */\n      0x00\n        /* \"minerpunk/ERC721A/ERC721A.sol\":11124:11142  _operatorApprovals */\n      0x0c\n        /* \"minerpunk/ERC721A/ERC721A.sol\":11124:11149  _operatorApprovals[owner] */\n      0x00\n        /* \"minerpunk/ERC721A/ERC721A.sol\":11143:11148  owner */\n      dup5\n        /* \"minerpunk/ERC721A/ERC721A.sol\":11124:11149  _operatorApprovals[owner] */\n      0xffffffffffffffffffffffffffffffffffffffff\n      and\n      0xffffffffffffffffffffffffffffffffffffffff\n      and\n      dup2\n      mstore\n      0x20\n      add\n      swap1\n      dup2\n      mstore\n      0x20\n      add\n      0x00\n      keccak256\n        /* \"minerpunk/ERC721A/ERC721A.sol\":11124:11159  _operatorApprovals[owner][operator] */\n      0x00\n        /* \"minerpunk/ERC721A/ERC721A.sol\":11150:11158  operator */\n      dup4\n        /* \"minerpunk/ERC721A/ERC721A.sol\":11124:11159  _operatorApprovals[owner][operator] */\n      0xffffffffffffffffffffffffffffffffffffffff\n      and\n      0xffffffffffffffffffffffffffffffffffffffff\n      and\n      dup2\n      mstore\n      0x20\n      add\n      swap1\n      dup2\n      mstore\n      0x20\n      add\n      0x00\n      keccak256\n      0x00\n      swap1\n      sload\n      swap1\n      0x0100\n      exp\n      swap1\n      div\n      0xff\n      and\n        /* \"minerpunk/ERC721A/ERC721A.sol\":11117:11159  return _operatorApprovals[owner][operator] */\n      swap1\n      pop\n        /* \"minerpunk/ERC721A/ERC721A.sol\":11003:11167  function isApprovedForAll(address owner, address operator) public view virtual override returns (bool) {... */\n      swap3\n      swap2\n      pop\n      pop\n      jump\t// out\n        /* \"minerpunk/ERC721A/ERC721A.sol\":5037:5208  function mineInfo(address user, uint256 number) public view  returns (uint256) {       ... */\n    tag_106:\n        /* \"minerpunk/ERC721A/ERC721A.sol\":5107:5114  uint256 */\n      0x00\n        /* \"minerpunk/ERC721A/ERC721A.sol\":5166:5175  _mineInfo */\n      0x0d\n        /* \"minerpunk/ERC721A/ERC721A.sol\":5166:5181  _mineInfo[user] */\n      0x00\n        /* \"minerpunk/ERC721A/ERC721A.sol\":5176:5180  user */\n      dup5\n        /* \"minerpunk/ERC721A/ERC721A.sol\":5166:5181  _mineInfo[user] */\n      0xffffffffffffffffffffffffffffffffffffffff\n      and\n      0xffffffffffffffffffffffffffffffffffffffff\n      and\n      dup2\n      mstore\n      0x20\n      add\n      swap1\n      dup2\n      mstore\n      0x20\n      add\n      0x00\n      keccak256\n        /* \"minerpunk/ERC721A/ERC721A.sol\":5166:5189  _mineInfo[user][number] */\n      0x00\n        /* \"minerpunk/ERC721A/ERC721A.sol\":5182:5188  number */\n      dup4\n        /* \"minerpunk/ERC721A/ERC721A.sol\":5166:5189  _mineInfo[user][number] */\n      dup2\n      mstore\n      0x20\n      add\n      swap1\n      dup2\n      mstore\n      0x20\n      add\n      0x00\n      keccak256\n      sload\n        /* \"minerpunk/ERC721A/ERC721A.sol\":5159:5189  return _mineInfo[user][number] */\n      swap1\n      pop\n        /* \"minerpunk/ERC721A/ERC721A.sol\":5037:5208  function mineInfo(address user, uint256 number) public view  returns (uint256) {       ... */\n      swap3\n      swap2\n      pop\n      pop\n      jump\t// out\n        /* \"@openzeppelin/contracts/utils/math/SafeMath.sol\":3465:3561  function mul(uint256 a, uint256 b) internal pure returns (uint256) {... */\n    tag_108:\n        /* \"@openzeppelin/contracts/utils/math/SafeMath.sol\":3523:3530  uint256 */\n      0x00\n        /* \"@openzeppelin/contracts/utils/math/SafeMath.sol\":3553:3554  b */\n      dup2\n        /* \"@openzeppelin/contracts/utils/math/SafeMath.sol\":3549:3550  a */\n      dup4\n        /* \"@openzeppelin/contracts/utils/math/SafeMath.sol\":3549:3554  a * b */\n      tag_211\n      swap2\n      swap1\n      tag_212\n      jump\t// in\n    tag_211:\n        /* \"@openzeppelin/contracts/utils/math/SafeMath.sol\":3542:3554  return a * b */\n      swap1\n      pop\n        /* \"@openzeppelin/contracts/utils/math/SafeMath.sol\":3465:3561  function mul(uint256 a, uint256 b) internal pure returns (uint256) {... */\n      swap3\n      swap2\n      pop\n      pop\n      jump\t// out\n        /* \"@openzeppelin/contracts/utils/introspection/ERC165.sol\":829:984  function supportsInterface(bytes4 interfaceId) public view virtual override returns (bool) {... */\n    tag_113:\n        /* \"@openzeppelin/contracts/utils/introspection/ERC165.sol\":914:918  bool */\n      0x00\n        /* \"@openzeppelin/contracts/utils/introspection/ERC165.sol\":952:977  type(IERC165).interfaceId */\n      0x01ffc9a700000000000000000000000000000000000000000000000000000000\n        /* \"@openzeppelin/contracts/utils/introspection/ERC165.sol\":937:977  interfaceId == type(IERC165).interfaceId */\n      not(0xffffffffffffffffffffffffffffffffffffffffffffffffffffffff)\n      and\n        /* \"@openzeppelin/contracts/utils/introspection/ERC165.sol\":937:948  interfaceId */\n      dup3\n        /* \"@openzeppelin/contracts/utils/introspection/ERC165.sol\":937:977  interfaceId == type(IERC165).interfaceId */\n      not(0xffffffffffffffffffffffffffffffffffffffffffffffffffffffff)\n      and\n      eq\n        /* \"@openzeppelin/contracts/utils/introspection/ERC165.sol\":930:977  return interfaceId == type(IERC165).interfaceId */\n      swap1\n      pop\n        /* \"@openzeppelin/contracts/utils/introspection/ERC165.sol\":829:984  function supportsInterface(bytes4 interfaceId) public view virtual override returns (bool) {... */\n      swap2\n      swap1\n      pop\n      jump\t// out\n        /* \"minerpunk/ERC721A/ERC721A.sol\":12315:12489  function _exists(uint256 tokenId) internal view returns (bool) {... */\n    tag_123:\n        /* \"minerpunk/ERC721A/ERC721A.sol\":12372:12376  bool */\n      0x00\n        /* \"minerpunk/ERC721A/ERC721A.sol\":12415:12422  tokenId */\n      dup2\n        /* \"minerpunk/ERC721A/ERC721A.sol\":12396:12411  _startTokenId() */\n      tag_215\n        /* \"minerpunk/ERC721A/ERC721A.sol\":12396:12409  _startTokenId */\n      tag_138\n        /* \"minerpunk/ERC721A/ERC721A.sol\":12396:12411  _startTokenId() */\n      jump\t// in\n    tag_215:\n        /* \"minerpunk/ERC721A/ERC721A.sol\":12396:12422  _startTokenId() <= tokenId */\n      gt\n      iszero\n        /* \"minerpunk/ERC721A/ERC721A.sol\":12396:12449  _startTokenId() <= tokenId && tokenId < _currentIndex */\n      dup1\n      iszero\n      tag_216\n      jumpi\n      pop\n        /* \"minerpunk/ERC721A/ERC721A.sol\":12436:12449  _currentIndex */\n      sload(0x04)\n        /* \"minerpunk/ERC721A/ERC721A.sol\":12426:12433  tokenId */\n      dup3\n        /* \"minerpunk/ERC721A/ERC721A.sol\":12426:12449  tokenId < _currentIndex */\n      lt\n        /* \"minerpunk/ERC721A/ERC721A.sol\":12396:12449  _startTokenId() <= tokenId && tokenId < _currentIndex */\n    tag_216:\n        /* \"minerpunk/ERC721A/ERC721A.sol\":12396:12481  _startTokenId() <= tokenId && tokenId < _currentIndex && !_ownerships[tokenId].burned */\n      dup1\n      iszero\n      tag_217\n      jumpi\n      pop\n        /* \"minerpunk/ERC721A/ERC721A.sol\":12454:12465  _ownerships */\n      0x09\n        /* \"minerpunk/ERC721A/ERC721A.sol\":12454:12474  _ownerships[tokenId] */\n      0x00\n        /* \"minerpunk/ERC721A/ERC721A.sol\":12466:12473  tokenId */\n      dup4\n        /* \"minerpunk/ERC721A/ERC721A.sol\":12454:12474  _ownerships[tokenId] */\n      dup2\n      mstore\n      0x20\n      add\n      swap1\n      dup2\n      mstore\n      0x20\n      add\n      0x00\n      keccak256\n        /* \"minerpunk/ERC721A/ERC721A.sol\":12454:12481  _ownerships[tokenId].burned */\n      0x00\n      add\n      0x1c\n      swap1\n      sload\n      swap1\n      0x0100\n      exp\n      swap1\n      div\n      0xff\n      and\n        /* \"minerpunk/ERC721A/ERC721A.sol\":12453:12481  !_ownerships[tokenId].burned */\n      iszero\n        /* \"minerpunk/ERC721A/ERC721A.sol\":12396:12481  _startTokenId() <= tokenId && tokenId < _currentIndex && !_ownerships[tokenId].burned */\n    tag_217:\n        /* \"minerpunk/ERC721A/ERC721A.sol\":12389:12481  return _startTokenId() <= tokenId && tokenId < _currentIndex && !_ownerships[tokenId].burned */\n      swap1\n      pop\n        /* \"minerpunk/ERC721A/ERC721A.sol\":12315:12489  function _exists(uint256 tokenId) internal view returns (bool) {... */\n      swap2\n      swap1\n      pop\n      jump\t// out\n        /* \"@openzeppelin/contracts/utils/Context.sol\":640:736  function _msgSender() internal view virtual returns (address) {... */\n    tag_129:\n        /* \"@openzeppelin/contracts/utils/Context.sol\":693:700  address */\n      0x00\n        /* \"@openzeppelin/contracts/utils/Context.sol\":719:729  msg.sender */\n      caller\n        /* \"@openzeppelin/contracts/utils/Context.sol\":712:729  return msg.sender */\n      swap1\n      pop\n        /* \"@openzeppelin/contracts/utils/Context.sol\":640:736  function _msgSender() internal view virtual returns (address) {... */\n      swap1\n      jump\t// out\n        /* \"minerpunk/ERC721A/ERC721A.sol\":21319:21515  function _approve(... */\n    tag_135:\n        /* \"minerpunk/ERC721A/ERC721A.sol\":21461:21463  to */\n      dup3\n        /* \"minerpunk/ERC721A/ERC721A.sol\":21434:21449  _tokenApprovals */\n      0x0b\n        /* \"minerpunk/ERC721A/ERC721A.sol\":21434:21458  _tokenApprovals[tokenId] */\n      0x00\n        /* \"minerpunk/ERC721A/ERC721A.sol\":21450:21457  tokenId */\n      dup5\n        /* \"minerpunk/ERC721A/ERC721A.sol\":21434:21458  _tokenApprovals[tokenId] */\n      dup2\n      mstore\n      0x20\n      add\n      swap1\n      dup2\n      mstore\n      0x20\n      add\n      0x00\n      keccak256\n      0x00\n        /* \"minerpunk/ERC721A/ERC721A.sol\":21434:21463  _tokenApprovals[tokenId] = to */\n      0x0100\n      exp\n      dup2\n      sload\n      dup2\n      0xffffffffffffffffffffffffffffffffffffffff\n      mul\n      not\n      and\n      swap1\n      dup4\n      0xffffffffffffffffffffffffffffffffffffffff\n      and\n      mul\n      or\n      swap1\n      sstore\n      pop\n        /* \"minerpunk/ERC721A/ERC721A.sol\":21499:21506  tokenId */\n      dup2\n        /* \"minerpunk/ERC721A/ERC721A.sol\":21495:21497  to */\n      dup4\n        /* \"minerpunk/ERC721A/ERC721A.sol\":21479:21507  Approval(owner, to, tokenId) */\n      0xffffffffffffffffffffffffffffffffffffffff\n      and\n        /* \"minerpunk/ERC721A/ERC721A.sol\":21488:21493  owner */\n      dup3\n        /* \"minerpunk/ERC721A/ERC721A.sol\":21479:21507  Approval(owner, to, tokenId) */\n      0xffffffffffffffffffffffffffffffffffffffff\n      and\n      0x8c5be1e5ebec7d5bd14f71427d1e84f3dd0314c0f7b2291e5b200ac8c7c3b925\n      mload(0x40)\n      mload(0x40)\n      dup1\n      swap2\n      sub\n      swap1\n      log4\n        /* \"minerpunk/ERC721A/ERC721A.sol\":21319:21515  function _approve(... */\n      pop\n      pop\n      pop\n      jump\t// out\n        /* \"minerpunk/ERC721A/ERC721A.sol\":4153:4245  function _startTokenId() internal view virtual returns (uint256) {... */\n    tag_138:\n        /* \"minerpunk/ERC721A/ERC721A.sol\":4209:4216  uint256 */\n      0x00\n        /* \"minerpunk/ERC721A/ERC721A.sol\":4153:4245  function _startTokenId() internal view virtual returns (uint256) {... */\n      swap1\n      jump\t// out\n        /* \"minerpunk/ERC721A/ERC721A.sol\":15547:18075  function _transfer(... */\n    tag_141:\n        /* \"minerpunk/ERC721A/ERC721A.sol\":15666:15685  uint256 powerNumber */\n      0x00\n        /* \"minerpunk/ERC721A/ERC721A.sol\":15688:15709  tokenIDPower(tokenId) */\n      tag_222\n        /* \"minerpunk/ERC721A/ERC721A.sol\":15701:15708  tokenId */\n      dup3\n        /* \"minerpunk/ERC721A/ERC721A.sol\":15688:15700  tokenIDPower */\n      tag_97\n        /* \"minerpunk/ERC721A/ERC721A.sol\":15688:15709  tokenIDPower(tokenId) */\n      jump\t// in\n    tag_222:\n        /* \"minerpunk/ERC721A/ERC721A.sol\":15666:15709  uint256 powerNumber = tokenIDPower(tokenId) */\n      swap1\n      pop\n        /* \"minerpunk/ERC721A/ERC721A.sol\":15749:15765  MineStatus(from) */\n      tag_223\n        /* \"minerpunk/ERC721A/ERC721A.sol\":15760:15764  from */\n      dup5\n        /* \"minerpunk/ERC721A/ERC721A.sol\":15749:15759  MineStatus */\n      tag_83\n        /* \"minerpunk/ERC721A/ERC721A.sol\":15749:15765  MineStatus(from) */\n      jump\t// in\n    tag_223:\n        /* \"minerpunk/ERC721A/ERC721A.sol\":15728:15737  _mineInfo */\n      0x0d\n        /* \"minerpunk/ERC721A/ERC721A.sol\":15728:15743  _mineInfo[from] */\n      0x00\n        /* \"minerpunk/ERC721A/ERC721A.sol\":15738:15742  from */\n      dup7\n        /* \"minerpunk/ERC721A/ERC721A.sol\":15728:15743  _mineInfo[from] */\n      0xffffffffffffffffffffffffffffffffffffffff\n      and\n      0xffffffffffffffffffffffffffffffffffffffff\n      and\n      dup2\n      mstore\n      0x20\n      add\n      swap1\n      dup2\n      mstore\n      0x20\n      add\n      0x00\n      keccak256\n        /* \"minerpunk/ERC721A/ERC721A.sol\":15728:15746  _mineInfo[from][3] */\n      0x00\n        /* \"minerpunk/ERC721A/ERC721A.sol\":15744:15745  3 */\n      0x03\n        /* \"minerpunk/ERC721A/ERC721A.sol\":15728:15746  _mineInfo[from][3] */\n      dup2\n      mstore\n      0x20\n      add\n      swap1\n      dup2\n      mstore\n      0x20\n      add\n      0x00\n      keccak256\n        /* \"minerpunk/ERC721A/ERC721A.sol\":15728:15765  _mineInfo[from][3] = MineStatus(from) */\n      dup2\n      swap1\n      sstore\n      pop\n        /* \"minerpunk/ERC721A/ERC721A.sol\":15797:15832  _mineInfo[from][2].sub(powerNumber) */\n      tag_224\n        /* \"minerpunk/ERC721A/ERC721A.sol\":15820:15831  powerNumber */\n      dup2\n        /* \"minerpunk/ERC721A/ERC721A.sol\":15797:15806  _mineInfo */\n      0x0d\n        /* \"minerpunk/ERC721A/ERC721A.sol\":15797:15812  _mineInfo[from] */\n      0x00\n        /* \"minerpunk/ERC721A/ERC721A.sol\":15807:15811  from */\n      dup8\n        /* \"minerpunk/ERC721A/ERC721A.sol\":15797:15812  _mineInfo[from] */\n      0xffffffffffffffffffffffffffffffffffffffff\n      and\n      0xffffffffffffffffffffffffffffffffffffffff\n      and\n      dup2\n      mstore\n      0x20\n      add\n      swap1\n      dup2\n      mstore\n      0x20\n      add\n      0x00\n      keccak256\n        /* \"minerpunk/ERC721A/ERC721A.sol\":15797:15815  _mineInfo[from][2] */\n      0x00\n        /* \"minerpunk/ERC721A/ERC721A.sol\":15813:15814  2 */\n      0x02\n        /* \"minerpunk/ERC721A/ERC721A.sol\":15797:15815  _mineInfo[from][2] */\n      dup2\n      mstore\n      0x20\n      add\n      swap1\n      dup2\n      mstore\n      0x20\n      add\n      0x00\n      keccak256\n      sload\n        /* \"minerpunk/ERC721A/ERC721A.sol\":15797:15819  _mineInfo[from][2].sub */\n      tag_148\n      swap1\n        /* \"minerpunk/ERC721A/ERC721A.sol\":15797:15832  _mineInfo[from][2].sub(powerNumber) */\n      swap2\n      swap1\n      0xffffffff\n      and\n      jump\t// in\n    tag_224:\n        /* \"minerpunk/ERC721A/ERC721A.sol\":15776:15785  _mineInfo */\n      0x0d\n        /* \"minerpunk/ERC721A/ERC721A.sol\":15776:15791  _mineInfo[from] */\n      0x00\n        /* \"minerpunk/ERC721A/ERC721A.sol\":15786:15790  from */\n      dup7\n        /* \"minerpunk/ERC721A/ERC721A.sol\":15776:15791  _mineInfo[from] */\n      0xffffffffffffffffffffffffffffffffffffffff\n      and\n      0xffffffffffffffffffffffffffffffffffffffff\n      and\n      dup2\n      mstore\n      0x20\n      add\n      swap1\n      dup2\n      mstore\n      0x20\n      add\n      0x00\n      keccak256\n        /* \"minerpunk/ERC721A/ERC721A.sol\":15776:15794  _mineInfo[from][2] */\n      0x00\n        /* \"minerpunk/ERC721A/ERC721A.sol\":15792:15793  2 */\n      0x02\n        /* \"minerpunk/ERC721A/ERC721A.sol\":15776:15794  _mineInfo[from][2] */\n      dup2\n      mstore\n      0x20\n      add\n      swap1\n      dup2\n      mstore\n      0x20\n      add\n      0x00\n      keccak256\n        /* \"minerpunk/ERC721A/ERC721A.sol\":15776:15832  _mineInfo[from][2] = _mineInfo[from][2].sub(powerNumber) */\n      dup2\n      swap1\n      sstore\n      pop\n        /* \"minerpunk/ERC721A/ERC721A.sol\":15864:15876  block.number */\n      number\n        /* \"minerpunk/ERC721A/ERC721A.sol\":15843:15852  _mineInfo */\n      0x0d\n        /* \"minerpunk/ERC721A/ERC721A.sol\":15843:15858  _mineInfo[from] */\n      0x00\n        /* \"minerpunk/ERC721A/ERC721A.sol\":15853:15857  from */\n      dup7\n        /* \"minerpunk/ERC721A/ERC721A.sol\":15843:15858  _mineInfo[from] */\n      0xffffffffffffffffffffffffffffffffffffffff\n      and\n      0xffffffffffffffffffffffffffffffffffffffff\n      and\n      dup2\n      mstore\n      0x20\n      add\n      swap1\n      dup2\n      mstore\n      0x20\n      add\n      0x00\n      keccak256\n        /* \"minerpunk/ERC721A/ERC721A.sol\":15843:15861  _mineInfo[from][1] */\n      0x00\n        /* \"minerpunk/ERC721A/ERC721A.sol\":15859:15860  1 */\n      0x01\n        /* \"minerpunk/ERC721A/ERC721A.sol\":15843:15861  _mineInfo[from][1] */\n      dup2\n      mstore\n      0x20\n      add\n      swap1\n      dup2\n      mstore\n      0x20\n      add\n      0x00\n      keccak256\n        /* \"minerpunk/ERC721A/ERC721A.sol\":15843:15876  _mineInfo[from][1] = block.number */\n      dup2\n      swap1\n      sstore\n      pop\n        /* \"minerpunk/ERC721A/ERC721A.sol\":15906:15920  MineStatus(to) */\n      tag_225\n        /* \"minerpunk/ERC721A/ERC721A.sol\":15917:15919  to */\n      dup4\n        /* \"minerpunk/ERC721A/ERC721A.sol\":15906:15916  MineStatus */\n      tag_83\n        /* \"minerpunk/ERC721A/ERC721A.sol\":15906:15920  MineStatus(to) */\n      jump\t// in\n    tag_225:\n        /* \"minerpunk/ERC721A/ERC721A.sol\":15887:15896  _mineInfo */\n      0x0d\n        /* \"minerpunk/ERC721A/ERC721A.sol\":15887:15900  _mineInfo[to] */\n      0x00\n        /* \"minerpunk/ERC721A/ERC721A.sol\":15897:15899  to */\n      dup6\n        /* \"minerpunk/ERC721A/ERC721A.sol\":15887:15900  _mineInfo[to] */\n      0xffffffffffffffffffffffffffffffffffffffff\n      and\n      0xffffffffffffffffffffffffffffffffffffffff\n      and\n      dup2\n      mstore\n      0x20\n      add\n      swap1\n      dup2\n      mstore\n      0x20\n      add\n      0x00\n      keccak256\n        /* \"minerpunk/ERC721A/ERC721A.sol\":15887:15903  _mineInfo[to][3] */\n      0x00\n        /* \"minerpunk/ERC721A/ERC721A.sol\":15901:15902  3 */\n      0x03\n        /* \"minerpunk/ERC721A/ERC721A.sol\":15887:15903  _mineInfo[to][3] */\n      dup2\n      mstore\n      0x20\n      add\n      swap1\n      dup2\n      mstore\n      0x20\n      add\n      0x00\n      keccak256\n        /* \"minerpunk/ERC721A/ERC721A.sol\":15887:15920  _mineInfo[to][3] = MineStatus(to) */\n      dup2\n      swap1\n      sstore\n      pop\n        /* \"minerpunk/ERC721A/ERC721A.sol\":15950:15983  _mineInfo[to][2].add(powerNumber) */\n      tag_226\n        /* \"minerpunk/ERC721A/ERC721A.sol\":15971:15982  powerNumber */\n      dup2\n        /* \"minerpunk/ERC721A/ERC721A.sol\":15950:15959  _mineInfo */\n      0x0d\n        /* \"minerpunk/ERC721A/ERC721A.sol\":15950:15963  _mineInfo[to] */\n      0x00\n        /* \"minerpunk/ERC721A/ERC721A.sol\":15960:15962  to */\n      dup7\n        /* \"minerpunk/ERC721A/ERC721A.sol\":15950:15963  _mineInfo[to] */\n      0xffffffffffffffffffffffffffffffffffffffff\n      and\n      0xffffffffffffffffffffffffffffffffffffffff\n      and\n      dup2\n      mstore\n      0x20\n      add\n      swap1\n      dup2\n      mstore\n      0x20\n      add\n      0x00\n      keccak256\n        /* \"minerpunk/ERC721A/ERC721A.sol\":15950:15966  _mineInfo[to][2] */\n      0x00\n        /* \"minerpunk/ERC721A/ERC721A.sol\":15964:15965  2 */\n      0x02\n        /* \"minerpunk/ERC721A/ERC721A.sol\":15950:15966  _mineInfo[to][2] */\n      dup2\n      mstore\n      0x20\n      add\n      swap1\n      dup2\n      mstore\n      0x20\n      add\n      0x00\n      keccak256\n      sload\n        /* \"minerpunk/ERC721A/ERC721A.sol\":15950:15970  _mineInfo[to][2].add */\n      tag_149\n      swap1\n        /* \"minerpunk/ERC721A/ERC721A.sol\":15950:15983  _mineInfo[to][2].add(powerNumber) */\n      swap2\n      swap1\n      0xffffffff\n      and\n      jump\t// in\n    tag_226:\n        /* \"minerpunk/ERC721A/ERC721A.sol\":15931:15940  _mineInfo */\n      0x0d\n        /* \"minerpunk/ERC721A/ERC721A.sol\":15931:15944  _mineInfo[to] */\n      0x00\n        /* \"minerpunk/ERC721A/ERC721A.sol\":15941:15943  to */\n      dup6\n        /* \"minerpunk/ERC721A/ERC721A.sol\":15931:15944  _mineInfo[to] */\n      0xffffffffffffffffffffffffffffffffffffffff\n      and\n      0xffffffffffffffffffffffffffffffffffffffff\n      and\n      dup2\n      mstore\n      0x20\n      add\n      swap1\n      dup2\n      mstore\n      0x20\n      add\n      0x00\n      keccak256\n        /* \"minerpunk/ERC721A/ERC721A.sol\":15931:15947  _mineInfo[to][2] */\n      0x00\n        /* \"minerpunk/ERC721A/ERC721A.sol\":15945:15946  2 */\n      0x02\n        /* \"minerpunk/ERC721A/ERC721A.sol\":15931:15947  _mineInfo[to][2] */\n      dup2\n      mstore\n      0x20\n      add\n      swap1\n      dup2\n      mstore\n      0x20\n      add\n      0x00\n      keccak256\n        /* \"minerpunk/ERC721A/ERC721A.sol\":15931:15983  _mineInfo[to][2] = _mineInfo[to][2].add(powerNumber) */\n      dup2\n      swap1\n      sstore\n      pop\n        /* \"minerpunk/ERC721A/ERC721A.sol\":16013:16025  block.number */\n      number\n        /* \"minerpunk/ERC721A/ERC721A.sol\":15994:16003  _mineInfo */\n      0x0d\n        /* \"minerpunk/ERC721A/ERC721A.sol\":15994:16007  _mineInfo[to] */\n      0x00\n        /* \"minerpunk/ERC721A/ERC721A.sol\":16004:16006  to */\n      dup6\n        /* \"minerpunk/ERC721A/ERC721A.sol\":15994:16007  _mineInfo[to] */\n      0xffffffffffffffffffffffffffffffffffffffff\n      and\n      0xffffffffffffffffffffffffffffffffffffffff\n      and\n      dup2\n      mstore\n      0x20\n      add\n      swap1\n      dup2\n      mstore\n      0x20\n      add\n      0x00\n      keccak256\n        /* \"minerpunk/ERC721A/ERC721A.sol\":15994:16010  _mineInfo[to][1] */\n      0x00\n        /* \"minerpunk/ERC721A/ERC721A.sol\":16008:16009  1 */\n      0x01\n        /* \"minerpunk/ERC721A/ERC721A.sol\":15994:16010  _mineInfo[to][1] */\n      dup2\n      mstore\n      0x20\n      add\n      swap1\n      dup2\n      mstore\n      0x20\n      add\n      0x00\n      keccak256\n        /* \"minerpunk/ERC721A/ERC721A.sol\":15994:16025  _mineInfo[to][1] = block.number */\n      dup2\n      swap1\n      sstore\n      pop\n        /* \"minerpunk/ERC721A/ERC721A.sol\":16060:16095  TokenOwnership memory prevOwnership */\n      0x00\n        /* \"minerpunk/ERC721A/ERC721A.sol\":16098:16119  _ownershipOf(tokenId) */\n      tag_227\n        /* \"minerpunk/ERC721A/ERC721A.sol\":16111:16118  tokenId */\n      dup4\n        /* \"minerpunk/ERC721A/ERC721A.sol\":16098:16110  _ownershipOf */\n      tag_154\n        /* \"minerpunk/ERC721A/ERC721A.sol\":16098:16119  _ownershipOf(tokenId) */\n      jump\t// in\n    tag_227:\n        /* \"minerpunk/ERC721A/ERC721A.sol\":16060:16119  TokenOwnership memory prevOwnership = _ownershipOf(tokenId) */\n      swap1\n      pop\n        /* \"minerpunk/ERC721A/ERC721A.sol\":16158:16162  from */\n      dup5\n        /* \"minerpunk/ERC721A/ERC721A.sol\":16136:16162  prevOwnership.addr != from */\n      0xffffffffffffffffffffffffffffffffffffffff\n      and\n        /* \"minerpunk/ERC721A/ERC721A.sol\":16136:16149  prevOwnership */\n      dup2\n        /* \"minerpunk/ERC721A/ERC721A.sol\":16136:16154  prevOwnership.addr */\n      0x00\n      add\n      mload\n        /* \"minerpunk/ERC721A/ERC721A.sol\":16136:16162  prevOwnership.addr != from */\n      0xffffffffffffffffffffffffffffffffffffffff\n      and\n      eq\n        /* \"minerpunk/ERC721A/ERC721A.sol\":16132:16199  if (prevOwnership.addr != from) revert TransferFromIncorrectOwner() */\n      tag_228\n      jumpi\n        /* \"minerpunk/ERC721A/ERC721A.sol\":16171:16199  TransferFromIncorrectOwner() */\n      mload(0x40)\n      0xa114810000000000000000000000000000000000000000000000000000000000\n      dup2\n      mstore\n      0x04\n      add\n      mload(0x40)\n      dup1\n      swap2\n      sub\n      swap1\n      revert\n        /* \"minerpunk/ERC721A/ERC721A.sol\":16132:16199  if (prevOwnership.addr != from) revert TransferFromIncorrectOwner() */\n    tag_228:\n        /* \"minerpunk/ERC721A/ERC721A.sol\":16212:16234  bool isApprovedOrOwner */\n      0x00\n        /* \"minerpunk/ERC721A/ERC721A.sol\":16254:16258  from */\n      dup6\n        /* \"minerpunk/ERC721A/ERC721A.sol\":16238:16258  _msgSender() == from */\n      0xffffffffffffffffffffffffffffffffffffffff\n      and\n        /* \"minerpunk/ERC721A/ERC721A.sol\":16238:16250  _msgSender() */\n      tag_229\n        /* \"minerpunk/ERC721A/ERC721A.sol\":16238:16248  _msgSender */\n      tag_129\n        /* \"minerpunk/ERC721A/ERC721A.sol\":16238:16250  _msgSender() */\n      jump\t// in\n    tag_229:\n        /* \"minerpunk/ERC721A/ERC721A.sol\":16238:16258  _msgSender() == from */\n      0xffffffffffffffffffffffffffffffffffffffff\n      and\n      eq\n        /* \"minerpunk/ERC721A/ERC721A.sol\":16238:16311  _msgSender() == from ||... */\n      dup1\n      tag_230\n      jumpi\n      pop\n        /* \"minerpunk/ERC721A/ERC721A.sol\":16275:16311  isApprovedForAll(from, _msgSender()) */\n      tag_231\n        /* \"minerpunk/ERC721A/ERC721A.sol\":16292:16296  from */\n      dup7\n        /* \"minerpunk/ERC721A/ERC721A.sol\":16298:16310  _msgSender() */\n      tag_232\n        /* \"minerpunk/ERC721A/ERC721A.sol\":16298:16308  _msgSender */\n      tag_129\n        /* \"minerpunk/ERC721A/ERC721A.sol\":16298:16310  _msgSender() */\n      jump\t// in\n    tag_232:\n        /* \"minerpunk/ERC721A/ERC721A.sol\":16275:16291  isApprovedForAll */\n      tag_102\n        /* \"minerpunk/ERC721A/ERC721A.sol\":16275:16311  isApprovedForAll(from, _msgSender()) */\n      jump\t// in\n    tag_231:\n        /* \"minerpunk/ERC721A/ERC721A.sol\":16238:16311  _msgSender() == from ||... */\n    tag_230:\n        /* \"minerpunk/ERC721A/ERC721A.sol\":16238:16364  _msgSender() == from ||... */\n      dup1\n      tag_233\n      jumpi\n      pop\n        /* \"minerpunk/ERC721A/ERC721A.sol\":16352:16364  _msgSender() */\n      tag_234\n        /* \"minerpunk/ERC721A/ERC721A.sol\":16352:16362  _msgSender */\n      tag_129\n        /* \"minerpunk/ERC721A/ERC721A.sol\":16352:16364  _msgSender() */\n      jump\t// in\n    tag_234:\n        /* \"minerpunk/ERC721A/ERC721A.sol\":16328:16364  getApproved(tokenId) == _msgSender() */\n      0xffffffffffffffffffffffffffffffffffffffff\n      and\n        /* \"minerpunk/ERC721A/ERC721A.sol\":16328:16348  getApproved(tokenId) */\n      tag_235\n        /* \"minerpunk/ERC721A/ERC721A.sol\":16340:16347  tokenId */\n      dup6\n        /* \"minerpunk/ERC721A/ERC721A.sol\":16328:16339  getApproved */\n      tag_39\n        /* \"minerpunk/ERC721A/ERC721A.sol\":16328:16348  getApproved(tokenId) */\n      jump\t// in\n    tag_235:\n        /* \"minerpunk/ERC721A/ERC721A.sol\":16328:16364  getApproved(tokenId) == _msgSender() */\n      0xffffffffffffffffffffffffffffffffffffffff\n      and\n      eq\n        /* \"minerpunk/ERC721A/ERC721A.sol\":16238:16364  _msgSender() == from ||... */\n    tag_233:\n        /* \"minerpunk/ERC721A/ERC721A.sol\":16212:16365  bool isApprovedOrOwner = (_msgSender() == from ||... */\n      swap1\n      pop\n        /* \"minerpunk/ERC721A/ERC721A.sol\":16383:16400  isApprovedOrOwner */\n      dup1\n        /* \"minerpunk/ERC721A/ERC721A.sol\":16378:16444  if (!isApprovedOrOwner) revert TransferCallerNotOwnerNorApproved() */\n      tag_236\n      jumpi\n        /* \"minerpunk/ERC721A/ERC721A.sol\":16409:16444  TransferCallerNotOwnerNorApproved() */\n      mload(0x40)\n      0x59c896be00000000000000000000000000000000000000000000000000000000\n      dup2\n      mstore\n      0x04\n      add\n      mload(0x40)\n      dup1\n      swap2\n      sub\n      swap1\n      revert\n        /* \"minerpunk/ERC721A/ERC721A.sol\":16378:16444  if (!isApprovedOrOwner) revert TransferCallerNotOwnerNorApproved() */\n    tag_236:\n        /* \"minerpunk/ERC721A/ERC721A.sol\":16473:16474  0 */\n      0x00\n        /* \"minerpunk/ERC721A/ERC721A.sol\":16459:16475  to == address(0) */\n      0xffffffffffffffffffffffffffffffffffffffff\n      and\n        /* \"minerpunk/ERC721A/ERC721A.sol\":16459:16461  to */\n      dup6\n        /* \"minerpunk/ERC721A/ERC721A.sol\":16459:16475  to == address(0) */\n      0xffffffffffffffffffffffffffffffffffffffff\n      and\n      sub\n        /* \"minerpunk/ERC721A/ERC721A.sol\":16455:16507  if (to == address(0)) revert TransferToZeroAddress() */\n      tag_237\n      jumpi\n        /* \"minerpunk/ERC721A/ERC721A.sol\":16484:16507  TransferToZeroAddress() */\n      mload(0x40)\n      0xea553b3400000000000000000000000000000000000000000000000000000000\n      dup2\n      mstore\n      0x04\n      add\n      mload(0x40)\n      dup1\n      swap2\n      sub\n      swap1\n      revert\n        /* \"minerpunk/ERC721A/ERC721A.sol\":16455:16507  if (to == address(0)) revert TransferToZeroAddress() */\n    tag_237:\n        /* \"minerpunk/ERC721A/ERC721A.sol\":16520:16563  _beforeTokenTransfers(from, to, tokenId, 1) */\n      tag_238\n        /* \"minerpunk/ERC721A/ERC721A.sol\":16542:16546  from */\n      dup7\n        /* \"minerpunk/ERC721A/ERC721A.sol\":16548:16550  to */\n      dup7\n        /* \"minerpunk/ERC721A/ERC721A.sol\":16552:16559  tokenId */\n      dup7\n        /* \"minerpunk/ERC721A/ERC721A.sol\":16561:16562  1 */\n      0x01\n        /* \"minerpunk/ERC721A/ERC721A.sol\":16520:16541  _beforeTokenTransfers */\n      tag_239\n        /* \"minerpunk/ERC721A/ERC721A.sol\":16520:16563  _beforeTokenTransfers(from, to, tokenId, 1) */\n      jump\t// in\n    tag_238:\n        /* \"minerpunk/ERC721A/ERC721A.sol\":16628:16663  _approve(address(0), tokenId, from) */\n      tag_240\n        /* \"minerpunk/ERC721A/ERC721A.sol\":16645:16646  0 */\n      0x00\n        /* \"minerpunk/ERC721A/ERC721A.sol\":16649:16656  tokenId */\n      dup6\n        /* \"minerpunk/ERC721A/ERC721A.sol\":16658:16662  from */\n      dup9\n        /* \"minerpunk/ERC721A/ERC721A.sol\":16628:16636  _approve */\n      tag_135\n        /* \"minerpunk/ERC721A/ERC721A.sol\":16628:16663  _approve(address(0), tokenId, from) */\n      jump\t// in\n    tag_240:\n        /* \"minerpunk/ERC721A/ERC721A.sol\":16989:16990  1 */\n      0x01\n        /* \"minerpunk/ERC721A/ERC721A.sol\":16959:16971  _addressData */\n      0x0a\n        /* \"minerpunk/ERC721A/ERC721A.sol\":16959:16977  _addressData[from] */\n      0x00\n        /* \"minerpunk/ERC721A/ERC721A.sol\":16972:16976  from */\n      dup9\n        /* \"minerpunk/ERC721A/ERC721A.sol\":16959:16977  _addressData[from] */\n      0xffffffffffffffffffffffffffffffffffffffff\n      and\n      0xffffffffffffffffffffffffffffffffffffffff\n      and\n      dup2\n      mstore\n      0x20\n      add\n      swap1\n      dup2\n      mstore\n      0x20\n      add\n      0x00\n      keccak256\n        /* \"minerpunk/ERC721A/ERC721A.sol\":16959:16985  _addressData[from].balance */\n      0x00\n      add\n      0x00\n        /* \"minerpunk/ERC721A/ERC721A.sol\":16959:16990  _addressData[from].balance -= 1 */\n      dup3\n      dup3\n      dup3\n      swap1\n      sload\n      swap1\n      0x0100\n      exp\n      swap1\n      div\n      0xffffffffffffffff\n      and\n      sub\n      swap3\n      pop\n      0x0100\n      exp\n      dup2\n      sload\n      dup2\n      0xffffffffffffffff\n      mul\n      not\n      and\n      swap1\n      dup4\n      0xffffffffffffffff\n      and\n      mul\n      or\n      swap1\n      sstore\n      pop\n        /* \"minerpunk/ERC721A/ERC721A.sol\":17033:17034  1 */\n      0x01\n        /* \"minerpunk/ERC721A/ERC721A.sol\":17005:17017  _addressData */\n      0x0a\n        /* \"minerpunk/ERC721A/ERC721A.sol\":17005:17021  _addressData[to] */\n      0x00\n        /* \"minerpunk/ERC721A/ERC721A.sol\":17018:17020  to */\n      dup8\n        /* \"minerpunk/ERC721A/ERC721A.sol\":17005:17021  _addressData[to] */\n      0xffffffffffffffffffffffffffffffffffffffff\n      and\n      0xffffffffffffffffffffffffffffffffffffffff\n      and\n      dup2\n      mstore\n      0x20\n      add\n      swap1\n      dup2\n      mstore\n      0x20\n      add\n      0x00\n      keccak256\n        /* \"minerpunk/ERC721A/ERC721A.sol\":17005:17029  _addressData[to].balance */\n      0x00\n      add\n      0x00\n        /* \"minerpunk/ERC721A/ERC721A.sol\":17005:17034  _addressData[to].balance += 1 */\n      dup3\n      dup3\n      dup3\n      swap1\n      sload\n      swap1\n      0x0100\n      exp\n      swap1\n      div\n      0xffffffffffffffff\n      and\n      add\n      swap3\n      pop\n      0x0100\n      exp\n      dup2\n      sload\n      dup2\n      0xffffffffffffffff\n      mul\n      not\n      and\n      swap1\n      dup4\n      0xffffffffffffffff\n      and\n      mul\n      or\n      swap1\n      sstore\n      pop\n        /* \"minerpunk/ERC721A/ERC721A.sol\":17051:17082  TokenOwnership storage currSlot */\n      0x00\n        /* \"minerpunk/ERC721A/ERC721A.sol\":17085:17096  _ownerships */\n      0x09\n        /* \"minerpunk/ERC721A/ERC721A.sol\":17085:17105  _ownerships[tokenId] */\n      0x00\n        /* \"minerpunk/ERC721A/ERC721A.sol\":17097:17104  tokenId */\n      dup7\n        /* \"minerpunk/ERC721A/ERC721A.sol\":17085:17105  _ownerships[tokenId] */\n      dup2\n      mstore\n      0x20\n      add\n      swap1\n      dup2\n      mstore\n      0x20\n      add\n      0x00\n      keccak256\n        /* \"minerpunk/ERC721A/ERC721A.sol\":17051:17105  TokenOwnership storage currSlot = _ownerships[tokenId] */\n      swap1\n      pop\n        /* \"minerpunk/ERC721A/ERC721A.sol\":17136:17138  to */\n      dup6\n        /* \"minerpunk/ERC721A/ERC721A.sol\":17120:17128  currSlot */\n      dup2\n        /* \"minerpunk/ERC721A/ERC721A.sol\":17120:17133  currSlot.addr */\n      0x00\n      add\n      0x00\n        /* \"minerpunk/ERC721A/ERC721A.sol\":17120:17138  currSlot.addr = to */\n      0x0100\n      exp\n      dup2\n      sload\n      dup2\n      0xffffffffffffffffffffffffffffffffffffffff\n      mul\n      not\n      and\n      swap1\n      dup4\n      0xffffffffffffffffffffffffffffffffffffffff\n      and\n      mul\n      or\n      swap1\n      sstore\n      pop\n        /* \"minerpunk/ERC721A/ERC721A.sol\":17186:17201  block.timestamp */\n      timestamp\n        /* \"minerpunk/ERC721A/ERC721A.sol\":17153:17161  currSlot */\n      dup2\n        /* \"minerpunk/ERC721A/ERC721A.sol\":17153:17176  currSlot.startTimestamp */\n      0x00\n      add\n      0x14\n        /* \"minerpunk/ERC721A/ERC721A.sol\":17153:17202  currSlot.startTimestamp = uint64(block.timestamp) */\n      0x0100\n      exp\n      dup2\n      sload\n      dup2\n      0xffffffffffffffff\n      mul\n      not\n      and\n      swap1\n      dup4\n      0xffffffffffffffff\n      and\n      mul\n      or\n      swap1\n      sstore\n      pop\n        /* \"minerpunk/ERC721A/ERC721A.sol\":17454:17473  uint256 nextTokenId */\n      0x00\n        /* \"minerpunk/ERC721A/ERC721A.sol\":17486:17487  1 */\n      0x01\n        /* \"minerpunk/ERC721A/ERC721A.sol\":17476:17483  tokenId */\n      dup7\n        /* \"minerpunk/ERC721A/ERC721A.sol\":17476:17487  tokenId + 1 */\n      add\n        /* \"minerpunk/ERC721A/ERC721A.sol\":17454:17487  uint256 nextTokenId = tokenId + 1 */\n      swap1\n      pop\n        /* \"minerpunk/ERC721A/ERC721A.sol\":17502:17533  TokenOwnership storage nextSlot */\n      0x00\n        /* \"minerpunk/ERC721A/ERC721A.sol\":17536:17547  _ownerships */\n      0x09\n        /* \"minerpunk/ERC721A/ERC721A.sol\":17536:17560  _ownerships[nextTokenId] */\n      0x00\n        /* \"minerpunk/ERC721A/ERC721A.sol\":17548:17559  nextTokenId */\n      dup4\n        /* \"minerpunk/ERC721A/ERC721A.sol\":17536:17560  _ownerships[nextTokenId] */\n      dup2\n      mstore\n      0x20\n      add\n      swap1\n      dup2\n      mstore\n      0x20\n      add\n      0x00\n      keccak256\n        /* \"minerpunk/ERC721A/ERC721A.sol\":17502:17560  TokenOwnership storage nextSlot = _ownerships[nextTokenId] */\n      swap1\n      pop\n        /* \"minerpunk/ERC721A/ERC721A.sol\":17604:17605  0 */\n      0x00\n        /* \"minerpunk/ERC721A/ERC721A.sol\":17579:17606  nextSlot.addr == address(0) */\n      0xffffffffffffffffffffffffffffffffffffffff\n      and\n        /* \"minerpunk/ERC721A/ERC721A.sol\":17579:17587  nextSlot */\n      dup2\n        /* \"minerpunk/ERC721A/ERC721A.sol\":17579:17592  nextSlot.addr */\n      0x00\n      add\n      0x00\n      swap1\n      sload\n      swap1\n      0x0100\n      exp\n      swap1\n      div\n      0xffffffffffffffffffffffffffffffffffffffff\n      and\n        /* \"minerpunk/ERC721A/ERC721A.sol\":17579:17606  nextSlot.addr == address(0) */\n      0xffffffffffffffffffffffffffffffffffffffff\n      and\n      sub\n        /* \"minerpunk/ERC721A/ERC721A.sol\":17575:17959  if (nextSlot.addr == address(0)) {... */\n      tag_241\n      jumpi\n        /* \"minerpunk/ERC721A/ERC721A.sol\":17789:17802  _currentIndex */\n      sload(0x04)\n        /* \"minerpunk/ERC721A/ERC721A.sol\":17774:17785  nextTokenId */\n      dup3\n        /* \"minerpunk/ERC721A/ERC721A.sol\":17774:17802  nextTokenId != _currentIndex */\n      eq\n        /* \"minerpunk/ERC721A/ERC721A.sol\":17770:17944  if (nextTokenId != _currentIndex) {... */\n      tag_242\n      jumpi\n        /* \"minerpunk/ERC721A/ERC721A.sol\":17843:17847  from */\n      dup9\n        /* \"minerpunk/ERC721A/ERC721A.sol\":17827:17835  nextSlot */\n      dup2\n        /* \"minerpunk/ERC721A/ERC721A.sol\":17827:17840  nextSlot.addr */\n      0x00\n      add\n      0x00\n        /* \"minerpunk/ERC721A/ERC721A.sol\":17827:17847  nextSlot.addr = from */\n      0x0100\n      exp\n      dup2\n      sload\n      dup2\n      0xffffffffffffffffffffffffffffffffffffffff\n      mul\n      not\n      and\n      swap1\n      dup4\n      0xffffffffffffffffffffffffffffffffffffffff\n      and\n      mul\n      or\n      swap1\n      sstore\n      pop\n        /* \"minerpunk/ERC721A/ERC721A.sol\":17896:17909  prevOwnership */\n      dup5\n        /* \"minerpunk/ERC721A/ERC721A.sol\":17896:17924  prevOwnership.startTimestamp */\n      0x20\n      add\n      mload\n        /* \"minerpunk/ERC721A/ERC721A.sol\":17870:17878  nextSlot */\n      dup2\n        /* \"minerpunk/ERC721A/ERC721A.sol\":17870:17893  nextSlot.startTimestamp */\n      0x00\n      add\n      0x14\n        /* \"minerpunk/ERC721A/ERC721A.sol\":17870:17924  nextSlot.startTimestamp = prevOwnership.startTimestamp */\n      0x0100\n      exp\n      dup2\n      sload\n      dup2\n      0xffffffffffffffff\n      mul\n      not\n      and\n      swap1\n      dup4\n      0xffffffffffffffff\n      and\n      mul\n      or\n      swap1\n      sstore\n      pop\n        /* \"minerpunk/ERC721A/ERC721A.sol\":17770:17944  if (nextTokenId != _currentIndex) {... */\n    tag_242:\n        /* \"minerpunk/ERC721A/ERC721A.sol\":17575:17959  if (nextSlot.addr == address(0)) {... */\n    tag_241:\n        /* \"minerpunk/ERC721A/ERC721A.sol\":16934:17970  unchecked {... */\n      pop\n      pop\n      pop\n        /* \"minerpunk/ERC721A/ERC721A.sol\":18006:18013  tokenId */\n      dup4\n        /* \"minerpunk/ERC721A/ERC721A.sol\":18002:18004  to */\n      dup6\n        /* \"minerpunk/ERC721A/ERC721A.sol\":17987:18014  Transfer(from, to, tokenId) */\n      0xffffffffffffffffffffffffffffffffffffffff\n      and\n        /* \"minerpunk/ERC721A/ERC721A.sol\":17996:18000  from */\n      dup8\n        /* \"minerpunk/ERC721A/ERC721A.sol\":17987:18014  Transfer(from, to, tokenId) */\n      0xffffffffffffffffffffffffffffffffffffffff\n      and\n      0xddf252ad1be2c89b69c2b068fc378daa952ba7f163c4a11628f55a4df523b3ef\n      mload(0x40)\n      mload(0x40)\n      dup1\n      swap2\n      sub\n      swap1\n      log4\n        /* \"minerpunk/ERC721A/ERC721A.sol\":18025:18067  _afterTokenTransfers(from, to, tokenId, 1) */\n      tag_243\n        /* \"minerpunk/ERC721A/ERC721A.sol\":18046:18050  from */\n      dup7\n        /* \"minerpunk/ERC721A/ERC721A.sol\":18052:18054  to */\n      dup7\n        /* \"minerpunk/ERC721A/ERC721A.sol\":18056:18063  tokenId */\n      dup7\n        /* \"minerpunk/ERC721A/ERC721A.sol\":18065:18066  1 */\n      0x01\n        /* \"minerpunk/ERC721A/ERC721A.sol\":18025:18045  _afterTokenTransfers */\n      tag_244\n        /* \"minerpunk/ERC721A/ERC721A.sol\":18025:18067  _afterTokenTransfers(from, to, tokenId, 1) */\n      jump\t// in\n    tag_243:\n        /* \"minerpunk/ERC721A/ERC721A.sol\":15651:18075  {  ... */\n      pop\n      pop\n      pop\n        /* \"minerpunk/ERC721A/ERC721A.sol\":15547:18075  function _transfer(... */\n      pop\n      pop\n      pop\n      jump\t// out\n        /* \"@openzeppelin/contracts/utils/math/SafeMath.sol\":3122:3218  function sub(uint256 a, uint256 b) internal pure returns (uint256) {... */\n    tag_148:\n        /* \"@openzeppelin/contracts/utils/math/SafeMath.sol\":3180:3187  uint256 */\n      0x00\n        /* \"@openzeppelin/contracts/utils/math/SafeMath.sol\":3210:3211  b */\n      dup2\n        /* \"@openzeppelin/contracts/utils/math/SafeMath.sol\":3206:3207  a */\n      dup4\n        /* \"@openzeppelin/contracts/utils/math/SafeMath.sol\":3206:3211  a - b */\n      tag_246\n      swap2\n      swap1\n      tag_247\n      jump\t// in\n    tag_246:\n        /* \"@openzeppelin/contracts/utils/math/SafeMath.sol\":3199:3211  return a - b */\n      swap1\n      pop\n        /* \"@openzeppelin/contracts/utils/math/SafeMath.sol\":3122:3218  function sub(uint256 a, uint256 b) internal pure returns (uint256) {... */\n      swap3\n      swap2\n      pop\n      pop\n      jump\t// out\n        /* \"@openzeppelin/contracts/utils/math/SafeMath.sol\":2755:2851  function add(uint256 a, uint256 b) internal pure returns (uint256) {... */\n    tag_149:\n        /* \"@openzeppelin/contracts/utils/math/SafeMath.sol\":2813:2820  uint256 */\n      0x00\n        /* \"@openzeppelin/contracts/utils/math/SafeMath.sol\":2843:2844  b */\n      dup2\n        /* \"@openzeppelin/contracts/utils/math/SafeMath.sol\":2839:2840  a */\n      dup4\n        /* \"@openzeppelin/contracts/utils/math/SafeMath.sol\":2839:2844  a + b */\n      tag_249\n      swap2\n      swap1\n      tag_250\n      jump\t// in\n    tag_249:\n        /* \"@openzeppelin/contracts/utils/math/SafeMath.sol\":2832:2844  return a + b */\n      swap1\n      pop\n        /* \"@openzeppelin/contracts/utils/math/SafeMath.sol\":2755:2851  function add(uint256 a, uint256 b) internal pure returns (uint256) {... */\n      swap3\n      swap2\n      pop\n      pop\n      jump\t// out\n        /* \"@openzeppelin/contracts/utils/math/SafeMath.sol\":3850:3946  function div(uint256 a, uint256 b) internal pure returns (uint256) {... */\n    tag_151:\n        /* \"@openzeppelin/contracts/utils/math/SafeMath.sol\":3908:3915  uint256 */\n      0x00\n        /* \"@openzeppelin/contracts/utils/math/SafeMath.sol\":3938:3939  b */\n      dup2\n        /* \"@openzeppelin/contracts/utils/math/SafeMath.sol\":3934:3935  a */\n      dup4\n        /* \"@openzeppelin/contracts/utils/math/SafeMath.sol\":3934:3939  a / b */\n      tag_252\n      swap2\n      swap1\n      tag_253\n      jump\t// in\n    tag_252:\n        /* \"@openzeppelin/contracts/utils/math/SafeMath.sol\":3927:3939  return a / b */\n      swap1\n      pop\n        /* \"@openzeppelin/contracts/utils/math/SafeMath.sol\":3850:3946  function div(uint256 a, uint256 b) internal pure returns (uint256) {... */\n      swap3\n      swap2\n      pop\n      pop\n      jump\t// out\n        /* \"minerpunk/ERC721A/ERC721A.sol\":7419:8530  function _ownershipOf(uint256 tokenId) internal view returns (TokenOwnership memory) {... */\n    tag_154:\n        /* \"minerpunk/ERC721A/ERC721A.sol\":7481:7502  TokenOwnership memory */\n      tag_254\n      tag_255\n      jump\t// in\n    tag_254:\n        /* \"minerpunk/ERC721A/ERC721A.sol\":7515:7527  uint256 curr */\n      0x00\n        /* \"minerpunk/ERC721A/ERC721A.sol\":7530:7537  tokenId */\n      dup3\n        /* \"minerpunk/ERC721A/ERC721A.sol\":7515:7537  uint256 curr = tokenId */\n      swap1\n      pop\n        /* \"minerpunk/ERC721A/ERC721A.sol\":7598:7602  curr */\n      dup1\n        /* \"minerpunk/ERC721A/ERC721A.sol\":7579:7594  _startTokenId() */\n      tag_257\n        /* \"minerpunk/ERC721A/ERC721A.sol\":7579:7592  _startTokenId */\n      tag_138\n        /* \"minerpunk/ERC721A/ERC721A.sol\":7579:7594  _startTokenId() */\n      jump\t// in\n    tag_257:\n        /* \"minerpunk/ERC721A/ERC721A.sol\":7579:7602  _startTokenId() <= curr */\n      gt\n        /* \"minerpunk/ERC721A/ERC721A.sol\":7575:8463  if (_startTokenId() <= curr) if (curr < _currentIndex) {... */\n      tag_258\n      jumpi\n        /* \"minerpunk/ERC721A/ERC721A.sol\":7615:7628  _currentIndex */\n      sload(0x04)\n        /* \"minerpunk/ERC721A/ERC721A.sol\":7608:7612  curr */\n      dup2\n        /* \"minerpunk/ERC721A/ERC721A.sol\":7608:7628  curr < _currentIndex */\n      lt\n        /* \"minerpunk/ERC721A/ERC721A.sol\":7604:8463  if (curr < _currentIndex) {... */\n      iszero\n      tag_259\n      jumpi\n        /* \"minerpunk/ERC721A/ERC721A.sol\":7649:7680  TokenOwnership memory ownership */\n      0x00\n        /* \"minerpunk/ERC721A/ERC721A.sol\":7683:7694  _ownerships */\n      0x09\n        /* \"minerpunk/ERC721A/ERC721A.sol\":7683:7700  _ownerships[curr] */\n      0x00\n        /* \"minerpunk/ERC721A/ERC721A.sol\":7695:7699  curr */\n      dup4\n        /* \"minerpunk/ERC721A/ERC721A.sol\":7683:7700  _ownerships[curr] */\n      dup2\n      mstore\n      0x20\n      add\n      swap1\n      dup2\n      mstore\n      0x20\n      add\n      0x00\n      keccak256\n        /* \"minerpunk/ERC721A/ERC721A.sol\":7649:7700  TokenOwnership memory ownership = _ownerships[curr] */\n      mload(0x40)\n      dup1\n      0x60\n      add\n      0x40\n      mstore\n      swap1\n      dup2\n      0x00\n      dup3\n      add\n      0x00\n      swap1\n      sload\n      swap1\n      0x0100\n      exp\n      swap1\n      div\n      0xffffffffffffffffffffffffffffffffffffffff\n      and\n      0xffffffffffffffffffffffffffffffffffffffff\n      and\n      0xffffffffffffffffffffffffffffffffffffffff\n      and\n      dup2\n      mstore\n      0x20\n      add\n      0x00\n      dup3\n      add\n      0x14\n      swap1\n      sload\n      swap1\n      0x0100\n      exp\n      swap1\n      div\n      0xffffffffffffffff\n      and\n      0xffffffffffffffff\n      and\n      0xffffffffffffffff\n      and\n      dup2\n      mstore\n      0x20\n      add\n      0x00\n      dup3\n      add\n      0x1c\n      swap1\n      sload\n      swap1\n      0x0100\n      exp\n      swap1\n      div\n      0xff\n      and\n      iszero\n      iszero\n      iszero\n      iszero\n      dup2\n      mstore\n      pop\n      pop\n      swap1\n      pop\n        /* \"minerpunk/ERC721A/ERC721A.sol\":7724:7733  ownership */\n      dup1\n        /* \"minerpunk/ERC721A/ERC721A.sol\":7724:7740  ownership.burned */\n      0x40\n      add\n      mload\n        /* \"minerpunk/ERC721A/ERC721A.sol\":7719:8448  if (!ownership.burned) {... */\n      tag_260\n      jumpi\n        /* \"minerpunk/ERC721A/ERC721A.sol\":7795:7796  0 */\n      0x00\n        /* \"minerpunk/ERC721A/ERC721A.sol\":7769:7797  ownership.addr != address(0) */\n      0xffffffffffffffffffffffffffffffffffffffff\n      and\n        /* \"minerpunk/ERC721A/ERC721A.sol\":7769:7778  ownership */\n      dup2\n        /* \"minerpunk/ERC721A/ERC721A.sol\":7769:7783  ownership.addr */\n      0x00\n      add\n      mload\n        /* \"minerpunk/ERC721A/ERC721A.sol\":7769:7797  ownership.addr != address(0) */\n      0xffffffffffffffffffffffffffffffffffffffff\n      and\n      eq\n        /* \"minerpunk/ERC721A/ERC721A.sol\":7765:7866  if (ownership.addr != address(0)) {... */\n      tag_261\n      jumpi\n        /* \"minerpunk/ERC721A/ERC721A.sol\":7833:7842  ownership */\n      dup1\n        /* \"minerpunk/ERC721A/ERC721A.sol\":7826:7842  return ownership */\n      swap3\n      pop\n      pop\n      pop\n      jump(tag_256)\n        /* \"minerpunk/ERC721A/ERC721A.sol\":7765:7866  if (ownership.addr != address(0)) {... */\n    tag_261:\n        /* \"minerpunk/ERC721A/ERC721A.sol\":8168:8429  while (true) {... */\n    tag_262:\n        /* \"minerpunk/ERC721A/ERC721A.sol\":8175:8179  true */\n      0x01\n        /* \"minerpunk/ERC721A/ERC721A.sol\":8168:8429  while (true) {... */\n      iszero\n      tag_263\n      jumpi\n        /* \"minerpunk/ERC721A/ERC721A.sol\":8208:8214  curr-- */\n      dup2\n      dup1\n      0x01\n      swap1\n      sub\n      swap3\n      pop\n      pop\n        /* \"minerpunk/ERC721A/ERC721A.sol\":8253:8264  _ownerships */\n      0x09\n        /* \"minerpunk/ERC721A/ERC721A.sol\":8253:8270  _ownerships[curr] */\n      0x00\n        /* \"minerpunk/ERC721A/ERC721A.sol\":8265:8269  curr */\n      dup4\n        /* \"minerpunk/ERC721A/ERC721A.sol\":8253:8270  _ownerships[curr] */\n      dup2\n      mstore\n      0x20\n      add\n      swap1\n      dup2\n      mstore\n      0x20\n      add\n      0x00\n      keccak256\n        /* \"minerpunk/ERC721A/ERC721A.sol\":8241:8270  ownership = _ownerships[curr] */\n      mload(0x40)\n      dup1\n      0x60\n      add\n      0x40\n      mstore\n      swap1\n      dup2\n      0x00\n      dup3\n      add\n      0x00\n      swap1\n      sload\n      swap1\n      0x0100\n      exp\n      swap1\n      div\n      0xffffffffffffffffffffffffffffffffffffffff\n      and\n      0xffffffffffffffffffffffffffffffffffffffff\n      and\n      0xffffffffffffffffffffffffffffffffffffffff\n      and\n      dup2\n      mstore\n      0x20\n      add\n      0x00\n      dup3\n      add\n      0x14\n      swap1\n      sload\n      swap1\n      0x0100\n      exp\n      swap1\n      div\n      0xffffffffffffffff\n      and\n      0xffffffffffffffff\n      and\n      0xffffffffffffffff\n      and\n      dup2\n      mstore\n      0x20\n      add\n      0x00\n      dup3\n      add\n      0x1c\n      swap1\n      sload\n      swap1\n      0x0100\n      exp\n      swap1\n      div\n      0xff\n      and\n      iszero\n      iszero\n      iszero\n      iszero\n      dup2\n      mstore\n      pop\n      pop\n      swap1\n      pop\n        /* \"minerpunk/ERC721A/ERC721A.sol\":8327:8328  0 */\n      0x00\n        /* \"minerpunk/ERC721A/ERC721A.sol\":8301:8329  ownership.addr != address(0) */\n      0xffffffffffffffffffffffffffffffffffffffff\n      and\n        /* \"minerpunk/ERC721A/ERC721A.sol\":8301:8310  ownership */\n      dup2\n        /* \"minerpunk/ERC721A/ERC721A.sol\":8301:8315  ownership.addr */\n      0x00\n      add\n      mload\n        /* \"minerpunk/ERC721A/ERC721A.sol\":8301:8329  ownership.addr != address(0) */\n      0xffffffffffffffffffffffffffffffffffffffff\n      and\n      eq\n        /* \"minerpunk/ERC721A/ERC721A.sol\":8297:8406  if (ownership.addr != address(0)) {... */\n      tag_264\n      jumpi\n        /* \"minerpunk/ERC721A/ERC721A.sol\":8369:8378  ownership */\n      dup1\n        /* \"minerpunk/ERC721A/ERC721A.sol\":8362:8378  return ownership */\n      swap3\n      pop\n      pop\n      pop\n      jump(tag_256)\n        /* \"minerpunk/ERC721A/ERC721A.sol\":8297:8406  if (ownership.addr != address(0)) {... */\n    tag_264:\n        /* \"minerpunk/ERC721A/ERC721A.sol\":8168:8429  while (true) {... */\n      jump(tag_262)\n    tag_263:\n        /* \"minerpunk/ERC721A/ERC721A.sol\":7719:8448  if (!ownership.burned) {... */\n    tag_260:\n        /* \"minerpunk/ERC721A/ERC721A.sol\":7630:8463  {... */\n      pop\n        /* \"minerpunk/ERC721A/ERC721A.sol\":7604:8463  if (curr < _currentIndex) {... */\n    tag_259:\n        /* \"minerpunk/ERC721A/ERC721A.sol\":7575:8463  if (_startTokenId() <= curr) if (curr < _currentIndex) {... */\n    tag_258:\n        /* \"minerpunk/ERC721A/ERC721A.sol\":8491:8522  OwnerQueryForNonexistentToken() */\n      mload(0x40)\n      0xdf2d9b4200000000000000000000000000000000000000000000000000000000\n      dup2\n      mstore\n      0x04\n      add\n      mload(0x40)\n      dup1\n      swap2\n      sub\n      swap1\n      revert\n        /* \"minerpunk/ERC721A/ERC721A.sol\":7419:8530  function _ownershipOf(uint256 tokenId) internal view returns (TokenOwnership memory) {... */\n    tag_256:\n      swap2\n      swap1\n      pop\n      jump\t// out\n        /* \"@openzeppelin/contracts/utils/Address.sol\":1175:1495  function isContract(address account) internal view returns (bool) {... */\n    tag_172:\n        /* \"@openzeppelin/contracts/utils/Address.sol\":1235:1239  bool */\n      0x00\n        /* \"@openzeppelin/contracts/utils/Address.sol\":1487:1488  0 */\n      dup1\n        /* \"@openzeppelin/contracts/utils/Address.sol\":1465:1472  account */\n      dup3\n        /* \"@openzeppelin/contracts/utils/Address.sol\":1465:1484  account.code.length */\n      0xffffffffffffffffffffffffffffffffffffffff\n      and\n      extcodesize\n        /* \"@openzeppelin/contracts/utils/Address.sol\":1465:1488  account.code.length > 0 */\n      gt\n        /* \"@openzeppelin/contracts/utils/Address.sol\":1458:1488  return account.code.length > 0 */\n      swap1\n      pop\n        /* \"@openzeppelin/contracts/utils/Address.sol\":1175:1495  function isContract(address account) internal view returns (bool) {... */\n      swap2\n      swap1\n      pop\n      jump\t// out\n        /* \"minerpunk/ERC721A/ERC721A.sol\":22007:22674  function _checkContractOnERC721Received(... */\n    tag_175:\n        /* \"minerpunk/ERC721A/ERC721A.sol\":22170:22174  bool */\n      0x00\n        /* \"minerpunk/ERC721A/ERC721A.sol\":22207:22209  to */\n      dup4\n        /* \"minerpunk/ERC721A/ERC721A.sol\":22191:22227  IERC721Receiver(to).onERC721Received */\n      0xffffffffffffffffffffffffffffffffffffffff\n      and\n      0x150b7a02\n        /* \"minerpunk/ERC721A/ERC721A.sol\":22228:22240  _msgSender() */\n      tag_267\n        /* \"minerpunk/ERC721A/ERC721A.sol\":22228:22238  _msgSender */\n      tag_129\n        /* \"minerpunk/ERC721A/ERC721A.sol\":22228:22240  _msgSender() */\n      jump\t// in\n    tag_267:\n        /* \"minerpunk/ERC721A/ERC721A.sol\":22242:22246  from */\n      dup8\n        /* \"minerpunk/ERC721A/ERC721A.sol\":22248:22255  tokenId */\n      dup7\n        /* \"minerpunk/ERC721A/ERC721A.sol\":22257:22262  _data */\n      dup7\n        /* \"minerpunk/ERC721A/ERC721A.sol\":22191:22263  IERC721Receiver(to).onERC721Received(_msgSender(), from, tokenId, _data) */\n      mload(0x40)\n      dup6\n      0xffffffff\n      and\n      0xe0\n      shl\n      dup2\n      mstore\n      0x04\n      add\n      tag_268\n      swap5\n      swap4\n      swap3\n      swap2\n      swap1\n      tag_269\n      jump\t// in\n    tag_268:\n      0x20\n      mload(0x40)\n      dup1\n      dup4\n      sub\n      dup2\n      0x00\n      dup8\n      gas\n      call\n      swap3\n      pop\n      pop\n      pop\n      dup1\n      iszero\n      tag_270\n      jumpi\n      pop\n      mload(0x40)\n      returndatasize\n      not(0x1f)\n      0x1f\n      dup3\n      add\n      and\n      dup3\n      add\n      dup1\n      0x40\n      mstore\n      pop\n      dup2\n      add\n      swap1\n      tag_271\n      swap2\n      swap1\n      tag_272\n      jump\t// in\n    tag_271:\n      0x01\n    tag_270:\n        /* \"minerpunk/ERC721A/ERC721A.sol\":22187:22667  try IERC721Receiver(to).onERC721Received(_msgSender(), from, tokenId, _data) returns (bytes4 retval) {... */\n      tag_273\n      jumpi\n      returndatasize\n      dup1\n      0x00\n      dup2\n      eq\n      tag_278\n      jumpi\n      mload(0x40)\n      swap2\n      pop\n      and(add(returndatasize, 0x3f), not(0x1f))\n      dup3\n      add\n      0x40\n      mstore\n      returndatasize\n      dup3\n      mstore\n      returndatasize\n      0x00\n      0x20\n      dup5\n      add\n      returndatacopy\n      jump(tag_277)\n    tag_278:\n      0x60\n      swap2\n      pop\n    tag_277:\n      pop\n        /* \"minerpunk/ERC721A/ERC721A.sol\":22442:22443  0 */\n      0x00\n        /* \"minerpunk/ERC721A/ERC721A.sol\":22425:22431  reason */\n      dup2\n        /* \"minerpunk/ERC721A/ERC721A.sol\":22425:22438  reason.length */\n      mload\n        /* \"minerpunk/ERC721A/ERC721A.sol\":22425:22443  reason.length == 0 */\n      sub\n        /* \"minerpunk/ERC721A/ERC721A.sol\":22421:22656  if (reason.length == 0) {... */\n      tag_279\n      jumpi\n        /* \"minerpunk/ERC721A/ERC721A.sol\":22471:22511  TransferToNonERC721ReceiverImplementer() */\n      mload(0x40)\n      0xd1a57ed600000000000000000000000000000000000000000000000000000000\n      dup2\n      mstore\n      0x04\n      add\n      mload(0x40)\n      dup1\n      swap2\n      sub\n      swap1\n      revert\n        /* \"minerpunk/ERC721A/ERC721A.sol\":22421:22656  if (reason.length == 0) {... */\n    tag_279:\n        /* \"minerpunk/ERC721A/ERC721A.sol\":22614:22620  reason */\n      dup1\n        /* \"minerpunk/ERC721A/ERC721A.sol\":22608:22621  mload(reason) */\n      mload\n        /* \"minerpunk/ERC721A/ERC721A.sol\":22599:22605  reason */\n      dup2\n        /* \"minerpunk/ERC721A/ERC721A.sol\":22595:22597  32 */\n      0x20\n        /* \"minerpunk/ERC721A/ERC721A.sol\":22591:22606  add(32, reason) */\n      add\n        /* \"minerpunk/ERC721A/ERC721A.sol\":22584:22622  revert(add(32, reason), mload(reason)) */\n      revert\n        /* \"minerpunk/ERC721A/ERC721A.sol\":22187:22667  try IERC721Receiver(to).onERC721Received(_msgSender(), from, tokenId, _data) returns (bytes4 retval) {... */\n    tag_273:\n        /* \"minerpunk/ERC721A/ERC721A.sol\":22320:22365  IERC721Receiver(to).onERC721Received.selector */\n      shl(0xe0, 0x150b7a02)\n        /* \"minerpunk/ERC721A/ERC721A.sol\":22310:22365  retval == IERC721Receiver(to).onERC721Received.selector */\n      not(0xffffffffffffffffffffffffffffffffffffffffffffffffffffffff)\n      and\n        /* \"minerpunk/ERC721A/ERC721A.sol\":22310:22316  retval */\n      dup2\n        /* \"minerpunk/ERC721A/ERC721A.sol\":22310:22365  retval == IERC721Receiver(to).onERC721Received.selector */\n      not(0xffffffffffffffffffffffffffffffffffffffffffffffffffffffff)\n      and\n      eq\n        /* \"minerpunk/ERC721A/ERC721A.sol\":22303:22365  return retval == IERC721Receiver(to).onERC721Received.selector */\n      swap2\n      pop\n      pop\n        /* \"minerpunk/ERC721A/ERC721A.sol\":22007:22674  function _checkContractOnERC721Received(... */\n      swap5\n      swap4\n      pop\n      pop\n      pop\n      pop\n      jump\t// out\n        /* \"minerpunk/ERC721A/ERC721A.sol\":9694:9869  function _baseURI() internal view virtual returns (string memory) {... */\n    tag_188:\n        /* \"minerpunk/ERC721A/ERC721A.sol\":9745:9758  string memory */\n      0x60\n        /* \"minerpunk/ERC721A/ERC721A.sol\":9771:9861  return 'https://gateway.pinata.cloud/ipfs/QmVQ6Sd5cVkVDzALpdrHKanghBoJYdWUxUt3k7HpQFRX8x/' */\n      mload(0x40)\n      dup1\n      0x80\n      add\n      0x40\n      mstore\n      dup1\n      0x51\n      dup2\n      mstore\n      0x20\n      add\n      data_1440d62b74b89b1009069b5db0474895039cd9244a07889f12959de404ca18c4\n      0x51\n      swap2\n      codecopy\n      swap1\n      pop\n        /* \"minerpunk/ERC721A/ERC721A.sol\":9694:9869  function _baseURI() internal view virtual returns (string memory) {... */\n      swap1\n      jump\t// out\n        /* \"@openzeppelin/contracts/utils/Strings.sol\":415:1111  function toString(uint256 value) internal pure returns (string memory) {... */\n    tag_192:\n        /* \"@openzeppelin/contracts/utils/Strings.sol\":471:484  string memory */\n      0x60\n        /* \"@openzeppelin/contracts/utils/Strings.sol\":520:534  uint256 length */\n      0x00\n        /* \"@openzeppelin/contracts/utils/Strings.sol\":557:558  1 */\n      0x01\n        /* \"@openzeppelin/contracts/utils/Strings.sol\":537:554  Math.log10(value) */\n      tag_284\n        /* \"@openzeppelin/contracts/utils/Strings.sol\":548:553  value */\n      dup5\n        /* \"@openzeppelin/contracts/utils/Strings.sol\":537:547  Math.log10 */\n      tag_285\n        /* \"@openzeppelin/contracts/utils/Strings.sol\":537:554  Math.log10(value) */\n      jump\t// in\n    tag_284:\n        /* \"@openzeppelin/contracts/utils/Strings.sol\":537:558  Math.log10(value) + 1 */\n      add\n        /* \"@openzeppelin/contracts/utils/Strings.sol\":520:558  uint256 length = Math.log10(value) + 1 */\n      swap1\n      pop\n        /* \"@openzeppelin/contracts/utils/Strings.sol\":572:592  string memory buffer */\n      0x00\n        /* \"@openzeppelin/contracts/utils/Strings.sol\":606:612  length */\n      dup2\n        /* \"@openzeppelin/contracts/utils/Strings.sol\":595:613  new string(length) */\n      0xffffffffffffffff\n      dup2\n      gt\n      iszero\n      tag_286\n      jumpi\n      tag_287\n      tag_288\n      jump\t// in\n    tag_287:\n    tag_286:\n      mload(0x40)\n      swap1\n      dup1\n      dup3\n      mstore\n      dup1\n      0x1f\n      add\n      not(0x1f)\n      and\n      0x20\n      add\n      dup3\n      add\n      0x40\n      mstore\n      dup1\n      iszero\n      tag_289\n      jumpi\n      dup2\n      0x20\n      add\n      0x01\n      dup3\n      mul\n      dup1\n      calldatasize\n      dup4\n      calldatacopy\n      dup1\n      dup3\n      add\n      swap2\n      pop\n      pop\n      swap1\n      pop\n    tag_289:\n      pop\n        /* \"@openzeppelin/contracts/utils/Strings.sol\":572:613  string memory buffer = new string(length) */\n      swap1\n      pop\n        /* \"@openzeppelin/contracts/utils/Strings.sol\":627:638  uint256 ptr */\n      0x00\n        /* \"@openzeppelin/contracts/utils/Strings.sol\":753:759  length */\n      dup3\n        /* \"@openzeppelin/contracts/utils/Strings.sol\":749:751  32 */\n      0x20\n        /* \"@openzeppelin/contracts/utils/Strings.sol\":745:760  add(32, length) */\n      add\n        /* \"@openzeppelin/contracts/utils/Strings.sol\":737:743  buffer */\n      dup3\n        /* \"@openzeppelin/contracts/utils/Strings.sol\":733:761  add(buffer, add(32, length)) */\n      add\n        /* \"@openzeppelin/contracts/utils/Strings.sol\":726:761  ptr := add(buffer, add(32, length)) */\n      swap1\n      pop\n        /* \"@openzeppelin/contracts/utils/Strings.sol\":788:1068  while (true) {... */\n    tag_290:\n        /* \"@openzeppelin/contracts/utils/Strings.sol\":795:799  true */\n      0x01\n        /* \"@openzeppelin/contracts/utils/Strings.sol\":788:1068  while (true) {... */\n      iszero\n      tag_291\n      jumpi\n        /* \"@openzeppelin/contracts/utils/Strings.sol\":819:824  ptr-- */\n      dup1\n      dup1\n      0x01\n      swap1\n      sub\n      swap2\n      pop\n      pop\n        /* \"@openzeppelin/contracts/utils/Strings.sol\":958:966  _SYMBOLS */\n      0x3031323334353637383961626364656600000000000000000000000000000000\n        /* \"@openzeppelin/contracts/utils/Strings.sol\":953:955  10 */\n      0x0a\n        /* \"@openzeppelin/contracts/utils/Strings.sol\":946:951  value */\n      dup7\n        /* \"@openzeppelin/contracts/utils/Strings.sol\":942:956  mod(value, 10) */\n      mod\n        /* \"@openzeppelin/contracts/utils/Strings.sol\":937:967  byte(mod(value, 10), _SYMBOLS) */\n      byte\n        /* \"@openzeppelin/contracts/utils/Strings.sol\":932:935  ptr */\n      dup2\n        /* \"@openzeppelin/contracts/utils/Strings.sol\":924:968  mstore8(ptr, byte(mod(value, 10), _SYMBOLS)) */\n      mstore8\n        /* \"@openzeppelin/contracts/utils/Strings.sol\":1012:1014  10 */\n      0x0a\n        /* \"@openzeppelin/contracts/utils/Strings.sol\":1003:1014  value /= 10 */\n      dup6\n      dup2\n      tag_292\n      jumpi\n      tag_293\n      tag_294\n      jump\t// in\n    tag_293:\n    tag_292:\n      div\n      swap5\n      pop\n        /* \"@openzeppelin/contracts/utils/Strings.sol\":1045:1046  0 */\n      0x00\n        /* \"@openzeppelin/contracts/utils/Strings.sol\":1036:1041  value */\n      dup6\n        /* \"@openzeppelin/contracts/utils/Strings.sol\":1036:1046  value == 0 */\n      sub\n        /* \"@openzeppelin/contracts/utils/Strings.sol\":788:1068  while (true) {... */\n      tag_290\n        /* \"@openzeppelin/contracts/utils/Strings.sol\":1032:1053  if (value == 0) break */\n      jumpi\n        /* \"@openzeppelin/contracts/utils/Strings.sol\":788:1068  while (true) {... */\n    tag_291:\n        /* \"@openzeppelin/contracts/utils/Strings.sol\":1088:1094  buffer */\n      dup2\n        /* \"@openzeppelin/contracts/utils/Strings.sol\":1081:1094  return buffer */\n      swap4\n      pop\n      pop\n      pop\n      pop\n        /* \"@openzeppelin/contracts/utils/Strings.sol\":415:1111  function toString(uint256 value) internal pure returns (string memory) {... */\n      swap2\n      swap1\n      pop\n      jump\t// out\n        /* \"minerpunk/ERC721A/ERC721A.sol\":23322:23481  function _beforeTokenTransfers(... */\n    tag_239:\n      pop\n      pop\n      pop\n      pop\n      jump\t// out\n        /* \"minerpunk/ERC721A/ERC721A.sol\":24140:24298  function _afterTokenTransfers(... */\n    tag_244:\n      pop\n      pop\n      pop\n      pop\n      jump\t// out\n        /* \"@openzeppelin/contracts/utils/math/Math.sol\":9889:10779  function log10(uint256 value) internal pure returns (uint256) {... */\n    tag_285:\n        /* \"@openzeppelin/contracts/utils/math/Math.sol\":9942:9949  uint256 */\n      0x00\n        /* \"@openzeppelin/contracts/utils/math/Math.sol\":9961:9975  uint256 result */\n      dup1\n        /* \"@openzeppelin/contracts/utils/math/Math.sol\":9978:9979  0 */\n      0x00\n        /* \"@openzeppelin/contracts/utils/math/Math.sol\":9961:9979  uint256 result = 0 */\n      swap1\n      pop\n        /* \"@openzeppelin/contracts/utils/math/Math.sol\":10026:10032  10**64 */\n      0x184f03e93ff9f4daa797ed6e38ed64bf6a1f010000000000000000\n        /* \"@openzeppelin/contracts/utils/math/Math.sol\":10017:10022  value */\n      dup4\n        /* \"@openzeppelin/contracts/utils/math/Math.sol\":10017:10032  value >= 10**64 */\n      lt\n        /* \"@openzeppelin/contracts/utils/math/Math.sol\":10013:10112  if (value >= 10**64) {... */\n      tag_299\n      jumpi\n        /* \"@openzeppelin/contracts/utils/math/Math.sol\":10061:10067  10**64 */\n      0x184f03e93ff9f4daa797ed6e38ed64bf6a1f010000000000000000\n        /* \"@openzeppelin/contracts/utils/math/Math.sol\":10052:10067  value /= 10**64 */\n      dup4\n      dup2\n      tag_300\n      jumpi\n      tag_301\n      tag_294\n      jump\t// in\n    tag_301:\n    tag_300:\n      div\n      swap3\n      pop\n        /* \"@openzeppelin/contracts/utils/math/Math.sol\":10095:10097  64 */\n      0x40\n        /* \"@openzeppelin/contracts/utils/math/Math.sol\":10085:10097  result += 64 */\n      dup2\n      add\n      swap1\n      pop\n        /* \"@openzeppelin/contracts/utils/math/Math.sol\":10013:10112  if (value >= 10**64) {... */\n    tag_299:\n        /* \"@openzeppelin/contracts/utils/math/Math.sol\":10138:10144  10**32 */\n      0x04ee2d6d415b85acef8100000000\n        /* \"@openzeppelin/contracts/utils/math/Math.sol\":10129:10134  value */\n      dup4\n        /* \"@openzeppelin/contracts/utils/math/Math.sol\":10129:10144  value >= 10**32 */\n      lt\n        /* \"@openzeppelin/contracts/utils/math/Math.sol\":10125:10224  if (value >= 10**32) {... */\n      tag_302\n      jumpi\n        /* \"@openzeppelin/contracts/utils/math/Math.sol\":10173:10179  10**32 */\n      0x04ee2d6d415b85acef8100000000\n        /* \"@openzeppelin/contracts/utils/math/Math.sol\":10164:10179  value /= 10**32 */\n      dup4\n      dup2\n      tag_303\n      jumpi\n      tag_304\n      tag_294\n      jump\t// in\n    tag_304:\n    tag_303:\n      div\n      swap3\n      pop\n        /* \"@openzeppelin/contracts/utils/math/Math.sol\":10207:10209  32 */\n      0x20\n        /* \"@openzeppelin/contracts/utils/math/Math.sol\":10197:10209  result += 32 */\n      dup2\n      add\n      swap1\n      pop\n        /* \"@openzeppelin/contracts/utils/math/Math.sol\":10125:10224  if (value >= 10**32) {... */\n    tag_302:\n        /* \"@openzeppelin/contracts/utils/math/Math.sol\":10250:10256  10**16 */\n      0x2386f26fc10000\n        /* \"@openzeppelin/contracts/utils/math/Math.sol\":10241:10246  value */\n      dup4\n        /* \"@openzeppelin/contracts/utils/math/Math.sol\":10241:10256  value >= 10**16 */\n      lt\n        /* \"@openzeppelin/contracts/utils/math/Math.sol\":10237:10336  if (value >= 10**16) {... */\n      tag_305\n      jumpi\n        /* \"@openzeppelin/contracts/utils/math/Math.sol\":10285:10291  10**16 */\n      0x2386f26fc10000\n        /* \"@openzeppelin/contracts/utils/math/Math.sol\":10276:10291  value /= 10**16 */\n      dup4\n      dup2\n      tag_306\n      jumpi\n      tag_307\n      tag_294\n      jump\t// in\n    tag_307:\n    tag_306:\n      div\n      swap3\n      pop\n        /* \"@openzeppelin/contracts/utils/math/Math.sol\":10319:10321  16 */\n      0x10\n        /* \"@openzeppelin/contracts/utils/math/Math.sol\":10309:10321  result += 16 */\n      dup2\n      add\n      swap1\n      pop\n        /* \"@openzeppelin/contracts/utils/math/Math.sol\":10237:10336  if (value >= 10**16) {... */\n    tag_305:\n        /* \"@openzeppelin/contracts/utils/math/Math.sol\":10362:10367  10**8 */\n      0x05f5e100\n        /* \"@openzeppelin/contracts/utils/math/Math.sol\":10353:10358  value */\n      dup4\n        /* \"@openzeppelin/contracts/utils/math/Math.sol\":10353:10367  value >= 10**8 */\n      lt\n        /* \"@openzeppelin/contracts/utils/math/Math.sol\":10349:10445  if (value >= 10**8) {... */\n      tag_308\n      jumpi\n        /* \"@openzeppelin/contracts/utils/math/Math.sol\":10396:10401  10**8 */\n      0x05f5e100\n        /* \"@openzeppelin/contracts/utils/math/Math.sol\":10387:10401  value /= 10**8 */\n      dup4\n      dup2\n      tag_309\n      jumpi\n      tag_310\n      tag_294\n      jump\t// in\n    tag_310:\n    tag_309:\n      div\n      swap3\n      pop\n        /* \"@openzeppelin/contracts/utils/math/Math.sol\":10429:10430  8 */\n      0x08\n        /* \"@openzeppelin/contracts/utils/math/Math.sol\":10419:10430  result += 8 */\n      dup2\n      add\n      swap1\n      pop\n        /* \"@openzeppelin/contracts/utils/math/Math.sol\":10349:10445  if (value >= 10**8) {... */\n    tag_308:\n        /* \"@openzeppelin/contracts/utils/math/Math.sol\":10471:10476  10**4 */\n      0x2710\n        /* \"@openzeppelin/contracts/utils/math/Math.sol\":10462:10467  value */\n      dup4\n        /* \"@openzeppelin/contracts/utils/math/Math.sol\":10462:10476  value >= 10**4 */\n      lt\n        /* \"@openzeppelin/contracts/utils/math/Math.sol\":10458:10554  if (value >= 10**4) {... */\n      tag_311\n      jumpi\n        /* \"@openzeppelin/contracts/utils/math/Math.sol\":10505:10510  10**4 */\n      0x2710\n        /* \"@openzeppelin/contracts/utils/math/Math.sol\":10496:10510  value /= 10**4 */\n      dup4\n      dup2\n      tag_312\n      jumpi\n      tag_313\n      tag_294\n      jump\t// in\n    tag_313:\n    tag_312:\n      div\n      swap3\n      pop\n        /* \"@openzeppelin/contracts/utils/math/Math.sol\":10538:10539  4 */\n      0x04\n        /* \"@openzeppelin/contracts/utils/math/Math.sol\":10528:10539  result += 4 */\n      dup2\n      add\n      swap1\n      pop\n        /* \"@openzeppelin/contracts/utils/math/Math.sol\":10458:10554  if (value >= 10**4) {... */\n    tag_311:\n        /* \"@openzeppelin/contracts/utils/math/Math.sol\":10580:10585  10**2 */\n      0x64\n        /* \"@openzeppelin/contracts/utils/math/Math.sol\":10571:10576  value */\n      dup4\n        /* \"@openzeppelin/contracts/utils/math/Math.sol\":10571:10585  value >= 10**2 */\n      lt\n        /* \"@openzeppelin/contracts/utils/math/Math.sol\":10567:10663  if (value >= 10**2) {... */\n      tag_314\n      jumpi\n        /* \"@openzeppelin/contracts/utils/math/Math.sol\":10614:10619  10**2 */\n      0x64\n        /* \"@openzeppelin/contracts/utils/math/Math.sol\":10605:10619  value /= 10**2 */\n      dup4\n      dup2\n      tag_315\n      jumpi\n      tag_316\n      tag_294\n      jump\t// in\n    tag_316:\n    tag_315:\n      div\n      swap3\n      pop\n        /* \"@openzeppelin/contracts/utils/math/Math.sol\":10647:10648  2 */\n      0x02\n        /* \"@openzeppelin/contracts/utils/math/Math.sol\":10637:10648  result += 2 */\n      dup2\n      add\n      swap1\n      pop\n        /* \"@openzeppelin/contracts/utils/math/Math.sol\":10567:10663  if (value >= 10**2) {... */\n    tag_314:\n        /* \"@openzeppelin/contracts/utils/math/Math.sol\":10689:10694  10**1 */\n      0x0a\n        /* \"@openzeppelin/contracts/utils/math/Math.sol\":10680:10685  value */\n      dup4\n        /* \"@openzeppelin/contracts/utils/math/Math.sol\":10680:10694  value >= 10**1 */\n      lt\n        /* \"@openzeppelin/contracts/utils/math/Math.sol\":10676:10740  if (value >= 10**1) {... */\n      tag_317\n      jumpi\n        /* \"@openzeppelin/contracts/utils/math/Math.sol\":10724:10725  1 */\n      0x01\n        /* \"@openzeppelin/contracts/utils/math/Math.sol\":10714:10725  result += 1 */\n      dup2\n      add\n      swap1\n      pop\n        /* \"@openzeppelin/contracts/utils/math/Math.sol\":10676:10740  if (value >= 10**1) {... */\n    tag_317:\n        /* \"@openzeppelin/contracts/utils/math/Math.sol\":10766:10772  result */\n      dup1\n        /* \"@openzeppelin/contracts/utils/math/Math.sol\":10759:10772  return result */\n      swap2\n      pop\n      pop\n        /* \"@openzeppelin/contracts/utils/math/Math.sol\":9889:10779  function log10(uint256 value) internal pure returns (uint256) {... */\n      swap2\n      swap1\n      pop\n      jump\t// out\n    tag_255:\n      mload(0x40)\n      dup1\n      0x60\n      add\n      0x40\n      mstore\n      dup1\n      and(0xffffffffffffffffffffffffffffffffffffffff, 0x00)\n      dup2\n      mstore\n      0x20\n      add\n      and(0xffffffffffffffff, 0x00)\n      dup2\n      mstore\n      0x20\n      add\n      iszero(iszero(0x00))\n      dup2\n      mstore\n      pop\n      swap1\n      jump\t// out\n        /* \"#utility.yul\":7:82   */\n    tag_318:\n        /* \"#utility.yul\":40:46   */\n      0x00\n        /* \"#utility.yul\":73:75   */\n      0x40\n        /* \"#utility.yul\":67:76   */\n      mload\n        /* \"#utility.yul\":57:76   */\n      swap1\n      pop\n        /* \"#utility.yul\":7:82   */\n      swap1\n      jump\t// out\n        /* \"#utility.yul\":88:205   */\n    tag_319:\n        /* \"#utility.yul\":197:198   */\n      0x00\n        /* \"#utility.yul\":194:195   */\n      dup1\n        /* \"#utility.yul\":187:199   */\n      revert\n        /* \"#utility.yul\":211:328   */\n    tag_320:\n        /* \"#utility.yul\":320:321   */\n      0x00\n        /* \"#utility.yul\":317:318   */\n      dup1\n        /* \"#utility.yul\":310:322   */\n      revert\n        /* \"#utility.yul\":334:483   */\n    tag_321:\n        /* \"#utility.yul\":370:377   */\n      0x00\n        /* \"#utility.yul\":410:476   */\n      0xffffffff00000000000000000000000000000000000000000000000000000000\n        /* \"#utility.yul\":403:408   */\n      dup3\n        /* \"#utility.yul\":399:477   */\n      and\n        /* \"#utility.yul\":388:477   */\n      swap1\n      pop\n        /* \"#utility.yul\":334:483   */\n      swap2\n      swap1\n      pop\n      jump\t// out\n        /* \"#utility.yul\":489:609   */\n    tag_322:\n        /* \"#utility.yul\":561:584   */\n      tag_364\n        /* \"#utility.yul\":578:583   */\n      dup2\n        /* \"#utility.yul\":561:584   */\n      tag_321\n      jump\t// in\n    tag_364:\n        /* \"#utility.yul\":554:559   */\n      dup2\n        /* \"#utility.yul\":551:585   */\n      eq\n        /* \"#utility.yul\":541:603   */\n      tag_365\n      jumpi\n        /* \"#utility.yul\":599:600   */\n      0x00\n        /* \"#utility.yul\":596:597   */\n      dup1\n        /* \"#utility.yul\":589:601   */\n      revert\n        /* \"#utility.yul\":541:603   */\n    tag_365:\n        /* \"#utility.yul\":489:609   */\n      pop\n      jump\t// out\n        /* \"#utility.yul\":615:752   */\n    tag_323:\n        /* \"#utility.yul\":660:665   */\n      0x00\n        /* \"#utility.yul\":698:704   */\n      dup2\n        /* \"#utility.yul\":685:705   */\n      calldataload\n        /* \"#utility.yul\":676:705   */\n      swap1\n      pop\n        /* \"#utility.yul\":714:746   */\n      tag_367\n        /* \"#utility.yul\":740:745   */\n      dup2\n        /* \"#utility.yul\":714:746   */\n      tag_322\n      jump\t// in\n    tag_367:\n        /* \"#utility.yul\":615:752   */\n      swap3\n      swap2\n      pop\n      pop\n      jump\t// out\n        /* \"#utility.yul\":758:1085   */\n    tag_28:\n        /* \"#utility.yul\":816:822   */\n      0x00\n        /* \"#utility.yul\":865:867   */\n      0x20\n        /* \"#utility.yul\":853:862   */\n      dup3\n        /* \"#utility.yul\":844:851   */\n      dup5\n        /* \"#utility.yul\":840:863   */\n      sub\n        /* \"#utility.yul\":836:868   */\n      slt\n        /* \"#utility.yul\":833:952   */\n      iszero\n      tag_369\n      jumpi\n        /* \"#utility.yul\":871:950   */\n      tag_370\n      tag_319\n      jump\t// in\n    tag_370:\n        /* \"#utility.yul\":833:952   */\n    tag_369:\n        /* \"#utility.yul\":991:992   */\n      0x00\n        /* \"#utility.yul\":1016:1068   */\n      tag_371\n        /* \"#utility.yul\":1060:1067   */\n      dup5\n        /* \"#utility.yul\":1051:1057   */\n      dup3\n        /* \"#utility.yul\":1040:1049   */\n      dup6\n        /* \"#utility.yul\":1036:1058   */\n      add\n        /* \"#utility.yul\":1016:1068   */\n      tag_323\n      jump\t// in\n    tag_371:\n        /* \"#utility.yul\":1006:1068   */\n      swap2\n      pop\n        /* \"#utility.yul\":962:1078   */\n      pop\n        /* \"#utility.yul\":758:1085   */\n      swap3\n      swap2\n      pop\n      pop\n      jump\t// out\n        /* \"#utility.yul\":1091:1181   */\n    tag_324:\n        /* \"#utility.yul\":1125:1132   */\n      0x00\n        /* \"#utility.yul\":1168:1173   */\n      dup2\n        /* \"#utility.yul\":1161:1174   */\n      iszero\n        /* \"#utility.yul\":1154:1175   */\n      iszero\n        /* \"#utility.yul\":1143:1175   */\n      swap1\n      pop\n        /* \"#utility.yul\":1091:1181   */\n      swap2\n      swap1\n      pop\n      jump\t// out\n        /* \"#utility.yul\":1187:1296   */\n    tag_325:\n        /* \"#utility.yul\":1268:1289   */\n      tag_374\n        /* \"#utility.yul\":1283:1288   */\n      dup2\n        /* \"#utility.yul\":1268:1289   */\n      tag_324\n      jump\t// in\n    tag_374:\n        /* \"#utility.yul\":1263:1266   */\n      dup3\n        /* \"#utility.yul\":1256:1290   */\n      mstore\n        /* \"#utility.yul\":1187:1296   */\n      pop\n      pop\n      jump\t// out\n        /* \"#utility.yul\":1302:1512   */\n    tag_31:\n        /* \"#utility.yul\":1389:1393   */\n      0x00\n        /* \"#utility.yul\":1427:1429   */\n      0x20\n        /* \"#utility.yul\":1416:1425   */\n      dup3\n        /* \"#utility.yul\":1412:1430   */\n      add\n        /* \"#utility.yul\":1404:1430   */\n      swap1\n      pop\n        /* \"#utility.yul\":1440:1505   */\n      tag_376\n        /* \"#utility.yul\":1502:1503   */\n      0x00\n        /* \"#utility.yul\":1491:1500   */\n      dup4\n        /* \"#utility.yul\":1487:1504   */\n      add\n        /* \"#utility.yul\":1478:1484   */\n      dup5\n        /* \"#utility.yul\":1440:1505   */\n      tag_325\n      jump\t// in\n    tag_376:\n        /* \"#utility.yul\":1302:1512   */\n      swap3\n      swap2\n      pop\n      pop\n      jump\t// out\n        /* \"#utility.yul\":1518:1617   */\n    tag_326:\n        /* \"#utility.yul\":1570:1576   */\n      0x00\n        /* \"#utility.yul\":1604:1609   */\n      dup2\n        /* \"#utility.yul\":1598:1610   */\n      mload\n        /* \"#utility.yul\":1588:1610   */\n      swap1\n      pop\n        /* \"#utility.yul\":1518:1617   */\n      swap2\n      swap1\n      pop\n      jump\t// out\n        /* \"#utility.yul\":1623:1792   */\n    tag_327:\n        /* \"#utility.yul\":1707:1718   */\n      0x00\n        /* \"#utility.yul\":1741:1747   */\n      dup3\n        /* \"#utility.yul\":1736:1739   */\n      dup3\n        /* \"#utility.yul\":1729:1748   */\n      mstore\n        /* \"#utility.yul\":1781:1785   */\n      0x20\n        /* \"#utility.yul\":1776:1779   */\n      dup3\n        /* \"#utility.yul\":1772:1786   */\n      add\n        /* \"#utility.yul\":1757:1786   */\n      swap1\n      pop\n        /* \"#utility.yul\":1623:1792   */\n      swap3\n      swap2\n      pop\n      pop\n      jump\t// out\n        /* \"#utility.yul\":1798:2044   */\n    tag_328:\n        /* \"#utility.yul\":1879:1880   */\n      0x00\n        /* \"#utility.yul\":1889:2002   */\n    tag_380:\n        /* \"#utility.yul\":1903:1909   */\n      dup4\n        /* \"#utility.yul\":1900:1901   */\n      dup2\n        /* \"#utility.yul\":1897:1910   */\n      lt\n        /* \"#utility.yul\":1889:2002   */\n      iszero\n      tag_382\n      jumpi\n        /* \"#utility.yul\":1988:1989   */\n      dup1\n        /* \"#utility.yul\":1983:1986   */\n      dup3\n        /* \"#utility.yul\":1979:1990   */\n      add\n        /* \"#utility.yul\":1973:1991   */\n      mload\n        /* \"#utility.yul\":1969:1970   */\n      dup2\n        /* \"#utility.yul\":1964:1967   */\n      dup5\n        /* \"#utility.yul\":1960:1971   */\n      add\n        /* \"#utility.yul\":1953:1992   */\n      mstore\n        /* \"#utility.yul\":1925:1927   */\n      0x20\n        /* \"#utility.yul\":1922:1923   */\n      dup2\n        /* \"#utility.yul\":1918:1928   */\n      add\n        /* \"#utility.yul\":1913:1928   */\n      swap1\n      pop\n        /* \"#utility.yul\":1889:2002   */\n      jump(tag_380)\n    tag_382:\n        /* \"#utility.yul\":2036:2037   */\n      0x00\n        /* \"#utility.yul\":2027:2033   */\n      dup5\n        /* \"#utility.yul\":2022:2025   */\n      dup5\n        /* \"#utility.yul\":2018:2034   */\n      add\n        /* \"#utility.yul\":2011:2038   */\n      mstore\n        /* \"#utility.yul\":1860:2044   */\n      pop\n        /* \"#utility.yul\":1798:2044   */\n      pop\n      pop\n      pop\n      jump\t// out\n        /* \"#utility.yul\":2050:2152   */\n    tag_329:\n        /* \"#utility.yul\":2091:2097   */\n      0x00\n        /* \"#utility.yul\":2142:2144   */\n      0x1f\n        /* \"#utility.yul\":2138:2145   */\n      not\n        /* \"#utility.yul\":2133:2135   */\n      0x1f\n        /* \"#utility.yul\":2126:2131   */\n      dup4\n        /* \"#utility.yul\":2122:2136   */\n      add\n        /* \"#utility.yul\":2118:2146   */\n      and\n        /* \"#utility.yul\":2108:2146   */\n      swap1\n      pop\n        /* \"#utility.yul\":2050:2152   */\n      swap2\n      swap1\n      pop\n      jump\t// out\n        /* \"#utility.yul\":2158:2535   */\n    tag_330:\n        /* \"#utility.yul\":2246:2249   */\n      0x00\n        /* \"#utility.yul\":2274:2313   */\n      tag_385\n        /* \"#utility.yul\":2307:2312   */\n      dup3\n        /* \"#utility.yul\":2274:2313   */\n      tag_326\n      jump\t// in\n    tag_385:\n        /* \"#utility.yul\":2329:2400   */\n      tag_386\n        /* \"#utility.yul\":2393:2399   */\n      dup2\n        /* \"#utility.yul\":2388:2391   */\n      dup6\n        /* \"#utility.yul\":2329:2400   */\n      tag_327\n      jump\t// in\n    tag_386:\n        /* \"#utility.yul\":2322:2400   */\n      swap4\n      pop\n        /* \"#utility.yul\":2409:2474   */\n      tag_387\n        /* \"#utility.yul\":2467:2473   */\n      dup2\n        /* \"#utility.yul\":2462:2465   */\n      dup6\n        /* \"#utility.yul\":2455:2459   */\n      0x20\n        /* \"#utility.yul\":2448:2453   */\n      dup7\n        /* \"#utility.yul\":2444:2460   */\n      add\n        /* \"#utility.yul\":2409:2474   */\n      tag_328\n      jump\t// in\n    tag_387:\n        /* \"#utility.yul\":2499:2528   */\n      tag_388\n        /* \"#utility.yul\":2521:2527   */\n      dup2\n        /* \"#utility.yul\":2499:2528   */\n      tag_329\n      jump\t// in\n    tag_388:\n        /* \"#utility.yul\":2494:2497   */\n      dup5\n        /* \"#utility.yul\":2490:2529   */\n      add\n        /* \"#utility.yul\":2483:2529   */\n      swap2\n      pop\n        /* \"#utility.yul\":2250:2535   */\n      pop\n        /* \"#utility.yul\":2158:2535   */\n      swap3\n      swap2\n      pop\n      pop\n      jump\t// out\n        /* \"#utility.yul\":2541:2854   */\n    tag_35:\n        /* \"#utility.yul\":2654:2658   */\n      0x00\n        /* \"#utility.yul\":2692:2694   */\n      0x20\n        /* \"#utility.yul\":2681:2690   */\n      dup3\n        /* \"#utility.yul\":2677:2695   */\n      add\n        /* \"#utility.yul\":2669:2695   */\n      swap1\n      pop\n        /* \"#utility.yul\":2741:2750   */\n      dup2\n        /* \"#utility.yul\":2735:2739   */\n      dup2\n        /* \"#utility.yul\":2731:2751   */\n      sub\n        /* \"#utility.yul\":2727:2728   */\n      0x00\n        /* \"#utility.yul\":2716:2725   */\n      dup4\n        /* \"#utility.yul\":2712:2729   */\n      add\n        /* \"#utility.yul\":2705:2752   */\n      mstore\n        /* \"#utility.yul\":2769:2847   */\n      tag_390\n        /* \"#utility.yul\":2842:2846   */\n      dup2\n        /* \"#utility.yul\":2833:2839   */\n      dup5\n        /* \"#utility.yul\":2769:2847   */\n      tag_330\n      jump\t// in\n    tag_390:\n        /* \"#utility.yul\":2761:2847   */\n      swap1\n      pop\n        /* \"#utility.yul\":2541:2854   */\n      swap3\n      swap2\n      pop\n      pop\n      jump\t// out\n        /* \"#utility.yul\":2860:2937   */\n    tag_331:\n        /* \"#utility.yul\":2897:2904   */\n      0x00\n        /* \"#utility.yul\":2926:2931   */\n      dup2\n        /* \"#utility.yul\":2915:2931   */\n      swap1\n      pop\n        /* \"#utility.yul\":2860:2937   */\n      swap2\n      swap1\n      pop\n      jump\t// out\n        /* \"#utility.yul\":2943:3065   */\n    tag_332:\n        /* \"#utility.yul\":3016:3040   */\n      tag_393\n        /* \"#utility.yul\":3034:3039   */\n      dup2\n        /* \"#utility.yul\":3016:3040   */\n      tag_331\n      jump\t// in\n    tag_393:\n        /* \"#utility.yul\":3009:3014   */\n      dup2\n        /* \"#utility.yul\":3006:3041   */\n      eq\n        /* \"#utility.yul\":2996:3059   */\n      tag_394\n      jumpi\n        /* \"#utility.yul\":3055:3056   */\n      0x00\n        /* \"#utility.yul\":3052:3053   */\n      dup1\n        /* \"#utility.yul\":3045:3057   */\n      revert\n        /* \"#utility.yul\":2996:3059   */\n    tag_394:\n        /* \"#utility.yul\":2943:3065   */\n      pop\n      jump\t// out\n        /* \"#utility.yul\":3071:3210   */\n    tag_333:\n        /* \"#utility.yul\":3117:3122   */\n      0x00\n        /* \"#utility.yul\":3155:3161   */\n      dup2\n        /* \"#utility.yul\":3142:3162   */\n      calldataload\n        /* \"#utility.yul\":3133:3162   */\n      swap1\n      pop\n        /* \"#utility.yul\":3171:3204   */\n      tag_396\n        /* \"#utility.yul\":3198:3203   */\n      dup2\n        /* \"#utility.yul\":3171:3204   */\n      tag_332\n      jump\t// in\n    tag_396:\n        /* \"#utility.yul\":3071:3210   */\n      swap3\n      swap2\n      pop\n      pop\n      jump\t// out\n        /* \"#utility.yul\":3216:3545   */\n    tag_38:\n        /* \"#utility.yul\":3275:3281   */\n      0x00\n        /* \"#utility.yul\":3324:3326   */\n      0x20\n        /* \"#utility.yul\":3312:3321   */\n      dup3\n        /* \"#utility.yul\":3303:3310   */\n      dup5\n        /* \"#utility.yul\":3299:3322   */\n      sub\n        /* \"#utility.yul\":3295:3327   */\n      slt\n        /* \"#utility.yul\":3292:3411   */\n      iszero\n      tag_398\n      jumpi\n        /* \"#utility.yul\":3330:3409   */\n      tag_399\n      tag_319\n      jump\t// in\n    tag_399:\n        /* \"#utility.yul\":3292:3411   */\n    tag_398:\n        /* \"#utility.yul\":3450:3451   */\n      0x00\n        /* \"#utility.yul\":3475:3528   */\n      tag_400\n        /* \"#utility.yul\":3520:3527   */\n      dup5\n        /* \"#utility.yul\":3511:3517   */\n      dup3\n        /* \"#utility.yul\":3500:3509   */\n      dup6\n        /* \"#utility.yul\":3496:3518   */\n      add\n        /* \"#utility.yul\":3475:3528   */\n      tag_333\n      jump\t// in\n    tag_400:\n        /* \"#utility.yul\":3465:3528   */\n      swap2\n      pop\n        /* \"#utility.yul\":3421:3538   */\n      pop\n        /* \"#utility.yul\":3216:3545   */\n      swap3\n      swap2\n      pop\n      pop\n      jump\t// out\n        /* \"#utility.yul\":3551:3677   */\n    tag_334:\n        /* \"#utility.yul\":3588:3595   */\n      0x00\n        /* \"#utility.yul\":3628:3670   */\n      0xffffffffffffffffffffffffffffffffffffffff\n        /* \"#utility.yul\":3621:3626   */\n      dup3\n        /* \"#utility.yul\":3617:3671   */\n      and\n        /* \"#utility.yul\":3606:3671   */\n      swap1\n      pop\n        /* \"#utility.yul\":3551:3677   */\n      swap2\n      swap1\n      pop\n      jump\t// out\n        /* \"#utility.yul\":3683:3779   */\n    tag_335:\n        /* \"#utility.yul\":3720:3727   */\n      0x00\n        /* \"#utility.yul\":3749:3773   */\n      tag_403\n        /* \"#utility.yul\":3767:3772   */\n      dup3\n        /* \"#utility.yul\":3749:3773   */\n      tag_334\n      jump\t// in\n    tag_403:\n        /* \"#utility.yul\":3738:3773   */\n      swap1\n      pop\n        /* \"#utility.yul\":3683:3779   */\n      swap2\n      swap1\n      pop\n      jump\t// out\n        /* \"#utility.yul\":3785:3903   */\n    tag_336:\n        /* \"#utility.yul\":3872:3896   */\n      tag_405\n        /* \"#utility.yul\":3890:3895   */\n      dup2\n        /* \"#utility.yul\":3872:3896   */\n      tag_335\n      jump\t// in\n    tag_405:\n        /* \"#utility.yul\":3867:3870   */\n      dup3\n        /* \"#utility.yul\":3860:3897   */\n      mstore\n        /* \"#utility.yul\":3785:3903   */\n      pop\n      pop\n      jump\t// out\n        /* \"#utility.yul\":3909:4131   */\n    tag_41:\n        /* \"#utility.yul\":4002:4006   */\n      0x00\n        /* \"#utility.yul\":4040:4042   */\n      0x20\n        /* \"#utility.yul\":4029:4038   */\n      dup3\n        /* \"#utility.yul\":4025:4043   */\n      add\n        /* \"#utility.yul\":4017:4043   */\n      swap1\n      pop\n        /* \"#utility.yul\":4053:4124   */\n      tag_407\n        /* \"#utility.yul\":4121:4122   */\n      0x00\n        /* \"#utility.yul\":4110:4119   */\n      dup4\n        /* \"#utility.yul\":4106:4123   */\n      add\n        /* \"#utility.yul\":4097:4103   */\n      dup5\n        /* \"#utility.yul\":4053:4124   */\n      tag_336\n      jump\t// in\n    tag_407:\n        /* \"#utility.yul\":3909:4131   */\n      swap3\n      swap2\n      pop\n      pop\n      jump\t// out\n        /* \"#utility.yul\":4137:4259   */\n    tag_337:\n        /* \"#utility.yul\":4210:4234   */\n      tag_409\n        /* \"#utility.yul\":4228:4233   */\n      dup2\n        /* \"#utility.yul\":4210:4234   */\n      tag_335\n      jump\t// in\n    tag_409:\n        /* \"#utility.yul\":4203:4208   */\n      dup2\n        /* \"#utility.yul\":4200:4235   */\n      eq\n        /* \"#utility.yul\":4190:4253   */\n      tag_410\n      jumpi\n        /* \"#utility.yul\":4249:4250   */\n      0x00\n        /* \"#utility.yul\":4246:4247   */\n      dup1\n        /* \"#utility.yul\":4239:4251   */\n      revert\n        /* \"#utility.yul\":4190:4253   */\n    tag_410:\n        /* \"#utility.yul\":4137:4259   */\n      pop\n      jump\t// out\n        /* \"#utility.yul\":4265:4404   */\n    tag_338:\n        /* \"#utility.yul\":4311:4316   */\n      0x00\n        /* \"#utility.yul\":4349:4355   */\n      dup2\n        /* \"#utility.yul\":4336:4356   */\n      calldataload\n        /* \"#utility.yul\":4327:4356   */\n      swap1\n      pop\n        /* \"#utility.yul\":4365:4398   */\n      tag_412\n        /* \"#utility.yul\":4392:4397   */\n      dup2\n        /* \"#utility.yul\":4365:4398   */\n      tag_337\n      jump\t// in\n    tag_412:\n        /* \"#utility.yul\":4265:4404   */\n      swap3\n      swap2\n      pop\n      pop\n      jump\t// out\n        /* \"#utility.yul\":4410:4884   */\n    tag_44:\n        /* \"#utility.yul\":4478:4484   */\n      0x00\n        /* \"#utility.yul\":4486:4492   */\n      dup1\n        /* \"#utility.yul\":4535:4537   */\n      0x40\n        /* \"#utility.yul\":4523:4532   */\n      dup4\n        /* \"#utility.yul\":4514:4521   */\n      dup6\n        /* \"#utility.yul\":4510:4533   */\n      sub\n        /* \"#utility.yul\":4506:4538   */\n      slt\n        /* \"#utility.yul\":4503:4622   */\n      iszero\n      tag_414\n      jumpi\n        /* \"#utility.yul\":4541:4620   */\n      tag_415\n      tag_319\n      jump\t// in\n    tag_415:\n        /* \"#utility.yul\":4503:4622   */\n    tag_414:\n        /* \"#utility.yul\":4661:4662   */\n      0x00\n        /* \"#utility.yul\":4686:4739   */\n      tag_416\n        /* \"#utility.yul\":4731:4738   */\n      dup6\n        /* \"#utility.yul\":4722:4728   */\n      dup3\n        /* \"#utility.yul\":4711:4720   */\n      dup7\n        /* \"#utility.yul\":4707:4729   */\n      add\n        /* \"#utility.yul\":4686:4739   */\n      tag_338\n      jump\t// in\n    tag_416:\n        /* \"#utility.yul\":4676:4739   */\n      swap3\n      pop\n        /* \"#utility.yul\":4632:4749   */\n      pop\n        /* \"#utility.yul\":4788:4790   */\n      0x20\n        /* \"#utility.yul\":4814:4867   */\n      tag_417\n        /* \"#utility.yul\":4859:4866   */\n      dup6\n        /* \"#utility.yul\":4850:4856   */\n      dup3\n        /* \"#utility.yul\":4839:4848   */\n      dup7\n        /* \"#utility.yul\":4835:4857   */\n      add\n        /* \"#utility.yul\":4814:4867   */\n      tag_333\n      jump\t// in\n    tag_417:\n        /* \"#utility.yul\":4804:4867   */\n      swap2\n      pop\n        /* \"#utility.yul\":4759:4877   */\n      pop\n        /* \"#utility.yul\":4410:4884   */\n      swap3\n      pop\n      swap3\n      swap1\n      pop\n      jump\t// out\n        /* \"#utility.yul\":4890:5008   */\n    tag_339:\n        /* \"#utility.yul\":4977:5001   */\n      tag_419\n        /* \"#utility.yul\":4995:5000   */\n      dup2\n        /* \"#utility.yul\":4977:5001   */\n      tag_331\n      jump\t// in\n    tag_419:\n        /* \"#utility.yul\":4972:4975   */\n      dup3\n        /* \"#utility.yul\":4965:5002   */\n      mstore\n        /* \"#utility.yul\":4890:5008   */\n      pop\n      pop\n      jump\t// out\n        /* \"#utility.yul\":5014:5236   */\n    tag_49:\n        /* \"#utility.yul\":5107:5111   */\n      0x00\n        /* \"#utility.yul\":5145:5147   */\n      0x20\n        /* \"#utility.yul\":5134:5143   */\n      dup3\n        /* \"#utility.yul\":5130:5148   */\n      add\n        /* \"#utility.yul\":5122:5148   */\n      swap1\n      pop\n        /* \"#utility.yul\":5158:5229   */\n      tag_421\n        /* \"#utility.yul\":5226:5227   */\n      0x00\n        /* \"#utility.yul\":5215:5224   */\n      dup4\n        /* \"#utility.yul\":5211:5228   */\n      add\n        /* \"#utility.yul\":5202:5208   */\n      dup5\n        /* \"#utility.yul\":5158:5229   */\n      tag_339\n      jump\t// in\n    tag_421:\n        /* \"#utility.yul\":5014:5236   */\n      swap3\n      swap2\n      pop\n      pop\n      jump\t// out\n        /* \"#utility.yul\":5242:5861   */\n    tag_52:\n        /* \"#utility.yul\":5319:5325   */\n      0x00\n        /* \"#utility.yul\":5327:5333   */\n      dup1\n        /* \"#utility.yul\":5335:5341   */\n      0x00\n        /* \"#utility.yul\":5384:5386   */\n      0x60\n        /* \"#utility.yul\":5372:5381   */\n      dup5\n        /* \"#utility.yul\":5363:5370   */\n      dup7\n        /* \"#utility.yul\":5359:5382   */\n      sub\n        /* \"#utility.yul\":5355:5387   */\n      slt\n        /* \"#utility.yul\":5352:5471   */\n      iszero\n      tag_423\n      jumpi\n        /* \"#utility.yul\":5390:5469   */\n      tag_424\n      tag_319\n      jump\t// in\n    tag_424:\n        /* \"#utility.yul\":5352:5471   */\n    tag_423:\n        /* \"#utility.yul\":5510:5511   */\n      0x00\n        /* \"#utility.yul\":5535:5588   */\n      tag_425\n        /* \"#utility.yul\":5580:5587   */\n      dup7\n        /* \"#utility.yul\":5571:5577   */\n      dup3\n        /* \"#utility.yul\":5560:5569   */\n      dup8\n        /* \"#utility.yul\":5556:5578   */\n      add\n        /* \"#utility.yul\":5535:5588   */\n      tag_338\n      jump\t// in\n    tag_425:\n        /* \"#utility.yul\":5525:5588   */\n      swap4\n      pop\n        /* \"#utility.yul\":5481:5598   */\n      pop\n        /* \"#utility.yul\":5637:5639   */\n      0x20\n        /* \"#utility.yul\":5663:5716   */\n      tag_426\n        /* \"#utility.yul\":5708:5715   */\n      dup7\n        /* \"#utility.yul\":5699:5705   */\n      dup3\n        /* \"#utility.yul\":5688:5697   */\n      dup8\n        /* \"#utility.yul\":5684:5706   */\n      add\n        /* \"#utility.yul\":5663:5716   */\n      tag_338\n      jump\t// in\n    tag_426:\n        /* \"#utility.yul\":5653:5716   */\n      swap3\n      pop\n        /* \"#utility.yul\":5608:5726   */\n      pop\n        /* \"#utility.yul\":5765:5767   */\n      0x40\n        /* \"#utility.yul\":5791:5844   */\n      tag_427\n        /* \"#utility.yul\":5836:5843   */\n      dup7\n        /* \"#utility.yul\":5827:5833   */\n      dup3\n        /* \"#utility.yul\":5816:5825   */\n      dup8\n        /* \"#utility.yul\":5812:5834   */\n      add\n        /* \"#utility.yul\":5791:5844   */\n      tag_333\n      jump\t// in\n    tag_427:\n        /* \"#utility.yul\":5781:5844   */\n      swap2\n      pop\n        /* \"#utility.yul\":5736:5854   */\n      pop\n        /* \"#utility.yul\":5242:5861   */\n      swap3\n      pop\n      swap3\n      pop\n      swap3\n      jump\t// out\n        /* \"#utility.yul\":5867:6196   */\n    tag_67:\n        /* \"#utility.yul\":5926:5932   */\n      0x00\n        /* \"#utility.yul\":5975:5977   */\n      0x20\n        /* \"#utility.yul\":5963:5972   */\n      dup3\n        /* \"#utility.yul\":5954:5961   */\n      dup5\n        /* \"#utility.yul\":5950:5973   */\n      sub\n        /* \"#utility.yul\":5946:5978   */\n      slt\n        /* \"#utility.yul\":5943:6062   */\n      iszero\n      tag_429\n      jumpi\n        /* \"#utility.yul\":5981:6060   */\n      tag_430\n      tag_319\n      jump\t// in\n    tag_430:\n        /* \"#utility.yul\":5943:6062   */\n    tag_429:\n        /* \"#utility.yul\":6101:6102   */\n      0x00\n        /* \"#utility.yul\":6126:6179   */\n      tag_431\n        /* \"#utility.yul\":6171:6178   */\n      dup5\n        /* \"#utility.yul\":6162:6168   */\n      dup3\n        /* \"#utility.yul\":6151:6160   */\n      dup6\n        /* \"#utility.yul\":6147:6169   */\n      add\n        /* \"#utility.yul\":6126:6179   */\n      tag_338\n      jump\t// in\n    tag_431:\n        /* \"#utility.yul\":6116:6179   */\n      swap2\n      pop\n        /* \"#utility.yul\":6072:6189   */\n      pop\n        /* \"#utility.yul\":5867:6196   */\n      swap3\n      swap2\n      pop\n      pop\n      jump\t// out\n        /* \"#utility.yul\":6202:6318   */\n    tag_340:\n        /* \"#utility.yul\":6272:6293   */\n      tag_433\n        /* \"#utility.yul\":6287:6292   */\n      dup2\n        /* \"#utility.yul\":6272:6293   */\n      tag_324\n      jump\t// in\n    tag_433:\n        /* \"#utility.yul\":6265:6270   */\n      dup2\n        /* \"#utility.yul\":6262:6294   */\n      eq\n        /* \"#utility.yul\":6252:6312   */\n      tag_434\n      jumpi\n        /* \"#utility.yul\":6308:6309   */\n      0x00\n        /* \"#utility.yul\":6305:6306   */\n      dup1\n        /* \"#utility.yul\":6298:6310   */\n      revert\n        /* \"#utility.yul\":6252:6312   */\n    tag_434:\n        /* \"#utility.yul\":6202:6318   */\n      pop\n      jump\t// out\n        /* \"#utility.yul\":6324:6457   */\n    tag_341:\n        /* \"#utility.yul\":6367:6372   */\n      0x00\n        /* \"#utility.yul\":6405:6411   */\n      dup2\n        /* \"#utility.yul\":6392:6412   */\n      calldataload\n        /* \"#utility.yul\":6383:6412   */\n      swap1\n      pop\n        /* \"#utility.yul\":6421:6451   */\n      tag_436\n        /* \"#utility.yul\":6445:6450   */\n      dup2\n        /* \"#utility.yul\":6421:6451   */\n      tag_340\n      jump\t// in\n    tag_436:\n        /* \"#utility.yul\":6324:6457   */\n      swap3\n      swap2\n      pop\n      pop\n      jump\t// out\n        /* \"#utility.yul\":6463:6931   */\n    tag_75:\n        /* \"#utility.yul\":6528:6534   */\n      0x00\n        /* \"#utility.yul\":6536:6542   */\n      dup1\n        /* \"#utility.yul\":6585:6587   */\n      0x40\n        /* \"#utility.yul\":6573:6582   */\n      dup4\n        /* \"#utility.yul\":6564:6571   */\n      dup6\n        /* \"#utility.yul\":6560:6583   */\n      sub\n        /* \"#utility.yul\":6556:6588   */\n      slt\n        /* \"#utility.yul\":6553:6672   */\n      iszero\n      tag_438\n      jumpi\n        /* \"#utility.yul\":6591:6670   */\n      tag_439\n      tag_319\n      jump\t// in\n    tag_439:\n        /* \"#utility.yul\":6553:6672   */\n    tag_438:\n        /* \"#utility.yul\":6711:6712   */\n      0x00\n        /* \"#utility.yul\":6736:6789   */\n      tag_440\n        /* \"#utility.yul\":6781:6788   */\n      dup6\n        /* \"#utility.yul\":6772:6778   */\n      dup3\n        /* \"#utility.yul\":6761:6770   */\n      dup7\n        /* \"#utility.yul\":6757:6779   */\n      add\n        /* \"#utility.yul\":6736:6789   */\n      tag_338\n      jump\t// in\n    tag_440:\n        /* \"#utility.yul\":6726:6789   */\n      swap3\n      pop\n        /* \"#utility.yul\":6682:6799   */\n      pop\n        /* \"#utility.yul\":6838:6840   */\n      0x20\n        /* \"#utility.yul\":6864:6914   */\n      tag_441\n        /* \"#utility.yul\":6906:6913   */\n      dup6\n        /* \"#utility.yul\":6897:6903   */\n      dup3\n        /* \"#utility.yul\":6886:6895   */\n      dup7\n        /* \"#utility.yul\":6882:6904   */\n      add\n        /* \"#utility.yul\":6864:6914   */\n      tag_341\n      jump\t// in\n    tag_441:\n        /* \"#utility.yul\":6854:6914   */\n      swap2\n      pop\n        /* \"#utility.yul\":6809:6924   */\n      pop\n        /* \"#utility.yul\":6463:6931   */\n      swap3\n      pop\n      swap3\n      swap1\n      pop\n      jump\t// out\n        /* \"#utility.yul\":6937:7054   */\n    tag_342:\n        /* \"#utility.yul\":7046:7047   */\n      0x00\n        /* \"#utility.yul\":7043:7044   */\n      dup1\n        /* \"#utility.yul\":7036:7048   */\n      revert\n        /* \"#utility.yul\":7060:7177   */\n    tag_343:\n        /* \"#utility.yul\":7169:7170   */\n      0x00\n        /* \"#utility.yul\":7166:7167   */\n      dup1\n        /* \"#utility.yul\":7159:7171   */\n      revert\n        /* \"#utility.yul\":7183:7363   */\n    tag_288:\n        /* \"#utility.yul\":7231:7308   */\n      0x4e487b7100000000000000000000000000000000000000000000000000000000\n        /* \"#utility.yul\":7228:7229   */\n      0x00\n        /* \"#utility.yul\":7221:7309   */\n      mstore\n        /* \"#utility.yul\":7328:7332   */\n      0x41\n        /* \"#utility.yul\":7325:7326   */\n      0x04\n        /* \"#utility.yul\":7318:7333   */\n      mstore\n        /* \"#utility.yul\":7352:7356   */\n      0x24\n        /* \"#utility.yul\":7349:7350   */\n      0x00\n        /* \"#utility.yul\":7342:7357   */\n      revert\n        /* \"#utility.yul\":7369:7650   */\n    tag_344:\n        /* \"#utility.yul\":7452:7479   */\n      tag_446\n        /* \"#utility.yul\":7474:7478   */\n      dup3\n        /* \"#utility.yul\":7452:7479   */\n      tag_329\n      jump\t// in\n    tag_446:\n        /* \"#utility.yul\":7444:7450   */\n      dup2\n        /* \"#utility.yul\":7440:7480   */\n      add\n        /* \"#utility.yul\":7582:7588   */\n      dup2\n        /* \"#utility.yul\":7570:7580   */\n      dup2\n        /* \"#utility.yul\":7567:7589   */\n      lt\n        /* \"#utility.yul\":7546:7564   */\n      0xffffffffffffffff\n        /* \"#utility.yul\":7534:7544   */\n      dup3\n        /* \"#utility.yul\":7531:7565   */\n      gt\n        /* \"#utility.yul\":7528:7590   */\n      or\n        /* \"#utility.yul\":7525:7613   */\n      iszero\n      tag_447\n      jumpi\n        /* \"#utility.yul\":7593:7611   */\n      tag_448\n      tag_288\n      jump\t// in\n    tag_448:\n        /* \"#utility.yul\":7525:7613   */\n    tag_447:\n        /* \"#utility.yul\":7633:7643   */\n      dup1\n        /* \"#utility.yul\":7629:7631   */\n      0x40\n        /* \"#utility.yul\":7622:7644   */\n      mstore\n        /* \"#utility.yul\":7412:7650   */\n      pop\n        /* \"#utility.yul\":7369:7650   */\n      pop\n      pop\n      jump\t// out\n        /* \"#utility.yul\":7656:7785   */\n    tag_345:\n        /* \"#utility.yul\":7690:7696   */\n      0x00\n        /* \"#utility.yul\":7717:7737   */\n      tag_450\n      tag_318\n      jump\t// in\n    tag_450:\n        /* \"#utility.yul\":7707:7737   */\n      swap1\n      pop\n        /* \"#utility.yul\":7746:7779   */\n      tag_451\n        /* \"#utility.yul\":7774:7778   */\n      dup3\n        /* \"#utility.yul\":7766:7772   */\n      dup3\n        /* \"#utility.yul\":7746:7779   */\n      tag_344\n      jump\t// in\n    tag_451:\n        /* \"#utility.yul\":7656:7785   */\n      swap2\n      swap1\n      pop\n      jump\t// out\n        /* \"#utility.yul\":7791:8098   */\n    tag_346:\n        /* \"#utility.yul\":7852:7856   */\n      0x00\n        /* \"#utility.yul\":7942:7960   */\n      0xffffffffffffffff\n        /* \"#utility.yul\":7934:7940   */\n      dup3\n        /* \"#utility.yul\":7931:7961   */\n      gt\n        /* \"#utility.yul\":7928:7984   */\n      iszero\n      tag_453\n      jumpi\n        /* \"#utility.yul\":7964:7982   */\n      tag_454\n      tag_288\n      jump\t// in\n    tag_454:\n        /* \"#utility.yul\":7928:7984   */\n    tag_453:\n        /* \"#utility.yul\":8002:8031   */\n      tag_455\n        /* \"#utility.yul\":8024:8030   */\n      dup3\n        /* \"#utility.yul\":8002:8031   */\n      tag_329\n      jump\t// in\n    tag_455:\n        /* \"#utility.yul\":7994:8031   */\n      swap1\n      pop\n        /* \"#utility.yul\":8086:8090   */\n      0x20\n        /* \"#utility.yul\":8080:8084   */\n      dup2\n        /* \"#utility.yul\":8076:8091   */\n      add\n        /* \"#utility.yul\":8068:8091   */\n      swap1\n      pop\n        /* \"#utility.yul\":7791:8098   */\n      swap2\n      swap1\n      pop\n      jump\t// out\n        /* \"#utility.yul\":8104:8250   */\n    tag_347:\n        /* \"#utility.yul\":8201:8207   */\n      dup3\n        /* \"#utility.yul\":8196:8199   */\n      dup2\n        /* \"#utility.yul\":8191:8194   */\n      dup4\n        /* \"#utility.yul\":8178:8208   */\n      calldatacopy\n        /* \"#utility.yul\":8242:8243   */\n      0x00\n        /* \"#utility.yul\":8233:8239   */\n      dup4\n        /* \"#utility.yul\":8228:8231   */\n      dup4\n        /* \"#utility.yul\":8224:8240   */\n      add\n        /* \"#utility.yul\":8217:8244   */\n      mstore\n        /* \"#utility.yul\":8104:8250   */\n      pop\n      pop\n      pop\n      jump\t// out\n        /* \"#utility.yul\":8256:8679   */\n    tag_348:\n        /* \"#utility.yul\":8333:8338   */\n      0x00\n        /* \"#utility.yul\":8358:8423   */\n      tag_458\n        /* \"#utility.yul\":8374:8422   */\n      tag_459\n        /* \"#utility.yul\":8415:8421   */\n      dup5\n        /* \"#utility.yul\":8374:8422   */\n      tag_346\n      jump\t// in\n    tag_459:\n        /* \"#utility.yul\":8358:8423   */\n      tag_345\n      jump\t// in\n    tag_458:\n        /* \"#utility.yul\":8349:8423   */\n      swap1\n      pop\n        /* \"#utility.yul\":8446:8452   */\n      dup3\n        /* \"#utility.yul\":8439:8444   */\n      dup2\n        /* \"#utility.yul\":8432:8453   */\n      mstore\n        /* \"#utility.yul\":8484:8488   */\n      0x20\n        /* \"#utility.yul\":8477:8482   */\n      dup2\n        /* \"#utility.yul\":8473:8489   */\n      add\n        /* \"#utility.yul\":8522:8525   */\n      dup5\n        /* \"#utility.yul\":8513:8519   */\n      dup5\n        /* \"#utility.yul\":8508:8511   */\n      dup5\n        /* \"#utility.yul\":8504:8520   */\n      add\n        /* \"#utility.yul\":8501:8526   */\n      gt\n        /* \"#utility.yul\":8498:8610   */\n      iszero\n      tag_460\n      jumpi\n        /* \"#utility.yul\":8529:8608   */\n      tag_461\n      tag_343\n      jump\t// in\n    tag_461:\n        /* \"#utility.yul\":8498:8610   */\n    tag_460:\n        /* \"#utility.yul\":8619:8673   */\n      tag_462\n        /* \"#utility.yul\":8666:8672   */\n      dup5\n        /* \"#utility.yul\":8661:8664   */\n      dup3\n        /* \"#utility.yul\":8656:8659   */\n      dup6\n        /* \"#utility.yul\":8619:8673   */\n      tag_347\n      jump\t// in\n    tag_462:\n        /* \"#utility.yul\":8339:8679   */\n      pop\n        /* \"#utility.yul\":8256:8679   */\n      swap4\n      swap3\n      pop\n      pop\n      pop\n      jump\t// out\n        /* \"#utility.yul\":8698:9036   */\n    tag_349:\n        /* \"#utility.yul\":8753:8758   */\n      0x00\n        /* \"#utility.yul\":8802:8805   */\n      dup3\n        /* \"#utility.yul\":8795:8799   */\n      0x1f\n        /* \"#utility.yul\":8787:8793   */\n      dup4\n        /* \"#utility.yul\":8783:8800   */\n      add\n        /* \"#utility.yul\":8779:8806   */\n      slt\n        /* \"#utility.yul\":8769:8891   */\n      tag_464\n      jumpi\n        /* \"#utility.yul\":8810:8889   */\n      tag_465\n      tag_342\n      jump\t// in\n    tag_465:\n        /* \"#utility.yul\":8769:8891   */\n    tag_464:\n        /* \"#utility.yul\":8927:8933   */\n      dup2\n        /* \"#utility.yul\":8914:8934   */\n      calldataload\n        /* \"#utility.yul\":8952:9030   */\n      tag_466\n        /* \"#utility.yul\":9026:9029   */\n      dup5\n        /* \"#utility.yul\":9018:9024   */\n      dup3\n        /* \"#utility.yul\":9011:9015   */\n      0x20\n        /* \"#utility.yul\":9003:9009   */\n      dup7\n        /* \"#utility.yul\":8999:9016   */\n      add\n        /* \"#utility.yul\":8952:9030   */\n      tag_348\n      jump\t// in\n    tag_466:\n        /* \"#utility.yul\":8943:9030   */\n      swap2\n      pop\n        /* \"#utility.yul\":8759:9036   */\n      pop\n        /* \"#utility.yul\":8698:9036   */\n      swap3\n      swap2\n      pop\n      pop\n      jump\t// out\n        /* \"#utility.yul\":9042:9985   */\n    tag_79:\n        /* \"#utility.yul\":9137:9143   */\n      0x00\n        /* \"#utility.yul\":9145:9151   */\n      dup1\n        /* \"#utility.yul\":9153:9159   */\n      0x00\n        /* \"#utility.yul\":9161:9167   */\n      dup1\n        /* \"#utility.yul\":9210:9213   */\n      0x80\n        /* \"#utility.yul\":9198:9207   */\n      dup6\n        /* \"#utility.yul\":9189:9196   */\n      dup8\n        /* \"#utility.yul\":9185:9208   */\n      sub\n        /* \"#utility.yul\":9181:9214   */\n      slt\n        /* \"#utility.yul\":9178:9298   */\n      iszero\n      tag_468\n      jumpi\n        /* \"#utility.yul\":9217:9296   */\n      tag_469\n      tag_319\n      jump\t// in\n    tag_469:\n        /* \"#utility.yul\":9178:9298   */\n    tag_468:\n        /* \"#utility.yul\":9337:9338   */\n      0x00\n        /* \"#utility.yul\":9362:9415   */\n      tag_470\n        /* \"#utility.yul\":9407:9414   */\n      dup8\n        /* \"#utility.yul\":9398:9404   */\n      dup3\n        /* \"#utility.yul\":9387:9396   */\n      dup9\n        /* \"#utility.yul\":9383:9405   */\n      add\n        /* \"#utility.yul\":9362:9415   */\n      tag_338\n      jump\t// in\n    tag_470:\n        /* \"#utility.yul\":9352:9415   */\n      swap5\n      pop\n        /* \"#utility.yul\":9308:9425   */\n      pop\n        /* \"#utility.yul\":9464:9466   */\n      0x20\n        /* \"#utility.yul\":9490:9543   */\n      tag_471\n        /* \"#utility.yul\":9535:9542   */\n      dup8\n        /* \"#utility.yul\":9526:9532   */\n      dup3\n        /* \"#utility.yul\":9515:9524   */\n      dup9\n        /* \"#utility.yul\":9511:9533   */\n      add\n        /* \"#utility.yul\":9490:9543   */\n      tag_338\n      jump\t// in\n    tag_471:\n        /* \"#utility.yul\":9480:9543   */\n      swap4\n      pop\n        /* \"#utility.yul\":9435:9553   */\n      pop\n        /* \"#utility.yul\":9592:9594   */\n      0x40\n        /* \"#utility.yul\":9618:9671   */\n      tag_472\n        /* \"#utility.yul\":9663:9670   */\n      dup8\n        /* \"#utility.yul\":9654:9660   */\n      dup3\n        /* \"#utility.yul\":9643:9652   */\n      dup9\n        /* \"#utility.yul\":9639:9661   */\n      add\n        /* \"#utility.yul\":9618:9671   */\n      tag_333\n      jump\t// in\n    tag_472:\n        /* \"#utility.yul\":9608:9671   */\n      swap3\n      pop\n        /* \"#utility.yul\":9563:9681   */\n      pop\n        /* \"#utility.yul\":9748:9750   */\n      0x60\n        /* \"#utility.yul\":9737:9746   */\n      dup6\n        /* \"#utility.yul\":9733:9751   */\n      add\n        /* \"#utility.yul\":9720:9752   */\n      calldataload\n        /* \"#utility.yul\":9779:9797   */\n      0xffffffffffffffff\n        /* \"#utility.yul\":9771:9777   */\n      dup2\n        /* \"#utility.yul\":9768:9798   */\n      gt\n        /* \"#utility.yul\":9765:9882   */\n      iszero\n      tag_473\n      jumpi\n        /* \"#utility.yul\":9801:9880   */\n      tag_474\n      tag_320\n      jump\t// in\n    tag_474:\n        /* \"#utility.yul\":9765:9882   */\n    tag_473:\n        /* \"#utility.yul\":9906:9968   */\n      tag_475\n        /* \"#utility.yul\":9960:9967   */\n      dup8\n        /* \"#utility.yul\":9951:9957   */\n      dup3\n        /* \"#utility.yul\":9940:9949   */\n      dup9\n        /* \"#utility.yul\":9936:9958   */\n      add\n        /* \"#utility.yul\":9906:9968   */\n      tag_349\n      jump\t// in\n    tag_475:\n        /* \"#utility.yul\":9896:9968   */\n      swap2\n      pop\n        /* \"#utility.yul\":9691:9978   */\n      pop\n        /* \"#utility.yul\":9042:9985   */\n      swap3\n      swap6\n      swap2\n      swap5\n      pop\n      swap3\n      pop\n      jump\t// out\n        /* \"#utility.yul\":9991:10465   */\n    tag_101:\n        /* \"#utility.yul\":10059:10065   */\n      0x00\n        /* \"#utility.yul\":10067:10073   */\n      dup1\n        /* \"#utility.yul\":10116:10118   */\n      0x40\n        /* \"#utility.yul\":10104:10113   */\n      dup4\n        /* \"#utility.yul\":10095:10102   */\n      dup6\n        /* \"#utility.yul\":10091:10114   */\n      sub\n        /* \"#utility.yul\":10087:10119   */\n      slt\n        /* \"#utility.yul\":10084:10203   */\n      iszero\n      tag_477\n      jumpi\n        /* \"#utility.yul\":10122:10201   */\n      tag_478\n      tag_319\n      jump\t// in\n    tag_478:\n        /* \"#utility.yul\":10084:10203   */\n    tag_477:\n        /* \"#utility.yul\":10242:10243   */\n      0x00\n        /* \"#utility.yul\":10267:10320   */\n      tag_479\n        /* \"#utility.yul\":10312:10319   */\n      dup6\n        /* \"#utility.yul\":10303:10309   */\n      dup3\n        /* \"#utility.yul\":10292:10301   */\n      dup7\n        /* \"#utility.yul\":10288:10310   */\n      add\n        /* \"#utility.yul\":10267:10320   */\n      tag_338\n      jump\t// in\n    tag_479:\n        /* \"#utility.yul\":10257:10320   */\n      swap3\n      pop\n        /* \"#utility.yul\":10213:10330   */\n      pop\n        /* \"#utility.yul\":10369:10371   */\n      0x20\n        /* \"#utility.yul\":10395:10448   */\n      tag_480\n        /* \"#utility.yul\":10440:10447   */\n      dup6\n        /* \"#utility.yul\":10431:10437   */\n      dup3\n        /* \"#utility.yul\":10420:10429   */\n      dup7\n        /* \"#utility.yul\":10416:10438   */\n      add\n        /* \"#utility.yul\":10395:10448   */\n      tag_338\n      jump\t// in\n    tag_480:\n        /* \"#utility.yul\":10385:10448   */\n      swap2\n      pop\n        /* \"#utility.yul\":10340:10458   */\n      pop\n        /* \"#utility.yul\":9991:10465   */\n      swap3\n      pop\n      swap3\n      swap1\n      pop\n      jump\t// out\n        /* \"#utility.yul\":10471:10651   */\n    tag_350:\n        /* \"#utility.yul\":10519:10596   */\n      0x4e487b7100000000000000000000000000000000000000000000000000000000\n        /* \"#utility.yul\":10516:10517   */\n      0x00\n        /* \"#utility.yul\":10509:10597   */\n      mstore\n        /* \"#utility.yul\":10616:10620   */\n      0x22\n        /* \"#utility.yul\":10613:10614   */\n      0x04\n        /* \"#utility.yul\":10606:10621   */\n      mstore\n        /* \"#utility.yul\":10640:10644   */\n      0x24\n        /* \"#utility.yul\":10637:10638   */\n      0x00\n        /* \"#utility.yul\":10630:10645   */\n      revert\n        /* \"#utility.yul\":10657:10977   */\n    tag_116:\n        /* \"#utility.yul\":10701:10707   */\n      0x00\n        /* \"#utility.yul\":10738:10739   */\n      0x02\n        /* \"#utility.yul\":10732:10736   */\n      dup3\n        /* \"#utility.yul\":10728:10740   */\n      div\n        /* \"#utility.yul\":10718:10740   */\n      swap1\n      pop\n        /* \"#utility.yul\":10785:10786   */\n      0x01\n        /* \"#utility.yul\":10779:10783   */\n      dup3\n        /* \"#utility.yul\":10775:10787   */\n      and\n        /* \"#utility.yul\":10806:10824   */\n      dup1\n        /* \"#utility.yul\":10796:10877   */\n      tag_483\n      jumpi\n        /* \"#utility.yul\":10862:10866   */\n      0x7f\n        /* \"#utility.yul\":10854:10860   */\n      dup3\n        /* \"#utility.yul\":10850:10867   */\n      and\n        /* \"#utility.yul\":10840:10867   */\n      swap2\n      pop\n        /* \"#utility.yul\":10796:10877   */\n    tag_483:\n        /* \"#utility.yul\":10924:10926   */\n      0x20\n        /* \"#utility.yul\":10916:10922   */\n      dup3\n        /* \"#utility.yul\":10913:10927   */\n      lt\n        /* \"#utility.yul\":10893:10911   */\n      dup2\n        /* \"#utility.yul\":10890:10928   */\n      sub\n        /* \"#utility.yul\":10887:10971   */\n      tag_484\n      jumpi\n        /* \"#utility.yul\":10943:10961   */\n      tag_485\n      tag_350\n      jump\t// in\n    tag_485:\n        /* \"#utility.yul\":10887:10971   */\n    tag_484:\n        /* \"#utility.yul\":10708:10977   */\n      pop\n        /* \"#utility.yul\":10657:10977   */\n      swap2\n      swap1\n      pop\n      jump\t// out\n        /* \"#utility.yul\":10983:11131   */\n    tag_351:\n        /* \"#utility.yul\":11085:11096   */\n      0x00\n        /* \"#utility.yul\":11122:11125   */\n      dup2\n        /* \"#utility.yul\":11107:11125   */\n      swap1\n      pop\n        /* \"#utility.yul\":10983:11131   */\n      swap3\n      swap2\n      pop\n      pop\n      jump\t// out\n        /* \"#utility.yul\":11137:11527   */\n    tag_352:\n        /* \"#utility.yul\":11243:11246   */\n      0x00\n        /* \"#utility.yul\":11271:11310   */\n      tag_488\n        /* \"#utility.yul\":11304:11309   */\n      dup3\n        /* \"#utility.yul\":11271:11310   */\n      tag_326\n      jump\t// in\n    tag_488:\n        /* \"#utility.yul\":11326:11415   */\n      tag_489\n        /* \"#utility.yul\":11408:11414   */\n      dup2\n        /* \"#utility.yul\":11403:11406   */\n      dup6\n        /* \"#utility.yul\":11326:11415   */\n      tag_351\n      jump\t// in\n    tag_489:\n        /* \"#utility.yul\":11319:11415   */\n      swap4\n      pop\n        /* \"#utility.yul\":11424:11489   */\n      tag_490\n        /* \"#utility.yul\":11482:11488   */\n      dup2\n        /* \"#utility.yul\":11477:11480   */\n      dup6\n        /* \"#utility.yul\":11470:11474   */\n      0x20\n        /* \"#utility.yul\":11463:11468   */\n      dup7\n        /* \"#utility.yul\":11459:11475   */\n      add\n        /* \"#utility.yul\":11424:11489   */\n      tag_328\n      jump\t// in\n    tag_490:\n        /* \"#utility.yul\":11514:11520   */\n      dup1\n        /* \"#utility.yul\":11509:11512   */\n      dup5\n        /* \"#utility.yul\":11505:11521   */\n      add\n        /* \"#utility.yul\":11498:11521   */\n      swap2\n      pop\n        /* \"#utility.yul\":11247:11527   */\n      pop\n        /* \"#utility.yul\":11137:11527   */\n      swap3\n      swap2\n      pop\n      pop\n      jump\t// out\n        /* \"#utility.yul\":11533:11968   */\n    tag_194:\n        /* \"#utility.yul\":11713:11716   */\n      0x00\n        /* \"#utility.yul\":11735:11830   */\n      tag_492\n        /* \"#utility.yul\":11826:11829   */\n      dup3\n        /* \"#utility.yul\":11817:11823   */\n      dup6\n        /* \"#utility.yul\":11735:11830   */\n      tag_352\n      jump\t// in\n    tag_492:\n        /* \"#utility.yul\":11728:11830   */\n      swap2\n      pop\n        /* \"#utility.yul\":11847:11942   */\n      tag_493\n        /* \"#utility.yul\":11938:11941   */\n      dup3\n        /* \"#utility.yul\":11929:11935   */\n      dup5\n        /* \"#utility.yul\":11847:11942   */\n      tag_352\n      jump\t// in\n    tag_493:\n        /* \"#utility.yul\":11840:11942   */\n      swap2\n      pop\n        /* \"#utility.yul\":11959:11962   */\n      dup2\n        /* \"#utility.yul\":11952:11962   */\n      swap1\n      pop\n        /* \"#utility.yul\":11533:11968   */\n      swap4\n      swap3\n      pop\n      pop\n      pop\n      jump\t// out\n        /* \"#utility.yul\":11974:12154   */\n    tag_294:\n        /* \"#utility.yul\":12022:12099   */\n      0x4e487b7100000000000000000000000000000000000000000000000000000000\n        /* \"#utility.yul\":12019:12020   */\n      0x00\n        /* \"#utility.yul\":12012:12100   */\n      mstore\n        /* \"#utility.yul\":12119:12123   */\n      0x12\n        /* \"#utility.yul\":12116:12117   */\n      0x04\n        /* \"#utility.yul\":12109:12124   */\n      mstore\n        /* \"#utility.yul\":12143:12147   */\n      0x24\n        /* \"#utility.yul\":12140:12141   */\n      0x00\n        /* \"#utility.yul\":12133:12148   */\n      revert\n        /* \"#utility.yul\":12160:12336   */\n    tag_204:\n        /* \"#utility.yul\":12192:12193   */\n      0x00\n        /* \"#utility.yul\":12209:12229   */\n      tag_496\n        /* \"#utility.yul\":12227:12228   */\n      dup3\n        /* \"#utility.yul\":12209:12229   */\n      tag_331\n      jump\t// in\n    tag_496:\n        /* \"#utility.yul\":12204:12229   */\n      swap2\n      pop\n        /* \"#utility.yul\":12243:12263   */\n      tag_497\n        /* \"#utility.yul\":12261:12262   */\n      dup4\n        /* \"#utility.yul\":12243:12263   */\n      tag_331\n      jump\t// in\n    tag_497:\n        /* \"#utility.yul\":12238:12263   */\n      swap3\n      pop\n        /* \"#utility.yul\":12282:12283   */\n      dup3\n        /* \"#utility.yul\":12272:12307   */\n      tag_498\n      jumpi\n        /* \"#utility.yul\":12287:12305   */\n      tag_499\n      tag_294\n      jump\t// in\n    tag_499:\n        /* \"#utility.yul\":12272:12307   */\n    tag_498:\n        /* \"#utility.yul\":12328:12329   */\n      dup3\n        /* \"#utility.yul\":12325:12326   */\n      dup3\n        /* \"#utility.yul\":12321:12330   */\n      mod\n        /* \"#utility.yul\":12316:12330   */\n      swap1\n      pop\n        /* \"#utility.yul\":12160:12336   */\n      swap3\n      swap2\n      pop\n      pop\n      jump\t// out\n        /* \"#utility.yul\":12342:12522   */\n    tag_353:\n        /* \"#utility.yul\":12390:12467   */\n      0x4e487b7100000000000000000000000000000000000000000000000000000000\n        /* \"#utility.yul\":12387:12388   */\n      0x00\n        /* \"#utility.yul\":12380:12468   */\n      mstore\n        /* \"#utility.yul\":12487:12491   */\n      0x11\n        /* \"#utility.yul\":12484:12485   */\n      0x04\n        /* \"#utility.yul\":12477:12492   */\n      mstore\n        /* \"#utility.yul\":12511:12515   */\n      0x24\n        /* \"#utility.yul\":12508:12509   */\n      0x00\n        /* \"#utility.yul\":12501:12516   */\n      revert\n        /* \"#utility.yul\":12528:12938   */\n    tag_212:\n        /* \"#utility.yul\":12568:12575   */\n      0x00\n        /* \"#utility.yul\":12591:12611   */\n      tag_502\n        /* \"#utility.yul\":12609:12610   */\n      dup3\n        /* \"#utility.yul\":12591:12611   */\n      tag_331\n      jump\t// in\n    tag_502:\n        /* \"#utility.yul\":12586:12611   */\n      swap2\n      pop\n        /* \"#utility.yul\":12625:12645   */\n      tag_503\n        /* \"#utility.yul\":12643:12644   */\n      dup4\n        /* \"#utility.yul\":12625:12645   */\n      tag_331\n      jump\t// in\n    tag_503:\n        /* \"#utility.yul\":12620:12645   */\n      swap3\n      pop\n        /* \"#utility.yul\":12680:12681   */\n      dup3\n        /* \"#utility.yul\":12677:12678   */\n      dup3\n        /* \"#utility.yul\":12673:12682   */\n      mul\n        /* \"#utility.yul\":12702:12732   */\n      tag_504\n        /* \"#utility.yul\":12720:12731   */\n      dup2\n        /* \"#utility.yul\":12702:12732   */\n      tag_331\n      jump\t// in\n    tag_504:\n        /* \"#utility.yul\":12691:12732   */\n      swap2\n      pop\n        /* \"#utility.yul\":12881:12882   */\n      dup3\n        /* \"#utility.yul\":12872:12879   */\n      dup3\n        /* \"#utility.yul\":12868:12883   */\n      div\n        /* \"#utility.yul\":12865:12866   */\n      dup5\n        /* \"#utility.yul\":12862:12884   */\n      eq\n        /* \"#utility.yul\":12842:12843   */\n      dup4\n        /* \"#utility.yul\":12835:12844   */\n      iszero\n        /* \"#utility.yul\":12815:12898   */\n      or\n        /* \"#utility.yul\":12792:12931   */\n      tag_505\n      jumpi\n        /* \"#utility.yul\":12911:12929   */\n      tag_506\n      tag_353\n      jump\t// in\n    tag_506:\n        /* \"#utility.yul\":12792:12931   */\n    tag_505:\n        /* \"#utility.yul\":12576:12938   */\n      pop\n        /* \"#utility.yul\":12528:12938   */\n      swap3\n      swap2\n      pop\n      pop\n      jump\t// out\n        /* \"#utility.yul\":12944:13138   */\n    tag_247:\n        /* \"#utility.yul\":12984:12988   */\n      0x00\n        /* \"#utility.yul\":13004:13024   */\n      tag_508\n        /* \"#utility.yul\":13022:13023   */\n      dup3\n        /* \"#utility.yul\":13004:13024   */\n      tag_331\n      jump\t// in\n    tag_508:\n        /* \"#utility.yul\":12999:13024   */\n      swap2\n      pop\n        /* \"#utility.yul\":13038:13058   */\n      tag_509\n        /* \"#utility.yul\":13056:13057   */\n      dup4\n        /* \"#utility.yul\":13038:13058   */\n      tag_331\n      jump\t// in\n    tag_509:\n        /* \"#utility.yul\":13033:13058   */\n      swap3\n      pop\n        /* \"#utility.yul\":13082:13083   */\n      dup3\n        /* \"#utility.yul\":13079:13080   */\n      dup3\n        /* \"#utility.yul\":13075:13084   */\n      sub\n        /* \"#utility.yul\":13067:13084   */\n      swap1\n      pop\n        /* \"#utility.yul\":13106:13107   */\n      dup2\n        /* \"#utility.yul\":13100:13104   */\n      dup2\n        /* \"#utility.yul\":13097:13108   */\n      gt\n        /* \"#utility.yul\":13094:13131   */\n      iszero\n      tag_510\n      jumpi\n        /* \"#utility.yul\":13111:13129   */\n      tag_511\n      tag_353\n      jump\t// in\n    tag_511:\n        /* \"#utility.yul\":13094:13131   */\n    tag_510:\n        /* \"#utility.yul\":12944:13138   */\n      swap3\n      swap2\n      pop\n      pop\n      jump\t// out\n        /* \"#utility.yul\":13144:13335   */\n    tag_250:\n        /* \"#utility.yul\":13184:13187   */\n      0x00\n        /* \"#utility.yul\":13203:13223   */\n      tag_513\n        /* \"#utility.yul\":13221:13222   */\n      dup3\n        /* \"#utility.yul\":13203:13223   */\n      tag_331\n      jump\t// in\n    tag_513:\n        /* \"#utility.yul\":13198:13223   */\n      swap2\n      pop\n        /* \"#utility.yul\":13237:13257   */\n      tag_514\n        /* \"#utility.yul\":13255:13256   */\n      dup4\n        /* \"#utility.yul\":13237:13257   */\n      tag_331\n      jump\t// in\n    tag_514:\n        /* \"#utility.yul\":13232:13257   */\n      swap3\n      pop\n        /* \"#utility.yul\":13280:13281   */\n      dup3\n        /* \"#utility.yul\":13277:13278   */\n      dup3\n        /* \"#utility.yul\":13273:13282   */\n      add\n        /* \"#utility.yul\":13266:13282   */\n      swap1\n      pop\n        /* \"#utility.yul\":13301:13304   */\n      dup1\n        /* \"#utility.yul\":13298:13299   */\n      dup3\n        /* \"#utility.yul\":13295:13305   */\n      gt\n        /* \"#utility.yul\":13292:13328   */\n      iszero\n      tag_515\n      jumpi\n        /* \"#utility.yul\":13308:13326   */\n      tag_516\n      tag_353\n      jump\t// in\n    tag_516:\n        /* \"#utility.yul\":13292:13328   */\n    tag_515:\n        /* \"#utility.yul\":13144:13335   */\n      swap3\n      swap2\n      pop\n      pop\n      jump\t// out\n        /* \"#utility.yul\":13341:13526   */\n    tag_253:\n        /* \"#utility.yul\":13381:13382   */\n      0x00\n        /* \"#utility.yul\":13398:13418   */\n      tag_518\n        /* \"#utility.yul\":13416:13417   */\n      dup3\n        /* \"#utility.yul\":13398:13418   */\n      tag_331\n      jump\t// in\n    tag_518:\n        /* \"#utility.yul\":13393:13418   */\n      swap2\n      pop\n        /* \"#utility.yul\":13432:13452   */\n      tag_519\n        /* \"#utility.yul\":13450:13451   */\n      dup4\n        /* \"#utility.yul\":13432:13452   */\n      tag_331\n      jump\t// in\n    tag_519:\n        /* \"#utility.yul\":13427:13452   */\n      swap3\n      pop\n        /* \"#utility.yul\":13471:13472   */\n      dup3\n        /* \"#utility.yul\":13461:13496   */\n      tag_520\n      jumpi\n        /* \"#utility.yul\":13476:13494   */\n      tag_521\n      tag_294\n      jump\t// in\n    tag_521:\n        /* \"#utility.yul\":13461:13496   */\n    tag_520:\n        /* \"#utility.yul\":13518:13519   */\n      dup3\n        /* \"#utility.yul\":13515:13516   */\n      dup3\n        /* \"#utility.yul\":13511:13520   */\n      div\n        /* \"#utility.yul\":13506:13520   */\n      swap1\n      pop\n        /* \"#utility.yul\":13341:13526   */\n      swap3\n      swap2\n      pop\n      pop\n      jump\t// out\n        /* \"#utility.yul\":13532:13630   */\n    tag_354:\n        /* \"#utility.yul\":13583:13589   */\n      0x00\n        /* \"#utility.yul\":13617:13622   */\n      dup2\n        /* \"#utility.yul\":13611:13623   */\n      mload\n        /* \"#utility.yul\":13601:13623   */\n      swap1\n      pop\n        /* \"#utility.yul\":13532:13630   */\n      swap2\n      swap1\n      pop\n      jump\t// out\n        /* \"#utility.yul\":13636:13804   */\n    tag_355:\n        /* \"#utility.yul\":13719:13730   */\n      0x00\n        /* \"#utility.yul\":13753:13759   */\n      dup3\n        /* \"#utility.yul\":13748:13751   */\n      dup3\n        /* \"#utility.yul\":13741:13760   */\n      mstore\n        /* \"#utility.yul\":13793:13797   */\n      0x20\n        /* \"#utility.yul\":13788:13791   */\n      dup3\n        /* \"#utility.yul\":13784:13798   */\n      add\n        /* \"#utility.yul\":13769:13798   */\n      swap1\n      pop\n        /* \"#utility.yul\":13636:13804   */\n      swap3\n      swap2\n      pop\n      pop\n      jump\t// out\n        /* \"#utility.yul\":13810:14183   */\n    tag_356:\n        /* \"#utility.yul\":13896:13899   */\n      0x00\n        /* \"#utility.yul\":13924:13962   */\n      tag_525\n        /* \"#utility.yul\":13956:13961   */\n      dup3\n        /* \"#utility.yul\":13924:13962   */\n      tag_354\n      jump\t// in\n    tag_525:\n        /* \"#utility.yul\":13978:14048   */\n      tag_526\n        /* \"#utility.yul\":14041:14047   */\n      dup2\n        /* \"#utility.yul\":14036:14039   */\n      dup6\n        /* \"#utility.yul\":13978:14048   */\n      tag_355\n      jump\t// in\n    tag_526:\n        /* \"#utility.yul\":13971:14048   */\n      swap4\n      pop\n        /* \"#utility.yul\":14057:14122   */\n      tag_527\n        /* \"#utility.yul\":14115:14121   */\n      dup2\n        /* \"#utility.yul\":14110:14113   */\n      dup6\n        /* \"#utility.yul\":14103:14107   */\n      0x20\n        /* \"#utility.yul\":14096:14101   */\n      dup7\n        /* \"#utility.yul\":14092:14108   */\n      add\n        /* \"#utility.yul\":14057:14122   */\n      tag_328\n      jump\t// in\n    tag_527:\n        /* \"#utility.yul\":14147:14176   */\n      tag_528\n        /* \"#utility.yul\":14169:14175   */\n      dup2\n        /* \"#utility.yul\":14147:14176   */\n      tag_329\n      jump\t// in\n    tag_528:\n        /* \"#utility.yul\":14142:14145   */\n      dup5\n        /* \"#utility.yul\":14138:14177   */\n      add\n        /* \"#utility.yul\":14131:14177   */\n      swap2\n      pop\n        /* \"#utility.yul\":13900:14183   */\n      pop\n        /* \"#utility.yul\":13810:14183   */\n      swap3\n      swap2\n      pop\n      pop\n      jump\t// out\n        /* \"#utility.yul\":14189:14829   */\n    tag_269:\n        /* \"#utility.yul\":14384:14388   */\n      0x00\n        /* \"#utility.yul\":14422:14425   */\n      0x80\n        /* \"#utility.yul\":14411:14420   */\n      dup3\n        /* \"#utility.yul\":14407:14426   */\n      add\n        /* \"#utility.yul\":14399:14426   */\n      swap1\n      pop\n        /* \"#utility.yul\":14436:14507   */\n      tag_530\n        /* \"#utility.yul\":14504:14505   */\n      0x00\n        /* \"#utility.yul\":14493:14502   */\n      dup4\n        /* \"#utility.yul\":14489:14506   */\n      add\n        /* \"#utility.yul\":14480:14486   */\n      dup8\n        /* \"#utility.yul\":14436:14507   */\n      tag_336\n      jump\t// in\n    tag_530:\n        /* \"#utility.yul\":14517:14589   */\n      tag_531\n        /* \"#utility.yul\":14585:14587   */\n      0x20\n        /* \"#utility.yul\":14574:14583   */\n      dup4\n        /* \"#utility.yul\":14570:14588   */\n      add\n        /* \"#utility.yul\":14561:14567   */\n      dup7\n        /* \"#utility.yul\":14517:14589   */\n      tag_336\n      jump\t// in\n    tag_531:\n        /* \"#utility.yul\":14599:14671   */\n      tag_532\n        /* \"#utility.yul\":14667:14669   */\n      0x40\n        /* \"#utility.yul\":14656:14665   */\n      dup4\n        /* \"#utility.yul\":14652:14670   */\n      add\n        /* \"#utility.yul\":14643:14649   */\n      dup6\n        /* \"#utility.yul\":14599:14671   */\n      tag_339\n      jump\t// in\n    tag_532:\n        /* \"#utility.yul\":14718:14727   */\n      dup2\n        /* \"#utility.yul\":14712:14716   */\n      dup2\n        /* \"#utility.yul\":14708:14728   */\n      sub\n        /* \"#utility.yul\":14703:14705   */\n      0x60\n        /* \"#utility.yul\":14692:14701   */\n      dup4\n        /* \"#utility.yul\":14688:14706   */\n      add\n        /* \"#utility.yul\":14681:14729   */\n      mstore\n        /* \"#utility.yul\":14746:14822   */\n      tag_533\n        /* \"#utility.yul\":14817:14821   */\n      dup2\n        /* \"#utility.yul\":14808:14814   */\n      dup5\n        /* \"#utility.yul\":14746:14822   */\n      tag_356\n      jump\t// in\n    tag_533:\n        /* \"#utility.yul\":14738:14822   */\n      swap1\n      pop\n        /* \"#utility.yul\":14189:14829   */\n      swap6\n      swap5\n      pop\n      pop\n      pop\n      pop\n      pop\n      jump\t// out\n        /* \"#utility.yul\":14835:14976   */\n    tag_357:\n        /* \"#utility.yul\":14891:14896   */\n      0x00\n        /* \"#utility.yul\":14922:14928   */\n      dup2\n        /* \"#utility.yul\":14916:14929   */\n      mload\n        /* \"#utility.yul\":14907:14929   */\n      swap1\n      pop\n        /* \"#utility.yul\":14938:14970   */\n      tag_535\n        /* \"#utility.yul\":14964:14969   */\n      dup2\n        /* \"#utility.yul\":14938:14970   */\n      tag_322\n      jump\t// in\n    tag_535:\n        /* \"#utility.yul\":14835:14976   */\n      swap3\n      swap2\n      pop\n      pop\n      jump\t// out\n        /* \"#utility.yul\":14982:15331   */\n    tag_272:\n        /* \"#utility.yul\":15051:15057   */\n      0x00\n        /* \"#utility.yul\":15100:15102   */\n      0x20\n        /* \"#utility.yul\":15088:15097   */\n      dup3\n        /* \"#utility.yul\":15079:15086   */\n      dup5\n        /* \"#utility.yul\":15075:15098   */\n      sub\n        /* \"#utility.yul\":15071:15103   */\n      slt\n        /* \"#utility.yul\":15068:15187   */\n      iszero\n      tag_537\n      jumpi\n        /* \"#utility.yul\":15106:15185   */\n      tag_538\n      tag_319\n      jump\t// in\n    tag_538:\n        /* \"#utility.yul\":15068:15187   */\n    tag_537:\n        /* \"#utility.yul\":15226:15227   */\n      0x00\n        /* \"#utility.yul\":15251:15314   */\n      tag_539\n        /* \"#utility.yul\":15306:15313   */\n      dup5\n        /* \"#utility.yul\":15297:15303   */\n      dup3\n        /* \"#utility.yul\":15286:15295   */\n      dup6\n        /* \"#utility.yul\":15282:15304   */\n      add\n        /* \"#utility.yul\":15251:15314   */\n      tag_357\n      jump\t// in\n    tag_539:\n        /* \"#utility.yul\":15241:15314   */\n      swap2\n      pop\n        /* \"#utility.yul\":15197:15324   */\n      pop\n        /* \"#utility.yul\":14982:15331   */\n      swap3\n      swap2\n      pop\n      pop\n      jump\t// out\n    stop\n    data_1440d62b74b89b1009069b5db0474895039cd9244a07889f12959de404ca18c4 68747470733a2f2f676174657761792e70696e6174612e636c6f75642f697066732f516d56513653643563566b56447a414c706472484b616e6768426f4a59645755785574336b3748705146525838782f\n\n    auxdata: 0xa2646970667358221220288f9d8cde7d0dfafd6dba36b4d2556c68dab89e701d6e057358bfcffe410dfa64736f6c63430008110033\n}\n",
				"bytecode": {
					"linkReferences": {},
					"object": "60806040523480156200001157600080fd5b5060405162002f0b38038062002f0b8339818101604052810190620000379190620002b3565b82600790816200004891906200058e565b5081600890816200005a91906200058e565b5061271060058190555062000074620000c860201b60201c565b60048190555080600081905550620000a96a422ca8b0a00a42500000006216e360620000cd60201b62000ec51790919060201c565b60018190555061b79860038190555043600281905550505050620006ef565b600090565b60008183620000dd9190620006a4565b905092915050565b6000604051905090565b600080fd5b600080fd5b600080fd5b600080fd5b6000601f19601f8301169050919050565b7f4e487b7100000000000000000000000000000000000000000000000000000000600052604160045260246000fd5b6200014e8262000103565b810181811067ffffffffffffffff8211171562000170576200016f62000114565b5b80604052505050565b600062000185620000e5565b905062000193828262000143565b919050565b600067ffffffffffffffff821115620001b657620001b562000114565b5b620001c18262000103565b9050602081019050919050565b60005b83811015620001ee578082015181840152602081019050620001d1565b60008484015250505050565b6000620002116200020b8462000198565b62000179565b90508281526020810184848401111562000230576200022f620000fe565b5b6200023d848285620001ce565b509392505050565b600082601f8301126200025d576200025c620000f9565b5b81516200026f848260208601620001fa565b91505092915050565b6000819050919050565b6200028d8162000278565b81146200029957600080fd5b50565b600081519050620002ad8162000282565b92915050565b600080600060608486031215620002cf57620002ce620000ef565b5b600084015167ffffffffffffffff811115620002f057620002ef620000f4565b5b620002fe8682870162000245565b935050602084015167ffffffffffffffff811115620003225762000321620000f4565b5b620003308682870162000245565b925050604062000343868287016200029c565b9150509250925092565b600081519050919050565b7f4e487b7100000000000000000000000000000000000000000000000000000000600052602260045260246000fd5b60006002820490506001821680620003a057607f821691505b602082108103620003b657620003b562000358565b5b50919050565b60008190508160005260206000209050919050565b60006020601f8301049050919050565b600082821b905092915050565b600060088302620004207fffffffffffffffffffffffffffffffffffffffffffffffffffffffffffffffff82620003e1565b6200042c8683620003e1565b95508019841693508086168417925050509392505050565b6000819050919050565b60006200046f62000469620004638462000278565b62000444565b62000278565b9050919050565b6000819050919050565b6200048b836200044e565b620004a36200049a8262000476565b848454620003ee565b825550505050565b600090565b620004ba620004ab565b620004c781848462000480565b505050565b5b81811015620004ef57620004e3600082620004b0565b600181019050620004cd565b5050565b601f8211156200053e576200050881620003bc565b6200051384620003d1565b8101602085101562000523578190505b6200053b6200053285620003d1565b830182620004cc565b50505b505050565b600082821c905092915050565b6000620005636000198460080262000543565b1980831691505092915050565b60006200057e838362000550565b9150826002028217905092915050565b62000599826200034d565b67ffffffffffffffff811115620005b557620005b462000114565b5b620005c1825462000387565b620005ce828285620004f3565b600060209050601f831160018114620006065760008415620005f1578287015190505b620005fd858262000570565b8655506200066d565b601f1984166200061686620003bc565b60005b82811015620006405784890151825560018201915060208501945060208101905062000619565b868310156200066057848901516200065c601f89168262000550565b8355505b6001600288020188555050505b505050505050565b7f4e487b7100000000000000000000000000000000000000000000000000000000600052601160045260246000fd5b6000620006b18262000278565b9150620006be8362000278565b9250828202620006ce8162000278565b91508282048414831517620006e857620006e762000675565b5b5092915050565b61280c80620006ff6000396000f3fe608060405234801561001057600080fd5b506004361061012c5760003560e01c806395d89b41116100ad578063d5abeb0111610071578063d5abeb0114610367578063db3ad22c14610385578063e29301f9146103a3578063e985e9c5146103d3578063eff0730d146104035761012c565b806395d89b41146102b1578063a22cb465146102cf578063b88d4fde146102eb578063b8ba600714610307578063c87b56dd146103375761012c565b806323b872dd116100f457806323b872dd146101e957806342842e0e146102055780634be3403c146102215780636352211e1461025157806370a08231146102815761012c565b806301ffc9a71461013157806306fdde0314610161578063081812fc1461017f578063095ea7b3146101af57806318160ddd146101cb575b600080fd5b61014b60048036038101906101469190611f2a565b610433565b6040516101589190611f72565b60405180910390f35b610169610515565b604051610176919061201d565b60405180910390f35b61019960048036038101906101949190612075565b6105a7565b6040516101a691906120e3565b60405180910390f35b6101c960048036038101906101c4919061212a565b610623565b005b6101d3610727565b6040516101e09190612179565b60405180910390f35b61020360048036038101906101fe9190612194565b61073e565b005b61021f600480360381019061021a9190612194565b61074e565b005b61023b60048036038101906102369190612075565b61076e565b6040516102489190612179565b60405180910390f35b61026b60048036038101906102669190612075565b6107d1565b60405161027891906120e3565b60405180910390f35b61029b600480360381019061029691906121e7565b6107e7565b6040516102a89190612179565b60405180910390f35b6102b96108b6565b6040516102c6919061201d565b60405180910390f35b6102e960048036038101906102e49190612240565b610948565b005b610305600480360381019061030091906123b5565b610abf565b005b610321600480360381019061031c91906121e7565b610b37565b60405161032e9190612179565b60405180910390f35b610351600480360381019061034c9190612075565b610ca2565b60405161035e919061201d565b60405180910390f35b61036f610d40565b60405161037c9190612179565b60405180910390f35b61038d610d57565b60405161039a9190612179565b60405180910390f35b6103bd60048036038101906103b89190612075565b610d61565b6040516103ca9190612179565b60405180910390f35b6103ed60048036038101906103e89190612438565b610dd6565b6040516103fa9190611f72565b60405180910390f35b61041d6004803603810190610418919061212a565b610e6a565b60405161042a9190612179565b60405180910390f35b60007f80ac58cd000000000000000000000000000000000000000000000000000000007bffffffffffffffffffffffffffffffffffffffffffffffffffffffff1916827bffffffffffffffffffffffffffffffffffffffffffffffffffffffff191614806104fe57507f5b5e139f000000000000000000000000000000000000000000000000000000007bffffffffffffffffffffffffffffffffffffffffffffffffffffffff1916827bffffffffffffffffffffffffffffffffffffffffffffffffffffffff1916145b8061050e575061050d82610edb565b5b9050919050565b606060078054610524906124a7565b80601f0160208091040260200160405190810160405280929190818152602001828054610550906124a7565b801561059d5780601f106105725761010080835404028352916020019161059d565b820191906000526020600020905b81548152906001019060200180831161058057829003601f168201915b5050505050905090565b60006105b282610f45565b6105e8576040517fcf4700e400000000000000000000000000000000000000000000000000000000815260040160405180910390fd5b600b600083815260200190815260200160002060009054906101000a900473ffffffffffffffffffffffffffffffffffffffff169050919050565b600061062e826107d1565b90508073ffffffffffffffffffffffffffffffffffffffff168373ffffffffffffffffffffffffffffffffffffffff1603610695576040517f943f7b8c00000000000000000000000000000000000000000000000000000000815260040160405180910390fd5b8073ffffffffffffffffffffffffffffffffffffffff166106b4610f93565b73ffffffffffffffffffffffffffffffffffffffff1614610717576106e0816106db610f93565b610dd6565b610716576040517fcfb3b94200000000000000000000000000000000000000000000000000000000815260040160405180910390fd5b5b610722838383610f9b565b505050565b600061073161104d565b6006546004540303905090565b610749838383611052565b505050565b61076983838360405180602001604052806000815250610abf565b505050565b60006002548210156107805760025491505b60006107ac6216e36061079e600254866117ee90919063ffffffff16565b61180490919063ffffffff16565b905060006107c58260015461181a90919063ffffffff16565b90508092505050919050565b60006107dc82611830565b600001519050919050565b60008073ffffffffffffffffffffffffffffffffffffffff168273ffffffffffffffffffffffffffffffffffffffff160361084e576040517f8f4eb60400000000000000000000000000000000000000000000000000000000815260040160405180910390fd5b600a60008373ffffffffffffffffffffffffffffffffffffffff1673ffffffffffffffffffffffffffffffffffffffff16815260200190815260200160002060000160009054906101000a900467ffffffffffffffff1667ffffffffffffffff169050919050565b6060600880546108c5906124a7565b80601f01602080910402602001604051908101604052809291908181526020018280546108f1906124a7565b801561093e5780601f106109135761010080835404028352916020019161093e565b820191906000526020600020905b81548152906001019060200180831161092157829003601f168201915b5050505050905090565b610950610f93565b73ffffffffffffffffffffffffffffffffffffffff168273ffffffffffffffffffffffffffffffffffffffff16036109b4576040517fb06307db00000000000000000000000000000000000000000000000000000000815260040160405180910390fd5b80600c60006109c1610f93565b73ffffffffffffffffffffffffffffffffffffffff1673ffffffffffffffffffffffffffffffffffffffff16815260200190815260200160002060008473ffffffffffffffffffffffffffffffffffffffff1673ffffffffffffffffffffffffffffffffffffffff16815260200190815260200160002060006101000a81548160ff0219169083151502179055508173ffffffffffffffffffffffffffffffffffffffff16610a6e610f93565b73ffffffffffffffffffffffffffffffffffffffff167f17307eab39ab6107e8899845ad3d59bd9653f200f220920489ca2b5937696c3183604051610ab39190611f72565b60405180910390a35050565b610aca848484611052565b610ae98373ffffffffffffffffffffffffffffffffffffffff16611abb565b15610b3157610afa84848484611ade565b610b30576040517fd1a57ed600000000000000000000000000000000000000000000000000000000815260040160405180910390fd5b5b50505050565b600080610b94600d60008573ffffffffffffffffffffffffffffffffffffffff1673ffffffffffffffffffffffffffffffffffffffff1681526020019081526020016000206000600181526020019081526020016000205461076e565b90506000610ba14361076e565b90506000610bb882846117ee90919063ffffffff16565b9050610c32600354610c24600d60008973ffffffffffffffffffffffffffffffffffffffff1673ffffffffffffffffffffffffffffffffffffffff1681526020019081526020016000206000600281526020019081526020016000205484610ec590919063ffffffff16565b61181a90919063ffffffff16565b9050610c9881600d60008873ffffffffffffffffffffffffffffffffffffffff1673ffffffffffffffffffffffffffffffffffffffff1681526020019081526020016000206000600381526020019081526020016000205461180490919063ffffffff16565b9350505050919050565b6060610cad82610f45565b610ce3576040517fa14c4b5000000000000000000000000000000000000000000000000000000000815260040160405180910390fd5b6000610ced611c2e565b90506000815103610d0d5760405180602001604052806000815250610d38565b80610d1784611c4e565b604051602001610d28929190612514565b6040516020818303038152906040525b915050919050565b6000610d4a61104d565b6006546005540303905090565b6000600354905090565b6000806127108310610d765760329050610dcd565b610d9d83610d8f60005486610ec590919063ffffffff16565b61180490919063ffffffff16565b90506000600a82610dae9190612567565b03610dbc5760019050610dcc565b600a81610dc99190612567565b90505b5b80915050919050565b6000600c60008473ffffffffffffffffffffffffffffffffffffffff1673ffffffffffffffffffffffffffffffffffffffff16815260200190815260200160002060008373ffffffffffffffffffffffffffffffffffffffff1673ffffffffffffffffffffffffffffffffffffffff16815260200190815260200160002060009054906101000a900460ff16905092915050565b6000600d60008473ffffffffffffffffffffffffffffffffffffffff1673ffffffffffffffffffffffffffffffffffffffff168152602001908152602001600020600083815260200190815260200160002054905092915050565b60008183610ed391906125c7565b905092915050565b60007f01ffc9a7000000000000000000000000000000000000000000000000000000007bffffffffffffffffffffffffffffffffffffffffffffffffffffffff1916827bffffffffffffffffffffffffffffffffffffffffffffffffffffffff1916149050919050565b600081610f5061104d565b11158015610f5f575060045482105b8015610f8c575060096000838152602001908152602001600020600001601c9054906101000a900460ff16155b9050919050565b600033905090565b82600b600084815260200190815260200160002060006101000a81548173ffffffffffffffffffffffffffffffffffffffff021916908373ffffffffffffffffffffffffffffffffffffffff160217905550818373ffffffffffffffffffffffffffffffffffffffff168273ffffffffffffffffffffffffffffffffffffffff167f8c5be1e5ebec7d5bd14f71427d1e84f3dd0314c0f7b2291e5b200ac8c7c3b92560405160405180910390a4505050565b600090565b600061105d82610d61565b905061106884610b37565b600d60008673ffffffffffffffffffffffffffffffffffffffff1673ffffffffffffffffffffffffffffffffffffffff1681526020019081526020016000206000600381526020019081526020016000208190555061112181600d60008773ffffffffffffffffffffffffffffffffffffffff1673ffffffffffffffffffffffffffffffffffffffff168152602001908152602001600020600060028152602001908152602001600020546117ee90919063ffffffff16565b600d60008673ffffffffffffffffffffffffffffffffffffffff1673ffffffffffffffffffffffffffffffffffffffff1681526020019081526020016000206000600281526020019081526020016000208190555043600d60008673ffffffffffffffffffffffffffffffffffffffff1673ffffffffffffffffffffffffffffffffffffffff168152602001908152602001600020600060018152602001908152602001600020819055506111d583610b37565b600d60008573ffffffffffffffffffffffffffffffffffffffff1673ffffffffffffffffffffffffffffffffffffffff1681526020019081526020016000206000600381526020019081526020016000208190555061128e81600d60008673ffffffffffffffffffffffffffffffffffffffff1673ffffffffffffffffffffffffffffffffffffffff1681526020019081526020016000206000600281526020019081526020016000205461180490919063ffffffff16565b600d60008573ffffffffffffffffffffffffffffffffffffffff1673ffffffffffffffffffffffffffffffffffffffff1681526020019081526020016000206000600281526020019081526020016000208190555043600d60008573ffffffffffffffffffffffffffffffffffffffff1673ffffffffffffffffffffffffffffffffffffffff16815260200190815260200160002060006001815260200190815260200160002081905550600061134483611830565b90508473ffffffffffffffffffffffffffffffffffffffff16816000015173ffffffffffffffffffffffffffffffffffffffff16146113af576040517fa114810000000000000000000000000000000000000000000000000000000000815260040160405180910390fd5b60008573ffffffffffffffffffffffffffffffffffffffff166113d0610f93565b73ffffffffffffffffffffffffffffffffffffffff1614806113ff57506113fe866113f9610f93565b610dd6565b5b80611444575061140d610f93565b73ffffffffffffffffffffffffffffffffffffffff1661142c856105a7565b73ffffffffffffffffffffffffffffffffffffffff16145b90508061147d576040517f59c896be00000000000000000000000000000000000000000000000000000000815260040160405180910390fd5b600073ffffffffffffffffffffffffffffffffffffffff168573ffffffffffffffffffffffffffffffffffffffff16036114e3576040517fea553b3400000000000000000000000000000000000000000000000000000000815260040160405180910390fd5b6114f08686866001611d1c565b6114fc60008588610f9b565b6001600a60008873ffffffffffffffffffffffffffffffffffffffff1673ffffffffffffffffffffffffffffffffffffffff16815260200190815260200160002060000160008282829054906101000a900467ffffffffffffffff160392506101000a81548167ffffffffffffffff021916908367ffffffffffffffff1602179055506001600a60008773ffffffffffffffffffffffffffffffffffffffff1673ffffffffffffffffffffffffffffffffffffffff16815260200190815260200160002060000160008282829054906101000a900467ffffffffffffffff160192506101000a81548167ffffffffffffffff021916908367ffffffffffffffff1602179055506000600960008681526020019081526020016000209050858160000160006101000a81548173ffffffffffffffffffffffffffffffffffffffff021916908373ffffffffffffffffffffffffffffffffffffffff160217905550428160000160146101000a81548167ffffffffffffffff021916908367ffffffffffffffff16021790555060006001860190506000600960008381526020019081526020016000209050600073ffffffffffffffffffffffffffffffffffffffff168160000160009054906101000a900473ffffffffffffffffffffffffffffffffffffffff1673ffffffffffffffffffffffffffffffffffffffff160361177b57600454821461177a57888160000160006101000a81548173ffffffffffffffffffffffffffffffffffffffff021916908373ffffffffffffffffffffffffffffffffffffffff16021790555084602001518160000160146101000a81548167ffffffffffffffff021916908367ffffffffffffffff1602179055505b5b505050838573ffffffffffffffffffffffffffffffffffffffff168773ffffffffffffffffffffffffffffffffffffffff167fddf252ad1be2c89b69c2b068fc378daa952ba7f163c4a11628f55a4df523b3ef60405160405180910390a46117e68686866001611d22565b505050505050565b600081836117fc9190612609565b905092915050565b60008183611812919061263d565b905092915050565b600081836118289190612671565b905092915050565b611838611e7b565b60008290508061184661104d565b11611a8457600454811015611a83576000600960008381526020019081526020016000206040518060600160405290816000820160009054906101000a900473ffffffffffffffffffffffffffffffffffffffff1673ffffffffffffffffffffffffffffffffffffffff1673ffffffffffffffffffffffffffffffffffffffff1681526020016000820160149054906101000a900467ffffffffffffffff1667ffffffffffffffff1667ffffffffffffffff16815260200160008201601c9054906101000a900460ff16151515158152505090508060400151611a8157600073ffffffffffffffffffffffffffffffffffffffff16816000015173ffffffffffffffffffffffffffffffffffffffff1614611965578092505050611ab6565b5b600115611a8057818060019003925050600960008381526020019081526020016000206040518060600160405290816000820160009054906101000a900473ffffffffffffffffffffffffffffffffffffffff1673ffffffffffffffffffffffffffffffffffffffff1673ffffffffffffffffffffffffffffffffffffffff1681526020016000820160149054906101000a900467ffffffffffffffff1667ffffffffffffffff1667ffffffffffffffff16815260200160008201601c9054906101000a900460ff1615151515815250509050600073ffffffffffffffffffffffffffffffffffffffff16816000015173ffffffffffffffffffffffffffffffffffffffff1614611a7b578092505050611ab6565b611966565b5b505b5b6040517fdf2d9b4200000000000000000000000000000000000000000000000000000000815260040160405180910390fd5b919050565b6000808273ffffffffffffffffffffffffffffffffffffffff163b119050919050565b60008373ffffffffffffffffffffffffffffffffffffffff1663150b7a02611b04610f93565b8786866040518563ffffffff1660e01b8152600401611b2694939291906126f7565b6020604051808303816000875af1925050508015611b6257506040513d601f19601f82011682018060405250810190611b5f9190612758565b60015b611bdb573d8060008114611b92576040519150601f19603f3d011682016040523d82523d6000602084013e611b97565b606091505b506000815103611bd3576040517fd1a57ed600000000000000000000000000000000000000000000000000000000815260040160405180910390fd5b805181602001fd5b63150b7a0260e01b7bffffffffffffffffffffffffffffffffffffffffffffffffffffffff1916817bffffffffffffffffffffffffffffffffffffffffffffffffffffffff191614915050949350505050565b606060405180608001604052806051815260200161278660519139905090565b606060006001611c5d84611d28565b01905060008167ffffffffffffffff811115611c7c57611c7b61228a565b5b6040519080825280601f01601f191660200182016040528015611cae5781602001600182028036833780820191505090505b509050600082602001820190505b600115611d11578080600190039150507f3031323334353637383961626364656600000000000000000000000000000000600a86061a8153600a8581611d0557611d04612538565b5b04945060008503611cbc575b819350505050919050565b50505050565b50505050565b600080600090507a184f03e93ff9f4daa797ed6e38ed64bf6a1f0100000000000000008310611d86577a184f03e93ff9f4daa797ed6e38ed64bf6a1f0100000000000000008381611d7c57611d7b612538565b5b0492506040810190505b6d04ee2d6d415b85acef81000000008310611dc3576d04ee2d6d415b85acef81000000008381611db957611db8612538565b5b0492506020810190505b662386f26fc100008310611df257662386f26fc100008381611de857611de7612538565b5b0492506010810190505b6305f5e1008310611e1b576305f5e1008381611e1157611e10612538565b5b0492506008810190505b6127108310611e40576127108381611e3657611e35612538565b5b0492506004810190505b60648310611e635760648381611e5957611e58612538565b5b0492506002810190505b600a8310611e72576001810190505b80915050919050565b6040518060600160405280600073ffffffffffffffffffffffffffffffffffffffff168152602001600067ffffffffffffffff1681526020016000151581525090565b6000604051905090565b600080fd5b600080fd5b60007fffffffff0000000000000000000000000000000000000000000000000000000082169050919050565b611f0781611ed2565b8114611f1257600080fd5b50565b600081359050611f2481611efe565b92915050565b600060208284031215611f4057611f3f611ec8565b5b6000611f4e84828501611f15565b91505092915050565b60008115159050919050565b611f6c81611f57565b82525050565b6000602082019050611f876000830184611f63565b92915050565b600081519050919050565b600082825260208201905092915050565b60005b83811015611fc7578082015181840152602081019050611fac565b60008484015250505050565b6000601f19601f8301169050919050565b6000611fef82611f8d565b611ff98185611f98565b9350612009818560208601611fa9565b61201281611fd3565b840191505092915050565b600060208201905081810360008301526120378184611fe4565b905092915050565b6000819050919050565b6120528161203f565b811461205d57600080fd5b50565b60008135905061206f81612049565b92915050565b60006020828403121561208b5761208a611ec8565b5b600061209984828501612060565b91505092915050565b600073ffffffffffffffffffffffffffffffffffffffff82169050919050565b60006120cd826120a2565b9050919050565b6120dd816120c2565b82525050565b60006020820190506120f860008301846120d4565b92915050565b612107816120c2565b811461211257600080fd5b50565b600081359050612124816120fe565b92915050565b6000806040838503121561214157612140611ec8565b5b600061214f85828601612115565b925050602061216085828601612060565b9150509250929050565b6121738161203f565b82525050565b600060208201905061218e600083018461216a565b92915050565b6000806000606084860312156121ad576121ac611ec8565b5b60006121bb86828701612115565b93505060206121cc86828701612115565b92505060406121dd86828701612060565b9150509250925092565b6000602082840312156121fd576121fc611ec8565b5b600061220b84828501612115565b91505092915050565b61221d81611f57565b811461222857600080fd5b50565b60008135905061223a81612214565b92915050565b6000806040838503121561225757612256611ec8565b5b600061226585828601612115565b92505060206122768582860161222b565b9150509250929050565b600080fd5b600080fd5b7f4e487b7100000000000000000000000000000000000000000000000000000000600052604160045260246000fd5b6122c282611fd3565b810181811067ffffffffffffffff821117156122e1576122e061228a565b5b80604052505050565b60006122f4611ebe565b905061230082826122b9565b919050565b600067ffffffffffffffff8211156123205761231f61228a565b5b61232982611fd3565b9050602081019050919050565b82818337600083830152505050565b600061235861235384612305565b6122ea565b90508281526020810184848401111561237457612373612285565b5b61237f848285612336565b509392505050565b600082601f83011261239c5761239b612280565b5b81356123ac848260208601612345565b91505092915050565b600080600080608085870312156123cf576123ce611ec8565b5b60006123dd87828801612115565b94505060206123ee87828801612115565b93505060406123ff87828801612060565b925050606085013567ffffffffffffffff8111156124205761241f611ecd565b5b61242c87828801612387565b91505092959194509250565b6000806040838503121561244f5761244e611ec8565b5b600061245d85828601612115565b925050602061246e85828601612115565b9150509250929050565b7f4e487b7100000000000000000000000000000000000000000000000000000000600052602260045260246000fd5b600060028204905060018216806124bf57607f821691505b6020821081036124d2576124d1612478565b5b50919050565b600081905092915050565b60006124ee82611f8d565b6124f881856124d8565b9350612508818560208601611fa9565b80840191505092915050565b600061252082856124e3565b915061252c82846124e3565b91508190509392505050565b7f4e487b7100000000000000000000000000000000000000000000000000000000600052601260045260246000fd5b60006125728261203f565b915061257d8361203f565b92508261258d5761258c612538565b5b828206905092915050565b7f4e487b7100000000000000000000000000000000000000000000000000000000600052601160045260246000fd5b60006125d28261203f565b91506125dd8361203f565b92508282026125eb8161203f565b9150828204841483151761260257612601612598565b5b5092915050565b60006126148261203f565b915061261f8361203f565b925082820390508181111561263757612636612598565b5b92915050565b60006126488261203f565b91506126538361203f565b925082820190508082111561266b5761266a612598565b5b92915050565b600061267c8261203f565b91506126878361203f565b92508261269757612696612538565b5b828204905092915050565b600081519050919050565b600082825260208201905092915050565b60006126c9826126a2565b6126d381856126ad565b93506126e3818560208601611fa9565b6126ec81611fd3565b840191505092915050565b600060808201905061270c60008301876120d4565b61271960208301866120d4565b612726604083018561216a565b818103606083015261273881846126be565b905095945050505050565b60008151905061275281611efe565b92915050565b60006020828403121561276e5761276d611ec8565b5b600061277c84828501612743565b9150509291505056fe68747470733a2f2f676174657761792e70696e6174612e636c6f75642f697066732f516d56513653643563566b56447a414c706472484b616e6768426f4a59645755785574336b3748705146525838782fa2646970667358221220288f9d8cde7d0dfafd6dba36b4d2556c68dab89e701d6e057358bfcffe410dfa64736f6c63430008110033",
					"opcodes": "PUSH1 0x80 PUSH1 0x40 MSTORE CALLVALUE DUP1 ISZERO PUSH3 0x11 JUMPI PUSH1 0x0 DUP1 REVERT JUMPDEST POP PUSH1 0x40 MLOAD PUSH3 0x2F0B CODESIZE SUB DUP1 PUSH3 0x2F0B DUP4 CODECOPY DUP2 DUP2 ADD PUSH1 0x40 MSTORE DUP2 ADD SWAP1 PUSH3 0x37 SWAP2 SWAP1 PUSH3 0x2B3 JUMP JUMPDEST DUP3 PUSH1 0x7 SWAP1 DUP2 PUSH3 0x48 SWAP2 SWAP1 PUSH3 0x58E JUMP JUMPDEST POP DUP2 PUSH1 0x8 SWAP1 DUP2 PUSH3 0x5A SWAP2 SWAP1 PUSH3 0x58E JUMP JUMPDEST POP PUSH2 0x2710 PUSH1 0x5 DUP2 SWAP1 SSTORE POP PUSH3 0x74 PUSH3 0xC8 PUSH1 0x20 SHL PUSH1 0x20 SHR JUMP JUMPDEST PUSH1 0x4 DUP2 SWAP1 SSTORE POP DUP1 PUSH1 0x0 DUP2 SWAP1 SSTORE POP PUSH3 0xA9 PUSH11 0x422CA8B0A00A4250000000 PUSH3 0x16E360 PUSH3 0xCD PUSH1 0x20 SHL PUSH3 0xEC5 OR SWAP1 SWAP2 SWAP1 PUSH1 0x20 SHR JUMP JUMPDEST PUSH1 0x1 DUP2 SWAP1 SSTORE POP PUSH2 0xB798 PUSH1 0x3 DUP2 SWAP1 SSTORE POP NUMBER PUSH1 0x2 DUP2 SWAP1 SSTORE POP POP POP POP PUSH3 0x6EF JUMP JUMPDEST PUSH1 0x0 SWAP1 JUMP JUMPDEST PUSH1 0x0 DUP2 DUP4 PUSH3 0xDD SWAP2 SWAP1 PUSH3 0x6A4 JUMP JUMPDEST SWAP1 POP SWAP3 SWAP2 POP POP JUMP JUMPDEST PUSH1 0x0 PUSH1 0x40 MLOAD SWAP1 POP SWAP1 JUMP JUMPDEST PUSH1 0x0 DUP1 REVERT JUMPDEST PUSH1 0x0 DUP1 REVERT JUMPDEST PUSH1 0x0 DUP1 REVERT JUMPDEST PUSH1 0x0 DUP1 REVERT JUMPDEST PUSH1 0x0 PUSH1 0x1F NOT PUSH1 0x1F DUP4 ADD AND SWAP1 POP SWAP2 SWAP1 POP JUMP JUMPDEST PUSH32 0x4E487B7100000000000000000000000000000000000000000000000000000000 PUSH1 0x0 MSTORE PUSH1 0x41 PUSH1 0x4 MSTORE PUSH1 0x24 PUSH1 0x0 REVERT JUMPDEST PUSH3 0x14E DUP3 PUSH3 0x103 JUMP JUMPDEST DUP2 ADD DUP2 DUP2 LT PUSH8 0xFFFFFFFFFFFFFFFF DUP3 GT OR ISZERO PUSH3 0x170 JUMPI PUSH3 0x16F PUSH3 0x114 JUMP JUMPDEST JUMPDEST DUP1 PUSH1 0x40 MSTORE POP POP POP JUMP JUMPDEST PUSH1 0x0 PUSH3 0x185 PUSH3 0xE5 JUMP JUMPDEST SWAP1 POP PUSH3 0x193 DUP3 DUP3 PUSH3 0x143 JUMP JUMPDEST SWAP2 SWAP1 POP JUMP JUMPDEST PUSH1 0x0 PUSH8 0xFFFFFFFFFFFFFFFF DUP3 GT ISZERO PUSH3 0x1B6 JUMPI PUSH3 0x1B5 PUSH3 0x114 JUMP JUMPDEST JUMPDEST PUSH3 0x1C1 DUP3 PUSH3 0x103 JUMP JUMPDEST SWAP1 POP PUSH1 0x20 DUP2 ADD SWAP1 POP SWAP2 SWAP1 POP JUMP JUMPDEST PUSH1 0x0 JUMPDEST DUP4 DUP2 LT ISZERO PUSH3 0x1EE JUMPI DUP1 DUP3 ADD MLOAD DUP2 DUP5 ADD MSTORE PUSH1 0x20 DUP2 ADD SWAP1 POP PUSH3 0x1D1 JUMP JUMPDEST PUSH1 0x0 DUP5 DUP5 ADD MSTORE POP POP POP POP JUMP JUMPDEST PUSH1 0x0 PUSH3 0x211 PUSH3 0x20B DUP5 PUSH3 0x198 JUMP JUMPDEST PUSH3 0x179 JUMP JUMPDEST SWAP1 POP DUP3 DUP2 MSTORE PUSH1 0x20 DUP2 ADD DUP5 DUP5 DUP5 ADD GT ISZERO PUSH3 0x230 JUMPI PUSH3 0x22F PUSH3 0xFE JUMP JUMPDEST JUMPDEST PUSH3 0x23D DUP5 DUP3 DUP6 PUSH3 0x1CE JUMP JUMPDEST POP SWAP4 SWAP3 POP POP POP JUMP JUMPDEST PUSH1 0x0 DUP3 PUSH1 0x1F DUP4 ADD SLT PUSH3 0x25D JUMPI PUSH3 0x25C PUSH3 0xF9 JUMP JUMPDEST JUMPDEST DUP2 MLOAD PUSH3 0x26F DUP5 DUP3 PUSH1 0x20 DUP7 ADD PUSH3 0x1FA JUMP JUMPDEST SWAP2 POP POP SWAP3 SWAP2 POP POP JUMP JUMPDEST PUSH1 0x0 DUP2 SWAP1 POP SWAP2 SWAP1 POP JUMP JUMPDEST PUSH3 0x28D DUP2 PUSH3 0x278 JUMP JUMPDEST DUP2 EQ PUSH3 0x299 JUMPI PUSH1 0x0 DUP1 REVERT JUMPDEST POP JUMP JUMPDEST PUSH1 0x0 DUP2 MLOAD SWAP1 POP PUSH3 0x2AD DUP2 PUSH3 0x282 JUMP JUMPDEST SWAP3 SWAP2 POP POP JUMP JUMPDEST PUSH1 0x0 DUP1 PUSH1 0x0 PUSH1 0x60 DUP5 DUP7 SUB SLT ISZERO PUSH3 0x2CF JUMPI PUSH3 0x2CE PUSH3 0xEF JUMP JUMPDEST JUMPDEST PUSH1 0x0 DUP5 ADD MLOAD PUSH8 0xFFFFFFFFFFFFFFFF DUP2 GT ISZERO PUSH3 0x2F0 JUMPI PUSH3 0x2EF PUSH3 0xF4 JUMP JUMPDEST JUMPDEST PUSH3 0x2FE DUP7 DUP3 DUP8 ADD PUSH3 0x245 JUMP JUMPDEST SWAP4 POP POP PUSH1 0x20 DUP5 ADD MLOAD PUSH8 0xFFFFFFFFFFFFFFFF DUP2 GT ISZERO PUSH3 0x322 JUMPI PUSH3 0x321 PUSH3 0xF4 JUMP JUMPDEST JUMPDEST PUSH3 0x330 DUP7 DUP3 DUP8 ADD PUSH3 0x245 JUMP JUMPDEST SWAP3 POP POP PUSH1 0x40 PUSH3 0x343 DUP7 DUP3 DUP8 ADD PUSH3 0x29C JUMP JUMPDEST SWAP2 POP POP SWAP3 POP SWAP3 POP SWAP3 JUMP JUMPDEST PUSH1 0x0 DUP2 MLOAD SWAP1 POP SWAP2 SWAP1 POP JUMP JUMPDEST PUSH32 0x4E487B7100000000000000000000000000000000000000000000000000000000 PUSH1 0x0 MSTORE PUSH1 0x22 PUSH1 0x4 MSTORE PUSH1 0x24 PUSH1 0x0 REVERT JUMPDEST PUSH1 0x0 PUSH1 0x2 DUP3 DIV SWAP1 POP PUSH1 0x1 DUP3 AND DUP1 PUSH3 0x3A0 JUMPI PUSH1 0x7F DUP3 AND SWAP2 POP JUMPDEST PUSH1 0x20 DUP3 LT DUP2 SUB PUSH3 0x3B6 JUMPI PUSH3 0x3B5 PUSH3 0x358 JUMP JUMPDEST JUMPDEST POP SWAP2 SWAP1 POP JUMP JUMPDEST PUSH1 0x0 DUP2 SWAP1 POP DUP2 PUSH1 0x0 MSTORE PUSH1 0x20 PUSH1 0x0 KECCAK256 SWAP1 POP SWAP2 SWAP1 POP JUMP JUMPDEST PUSH1 0x0 PUSH1 0x20 PUSH1 0x1F DUP4 ADD DIV SWAP1 POP SWAP2 SWAP1 POP JUMP JUMPDEST PUSH1 0x0 DUP3 DUP3 SHL SWAP1 POP SWAP3 SWAP2 POP POP JUMP JUMPDEST PUSH1 0x0 PUSH1 0x8 DUP4 MUL PUSH3 0x420 PUSH32 0xFFFFFFFFFFFFFFFFFFFFFFFFFFFFFFFFFFFFFFFFFFFFFFFFFFFFFFFFFFFFFFFF DUP3 PUSH3 0x3E1 JUMP JUMPDEST PUSH3 0x42C DUP7 DUP4 PUSH3 0x3E1 JUMP JUMPDEST SWAP6 POP DUP1 NOT DUP5 AND SWAP4 POP DUP1 DUP7 AND DUP5 OR SWAP3 POP POP POP SWAP4 SWAP3 POP POP POP JUMP JUMPDEST PUSH1 0x0 DUP2 SWAP1 POP SWAP2 SWAP1 POP JUMP JUMPDEST PUSH1 0x0 PUSH3 0x46F PUSH3 0x469 PUSH3 0x463 DUP5 PUSH3 0x278 JUMP JUMPDEST PUSH3 0x444 JUMP JUMPDEST PUSH3 0x278 JUMP JUMPDEST SWAP1 POP SWAP2 SWAP1 POP JUMP JUMPDEST PUSH1 0x0 DUP2 SWAP1 POP SWAP2 SWAP1 POP JUMP JUMPDEST PUSH3 0x48B DUP4 PUSH3 0x44E JUMP JUMPDEST PUSH3 0x4A3 PUSH3 0x49A DUP3 PUSH3 0x476 JUMP JUMPDEST DUP5 DUP5 SLOAD PUSH3 0x3EE JUMP JUMPDEST DUP3 SSTORE POP POP POP POP JUMP JUMPDEST PUSH1 0x0 SWAP1 JUMP JUMPDEST PUSH3 0x4BA PUSH3 0x4AB JUMP JUMPDEST PUSH3 0x4C7 DUP2 DUP5 DUP5 PUSH3 0x480 JUMP JUMPDEST POP POP POP JUMP JUMPDEST JUMPDEST DUP2 DUP2 LT ISZERO PUSH3 0x4EF JUMPI PUSH3 0x4E3 PUSH1 0x0 DUP3 PUSH3 0x4B0 JUMP JUMPDEST PUSH1 0x1 DUP2 ADD SWAP1 POP PUSH3 0x4CD JUMP JUMPDEST POP POP JUMP JUMPDEST PUSH1 0x1F DUP3 GT ISZERO PUSH3 0x53E JUMPI PUSH3 0x508 DUP2 PUSH3 0x3BC JUMP JUMPDEST PUSH3 0x513 DUP5 PUSH3 0x3D1 JUMP JUMPDEST DUP2 ADD PUSH1 0x20 DUP6 LT ISZERO PUSH3 0x523 JUMPI DUP2 SWAP1 POP JUMPDEST PUSH3 0x53B PUSH3 0x532 DUP6 PUSH3 0x3D1 JUMP JUMPDEST DUP4 ADD DUP3 PUSH3 0x4CC JUMP JUMPDEST POP POP JUMPDEST POP POP POP JUMP JUMPDEST PUSH1 0x0 DUP3 DUP3 SHR SWAP1 POP SWAP3 SWAP2 POP POP JUMP JUMPDEST PUSH1 0x0 PUSH3 0x563 PUSH1 0x0 NOT DUP5 PUSH1 0x8 MUL PUSH3 0x543 JUMP JUMPDEST NOT DUP1 DUP4 AND SWAP2 POP POP SWAP3 SWAP2 POP POP JUMP JUMPDEST PUSH1 0x0 PUSH3 0x57E DUP4 DUP4 PUSH3 0x550 JUMP JUMPDEST SWAP2 POP DUP3 PUSH1 0x2 MUL DUP3 OR SWAP1 POP SWAP3 SWAP2 POP POP JUMP JUMPDEST PUSH3 0x599 DUP3 PUSH3 0x34D JUMP JUMPDEST PUSH8 0xFFFFFFFFFFFFFFFF DUP2 GT ISZERO PUSH3 0x5B5 JUMPI PUSH3 0x5B4 PUSH3 0x114 JUMP JUMPDEST JUMPDEST PUSH3 0x5C1 DUP3 SLOAD PUSH3 0x387 JUMP JUMPDEST PUSH3 0x5CE DUP3 DUP3 DUP6 PUSH3 0x4F3 JUMP JUMPDEST PUSH1 0x0 PUSH1 0x20 SWAP1 POP PUSH1 0x1F DUP4 GT PUSH1 0x1 DUP2 EQ PUSH3 0x606 JUMPI PUSH1 0x0 DUP5 ISZERO PUSH3 0x5F1 JUMPI DUP3 DUP8 ADD MLOAD SWAP1 POP JUMPDEST PUSH3 0x5FD DUP6 DUP3 PUSH3 0x570 JUMP JUMPDEST DUP7 SSTORE POP PUSH3 0x66D JUMP JUMPDEST PUSH1 0x1F NOT DUP5 AND PUSH3 0x616 DUP7 PUSH3 0x3BC JUMP JUMPDEST PUSH1 0x0 JUMPDEST DUP3 DUP2 LT ISZERO PUSH3 0x640 JUMPI DUP5 DUP10 ADD MLOAD DUP3 SSTORE PUSH1 0x1 DUP3 ADD SWAP2 POP PUSH1 0x20 DUP6 ADD SWAP5 POP PUSH1 0x20 DUP2 ADD SWAP1 POP PUSH3 0x619 JUMP JUMPDEST DUP7 DUP4 LT ISZERO PUSH3 0x660 JUMPI DUP5 DUP10 ADD MLOAD PUSH3 0x65C PUSH1 0x1F DUP10 AND DUP3 PUSH3 0x550 JUMP JUMPDEST DUP4 SSTORE POP JUMPDEST PUSH1 0x1 PUSH1 0x2 DUP9 MUL ADD DUP9 SSTORE POP POP POP JUMPDEST POP POP POP POP POP POP JUMP JUMPDEST PUSH32 0x4E487B7100000000000000000000000000000000000000000000000000000000 PUSH1 0x0 MSTORE PUSH1 0x11 PUSH1 0x4 MSTORE PUSH1 0x24 PUSH1 0x0 REVERT JUMPDEST PUSH1 0x0 PUSH3 0x6B1 DUP3 PUSH3 0x278 JUMP JUMPDEST SWAP2 POP PUSH3 0x6BE DUP4 PUSH3 0x278 JUMP JUMPDEST SWAP3 POP DUP3 DUP3 MUL PUSH3 0x6CE DUP2 PUSH3 0x278 JUMP JUMPDEST SWAP2 POP DUP3 DUP3 DIV DUP5 EQ DUP4 ISZERO OR PUSH3 0x6E8 JUMPI PUSH3 0x6E7 PUSH3 0x675 JUMP JUMPDEST JUMPDEST POP SWAP3 SWAP2 POP POP JUMP JUMPDEST PUSH2 0x280C DUP1 PUSH3 0x6FF PUSH1 0x0 CODECOPY PUSH1 0x0 RETURN INVALID PUSH1 0x80 PUSH1 0x40 MSTORE CALLVALUE DUP1 ISZERO PUSH2 0x10 JUMPI PUSH1 0x0 DUP1 REVERT JUMPDEST POP PUSH1 0x4 CALLDATASIZE LT PUSH2 0x12C JUMPI PUSH1 0x0 CALLDATALOAD PUSH1 0xE0 SHR DUP1 PUSH4 0x95D89B41 GT PUSH2 0xAD JUMPI DUP1 PUSH4 0xD5ABEB01 GT PUSH2 0x71 JUMPI DUP1 PUSH4 0xD5ABEB01 EQ PUSH2 0x367 JUMPI DUP1 PUSH4 0xDB3AD22C EQ PUSH2 0x385 JUMPI DUP1 PUSH4 0xE29301F9 EQ PUSH2 0x3A3 JUMPI DUP1 PUSH4 0xE985E9C5 EQ PUSH2 0x3D3 JUMPI DUP1 PUSH4 0xEFF0730D EQ PUSH2 0x403 JUMPI PUSH2 0x12C JUMP JUMPDEST DUP1 PUSH4 0x95D89B41 EQ PUSH2 0x2B1 JUMPI DUP1 PUSH4 0xA22CB465 EQ PUSH2 0x2CF JUMPI DUP1 PUSH4 0xB88D4FDE EQ PUSH2 0x2EB JUMPI DUP1 PUSH4 0xB8BA6007 EQ PUSH2 0x307 JUMPI DUP1 PUSH4 0xC87B56DD EQ PUSH2 0x337 JUMPI PUSH2 0x12C JUMP JUMPDEST DUP1 PUSH4 0x23B872DD GT PUSH2 0xF4 JUMPI DUP1 PUSH4 0x23B872DD EQ PUSH2 0x1E9 JUMPI DUP1 PUSH4 0x42842E0E EQ PUSH2 0x205 JUMPI DUP1 PUSH4 0x4BE3403C EQ PUSH2 0x221 JUMPI DUP1 PUSH4 0x6352211E EQ PUSH2 0x251 JUMPI DUP1 PUSH4 0x70A08231 EQ PUSH2 0x281 JUMPI PUSH2 0x12C JUMP JUMPDEST DUP1 PUSH4 0x1FFC9A7 EQ PUSH2 0x131 JUMPI DUP1 PUSH4 0x6FDDE03 EQ PUSH2 0x161 JUMPI DUP1 PUSH4 0x81812FC EQ PUSH2 0x17F JUMPI DUP1 PUSH4 0x95EA7B3 EQ PUSH2 0x1AF JUMPI DUP1 PUSH4 0x18160DDD EQ PUSH2 0x1CB JUMPI JUMPDEST PUSH1 0x0 DUP1 REVERT JUMPDEST PUSH2 0x14B PUSH1 0x4 DUP1 CALLDATASIZE SUB DUP2 ADD SWAP1 PUSH2 0x146 SWAP2 SWAP1 PUSH2 0x1F2A JUMP JUMPDEST PUSH2 0x433 JUMP JUMPDEST PUSH1 0x40 MLOAD PUSH2 0x158 SWAP2 SWAP1 PUSH2 0x1F72 JUMP JUMPDEST PUSH1 0x40 MLOAD DUP1 SWAP2 SUB SWAP1 RETURN JUMPDEST PUSH2 0x169 PUSH2 0x515 JUMP JUMPDEST PUSH1 0x40 MLOAD PUSH2 0x176 SWAP2 SWAP1 PUSH2 0x201D JUMP JUMPDEST PUSH1 0x40 MLOAD DUP1 SWAP2 SUB SWAP1 RETURN JUMPDEST PUSH2 0x199 PUSH1 0x4 DUP1 CALLDATASIZE SUB DUP2 ADD SWAP1 PUSH2 0x194 SWAP2 SWAP1 PUSH2 0x2075 JUMP JUMPDEST PUSH2 0x5A7 JUMP JUMPDEST PUSH1 0x40 MLOAD PUSH2 0x1A6 SWAP2 SWAP1 PUSH2 0x20E3 JUMP JUMPDEST PUSH1 0x40 MLOAD DUP1 SWAP2 SUB SWAP1 RETURN JUMPDEST PUSH2 0x1C9 PUSH1 0x4 DUP1 CALLDATASIZE SUB DUP2 ADD SWAP1 PUSH2 0x1C4 SWAP2 SWAP1 PUSH2 0x212A JUMP JUMPDEST PUSH2 0x623 JUMP JUMPDEST STOP JUMPDEST PUSH2 0x1D3 PUSH2 0x727 JUMP JUMPDEST PUSH1 0x40 MLOAD PUSH2 0x1E0 SWAP2 SWAP1 PUSH2 0x2179 JUMP JUMPDEST PUSH1 0x40 MLOAD DUP1 SWAP2 SUB SWAP1 RETURN JUMPDEST PUSH2 0x203 PUSH1 0x4 DUP1 CALLDATASIZE SUB DUP2 ADD SWAP1 PUSH2 0x1FE SWAP2 SWAP1 PUSH2 0x2194 JUMP JUMPDEST PUSH2 0x73E JUMP JUMPDEST STOP JUMPDEST PUSH2 0x21F PUSH1 0x4 DUP1 CALLDATASIZE SUB DUP2 ADD SWAP1 PUSH2 0x21A SWAP2 SWAP1 PUSH2 0x2194 JUMP JUMPDEST PUSH2 0x74E JUMP JUMPDEST STOP JUMPDEST PUSH2 0x23B PUSH1 0x4 DUP1 CALLDATASIZE SUB DUP2 ADD SWAP1 PUSH2 0x236 SWAP2 SWAP1 PUSH2 0x2075 JUMP JUMPDEST PUSH2 0x76E JUMP JUMPDEST PUSH1 0x40 MLOAD PUSH2 0x248 SWAP2 SWAP1 PUSH2 0x2179 JUMP JUMPDEST PUSH1 0x40 MLOAD DUP1 SWAP2 SUB SWAP1 RETURN JUMPDEST PUSH2 0x26B PUSH1 0x4 DUP1 CALLDATASIZE SUB DUP2 ADD SWAP1 PUSH2 0x266 SWAP2 SWAP1 PUSH2 0x2075 JUMP JUMPDEST PUSH2 0x7D1 JUMP JUMPDEST PUSH1 0x40 MLOAD PUSH2 0x278 SWAP2 SWAP1 PUSH2 0x20E3 JUMP JUMPDEST PUSH1 0x40 MLOAD DUP1 SWAP2 SUB SWAP1 RETURN JUMPDEST PUSH2 0x29B PUSH1 0x4 DUP1 CALLDATASIZE SUB DUP2 ADD SWAP1 PUSH2 0x296 SWAP2 SWAP1 PUSH2 0x21E7 JUMP JUMPDEST PUSH2 0x7E7 JUMP JUMPDEST PUSH1 0x40 MLOAD PUSH2 0x2A8 SWAP2 SWAP1 PUSH2 0x2179 JUMP JUMPDEST PUSH1 0x40 MLOAD DUP1 SWAP2 SUB SWAP1 RETURN JUMPDEST PUSH2 0x2B9 PUSH2 0x8B6 JUMP JUMPDEST PUSH1 0x40 MLOAD PUSH2 0x2C6 SWAP2 SWAP1 PUSH2 0x201D JUMP JUMPDEST PUSH1 0x40 MLOAD DUP1 SWAP2 SUB SWAP1 RETURN JUMPDEST PUSH2 0x2E9 PUSH1 0x4 DUP1 CALLDATASIZE SUB DUP2 ADD SWAP1 PUSH2 0x2E4 SWAP2 SWAP1 PUSH2 0x2240 JUMP JUMPDEST PUSH2 0x948 JUMP JUMPDEST STOP JUMPDEST PUSH2 0x305 PUSH1 0x4 DUP1 CALLDATASIZE SUB DUP2 ADD SWAP1 PUSH2 0x300 SWAP2 SWAP1 PUSH2 0x23B5 JUMP JUMPDEST PUSH2 0xABF JUMP JUMPDEST STOP JUMPDEST PUSH2 0x321 PUSH1 0x4 DUP1 CALLDATASIZE SUB DUP2 ADD SWAP1 PUSH2 0x31C SWAP2 SWAP1 PUSH2 0x21E7 JUMP JUMPDEST PUSH2 0xB37 JUMP JUMPDEST PUSH1 0x40 MLOAD PUSH2 0x32E SWAP2 SWAP1 PUSH2 0x2179 JUMP JUMPDEST PUSH1 0x40 MLOAD DUP1 SWAP2 SUB SWAP1 RETURN JUMPDEST PUSH2 0x351 PUSH1 0x4 DUP1 CALLDATASIZE SUB DUP2 ADD SWAP1 PUSH2 0x34C SWAP2 SWAP1 PUSH2 0x2075 JUMP JUMPDEST PUSH2 0xCA2 JUMP JUMPDEST PUSH1 0x40 MLOAD PUSH2 0x35E SWAP2 SWAP1 PUSH2 0x201D JUMP JUMPDEST PUSH1 0x40 MLOAD DUP1 SWAP2 SUB SWAP1 RETURN JUMPDEST PUSH2 0x36F PUSH2 0xD40 JUMP JUMPDEST PUSH1 0x40 MLOAD PUSH2 0x37C SWAP2 SWAP1 PUSH2 0x2179 JUMP JUMPDEST PUSH1 0x40 MLOAD DUP1 SWAP2 SUB SWAP1 RETURN JUMPDEST PUSH2 0x38D PUSH2 0xD57 JUMP JUMPDEST PUSH1 0x40 MLOAD PUSH2 0x39A SWAP2 SWAP1 PUSH2 0x2179 JUMP JUMPDEST PUSH1 0x40 MLOAD DUP1 SWAP2 SUB SWAP1 RETURN JUMPDEST PUSH2 0x3BD PUSH1 0x4 DUP1 CALLDATASIZE SUB DUP2 ADD SWAP1 PUSH2 0x3B8 SWAP2 SWAP1 PUSH2 0x2075 JUMP JUMPDEST PUSH2 0xD61 JUMP JUMPDEST PUSH1 0x40 MLOAD PUSH2 0x3CA SWAP2 SWAP1 PUSH2 0x2179 JUMP JUMPDEST PUSH1 0x40 MLOAD DUP1 SWAP2 SUB SWAP1 RETURN JUMPDEST PUSH2 0x3ED PUSH1 0x4 DUP1 CALLDATASIZE SUB DUP2 ADD SWAP1 PUSH2 0x3E8 SWAP2 SWAP1 PUSH2 0x2438 JUMP JUMPDEST PUSH2 0xDD6 JUMP JUMPDEST PUSH1 0x40 MLOAD PUSH2 0x3FA SWAP2 SWAP1 PUSH2 0x1F72 JUMP JUMPDEST PUSH1 0x40 MLOAD DUP1 SWAP2 SUB SWAP1 RETURN JUMPDEST PUSH2 0x41D PUSH1 0x4 DUP1 CALLDATASIZE SUB DUP2 ADD SWAP1 PUSH2 0x418 SWAP2 SWAP1 PUSH2 0x212A JUMP JUMPDEST PUSH2 0xE6A JUMP JUMPDEST PUSH1 0x40 MLOAD PUSH2 0x42A SWAP2 SWAP1 PUSH2 0x2179 JUMP JUMPDEST PUSH1 0x40 MLOAD DUP1 SWAP2 SUB SWAP1 RETURN JUMPDEST PUSH1 0x0 PUSH32 0x80AC58CD00000000000000000000000000000000000000000000000000000000 PUSH28 0xFFFFFFFFFFFFFFFFFFFFFFFFFFFFFFFFFFFFFFFFFFFFFFFFFFFFFFFF NOT AND DUP3 PUSH28 0xFFFFFFFFFFFFFFFFFFFFFFFFFFFFFFFFFFFFFFFFFFFFFFFFFFFFFFFF NOT AND EQ DUP1 PUSH2 0x4FE JUMPI POP PUSH32 0x5B5E139F00000000000000000000000000000000000000000000000000000000 PUSH28 0xFFFFFFFFFFFFFFFFFFFFFFFFFFFFFFFFFFFFFFFFFFFFFFFFFFFFFFFF NOT AND DUP3 PUSH28 0xFFFFFFFFFFFFFFFFFFFFFFFFFFFFFFFFFFFFFFFFFFFFFFFFFFFFFFFF NOT AND EQ JUMPDEST DUP1 PUSH2 0x50E JUMPI POP PUSH2 0x50D DUP3 PUSH2 0xEDB JUMP JUMPDEST JUMPDEST SWAP1 POP SWAP2 SWAP1 POP JUMP JUMPDEST PUSH1 0x60 PUSH1 0x7 DUP1 SLOAD PUSH2 0x524 SWAP1 PUSH2 0x24A7 JUMP JUMPDEST DUP1 PUSH1 0x1F ADD PUSH1 0x20 DUP1 SWAP2 DIV MUL PUSH1 0x20 ADD PUSH1 0x40 MLOAD SWAP1 DUP2 ADD PUSH1 0x40 MSTORE DUP1 SWAP3 SWAP2 SWAP1 DUP2 DUP2 MSTORE PUSH1 0x20 ADD DUP3 DUP1 SLOAD PUSH2 0x550 SWAP1 PUSH2 0x24A7 JUMP JUMPDEST DUP1 ISZERO PUSH2 0x59D JUMPI DUP1 PUSH1 0x1F LT PUSH2 0x572 JUMPI PUSH2 0x100 DUP1 DUP4 SLOAD DIV MUL DUP4 MSTORE SWAP2 PUSH1 0x20 ADD SWAP2 PUSH2 0x59D JUMP JUMPDEST DUP3 ADD SWAP2 SWAP1 PUSH1 0x0 MSTORE PUSH1 0x20 PUSH1 0x0 KECCAK256 SWAP1 JUMPDEST DUP2 SLOAD DUP2 MSTORE SWAP1 PUSH1 0x1 ADD SWAP1 PUSH1 0x20 ADD DUP1 DUP4 GT PUSH2 0x580 JUMPI DUP3 SWAP1 SUB PUSH1 0x1F AND DUP3 ADD SWAP2 JUMPDEST POP POP POP POP POP SWAP1 POP SWAP1 JUMP JUMPDEST PUSH1 0x0 PUSH2 0x5B2 DUP3 PUSH2 0xF45 JUMP JUMPDEST PUSH2 0x5E8 JUMPI PUSH1 0x40 MLOAD PUSH32 0xCF4700E400000000000000000000000000000000000000000000000000000000 DUP2 MSTORE PUSH1 0x4 ADD PUSH1 0x40 MLOAD DUP1 SWAP2 SUB SWAP1 REVERT JUMPDEST PUSH1 0xB PUSH1 0x0 DUP4 DUP2 MSTORE PUSH1 0x20 ADD SWAP1 DUP2 MSTORE PUSH1 0x20 ADD PUSH1 0x0 KECCAK256 PUSH1 0x0 SWAP1 SLOAD SWAP1 PUSH2 0x100 EXP SWAP1 DIV PUSH20 0xFFFFFFFFFFFFFFFFFFFFFFFFFFFFFFFFFFFFFFFF AND SWAP1 POP SWAP2 SWAP1 POP JUMP JUMPDEST PUSH1 0x0 PUSH2 0x62E DUP3 PUSH2 0x7D1 JUMP JUMPDEST SWAP1 POP DUP1 PUSH20 0xFFFFFFFFFFFFFFFFFFFFFFFFFFFFFFFFFFFFFFFF AND DUP4 PUSH20 0xFFFFFFFFFFFFFFFFFFFFFFFFFFFFFFFFFFFFFFFF AND SUB PUSH2 0x695 JUMPI PUSH1 0x40 MLOAD PUSH32 0x943F7B8C00000000000000000000000000000000000000000000000000000000 DUP2 MSTORE PUSH1 0x4 ADD PUSH1 0x40 MLOAD DUP1 SWAP2 SUB SWAP1 REVERT JUMPDEST DUP1 PUSH20 0xFFFFFFFFFFFFFFFFFFFFFFFFFFFFFFFFFFFFFFFF AND PUSH2 0x6B4 PUSH2 0xF93 JUMP JUMPDEST PUSH20 0xFFFFFFFFFFFFFFFFFFFFFFFFFFFFFFFFFFFFFFFF AND EQ PUSH2 0x717 JUMPI PUSH2 0x6E0 DUP2 PUSH2 0x6DB PUSH2 0xF93 JUMP JUMPDEST PUSH2 0xDD6 JUMP JUMPDEST PUSH2 0x716 JUMPI PUSH1 0x40 MLOAD PUSH32 0xCFB3B94200000000000000000000000000000000000000000000000000000000 DUP2 MSTORE PUSH1 0x4 ADD PUSH1 0x40 MLOAD DUP1 SWAP2 SUB SWAP1 REVERT JUMPDEST JUMPDEST PUSH2 0x722 DUP4 DUP4 DUP4 PUSH2 0xF9B JUMP JUMPDEST POP POP POP JUMP JUMPDEST PUSH1 0x0 PUSH2 0x731 PUSH2 0x104D JUMP JUMPDEST PUSH1 0x6 SLOAD PUSH1 0x4 SLOAD SUB SUB SWAP1 POP SWAP1 JUMP JUMPDEST PUSH2 0x749 DUP4 DUP4 DUP4 PUSH2 0x1052 JUMP JUMPDEST POP POP POP JUMP JUMPDEST PUSH2 0x769 DUP4 DUP4 DUP4 PUSH1 0x40 MLOAD DUP1 PUSH1 0x20 ADD PUSH1 0x40 MSTORE DUP1 PUSH1 0x0 DUP2 MSTORE POP PUSH2 0xABF JUMP JUMPDEST POP POP POP JUMP JUMPDEST PUSH1 0x0 PUSH1 0x2 SLOAD DUP3 LT ISZERO PUSH2 0x780 JUMPI PUSH1 0x2 SLOAD SWAP2 POP JUMPDEST PUSH1 0x0 PUSH2 0x7AC PUSH3 0x16E360 PUSH2 0x79E PUSH1 0x2 SLOAD DUP7 PUSH2 0x17EE SWAP1 SWAP2 SWAP1 PUSH4 0xFFFFFFFF AND JUMP JUMPDEST PUSH2 0x1804 SWAP1 SWAP2 SWAP1 PUSH4 0xFFFFFFFF AND JUMP JUMPDEST SWAP1 POP PUSH1 0x0 PUSH2 0x7C5 DUP3 PUSH1 0x1 SLOAD PUSH2 0x181A SWAP1 SWAP2 SWAP1 PUSH4 0xFFFFFFFF AND JUMP JUMPDEST SWAP1 POP DUP1 SWAP3 POP POP POP SWAP2 SWAP1 POP JUMP JUMPDEST PUSH1 0x0 PUSH2 0x7DC DUP3 PUSH2 0x1830 JUMP JUMPDEST PUSH1 0x0 ADD MLOAD SWAP1 POP SWAP2 SWAP1 POP JUMP JUMPDEST PUSH1 0x0 DUP1 PUSH20 0xFFFFFFFFFFFFFFFFFFFFFFFFFFFFFFFFFFFFFFFF AND DUP3 PUSH20 0xFFFFFFFFFFFFFFFFFFFFFFFFFFFFFFFFFFFFFFFF AND SUB PUSH2 0x84E JUMPI PUSH1 0x40 MLOAD PUSH32 0x8F4EB60400000000000000000000000000000000000000000000000000000000 DUP2 MSTORE PUSH1 0x4 ADD PUSH1 0x40 MLOAD DUP1 SWAP2 SUB SWAP1 REVERT JUMPDEST PUSH1 0xA PUSH1 0x0 DUP4 PUSH20 0xFFFFFFFFFFFFFFFFFFFFFFFFFFFFFFFFFFFFFFFF AND PUSH20 0xFFFFFFFFFFFFFFFFFFFFFFFFFFFFFFFFFFFFFFFF AND DUP2 MSTORE PUSH1 0x20 ADD SWAP1 DUP2 MSTORE PUSH1 0x20 ADD PUSH1 0x0 KECCAK256 PUSH1 0x0 ADD PUSH1 0x0 SWAP1 SLOAD SWAP1 PUSH2 0x100 EXP SWAP1 DIV PUSH8 0xFFFFFFFFFFFFFFFF AND PUSH8 0xFFFFFFFFFFFFFFFF AND SWAP1 POP SWAP2 SWAP1 POP JUMP JUMPDEST PUSH1 0x60 PUSH1 0x8 DUP1 SLOAD PUSH2 0x8C5 SWAP1 PUSH2 0x24A7 JUMP JUMPDEST DUP1 PUSH1 0x1F ADD PUSH1 0x20 DUP1 SWAP2 DIV MUL PUSH1 0x20 ADD PUSH1 0x40 MLOAD SWAP1 DUP2 ADD PUSH1 0x40 MSTORE DUP1 SWAP3 SWAP2 SWAP1 DUP2 DUP2 MSTORE PUSH1 0x20 ADD DUP3 DUP1 SLOAD PUSH2 0x8F1 SWAP1 PUSH2 0x24A7 JUMP JUMPDEST DUP1 ISZERO PUSH2 0x93E JUMPI DUP1 PUSH1 0x1F LT PUSH2 0x913 JUMPI PUSH2 0x100 DUP1 DUP4 SLOAD DIV MUL DUP4 MSTORE SWAP2 PUSH1 0x20 ADD SWAP2 PUSH2 0x93E JUMP JUMPDEST DUP3 ADD SWAP2 SWAP1 PUSH1 0x0 MSTORE PUSH1 0x20 PUSH1 0x0 KECCAK256 SWAP1 JUMPDEST DUP2 SLOAD DUP2 MSTORE SWAP1 PUSH1 0x1 ADD SWAP1 PUSH1 0x20 ADD DUP1 DUP4 GT PUSH2 0x921 JUMPI DUP3 SWAP1 SUB PUSH1 0x1F AND DUP3 ADD SWAP2 JUMPDEST POP POP POP POP POP SWAP1 POP SWAP1 JUMP JUMPDEST PUSH2 0x950 PUSH2 0xF93 JUMP JUMPDEST PUSH20 0xFFFFFFFFFFFFFFFFFFFFFFFFFFFFFFFFFFFFFFFF AND DUP3 PUSH20 0xFFFFFFFFFFFFFFFFFFFFFFFFFFFFFFFFFFFFFFFF AND SUB PUSH2 0x9B4 JUMPI PUSH1 0x40 MLOAD PUSH32 0xB06307DB00000000000000000000000000000000000000000000000000000000 DUP2 MSTORE PUSH1 0x4 ADD PUSH1 0x40 MLOAD DUP1 SWAP2 SUB SWAP1 REVERT JUMPDEST DUP1 PUSH1 0xC PUSH1 0x0 PUSH2 0x9C1 PUSH2 0xF93 JUMP JUMPDEST PUSH20 0xFFFFFFFFFFFFFFFFFFFFFFFFFFFFFFFFFFFFFFFF AND PUSH20 0xFFFFFFFFFFFFFFFFFFFFFFFFFFFFFFFFFFFFFFFF AND DUP2 MSTORE PUSH1 0x20 ADD SWAP1 DUP2 MSTORE PUSH1 0x20 ADD PUSH1 0x0 KECCAK256 PUSH1 0x0 DUP5 PUSH20 0xFFFFFFFFFFFFFFFFFFFFFFFFFFFFFFFFFFFFFFFF AND PUSH20 0xFFFFFFFFFFFFFFFFFFFFFFFFFFFFFFFFFFFFFFFF AND DUP2 MSTORE PUSH1 0x20 ADD SWAP1 DUP2 MSTORE PUSH1 0x20 ADD PUSH1 0x0 KECCAK256 PUSH1 0x0 PUSH2 0x100 EXP DUP2 SLOAD DUP2 PUSH1 0xFF MUL NOT AND SWAP1 DUP4 ISZERO ISZERO MUL OR SWAP1 SSTORE POP DUP2 PUSH20 0xFFFFFFFFFFFFFFFFFFFFFFFFFFFFFFFFFFFFFFFF AND PUSH2 0xA6E PUSH2 0xF93 JUMP JUMPDEST PUSH20 0xFFFFFFFFFFFFFFFFFFFFFFFFFFFFFFFFFFFFFFFF AND PUSH32 0x17307EAB39AB6107E8899845AD3D59BD9653F200F220920489CA2B5937696C31 DUP4 PUSH1 0x40 MLOAD PUSH2 0xAB3 SWAP2 SWAP1 PUSH2 0x1F72 JUMP JUMPDEST PUSH1 0x40 MLOAD DUP1 SWAP2 SUB SWAP1 LOG3 POP POP JUMP JUMPDEST PUSH2 0xACA DUP5 DUP5 DUP5 PUSH2 0x1052 JUMP JUMPDEST PUSH2 0xAE9 DUP4 PUSH20 0xFFFFFFFFFFFFFFFFFFFFFFFFFFFFFFFFFFFFFFFF AND PUSH2 0x1ABB JUMP JUMPDEST ISZERO PUSH2 0xB31 JUMPI PUSH2 0xAFA DUP5 DUP5 DUP5 DUP5 PUSH2 0x1ADE JUMP JUMPDEST PUSH2 0xB30 JUMPI PUSH1 0x40 MLOAD PUSH32 0xD1A57ED600000000000000000000000000000000000000000000000000000000 DUP2 MSTORE PUSH1 0x4 ADD PUSH1 0x40 MLOAD DUP1 SWAP2 SUB SWAP1 REVERT JUMPDEST JUMPDEST POP POP POP POP JUMP JUMPDEST PUSH1 0x0 DUP1 PUSH2 0xB94 PUSH1 0xD PUSH1 0x0 DUP6 PUSH20 0xFFFFFFFFFFFFFFFFFFFFFFFFFFFFFFFFFFFFFFFF AND PUSH20 0xFFFFFFFFFFFFFFFFFFFFFFFFFFFFFFFFFFFFFFFF AND DUP2 MSTORE PUSH1 0x20 ADD SWAP1 DUP2 MSTORE PUSH1 0x20 ADD PUSH1 0x0 KECCAK256 PUSH1 0x0 PUSH1 0x1 DUP2 MSTORE PUSH1 0x20 ADD SWAP1 DUP2 MSTORE PUSH1 0x20 ADD PUSH1 0x0 KECCAK256 SLOAD PUSH2 0x76E JUMP JUMPDEST SWAP1 POP PUSH1 0x0 PUSH2 0xBA1 NUMBER PUSH2 0x76E JUMP JUMPDEST SWAP1 POP PUSH1 0x0 PUSH2 0xBB8 DUP3 DUP5 PUSH2 0x17EE SWAP1 SWAP2 SWAP1 PUSH4 0xFFFFFFFF AND JUMP JUMPDEST SWAP1 POP PUSH2 0xC32 PUSH1 0x3 SLOAD PUSH2 0xC24 PUSH1 0xD PUSH1 0x0 DUP10 PUSH20 0xFFFFFFFFFFFFFFFFFFFFFFFFFFFFFFFFFFFFFFFF AND PUSH20 0xFFFFFFFFFFFFFFFFFFFFFFFFFFFFFFFFFFFFFFFF AND DUP2 MSTORE PUSH1 0x20 ADD SWAP1 DUP2 MSTORE PUSH1 0x20 ADD PUSH1 0x0 KECCAK256 PUSH1 0x0 PUSH1 0x2 DUP2 MSTORE PUSH1 0x20 ADD SWAP1 DUP2 MSTORE PUSH1 0x20 ADD PUSH1 0x0 KECCAK256 SLOAD DUP5 PUSH2 0xEC5 SWAP1 SWAP2 SWAP1 PUSH4 0xFFFFFFFF AND JUMP JUMPDEST PUSH2 0x181A SWAP1 SWAP2 SWAP1 PUSH4 0xFFFFFFFF AND JUMP JUMPDEST SWAP1 POP PUSH2 0xC98 DUP2 PUSH1 0xD PUSH1 0x0 DUP9 PUSH20 0xFFFFFFFFFFFFFFFFFFFFFFFFFFFFFFFFFFFFFFFF AND PUSH20 0xFFFFFFFFFFFFFFFFFFFFFFFFFFFFFFFFFFFFFFFF AND DUP2 MSTORE PUSH1 0x20 ADD SWAP1 DUP2 MSTORE PUSH1 0x20 ADD PUSH1 0x0 KECCAK256 PUSH1 0x0 PUSH1 0x3 DUP2 MSTORE PUSH1 0x20 ADD SWAP1 DUP2 MSTORE PUSH1 0x20 ADD PUSH1 0x0 KECCAK256 SLOAD PUSH2 0x1804 SWAP1 SWAP2 SWAP1 PUSH4 0xFFFFFFFF AND JUMP JUMPDEST SWAP4 POP POP POP POP SWAP2 SWAP1 POP JUMP JUMPDEST PUSH1 0x60 PUSH2 0xCAD DUP3 PUSH2 0xF45 JUMP JUMPDEST PUSH2 0xCE3 JUMPI PUSH1 0x40 MLOAD PUSH32 0xA14C4B5000000000000000000000000000000000000000000000000000000000 DUP2 MSTORE PUSH1 0x4 ADD PUSH1 0x40 MLOAD DUP1 SWAP2 SUB SWAP1 REVERT JUMPDEST PUSH1 0x0 PUSH2 0xCED PUSH2 0x1C2E JUMP JUMPDEST SWAP1 POP PUSH1 0x0 DUP2 MLOAD SUB PUSH2 0xD0D JUMPI PUSH1 0x40 MLOAD DUP1 PUSH1 0x20 ADD PUSH1 0x40 MSTORE DUP1 PUSH1 0x0 DUP2 MSTORE POP PUSH2 0xD38 JUMP JUMPDEST DUP1 PUSH2 0xD17 DUP5 PUSH2 0x1C4E JUMP JUMPDEST PUSH1 0x40 MLOAD PUSH1 0x20 ADD PUSH2 0xD28 SWAP3 SWAP2 SWAP1 PUSH2 0x2514 JUMP JUMPDEST PUSH1 0x40 MLOAD PUSH1 0x20 DUP2 DUP4 SUB SUB DUP2 MSTORE SWAP1 PUSH1 0x40 MSTORE JUMPDEST SWAP2 POP POP SWAP2 SWAP1 POP JUMP JUMPDEST PUSH1 0x0 PUSH2 0xD4A PUSH2 0x104D JUMP JUMPDEST PUSH1 0x6 SLOAD PUSH1 0x5 SLOAD SUB SUB SWAP1 POP SWAP1 JUMP JUMPDEST PUSH1 0x0 PUSH1 0x3 SLOAD SWAP1 POP SWAP1 JUMP JUMPDEST PUSH1 0x0 DUP1 PUSH2 0x2710 DUP4 LT PUSH2 0xD76 JUMPI PUSH1 0x32 SWAP1 POP PUSH2 0xDCD JUMP JUMPDEST PUSH2 0xD9D DUP4 PUSH2 0xD8F PUSH1 0x0 SLOAD DUP7 PUSH2 0xEC5 SWAP1 SWAP2 SWAP1 PUSH4 0xFFFFFFFF AND JUMP JUMPDEST PUSH2 0x1804 SWAP1 SWAP2 SWAP1 PUSH4 0xFFFFFFFF AND JUMP JUMPDEST SWAP1 POP PUSH1 0x0 PUSH1 0xA DUP3 PUSH2 0xDAE SWAP2 SWAP1 PUSH2 0x2567 JUMP JUMPDEST SUB PUSH2 0xDBC JUMPI PUSH1 0x1 SWAP1 POP PUSH2 0xDCC JUMP JUMPDEST PUSH1 0xA DUP2 PUSH2 0xDC9 SWAP2 SWAP1 PUSH2 0x2567 JUMP JUMPDEST SWAP1 POP JUMPDEST JUMPDEST DUP1 SWAP2 POP POP SWAP2 SWAP1 POP JUMP JUMPDEST PUSH1 0x0 PUSH1 0xC PUSH1 0x0 DUP5 PUSH20 0xFFFFFFFFFFFFFFFFFFFFFFFFFFFFFFFFFFFFFFFF AND PUSH20 0xFFFFFFFFFFFFFFFFFFFFFFFFFFFFFFFFFFFFFFFF AND DUP2 MSTORE PUSH1 0x20 ADD SWAP1 DUP2 MSTORE PUSH1 0x20 ADD PUSH1 0x0 KECCAK256 PUSH1 0x0 DUP4 PUSH20 0xFFFFFFFFFFFFFFFFFFFFFFFFFFFFFFFFFFFFFFFF AND PUSH20 0xFFFFFFFFFFFFFFFFFFFFFFFFFFFFFFFFFFFFFFFF AND DUP2 MSTORE PUSH1 0x20 ADD SWAP1 DUP2 MSTORE PUSH1 0x20 ADD PUSH1 0x0 KECCAK256 PUSH1 0x0 SWAP1 SLOAD SWAP1 PUSH2 0x100 EXP SWAP1 DIV PUSH1 0xFF AND SWAP1 POP SWAP3 SWAP2 POP POP JUMP JUMPDEST PUSH1 0x0 PUSH1 0xD PUSH1 0x0 DUP5 PUSH20 0xFFFFFFFFFFFFFFFFFFFFFFFFFFFFFFFFFFFFFFFF AND PUSH20 0xFFFFFFFFFFFFFFFFFFFFFFFFFFFFFFFFFFFFFFFF AND DUP2 MSTORE PUSH1 0x20 ADD SWAP1 DUP2 MSTORE PUSH1 0x20 ADD PUSH1 0x0 KECCAK256 PUSH1 0x0 DUP4 DUP2 MSTORE PUSH1 0x20 ADD SWAP1 DUP2 MSTORE PUSH1 0x20 ADD PUSH1 0x0 KECCAK256 SLOAD SWAP1 POP SWAP3 SWAP2 POP POP JUMP JUMPDEST PUSH1 0x0 DUP2 DUP4 PUSH2 0xED3 SWAP2 SWAP1 PUSH2 0x25C7 JUMP JUMPDEST SWAP1 POP SWAP3 SWAP2 POP POP JUMP JUMPDEST PUSH1 0x0 PUSH32 0x1FFC9A700000000000000000000000000000000000000000000000000000000 PUSH28 0xFFFFFFFFFFFFFFFFFFFFFFFFFFFFFFFFFFFFFFFFFFFFFFFFFFFFFFFF NOT AND DUP3 PUSH28 0xFFFFFFFFFFFFFFFFFFFFFFFFFFFFFFFFFFFFFFFFFFFFFFFFFFFFFFFF NOT AND EQ SWAP1 POP SWAP2 SWAP1 POP JUMP JUMPDEST PUSH1 0x0 DUP2 PUSH2 0xF50 PUSH2 0x104D JUMP JUMPDEST GT ISZERO DUP1 ISZERO PUSH2 0xF5F JUMPI POP PUSH1 0x4 SLOAD DUP3 LT JUMPDEST DUP1 ISZERO PUSH2 0xF8C JUMPI POP PUSH1 0x9 PUSH1 0x0 DUP4 DUP2 MSTORE PUSH1 0x20 ADD SWAP1 DUP2 MSTORE PUSH1 0x20 ADD PUSH1 0x0 KECCAK256 PUSH1 0x0 ADD PUSH1 0x1C SWAP1 SLOAD SWAP1 PUSH2 0x100 EXP SWAP1 DIV PUSH1 0xFF AND ISZERO JUMPDEST SWAP1 POP SWAP2 SWAP1 POP JUMP JUMPDEST PUSH1 0x0 CALLER SWAP1 POP SWAP1 JUMP JUMPDEST DUP3 PUSH1 0xB PUSH1 0x0 DUP5 DUP2 MSTORE PUSH1 0x20 ADD SWAP1 DUP2 MSTORE PUSH1 0x20 ADD PUSH1 0x0 KECCAK256 PUSH1 0x0 PUSH2 0x100 EXP DUP2 SLOAD DUP2 PUSH20 0xFFFFFFFFFFFFFFFFFFFFFFFFFFFFFFFFFFFFFFFF MUL NOT AND SWAP1 DUP4 PUSH20 0xFFFFFFFFFFFFFFFFFFFFFFFFFFFFFFFFFFFFFFFF AND MUL OR SWAP1 SSTORE POP DUP2 DUP4 PUSH20 0xFFFFFFFFFFFFFFFFFFFFFFFFFFFFFFFFFFFFFFFF AND DUP3 PUSH20 0xFFFFFFFFFFFFFFFFFFFFFFFFFFFFFFFFFFFFFFFF AND PUSH32 0x8C5BE1E5EBEC7D5BD14F71427D1E84F3DD0314C0F7B2291E5B200AC8C7C3B925 PUSH1 0x40 MLOAD PUSH1 0x40 MLOAD DUP1 SWAP2 SUB SWAP1 LOG4 POP POP POP JUMP JUMPDEST PUSH1 0x0 SWAP1 JUMP JUMPDEST PUSH1 0x0 PUSH2 0x105D DUP3 PUSH2 0xD61 JUMP JUMPDEST SWAP1 POP PUSH2 0x1068 DUP5 PUSH2 0xB37 JUMP JUMPDEST PUSH1 0xD PUSH1 0x0 DUP7 PUSH20 0xFFFFFFFFFFFFFFFFFFFFFFFFFFFFFFFFFFFFFFFF AND PUSH20 0xFFFFFFFFFFFFFFFFFFFFFFFFFFFFFFFFFFFFFFFF AND DUP2 MSTORE PUSH1 0x20 ADD SWAP1 DUP2 MSTORE PUSH1 0x20 ADD PUSH1 0x0 KECCAK256 PUSH1 0x0 PUSH1 0x3 DUP2 MSTORE PUSH1 0x20 ADD SWAP1 DUP2 MSTORE PUSH1 0x20 ADD PUSH1 0x0 KECCAK256 DUP2 SWAP1 SSTORE POP PUSH2 0x1121 DUP2 PUSH1 0xD PUSH1 0x0 DUP8 PUSH20 0xFFFFFFFFFFFFFFFFFFFFFFFFFFFFFFFFFFFFFFFF AND PUSH20 0xFFFFFFFFFFFFFFFFFFFFFFFFFFFFFFFFFFFFFFFF AND DUP2 MSTORE PUSH1 0x20 ADD SWAP1 DUP2 MSTORE PUSH1 0x20 ADD PUSH1 0x0 KECCAK256 PUSH1 0x0 PUSH1 0x2 DUP2 MSTORE PUSH1 0x20 ADD SWAP1 DUP2 MSTORE PUSH1 0x20 ADD PUSH1 0x0 KECCAK256 SLOAD PUSH2 0x17EE SWAP1 SWAP2 SWAP1 PUSH4 0xFFFFFFFF AND JUMP JUMPDEST PUSH1 0xD PUSH1 0x0 DUP7 PUSH20 0xFFFFFFFFFFFFFFFFFFFFFFFFFFFFFFFFFFFFFFFF AND PUSH20 0xFFFFFFFFFFFFFFFFFFFFFFFFFFFFFFFFFFFFFFFF AND DUP2 MSTORE PUSH1 0x20 ADD SWAP1 DUP2 MSTORE PUSH1 0x20 ADD PUSH1 0x0 KECCAK256 PUSH1 0x0 PUSH1 0x2 DUP2 MSTORE PUSH1 0x20 ADD SWAP1 DUP2 MSTORE PUSH1 0x20 ADD PUSH1 0x0 KECCAK256 DUP2 SWAP1 SSTORE POP NUMBER PUSH1 0xD PUSH1 0x0 DUP7 PUSH20 0xFFFFFFFFFFFFFFFFFFFFFFFFFFFFFFFFFFFFFFFF AND PUSH20 0xFFFFFFFFFFFFFFFFFFFFFFFFFFFFFFFFFFFFFFFF AND DUP2 MSTORE PUSH1 0x20 ADD SWAP1 DUP2 MSTORE PUSH1 0x20 ADD PUSH1 0x0 KECCAK256 PUSH1 0x0 PUSH1 0x1 DUP2 MSTORE PUSH1 0x20 ADD SWAP1 DUP2 MSTORE PUSH1 0x20 ADD PUSH1 0x0 KECCAK256 DUP2 SWAP1 SSTORE POP PUSH2 0x11D5 DUP4 PUSH2 0xB37 JUMP JUMPDEST PUSH1 0xD PUSH1 0x0 DUP6 PUSH20 0xFFFFFFFFFFFFFFFFFFFFFFFFFFFFFFFFFFFFFFFF AND PUSH20 0xFFFFFFFFFFFFFFFFFFFFFFFFFFFFFFFFFFFFFFFF AND DUP2 MSTORE PUSH1 0x20 ADD SWAP1 DUP2 MSTORE PUSH1 0x20 ADD PUSH1 0x0 KECCAK256 PUSH1 0x0 PUSH1 0x3 DUP2 MSTORE PUSH1 0x20 ADD SWAP1 DUP2 MSTORE PUSH1 0x20 ADD PUSH1 0x0 KECCAK256 DUP2 SWAP1 SSTORE POP PUSH2 0x128E DUP2 PUSH1 0xD PUSH1 0x0 DUP7 PUSH20 0xFFFFFFFFFFFFFFFFFFFFFFFFFFFFFFFFFFFFFFFF AND PUSH20 0xFFFFFFFFFFFFFFFFFFFFFFFFFFFFFFFFFFFFFFFF AND DUP2 MSTORE PUSH1 0x20 ADD SWAP1 DUP2 MSTORE PUSH1 0x20 ADD PUSH1 0x0 KECCAK256 PUSH1 0x0 PUSH1 0x2 DUP2 MSTORE PUSH1 0x20 ADD SWAP1 DUP2 MSTORE PUSH1 0x20 ADD PUSH1 0x0 KECCAK256 SLOAD PUSH2 0x1804 SWAP1 SWAP2 SWAP1 PUSH4 0xFFFFFFFF AND JUMP JUMPDEST PUSH1 0xD PUSH1 0x0 DUP6 PUSH20 0xFFFFFFFFFFFFFFFFFFFFFFFFFFFFFFFFFFFFFFFF AND PUSH20 0xFFFFFFFFFFFFFFFFFFFFFFFFFFFFFFFFFFFFFFFF AND DUP2 MSTORE PUSH1 0x20 ADD SWAP1 DUP2 MSTORE PUSH1 0x20 ADD PUSH1 0x0 KECCAK256 PUSH1 0x0 PUSH1 0x2 DUP2 MSTORE PUSH1 0x20 ADD SWAP1 DUP2 MSTORE PUSH1 0x20 ADD PUSH1 0x0 KECCAK256 DUP2 SWAP1 SSTORE POP NUMBER PUSH1 0xD PUSH1 0x0 DUP6 PUSH20 0xFFFFFFFFFFFFFFFFFFFFFFFFFFFFFFFFFFFFFFFF AND PUSH20 0xFFFFFFFFFFFFFFFFFFFFFFFFFFFFFFFFFFFFFFFF AND DUP2 MSTORE PUSH1 0x20 ADD SWAP1 DUP2 MSTORE PUSH1 0x20 ADD PUSH1 0x0 KECCAK256 PUSH1 0x0 PUSH1 0x1 DUP2 MSTORE PUSH1 0x20 ADD SWAP1 DUP2 MSTORE PUSH1 0x20 ADD PUSH1 0x0 KECCAK256 DUP2 SWAP1 SSTORE POP PUSH1 0x0 PUSH2 0x1344 DUP4 PUSH2 0x1830 JUMP JUMPDEST SWAP1 POP DUP5 PUSH20 0xFFFFFFFFFFFFFFFFFFFFFFFFFFFFFFFFFFFFFFFF AND DUP2 PUSH1 0x0 ADD MLOAD PUSH20 0xFFFFFFFFFFFFFFFFFFFFFFFFFFFFFFFFFFFFFFFF AND EQ PUSH2 0x13AF JUMPI PUSH1 0x40 MLOAD PUSH32 0xA114810000000000000000000000000000000000000000000000000000000000 DUP2 MSTORE PUSH1 0x4 ADD PUSH1 0x40 MLOAD DUP1 SWAP2 SUB SWAP1 REVERT JUMPDEST PUSH1 0x0 DUP6 PUSH20 0xFFFFFFFFFFFFFFFFFFFFFFFFFFFFFFFFFFFFFFFF AND PUSH2 0x13D0 PUSH2 0xF93 JUMP JUMPDEST PUSH20 0xFFFFFFFFFFFFFFFFFFFFFFFFFFFFFFFFFFFFFFFF AND EQ DUP1 PUSH2 0x13FF JUMPI POP PUSH2 0x13FE DUP7 PUSH2 0x13F9 PUSH2 0xF93 JUMP JUMPDEST PUSH2 0xDD6 JUMP JUMPDEST JUMPDEST DUP1 PUSH2 0x1444 JUMPI POP PUSH2 0x140D PUSH2 0xF93 JUMP JUMPDEST PUSH20 0xFFFFFFFFFFFFFFFFFFFFFFFFFFFFFFFFFFFFFFFF AND PUSH2 0x142C DUP6 PUSH2 0x5A7 JUMP JUMPDEST PUSH20 0xFFFFFFFFFFFFFFFFFFFFFFFFFFFFFFFFFFFFFFFF AND EQ JUMPDEST SWAP1 POP DUP1 PUSH2 0x147D JUMPI PUSH1 0x40 MLOAD PUSH32 0x59C896BE00000000000000000000000000000000000000000000000000000000 DUP2 MSTORE PUSH1 0x4 ADD PUSH1 0x40 MLOAD DUP1 SWAP2 SUB SWAP1 REVERT JUMPDEST PUSH1 0x0 PUSH20 0xFFFFFFFFFFFFFFFFFFFFFFFFFFFFFFFFFFFFFFFF AND DUP6 PUSH20 0xFFFFFFFFFFFFFFFFFFFFFFFFFFFFFFFFFFFFFFFF AND SUB PUSH2 0x14E3 JUMPI PUSH1 0x40 MLOAD PUSH32 0xEA553B3400000000000000000000000000000000000000000000000000000000 DUP2 MSTORE PUSH1 0x4 ADD PUSH1 0x40 MLOAD DUP1 SWAP2 SUB SWAP1 REVERT JUMPDEST PUSH2 0x14F0 DUP7 DUP7 DUP7 PUSH1 0x1 PUSH2 0x1D1C JUMP JUMPDEST PUSH2 0x14FC PUSH1 0x0 DUP6 DUP9 PUSH2 0xF9B JUMP JUMPDEST PUSH1 0x1 PUSH1 0xA PUSH1 0x0 DUP9 PUSH20 0xFFFFFFFFFFFFFFFFFFFFFFFFFFFFFFFFFFFFFFFF AND PUSH20 0xFFFFFFFFFFFFFFFFFFFFFFFFFFFFFFFFFFFFFFFF AND DUP2 MSTORE PUSH1 0x20 ADD SWAP1 DUP2 MSTORE PUSH1 0x20 ADD PUSH1 0x0 KECCAK256 PUSH1 0x0 ADD PUSH1 0x0 DUP3 DUP3 DUP3 SWAP1 SLOAD SWAP1 PUSH2 0x100 EXP SWAP1 DIV PUSH8 0xFFFFFFFFFFFFFFFF AND SUB SWAP3 POP PUSH2 0x100 EXP DUP2 SLOAD DUP2 PUSH8 0xFFFFFFFFFFFFFFFF MUL NOT AND SWAP1 DUP4 PUSH8 0xFFFFFFFFFFFFFFFF AND MUL OR SWAP1 SSTORE POP PUSH1 0x1 PUSH1 0xA PUSH1 0x0 DUP8 PUSH20 0xFFFFFFFFFFFFFFFFFFFFFFFFFFFFFFFFFFFFFFFF AND PUSH20 0xFFFFFFFFFFFFFFFFFFFFFFFFFFFFFFFFFFFFFFFF AND DUP2 MSTORE PUSH1 0x20 ADD SWAP1 DUP2 MSTORE PUSH1 0x20 ADD PUSH1 0x0 KECCAK256 PUSH1 0x0 ADD PUSH1 0x0 DUP3 DUP3 DUP3 SWAP1 SLOAD SWAP1 PUSH2 0x100 EXP SWAP1 DIV PUSH8 0xFFFFFFFFFFFFFFFF AND ADD SWAP3 POP PUSH2 0x100 EXP DUP2 SLOAD DUP2 PUSH8 0xFFFFFFFFFFFFFFFF MUL NOT AND SWAP1 DUP4 PUSH8 0xFFFFFFFFFFFFFFFF AND MUL OR SWAP1 SSTORE POP PUSH1 0x0 PUSH1 0x9 PUSH1 0x0 DUP7 DUP2 MSTORE PUSH1 0x20 ADD SWAP1 DUP2 MSTORE PUSH1 0x20 ADD PUSH1 0x0 KECCAK256 SWAP1 POP DUP6 DUP2 PUSH1 0x0 ADD PUSH1 0x0 PUSH2 0x100 EXP DUP2 SLOAD DUP2 PUSH20 0xFFFFFFFFFFFFFFFFFFFFFFFFFFFFFFFFFFFFFFFF MUL NOT AND SWAP1 DUP4 PUSH20 0xFFFFFFFFFFFFFFFFFFFFFFFFFFFFFFFFFFFFFFFF AND MUL OR SWAP1 SSTORE POP TIMESTAMP DUP2 PUSH1 0x0 ADD PUSH1 0x14 PUSH2 0x100 EXP DUP2 SLOAD DUP2 PUSH8 0xFFFFFFFFFFFFFFFF MUL NOT AND SWAP1 DUP4 PUSH8 0xFFFFFFFFFFFFFFFF AND MUL OR SWAP1 SSTORE POP PUSH1 0x0 PUSH1 0x1 DUP7 ADD SWAP1 POP PUSH1 0x0 PUSH1 0x9 PUSH1 0x0 DUP4 DUP2 MSTORE PUSH1 0x20 ADD SWAP1 DUP2 MSTORE PUSH1 0x20 ADD PUSH1 0x0 KECCAK256 SWAP1 POP PUSH1 0x0 PUSH20 0xFFFFFFFFFFFFFFFFFFFFFFFFFFFFFFFFFFFFFFFF AND DUP2 PUSH1 0x0 ADD PUSH1 0x0 SWAP1 SLOAD SWAP1 PUSH2 0x100 EXP SWAP1 DIV PUSH20 0xFFFFFFFFFFFFFFFFFFFFFFFFFFFFFFFFFFFFFFFF AND PUSH20 0xFFFFFFFFFFFFFFFFFFFFFFFFFFFFFFFFFFFFFFFF AND SUB PUSH2 0x177B JUMPI PUSH1 0x4 SLOAD DUP3 EQ PUSH2 0x177A JUMPI DUP9 DUP2 PUSH1 0x0 ADD PUSH1 0x0 PUSH2 0x100 EXP DUP2 SLOAD DUP2 PUSH20 0xFFFFFFFFFFFFFFFFFFFFFFFFFFFFFFFFFFFFFFFF MUL NOT AND SWAP1 DUP4 PUSH20 0xFFFFFFFFFFFFFFFFFFFFFFFFFFFFFFFFFFFFFFFF AND MUL OR SWAP1 SSTORE POP DUP5 PUSH1 0x20 ADD MLOAD DUP2 PUSH1 0x0 ADD PUSH1 0x14 PUSH2 0x100 EXP DUP2 SLOAD DUP2 PUSH8 0xFFFFFFFFFFFFFFFF MUL NOT AND SWAP1 DUP4 PUSH8 0xFFFFFFFFFFFFFFFF AND MUL OR SWAP1 SSTORE POP JUMPDEST JUMPDEST POP POP POP DUP4 DUP6 PUSH20 0xFFFFFFFFFFFFFFFFFFFFFFFFFFFFFFFFFFFFFFFF AND DUP8 PUSH20 0xFFFFFFFFFFFFFFFFFFFFFFFFFFFFFFFFFFFFFFFF AND PUSH32 0xDDF252AD1BE2C89B69C2B068FC378DAA952BA7F163C4A11628F55A4DF523B3EF PUSH1 0x40 MLOAD PUSH1 0x40 MLOAD DUP1 SWAP2 SUB SWAP1 LOG4 PUSH2 0x17E6 DUP7 DUP7 DUP7 PUSH1 0x1 PUSH2 0x1D22 JUMP JUMPDEST POP POP POP POP POP POP JUMP JUMPDEST PUSH1 0x0 DUP2 DUP4 PUSH2 0x17FC SWAP2 SWAP1 PUSH2 0x2609 JUMP JUMPDEST SWAP1 POP SWAP3 SWAP2 POP POP JUMP JUMPDEST PUSH1 0x0 DUP2 DUP4 PUSH2 0x1812 SWAP2 SWAP1 PUSH2 0x263D JUMP JUMPDEST SWAP1 POP SWAP3 SWAP2 POP POP JUMP JUMPDEST PUSH1 0x0 DUP2 DUP4 PUSH2 0x1828 SWAP2 SWAP1 PUSH2 0x2671 JUMP JUMPDEST SWAP1 POP SWAP3 SWAP2 POP POP JUMP JUMPDEST PUSH2 0x1838 PUSH2 0x1E7B JUMP JUMPDEST PUSH1 0x0 DUP3 SWAP1 POP DUP1 PUSH2 0x1846 PUSH2 0x104D JUMP JUMPDEST GT PUSH2 0x1A84 JUMPI PUSH1 0x4 SLOAD DUP2 LT ISZERO PUSH2 0x1A83 JUMPI PUSH1 0x0 PUSH1 0x9 PUSH1 0x0 DUP4 DUP2 MSTORE PUSH1 0x20 ADD SWAP1 DUP2 MSTORE PUSH1 0x20 ADD PUSH1 0x0 KECCAK256 PUSH1 0x40 MLOAD DUP1 PUSH1 0x60 ADD PUSH1 0x40 MSTORE SWAP1 DUP2 PUSH1 0x0 DUP3 ADD PUSH1 0x0 SWAP1 SLOAD SWAP1 PUSH2 0x100 EXP SWAP1 DIV PUSH20 0xFFFFFFFFFFFFFFFFFFFFFFFFFFFFFFFFFFFFFFFF AND PUSH20 0xFFFFFFFFFFFFFFFFFFFFFFFFFFFFFFFFFFFFFFFF AND PUSH20 0xFFFFFFFFFFFFFFFFFFFFFFFFFFFFFFFFFFFFFFFF AND DUP2 MSTORE PUSH1 0x20 ADD PUSH1 0x0 DUP3 ADD PUSH1 0x14 SWAP1 SLOAD SWAP1 PUSH2 0x100 EXP SWAP1 DIV PUSH8 0xFFFFFFFFFFFFFFFF AND PUSH8 0xFFFFFFFFFFFFFFFF AND PUSH8 0xFFFFFFFFFFFFFFFF AND DUP2 MSTORE PUSH1 0x20 ADD PUSH1 0x0 DUP3 ADD PUSH1 0x1C SWAP1 SLOAD SWAP1 PUSH2 0x100 EXP SWAP1 DIV PUSH1 0xFF AND ISZERO ISZERO ISZERO ISZERO DUP2 MSTORE POP POP SWAP1 POP DUP1 PUSH1 0x40 ADD MLOAD PUSH2 0x1A81 JUMPI PUSH1 0x0 PUSH20 0xFFFFFFFFFFFFFFFFFFFFFFFFFFFFFFFFFFFFFFFF AND DUP2 PUSH1 0x0 ADD MLOAD PUSH20 0xFFFFFFFFFFFFFFFFFFFFFFFFFFFFFFFFFFFFFFFF AND EQ PUSH2 0x1965 JUMPI DUP1 SWAP3 POP POP POP PUSH2 0x1AB6 JUMP JUMPDEST JUMPDEST PUSH1 0x1 ISZERO PUSH2 0x1A80 JUMPI DUP2 DUP1 PUSH1 0x1 SWAP1 SUB SWAP3 POP POP PUSH1 0x9 PUSH1 0x0 DUP4 DUP2 MSTORE PUSH1 0x20 ADD SWAP1 DUP2 MSTORE PUSH1 0x20 ADD PUSH1 0x0 KECCAK256 PUSH1 0x40 MLOAD DUP1 PUSH1 0x60 ADD PUSH1 0x40 MSTORE SWAP1 DUP2 PUSH1 0x0 DUP3 ADD PUSH1 0x0 SWAP1 SLOAD SWAP1 PUSH2 0x100 EXP SWAP1 DIV PUSH20 0xFFFFFFFFFFFFFFFFFFFFFFFFFFFFFFFFFFFFFFFF AND PUSH20 0xFFFFFFFFFFFFFFFFFFFFFFFFFFFFFFFFFFFFFFFF AND PUSH20 0xFFFFFFFFFFFFFFFFFFFFFFFFFFFFFFFFFFFFFFFF AND DUP2 MSTORE PUSH1 0x20 ADD PUSH1 0x0 DUP3 ADD PUSH1 0x14 SWAP1 SLOAD SWAP1 PUSH2 0x100 EXP SWAP1 DIV PUSH8 0xFFFFFFFFFFFFFFFF AND PUSH8 0xFFFFFFFFFFFFFFFF AND PUSH8 0xFFFFFFFFFFFFFFFF AND DUP2 MSTORE PUSH1 0x20 ADD PUSH1 0x0 DUP3 ADD PUSH1 0x1C SWAP1 SLOAD SWAP1 PUSH2 0x100 EXP SWAP1 DIV PUSH1 0xFF AND ISZERO ISZERO ISZERO ISZERO DUP2 MSTORE POP POP SWAP1 POP PUSH1 0x0 PUSH20 0xFFFFFFFFFFFFFFFFFFFFFFFFFFFFFFFFFFFFFFFF AND DUP2 PUSH1 0x0 ADD MLOAD PUSH20 0xFFFFFFFFFFFFFFFFFFFFFFFFFFFFFFFFFFFFFFFF AND EQ PUSH2 0x1A7B JUMPI DUP1 SWAP3 POP POP POP PUSH2 0x1AB6 JUMP JUMPDEST PUSH2 0x1966 JUMP JUMPDEST JUMPDEST POP JUMPDEST JUMPDEST PUSH1 0x40 MLOAD PUSH32 0xDF2D9B4200000000000000000000000000000000000000000000000000000000 DUP2 MSTORE PUSH1 0x4 ADD PUSH1 0x40 MLOAD DUP1 SWAP2 SUB SWAP1 REVERT JUMPDEST SWAP2 SWAP1 POP JUMP JUMPDEST PUSH1 0x0 DUP1 DUP3 PUSH20 0xFFFFFFFFFFFFFFFFFFFFFFFFFFFFFFFFFFFFFFFF AND EXTCODESIZE GT SWAP1 POP SWAP2 SWAP1 POP JUMP JUMPDEST PUSH1 0x0 DUP4 PUSH20 0xFFFFFFFFFFFFFFFFFFFFFFFFFFFFFFFFFFFFFFFF AND PUSH4 0x150B7A02 PUSH2 0x1B04 PUSH2 0xF93 JUMP JUMPDEST DUP8 DUP7 DUP7 PUSH1 0x40 MLOAD DUP6 PUSH4 0xFFFFFFFF AND PUSH1 0xE0 SHL DUP2 MSTORE PUSH1 0x4 ADD PUSH2 0x1B26 SWAP5 SWAP4 SWAP3 SWAP2 SWAP1 PUSH2 0x26F7 JUMP JUMPDEST PUSH1 0x20 PUSH1 0x40 MLOAD DUP1 DUP4 SUB DUP2 PUSH1 0x0 DUP8 GAS CALL SWAP3 POP POP POP DUP1 ISZERO PUSH2 0x1B62 JUMPI POP PUSH1 0x40 MLOAD RETURNDATASIZE PUSH1 0x1F NOT PUSH1 0x1F DUP3 ADD AND DUP3 ADD DUP1 PUSH1 0x40 MSTORE POP DUP2 ADD SWAP1 PUSH2 0x1B5F SWAP2 SWAP1 PUSH2 0x2758 JUMP JUMPDEST PUSH1 0x1 JUMPDEST PUSH2 0x1BDB JUMPI RETURNDATASIZE DUP1 PUSH1 0x0 DUP2 EQ PUSH2 0x1B92 JUMPI PUSH1 0x40 MLOAD SWAP2 POP PUSH1 0x1F NOT PUSH1 0x3F RETURNDATASIZE ADD AND DUP3 ADD PUSH1 0x40 MSTORE RETURNDATASIZE DUP3 MSTORE RETURNDATASIZE PUSH1 0x0 PUSH1 0x20 DUP5 ADD RETURNDATACOPY PUSH2 0x1B97 JUMP JUMPDEST PUSH1 0x60 SWAP2 POP JUMPDEST POP PUSH1 0x0 DUP2 MLOAD SUB PUSH2 0x1BD3 JUMPI PUSH1 0x40 MLOAD PUSH32 0xD1A57ED600000000000000000000000000000000000000000000000000000000 DUP2 MSTORE PUSH1 0x4 ADD PUSH1 0x40 MLOAD DUP1 SWAP2 SUB SWAP1 REVERT JUMPDEST DUP1 MLOAD DUP2 PUSH1 0x20 ADD REVERT JUMPDEST PUSH4 0x150B7A02 PUSH1 0xE0 SHL PUSH28 0xFFFFFFFFFFFFFFFFFFFFFFFFFFFFFFFFFFFFFFFFFFFFFFFFFFFFFFFF NOT AND DUP2 PUSH28 0xFFFFFFFFFFFFFFFFFFFFFFFFFFFFFFFFFFFFFFFFFFFFFFFFFFFFFFFF NOT AND EQ SWAP2 POP POP SWAP5 SWAP4 POP POP POP POP JUMP JUMPDEST PUSH1 0x60 PUSH1 0x40 MLOAD DUP1 PUSH1 0x80 ADD PUSH1 0x40 MSTORE DUP1 PUSH1 0x51 DUP2 MSTORE PUSH1 0x20 ADD PUSH2 0x2786 PUSH1 0x51 SWAP2 CODECOPY SWAP1 POP SWAP1 JUMP JUMPDEST PUSH1 0x60 PUSH1 0x0 PUSH1 0x1 PUSH2 0x1C5D DUP5 PUSH2 0x1D28 JUMP JUMPDEST ADD SWAP1 POP PUSH1 0x0 DUP2 PUSH8 0xFFFFFFFFFFFFFFFF DUP2 GT ISZERO PUSH2 0x1C7C JUMPI PUSH2 0x1C7B PUSH2 0x228A JUMP JUMPDEST JUMPDEST PUSH1 0x40 MLOAD SWAP1 DUP1 DUP3 MSTORE DUP1 PUSH1 0x1F ADD PUSH1 0x1F NOT AND PUSH1 0x20 ADD DUP3 ADD PUSH1 0x40 MSTORE DUP1 ISZERO PUSH2 0x1CAE JUMPI DUP2 PUSH1 0x20 ADD PUSH1 0x1 DUP3 MUL DUP1 CALLDATASIZE DUP4 CALLDATACOPY DUP1 DUP3 ADD SWAP2 POP POP SWAP1 POP JUMPDEST POP SWAP1 POP PUSH1 0x0 DUP3 PUSH1 0x20 ADD DUP3 ADD SWAP1 POP JUMPDEST PUSH1 0x1 ISZERO PUSH2 0x1D11 JUMPI DUP1 DUP1 PUSH1 0x1 SWAP1 SUB SWAP2 POP POP PUSH32 0x3031323334353637383961626364656600000000000000000000000000000000 PUSH1 0xA DUP7 MOD BYTE DUP2 MSTORE8 PUSH1 0xA DUP6 DUP2 PUSH2 0x1D05 JUMPI PUSH2 0x1D04 PUSH2 0x2538 JUMP JUMPDEST JUMPDEST DIV SWAP5 POP PUSH1 0x0 DUP6 SUB PUSH2 0x1CBC JUMPI JUMPDEST DUP2 SWAP4 POP POP POP POP SWAP2 SWAP1 POP JUMP JUMPDEST POP POP POP POP JUMP JUMPDEST POP POP POP POP JUMP JUMPDEST PUSH1 0x0 DUP1 PUSH1 0x0 SWAP1 POP PUSH27 0x184F03E93FF9F4DAA797ED6E38ED64BF6A1F010000000000000000 DUP4 LT PUSH2 0x1D86 JUMPI PUSH27 0x184F03E93FF9F4DAA797ED6E38ED64BF6A1F010000000000000000 DUP4 DUP2 PUSH2 0x1D7C JUMPI PUSH2 0x1D7B PUSH2 0x2538 JUMP JUMPDEST JUMPDEST DIV SWAP3 POP PUSH1 0x40 DUP2 ADD SWAP1 POP JUMPDEST PUSH14 0x4EE2D6D415B85ACEF8100000000 DUP4 LT PUSH2 0x1DC3 JUMPI PUSH14 0x4EE2D6D415B85ACEF8100000000 DUP4 DUP2 PUSH2 0x1DB9 JUMPI PUSH2 0x1DB8 PUSH2 0x2538 JUMP JUMPDEST JUMPDEST DIV SWAP3 POP PUSH1 0x20 DUP2 ADD SWAP1 POP JUMPDEST PUSH7 0x2386F26FC10000 DUP4 LT PUSH2 0x1DF2 JUMPI PUSH7 0x2386F26FC10000 DUP4 DUP2 PUSH2 0x1DE8 JUMPI PUSH2 0x1DE7 PUSH2 0x2538 JUMP JUMPDEST JUMPDEST DIV SWAP3 POP PUSH1 0x10 DUP2 ADD SWAP1 POP JUMPDEST PUSH4 0x5F5E100 DUP4 LT PUSH2 0x1E1B JUMPI PUSH4 0x5F5E100 DUP4 DUP2 PUSH2 0x1E11 JUMPI PUSH2 0x1E10 PUSH2 0x2538 JUMP JUMPDEST JUMPDEST DIV SWAP3 POP PUSH1 0x8 DUP2 ADD SWAP1 POP JUMPDEST PUSH2 0x2710 DUP4 LT PUSH2 0x1E40 JUMPI PUSH2 0x2710 DUP4 DUP2 PUSH2 0x1E36 JUMPI PUSH2 0x1E35 PUSH2 0x2538 JUMP JUMPDEST JUMPDEST DIV SWAP3 POP PUSH1 0x4 DUP2 ADD SWAP1 POP JUMPDEST PUSH1 0x64 DUP4 LT PUSH2 0x1E63 JUMPI PUSH1 0x64 DUP4 DUP2 PUSH2 0x1E59 JUMPI PUSH2 0x1E58 PUSH2 0x2538 JUMP JUMPDEST JUMPDEST DIV SWAP3 POP PUSH1 0x2 DUP2 ADD SWAP1 POP JUMPDEST PUSH1 0xA DUP4 LT PUSH2 0x1E72 JUMPI PUSH1 0x1 DUP2 ADD SWAP1 POP JUMPDEST DUP1 SWAP2 POP POP SWAP2 SWAP1 POP JUMP JUMPDEST PUSH1 0x40 MLOAD DUP1 PUSH1 0x60 ADD PUSH1 0x40 MSTORE DUP1 PUSH1 0x0 PUSH20 0xFFFFFFFFFFFFFFFFFFFFFFFFFFFFFFFFFFFFFFFF AND DUP2 MSTORE PUSH1 0x20 ADD PUSH1 0x0 PUSH8 0xFFFFFFFFFFFFFFFF AND DUP2 MSTORE PUSH1 0x20 ADD PUSH1 0x0 ISZERO ISZERO DUP2 MSTORE POP SWAP1 JUMP JUMPDEST PUSH1 0x0 PUSH1 0x40 MLOAD SWAP1 POP SWAP1 JUMP JUMPDEST PUSH1 0x0 DUP1 REVERT JUMPDEST PUSH1 0x0 DUP1 REVERT JUMPDEST PUSH1 0x0 PUSH32 0xFFFFFFFF00000000000000000000000000000000000000000000000000000000 DUP3 AND SWAP1 POP SWAP2 SWAP1 POP JUMP JUMPDEST PUSH2 0x1F07 DUP2 PUSH2 0x1ED2 JUMP JUMPDEST DUP2 EQ PUSH2 0x1F12 JUMPI PUSH1 0x0 DUP1 REVERT JUMPDEST POP JUMP JUMPDEST PUSH1 0x0 DUP2 CALLDATALOAD SWAP1 POP PUSH2 0x1F24 DUP2 PUSH2 0x1EFE JUMP JUMPDEST SWAP3 SWAP2 POP POP JUMP JUMPDEST PUSH1 0x0 PUSH1 0x20 DUP3 DUP5 SUB SLT ISZERO PUSH2 0x1F40 JUMPI PUSH2 0x1F3F PUSH2 0x1EC8 JUMP JUMPDEST JUMPDEST PUSH1 0x0 PUSH2 0x1F4E DUP5 DUP3 DUP6 ADD PUSH2 0x1F15 JUMP JUMPDEST SWAP2 POP POP SWAP3 SWAP2 POP POP JUMP JUMPDEST PUSH1 0x0 DUP2 ISZERO ISZERO SWAP1 POP SWAP2 SWAP1 POP JUMP JUMPDEST PUSH2 0x1F6C DUP2 PUSH2 0x1F57 JUMP JUMPDEST DUP3 MSTORE POP POP JUMP JUMPDEST PUSH1 0x0 PUSH1 0x20 DUP3 ADD SWAP1 POP PUSH2 0x1F87 PUSH1 0x0 DUP4 ADD DUP5 PUSH2 0x1F63 JUMP JUMPDEST SWAP3 SWAP2 POP POP JUMP JUMPDEST PUSH1 0x0 DUP2 MLOAD SWAP1 POP SWAP2 SWAP1 POP JUMP JUMPDEST PUSH1 0x0 DUP3 DUP3 MSTORE PUSH1 0x20 DUP3 ADD SWAP1 POP SWAP3 SWAP2 POP POP JUMP JUMPDEST PUSH1 0x0 JUMPDEST DUP4 DUP2 LT ISZERO PUSH2 0x1FC7 JUMPI DUP1 DUP3 ADD MLOAD DUP2 DUP5 ADD MSTORE PUSH1 0x20 DUP2 ADD SWAP1 POP PUSH2 0x1FAC JUMP JUMPDEST PUSH1 0x0 DUP5 DUP5 ADD MSTORE POP POP POP POP JUMP JUMPDEST PUSH1 0x0 PUSH1 0x1F NOT PUSH1 0x1F DUP4 ADD AND SWAP1 POP SWAP2 SWAP1 POP JUMP JUMPDEST PUSH1 0x0 PUSH2 0x1FEF DUP3 PUSH2 0x1F8D JUMP JUMPDEST PUSH2 0x1FF9 DUP2 DUP6 PUSH2 0x1F98 JUMP JUMPDEST SWAP4 POP PUSH2 0x2009 DUP2 DUP6 PUSH1 0x20 DUP7 ADD PUSH2 0x1FA9 JUMP JUMPDEST PUSH2 0x2012 DUP2 PUSH2 0x1FD3 JUMP JUMPDEST DUP5 ADD SWAP2 POP POP SWAP3 SWAP2 POP POP JUMP JUMPDEST PUSH1 0x0 PUSH1 0x20 DUP3 ADD SWAP1 POP DUP2 DUP2 SUB PUSH1 0x0 DUP4 ADD MSTORE PUSH2 0x2037 DUP2 DUP5 PUSH2 0x1FE4 JUMP JUMPDEST SWAP1 POP SWAP3 SWAP2 POP POP JUMP JUMPDEST PUSH1 0x0 DUP2 SWAP1 POP SWAP2 SWAP1 POP JUMP JUMPDEST PUSH2 0x2052 DUP2 PUSH2 0x203F JUMP JUMPDEST DUP2 EQ PUSH2 0x205D JUMPI PUSH1 0x0 DUP1 REVERT JUMPDEST POP JUMP JUMPDEST PUSH1 0x0 DUP2 CALLDATALOAD SWAP1 POP PUSH2 0x206F DUP2 PUSH2 0x2049 JUMP JUMPDEST SWAP3 SWAP2 POP POP JUMP JUMPDEST PUSH1 0x0 PUSH1 0x20 DUP3 DUP5 SUB SLT ISZERO PUSH2 0x208B JUMPI PUSH2 0x208A PUSH2 0x1EC8 JUMP JUMPDEST JUMPDEST PUSH1 0x0 PUSH2 0x2099 DUP5 DUP3 DUP6 ADD PUSH2 0x2060 JUMP JUMPDEST SWAP2 POP POP SWAP3 SWAP2 POP POP JUMP JUMPDEST PUSH1 0x0 PUSH20 0xFFFFFFFFFFFFFFFFFFFFFFFFFFFFFFFFFFFFFFFF DUP3 AND SWAP1 POP SWAP2 SWAP1 POP JUMP JUMPDEST PUSH1 0x0 PUSH2 0x20CD DUP3 PUSH2 0x20A2 JUMP JUMPDEST SWAP1 POP SWAP2 SWAP1 POP JUMP JUMPDEST PUSH2 0x20DD DUP2 PUSH2 0x20C2 JUMP JUMPDEST DUP3 MSTORE POP POP JUMP JUMPDEST PUSH1 0x0 PUSH1 0x20 DUP3 ADD SWAP1 POP PUSH2 0x20F8 PUSH1 0x0 DUP4 ADD DUP5 PUSH2 0x20D4 JUMP JUMPDEST SWAP3 SWAP2 POP POP JUMP JUMPDEST PUSH2 0x2107 DUP2 PUSH2 0x20C2 JUMP JUMPDEST DUP2 EQ PUSH2 0x2112 JUMPI PUSH1 0x0 DUP1 REVERT JUMPDEST POP JUMP JUMPDEST PUSH1 0x0 DUP2 CALLDATALOAD SWAP1 POP PUSH2 0x2124 DUP2 PUSH2 0x20FE JUMP JUMPDEST SWAP3 SWAP2 POP POP JUMP JUMPDEST PUSH1 0x0 DUP1 PUSH1 0x40 DUP4 DUP6 SUB SLT ISZERO PUSH2 0x2141 JUMPI PUSH2 0x2140 PUSH2 0x1EC8 JUMP JUMPDEST JUMPDEST PUSH1 0x0 PUSH2 0x214F DUP6 DUP3 DUP7 ADD PUSH2 0x2115 JUMP JUMPDEST SWAP3 POP POP PUSH1 0x20 PUSH2 0x2160 DUP6 DUP3 DUP7 ADD PUSH2 0x2060 JUMP JUMPDEST SWAP2 POP POP SWAP3 POP SWAP3 SWAP1 POP JUMP JUMPDEST PUSH2 0x2173 DUP2 PUSH2 0x203F JUMP JUMPDEST DUP3 MSTORE POP POP JUMP JUMPDEST PUSH1 0x0 PUSH1 0x20 DUP3 ADD SWAP1 POP PUSH2 0x218E PUSH1 0x0 DUP4 ADD DUP5 PUSH2 0x216A JUMP JUMPDEST SWAP3 SWAP2 POP POP JUMP JUMPDEST PUSH1 0x0 DUP1 PUSH1 0x0 PUSH1 0x60 DUP5 DUP7 SUB SLT ISZERO PUSH2 0x21AD JUMPI PUSH2 0x21AC PUSH2 0x1EC8 JUMP JUMPDEST JUMPDEST PUSH1 0x0 PUSH2 0x21BB DUP7 DUP3 DUP8 ADD PUSH2 0x2115 JUMP JUMPDEST SWAP4 POP POP PUSH1 0x20 PUSH2 0x21CC DUP7 DUP3 DUP8 ADD PUSH2 0x2115 JUMP JUMPDEST SWAP3 POP POP PUSH1 0x40 PUSH2 0x21DD DUP7 DUP3 DUP8 ADD PUSH2 0x2060 JUMP JUMPDEST SWAP2 POP POP SWAP3 POP SWAP3 POP SWAP3 JUMP JUMPDEST PUSH1 0x0 PUSH1 0x20 DUP3 DUP5 SUB SLT ISZERO PUSH2 0x21FD JUMPI PUSH2 0x21FC PUSH2 0x1EC8 JUMP JUMPDEST JUMPDEST PUSH1 0x0 PUSH2 0x220B DUP5 DUP3 DUP6 ADD PUSH2 0x2115 JUMP JUMPDEST SWAP2 POP POP SWAP3 SWAP2 POP POP JUMP JUMPDEST PUSH2 0x221D DUP2 PUSH2 0x1F57 JUMP JUMPDEST DUP2 EQ PUSH2 0x2228 JUMPI PUSH1 0x0 DUP1 REVERT JUMPDEST POP JUMP JUMPDEST PUSH1 0x0 DUP2 CALLDATALOAD SWAP1 POP PUSH2 0x223A DUP2 PUSH2 0x2214 JUMP JUMPDEST SWAP3 SWAP2 POP POP JUMP JUMPDEST PUSH1 0x0 DUP1 PUSH1 0x40 DUP4 DUP6 SUB SLT ISZERO PUSH2 0x2257 JUMPI PUSH2 0x2256 PUSH2 0x1EC8 JUMP JUMPDEST JUMPDEST PUSH1 0x0 PUSH2 0x2265 DUP6 DUP3 DUP7 ADD PUSH2 0x2115 JUMP JUMPDEST SWAP3 POP POP PUSH1 0x20 PUSH2 0x2276 DUP6 DUP3 DUP7 ADD PUSH2 0x222B JUMP JUMPDEST SWAP2 POP POP SWAP3 POP SWAP3 SWAP1 POP JUMP JUMPDEST PUSH1 0x0 DUP1 REVERT JUMPDEST PUSH1 0x0 DUP1 REVERT JUMPDEST PUSH32 0x4E487B7100000000000000000000000000000000000000000000000000000000 PUSH1 0x0 MSTORE PUSH1 0x41 PUSH1 0x4 MSTORE PUSH1 0x24 PUSH1 0x0 REVERT JUMPDEST PUSH2 0x22C2 DUP3 PUSH2 0x1FD3 JUMP JUMPDEST DUP2 ADD DUP2 DUP2 LT PUSH8 0xFFFFFFFFFFFFFFFF DUP3 GT OR ISZERO PUSH2 0x22E1 JUMPI PUSH2 0x22E0 PUSH2 0x228A JUMP JUMPDEST JUMPDEST DUP1 PUSH1 0x40 MSTORE POP POP POP JUMP JUMPDEST PUSH1 0x0 PUSH2 0x22F4 PUSH2 0x1EBE JUMP JUMPDEST SWAP1 POP PUSH2 0x2300 DUP3 DUP3 PUSH2 0x22B9 JUMP JUMPDEST SWAP2 SWAP1 POP JUMP JUMPDEST PUSH1 0x0 PUSH8 0xFFFFFFFFFFFFFFFF DUP3 GT ISZERO PUSH2 0x2320 JUMPI PUSH2 0x231F PUSH2 0x228A JUMP JUMPDEST JUMPDEST PUSH2 0x2329 DUP3 PUSH2 0x1FD3 JUMP JUMPDEST SWAP1 POP PUSH1 0x20 DUP2 ADD SWAP1 POP SWAP2 SWAP1 POP JUMP JUMPDEST DUP3 DUP2 DUP4 CALLDATACOPY PUSH1 0x0 DUP4 DUP4 ADD MSTORE POP POP POP JUMP JUMPDEST PUSH1 0x0 PUSH2 0x2358 PUSH2 0x2353 DUP5 PUSH2 0x2305 JUMP JUMPDEST PUSH2 0x22EA JUMP JUMPDEST SWAP1 POP DUP3 DUP2 MSTORE PUSH1 0x20 DUP2 ADD DUP5 DUP5 DUP5 ADD GT ISZERO PUSH2 0x2374 JUMPI PUSH2 0x2373 PUSH2 0x2285 JUMP JUMPDEST JUMPDEST PUSH2 0x237F DUP5 DUP3 DUP6 PUSH2 0x2336 JUMP JUMPDEST POP SWAP4 SWAP3 POP POP POP JUMP JUMPDEST PUSH1 0x0 DUP3 PUSH1 0x1F DUP4 ADD SLT PUSH2 0x239C JUMPI PUSH2 0x239B PUSH2 0x2280 JUMP JUMPDEST JUMPDEST DUP2 CALLDATALOAD PUSH2 0x23AC DUP5 DUP3 PUSH1 0x20 DUP7 ADD PUSH2 0x2345 JUMP JUMPDEST SWAP2 POP POP SWAP3 SWAP2 POP POP JUMP JUMPDEST PUSH1 0x0 DUP1 PUSH1 0x0 DUP1 PUSH1 0x80 DUP6 DUP8 SUB SLT ISZERO PUSH2 0x23CF JUMPI PUSH2 0x23CE PUSH2 0x1EC8 JUMP JUMPDEST JUMPDEST PUSH1 0x0 PUSH2 0x23DD DUP8 DUP3 DUP9 ADD PUSH2 0x2115 JUMP JUMPDEST SWAP5 POP POP PUSH1 0x20 PUSH2 0x23EE DUP8 DUP3 DUP9 ADD PUSH2 0x2115 JUMP JUMPDEST SWAP4 POP POP PUSH1 0x40 PUSH2 0x23FF DUP8 DUP3 DUP9 ADD PUSH2 0x2060 JUMP JUMPDEST SWAP3 POP POP PUSH1 0x60 DUP6 ADD CALLDATALOAD PUSH8 0xFFFFFFFFFFFFFFFF DUP2 GT ISZERO PUSH2 0x2420 JUMPI PUSH2 0x241F PUSH2 0x1ECD JUMP JUMPDEST JUMPDEST PUSH2 0x242C DUP8 DUP3 DUP9 ADD PUSH2 0x2387 JUMP JUMPDEST SWAP2 POP POP SWAP3 SWAP6 SWAP2 SWAP5 POP SWAP3 POP JUMP JUMPDEST PUSH1 0x0 DUP1 PUSH1 0x40 DUP4 DUP6 SUB SLT ISZERO PUSH2 0x244F JUMPI PUSH2 0x244E PUSH2 0x1EC8 JUMP JUMPDEST JUMPDEST PUSH1 0x0 PUSH2 0x245D DUP6 DUP3 DUP7 ADD PUSH2 0x2115 JUMP JUMPDEST SWAP3 POP POP PUSH1 0x20 PUSH2 0x246E DUP6 DUP3 DUP7 ADD PUSH2 0x2115 JUMP JUMPDEST SWAP2 POP POP SWAP3 POP SWAP3 SWAP1 POP JUMP JUMPDEST PUSH32 0x4E487B7100000000000000000000000000000000000000000000000000000000 PUSH1 0x0 MSTORE PUSH1 0x22 PUSH1 0x4 MSTORE PUSH1 0x24 PUSH1 0x0 REVERT JUMPDEST PUSH1 0x0 PUSH1 0x2 DUP3 DIV SWAP1 POP PUSH1 0x1 DUP3 AND DUP1 PUSH2 0x24BF JUMPI PUSH1 0x7F DUP3 AND SWAP2 POP JUMPDEST PUSH1 0x20 DUP3 LT DUP2 SUB PUSH2 0x24D2 JUMPI PUSH2 0x24D1 PUSH2 0x2478 JUMP JUMPDEST JUMPDEST POP SWAP2 SWAP1 POP JUMP JUMPDEST PUSH1 0x0 DUP2 SWAP1 POP SWAP3 SWAP2 POP POP JUMP JUMPDEST PUSH1 0x0 PUSH2 0x24EE DUP3 PUSH2 0x1F8D JUMP JUMPDEST PUSH2 0x24F8 DUP2 DUP6 PUSH2 0x24D8 JUMP JUMPDEST SWAP4 POP PUSH2 0x2508 DUP2 DUP6 PUSH1 0x20 DUP7 ADD PUSH2 0x1FA9 JUMP JUMPDEST DUP1 DUP5 ADD SWAP2 POP POP SWAP3 SWAP2 POP POP JUMP JUMPDEST PUSH1 0x0 PUSH2 0x2520 DUP3 DUP6 PUSH2 0x24E3 JUMP JUMPDEST SWAP2 POP PUSH2 0x252C DUP3 DUP5 PUSH2 0x24E3 JUMP JUMPDEST SWAP2 POP DUP2 SWAP1 POP SWAP4 SWAP3 POP POP POP JUMP JUMPDEST PUSH32 0x4E487B7100000000000000000000000000000000000000000000000000000000 PUSH1 0x0 MSTORE PUSH1 0x12 PUSH1 0x4 MSTORE PUSH1 0x24 PUSH1 0x0 REVERT JUMPDEST PUSH1 0x0 PUSH2 0x2572 DUP3 PUSH2 0x203F JUMP JUMPDEST SWAP2 POP PUSH2 0x257D DUP4 PUSH2 0x203F JUMP JUMPDEST SWAP3 POP DUP3 PUSH2 0x258D JUMPI PUSH2 0x258C PUSH2 0x2538 JUMP JUMPDEST JUMPDEST DUP3 DUP3 MOD SWAP1 POP SWAP3 SWAP2 POP POP JUMP JUMPDEST PUSH32 0x4E487B7100000000000000000000000000000000000000000000000000000000 PUSH1 0x0 MSTORE PUSH1 0x11 PUSH1 0x4 MSTORE PUSH1 0x24 PUSH1 0x0 REVERT JUMPDEST PUSH1 0x0 PUSH2 0x25D2 DUP3 PUSH2 0x203F JUMP JUMPDEST SWAP2 POP PUSH2 0x25DD DUP4 PUSH2 0x203F JUMP JUMPDEST SWAP3 POP DUP3 DUP3 MUL PUSH2 0x25EB DUP2 PUSH2 0x203F JUMP JUMPDEST SWAP2 POP DUP3 DUP3 DIV DUP5 EQ DUP4 ISZERO OR PUSH2 0x2602 JUMPI PUSH2 0x2601 PUSH2 0x2598 JUMP JUMPDEST JUMPDEST POP SWAP3 SWAP2 POP POP JUMP JUMPDEST PUSH1 0x0 PUSH2 0x2614 DUP3 PUSH2 0x203F JUMP JUMPDEST SWAP2 POP PUSH2 0x261F DUP4 PUSH2 0x203F JUMP JUMPDEST SWAP3 POP DUP3 DUP3 SUB SWAP1 POP DUP2 DUP2 GT ISZERO PUSH2 0x2637 JUMPI PUSH2 0x2636 PUSH2 0x2598 JUMP JUMPDEST JUMPDEST SWAP3 SWAP2 POP POP JUMP JUMPDEST PUSH1 0x0 PUSH2 0x2648 DUP3 PUSH2 0x203F JUMP JUMPDEST SWAP2 POP PUSH2 0x2653 DUP4 PUSH2 0x203F JUMP JUMPDEST SWAP3 POP DUP3 DUP3 ADD SWAP1 POP DUP1 DUP3 GT ISZERO PUSH2 0x266B JUMPI PUSH2 0x266A PUSH2 0x2598 JUMP JUMPDEST JUMPDEST SWAP3 SWAP2 POP POP JUMP JUMPDEST PUSH1 0x0 PUSH2 0x267C DUP3 PUSH2 0x203F JUMP JUMPDEST SWAP2 POP PUSH2 0x2687 DUP4 PUSH2 0x203F JUMP JUMPDEST SWAP3 POP DUP3 PUSH2 0x2697 JUMPI PUSH2 0x2696 PUSH2 0x2538 JUMP JUMPDEST JUMPDEST DUP3 DUP3 DIV SWAP1 POP SWAP3 SWAP2 POP POP JUMP JUMPDEST PUSH1 0x0 DUP2 MLOAD SWAP1 POP SWAP2 SWAP1 POP JUMP JUMPDEST PUSH1 0x0 DUP3 DUP3 MSTORE PUSH1 0x20 DUP3 ADD SWAP1 POP SWAP3 SWAP2 POP POP JUMP JUMPDEST PUSH1 0x0 PUSH2 0x26C9 DUP3 PUSH2 0x26A2 JUMP JUMPDEST PUSH2 0x26D3 DUP2 DUP6 PUSH2 0x26AD JUMP JUMPDEST SWAP4 POP PUSH2 0x26E3 DUP2 DUP6 PUSH1 0x20 DUP7 ADD PUSH2 0x1FA9 JUMP JUMPDEST PUSH2 0x26EC DUP2 PUSH2 0x1FD3 JUMP JUMPDEST DUP5 ADD SWAP2 POP POP SWAP3 SWAP2 POP POP JUMP JUMPDEST PUSH1 0x0 PUSH1 0x80 DUP3 ADD SWAP1 POP PUSH2 0x270C PUSH1 0x0 DUP4 ADD DUP8 PUSH2 0x20D4 JUMP JUMPDEST PUSH2 0x2719 PUSH1 0x20 DUP4 ADD DUP7 PUSH2 0x20D4 JUMP JUMPDEST PUSH2 0x2726 PUSH1 0x40 DUP4 ADD DUP6 PUSH2 0x216A JUMP JUMPDEST DUP2 DUP2 SUB PUSH1 0x60 DUP4 ADD MSTORE PUSH2 0x2738 DUP2 DUP5 PUSH2 0x26BE JUMP JUMPDEST SWAP1 POP SWAP6 SWAP5 POP POP POP POP POP JUMP JUMPDEST PUSH1 0x0 DUP2 MLOAD SWAP1 POP PUSH2 0x2752 DUP2 PUSH2 0x1EFE JUMP JUMPDEST SWAP3 SWAP2 POP POP JUMP JUMPDEST PUSH1 0x0 PUSH1 0x20 DUP3 DUP5 SUB SLT ISZERO PUSH2 0x276E JUMPI PUSH2 0x276D PUSH2 0x1EC8 JUMP JUMPDEST JUMPDEST PUSH1 0x0 PUSH2 0x277C DUP5 DUP3 DUP6 ADD PUSH2 0x2743 JUMP JUMPDEST SWAP2 POP POP SWAP3 SWAP2 POP POP JUMP INVALID PUSH9 0x747470733A2F2F6761 PUSH21 0x657761792E70696E6174612E636C6F75642F697066 PUSH20 0x2F516D56513653643563566B56447A414C706472 BASEFEE 0x4B PUSH2 0x6E67 PUSH9 0x426F4A596457557855 PUSH21 0x336B3748705146525838782FA26469706673582212 KECCAK256 0x28 DUP16 SWAP14 DUP13 0xDE PUSH30 0xDFAFD6DBA36B4D2556C68DAB89E701D6E057358BFCFFE410DFA64736F6C PUSH4 0x43000811 STOP CALLER "
				},
				"gasEstimates": {
					"creation": {
						"codeDepositCost": "2050400",
						"executionCost": "infinite",
						"totalCost": "infinite"
					},
					"external": {
						"MineStatus(address)": "infinite",
						"approve(address,uint256)": "infinite",
						"balanceOf(address)": "3035",
						"blockStatus(uint256)": "infinite",
						"getApproved(uint256)": "7458",
						"isApprovedForAll(address,address)": "infinite",
						"maxSupply()": "4598",
						"mineInfo(address,uint256)": "infinite",
						"name()": "infinite",
						"ownerOf(uint256)": "infinite",
						"safeTransferFrom(address,address,uint256)": "infinite",
						"safeTransferFrom(address,address,uint256,bytes)": "infinite",
						"setApprovalForAll(address,bool)": "infinite",
						"supportsInterface(bytes4)": "797",
						"symbol()": "infinite",
						"tokenIDPower(uint256)": "infinite",
						"tokenURI(uint256)": "infinite",
						"totalPower()": "2481",
						"totalSupply()": "4688",
						"transferFrom(address,address,uint256)": "infinite"
					},
					"internal": {
						"_afterTokenTransfers(address,address,uint256,uint256)": "17",
						"_approve(address,uint256,address)": "26292",
						"_baseURI()": "infinite",
						"_beforeTokenTransfers(address,address,uint256,uint256)": "17",
						"_burn(uint256)": "infinite",
						"_burn(uint256,bool)": "infinite",
						"_checkContractOnERC721Received(address,address,uint256,bytes memory)": "infinite",
						"_exists(uint256)": "4499",
						"_getAux(address)": "infinite",
						"_numberBurned(address)": "infinite",
						"_numberMinted(address)": "infinite",
						"_ownershipOf(uint256)": "infinite",
						"_safeMint(address,uint256)": "infinite",
						"_safeMint(address,uint256,bytes memory)": "infinite",
						"_setAux(address,uint64)": "infinite",
						"_startTokenId()": "15",
						"_totalMinted()": "infinite",
						"_transfer(address,address,uint256)": "infinite"
					}
				},
				"methodIdentifiers": {
					"MineStatus(address)": "b8ba6007",
					"approve(address,uint256)": "095ea7b3",
					"balanceOf(address)": "70a08231",
					"blockStatus(uint256)": "4be3403c",
					"getApproved(uint256)": "081812fc",
					"isApprovedForAll(address,address)": "e985e9c5",
					"maxSupply()": "d5abeb01",
					"mineInfo(address,uint256)": "eff0730d",
					"name()": "06fdde03",
					"ownerOf(uint256)": "6352211e",
					"safeTransferFrom(address,address,uint256)": "42842e0e",
					"safeTransferFrom(address,address,uint256,bytes)": "b88d4fde",
					"setApprovalForAll(address,bool)": "a22cb465",
					"supportsInterface(bytes4)": "01ffc9a7",
					"symbol()": "95d89b41",
					"tokenIDPower(uint256)": "e29301f9",
					"tokenURI(uint256)": "c87b56dd",
					"totalPower()": "db3ad22c",
					"totalSupply()": "18160ddd",
					"transferFrom(address,address,uint256)": "23b872dd"
				}
			},
			"storageLayout": {
				"storage": [
					{
						"astId": 1930,
						"contract": "minerpunk/ERC721A/ERC721A.sol:ERC721A",
						"label": "_salt",
						"offset": 0,
						"slot": "0",
						"type": "t_uint256"
					},
					{
						"astId": 1932,
						"contract": "minerpunk/ERC721A/ERC721A.sol:ERC721A",
						"label": "_K",
						"offset": 0,
						"slot": "1",
						"type": "t_uint256"
					},
					{
						"astId": 1934,
						"contract": "minerpunk/ERC721A/ERC721A.sol:ERC721A",
						"label": "_startBlockNumber",
						"offset": 0,
						"slot": "2",
						"type": "t_uint256"
					},
					{
						"astId": 1936,
						"contract": "minerpunk/ERC721A/ERC721A.sol:ERC721A",
						"label": "_totalPower",
						"offset": 0,
						"slot": "3",
						"type": "t_uint256"
					},
					{
						"astId": 1938,
						"contract": "minerpunk/ERC721A/ERC721A.sol:ERC721A",
						"label": "_currentIndex",
						"offset": 0,
						"slot": "4",
						"type": "t_uint256"
					},
					{
						"astId": 1940,
						"contract": "minerpunk/ERC721A/ERC721A.sol:ERC721A",
						"label": "_maxSupply",
						"offset": 0,
						"slot": "5",
						"type": "t_uint256"
					},
					{
						"astId": 1942,
						"contract": "minerpunk/ERC721A/ERC721A.sol:ERC721A",
						"label": "_burnCounter",
						"offset": 0,
						"slot": "6",
						"type": "t_uint256"
					},
					{
						"astId": 1944,
						"contract": "minerpunk/ERC721A/ERC721A.sol:ERC721A",
						"label": "_name",
						"offset": 0,
						"slot": "7",
						"type": "t_string_storage"
					},
					{
						"astId": 1946,
						"contract": "minerpunk/ERC721A/ERC721A.sol:ERC721A",
						"label": "_symbol",
						"offset": 0,
						"slot": "8",
						"type": "t_string_storage"
					},
					{
						"astId": 1951,
						"contract": "minerpunk/ERC721A/ERC721A.sol:ERC721A",
						"label": "_ownerships",
						"offset": 0,
						"slot": "9",
						"type": "t_mapping(t_uint256,t_struct(TokenOwnership)3643_storage)"
					},
					{
						"astId": 1956,
						"contract": "minerpunk/ERC721A/ERC721A.sol:ERC721A",
						"label": "_addressData",
						"offset": 0,
						"slot": "10",
						"type": "t_mapping(t_address,t_struct(AddressData)3652_storage)"
					},
					{
						"astId": 1960,
						"contract": "minerpunk/ERC721A/ERC721A.sol:ERC721A",
						"label": "_tokenApprovals",
						"offset": 0,
						"slot": "11",
						"type": "t_mapping(t_uint256,t_address)"
					},
					{
						"astId": 1966,
						"contract": "minerpunk/ERC721A/ERC721A.sol:ERC721A",
						"label": "_operatorApprovals",
						"offset": 0,
						"slot": "12",
						"type": "t_mapping(t_address,t_mapping(t_address,t_bool))"
					},
					{
						"astId": 1973,
						"contract": "minerpunk/ERC721A/ERC721A.sol:ERC721A",
						"label": "_mineInfo",
						"offset": 0,
						"slot": "13",
						"type": "t_mapping(t_address,t_mapping(t_uint256,t_uint256))"
					}
				],
				"types": {
					"t_address": {
						"encoding": "inplace",
						"label": "address",
						"numberOfBytes": "20"
					},
					"t_bool": {
						"encoding": "inplace",
						"label": "bool",
						"numberOfBytes": "1"
					},
					"t_mapping(t_address,t_bool)": {
						"encoding": "mapping",
						"key": "t_address",
						"label": "mapping(address => bool)",
						"numberOfBytes": "32",
						"value": "t_bool"
					},
					"t_mapping(t_address,t_mapping(t_address,t_bool))": {
						"encoding": "mapping",
						"key": "t_address",
						"label": "mapping(address => mapping(address => bool))",
						"numberOfBytes": "32",
						"value": "t_mapping(t_address,t_bool)"
					},
					"t_mapping(t_address,t_mapping(t_uint256,t_uint256))": {
						"encoding": "mapping",
						"key": "t_address",
						"label": "mapping(address => mapping(uint256 => uint256))",
						"numberOfBytes": "32",
						"value": "t_mapping(t_uint256,t_uint256)"
					},
					"t_mapping(t_address,t_struct(AddressData)3652_storage)": {
						"encoding": "mapping",
						"key": "t_address",
						"label": "mapping(address => struct IERC721A.AddressData)",
						"numberOfBytes": "32",
						"value": "t_struct(AddressData)3652_storage"
					},
					"t_mapping(t_uint256,t_address)": {
						"encoding": "mapping",
						"key": "t_uint256",
						"label": "mapping(uint256 => address)",
						"numberOfBytes": "32",
						"value": "t_address"
					},
					"t_mapping(t_uint256,t_struct(TokenOwnership)3643_storage)": {
						"encoding": "mapping",
						"key": "t_uint256",
						"label": "mapping(uint256 => struct IERC721A.TokenOwnership)",
						"numberOfBytes": "32",
						"value": "t_struct(TokenOwnership)3643_storage"
					},
					"t_mapping(t_uint256,t_uint256)": {
						"encoding": "mapping",
						"key": "t_uint256",
						"label": "mapping(uint256 => uint256)",
						"numberOfBytes": "32",
						"value": "t_uint256"
					},
					"t_string_storage": {
						"encoding": "bytes",
						"label": "string",
						"numberOfBytes": "32"
					},
					"t_struct(AddressData)3652_storage": {
						"encoding": "inplace",
						"label": "struct IERC721A.AddressData",
						"members": [
							{
								"astId": 3645,
								"contract": "minerpunk/ERC721A/ERC721A.sol:ERC721A",
								"label": "balance",
								"offset": 0,
								"slot": "0",
								"type": "t_uint64"
							},
							{
								"astId": 3647,
								"contract": "minerpunk/ERC721A/ERC721A.sol:ERC721A",
								"label": "numberMinted",
								"offset": 8,
								"slot": "0",
								"type": "t_uint64"
							},
							{
								"astId": 3649,
								"contract": "minerpunk/ERC721A/ERC721A.sol:ERC721A",
								"label": "numberBurned",
								"offset": 16,
								"slot": "0",
								"type": "t_uint64"
							},
							{
								"astId": 3651,
								"contract": "minerpunk/ERC721A/ERC721A.sol:ERC721A",
								"label": "aux",
								"offset": 24,
								"slot": "0",
								"type": "t_uint64"
							}
						],
						"numberOfBytes": "32"
					},
					"t_struct(TokenOwnership)3643_storage": {
						"encoding": "inplace",
						"label": "struct IERC721A.TokenOwnership",
						"members": [
							{
								"astId": 3638,
								"contract": "minerpunk/ERC721A/ERC721A.sol:ERC721A",
								"label": "addr",
								"offset": 0,
								"slot": "0",
								"type": "t_address"
							},
							{
								"astId": 3640,
								"contract": "minerpunk/ERC721A/ERC721A.sol:ERC721A",
								"label": "startTimestamp",
								"offset": 20,
								"slot": "0",
								"type": "t_uint64"
							},
							{
								"astId": 3642,
								"contract": "minerpunk/ERC721A/ERC721A.sol:ERC721A",
								"label": "burned",
								"offset": 28,
								"slot": "0",
								"type": "t_bool"
							}
						],
						"numberOfBytes": "32"
					},
					"t_uint256": {
						"encoding": "inplace",
						"label": "uint256",
						"numberOfBytes": "32"
					},
					"t_uint64": {
						"encoding": "inplace",
						"label": "uint64",
						"numberOfBytes": "8"
					}
				}
			},
			"userdoc": {
				"errors": {
					"ApprovalCallerNotOwnerNorApproved()": [
						{
							"notice": "The caller must own the token or be an approved operator."
						}
					],
					"ApprovalQueryForNonexistentToken()": [
						{
							"notice": "The token does not exist."
						}
					],
					"ApprovalToCurrentOwner()": [
						{
							"notice": "The caller cannot approve to the current owner."
						}
					],
					"ApproveToCaller()": [
						{
							"notice": "The caller cannot approve to their own address."
						}
					],
					"BalanceQueryForZeroAddress()": [
						{
							"notice": "Cannot query the balance for the zero address."
						}
					],
					"MintToZeroAddress()": [
						{
							"notice": "Cannot mint to the zero address."
						}
					],
					"MintZeroQuantity()": [
						{
							"notice": "The quantity of tokens minted must be more than zero."
						}
					],
					"OwnerQueryForNonexistentToken()": [
						{
							"notice": "The token does not exist."
						}
					],
					"TransferCallerNotOwnerNorApproved()": [
						{
							"notice": "The caller must own the token or be an approved operator."
						}
					],
					"TransferFromIncorrectOwner()": [
						{
							"notice": "The token must be owned by `from`."
						}
					],
					"TransferToNonERC721ReceiverImplementer()": [
						{
							"notice": "Cannot safely transfer to a contract that does not implement the ERC721Receiver interface."
						}
					],
					"TransferToZeroAddress()": [
						{
							"notice": "Cannot transfer to the zero address."
						}
					],
					"URIQueryForNonexistentToken()": [
						{
							"notice": "The token does not exist."
						}
					]
				},
				"kind": "user",
				"methods": {},
				"version": 1
			}
		}
	}
}